{
	"val30.sol": {
		"CalldataVsMemory": {
			"abi": [
				{
					"inputs": [
						{
							"internalType": "uint256[]",
							"name": "_numbers",
							"type": "uint256[]"
						}
					],
					"name": "modifyMemory",
					"outputs": [
						{
							"internalType": "uint256[]",
							"name": "",
							"type": "uint256[]"
						}
					],
					"stateMutability": "pure",
					"type": "function"
				},
				{
					"inputs": [
						{
							"internalType": "string[]",
							"name": "_names",
							"type": "string[]"
						}
					],
					"name": "modifyStringArray",
					"outputs": [
						{
							"internalType": "string[]",
							"name": "",
							"type": "string[]"
						}
					],
					"stateMutability": "pure",
					"type": "function"
				},
				{
					"inputs": [
						{
							"internalType": "uint256[]",
							"name": "_numbers",
							"type": "uint256[]"
						}
					],
					"name": "saveValues",
					"outputs": [],
					"stateMutability": "nonpayable",
					"type": "function"
				},
				{
					"inputs": [
						{
							"internalType": "uint256",
							"name": "",
							"type": "uint256"
						}
					],
					"name": "storedValues",
					"outputs": [
						{
							"internalType": "uint256",
							"name": "",
							"type": "uint256"
						}
					],
					"stateMutability": "view",
					"type": "function"
				},
				{
					"inputs": [
						{
							"internalType": "uint256[]",
							"name": "_numbers",
							"type": "uint256[]"
						}
					],
					"name": "useCalldata",
					"outputs": [
						{
							"internalType": "uint256",
							"name": "",
							"type": "uint256"
						}
					],
					"stateMutability": "pure",
					"type": "function"
				},
				{
					"inputs": [
						{
							"internalType": "uint256[]",
							"name": "_numbers",
							"type": "uint256[]"
						}
					],
					"name": "useMemory",
					"outputs": [
						{
							"internalType": "uint256",
							"name": "",
							"type": "uint256"
						}
					],
					"stateMutability": "pure",
					"type": "function"
				}
			],
			"devdoc": {
				"kind": "dev",
				"methods": {},
				"version": 1
			},
			"evm": {
				"assembly": "    /* \"val30.sol\":11796:14670  contract CalldataVsMemory {... */\n  mstore(0x40, 0x80)\n  callvalue\n  dup1\n  iszero\n  tag_1\n  jumpi\n  revert(0x00, 0x00)\ntag_1:\n  pop\n  dataSize(sub_0)\n  dup1\n  dataOffset(sub_0)\n  0x00\n  codecopy\n  0x00\n  return\nstop\n\nsub_0: assembly {\n        /* \"val30.sol\":11796:14670  contract CalldataVsMemory {... */\n      mstore(0x40, 0x80)\n      callvalue\n      dup1\n      iszero\n      tag_1\n      jumpi\n      revert(0x00, 0x00)\n    tag_1:\n      pop\n      jumpi(tag_2, lt(calldatasize, 0x04))\n      shr(0xe0, calldataload(0x00))\n      dup1\n      0x662ef05b\n      eq\n      tag_3\n      jumpi\n      dup1\n      0x7d542068\n      eq\n      tag_4\n      jumpi\n      dup1\n      0x9e258efe\n      eq\n      tag_5\n      jumpi\n      dup1\n      0xc92fa517\n      eq\n      tag_6\n      jumpi\n      dup1\n      0xe33c702f\n      eq\n      tag_7\n      jumpi\n      dup1\n      0xe4f7d551\n      eq\n      tag_8\n      jumpi\n    tag_2:\n      revert(0x00, 0x00)\n        /* \"val30.sol\":13351:13753  function modifyMemory(... */\n    tag_3:\n      tag_9\n      0x04\n      dup1\n      calldatasize\n      sub\n      dup2\n      add\n      swap1\n      tag_10\n      swap2\n      swap1\n      tag_11\n      jump\t// in\n    tag_10:\n      tag_12\n      jump\t// in\n    tag_9:\n      mload(0x40)\n      tag_13\n      swap2\n      swap1\n      tag_14\n      jump\t// in\n    tag_13:\n      mload(0x40)\n      dup1\n      swap2\n      sub\n      swap1\n      return\n        /* \"val30.sol\":13788:14211  function modifyStringArray(string[] calldata _names) external pure returns (string[] memory)... */\n    tag_4:\n      tag_15\n      0x04\n      dup1\n      calldatasize\n      sub\n      dup2\n      add\n      swap1\n      tag_16\n      swap2\n      swap1\n      tag_17\n      jump\t// in\n    tag_16:\n      tag_18\n      jump\t// in\n    tag_15:\n      mload(0x40)\n      tag_19\n      swap2\n      swap1\n      tag_20\n      jump\t// in\n    tag_19:\n      mload(0x40)\n      dup1\n      swap2\n      sub\n      swap1\n      return\n        /* \"val30.sol\":11908:11937  uint256[] public storedValues */\n    tag_5:\n      tag_21\n      0x04\n      dup1\n      calldatasize\n      sub\n      dup2\n      add\n      swap1\n      tag_22\n      swap2\n      swap1\n      tag_23\n      jump\t// in\n    tag_22:\n      tag_24\n      jump\t// in\n    tag_21:\n      mload(0x40)\n      tag_25\n      swap2\n      swap1\n      tag_26\n      jump\t// in\n    tag_25:\n      mload(0x40)\n      dup1\n      swap2\n      sub\n      swap1\n      return\n        /* \"val30.sol\":12147:12551  function useCalldata(... */\n    tag_6:\n      tag_27\n      0x04\n      dup1\n      calldatasize\n      sub\n      dup2\n      add\n      swap1\n      tag_28\n      swap2\n      swap1\n      tag_11\n      jump\t// in\n    tag_28:\n      tag_29\n      jump\t// in\n    tag_27:\n      mload(0x40)\n      tag_30\n      swap2\n      swap1\n      tag_26\n      jump\t// in\n    tag_30:\n      mload(0x40)\n      dup1\n      swap2\n      sub\n      swap1\n      return\n        /* \"val30.sol\":12743:13140  function useMemory(... */\n    tag_7:\n      tag_31\n      0x04\n      dup1\n      calldatasize\n      sub\n      dup2\n      add\n      swap1\n      tag_32\n      swap2\n      swap1\n      tag_33\n      jump\t// in\n    tag_32:\n      tag_34\n      jump\t// in\n    tag_31:\n      mload(0x40)\n      tag_35\n      swap2\n      swap1\n      tag_26\n      jump\t// in\n    tag_35:\n      mload(0x40)\n      dup1\n      swap2\n      sub\n      swap1\n      return\n        /* \"val30.sol\":14382:14667  function saveValues(... */\n    tag_8:\n      tag_36\n      0x04\n      dup1\n      calldatasize\n      sub\n      dup2\n      add\n      swap1\n      tag_37\n      swap2\n      swap1\n      tag_11\n      jump\t// in\n    tag_37:\n      tag_38\n      jump\t// in\n    tag_36:\n      stop\n        /* \"val30.sol\":13351:13753  function modifyMemory(... */\n    tag_12:\n        /* \"val30.sol\":13468:13484  uint256[] memory */\n      0x60\n        /* \"val30.sol\":13567:13593  uint256[] memory tempArray */\n      0x00\n        /* \"val30.sol\":13596:13604  _numbers */\n      dup4\n      dup4\n        /* \"val30.sol\":13567:13604  uint256[] memory tempArray = _numbers */\n      dup1\n      dup1\n      0x20\n      mul\n      0x20\n      add\n      mload(0x40)\n      swap1\n      dup2\n      add\n      0x40\n      mstore\n      dup1\n      swap4\n      swap3\n      swap2\n      swap1\n      dup2\n      dup2\n      mstore\n      0x20\n      add\n      dup4\n      dup4\n      0x20\n      mul\n      dup1\n      dup3\n      dup5\n      calldatacopy\n      0x00\n      dup2\n      dup5\n      add\n      mstore\n      not(0x1f)\n      0x1f\n      dup3\n      add\n      and\n      swap1\n      pop\n      dup1\n      dup4\n      add\n      swap3\n      pop\n      pop\n      pop\n      pop\n      pop\n      pop\n      pop\n      swap1\n      pop\n        /* \"val30.sol\":13713:13716  999 */\n      0x03e7\n        /* \"val30.sol\":13698:13707  tempArray */\n      dup2\n        /* \"val30.sol\":13708:13709  0 */\n      0x00\n        /* \"val30.sol\":13698:13710  tempArray[0] */\n      dup2\n      mload\n      dup2\n      lt\n      tag_40\n      jumpi\n      tag_41\n      tag_42\n      jump\t// in\n    tag_41:\n    tag_40:\n      0x20\n      mul\n      0x20\n      add\n      add\n        /* \"val30.sol\":13698:13716  tempArray[0] = 999 */\n      dup2\n      dup2\n      mstore\n      pop\n      pop\n        /* \"val30.sol\":13736:13745  tempArray */\n      dup1\n        /* \"val30.sol\":13729:13745  return tempArray */\n      swap2\n      pop\n      pop\n        /* \"val30.sol\":13351:13753  function modifyMemory(... */\n      swap3\n      swap2\n      pop\n      pop\n      jump\t// out\n        /* \"val30.sol\":13788:14211  function modifyStringArray(string[] calldata _names) external pure returns (string[] memory)... */\n    tag_18:\n        /* \"val30.sol\":13864:13879  string[] memory */\n      0x60\n        /* \"val30.sol\":13921:13922  0 */\n      0x00\n        /* \"val30.sol\":13905:13911  _names */\n      dup4\n      dup4\n        /* \"val30.sol\":13905:13918  _names.length */\n      swap1\n      pop\n        /* \"val30.sol\":13905:13922  _names.length > 0 */\n      gt\n        /* \"val30.sol\":13897:13948  require(_names.length > 0, \"Array cannot be empty\") */\n      tag_44\n      jumpi\n      mload(0x40)\n      0x08c379a000000000000000000000000000000000000000000000000000000000\n      dup2\n      mstore\n      0x04\n      add\n      tag_45\n      swap1\n      tag_46\n      jump\t// in\n    tag_45:\n      mload(0x40)\n      dup1\n      swap2\n      sub\n      swap1\n      revert\n    tag_44:\n        /* \"val30.sol\":13961:13986  string[] memory tempNames */\n      0x00\n        /* \"val30.sol\":14002:14008  _names */\n      dup4\n      dup4\n        /* \"val30.sol\":14002:14015  _names.length */\n      swap1\n      pop\n        /* \"val30.sol\":13989:14016  new string[](_names.length) */\n      0xffffffffffffffff\n      dup2\n      gt\n      iszero\n      tag_47\n      jumpi\n      tag_48\n      tag_49\n      jump\t// in\n    tag_48:\n    tag_47:\n      mload(0x40)\n      swap1\n      dup1\n      dup3\n      mstore\n      dup1\n      0x20\n      mul\n      0x20\n      add\n      dup3\n      add\n      0x40\n      mstore\n      dup1\n      iszero\n      tag_50\n      jumpi\n      dup2\n      0x20\n      add\n    tag_51:\n      0x60\n      dup2\n      mstore\n      0x20\n      add\n      swap1\n      0x01\n      swap1\n      sub\n      swap1\n      dup2\n      tag_51\n      jumpi\n      swap1\n      pop\n    tag_50:\n      pop\n        /* \"val30.sol\":13961:14016  string[] memory tempNames = new string[](_names.length) */\n      swap1\n      pop\n        /* \"val30.sol\":14033:14042  uint256 i */\n      0x00\n        /* \"val30.sol\":14045:14046  0 */\n      0x00\n        /* \"val30.sol\":14033:14046  uint256 i = 0 */\n      swap1\n      pop\n        /* \"val30.sol\":14029:14132  for(uint256 i = 0; i < _names.length; i++)... */\n    tag_52:\n        /* \"val30.sol\":14052:14058  _names */\n      dup5\n      dup5\n        /* \"val30.sol\":14052:14065  _names.length */\n      swap1\n      pop\n        /* \"val30.sol\":14048:14049  i */\n      dup2\n        /* \"val30.sol\":14048:14065  i < _names.length */\n      lt\n        /* \"val30.sol\":14029:14132  for(uint256 i = 0; i < _names.length; i++)... */\n      iszero\n      tag_53\n      jumpi\n        /* \"val30.sol\":14111:14117  _names */\n      dup5\n      dup5\n        /* \"val30.sol\":14118:14119  i */\n      dup3\n        /* \"val30.sol\":14111:14120  _names[i] */\n      dup2\n      dup2\n      lt\n      tag_55\n      jumpi\n      tag_56\n      tag_42\n      jump\t// in\n    tag_56:\n    tag_55:\n      swap1\n      pop\n      0x20\n      mul\n      dup2\n      add\n      swap1\n      tag_57\n      swap2\n      swap1\n      tag_58\n      jump\t// in\n    tag_57:\n        /* \"val30.sol\":14096:14120  tempNames[i] = _names[i] */\n      dup1\n      dup1\n      0x1f\n      add\n      0x20\n      dup1\n      swap2\n      div\n      mul\n      0x20\n      add\n      mload(0x40)\n      swap1\n      dup2\n      add\n      0x40\n      mstore\n      dup1\n      swap4\n      swap3\n      swap2\n      swap1\n      dup2\n      dup2\n      mstore\n      0x20\n      add\n      dup4\n      dup4\n      dup1\n      dup3\n      dup5\n      calldatacopy\n      0x00\n      dup2\n      dup5\n      add\n      mstore\n      not(0x1f)\n      0x1f\n      dup3\n      add\n      and\n      swap1\n      pop\n      dup1\n      dup4\n      add\n      swap3\n      pop\n      pop\n      pop\n      pop\n      pop\n      pop\n      pop\n        /* \"val30.sol\":14096:14105  tempNames */\n      dup3\n        /* \"val30.sol\":14106:14107  i */\n      dup3\n        /* \"val30.sol\":14096:14108  tempNames[i] */\n      dup2\n      mload\n      dup2\n      lt\n      tag_59\n      jumpi\n      tag_60\n      tag_42\n      jump\t// in\n    tag_60:\n    tag_59:\n      0x20\n      mul\n      0x20\n      add\n      add\n        /* \"val30.sol\":14096:14120  tempNames[i] = _names[i] */\n      dup2\n      swap1\n      mstore\n      pop\n        /* \"val30.sol\":14067:14070  i++ */\n      dup1\n      dup1\n      0x01\n      add\n      swap2\n      pop\n      pop\n        /* \"val30.sol\":14029:14132  for(uint256 i = 0; i < _names.length; i++)... */\n      jump(tag_52)\n    tag_53:\n      pop\n        /* \"val30.sol\":14144:14174  tempNames[0] = \"Modified Name\" */\n      mload(0x40)\n      dup1\n      0x40\n      add\n      0x40\n      mstore\n      dup1\n      0x0d\n      dup2\n      mstore\n      0x20\n      add\n      0x4d6f646966696564204e616d6500000000000000000000000000000000000000\n      dup2\n      mstore\n      pop\n        /* \"val30.sol\":14144:14153  tempNames */\n      dup2\n        /* \"val30.sol\":14154:14155  0 */\n      0x00\n        /* \"val30.sol\":14144:14156  tempNames[0] */\n      dup2\n      mload\n      dup2\n      lt\n      tag_61\n      jumpi\n      tag_62\n      tag_42\n      jump\t// in\n    tag_62:\n    tag_61:\n      0x20\n      mul\n      0x20\n      add\n      add\n        /* \"val30.sol\":14144:14174  tempNames[0] = \"Modified Name\" */\n      dup2\n      swap1\n      mstore\n      pop\n        /* \"val30.sol\":14194:14203  tempNames */\n      dup1\n        /* \"val30.sol\":14187:14203  return tempNames */\n      swap2\n      pop\n      pop\n        /* \"val30.sol\":13788:14211  function modifyStringArray(string[] calldata _names) external pure returns (string[] memory)... */\n      swap3\n      swap2\n      pop\n      pop\n      jump\t// out\n        /* \"val30.sol\":11908:11937  uint256[] public storedValues */\n    tag_24:\n      0x00\n      dup2\n      dup2\n      sload\n      dup2\n      lt\n      tag_63\n      jumpi\n      0x00\n      dup1\n      revert\n    tag_63:\n      swap1\n      0x00\n      mstore\n      keccak256(0x00, 0x20)\n      add\n      0x00\n      swap2\n      pop\n      swap1\n      pop\n      sload\n      dup2\n      jump\t// out\n        /* \"val30.sol\":12147:12551  function useCalldata(... */\n    tag_29:\n        /* \"val30.sol\":12263:12270  uint256 */\n      0x00\n        /* \"val30.sol\":12290:12303  uint256 total */\n      0x00\n        /* \"val30.sol\":12306:12307  0 */\n      0x00\n        /* \"val30.sol\":12290:12307  uint256 total = 0 */\n      swap1\n      pop\n        /* \"val30.sol\":12429:12438  uint256 i */\n      0x00\n        /* \"val30.sol\":12441:12442  0 */\n      0x00\n        /* \"val30.sol\":12429:12442  uint256 i = 0 */\n      swap1\n      pop\n        /* \"val30.sol\":12424:12519  for (uint256 i = 0; i < _numbers.length; i++) {... */\n    tag_66:\n        /* \"val30.sol\":12448:12456  _numbers */\n      dup5\n      dup5\n        /* \"val30.sol\":12448:12463  _numbers.length */\n      swap1\n      pop\n        /* \"val30.sol\":12444:12445  i */\n      dup2\n        /* \"val30.sol\":12444:12463  i < _numbers.length */\n      lt\n        /* \"val30.sol\":12424:12519  for (uint256 i = 0; i < _numbers.length; i++) {... */\n      iszero\n      tag_67\n      jumpi\n        /* \"val30.sol\":12496:12504  _numbers */\n      dup5\n      dup5\n        /* \"val30.sol\":12505:12506  i */\n      dup3\n        /* \"val30.sol\":12496:12507  _numbers[i] */\n      dup2\n      dup2\n      lt\n      tag_69\n      jumpi\n      tag_70\n      tag_42\n      jump\t// in\n    tag_70:\n    tag_69:\n      swap1\n      pop\n      0x20\n      mul\n      add\n      calldataload\n        /* \"val30.sol\":12487:12507  total += _numbers[i] */\n      dup3\n      tag_71\n      swap2\n      swap1\n      tag_72\n      jump\t// in\n    tag_71:\n      swap2\n      pop\n        /* \"val30.sol\":12465:12468  i++ */\n      dup1\n      dup1\n      0x01\n      add\n      swap2\n      pop\n      pop\n        /* \"val30.sol\":12424:12519  for (uint256 i = 0; i < _numbers.length; i++) {... */\n      jump(tag_66)\n    tag_67:\n      pop\n        /* \"val30.sol\":12538:12543  total */\n      dup1\n        /* \"val30.sol\":12531:12543  return total */\n      swap2\n      pop\n      pop\n        /* \"val30.sol\":12147:12551  function useCalldata(... */\n      swap3\n      swap2\n      pop\n      pop\n      jump\t// out\n        /* \"val30.sol\":12743:13140  function useMemory(... */\n    tag_34:\n        /* \"val30.sol\":12853:12860  uint256 */\n      0x00\n        /* \"val30.sol\":12880:12893  uint256 total */\n      0x00\n        /* \"val30.sol\":12896:12897  0 */\n      0x00\n        /* \"val30.sol\":12880:12897  uint256 total = 0 */\n      swap1\n      pop\n        /* \"val30.sol\":13018:13027  uint256 i */\n      0x00\n        /* \"val30.sol\":13030:13031  0 */\n      0x00\n        /* \"val30.sol\":13018:13031  uint256 i = 0 */\n      swap1\n      pop\n        /* \"val30.sol\":13013:13108  for (uint256 i = 0; i < _numbers.length; i++) {... */\n    tag_74:\n        /* \"val30.sol\":13037:13045  _numbers */\n      dup4\n        /* \"val30.sol\":13037:13052  _numbers.length */\n      mload\n        /* \"val30.sol\":13033:13034  i */\n      dup2\n        /* \"val30.sol\":13033:13052  i < _numbers.length */\n      lt\n        /* \"val30.sol\":13013:13108  for (uint256 i = 0; i < _numbers.length; i++) {... */\n      iszero\n      tag_75\n      jumpi\n        /* \"val30.sol\":13085:13093  _numbers */\n      dup4\n        /* \"val30.sol\":13094:13095  i */\n      dup2\n        /* \"val30.sol\":13085:13096  _numbers[i] */\n      dup2\n      mload\n      dup2\n      lt\n      tag_77\n      jumpi\n      tag_78\n      tag_42\n      jump\t// in\n    tag_78:\n    tag_77:\n      0x20\n      mul\n      0x20\n      add\n      add\n      mload\n        /* \"val30.sol\":13076:13096  total += _numbers[i] */\n      dup3\n      tag_79\n      swap2\n      swap1\n      tag_72\n      jump\t// in\n    tag_79:\n      swap2\n      pop\n        /* \"val30.sol\":13054:13057  i++ */\n      dup1\n      dup1\n      0x01\n      add\n      swap2\n      pop\n      pop\n        /* \"val30.sol\":13013:13108  for (uint256 i = 0; i < _numbers.length; i++) {... */\n      jump(tag_74)\n    tag_75:\n      pop\n        /* \"val30.sol\":13127:13132  total */\n      dup1\n        /* \"val30.sol\":13120:13132  return total */\n      swap2\n      pop\n      pop\n        /* \"val30.sol\":12743:13140  function useMemory(... */\n      swap2\n      swap1\n      pop\n      jump\t// out\n        /* \"val30.sol\":14382:14667  function saveValues(... */\n    tag_38:\n        /* \"val30.sol\":14560:14569  uint256 i */\n      0x00\n        /* \"val30.sol\":14572:14573  0 */\n      0x00\n        /* \"val30.sol\":14560:14573  uint256 i = 0 */\n      swap1\n      pop\n        /* \"val30.sol\":14555:14660  for (uint256 i = 0; i < _numbers.length; i++) {... */\n    tag_81:\n        /* \"val30.sol\":14579:14587  _numbers */\n      dup3\n      dup3\n        /* \"val30.sol\":14579:14594  _numbers.length */\n      swap1\n      pop\n        /* \"val30.sol\":14575:14576  i */\n      dup2\n        /* \"val30.sol\":14575:14594  i < _numbers.length */\n      lt\n        /* \"val30.sol\":14555:14660  for (uint256 i = 0; i < _numbers.length; i++) {... */\n      iszero\n      tag_82\n      jumpi\n        /* \"val30.sol\":14618:14630  storedValues */\n      0x00\n        /* \"val30.sol\":14636:14644  _numbers */\n      dup4\n      dup4\n        /* \"val30.sol\":14645:14646  i */\n      dup4\n        /* \"val30.sol\":14636:14647  _numbers[i] */\n      dup2\n      dup2\n      lt\n      tag_84\n      jumpi\n      tag_85\n      tag_42\n      jump\t// in\n    tag_85:\n    tag_84:\n      swap1\n      pop\n      0x20\n      mul\n      add\n      calldataload\n        /* \"val30.sol\":14618:14648  storedValues.push(_numbers[i]) */\n      swap1\n      dup1\n      0x01\n      dup2\n      sload\n      add\n      dup1\n      dup3\n      sstore\n      dup1\n      swap2\n      pop\n      pop\n      0x01\n      swap1\n      sub\n      swap1\n      0x00\n      mstore\n      keccak256(0x00, 0x20)\n      add\n      0x00\n      swap1\n      swap2\n      swap1\n      swap2\n      swap1\n      swap2\n      pop\n      sstore\n        /* \"val30.sol\":14596:14599  i++ */\n      dup1\n      dup1\n      0x01\n      add\n      swap2\n      pop\n      pop\n        /* \"val30.sol\":14555:14660  for (uint256 i = 0; i < _numbers.length; i++) {... */\n      jump(tag_81)\n    tag_82:\n      pop\n        /* \"val30.sol\":14382:14667  function saveValues(... */\n      pop\n      pop\n      jump\t// out\n        /* \"#utility.yul\":7:82   */\n    tag_87:\n        /* \"#utility.yul\":40:46   */\n      0x00\n        /* \"#utility.yul\":73:75   */\n      0x40\n        /* \"#utility.yul\":67:76   */\n      mload\n        /* \"#utility.yul\":57:76   */\n      swap1\n      pop\n        /* \"#utility.yul\":7:82   */\n      swap1\n      jump\t// out\n        /* \"#utility.yul\":88:205   */\n    tag_88:\n        /* \"#utility.yul\":197:198   */\n      0x00\n        /* \"#utility.yul\":194:195   */\n      0x00\n        /* \"#utility.yul\":187:199   */\n      revert\n        /* \"#utility.yul\":211:328   */\n    tag_89:\n        /* \"#utility.yul\":320:321   */\n      0x00\n        /* \"#utility.yul\":317:318   */\n      0x00\n        /* \"#utility.yul\":310:322   */\n      revert\n        /* \"#utility.yul\":334:451   */\n    tag_90:\n        /* \"#utility.yul\":443:444   */\n      0x00\n        /* \"#utility.yul\":440:441   */\n      0x00\n        /* \"#utility.yul\":433:445   */\n      revert\n        /* \"#utility.yul\":457:574   */\n    tag_91:\n        /* \"#utility.yul\":566:567   */\n      0x00\n        /* \"#utility.yul\":563:564   */\n      0x00\n        /* \"#utility.yul\":556:568   */\n      revert\n        /* \"#utility.yul\":580:697   */\n    tag_92:\n        /* \"#utility.yul\":689:690   */\n      0x00\n        /* \"#utility.yul\":686:687   */\n      0x00\n        /* \"#utility.yul\":679:691   */\n      revert\n        /* \"#utility.yul\":720:1288   */\n    tag_93:\n        /* \"#utility.yul\":793:801   */\n      0x00\n        /* \"#utility.yul\":803:809   */\n      0x00\n        /* \"#utility.yul\":853:856   */\n      dup4\n        /* \"#utility.yul\":846:850   */\n      0x1f\n        /* \"#utility.yul\":838:844   */\n      dup5\n        /* \"#utility.yul\":834:851   */\n      add\n        /* \"#utility.yul\":830:857   */\n      slt\n        /* \"#utility.yul\":820:942   */\n      tag_137\n      jumpi\n        /* \"#utility.yul\":861:940   */\n      tag_138\n      tag_90\n      jump\t// in\n    tag_138:\n        /* \"#utility.yul\":820:942   */\n    tag_137:\n        /* \"#utility.yul\":974:980   */\n      dup3\n        /* \"#utility.yul\":961:981   */\n      calldataload\n        /* \"#utility.yul\":951:981   */\n      swap1\n      pop\n        /* \"#utility.yul\":1004:1022   */\n      0xffffffffffffffff\n        /* \"#utility.yul\":996:1002   */\n      dup2\n        /* \"#utility.yul\":993:1023   */\n      gt\n        /* \"#utility.yul\":990:1107   */\n      iszero\n      tag_139\n      jumpi\n        /* \"#utility.yul\":1026:1105   */\n      tag_140\n      tag_91\n      jump\t// in\n    tag_140:\n        /* \"#utility.yul\":990:1107   */\n    tag_139:\n        /* \"#utility.yul\":1140:1144   */\n      0x20\n        /* \"#utility.yul\":1132:1138   */\n      dup4\n        /* \"#utility.yul\":1128:1145   */\n      add\n        /* \"#utility.yul\":1116:1145   */\n      swap2\n      pop\n        /* \"#utility.yul\":1194:1197   */\n      dup4\n        /* \"#utility.yul\":1186:1190   */\n      0x20\n        /* \"#utility.yul\":1178:1184   */\n      dup3\n        /* \"#utility.yul\":1174:1191   */\n      mul\n        /* \"#utility.yul\":1164:1172   */\n      dup4\n        /* \"#utility.yul\":1160:1192   */\n      add\n        /* \"#utility.yul\":1157:1198   */\n      gt\n        /* \"#utility.yul\":1154:1282   */\n      iszero\n      tag_141\n      jumpi\n        /* \"#utility.yul\":1201:1280   */\n      tag_142\n      tag_92\n      jump\t// in\n    tag_142:\n        /* \"#utility.yul\":1154:1282   */\n    tag_141:\n        /* \"#utility.yul\":720:1288   */\n      swap3\n      pop\n      swap3\n      swap1\n      pop\n      jump\t// out\n        /* \"#utility.yul\":1294:1853   */\n    tag_11:\n        /* \"#utility.yul\":1380:1386   */\n      0x00\n        /* \"#utility.yul\":1388:1394   */\n      0x00\n        /* \"#utility.yul\":1437:1439   */\n      0x20\n        /* \"#utility.yul\":1425:1434   */\n      dup4\n        /* \"#utility.yul\":1416:1423   */\n      dup6\n        /* \"#utility.yul\":1412:1435   */\n      sub\n        /* \"#utility.yul\":1408:1440   */\n      slt\n        /* \"#utility.yul\":1405:1524   */\n      iszero\n      tag_144\n      jumpi\n        /* \"#utility.yul\":1443:1522   */\n      tag_145\n      tag_88\n      jump\t// in\n    tag_145:\n        /* \"#utility.yul\":1405:1524   */\n    tag_144:\n        /* \"#utility.yul\":1591:1592   */\n      0x00\n        /* \"#utility.yul\":1580:1589   */\n      dup4\n        /* \"#utility.yul\":1576:1593   */\n      add\n        /* \"#utility.yul\":1563:1594   */\n      calldataload\n        /* \"#utility.yul\":1621:1639   */\n      0xffffffffffffffff\n        /* \"#utility.yul\":1613:1619   */\n      dup2\n        /* \"#utility.yul\":1610:1640   */\n      gt\n        /* \"#utility.yul\":1607:1724   */\n      iszero\n      tag_146\n      jumpi\n        /* \"#utility.yul\":1643:1722   */\n      tag_147\n      tag_89\n      jump\t// in\n    tag_147:\n        /* \"#utility.yul\":1607:1724   */\n    tag_146:\n        /* \"#utility.yul\":1756:1836   */\n      tag_148\n        /* \"#utility.yul\":1828:1835   */\n      dup6\n        /* \"#utility.yul\":1819:1825   */\n      dup3\n        /* \"#utility.yul\":1808:1817   */\n      dup7\n        /* \"#utility.yul\":1804:1826   */\n      add\n        /* \"#utility.yul\":1756:1836   */\n      tag_93\n      jump\t// in\n    tag_148:\n        /* \"#utility.yul\":1738:1836   */\n      swap3\n      pop\n      swap3\n      pop\n        /* \"#utility.yul\":1534:1846   */\n      pop\n        /* \"#utility.yul\":1294:1853   */\n      swap3\n      pop\n      swap3\n      swap1\n      pop\n      jump\t// out\n        /* \"#utility.yul\":1859:1973   */\n    tag_94:\n        /* \"#utility.yul\":1926:1932   */\n      0x00\n        /* \"#utility.yul\":1960:1965   */\n      dup2\n        /* \"#utility.yul\":1954:1966   */\n      mload\n        /* \"#utility.yul\":1944:1966   */\n      swap1\n      pop\n        /* \"#utility.yul\":1859:1973   */\n      swap2\n      swap1\n      pop\n      jump\t// out\n        /* \"#utility.yul\":1979:2163   */\n    tag_95:\n        /* \"#utility.yul\":2078:2089   */\n      0x00\n        /* \"#utility.yul\":2112:2118   */\n      dup3\n        /* \"#utility.yul\":2107:2110   */\n      dup3\n        /* \"#utility.yul\":2100:2119   */\n      mstore\n        /* \"#utility.yul\":2152:2156   */\n      0x20\n        /* \"#utility.yul\":2147:2150   */\n      dup3\n        /* \"#utility.yul\":2143:2157   */\n      add\n        /* \"#utility.yul\":2128:2157   */\n      swap1\n      pop\n        /* \"#utility.yul\":1979:2163   */\n      swap3\n      swap2\n      pop\n      pop\n      jump\t// out\n        /* \"#utility.yul\":2169:2301   */\n    tag_96:\n        /* \"#utility.yul\":2236:2240   */\n      0x00\n        /* \"#utility.yul\":2259:2262   */\n      dup2\n        /* \"#utility.yul\":2251:2262   */\n      swap1\n      pop\n        /* \"#utility.yul\":2289:2293   */\n      0x20\n        /* \"#utility.yul\":2284:2287   */\n      dup3\n        /* \"#utility.yul\":2280:2294   */\n      add\n        /* \"#utility.yul\":2272:2294   */\n      swap1\n      pop\n        /* \"#utility.yul\":2169:2301   */\n      swap2\n      swap1\n      pop\n      jump\t// out\n        /* \"#utility.yul\":2307:2384   */\n    tag_97:\n        /* \"#utility.yul\":2344:2351   */\n      0x00\n        /* \"#utility.yul\":2373:2378   */\n      dup2\n        /* \"#utility.yul\":2362:2378   */\n      swap1\n      pop\n        /* \"#utility.yul\":2307:2384   */\n      swap2\n      swap1\n      pop\n      jump\t// out\n        /* \"#utility.yul\":2390:2498   */\n    tag_98:\n        /* \"#utility.yul\":2467:2491   */\n      tag_154\n        /* \"#utility.yul\":2485:2490   */\n      dup2\n        /* \"#utility.yul\":2467:2491   */\n      tag_97\n      jump\t// in\n    tag_154:\n        /* \"#utility.yul\":2462:2465   */\n      dup3\n        /* \"#utility.yul\":2455:2492   */\n      mstore\n        /* \"#utility.yul\":2390:2498   */\n      pop\n      pop\n      jump\t// out\n        /* \"#utility.yul\":2504:2683   */\n    tag_99:\n        /* \"#utility.yul\":2573:2583   */\n      0x00\n        /* \"#utility.yul\":2594:2640   */\n      tag_156\n        /* \"#utility.yul\":2636:2639   */\n      dup4\n        /* \"#utility.yul\":2628:2634   */\n      dup4\n        /* \"#utility.yul\":2594:2640   */\n      tag_98\n      jump\t// in\n    tag_156:\n        /* \"#utility.yul\":2672:2676   */\n      0x20\n        /* \"#utility.yul\":2667:2670   */\n      dup4\n        /* \"#utility.yul\":2663:2677   */\n      add\n        /* \"#utility.yul\":2649:2677   */\n      swap1\n      pop\n        /* \"#utility.yul\":2504:2683   */\n      swap3\n      swap2\n      pop\n      pop\n      jump\t// out\n        /* \"#utility.yul\":2689:2802   */\n    tag_100:\n        /* \"#utility.yul\":2759:2763   */\n      0x00\n        /* \"#utility.yul\":2791:2795   */\n      0x20\n        /* \"#utility.yul\":2786:2789   */\n      dup3\n        /* \"#utility.yul\":2782:2796   */\n      add\n        /* \"#utility.yul\":2774:2796   */\n      swap1\n      pop\n        /* \"#utility.yul\":2689:2802   */\n      swap2\n      swap1\n      pop\n      jump\t// out\n        /* \"#utility.yul\":2838:3570   */\n    tag_101:\n        /* \"#utility.yul\":2957:2960   */\n      0x00\n        /* \"#utility.yul\":2986:3040   */\n      tag_159\n        /* \"#utility.yul\":3034:3039   */\n      dup3\n        /* \"#utility.yul\":2986:3040   */\n      tag_94\n      jump\t// in\n    tag_159:\n        /* \"#utility.yul\":3056:3142   */\n      tag_160\n        /* \"#utility.yul\":3135:3141   */\n      dup2\n        /* \"#utility.yul\":3130:3133   */\n      dup6\n        /* \"#utility.yul\":3056:3142   */\n      tag_95\n      jump\t// in\n    tag_160:\n        /* \"#utility.yul\":3049:3142   */\n      swap4\n      pop\n        /* \"#utility.yul\":3166:3222   */\n      tag_161\n        /* \"#utility.yul\":3216:3221   */\n      dup4\n        /* \"#utility.yul\":3166:3222   */\n      tag_96\n      jump\t// in\n    tag_161:\n        /* \"#utility.yul\":3245:3252   */\n      dup1\n        /* \"#utility.yul\":3276:3277   */\n      0x00\n        /* \"#utility.yul\":3261:3545   */\n    tag_162:\n        /* \"#utility.yul\":3286:3292   */\n      dup4\n        /* \"#utility.yul\":3283:3284   */\n      dup2\n        /* \"#utility.yul\":3280:3293   */\n      lt\n        /* \"#utility.yul\":3261:3545   */\n      iszero\n      tag_164\n      jumpi\n        /* \"#utility.yul\":3362:3368   */\n      dup2\n        /* \"#utility.yul\":3356:3369   */\n      mload\n        /* \"#utility.yul\":3389:3452   */\n      tag_165\n        /* \"#utility.yul\":3448:3451   */\n      dup9\n        /* \"#utility.yul\":3433:3446   */\n      dup3\n        /* \"#utility.yul\":3389:3452   */\n      tag_99\n      jump\t// in\n    tag_165:\n        /* \"#utility.yul\":3382:3452   */\n      swap8\n      pop\n        /* \"#utility.yul\":3475:3535   */\n      tag_166\n        /* \"#utility.yul\":3528:3534   */\n      dup4\n        /* \"#utility.yul\":3475:3535   */\n      tag_100\n      jump\t// in\n    tag_166:\n        /* \"#utility.yul\":3465:3535   */\n      swap3\n      pop\n        /* \"#utility.yul\":3321:3545   */\n      pop\n        /* \"#utility.yul\":3308:3309   */\n      0x01\n        /* \"#utility.yul\":3305:3306   */\n      dup2\n        /* \"#utility.yul\":3301:3310   */\n      add\n        /* \"#utility.yul\":3296:3310   */\n      swap1\n      pop\n        /* \"#utility.yul\":3261:3545   */\n      jump(tag_162)\n    tag_164:\n        /* \"#utility.yul\":3265:3279   */\n      pop\n        /* \"#utility.yul\":3561:3564   */\n      dup6\n        /* \"#utility.yul\":3554:3564   */\n      swap4\n      pop\n        /* \"#utility.yul\":2962:3570   */\n      pop\n      pop\n      pop\n        /* \"#utility.yul\":2838:3570   */\n      swap3\n      swap2\n      pop\n      pop\n      jump\t// out\n        /* \"#utility.yul\":3576:3949   */\n    tag_14:\n        /* \"#utility.yul\":3719:3723   */\n      0x00\n        /* \"#utility.yul\":3757:3759   */\n      0x20\n        /* \"#utility.yul\":3746:3755   */\n      dup3\n        /* \"#utility.yul\":3742:3760   */\n      add\n        /* \"#utility.yul\":3734:3760   */\n      swap1\n      pop\n        /* \"#utility.yul\":3806:3815   */\n      dup2\n        /* \"#utility.yul\":3800:3804   */\n      dup2\n        /* \"#utility.yul\":3796:3816   */\n      sub\n        /* \"#utility.yul\":3792:3793   */\n      0x00\n        /* \"#utility.yul\":3781:3790   */\n      dup4\n        /* \"#utility.yul\":3777:3794   */\n      add\n        /* \"#utility.yul\":3770:3817   */\n      mstore\n        /* \"#utility.yul\":3834:3942   */\n      tag_168\n        /* \"#utility.yul\":3937:3941   */\n      dup2\n        /* \"#utility.yul\":3928:3934   */\n      dup5\n        /* \"#utility.yul\":3834:3942   */\n      tag_101\n      jump\t// in\n    tag_168:\n        /* \"#utility.yul\":3826:3942   */\n      swap1\n      pop\n        /* \"#utility.yul\":3576:3949   */\n      swap3\n      swap2\n      pop\n      pop\n      jump\t// out\n        /* \"#utility.yul\":3971:4551   */\n    tag_102:\n        /* \"#utility.yul\":4056:4064   */\n      0x00\n        /* \"#utility.yul\":4066:4072   */\n      0x00\n        /* \"#utility.yul\":4116:4119   */\n      dup4\n        /* \"#utility.yul\":4109:4113   */\n      0x1f\n        /* \"#utility.yul\":4101:4107   */\n      dup5\n        /* \"#utility.yul\":4097:4114   */\n      add\n        /* \"#utility.yul\":4093:4120   */\n      slt\n        /* \"#utility.yul\":4083:4205   */\n      tag_170\n      jumpi\n        /* \"#utility.yul\":4124:4203   */\n      tag_171\n      tag_90\n      jump\t// in\n    tag_171:\n        /* \"#utility.yul\":4083:4205   */\n    tag_170:\n        /* \"#utility.yul\":4237:4243   */\n      dup3\n        /* \"#utility.yul\":4224:4244   */\n      calldataload\n        /* \"#utility.yul\":4214:4244   */\n      swap1\n      pop\n        /* \"#utility.yul\":4267:4285   */\n      0xffffffffffffffff\n        /* \"#utility.yul\":4259:4265   */\n      dup2\n        /* \"#utility.yul\":4256:4286   */\n      gt\n        /* \"#utility.yul\":4253:4370   */\n      iszero\n      tag_172\n      jumpi\n        /* \"#utility.yul\":4289:4368   */\n      tag_173\n      tag_91\n      jump\t// in\n    tag_173:\n        /* \"#utility.yul\":4253:4370   */\n    tag_172:\n        /* \"#utility.yul\":4403:4407   */\n      0x20\n        /* \"#utility.yul\":4395:4401   */\n      dup4\n        /* \"#utility.yul\":4391:4408   */\n      add\n        /* \"#utility.yul\":4379:4408   */\n      swap2\n      pop\n        /* \"#utility.yul\":4457:4460   */\n      dup4\n        /* \"#utility.yul\":4449:4453   */\n      0x20\n        /* \"#utility.yul\":4441:4447   */\n      dup3\n        /* \"#utility.yul\":4437:4454   */\n      mul\n        /* \"#utility.yul\":4427:4435   */\n      dup4\n        /* \"#utility.yul\":4423:4455   */\n      add\n        /* \"#utility.yul\":4420:4461   */\n      gt\n        /* \"#utility.yul\":4417:4545   */\n      iszero\n      tag_174\n      jumpi\n        /* \"#utility.yul\":4464:4543   */\n      tag_175\n      tag_92\n      jump\t// in\n    tag_175:\n        /* \"#utility.yul\":4417:4545   */\n    tag_174:\n        /* \"#utility.yul\":3971:4551   */\n      swap3\n      pop\n      swap3\n      swap1\n      pop\n      jump\t// out\n        /* \"#utility.yul\":4557:5140   */\n    tag_17:\n        /* \"#utility.yul\":4655:4661   */\n      0x00\n        /* \"#utility.yul\":4663:4669   */\n      0x00\n        /* \"#utility.yul\":4712:4714   */\n      0x20\n        /* \"#utility.yul\":4700:4709   */\n      dup4\n        /* \"#utility.yul\":4691:4698   */\n      dup6\n        /* \"#utility.yul\":4687:4710   */\n      sub\n        /* \"#utility.yul\":4683:4715   */\n      slt\n        /* \"#utility.yul\":4680:4799   */\n      iszero\n      tag_177\n      jumpi\n        /* \"#utility.yul\":4718:4797   */\n      tag_178\n      tag_88\n      jump\t// in\n    tag_178:\n        /* \"#utility.yul\":4680:4799   */\n    tag_177:\n        /* \"#utility.yul\":4866:4867   */\n      0x00\n        /* \"#utility.yul\":4855:4864   */\n      dup4\n        /* \"#utility.yul\":4851:4868   */\n      add\n        /* \"#utility.yul\":4838:4869   */\n      calldataload\n        /* \"#utility.yul\":4896:4914   */\n      0xffffffffffffffff\n        /* \"#utility.yul\":4888:4894   */\n      dup2\n        /* \"#utility.yul\":4885:4915   */\n      gt\n        /* \"#utility.yul\":4882:4999   */\n      iszero\n      tag_179\n      jumpi\n        /* \"#utility.yul\":4918:4997   */\n      tag_180\n      tag_89\n      jump\t// in\n    tag_180:\n        /* \"#utility.yul\":4882:4999   */\n    tag_179:\n        /* \"#utility.yul\":5031:5123   */\n      tag_181\n        /* \"#utility.yul\":5115:5122   */\n      dup6\n        /* \"#utility.yul\":5106:5112   */\n      dup3\n        /* \"#utility.yul\":5095:5104   */\n      dup7\n        /* \"#utility.yul\":5091:5113   */\n      add\n        /* \"#utility.yul\":5031:5123   */\n      tag_102\n      jump\t// in\n    tag_181:\n        /* \"#utility.yul\":5013:5123   */\n      swap3\n      pop\n      swap3\n      pop\n        /* \"#utility.yul\":4809:5133   */\n      pop\n        /* \"#utility.yul\":4557:5140   */\n      swap3\n      pop\n      swap3\n      swap1\n      pop\n      jump\t// out\n        /* \"#utility.yul\":5146:5270   */\n    tag_103:\n        /* \"#utility.yul\":5223:5229   */\n      0x00\n        /* \"#utility.yul\":5257:5262   */\n      dup2\n        /* \"#utility.yul\":5251:5263   */\n      mload\n        /* \"#utility.yul\":5241:5263   */\n      swap1\n      pop\n        /* \"#utility.yul\":5146:5270   */\n      swap2\n      swap1\n      pop\n      jump\t// out\n        /* \"#utility.yul\":5276:5470   */\n    tag_104:\n        /* \"#utility.yul\":5385:5396   */\n      0x00\n        /* \"#utility.yul\":5419:5425   */\n      dup3\n        /* \"#utility.yul\":5414:5417   */\n      dup3\n        /* \"#utility.yul\":5407:5426   */\n      mstore\n        /* \"#utility.yul\":5459:5463   */\n      0x20\n        /* \"#utility.yul\":5454:5457   */\n      dup3\n        /* \"#utility.yul\":5450:5464   */\n      add\n        /* \"#utility.yul\":5435:5464   */\n      swap1\n      pop\n        /* \"#utility.yul\":5276:5470   */\n      swap3\n      swap2\n      pop\n      pop\n      jump\t// out\n        /* \"#utility.yul\":5476:5618   */\n    tag_105:\n        /* \"#utility.yul\":5553:5557   */\n      0x00\n        /* \"#utility.yul\":5576:5579   */\n      dup2\n        /* \"#utility.yul\":5568:5579   */\n      swap1\n      pop\n        /* \"#utility.yul\":5606:5610   */\n      0x20\n        /* \"#utility.yul\":5601:5604   */\n      dup3\n        /* \"#utility.yul\":5597:5611   */\n      add\n        /* \"#utility.yul\":5589:5611   */\n      swap1\n      pop\n        /* \"#utility.yul\":5476:5618   */\n      swap2\n      swap1\n      pop\n      jump\t// out\n        /* \"#utility.yul\":5624:5723   */\n    tag_106:\n        /* \"#utility.yul\":5676:5682   */\n      0x00\n        /* \"#utility.yul\":5710:5715   */\n      dup2\n        /* \"#utility.yul\":5704:5716   */\n      mload\n        /* \"#utility.yul\":5694:5716   */\n      swap1\n      pop\n        /* \"#utility.yul\":5624:5723   */\n      swap2\n      swap1\n      pop\n      jump\t// out\n        /* \"#utility.yul\":5729:5888   */\n    tag_107:\n        /* \"#utility.yul\":5803:5814   */\n      0x00\n        /* \"#utility.yul\":5837:5843   */\n      dup3\n        /* \"#utility.yul\":5832:5835   */\n      dup3\n        /* \"#utility.yul\":5825:5844   */\n      mstore\n        /* \"#utility.yul\":5877:5881   */\n      0x20\n        /* \"#utility.yul\":5872:5875   */\n      dup3\n        /* \"#utility.yul\":5868:5882   */\n      add\n        /* \"#utility.yul\":5853:5882   */\n      swap1\n      pop\n        /* \"#utility.yul\":5729:5888   */\n      swap3\n      swap2\n      pop\n      pop\n      jump\t// out\n        /* \"#utility.yul\":5894:6033   */\n    tag_108:\n        /* \"#utility.yul\":5983:5989   */\n      dup3\n        /* \"#utility.yul\":5978:5981   */\n      dup2\n        /* \"#utility.yul\":5973:5976   */\n      dup4\n        /* \"#utility.yul\":5967:5990   */\n      mcopy\n        /* \"#utility.yul\":6024:6025   */\n      0x00\n        /* \"#utility.yul\":6015:6021   */\n      dup4\n        /* \"#utility.yul\":6010:6013   */\n      dup4\n        /* \"#utility.yul\":6006:6022   */\n      add\n        /* \"#utility.yul\":5999:6026   */\n      mstore\n        /* \"#utility.yul\":5894:6033   */\n      pop\n      pop\n      pop\n      jump\t// out\n        /* \"#utility.yul\":6039:6141   */\n    tag_109:\n        /* \"#utility.yul\":6080:6086   */\n      0x00\n        /* \"#utility.yul\":6131:6133   */\n      0x1f\n        /* \"#utility.yul\":6127:6134   */\n      not\n        /* \"#utility.yul\":6122:6124   */\n      0x1f\n        /* \"#utility.yul\":6115:6120   */\n      dup4\n        /* \"#utility.yul\":6111:6125   */\n      add\n        /* \"#utility.yul\":6107:6135   */\n      and\n        /* \"#utility.yul\":6097:6135   */\n      swap1\n      pop\n        /* \"#utility.yul\":6039:6141   */\n      swap2\n      swap1\n      pop\n      jump\t// out\n        /* \"#utility.yul\":6147:6504   */\n    tag_110:\n        /* \"#utility.yul\":6225:6228   */\n      0x00\n        /* \"#utility.yul\":6253:6292   */\n      tag_190\n        /* \"#utility.yul\":6286:6291   */\n      dup3\n        /* \"#utility.yul\":6253:6292   */\n      tag_106\n      jump\t// in\n    tag_190:\n        /* \"#utility.yul\":6308:6369   */\n      tag_191\n        /* \"#utility.yul\":6362:6368   */\n      dup2\n        /* \"#utility.yul\":6357:6360   */\n      dup6\n        /* \"#utility.yul\":6308:6369   */\n      tag_107\n      jump\t// in\n    tag_191:\n        /* \"#utility.yul\":6301:6369   */\n      swap4\n      pop\n        /* \"#utility.yul\":6378:6443   */\n      tag_192\n        /* \"#utility.yul\":6436:6442   */\n      dup2\n        /* \"#utility.yul\":6431:6434   */\n      dup6\n        /* \"#utility.yul\":6424:6428   */\n      0x20\n        /* \"#utility.yul\":6417:6422   */\n      dup7\n        /* \"#utility.yul\":6413:6429   */\n      add\n        /* \"#utility.yul\":6378:6443   */\n      tag_108\n      jump\t// in\n    tag_192:\n        /* \"#utility.yul\":6468:6497   */\n      tag_193\n        /* \"#utility.yul\":6490:6496   */\n      dup2\n        /* \"#utility.yul\":6468:6497   */\n      tag_109\n      jump\t// in\n    tag_193:\n        /* \"#utility.yul\":6463:6466   */\n      dup5\n        /* \"#utility.yul\":6459:6498   */\n      add\n        /* \"#utility.yul\":6452:6498   */\n      swap2\n      pop\n        /* \"#utility.yul\":6229:6504   */\n      pop\n        /* \"#utility.yul\":6147:6504   */\n      swap3\n      swap2\n      pop\n      pop\n      jump\t// out\n        /* \"#utility.yul\":6510:6706   */\n    tag_111:\n        /* \"#utility.yul\":6599:6609   */\n      0x00\n        /* \"#utility.yul\":6634:6700   */\n      tag_195\n        /* \"#utility.yul\":6696:6699   */\n      dup4\n        /* \"#utility.yul\":6688:6694   */\n      dup4\n        /* \"#utility.yul\":6634:6700   */\n      tag_110\n      jump\t// in\n    tag_195:\n        /* \"#utility.yul\":6620:6700   */\n      swap1\n      pop\n        /* \"#utility.yul\":6510:6706   */\n      swap3\n      swap2\n      pop\n      pop\n      jump\t// out\n        /* \"#utility.yul\":6712:6835   */\n    tag_112:\n        /* \"#utility.yul\":6792:6796   */\n      0x00\n        /* \"#utility.yul\":6824:6828   */\n      0x20\n        /* \"#utility.yul\":6819:6822   */\n      dup3\n        /* \"#utility.yul\":6815:6829   */\n      add\n        /* \"#utility.yul\":6807:6829   */\n      swap1\n      pop\n        /* \"#utility.yul\":6712:6835   */\n      swap2\n      swap1\n      pop\n      jump\t// out\n        /* \"#utility.yul\":6869:7860   */\n    tag_113:\n        /* \"#utility.yul\":7008:7011   */\n      0x00\n        /* \"#utility.yul\":7037:7101   */\n      tag_198\n        /* \"#utility.yul\":7095:7100   */\n      dup3\n        /* \"#utility.yul\":7037:7101   */\n      tag_103\n      jump\t// in\n    tag_198:\n        /* \"#utility.yul\":7117:7213   */\n      tag_199\n        /* \"#utility.yul\":7206:7212   */\n      dup2\n        /* \"#utility.yul\":7201:7204   */\n      dup6\n        /* \"#utility.yul\":7117:7213   */\n      tag_104\n      jump\t// in\n    tag_199:\n        /* \"#utility.yul\":7110:7213   */\n      swap4\n      pop\n        /* \"#utility.yul\":7239:7242   */\n      dup4\n        /* \"#utility.yul\":7284:7288   */\n      0x20\n        /* \"#utility.yul\":7276:7282   */\n      dup3\n        /* \"#utility.yul\":7272:7289   */\n      mul\n        /* \"#utility.yul\":7267:7270   */\n      dup6\n        /* \"#utility.yul\":7263:7290   */\n      add\n        /* \"#utility.yul\":7314:7380   */\n      tag_200\n        /* \"#utility.yul\":7374:7379   */\n      dup6\n        /* \"#utility.yul\":7314:7380   */\n      tag_105\n      jump\t// in\n    tag_200:\n        /* \"#utility.yul\":7403:7410   */\n      dup1\n        /* \"#utility.yul\":7434:7435   */\n      0x00\n        /* \"#utility.yul\":7419:7815   */\n    tag_201:\n        /* \"#utility.yul\":7444:7450   */\n      dup6\n        /* \"#utility.yul\":7441:7442   */\n      dup2\n        /* \"#utility.yul\":7438:7451   */\n      lt\n        /* \"#utility.yul\":7419:7815   */\n      iszero\n      tag_203\n      jumpi\n        /* \"#utility.yul\":7515:7524   */\n      dup5\n        /* \"#utility.yul\":7509:7513   */\n      dup5\n        /* \"#utility.yul\":7505:7525   */\n      sub\n        /* \"#utility.yul\":7500:7503   */\n      dup10\n        /* \"#utility.yul\":7493:7526   */\n      mstore\n        /* \"#utility.yul\":7566:7572   */\n      dup2\n        /* \"#utility.yul\":7560:7573   */\n      mload\n        /* \"#utility.yul\":7594:7678   */\n      tag_204\n        /* \"#utility.yul\":7673:7677   */\n      dup6\n        /* \"#utility.yul\":7658:7671   */\n      dup3\n        /* \"#utility.yul\":7594:7678   */\n      tag_111\n      jump\t// in\n    tag_204:\n        /* \"#utility.yul\":7586:7678   */\n      swap5\n      pop\n        /* \"#utility.yul\":7701:7771   */\n      tag_205\n        /* \"#utility.yul\":7764:7770   */\n      dup4\n        /* \"#utility.yul\":7701:7771   */\n      tag_112\n      jump\t// in\n    tag_205:\n        /* \"#utility.yul\":7691:7771   */\n      swap3\n      pop\n        /* \"#utility.yul\":7800:7804   */\n      0x20\n        /* \"#utility.yul\":7795:7798   */\n      dup11\n        /* \"#utility.yul\":7791:7805   */\n      add\n        /* \"#utility.yul\":7784:7805   */\n      swap10\n      pop\n        /* \"#utility.yul\":7479:7815   */\n      pop\n        /* \"#utility.yul\":7466:7467   */\n      0x01\n        /* \"#utility.yul\":7463:7464   */\n      dup2\n        /* \"#utility.yul\":7459:7468   */\n      add\n        /* \"#utility.yul\":7454:7468   */\n      swap1\n      pop\n        /* \"#utility.yul\":7419:7815   */\n      jump(tag_201)\n    tag_203:\n        /* \"#utility.yul\":7423:7437   */\n      pop\n        /* \"#utility.yul\":7831:7835   */\n      dup3\n        /* \"#utility.yul\":7824:7835   */\n      swap8\n      pop\n        /* \"#utility.yul\":7851:7854   */\n      dup8\n        /* \"#utility.yul\":7844:7854   */\n      swap6\n      pop\n        /* \"#utility.yul\":7013:7860   */\n      pop\n      pop\n      pop\n      pop\n      pop\n        /* \"#utility.yul\":6869:7860   */\n      swap3\n      swap2\n      pop\n      pop\n      jump\t// out\n        /* \"#utility.yul\":7866:8279   */\n    tag_20:\n        /* \"#utility.yul\":8029:8033   */\n      0x00\n        /* \"#utility.yul\":8067:8069   */\n      0x20\n        /* \"#utility.yul\":8056:8065   */\n      dup3\n        /* \"#utility.yul\":8052:8070   */\n      add\n        /* \"#utility.yul\":8044:8070   */\n      swap1\n      pop\n        /* \"#utility.yul\":8116:8125   */\n      dup2\n        /* \"#utility.yul\":8110:8114   */\n      dup2\n        /* \"#utility.yul\":8106:8126   */\n      sub\n        /* \"#utility.yul\":8102:8103   */\n      0x00\n        /* \"#utility.yul\":8091:8100   */\n      dup4\n        /* \"#utility.yul\":8087:8104   */\n      add\n        /* \"#utility.yul\":8080:8127   */\n      mstore\n        /* \"#utility.yul\":8144:8272   */\n      tag_207\n        /* \"#utility.yul\":8267:8271   */\n      dup2\n        /* \"#utility.yul\":8258:8264   */\n      dup5\n        /* \"#utility.yul\":8144:8272   */\n      tag_113\n      jump\t// in\n    tag_207:\n        /* \"#utility.yul\":8136:8272   */\n      swap1\n      pop\n        /* \"#utility.yul\":7866:8279   */\n      swap3\n      swap2\n      pop\n      pop\n      jump\t// out\n        /* \"#utility.yul\":8285:8407   */\n    tag_114:\n        /* \"#utility.yul\":8358:8382   */\n      tag_209\n        /* \"#utility.yul\":8376:8381   */\n      dup2\n        /* \"#utility.yul\":8358:8382   */\n      tag_97\n      jump\t// in\n    tag_209:\n        /* \"#utility.yul\":8351:8356   */\n      dup2\n        /* \"#utility.yul\":8348:8383   */\n      eq\n        /* \"#utility.yul\":8338:8401   */\n      tag_210\n      jumpi\n        /* \"#utility.yul\":8397:8398   */\n      0x00\n        /* \"#utility.yul\":8394:8395   */\n      0x00\n        /* \"#utility.yul\":8387:8399   */\n      revert\n        /* \"#utility.yul\":8338:8401   */\n    tag_210:\n        /* \"#utility.yul\":8285:8407   */\n      pop\n      jump\t// out\n        /* \"#utility.yul\":8413:8552   */\n    tag_115:\n        /* \"#utility.yul\":8459:8464   */\n      0x00\n        /* \"#utility.yul\":8497:8503   */\n      dup2\n        /* \"#utility.yul\":8484:8504   */\n      calldataload\n        /* \"#utility.yul\":8475:8504   */\n      swap1\n      pop\n        /* \"#utility.yul\":8513:8546   */\n      tag_212\n        /* \"#utility.yul\":8540:8545   */\n      dup2\n        /* \"#utility.yul\":8513:8546   */\n      tag_114\n      jump\t// in\n    tag_212:\n        /* \"#utility.yul\":8413:8552   */\n      swap3\n      swap2\n      pop\n      pop\n      jump\t// out\n        /* \"#utility.yul\":8558:8887   */\n    tag_23:\n        /* \"#utility.yul\":8617:8623   */\n      0x00\n        /* \"#utility.yul\":8666:8668   */\n      0x20\n        /* \"#utility.yul\":8654:8663   */\n      dup3\n        /* \"#utility.yul\":8645:8652   */\n      dup5\n        /* \"#utility.yul\":8641:8664   */\n      sub\n        /* \"#utility.yul\":8637:8669   */\n      slt\n        /* \"#utility.yul\":8634:8753   */\n      iszero\n      tag_214\n      jumpi\n        /* \"#utility.yul\":8672:8751   */\n      tag_215\n      tag_88\n      jump\t// in\n    tag_215:\n        /* \"#utility.yul\":8634:8753   */\n    tag_214:\n        /* \"#utility.yul\":8792:8793   */\n      0x00\n        /* \"#utility.yul\":8817:8870   */\n      tag_216\n        /* \"#utility.yul\":8862:8869   */\n      dup5\n        /* \"#utility.yul\":8853:8859   */\n      dup3\n        /* \"#utility.yul\":8842:8851   */\n      dup6\n        /* \"#utility.yul\":8838:8860   */\n      add\n        /* \"#utility.yul\":8817:8870   */\n      tag_115\n      jump\t// in\n    tag_216:\n        /* \"#utility.yul\":8807:8870   */\n      swap2\n      pop\n        /* \"#utility.yul\":8763:8880   */\n      pop\n        /* \"#utility.yul\":8558:8887   */\n      swap3\n      swap2\n      pop\n      pop\n      jump\t// out\n        /* \"#utility.yul\":8893:9011   */\n    tag_116:\n        /* \"#utility.yul\":8980:9004   */\n      tag_218\n        /* \"#utility.yul\":8998:9003   */\n      dup2\n        /* \"#utility.yul\":8980:9004   */\n      tag_97\n      jump\t// in\n    tag_218:\n        /* \"#utility.yul\":8975:8978   */\n      dup3\n        /* \"#utility.yul\":8968:9005   */\n      mstore\n        /* \"#utility.yul\":8893:9011   */\n      pop\n      pop\n      jump\t// out\n        /* \"#utility.yul\":9017:9239   */\n    tag_26:\n        /* \"#utility.yul\":9110:9114   */\n      0x00\n        /* \"#utility.yul\":9148:9150   */\n      0x20\n        /* \"#utility.yul\":9137:9146   */\n      dup3\n        /* \"#utility.yul\":9133:9151   */\n      add\n        /* \"#utility.yul\":9125:9151   */\n      swap1\n      pop\n        /* \"#utility.yul\":9161:9232   */\n      tag_220\n        /* \"#utility.yul\":9229:9230   */\n      0x00\n        /* \"#utility.yul\":9218:9227   */\n      dup4\n        /* \"#utility.yul\":9214:9231   */\n      add\n        /* \"#utility.yul\":9205:9211   */\n      dup5\n        /* \"#utility.yul\":9161:9232   */\n      tag_116\n      jump\t// in\n    tag_220:\n        /* \"#utility.yul\":9017:9239   */\n      swap3\n      swap2\n      pop\n      pop\n      jump\t// out\n        /* \"#utility.yul\":9245:9425   */\n    tag_49:\n        /* \"#utility.yul\":9293:9370   */\n      0x4e487b7100000000000000000000000000000000000000000000000000000000\n        /* \"#utility.yul\":9290:9291   */\n      0x00\n        /* \"#utility.yul\":9283:9371   */\n      mstore\n        /* \"#utility.yul\":9390:9394   */\n      0x41\n        /* \"#utility.yul\":9387:9388   */\n      0x04\n        /* \"#utility.yul\":9380:9395   */\n      mstore\n        /* \"#utility.yul\":9414:9418   */\n      0x24\n        /* \"#utility.yul\":9411:9412   */\n      0x00\n        /* \"#utility.yul\":9404:9419   */\n      revert\n        /* \"#utility.yul\":9431:9712   */\n    tag_117:\n        /* \"#utility.yul\":9514:9541   */\n      tag_223\n        /* \"#utility.yul\":9536:9540   */\n      dup3\n        /* \"#utility.yul\":9514:9541   */\n      tag_109\n      jump\t// in\n    tag_223:\n        /* \"#utility.yul\":9506:9512   */\n      dup2\n        /* \"#utility.yul\":9502:9542   */\n      add\n        /* \"#utility.yul\":9644:9650   */\n      dup2\n        /* \"#utility.yul\":9632:9642   */\n      dup2\n        /* \"#utility.yul\":9629:9651   */\n      lt\n        /* \"#utility.yul\":9608:9626   */\n      0xffffffffffffffff\n        /* \"#utility.yul\":9596:9606   */\n      dup3\n        /* \"#utility.yul\":9593:9627   */\n      gt\n        /* \"#utility.yul\":9590:9652   */\n      or\n        /* \"#utility.yul\":9587:9675   */\n      iszero\n      tag_224\n      jumpi\n        /* \"#utility.yul\":9655:9673   */\n      tag_225\n      tag_49\n      jump\t// in\n    tag_225:\n        /* \"#utility.yul\":9587:9675   */\n    tag_224:\n        /* \"#utility.yul\":9695:9705   */\n      dup1\n        /* \"#utility.yul\":9691:9693   */\n      0x40\n        /* \"#utility.yul\":9684:9706   */\n      mstore\n        /* \"#utility.yul\":9474:9712   */\n      pop\n        /* \"#utility.yul\":9431:9712   */\n      pop\n      pop\n      jump\t// out\n        /* \"#utility.yul\":9718:9847   */\n    tag_118:\n        /* \"#utility.yul\":9752:9758   */\n      0x00\n        /* \"#utility.yul\":9779:9799   */\n      tag_227\n      tag_87\n      jump\t// in\n    tag_227:\n        /* \"#utility.yul\":9769:9799   */\n      swap1\n      pop\n        /* \"#utility.yul\":9808:9841   */\n      tag_228\n        /* \"#utility.yul\":9836:9840   */\n      dup3\n        /* \"#utility.yul\":9828:9834   */\n      dup3\n        /* \"#utility.yul\":9808:9841   */\n      tag_117\n      jump\t// in\n    tag_228:\n        /* \"#utility.yul\":9718:9847   */\n      swap2\n      swap1\n      pop\n      jump\t// out\n        /* \"#utility.yul\":9853:10164   */\n    tag_119:\n        /* \"#utility.yul\":9930:9934   */\n      0x00\n        /* \"#utility.yul\":10020:10038   */\n      0xffffffffffffffff\n        /* \"#utility.yul\":10012:10018   */\n      dup3\n        /* \"#utility.yul\":10009:10039   */\n      gt\n        /* \"#utility.yul\":10006:10062   */\n      iszero\n      tag_230\n      jumpi\n        /* \"#utility.yul\":10042:10060   */\n      tag_231\n      tag_49\n      jump\t// in\n    tag_231:\n        /* \"#utility.yul\":10006:10062   */\n    tag_230:\n        /* \"#utility.yul\":10092:10096   */\n      0x20\n        /* \"#utility.yul\":10084:10090   */\n      dup3\n        /* \"#utility.yul\":10080:10097   */\n      mul\n        /* \"#utility.yul\":10072:10097   */\n      swap1\n      pop\n        /* \"#utility.yul\":10152:10156   */\n      0x20\n        /* \"#utility.yul\":10146:10150   */\n      dup2\n        /* \"#utility.yul\":10142:10157   */\n      add\n        /* \"#utility.yul\":10134:10157   */\n      swap1\n      pop\n        /* \"#utility.yul\":9853:10164   */\n      swap2\n      swap1\n      pop\n      jump\t// out\n        /* \"#utility.yul\":10187:10897   */\n    tag_120:\n        /* \"#utility.yul\":10283:10288   */\n      0x00\n        /* \"#utility.yul\":10308:10389   */\n      tag_233\n        /* \"#utility.yul\":10324:10388   */\n      tag_234\n        /* \"#utility.yul\":10381:10387   */\n      dup5\n        /* \"#utility.yul\":10324:10388   */\n      tag_119\n      jump\t// in\n    tag_234:\n        /* \"#utility.yul\":10308:10389   */\n      tag_118\n      jump\t// in\n    tag_233:\n        /* \"#utility.yul\":10299:10389   */\n      swap1\n      pop\n        /* \"#utility.yul\":10409:10414   */\n      dup1\n        /* \"#utility.yul\":10438:10444   */\n      dup4\n        /* \"#utility.yul\":10431:10436   */\n      dup3\n        /* \"#utility.yul\":10424:10445   */\n      mstore\n        /* \"#utility.yul\":10472:10476   */\n      0x20\n        /* \"#utility.yul\":10465:10470   */\n      dup3\n        /* \"#utility.yul\":10461:10477   */\n      add\n        /* \"#utility.yul\":10454:10477   */\n      swap1\n      pop\n        /* \"#utility.yul\":10525:10529   */\n      0x20\n        /* \"#utility.yul\":10517:10523   */\n      dup5\n        /* \"#utility.yul\":10513:10530   */\n      mul\n        /* \"#utility.yul\":10505:10511   */\n      dup4\n        /* \"#utility.yul\":10501:10531   */\n      add\n        /* \"#utility.yul\":10554:10557   */\n      dup6\n        /* \"#utility.yul\":10546:10552   */\n      dup2\n        /* \"#utility.yul\":10543:10558   */\n      gt\n        /* \"#utility.yul\":10540:10662   */\n      iszero\n      tag_235\n      jumpi\n        /* \"#utility.yul\":10573:10652   */\n      tag_236\n      tag_92\n      jump\t// in\n    tag_236:\n        /* \"#utility.yul\":10540:10662   */\n    tag_235:\n        /* \"#utility.yul\":10688:10694   */\n      dup4\n        /* \"#utility.yul\":10671:10891   */\n    tag_237:\n        /* \"#utility.yul\":10705:10711   */\n      dup2\n        /* \"#utility.yul\":10700:10703   */\n      dup2\n        /* \"#utility.yul\":10697:10712   */\n      lt\n        /* \"#utility.yul\":10671:10891   */\n      iszero\n      tag_239\n      jumpi\n        /* \"#utility.yul\":10780:10783   */\n      dup1\n        /* \"#utility.yul\":10809:10846   */\n      tag_240\n        /* \"#utility.yul\":10842:10845   */\n      dup9\n        /* \"#utility.yul\":10830:10840   */\n      dup3\n        /* \"#utility.yul\":10809:10846   */\n      tag_115\n      jump\t// in\n    tag_240:\n        /* \"#utility.yul\":10804:10807   */\n      dup5\n        /* \"#utility.yul\":10797:10847   */\n      mstore\n        /* \"#utility.yul\":10876:10880   */\n      0x20\n        /* \"#utility.yul\":10871:10874   */\n      dup5\n        /* \"#utility.yul\":10867:10881   */\n      add\n        /* \"#utility.yul\":10860:10881   */\n      swap4\n      pop\n        /* \"#utility.yul\":10747:10891   */\n      pop\n        /* \"#utility.yul\":10731:10735   */\n      0x20\n        /* \"#utility.yul\":10726:10729   */\n      dup2\n        /* \"#utility.yul\":10722:10736   */\n      add\n        /* \"#utility.yul\":10715:10736   */\n      swap1\n      pop\n        /* \"#utility.yul\":10671:10891   */\n      jump(tag_237)\n    tag_239:\n        /* \"#utility.yul\":10675:10696   */\n      pop\n        /* \"#utility.yul\":10289:10897   */\n      pop\n      pop\n        /* \"#utility.yul\":10187:10897   */\n      swap4\n      swap3\n      pop\n      pop\n      pop\n      jump\t// out\n        /* \"#utility.yul\":10920:11290   */\n    tag_121:\n        /* \"#utility.yul\":10991:10996   */\n      0x00\n        /* \"#utility.yul\":11040:11043   */\n      dup3\n        /* \"#utility.yul\":11033:11037   */\n      0x1f\n        /* \"#utility.yul\":11025:11031   */\n      dup4\n        /* \"#utility.yul\":11021:11038   */\n      add\n        /* \"#utility.yul\":11017:11044   */\n      slt\n        /* \"#utility.yul\":11007:11129   */\n      tag_242\n      jumpi\n        /* \"#utility.yul\":11048:11127   */\n      tag_243\n      tag_90\n      jump\t// in\n    tag_243:\n        /* \"#utility.yul\":11007:11129   */\n    tag_242:\n        /* \"#utility.yul\":11165:11171   */\n      dup2\n        /* \"#utility.yul\":11152:11172   */\n      calldataload\n        /* \"#utility.yul\":11190:11284   */\n      tag_244\n        /* \"#utility.yul\":11280:11283   */\n      dup5\n        /* \"#utility.yul\":11272:11278   */\n      dup3\n        /* \"#utility.yul\":11265:11269   */\n      0x20\n        /* \"#utility.yul\":11257:11263   */\n      dup7\n        /* \"#utility.yul\":11253:11270   */\n      add\n        /* \"#utility.yul\":11190:11284   */\n      tag_120\n      jump\t// in\n    tag_244:\n        /* \"#utility.yul\":11181:11284   */\n      swap2\n      pop\n        /* \"#utility.yul\":10997:11290   */\n      pop\n        /* \"#utility.yul\":10920:11290   */\n      swap3\n      swap2\n      pop\n      pop\n      jump\t// out\n        /* \"#utility.yul\":11296:11835   */\n    tag_33:\n        /* \"#utility.yul\":11380:11386   */\n      0x00\n        /* \"#utility.yul\":11429:11431   */\n      0x20\n        /* \"#utility.yul\":11417:11426   */\n      dup3\n        /* \"#utility.yul\":11408:11415   */\n      dup5\n        /* \"#utility.yul\":11404:11427   */\n      sub\n        /* \"#utility.yul\":11400:11432   */\n      slt\n        /* \"#utility.yul\":11397:11516   */\n      iszero\n      tag_246\n      jumpi\n        /* \"#utility.yul\":11435:11514   */\n      tag_247\n      tag_88\n      jump\t// in\n    tag_247:\n        /* \"#utility.yul\":11397:11516   */\n    tag_246:\n        /* \"#utility.yul\":11583:11584   */\n      0x00\n        /* \"#utility.yul\":11572:11581   */\n      dup3\n        /* \"#utility.yul\":11568:11585   */\n      add\n        /* \"#utility.yul\":11555:11586   */\n      calldataload\n        /* \"#utility.yul\":11613:11631   */\n      0xffffffffffffffff\n        /* \"#utility.yul\":11605:11611   */\n      dup2\n        /* \"#utility.yul\":11602:11632   */\n      gt\n        /* \"#utility.yul\":11599:11716   */\n      iszero\n      tag_248\n      jumpi\n        /* \"#utility.yul\":11635:11714   */\n      tag_249\n      tag_89\n      jump\t// in\n    tag_249:\n        /* \"#utility.yul\":11599:11716   */\n    tag_248:\n        /* \"#utility.yul\":11740:11818   */\n      tag_250\n        /* \"#utility.yul\":11810:11817   */\n      dup5\n        /* \"#utility.yul\":11801:11807   */\n      dup3\n        /* \"#utility.yul\":11790:11799   */\n      dup6\n        /* \"#utility.yul\":11786:11808   */\n      add\n        /* \"#utility.yul\":11740:11818   */\n      tag_121\n      jump\t// in\n    tag_250:\n        /* \"#utility.yul\":11730:11818   */\n      swap2\n      pop\n        /* \"#utility.yul\":11526:11828   */\n      pop\n        /* \"#utility.yul\":11296:11835   */\n      swap3\n      swap2\n      pop\n      pop\n      jump\t// out\n        /* \"#utility.yul\":11841:12021   */\n    tag_42:\n        /* \"#utility.yul\":11889:11966   */\n      0x4e487b7100000000000000000000000000000000000000000000000000000000\n        /* \"#utility.yul\":11886:11887   */\n      0x00\n        /* \"#utility.yul\":11879:11967   */\n      mstore\n        /* \"#utility.yul\":11986:11990   */\n      0x32\n        /* \"#utility.yul\":11983:11984   */\n      0x04\n        /* \"#utility.yul\":11976:11991   */\n      mstore\n        /* \"#utility.yul\":12010:12014   */\n      0x24\n        /* \"#utility.yul\":12007:12008   */\n      0x00\n        /* \"#utility.yul\":12000:12015   */\n      revert\n        /* \"#utility.yul\":12027:12196   */\n    tag_122:\n        /* \"#utility.yul\":12111:12122   */\n      0x00\n        /* \"#utility.yul\":12145:12151   */\n      dup3\n        /* \"#utility.yul\":12140:12143   */\n      dup3\n        /* \"#utility.yul\":12133:12152   */\n      mstore\n        /* \"#utility.yul\":12185:12189   */\n      0x20\n        /* \"#utility.yul\":12180:12183   */\n      dup3\n        /* \"#utility.yul\":12176:12190   */\n      add\n        /* \"#utility.yul\":12161:12190   */\n      swap1\n      pop\n        /* \"#utility.yul\":12027:12196   */\n      swap3\n      swap2\n      pop\n      pop\n      jump\t// out\n        /* \"#utility.yul\":12202:12373   */\n    tag_123:\n        /* \"#utility.yul\":12342:12365   */\n      0x41727261792063616e6e6f7420626520656d7074790000000000000000000000\n        /* \"#utility.yul\":12338:12339   */\n      0x00\n        /* \"#utility.yul\":12330:12336   */\n      dup3\n        /* \"#utility.yul\":12326:12340   */\n      add\n        /* \"#utility.yul\":12319:12366   */\n      mstore\n        /* \"#utility.yul\":12202:12373   */\n      pop\n      jump\t// out\n        /* \"#utility.yul\":12379:12745   */\n    tag_124:\n        /* \"#utility.yul\":12521:12524   */\n      0x00\n        /* \"#utility.yul\":12542:12609   */\n      tag_255\n        /* \"#utility.yul\":12606:12608   */\n      0x15\n        /* \"#utility.yul\":12601:12604   */\n      dup4\n        /* \"#utility.yul\":12542:12609   */\n      tag_122\n      jump\t// in\n    tag_255:\n        /* \"#utility.yul\":12535:12609   */\n      swap2\n      pop\n        /* \"#utility.yul\":12618:12711   */\n      tag_256\n        /* \"#utility.yul\":12707:12710   */\n      dup3\n        /* \"#utility.yul\":12618:12711   */\n      tag_123\n      jump\t// in\n    tag_256:\n        /* \"#utility.yul\":12736:12738   */\n      0x20\n        /* \"#utility.yul\":12731:12734   */\n      dup3\n        /* \"#utility.yul\":12727:12739   */\n      add\n        /* \"#utility.yul\":12720:12739   */\n      swap1\n      pop\n        /* \"#utility.yul\":12379:12745   */\n      swap2\n      swap1\n      pop\n      jump\t// out\n        /* \"#utility.yul\":12751:13170   */\n    tag_46:\n        /* \"#utility.yul\":12917:12921   */\n      0x00\n        /* \"#utility.yul\":12955:12957   */\n      0x20\n        /* \"#utility.yul\":12944:12953   */\n      dup3\n        /* \"#utility.yul\":12940:12958   */\n      add\n        /* \"#utility.yul\":12932:12958   */\n      swap1\n      pop\n        /* \"#utility.yul\":13004:13013   */\n      dup2\n        /* \"#utility.yul\":12998:13002   */\n      dup2\n        /* \"#utility.yul\":12994:13014   */\n      sub\n        /* \"#utility.yul\":12990:12991   */\n      0x00\n        /* \"#utility.yul\":12979:12988   */\n      dup4\n        /* \"#utility.yul\":12975:12992   */\n      add\n        /* \"#utility.yul\":12968:13015   */\n      mstore\n        /* \"#utility.yul\":13032:13163   */\n      tag_258\n        /* \"#utility.yul\":13158:13162   */\n      dup2\n        /* \"#utility.yul\":13032:13163   */\n      tag_124\n      jump\t// in\n    tag_258:\n        /* \"#utility.yul\":13024:13163   */\n      swap1\n      pop\n        /* \"#utility.yul\":12751:13170   */\n      swap2\n      swap1\n      pop\n      jump\t// out\n        /* \"#utility.yul\":13176:13293   */\n    tag_125:\n        /* \"#utility.yul\":13285:13286   */\n      0x00\n        /* \"#utility.yul\":13282:13283   */\n      0x00\n        /* \"#utility.yul\":13275:13287   */\n      revert\n        /* \"#utility.yul\":13299:13416   */\n    tag_126:\n        /* \"#utility.yul\":13408:13409   */\n      0x00\n        /* \"#utility.yul\":13405:13406   */\n      0x00\n        /* \"#utility.yul\":13398:13410   */\n      revert\n        /* \"#utility.yul\":13422:13539   */\n    tag_127:\n        /* \"#utility.yul\":13531:13532   */\n      0x00\n        /* \"#utility.yul\":13528:13529   */\n      0x00\n        /* \"#utility.yul\":13521:13533   */\n      revert\n        /* \"#utility.yul\":13545:14270   */\n    tag_58:\n        /* \"#utility.yul\":13623:13627   */\n      0x00\n        /* \"#utility.yul\":13629:13635   */\n      0x00\n        /* \"#utility.yul\":13685:13696   */\n      dup4\n        /* \"#utility.yul\":13672:13697   */\n      calldataload\n        /* \"#utility.yul\":13785:13786   */\n      0x01\n        /* \"#utility.yul\":13779:13783   */\n      0x20\n        /* \"#utility.yul\":13775:13787   */\n      sub\n        /* \"#utility.yul\":13764:13772   */\n      dup5\n        /* \"#utility.yul\":13748:13762   */\n      calldatasize\n        /* \"#utility.yul\":13744:13773   */\n      sub\n        /* \"#utility.yul\":13740:13788   */\n      sub\n        /* \"#utility.yul\":13720:13738   */\n      dup2\n        /* \"#utility.yul\":13716:13789   */\n      slt\n        /* \"#utility.yul\":13706:13874   */\n      tag_263\n      jumpi\n        /* \"#utility.yul\":13793:13872   */\n      tag_264\n      tag_125\n      jump\t// in\n    tag_264:\n        /* \"#utility.yul\":13706:13874   */\n    tag_263:\n        /* \"#utility.yul\":13905:13923   */\n      dup1\n        /* \"#utility.yul\":13895:13903   */\n      dup5\n        /* \"#utility.yul\":13891:13924   */\n      add\n        /* \"#utility.yul\":13883:13924   */\n      swap3\n      pop\n        /* \"#utility.yul\":13957:13961   */\n      dup3\n        /* \"#utility.yul\":13944:13962   */\n      calldataload\n        /* \"#utility.yul\":13934:13962   */\n      swap2\n      pop\n        /* \"#utility.yul\":13985:14003   */\n      0xffffffffffffffff\n        /* \"#utility.yul\":13977:13983   */\n      dup3\n        /* \"#utility.yul\":13974:14004   */\n      gt\n        /* \"#utility.yul\":13971:14088   */\n      iszero\n      tag_265\n      jumpi\n        /* \"#utility.yul\":14007:14086   */\n      tag_266\n      tag_126\n      jump\t// in\n    tag_266:\n        /* \"#utility.yul\":13971:14088   */\n    tag_265:\n        /* \"#utility.yul\":14115:14117   */\n      0x20\n        /* \"#utility.yul\":14109:14113   */\n      dup4\n        /* \"#utility.yul\":14105:14118   */\n      add\n        /* \"#utility.yul\":14097:14118   */\n      swap3\n      pop\n        /* \"#utility.yul\":14172:14176   */\n      0x01\n        /* \"#utility.yul\":14164:14170   */\n      dup3\n        /* \"#utility.yul\":14160:14177   */\n      mul\n        /* \"#utility.yul\":14144:14158   */\n      calldatasize\n        /* \"#utility.yul\":14140:14178   */\n      sub\n        /* \"#utility.yul\":14134:14138   */\n      dup4\n        /* \"#utility.yul\":14130:14179   */\n      sgt\n        /* \"#utility.yul\":14127:14263   */\n      iszero\n      tag_267\n      jumpi\n        /* \"#utility.yul\":14182:14261   */\n      tag_268\n      tag_127\n      jump\t// in\n    tag_268:\n        /* \"#utility.yul\":14127:14263   */\n    tag_267:\n        /* \"#utility.yul\":13636:14270   */\n      pop\n        /* \"#utility.yul\":13545:14270   */\n      swap3\n      pop\n      swap3\n      swap1\n      pop\n      jump\t// out\n        /* \"#utility.yul\":14276:14456   */\n    tag_128:\n        /* \"#utility.yul\":14324:14401   */\n      0x4e487b7100000000000000000000000000000000000000000000000000000000\n        /* \"#utility.yul\":14321:14322   */\n      0x00\n        /* \"#utility.yul\":14314:14402   */\n      mstore\n        /* \"#utility.yul\":14421:14425   */\n      0x11\n        /* \"#utility.yul\":14418:14419   */\n      0x04\n        /* \"#utility.yul\":14411:14426   */\n      mstore\n        /* \"#utility.yul\":14445:14449   */\n      0x24\n        /* \"#utility.yul\":14442:14443   */\n      0x00\n        /* \"#utility.yul\":14435:14450   */\n      revert\n        /* \"#utility.yul\":14462:14653   */\n    tag_72:\n        /* \"#utility.yul\":14502:14505   */\n      0x00\n        /* \"#utility.yul\":14521:14541   */\n      tag_271\n        /* \"#utility.yul\":14539:14540   */\n      dup3\n        /* \"#utility.yul\":14521:14541   */\n      tag_97\n      jump\t// in\n    tag_271:\n        /* \"#utility.yul\":14516:14541   */\n      swap2\n      pop\n        /* \"#utility.yul\":14555:14575   */\n      tag_272\n        /* \"#utility.yul\":14573:14574   */\n      dup4\n        /* \"#utility.yul\":14555:14575   */\n      tag_97\n      jump\t// in\n    tag_272:\n        /* \"#utility.yul\":14550:14575   */\n      swap3\n      pop\n        /* \"#utility.yul\":14598:14599   */\n      dup3\n        /* \"#utility.yul\":14595:14596   */\n      dup3\n        /* \"#utility.yul\":14591:14600   */\n      add\n        /* \"#utility.yul\":14584:14600   */\n      swap1\n      pop\n        /* \"#utility.yul\":14619:14622   */\n      dup1\n        /* \"#utility.yul\":14616:14617   */\n      dup3\n        /* \"#utility.yul\":14613:14623   */\n      gt\n        /* \"#utility.yul\":14610:14646   */\n      iszero\n      tag_273\n      jumpi\n        /* \"#utility.yul\":14626:14644   */\n      tag_274\n      tag_128\n      jump\t// in\n    tag_274:\n        /* \"#utility.yul\":14610:14646   */\n    tag_273:\n        /* \"#utility.yul\":14462:14653   */\n      swap3\n      swap2\n      pop\n      pop\n      jump\t// out\n\n    auxdata: 0xa26469706673582212206ec25fbf474c40e49a9fbe1bd916deb4d3ec4141cf1ee6941634264682e9185c64736f6c63430008220033\n}\n",
				"bytecode": {
					"linkReferences": {},
					"object": "6080604052348015600e575f5ffd5b50610bd08061001c5f395ff3fe608060405234801561000f575f5ffd5b5060043610610060575f3560e01c8063662ef05b146100645780637d542068146100945780639e258efe146100c4578063c92fa517146100f4578063e33c702f14610124578063e4f7d55114610154575b5f5ffd5b61007e60048036038101906100799190610515565b610170565b60405161008b9190610620565b60405180910390f35b6100ae60048036038101906100a99190610695565b6101e2565b6040516100bb919061080b565b60405180910390f35b6100de60048036038101906100d99190610855565b61037e565b6040516100eb919061088f565b60405180910390f35b61010e60048036038101906101099190610515565b61039d565b60405161011b919061088f565b60405180910390f35b61013e600480360381019061013991906109e0565b6103f1565b60405161014b919061088f565b60405180910390f35b61016e60048036038101906101699190610515565b610443565b005b60605f8383808060200260200160405190810160405280939291908181526020018383602002808284375f81840152601f19601f8201169050808301925050505050505090506103e7815f815181106101cc576101cb610a27565b5b6020026020010181815250508091505092915050565b60605f8383905011610229576040517f08c379a000000000000000000000000000000000000000000000000000000000815260040161022090610aae565b60405180910390fd5b5f8383905067ffffffffffffffff811115610247576102466108a8565b5b60405190808252806020026020018201604052801561027a57816020015b60608152602001906001900390816102655790505b5090505f5f90505b8484905081101561031f578484828181106102a05761029f610a27565b5b90506020028101906102b29190610ad8565b8080601f0160208091040260200160405190810160405280939291908181526020018383808284375f81840152601f19601f8201169050808301925050505050505082828151811061030757610306610a27565b5b60200260200101819052508080600101915050610282565b506040518060400160405280600d81526020017f4d6f646966696564204e616d6500000000000000000000000000000000000000815250815f8151811061036957610368610a27565b5b60200260200101819052508091505092915050565b5f818154811061038c575f80fd5b905f5260205f20015f915090505481565b5f5f5f90505f5f90505b848490508110156103e6578484828181106103c5576103c4610a27565b5b90506020020135826103d79190610b67565b915080806001019150506103a7565b508091505092915050565b5f5f5f90505f5f90505b83518110156104395783818151811061041757610416610a27565b5b60200260200101518261042a9190610b67565b915080806001019150506103fb565b5080915050919050565b5f5f90505b8282905081101561049e575f83838381811061046757610466610a27565b5b90506020020135908060018154018082558091505060019003905f5260205f20015f90919091909150558080600101915050610448565b505050565b5f604051905090565b5f5ffd5b5f5ffd5b5f5ffd5b5f5ffd5b5f5ffd5b5f5f83601f8401126104d5576104d46104b4565b5b8235905067ffffffffffffffff8111156104f2576104f16104b8565b5b60208301915083602082028301111561050e5761050d6104bc565b5b9250929050565b5f5f6020838503121561052b5761052a6104ac565b5b5f83013567ffffffffffffffff811115610548576105476104b0565b5b610554858286016104c0565b92509250509250929050565b5f81519050919050565b5f82825260208201905092915050565b5f819050602082019050919050565b5f819050919050565b61059b81610589565b82525050565b5f6105ac8383610592565b60208301905092915050565b5f602082019050919050565b5f6105ce82610560565b6105d8818561056a565b93506105e38361057a565b805f5b838110156106135781516105fa88826105a1565b9750610605836105b8565b9250506001810190506105e6565b5085935050505092915050565b5f6020820190508181035f83015261063881846105c4565b905092915050565b5f5f83601f840112610655576106546104b4565b5b8235905067ffffffffffffffff811115610672576106716104b8565b5b60208301915083602082028301111561068e5761068d6104bc565b5b9250929050565b5f5f602083850312156106ab576106aa6104ac565b5b5f83013567ffffffffffffffff8111156106c8576106c76104b0565b5b6106d485828601610640565b92509250509250929050565b5f81519050919050565b5f82825260208201905092915050565b5f819050602082019050919050565b5f81519050919050565b5f82825260208201905092915050565b8281835e5f83830152505050565b5f601f19601f8301169050919050565b5f61074b82610709565b6107558185610713565b9350610765818560208601610723565b61076e81610731565b840191505092915050565b5f6107848383610741565b905092915050565b5f602082019050919050565b5f6107a2826106e0565b6107ac81856106ea565b9350836020820285016107be856106fa565b805f5b858110156107f957848403895281516107da8582610779565b94506107e58361078c565b925060208a019950506001810190506107c1565b50829750879550505050505092915050565b5f6020820190508181035f8301526108238184610798565b905092915050565b61083481610589565b811461083e575f5ffd5b50565b5f8135905061084f8161082b565b92915050565b5f6020828403121561086a576108696104ac565b5b5f61087784828501610841565b91505092915050565b61088981610589565b82525050565b5f6020820190506108a25f830184610880565b92915050565b7f4e487b71000000000000000000000000000000000000000000000000000000005f52604160045260245ffd5b6108de82610731565b810181811067ffffffffffffffff821117156108fd576108fc6108a8565b5b80604052505050565b5f61090f6104a3565b905061091b82826108d5565b919050565b5f67ffffffffffffffff82111561093a576109396108a8565b5b602082029050602081019050919050565b5f61095d61095884610920565b610906565b905080838252602082019050602084028301858111156109805761097f6104bc565b5b835b818110156109a957806109958882610841565b845260208401935050602081019050610982565b5050509392505050565b5f82601f8301126109c7576109c66104b4565b5b81356109d784826020860161094b565b91505092915050565b5f602082840312156109f5576109f46104ac565b5b5f82013567ffffffffffffffff811115610a1257610a116104b0565b5b610a1e848285016109b3565b91505092915050565b7f4e487b71000000000000000000000000000000000000000000000000000000005f52603260045260245ffd5b5f82825260208201905092915050565b7f41727261792063616e6e6f7420626520656d70747900000000000000000000005f82015250565b5f610a98601583610a54565b9150610aa382610a64565b602082019050919050565b5f6020820190508181035f830152610ac581610a8c565b9050919050565b5f5ffd5b5f5ffd5b5f5ffd5b5f5f83356001602003843603038112610af457610af3610acc565b5b80840192508235915067ffffffffffffffff821115610b1657610b15610ad0565b5b602083019250600182023603831315610b3257610b31610ad4565b5b509250929050565b7f4e487b71000000000000000000000000000000000000000000000000000000005f52601160045260245ffd5b5f610b7182610589565b9150610b7c83610589565b9250828201905080821115610b9457610b93610b3a565b5b9291505056fea26469706673582212206ec25fbf474c40e49a9fbe1bd916deb4d3ec4141cf1ee6941634264682e9185c64736f6c63430008220033",
					"opcodes": "PUSH1 0x80 PUSH1 0x40 MSTORE CALLVALUE DUP1 ISZERO PUSH1 0xE JUMPI PUSH0 PUSH0 REVERT JUMPDEST POP PUSH2 0xBD0 DUP1 PUSH2 0x1C PUSH0 CODECOPY PUSH0 RETURN INVALID PUSH1 0x80 PUSH1 0x40 MSTORE CALLVALUE DUP1 ISZERO PUSH2 0xF JUMPI PUSH0 PUSH0 REVERT JUMPDEST POP PUSH1 0x4 CALLDATASIZE LT PUSH2 0x60 JUMPI PUSH0 CALLDATALOAD PUSH1 0xE0 SHR DUP1 PUSH4 0x662EF05B EQ PUSH2 0x64 JUMPI DUP1 PUSH4 0x7D542068 EQ PUSH2 0x94 JUMPI DUP1 PUSH4 0x9E258EFE EQ PUSH2 0xC4 JUMPI DUP1 PUSH4 0xC92FA517 EQ PUSH2 0xF4 JUMPI DUP1 PUSH4 0xE33C702F EQ PUSH2 0x124 JUMPI DUP1 PUSH4 0xE4F7D551 EQ PUSH2 0x154 JUMPI JUMPDEST PUSH0 PUSH0 REVERT JUMPDEST PUSH2 0x7E PUSH1 0x4 DUP1 CALLDATASIZE SUB DUP2 ADD SWAP1 PUSH2 0x79 SWAP2 SWAP1 PUSH2 0x515 JUMP JUMPDEST PUSH2 0x170 JUMP JUMPDEST PUSH1 0x40 MLOAD PUSH2 0x8B SWAP2 SWAP1 PUSH2 0x620 JUMP JUMPDEST PUSH1 0x40 MLOAD DUP1 SWAP2 SUB SWAP1 RETURN JUMPDEST PUSH2 0xAE PUSH1 0x4 DUP1 CALLDATASIZE SUB DUP2 ADD SWAP1 PUSH2 0xA9 SWAP2 SWAP1 PUSH2 0x695 JUMP JUMPDEST PUSH2 0x1E2 JUMP JUMPDEST PUSH1 0x40 MLOAD PUSH2 0xBB SWAP2 SWAP1 PUSH2 0x80B JUMP JUMPDEST PUSH1 0x40 MLOAD DUP1 SWAP2 SUB SWAP1 RETURN JUMPDEST PUSH2 0xDE PUSH1 0x4 DUP1 CALLDATASIZE SUB DUP2 ADD SWAP1 PUSH2 0xD9 SWAP2 SWAP1 PUSH2 0x855 JUMP JUMPDEST PUSH2 0x37E JUMP JUMPDEST PUSH1 0x40 MLOAD PUSH2 0xEB SWAP2 SWAP1 PUSH2 0x88F JUMP JUMPDEST PUSH1 0x40 MLOAD DUP1 SWAP2 SUB SWAP1 RETURN JUMPDEST PUSH2 0x10E PUSH1 0x4 DUP1 CALLDATASIZE SUB DUP2 ADD SWAP1 PUSH2 0x109 SWAP2 SWAP1 PUSH2 0x515 JUMP JUMPDEST PUSH2 0x39D JUMP JUMPDEST PUSH1 0x40 MLOAD PUSH2 0x11B SWAP2 SWAP1 PUSH2 0x88F JUMP JUMPDEST PUSH1 0x40 MLOAD DUP1 SWAP2 SUB SWAP1 RETURN JUMPDEST PUSH2 0x13E PUSH1 0x4 DUP1 CALLDATASIZE SUB DUP2 ADD SWAP1 PUSH2 0x139 SWAP2 SWAP1 PUSH2 0x9E0 JUMP JUMPDEST PUSH2 0x3F1 JUMP JUMPDEST PUSH1 0x40 MLOAD PUSH2 0x14B SWAP2 SWAP1 PUSH2 0x88F JUMP JUMPDEST PUSH1 0x40 MLOAD DUP1 SWAP2 SUB SWAP1 RETURN JUMPDEST PUSH2 0x16E PUSH1 0x4 DUP1 CALLDATASIZE SUB DUP2 ADD SWAP1 PUSH2 0x169 SWAP2 SWAP1 PUSH2 0x515 JUMP JUMPDEST PUSH2 0x443 JUMP JUMPDEST STOP JUMPDEST PUSH1 0x60 PUSH0 DUP4 DUP4 DUP1 DUP1 PUSH1 0x20 MUL PUSH1 0x20 ADD PUSH1 0x40 MLOAD SWAP1 DUP2 ADD PUSH1 0x40 MSTORE DUP1 SWAP4 SWAP3 SWAP2 SWAP1 DUP2 DUP2 MSTORE PUSH1 0x20 ADD DUP4 DUP4 PUSH1 0x20 MUL DUP1 DUP3 DUP5 CALLDATACOPY PUSH0 DUP2 DUP5 ADD MSTORE PUSH1 0x1F NOT PUSH1 0x1F DUP3 ADD AND SWAP1 POP DUP1 DUP4 ADD SWAP3 POP POP POP POP POP POP POP SWAP1 POP PUSH2 0x3E7 DUP2 PUSH0 DUP2 MLOAD DUP2 LT PUSH2 0x1CC JUMPI PUSH2 0x1CB PUSH2 0xA27 JUMP JUMPDEST JUMPDEST PUSH1 0x20 MUL PUSH1 0x20 ADD ADD DUP2 DUP2 MSTORE POP POP DUP1 SWAP2 POP POP SWAP3 SWAP2 POP POP JUMP JUMPDEST PUSH1 0x60 PUSH0 DUP4 DUP4 SWAP1 POP GT PUSH2 0x229 JUMPI PUSH1 0x40 MLOAD PUSH32 0x8C379A000000000000000000000000000000000000000000000000000000000 DUP2 MSTORE PUSH1 0x4 ADD PUSH2 0x220 SWAP1 PUSH2 0xAAE JUMP JUMPDEST PUSH1 0x40 MLOAD DUP1 SWAP2 SUB SWAP1 REVERT JUMPDEST PUSH0 DUP4 DUP4 SWAP1 POP PUSH8 0xFFFFFFFFFFFFFFFF DUP2 GT ISZERO PUSH2 0x247 JUMPI PUSH2 0x246 PUSH2 0x8A8 JUMP JUMPDEST JUMPDEST PUSH1 0x40 MLOAD SWAP1 DUP1 DUP3 MSTORE DUP1 PUSH1 0x20 MUL PUSH1 0x20 ADD DUP3 ADD PUSH1 0x40 MSTORE DUP1 ISZERO PUSH2 0x27A JUMPI DUP2 PUSH1 0x20 ADD JUMPDEST PUSH1 0x60 DUP2 MSTORE PUSH1 0x20 ADD SWAP1 PUSH1 0x1 SWAP1 SUB SWAP1 DUP2 PUSH2 0x265 JUMPI SWAP1 POP JUMPDEST POP SWAP1 POP PUSH0 PUSH0 SWAP1 POP JUMPDEST DUP5 DUP5 SWAP1 POP DUP2 LT ISZERO PUSH2 0x31F JUMPI DUP5 DUP5 DUP3 DUP2 DUP2 LT PUSH2 0x2A0 JUMPI PUSH2 0x29F PUSH2 0xA27 JUMP JUMPDEST JUMPDEST SWAP1 POP PUSH1 0x20 MUL DUP2 ADD SWAP1 PUSH2 0x2B2 SWAP2 SWAP1 PUSH2 0xAD8 JUMP JUMPDEST DUP1 DUP1 PUSH1 0x1F ADD PUSH1 0x20 DUP1 SWAP2 DIV MUL PUSH1 0x20 ADD PUSH1 0x40 MLOAD SWAP1 DUP2 ADD PUSH1 0x40 MSTORE DUP1 SWAP4 SWAP3 SWAP2 SWAP1 DUP2 DUP2 MSTORE PUSH1 0x20 ADD DUP4 DUP4 DUP1 DUP3 DUP5 CALLDATACOPY PUSH0 DUP2 DUP5 ADD MSTORE PUSH1 0x1F NOT PUSH1 0x1F DUP3 ADD AND SWAP1 POP DUP1 DUP4 ADD SWAP3 POP POP POP POP POP POP POP DUP3 DUP3 DUP2 MLOAD DUP2 LT PUSH2 0x307 JUMPI PUSH2 0x306 PUSH2 0xA27 JUMP JUMPDEST JUMPDEST PUSH1 0x20 MUL PUSH1 0x20 ADD ADD DUP2 SWAP1 MSTORE POP DUP1 DUP1 PUSH1 0x1 ADD SWAP2 POP POP PUSH2 0x282 JUMP JUMPDEST POP PUSH1 0x40 MLOAD DUP1 PUSH1 0x40 ADD PUSH1 0x40 MSTORE DUP1 PUSH1 0xD DUP2 MSTORE PUSH1 0x20 ADD PUSH32 0x4D6F646966696564204E616D6500000000000000000000000000000000000000 DUP2 MSTORE POP DUP2 PUSH0 DUP2 MLOAD DUP2 LT PUSH2 0x369 JUMPI PUSH2 0x368 PUSH2 0xA27 JUMP JUMPDEST JUMPDEST PUSH1 0x20 MUL PUSH1 0x20 ADD ADD DUP2 SWAP1 MSTORE POP DUP1 SWAP2 POP POP SWAP3 SWAP2 POP POP JUMP JUMPDEST PUSH0 DUP2 DUP2 SLOAD DUP2 LT PUSH2 0x38C JUMPI PUSH0 DUP1 REVERT JUMPDEST SWAP1 PUSH0 MSTORE PUSH1 0x20 PUSH0 KECCAK256 ADD PUSH0 SWAP2 POP SWAP1 POP SLOAD DUP2 JUMP JUMPDEST PUSH0 PUSH0 PUSH0 SWAP1 POP PUSH0 PUSH0 SWAP1 POP JUMPDEST DUP5 DUP5 SWAP1 POP DUP2 LT ISZERO PUSH2 0x3E6 JUMPI DUP5 DUP5 DUP3 DUP2 DUP2 LT PUSH2 0x3C5 JUMPI PUSH2 0x3C4 PUSH2 0xA27 JUMP JUMPDEST JUMPDEST SWAP1 POP PUSH1 0x20 MUL ADD CALLDATALOAD DUP3 PUSH2 0x3D7 SWAP2 SWAP1 PUSH2 0xB67 JUMP JUMPDEST SWAP2 POP DUP1 DUP1 PUSH1 0x1 ADD SWAP2 POP POP PUSH2 0x3A7 JUMP JUMPDEST POP DUP1 SWAP2 POP POP SWAP3 SWAP2 POP POP JUMP JUMPDEST PUSH0 PUSH0 PUSH0 SWAP1 POP PUSH0 PUSH0 SWAP1 POP JUMPDEST DUP4 MLOAD DUP2 LT ISZERO PUSH2 0x439 JUMPI DUP4 DUP2 DUP2 MLOAD DUP2 LT PUSH2 0x417 JUMPI PUSH2 0x416 PUSH2 0xA27 JUMP JUMPDEST JUMPDEST PUSH1 0x20 MUL PUSH1 0x20 ADD ADD MLOAD DUP3 PUSH2 0x42A SWAP2 SWAP1 PUSH2 0xB67 JUMP JUMPDEST SWAP2 POP DUP1 DUP1 PUSH1 0x1 ADD SWAP2 POP POP PUSH2 0x3FB JUMP JUMPDEST POP DUP1 SWAP2 POP POP SWAP2 SWAP1 POP JUMP JUMPDEST PUSH0 PUSH0 SWAP1 POP JUMPDEST DUP3 DUP3 SWAP1 POP DUP2 LT ISZERO PUSH2 0x49E JUMPI PUSH0 DUP4 DUP4 DUP4 DUP2 DUP2 LT PUSH2 0x467 JUMPI PUSH2 0x466 PUSH2 0xA27 JUMP JUMPDEST JUMPDEST SWAP1 POP PUSH1 0x20 MUL ADD CALLDATALOAD SWAP1 DUP1 PUSH1 0x1 DUP2 SLOAD ADD DUP1 DUP3 SSTORE DUP1 SWAP2 POP POP PUSH1 0x1 SWAP1 SUB SWAP1 PUSH0 MSTORE PUSH1 0x20 PUSH0 KECCAK256 ADD PUSH0 SWAP1 SWAP2 SWAP1 SWAP2 SWAP1 SWAP2 POP SSTORE DUP1 DUP1 PUSH1 0x1 ADD SWAP2 POP POP PUSH2 0x448 JUMP JUMPDEST POP POP POP JUMP JUMPDEST PUSH0 PUSH1 0x40 MLOAD SWAP1 POP SWAP1 JUMP JUMPDEST PUSH0 PUSH0 REVERT JUMPDEST PUSH0 PUSH0 REVERT JUMPDEST PUSH0 PUSH0 REVERT JUMPDEST PUSH0 PUSH0 REVERT JUMPDEST PUSH0 PUSH0 REVERT JUMPDEST PUSH0 PUSH0 DUP4 PUSH1 0x1F DUP5 ADD SLT PUSH2 0x4D5 JUMPI PUSH2 0x4D4 PUSH2 0x4B4 JUMP JUMPDEST JUMPDEST DUP3 CALLDATALOAD SWAP1 POP PUSH8 0xFFFFFFFFFFFFFFFF DUP2 GT ISZERO PUSH2 0x4F2 JUMPI PUSH2 0x4F1 PUSH2 0x4B8 JUMP JUMPDEST JUMPDEST PUSH1 0x20 DUP4 ADD SWAP2 POP DUP4 PUSH1 0x20 DUP3 MUL DUP4 ADD GT ISZERO PUSH2 0x50E JUMPI PUSH2 0x50D PUSH2 0x4BC JUMP JUMPDEST JUMPDEST SWAP3 POP SWAP3 SWAP1 POP JUMP JUMPDEST PUSH0 PUSH0 PUSH1 0x20 DUP4 DUP6 SUB SLT ISZERO PUSH2 0x52B JUMPI PUSH2 0x52A PUSH2 0x4AC JUMP JUMPDEST JUMPDEST PUSH0 DUP4 ADD CALLDATALOAD PUSH8 0xFFFFFFFFFFFFFFFF DUP2 GT ISZERO PUSH2 0x548 JUMPI PUSH2 0x547 PUSH2 0x4B0 JUMP JUMPDEST JUMPDEST PUSH2 0x554 DUP6 DUP3 DUP7 ADD PUSH2 0x4C0 JUMP JUMPDEST SWAP3 POP SWAP3 POP POP SWAP3 POP SWAP3 SWAP1 POP JUMP JUMPDEST PUSH0 DUP2 MLOAD SWAP1 POP SWAP2 SWAP1 POP JUMP JUMPDEST PUSH0 DUP3 DUP3 MSTORE PUSH1 0x20 DUP3 ADD SWAP1 POP SWAP3 SWAP2 POP POP JUMP JUMPDEST PUSH0 DUP2 SWAP1 POP PUSH1 0x20 DUP3 ADD SWAP1 POP SWAP2 SWAP1 POP JUMP JUMPDEST PUSH0 DUP2 SWAP1 POP SWAP2 SWAP1 POP JUMP JUMPDEST PUSH2 0x59B DUP2 PUSH2 0x589 JUMP JUMPDEST DUP3 MSTORE POP POP JUMP JUMPDEST PUSH0 PUSH2 0x5AC DUP4 DUP4 PUSH2 0x592 JUMP JUMPDEST PUSH1 0x20 DUP4 ADD SWAP1 POP SWAP3 SWAP2 POP POP JUMP JUMPDEST PUSH0 PUSH1 0x20 DUP3 ADD SWAP1 POP SWAP2 SWAP1 POP JUMP JUMPDEST PUSH0 PUSH2 0x5CE DUP3 PUSH2 0x560 JUMP JUMPDEST PUSH2 0x5D8 DUP2 DUP6 PUSH2 0x56A JUMP JUMPDEST SWAP4 POP PUSH2 0x5E3 DUP4 PUSH2 0x57A JUMP JUMPDEST DUP1 PUSH0 JUMPDEST DUP4 DUP2 LT ISZERO PUSH2 0x613 JUMPI DUP2 MLOAD PUSH2 0x5FA DUP9 DUP3 PUSH2 0x5A1 JUMP JUMPDEST SWAP8 POP PUSH2 0x605 DUP4 PUSH2 0x5B8 JUMP JUMPDEST SWAP3 POP POP PUSH1 0x1 DUP2 ADD SWAP1 POP PUSH2 0x5E6 JUMP JUMPDEST POP DUP6 SWAP4 POP POP POP POP SWAP3 SWAP2 POP POP JUMP JUMPDEST PUSH0 PUSH1 0x20 DUP3 ADD SWAP1 POP DUP2 DUP2 SUB PUSH0 DUP4 ADD MSTORE PUSH2 0x638 DUP2 DUP5 PUSH2 0x5C4 JUMP JUMPDEST SWAP1 POP SWAP3 SWAP2 POP POP JUMP JUMPDEST PUSH0 PUSH0 DUP4 PUSH1 0x1F DUP5 ADD SLT PUSH2 0x655 JUMPI PUSH2 0x654 PUSH2 0x4B4 JUMP JUMPDEST JUMPDEST DUP3 CALLDATALOAD SWAP1 POP PUSH8 0xFFFFFFFFFFFFFFFF DUP2 GT ISZERO PUSH2 0x672 JUMPI PUSH2 0x671 PUSH2 0x4B8 JUMP JUMPDEST JUMPDEST PUSH1 0x20 DUP4 ADD SWAP2 POP DUP4 PUSH1 0x20 DUP3 MUL DUP4 ADD GT ISZERO PUSH2 0x68E JUMPI PUSH2 0x68D PUSH2 0x4BC JUMP JUMPDEST JUMPDEST SWAP3 POP SWAP3 SWAP1 POP JUMP JUMPDEST PUSH0 PUSH0 PUSH1 0x20 DUP4 DUP6 SUB SLT ISZERO PUSH2 0x6AB JUMPI PUSH2 0x6AA PUSH2 0x4AC JUMP JUMPDEST JUMPDEST PUSH0 DUP4 ADD CALLDATALOAD PUSH8 0xFFFFFFFFFFFFFFFF DUP2 GT ISZERO PUSH2 0x6C8 JUMPI PUSH2 0x6C7 PUSH2 0x4B0 JUMP JUMPDEST JUMPDEST PUSH2 0x6D4 DUP6 DUP3 DUP7 ADD PUSH2 0x640 JUMP JUMPDEST SWAP3 POP SWAP3 POP POP SWAP3 POP SWAP3 SWAP1 POP JUMP JUMPDEST PUSH0 DUP2 MLOAD SWAP1 POP SWAP2 SWAP1 POP JUMP JUMPDEST PUSH0 DUP3 DUP3 MSTORE PUSH1 0x20 DUP3 ADD SWAP1 POP SWAP3 SWAP2 POP POP JUMP JUMPDEST PUSH0 DUP2 SWAP1 POP PUSH1 0x20 DUP3 ADD SWAP1 POP SWAP2 SWAP1 POP JUMP JUMPDEST PUSH0 DUP2 MLOAD SWAP1 POP SWAP2 SWAP1 POP JUMP JUMPDEST PUSH0 DUP3 DUP3 MSTORE PUSH1 0x20 DUP3 ADD SWAP1 POP SWAP3 SWAP2 POP POP JUMP JUMPDEST DUP3 DUP2 DUP4 MCOPY PUSH0 DUP4 DUP4 ADD MSTORE POP POP POP JUMP JUMPDEST PUSH0 PUSH1 0x1F NOT PUSH1 0x1F DUP4 ADD AND SWAP1 POP SWAP2 SWAP1 POP JUMP JUMPDEST PUSH0 PUSH2 0x74B DUP3 PUSH2 0x709 JUMP JUMPDEST PUSH2 0x755 DUP2 DUP6 PUSH2 0x713 JUMP JUMPDEST SWAP4 POP PUSH2 0x765 DUP2 DUP6 PUSH1 0x20 DUP7 ADD PUSH2 0x723 JUMP JUMPDEST PUSH2 0x76E DUP2 PUSH2 0x731 JUMP JUMPDEST DUP5 ADD SWAP2 POP POP SWAP3 SWAP2 POP POP JUMP JUMPDEST PUSH0 PUSH2 0x784 DUP4 DUP4 PUSH2 0x741 JUMP JUMPDEST SWAP1 POP SWAP3 SWAP2 POP POP JUMP JUMPDEST PUSH0 PUSH1 0x20 DUP3 ADD SWAP1 POP SWAP2 SWAP1 POP JUMP JUMPDEST PUSH0 PUSH2 0x7A2 DUP3 PUSH2 0x6E0 JUMP JUMPDEST PUSH2 0x7AC DUP2 DUP6 PUSH2 0x6EA JUMP JUMPDEST SWAP4 POP DUP4 PUSH1 0x20 DUP3 MUL DUP6 ADD PUSH2 0x7BE DUP6 PUSH2 0x6FA JUMP JUMPDEST DUP1 PUSH0 JUMPDEST DUP6 DUP2 LT ISZERO PUSH2 0x7F9 JUMPI DUP5 DUP5 SUB DUP10 MSTORE DUP2 MLOAD PUSH2 0x7DA DUP6 DUP3 PUSH2 0x779 JUMP JUMPDEST SWAP5 POP PUSH2 0x7E5 DUP4 PUSH2 0x78C JUMP JUMPDEST SWAP3 POP PUSH1 0x20 DUP11 ADD SWAP10 POP POP PUSH1 0x1 DUP2 ADD SWAP1 POP PUSH2 0x7C1 JUMP JUMPDEST POP DUP3 SWAP8 POP DUP8 SWAP6 POP POP POP POP POP POP SWAP3 SWAP2 POP POP JUMP JUMPDEST PUSH0 PUSH1 0x20 DUP3 ADD SWAP1 POP DUP2 DUP2 SUB PUSH0 DUP4 ADD MSTORE PUSH2 0x823 DUP2 DUP5 PUSH2 0x798 JUMP JUMPDEST SWAP1 POP SWAP3 SWAP2 POP POP JUMP JUMPDEST PUSH2 0x834 DUP2 PUSH2 0x589 JUMP JUMPDEST DUP2 EQ PUSH2 0x83E JUMPI PUSH0 PUSH0 REVERT JUMPDEST POP JUMP JUMPDEST PUSH0 DUP2 CALLDATALOAD SWAP1 POP PUSH2 0x84F DUP2 PUSH2 0x82B JUMP JUMPDEST SWAP3 SWAP2 POP POP JUMP JUMPDEST PUSH0 PUSH1 0x20 DUP3 DUP5 SUB SLT ISZERO PUSH2 0x86A JUMPI PUSH2 0x869 PUSH2 0x4AC JUMP JUMPDEST JUMPDEST PUSH0 PUSH2 0x877 DUP5 DUP3 DUP6 ADD PUSH2 0x841 JUMP JUMPDEST SWAP2 POP POP SWAP3 SWAP2 POP POP JUMP JUMPDEST PUSH2 0x889 DUP2 PUSH2 0x589 JUMP JUMPDEST DUP3 MSTORE POP POP JUMP JUMPDEST PUSH0 PUSH1 0x20 DUP3 ADD SWAP1 POP PUSH2 0x8A2 PUSH0 DUP4 ADD DUP5 PUSH2 0x880 JUMP JUMPDEST SWAP3 SWAP2 POP POP JUMP JUMPDEST PUSH32 0x4E487B7100000000000000000000000000000000000000000000000000000000 PUSH0 MSTORE PUSH1 0x41 PUSH1 0x4 MSTORE PUSH1 0x24 PUSH0 REVERT JUMPDEST PUSH2 0x8DE DUP3 PUSH2 0x731 JUMP JUMPDEST DUP2 ADD DUP2 DUP2 LT PUSH8 0xFFFFFFFFFFFFFFFF DUP3 GT OR ISZERO PUSH2 0x8FD JUMPI PUSH2 0x8FC PUSH2 0x8A8 JUMP JUMPDEST JUMPDEST DUP1 PUSH1 0x40 MSTORE POP POP POP JUMP JUMPDEST PUSH0 PUSH2 0x90F PUSH2 0x4A3 JUMP JUMPDEST SWAP1 POP PUSH2 0x91B DUP3 DUP3 PUSH2 0x8D5 JUMP JUMPDEST SWAP2 SWAP1 POP JUMP JUMPDEST PUSH0 PUSH8 0xFFFFFFFFFFFFFFFF DUP3 GT ISZERO PUSH2 0x93A JUMPI PUSH2 0x939 PUSH2 0x8A8 JUMP JUMPDEST JUMPDEST PUSH1 0x20 DUP3 MUL SWAP1 POP PUSH1 0x20 DUP2 ADD SWAP1 POP SWAP2 SWAP1 POP JUMP JUMPDEST PUSH0 PUSH2 0x95D PUSH2 0x958 DUP5 PUSH2 0x920 JUMP JUMPDEST PUSH2 0x906 JUMP JUMPDEST SWAP1 POP DUP1 DUP4 DUP3 MSTORE PUSH1 0x20 DUP3 ADD SWAP1 POP PUSH1 0x20 DUP5 MUL DUP4 ADD DUP6 DUP2 GT ISZERO PUSH2 0x980 JUMPI PUSH2 0x97F PUSH2 0x4BC JUMP JUMPDEST JUMPDEST DUP4 JUMPDEST DUP2 DUP2 LT ISZERO PUSH2 0x9A9 JUMPI DUP1 PUSH2 0x995 DUP9 DUP3 PUSH2 0x841 JUMP JUMPDEST DUP5 MSTORE PUSH1 0x20 DUP5 ADD SWAP4 POP POP PUSH1 0x20 DUP2 ADD SWAP1 POP PUSH2 0x982 JUMP JUMPDEST POP POP POP SWAP4 SWAP3 POP POP POP JUMP JUMPDEST PUSH0 DUP3 PUSH1 0x1F DUP4 ADD SLT PUSH2 0x9C7 JUMPI PUSH2 0x9C6 PUSH2 0x4B4 JUMP JUMPDEST JUMPDEST DUP2 CALLDATALOAD PUSH2 0x9D7 DUP5 DUP3 PUSH1 0x20 DUP7 ADD PUSH2 0x94B JUMP JUMPDEST SWAP2 POP POP SWAP3 SWAP2 POP POP JUMP JUMPDEST PUSH0 PUSH1 0x20 DUP3 DUP5 SUB SLT ISZERO PUSH2 0x9F5 JUMPI PUSH2 0x9F4 PUSH2 0x4AC JUMP JUMPDEST JUMPDEST PUSH0 DUP3 ADD CALLDATALOAD PUSH8 0xFFFFFFFFFFFFFFFF DUP2 GT ISZERO PUSH2 0xA12 JUMPI PUSH2 0xA11 PUSH2 0x4B0 JUMP JUMPDEST JUMPDEST PUSH2 0xA1E DUP5 DUP3 DUP6 ADD PUSH2 0x9B3 JUMP JUMPDEST SWAP2 POP POP SWAP3 SWAP2 POP POP JUMP JUMPDEST PUSH32 0x4E487B7100000000000000000000000000000000000000000000000000000000 PUSH0 MSTORE PUSH1 0x32 PUSH1 0x4 MSTORE PUSH1 0x24 PUSH0 REVERT JUMPDEST PUSH0 DUP3 DUP3 MSTORE PUSH1 0x20 DUP3 ADD SWAP1 POP SWAP3 SWAP2 POP POP JUMP JUMPDEST PUSH32 0x41727261792063616E6E6F7420626520656D7074790000000000000000000000 PUSH0 DUP3 ADD MSTORE POP JUMP JUMPDEST PUSH0 PUSH2 0xA98 PUSH1 0x15 DUP4 PUSH2 0xA54 JUMP JUMPDEST SWAP2 POP PUSH2 0xAA3 DUP3 PUSH2 0xA64 JUMP JUMPDEST PUSH1 0x20 DUP3 ADD SWAP1 POP SWAP2 SWAP1 POP JUMP JUMPDEST PUSH0 PUSH1 0x20 DUP3 ADD SWAP1 POP DUP2 DUP2 SUB PUSH0 DUP4 ADD MSTORE PUSH2 0xAC5 DUP2 PUSH2 0xA8C JUMP JUMPDEST SWAP1 POP SWAP2 SWAP1 POP JUMP JUMPDEST PUSH0 PUSH0 REVERT JUMPDEST PUSH0 PUSH0 REVERT JUMPDEST PUSH0 PUSH0 REVERT JUMPDEST PUSH0 PUSH0 DUP4 CALLDATALOAD PUSH1 0x1 PUSH1 0x20 SUB DUP5 CALLDATASIZE SUB SUB DUP2 SLT PUSH2 0xAF4 JUMPI PUSH2 0xAF3 PUSH2 0xACC JUMP JUMPDEST JUMPDEST DUP1 DUP5 ADD SWAP3 POP DUP3 CALLDATALOAD SWAP2 POP PUSH8 0xFFFFFFFFFFFFFFFF DUP3 GT ISZERO PUSH2 0xB16 JUMPI PUSH2 0xB15 PUSH2 0xAD0 JUMP JUMPDEST JUMPDEST PUSH1 0x20 DUP4 ADD SWAP3 POP PUSH1 0x1 DUP3 MUL CALLDATASIZE SUB DUP4 SGT ISZERO PUSH2 0xB32 JUMPI PUSH2 0xB31 PUSH2 0xAD4 JUMP JUMPDEST JUMPDEST POP SWAP3 POP SWAP3 SWAP1 POP JUMP JUMPDEST PUSH32 0x4E487B7100000000000000000000000000000000000000000000000000000000 PUSH0 MSTORE PUSH1 0x11 PUSH1 0x4 MSTORE PUSH1 0x24 PUSH0 REVERT JUMPDEST PUSH0 PUSH2 0xB71 DUP3 PUSH2 0x589 JUMP JUMPDEST SWAP2 POP PUSH2 0xB7C DUP4 PUSH2 0x589 JUMP JUMPDEST SWAP3 POP DUP3 DUP3 ADD SWAP1 POP DUP1 DUP3 GT ISZERO PUSH2 0xB94 JUMPI PUSH2 0xB93 PUSH2 0xB3A JUMP JUMPDEST JUMPDEST SWAP3 SWAP2 POP POP JUMP INVALID LOG2 PUSH5 0x6970667358 0x22 SLT KECCAK256 PUSH15 0xC25FBF474C40E49A9FBE1BD916DEB4 0xD3 EOFCREATE 0x41 COINBASE 0xCF CLZ DUPN 0x94 AND CALLVALUE 0x26 CHAINID DUP3 0xE9 XOR TLOAD PUSH5 0x736F6C6343 STOP ADDMOD 0x22 STOP CALLER "
				},
				"gasEstimates": {
					"creation": {
						"codeDepositCost": "604800",
						"executionCost": "636",
						"totalCost": "605436"
					},
					"external": {
						"modifyMemory(uint256[])": "infinite",
						"modifyStringArray(string[])": "infinite",
						"saveValues(uint256[])": "infinite",
						"storedValues(uint256)": "infinite",
						"useCalldata(uint256[])": "infinite",
						"useMemory(uint256[])": "infinite"
					}
				},
				"methodIdentifiers": {
					"modifyMemory(uint256[])": "662ef05b",
					"modifyStringArray(string[])": "7d542068",
					"saveValues(uint256[])": "e4f7d551",
					"storedValues(uint256)": "9e258efe",
					"useCalldata(uint256[])": "c92fa517",
					"useMemory(uint256[])": "e33c702f"
				}
			},
			"storageLayout": {
				"storage": [
					{
						"astId": 129,
						"contract": "val30.sol:CalldataVsMemory",
						"label": "storedValues",
						"offset": 0,
						"slot": "0",
						"type": "t_array(t_uint256)dyn_storage"
					}
				],
				"types": {
					"t_array(t_uint256)dyn_storage": {
						"base": "t_uint256",
						"encoding": "dynamic_array",
						"label": "uint256[]",
						"numberOfBytes": "32"
					},
					"t_uint256": {
						"encoding": "inplace",
						"label": "uint256",
						"numberOfBytes": "32"
					}
				}
			},
			"userdoc": {
				"kind": "user",
				"methods": {},
				"version": 1
			}
		}
	}
}