{
	"val78.sol": {
		"SecureBank": {
			"abi": [
				{
					"anonymous": false,
					"inputs": [
						{
							"indexed": false,
							"internalType": "address",
							"name": "attacker",
							"type": "address"
						}
					],
					"name": "AttackBlocked",
					"type": "event"
				},
				{
					"anonymous": false,
					"inputs": [
						{
							"indexed": true,
							"internalType": "address",
							"name": "user",
							"type": "address"
						},
						{
							"indexed": false,
							"internalType": "uint256",
							"name": "amount",
							"type": "uint256"
						}
					],
					"name": "Deposit",
					"type": "event"
				},
				{
					"anonymous": false,
					"inputs": [
						{
							"indexed": true,
							"internalType": "address",
							"name": "user",
							"type": "address"
						},
						{
							"indexed": false,
							"internalType": "uint256",
							"name": "amount",
							"type": "uint256"
						}
					],
					"name": "Withdraw",
					"type": "event"
				},
				{
					"inputs": [
						{
							"internalType": "address",
							"name": "",
							"type": "address"
						}
					],
					"name": "balance",
					"outputs": [
						{
							"internalType": "uint256",
							"name": "",
							"type": "uint256"
						}
					],
					"stateMutability": "view",
					"type": "function"
				},
				{
					"inputs": [],
					"name": "contractBalance",
					"outputs": [
						{
							"internalType": "uint256",
							"name": "",
							"type": "uint256"
						}
					],
					"stateMutability": "view",
					"type": "function"
				},
				{
					"inputs": [],
					"name": "deposit",
					"outputs": [],
					"stateMutability": "payable",
					"type": "function"
				},
				{
					"inputs": [
						{
							"internalType": "address",
							"name": "user",
							"type": "address"
						}
					],
					"name": "getBalance",
					"outputs": [
						{
							"internalType": "uint256",
							"name": "",
							"type": "uint256"
						}
					],
					"stateMutability": "view",
					"type": "function"
				},
				{
					"inputs": [
						{
							"internalType": "uint256",
							"name": "amount",
							"type": "uint256"
						}
					],
					"name": "withdraw",
					"outputs": [],
					"stateMutability": "nonpayable",
					"type": "function"
				}
			],
			"devdoc": {
				"kind": "dev",
				"methods": {},
				"version": 1
			},
			"evm": {
				"assembly": "    /* \"val78.sol\":4168:7587  contract SecureBank {... */\n  mstore(0x40, 0x80)\n  callvalue\n  dup1\n  iszero\n  tag_1\n  jumpi\n  revert(0x00, 0x00)\ntag_1:\n  pop\n  dataSize(sub_0)\n  dup1\n  dataOffset(sub_0)\n  0x00\n  codecopy\n  0x00\n  return\nstop\n\nsub_0: assembly {\n        /* \"val78.sol\":4168:7587  contract SecureBank {... */\n      mstore(0x40, 0x80)\n      jumpi(tag_1, lt(calldatasize, 0x04))\n      shr(0xe0, calldataload(0x00))\n      dup1\n      0x2e1a7d4d\n      eq\n      tag_2\n      jumpi\n      dup1\n      0x8b7afe2e\n      eq\n      tag_3\n      jumpi\n      dup1\n      0xd0e30db0\n      eq\n      tag_4\n      jumpi\n      dup1\n      0xe3d670d7\n      eq\n      tag_5\n      jumpi\n      dup1\n      0xf8b2cb4f\n      eq\n      tag_6\n      jumpi\n    tag_1:\n      revert(0x00, 0x00)\n        /* \"val78.sol\":5765:6956  function withdraw(... */\n    tag_2:\n      callvalue\n      dup1\n      iszero\n      tag_7\n      jumpi\n      revert(0x00, 0x00)\n    tag_7:\n      pop\n      tag_8\n      0x04\n      dup1\n      calldatasize\n      sub\n      dup2\n      add\n      swap1\n      tag_9\n      swap2\n      swap1\n      tag_10\n      jump\t// in\n    tag_9:\n      tag_11\n      jump\t// in\n    tag_8:\n      stop\n        /* \"val78.sol\":7444:7584  function contractBalance()... */\n    tag_3:\n      callvalue\n      dup1\n      iszero\n      tag_12\n      jumpi\n      revert(0x00, 0x00)\n    tag_12:\n      pop\n      tag_13\n      tag_14\n      jump\t// in\n    tag_13:\n      mload(0x40)\n      tag_15\n      swap2\n      swap1\n      tag_16\n      jump\t// in\n    tag_15:\n      mload(0x40)\n      dup1\n      swap2\n      sub\n      swap1\n      return\n        /* \"val78.sol\":5254:5547  function deposit()... */\n    tag_4:\n      tag_17\n      tag_18\n      jump\t// in\n    tag_17:\n      stop\n        /* \"val78.sol\":4236:4278  mapping(address => uint256) public balance */\n    tag_5:\n      callvalue\n      dup1\n      iszero\n      tag_19\n      jumpi\n      revert(0x00, 0x00)\n    tag_19:\n      pop\n      tag_20\n      0x04\n      dup1\n      calldatasize\n      sub\n      dup2\n      add\n      swap1\n      tag_21\n      swap2\n      swap1\n      tag_22\n      jump\t// in\n    tag_21:\n      tag_23\n      jump\t// in\n    tag_20:\n      mload(0x40)\n      tag_24\n      swap2\n      swap1\n      tag_16\n      jump\t// in\n    tag_24:\n      mload(0x40)\n      dup1\n      swap2\n      sub\n      swap1\n      return\n        /* \"val78.sol\":7123:7278  function getBalance(... */\n    tag_6:\n      callvalue\n      dup1\n      iszero\n      tag_25\n      jumpi\n      revert(0x00, 0x00)\n    tag_25:\n      pop\n      tag_26\n      0x04\n      dup1\n      calldatasize\n      sub\n      dup2\n      add\n      swap1\n      tag_27\n      swap2\n      swap1\n      tag_22\n      jump\t// in\n    tag_27:\n      tag_28\n      jump\t// in\n    tag_26:\n      mload(0x40)\n      tag_29\n      swap2\n      swap1\n      tag_16\n      jump\t// in\n    tag_29:\n      mload(0x40)\n      dup1\n      swap2\n      sub\n      swap1\n      return\n        /* \"val78.sol\":5765:6956  function withdraw(... */\n    tag_11:\n        /* \"val78.sol\":4961:4967  locked */\n      0x01\n      0x00\n      swap1\n      sload\n      swap1\n      0x0100\n      exp\n      swap1\n      div\n      0xff\n      and\n        /* \"val78.sol\":4960:4967  !locked */\n      iszero\n        /* \"val78.sol\":4938:5018  require(... */\n      tag_31\n      jumpi\n      mload(0x40)\n      0x08c379a000000000000000000000000000000000000000000000000000000000\n      dup2\n      mstore\n      0x04\n      add\n      tag_32\n      swap1\n      tag_33\n      jump\t// in\n    tag_32:\n      mload(0x40)\n      dup1\n      swap2\n      sub\n      swap1\n      revert\n    tag_31:\n        /* \"val78.sol\":5040:5044  true */\n      0x01\n        /* \"val78.sol\":5031:5037  locked */\n      dup1\n      0x00\n        /* \"val78.sol\":5031:5044  locked = true */\n      0x0100\n      exp\n      dup2\n      sload\n      dup2\n      0xff\n      mul\n      not\n      and\n      swap1\n      dup4\n      iszero\n      iszero\n      mul\n      or\n      swap1\n      sstore\n      pop\n        /* \"val78.sol\":6081:6087  amount */\n      dup1\n        /* \"val78.sol\":6058:6065  balance */\n      0x00\n        /* \"val78.sol\":6058:6077  balance[msg.sender] */\n      0x00\n        /* \"val78.sol\":6066:6076  msg.sender */\n      caller\n        /* \"val78.sol\":6058:6077  balance[msg.sender] */\n      0xffffffffffffffffffffffffffffffffffffffff\n      and\n      0xffffffffffffffffffffffffffffffffffffffff\n      and\n      dup2\n      mstore\n      0x20\n      add\n      swap1\n      dup2\n      mstore\n      0x20\n      add\n      0x00\n      keccak256\n      sload\n        /* \"val78.sol\":6058:6087  balance[msg.sender] >= amount */\n      lt\n      iszero\n        /* \"val78.sol\":6036:6135  require(... */\n      tag_35\n      jumpi\n      mload(0x40)\n      0x08c379a000000000000000000000000000000000000000000000000000000000\n      dup2\n      mstore\n      0x04\n      add\n      tag_36\n      swap1\n      tag_37\n      jump\t// in\n    tag_36:\n      mload(0x40)\n      dup1\n      swap2\n      sub\n      swap1\n      revert\n    tag_35:\n        /* \"val78.sol\":6179:6180  0 */\n      0x00\n        /* \"val78.sol\":6170:6176  amount */\n      dup2\n        /* \"val78.sol\":6170:6180  amount > 0 */\n      gt\n        /* \"val78.sol\":6148:6222  require(... */\n      tag_38\n      jumpi\n      mload(0x40)\n      0x08c379a000000000000000000000000000000000000000000000000000000000\n      dup2\n      mstore\n      0x04\n      add\n      tag_39\n      swap1\n      tag_40\n      jump\t// in\n    tag_39:\n      mload(0x40)\n      dup1\n      swap2\n      sub\n      swap1\n      revert\n    tag_38:\n        /* \"val78.sol\":6485:6491  amount */\n      dup1\n        /* \"val78.sol\":6462:6469  balance */\n      0x00\n        /* \"val78.sol\":6462:6481  balance[msg.sender] */\n      0x00\n        /* \"val78.sol\":6470:6480  msg.sender */\n      caller\n        /* \"val78.sol\":6462:6481  balance[msg.sender] */\n      0xffffffffffffffffffffffffffffffffffffffff\n      and\n      0xffffffffffffffffffffffffffffffffffffffff\n      and\n      dup2\n      mstore\n      0x20\n      add\n      swap1\n      dup2\n      mstore\n      0x20\n      add\n      0x00\n      keccak256\n      0x00\n        /* \"val78.sol\":6462:6491  balance[msg.sender] -= amount */\n      dup3\n      dup3\n      sload\n      tag_41\n      swap2\n      swap1\n      tag_42\n      jump\t// in\n    tag_41:\n      swap3\n      pop\n      pop\n      dup2\n      swap1\n      sstore\n      pop\n        /* \"val78.sol\":6674:6686  bool success */\n      0x00\n        /* \"val78.sol\":6713:6723  msg.sender */\n      caller\n        /* \"val78.sol\":6705:6729  payable(msg.sender).call */\n      0xffffffffffffffffffffffffffffffffffffffff\n      and\n        /* \"val78.sol\":6755:6761  amount */\n      dup3\n        /* \"val78.sol\":6705:6780  payable(msg.sender).call{... */\n      mload(0x40)\n      tag_43\n      swap1\n      tag_44\n      jump\t// in\n    tag_43:\n      0x00\n      mload(0x40)\n      dup1\n      dup4\n      sub\n      dup2\n      dup6\n      dup8\n      gas\n      call\n      swap3\n      pop\n      pop\n      pop\n      returndatasize\n      dup1\n      0x00\n      dup2\n      eq\n      tag_47\n      jumpi\n      mload(0x40)\n      swap2\n      pop\n      and(add(returndatasize, 0x3f), not(0x1f))\n      dup3\n      add\n      0x40\n      mstore\n      returndatasize\n      dup3\n      mstore\n      returndatasize\n      0x00\n      0x20\n      dup5\n      add\n      returndatacopy\n      jump(tag_46)\n    tag_47:\n      0x60\n      swap2\n      pop\n    tag_46:\n      pop\n        /* \"val78.sol\":6673:6780  (bool success, ) =... */\n      pop\n      swap1\n      pop\n        /* \"val78.sol\":6815:6822  success */\n      dup1\n        /* \"val78.sol\":6793:6865  require(... */\n      tag_48\n      jumpi\n      mload(0x40)\n      0x08c379a000000000000000000000000000000000000000000000000000000000\n      dup2\n      mstore\n      0x04\n      add\n      tag_49\n      swap1\n      tag_50\n      jump\t// in\n    tag_49:\n      mload(0x40)\n      dup1\n      swap2\n      sub\n      swap1\n      revert\n    tag_48:\n        /* \"val78.sol\":6906:6916  msg.sender */\n      caller\n        /* \"val78.sol\":6883:6948  Withdraw(... */\n      0xffffffffffffffffffffffffffffffffffffffff\n      and\n      0x884edad9ce6fa2440d8a54cc123490eb96d2768479d49ff9c7366125a9424364\n        /* \"val78.sol\":6931:6937  amount */\n      dup4\n        /* \"val78.sol\":6883:6948  Withdraw(... */\n      mload(0x40)\n      tag_51\n      swap2\n      swap1\n      tag_16\n      jump\t// in\n    tag_51:\n      mload(0x40)\n      dup1\n      swap2\n      sub\n      swap1\n      log2\n        /* \"val78.sol\":5860:6956  {... */\n      pop\n        /* \"val78.sol\":5080:5085  false */\n      0x00\n        /* \"val78.sol\":5071:5077  locked */\n      0x01\n      0x00\n        /* \"val78.sol\":5071:5085  locked = false */\n      0x0100\n      exp\n      dup2\n      sload\n      dup2\n      0xff\n      mul\n      not\n      and\n      swap1\n      dup4\n      iszero\n      iszero\n      mul\n      or\n      swap1\n      sstore\n      pop\n        /* \"val78.sol\":5765:6956  function withdraw(... */\n      pop\n      jump\t// out\n        /* \"val78.sol\":7444:7584  function contractBalance()... */\n    tag_14:\n        /* \"val78.sol\":7521:7528  uint256 */\n      0x00\n        /* \"val78.sol\":7555:7576  address(this).balance */\n      selfbalance\n        /* \"val78.sol\":7548:7576  return address(this).balance */\n      swap1\n      pop\n        /* \"val78.sol\":7444:7584  function contractBalance()... */\n      swap1\n      jump\t// out\n        /* \"val78.sol\":5254:5547  function deposit()... */\n    tag_18:\n        /* \"val78.sol\":5360:5361  0 */\n      0x00\n        /* \"val78.sol\":5348:5357  msg.value */\n      callvalue\n        /* \"val78.sol\":5348:5361  msg.value > 0 */\n      gt\n        /* \"val78.sol\":5326:5409  require(... */\n      tag_54\n      jumpi\n      mload(0x40)\n      0x08c379a000000000000000000000000000000000000000000000000000000000\n      dup2\n      mstore\n      0x04\n      add\n      tag_55\n      swap1\n      tag_56\n      jump\t// in\n    tag_55:\n      mload(0x40)\n      dup1\n      swap2\n      sub\n      swap1\n      revert\n    tag_54:\n        /* \"val78.sol\":5445:5454  msg.value */\n      callvalue\n        /* \"val78.sol\":5422:5429  balance */\n      0x00\n        /* \"val78.sol\":5422:5441  balance[msg.sender] */\n      0x00\n        /* \"val78.sol\":5430:5440  msg.sender */\n      caller\n        /* \"val78.sol\":5422:5441  balance[msg.sender] */\n      0xffffffffffffffffffffffffffffffffffffffff\n      and\n      0xffffffffffffffffffffffffffffffffffffffff\n      and\n      dup2\n      mstore\n      0x20\n      add\n      swap1\n      dup2\n      mstore\n      0x20\n      add\n      0x00\n      keccak256\n      0x00\n        /* \"val78.sol\":5422:5454  balance[msg.sender] += msg.value */\n      dup3\n      dup3\n      sload\n      tag_57\n      swap2\n      swap1\n      tag_58\n      jump\t// in\n    tag_57:\n      swap3\n      pop\n      pop\n      dup2\n      swap1\n      sstore\n      pop\n        /* \"val78.sol\":5494:5504  msg.sender */\n      caller\n        /* \"val78.sol\":5472:5539  Deposit(... */\n      0xffffffffffffffffffffffffffffffffffffffff\n      and\n      0xe1fffcc4923d04b559f4d29a8bfc6cda04eb5b0d3c460751c2402c5c5cc9109c\n        /* \"val78.sol\":5519:5528  msg.value */\n      callvalue\n        /* \"val78.sol\":5472:5539  Deposit(... */\n      mload(0x40)\n      tag_59\n      swap2\n      swap1\n      tag_16\n      jump\t// in\n    tag_59:\n      mload(0x40)\n      dup1\n      swap2\n      sub\n      swap1\n      log2\n        /* \"val78.sol\":5254:5547  function deposit()... */\n      jump\t// out\n        /* \"val78.sol\":4236:4278  mapping(address => uint256) public balance */\n    tag_23:\n      mstore(0x20, 0x00)\n      dup1\n      0x00\n      mstore\n      keccak256(0x00, 0x40)\n      0x00\n      swap2\n      pop\n      swap1\n      pop\n      sload\n      dup2\n      jump\t// out\n        /* \"val78.sol\":7123:7278  function getBalance(... */\n    tag_28:\n        /* \"val78.sol\":7223:7230  uint256 */\n      0x00\n        /* \"val78.sol\":7257:7264  balance */\n      0x00\n        /* \"val78.sol\":7257:7270  balance[user] */\n      0x00\n        /* \"val78.sol\":7265:7269  user */\n      dup4\n        /* \"val78.sol\":7257:7270  balance[user] */\n      0xffffffffffffffffffffffffffffffffffffffff\n      and\n      0xffffffffffffffffffffffffffffffffffffffff\n      and\n      dup2\n      mstore\n      0x20\n      add\n      swap1\n      dup2\n      mstore\n      0x20\n      add\n      0x00\n      keccak256\n      sload\n        /* \"val78.sol\":7250:7270  return balance[user] */\n      swap1\n      pop\n        /* \"val78.sol\":7123:7278  function getBalance(... */\n      swap2\n      swap1\n      pop\n      jump\t// out\n        /* \"#utility.yul\":88:205   */\n    tag_62:\n        /* \"#utility.yul\":197:198   */\n      0x00\n        /* \"#utility.yul\":194:195   */\n      0x00\n        /* \"#utility.yul\":187:199   */\n      revert\n        /* \"#utility.yul\":334:411   */\n    tag_64:\n        /* \"#utility.yul\":371:378   */\n      0x00\n        /* \"#utility.yul\":400:405   */\n      dup2\n        /* \"#utility.yul\":389:405   */\n      swap1\n      pop\n        /* \"#utility.yul\":334:411   */\n      swap2\n      swap1\n      pop\n      jump\t// out\n        /* \"#utility.yul\":417:539   */\n    tag_65:\n        /* \"#utility.yul\":490:514   */\n      tag_93\n        /* \"#utility.yul\":508:513   */\n      dup2\n        /* \"#utility.yul\":490:514   */\n      tag_64\n      jump\t// in\n    tag_93:\n        /* \"#utility.yul\":483:488   */\n      dup2\n        /* \"#utility.yul\":480:515   */\n      eq\n        /* \"#utility.yul\":470:533   */\n      tag_94\n      jumpi\n        /* \"#utility.yul\":529:530   */\n      0x00\n        /* \"#utility.yul\":526:527   */\n      0x00\n        /* \"#utility.yul\":519:531   */\n      revert\n        /* \"#utility.yul\":470:533   */\n    tag_94:\n        /* \"#utility.yul\":417:539   */\n      pop\n      jump\t// out\n        /* \"#utility.yul\":545:684   */\n    tag_66:\n        /* \"#utility.yul\":591:596   */\n      0x00\n        /* \"#utility.yul\":629:635   */\n      dup2\n        /* \"#utility.yul\":616:636   */\n      calldataload\n        /* \"#utility.yul\":607:636   */\n      swap1\n      pop\n        /* \"#utility.yul\":645:678   */\n      tag_96\n        /* \"#utility.yul\":672:677   */\n      dup2\n        /* \"#utility.yul\":645:678   */\n      tag_65\n      jump\t// in\n    tag_96:\n        /* \"#utility.yul\":545:684   */\n      swap3\n      swap2\n      pop\n      pop\n      jump\t// out\n        /* \"#utility.yul\":690:1019   */\n    tag_10:\n        /* \"#utility.yul\":749:755   */\n      0x00\n        /* \"#utility.yul\":798:800   */\n      0x20\n        /* \"#utility.yul\":786:795   */\n      dup3\n        /* \"#utility.yul\":777:784   */\n      dup5\n        /* \"#utility.yul\":773:796   */\n      sub\n        /* \"#utility.yul\":769:801   */\n      slt\n        /* \"#utility.yul\":766:885   */\n      iszero\n      tag_98\n      jumpi\n        /* \"#utility.yul\":804:883   */\n      tag_99\n      tag_62\n      jump\t// in\n    tag_99:\n        /* \"#utility.yul\":766:885   */\n    tag_98:\n        /* \"#utility.yul\":924:925   */\n      0x00\n        /* \"#utility.yul\":949:1002   */\n      tag_100\n        /* \"#utility.yul\":994:1001   */\n      dup5\n        /* \"#utility.yul\":985:991   */\n      dup3\n        /* \"#utility.yul\":974:983   */\n      dup6\n        /* \"#utility.yul\":970:992   */\n      add\n        /* \"#utility.yul\":949:1002   */\n      tag_66\n      jump\t// in\n    tag_100:\n        /* \"#utility.yul\":939:1002   */\n      swap2\n      pop\n        /* \"#utility.yul\":895:1012   */\n      pop\n        /* \"#utility.yul\":690:1019   */\n      swap3\n      swap2\n      pop\n      pop\n      jump\t// out\n        /* \"#utility.yul\":1025:1143   */\n    tag_67:\n        /* \"#utility.yul\":1112:1136   */\n      tag_102\n        /* \"#utility.yul\":1130:1135   */\n      dup2\n        /* \"#utility.yul\":1112:1136   */\n      tag_64\n      jump\t// in\n    tag_102:\n        /* \"#utility.yul\":1107:1110   */\n      dup3\n        /* \"#utility.yul\":1100:1137   */\n      mstore\n        /* \"#utility.yul\":1025:1143   */\n      pop\n      pop\n      jump\t// out\n        /* \"#utility.yul\":1149:1371   */\n    tag_16:\n        /* \"#utility.yul\":1242:1246   */\n      0x00\n        /* \"#utility.yul\":1280:1282   */\n      0x20\n        /* \"#utility.yul\":1269:1278   */\n      dup3\n        /* \"#utility.yul\":1265:1283   */\n      add\n        /* \"#utility.yul\":1257:1283   */\n      swap1\n      pop\n        /* \"#utility.yul\":1293:1364   */\n      tag_104\n        /* \"#utility.yul\":1361:1362   */\n      0x00\n        /* \"#utility.yul\":1350:1359   */\n      dup4\n        /* \"#utility.yul\":1346:1363   */\n      add\n        /* \"#utility.yul\":1337:1343   */\n      dup5\n        /* \"#utility.yul\":1293:1364   */\n      tag_67\n      jump\t// in\n    tag_104:\n        /* \"#utility.yul\":1149:1371   */\n      swap3\n      swap2\n      pop\n      pop\n      jump\t// out\n        /* \"#utility.yul\":1377:1503   */\n    tag_68:\n        /* \"#utility.yul\":1414:1421   */\n      0x00\n        /* \"#utility.yul\":1454:1496   */\n      0xffffffffffffffffffffffffffffffffffffffff\n        /* \"#utility.yul\":1447:1452   */\n      dup3\n        /* \"#utility.yul\":1443:1497   */\n      and\n        /* \"#utility.yul\":1432:1497   */\n      swap1\n      pop\n        /* \"#utility.yul\":1377:1503   */\n      swap2\n      swap1\n      pop\n      jump\t// out\n        /* \"#utility.yul\":1509:1605   */\n    tag_69:\n        /* \"#utility.yul\":1546:1553   */\n      0x00\n        /* \"#utility.yul\":1575:1599   */\n      tag_107\n        /* \"#utility.yul\":1593:1598   */\n      dup3\n        /* \"#utility.yul\":1575:1599   */\n      tag_68\n      jump\t// in\n    tag_107:\n        /* \"#utility.yul\":1564:1599   */\n      swap1\n      pop\n        /* \"#utility.yul\":1509:1605   */\n      swap2\n      swap1\n      pop\n      jump\t// out\n        /* \"#utility.yul\":1611:1733   */\n    tag_70:\n        /* \"#utility.yul\":1684:1708   */\n      tag_109\n        /* \"#utility.yul\":1702:1707   */\n      dup2\n        /* \"#utility.yul\":1684:1708   */\n      tag_69\n      jump\t// in\n    tag_109:\n        /* \"#utility.yul\":1677:1682   */\n      dup2\n        /* \"#utility.yul\":1674:1709   */\n      eq\n        /* \"#utility.yul\":1664:1727   */\n      tag_110\n      jumpi\n        /* \"#utility.yul\":1723:1724   */\n      0x00\n        /* \"#utility.yul\":1720:1721   */\n      0x00\n        /* \"#utility.yul\":1713:1725   */\n      revert\n        /* \"#utility.yul\":1664:1727   */\n    tag_110:\n        /* \"#utility.yul\":1611:1733   */\n      pop\n      jump\t// out\n        /* \"#utility.yul\":1739:1878   */\n    tag_71:\n        /* \"#utility.yul\":1785:1790   */\n      0x00\n        /* \"#utility.yul\":1823:1829   */\n      dup2\n        /* \"#utility.yul\":1810:1830   */\n      calldataload\n        /* \"#utility.yul\":1801:1830   */\n      swap1\n      pop\n        /* \"#utility.yul\":1839:1872   */\n      tag_112\n        /* \"#utility.yul\":1866:1871   */\n      dup2\n        /* \"#utility.yul\":1839:1872   */\n      tag_70\n      jump\t// in\n    tag_112:\n        /* \"#utility.yul\":1739:1878   */\n      swap3\n      swap2\n      pop\n      pop\n      jump\t// out\n        /* \"#utility.yul\":1884:2213   */\n    tag_22:\n        /* \"#utility.yul\":1943:1949   */\n      0x00\n        /* \"#utility.yul\":1992:1994   */\n      0x20\n        /* \"#utility.yul\":1980:1989   */\n      dup3\n        /* \"#utility.yul\":1971:1978   */\n      dup5\n        /* \"#utility.yul\":1967:1990   */\n      sub\n        /* \"#utility.yul\":1963:1995   */\n      slt\n        /* \"#utility.yul\":1960:2079   */\n      iszero\n      tag_114\n      jumpi\n        /* \"#utility.yul\":1998:2077   */\n      tag_115\n      tag_62\n      jump\t// in\n    tag_115:\n        /* \"#utility.yul\":1960:2079   */\n    tag_114:\n        /* \"#utility.yul\":2118:2119   */\n      0x00\n        /* \"#utility.yul\":2143:2196   */\n      tag_116\n        /* \"#utility.yul\":2188:2195   */\n      dup5\n        /* \"#utility.yul\":2179:2185   */\n      dup3\n        /* \"#utility.yul\":2168:2177   */\n      dup6\n        /* \"#utility.yul\":2164:2186   */\n      add\n        /* \"#utility.yul\":2143:2196   */\n      tag_71\n      jump\t// in\n    tag_116:\n        /* \"#utility.yul\":2133:2196   */\n      swap2\n      pop\n        /* \"#utility.yul\":2089:2206   */\n      pop\n        /* \"#utility.yul\":1884:2213   */\n      swap3\n      swap2\n      pop\n      pop\n      jump\t// out\n        /* \"#utility.yul\":2219:2388   */\n    tag_72:\n        /* \"#utility.yul\":2303:2314   */\n      0x00\n        /* \"#utility.yul\":2337:2343   */\n      dup3\n        /* \"#utility.yul\":2332:2335   */\n      dup3\n        /* \"#utility.yul\":2325:2344   */\n      mstore\n        /* \"#utility.yul\":2377:2381   */\n      0x20\n        /* \"#utility.yul\":2372:2375   */\n      dup3\n        /* \"#utility.yul\":2368:2382   */\n      add\n        /* \"#utility.yul\":2353:2382   */\n      swap1\n      pop\n        /* \"#utility.yul\":2219:2388   */\n      swap3\n      swap2\n      pop\n      pop\n      jump\t// out\n        /* \"#utility.yul\":2394:2567   */\n    tag_73:\n        /* \"#utility.yul\":2534:2559   */\n      0x5265656e7472616e742063616c6c206465746563746564000000000000000000\n        /* \"#utility.yul\":2530:2531   */\n      0x00\n        /* \"#utility.yul\":2522:2528   */\n      dup3\n        /* \"#utility.yul\":2518:2532   */\n      add\n        /* \"#utility.yul\":2511:2560   */\n      mstore\n        /* \"#utility.yul\":2394:2567   */\n      pop\n      jump\t// out\n        /* \"#utility.yul\":2573:2939   */\n    tag_74:\n        /* \"#utility.yul\":2715:2718   */\n      0x00\n        /* \"#utility.yul\":2736:2803   */\n      tag_120\n        /* \"#utility.yul\":2800:2802   */\n      0x17\n        /* \"#utility.yul\":2795:2798   */\n      dup4\n        /* \"#utility.yul\":2736:2803   */\n      tag_72\n      jump\t// in\n    tag_120:\n        /* \"#utility.yul\":2729:2803   */\n      swap2\n      pop\n        /* \"#utility.yul\":2812:2905   */\n      tag_121\n        /* \"#utility.yul\":2901:2904   */\n      dup3\n        /* \"#utility.yul\":2812:2905   */\n      tag_73\n      jump\t// in\n    tag_121:\n        /* \"#utility.yul\":2930:2932   */\n      0x20\n        /* \"#utility.yul\":2925:2928   */\n      dup3\n        /* \"#utility.yul\":2921:2933   */\n      add\n        /* \"#utility.yul\":2914:2933   */\n      swap1\n      pop\n        /* \"#utility.yul\":2573:2939   */\n      swap2\n      swap1\n      pop\n      jump\t// out\n        /* \"#utility.yul\":2945:3364   */\n    tag_33:\n        /* \"#utility.yul\":3111:3115   */\n      0x00\n        /* \"#utility.yul\":3149:3151   */\n      0x20\n        /* \"#utility.yul\":3138:3147   */\n      dup3\n        /* \"#utility.yul\":3134:3152   */\n      add\n        /* \"#utility.yul\":3126:3152   */\n      swap1\n      pop\n        /* \"#utility.yul\":3198:3207   */\n      dup2\n        /* \"#utility.yul\":3192:3196   */\n      dup2\n        /* \"#utility.yul\":3188:3208   */\n      sub\n        /* \"#utility.yul\":3184:3185   */\n      0x00\n        /* \"#utility.yul\":3173:3182   */\n      dup4\n        /* \"#utility.yul\":3169:3186   */\n      add\n        /* \"#utility.yul\":3162:3209   */\n      mstore\n        /* \"#utility.yul\":3226:3357   */\n      tag_123\n        /* \"#utility.yul\":3352:3356   */\n      dup2\n        /* \"#utility.yul\":3226:3357   */\n      tag_74\n      jump\t// in\n    tag_123:\n        /* \"#utility.yul\":3218:3357   */\n      swap1\n      pop\n        /* \"#utility.yul\":2945:3364   */\n      swap2\n      swap1\n      pop\n      jump\t// out\n        /* \"#utility.yul\":3370:3540   */\n    tag_75:\n        /* \"#utility.yul\":3510:3532   */\n      0x496e73756666696369656e742062616c616e6365000000000000000000000000\n        /* \"#utility.yul\":3506:3507   */\n      0x00\n        /* \"#utility.yul\":3498:3504   */\n      dup3\n        /* \"#utility.yul\":3494:3508   */\n      add\n        /* \"#utility.yul\":3487:3533   */\n      mstore\n        /* \"#utility.yul\":3370:3540   */\n      pop\n      jump\t// out\n        /* \"#utility.yul\":3546:3912   */\n    tag_76:\n        /* \"#utility.yul\":3688:3691   */\n      0x00\n        /* \"#utility.yul\":3709:3776   */\n      tag_126\n        /* \"#utility.yul\":3773:3775   */\n      0x14\n        /* \"#utility.yul\":3768:3771   */\n      dup4\n        /* \"#utility.yul\":3709:3776   */\n      tag_72\n      jump\t// in\n    tag_126:\n        /* \"#utility.yul\":3702:3776   */\n      swap2\n      pop\n        /* \"#utility.yul\":3785:3878   */\n      tag_127\n        /* \"#utility.yul\":3874:3877   */\n      dup3\n        /* \"#utility.yul\":3785:3878   */\n      tag_75\n      jump\t// in\n    tag_127:\n        /* \"#utility.yul\":3903:3905   */\n      0x20\n        /* \"#utility.yul\":3898:3901   */\n      dup3\n        /* \"#utility.yul\":3894:3906   */\n      add\n        /* \"#utility.yul\":3887:3906   */\n      swap1\n      pop\n        /* \"#utility.yul\":3546:3912   */\n      swap2\n      swap1\n      pop\n      jump\t// out\n        /* \"#utility.yul\":3918:4337   */\n    tag_37:\n        /* \"#utility.yul\":4084:4088   */\n      0x00\n        /* \"#utility.yul\":4122:4124   */\n      0x20\n        /* \"#utility.yul\":4111:4120   */\n      dup3\n        /* \"#utility.yul\":4107:4125   */\n      add\n        /* \"#utility.yul\":4099:4125   */\n      swap1\n      pop\n        /* \"#utility.yul\":4171:4180   */\n      dup2\n        /* \"#utility.yul\":4165:4169   */\n      dup2\n        /* \"#utility.yul\":4161:4181   */\n      sub\n        /* \"#utility.yul\":4157:4158   */\n      0x00\n        /* \"#utility.yul\":4146:4155   */\n      dup4\n        /* \"#utility.yul\":4142:4159   */\n      add\n        /* \"#utility.yul\":4135:4182   */\n      mstore\n        /* \"#utility.yul\":4199:4330   */\n      tag_129\n        /* \"#utility.yul\":4325:4329   */\n      dup2\n        /* \"#utility.yul\":4199:4330   */\n      tag_76\n      jump\t// in\n    tag_129:\n        /* \"#utility.yul\":4191:4330   */\n      swap1\n      pop\n        /* \"#utility.yul\":3918:4337   */\n      swap2\n      swap1\n      pop\n      jump\t// out\n        /* \"#utility.yul\":4343:4507   */\n    tag_77:\n        /* \"#utility.yul\":4483:4499   */\n      0x496e76616c696420616d6f756e74000000000000000000000000000000000000\n        /* \"#utility.yul\":4479:4480   */\n      0x00\n        /* \"#utility.yul\":4471:4477   */\n      dup3\n        /* \"#utility.yul\":4467:4481   */\n      add\n        /* \"#utility.yul\":4460:4500   */\n      mstore\n        /* \"#utility.yul\":4343:4507   */\n      pop\n      jump\t// out\n        /* \"#utility.yul\":4513:4879   */\n    tag_78:\n        /* \"#utility.yul\":4655:4658   */\n      0x00\n        /* \"#utility.yul\":4676:4743   */\n      tag_132\n        /* \"#utility.yul\":4740:4742   */\n      0x0e\n        /* \"#utility.yul\":4735:4738   */\n      dup4\n        /* \"#utility.yul\":4676:4743   */\n      tag_72\n      jump\t// in\n    tag_132:\n        /* \"#utility.yul\":4669:4743   */\n      swap2\n      pop\n        /* \"#utility.yul\":4752:4845   */\n      tag_133\n        /* \"#utility.yul\":4841:4844   */\n      dup3\n        /* \"#utility.yul\":4752:4845   */\n      tag_77\n      jump\t// in\n    tag_133:\n        /* \"#utility.yul\":4870:4872   */\n      0x20\n        /* \"#utility.yul\":4865:4868   */\n      dup3\n        /* \"#utility.yul\":4861:4873   */\n      add\n        /* \"#utility.yul\":4854:4873   */\n      swap1\n      pop\n        /* \"#utility.yul\":4513:4879   */\n      swap2\n      swap1\n      pop\n      jump\t// out\n        /* \"#utility.yul\":4885:5304   */\n    tag_40:\n        /* \"#utility.yul\":5051:5055   */\n      0x00\n        /* \"#utility.yul\":5089:5091   */\n      0x20\n        /* \"#utility.yul\":5078:5087   */\n      dup3\n        /* \"#utility.yul\":5074:5092   */\n      add\n        /* \"#utility.yul\":5066:5092   */\n      swap1\n      pop\n        /* \"#utility.yul\":5138:5147   */\n      dup2\n        /* \"#utility.yul\":5132:5136   */\n      dup2\n        /* \"#utility.yul\":5128:5148   */\n      sub\n        /* \"#utility.yul\":5124:5125   */\n      0x00\n        /* \"#utility.yul\":5113:5122   */\n      dup4\n        /* \"#utility.yul\":5109:5126   */\n      add\n        /* \"#utility.yul\":5102:5149   */\n      mstore\n        /* \"#utility.yul\":5166:5297   */\n      tag_135\n        /* \"#utility.yul\":5292:5296   */\n      dup2\n        /* \"#utility.yul\":5166:5297   */\n      tag_78\n      jump\t// in\n    tag_135:\n        /* \"#utility.yul\":5158:5297   */\n      swap1\n      pop\n        /* \"#utility.yul\":4885:5304   */\n      swap2\n      swap1\n      pop\n      jump\t// out\n        /* \"#utility.yul\":5310:5490   */\n    tag_79:\n        /* \"#utility.yul\":5358:5435   */\n      0x4e487b7100000000000000000000000000000000000000000000000000000000\n        /* \"#utility.yul\":5355:5356   */\n      0x00\n        /* \"#utility.yul\":5348:5436   */\n      mstore\n        /* \"#utility.yul\":5455:5459   */\n      0x11\n        /* \"#utility.yul\":5452:5453   */\n      0x04\n        /* \"#utility.yul\":5445:5460   */\n      mstore\n        /* \"#utility.yul\":5479:5483   */\n      0x24\n        /* \"#utility.yul\":5476:5477   */\n      0x00\n        /* \"#utility.yul\":5469:5484   */\n      revert\n        /* \"#utility.yul\":5496:5690   */\n    tag_42:\n        /* \"#utility.yul\":5536:5540   */\n      0x00\n        /* \"#utility.yul\":5556:5576   */\n      tag_138\n        /* \"#utility.yul\":5574:5575   */\n      dup3\n        /* \"#utility.yul\":5556:5576   */\n      tag_64\n      jump\t// in\n    tag_138:\n        /* \"#utility.yul\":5551:5576   */\n      swap2\n      pop\n        /* \"#utility.yul\":5590:5610   */\n      tag_139\n        /* \"#utility.yul\":5608:5609   */\n      dup4\n        /* \"#utility.yul\":5590:5610   */\n      tag_64\n      jump\t// in\n    tag_139:\n        /* \"#utility.yul\":5585:5610   */\n      swap3\n      pop\n        /* \"#utility.yul\":5634:5635   */\n      dup3\n        /* \"#utility.yul\":5631:5632   */\n      dup3\n        /* \"#utility.yul\":5627:5636   */\n      sub\n        /* \"#utility.yul\":5619:5636   */\n      swap1\n      pop\n        /* \"#utility.yul\":5658:5659   */\n      dup2\n        /* \"#utility.yul\":5652:5656   */\n      dup2\n        /* \"#utility.yul\":5649:5660   */\n      gt\n        /* \"#utility.yul\":5646:5683   */\n      iszero\n      tag_140\n      jumpi\n        /* \"#utility.yul\":5663:5681   */\n      tag_141\n      tag_79\n      jump\t// in\n    tag_141:\n        /* \"#utility.yul\":5646:5683   */\n    tag_140:\n        /* \"#utility.yul\":5496:5690   */\n      swap3\n      swap2\n      pop\n      pop\n      jump\t// out\n        /* \"#utility.yul\":5696:5843   */\n    tag_80:\n        /* \"#utility.yul\":5797:5808   */\n      0x00\n        /* \"#utility.yul\":5834:5837   */\n      dup2\n        /* \"#utility.yul\":5819:5837   */\n      swap1\n      pop\n        /* \"#utility.yul\":5696:5843   */\n      swap3\n      swap2\n      pop\n      pop\n      jump\t// out\n        /* \"#utility.yul\":5849:5963   */\n    tag_81:\n      pop\n      jump\t// out\n        /* \"#utility.yul\":5969:6367   */\n    tag_82:\n        /* \"#utility.yul\":6128:6131   */\n      0x00\n        /* \"#utility.yul\":6149:6232   */\n      tag_145\n        /* \"#utility.yul\":6230:6231   */\n      0x00\n        /* \"#utility.yul\":6225:6228   */\n      dup4\n        /* \"#utility.yul\":6149:6232   */\n      tag_80\n      jump\t// in\n    tag_145:\n        /* \"#utility.yul\":6142:6232   */\n      swap2\n      pop\n        /* \"#utility.yul\":6241:6334   */\n      tag_146\n        /* \"#utility.yul\":6330:6333   */\n      dup3\n        /* \"#utility.yul\":6241:6334   */\n      tag_81\n      jump\t// in\n    tag_146:\n        /* \"#utility.yul\":6359:6360   */\n      0x00\n        /* \"#utility.yul\":6354:6357   */\n      dup3\n        /* \"#utility.yul\":6350:6361   */\n      add\n        /* \"#utility.yul\":6343:6361   */\n      swap1\n      pop\n        /* \"#utility.yul\":5969:6367   */\n      swap2\n      swap1\n      pop\n      jump\t// out\n        /* \"#utility.yul\":6373:6752   */\n    tag_44:\n        /* \"#utility.yul\":6557:6560   */\n      0x00\n        /* \"#utility.yul\":6579:6726   */\n      tag_148\n        /* \"#utility.yul\":6722:6725   */\n      dup3\n        /* \"#utility.yul\":6579:6726   */\n      tag_82\n      jump\t// in\n    tag_148:\n        /* \"#utility.yul\":6572:6726   */\n      swap2\n      pop\n        /* \"#utility.yul\":6743:6746   */\n      dup2\n        /* \"#utility.yul\":6736:6746   */\n      swap1\n      pop\n        /* \"#utility.yul\":6373:6752   */\n      swap2\n      swap1\n      pop\n      jump\t// out\n        /* \"#utility.yul\":6758:6923   */\n    tag_83:\n        /* \"#utility.yul\":6898:6915   */\n      0x5472616e73666572206661696c65640000000000000000000000000000000000\n        /* \"#utility.yul\":6894:6895   */\n      0x00\n        /* \"#utility.yul\":6886:6892   */\n      dup3\n        /* \"#utility.yul\":6882:6896   */\n      add\n        /* \"#utility.yul\":6875:6916   */\n      mstore\n        /* \"#utility.yul\":6758:6923   */\n      pop\n      jump\t// out\n        /* \"#utility.yul\":6929:7295   */\n    tag_84:\n        /* \"#utility.yul\":7071:7074   */\n      0x00\n        /* \"#utility.yul\":7092:7159   */\n      tag_151\n        /* \"#utility.yul\":7156:7158   */\n      0x0f\n        /* \"#utility.yul\":7151:7154   */\n      dup4\n        /* \"#utility.yul\":7092:7159   */\n      tag_72\n      jump\t// in\n    tag_151:\n        /* \"#utility.yul\":7085:7159   */\n      swap2\n      pop\n        /* \"#utility.yul\":7168:7261   */\n      tag_152\n        /* \"#utility.yul\":7257:7260   */\n      dup3\n        /* \"#utility.yul\":7168:7261   */\n      tag_83\n      jump\t// in\n    tag_152:\n        /* \"#utility.yul\":7286:7288   */\n      0x20\n        /* \"#utility.yul\":7281:7284   */\n      dup3\n        /* \"#utility.yul\":7277:7289   */\n      add\n        /* \"#utility.yul\":7270:7289   */\n      swap1\n      pop\n        /* \"#utility.yul\":6929:7295   */\n      swap2\n      swap1\n      pop\n      jump\t// out\n        /* \"#utility.yul\":7301:7720   */\n    tag_50:\n        /* \"#utility.yul\":7467:7471   */\n      0x00\n        /* \"#utility.yul\":7505:7507   */\n      0x20\n        /* \"#utility.yul\":7494:7503   */\n      dup3\n        /* \"#utility.yul\":7490:7508   */\n      add\n        /* \"#utility.yul\":7482:7508   */\n      swap1\n      pop\n        /* \"#utility.yul\":7554:7563   */\n      dup2\n        /* \"#utility.yul\":7548:7552   */\n      dup2\n        /* \"#utility.yul\":7544:7564   */\n      sub\n        /* \"#utility.yul\":7540:7541   */\n      0x00\n        /* \"#utility.yul\":7529:7538   */\n      dup4\n        /* \"#utility.yul\":7525:7542   */\n      add\n        /* \"#utility.yul\":7518:7565   */\n      mstore\n        /* \"#utility.yul\":7582:7713   */\n      tag_154\n        /* \"#utility.yul\":7708:7712   */\n      dup2\n        /* \"#utility.yul\":7582:7713   */\n      tag_84\n      jump\t// in\n    tag_154:\n        /* \"#utility.yul\":7574:7713   */\n      swap1\n      pop\n        /* \"#utility.yul\":7301:7720   */\n      swap2\n      swap1\n      pop\n      jump\t// out\n        /* \"#utility.yul\":7726:7896   */\n    tag_85:\n        /* \"#utility.yul\":7866:7888   */\n      0x5a65726f20455448206e6f7420616c6c6f776564000000000000000000000000\n        /* \"#utility.yul\":7862:7863   */\n      0x00\n        /* \"#utility.yul\":7854:7860   */\n      dup3\n        /* \"#utility.yul\":7850:7864   */\n      add\n        /* \"#utility.yul\":7843:7889   */\n      mstore\n        /* \"#utility.yul\":7726:7896   */\n      pop\n      jump\t// out\n        /* \"#utility.yul\":7902:8268   */\n    tag_86:\n        /* \"#utility.yul\":8044:8047   */\n      0x00\n        /* \"#utility.yul\":8065:8132   */\n      tag_157\n        /* \"#utility.yul\":8129:8131   */\n      0x14\n        /* \"#utility.yul\":8124:8127   */\n      dup4\n        /* \"#utility.yul\":8065:8132   */\n      tag_72\n      jump\t// in\n    tag_157:\n        /* \"#utility.yul\":8058:8132   */\n      swap2\n      pop\n        /* \"#utility.yul\":8141:8234   */\n      tag_158\n        /* \"#utility.yul\":8230:8233   */\n      dup3\n        /* \"#utility.yul\":8141:8234   */\n      tag_85\n      jump\t// in\n    tag_158:\n        /* \"#utility.yul\":8259:8261   */\n      0x20\n        /* \"#utility.yul\":8254:8257   */\n      dup3\n        /* \"#utility.yul\":8250:8262   */\n      add\n        /* \"#utility.yul\":8243:8262   */\n      swap1\n      pop\n        /* \"#utility.yul\":7902:8268   */\n      swap2\n      swap1\n      pop\n      jump\t// out\n        /* \"#utility.yul\":8274:8693   */\n    tag_56:\n        /* \"#utility.yul\":8440:8444   */\n      0x00\n        /* \"#utility.yul\":8478:8480   */\n      0x20\n        /* \"#utility.yul\":8467:8476   */\n      dup3\n        /* \"#utility.yul\":8463:8481   */\n      add\n        /* \"#utility.yul\":8455:8481   */\n      swap1\n      pop\n        /* \"#utility.yul\":8527:8536   */\n      dup2\n        /* \"#utility.yul\":8521:8525   */\n      dup2\n        /* \"#utility.yul\":8517:8537   */\n      sub\n        /* \"#utility.yul\":8513:8514   */\n      0x00\n        /* \"#utility.yul\":8502:8511   */\n      dup4\n        /* \"#utility.yul\":8498:8515   */\n      add\n        /* \"#utility.yul\":8491:8538   */\n      mstore\n        /* \"#utility.yul\":8555:8686   */\n      tag_160\n        /* \"#utility.yul\":8681:8685   */\n      dup2\n        /* \"#utility.yul\":8555:8686   */\n      tag_86\n      jump\t// in\n    tag_160:\n        /* \"#utility.yul\":8547:8686   */\n      swap1\n      pop\n        /* \"#utility.yul\":8274:8693   */\n      swap2\n      swap1\n      pop\n      jump\t// out\n        /* \"#utility.yul\":8699:8890   */\n    tag_58:\n        /* \"#utility.yul\":8739:8742   */\n      0x00\n        /* \"#utility.yul\":8758:8778   */\n      tag_162\n        /* \"#utility.yul\":8776:8777   */\n      dup3\n        /* \"#utility.yul\":8758:8778   */\n      tag_64\n      jump\t// in\n    tag_162:\n        /* \"#utility.yul\":8753:8778   */\n      swap2\n      pop\n        /* \"#utility.yul\":8792:8812   */\n      tag_163\n        /* \"#utility.yul\":8810:8811   */\n      dup4\n        /* \"#utility.yul\":8792:8812   */\n      tag_64\n      jump\t// in\n    tag_163:\n        /* \"#utility.yul\":8787:8812   */\n      swap3\n      pop\n        /* \"#utility.yul\":8835:8836   */\n      dup3\n        /* \"#utility.yul\":8832:8833   */\n      dup3\n        /* \"#utility.yul\":8828:8837   */\n      add\n        /* \"#utility.yul\":8821:8837   */\n      swap1\n      pop\n        /* \"#utility.yul\":8856:8859   */\n      dup1\n        /* \"#utility.yul\":8853:8854   */\n      dup3\n        /* \"#utility.yul\":8850:8860   */\n      gt\n        /* \"#utility.yul\":8847:8883   */\n      iszero\n      tag_164\n      jumpi\n        /* \"#utility.yul\":8863:8881   */\n      tag_165\n      tag_79\n      jump\t// in\n    tag_165:\n        /* \"#utility.yul\":8847:8883   */\n    tag_164:\n        /* \"#utility.yul\":8699:8890   */\n      swap3\n      swap2\n      pop\n      pop\n      jump\t// out\n\n    auxdata: 0xa264697066735822122044aad134095858495354d736b8d239c65e7cff7425615d7cd12493dde26b4b1a64736f6c63430008220033\n}\n",
				"bytecode": {
					"linkReferences": {},
					"object": "6080604052348015600e575f5ffd5b506109248061001c5f395ff3fe608060405260043610610049575f3560e01c80632e1a7d4d1461004d5780638b7afe2e14610075578063d0e30db01461009f578063e3d670d7146100a9578063f8b2cb4f146100e5575b5f5ffd5b348015610058575f5ffd5b50610073600480360381019061006e919061052a565b610121565b005b348015610080575f5ffd5b506100896103af565b6040516100969190610564565b60405180910390f35b6100a76103b6565b005b3480156100b4575f5ffd5b506100cf60048036038101906100ca91906105d7565b61049a565b6040516100dc9190610564565b60405180910390f35b3480156100f0575f5ffd5b5061010b600480360381019061010691906105d7565b6104ae565b6040516101189190610564565b60405180910390f35b60015f9054906101000a900460ff1615610170576040517f08c379a00000000000000000000000000000000000000000000000000000000081526004016101679061065c565b60405180910390fd5b6001805f6101000a81548160ff021916908315150217905550805f5f3373ffffffffffffffffffffffffffffffffffffffff1673ffffffffffffffffffffffffffffffffffffffff1681526020019081526020015f20541015610208576040517f08c379a00000000000000000000000000000000000000000000000000000000081526004016101ff906106c4565b60405180910390fd5b5f811161024a576040517f08c379a00000000000000000000000000000000000000000000000000000000081526004016102419061072c565b60405180910390fd5b805f5f3373ffffffffffffffffffffffffffffffffffffffff1673ffffffffffffffffffffffffffffffffffffffff1681526020019081526020015f205f8282546102959190610777565b925050819055505f3373ffffffffffffffffffffffffffffffffffffffff16826040516102c1906107d7565b5f6040518083038185875af1925050503d805f81146102fb576040519150601f19603f3d011682016040523d82523d5f602084013e610300565b606091505b5050905080610344576040517f08c379a000000000000000000000000000000000000000000000000000000000815260040161033b90610835565b60405180910390fd5b3373ffffffffffffffffffffffffffffffffffffffff167f884edad9ce6fa2440d8a54cc123490eb96d2768479d49ff9c7366125a94243648360405161038a9190610564565b60405180910390a2505f60015f6101000a81548160ff02191690831515021790555050565b5f47905090565b5f34116103f8576040517f08c379a00000000000000000000000000000000000000000000000000000000081526004016103ef9061089d565b60405180910390fd5b345f5f3373ffffffffffffffffffffffffffffffffffffffff1673ffffffffffffffffffffffffffffffffffffffff1681526020019081526020015f205f82825461044391906108bb565b925050819055503373ffffffffffffffffffffffffffffffffffffffff167fe1fffcc4923d04b559f4d29a8bfc6cda04eb5b0d3c460751c2402c5c5cc9109c346040516104909190610564565b60405180910390a2565b5f602052805f5260405f205f915090505481565b5f5f5f8373ffffffffffffffffffffffffffffffffffffffff1673ffffffffffffffffffffffffffffffffffffffff1681526020019081526020015f20549050919050565b5f5ffd5b5f819050919050565b610509816104f7565b8114610513575f5ffd5b50565b5f8135905061052481610500565b92915050565b5f6020828403121561053f5761053e6104f3565b5b5f61054c84828501610516565b91505092915050565b61055e816104f7565b82525050565b5f6020820190506105775f830184610555565b92915050565b5f73ffffffffffffffffffffffffffffffffffffffff82169050919050565b5f6105a68261057d565b9050919050565b6105b68161059c565b81146105c0575f5ffd5b50565b5f813590506105d1816105ad565b92915050565b5f602082840312156105ec576105eb6104f3565b5b5f6105f9848285016105c3565b91505092915050565b5f82825260208201905092915050565b7f5265656e7472616e742063616c6c2064657465637465640000000000000000005f82015250565b5f610646601783610602565b915061065182610612565b602082019050919050565b5f6020820190508181035f8301526106738161063a565b9050919050565b7f496e73756666696369656e742062616c616e63650000000000000000000000005f82015250565b5f6106ae601483610602565b91506106b98261067a565b602082019050919050565b5f6020820190508181035f8301526106db816106a2565b9050919050565b7f496e76616c696420616d6f756e740000000000000000000000000000000000005f82015250565b5f610716600e83610602565b9150610721826106e2565b602082019050919050565b5f6020820190508181035f8301526107438161070a565b9050919050565b7f4e487b71000000000000000000000000000000000000000000000000000000005f52601160045260245ffd5b5f610781826104f7565b915061078c836104f7565b92508282039050818111156107a4576107a361074a565b5b92915050565b5f81905092915050565b50565b5f6107c25f836107aa565b91506107cd826107b4565b5f82019050919050565b5f6107e1826107b7565b9150819050919050565b7f5472616e73666572206661696c656400000000000000000000000000000000005f82015250565b5f61081f600f83610602565b915061082a826107eb565b602082019050919050565b5f6020820190508181035f83015261084c81610813565b9050919050565b7f5a65726f20455448206e6f7420616c6c6f7765640000000000000000000000005f82015250565b5f610887601483610602565b915061089282610853565b602082019050919050565b5f6020820190508181035f8301526108b48161087b565b9050919050565b5f6108c5826104f7565b91506108d0836104f7565b92508282019050808211156108e8576108e761074a565b5b9291505056fea264697066735822122044aad134095858495354d736b8d239c65e7cff7425615d7cd12493dde26b4b1a64736f6c63430008220033",
					"opcodes": "PUSH1 0x80 PUSH1 0x40 MSTORE CALLVALUE DUP1 ISZERO PUSH1 0xE JUMPI PUSH0 PUSH0 REVERT JUMPDEST POP PUSH2 0x924 DUP1 PUSH2 0x1C PUSH0 CODECOPY PUSH0 RETURN INVALID PUSH1 0x80 PUSH1 0x40 MSTORE PUSH1 0x4 CALLDATASIZE LT PUSH2 0x49 JUMPI PUSH0 CALLDATALOAD PUSH1 0xE0 SHR DUP1 PUSH4 0x2E1A7D4D EQ PUSH2 0x4D JUMPI DUP1 PUSH4 0x8B7AFE2E EQ PUSH2 0x75 JUMPI DUP1 PUSH4 0xD0E30DB0 EQ PUSH2 0x9F JUMPI DUP1 PUSH4 0xE3D670D7 EQ PUSH2 0xA9 JUMPI DUP1 PUSH4 0xF8B2CB4F EQ PUSH2 0xE5 JUMPI JUMPDEST PUSH0 PUSH0 REVERT JUMPDEST CALLVALUE DUP1 ISZERO PUSH2 0x58 JUMPI PUSH0 PUSH0 REVERT JUMPDEST POP PUSH2 0x73 PUSH1 0x4 DUP1 CALLDATASIZE SUB DUP2 ADD SWAP1 PUSH2 0x6E SWAP2 SWAP1 PUSH2 0x52A JUMP JUMPDEST PUSH2 0x121 JUMP JUMPDEST STOP JUMPDEST CALLVALUE DUP1 ISZERO PUSH2 0x80 JUMPI PUSH0 PUSH0 REVERT JUMPDEST POP PUSH2 0x89 PUSH2 0x3AF JUMP JUMPDEST PUSH1 0x40 MLOAD PUSH2 0x96 SWAP2 SWAP1 PUSH2 0x564 JUMP JUMPDEST PUSH1 0x40 MLOAD DUP1 SWAP2 SUB SWAP1 RETURN JUMPDEST PUSH2 0xA7 PUSH2 0x3B6 JUMP JUMPDEST STOP JUMPDEST CALLVALUE DUP1 ISZERO PUSH2 0xB4 JUMPI PUSH0 PUSH0 REVERT JUMPDEST POP PUSH2 0xCF PUSH1 0x4 DUP1 CALLDATASIZE SUB DUP2 ADD SWAP1 PUSH2 0xCA SWAP2 SWAP1 PUSH2 0x5D7 JUMP JUMPDEST PUSH2 0x49A JUMP JUMPDEST PUSH1 0x40 MLOAD PUSH2 0xDC SWAP2 SWAP1 PUSH2 0x564 JUMP JUMPDEST PUSH1 0x40 MLOAD DUP1 SWAP2 SUB SWAP1 RETURN JUMPDEST CALLVALUE DUP1 ISZERO PUSH2 0xF0 JUMPI PUSH0 PUSH0 REVERT JUMPDEST POP PUSH2 0x10B PUSH1 0x4 DUP1 CALLDATASIZE SUB DUP2 ADD SWAP1 PUSH2 0x106 SWAP2 SWAP1 PUSH2 0x5D7 JUMP JUMPDEST PUSH2 0x4AE JUMP JUMPDEST PUSH1 0x40 MLOAD PUSH2 0x118 SWAP2 SWAP1 PUSH2 0x564 JUMP JUMPDEST PUSH1 0x40 MLOAD DUP1 SWAP2 SUB SWAP1 RETURN JUMPDEST PUSH1 0x1 PUSH0 SWAP1 SLOAD SWAP1 PUSH2 0x100 EXP SWAP1 DIV PUSH1 0xFF AND ISZERO PUSH2 0x170 JUMPI PUSH1 0x40 MLOAD PUSH32 0x8C379A000000000000000000000000000000000000000000000000000000000 DUP2 MSTORE PUSH1 0x4 ADD PUSH2 0x167 SWAP1 PUSH2 0x65C JUMP JUMPDEST PUSH1 0x40 MLOAD DUP1 SWAP2 SUB SWAP1 REVERT JUMPDEST PUSH1 0x1 DUP1 PUSH0 PUSH2 0x100 EXP DUP2 SLOAD DUP2 PUSH1 0xFF MUL NOT AND SWAP1 DUP4 ISZERO ISZERO MUL OR SWAP1 SSTORE POP DUP1 PUSH0 PUSH0 CALLER PUSH20 0xFFFFFFFFFFFFFFFFFFFFFFFFFFFFFFFFFFFFFFFF AND PUSH20 0xFFFFFFFFFFFFFFFFFFFFFFFFFFFFFFFFFFFFFFFF AND DUP2 MSTORE PUSH1 0x20 ADD SWAP1 DUP2 MSTORE PUSH1 0x20 ADD PUSH0 KECCAK256 SLOAD LT ISZERO PUSH2 0x208 JUMPI PUSH1 0x40 MLOAD PUSH32 0x8C379A000000000000000000000000000000000000000000000000000000000 DUP2 MSTORE PUSH1 0x4 ADD PUSH2 0x1FF SWAP1 PUSH2 0x6C4 JUMP JUMPDEST PUSH1 0x40 MLOAD DUP1 SWAP2 SUB SWAP1 REVERT JUMPDEST PUSH0 DUP2 GT PUSH2 0x24A JUMPI PUSH1 0x40 MLOAD PUSH32 0x8C379A000000000000000000000000000000000000000000000000000000000 DUP2 MSTORE PUSH1 0x4 ADD PUSH2 0x241 SWAP1 PUSH2 0x72C JUMP JUMPDEST PUSH1 0x40 MLOAD DUP1 SWAP2 SUB SWAP1 REVERT JUMPDEST DUP1 PUSH0 PUSH0 CALLER PUSH20 0xFFFFFFFFFFFFFFFFFFFFFFFFFFFFFFFFFFFFFFFF AND PUSH20 0xFFFFFFFFFFFFFFFFFFFFFFFFFFFFFFFFFFFFFFFF AND DUP2 MSTORE PUSH1 0x20 ADD SWAP1 DUP2 MSTORE PUSH1 0x20 ADD PUSH0 KECCAK256 PUSH0 DUP3 DUP3 SLOAD PUSH2 0x295 SWAP2 SWAP1 PUSH2 0x777 JUMP JUMPDEST SWAP3 POP POP DUP2 SWAP1 SSTORE POP PUSH0 CALLER PUSH20 0xFFFFFFFFFFFFFFFFFFFFFFFFFFFFFFFFFFFFFFFF AND DUP3 PUSH1 0x40 MLOAD PUSH2 0x2C1 SWAP1 PUSH2 0x7D7 JUMP JUMPDEST PUSH0 PUSH1 0x40 MLOAD DUP1 DUP4 SUB DUP2 DUP6 DUP8 GAS CALL SWAP3 POP POP POP RETURNDATASIZE DUP1 PUSH0 DUP2 EQ PUSH2 0x2FB JUMPI PUSH1 0x40 MLOAD SWAP2 POP PUSH1 0x1F NOT PUSH1 0x3F RETURNDATASIZE ADD AND DUP3 ADD PUSH1 0x40 MSTORE RETURNDATASIZE DUP3 MSTORE RETURNDATASIZE PUSH0 PUSH1 0x20 DUP5 ADD RETURNDATACOPY PUSH2 0x300 JUMP JUMPDEST PUSH1 0x60 SWAP2 POP JUMPDEST POP POP SWAP1 POP DUP1 PUSH2 0x344 JUMPI PUSH1 0x40 MLOAD PUSH32 0x8C379A000000000000000000000000000000000000000000000000000000000 DUP2 MSTORE PUSH1 0x4 ADD PUSH2 0x33B SWAP1 PUSH2 0x835 JUMP JUMPDEST PUSH1 0x40 MLOAD DUP1 SWAP2 SUB SWAP1 REVERT JUMPDEST CALLER PUSH20 0xFFFFFFFFFFFFFFFFFFFFFFFFFFFFFFFFFFFFFFFF AND PUSH32 0x884EDAD9CE6FA2440D8A54CC123490EB96D2768479D49FF9C7366125A9424364 DUP4 PUSH1 0x40 MLOAD PUSH2 0x38A SWAP2 SWAP1 PUSH2 0x564 JUMP JUMPDEST PUSH1 0x40 MLOAD DUP1 SWAP2 SUB SWAP1 LOG2 POP PUSH0 PUSH1 0x1 PUSH0 PUSH2 0x100 EXP DUP2 SLOAD DUP2 PUSH1 0xFF MUL NOT AND SWAP1 DUP4 ISZERO ISZERO MUL OR SWAP1 SSTORE POP POP JUMP JUMPDEST PUSH0 SELFBALANCE SWAP1 POP SWAP1 JUMP JUMPDEST PUSH0 CALLVALUE GT PUSH2 0x3F8 JUMPI PUSH1 0x40 MLOAD PUSH32 0x8C379A000000000000000000000000000000000000000000000000000000000 DUP2 MSTORE PUSH1 0x4 ADD PUSH2 0x3EF SWAP1 PUSH2 0x89D JUMP JUMPDEST PUSH1 0x40 MLOAD DUP1 SWAP2 SUB SWAP1 REVERT JUMPDEST CALLVALUE PUSH0 PUSH0 CALLER PUSH20 0xFFFFFFFFFFFFFFFFFFFFFFFFFFFFFFFFFFFFFFFF AND PUSH20 0xFFFFFFFFFFFFFFFFFFFFFFFFFFFFFFFFFFFFFFFF AND DUP2 MSTORE PUSH1 0x20 ADD SWAP1 DUP2 MSTORE PUSH1 0x20 ADD PUSH0 KECCAK256 PUSH0 DUP3 DUP3 SLOAD PUSH2 0x443 SWAP2 SWAP1 PUSH2 0x8BB JUMP JUMPDEST SWAP3 POP POP DUP2 SWAP1 SSTORE POP CALLER PUSH20 0xFFFFFFFFFFFFFFFFFFFFFFFFFFFFFFFFFFFFFFFF AND PUSH32 0xE1FFFCC4923D04B559F4D29A8BFC6CDA04EB5B0D3C460751C2402C5C5CC9109C CALLVALUE PUSH1 0x40 MLOAD PUSH2 0x490 SWAP2 SWAP1 PUSH2 0x564 JUMP JUMPDEST PUSH1 0x40 MLOAD DUP1 SWAP2 SUB SWAP1 LOG2 JUMP JUMPDEST PUSH0 PUSH1 0x20 MSTORE DUP1 PUSH0 MSTORE PUSH1 0x40 PUSH0 KECCAK256 PUSH0 SWAP2 POP SWAP1 POP SLOAD DUP2 JUMP JUMPDEST PUSH0 PUSH0 PUSH0 DUP4 PUSH20 0xFFFFFFFFFFFFFFFFFFFFFFFFFFFFFFFFFFFFFFFF AND PUSH20 0xFFFFFFFFFFFFFFFFFFFFFFFFFFFFFFFFFFFFFFFF AND DUP2 MSTORE PUSH1 0x20 ADD SWAP1 DUP2 MSTORE PUSH1 0x20 ADD PUSH0 KECCAK256 SLOAD SWAP1 POP SWAP2 SWAP1 POP JUMP JUMPDEST PUSH0 PUSH0 REVERT JUMPDEST PUSH0 DUP2 SWAP1 POP SWAP2 SWAP1 POP JUMP JUMPDEST PUSH2 0x509 DUP2 PUSH2 0x4F7 JUMP JUMPDEST DUP2 EQ PUSH2 0x513 JUMPI PUSH0 PUSH0 REVERT JUMPDEST POP JUMP JUMPDEST PUSH0 DUP2 CALLDATALOAD SWAP1 POP PUSH2 0x524 DUP2 PUSH2 0x500 JUMP JUMPDEST SWAP3 SWAP2 POP POP JUMP JUMPDEST PUSH0 PUSH1 0x20 DUP3 DUP5 SUB SLT ISZERO PUSH2 0x53F JUMPI PUSH2 0x53E PUSH2 0x4F3 JUMP JUMPDEST JUMPDEST PUSH0 PUSH2 0x54C DUP5 DUP3 DUP6 ADD PUSH2 0x516 JUMP JUMPDEST SWAP2 POP POP SWAP3 SWAP2 POP POP JUMP JUMPDEST PUSH2 0x55E DUP2 PUSH2 0x4F7 JUMP JUMPDEST DUP3 MSTORE POP POP JUMP JUMPDEST PUSH0 PUSH1 0x20 DUP3 ADD SWAP1 POP PUSH2 0x577 PUSH0 DUP4 ADD DUP5 PUSH2 0x555 JUMP JUMPDEST SWAP3 SWAP2 POP POP JUMP JUMPDEST PUSH0 PUSH20 0xFFFFFFFFFFFFFFFFFFFFFFFFFFFFFFFFFFFFFFFF DUP3 AND SWAP1 POP SWAP2 SWAP1 POP JUMP JUMPDEST PUSH0 PUSH2 0x5A6 DUP3 PUSH2 0x57D JUMP JUMPDEST SWAP1 POP SWAP2 SWAP1 POP JUMP JUMPDEST PUSH2 0x5B6 DUP2 PUSH2 0x59C JUMP JUMPDEST DUP2 EQ PUSH2 0x5C0 JUMPI PUSH0 PUSH0 REVERT JUMPDEST POP JUMP JUMPDEST PUSH0 DUP2 CALLDATALOAD SWAP1 POP PUSH2 0x5D1 DUP2 PUSH2 0x5AD JUMP JUMPDEST SWAP3 SWAP2 POP POP JUMP JUMPDEST PUSH0 PUSH1 0x20 DUP3 DUP5 SUB SLT ISZERO PUSH2 0x5EC JUMPI PUSH2 0x5EB PUSH2 0x4F3 JUMP JUMPDEST JUMPDEST PUSH0 PUSH2 0x5F9 DUP5 DUP3 DUP6 ADD PUSH2 0x5C3 JUMP JUMPDEST SWAP2 POP POP SWAP3 SWAP2 POP POP JUMP JUMPDEST PUSH0 DUP3 DUP3 MSTORE PUSH1 0x20 DUP3 ADD SWAP1 POP SWAP3 SWAP2 POP POP JUMP JUMPDEST PUSH32 0x5265656E7472616E742063616C6C206465746563746564000000000000000000 PUSH0 DUP3 ADD MSTORE POP JUMP JUMPDEST PUSH0 PUSH2 0x646 PUSH1 0x17 DUP4 PUSH2 0x602 JUMP JUMPDEST SWAP2 POP PUSH2 0x651 DUP3 PUSH2 0x612 JUMP JUMPDEST PUSH1 0x20 DUP3 ADD SWAP1 POP SWAP2 SWAP1 POP JUMP JUMPDEST PUSH0 PUSH1 0x20 DUP3 ADD SWAP1 POP DUP2 DUP2 SUB PUSH0 DUP4 ADD MSTORE PUSH2 0x673 DUP2 PUSH2 0x63A JUMP JUMPDEST SWAP1 POP SWAP2 SWAP1 POP JUMP JUMPDEST PUSH32 0x496E73756666696369656E742062616C616E6365000000000000000000000000 PUSH0 DUP3 ADD MSTORE POP JUMP JUMPDEST PUSH0 PUSH2 0x6AE PUSH1 0x14 DUP4 PUSH2 0x602 JUMP JUMPDEST SWAP2 POP PUSH2 0x6B9 DUP3 PUSH2 0x67A JUMP JUMPDEST PUSH1 0x20 DUP3 ADD SWAP1 POP SWAP2 SWAP1 POP JUMP JUMPDEST PUSH0 PUSH1 0x20 DUP3 ADD SWAP1 POP DUP2 DUP2 SUB PUSH0 DUP4 ADD MSTORE PUSH2 0x6DB DUP2 PUSH2 0x6A2 JUMP JUMPDEST SWAP1 POP SWAP2 SWAP1 POP JUMP JUMPDEST PUSH32 0x496E76616C696420616D6F756E74000000000000000000000000000000000000 PUSH0 DUP3 ADD MSTORE POP JUMP JUMPDEST PUSH0 PUSH2 0x716 PUSH1 0xE DUP4 PUSH2 0x602 JUMP JUMPDEST SWAP2 POP PUSH2 0x721 DUP3 PUSH2 0x6E2 JUMP JUMPDEST PUSH1 0x20 DUP3 ADD SWAP1 POP SWAP2 SWAP1 POP JUMP JUMPDEST PUSH0 PUSH1 0x20 DUP3 ADD SWAP1 POP DUP2 DUP2 SUB PUSH0 DUP4 ADD MSTORE PUSH2 0x743 DUP2 PUSH2 0x70A JUMP JUMPDEST SWAP1 POP SWAP2 SWAP1 POP JUMP JUMPDEST PUSH32 0x4E487B7100000000000000000000000000000000000000000000000000000000 PUSH0 MSTORE PUSH1 0x11 PUSH1 0x4 MSTORE PUSH1 0x24 PUSH0 REVERT JUMPDEST PUSH0 PUSH2 0x781 DUP3 PUSH2 0x4F7 JUMP JUMPDEST SWAP2 POP PUSH2 0x78C DUP4 PUSH2 0x4F7 JUMP JUMPDEST SWAP3 POP DUP3 DUP3 SUB SWAP1 POP DUP2 DUP2 GT ISZERO PUSH2 0x7A4 JUMPI PUSH2 0x7A3 PUSH2 0x74A JUMP JUMPDEST JUMPDEST SWAP3 SWAP2 POP POP JUMP JUMPDEST PUSH0 DUP2 SWAP1 POP SWAP3 SWAP2 POP POP JUMP JUMPDEST POP JUMP JUMPDEST PUSH0 PUSH2 0x7C2 PUSH0 DUP4 PUSH2 0x7AA JUMP JUMPDEST SWAP2 POP PUSH2 0x7CD DUP3 PUSH2 0x7B4 JUMP JUMPDEST PUSH0 DUP3 ADD SWAP1 POP SWAP2 SWAP1 POP JUMP JUMPDEST PUSH0 PUSH2 0x7E1 DUP3 PUSH2 0x7B7 JUMP JUMPDEST SWAP2 POP DUP2 SWAP1 POP SWAP2 SWAP1 POP JUMP JUMPDEST PUSH32 0x5472616E73666572206661696C65640000000000000000000000000000000000 PUSH0 DUP3 ADD MSTORE POP JUMP JUMPDEST PUSH0 PUSH2 0x81F PUSH1 0xF DUP4 PUSH2 0x602 JUMP JUMPDEST SWAP2 POP PUSH2 0x82A DUP3 PUSH2 0x7EB JUMP JUMPDEST PUSH1 0x20 DUP3 ADD SWAP1 POP SWAP2 SWAP1 POP JUMP JUMPDEST PUSH0 PUSH1 0x20 DUP3 ADD SWAP1 POP DUP2 DUP2 SUB PUSH0 DUP4 ADD MSTORE PUSH2 0x84C DUP2 PUSH2 0x813 JUMP JUMPDEST SWAP1 POP SWAP2 SWAP1 POP JUMP JUMPDEST PUSH32 0x5A65726F20455448206E6F7420616C6C6F776564000000000000000000000000 PUSH0 DUP3 ADD MSTORE POP JUMP JUMPDEST PUSH0 PUSH2 0x887 PUSH1 0x14 DUP4 PUSH2 0x602 JUMP JUMPDEST SWAP2 POP PUSH2 0x892 DUP3 PUSH2 0x853 JUMP JUMPDEST PUSH1 0x20 DUP3 ADD SWAP1 POP SWAP2 SWAP1 POP JUMP JUMPDEST PUSH0 PUSH1 0x20 DUP3 ADD SWAP1 POP DUP2 DUP2 SUB PUSH0 DUP4 ADD MSTORE PUSH2 0x8B4 DUP2 PUSH2 0x87B JUMP JUMPDEST SWAP1 POP SWAP2 SWAP1 POP JUMP JUMPDEST PUSH0 PUSH2 0x8C5 DUP3 PUSH2 0x4F7 JUMP JUMPDEST SWAP2 POP PUSH2 0x8D0 DUP4 PUSH2 0x4F7 JUMP JUMPDEST SWAP3 POP DUP3 DUP3 ADD SWAP1 POP DUP1 DUP3 GT ISZERO PUSH2 0x8E8 JUMPI PUSH2 0x8E7 PUSH2 0x74A JUMP JUMPDEST JUMPDEST SWAP3 SWAP2 POP POP JUMP INVALID LOG2 PUSH5 0x6970667358 0x22 SLT KECCAK256 PREVRANDAO 0xAA DATALOADN 0x3409 PC PC BLOBHASH MSTORE8 SLOAD 0xD7 CALLDATASIZE 0xB8 0xD2 CODECOPY 0xC6 MCOPY PUSH29 0xFF7425615D7CD12493DDE26B4B1A64736F6C6343000822003300000000 "
				},
				"gasEstimates": {
					"creation": {
						"codeDepositCost": "468000",
						"executionCost": "503",
						"totalCost": "468503"
					},
					"external": {
						"balance(address)": "2845",
						"contractBalance()": "334",
						"deposit()": "infinite",
						"getBalance(address)": "2894",
						"withdraw(uint256)": "infinite"
					}
				},
				"methodIdentifiers": {
					"balance(address)": "e3d670d7",
					"contractBalance()": "8b7afe2e",
					"deposit()": "d0e30db0",
					"getBalance(address)": "f8b2cb4f",
					"withdraw(uint256)": "2e1a7d4d"
				}
			},
			"storageLayout": {
				"storage": [
					{
						"astId": 72,
						"contract": "val78.sol:SecureBank",
						"label": "balance",
						"offset": 0,
						"slot": "0",
						"type": "t_mapping(t_address,t_uint256)"
					},
					{
						"astId": 74,
						"contract": "val78.sol:SecureBank",
						"label": "locked",
						"offset": 0,
						"slot": "1",
						"type": "t_bool"
					}
				],
				"types": {
					"t_address": {
						"encoding": "inplace",
						"label": "address",
						"numberOfBytes": "20"
					},
					"t_bool": {
						"encoding": "inplace",
						"label": "bool",
						"numberOfBytes": "1"
					},
					"t_mapping(t_address,t_uint256)": {
						"encoding": "mapping",
						"key": "t_address",
						"label": "mapping(address => uint256)",
						"numberOfBytes": "32",
						"value": "t_uint256"
					},
					"t_uint256": {
						"encoding": "inplace",
						"label": "uint256",
						"numberOfBytes": "32"
					}
				}
			},
			"userdoc": {
				"kind": "user",
				"methods": {},
				"version": 1
			}
		}
	}
}