{
	"val23.sol": {
		"StorageVsMemoryval": {
			"abi": [
				{
					"inputs": [],
					"name": "createUser",
					"outputs": [],
					"stateMutability": "nonpayable",
					"type": "function"
				},
				{
					"inputs": [],
					"name": "getUser",
					"outputs": [
						{
							"internalType": "uint256",
							"name": "",
							"type": "uint256"
						},
						{
							"internalType": "bool",
							"name": "",
							"type": "bool"
						}
					],
					"stateMutability": "view",
					"type": "function"
				},
				{
					"inputs": [],
					"name": "updateUsingMemory",
					"outputs": [
						{
							"internalType": "uint256",
							"name": "",
							"type": "uint256"
						},
						{
							"internalType": "bool",
							"name": "",
							"type": "bool"
						}
					],
					"stateMutability": "view",
					"type": "function"
				},
				{
					"inputs": [],
					"name": "updateUsingStorage",
					"outputs": [],
					"stateMutability": "nonpayable",
					"type": "function"
				},
				{
					"inputs": [
						{
							"internalType": "address",
							"name": "",
							"type": "address"
						}
					],
					"name": "users",
					"outputs": [
						{
							"internalType": "uint256",
							"name": "score",
							"type": "uint256"
						},
						{
							"internalType": "bool",
							"name": "active",
							"type": "bool"
						}
					],
					"stateMutability": "view",
					"type": "function"
				}
			],
			"devdoc": {
				"kind": "dev",
				"methods": {},
				"version": 1
			},
			"evm": {
				"assembly": "    /* \"val23.sol\":1941:3596  contract StorageVsMemoryval {... */\n  mstore(0x40, 0x80)\n  callvalue\n  dup1\n  iszero\n  tag_1\n  jumpi\n  revert(0x00, 0x00)\ntag_1:\n  pop\n  dataSize(sub_0)\n  dup1\n  dataOffset(sub_0)\n  0x00\n  codecopy\n  0x00\n  return\nstop\n\nsub_0: assembly {\n        /* \"val23.sol\":1941:3596  contract StorageVsMemoryval {... */\n      mstore(0x40, 0x80)\n      callvalue\n      dup1\n      iszero\n      tag_1\n      jumpi\n      revert(0x00, 0x00)\n    tag_1:\n      pop\n      jumpi(tag_2, lt(calldatasize, 0x04))\n      shr(0xe0, calldataload(0x00))\n      dup1\n      0x0a902c1a\n      eq\n      tag_3\n      jumpi\n      dup1\n      0x25ad91ce\n      eq\n      tag_4\n      jumpi\n      dup1\n      0x3d9f1012\n      eq\n      tag_5\n      jumpi\n      dup1\n      0x832880e7\n      eq\n      tag_6\n      jumpi\n      dup1\n      0xa87430ba\n      eq\n      tag_7\n      jumpi\n    tag_2:\n      revert(0x00, 0x00)\n        /* \"val23.sol\":2751:3323  function updateUsingMemory() public view returns (... */\n    tag_3:\n      tag_8\n      tag_9\n      jump\t// in\n    tag_8:\n      mload(0x40)\n      tag_10\n      swap3\n      swap2\n      swap1\n      tag_11\n      jump\t// in\n    tag_10:\n      mload(0x40)\n      dup1\n      swap2\n      sub\n      swap1\n      return\n        /* \"val23.sol\":2237:2380  function createUser() public {... */\n    tag_4:\n      tag_12\n      tag_13\n      jump\t// in\n    tag_12:\n      stop\n        /* \"val23.sol\":2388:2743  function updateUsingStorage() public {... */\n    tag_5:\n      tag_14\n      tag_15\n      jump\t// in\n    tag_14:\n      stop\n        /* \"val23.sol\":3331:3593  function getUser()... */\n    tag_6:\n      tag_16\n      tag_17\n      jump\t// in\n    tag_16:\n      mload(0x40)\n      tag_18\n      swap3\n      swap2\n      swap1\n      tag_11\n      jump\t// in\n    tag_18:\n      mload(0x40)\n      dup1\n      swap2\n      sub\n      swap1\n      return\n        /* \"val23.sol\":2191:2228  mapping(address => User) public users */\n    tag_7:\n      tag_19\n      0x04\n      dup1\n      calldatasize\n      sub\n      dup2\n      add\n      swap1\n      tag_20\n      swap2\n      swap1\n      tag_21\n      jump\t// in\n    tag_20:\n      tag_22\n      jump\t// in\n    tag_19:\n      mload(0x40)\n      tag_23\n      swap3\n      swap2\n      swap1\n      tag_11\n      jump\t// in\n    tag_23:\n      mload(0x40)\n      dup1\n      swap2\n      sub\n      swap1\n      return\n        /* \"val23.sol\":2751:3323  function updateUsingMemory() public view returns (... */\n    tag_9:\n        /* \"val23.sol\":2811:2818  uint256 */\n      0x00\n        /* \"val23.sol\":2829:2833  bool */\n      0x00\n        /* \"val23.sol\":2954:2970  User memory user */\n      0x00\n        /* \"val23.sol\":2973:2978  users */\n      0x00\n        /* \"val23.sol\":2973:2990  users[msg.sender] */\n      0x00\n        /* \"val23.sol\":2979:2989  msg.sender */\n      caller\n        /* \"val23.sol\":2973:2990  users[msg.sender] */\n      0xffffffffffffffffffffffffffffffffffffffff\n      and\n      0xffffffffffffffffffffffffffffffffffffffff\n      and\n      dup2\n      mstore\n      0x20\n      add\n      swap1\n      dup2\n      mstore\n      0x20\n      add\n      0x00\n      keccak256\n        /* \"val23.sol\":2954:2990  User memory user = users[msg.sender] */\n      mload(0x40)\n      dup1\n      0x40\n      add\n      0x40\n      mstore\n      swap1\n      dup2\n      0x00\n      dup3\n      add\n      sload\n      dup2\n      mstore\n      0x20\n      add\n      0x01\n      dup3\n      add\n      0x00\n      swap1\n      sload\n      swap1\n      0x0100\n      exp\n      swap1\n      div\n      0xff\n      and\n      iszero\n      iszero\n      iszero\n      iszero\n      dup2\n      mstore\n      pop\n      pop\n      swap1\n      pop\n        /* \"val23.sol\":3128:3131  555 */\n      0x022b\n        /* \"val23.sol\":3115:3119  user */\n      dup2\n        /* \"val23.sol\":3115:3125  user.score */\n      0x00\n      add\n        /* \"val23.sol\":3115:3131  user.score = 555 */\n      dup2\n      dup2\n      mstore\n      pop\n      pop\n        /* \"val23.sol\":3158:3163  false */\n      0x00\n        /* \"val23.sol\":3144:3148  user */\n      dup2\n        /* \"val23.sol\":3144:3155  user.active */\n      0x20\n      add\n        /* \"val23.sol\":3144:3163  user.active = false */\n      swap1\n      iszero\n      iszero\n      swap1\n      dup2\n      iszero\n      iszero\n      dup2\n      mstore\n      pop\n      pop\n        /* \"val23.sol\":3268:3272  user */\n      dup1\n        /* \"val23.sol\":3268:3278  user.score */\n      0x00\n      add\n      mload\n        /* \"val23.sol\":3293:3297  user */\n      dup2\n        /* \"val23.sol\":3293:3304  user.active */\n      0x20\n      add\n      mload\n        /* \"val23.sol\":3246:3315  return (... */\n      swap3\n      pop\n      swap3\n      pop\n      pop\n        /* \"val23.sol\":2751:3323  function updateUsingMemory() public view returns (... */\n      swap1\n      swap2\n      jump\t// out\n        /* \"val23.sol\":2237:2380  function createUser() public {... */\n    tag_13:\n        /* \"val23.sol\":2299:2372  User({... */\n      mload(0x40)\n      dup1\n      0x40\n      add\n      0x40\n      mstore\n      dup1\n        /* \"val23.sol\":2328:2331  100 */\n      0x64\n        /* \"val23.sol\":2299:2372  User({... */\n      dup2\n      mstore\n      0x20\n      add\n        /* \"val23.sol\":2356:2360  true */\n      0x01\n        /* \"val23.sol\":2299:2372  User({... */\n      iszero\n      iszero\n      dup2\n      mstore\n      pop\n        /* \"val23.sol\":2279:2284  users */\n      0x00\n        /* \"val23.sol\":2279:2296  users[msg.sender] */\n      0x00\n        /* \"val23.sol\":2285:2295  msg.sender */\n      caller\n        /* \"val23.sol\":2279:2296  users[msg.sender] */\n      0xffffffffffffffffffffffffffffffffffffffff\n      and\n      0xffffffffffffffffffffffffffffffffffffffff\n      and\n      dup2\n      mstore\n      0x20\n      add\n      swap1\n      dup2\n      mstore\n      0x20\n      add\n      0x00\n      keccak256\n        /* \"val23.sol\":2279:2372  users[msg.sender] = User({... */\n      0x00\n      dup3\n      add\n      mload\n      dup2\n      0x00\n      add\n      sstore\n      0x20\n      dup3\n      add\n      mload\n      dup2\n      0x01\n      add\n      exp(0x0100, 0x00)\n      dup2\n      sload\n      dup2\n      0xff\n      mul\n      not\n      and\n      swap1\n      dup4\n      iszero\n      iszero\n      mul\n      or\n      swap1\n      sstore\n      pop\n      swap1\n      pop\n      pop\n        /* \"val23.sol\":2237:2380  function createUser() public {... */\n      jump\t// out\n        /* \"val23.sol\":2388:2743  function updateUsingStorage() public {... */\n    tag_15:\n        /* \"val23.sol\":2564:2581  User storage user */\n      0x00\n        /* \"val23.sol\":2584:2589  users */\n      0x00\n        /* \"val23.sol\":2584:2601  users[msg.sender] */\n      0x00\n        /* \"val23.sol\":2590:2600  msg.sender */\n      caller\n        /* \"val23.sol\":2584:2601  users[msg.sender] */\n      0xffffffffffffffffffffffffffffffffffffffff\n      and\n      0xffffffffffffffffffffffffffffffffffffffff\n      and\n      dup2\n      mstore\n      0x20\n      add\n      swap1\n      dup2\n      mstore\n      0x20\n      add\n      0x00\n      keccak256\n        /* \"val23.sol\":2564:2601  User storage user = users[msg.sender] */\n      swap1\n      pop\n        /* \"val23.sol\":2732:2735  999 */\n      0x03e7\n        /* \"val23.sol\":2719:2723  user */\n      dup2\n        /* \"val23.sol\":2719:2729  user.score */\n      0x00\n      add\n        /* \"val23.sol\":2719:2735  user.score = 999 */\n      dup2\n      swap1\n      sstore\n      pop\n        /* \"val23.sol\":2425:2743  {... */\n      pop\n        /* \"val23.sol\":2388:2743  function updateUsingStorage() public {... */\n      jump\t// out\n        /* \"val23.sol\":3331:3593  function getUser()... */\n    tag_17:\n        /* \"val23.sol\":3412:3419  uint256 */\n      0x00\n        /* \"val23.sol\":3434:3438  bool */\n      0x00\n        /* \"val23.sol\":3466:3483  User storage user */\n      0x00\n        /* \"val23.sol\":3486:3491  users */\n      0x00\n        /* \"val23.sol\":3486:3503  users[msg.sender] */\n      0x00\n        /* \"val23.sol\":3492:3502  msg.sender */\n      caller\n        /* \"val23.sol\":3486:3503  users[msg.sender] */\n      0xffffffffffffffffffffffffffffffffffffffff\n      and\n      0xffffffffffffffffffffffffffffffffffffffff\n      and\n      dup2\n      mstore\n      0x20\n      add\n      swap1\n      dup2\n      mstore\n      0x20\n      add\n      0x00\n      keccak256\n        /* \"val23.sol\":3466:3503  User storage user = users[msg.sender] */\n      swap1\n      pop\n        /* \"val23.sol\":3538:3542  user */\n      dup1\n        /* \"val23.sol\":3538:3548  user.score */\n      0x00\n      add\n      sload\n        /* \"val23.sol\":3563:3567  user */\n      dup2\n        /* \"val23.sol\":3563:3574  user.active */\n      0x01\n      add\n      0x00\n      swap1\n      sload\n      swap1\n      0x0100\n      exp\n      swap1\n      div\n      0xff\n      and\n        /* \"val23.sol\":3516:3585  return (... */\n      swap3\n      pop\n      swap3\n      pop\n      pop\n        /* \"val23.sol\":3331:3593  function getUser()... */\n      swap1\n      swap2\n      jump\t// out\n        /* \"val23.sol\":2191:2228  mapping(address => User) public users */\n    tag_22:\n      mstore(0x20, 0x00)\n      dup1\n      0x00\n      mstore\n      keccak256(0x00, 0x40)\n      0x00\n      swap2\n      pop\n      swap1\n      pop\n      dup1\n      0x00\n      add\n      sload\n      swap1\n      dup1\n      0x01\n      add\n      0x00\n      swap1\n      sload\n      swap1\n      0x0100\n      exp\n      swap1\n      div\n      0xff\n      and\n      swap1\n      pop\n      dup3\n      jump\t// out\n        /* \"#utility.yul\":7:84   */\n    tag_28:\n        /* \"#utility.yul\":44:51   */\n      0x00\n        /* \"#utility.yul\":73:78   */\n      dup2\n        /* \"#utility.yul\":62:78   */\n      swap1\n      pop\n        /* \"#utility.yul\":7:84   */\n      swap2\n      swap1\n      pop\n      jump\t// out\n        /* \"#utility.yul\":90:208   */\n    tag_29:\n        /* \"#utility.yul\":177:201   */\n      tag_42\n        /* \"#utility.yul\":195:200   */\n      dup2\n        /* \"#utility.yul\":177:201   */\n      tag_28\n      jump\t// in\n    tag_42:\n        /* \"#utility.yul\":172:175   */\n      dup3\n        /* \"#utility.yul\":165:202   */\n      mstore\n        /* \"#utility.yul\":90:208   */\n      pop\n      pop\n      jump\t// out\n        /* \"#utility.yul\":214:304   */\n    tag_30:\n        /* \"#utility.yul\":248:255   */\n      0x00\n        /* \"#utility.yul\":291:296   */\n      dup2\n        /* \"#utility.yul\":284:297   */\n      iszero\n        /* \"#utility.yul\":277:298   */\n      iszero\n        /* \"#utility.yul\":266:298   */\n      swap1\n      pop\n        /* \"#utility.yul\":214:304   */\n      swap2\n      swap1\n      pop\n      jump\t// out\n        /* \"#utility.yul\":310:419   */\n    tag_31:\n        /* \"#utility.yul\":391:412   */\n      tag_45\n        /* \"#utility.yul\":406:411   */\n      dup2\n        /* \"#utility.yul\":391:412   */\n      tag_30\n      jump\t// in\n    tag_45:\n        /* \"#utility.yul\":386:389   */\n      dup3\n        /* \"#utility.yul\":379:413   */\n      mstore\n        /* \"#utility.yul\":310:419   */\n      pop\n      pop\n      jump\t// out\n        /* \"#utility.yul\":425:745   */\n    tag_11:\n        /* \"#utility.yul\":540:544   */\n      0x00\n        /* \"#utility.yul\":578:580   */\n      0x40\n        /* \"#utility.yul\":567:576   */\n      dup3\n        /* \"#utility.yul\":563:581   */\n      add\n        /* \"#utility.yul\":555:581   */\n      swap1\n      pop\n        /* \"#utility.yul\":591:662   */\n      tag_47\n        /* \"#utility.yul\":659:660   */\n      0x00\n        /* \"#utility.yul\":648:657   */\n      dup4\n        /* \"#utility.yul\":644:661   */\n      add\n        /* \"#utility.yul\":635:641   */\n      dup6\n        /* \"#utility.yul\":591:662   */\n      tag_29\n      jump\t// in\n    tag_47:\n        /* \"#utility.yul\":672:738   */\n      tag_48\n        /* \"#utility.yul\":734:736   */\n      0x20\n        /* \"#utility.yul\":723:732   */\n      dup4\n        /* \"#utility.yul\":719:737   */\n      add\n        /* \"#utility.yul\":710:716   */\n      dup5\n        /* \"#utility.yul\":672:738   */\n      tag_31\n      jump\t// in\n    tag_48:\n        /* \"#utility.yul\":425:745   */\n      swap4\n      swap3\n      pop\n      pop\n      pop\n      jump\t// out\n        /* \"#utility.yul\":832:949   */\n    tag_33:\n        /* \"#utility.yul\":941:942   */\n      0x00\n        /* \"#utility.yul\":938:939   */\n      0x00\n        /* \"#utility.yul\":931:943   */\n      revert\n        /* \"#utility.yul\":1078:1204   */\n    tag_35:\n        /* \"#utility.yul\":1115:1122   */\n      0x00\n        /* \"#utility.yul\":1155:1197   */\n      0xffffffffffffffffffffffffffffffffffffffff\n        /* \"#utility.yul\":1148:1153   */\n      dup3\n        /* \"#utility.yul\":1144:1198   */\n      and\n        /* \"#utility.yul\":1133:1198   */\n      swap1\n      pop\n        /* \"#utility.yul\":1078:1204   */\n      swap2\n      swap1\n      pop\n      jump\t// out\n        /* \"#utility.yul\":1210:1306   */\n    tag_36:\n        /* \"#utility.yul\":1247:1254   */\n      0x00\n        /* \"#utility.yul\":1276:1300   */\n      tag_54\n        /* \"#utility.yul\":1294:1299   */\n      dup3\n        /* \"#utility.yul\":1276:1300   */\n      tag_35\n      jump\t// in\n    tag_54:\n        /* \"#utility.yul\":1265:1300   */\n      swap1\n      pop\n        /* \"#utility.yul\":1210:1306   */\n      swap2\n      swap1\n      pop\n      jump\t// out\n        /* \"#utility.yul\":1312:1434   */\n    tag_37:\n        /* \"#utility.yul\":1385:1409   */\n      tag_56\n        /* \"#utility.yul\":1403:1408   */\n      dup2\n        /* \"#utility.yul\":1385:1409   */\n      tag_36\n      jump\t// in\n    tag_56:\n        /* \"#utility.yul\":1378:1383   */\n      dup2\n        /* \"#utility.yul\":1375:1410   */\n      eq\n        /* \"#utility.yul\":1365:1428   */\n      tag_57\n      jumpi\n        /* \"#utility.yul\":1424:1425   */\n      0x00\n        /* \"#utility.yul\":1421:1422   */\n      0x00\n        /* \"#utility.yul\":1414:1426   */\n      revert\n        /* \"#utility.yul\":1365:1428   */\n    tag_57:\n        /* \"#utility.yul\":1312:1434   */\n      pop\n      jump\t// out\n        /* \"#utility.yul\":1440:1579   */\n    tag_38:\n        /* \"#utility.yul\":1486:1491   */\n      0x00\n        /* \"#utility.yul\":1524:1530   */\n      dup2\n        /* \"#utility.yul\":1511:1531   */\n      calldataload\n        /* \"#utility.yul\":1502:1531   */\n      swap1\n      pop\n        /* \"#utility.yul\":1540:1573   */\n      tag_59\n        /* \"#utility.yul\":1567:1572   */\n      dup2\n        /* \"#utility.yul\":1540:1573   */\n      tag_37\n      jump\t// in\n    tag_59:\n        /* \"#utility.yul\":1440:1579   */\n      swap3\n      swap2\n      pop\n      pop\n      jump\t// out\n        /* \"#utility.yul\":1585:1914   */\n    tag_21:\n        /* \"#utility.yul\":1644:1650   */\n      0x00\n        /* \"#utility.yul\":1693:1695   */\n      0x20\n        /* \"#utility.yul\":1681:1690   */\n      dup3\n        /* \"#utility.yul\":1672:1679   */\n      dup5\n        /* \"#utility.yul\":1668:1691   */\n      sub\n        /* \"#utility.yul\":1664:1696   */\n      slt\n        /* \"#utility.yul\":1661:1780   */\n      iszero\n      tag_61\n      jumpi\n        /* \"#utility.yul\":1699:1778   */\n      tag_62\n      tag_33\n      jump\t// in\n    tag_62:\n        /* \"#utility.yul\":1661:1780   */\n    tag_61:\n        /* \"#utility.yul\":1819:1820   */\n      0x00\n        /* \"#utility.yul\":1844:1897   */\n      tag_63\n        /* \"#utility.yul\":1889:1896   */\n      dup5\n        /* \"#utility.yul\":1880:1886   */\n      dup3\n        /* \"#utility.yul\":1869:1878   */\n      dup6\n        /* \"#utility.yul\":1865:1887   */\n      add\n        /* \"#utility.yul\":1844:1897   */\n      tag_38\n      jump\t// in\n    tag_63:\n        /* \"#utility.yul\":1834:1897   */\n      swap2\n      pop\n        /* \"#utility.yul\":1790:1907   */\n      pop\n        /* \"#utility.yul\":1585:1914   */\n      swap3\n      swap2\n      pop\n      pop\n      jump\t// out\n\n    auxdata: 0xa26469706673582212205fe0784bfa0588b72690dcfd6dd9f0a2d44885d26a349982c651226e542812d264736f6c63430008220033\n}\n",
				"bytecode": {
					"linkReferences": {},
					"object": "6080604052348015600e575f5ffd5b506103e78061001c5f395ff3fe608060405234801561000f575f5ffd5b5060043610610055575f3560e01c80630a902c1a1461005957806325ad91ce146100785780633d9f101214610082578063832880e71461008c578063a87430ba146100ab575b5f5ffd5b6100616100dc565b60405161006f929190610301565b60405180910390f35b610080610178565b005b61008a6101f9565b005b610094610245565b6040516100a2929190610301565b60405180910390f35b6100c560048036038101906100c09190610386565b6102a4565b6040516100d3929190610301565b60405180910390f35b5f5f5f5f5f3373ffffffffffffffffffffffffffffffffffffffff1673ffffffffffffffffffffffffffffffffffffffff1681526020019081526020015f206040518060400160405290815f8201548152602001600182015f9054906101000a900460ff161515151581525050905061022b815f0181815250505f816020019015159081151581525050805f0151816020015192509250509091565b604051806040016040528060648152602001600115158152505f5f3373ffffffffffffffffffffffffffffffffffffffff1673ffffffffffffffffffffffffffffffffffffffff1681526020019081526020015f205f820151815f01556020820151816001015f6101000a81548160ff021916908315150217905550905050565b5f5f5f3373ffffffffffffffffffffffffffffffffffffffff1673ffffffffffffffffffffffffffffffffffffffff1681526020019081526020015f2090506103e7815f018190555050565b5f5f5f5f5f3373ffffffffffffffffffffffffffffffffffffffff1673ffffffffffffffffffffffffffffffffffffffff1681526020019081526020015f209050805f0154816001015f9054906101000a900460ff1692509250509091565b5f602052805f5260405f205f91509050805f015490806001015f9054906101000a900460ff16905082565b5f819050919050565b6102e1816102cf565b82525050565b5f8115159050919050565b6102fb816102e7565b82525050565b5f6040820190506103145f8301856102d8565b61032160208301846102f2565b9392505050565b5f5ffd5b5f73ffffffffffffffffffffffffffffffffffffffff82169050919050565b5f6103558261032c565b9050919050565b6103658161034b565b811461036f575f5ffd5b50565b5f813590506103808161035c565b92915050565b5f6020828403121561039b5761039a610328565b5b5f6103a884828501610372565b9150509291505056fea26469706673582212205fe0784bfa0588b72690dcfd6dd9f0a2d44885d26a349982c651226e542812d264736f6c63430008220033",
					"opcodes": "PUSH1 0x80 PUSH1 0x40 MSTORE CALLVALUE DUP1 ISZERO PUSH1 0xE JUMPI PUSH0 PUSH0 REVERT JUMPDEST POP PUSH2 0x3E7 DUP1 PUSH2 0x1C PUSH0 CODECOPY PUSH0 RETURN INVALID PUSH1 0x80 PUSH1 0x40 MSTORE CALLVALUE DUP1 ISZERO PUSH2 0xF JUMPI PUSH0 PUSH0 REVERT JUMPDEST POP PUSH1 0x4 CALLDATASIZE LT PUSH2 0x55 JUMPI PUSH0 CALLDATALOAD PUSH1 0xE0 SHR DUP1 PUSH4 0xA902C1A EQ PUSH2 0x59 JUMPI DUP1 PUSH4 0x25AD91CE EQ PUSH2 0x78 JUMPI DUP1 PUSH4 0x3D9F1012 EQ PUSH2 0x82 JUMPI DUP1 PUSH4 0x832880E7 EQ PUSH2 0x8C JUMPI DUP1 PUSH4 0xA87430BA EQ PUSH2 0xAB JUMPI JUMPDEST PUSH0 PUSH0 REVERT JUMPDEST PUSH2 0x61 PUSH2 0xDC JUMP JUMPDEST PUSH1 0x40 MLOAD PUSH2 0x6F SWAP3 SWAP2 SWAP1 PUSH2 0x301 JUMP JUMPDEST PUSH1 0x40 MLOAD DUP1 SWAP2 SUB SWAP1 RETURN JUMPDEST PUSH2 0x80 PUSH2 0x178 JUMP JUMPDEST STOP JUMPDEST PUSH2 0x8A PUSH2 0x1F9 JUMP JUMPDEST STOP JUMPDEST PUSH2 0x94 PUSH2 0x245 JUMP JUMPDEST PUSH1 0x40 MLOAD PUSH2 0xA2 SWAP3 SWAP2 SWAP1 PUSH2 0x301 JUMP JUMPDEST PUSH1 0x40 MLOAD DUP1 SWAP2 SUB SWAP1 RETURN JUMPDEST PUSH2 0xC5 PUSH1 0x4 DUP1 CALLDATASIZE SUB DUP2 ADD SWAP1 PUSH2 0xC0 SWAP2 SWAP1 PUSH2 0x386 JUMP JUMPDEST PUSH2 0x2A4 JUMP JUMPDEST PUSH1 0x40 MLOAD PUSH2 0xD3 SWAP3 SWAP2 SWAP1 PUSH2 0x301 JUMP JUMPDEST PUSH1 0x40 MLOAD DUP1 SWAP2 SUB SWAP1 RETURN JUMPDEST PUSH0 PUSH0 PUSH0 PUSH0 PUSH0 CALLER PUSH20 0xFFFFFFFFFFFFFFFFFFFFFFFFFFFFFFFFFFFFFFFF AND PUSH20 0xFFFFFFFFFFFFFFFFFFFFFFFFFFFFFFFFFFFFFFFF AND DUP2 MSTORE PUSH1 0x20 ADD SWAP1 DUP2 MSTORE PUSH1 0x20 ADD PUSH0 KECCAK256 PUSH1 0x40 MLOAD DUP1 PUSH1 0x40 ADD PUSH1 0x40 MSTORE SWAP1 DUP2 PUSH0 DUP3 ADD SLOAD DUP2 MSTORE PUSH1 0x20 ADD PUSH1 0x1 DUP3 ADD PUSH0 SWAP1 SLOAD SWAP1 PUSH2 0x100 EXP SWAP1 DIV PUSH1 0xFF AND ISZERO ISZERO ISZERO ISZERO DUP2 MSTORE POP POP SWAP1 POP PUSH2 0x22B DUP2 PUSH0 ADD DUP2 DUP2 MSTORE POP POP PUSH0 DUP2 PUSH1 0x20 ADD SWAP1 ISZERO ISZERO SWAP1 DUP2 ISZERO ISZERO DUP2 MSTORE POP POP DUP1 PUSH0 ADD MLOAD DUP2 PUSH1 0x20 ADD MLOAD SWAP3 POP SWAP3 POP POP SWAP1 SWAP2 JUMP JUMPDEST PUSH1 0x40 MLOAD DUP1 PUSH1 0x40 ADD PUSH1 0x40 MSTORE DUP1 PUSH1 0x64 DUP2 MSTORE PUSH1 0x20 ADD PUSH1 0x1 ISZERO ISZERO DUP2 MSTORE POP PUSH0 PUSH0 CALLER PUSH20 0xFFFFFFFFFFFFFFFFFFFFFFFFFFFFFFFFFFFFFFFF AND PUSH20 0xFFFFFFFFFFFFFFFFFFFFFFFFFFFFFFFFFFFFFFFF AND DUP2 MSTORE PUSH1 0x20 ADD SWAP1 DUP2 MSTORE PUSH1 0x20 ADD PUSH0 KECCAK256 PUSH0 DUP3 ADD MLOAD DUP2 PUSH0 ADD SSTORE PUSH1 0x20 DUP3 ADD MLOAD DUP2 PUSH1 0x1 ADD PUSH0 PUSH2 0x100 EXP DUP2 SLOAD DUP2 PUSH1 0xFF MUL NOT AND SWAP1 DUP4 ISZERO ISZERO MUL OR SWAP1 SSTORE POP SWAP1 POP POP JUMP JUMPDEST PUSH0 PUSH0 PUSH0 CALLER PUSH20 0xFFFFFFFFFFFFFFFFFFFFFFFFFFFFFFFFFFFFFFFF AND PUSH20 0xFFFFFFFFFFFFFFFFFFFFFFFFFFFFFFFFFFFFFFFF AND DUP2 MSTORE PUSH1 0x20 ADD SWAP1 DUP2 MSTORE PUSH1 0x20 ADD PUSH0 KECCAK256 SWAP1 POP PUSH2 0x3E7 DUP2 PUSH0 ADD DUP2 SWAP1 SSTORE POP POP JUMP JUMPDEST PUSH0 PUSH0 PUSH0 PUSH0 PUSH0 CALLER PUSH20 0xFFFFFFFFFFFFFFFFFFFFFFFFFFFFFFFFFFFFFFFF AND PUSH20 0xFFFFFFFFFFFFFFFFFFFFFFFFFFFFFFFFFFFFFFFF AND DUP2 MSTORE PUSH1 0x20 ADD SWAP1 DUP2 MSTORE PUSH1 0x20 ADD PUSH0 KECCAK256 SWAP1 POP DUP1 PUSH0 ADD SLOAD DUP2 PUSH1 0x1 ADD PUSH0 SWAP1 SLOAD SWAP1 PUSH2 0x100 EXP SWAP1 DIV PUSH1 0xFF AND SWAP3 POP SWAP3 POP POP SWAP1 SWAP2 JUMP JUMPDEST PUSH0 PUSH1 0x20 MSTORE DUP1 PUSH0 MSTORE PUSH1 0x40 PUSH0 KECCAK256 PUSH0 SWAP2 POP SWAP1 POP DUP1 PUSH0 ADD SLOAD SWAP1 DUP1 PUSH1 0x1 ADD PUSH0 SWAP1 SLOAD SWAP1 PUSH2 0x100 EXP SWAP1 DIV PUSH1 0xFF AND SWAP1 POP DUP3 JUMP JUMPDEST PUSH0 DUP2 SWAP1 POP SWAP2 SWAP1 POP JUMP JUMPDEST PUSH2 0x2E1 DUP2 PUSH2 0x2CF JUMP JUMPDEST DUP3 MSTORE POP POP JUMP JUMPDEST PUSH0 DUP2 ISZERO ISZERO SWAP1 POP SWAP2 SWAP1 POP JUMP JUMPDEST PUSH2 0x2FB DUP2 PUSH2 0x2E7 JUMP JUMPDEST DUP3 MSTORE POP POP JUMP JUMPDEST PUSH0 PUSH1 0x40 DUP3 ADD SWAP1 POP PUSH2 0x314 PUSH0 DUP4 ADD DUP6 PUSH2 0x2D8 JUMP JUMPDEST PUSH2 0x321 PUSH1 0x20 DUP4 ADD DUP5 PUSH2 0x2F2 JUMP JUMPDEST SWAP4 SWAP3 POP POP POP JUMP JUMPDEST PUSH0 PUSH0 REVERT JUMPDEST PUSH0 PUSH20 0xFFFFFFFFFFFFFFFFFFFFFFFFFFFFFFFFFFFFFFFF DUP3 AND SWAP1 POP SWAP2 SWAP1 POP JUMP JUMPDEST PUSH0 PUSH2 0x355 DUP3 PUSH2 0x32C JUMP JUMPDEST SWAP1 POP SWAP2 SWAP1 POP JUMP JUMPDEST PUSH2 0x365 DUP2 PUSH2 0x34B JUMP JUMPDEST DUP2 EQ PUSH2 0x36F JUMPI PUSH0 PUSH0 REVERT JUMPDEST POP JUMP JUMPDEST PUSH0 DUP2 CALLDATALOAD SWAP1 POP PUSH2 0x380 DUP2 PUSH2 0x35C JUMP JUMPDEST SWAP3 SWAP2 POP POP JUMP JUMPDEST PUSH0 PUSH1 0x20 DUP3 DUP5 SUB SLT ISZERO PUSH2 0x39B JUMPI PUSH2 0x39A PUSH2 0x328 JUMP JUMPDEST JUMPDEST PUSH0 PUSH2 0x3A8 DUP5 DUP3 DUP6 ADD PUSH2 0x372 JUMP JUMPDEST SWAP2 POP POP SWAP3 SWAP2 POP POP JUMP INVALID LOG2 PUSH5 0x6970667358 0x22 SLT KECCAK256 PUSH0 RJUMP 0x784B STATICCALL SDIV DUP9 0xB7 0x26 SWAP1 0xDC REVERT PUSH14 0xD9F0A2D44885D26A349982C65122 PUSH15 0x542812D264736F6C63430008220033 "
				},
				"gasEstimates": {
					"creation": {
						"codeDepositCost": "199800",
						"executionCost": "243",
						"totalCost": "200043"
					},
					"external": {
						"createUser()": "46704",
						"getUser()": "4838",
						"updateUsingMemory()": "4928",
						"updateUsingStorage()": "22382",
						"users(address)": "5132"
					}
				},
				"methodIdentifiers": {
					"createUser()": "25ad91ce",
					"getUser()": "832880e7",
					"updateUsingMemory()": "0a902c1a",
					"updateUsingStorage()": "3d9f1012",
					"users(address)": "a87430ba"
				}
			},
			"storageLayout": {
				"storage": [
					{
						"astId": 11,
						"contract": "val23.sol:StorageVsMemoryval",
						"label": "users",
						"offset": 0,
						"slot": "0",
						"type": "t_mapping(t_address,t_struct(User)6_storage)"
					}
				],
				"types": {
					"t_address": {
						"encoding": "inplace",
						"label": "address",
						"numberOfBytes": "20"
					},
					"t_bool": {
						"encoding": "inplace",
						"label": "bool",
						"numberOfBytes": "1"
					},
					"t_mapping(t_address,t_struct(User)6_storage)": {
						"encoding": "mapping",
						"key": "t_address",
						"label": "mapping(address => struct StorageVsMemoryval.User)",
						"numberOfBytes": "32",
						"value": "t_struct(User)6_storage"
					},
					"t_struct(User)6_storage": {
						"encoding": "inplace",
						"label": "struct StorageVsMemoryval.User",
						"members": [
							{
								"astId": 3,
								"contract": "val23.sol:StorageVsMemoryval",
								"label": "score",
								"offset": 0,
								"slot": "0",
								"type": "t_uint256"
							},
							{
								"astId": 5,
								"contract": "val23.sol:StorageVsMemoryval",
								"label": "active",
								"offset": 0,
								"slot": "1",
								"type": "t_bool"
							}
						],
						"numberOfBytes": "64"
					},
					"t_uint256": {
						"encoding": "inplace",
						"label": "uint256",
						"numberOfBytes": "32"
					}
				}
			},
			"userdoc": {
				"kind": "user",
				"methods": {},
				"version": 1
			}
		}
	}
}