{
	"val65.sol": {
		"ExecutionTracerval": {
			"abi": [
				{
					"inputs": [
						{
							"internalType": "address payable",
							"name": "_target",
							"type": "address"
						}
					],
					"stateMutability": "nonpayable",
					"type": "constructor"
				},
				{
					"inputs": [],
					"name": "executionStage",
					"outputs": [
						{
							"internalType": "string",
							"name": "",
							"type": "string"
						}
					],
					"stateMutability": "view",
					"type": "function"
				},
				{
					"inputs": [],
					"name": "lastObservedSender",
					"outputs": [
						{
							"internalType": "address",
							"name": "",
							"type": "address"
						}
					],
					"stateMutability": "view",
					"type": "function"
				},
				{
					"inputs": [],
					"name": "localCounter",
					"outputs": [
						{
							"internalType": "uint256",
							"name": "",
							"type": "uint256"
						}
					],
					"stateMutability": "view",
					"type": "function"
				},
				{
					"inputs": [],
					"name": "target",
					"outputs": [
						{
							"internalType": "contract ExternalTarget",
							"name": "",
							"type": "address"
						}
					],
					"stateMutability": "view",
					"type": "function"
				},
				{
					"inputs": [],
					"name": "traceExecution",
					"outputs": [],
					"stateMutability": "nonpayable",
					"type": "function"
				}
			],
			"devdoc": {
				"kind": "dev",
				"methods": {},
				"version": 1
			},
			"evm": {
				"assembly": "    /* \"val65.sol\":3169:5164  contract ExecutionTracerval {... */\n  mstore(0x40, 0x80)\n    /* \"val65.sol\":3590:3744  constructor(address payable _target)... */\n  callvalue\n  dup1\n  iszero\n  tag_1\n  jumpi\n  revert(0x00, 0x00)\ntag_1:\n  pop\n  mload(0x40)\n  sub(codesize, bytecodeSize)\n  dup1\n  bytecodeSize\n  dup4\n  codecopy\n  dup2\n  dup2\n  add\n  0x40\n  mstore\n  dup2\n  add\n  swap1\n  tag_2\n  swap2\n  swap1\n  tag_3\n  jump\t// in\ntag_2:\n    /* \"val65.sol\":3728:3735  _target */\n  dup1\n    /* \"val65.sol\":3704:3710  target */\n  0x00\n  0x00\n    /* \"val65.sol\":3704:3736  target = ExternalTarget(_target) */\n  0x0100\n  exp\n  dup2\n  sload\n  dup2\n  0xffffffffffffffffffffffffffffffffffffffff\n  mul\n  not\n  and\n  swap1\n  dup4\n  0xffffffffffffffffffffffffffffffffffffffff\n  and\n  mul\n  or\n  swap1\n  sstore\n  pop\n    /* \"val65.sol\":3590:3744  constructor(address payable _target)... */\n  pop\n    /* \"val65.sol\":3169:5164  contract ExecutionTracerval {... */\n  jump(tag_6)\n    /* \"#utility.yul\":88:205   */\ntag_8:\n    /* \"#utility.yul\":197:198   */\n  0x00\n    /* \"#utility.yul\":194:195   */\n  0x00\n    /* \"#utility.yul\":187:199   */\n  revert\n    /* \"#utility.yul\":334:460   */\ntag_10:\n    /* \"#utility.yul\":371:378   */\n  0x00\n    /* \"#utility.yul\":411:453   */\n  0xffffffffffffffffffffffffffffffffffffffff\n    /* \"#utility.yul\":404:409   */\n  dup3\n    /* \"#utility.yul\":400:454   */\n  and\n    /* \"#utility.yul\":389:454   */\n  swap1\n  pop\n    /* \"#utility.yul\":334:460   */\n  swap2\n  swap1\n  pop\n  jump\t// out\n    /* \"#utility.yul\":466:570   */\ntag_11:\n    /* \"#utility.yul\":511:518   */\n  0x00\n    /* \"#utility.yul\":540:564   */\n  tag_20\n    /* \"#utility.yul\":558:563   */\n  dup3\n    /* \"#utility.yul\":540:564   */\n  tag_10\n  jump\t// in\ntag_20:\n    /* \"#utility.yul\":529:564   */\n  swap1\n  pop\n    /* \"#utility.yul\":466:570   */\n  swap2\n  swap1\n  pop\n  jump\t// out\n    /* \"#utility.yul\":576:714   */\ntag_12:\n    /* \"#utility.yul\":657:689   */\n  tag_22\n    /* \"#utility.yul\":683:688   */\n  dup2\n    /* \"#utility.yul\":657:689   */\n  tag_11\n  jump\t// in\ntag_22:\n    /* \"#utility.yul\":650:655   */\n  dup2\n    /* \"#utility.yul\":647:690   */\n  eq\n    /* \"#utility.yul\":637:708   */\n  tag_23\n  jumpi\n    /* \"#utility.yul\":704:705   */\n  0x00\n    /* \"#utility.yul\":701:702   */\n  0x00\n    /* \"#utility.yul\":694:706   */\n  revert\n    /* \"#utility.yul\":637:708   */\ntag_23:\n    /* \"#utility.yul\":576:714   */\n  pop\n  jump\t// out\n    /* \"#utility.yul\":720:879   */\ntag_13:\n    /* \"#utility.yul\":785:790   */\n  0x00\n    /* \"#utility.yul\":816:822   */\n  dup2\n    /* \"#utility.yul\":810:823   */\n  mload\n    /* \"#utility.yul\":801:823   */\n  swap1\n  pop\n    /* \"#utility.yul\":832:873   */\n  tag_25\n    /* \"#utility.yul\":867:872   */\n  dup2\n    /* \"#utility.yul\":832:873   */\n  tag_12\n  jump\t// in\ntag_25:\n    /* \"#utility.yul\":720:879   */\n  swap3\n  swap2\n  pop\n  pop\n  jump\t// out\n    /* \"#utility.yul\":885:1252   */\ntag_3:\n    /* \"#utility.yul\":963:969   */\n  0x00\n    /* \"#utility.yul\":1012:1014   */\n  0x20\n    /* \"#utility.yul\":1000:1009   */\n  dup3\n    /* \"#utility.yul\":991:998   */\n  dup5\n    /* \"#utility.yul\":987:1010   */\n  sub\n    /* \"#utility.yul\":983:1015   */\n  slt\n    /* \"#utility.yul\":980:1099   */\n  iszero\n  tag_27\n  jumpi\n    /* \"#utility.yul\":1018:1097   */\n  tag_28\n  tag_8\n  jump\t// in\ntag_28:\n    /* \"#utility.yul\":980:1099   */\ntag_27:\n    /* \"#utility.yul\":1138:1139   */\n  0x00\n    /* \"#utility.yul\":1163:1235   */\n  tag_29\n    /* \"#utility.yul\":1227:1234   */\n  dup5\n    /* \"#utility.yul\":1218:1224   */\n  dup3\n    /* \"#utility.yul\":1207:1216   */\n  dup6\n    /* \"#utility.yul\":1203:1225   */\n  add\n    /* \"#utility.yul\":1163:1235   */\n  tag_13\n  jump\t// in\ntag_29:\n    /* \"#utility.yul\":1153:1235   */\n  swap2\n  pop\n    /* \"#utility.yul\":1109:1245   */\n  pop\n    /* \"#utility.yul\":885:1252   */\n  swap3\n  swap2\n  pop\n  pop\n  jump\t// out\n    /* \"val65.sol\":3169:5164  contract ExecutionTracerval {... */\ntag_6:\n  dataSize(sub_0)\n  dup1\n  dataOffset(sub_0)\n  0x00\n  codecopy\n  0x00\n  return\nstop\n\nsub_0: assembly {\n        /* \"val65.sol\":3169:5164  contract ExecutionTracerval {... */\n      mstore(0x40, 0x80)\n      callvalue\n      dup1\n      iszero\n      tag_1\n      jumpi\n      revert(0x00, 0x00)\n    tag_1:\n      pop\n      jumpi(tag_2, lt(calldatasize, 0x04))\n      shr(0xe0, calldataload(0x00))\n      dup1\n      0x1ec1f778\n      eq\n      tag_3\n      jumpi\n      dup1\n      0x2b526dcc\n      eq\n      tag_4\n      jumpi\n      dup1\n      0x32083fcd\n      eq\n      tag_5\n      jumpi\n      dup1\n      0xd4b83992\n      eq\n      tag_6\n      jumpi\n      dup1\n      0xe88cc9a3\n      eq\n      tag_7\n      jumpi\n    tag_2:\n      revert(0x00, 0x00)\n        /* \"val65.sol\":3511:3544  address public lastObservedSender */\n    tag_3:\n      tag_8\n      tag_9\n      jump\t// in\n    tag_8:\n      mload(0x40)\n      tag_10\n      swap2\n      swap1\n      tag_11\n      jump\t// in\n    tag_10:\n      mload(0x40)\n      dup1\n      swap2\n      sub\n      swap1\n      return\n        /* \"val65.sol\":3427:3455  string public executionStage */\n    tag_4:\n      tag_12\n      tag_13\n      jump\t// in\n    tag_12:\n      mload(0x40)\n      tag_14\n      swap2\n      swap1\n      tag_15\n      jump\t// in\n    tag_14:\n      mload(0x40)\n      dup1\n      swap2\n      sub\n      swap1\n      return\n        /* \"val65.sol\":3918:5161  function traceExecution()... */\n    tag_5:\n      tag_16\n      tag_17\n      jump\t// in\n    tag_16:\n      stop\n        /* \"val65.sol\":3257:3285  ExternalTarget public target */\n    tag_6:\n      tag_18\n      tag_19\n      jump\t// in\n    tag_18:\n      mload(0x40)\n      tag_20\n      swap2\n      swap1\n      tag_21\n      jump\t// in\n    tag_20:\n      mload(0x40)\n      dup1\n      swap2\n      sub\n      swap1\n      return\n        /* \"val65.sol\":3344:3371  uint256 public localCounter */\n    tag_7:\n      tag_22\n      tag_23\n      jump\t// in\n    tag_22:\n      mload(0x40)\n      tag_24\n      swap2\n      swap1\n      tag_25\n      jump\t// in\n    tag_24:\n      mload(0x40)\n      dup1\n      swap2\n      sub\n      swap1\n      return\n        /* \"val65.sol\":3511:3544  address public lastObservedSender */\n    tag_9:\n      0x03\n      0x00\n      swap1\n      sload\n      swap1\n      0x0100\n      exp\n      swap1\n      div\n      0xffffffffffffffffffffffffffffffffffffffff\n      and\n      dup2\n      jump\t// out\n        /* \"val65.sol\":3427:3455  string public executionStage */\n    tag_13:\n      0x02\n      dup1\n      sload\n      tag_26\n      swap1\n      tag_27\n      jump\t// in\n    tag_26:\n      dup1\n      0x1f\n      add\n      0x20\n      dup1\n      swap2\n      div\n      mul\n      0x20\n      add\n      mload(0x40)\n      swap1\n      dup2\n      add\n      0x40\n      mstore\n      dup1\n      swap3\n      swap2\n      swap1\n      dup2\n      dup2\n      mstore\n      0x20\n      add\n      dup3\n      dup1\n      sload\n      tag_28\n      swap1\n      tag_27\n      jump\t// in\n    tag_28:\n      dup1\n      iszero\n      tag_29\n      jumpi\n      dup1\n      0x1f\n      lt\n      tag_30\n      jumpi\n      0x0100\n      dup1\n      dup4\n      sload\n      div\n      mul\n      dup4\n      mstore\n      swap2\n      0x20\n      add\n      swap2\n      jump(tag_29)\n    tag_30:\n      dup3\n      add\n      swap2\n      swap1\n      0x00\n      mstore\n      keccak256(0x00, 0x20)\n      swap1\n    tag_31:\n      dup2\n      sload\n      dup2\n      mstore\n      swap1\n      0x01\n      add\n      swap1\n      0x20\n      add\n      dup1\n      dup4\n      gt\n      tag_31\n      jumpi\n      dup3\n      swap1\n      sub\n      0x1f\n      and\n      dup3\n      add\n      swap2\n    tag_29:\n      pop\n      pop\n      pop\n      pop\n      pop\n      dup2\n      jump\t// out\n        /* \"val65.sol\":3918:5161  function traceExecution()... */\n    tag_17:\n        /* \"val65.sol\":4214:4266  executionStage =... */\n      mload(0x40)\n      dup1\n      0x40\n      add\n      0x40\n      mstore\n      dup1\n      0x14\n      dup2\n      mstore\n      0x20\n      add\n      0x4265666f72652065787465726e616c2063616c6c000000000000000000000000\n      dup2\n      mstore\n      pop\n        /* \"val65.sol\":4214:4228  executionStage */\n      0x02\n        /* \"val65.sol\":4214:4266  executionStage =... */\n      swap1\n      dup2\n      tag_33\n      swap2\n      swap1\n      tag_34\n      jump\t// in\n    tag_33:\n      pop\n        /* \"val65.sol\":4395:4405  msg.sender */\n      caller\n        /* \"val65.sol\":4361:4379  lastObservedSender */\n      0x03\n      0x00\n        /* \"val65.sol\":4361:4405  lastObservedSender =... */\n      0x0100\n      exp\n      dup2\n      sload\n      dup2\n      0xffffffffffffffffffffffffffffffffffffffff\n      mul\n      not\n      and\n      swap1\n      dup4\n      0xffffffffffffffffffffffffffffffffffffffff\n      and\n      mul\n      or\n      swap1\n      sstore\n      pop\n        /* \"val65.sol\":4475:4487  localCounter */\n      0x01\n      0x00\n        /* \"val65.sol\":4475:4489  localCounter++ */\n      dup2\n      sload\n      dup1\n      swap3\n      swap2\n      swap1\n      tag_35\n      swap1\n      tag_36\n      jump\t// in\n    tag_35:\n      swap2\n      swap1\n      pop\n      sstore\n      pop\n        /* \"val65.sol\":4804:4810  target */\n      0x00\n      0x00\n      swap1\n      sload\n      swap1\n      0x0100\n      exp\n      swap1\n      div\n      0xffffffffffffffffffffffffffffffffffffffff\n      and\n        /* \"val65.sol\":4804:4825  target.targetFunction */\n      0xffffffffffffffffffffffffffffffffffffffff\n      and\n      0xa341a91b\n        /* \"val65.sol\":4804:4827  target.targetFunction() */\n      mload(0x40)\n      dup2\n      0xffffffff\n      and\n      0xe0\n      shl\n      dup2\n      mstore\n      0x04\n      add\n      0x00\n      mload(0x40)\n      dup1\n      dup4\n      sub\n      dup2\n      0x00\n      dup8\n      dup1\n      extcodesize\n      iszero\n      dup1\n      iszero\n      tag_37\n      jumpi\n      revert(0x00, 0x00)\n    tag_37:\n      pop\n      gas\n      call\n      iszero\n      dup1\n      iszero\n      tag_39\n      jumpi\n      returndatacopy(0x00, 0x00, returndatasize)\n      revert(0x00, returndatasize)\n    tag_39:\n      pop\n      pop\n      pop\n      pop\n        /* \"val65.sol\":5102:5153  executionStage =... */\n      mload(0x40)\n      dup1\n      0x40\n      add\n      0x40\n      mstore\n      dup1\n      0x13\n      dup2\n      mstore\n      0x20\n      add\n      0x41667465722065787465726e616c2063616c6c00000000000000000000000000\n      dup2\n      mstore\n      pop\n        /* \"val65.sol\":5102:5116  executionStage */\n      0x02\n        /* \"val65.sol\":5102:5153  executionStage =... */\n      swap1\n      dup2\n      tag_40\n      swap2\n      swap1\n      tag_34\n      jump\t// in\n    tag_40:\n      pop\n        /* \"val65.sol\":3918:5161  function traceExecution()... */\n      jump\t// out\n        /* \"val65.sol\":3257:3285  ExternalTarget public target */\n    tag_19:\n      0x00\n      0x00\n      swap1\n      sload\n      swap1\n      0x0100\n      exp\n      swap1\n      div\n      0xffffffffffffffffffffffffffffffffffffffff\n      and\n      dup2\n      jump\t// out\n        /* \"val65.sol\":3344:3371  uint256 public localCounter */\n    tag_23:\n      sload(0x01)\n      dup2\n      jump\t// out\n        /* \"#utility.yul\":7:133   */\n    tag_41:\n        /* \"#utility.yul\":44:51   */\n      0x00\n        /* \"#utility.yul\":84:126   */\n      0xffffffffffffffffffffffffffffffffffffffff\n        /* \"#utility.yul\":77:82   */\n      dup3\n        /* \"#utility.yul\":73:127   */\n      and\n        /* \"#utility.yul\":62:127   */\n      swap1\n      pop\n        /* \"#utility.yul\":7:133   */\n      swap2\n      swap1\n      pop\n      jump\t// out\n        /* \"#utility.yul\":139:235   */\n    tag_42:\n        /* \"#utility.yul\":176:183   */\n      0x00\n        /* \"#utility.yul\":205:229   */\n      tag_76\n        /* \"#utility.yul\":223:228   */\n      dup3\n        /* \"#utility.yul\":205:229   */\n      tag_41\n      jump\t// in\n    tag_76:\n        /* \"#utility.yul\":194:229   */\n      swap1\n      pop\n        /* \"#utility.yul\":139:235   */\n      swap2\n      swap1\n      pop\n      jump\t// out\n        /* \"#utility.yul\":241:359   */\n    tag_43:\n        /* \"#utility.yul\":328:352   */\n      tag_78\n        /* \"#utility.yul\":346:351   */\n      dup2\n        /* \"#utility.yul\":328:352   */\n      tag_42\n      jump\t// in\n    tag_78:\n        /* \"#utility.yul\":323:326   */\n      dup3\n        /* \"#utility.yul\":316:353   */\n      mstore\n        /* \"#utility.yul\":241:359   */\n      pop\n      pop\n      jump\t// out\n        /* \"#utility.yul\":365:587   */\n    tag_11:\n        /* \"#utility.yul\":458:462   */\n      0x00\n        /* \"#utility.yul\":496:498   */\n      0x20\n        /* \"#utility.yul\":485:494   */\n      dup3\n        /* \"#utility.yul\":481:499   */\n      add\n        /* \"#utility.yul\":473:499   */\n      swap1\n      pop\n        /* \"#utility.yul\":509:580   */\n      tag_80\n        /* \"#utility.yul\":577:578   */\n      0x00\n        /* \"#utility.yul\":566:575   */\n      dup4\n        /* \"#utility.yul\":562:579   */\n      add\n        /* \"#utility.yul\":553:559   */\n      dup5\n        /* \"#utility.yul\":509:580   */\n      tag_43\n      jump\t// in\n    tag_80:\n        /* \"#utility.yul\":365:587   */\n      swap3\n      swap2\n      pop\n      pop\n      jump\t// out\n        /* \"#utility.yul\":593:692   */\n    tag_44:\n        /* \"#utility.yul\":645:651   */\n      0x00\n        /* \"#utility.yul\":679:684   */\n      dup2\n        /* \"#utility.yul\":673:685   */\n      mload\n        /* \"#utility.yul\":663:685   */\n      swap1\n      pop\n        /* \"#utility.yul\":593:692   */\n      swap2\n      swap1\n      pop\n      jump\t// out\n        /* \"#utility.yul\":698:867   */\n    tag_45:\n        /* \"#utility.yul\":782:793   */\n      0x00\n        /* \"#utility.yul\":816:822   */\n      dup3\n        /* \"#utility.yul\":811:814   */\n      dup3\n        /* \"#utility.yul\":804:823   */\n      mstore\n        /* \"#utility.yul\":856:860   */\n      0x20\n        /* \"#utility.yul\":851:854   */\n      dup3\n        /* \"#utility.yul\":847:861   */\n      add\n        /* \"#utility.yul\":832:861   */\n      swap1\n      pop\n        /* \"#utility.yul\":698:867   */\n      swap3\n      swap2\n      pop\n      pop\n      jump\t// out\n        /* \"#utility.yul\":873:1012   */\n    tag_46:\n        /* \"#utility.yul\":962:968   */\n      dup3\n        /* \"#utility.yul\":957:960   */\n      dup2\n        /* \"#utility.yul\":952:955   */\n      dup4\n        /* \"#utility.yul\":946:969   */\n      mcopy\n        /* \"#utility.yul\":1003:1004   */\n      0x00\n        /* \"#utility.yul\":994:1000   */\n      dup4\n        /* \"#utility.yul\":989:992   */\n      dup4\n        /* \"#utility.yul\":985:1001   */\n      add\n        /* \"#utility.yul\":978:1005   */\n      mstore\n        /* \"#utility.yul\":873:1012   */\n      pop\n      pop\n      pop\n      jump\t// out\n        /* \"#utility.yul\":1018:1120   */\n    tag_47:\n        /* \"#utility.yul\":1059:1065   */\n      0x00\n        /* \"#utility.yul\":1110:1112   */\n      0x1f\n        /* \"#utility.yul\":1106:1113   */\n      not\n        /* \"#utility.yul\":1101:1103   */\n      0x1f\n        /* \"#utility.yul\":1094:1099   */\n      dup4\n        /* \"#utility.yul\":1090:1104   */\n      add\n        /* \"#utility.yul\":1086:1114   */\n      and\n        /* \"#utility.yul\":1076:1114   */\n      swap1\n      pop\n        /* \"#utility.yul\":1018:1120   */\n      swap2\n      swap1\n      pop\n      jump\t// out\n        /* \"#utility.yul\":1126:1503   */\n    tag_48:\n        /* \"#utility.yul\":1214:1217   */\n      0x00\n        /* \"#utility.yul\":1242:1281   */\n      tag_86\n        /* \"#utility.yul\":1275:1280   */\n      dup3\n        /* \"#utility.yul\":1242:1281   */\n      tag_44\n      jump\t// in\n    tag_86:\n        /* \"#utility.yul\":1297:1368   */\n      tag_87\n        /* \"#utility.yul\":1361:1367   */\n      dup2\n        /* \"#utility.yul\":1356:1359   */\n      dup6\n        /* \"#utility.yul\":1297:1368   */\n      tag_45\n      jump\t// in\n    tag_87:\n        /* \"#utility.yul\":1290:1368   */\n      swap4\n      pop\n        /* \"#utility.yul\":1377:1442   */\n      tag_88\n        /* \"#utility.yul\":1435:1441   */\n      dup2\n        /* \"#utility.yul\":1430:1433   */\n      dup6\n        /* \"#utility.yul\":1423:1427   */\n      0x20\n        /* \"#utility.yul\":1416:1421   */\n      dup7\n        /* \"#utility.yul\":1412:1428   */\n      add\n        /* \"#utility.yul\":1377:1442   */\n      tag_46\n      jump\t// in\n    tag_88:\n        /* \"#utility.yul\":1467:1496   */\n      tag_89\n        /* \"#utility.yul\":1489:1495   */\n      dup2\n        /* \"#utility.yul\":1467:1496   */\n      tag_47\n      jump\t// in\n    tag_89:\n        /* \"#utility.yul\":1462:1465   */\n      dup5\n        /* \"#utility.yul\":1458:1497   */\n      add\n        /* \"#utility.yul\":1451:1497   */\n      swap2\n      pop\n        /* \"#utility.yul\":1218:1503   */\n      pop\n        /* \"#utility.yul\":1126:1503   */\n      swap3\n      swap2\n      pop\n      pop\n      jump\t// out\n        /* \"#utility.yul\":1509:1822   */\n    tag_15:\n        /* \"#utility.yul\":1622:1626   */\n      0x00\n        /* \"#utility.yul\":1660:1662   */\n      0x20\n        /* \"#utility.yul\":1649:1658   */\n      dup3\n        /* \"#utility.yul\":1645:1663   */\n      add\n        /* \"#utility.yul\":1637:1663   */\n      swap1\n      pop\n        /* \"#utility.yul\":1709:1718   */\n      dup2\n        /* \"#utility.yul\":1703:1707   */\n      dup2\n        /* \"#utility.yul\":1699:1719   */\n      sub\n        /* \"#utility.yul\":1695:1696   */\n      0x00\n        /* \"#utility.yul\":1684:1693   */\n      dup4\n        /* \"#utility.yul\":1680:1697   */\n      add\n        /* \"#utility.yul\":1673:1720   */\n      mstore\n        /* \"#utility.yul\":1737:1815   */\n      tag_91\n        /* \"#utility.yul\":1810:1814   */\n      dup2\n        /* \"#utility.yul\":1801:1807   */\n      dup5\n        /* \"#utility.yul\":1737:1815   */\n      tag_48\n      jump\t// in\n    tag_91:\n        /* \"#utility.yul\":1729:1815   */\n      swap1\n      pop\n        /* \"#utility.yul\":1509:1822   */\n      swap3\n      swap2\n      pop\n      pop\n      jump\t// out\n        /* \"#utility.yul\":1828:1888   */\n    tag_49:\n        /* \"#utility.yul\":1856:1859   */\n      0x00\n        /* \"#utility.yul\":1877:1882   */\n      dup2\n        /* \"#utility.yul\":1870:1882   */\n      swap1\n      pop\n        /* \"#utility.yul\":1828:1888   */\n      swap2\n      swap1\n      pop\n      jump\t// out\n        /* \"#utility.yul\":1894:2036   */\n    tag_50:\n        /* \"#utility.yul\":1944:1953   */\n      0x00\n        /* \"#utility.yul\":1977:2030   */\n      tag_94\n        /* \"#utility.yul\":1995:2029   */\n      tag_95\n        /* \"#utility.yul\":2004:2028   */\n      tag_96\n        /* \"#utility.yul\":2022:2027   */\n      dup5\n        /* \"#utility.yul\":2004:2028   */\n      tag_41\n      jump\t// in\n    tag_96:\n        /* \"#utility.yul\":1995:2029   */\n      tag_49\n      jump\t// in\n    tag_95:\n        /* \"#utility.yul\":1977:2030   */\n      tag_41\n      jump\t// in\n    tag_94:\n        /* \"#utility.yul\":1964:2030   */\n      swap1\n      pop\n        /* \"#utility.yul\":1894:2036   */\n      swap2\n      swap1\n      pop\n      jump\t// out\n        /* \"#utility.yul\":2042:2176   */\n    tag_51:\n        /* \"#utility.yul\":2100:2109   */\n      0x00\n        /* \"#utility.yul\":2133:2170   */\n      tag_98\n        /* \"#utility.yul\":2164:2169   */\n      dup3\n        /* \"#utility.yul\":2133:2170   */\n      tag_50\n      jump\t// in\n    tag_98:\n        /* \"#utility.yul\":2120:2170   */\n      swap1\n      pop\n        /* \"#utility.yul\":2042:2176   */\n      swap2\n      swap1\n      pop\n      jump\t// out\n        /* \"#utility.yul\":2182:2346   */\n    tag_52:\n        /* \"#utility.yul\":2262:2271   */\n      0x00\n        /* \"#utility.yul\":2295:2340   */\n      tag_100\n        /* \"#utility.yul\":2334:2339   */\n      dup3\n        /* \"#utility.yul\":2295:2340   */\n      tag_51\n      jump\t// in\n    tag_100:\n        /* \"#utility.yul\":2282:2340   */\n      swap1\n      pop\n        /* \"#utility.yul\":2182:2346   */\n      swap2\n      swap1\n      pop\n      jump\t// out\n        /* \"#utility.yul\":2352:2543   */\n    tag_53:\n        /* \"#utility.yul\":2469:2536   */\n      tag_102\n        /* \"#utility.yul\":2530:2535   */\n      dup2\n        /* \"#utility.yul\":2469:2536   */\n      tag_52\n      jump\t// in\n    tag_102:\n        /* \"#utility.yul\":2464:2467   */\n      dup3\n        /* \"#utility.yul\":2457:2537   */\n      mstore\n        /* \"#utility.yul\":2352:2543   */\n      pop\n      pop\n      jump\t// out\n        /* \"#utility.yul\":2549:2831   */\n    tag_21:\n        /* \"#utility.yul\":2672:2676   */\n      0x00\n        /* \"#utility.yul\":2710:2712   */\n      0x20\n        /* \"#utility.yul\":2699:2708   */\n      dup3\n        /* \"#utility.yul\":2695:2713   */\n      add\n        /* \"#utility.yul\":2687:2713   */\n      swap1\n      pop\n        /* \"#utility.yul\":2723:2824   */\n      tag_104\n        /* \"#utility.yul\":2821:2822   */\n      0x00\n        /* \"#utility.yul\":2810:2819   */\n      dup4\n        /* \"#utility.yul\":2806:2823   */\n      add\n        /* \"#utility.yul\":2797:2803   */\n      dup5\n        /* \"#utility.yul\":2723:2824   */\n      tag_53\n      jump\t// in\n    tag_104:\n        /* \"#utility.yul\":2549:2831   */\n      swap3\n      swap2\n      pop\n      pop\n      jump\t// out\n        /* \"#utility.yul\":2837:2914   */\n    tag_54:\n        /* \"#utility.yul\":2874:2881   */\n      0x00\n        /* \"#utility.yul\":2903:2908   */\n      dup2\n        /* \"#utility.yul\":2892:2908   */\n      swap1\n      pop\n        /* \"#utility.yul\":2837:2914   */\n      swap2\n      swap1\n      pop\n      jump\t// out\n        /* \"#utility.yul\":2920:3038   */\n    tag_55:\n        /* \"#utility.yul\":3007:3031   */\n      tag_107\n        /* \"#utility.yul\":3025:3030   */\n      dup2\n        /* \"#utility.yul\":3007:3031   */\n      tag_54\n      jump\t// in\n    tag_107:\n        /* \"#utility.yul\":3002:3005   */\n      dup3\n        /* \"#utility.yul\":2995:3032   */\n      mstore\n        /* \"#utility.yul\":2920:3038   */\n      pop\n      pop\n      jump\t// out\n        /* \"#utility.yul\":3044:3266   */\n    tag_25:\n        /* \"#utility.yul\":3137:3141   */\n      0x00\n        /* \"#utility.yul\":3175:3177   */\n      0x20\n        /* \"#utility.yul\":3164:3173   */\n      dup3\n        /* \"#utility.yul\":3160:3178   */\n      add\n        /* \"#utility.yul\":3152:3178   */\n      swap1\n      pop\n        /* \"#utility.yul\":3188:3259   */\n      tag_109\n        /* \"#utility.yul\":3256:3257   */\n      0x00\n        /* \"#utility.yul\":3245:3254   */\n      dup4\n        /* \"#utility.yul\":3241:3258   */\n      add\n        /* \"#utility.yul\":3232:3238   */\n      dup5\n        /* \"#utility.yul\":3188:3259   */\n      tag_55\n      jump\t// in\n    tag_109:\n        /* \"#utility.yul\":3044:3266   */\n      swap3\n      swap2\n      pop\n      pop\n      jump\t// out\n        /* \"#utility.yul\":3272:3452   */\n    tag_56:\n        /* \"#utility.yul\":3320:3397   */\n      0x4e487b7100000000000000000000000000000000000000000000000000000000\n        /* \"#utility.yul\":3317:3318   */\n      0x00\n        /* \"#utility.yul\":3310:3398   */\n      mstore\n        /* \"#utility.yul\":3417:3421   */\n      0x22\n        /* \"#utility.yul\":3414:3415   */\n      0x04\n        /* \"#utility.yul\":3407:3422   */\n      mstore\n        /* \"#utility.yul\":3441:3445   */\n      0x24\n        /* \"#utility.yul\":3438:3439   */\n      0x00\n        /* \"#utility.yul\":3431:3446   */\n      revert\n        /* \"#utility.yul\":3458:3778   */\n    tag_27:\n        /* \"#utility.yul\":3502:3508   */\n      0x00\n        /* \"#utility.yul\":3539:3540   */\n      0x02\n        /* \"#utility.yul\":3533:3537   */\n      dup3\n        /* \"#utility.yul\":3529:3541   */\n      div\n        /* \"#utility.yul\":3519:3541   */\n      swap1\n      pop\n        /* \"#utility.yul\":3586:3587   */\n      0x01\n        /* \"#utility.yul\":3580:3584   */\n      dup3\n        /* \"#utility.yul\":3576:3588   */\n      and\n        /* \"#utility.yul\":3607:3625   */\n      dup1\n        /* \"#utility.yul\":3597:3678   */\n      tag_112\n      jumpi\n        /* \"#utility.yul\":3663:3667   */\n      0x7f\n        /* \"#utility.yul\":3655:3661   */\n      dup3\n        /* \"#utility.yul\":3651:3668   */\n      and\n        /* \"#utility.yul\":3641:3668   */\n      swap2\n      pop\n        /* \"#utility.yul\":3597:3678   */\n    tag_112:\n        /* \"#utility.yul\":3725:3727   */\n      0x20\n        /* \"#utility.yul\":3717:3723   */\n      dup3\n        /* \"#utility.yul\":3714:3728   */\n      lt\n        /* \"#utility.yul\":3694:3712   */\n      dup2\n        /* \"#utility.yul\":3691:3729   */\n      sub\n        /* \"#utility.yul\":3688:3772   */\n      tag_113\n      jumpi\n        /* \"#utility.yul\":3744:3762   */\n      tag_114\n      tag_56\n      jump\t// in\n    tag_114:\n        /* \"#utility.yul\":3688:3772   */\n    tag_113:\n        /* \"#utility.yul\":3509:3778   */\n      pop\n        /* \"#utility.yul\":3458:3778   */\n      swap2\n      swap1\n      pop\n      jump\t// out\n        /* \"#utility.yul\":3784:3964   */\n    tag_57:\n        /* \"#utility.yul\":3832:3909   */\n      0x4e487b7100000000000000000000000000000000000000000000000000000000\n        /* \"#utility.yul\":3829:3830   */\n      0x00\n        /* \"#utility.yul\":3822:3910   */\n      mstore\n        /* \"#utility.yul\":3929:3933   */\n      0x41\n        /* \"#utility.yul\":3926:3927   */\n      0x04\n        /* \"#utility.yul\":3919:3934   */\n      mstore\n        /* \"#utility.yul\":3953:3957   */\n      0x24\n        /* \"#utility.yul\":3950:3951   */\n      0x00\n        /* \"#utility.yul\":3943:3958   */\n      revert\n        /* \"#utility.yul\":3970:4111   */\n    tag_58:\n        /* \"#utility.yul\":4019:4023   */\n      0x00\n        /* \"#utility.yul\":4042:4045   */\n      dup2\n        /* \"#utility.yul\":4034:4045   */\n      swap1\n      pop\n        /* \"#utility.yul\":4065:4068   */\n      dup2\n        /* \"#utility.yul\":4062:4063   */\n      0x00\n        /* \"#utility.yul\":4055:4069   */\n      mstore\n        /* \"#utility.yul\":4099:4103   */\n      0x20\n        /* \"#utility.yul\":4096:4097   */\n      0x00\n        /* \"#utility.yul\":4086:4104   */\n      keccak256\n        /* \"#utility.yul\":4078:4104   */\n      swap1\n      pop\n        /* \"#utility.yul\":3970:4111   */\n      swap2\n      swap1\n      pop\n      jump\t// out\n        /* \"#utility.yul\":4117:4210   */\n    tag_59:\n        /* \"#utility.yul\":4154:4160   */\n      0x00\n        /* \"#utility.yul\":4201:4203   */\n      0x20\n        /* \"#utility.yul\":4196:4198   */\n      0x1f\n        /* \"#utility.yul\":4189:4194   */\n      dup4\n        /* \"#utility.yul\":4185:4199   */\n      add\n        /* \"#utility.yul\":4181:4204   */\n      div\n        /* \"#utility.yul\":4171:4204   */\n      swap1\n      pop\n        /* \"#utility.yul\":4117:4210   */\n      swap2\n      swap1\n      pop\n      jump\t// out\n        /* \"#utility.yul\":4216:4323   */\n    tag_60:\n        /* \"#utility.yul\":4260:4268   */\n      0x00\n        /* \"#utility.yul\":4310:4315   */\n      dup3\n        /* \"#utility.yul\":4304:4308   */\n      dup3\n        /* \"#utility.yul\":4300:4316   */\n      shl\n        /* \"#utility.yul\":4279:4316   */\n      swap1\n      pop\n        /* \"#utility.yul\":4216:4323   */\n      swap3\n      swap2\n      pop\n      pop\n      jump\t// out\n        /* \"#utility.yul\":4329:4722   */\n    tag_61:\n        /* \"#utility.yul\":4398:4404   */\n      0x00\n        /* \"#utility.yul\":4448:4449   */\n      0x08\n        /* \"#utility.yul\":4436:4446   */\n      dup4\n        /* \"#utility.yul\":4432:4450   */\n      mul\n        /* \"#utility.yul\":4471:4568   */\n      tag_120\n        /* \"#utility.yul\":4501:4567   */\n      0xffffffffffffffffffffffffffffffffffffffffffffffffffffffffffffffff\n        /* \"#utility.yul\":4490:4499   */\n      dup3\n        /* \"#utility.yul\":4471:4568   */\n      tag_60\n      jump\t// in\n    tag_120:\n        /* \"#utility.yul\":4589:4628   */\n      tag_121\n        /* \"#utility.yul\":4619:4627   */\n      dup7\n        /* \"#utility.yul\":4608:4617   */\n      dup4\n        /* \"#utility.yul\":4589:4628   */\n      tag_60\n      jump\t// in\n    tag_121:\n        /* \"#utility.yul\":4577:4628   */\n      swap6\n      pop\n        /* \"#utility.yul\":4661:4665   */\n      dup1\n        /* \"#utility.yul\":4657:4666   */\n      not\n        /* \"#utility.yul\":4650:4655   */\n      dup5\n        /* \"#utility.yul\":4646:4667   */\n      and\n        /* \"#utility.yul\":4637:4667   */\n      swap4\n      pop\n        /* \"#utility.yul\":4710:4714   */\n      dup1\n        /* \"#utility.yul\":4700:4708   */\n      dup7\n        /* \"#utility.yul\":4696:4715   */\n      and\n        /* \"#utility.yul\":4689:4694   */\n      dup5\n        /* \"#utility.yul\":4686:4716   */\n      or\n        /* \"#utility.yul\":4676:4716   */\n      swap3\n      pop\n        /* \"#utility.yul\":4405:4722   */\n      pop\n      pop\n        /* \"#utility.yul\":4329:4722   */\n      swap4\n      swap3\n      pop\n      pop\n      pop\n      jump\t// out\n        /* \"#utility.yul\":4728:4870   */\n    tag_62:\n        /* \"#utility.yul\":4778:4787   */\n      0x00\n        /* \"#utility.yul\":4811:4864   */\n      tag_123\n        /* \"#utility.yul\":4829:4863   */\n      tag_124\n        /* \"#utility.yul\":4838:4862   */\n      tag_125\n        /* \"#utility.yul\":4856:4861   */\n      dup5\n        /* \"#utility.yul\":4838:4862   */\n      tag_54\n      jump\t// in\n    tag_125:\n        /* \"#utility.yul\":4829:4863   */\n      tag_49\n      jump\t// in\n    tag_124:\n        /* \"#utility.yul\":4811:4864   */\n      tag_54\n      jump\t// in\n    tag_123:\n        /* \"#utility.yul\":4798:4864   */\n      swap1\n      pop\n        /* \"#utility.yul\":4728:4870   */\n      swap2\n      swap1\n      pop\n      jump\t// out\n        /* \"#utility.yul\":4876:4951   */\n    tag_63:\n        /* \"#utility.yul\":4919:4922   */\n      0x00\n        /* \"#utility.yul\":4940:4945   */\n      dup2\n        /* \"#utility.yul\":4933:4945   */\n      swap1\n      pop\n        /* \"#utility.yul\":4876:4951   */\n      swap2\n      swap1\n      pop\n      jump\t// out\n        /* \"#utility.yul\":4957:5226   */\n    tag_64:\n        /* \"#utility.yul\":5067:5106   */\n      tag_128\n        /* \"#utility.yul\":5098:5105   */\n      dup4\n        /* \"#utility.yul\":5067:5106   */\n      tag_62\n      jump\t// in\n    tag_128:\n        /* \"#utility.yul\":5128:5219   */\n      tag_129\n        /* \"#utility.yul\":5177:5218   */\n      tag_130\n        /* \"#utility.yul\":5201:5217   */\n      dup3\n        /* \"#utility.yul\":5177:5218   */\n      tag_63\n      jump\t// in\n    tag_130:\n        /* \"#utility.yul\":5169:5175   */\n      dup5\n        /* \"#utility.yul\":5162:5166   */\n      dup5\n        /* \"#utility.yul\":5156:5167   */\n      sload\n        /* \"#utility.yul\":5128:5219   */\n      tag_61\n      jump\t// in\n    tag_129:\n        /* \"#utility.yul\":5122:5126   */\n      dup3\n        /* \"#utility.yul\":5115:5220   */\n      sstore\n        /* \"#utility.yul\":5033:5226   */\n      pop\n        /* \"#utility.yul\":4957:5226   */\n      pop\n      pop\n      pop\n      jump\t// out\n        /* \"#utility.yul\":5232:5305   */\n    tag_65:\n        /* \"#utility.yul\":5277:5280   */\n      0x00\n        /* \"#utility.yul\":5298:5299   */\n      0x00\n        /* \"#utility.yul\":5291:5299   */\n      swap1\n      pop\n        /* \"#utility.yul\":5232:5305   */\n      swap1\n      jump\t// out\n        /* \"#utility.yul\":5311:5500   */\n    tag_66:\n        /* \"#utility.yul\":5388:5420   */\n      tag_133\n      tag_65\n      jump\t// in\n    tag_133:\n        /* \"#utility.yul\":5429:5494   */\n      tag_134\n        /* \"#utility.yul\":5487:5493   */\n      dup2\n        /* \"#utility.yul\":5479:5485   */\n      dup5\n        /* \"#utility.yul\":5473:5477   */\n      dup5\n        /* \"#utility.yul\":5429:5494   */\n      tag_64\n      jump\t// in\n    tag_134:\n        /* \"#utility.yul\":5364:5500   */\n      pop\n        /* \"#utility.yul\":5311:5500   */\n      pop\n      pop\n      jump\t// out\n        /* \"#utility.yul\":5506:5720   */\n    tag_67:\n        /* \"#utility.yul\":5591:5592   */\n      0x00\n        /* \"#utility.yul\":5576:5714   */\n    tag_136:\n        /* \"#utility.yul\":5601:5610   */\n      dup3\n        /* \"#utility.yul\":5598:5599   */\n      dup2\n        /* \"#utility.yul\":5595:5611   */\n      lt\n        /* \"#utility.yul\":5576:5714   */\n      iszero\n      tag_138\n      jumpi\n        /* \"#utility.yul\":5653:5704   */\n      tag_139\n        /* \"#utility.yul\":5702:5703   */\n      0x00\n        /* \"#utility.yul\":5698:5699   */\n      dup3\n        /* \"#utility.yul\":5687:5696   */\n      dup5\n        /* \"#utility.yul\":5683:5700   */\n      add\n        /* \"#utility.yul\":5653:5704   */\n      tag_66\n      jump\t// in\n    tag_139:\n        /* \"#utility.yul\":5626:5627   */\n      0x01\n        /* \"#utility.yul\":5623:5624   */\n      dup2\n        /* \"#utility.yul\":5619:5628   */\n      add\n        /* \"#utility.yul\":5614:5628   */\n      swap1\n      pop\n        /* \"#utility.yul\":5576:5714   */\n      jump(tag_136)\n    tag_138:\n        /* \"#utility.yul\":5580:5594   */\n      pop\n        /* \"#utility.yul\":5506:5720   */\n      pop\n      pop\n      jump\t// out\n        /* \"#utility.yul\":5726:6472   */\n    tag_68:\n        /* \"#utility.yul\":5827:5829   */\n      0x1f\n        /* \"#utility.yul\":5822:5825   */\n      dup3\n        /* \"#utility.yul\":5819:5830   */\n      gt\n        /* \"#utility.yul\":5816:6465   */\n      iszero\n      tag_141\n      jumpi\n        /* \"#utility.yul\":5856:5866   */\n      dup3\n        /* \"#utility.yul\":5851:5854   */\n      dup3\n        /* \"#utility.yul\":5848:5867   */\n      gt\n        /* \"#utility.yul\":5845:6455   */\n      iszero\n      tag_142\n      jumpi\n        /* \"#utility.yul\":5902:5940   */\n      tag_143\n        /* \"#utility.yul\":5934:5939   */\n      dup2\n        /* \"#utility.yul\":5902:5940   */\n      tag_58\n      jump\t// in\n    tag_143:\n        /* \"#utility.yul\":5977:5999   */\n      tag_144\n        /* \"#utility.yul\":5995:5998   */\n      dup4\n        /* \"#utility.yul\":5977:5999   */\n      tag_59\n      jump\t// in\n    tag_144:\n        /* \"#utility.yul\":6036:6065   */\n      tag_145\n        /* \"#utility.yul\":6054:6064   */\n      dup6\n        /* \"#utility.yul\":6036:6065   */\n      tag_59\n      jump\t// in\n    tag_145:\n        /* \"#utility.yul\":6226:6228   */\n      0x20\n        /* \"#utility.yul\":6214:6224   */\n      dup7\n        /* \"#utility.yul\":6211:6229   */\n      lt\n        /* \"#utility.yul\":6208:6287   */\n      iszero\n      tag_146\n      jumpi\n        /* \"#utility.yul\":6268:6269   */\n      0x00\n        /* \"#utility.yul\":6252:6269   */\n      swap1\n      pop\n        /* \"#utility.yul\":6208:6287   */\n    tag_146:\n        /* \"#utility.yul\":6337:6349   */\n      dup1\n        /* \"#utility.yul\":6327:6335   */\n      dup4\n        /* \"#utility.yul\":6323:6350   */\n      add\n        /* \"#utility.yul\":6367:6441   */\n      tag_147\n        /* \"#utility.yul\":6427:6439   */\n      dup3\n        /* \"#utility.yul\":6413:6425   */\n      dup5\n        /* \"#utility.yul\":6409:6440   */\n      sub\n        /* \"#utility.yul\":6396:6407   */\n      dup3\n        /* \"#utility.yul\":6367:6441   */\n      tag_67\n      jump\t// in\n    tag_147:\n        /* \"#utility.yul\":5868:6455   */\n      pop\n      pop\n      pop\n      pop\n        /* \"#utility.yul\":5845:6455   */\n    tag_142:\n        /* \"#utility.yul\":5816:6465   */\n    tag_141:\n        /* \"#utility.yul\":5726:6472   */\n      pop\n      pop\n      pop\n      jump\t// out\n        /* \"#utility.yul\":6478:6595   */\n    tag_69:\n        /* \"#utility.yul\":6532:6540   */\n      0x00\n        /* \"#utility.yul\":6582:6587   */\n      dup3\n        /* \"#utility.yul\":6576:6580   */\n      dup3\n        /* \"#utility.yul\":6572:6588   */\n      shr\n        /* \"#utility.yul\":6551:6588   */\n      swap1\n      pop\n        /* \"#utility.yul\":6478:6595   */\n      swap3\n      swap2\n      pop\n      pop\n      jump\t// out\n        /* \"#utility.yul\":6601:6770   */\n    tag_70:\n        /* \"#utility.yul\":6645:6651   */\n      0x00\n        /* \"#utility.yul\":6678:6729   */\n      tag_150\n        /* \"#utility.yul\":6726:6727   */\n      0x00\n        /* \"#utility.yul\":6722:6728   */\n      not\n        /* \"#utility.yul\":6714:6719   */\n      dup5\n        /* \"#utility.yul\":6711:6712   */\n      0x08\n        /* \"#utility.yul\":6707:6720   */\n      mul\n        /* \"#utility.yul\":6678:6729   */\n      tag_69\n      jump\t// in\n    tag_150:\n        /* \"#utility.yul\":6674:6730   */\n      not\n        /* \"#utility.yul\":6759:6763   */\n      dup1\n        /* \"#utility.yul\":6753:6757   */\n      dup4\n        /* \"#utility.yul\":6749:6764   */\n      and\n        /* \"#utility.yul\":6739:6764   */\n      swap2\n      pop\n        /* \"#utility.yul\":6652:6770   */\n      pop\n        /* \"#utility.yul\":6601:6770   */\n      swap3\n      swap2\n      pop\n      pop\n      jump\t// out\n        /* \"#utility.yul\":6775:7070   */\n    tag_71:\n        /* \"#utility.yul\":6851:6855   */\n      0x00\n        /* \"#utility.yul\":6997:7026   */\n      tag_152\n        /* \"#utility.yul\":7022:7025   */\n      dup4\n        /* \"#utility.yul\":7016:7020   */\n      dup4\n        /* \"#utility.yul\":6997:7026   */\n      tag_70\n      jump\t// in\n    tag_152:\n        /* \"#utility.yul\":6989:7026   */\n      swap2\n      pop\n        /* \"#utility.yul\":7059:7062   */\n      dup3\n        /* \"#utility.yul\":7056:7057   */\n      0x02\n        /* \"#utility.yul\":7052:7063   */\n      mul\n        /* \"#utility.yul\":7046:7050   */\n      dup3\n        /* \"#utility.yul\":7043:7064   */\n      or\n        /* \"#utility.yul\":7035:7064   */\n      swap1\n      pop\n        /* \"#utility.yul\":6775:7070   */\n      swap3\n      swap2\n      pop\n      pop\n      jump\t// out\n        /* \"#utility.yul\":7075:8470   */\n    tag_34:\n        /* \"#utility.yul\":7192:7229   */\n      tag_154\n        /* \"#utility.yul\":7225:7228   */\n      dup3\n        /* \"#utility.yul\":7192:7229   */\n      tag_44\n      jump\t// in\n    tag_154:\n        /* \"#utility.yul\":7294:7312   */\n      0xffffffffffffffff\n        /* \"#utility.yul\":7286:7292   */\n      dup2\n        /* \"#utility.yul\":7283:7313   */\n      gt\n        /* \"#utility.yul\":7280:7336   */\n      iszero\n      tag_155\n      jumpi\n        /* \"#utility.yul\":7316:7334   */\n      tag_156\n      tag_57\n      jump\t// in\n    tag_156:\n        /* \"#utility.yul\":7280:7336   */\n    tag_155:\n        /* \"#utility.yul\":7360:7398   */\n      tag_157\n        /* \"#utility.yul\":7392:7396   */\n      dup3\n        /* \"#utility.yul\":7386:7397   */\n      sload\n        /* \"#utility.yul\":7360:7398   */\n      tag_27\n      jump\t// in\n    tag_157:\n        /* \"#utility.yul\":7445:7512   */\n      tag_158\n        /* \"#utility.yul\":7505:7511   */\n      dup3\n        /* \"#utility.yul\":7497:7503   */\n      dup3\n        /* \"#utility.yul\":7491:7495   */\n      dup6\n        /* \"#utility.yul\":7445:7512   */\n      tag_68\n      jump\t// in\n    tag_158:\n        /* \"#utility.yul\":7539:7540   */\n      0x00\n        /* \"#utility.yul\":7563:7567   */\n      0x20\n        /* \"#utility.yul\":7550:7567   */\n      swap1\n      pop\n        /* \"#utility.yul\":7595:7597   */\n      0x1f\n        /* \"#utility.yul\":7587:7593   */\n      dup4\n        /* \"#utility.yul\":7584:7598   */\n      gt\n        /* \"#utility.yul\":7612:7613   */\n      0x01\n        /* \"#utility.yul\":7607:8225   */\n      dup2\n      eq\n      tag_160\n      jumpi\n        /* \"#utility.yul\":8269:8270   */\n      0x00\n        /* \"#utility.yul\":8286:8292   */\n      dup5\n        /* \"#utility.yul\":8283:8360   */\n      iszero\n      tag_161\n      jumpi\n        /* \"#utility.yul\":8335:8344   */\n      dup3\n        /* \"#utility.yul\":8330:8333   */\n      dup8\n        /* \"#utility.yul\":8326:8345   */\n      add\n        /* \"#utility.yul\":8320:8346   */\n      mload\n        /* \"#utility.yul\":8311:8346   */\n      swap1\n      pop\n        /* \"#utility.yul\":8283:8360   */\n    tag_161:\n        /* \"#utility.yul\":8386:8453   */\n      tag_162\n        /* \"#utility.yul\":8446:8452   */\n      dup6\n        /* \"#utility.yul\":8439:8444   */\n      dup3\n        /* \"#utility.yul\":8386:8453   */\n      tag_71\n      jump\t// in\n    tag_162:\n        /* \"#utility.yul\":8380:8384   */\n      dup7\n        /* \"#utility.yul\":8373:8454   */\n      sstore\n        /* \"#utility.yul\":8242:8464   */\n      pop\n        /* \"#utility.yul\":7577:8464   */\n      jump(tag_159)\n        /* \"#utility.yul\":7607:8225   */\n    tag_160:\n        /* \"#utility.yul\":7659:7663   */\n      0x1f\n        /* \"#utility.yul\":7655:7664   */\n      not\n        /* \"#utility.yul\":7647:7653   */\n      dup5\n        /* \"#utility.yul\":7643:7665   */\n      and\n        /* \"#utility.yul\":7693:7730   */\n      tag_163\n        /* \"#utility.yul\":7725:7729   */\n      dup7\n        /* \"#utility.yul\":7693:7730   */\n      tag_58\n      jump\t// in\n    tag_163:\n        /* \"#utility.yul\":7752:7753   */\n      0x00\n        /* \"#utility.yul\":7766:7974   */\n    tag_164:\n        /* \"#utility.yul\":7780:7787   */\n      dup3\n        /* \"#utility.yul\":7777:7778   */\n      dup2\n        /* \"#utility.yul\":7774:7788   */\n      lt\n        /* \"#utility.yul\":7766:7974   */\n      iszero\n      tag_166\n      jumpi\n        /* \"#utility.yul\":7859:7868   */\n      dup5\n        /* \"#utility.yul\":7854:7857   */\n      dup10\n        /* \"#utility.yul\":7850:7869   */\n      add\n        /* \"#utility.yul\":7844:7870   */\n      mload\n        /* \"#utility.yul\":7836:7842   */\n      dup3\n        /* \"#utility.yul\":7829:7871   */\n      sstore\n        /* \"#utility.yul\":7910:7911   */\n      0x01\n        /* \"#utility.yul\":7902:7908   */\n      dup3\n        /* \"#utility.yul\":7898:7912   */\n      add\n        /* \"#utility.yul\":7888:7912   */\n      swap2\n      pop\n        /* \"#utility.yul\":7957:7959   */\n      0x20\n        /* \"#utility.yul\":7946:7955   */\n      dup6\n        /* \"#utility.yul\":7942:7960   */\n      add\n        /* \"#utility.yul\":7929:7960   */\n      swap5\n      pop\n        /* \"#utility.yul\":7803:7807   */\n      0x20\n        /* \"#utility.yul\":7800:7801   */\n      dup2\n        /* \"#utility.yul\":7796:7808   */\n      add\n        /* \"#utility.yul\":7791:7808   */\n      swap1\n      pop\n        /* \"#utility.yul\":7766:7974   */\n      jump(tag_164)\n    tag_166:\n        /* \"#utility.yul\":8002:8008   */\n      dup7\n        /* \"#utility.yul\":7993:8000   */\n      dup4\n        /* \"#utility.yul\":7990:8009   */\n      lt\n        /* \"#utility.yul\":7987:8166   */\n      iszero\n      tag_167\n      jumpi\n        /* \"#utility.yul\":8060:8069   */\n      dup5\n        /* \"#utility.yul\":8055:8058   */\n      dup10\n        /* \"#utility.yul\":8051:8070   */\n      add\n        /* \"#utility.yul\":8045:8071   */\n      mload\n        /* \"#utility.yul\":8103:8151   */\n      tag_168\n        /* \"#utility.yul\":8145:8149   */\n      0x1f\n        /* \"#utility.yul\":8137:8143   */\n      dup10\n        /* \"#utility.yul\":8133:8150   */\n      and\n        /* \"#utility.yul\":8122:8131   */\n      dup3\n        /* \"#utility.yul\":8103:8151   */\n      tag_70\n      jump\t// in\n    tag_168:\n        /* \"#utility.yul\":8095:8101   */\n      dup4\n        /* \"#utility.yul\":8088:8152   */\n      sstore\n        /* \"#utility.yul\":8010:8166   */\n      pop\n        /* \"#utility.yul\":7987:8166   */\n    tag_167:\n        /* \"#utility.yul\":8212:8213   */\n      0x01\n        /* \"#utility.yul\":8208:8209   */\n      0x02\n        /* \"#utility.yul\":8200:8206   */\n      dup9\n        /* \"#utility.yul\":8196:8210   */\n      mul\n        /* \"#utility.yul\":8192:8214   */\n      add\n        /* \"#utility.yul\":8186:8190   */\n      dup9\n        /* \"#utility.yul\":8179:8215   */\n      sstore\n        /* \"#utility.yul\":7614:8225   */\n      pop\n      pop\n      pop\n        /* \"#utility.yul\":7577:8464   */\n    tag_159:\n      pop\n        /* \"#utility.yul\":7167:8470   */\n      pop\n      pop\n      pop\n        /* \"#utility.yul\":7075:8470   */\n      pop\n      pop\n      jump\t// out\n        /* \"#utility.yul\":8476:8656   */\n    tag_72:\n        /* \"#utility.yul\":8524:8601   */\n      0x4e487b7100000000000000000000000000000000000000000000000000000000\n        /* \"#utility.yul\":8521:8522   */\n      0x00\n        /* \"#utility.yul\":8514:8602   */\n      mstore\n        /* \"#utility.yul\":8621:8625   */\n      0x11\n        /* \"#utility.yul\":8618:8619   */\n      0x04\n        /* \"#utility.yul\":8611:8626   */\n      mstore\n        /* \"#utility.yul\":8645:8649   */\n      0x24\n        /* \"#utility.yul\":8642:8643   */\n      0x00\n        /* \"#utility.yul\":8635:8650   */\n      revert\n        /* \"#utility.yul\":8662:8895   */\n    tag_36:\n        /* \"#utility.yul\":8701:8704   */\n      0x00\n        /* \"#utility.yul\":8724:8748   */\n      tag_171\n        /* \"#utility.yul\":8742:8747   */\n      dup3\n        /* \"#utility.yul\":8724:8748   */\n      tag_54\n      jump\t// in\n    tag_171:\n        /* \"#utility.yul\":8715:8748   */\n      swap2\n      pop\n        /* \"#utility.yul\":8770:8836   */\n      0xffffffffffffffffffffffffffffffffffffffffffffffffffffffffffffffff\n        /* \"#utility.yul\":8763:8768   */\n      dup3\n        /* \"#utility.yul\":8760:8837   */\n      sub\n        /* \"#utility.yul\":8757:8860   */\n      tag_172\n      jumpi\n        /* \"#utility.yul\":8840:8858   */\n      tag_173\n      tag_72\n      jump\t// in\n    tag_173:\n        /* \"#utility.yul\":8757:8860   */\n    tag_172:\n        /* \"#utility.yul\":8887:8888   */\n      0x01\n        /* \"#utility.yul\":8880:8885   */\n      dup3\n        /* \"#utility.yul\":8876:8889   */\n      add\n        /* \"#utility.yul\":8869:8889   */\n      swap1\n      pop\n        /* \"#utility.yul\":8662:8895   */\n      swap2\n      swap1\n      pop\n      jump\t// out\n\n    auxdata: 0xa264697066735822122038d4f50f42eaf7dddbad58921100c8c8c2919a81e9f82d43f3c9f14e8bf3167964736f6c63430008220033\n}\n",
				"bytecode": {
					"linkReferences": {},
					"object": "608060405234801561000f575f5ffd5b50604051610958380380610958833981810160405281019061003191906100d4565b805f5f6101000a81548173ffffffffffffffffffffffffffffffffffffffff021916908373ffffffffffffffffffffffffffffffffffffffff160217905550506100ff565b5f5ffd5b5f73ffffffffffffffffffffffffffffffffffffffff82169050919050565b5f6100a38261007a565b9050919050565b6100b381610099565b81146100bd575f5ffd5b50565b5f815190506100ce816100aa565b92915050565b5f602082840312156100e9576100e8610076565b5b5f6100f6848285016100c0565b91505092915050565b61084c8061010c5f395ff3fe608060405234801561000f575f5ffd5b5060043610610055575f3560e01c80631ec1f778146100595780632b526dcc1461007757806332083fcd14610095578063d4b839921461009f578063e88cc9a3146100bd575b5f5ffd5b6100616100db565b60405161006e9190610353565b60405180910390f35b61007f610100565b60405161008c91906103dc565b60405180910390f35b61009d61018c565b005b6100a76102ea565b6040516100b49190610457565b60405180910390f35b6100c561030e565b6040516100d29190610488565b60405180910390f35b60035f9054906101000a900473ffffffffffffffffffffffffffffffffffffffff1681565b6002805461010d906104ce565b80601f0160208091040260200160405190810160405280929190818152602001828054610139906104ce565b80156101845780601f1061015b57610100808354040283529160200191610184565b820191905f5260205f20905b81548152906001019060200180831161016757829003601f168201915b505050505081565b6040518060400160405280601481526020017f4265666f72652065787465726e616c2063616c6c000000000000000000000000815250600290816101d091906106d3565b503360035f6101000a81548173ffffffffffffffffffffffffffffffffffffffff021916908373ffffffffffffffffffffffffffffffffffffffff16021790555060015f815480929190610223906107cf565b91905055505f5f9054906101000a900473ffffffffffffffffffffffffffffffffffffffff1673ffffffffffffffffffffffffffffffffffffffff1663a341a91b6040518163ffffffff1660e01b81526004015f604051808303815f87803b15801561028d575f5ffd5b505af115801561029f573d5f5f3e3d5ffd5b505050506040518060400160405280601381526020017f41667465722065787465726e616c2063616c6c00000000000000000000000000815250600290816102e791906106d3565b50565b5f5f9054906101000a900473ffffffffffffffffffffffffffffffffffffffff1681565b60015481565b5f73ffffffffffffffffffffffffffffffffffffffff82169050919050565b5f61033d82610314565b9050919050565b61034d81610333565b82525050565b5f6020820190506103665f830184610344565b92915050565b5f81519050919050565b5f82825260208201905092915050565b8281835e5f83830152505050565b5f601f19601f8301169050919050565b5f6103ae8261036c565b6103b88185610376565b93506103c8818560208601610386565b6103d181610394565b840191505092915050565b5f6020820190508181035f8301526103f481846103a4565b905092915050565b5f819050919050565b5f61041f61041a61041584610314565b6103fc565b610314565b9050919050565b5f61043082610405565b9050919050565b5f61044182610426565b9050919050565b61045181610437565b82525050565b5f60208201905061046a5f830184610448565b92915050565b5f819050919050565b61048281610470565b82525050565b5f60208201905061049b5f830184610479565b92915050565b7f4e487b71000000000000000000000000000000000000000000000000000000005f52602260045260245ffd5b5f60028204905060018216806104e557607f821691505b6020821081036104f8576104f76104a1565b5b50919050565b7f4e487b71000000000000000000000000000000000000000000000000000000005f52604160045260245ffd5b5f819050815f5260205f209050919050565b5f6020601f8301049050919050565b5f82821b905092915050565b5f600883026105877fffffffffffffffffffffffffffffffffffffffffffffffffffffffffffffffff8261054c565b610591868361054c565b95508019841693508086168417925050509392505050565b5f6105c36105be6105b984610470565b6103fc565b610470565b9050919050565b5f819050919050565b6105dc836105a9565b6105f06105e8826105ca565b848454610558565b825550505050565b5f5f905090565b6106076105f8565b6106128184846105d3565b505050565b5f5b828110156106385761062d5f8284016105ff565b600181019050610619565b505050565b601f82111561068b578282111561068a576106578161052b565b6106608361053d565b6106698561053d565b6020861015610676575f90505b80830161068582840382610617565b505050505b5b505050565b5f82821c905092915050565b5f6106ab5f1984600802610690565b1980831691505092915050565b5f6106c3838361069c565b9150826002028217905092915050565b6106dc8261036c565b67ffffffffffffffff8111156106f5576106f46104fe565b5b6106ff82546104ce565b61070a82828561063d565b5f60209050601f83116001811461073b575f8415610729578287015190505b61073385826106b8565b86555061079a565b601f1984166107498661052b565b5f5b828110156107705784890151825560018201915060208501945060208101905061074b565b8683101561078d5784890151610789601f89168261069c565b8355505b6001600288020188555050505b505050505050565b7f4e487b71000000000000000000000000000000000000000000000000000000005f52601160045260245ffd5b5f6107d982610470565b91507fffffffffffffffffffffffffffffffffffffffffffffffffffffffffffffffff820361080b5761080a6107a2565b5b60018201905091905056fea264697066735822122038d4f50f42eaf7dddbad58921100c8c8c2919a81e9f82d43f3c9f14e8bf3167964736f6c63430008220033",
					"opcodes": "PUSH1 0x80 PUSH1 0x40 MSTORE CALLVALUE DUP1 ISZERO PUSH2 0xF JUMPI PUSH0 PUSH0 REVERT JUMPDEST POP PUSH1 0x40 MLOAD PUSH2 0x958 CODESIZE SUB DUP1 PUSH2 0x958 DUP4 CODECOPY DUP2 DUP2 ADD PUSH1 0x40 MSTORE DUP2 ADD SWAP1 PUSH2 0x31 SWAP2 SWAP1 PUSH2 0xD4 JUMP JUMPDEST DUP1 PUSH0 PUSH0 PUSH2 0x100 EXP DUP2 SLOAD DUP2 PUSH20 0xFFFFFFFFFFFFFFFFFFFFFFFFFFFFFFFFFFFFFFFF MUL NOT AND SWAP1 DUP4 PUSH20 0xFFFFFFFFFFFFFFFFFFFFFFFFFFFFFFFFFFFFFFFF AND MUL OR SWAP1 SSTORE POP POP PUSH2 0xFF JUMP JUMPDEST PUSH0 PUSH0 REVERT JUMPDEST PUSH0 PUSH20 0xFFFFFFFFFFFFFFFFFFFFFFFFFFFFFFFFFFFFFFFF DUP3 AND SWAP1 POP SWAP2 SWAP1 POP JUMP JUMPDEST PUSH0 PUSH2 0xA3 DUP3 PUSH2 0x7A JUMP JUMPDEST SWAP1 POP SWAP2 SWAP1 POP JUMP JUMPDEST PUSH2 0xB3 DUP2 PUSH2 0x99 JUMP JUMPDEST DUP2 EQ PUSH2 0xBD JUMPI PUSH0 PUSH0 REVERT JUMPDEST POP JUMP JUMPDEST PUSH0 DUP2 MLOAD SWAP1 POP PUSH2 0xCE DUP2 PUSH2 0xAA JUMP JUMPDEST SWAP3 SWAP2 POP POP JUMP JUMPDEST PUSH0 PUSH1 0x20 DUP3 DUP5 SUB SLT ISZERO PUSH2 0xE9 JUMPI PUSH2 0xE8 PUSH2 0x76 JUMP JUMPDEST JUMPDEST PUSH0 PUSH2 0xF6 DUP5 DUP3 DUP6 ADD PUSH2 0xC0 JUMP JUMPDEST SWAP2 POP POP SWAP3 SWAP2 POP POP JUMP JUMPDEST PUSH2 0x84C DUP1 PUSH2 0x10C PUSH0 CODECOPY PUSH0 RETURN INVALID PUSH1 0x80 PUSH1 0x40 MSTORE CALLVALUE DUP1 ISZERO PUSH2 0xF JUMPI PUSH0 PUSH0 REVERT JUMPDEST POP PUSH1 0x4 CALLDATASIZE LT PUSH2 0x55 JUMPI PUSH0 CALLDATALOAD PUSH1 0xE0 SHR DUP1 PUSH4 0x1EC1F778 EQ PUSH2 0x59 JUMPI DUP1 PUSH4 0x2B526DCC EQ PUSH2 0x77 JUMPI DUP1 PUSH4 0x32083FCD EQ PUSH2 0x95 JUMPI DUP1 PUSH4 0xD4B83992 EQ PUSH2 0x9F JUMPI DUP1 PUSH4 0xE88CC9A3 EQ PUSH2 0xBD JUMPI JUMPDEST PUSH0 PUSH0 REVERT JUMPDEST PUSH2 0x61 PUSH2 0xDB JUMP JUMPDEST PUSH1 0x40 MLOAD PUSH2 0x6E SWAP2 SWAP1 PUSH2 0x353 JUMP JUMPDEST PUSH1 0x40 MLOAD DUP1 SWAP2 SUB SWAP1 RETURN JUMPDEST PUSH2 0x7F PUSH2 0x100 JUMP JUMPDEST PUSH1 0x40 MLOAD PUSH2 0x8C SWAP2 SWAP1 PUSH2 0x3DC JUMP JUMPDEST PUSH1 0x40 MLOAD DUP1 SWAP2 SUB SWAP1 RETURN JUMPDEST PUSH2 0x9D PUSH2 0x18C JUMP JUMPDEST STOP JUMPDEST PUSH2 0xA7 PUSH2 0x2EA JUMP JUMPDEST PUSH1 0x40 MLOAD PUSH2 0xB4 SWAP2 SWAP1 PUSH2 0x457 JUMP JUMPDEST PUSH1 0x40 MLOAD DUP1 SWAP2 SUB SWAP1 RETURN JUMPDEST PUSH2 0xC5 PUSH2 0x30E JUMP JUMPDEST PUSH1 0x40 MLOAD PUSH2 0xD2 SWAP2 SWAP1 PUSH2 0x488 JUMP JUMPDEST PUSH1 0x40 MLOAD DUP1 SWAP2 SUB SWAP1 RETURN JUMPDEST PUSH1 0x3 PUSH0 SWAP1 SLOAD SWAP1 PUSH2 0x100 EXP SWAP1 DIV PUSH20 0xFFFFFFFFFFFFFFFFFFFFFFFFFFFFFFFFFFFFFFFF AND DUP2 JUMP JUMPDEST PUSH1 0x2 DUP1 SLOAD PUSH2 0x10D SWAP1 PUSH2 0x4CE JUMP JUMPDEST DUP1 PUSH1 0x1F ADD PUSH1 0x20 DUP1 SWAP2 DIV MUL PUSH1 0x20 ADD PUSH1 0x40 MLOAD SWAP1 DUP2 ADD PUSH1 0x40 MSTORE DUP1 SWAP3 SWAP2 SWAP1 DUP2 DUP2 MSTORE PUSH1 0x20 ADD DUP3 DUP1 SLOAD PUSH2 0x139 SWAP1 PUSH2 0x4CE JUMP JUMPDEST DUP1 ISZERO PUSH2 0x184 JUMPI DUP1 PUSH1 0x1F LT PUSH2 0x15B JUMPI PUSH2 0x100 DUP1 DUP4 SLOAD DIV MUL DUP4 MSTORE SWAP2 PUSH1 0x20 ADD SWAP2 PUSH2 0x184 JUMP JUMPDEST DUP3 ADD SWAP2 SWAP1 PUSH0 MSTORE PUSH1 0x20 PUSH0 KECCAK256 SWAP1 JUMPDEST DUP2 SLOAD DUP2 MSTORE SWAP1 PUSH1 0x1 ADD SWAP1 PUSH1 0x20 ADD DUP1 DUP4 GT PUSH2 0x167 JUMPI DUP3 SWAP1 SUB PUSH1 0x1F AND DUP3 ADD SWAP2 JUMPDEST POP POP POP POP POP DUP2 JUMP JUMPDEST PUSH1 0x40 MLOAD DUP1 PUSH1 0x40 ADD PUSH1 0x40 MSTORE DUP1 PUSH1 0x14 DUP2 MSTORE PUSH1 0x20 ADD PUSH32 0x4265666F72652065787465726E616C2063616C6C000000000000000000000000 DUP2 MSTORE POP PUSH1 0x2 SWAP1 DUP2 PUSH2 0x1D0 SWAP2 SWAP1 PUSH2 0x6D3 JUMP JUMPDEST POP CALLER PUSH1 0x3 PUSH0 PUSH2 0x100 EXP DUP2 SLOAD DUP2 PUSH20 0xFFFFFFFFFFFFFFFFFFFFFFFFFFFFFFFFFFFFFFFF MUL NOT AND SWAP1 DUP4 PUSH20 0xFFFFFFFFFFFFFFFFFFFFFFFFFFFFFFFFFFFFFFFF AND MUL OR SWAP1 SSTORE POP PUSH1 0x1 PUSH0 DUP2 SLOAD DUP1 SWAP3 SWAP2 SWAP1 PUSH2 0x223 SWAP1 PUSH2 0x7CF JUMP JUMPDEST SWAP2 SWAP1 POP SSTORE POP PUSH0 PUSH0 SWAP1 SLOAD SWAP1 PUSH2 0x100 EXP SWAP1 DIV PUSH20 0xFFFFFFFFFFFFFFFFFFFFFFFFFFFFFFFFFFFFFFFF AND PUSH20 0xFFFFFFFFFFFFFFFFFFFFFFFFFFFFFFFFFFFFFFFF AND PUSH4 0xA341A91B PUSH1 0x40 MLOAD DUP2 PUSH4 0xFFFFFFFF AND PUSH1 0xE0 SHL DUP2 MSTORE PUSH1 0x4 ADD PUSH0 PUSH1 0x40 MLOAD DUP1 DUP4 SUB DUP2 PUSH0 DUP8 DUP1 EXTCODESIZE ISZERO DUP1 ISZERO PUSH2 0x28D JUMPI PUSH0 PUSH0 REVERT JUMPDEST POP GAS CALL ISZERO DUP1 ISZERO PUSH2 0x29F JUMPI RETURNDATASIZE PUSH0 PUSH0 RETURNDATACOPY RETURNDATASIZE PUSH0 REVERT JUMPDEST POP POP POP POP PUSH1 0x40 MLOAD DUP1 PUSH1 0x40 ADD PUSH1 0x40 MSTORE DUP1 PUSH1 0x13 DUP2 MSTORE PUSH1 0x20 ADD PUSH32 0x41667465722065787465726E616C2063616C6C00000000000000000000000000 DUP2 MSTORE POP PUSH1 0x2 SWAP1 DUP2 PUSH2 0x2E7 SWAP2 SWAP1 PUSH2 0x6D3 JUMP JUMPDEST POP JUMP JUMPDEST PUSH0 PUSH0 SWAP1 SLOAD SWAP1 PUSH2 0x100 EXP SWAP1 DIV PUSH20 0xFFFFFFFFFFFFFFFFFFFFFFFFFFFFFFFFFFFFFFFF AND DUP2 JUMP JUMPDEST PUSH1 0x1 SLOAD DUP2 JUMP JUMPDEST PUSH0 PUSH20 0xFFFFFFFFFFFFFFFFFFFFFFFFFFFFFFFFFFFFFFFF DUP3 AND SWAP1 POP SWAP2 SWAP1 POP JUMP JUMPDEST PUSH0 PUSH2 0x33D DUP3 PUSH2 0x314 JUMP JUMPDEST SWAP1 POP SWAP2 SWAP1 POP JUMP JUMPDEST PUSH2 0x34D DUP2 PUSH2 0x333 JUMP JUMPDEST DUP3 MSTORE POP POP JUMP JUMPDEST PUSH0 PUSH1 0x20 DUP3 ADD SWAP1 POP PUSH2 0x366 PUSH0 DUP4 ADD DUP5 PUSH2 0x344 JUMP JUMPDEST SWAP3 SWAP2 POP POP JUMP JUMPDEST PUSH0 DUP2 MLOAD SWAP1 POP SWAP2 SWAP1 POP JUMP JUMPDEST PUSH0 DUP3 DUP3 MSTORE PUSH1 0x20 DUP3 ADD SWAP1 POP SWAP3 SWAP2 POP POP JUMP JUMPDEST DUP3 DUP2 DUP4 MCOPY PUSH0 DUP4 DUP4 ADD MSTORE POP POP POP JUMP JUMPDEST PUSH0 PUSH1 0x1F NOT PUSH1 0x1F DUP4 ADD AND SWAP1 POP SWAP2 SWAP1 POP JUMP JUMPDEST PUSH0 PUSH2 0x3AE DUP3 PUSH2 0x36C JUMP JUMPDEST PUSH2 0x3B8 DUP2 DUP6 PUSH2 0x376 JUMP JUMPDEST SWAP4 POP PUSH2 0x3C8 DUP2 DUP6 PUSH1 0x20 DUP7 ADD PUSH2 0x386 JUMP JUMPDEST PUSH2 0x3D1 DUP2 PUSH2 0x394 JUMP JUMPDEST DUP5 ADD SWAP2 POP POP SWAP3 SWAP2 POP POP JUMP JUMPDEST PUSH0 PUSH1 0x20 DUP3 ADD SWAP1 POP DUP2 DUP2 SUB PUSH0 DUP4 ADD MSTORE PUSH2 0x3F4 DUP2 DUP5 PUSH2 0x3A4 JUMP JUMPDEST SWAP1 POP SWAP3 SWAP2 POP POP JUMP JUMPDEST PUSH0 DUP2 SWAP1 POP SWAP2 SWAP1 POP JUMP JUMPDEST PUSH0 PUSH2 0x41F PUSH2 0x41A PUSH2 0x415 DUP5 PUSH2 0x314 JUMP JUMPDEST PUSH2 0x3FC JUMP JUMPDEST PUSH2 0x314 JUMP JUMPDEST SWAP1 POP SWAP2 SWAP1 POP JUMP JUMPDEST PUSH0 PUSH2 0x430 DUP3 PUSH2 0x405 JUMP JUMPDEST SWAP1 POP SWAP2 SWAP1 POP JUMP JUMPDEST PUSH0 PUSH2 0x441 DUP3 PUSH2 0x426 JUMP JUMPDEST SWAP1 POP SWAP2 SWAP1 POP JUMP JUMPDEST PUSH2 0x451 DUP2 PUSH2 0x437 JUMP JUMPDEST DUP3 MSTORE POP POP JUMP JUMPDEST PUSH0 PUSH1 0x20 DUP3 ADD SWAP1 POP PUSH2 0x46A PUSH0 DUP4 ADD DUP5 PUSH2 0x448 JUMP JUMPDEST SWAP3 SWAP2 POP POP JUMP JUMPDEST PUSH0 DUP2 SWAP1 POP SWAP2 SWAP1 POP JUMP JUMPDEST PUSH2 0x482 DUP2 PUSH2 0x470 JUMP JUMPDEST DUP3 MSTORE POP POP JUMP JUMPDEST PUSH0 PUSH1 0x20 DUP3 ADD SWAP1 POP PUSH2 0x49B PUSH0 DUP4 ADD DUP5 PUSH2 0x479 JUMP JUMPDEST SWAP3 SWAP2 POP POP JUMP JUMPDEST PUSH32 0x4E487B7100000000000000000000000000000000000000000000000000000000 PUSH0 MSTORE PUSH1 0x22 PUSH1 0x4 MSTORE PUSH1 0x24 PUSH0 REVERT JUMPDEST PUSH0 PUSH1 0x2 DUP3 DIV SWAP1 POP PUSH1 0x1 DUP3 AND DUP1 PUSH2 0x4E5 JUMPI PUSH1 0x7F DUP3 AND SWAP2 POP JUMPDEST PUSH1 0x20 DUP3 LT DUP2 SUB PUSH2 0x4F8 JUMPI PUSH2 0x4F7 PUSH2 0x4A1 JUMP JUMPDEST JUMPDEST POP SWAP2 SWAP1 POP JUMP JUMPDEST PUSH32 0x4E487B7100000000000000000000000000000000000000000000000000000000 PUSH0 MSTORE PUSH1 0x41 PUSH1 0x4 MSTORE PUSH1 0x24 PUSH0 REVERT JUMPDEST PUSH0 DUP2 SWAP1 POP DUP2 PUSH0 MSTORE PUSH1 0x20 PUSH0 KECCAK256 SWAP1 POP SWAP2 SWAP1 POP JUMP JUMPDEST PUSH0 PUSH1 0x20 PUSH1 0x1F DUP4 ADD DIV SWAP1 POP SWAP2 SWAP1 POP JUMP JUMPDEST PUSH0 DUP3 DUP3 SHL SWAP1 POP SWAP3 SWAP2 POP POP JUMP JUMPDEST PUSH0 PUSH1 0x8 DUP4 MUL PUSH2 0x587 PUSH32 0xFFFFFFFFFFFFFFFFFFFFFFFFFFFFFFFFFFFFFFFFFFFFFFFFFFFFFFFFFFFFFFFF DUP3 PUSH2 0x54C JUMP JUMPDEST PUSH2 0x591 DUP7 DUP4 PUSH2 0x54C JUMP JUMPDEST SWAP6 POP DUP1 NOT DUP5 AND SWAP4 POP DUP1 DUP7 AND DUP5 OR SWAP3 POP POP POP SWAP4 SWAP3 POP POP POP JUMP JUMPDEST PUSH0 PUSH2 0x5C3 PUSH2 0x5BE PUSH2 0x5B9 DUP5 PUSH2 0x470 JUMP JUMPDEST PUSH2 0x3FC JUMP JUMPDEST PUSH2 0x470 JUMP JUMPDEST SWAP1 POP SWAP2 SWAP1 POP JUMP JUMPDEST PUSH0 DUP2 SWAP1 POP SWAP2 SWAP1 POP JUMP JUMPDEST PUSH2 0x5DC DUP4 PUSH2 0x5A9 JUMP JUMPDEST PUSH2 0x5F0 PUSH2 0x5E8 DUP3 PUSH2 0x5CA JUMP JUMPDEST DUP5 DUP5 SLOAD PUSH2 0x558 JUMP JUMPDEST DUP3 SSTORE POP POP POP POP JUMP JUMPDEST PUSH0 PUSH0 SWAP1 POP SWAP1 JUMP JUMPDEST PUSH2 0x607 PUSH2 0x5F8 JUMP JUMPDEST PUSH2 0x612 DUP2 DUP5 DUP5 PUSH2 0x5D3 JUMP JUMPDEST POP POP POP JUMP JUMPDEST PUSH0 JUMPDEST DUP3 DUP2 LT ISZERO PUSH2 0x638 JUMPI PUSH2 0x62D PUSH0 DUP3 DUP5 ADD PUSH2 0x5FF JUMP JUMPDEST PUSH1 0x1 DUP2 ADD SWAP1 POP PUSH2 0x619 JUMP JUMPDEST POP POP POP JUMP JUMPDEST PUSH1 0x1F DUP3 GT ISZERO PUSH2 0x68B JUMPI DUP3 DUP3 GT ISZERO PUSH2 0x68A JUMPI PUSH2 0x657 DUP2 PUSH2 0x52B JUMP JUMPDEST PUSH2 0x660 DUP4 PUSH2 0x53D JUMP JUMPDEST PUSH2 0x669 DUP6 PUSH2 0x53D JUMP JUMPDEST PUSH1 0x20 DUP7 LT ISZERO PUSH2 0x676 JUMPI PUSH0 SWAP1 POP JUMPDEST DUP1 DUP4 ADD PUSH2 0x685 DUP3 DUP5 SUB DUP3 PUSH2 0x617 JUMP JUMPDEST POP POP POP POP JUMPDEST JUMPDEST POP POP POP JUMP JUMPDEST PUSH0 DUP3 DUP3 SHR SWAP1 POP SWAP3 SWAP2 POP POP JUMP JUMPDEST PUSH0 PUSH2 0x6AB PUSH0 NOT DUP5 PUSH1 0x8 MUL PUSH2 0x690 JUMP JUMPDEST NOT DUP1 DUP4 AND SWAP2 POP POP SWAP3 SWAP2 POP POP JUMP JUMPDEST PUSH0 PUSH2 0x6C3 DUP4 DUP4 PUSH2 0x69C JUMP JUMPDEST SWAP2 POP DUP3 PUSH1 0x2 MUL DUP3 OR SWAP1 POP SWAP3 SWAP2 POP POP JUMP JUMPDEST PUSH2 0x6DC DUP3 PUSH2 0x36C JUMP JUMPDEST PUSH8 0xFFFFFFFFFFFFFFFF DUP2 GT ISZERO PUSH2 0x6F5 JUMPI PUSH2 0x6F4 PUSH2 0x4FE JUMP JUMPDEST JUMPDEST PUSH2 0x6FF DUP3 SLOAD PUSH2 0x4CE JUMP JUMPDEST PUSH2 0x70A DUP3 DUP3 DUP6 PUSH2 0x63D JUMP JUMPDEST PUSH0 PUSH1 0x20 SWAP1 POP PUSH1 0x1F DUP4 GT PUSH1 0x1 DUP2 EQ PUSH2 0x73B JUMPI PUSH0 DUP5 ISZERO PUSH2 0x729 JUMPI DUP3 DUP8 ADD MLOAD SWAP1 POP JUMPDEST PUSH2 0x733 DUP6 DUP3 PUSH2 0x6B8 JUMP JUMPDEST DUP7 SSTORE POP PUSH2 0x79A JUMP JUMPDEST PUSH1 0x1F NOT DUP5 AND PUSH2 0x749 DUP7 PUSH2 0x52B JUMP JUMPDEST PUSH0 JUMPDEST DUP3 DUP2 LT ISZERO PUSH2 0x770 JUMPI DUP5 DUP10 ADD MLOAD DUP3 SSTORE PUSH1 0x1 DUP3 ADD SWAP2 POP PUSH1 0x20 DUP6 ADD SWAP5 POP PUSH1 0x20 DUP2 ADD SWAP1 POP PUSH2 0x74B JUMP JUMPDEST DUP7 DUP4 LT ISZERO PUSH2 0x78D JUMPI DUP5 DUP10 ADD MLOAD PUSH2 0x789 PUSH1 0x1F DUP10 AND DUP3 PUSH2 0x69C JUMP JUMPDEST DUP4 SSTORE POP JUMPDEST PUSH1 0x1 PUSH1 0x2 DUP9 MUL ADD DUP9 SSTORE POP POP POP JUMPDEST POP POP POP POP POP POP JUMP JUMPDEST PUSH32 0x4E487B7100000000000000000000000000000000000000000000000000000000 PUSH0 MSTORE PUSH1 0x11 PUSH1 0x4 MSTORE PUSH1 0x24 PUSH0 REVERT JUMPDEST PUSH0 PUSH2 0x7D9 DUP3 PUSH2 0x470 JUMP JUMPDEST SWAP2 POP PUSH32 0xFFFFFFFFFFFFFFFFFFFFFFFFFFFFFFFFFFFFFFFFFFFFFFFFFFFFFFFFFFFFFFFF DUP3 SUB PUSH2 0x80B JUMPI PUSH2 0x80A PUSH2 0x7A2 JUMP JUMPDEST JUMPDEST PUSH1 0x1 DUP3 ADD SWAP1 POP SWAP2 SWAP1 POP JUMP INVALID LOG2 PUSH5 0x6970667358 0x22 SLT KECCAK256 CODESIZE 0xD4 CREATE2 0xF TIMESTAMP 0xEA 0xF7 0xDD 0xDB 0xAD PC SWAP3 GT STOP 0xC8 0xC8 0xC2 SWAP2 SWAP11 DUP2 0xE9 EXTCALL 0x2D NUMBER RETURN 0xC9 CALL 0x4E DUP12 RETURN AND PUSH26 0x64736F6C63430008220033000000000000000000000000000000 "
				},
				"gasEstimates": {
					"creation": {
						"codeDepositCost": "424800",
						"executionCost": "infinite",
						"totalCost": "infinite"
					},
					"external": {
						"executionStage()": "infinite",
						"lastObservedSender()": "2486",
						"localCounter()": "2491",
						"target()": "infinite",
						"traceExecution()": "infinite"
					}
				},
				"methodIdentifiers": {
					"executionStage()": "2b526dcc",
					"lastObservedSender()": "1ec1f778",
					"localCounter()": "e88cc9a3",
					"target()": "d4b83992",
					"traceExecution()": "32083fcd"
				}
			},
			"storageLayout": {
				"storage": [
					{
						"astId": 21,
						"contract": "val65.sol:ExecutionTracerval",
						"label": "target",
						"offset": 0,
						"slot": "0",
						"type": "t_contract(ExternalTarget)133"
					},
					{
						"astId": 23,
						"contract": "val65.sol:ExecutionTracerval",
						"label": "localCounter",
						"offset": 0,
						"slot": "1",
						"type": "t_uint256"
					},
					{
						"astId": 25,
						"contract": "val65.sol:ExecutionTracerval",
						"label": "executionStage",
						"offset": 0,
						"slot": "2",
						"type": "t_string_storage"
					},
					{
						"astId": 27,
						"contract": "val65.sol:ExecutionTracerval",
						"label": "lastObservedSender",
						"offset": 0,
						"slot": "3",
						"type": "t_address"
					}
				],
				"types": {
					"t_address": {
						"encoding": "inplace",
						"label": "address",
						"numberOfBytes": "20"
					},
					"t_contract(ExternalTarget)133": {
						"encoding": "inplace",
						"label": "contract ExternalTarget",
						"numberOfBytes": "20"
					},
					"t_string_storage": {
						"encoding": "bytes",
						"label": "string",
						"numberOfBytes": "32"
					},
					"t_uint256": {
						"encoding": "inplace",
						"label": "uint256",
						"numberOfBytes": "32"
					}
				}
			},
			"userdoc": {
				"kind": "user",
				"methods": {},
				"version": 1
			}
		}
	}
}