{
	"val65.sol": {
		"ExternalTarget": {
			"abi": [
				{
					"anonymous": false,
					"inputs": [
						{
							"indexed": false,
							"internalType": "address",
							"name": "sender",
							"type": "address"
						},
						{
							"indexed": false,
							"internalType": "uint256",
							"name": "amount",
							"type": "uint256"
						}
					],
					"name": "ETHReceived",
					"type": "event"
				},
				{
					"anonymous": false,
					"inputs": [
						{
							"indexed": false,
							"internalType": "address",
							"name": "caller",
							"type": "address"
						},
						{
							"indexed": false,
							"internalType": "uint256",
							"name": "value",
							"type": "uint256"
						}
					],
					"name": "TargetExecuted",
					"type": "event"
				},
				{
					"inputs": [],
					"name": "currentStage",
					"outputs": [
						{
							"internalType": "string",
							"name": "",
							"type": "string"
						}
					],
					"stateMutability": "view",
					"type": "function"
				},
				{
					"inputs": [],
					"name": "executionCounter",
					"outputs": [
						{
							"internalType": "uint256",
							"name": "",
							"type": "uint256"
						}
					],
					"stateMutability": "view",
					"type": "function"
				},
				{
					"inputs": [],
					"name": "failFunction",
					"outputs": [],
					"stateMutability": "pure",
					"type": "function"
				},
				{
					"inputs": [],
					"name": "lastCaller",
					"outputs": [
						{
							"internalType": "address",
							"name": "",
							"type": "address"
						}
					],
					"stateMutability": "view",
					"type": "function"
				},
				{
					"inputs": [],
					"name": "targetFunction",
					"outputs": [],
					"stateMutability": "payable",
					"type": "function"
				},
				{
					"inputs": [],
					"name": "totalETHReceived",
					"outputs": [
						{
							"internalType": "uint256",
							"name": "",
							"type": "uint256"
						}
					],
					"stateMutability": "view",
					"type": "function"
				},
				{
					"stateMutability": "payable",
					"type": "receive"
				}
			],
			"devdoc": {
				"kind": "dev",
				"methods": {},
				"version": 1
			},
			"evm": {
				"assembly": "    /* \"val65.sol\":16872:18610  contract ExternalTarget {... */\n  mstore(0x40, 0x80)\n  callvalue\n  dup1\n  iszero\n  tag_1\n  jumpi\n  revert(0x00, 0x00)\ntag_1:\n  pop\n  dataSize(sub_0)\n  dup1\n  dataOffset(sub_0)\n  0x00\n  codecopy\n  0x00\n  return\nstop\n\nsub_0: assembly {\n        /* \"val65.sol\":16872:18610  contract ExternalTarget {... */\n      mstore(0x40, 0x80)\n      jumpi(tag_1, lt(calldatasize, 0x04))\n      shr(0xe0, calldataload(0x00))\n      dup1\n      0x2113522a\n      eq\n      tag_3\n      jumpi\n      dup1\n      0x5bf5d54c\n      eq\n      tag_4\n      jumpi\n      dup1\n      0x6e1682a0\n      eq\n      tag_5\n      jumpi\n      dup1\n      0xa341a91b\n      eq\n      tag_6\n      jumpi\n      dup1\n      0xc6a50809\n      eq\n      tag_7\n      jumpi\n      dup1\n      0xca463e19\n      eq\n      tag_8\n      jumpi\n      jump(tag_2)\n    tag_1:\n      jumpi(tag_2, calldatasize)\n        /* \"val65.sol\":17780:17789  msg.value */\n      callvalue\n        /* \"val65.sol\":17760:17776  totalETHReceived */\n      0x02\n      0x00\n        /* \"val65.sol\":17760:17789  totalETHReceived += msg.value */\n      dup3\n      dup3\n      sload\n      tag_11\n      swap2\n      swap1\n      tag_12\n      jump\t// in\n    tag_11:\n      swap3\n      pop\n      pop\n      dup2\n      swap1\n      sstore\n      pop\n        /* \"val65.sol\":17807:17878  ETHReceived(... */\n      0xbfe611b001dfcd411432f7bf0d79b82b4b2ee81511edac123a3403c357fb972a\n        /* \"val65.sol\":17833:17843  msg.sender */\n      caller\n        /* \"val65.sol\":17858:17867  msg.value */\n      callvalue\n        /* \"val65.sol\":17807:17878  ETHReceived(... */\n      mload(0x40)\n      tag_13\n      swap3\n      swap2\n      swap1\n      tag_14\n      jump\t// in\n    tag_13:\n      mload(0x40)\n      dup1\n      swap2\n      sub\n      swap1\n      log1\n        /* \"val65.sol\":16872:18610  contract ExternalTarget {... */\n      stop\n    tag_2:\n      revert(0x00, 0x00)\n        /* \"val65.sol\":16948:16973  address public lastCaller */\n    tag_3:\n      callvalue\n      dup1\n      iszero\n      tag_15\n      jumpi\n      revert(0x00, 0x00)\n    tag_15:\n      pop\n      tag_16\n      tag_17\n      jump\t// in\n    tag_16:\n      mload(0x40)\n      tag_18\n      swap2\n      swap1\n      tag_19\n      jump\t// in\n    tag_18:\n      mload(0x40)\n      dup1\n      swap2\n      sub\n      swap1\n      return\n        /* \"val65.sol\":17195:17221  string public currentStage */\n    tag_4:\n      callvalue\n      dup1\n      iszero\n      tag_20\n      jumpi\n      revert(0x00, 0x00)\n    tag_20:\n      pop\n      tag_21\n      tag_22\n      jump\t// in\n    tag_21:\n      mload(0x40)\n      tag_23\n      swap2\n      swap1\n      tag_24\n      jump\t// in\n    tag_23:\n      mload(0x40)\n      dup1\n      swap2\n      sub\n      swap1\n      return\n        /* \"val65.sol\":17108:17139  uint256 public totalETHReceived */\n    tag_5:\n      callvalue\n      dup1\n      iszero\n      tag_25\n      jumpi\n      revert(0x00, 0x00)\n    tag_25:\n      pop\n      tag_26\n      tag_27\n      jump\t// in\n    tag_26:\n      mload(0x40)\n      tag_28\n      swap2\n      swap1\n      tag_29\n      jump\t// in\n    tag_28:\n      mload(0x40)\n      dup1\n      swap2\n      sub\n      swap1\n      return\n        /* \"val65.sol\":18051:18340  function targetFunction()... */\n    tag_6:\n      tag_30\n      tag_31\n      jump\t// in\n    tag_30:\n      stop\n        /* \"val65.sol\":17024:17055  uint256 public executionCounter */\n    tag_7:\n      callvalue\n      dup1\n      iszero\n      tag_32\n      jumpi\n      revert(0x00, 0x00)\n    tag_32:\n      pop\n      tag_33\n      tag_34\n      jump\t// in\n    tag_33:\n      mload(0x40)\n      tag_35\n      swap2\n      swap1\n      tag_29\n      jump\t// in\n    tag_35:\n      mload(0x40)\n      dup1\n      swap2\n      sub\n      swap1\n      return\n        /* \"val65.sol\":18503:18607  function failFunction()... */\n    tag_8:\n      callvalue\n      dup1\n      iszero\n      tag_36\n      jumpi\n      revert(0x00, 0x00)\n    tag_36:\n      pop\n      tag_37\n      tag_38\n      jump\t// in\n    tag_37:\n      stop\n        /* \"val65.sol\":16948:16973  address public lastCaller */\n    tag_17:\n      0x00\n      0x00\n      swap1\n      sload\n      swap1\n      0x0100\n      exp\n      swap1\n      div\n      0xffffffffffffffffffffffffffffffffffffffff\n      and\n      dup2\n      jump\t// out\n        /* \"val65.sol\":17195:17221  string public currentStage */\n    tag_22:\n      0x03\n      dup1\n      sload\n      tag_39\n      swap1\n      tag_40\n      jump\t// in\n    tag_39:\n      dup1\n      0x1f\n      add\n      0x20\n      dup1\n      swap2\n      div\n      mul\n      0x20\n      add\n      mload(0x40)\n      swap1\n      dup2\n      add\n      0x40\n      mstore\n      dup1\n      swap3\n      swap2\n      swap1\n      dup2\n      dup2\n      mstore\n      0x20\n      add\n      dup3\n      dup1\n      sload\n      tag_41\n      swap1\n      tag_40\n      jump\t// in\n    tag_41:\n      dup1\n      iszero\n      tag_42\n      jumpi\n      dup1\n      0x1f\n      lt\n      tag_43\n      jumpi\n      0x0100\n      dup1\n      dup4\n      sload\n      div\n      mul\n      dup4\n      mstore\n      swap2\n      0x20\n      add\n      swap2\n      jump(tag_42)\n    tag_43:\n      dup3\n      add\n      swap2\n      swap1\n      0x00\n      mstore\n      keccak256(0x00, 0x20)\n      swap1\n    tag_44:\n      dup2\n      sload\n      dup2\n      mstore\n      swap1\n      0x01\n      add\n      swap1\n      0x20\n      add\n      dup1\n      dup4\n      gt\n      tag_44\n      jumpi\n      dup3\n      swap1\n      sub\n      0x1f\n      and\n      dup3\n      add\n      swap2\n    tag_42:\n      pop\n      pop\n      pop\n      pop\n      pop\n      dup2\n      jump\t// out\n        /* \"val65.sol\":17108:17139  uint256 public totalETHReceived */\n    tag_27:\n      sload(0x02)\n      dup2\n      jump\t// out\n        /* \"val65.sol\":18051:18340  function targetFunction()... */\n    tag_31:\n        /* \"val65.sol\":18130:18173  currentStage =... */\n      mload(0x40)\n      dup1\n      0x40\n      add\n      0x40\n      mstore\n      dup1\n      0x0d\n      dup2\n      mstore\n      0x20\n      add\n      0x496e736964652054617267657400000000000000000000000000000000000000\n      dup2\n      mstore\n      pop\n        /* \"val65.sol\":18130:18142  currentStage */\n      0x03\n        /* \"val65.sol\":18130:18173  currentStage =... */\n      swap1\n      dup2\n      tag_46\n      swap2\n      swap1\n      tag_47\n      jump\t// in\n    tag_46:\n      pop\n        /* \"val65.sol\":18199:18209  msg.sender */\n      caller\n        /* \"val65.sol\":18186:18196  lastCaller */\n      0x00\n      0x00\n        /* \"val65.sol\":18186:18209  lastCaller = msg.sender */\n      0x0100\n      exp\n      dup2\n      sload\n      dup2\n      0xffffffffffffffffffffffffffffffffffffffff\n      mul\n      not\n      and\n      swap1\n      dup4\n      0xffffffffffffffffffffffffffffffffffffffff\n      and\n      mul\n      or\n      swap1\n      sstore\n      pop\n        /* \"val65.sol\":18222:18238  executionCounter */\n      0x01\n      0x00\n        /* \"val65.sol\":18222:18240  executionCounter++ */\n      dup2\n      sload\n      dup1\n      swap3\n      swap2\n      swap1\n      tag_48\n      swap1\n      tag_49\n      jump\t// in\n    tag_48:\n      swap2\n      swap1\n      pop\n      sstore\n      pop\n        /* \"val65.sol\":18258:18332  TargetExecuted(... */\n      0xbfe898e9adbfabdc9e4c0a3c8abee5db8af0140f3006c60ded10727505429b5e\n        /* \"val65.sol\":18287:18297  msg.sender */\n      caller\n        /* \"val65.sol\":18312:18321  msg.value */\n      callvalue\n        /* \"val65.sol\":18258:18332  TargetExecuted(... */\n      mload(0x40)\n      tag_50\n      swap3\n      swap2\n      swap1\n      tag_14\n      jump\t// in\n    tag_50:\n      mload(0x40)\n      dup1\n      swap2\n      sub\n      swap1\n      log1\n        /* \"val65.sol\":18051:18340  function targetFunction()... */\n      jump\t// out\n        /* \"val65.sol\":17024:17055  uint256 public executionCounter */\n    tag_34:\n      sload(0x01)\n      dup2\n      jump\t// out\n        /* \"val65.sol\":18503:18607  function failFunction()... */\n    tag_38:\n        /* \"val65.sol\":18575:18599  revert(\"Target failure\") */\n      mload(0x40)\n      0x08c379a000000000000000000000000000000000000000000000000000000000\n      dup2\n      mstore\n      0x04\n      add\n      tag_52\n      swap1\n      tag_53\n      jump\t// in\n    tag_52:\n      mload(0x40)\n      dup1\n      swap2\n      sub\n      swap1\n      revert\n        /* \"#utility.yul\":7:84   */\n    tag_54:\n        /* \"#utility.yul\":44:51   */\n      0x00\n        /* \"#utility.yul\":73:78   */\n      dup2\n        /* \"#utility.yul\":62:78   */\n      swap1\n      pop\n        /* \"#utility.yul\":7:84   */\n      swap2\n      swap1\n      pop\n      jump\t// out\n        /* \"#utility.yul\":90:270   */\n    tag_55:\n        /* \"#utility.yul\":138:215   */\n      0x4e487b7100000000000000000000000000000000000000000000000000000000\n        /* \"#utility.yul\":135:136   */\n      0x00\n        /* \"#utility.yul\":128:216   */\n      mstore\n        /* \"#utility.yul\":235:239   */\n      0x11\n        /* \"#utility.yul\":232:233   */\n      0x04\n        /* \"#utility.yul\":225:240   */\n      mstore\n        /* \"#utility.yul\":259:263   */\n      0x24\n        /* \"#utility.yul\":256:257   */\n      0x00\n        /* \"#utility.yul\":249:264   */\n      revert\n        /* \"#utility.yul\":276:467   */\n    tag_12:\n        /* \"#utility.yul\":316:319   */\n      0x00\n        /* \"#utility.yul\":335:355   */\n      tag_88\n        /* \"#utility.yul\":353:354   */\n      dup3\n        /* \"#utility.yul\":335:355   */\n      tag_54\n      jump\t// in\n    tag_88:\n        /* \"#utility.yul\":330:355   */\n      swap2\n      pop\n        /* \"#utility.yul\":369:389   */\n      tag_89\n        /* \"#utility.yul\":387:388   */\n      dup4\n        /* \"#utility.yul\":369:389   */\n      tag_54\n      jump\t// in\n    tag_89:\n        /* \"#utility.yul\":364:389   */\n      swap3\n      pop\n        /* \"#utility.yul\":412:413   */\n      dup3\n        /* \"#utility.yul\":409:410   */\n      dup3\n        /* \"#utility.yul\":405:414   */\n      add\n        /* \"#utility.yul\":398:414   */\n      swap1\n      pop\n        /* \"#utility.yul\":433:436   */\n      dup1\n        /* \"#utility.yul\":430:431   */\n      dup3\n        /* \"#utility.yul\":427:437   */\n      gt\n        /* \"#utility.yul\":424:460   */\n      iszero\n      tag_90\n      jumpi\n        /* \"#utility.yul\":440:458   */\n      tag_91\n      tag_55\n      jump\t// in\n    tag_91:\n        /* \"#utility.yul\":424:460   */\n    tag_90:\n        /* \"#utility.yul\":276:467   */\n      swap3\n      swap2\n      pop\n      pop\n      jump\t// out\n        /* \"#utility.yul\":473:599   */\n    tag_56:\n        /* \"#utility.yul\":510:517   */\n      0x00\n        /* \"#utility.yul\":550:592   */\n      0xffffffffffffffffffffffffffffffffffffffff\n        /* \"#utility.yul\":543:548   */\n      dup3\n        /* \"#utility.yul\":539:593   */\n      and\n        /* \"#utility.yul\":528:593   */\n      swap1\n      pop\n        /* \"#utility.yul\":473:599   */\n      swap2\n      swap1\n      pop\n      jump\t// out\n        /* \"#utility.yul\":605:701   */\n    tag_57:\n        /* \"#utility.yul\":642:649   */\n      0x00\n        /* \"#utility.yul\":671:695   */\n      tag_94\n        /* \"#utility.yul\":689:694   */\n      dup3\n        /* \"#utility.yul\":671:695   */\n      tag_56\n      jump\t// in\n    tag_94:\n        /* \"#utility.yul\":660:695   */\n      swap1\n      pop\n        /* \"#utility.yul\":605:701   */\n      swap2\n      swap1\n      pop\n      jump\t// out\n        /* \"#utility.yul\":707:825   */\n    tag_58:\n        /* \"#utility.yul\":794:818   */\n      tag_96\n        /* \"#utility.yul\":812:817   */\n      dup2\n        /* \"#utility.yul\":794:818   */\n      tag_57\n      jump\t// in\n    tag_96:\n        /* \"#utility.yul\":789:792   */\n      dup3\n        /* \"#utility.yul\":782:819   */\n      mstore\n        /* \"#utility.yul\":707:825   */\n      pop\n      pop\n      jump\t// out\n        /* \"#utility.yul\":831:949   */\n    tag_59:\n        /* \"#utility.yul\":918:942   */\n      tag_98\n        /* \"#utility.yul\":936:941   */\n      dup2\n        /* \"#utility.yul\":918:942   */\n      tag_54\n      jump\t// in\n    tag_98:\n        /* \"#utility.yul\":913:916   */\n      dup3\n        /* \"#utility.yul\":906:943   */\n      mstore\n        /* \"#utility.yul\":831:949   */\n      pop\n      pop\n      jump\t// out\n        /* \"#utility.yul\":955:1287   */\n    tag_14:\n        /* \"#utility.yul\":1076:1080   */\n      0x00\n        /* \"#utility.yul\":1114:1116   */\n      0x40\n        /* \"#utility.yul\":1103:1112   */\n      dup3\n        /* \"#utility.yul\":1099:1117   */\n      add\n        /* \"#utility.yul\":1091:1117   */\n      swap1\n      pop\n        /* \"#utility.yul\":1127:1198   */\n      tag_100\n        /* \"#utility.yul\":1195:1196   */\n      0x00\n        /* \"#utility.yul\":1184:1193   */\n      dup4\n        /* \"#utility.yul\":1180:1197   */\n      add\n        /* \"#utility.yul\":1171:1177   */\n      dup6\n        /* \"#utility.yul\":1127:1198   */\n      tag_58\n      jump\t// in\n    tag_100:\n        /* \"#utility.yul\":1208:1280   */\n      tag_101\n        /* \"#utility.yul\":1276:1278   */\n      0x20\n        /* \"#utility.yul\":1265:1274   */\n      dup4\n        /* \"#utility.yul\":1261:1279   */\n      add\n        /* \"#utility.yul\":1252:1258   */\n      dup5\n        /* \"#utility.yul\":1208:1280   */\n      tag_59\n      jump\t// in\n    tag_101:\n        /* \"#utility.yul\":955:1287   */\n      swap4\n      swap3\n      pop\n      pop\n      pop\n      jump\t// out\n        /* \"#utility.yul\":1293:1515   */\n    tag_19:\n        /* \"#utility.yul\":1386:1390   */\n      0x00\n        /* \"#utility.yul\":1424:1426   */\n      0x20\n        /* \"#utility.yul\":1413:1422   */\n      dup3\n        /* \"#utility.yul\":1409:1427   */\n      add\n        /* \"#utility.yul\":1401:1427   */\n      swap1\n      pop\n        /* \"#utility.yul\":1437:1508   */\n      tag_103\n        /* \"#utility.yul\":1505:1506   */\n      0x00\n        /* \"#utility.yul\":1494:1503   */\n      dup4\n        /* \"#utility.yul\":1490:1507   */\n      add\n        /* \"#utility.yul\":1481:1487   */\n      dup5\n        /* \"#utility.yul\":1437:1508   */\n      tag_58\n      jump\t// in\n    tag_103:\n        /* \"#utility.yul\":1293:1515   */\n      swap3\n      swap2\n      pop\n      pop\n      jump\t// out\n        /* \"#utility.yul\":1521:1620   */\n    tag_60:\n        /* \"#utility.yul\":1573:1579   */\n      0x00\n        /* \"#utility.yul\":1607:1612   */\n      dup2\n        /* \"#utility.yul\":1601:1613   */\n      mload\n        /* \"#utility.yul\":1591:1613   */\n      swap1\n      pop\n        /* \"#utility.yul\":1521:1620   */\n      swap2\n      swap1\n      pop\n      jump\t// out\n        /* \"#utility.yul\":1626:1795   */\n    tag_61:\n        /* \"#utility.yul\":1710:1721   */\n      0x00\n        /* \"#utility.yul\":1744:1750   */\n      dup3\n        /* \"#utility.yul\":1739:1742   */\n      dup3\n        /* \"#utility.yul\":1732:1751   */\n      mstore\n        /* \"#utility.yul\":1784:1788   */\n      0x20\n        /* \"#utility.yul\":1779:1782   */\n      dup3\n        /* \"#utility.yul\":1775:1789   */\n      add\n        /* \"#utility.yul\":1760:1789   */\n      swap1\n      pop\n        /* \"#utility.yul\":1626:1795   */\n      swap3\n      swap2\n      pop\n      pop\n      jump\t// out\n        /* \"#utility.yul\":1801:1940   */\n    tag_62:\n        /* \"#utility.yul\":1890:1896   */\n      dup3\n        /* \"#utility.yul\":1885:1888   */\n      dup2\n        /* \"#utility.yul\":1880:1883   */\n      dup4\n        /* \"#utility.yul\":1874:1897   */\n      mcopy\n        /* \"#utility.yul\":1931:1932   */\n      0x00\n        /* \"#utility.yul\":1922:1928   */\n      dup4\n        /* \"#utility.yul\":1917:1920   */\n      dup4\n        /* \"#utility.yul\":1913:1929   */\n      add\n        /* \"#utility.yul\":1906:1933   */\n      mstore\n        /* \"#utility.yul\":1801:1940   */\n      pop\n      pop\n      pop\n      jump\t// out\n        /* \"#utility.yul\":1946:2048   */\n    tag_63:\n        /* \"#utility.yul\":1987:1993   */\n      0x00\n        /* \"#utility.yul\":2038:2040   */\n      0x1f\n        /* \"#utility.yul\":2034:2041   */\n      not\n        /* \"#utility.yul\":2029:2031   */\n      0x1f\n        /* \"#utility.yul\":2022:2027   */\n      dup4\n        /* \"#utility.yul\":2018:2032   */\n      add\n        /* \"#utility.yul\":2014:2042   */\n      and\n        /* \"#utility.yul\":2004:2042   */\n      swap1\n      pop\n        /* \"#utility.yul\":1946:2048   */\n      swap2\n      swap1\n      pop\n      jump\t// out\n        /* \"#utility.yul\":2054:2431   */\n    tag_64:\n        /* \"#utility.yul\":2142:2145   */\n      0x00\n        /* \"#utility.yul\":2170:2209   */\n      tag_109\n        /* \"#utility.yul\":2203:2208   */\n      dup3\n        /* \"#utility.yul\":2170:2209   */\n      tag_60\n      jump\t// in\n    tag_109:\n        /* \"#utility.yul\":2225:2296   */\n      tag_110\n        /* \"#utility.yul\":2289:2295   */\n      dup2\n        /* \"#utility.yul\":2284:2287   */\n      dup6\n        /* \"#utility.yul\":2225:2296   */\n      tag_61\n      jump\t// in\n    tag_110:\n        /* \"#utility.yul\":2218:2296   */\n      swap4\n      pop\n        /* \"#utility.yul\":2305:2370   */\n      tag_111\n        /* \"#utility.yul\":2363:2369   */\n      dup2\n        /* \"#utility.yul\":2358:2361   */\n      dup6\n        /* \"#utility.yul\":2351:2355   */\n      0x20\n        /* \"#utility.yul\":2344:2349   */\n      dup7\n        /* \"#utility.yul\":2340:2356   */\n      add\n        /* \"#utility.yul\":2305:2370   */\n      tag_62\n      jump\t// in\n    tag_111:\n        /* \"#utility.yul\":2395:2424   */\n      tag_112\n        /* \"#utility.yul\":2417:2423   */\n      dup2\n        /* \"#utility.yul\":2395:2424   */\n      tag_63\n      jump\t// in\n    tag_112:\n        /* \"#utility.yul\":2390:2393   */\n      dup5\n        /* \"#utility.yul\":2386:2425   */\n      add\n        /* \"#utility.yul\":2379:2425   */\n      swap2\n      pop\n        /* \"#utility.yul\":2146:2431   */\n      pop\n        /* \"#utility.yul\":2054:2431   */\n      swap3\n      swap2\n      pop\n      pop\n      jump\t// out\n        /* \"#utility.yul\":2437:2750   */\n    tag_24:\n        /* \"#utility.yul\":2550:2554   */\n      0x00\n        /* \"#utility.yul\":2588:2590   */\n      0x20\n        /* \"#utility.yul\":2577:2586   */\n      dup3\n        /* \"#utility.yul\":2573:2591   */\n      add\n        /* \"#utility.yul\":2565:2591   */\n      swap1\n      pop\n        /* \"#utility.yul\":2637:2646   */\n      dup2\n        /* \"#utility.yul\":2631:2635   */\n      dup2\n        /* \"#utility.yul\":2627:2647   */\n      sub\n        /* \"#utility.yul\":2623:2624   */\n      0x00\n        /* \"#utility.yul\":2612:2621   */\n      dup4\n        /* \"#utility.yul\":2608:2625   */\n      add\n        /* \"#utility.yul\":2601:2648   */\n      mstore\n        /* \"#utility.yul\":2665:2743   */\n      tag_114\n        /* \"#utility.yul\":2738:2742   */\n      dup2\n        /* \"#utility.yul\":2729:2735   */\n      dup5\n        /* \"#utility.yul\":2665:2743   */\n      tag_64\n      jump\t// in\n    tag_114:\n        /* \"#utility.yul\":2657:2743   */\n      swap1\n      pop\n        /* \"#utility.yul\":2437:2750   */\n      swap3\n      swap2\n      pop\n      pop\n      jump\t// out\n        /* \"#utility.yul\":2756:2978   */\n    tag_29:\n        /* \"#utility.yul\":2849:2853   */\n      0x00\n        /* \"#utility.yul\":2887:2889   */\n      0x20\n        /* \"#utility.yul\":2876:2885   */\n      dup3\n        /* \"#utility.yul\":2872:2890   */\n      add\n        /* \"#utility.yul\":2864:2890   */\n      swap1\n      pop\n        /* \"#utility.yul\":2900:2971   */\n      tag_116\n        /* \"#utility.yul\":2968:2969   */\n      0x00\n        /* \"#utility.yul\":2957:2966   */\n      dup4\n        /* \"#utility.yul\":2953:2970   */\n      add\n        /* \"#utility.yul\":2944:2950   */\n      dup5\n        /* \"#utility.yul\":2900:2971   */\n      tag_59\n      jump\t// in\n    tag_116:\n        /* \"#utility.yul\":2756:2978   */\n      swap3\n      swap2\n      pop\n      pop\n      jump\t// out\n        /* \"#utility.yul\":2984:3164   */\n    tag_65:\n        /* \"#utility.yul\":3032:3109   */\n      0x4e487b7100000000000000000000000000000000000000000000000000000000\n        /* \"#utility.yul\":3029:3030   */\n      0x00\n        /* \"#utility.yul\":3022:3110   */\n      mstore\n        /* \"#utility.yul\":3129:3133   */\n      0x22\n        /* \"#utility.yul\":3126:3127   */\n      0x04\n        /* \"#utility.yul\":3119:3134   */\n      mstore\n        /* \"#utility.yul\":3153:3157   */\n      0x24\n        /* \"#utility.yul\":3150:3151   */\n      0x00\n        /* \"#utility.yul\":3143:3158   */\n      revert\n        /* \"#utility.yul\":3170:3490   */\n    tag_40:\n        /* \"#utility.yul\":3214:3220   */\n      0x00\n        /* \"#utility.yul\":3251:3252   */\n      0x02\n        /* \"#utility.yul\":3245:3249   */\n      dup3\n        /* \"#utility.yul\":3241:3253   */\n      div\n        /* \"#utility.yul\":3231:3253   */\n      swap1\n      pop\n        /* \"#utility.yul\":3298:3299   */\n      0x01\n        /* \"#utility.yul\":3292:3296   */\n      dup3\n        /* \"#utility.yul\":3288:3300   */\n      and\n        /* \"#utility.yul\":3319:3337   */\n      dup1\n        /* \"#utility.yul\":3309:3390   */\n      tag_119\n      jumpi\n        /* \"#utility.yul\":3375:3379   */\n      0x7f\n        /* \"#utility.yul\":3367:3373   */\n      dup3\n        /* \"#utility.yul\":3363:3380   */\n      and\n        /* \"#utility.yul\":3353:3380   */\n      swap2\n      pop\n        /* \"#utility.yul\":3309:3390   */\n    tag_119:\n        /* \"#utility.yul\":3437:3439   */\n      0x20\n        /* \"#utility.yul\":3429:3435   */\n      dup3\n        /* \"#utility.yul\":3426:3440   */\n      lt\n        /* \"#utility.yul\":3406:3424   */\n      dup2\n        /* \"#utility.yul\":3403:3441   */\n      sub\n        /* \"#utility.yul\":3400:3484   */\n      tag_120\n      jumpi\n        /* \"#utility.yul\":3456:3474   */\n      tag_121\n      tag_65\n      jump\t// in\n    tag_121:\n        /* \"#utility.yul\":3400:3484   */\n    tag_120:\n        /* \"#utility.yul\":3221:3490   */\n      pop\n        /* \"#utility.yul\":3170:3490   */\n      swap2\n      swap1\n      pop\n      jump\t// out\n        /* \"#utility.yul\":3496:3676   */\n    tag_66:\n        /* \"#utility.yul\":3544:3621   */\n      0x4e487b7100000000000000000000000000000000000000000000000000000000\n        /* \"#utility.yul\":3541:3542   */\n      0x00\n        /* \"#utility.yul\":3534:3622   */\n      mstore\n        /* \"#utility.yul\":3641:3645   */\n      0x41\n        /* \"#utility.yul\":3638:3639   */\n      0x04\n        /* \"#utility.yul\":3631:3646   */\n      mstore\n        /* \"#utility.yul\":3665:3669   */\n      0x24\n        /* \"#utility.yul\":3662:3663   */\n      0x00\n        /* \"#utility.yul\":3655:3670   */\n      revert\n        /* \"#utility.yul\":3682:3823   */\n    tag_67:\n        /* \"#utility.yul\":3731:3735   */\n      0x00\n        /* \"#utility.yul\":3754:3757   */\n      dup2\n        /* \"#utility.yul\":3746:3757   */\n      swap1\n      pop\n        /* \"#utility.yul\":3777:3780   */\n      dup2\n        /* \"#utility.yul\":3774:3775   */\n      0x00\n        /* \"#utility.yul\":3767:3781   */\n      mstore\n        /* \"#utility.yul\":3811:3815   */\n      0x20\n        /* \"#utility.yul\":3808:3809   */\n      0x00\n        /* \"#utility.yul\":3798:3816   */\n      keccak256\n        /* \"#utility.yul\":3790:3816   */\n      swap1\n      pop\n        /* \"#utility.yul\":3682:3823   */\n      swap2\n      swap1\n      pop\n      jump\t// out\n        /* \"#utility.yul\":3829:3922   */\n    tag_68:\n        /* \"#utility.yul\":3866:3872   */\n      0x00\n        /* \"#utility.yul\":3913:3915   */\n      0x20\n        /* \"#utility.yul\":3908:3910   */\n      0x1f\n        /* \"#utility.yul\":3901:3906   */\n      dup4\n        /* \"#utility.yul\":3897:3911   */\n      add\n        /* \"#utility.yul\":3893:3916   */\n      div\n        /* \"#utility.yul\":3883:3916   */\n      swap1\n      pop\n        /* \"#utility.yul\":3829:3922   */\n      swap2\n      swap1\n      pop\n      jump\t// out\n        /* \"#utility.yul\":3928:4035   */\n    tag_69:\n        /* \"#utility.yul\":3972:3980   */\n      0x00\n        /* \"#utility.yul\":4022:4027   */\n      dup3\n        /* \"#utility.yul\":4016:4020   */\n      dup3\n        /* \"#utility.yul\":4012:4028   */\n      shl\n        /* \"#utility.yul\":3991:4028   */\n      swap1\n      pop\n        /* \"#utility.yul\":3928:4035   */\n      swap3\n      swap2\n      pop\n      pop\n      jump\t// out\n        /* \"#utility.yul\":4041:4434   */\n    tag_70:\n        /* \"#utility.yul\":4110:4116   */\n      0x00\n        /* \"#utility.yul\":4160:4161   */\n      0x08\n        /* \"#utility.yul\":4148:4158   */\n      dup4\n        /* \"#utility.yul\":4144:4162   */\n      mul\n        /* \"#utility.yul\":4183:4280   */\n      tag_127\n        /* \"#utility.yul\":4213:4279   */\n      0xffffffffffffffffffffffffffffffffffffffffffffffffffffffffffffffff\n        /* \"#utility.yul\":4202:4211   */\n      dup3\n        /* \"#utility.yul\":4183:4280   */\n      tag_69\n      jump\t// in\n    tag_127:\n        /* \"#utility.yul\":4301:4340   */\n      tag_128\n        /* \"#utility.yul\":4331:4339   */\n      dup7\n        /* \"#utility.yul\":4320:4329   */\n      dup4\n        /* \"#utility.yul\":4301:4340   */\n      tag_69\n      jump\t// in\n    tag_128:\n        /* \"#utility.yul\":4289:4340   */\n      swap6\n      pop\n        /* \"#utility.yul\":4373:4377   */\n      dup1\n        /* \"#utility.yul\":4369:4378   */\n      not\n        /* \"#utility.yul\":4362:4367   */\n      dup5\n        /* \"#utility.yul\":4358:4379   */\n      and\n        /* \"#utility.yul\":4349:4379   */\n      swap4\n      pop\n        /* \"#utility.yul\":4422:4426   */\n      dup1\n        /* \"#utility.yul\":4412:4420   */\n      dup7\n        /* \"#utility.yul\":4408:4427   */\n      and\n        /* \"#utility.yul\":4401:4406   */\n      dup5\n        /* \"#utility.yul\":4398:4428   */\n      or\n        /* \"#utility.yul\":4388:4428   */\n      swap3\n      pop\n        /* \"#utility.yul\":4117:4434   */\n      pop\n      pop\n        /* \"#utility.yul\":4041:4434   */\n      swap4\n      swap3\n      pop\n      pop\n      pop\n      jump\t// out\n        /* \"#utility.yul\":4440:4500   */\n    tag_71:\n        /* \"#utility.yul\":4468:4471   */\n      0x00\n        /* \"#utility.yul\":4489:4494   */\n      dup2\n        /* \"#utility.yul\":4482:4494   */\n      swap1\n      pop\n        /* \"#utility.yul\":4440:4500   */\n      swap2\n      swap1\n      pop\n      jump\t// out\n        /* \"#utility.yul\":4506:4648   */\n    tag_72:\n        /* \"#utility.yul\":4556:4565   */\n      0x00\n        /* \"#utility.yul\":4589:4642   */\n      tag_131\n        /* \"#utility.yul\":4607:4641   */\n      tag_132\n        /* \"#utility.yul\":4616:4640   */\n      tag_133\n        /* \"#utility.yul\":4634:4639   */\n      dup5\n        /* \"#utility.yul\":4616:4640   */\n      tag_54\n      jump\t// in\n    tag_133:\n        /* \"#utility.yul\":4607:4641   */\n      tag_71\n      jump\t// in\n    tag_132:\n        /* \"#utility.yul\":4589:4642   */\n      tag_54\n      jump\t// in\n    tag_131:\n        /* \"#utility.yul\":4576:4642   */\n      swap1\n      pop\n        /* \"#utility.yul\":4506:4648   */\n      swap2\n      swap1\n      pop\n      jump\t// out\n        /* \"#utility.yul\":4654:4729   */\n    tag_73:\n        /* \"#utility.yul\":4697:4700   */\n      0x00\n        /* \"#utility.yul\":4718:4723   */\n      dup2\n        /* \"#utility.yul\":4711:4723   */\n      swap1\n      pop\n        /* \"#utility.yul\":4654:4729   */\n      swap2\n      swap1\n      pop\n      jump\t// out\n        /* \"#utility.yul\":4735:5004   */\n    tag_74:\n        /* \"#utility.yul\":4845:4884   */\n      tag_136\n        /* \"#utility.yul\":4876:4883   */\n      dup4\n        /* \"#utility.yul\":4845:4884   */\n      tag_72\n      jump\t// in\n    tag_136:\n        /* \"#utility.yul\":4906:4997   */\n      tag_137\n        /* \"#utility.yul\":4955:4996   */\n      tag_138\n        /* \"#utility.yul\":4979:4995   */\n      dup3\n        /* \"#utility.yul\":4955:4996   */\n      tag_73\n      jump\t// in\n    tag_138:\n        /* \"#utility.yul\":4947:4953   */\n      dup5\n        /* \"#utility.yul\":4940:4944   */\n      dup5\n        /* \"#utility.yul\":4934:4945   */\n      sload\n        /* \"#utility.yul\":4906:4997   */\n      tag_70\n      jump\t// in\n    tag_137:\n        /* \"#utility.yul\":4900:4904   */\n      dup3\n        /* \"#utility.yul\":4893:4998   */\n      sstore\n        /* \"#utility.yul\":4811:5004   */\n      pop\n        /* \"#utility.yul\":4735:5004   */\n      pop\n      pop\n      pop\n      jump\t// out\n        /* \"#utility.yul\":5010:5083   */\n    tag_75:\n        /* \"#utility.yul\":5055:5058   */\n      0x00\n        /* \"#utility.yul\":5076:5077   */\n      0x00\n        /* \"#utility.yul\":5069:5077   */\n      swap1\n      pop\n        /* \"#utility.yul\":5010:5083   */\n      swap1\n      jump\t// out\n        /* \"#utility.yul\":5089:5278   */\n    tag_76:\n        /* \"#utility.yul\":5166:5198   */\n      tag_141\n      tag_75\n      jump\t// in\n    tag_141:\n        /* \"#utility.yul\":5207:5272   */\n      tag_142\n        /* \"#utility.yul\":5265:5271   */\n      dup2\n        /* \"#utility.yul\":5257:5263   */\n      dup5\n        /* \"#utility.yul\":5251:5255   */\n      dup5\n        /* \"#utility.yul\":5207:5272   */\n      tag_74\n      jump\t// in\n    tag_142:\n        /* \"#utility.yul\":5142:5278   */\n      pop\n        /* \"#utility.yul\":5089:5278   */\n      pop\n      pop\n      jump\t// out\n        /* \"#utility.yul\":5284:5498   */\n    tag_77:\n        /* \"#utility.yul\":5369:5370   */\n      0x00\n        /* \"#utility.yul\":5354:5492   */\n    tag_144:\n        /* \"#utility.yul\":5379:5388   */\n      dup3\n        /* \"#utility.yul\":5376:5377   */\n      dup2\n        /* \"#utility.yul\":5373:5389   */\n      lt\n        /* \"#utility.yul\":5354:5492   */\n      iszero\n      tag_146\n      jumpi\n        /* \"#utility.yul\":5431:5482   */\n      tag_147\n        /* \"#utility.yul\":5480:5481   */\n      0x00\n        /* \"#utility.yul\":5476:5477   */\n      dup3\n        /* \"#utility.yul\":5465:5474   */\n      dup5\n        /* \"#utility.yul\":5461:5478   */\n      add\n        /* \"#utility.yul\":5431:5482   */\n      tag_76\n      jump\t// in\n    tag_147:\n        /* \"#utility.yul\":5404:5405   */\n      0x01\n        /* \"#utility.yul\":5401:5402   */\n      dup2\n        /* \"#utility.yul\":5397:5406   */\n      add\n        /* \"#utility.yul\":5392:5406   */\n      swap1\n      pop\n        /* \"#utility.yul\":5354:5492   */\n      jump(tag_144)\n    tag_146:\n        /* \"#utility.yul\":5358:5372   */\n      pop\n        /* \"#utility.yul\":5284:5498   */\n      pop\n      pop\n      jump\t// out\n        /* \"#utility.yul\":5504:6250   */\n    tag_78:\n        /* \"#utility.yul\":5605:5607   */\n      0x1f\n        /* \"#utility.yul\":5600:5603   */\n      dup3\n        /* \"#utility.yul\":5597:5608   */\n      gt\n        /* \"#utility.yul\":5594:6243   */\n      iszero\n      tag_149\n      jumpi\n        /* \"#utility.yul\":5634:5644   */\n      dup3\n        /* \"#utility.yul\":5629:5632   */\n      dup3\n        /* \"#utility.yul\":5626:5645   */\n      gt\n        /* \"#utility.yul\":5623:6233   */\n      iszero\n      tag_150\n      jumpi\n        /* \"#utility.yul\":5680:5718   */\n      tag_151\n        /* \"#utility.yul\":5712:5717   */\n      dup2\n        /* \"#utility.yul\":5680:5718   */\n      tag_67\n      jump\t// in\n    tag_151:\n        /* \"#utility.yul\":5755:5777   */\n      tag_152\n        /* \"#utility.yul\":5773:5776   */\n      dup4\n        /* \"#utility.yul\":5755:5777   */\n      tag_68\n      jump\t// in\n    tag_152:\n        /* \"#utility.yul\":5814:5843   */\n      tag_153\n        /* \"#utility.yul\":5832:5842   */\n      dup6\n        /* \"#utility.yul\":5814:5843   */\n      tag_68\n      jump\t// in\n    tag_153:\n        /* \"#utility.yul\":6004:6006   */\n      0x20\n        /* \"#utility.yul\":5992:6002   */\n      dup7\n        /* \"#utility.yul\":5989:6007   */\n      lt\n        /* \"#utility.yul\":5986:6065   */\n      iszero\n      tag_154\n      jumpi\n        /* \"#utility.yul\":6046:6047   */\n      0x00\n        /* \"#utility.yul\":6030:6047   */\n      swap1\n      pop\n        /* \"#utility.yul\":5986:6065   */\n    tag_154:\n        /* \"#utility.yul\":6115:6127   */\n      dup1\n        /* \"#utility.yul\":6105:6113   */\n      dup4\n        /* \"#utility.yul\":6101:6128   */\n      add\n        /* \"#utility.yul\":6145:6219   */\n      tag_155\n        /* \"#utility.yul\":6205:6217   */\n      dup3\n        /* \"#utility.yul\":6191:6203   */\n      dup5\n        /* \"#utility.yul\":6187:6218   */\n      sub\n        /* \"#utility.yul\":6174:6185   */\n      dup3\n        /* \"#utility.yul\":6145:6219   */\n      tag_77\n      jump\t// in\n    tag_155:\n        /* \"#utility.yul\":5646:6233   */\n      pop\n      pop\n      pop\n      pop\n        /* \"#utility.yul\":5623:6233   */\n    tag_150:\n        /* \"#utility.yul\":5594:6243   */\n    tag_149:\n        /* \"#utility.yul\":5504:6250   */\n      pop\n      pop\n      pop\n      jump\t// out\n        /* \"#utility.yul\":6256:6373   */\n    tag_79:\n        /* \"#utility.yul\":6310:6318   */\n      0x00\n        /* \"#utility.yul\":6360:6365   */\n      dup3\n        /* \"#utility.yul\":6354:6358   */\n      dup3\n        /* \"#utility.yul\":6350:6366   */\n      shr\n        /* \"#utility.yul\":6329:6366   */\n      swap1\n      pop\n        /* \"#utility.yul\":6256:6373   */\n      swap3\n      swap2\n      pop\n      pop\n      jump\t// out\n        /* \"#utility.yul\":6379:6548   */\n    tag_80:\n        /* \"#utility.yul\":6423:6429   */\n      0x00\n        /* \"#utility.yul\":6456:6507   */\n      tag_158\n        /* \"#utility.yul\":6504:6505   */\n      0x00\n        /* \"#utility.yul\":6500:6506   */\n      not\n        /* \"#utility.yul\":6492:6497   */\n      dup5\n        /* \"#utility.yul\":6489:6490   */\n      0x08\n        /* \"#utility.yul\":6485:6498   */\n      mul\n        /* \"#utility.yul\":6456:6507   */\n      tag_79\n      jump\t// in\n    tag_158:\n        /* \"#utility.yul\":6452:6508   */\n      not\n        /* \"#utility.yul\":6537:6541   */\n      dup1\n        /* \"#utility.yul\":6531:6535   */\n      dup4\n        /* \"#utility.yul\":6527:6542   */\n      and\n        /* \"#utility.yul\":6517:6542   */\n      swap2\n      pop\n        /* \"#utility.yul\":6430:6548   */\n      pop\n        /* \"#utility.yul\":6379:6548   */\n      swap3\n      swap2\n      pop\n      pop\n      jump\t// out\n        /* \"#utility.yul\":6553:6848   */\n    tag_81:\n        /* \"#utility.yul\":6629:6633   */\n      0x00\n        /* \"#utility.yul\":6775:6804   */\n      tag_160\n        /* \"#utility.yul\":6800:6803   */\n      dup4\n        /* \"#utility.yul\":6794:6798   */\n      dup4\n        /* \"#utility.yul\":6775:6804   */\n      tag_80\n      jump\t// in\n    tag_160:\n        /* \"#utility.yul\":6767:6804   */\n      swap2\n      pop\n        /* \"#utility.yul\":6837:6840   */\n      dup3\n        /* \"#utility.yul\":6834:6835   */\n      0x02\n        /* \"#utility.yul\":6830:6841   */\n      mul\n        /* \"#utility.yul\":6824:6828   */\n      dup3\n        /* \"#utility.yul\":6821:6842   */\n      or\n        /* \"#utility.yul\":6813:6842   */\n      swap1\n      pop\n        /* \"#utility.yul\":6553:6848   */\n      swap3\n      swap2\n      pop\n      pop\n      jump\t// out\n        /* \"#utility.yul\":6853:8248   */\n    tag_47:\n        /* \"#utility.yul\":6970:7007   */\n      tag_162\n        /* \"#utility.yul\":7003:7006   */\n      dup3\n        /* \"#utility.yul\":6970:7007   */\n      tag_60\n      jump\t// in\n    tag_162:\n        /* \"#utility.yul\":7072:7090   */\n      0xffffffffffffffff\n        /* \"#utility.yul\":7064:7070   */\n      dup2\n        /* \"#utility.yul\":7061:7091   */\n      gt\n        /* \"#utility.yul\":7058:7114   */\n      iszero\n      tag_163\n      jumpi\n        /* \"#utility.yul\":7094:7112   */\n      tag_164\n      tag_66\n      jump\t// in\n    tag_164:\n        /* \"#utility.yul\":7058:7114   */\n    tag_163:\n        /* \"#utility.yul\":7138:7176   */\n      tag_165\n        /* \"#utility.yul\":7170:7174   */\n      dup3\n        /* \"#utility.yul\":7164:7175   */\n      sload\n        /* \"#utility.yul\":7138:7176   */\n      tag_40\n      jump\t// in\n    tag_165:\n        /* \"#utility.yul\":7223:7290   */\n      tag_166\n        /* \"#utility.yul\":7283:7289   */\n      dup3\n        /* \"#utility.yul\":7275:7281   */\n      dup3\n        /* \"#utility.yul\":7269:7273   */\n      dup6\n        /* \"#utility.yul\":7223:7290   */\n      tag_78\n      jump\t// in\n    tag_166:\n        /* \"#utility.yul\":7317:7318   */\n      0x00\n        /* \"#utility.yul\":7341:7345   */\n      0x20\n        /* \"#utility.yul\":7328:7345   */\n      swap1\n      pop\n        /* \"#utility.yul\":7373:7375   */\n      0x1f\n        /* \"#utility.yul\":7365:7371   */\n      dup4\n        /* \"#utility.yul\":7362:7376   */\n      gt\n        /* \"#utility.yul\":7390:7391   */\n      0x01\n        /* \"#utility.yul\":7385:8003   */\n      dup2\n      eq\n      tag_168\n      jumpi\n        /* \"#utility.yul\":8047:8048   */\n      0x00\n        /* \"#utility.yul\":8064:8070   */\n      dup5\n        /* \"#utility.yul\":8061:8138   */\n      iszero\n      tag_169\n      jumpi\n        /* \"#utility.yul\":8113:8122   */\n      dup3\n        /* \"#utility.yul\":8108:8111   */\n      dup8\n        /* \"#utility.yul\":8104:8123   */\n      add\n        /* \"#utility.yul\":8098:8124   */\n      mload\n        /* \"#utility.yul\":8089:8124   */\n      swap1\n      pop\n        /* \"#utility.yul\":8061:8138   */\n    tag_169:\n        /* \"#utility.yul\":8164:8231   */\n      tag_170\n        /* \"#utility.yul\":8224:8230   */\n      dup6\n        /* \"#utility.yul\":8217:8222   */\n      dup3\n        /* \"#utility.yul\":8164:8231   */\n      tag_81\n      jump\t// in\n    tag_170:\n        /* \"#utility.yul\":8158:8162   */\n      dup7\n        /* \"#utility.yul\":8151:8232   */\n      sstore\n        /* \"#utility.yul\":8020:8242   */\n      pop\n        /* \"#utility.yul\":7355:8242   */\n      jump(tag_167)\n        /* \"#utility.yul\":7385:8003   */\n    tag_168:\n        /* \"#utility.yul\":7437:7441   */\n      0x1f\n        /* \"#utility.yul\":7433:7442   */\n      not\n        /* \"#utility.yul\":7425:7431   */\n      dup5\n        /* \"#utility.yul\":7421:7443   */\n      and\n        /* \"#utility.yul\":7471:7508   */\n      tag_171\n        /* \"#utility.yul\":7503:7507   */\n      dup7\n        /* \"#utility.yul\":7471:7508   */\n      tag_67\n      jump\t// in\n    tag_171:\n        /* \"#utility.yul\":7530:7531   */\n      0x00\n        /* \"#utility.yul\":7544:7752   */\n    tag_172:\n        /* \"#utility.yul\":7558:7565   */\n      dup3\n        /* \"#utility.yul\":7555:7556   */\n      dup2\n        /* \"#utility.yul\":7552:7566   */\n      lt\n        /* \"#utility.yul\":7544:7752   */\n      iszero\n      tag_174\n      jumpi\n        /* \"#utility.yul\":7637:7646   */\n      dup5\n        /* \"#utility.yul\":7632:7635   */\n      dup10\n        /* \"#utility.yul\":7628:7647   */\n      add\n        /* \"#utility.yul\":7622:7648   */\n      mload\n        /* \"#utility.yul\":7614:7620   */\n      dup3\n        /* \"#utility.yul\":7607:7649   */\n      sstore\n        /* \"#utility.yul\":7688:7689   */\n      0x01\n        /* \"#utility.yul\":7680:7686   */\n      dup3\n        /* \"#utility.yul\":7676:7690   */\n      add\n        /* \"#utility.yul\":7666:7690   */\n      swap2\n      pop\n        /* \"#utility.yul\":7735:7737   */\n      0x20\n        /* \"#utility.yul\":7724:7733   */\n      dup6\n        /* \"#utility.yul\":7720:7738   */\n      add\n        /* \"#utility.yul\":7707:7738   */\n      swap5\n      pop\n        /* \"#utility.yul\":7581:7585   */\n      0x20\n        /* \"#utility.yul\":7578:7579   */\n      dup2\n        /* \"#utility.yul\":7574:7586   */\n      add\n        /* \"#utility.yul\":7569:7586   */\n      swap1\n      pop\n        /* \"#utility.yul\":7544:7752   */\n      jump(tag_172)\n    tag_174:\n        /* \"#utility.yul\":7780:7786   */\n      dup7\n        /* \"#utility.yul\":7771:7778   */\n      dup4\n        /* \"#utility.yul\":7768:7787   */\n      lt\n        /* \"#utility.yul\":7765:7944   */\n      iszero\n      tag_175\n      jumpi\n        /* \"#utility.yul\":7838:7847   */\n      dup5\n        /* \"#utility.yul\":7833:7836   */\n      dup10\n        /* \"#utility.yul\":7829:7848   */\n      add\n        /* \"#utility.yul\":7823:7849   */\n      mload\n        /* \"#utility.yul\":7881:7929   */\n      tag_176\n        /* \"#utility.yul\":7923:7927   */\n      0x1f\n        /* \"#utility.yul\":7915:7921   */\n      dup10\n        /* \"#utility.yul\":7911:7928   */\n      and\n        /* \"#utility.yul\":7900:7909   */\n      dup3\n        /* \"#utility.yul\":7881:7929   */\n      tag_80\n      jump\t// in\n    tag_176:\n        /* \"#utility.yul\":7873:7879   */\n      dup4\n        /* \"#utility.yul\":7866:7930   */\n      sstore\n        /* \"#utility.yul\":7788:7944   */\n      pop\n        /* \"#utility.yul\":7765:7944   */\n    tag_175:\n        /* \"#utility.yul\":7990:7991   */\n      0x01\n        /* \"#utility.yul\":7986:7987   */\n      0x02\n        /* \"#utility.yul\":7978:7984   */\n      dup9\n        /* \"#utility.yul\":7974:7988   */\n      mul\n        /* \"#utility.yul\":7970:7992   */\n      add\n        /* \"#utility.yul\":7964:7968   */\n      dup9\n        /* \"#utility.yul\":7957:7993   */\n      sstore\n        /* \"#utility.yul\":7392:8003   */\n      pop\n      pop\n      pop\n        /* \"#utility.yul\":7355:8242   */\n    tag_167:\n      pop\n        /* \"#utility.yul\":6945:8248   */\n      pop\n      pop\n      pop\n        /* \"#utility.yul\":6853:8248   */\n      pop\n      pop\n      jump\t// out\n        /* \"#utility.yul\":8254:8487   */\n    tag_49:\n        /* \"#utility.yul\":8293:8296   */\n      0x00\n        /* \"#utility.yul\":8316:8340   */\n      tag_178\n        /* \"#utility.yul\":8334:8339   */\n      dup3\n        /* \"#utility.yul\":8316:8340   */\n      tag_54\n      jump\t// in\n    tag_178:\n        /* \"#utility.yul\":8307:8340   */\n      swap2\n      pop\n        /* \"#utility.yul\":8362:8428   */\n      0xffffffffffffffffffffffffffffffffffffffffffffffffffffffffffffffff\n        /* \"#utility.yul\":8355:8360   */\n      dup3\n        /* \"#utility.yul\":8352:8429   */\n      sub\n        /* \"#utility.yul\":8349:8452   */\n      tag_179\n      jumpi\n        /* \"#utility.yul\":8432:8450   */\n      tag_180\n      tag_55\n      jump\t// in\n    tag_180:\n        /* \"#utility.yul\":8349:8452   */\n    tag_179:\n        /* \"#utility.yul\":8479:8480   */\n      0x01\n        /* \"#utility.yul\":8472:8477   */\n      dup3\n        /* \"#utility.yul\":8468:8481   */\n      add\n        /* \"#utility.yul\":8461:8481   */\n      swap1\n      pop\n        /* \"#utility.yul\":8254:8487   */\n      swap2\n      swap1\n      pop\n      jump\t// out\n        /* \"#utility.yul\":8493:8657   */\n    tag_82:\n        /* \"#utility.yul\":8633:8649   */\n      0x546172676574206661696c757265000000000000000000000000000000000000\n        /* \"#utility.yul\":8629:8630   */\n      0x00\n        /* \"#utility.yul\":8621:8627   */\n      dup3\n        /* \"#utility.yul\":8617:8631   */\n      add\n        /* \"#utility.yul\":8610:8650   */\n      mstore\n        /* \"#utility.yul\":8493:8657   */\n      pop\n      jump\t// out\n        /* \"#utility.yul\":8663:9029   */\n    tag_83:\n        /* \"#utility.yul\":8805:8808   */\n      0x00\n        /* \"#utility.yul\":8826:8893   */\n      tag_183\n        /* \"#utility.yul\":8890:8892   */\n      0x0e\n        /* \"#utility.yul\":8885:8888   */\n      dup4\n        /* \"#utility.yul\":8826:8893   */\n      tag_61\n      jump\t// in\n    tag_183:\n        /* \"#utility.yul\":8819:8893   */\n      swap2\n      pop\n        /* \"#utility.yul\":8902:8995   */\n      tag_184\n        /* \"#utility.yul\":8991:8994   */\n      dup3\n        /* \"#utility.yul\":8902:8995   */\n      tag_82\n      jump\t// in\n    tag_184:\n        /* \"#utility.yul\":9020:9022   */\n      0x20\n        /* \"#utility.yul\":9015:9018   */\n      dup3\n        /* \"#utility.yul\":9011:9023   */\n      add\n        /* \"#utility.yul\":9004:9023   */\n      swap1\n      pop\n        /* \"#utility.yul\":8663:9029   */\n      swap2\n      swap1\n      pop\n      jump\t// out\n        /* \"#utility.yul\":9035:9454   */\n    tag_53:\n        /* \"#utility.yul\":9201:9205   */\n      0x00\n        /* \"#utility.yul\":9239:9241   */\n      0x20\n        /* \"#utility.yul\":9228:9237   */\n      dup3\n        /* \"#utility.yul\":9224:9242   */\n      add\n        /* \"#utility.yul\":9216:9242   */\n      swap1\n      pop\n        /* \"#utility.yul\":9288:9297   */\n      dup2\n        /* \"#utility.yul\":9282:9286   */\n      dup2\n        /* \"#utility.yul\":9278:9298   */\n      sub\n        /* \"#utility.yul\":9274:9275   */\n      0x00\n        /* \"#utility.yul\":9263:9272   */\n      dup4\n        /* \"#utility.yul\":9259:9276   */\n      add\n        /* \"#utility.yul\":9252:9299   */\n      mstore\n        /* \"#utility.yul\":9316:9447   */\n      tag_186\n        /* \"#utility.yul\":9442:9446   */\n      dup2\n        /* \"#utility.yul\":9316:9447   */\n      tag_83\n      jump\t// in\n    tag_186:\n        /* \"#utility.yul\":9308:9447   */\n      swap1\n      pop\n        /* \"#utility.yul\":9035:9454   */\n      swap2\n      swap1\n      pop\n      jump\t// out\n\n    auxdata: 0xa26469706673582212201cdef8b853e1e42b4e70594036b95c3b918165c80e5d91b1b4d7a328cba6e3e664736f6c63430008220033\n}\n",
				"bytecode": {
					"linkReferences": {},
					"object": "6080604052348015600e575f5ffd5b506108d88061001c5f395ff3fe608060405260043610610058575f3560e01c80632113522a146100b45780635bf5d54c146100de5780636e1682a014610108578063a341a91b14610132578063c6a508091461013c578063ca463e1914610166576100b0565b366100b0573460025f82825461006e919061037f565b925050819055507fbfe611b001dfcd411432f7bf0d79b82b4b2ee81511edac123a3403c357fb972a33346040516100a6929190610400565b60405180910390a1005b5f5ffd5b3480156100bf575f5ffd5b506100c861017c565b6040516100d59190610427565b60405180910390f35b3480156100e9575f5ffd5b506100f26101a0565b6040516100ff91906104b0565b60405180910390f35b348015610113575f5ffd5b5061011c61022c565b60405161012991906104d0565b60405180910390f35b61013a610232565b005b348015610147575f5ffd5b50610150610308565b60405161015d91906104d0565b60405180910390f35b348015610171575f5ffd5b5061017a61030e565b005b5f5f9054906101000a900473ffffffffffffffffffffffffffffffffffffffff1681565b600380546101ad90610516565b80601f01602080910402602001604051908101604052809291908181526020018280546101d990610516565b80156102245780601f106101fb57610100808354040283529160200191610224565b820191905f5260205f20905b81548152906001019060200180831161020757829003601f168201915b505050505081565b60025481565b6040518060400160405280600d81526020017f496e736964652054617267657400000000000000000000000000000000000000815250600390816102769190610724565b50335f5f6101000a81548173ffffffffffffffffffffffffffffffffffffffff021916908373ffffffffffffffffffffffffffffffffffffffff16021790555060015f8154809291906102c8906107f3565b91905055507fbfe898e9adbfabdc9e4c0a3c8abee5db8af0140f3006c60ded10727505429b5e33346040516102fe929190610400565b60405180910390a1565b60015481565b6040517f08c379a000000000000000000000000000000000000000000000000000000000815260040161034090610884565b60405180910390fd5b5f819050919050565b7f4e487b71000000000000000000000000000000000000000000000000000000005f52601160045260245ffd5b5f61038982610349565b915061039483610349565b92508282019050808211156103ac576103ab610352565b5b92915050565b5f73ffffffffffffffffffffffffffffffffffffffff82169050919050565b5f6103db826103b2565b9050919050565b6103eb816103d1565b82525050565b6103fa81610349565b82525050565b5f6040820190506104135f8301856103e2565b61042060208301846103f1565b9392505050565b5f60208201905061043a5f8301846103e2565b92915050565b5f81519050919050565b5f82825260208201905092915050565b8281835e5f83830152505050565b5f601f19601f8301169050919050565b5f61048282610440565b61048c818561044a565b935061049c81856020860161045a565b6104a581610468565b840191505092915050565b5f6020820190508181035f8301526104c88184610478565b905092915050565b5f6020820190506104e35f8301846103f1565b92915050565b7f4e487b71000000000000000000000000000000000000000000000000000000005f52602260045260245ffd5b5f600282049050600182168061052d57607f821691505b6020821081036105405761053f6104e9565b5b50919050565b7f4e487b71000000000000000000000000000000000000000000000000000000005f52604160045260245ffd5b5f819050815f5260205f209050919050565b5f6020601f8301049050919050565b5f82821b905092915050565b5f600883026105cf7fffffffffffffffffffffffffffffffffffffffffffffffffffffffffffffffff82610594565b6105d98683610594565b95508019841693508086168417925050509392505050565b5f819050919050565b5f61061461060f61060a84610349565b6105f1565b610349565b9050919050565b5f819050919050565b61062d836105fa565b6106416106398261061b565b8484546105a0565b825550505050565b5f5f905090565b610658610649565b610663818484610624565b505050565b5f5b828110156106895761067e5f828401610650565b60018101905061066a565b505050565b601f8211156106dc57828211156106db576106a881610573565b6106b183610585565b6106ba85610585565b60208610156106c7575f90505b8083016106d682840382610668565b505050505b5b505050565b5f82821c905092915050565b5f6106fc5f19846008026106e1565b1980831691505092915050565b5f61071483836106ed565b9150826002028217905092915050565b61072d82610440565b67ffffffffffffffff81111561074657610745610546565b5b6107508254610516565b61075b82828561068e565b5f60209050601f83116001811461078c575f841561077a578287015190505b6107848582610709565b8655506107eb565b601f19841661079a86610573565b5f5b828110156107c15784890151825560018201915060208501945060208101905061079c565b868310156107de57848901516107da601f8916826106ed565b8355505b6001600288020188555050505b505050505050565b5f6107fd82610349565b91507fffffffffffffffffffffffffffffffffffffffffffffffffffffffffffffffff820361082f5761082e610352565b5b600182019050919050565b7f546172676574206661696c7572650000000000000000000000000000000000005f82015250565b5f61086e600e8361044a565b91506108798261083a565b602082019050919050565b5f6020820190508181035f83015261089b81610862565b905091905056fea26469706673582212201cdef8b853e1e42b4e70594036b95c3b918165c80e5d91b1b4d7a328cba6e3e664736f6c63430008220033",
					"opcodes": "PUSH1 0x80 PUSH1 0x40 MSTORE CALLVALUE DUP1 ISZERO PUSH1 0xE JUMPI PUSH0 PUSH0 REVERT JUMPDEST POP PUSH2 0x8D8 DUP1 PUSH2 0x1C PUSH0 CODECOPY PUSH0 RETURN INVALID PUSH1 0x80 PUSH1 0x40 MSTORE PUSH1 0x4 CALLDATASIZE LT PUSH2 0x58 JUMPI PUSH0 CALLDATALOAD PUSH1 0xE0 SHR DUP1 PUSH4 0x2113522A EQ PUSH2 0xB4 JUMPI DUP1 PUSH4 0x5BF5D54C EQ PUSH2 0xDE JUMPI DUP1 PUSH4 0x6E1682A0 EQ PUSH2 0x108 JUMPI DUP1 PUSH4 0xA341A91B EQ PUSH2 0x132 JUMPI DUP1 PUSH4 0xC6A50809 EQ PUSH2 0x13C JUMPI DUP1 PUSH4 0xCA463E19 EQ PUSH2 0x166 JUMPI PUSH2 0xB0 JUMP JUMPDEST CALLDATASIZE PUSH2 0xB0 JUMPI CALLVALUE PUSH1 0x2 PUSH0 DUP3 DUP3 SLOAD PUSH2 0x6E SWAP2 SWAP1 PUSH2 0x37F JUMP JUMPDEST SWAP3 POP POP DUP2 SWAP1 SSTORE POP PUSH32 0xBFE611B001DFCD411432F7BF0D79B82B4B2EE81511EDAC123A3403C357FB972A CALLER CALLVALUE PUSH1 0x40 MLOAD PUSH2 0xA6 SWAP3 SWAP2 SWAP1 PUSH2 0x400 JUMP JUMPDEST PUSH1 0x40 MLOAD DUP1 SWAP2 SUB SWAP1 LOG1 STOP JUMPDEST PUSH0 PUSH0 REVERT JUMPDEST CALLVALUE DUP1 ISZERO PUSH2 0xBF JUMPI PUSH0 PUSH0 REVERT JUMPDEST POP PUSH2 0xC8 PUSH2 0x17C JUMP JUMPDEST PUSH1 0x40 MLOAD PUSH2 0xD5 SWAP2 SWAP1 PUSH2 0x427 JUMP JUMPDEST PUSH1 0x40 MLOAD DUP1 SWAP2 SUB SWAP1 RETURN JUMPDEST CALLVALUE DUP1 ISZERO PUSH2 0xE9 JUMPI PUSH0 PUSH0 REVERT JUMPDEST POP PUSH2 0xF2 PUSH2 0x1A0 JUMP JUMPDEST PUSH1 0x40 MLOAD PUSH2 0xFF SWAP2 SWAP1 PUSH2 0x4B0 JUMP JUMPDEST PUSH1 0x40 MLOAD DUP1 SWAP2 SUB SWAP1 RETURN JUMPDEST CALLVALUE DUP1 ISZERO PUSH2 0x113 JUMPI PUSH0 PUSH0 REVERT JUMPDEST POP PUSH2 0x11C PUSH2 0x22C JUMP JUMPDEST PUSH1 0x40 MLOAD PUSH2 0x129 SWAP2 SWAP1 PUSH2 0x4D0 JUMP JUMPDEST PUSH1 0x40 MLOAD DUP1 SWAP2 SUB SWAP1 RETURN JUMPDEST PUSH2 0x13A PUSH2 0x232 JUMP JUMPDEST STOP JUMPDEST CALLVALUE DUP1 ISZERO PUSH2 0x147 JUMPI PUSH0 PUSH0 REVERT JUMPDEST POP PUSH2 0x150 PUSH2 0x308 JUMP JUMPDEST PUSH1 0x40 MLOAD PUSH2 0x15D SWAP2 SWAP1 PUSH2 0x4D0 JUMP JUMPDEST PUSH1 0x40 MLOAD DUP1 SWAP2 SUB SWAP1 RETURN JUMPDEST CALLVALUE DUP1 ISZERO PUSH2 0x171 JUMPI PUSH0 PUSH0 REVERT JUMPDEST POP PUSH2 0x17A PUSH2 0x30E JUMP JUMPDEST STOP JUMPDEST PUSH0 PUSH0 SWAP1 SLOAD SWAP1 PUSH2 0x100 EXP SWAP1 DIV PUSH20 0xFFFFFFFFFFFFFFFFFFFFFFFFFFFFFFFFFFFFFFFF AND DUP2 JUMP JUMPDEST PUSH1 0x3 DUP1 SLOAD PUSH2 0x1AD SWAP1 PUSH2 0x516 JUMP JUMPDEST DUP1 PUSH1 0x1F ADD PUSH1 0x20 DUP1 SWAP2 DIV MUL PUSH1 0x20 ADD PUSH1 0x40 MLOAD SWAP1 DUP2 ADD PUSH1 0x40 MSTORE DUP1 SWAP3 SWAP2 SWAP1 DUP2 DUP2 MSTORE PUSH1 0x20 ADD DUP3 DUP1 SLOAD PUSH2 0x1D9 SWAP1 PUSH2 0x516 JUMP JUMPDEST DUP1 ISZERO PUSH2 0x224 JUMPI DUP1 PUSH1 0x1F LT PUSH2 0x1FB JUMPI PUSH2 0x100 DUP1 DUP4 SLOAD DIV MUL DUP4 MSTORE SWAP2 PUSH1 0x20 ADD SWAP2 PUSH2 0x224 JUMP JUMPDEST DUP3 ADD SWAP2 SWAP1 PUSH0 MSTORE PUSH1 0x20 PUSH0 KECCAK256 SWAP1 JUMPDEST DUP2 SLOAD DUP2 MSTORE SWAP1 PUSH1 0x1 ADD SWAP1 PUSH1 0x20 ADD DUP1 DUP4 GT PUSH2 0x207 JUMPI DUP3 SWAP1 SUB PUSH1 0x1F AND DUP3 ADD SWAP2 JUMPDEST POP POP POP POP POP DUP2 JUMP JUMPDEST PUSH1 0x2 SLOAD DUP2 JUMP JUMPDEST PUSH1 0x40 MLOAD DUP1 PUSH1 0x40 ADD PUSH1 0x40 MSTORE DUP1 PUSH1 0xD DUP2 MSTORE PUSH1 0x20 ADD PUSH32 0x496E736964652054617267657400000000000000000000000000000000000000 DUP2 MSTORE POP PUSH1 0x3 SWAP1 DUP2 PUSH2 0x276 SWAP2 SWAP1 PUSH2 0x724 JUMP JUMPDEST POP CALLER PUSH0 PUSH0 PUSH2 0x100 EXP DUP2 SLOAD DUP2 PUSH20 0xFFFFFFFFFFFFFFFFFFFFFFFFFFFFFFFFFFFFFFFF MUL NOT AND SWAP1 DUP4 PUSH20 0xFFFFFFFFFFFFFFFFFFFFFFFFFFFFFFFFFFFFFFFF AND MUL OR SWAP1 SSTORE POP PUSH1 0x1 PUSH0 DUP2 SLOAD DUP1 SWAP3 SWAP2 SWAP1 PUSH2 0x2C8 SWAP1 PUSH2 0x7F3 JUMP JUMPDEST SWAP2 SWAP1 POP SSTORE POP PUSH32 0xBFE898E9ADBFABDC9E4C0A3C8ABEE5DB8AF0140F3006C60DED10727505429B5E CALLER CALLVALUE PUSH1 0x40 MLOAD PUSH2 0x2FE SWAP3 SWAP2 SWAP1 PUSH2 0x400 JUMP JUMPDEST PUSH1 0x40 MLOAD DUP1 SWAP2 SUB SWAP1 LOG1 JUMP JUMPDEST PUSH1 0x1 SLOAD DUP2 JUMP JUMPDEST PUSH1 0x40 MLOAD PUSH32 0x8C379A000000000000000000000000000000000000000000000000000000000 DUP2 MSTORE PUSH1 0x4 ADD PUSH2 0x340 SWAP1 PUSH2 0x884 JUMP JUMPDEST PUSH1 0x40 MLOAD DUP1 SWAP2 SUB SWAP1 REVERT JUMPDEST PUSH0 DUP2 SWAP1 POP SWAP2 SWAP1 POP JUMP JUMPDEST PUSH32 0x4E487B7100000000000000000000000000000000000000000000000000000000 PUSH0 MSTORE PUSH1 0x11 PUSH1 0x4 MSTORE PUSH1 0x24 PUSH0 REVERT JUMPDEST PUSH0 PUSH2 0x389 DUP3 PUSH2 0x349 JUMP JUMPDEST SWAP2 POP PUSH2 0x394 DUP4 PUSH2 0x349 JUMP JUMPDEST SWAP3 POP DUP3 DUP3 ADD SWAP1 POP DUP1 DUP3 GT ISZERO PUSH2 0x3AC JUMPI PUSH2 0x3AB PUSH2 0x352 JUMP JUMPDEST JUMPDEST SWAP3 SWAP2 POP POP JUMP JUMPDEST PUSH0 PUSH20 0xFFFFFFFFFFFFFFFFFFFFFFFFFFFFFFFFFFFFFFFF DUP3 AND SWAP1 POP SWAP2 SWAP1 POP JUMP JUMPDEST PUSH0 PUSH2 0x3DB DUP3 PUSH2 0x3B2 JUMP JUMPDEST SWAP1 POP SWAP2 SWAP1 POP JUMP JUMPDEST PUSH2 0x3EB DUP2 PUSH2 0x3D1 JUMP JUMPDEST DUP3 MSTORE POP POP JUMP JUMPDEST PUSH2 0x3FA DUP2 PUSH2 0x349 JUMP JUMPDEST DUP3 MSTORE POP POP JUMP JUMPDEST PUSH0 PUSH1 0x40 DUP3 ADD SWAP1 POP PUSH2 0x413 PUSH0 DUP4 ADD DUP6 PUSH2 0x3E2 JUMP JUMPDEST PUSH2 0x420 PUSH1 0x20 DUP4 ADD DUP5 PUSH2 0x3F1 JUMP JUMPDEST SWAP4 SWAP3 POP POP POP JUMP JUMPDEST PUSH0 PUSH1 0x20 DUP3 ADD SWAP1 POP PUSH2 0x43A PUSH0 DUP4 ADD DUP5 PUSH2 0x3E2 JUMP JUMPDEST SWAP3 SWAP2 POP POP JUMP JUMPDEST PUSH0 DUP2 MLOAD SWAP1 POP SWAP2 SWAP1 POP JUMP JUMPDEST PUSH0 DUP3 DUP3 MSTORE PUSH1 0x20 DUP3 ADD SWAP1 POP SWAP3 SWAP2 POP POP JUMP JUMPDEST DUP3 DUP2 DUP4 MCOPY PUSH0 DUP4 DUP4 ADD MSTORE POP POP POP JUMP JUMPDEST PUSH0 PUSH1 0x1F NOT PUSH1 0x1F DUP4 ADD AND SWAP1 POP SWAP2 SWAP1 POP JUMP JUMPDEST PUSH0 PUSH2 0x482 DUP3 PUSH2 0x440 JUMP JUMPDEST PUSH2 0x48C DUP2 DUP6 PUSH2 0x44A JUMP JUMPDEST SWAP4 POP PUSH2 0x49C DUP2 DUP6 PUSH1 0x20 DUP7 ADD PUSH2 0x45A JUMP JUMPDEST PUSH2 0x4A5 DUP2 PUSH2 0x468 JUMP JUMPDEST DUP5 ADD SWAP2 POP POP SWAP3 SWAP2 POP POP JUMP JUMPDEST PUSH0 PUSH1 0x20 DUP3 ADD SWAP1 POP DUP2 DUP2 SUB PUSH0 DUP4 ADD MSTORE PUSH2 0x4C8 DUP2 DUP5 PUSH2 0x478 JUMP JUMPDEST SWAP1 POP SWAP3 SWAP2 POP POP JUMP JUMPDEST PUSH0 PUSH1 0x20 DUP3 ADD SWAP1 POP PUSH2 0x4E3 PUSH0 DUP4 ADD DUP5 PUSH2 0x3F1 JUMP JUMPDEST SWAP3 SWAP2 POP POP JUMP JUMPDEST PUSH32 0x4E487B7100000000000000000000000000000000000000000000000000000000 PUSH0 MSTORE PUSH1 0x22 PUSH1 0x4 MSTORE PUSH1 0x24 PUSH0 REVERT JUMPDEST PUSH0 PUSH1 0x2 DUP3 DIV SWAP1 POP PUSH1 0x1 DUP3 AND DUP1 PUSH2 0x52D JUMPI PUSH1 0x7F DUP3 AND SWAP2 POP JUMPDEST PUSH1 0x20 DUP3 LT DUP2 SUB PUSH2 0x540 JUMPI PUSH2 0x53F PUSH2 0x4E9 JUMP JUMPDEST JUMPDEST POP SWAP2 SWAP1 POP JUMP JUMPDEST PUSH32 0x4E487B7100000000000000000000000000000000000000000000000000000000 PUSH0 MSTORE PUSH1 0x41 PUSH1 0x4 MSTORE PUSH1 0x24 PUSH0 REVERT JUMPDEST PUSH0 DUP2 SWAP1 POP DUP2 PUSH0 MSTORE PUSH1 0x20 PUSH0 KECCAK256 SWAP1 POP SWAP2 SWAP1 POP JUMP JUMPDEST PUSH0 PUSH1 0x20 PUSH1 0x1F DUP4 ADD DIV SWAP1 POP SWAP2 SWAP1 POP JUMP JUMPDEST PUSH0 DUP3 DUP3 SHL SWAP1 POP SWAP3 SWAP2 POP POP JUMP JUMPDEST PUSH0 PUSH1 0x8 DUP4 MUL PUSH2 0x5CF PUSH32 0xFFFFFFFFFFFFFFFFFFFFFFFFFFFFFFFFFFFFFFFFFFFFFFFFFFFFFFFFFFFFFFFF DUP3 PUSH2 0x594 JUMP JUMPDEST PUSH2 0x5D9 DUP7 DUP4 PUSH2 0x594 JUMP JUMPDEST SWAP6 POP DUP1 NOT DUP5 AND SWAP4 POP DUP1 DUP7 AND DUP5 OR SWAP3 POP POP POP SWAP4 SWAP3 POP POP POP JUMP JUMPDEST PUSH0 DUP2 SWAP1 POP SWAP2 SWAP1 POP JUMP JUMPDEST PUSH0 PUSH2 0x614 PUSH2 0x60F PUSH2 0x60A DUP5 PUSH2 0x349 JUMP JUMPDEST PUSH2 0x5F1 JUMP JUMPDEST PUSH2 0x349 JUMP JUMPDEST SWAP1 POP SWAP2 SWAP1 POP JUMP JUMPDEST PUSH0 DUP2 SWAP1 POP SWAP2 SWAP1 POP JUMP JUMPDEST PUSH2 0x62D DUP4 PUSH2 0x5FA JUMP JUMPDEST PUSH2 0x641 PUSH2 0x639 DUP3 PUSH2 0x61B JUMP JUMPDEST DUP5 DUP5 SLOAD PUSH2 0x5A0 JUMP JUMPDEST DUP3 SSTORE POP POP POP POP JUMP JUMPDEST PUSH0 PUSH0 SWAP1 POP SWAP1 JUMP JUMPDEST PUSH2 0x658 PUSH2 0x649 JUMP JUMPDEST PUSH2 0x663 DUP2 DUP5 DUP5 PUSH2 0x624 JUMP JUMPDEST POP POP POP JUMP JUMPDEST PUSH0 JUMPDEST DUP3 DUP2 LT ISZERO PUSH2 0x689 JUMPI PUSH2 0x67E PUSH0 DUP3 DUP5 ADD PUSH2 0x650 JUMP JUMPDEST PUSH1 0x1 DUP2 ADD SWAP1 POP PUSH2 0x66A JUMP JUMPDEST POP POP POP JUMP JUMPDEST PUSH1 0x1F DUP3 GT ISZERO PUSH2 0x6DC JUMPI DUP3 DUP3 GT ISZERO PUSH2 0x6DB JUMPI PUSH2 0x6A8 DUP2 PUSH2 0x573 JUMP JUMPDEST PUSH2 0x6B1 DUP4 PUSH2 0x585 JUMP JUMPDEST PUSH2 0x6BA DUP6 PUSH2 0x585 JUMP JUMPDEST PUSH1 0x20 DUP7 LT ISZERO PUSH2 0x6C7 JUMPI PUSH0 SWAP1 POP JUMPDEST DUP1 DUP4 ADD PUSH2 0x6D6 DUP3 DUP5 SUB DUP3 PUSH2 0x668 JUMP JUMPDEST POP POP POP POP JUMPDEST JUMPDEST POP POP POP JUMP JUMPDEST PUSH0 DUP3 DUP3 SHR SWAP1 POP SWAP3 SWAP2 POP POP JUMP JUMPDEST PUSH0 PUSH2 0x6FC PUSH0 NOT DUP5 PUSH1 0x8 MUL PUSH2 0x6E1 JUMP JUMPDEST NOT DUP1 DUP4 AND SWAP2 POP POP SWAP3 SWAP2 POP POP JUMP JUMPDEST PUSH0 PUSH2 0x714 DUP4 DUP4 PUSH2 0x6ED JUMP JUMPDEST SWAP2 POP DUP3 PUSH1 0x2 MUL DUP3 OR SWAP1 POP SWAP3 SWAP2 POP POP JUMP JUMPDEST PUSH2 0x72D DUP3 PUSH2 0x440 JUMP JUMPDEST PUSH8 0xFFFFFFFFFFFFFFFF DUP2 GT ISZERO PUSH2 0x746 JUMPI PUSH2 0x745 PUSH2 0x546 JUMP JUMPDEST JUMPDEST PUSH2 0x750 DUP3 SLOAD PUSH2 0x516 JUMP JUMPDEST PUSH2 0x75B DUP3 DUP3 DUP6 PUSH2 0x68E JUMP JUMPDEST PUSH0 PUSH1 0x20 SWAP1 POP PUSH1 0x1F DUP4 GT PUSH1 0x1 DUP2 EQ PUSH2 0x78C JUMPI PUSH0 DUP5 ISZERO PUSH2 0x77A JUMPI DUP3 DUP8 ADD MLOAD SWAP1 POP JUMPDEST PUSH2 0x784 DUP6 DUP3 PUSH2 0x709 JUMP JUMPDEST DUP7 SSTORE POP PUSH2 0x7EB JUMP JUMPDEST PUSH1 0x1F NOT DUP5 AND PUSH2 0x79A DUP7 PUSH2 0x573 JUMP JUMPDEST PUSH0 JUMPDEST DUP3 DUP2 LT ISZERO PUSH2 0x7C1 JUMPI DUP5 DUP10 ADD MLOAD DUP3 SSTORE PUSH1 0x1 DUP3 ADD SWAP2 POP PUSH1 0x20 DUP6 ADD SWAP5 POP PUSH1 0x20 DUP2 ADD SWAP1 POP PUSH2 0x79C JUMP JUMPDEST DUP7 DUP4 LT ISZERO PUSH2 0x7DE JUMPI DUP5 DUP10 ADD MLOAD PUSH2 0x7DA PUSH1 0x1F DUP10 AND DUP3 PUSH2 0x6ED JUMP JUMPDEST DUP4 SSTORE POP JUMPDEST PUSH1 0x1 PUSH1 0x2 DUP9 MUL ADD DUP9 SSTORE POP POP POP JUMPDEST POP POP POP POP POP POP JUMP JUMPDEST PUSH0 PUSH2 0x7FD DUP3 PUSH2 0x349 JUMP JUMPDEST SWAP2 POP PUSH32 0xFFFFFFFFFFFFFFFFFFFFFFFFFFFFFFFFFFFFFFFFFFFFFFFFFFFFFFFFFFFFFFFF DUP3 SUB PUSH2 0x82F JUMPI PUSH2 0x82E PUSH2 0x352 JUMP JUMPDEST JUMPDEST PUSH1 0x1 DUP3 ADD SWAP1 POP SWAP2 SWAP1 POP JUMP JUMPDEST PUSH32 0x546172676574206661696C757265000000000000000000000000000000000000 PUSH0 DUP3 ADD MSTORE POP JUMP JUMPDEST PUSH0 PUSH2 0x86E PUSH1 0xE DUP4 PUSH2 0x44A JUMP JUMPDEST SWAP2 POP PUSH2 0x879 DUP3 PUSH2 0x83A JUMP JUMPDEST PUSH1 0x20 DUP3 ADD SWAP1 POP SWAP2 SWAP1 POP JUMP JUMPDEST PUSH0 PUSH1 0x20 DUP3 ADD SWAP1 POP DUP2 DUP2 SUB PUSH0 DUP4 ADD MSTORE PUSH2 0x89B DUP2 PUSH2 0x862 JUMP JUMPDEST SWAP1 POP SWAP2 SWAP1 POP JUMP INVALID LOG2 PUSH5 0x6970667358 0x22 SLT KECCAK256 SHR 0xDE EXTCALL 0xB8 MSTORE8 RJUMPI 0xE42B 0x4E PUSH17 0x594036B95C3B918165C80E5D91B1B4D7A3 0x28 0xCB 0xA6 CALLF 0xE664 PUSH20 0x6F6C634300082200330000000000000000000000 "
				},
				"gasEstimates": {
					"creation": {
						"codeDepositCost": "452800",
						"executionCost": "484",
						"totalCost": "453284"
					},
					"external": {
						"currentStage()": "infinite",
						"executionCounter()": "2491",
						"failFunction()": "516",
						"lastCaller()": "2485",
						"targetFunction()": "infinite",
						"totalETHReceived()": "2447"
					}
				},
				"methodIdentifiers": {
					"currentStage()": "5bf5d54c",
					"executionCounter()": "c6a50809",
					"failFunction()": "ca463e19",
					"lastCaller()": "2113522a",
					"targetFunction()": "a341a91b",
					"totalETHReceived()": "6e1682a0"
				}
			},
			"storageLayout": {
				"storage": [
					{
						"astId": 67,
						"contract": "val65.sol:ExternalTarget",
						"label": "lastCaller",
						"offset": 0,
						"slot": "0",
						"type": "t_address"
					},
					{
						"astId": 69,
						"contract": "val65.sol:ExternalTarget",
						"label": "executionCounter",
						"offset": 0,
						"slot": "1",
						"type": "t_uint256"
					},
					{
						"astId": 71,
						"contract": "val65.sol:ExternalTarget",
						"label": "totalETHReceived",
						"offset": 0,
						"slot": "2",
						"type": "t_uint256"
					},
					{
						"astId": 73,
						"contract": "val65.sol:ExternalTarget",
						"label": "currentStage",
						"offset": 0,
						"slot": "3",
						"type": "t_string_storage"
					}
				],
				"types": {
					"t_address": {
						"encoding": "inplace",
						"label": "address",
						"numberOfBytes": "20"
					},
					"t_string_storage": {
						"encoding": "bytes",
						"label": "string",
						"numberOfBytes": "32"
					},
					"t_uint256": {
						"encoding": "inplace",
						"label": "uint256",
						"numberOfBytes": "32"
					}
				}
			},
			"userdoc": {
				"kind": "user",
				"methods": {},
				"version": 1
			}
		}
	}
}