{
	"val53.sol": {
		"LowLevelCallExample": {
			"abi": [
				{
					"anonymous": false,
					"inputs": [
						{
							"indexed": true,
							"internalType": "address",
							"name": "user",
							"type": "address"
						},
						{
							"indexed": false,
							"internalType": "uint256",
							"name": "amount",
							"type": "uint256"
						}
					],
					"name": "Deposit",
					"type": "event"
				},
				{
					"anonymous": false,
					"inputs": [
						{
							"indexed": true,
							"internalType": "address",
							"name": "user",
							"type": "address"
						},
						{
							"indexed": false,
							"internalType": "uint256",
							"name": "amount",
							"type": "uint256"
						}
					],
					"name": "TransferFailed",
					"type": "event"
				},
				{
					"anonymous": false,
					"inputs": [
						{
							"indexed": true,
							"internalType": "address",
							"name": "user",
							"type": "address"
						},
						{
							"indexed": false,
							"internalType": "uint256",
							"name": "amount",
							"type": "uint256"
						}
					],
					"name": "Withdraw",
					"type": "event"
				},
				{
					"inputs": [
						{
							"internalType": "address",
							"name": "",
							"type": "address"
						}
					],
					"name": "balances",
					"outputs": [
						{
							"internalType": "uint256",
							"name": "",
							"type": "uint256"
						}
					],
					"stateMutability": "view",
					"type": "function"
				},
				{
					"inputs": [],
					"name": "contractBalance",
					"outputs": [
						{
							"internalType": "uint256",
							"name": "",
							"type": "uint256"
						}
					],
					"stateMutability": "view",
					"type": "function"
				},
				{
					"inputs": [],
					"name": "deposit",
					"outputs": [],
					"stateMutability": "payable",
					"type": "function"
				},
				{
					"inputs": [
						{
							"internalType": "uint256",
							"name": "_amount",
							"type": "uint256"
						}
					],
					"name": "safeWithdraw",
					"outputs": [],
					"stateMutability": "nonpayable",
					"type": "function"
				},
				{
					"inputs": [
						{
							"internalType": "uint256",
							"name": "_amount",
							"type": "uint256"
						}
					],
					"name": "vulnerableWithdraw",
					"outputs": [],
					"stateMutability": "nonpayable",
					"type": "function"
				},
				{
					"inputs": [
						{
							"internalType": "uint256",
							"name": "_amount",
							"type": "uint256"
						}
					],
					"name": "vulnerableWithdrawval",
					"outputs": [],
					"stateMutability": "nonpayable",
					"type": "function"
				},
				{
					"stateMutability": "payable",
					"type": "receive"
				}
			],
			"devdoc": {
				"kind": "dev",
				"methods": {},
				"version": 1
			},
			"evm": {
				"assembly": "    /* \"val53.sol\":15405:19450  contract LowLevelCallExample {... */\n  mstore(0x40, 0x80)\n  callvalue\n  dup1\n  iszero\n  tag_1\n  jumpi\n  revert(0x00, 0x00)\ntag_1:\n  pop\n  dataSize(sub_0)\n  dup1\n  dataOffset(sub_0)\n  0x00\n  codecopy\n  0x00\n  return\nstop\n\nsub_0: assembly {\n        /* \"val53.sol\":15405:19450  contract LowLevelCallExample {... */\n      mstore(0x40, 0x80)\n      jumpi(tag_1, lt(calldatasize, 0x04))\n      shr(0xe0, calldataload(0x00))\n      dup1\n      0x27e235e3\n      eq\n      tag_3\n      jumpi\n      dup1\n      0x8b7afe2e\n      eq\n      tag_4\n      jumpi\n      dup1\n      0xb0fd035b\n      eq\n      tag_5\n      jumpi\n      dup1\n      0xcc817673\n      eq\n      tag_6\n      jumpi\n      dup1\n      0xd0e30db0\n      eq\n      tag_7\n      jumpi\n      dup1\n      0xeacac102\n      eq\n      tag_8\n      jumpi\n      jump(tag_2)\n    tag_1:\n      jumpi(tag_2, calldatasize)\n      stop\n    tag_2:\n      revert(0x00, 0x00)\n        /* \"val53.sol\":15482:15525  mapping(address => uint256) public balances */\n    tag_3:\n      callvalue\n      dup1\n      iszero\n      tag_11\n      jumpi\n      revert(0x00, 0x00)\n    tag_11:\n      pop\n      tag_12\n      0x04\n      dup1\n      calldatasize\n      sub\n      dup2\n      add\n      swap1\n      tag_13\n      swap2\n      swap1\n      tag_14\n      jump\t// in\n    tag_13:\n      tag_15\n      jump\t// in\n    tag_12:\n      mload(0x40)\n      tag_16\n      swap2\n      swap1\n      tag_17\n      jump\t// in\n    tag_16:\n      mload(0x40)\n      dup1\n      swap2\n      sub\n      swap1\n      return\n        /* \"val53.sol\":19270:19410  function contractBalance()... */\n    tag_4:\n      callvalue\n      dup1\n      iszero\n      tag_18\n      jumpi\n      revert(0x00, 0x00)\n    tag_18:\n      pop\n      tag_19\n      tag_20\n      jump\t// in\n    tag_19:\n      mload(0x40)\n      tag_21\n      swap2\n      swap1\n      tag_17\n      jump\t// in\n    tag_21:\n      mload(0x40)\n      dup1\n      swap2\n      sub\n      swap1\n      return\n        /* \"val53.sol\":16523:17539  function safeWithdraw(... */\n    tag_5:\n      callvalue\n      dup1\n      iszero\n      tag_22\n      jumpi\n      revert(0x00, 0x00)\n    tag_22:\n      pop\n      tag_23\n      0x04\n      dup1\n      calldatasize\n      sub\n      dup2\n      add\n      swap1\n      tag_24\n      swap2\n      swap1\n      tag_25\n      jump\t// in\n    tag_24:\n      tag_26\n      jump\t// in\n    tag_23:\n      stop\n        /* \"val53.sol\":18522:19094  function vulnerableWithdraw(uint256 _amount) external nonReentrant... */\n    tag_6:\n      callvalue\n      dup1\n      iszero\n      tag_27\n      jumpi\n      revert(0x00, 0x00)\n    tag_27:\n      pop\n      tag_28\n      0x04\n      dup1\n      calldatasize\n      sub\n      dup2\n      add\n      swap1\n      tag_29\n      swap2\n      swap1\n      tag_25\n      jump\t// in\n    tag_29:\n      tag_30\n      jump\t// in\n    tag_28:\n      stop\n        /* \"val53.sol\":16130:16347  function deposit()... */\n    tag_7:\n      tag_31\n      tag_32\n      jump\t// in\n    tag_31:\n      stop\n        /* \"val53.sol\":17739:18461  function vulnerableWithdrawval(... */\n    tag_8:\n      callvalue\n      dup1\n      iszero\n      tag_33\n      jumpi\n      revert(0x00, 0x00)\n    tag_33:\n      pop\n      tag_34\n      0x04\n      dup1\n      calldatasize\n      sub\n      dup2\n      add\n      swap1\n      tag_35\n      swap2\n      swap1\n      tag_25\n      jump\t// in\n    tag_35:\n      tag_36\n      jump\t// in\n    tag_34:\n      stop\n        /* \"val53.sol\":15482:15525  mapping(address => uint256) public balances */\n    tag_15:\n      mstore(0x20, 0x00)\n      dup1\n      0x00\n      mstore\n      keccak256(0x00, 0x40)\n      0x00\n      swap2\n      pop\n      swap1\n      pop\n      sload\n      dup2\n      jump\t// out\n        /* \"val53.sol\":19270:19410  function contractBalance()... */\n    tag_20:\n        /* \"val53.sol\":19347:19354  uint256 */\n      0x00\n        /* \"val53.sol\":19381:19402  address(this).balance */\n      selfbalance\n        /* \"val53.sol\":19374:19402  return address(this).balance */\n      swap1\n      pop\n        /* \"val53.sol\":19270:19410  function contractBalance()... */\n      swap1\n      jump\t// out\n        /* \"val53.sol\":16523:17539  function safeWithdraw(... */\n    tag_26:\n        /* \"val53.sol\":15872:15878  locked */\n      0x01\n      0x00\n      swap1\n      sload\n      swap1\n      0x0100\n      exp\n      swap1\n      div\n      0xff\n      and\n        /* \"val53.sol\":15871:15878  !locked */\n      iszero\n        /* \"val53.sol\":15863:15905  require(!locked, \"Reentrant call blocked\") */\n      tag_39\n      jumpi\n      mload(0x40)\n      0x08c379a000000000000000000000000000000000000000000000000000000000\n      dup2\n      mstore\n      0x04\n      add\n      tag_40\n      swap1\n      tag_41\n      jump\t// in\n    tag_40:\n      mload(0x40)\n      dup1\n      swap2\n      sub\n      swap1\n      revert\n    tag_39:\n        /* \"val53.sol\":15927:15931  true */\n      0x01\n        /* \"val53.sol\":15918:15924  locked */\n      dup1\n      0x00\n        /* \"val53.sol\":15918:15931  locked = true */\n      0x0100\n      exp\n      dup2\n      sload\n      dup2\n      0xff\n      mul\n      not\n      and\n      swap1\n      dup4\n      iszero\n      iszero\n      mul\n      or\n      swap1\n      sstore\n      pop\n        /* \"val53.sol\":16757:16764  _amount */\n      dup1\n        /* \"val53.sol\":16733:16741  balances */\n      0x00\n        /* \"val53.sol\":16733:16753  balances[msg.sender] */\n      0x00\n        /* \"val53.sol\":16742:16752  msg.sender */\n      caller\n        /* \"val53.sol\":16733:16753  balances[msg.sender] */\n      0xffffffffffffffffffffffffffffffffffffffff\n      and\n      0xffffffffffffffffffffffffffffffffffffffff\n      and\n      dup2\n      mstore\n      0x20\n      add\n      swap1\n      dup2\n      mstore\n      0x20\n      add\n      0x00\n      keccak256\n      sload\n        /* \"val53.sol\":16733:16764  balances[msg.sender] >= _amount */\n      lt\n      iszero\n        /* \"val53.sol\":16711:16812  require(... */\n      tag_43\n      jumpi\n      mload(0x40)\n      0x08c379a000000000000000000000000000000000000000000000000000000000\n      dup2\n      mstore\n      0x04\n      add\n      tag_44\n      swap1\n      tag_45\n      jump\t// in\n    tag_44:\n      mload(0x40)\n      dup1\n      swap2\n      sub\n      swap1\n      revert\n    tag_43:\n        /* \"val53.sol\":16971:16978  _amount */\n      dup1\n        /* \"val53.sol\":16947:16955  balances */\n      0x00\n        /* \"val53.sol\":16947:16967  balances[msg.sender] */\n      0x00\n        /* \"val53.sol\":16956:16966  msg.sender */\n      caller\n        /* \"val53.sol\":16947:16967  balances[msg.sender] */\n      0xffffffffffffffffffffffffffffffffffffffff\n      and\n      0xffffffffffffffffffffffffffffffffffffffff\n      and\n      dup2\n      mstore\n      0x20\n      add\n      swap1\n      dup2\n      mstore\n      0x20\n      add\n      0x00\n      keccak256\n      0x00\n        /* \"val53.sol\":16947:16978  balances[msg.sender] -= _amount */\n      dup3\n      dup3\n      sload\n      tag_46\n      swap2\n      swap1\n      tag_47\n      jump\t// in\n    tag_46:\n      swap3\n      pop\n      pop\n      dup2\n      swap1\n      sstore\n      pop\n        /* \"val53.sol\":17154:17166  bool success */\n      0x00\n        /* \"val53.sol\":17193:17203  msg.sender */\n      caller\n        /* \"val53.sol\":17185:17209  payable(msg.sender).call */\n      0xffffffffffffffffffffffffffffffffffffffff\n      and\n        /* \"val53.sol\":17235:17242  _amount */\n      dup3\n        /* \"val53.sol\":17185:17261  payable(msg.sender).call{... */\n      mload(0x40)\n      tag_48\n      swap1\n      tag_49\n      jump\t// in\n    tag_48:\n      0x00\n      mload(0x40)\n      dup1\n      dup4\n      sub\n      dup2\n      dup6\n      dup8\n      gas\n      call\n      swap3\n      pop\n      pop\n      pop\n      returndatasize\n      dup1\n      0x00\n      dup2\n      eq\n      tag_52\n      jumpi\n      mload(0x40)\n      swap2\n      pop\n      and(add(returndatasize, 0x3f), not(0x1f))\n      dup3\n      add\n      0x40\n      mstore\n      returndatasize\n      dup3\n      mstore\n      returndatasize\n      0x00\n      0x20\n      dup5\n      add\n      returndatacopy\n      jump(tag_51)\n    tag_52:\n      0x60\n      swap2\n      pop\n    tag_51:\n      pop\n        /* \"val53.sol\":17153:17261  (bool success, ) =... */\n      pop\n      swap1\n      pop\n        /* \"val53.sol\":17282:17289  success */\n      dup1\n        /* \"val53.sol\":17278:17481  if(!success)... */\n      tag_53\n      jumpi\n        /* \"val53.sol\":17347:17354  _amount */\n      dup2\n        /* \"val53.sol\":17323:17331  balances */\n      0x00\n        /* \"val53.sol\":17323:17343  balances[msg.sender] */\n      0x00\n        /* \"val53.sol\":17332:17342  msg.sender */\n      caller\n        /* \"val53.sol\":17323:17343  balances[msg.sender] */\n      0xffffffffffffffffffffffffffffffffffffffff\n      and\n      0xffffffffffffffffffffffffffffffffffffffff\n      and\n      dup2\n      mstore\n      0x20\n      add\n      swap1\n      dup2\n      mstore\n      0x20\n      add\n      0x00\n      keccak256\n      0x00\n        /* \"val53.sol\":17323:17354  balances[msg.sender] += _amount */\n      dup3\n      dup3\n      sload\n      tag_54\n      swap2\n      swap1\n      tag_55\n      jump\t// in\n    tag_54:\n      swap3\n      pop\n      pop\n      dup2\n      swap1\n      sstore\n      pop\n        /* \"val53.sol\":17395:17405  msg.sender */\n      caller\n        /* \"val53.sol\":17380:17415  TransferFailed(msg.sender, _amount) */\n      0xffffffffffffffffffffffffffffffffffffffff\n      and\n      0x1c43b9761b3fba5321ca8212bfc231945f668ccc0c446f333999eea9ce8fda81\n        /* \"val53.sol\":17407:17414  _amount */\n      dup4\n        /* \"val53.sol\":17380:17415  TransferFailed(msg.sender, _amount) */\n      mload(0x40)\n      tag_56\n      swap2\n      swap1\n      tag_17\n      jump\t// in\n    tag_56:\n      mload(0x40)\n      dup1\n      swap2\n      sub\n      swap1\n      log2\n        /* \"val53.sol\":17436:17465  revert(\"ETH transfer failed\") */\n      mload(0x40)\n      0x08c379a000000000000000000000000000000000000000000000000000000000\n      dup2\n      mstore\n      0x04\n      add\n      tag_57\n      swap1\n      tag_58\n      jump\t// in\n    tag_57:\n      mload(0x40)\n      dup1\n      swap2\n      sub\n      swap1\n      revert\n        /* \"val53.sol\":17278:17481  if(!success)... */\n    tag_53:\n        /* \"val53.sol\":17511:17521  msg.sender */\n      caller\n        /* \"val53.sol\":17502:17531  Withdraw(msg.sender, _amount) */\n      0xffffffffffffffffffffffffffffffffffffffff\n      and\n      0x884edad9ce6fa2440d8a54cc123490eb96d2768479d49ff9c7366125a9424364\n        /* \"val53.sol\":17523:17530  _amount */\n      dup4\n        /* \"val53.sol\":17502:17531  Withdraw(msg.sender, _amount) */\n      mload(0x40)\n      tag_59\n      swap2\n      swap1\n      tag_17\n      jump\t// in\n    tag_59:\n      mload(0x40)\n      dup1\n      swap2\n      sub\n      swap1\n      log2\n        /* \"val53.sol\":16614:17539  {... */\n      pop\n        /* \"val53.sol\":15956:15961  false */\n      0x00\n        /* \"val53.sol\":15947:15953  locked */\n      0x01\n      0x00\n        /* \"val53.sol\":15947:15961  locked = false */\n      0x0100\n      exp\n      dup2\n      sload\n      dup2\n      0xff\n      mul\n      not\n      and\n      swap1\n      dup4\n      iszero\n      iszero\n      mul\n      or\n      swap1\n      sstore\n      pop\n        /* \"val53.sol\":16523:17539  function safeWithdraw(... */\n      pop\n      jump\t// out\n        /* \"val53.sol\":18522:19094  function vulnerableWithdraw(uint256 _amount) external nonReentrant... */\n    tag_30:\n        /* \"val53.sol\":15872:15878  locked */\n      0x01\n      0x00\n      swap1\n      sload\n      swap1\n      0x0100\n      exp\n      swap1\n      div\n      0xff\n      and\n        /* \"val53.sol\":15871:15878  !locked */\n      iszero\n        /* \"val53.sol\":15863:15905  require(!locked, \"Reentrant call blocked\") */\n      tag_61\n      jumpi\n      mload(0x40)\n      0x08c379a000000000000000000000000000000000000000000000000000000000\n      dup2\n      mstore\n      0x04\n      add\n      tag_62\n      swap1\n      tag_41\n      jump\t// in\n    tag_62:\n      mload(0x40)\n      dup1\n      swap2\n      sub\n      swap1\n      revert\n    tag_61:\n        /* \"val53.sol\":15927:15931  true */\n      0x01\n        /* \"val53.sol\":15918:15924  locked */\n      dup1\n      0x00\n        /* \"val53.sol\":15918:15931  locked = true */\n      0x0100\n      exp\n      dup2\n      sload\n      dup2\n      0xff\n      mul\n      not\n      and\n      swap1\n      dup4\n      iszero\n      iszero\n      mul\n      or\n      swap1\n      sstore\n      pop\n        /* \"val53.sol\":18637:18644  _amount */\n      dup1\n        /* \"val53.sol\":18613:18621  balances */\n      0x00\n        /* \"val53.sol\":18613:18633  balances[msg.sender] */\n      0x00\n        /* \"val53.sol\":18622:18632  msg.sender */\n      caller\n        /* \"val53.sol\":18613:18633  balances[msg.sender] */\n      0xffffffffffffffffffffffffffffffffffffffff\n      and\n      0xffffffffffffffffffffffffffffffffffffffff\n      and\n      dup2\n      mstore\n      0x20\n      add\n      swap1\n      dup2\n      mstore\n      0x20\n      add\n      0x00\n      keccak256\n      sload\n        /* \"val53.sol\":18613:18644  balances[msg.sender] >= _amount */\n      lt\n      iszero\n        /* \"val53.sol\":18605:18669  require(balances[msg.sender] >= _amount, \"Insufficient balance\") */\n      tag_64\n      jumpi\n      mload(0x40)\n      0x08c379a000000000000000000000000000000000000000000000000000000000\n      dup2\n      mstore\n      0x04\n      add\n      tag_65\n      swap1\n      tag_45\n      jump\t// in\n    tag_65:\n      mload(0x40)\n      dup1\n      swap2\n      sub\n      swap1\n      revert\n    tag_64:\n        /* \"val53.sol\":18730:18737  _amount */\n      dup1\n        /* \"val53.sol\":18706:18714  balances */\n      0x00\n        /* \"val53.sol\":18706:18726  balances[msg.sender] */\n      0x00\n        /* \"val53.sol\":18715:18725  msg.sender */\n      caller\n        /* \"val53.sol\":18706:18726  balances[msg.sender] */\n      0xffffffffffffffffffffffffffffffffffffffff\n      and\n      0xffffffffffffffffffffffffffffffffffffffff\n      and\n      dup2\n      mstore\n      0x20\n      add\n      swap1\n      dup2\n      mstore\n      0x20\n      add\n      0x00\n      keccak256\n      0x00\n        /* \"val53.sol\":18706:18737  balances[msg.sender] -= _amount */\n      dup3\n      dup3\n      sload\n      tag_66\n      swap2\n      swap1\n      tag_47\n      jump\t// in\n    tag_66:\n      swap3\n      pop\n      pop\n      dup2\n      swap1\n      sstore\n      pop\n        /* \"val53.sol\":18751:18763  bool success */\n      0x00\n        /* \"val53.sol\":18777:18787  msg.sender */\n      caller\n        /* \"val53.sol\":18769:18793  payable(msg.sender).call */\n      0xffffffffffffffffffffffffffffffffffffffff\n      and\n        /* \"val53.sol\":18826:18833  _amount */\n      dup3\n        /* \"val53.sol\":18769:18848  payable(msg.sender).call ... */\n      mload(0x40)\n      tag_67\n      swap1\n      tag_49\n      jump\t// in\n    tag_67:\n      0x00\n      mload(0x40)\n      dup1\n      dup4\n      sub\n      dup2\n      dup6\n      dup8\n      gas\n      call\n      swap3\n      pop\n      pop\n      pop\n      returndatasize\n      dup1\n      0x00\n      dup2\n      eq\n      tag_70\n      jumpi\n      mload(0x40)\n      swap2\n      pop\n      and(add(returndatasize, 0x3f), not(0x1f))\n      dup3\n      add\n      0x40\n      mstore\n      returndatasize\n      dup3\n      mstore\n      returndatasize\n      0x00\n      0x20\n      dup5\n      add\n      returndatacopy\n      jump(tag_69)\n    tag_70:\n      0x60\n      swap2\n      pop\n    tag_69:\n      pop\n        /* \"val53.sol\":18750:18848  (bool success, ) = payable(msg.sender).call ... */\n      pop\n      swap1\n      pop\n        /* \"val53.sol\":18865:18872  success */\n      dup1\n        /* \"val53.sol\":18861:19040  if(!success)... */\n      tag_71\n      jumpi\n        /* \"val53.sol\":18922:18929  _amount */\n      dup2\n        /* \"val53.sol\":18898:18906  balances */\n      0x00\n        /* \"val53.sol\":18898:18918  balances[msg.sender] */\n      0x00\n        /* \"val53.sol\":18907:18917  msg.sender */\n      caller\n        /* \"val53.sol\":18898:18918  balances[msg.sender] */\n      0xffffffffffffffffffffffffffffffffffffffff\n      and\n      0xffffffffffffffffffffffffffffffffffffffff\n      and\n      dup2\n      mstore\n      0x20\n      add\n      swap1\n      dup2\n      mstore\n      0x20\n      add\n      0x00\n      keccak256\n      0x00\n        /* \"val53.sol\":18898:18929  balances[msg.sender] += _amount */\n      dup3\n      dup3\n      sload\n      tag_72\n      swap2\n      swap1\n      tag_55\n      jump\t// in\n    tag_72:\n      swap3\n      pop\n      pop\n      dup2\n      swap1\n      sstore\n      pop\n        /* \"val53.sol\":18966:18976  msg.sender */\n      caller\n        /* \"val53.sol\":18951:18986  TransferFailed(msg.sender, _amount) */\n      0xffffffffffffffffffffffffffffffffffffffff\n      and\n      0x1c43b9761b3fba5321ca8212bfc231945f668ccc0c446f333999eea9ce8fda81\n        /* \"val53.sol\":18978:18985  _amount */\n      dup4\n        /* \"val53.sol\":18951:18986  TransferFailed(msg.sender, _amount) */\n      mload(0x40)\n      tag_73\n      swap2\n      swap1\n      tag_17\n      jump\t// in\n    tag_73:\n      mload(0x40)\n      dup1\n      swap2\n      sub\n      swap1\n      log2\n        /* \"val53.sol\":19003:19028  revert(\"Transfer failed\") */\n      mload(0x40)\n      0x08c379a000000000000000000000000000000000000000000000000000000000\n      dup2\n      mstore\n      0x04\n      add\n      tag_74\n      swap1\n      tag_75\n      jump\t// in\n    tag_74:\n      mload(0x40)\n      dup1\n      swap2\n      sub\n      swap1\n      revert\n        /* \"val53.sol\":18861:19040  if(!success)... */\n    tag_71:\n        /* \"val53.sol\":19066:19076  msg.sender */\n      caller\n        /* \"val53.sol\":19057:19086  Withdraw(msg.sender, _amount) */\n      0xffffffffffffffffffffffffffffffffffffffff\n      and\n      0x884edad9ce6fa2440d8a54cc123490eb96d2768479d49ff9c7366125a9424364\n        /* \"val53.sol\":19078:19085  _amount */\n      dup4\n        /* \"val53.sol\":19057:19086  Withdraw(msg.sender, _amount) */\n      mload(0x40)\n      tag_76\n      swap2\n      swap1\n      tag_17\n      jump\t// in\n    tag_76:\n      mload(0x40)\n      dup1\n      swap2\n      sub\n      swap1\n      log2\n        /* \"val53.sol\":18594:19094  {... */\n      pop\n        /* \"val53.sol\":15956:15961  false */\n      0x00\n        /* \"val53.sol\":15947:15953  locked */\n      0x01\n      0x00\n        /* \"val53.sol\":15947:15961  locked = false */\n      0x0100\n      exp\n      dup2\n      sload\n      dup2\n      0xff\n      mul\n      not\n      and\n      swap1\n      dup4\n      iszero\n      iszero\n      mul\n      or\n      swap1\n      sstore\n      pop\n        /* \"val53.sol\":18522:19094  function vulnerableWithdraw(uint256 _amount) external nonReentrant... */\n      pop\n      jump\t// out\n        /* \"val53.sol\":16130:16347  function deposit()... */\n    tag_32:\n        /* \"val53.sol\":16282:16291  msg.value */\n      callvalue\n        /* \"val53.sol\":16258:16266  balances */\n      0x00\n        /* \"val53.sol\":16258:16278  balances[msg.sender] */\n      0x00\n        /* \"val53.sol\":16267:16277  msg.sender */\n      caller\n        /* \"val53.sol\":16258:16278  balances[msg.sender] */\n      0xffffffffffffffffffffffffffffffffffffffff\n      and\n      0xffffffffffffffffffffffffffffffffffffffff\n      and\n      dup2\n      mstore\n      0x20\n      add\n      swap1\n      dup2\n      mstore\n      0x20\n      add\n      0x00\n      keccak256\n      0x00\n        /* \"val53.sol\":16258:16291  balances[msg.sender] += msg.value */\n      dup3\n      dup3\n      sload\n      tag_78\n      swap2\n      swap1\n      tag_55\n      jump\t// in\n    tag_78:\n      swap3\n      pop\n      pop\n      dup2\n      swap1\n      sstore\n      pop\n        /* \"val53.sol\":16317:16327  msg.sender */\n      caller\n        /* \"val53.sol\":16309:16339  Deposit(msg.sender, msg.value) */\n      0xffffffffffffffffffffffffffffffffffffffff\n      and\n      0xe1fffcc4923d04b559f4d29a8bfc6cda04eb5b0d3c460751c2402c5c5cc9109c\n        /* \"val53.sol\":16329:16338  msg.value */\n      callvalue\n        /* \"val53.sol\":16309:16339  Deposit(msg.sender, msg.value) */\n      mload(0x40)\n      tag_79\n      swap2\n      swap1\n      tag_17\n      jump\t// in\n    tag_79:\n      mload(0x40)\n      dup1\n      swap2\n      sub\n      swap1\n      log2\n        /* \"val53.sol\":16130:16347  function deposit()... */\n      jump\t// out\n        /* \"val53.sol\":17739:18461  function vulnerableWithdrawval(... */\n    tag_36:\n        /* \"val53.sol\":17934:17941  _amount */\n      dup1\n        /* \"val53.sol\":17910:17918  balances */\n      0x00\n        /* \"val53.sol\":17910:17930  balances[msg.sender] */\n      0x00\n        /* \"val53.sol\":17919:17929  msg.sender */\n      caller\n        /* \"val53.sol\":17910:17930  balances[msg.sender] */\n      0xffffffffffffffffffffffffffffffffffffffff\n      and\n      0xffffffffffffffffffffffffffffffffffffffff\n      and\n      dup2\n      mstore\n      0x20\n      add\n      swap1\n      dup2\n      mstore\n      0x20\n      add\n      0x00\n      keccak256\n      sload\n        /* \"val53.sol\":17910:17941  balances[msg.sender] >= _amount */\n      lt\n      iszero\n        /* \"val53.sol\":17888:17989  require(... */\n      tag_81\n      jumpi\n      mload(0x40)\n      0x08c379a000000000000000000000000000000000000000000000000000000000\n      dup2\n      mstore\n      0x04\n      add\n      tag_82\n      swap1\n      tag_45\n      jump\t// in\n    tag_82:\n      mload(0x40)\n      dup1\n      swap2\n      sub\n      swap1\n      revert\n    tag_81:\n        /* \"val53.sol\":18124:18136  bool success */\n      0x00\n        /* \"val53.sol\":18163:18173  msg.sender */\n      caller\n        /* \"val53.sol\":18155:18179  payable(msg.sender).call */\n      0xffffffffffffffffffffffffffffffffffffffff\n      and\n        /* \"val53.sol\":18205:18212  _amount */\n      dup3\n        /* \"val53.sol\":18155:18231  payable(msg.sender).call{... */\n      mload(0x40)\n      tag_83\n      swap1\n      tag_49\n      jump\t// in\n    tag_83:\n      0x00\n      mload(0x40)\n      dup1\n      dup4\n      sub\n      dup2\n      dup6\n      dup8\n      gas\n      call\n      swap3\n      pop\n      pop\n      pop\n      returndatasize\n      dup1\n      0x00\n      dup2\n      eq\n      tag_86\n      jumpi\n      mload(0x40)\n      swap2\n      pop\n      and(add(returndatasize, 0x3f), not(0x1f))\n      dup3\n      add\n      0x40\n      mstore\n      returndatasize\n      dup3\n      mstore\n      returndatasize\n      0x00\n      0x20\n      dup5\n      add\n      returndatacopy\n      jump(tag_85)\n    tag_86:\n      0x60\n      swap2\n      pop\n    tag_85:\n      pop\n        /* \"val53.sol\":18123:18231  (bool success, ) =... */\n      pop\n      swap1\n      pop\n        /* \"val53.sol\":18266:18273  success */\n      dup1\n        /* \"val53.sol\":18244:18316  require(... */\n      tag_87\n      jumpi\n      mload(0x40)\n      0x08c379a000000000000000000000000000000000000000000000000000000000\n      dup2\n      mstore\n      0x04\n      add\n      tag_88\n      swap1\n      tag_75\n      jump\t// in\n    tag_88:\n      mload(0x40)\n      dup1\n      swap2\n      sub\n      swap1\n      revert\n    tag_87:\n        /* \"val53.sol\":18446:18453  _amount */\n      dup2\n        /* \"val53.sol\":18422:18430  balances */\n      0x00\n        /* \"val53.sol\":18422:18442  balances[msg.sender] */\n      0x00\n        /* \"val53.sol\":18431:18441  msg.sender */\n      caller\n        /* \"val53.sol\":18422:18442  balances[msg.sender] */\n      0xffffffffffffffffffffffffffffffffffffffff\n      and\n      0xffffffffffffffffffffffffffffffffffffffff\n      and\n      dup2\n      mstore\n      0x20\n      add\n      swap1\n      dup2\n      mstore\n      0x20\n      add\n      0x00\n      keccak256\n      0x00\n        /* \"val53.sol\":18422:18453  balances[msg.sender] -= _amount */\n      dup3\n      dup3\n      sload\n      tag_89\n      swap2\n      swap1\n      tag_47\n      jump\t// in\n    tag_89:\n      swap3\n      pop\n      pop\n      dup2\n      swap1\n      sstore\n      pop\n        /* \"val53.sol\":17826:18461  {... */\n      pop\n        /* \"val53.sol\":17739:18461  function vulnerableWithdrawval(... */\n      pop\n      jump\t// out\n        /* \"#utility.yul\":88:205   */\n    tag_91:\n        /* \"#utility.yul\":197:198   */\n      0x00\n        /* \"#utility.yul\":194:195   */\n      0x00\n        /* \"#utility.yul\":187:199   */\n      revert\n        /* \"#utility.yul\":334:460   */\n    tag_93:\n        /* \"#utility.yul\":371:378   */\n      0x00\n        /* \"#utility.yul\":411:453   */\n      0xffffffffffffffffffffffffffffffffffffffff\n        /* \"#utility.yul\":404:409   */\n      dup3\n        /* \"#utility.yul\":400:454   */\n      and\n        /* \"#utility.yul\":389:454   */\n      swap1\n      pop\n        /* \"#utility.yul\":334:460   */\n      swap2\n      swap1\n      pop\n      jump\t// out\n        /* \"#utility.yul\":466:562   */\n    tag_94:\n        /* \"#utility.yul\":503:510   */\n      0x00\n        /* \"#utility.yul\":532:556   */\n      tag_120\n        /* \"#utility.yul\":550:555   */\n      dup3\n        /* \"#utility.yul\":532:556   */\n      tag_93\n      jump\t// in\n    tag_120:\n        /* \"#utility.yul\":521:556   */\n      swap1\n      pop\n        /* \"#utility.yul\":466:562   */\n      swap2\n      swap1\n      pop\n      jump\t// out\n        /* \"#utility.yul\":568:690   */\n    tag_95:\n        /* \"#utility.yul\":641:665   */\n      tag_122\n        /* \"#utility.yul\":659:664   */\n      dup2\n        /* \"#utility.yul\":641:665   */\n      tag_94\n      jump\t// in\n    tag_122:\n        /* \"#utility.yul\":634:639   */\n      dup2\n        /* \"#utility.yul\":631:666   */\n      eq\n        /* \"#utility.yul\":621:684   */\n      tag_123\n      jumpi\n        /* \"#utility.yul\":680:681   */\n      0x00\n        /* \"#utility.yul\":677:678   */\n      0x00\n        /* \"#utility.yul\":670:682   */\n      revert\n        /* \"#utility.yul\":621:684   */\n    tag_123:\n        /* \"#utility.yul\":568:690   */\n      pop\n      jump\t// out\n        /* \"#utility.yul\":696:835   */\n    tag_96:\n        /* \"#utility.yul\":742:747   */\n      0x00\n        /* \"#utility.yul\":780:786   */\n      dup2\n        /* \"#utility.yul\":767:787   */\n      calldataload\n        /* \"#utility.yul\":758:787   */\n      swap1\n      pop\n        /* \"#utility.yul\":796:829   */\n      tag_125\n        /* \"#utility.yul\":823:828   */\n      dup2\n        /* \"#utility.yul\":796:829   */\n      tag_95\n      jump\t// in\n    tag_125:\n        /* \"#utility.yul\":696:835   */\n      swap3\n      swap2\n      pop\n      pop\n      jump\t// out\n        /* \"#utility.yul\":841:1170   */\n    tag_14:\n        /* \"#utility.yul\":900:906   */\n      0x00\n        /* \"#utility.yul\":949:951   */\n      0x20\n        /* \"#utility.yul\":937:946   */\n      dup3\n        /* \"#utility.yul\":928:935   */\n      dup5\n        /* \"#utility.yul\":924:947   */\n      sub\n        /* \"#utility.yul\":920:952   */\n      slt\n        /* \"#utility.yul\":917:1036   */\n      iszero\n      tag_127\n      jumpi\n        /* \"#utility.yul\":955:1034   */\n      tag_128\n      tag_91\n      jump\t// in\n    tag_128:\n        /* \"#utility.yul\":917:1036   */\n    tag_127:\n        /* \"#utility.yul\":1075:1076   */\n      0x00\n        /* \"#utility.yul\":1100:1153   */\n      tag_129\n        /* \"#utility.yul\":1145:1152   */\n      dup5\n        /* \"#utility.yul\":1136:1142   */\n      dup3\n        /* \"#utility.yul\":1125:1134   */\n      dup6\n        /* \"#utility.yul\":1121:1143   */\n      add\n        /* \"#utility.yul\":1100:1153   */\n      tag_96\n      jump\t// in\n    tag_129:\n        /* \"#utility.yul\":1090:1153   */\n      swap2\n      pop\n        /* \"#utility.yul\":1046:1163   */\n      pop\n        /* \"#utility.yul\":841:1170   */\n      swap3\n      swap2\n      pop\n      pop\n      jump\t// out\n        /* \"#utility.yul\":1176:1253   */\n    tag_97:\n        /* \"#utility.yul\":1213:1220   */\n      0x00\n        /* \"#utility.yul\":1242:1247   */\n      dup2\n        /* \"#utility.yul\":1231:1247   */\n      swap1\n      pop\n        /* \"#utility.yul\":1176:1253   */\n      swap2\n      swap1\n      pop\n      jump\t// out\n        /* \"#utility.yul\":1259:1377   */\n    tag_98:\n        /* \"#utility.yul\":1346:1370   */\n      tag_132\n        /* \"#utility.yul\":1364:1369   */\n      dup2\n        /* \"#utility.yul\":1346:1370   */\n      tag_97\n      jump\t// in\n    tag_132:\n        /* \"#utility.yul\":1341:1344   */\n      dup3\n        /* \"#utility.yul\":1334:1371   */\n      mstore\n        /* \"#utility.yul\":1259:1377   */\n      pop\n      pop\n      jump\t// out\n        /* \"#utility.yul\":1383:1605   */\n    tag_17:\n        /* \"#utility.yul\":1476:1480   */\n      0x00\n        /* \"#utility.yul\":1514:1516   */\n      0x20\n        /* \"#utility.yul\":1503:1512   */\n      dup3\n        /* \"#utility.yul\":1499:1517   */\n      add\n        /* \"#utility.yul\":1491:1517   */\n      swap1\n      pop\n        /* \"#utility.yul\":1527:1598   */\n      tag_134\n        /* \"#utility.yul\":1595:1596   */\n      0x00\n        /* \"#utility.yul\":1584:1593   */\n      dup4\n        /* \"#utility.yul\":1580:1597   */\n      add\n        /* \"#utility.yul\":1571:1577   */\n      dup5\n        /* \"#utility.yul\":1527:1598   */\n      tag_98\n      jump\t// in\n    tag_134:\n        /* \"#utility.yul\":1383:1605   */\n      swap3\n      swap2\n      pop\n      pop\n      jump\t// out\n        /* \"#utility.yul\":1611:1733   */\n    tag_99:\n        /* \"#utility.yul\":1684:1708   */\n      tag_136\n        /* \"#utility.yul\":1702:1707   */\n      dup2\n        /* \"#utility.yul\":1684:1708   */\n      tag_97\n      jump\t// in\n    tag_136:\n        /* \"#utility.yul\":1677:1682   */\n      dup2\n        /* \"#utility.yul\":1674:1709   */\n      eq\n        /* \"#utility.yul\":1664:1727   */\n      tag_137\n      jumpi\n        /* \"#utility.yul\":1723:1724   */\n      0x00\n        /* \"#utility.yul\":1720:1721   */\n      0x00\n        /* \"#utility.yul\":1713:1725   */\n      revert\n        /* \"#utility.yul\":1664:1727   */\n    tag_137:\n        /* \"#utility.yul\":1611:1733   */\n      pop\n      jump\t// out\n        /* \"#utility.yul\":1739:1878   */\n    tag_100:\n        /* \"#utility.yul\":1785:1790   */\n      0x00\n        /* \"#utility.yul\":1823:1829   */\n      dup2\n        /* \"#utility.yul\":1810:1830   */\n      calldataload\n        /* \"#utility.yul\":1801:1830   */\n      swap1\n      pop\n        /* \"#utility.yul\":1839:1872   */\n      tag_139\n        /* \"#utility.yul\":1866:1871   */\n      dup2\n        /* \"#utility.yul\":1839:1872   */\n      tag_99\n      jump\t// in\n    tag_139:\n        /* \"#utility.yul\":1739:1878   */\n      swap3\n      swap2\n      pop\n      pop\n      jump\t// out\n        /* \"#utility.yul\":1884:2213   */\n    tag_25:\n        /* \"#utility.yul\":1943:1949   */\n      0x00\n        /* \"#utility.yul\":1992:1994   */\n      0x20\n        /* \"#utility.yul\":1980:1989   */\n      dup3\n        /* \"#utility.yul\":1971:1978   */\n      dup5\n        /* \"#utility.yul\":1967:1990   */\n      sub\n        /* \"#utility.yul\":1963:1995   */\n      slt\n        /* \"#utility.yul\":1960:2079   */\n      iszero\n      tag_141\n      jumpi\n        /* \"#utility.yul\":1998:2077   */\n      tag_142\n      tag_91\n      jump\t// in\n    tag_142:\n        /* \"#utility.yul\":1960:2079   */\n    tag_141:\n        /* \"#utility.yul\":2118:2119   */\n      0x00\n        /* \"#utility.yul\":2143:2196   */\n      tag_143\n        /* \"#utility.yul\":2188:2195   */\n      dup5\n        /* \"#utility.yul\":2179:2185   */\n      dup3\n        /* \"#utility.yul\":2168:2177   */\n      dup6\n        /* \"#utility.yul\":2164:2186   */\n      add\n        /* \"#utility.yul\":2143:2196   */\n      tag_100\n      jump\t// in\n    tag_143:\n        /* \"#utility.yul\":2133:2196   */\n      swap2\n      pop\n        /* \"#utility.yul\":2089:2206   */\n      pop\n        /* \"#utility.yul\":1884:2213   */\n      swap3\n      swap2\n      pop\n      pop\n      jump\t// out\n        /* \"#utility.yul\":2219:2388   */\n    tag_101:\n        /* \"#utility.yul\":2303:2314   */\n      0x00\n        /* \"#utility.yul\":2337:2343   */\n      dup3\n        /* \"#utility.yul\":2332:2335   */\n      dup3\n        /* \"#utility.yul\":2325:2344   */\n      mstore\n        /* \"#utility.yul\":2377:2381   */\n      0x20\n        /* \"#utility.yul\":2372:2375   */\n      dup3\n        /* \"#utility.yul\":2368:2382   */\n      add\n        /* \"#utility.yul\":2353:2382   */\n      swap1\n      pop\n        /* \"#utility.yul\":2219:2388   */\n      swap3\n      swap2\n      pop\n      pop\n      jump\t// out\n        /* \"#utility.yul\":2394:2566   */\n    tag_102:\n        /* \"#utility.yul\":2534:2558   */\n      0x5265656e7472616e742063616c6c20626c6f636b656400000000000000000000\n        /* \"#utility.yul\":2530:2531   */\n      0x00\n        /* \"#utility.yul\":2522:2528   */\n      dup3\n        /* \"#utility.yul\":2518:2532   */\n      add\n        /* \"#utility.yul\":2511:2559   */\n      mstore\n        /* \"#utility.yul\":2394:2566   */\n      pop\n      jump\t// out\n        /* \"#utility.yul\":2572:2938   */\n    tag_103:\n        /* \"#utility.yul\":2714:2717   */\n      0x00\n        /* \"#utility.yul\":2735:2802   */\n      tag_147\n        /* \"#utility.yul\":2799:2801   */\n      0x16\n        /* \"#utility.yul\":2794:2797   */\n      dup4\n        /* \"#utility.yul\":2735:2802   */\n      tag_101\n      jump\t// in\n    tag_147:\n        /* \"#utility.yul\":2728:2802   */\n      swap2\n      pop\n        /* \"#utility.yul\":2811:2904   */\n      tag_148\n        /* \"#utility.yul\":2900:2903   */\n      dup3\n        /* \"#utility.yul\":2811:2904   */\n      tag_102\n      jump\t// in\n    tag_148:\n        /* \"#utility.yul\":2929:2931   */\n      0x20\n        /* \"#utility.yul\":2924:2927   */\n      dup3\n        /* \"#utility.yul\":2920:2932   */\n      add\n        /* \"#utility.yul\":2913:2932   */\n      swap1\n      pop\n        /* \"#utility.yul\":2572:2938   */\n      swap2\n      swap1\n      pop\n      jump\t// out\n        /* \"#utility.yul\":2944:3363   */\n    tag_41:\n        /* \"#utility.yul\":3110:3114   */\n      0x00\n        /* \"#utility.yul\":3148:3150   */\n      0x20\n        /* \"#utility.yul\":3137:3146   */\n      dup3\n        /* \"#utility.yul\":3133:3151   */\n      add\n        /* \"#utility.yul\":3125:3151   */\n      swap1\n      pop\n        /* \"#utility.yul\":3197:3206   */\n      dup2\n        /* \"#utility.yul\":3191:3195   */\n      dup2\n        /* \"#utility.yul\":3187:3207   */\n      sub\n        /* \"#utility.yul\":3183:3184   */\n      0x00\n        /* \"#utility.yul\":3172:3181   */\n      dup4\n        /* \"#utility.yul\":3168:3185   */\n      add\n        /* \"#utility.yul\":3161:3208   */\n      mstore\n        /* \"#utility.yul\":3225:3356   */\n      tag_150\n        /* \"#utility.yul\":3351:3355   */\n      dup2\n        /* \"#utility.yul\":3225:3356   */\n      tag_103\n      jump\t// in\n    tag_150:\n        /* \"#utility.yul\":3217:3356   */\n      swap1\n      pop\n        /* \"#utility.yul\":2944:3363   */\n      swap2\n      swap1\n      pop\n      jump\t// out\n        /* \"#utility.yul\":3369:3539   */\n    tag_104:\n        /* \"#utility.yul\":3509:3531   */\n      0x496e73756666696369656e742062616c616e6365000000000000000000000000\n        /* \"#utility.yul\":3505:3506   */\n      0x00\n        /* \"#utility.yul\":3497:3503   */\n      dup3\n        /* \"#utility.yul\":3493:3507   */\n      add\n        /* \"#utility.yul\":3486:3532   */\n      mstore\n        /* \"#utility.yul\":3369:3539   */\n      pop\n      jump\t// out\n        /* \"#utility.yul\":3545:3911   */\n    tag_105:\n        /* \"#utility.yul\":3687:3690   */\n      0x00\n        /* \"#utility.yul\":3708:3775   */\n      tag_153\n        /* \"#utility.yul\":3772:3774   */\n      0x14\n        /* \"#utility.yul\":3767:3770   */\n      dup4\n        /* \"#utility.yul\":3708:3775   */\n      tag_101\n      jump\t// in\n    tag_153:\n        /* \"#utility.yul\":3701:3775   */\n      swap2\n      pop\n        /* \"#utility.yul\":3784:3877   */\n      tag_154\n        /* \"#utility.yul\":3873:3876   */\n      dup3\n        /* \"#utility.yul\":3784:3877   */\n      tag_104\n      jump\t// in\n    tag_154:\n        /* \"#utility.yul\":3902:3904   */\n      0x20\n        /* \"#utility.yul\":3897:3900   */\n      dup3\n        /* \"#utility.yul\":3893:3905   */\n      add\n        /* \"#utility.yul\":3886:3905   */\n      swap1\n      pop\n        /* \"#utility.yul\":3545:3911   */\n      swap2\n      swap1\n      pop\n      jump\t// out\n        /* \"#utility.yul\":3917:4336   */\n    tag_45:\n        /* \"#utility.yul\":4083:4087   */\n      0x00\n        /* \"#utility.yul\":4121:4123   */\n      0x20\n        /* \"#utility.yul\":4110:4119   */\n      dup3\n        /* \"#utility.yul\":4106:4124   */\n      add\n        /* \"#utility.yul\":4098:4124   */\n      swap1\n      pop\n        /* \"#utility.yul\":4170:4179   */\n      dup2\n        /* \"#utility.yul\":4164:4168   */\n      dup2\n        /* \"#utility.yul\":4160:4180   */\n      sub\n        /* \"#utility.yul\":4156:4157   */\n      0x00\n        /* \"#utility.yul\":4145:4154   */\n      dup4\n        /* \"#utility.yul\":4141:4158   */\n      add\n        /* \"#utility.yul\":4134:4181   */\n      mstore\n        /* \"#utility.yul\":4198:4329   */\n      tag_156\n        /* \"#utility.yul\":4324:4328   */\n      dup2\n        /* \"#utility.yul\":4198:4329   */\n      tag_105\n      jump\t// in\n    tag_156:\n        /* \"#utility.yul\":4190:4329   */\n      swap1\n      pop\n        /* \"#utility.yul\":3917:4336   */\n      swap2\n      swap1\n      pop\n      jump\t// out\n        /* \"#utility.yul\":4342:4522   */\n    tag_106:\n        /* \"#utility.yul\":4390:4467   */\n      0x4e487b7100000000000000000000000000000000000000000000000000000000\n        /* \"#utility.yul\":4387:4388   */\n      0x00\n        /* \"#utility.yul\":4380:4468   */\n      mstore\n        /* \"#utility.yul\":4487:4491   */\n      0x11\n        /* \"#utility.yul\":4484:4485   */\n      0x04\n        /* \"#utility.yul\":4477:4492   */\n      mstore\n        /* \"#utility.yul\":4511:4515   */\n      0x24\n        /* \"#utility.yul\":4508:4509   */\n      0x00\n        /* \"#utility.yul\":4501:4516   */\n      revert\n        /* \"#utility.yul\":4528:4722   */\n    tag_47:\n        /* \"#utility.yul\":4568:4572   */\n      0x00\n        /* \"#utility.yul\":4588:4608   */\n      tag_159\n        /* \"#utility.yul\":4606:4607   */\n      dup3\n        /* \"#utility.yul\":4588:4608   */\n      tag_97\n      jump\t// in\n    tag_159:\n        /* \"#utility.yul\":4583:4608   */\n      swap2\n      pop\n        /* \"#utility.yul\":4622:4642   */\n      tag_160\n        /* \"#utility.yul\":4640:4641   */\n      dup4\n        /* \"#utility.yul\":4622:4642   */\n      tag_97\n      jump\t// in\n    tag_160:\n        /* \"#utility.yul\":4617:4642   */\n      swap3\n      pop\n        /* \"#utility.yul\":4666:4667   */\n      dup3\n        /* \"#utility.yul\":4663:4664   */\n      dup3\n        /* \"#utility.yul\":4659:4668   */\n      sub\n        /* \"#utility.yul\":4651:4668   */\n      swap1\n      pop\n        /* \"#utility.yul\":4690:4691   */\n      dup2\n        /* \"#utility.yul\":4684:4688   */\n      dup2\n        /* \"#utility.yul\":4681:4692   */\n      gt\n        /* \"#utility.yul\":4678:4715   */\n      iszero\n      tag_161\n      jumpi\n        /* \"#utility.yul\":4695:4713   */\n      tag_162\n      tag_106\n      jump\t// in\n    tag_162:\n        /* \"#utility.yul\":4678:4715   */\n    tag_161:\n        /* \"#utility.yul\":4528:4722   */\n      swap3\n      swap2\n      pop\n      pop\n      jump\t// out\n        /* \"#utility.yul\":4728:4875   */\n    tag_107:\n        /* \"#utility.yul\":4829:4840   */\n      0x00\n        /* \"#utility.yul\":4866:4869   */\n      dup2\n        /* \"#utility.yul\":4851:4869   */\n      swap1\n      pop\n        /* \"#utility.yul\":4728:4875   */\n      swap3\n      swap2\n      pop\n      pop\n      jump\t// out\n        /* \"#utility.yul\":4881:4995   */\n    tag_108:\n      pop\n      jump\t// out\n        /* \"#utility.yul\":5001:5399   */\n    tag_109:\n        /* \"#utility.yul\":5160:5163   */\n      0x00\n        /* \"#utility.yul\":5181:5264   */\n      tag_166\n        /* \"#utility.yul\":5262:5263   */\n      0x00\n        /* \"#utility.yul\":5257:5260   */\n      dup4\n        /* \"#utility.yul\":5181:5264   */\n      tag_107\n      jump\t// in\n    tag_166:\n        /* \"#utility.yul\":5174:5264   */\n      swap2\n      pop\n        /* \"#utility.yul\":5273:5366   */\n      tag_167\n        /* \"#utility.yul\":5362:5365   */\n      dup3\n        /* \"#utility.yul\":5273:5366   */\n      tag_108\n      jump\t// in\n    tag_167:\n        /* \"#utility.yul\":5391:5392   */\n      0x00\n        /* \"#utility.yul\":5386:5389   */\n      dup3\n        /* \"#utility.yul\":5382:5393   */\n      add\n        /* \"#utility.yul\":5375:5393   */\n      swap1\n      pop\n        /* \"#utility.yul\":5001:5399   */\n      swap2\n      swap1\n      pop\n      jump\t// out\n        /* \"#utility.yul\":5405:5784   */\n    tag_49:\n        /* \"#utility.yul\":5589:5592   */\n      0x00\n        /* \"#utility.yul\":5611:5758   */\n      tag_169\n        /* \"#utility.yul\":5754:5757   */\n      dup3\n        /* \"#utility.yul\":5611:5758   */\n      tag_109\n      jump\t// in\n    tag_169:\n        /* \"#utility.yul\":5604:5758   */\n      swap2\n      pop\n        /* \"#utility.yul\":5775:5778   */\n      dup2\n        /* \"#utility.yul\":5768:5778   */\n      swap1\n      pop\n        /* \"#utility.yul\":5405:5784   */\n      swap2\n      swap1\n      pop\n      jump\t// out\n        /* \"#utility.yul\":5790:5981   */\n    tag_55:\n        /* \"#utility.yul\":5830:5833   */\n      0x00\n        /* \"#utility.yul\":5849:5869   */\n      tag_171\n        /* \"#utility.yul\":5867:5868   */\n      dup3\n        /* \"#utility.yul\":5849:5869   */\n      tag_97\n      jump\t// in\n    tag_171:\n        /* \"#utility.yul\":5844:5869   */\n      swap2\n      pop\n        /* \"#utility.yul\":5883:5903   */\n      tag_172\n        /* \"#utility.yul\":5901:5902   */\n      dup4\n        /* \"#utility.yul\":5883:5903   */\n      tag_97\n      jump\t// in\n    tag_172:\n        /* \"#utility.yul\":5878:5903   */\n      swap3\n      pop\n        /* \"#utility.yul\":5926:5927   */\n      dup3\n        /* \"#utility.yul\":5923:5924   */\n      dup3\n        /* \"#utility.yul\":5919:5928   */\n      add\n        /* \"#utility.yul\":5912:5928   */\n      swap1\n      pop\n        /* \"#utility.yul\":5947:5950   */\n      dup1\n        /* \"#utility.yul\":5944:5945   */\n      dup3\n        /* \"#utility.yul\":5941:5951   */\n      gt\n        /* \"#utility.yul\":5938:5974   */\n      iszero\n      tag_173\n      jumpi\n        /* \"#utility.yul\":5954:5972   */\n      tag_174\n      tag_106\n      jump\t// in\n    tag_174:\n        /* \"#utility.yul\":5938:5974   */\n    tag_173:\n        /* \"#utility.yul\":5790:5981   */\n      swap3\n      swap2\n      pop\n      pop\n      jump\t// out\n        /* \"#utility.yul\":5987:6156   */\n    tag_110:\n        /* \"#utility.yul\":6127:6148   */\n      0x455448207472616e73666572206661696c656400000000000000000000000000\n        /* \"#utility.yul\":6123:6124   */\n      0x00\n        /* \"#utility.yul\":6115:6121   */\n      dup3\n        /* \"#utility.yul\":6111:6125   */\n      add\n        /* \"#utility.yul\":6104:6149   */\n      mstore\n        /* \"#utility.yul\":5987:6156   */\n      pop\n      jump\t// out\n        /* \"#utility.yul\":6162:6528   */\n    tag_111:\n        /* \"#utility.yul\":6304:6307   */\n      0x00\n        /* \"#utility.yul\":6325:6392   */\n      tag_177\n        /* \"#utility.yul\":6389:6391   */\n      0x13\n        /* \"#utility.yul\":6384:6387   */\n      dup4\n        /* \"#utility.yul\":6325:6392   */\n      tag_101\n      jump\t// in\n    tag_177:\n        /* \"#utility.yul\":6318:6392   */\n      swap2\n      pop\n        /* \"#utility.yul\":6401:6494   */\n      tag_178\n        /* \"#utility.yul\":6490:6493   */\n      dup3\n        /* \"#utility.yul\":6401:6494   */\n      tag_110\n      jump\t// in\n    tag_178:\n        /* \"#utility.yul\":6519:6521   */\n      0x20\n        /* \"#utility.yul\":6514:6517   */\n      dup3\n        /* \"#utility.yul\":6510:6522   */\n      add\n        /* \"#utility.yul\":6503:6522   */\n      swap1\n      pop\n        /* \"#utility.yul\":6162:6528   */\n      swap2\n      swap1\n      pop\n      jump\t// out\n        /* \"#utility.yul\":6534:6953   */\n    tag_58:\n        /* \"#utility.yul\":6700:6704   */\n      0x00\n        /* \"#utility.yul\":6738:6740   */\n      0x20\n        /* \"#utility.yul\":6727:6736   */\n      dup3\n        /* \"#utility.yul\":6723:6741   */\n      add\n        /* \"#utility.yul\":6715:6741   */\n      swap1\n      pop\n        /* \"#utility.yul\":6787:6796   */\n      dup2\n        /* \"#utility.yul\":6781:6785   */\n      dup2\n        /* \"#utility.yul\":6777:6797   */\n      sub\n        /* \"#utility.yul\":6773:6774   */\n      0x00\n        /* \"#utility.yul\":6762:6771   */\n      dup4\n        /* \"#utility.yul\":6758:6775   */\n      add\n        /* \"#utility.yul\":6751:6798   */\n      mstore\n        /* \"#utility.yul\":6815:6946   */\n      tag_180\n        /* \"#utility.yul\":6941:6945   */\n      dup2\n        /* \"#utility.yul\":6815:6946   */\n      tag_111\n      jump\t// in\n    tag_180:\n        /* \"#utility.yul\":6807:6946   */\n      swap1\n      pop\n        /* \"#utility.yul\":6534:6953   */\n      swap2\n      swap1\n      pop\n      jump\t// out\n        /* \"#utility.yul\":6959:7124   */\n    tag_112:\n        /* \"#utility.yul\":7099:7116   */\n      0x5472616e73666572206661696c65640000000000000000000000000000000000\n        /* \"#utility.yul\":7095:7096   */\n      0x00\n        /* \"#utility.yul\":7087:7093   */\n      dup3\n        /* \"#utility.yul\":7083:7097   */\n      add\n        /* \"#utility.yul\":7076:7117   */\n      mstore\n        /* \"#utility.yul\":6959:7124   */\n      pop\n      jump\t// out\n        /* \"#utility.yul\":7130:7496   */\n    tag_113:\n        /* \"#utility.yul\":7272:7275   */\n      0x00\n        /* \"#utility.yul\":7293:7360   */\n      tag_183\n        /* \"#utility.yul\":7357:7359   */\n      0x0f\n        /* \"#utility.yul\":7352:7355   */\n      dup4\n        /* \"#utility.yul\":7293:7360   */\n      tag_101\n      jump\t// in\n    tag_183:\n        /* \"#utility.yul\":7286:7360   */\n      swap2\n      pop\n        /* \"#utility.yul\":7369:7462   */\n      tag_184\n        /* \"#utility.yul\":7458:7461   */\n      dup3\n        /* \"#utility.yul\":7369:7462   */\n      tag_112\n      jump\t// in\n    tag_184:\n        /* \"#utility.yul\":7487:7489   */\n      0x20\n        /* \"#utility.yul\":7482:7485   */\n      dup3\n        /* \"#utility.yul\":7478:7490   */\n      add\n        /* \"#utility.yul\":7471:7490   */\n      swap1\n      pop\n        /* \"#utility.yul\":7130:7496   */\n      swap2\n      swap1\n      pop\n      jump\t// out\n        /* \"#utility.yul\":7502:7921   */\n    tag_75:\n        /* \"#utility.yul\":7668:7672   */\n      0x00\n        /* \"#utility.yul\":7706:7708   */\n      0x20\n        /* \"#utility.yul\":7695:7704   */\n      dup3\n        /* \"#utility.yul\":7691:7709   */\n      add\n        /* \"#utility.yul\":7683:7709   */\n      swap1\n      pop\n        /* \"#utility.yul\":7755:7764   */\n      dup2\n        /* \"#utility.yul\":7749:7753   */\n      dup2\n        /* \"#utility.yul\":7745:7765   */\n      sub\n        /* \"#utility.yul\":7741:7742   */\n      0x00\n        /* \"#utility.yul\":7730:7739   */\n      dup4\n        /* \"#utility.yul\":7726:7743   */\n      add\n        /* \"#utility.yul\":7719:7766   */\n      mstore\n        /* \"#utility.yul\":7783:7914   */\n      tag_186\n        /* \"#utility.yul\":7909:7913   */\n      dup2\n        /* \"#utility.yul\":7783:7914   */\n      tag_113\n      jump\t// in\n    tag_186:\n        /* \"#utility.yul\":7775:7914   */\n      swap1\n      pop\n        /* \"#utility.yul\":7502:7921   */\n      swap2\n      swap1\n      pop\n      jump\t// out\n\n    auxdata: 0xa26469706673582212202dd850b2adccc8a60222687ec96f3891cf4ca26fd2a58dff51d8bac5df4c5d7a64736f6c63430008220033\n}\n",
				"bytecode": {
					"linkReferences": {},
					"object": "6080604052348015600e575f5ffd5b50610d268061001c5f395ff3fe608060405260043610610058575f3560e01c806327e235e3146100635780638b7afe2e1461009f578063b0fd035b146100c9578063cc817673146100f1578063d0e30db014610119578063eacac102146101235761005f565b3661005f57005b5f5ffd5b34801561006e575f5ffd5b50610089600480360381019061008491906109bb565b61014b565b60405161009691906109fe565b60405180910390f35b3480156100aa575f5ffd5b506100b361015f565b6040516100c091906109fe565b60405180910390f35b3480156100d4575f5ffd5b506100ef60048036038101906100ea9190610a41565b610166565b005b3480156100fc575f5ffd5b5061011760048036038101906101129190610a41565b610452565b005b61012161073e565b005b34801561012e575f5ffd5b5061014960048036038101906101449190610a41565b6107e0565b005b5f602052805f5260405f205f915090505481565b5f47905090565b60015f9054906101000a900460ff16156101b5576040517f08c379a00000000000000000000000000000000000000000000000000000000081526004016101ac90610ac6565b60405180910390fd5b6001805f6101000a81548160ff021916908315150217905550805f5f3373ffffffffffffffffffffffffffffffffffffffff1673ffffffffffffffffffffffffffffffffffffffff1681526020019081526020015f2054101561024d576040517f08c379a000000000000000000000000000000000000000000000000000000000815260040161024490610b2e565b60405180910390fd5b805f5f3373ffffffffffffffffffffffffffffffffffffffff1673ffffffffffffffffffffffffffffffffffffffff1681526020019081526020015f205f8282546102989190610b79565b925050819055505f3373ffffffffffffffffffffffffffffffffffffffff16826040516102c490610bd9565b5f6040518083038185875af1925050503d805f81146102fe576040519150601f19603f3d011682016040523d82523d5f602084013e610303565b606091505b50509050806103e757815f5f3373ffffffffffffffffffffffffffffffffffffffff1673ffffffffffffffffffffffffffffffffffffffff1681526020019081526020015f205f8282546103579190610bed565b925050819055503373ffffffffffffffffffffffffffffffffffffffff167f1c43b9761b3fba5321ca8212bfc231945f668ccc0c446f333999eea9ce8fda81836040516103a491906109fe565b60405180910390a26040517f08c379a00000000000000000000000000000000000000000000000000000000081526004016103de90610c6a565b60405180910390fd5b3373ffffffffffffffffffffffffffffffffffffffff167f884edad9ce6fa2440d8a54cc123490eb96d2768479d49ff9c7366125a94243648360405161042d91906109fe565b60405180910390a2505f60015f6101000a81548160ff02191690831515021790555050565b60015f9054906101000a900460ff16156104a1576040517f08c379a000000000000000000000000000000000000000000000000000000000815260040161049890610ac6565b60405180910390fd5b6001805f6101000a81548160ff021916908315150217905550805f5f3373ffffffffffffffffffffffffffffffffffffffff1673ffffffffffffffffffffffffffffffffffffffff1681526020019081526020015f20541015610539576040517f08c379a000000000000000000000000000000000000000000000000000000000815260040161053090610b2e565b60405180910390fd5b805f5f3373ffffffffffffffffffffffffffffffffffffffff1673ffffffffffffffffffffffffffffffffffffffff1681526020019081526020015f205f8282546105849190610b79565b925050819055505f3373ffffffffffffffffffffffffffffffffffffffff16826040516105b090610bd9565b5f6040518083038185875af1925050503d805f81146105ea576040519150601f19603f3d011682016040523d82523d5f602084013e6105ef565b606091505b50509050806106d357815f5f3373ffffffffffffffffffffffffffffffffffffffff1673ffffffffffffffffffffffffffffffffffffffff1681526020019081526020015f205f8282546106439190610bed565b925050819055503373ffffffffffffffffffffffffffffffffffffffff167f1c43b9761b3fba5321ca8212bfc231945f668ccc0c446f333999eea9ce8fda818360405161069091906109fe565b60405180910390a26040517f08c379a00000000000000000000000000000000000000000000000000000000081526004016106ca90610cd2565b60405180910390fd5b3373ffffffffffffffffffffffffffffffffffffffff167f884edad9ce6fa2440d8a54cc123490eb96d2768479d49ff9c7366125a94243648360405161071991906109fe565b60405180910390a2505f60015f6101000a81548160ff02191690831515021790555050565b345f5f3373ffffffffffffffffffffffffffffffffffffffff1673ffffffffffffffffffffffffffffffffffffffff1681526020019081526020015f205f8282546107899190610bed565b925050819055503373ffffffffffffffffffffffffffffffffffffffff167fe1fffcc4923d04b559f4d29a8bfc6cda04eb5b0d3c460751c2402c5c5cc9109c346040516107d691906109fe565b60405180910390a2565b805f5f3373ffffffffffffffffffffffffffffffffffffffff1673ffffffffffffffffffffffffffffffffffffffff1681526020019081526020015f2054101561085f576040517f08c379a000000000000000000000000000000000000000000000000000000000815260040161085690610b2e565b60405180910390fd5b5f3373ffffffffffffffffffffffffffffffffffffffff168260405161088490610bd9565b5f6040518083038185875af1925050503d805f81146108be576040519150601f19603f3d011682016040523d82523d5f602084013e6108c3565b606091505b5050905080610907576040517f08c379a00000000000000000000000000000000000000000000000000000000081526004016108fe90610cd2565b60405180910390fd5b815f5f3373ffffffffffffffffffffffffffffffffffffffff1673ffffffffffffffffffffffffffffffffffffffff1681526020019081526020015f205f8282546109529190610b79565b925050819055505050565b5f5ffd5b5f73ffffffffffffffffffffffffffffffffffffffff82169050919050565b5f61098a82610961565b9050919050565b61099a81610980565b81146109a4575f5ffd5b50565b5f813590506109b581610991565b92915050565b5f602082840312156109d0576109cf61095d565b5b5f6109dd848285016109a7565b91505092915050565b5f819050919050565b6109f8816109e6565b82525050565b5f602082019050610a115f8301846109ef565b92915050565b610a20816109e6565b8114610a2a575f5ffd5b50565b5f81359050610a3b81610a17565b92915050565b5f60208284031215610a5657610a5561095d565b5b5f610a6384828501610a2d565b91505092915050565b5f82825260208201905092915050565b7f5265656e7472616e742063616c6c20626c6f636b6564000000000000000000005f82015250565b5f610ab0601683610a6c565b9150610abb82610a7c565b602082019050919050565b5f6020820190508181035f830152610add81610aa4565b9050919050565b7f496e73756666696369656e742062616c616e63650000000000000000000000005f82015250565b5f610b18601483610a6c565b9150610b2382610ae4565b602082019050919050565b5f6020820190508181035f830152610b4581610b0c565b9050919050565b7f4e487b71000000000000000000000000000000000000000000000000000000005f52601160045260245ffd5b5f610b83826109e6565b9150610b8e836109e6565b9250828203905081811115610ba657610ba5610b4c565b5b92915050565b5f81905092915050565b50565b5f610bc45f83610bac565b9150610bcf82610bb6565b5f82019050919050565b5f610be382610bb9565b9150819050919050565b5f610bf7826109e6565b9150610c02836109e6565b9250828201905080821115610c1a57610c19610b4c565b5b92915050565b7f455448207472616e73666572206661696c6564000000000000000000000000005f82015250565b5f610c54601383610a6c565b9150610c5f82610c20565b602082019050919050565b5f6020820190508181035f830152610c8181610c48565b9050919050565b7f5472616e73666572206661696c656400000000000000000000000000000000005f82015250565b5f610cbc600f83610a6c565b9150610cc782610c88565b602082019050919050565b5f6020820190508181035f830152610ce981610cb0565b905091905056fea26469706673582212202dd850b2adccc8a60222687ec96f3891cf4ca26fd2a58dff51d8bac5df4c5d7a64736f6c63430008220033",
					"opcodes": "PUSH1 0x80 PUSH1 0x40 MSTORE CALLVALUE DUP1 ISZERO PUSH1 0xE JUMPI PUSH0 PUSH0 REVERT JUMPDEST POP PUSH2 0xD26 DUP1 PUSH2 0x1C PUSH0 CODECOPY PUSH0 RETURN INVALID PUSH1 0x80 PUSH1 0x40 MSTORE PUSH1 0x4 CALLDATASIZE LT PUSH2 0x58 JUMPI PUSH0 CALLDATALOAD PUSH1 0xE0 SHR DUP1 PUSH4 0x27E235E3 EQ PUSH2 0x63 JUMPI DUP1 PUSH4 0x8B7AFE2E EQ PUSH2 0x9F JUMPI DUP1 PUSH4 0xB0FD035B EQ PUSH2 0xC9 JUMPI DUP1 PUSH4 0xCC817673 EQ PUSH2 0xF1 JUMPI DUP1 PUSH4 0xD0E30DB0 EQ PUSH2 0x119 JUMPI DUP1 PUSH4 0xEACAC102 EQ PUSH2 0x123 JUMPI PUSH2 0x5F JUMP JUMPDEST CALLDATASIZE PUSH2 0x5F JUMPI STOP JUMPDEST PUSH0 PUSH0 REVERT JUMPDEST CALLVALUE DUP1 ISZERO PUSH2 0x6E JUMPI PUSH0 PUSH0 REVERT JUMPDEST POP PUSH2 0x89 PUSH1 0x4 DUP1 CALLDATASIZE SUB DUP2 ADD SWAP1 PUSH2 0x84 SWAP2 SWAP1 PUSH2 0x9BB JUMP JUMPDEST PUSH2 0x14B JUMP JUMPDEST PUSH1 0x40 MLOAD PUSH2 0x96 SWAP2 SWAP1 PUSH2 0x9FE JUMP JUMPDEST PUSH1 0x40 MLOAD DUP1 SWAP2 SUB SWAP1 RETURN JUMPDEST CALLVALUE DUP1 ISZERO PUSH2 0xAA JUMPI PUSH0 PUSH0 REVERT JUMPDEST POP PUSH2 0xB3 PUSH2 0x15F JUMP JUMPDEST PUSH1 0x40 MLOAD PUSH2 0xC0 SWAP2 SWAP1 PUSH2 0x9FE JUMP JUMPDEST PUSH1 0x40 MLOAD DUP1 SWAP2 SUB SWAP1 RETURN JUMPDEST CALLVALUE DUP1 ISZERO PUSH2 0xD4 JUMPI PUSH0 PUSH0 REVERT JUMPDEST POP PUSH2 0xEF PUSH1 0x4 DUP1 CALLDATASIZE SUB DUP2 ADD SWAP1 PUSH2 0xEA SWAP2 SWAP1 PUSH2 0xA41 JUMP JUMPDEST PUSH2 0x166 JUMP JUMPDEST STOP JUMPDEST CALLVALUE DUP1 ISZERO PUSH2 0xFC JUMPI PUSH0 PUSH0 REVERT JUMPDEST POP PUSH2 0x117 PUSH1 0x4 DUP1 CALLDATASIZE SUB DUP2 ADD SWAP1 PUSH2 0x112 SWAP2 SWAP1 PUSH2 0xA41 JUMP JUMPDEST PUSH2 0x452 JUMP JUMPDEST STOP JUMPDEST PUSH2 0x121 PUSH2 0x73E JUMP JUMPDEST STOP JUMPDEST CALLVALUE DUP1 ISZERO PUSH2 0x12E JUMPI PUSH0 PUSH0 REVERT JUMPDEST POP PUSH2 0x149 PUSH1 0x4 DUP1 CALLDATASIZE SUB DUP2 ADD SWAP1 PUSH2 0x144 SWAP2 SWAP1 PUSH2 0xA41 JUMP JUMPDEST PUSH2 0x7E0 JUMP JUMPDEST STOP JUMPDEST PUSH0 PUSH1 0x20 MSTORE DUP1 PUSH0 MSTORE PUSH1 0x40 PUSH0 KECCAK256 PUSH0 SWAP2 POP SWAP1 POP SLOAD DUP2 JUMP JUMPDEST PUSH0 SELFBALANCE SWAP1 POP SWAP1 JUMP JUMPDEST PUSH1 0x1 PUSH0 SWAP1 SLOAD SWAP1 PUSH2 0x100 EXP SWAP1 DIV PUSH1 0xFF AND ISZERO PUSH2 0x1B5 JUMPI PUSH1 0x40 MLOAD PUSH32 0x8C379A000000000000000000000000000000000000000000000000000000000 DUP2 MSTORE PUSH1 0x4 ADD PUSH2 0x1AC SWAP1 PUSH2 0xAC6 JUMP JUMPDEST PUSH1 0x40 MLOAD DUP1 SWAP2 SUB SWAP1 REVERT JUMPDEST PUSH1 0x1 DUP1 PUSH0 PUSH2 0x100 EXP DUP2 SLOAD DUP2 PUSH1 0xFF MUL NOT AND SWAP1 DUP4 ISZERO ISZERO MUL OR SWAP1 SSTORE POP DUP1 PUSH0 PUSH0 CALLER PUSH20 0xFFFFFFFFFFFFFFFFFFFFFFFFFFFFFFFFFFFFFFFF AND PUSH20 0xFFFFFFFFFFFFFFFFFFFFFFFFFFFFFFFFFFFFFFFF AND DUP2 MSTORE PUSH1 0x20 ADD SWAP1 DUP2 MSTORE PUSH1 0x20 ADD PUSH0 KECCAK256 SLOAD LT ISZERO PUSH2 0x24D JUMPI PUSH1 0x40 MLOAD PUSH32 0x8C379A000000000000000000000000000000000000000000000000000000000 DUP2 MSTORE PUSH1 0x4 ADD PUSH2 0x244 SWAP1 PUSH2 0xB2E JUMP JUMPDEST PUSH1 0x40 MLOAD DUP1 SWAP2 SUB SWAP1 REVERT JUMPDEST DUP1 PUSH0 PUSH0 CALLER PUSH20 0xFFFFFFFFFFFFFFFFFFFFFFFFFFFFFFFFFFFFFFFF AND PUSH20 0xFFFFFFFFFFFFFFFFFFFFFFFFFFFFFFFFFFFFFFFF AND DUP2 MSTORE PUSH1 0x20 ADD SWAP1 DUP2 MSTORE PUSH1 0x20 ADD PUSH0 KECCAK256 PUSH0 DUP3 DUP3 SLOAD PUSH2 0x298 SWAP2 SWAP1 PUSH2 0xB79 JUMP JUMPDEST SWAP3 POP POP DUP2 SWAP1 SSTORE POP PUSH0 CALLER PUSH20 0xFFFFFFFFFFFFFFFFFFFFFFFFFFFFFFFFFFFFFFFF AND DUP3 PUSH1 0x40 MLOAD PUSH2 0x2C4 SWAP1 PUSH2 0xBD9 JUMP JUMPDEST PUSH0 PUSH1 0x40 MLOAD DUP1 DUP4 SUB DUP2 DUP6 DUP8 GAS CALL SWAP3 POP POP POP RETURNDATASIZE DUP1 PUSH0 DUP2 EQ PUSH2 0x2FE JUMPI PUSH1 0x40 MLOAD SWAP2 POP PUSH1 0x1F NOT PUSH1 0x3F RETURNDATASIZE ADD AND DUP3 ADD PUSH1 0x40 MSTORE RETURNDATASIZE DUP3 MSTORE RETURNDATASIZE PUSH0 PUSH1 0x20 DUP5 ADD RETURNDATACOPY PUSH2 0x303 JUMP JUMPDEST PUSH1 0x60 SWAP2 POP JUMPDEST POP POP SWAP1 POP DUP1 PUSH2 0x3E7 JUMPI DUP2 PUSH0 PUSH0 CALLER PUSH20 0xFFFFFFFFFFFFFFFFFFFFFFFFFFFFFFFFFFFFFFFF AND PUSH20 0xFFFFFFFFFFFFFFFFFFFFFFFFFFFFFFFFFFFFFFFF AND DUP2 MSTORE PUSH1 0x20 ADD SWAP1 DUP2 MSTORE PUSH1 0x20 ADD PUSH0 KECCAK256 PUSH0 DUP3 DUP3 SLOAD PUSH2 0x357 SWAP2 SWAP1 PUSH2 0xBED JUMP JUMPDEST SWAP3 POP POP DUP2 SWAP1 SSTORE POP CALLER PUSH20 0xFFFFFFFFFFFFFFFFFFFFFFFFFFFFFFFFFFFFFFFF AND PUSH32 0x1C43B9761B3FBA5321CA8212BFC231945F668CCC0C446F333999EEA9CE8FDA81 DUP4 PUSH1 0x40 MLOAD PUSH2 0x3A4 SWAP2 SWAP1 PUSH2 0x9FE JUMP JUMPDEST PUSH1 0x40 MLOAD DUP1 SWAP2 SUB SWAP1 LOG2 PUSH1 0x40 MLOAD PUSH32 0x8C379A000000000000000000000000000000000000000000000000000000000 DUP2 MSTORE PUSH1 0x4 ADD PUSH2 0x3DE SWAP1 PUSH2 0xC6A JUMP JUMPDEST PUSH1 0x40 MLOAD DUP1 SWAP2 SUB SWAP1 REVERT JUMPDEST CALLER PUSH20 0xFFFFFFFFFFFFFFFFFFFFFFFFFFFFFFFFFFFFFFFF AND PUSH32 0x884EDAD9CE6FA2440D8A54CC123490EB96D2768479D49FF9C7366125A9424364 DUP4 PUSH1 0x40 MLOAD PUSH2 0x42D SWAP2 SWAP1 PUSH2 0x9FE JUMP JUMPDEST PUSH1 0x40 MLOAD DUP1 SWAP2 SUB SWAP1 LOG2 POP PUSH0 PUSH1 0x1 PUSH0 PUSH2 0x100 EXP DUP2 SLOAD DUP2 PUSH1 0xFF MUL NOT AND SWAP1 DUP4 ISZERO ISZERO MUL OR SWAP1 SSTORE POP POP JUMP JUMPDEST PUSH1 0x1 PUSH0 SWAP1 SLOAD SWAP1 PUSH2 0x100 EXP SWAP1 DIV PUSH1 0xFF AND ISZERO PUSH2 0x4A1 JUMPI PUSH1 0x40 MLOAD PUSH32 0x8C379A000000000000000000000000000000000000000000000000000000000 DUP2 MSTORE PUSH1 0x4 ADD PUSH2 0x498 SWAP1 PUSH2 0xAC6 JUMP JUMPDEST PUSH1 0x40 MLOAD DUP1 SWAP2 SUB SWAP1 REVERT JUMPDEST PUSH1 0x1 DUP1 PUSH0 PUSH2 0x100 EXP DUP2 SLOAD DUP2 PUSH1 0xFF MUL NOT AND SWAP1 DUP4 ISZERO ISZERO MUL OR SWAP1 SSTORE POP DUP1 PUSH0 PUSH0 CALLER PUSH20 0xFFFFFFFFFFFFFFFFFFFFFFFFFFFFFFFFFFFFFFFF AND PUSH20 0xFFFFFFFFFFFFFFFFFFFFFFFFFFFFFFFFFFFFFFFF AND DUP2 MSTORE PUSH1 0x20 ADD SWAP1 DUP2 MSTORE PUSH1 0x20 ADD PUSH0 KECCAK256 SLOAD LT ISZERO PUSH2 0x539 JUMPI PUSH1 0x40 MLOAD PUSH32 0x8C379A000000000000000000000000000000000000000000000000000000000 DUP2 MSTORE PUSH1 0x4 ADD PUSH2 0x530 SWAP1 PUSH2 0xB2E JUMP JUMPDEST PUSH1 0x40 MLOAD DUP1 SWAP2 SUB SWAP1 REVERT JUMPDEST DUP1 PUSH0 PUSH0 CALLER PUSH20 0xFFFFFFFFFFFFFFFFFFFFFFFFFFFFFFFFFFFFFFFF AND PUSH20 0xFFFFFFFFFFFFFFFFFFFFFFFFFFFFFFFFFFFFFFFF AND DUP2 MSTORE PUSH1 0x20 ADD SWAP1 DUP2 MSTORE PUSH1 0x20 ADD PUSH0 KECCAK256 PUSH0 DUP3 DUP3 SLOAD PUSH2 0x584 SWAP2 SWAP1 PUSH2 0xB79 JUMP JUMPDEST SWAP3 POP POP DUP2 SWAP1 SSTORE POP PUSH0 CALLER PUSH20 0xFFFFFFFFFFFFFFFFFFFFFFFFFFFFFFFFFFFFFFFF AND DUP3 PUSH1 0x40 MLOAD PUSH2 0x5B0 SWAP1 PUSH2 0xBD9 JUMP JUMPDEST PUSH0 PUSH1 0x40 MLOAD DUP1 DUP4 SUB DUP2 DUP6 DUP8 GAS CALL SWAP3 POP POP POP RETURNDATASIZE DUP1 PUSH0 DUP2 EQ PUSH2 0x5EA JUMPI PUSH1 0x40 MLOAD SWAP2 POP PUSH1 0x1F NOT PUSH1 0x3F RETURNDATASIZE ADD AND DUP3 ADD PUSH1 0x40 MSTORE RETURNDATASIZE DUP3 MSTORE RETURNDATASIZE PUSH0 PUSH1 0x20 DUP5 ADD RETURNDATACOPY PUSH2 0x5EF JUMP JUMPDEST PUSH1 0x60 SWAP2 POP JUMPDEST POP POP SWAP1 POP DUP1 PUSH2 0x6D3 JUMPI DUP2 PUSH0 PUSH0 CALLER PUSH20 0xFFFFFFFFFFFFFFFFFFFFFFFFFFFFFFFFFFFFFFFF AND PUSH20 0xFFFFFFFFFFFFFFFFFFFFFFFFFFFFFFFFFFFFFFFF AND DUP2 MSTORE PUSH1 0x20 ADD SWAP1 DUP2 MSTORE PUSH1 0x20 ADD PUSH0 KECCAK256 PUSH0 DUP3 DUP3 SLOAD PUSH2 0x643 SWAP2 SWAP1 PUSH2 0xBED JUMP JUMPDEST SWAP3 POP POP DUP2 SWAP1 SSTORE POP CALLER PUSH20 0xFFFFFFFFFFFFFFFFFFFFFFFFFFFFFFFFFFFFFFFF AND PUSH32 0x1C43B9761B3FBA5321CA8212BFC231945F668CCC0C446F333999EEA9CE8FDA81 DUP4 PUSH1 0x40 MLOAD PUSH2 0x690 SWAP2 SWAP1 PUSH2 0x9FE JUMP JUMPDEST PUSH1 0x40 MLOAD DUP1 SWAP2 SUB SWAP1 LOG2 PUSH1 0x40 MLOAD PUSH32 0x8C379A000000000000000000000000000000000000000000000000000000000 DUP2 MSTORE PUSH1 0x4 ADD PUSH2 0x6CA SWAP1 PUSH2 0xCD2 JUMP JUMPDEST PUSH1 0x40 MLOAD DUP1 SWAP2 SUB SWAP1 REVERT JUMPDEST CALLER PUSH20 0xFFFFFFFFFFFFFFFFFFFFFFFFFFFFFFFFFFFFFFFF AND PUSH32 0x884EDAD9CE6FA2440D8A54CC123490EB96D2768479D49FF9C7366125A9424364 DUP4 PUSH1 0x40 MLOAD PUSH2 0x719 SWAP2 SWAP1 PUSH2 0x9FE JUMP JUMPDEST PUSH1 0x40 MLOAD DUP1 SWAP2 SUB SWAP1 LOG2 POP PUSH0 PUSH1 0x1 PUSH0 PUSH2 0x100 EXP DUP2 SLOAD DUP2 PUSH1 0xFF MUL NOT AND SWAP1 DUP4 ISZERO ISZERO MUL OR SWAP1 SSTORE POP POP JUMP JUMPDEST CALLVALUE PUSH0 PUSH0 CALLER PUSH20 0xFFFFFFFFFFFFFFFFFFFFFFFFFFFFFFFFFFFFFFFF AND PUSH20 0xFFFFFFFFFFFFFFFFFFFFFFFFFFFFFFFFFFFFFFFF AND DUP2 MSTORE PUSH1 0x20 ADD SWAP1 DUP2 MSTORE PUSH1 0x20 ADD PUSH0 KECCAK256 PUSH0 DUP3 DUP3 SLOAD PUSH2 0x789 SWAP2 SWAP1 PUSH2 0xBED JUMP JUMPDEST SWAP3 POP POP DUP2 SWAP1 SSTORE POP CALLER PUSH20 0xFFFFFFFFFFFFFFFFFFFFFFFFFFFFFFFFFFFFFFFF AND PUSH32 0xE1FFFCC4923D04B559F4D29A8BFC6CDA04EB5B0D3C460751C2402C5C5CC9109C CALLVALUE PUSH1 0x40 MLOAD PUSH2 0x7D6 SWAP2 SWAP1 PUSH2 0x9FE JUMP JUMPDEST PUSH1 0x40 MLOAD DUP1 SWAP2 SUB SWAP1 LOG2 JUMP JUMPDEST DUP1 PUSH0 PUSH0 CALLER PUSH20 0xFFFFFFFFFFFFFFFFFFFFFFFFFFFFFFFFFFFFFFFF AND PUSH20 0xFFFFFFFFFFFFFFFFFFFFFFFFFFFFFFFFFFFFFFFF AND DUP2 MSTORE PUSH1 0x20 ADD SWAP1 DUP2 MSTORE PUSH1 0x20 ADD PUSH0 KECCAK256 SLOAD LT ISZERO PUSH2 0x85F JUMPI PUSH1 0x40 MLOAD PUSH32 0x8C379A000000000000000000000000000000000000000000000000000000000 DUP2 MSTORE PUSH1 0x4 ADD PUSH2 0x856 SWAP1 PUSH2 0xB2E JUMP JUMPDEST PUSH1 0x40 MLOAD DUP1 SWAP2 SUB SWAP1 REVERT JUMPDEST PUSH0 CALLER PUSH20 0xFFFFFFFFFFFFFFFFFFFFFFFFFFFFFFFFFFFFFFFF AND DUP3 PUSH1 0x40 MLOAD PUSH2 0x884 SWAP1 PUSH2 0xBD9 JUMP JUMPDEST PUSH0 PUSH1 0x40 MLOAD DUP1 DUP4 SUB DUP2 DUP6 DUP8 GAS CALL SWAP3 POP POP POP RETURNDATASIZE DUP1 PUSH0 DUP2 EQ PUSH2 0x8BE JUMPI PUSH1 0x40 MLOAD SWAP2 POP PUSH1 0x1F NOT PUSH1 0x3F RETURNDATASIZE ADD AND DUP3 ADD PUSH1 0x40 MSTORE RETURNDATASIZE DUP3 MSTORE RETURNDATASIZE PUSH0 PUSH1 0x20 DUP5 ADD RETURNDATACOPY PUSH2 0x8C3 JUMP JUMPDEST PUSH1 0x60 SWAP2 POP JUMPDEST POP POP SWAP1 POP DUP1 PUSH2 0x907 JUMPI PUSH1 0x40 MLOAD PUSH32 0x8C379A000000000000000000000000000000000000000000000000000000000 DUP2 MSTORE PUSH1 0x4 ADD PUSH2 0x8FE SWAP1 PUSH2 0xCD2 JUMP JUMPDEST PUSH1 0x40 MLOAD DUP1 SWAP2 SUB SWAP1 REVERT JUMPDEST DUP2 PUSH0 PUSH0 CALLER PUSH20 0xFFFFFFFFFFFFFFFFFFFFFFFFFFFFFFFFFFFFFFFF AND PUSH20 0xFFFFFFFFFFFFFFFFFFFFFFFFFFFFFFFFFFFFFFFF AND DUP2 MSTORE PUSH1 0x20 ADD SWAP1 DUP2 MSTORE PUSH1 0x20 ADD PUSH0 KECCAK256 PUSH0 DUP3 DUP3 SLOAD PUSH2 0x952 SWAP2 SWAP1 PUSH2 0xB79 JUMP JUMPDEST SWAP3 POP POP DUP2 SWAP1 SSTORE POP POP POP JUMP JUMPDEST PUSH0 PUSH0 REVERT JUMPDEST PUSH0 PUSH20 0xFFFFFFFFFFFFFFFFFFFFFFFFFFFFFFFFFFFFFFFF DUP3 AND SWAP1 POP SWAP2 SWAP1 POP JUMP JUMPDEST PUSH0 PUSH2 0x98A DUP3 PUSH2 0x961 JUMP JUMPDEST SWAP1 POP SWAP2 SWAP1 POP JUMP JUMPDEST PUSH2 0x99A DUP2 PUSH2 0x980 JUMP JUMPDEST DUP2 EQ PUSH2 0x9A4 JUMPI PUSH0 PUSH0 REVERT JUMPDEST POP JUMP JUMPDEST PUSH0 DUP2 CALLDATALOAD SWAP1 POP PUSH2 0x9B5 DUP2 PUSH2 0x991 JUMP JUMPDEST SWAP3 SWAP2 POP POP JUMP JUMPDEST PUSH0 PUSH1 0x20 DUP3 DUP5 SUB SLT ISZERO PUSH2 0x9D0 JUMPI PUSH2 0x9CF PUSH2 0x95D JUMP JUMPDEST JUMPDEST PUSH0 PUSH2 0x9DD DUP5 DUP3 DUP6 ADD PUSH2 0x9A7 JUMP JUMPDEST SWAP2 POP POP SWAP3 SWAP2 POP POP JUMP JUMPDEST PUSH0 DUP2 SWAP1 POP SWAP2 SWAP1 POP JUMP JUMPDEST PUSH2 0x9F8 DUP2 PUSH2 0x9E6 JUMP JUMPDEST DUP3 MSTORE POP POP JUMP JUMPDEST PUSH0 PUSH1 0x20 DUP3 ADD SWAP1 POP PUSH2 0xA11 PUSH0 DUP4 ADD DUP5 PUSH2 0x9EF JUMP JUMPDEST SWAP3 SWAP2 POP POP JUMP JUMPDEST PUSH2 0xA20 DUP2 PUSH2 0x9E6 JUMP JUMPDEST DUP2 EQ PUSH2 0xA2A JUMPI PUSH0 PUSH0 REVERT JUMPDEST POP JUMP JUMPDEST PUSH0 DUP2 CALLDATALOAD SWAP1 POP PUSH2 0xA3B DUP2 PUSH2 0xA17 JUMP JUMPDEST SWAP3 SWAP2 POP POP JUMP JUMPDEST PUSH0 PUSH1 0x20 DUP3 DUP5 SUB SLT ISZERO PUSH2 0xA56 JUMPI PUSH2 0xA55 PUSH2 0x95D JUMP JUMPDEST JUMPDEST PUSH0 PUSH2 0xA63 DUP5 DUP3 DUP6 ADD PUSH2 0xA2D JUMP JUMPDEST SWAP2 POP POP SWAP3 SWAP2 POP POP JUMP JUMPDEST PUSH0 DUP3 DUP3 MSTORE PUSH1 0x20 DUP3 ADD SWAP1 POP SWAP3 SWAP2 POP POP JUMP JUMPDEST PUSH32 0x5265656E7472616E742063616C6C20626C6F636B656400000000000000000000 PUSH0 DUP3 ADD MSTORE POP JUMP JUMPDEST PUSH0 PUSH2 0xAB0 PUSH1 0x16 DUP4 PUSH2 0xA6C JUMP JUMPDEST SWAP2 POP PUSH2 0xABB DUP3 PUSH2 0xA7C JUMP JUMPDEST PUSH1 0x20 DUP3 ADD SWAP1 POP SWAP2 SWAP1 POP JUMP JUMPDEST PUSH0 PUSH1 0x20 DUP3 ADD SWAP1 POP DUP2 DUP2 SUB PUSH0 DUP4 ADD MSTORE PUSH2 0xADD DUP2 PUSH2 0xAA4 JUMP JUMPDEST SWAP1 POP SWAP2 SWAP1 POP JUMP JUMPDEST PUSH32 0x496E73756666696369656E742062616C616E6365000000000000000000000000 PUSH0 DUP3 ADD MSTORE POP JUMP JUMPDEST PUSH0 PUSH2 0xB18 PUSH1 0x14 DUP4 PUSH2 0xA6C JUMP JUMPDEST SWAP2 POP PUSH2 0xB23 DUP3 PUSH2 0xAE4 JUMP JUMPDEST PUSH1 0x20 DUP3 ADD SWAP1 POP SWAP2 SWAP1 POP JUMP JUMPDEST PUSH0 PUSH1 0x20 DUP3 ADD SWAP1 POP DUP2 DUP2 SUB PUSH0 DUP4 ADD MSTORE PUSH2 0xB45 DUP2 PUSH2 0xB0C JUMP JUMPDEST SWAP1 POP SWAP2 SWAP1 POP JUMP JUMPDEST PUSH32 0x4E487B7100000000000000000000000000000000000000000000000000000000 PUSH0 MSTORE PUSH1 0x11 PUSH1 0x4 MSTORE PUSH1 0x24 PUSH0 REVERT JUMPDEST PUSH0 PUSH2 0xB83 DUP3 PUSH2 0x9E6 JUMP JUMPDEST SWAP2 POP PUSH2 0xB8E DUP4 PUSH2 0x9E6 JUMP JUMPDEST SWAP3 POP DUP3 DUP3 SUB SWAP1 POP DUP2 DUP2 GT ISZERO PUSH2 0xBA6 JUMPI PUSH2 0xBA5 PUSH2 0xB4C JUMP JUMPDEST JUMPDEST SWAP3 SWAP2 POP POP JUMP JUMPDEST PUSH0 DUP2 SWAP1 POP SWAP3 SWAP2 POP POP JUMP JUMPDEST POP JUMP JUMPDEST PUSH0 PUSH2 0xBC4 PUSH0 DUP4 PUSH2 0xBAC JUMP JUMPDEST SWAP2 POP PUSH2 0xBCF DUP3 PUSH2 0xBB6 JUMP JUMPDEST PUSH0 DUP3 ADD SWAP1 POP SWAP2 SWAP1 POP JUMP JUMPDEST PUSH0 PUSH2 0xBE3 DUP3 PUSH2 0xBB9 JUMP JUMPDEST SWAP2 POP DUP2 SWAP1 POP SWAP2 SWAP1 POP JUMP JUMPDEST PUSH0 PUSH2 0xBF7 DUP3 PUSH2 0x9E6 JUMP JUMPDEST SWAP2 POP PUSH2 0xC02 DUP4 PUSH2 0x9E6 JUMP JUMPDEST SWAP3 POP DUP3 DUP3 ADD SWAP1 POP DUP1 DUP3 GT ISZERO PUSH2 0xC1A JUMPI PUSH2 0xC19 PUSH2 0xB4C JUMP JUMPDEST JUMPDEST SWAP3 SWAP2 POP POP JUMP JUMPDEST PUSH32 0x455448207472616E73666572206661696C656400000000000000000000000000 PUSH0 DUP3 ADD MSTORE POP JUMP JUMPDEST PUSH0 PUSH2 0xC54 PUSH1 0x13 DUP4 PUSH2 0xA6C JUMP JUMPDEST SWAP2 POP PUSH2 0xC5F DUP3 PUSH2 0xC20 JUMP JUMPDEST PUSH1 0x20 DUP3 ADD SWAP1 POP SWAP2 SWAP1 POP JUMP JUMPDEST PUSH0 PUSH1 0x20 DUP3 ADD SWAP1 POP DUP2 DUP2 SUB PUSH0 DUP4 ADD MSTORE PUSH2 0xC81 DUP2 PUSH2 0xC48 JUMP JUMPDEST SWAP1 POP SWAP2 SWAP1 POP JUMP JUMPDEST PUSH32 0x5472616E73666572206661696C65640000000000000000000000000000000000 PUSH0 DUP3 ADD MSTORE POP JUMP JUMPDEST PUSH0 PUSH2 0xCBC PUSH1 0xF DUP4 PUSH2 0xA6C JUMP JUMPDEST SWAP2 POP PUSH2 0xCC7 DUP3 PUSH2 0xC88 JUMP JUMPDEST PUSH1 0x20 DUP3 ADD SWAP1 POP SWAP2 SWAP1 POP JUMP JUMPDEST PUSH0 PUSH1 0x20 DUP3 ADD SWAP1 POP DUP2 DUP2 SUB PUSH0 DUP4 ADD MSTORE PUSH2 0xCE9 DUP2 PUSH2 0xCB0 JUMP JUMPDEST SWAP1 POP SWAP2 SWAP1 POP JUMP INVALID LOG2 PUSH5 0x6970667358 0x22 SLT KECCAK256 0x2D 0xD8 POP 0xB2 0xAD 0xCC 0xC8 0xA6 MUL 0x22 PUSH9 0x7EC96F3891CF4CA26F 0xD2 0xA5 DUP14 SELFDESTRUCT MLOAD 0xD8 0xBA 0xC5 0xDF 0x4C TSTORE PUSH27 0x64736F6C6343000822003300000000000000000000000000000000 "
				},
				"gasEstimates": {
					"creation": {
						"codeDepositCost": "673200",
						"executionCost": "706",
						"totalCost": "673906"
					},
					"external": {
						"balances(address)": "2779",
						"contractBalance()": "334",
						"deposit()": "infinite",
						"safeWithdraw(uint256)": "infinite",
						"vulnerableWithdraw(uint256)": "infinite",
						"vulnerableWithdrawval(uint256)": "infinite"
					}
				},
				"methodIdentifiers": {
					"balances(address)": "27e235e3",
					"contractBalance()": "8b7afe2e",
					"deposit()": "d0e30db0",
					"safeWithdraw(uint256)": "b0fd035b",
					"vulnerableWithdraw(uint256)": "cc817673",
					"vulnerableWithdrawval(uint256)": "eacac102"
				}
			},
			"storageLayout": {
				"storage": [
					{
						"astId": 116,
						"contract": "val53.sol:LowLevelCallExample",
						"label": "balances",
						"offset": 0,
						"slot": "0",
						"type": "t_mapping(t_address,t_uint256)"
					},
					{
						"astId": 118,
						"contract": "val53.sol:LowLevelCallExample",
						"label": "locked",
						"offset": 0,
						"slot": "1",
						"type": "t_bool"
					}
				],
				"types": {
					"t_address": {
						"encoding": "inplace",
						"label": "address",
						"numberOfBytes": "20"
					},
					"t_bool": {
						"encoding": "inplace",
						"label": "bool",
						"numberOfBytes": "1"
					},
					"t_mapping(t_address,t_uint256)": {
						"encoding": "mapping",
						"key": "t_address",
						"label": "mapping(address => uint256)",
						"numberOfBytes": "32",
						"value": "t_uint256"
					},
					"t_uint256": {
						"encoding": "inplace",
						"label": "uint256",
						"numberOfBytes": "32"
					}
				}
			},
			"userdoc": {
				"kind": "user",
				"methods": {},
				"version": 1
			}
		}
	}
}