{
	"val66.sol": {
		"LoopGasUsage": {
			"abi": [
				{
					"inputs": [
						{
							"internalType": "address",
							"name": "_callee",
							"type": "address"
						}
					],
					"stateMutability": "nonpayable",
					"type": "constructor"
				},
				{
					"anonymous": false,
					"inputs": [
						{
							"indexed": false,
							"internalType": "uint256",
							"name": "iteration",
							"type": "uint256"
						}
					],
					"name": "ExternalCallEXecuted",
					"type": "event"
				},
				{
					"anonymous": false,
					"inputs": [
						{
							"indexed": false,
							"internalType": "uint256",
							"name": "gasUsed",
							"type": "uint256"
						},
						{
							"indexed": false,
							"internalType": "uint256",
							"name": "sum",
							"type": "uint256"
						}
					],
					"name": "LoopCompleted",
					"type": "event"
				},
				{
					"inputs": [],
					"name": "callee",
					"outputs": [
						{
							"internalType": "contract ExternalCallee",
							"name": "",
							"type": "address"
						}
					],
					"stateMutability": "view",
					"type": "function"
				},
				{
					"inputs": [],
					"name": "contractBalance",
					"outputs": [
						{
							"internalType": "uint256",
							"name": "",
							"type": "uint256"
						}
					],
					"stateMutability": "view",
					"type": "function"
				},
				{
					"inputs": [],
					"name": "expensiveLoop",
					"outputs": [],
					"stateMutability": "nonpayable",
					"type": "function"
				},
				{
					"inputs": [],
					"name": "finalSum",
					"outputs": [
						{
							"internalType": "uint256",
							"name": "",
							"type": "uint256"
						}
					],
					"stateMutability": "view",
					"type": "function"
				},
				{
					"inputs": [],
					"name": "getArrayLength",
					"outputs": [
						{
							"internalType": "uint256",
							"name": "",
							"type": "uint256"
						}
					],
					"stateMutability": "view",
					"type": "function"
				},
				{
					"inputs": [],
					"name": "lastGasUsed",
					"outputs": [
						{
							"internalType": "uint256",
							"name": "",
							"type": "uint256"
						}
					],
					"stateMutability": "view",
					"type": "function"
				},
				{
					"inputs": [],
					"name": "optimizedLoop",
					"outputs": [],
					"stateMutability": "nonpayable",
					"type": "function"
				},
				{
					"inputs": [
						{
							"internalType": "uint256",
							"name": "",
							"type": "uint256"
						}
					],
					"name": "storedNumbers",
					"outputs": [
						{
							"internalType": "uint256",
							"name": "",
							"type": "uint256"
						}
					],
					"stateMutability": "view",
					"type": "function"
				},
				{
					"inputs": [],
					"name": "totalIterations",
					"outputs": [
						{
							"internalType": "uint256",
							"name": "",
							"type": "uint256"
						}
					],
					"stateMutability": "view",
					"type": "function"
				}
			],
			"devdoc": {
				"kind": "dev",
				"methods": {},
				"version": 1
			},
			"evm": {
				"assembly": "    /* \"val66.sol\":16767:19121  contract LoopGasUsage {... */\n  mstore(0x40, 0x80)\n    /* \"val66.sol\":17316:17401  constructor(address _callee)... */\n  callvalue\n  dup1\n  iszero\n  tag_1\n  jumpi\n  revert(0x00, 0x00)\ntag_1:\n  pop\n  mload(0x40)\n  sub(codesize, bytecodeSize)\n  dup1\n  bytecodeSize\n  dup4\n  codecopy\n  dup2\n  dup2\n  add\n  0x40\n  mstore\n  dup2\n  add\n  swap1\n  tag_2\n  swap2\n  swap1\n  tag_3\n  jump\t// in\ntag_2:\n    /* \"val66.sol\":17385:17392  _callee */\n  dup1\n    /* \"val66.sol\":17361:17367  callee */\n  0x04\n  0x00\n    /* \"val66.sol\":17361:17393  callee = ExternalCallee(_callee) */\n  0x0100\n  exp\n  dup2\n  sload\n  dup2\n  0xffffffffffffffffffffffffffffffffffffffff\n  mul\n  not\n  and\n  swap1\n  dup4\n  0xffffffffffffffffffffffffffffffffffffffff\n  and\n  mul\n  or\n  swap1\n  sstore\n  pop\n    /* \"val66.sol\":17316:17401  constructor(address _callee)... */\n  pop\n    /* \"val66.sol\":16767:19121  contract LoopGasUsage {... */\n  jump(tag_6)\n    /* \"#utility.yul\":88:205   */\ntag_8:\n    /* \"#utility.yul\":197:198   */\n  0x00\n    /* \"#utility.yul\":194:195   */\n  0x00\n    /* \"#utility.yul\":187:199   */\n  revert\n    /* \"#utility.yul\":334:460   */\ntag_10:\n    /* \"#utility.yul\":371:378   */\n  0x00\n    /* \"#utility.yul\":411:453   */\n  0xffffffffffffffffffffffffffffffffffffffff\n    /* \"#utility.yul\":404:409   */\n  dup3\n    /* \"#utility.yul\":400:454   */\n  and\n    /* \"#utility.yul\":389:454   */\n  swap1\n  pop\n    /* \"#utility.yul\":334:460   */\n  swap2\n  swap1\n  pop\n  jump\t// out\n    /* \"#utility.yul\":466:562   */\ntag_11:\n    /* \"#utility.yul\":503:510   */\n  0x00\n    /* \"#utility.yul\":532:556   */\n  tag_20\n    /* \"#utility.yul\":550:555   */\n  dup3\n    /* \"#utility.yul\":532:556   */\n  tag_10\n  jump\t// in\ntag_20:\n    /* \"#utility.yul\":521:556   */\n  swap1\n  pop\n    /* \"#utility.yul\":466:562   */\n  swap2\n  swap1\n  pop\n  jump\t// out\n    /* \"#utility.yul\":568:690   */\ntag_12:\n    /* \"#utility.yul\":641:665   */\n  tag_22\n    /* \"#utility.yul\":659:664   */\n  dup2\n    /* \"#utility.yul\":641:665   */\n  tag_11\n  jump\t// in\ntag_22:\n    /* \"#utility.yul\":634:639   */\n  dup2\n    /* \"#utility.yul\":631:666   */\n  eq\n    /* \"#utility.yul\":621:684   */\n  tag_23\n  jumpi\n    /* \"#utility.yul\":680:681   */\n  0x00\n    /* \"#utility.yul\":677:678   */\n  0x00\n    /* \"#utility.yul\":670:682   */\n  revert\n    /* \"#utility.yul\":621:684   */\ntag_23:\n    /* \"#utility.yul\":568:690   */\n  pop\n  jump\t// out\n    /* \"#utility.yul\":696:839   */\ntag_13:\n    /* \"#utility.yul\":753:758   */\n  0x00\n    /* \"#utility.yul\":784:790   */\n  dup2\n    /* \"#utility.yul\":778:791   */\n  mload\n    /* \"#utility.yul\":769:791   */\n  swap1\n  pop\n    /* \"#utility.yul\":800:833   */\n  tag_25\n    /* \"#utility.yul\":827:832   */\n  dup2\n    /* \"#utility.yul\":800:833   */\n  tag_12\n  jump\t// in\ntag_25:\n    /* \"#utility.yul\":696:839   */\n  swap3\n  swap2\n  pop\n  pop\n  jump\t// out\n    /* \"#utility.yul\":845:1196   */\ntag_3:\n    /* \"#utility.yul\":915:921   */\n  0x00\n    /* \"#utility.yul\":964:966   */\n  0x20\n    /* \"#utility.yul\":952:961   */\n  dup3\n    /* \"#utility.yul\":943:950   */\n  dup5\n    /* \"#utility.yul\":939:962   */\n  sub\n    /* \"#utility.yul\":935:967   */\n  slt\n    /* \"#utility.yul\":932:1051   */\n  iszero\n  tag_27\n  jumpi\n    /* \"#utility.yul\":970:1049   */\n  tag_28\n  tag_8\n  jump\t// in\ntag_28:\n    /* \"#utility.yul\":932:1051   */\ntag_27:\n    /* \"#utility.yul\":1090:1091   */\n  0x00\n    /* \"#utility.yul\":1115:1179   */\n  tag_29\n    /* \"#utility.yul\":1171:1178   */\n  dup5\n    /* \"#utility.yul\":1162:1168   */\n  dup3\n    /* \"#utility.yul\":1151:1160   */\n  dup6\n    /* \"#utility.yul\":1147:1169   */\n  add\n    /* \"#utility.yul\":1115:1179   */\n  tag_13\n  jump\t// in\ntag_29:\n    /* \"#utility.yul\":1105:1179   */\n  swap2\n  pop\n    /* \"#utility.yul\":1061:1189   */\n  pop\n    /* \"#utility.yul\":845:1196   */\n  swap3\n  swap2\n  pop\n  pop\n  jump\t// out\n    /* \"val66.sol\":16767:19121  contract LoopGasUsage {... */\ntag_6:\n  dataSize(sub_0)\n  dup1\n  dataOffset(sub_0)\n  0x00\n  codecopy\n  0x00\n  return\nstop\n\nsub_0: assembly {\n        /* \"val66.sol\":16767:19121  contract LoopGasUsage {... */\n      mstore(0x40, 0x80)\n      callvalue\n      dup1\n      iszero\n      tag_1\n      jumpi\n      revert(0x00, 0x00)\n    tag_1:\n      pop\n      jumpi(tag_2, lt(calldatasize, 0x04))\n      shr(0xe0, calldataload(0x00))\n      dup1\n      0x8b7afe2e\n      gt\n      tag_12\n      jumpi\n      dup1\n      0x8b7afe2e\n      eq\n      tag_7\n      jumpi\n      dup1\n      0x95c570bd\n      eq\n      tag_8\n      jumpi\n      dup1\n      0xad018101\n      eq\n      tag_9\n      jumpi\n      dup1\n      0xc87fde32\n      eq\n      tag_10\n      jumpi\n      dup1\n      0xceee2e20\n      eq\n      tag_11\n      jumpi\n      jump(tag_2)\n    tag_12:\n      dup1\n      0x0849cc99\n      eq\n      tag_3\n      jumpi\n      dup1\n      0x283c91f4\n      eq\n      tag_4\n      jumpi\n      dup1\n      0x3b1f0cd0\n      eq\n      tag_5\n      jumpi\n      dup1\n      0x5d324c13\n      eq\n      tag_6\n      jumpi\n    tag_2:\n      revert(0x00, 0x00)\n        /* \"val66.sol\":18837:18975  function getArrayLength()... */\n    tag_3:\n      tag_13\n      tag_14\n      jump\t// in\n    tag_13:\n      mload(0x40)\n      tag_15\n      swap2\n      swap1\n      tag_16\n      jump\t// in\n    tag_15:\n      mload(0x40)\n      dup1\n      swap2\n      sub\n      swap1\n      return\n        /* \"val66.sol\":16929:16959  uint256 public totalIterations */\n    tag_4:\n      tag_17\n      tag_18\n      jump\t// in\n    tag_17:\n      mload(0x40)\n      tag_19\n      swap2\n      swap1\n      tag_16\n      jump\t// in\n    tag_19:\n      mload(0x40)\n      dup1\n      swap2\n      sub\n      swap1\n      return\n        /* \"val66.sol\":16842:16872  uint256[] public storedNumbers */\n    tag_5:\n      tag_20\n      0x04\n      dup1\n      calldatasize\n      sub\n      dup2\n      add\n      swap1\n      tag_21\n      swap2\n      swap1\n      tag_22\n      jump\t// in\n    tag_21:\n      tag_23\n      jump\t// in\n    tag_20:\n      mload(0x40)\n      tag_24\n      swap2\n      swap1\n      tag_16\n      jump\t// in\n    tag_24:\n      mload(0x40)\n      dup1\n      swap2\n      sub\n      swap1\n      return\n        /* \"val66.sol\":17432:18223  function expensiveLoop() external ... */\n    tag_6:\n      tag_25\n      tag_26\n      jump\t// in\n    tag_25:\n      stop\n        /* \"val66.sol\":19008:19118  function contractBalance() external view returns(uint256)... */\n    tag_7:\n      tag_27\n      tag_28\n      jump\t// in\n    tag_27:\n      mload(0x40)\n      tag_29\n      swap2\n      swap1\n      tag_16\n      jump\t// in\n    tag_29:\n      mload(0x40)\n      dup1\n      swap2\n      sub\n      swap1\n      return\n        /* \"val66.sol\":17069:17095  uint256 public lastGasUsed */\n    tag_8:\n      tag_30\n      tag_31\n      jump\t// in\n    tag_30:\n      mload(0x40)\n      tag_32\n      swap2\n      swap1\n      tag_16\n      jump\t// in\n    tag_32:\n      mload(0x40)\n      dup1\n      swap2\n      sub\n      swap1\n      return\n        /* \"val66.sol\":18254:18670  function optimizedLoop() external ... */\n    tag_9:\n      tag_33\n      tag_34\n      jump\t// in\n    tag_33:\n      stop\n        /* \"val66.sol\":17009:17032  uint256 public finalSum */\n    tag_10:\n      tag_35\n      tag_36\n      jump\t// in\n    tag_35:\n      mload(0x40)\n      tag_37\n      swap2\n      swap1\n      tag_16\n      jump\t// in\n    tag_37:\n      mload(0x40)\n      dup1\n      swap2\n      sub\n      swap1\n      return\n        /* \"val66.sol\":17130:17158  ExternalCallee public callee */\n    tag_11:\n      tag_38\n      tag_39\n      jump\t// in\n    tag_38:\n      mload(0x40)\n      tag_40\n      swap2\n      swap1\n      tag_41\n      jump\t// in\n    tag_40:\n      mload(0x40)\n      dup1\n      swap2\n      sub\n      swap1\n      return\n        /* \"val66.sol\":18837:18975  function getArrayLength()... */\n    tag_14:\n        /* \"val66.sol\":18913:18920  uint256 */\n      0x00\n        /* \"val66.sol\":18947:18960  storedNumbers */\n      0x00\n        /* \"val66.sol\":18947:18967  storedNumbers.length */\n      dup1\n      sload\n      swap1\n      pop\n        /* \"val66.sol\":18940:18967  return storedNumbers.length */\n      swap1\n      pop\n        /* \"val66.sol\":18837:18975  function getArrayLength()... */\n      swap1\n      jump\t// out\n        /* \"val66.sol\":16929:16959  uint256 public totalIterations */\n    tag_18:\n      sload(0x01)\n      dup2\n      jump\t// out\n        /* \"val66.sol\":16842:16872  uint256[] public storedNumbers */\n    tag_23:\n      0x00\n      dup2\n      dup2\n      sload\n      dup2\n      lt\n      tag_43\n      jumpi\n      0x00\n      dup1\n      revert\n    tag_43:\n      swap1\n      0x00\n      mstore\n      keccak256(0x00, 0x20)\n      add\n      0x00\n      swap2\n      pop\n      swap1\n      pop\n      sload\n      dup2\n      jump\t// out\n        /* \"val66.sol\":17432:18223  function expensiveLoop() external ... */\n    tag_26:\n        /* \"val66.sol\":17483:17499  uint256 startGas */\n      0x00\n        /* \"val66.sol\":17502:17511  gasleft() */\n      gas\n        /* \"val66.sol\":17483:17511  uint256 startGas = gasleft() */\n      swap1\n      pop\n        /* \"val66.sol\":17523:17534  uint256 sum */\n      0x00\n        /* \"val66.sol\":17537:17538  0 */\n      0x00\n        /* \"val66.sol\":17523:17538  uint256 sum = 0 */\n      swap1\n      pop\n        /* \"val66.sol\":17729:17738  uint256 i */\n      0x00\n        /* \"val66.sol\":17741:17742  0 */\n      0x00\n        /* \"val66.sol\":17729:17742  uint256 i = 0 */\n      swap1\n      pop\n        /* \"val66.sol\":17710:18009  for (... */\n    tag_46:\n        /* \"val66.sol\":17761:17764  100 */\n      0x64\n        /* \"val66.sol\":17757:17758  i */\n      dup2\n        /* \"val66.sol\":17757:17764  i < 100 */\n      lt\n        /* \"val66.sol\":17710:18009  for (... */\n      iszero\n      tag_47\n      jumpi\n        /* \"val66.sol\":17818:17819  i */\n      dup1\n        /* \"val66.sol\":17811:17819  sum += i */\n      dup3\n      tag_49\n      swap2\n      swap1\n      tag_50\n      jump\t// in\n    tag_49:\n      swap2\n      pop\n        /* \"val66.sol\":17846:17859  storedNumbers */\n      0x00\n        /* \"val66.sol\":17865:17866  i */\n      dup2\n        /* \"val66.sol\":17846:17867  storedNumbers.push(i) */\n      swap1\n      dup1\n      0x01\n      dup2\n      sload\n      add\n      dup1\n      dup3\n      sstore\n      dup1\n      swap2\n      pop\n      pop\n      0x01\n      swap1\n      sub\n      swap1\n      0x00\n      mstore\n      keccak256(0x00, 0x20)\n      add\n      0x00\n      swap1\n      swap2\n      swap1\n      swap2\n      swap1\n      swap2\n      pop\n      sstore\n        /* \"val66.sol\":17896:17911  totalIterations */\n      0x01\n      0x00\n        /* \"val66.sol\":17896:17913  totalIterations++ */\n      dup2\n      sload\n      dup1\n      swap3\n      swap2\n      swap1\n      tag_52\n      swap1\n      tag_53\n      jump\t// in\n    tag_52:\n      swap2\n      swap1\n      pop\n      sstore\n      pop\n        /* \"val66.sol\":17930:17936  callee */\n      0x04\n      0x00\n      swap1\n      sload\n      swap1\n      0x0100\n      exp\n      swap1\n      div\n      0xffffffffffffffffffffffffffffffffffffffff\n      and\n        /* \"val66.sol\":17930:17949  callee.externalWork */\n      0xffffffffffffffffffffffffffffffffffffffff\n      and\n      0x9a4b04c6\n        /* \"val66.sol\":17950:17951  i */\n      dup3\n        /* \"val66.sol\":17930:17952  callee.externalWork(i) */\n      mload(0x40)\n      dup3\n      0xffffffff\n      and\n      0xe0\n      shl\n      dup2\n      mstore\n      0x04\n      add\n      tag_54\n      swap2\n      swap1\n      tag_16\n      jump\t// in\n    tag_54:\n      0x00\n      mload(0x40)\n      dup1\n      dup4\n      sub\n      dup2\n      0x00\n      dup8\n      dup1\n      extcodesize\n      iszero\n      dup1\n      iszero\n      tag_55\n      jumpi\n      revert(0x00, 0x00)\n    tag_55:\n      pop\n      gas\n      call\n      iszero\n      dup1\n      iszero\n      tag_57\n      jumpi\n      returndatacopy(0x00, 0x00, returndatasize)\n      revert(0x00, returndatasize)\n    tag_57:\n      pop\n      pop\n      pop\n      pop\n        /* \"val66.sol\":17974:17997  ExternalCallEXecuted(i) */\n      0xdcae453db4ef3268f23231e729f0b3097ac732172b14a505729dc2ed02beeb0b\n        /* \"val66.sol\":17995:17996  i */\n      dup2\n        /* \"val66.sol\":17974:17997  ExternalCallEXecuted(i) */\n      mload(0x40)\n      tag_58\n      swap2\n      swap1\n      tag_16\n      jump\t// in\n    tag_58:\n      mload(0x40)\n      dup1\n      swap2\n      sub\n      swap1\n      log1\n        /* \"val66.sol\":17779:17782  i++ */\n      dup1\n      dup1\n      0x01\n      add\n      swap2\n      pop\n      pop\n        /* \"val66.sol\":17710:18009  for (... */\n      jump(tag_46)\n    tag_47:\n      pop\n        /* \"val66.sol\":18084:18087  sum */\n      dup1\n        /* \"val66.sol\":18073:18081  finalSum */\n      0x02\n        /* \"val66.sol\":18073:18087  finalSum = sum */\n      dup2\n      swap1\n      sstore\n      pop\n        /* \"val66.sol\":18157:18166  gasleft() */\n      gas\n        /* \"val66.sol\":18146:18154  startGas */\n      dup3\n        /* \"val66.sol\":18146:18166  startGas - gasleft() */\n      tag_59\n      swap2\n      swap1\n      tag_60\n      jump\t// in\n    tag_59:\n        /* \"val66.sol\":18132:18143  lastGasUsed */\n      0x03\n        /* \"val66.sol\":18132:18166  lastGasUsed = startGas - gasleft() */\n      dup2\n      swap1\n      sstore\n      pop\n        /* \"val66.sol\":18184:18215  LoopCompleted(lastGasUsed, sum) */\n      0x87243bf8585d1956697e216ae0fb5b1fd23f985b1af093eacee6788f515314ac\n        /* \"val66.sol\":18198:18209  lastGasUsed */\n      sload(0x03)\n        /* \"val66.sol\":18211:18214  sum */\n      dup3\n        /* \"val66.sol\":18184:18215  LoopCompleted(lastGasUsed, sum) */\n      mload(0x40)\n      tag_61\n      swap3\n      swap2\n      swap1\n      tag_62\n      jump\t// in\n    tag_61:\n      mload(0x40)\n      dup1\n      swap2\n      sub\n      swap1\n      log1\n        /* \"val66.sol\":17472:18223  {... */\n      pop\n      pop\n        /* \"val66.sol\":17432:18223  function expensiveLoop() external ... */\n      jump\t// out\n        /* \"val66.sol\":19008:19118  function contractBalance() external view returns(uint256)... */\n    tag_28:\n        /* \"val66.sol\":19057:19064  uint256 */\n      0x00\n        /* \"val66.sol\":19089:19110  address(this).balance */\n      selfbalance\n        /* \"val66.sol\":19082:19110  return address(this).balance */\n      swap1\n      pop\n        /* \"val66.sol\":19008:19118  function contractBalance() external view returns(uint256)... */\n      swap1\n      jump\t// out\n        /* \"val66.sol\":17069:17095  uint256 public lastGasUsed */\n    tag_31:\n      sload(0x03)\n      dup2\n      jump\t// out\n        /* \"val66.sol\":18254:18670  function optimizedLoop() external ... */\n    tag_34:\n        /* \"val66.sol\":18305:18321  uint256 startGas */\n      0x00\n        /* \"val66.sol\":18324:18333  gasleft() */\n      gas\n        /* \"val66.sol\":18305:18333  uint256 startGas = gasleft() */\n      swap1\n      pop\n        /* \"val66.sol\":18346:18357  uint256 sum */\n      0x00\n        /* \"val66.sol\":18360:18361  0 */\n      0x00\n        /* \"val66.sol\":18346:18361  uint256 sum = 0 */\n      swap1\n      pop\n        /* \"val66.sol\":18407:18416  uint256 i */\n      0x00\n        /* \"val66.sol\":18419:18420  0 */\n      0x00\n        /* \"val66.sol\":18407:18420  uint256 i = 0 */\n      swap1\n      pop\n        /* \"val66.sol\":18403:18480  for(uint256 i = 0; i < 100; i++)... */\n    tag_65:\n        /* \"val66.sol\":18426:18429  100 */\n      0x64\n        /* \"val66.sol\":18422:18423  i */\n      dup2\n        /* \"val66.sol\":18422:18429  i < 100 */\n      lt\n        /* \"val66.sol\":18403:18480  for(uint256 i = 0; i < 100; i++)... */\n      iszero\n      tag_66\n      jumpi\n        /* \"val66.sol\":18467:18468  i */\n      dup1\n        /* \"val66.sol\":18460:18468  sum += i */\n      dup3\n      tag_68\n      swap2\n      swap1\n      tag_50\n      jump\t// in\n    tag_68:\n      swap2\n      pop\n        /* \"val66.sol\":18431:18434  i++ */\n      dup1\n      dup1\n      0x01\n      add\n      swap2\n      pop\n      pop\n        /* \"val66.sol\":18403:18480  for(uint256 i = 0; i < 100; i++)... */\n      jump(tag_65)\n    tag_66:\n      pop\n        /* \"val66.sol\":18536:18539  sum */\n      dup1\n        /* \"val66.sol\":18525:18533  finalSum */\n      0x02\n        /* \"val66.sol\":18525:18539  finalSum = sum */\n      dup2\n      swap1\n      sstore\n      pop\n        /* \"val66.sol\":18604:18613  gasleft() */\n      gas\n        /* \"val66.sol\":18593:18601  startGas */\n      dup3\n        /* \"val66.sol\":18593:18613  startGas - gasleft() */\n      tag_69\n      swap2\n      swap1\n      tag_60\n      jump\t// in\n    tag_69:\n        /* \"val66.sol\":18579:18590  lastGasUsed */\n      0x03\n        /* \"val66.sol\":18579:18613  lastGasUsed = startGas - gasleft() */\n      dup2\n      swap1\n      sstore\n      pop\n        /* \"val66.sol\":18631:18662  LoopCompleted(lastGasUsed, sum) */\n      0x87243bf8585d1956697e216ae0fb5b1fd23f985b1af093eacee6788f515314ac\n        /* \"val66.sol\":18645:18656  lastGasUsed */\n      sload(0x03)\n        /* \"val66.sol\":18658:18661  sum */\n      dup3\n        /* \"val66.sol\":18631:18662  LoopCompleted(lastGasUsed, sum) */\n      mload(0x40)\n      tag_70\n      swap3\n      swap2\n      swap1\n      tag_62\n      jump\t// in\n    tag_70:\n      mload(0x40)\n      dup1\n      swap2\n      sub\n      swap1\n      log1\n        /* \"val66.sol\":18294:18670  {... */\n      pop\n      pop\n        /* \"val66.sol\":18254:18670  function optimizedLoop() external ... */\n      jump\t// out\n        /* \"val66.sol\":17009:17032  uint256 public finalSum */\n    tag_36:\n      sload(0x02)\n      dup2\n      jump\t// out\n        /* \"val66.sol\":17130:17158  ExternalCallee public callee */\n    tag_39:\n      0x04\n      0x00\n      swap1\n      sload\n      swap1\n      0x0100\n      exp\n      swap1\n      div\n      0xffffffffffffffffffffffffffffffffffffffff\n      and\n      dup2\n      jump\t// out\n        /* \"#utility.yul\":7:84   */\n    tag_71:\n        /* \"#utility.yul\":44:51   */\n      0x00\n        /* \"#utility.yul\":73:78   */\n      dup2\n        /* \"#utility.yul\":62:78   */\n      swap1\n      pop\n        /* \"#utility.yul\":7:84   */\n      swap2\n      swap1\n      pop\n      jump\t// out\n        /* \"#utility.yul\":90:208   */\n    tag_72:\n        /* \"#utility.yul\":177:201   */\n      tag_88\n        /* \"#utility.yul\":195:200   */\n      dup2\n        /* \"#utility.yul\":177:201   */\n      tag_71\n      jump\t// in\n    tag_88:\n        /* \"#utility.yul\":172:175   */\n      dup3\n        /* \"#utility.yul\":165:202   */\n      mstore\n        /* \"#utility.yul\":90:208   */\n      pop\n      pop\n      jump\t// out\n        /* \"#utility.yul\":214:436   */\n    tag_16:\n        /* \"#utility.yul\":307:311   */\n      0x00\n        /* \"#utility.yul\":345:347   */\n      0x20\n        /* \"#utility.yul\":334:343   */\n      dup3\n        /* \"#utility.yul\":330:348   */\n      add\n        /* \"#utility.yul\":322:348   */\n      swap1\n      pop\n        /* \"#utility.yul\":358:429   */\n      tag_90\n        /* \"#utility.yul\":426:427   */\n      0x00\n        /* \"#utility.yul\":415:424   */\n      dup4\n        /* \"#utility.yul\":411:428   */\n      add\n        /* \"#utility.yul\":402:408   */\n      dup5\n        /* \"#utility.yul\":358:429   */\n      tag_72\n      jump\t// in\n    tag_90:\n        /* \"#utility.yul\":214:436   */\n      swap3\n      swap2\n      pop\n      pop\n      jump\t// out\n        /* \"#utility.yul\":523:640   */\n    tag_74:\n        /* \"#utility.yul\":632:633   */\n      0x00\n        /* \"#utility.yul\":629:630   */\n      0x00\n        /* \"#utility.yul\":622:634   */\n      revert\n        /* \"#utility.yul\":769:891   */\n    tag_76:\n        /* \"#utility.yul\":842:866   */\n      tag_95\n        /* \"#utility.yul\":860:865   */\n      dup2\n        /* \"#utility.yul\":842:866   */\n      tag_71\n      jump\t// in\n    tag_95:\n        /* \"#utility.yul\":835:840   */\n      dup2\n        /* \"#utility.yul\":832:867   */\n      eq\n        /* \"#utility.yul\":822:885   */\n      tag_96\n      jumpi\n        /* \"#utility.yul\":881:882   */\n      0x00\n        /* \"#utility.yul\":878:879   */\n      0x00\n        /* \"#utility.yul\":871:883   */\n      revert\n        /* \"#utility.yul\":822:885   */\n    tag_96:\n        /* \"#utility.yul\":769:891   */\n      pop\n      jump\t// out\n        /* \"#utility.yul\":897:1036   */\n    tag_77:\n        /* \"#utility.yul\":943:948   */\n      0x00\n        /* \"#utility.yul\":981:987   */\n      dup2\n        /* \"#utility.yul\":968:988   */\n      calldataload\n        /* \"#utility.yul\":959:988   */\n      swap1\n      pop\n        /* \"#utility.yul\":997:1030   */\n      tag_98\n        /* \"#utility.yul\":1024:1029   */\n      dup2\n        /* \"#utility.yul\":997:1030   */\n      tag_76\n      jump\t// in\n    tag_98:\n        /* \"#utility.yul\":897:1036   */\n      swap3\n      swap2\n      pop\n      pop\n      jump\t// out\n        /* \"#utility.yul\":1042:1371   */\n    tag_22:\n        /* \"#utility.yul\":1101:1107   */\n      0x00\n        /* \"#utility.yul\":1150:1152   */\n      0x20\n        /* \"#utility.yul\":1138:1147   */\n      dup3\n        /* \"#utility.yul\":1129:1136   */\n      dup5\n        /* \"#utility.yul\":1125:1148   */\n      sub\n        /* \"#utility.yul\":1121:1153   */\n      slt\n        /* \"#utility.yul\":1118:1237   */\n      iszero\n      tag_100\n      jumpi\n        /* \"#utility.yul\":1156:1235   */\n      tag_101\n      tag_74\n      jump\t// in\n    tag_101:\n        /* \"#utility.yul\":1118:1237   */\n    tag_100:\n        /* \"#utility.yul\":1276:1277   */\n      0x00\n        /* \"#utility.yul\":1301:1354   */\n      tag_102\n        /* \"#utility.yul\":1346:1353   */\n      dup5\n        /* \"#utility.yul\":1337:1343   */\n      dup3\n        /* \"#utility.yul\":1326:1335   */\n      dup6\n        /* \"#utility.yul\":1322:1344   */\n      add\n        /* \"#utility.yul\":1301:1354   */\n      tag_77\n      jump\t// in\n    tag_102:\n        /* \"#utility.yul\":1291:1354   */\n      swap2\n      pop\n        /* \"#utility.yul\":1247:1364   */\n      pop\n        /* \"#utility.yul\":1042:1371   */\n      swap3\n      swap2\n      pop\n      pop\n      jump\t// out\n        /* \"#utility.yul\":1377:1503   */\n    tag_78:\n        /* \"#utility.yul\":1414:1421   */\n      0x00\n        /* \"#utility.yul\":1454:1496   */\n      0xffffffffffffffffffffffffffffffffffffffff\n        /* \"#utility.yul\":1447:1452   */\n      dup3\n        /* \"#utility.yul\":1443:1497   */\n      and\n        /* \"#utility.yul\":1432:1497   */\n      swap1\n      pop\n        /* \"#utility.yul\":1377:1503   */\n      swap2\n      swap1\n      pop\n      jump\t// out\n        /* \"#utility.yul\":1509:1569   */\n    tag_79:\n        /* \"#utility.yul\":1537:1540   */\n      0x00\n        /* \"#utility.yul\":1558:1563   */\n      dup2\n        /* \"#utility.yul\":1551:1563   */\n      swap1\n      pop\n        /* \"#utility.yul\":1509:1569   */\n      swap2\n      swap1\n      pop\n      jump\t// out\n        /* \"#utility.yul\":1575:1717   */\n    tag_80:\n        /* \"#utility.yul\":1625:1634   */\n      0x00\n        /* \"#utility.yul\":1658:1711   */\n      tag_106\n        /* \"#utility.yul\":1676:1710   */\n      tag_107\n        /* \"#utility.yul\":1685:1709   */\n      tag_108\n        /* \"#utility.yul\":1703:1708   */\n      dup5\n        /* \"#utility.yul\":1685:1709   */\n      tag_78\n      jump\t// in\n    tag_108:\n        /* \"#utility.yul\":1676:1710   */\n      tag_79\n      jump\t// in\n    tag_107:\n        /* \"#utility.yul\":1658:1711   */\n      tag_78\n      jump\t// in\n    tag_106:\n        /* \"#utility.yul\":1645:1711   */\n      swap1\n      pop\n        /* \"#utility.yul\":1575:1717   */\n      swap2\n      swap1\n      pop\n      jump\t// out\n        /* \"#utility.yul\":1723:1849   */\n    tag_81:\n        /* \"#utility.yul\":1773:1782   */\n      0x00\n        /* \"#utility.yul\":1806:1843   */\n      tag_110\n        /* \"#utility.yul\":1837:1842   */\n      dup3\n        /* \"#utility.yul\":1806:1843   */\n      tag_80\n      jump\t// in\n    tag_110:\n        /* \"#utility.yul\":1793:1843   */\n      swap1\n      pop\n        /* \"#utility.yul\":1723:1849   */\n      swap2\n      swap1\n      pop\n      jump\t// out\n        /* \"#utility.yul\":1855:2002   */\n    tag_82:\n        /* \"#utility.yul\":1926:1935   */\n      0x00\n        /* \"#utility.yul\":1959:1996   */\n      tag_112\n        /* \"#utility.yul\":1990:1995   */\n      dup3\n        /* \"#utility.yul\":1959:1996   */\n      tag_81\n      jump\t// in\n    tag_112:\n        /* \"#utility.yul\":1946:1996   */\n      swap1\n      pop\n        /* \"#utility.yul\":1855:2002   */\n      swap2\n      swap1\n      pop\n      jump\t// out\n        /* \"#utility.yul\":2008:2181   */\n    tag_83:\n        /* \"#utility.yul\":2116:2174   */\n      tag_114\n        /* \"#utility.yul\":2168:2173   */\n      dup2\n        /* \"#utility.yul\":2116:2174   */\n      tag_82\n      jump\t// in\n    tag_114:\n        /* \"#utility.yul\":2111:2114   */\n      dup3\n        /* \"#utility.yul\":2104:2175   */\n      mstore\n        /* \"#utility.yul\":2008:2181   */\n      pop\n      pop\n      jump\t// out\n        /* \"#utility.yul\":2187:2451   */\n    tag_41:\n        /* \"#utility.yul\":2301:2305   */\n      0x00\n        /* \"#utility.yul\":2339:2341   */\n      0x20\n        /* \"#utility.yul\":2328:2337   */\n      dup3\n        /* \"#utility.yul\":2324:2342   */\n      add\n        /* \"#utility.yul\":2316:2342   */\n      swap1\n      pop\n        /* \"#utility.yul\":2352:2444   */\n      tag_116\n        /* \"#utility.yul\":2441:2442   */\n      0x00\n        /* \"#utility.yul\":2430:2439   */\n      dup4\n        /* \"#utility.yul\":2426:2443   */\n      add\n        /* \"#utility.yul\":2417:2423   */\n      dup5\n        /* \"#utility.yul\":2352:2444   */\n      tag_83\n      jump\t// in\n    tag_116:\n        /* \"#utility.yul\":2187:2451   */\n      swap3\n      swap2\n      pop\n      pop\n      jump\t// out\n        /* \"#utility.yul\":2457:2637   */\n    tag_84:\n        /* \"#utility.yul\":2505:2582   */\n      0x4e487b7100000000000000000000000000000000000000000000000000000000\n        /* \"#utility.yul\":2502:2503   */\n      0x00\n        /* \"#utility.yul\":2495:2583   */\n      mstore\n        /* \"#utility.yul\":2602:2606   */\n      0x11\n        /* \"#utility.yul\":2599:2600   */\n      0x04\n        /* \"#utility.yul\":2592:2607   */\n      mstore\n        /* \"#utility.yul\":2626:2630   */\n      0x24\n        /* \"#utility.yul\":2623:2624   */\n      0x00\n        /* \"#utility.yul\":2616:2631   */\n      revert\n        /* \"#utility.yul\":2643:2834   */\n    tag_50:\n        /* \"#utility.yul\":2683:2686   */\n      0x00\n        /* \"#utility.yul\":2702:2722   */\n      tag_119\n        /* \"#utility.yul\":2720:2721   */\n      dup3\n        /* \"#utility.yul\":2702:2722   */\n      tag_71\n      jump\t// in\n    tag_119:\n        /* \"#utility.yul\":2697:2722   */\n      swap2\n      pop\n        /* \"#utility.yul\":2736:2756   */\n      tag_120\n        /* \"#utility.yul\":2754:2755   */\n      dup4\n        /* \"#utility.yul\":2736:2756   */\n      tag_71\n      jump\t// in\n    tag_120:\n        /* \"#utility.yul\":2731:2756   */\n      swap3\n      pop\n        /* \"#utility.yul\":2779:2780   */\n      dup3\n        /* \"#utility.yul\":2776:2777   */\n      dup3\n        /* \"#utility.yul\":2772:2781   */\n      add\n        /* \"#utility.yul\":2765:2781   */\n      swap1\n      pop\n        /* \"#utility.yul\":2800:2803   */\n      dup1\n        /* \"#utility.yul\":2797:2798   */\n      dup3\n        /* \"#utility.yul\":2794:2804   */\n      gt\n        /* \"#utility.yul\":2791:2827   */\n      iszero\n      tag_121\n      jumpi\n        /* \"#utility.yul\":2807:2825   */\n      tag_122\n      tag_84\n      jump\t// in\n    tag_122:\n        /* \"#utility.yul\":2791:2827   */\n    tag_121:\n        /* \"#utility.yul\":2643:2834   */\n      swap3\n      swap2\n      pop\n      pop\n      jump\t// out\n        /* \"#utility.yul\":2840:3073   */\n    tag_53:\n        /* \"#utility.yul\":2879:2882   */\n      0x00\n        /* \"#utility.yul\":2902:2926   */\n      tag_124\n        /* \"#utility.yul\":2920:2925   */\n      dup3\n        /* \"#utility.yul\":2902:2926   */\n      tag_71\n      jump\t// in\n    tag_124:\n        /* \"#utility.yul\":2893:2926   */\n      swap2\n      pop\n        /* \"#utility.yul\":2948:3014   */\n      0xffffffffffffffffffffffffffffffffffffffffffffffffffffffffffffffff\n        /* \"#utility.yul\":2941:2946   */\n      dup3\n        /* \"#utility.yul\":2938:3015   */\n      sub\n        /* \"#utility.yul\":2935:3038   */\n      tag_125\n      jumpi\n        /* \"#utility.yul\":3018:3036   */\n      tag_126\n      tag_84\n      jump\t// in\n    tag_126:\n        /* \"#utility.yul\":2935:3038   */\n    tag_125:\n        /* \"#utility.yul\":3065:3066   */\n      0x01\n        /* \"#utility.yul\":3058:3063   */\n      dup3\n        /* \"#utility.yul\":3054:3067   */\n      add\n        /* \"#utility.yul\":3047:3067   */\n      swap1\n      pop\n        /* \"#utility.yul\":2840:3073   */\n      swap2\n      swap1\n      pop\n      jump\t// out\n        /* \"#utility.yul\":3079:3273   */\n    tag_60:\n        /* \"#utility.yul\":3119:3123   */\n      0x00\n        /* \"#utility.yul\":3139:3159   */\n      tag_128\n        /* \"#utility.yul\":3157:3158   */\n      dup3\n        /* \"#utility.yul\":3139:3159   */\n      tag_71\n      jump\t// in\n    tag_128:\n        /* \"#utility.yul\":3134:3159   */\n      swap2\n      pop\n        /* \"#utility.yul\":3173:3193   */\n      tag_129\n        /* \"#utility.yul\":3191:3192   */\n      dup4\n        /* \"#utility.yul\":3173:3193   */\n      tag_71\n      jump\t// in\n    tag_129:\n        /* \"#utility.yul\":3168:3193   */\n      swap3\n      pop\n        /* \"#utility.yul\":3217:3218   */\n      dup3\n        /* \"#utility.yul\":3214:3215   */\n      dup3\n        /* \"#utility.yul\":3210:3219   */\n      sub\n        /* \"#utility.yul\":3202:3219   */\n      swap1\n      pop\n        /* \"#utility.yul\":3241:3242   */\n      dup2\n        /* \"#utility.yul\":3235:3239   */\n      dup2\n        /* \"#utility.yul\":3232:3243   */\n      gt\n        /* \"#utility.yul\":3229:3266   */\n      iszero\n      tag_130\n      jumpi\n        /* \"#utility.yul\":3246:3264   */\n      tag_131\n      tag_84\n      jump\t// in\n    tag_131:\n        /* \"#utility.yul\":3229:3266   */\n    tag_130:\n        /* \"#utility.yul\":3079:3273   */\n      swap3\n      swap2\n      pop\n      pop\n      jump\t// out\n        /* \"#utility.yul\":3279:3611   */\n    tag_62:\n        /* \"#utility.yul\":3400:3404   */\n      0x00\n        /* \"#utility.yul\":3438:3440   */\n      0x40\n        /* \"#utility.yul\":3427:3436   */\n      dup3\n        /* \"#utility.yul\":3423:3441   */\n      add\n        /* \"#utility.yul\":3415:3441   */\n      swap1\n      pop\n        /* \"#utility.yul\":3451:3522   */\n      tag_133\n        /* \"#utility.yul\":3519:3520   */\n      0x00\n        /* \"#utility.yul\":3508:3517   */\n      dup4\n        /* \"#utility.yul\":3504:3521   */\n      add\n        /* \"#utility.yul\":3495:3501   */\n      dup6\n        /* \"#utility.yul\":3451:3522   */\n      tag_72\n      jump\t// in\n    tag_133:\n        /* \"#utility.yul\":3532:3604   */\n      tag_134\n        /* \"#utility.yul\":3600:3602   */\n      0x20\n        /* \"#utility.yul\":3589:3598   */\n      dup4\n        /* \"#utility.yul\":3585:3603   */\n      add\n        /* \"#utility.yul\":3576:3582   */\n      dup5\n        /* \"#utility.yul\":3532:3604   */\n      tag_72\n      jump\t// in\n    tag_134:\n        /* \"#utility.yul\":3279:3611   */\n      swap4\n      swap3\n      pop\n      pop\n      pop\n      jump\t// out\n\n    auxdata: 0xa2646970667358221220c9fadd6799c60e23314ba35f7e256cabc9a67e4dd22d2a68cfba402eb02f935b64736f6c63430008220033\n}\n",
				"bytecode": {
					"linkReferences": {},
					"object": "608060405234801561000f575f5ffd5b50604051610764380380610764833981810160405281019061003191906100d5565b8060045f6101000a81548173ffffffffffffffffffffffffffffffffffffffff021916908373ffffffffffffffffffffffffffffffffffffffff16021790555050610100565b5f5ffd5b5f73ffffffffffffffffffffffffffffffffffffffff82169050919050565b5f6100a48261007b565b9050919050565b6100b48161009a565b81146100be575f5ffd5b50565b5f815190506100cf816100ab565b92915050565b5f602082840312156100ea576100e9610077565b5b5f6100f7848285016100c1565b91505092915050565b6106578061010d5f395ff3fe608060405234801561000f575f5ffd5b5060043610610091575f3560e01c80638b7afe2e116100645780638b7afe2e1461010b57806395c570bd14610129578063ad01810114610147578063c87fde3214610151578063ceee2e201461016f57610091565b80630849cc9914610095578063283c91f4146100b35780633b1f0cd0146100d15780635d324c1314610101575b5f5ffd5b61009d61018d565b6040516100aa919061041b565b60405180910390f35b6100bb610198565b6040516100c8919061041b565b60405180910390f35b6100eb60048036038101906100e69190610462565b61019e565b6040516100f8919061041b565b60405180910390f35b6101096101bd565b005b610113610341565b604051610120919061041b565b60405180910390f35b610131610348565b60405161013e919061041b565b60405180910390f35b61014f61034e565b005b6101596103d8565b604051610166919061041b565b60405180910390f35b6101776103de565b6040516101849190610507565b60405180910390f35b5f5f80549050905090565b60015481565b5f81815481106101ac575f80fd5b905f5260205f20015f915090505481565b5f5a90505f5f90505f5f90505b60648110156102e85780826101df919061054d565b91505f81908060018154018082558091505060019003905f5260205f20015f909190919091505560015f81548092919061021890610580565b919050555060045f9054906101000a900473ffffffffffffffffffffffffffffffffffffffff1673ffffffffffffffffffffffffffffffffffffffff16639a4b04c6826040518263ffffffff1660e01b8152600401610277919061041b565b5f604051808303815f87803b15801561028e575f5ffd5b505af11580156102a0573d5f5f3e3d5ffd5b505050507fdcae453db4ef3268f23231e729f0b3097ac732172b14a505729dc2ed02beeb0b816040516102d3919061041b565b60405180910390a180806001019150506101ca565b50806002819055505a826102fc91906105c7565b6003819055507f87243bf8585d1956697e216ae0fb5b1fd23f985b1af093eacee6788f515314ac600354826040516103359291906105fa565b60405180910390a15050565b5f47905090565b60035481565b5f5a90505f5f90505f5f90505b606481101561037f578082610370919061054d565b9150808060010191505061035b565b50806002819055505a8261039391906105c7565b6003819055507f87243bf8585d1956697e216ae0fb5b1fd23f985b1af093eacee6788f515314ac600354826040516103cc9291906105fa565b60405180910390a15050565b60025481565b60045f9054906101000a900473ffffffffffffffffffffffffffffffffffffffff1681565b5f819050919050565b61041581610403565b82525050565b5f60208201905061042e5f83018461040c565b92915050565b5f5ffd5b61044181610403565b811461044b575f5ffd5b50565b5f8135905061045c81610438565b92915050565b5f6020828403121561047757610476610434565b5b5f6104848482850161044e565b91505092915050565b5f73ffffffffffffffffffffffffffffffffffffffff82169050919050565b5f819050919050565b5f6104cf6104ca6104c58461048d565b6104ac565b61048d565b9050919050565b5f6104e0826104b5565b9050919050565b5f6104f1826104d6565b9050919050565b610501816104e7565b82525050565b5f60208201905061051a5f8301846104f8565b92915050565b7f4e487b71000000000000000000000000000000000000000000000000000000005f52601160045260245ffd5b5f61055782610403565b915061056283610403565b925082820190508082111561057a57610579610520565b5b92915050565b5f61058a82610403565b91507fffffffffffffffffffffffffffffffffffffffffffffffffffffffffffffffff82036105bc576105bb610520565b5b600182019050919050565b5f6105d182610403565b91506105dc83610403565b92508282039050818111156105f4576105f3610520565b5b92915050565b5f60408201905061060d5f83018561040c565b61061a602083018461040c565b939250505056fea2646970667358221220c9fadd6799c60e23314ba35f7e256cabc9a67e4dd22d2a68cfba402eb02f935b64736f6c63430008220033",
					"opcodes": "PUSH1 0x80 PUSH1 0x40 MSTORE CALLVALUE DUP1 ISZERO PUSH2 0xF JUMPI PUSH0 PUSH0 REVERT JUMPDEST POP PUSH1 0x40 MLOAD PUSH2 0x764 CODESIZE SUB DUP1 PUSH2 0x764 DUP4 CODECOPY DUP2 DUP2 ADD PUSH1 0x40 MSTORE DUP2 ADD SWAP1 PUSH2 0x31 SWAP2 SWAP1 PUSH2 0xD5 JUMP JUMPDEST DUP1 PUSH1 0x4 PUSH0 PUSH2 0x100 EXP DUP2 SLOAD DUP2 PUSH20 0xFFFFFFFFFFFFFFFFFFFFFFFFFFFFFFFFFFFFFFFF MUL NOT AND SWAP1 DUP4 PUSH20 0xFFFFFFFFFFFFFFFFFFFFFFFFFFFFFFFFFFFFFFFF AND MUL OR SWAP1 SSTORE POP POP PUSH2 0x100 JUMP JUMPDEST PUSH0 PUSH0 REVERT JUMPDEST PUSH0 PUSH20 0xFFFFFFFFFFFFFFFFFFFFFFFFFFFFFFFFFFFFFFFF DUP3 AND SWAP1 POP SWAP2 SWAP1 POP JUMP JUMPDEST PUSH0 PUSH2 0xA4 DUP3 PUSH2 0x7B JUMP JUMPDEST SWAP1 POP SWAP2 SWAP1 POP JUMP JUMPDEST PUSH2 0xB4 DUP2 PUSH2 0x9A JUMP JUMPDEST DUP2 EQ PUSH2 0xBE JUMPI PUSH0 PUSH0 REVERT JUMPDEST POP JUMP JUMPDEST PUSH0 DUP2 MLOAD SWAP1 POP PUSH2 0xCF DUP2 PUSH2 0xAB JUMP JUMPDEST SWAP3 SWAP2 POP POP JUMP JUMPDEST PUSH0 PUSH1 0x20 DUP3 DUP5 SUB SLT ISZERO PUSH2 0xEA JUMPI PUSH2 0xE9 PUSH2 0x77 JUMP JUMPDEST JUMPDEST PUSH0 PUSH2 0xF7 DUP5 DUP3 DUP6 ADD PUSH2 0xC1 JUMP JUMPDEST SWAP2 POP POP SWAP3 SWAP2 POP POP JUMP JUMPDEST PUSH2 0x657 DUP1 PUSH2 0x10D PUSH0 CODECOPY PUSH0 RETURN INVALID PUSH1 0x80 PUSH1 0x40 MSTORE CALLVALUE DUP1 ISZERO PUSH2 0xF JUMPI PUSH0 PUSH0 REVERT JUMPDEST POP PUSH1 0x4 CALLDATASIZE LT PUSH2 0x91 JUMPI PUSH0 CALLDATALOAD PUSH1 0xE0 SHR DUP1 PUSH4 0x8B7AFE2E GT PUSH2 0x64 JUMPI DUP1 PUSH4 0x8B7AFE2E EQ PUSH2 0x10B JUMPI DUP1 PUSH4 0x95C570BD EQ PUSH2 0x129 JUMPI DUP1 PUSH4 0xAD018101 EQ PUSH2 0x147 JUMPI DUP1 PUSH4 0xC87FDE32 EQ PUSH2 0x151 JUMPI DUP1 PUSH4 0xCEEE2E20 EQ PUSH2 0x16F JUMPI PUSH2 0x91 JUMP JUMPDEST DUP1 PUSH4 0x849CC99 EQ PUSH2 0x95 JUMPI DUP1 PUSH4 0x283C91F4 EQ PUSH2 0xB3 JUMPI DUP1 PUSH4 0x3B1F0CD0 EQ PUSH2 0xD1 JUMPI DUP1 PUSH4 0x5D324C13 EQ PUSH2 0x101 JUMPI JUMPDEST PUSH0 PUSH0 REVERT JUMPDEST PUSH2 0x9D PUSH2 0x18D JUMP JUMPDEST PUSH1 0x40 MLOAD PUSH2 0xAA SWAP2 SWAP1 PUSH2 0x41B JUMP JUMPDEST PUSH1 0x40 MLOAD DUP1 SWAP2 SUB SWAP1 RETURN JUMPDEST PUSH2 0xBB PUSH2 0x198 JUMP JUMPDEST PUSH1 0x40 MLOAD PUSH2 0xC8 SWAP2 SWAP1 PUSH2 0x41B JUMP JUMPDEST PUSH1 0x40 MLOAD DUP1 SWAP2 SUB SWAP1 RETURN JUMPDEST PUSH2 0xEB PUSH1 0x4 DUP1 CALLDATASIZE SUB DUP2 ADD SWAP1 PUSH2 0xE6 SWAP2 SWAP1 PUSH2 0x462 JUMP JUMPDEST PUSH2 0x19E JUMP JUMPDEST PUSH1 0x40 MLOAD PUSH2 0xF8 SWAP2 SWAP1 PUSH2 0x41B JUMP JUMPDEST PUSH1 0x40 MLOAD DUP1 SWAP2 SUB SWAP1 RETURN JUMPDEST PUSH2 0x109 PUSH2 0x1BD JUMP JUMPDEST STOP JUMPDEST PUSH2 0x113 PUSH2 0x341 JUMP JUMPDEST PUSH1 0x40 MLOAD PUSH2 0x120 SWAP2 SWAP1 PUSH2 0x41B JUMP JUMPDEST PUSH1 0x40 MLOAD DUP1 SWAP2 SUB SWAP1 RETURN JUMPDEST PUSH2 0x131 PUSH2 0x348 JUMP JUMPDEST PUSH1 0x40 MLOAD PUSH2 0x13E SWAP2 SWAP1 PUSH2 0x41B JUMP JUMPDEST PUSH1 0x40 MLOAD DUP1 SWAP2 SUB SWAP1 RETURN JUMPDEST PUSH2 0x14F PUSH2 0x34E JUMP JUMPDEST STOP JUMPDEST PUSH2 0x159 PUSH2 0x3D8 JUMP JUMPDEST PUSH1 0x40 MLOAD PUSH2 0x166 SWAP2 SWAP1 PUSH2 0x41B JUMP JUMPDEST PUSH1 0x40 MLOAD DUP1 SWAP2 SUB SWAP1 RETURN JUMPDEST PUSH2 0x177 PUSH2 0x3DE JUMP JUMPDEST PUSH1 0x40 MLOAD PUSH2 0x184 SWAP2 SWAP1 PUSH2 0x507 JUMP JUMPDEST PUSH1 0x40 MLOAD DUP1 SWAP2 SUB SWAP1 RETURN JUMPDEST PUSH0 PUSH0 DUP1 SLOAD SWAP1 POP SWAP1 POP SWAP1 JUMP JUMPDEST PUSH1 0x1 SLOAD DUP2 JUMP JUMPDEST PUSH0 DUP2 DUP2 SLOAD DUP2 LT PUSH2 0x1AC JUMPI PUSH0 DUP1 REVERT JUMPDEST SWAP1 PUSH0 MSTORE PUSH1 0x20 PUSH0 KECCAK256 ADD PUSH0 SWAP2 POP SWAP1 POP SLOAD DUP2 JUMP JUMPDEST PUSH0 GAS SWAP1 POP PUSH0 PUSH0 SWAP1 POP PUSH0 PUSH0 SWAP1 POP JUMPDEST PUSH1 0x64 DUP2 LT ISZERO PUSH2 0x2E8 JUMPI DUP1 DUP3 PUSH2 0x1DF SWAP2 SWAP1 PUSH2 0x54D JUMP JUMPDEST SWAP2 POP PUSH0 DUP2 SWAP1 DUP1 PUSH1 0x1 DUP2 SLOAD ADD DUP1 DUP3 SSTORE DUP1 SWAP2 POP POP PUSH1 0x1 SWAP1 SUB SWAP1 PUSH0 MSTORE PUSH1 0x20 PUSH0 KECCAK256 ADD PUSH0 SWAP1 SWAP2 SWAP1 SWAP2 SWAP1 SWAP2 POP SSTORE PUSH1 0x1 PUSH0 DUP2 SLOAD DUP1 SWAP3 SWAP2 SWAP1 PUSH2 0x218 SWAP1 PUSH2 0x580 JUMP JUMPDEST SWAP2 SWAP1 POP SSTORE POP PUSH1 0x4 PUSH0 SWAP1 SLOAD SWAP1 PUSH2 0x100 EXP SWAP1 DIV PUSH20 0xFFFFFFFFFFFFFFFFFFFFFFFFFFFFFFFFFFFFFFFF AND PUSH20 0xFFFFFFFFFFFFFFFFFFFFFFFFFFFFFFFFFFFFFFFF AND PUSH4 0x9A4B04C6 DUP3 PUSH1 0x40 MLOAD DUP3 PUSH4 0xFFFFFFFF AND PUSH1 0xE0 SHL DUP2 MSTORE PUSH1 0x4 ADD PUSH2 0x277 SWAP2 SWAP1 PUSH2 0x41B JUMP JUMPDEST PUSH0 PUSH1 0x40 MLOAD DUP1 DUP4 SUB DUP2 PUSH0 DUP8 DUP1 EXTCODESIZE ISZERO DUP1 ISZERO PUSH2 0x28E JUMPI PUSH0 PUSH0 REVERT JUMPDEST POP GAS CALL ISZERO DUP1 ISZERO PUSH2 0x2A0 JUMPI RETURNDATASIZE PUSH0 PUSH0 RETURNDATACOPY RETURNDATASIZE PUSH0 REVERT JUMPDEST POP POP POP POP PUSH32 0xDCAE453DB4EF3268F23231E729F0B3097AC732172B14A505729DC2ED02BEEB0B DUP2 PUSH1 0x40 MLOAD PUSH2 0x2D3 SWAP2 SWAP1 PUSH2 0x41B JUMP JUMPDEST PUSH1 0x40 MLOAD DUP1 SWAP2 SUB SWAP1 LOG1 DUP1 DUP1 PUSH1 0x1 ADD SWAP2 POP POP PUSH2 0x1CA JUMP JUMPDEST POP DUP1 PUSH1 0x2 DUP2 SWAP1 SSTORE POP GAS DUP3 PUSH2 0x2FC SWAP2 SWAP1 PUSH2 0x5C7 JUMP JUMPDEST PUSH1 0x3 DUP2 SWAP1 SSTORE POP PUSH32 0x87243BF8585D1956697E216AE0FB5B1FD23F985B1AF093EACEE6788F515314AC PUSH1 0x3 SLOAD DUP3 PUSH1 0x40 MLOAD PUSH2 0x335 SWAP3 SWAP2 SWAP1 PUSH2 0x5FA JUMP JUMPDEST PUSH1 0x40 MLOAD DUP1 SWAP2 SUB SWAP1 LOG1 POP POP JUMP JUMPDEST PUSH0 SELFBALANCE SWAP1 POP SWAP1 JUMP JUMPDEST PUSH1 0x3 SLOAD DUP2 JUMP JUMPDEST PUSH0 GAS SWAP1 POP PUSH0 PUSH0 SWAP1 POP PUSH0 PUSH0 SWAP1 POP JUMPDEST PUSH1 0x64 DUP2 LT ISZERO PUSH2 0x37F JUMPI DUP1 DUP3 PUSH2 0x370 SWAP2 SWAP1 PUSH2 0x54D JUMP JUMPDEST SWAP2 POP DUP1 DUP1 PUSH1 0x1 ADD SWAP2 POP POP PUSH2 0x35B JUMP JUMPDEST POP DUP1 PUSH1 0x2 DUP2 SWAP1 SSTORE POP GAS DUP3 PUSH2 0x393 SWAP2 SWAP1 PUSH2 0x5C7 JUMP JUMPDEST PUSH1 0x3 DUP2 SWAP1 SSTORE POP PUSH32 0x87243BF8585D1956697E216AE0FB5B1FD23F985B1AF093EACEE6788F515314AC PUSH1 0x3 SLOAD DUP3 PUSH1 0x40 MLOAD PUSH2 0x3CC SWAP3 SWAP2 SWAP1 PUSH2 0x5FA JUMP JUMPDEST PUSH1 0x40 MLOAD DUP1 SWAP2 SUB SWAP1 LOG1 POP POP JUMP JUMPDEST PUSH1 0x2 SLOAD DUP2 JUMP JUMPDEST PUSH1 0x4 PUSH0 SWAP1 SLOAD SWAP1 PUSH2 0x100 EXP SWAP1 DIV PUSH20 0xFFFFFFFFFFFFFFFFFFFFFFFFFFFFFFFFFFFFFFFF AND DUP2 JUMP JUMPDEST PUSH0 DUP2 SWAP1 POP SWAP2 SWAP1 POP JUMP JUMPDEST PUSH2 0x415 DUP2 PUSH2 0x403 JUMP JUMPDEST DUP3 MSTORE POP POP JUMP JUMPDEST PUSH0 PUSH1 0x20 DUP3 ADD SWAP1 POP PUSH2 0x42E PUSH0 DUP4 ADD DUP5 PUSH2 0x40C JUMP JUMPDEST SWAP3 SWAP2 POP POP JUMP JUMPDEST PUSH0 PUSH0 REVERT JUMPDEST PUSH2 0x441 DUP2 PUSH2 0x403 JUMP JUMPDEST DUP2 EQ PUSH2 0x44B JUMPI PUSH0 PUSH0 REVERT JUMPDEST POP JUMP JUMPDEST PUSH0 DUP2 CALLDATALOAD SWAP1 POP PUSH2 0x45C DUP2 PUSH2 0x438 JUMP JUMPDEST SWAP3 SWAP2 POP POP JUMP JUMPDEST PUSH0 PUSH1 0x20 DUP3 DUP5 SUB SLT ISZERO PUSH2 0x477 JUMPI PUSH2 0x476 PUSH2 0x434 JUMP JUMPDEST JUMPDEST PUSH0 PUSH2 0x484 DUP5 DUP3 DUP6 ADD PUSH2 0x44E JUMP JUMPDEST SWAP2 POP POP SWAP3 SWAP2 POP POP JUMP JUMPDEST PUSH0 PUSH20 0xFFFFFFFFFFFFFFFFFFFFFFFFFFFFFFFFFFFFFFFF DUP3 AND SWAP1 POP SWAP2 SWAP1 POP JUMP JUMPDEST PUSH0 DUP2 SWAP1 POP SWAP2 SWAP1 POP JUMP JUMPDEST PUSH0 PUSH2 0x4CF PUSH2 0x4CA PUSH2 0x4C5 DUP5 PUSH2 0x48D JUMP JUMPDEST PUSH2 0x4AC JUMP JUMPDEST PUSH2 0x48D JUMP JUMPDEST SWAP1 POP SWAP2 SWAP1 POP JUMP JUMPDEST PUSH0 PUSH2 0x4E0 DUP3 PUSH2 0x4B5 JUMP JUMPDEST SWAP1 POP SWAP2 SWAP1 POP JUMP JUMPDEST PUSH0 PUSH2 0x4F1 DUP3 PUSH2 0x4D6 JUMP JUMPDEST SWAP1 POP SWAP2 SWAP1 POP JUMP JUMPDEST PUSH2 0x501 DUP2 PUSH2 0x4E7 JUMP JUMPDEST DUP3 MSTORE POP POP JUMP JUMPDEST PUSH0 PUSH1 0x20 DUP3 ADD SWAP1 POP PUSH2 0x51A PUSH0 DUP4 ADD DUP5 PUSH2 0x4F8 JUMP JUMPDEST SWAP3 SWAP2 POP POP JUMP JUMPDEST PUSH32 0x4E487B7100000000000000000000000000000000000000000000000000000000 PUSH0 MSTORE PUSH1 0x11 PUSH1 0x4 MSTORE PUSH1 0x24 PUSH0 REVERT JUMPDEST PUSH0 PUSH2 0x557 DUP3 PUSH2 0x403 JUMP JUMPDEST SWAP2 POP PUSH2 0x562 DUP4 PUSH2 0x403 JUMP JUMPDEST SWAP3 POP DUP3 DUP3 ADD SWAP1 POP DUP1 DUP3 GT ISZERO PUSH2 0x57A JUMPI PUSH2 0x579 PUSH2 0x520 JUMP JUMPDEST JUMPDEST SWAP3 SWAP2 POP POP JUMP JUMPDEST PUSH0 PUSH2 0x58A DUP3 PUSH2 0x403 JUMP JUMPDEST SWAP2 POP PUSH32 0xFFFFFFFFFFFFFFFFFFFFFFFFFFFFFFFFFFFFFFFFFFFFFFFFFFFFFFFFFFFFFFFF DUP3 SUB PUSH2 0x5BC JUMPI PUSH2 0x5BB PUSH2 0x520 JUMP JUMPDEST JUMPDEST PUSH1 0x1 DUP3 ADD SWAP1 POP SWAP2 SWAP1 POP JUMP JUMPDEST PUSH0 PUSH2 0x5D1 DUP3 PUSH2 0x403 JUMP JUMPDEST SWAP2 POP PUSH2 0x5DC DUP4 PUSH2 0x403 JUMP JUMPDEST SWAP3 POP DUP3 DUP3 SUB SWAP1 POP DUP2 DUP2 GT ISZERO PUSH2 0x5F4 JUMPI PUSH2 0x5F3 PUSH2 0x520 JUMP JUMPDEST JUMPDEST SWAP3 SWAP2 POP POP JUMP JUMPDEST PUSH0 PUSH1 0x40 DUP3 ADD SWAP1 POP PUSH2 0x60D PUSH0 DUP4 ADD DUP6 PUSH2 0x40C JUMP JUMPDEST PUSH2 0x61A PUSH1 0x20 DUP4 ADD DUP5 PUSH2 0x40C JUMP JUMPDEST SWAP4 SWAP3 POP POP POP JUMP INVALID LOG2 PUSH5 0x6970667358 0x22 SLT KECCAK256 0xC9 STATICCALL 0xDD PUSH8 0x99C60E23314BA35F PUSH31 0x256CABC9A67E4DD22D2A68CFBA402EB02F935B64736F6C6343000822003300 "
				},
				"gasEstimates": {
					"creation": {
						"codeDepositCost": "324600",
						"executionCost": "infinite",
						"totalCost": "infinite"
					},
					"external": {
						"callee()": "infinite",
						"contractBalance()": "334",
						"expensiveLoop()": "infinite",
						"finalSum()": "2491",
						"getArrayLength()": "2440",
						"lastGasUsed()": "2447",
						"optimizedLoop()": "infinite",
						"storedNumbers(uint256)": "infinite",
						"totalIterations()": "2448"
					}
				},
				"methodIdentifiers": {
					"callee()": "ceee2e20",
					"contractBalance()": "8b7afe2e",
					"expensiveLoop()": "5d324c13",
					"finalSum()": "c87fde32",
					"getArrayLength()": "0849cc99",
					"lastGasUsed()": "95c570bd",
					"optimizedLoop()": "ad018101",
					"storedNumbers(uint256)": "3b1f0cd0",
					"totalIterations()": "283c91f4"
				}
			},
			"storageLayout": {
				"storage": [
					{
						"astId": 71,
						"contract": "val66.sol:LoopGasUsage",
						"label": "storedNumbers",
						"offset": 0,
						"slot": "0",
						"type": "t_array(t_uint256)dyn_storage"
					},
					{
						"astId": 73,
						"contract": "val66.sol:LoopGasUsage",
						"label": "totalIterations",
						"offset": 0,
						"slot": "1",
						"type": "t_uint256"
					},
					{
						"astId": 75,
						"contract": "val66.sol:LoopGasUsage",
						"label": "finalSum",
						"offset": 0,
						"slot": "2",
						"type": "t_uint256"
					},
					{
						"astId": 77,
						"contract": "val66.sol:LoopGasUsage",
						"label": "lastGasUsed",
						"offset": 0,
						"slot": "3",
						"type": "t_uint256"
					},
					{
						"astId": 80,
						"contract": "val66.sol:LoopGasUsage",
						"label": "callee",
						"offset": 0,
						"slot": "4",
						"type": "t_contract(ExternalCallee)68"
					}
				],
				"types": {
					"t_array(t_uint256)dyn_storage": {
						"base": "t_uint256",
						"encoding": "dynamic_array",
						"label": "uint256[]",
						"numberOfBytes": "32"
					},
					"t_contract(ExternalCallee)68": {
						"encoding": "inplace",
						"label": "contract ExternalCallee",
						"numberOfBytes": "20"
					},
					"t_uint256": {
						"encoding": "inplace",
						"label": "uint256",
						"numberOfBytes": "32"
					}
				}
			},
			"userdoc": {
				"kind": "user",
				"methods": {},
				"version": 1
			}
		}
	}
}