{
	"val64.sol": {
		"PayableReceiver": {
			"abi": [
				{
					"anonymous": false,
					"inputs": [
						{
							"indexed": false,
							"internalType": "address",
							"name": "sender",
							"type": "address"
						},
						{
							"indexed": false,
							"internalType": "uint256",
							"name": "amount",
							"type": "uint256"
						}
					],
					"name": "ETHReceived",
					"type": "event"
				},
				{
					"anonymous": false,
					"inputs": [
						{
							"indexed": false,
							"internalType": "address",
							"name": "sender",
							"type": "address"
						},
						{
							"indexed": false,
							"internalType": "uint256",
							"name": "amount",
							"type": "uint256"
						},
						{
							"indexed": false,
							"internalType": "bytes",
							"name": "data",
							"type": "bytes"
						}
					],
					"name": "FallbackExecuted",
					"type": "event"
				},
				{
					"stateMutability": "payable",
					"type": "fallback"
				},
				{
					"inputs": [],
					"name": "getBalance",
					"outputs": [
						{
							"internalType": "uint256",
							"name": "",
							"type": "uint256"
						}
					],
					"stateMutability": "view",
					"type": "function"
				},
				{
					"inputs": [],
					"name": "receivedAmount",
					"outputs": [
						{
							"internalType": "uint256",
							"name": "",
							"type": "uint256"
						}
					],
					"stateMutability": "view",
					"type": "function"
				},
				{
					"stateMutability": "payable",
					"type": "receive"
				}
			],
			"devdoc": {
				"kind": "dev",
				"methods": {},
				"version": 1
			},
			"evm": {
				"assembly": "    /* \"val64.sol\":19434:20905  contract PayableReceiver {... */\n  mstore(0x40, 0x80)\n  callvalue\n  dup1\n  iszero\n  tag_1\n  jumpi\n  revert(0x00, 0x00)\ntag_1:\n  pop\n  dataSize(sub_0)\n  dup1\n  dataOffset(sub_0)\n  0x00\n  codecopy\n  0x00\n  return\nstop\n\nsub_0: assembly {\n        /* \"val64.sol\":19434:20905  contract PayableReceiver {... */\n      mstore(0x40, 0x80)\n      jumpi(tag_1, lt(calldatasize, 0x04))\n      shr(0xe0, calldataload(0x00))\n      dup1\n      0x12065fe0\n      eq\n      tag_3\n      jumpi\n      dup1\n      0x9632e720\n      eq\n      tag_4\n      jumpi\n      jump(tag_2)\n    tag_1:\n      jumpi(tag_2, calldatasize)\n        /* \"val64.sol\":20122:20131  msg.value */\n      callvalue\n        /* \"val64.sol\":20104:20118  receivedAmount */\n      0x00\n      0x00\n        /* \"val64.sol\":20104:20131  receivedAmount += msg.value */\n      dup3\n      dup3\n      sload\n      tag_7\n      swap2\n      swap1\n      tag_8\n      jump\t// in\n    tag_7:\n      swap3\n      pop\n      pop\n      dup2\n      swap1\n      sstore\n      pop\n        /* \"val64.sol\":20149:20220  ETHReceived(... */\n      0xbfe611b001dfcd411432f7bf0d79b82b4b2ee81511edac123a3403c357fb972a\n        /* \"val64.sol\":20175:20185  msg.sender */\n      caller\n        /* \"val64.sol\":20200:20209  msg.value */\n      callvalue\n        /* \"val64.sol\":20149:20220  ETHReceived(... */\n      mload(0x40)\n      tag_9\n      swap3\n      swap2\n      swap1\n      tag_10\n      jump\t// in\n    tag_9:\n      mload(0x40)\n      dup1\n      swap2\n      sub\n      swap1\n      log1\n        /* \"val64.sol\":19434:20905  contract PayableReceiver {... */\n      stop\n    tag_2:\n        /* \"val64.sol\":20474:20483  msg.value */\n      callvalue\n        /* \"val64.sol\":20456:20470  receivedAmount */\n      0x00\n      0x00\n        /* \"val64.sol\":20456:20483  receivedAmount += msg.value */\n      dup3\n      dup3\n      sload\n      tag_13\n      swap2\n      swap1\n      tag_8\n      jump\t// in\n    tag_13:\n      swap3\n      pop\n      pop\n      dup2\n      swap1\n      sstore\n      pop\n        /* \"val64.sol\":20501:20600  FallbackExecuted(... */\n      0x2087642f508df0bba22bccd980242c5ea3ccef54a9fe18eda4632f3f9de91fbc\n        /* \"val64.sol\":20532:20542  msg.sender */\n      caller\n        /* \"val64.sol\":20557:20566  msg.value */\n      callvalue\n        /* \"val64.sol\":20581:20589  msg.data */\n      0x00\n      calldatasize\n        /* \"val64.sol\":20501:20600  FallbackExecuted(... */\n      mload(0x40)\n      tag_14\n      swap5\n      swap4\n      swap3\n      swap2\n      swap1\n      tag_15\n      jump\t// in\n    tag_14:\n      mload(0x40)\n      dup1\n      swap2\n      sub\n      swap1\n      log1\n        /* \"val64.sol\":19434:20905  contract PayableReceiver {... */\n      stop\n        /* \"val64.sol\":20769:20902  function getBalance()... */\n    tag_3:\n      callvalue\n      dup1\n      iszero\n      tag_16\n      jumpi\n      revert(0x00, 0x00)\n    tag_16:\n      pop\n      tag_17\n      tag_18\n      jump\t// in\n    tag_17:\n      mload(0x40)\n      tag_19\n      swap2\n      swap1\n      tag_20\n      jump\t// in\n    tag_19:\n      mload(0x40)\n      dup1\n      swap2\n      sub\n      swap1\n      return\n        /* \"val64.sol\":19512:19541  uint256 public receivedAmount */\n    tag_4:\n      callvalue\n      dup1\n      iszero\n      tag_21\n      jumpi\n      revert(0x00, 0x00)\n    tag_21:\n      pop\n      tag_22\n      tag_23\n      jump\t// in\n    tag_22:\n      mload(0x40)\n      tag_24\n      swap2\n      swap1\n      tag_20\n      jump\t// in\n    tag_24:\n      mload(0x40)\n      dup1\n      swap2\n      sub\n      swap1\n      return\n        /* \"val64.sol\":20769:20902  function getBalance()... */\n    tag_18:\n        /* \"val64.sol\":20841:20848  uint256 */\n      0x00\n        /* \"val64.sol\":20873:20894  address(this).balance */\n      selfbalance\n        /* \"val64.sol\":20866:20894  return address(this).balance */\n      swap1\n      pop\n        /* \"val64.sol\":20769:20902  function getBalance()... */\n      swap1\n      jump\t// out\n        /* \"val64.sol\":19512:19541  uint256 public receivedAmount */\n    tag_23:\n      sload(0x00)\n      dup2\n      jump\t// out\n        /* \"#utility.yul\":7:84   */\n    tag_26:\n        /* \"#utility.yul\":44:51   */\n      0x00\n        /* \"#utility.yul\":73:78   */\n      dup2\n        /* \"#utility.yul\":62:78   */\n      swap1\n      pop\n        /* \"#utility.yul\":7:84   */\n      swap2\n      swap1\n      pop\n      jump\t// out\n        /* \"#utility.yul\":90:270   */\n    tag_27:\n        /* \"#utility.yul\":138:215   */\n      0x4e487b7100000000000000000000000000000000000000000000000000000000\n        /* \"#utility.yul\":135:136   */\n      0x00\n        /* \"#utility.yul\":128:216   */\n      mstore\n        /* \"#utility.yul\":235:239   */\n      0x11\n        /* \"#utility.yul\":232:233   */\n      0x04\n        /* \"#utility.yul\":225:240   */\n      mstore\n        /* \"#utility.yul\":259:263   */\n      0x24\n        /* \"#utility.yul\":256:257   */\n      0x00\n        /* \"#utility.yul\":249:264   */\n      revert\n        /* \"#utility.yul\":276:467   */\n    tag_8:\n        /* \"#utility.yul\":316:319   */\n      0x00\n        /* \"#utility.yul\":335:355   */\n      tag_40\n        /* \"#utility.yul\":353:354   */\n      dup3\n        /* \"#utility.yul\":335:355   */\n      tag_26\n      jump\t// in\n    tag_40:\n        /* \"#utility.yul\":330:355   */\n      swap2\n      pop\n        /* \"#utility.yul\":369:389   */\n      tag_41\n        /* \"#utility.yul\":387:388   */\n      dup4\n        /* \"#utility.yul\":369:389   */\n      tag_26\n      jump\t// in\n    tag_41:\n        /* \"#utility.yul\":364:389   */\n      swap3\n      pop\n        /* \"#utility.yul\":412:413   */\n      dup3\n        /* \"#utility.yul\":409:410   */\n      dup3\n        /* \"#utility.yul\":405:414   */\n      add\n        /* \"#utility.yul\":398:414   */\n      swap1\n      pop\n        /* \"#utility.yul\":433:436   */\n      dup1\n        /* \"#utility.yul\":430:431   */\n      dup3\n        /* \"#utility.yul\":427:437   */\n      gt\n        /* \"#utility.yul\":424:460   */\n      iszero\n      tag_42\n      jumpi\n        /* \"#utility.yul\":440:458   */\n      tag_43\n      tag_27\n      jump\t// in\n    tag_43:\n        /* \"#utility.yul\":424:460   */\n    tag_42:\n        /* \"#utility.yul\":276:467   */\n      swap3\n      swap2\n      pop\n      pop\n      jump\t// out\n        /* \"#utility.yul\":473:599   */\n    tag_28:\n        /* \"#utility.yul\":510:517   */\n      0x00\n        /* \"#utility.yul\":550:592   */\n      0xffffffffffffffffffffffffffffffffffffffff\n        /* \"#utility.yul\":543:548   */\n      dup3\n        /* \"#utility.yul\":539:593   */\n      and\n        /* \"#utility.yul\":528:593   */\n      swap1\n      pop\n        /* \"#utility.yul\":473:599   */\n      swap2\n      swap1\n      pop\n      jump\t// out\n        /* \"#utility.yul\":605:701   */\n    tag_29:\n        /* \"#utility.yul\":642:649   */\n      0x00\n        /* \"#utility.yul\":671:695   */\n      tag_46\n        /* \"#utility.yul\":689:694   */\n      dup3\n        /* \"#utility.yul\":671:695   */\n      tag_28\n      jump\t// in\n    tag_46:\n        /* \"#utility.yul\":660:695   */\n      swap1\n      pop\n        /* \"#utility.yul\":605:701   */\n      swap2\n      swap1\n      pop\n      jump\t// out\n        /* \"#utility.yul\":707:825   */\n    tag_30:\n        /* \"#utility.yul\":794:818   */\n      tag_48\n        /* \"#utility.yul\":812:817   */\n      dup2\n        /* \"#utility.yul\":794:818   */\n      tag_29\n      jump\t// in\n    tag_48:\n        /* \"#utility.yul\":789:792   */\n      dup3\n        /* \"#utility.yul\":782:819   */\n      mstore\n        /* \"#utility.yul\":707:825   */\n      pop\n      pop\n      jump\t// out\n        /* \"#utility.yul\":831:949   */\n    tag_31:\n        /* \"#utility.yul\":918:942   */\n      tag_50\n        /* \"#utility.yul\":936:941   */\n      dup2\n        /* \"#utility.yul\":918:942   */\n      tag_26\n      jump\t// in\n    tag_50:\n        /* \"#utility.yul\":913:916   */\n      dup3\n        /* \"#utility.yul\":906:943   */\n      mstore\n        /* \"#utility.yul\":831:949   */\n      pop\n      pop\n      jump\t// out\n        /* \"#utility.yul\":955:1287   */\n    tag_10:\n        /* \"#utility.yul\":1076:1080   */\n      0x00\n        /* \"#utility.yul\":1114:1116   */\n      0x40\n        /* \"#utility.yul\":1103:1112   */\n      dup3\n        /* \"#utility.yul\":1099:1117   */\n      add\n        /* \"#utility.yul\":1091:1117   */\n      swap1\n      pop\n        /* \"#utility.yul\":1127:1198   */\n      tag_52\n        /* \"#utility.yul\":1195:1196   */\n      0x00\n        /* \"#utility.yul\":1184:1193   */\n      dup4\n        /* \"#utility.yul\":1180:1197   */\n      add\n        /* \"#utility.yul\":1171:1177   */\n      dup6\n        /* \"#utility.yul\":1127:1198   */\n      tag_30\n      jump\t// in\n    tag_52:\n        /* \"#utility.yul\":1208:1280   */\n      tag_53\n        /* \"#utility.yul\":1276:1278   */\n      0x20\n        /* \"#utility.yul\":1265:1274   */\n      dup4\n        /* \"#utility.yul\":1261:1279   */\n      add\n        /* \"#utility.yul\":1252:1258   */\n      dup5\n        /* \"#utility.yul\":1208:1280   */\n      tag_31\n      jump\t// in\n    tag_53:\n        /* \"#utility.yul\":955:1287   */\n      swap4\n      swap3\n      pop\n      pop\n      pop\n      jump\t// out\n        /* \"#utility.yul\":1293:1461   */\n    tag_32:\n        /* \"#utility.yul\":1376:1387   */\n      0x00\n        /* \"#utility.yul\":1410:1416   */\n      dup3\n        /* \"#utility.yul\":1405:1408   */\n      dup3\n        /* \"#utility.yul\":1398:1417   */\n      mstore\n        /* \"#utility.yul\":1450:1454   */\n      0x20\n        /* \"#utility.yul\":1445:1448   */\n      dup3\n        /* \"#utility.yul\":1441:1455   */\n      add\n        /* \"#utility.yul\":1426:1455   */\n      swap1\n      pop\n        /* \"#utility.yul\":1293:1461   */\n      swap3\n      swap2\n      pop\n      pop\n      jump\t// out\n        /* \"#utility.yul\":1467:1615   */\n    tag_33:\n        /* \"#utility.yul\":1565:1571   */\n      dup3\n        /* \"#utility.yul\":1560:1563   */\n      dup2\n        /* \"#utility.yul\":1555:1558   */\n      dup4\n        /* \"#utility.yul\":1542:1572   */\n      calldatacopy\n        /* \"#utility.yul\":1606:1607   */\n      0x00\n        /* \"#utility.yul\":1597:1603   */\n      dup4\n        /* \"#utility.yul\":1592:1595   */\n      dup4\n        /* \"#utility.yul\":1588:1604   */\n      add\n        /* \"#utility.yul\":1581:1608   */\n      mstore\n        /* \"#utility.yul\":1467:1615   */\n      pop\n      pop\n      pop\n      jump\t// out\n        /* \"#utility.yul\":1621:1723   */\n    tag_34:\n        /* \"#utility.yul\":1662:1668   */\n      0x00\n        /* \"#utility.yul\":1713:1715   */\n      0x1f\n        /* \"#utility.yul\":1709:1716   */\n      not\n        /* \"#utility.yul\":1704:1706   */\n      0x1f\n        /* \"#utility.yul\":1697:1702   */\n      dup4\n        /* \"#utility.yul\":1693:1707   */\n      add\n        /* \"#utility.yul\":1689:1717   */\n      and\n        /* \"#utility.yul\":1679:1717   */\n      swap1\n      pop\n        /* \"#utility.yul\":1621:1723   */\n      swap2\n      swap1\n      pop\n      jump\t// out\n        /* \"#utility.yul\":1751:2065   */\n    tag_35:\n        /* \"#utility.yul\":1847:1850   */\n      0x00\n        /* \"#utility.yul\":1868:1938   */\n      tag_58\n        /* \"#utility.yul\":1931:1937   */\n      dup4\n        /* \"#utility.yul\":1926:1929   */\n      dup6\n        /* \"#utility.yul\":1868:1938   */\n      tag_32\n      jump\t// in\n    tag_58:\n        /* \"#utility.yul\":1861:1938   */\n      swap4\n      pop\n        /* \"#utility.yul\":1948:2004   */\n      tag_59\n        /* \"#utility.yul\":1997:2003   */\n      dup4\n        /* \"#utility.yul\":1992:1995   */\n      dup6\n        /* \"#utility.yul\":1985:1990   */\n      dup5\n        /* \"#utility.yul\":1948:2004   */\n      tag_33\n      jump\t// in\n    tag_59:\n        /* \"#utility.yul\":2029:2058   */\n      tag_60\n        /* \"#utility.yul\":2051:2057   */\n      dup4\n        /* \"#utility.yul\":2029:2058   */\n      tag_34\n      jump\t// in\n    tag_60:\n        /* \"#utility.yul\":2024:2027   */\n      dup5\n        /* \"#utility.yul\":2020:2059   */\n      add\n        /* \"#utility.yul\":2013:2059   */\n      swap1\n      pop\n        /* \"#utility.yul\":1751:2065   */\n      swap4\n      swap3\n      pop\n      pop\n      pop\n      jump\t// out\n        /* \"#utility.yul\":2071:2620   */\n    tag_15:\n        /* \"#utility.yul\":2248:2252   */\n      0x00\n        /* \"#utility.yul\":2286:2288   */\n      0x60\n        /* \"#utility.yul\":2275:2284   */\n      dup3\n        /* \"#utility.yul\":2271:2289   */\n      add\n        /* \"#utility.yul\":2263:2289   */\n      swap1\n      pop\n        /* \"#utility.yul\":2299:2370   */\n      tag_62\n        /* \"#utility.yul\":2367:2368   */\n      0x00\n        /* \"#utility.yul\":2356:2365   */\n      dup4\n        /* \"#utility.yul\":2352:2369   */\n      add\n        /* \"#utility.yul\":2343:2349   */\n      dup8\n        /* \"#utility.yul\":2299:2370   */\n      tag_30\n      jump\t// in\n    tag_62:\n        /* \"#utility.yul\":2380:2452   */\n      tag_63\n        /* \"#utility.yul\":2448:2450   */\n      0x20\n        /* \"#utility.yul\":2437:2446   */\n      dup4\n        /* \"#utility.yul\":2433:2451   */\n      add\n        /* \"#utility.yul\":2424:2430   */\n      dup7\n        /* \"#utility.yul\":2380:2452   */\n      tag_31\n      jump\t// in\n    tag_63:\n        /* \"#utility.yul\":2499:2508   */\n      dup2\n        /* \"#utility.yul\":2493:2497   */\n      dup2\n        /* \"#utility.yul\":2489:2509   */\n      sub\n        /* \"#utility.yul\":2484:2486   */\n      0x40\n        /* \"#utility.yul\":2473:2482   */\n      dup4\n        /* \"#utility.yul\":2469:2487   */\n      add\n        /* \"#utility.yul\":2462:2510   */\n      mstore\n        /* \"#utility.yul\":2527:2613   */\n      tag_64\n        /* \"#utility.yul\":2608:2612   */\n      dup2\n        /* \"#utility.yul\":2599:2605   */\n      dup5\n        /* \"#utility.yul\":2591:2597   */\n      dup7\n        /* \"#utility.yul\":2527:2613   */\n      tag_35\n      jump\t// in\n    tag_64:\n        /* \"#utility.yul\":2519:2613   */\n      swap1\n      pop\n        /* \"#utility.yul\":2071:2620   */\n      swap6\n      swap5\n      pop\n      pop\n      pop\n      pop\n      pop\n      jump\t// out\n        /* \"#utility.yul\":2626:2848   */\n    tag_20:\n        /* \"#utility.yul\":2719:2723   */\n      0x00\n        /* \"#utility.yul\":2757:2759   */\n      0x20\n        /* \"#utility.yul\":2746:2755   */\n      dup3\n        /* \"#utility.yul\":2742:2760   */\n      add\n        /* \"#utility.yul\":2734:2760   */\n      swap1\n      pop\n        /* \"#utility.yul\":2770:2841   */\n      tag_66\n        /* \"#utility.yul\":2838:2839   */\n      0x00\n        /* \"#utility.yul\":2827:2836   */\n      dup4\n        /* \"#utility.yul\":2823:2840   */\n      add\n        /* \"#utility.yul\":2814:2820   */\n      dup5\n        /* \"#utility.yul\":2770:2841   */\n      tag_31\n      jump\t// in\n    tag_66:\n        /* \"#utility.yul\":2626:2848   */\n      swap3\n      swap2\n      pop\n      pop\n      jump\t// out\n\n    auxdata: 0xa2646970667358221220c3da38cf1f9f94ba20670e766e4b7b9519994bbb282ea871f4d79d74b78aabd264736f6c63430008220033\n}\n",
				"bytecode": {
					"linkReferences": {},
					"object": "6080604052348015600e575f5ffd5b506102fe8061001c5f395ff3fe60806040526004361061002c575f3560e01c806312065fe0146100d95780639632e7201461010357610083565b3661008357345f5f828254610041919061016f565b925050819055507fbfe611b001dfcd411432f7bf0d79b82b4b2ee81511edac123a3403c357fb972a33346040516100799291906101f0565b60405180910390a1005b345f5f828254610093919061016f565b925050819055507f2087642f508df0bba22bccd980242c5ea3ccef54a9fe18eda4632f3f9de91fbc33345f366040516100cf9493929190610271565b60405180910390a1005b3480156100e4575f5ffd5b506100ed61012d565b6040516100fa91906102af565b60405180910390f35b34801561010e575f5ffd5b50610117610134565b60405161012491906102af565b60405180910390f35b5f47905090565b5f5481565b5f819050919050565b7f4e487b71000000000000000000000000000000000000000000000000000000005f52601160045260245ffd5b5f61017982610139565b915061018483610139565b925082820190508082111561019c5761019b610142565b5b92915050565b5f73ffffffffffffffffffffffffffffffffffffffff82169050919050565b5f6101cb826101a2565b9050919050565b6101db816101c1565b82525050565b6101ea81610139565b82525050565b5f6040820190506102035f8301856101d2565b61021060208301846101e1565b9392505050565b5f82825260208201905092915050565b828183375f83830152505050565b5f601f19601f8301169050919050565b5f6102508385610217565b935061025d838584610227565b61026683610235565b840190509392505050565b5f6060820190506102845f8301876101d2565b61029160208301866101e1565b81810360408301526102a4818486610245565b905095945050505050565b5f6020820190506102c25f8301846101e1565b9291505056fea2646970667358221220c3da38cf1f9f94ba20670e766e4b7b9519994bbb282ea871f4d79d74b78aabd264736f6c63430008220033",
					"opcodes": "PUSH1 0x80 PUSH1 0x40 MSTORE CALLVALUE DUP1 ISZERO PUSH1 0xE JUMPI PUSH0 PUSH0 REVERT JUMPDEST POP PUSH2 0x2FE DUP1 PUSH2 0x1C PUSH0 CODECOPY PUSH0 RETURN INVALID PUSH1 0x80 PUSH1 0x40 MSTORE PUSH1 0x4 CALLDATASIZE LT PUSH2 0x2C JUMPI PUSH0 CALLDATALOAD PUSH1 0xE0 SHR DUP1 PUSH4 0x12065FE0 EQ PUSH2 0xD9 JUMPI DUP1 PUSH4 0x9632E720 EQ PUSH2 0x103 JUMPI PUSH2 0x83 JUMP JUMPDEST CALLDATASIZE PUSH2 0x83 JUMPI CALLVALUE PUSH0 PUSH0 DUP3 DUP3 SLOAD PUSH2 0x41 SWAP2 SWAP1 PUSH2 0x16F JUMP JUMPDEST SWAP3 POP POP DUP2 SWAP1 SSTORE POP PUSH32 0xBFE611B001DFCD411432F7BF0D79B82B4B2EE81511EDAC123A3403C357FB972A CALLER CALLVALUE PUSH1 0x40 MLOAD PUSH2 0x79 SWAP3 SWAP2 SWAP1 PUSH2 0x1F0 JUMP JUMPDEST PUSH1 0x40 MLOAD DUP1 SWAP2 SUB SWAP1 LOG1 STOP JUMPDEST CALLVALUE PUSH0 PUSH0 DUP3 DUP3 SLOAD PUSH2 0x93 SWAP2 SWAP1 PUSH2 0x16F JUMP JUMPDEST SWAP3 POP POP DUP2 SWAP1 SSTORE POP PUSH32 0x2087642F508DF0BBA22BCCD980242C5EA3CCEF54A9FE18EDA4632F3F9DE91FBC CALLER CALLVALUE PUSH0 CALLDATASIZE PUSH1 0x40 MLOAD PUSH2 0xCF SWAP5 SWAP4 SWAP3 SWAP2 SWAP1 PUSH2 0x271 JUMP JUMPDEST PUSH1 0x40 MLOAD DUP1 SWAP2 SUB SWAP1 LOG1 STOP JUMPDEST CALLVALUE DUP1 ISZERO PUSH2 0xE4 JUMPI PUSH0 PUSH0 REVERT JUMPDEST POP PUSH2 0xED PUSH2 0x12D JUMP JUMPDEST PUSH1 0x40 MLOAD PUSH2 0xFA SWAP2 SWAP1 PUSH2 0x2AF JUMP JUMPDEST PUSH1 0x40 MLOAD DUP1 SWAP2 SUB SWAP1 RETURN JUMPDEST CALLVALUE DUP1 ISZERO PUSH2 0x10E JUMPI PUSH0 PUSH0 REVERT JUMPDEST POP PUSH2 0x117 PUSH2 0x134 JUMP JUMPDEST PUSH1 0x40 MLOAD PUSH2 0x124 SWAP2 SWAP1 PUSH2 0x2AF JUMP JUMPDEST PUSH1 0x40 MLOAD DUP1 SWAP2 SUB SWAP1 RETURN JUMPDEST PUSH0 SELFBALANCE SWAP1 POP SWAP1 JUMP JUMPDEST PUSH0 SLOAD DUP2 JUMP JUMPDEST PUSH0 DUP2 SWAP1 POP SWAP2 SWAP1 POP JUMP JUMPDEST PUSH32 0x4E487B7100000000000000000000000000000000000000000000000000000000 PUSH0 MSTORE PUSH1 0x11 PUSH1 0x4 MSTORE PUSH1 0x24 PUSH0 REVERT JUMPDEST PUSH0 PUSH2 0x179 DUP3 PUSH2 0x139 JUMP JUMPDEST SWAP2 POP PUSH2 0x184 DUP4 PUSH2 0x139 JUMP JUMPDEST SWAP3 POP DUP3 DUP3 ADD SWAP1 POP DUP1 DUP3 GT ISZERO PUSH2 0x19C JUMPI PUSH2 0x19B PUSH2 0x142 JUMP JUMPDEST JUMPDEST SWAP3 SWAP2 POP POP JUMP JUMPDEST PUSH0 PUSH20 0xFFFFFFFFFFFFFFFFFFFFFFFFFFFFFFFFFFFFFFFF DUP3 AND SWAP1 POP SWAP2 SWAP1 POP JUMP JUMPDEST PUSH0 PUSH2 0x1CB DUP3 PUSH2 0x1A2 JUMP JUMPDEST SWAP1 POP SWAP2 SWAP1 POP JUMP JUMPDEST PUSH2 0x1DB DUP2 PUSH2 0x1C1 JUMP JUMPDEST DUP3 MSTORE POP POP JUMP JUMPDEST PUSH2 0x1EA DUP2 PUSH2 0x139 JUMP JUMPDEST DUP3 MSTORE POP POP JUMP JUMPDEST PUSH0 PUSH1 0x40 DUP3 ADD SWAP1 POP PUSH2 0x203 PUSH0 DUP4 ADD DUP6 PUSH2 0x1D2 JUMP JUMPDEST PUSH2 0x210 PUSH1 0x20 DUP4 ADD DUP5 PUSH2 0x1E1 JUMP JUMPDEST SWAP4 SWAP3 POP POP POP JUMP JUMPDEST PUSH0 DUP3 DUP3 MSTORE PUSH1 0x20 DUP3 ADD SWAP1 POP SWAP3 SWAP2 POP POP JUMP JUMPDEST DUP3 DUP2 DUP4 CALLDATACOPY PUSH0 DUP4 DUP4 ADD MSTORE POP POP POP JUMP JUMPDEST PUSH0 PUSH1 0x1F NOT PUSH1 0x1F DUP4 ADD AND SWAP1 POP SWAP2 SWAP1 POP JUMP JUMPDEST PUSH0 PUSH2 0x250 DUP4 DUP6 PUSH2 0x217 JUMP JUMPDEST SWAP4 POP PUSH2 0x25D DUP4 DUP6 DUP5 PUSH2 0x227 JUMP JUMPDEST PUSH2 0x266 DUP4 PUSH2 0x235 JUMP JUMPDEST DUP5 ADD SWAP1 POP SWAP4 SWAP3 POP POP POP JUMP JUMPDEST PUSH0 PUSH1 0x60 DUP3 ADD SWAP1 POP PUSH2 0x284 PUSH0 DUP4 ADD DUP8 PUSH2 0x1D2 JUMP JUMPDEST PUSH2 0x291 PUSH1 0x20 DUP4 ADD DUP7 PUSH2 0x1E1 JUMP JUMPDEST DUP2 DUP2 SUB PUSH1 0x40 DUP4 ADD MSTORE PUSH2 0x2A4 DUP2 DUP5 DUP7 PUSH2 0x245 JUMP JUMPDEST SWAP1 POP SWAP6 SWAP5 POP POP POP POP POP JUMP JUMPDEST PUSH0 PUSH1 0x20 DUP3 ADD SWAP1 POP PUSH2 0x2C2 PUSH0 DUP4 ADD DUP5 PUSH2 0x1E1 JUMP JUMPDEST SWAP3 SWAP2 POP POP JUMP INVALID LOG2 PUSH5 0x6970667358 0x22 SLT KECCAK256 0xC3 0xDA CODESIZE 0xCF 0x1F SWAP16 SWAP5 0xBA KECCAK256 PUSH8 0xE766E4B7B951999 0x4B 0xBB 0x28 0x2E 0xA8 PUSH18 0xF4D79D74B78AABD264736F6C634300082200 CALLER "
				},
				"gasEstimates": {
					"creation": {
						"codeDepositCost": "153200",
						"executionCost": "194",
						"totalCost": "153394"
					},
					"external": {
						"": "infinite",
						"getBalance()": "312",
						"receivedAmount()": "2424"
					}
				},
				"methodIdentifiers": {
					"getBalance()": "12065fe0",
					"receivedAmount()": "9632e720"
				}
			},
			"storageLayout": {
				"storage": [
					{
						"astId": 138,
						"contract": "val64.sol:PayableReceiver",
						"label": "receivedAmount",
						"offset": 0,
						"slot": "0",
						"type": "t_uint256"
					}
				],
				"types": {
					"t_uint256": {
						"encoding": "inplace",
						"label": "uint256",
						"numberOfBytes": "32"
					}
				}
			},
			"userdoc": {
				"kind": "user",
				"methods": {},
				"version": 1
			}
		}
	}
}