{
	"val64.sol": {
		"NonPayableReceiver": {
			"abi": [
				{
					"anonymous": false,
					"inputs": [
						{
							"indexed": false,
							"internalType": "address",
							"name": "sender",
							"type": "address"
						},
						{
							"indexed": false,
							"internalType": "uint256",
							"name": "amount",
							"type": "uint256"
						},
						{
							"indexed": false,
							"internalType": "bytes",
							"name": "data",
							"type": "bytes"
						}
					],
					"name": "FallbackTriggered",
					"type": "event"
				},
				{
					"anonymous": false,
					"inputs": [
						{
							"indexed": false,
							"internalType": "address",
							"name": "caller",
							"type": "address"
						}
					],
					"name": "Incremented",
					"type": "event"
				},
				{
					"stateMutability": "payable",
					"type": "fallback"
				},
				{
					"inputs": [],
					"name": "counter",
					"outputs": [
						{
							"internalType": "uint256",
							"name": "",
							"type": "uint256"
						}
					],
					"stateMutability": "view",
					"type": "function"
				},
				{
					"inputs": [],
					"name": "increment",
					"outputs": [],
					"stateMutability": "nonpayable",
					"type": "function"
				}
			],
			"devdoc": {
				"kind": "dev",
				"methods": {},
				"version": 1
			},
			"evm": {
				"assembly": "    /* \"val64.sol\":18219:19284  contract NonPayableReceiver ... */\n  mstore(0x40, 0x80)\n  callvalue\n  dup1\n  iszero\n  tag_1\n  jumpi\n  revert(0x00, 0x00)\ntag_1:\n  pop\n  dataSize(sub_0)\n  dup1\n  dataOffset(sub_0)\n  0x00\n  codecopy\n  0x00\n  return\nstop\n\nsub_0: assembly {\n        /* \"val64.sol\":18219:19284  contract NonPayableReceiver ... */\n      mstore(0x40, 0x80)\n      jumpi(tag_1, lt(calldatasize, 0x04))\n      shr(0xe0, calldataload(0x00))\n      dup1\n      0x61bc221a\n      eq\n      tag_3\n      jumpi\n      dup1\n      0xd09de08a\n      eq\n      tag_4\n      jumpi\n      jump(tag_2)\n    tag_1:\n    tag_2:\n        /* \"val64.sol\":19173:19273  FallbackTriggered(... */\n      0x390f97e4a5ab8058ca67d5e2db9310ca12d1e29c64f7eb23dc5f12f1c31e9058\n        /* \"val64.sol\":19205:19215  msg.sender */\n      caller\n        /* \"val64.sol\":19230:19239  msg.value */\n      callvalue\n        /* \"val64.sol\":19254:19262  msg.data */\n      0x00\n      calldatasize\n        /* \"val64.sol\":19173:19273  FallbackTriggered(... */\n      mload(0x40)\n      tag_7\n      swap5\n      swap4\n      swap3\n      swap2\n      swap1\n      tag_8\n      jump\t// in\n    tag_7:\n      mload(0x40)\n      dup1\n      swap2\n      sub\n      swap1\n      log1\n        /* \"val64.sol\":18219:19284  contract NonPayableReceiver ... */\n      stop\n        /* \"val64.sol\":18299:18321  uint256 public counter */\n    tag_3:\n      callvalue\n      dup1\n      iszero\n      tag_9\n      jumpi\n      revert(0x00, 0x00)\n    tag_9:\n      pop\n      tag_10\n      tag_11\n      jump\t// in\n    tag_10:\n      mload(0x40)\n      tag_12\n      swap2\n      swap1\n      tag_13\n      jump\t// in\n    tag_12:\n      mload(0x40)\n      dup1\n      swap2\n      sub\n      swap1\n      return\n        /* \"val64.sol\":18803:18940  function increment()... */\n    tag_4:\n      callvalue\n      dup1\n      iszero\n      tag_14\n      jumpi\n      revert(0x00, 0x00)\n    tag_14:\n      pop\n      tag_15\n      tag_16\n      jump\t// in\n    tag_15:\n      stop\n        /* \"val64.sol\":18299:18321  uint256 public counter */\n    tag_11:\n      sload(0x00)\n      dup2\n      jump\t// out\n        /* \"val64.sol\":18803:18940  function increment()... */\n    tag_16:\n        /* \"val64.sol\":18858:18865  counter */\n      0x00\n      0x00\n        /* \"val64.sol\":18858:18867  counter++ */\n      dup2\n      sload\n      dup1\n      swap3\n      swap2\n      swap1\n      tag_18\n      swap1\n      tag_19\n      jump\t// in\n    tag_18:\n      swap2\n      swap1\n      pop\n      sstore\n      pop\n        /* \"val64.sol\":18885:18932  Incremented(... */\n      0xf57bb28dda50be2d99bc97dce404fae0ecca665bba60759ec491a82e893e4fd5\n        /* \"val64.sol\":18911:18921  msg.sender */\n      caller\n        /* \"val64.sol\":18885:18932  Incremented(... */\n      mload(0x40)\n      tag_20\n      swap2\n      swap1\n      tag_21\n      jump\t// in\n    tag_20:\n      mload(0x40)\n      dup1\n      swap2\n      sub\n      swap1\n      log1\n        /* \"val64.sol\":18803:18940  function increment()... */\n      jump\t// out\n        /* \"#utility.yul\":7:133   */\n    tag_22:\n        /* \"#utility.yul\":44:51   */\n      0x00\n        /* \"#utility.yul\":84:126   */\n      0xffffffffffffffffffffffffffffffffffffffff\n        /* \"#utility.yul\":77:82   */\n      dup3\n        /* \"#utility.yul\":73:127   */\n      and\n        /* \"#utility.yul\":62:127   */\n      swap1\n      pop\n        /* \"#utility.yul\":7:133   */\n      swap2\n      swap1\n      pop\n      jump\t// out\n        /* \"#utility.yul\":139:235   */\n    tag_23:\n        /* \"#utility.yul\":176:183   */\n      0x00\n        /* \"#utility.yul\":205:229   */\n      tag_35\n        /* \"#utility.yul\":223:228   */\n      dup3\n        /* \"#utility.yul\":205:229   */\n      tag_22\n      jump\t// in\n    tag_35:\n        /* \"#utility.yul\":194:229   */\n      swap1\n      pop\n        /* \"#utility.yul\":139:235   */\n      swap2\n      swap1\n      pop\n      jump\t// out\n        /* \"#utility.yul\":241:359   */\n    tag_24:\n        /* \"#utility.yul\":328:352   */\n      tag_37\n        /* \"#utility.yul\":346:351   */\n      dup2\n        /* \"#utility.yul\":328:352   */\n      tag_23\n      jump\t// in\n    tag_37:\n        /* \"#utility.yul\":323:326   */\n      dup3\n        /* \"#utility.yul\":316:353   */\n      mstore\n        /* \"#utility.yul\":241:359   */\n      pop\n      pop\n      jump\t// out\n        /* \"#utility.yul\":365:442   */\n    tag_25:\n        /* \"#utility.yul\":402:409   */\n      0x00\n        /* \"#utility.yul\":431:436   */\n      dup2\n        /* \"#utility.yul\":420:436   */\n      swap1\n      pop\n        /* \"#utility.yul\":365:442   */\n      swap2\n      swap1\n      pop\n      jump\t// out\n        /* \"#utility.yul\":448:566   */\n    tag_26:\n        /* \"#utility.yul\":535:559   */\n      tag_40\n        /* \"#utility.yul\":553:558   */\n      dup2\n        /* \"#utility.yul\":535:559   */\n      tag_25\n      jump\t// in\n    tag_40:\n        /* \"#utility.yul\":530:533   */\n      dup3\n        /* \"#utility.yul\":523:560   */\n      mstore\n        /* \"#utility.yul\":448:566   */\n      pop\n      pop\n      jump\t// out\n        /* \"#utility.yul\":572:740   */\n    tag_27:\n        /* \"#utility.yul\":655:666   */\n      0x00\n        /* \"#utility.yul\":689:695   */\n      dup3\n        /* \"#utility.yul\":684:687   */\n      dup3\n        /* \"#utility.yul\":677:696   */\n      mstore\n        /* \"#utility.yul\":729:733   */\n      0x20\n        /* \"#utility.yul\":724:727   */\n      dup3\n        /* \"#utility.yul\":720:734   */\n      add\n        /* \"#utility.yul\":705:734   */\n      swap1\n      pop\n        /* \"#utility.yul\":572:740   */\n      swap3\n      swap2\n      pop\n      pop\n      jump\t// out\n        /* \"#utility.yul\":746:894   */\n    tag_28:\n        /* \"#utility.yul\":844:850   */\n      dup3\n        /* \"#utility.yul\":839:842   */\n      dup2\n        /* \"#utility.yul\":834:837   */\n      dup4\n        /* \"#utility.yul\":821:851   */\n      calldatacopy\n        /* \"#utility.yul\":885:886   */\n      0x00\n        /* \"#utility.yul\":876:882   */\n      dup4\n        /* \"#utility.yul\":871:874   */\n      dup4\n        /* \"#utility.yul\":867:883   */\n      add\n        /* \"#utility.yul\":860:887   */\n      mstore\n        /* \"#utility.yul\":746:894   */\n      pop\n      pop\n      pop\n      jump\t// out\n        /* \"#utility.yul\":900:1002   */\n    tag_29:\n        /* \"#utility.yul\":941:947   */\n      0x00\n        /* \"#utility.yul\":992:994   */\n      0x1f\n        /* \"#utility.yul\":988:995   */\n      not\n        /* \"#utility.yul\":983:985   */\n      0x1f\n        /* \"#utility.yul\":976:981   */\n      dup4\n        /* \"#utility.yul\":972:986   */\n      add\n        /* \"#utility.yul\":968:996   */\n      and\n        /* \"#utility.yul\":958:996   */\n      swap1\n      pop\n        /* \"#utility.yul\":900:1002   */\n      swap2\n      swap1\n      pop\n      jump\t// out\n        /* \"#utility.yul\":1030:1344   */\n    tag_30:\n        /* \"#utility.yul\":1126:1129   */\n      0x00\n        /* \"#utility.yul\":1147:1217   */\n      tag_45\n        /* \"#utility.yul\":1210:1216   */\n      dup4\n        /* \"#utility.yul\":1205:1208   */\n      dup6\n        /* \"#utility.yul\":1147:1217   */\n      tag_27\n      jump\t// in\n    tag_45:\n        /* \"#utility.yul\":1140:1217   */\n      swap4\n      pop\n        /* \"#utility.yul\":1227:1283   */\n      tag_46\n        /* \"#utility.yul\":1276:1282   */\n      dup4\n        /* \"#utility.yul\":1271:1274   */\n      dup6\n        /* \"#utility.yul\":1264:1269   */\n      dup5\n        /* \"#utility.yul\":1227:1283   */\n      tag_28\n      jump\t// in\n    tag_46:\n        /* \"#utility.yul\":1308:1337   */\n      tag_47\n        /* \"#utility.yul\":1330:1336   */\n      dup4\n        /* \"#utility.yul\":1308:1337   */\n      tag_29\n      jump\t// in\n    tag_47:\n        /* \"#utility.yul\":1303:1306   */\n      dup5\n        /* \"#utility.yul\":1299:1338   */\n      add\n        /* \"#utility.yul\":1292:1338   */\n      swap1\n      pop\n        /* \"#utility.yul\":1030:1344   */\n      swap4\n      swap3\n      pop\n      pop\n      pop\n      jump\t// out\n        /* \"#utility.yul\":1350:1899   */\n    tag_8:\n        /* \"#utility.yul\":1527:1531   */\n      0x00\n        /* \"#utility.yul\":1565:1567   */\n      0x60\n        /* \"#utility.yul\":1554:1563   */\n      dup3\n        /* \"#utility.yul\":1550:1568   */\n      add\n        /* \"#utility.yul\":1542:1568   */\n      swap1\n      pop\n        /* \"#utility.yul\":1578:1649   */\n      tag_49\n        /* \"#utility.yul\":1646:1647   */\n      0x00\n        /* \"#utility.yul\":1635:1644   */\n      dup4\n        /* \"#utility.yul\":1631:1648   */\n      add\n        /* \"#utility.yul\":1622:1628   */\n      dup8\n        /* \"#utility.yul\":1578:1649   */\n      tag_24\n      jump\t// in\n    tag_49:\n        /* \"#utility.yul\":1659:1731   */\n      tag_50\n        /* \"#utility.yul\":1727:1729   */\n      0x20\n        /* \"#utility.yul\":1716:1725   */\n      dup4\n        /* \"#utility.yul\":1712:1730   */\n      add\n        /* \"#utility.yul\":1703:1709   */\n      dup7\n        /* \"#utility.yul\":1659:1731   */\n      tag_26\n      jump\t// in\n    tag_50:\n        /* \"#utility.yul\":1778:1787   */\n      dup2\n        /* \"#utility.yul\":1772:1776   */\n      dup2\n        /* \"#utility.yul\":1768:1788   */\n      sub\n        /* \"#utility.yul\":1763:1765   */\n      0x40\n        /* \"#utility.yul\":1752:1761   */\n      dup4\n        /* \"#utility.yul\":1748:1766   */\n      add\n        /* \"#utility.yul\":1741:1789   */\n      mstore\n        /* \"#utility.yul\":1806:1892   */\n      tag_51\n        /* \"#utility.yul\":1887:1891   */\n      dup2\n        /* \"#utility.yul\":1878:1884   */\n      dup5\n        /* \"#utility.yul\":1870:1876   */\n      dup7\n        /* \"#utility.yul\":1806:1892   */\n      tag_30\n      jump\t// in\n    tag_51:\n        /* \"#utility.yul\":1798:1892   */\n      swap1\n      pop\n        /* \"#utility.yul\":1350:1899   */\n      swap6\n      swap5\n      pop\n      pop\n      pop\n      pop\n      pop\n      jump\t// out\n        /* \"#utility.yul\":1905:2127   */\n    tag_13:\n        /* \"#utility.yul\":1998:2002   */\n      0x00\n        /* \"#utility.yul\":2036:2038   */\n      0x20\n        /* \"#utility.yul\":2025:2034   */\n      dup3\n        /* \"#utility.yul\":2021:2039   */\n      add\n        /* \"#utility.yul\":2013:2039   */\n      swap1\n      pop\n        /* \"#utility.yul\":2049:2120   */\n      tag_53\n        /* \"#utility.yul\":2117:2118   */\n      0x00\n        /* \"#utility.yul\":2106:2115   */\n      dup4\n        /* \"#utility.yul\":2102:2119   */\n      add\n        /* \"#utility.yul\":2093:2099   */\n      dup5\n        /* \"#utility.yul\":2049:2120   */\n      tag_26\n      jump\t// in\n    tag_53:\n        /* \"#utility.yul\":1905:2127   */\n      swap3\n      swap2\n      pop\n      pop\n      jump\t// out\n        /* \"#utility.yul\":2133:2313   */\n    tag_31:\n        /* \"#utility.yul\":2181:2258   */\n      0x4e487b7100000000000000000000000000000000000000000000000000000000\n        /* \"#utility.yul\":2178:2179   */\n      0x00\n        /* \"#utility.yul\":2171:2259   */\n      mstore\n        /* \"#utility.yul\":2278:2282   */\n      0x11\n        /* \"#utility.yul\":2275:2276   */\n      0x04\n        /* \"#utility.yul\":2268:2283   */\n      mstore\n        /* \"#utility.yul\":2302:2306   */\n      0x24\n        /* \"#utility.yul\":2299:2300   */\n      0x00\n        /* \"#utility.yul\":2292:2307   */\n      revert\n        /* \"#utility.yul\":2319:2552   */\n    tag_19:\n        /* \"#utility.yul\":2358:2361   */\n      0x00\n        /* \"#utility.yul\":2381:2405   */\n      tag_56\n        /* \"#utility.yul\":2399:2404   */\n      dup3\n        /* \"#utility.yul\":2381:2405   */\n      tag_25\n      jump\t// in\n    tag_56:\n        /* \"#utility.yul\":2372:2405   */\n      swap2\n      pop\n        /* \"#utility.yul\":2427:2493   */\n      0xffffffffffffffffffffffffffffffffffffffffffffffffffffffffffffffff\n        /* \"#utility.yul\":2420:2425   */\n      dup3\n        /* \"#utility.yul\":2417:2494   */\n      sub\n        /* \"#utility.yul\":2414:2517   */\n      tag_57\n      jumpi\n        /* \"#utility.yul\":2497:2515   */\n      tag_58\n      tag_31\n      jump\t// in\n    tag_58:\n        /* \"#utility.yul\":2414:2517   */\n    tag_57:\n        /* \"#utility.yul\":2544:2545   */\n      0x01\n        /* \"#utility.yul\":2537:2542   */\n      dup3\n        /* \"#utility.yul\":2533:2546   */\n      add\n        /* \"#utility.yul\":2526:2546   */\n      swap1\n      pop\n        /* \"#utility.yul\":2319:2552   */\n      swap2\n      swap1\n      pop\n      jump\t// out\n        /* \"#utility.yul\":2558:2780   */\n    tag_21:\n        /* \"#utility.yul\":2651:2655   */\n      0x00\n        /* \"#utility.yul\":2689:2691   */\n      0x20\n        /* \"#utility.yul\":2678:2687   */\n      dup3\n        /* \"#utility.yul\":2674:2692   */\n      add\n        /* \"#utility.yul\":2666:2692   */\n      swap1\n      pop\n        /* \"#utility.yul\":2702:2773   */\n      tag_60\n        /* \"#utility.yul\":2770:2771   */\n      0x00\n        /* \"#utility.yul\":2759:2768   */\n      dup4\n        /* \"#utility.yul\":2755:2772   */\n      add\n        /* \"#utility.yul\":2746:2752   */\n      dup5\n        /* \"#utility.yul\":2702:2773   */\n      tag_24\n      jump\t// in\n    tag_60:\n        /* \"#utility.yul\":2558:2780   */\n      swap3\n      swap2\n      pop\n      pop\n      jump\t// out\n\n    auxdata: 0xa2646970667358221220456ccef2e50069bdbc8ab142c2159cfef847b36bef7503789370c2d5363b616164736f6c63430008220033\n}\n",
				"bytecode": {
					"linkReferences": {},
					"object": "6080604052348015600e575f5ffd5b506102cb8061001c5f395ff3fe60806040526004361061002c575f3560e01c806361bc221a1461006c578063d09de08a146100965761002d565b5b7f390f97e4a5ab8058ca67d5e2db9310ca12d1e29c64f7eb23dc5f12f1c31e905833345f3660405161006294939291906101b1565b60405180910390a1005b348015610077575f5ffd5b506100806100ac565b60405161008d91906101ef565b60405180910390f35b3480156100a1575f5ffd5b506100aa6100b1565b005b5f5481565b5f5f8154809291906100c290610235565b91905055507ff57bb28dda50be2d99bc97dce404fae0ecca665bba60759ec491a82e893e4fd5336040516100f6919061027c565b60405180910390a1565b5f73ffffffffffffffffffffffffffffffffffffffff82169050919050565b5f61012982610100565b9050919050565b6101398161011f565b82525050565b5f819050919050565b6101518161013f565b82525050565b5f82825260208201905092915050565b828183375f83830152505050565b5f601f19601f8301169050919050565b5f6101908385610157565b935061019d838584610167565b6101a683610175565b840190509392505050565b5f6060820190506101c45f830187610130565b6101d16020830186610148565b81810360408301526101e4818486610185565b905095945050505050565b5f6020820190506102025f830184610148565b92915050565b7f4e487b71000000000000000000000000000000000000000000000000000000005f52601160045260245ffd5b5f61023f8261013f565b91507fffffffffffffffffffffffffffffffffffffffffffffffffffffffffffffffff820361027157610270610208565b5b600182019050919050565b5f60208201905061028f5f830184610130565b9291505056fea2646970667358221220456ccef2e50069bdbc8ab142c2159cfef847b36bef7503789370c2d5363b616164736f6c63430008220033",
					"opcodes": "PUSH1 0x80 PUSH1 0x40 MSTORE CALLVALUE DUP1 ISZERO PUSH1 0xE JUMPI PUSH0 PUSH0 REVERT JUMPDEST POP PUSH2 0x2CB DUP1 PUSH2 0x1C PUSH0 CODECOPY PUSH0 RETURN INVALID PUSH1 0x80 PUSH1 0x40 MSTORE PUSH1 0x4 CALLDATASIZE LT PUSH2 0x2C JUMPI PUSH0 CALLDATALOAD PUSH1 0xE0 SHR DUP1 PUSH4 0x61BC221A EQ PUSH2 0x6C JUMPI DUP1 PUSH4 0xD09DE08A EQ PUSH2 0x96 JUMPI PUSH2 0x2D JUMP JUMPDEST JUMPDEST PUSH32 0x390F97E4A5AB8058CA67D5E2DB9310CA12D1E29C64F7EB23DC5F12F1C31E9058 CALLER CALLVALUE PUSH0 CALLDATASIZE PUSH1 0x40 MLOAD PUSH2 0x62 SWAP5 SWAP4 SWAP3 SWAP2 SWAP1 PUSH2 0x1B1 JUMP JUMPDEST PUSH1 0x40 MLOAD DUP1 SWAP2 SUB SWAP1 LOG1 STOP JUMPDEST CALLVALUE DUP1 ISZERO PUSH2 0x77 JUMPI PUSH0 PUSH0 REVERT JUMPDEST POP PUSH2 0x80 PUSH2 0xAC JUMP JUMPDEST PUSH1 0x40 MLOAD PUSH2 0x8D SWAP2 SWAP1 PUSH2 0x1EF JUMP JUMPDEST PUSH1 0x40 MLOAD DUP1 SWAP2 SUB SWAP1 RETURN JUMPDEST CALLVALUE DUP1 ISZERO PUSH2 0xA1 JUMPI PUSH0 PUSH0 REVERT JUMPDEST POP PUSH2 0xAA PUSH2 0xB1 JUMP JUMPDEST STOP JUMPDEST PUSH0 SLOAD DUP2 JUMP JUMPDEST PUSH0 PUSH0 DUP2 SLOAD DUP1 SWAP3 SWAP2 SWAP1 PUSH2 0xC2 SWAP1 PUSH2 0x235 JUMP JUMPDEST SWAP2 SWAP1 POP SSTORE POP PUSH32 0xF57BB28DDA50BE2D99BC97DCE404FAE0ECCA665BBA60759EC491A82E893E4FD5 CALLER PUSH1 0x40 MLOAD PUSH2 0xF6 SWAP2 SWAP1 PUSH2 0x27C JUMP JUMPDEST PUSH1 0x40 MLOAD DUP1 SWAP2 SUB SWAP1 LOG1 JUMP JUMPDEST PUSH0 PUSH20 0xFFFFFFFFFFFFFFFFFFFFFFFFFFFFFFFFFFFFFFFF DUP3 AND SWAP1 POP SWAP2 SWAP1 POP JUMP JUMPDEST PUSH0 PUSH2 0x129 DUP3 PUSH2 0x100 JUMP JUMPDEST SWAP1 POP SWAP2 SWAP1 POP JUMP JUMPDEST PUSH2 0x139 DUP2 PUSH2 0x11F JUMP JUMPDEST DUP3 MSTORE POP POP JUMP JUMPDEST PUSH0 DUP2 SWAP1 POP SWAP2 SWAP1 POP JUMP JUMPDEST PUSH2 0x151 DUP2 PUSH2 0x13F JUMP JUMPDEST DUP3 MSTORE POP POP JUMP JUMPDEST PUSH0 DUP3 DUP3 MSTORE PUSH1 0x20 DUP3 ADD SWAP1 POP SWAP3 SWAP2 POP POP JUMP JUMPDEST DUP3 DUP2 DUP4 CALLDATACOPY PUSH0 DUP4 DUP4 ADD MSTORE POP POP POP JUMP JUMPDEST PUSH0 PUSH1 0x1F NOT PUSH1 0x1F DUP4 ADD AND SWAP1 POP SWAP2 SWAP1 POP JUMP JUMPDEST PUSH0 PUSH2 0x190 DUP4 DUP6 PUSH2 0x157 JUMP JUMPDEST SWAP4 POP PUSH2 0x19D DUP4 DUP6 DUP5 PUSH2 0x167 JUMP JUMPDEST PUSH2 0x1A6 DUP4 PUSH2 0x175 JUMP JUMPDEST DUP5 ADD SWAP1 POP SWAP4 SWAP3 POP POP POP JUMP JUMPDEST PUSH0 PUSH1 0x60 DUP3 ADD SWAP1 POP PUSH2 0x1C4 PUSH0 DUP4 ADD DUP8 PUSH2 0x130 JUMP JUMPDEST PUSH2 0x1D1 PUSH1 0x20 DUP4 ADD DUP7 PUSH2 0x148 JUMP JUMPDEST DUP2 DUP2 SUB PUSH1 0x40 DUP4 ADD MSTORE PUSH2 0x1E4 DUP2 DUP5 DUP7 PUSH2 0x185 JUMP JUMPDEST SWAP1 POP SWAP6 SWAP5 POP POP POP POP POP JUMP JUMPDEST PUSH0 PUSH1 0x20 DUP3 ADD SWAP1 POP PUSH2 0x202 PUSH0 DUP4 ADD DUP5 PUSH2 0x148 JUMP JUMPDEST SWAP3 SWAP2 POP POP JUMP JUMPDEST PUSH32 0x4E487B7100000000000000000000000000000000000000000000000000000000 PUSH0 MSTORE PUSH1 0x11 PUSH1 0x4 MSTORE PUSH1 0x24 PUSH0 REVERT JUMPDEST PUSH0 PUSH2 0x23F DUP3 PUSH2 0x13F JUMP JUMPDEST SWAP2 POP PUSH32 0xFFFFFFFFFFFFFFFFFFFFFFFFFFFFFFFFFFFFFFFFFFFFFFFFFFFFFFFFFFFFFFFF DUP3 SUB PUSH2 0x271 JUMPI PUSH2 0x270 PUSH2 0x208 JUMP JUMPDEST JUMPDEST PUSH1 0x1 DUP3 ADD SWAP1 POP SWAP2 SWAP1 POP JUMP JUMPDEST PUSH0 PUSH1 0x20 DUP3 ADD SWAP1 POP PUSH2 0x28F PUSH0 DUP4 ADD DUP5 PUSH2 0x130 JUMP JUMPDEST SWAP3 SWAP2 POP POP JUMP INVALID LOG2 PUSH5 0x6970667358 0x22 SLT KECCAK256 GASLIMIT PUSH13 0xCEF2E50069BDBC8AB142C2159C INVALID EXTCALL SELFBALANCE 0xB3 PUSH12 0xEF7503789370C2D5363B6161 PUSH5 0x736F6C6343 STOP ADDMOD 0x22 STOP CALLER "
				},
				"gasEstimates": {
					"creation": {
						"codeDepositCost": "143000",
						"executionCost": "188",
						"totalCost": "143188"
					},
					"external": {
						"": "infinite",
						"counter()": "2402",
						"increment()": "25731"
					}
				},
				"methodIdentifiers": {
					"counter()": "61bc221a",
					"increment()": "d09de08a"
				}
			},
			"storageLayout": {
				"storage": [
					{
						"astId": 98,
						"contract": "val64.sol:NonPayableReceiver",
						"label": "counter",
						"offset": 0,
						"slot": "0",
						"type": "t_uint256"
					}
				],
				"types": {
					"t_uint256": {
						"encoding": "inplace",
						"label": "uint256",
						"numberOfBytes": "32"
					}
				}
			},
			"userdoc": {
				"kind": "user",
				"methods": {},
				"version": 1
			}
		}
	}
}