{
	"val64.sol": {
		"ETHSenderval": {
			"abi": [
				{
					"inputs": [],
					"name": "contractBalance",
					"outputs": [
						{
							"internalType": "uint256",
							"name": "",
							"type": "uint256"
						}
					],
					"stateMutability": "view",
					"type": "function"
				},
				{
					"inputs": [
						{
							"internalType": "address payable",
							"name": "_receiver",
							"type": "address"
						}
					],
					"name": "dangerousSend",
					"outputs": [],
					"stateMutability": "payable",
					"type": "function"
				},
				{
					"inputs": [],
					"name": "lastSuccess",
					"outputs": [
						{
							"internalType": "bool",
							"name": "",
							"type": "bool"
						}
					],
					"stateMutability": "view",
					"type": "function"
				},
				{
					"inputs": [
						{
							"internalType": "address payable",
							"name": "_receiver",
							"type": "address"
						}
					],
					"name": "sendETH",
					"outputs": [],
					"stateMutability": "payable",
					"type": "function"
				},
				{
					"inputs": [],
					"name": "totalSent",
					"outputs": [
						{
							"internalType": "uint256",
							"name": "",
							"type": "uint256"
						}
					],
					"stateMutability": "view",
					"type": "function"
				}
			],
			"devdoc": {
				"kind": "dev",
				"methods": {},
				"version": 1
			},
			"evm": {
				"assembly": "    /* \"val64.sol\":3204:5112  contract ETHSenderval {... */\n  mstore(0x40, 0x80)\n  callvalue\n  dup1\n  iszero\n  tag_1\n  jumpi\n  revert(0x00, 0x00)\ntag_1:\n  pop\n  dataSize(sub_0)\n  dup1\n  dataOffset(sub_0)\n  0x00\n  codecopy\n  0x00\n  return\nstop\n\nsub_0: assembly {\n        /* \"val64.sol\":3204:5112  contract ETHSenderval {... */\n      mstore(0x40, 0x80)\n      jumpi(tag_1, lt(calldatasize, 0x04))\n      shr(0xe0, calldataload(0x00))\n      dup1\n      0x21b1e5f8\n      eq\n      tag_2\n      jumpi\n      dup1\n      0x41456ddb\n      eq\n      tag_3\n      jumpi\n      dup1\n      0x46f99063\n      eq\n      tag_4\n      jumpi\n      dup1\n      0x8b7afe2e\n      eq\n      tag_5\n      jumpi\n      dup1\n      0x9415bc59\n      eq\n      tag_6\n      jumpi\n    tag_1:\n      revert(0x00, 0x00)\n        /* \"val64.sol\":3542:4212  function sendETH(... */\n    tag_2:\n      tag_7\n      0x04\n      dup1\n      calldatasize\n      sub\n      dup2\n      add\n      swap1\n      tag_8\n      swap2\n      swap1\n      tag_9\n      jump\t// in\n    tag_8:\n      tag_10\n      jump\t// in\n    tag_7:\n      stop\n        /* \"val64.sol\":4408:4797  function dangerousSend(... */\n    tag_3:\n      tag_11\n      0x04\n      dup1\n      calldatasize\n      sub\n      dup2\n      add\n      swap1\n      tag_12\n      swap2\n      swap1\n      tag_9\n      jump\t// in\n    tag_12:\n      tag_13\n      jump\t// in\n    tag_11:\n      stop\n        /* \"val64.sol\":3352:3376  uint256 public totalSent */\n    tag_4:\n      callvalue\n      dup1\n      iszero\n      tag_14\n      jumpi\n      revert(0x00, 0x00)\n    tag_14:\n      pop\n      tag_15\n      tag_16\n      jump\t// in\n    tag_15:\n      mload(0x40)\n      tag_17\n      swap2\n      swap1\n      tag_18\n      jump\t// in\n    tag_17:\n      mload(0x40)\n      dup1\n      swap2\n      sub\n      swap1\n      return\n        /* \"val64.sol\":4969:5109  function contractBalance()... */\n    tag_5:\n      callvalue\n      dup1\n      iszero\n      tag_19\n      jumpi\n      revert(0x00, 0x00)\n    tag_19:\n      pop\n      tag_20\n      tag_21\n      jump\t// in\n    tag_20:\n      mload(0x40)\n      tag_22\n      swap2\n      swap1\n      tag_18\n      jump\t// in\n    tag_22:\n      mload(0x40)\n      dup1\n      swap2\n      sub\n      swap1\n      return\n        /* \"val64.sol\":3278:3301  bool public lastSuccess */\n    tag_6:\n      callvalue\n      dup1\n      iszero\n      tag_23\n      jumpi\n      revert(0x00, 0x00)\n    tag_23:\n      pop\n      tag_24\n      tag_25\n      jump\t// in\n    tag_24:\n      mload(0x40)\n      tag_26\n      swap2\n      swap1\n      tag_27\n      jump\t// in\n    tag_26:\n      mload(0x40)\n      dup1\n      swap2\n      sub\n      swap1\n      return\n        /* \"val64.sol\":3542:4212  function sendETH(... */\n    tag_10:\n        /* \"val64.sol\":3728:3740  bool success */\n      0x00\n        /* \"val64.sol\":3759:3768  _receiver */\n      dup2\n        /* \"val64.sol\":3759:3773  _receiver.call */\n      0xffffffffffffffffffffffffffffffffffffffff\n      and\n        /* \"val64.sol\":3799:3808  msg.value */\n      callvalue\n        /* \"val64.sol\":3759:3827  _receiver.call{... */\n      mload(0x40)\n      tag_29\n      swap1\n      tag_30\n      jump\t// in\n    tag_29:\n      0x00\n      mload(0x40)\n      dup1\n      dup4\n      sub\n      dup2\n      dup6\n      dup8\n      gas\n      call\n      swap3\n      pop\n      pop\n      pop\n      returndatasize\n      dup1\n      0x00\n      dup2\n      eq\n      tag_33\n      jumpi\n      mload(0x40)\n      swap2\n      pop\n      and(add(returndatasize, 0x3f), not(0x1f))\n      dup3\n      add\n      0x40\n      mstore\n      returndatasize\n      dup3\n      mstore\n      returndatasize\n      0x00\n      0x20\n      dup5\n      add\n      returndatacopy\n      jump(tag_32)\n    tag_33:\n      0x60\n      swap2\n      pop\n    tag_32:\n      pop\n        /* \"val64.sol\":3727:3827  (bool success, ) =... */\n      pop\n      swap1\n      pop\n        /* \"val64.sol\":3904:3911  success */\n      dup1\n        /* \"val64.sol\":3890:3901  lastSuccess */\n      0x00\n      0x00\n        /* \"val64.sol\":3890:3911  lastSuccess = success */\n      0x0100\n      exp\n      dup2\n      sload\n      dup2\n      0xff\n      mul\n      not\n      and\n      swap1\n      dup4\n      iszero\n      iszero\n      mul\n      or\n      swap1\n      sstore\n      pop\n        /* \"val64.sol\":4040:4047  success */\n      dup1\n        /* \"val64.sol\":4018:4094  require(... */\n      tag_34\n      jumpi\n      mload(0x40)\n      0x08c379a000000000000000000000000000000000000000000000000000000000\n      dup2\n      mstore\n      0x04\n      add\n      tag_35\n      swap1\n      tag_36\n      jump\t// in\n    tag_35:\n      mload(0x40)\n      dup1\n      swap2\n      sub\n      swap1\n      revert\n    tag_34:\n        /* \"val64.sol\":4195:4204  msg.value */\n      callvalue\n        /* \"val64.sol\":4182:4191  totalSent */\n      0x01\n      0x00\n        /* \"val64.sol\":4182:4204  totalSent += msg.value */\n      dup3\n      dup3\n      sload\n      tag_37\n      swap2\n      swap1\n      tag_38\n      jump\t// in\n    tag_37:\n      swap3\n      pop\n      pop\n      dup2\n      swap1\n      sstore\n      pop\n        /* \"val64.sol\":3642:4212  {... */\n      pop\n        /* \"val64.sol\":3542:4212  function sendETH(... */\n      pop\n      jump\t// out\n        /* \"val64.sol\":4408:4797  function dangerousSend(... */\n    tag_13:\n        /* \"val64.sol\":4586:4595  _receiver */\n      dup1\n        /* \"val64.sol\":4586:4600  _receiver.call */\n      0xffffffffffffffffffffffffffffffffffffffff\n      and\n        /* \"val64.sol\":4622:4631  msg.value */\n      callvalue\n        /* \"val64.sol\":4586:4646  _receiver.call{... */\n      mload(0x40)\n      tag_40\n      swap1\n      tag_30\n      jump\t// in\n    tag_40:\n      0x00\n      mload(0x40)\n      dup1\n      dup4\n      sub\n      dup2\n      dup6\n      dup8\n      gas\n      call\n      swap3\n      pop\n      pop\n      pop\n      returndatasize\n      dup1\n      0x00\n      dup2\n      eq\n      tag_43\n      jumpi\n      mload(0x40)\n      swap2\n      pop\n      and(add(returndatasize, 0x3f), not(0x1f))\n      dup3\n      add\n      0x40\n      mstore\n      returndatasize\n      dup3\n      mstore\n      returndatasize\n      0x00\n      0x20\n      dup5\n      add\n      returndatacopy\n      jump(tag_42)\n    tag_43:\n      0x60\n      swap2\n      pop\n    tag_42:\n      pop\n      pop\n      pop\n        /* \"val64.sol\":4780:4789  msg.value */\n      callvalue\n        /* \"val64.sol\":4767:4776  totalSent */\n      0x01\n      0x00\n        /* \"val64.sol\":4767:4789  totalSent += msg.value */\n      dup3\n      dup3\n      sload\n      tag_44\n      swap2\n      swap1\n      tag_38\n      jump\t// in\n    tag_44:\n      swap3\n      pop\n      pop\n      dup2\n      swap1\n      sstore\n      pop\n        /* \"val64.sol\":4408:4797  function dangerousSend(... */\n      pop\n      jump\t// out\n        /* \"val64.sol\":3352:3376  uint256 public totalSent */\n    tag_16:\n      sload(0x01)\n      dup2\n      jump\t// out\n        /* \"val64.sol\":4969:5109  function contractBalance()... */\n    tag_21:\n        /* \"val64.sol\":5046:5053  uint256 */\n      0x00\n        /* \"val64.sol\":5080:5101  address(this).balance */\n      selfbalance\n        /* \"val64.sol\":5073:5101  return address(this).balance */\n      swap1\n      pop\n        /* \"val64.sol\":4969:5109  function contractBalance()... */\n      swap1\n      jump\t// out\n        /* \"val64.sol\":3278:3301  bool public lastSuccess */\n    tag_25:\n      0x00\n      0x00\n      swap1\n      sload\n      swap1\n      0x0100\n      exp\n      swap1\n      div\n      0xff\n      and\n      dup2\n      jump\t// out\n        /* \"#utility.yul\":88:205   */\n    tag_47:\n        /* \"#utility.yul\":197:198   */\n      0x00\n        /* \"#utility.yul\":194:195   */\n      0x00\n        /* \"#utility.yul\":187:199   */\n      revert\n        /* \"#utility.yul\":334:460   */\n    tag_49:\n        /* \"#utility.yul\":371:378   */\n      0x00\n        /* \"#utility.yul\":411:453   */\n      0xffffffffffffffffffffffffffffffffffffffff\n        /* \"#utility.yul\":404:409   */\n      dup3\n        /* \"#utility.yul\":400:454   */\n      and\n        /* \"#utility.yul\":389:454   */\n      swap1\n      pop\n        /* \"#utility.yul\":334:460   */\n      swap2\n      swap1\n      pop\n      jump\t// out\n        /* \"#utility.yul\":466:570   */\n    tag_50:\n        /* \"#utility.yul\":511:518   */\n      0x00\n        /* \"#utility.yul\":540:564   */\n      tag_70\n        /* \"#utility.yul\":558:563   */\n      dup3\n        /* \"#utility.yul\":540:564   */\n      tag_49\n      jump\t// in\n    tag_70:\n        /* \"#utility.yul\":529:564   */\n      swap1\n      pop\n        /* \"#utility.yul\":466:570   */\n      swap2\n      swap1\n      pop\n      jump\t// out\n        /* \"#utility.yul\":576:714   */\n    tag_51:\n        /* \"#utility.yul\":657:689   */\n      tag_72\n        /* \"#utility.yul\":683:688   */\n      dup2\n        /* \"#utility.yul\":657:689   */\n      tag_50\n      jump\t// in\n    tag_72:\n        /* \"#utility.yul\":650:655   */\n      dup2\n        /* \"#utility.yul\":647:690   */\n      eq\n        /* \"#utility.yul\":637:708   */\n      tag_73\n      jumpi\n        /* \"#utility.yul\":704:705   */\n      0x00\n        /* \"#utility.yul\":701:702   */\n      0x00\n        /* \"#utility.yul\":694:706   */\n      revert\n        /* \"#utility.yul\":637:708   */\n    tag_73:\n        /* \"#utility.yul\":576:714   */\n      pop\n      jump\t// out\n        /* \"#utility.yul\":720:875   */\n    tag_52:\n        /* \"#utility.yul\":774:779   */\n      0x00\n        /* \"#utility.yul\":812:818   */\n      dup2\n        /* \"#utility.yul\":799:819   */\n      calldataload\n        /* \"#utility.yul\":790:819   */\n      swap1\n      pop\n        /* \"#utility.yul\":828:869   */\n      tag_75\n        /* \"#utility.yul\":863:868   */\n      dup2\n        /* \"#utility.yul\":828:869   */\n      tag_51\n      jump\t// in\n    tag_75:\n        /* \"#utility.yul\":720:875   */\n      swap3\n      swap2\n      pop\n      pop\n      jump\t// out\n        /* \"#utility.yul\":881:1226   */\n    tag_9:\n        /* \"#utility.yul\":948:954   */\n      0x00\n        /* \"#utility.yul\":997:999   */\n      0x20\n        /* \"#utility.yul\":985:994   */\n      dup3\n        /* \"#utility.yul\":976:983   */\n      dup5\n        /* \"#utility.yul\":972:995   */\n      sub\n        /* \"#utility.yul\":968:1000   */\n      slt\n        /* \"#utility.yul\":965:1084   */\n      iszero\n      tag_77\n      jumpi\n        /* \"#utility.yul\":1003:1082   */\n      tag_78\n      tag_47\n      jump\t// in\n    tag_78:\n        /* \"#utility.yul\":965:1084   */\n    tag_77:\n        /* \"#utility.yul\":1123:1124   */\n      0x00\n        /* \"#utility.yul\":1148:1209   */\n      tag_79\n        /* \"#utility.yul\":1201:1208   */\n      dup5\n        /* \"#utility.yul\":1192:1198   */\n      dup3\n        /* \"#utility.yul\":1181:1190   */\n      dup6\n        /* \"#utility.yul\":1177:1199   */\n      add\n        /* \"#utility.yul\":1148:1209   */\n      tag_52\n      jump\t// in\n    tag_79:\n        /* \"#utility.yul\":1138:1209   */\n      swap2\n      pop\n        /* \"#utility.yul\":1094:1219   */\n      pop\n        /* \"#utility.yul\":881:1226   */\n      swap3\n      swap2\n      pop\n      pop\n      jump\t// out\n        /* \"#utility.yul\":1232:1309   */\n    tag_53:\n        /* \"#utility.yul\":1269:1276   */\n      0x00\n        /* \"#utility.yul\":1298:1303   */\n      dup2\n        /* \"#utility.yul\":1287:1303   */\n      swap1\n      pop\n        /* \"#utility.yul\":1232:1309   */\n      swap2\n      swap1\n      pop\n      jump\t// out\n        /* \"#utility.yul\":1315:1433   */\n    tag_54:\n        /* \"#utility.yul\":1402:1426   */\n      tag_82\n        /* \"#utility.yul\":1420:1425   */\n      dup2\n        /* \"#utility.yul\":1402:1426   */\n      tag_53\n      jump\t// in\n    tag_82:\n        /* \"#utility.yul\":1397:1400   */\n      dup3\n        /* \"#utility.yul\":1390:1427   */\n      mstore\n        /* \"#utility.yul\":1315:1433   */\n      pop\n      pop\n      jump\t// out\n        /* \"#utility.yul\":1439:1661   */\n    tag_18:\n        /* \"#utility.yul\":1532:1536   */\n      0x00\n        /* \"#utility.yul\":1570:1572   */\n      0x20\n        /* \"#utility.yul\":1559:1568   */\n      dup3\n        /* \"#utility.yul\":1555:1573   */\n      add\n        /* \"#utility.yul\":1547:1573   */\n      swap1\n      pop\n        /* \"#utility.yul\":1583:1654   */\n      tag_84\n        /* \"#utility.yul\":1651:1652   */\n      0x00\n        /* \"#utility.yul\":1640:1649   */\n      dup4\n        /* \"#utility.yul\":1636:1653   */\n      add\n        /* \"#utility.yul\":1627:1633   */\n      dup5\n        /* \"#utility.yul\":1583:1654   */\n      tag_54\n      jump\t// in\n    tag_84:\n        /* \"#utility.yul\":1439:1661   */\n      swap3\n      swap2\n      pop\n      pop\n      jump\t// out\n        /* \"#utility.yul\":1667:1757   */\n    tag_55:\n        /* \"#utility.yul\":1701:1708   */\n      0x00\n        /* \"#utility.yul\":1744:1749   */\n      dup2\n        /* \"#utility.yul\":1737:1750   */\n      iszero\n        /* \"#utility.yul\":1730:1751   */\n      iszero\n        /* \"#utility.yul\":1719:1751   */\n      swap1\n      pop\n        /* \"#utility.yul\":1667:1757   */\n      swap2\n      swap1\n      pop\n      jump\t// out\n        /* \"#utility.yul\":1763:1872   */\n    tag_56:\n        /* \"#utility.yul\":1844:1865   */\n      tag_87\n        /* \"#utility.yul\":1859:1864   */\n      dup2\n        /* \"#utility.yul\":1844:1865   */\n      tag_55\n      jump\t// in\n    tag_87:\n        /* \"#utility.yul\":1839:1842   */\n      dup3\n        /* \"#utility.yul\":1832:1866   */\n      mstore\n        /* \"#utility.yul\":1763:1872   */\n      pop\n      pop\n      jump\t// out\n        /* \"#utility.yul\":1878:2088   */\n    tag_27:\n        /* \"#utility.yul\":1965:1969   */\n      0x00\n        /* \"#utility.yul\":2003:2005   */\n      0x20\n        /* \"#utility.yul\":1992:2001   */\n      dup3\n        /* \"#utility.yul\":1988:2006   */\n      add\n        /* \"#utility.yul\":1980:2006   */\n      swap1\n      pop\n        /* \"#utility.yul\":2016:2081   */\n      tag_89\n        /* \"#utility.yul\":2078:2079   */\n      0x00\n        /* \"#utility.yul\":2067:2076   */\n      dup4\n        /* \"#utility.yul\":2063:2080   */\n      add\n        /* \"#utility.yul\":2054:2060   */\n      dup5\n        /* \"#utility.yul\":2016:2081   */\n      tag_56\n      jump\t// in\n    tag_89:\n        /* \"#utility.yul\":1878:2088   */\n      swap3\n      swap2\n      pop\n      pop\n      jump\t// out\n        /* \"#utility.yul\":2094:2241   */\n    tag_57:\n        /* \"#utility.yul\":2195:2206   */\n      0x00\n        /* \"#utility.yul\":2232:2235   */\n      dup2\n        /* \"#utility.yul\":2217:2235   */\n      swap1\n      pop\n        /* \"#utility.yul\":2094:2241   */\n      swap3\n      swap2\n      pop\n      pop\n      jump\t// out\n        /* \"#utility.yul\":2247:2361   */\n    tag_58:\n      pop\n      jump\t// out\n        /* \"#utility.yul\":2367:2765   */\n    tag_59:\n        /* \"#utility.yul\":2526:2529   */\n      0x00\n        /* \"#utility.yul\":2547:2630   */\n      tag_93\n        /* \"#utility.yul\":2628:2629   */\n      0x00\n        /* \"#utility.yul\":2623:2626   */\n      dup4\n        /* \"#utility.yul\":2547:2630   */\n      tag_57\n      jump\t// in\n    tag_93:\n        /* \"#utility.yul\":2540:2630   */\n      swap2\n      pop\n        /* \"#utility.yul\":2639:2732   */\n      tag_94\n        /* \"#utility.yul\":2728:2731   */\n      dup3\n        /* \"#utility.yul\":2639:2732   */\n      tag_58\n      jump\t// in\n    tag_94:\n        /* \"#utility.yul\":2757:2758   */\n      0x00\n        /* \"#utility.yul\":2752:2755   */\n      dup3\n        /* \"#utility.yul\":2748:2759   */\n      add\n        /* \"#utility.yul\":2741:2759   */\n      swap1\n      pop\n        /* \"#utility.yul\":2367:2765   */\n      swap2\n      swap1\n      pop\n      jump\t// out\n        /* \"#utility.yul\":2771:3150   */\n    tag_30:\n        /* \"#utility.yul\":2955:2958   */\n      0x00\n        /* \"#utility.yul\":2977:3124   */\n      tag_96\n        /* \"#utility.yul\":3120:3123   */\n      dup3\n        /* \"#utility.yul\":2977:3124   */\n      tag_59\n      jump\t// in\n    tag_96:\n        /* \"#utility.yul\":2970:3124   */\n      swap2\n      pop\n        /* \"#utility.yul\":3141:3144   */\n      dup2\n        /* \"#utility.yul\":3134:3144   */\n      swap1\n      pop\n        /* \"#utility.yul\":2771:3150   */\n      swap2\n      swap1\n      pop\n      jump\t// out\n        /* \"#utility.yul\":3156:3325   */\n    tag_60:\n        /* \"#utility.yul\":3240:3251   */\n      0x00\n        /* \"#utility.yul\":3274:3280   */\n      dup3\n        /* \"#utility.yul\":3269:3272   */\n      dup3\n        /* \"#utility.yul\":3262:3281   */\n      mstore\n        /* \"#utility.yul\":3314:3318   */\n      0x20\n        /* \"#utility.yul\":3309:3312   */\n      dup3\n        /* \"#utility.yul\":3305:3319   */\n      add\n        /* \"#utility.yul\":3290:3319   */\n      swap1\n      pop\n        /* \"#utility.yul\":3156:3325   */\n      swap3\n      swap2\n      pop\n      pop\n      jump\t// out\n        /* \"#utility.yul\":3331:3500   */\n    tag_61:\n        /* \"#utility.yul\":3471:3492   */\n      0x455448207472616e73666572206661696c656400000000000000000000000000\n        /* \"#utility.yul\":3467:3468   */\n      0x00\n        /* \"#utility.yul\":3459:3465   */\n      dup3\n        /* \"#utility.yul\":3455:3469   */\n      add\n        /* \"#utility.yul\":3448:3493   */\n      mstore\n        /* \"#utility.yul\":3331:3500   */\n      pop\n      jump\t// out\n        /* \"#utility.yul\":3506:3872   */\n    tag_62:\n        /* \"#utility.yul\":3648:3651   */\n      0x00\n        /* \"#utility.yul\":3669:3736   */\n      tag_100\n        /* \"#utility.yul\":3733:3735   */\n      0x13\n        /* \"#utility.yul\":3728:3731   */\n      dup4\n        /* \"#utility.yul\":3669:3736   */\n      tag_60\n      jump\t// in\n    tag_100:\n        /* \"#utility.yul\":3662:3736   */\n      swap2\n      pop\n        /* \"#utility.yul\":3745:3838   */\n      tag_101\n        /* \"#utility.yul\":3834:3837   */\n      dup3\n        /* \"#utility.yul\":3745:3838   */\n      tag_61\n      jump\t// in\n    tag_101:\n        /* \"#utility.yul\":3863:3865   */\n      0x20\n        /* \"#utility.yul\":3858:3861   */\n      dup3\n        /* \"#utility.yul\":3854:3866   */\n      add\n        /* \"#utility.yul\":3847:3866   */\n      swap1\n      pop\n        /* \"#utility.yul\":3506:3872   */\n      swap2\n      swap1\n      pop\n      jump\t// out\n        /* \"#utility.yul\":3878:4297   */\n    tag_36:\n        /* \"#utility.yul\":4044:4048   */\n      0x00\n        /* \"#utility.yul\":4082:4084   */\n      0x20\n        /* \"#utility.yul\":4071:4080   */\n      dup3\n        /* \"#utility.yul\":4067:4085   */\n      add\n        /* \"#utility.yul\":4059:4085   */\n      swap1\n      pop\n        /* \"#utility.yul\":4131:4140   */\n      dup2\n        /* \"#utility.yul\":4125:4129   */\n      dup2\n        /* \"#utility.yul\":4121:4141   */\n      sub\n        /* \"#utility.yul\":4117:4118   */\n      0x00\n        /* \"#utility.yul\":4106:4115   */\n      dup4\n        /* \"#utility.yul\":4102:4119   */\n      add\n        /* \"#utility.yul\":4095:4142   */\n      mstore\n        /* \"#utility.yul\":4159:4290   */\n      tag_103\n        /* \"#utility.yul\":4285:4289   */\n      dup2\n        /* \"#utility.yul\":4159:4290   */\n      tag_62\n      jump\t// in\n    tag_103:\n        /* \"#utility.yul\":4151:4290   */\n      swap1\n      pop\n        /* \"#utility.yul\":3878:4297   */\n      swap2\n      swap1\n      pop\n      jump\t// out\n        /* \"#utility.yul\":4303:4483   */\n    tag_63:\n        /* \"#utility.yul\":4351:4428   */\n      0x4e487b7100000000000000000000000000000000000000000000000000000000\n        /* \"#utility.yul\":4348:4349   */\n      0x00\n        /* \"#utility.yul\":4341:4429   */\n      mstore\n        /* \"#utility.yul\":4448:4452   */\n      0x11\n        /* \"#utility.yul\":4445:4446   */\n      0x04\n        /* \"#utility.yul\":4438:4453   */\n      mstore\n        /* \"#utility.yul\":4472:4476   */\n      0x24\n        /* \"#utility.yul\":4469:4470   */\n      0x00\n        /* \"#utility.yul\":4462:4477   */\n      revert\n        /* \"#utility.yul\":4489:4680   */\n    tag_38:\n        /* \"#utility.yul\":4529:4532   */\n      0x00\n        /* \"#utility.yul\":4548:4568   */\n      tag_106\n        /* \"#utility.yul\":4566:4567   */\n      dup3\n        /* \"#utility.yul\":4548:4568   */\n      tag_53\n      jump\t// in\n    tag_106:\n        /* \"#utility.yul\":4543:4568   */\n      swap2\n      pop\n        /* \"#utility.yul\":4582:4602   */\n      tag_107\n        /* \"#utility.yul\":4600:4601   */\n      dup4\n        /* \"#utility.yul\":4582:4602   */\n      tag_53\n      jump\t// in\n    tag_107:\n        /* \"#utility.yul\":4577:4602   */\n      swap3\n      pop\n        /* \"#utility.yul\":4625:4626   */\n      dup3\n        /* \"#utility.yul\":4622:4623   */\n      dup3\n        /* \"#utility.yul\":4618:4627   */\n      add\n        /* \"#utility.yul\":4611:4627   */\n      swap1\n      pop\n        /* \"#utility.yul\":4646:4649   */\n      dup1\n        /* \"#utility.yul\":4643:4644   */\n      dup3\n        /* \"#utility.yul\":4640:4650   */\n      gt\n        /* \"#utility.yul\":4637:4673   */\n      iszero\n      tag_108\n      jumpi\n        /* \"#utility.yul\":4653:4671   */\n      tag_109\n      tag_63\n      jump\t// in\n    tag_109:\n        /* \"#utility.yul\":4637:4673   */\n    tag_108:\n        /* \"#utility.yul\":4489:4680   */\n      swap3\n      swap2\n      pop\n      pop\n      jump\t// out\n\n    auxdata: 0xa26469706673582212205a1348d518388793ba1c99aecad8f377e7532368fc25a372ff7be4386db05b0b64736f6c63430008220033\n}\n",
				"bytecode": {
					"linkReferences": {},
					"object": "6080604052348015600e575f5ffd5b506104ba8061001c5f395ff3fe608060405260043610610049575f3560e01c806321b1e5f81461004d57806341456ddb1461006957806346f99063146100855780638b7afe2e146100af5780639415bc59146100d9575b5f5ffd5b610067600480360381019061006291906102dc565b610103565b005b610083600480360381019061007e91906102dc565b6101df565b005b348015610090575f5ffd5b50610099610260565b6040516100a6919061031f565b60405180910390f35b3480156100ba575f5ffd5b506100c3610266565b6040516100d0919061031f565b60405180910390f35b3480156100e4575f5ffd5b506100ed61026d565b6040516100fa9190610352565b60405180910390f35b5f8173ffffffffffffffffffffffffffffffffffffffff163460405161012890610398565b5f6040518083038185875af1925050503d805f8114610162576040519150601f19603f3d011682016040523d82523d5f602084013e610167565b606091505b50509050805f5f6101000a81548160ff021916908315150217905550806101c3576040517f08c379a00000000000000000000000000000000000000000000000000000000081526004016101ba90610406565b60405180910390fd5b3460015f8282546101d49190610451565b925050819055505050565b8073ffffffffffffffffffffffffffffffffffffffff163460405161020390610398565b5f6040518083038185875af1925050503d805f811461023d576040519150601f19603f3d011682016040523d82523d5f602084013e610242565b606091505b5050503460015f8282546102569190610451565b9250508190555050565b60015481565b5f47905090565b5f5f9054906101000a900460ff1681565b5f5ffd5b5f73ffffffffffffffffffffffffffffffffffffffff82169050919050565b5f6102ab82610282565b9050919050565b6102bb816102a1565b81146102c5575f5ffd5b50565b5f813590506102d6816102b2565b92915050565b5f602082840312156102f1576102f061027e565b5b5f6102fe848285016102c8565b91505092915050565b5f819050919050565b61031981610307565b82525050565b5f6020820190506103325f830184610310565b92915050565b5f8115159050919050565b61034c81610338565b82525050565b5f6020820190506103655f830184610343565b92915050565b5f81905092915050565b50565b5f6103835f8361036b565b915061038e82610375565b5f82019050919050565b5f6103a282610378565b9150819050919050565b5f82825260208201905092915050565b7f455448207472616e73666572206661696c6564000000000000000000000000005f82015250565b5f6103f06013836103ac565b91506103fb826103bc565b602082019050919050565b5f6020820190508181035f83015261041d816103e4565b9050919050565b7f4e487b71000000000000000000000000000000000000000000000000000000005f52601160045260245ffd5b5f61045b82610307565b915061046683610307565b925082820190508082111561047e5761047d610424565b5b9291505056fea26469706673582212205a1348d518388793ba1c99aecad8f377e7532368fc25a372ff7be4386db05b0b64736f6c63430008220033",
					"opcodes": "PUSH1 0x80 PUSH1 0x40 MSTORE CALLVALUE DUP1 ISZERO PUSH1 0xE JUMPI PUSH0 PUSH0 REVERT JUMPDEST POP PUSH2 0x4BA DUP1 PUSH2 0x1C PUSH0 CODECOPY PUSH0 RETURN INVALID PUSH1 0x80 PUSH1 0x40 MSTORE PUSH1 0x4 CALLDATASIZE LT PUSH2 0x49 JUMPI PUSH0 CALLDATALOAD PUSH1 0xE0 SHR DUP1 PUSH4 0x21B1E5F8 EQ PUSH2 0x4D JUMPI DUP1 PUSH4 0x41456DDB EQ PUSH2 0x69 JUMPI DUP1 PUSH4 0x46F99063 EQ PUSH2 0x85 JUMPI DUP1 PUSH4 0x8B7AFE2E EQ PUSH2 0xAF JUMPI DUP1 PUSH4 0x9415BC59 EQ PUSH2 0xD9 JUMPI JUMPDEST PUSH0 PUSH0 REVERT JUMPDEST PUSH2 0x67 PUSH1 0x4 DUP1 CALLDATASIZE SUB DUP2 ADD SWAP1 PUSH2 0x62 SWAP2 SWAP1 PUSH2 0x2DC JUMP JUMPDEST PUSH2 0x103 JUMP JUMPDEST STOP JUMPDEST PUSH2 0x83 PUSH1 0x4 DUP1 CALLDATASIZE SUB DUP2 ADD SWAP1 PUSH2 0x7E SWAP2 SWAP1 PUSH2 0x2DC JUMP JUMPDEST PUSH2 0x1DF JUMP JUMPDEST STOP JUMPDEST CALLVALUE DUP1 ISZERO PUSH2 0x90 JUMPI PUSH0 PUSH0 REVERT JUMPDEST POP PUSH2 0x99 PUSH2 0x260 JUMP JUMPDEST PUSH1 0x40 MLOAD PUSH2 0xA6 SWAP2 SWAP1 PUSH2 0x31F JUMP JUMPDEST PUSH1 0x40 MLOAD DUP1 SWAP2 SUB SWAP1 RETURN JUMPDEST CALLVALUE DUP1 ISZERO PUSH2 0xBA JUMPI PUSH0 PUSH0 REVERT JUMPDEST POP PUSH2 0xC3 PUSH2 0x266 JUMP JUMPDEST PUSH1 0x40 MLOAD PUSH2 0xD0 SWAP2 SWAP1 PUSH2 0x31F JUMP JUMPDEST PUSH1 0x40 MLOAD DUP1 SWAP2 SUB SWAP1 RETURN JUMPDEST CALLVALUE DUP1 ISZERO PUSH2 0xE4 JUMPI PUSH0 PUSH0 REVERT JUMPDEST POP PUSH2 0xED PUSH2 0x26D JUMP JUMPDEST PUSH1 0x40 MLOAD PUSH2 0xFA SWAP2 SWAP1 PUSH2 0x352 JUMP JUMPDEST PUSH1 0x40 MLOAD DUP1 SWAP2 SUB SWAP1 RETURN JUMPDEST PUSH0 DUP2 PUSH20 0xFFFFFFFFFFFFFFFFFFFFFFFFFFFFFFFFFFFFFFFF AND CALLVALUE PUSH1 0x40 MLOAD PUSH2 0x128 SWAP1 PUSH2 0x398 JUMP JUMPDEST PUSH0 PUSH1 0x40 MLOAD DUP1 DUP4 SUB DUP2 DUP6 DUP8 GAS CALL SWAP3 POP POP POP RETURNDATASIZE DUP1 PUSH0 DUP2 EQ PUSH2 0x162 JUMPI PUSH1 0x40 MLOAD SWAP2 POP PUSH1 0x1F NOT PUSH1 0x3F RETURNDATASIZE ADD AND DUP3 ADD PUSH1 0x40 MSTORE RETURNDATASIZE DUP3 MSTORE RETURNDATASIZE PUSH0 PUSH1 0x20 DUP5 ADD RETURNDATACOPY PUSH2 0x167 JUMP JUMPDEST PUSH1 0x60 SWAP2 POP JUMPDEST POP POP SWAP1 POP DUP1 PUSH0 PUSH0 PUSH2 0x100 EXP DUP2 SLOAD DUP2 PUSH1 0xFF MUL NOT AND SWAP1 DUP4 ISZERO ISZERO MUL OR SWAP1 SSTORE POP DUP1 PUSH2 0x1C3 JUMPI PUSH1 0x40 MLOAD PUSH32 0x8C379A000000000000000000000000000000000000000000000000000000000 DUP2 MSTORE PUSH1 0x4 ADD PUSH2 0x1BA SWAP1 PUSH2 0x406 JUMP JUMPDEST PUSH1 0x40 MLOAD DUP1 SWAP2 SUB SWAP1 REVERT JUMPDEST CALLVALUE PUSH1 0x1 PUSH0 DUP3 DUP3 SLOAD PUSH2 0x1D4 SWAP2 SWAP1 PUSH2 0x451 JUMP JUMPDEST SWAP3 POP POP DUP2 SWAP1 SSTORE POP POP POP JUMP JUMPDEST DUP1 PUSH20 0xFFFFFFFFFFFFFFFFFFFFFFFFFFFFFFFFFFFFFFFF AND CALLVALUE PUSH1 0x40 MLOAD PUSH2 0x203 SWAP1 PUSH2 0x398 JUMP JUMPDEST PUSH0 PUSH1 0x40 MLOAD DUP1 DUP4 SUB DUP2 DUP6 DUP8 GAS CALL SWAP3 POP POP POP RETURNDATASIZE DUP1 PUSH0 DUP2 EQ PUSH2 0x23D JUMPI PUSH1 0x40 MLOAD SWAP2 POP PUSH1 0x1F NOT PUSH1 0x3F RETURNDATASIZE ADD AND DUP3 ADD PUSH1 0x40 MSTORE RETURNDATASIZE DUP3 MSTORE RETURNDATASIZE PUSH0 PUSH1 0x20 DUP5 ADD RETURNDATACOPY PUSH2 0x242 JUMP JUMPDEST PUSH1 0x60 SWAP2 POP JUMPDEST POP POP POP CALLVALUE PUSH1 0x1 PUSH0 DUP3 DUP3 SLOAD PUSH2 0x256 SWAP2 SWAP1 PUSH2 0x451 JUMP JUMPDEST SWAP3 POP POP DUP2 SWAP1 SSTORE POP POP JUMP JUMPDEST PUSH1 0x1 SLOAD DUP2 JUMP JUMPDEST PUSH0 SELFBALANCE SWAP1 POP SWAP1 JUMP JUMPDEST PUSH0 PUSH0 SWAP1 SLOAD SWAP1 PUSH2 0x100 EXP SWAP1 DIV PUSH1 0xFF AND DUP2 JUMP JUMPDEST PUSH0 PUSH0 REVERT JUMPDEST PUSH0 PUSH20 0xFFFFFFFFFFFFFFFFFFFFFFFFFFFFFFFFFFFFFFFF DUP3 AND SWAP1 POP SWAP2 SWAP1 POP JUMP JUMPDEST PUSH0 PUSH2 0x2AB DUP3 PUSH2 0x282 JUMP JUMPDEST SWAP1 POP SWAP2 SWAP1 POP JUMP JUMPDEST PUSH2 0x2BB DUP2 PUSH2 0x2A1 JUMP JUMPDEST DUP2 EQ PUSH2 0x2C5 JUMPI PUSH0 PUSH0 REVERT JUMPDEST POP JUMP JUMPDEST PUSH0 DUP2 CALLDATALOAD SWAP1 POP PUSH2 0x2D6 DUP2 PUSH2 0x2B2 JUMP JUMPDEST SWAP3 SWAP2 POP POP JUMP JUMPDEST PUSH0 PUSH1 0x20 DUP3 DUP5 SUB SLT ISZERO PUSH2 0x2F1 JUMPI PUSH2 0x2F0 PUSH2 0x27E JUMP JUMPDEST JUMPDEST PUSH0 PUSH2 0x2FE DUP5 DUP3 DUP6 ADD PUSH2 0x2C8 JUMP JUMPDEST SWAP2 POP POP SWAP3 SWAP2 POP POP JUMP JUMPDEST PUSH0 DUP2 SWAP1 POP SWAP2 SWAP1 POP JUMP JUMPDEST PUSH2 0x319 DUP2 PUSH2 0x307 JUMP JUMPDEST DUP3 MSTORE POP POP JUMP JUMPDEST PUSH0 PUSH1 0x20 DUP3 ADD SWAP1 POP PUSH2 0x332 PUSH0 DUP4 ADD DUP5 PUSH2 0x310 JUMP JUMPDEST SWAP3 SWAP2 POP POP JUMP JUMPDEST PUSH0 DUP2 ISZERO ISZERO SWAP1 POP SWAP2 SWAP1 POP JUMP JUMPDEST PUSH2 0x34C DUP2 PUSH2 0x338 JUMP JUMPDEST DUP3 MSTORE POP POP JUMP JUMPDEST PUSH0 PUSH1 0x20 DUP3 ADD SWAP1 POP PUSH2 0x365 PUSH0 DUP4 ADD DUP5 PUSH2 0x343 JUMP JUMPDEST SWAP3 SWAP2 POP POP JUMP JUMPDEST PUSH0 DUP2 SWAP1 POP SWAP3 SWAP2 POP POP JUMP JUMPDEST POP JUMP JUMPDEST PUSH0 PUSH2 0x383 PUSH0 DUP4 PUSH2 0x36B JUMP JUMPDEST SWAP2 POP PUSH2 0x38E DUP3 PUSH2 0x375 JUMP JUMPDEST PUSH0 DUP3 ADD SWAP1 POP SWAP2 SWAP1 POP JUMP JUMPDEST PUSH0 PUSH2 0x3A2 DUP3 PUSH2 0x378 JUMP JUMPDEST SWAP2 POP DUP2 SWAP1 POP SWAP2 SWAP1 POP JUMP JUMPDEST PUSH0 DUP3 DUP3 MSTORE PUSH1 0x20 DUP3 ADD SWAP1 POP SWAP3 SWAP2 POP POP JUMP JUMPDEST PUSH32 0x455448207472616E73666572206661696C656400000000000000000000000000 PUSH0 DUP3 ADD MSTORE POP JUMP JUMPDEST PUSH0 PUSH2 0x3F0 PUSH1 0x13 DUP4 PUSH2 0x3AC JUMP JUMPDEST SWAP2 POP PUSH2 0x3FB DUP3 PUSH2 0x3BC JUMP JUMPDEST PUSH1 0x20 DUP3 ADD SWAP1 POP SWAP2 SWAP1 POP JUMP JUMPDEST PUSH0 PUSH1 0x20 DUP3 ADD SWAP1 POP DUP2 DUP2 SUB PUSH0 DUP4 ADD MSTORE PUSH2 0x41D DUP2 PUSH2 0x3E4 JUMP JUMPDEST SWAP1 POP SWAP2 SWAP1 POP JUMP JUMPDEST PUSH32 0x4E487B7100000000000000000000000000000000000000000000000000000000 PUSH0 MSTORE PUSH1 0x11 PUSH1 0x4 MSTORE PUSH1 0x24 PUSH0 REVERT JUMPDEST PUSH0 PUSH2 0x45B DUP3 PUSH2 0x307 JUMP JUMPDEST SWAP2 POP PUSH2 0x466 DUP4 PUSH2 0x307 JUMP JUMPDEST SWAP3 POP DUP3 DUP3 ADD SWAP1 POP DUP1 DUP3 GT ISZERO PUSH2 0x47E JUMPI PUSH2 0x47D PUSH2 0x424 JUMP JUMPDEST JUMPDEST SWAP3 SWAP2 POP POP JUMP INVALID LOG2 PUSH5 0x6970667358 0x22 SLT KECCAK256 GAS SGT BASEFEE 0xD5 XOR CODESIZE DUP8 SWAP4 0xBA SHR SWAP10 0xAE 0xCA 0xD8 RETURN PUSH24 0xE7532368FC25A372FF7BE4386DB05B0B64736F6C63430008 0x22 STOP CALLER "
				},
				"gasEstimates": {
					"creation": {
						"codeDepositCost": "242000",
						"executionCost": "279",
						"totalCost": "242279"
					},
					"external": {
						"contractBalance()": "378",
						"dangerousSend(address)": "infinite",
						"lastSuccess()": "2531",
						"sendETH(address)": "infinite",
						"totalSent()": "2447"
					}
				},
				"methodIdentifiers": {
					"contractBalance()": "8b7afe2e",
					"dangerousSend(address)": "41456ddb",
					"lastSuccess()": "9415bc59",
					"sendETH(address)": "21b1e5f8",
					"totalSent()": "46f99063"
				}
			},
			"storageLayout": {
				"storage": [
					{
						"astId": 25,
						"contract": "val64.sol:ETHSenderval",
						"label": "lastSuccess",
						"offset": 0,
						"slot": "0",
						"type": "t_bool"
					},
					{
						"astId": 27,
						"contract": "val64.sol:ETHSenderval",
						"label": "totalSent",
						"offset": 0,
						"slot": "1",
						"type": "t_uint256"
					}
				],
				"types": {
					"t_bool": {
						"encoding": "inplace",
						"label": "bool",
						"numberOfBytes": "1"
					},
					"t_uint256": {
						"encoding": "inplace",
						"label": "uint256",
						"numberOfBytes": "32"
					}
				}
			},
			"userdoc": {
				"kind": "user",
				"methods": {},
				"version": 1
			}
		}
	}
}