{
	"val15.sol": {
		"StorageReference": {
			"abi": [
				{
					"inputs": [
						{
							"internalType": "uint256",
							"name": "_age",
							"type": "uint256"
						}
					],
					"name": "createUser",
					"outputs": [],
					"stateMutability": "nonpayable",
					"type": "function"
				},
				{
					"inputs": [],
					"name": "deactivateUser",
					"outputs": [],
					"stateMutability": "nonpayable",
					"type": "function"
				},
				{
					"inputs": [],
					"name": "getMyData",
					"outputs": [
						{
							"internalType": "uint256",
							"name": "",
							"type": "uint256"
						},
						{
							"internalType": "bool",
							"name": "",
							"type": "bool"
						}
					],
					"stateMutability": "view",
					"type": "function"
				},
				{
					"inputs": [],
					"name": "testMemoryCopy",
					"outputs": [
						{
							"internalType": "uint256",
							"name": "",
							"type": "uint256"
						},
						{
							"internalType": "bool",
							"name": "",
							"type": "bool"
						}
					],
					"stateMutability": "view",
					"type": "function"
				},
				{
					"inputs": [
						{
							"internalType": "uint256",
							"name": "_newAge",
							"type": "uint256"
						}
					],
					"name": "updateAge",
					"outputs": [],
					"stateMutability": "nonpayable",
					"type": "function"
				},
				{
					"inputs": [
						{
							"internalType": "address",
							"name": "",
							"type": "address"
						}
					],
					"name": "users",
					"outputs": [
						{
							"internalType": "uint256",
							"name": "age",
							"type": "uint256"
						},
						{
							"internalType": "bool",
							"name": "active",
							"type": "bool"
						}
					],
					"stateMutability": "view",
					"type": "function"
				}
			],
			"devdoc": {
				"kind": "dev",
				"methods": {},
				"version": 1
			},
			"evm": {
				"assembly": "    /* \"val15.sol\":9236:10634  contract StorageReference ... */\n  mstore(0x40, 0x80)\n  callvalue\n  dup1\n  iszero\n  tag_1\n  jumpi\n  revert(0x00, 0x00)\ntag_1:\n  pop\n  dataSize(sub_0)\n  dup1\n  dataOffset(sub_0)\n  0x00\n  codecopy\n  0x00\n  return\nstop\n\nsub_0: assembly {\n        /* \"val15.sol\":9236:10634  contract StorageReference ... */\n      mstore(0x40, 0x80)\n      callvalue\n      dup1\n      iszero\n      tag_1\n      jumpi\n      revert(0x00, 0x00)\n    tag_1:\n      pop\n      jumpi(tag_2, lt(calldatasize, 0x04))\n      shr(0xe0, calldataload(0x00))\n      dup1\n      0x55ea2000\n      eq\n      tag_3\n      jumpi\n      dup1\n      0x7d625c07\n      eq\n      tag_4\n      jumpi\n      dup1\n      0xa87430ba\n      eq\n      tag_5\n      jumpi\n      dup1\n      0xb9f007d6\n      eq\n      tag_6\n      jumpi\n      dup1\n      0xd9c8a38b\n      eq\n      tag_7\n      jumpi\n      dup1\n      0xffbdff66\n      eq\n      tag_8\n      jumpi\n    tag_2:\n      revert(0x00, 0x00)\n        /* \"val15.sol\":10042:10242  function deactivateUser() public ... */\n    tag_3:\n      tag_9\n      tag_10\n      jump\t// in\n    tag_9:\n      stop\n        /* \"val15.sol\":9513:10034  function updateAge(uint256 _newAge) public ... */\n    tag_4:\n      tag_11\n      0x04\n      dup1\n      calldatasize\n      sub\n      dup2\n      add\n      swap1\n      tag_12\n      swap2\n      swap1\n      tag_13\n      jump\t// in\n    tag_12:\n      tag_14\n      jump\t// in\n    tag_11:\n      stop\n        /* \"val15.sol\":9355:9392  mapping(address => User) public users */\n    tag_5:\n      tag_15\n      0x04\n      dup1\n      calldatasize\n      sub\n      dup2\n      add\n      swap1\n      tag_16\n      swap2\n      swap1\n      tag_17\n      jump\t// in\n    tag_16:\n      tag_18\n      jump\t// in\n    tag_15:\n      mload(0x40)\n      tag_19\n      swap3\n      swap2\n      swap1\n      tag_20\n      jump\t// in\n    tag_19:\n      mload(0x40)\n      dup1\n      swap2\n      sub\n      swap1\n      return\n        /* \"val15.sol\":10254:10435  function testMemoryCopy() public view returns (uint256, bool)... */\n    tag_6:\n      tag_21\n      tag_22\n      jump\t// in\n    tag_21:\n      mload(0x40)\n      tag_23\n      swap3\n      swap2\n      swap1\n      tag_20\n      jump\t// in\n    tag_23:\n      mload(0x40)\n      dup1\n      swap2\n      sub\n      swap1\n      return\n        /* \"val15.sol\":10443:10631  function getMyData()... */\n    tag_7:\n      tag_24\n      tag_25\n      jump\t// in\n    tag_24:\n      mload(0x40)\n      tag_26\n      swap3\n      swap2\n      swap1\n      tag_20\n      jump\t// in\n    tag_26:\n      mload(0x40)\n      dup1\n      swap2\n      sub\n      swap1\n      return\n        /* \"val15.sol\":9401:9505  function createUser(uint256 _age) public ... */\n    tag_8:\n      tag_27\n      0x04\n      dup1\n      calldatasize\n      sub\n      dup2\n      add\n      swap1\n      tag_28\n      swap2\n      swap1\n      tag_13\n      jump\t// in\n    tag_28:\n      tag_29\n      jump\t// in\n    tag_27:\n      stop\n        /* \"val15.sol\":10042:10242  function deactivateUser() public ... */\n    tag_10:\n        /* \"val15.sol\":10165:10182  User storage user */\n      0x00\n        /* \"val15.sol\":10185:10190  users */\n      0x00\n        /* \"val15.sol\":10185:10202  users[msg.sender] */\n      0x00\n        /* \"val15.sol\":10191:10201  msg.sender */\n      caller\n        /* \"val15.sol\":10185:10202  users[msg.sender] */\n      0xffffffffffffffffffffffffffffffffffffffff\n      and\n      0xffffffffffffffffffffffffffffffffffffffff\n      and\n      dup2\n      mstore\n      0x20\n      add\n      swap1\n      dup2\n      mstore\n      0x20\n      add\n      0x00\n      keccak256\n        /* \"val15.sol\":10165:10202  User storage user = users[msg.sender] */\n      swap1\n      pop\n        /* \"val15.sol\":10229:10234  false */\n      0x00\n        /* \"val15.sol\":10215:10219  user */\n      dup2\n        /* \"val15.sol\":10215:10226  user.active */\n      0x01\n      add\n      0x00\n        /* \"val15.sol\":10215:10234  user.active = false */\n      0x0100\n      exp\n      dup2\n      sload\n      dup2\n      0xff\n      mul\n      not\n      and\n      swap1\n      dup4\n      iszero\n      iszero\n      mul\n      or\n      swap1\n      sstore\n      pop\n        /* \"val15.sol\":10081:10242  {... */\n      pop\n        /* \"val15.sol\":10042:10242  function deactivateUser() public ... */\n      jump\t// out\n        /* \"val15.sol\":9513:10034  function updateAge(uint256 _newAge) public ... */\n    tag_14:\n        /* \"val15.sol\":9799:9816  User storage user */\n      0x00\n        /* \"val15.sol\":9819:9824  users */\n      0x00\n        /* \"val15.sol\":9819:9836  users[msg.sender] */\n      0x00\n        /* \"val15.sol\":9825:9835  msg.sender */\n      caller\n        /* \"val15.sol\":9819:9836  users[msg.sender] */\n      0xffffffffffffffffffffffffffffffffffffffff\n      and\n      0xffffffffffffffffffffffffffffffffffffffff\n      and\n      dup2\n      mstore\n      0x20\n      add\n      swap1\n      dup2\n      mstore\n      0x20\n      add\n      0x00\n      keccak256\n        /* \"val15.sol\":9799:9836  User storage user = users[msg.sender] */\n      swap1\n      pop\n        /* \"val15.sol\":10019:10026  _newAge */\n      dup2\n        /* \"val15.sol\":10008:10012  user */\n      dup2\n        /* \"val15.sol\":10008:10016  user.age */\n      0x00\n      add\n        /* \"val15.sol\":10008:10026  user.age = _newAge */\n      dup2\n      swap1\n      sstore\n      pop\n        /* \"val15.sol\":9562:10034  {... */\n      pop\n        /* \"val15.sol\":9513:10034  function updateAge(uint256 _newAge) public ... */\n      pop\n      jump\t// out\n        /* \"val15.sol\":9355:9392  mapping(address => User) public users */\n    tag_18:\n      mstore(0x20, 0x00)\n      dup1\n      0x00\n      mstore\n      keccak256(0x00, 0x40)\n      0x00\n      swap2\n      pop\n      swap1\n      pop\n      dup1\n      0x00\n      add\n      sload\n      swap1\n      dup1\n      0x01\n      add\n      0x00\n      swap1\n      sload\n      swap1\n      0x0100\n      exp\n      swap1\n      div\n      0xff\n      and\n      swap1\n      pop\n      dup3\n      jump\t// out\n        /* \"val15.sol\":10254:10435  function testMemoryCopy() public view returns (uint256, bool)... */\n    tag_22:\n        /* \"val15.sol\":10301:10308  uint256 */\n      0x00\n        /* \"val15.sol\":10310:10314  bool */\n      0x00\n        /* \"val15.sol\":10332:10348  User memory user */\n      0x00\n        /* \"val15.sol\":10351:10356  users */\n      0x00\n        /* \"val15.sol\":10351:10368  users[msg.sender] */\n      0x00\n        /* \"val15.sol\":10357:10367  msg.sender */\n      caller\n        /* \"val15.sol\":10351:10368  users[msg.sender] */\n      0xffffffffffffffffffffffffffffffffffffffff\n      and\n      0xffffffffffffffffffffffffffffffffffffffff\n      and\n      dup2\n      mstore\n      0x20\n      add\n      swap1\n      dup2\n      mstore\n      0x20\n      add\n      0x00\n      keccak256\n        /* \"val15.sol\":10332:10368  User memory user = users[msg.sender] */\n      mload(0x40)\n      dup1\n      0x40\n      add\n      0x40\n      mstore\n      swap1\n      dup2\n      0x00\n      dup3\n      add\n      sload\n      dup2\n      mstore\n      0x20\n      add\n      0x01\n      dup3\n      add\n      0x00\n      swap1\n      sload\n      swap1\n      0x0100\n      exp\n      swap1\n      div\n      0xff\n      and\n      iszero\n      iszero\n      iszero\n      iszero\n      dup2\n      mstore\n      pop\n      pop\n      swap1\n      pop\n        /* \"val15.sol\":10392:10395  999 */\n      0x03e7\n        /* \"val15.sol\":10381:10385  user */\n      dup2\n        /* \"val15.sol\":10381:10389  user.age */\n      0x00\n      add\n        /* \"val15.sol\":10381:10395  user.age = 999 */\n      dup2\n      dup2\n      mstore\n      pop\n      pop\n        /* \"val15.sol\":10422:10427  false */\n      0x00\n        /* \"val15.sol\":10408:10412  user */\n      dup2\n        /* \"val15.sol\":10408:10419  user.active */\n      0x20\n      add\n        /* \"val15.sol\":10408:10427  user.active = false */\n      swap1\n      iszero\n      iszero\n      swap1\n      dup2\n      iszero\n      iszero\n      dup2\n      mstore\n      pop\n      pop\n        /* \"val15.sol\":10321:10435  {... */\n      pop\n        /* \"val15.sol\":10254:10435  function testMemoryCopy() public view returns (uint256, bool)... */\n      swap1\n      swap2\n      jump\t// out\n        /* \"val15.sol\":10443:10631  function getMyData()... */\n    tag_25:\n        /* \"val15.sol\":10512:10519  uint256 */\n      0x00\n        /* \"val15.sol\":10521:10525  bool */\n      0x00\n        /* \"val15.sol\":10543:10560  User storage user */\n      0x00\n        /* \"val15.sol\":10563:10568  users */\n      0x00\n        /* \"val15.sol\":10563:10580  users[msg.sender] */\n      0x00\n        /* \"val15.sol\":10569:10579  msg.sender */\n      caller\n        /* \"val15.sol\":10563:10580  users[msg.sender] */\n      0xffffffffffffffffffffffffffffffffffffffff\n      and\n      0xffffffffffffffffffffffffffffffffffffffff\n      and\n      dup2\n      mstore\n      0x20\n      add\n      swap1\n      dup2\n      mstore\n      0x20\n      add\n      0x00\n      keccak256\n        /* \"val15.sol\":10543:10580  User storage user = users[msg.sender] */\n      swap1\n      pop\n        /* \"val15.sol\":10601:10605  user */\n      dup1\n        /* \"val15.sol\":10601:10609  user.age */\n      0x00\n      add\n      sload\n        /* \"val15.sol\":10611:10615  user */\n      dup2\n        /* \"val15.sol\":10611:10622  user.active */\n      0x01\n      add\n      0x00\n      swap1\n      sload\n      swap1\n      0x0100\n      exp\n      swap1\n      div\n      0xff\n      and\n        /* \"val15.sol\":10593:10623  return (user.age, user.active) */\n      swap3\n      pop\n      swap3\n      pop\n      pop\n        /* \"val15.sol\":10443:10631  function getMyData()... */\n      swap1\n      swap2\n      jump\t// out\n        /* \"val15.sol\":9401:9505  function createUser(uint256 _age) public ... */\n    tag_29:\n        /* \"val15.sol\":9481:9497  User(_age, true) */\n      mload(0x40)\n      dup1\n      0x40\n      add\n      0x40\n      mstore\n      dup1\n        /* \"val15.sol\":9486:9490  _age */\n      dup3\n        /* \"val15.sol\":9481:9497  User(_age, true) */\n      dup2\n      mstore\n      0x20\n      add\n        /* \"val15.sol\":9492:9496  true */\n      0x01\n        /* \"val15.sol\":9481:9497  User(_age, true) */\n      iszero\n      iszero\n      dup2\n      mstore\n      pop\n        /* \"val15.sol\":9461:9466  users */\n      0x00\n        /* \"val15.sol\":9461:9478  users[msg.sender] */\n      0x00\n        /* \"val15.sol\":9467:9477  msg.sender */\n      caller\n        /* \"val15.sol\":9461:9478  users[msg.sender] */\n      0xffffffffffffffffffffffffffffffffffffffff\n      and\n      0xffffffffffffffffffffffffffffffffffffffff\n      and\n      dup2\n      mstore\n      0x20\n      add\n      swap1\n      dup2\n      mstore\n      0x20\n      add\n      0x00\n      keccak256\n        /* \"val15.sol\":9461:9497  users[msg.sender] = User(_age, true) */\n      0x00\n      dup3\n      add\n      mload\n      dup2\n      0x00\n      add\n      sstore\n      0x20\n      dup3\n      add\n      mload\n      dup2\n      0x01\n      add\n      exp(0x0100, 0x00)\n      dup2\n      sload\n      dup2\n      0xff\n      mul\n      not\n      and\n      swap1\n      dup4\n      iszero\n      iszero\n      mul\n      or\n      swap1\n      sstore\n      pop\n      swap1\n      pop\n      pop\n        /* \"val15.sol\":9401:9505  function createUser(uint256 _age) public ... */\n      pop\n      jump\t// out\n        /* \"#utility.yul\":88:205   */\n    tag_36:\n        /* \"#utility.yul\":197:198   */\n      0x00\n        /* \"#utility.yul\":194:195   */\n      0x00\n        /* \"#utility.yul\":187:199   */\n      revert\n        /* \"#utility.yul\":334:411   */\n    tag_38:\n        /* \"#utility.yul\":371:378   */\n      0x00\n        /* \"#utility.yul\":400:405   */\n      dup2\n        /* \"#utility.yul\":389:405   */\n      swap1\n      pop\n        /* \"#utility.yul\":334:411   */\n      swap2\n      swap1\n      pop\n      jump\t// out\n        /* \"#utility.yul\":417:539   */\n    tag_39:\n        /* \"#utility.yul\":490:514   */\n      tag_54\n        /* \"#utility.yul\":508:513   */\n      dup2\n        /* \"#utility.yul\":490:514   */\n      tag_38\n      jump\t// in\n    tag_54:\n        /* \"#utility.yul\":483:488   */\n      dup2\n        /* \"#utility.yul\":480:515   */\n      eq\n        /* \"#utility.yul\":470:533   */\n      tag_55\n      jumpi\n        /* \"#utility.yul\":529:530   */\n      0x00\n        /* \"#utility.yul\":526:527   */\n      0x00\n        /* \"#utility.yul\":519:531   */\n      revert\n        /* \"#utility.yul\":470:533   */\n    tag_55:\n        /* \"#utility.yul\":417:539   */\n      pop\n      jump\t// out\n        /* \"#utility.yul\":545:684   */\n    tag_40:\n        /* \"#utility.yul\":591:596   */\n      0x00\n        /* \"#utility.yul\":629:635   */\n      dup2\n        /* \"#utility.yul\":616:636   */\n      calldataload\n        /* \"#utility.yul\":607:636   */\n      swap1\n      pop\n        /* \"#utility.yul\":645:678   */\n      tag_57\n        /* \"#utility.yul\":672:677   */\n      dup2\n        /* \"#utility.yul\":645:678   */\n      tag_39\n      jump\t// in\n    tag_57:\n        /* \"#utility.yul\":545:684   */\n      swap3\n      swap2\n      pop\n      pop\n      jump\t// out\n        /* \"#utility.yul\":690:1019   */\n    tag_13:\n        /* \"#utility.yul\":749:755   */\n      0x00\n        /* \"#utility.yul\":798:800   */\n      0x20\n        /* \"#utility.yul\":786:795   */\n      dup3\n        /* \"#utility.yul\":777:784   */\n      dup5\n        /* \"#utility.yul\":773:796   */\n      sub\n        /* \"#utility.yul\":769:801   */\n      slt\n        /* \"#utility.yul\":766:885   */\n      iszero\n      tag_59\n      jumpi\n        /* \"#utility.yul\":804:883   */\n      tag_60\n      tag_36\n      jump\t// in\n    tag_60:\n        /* \"#utility.yul\":766:885   */\n    tag_59:\n        /* \"#utility.yul\":924:925   */\n      0x00\n        /* \"#utility.yul\":949:1002   */\n      tag_61\n        /* \"#utility.yul\":994:1001   */\n      dup5\n        /* \"#utility.yul\":985:991   */\n      dup3\n        /* \"#utility.yul\":974:983   */\n      dup6\n        /* \"#utility.yul\":970:992   */\n      add\n        /* \"#utility.yul\":949:1002   */\n      tag_40\n      jump\t// in\n    tag_61:\n        /* \"#utility.yul\":939:1002   */\n      swap2\n      pop\n        /* \"#utility.yul\":895:1012   */\n      pop\n        /* \"#utility.yul\":690:1019   */\n      swap3\n      swap2\n      pop\n      pop\n      jump\t// out\n        /* \"#utility.yul\":1025:1151   */\n    tag_41:\n        /* \"#utility.yul\":1062:1069   */\n      0x00\n        /* \"#utility.yul\":1102:1144   */\n      0xffffffffffffffffffffffffffffffffffffffff\n        /* \"#utility.yul\":1095:1100   */\n      dup3\n        /* \"#utility.yul\":1091:1145   */\n      and\n        /* \"#utility.yul\":1080:1145   */\n      swap1\n      pop\n        /* \"#utility.yul\":1025:1151   */\n      swap2\n      swap1\n      pop\n      jump\t// out\n        /* \"#utility.yul\":1157:1253   */\n    tag_42:\n        /* \"#utility.yul\":1194:1201   */\n      0x00\n        /* \"#utility.yul\":1223:1247   */\n      tag_64\n        /* \"#utility.yul\":1241:1246   */\n      dup3\n        /* \"#utility.yul\":1223:1247   */\n      tag_41\n      jump\t// in\n    tag_64:\n        /* \"#utility.yul\":1212:1247   */\n      swap1\n      pop\n        /* \"#utility.yul\":1157:1253   */\n      swap2\n      swap1\n      pop\n      jump\t// out\n        /* \"#utility.yul\":1259:1381   */\n    tag_43:\n        /* \"#utility.yul\":1332:1356   */\n      tag_66\n        /* \"#utility.yul\":1350:1355   */\n      dup2\n        /* \"#utility.yul\":1332:1356   */\n      tag_42\n      jump\t// in\n    tag_66:\n        /* \"#utility.yul\":1325:1330   */\n      dup2\n        /* \"#utility.yul\":1322:1357   */\n      eq\n        /* \"#utility.yul\":1312:1375   */\n      tag_67\n      jumpi\n        /* \"#utility.yul\":1371:1372   */\n      0x00\n        /* \"#utility.yul\":1368:1369   */\n      0x00\n        /* \"#utility.yul\":1361:1373   */\n      revert\n        /* \"#utility.yul\":1312:1375   */\n    tag_67:\n        /* \"#utility.yul\":1259:1381   */\n      pop\n      jump\t// out\n        /* \"#utility.yul\":1387:1526   */\n    tag_44:\n        /* \"#utility.yul\":1433:1438   */\n      0x00\n        /* \"#utility.yul\":1471:1477   */\n      dup2\n        /* \"#utility.yul\":1458:1478   */\n      calldataload\n        /* \"#utility.yul\":1449:1478   */\n      swap1\n      pop\n        /* \"#utility.yul\":1487:1520   */\n      tag_69\n        /* \"#utility.yul\":1514:1519   */\n      dup2\n        /* \"#utility.yul\":1487:1520   */\n      tag_43\n      jump\t// in\n    tag_69:\n        /* \"#utility.yul\":1387:1526   */\n      swap3\n      swap2\n      pop\n      pop\n      jump\t// out\n        /* \"#utility.yul\":1532:1861   */\n    tag_17:\n        /* \"#utility.yul\":1591:1597   */\n      0x00\n        /* \"#utility.yul\":1640:1642   */\n      0x20\n        /* \"#utility.yul\":1628:1637   */\n      dup3\n        /* \"#utility.yul\":1619:1626   */\n      dup5\n        /* \"#utility.yul\":1615:1638   */\n      sub\n        /* \"#utility.yul\":1611:1643   */\n      slt\n        /* \"#utility.yul\":1608:1727   */\n      iszero\n      tag_71\n      jumpi\n        /* \"#utility.yul\":1646:1725   */\n      tag_72\n      tag_36\n      jump\t// in\n    tag_72:\n        /* \"#utility.yul\":1608:1727   */\n    tag_71:\n        /* \"#utility.yul\":1766:1767   */\n      0x00\n        /* \"#utility.yul\":1791:1844   */\n      tag_73\n        /* \"#utility.yul\":1836:1843   */\n      dup5\n        /* \"#utility.yul\":1827:1833   */\n      dup3\n        /* \"#utility.yul\":1816:1825   */\n      dup6\n        /* \"#utility.yul\":1812:1834   */\n      add\n        /* \"#utility.yul\":1791:1844   */\n      tag_44\n      jump\t// in\n    tag_73:\n        /* \"#utility.yul\":1781:1844   */\n      swap2\n      pop\n        /* \"#utility.yul\":1737:1854   */\n      pop\n        /* \"#utility.yul\":1532:1861   */\n      swap3\n      swap2\n      pop\n      pop\n      jump\t// out\n        /* \"#utility.yul\":1867:1985   */\n    tag_45:\n        /* \"#utility.yul\":1954:1978   */\n      tag_75\n        /* \"#utility.yul\":1972:1977   */\n      dup2\n        /* \"#utility.yul\":1954:1978   */\n      tag_38\n      jump\t// in\n    tag_75:\n        /* \"#utility.yul\":1949:1952   */\n      dup3\n        /* \"#utility.yul\":1942:1979   */\n      mstore\n        /* \"#utility.yul\":1867:1985   */\n      pop\n      pop\n      jump\t// out\n        /* \"#utility.yul\":1991:2081   */\n    tag_46:\n        /* \"#utility.yul\":2025:2032   */\n      0x00\n        /* \"#utility.yul\":2068:2073   */\n      dup2\n        /* \"#utility.yul\":2061:2074   */\n      iszero\n        /* \"#utility.yul\":2054:2075   */\n      iszero\n        /* \"#utility.yul\":2043:2075   */\n      swap1\n      pop\n        /* \"#utility.yul\":1991:2081   */\n      swap2\n      swap1\n      pop\n      jump\t// out\n        /* \"#utility.yul\":2087:2196   */\n    tag_47:\n        /* \"#utility.yul\":2168:2189   */\n      tag_78\n        /* \"#utility.yul\":2183:2188   */\n      dup2\n        /* \"#utility.yul\":2168:2189   */\n      tag_46\n      jump\t// in\n    tag_78:\n        /* \"#utility.yul\":2163:2166   */\n      dup3\n        /* \"#utility.yul\":2156:2190   */\n      mstore\n        /* \"#utility.yul\":2087:2196   */\n      pop\n      pop\n      jump\t// out\n        /* \"#utility.yul\":2202:2522   */\n    tag_20:\n        /* \"#utility.yul\":2317:2321   */\n      0x00\n        /* \"#utility.yul\":2355:2357   */\n      0x40\n        /* \"#utility.yul\":2344:2353   */\n      dup3\n        /* \"#utility.yul\":2340:2358   */\n      add\n        /* \"#utility.yul\":2332:2358   */\n      swap1\n      pop\n        /* \"#utility.yul\":2368:2439   */\n      tag_80\n        /* \"#utility.yul\":2436:2437   */\n      0x00\n        /* \"#utility.yul\":2425:2434   */\n      dup4\n        /* \"#utility.yul\":2421:2438   */\n      add\n        /* \"#utility.yul\":2412:2418   */\n      dup6\n        /* \"#utility.yul\":2368:2439   */\n      tag_45\n      jump\t// in\n    tag_80:\n        /* \"#utility.yul\":2449:2515   */\n      tag_81\n        /* \"#utility.yul\":2511:2513   */\n      0x20\n        /* \"#utility.yul\":2500:2509   */\n      dup4\n        /* \"#utility.yul\":2496:2514   */\n      add\n        /* \"#utility.yul\":2487:2493   */\n      dup5\n        /* \"#utility.yul\":2449:2515   */\n      tag_47\n      jump\t// in\n    tag_81:\n        /* \"#utility.yul\":2202:2522   */\n      swap4\n      swap3\n      pop\n      pop\n      pop\n      jump\t// out\n\n    auxdata: 0xa2646970667358221220fa3c9bfc58117f556fd52ff7cbc6b1e5881d12b57c60e722df855f0c6a59c4ec64736f6c63430008220033\n}\n",
				"bytecode": {
					"linkReferences": {},
					"object": "6080604052348015600e575f5ffd5b506104c48061001c5f395ff3fe608060405234801561000f575f5ffd5b5060043610610060575f3560e01c806355ea2000146100645780637d625c071461006e578063a87430ba1461008a578063b9f007d6146100bb578063d9c8a38b146100da578063ffbdff66146100f9575b5f5ffd5b61006c610115565b005b6100886004803603810190610083919061038e565b610172565b005b6100a4600480360381019061009f9190610413565b6101bd565b6040516100b2929190610467565b60405180910390f35b6100c36101e8565b6040516100d1929190610467565b60405180910390f35b6100e2610277565b6040516100f0929190610467565b60405180910390f35b610113600480360381019061010e919061038e565b6102d6565b005b5f5f5f3373ffffffffffffffffffffffffffffffffffffffff1673ffffffffffffffffffffffffffffffffffffffff1681526020019081526020015f2090505f816001015f6101000a81548160ff02191690831515021790555050565b5f5f5f3373ffffffffffffffffffffffffffffffffffffffff1673ffffffffffffffffffffffffffffffffffffffff1681526020019081526020015f20905081815f01819055505050565b5f602052805f5260405f205f91509050805f015490806001015f9054906101000a900460ff16905082565b5f5f5f5f5f3373ffffffffffffffffffffffffffffffffffffffff1673ffffffffffffffffffffffffffffffffffffffff1681526020019081526020015f206040518060400160405290815f8201548152602001600182015f9054906101000a900460ff16151515158152505090506103e7815f0181815250505f816020019015159081151581525050509091565b5f5f5f5f5f3373ffffffffffffffffffffffffffffffffffffffff1673ffffffffffffffffffffffffffffffffffffffff1681526020019081526020015f209050805f0154816001015f9054906101000a900460ff1692509250509091565b6040518060400160405280828152602001600115158152505f5f3373ffffffffffffffffffffffffffffffffffffffff1673ffffffffffffffffffffffffffffffffffffffff1681526020019081526020015f205f820151815f01556020820151816001015f6101000a81548160ff02191690831515021790555090505050565b5f5ffd5b5f819050919050565b61036d8161035b565b8114610377575f5ffd5b50565b5f8135905061038881610364565b92915050565b5f602082840312156103a3576103a2610357565b5b5f6103b08482850161037a565b91505092915050565b5f73ffffffffffffffffffffffffffffffffffffffff82169050919050565b5f6103e2826103b9565b9050919050565b6103f2816103d8565b81146103fc575f5ffd5b50565b5f8135905061040d816103e9565b92915050565b5f6020828403121561042857610427610357565b5b5f610435848285016103ff565b91505092915050565b6104478161035b565b82525050565b5f8115159050919050565b6104618161044d565b82525050565b5f60408201905061047a5f83018561043e565b6104876020830184610458565b939250505056fea2646970667358221220fa3c9bfc58117f556fd52ff7cbc6b1e5881d12b57c60e722df855f0c6a59c4ec64736f6c63430008220033",
					"opcodes": "PUSH1 0x80 PUSH1 0x40 MSTORE CALLVALUE DUP1 ISZERO PUSH1 0xE JUMPI PUSH0 PUSH0 REVERT JUMPDEST POP PUSH2 0x4C4 DUP1 PUSH2 0x1C PUSH0 CODECOPY PUSH0 RETURN INVALID PUSH1 0x80 PUSH1 0x40 MSTORE CALLVALUE DUP1 ISZERO PUSH2 0xF JUMPI PUSH0 PUSH0 REVERT JUMPDEST POP PUSH1 0x4 CALLDATASIZE LT PUSH2 0x60 JUMPI PUSH0 CALLDATALOAD PUSH1 0xE0 SHR DUP1 PUSH4 0x55EA2000 EQ PUSH2 0x64 JUMPI DUP1 PUSH4 0x7D625C07 EQ PUSH2 0x6E JUMPI DUP1 PUSH4 0xA87430BA EQ PUSH2 0x8A JUMPI DUP1 PUSH4 0xB9F007D6 EQ PUSH2 0xBB JUMPI DUP1 PUSH4 0xD9C8A38B EQ PUSH2 0xDA JUMPI DUP1 PUSH4 0xFFBDFF66 EQ PUSH2 0xF9 JUMPI JUMPDEST PUSH0 PUSH0 REVERT JUMPDEST PUSH2 0x6C PUSH2 0x115 JUMP JUMPDEST STOP JUMPDEST PUSH2 0x88 PUSH1 0x4 DUP1 CALLDATASIZE SUB DUP2 ADD SWAP1 PUSH2 0x83 SWAP2 SWAP1 PUSH2 0x38E JUMP JUMPDEST PUSH2 0x172 JUMP JUMPDEST STOP JUMPDEST PUSH2 0xA4 PUSH1 0x4 DUP1 CALLDATASIZE SUB DUP2 ADD SWAP1 PUSH2 0x9F SWAP2 SWAP1 PUSH2 0x413 JUMP JUMPDEST PUSH2 0x1BD JUMP JUMPDEST PUSH1 0x40 MLOAD PUSH2 0xB2 SWAP3 SWAP2 SWAP1 PUSH2 0x467 JUMP JUMPDEST PUSH1 0x40 MLOAD DUP1 SWAP2 SUB SWAP1 RETURN JUMPDEST PUSH2 0xC3 PUSH2 0x1E8 JUMP JUMPDEST PUSH1 0x40 MLOAD PUSH2 0xD1 SWAP3 SWAP2 SWAP1 PUSH2 0x467 JUMP JUMPDEST PUSH1 0x40 MLOAD DUP1 SWAP2 SUB SWAP1 RETURN JUMPDEST PUSH2 0xE2 PUSH2 0x277 JUMP JUMPDEST PUSH1 0x40 MLOAD PUSH2 0xF0 SWAP3 SWAP2 SWAP1 PUSH2 0x467 JUMP JUMPDEST PUSH1 0x40 MLOAD DUP1 SWAP2 SUB SWAP1 RETURN JUMPDEST PUSH2 0x113 PUSH1 0x4 DUP1 CALLDATASIZE SUB DUP2 ADD SWAP1 PUSH2 0x10E SWAP2 SWAP1 PUSH2 0x38E JUMP JUMPDEST PUSH2 0x2D6 JUMP JUMPDEST STOP JUMPDEST PUSH0 PUSH0 PUSH0 CALLER PUSH20 0xFFFFFFFFFFFFFFFFFFFFFFFFFFFFFFFFFFFFFFFF AND PUSH20 0xFFFFFFFFFFFFFFFFFFFFFFFFFFFFFFFFFFFFFFFF AND DUP2 MSTORE PUSH1 0x20 ADD SWAP1 DUP2 MSTORE PUSH1 0x20 ADD PUSH0 KECCAK256 SWAP1 POP PUSH0 DUP2 PUSH1 0x1 ADD PUSH0 PUSH2 0x100 EXP DUP2 SLOAD DUP2 PUSH1 0xFF MUL NOT AND SWAP1 DUP4 ISZERO ISZERO MUL OR SWAP1 SSTORE POP POP JUMP JUMPDEST PUSH0 PUSH0 PUSH0 CALLER PUSH20 0xFFFFFFFFFFFFFFFFFFFFFFFFFFFFFFFFFFFFFFFF AND PUSH20 0xFFFFFFFFFFFFFFFFFFFFFFFFFFFFFFFFFFFFFFFF AND DUP2 MSTORE PUSH1 0x20 ADD SWAP1 DUP2 MSTORE PUSH1 0x20 ADD PUSH0 KECCAK256 SWAP1 POP DUP2 DUP2 PUSH0 ADD DUP2 SWAP1 SSTORE POP POP POP JUMP JUMPDEST PUSH0 PUSH1 0x20 MSTORE DUP1 PUSH0 MSTORE PUSH1 0x40 PUSH0 KECCAK256 PUSH0 SWAP2 POP SWAP1 POP DUP1 PUSH0 ADD SLOAD SWAP1 DUP1 PUSH1 0x1 ADD PUSH0 SWAP1 SLOAD SWAP1 PUSH2 0x100 EXP SWAP1 DIV PUSH1 0xFF AND SWAP1 POP DUP3 JUMP JUMPDEST PUSH0 PUSH0 PUSH0 PUSH0 PUSH0 CALLER PUSH20 0xFFFFFFFFFFFFFFFFFFFFFFFFFFFFFFFFFFFFFFFF AND PUSH20 0xFFFFFFFFFFFFFFFFFFFFFFFFFFFFFFFFFFFFFFFF AND DUP2 MSTORE PUSH1 0x20 ADD SWAP1 DUP2 MSTORE PUSH1 0x20 ADD PUSH0 KECCAK256 PUSH1 0x40 MLOAD DUP1 PUSH1 0x40 ADD PUSH1 0x40 MSTORE SWAP1 DUP2 PUSH0 DUP3 ADD SLOAD DUP2 MSTORE PUSH1 0x20 ADD PUSH1 0x1 DUP3 ADD PUSH0 SWAP1 SLOAD SWAP1 PUSH2 0x100 EXP SWAP1 DIV PUSH1 0xFF AND ISZERO ISZERO ISZERO ISZERO DUP2 MSTORE POP POP SWAP1 POP PUSH2 0x3E7 DUP2 PUSH0 ADD DUP2 DUP2 MSTORE POP POP PUSH0 DUP2 PUSH1 0x20 ADD SWAP1 ISZERO ISZERO SWAP1 DUP2 ISZERO ISZERO DUP2 MSTORE POP POP POP SWAP1 SWAP2 JUMP JUMPDEST PUSH0 PUSH0 PUSH0 PUSH0 PUSH0 CALLER PUSH20 0xFFFFFFFFFFFFFFFFFFFFFFFFFFFFFFFFFFFFFFFF AND PUSH20 0xFFFFFFFFFFFFFFFFFFFFFFFFFFFFFFFFFFFFFFFF AND DUP2 MSTORE PUSH1 0x20 ADD SWAP1 DUP2 MSTORE PUSH1 0x20 ADD PUSH0 KECCAK256 SWAP1 POP DUP1 PUSH0 ADD SLOAD DUP2 PUSH1 0x1 ADD PUSH0 SWAP1 SLOAD SWAP1 PUSH2 0x100 EXP SWAP1 DIV PUSH1 0xFF AND SWAP3 POP SWAP3 POP POP SWAP1 SWAP2 JUMP JUMPDEST PUSH1 0x40 MLOAD DUP1 PUSH1 0x40 ADD PUSH1 0x40 MSTORE DUP1 DUP3 DUP2 MSTORE PUSH1 0x20 ADD PUSH1 0x1 ISZERO ISZERO DUP2 MSTORE POP PUSH0 PUSH0 CALLER PUSH20 0xFFFFFFFFFFFFFFFFFFFFFFFFFFFFFFFFFFFFFFFF AND PUSH20 0xFFFFFFFFFFFFFFFFFFFFFFFFFFFFFFFFFFFFFFFF AND DUP2 MSTORE PUSH1 0x20 ADD SWAP1 DUP2 MSTORE PUSH1 0x20 ADD PUSH0 KECCAK256 PUSH0 DUP3 ADD MLOAD DUP2 PUSH0 ADD SSTORE PUSH1 0x20 DUP3 ADD MLOAD DUP2 PUSH1 0x1 ADD PUSH0 PUSH2 0x100 EXP DUP2 SLOAD DUP2 PUSH1 0xFF MUL NOT AND SWAP1 DUP4 ISZERO ISZERO MUL OR SWAP1 SSTORE POP SWAP1 POP POP POP JUMP JUMPDEST PUSH0 PUSH0 REVERT JUMPDEST PUSH0 DUP2 SWAP1 POP SWAP2 SWAP1 POP JUMP JUMPDEST PUSH2 0x36D DUP2 PUSH2 0x35B JUMP JUMPDEST DUP2 EQ PUSH2 0x377 JUMPI PUSH0 PUSH0 REVERT JUMPDEST POP JUMP JUMPDEST PUSH0 DUP2 CALLDATALOAD SWAP1 POP PUSH2 0x388 DUP2 PUSH2 0x364 JUMP JUMPDEST SWAP3 SWAP2 POP POP JUMP JUMPDEST PUSH0 PUSH1 0x20 DUP3 DUP5 SUB SLT ISZERO PUSH2 0x3A3 JUMPI PUSH2 0x3A2 PUSH2 0x357 JUMP JUMPDEST JUMPDEST PUSH0 PUSH2 0x3B0 DUP5 DUP3 DUP6 ADD PUSH2 0x37A JUMP JUMPDEST SWAP2 POP POP SWAP3 SWAP2 POP POP JUMP JUMPDEST PUSH0 PUSH20 0xFFFFFFFFFFFFFFFFFFFFFFFFFFFFFFFFFFFFFFFF DUP3 AND SWAP1 POP SWAP2 SWAP1 POP JUMP JUMPDEST PUSH0 PUSH2 0x3E2 DUP3 PUSH2 0x3B9 JUMP JUMPDEST SWAP1 POP SWAP2 SWAP1 POP JUMP JUMPDEST PUSH2 0x3F2 DUP2 PUSH2 0x3D8 JUMP JUMPDEST DUP2 EQ PUSH2 0x3FC JUMPI PUSH0 PUSH0 REVERT JUMPDEST POP JUMP JUMPDEST PUSH0 DUP2 CALLDATALOAD SWAP1 POP PUSH2 0x40D DUP2 PUSH2 0x3E9 JUMP JUMPDEST SWAP3 SWAP2 POP POP JUMP JUMPDEST PUSH0 PUSH1 0x20 DUP3 DUP5 SUB SLT ISZERO PUSH2 0x428 JUMPI PUSH2 0x427 PUSH2 0x357 JUMP JUMPDEST JUMPDEST PUSH0 PUSH2 0x435 DUP5 DUP3 DUP6 ADD PUSH2 0x3FF JUMP JUMPDEST SWAP2 POP POP SWAP3 SWAP2 POP POP JUMP JUMPDEST PUSH2 0x447 DUP2 PUSH2 0x35B JUMP JUMPDEST DUP3 MSTORE POP POP JUMP JUMPDEST PUSH0 DUP2 ISZERO ISZERO SWAP1 POP SWAP2 SWAP1 POP JUMP JUMPDEST PUSH2 0x461 DUP2 PUSH2 0x44D JUMP JUMPDEST DUP3 MSTORE POP POP JUMP JUMPDEST PUSH0 PUSH1 0x40 DUP3 ADD SWAP1 POP PUSH2 0x47A PUSH0 DUP4 ADD DUP6 PUSH2 0x43E JUMP JUMPDEST PUSH2 0x487 PUSH1 0x20 DUP4 ADD DUP5 PUSH2 0x458 JUMP JUMPDEST SWAP4 SWAP3 POP POP POP JUMP INVALID LOG2 PUSH5 0x6970667358 0x22 SLT KECCAK256 STATICCALL EXTCODECOPY SWAP12 0xFC PC GT PUSH32 0x556FD52FF7CBC6B1E5881D12B57C60E722DF855F0C6A59C4EC64736F6C634300 ADDMOD 0x22 STOP CALLER "
				},
				"gasEstimates": {
					"creation": {
						"codeDepositCost": "244000",
						"executionCost": "285",
						"totalCost": "244285"
					},
					"external": {
						"createUser(uint256)": "47050",
						"deactivateUser()": "24490",
						"getMyData()": "4860",
						"testMemoryCopy()": "4961",
						"updateAge(uint256)": "22618",
						"users(address)": "5088"
					}
				},
				"methodIdentifiers": {
					"createUser(uint256)": "ffbdff66",
					"deactivateUser()": "55ea2000",
					"getMyData()": "d9c8a38b",
					"testMemoryCopy()": "b9f007d6",
					"updateAge(uint256)": "7d625c07",
					"users(address)": "a87430ba"
				}
			},
			"storageLayout": {
				"storage": [
					{
						"astId": 98,
						"contract": "val15.sol:StorageReference",
						"label": "users",
						"offset": 0,
						"slot": "0",
						"type": "t_mapping(t_address,t_struct(User)93_storage)"
					}
				],
				"types": {
					"t_address": {
						"encoding": "inplace",
						"label": "address",
						"numberOfBytes": "20"
					},
					"t_bool": {
						"encoding": "inplace",
						"label": "bool",
						"numberOfBytes": "1"
					},
					"t_mapping(t_address,t_struct(User)93_storage)": {
						"encoding": "mapping",
						"key": "t_address",
						"label": "mapping(address => struct StorageReference.User)",
						"numberOfBytes": "32",
						"value": "t_struct(User)93_storage"
					},
					"t_struct(User)93_storage": {
						"encoding": "inplace",
						"label": "struct StorageReference.User",
						"members": [
							{
								"astId": 90,
								"contract": "val15.sol:StorageReference",
								"label": "age",
								"offset": 0,
								"slot": "0",
								"type": "t_uint256"
							},
							{
								"astId": 92,
								"contract": "val15.sol:StorageReference",
								"label": "active",
								"offset": 0,
								"slot": "1",
								"type": "t_bool"
							}
						],
						"numberOfBytes": "64"
					},
					"t_uint256": {
						"encoding": "inplace",
						"label": "uint256",
						"numberOfBytes": "32"
					}
				}
			},
			"userdoc": {
				"kind": "user",
				"methods": {},
				"version": 1
			}
		}
	}
}