{
	"val75.sol": {
		"MaxUintBoundaryTest": {
			"abi": [
				{
					"anonymous": false,
					"inputs": [
						{
							"indexed": false,
							"internalType": "uint256",
							"name": "value",
							"type": "uint256"
						},
						{
							"indexed": false,
							"internalType": "bool",
							"name": "accepted",
							"type": "bool"
						}
					],
					"name": "FuzzValueTested",
					"type": "event"
				},
				{
					"anonymous": false,
					"inputs": [
						{
							"indexed": false,
							"internalType": "string",
							"name": "testType",
							"type": "string"
						},
						{
							"indexed": false,
							"internalType": "uint256",
							"name": "gasUsed",
							"type": "uint256"
						}
					],
					"name": "GasMeasured",
					"type": "event"
				},
				{
					"anonymous": false,
					"inputs": [
						{
							"indexed": false,
							"internalType": "uint256",
							"name": "value",
							"type": "uint256"
						}
					],
					"name": "MaxRejected",
					"type": "event"
				},
				{
					"anonymous": false,
					"inputs": [
						{
							"indexed": false,
							"internalType": "uint256",
							"name": "value",
							"type": "uint256"
						}
					],
					"name": "ValueReceived",
					"type": "event"
				},
				{
					"inputs": [
						{
							"internalType": "uint256[]",
							"name": "values",
							"type": "uint256[]"
						}
					],
					"name": "batchProcess",
					"outputs": [],
					"stateMutability": "nonpayable",
					"type": "function"
				},
				{
					"inputs": [],
					"name": "calls",
					"outputs": [
						{
							"internalType": "uint256",
							"name": "",
							"type": "uint256"
						}
					],
					"stateMutability": "view",
					"type": "function"
				},
				{
					"inputs": [],
					"name": "compareGas",
					"outputs": [
						{
							"internalType": "uint256",
							"name": "normalGas",
							"type": "uint256"
						},
						{
							"internalType": "uint256",
							"name": "rejectedGas",
							"type": "uint256"
						}
					],
					"stateMutability": "view",
					"type": "function"
				},
				{
					"inputs": [
						{
							"internalType": "uint256",
							"name": "seed",
							"type": "uint256"
						}
					],
					"name": "fuzzTest",
					"outputs": [],
					"stateMutability": "nonpayable",
					"type": "function"
				},
				{
					"inputs": [],
					"name": "getState",
					"outputs": [
						{
							"internalType": "uint256",
							"name": "currentValue",
							"type": "uint256"
						},
						{
							"internalType": "uint256",
							"name": "currentSum",
							"type": "uint256"
						},
						{
							"internalType": "uint256",
							"name": "currentCalls",
							"type": "uint256"
						}
					],
					"stateMutability": "view",
					"type": "function"
				},
				{
					"inputs": [],
					"name": "lastValue",
					"outputs": [
						{
							"internalType": "uint256",
							"name": "",
							"type": "uint256"
						}
					],
					"stateMutability": "view",
					"type": "function"
				},
				{
					"inputs": [],
					"name": "normalGasUsed",
					"outputs": [
						{
							"internalType": "uint256",
							"name": "",
							"type": "uint256"
						}
					],
					"stateMutability": "view",
					"type": "function"
				},
				{
					"inputs": [],
					"name": "rejectedGasUsed",
					"outputs": [
						{
							"internalType": "uint256",
							"name": "",
							"type": "uint256"
						}
					],
					"stateMutability": "view",
					"type": "function"
				},
				{
					"inputs": [
						{
							"internalType": "uint256",
							"name": "value",
							"type": "uint256"
						}
					],
					"name": "set",
					"outputs": [],
					"stateMutability": "nonpayable",
					"type": "function"
				},
				{
					"inputs": [],
					"name": "sum",
					"outputs": [
						{
							"internalType": "uint256",
							"name": "",
							"type": "uint256"
						}
					],
					"stateMutability": "view",
					"type": "function"
				},
				{
					"inputs": [],
					"name": "testMaxUint",
					"outputs": [],
					"stateMutability": "nonpayable",
					"type": "function"
				}
			],
			"devdoc": {
				"kind": "dev",
				"methods": {},
				"version": 1
			},
			"evm": {
				"assembly": "    /* \"val75.sol\":8410:13939  contract MaxUintBoundaryTest {... */\n  mstore(0x40, 0x80)\n  callvalue\n  dup1\n  iszero\n  tag_1\n  jumpi\n  revert(0x00, 0x00)\ntag_1:\n  pop\n  dataSize(sub_0)\n  dup1\n  dataOffset(sub_0)\n  0x00\n  codecopy\n  0x00\n  return\nstop\n\nsub_0: assembly {\n        /* \"val75.sol\":8410:13939  contract MaxUintBoundaryTest {... */\n      mstore(0x40, 0x80)\n      callvalue\n      dup1\n      iszero\n      tag_1\n      jumpi\n      revert(0x00, 0x00)\n    tag_1:\n      pop\n      jumpi(tag_2, lt(calldatasize, 0x04))\n      shr(0xe0, calldataload(0x00))\n      dup1\n      0x60fe47b1\n      gt\n      tag_14\n      jumpi\n      dup1\n      0x60fe47b1\n      eq\n      tag_8\n      jumpi\n      dup1\n      0x853255cc\n      eq\n      tag_9\n      jumpi\n      dup1\n      0x8f32aa78\n      eq\n      tag_10\n      jumpi\n      dup1\n      0x95b273b5\n      eq\n      tag_11\n      jumpi\n      dup1\n      0xe1ce9200\n      eq\n      tag_12\n      jumpi\n      dup1\n      0xf74f9320\n      eq\n      tag_13\n      jumpi\n      jump(tag_2)\n    tag_14:\n      dup1\n      0x1865c57d\n      eq\n      tag_3\n      jumpi\n      dup1\n      0x20644867\n      eq\n      tag_4\n      jumpi\n      dup1\n      0x305f72b7\n      eq\n      tag_5\n      jumpi\n      dup1\n      0x43183834\n      eq\n      tag_6\n      jumpi\n      dup1\n      0x540c1018\n      eq\n      tag_7\n      jumpi\n    tag_2:\n      revert(0x00, 0x00)\n        /* \"val75.sol\":13646:13936  function getState()... */\n    tag_3:\n      tag_15\n      tag_16\n      jump\t// in\n    tag_15:\n      mload(0x40)\n      tag_17\n      swap4\n      swap3\n      swap2\n      swap1\n      tag_18\n      jump\t// in\n    tag_17:\n      mload(0x40)\n      dup1\n      swap2\n      sub\n      swap1\n      return\n        /* \"val75.sol\":10462:10953  function testMaxUint()... */\n    tag_4:\n      tag_19\n      tag_20\n      jump\t// in\n    tag_19:\n      stop\n        /* \"val75.sol\":8551:8571  uint256 public calls */\n    tag_5:\n      tag_21\n      tag_22\n      jump\t// in\n    tag_21:\n      mload(0x40)\n      tag_23\n      swap2\n      swap1\n      tag_24\n      jump\t// in\n    tag_23:\n      mload(0x40)\n      dup1\n      swap2\n      sub\n      swap1\n      return\n        /* \"val75.sol\":8491:8515  uint256 public lastValue */\n    tag_6:\n      tag_25\n      tag_26\n      jump\t// in\n    tag_25:\n      mload(0x40)\n      tag_27\n      swap2\n      swap1\n      tag_24\n      jump\t// in\n    tag_27:\n      mload(0x40)\n      dup1\n      swap2\n      sub\n      swap1\n      return\n        /* \"val75.sol\":11119:11826  function batchProcess(... */\n    tag_7:\n      tag_28\n      0x04\n      dup1\n      calldatasize\n      sub\n      dup2\n      add\n      swap1\n      tag_29\n      swap2\n      swap1\n      tag_30\n      jump\t// in\n    tag_29:\n      tag_31\n      jump\t// in\n    tag_28:\n      stop\n        /* \"val75.sol\":9983:10299  function set(... */\n    tag_8:\n      tag_32\n      0x04\n      dup1\n      calldatasize\n      sub\n      dup2\n      add\n      swap1\n      tag_33\n      swap2\n      swap1\n      tag_34\n      jump\t// in\n    tag_33:\n      tag_35\n      jump\t// in\n    tag_32:\n      stop\n        /* \"val75.sol\":8524:8542  uint256 public sum */\n    tag_9:\n      tag_36\n      tag_37\n      jump\t// in\n    tag_36:\n      mload(0x40)\n      tag_38\n      swap2\n      swap1\n      tag_24\n      jump\t// in\n    tag_38:\n      mload(0x40)\n      dup1\n      swap2\n      sub\n      swap1\n      return\n        /* \"val75.sol\":13228:13479  function compareGas()... */\n    tag_10:\n      tag_39\n      tag_40\n      jump\t// in\n    tag_39:\n      mload(0x40)\n      tag_41\n      swap3\n      swap2\n      swap1\n      tag_42\n      jump\t// in\n    tag_41:\n      mload(0x40)\n      dup1\n      swap2\n      sub\n      swap1\n      return\n        /* \"val75.sol\":8621:8649  uint256 public normalGasUsed */\n    tag_11:\n      tag_43\n      tag_44\n      jump\t// in\n    tag_43:\n      mload(0x40)\n      tag_45\n      swap2\n      swap1\n      tag_24\n      jump\t// in\n    tag_45:\n      mload(0x40)\n      dup1\n      swap2\n      sub\n      swap1\n      return\n        /* \"val75.sol\":12029:13061  function fuzzTest(... */\n    tag_12:\n      tag_46\n      0x04\n      dup1\n      calldatasize\n      sub\n      dup2\n      add\n      swap1\n      tag_47\n      swap2\n      swap1\n      tag_34\n      jump\t// in\n    tag_47:\n      tag_48\n      jump\t// in\n    tag_46:\n      stop\n        /* \"val75.sol\":8658:8688  uint256 public rejectedGasUsed */\n    tag_13:\n      tag_49\n      tag_50\n      jump\t// in\n    tag_49:\n      mload(0x40)\n      tag_51\n      swap2\n      swap1\n      tag_24\n      jump\t// in\n    tag_51:\n      mload(0x40)\n      dup1\n      swap2\n      sub\n      swap1\n      return\n        /* \"val75.sol\":13646:13936  function getState()... */\n    tag_16:\n        /* \"val75.sol\":13730:13750  uint256 currentValue */\n      0x00\n        /* \"val75.sol\":13765:13783  uint256 currentSum */\n      0x00\n        /* \"val75.sol\":13798:13818  uint256 currentCalls */\n      0x00\n        /* \"val75.sol\":13870:13879  lastValue */\n      sload(0x00)\n        /* \"val75.sol\":13894:13897  sum */\n      sload(0x01)\n        /* \"val75.sol\":13912:13917  calls */\n      sload(0x02)\n        /* \"val75.sol\":13848:13928  return (... */\n      swap3\n      pop\n      swap3\n      pop\n      swap3\n      pop\n        /* \"val75.sol\":13646:13936  function getState()... */\n      swap1\n      swap2\n      swap3\n      jump\t// out\n        /* \"val75.sol\":10462:10953  function testMaxUint()... */\n    tag_20:\n        /* \"val75.sol\":10521:10537  uint256 startGas */\n      0x00\n        /* \"val75.sol\":10553:10562  gasleft() */\n      gas\n        /* \"val75.sol\":10521:10562  uint256 startGas =... */\n      swap1\n      pop\n        /* \"val75.sol\":10575:10586  uint256 max */\n      0x00\n        /* \"val75.sol\":10602:10619  type(uint256).max */\n      0xffffffffffffffffffffffffffffffffffffffffffffffffffffffffffffffff\n        /* \"val75.sol\":10575:10619  uint256 max =... */\n      swap1\n      pop\n        /* \"val75.sol\":10693:10697  this */\n      address\n        /* \"val75.sol\":10693:10701  this.set */\n      0xffffffffffffffffffffffffffffffffffffffff\n      and\n      0x60fe47b1\n        /* \"val75.sol\":10702:10705  max */\n      dup3\n        /* \"val75.sol\":10693:10706  this.set(max) */\n      mload(0x40)\n      dup3\n      0xffffffff\n      and\n      0xe0\n      shl\n      dup2\n      mstore\n      0x04\n      add\n      tag_54\n      swap2\n      swap1\n      tag_24\n      jump\t// in\n    tag_54:\n      0x00\n      mload(0x40)\n      dup1\n      dup4\n      sub\n      dup2\n      0x00\n      dup8\n      dup1\n      extcodesize\n      iszero\n      dup1\n      iszero\n      tag_55\n      jumpi\n      revert(0x00, 0x00)\n    tag_55:\n      pop\n      gas\n      call\n      swap3\n      pop\n      pop\n      pop\n      dup1\n      iszero\n      tag_56\n      jumpi\n      pop\n      0x01\n    tag_56:\n        /* \"val75.sol\":10689:10778  try this.set(max) {... */\n      tag_57\n      jumpi\n        /* \"val75.sol\":10750:10766  MaxRejected(max) */\n      0x4f3fff6349c10971d5385c5ee7c880674838440beff1f9c71d70836ad5f0c79b\n        /* \"val75.sol\":10762:10765  max */\n      dup2\n        /* \"val75.sol\":10750:10766  MaxRejected(max) */\n      mload(0x40)\n      tag_61\n      swap2\n      swap1\n      tag_24\n      jump\t// in\n    tag_61:\n      mload(0x40)\n      dup1\n      swap2\n      sub\n      swap1\n      log1\n        /* \"val75.sol\":10689:10778  try this.set(max) {... */\n      jump(tag_62)\n    tag_57:\n    tag_62:\n        /* \"val75.sol\":10832:10841  gasleft() */\n      gas\n        /* \"val75.sol\":10821:10829  startGas */\n      dup3\n        /* \"val75.sol\":10821:10841  startGas - gasleft() */\n      tag_63\n      swap2\n      swap1\n      tag_64\n      jump\t// in\n    tag_63:\n        /* \"val75.sol\":10790:10805  rejectedGasUsed */\n      0x04\n        /* \"val75.sol\":10790:10841  rejectedGasUsed =... */\n      dup2\n      swap1\n      sstore\n      pop\n        /* \"val75.sol\":10859:10945  GasMeasured(... */\n      0x4d605d112b717b70b80f393cc6a0239ae0459508e54af125ee28f92acbf7fc49\n        /* \"val75.sol\":10919:10934  rejectedGasUsed */\n      sload(0x04)\n        /* \"val75.sol\":10859:10945  GasMeasured(... */\n      mload(0x40)\n      tag_65\n      swap2\n      swap1\n      tag_66\n      jump\t// in\n    tag_65:\n      mload(0x40)\n      dup1\n      swap2\n      sub\n      swap1\n      log1\n        /* \"val75.sol\":10508:10953  {... */\n      pop\n      pop\n        /* \"val75.sol\":10462:10953  function testMaxUint()... */\n      jump\t// out\n        /* \"val75.sol\":8551:8571  uint256 public calls */\n    tag_22:\n      sload(0x02)\n      dup2\n      jump\t// out\n        /* \"val75.sol\":8491:8515  uint256 public lastValue */\n    tag_26:\n      sload(0x00)\n      dup2\n      jump\t// out\n        /* \"val75.sol\":11119:11826  function batchProcess(... */\n    tag_31:\n        /* \"val75.sol\":11314:11316  50 */\n      0x32\n        /* \"val75.sol\":11297:11303  values */\n      dup3\n      dup3\n        /* \"val75.sol\":11297:11310  values.length */\n      swap1\n      pop\n        /* \"val75.sol\":11297:11316  values.length <= 50 */\n      gt\n      iszero\n        /* \"val75.sol\":11275:11359  require(... */\n      tag_68\n      jumpi\n      mload(0x40)\n      0x08c379a000000000000000000000000000000000000000000000000000000000\n      dup2\n      mstore\n      0x04\n      add\n      tag_69\n      swap1\n      tag_70\n      jump\t// in\n    tag_69:\n      mload(0x40)\n      dup1\n      swap2\n      sub\n      swap1\n      revert\n    tag_68:\n        /* \"val75.sol\":11391:11400  uint256 i */\n      0x00\n        /* \"val75.sol\":11403:11404  0 */\n      0x00\n        /* \"val75.sol\":11391:11404  uint256 i = 0 */\n      swap1\n      pop\n        /* \"val75.sol\":11372:11819  for (... */\n    tag_71:\n        /* \"val75.sol\":11423:11429  values */\n      dup3\n      dup3\n        /* \"val75.sol\":11423:11436  values.length */\n      swap1\n      pop\n        /* \"val75.sol\":11419:11420  i */\n      dup2\n        /* \"val75.sol\":11419:11436  i < values.length */\n      lt\n        /* \"val75.sol\":11372:11819  for (... */\n      iszero\n      tag_72\n      jumpi\n        /* \"val75.sol\":11606:11623  type(uint256).max */\n      0xffffffffffffffffffffffffffffffffffffffffffffffffffffffffffffffff\n        /* \"val75.sol\":11576:11582  values */\n      dup4\n      dup4\n        /* \"val75.sol\":11583:11584  i */\n      dup4\n        /* \"val75.sol\":11576:11585  values[i] */\n      dup2\n      dup2\n      lt\n      tag_74\n      jumpi\n      tag_75\n      tag_76\n      jump\t// in\n    tag_75:\n    tag_74:\n      swap1\n      pop\n      0x20\n      mul\n      add\n      calldataload\n        /* \"val75.sol\":11576:11623  values[i] ==... */\n      sub\n        /* \"val75.sol\":11554:11772  if (... */\n      tag_77\n      jumpi\n        /* \"val75.sol\":11665:11727  MaxRejected(... */\n      0x4f3fff6349c10971d5385c5ee7c880674838440beff1f9c71d70836ad5f0c79b\n        /* \"val75.sol\":11699:11705  values */\n      dup4\n      dup4\n        /* \"val75.sol\":11706:11707  i */\n      dup4\n        /* \"val75.sol\":11699:11708  values[i] */\n      dup2\n      dup2\n      lt\n      tag_78\n      jumpi\n      tag_79\n      tag_76\n      jump\t// in\n    tag_79:\n    tag_78:\n      swap1\n      pop\n      0x20\n      mul\n      add\n      calldataload\n        /* \"val75.sol\":11665:11727  MaxRejected(... */\n      mload(0x40)\n      tag_80\n      swap2\n      swap1\n      tag_24\n      jump\t// in\n    tag_80:\n      mload(0x40)\n      dup1\n      swap2\n      sub\n      swap1\n      log1\n        /* \"val75.sol\":11748:11756  continue */\n      jump(tag_73)\n        /* \"val75.sol\":11554:11772  if (... */\n    tag_77:\n        /* \"val75.sol\":11788:11807  _safeSet(values[i]) */\n      tag_81\n        /* \"val75.sol\":11797:11803  values */\n      dup4\n      dup4\n        /* \"val75.sol\":11804:11805  i */\n      dup4\n        /* \"val75.sol\":11797:11806  values[i] */\n      dup2\n      dup2\n      lt\n      tag_82\n      jumpi\n      tag_83\n      tag_76\n      jump\t// in\n    tag_83:\n    tag_82:\n      swap1\n      pop\n      0x20\n      mul\n      add\n      calldataload\n        /* \"val75.sol\":11788:11796  _safeSet */\n      tag_84\n        /* \"val75.sol\":11788:11807  _safeSet(values[i]) */\n      jump\t// in\n    tag_81:\n        /* \"val75.sol\":11372:11819  for (... */\n    tag_73:\n        /* \"val75.sol\":11451:11454  i++ */\n      dup1\n      dup1\n      0x01\n      add\n      swap2\n      pop\n      pop\n        /* \"val75.sol\":11372:11819  for (... */\n      jump(tag_71)\n    tag_72:\n      pop\n        /* \"val75.sol\":11119:11826  function batchProcess(... */\n      pop\n      pop\n      jump\t// out\n        /* \"val75.sol\":9983:10299  function set(... */\n    tag_35:\n        /* \"val75.sol\":10063:10079  uint256 startGas */\n      0x00\n        /* \"val75.sol\":10095:10104  gasleft() */\n      gas\n        /* \"val75.sol\":10063:10104  uint256 startGas =... */\n      swap1\n      pop\n        /* \"val75.sol\":10117:10132  _safeSet(value) */\n      tag_86\n        /* \"val75.sol\":10126:10131  value */\n      dup3\n        /* \"val75.sol\":10117:10125  _safeSet */\n      tag_84\n        /* \"val75.sol\":10117:10132  _safeSet(value) */\n      jump\t// in\n    tag_86:\n        /* \"val75.sol\":10185:10194  gasleft() */\n      gas\n        /* \"val75.sol\":10174:10182  startGas */\n      dup2\n        /* \"val75.sol\":10174:10194  startGas - gasleft() */\n      tag_87\n      swap2\n      swap1\n      tag_64\n      jump\t// in\n    tag_87:\n        /* \"val75.sol\":10145:10158  normalGasUsed */\n      0x03\n        /* \"val75.sol\":10145:10194  normalGasUsed =... */\n      dup2\n      swap1\n      sstore\n      pop\n        /* \"val75.sol\":10212:10291  GasMeasured(... */\n      0x4d605d112b717b70b80f393cc6a0239ae0459508e54af125ee28f92acbf7fc49\n        /* \"val75.sol\":10267:10280  normalGasUsed */\n      sload(0x03)\n        /* \"val75.sol\":10212:10291  GasMeasured(... */\n      mload(0x40)\n      tag_88\n      swap2\n      swap1\n      tag_89\n      jump\t// in\n    tag_88:\n      mload(0x40)\n      dup1\n      swap2\n      sub\n      swap1\n      log1\n        /* \"val75.sol\":10050:10299  {... */\n      pop\n        /* \"val75.sol\":9983:10299  function set(... */\n      pop\n      jump\t// out\n        /* \"val75.sol\":8524:8542  uint256 public sum */\n    tag_37:\n      sload(0x01)\n      dup2\n      jump\t// out\n        /* \"val75.sol\":13228:13479  function compareGas()... */\n    tag_40:\n        /* \"val75.sol\":13314:13331  uint256 normalGas */\n      0x00\n        /* \"val75.sol\":13346:13365  uint256 rejectedGas */\n      0x00\n        /* \"val75.sol\":13417:13430  normalGasUsed */\n      sload(0x03)\n        /* \"val75.sol\":13445:13460  rejectedGasUsed */\n      sload(0x04)\n        /* \"val75.sol\":13395:13471  return (... */\n      swap2\n      pop\n      swap2\n      pop\n        /* \"val75.sol\":13228:13479  function compareGas()... */\n      swap1\n      swap2\n      jump\t// out\n        /* \"val75.sol\":8621:8649  uint256 public normalGasUsed */\n    tag_44:\n      sload(0x03)\n      dup2\n      jump\t// out\n        /* \"val75.sol\":12029:13061  function fuzzTest(... */\n    tag_48:\n        /* \"val75.sol\":12132:12141  uint256 i */\n      0x00\n        /* \"val75.sol\":12144:12145  0 */\n      0x00\n        /* \"val75.sol\":12132:12145  uint256 i = 0 */\n      swap1\n      pop\n        /* \"val75.sol\":12113:13054  for (... */\n    tag_92:\n        /* \"val75.sol\":12164:12166  10 */\n      0x0a\n        /* \"val75.sol\":12160:12161  i */\n      dup2\n        /* \"val75.sol\":12160:12166  i < 10 */\n      lt\n        /* \"val75.sol\":12113:13054  for (... */\n      iszero\n      tag_93\n      jumpi\n        /* \"val75.sol\":12292:12311  uint256 randomValue */\n      0x00\n        /* \"val75.sol\":12444:12448  seed */\n      dup3\n        /* \"val75.sol\":12479:12480  i */\n      dup3\n        /* \"val75.sol\":12511:12526  block.timestamp */\n      timestamp\n        /* \"val75.sol\":12397:12553  abi.encodePacked(... */\n      add(0x20, mload(0x40))\n      tag_95\n      swap4\n      swap3\n      swap2\n      swap1\n      tag_96\n      jump\t// in\n    tag_95:\n      mload(0x40)\n      0x20\n      dup2\n      dup4\n      sub\n      sub\n      dup2\n      mstore\n      swap1\n      0x40\n      mstore\n        /* \"val75.sol\":12361:12576  keccak256(... */\n      dup1\n      mload\n      swap1\n      0x20\n      add\n      keccak256\n        /* \"val75.sol\":12331:12595  uint256(... */\n      0x00\n      shr\n        /* \"val75.sol\":12292:12595  uint256 randomValue =... */\n      swap1\n      pop\n        /* \"val75.sol\":12738:12755  type(uint256).max */\n      0xffffffffffffffffffffffffffffffffffffffffffffffffffffffffffffffff\n        /* \"val75.sol\":12706:12717  randomValue */\n      dup2\n        /* \"val75.sol\":12706:12755  randomValue ==... */\n      sub\n        /* \"val75.sol\":12684:12938  if (... */\n      tag_97\n      jumpi\n        /* \"val75.sol\":12797:12893  FuzzValueTested(... */\n      0x5e80cf73a7fe17c5ffe92922b4d07cd0955db094418dfbe73148beebcb048a82\n        /* \"val75.sol\":12835:12846  randomValue */\n      dup2\n        /* \"val75.sol\":12869:12874  false */\n      0x00\n        /* \"val75.sol\":12797:12893  FuzzValueTested(... */\n      mload(0x40)\n      tag_98\n      swap3\n      swap2\n      swap1\n      tag_99\n      jump\t// in\n    tag_98:\n      mload(0x40)\n      dup1\n      swap2\n      sub\n      swap1\n      log1\n        /* \"val75.sol\":12914:12922  continue */\n      pop\n      jump(tag_94)\n        /* \"val75.sol\":12684:12938  if (... */\n    tag_97:\n        /* \"val75.sol\":12959:13042  FuzzValueTested(... */\n      0x5e80cf73a7fe17c5ffe92922b4d07cd0955db094418dfbe73148beebcb048a82\n        /* \"val75.sol\":12993:13004  randomValue */\n      dup2\n        /* \"val75.sol\":13023:13027  true */\n      0x01\n        /* \"val75.sol\":12959:13042  FuzzValueTested(... */\n      mload(0x40)\n      tag_100\n      swap3\n      swap2\n      swap1\n      tag_99\n      jump\t// in\n    tag_100:\n      mload(0x40)\n      dup1\n      swap2\n      sub\n      swap1\n      log1\n        /* \"val75.sol\":12196:13054  {... */\n      pop\n        /* \"val75.sol\":12113:13054  for (... */\n    tag_94:\n        /* \"val75.sol\":12181:12184  i++ */\n      dup1\n      dup1\n      0x01\n      add\n      swap2\n      pop\n      pop\n        /* \"val75.sol\":12113:13054  for (... */\n      jump(tag_92)\n    tag_93:\n      pop\n        /* \"val75.sol\":12029:13061  function fuzzTest(... */\n      pop\n      jump\t// out\n        /* \"val75.sol\":8658:8688  uint256 public rejectedGasUsed */\n    tag_50:\n      sload(0x04)\n      dup2\n      jump\t// out\n        /* \"val75.sol\":9290:9813  function _safeSet(... */\n    tag_84:\n        /* \"val75.sol\":9474:9491  type(uint256).max */\n      0xffffffffffffffffffffffffffffffffffffffffffffffffffffffffffffffff\n        /* \"val75.sol\":9465:9470  value */\n      dup2\n        /* \"val75.sol\":9465:9491  value != type(uint256).max */\n      sub\n        /* \"val75.sol\":9443:9536  require(... */\n      tag_102\n      jumpi\n      mload(0x40)\n      0x08c379a000000000000000000000000000000000000000000000000000000000\n      dup2\n      mstore\n      0x04\n      add\n      tag_103\n      swap1\n      tag_104\n      jump\t// in\n    tag_103:\n      mload(0x40)\n      dup1\n      swap2\n      sub\n      swap1\n      revert\n    tag_102:\n        /* \"val75.sol\":9644:9647  sum */\n      sload(0x01)\n        /* \"val75.sol\":9635:9640  value */\n      dup2\n        /* \"val75.sol\":9629:9632  sum */\n      sload(0x01)\n        /* \"val75.sol\":9629:9640  sum + value */\n      tag_105\n      swap2\n      swap1\n      tag_106\n      jump\t// in\n    tag_105:\n        /* \"val75.sol\":9629:9647  sum + value >= sum */\n      lt\n      iszero\n        /* \"val75.sol\":9607:9692  require(... */\n      tag_107\n      jumpi\n      mload(0x40)\n      0x08c379a000000000000000000000000000000000000000000000000000000000\n      dup2\n      mstore\n      0x04\n      add\n      tag_108\n      swap1\n      tag_109\n      jump\t// in\n    tag_108:\n      mload(0x40)\n      dup1\n      swap2\n      sub\n      swap1\n      revert\n    tag_107:\n        /* \"val75.sol\":9717:9722  value */\n      dup1\n        /* \"val75.sol\":9705:9714  lastValue */\n      0x00\n        /* \"val75.sol\":9705:9722  lastValue = value */\n      dup2\n      swap1\n      sstore\n      pop\n        /* \"val75.sol\":9742:9747  value */\n      dup1\n        /* \"val75.sol\":9735:9738  sum */\n      0x01\n      0x00\n        /* \"val75.sol\":9735:9747  sum += value */\n      dup3\n      dup3\n      sload\n      tag_110\n      swap2\n      swap1\n      tag_106\n      jump\t// in\n    tag_110:\n      swap3\n      pop\n      pop\n      dup2\n      swap1\n      sstore\n      pop\n        /* \"val75.sol\":9760:9765  calls */\n      0x02\n      0x00\n        /* \"val75.sol\":9760:9767  calls++ */\n      dup2\n      sload\n      dup1\n      swap3\n      swap2\n      swap1\n      tag_111\n      swap1\n      tag_112\n      jump\t// in\n    tag_111:\n      swap2\n      swap1\n      pop\n      sstore\n      pop\n        /* \"val75.sol\":9785:9805  ValueReceived(value) */\n      0xe12e3b7047ff60a2dd763cf536a43597e5ce7fe7aa7476345bd4cd079912bcef\n        /* \"val75.sol\":9799:9804  value */\n      dup2\n        /* \"val75.sol\":9785:9805  ValueReceived(value) */\n      mload(0x40)\n      tag_113\n      swap2\n      swap1\n      tag_24\n      jump\t// in\n    tag_113:\n      mload(0x40)\n      dup1\n      swap2\n      sub\n      swap1\n      log1\n        /* \"val75.sol\":9290:9813  function _safeSet(... */\n      pop\n      jump\t// out\n        /* \"#utility.yul\":7:84   */\n    tag_114:\n        /* \"#utility.yul\":44:51   */\n      0x00\n        /* \"#utility.yul\":73:78   */\n      dup2\n        /* \"#utility.yul\":62:78   */\n      swap1\n      pop\n        /* \"#utility.yul\":7:84   */\n      swap2\n      swap1\n      pop\n      jump\t// out\n        /* \"#utility.yul\":90:208   */\n    tag_115:\n        /* \"#utility.yul\":177:201   */\n      tag_144\n        /* \"#utility.yul\":195:200   */\n      dup2\n        /* \"#utility.yul\":177:201   */\n      tag_114\n      jump\t// in\n    tag_144:\n        /* \"#utility.yul\":172:175   */\n      dup3\n        /* \"#utility.yul\":165:202   */\n      mstore\n        /* \"#utility.yul\":90:208   */\n      pop\n      pop\n      jump\t// out\n        /* \"#utility.yul\":214:656   */\n    tag_18:\n        /* \"#utility.yul\":363:367   */\n      0x00\n        /* \"#utility.yul\":401:403   */\n      0x60\n        /* \"#utility.yul\":390:399   */\n      dup3\n        /* \"#utility.yul\":386:404   */\n      add\n        /* \"#utility.yul\":378:404   */\n      swap1\n      pop\n        /* \"#utility.yul\":414:485   */\n      tag_146\n        /* \"#utility.yul\":482:483   */\n      0x00\n        /* \"#utility.yul\":471:480   */\n      dup4\n        /* \"#utility.yul\":467:484   */\n      add\n        /* \"#utility.yul\":458:464   */\n      dup7\n        /* \"#utility.yul\":414:485   */\n      tag_115\n      jump\t// in\n    tag_146:\n        /* \"#utility.yul\":495:567   */\n      tag_147\n        /* \"#utility.yul\":563:565   */\n      0x20\n        /* \"#utility.yul\":552:561   */\n      dup4\n        /* \"#utility.yul\":548:566   */\n      add\n        /* \"#utility.yul\":539:545   */\n      dup6\n        /* \"#utility.yul\":495:567   */\n      tag_115\n      jump\t// in\n    tag_147:\n        /* \"#utility.yul\":577:649   */\n      tag_148\n        /* \"#utility.yul\":645:647   */\n      0x40\n        /* \"#utility.yul\":634:643   */\n      dup4\n        /* \"#utility.yul\":630:648   */\n      add\n        /* \"#utility.yul\":621:627   */\n      dup5\n        /* \"#utility.yul\":577:649   */\n      tag_115\n      jump\t// in\n    tag_148:\n        /* \"#utility.yul\":214:656   */\n      swap5\n      swap4\n      pop\n      pop\n      pop\n      pop\n      jump\t// out\n        /* \"#utility.yul\":662:884   */\n    tag_24:\n        /* \"#utility.yul\":755:759   */\n      0x00\n        /* \"#utility.yul\":793:795   */\n      0x20\n        /* \"#utility.yul\":782:791   */\n      dup3\n        /* \"#utility.yul\":778:796   */\n      add\n        /* \"#utility.yul\":770:796   */\n      swap1\n      pop\n        /* \"#utility.yul\":806:877   */\n      tag_150\n        /* \"#utility.yul\":874:875   */\n      0x00\n        /* \"#utility.yul\":863:872   */\n      dup4\n        /* \"#utility.yul\":859:876   */\n      add\n        /* \"#utility.yul\":850:856   */\n      dup5\n        /* \"#utility.yul\":806:877   */\n      tag_115\n      jump\t// in\n    tag_150:\n        /* \"#utility.yul\":662:884   */\n      swap3\n      swap2\n      pop\n      pop\n      jump\t// out\n        /* \"#utility.yul\":971:1088   */\n    tag_117:\n        /* \"#utility.yul\":1080:1081   */\n      0x00\n        /* \"#utility.yul\":1077:1078   */\n      0x00\n        /* \"#utility.yul\":1070:1082   */\n      revert\n        /* \"#utility.yul\":1094:1211   */\n    tag_118:\n        /* \"#utility.yul\":1203:1204   */\n      0x00\n        /* \"#utility.yul\":1200:1201   */\n      0x00\n        /* \"#utility.yul\":1193:1205   */\n      revert\n        /* \"#utility.yul\":1217:1334   */\n    tag_119:\n        /* \"#utility.yul\":1326:1327   */\n      0x00\n        /* \"#utility.yul\":1323:1324   */\n      0x00\n        /* \"#utility.yul\":1316:1328   */\n      revert\n        /* \"#utility.yul\":1340:1457   */\n    tag_120:\n        /* \"#utility.yul\":1449:1450   */\n      0x00\n        /* \"#utility.yul\":1446:1447   */\n      0x00\n        /* \"#utility.yul\":1439:1451   */\n      revert\n        /* \"#utility.yul\":1463:1580   */\n    tag_121:\n        /* \"#utility.yul\":1572:1573   */\n      0x00\n        /* \"#utility.yul\":1569:1570   */\n      0x00\n        /* \"#utility.yul\":1562:1574   */\n      revert\n        /* \"#utility.yul\":1603:2171   */\n    tag_122:\n        /* \"#utility.yul\":1676:1684   */\n      0x00\n        /* \"#utility.yul\":1686:1692   */\n      0x00\n        /* \"#utility.yul\":1736:1739   */\n      dup4\n        /* \"#utility.yul\":1729:1733   */\n      0x1f\n        /* \"#utility.yul\":1721:1727   */\n      dup5\n        /* \"#utility.yul\":1717:1734   */\n      add\n        /* \"#utility.yul\":1713:1740   */\n      slt\n        /* \"#utility.yul\":1703:1825   */\n      tag_158\n      jumpi\n        /* \"#utility.yul\":1744:1823   */\n      tag_159\n      tag_119\n      jump\t// in\n    tag_159:\n        /* \"#utility.yul\":1703:1825   */\n    tag_158:\n        /* \"#utility.yul\":1857:1863   */\n      dup3\n        /* \"#utility.yul\":1844:1864   */\n      calldataload\n        /* \"#utility.yul\":1834:1864   */\n      swap1\n      pop\n        /* \"#utility.yul\":1887:1905   */\n      0xffffffffffffffff\n        /* \"#utility.yul\":1879:1885   */\n      dup2\n        /* \"#utility.yul\":1876:1906   */\n      gt\n        /* \"#utility.yul\":1873:1990   */\n      iszero\n      tag_160\n      jumpi\n        /* \"#utility.yul\":1909:1988   */\n      tag_161\n      tag_120\n      jump\t// in\n    tag_161:\n        /* \"#utility.yul\":1873:1990   */\n    tag_160:\n        /* \"#utility.yul\":2023:2027   */\n      0x20\n        /* \"#utility.yul\":2015:2021   */\n      dup4\n        /* \"#utility.yul\":2011:2028   */\n      add\n        /* \"#utility.yul\":1999:2028   */\n      swap2\n      pop\n        /* \"#utility.yul\":2077:2080   */\n      dup4\n        /* \"#utility.yul\":2069:2073   */\n      0x20\n        /* \"#utility.yul\":2061:2067   */\n      dup3\n        /* \"#utility.yul\":2057:2074   */\n      mul\n        /* \"#utility.yul\":2047:2055   */\n      dup4\n        /* \"#utility.yul\":2043:2075   */\n      add\n        /* \"#utility.yul\":2040:2081   */\n      gt\n        /* \"#utility.yul\":2037:2165   */\n      iszero\n      tag_162\n      jumpi\n        /* \"#utility.yul\":2084:2163   */\n      tag_163\n      tag_121\n      jump\t// in\n    tag_163:\n        /* \"#utility.yul\":2037:2165   */\n    tag_162:\n        /* \"#utility.yul\":1603:2171   */\n      swap3\n      pop\n      swap3\n      swap1\n      pop\n      jump\t// out\n        /* \"#utility.yul\":2177:2736   */\n    tag_30:\n        /* \"#utility.yul\":2263:2269   */\n      0x00\n        /* \"#utility.yul\":2271:2277   */\n      0x00\n        /* \"#utility.yul\":2320:2322   */\n      0x20\n        /* \"#utility.yul\":2308:2317   */\n      dup4\n        /* \"#utility.yul\":2299:2306   */\n      dup6\n        /* \"#utility.yul\":2295:2318   */\n      sub\n        /* \"#utility.yul\":2291:2323   */\n      slt\n        /* \"#utility.yul\":2288:2407   */\n      iszero\n      tag_165\n      jumpi\n        /* \"#utility.yul\":2326:2405   */\n      tag_166\n      tag_117\n      jump\t// in\n    tag_166:\n        /* \"#utility.yul\":2288:2407   */\n    tag_165:\n        /* \"#utility.yul\":2474:2475   */\n      0x00\n        /* \"#utility.yul\":2463:2472   */\n      dup4\n        /* \"#utility.yul\":2459:2476   */\n      add\n        /* \"#utility.yul\":2446:2477   */\n      calldataload\n        /* \"#utility.yul\":2504:2522   */\n      0xffffffffffffffff\n        /* \"#utility.yul\":2496:2502   */\n      dup2\n        /* \"#utility.yul\":2493:2523   */\n      gt\n        /* \"#utility.yul\":2490:2607   */\n      iszero\n      tag_167\n      jumpi\n        /* \"#utility.yul\":2526:2605   */\n      tag_168\n      tag_118\n      jump\t// in\n    tag_168:\n        /* \"#utility.yul\":2490:2607   */\n    tag_167:\n        /* \"#utility.yul\":2639:2719   */\n      tag_169\n        /* \"#utility.yul\":2711:2718   */\n      dup6\n        /* \"#utility.yul\":2702:2708   */\n      dup3\n        /* \"#utility.yul\":2691:2700   */\n      dup7\n        /* \"#utility.yul\":2687:2709   */\n      add\n        /* \"#utility.yul\":2639:2719   */\n      tag_122\n      jump\t// in\n    tag_169:\n        /* \"#utility.yul\":2621:2719   */\n      swap3\n      pop\n      swap3\n      pop\n        /* \"#utility.yul\":2417:2729   */\n      pop\n        /* \"#utility.yul\":2177:2736   */\n      swap3\n      pop\n      swap3\n      swap1\n      pop\n      jump\t// out\n        /* \"#utility.yul\":2742:2864   */\n    tag_123:\n        /* \"#utility.yul\":2815:2839   */\n      tag_171\n        /* \"#utility.yul\":2833:2838   */\n      dup2\n        /* \"#utility.yul\":2815:2839   */\n      tag_114\n      jump\t// in\n    tag_171:\n        /* \"#utility.yul\":2808:2813   */\n      dup2\n        /* \"#utility.yul\":2805:2840   */\n      eq\n        /* \"#utility.yul\":2795:2858   */\n      tag_172\n      jumpi\n        /* \"#utility.yul\":2854:2855   */\n      0x00\n        /* \"#utility.yul\":2851:2852   */\n      0x00\n        /* \"#utility.yul\":2844:2856   */\n      revert\n        /* \"#utility.yul\":2795:2858   */\n    tag_172:\n        /* \"#utility.yul\":2742:2864   */\n      pop\n      jump\t// out\n        /* \"#utility.yul\":2870:3009   */\n    tag_124:\n        /* \"#utility.yul\":2916:2921   */\n      0x00\n        /* \"#utility.yul\":2954:2960   */\n      dup2\n        /* \"#utility.yul\":2941:2961   */\n      calldataload\n        /* \"#utility.yul\":2932:2961   */\n      swap1\n      pop\n        /* \"#utility.yul\":2970:3003   */\n      tag_174\n        /* \"#utility.yul\":2997:3002   */\n      dup2\n        /* \"#utility.yul\":2970:3003   */\n      tag_123\n      jump\t// in\n    tag_174:\n        /* \"#utility.yul\":2870:3009   */\n      swap3\n      swap2\n      pop\n      pop\n      jump\t// out\n        /* \"#utility.yul\":3015:3344   */\n    tag_34:\n        /* \"#utility.yul\":3074:3080   */\n      0x00\n        /* \"#utility.yul\":3123:3125   */\n      0x20\n        /* \"#utility.yul\":3111:3120   */\n      dup3\n        /* \"#utility.yul\":3102:3109   */\n      dup5\n        /* \"#utility.yul\":3098:3121   */\n      sub\n        /* \"#utility.yul\":3094:3126   */\n      slt\n        /* \"#utility.yul\":3091:3210   */\n      iszero\n      tag_176\n      jumpi\n        /* \"#utility.yul\":3129:3208   */\n      tag_177\n      tag_117\n      jump\t// in\n    tag_177:\n        /* \"#utility.yul\":3091:3210   */\n    tag_176:\n        /* \"#utility.yul\":3249:3250   */\n      0x00\n        /* \"#utility.yul\":3274:3327   */\n      tag_178\n        /* \"#utility.yul\":3319:3326   */\n      dup5\n        /* \"#utility.yul\":3310:3316   */\n      dup3\n        /* \"#utility.yul\":3299:3308   */\n      dup6\n        /* \"#utility.yul\":3295:3317   */\n      add\n        /* \"#utility.yul\":3274:3327   */\n      tag_124\n      jump\t// in\n    tag_178:\n        /* \"#utility.yul\":3264:3327   */\n      swap2\n      pop\n        /* \"#utility.yul\":3220:3337   */\n      pop\n        /* \"#utility.yul\":3015:3344   */\n      swap3\n      swap2\n      pop\n      pop\n      jump\t// out\n        /* \"#utility.yul\":3350:3682   */\n    tag_42:\n        /* \"#utility.yul\":3471:3475   */\n      0x00\n        /* \"#utility.yul\":3509:3511   */\n      0x40\n        /* \"#utility.yul\":3498:3507   */\n      dup3\n        /* \"#utility.yul\":3494:3512   */\n      add\n        /* \"#utility.yul\":3486:3512   */\n      swap1\n      pop\n        /* \"#utility.yul\":3522:3593   */\n      tag_180\n        /* \"#utility.yul\":3590:3591   */\n      0x00\n        /* \"#utility.yul\":3579:3588   */\n      dup4\n        /* \"#utility.yul\":3575:3592   */\n      add\n        /* \"#utility.yul\":3566:3572   */\n      dup6\n        /* \"#utility.yul\":3522:3593   */\n      tag_115\n      jump\t// in\n    tag_180:\n        /* \"#utility.yul\":3603:3675   */\n      tag_181\n        /* \"#utility.yul\":3671:3673   */\n      0x20\n        /* \"#utility.yul\":3660:3669   */\n      dup4\n        /* \"#utility.yul\":3656:3674   */\n      add\n        /* \"#utility.yul\":3647:3653   */\n      dup5\n        /* \"#utility.yul\":3603:3675   */\n      tag_115\n      jump\t// in\n    tag_181:\n        /* \"#utility.yul\":3350:3682   */\n      swap4\n      swap3\n      pop\n      pop\n      pop\n      jump\t// out\n        /* \"#utility.yul\":3688:3868   */\n    tag_125:\n        /* \"#utility.yul\":3736:3813   */\n      0x4e487b7100000000000000000000000000000000000000000000000000000000\n        /* \"#utility.yul\":3733:3734   */\n      0x00\n        /* \"#utility.yul\":3726:3814   */\n      mstore\n        /* \"#utility.yul\":3833:3837   */\n      0x11\n        /* \"#utility.yul\":3830:3831   */\n      0x04\n        /* \"#utility.yul\":3823:3838   */\n      mstore\n        /* \"#utility.yul\":3857:3861   */\n      0x24\n        /* \"#utility.yul\":3854:3855   */\n      0x00\n        /* \"#utility.yul\":3847:3862   */\n      revert\n        /* \"#utility.yul\":3874:4068   */\n    tag_64:\n        /* \"#utility.yul\":3914:3918   */\n      0x00\n        /* \"#utility.yul\":3934:3954   */\n      tag_184\n        /* \"#utility.yul\":3952:3953   */\n      dup3\n        /* \"#utility.yul\":3934:3954   */\n      tag_114\n      jump\t// in\n    tag_184:\n        /* \"#utility.yul\":3929:3954   */\n      swap2\n      pop\n        /* \"#utility.yul\":3968:3988   */\n      tag_185\n        /* \"#utility.yul\":3986:3987   */\n      dup4\n        /* \"#utility.yul\":3968:3988   */\n      tag_114\n      jump\t// in\n    tag_185:\n        /* \"#utility.yul\":3963:3988   */\n      swap3\n      pop\n        /* \"#utility.yul\":4012:4013   */\n      dup3\n        /* \"#utility.yul\":4009:4010   */\n      dup3\n        /* \"#utility.yul\":4005:4014   */\n      sub\n        /* \"#utility.yul\":3997:4014   */\n      swap1\n      pop\n        /* \"#utility.yul\":4036:4037   */\n      dup2\n        /* \"#utility.yul\":4030:4034   */\n      dup2\n        /* \"#utility.yul\":4027:4038   */\n      gt\n        /* \"#utility.yul\":4024:4061   */\n      iszero\n      tag_186\n      jumpi\n        /* \"#utility.yul\":4041:4059   */\n      tag_187\n      tag_125\n      jump\t// in\n    tag_187:\n        /* \"#utility.yul\":4024:4061   */\n    tag_186:\n        /* \"#utility.yul\":3874:4068   */\n      swap3\n      swap2\n      pop\n      pop\n      jump\t// out\n        /* \"#utility.yul\":4074:4243   */\n    tag_126:\n        /* \"#utility.yul\":4158:4169   */\n      0x00\n        /* \"#utility.yul\":4192:4198   */\n      dup3\n        /* \"#utility.yul\":4187:4190   */\n      dup3\n        /* \"#utility.yul\":4180:4199   */\n      mstore\n        /* \"#utility.yul\":4232:4236   */\n      0x20\n        /* \"#utility.yul\":4227:4230   */\n      dup3\n        /* \"#utility.yul\":4223:4237   */\n      add\n        /* \"#utility.yul\":4208:4237   */\n      swap1\n      pop\n        /* \"#utility.yul\":4074:4243   */\n      swap3\n      swap2\n      pop\n      pop\n      jump\t// out\n        /* \"#utility.yul\":4249:4416   */\n    tag_127:\n        /* \"#utility.yul\":4389:4408   */\n      0x52656a6563746564204d61782055696e74000000000000000000000000000000\n        /* \"#utility.yul\":4385:4386   */\n      0x00\n        /* \"#utility.yul\":4377:4383   */\n      dup3\n        /* \"#utility.yul\":4373:4387   */\n      add\n        /* \"#utility.yul\":4366:4409   */\n      mstore\n        /* \"#utility.yul\":4249:4416   */\n      pop\n      jump\t// out\n        /* \"#utility.yul\":4422:4788   */\n    tag_128:\n        /* \"#utility.yul\":4564:4567   */\n      0x00\n        /* \"#utility.yul\":4585:4652   */\n      tag_191\n        /* \"#utility.yul\":4649:4651   */\n      0x11\n        /* \"#utility.yul\":4644:4647   */\n      dup4\n        /* \"#utility.yul\":4585:4652   */\n      tag_126\n      jump\t// in\n    tag_191:\n        /* \"#utility.yul\":4578:4652   */\n      swap2\n      pop\n        /* \"#utility.yul\":4661:4754   */\n      tag_192\n        /* \"#utility.yul\":4750:4753   */\n      dup3\n        /* \"#utility.yul\":4661:4754   */\n      tag_127\n      jump\t// in\n    tag_192:\n        /* \"#utility.yul\":4779:4781   */\n      0x20\n        /* \"#utility.yul\":4774:4777   */\n      dup3\n        /* \"#utility.yul\":4770:4782   */\n      add\n        /* \"#utility.yul\":4763:4782   */\n      swap1\n      pop\n        /* \"#utility.yul\":4422:4788   */\n      swap2\n      swap1\n      pop\n      jump\t// out\n        /* \"#utility.yul\":4794:5323   */\n    tag_66:\n        /* \"#utility.yul\":4988:4992   */\n      0x00\n        /* \"#utility.yul\":5026:5028   */\n      0x40\n        /* \"#utility.yul\":5015:5024   */\n      dup3\n        /* \"#utility.yul\":5011:5029   */\n      add\n        /* \"#utility.yul\":5003:5029   */\n      swap1\n      pop\n        /* \"#utility.yul\":5075:5084   */\n      dup2\n        /* \"#utility.yul\":5069:5073   */\n      dup2\n        /* \"#utility.yul\":5065:5085   */\n      sub\n        /* \"#utility.yul\":5061:5062   */\n      0x00\n        /* \"#utility.yul\":5050:5059   */\n      dup4\n        /* \"#utility.yul\":5046:5063   */\n      add\n        /* \"#utility.yul\":5039:5086   */\n      mstore\n        /* \"#utility.yul\":5103:5234   */\n      tag_194\n        /* \"#utility.yul\":5229:5233   */\n      dup2\n        /* \"#utility.yul\":5103:5234   */\n      tag_128\n      jump\t// in\n    tag_194:\n        /* \"#utility.yul\":5095:5234   */\n      swap1\n      pop\n        /* \"#utility.yul\":5244:5316   */\n      tag_195\n        /* \"#utility.yul\":5312:5314   */\n      0x20\n        /* \"#utility.yul\":5301:5310   */\n      dup4\n        /* \"#utility.yul\":5297:5315   */\n      add\n        /* \"#utility.yul\":5288:5294   */\n      dup5\n        /* \"#utility.yul\":5244:5316   */\n      tag_115\n      jump\t// in\n    tag_195:\n        /* \"#utility.yul\":4794:5323   */\n      swap3\n      swap2\n      pop\n      pop\n      jump\t// out\n        /* \"#utility.yul\":5329:5494   */\n    tag_129:\n        /* \"#utility.yul\":5469:5486   */\n      0x426174636820746f6f206c617267650000000000000000000000000000000000\n        /* \"#utility.yul\":5465:5466   */\n      0x00\n        /* \"#utility.yul\":5457:5463   */\n      dup3\n        /* \"#utility.yul\":5453:5467   */\n      add\n        /* \"#utility.yul\":5446:5487   */\n      mstore\n        /* \"#utility.yul\":5329:5494   */\n      pop\n      jump\t// out\n        /* \"#utility.yul\":5500:5866   */\n    tag_130:\n        /* \"#utility.yul\":5642:5645   */\n      0x00\n        /* \"#utility.yul\":5663:5730   */\n      tag_198\n        /* \"#utility.yul\":5727:5729   */\n      0x0f\n        /* \"#utility.yul\":5722:5725   */\n      dup4\n        /* \"#utility.yul\":5663:5730   */\n      tag_126\n      jump\t// in\n    tag_198:\n        /* \"#utility.yul\":5656:5730   */\n      swap2\n      pop\n        /* \"#utility.yul\":5739:5832   */\n      tag_199\n        /* \"#utility.yul\":5828:5831   */\n      dup3\n        /* \"#utility.yul\":5739:5832   */\n      tag_129\n      jump\t// in\n    tag_199:\n        /* \"#utility.yul\":5857:5859   */\n      0x20\n        /* \"#utility.yul\":5852:5855   */\n      dup3\n        /* \"#utility.yul\":5848:5860   */\n      add\n        /* \"#utility.yul\":5841:5860   */\n      swap1\n      pop\n        /* \"#utility.yul\":5500:5866   */\n      swap2\n      swap1\n      pop\n      jump\t// out\n        /* \"#utility.yul\":5872:6291   */\n    tag_70:\n        /* \"#utility.yul\":6038:6042   */\n      0x00\n        /* \"#utility.yul\":6076:6078   */\n      0x20\n        /* \"#utility.yul\":6065:6074   */\n      dup3\n        /* \"#utility.yul\":6061:6079   */\n      add\n        /* \"#utility.yul\":6053:6079   */\n      swap1\n      pop\n        /* \"#utility.yul\":6125:6134   */\n      dup2\n        /* \"#utility.yul\":6119:6123   */\n      dup2\n        /* \"#utility.yul\":6115:6135   */\n      sub\n        /* \"#utility.yul\":6111:6112   */\n      0x00\n        /* \"#utility.yul\":6100:6109   */\n      dup4\n        /* \"#utility.yul\":6096:6113   */\n      add\n        /* \"#utility.yul\":6089:6136   */\n      mstore\n        /* \"#utility.yul\":6153:6284   */\n      tag_201\n        /* \"#utility.yul\":6279:6283   */\n      dup2\n        /* \"#utility.yul\":6153:6284   */\n      tag_130\n      jump\t// in\n    tag_201:\n        /* \"#utility.yul\":6145:6284   */\n      swap1\n      pop\n        /* \"#utility.yul\":5872:6291   */\n      swap2\n      swap1\n      pop\n      jump\t// out\n        /* \"#utility.yul\":6297:6477   */\n    tag_76:\n        /* \"#utility.yul\":6345:6422   */\n      0x4e487b7100000000000000000000000000000000000000000000000000000000\n        /* \"#utility.yul\":6342:6343   */\n      0x00\n        /* \"#utility.yul\":6335:6423   */\n      mstore\n        /* \"#utility.yul\":6442:6446   */\n      0x32\n        /* \"#utility.yul\":6439:6440   */\n      0x04\n        /* \"#utility.yul\":6432:6447   */\n      mstore\n        /* \"#utility.yul\":6466:6470   */\n      0x24\n        /* \"#utility.yul\":6463:6464   */\n      0x00\n        /* \"#utility.yul\":6456:6471   */\n      revert\n        /* \"#utility.yul\":6483:6645   */\n    tag_131:\n        /* \"#utility.yul\":6623:6637   */\n      0x4e6f726d616c2056616c75650000000000000000000000000000000000000000\n        /* \"#utility.yul\":6619:6620   */\n      0x00\n        /* \"#utility.yul\":6611:6617   */\n      dup3\n        /* \"#utility.yul\":6607:6621   */\n      add\n        /* \"#utility.yul\":6600:6638   */\n      mstore\n        /* \"#utility.yul\":6483:6645   */\n      pop\n      jump\t// out\n        /* \"#utility.yul\":6651:7017   */\n    tag_132:\n        /* \"#utility.yul\":6793:6796   */\n      0x00\n        /* \"#utility.yul\":6814:6881   */\n      tag_205\n        /* \"#utility.yul\":6878:6880   */\n      0x0c\n        /* \"#utility.yul\":6873:6876   */\n      dup4\n        /* \"#utility.yul\":6814:6881   */\n      tag_126\n      jump\t// in\n    tag_205:\n        /* \"#utility.yul\":6807:6881   */\n      swap2\n      pop\n        /* \"#utility.yul\":6890:6983   */\n      tag_206\n        /* \"#utility.yul\":6979:6982   */\n      dup3\n        /* \"#utility.yul\":6890:6983   */\n      tag_131\n      jump\t// in\n    tag_206:\n        /* \"#utility.yul\":7008:7010   */\n      0x20\n        /* \"#utility.yul\":7003:7006   */\n      dup3\n        /* \"#utility.yul\":6999:7011   */\n      add\n        /* \"#utility.yul\":6992:7011   */\n      swap1\n      pop\n        /* \"#utility.yul\":6651:7017   */\n      swap2\n      swap1\n      pop\n      jump\t// out\n        /* \"#utility.yul\":7023:7552   */\n    tag_89:\n        /* \"#utility.yul\":7217:7221   */\n      0x00\n        /* \"#utility.yul\":7255:7257   */\n      0x40\n        /* \"#utility.yul\":7244:7253   */\n      dup3\n        /* \"#utility.yul\":7240:7258   */\n      add\n        /* \"#utility.yul\":7232:7258   */\n      swap1\n      pop\n        /* \"#utility.yul\":7304:7313   */\n      dup2\n        /* \"#utility.yul\":7298:7302   */\n      dup2\n        /* \"#utility.yul\":7294:7314   */\n      sub\n        /* \"#utility.yul\":7290:7291   */\n      0x00\n        /* \"#utility.yul\":7279:7288   */\n      dup4\n        /* \"#utility.yul\":7275:7292   */\n      add\n        /* \"#utility.yul\":7268:7315   */\n      mstore\n        /* \"#utility.yul\":7332:7463   */\n      tag_208\n        /* \"#utility.yul\":7458:7462   */\n      dup2\n        /* \"#utility.yul\":7332:7463   */\n      tag_132\n      jump\t// in\n    tag_208:\n        /* \"#utility.yul\":7324:7463   */\n      swap1\n      pop\n        /* \"#utility.yul\":7473:7545   */\n      tag_209\n        /* \"#utility.yul\":7541:7543   */\n      0x20\n        /* \"#utility.yul\":7530:7539   */\n      dup4\n        /* \"#utility.yul\":7526:7544   */\n      add\n        /* \"#utility.yul\":7517:7523   */\n      dup5\n        /* \"#utility.yul\":7473:7545   */\n      tag_115\n      jump\t// in\n    tag_209:\n        /* \"#utility.yul\":7023:7552   */\n      swap3\n      swap2\n      pop\n      pop\n      jump\t// out\n        /* \"#utility.yul\":7558:7637   */\n    tag_133:\n        /* \"#utility.yul\":7597:7604   */\n      0x00\n        /* \"#utility.yul\":7626:7631   */\n      dup2\n        /* \"#utility.yul\":7615:7631   */\n      swap1\n      pop\n        /* \"#utility.yul\":7558:7637   */\n      swap2\n      swap1\n      pop\n      jump\t// out\n        /* \"#utility.yul\":7643:7800   */\n    tag_134:\n        /* \"#utility.yul\":7748:7793   */\n      tag_212\n        /* \"#utility.yul\":7768:7792   */\n      tag_213\n        /* \"#utility.yul\":7786:7791   */\n      dup3\n        /* \"#utility.yul\":7768:7792   */\n      tag_114\n      jump\t// in\n    tag_213:\n        /* \"#utility.yul\":7748:7793   */\n      tag_133\n      jump\t// in\n    tag_212:\n        /* \"#utility.yul\":7743:7746   */\n      dup3\n        /* \"#utility.yul\":7736:7794   */\n      mstore\n        /* \"#utility.yul\":7643:7800   */\n      pop\n      pop\n      jump\t// out\n        /* \"#utility.yul\":7806:8344   */\n    tag_96:\n        /* \"#utility.yul\":7974:7977   */\n      0x00\n        /* \"#utility.yul\":7989:8064   */\n      tag_215\n        /* \"#utility.yul\":8060:8063   */\n      dup3\n        /* \"#utility.yul\":8051:8057   */\n      dup7\n        /* \"#utility.yul\":7989:8064   */\n      tag_134\n      jump\t// in\n    tag_215:\n        /* \"#utility.yul\":8089:8091   */\n      0x20\n        /* \"#utility.yul\":8084:8087   */\n      dup3\n        /* \"#utility.yul\":8080:8092   */\n      add\n        /* \"#utility.yul\":8073:8092   */\n      swap2\n      pop\n        /* \"#utility.yul\":8102:8177   */\n      tag_216\n        /* \"#utility.yul\":8173:8176   */\n      dup3\n        /* \"#utility.yul\":8164:8170   */\n      dup6\n        /* \"#utility.yul\":8102:8177   */\n      tag_134\n      jump\t// in\n    tag_216:\n        /* \"#utility.yul\":8202:8204   */\n      0x20\n        /* \"#utility.yul\":8197:8200   */\n      dup3\n        /* \"#utility.yul\":8193:8205   */\n      add\n        /* \"#utility.yul\":8186:8205   */\n      swap2\n      pop\n        /* \"#utility.yul\":8215:8290   */\n      tag_217\n        /* \"#utility.yul\":8286:8289   */\n      dup3\n        /* \"#utility.yul\":8277:8283   */\n      dup5\n        /* \"#utility.yul\":8215:8290   */\n      tag_134\n      jump\t// in\n    tag_217:\n        /* \"#utility.yul\":8315:8317   */\n      0x20\n        /* \"#utility.yul\":8310:8313   */\n      dup3\n        /* \"#utility.yul\":8306:8318   */\n      add\n        /* \"#utility.yul\":8299:8318   */\n      swap2\n      pop\n        /* \"#utility.yul\":8335:8338   */\n      dup2\n        /* \"#utility.yul\":8328:8338   */\n      swap1\n      pop\n        /* \"#utility.yul\":7806:8344   */\n      swap5\n      swap4\n      pop\n      pop\n      pop\n      pop\n      jump\t// out\n        /* \"#utility.yul\":8350:8440   */\n    tag_135:\n        /* \"#utility.yul\":8384:8391   */\n      0x00\n        /* \"#utility.yul\":8427:8432   */\n      dup2\n        /* \"#utility.yul\":8420:8433   */\n      iszero\n        /* \"#utility.yul\":8413:8434   */\n      iszero\n        /* \"#utility.yul\":8402:8434   */\n      swap1\n      pop\n        /* \"#utility.yul\":8350:8440   */\n      swap2\n      swap1\n      pop\n      jump\t// out\n        /* \"#utility.yul\":8446:8555   */\n    tag_136:\n        /* \"#utility.yul\":8527:8548   */\n      tag_220\n        /* \"#utility.yul\":8542:8547   */\n      dup2\n        /* \"#utility.yul\":8527:8548   */\n      tag_135\n      jump\t// in\n    tag_220:\n        /* \"#utility.yul\":8522:8525   */\n      dup3\n        /* \"#utility.yul\":8515:8549   */\n      mstore\n        /* \"#utility.yul\":8446:8555   */\n      pop\n      pop\n      jump\t// out\n        /* \"#utility.yul\":8561:8881   */\n    tag_99:\n        /* \"#utility.yul\":8676:8680   */\n      0x00\n        /* \"#utility.yul\":8714:8716   */\n      0x40\n        /* \"#utility.yul\":8703:8712   */\n      dup3\n        /* \"#utility.yul\":8699:8717   */\n      add\n        /* \"#utility.yul\":8691:8717   */\n      swap1\n      pop\n        /* \"#utility.yul\":8727:8798   */\n      tag_222\n        /* \"#utility.yul\":8795:8796   */\n      0x00\n        /* \"#utility.yul\":8784:8793   */\n      dup4\n        /* \"#utility.yul\":8780:8797   */\n      add\n        /* \"#utility.yul\":8771:8777   */\n      dup6\n        /* \"#utility.yul\":8727:8798   */\n      tag_115\n      jump\t// in\n    tag_222:\n        /* \"#utility.yul\":8808:8874   */\n      tag_223\n        /* \"#utility.yul\":8870:8872   */\n      0x20\n        /* \"#utility.yul\":8859:8868   */\n      dup4\n        /* \"#utility.yul\":8855:8873   */\n      add\n        /* \"#utility.yul\":8846:8852   */\n      dup5\n        /* \"#utility.yul\":8808:8874   */\n      tag_136\n      jump\t// in\n    tag_223:\n        /* \"#utility.yul\":8561:8881   */\n      swap4\n      swap3\n      pop\n      pop\n      pop\n      jump\t// out\n        /* \"#utility.yul\":8887:9054   */\n    tag_137:\n        /* \"#utility.yul\":9027:9046   */\n      0x4d61782075696e742072656a6563746564000000000000000000000000000000\n        /* \"#utility.yul\":9023:9024   */\n      0x00\n        /* \"#utility.yul\":9015:9021   */\n      dup3\n        /* \"#utility.yul\":9011:9025   */\n      add\n        /* \"#utility.yul\":9004:9047   */\n      mstore\n        /* \"#utility.yul\":8887:9054   */\n      pop\n      jump\t// out\n        /* \"#utility.yul\":9060:9426   */\n    tag_138:\n        /* \"#utility.yul\":9202:9205   */\n      0x00\n        /* \"#utility.yul\":9223:9290   */\n      tag_226\n        /* \"#utility.yul\":9287:9289   */\n      0x11\n        /* \"#utility.yul\":9282:9285   */\n      dup4\n        /* \"#utility.yul\":9223:9290   */\n      tag_126\n      jump\t// in\n    tag_226:\n        /* \"#utility.yul\":9216:9290   */\n      swap2\n      pop\n        /* \"#utility.yul\":9299:9392   */\n      tag_227\n        /* \"#utility.yul\":9388:9391   */\n      dup3\n        /* \"#utility.yul\":9299:9392   */\n      tag_137\n      jump\t// in\n    tag_227:\n        /* \"#utility.yul\":9417:9419   */\n      0x20\n        /* \"#utility.yul\":9412:9415   */\n      dup3\n        /* \"#utility.yul\":9408:9420   */\n      add\n        /* \"#utility.yul\":9401:9420   */\n      swap1\n      pop\n        /* \"#utility.yul\":9060:9426   */\n      swap2\n      swap1\n      pop\n      jump\t// out\n        /* \"#utility.yul\":9432:9851   */\n    tag_104:\n        /* \"#utility.yul\":9598:9602   */\n      0x00\n        /* \"#utility.yul\":9636:9638   */\n      0x20\n        /* \"#utility.yul\":9625:9634   */\n      dup3\n        /* \"#utility.yul\":9621:9639   */\n      add\n        /* \"#utility.yul\":9613:9639   */\n      swap1\n      pop\n        /* \"#utility.yul\":9685:9694   */\n      dup2\n        /* \"#utility.yul\":9679:9683   */\n      dup2\n        /* \"#utility.yul\":9675:9695   */\n      sub\n        /* \"#utility.yul\":9671:9672   */\n      0x00\n        /* \"#utility.yul\":9660:9669   */\n      dup4\n        /* \"#utility.yul\":9656:9673   */\n      add\n        /* \"#utility.yul\":9649:9696   */\n      mstore\n        /* \"#utility.yul\":9713:9844   */\n      tag_229\n        /* \"#utility.yul\":9839:9843   */\n      dup2\n        /* \"#utility.yul\":9713:9844   */\n      tag_138\n      jump\t// in\n    tag_229:\n        /* \"#utility.yul\":9705:9844   */\n      swap1\n      pop\n        /* \"#utility.yul\":9432:9851   */\n      swap2\n      swap1\n      pop\n      jump\t// out\n        /* \"#utility.yul\":9857:10048   */\n    tag_106:\n        /* \"#utility.yul\":9897:9900   */\n      0x00\n        /* \"#utility.yul\":9916:9936   */\n      tag_231\n        /* \"#utility.yul\":9934:9935   */\n      dup3\n        /* \"#utility.yul\":9916:9936   */\n      tag_114\n      jump\t// in\n    tag_231:\n        /* \"#utility.yul\":9911:9936   */\n      swap2\n      pop\n        /* \"#utility.yul\":9950:9970   */\n      tag_232\n        /* \"#utility.yul\":9968:9969   */\n      dup4\n        /* \"#utility.yul\":9950:9970   */\n      tag_114\n      jump\t// in\n    tag_232:\n        /* \"#utility.yul\":9945:9970   */\n      swap3\n      pop\n        /* \"#utility.yul\":9993:9994   */\n      dup3\n        /* \"#utility.yul\":9990:9991   */\n      dup3\n        /* \"#utility.yul\":9986:9995   */\n      add\n        /* \"#utility.yul\":9979:9995   */\n      swap1\n      pop\n        /* \"#utility.yul\":10014:10017   */\n      dup1\n        /* \"#utility.yul\":10011:10012   */\n      dup3\n        /* \"#utility.yul\":10008:10018   */\n      gt\n        /* \"#utility.yul\":10005:10041   */\n      iszero\n      tag_233\n      jumpi\n        /* \"#utility.yul\":10021:10039   */\n      tag_234\n      tag_125\n      jump\t// in\n    tag_234:\n        /* \"#utility.yul\":10005:10041   */\n    tag_233:\n        /* \"#utility.yul\":9857:10048   */\n      swap3\n      swap2\n      pop\n      pop\n      jump\t// out\n        /* \"#utility.yul\":10054:10221   */\n    tag_139:\n        /* \"#utility.yul\":10194:10213   */\n      0x4f766572666c6f77206465746563746564000000000000000000000000000000\n        /* \"#utility.yul\":10190:10191   */\n      0x00\n        /* \"#utility.yul\":10182:10188   */\n      dup3\n        /* \"#utility.yul\":10178:10192   */\n      add\n        /* \"#utility.yul\":10171:10214   */\n      mstore\n        /* \"#utility.yul\":10054:10221   */\n      pop\n      jump\t// out\n        /* \"#utility.yul\":10227:10593   */\n    tag_140:\n        /* \"#utility.yul\":10369:10372   */\n      0x00\n        /* \"#utility.yul\":10390:10457   */\n      tag_237\n        /* \"#utility.yul\":10454:10456   */\n      0x11\n        /* \"#utility.yul\":10449:10452   */\n      dup4\n        /* \"#utility.yul\":10390:10457   */\n      tag_126\n      jump\t// in\n    tag_237:\n        /* \"#utility.yul\":10383:10457   */\n      swap2\n      pop\n        /* \"#utility.yul\":10466:10559   */\n      tag_238\n        /* \"#utility.yul\":10555:10558   */\n      dup3\n        /* \"#utility.yul\":10466:10559   */\n      tag_139\n      jump\t// in\n    tag_238:\n        /* \"#utility.yul\":10584:10586   */\n      0x20\n        /* \"#utility.yul\":10579:10582   */\n      dup3\n        /* \"#utility.yul\":10575:10587   */\n      add\n        /* \"#utility.yul\":10568:10587   */\n      swap1\n      pop\n        /* \"#utility.yul\":10227:10593   */\n      swap2\n      swap1\n      pop\n      jump\t// out\n        /* \"#utility.yul\":10599:11018   */\n    tag_109:\n        /* \"#utility.yul\":10765:10769   */\n      0x00\n        /* \"#utility.yul\":10803:10805   */\n      0x20\n        /* \"#utility.yul\":10792:10801   */\n      dup3\n        /* \"#utility.yul\":10788:10806   */\n      add\n        /* \"#utility.yul\":10780:10806   */\n      swap1\n      pop\n        /* \"#utility.yul\":10852:10861   */\n      dup2\n        /* \"#utility.yul\":10846:10850   */\n      dup2\n        /* \"#utility.yul\":10842:10862   */\n      sub\n        /* \"#utility.yul\":10838:10839   */\n      0x00\n        /* \"#utility.yul\":10827:10836   */\n      dup4\n        /* \"#utility.yul\":10823:10840   */\n      add\n        /* \"#utility.yul\":10816:10863   */\n      mstore\n        /* \"#utility.yul\":10880:11011   */\n      tag_240\n        /* \"#utility.yul\":11006:11010   */\n      dup2\n        /* \"#utility.yul\":10880:11011   */\n      tag_140\n      jump\t// in\n    tag_240:\n        /* \"#utility.yul\":10872:11011   */\n      swap1\n      pop\n        /* \"#utility.yul\":10599:11018   */\n      swap2\n      swap1\n      pop\n      jump\t// out\n        /* \"#utility.yul\":11024:11257   */\n    tag_112:\n        /* \"#utility.yul\":11063:11066   */\n      0x00\n        /* \"#utility.yul\":11086:11110   */\n      tag_242\n        /* \"#utility.yul\":11104:11109   */\n      dup3\n        /* \"#utility.yul\":11086:11110   */\n      tag_114\n      jump\t// in\n    tag_242:\n        /* \"#utility.yul\":11077:11110   */\n      swap2\n      pop\n        /* \"#utility.yul\":11132:11198   */\n      0xffffffffffffffffffffffffffffffffffffffffffffffffffffffffffffffff\n        /* \"#utility.yul\":11125:11130   */\n      dup3\n        /* \"#utility.yul\":11122:11199   */\n      sub\n        /* \"#utility.yul\":11119:11222   */\n      tag_243\n      jumpi\n        /* \"#utility.yul\":11202:11220   */\n      tag_244\n      tag_125\n      jump\t// in\n    tag_244:\n        /* \"#utility.yul\":11119:11222   */\n    tag_243:\n        /* \"#utility.yul\":11249:11250   */\n      0x01\n        /* \"#utility.yul\":11242:11247   */\n      dup3\n        /* \"#utility.yul\":11238:11251   */\n      add\n        /* \"#utility.yul\":11231:11251   */\n      swap1\n      pop\n        /* \"#utility.yul\":11024:11257   */\n      swap2\n      swap1\n      pop\n      jump\t// out\n\n    auxdata: 0xa264697066735822122090ba3e194e5c03ac784233e4dcbcf07c26c214d3d80cdc8223934b0a7ec4931b64736f6c63430008220033\n}\n",
				"bytecode": {
					"linkReferences": {},
					"object": "6080604052348015600e575f5ffd5b50610c6f8061001c5f395ff3fe608060405234801561000f575f5ffd5b50600436106100a7575f3560e01c806360fe47b11161006f57806360fe47b11461012d578063853255cc146101495780638f32aa781461016757806395b273b514610186578063e1ce9200146101a4578063f74f9320146101c0576100a7565b80631865c57d146100ab57806320644867146100cb578063305f72b7146100d557806343183834146100f3578063540c101814610111575b5f5ffd5b6100b36101de565b6040516100c2939291906106e3565b60405180910390f35b6100d36101f4565b005b6100dd61030d565b6040516100ea9190610718565b60405180910390f35b6100fb610313565b6040516101089190610718565b60405180910390f35b61012b6004803603810190610126919061079a565b610318565b005b6101476004803603810190610142919061080f565b610439565b005b610151610495565b60405161015e9190610718565b60405180910390f35b61016f61049b565b60405161017d92919061083a565b60405180910390f35b61018e6104ab565b60405161019b9190610718565b60405180910390f35b6101be60048036038101906101b9919061080f565b6104b1565b005b6101c86105a2565b6040516101d59190610718565b60405180910390f35b5f5f5f5f54600154600254925092509250909192565b5f5a90505f7fffffffffffffffffffffffffffffffffffffffffffffffffffffffffffffffff90503073ffffffffffffffffffffffffffffffffffffffff166360fe47b1826040518263ffffffff1660e01b81526004016102559190610718565b5f604051808303815f87803b15801561026c575f5ffd5b505af192505050801561027d575060015b6102bd577f4f3fff6349c10971d5385c5ee7c880674838440beff1f9c71d70836ad5f0c79b816040516102b09190610718565b60405180910390a16102be565b5b5a826102ca919061088e565b6004819055507f4d605d112b717b70b80f393cc6a0239ae0459508e54af125ee28f92acbf7fc49600454604051610301919061091b565b60405180910390a15050565b60025481565b5f5481565b603282829050111561035f576040517f08c379a000000000000000000000000000000000000000000000000000000000815260040161035690610991565b60405180910390fd5b5f5f90505b82829050811015610434577fffffffffffffffffffffffffffffffffffffffffffffffffffffffffffffffff8383838181106103a3576103a26109af565b5b9050602002013503610404577f4f3fff6349c10971d5385c5ee7c880674838440beff1f9c71d70836ad5f0c79b8383838181106103e3576103e26109af565b5b905060200201356040516103f79190610718565b60405180910390a1610427565b61042683838381811061041a576104196109af565b5b905060200201356105a8565b5b8080600101915050610364565b505050565b5f5a9050610446826105a8565b5a81610452919061088e565b6003819055507f4d605d112b717b70b80f393cc6a0239ae0459508e54af125ee28f92acbf7fc496003546040516104899190610a26565b60405180910390a15050565b60015481565b5f5f600354600454915091509091565b60035481565b5f5f90505b600a81101561059e575f8282426040516020016104d593929190610a72565b604051602081830303815290604052805190602001205f1c90507fffffffffffffffffffffffffffffffffffffffffffffffffffffffffffffffff8103610555577f5e80cf73a7fe17c5ffe92922b4d07cd0955db094418dfbe73148beebcb048a82815f604051610547929190610ac8565b60405180910390a150610591565b7f5e80cf73a7fe17c5ffe92922b4d07cd0955db094418dfbe73148beebcb048a82816001604051610587929190610ac8565b60405180910390a1505b80806001019150506104b6565b5050565b60045481565b7fffffffffffffffffffffffffffffffffffffffffffffffffffffffffffffffff810361060a576040517f08c379a000000000000000000000000000000000000000000000000000000000815260040161060190610b39565b60405180910390fd5b6001548160015461061b9190610b57565b101561065c576040517f08c379a000000000000000000000000000000000000000000000000000000000815260040161065390610bd4565b60405180910390fd5b805f819055508060015f8282546106739190610b57565b9250508190555060025f81548092919061068c90610bf2565b91905055507fe12e3b7047ff60a2dd763cf536a43597e5ce7fe7aa7476345bd4cd079912bcef816040516106c09190610718565b60405180910390a150565b5f819050919050565b6106dd816106cb565b82525050565b5f6060820190506106f65f8301866106d4565b61070360208301856106d4565b61071060408301846106d4565b949350505050565b5f60208201905061072b5f8301846106d4565b92915050565b5f5ffd5b5f5ffd5b5f5ffd5b5f5ffd5b5f5ffd5b5f5f83601f84011261075a57610759610739565b5b8235905067ffffffffffffffff8111156107775761077661073d565b5b60208301915083602082028301111561079357610792610741565b5b9250929050565b5f5f602083850312156107b0576107af610731565b5b5f83013567ffffffffffffffff8111156107cd576107cc610735565b5b6107d985828601610745565b92509250509250929050565b6107ee816106cb565b81146107f8575f5ffd5b50565b5f81359050610809816107e5565b92915050565b5f6020828403121561082457610823610731565b5b5f610831848285016107fb565b91505092915050565b5f60408201905061084d5f8301856106d4565b61085a60208301846106d4565b9392505050565b7f4e487b71000000000000000000000000000000000000000000000000000000005f52601160045260245ffd5b5f610898826106cb565b91506108a3836106cb565b92508282039050818111156108bb576108ba610861565b5b92915050565b5f82825260208201905092915050565b7f52656a6563746564204d61782055696e740000000000000000000000000000005f82015250565b5f6109056011836108c1565b9150610910826108d1565b602082019050919050565b5f6040820190508181035f830152610932816108f9565b905061094160208301846106d4565b92915050565b7f426174636820746f6f206c6172676500000000000000000000000000000000005f82015250565b5f61097b600f836108c1565b915061098682610947565b602082019050919050565b5f6020820190508181035f8301526109a88161096f565b9050919050565b7f4e487b71000000000000000000000000000000000000000000000000000000005f52603260045260245ffd5b7f4e6f726d616c2056616c756500000000000000000000000000000000000000005f82015250565b5f610a10600c836108c1565b9150610a1b826109dc565b602082019050919050565b5f6040820190508181035f830152610a3d81610a04565b9050610a4c60208301846106d4565b92915050565b5f819050919050565b610a6c610a67826106cb565b610a52565b82525050565b5f610a7d8286610a5b565b602082019150610a8d8285610a5b565b602082019150610a9d8284610a5b565b602082019150819050949350505050565b5f8115159050919050565b610ac281610aae565b82525050565b5f604082019050610adb5f8301856106d4565b610ae86020830184610ab9565b9392505050565b7f4d61782075696e742072656a65637465640000000000000000000000000000005f82015250565b5f610b236011836108c1565b9150610b2e82610aef565b602082019050919050565b5f6020820190508181035f830152610b5081610b17565b9050919050565b5f610b61826106cb565b9150610b6c836106cb565b9250828201905080821115610b8457610b83610861565b5b92915050565b7f4f766572666c6f772064657465637465640000000000000000000000000000005f82015250565b5f610bbe6011836108c1565b9150610bc982610b8a565b602082019050919050565b5f6020820190508181035f830152610beb81610bb2565b9050919050565b5f610bfc826106cb565b91507fffffffffffffffffffffffffffffffffffffffffffffffffffffffffffffffff8203610c2e57610c2d610861565b5b60018201905091905056fea264697066735822122090ba3e194e5c03ac784233e4dcbcf07c26c214d3d80cdc8223934b0a7ec4931b64736f6c63430008220033",
					"opcodes": "PUSH1 0x80 PUSH1 0x40 MSTORE CALLVALUE DUP1 ISZERO PUSH1 0xE JUMPI PUSH0 PUSH0 REVERT JUMPDEST POP PUSH2 0xC6F DUP1 PUSH2 0x1C PUSH0 CODECOPY PUSH0 RETURN INVALID PUSH1 0x80 PUSH1 0x40 MSTORE CALLVALUE DUP1 ISZERO PUSH2 0xF JUMPI PUSH0 PUSH0 REVERT JUMPDEST POP PUSH1 0x4 CALLDATASIZE LT PUSH2 0xA7 JUMPI PUSH0 CALLDATALOAD PUSH1 0xE0 SHR DUP1 PUSH4 0x60FE47B1 GT PUSH2 0x6F JUMPI DUP1 PUSH4 0x60FE47B1 EQ PUSH2 0x12D JUMPI DUP1 PUSH4 0x853255CC EQ PUSH2 0x149 JUMPI DUP1 PUSH4 0x8F32AA78 EQ PUSH2 0x167 JUMPI DUP1 PUSH4 0x95B273B5 EQ PUSH2 0x186 JUMPI DUP1 PUSH4 0xE1CE9200 EQ PUSH2 0x1A4 JUMPI DUP1 PUSH4 0xF74F9320 EQ PUSH2 0x1C0 JUMPI PUSH2 0xA7 JUMP JUMPDEST DUP1 PUSH4 0x1865C57D EQ PUSH2 0xAB JUMPI DUP1 PUSH4 0x20644867 EQ PUSH2 0xCB JUMPI DUP1 PUSH4 0x305F72B7 EQ PUSH2 0xD5 JUMPI DUP1 PUSH4 0x43183834 EQ PUSH2 0xF3 JUMPI DUP1 PUSH4 0x540C1018 EQ PUSH2 0x111 JUMPI JUMPDEST PUSH0 PUSH0 REVERT JUMPDEST PUSH2 0xB3 PUSH2 0x1DE JUMP JUMPDEST PUSH1 0x40 MLOAD PUSH2 0xC2 SWAP4 SWAP3 SWAP2 SWAP1 PUSH2 0x6E3 JUMP JUMPDEST PUSH1 0x40 MLOAD DUP1 SWAP2 SUB SWAP1 RETURN JUMPDEST PUSH2 0xD3 PUSH2 0x1F4 JUMP JUMPDEST STOP JUMPDEST PUSH2 0xDD PUSH2 0x30D JUMP JUMPDEST PUSH1 0x40 MLOAD PUSH2 0xEA SWAP2 SWAP1 PUSH2 0x718 JUMP JUMPDEST PUSH1 0x40 MLOAD DUP1 SWAP2 SUB SWAP1 RETURN JUMPDEST PUSH2 0xFB PUSH2 0x313 JUMP JUMPDEST PUSH1 0x40 MLOAD PUSH2 0x108 SWAP2 SWAP1 PUSH2 0x718 JUMP JUMPDEST PUSH1 0x40 MLOAD DUP1 SWAP2 SUB SWAP1 RETURN JUMPDEST PUSH2 0x12B PUSH1 0x4 DUP1 CALLDATASIZE SUB DUP2 ADD SWAP1 PUSH2 0x126 SWAP2 SWAP1 PUSH2 0x79A JUMP JUMPDEST PUSH2 0x318 JUMP JUMPDEST STOP JUMPDEST PUSH2 0x147 PUSH1 0x4 DUP1 CALLDATASIZE SUB DUP2 ADD SWAP1 PUSH2 0x142 SWAP2 SWAP1 PUSH2 0x80F JUMP JUMPDEST PUSH2 0x439 JUMP JUMPDEST STOP JUMPDEST PUSH2 0x151 PUSH2 0x495 JUMP JUMPDEST PUSH1 0x40 MLOAD PUSH2 0x15E SWAP2 SWAP1 PUSH2 0x718 JUMP JUMPDEST PUSH1 0x40 MLOAD DUP1 SWAP2 SUB SWAP1 RETURN JUMPDEST PUSH2 0x16F PUSH2 0x49B JUMP JUMPDEST PUSH1 0x40 MLOAD PUSH2 0x17D SWAP3 SWAP2 SWAP1 PUSH2 0x83A JUMP JUMPDEST PUSH1 0x40 MLOAD DUP1 SWAP2 SUB SWAP1 RETURN JUMPDEST PUSH2 0x18E PUSH2 0x4AB JUMP JUMPDEST PUSH1 0x40 MLOAD PUSH2 0x19B SWAP2 SWAP1 PUSH2 0x718 JUMP JUMPDEST PUSH1 0x40 MLOAD DUP1 SWAP2 SUB SWAP1 RETURN JUMPDEST PUSH2 0x1BE PUSH1 0x4 DUP1 CALLDATASIZE SUB DUP2 ADD SWAP1 PUSH2 0x1B9 SWAP2 SWAP1 PUSH2 0x80F JUMP JUMPDEST PUSH2 0x4B1 JUMP JUMPDEST STOP JUMPDEST PUSH2 0x1C8 PUSH2 0x5A2 JUMP JUMPDEST PUSH1 0x40 MLOAD PUSH2 0x1D5 SWAP2 SWAP1 PUSH2 0x718 JUMP JUMPDEST PUSH1 0x40 MLOAD DUP1 SWAP2 SUB SWAP1 RETURN JUMPDEST PUSH0 PUSH0 PUSH0 PUSH0 SLOAD PUSH1 0x1 SLOAD PUSH1 0x2 SLOAD SWAP3 POP SWAP3 POP SWAP3 POP SWAP1 SWAP2 SWAP3 JUMP JUMPDEST PUSH0 GAS SWAP1 POP PUSH0 PUSH32 0xFFFFFFFFFFFFFFFFFFFFFFFFFFFFFFFFFFFFFFFFFFFFFFFFFFFFFFFFFFFFFFFF SWAP1 POP ADDRESS PUSH20 0xFFFFFFFFFFFFFFFFFFFFFFFFFFFFFFFFFFFFFFFF AND PUSH4 0x60FE47B1 DUP3 PUSH1 0x40 MLOAD DUP3 PUSH4 0xFFFFFFFF AND PUSH1 0xE0 SHL DUP2 MSTORE PUSH1 0x4 ADD PUSH2 0x255 SWAP2 SWAP1 PUSH2 0x718 JUMP JUMPDEST PUSH0 PUSH1 0x40 MLOAD DUP1 DUP4 SUB DUP2 PUSH0 DUP8 DUP1 EXTCODESIZE ISZERO DUP1 ISZERO PUSH2 0x26C JUMPI PUSH0 PUSH0 REVERT JUMPDEST POP GAS CALL SWAP3 POP POP POP DUP1 ISZERO PUSH2 0x27D JUMPI POP PUSH1 0x1 JUMPDEST PUSH2 0x2BD JUMPI PUSH32 0x4F3FFF6349C10971D5385C5EE7C880674838440BEFF1F9C71D70836AD5F0C79B DUP2 PUSH1 0x40 MLOAD PUSH2 0x2B0 SWAP2 SWAP1 PUSH2 0x718 JUMP JUMPDEST PUSH1 0x40 MLOAD DUP1 SWAP2 SUB SWAP1 LOG1 PUSH2 0x2BE JUMP JUMPDEST JUMPDEST GAS DUP3 PUSH2 0x2CA SWAP2 SWAP1 PUSH2 0x88E JUMP JUMPDEST PUSH1 0x4 DUP2 SWAP1 SSTORE POP PUSH32 0x4D605D112B717B70B80F393CC6A0239AE0459508E54AF125EE28F92ACBF7FC49 PUSH1 0x4 SLOAD PUSH1 0x40 MLOAD PUSH2 0x301 SWAP2 SWAP1 PUSH2 0x91B JUMP JUMPDEST PUSH1 0x40 MLOAD DUP1 SWAP2 SUB SWAP1 LOG1 POP POP JUMP JUMPDEST PUSH1 0x2 SLOAD DUP2 JUMP JUMPDEST PUSH0 SLOAD DUP2 JUMP JUMPDEST PUSH1 0x32 DUP3 DUP3 SWAP1 POP GT ISZERO PUSH2 0x35F JUMPI PUSH1 0x40 MLOAD PUSH32 0x8C379A000000000000000000000000000000000000000000000000000000000 DUP2 MSTORE PUSH1 0x4 ADD PUSH2 0x356 SWAP1 PUSH2 0x991 JUMP JUMPDEST PUSH1 0x40 MLOAD DUP1 SWAP2 SUB SWAP1 REVERT JUMPDEST PUSH0 PUSH0 SWAP1 POP JUMPDEST DUP3 DUP3 SWAP1 POP DUP2 LT ISZERO PUSH2 0x434 JUMPI PUSH32 0xFFFFFFFFFFFFFFFFFFFFFFFFFFFFFFFFFFFFFFFFFFFFFFFFFFFFFFFFFFFFFFFF DUP4 DUP4 DUP4 DUP2 DUP2 LT PUSH2 0x3A3 JUMPI PUSH2 0x3A2 PUSH2 0x9AF JUMP JUMPDEST JUMPDEST SWAP1 POP PUSH1 0x20 MUL ADD CALLDATALOAD SUB PUSH2 0x404 JUMPI PUSH32 0x4F3FFF6349C10971D5385C5EE7C880674838440BEFF1F9C71D70836AD5F0C79B DUP4 DUP4 DUP4 DUP2 DUP2 LT PUSH2 0x3E3 JUMPI PUSH2 0x3E2 PUSH2 0x9AF JUMP JUMPDEST JUMPDEST SWAP1 POP PUSH1 0x20 MUL ADD CALLDATALOAD PUSH1 0x40 MLOAD PUSH2 0x3F7 SWAP2 SWAP1 PUSH2 0x718 JUMP JUMPDEST PUSH1 0x40 MLOAD DUP1 SWAP2 SUB SWAP1 LOG1 PUSH2 0x427 JUMP JUMPDEST PUSH2 0x426 DUP4 DUP4 DUP4 DUP2 DUP2 LT PUSH2 0x41A JUMPI PUSH2 0x419 PUSH2 0x9AF JUMP JUMPDEST JUMPDEST SWAP1 POP PUSH1 0x20 MUL ADD CALLDATALOAD PUSH2 0x5A8 JUMP JUMPDEST JUMPDEST DUP1 DUP1 PUSH1 0x1 ADD SWAP2 POP POP PUSH2 0x364 JUMP JUMPDEST POP POP POP JUMP JUMPDEST PUSH0 GAS SWAP1 POP PUSH2 0x446 DUP3 PUSH2 0x5A8 JUMP JUMPDEST GAS DUP2 PUSH2 0x452 SWAP2 SWAP1 PUSH2 0x88E JUMP JUMPDEST PUSH1 0x3 DUP2 SWAP1 SSTORE POP PUSH32 0x4D605D112B717B70B80F393CC6A0239AE0459508E54AF125EE28F92ACBF7FC49 PUSH1 0x3 SLOAD PUSH1 0x40 MLOAD PUSH2 0x489 SWAP2 SWAP1 PUSH2 0xA26 JUMP JUMPDEST PUSH1 0x40 MLOAD DUP1 SWAP2 SUB SWAP1 LOG1 POP POP JUMP JUMPDEST PUSH1 0x1 SLOAD DUP2 JUMP JUMPDEST PUSH0 PUSH0 PUSH1 0x3 SLOAD PUSH1 0x4 SLOAD SWAP2 POP SWAP2 POP SWAP1 SWAP2 JUMP JUMPDEST PUSH1 0x3 SLOAD DUP2 JUMP JUMPDEST PUSH0 PUSH0 SWAP1 POP JUMPDEST PUSH1 0xA DUP2 LT ISZERO PUSH2 0x59E JUMPI PUSH0 DUP3 DUP3 TIMESTAMP PUSH1 0x40 MLOAD PUSH1 0x20 ADD PUSH2 0x4D5 SWAP4 SWAP3 SWAP2 SWAP1 PUSH2 0xA72 JUMP JUMPDEST PUSH1 0x40 MLOAD PUSH1 0x20 DUP2 DUP4 SUB SUB DUP2 MSTORE SWAP1 PUSH1 0x40 MSTORE DUP1 MLOAD SWAP1 PUSH1 0x20 ADD KECCAK256 PUSH0 SHR SWAP1 POP PUSH32 0xFFFFFFFFFFFFFFFFFFFFFFFFFFFFFFFFFFFFFFFFFFFFFFFFFFFFFFFFFFFFFFFF DUP2 SUB PUSH2 0x555 JUMPI PUSH32 0x5E80CF73A7FE17C5FFE92922B4D07CD0955DB094418DFBE73148BEEBCB048A82 DUP2 PUSH0 PUSH1 0x40 MLOAD PUSH2 0x547 SWAP3 SWAP2 SWAP1 PUSH2 0xAC8 JUMP JUMPDEST PUSH1 0x40 MLOAD DUP1 SWAP2 SUB SWAP1 LOG1 POP PUSH2 0x591 JUMP JUMPDEST PUSH32 0x5E80CF73A7FE17C5FFE92922B4D07CD0955DB094418DFBE73148BEEBCB048A82 DUP2 PUSH1 0x1 PUSH1 0x40 MLOAD PUSH2 0x587 SWAP3 SWAP2 SWAP1 PUSH2 0xAC8 JUMP JUMPDEST PUSH1 0x40 MLOAD DUP1 SWAP2 SUB SWAP1 LOG1 POP JUMPDEST DUP1 DUP1 PUSH1 0x1 ADD SWAP2 POP POP PUSH2 0x4B6 JUMP JUMPDEST POP POP JUMP JUMPDEST PUSH1 0x4 SLOAD DUP2 JUMP JUMPDEST PUSH32 0xFFFFFFFFFFFFFFFFFFFFFFFFFFFFFFFFFFFFFFFFFFFFFFFFFFFFFFFFFFFFFFFF DUP2 SUB PUSH2 0x60A JUMPI PUSH1 0x40 MLOAD PUSH32 0x8C379A000000000000000000000000000000000000000000000000000000000 DUP2 MSTORE PUSH1 0x4 ADD PUSH2 0x601 SWAP1 PUSH2 0xB39 JUMP JUMPDEST PUSH1 0x40 MLOAD DUP1 SWAP2 SUB SWAP1 REVERT JUMPDEST PUSH1 0x1 SLOAD DUP2 PUSH1 0x1 SLOAD PUSH2 0x61B SWAP2 SWAP1 PUSH2 0xB57 JUMP JUMPDEST LT ISZERO PUSH2 0x65C JUMPI PUSH1 0x40 MLOAD PUSH32 0x8C379A000000000000000000000000000000000000000000000000000000000 DUP2 MSTORE PUSH1 0x4 ADD PUSH2 0x653 SWAP1 PUSH2 0xBD4 JUMP JUMPDEST PUSH1 0x40 MLOAD DUP1 SWAP2 SUB SWAP1 REVERT JUMPDEST DUP1 PUSH0 DUP2 SWAP1 SSTORE POP DUP1 PUSH1 0x1 PUSH0 DUP3 DUP3 SLOAD PUSH2 0x673 SWAP2 SWAP1 PUSH2 0xB57 JUMP JUMPDEST SWAP3 POP POP DUP2 SWAP1 SSTORE POP PUSH1 0x2 PUSH0 DUP2 SLOAD DUP1 SWAP3 SWAP2 SWAP1 PUSH2 0x68C SWAP1 PUSH2 0xBF2 JUMP JUMPDEST SWAP2 SWAP1 POP SSTORE POP PUSH32 0xE12E3B7047FF60A2DD763CF536A43597E5CE7FE7AA7476345BD4CD079912BCEF DUP2 PUSH1 0x40 MLOAD PUSH2 0x6C0 SWAP2 SWAP1 PUSH2 0x718 JUMP JUMPDEST PUSH1 0x40 MLOAD DUP1 SWAP2 SUB SWAP1 LOG1 POP JUMP JUMPDEST PUSH0 DUP2 SWAP1 POP SWAP2 SWAP1 POP JUMP JUMPDEST PUSH2 0x6DD DUP2 PUSH2 0x6CB JUMP JUMPDEST DUP3 MSTORE POP POP JUMP JUMPDEST PUSH0 PUSH1 0x60 DUP3 ADD SWAP1 POP PUSH2 0x6F6 PUSH0 DUP4 ADD DUP7 PUSH2 0x6D4 JUMP JUMPDEST PUSH2 0x703 PUSH1 0x20 DUP4 ADD DUP6 PUSH2 0x6D4 JUMP JUMPDEST PUSH2 0x710 PUSH1 0x40 DUP4 ADD DUP5 PUSH2 0x6D4 JUMP JUMPDEST SWAP5 SWAP4 POP POP POP POP JUMP JUMPDEST PUSH0 PUSH1 0x20 DUP3 ADD SWAP1 POP PUSH2 0x72B PUSH0 DUP4 ADD DUP5 PUSH2 0x6D4 JUMP JUMPDEST SWAP3 SWAP2 POP POP JUMP JUMPDEST PUSH0 PUSH0 REVERT JUMPDEST PUSH0 PUSH0 REVERT JUMPDEST PUSH0 PUSH0 REVERT JUMPDEST PUSH0 PUSH0 REVERT JUMPDEST PUSH0 PUSH0 REVERT JUMPDEST PUSH0 PUSH0 DUP4 PUSH1 0x1F DUP5 ADD SLT PUSH2 0x75A JUMPI PUSH2 0x759 PUSH2 0x739 JUMP JUMPDEST JUMPDEST DUP3 CALLDATALOAD SWAP1 POP PUSH8 0xFFFFFFFFFFFFFFFF DUP2 GT ISZERO PUSH2 0x777 JUMPI PUSH2 0x776 PUSH2 0x73D JUMP JUMPDEST JUMPDEST PUSH1 0x20 DUP4 ADD SWAP2 POP DUP4 PUSH1 0x20 DUP3 MUL DUP4 ADD GT ISZERO PUSH2 0x793 JUMPI PUSH2 0x792 PUSH2 0x741 JUMP JUMPDEST JUMPDEST SWAP3 POP SWAP3 SWAP1 POP JUMP JUMPDEST PUSH0 PUSH0 PUSH1 0x20 DUP4 DUP6 SUB SLT ISZERO PUSH2 0x7B0 JUMPI PUSH2 0x7AF PUSH2 0x731 JUMP JUMPDEST JUMPDEST PUSH0 DUP4 ADD CALLDATALOAD PUSH8 0xFFFFFFFFFFFFFFFF DUP2 GT ISZERO PUSH2 0x7CD JUMPI PUSH2 0x7CC PUSH2 0x735 JUMP JUMPDEST JUMPDEST PUSH2 0x7D9 DUP6 DUP3 DUP7 ADD PUSH2 0x745 JUMP JUMPDEST SWAP3 POP SWAP3 POP POP SWAP3 POP SWAP3 SWAP1 POP JUMP JUMPDEST PUSH2 0x7EE DUP2 PUSH2 0x6CB JUMP JUMPDEST DUP2 EQ PUSH2 0x7F8 JUMPI PUSH0 PUSH0 REVERT JUMPDEST POP JUMP JUMPDEST PUSH0 DUP2 CALLDATALOAD SWAP1 POP PUSH2 0x809 DUP2 PUSH2 0x7E5 JUMP JUMPDEST SWAP3 SWAP2 POP POP JUMP JUMPDEST PUSH0 PUSH1 0x20 DUP3 DUP5 SUB SLT ISZERO PUSH2 0x824 JUMPI PUSH2 0x823 PUSH2 0x731 JUMP JUMPDEST JUMPDEST PUSH0 PUSH2 0x831 DUP5 DUP3 DUP6 ADD PUSH2 0x7FB JUMP JUMPDEST SWAP2 POP POP SWAP3 SWAP2 POP POP JUMP JUMPDEST PUSH0 PUSH1 0x40 DUP3 ADD SWAP1 POP PUSH2 0x84D PUSH0 DUP4 ADD DUP6 PUSH2 0x6D4 JUMP JUMPDEST PUSH2 0x85A PUSH1 0x20 DUP4 ADD DUP5 PUSH2 0x6D4 JUMP JUMPDEST SWAP4 SWAP3 POP POP POP JUMP JUMPDEST PUSH32 0x4E487B7100000000000000000000000000000000000000000000000000000000 PUSH0 MSTORE PUSH1 0x11 PUSH1 0x4 MSTORE PUSH1 0x24 PUSH0 REVERT JUMPDEST PUSH0 PUSH2 0x898 DUP3 PUSH2 0x6CB JUMP JUMPDEST SWAP2 POP PUSH2 0x8A3 DUP4 PUSH2 0x6CB JUMP JUMPDEST SWAP3 POP DUP3 DUP3 SUB SWAP1 POP DUP2 DUP2 GT ISZERO PUSH2 0x8BB JUMPI PUSH2 0x8BA PUSH2 0x861 JUMP JUMPDEST JUMPDEST SWAP3 SWAP2 POP POP JUMP JUMPDEST PUSH0 DUP3 DUP3 MSTORE PUSH1 0x20 DUP3 ADD SWAP1 POP SWAP3 SWAP2 POP POP JUMP JUMPDEST PUSH32 0x52656A6563746564204D61782055696E74000000000000000000000000000000 PUSH0 DUP3 ADD MSTORE POP JUMP JUMPDEST PUSH0 PUSH2 0x905 PUSH1 0x11 DUP4 PUSH2 0x8C1 JUMP JUMPDEST SWAP2 POP PUSH2 0x910 DUP3 PUSH2 0x8D1 JUMP JUMPDEST PUSH1 0x20 DUP3 ADD SWAP1 POP SWAP2 SWAP1 POP JUMP JUMPDEST PUSH0 PUSH1 0x40 DUP3 ADD SWAP1 POP DUP2 DUP2 SUB PUSH0 DUP4 ADD MSTORE PUSH2 0x932 DUP2 PUSH2 0x8F9 JUMP JUMPDEST SWAP1 POP PUSH2 0x941 PUSH1 0x20 DUP4 ADD DUP5 PUSH2 0x6D4 JUMP JUMPDEST SWAP3 SWAP2 POP POP JUMP JUMPDEST PUSH32 0x426174636820746F6F206C617267650000000000000000000000000000000000 PUSH0 DUP3 ADD MSTORE POP JUMP JUMPDEST PUSH0 PUSH2 0x97B PUSH1 0xF DUP4 PUSH2 0x8C1 JUMP JUMPDEST SWAP2 POP PUSH2 0x986 DUP3 PUSH2 0x947 JUMP JUMPDEST PUSH1 0x20 DUP3 ADD SWAP1 POP SWAP2 SWAP1 POP JUMP JUMPDEST PUSH0 PUSH1 0x20 DUP3 ADD SWAP1 POP DUP2 DUP2 SUB PUSH0 DUP4 ADD MSTORE PUSH2 0x9A8 DUP2 PUSH2 0x96F JUMP JUMPDEST SWAP1 POP SWAP2 SWAP1 POP JUMP JUMPDEST PUSH32 0x4E487B7100000000000000000000000000000000000000000000000000000000 PUSH0 MSTORE PUSH1 0x32 PUSH1 0x4 MSTORE PUSH1 0x24 PUSH0 REVERT JUMPDEST PUSH32 0x4E6F726D616C2056616C75650000000000000000000000000000000000000000 PUSH0 DUP3 ADD MSTORE POP JUMP JUMPDEST PUSH0 PUSH2 0xA10 PUSH1 0xC DUP4 PUSH2 0x8C1 JUMP JUMPDEST SWAP2 POP PUSH2 0xA1B DUP3 PUSH2 0x9DC JUMP JUMPDEST PUSH1 0x20 DUP3 ADD SWAP1 POP SWAP2 SWAP1 POP JUMP JUMPDEST PUSH0 PUSH1 0x40 DUP3 ADD SWAP1 POP DUP2 DUP2 SUB PUSH0 DUP4 ADD MSTORE PUSH2 0xA3D DUP2 PUSH2 0xA04 JUMP JUMPDEST SWAP1 POP PUSH2 0xA4C PUSH1 0x20 DUP4 ADD DUP5 PUSH2 0x6D4 JUMP JUMPDEST SWAP3 SWAP2 POP POP JUMP JUMPDEST PUSH0 DUP2 SWAP1 POP SWAP2 SWAP1 POP JUMP JUMPDEST PUSH2 0xA6C PUSH2 0xA67 DUP3 PUSH2 0x6CB JUMP JUMPDEST PUSH2 0xA52 JUMP JUMPDEST DUP3 MSTORE POP POP JUMP JUMPDEST PUSH0 PUSH2 0xA7D DUP3 DUP7 PUSH2 0xA5B JUMP JUMPDEST PUSH1 0x20 DUP3 ADD SWAP2 POP PUSH2 0xA8D DUP3 DUP6 PUSH2 0xA5B JUMP JUMPDEST PUSH1 0x20 DUP3 ADD SWAP2 POP PUSH2 0xA9D DUP3 DUP5 PUSH2 0xA5B JUMP JUMPDEST PUSH1 0x20 DUP3 ADD SWAP2 POP DUP2 SWAP1 POP SWAP5 SWAP4 POP POP POP POP JUMP JUMPDEST PUSH0 DUP2 ISZERO ISZERO SWAP1 POP SWAP2 SWAP1 POP JUMP JUMPDEST PUSH2 0xAC2 DUP2 PUSH2 0xAAE JUMP JUMPDEST DUP3 MSTORE POP POP JUMP JUMPDEST PUSH0 PUSH1 0x40 DUP3 ADD SWAP1 POP PUSH2 0xADB PUSH0 DUP4 ADD DUP6 PUSH2 0x6D4 JUMP JUMPDEST PUSH2 0xAE8 PUSH1 0x20 DUP4 ADD DUP5 PUSH2 0xAB9 JUMP JUMPDEST SWAP4 SWAP3 POP POP POP JUMP JUMPDEST PUSH32 0x4D61782075696E742072656A6563746564000000000000000000000000000000 PUSH0 DUP3 ADD MSTORE POP JUMP JUMPDEST PUSH0 PUSH2 0xB23 PUSH1 0x11 DUP4 PUSH2 0x8C1 JUMP JUMPDEST SWAP2 POP PUSH2 0xB2E DUP3 PUSH2 0xAEF JUMP JUMPDEST PUSH1 0x20 DUP3 ADD SWAP1 POP SWAP2 SWAP1 POP JUMP JUMPDEST PUSH0 PUSH1 0x20 DUP3 ADD SWAP1 POP DUP2 DUP2 SUB PUSH0 DUP4 ADD MSTORE PUSH2 0xB50 DUP2 PUSH2 0xB17 JUMP JUMPDEST SWAP1 POP SWAP2 SWAP1 POP JUMP JUMPDEST PUSH0 PUSH2 0xB61 DUP3 PUSH2 0x6CB JUMP JUMPDEST SWAP2 POP PUSH2 0xB6C DUP4 PUSH2 0x6CB JUMP JUMPDEST SWAP3 POP DUP3 DUP3 ADD SWAP1 POP DUP1 DUP3 GT ISZERO PUSH2 0xB84 JUMPI PUSH2 0xB83 PUSH2 0x861 JUMP JUMPDEST JUMPDEST SWAP3 SWAP2 POP POP JUMP JUMPDEST PUSH32 0x4F766572666C6F77206465746563746564000000000000000000000000000000 PUSH0 DUP3 ADD MSTORE POP JUMP JUMPDEST PUSH0 PUSH2 0xBBE PUSH1 0x11 DUP4 PUSH2 0x8C1 JUMP JUMPDEST SWAP2 POP PUSH2 0xBC9 DUP3 PUSH2 0xB8A JUMP JUMPDEST PUSH1 0x20 DUP3 ADD SWAP1 POP SWAP2 SWAP1 POP JUMP JUMPDEST PUSH0 PUSH1 0x20 DUP3 ADD SWAP1 POP DUP2 DUP2 SUB PUSH0 DUP4 ADD MSTORE PUSH2 0xBEB DUP2 PUSH2 0xBB2 JUMP JUMPDEST SWAP1 POP SWAP2 SWAP1 POP JUMP JUMPDEST PUSH0 PUSH2 0xBFC DUP3 PUSH2 0x6CB JUMP JUMPDEST SWAP2 POP PUSH32 0xFFFFFFFFFFFFFFFFFFFFFFFFFFFFFFFFFFFFFFFFFFFFFFFFFFFFFFFFFFFFFFFF DUP3 SUB PUSH2 0xC2E JUMPI PUSH2 0xC2D PUSH2 0x861 JUMP JUMPDEST JUMPDEST PUSH1 0x1 DUP3 ADD SWAP1 POP SWAP2 SWAP1 POP JUMP INVALID LOG2 PUSH5 0x6970667358 0x22 SLT KECCAK256 SWAP1 0xBA RETURNDATACOPY NOT 0x4E TLOAD SUB 0xAC PUSH25 0x4233E4DCBCF07C26C214D3D80CDC8223934B0A7EC4931B6473 PUSH16 0x6C634300082200330000000000000000 "
				},
				"gasEstimates": {
					"creation": {
						"codeDepositCost": "636600",
						"executionCost": "668",
						"totalCost": "637268"
					},
					"external": {
						"batchProcess(uint256[])": "infinite",
						"calls()": "2470",
						"compareGas()": "infinite",
						"fuzzTest(uint256)": "infinite",
						"getState()": "infinite",
						"lastValue()": "2491",
						"normalGasUsed()": "2491",
						"rejectedGasUsed()": "2535",
						"set(uint256)": "infinite",
						"sum()": "2447",
						"testMaxUint()": "infinite"
					},
					"internal": {
						"_safeSet(uint256)": "infinite"
					}
				},
				"methodIdentifiers": {
					"batchProcess(uint256[])": "540c1018",
					"calls()": "305f72b7",
					"compareGas()": "8f32aa78",
					"fuzzTest(uint256)": "e1ce9200",
					"getState()": "1865c57d",
					"lastValue()": "43183834",
					"normalGasUsed()": "95b273b5",
					"rejectedGasUsed()": "f74f9320",
					"set(uint256)": "60fe47b1",
					"sum()": "853255cc",
					"testMaxUint()": "20644867"
				}
			},
			"storageLayout": {
				"storage": [
					{
						"astId": 3,
						"contract": "val75.sol:MaxUintBoundaryTest",
						"label": "lastValue",
						"offset": 0,
						"slot": "0",
						"type": "t_uint256"
					},
					{
						"astId": 5,
						"contract": "val75.sol:MaxUintBoundaryTest",
						"label": "sum",
						"offset": 0,
						"slot": "1",
						"type": "t_uint256"
					},
					{
						"astId": 7,
						"contract": "val75.sol:MaxUintBoundaryTest",
						"label": "calls",
						"offset": 0,
						"slot": "2",
						"type": "t_uint256"
					},
					{
						"astId": 9,
						"contract": "val75.sol:MaxUintBoundaryTest",
						"label": "normalGasUsed",
						"offset": 0,
						"slot": "3",
						"type": "t_uint256"
					},
					{
						"astId": 11,
						"contract": "val75.sol:MaxUintBoundaryTest",
						"label": "rejectedGasUsed",
						"offset": 0,
						"slot": "4",
						"type": "t_uint256"
					}
				],
				"types": {
					"t_uint256": {
						"encoding": "inplace",
						"label": "uint256",
						"numberOfBytes": "32"
					}
				}
			},
			"userdoc": {
				"kind": "user",
				"methods": {},
				"version": 1
			}
		}
	}
}