{
	"val73.sol": {
		"StressTestCalls": {
			"abi": [
				{
					"anonymous": false,
					"inputs": [
						{
							"indexed": false,
							"internalType": "address",
							"name": "caller",
							"type": "address"
						},
						{
							"indexed": false,
							"internalType": "uint256",
							"name": "value",
							"type": "uint256"
						},
						{
							"indexed": false,
							"internalType": "uint256",
							"name": "counter",
							"type": "uint256"
						}
					],
					"name": "CallExecuted",
					"type": "event"
				},
				{
					"anonymous": false,
					"inputs": [
						{
							"indexed": false,
							"internalType": "string",
							"name": "callType",
							"type": "string"
						},
						{
							"indexed": false,
							"internalType": "uint256",
							"name": "gasUsed",
							"type": "uint256"
						}
					],
					"name": "GasMeasured",
					"type": "event"
				},
				{
					"inputs": [],
					"name": "compareGas",
					"outputs": [
						{
							"internalType": "uint256",
							"name": "internalGas",
							"type": "uint256"
						},
						{
							"internalType": "uint256",
							"name": "externalGas",
							"type": "uint256"
						}
					],
					"stateMutability": "view",
					"type": "function"
				},
				{
					"inputs": [],
					"name": "counter",
					"outputs": [
						{
							"internalType": "uint256",
							"name": "",
							"type": "uint256"
						}
					],
					"stateMutability": "view",
					"type": "function"
				},
				{
					"inputs": [],
					"name": "externalGasUsed",
					"outputs": [
						{
							"internalType": "uint256",
							"name": "",
							"type": "uint256"
						}
					],
					"stateMutability": "view",
					"type": "function"
				},
				{
					"inputs": [
						{
							"internalType": "uint256",
							"name": "times",
							"type": "uint256"
						}
					],
					"name": "externalStyleStress",
					"outputs": [],
					"stateMutability": "nonpayable",
					"type": "function"
				},
				{
					"inputs": [],
					"name": "getState",
					"outputs": [
						{
							"internalType": "uint256",
							"name": "currentCounter",
							"type": "uint256"
						},
						{
							"internalType": "uint256",
							"name": "currentCalls",
							"type": "uint256"
						}
					],
					"stateMutability": "view",
					"type": "function"
				},
				{
					"inputs": [
						{
							"internalType": "uint256",
							"name": "",
							"type": "uint256"
						}
					],
					"name": "history",
					"outputs": [
						{
							"internalType": "uint256",
							"name": "",
							"type": "uint256"
						}
					],
					"stateMutability": "view",
					"type": "function"
				},
				{
					"inputs": [],
					"name": "internalGasUsed",
					"outputs": [
						{
							"internalType": "uint256",
							"name": "",
							"type": "uint256"
						}
					],
					"stateMutability": "view",
					"type": "function"
				},
				{
					"inputs": [],
					"name": "reset",
					"outputs": [],
					"stateMutability": "nonpayable",
					"type": "function"
				},
				{
					"inputs": [
						{
							"internalType": "uint256",
							"name": "value",
							"type": "uint256"
						}
					],
					"name": "singleCall",
					"outputs": [],
					"stateMutability": "nonpayable",
					"type": "function"
				},
				{
					"inputs": [
						{
							"internalType": "uint256",
							"name": "times",
							"type": "uint256"
						}
					],
					"name": "stressTest",
					"outputs": [],
					"stateMutability": "nonpayable",
					"type": "function"
				},
				{
					"inputs": [],
					"name": "totalCalls",
					"outputs": [
						{
							"internalType": "uint256",
							"name": "",
							"type": "uint256"
						}
					],
					"stateMutability": "view",
					"type": "function"
				}
			],
			"devdoc": {
				"kind": "dev",
				"methods": {},
				"version": 1
			},
			"evm": {
				"assembly": "    /* \"val73.sol\":13674:16823  contract StressTestCalls {... */\n  mstore(0x40, 0x80)\n  callvalue\n  dup1\n  iszero\n  tag_1\n  jumpi\n  revert(0x00, 0x00)\ntag_1:\n  pop\n  dataSize(sub_0)\n  dup1\n  dataOffset(sub_0)\n  0x00\n  codecopy\n  0x00\n  return\nstop\n\nsub_0: assembly {\n        /* \"val73.sol\":13674:16823  contract StressTestCalls {... */\n      mstore(0x40, 0x80)\n      callvalue\n      dup1\n      iszero\n      tag_1\n      jumpi\n      revert(0x00, 0x00)\n    tag_1:\n      pop\n      jumpi(tag_2, lt(calldatasize, 0x04))\n      shr(0xe0, calldataload(0x00))\n      dup1\n      0x8f32aa78\n      gt\n      tag_14\n      jumpi\n      dup1\n      0x8f32aa78\n      eq\n      tag_8\n      jumpi\n      dup1\n      0xa7a38f0b\n      eq\n      tag_9\n      jumpi\n      dup1\n      0xb1e964fe\n      eq\n      tag_10\n      jumpi\n      dup1\n      0xd826f88f\n      eq\n      tag_11\n      jumpi\n      dup1\n      0xde5021e0\n      eq\n      tag_12\n      jumpi\n      dup1\n      0xe93116b6\n      eq\n      tag_13\n      jumpi\n      jump(tag_2)\n    tag_14:\n      dup1\n      0x1865c57d\n      eq\n      tag_3\n      jumpi\n      dup1\n      0x2326305f\n      eq\n      tag_4\n      jumpi\n      dup1\n      0x3af3f24f\n      eq\n      tag_5\n      jumpi\n      dup1\n      0x61bc221a\n      eq\n      tag_6\n      jumpi\n      dup1\n      0x6561fd92\n      eq\n      tag_7\n      jumpi\n    tag_2:\n      revert(0x00, 0x00)\n        /* \"val73.sol\":16681:16820  function getState() external view returns(uint256 currentCounter, uint256 currentCalls)... */\n    tag_3:\n      tag_15\n      tag_16\n      jump\t// in\n    tag_15:\n      mload(0x40)\n      tag_17\n      swap3\n      swap2\n      swap1\n      tag_18\n      jump\t// in\n    tag_17:\n      mload(0x40)\n      dup1\n      swap2\n      sub\n      swap1\n      return\n        /* \"val73.sol\":14664:15214  function stressTest(uint256 times)... */\n    tag_4:\n      tag_19\n      0x04\n      dup1\n      calldatasize\n      sub\n      dup2\n      add\n      swap1\n      tag_20\n      swap2\n      swap1\n      tag_21\n      jump\t// in\n    tag_20:\n      tag_22\n      jump\t// in\n    tag_19:\n      stop\n        /* \"val73.sol\":13778:13803  uint256 public totalCalls */\n    tag_5:\n      tag_23\n      tag_24\n      jump\t// in\n    tag_23:\n      mload(0x40)\n      tag_25\n      swap2\n      swap1\n      tag_26\n      jump\t// in\n    tag_25:\n      mload(0x40)\n      dup1\n      swap2\n      sub\n      swap1\n      return\n        /* \"val73.sol\":13747:13769  uint256 public counter */\n    tag_6:\n      tag_27\n      tag_28\n      jump\t// in\n    tag_27:\n      mload(0x40)\n      tag_29\n      swap2\n      swap1\n      tag_26\n      jump\t// in\n    tag_29:\n      mload(0x40)\n      dup1\n      swap2\n      sub\n      swap1\n      return\n        /* \"val73.sol\":13869:13899  uint256 public internalGasUsed */\n    tag_7:\n      tag_30\n      tag_31\n      jump\t// in\n    tag_30:\n      mload(0x40)\n      tag_32\n      swap2\n      swap1\n      tag_26\n      jump\t// in\n    tag_32:\n      mload(0x40)\n      dup1\n      swap2\n      sub\n      swap1\n      return\n        /* \"val73.sol\":16039:16189  function compareGas() external view returns(uint256 internalGas, uint256 externalGas)... */\n    tag_8:\n      tag_33\n      tag_34\n      jump\t// in\n    tag_33:\n      mload(0x40)\n      tag_35\n      swap3\n      swap2\n      swap1\n      tag_18\n      jump\t// in\n    tag_35:\n      mload(0x40)\n      dup1\n      swap2\n      sub\n      swap1\n      return\n        /* \"val73.sol\":13812:13836  uint256[] public history */\n    tag_9:\n      tag_36\n      0x04\n      dup1\n      calldatasize\n      sub\n      dup2\n      add\n      swap1\n      tag_37\n      swap2\n      swap1\n      tag_21\n      jump\t// in\n    tag_37:\n      tag_38\n      jump\t// in\n    tag_36:\n      mload(0x40)\n      tag_39\n      swap2\n      swap1\n      tag_26\n      jump\t// in\n    tag_39:\n      mload(0x40)\n      dup1\n      swap2\n      sub\n      swap1\n      return\n        /* \"val73.sol\":13908:13938  uint256 public externalGasUsed */\n    tag_10:\n      tag_40\n      tag_41\n      jump\t// in\n    tag_40:\n      mload(0x40)\n      tag_42\n      swap2\n      swap1\n      tag_26\n      jump\t// in\n    tag_42:\n      mload(0x40)\n      dup1\n      swap2\n      sub\n      swap1\n      return\n        /* \"val73.sol\":16350:16515  function reset()... */\n    tag_11:\n      tag_43\n      tag_44\n      jump\t// in\n    tag_43:\n      stop\n        /* \"val73.sol\":14267:14493  function singleCall(uint256 value)... */\n    tag_12:\n      tag_45\n      0x04\n      dup1\n      calldatasize\n      sub\n      dup2\n      add\n      swap1\n      tag_46\n      swap2\n      swap1\n      tag_21\n      jump\t// in\n    tag_46:\n      tag_47\n      jump\t// in\n    tag_45:\n      stop\n        /* \"val73.sol\":15393:16005  function externalStyleStress(uint256 times)... */\n    tag_13:\n      tag_48\n      0x04\n      dup1\n      calldatasize\n      sub\n      dup2\n      add\n      swap1\n      tag_49\n      swap2\n      swap1\n      tag_21\n      jump\t// in\n    tag_49:\n      tag_50\n      jump\t// in\n    tag_48:\n      stop\n        /* \"val73.sol\":16681:16820  function getState() external view returns(uint256 currentCounter, uint256 currentCalls)... */\n    tag_16:\n        /* \"val73.sol\":16723:16745  uint256 currentCounter */\n      0x00\n        /* \"val73.sol\":16747:16767  uint256 currentCalls */\n      0x00\n        /* \"val73.sol\":16792:16799  counter */\n      sload(0x00)\n        /* \"val73.sol\":16801:16811  totalCalls */\n      sload(0x01)\n        /* \"val73.sol\":16785:16812  return(counter, totalCalls) */\n      swap2\n      pop\n      swap2\n      pop\n        /* \"val73.sol\":16681:16820  function getState() external view returns(uint256 currentCounter, uint256 currentCalls)... */\n      swap1\n      swap2\n      jump\t// out\n        /* \"val73.sol\":14664:15214  function stressTest(uint256 times)... */\n    tag_22:\n        /* \"val73.sol\":14778:14781  100 */\n      0x64\n        /* \"val73.sol\":14769:14774  times */\n      dup2\n        /* \"val73.sol\":14769:14781  times <= 100 */\n      gt\n      iszero\n        /* \"val73.sol\":14761:14798  require(times <= 100,\"Max 100 calls\") */\n      tag_53\n      jumpi\n      mload(0x40)\n      0x08c379a000000000000000000000000000000000000000000000000000000000\n      dup2\n      mstore\n      0x04\n      add\n      tag_54\n      swap1\n      tag_55\n      jump\t// in\n    tag_54:\n      mload(0x40)\n      dup1\n      swap2\n      sub\n      swap1\n      revert\n    tag_53:\n        /* \"val73.sol\":14810:14826  uint256 startGas */\n      0x00\n        /* \"val73.sol\":14829:14838  gasleft() */\n      gas\n        /* \"val73.sol\":14810:14838  uint256 startGas = gasleft() */\n      swap1\n      pop\n        /* \"val73.sol\":14870:14879  uint256 i */\n      0x00\n        /* \"val73.sol\":14882:14883  0 */\n      0x00\n        /* \"val73.sol\":14870:14883  uint256 i = 0 */\n      swap1\n      pop\n        /* \"val73.sol\":14851:15057  for (... */\n    tag_56:\n        /* \"val73.sol\":14902:14907  times */\n      dup3\n        /* \"val73.sol\":14898:14899  i */\n      dup2\n        /* \"val73.sol\":14898:14907  i < times */\n      lt\n        /* \"val73.sol\":14851:15057  for (... */\n      iszero\n      tag_57\n      jumpi\n        /* \"val73.sol\":15032:15045  singleCall(i) */\n      tag_59\n        /* \"val73.sol\":15043:15044  i */\n      dup2\n        /* \"val73.sol\":15032:15042  singleCall */\n      tag_47\n        /* \"val73.sol\":15032:15045  singleCall(i) */\n      jump\t// in\n    tag_59:\n        /* \"val73.sol\":14922:14925  i++ */\n      dup1\n      dup1\n      0x01\n      add\n      swap2\n      pop\n      pop\n        /* \"val73.sol\":14851:15057  for (... */\n      jump(tag_56)\n    tag_57:\n      pop\n        /* \"val73.sol\":15133:15142  gasleft() */\n      gas\n        /* \"val73.sol\":15122:15130  startGas */\n      dup2\n        /* \"val73.sol\":15122:15142  startGas - gasleft() */\n      tag_60\n      swap2\n      swap1\n      tag_61\n      jump\t// in\n    tag_60:\n        /* \"val73.sol\":15104:15119  internalGasUsed */\n      0x03\n        /* \"val73.sol\":15104:15142  internalGasUsed = startGas - gasleft() */\n      dup2\n      swap1\n      sstore\n      pop\n        /* \"val73.sol\":15160:15206  GasMeasured(\"Internal Calls\", internalGasUsed) */\n      0x4d605d112b717b70b80f393cc6a0239ae0459508e54af125ee28f92acbf7fc49\n        /* \"val73.sol\":15190:15205  internalGasUsed */\n      sload(0x03)\n        /* \"val73.sol\":15160:15206  GasMeasured(\"Internal Calls\", internalGasUsed) */\n      mload(0x40)\n      tag_62\n      swap2\n      swap1\n      tag_63\n      jump\t// in\n    tag_62:\n      mload(0x40)\n      dup1\n      swap2\n      sub\n      swap1\n      log1\n        /* \"val73.sol\":14722:15214  {... */\n      pop\n        /* \"val73.sol\":14664:15214  function stressTest(uint256 times)... */\n      pop\n      jump\t// out\n        /* \"val73.sol\":13778:13803  uint256 public totalCalls */\n    tag_24:\n      sload(0x01)\n      dup2\n      jump\t// out\n        /* \"val73.sol\":13747:13769  uint256 public counter */\n    tag_28:\n      sload(0x00)\n      dup2\n      jump\t// out\n        /* \"val73.sol\":13869:13899  uint256 public internalGasUsed */\n    tag_31:\n      sload(0x03)\n      dup2\n      jump\t// out\n        /* \"val73.sol\":16039:16189  function compareGas() external view returns(uint256 internalGas, uint256 externalGas)... */\n    tag_34:\n        /* \"val73.sol\":16083:16102  uint256 internalGas */\n      0x00\n        /* \"val73.sol\":16104:16123  uint256 externalGas */\n      0x00\n        /* \"val73.sol\":16148:16163  internalGasUsed */\n      sload(0x03)\n        /* \"val73.sol\":16165:16180  externalGasUsed */\n      sload(0x04)\n        /* \"val73.sol\":16141:16181  return(internalGasUsed, externalGasUsed) */\n      swap2\n      pop\n      swap2\n      pop\n        /* \"val73.sol\":16039:16189  function compareGas() external view returns(uint256 internalGas, uint256 externalGas)... */\n      swap1\n      swap2\n      jump\t// out\n        /* \"val73.sol\":13812:13836  uint256[] public history */\n    tag_38:\n      0x02\n      dup2\n      dup2\n      sload\n      dup2\n      lt\n      tag_65\n      jumpi\n      0x00\n      dup1\n      revert\n    tag_65:\n      swap1\n      0x00\n      mstore\n      keccak256(0x00, 0x20)\n      add\n      0x00\n      swap2\n      pop\n      swap1\n      pop\n      sload\n      dup2\n      jump\t// out\n        /* \"val73.sol\":13908:13938  uint256 public externalGasUsed */\n    tag_41:\n      sload(0x04)\n      dup2\n      jump\t// out\n        /* \"val73.sol\":16350:16515  function reset()... */\n    tag_44:\n        /* \"val73.sol\":16413:16414  0 */\n      0x00\n        /* \"val73.sol\":16403:16410  counter */\n      0x00\n        /* \"val73.sol\":16403:16414  counter = 0 */\n      dup2\n      swap1\n      sstore\n      pop\n        /* \"val73.sol\":16440:16441  0 */\n      0x00\n        /* \"val73.sol\":16427:16437  totalCalls */\n      0x01\n        /* \"val73.sol\":16427:16441  totalCalls = 0 */\n      dup2\n      swap1\n      sstore\n      pop\n        /* \"val73.sol\":16472:16473  0 */\n      0x00\n        /* \"val73.sol\":16454:16469  internalGasUsed */\n      0x03\n        /* \"val73.sol\":16454:16473  internalGasUsed = 0 */\n      dup2\n      swap1\n      sstore\n      pop\n        /* \"val73.sol\":16504:16505  0 */\n      0x00\n        /* \"val73.sol\":16486:16501  externalGasUsed */\n      0x04\n        /* \"val73.sol\":16486:16505  externalGasUsed = 0 */\n      dup2\n      swap1\n      sstore\n      pop\n        /* \"val73.sol\":16350:16515  function reset()... */\n      jump\t// out\n        /* \"val73.sol\":14267:14493  function singleCall(uint256 value)... */\n    tag_47:\n        /* \"val73.sol\":14393:14400  counter */\n      0x00\n      0x00\n        /* \"val73.sol\":14393:14402  counter++ */\n      dup2\n      sload\n      dup1\n      swap3\n      swap2\n      swap1\n      tag_69\n      swap1\n      tag_70\n      jump\t// in\n    tag_69:\n      swap2\n      swap1\n      pop\n      sstore\n      pop\n        /* \"val73.sol\":14413:14423  totalCalls */\n      0x01\n      0x00\n        /* \"val73.sol\":14413:14425  totalCalls++ */\n      dup2\n      sload\n      dup1\n      swap3\n      swap2\n      swap1\n      tag_71\n      swap1\n      tag_70\n      jump\t// in\n    tag_71:\n      swap2\n      swap1\n      pop\n      sstore\n      pop\n        /* \"val73.sol\":14443:14483  CallExecuted(msg.sender, value, counter) */\n      0x72be742069ace8f31a078a0dea8b664a09950cb324664824ad95d9dd7e14c991\n        /* \"val73.sol\":14456:14466  msg.sender */\n      caller\n        /* \"val73.sol\":14468:14473  value */\n      dup3\n        /* \"val73.sol\":14475:14482  counter */\n      sload(0x00)\n        /* \"val73.sol\":14443:14483  CallExecuted(msg.sender, value, counter) */\n      mload(0x40)\n      tag_72\n      swap4\n      swap3\n      swap2\n      swap1\n      tag_73\n      jump\t// in\n    tag_72:\n      mload(0x40)\n      dup1\n      swap2\n      sub\n      swap1\n      log1\n        /* \"val73.sol\":14267:14493  function singleCall(uint256 value)... */\n      pop\n      jump\t// out\n        /* \"val73.sol\":15393:16005  function externalStyleStress(uint256 times)... */\n    tag_50:\n        /* \"val73.sol\":15516:15519  100 */\n      0x64\n        /* \"val73.sol\":15507:15512  times */\n      dup2\n        /* \"val73.sol\":15507:15519  times <= 100 */\n      gt\n      iszero\n        /* \"val73.sol\":15499:15536  require(times <= 100,\"Max 100 calls\") */\n      tag_75\n      jumpi\n      mload(0x40)\n      0x08c379a000000000000000000000000000000000000000000000000000000000\n      dup2\n      mstore\n      0x04\n      add\n      tag_76\n      swap1\n      tag_55\n      jump\t// in\n    tag_76:\n      mload(0x40)\n      dup1\n      swap2\n      sub\n      swap1\n      revert\n    tag_75:\n        /* \"val73.sol\":15549:15565  uint256 startGas */\n      0x00\n        /* \"val73.sol\":15568:15577  gasleft() */\n      gas\n        /* \"val73.sol\":15549:15577  uint256 startGas = gasleft() */\n      swap1\n      pop\n        /* \"val73.sol\":15643:15652  uint256 i */\n      0x00\n        /* \"val73.sol\":15655:15656  0 */\n      0x00\n        /* \"val73.sol\":15643:15656  uint256 i = 0 */\n      swap1\n      pop\n        /* \"val73.sol\":15624:15844  for (... */\n    tag_77:\n        /* \"val73.sol\":15675:15680  times */\n      dup3\n        /* \"val73.sol\":15671:15672  i */\n      dup2\n        /* \"val73.sol\":15671:15680  i < times */\n      lt\n        /* \"val73.sol\":15624:15844  for (... */\n      iszero\n      tag_78\n      jumpi\n        /* \"val73.sol\":15814:15818  this */\n      address\n        /* \"val73.sol\":15814:15829  this.singleCall */\n      0xffffffffffffffffffffffffffffffffffffffff\n      and\n      0xde5021e0\n        /* \"val73.sol\":15830:15831  i */\n      dup3\n        /* \"val73.sol\":15814:15832  this.singleCall(i) */\n      mload(0x40)\n      dup3\n      0xffffffff\n      and\n      0xe0\n      shl\n      dup2\n      mstore\n      0x04\n      add\n      tag_80\n      swap2\n      swap1\n      tag_26\n      jump\t// in\n    tag_80:\n      0x00\n      mload(0x40)\n      dup1\n      dup4\n      sub\n      dup2\n      0x00\n      dup8\n      dup1\n      extcodesize\n      iszero\n      dup1\n      iszero\n      tag_81\n      jumpi\n      revert(0x00, 0x00)\n    tag_81:\n      pop\n      gas\n      call\n      iszero\n      dup1\n      iszero\n      tag_83\n      jumpi\n      returndatacopy(0x00, 0x00, returndatasize)\n      revert(0x00, returndatasize)\n    tag_83:\n      pop\n      pop\n      pop\n      pop\n        /* \"val73.sol\":15695:15698  i++ */\n      dup1\n      dup1\n      0x01\n      add\n      swap2\n      pop\n      pop\n        /* \"val73.sol\":15624:15844  for (... */\n      jump(tag_77)\n    tag_78:\n      pop\n        /* \"val73.sol\":15918:15927  gasleft() */\n      gas\n        /* \"val73.sol\":15907:15915  startGas */\n      dup2\n        /* \"val73.sol\":15907:15927  startGas - gasleft() */\n      tag_84\n      swap2\n      swap1\n      tag_61\n      jump\t// in\n    tag_84:\n        /* \"val73.sol\":15889:15904  externalGasUsed */\n      0x04\n        /* \"val73.sol\":15889:15927  externalGasUsed = startGas - gasleft() */\n      dup2\n      swap1\n      sstore\n      pop\n        /* \"val73.sol\":15949:15995  GasMeasured(\"External Calls\", externalGasUsed) */\n      0x4d605d112b717b70b80f393cc6a0239ae0459508e54af125ee28f92acbf7fc49\n        /* \"val73.sol\":15979:15994  externalGasUsed */\n      sload(0x04)\n        /* \"val73.sol\":15949:15995  GasMeasured(\"External Calls\", externalGasUsed) */\n      mload(0x40)\n      tag_85\n      swap2\n      swap1\n      tag_86\n      jump\t// in\n    tag_85:\n      mload(0x40)\n      dup1\n      swap2\n      sub\n      swap1\n      log1\n        /* \"val73.sol\":15460:16005  {... */\n      pop\n        /* \"val73.sol\":15393:16005  function externalStyleStress(uint256 times)... */\n      pop\n      jump\t// out\n        /* \"#utility.yul\":7:84   */\n    tag_87:\n        /* \"#utility.yul\":44:51   */\n      0x00\n        /* \"#utility.yul\":73:78   */\n      dup2\n        /* \"#utility.yul\":62:78   */\n      swap1\n      pop\n        /* \"#utility.yul\":7:84   */\n      swap2\n      swap1\n      pop\n      jump\t// out\n        /* \"#utility.yul\":90:208   */\n    tag_88:\n        /* \"#utility.yul\":177:201   */\n      tag_108\n        /* \"#utility.yul\":195:200   */\n      dup2\n        /* \"#utility.yul\":177:201   */\n      tag_87\n      jump\t// in\n    tag_108:\n        /* \"#utility.yul\":172:175   */\n      dup3\n        /* \"#utility.yul\":165:202   */\n      mstore\n        /* \"#utility.yul\":90:208   */\n      pop\n      pop\n      jump\t// out\n        /* \"#utility.yul\":214:546   */\n    tag_18:\n        /* \"#utility.yul\":335:339   */\n      0x00\n        /* \"#utility.yul\":373:375   */\n      0x40\n        /* \"#utility.yul\":362:371   */\n      dup3\n        /* \"#utility.yul\":358:376   */\n      add\n        /* \"#utility.yul\":350:376   */\n      swap1\n      pop\n        /* \"#utility.yul\":386:457   */\n      tag_110\n        /* \"#utility.yul\":454:455   */\n      0x00\n        /* \"#utility.yul\":443:452   */\n      dup4\n        /* \"#utility.yul\":439:456   */\n      add\n        /* \"#utility.yul\":430:436   */\n      dup6\n        /* \"#utility.yul\":386:457   */\n      tag_88\n      jump\t// in\n    tag_110:\n        /* \"#utility.yul\":467:539   */\n      tag_111\n        /* \"#utility.yul\":535:537   */\n      0x20\n        /* \"#utility.yul\":524:533   */\n      dup4\n        /* \"#utility.yul\":520:538   */\n      add\n        /* \"#utility.yul\":511:517   */\n      dup5\n        /* \"#utility.yul\":467:539   */\n      tag_88\n      jump\t// in\n    tag_111:\n        /* \"#utility.yul\":214:546   */\n      swap4\n      swap3\n      pop\n      pop\n      pop\n      jump\t// out\n        /* \"#utility.yul\":633:750   */\n    tag_90:\n        /* \"#utility.yul\":742:743   */\n      0x00\n        /* \"#utility.yul\":739:740   */\n      0x00\n        /* \"#utility.yul\":732:744   */\n      revert\n        /* \"#utility.yul\":879:1001   */\n    tag_92:\n        /* \"#utility.yul\":952:976   */\n      tag_116\n        /* \"#utility.yul\":970:975   */\n      dup2\n        /* \"#utility.yul\":952:976   */\n      tag_87\n      jump\t// in\n    tag_116:\n        /* \"#utility.yul\":945:950   */\n      dup2\n        /* \"#utility.yul\":942:977   */\n      eq\n        /* \"#utility.yul\":932:995   */\n      tag_117\n      jumpi\n        /* \"#utility.yul\":991:992   */\n      0x00\n        /* \"#utility.yul\":988:989   */\n      0x00\n        /* \"#utility.yul\":981:993   */\n      revert\n        /* \"#utility.yul\":932:995   */\n    tag_117:\n        /* \"#utility.yul\":879:1001   */\n      pop\n      jump\t// out\n        /* \"#utility.yul\":1007:1146   */\n    tag_93:\n        /* \"#utility.yul\":1053:1058   */\n      0x00\n        /* \"#utility.yul\":1091:1097   */\n      dup2\n        /* \"#utility.yul\":1078:1098   */\n      calldataload\n        /* \"#utility.yul\":1069:1098   */\n      swap1\n      pop\n        /* \"#utility.yul\":1107:1140   */\n      tag_119\n        /* \"#utility.yul\":1134:1139   */\n      dup2\n        /* \"#utility.yul\":1107:1140   */\n      tag_92\n      jump\t// in\n    tag_119:\n        /* \"#utility.yul\":1007:1146   */\n      swap3\n      swap2\n      pop\n      pop\n      jump\t// out\n        /* \"#utility.yul\":1152:1481   */\n    tag_21:\n        /* \"#utility.yul\":1211:1217   */\n      0x00\n        /* \"#utility.yul\":1260:1262   */\n      0x20\n        /* \"#utility.yul\":1248:1257   */\n      dup3\n        /* \"#utility.yul\":1239:1246   */\n      dup5\n        /* \"#utility.yul\":1235:1258   */\n      sub\n        /* \"#utility.yul\":1231:1263   */\n      slt\n        /* \"#utility.yul\":1228:1347   */\n      iszero\n      tag_121\n      jumpi\n        /* \"#utility.yul\":1266:1345   */\n      tag_122\n      tag_90\n      jump\t// in\n    tag_122:\n        /* \"#utility.yul\":1228:1347   */\n    tag_121:\n        /* \"#utility.yul\":1386:1387   */\n      0x00\n        /* \"#utility.yul\":1411:1464   */\n      tag_123\n        /* \"#utility.yul\":1456:1463   */\n      dup5\n        /* \"#utility.yul\":1447:1453   */\n      dup3\n        /* \"#utility.yul\":1436:1445   */\n      dup6\n        /* \"#utility.yul\":1432:1454   */\n      add\n        /* \"#utility.yul\":1411:1464   */\n      tag_93\n      jump\t// in\n    tag_123:\n        /* \"#utility.yul\":1401:1464   */\n      swap2\n      pop\n        /* \"#utility.yul\":1357:1474   */\n      pop\n        /* \"#utility.yul\":1152:1481   */\n      swap3\n      swap2\n      pop\n      pop\n      jump\t// out\n        /* \"#utility.yul\":1487:1709   */\n    tag_26:\n        /* \"#utility.yul\":1580:1584   */\n      0x00\n        /* \"#utility.yul\":1618:1620   */\n      0x20\n        /* \"#utility.yul\":1607:1616   */\n      dup3\n        /* \"#utility.yul\":1603:1621   */\n      add\n        /* \"#utility.yul\":1595:1621   */\n      swap1\n      pop\n        /* \"#utility.yul\":1631:1702   */\n      tag_125\n        /* \"#utility.yul\":1699:1700   */\n      0x00\n        /* \"#utility.yul\":1688:1697   */\n      dup4\n        /* \"#utility.yul\":1684:1701   */\n      add\n        /* \"#utility.yul\":1675:1681   */\n      dup5\n        /* \"#utility.yul\":1631:1702   */\n      tag_88\n      jump\t// in\n    tag_125:\n        /* \"#utility.yul\":1487:1709   */\n      swap3\n      swap2\n      pop\n      pop\n      jump\t// out\n        /* \"#utility.yul\":1715:1884   */\n    tag_94:\n        /* \"#utility.yul\":1799:1810   */\n      0x00\n        /* \"#utility.yul\":1833:1839   */\n      dup3\n        /* \"#utility.yul\":1828:1831   */\n      dup3\n        /* \"#utility.yul\":1821:1840   */\n      mstore\n        /* \"#utility.yul\":1873:1877   */\n      0x20\n        /* \"#utility.yul\":1868:1871   */\n      dup3\n        /* \"#utility.yul\":1864:1878   */\n      add\n        /* \"#utility.yul\":1849:1878   */\n      swap1\n      pop\n        /* \"#utility.yul\":1715:1884   */\n      swap3\n      swap2\n      pop\n      pop\n      jump\t// out\n        /* \"#utility.yul\":1890:2053   */\n    tag_95:\n        /* \"#utility.yul\":2030:2045   */\n      0x4d6178203130302063616c6c7300000000000000000000000000000000000000\n        /* \"#utility.yul\":2026:2027   */\n      0x00\n        /* \"#utility.yul\":2018:2024   */\n      dup3\n        /* \"#utility.yul\":2014:2028   */\n      add\n        /* \"#utility.yul\":2007:2046   */\n      mstore\n        /* \"#utility.yul\":1890:2053   */\n      pop\n      jump\t// out\n        /* \"#utility.yul\":2059:2425   */\n    tag_96:\n        /* \"#utility.yul\":2201:2204   */\n      0x00\n        /* \"#utility.yul\":2222:2289   */\n      tag_129\n        /* \"#utility.yul\":2286:2288   */\n      0x0d\n        /* \"#utility.yul\":2281:2284   */\n      dup4\n        /* \"#utility.yul\":2222:2289   */\n      tag_94\n      jump\t// in\n    tag_129:\n        /* \"#utility.yul\":2215:2289   */\n      swap2\n      pop\n        /* \"#utility.yul\":2298:2391   */\n      tag_130\n        /* \"#utility.yul\":2387:2390   */\n      dup3\n        /* \"#utility.yul\":2298:2391   */\n      tag_95\n      jump\t// in\n    tag_130:\n        /* \"#utility.yul\":2416:2418   */\n      0x20\n        /* \"#utility.yul\":2411:2414   */\n      dup3\n        /* \"#utility.yul\":2407:2419   */\n      add\n        /* \"#utility.yul\":2400:2419   */\n      swap1\n      pop\n        /* \"#utility.yul\":2059:2425   */\n      swap2\n      swap1\n      pop\n      jump\t// out\n        /* \"#utility.yul\":2431:2850   */\n    tag_55:\n        /* \"#utility.yul\":2597:2601   */\n      0x00\n        /* \"#utility.yul\":2635:2637   */\n      0x20\n        /* \"#utility.yul\":2624:2633   */\n      dup3\n        /* \"#utility.yul\":2620:2638   */\n      add\n        /* \"#utility.yul\":2612:2638   */\n      swap1\n      pop\n        /* \"#utility.yul\":2684:2693   */\n      dup2\n        /* \"#utility.yul\":2678:2682   */\n      dup2\n        /* \"#utility.yul\":2674:2694   */\n      sub\n        /* \"#utility.yul\":2670:2671   */\n      0x00\n        /* \"#utility.yul\":2659:2668   */\n      dup4\n        /* \"#utility.yul\":2655:2672   */\n      add\n        /* \"#utility.yul\":2648:2695   */\n      mstore\n        /* \"#utility.yul\":2712:2843   */\n      tag_132\n        /* \"#utility.yul\":2838:2842   */\n      dup2\n        /* \"#utility.yul\":2712:2843   */\n      tag_96\n      jump\t// in\n    tag_132:\n        /* \"#utility.yul\":2704:2843   */\n      swap1\n      pop\n        /* \"#utility.yul\":2431:2850   */\n      swap2\n      swap1\n      pop\n      jump\t// out\n        /* \"#utility.yul\":2856:3036   */\n    tag_97:\n        /* \"#utility.yul\":2904:2981   */\n      0x4e487b7100000000000000000000000000000000000000000000000000000000\n        /* \"#utility.yul\":2901:2902   */\n      0x00\n        /* \"#utility.yul\":2894:2982   */\n      mstore\n        /* \"#utility.yul\":3001:3005   */\n      0x11\n        /* \"#utility.yul\":2998:2999   */\n      0x04\n        /* \"#utility.yul\":2991:3006   */\n      mstore\n        /* \"#utility.yul\":3025:3029   */\n      0x24\n        /* \"#utility.yul\":3022:3023   */\n      0x00\n        /* \"#utility.yul\":3015:3030   */\n      revert\n        /* \"#utility.yul\":3042:3236   */\n    tag_61:\n        /* \"#utility.yul\":3082:3086   */\n      0x00\n        /* \"#utility.yul\":3102:3122   */\n      tag_135\n        /* \"#utility.yul\":3120:3121   */\n      dup3\n        /* \"#utility.yul\":3102:3122   */\n      tag_87\n      jump\t// in\n    tag_135:\n        /* \"#utility.yul\":3097:3122   */\n      swap2\n      pop\n        /* \"#utility.yul\":3136:3156   */\n      tag_136\n        /* \"#utility.yul\":3154:3155   */\n      dup4\n        /* \"#utility.yul\":3136:3156   */\n      tag_87\n      jump\t// in\n    tag_136:\n        /* \"#utility.yul\":3131:3156   */\n      swap3\n      pop\n        /* \"#utility.yul\":3180:3181   */\n      dup3\n        /* \"#utility.yul\":3177:3178   */\n      dup3\n        /* \"#utility.yul\":3173:3182   */\n      sub\n        /* \"#utility.yul\":3165:3182   */\n      swap1\n      pop\n        /* \"#utility.yul\":3204:3205   */\n      dup2\n        /* \"#utility.yul\":3198:3202   */\n      dup2\n        /* \"#utility.yul\":3195:3206   */\n      gt\n        /* \"#utility.yul\":3192:3229   */\n      iszero\n      tag_137\n      jumpi\n        /* \"#utility.yul\":3209:3227   */\n      tag_138\n      tag_97\n      jump\t// in\n    tag_138:\n        /* \"#utility.yul\":3192:3229   */\n    tag_137:\n        /* \"#utility.yul\":3042:3236   */\n      swap3\n      swap2\n      pop\n      pop\n      jump\t// out\n        /* \"#utility.yul\":3242:3406   */\n    tag_98:\n        /* \"#utility.yul\":3382:3398   */\n      0x496e7465726e616c2043616c6c73000000000000000000000000000000000000\n        /* \"#utility.yul\":3378:3379   */\n      0x00\n        /* \"#utility.yul\":3370:3376   */\n      dup3\n        /* \"#utility.yul\":3366:3380   */\n      add\n        /* \"#utility.yul\":3359:3399   */\n      mstore\n        /* \"#utility.yul\":3242:3406   */\n      pop\n      jump\t// out\n        /* \"#utility.yul\":3412:3778   */\n    tag_99:\n        /* \"#utility.yul\":3554:3557   */\n      0x00\n        /* \"#utility.yul\":3575:3642   */\n      tag_141\n        /* \"#utility.yul\":3639:3641   */\n      0x0e\n        /* \"#utility.yul\":3634:3637   */\n      dup4\n        /* \"#utility.yul\":3575:3642   */\n      tag_94\n      jump\t// in\n    tag_141:\n        /* \"#utility.yul\":3568:3642   */\n      swap2\n      pop\n        /* \"#utility.yul\":3651:3744   */\n      tag_142\n        /* \"#utility.yul\":3740:3743   */\n      dup3\n        /* \"#utility.yul\":3651:3744   */\n      tag_98\n      jump\t// in\n    tag_142:\n        /* \"#utility.yul\":3769:3771   */\n      0x20\n        /* \"#utility.yul\":3764:3767   */\n      dup3\n        /* \"#utility.yul\":3760:3772   */\n      add\n        /* \"#utility.yul\":3753:3772   */\n      swap1\n      pop\n        /* \"#utility.yul\":3412:3778   */\n      swap2\n      swap1\n      pop\n      jump\t// out\n        /* \"#utility.yul\":3784:4313   */\n    tag_63:\n        /* \"#utility.yul\":3978:3982   */\n      0x00\n        /* \"#utility.yul\":4016:4018   */\n      0x40\n        /* \"#utility.yul\":4005:4014   */\n      dup3\n        /* \"#utility.yul\":4001:4019   */\n      add\n        /* \"#utility.yul\":3993:4019   */\n      swap1\n      pop\n        /* \"#utility.yul\":4065:4074   */\n      dup2\n        /* \"#utility.yul\":4059:4063   */\n      dup2\n        /* \"#utility.yul\":4055:4075   */\n      sub\n        /* \"#utility.yul\":4051:4052   */\n      0x00\n        /* \"#utility.yul\":4040:4049   */\n      dup4\n        /* \"#utility.yul\":4036:4053   */\n      add\n        /* \"#utility.yul\":4029:4076   */\n      mstore\n        /* \"#utility.yul\":4093:4224   */\n      tag_144\n        /* \"#utility.yul\":4219:4223   */\n      dup2\n        /* \"#utility.yul\":4093:4224   */\n      tag_99\n      jump\t// in\n    tag_144:\n        /* \"#utility.yul\":4085:4224   */\n      swap1\n      pop\n        /* \"#utility.yul\":4234:4306   */\n      tag_145\n        /* \"#utility.yul\":4302:4304   */\n      0x20\n        /* \"#utility.yul\":4291:4300   */\n      dup4\n        /* \"#utility.yul\":4287:4305   */\n      add\n        /* \"#utility.yul\":4278:4284   */\n      dup5\n        /* \"#utility.yul\":4234:4306   */\n      tag_88\n      jump\t// in\n    tag_145:\n        /* \"#utility.yul\":3784:4313   */\n      swap3\n      swap2\n      pop\n      pop\n      jump\t// out\n        /* \"#utility.yul\":4319:4552   */\n    tag_70:\n        /* \"#utility.yul\":4358:4361   */\n      0x00\n        /* \"#utility.yul\":4381:4405   */\n      tag_147\n        /* \"#utility.yul\":4399:4404   */\n      dup3\n        /* \"#utility.yul\":4381:4405   */\n      tag_87\n      jump\t// in\n    tag_147:\n        /* \"#utility.yul\":4372:4405   */\n      swap2\n      pop\n        /* \"#utility.yul\":4427:4493   */\n      0xffffffffffffffffffffffffffffffffffffffffffffffffffffffffffffffff\n        /* \"#utility.yul\":4420:4425   */\n      dup3\n        /* \"#utility.yul\":4417:4494   */\n      sub\n        /* \"#utility.yul\":4414:4517   */\n      tag_148\n      jumpi\n        /* \"#utility.yul\":4497:4515   */\n      tag_149\n      tag_97\n      jump\t// in\n    tag_149:\n        /* \"#utility.yul\":4414:4517   */\n    tag_148:\n        /* \"#utility.yul\":4544:4545   */\n      0x01\n        /* \"#utility.yul\":4537:4542   */\n      dup3\n        /* \"#utility.yul\":4533:4546   */\n      add\n        /* \"#utility.yul\":4526:4546   */\n      swap1\n      pop\n        /* \"#utility.yul\":4319:4552   */\n      swap2\n      swap1\n      pop\n      jump\t// out\n        /* \"#utility.yul\":4558:4684   */\n    tag_100:\n        /* \"#utility.yul\":4595:4602   */\n      0x00\n        /* \"#utility.yul\":4635:4677   */\n      0xffffffffffffffffffffffffffffffffffffffff\n        /* \"#utility.yul\":4628:4633   */\n      dup3\n        /* \"#utility.yul\":4624:4678   */\n      and\n        /* \"#utility.yul\":4613:4678   */\n      swap1\n      pop\n        /* \"#utility.yul\":4558:4684   */\n      swap2\n      swap1\n      pop\n      jump\t// out\n        /* \"#utility.yul\":4690:4786   */\n    tag_101:\n        /* \"#utility.yul\":4727:4734   */\n      0x00\n        /* \"#utility.yul\":4756:4780   */\n      tag_152\n        /* \"#utility.yul\":4774:4779   */\n      dup3\n        /* \"#utility.yul\":4756:4780   */\n      tag_100\n      jump\t// in\n    tag_152:\n        /* \"#utility.yul\":4745:4780   */\n      swap1\n      pop\n        /* \"#utility.yul\":4690:4786   */\n      swap2\n      swap1\n      pop\n      jump\t// out\n        /* \"#utility.yul\":4792:4910   */\n    tag_102:\n        /* \"#utility.yul\":4879:4903   */\n      tag_154\n        /* \"#utility.yul\":4897:4902   */\n      dup2\n        /* \"#utility.yul\":4879:4903   */\n      tag_101\n      jump\t// in\n    tag_154:\n        /* \"#utility.yul\":4874:4877   */\n      dup3\n        /* \"#utility.yul\":4867:4904   */\n      mstore\n        /* \"#utility.yul\":4792:4910   */\n      pop\n      pop\n      jump\t// out\n        /* \"#utility.yul\":4916:5358   */\n    tag_73:\n        /* \"#utility.yul\":5065:5069   */\n      0x00\n        /* \"#utility.yul\":5103:5105   */\n      0x60\n        /* \"#utility.yul\":5092:5101   */\n      dup3\n        /* \"#utility.yul\":5088:5106   */\n      add\n        /* \"#utility.yul\":5080:5106   */\n      swap1\n      pop\n        /* \"#utility.yul\":5116:5187   */\n      tag_156\n        /* \"#utility.yul\":5184:5185   */\n      0x00\n        /* \"#utility.yul\":5173:5182   */\n      dup4\n        /* \"#utility.yul\":5169:5186   */\n      add\n        /* \"#utility.yul\":5160:5166   */\n      dup7\n        /* \"#utility.yul\":5116:5187   */\n      tag_102\n      jump\t// in\n    tag_156:\n        /* \"#utility.yul\":5197:5269   */\n      tag_157\n        /* \"#utility.yul\":5265:5267   */\n      0x20\n        /* \"#utility.yul\":5254:5263   */\n      dup4\n        /* \"#utility.yul\":5250:5268   */\n      add\n        /* \"#utility.yul\":5241:5247   */\n      dup6\n        /* \"#utility.yul\":5197:5269   */\n      tag_88\n      jump\t// in\n    tag_157:\n        /* \"#utility.yul\":5279:5351   */\n      tag_158\n        /* \"#utility.yul\":5347:5349   */\n      0x40\n        /* \"#utility.yul\":5336:5345   */\n      dup4\n        /* \"#utility.yul\":5332:5350   */\n      add\n        /* \"#utility.yul\":5323:5329   */\n      dup5\n        /* \"#utility.yul\":5279:5351   */\n      tag_88\n      jump\t// in\n    tag_158:\n        /* \"#utility.yul\":4916:5358   */\n      swap5\n      swap4\n      pop\n      pop\n      pop\n      pop\n      jump\t// out\n        /* \"#utility.yul\":5364:5528   */\n    tag_103:\n        /* \"#utility.yul\":5504:5520   */\n      0x45787465726e616c2043616c6c73000000000000000000000000000000000000\n        /* \"#utility.yul\":5500:5501   */\n      0x00\n        /* \"#utility.yul\":5492:5498   */\n      dup3\n        /* \"#utility.yul\":5488:5502   */\n      add\n        /* \"#utility.yul\":5481:5521   */\n      mstore\n        /* \"#utility.yul\":5364:5528   */\n      pop\n      jump\t// out\n        /* \"#utility.yul\":5534:5900   */\n    tag_104:\n        /* \"#utility.yul\":5676:5679   */\n      0x00\n        /* \"#utility.yul\":5697:5764   */\n      tag_161\n        /* \"#utility.yul\":5761:5763   */\n      0x0e\n        /* \"#utility.yul\":5756:5759   */\n      dup4\n        /* \"#utility.yul\":5697:5764   */\n      tag_94\n      jump\t// in\n    tag_161:\n        /* \"#utility.yul\":5690:5764   */\n      swap2\n      pop\n        /* \"#utility.yul\":5773:5866   */\n      tag_162\n        /* \"#utility.yul\":5862:5865   */\n      dup3\n        /* \"#utility.yul\":5773:5866   */\n      tag_103\n      jump\t// in\n    tag_162:\n        /* \"#utility.yul\":5891:5893   */\n      0x20\n        /* \"#utility.yul\":5886:5889   */\n      dup3\n        /* \"#utility.yul\":5882:5894   */\n      add\n        /* \"#utility.yul\":5875:5894   */\n      swap1\n      pop\n        /* \"#utility.yul\":5534:5900   */\n      swap2\n      swap1\n      pop\n      jump\t// out\n        /* \"#utility.yul\":5906:6435   */\n    tag_86:\n        /* \"#utility.yul\":6100:6104   */\n      0x00\n        /* \"#utility.yul\":6138:6140   */\n      0x40\n        /* \"#utility.yul\":6127:6136   */\n      dup3\n        /* \"#utility.yul\":6123:6141   */\n      add\n        /* \"#utility.yul\":6115:6141   */\n      swap1\n      pop\n        /* \"#utility.yul\":6187:6196   */\n      dup2\n        /* \"#utility.yul\":6181:6185   */\n      dup2\n        /* \"#utility.yul\":6177:6197   */\n      sub\n        /* \"#utility.yul\":6173:6174   */\n      0x00\n        /* \"#utility.yul\":6162:6171   */\n      dup4\n        /* \"#utility.yul\":6158:6175   */\n      add\n        /* \"#utility.yul\":6151:6198   */\n      mstore\n        /* \"#utility.yul\":6215:6346   */\n      tag_164\n        /* \"#utility.yul\":6341:6345   */\n      dup2\n        /* \"#utility.yul\":6215:6346   */\n      tag_104\n      jump\t// in\n    tag_164:\n        /* \"#utility.yul\":6207:6346   */\n      swap1\n      pop\n        /* \"#utility.yul\":6356:6428   */\n      tag_165\n        /* \"#utility.yul\":6424:6426   */\n      0x20\n        /* \"#utility.yul\":6413:6422   */\n      dup4\n        /* \"#utility.yul\":6409:6427   */\n      add\n        /* \"#utility.yul\":6400:6406   */\n      dup5\n        /* \"#utility.yul\":6356:6428   */\n      tag_88\n      jump\t// in\n    tag_165:\n        /* \"#utility.yul\":5906:6435   */\n      swap3\n      swap2\n      pop\n      pop\n      jump\t// out\n\n    auxdata: 0xa264697066735822122063c5ad613b4feec4cfcd625d187e5c2a7803423d39e74997c9a4d0b270e619ea64736f6c63430008220033\n}\n",
				"bytecode": {
					"linkReferences": {},
					"object": "6080604052348015600e575f5ffd5b506108078061001c5f395ff3fe608060405234801561000f575f5ffd5b50600436106100a7575f3560e01c80638f32aa781161006f5780638f32aa7814610140578063a7a38f0b1461015f578063b1e964fe1461018f578063d826f88f146101ad578063de5021e0146101b7578063e93116b6146101d3576100a7565b80631865c57d146100ab5780632326305f146100ca5780633af3f24f146100e657806361bc221a146101045780636561fd9214610122575b5f5ffd5b6100b36101ef565b6040516100c19291906104b9565b60405180910390f35b6100e460048036038101906100df919061050e565b6101fe565b005b6100ee6102b9565b6040516100fb9190610539565b60405180910390f35b61010c6102bf565b6040516101199190610539565b60405180910390f35b61012a6102c4565b6040516101379190610539565b60405180910390f35b6101486102ca565b6040516101569291906104b9565b60405180910390f35b6101796004803603810190610174919061050e565b6102da565b6040516101869190610539565b60405180910390f35b6101976102fa565b6040516101a49190610539565b60405180910390f35b6101b5610300565b005b6101d160048036038101906101cc919061050e565b61031d565b005b6101ed60048036038101906101e8919061050e565b610389565b005b5f5f5f54600154915091509091565b6064811115610242576040517f08c379a0000000000000000000000000000000000000000000000000000000008152600401610239906105ac565b60405180910390fd5b5f5a90505f5f90505b828110156102695761025c8161031d565b808060010191505061024b565b505a8161027691906105f7565b6003819055507f4d605d112b717b70b80f393cc6a0239ae0459508e54af125ee28f92acbf7fc496003546040516102ad9190610674565b60405180910390a15050565b60015481565b5f5481565b60035481565b5f5f600354600454915091509091565b600281815481106102e9575f80fd5b905f5260205f20015f915090505481565b60045481565b5f5f819055505f6001819055505f6003819055505f600481905550565b5f5f81548092919061032e906106a0565b919050555060015f815480929190610345906106a0565b91905055507f72be742069ace8f31a078a0dea8b664a09950cb324664824ad95d9dd7e14c99133825f5460405161037e93929190610726565b60405180910390a150565b60648111156103cd576040517f08c379a00000000000000000000000000000000000000000000000000000000081526004016103c4906105ac565b60405180910390fd5b5f5a90505f5f90505b82811015610451573073ffffffffffffffffffffffffffffffffffffffff1663de5021e0826040518263ffffffff1660e01b81526004016104179190610539565b5f604051808303815f87803b15801561042e575f5ffd5b505af1158015610440573d5f5f3e3d5ffd5b5050505080806001019150506103d6565b505a8161045e91906105f7565b6004819055507f4d605d112b717b70b80f393cc6a0239ae0459508e54af125ee28f92acbf7fc4960045460405161049591906107a5565b60405180910390a15050565b5f819050919050565b6104b3816104a1565b82525050565b5f6040820190506104cc5f8301856104aa565b6104d960208301846104aa565b9392505050565b5f5ffd5b6104ed816104a1565b81146104f7575f5ffd5b50565b5f81359050610508816104e4565b92915050565b5f60208284031215610523576105226104e0565b5b5f610530848285016104fa565b91505092915050565b5f60208201905061054c5f8301846104aa565b92915050565b5f82825260208201905092915050565b7f4d6178203130302063616c6c73000000000000000000000000000000000000005f82015250565b5f610596600d83610552565b91506105a182610562565b602082019050919050565b5f6020820190508181035f8301526105c38161058a565b9050919050565b7f4e487b71000000000000000000000000000000000000000000000000000000005f52601160045260245ffd5b5f610601826104a1565b915061060c836104a1565b9250828203905081811115610624576106236105ca565b5b92915050565b7f496e7465726e616c2043616c6c730000000000000000000000000000000000005f82015250565b5f61065e600e83610552565b91506106698261062a565b602082019050919050565b5f6040820190508181035f83015261068b81610652565b905061069a60208301846104aa565b92915050565b5f6106aa826104a1565b91507fffffffffffffffffffffffffffffffffffffffffffffffffffffffffffffffff82036106dc576106db6105ca565b5b600182019050919050565b5f73ffffffffffffffffffffffffffffffffffffffff82169050919050565b5f610710826106e7565b9050919050565b61072081610706565b82525050565b5f6060820190506107395f830186610717565b61074660208301856104aa565b61075360408301846104aa565b949350505050565b7f45787465726e616c2043616c6c730000000000000000000000000000000000005f82015250565b5f61078f600e83610552565b915061079a8261075b565b602082019050919050565b5f6040820190508181035f8301526107bc81610783565b90506107cb60208301846104aa565b9291505056fea264697066735822122063c5ad613b4feec4cfcd625d187e5c2a7803423d39e74997c9a4d0b270e619ea64736f6c63430008220033",
					"opcodes": "PUSH1 0x80 PUSH1 0x40 MSTORE CALLVALUE DUP1 ISZERO PUSH1 0xE JUMPI PUSH0 PUSH0 REVERT JUMPDEST POP PUSH2 0x807 DUP1 PUSH2 0x1C PUSH0 CODECOPY PUSH0 RETURN INVALID PUSH1 0x80 PUSH1 0x40 MSTORE CALLVALUE DUP1 ISZERO PUSH2 0xF JUMPI PUSH0 PUSH0 REVERT JUMPDEST POP PUSH1 0x4 CALLDATASIZE LT PUSH2 0xA7 JUMPI PUSH0 CALLDATALOAD PUSH1 0xE0 SHR DUP1 PUSH4 0x8F32AA78 GT PUSH2 0x6F JUMPI DUP1 PUSH4 0x8F32AA78 EQ PUSH2 0x140 JUMPI DUP1 PUSH4 0xA7A38F0B EQ PUSH2 0x15F JUMPI DUP1 PUSH4 0xB1E964FE EQ PUSH2 0x18F JUMPI DUP1 PUSH4 0xD826F88F EQ PUSH2 0x1AD JUMPI DUP1 PUSH4 0xDE5021E0 EQ PUSH2 0x1B7 JUMPI DUP1 PUSH4 0xE93116B6 EQ PUSH2 0x1D3 JUMPI PUSH2 0xA7 JUMP JUMPDEST DUP1 PUSH4 0x1865C57D EQ PUSH2 0xAB JUMPI DUP1 PUSH4 0x2326305F EQ PUSH2 0xCA JUMPI DUP1 PUSH4 0x3AF3F24F EQ PUSH2 0xE6 JUMPI DUP1 PUSH4 0x61BC221A EQ PUSH2 0x104 JUMPI DUP1 PUSH4 0x6561FD92 EQ PUSH2 0x122 JUMPI JUMPDEST PUSH0 PUSH0 REVERT JUMPDEST PUSH2 0xB3 PUSH2 0x1EF JUMP JUMPDEST PUSH1 0x40 MLOAD PUSH2 0xC1 SWAP3 SWAP2 SWAP1 PUSH2 0x4B9 JUMP JUMPDEST PUSH1 0x40 MLOAD DUP1 SWAP2 SUB SWAP1 RETURN JUMPDEST PUSH2 0xE4 PUSH1 0x4 DUP1 CALLDATASIZE SUB DUP2 ADD SWAP1 PUSH2 0xDF SWAP2 SWAP1 PUSH2 0x50E JUMP JUMPDEST PUSH2 0x1FE JUMP JUMPDEST STOP JUMPDEST PUSH2 0xEE PUSH2 0x2B9 JUMP JUMPDEST PUSH1 0x40 MLOAD PUSH2 0xFB SWAP2 SWAP1 PUSH2 0x539 JUMP JUMPDEST PUSH1 0x40 MLOAD DUP1 SWAP2 SUB SWAP1 RETURN JUMPDEST PUSH2 0x10C PUSH2 0x2BF JUMP JUMPDEST PUSH1 0x40 MLOAD PUSH2 0x119 SWAP2 SWAP1 PUSH2 0x539 JUMP JUMPDEST PUSH1 0x40 MLOAD DUP1 SWAP2 SUB SWAP1 RETURN JUMPDEST PUSH2 0x12A PUSH2 0x2C4 JUMP JUMPDEST PUSH1 0x40 MLOAD PUSH2 0x137 SWAP2 SWAP1 PUSH2 0x539 JUMP JUMPDEST PUSH1 0x40 MLOAD DUP1 SWAP2 SUB SWAP1 RETURN JUMPDEST PUSH2 0x148 PUSH2 0x2CA JUMP JUMPDEST PUSH1 0x40 MLOAD PUSH2 0x156 SWAP3 SWAP2 SWAP1 PUSH2 0x4B9 JUMP JUMPDEST PUSH1 0x40 MLOAD DUP1 SWAP2 SUB SWAP1 RETURN JUMPDEST PUSH2 0x179 PUSH1 0x4 DUP1 CALLDATASIZE SUB DUP2 ADD SWAP1 PUSH2 0x174 SWAP2 SWAP1 PUSH2 0x50E JUMP JUMPDEST PUSH2 0x2DA JUMP JUMPDEST PUSH1 0x40 MLOAD PUSH2 0x186 SWAP2 SWAP1 PUSH2 0x539 JUMP JUMPDEST PUSH1 0x40 MLOAD DUP1 SWAP2 SUB SWAP1 RETURN JUMPDEST PUSH2 0x197 PUSH2 0x2FA JUMP JUMPDEST PUSH1 0x40 MLOAD PUSH2 0x1A4 SWAP2 SWAP1 PUSH2 0x539 JUMP JUMPDEST PUSH1 0x40 MLOAD DUP1 SWAP2 SUB SWAP1 RETURN JUMPDEST PUSH2 0x1B5 PUSH2 0x300 JUMP JUMPDEST STOP JUMPDEST PUSH2 0x1D1 PUSH1 0x4 DUP1 CALLDATASIZE SUB DUP2 ADD SWAP1 PUSH2 0x1CC SWAP2 SWAP1 PUSH2 0x50E JUMP JUMPDEST PUSH2 0x31D JUMP JUMPDEST STOP JUMPDEST PUSH2 0x1ED PUSH1 0x4 DUP1 CALLDATASIZE SUB DUP2 ADD SWAP1 PUSH2 0x1E8 SWAP2 SWAP1 PUSH2 0x50E JUMP JUMPDEST PUSH2 0x389 JUMP JUMPDEST STOP JUMPDEST PUSH0 PUSH0 PUSH0 SLOAD PUSH1 0x1 SLOAD SWAP2 POP SWAP2 POP SWAP1 SWAP2 JUMP JUMPDEST PUSH1 0x64 DUP2 GT ISZERO PUSH2 0x242 JUMPI PUSH1 0x40 MLOAD PUSH32 0x8C379A000000000000000000000000000000000000000000000000000000000 DUP2 MSTORE PUSH1 0x4 ADD PUSH2 0x239 SWAP1 PUSH2 0x5AC JUMP JUMPDEST PUSH1 0x40 MLOAD DUP1 SWAP2 SUB SWAP1 REVERT JUMPDEST PUSH0 GAS SWAP1 POP PUSH0 PUSH0 SWAP1 POP JUMPDEST DUP3 DUP2 LT ISZERO PUSH2 0x269 JUMPI PUSH2 0x25C DUP2 PUSH2 0x31D JUMP JUMPDEST DUP1 DUP1 PUSH1 0x1 ADD SWAP2 POP POP PUSH2 0x24B JUMP JUMPDEST POP GAS DUP2 PUSH2 0x276 SWAP2 SWAP1 PUSH2 0x5F7 JUMP JUMPDEST PUSH1 0x3 DUP2 SWAP1 SSTORE POP PUSH32 0x4D605D112B717B70B80F393CC6A0239AE0459508E54AF125EE28F92ACBF7FC49 PUSH1 0x3 SLOAD PUSH1 0x40 MLOAD PUSH2 0x2AD SWAP2 SWAP1 PUSH2 0x674 JUMP JUMPDEST PUSH1 0x40 MLOAD DUP1 SWAP2 SUB SWAP1 LOG1 POP POP JUMP JUMPDEST PUSH1 0x1 SLOAD DUP2 JUMP JUMPDEST PUSH0 SLOAD DUP2 JUMP JUMPDEST PUSH1 0x3 SLOAD DUP2 JUMP JUMPDEST PUSH0 PUSH0 PUSH1 0x3 SLOAD PUSH1 0x4 SLOAD SWAP2 POP SWAP2 POP SWAP1 SWAP2 JUMP JUMPDEST PUSH1 0x2 DUP2 DUP2 SLOAD DUP2 LT PUSH2 0x2E9 JUMPI PUSH0 DUP1 REVERT JUMPDEST SWAP1 PUSH0 MSTORE PUSH1 0x20 PUSH0 KECCAK256 ADD PUSH0 SWAP2 POP SWAP1 POP SLOAD DUP2 JUMP JUMPDEST PUSH1 0x4 SLOAD DUP2 JUMP JUMPDEST PUSH0 PUSH0 DUP2 SWAP1 SSTORE POP PUSH0 PUSH1 0x1 DUP2 SWAP1 SSTORE POP PUSH0 PUSH1 0x3 DUP2 SWAP1 SSTORE POP PUSH0 PUSH1 0x4 DUP2 SWAP1 SSTORE POP JUMP JUMPDEST PUSH0 PUSH0 DUP2 SLOAD DUP1 SWAP3 SWAP2 SWAP1 PUSH2 0x32E SWAP1 PUSH2 0x6A0 JUMP JUMPDEST SWAP2 SWAP1 POP SSTORE POP PUSH1 0x1 PUSH0 DUP2 SLOAD DUP1 SWAP3 SWAP2 SWAP1 PUSH2 0x345 SWAP1 PUSH2 0x6A0 JUMP JUMPDEST SWAP2 SWAP1 POP SSTORE POP PUSH32 0x72BE742069ACE8F31A078A0DEA8B664A09950CB324664824AD95D9DD7E14C991 CALLER DUP3 PUSH0 SLOAD PUSH1 0x40 MLOAD PUSH2 0x37E SWAP4 SWAP3 SWAP2 SWAP1 PUSH2 0x726 JUMP JUMPDEST PUSH1 0x40 MLOAD DUP1 SWAP2 SUB SWAP1 LOG1 POP JUMP JUMPDEST PUSH1 0x64 DUP2 GT ISZERO PUSH2 0x3CD JUMPI PUSH1 0x40 MLOAD PUSH32 0x8C379A000000000000000000000000000000000000000000000000000000000 DUP2 MSTORE PUSH1 0x4 ADD PUSH2 0x3C4 SWAP1 PUSH2 0x5AC JUMP JUMPDEST PUSH1 0x40 MLOAD DUP1 SWAP2 SUB SWAP1 REVERT JUMPDEST PUSH0 GAS SWAP1 POP PUSH0 PUSH0 SWAP1 POP JUMPDEST DUP3 DUP2 LT ISZERO PUSH2 0x451 JUMPI ADDRESS PUSH20 0xFFFFFFFFFFFFFFFFFFFFFFFFFFFFFFFFFFFFFFFF AND PUSH4 0xDE5021E0 DUP3 PUSH1 0x40 MLOAD DUP3 PUSH4 0xFFFFFFFF AND PUSH1 0xE0 SHL DUP2 MSTORE PUSH1 0x4 ADD PUSH2 0x417 SWAP2 SWAP1 PUSH2 0x539 JUMP JUMPDEST PUSH0 PUSH1 0x40 MLOAD DUP1 DUP4 SUB DUP2 PUSH0 DUP8 DUP1 EXTCODESIZE ISZERO DUP1 ISZERO PUSH2 0x42E JUMPI PUSH0 PUSH0 REVERT JUMPDEST POP GAS CALL ISZERO DUP1 ISZERO PUSH2 0x440 JUMPI RETURNDATASIZE PUSH0 PUSH0 RETURNDATACOPY RETURNDATASIZE PUSH0 REVERT JUMPDEST POP POP POP POP DUP1 DUP1 PUSH1 0x1 ADD SWAP2 POP POP PUSH2 0x3D6 JUMP JUMPDEST POP GAS DUP2 PUSH2 0x45E SWAP2 SWAP1 PUSH2 0x5F7 JUMP JUMPDEST PUSH1 0x4 DUP2 SWAP1 SSTORE POP PUSH32 0x4D605D112B717B70B80F393CC6A0239AE0459508E54AF125EE28F92ACBF7FC49 PUSH1 0x4 SLOAD PUSH1 0x40 MLOAD PUSH2 0x495 SWAP2 SWAP1 PUSH2 0x7A5 JUMP JUMPDEST PUSH1 0x40 MLOAD DUP1 SWAP2 SUB SWAP1 LOG1 POP POP JUMP JUMPDEST PUSH0 DUP2 SWAP1 POP SWAP2 SWAP1 POP JUMP JUMPDEST PUSH2 0x4B3 DUP2 PUSH2 0x4A1 JUMP JUMPDEST DUP3 MSTORE POP POP JUMP JUMPDEST PUSH0 PUSH1 0x40 DUP3 ADD SWAP1 POP PUSH2 0x4CC PUSH0 DUP4 ADD DUP6 PUSH2 0x4AA JUMP JUMPDEST PUSH2 0x4D9 PUSH1 0x20 DUP4 ADD DUP5 PUSH2 0x4AA JUMP JUMPDEST SWAP4 SWAP3 POP POP POP JUMP JUMPDEST PUSH0 PUSH0 REVERT JUMPDEST PUSH2 0x4ED DUP2 PUSH2 0x4A1 JUMP JUMPDEST DUP2 EQ PUSH2 0x4F7 JUMPI PUSH0 PUSH0 REVERT JUMPDEST POP JUMP JUMPDEST PUSH0 DUP2 CALLDATALOAD SWAP1 POP PUSH2 0x508 DUP2 PUSH2 0x4E4 JUMP JUMPDEST SWAP3 SWAP2 POP POP JUMP JUMPDEST PUSH0 PUSH1 0x20 DUP3 DUP5 SUB SLT ISZERO PUSH2 0x523 JUMPI PUSH2 0x522 PUSH2 0x4E0 JUMP JUMPDEST JUMPDEST PUSH0 PUSH2 0x530 DUP5 DUP3 DUP6 ADD PUSH2 0x4FA JUMP JUMPDEST SWAP2 POP POP SWAP3 SWAP2 POP POP JUMP JUMPDEST PUSH0 PUSH1 0x20 DUP3 ADD SWAP1 POP PUSH2 0x54C PUSH0 DUP4 ADD DUP5 PUSH2 0x4AA JUMP JUMPDEST SWAP3 SWAP2 POP POP JUMP JUMPDEST PUSH0 DUP3 DUP3 MSTORE PUSH1 0x20 DUP3 ADD SWAP1 POP SWAP3 SWAP2 POP POP JUMP JUMPDEST PUSH32 0x4D6178203130302063616C6C7300000000000000000000000000000000000000 PUSH0 DUP3 ADD MSTORE POP JUMP JUMPDEST PUSH0 PUSH2 0x596 PUSH1 0xD DUP4 PUSH2 0x552 JUMP JUMPDEST SWAP2 POP PUSH2 0x5A1 DUP3 PUSH2 0x562 JUMP JUMPDEST PUSH1 0x20 DUP3 ADD SWAP1 POP SWAP2 SWAP1 POP JUMP JUMPDEST PUSH0 PUSH1 0x20 DUP3 ADD SWAP1 POP DUP2 DUP2 SUB PUSH0 DUP4 ADD MSTORE PUSH2 0x5C3 DUP2 PUSH2 0x58A JUMP JUMPDEST SWAP1 POP SWAP2 SWAP1 POP JUMP JUMPDEST PUSH32 0x4E487B7100000000000000000000000000000000000000000000000000000000 PUSH0 MSTORE PUSH1 0x11 PUSH1 0x4 MSTORE PUSH1 0x24 PUSH0 REVERT JUMPDEST PUSH0 PUSH2 0x601 DUP3 PUSH2 0x4A1 JUMP JUMPDEST SWAP2 POP PUSH2 0x60C DUP4 PUSH2 0x4A1 JUMP JUMPDEST SWAP3 POP DUP3 DUP3 SUB SWAP1 POP DUP2 DUP2 GT ISZERO PUSH2 0x624 JUMPI PUSH2 0x623 PUSH2 0x5CA JUMP JUMPDEST JUMPDEST SWAP3 SWAP2 POP POP JUMP JUMPDEST PUSH32 0x496E7465726E616C2043616C6C73000000000000000000000000000000000000 PUSH0 DUP3 ADD MSTORE POP JUMP JUMPDEST PUSH0 PUSH2 0x65E PUSH1 0xE DUP4 PUSH2 0x552 JUMP JUMPDEST SWAP2 POP PUSH2 0x669 DUP3 PUSH2 0x62A JUMP JUMPDEST PUSH1 0x20 DUP3 ADD SWAP1 POP SWAP2 SWAP1 POP JUMP JUMPDEST PUSH0 PUSH1 0x40 DUP3 ADD SWAP1 POP DUP2 DUP2 SUB PUSH0 DUP4 ADD MSTORE PUSH2 0x68B DUP2 PUSH2 0x652 JUMP JUMPDEST SWAP1 POP PUSH2 0x69A PUSH1 0x20 DUP4 ADD DUP5 PUSH2 0x4AA JUMP JUMPDEST SWAP3 SWAP2 POP POP JUMP JUMPDEST PUSH0 PUSH2 0x6AA DUP3 PUSH2 0x4A1 JUMP JUMPDEST SWAP2 POP PUSH32 0xFFFFFFFFFFFFFFFFFFFFFFFFFFFFFFFFFFFFFFFFFFFFFFFFFFFFFFFFFFFFFFFF DUP3 SUB PUSH2 0x6DC JUMPI PUSH2 0x6DB PUSH2 0x5CA JUMP JUMPDEST JUMPDEST PUSH1 0x1 DUP3 ADD SWAP1 POP SWAP2 SWAP1 POP JUMP JUMPDEST PUSH0 PUSH20 0xFFFFFFFFFFFFFFFFFFFFFFFFFFFFFFFFFFFFFFFF DUP3 AND SWAP1 POP SWAP2 SWAP1 POP JUMP JUMPDEST PUSH0 PUSH2 0x710 DUP3 PUSH2 0x6E7 JUMP JUMPDEST SWAP1 POP SWAP2 SWAP1 POP JUMP JUMPDEST PUSH2 0x720 DUP2 PUSH2 0x706 JUMP JUMPDEST DUP3 MSTORE POP POP JUMP JUMPDEST PUSH0 PUSH1 0x60 DUP3 ADD SWAP1 POP PUSH2 0x739 PUSH0 DUP4 ADD DUP7 PUSH2 0x717 JUMP JUMPDEST PUSH2 0x746 PUSH1 0x20 DUP4 ADD DUP6 PUSH2 0x4AA JUMP JUMPDEST PUSH2 0x753 PUSH1 0x40 DUP4 ADD DUP5 PUSH2 0x4AA JUMP JUMPDEST SWAP5 SWAP4 POP POP POP POP JUMP JUMPDEST PUSH32 0x45787465726E616C2043616C6C73000000000000000000000000000000000000 PUSH0 DUP3 ADD MSTORE POP JUMP JUMPDEST PUSH0 PUSH2 0x78F PUSH1 0xE DUP4 PUSH2 0x552 JUMP JUMPDEST SWAP2 POP PUSH2 0x79A DUP3 PUSH2 0x75B JUMP JUMPDEST PUSH1 0x20 DUP3 ADD SWAP1 POP SWAP2 SWAP1 POP JUMP JUMPDEST PUSH0 PUSH1 0x40 DUP3 ADD SWAP1 POP DUP2 DUP2 SUB PUSH0 DUP4 ADD MSTORE PUSH2 0x7BC DUP2 PUSH2 0x783 JUMP JUMPDEST SWAP1 POP PUSH2 0x7CB PUSH1 0x20 DUP4 ADD DUP5 PUSH2 0x4AA JUMP JUMPDEST SWAP3 SWAP2 POP POP JUMP INVALID LOG2 PUSH5 0x6970667358 0x22 SLT KECCAK256 PUSH4 0xC5AD613B 0x4F RETURNCONTRACT 0xC4 0xCF 0xCD PUSH3 0x5D187E TLOAD 0x2A PUSH25 0x3423D39E74997C9A4D0B270E619EA64736F6C634300082200 CALLER "
				},
				"gasEstimates": {
					"creation": {
						"codeDepositCost": "411000",
						"executionCost": "447",
						"totalCost": "411447"
					},
					"external": {
						"compareGas()": "infinite",
						"counter()": "2491",
						"externalGasUsed()": "2469",
						"externalStyleStress(uint256)": "infinite",
						"getState()": "infinite",
						"history(uint256)": "infinite",
						"internalGasUsed()": "2514",
						"reset()": "20260",
						"singleCall(uint256)": "infinite",
						"stressTest(uint256)": "infinite",
						"totalCalls()": "2470"
					}
				},
				"methodIdentifiers": {
					"compareGas()": "8f32aa78",
					"counter()": "61bc221a",
					"externalGasUsed()": "b1e964fe",
					"externalStyleStress(uint256)": "e93116b6",
					"getState()": "1865c57d",
					"history(uint256)": "a7a38f0b",
					"internalGasUsed()": "6561fd92",
					"reset()": "d826f88f",
					"singleCall(uint256)": "de5021e0",
					"stressTest(uint256)": "2326305f",
					"totalCalls()": "3af3f24f"
				}
			},
			"storageLayout": {
				"storage": [
					{
						"astId": 99,
						"contract": "val73.sol:StressTestCalls",
						"label": "counter",
						"offset": 0,
						"slot": "0",
						"type": "t_uint256"
					},
					{
						"astId": 101,
						"contract": "val73.sol:StressTestCalls",
						"label": "totalCalls",
						"offset": 0,
						"slot": "1",
						"type": "t_uint256"
					},
					{
						"astId": 104,
						"contract": "val73.sol:StressTestCalls",
						"label": "history",
						"offset": 0,
						"slot": "2",
						"type": "t_array(t_uint256)dyn_storage"
					},
					{
						"astId": 106,
						"contract": "val73.sol:StressTestCalls",
						"label": "internalGasUsed",
						"offset": 0,
						"slot": "3",
						"type": "t_uint256"
					},
					{
						"astId": 108,
						"contract": "val73.sol:StressTestCalls",
						"label": "externalGasUsed",
						"offset": 0,
						"slot": "4",
						"type": "t_uint256"
					}
				],
				"types": {
					"t_array(t_uint256)dyn_storage": {
						"base": "t_uint256",
						"encoding": "dynamic_array",
						"label": "uint256[]",
						"numberOfBytes": "32"
					},
					"t_uint256": {
						"encoding": "inplace",
						"label": "uint256",
						"numberOfBytes": "32"
					}
				}
			},
			"userdoc": {
				"kind": "user",
				"methods": {},
				"version": 1
			}
		}
	}
}