{
	"val80.sol": {
		"ProxyContract": {
			"abi": [
				{
					"inputs": [
						{
							"internalType": "address",
							"name": "_logic",
							"type": "address"
						}
					],
					"stateMutability": "nonpayable",
					"type": "constructor"
				},
				{
					"inputs": [],
					"name": "logic",
					"outputs": [
						{
							"internalType": "address",
							"name": "",
							"type": "address"
						}
					],
					"stateMutability": "view",
					"type": "function"
				},
				{
					"inputs": [],
					"name": "num",
					"outputs": [
						{
							"internalType": "uint256",
							"name": "",
							"type": "uint256"
						}
					],
					"stateMutability": "view",
					"type": "function"
				},
				{
					"inputs": [],
					"name": "sender",
					"outputs": [
						{
							"internalType": "address",
							"name": "",
							"type": "address"
						}
					],
					"stateMutability": "view",
					"type": "function"
				},
				{
					"inputs": [
						{
							"internalType": "uint256",
							"name": "_num",
							"type": "uint256"
						}
					],
					"name": "setViaDelegate",
					"outputs": [],
					"stateMutability": "payable",
					"type": "function"
				}
			],
			"devdoc": {
				"kind": "dev",
				"methods": {},
				"version": 1
			},
			"evm": {
				"assembly": "    /* \"val80.sol\":1751:2439  contract ProxyContract {... */\n  mstore(0x40, 0x80)\n    /* \"val80.sol\":1918:1979  constructor(address _logic) {... */\n  callvalue\n  dup1\n  iszero\n  tag_1\n  jumpi\n  revert(0x00, 0x00)\ntag_1:\n  pop\n  mload(0x40)\n  sub(codesize, bytecodeSize)\n  dup1\n  bytecodeSize\n  dup4\n  codecopy\n  dup2\n  dup2\n  add\n  0x40\n  mstore\n  dup2\n  add\n  swap1\n  tag_2\n  swap2\n  swap1\n  tag_3\n  jump\t// in\ntag_2:\n    /* \"val80.sol\":1965:1971  _logic */\n  dup1\n    /* \"val80.sol\":1957:1962  logic */\n  0x02\n  0x00\n    /* \"val80.sol\":1957:1971  logic = _logic */\n  0x0100\n  exp\n  dup2\n  sload\n  dup2\n  0xffffffffffffffffffffffffffffffffffffffff\n  mul\n  not\n  and\n  swap1\n  dup4\n  0xffffffffffffffffffffffffffffffffffffffff\n  and\n  mul\n  or\n  swap1\n  sstore\n  pop\n    /* \"val80.sol\":1918:1979  constructor(address _logic) {... */\n  pop\n    /* \"val80.sol\":1751:2439  contract ProxyContract {... */\n  jump(tag_6)\n    /* \"#utility.yul\":88:205   */\ntag_8:\n    /* \"#utility.yul\":197:198   */\n  0x00\n    /* \"#utility.yul\":194:195   */\n  0x00\n    /* \"#utility.yul\":187:199   */\n  revert\n    /* \"#utility.yul\":334:460   */\ntag_10:\n    /* \"#utility.yul\":371:378   */\n  0x00\n    /* \"#utility.yul\":411:453   */\n  0xffffffffffffffffffffffffffffffffffffffff\n    /* \"#utility.yul\":404:409   */\n  dup3\n    /* \"#utility.yul\":400:454   */\n  and\n    /* \"#utility.yul\":389:454   */\n  swap1\n  pop\n    /* \"#utility.yul\":334:460   */\n  swap2\n  swap1\n  pop\n  jump\t// out\n    /* \"#utility.yul\":466:562   */\ntag_11:\n    /* \"#utility.yul\":503:510   */\n  0x00\n    /* \"#utility.yul\":532:556   */\n  tag_20\n    /* \"#utility.yul\":550:555   */\n  dup3\n    /* \"#utility.yul\":532:556   */\n  tag_10\n  jump\t// in\ntag_20:\n    /* \"#utility.yul\":521:556   */\n  swap1\n  pop\n    /* \"#utility.yul\":466:562   */\n  swap2\n  swap1\n  pop\n  jump\t// out\n    /* \"#utility.yul\":568:690   */\ntag_12:\n    /* \"#utility.yul\":641:665   */\n  tag_22\n    /* \"#utility.yul\":659:664   */\n  dup2\n    /* \"#utility.yul\":641:665   */\n  tag_11\n  jump\t// in\ntag_22:\n    /* \"#utility.yul\":634:639   */\n  dup2\n    /* \"#utility.yul\":631:666   */\n  eq\n    /* \"#utility.yul\":621:684   */\n  tag_23\n  jumpi\n    /* \"#utility.yul\":680:681   */\n  0x00\n    /* \"#utility.yul\":677:678   */\n  0x00\n    /* \"#utility.yul\":670:682   */\n  revert\n    /* \"#utility.yul\":621:684   */\ntag_23:\n    /* \"#utility.yul\":568:690   */\n  pop\n  jump\t// out\n    /* \"#utility.yul\":696:839   */\ntag_13:\n    /* \"#utility.yul\":753:758   */\n  0x00\n    /* \"#utility.yul\":784:790   */\n  dup2\n    /* \"#utility.yul\":778:791   */\n  mload\n    /* \"#utility.yul\":769:791   */\n  swap1\n  pop\n    /* \"#utility.yul\":800:833   */\n  tag_25\n    /* \"#utility.yul\":827:832   */\n  dup2\n    /* \"#utility.yul\":800:833   */\n  tag_12\n  jump\t// in\ntag_25:\n    /* \"#utility.yul\":696:839   */\n  swap3\n  swap2\n  pop\n  pop\n  jump\t// out\n    /* \"#utility.yul\":845:1196   */\ntag_3:\n    /* \"#utility.yul\":915:921   */\n  0x00\n    /* \"#utility.yul\":964:966   */\n  0x20\n    /* \"#utility.yul\":952:961   */\n  dup3\n    /* \"#utility.yul\":943:950   */\n  dup5\n    /* \"#utility.yul\":939:962   */\n  sub\n    /* \"#utility.yul\":935:967   */\n  slt\n    /* \"#utility.yul\":932:1051   */\n  iszero\n  tag_27\n  jumpi\n    /* \"#utility.yul\":970:1049   */\n  tag_28\n  tag_8\n  jump\t// in\ntag_28:\n    /* \"#utility.yul\":932:1051   */\ntag_27:\n    /* \"#utility.yul\":1090:1091   */\n  0x00\n    /* \"#utility.yul\":1115:1179   */\n  tag_29\n    /* \"#utility.yul\":1171:1178   */\n  dup5\n    /* \"#utility.yul\":1162:1168   */\n  dup3\n    /* \"#utility.yul\":1151:1160   */\n  dup6\n    /* \"#utility.yul\":1147:1169   */\n  add\n    /* \"#utility.yul\":1115:1179   */\n  tag_13\n  jump\t// in\ntag_29:\n    /* \"#utility.yul\":1105:1179   */\n  swap2\n  pop\n    /* \"#utility.yul\":1061:1189   */\n  pop\n    /* \"#utility.yul\":845:1196   */\n  swap3\n  swap2\n  pop\n  pop\n  jump\t// out\n    /* \"val80.sol\":1751:2439  contract ProxyContract {... */\ntag_6:\n  dataSize(sub_0)\n  dup1\n  dataOffset(sub_0)\n  0x00\n  codecopy\n  0x00\n  return\nstop\n\nsub_0: assembly {\n        /* \"val80.sol\":1751:2439  contract ProxyContract {... */\n      mstore(0x40, 0x80)\n      jumpi(tag_1, lt(calldatasize, 0x04))\n      shr(0xe0, calldataload(0x00))\n      dup1\n      0x4e70b1dc\n      eq\n      tag_2\n      jumpi\n      dup1\n      0x67e404ce\n      eq\n      tag_3\n      jumpi\n      dup1\n      0xd7dfa0dd\n      eq\n      tag_4\n      jumpi\n      dup1\n      0xdf939062\n      eq\n      tag_5\n      jumpi\n    tag_1:\n      revert(0x00, 0x00)\n        /* \"val80.sol\":1783:1801  uint256 public num */\n    tag_2:\n      callvalue\n      dup1\n      iszero\n      tag_6\n      jumpi\n      revert(0x00, 0x00)\n    tag_6:\n      pop\n      tag_7\n      tag_8\n      jump\t// in\n    tag_7:\n      mload(0x40)\n      tag_9\n      swap2\n      swap1\n      tag_10\n      jump\t// in\n    tag_9:\n      mload(0x40)\n      dup1\n      swap2\n      sub\n      swap1\n      return\n        /* \"val80.sol\":1808:1829  address public sender */\n    tag_3:\n      callvalue\n      dup1\n      iszero\n      tag_11\n      jumpi\n      revert(0x00, 0x00)\n    tag_11:\n      pop\n      tag_12\n      tag_13\n      jump\t// in\n    tag_12:\n      mload(0x40)\n      tag_14\n      swap2\n      swap1\n      tag_15\n      jump\t// in\n    tag_14:\n      mload(0x40)\n      dup1\n      swap2\n      sub\n      swap1\n      return\n        /* \"val80.sol\":1889:1909  address public logic */\n    tag_4:\n      callvalue\n      dup1\n      iszero\n      tag_16\n      jumpi\n      revert(0x00, 0x00)\n    tag_16:\n      pop\n      tag_17\n      tag_18\n      jump\t// in\n    tag_17:\n      mload(0x40)\n      tag_19\n      swap2\n      swap1\n      tag_15\n      jump\t// in\n    tag_19:\n      mload(0x40)\n      dup1\n      swap2\n      sub\n      swap1\n      return\n        /* \"val80.sol\":2151:2436  function setViaDelegate(uint256 _num) external payable {... */\n    tag_5:\n      tag_20\n      0x04\n      dup1\n      calldatasize\n      sub\n      dup2\n      add\n      swap1\n      tag_21\n      swap2\n      swap1\n      tag_22\n      jump\t// in\n    tag_21:\n      tag_23\n      jump\t// in\n    tag_20:\n      stop\n        /* \"val80.sol\":1783:1801  uint256 public num */\n    tag_8:\n      sload(0x00)\n      dup2\n      jump\t// out\n        /* \"val80.sol\":1808:1829  address public sender */\n    tag_13:\n      0x01\n      0x00\n      swap1\n      sload\n      swap1\n      0x0100\n      exp\n      swap1\n      div\n      0xffffffffffffffffffffffffffffffffffffffff\n      and\n      dup2\n      jump\t// out\n        /* \"val80.sol\":1889:1909  address public logic */\n    tag_18:\n      0x02\n      0x00\n      swap1\n      sload\n      swap1\n      0x0100\n      exp\n      swap1\n      div\n      0xffffffffffffffffffffffffffffffffffffffff\n      and\n      dup2\n      jump\t// out\n        /* \"val80.sol\":2151:2436  function setViaDelegate(uint256 _num) external payable {... */\n    tag_23:\n        /* \"val80.sol\":2220:2232  bool success */\n      0x00\n        /* \"val80.sol\":2238:2243  logic */\n      0x02\n      0x00\n      swap1\n      sload\n      swap1\n      0x0100\n      exp\n      swap1\n      div\n      0xffffffffffffffffffffffffffffffffffffffff\n      and\n        /* \"val80.sol\":2238:2256  logic.delegatecall */\n      0xffffffffffffffffffffffffffffffffffffffff\n      and\n        /* \"val80.sol\":2346:2350  _num */\n      dup3\n        /* \"val80.sol\":2271:2365  abi.encodeWithSignature(... */\n      add(0x24, mload(0x40))\n      tag_25\n      swap2\n      swap1\n      tag_10\n      jump\t// in\n    tag_25:\n      mload(0x40)\n      0x20\n      dup2\n      dup4\n      sub\n      sub\n      dup2\n      mstore\n      swap1\n      0x40\n      mstore\n      and(not(0xffffffffffffffffffffffffffffffffffffffffffffffffffffffff), 0x60fe47b100000000000000000000000000000000000000000000000000000000)\n      0x20\n      dup3\n      add\n      dup1\n      mload\n      0xffffffffffffffffffffffffffffffffffffffffffffffffffffffff\n      dup4\n      dup2\n      dup4\n      and\n      or\n      dup4\n      mstore\n      pop\n      pop\n      pop\n      pop\n        /* \"val80.sol\":2238:2376  logic.delegatecall(... */\n      mload(0x40)\n      tag_26\n      swap2\n      swap1\n      tag_27\n      jump\t// in\n    tag_26:\n      0x00\n      mload(0x40)\n      dup1\n      dup4\n      sub\n      dup2\n      dup6\n      gas\n      delegatecall\n      swap2\n      pop\n      pop\n      returndatasize\n      dup1\n      0x00\n      dup2\n      eq\n      tag_30\n      jumpi\n      mload(0x40)\n      swap2\n      pop\n      and(add(returndatasize, 0x3f), not(0x1f))\n      dup3\n      add\n      0x40\n      mstore\n      returndatasize\n      dup3\n      mstore\n      returndatasize\n      0x00\n      0x20\n      dup5\n      add\n      returndatacopy\n      jump(tag_29)\n    tag_30:\n      0x60\n      swap2\n      pop\n    tag_29:\n      pop\n        /* \"val80.sol\":2219:2376  (bool success, ) = logic.delegatecall(... */\n      pop\n      swap1\n      pop\n        /* \"val80.sol\":2397:2404  success */\n      dup1\n        /* \"val80.sol\":2389:2428  require(success, \"delegatecall failed\") */\n      tag_31\n      jumpi\n      mload(0x40)\n      0x08c379a000000000000000000000000000000000000000000000000000000000\n      dup2\n      mstore\n      0x04\n      add\n      tag_32\n      swap1\n      tag_33\n      jump\t// in\n    tag_32:\n      mload(0x40)\n      dup1\n      swap2\n      sub\n      swap1\n      revert\n    tag_31:\n        /* \"val80.sol\":2206:2436  {... */\n      pop\n        /* \"val80.sol\":2151:2436  function setViaDelegate(uint256 _num) external payable {... */\n      pop\n      jump\t// out\n        /* \"#utility.yul\":7:84   */\n    tag_34:\n        /* \"#utility.yul\":44:51   */\n      0x00\n        /* \"#utility.yul\":73:78   */\n      dup2\n        /* \"#utility.yul\":62:78   */\n      swap1\n      pop\n        /* \"#utility.yul\":7:84   */\n      swap2\n      swap1\n      pop\n      jump\t// out\n        /* \"#utility.yul\":90:208   */\n    tag_35:\n        /* \"#utility.yul\":177:201   */\n      tag_54\n        /* \"#utility.yul\":195:200   */\n      dup2\n        /* \"#utility.yul\":177:201   */\n      tag_34\n      jump\t// in\n    tag_54:\n        /* \"#utility.yul\":172:175   */\n      dup3\n        /* \"#utility.yul\":165:202   */\n      mstore\n        /* \"#utility.yul\":90:208   */\n      pop\n      pop\n      jump\t// out\n        /* \"#utility.yul\":214:436   */\n    tag_10:\n        /* \"#utility.yul\":307:311   */\n      0x00\n        /* \"#utility.yul\":345:347   */\n      0x20\n        /* \"#utility.yul\":334:343   */\n      dup3\n        /* \"#utility.yul\":330:348   */\n      add\n        /* \"#utility.yul\":322:348   */\n      swap1\n      pop\n        /* \"#utility.yul\":358:429   */\n      tag_56\n        /* \"#utility.yul\":426:427   */\n      0x00\n        /* \"#utility.yul\":415:424   */\n      dup4\n        /* \"#utility.yul\":411:428   */\n      add\n        /* \"#utility.yul\":402:408   */\n      dup5\n        /* \"#utility.yul\":358:429   */\n      tag_35\n      jump\t// in\n    tag_56:\n        /* \"#utility.yul\":214:436   */\n      swap3\n      swap2\n      pop\n      pop\n      jump\t// out\n        /* \"#utility.yul\":442:568   */\n    tag_36:\n        /* \"#utility.yul\":479:486   */\n      0x00\n        /* \"#utility.yul\":519:561   */\n      0xffffffffffffffffffffffffffffffffffffffff\n        /* \"#utility.yul\":512:517   */\n      dup3\n        /* \"#utility.yul\":508:562   */\n      and\n        /* \"#utility.yul\":497:562   */\n      swap1\n      pop\n        /* \"#utility.yul\":442:568   */\n      swap2\n      swap1\n      pop\n      jump\t// out\n        /* \"#utility.yul\":574:670   */\n    tag_37:\n        /* \"#utility.yul\":611:618   */\n      0x00\n        /* \"#utility.yul\":640:664   */\n      tag_59\n        /* \"#utility.yul\":658:663   */\n      dup3\n        /* \"#utility.yul\":640:664   */\n      tag_36\n      jump\t// in\n    tag_59:\n        /* \"#utility.yul\":629:664   */\n      swap1\n      pop\n        /* \"#utility.yul\":574:670   */\n      swap2\n      swap1\n      pop\n      jump\t// out\n        /* \"#utility.yul\":676:794   */\n    tag_38:\n        /* \"#utility.yul\":763:787   */\n      tag_61\n        /* \"#utility.yul\":781:786   */\n      dup2\n        /* \"#utility.yul\":763:787   */\n      tag_37\n      jump\t// in\n    tag_61:\n        /* \"#utility.yul\":758:761   */\n      dup3\n        /* \"#utility.yul\":751:788   */\n      mstore\n        /* \"#utility.yul\":676:794   */\n      pop\n      pop\n      jump\t// out\n        /* \"#utility.yul\":800:1022   */\n    tag_15:\n        /* \"#utility.yul\":893:897   */\n      0x00\n        /* \"#utility.yul\":931:933   */\n      0x20\n        /* \"#utility.yul\":920:929   */\n      dup3\n        /* \"#utility.yul\":916:934   */\n      add\n        /* \"#utility.yul\":908:934   */\n      swap1\n      pop\n        /* \"#utility.yul\":944:1015   */\n      tag_63\n        /* \"#utility.yul\":1012:1013   */\n      0x00\n        /* \"#utility.yul\":1001:1010   */\n      dup4\n        /* \"#utility.yul\":997:1014   */\n      add\n        /* \"#utility.yul\":988:994   */\n      dup5\n        /* \"#utility.yul\":944:1015   */\n      tag_38\n      jump\t// in\n    tag_63:\n        /* \"#utility.yul\":800:1022   */\n      swap3\n      swap2\n      pop\n      pop\n      jump\t// out\n        /* \"#utility.yul\":1109:1226   */\n    tag_40:\n        /* \"#utility.yul\":1218:1219   */\n      0x00\n        /* \"#utility.yul\":1215:1216   */\n      0x00\n        /* \"#utility.yul\":1208:1220   */\n      revert\n        /* \"#utility.yul\":1355:1477   */\n    tag_42:\n        /* \"#utility.yul\":1428:1452   */\n      tag_68\n        /* \"#utility.yul\":1446:1451   */\n      dup2\n        /* \"#utility.yul\":1428:1452   */\n      tag_34\n      jump\t// in\n    tag_68:\n        /* \"#utility.yul\":1421:1426   */\n      dup2\n        /* \"#utility.yul\":1418:1453   */\n      eq\n        /* \"#utility.yul\":1408:1471   */\n      tag_69\n      jumpi\n        /* \"#utility.yul\":1467:1468   */\n      0x00\n        /* \"#utility.yul\":1464:1465   */\n      0x00\n        /* \"#utility.yul\":1457:1469   */\n      revert\n        /* \"#utility.yul\":1408:1471   */\n    tag_69:\n        /* \"#utility.yul\":1355:1477   */\n      pop\n      jump\t// out\n        /* \"#utility.yul\":1483:1622   */\n    tag_43:\n        /* \"#utility.yul\":1529:1534   */\n      0x00\n        /* \"#utility.yul\":1567:1573   */\n      dup2\n        /* \"#utility.yul\":1554:1574   */\n      calldataload\n        /* \"#utility.yul\":1545:1574   */\n      swap1\n      pop\n        /* \"#utility.yul\":1583:1616   */\n      tag_71\n        /* \"#utility.yul\":1610:1615   */\n      dup2\n        /* \"#utility.yul\":1583:1616   */\n      tag_42\n      jump\t// in\n    tag_71:\n        /* \"#utility.yul\":1483:1622   */\n      swap3\n      swap2\n      pop\n      pop\n      jump\t// out\n        /* \"#utility.yul\":1628:1957   */\n    tag_22:\n        /* \"#utility.yul\":1687:1693   */\n      0x00\n        /* \"#utility.yul\":1736:1738   */\n      0x20\n        /* \"#utility.yul\":1724:1733   */\n      dup3\n        /* \"#utility.yul\":1715:1722   */\n      dup5\n        /* \"#utility.yul\":1711:1734   */\n      sub\n        /* \"#utility.yul\":1707:1739   */\n      slt\n        /* \"#utility.yul\":1704:1823   */\n      iszero\n      tag_73\n      jumpi\n        /* \"#utility.yul\":1742:1821   */\n      tag_74\n      tag_40\n      jump\t// in\n    tag_74:\n        /* \"#utility.yul\":1704:1823   */\n    tag_73:\n        /* \"#utility.yul\":1862:1863   */\n      0x00\n        /* \"#utility.yul\":1887:1940   */\n      tag_75\n        /* \"#utility.yul\":1932:1939   */\n      dup5\n        /* \"#utility.yul\":1923:1929   */\n      dup3\n        /* \"#utility.yul\":1912:1921   */\n      dup6\n        /* \"#utility.yul\":1908:1930   */\n      add\n        /* \"#utility.yul\":1887:1940   */\n      tag_43\n      jump\t// in\n    tag_75:\n        /* \"#utility.yul\":1877:1940   */\n      swap2\n      pop\n        /* \"#utility.yul\":1833:1950   */\n      pop\n        /* \"#utility.yul\":1628:1957   */\n      swap3\n      swap2\n      pop\n      pop\n      jump\t// out\n        /* \"#utility.yul\":1963:2061   */\n    tag_44:\n        /* \"#utility.yul\":2014:2020   */\n      0x00\n        /* \"#utility.yul\":2048:2053   */\n      dup2\n        /* \"#utility.yul\":2042:2054   */\n      mload\n        /* \"#utility.yul\":2032:2054   */\n      swap1\n      pop\n        /* \"#utility.yul\":1963:2061   */\n      swap2\n      swap1\n      pop\n      jump\t// out\n        /* \"#utility.yul\":2067:2214   */\n    tag_45:\n        /* \"#utility.yul\":2168:2179   */\n      0x00\n        /* \"#utility.yul\":2205:2208   */\n      dup2\n        /* \"#utility.yul\":2190:2208   */\n      swap1\n      pop\n        /* \"#utility.yul\":2067:2214   */\n      swap3\n      swap2\n      pop\n      pop\n      jump\t// out\n        /* \"#utility.yul\":2220:2359   */\n    tag_46:\n        /* \"#utility.yul\":2309:2315   */\n      dup3\n        /* \"#utility.yul\":2304:2307   */\n      dup2\n        /* \"#utility.yul\":2299:2302   */\n      dup4\n        /* \"#utility.yul\":2293:2316   */\n      mcopy\n        /* \"#utility.yul\":2350:2351   */\n      0x00\n        /* \"#utility.yul\":2341:2347   */\n      dup4\n        /* \"#utility.yul\":2336:2339   */\n      dup4\n        /* \"#utility.yul\":2332:2348   */\n      add\n        /* \"#utility.yul\":2325:2352   */\n      mstore\n        /* \"#utility.yul\":2220:2359   */\n      pop\n      pop\n      pop\n      jump\t// out\n        /* \"#utility.yul\":2365:2751   */\n    tag_47:\n        /* \"#utility.yul\":2469:2472   */\n      0x00\n        /* \"#utility.yul\":2497:2535   */\n      tag_80\n        /* \"#utility.yul\":2529:2534   */\n      dup3\n        /* \"#utility.yul\":2497:2535   */\n      tag_44\n      jump\t// in\n    tag_80:\n        /* \"#utility.yul\":2551:2639   */\n      tag_81\n        /* \"#utility.yul\":2632:2638   */\n      dup2\n        /* \"#utility.yul\":2627:2630   */\n      dup6\n        /* \"#utility.yul\":2551:2639   */\n      tag_45\n      jump\t// in\n    tag_81:\n        /* \"#utility.yul\":2544:2639   */\n      swap4\n      pop\n        /* \"#utility.yul\":2648:2713   */\n      tag_82\n        /* \"#utility.yul\":2706:2712   */\n      dup2\n        /* \"#utility.yul\":2701:2704   */\n      dup6\n        /* \"#utility.yul\":2694:2698   */\n      0x20\n        /* \"#utility.yul\":2687:2692   */\n      dup7\n        /* \"#utility.yul\":2683:2699   */\n      add\n        /* \"#utility.yul\":2648:2713   */\n      tag_46\n      jump\t// in\n    tag_82:\n        /* \"#utility.yul\":2738:2744   */\n      dup1\n        /* \"#utility.yul\":2733:2736   */\n      dup5\n        /* \"#utility.yul\":2729:2745   */\n      add\n        /* \"#utility.yul\":2722:2745   */\n      swap2\n      pop\n        /* \"#utility.yul\":2473:2751   */\n      pop\n        /* \"#utility.yul\":2365:2751   */\n      swap3\n      swap2\n      pop\n      pop\n      jump\t// out\n        /* \"#utility.yul\":2757:3028   */\n    tag_27:\n        /* \"#utility.yul\":2887:2890   */\n      0x00\n        /* \"#utility.yul\":2909:3002   */\n      tag_84\n        /* \"#utility.yul\":2998:3001   */\n      dup3\n        /* \"#utility.yul\":2989:2995   */\n      dup5\n        /* \"#utility.yul\":2909:3002   */\n      tag_47\n      jump\t// in\n    tag_84:\n        /* \"#utility.yul\":2902:3002   */\n      swap2\n      pop\n        /* \"#utility.yul\":3019:3022   */\n      dup2\n        /* \"#utility.yul\":3012:3022   */\n      swap1\n      pop\n        /* \"#utility.yul\":2757:3028   */\n      swap3\n      swap2\n      pop\n      pop\n      jump\t// out\n        /* \"#utility.yul\":3034:3203   */\n    tag_48:\n        /* \"#utility.yul\":3118:3129   */\n      0x00\n        /* \"#utility.yul\":3152:3158   */\n      dup3\n        /* \"#utility.yul\":3147:3150   */\n      dup3\n        /* \"#utility.yul\":3140:3159   */\n      mstore\n        /* \"#utility.yul\":3192:3196   */\n      0x20\n        /* \"#utility.yul\":3187:3190   */\n      dup3\n        /* \"#utility.yul\":3183:3197   */\n      add\n        /* \"#utility.yul\":3168:3197   */\n      swap1\n      pop\n        /* \"#utility.yul\":3034:3203   */\n      swap3\n      swap2\n      pop\n      pop\n      jump\t// out\n        /* \"#utility.yul\":3209:3378   */\n    tag_49:\n        /* \"#utility.yul\":3349:3370   */\n      0x64656c656761746563616c6c206661696c656400000000000000000000000000\n        /* \"#utility.yul\":3345:3346   */\n      0x00\n        /* \"#utility.yul\":3337:3343   */\n      dup3\n        /* \"#utility.yul\":3333:3347   */\n      add\n        /* \"#utility.yul\":3326:3371   */\n      mstore\n        /* \"#utility.yul\":3209:3378   */\n      pop\n      jump\t// out\n        /* \"#utility.yul\":3384:3750   */\n    tag_50:\n        /* \"#utility.yul\":3526:3529   */\n      0x00\n        /* \"#utility.yul\":3547:3614   */\n      tag_88\n        /* \"#utility.yul\":3611:3613   */\n      0x13\n        /* \"#utility.yul\":3606:3609   */\n      dup4\n        /* \"#utility.yul\":3547:3614   */\n      tag_48\n      jump\t// in\n    tag_88:\n        /* \"#utility.yul\":3540:3614   */\n      swap2\n      pop\n        /* \"#utility.yul\":3623:3716   */\n      tag_89\n        /* \"#utility.yul\":3712:3715   */\n      dup3\n        /* \"#utility.yul\":3623:3716   */\n      tag_49\n      jump\t// in\n    tag_89:\n        /* \"#utility.yul\":3741:3743   */\n      0x20\n        /* \"#utility.yul\":3736:3739   */\n      dup3\n        /* \"#utility.yul\":3732:3744   */\n      add\n        /* \"#utility.yul\":3725:3744   */\n      swap1\n      pop\n        /* \"#utility.yul\":3384:3750   */\n      swap2\n      swap1\n      pop\n      jump\t// out\n        /* \"#utility.yul\":3756:4175   */\n    tag_33:\n        /* \"#utility.yul\":3922:3926   */\n      0x00\n        /* \"#utility.yul\":3960:3962   */\n      0x20\n        /* \"#utility.yul\":3949:3958   */\n      dup3\n        /* \"#utility.yul\":3945:3963   */\n      add\n        /* \"#utility.yul\":3937:3963   */\n      swap1\n      pop\n        /* \"#utility.yul\":4009:4018   */\n      dup2\n        /* \"#utility.yul\":4003:4007   */\n      dup2\n        /* \"#utility.yul\":3999:4019   */\n      sub\n        /* \"#utility.yul\":3995:3996   */\n      0x00\n        /* \"#utility.yul\":3984:3993   */\n      dup4\n        /* \"#utility.yul\":3980:3997   */\n      add\n        /* \"#utility.yul\":3973:4020   */\n      mstore\n        /* \"#utility.yul\":4037:4168   */\n      tag_91\n        /* \"#utility.yul\":4163:4167   */\n      dup2\n        /* \"#utility.yul\":4037:4168   */\n      tag_50\n      jump\t// in\n    tag_91:\n        /* \"#utility.yul\":4029:4168   */\n      swap1\n      pop\n        /* \"#utility.yul\":3756:4175   */\n      swap2\n      swap1\n      pop\n      jump\t// out\n\n    auxdata: 0xa26469706673582212209048c5c0ef6ea7821ee19a440caa60a04102cd9f6beecc89f6cad07e7108bbd464736f6c63430008220033\n}\n",
				"bytecode": {
					"linkReferences": {},
					"object": "608060405234801561000f575f5ffd5b50604051610589380380610589833981810160405281019061003191906100d5565b8060025f6101000a81548173ffffffffffffffffffffffffffffffffffffffff021916908373ffffffffffffffffffffffffffffffffffffffff16021790555050610100565b5f5ffd5b5f73ffffffffffffffffffffffffffffffffffffffff82169050919050565b5f6100a48261007b565b9050919050565b6100b48161009a565b81146100be575f5ffd5b50565b5f815190506100cf816100ab565b92915050565b5f602082840312156100ea576100e9610077565b5b5f6100f7848285016100c1565b91505092915050565b61047c8061010d5f395ff3fe60806040526004361061003e575f3560e01c80634e70b1dc1461004257806367e404ce1461006c578063d7dfa0dd14610096578063df939062146100c0575b5f5ffd5b34801561004d575f5ffd5b506100566100dc565b604051610063919061029c565b60405180910390f35b348015610077575f5ffd5b506100806100e1565b60405161008d91906102f4565b60405180910390f35b3480156100a1575f5ffd5b506100aa610106565b6040516100b791906102f4565b60405180910390f35b6100da60048036038101906100d5919061033b565b61012b565b005b5f5481565b60015f9054906101000a900473ffffffffffffffffffffffffffffffffffffffff1681565b60025f9054906101000a900473ffffffffffffffffffffffffffffffffffffffff1681565b5f60025f9054906101000a900473ffffffffffffffffffffffffffffffffffffffff1673ffffffffffffffffffffffffffffffffffffffff1682604051602401610175919061029c565b6040516020818303038152906040527f60fe47b1000000000000000000000000000000000000000000000000000000007bffffffffffffffffffffffffffffffffffffffffffffffffffffffff19166020820180517bffffffffffffffffffffffffffffffffffffffffffffffffffffffff83818316178352505050506040516101ff91906103b8565b5f60405180830381855af49150503d805f8114610237576040519150601f19603f3d011682016040523d82523d5f602084013e61023c565b606091505b5050905080610280576040517f08c379a000000000000000000000000000000000000000000000000000000000815260040161027790610428565b60405180910390fd5b5050565b5f819050919050565b61029681610284565b82525050565b5f6020820190506102af5f83018461028d565b92915050565b5f73ffffffffffffffffffffffffffffffffffffffff82169050919050565b5f6102de826102b5565b9050919050565b6102ee816102d4565b82525050565b5f6020820190506103075f8301846102e5565b92915050565b5f5ffd5b61031a81610284565b8114610324575f5ffd5b50565b5f8135905061033581610311565b92915050565b5f602082840312156103505761034f61030d565b5b5f61035d84828501610327565b91505092915050565b5f81519050919050565b5f81905092915050565b8281835e5f83830152505050565b5f61039282610366565b61039c8185610370565b93506103ac81856020860161037a565b80840191505092915050565b5f6103c38284610388565b915081905092915050565b5f82825260208201905092915050565b7f64656c656761746563616c6c206661696c6564000000000000000000000000005f82015250565b5f6104126013836103ce565b915061041d826103de565b602082019050919050565b5f6020820190508181035f83015261043f81610406565b905091905056fea26469706673582212209048c5c0ef6ea7821ee19a440caa60a04102cd9f6beecc89f6cad07e7108bbd464736f6c63430008220033",
					"opcodes": "PUSH1 0x80 PUSH1 0x40 MSTORE CALLVALUE DUP1 ISZERO PUSH2 0xF JUMPI PUSH0 PUSH0 REVERT JUMPDEST POP PUSH1 0x40 MLOAD PUSH2 0x589 CODESIZE SUB DUP1 PUSH2 0x589 DUP4 CODECOPY DUP2 DUP2 ADD PUSH1 0x40 MSTORE DUP2 ADD SWAP1 PUSH2 0x31 SWAP2 SWAP1 PUSH2 0xD5 JUMP JUMPDEST DUP1 PUSH1 0x2 PUSH0 PUSH2 0x100 EXP DUP2 SLOAD DUP2 PUSH20 0xFFFFFFFFFFFFFFFFFFFFFFFFFFFFFFFFFFFFFFFF MUL NOT AND SWAP1 DUP4 PUSH20 0xFFFFFFFFFFFFFFFFFFFFFFFFFFFFFFFFFFFFFFFF AND MUL OR SWAP1 SSTORE POP POP PUSH2 0x100 JUMP JUMPDEST PUSH0 PUSH0 REVERT JUMPDEST PUSH0 PUSH20 0xFFFFFFFFFFFFFFFFFFFFFFFFFFFFFFFFFFFFFFFF DUP3 AND SWAP1 POP SWAP2 SWAP1 POP JUMP JUMPDEST PUSH0 PUSH2 0xA4 DUP3 PUSH2 0x7B JUMP JUMPDEST SWAP1 POP SWAP2 SWAP1 POP JUMP JUMPDEST PUSH2 0xB4 DUP2 PUSH2 0x9A JUMP JUMPDEST DUP2 EQ PUSH2 0xBE JUMPI PUSH0 PUSH0 REVERT JUMPDEST POP JUMP JUMPDEST PUSH0 DUP2 MLOAD SWAP1 POP PUSH2 0xCF DUP2 PUSH2 0xAB JUMP JUMPDEST SWAP3 SWAP2 POP POP JUMP JUMPDEST PUSH0 PUSH1 0x20 DUP3 DUP5 SUB SLT ISZERO PUSH2 0xEA JUMPI PUSH2 0xE9 PUSH2 0x77 JUMP JUMPDEST JUMPDEST PUSH0 PUSH2 0xF7 DUP5 DUP3 DUP6 ADD PUSH2 0xC1 JUMP JUMPDEST SWAP2 POP POP SWAP3 SWAP2 POP POP JUMP JUMPDEST PUSH2 0x47C DUP1 PUSH2 0x10D PUSH0 CODECOPY PUSH0 RETURN INVALID PUSH1 0x80 PUSH1 0x40 MSTORE PUSH1 0x4 CALLDATASIZE LT PUSH2 0x3E JUMPI PUSH0 CALLDATALOAD PUSH1 0xE0 SHR DUP1 PUSH4 0x4E70B1DC EQ PUSH2 0x42 JUMPI DUP1 PUSH4 0x67E404CE EQ PUSH2 0x6C JUMPI DUP1 PUSH4 0xD7DFA0DD EQ PUSH2 0x96 JUMPI DUP1 PUSH4 0xDF939062 EQ PUSH2 0xC0 JUMPI JUMPDEST PUSH0 PUSH0 REVERT JUMPDEST CALLVALUE DUP1 ISZERO PUSH2 0x4D JUMPI PUSH0 PUSH0 REVERT JUMPDEST POP PUSH2 0x56 PUSH2 0xDC JUMP JUMPDEST PUSH1 0x40 MLOAD PUSH2 0x63 SWAP2 SWAP1 PUSH2 0x29C JUMP JUMPDEST PUSH1 0x40 MLOAD DUP1 SWAP2 SUB SWAP1 RETURN JUMPDEST CALLVALUE DUP1 ISZERO PUSH2 0x77 JUMPI PUSH0 PUSH0 REVERT JUMPDEST POP PUSH2 0x80 PUSH2 0xE1 JUMP JUMPDEST PUSH1 0x40 MLOAD PUSH2 0x8D SWAP2 SWAP1 PUSH2 0x2F4 JUMP JUMPDEST PUSH1 0x40 MLOAD DUP1 SWAP2 SUB SWAP1 RETURN JUMPDEST CALLVALUE DUP1 ISZERO PUSH2 0xA1 JUMPI PUSH0 PUSH0 REVERT JUMPDEST POP PUSH2 0xAA PUSH2 0x106 JUMP JUMPDEST PUSH1 0x40 MLOAD PUSH2 0xB7 SWAP2 SWAP1 PUSH2 0x2F4 JUMP JUMPDEST PUSH1 0x40 MLOAD DUP1 SWAP2 SUB SWAP1 RETURN JUMPDEST PUSH2 0xDA PUSH1 0x4 DUP1 CALLDATASIZE SUB DUP2 ADD SWAP1 PUSH2 0xD5 SWAP2 SWAP1 PUSH2 0x33B JUMP JUMPDEST PUSH2 0x12B JUMP JUMPDEST STOP JUMPDEST PUSH0 SLOAD DUP2 JUMP JUMPDEST PUSH1 0x1 PUSH0 SWAP1 SLOAD SWAP1 PUSH2 0x100 EXP SWAP1 DIV PUSH20 0xFFFFFFFFFFFFFFFFFFFFFFFFFFFFFFFFFFFFFFFF AND DUP2 JUMP JUMPDEST PUSH1 0x2 PUSH0 SWAP1 SLOAD SWAP1 PUSH2 0x100 EXP SWAP1 DIV PUSH20 0xFFFFFFFFFFFFFFFFFFFFFFFFFFFFFFFFFFFFFFFF AND DUP2 JUMP JUMPDEST PUSH0 PUSH1 0x2 PUSH0 SWAP1 SLOAD SWAP1 PUSH2 0x100 EXP SWAP1 DIV PUSH20 0xFFFFFFFFFFFFFFFFFFFFFFFFFFFFFFFFFFFFFFFF AND PUSH20 0xFFFFFFFFFFFFFFFFFFFFFFFFFFFFFFFFFFFFFFFF AND DUP3 PUSH1 0x40 MLOAD PUSH1 0x24 ADD PUSH2 0x175 SWAP2 SWAP1 PUSH2 0x29C JUMP JUMPDEST PUSH1 0x40 MLOAD PUSH1 0x20 DUP2 DUP4 SUB SUB DUP2 MSTORE SWAP1 PUSH1 0x40 MSTORE PUSH32 0x60FE47B100000000000000000000000000000000000000000000000000000000 PUSH28 0xFFFFFFFFFFFFFFFFFFFFFFFFFFFFFFFFFFFFFFFFFFFFFFFFFFFFFFFF NOT AND PUSH1 0x20 DUP3 ADD DUP1 MLOAD PUSH28 0xFFFFFFFFFFFFFFFFFFFFFFFFFFFFFFFFFFFFFFFFFFFFFFFFFFFFFFFF DUP4 DUP2 DUP4 AND OR DUP4 MSTORE POP POP POP POP PUSH1 0x40 MLOAD PUSH2 0x1FF SWAP2 SWAP1 PUSH2 0x3B8 JUMP JUMPDEST PUSH0 PUSH1 0x40 MLOAD DUP1 DUP4 SUB DUP2 DUP6 GAS DELEGATECALL SWAP2 POP POP RETURNDATASIZE DUP1 PUSH0 DUP2 EQ PUSH2 0x237 JUMPI PUSH1 0x40 MLOAD SWAP2 POP PUSH1 0x1F NOT PUSH1 0x3F RETURNDATASIZE ADD AND DUP3 ADD PUSH1 0x40 MSTORE RETURNDATASIZE DUP3 MSTORE RETURNDATASIZE PUSH0 PUSH1 0x20 DUP5 ADD RETURNDATACOPY PUSH2 0x23C JUMP JUMPDEST PUSH1 0x60 SWAP2 POP JUMPDEST POP POP SWAP1 POP DUP1 PUSH2 0x280 JUMPI PUSH1 0x40 MLOAD PUSH32 0x8C379A000000000000000000000000000000000000000000000000000000000 DUP2 MSTORE PUSH1 0x4 ADD PUSH2 0x277 SWAP1 PUSH2 0x428 JUMP JUMPDEST PUSH1 0x40 MLOAD DUP1 SWAP2 SUB SWAP1 REVERT JUMPDEST POP POP JUMP JUMPDEST PUSH0 DUP2 SWAP1 POP SWAP2 SWAP1 POP JUMP JUMPDEST PUSH2 0x296 DUP2 PUSH2 0x284 JUMP JUMPDEST DUP3 MSTORE POP POP JUMP JUMPDEST PUSH0 PUSH1 0x20 DUP3 ADD SWAP1 POP PUSH2 0x2AF PUSH0 DUP4 ADD DUP5 PUSH2 0x28D JUMP JUMPDEST SWAP3 SWAP2 POP POP JUMP JUMPDEST PUSH0 PUSH20 0xFFFFFFFFFFFFFFFFFFFFFFFFFFFFFFFFFFFFFFFF DUP3 AND SWAP1 POP SWAP2 SWAP1 POP JUMP JUMPDEST PUSH0 PUSH2 0x2DE DUP3 PUSH2 0x2B5 JUMP JUMPDEST SWAP1 POP SWAP2 SWAP1 POP JUMP JUMPDEST PUSH2 0x2EE DUP2 PUSH2 0x2D4 JUMP JUMPDEST DUP3 MSTORE POP POP JUMP JUMPDEST PUSH0 PUSH1 0x20 DUP3 ADD SWAP1 POP PUSH2 0x307 PUSH0 DUP4 ADD DUP5 PUSH2 0x2E5 JUMP JUMPDEST SWAP3 SWAP2 POP POP JUMP JUMPDEST PUSH0 PUSH0 REVERT JUMPDEST PUSH2 0x31A DUP2 PUSH2 0x284 JUMP JUMPDEST DUP2 EQ PUSH2 0x324 JUMPI PUSH0 PUSH0 REVERT JUMPDEST POP JUMP JUMPDEST PUSH0 DUP2 CALLDATALOAD SWAP1 POP PUSH2 0x335 DUP2 PUSH2 0x311 JUMP JUMPDEST SWAP3 SWAP2 POP POP JUMP JUMPDEST PUSH0 PUSH1 0x20 DUP3 DUP5 SUB SLT ISZERO PUSH2 0x350 JUMPI PUSH2 0x34F PUSH2 0x30D JUMP JUMPDEST JUMPDEST PUSH0 PUSH2 0x35D DUP5 DUP3 DUP6 ADD PUSH2 0x327 JUMP JUMPDEST SWAP2 POP POP SWAP3 SWAP2 POP POP JUMP JUMPDEST PUSH0 DUP2 MLOAD SWAP1 POP SWAP2 SWAP1 POP JUMP JUMPDEST PUSH0 DUP2 SWAP1 POP SWAP3 SWAP2 POP POP JUMP JUMPDEST DUP3 DUP2 DUP4 MCOPY PUSH0 DUP4 DUP4 ADD MSTORE POP POP POP JUMP JUMPDEST PUSH0 PUSH2 0x392 DUP3 PUSH2 0x366 JUMP JUMPDEST PUSH2 0x39C DUP2 DUP6 PUSH2 0x370 JUMP JUMPDEST SWAP4 POP PUSH2 0x3AC DUP2 DUP6 PUSH1 0x20 DUP7 ADD PUSH2 0x37A JUMP JUMPDEST DUP1 DUP5 ADD SWAP2 POP POP SWAP3 SWAP2 POP POP JUMP JUMPDEST PUSH0 PUSH2 0x3C3 DUP3 DUP5 PUSH2 0x388 JUMP JUMPDEST SWAP2 POP DUP2 SWAP1 POP SWAP3 SWAP2 POP POP JUMP JUMPDEST PUSH0 DUP3 DUP3 MSTORE PUSH1 0x20 DUP3 ADD SWAP1 POP SWAP3 SWAP2 POP POP JUMP JUMPDEST PUSH32 0x64656C656761746563616C6C206661696C656400000000000000000000000000 PUSH0 DUP3 ADD MSTORE POP JUMP JUMPDEST PUSH0 PUSH2 0x412 PUSH1 0x13 DUP4 PUSH2 0x3CE JUMP JUMPDEST SWAP2 POP PUSH2 0x41D DUP3 PUSH2 0x3DE JUMP JUMPDEST PUSH1 0x20 DUP3 ADD SWAP1 POP SWAP2 SWAP1 POP JUMP JUMPDEST PUSH0 PUSH1 0x20 DUP3 ADD SWAP1 POP DUP2 DUP2 SUB PUSH0 DUP4 ADD MSTORE PUSH2 0x43F DUP2 PUSH2 0x406 JUMP JUMPDEST SWAP1 POP SWAP2 SWAP1 POP JUMP INVALID LOG2 PUSH5 0x6970667358 0x22 SLT KECCAK256 SWAP1 BASEFEE 0xC5 0xC0 0xEF PUSH15 0xA7821EE19A440CAA60A04102CD9F6B RETURNCONTRACT 0xCC DUP10 0xF6 0xCA 0xD0 PUSH31 0x7108BBD464736F6C6343000822003300000000000000000000000000000000 "
				},
				"gasEstimates": {
					"creation": {
						"codeDepositCost": "229600",
						"executionCost": "infinite",
						"totalCost": "infinite"
					},
					"external": {
						"logic()": "2530",
						"num()": "2402",
						"sender()": "2508",
						"setViaDelegate(uint256)": "infinite"
					}
				},
				"methodIdentifiers": {
					"logic()": "d7dfa0dd",
					"num()": "4e70b1dc",
					"sender()": "67e404ce",
					"setViaDelegate(uint256)": "df939062"
				}
			},
			"storageLayout": {
				"storage": [
					{
						"astId": 23,
						"contract": "val80.sol:ProxyContract",
						"label": "num",
						"offset": 0,
						"slot": "0",
						"type": "t_uint256"
					},
					{
						"astId": 25,
						"contract": "val80.sol:ProxyContract",
						"label": "sender",
						"offset": 0,
						"slot": "1",
						"type": "t_address"
					},
					{
						"astId": 27,
						"contract": "val80.sol:ProxyContract",
						"label": "logic",
						"offset": 0,
						"slot": "2",
						"type": "t_address"
					}
				],
				"types": {
					"t_address": {
						"encoding": "inplace",
						"label": "address",
						"numberOfBytes": "20"
					},
					"t_uint256": {
						"encoding": "inplace",
						"label": "uint256",
						"numberOfBytes": "32"
					}
				}
			},
			"userdoc": {
				"kind": "user",
				"methods": {},
				"version": 1
			}
		}
	}
}