{
	"val7.sol": {
		"ArrayStorage": {
			"abi": [
				{
					"inputs": [
						{
							"internalType": "uint256",
							"name": "_number",
							"type": "uint256"
						}
					],
					"name": "addNumber",
					"outputs": [],
					"stateMutability": "nonpayable",
					"type": "function"
				},
				{
					"inputs": [],
					"name": "getLength",
					"outputs": [
						{
							"internalType": "uint256",
							"name": "",
							"type": "uint256"
						}
					],
					"stateMutability": "view",
					"type": "function"
				},
				{
					"inputs": [
						{
							"internalType": "uint256",
							"name": "_index",
							"type": "uint256"
						}
					],
					"name": "getNumber",
					"outputs": [
						{
							"internalType": "uint256",
							"name": "",
							"type": "uint256"
						}
					],
					"stateMutability": "view",
					"type": "function"
				},
				{
					"inputs": [
						{
							"internalType": "uint256",
							"name": "",
							"type": "uint256"
						}
					],
					"name": "numbers",
					"outputs": [
						{
							"internalType": "uint256",
							"name": "",
							"type": "uint256"
						}
					],
					"stateMutability": "view",
					"type": "function"
				},
				{
					"inputs": [],
					"name": "removelastNumber",
					"outputs": [],
					"stateMutability": "nonpayable",
					"type": "function"
				}
			],
			"devdoc": {
				"kind": "dev",
				"methods": {},
				"version": 1
			},
			"evm": {
				"assembly": "    /* \"val7.sol\":8910:9440  contract ArrayStorage ... */\n  mstore(0x40, 0x80)\n  callvalue\n  dup1\n  iszero\n  tag_1\n  jumpi\n  revert(0x00, 0x00)\ntag_1:\n  pop\n  dataSize(sub_0)\n  dup1\n  dataOffset(sub_0)\n  0x00\n  codecopy\n  0x00\n  return\nstop\n\nsub_0: assembly {\n        /* \"val7.sol\":8910:9440  contract ArrayStorage ... */\n      mstore(0x40, 0x80)\n      callvalue\n      dup1\n      iszero\n      tag_1\n      jumpi\n      revert(0x00, 0x00)\n    tag_1:\n      pop\n      jumpi(tag_2, lt(calldatasize, 0x04))\n      shr(0xe0, calldataload(0x00))\n      dup1\n      0x68df1203\n      eq\n      tag_3\n      jumpi\n      dup1\n      0xbe1c766b\n      eq\n      tag_4\n      jumpi\n      dup1\n      0xd39fa233\n      eq\n      tag_5\n      jumpi\n      dup1\n      0xfc563658\n      eq\n      tag_6\n      jumpi\n      dup1\n      0xfce68023\n      eq\n      tag_7\n      jumpi\n    tag_2:\n      revert(0x00, 0x00)\n        /* \"val7.sol\":9073:9186  function removelastNumber() public ... */\n    tag_3:\n      tag_8\n      tag_9\n      jump\t// in\n    tag_8:\n      stop\n        /* \"val7.sol\":9340:9437  function getLength() public view returns (uint256) ... */\n    tag_4:\n      tag_10\n      tag_11\n      jump\t// in\n    tag_10:\n      mload(0x40)\n      tag_12\n      swap2\n      swap1\n      tag_13\n      jump\t// in\n    tag_12:\n      mload(0x40)\n      dup1\n      swap2\n      sub\n      swap1\n      return\n        /* \"val7.sol\":8943:8967  uint256[] public numbers */\n    tag_5:\n      tag_14\n      0x04\n      dup1\n      calldatasize\n      sub\n      dup2\n      add\n      swap1\n      tag_15\n      swap2\n      swap1\n      tag_16\n      jump\t// in\n    tag_15:\n      tag_17\n      jump\t// in\n    tag_14:\n      mload(0x40)\n      tag_18\n      swap2\n      swap1\n      tag_13\n      jump\t// in\n    tag_18:\n      mload(0x40)\n      dup1\n      swap2\n      sub\n      swap1\n      return\n        /* \"val7.sol\":9194:9332  function getNumber(uint256 _index)... */\n    tag_6:\n      tag_19\n      0x04\n      dup1\n      calldatasize\n      sub\n      dup2\n      add\n      swap1\n      tag_20\n      swap2\n      swap1\n      tag_16\n      jump\t// in\n    tag_20:\n      tag_21\n      jump\t// in\n    tag_19:\n      mload(0x40)\n      tag_22\n      swap2\n      swap1\n      tag_13\n      jump\t// in\n    tag_22:\n      mload(0x40)\n      dup1\n      swap2\n      sub\n      swap1\n      return\n        /* \"val7.sol\":8976:9065  function addNumber(uint256 _number) public ... */\n    tag_7:\n      tag_23\n      0x04\n      dup1\n      calldatasize\n      sub\n      dup2\n      add\n      swap1\n      tag_24\n      swap2\n      swap1\n      tag_16\n      jump\t// in\n    tag_24:\n      tag_25\n      jump\t// in\n    tag_23:\n      stop\n        /* \"val7.sol\":9073:9186  function removelastNumber() public ... */\n    tag_9:\n        /* \"val7.sol\":9150:9151  0 */\n      0x00\n        /* \"val7.sol\":9133:9140  numbers */\n      0x00\n        /* \"val7.sol\":9133:9147  numbers.length */\n      dup1\n      sload\n      swap1\n      pop\n        /* \"val7.sol\":9133:9151  numbers.length > 0 */\n      gt\n        /* \"val7.sol\":9125:9152  require(numbers.length > 0) */\n      tag_27\n      jumpi\n      revert(0x00, 0x00)\n    tag_27:\n        /* \"val7.sol\":9165:9172  numbers */\n      0x00\n        /* \"val7.sol\":9165:9178  numbers.pop() */\n      dup1\n      sload\n      dup1\n      tag_28\n      jumpi\n      tag_29\n      tag_30\n      jump\t// in\n    tag_29:\n    tag_28:\n      0x01\n      swap1\n      sub\n      dup2\n      dup2\n      swap1\n      0x00\n      mstore\n      keccak256(0x00, 0x20)\n      add\n      0x00\n      swap1\n      sstore\n      swap1\n      sstore\n        /* \"val7.sol\":9073:9186  function removelastNumber() public ... */\n      jump\t// out\n        /* \"val7.sol\":9340:9437  function getLength() public view returns (uint256) ... */\n    tag_11:\n        /* \"val7.sol\":9382:9389  uint256 */\n      0x00\n        /* \"val7.sol\":9415:9422  numbers */\n      0x00\n        /* \"val7.sol\":9415:9429  numbers.length */\n      dup1\n      sload\n      swap1\n      pop\n        /* \"val7.sol\":9408:9429  return numbers.length */\n      swap1\n      pop\n        /* \"val7.sol\":9340:9437  function getLength() public view returns (uint256) ... */\n      swap1\n      jump\t// out\n        /* \"val7.sol\":8943:8967  uint256[] public numbers */\n    tag_17:\n      0x00\n      dup2\n      dup2\n      sload\n      dup2\n      lt\n      tag_33\n      jumpi\n      0x00\n      dup1\n      revert\n    tag_33:\n      swap1\n      0x00\n      mstore\n      keccak256(0x00, 0x20)\n      add\n      0x00\n      swap2\n      pop\n      swap1\n      pop\n      sload\n      dup2\n      jump\t// out\n        /* \"val7.sol\":9194:9332  function getNumber(uint256 _index)... */\n    tag_21:\n        /* \"val7.sol\":9277:9284  uint256 */\n      0x00\n        /* \"val7.sol\":9309:9316  numbers */\n      0x00\n        /* \"val7.sol\":9317:9323  _index */\n      dup3\n        /* \"val7.sol\":9309:9324  numbers[_index] */\n      dup2\n      sload\n      dup2\n      lt\n      tag_36\n      jumpi\n      tag_37\n      tag_38\n      jump\t// in\n    tag_37:\n    tag_36:\n      swap1\n      0x00\n      mstore\n      keccak256(0x00, 0x20)\n      add\n      sload\n        /* \"val7.sol\":9302:9324  return numbers[_index] */\n      swap1\n      pop\n        /* \"val7.sol\":9194:9332  function getNumber(uint256 _index)... */\n      swap2\n      swap1\n      pop\n      jump\t// out\n        /* \"val7.sol\":8976:9065  function addNumber(uint256 _number) public ... */\n    tag_25:\n        /* \"val7.sol\":9036:9043  numbers */\n      0x00\n        /* \"val7.sol\":9049:9056  _number */\n      dup2\n        /* \"val7.sol\":9036:9057  numbers.push(_number) */\n      swap1\n      dup1\n      0x01\n      dup2\n      sload\n      add\n      dup1\n      dup3\n      sstore\n      dup1\n      swap2\n      pop\n      pop\n      0x01\n      swap1\n      sub\n      swap1\n      0x00\n      mstore\n      keccak256(0x00, 0x20)\n      add\n      0x00\n      swap1\n      swap2\n      swap1\n      swap2\n      swap1\n      swap2\n      pop\n      sstore\n        /* \"val7.sol\":8976:9065  function addNumber(uint256 _number) public ... */\n      pop\n      jump\t// out\n        /* \"#utility.yul\":7:84   */\n    tag_42:\n        /* \"#utility.yul\":44:51   */\n      0x00\n        /* \"#utility.yul\":73:78   */\n      dup2\n        /* \"#utility.yul\":62:78   */\n      swap1\n      pop\n        /* \"#utility.yul\":7:84   */\n      swap2\n      swap1\n      pop\n      jump\t// out\n        /* \"#utility.yul\":90:208   */\n    tag_43:\n        /* \"#utility.yul\":177:201   */\n      tag_52\n        /* \"#utility.yul\":195:200   */\n      dup2\n        /* \"#utility.yul\":177:201   */\n      tag_42\n      jump\t// in\n    tag_52:\n        /* \"#utility.yul\":172:175   */\n      dup3\n        /* \"#utility.yul\":165:202   */\n      mstore\n        /* \"#utility.yul\":90:208   */\n      pop\n      pop\n      jump\t// out\n        /* \"#utility.yul\":214:436   */\n    tag_13:\n        /* \"#utility.yul\":307:311   */\n      0x00\n        /* \"#utility.yul\":345:347   */\n      0x20\n        /* \"#utility.yul\":334:343   */\n      dup3\n        /* \"#utility.yul\":330:348   */\n      add\n        /* \"#utility.yul\":322:348   */\n      swap1\n      pop\n        /* \"#utility.yul\":358:429   */\n      tag_54\n        /* \"#utility.yul\":426:427   */\n      0x00\n        /* \"#utility.yul\":415:424   */\n      dup4\n        /* \"#utility.yul\":411:428   */\n      add\n        /* \"#utility.yul\":402:408   */\n      dup5\n        /* \"#utility.yul\":358:429   */\n      tag_43\n      jump\t// in\n    tag_54:\n        /* \"#utility.yul\":214:436   */\n      swap3\n      swap2\n      pop\n      pop\n      jump\t// out\n        /* \"#utility.yul\":523:640   */\n    tag_45:\n        /* \"#utility.yul\":632:633   */\n      0x00\n        /* \"#utility.yul\":629:630   */\n      0x00\n        /* \"#utility.yul\":622:634   */\n      revert\n        /* \"#utility.yul\":769:891   */\n    tag_47:\n        /* \"#utility.yul\":842:866   */\n      tag_59\n        /* \"#utility.yul\":860:865   */\n      dup2\n        /* \"#utility.yul\":842:866   */\n      tag_42\n      jump\t// in\n    tag_59:\n        /* \"#utility.yul\":835:840   */\n      dup2\n        /* \"#utility.yul\":832:867   */\n      eq\n        /* \"#utility.yul\":822:885   */\n      tag_60\n      jumpi\n        /* \"#utility.yul\":881:882   */\n      0x00\n        /* \"#utility.yul\":878:879   */\n      0x00\n        /* \"#utility.yul\":871:883   */\n      revert\n        /* \"#utility.yul\":822:885   */\n    tag_60:\n        /* \"#utility.yul\":769:891   */\n      pop\n      jump\t// out\n        /* \"#utility.yul\":897:1036   */\n    tag_48:\n        /* \"#utility.yul\":943:948   */\n      0x00\n        /* \"#utility.yul\":981:987   */\n      dup2\n        /* \"#utility.yul\":968:988   */\n      calldataload\n        /* \"#utility.yul\":959:988   */\n      swap1\n      pop\n        /* \"#utility.yul\":997:1030   */\n      tag_62\n        /* \"#utility.yul\":1024:1029   */\n      dup2\n        /* \"#utility.yul\":997:1030   */\n      tag_47\n      jump\t// in\n    tag_62:\n        /* \"#utility.yul\":897:1036   */\n      swap3\n      swap2\n      pop\n      pop\n      jump\t// out\n        /* \"#utility.yul\":1042:1371   */\n    tag_16:\n        /* \"#utility.yul\":1101:1107   */\n      0x00\n        /* \"#utility.yul\":1150:1152   */\n      0x20\n        /* \"#utility.yul\":1138:1147   */\n      dup3\n        /* \"#utility.yul\":1129:1136   */\n      dup5\n        /* \"#utility.yul\":1125:1148   */\n      sub\n        /* \"#utility.yul\":1121:1153   */\n      slt\n        /* \"#utility.yul\":1118:1237   */\n      iszero\n      tag_64\n      jumpi\n        /* \"#utility.yul\":1156:1235   */\n      tag_65\n      tag_45\n      jump\t// in\n    tag_65:\n        /* \"#utility.yul\":1118:1237   */\n    tag_64:\n        /* \"#utility.yul\":1276:1277   */\n      0x00\n        /* \"#utility.yul\":1301:1354   */\n      tag_66\n        /* \"#utility.yul\":1346:1353   */\n      dup5\n        /* \"#utility.yul\":1337:1343   */\n      dup3\n        /* \"#utility.yul\":1326:1335   */\n      dup6\n        /* \"#utility.yul\":1322:1344   */\n      add\n        /* \"#utility.yul\":1301:1354   */\n      tag_48\n      jump\t// in\n    tag_66:\n        /* \"#utility.yul\":1291:1354   */\n      swap2\n      pop\n        /* \"#utility.yul\":1247:1364   */\n      pop\n        /* \"#utility.yul\":1042:1371   */\n      swap3\n      swap2\n      pop\n      pop\n      jump\t// out\n        /* \"#utility.yul\":1377:1557   */\n    tag_30:\n        /* \"#utility.yul\":1425:1502   */\n      0x4e487b7100000000000000000000000000000000000000000000000000000000\n        /* \"#utility.yul\":1422:1423   */\n      0x00\n        /* \"#utility.yul\":1415:1503   */\n      mstore\n        /* \"#utility.yul\":1522:1526   */\n      0x31\n        /* \"#utility.yul\":1519:1520   */\n      0x04\n        /* \"#utility.yul\":1512:1527   */\n      mstore\n        /* \"#utility.yul\":1546:1550   */\n      0x24\n        /* \"#utility.yul\":1543:1544   */\n      0x00\n        /* \"#utility.yul\":1536:1551   */\n      revert\n        /* \"#utility.yul\":1563:1743   */\n    tag_38:\n        /* \"#utility.yul\":1611:1688   */\n      0x4e487b7100000000000000000000000000000000000000000000000000000000\n        /* \"#utility.yul\":1608:1609   */\n      0x00\n        /* \"#utility.yul\":1601:1689   */\n      mstore\n        /* \"#utility.yul\":1708:1712   */\n      0x32\n        /* \"#utility.yul\":1705:1706   */\n      0x04\n        /* \"#utility.yul\":1698:1713   */\n      mstore\n        /* \"#utility.yul\":1732:1736   */\n      0x24\n        /* \"#utility.yul\":1729:1730   */\n      0x00\n        /* \"#utility.yul\":1722:1737   */\n      revert\n\n    auxdata: 0xa26469706673582212205451d5f503316871e92e484d7dc95bd41330f57817ca04e4eadcc2e898bcfa9664736f6c63430008220033\n}\n",
				"bytecode": {
					"linkReferences": {},
					"object": "6080604052348015600e575f5ffd5b506102c28061001c5f395ff3fe608060405234801561000f575f5ffd5b5060043610610055575f3560e01c806368df120314610059578063be1c766b14610063578063d39fa23314610081578063fc563658146100b1578063fce68023146100e1575b5f5ffd5b6100616100fd565b005b61006b610132565b60405161007891906101c0565b60405180910390f35b61009b60048036038101906100969190610207565b61013d565b6040516100a891906101c0565b60405180910390f35b6100cb60048036038101906100c69190610207565b61015c565b6040516100d891906101c0565b60405180910390f35b6100fb60048036038101906100f69190610207565b610180565b005b5f5f805490501161010c575f5ffd5b5f80548061011d5761011c610232565b5b600190038181905f5260205f20015f90559055565b5f5f80549050905090565b5f818154811061014b575f80fd5b905f5260205f20015f915090505481565b5f5f82815481106101705761016f61025f565b5b905f5260205f2001549050919050565b5f81908060018154018082558091505060019003905f5260205f20015f909190919091505550565b5f819050919050565b6101ba816101a8565b82525050565b5f6020820190506101d35f8301846101b1565b92915050565b5f5ffd5b6101e6816101a8565b81146101f0575f5ffd5b50565b5f81359050610201816101dd565b92915050565b5f6020828403121561021c5761021b6101d9565b5b5f610229848285016101f3565b91505092915050565b7f4e487b71000000000000000000000000000000000000000000000000000000005f52603160045260245ffd5b7f4e487b71000000000000000000000000000000000000000000000000000000005f52603260045260245ffdfea26469706673582212205451d5f503316871e92e484d7dc95bd41330f57817ca04e4eadcc2e898bcfa9664736f6c63430008220033",
					"opcodes": "PUSH1 0x80 PUSH1 0x40 MSTORE CALLVALUE DUP1 ISZERO PUSH1 0xE JUMPI PUSH0 PUSH0 REVERT JUMPDEST POP PUSH2 0x2C2 DUP1 PUSH2 0x1C PUSH0 CODECOPY PUSH0 RETURN INVALID PUSH1 0x80 PUSH1 0x40 MSTORE CALLVALUE DUP1 ISZERO PUSH2 0xF JUMPI PUSH0 PUSH0 REVERT JUMPDEST POP PUSH1 0x4 CALLDATASIZE LT PUSH2 0x55 JUMPI PUSH0 CALLDATALOAD PUSH1 0xE0 SHR DUP1 PUSH4 0x68DF1203 EQ PUSH2 0x59 JUMPI DUP1 PUSH4 0xBE1C766B EQ PUSH2 0x63 JUMPI DUP1 PUSH4 0xD39FA233 EQ PUSH2 0x81 JUMPI DUP1 PUSH4 0xFC563658 EQ PUSH2 0xB1 JUMPI DUP1 PUSH4 0xFCE68023 EQ PUSH2 0xE1 JUMPI JUMPDEST PUSH0 PUSH0 REVERT JUMPDEST PUSH2 0x61 PUSH2 0xFD JUMP JUMPDEST STOP JUMPDEST PUSH2 0x6B PUSH2 0x132 JUMP JUMPDEST PUSH1 0x40 MLOAD PUSH2 0x78 SWAP2 SWAP1 PUSH2 0x1C0 JUMP JUMPDEST PUSH1 0x40 MLOAD DUP1 SWAP2 SUB SWAP1 RETURN JUMPDEST PUSH2 0x9B PUSH1 0x4 DUP1 CALLDATASIZE SUB DUP2 ADD SWAP1 PUSH2 0x96 SWAP2 SWAP1 PUSH2 0x207 JUMP JUMPDEST PUSH2 0x13D JUMP JUMPDEST PUSH1 0x40 MLOAD PUSH2 0xA8 SWAP2 SWAP1 PUSH2 0x1C0 JUMP JUMPDEST PUSH1 0x40 MLOAD DUP1 SWAP2 SUB SWAP1 RETURN JUMPDEST PUSH2 0xCB PUSH1 0x4 DUP1 CALLDATASIZE SUB DUP2 ADD SWAP1 PUSH2 0xC6 SWAP2 SWAP1 PUSH2 0x207 JUMP JUMPDEST PUSH2 0x15C JUMP JUMPDEST PUSH1 0x40 MLOAD PUSH2 0xD8 SWAP2 SWAP1 PUSH2 0x1C0 JUMP JUMPDEST PUSH1 0x40 MLOAD DUP1 SWAP2 SUB SWAP1 RETURN JUMPDEST PUSH2 0xFB PUSH1 0x4 DUP1 CALLDATASIZE SUB DUP2 ADD SWAP1 PUSH2 0xF6 SWAP2 SWAP1 PUSH2 0x207 JUMP JUMPDEST PUSH2 0x180 JUMP JUMPDEST STOP JUMPDEST PUSH0 PUSH0 DUP1 SLOAD SWAP1 POP GT PUSH2 0x10C JUMPI PUSH0 PUSH0 REVERT JUMPDEST PUSH0 DUP1 SLOAD DUP1 PUSH2 0x11D JUMPI PUSH2 0x11C PUSH2 0x232 JUMP JUMPDEST JUMPDEST PUSH1 0x1 SWAP1 SUB DUP2 DUP2 SWAP1 PUSH0 MSTORE PUSH1 0x20 PUSH0 KECCAK256 ADD PUSH0 SWAP1 SSTORE SWAP1 SSTORE JUMP JUMPDEST PUSH0 PUSH0 DUP1 SLOAD SWAP1 POP SWAP1 POP SWAP1 JUMP JUMPDEST PUSH0 DUP2 DUP2 SLOAD DUP2 LT PUSH2 0x14B JUMPI PUSH0 DUP1 REVERT JUMPDEST SWAP1 PUSH0 MSTORE PUSH1 0x20 PUSH0 KECCAK256 ADD PUSH0 SWAP2 POP SWAP1 POP SLOAD DUP2 JUMP JUMPDEST PUSH0 PUSH0 DUP3 DUP2 SLOAD DUP2 LT PUSH2 0x170 JUMPI PUSH2 0x16F PUSH2 0x25F JUMP JUMPDEST JUMPDEST SWAP1 PUSH0 MSTORE PUSH1 0x20 PUSH0 KECCAK256 ADD SLOAD SWAP1 POP SWAP2 SWAP1 POP JUMP JUMPDEST PUSH0 DUP2 SWAP1 DUP1 PUSH1 0x1 DUP2 SLOAD ADD DUP1 DUP3 SSTORE DUP1 SWAP2 POP POP PUSH1 0x1 SWAP1 SUB SWAP1 PUSH0 MSTORE PUSH1 0x20 PUSH0 KECCAK256 ADD PUSH0 SWAP1 SWAP2 SWAP1 SWAP2 SWAP1 SWAP2 POP SSTORE POP JUMP JUMPDEST PUSH0 DUP2 SWAP1 POP SWAP2 SWAP1 POP JUMP JUMPDEST PUSH2 0x1BA DUP2 PUSH2 0x1A8 JUMP JUMPDEST DUP3 MSTORE POP POP JUMP JUMPDEST PUSH0 PUSH1 0x20 DUP3 ADD SWAP1 POP PUSH2 0x1D3 PUSH0 DUP4 ADD DUP5 PUSH2 0x1B1 JUMP JUMPDEST SWAP3 SWAP2 POP POP JUMP JUMPDEST PUSH0 PUSH0 REVERT JUMPDEST PUSH2 0x1E6 DUP2 PUSH2 0x1A8 JUMP JUMPDEST DUP2 EQ PUSH2 0x1F0 JUMPI PUSH0 PUSH0 REVERT JUMPDEST POP JUMP JUMPDEST PUSH0 DUP2 CALLDATALOAD SWAP1 POP PUSH2 0x201 DUP2 PUSH2 0x1DD JUMP JUMPDEST SWAP3 SWAP2 POP POP JUMP JUMPDEST PUSH0 PUSH1 0x20 DUP3 DUP5 SUB SLT ISZERO PUSH2 0x21C JUMPI PUSH2 0x21B PUSH2 0x1D9 JUMP JUMPDEST JUMPDEST PUSH0 PUSH2 0x229 DUP5 DUP3 DUP6 ADD PUSH2 0x1F3 JUMP JUMPDEST SWAP2 POP POP SWAP3 SWAP2 POP POP JUMP JUMPDEST PUSH32 0x4E487B7100000000000000000000000000000000000000000000000000000000 PUSH0 MSTORE PUSH1 0x31 PUSH1 0x4 MSTORE PUSH1 0x24 PUSH0 REVERT JUMPDEST PUSH32 0x4E487B7100000000000000000000000000000000000000000000000000000000 PUSH0 MSTORE PUSH1 0x32 PUSH1 0x4 MSTORE PUSH1 0x24 PUSH0 REVERT INVALID LOG2 PUSH5 0x6970667358 0x22 SLT KECCAK256 SLOAD MLOAD 0xD5 CREATE2 SUB BALANCE PUSH9 0x71E92E484D7DC95BD4 SGT ADDRESS CREATE2 PUSH25 0x17CA04E4EADCC2E898BCFA9664736F6C634300082200330000 "
				},
				"gasEstimates": {
					"creation": {
						"codeDepositCost": "141200",
						"executionCost": "188",
						"totalCost": "141388"
					},
					"external": {
						"addNumber(uint256)": "46886",
						"getLength()": "2439",
						"getNumber(uint256)": "infinite",
						"numbers(uint256)": "infinite",
						"removelastNumber()": "31547"
					}
				},
				"methodIdentifiers": {
					"addNumber(uint256)": "fce68023",
					"getLength()": "be1c766b",
					"getNumber(uint256)": "fc563658",
					"numbers(uint256)": "d39fa233",
					"removelastNumber()": "68df1203"
				}
			},
			"storageLayout": {
				"storage": [
					{
						"astId": 41,
						"contract": "val7.sol:ArrayStorage",
						"label": "numbers",
						"offset": 0,
						"slot": "0",
						"type": "t_array(t_uint256)dyn_storage"
					}
				],
				"types": {
					"t_array(t_uint256)dyn_storage": {
						"base": "t_uint256",
						"encoding": "dynamic_array",
						"label": "uint256[]",
						"numberOfBytes": "32"
					},
					"t_uint256": {
						"encoding": "inplace",
						"label": "uint256",
						"numberOfBytes": "32"
					}
				}
			},
			"userdoc": {
				"kind": "user",
				"methods": {},
				"version": 1
			}
		}
	}
}