{
	"val21.sol": {
		"ModifyCopiedMemoryArrayval": {
			"abi": [
				{
					"inputs": [],
					"name": "addValues",
					"outputs": [],
					"stateMutability": "nonpayable",
					"type": "function"
				},
				{
					"inputs": [],
					"name": "getStorageArray",
					"outputs": [
						{
							"internalType": "uint256[]",
							"name": "",
							"type": "uint256[]"
						}
					],
					"stateMutability": "view",
					"type": "function"
				},
				{
					"inputs": [],
					"name": "modifyMemoryCopy",
					"outputs": [
						{
							"internalType": "uint256[]",
							"name": "",
							"type": "uint256[]"
						},
						{
							"internalType": "uint256[]",
							"name": "",
							"type": "uint256[]"
						}
					],
					"stateMutability": "view",
					"type": "function"
				},
				{
					"inputs": [
						{
							"internalType": "uint256",
							"name": "",
							"type": "uint256"
						}
					],
					"name": "numbers",
					"outputs": [
						{
							"internalType": "uint256",
							"name": "",
							"type": "uint256"
						}
					],
					"stateMutability": "view",
					"type": "function"
				}
			],
			"devdoc": {
				"kind": "dev",
				"methods": {},
				"version": 1
			},
			"evm": {
				"assembly": "    /* \"val21.sol\":1885:2910  contract ModifyCopiedMemoryArrayval {... */\n  mstore(0x40, 0x80)\n  callvalue\n  dup1\n  iszero\n  tag_1\n  jumpi\n  revert(0x00, 0x00)\ntag_1:\n  pop\n  dataSize(sub_0)\n  dup1\n  dataOffset(sub_0)\n  0x00\n  codecopy\n  0x00\n  return\nstop\n\nsub_0: assembly {\n        /* \"val21.sol\":1885:2910  contract ModifyCopiedMemoryArrayval {... */\n      mstore(0x40, 0x80)\n      callvalue\n      dup1\n      iszero\n      tag_1\n      jumpi\n      revert(0x00, 0x00)\n    tag_1:\n      pop\n      jumpi(tag_2, lt(calldatasize, 0x04))\n      shr(0xe0, calldataload(0x00))\n      dup1\n      0x166e7bdd\n      eq\n      tag_3\n      jumpi\n      dup1\n      0x25cc66f5\n      eq\n      tag_4\n      jumpi\n      dup1\n      0x9ca0382f\n      eq\n      tag_5\n      jumpi\n      dup1\n      0xd39fa233\n      eq\n      tag_6\n      jumpi\n    tag_2:\n      revert(0x00, 0x00)\n        /* \"val21.sol\":1963:2185  function addValues() public {... */\n    tag_3:\n      tag_7\n      tag_8\n      jump\t// in\n    tag_7:\n      stop\n        /* \"val21.sol\":2776:2907  function getStorageArray()... */\n    tag_4:\n      tag_9\n      tag_10\n      jump\t// in\n    tag_9:\n      mload(0x40)\n      tag_11\n      swap2\n      swap1\n      tag_12\n      jump\t// in\n    tag_11:\n      mload(0x40)\n      dup1\n      swap2\n      sub\n      swap1\n      return\n        /* \"val21.sol\":2193:2768  function modifyMemoryCopy()... */\n    tag_5:\n      tag_13\n      tag_14\n      jump\t// in\n    tag_13:\n      mload(0x40)\n      tag_15\n      swap3\n      swap2\n      swap1\n      tag_16\n      jump\t// in\n    tag_15:\n      mload(0x40)\n      dup1\n      swap2\n      sub\n      swap1\n      return\n        /* \"val21.sol\":1930:1954  uint256[] public numbers */\n    tag_6:\n      tag_17\n      0x04\n      dup1\n      calldatasize\n      sub\n      dup2\n      add\n      swap1\n      tag_18\n      swap2\n      swap1\n      tag_19\n      jump\t// in\n    tag_18:\n      tag_20\n      jump\t// in\n    tag_17:\n      mload(0x40)\n      tag_21\n      swap2\n      swap1\n      tag_22\n      jump\t// in\n    tag_21:\n      mload(0x40)\n      dup1\n      swap2\n      sub\n      swap1\n      return\n        /* \"val21.sol\":1963:2185  function addValues() public {... */\n    tag_8:\n        /* \"val21.sol\":2100:2107  numbers */\n      0x00\n        /* \"val21.sol\":2113:2116  100 */\n      0x64\n        /* \"val21.sol\":2100:2117  numbers.push(100) */\n      swap1\n      dup1\n      0x01\n      dup2\n      sload\n      add\n      dup1\n      dup3\n      sstore\n      dup1\n      swap2\n      pop\n      pop\n      0x01\n      swap1\n      sub\n      swap1\n      0x00\n      mstore\n      keccak256(0x00, 0x20)\n      add\n      0x00\n      swap1\n      swap2\n      swap1\n      swap2\n      swap1\n      swap2\n      pop\n      sstore\n        /* \"val21.sol\":2130:2137  numbers */\n      0x00\n        /* \"val21.sol\":2143:2146  200 */\n      0xc8\n        /* \"val21.sol\":2130:2147  numbers.push(200) */\n      swap1\n      dup1\n      0x01\n      dup2\n      sload\n      add\n      dup1\n      dup3\n      sstore\n      dup1\n      swap2\n      pop\n      pop\n      0x01\n      swap1\n      sub\n      swap1\n      0x00\n      mstore\n      keccak256(0x00, 0x20)\n      add\n      0x00\n      swap1\n      swap2\n      swap1\n      swap2\n      swap1\n      swap2\n      pop\n      sstore\n        /* \"val21.sol\":2160:2167  numbers */\n      0x00\n        /* \"val21.sol\":2173:2176  300 */\n      0x012c\n        /* \"val21.sol\":2160:2177  numbers.push(300) */\n      swap1\n      dup1\n      0x01\n      dup2\n      sload\n      add\n      dup1\n      dup3\n      sstore\n      dup1\n      swap2\n      pop\n      pop\n      0x01\n      swap1\n      sub\n      swap1\n      0x00\n      mstore\n      keccak256(0x00, 0x20)\n      add\n      0x00\n      swap1\n      swap2\n      swap1\n      swap2\n      swap1\n      swap2\n      pop\n      sstore\n        /* \"val21.sol\":1963:2185  function addValues() public {... */\n      jump\t// out\n        /* \"val21.sol\":2776:2907  function getStorageArray()... */\n    tag_10:\n        /* \"val21.sol\":2851:2867  uint256[] memory */\n      0x60\n        /* \"val21.sol\":2892:2899  numbers */\n      0x00\n        /* \"val21.sol\":2885:2899  return numbers */\n      dup1\n      sload\n      dup1\n      0x20\n      mul\n      0x20\n      add\n      mload(0x40)\n      swap1\n      dup2\n      add\n      0x40\n      mstore\n      dup1\n      swap3\n      swap2\n      swap1\n      dup2\n      dup2\n      mstore\n      0x20\n      add\n      dup3\n      dup1\n      sload\n      dup1\n      iszero\n      tag_28\n      jumpi\n      0x20\n      mul\n      dup3\n      add\n      swap2\n      swap1\n      0x00\n      mstore\n      keccak256(0x00, 0x20)\n      swap1\n    tag_29:\n      dup2\n      sload\n      dup2\n      mstore\n      0x20\n      add\n      swap1\n      0x01\n      add\n      swap1\n      dup1\n      dup4\n      gt\n      tag_29\n      jumpi\n    tag_28:\n      pop\n      pop\n      pop\n      pop\n      pop\n      swap1\n      pop\n        /* \"val21.sol\":2776:2907  function getStorageArray()... */\n      swap1\n      jump\t// out\n        /* \"val21.sol\":2193:2768  function modifyMemoryCopy()... */\n    tag_14:\n        /* \"val21.sol\":2283:2299  uint256[] memory */\n      0x60\n        /* \"val21.sol\":2314:2330  uint256[] memory */\n      dup1\n        /* \"val21.sol\":2471:2497  uint256[] memory tempArray */\n      0x00\n        /* \"val21.sol\":2500:2507  numbers */\n      0x00\n        /* \"val21.sol\":2471:2507  uint256[] memory tempArray = numbers */\n      dup1\n      sload\n      dup1\n      0x20\n      mul\n      0x20\n      add\n      mload(0x40)\n      swap1\n      dup2\n      add\n      0x40\n      mstore\n      dup1\n      swap3\n      swap2\n      swap1\n      dup2\n      dup2\n      mstore\n      0x20\n      add\n      dup3\n      dup1\n      sload\n      dup1\n      iszero\n      tag_31\n      jumpi\n      0x20\n      mul\n      dup3\n      add\n      swap2\n      swap1\n      0x00\n      mstore\n      keccak256(0x00, 0x20)\n      swap1\n    tag_32:\n      dup2\n      sload\n      dup2\n      mstore\n      0x20\n      add\n      swap1\n      0x01\n      add\n      swap1\n      dup1\n      dup4\n      gt\n      tag_32\n      jumpi\n    tag_31:\n      pop\n      pop\n      pop\n      pop\n      pop\n      swap1\n      pop\n        /* \"val21.sol\":2596:2599  999 */\n      0x03e7\n        /* \"val21.sol\":2581:2590  tempArray */\n      dup2\n        /* \"val21.sol\":2591:2592  0 */\n      0x00\n        /* \"val21.sol\":2581:2593  tempArray[0] */\n      dup2\n      mload\n      dup2\n      lt\n      tag_33\n      jumpi\n      tag_34\n      tag_35\n      jump\t// in\n    tag_34:\n    tag_33:\n      0x20\n      mul\n      0x20\n      add\n      add\n        /* \"val21.sol\":2581:2599  tempArray[0] = 999 */\n      dup2\n      dup2\n      mstore\n      pop\n      pop\n        /* \"val21.sol\":2741:2750  tempArray */\n      dup1\n        /* \"val21.sol\":2752:2759  numbers */\n      0x00\n        /* \"val21.sol\":2733:2760  return (tempArray, numbers) */\n      dup1\n      dup1\n      sload\n      dup1\n      0x20\n      mul\n      0x20\n      add\n      mload(0x40)\n      swap1\n      dup2\n      add\n      0x40\n      mstore\n      dup1\n      swap3\n      swap2\n      swap1\n      dup2\n      dup2\n      mstore\n      0x20\n      add\n      dup3\n      dup1\n      sload\n      dup1\n      iszero\n      tag_36\n      jumpi\n      0x20\n      mul\n      dup3\n      add\n      swap2\n      swap1\n      0x00\n      mstore\n      keccak256(0x00, 0x20)\n      swap1\n    tag_37:\n      dup2\n      sload\n      dup2\n      mstore\n      0x20\n      add\n      swap1\n      0x01\n      add\n      swap1\n      dup1\n      dup4\n      gt\n      tag_37\n      jumpi\n    tag_36:\n      pop\n      pop\n      pop\n      pop\n      pop\n      swap1\n      pop\n      swap3\n      pop\n      swap3\n      pop\n      pop\n        /* \"val21.sol\":2193:2768  function modifyMemoryCopy()... */\n      swap1\n      swap2\n      jump\t// out\n        /* \"val21.sol\":1930:1954  uint256[] public numbers */\n    tag_20:\n      0x00\n      dup2\n      dup2\n      sload\n      dup2\n      lt\n      tag_38\n      jumpi\n      0x00\n      dup1\n      revert\n    tag_38:\n      swap1\n      0x00\n      mstore\n      keccak256(0x00, 0x20)\n      add\n      0x00\n      swap2\n      pop\n      swap1\n      pop\n      sload\n      dup2\n      jump\t// out\n        /* \"#utility.yul\":7:121   */\n    tag_40:\n        /* \"#utility.yul\":74:80   */\n      0x00\n        /* \"#utility.yul\":108:113   */\n      dup2\n        /* \"#utility.yul\":102:114   */\n      mload\n        /* \"#utility.yul\":92:114   */\n      swap1\n      pop\n        /* \"#utility.yul\":7:121   */\n      swap2\n      swap1\n      pop\n      jump\t// out\n        /* \"#utility.yul\":127:311   */\n    tag_41:\n        /* \"#utility.yul\":226:237   */\n      0x00\n        /* \"#utility.yul\":260:266   */\n      dup3\n        /* \"#utility.yul\":255:258   */\n      dup3\n        /* \"#utility.yul\":248:267   */\n      mstore\n        /* \"#utility.yul\":300:304   */\n      0x20\n        /* \"#utility.yul\":295:298   */\n      dup3\n        /* \"#utility.yul\":291:305   */\n      add\n        /* \"#utility.yul\":276:305   */\n      swap1\n      pop\n        /* \"#utility.yul\":127:311   */\n      swap3\n      swap2\n      pop\n      pop\n      jump\t// out\n        /* \"#utility.yul\":317:449   */\n    tag_42:\n        /* \"#utility.yul\":384:388   */\n      0x00\n        /* \"#utility.yul\":407:410   */\n      dup2\n        /* \"#utility.yul\":399:410   */\n      swap1\n      pop\n        /* \"#utility.yul\":437:441   */\n      0x20\n        /* \"#utility.yul\":432:435   */\n      dup3\n        /* \"#utility.yul\":428:442   */\n      add\n        /* \"#utility.yul\":420:442   */\n      swap1\n      pop\n        /* \"#utility.yul\":317:449   */\n      swap2\n      swap1\n      pop\n      jump\t// out\n        /* \"#utility.yul\":455:532   */\n    tag_43:\n        /* \"#utility.yul\":492:499   */\n      0x00\n        /* \"#utility.yul\":521:526   */\n      dup2\n        /* \"#utility.yul\":510:526   */\n      swap1\n      pop\n        /* \"#utility.yul\":455:532   */\n      swap2\n      swap1\n      pop\n      jump\t// out\n        /* \"#utility.yul\":538:646   */\n    tag_44:\n        /* \"#utility.yul\":615:639   */\n      tag_60\n        /* \"#utility.yul\":633:638   */\n      dup2\n        /* \"#utility.yul\":615:639   */\n      tag_43\n      jump\t// in\n    tag_60:\n        /* \"#utility.yul\":610:613   */\n      dup3\n        /* \"#utility.yul\":603:640   */\n      mstore\n        /* \"#utility.yul\":538:646   */\n      pop\n      pop\n      jump\t// out\n        /* \"#utility.yul\":652:831   */\n    tag_45:\n        /* \"#utility.yul\":721:731   */\n      0x00\n        /* \"#utility.yul\":742:788   */\n      tag_62\n        /* \"#utility.yul\":784:787   */\n      dup4\n        /* \"#utility.yul\":776:782   */\n      dup4\n        /* \"#utility.yul\":742:788   */\n      tag_44\n      jump\t// in\n    tag_62:\n        /* \"#utility.yul\":820:824   */\n      0x20\n        /* \"#utility.yul\":815:818   */\n      dup4\n        /* \"#utility.yul\":811:825   */\n      add\n        /* \"#utility.yul\":797:825   */\n      swap1\n      pop\n        /* \"#utility.yul\":652:831   */\n      swap3\n      swap2\n      pop\n      pop\n      jump\t// out\n        /* \"#utility.yul\":837:950   */\n    tag_46:\n        /* \"#utility.yul\":907:911   */\n      0x00\n        /* \"#utility.yul\":939:943   */\n      0x20\n        /* \"#utility.yul\":934:937   */\n      dup3\n        /* \"#utility.yul\":930:944   */\n      add\n        /* \"#utility.yul\":922:944   */\n      swap1\n      pop\n        /* \"#utility.yul\":837:950   */\n      swap2\n      swap1\n      pop\n      jump\t// out\n        /* \"#utility.yul\":986:1718   */\n    tag_47:\n        /* \"#utility.yul\":1105:1108   */\n      0x00\n        /* \"#utility.yul\":1134:1188   */\n      tag_65\n        /* \"#utility.yul\":1182:1187   */\n      dup3\n        /* \"#utility.yul\":1134:1188   */\n      tag_40\n      jump\t// in\n    tag_65:\n        /* \"#utility.yul\":1204:1290   */\n      tag_66\n        /* \"#utility.yul\":1283:1289   */\n      dup2\n        /* \"#utility.yul\":1278:1281   */\n      dup6\n        /* \"#utility.yul\":1204:1290   */\n      tag_41\n      jump\t// in\n    tag_66:\n        /* \"#utility.yul\":1197:1290   */\n      swap4\n      pop\n        /* \"#utility.yul\":1314:1370   */\n      tag_67\n        /* \"#utility.yul\":1364:1369   */\n      dup4\n        /* \"#utility.yul\":1314:1370   */\n      tag_42\n      jump\t// in\n    tag_67:\n        /* \"#utility.yul\":1393:1400   */\n      dup1\n        /* \"#utility.yul\":1424:1425   */\n      0x00\n        /* \"#utility.yul\":1409:1693   */\n    tag_68:\n        /* \"#utility.yul\":1434:1440   */\n      dup4\n        /* \"#utility.yul\":1431:1432   */\n      dup2\n        /* \"#utility.yul\":1428:1441   */\n      lt\n        /* \"#utility.yul\":1409:1693   */\n      iszero\n      tag_70\n      jumpi\n        /* \"#utility.yul\":1510:1516   */\n      dup2\n        /* \"#utility.yul\":1504:1517   */\n      mload\n        /* \"#utility.yul\":1537:1600   */\n      tag_71\n        /* \"#utility.yul\":1596:1599   */\n      dup9\n        /* \"#utility.yul\":1581:1594   */\n      dup3\n        /* \"#utility.yul\":1537:1600   */\n      tag_45\n      jump\t// in\n    tag_71:\n        /* \"#utility.yul\":1530:1600   */\n      swap8\n      pop\n        /* \"#utility.yul\":1623:1683   */\n      tag_72\n        /* \"#utility.yul\":1676:1682   */\n      dup4\n        /* \"#utility.yul\":1623:1683   */\n      tag_46\n      jump\t// in\n    tag_72:\n        /* \"#utility.yul\":1613:1683   */\n      swap3\n      pop\n        /* \"#utility.yul\":1469:1693   */\n      pop\n        /* \"#utility.yul\":1456:1457   */\n      0x01\n        /* \"#utility.yul\":1453:1454   */\n      dup2\n        /* \"#utility.yul\":1449:1458   */\n      add\n        /* \"#utility.yul\":1444:1458   */\n      swap1\n      pop\n        /* \"#utility.yul\":1409:1693   */\n      jump(tag_68)\n    tag_70:\n        /* \"#utility.yul\":1413:1427   */\n      pop\n        /* \"#utility.yul\":1709:1712   */\n      dup6\n        /* \"#utility.yul\":1702:1712   */\n      swap4\n      pop\n        /* \"#utility.yul\":1110:1718   */\n      pop\n      pop\n      pop\n        /* \"#utility.yul\":986:1718   */\n      swap3\n      swap2\n      pop\n      pop\n      jump\t// out\n        /* \"#utility.yul\":1724:2097   */\n    tag_12:\n        /* \"#utility.yul\":1867:1871   */\n      0x00\n        /* \"#utility.yul\":1905:1907   */\n      0x20\n        /* \"#utility.yul\":1894:1903   */\n      dup3\n        /* \"#utility.yul\":1890:1908   */\n      add\n        /* \"#utility.yul\":1882:1908   */\n      swap1\n      pop\n        /* \"#utility.yul\":1954:1963   */\n      dup2\n        /* \"#utility.yul\":1948:1952   */\n      dup2\n        /* \"#utility.yul\":1944:1964   */\n      sub\n        /* \"#utility.yul\":1940:1941   */\n      0x00\n        /* \"#utility.yul\":1929:1938   */\n      dup4\n        /* \"#utility.yul\":1925:1942   */\n      add\n        /* \"#utility.yul\":1918:1965   */\n      mstore\n        /* \"#utility.yul\":1982:2090   */\n      tag_74\n        /* \"#utility.yul\":2085:2089   */\n      dup2\n        /* \"#utility.yul\":2076:2082   */\n      dup5\n        /* \"#utility.yul\":1982:2090   */\n      tag_47\n      jump\t// in\n    tag_74:\n        /* \"#utility.yul\":1974:2090   */\n      swap1\n      pop\n        /* \"#utility.yul\":1724:2097   */\n      swap3\n      swap2\n      pop\n      pop\n      jump\t// out\n        /* \"#utility.yul\":2103:2737   */\n    tag_16:\n        /* \"#utility.yul\":2324:2328   */\n      0x00\n        /* \"#utility.yul\":2362:2364   */\n      0x40\n        /* \"#utility.yul\":2351:2360   */\n      dup3\n        /* \"#utility.yul\":2347:2365   */\n      add\n        /* \"#utility.yul\":2339:2365   */\n      swap1\n      pop\n        /* \"#utility.yul\":2411:2420   */\n      dup2\n        /* \"#utility.yul\":2405:2409   */\n      dup2\n        /* \"#utility.yul\":2401:2421   */\n      sub\n        /* \"#utility.yul\":2397:2398   */\n      0x00\n        /* \"#utility.yul\":2386:2395   */\n      dup4\n        /* \"#utility.yul\":2382:2399   */\n      add\n        /* \"#utility.yul\":2375:2422   */\n      mstore\n        /* \"#utility.yul\":2439:2547   */\n      tag_76\n        /* \"#utility.yul\":2542:2546   */\n      dup2\n        /* \"#utility.yul\":2533:2539   */\n      dup6\n        /* \"#utility.yul\":2439:2547   */\n      tag_47\n      jump\t// in\n    tag_76:\n        /* \"#utility.yul\":2431:2547   */\n      swap1\n      pop\n        /* \"#utility.yul\":2594:2603   */\n      dup2\n        /* \"#utility.yul\":2588:2592   */\n      dup2\n        /* \"#utility.yul\":2584:2604   */\n      sub\n        /* \"#utility.yul\":2579:2581   */\n      0x20\n        /* \"#utility.yul\":2568:2577   */\n      dup4\n        /* \"#utility.yul\":2564:2582   */\n      add\n        /* \"#utility.yul\":2557:2605   */\n      mstore\n        /* \"#utility.yul\":2622:2730   */\n      tag_77\n        /* \"#utility.yul\":2725:2729   */\n      dup2\n        /* \"#utility.yul\":2716:2722   */\n      dup5\n        /* \"#utility.yul\":2622:2730   */\n      tag_47\n      jump\t// in\n    tag_77:\n        /* \"#utility.yul\":2614:2730   */\n      swap1\n      pop\n        /* \"#utility.yul\":2103:2737   */\n      swap4\n      swap3\n      pop\n      pop\n      pop\n      jump\t// out\n        /* \"#utility.yul\":2824:2941   */\n    tag_49:\n        /* \"#utility.yul\":2933:2934   */\n      0x00\n        /* \"#utility.yul\":2930:2931   */\n      0x00\n        /* \"#utility.yul\":2923:2935   */\n      revert\n        /* \"#utility.yul\":3070:3192   */\n    tag_51:\n        /* \"#utility.yul\":3143:3167   */\n      tag_82\n        /* \"#utility.yul\":3161:3166   */\n      dup2\n        /* \"#utility.yul\":3143:3167   */\n      tag_43\n      jump\t// in\n    tag_82:\n        /* \"#utility.yul\":3136:3141   */\n      dup2\n        /* \"#utility.yul\":3133:3168   */\n      eq\n        /* \"#utility.yul\":3123:3186   */\n      tag_83\n      jumpi\n        /* \"#utility.yul\":3182:3183   */\n      0x00\n        /* \"#utility.yul\":3179:3180   */\n      0x00\n        /* \"#utility.yul\":3172:3184   */\n      revert\n        /* \"#utility.yul\":3123:3186   */\n    tag_83:\n        /* \"#utility.yul\":3070:3192   */\n      pop\n      jump\t// out\n        /* \"#utility.yul\":3198:3337   */\n    tag_52:\n        /* \"#utility.yul\":3244:3249   */\n      0x00\n        /* \"#utility.yul\":3282:3288   */\n      dup2\n        /* \"#utility.yul\":3269:3289   */\n      calldataload\n        /* \"#utility.yul\":3260:3289   */\n      swap1\n      pop\n        /* \"#utility.yul\":3298:3331   */\n      tag_85\n        /* \"#utility.yul\":3325:3330   */\n      dup2\n        /* \"#utility.yul\":3298:3331   */\n      tag_51\n      jump\t// in\n    tag_85:\n        /* \"#utility.yul\":3198:3337   */\n      swap3\n      swap2\n      pop\n      pop\n      jump\t// out\n        /* \"#utility.yul\":3343:3672   */\n    tag_19:\n        /* \"#utility.yul\":3402:3408   */\n      0x00\n        /* \"#utility.yul\":3451:3453   */\n      0x20\n        /* \"#utility.yul\":3439:3448   */\n      dup3\n        /* \"#utility.yul\":3430:3437   */\n      dup5\n        /* \"#utility.yul\":3426:3449   */\n      sub\n        /* \"#utility.yul\":3422:3454   */\n      slt\n        /* \"#utility.yul\":3419:3538   */\n      iszero\n      tag_87\n      jumpi\n        /* \"#utility.yul\":3457:3536   */\n      tag_88\n      tag_49\n      jump\t// in\n    tag_88:\n        /* \"#utility.yul\":3419:3538   */\n    tag_87:\n        /* \"#utility.yul\":3577:3578   */\n      0x00\n        /* \"#utility.yul\":3602:3655   */\n      tag_89\n        /* \"#utility.yul\":3647:3654   */\n      dup5\n        /* \"#utility.yul\":3638:3644   */\n      dup3\n        /* \"#utility.yul\":3627:3636   */\n      dup6\n        /* \"#utility.yul\":3623:3645   */\n      add\n        /* \"#utility.yul\":3602:3655   */\n      tag_52\n      jump\t// in\n    tag_89:\n        /* \"#utility.yul\":3592:3655   */\n      swap2\n      pop\n        /* \"#utility.yul\":3548:3665   */\n      pop\n        /* \"#utility.yul\":3343:3672   */\n      swap3\n      swap2\n      pop\n      pop\n      jump\t// out\n        /* \"#utility.yul\":3678:3796   */\n    tag_53:\n        /* \"#utility.yul\":3765:3789   */\n      tag_91\n        /* \"#utility.yul\":3783:3788   */\n      dup2\n        /* \"#utility.yul\":3765:3789   */\n      tag_43\n      jump\t// in\n    tag_91:\n        /* \"#utility.yul\":3760:3763   */\n      dup3\n        /* \"#utility.yul\":3753:3790   */\n      mstore\n        /* \"#utility.yul\":3678:3796   */\n      pop\n      pop\n      jump\t// out\n        /* \"#utility.yul\":3802:4024   */\n    tag_22:\n        /* \"#utility.yul\":3895:3899   */\n      0x00\n        /* \"#utility.yul\":3933:3935   */\n      0x20\n        /* \"#utility.yul\":3922:3931   */\n      dup3\n        /* \"#utility.yul\":3918:3936   */\n      add\n        /* \"#utility.yul\":3910:3936   */\n      swap1\n      pop\n        /* \"#utility.yul\":3946:4017   */\n      tag_93\n        /* \"#utility.yul\":4014:4015   */\n      0x00\n        /* \"#utility.yul\":4003:4012   */\n      dup4\n        /* \"#utility.yul\":3999:4016   */\n      add\n        /* \"#utility.yul\":3990:3996   */\n      dup5\n        /* \"#utility.yul\":3946:4017   */\n      tag_53\n      jump\t// in\n    tag_93:\n        /* \"#utility.yul\":3802:4024   */\n      swap3\n      swap2\n      pop\n      pop\n      jump\t// out\n        /* \"#utility.yul\":4030:4210   */\n    tag_35:\n        /* \"#utility.yul\":4078:4155   */\n      0x4e487b7100000000000000000000000000000000000000000000000000000000\n        /* \"#utility.yul\":4075:4076   */\n      0x00\n        /* \"#utility.yul\":4068:4156   */\n      mstore\n        /* \"#utility.yul\":4175:4179   */\n      0x32\n        /* \"#utility.yul\":4172:4173   */\n      0x04\n        /* \"#utility.yul\":4165:4180   */\n      mstore\n        /* \"#utility.yul\":4199:4203   */\n      0x24\n        /* \"#utility.yul\":4196:4197   */\n      0x00\n        /* \"#utility.yul\":4189:4204   */\n      revert\n\n    auxdata: 0xa2646970667358221220bb30313663488fdf51ec8da23d424392f155e248304cdcefaae3fbd7a2ddfe3464736f6c63430008220033\n}\n",
				"bytecode": {
					"linkReferences": {},
					"object": "6080604052348015600e575f5ffd5b506104788061001c5f395ff3fe608060405234801561000f575f5ffd5b506004361061004a575f3560e01c8063166e7bdd1461004e57806325cc66f5146100585780639ca0382f14610076578063d39fa23314610095575b5f5ffd5b6100566100c5565b005b61006061013a565b60405161006d919061033f565b60405180910390f35b61007e61018f565b60405161008c92919061035f565b60405180910390f35b6100af60048036038101906100aa91906103c2565b610260565b6040516100bc91906103fc565b60405180910390f35b5f6064908060018154018082558091505060019003905f5260205f20015f90919091909150555f60c8908060018154018082558091505060019003905f5260205f20015f90919091909150555f61012c908060018154018082558091505060019003905f5260205f20015f9091909190915055565b60605f80548060200260200160405190810160405280929190818152602001828054801561018557602002820191905f5260205f20905b815481526020019060010190808311610171575b5050505050905090565b6060805f5f8054806020026020016040519081016040528092919081815260200182805480156101dc57602002820191905f5260205f20905b8154815260200190600101908083116101c8575b505050505090506103e7815f815181106101f9576101f8610415565b5b602002602001018181525050805f8080548060200260200160405190810160405280929190818152602001828054801561025057602002820191905f5260205f20905b81548152602001906001019080831161023c575b5050505050905092509250509091565b5f818154811061026e575f80fd5b905f5260205f20015f915090505481565b5f81519050919050565b5f82825260208201905092915050565b5f819050602082019050919050565b5f819050919050565b6102ba816102a8565b82525050565b5f6102cb83836102b1565b60208301905092915050565b5f602082019050919050565b5f6102ed8261027f565b6102f78185610289565b935061030283610299565b805f5b8381101561033257815161031988826102c0565b9750610324836102d7565b925050600181019050610305565b5085935050505092915050565b5f6020820190508181035f83015261035781846102e3565b905092915050565b5f6040820190508181035f83015261037781856102e3565b9050818103602083015261038b81846102e3565b90509392505050565b5f5ffd5b6103a1816102a8565b81146103ab575f5ffd5b50565b5f813590506103bc81610398565b92915050565b5f602082840312156103d7576103d6610394565b5b5f6103e4848285016103ae565b91505092915050565b6103f6816102a8565b82525050565b5f60208201905061040f5f8301846103ed565b92915050565b7f4e487b71000000000000000000000000000000000000000000000000000000005f52603260045260245ffdfea2646970667358221220bb30313663488fdf51ec8da23d424392f155e248304cdcefaae3fbd7a2ddfe3464736f6c63430008220033",
					"opcodes": "PUSH1 0x80 PUSH1 0x40 MSTORE CALLVALUE DUP1 ISZERO PUSH1 0xE JUMPI PUSH0 PUSH0 REVERT JUMPDEST POP PUSH2 0x478 DUP1 PUSH2 0x1C PUSH0 CODECOPY PUSH0 RETURN INVALID PUSH1 0x80 PUSH1 0x40 MSTORE CALLVALUE DUP1 ISZERO PUSH2 0xF JUMPI PUSH0 PUSH0 REVERT JUMPDEST POP PUSH1 0x4 CALLDATASIZE LT PUSH2 0x4A JUMPI PUSH0 CALLDATALOAD PUSH1 0xE0 SHR DUP1 PUSH4 0x166E7BDD EQ PUSH2 0x4E JUMPI DUP1 PUSH4 0x25CC66F5 EQ PUSH2 0x58 JUMPI DUP1 PUSH4 0x9CA0382F EQ PUSH2 0x76 JUMPI DUP1 PUSH4 0xD39FA233 EQ PUSH2 0x95 JUMPI JUMPDEST PUSH0 PUSH0 REVERT JUMPDEST PUSH2 0x56 PUSH2 0xC5 JUMP JUMPDEST STOP JUMPDEST PUSH2 0x60 PUSH2 0x13A JUMP JUMPDEST PUSH1 0x40 MLOAD PUSH2 0x6D SWAP2 SWAP1 PUSH2 0x33F JUMP JUMPDEST PUSH1 0x40 MLOAD DUP1 SWAP2 SUB SWAP1 RETURN JUMPDEST PUSH2 0x7E PUSH2 0x18F JUMP JUMPDEST PUSH1 0x40 MLOAD PUSH2 0x8C SWAP3 SWAP2 SWAP1 PUSH2 0x35F JUMP JUMPDEST PUSH1 0x40 MLOAD DUP1 SWAP2 SUB SWAP1 RETURN JUMPDEST PUSH2 0xAF PUSH1 0x4 DUP1 CALLDATASIZE SUB DUP2 ADD SWAP1 PUSH2 0xAA SWAP2 SWAP1 PUSH2 0x3C2 JUMP JUMPDEST PUSH2 0x260 JUMP JUMPDEST PUSH1 0x40 MLOAD PUSH2 0xBC SWAP2 SWAP1 PUSH2 0x3FC JUMP JUMPDEST PUSH1 0x40 MLOAD DUP1 SWAP2 SUB SWAP1 RETURN JUMPDEST PUSH0 PUSH1 0x64 SWAP1 DUP1 PUSH1 0x1 DUP2 SLOAD ADD DUP1 DUP3 SSTORE DUP1 SWAP2 POP POP PUSH1 0x1 SWAP1 SUB SWAP1 PUSH0 MSTORE PUSH1 0x20 PUSH0 KECCAK256 ADD PUSH0 SWAP1 SWAP2 SWAP1 SWAP2 SWAP1 SWAP2 POP SSTORE PUSH0 PUSH1 0xC8 SWAP1 DUP1 PUSH1 0x1 DUP2 SLOAD ADD DUP1 DUP3 SSTORE DUP1 SWAP2 POP POP PUSH1 0x1 SWAP1 SUB SWAP1 PUSH0 MSTORE PUSH1 0x20 PUSH0 KECCAK256 ADD PUSH0 SWAP1 SWAP2 SWAP1 SWAP2 SWAP1 SWAP2 POP SSTORE PUSH0 PUSH2 0x12C SWAP1 DUP1 PUSH1 0x1 DUP2 SLOAD ADD DUP1 DUP3 SSTORE DUP1 SWAP2 POP POP PUSH1 0x1 SWAP1 SUB SWAP1 PUSH0 MSTORE PUSH1 0x20 PUSH0 KECCAK256 ADD PUSH0 SWAP1 SWAP2 SWAP1 SWAP2 SWAP1 SWAP2 POP SSTORE JUMP JUMPDEST PUSH1 0x60 PUSH0 DUP1 SLOAD DUP1 PUSH1 0x20 MUL PUSH1 0x20 ADD PUSH1 0x40 MLOAD SWAP1 DUP2 ADD PUSH1 0x40 MSTORE DUP1 SWAP3 SWAP2 SWAP1 DUP2 DUP2 MSTORE PUSH1 0x20 ADD DUP3 DUP1 SLOAD DUP1 ISZERO PUSH2 0x185 JUMPI PUSH1 0x20 MUL DUP3 ADD SWAP2 SWAP1 PUSH0 MSTORE PUSH1 0x20 PUSH0 KECCAK256 SWAP1 JUMPDEST DUP2 SLOAD DUP2 MSTORE PUSH1 0x20 ADD SWAP1 PUSH1 0x1 ADD SWAP1 DUP1 DUP4 GT PUSH2 0x171 JUMPI JUMPDEST POP POP POP POP POP SWAP1 POP SWAP1 JUMP JUMPDEST PUSH1 0x60 DUP1 PUSH0 PUSH0 DUP1 SLOAD DUP1 PUSH1 0x20 MUL PUSH1 0x20 ADD PUSH1 0x40 MLOAD SWAP1 DUP2 ADD PUSH1 0x40 MSTORE DUP1 SWAP3 SWAP2 SWAP1 DUP2 DUP2 MSTORE PUSH1 0x20 ADD DUP3 DUP1 SLOAD DUP1 ISZERO PUSH2 0x1DC JUMPI PUSH1 0x20 MUL DUP3 ADD SWAP2 SWAP1 PUSH0 MSTORE PUSH1 0x20 PUSH0 KECCAK256 SWAP1 JUMPDEST DUP2 SLOAD DUP2 MSTORE PUSH1 0x20 ADD SWAP1 PUSH1 0x1 ADD SWAP1 DUP1 DUP4 GT PUSH2 0x1C8 JUMPI JUMPDEST POP POP POP POP POP SWAP1 POP PUSH2 0x3E7 DUP2 PUSH0 DUP2 MLOAD DUP2 LT PUSH2 0x1F9 JUMPI PUSH2 0x1F8 PUSH2 0x415 JUMP JUMPDEST JUMPDEST PUSH1 0x20 MUL PUSH1 0x20 ADD ADD DUP2 DUP2 MSTORE POP POP DUP1 PUSH0 DUP1 DUP1 SLOAD DUP1 PUSH1 0x20 MUL PUSH1 0x20 ADD PUSH1 0x40 MLOAD SWAP1 DUP2 ADD PUSH1 0x40 MSTORE DUP1 SWAP3 SWAP2 SWAP1 DUP2 DUP2 MSTORE PUSH1 0x20 ADD DUP3 DUP1 SLOAD DUP1 ISZERO PUSH2 0x250 JUMPI PUSH1 0x20 MUL DUP3 ADD SWAP2 SWAP1 PUSH0 MSTORE PUSH1 0x20 PUSH0 KECCAK256 SWAP1 JUMPDEST DUP2 SLOAD DUP2 MSTORE PUSH1 0x20 ADD SWAP1 PUSH1 0x1 ADD SWAP1 DUP1 DUP4 GT PUSH2 0x23C JUMPI JUMPDEST POP POP POP POP POP SWAP1 POP SWAP3 POP SWAP3 POP POP SWAP1 SWAP2 JUMP JUMPDEST PUSH0 DUP2 DUP2 SLOAD DUP2 LT PUSH2 0x26E JUMPI PUSH0 DUP1 REVERT JUMPDEST SWAP1 PUSH0 MSTORE PUSH1 0x20 PUSH0 KECCAK256 ADD PUSH0 SWAP2 POP SWAP1 POP SLOAD DUP2 JUMP JUMPDEST PUSH0 DUP2 MLOAD SWAP1 POP SWAP2 SWAP1 POP JUMP JUMPDEST PUSH0 DUP3 DUP3 MSTORE PUSH1 0x20 DUP3 ADD SWAP1 POP SWAP3 SWAP2 POP POP JUMP JUMPDEST PUSH0 DUP2 SWAP1 POP PUSH1 0x20 DUP3 ADD SWAP1 POP SWAP2 SWAP1 POP JUMP JUMPDEST PUSH0 DUP2 SWAP1 POP SWAP2 SWAP1 POP JUMP JUMPDEST PUSH2 0x2BA DUP2 PUSH2 0x2A8 JUMP JUMPDEST DUP3 MSTORE POP POP JUMP JUMPDEST PUSH0 PUSH2 0x2CB DUP4 DUP4 PUSH2 0x2B1 JUMP JUMPDEST PUSH1 0x20 DUP4 ADD SWAP1 POP SWAP3 SWAP2 POP POP JUMP JUMPDEST PUSH0 PUSH1 0x20 DUP3 ADD SWAP1 POP SWAP2 SWAP1 POP JUMP JUMPDEST PUSH0 PUSH2 0x2ED DUP3 PUSH2 0x27F JUMP JUMPDEST PUSH2 0x2F7 DUP2 DUP6 PUSH2 0x289 JUMP JUMPDEST SWAP4 POP PUSH2 0x302 DUP4 PUSH2 0x299 JUMP JUMPDEST DUP1 PUSH0 JUMPDEST DUP4 DUP2 LT ISZERO PUSH2 0x332 JUMPI DUP2 MLOAD PUSH2 0x319 DUP9 DUP3 PUSH2 0x2C0 JUMP JUMPDEST SWAP8 POP PUSH2 0x324 DUP4 PUSH2 0x2D7 JUMP JUMPDEST SWAP3 POP POP PUSH1 0x1 DUP2 ADD SWAP1 POP PUSH2 0x305 JUMP JUMPDEST POP DUP6 SWAP4 POP POP POP POP SWAP3 SWAP2 POP POP JUMP JUMPDEST PUSH0 PUSH1 0x20 DUP3 ADD SWAP1 POP DUP2 DUP2 SUB PUSH0 DUP4 ADD MSTORE PUSH2 0x357 DUP2 DUP5 PUSH2 0x2E3 JUMP JUMPDEST SWAP1 POP SWAP3 SWAP2 POP POP JUMP JUMPDEST PUSH0 PUSH1 0x40 DUP3 ADD SWAP1 POP DUP2 DUP2 SUB PUSH0 DUP4 ADD MSTORE PUSH2 0x377 DUP2 DUP6 PUSH2 0x2E3 JUMP JUMPDEST SWAP1 POP DUP2 DUP2 SUB PUSH1 0x20 DUP4 ADD MSTORE PUSH2 0x38B DUP2 DUP5 PUSH2 0x2E3 JUMP JUMPDEST SWAP1 POP SWAP4 SWAP3 POP POP POP JUMP JUMPDEST PUSH0 PUSH0 REVERT JUMPDEST PUSH2 0x3A1 DUP2 PUSH2 0x2A8 JUMP JUMPDEST DUP2 EQ PUSH2 0x3AB JUMPI PUSH0 PUSH0 REVERT JUMPDEST POP JUMP JUMPDEST PUSH0 DUP2 CALLDATALOAD SWAP1 POP PUSH2 0x3BC DUP2 PUSH2 0x398 JUMP JUMPDEST SWAP3 SWAP2 POP POP JUMP JUMPDEST PUSH0 PUSH1 0x20 DUP3 DUP5 SUB SLT ISZERO PUSH2 0x3D7 JUMPI PUSH2 0x3D6 PUSH2 0x394 JUMP JUMPDEST JUMPDEST PUSH0 PUSH2 0x3E4 DUP5 DUP3 DUP6 ADD PUSH2 0x3AE JUMP JUMPDEST SWAP2 POP POP SWAP3 SWAP2 POP POP JUMP JUMPDEST PUSH2 0x3F6 DUP2 PUSH2 0x2A8 JUMP JUMPDEST DUP3 MSTORE POP POP JUMP JUMPDEST PUSH0 PUSH1 0x20 DUP3 ADD SWAP1 POP PUSH2 0x40F PUSH0 DUP4 ADD DUP5 PUSH2 0x3ED JUMP JUMPDEST SWAP3 SWAP2 POP POP JUMP JUMPDEST PUSH32 0x4E487B7100000000000000000000000000000000000000000000000000000000 PUSH0 MSTORE PUSH1 0x32 PUSH1 0x4 MSTORE PUSH1 0x24 PUSH0 REVERT INVALID LOG2 PUSH5 0x6970667358 0x22 SLT KECCAK256 0xBB ADDRESS BALANCE CALLDATASIZE PUSH4 0x488FDF51 EOFCREATE 0x8D LOG2 RETURNDATASIZE TIMESTAMP NUMBER SWAP3 CALL SSTORE 0xE2 BASEFEE ADDRESS 0x4C 0xDC 0xEF 0xAA CALLF 0xFBD7 LOG2 0xDD INVALID CALLVALUE PUSH5 0x736F6C6343 STOP ADDMOD 0x22 STOP CALLER "
				},
				"gasEstimates": {
					"creation": {
						"codeDepositCost": "228800",
						"executionCost": "267",
						"totalCost": "229067"
					},
					"external": {
						"addValues()": "139378",
						"getStorageArray()": "infinite",
						"modifyMemoryCopy()": "infinite",
						"numbers(uint256)": "infinite"
					}
				},
				"methodIdentifiers": {
					"addValues()": "166e7bdd",
					"getStorageArray()": "25cc66f5",
					"modifyMemoryCopy()": "9ca0382f",
					"numbers(uint256)": "d39fa233"
				}
			},
			"storageLayout": {
				"storage": [
					{
						"astId": 4,
						"contract": "val21.sol:ModifyCopiedMemoryArrayval",
						"label": "numbers",
						"offset": 0,
						"slot": "0",
						"type": "t_array(t_uint256)dyn_storage"
					}
				],
				"types": {
					"t_array(t_uint256)dyn_storage": {
						"base": "t_uint256",
						"encoding": "dynamic_array",
						"label": "uint256[]",
						"numberOfBytes": "32"
					},
					"t_uint256": {
						"encoding": "inplace",
						"label": "uint256",
						"numberOfBytes": "32"
					}
				}
			},
			"userdoc": {
				"kind": "user",
				"methods": {},
				"version": 1
			}
		}
	}
}