{
	"val54.sol": {
		"FallbackCallerval": {
			"abi": [
				{
					"inputs": [
						{
							"internalType": "address",
							"name": "_target",
							"type": "address"
						}
					],
					"stateMutability": "nonpayable",
					"type": "constructor"
				},
				{
					"inputs": [],
					"name": "lastSuccess",
					"outputs": [
						{
							"internalType": "bool",
							"name": "",
							"type": "bool"
						}
					],
					"stateMutability": "view",
					"type": "function"
				},
				{
					"inputs": [],
					"name": "target",
					"outputs": [
						{
							"internalType": "address",
							"name": "",
							"type": "address"
						}
					],
					"stateMutability": "view",
					"type": "function"
				},
				{
					"inputs": [],
					"name": "triggerFallback",
					"outputs": [],
					"stateMutability": "nonpayable",
					"type": "function"
				},
				{
					"inputs": [],
					"name": "triggerFallbackWithETH",
					"outputs": [],
					"stateMutability": "payable",
					"type": "function"
				},
				{
					"inputs": [],
					"name": "triggerReceive",
					"outputs": [],
					"stateMutability": "payable",
					"type": "function"
				}
			],
			"devdoc": {
				"kind": "dev",
				"methods": {},
				"version": 1
			},
			"evm": {
				"assembly": "    /* \"val54.sol\":3331:5328  contract FallbackCallerval {... */\n  mstore(0x40, 0x80)\n    /* \"val54.sol\":3554:3625  constructor(address _target)... */\n  callvalue\n  dup1\n  iszero\n  tag_1\n  jumpi\n  revert(0x00, 0x00)\ntag_1:\n  pop\n  mload(0x40)\n  sub(codesize, bytecodeSize)\n  dup1\n  bytecodeSize\n  dup4\n  codecopy\n  dup2\n  dup2\n  add\n  0x40\n  mstore\n  dup2\n  add\n  swap1\n  tag_2\n  swap2\n  swap1\n  tag_3\n  jump\t// in\ntag_2:\n    /* \"val54.sol\":3610:3617  _target */\n  dup1\n    /* \"val54.sol\":3601:3607  target */\n  0x00\n  0x00\n    /* \"val54.sol\":3601:3617  target = _target */\n  0x0100\n  exp\n  dup2\n  sload\n  dup2\n  0xffffffffffffffffffffffffffffffffffffffff\n  mul\n  not\n  and\n  swap1\n  dup4\n  0xffffffffffffffffffffffffffffffffffffffff\n  and\n  mul\n  or\n  swap1\n  sstore\n  pop\n    /* \"val54.sol\":3554:3625  constructor(address _target)... */\n  pop\n    /* \"val54.sol\":3331:5328  contract FallbackCallerval {... */\n  jump(tag_6)\n    /* \"#utility.yul\":88:205   */\ntag_8:\n    /* \"#utility.yul\":197:198   */\n  0x00\n    /* \"#utility.yul\":194:195   */\n  0x00\n    /* \"#utility.yul\":187:199   */\n  revert\n    /* \"#utility.yul\":334:460   */\ntag_10:\n    /* \"#utility.yul\":371:378   */\n  0x00\n    /* \"#utility.yul\":411:453   */\n  0xffffffffffffffffffffffffffffffffffffffff\n    /* \"#utility.yul\":404:409   */\n  dup3\n    /* \"#utility.yul\":400:454   */\n  and\n    /* \"#utility.yul\":389:454   */\n  swap1\n  pop\n    /* \"#utility.yul\":334:460   */\n  swap2\n  swap1\n  pop\n  jump\t// out\n    /* \"#utility.yul\":466:562   */\ntag_11:\n    /* \"#utility.yul\":503:510   */\n  0x00\n    /* \"#utility.yul\":532:556   */\n  tag_20\n    /* \"#utility.yul\":550:555   */\n  dup3\n    /* \"#utility.yul\":532:556   */\n  tag_10\n  jump\t// in\ntag_20:\n    /* \"#utility.yul\":521:556   */\n  swap1\n  pop\n    /* \"#utility.yul\":466:562   */\n  swap2\n  swap1\n  pop\n  jump\t// out\n    /* \"#utility.yul\":568:690   */\ntag_12:\n    /* \"#utility.yul\":641:665   */\n  tag_22\n    /* \"#utility.yul\":659:664   */\n  dup2\n    /* \"#utility.yul\":641:665   */\n  tag_11\n  jump\t// in\ntag_22:\n    /* \"#utility.yul\":634:639   */\n  dup2\n    /* \"#utility.yul\":631:666   */\n  eq\n    /* \"#utility.yul\":621:684   */\n  tag_23\n  jumpi\n    /* \"#utility.yul\":680:681   */\n  0x00\n    /* \"#utility.yul\":677:678   */\n  0x00\n    /* \"#utility.yul\":670:682   */\n  revert\n    /* \"#utility.yul\":621:684   */\ntag_23:\n    /* \"#utility.yul\":568:690   */\n  pop\n  jump\t// out\n    /* \"#utility.yul\":696:839   */\ntag_13:\n    /* \"#utility.yul\":753:758   */\n  0x00\n    /* \"#utility.yul\":784:790   */\n  dup2\n    /* \"#utility.yul\":778:791   */\n  mload\n    /* \"#utility.yul\":769:791   */\n  swap1\n  pop\n    /* \"#utility.yul\":800:833   */\n  tag_25\n    /* \"#utility.yul\":827:832   */\n  dup2\n    /* \"#utility.yul\":800:833   */\n  tag_12\n  jump\t// in\ntag_25:\n    /* \"#utility.yul\":696:839   */\n  swap3\n  swap2\n  pop\n  pop\n  jump\t// out\n    /* \"#utility.yul\":845:1196   */\ntag_3:\n    /* \"#utility.yul\":915:921   */\n  0x00\n    /* \"#utility.yul\":964:966   */\n  0x20\n    /* \"#utility.yul\":952:961   */\n  dup3\n    /* \"#utility.yul\":943:950   */\n  dup5\n    /* \"#utility.yul\":939:962   */\n  sub\n    /* \"#utility.yul\":935:967   */\n  slt\n    /* \"#utility.yul\":932:1051   */\n  iszero\n  tag_27\n  jumpi\n    /* \"#utility.yul\":970:1049   */\n  tag_28\n  tag_8\n  jump\t// in\ntag_28:\n    /* \"#utility.yul\":932:1051   */\ntag_27:\n    /* \"#utility.yul\":1090:1091   */\n  0x00\n    /* \"#utility.yul\":1115:1179   */\n  tag_29\n    /* \"#utility.yul\":1171:1178   */\n  dup5\n    /* \"#utility.yul\":1162:1168   */\n  dup3\n    /* \"#utility.yul\":1151:1160   */\n  dup6\n    /* \"#utility.yul\":1147:1169   */\n  add\n    /* \"#utility.yul\":1115:1179   */\n  tag_13\n  jump\t// in\ntag_29:\n    /* \"#utility.yul\":1105:1179   */\n  swap2\n  pop\n    /* \"#utility.yul\":1061:1189   */\n  pop\n    /* \"#utility.yul\":845:1196   */\n  swap3\n  swap2\n  pop\n  pop\n  jump\t// out\n    /* \"val54.sol\":3331:5328  contract FallbackCallerval {... */\ntag_6:\n  dataSize(sub_0)\n  dup1\n  dataOffset(sub_0)\n  0x00\n  codecopy\n  0x00\n  return\nstop\n\nsub_0: assembly {\n        /* \"val54.sol\":3331:5328  contract FallbackCallerval {... */\n      mstore(0x40, 0x80)\n      jumpi(tag_1, lt(calldatasize, 0x04))\n      shr(0xe0, calldataload(0x00))\n      dup1\n      0x2acda0c8\n      eq\n      tag_2\n      jumpi\n      dup1\n      0x9415bc59\n      eq\n      tag_3\n      jumpi\n      dup1\n      0xd1553806\n      eq\n      tag_4\n      jumpi\n      dup1\n      0xd4b83992\n      eq\n      tag_5\n      jumpi\n      dup1\n      0xe70aa5bb\n      eq\n      tag_6\n      jumpi\n    tag_1:\n      revert(0x00, 0x00)\n        /* \"val54.sol\":3796:4237  function triggerFallback()... */\n    tag_2:\n      callvalue\n      dup1\n      iszero\n      tag_7\n      jumpi\n      revert(0x00, 0x00)\n    tag_7:\n      pop\n      tag_8\n      tag_9\n      jump\t// in\n    tag_8:\n      stop\n        /* \"val54.sol\":3485:3508  bool public lastSuccess */\n    tag_3:\n      callvalue\n      dup1\n      iszero\n      tag_10\n      jumpi\n      revert(0x00, 0x00)\n    tag_10:\n      pop\n      tag_11\n      tag_12\n      jump\t// in\n    tag_11:\n      mload(0x40)\n      tag_13\n      swap2\n      swap1\n      tag_14\n      jump\t// in\n    tag_13:\n      mload(0x40)\n      dup1\n      swap2\n      sub\n      swap1\n      return\n        /* \"val54.sol\":4414:4855  function triggerFallbackWithETH()... */\n    tag_4:\n      tag_15\n      tag_16\n      jump\t// in\n    tag_15:\n      stop\n        /* \"val54.sol\":3413:3434  address public target */\n    tag_5:\n      callvalue\n      dup1\n      iszero\n      tag_17\n      jumpi\n      revert(0x00, 0x00)\n    tag_17:\n      pop\n      tag_18\n      tag_19\n      jump\t// in\n    tag_18:\n      mload(0x40)\n      tag_20\n      swap2\n      swap1\n      tag_21\n      jump\t// in\n    tag_20:\n      mload(0x40)\n      dup1\n      swap2\n      sub\n      swap1\n      return\n        /* \"val54.sol\":5019:5325  function triggerReceive()... */\n    tag_6:\n      tag_22\n      tag_23\n      jump\t// in\n    tag_22:\n      stop\n        /* \"val54.sol\":3796:4237  function triggerFallback()... */\n    tag_9:\n        /* \"val54.sol\":3988:4000  bool success */\n      0x00\n        /* \"val54.sol\":4019:4025  target */\n      0x00\n      0x00\n      swap1\n      sload\n      swap1\n      0x0100\n      exp\n      swap1\n      div\n      0xffffffffffffffffffffffffffffffffffffffff\n      and\n        /* \"val54.sol\":4019:4030  target.call */\n      0xffffffffffffffffffffffffffffffffffffffff\n      and\n        /* \"val54.sol\":4049:4130  abi.encodeWithSignature(... */\n      add(0x24, mload(0x40))\n      mload(0x40)\n      0x20\n      dup2\n      dup4\n      sub\n      sub\n      dup2\n      mstore\n      swap1\n      0x40\n      mstore\n      and(not(0xffffffffffffffffffffffffffffffffffffffffffffffffffffffff), 0x1dcc85ae00000000000000000000000000000000000000000000000000000000)\n      0x20\n      dup3\n      add\n      dup1\n      mload\n      0xffffffffffffffffffffffffffffffffffffffffffffffffffffffff\n      dup4\n      dup2\n      dup4\n      and\n      or\n      dup4\n      mstore\n      pop\n      pop\n      pop\n      pop\n        /* \"val54.sol\":4019:4145  target.call(... */\n      mload(0x40)\n      tag_25\n      swap2\n      swap1\n      tag_26\n      jump\t// in\n    tag_25:\n      0x00\n      mload(0x40)\n      dup1\n      dup4\n      sub\n      dup2\n      0x00\n      dup7\n      gas\n      call\n      swap2\n      pop\n      pop\n      returndatasize\n      dup1\n      0x00\n      dup2\n      eq\n      tag_29\n      jumpi\n      mload(0x40)\n      swap2\n      pop\n      and(add(returndatasize, 0x3f), not(0x1f))\n      dup3\n      add\n      0x40\n      mstore\n      returndatasize\n      dup3\n      mstore\n      returndatasize\n      0x00\n      0x20\n      dup5\n      add\n      returndatacopy\n      jump(tag_28)\n    tag_29:\n      0x60\n      swap2\n      pop\n    tag_28:\n      pop\n        /* \"val54.sol\":3987:4145  (bool success, ) =... */\n      pop\n      swap1\n      pop\n        /* \"val54.sol\":4222:4229  success */\n      dup1\n        /* \"val54.sol\":4208:4219  lastSuccess */\n      0x00\n      0x14\n        /* \"val54.sol\":4208:4229  lastSuccess = success */\n      0x0100\n      exp\n      dup2\n      sload\n      dup2\n      0xff\n      mul\n      not\n      and\n      swap1\n      dup4\n      iszero\n      iszero\n      mul\n      or\n      swap1\n      sstore\n      pop\n        /* \"val54.sol\":3846:4237  {... */\n      pop\n        /* \"val54.sol\":3796:4237  function triggerFallback()... */\n      jump\t// out\n        /* \"val54.sol\":3485:3508  bool public lastSuccess */\n    tag_12:\n      0x00\n      0x14\n      swap1\n      sload\n      swap1\n      0x0100\n      exp\n      swap1\n      div\n      0xff\n      and\n      dup2\n      jump\t// out\n        /* \"val54.sol\":4414:4855  function triggerFallbackWithETH()... */\n    tag_16:\n        /* \"val54.sol\":4606:4618  bool success */\n      0x00\n        /* \"val54.sol\":4637:4643  target */\n      0x00\n      0x00\n      swap1\n      sload\n      swap1\n      0x0100\n      exp\n      swap1\n      div\n      0xffffffffffffffffffffffffffffffffffffffff\n      and\n        /* \"val54.sol\":4637:4648  target.call */\n      0xffffffffffffffffffffffffffffffffffffffff\n      and\n        /* \"val54.sol\":4674:4683  msg.value */\n      callvalue\n        /* \"val54.sol\":4717:4798  abi.encodeWithSignature(... */\n      add(0x24, mload(0x40))\n      mload(0x40)\n      0x20\n      dup2\n      dup4\n      sub\n      sub\n      dup2\n      mstore\n      swap1\n      0x40\n      mstore\n      and(not(0xffffffffffffffffffffffffffffffffffffffffffffffffffffffff), 0x762eccf700000000000000000000000000000000000000000000000000000000)\n      0x20\n      dup3\n      add\n      dup1\n      mload\n      0xffffffffffffffffffffffffffffffffffffffffffffffffffffffff\n      dup4\n      dup2\n      dup4\n      and\n      or\n      dup4\n      mstore\n      pop\n      pop\n      pop\n      pop\n        /* \"val54.sol\":4637:4813  target.call{... */\n      mload(0x40)\n      tag_31\n      swap2\n      swap1\n      tag_26\n      jump\t// in\n    tag_31:\n      0x00\n      mload(0x40)\n      dup1\n      dup4\n      sub\n      dup2\n      dup6\n      dup8\n      gas\n      call\n      swap3\n      pop\n      pop\n      pop\n      returndatasize\n      dup1\n      0x00\n      dup2\n      eq\n      tag_34\n      jumpi\n      mload(0x40)\n      swap2\n      pop\n      and(add(returndatasize, 0x3f), not(0x1f))\n      dup3\n      add\n      0x40\n      mstore\n      returndatasize\n      dup3\n      mstore\n      returndatasize\n      0x00\n      0x20\n      dup5\n      add\n      returndatacopy\n      jump(tag_33)\n    tag_34:\n      0x60\n      swap2\n      pop\n    tag_33:\n      pop\n        /* \"val54.sol\":4605:4813  (bool success, ) =... */\n      pop\n      swap1\n      pop\n        /* \"val54.sol\":4840:4847  success */\n      dup1\n        /* \"val54.sol\":4826:4837  lastSuccess */\n      0x00\n      0x14\n        /* \"val54.sol\":4826:4847  lastSuccess = success */\n      0x0100\n      exp\n      dup2\n      sload\n      dup2\n      0xff\n      mul\n      not\n      and\n      swap1\n      dup4\n      iszero\n      iszero\n      mul\n      or\n      swap1\n      sstore\n      pop\n        /* \"val54.sol\":4488:4855  {... */\n      pop\n        /* \"val54.sol\":4414:4855  function triggerFallbackWithETH()... */\n      jump\t// out\n        /* \"val54.sol\":3413:3434  address public target */\n    tag_19:\n      0x00\n      0x00\n      swap1\n      sload\n      swap1\n      0x0100\n      exp\n      swap1\n      div\n      0xffffffffffffffffffffffffffffffffffffffff\n      and\n      dup2\n      jump\t// out\n        /* \"val54.sol\":5019:5325  function triggerReceive()... */\n    tag_23:\n        /* \"val54.sol\":5187:5199  bool success */\n      0x00\n        /* \"val54.sol\":5218:5224  target */\n      0x00\n      0x00\n      swap1\n      sload\n      swap1\n      0x0100\n      exp\n      swap1\n      div\n      0xffffffffffffffffffffffffffffffffffffffff\n      and\n        /* \"val54.sol\":5218:5229  target.call */\n      0xffffffffffffffffffffffffffffffffffffffff\n      and\n        /* \"val54.sol\":5255:5264  msg.value */\n      callvalue\n        /* \"val54.sol\":5218:5283  target.call{... */\n      mload(0x40)\n      tag_36\n      swap1\n      tag_37\n      jump\t// in\n    tag_36:\n      0x00\n      mload(0x40)\n      dup1\n      dup4\n      sub\n      dup2\n      dup6\n      dup8\n      gas\n      call\n      swap3\n      pop\n      pop\n      pop\n      returndatasize\n      dup1\n      0x00\n      dup2\n      eq\n      tag_40\n      jumpi\n      mload(0x40)\n      swap2\n      pop\n      and(add(returndatasize, 0x3f), not(0x1f))\n      dup3\n      add\n      0x40\n      mstore\n      returndatasize\n      dup3\n      mstore\n      returndatasize\n      0x00\n      0x20\n      dup5\n      add\n      returndatacopy\n      jump(tag_39)\n    tag_40:\n      0x60\n      swap2\n      pop\n    tag_39:\n      pop\n        /* \"val54.sol\":5186:5283  (bool success, ) =... */\n      pop\n      swap1\n      pop\n        /* \"val54.sol\":5310:5317  success */\n      dup1\n        /* \"val54.sol\":5296:5307  lastSuccess */\n      0x00\n      0x14\n        /* \"val54.sol\":5296:5317  lastSuccess = success */\n      0x0100\n      exp\n      dup2\n      sload\n      dup2\n      0xff\n      mul\n      not\n      and\n      swap1\n      dup4\n      iszero\n      iszero\n      mul\n      or\n      swap1\n      sstore\n      pop\n        /* \"val54.sol\":5085:5325  {... */\n      pop\n        /* \"val54.sol\":5019:5325  function triggerReceive()... */\n      jump\t// out\n        /* \"#utility.yul\":7:97   */\n    tag_41:\n        /* \"#utility.yul\":41:48   */\n      0x00\n        /* \"#utility.yul\":84:89   */\n      dup2\n        /* \"#utility.yul\":77:90   */\n      iszero\n        /* \"#utility.yul\":70:91   */\n      iszero\n        /* \"#utility.yul\":59:91   */\n      swap1\n      pop\n        /* \"#utility.yul\":7:97   */\n      swap2\n      swap1\n      pop\n      jump\t// out\n        /* \"#utility.yul\":103:212   */\n    tag_42:\n        /* \"#utility.yul\":184:205   */\n      tag_55\n        /* \"#utility.yul\":199:204   */\n      dup2\n        /* \"#utility.yul\":184:205   */\n      tag_41\n      jump\t// in\n    tag_55:\n        /* \"#utility.yul\":179:182   */\n      dup3\n        /* \"#utility.yul\":172:206   */\n      mstore\n        /* \"#utility.yul\":103:212   */\n      pop\n      pop\n      jump\t// out\n        /* \"#utility.yul\":218:428   */\n    tag_14:\n        /* \"#utility.yul\":305:309   */\n      0x00\n        /* \"#utility.yul\":343:345   */\n      0x20\n        /* \"#utility.yul\":332:341   */\n      dup3\n        /* \"#utility.yul\":328:346   */\n      add\n        /* \"#utility.yul\":320:346   */\n      swap1\n      pop\n        /* \"#utility.yul\":356:421   */\n      tag_57\n        /* \"#utility.yul\":418:419   */\n      0x00\n        /* \"#utility.yul\":407:416   */\n      dup4\n        /* \"#utility.yul\":403:420   */\n      add\n        /* \"#utility.yul\":394:400   */\n      dup5\n        /* \"#utility.yul\":356:421   */\n      tag_42\n      jump\t// in\n    tag_57:\n        /* \"#utility.yul\":218:428   */\n      swap3\n      swap2\n      pop\n      pop\n      jump\t// out\n        /* \"#utility.yul\":434:560   */\n    tag_43:\n        /* \"#utility.yul\":471:478   */\n      0x00\n        /* \"#utility.yul\":511:553   */\n      0xffffffffffffffffffffffffffffffffffffffff\n        /* \"#utility.yul\":504:509   */\n      dup3\n        /* \"#utility.yul\":500:554   */\n      and\n        /* \"#utility.yul\":489:554   */\n      swap1\n      pop\n        /* \"#utility.yul\":434:560   */\n      swap2\n      swap1\n      pop\n      jump\t// out\n        /* \"#utility.yul\":566:662   */\n    tag_44:\n        /* \"#utility.yul\":603:610   */\n      0x00\n        /* \"#utility.yul\":632:656   */\n      tag_60\n        /* \"#utility.yul\":650:655   */\n      dup3\n        /* \"#utility.yul\":632:656   */\n      tag_43\n      jump\t// in\n    tag_60:\n        /* \"#utility.yul\":621:656   */\n      swap1\n      pop\n        /* \"#utility.yul\":566:662   */\n      swap2\n      swap1\n      pop\n      jump\t// out\n        /* \"#utility.yul\":668:786   */\n    tag_45:\n        /* \"#utility.yul\":755:779   */\n      tag_62\n        /* \"#utility.yul\":773:778   */\n      dup2\n        /* \"#utility.yul\":755:779   */\n      tag_44\n      jump\t// in\n    tag_62:\n        /* \"#utility.yul\":750:753   */\n      dup3\n        /* \"#utility.yul\":743:780   */\n      mstore\n        /* \"#utility.yul\":668:786   */\n      pop\n      pop\n      jump\t// out\n        /* \"#utility.yul\":792:1014   */\n    tag_21:\n        /* \"#utility.yul\":885:889   */\n      0x00\n        /* \"#utility.yul\":923:925   */\n      0x20\n        /* \"#utility.yul\":912:921   */\n      dup3\n        /* \"#utility.yul\":908:926   */\n      add\n        /* \"#utility.yul\":900:926   */\n      swap1\n      pop\n        /* \"#utility.yul\":936:1007   */\n      tag_64\n        /* \"#utility.yul\":1004:1005   */\n      0x00\n        /* \"#utility.yul\":993:1002   */\n      dup4\n        /* \"#utility.yul\":989:1006   */\n      add\n        /* \"#utility.yul\":980:986   */\n      dup5\n        /* \"#utility.yul\":936:1007   */\n      tag_45\n      jump\t// in\n    tag_64:\n        /* \"#utility.yul\":792:1014   */\n      swap3\n      swap2\n      pop\n      pop\n      jump\t// out\n        /* \"#utility.yul\":1020:1118   */\n    tag_46:\n        /* \"#utility.yul\":1071:1077   */\n      0x00\n        /* \"#utility.yul\":1105:1110   */\n      dup2\n        /* \"#utility.yul\":1099:1111   */\n      mload\n        /* \"#utility.yul\":1089:1111   */\n      swap1\n      pop\n        /* \"#utility.yul\":1020:1118   */\n      swap2\n      swap1\n      pop\n      jump\t// out\n        /* \"#utility.yul\":1124:1271   */\n    tag_47:\n        /* \"#utility.yul\":1225:1236   */\n      0x00\n        /* \"#utility.yul\":1262:1265   */\n      dup2\n        /* \"#utility.yul\":1247:1265   */\n      swap1\n      pop\n        /* \"#utility.yul\":1124:1271   */\n      swap3\n      swap2\n      pop\n      pop\n      jump\t// out\n        /* \"#utility.yul\":1277:1416   */\n    tag_48:\n        /* \"#utility.yul\":1366:1372   */\n      dup3\n        /* \"#utility.yul\":1361:1364   */\n      dup2\n        /* \"#utility.yul\":1356:1359   */\n      dup4\n        /* \"#utility.yul\":1350:1373   */\n      mcopy\n        /* \"#utility.yul\":1407:1408   */\n      0x00\n        /* \"#utility.yul\":1398:1404   */\n      dup4\n        /* \"#utility.yul\":1393:1396   */\n      dup4\n        /* \"#utility.yul\":1389:1405   */\n      add\n        /* \"#utility.yul\":1382:1409   */\n      mstore\n        /* \"#utility.yul\":1277:1416   */\n      pop\n      pop\n      pop\n      jump\t// out\n        /* \"#utility.yul\":1422:1808   */\n    tag_49:\n        /* \"#utility.yul\":1526:1529   */\n      0x00\n        /* \"#utility.yul\":1554:1592   */\n      tag_69\n        /* \"#utility.yul\":1586:1591   */\n      dup3\n        /* \"#utility.yul\":1554:1592   */\n      tag_46\n      jump\t// in\n    tag_69:\n        /* \"#utility.yul\":1608:1696   */\n      tag_70\n        /* \"#utility.yul\":1689:1695   */\n      dup2\n        /* \"#utility.yul\":1684:1687   */\n      dup6\n        /* \"#utility.yul\":1608:1696   */\n      tag_47\n      jump\t// in\n    tag_70:\n        /* \"#utility.yul\":1601:1696   */\n      swap4\n      pop\n        /* \"#utility.yul\":1705:1770   */\n      tag_71\n        /* \"#utility.yul\":1763:1769   */\n      dup2\n        /* \"#utility.yul\":1758:1761   */\n      dup6\n        /* \"#utility.yul\":1751:1755   */\n      0x20\n        /* \"#utility.yul\":1744:1749   */\n      dup7\n        /* \"#utility.yul\":1740:1756   */\n      add\n        /* \"#utility.yul\":1705:1770   */\n      tag_48\n      jump\t// in\n    tag_71:\n        /* \"#utility.yul\":1795:1801   */\n      dup1\n        /* \"#utility.yul\":1790:1793   */\n      dup5\n        /* \"#utility.yul\":1786:1802   */\n      add\n        /* \"#utility.yul\":1779:1802   */\n      swap2\n      pop\n        /* \"#utility.yul\":1530:1808   */\n      pop\n        /* \"#utility.yul\":1422:1808   */\n      swap3\n      swap2\n      pop\n      pop\n      jump\t// out\n        /* \"#utility.yul\":1814:2085   */\n    tag_26:\n        /* \"#utility.yul\":1944:1947   */\n      0x00\n        /* \"#utility.yul\":1966:2059   */\n      tag_73\n        /* \"#utility.yul\":2055:2058   */\n      dup3\n        /* \"#utility.yul\":2046:2052   */\n      dup5\n        /* \"#utility.yul\":1966:2059   */\n      tag_49\n      jump\t// in\n    tag_73:\n        /* \"#utility.yul\":1959:2059   */\n      swap2\n      pop\n        /* \"#utility.yul\":2076:2079   */\n      dup2\n        /* \"#utility.yul\":2069:2079   */\n      swap1\n      pop\n        /* \"#utility.yul\":1814:2085   */\n      swap3\n      swap2\n      pop\n      pop\n      jump\t// out\n        /* \"#utility.yul\":2091:2205   */\n    tag_50:\n      pop\n      jump\t// out\n        /* \"#utility.yul\":2211:2609   */\n    tag_51:\n        /* \"#utility.yul\":2370:2373   */\n      0x00\n        /* \"#utility.yul\":2391:2474   */\n      tag_76\n        /* \"#utility.yul\":2472:2473   */\n      0x00\n        /* \"#utility.yul\":2467:2470   */\n      dup4\n        /* \"#utility.yul\":2391:2474   */\n      tag_47\n      jump\t// in\n    tag_76:\n        /* \"#utility.yul\":2384:2474   */\n      swap2\n      pop\n        /* \"#utility.yul\":2483:2576   */\n      tag_77\n        /* \"#utility.yul\":2572:2575   */\n      dup3\n        /* \"#utility.yul\":2483:2576   */\n      tag_50\n      jump\t// in\n    tag_77:\n        /* \"#utility.yul\":2601:2602   */\n      0x00\n        /* \"#utility.yul\":2596:2599   */\n      dup3\n        /* \"#utility.yul\":2592:2603   */\n      add\n        /* \"#utility.yul\":2585:2603   */\n      swap1\n      pop\n        /* \"#utility.yul\":2211:2609   */\n      swap2\n      swap1\n      pop\n      jump\t// out\n        /* \"#utility.yul\":2615:2994   */\n    tag_37:\n        /* \"#utility.yul\":2799:2802   */\n      0x00\n        /* \"#utility.yul\":2821:2968   */\n      tag_79\n        /* \"#utility.yul\":2964:2967   */\n      dup3\n        /* \"#utility.yul\":2821:2968   */\n      tag_51\n      jump\t// in\n    tag_79:\n        /* \"#utility.yul\":2814:2968   */\n      swap2\n      pop\n        /* \"#utility.yul\":2985:2988   */\n      dup2\n        /* \"#utility.yul\":2978:2988   */\n      swap1\n      pop\n        /* \"#utility.yul\":2615:2994   */\n      swap2\n      swap1\n      pop\n      jump\t// out\n\n    auxdata: 0xa2646970667358221220bed1d63a8e5d9b76684af9d0924b2bf35465398de19a8ef04fe80866e8812a6a64736f6c63430008220033\n}\n",
				"bytecode": {
					"linkReferences": {},
					"object": "608060405234801561000f575f5ffd5b5060405161065f38038061065f833981810160405281019061003191906100d4565b805f5f6101000a81548173ffffffffffffffffffffffffffffffffffffffff021916908373ffffffffffffffffffffffffffffffffffffffff160217905550506100ff565b5f5ffd5b5f73ffffffffffffffffffffffffffffffffffffffff82169050919050565b5f6100a38261007a565b9050919050565b6100b381610099565b81146100bd575f5ffd5b50565b5f815190506100ce816100aa565b92915050565b5f602082840312156100e9576100e8610076565b5b5f6100f6848285016100c0565b91505092915050565b6105538061010c5f395ff3fe608060405260043610610049575f3560e01c80632acda0c81461004d5780639415bc5914610063578063d15538061461008d578063d4b8399214610097578063e70aa5bb146100c1575b5f5ffd5b348015610058575f5ffd5b506100616100cb565b005b34801561006e575f5ffd5b506100776101f1565b604051610084919061040d565b60405180910390f35b610095610203565b005b3480156100a2575f5ffd5b506100ab61032b565b6040516100b89190610465565b60405180910390f35b6100c961034f565b005b5f5f5f9054906101000a900473ffffffffffffffffffffffffffffffffffffffff1673ffffffffffffffffffffffffffffffffffffffff166040516024016040516020818303038152906040527f1dcc85ae000000000000000000000000000000000000000000000000000000007bffffffffffffffffffffffffffffffffffffffffffffffffffffffff19166020820180517bffffffffffffffffffffffffffffffffffffffffffffffffffffffff838183161783525050505060405161019391906104d0565b5f604051808303815f865af19150503d805f81146101cc576040519150601f19603f3d011682016040523d82523d5f602084013e6101d1565b606091505b50509050805f60146101000a81548160ff02191690831515021790555050565b5f60149054906101000a900460ff1681565b5f5f5f9054906101000a900473ffffffffffffffffffffffffffffffffffffffff1673ffffffffffffffffffffffffffffffffffffffff16346040516024016040516020818303038152906040527f762eccf7000000000000000000000000000000000000000000000000000000007bffffffffffffffffffffffffffffffffffffffffffffffffffffffff19166020820180517bffffffffffffffffffffffffffffffffffffffffffffffffffffffff83818316178352505050506040516102cc91906104d0565b5f6040518083038185875af1925050503d805f8114610306576040519150601f19603f3d011682016040523d82523d5f602084013e61030b565b606091505b50509050805f60146101000a81548160ff02191690831515021790555050565b5f5f9054906101000a900473ffffffffffffffffffffffffffffffffffffffff1681565b5f5f5f9054906101000a900473ffffffffffffffffffffffffffffffffffffffff1673ffffffffffffffffffffffffffffffffffffffff163460405161039490610509565b5f6040518083038185875af1925050503d805f81146103ce576040519150601f19603f3d011682016040523d82523d5f602084013e6103d3565b606091505b50509050805f60146101000a81548160ff02191690831515021790555050565b5f8115159050919050565b610407816103f3565b82525050565b5f6020820190506104205f8301846103fe565b92915050565b5f73ffffffffffffffffffffffffffffffffffffffff82169050919050565b5f61044f82610426565b9050919050565b61045f81610445565b82525050565b5f6020820190506104785f830184610456565b92915050565b5f81519050919050565b5f81905092915050565b8281835e5f83830152505050565b5f6104aa8261047e565b6104b48185610488565b93506104c4818560208601610492565b80840191505092915050565b5f6104db82846104a0565b915081905092915050565b50565b5f6104f45f83610488565b91506104ff826104e6565b5f82019050919050565b5f610513826104e9565b915081905091905056fea2646970667358221220bed1d63a8e5d9b76684af9d0924b2bf35465398de19a8ef04fe80866e8812a6a64736f6c63430008220033",
					"opcodes": "PUSH1 0x80 PUSH1 0x40 MSTORE CALLVALUE DUP1 ISZERO PUSH2 0xF JUMPI PUSH0 PUSH0 REVERT JUMPDEST POP PUSH1 0x40 MLOAD PUSH2 0x65F CODESIZE SUB DUP1 PUSH2 0x65F DUP4 CODECOPY DUP2 DUP2 ADD PUSH1 0x40 MSTORE DUP2 ADD SWAP1 PUSH2 0x31 SWAP2 SWAP1 PUSH2 0xD4 JUMP JUMPDEST DUP1 PUSH0 PUSH0 PUSH2 0x100 EXP DUP2 SLOAD DUP2 PUSH20 0xFFFFFFFFFFFFFFFFFFFFFFFFFFFFFFFFFFFFFFFF MUL NOT AND SWAP1 DUP4 PUSH20 0xFFFFFFFFFFFFFFFFFFFFFFFFFFFFFFFFFFFFFFFF AND MUL OR SWAP1 SSTORE POP POP PUSH2 0xFF JUMP JUMPDEST PUSH0 PUSH0 REVERT JUMPDEST PUSH0 PUSH20 0xFFFFFFFFFFFFFFFFFFFFFFFFFFFFFFFFFFFFFFFF DUP3 AND SWAP1 POP SWAP2 SWAP1 POP JUMP JUMPDEST PUSH0 PUSH2 0xA3 DUP3 PUSH2 0x7A JUMP JUMPDEST SWAP1 POP SWAP2 SWAP1 POP JUMP JUMPDEST PUSH2 0xB3 DUP2 PUSH2 0x99 JUMP JUMPDEST DUP2 EQ PUSH2 0xBD JUMPI PUSH0 PUSH0 REVERT JUMPDEST POP JUMP JUMPDEST PUSH0 DUP2 MLOAD SWAP1 POP PUSH2 0xCE DUP2 PUSH2 0xAA JUMP JUMPDEST SWAP3 SWAP2 POP POP JUMP JUMPDEST PUSH0 PUSH1 0x20 DUP3 DUP5 SUB SLT ISZERO PUSH2 0xE9 JUMPI PUSH2 0xE8 PUSH2 0x76 JUMP JUMPDEST JUMPDEST PUSH0 PUSH2 0xF6 DUP5 DUP3 DUP6 ADD PUSH2 0xC0 JUMP JUMPDEST SWAP2 POP POP SWAP3 SWAP2 POP POP JUMP JUMPDEST PUSH2 0x553 DUP1 PUSH2 0x10C PUSH0 CODECOPY PUSH0 RETURN INVALID PUSH1 0x80 PUSH1 0x40 MSTORE PUSH1 0x4 CALLDATASIZE LT PUSH2 0x49 JUMPI PUSH0 CALLDATALOAD PUSH1 0xE0 SHR DUP1 PUSH4 0x2ACDA0C8 EQ PUSH2 0x4D JUMPI DUP1 PUSH4 0x9415BC59 EQ PUSH2 0x63 JUMPI DUP1 PUSH4 0xD1553806 EQ PUSH2 0x8D JUMPI DUP1 PUSH4 0xD4B83992 EQ PUSH2 0x97 JUMPI DUP1 PUSH4 0xE70AA5BB EQ PUSH2 0xC1 JUMPI JUMPDEST PUSH0 PUSH0 REVERT JUMPDEST CALLVALUE DUP1 ISZERO PUSH2 0x58 JUMPI PUSH0 PUSH0 REVERT JUMPDEST POP PUSH2 0x61 PUSH2 0xCB JUMP JUMPDEST STOP JUMPDEST CALLVALUE DUP1 ISZERO PUSH2 0x6E JUMPI PUSH0 PUSH0 REVERT JUMPDEST POP PUSH2 0x77 PUSH2 0x1F1 JUMP JUMPDEST PUSH1 0x40 MLOAD PUSH2 0x84 SWAP2 SWAP1 PUSH2 0x40D JUMP JUMPDEST PUSH1 0x40 MLOAD DUP1 SWAP2 SUB SWAP1 RETURN JUMPDEST PUSH2 0x95 PUSH2 0x203 JUMP JUMPDEST STOP JUMPDEST CALLVALUE DUP1 ISZERO PUSH2 0xA2 JUMPI PUSH0 PUSH0 REVERT JUMPDEST POP PUSH2 0xAB PUSH2 0x32B JUMP JUMPDEST PUSH1 0x40 MLOAD PUSH2 0xB8 SWAP2 SWAP1 PUSH2 0x465 JUMP JUMPDEST PUSH1 0x40 MLOAD DUP1 SWAP2 SUB SWAP1 RETURN JUMPDEST PUSH2 0xC9 PUSH2 0x34F JUMP JUMPDEST STOP JUMPDEST PUSH0 PUSH0 PUSH0 SWAP1 SLOAD SWAP1 PUSH2 0x100 EXP SWAP1 DIV PUSH20 0xFFFFFFFFFFFFFFFFFFFFFFFFFFFFFFFFFFFFFFFF AND PUSH20 0xFFFFFFFFFFFFFFFFFFFFFFFFFFFFFFFFFFFFFFFF AND PUSH1 0x40 MLOAD PUSH1 0x24 ADD PUSH1 0x40 MLOAD PUSH1 0x20 DUP2 DUP4 SUB SUB DUP2 MSTORE SWAP1 PUSH1 0x40 MSTORE PUSH32 0x1DCC85AE00000000000000000000000000000000000000000000000000000000 PUSH28 0xFFFFFFFFFFFFFFFFFFFFFFFFFFFFFFFFFFFFFFFFFFFFFFFFFFFFFFFF NOT AND PUSH1 0x20 DUP3 ADD DUP1 MLOAD PUSH28 0xFFFFFFFFFFFFFFFFFFFFFFFFFFFFFFFFFFFFFFFFFFFFFFFFFFFFFFFF DUP4 DUP2 DUP4 AND OR DUP4 MSTORE POP POP POP POP PUSH1 0x40 MLOAD PUSH2 0x193 SWAP2 SWAP1 PUSH2 0x4D0 JUMP JUMPDEST PUSH0 PUSH1 0x40 MLOAD DUP1 DUP4 SUB DUP2 PUSH0 DUP7 GAS CALL SWAP2 POP POP RETURNDATASIZE DUP1 PUSH0 DUP2 EQ PUSH2 0x1CC JUMPI PUSH1 0x40 MLOAD SWAP2 POP PUSH1 0x1F NOT PUSH1 0x3F RETURNDATASIZE ADD AND DUP3 ADD PUSH1 0x40 MSTORE RETURNDATASIZE DUP3 MSTORE RETURNDATASIZE PUSH0 PUSH1 0x20 DUP5 ADD RETURNDATACOPY PUSH2 0x1D1 JUMP JUMPDEST PUSH1 0x60 SWAP2 POP JUMPDEST POP POP SWAP1 POP DUP1 PUSH0 PUSH1 0x14 PUSH2 0x100 EXP DUP2 SLOAD DUP2 PUSH1 0xFF MUL NOT AND SWAP1 DUP4 ISZERO ISZERO MUL OR SWAP1 SSTORE POP POP JUMP JUMPDEST PUSH0 PUSH1 0x14 SWAP1 SLOAD SWAP1 PUSH2 0x100 EXP SWAP1 DIV PUSH1 0xFF AND DUP2 JUMP JUMPDEST PUSH0 PUSH0 PUSH0 SWAP1 SLOAD SWAP1 PUSH2 0x100 EXP SWAP1 DIV PUSH20 0xFFFFFFFFFFFFFFFFFFFFFFFFFFFFFFFFFFFFFFFF AND PUSH20 0xFFFFFFFFFFFFFFFFFFFFFFFFFFFFFFFFFFFFFFFF AND CALLVALUE PUSH1 0x40 MLOAD PUSH1 0x24 ADD PUSH1 0x40 MLOAD PUSH1 0x20 DUP2 DUP4 SUB SUB DUP2 MSTORE SWAP1 PUSH1 0x40 MSTORE PUSH32 0x762ECCF700000000000000000000000000000000000000000000000000000000 PUSH28 0xFFFFFFFFFFFFFFFFFFFFFFFFFFFFFFFFFFFFFFFFFFFFFFFFFFFFFFFF NOT AND PUSH1 0x20 DUP3 ADD DUP1 MLOAD PUSH28 0xFFFFFFFFFFFFFFFFFFFFFFFFFFFFFFFFFFFFFFFFFFFFFFFFFFFFFFFF DUP4 DUP2 DUP4 AND OR DUP4 MSTORE POP POP POP POP PUSH1 0x40 MLOAD PUSH2 0x2CC SWAP2 SWAP1 PUSH2 0x4D0 JUMP JUMPDEST PUSH0 PUSH1 0x40 MLOAD DUP1 DUP4 SUB DUP2 DUP6 DUP8 GAS CALL SWAP3 POP POP POP RETURNDATASIZE DUP1 PUSH0 DUP2 EQ PUSH2 0x306 JUMPI PUSH1 0x40 MLOAD SWAP2 POP PUSH1 0x1F NOT PUSH1 0x3F RETURNDATASIZE ADD AND DUP3 ADD PUSH1 0x40 MSTORE RETURNDATASIZE DUP3 MSTORE RETURNDATASIZE PUSH0 PUSH1 0x20 DUP5 ADD RETURNDATACOPY PUSH2 0x30B JUMP JUMPDEST PUSH1 0x60 SWAP2 POP JUMPDEST POP POP SWAP1 POP DUP1 PUSH0 PUSH1 0x14 PUSH2 0x100 EXP DUP2 SLOAD DUP2 PUSH1 0xFF MUL NOT AND SWAP1 DUP4 ISZERO ISZERO MUL OR SWAP1 SSTORE POP POP JUMP JUMPDEST PUSH0 PUSH0 SWAP1 SLOAD SWAP1 PUSH2 0x100 EXP SWAP1 DIV PUSH20 0xFFFFFFFFFFFFFFFFFFFFFFFFFFFFFFFFFFFFFFFF AND DUP2 JUMP JUMPDEST PUSH0 PUSH0 PUSH0 SWAP1 SLOAD SWAP1 PUSH2 0x100 EXP SWAP1 DIV PUSH20 0xFFFFFFFFFFFFFFFFFFFFFFFFFFFFFFFFFFFFFFFF AND PUSH20 0xFFFFFFFFFFFFFFFFFFFFFFFFFFFFFFFFFFFFFFFF AND CALLVALUE PUSH1 0x40 MLOAD PUSH2 0x394 SWAP1 PUSH2 0x509 JUMP JUMPDEST PUSH0 PUSH1 0x40 MLOAD DUP1 DUP4 SUB DUP2 DUP6 DUP8 GAS CALL SWAP3 POP POP POP RETURNDATASIZE DUP1 PUSH0 DUP2 EQ PUSH2 0x3CE JUMPI PUSH1 0x40 MLOAD SWAP2 POP PUSH1 0x1F NOT PUSH1 0x3F RETURNDATASIZE ADD AND DUP3 ADD PUSH1 0x40 MSTORE RETURNDATASIZE DUP3 MSTORE RETURNDATASIZE PUSH0 PUSH1 0x20 DUP5 ADD RETURNDATACOPY PUSH2 0x3D3 JUMP JUMPDEST PUSH1 0x60 SWAP2 POP JUMPDEST POP POP SWAP1 POP DUP1 PUSH0 PUSH1 0x14 PUSH2 0x100 EXP DUP2 SLOAD DUP2 PUSH1 0xFF MUL NOT AND SWAP1 DUP4 ISZERO ISZERO MUL OR SWAP1 SSTORE POP POP JUMP JUMPDEST PUSH0 DUP2 ISZERO ISZERO SWAP1 POP SWAP2 SWAP1 POP JUMP JUMPDEST PUSH2 0x407 DUP2 PUSH2 0x3F3 JUMP JUMPDEST DUP3 MSTORE POP POP JUMP JUMPDEST PUSH0 PUSH1 0x20 DUP3 ADD SWAP1 POP PUSH2 0x420 PUSH0 DUP4 ADD DUP5 PUSH2 0x3FE JUMP JUMPDEST SWAP3 SWAP2 POP POP JUMP JUMPDEST PUSH0 PUSH20 0xFFFFFFFFFFFFFFFFFFFFFFFFFFFFFFFFFFFFFFFF DUP3 AND SWAP1 POP SWAP2 SWAP1 POP JUMP JUMPDEST PUSH0 PUSH2 0x44F DUP3 PUSH2 0x426 JUMP JUMPDEST SWAP1 POP SWAP2 SWAP1 POP JUMP JUMPDEST PUSH2 0x45F DUP2 PUSH2 0x445 JUMP JUMPDEST DUP3 MSTORE POP POP JUMP JUMPDEST PUSH0 PUSH1 0x20 DUP3 ADD SWAP1 POP PUSH2 0x478 PUSH0 DUP4 ADD DUP5 PUSH2 0x456 JUMP JUMPDEST SWAP3 SWAP2 POP POP JUMP JUMPDEST PUSH0 DUP2 MLOAD SWAP1 POP SWAP2 SWAP1 POP JUMP JUMPDEST PUSH0 DUP2 SWAP1 POP SWAP3 SWAP2 POP POP JUMP JUMPDEST DUP3 DUP2 DUP4 MCOPY PUSH0 DUP4 DUP4 ADD MSTORE POP POP POP JUMP JUMPDEST PUSH0 PUSH2 0x4AA DUP3 PUSH2 0x47E JUMP JUMPDEST PUSH2 0x4B4 DUP2 DUP6 PUSH2 0x488 JUMP JUMPDEST SWAP4 POP PUSH2 0x4C4 DUP2 DUP6 PUSH1 0x20 DUP7 ADD PUSH2 0x492 JUMP JUMPDEST DUP1 DUP5 ADD SWAP2 POP POP SWAP3 SWAP2 POP POP JUMP JUMPDEST PUSH0 PUSH2 0x4DB DUP3 DUP5 PUSH2 0x4A0 JUMP JUMPDEST SWAP2 POP DUP2 SWAP1 POP SWAP3 SWAP2 POP POP JUMP JUMPDEST POP JUMP JUMPDEST PUSH0 PUSH2 0x4F4 PUSH0 DUP4 PUSH2 0x488 JUMP JUMPDEST SWAP2 POP PUSH2 0x4FF DUP3 PUSH2 0x4E6 JUMP JUMPDEST PUSH0 DUP3 ADD SWAP1 POP SWAP2 SWAP1 POP JUMP JUMPDEST PUSH0 PUSH2 0x513 DUP3 PUSH2 0x4E9 JUMP JUMPDEST SWAP2 POP DUP2 SWAP1 POP SWAP2 SWAP1 POP JUMP INVALID LOG2 PUSH5 0x6970667358 0x22 SLT KECCAK256 0xBE DATALOADN 0xD63A DUP15 TSTORE SWAP12 PUSH23 0x684AF9D0924B2BF35465398DE19A8EF04FE80866E8812A PUSH11 0x64736F6C63430008220033 "
				},
				"gasEstimates": {
					"creation": {
						"codeDepositCost": "272600",
						"executionCost": "infinite",
						"totalCost": "infinite"
					},
					"external": {
						"lastSuccess()": "2516",
						"target()": "2551",
						"triggerFallback()": "infinite",
						"triggerFallbackWithETH()": "infinite",
						"triggerReceive()": "infinite"
					}
				},
				"methodIdentifiers": {
					"lastSuccess()": "9415bc59",
					"target()": "d4b83992",
					"triggerFallback()": "2acda0c8",
					"triggerFallbackWithETH()": "d1553806",
					"triggerReceive()": "e70aa5bb"
				}
			},
			"storageLayout": {
				"storage": [
					{
						"astId": 37,
						"contract": "val54.sol:FallbackCallerval",
						"label": "target",
						"offset": 0,
						"slot": "0",
						"type": "t_address"
					},
					{
						"astId": 39,
						"contract": "val54.sol:FallbackCallerval",
						"label": "lastSuccess",
						"offset": 20,
						"slot": "0",
						"type": "t_bool"
					}
				],
				"types": {
					"t_address": {
						"encoding": "inplace",
						"label": "address",
						"numberOfBytes": "20"
					},
					"t_bool": {
						"encoding": "inplace",
						"label": "bool",
						"numberOfBytes": "1"
					}
				}
			},
			"userdoc": {
				"kind": "user",
				"methods": {},
				"version": 1
			}
		}
	}
}