{
	"val54.sol": {
		"TargetContract": {
			"abi": [
				{
					"anonymous": false,
					"inputs": [
						{
							"indexed": true,
							"internalType": "address",
							"name": "caller",
							"type": "address"
						},
						{
							"indexed": false,
							"internalType": "uint256",
							"name": "value",
							"type": "uint256"
						},
						{
							"indexed": false,
							"internalType": "bytes",
							"name": "data",
							"type": "bytes"
						}
					],
					"name": "FallbackTriggered",
					"type": "event"
				},
				{
					"anonymous": false,
					"inputs": [
						{
							"indexed": true,
							"internalType": "address",
							"name": "caller",
							"type": "address"
						},
						{
							"indexed": false,
							"internalType": "uint256",
							"name": "value",
							"type": "uint256"
						}
					],
					"name": "ReceiveTriggered",
					"type": "event"
				},
				{
					"stateMutability": "payable",
					"type": "fallback"
				},
				{
					"inputs": [],
					"name": "fallbackCounter",
					"outputs": [
						{
							"internalType": "uint256",
							"name": "",
							"type": "uint256"
						}
					],
					"stateMutability": "view",
					"type": "function"
				},
				{
					"inputs": [],
					"name": "normalFunction",
					"outputs": [
						{
							"internalType": "string",
							"name": "",
							"type": "string"
						}
					],
					"stateMutability": "pure",
					"type": "function"
				},
				{
					"inputs": [],
					"name": "receivedETH",
					"outputs": [
						{
							"internalType": "uint256",
							"name": "",
							"type": "uint256"
						}
					],
					"stateMutability": "view",
					"type": "function"
				},
				{
					"stateMutability": "payable",
					"type": "receive"
				}
			],
			"devdoc": {
				"kind": "dev",
				"methods": {},
				"version": 1
			},
			"evm": {
				"assembly": "    /* \"val54.sol\":15069:16770  contract TargetContract {... */\n  mstore(0x40, 0x80)\n  callvalue\n  dup1\n  iszero\n  tag_1\n  jumpi\n  revert(0x00, 0x00)\ntag_1:\n  pop\n  dataSize(sub_0)\n  dup1\n  dataOffset(sub_0)\n  0x00\n  codecopy\n  0x00\n  return\nstop\n\nsub_0: assembly {\n        /* \"val54.sol\":15069:16770  contract TargetContract {... */\n      mstore(0x40, 0x80)\n      jumpi(tag_1, lt(calldatasize, 0x04))\n      shr(0xe0, calldataload(0x00))\n      dup1\n      0x820bec9d\n      eq\n      tag_3\n      jumpi\n      dup1\n      0xa170d737\n      eq\n      tag_4\n      jumpi\n      dup1\n      0xd67e4b84\n      eq\n      tag_5\n      jumpi\n      jump(tag_2)\n    tag_1:\n      jumpi(tag_2, calldatasize)\n        /* \"val54.sol\":15527:15533  locked */\n      0x02\n      0x00\n      swap1\n      sload\n      swap1\n      0x0100\n      exp\n      swap1\n      div\n      0xff\n      and\n        /* \"val54.sol\":15526:15533  !locked */\n      iszero\n        /* \"val54.sol\":15518:15560  require(!locked, \"Reentrant call blocked\") */\n      tag_8\n      jumpi\n      mload(0x40)\n      0x08c379a000000000000000000000000000000000000000000000000000000000\n      dup2\n      mstore\n      0x04\n      add\n      tag_9\n      swap1\n      tag_10\n      jump\t// in\n    tag_9:\n      mload(0x40)\n      dup1\n      swap2\n      sub\n      swap1\n      revert\n    tag_8:\n        /* \"val54.sol\":15582:15586  true */\n      0x01\n        /* \"val54.sol\":15573:15579  locked */\n      0x02\n      0x00\n        /* \"val54.sol\":15573:15586  locked = true */\n      0x0100\n      exp\n      dup2\n      sload\n      dup2\n      0xff\n      mul\n      not\n      and\n      swap1\n      dup4\n      iszero\n      iszero\n      mul\n      or\n      swap1\n      sstore\n      pop\n        /* \"val54.sol\":16386:16395  msg.value */\n      callvalue\n        /* \"val54.sol\":16371:16382  receivedETH */\n      0x01\n      0x00\n        /* \"val54.sol\":16371:16395  receivedETH += msg.value */\n      dup3\n      dup3\n      sload\n      tag_12\n      swap2\n      swap1\n      tag_13\n      jump\t// in\n    tag_12:\n      swap3\n      pop\n      pop\n      dup2\n      swap1\n      sstore\n      pop\n        /* \"val54.sol\":16430:16440  msg.sender */\n      caller\n        /* \"val54.sol\":16413:16452  ReceiveTriggered(msg.sender, msg.value) */\n      0xffffffffffffffffffffffffffffffffffffffff\n      and\n      0x5e92f575ab0803f5f74ba09d7a0ef8e5196e51713d917ebfb45113420ebdda62\n        /* \"val54.sol\":16442:16451  msg.value */\n      callvalue\n        /* \"val54.sol\":16413:16452  ReceiveTriggered(msg.sender, msg.value) */\n      mload(0x40)\n      tag_14\n      swap2\n      swap1\n      tag_15\n      jump\t// in\n    tag_14:\n      mload(0x40)\n      dup1\n      swap2\n      sub\n      swap1\n      log2\n        /* \"val54.sol\":15611:15616  false */\n      0x00\n        /* \"val54.sol\":15602:15608  locked */\n      0x02\n      0x00\n        /* \"val54.sol\":15602:15616  locked = false */\n      0x0100\n      exp\n      dup2\n      sload\n      dup2\n      0xff\n      mul\n      not\n      and\n      swap1\n      dup4\n      iszero\n      iszero\n      mul\n      or\n      swap1\n      sstore\n      stop\n        /* \"val54.sol\":15069:16770  contract TargetContract {... */\n    tag_2:\n        /* \"val54.sol\":15527:15533  locked */\n      0x02\n      0x00\n      swap1\n      sload\n      swap1\n      0x0100\n      exp\n      swap1\n      div\n      0xff\n      and\n        /* \"val54.sol\":15526:15533  !locked */\n      iszero\n        /* \"val54.sol\":15518:15560  require(!locked, \"Reentrant call blocked\") */\n      tag_18\n      jumpi\n      mload(0x40)\n      0x08c379a000000000000000000000000000000000000000000000000000000000\n      dup2\n      mstore\n      0x04\n      add\n      tag_19\n      swap1\n      tag_10\n      jump\t// in\n    tag_19:\n      mload(0x40)\n      dup1\n      swap2\n      sub\n      swap1\n      revert\n    tag_18:\n        /* \"val54.sol\":15582:15586  true */\n      0x01\n        /* \"val54.sol\":15573:15579  locked */\n      0x02\n      0x00\n        /* \"val54.sol\":15573:15586  locked = true */\n      0x0100\n      exp\n      dup2\n      sload\n      dup2\n      0xff\n      mul\n      not\n      and\n      swap1\n      dup4\n      iszero\n      iszero\n      mul\n      or\n      swap1\n      sstore\n      pop\n        /* \"val54.sol\":15933:15948  fallbackCounter */\n      0x00\n      0x00\n        /* \"val54.sol\":15933:15950  fallbackCounter++ */\n      dup2\n      sload\n      dup1\n      swap3\n      swap2\n      swap1\n      tag_21\n      swap1\n      tag_22\n      jump\t// in\n    tag_21:\n      swap2\n      swap1\n      pop\n      sstore\n      pop\n        /* \"val54.sol\":16035:16044  msg.value */\n      callvalue\n        /* \"val54.sol\":16020:16031  receivedETH */\n      0x01\n      0x00\n        /* \"val54.sol\":16020:16044  receivedETH += msg.value */\n      dup3\n      dup3\n      sload\n      tag_23\n      swap2\n      swap1\n      tag_13\n      jump\t// in\n    tag_23:\n      swap3\n      pop\n      pop\n      dup2\n      swap1\n      sstore\n      pop\n        /* \"val54.sol\":16080:16090  msg.sender */\n      caller\n        /* \"val54.sol\":16062:16112  FallbackTriggered(msg.sender, msg.value, msg.data) */\n      0xffffffffffffffffffffffffffffffffffffffff\n      and\n      0x390f97e4a5ab8058ca67d5e2db9310ca12d1e29c64f7eb23dc5f12f1c31e9058\n        /* \"val54.sol\":16092:16101  msg.value */\n      callvalue\n        /* \"val54.sol\":16103:16111  msg.data */\n      0x00\n      calldatasize\n        /* \"val54.sol\":16062:16112  FallbackTriggered(msg.sender, msg.value, msg.data) */\n      mload(0x40)\n      tag_24\n      swap4\n      swap3\n      swap2\n      swap1\n      tag_25\n      jump\t// in\n    tag_24:\n      mload(0x40)\n      dup1\n      swap2\n      sub\n      swap1\n      log2\n        /* \"val54.sol\":15611:15616  false */\n      0x00\n        /* \"val54.sol\":15602:15608  locked */\n      0x02\n      0x00\n        /* \"val54.sol\":15602:15616  locked = false */\n      0x0100\n      exp\n      dup2\n      sload\n      dup2\n      0xff\n      mul\n      not\n      and\n      swap1\n      dup4\n      iszero\n      iszero\n      mul\n      or\n      swap1\n      sstore\n      stop\n        /* \"val54.sol\":15191:15217  uint256 public receivedETH */\n    tag_3:\n      callvalue\n      dup1\n      iszero\n      tag_26\n      jumpi\n      revert(0x00, 0x00)\n    tag_26:\n      pop\n      tag_27\n      tag_28\n      jump\t// in\n    tag_27:\n      mload(0x40)\n      tag_29\n      swap2\n      swap1\n      tag_15\n      jump\t// in\n    tag_29:\n      mload(0x40)\n      dup1\n      swap2\n      sub\n      swap1\n      return\n        /* \"val54.sol\":15152:15182  uint256 public fallbackCounter */\n    tag_4:\n      callvalue\n      dup1\n      iszero\n      tag_30\n      jumpi\n      revert(0x00, 0x00)\n    tag_30:\n      pop\n      tag_31\n      tag_32\n      jump\t// in\n    tag_31:\n      mload(0x40)\n      tag_33\n      swap2\n      swap1\n      tag_15\n      jump\t// in\n    tag_33:\n      mload(0x40)\n      dup1\n      swap2\n      sub\n      swap1\n      return\n        /* \"val54.sol\":16625:16767  function normalFunction()... */\n    tag_5:\n      callvalue\n      dup1\n      iszero\n      tag_34\n      jumpi\n      revert(0x00, 0x00)\n    tag_34:\n      pop\n      tag_35\n      tag_36\n      jump\t// in\n    tag_35:\n      mload(0x40)\n      tag_37\n      swap2\n      swap1\n      tag_38\n      jump\t// in\n    tag_37:\n      mload(0x40)\n      dup1\n      swap2\n      sub\n      swap1\n      return\n        /* \"val54.sol\":15191:15217  uint256 public receivedETH */\n    tag_28:\n      sload(0x01)\n      dup2\n      jump\t// out\n        /* \"val54.sol\":15152:15182  uint256 public fallbackCounter */\n    tag_32:\n      sload(0x00)\n      dup2\n      jump\t// out\n        /* \"val54.sol\":16625:16767  function normalFunction()... */\n    tag_36:\n        /* \"val54.sol\":16701:16714  string memory */\n      0x60\n        /* \"val54.sol\":16734:16759  return \"Normal execution\" */\n      mload(0x40)\n      dup1\n      0x40\n      add\n      0x40\n      mstore\n      dup1\n      0x10\n      dup2\n      mstore\n      0x20\n      add\n      0x4e6f726d616c20657865637574696f6e00000000000000000000000000000000\n      dup2\n      mstore\n      pop\n      swap1\n      pop\n        /* \"val54.sol\":16625:16767  function normalFunction()... */\n      swap1\n      jump\t// out\n        /* \"#utility.yul\":7:176   */\n    tag_40:\n        /* \"#utility.yul\":91:102   */\n      0x00\n        /* \"#utility.yul\":125:131   */\n      dup3\n        /* \"#utility.yul\":120:123   */\n      dup3\n        /* \"#utility.yul\":113:132   */\n      mstore\n        /* \"#utility.yul\":165:169   */\n      0x20\n        /* \"#utility.yul\":160:163   */\n      dup3\n        /* \"#utility.yul\":156:170   */\n      add\n        /* \"#utility.yul\":141:170   */\n      swap1\n      pop\n        /* \"#utility.yul\":7:176   */\n      swap3\n      swap2\n      pop\n      pop\n      jump\t// out\n        /* \"#utility.yul\":182:354   */\n    tag_41:\n        /* \"#utility.yul\":322:346   */\n      0x5265656e7472616e742063616c6c20626c6f636b656400000000000000000000\n        /* \"#utility.yul\":318:319   */\n      0x00\n        /* \"#utility.yul\":310:316   */\n      dup3\n        /* \"#utility.yul\":306:320   */\n      add\n        /* \"#utility.yul\":299:347   */\n      mstore\n        /* \"#utility.yul\":182:354   */\n      pop\n      jump\t// out\n        /* \"#utility.yul\":360:726   */\n    tag_42:\n        /* \"#utility.yul\":502:505   */\n      0x00\n        /* \"#utility.yul\":523:590   */\n      tag_57\n        /* \"#utility.yul\":587:589   */\n      0x16\n        /* \"#utility.yul\":582:585   */\n      dup4\n        /* \"#utility.yul\":523:590   */\n      tag_40\n      jump\t// in\n    tag_57:\n        /* \"#utility.yul\":516:590   */\n      swap2\n      pop\n        /* \"#utility.yul\":599:692   */\n      tag_58\n        /* \"#utility.yul\":688:691   */\n      dup3\n        /* \"#utility.yul\":599:692   */\n      tag_41\n      jump\t// in\n    tag_58:\n        /* \"#utility.yul\":717:719   */\n      0x20\n        /* \"#utility.yul\":712:715   */\n      dup3\n        /* \"#utility.yul\":708:720   */\n      add\n        /* \"#utility.yul\":701:720   */\n      swap1\n      pop\n        /* \"#utility.yul\":360:726   */\n      swap2\n      swap1\n      pop\n      jump\t// out\n        /* \"#utility.yul\":732:1151   */\n    tag_10:\n        /* \"#utility.yul\":898:902   */\n      0x00\n        /* \"#utility.yul\":936:938   */\n      0x20\n        /* \"#utility.yul\":925:934   */\n      dup3\n        /* \"#utility.yul\":921:939   */\n      add\n        /* \"#utility.yul\":913:939   */\n      swap1\n      pop\n        /* \"#utility.yul\":985:994   */\n      dup2\n        /* \"#utility.yul\":979:983   */\n      dup2\n        /* \"#utility.yul\":975:995   */\n      sub\n        /* \"#utility.yul\":971:972   */\n      0x00\n        /* \"#utility.yul\":960:969   */\n      dup4\n        /* \"#utility.yul\":956:973   */\n      add\n        /* \"#utility.yul\":949:996   */\n      mstore\n        /* \"#utility.yul\":1013:1144   */\n      tag_60\n        /* \"#utility.yul\":1139:1143   */\n      dup2\n        /* \"#utility.yul\":1013:1144   */\n      tag_42\n      jump\t// in\n    tag_60:\n        /* \"#utility.yul\":1005:1144   */\n      swap1\n      pop\n        /* \"#utility.yul\":732:1151   */\n      swap2\n      swap1\n      pop\n      jump\t// out\n        /* \"#utility.yul\":1157:1234   */\n    tag_43:\n        /* \"#utility.yul\":1194:1201   */\n      0x00\n        /* \"#utility.yul\":1223:1228   */\n      dup2\n        /* \"#utility.yul\":1212:1228   */\n      swap1\n      pop\n        /* \"#utility.yul\":1157:1234   */\n      swap2\n      swap1\n      pop\n      jump\t// out\n        /* \"#utility.yul\":1240:1420   */\n    tag_44:\n        /* \"#utility.yul\":1288:1365   */\n      0x4e487b7100000000000000000000000000000000000000000000000000000000\n        /* \"#utility.yul\":1285:1286   */\n      0x00\n        /* \"#utility.yul\":1278:1366   */\n      mstore\n        /* \"#utility.yul\":1385:1389   */\n      0x11\n        /* \"#utility.yul\":1382:1383   */\n      0x04\n        /* \"#utility.yul\":1375:1390   */\n      mstore\n        /* \"#utility.yul\":1409:1413   */\n      0x24\n        /* \"#utility.yul\":1406:1407   */\n      0x00\n        /* \"#utility.yul\":1399:1414   */\n      revert\n        /* \"#utility.yul\":1426:1617   */\n    tag_13:\n        /* \"#utility.yul\":1466:1469   */\n      0x00\n        /* \"#utility.yul\":1485:1505   */\n      tag_64\n        /* \"#utility.yul\":1503:1504   */\n      dup3\n        /* \"#utility.yul\":1485:1505   */\n      tag_43\n      jump\t// in\n    tag_64:\n        /* \"#utility.yul\":1480:1505   */\n      swap2\n      pop\n        /* \"#utility.yul\":1519:1539   */\n      tag_65\n        /* \"#utility.yul\":1537:1538   */\n      dup4\n        /* \"#utility.yul\":1519:1539   */\n      tag_43\n      jump\t// in\n    tag_65:\n        /* \"#utility.yul\":1514:1539   */\n      swap3\n      pop\n        /* \"#utility.yul\":1562:1563   */\n      dup3\n        /* \"#utility.yul\":1559:1560   */\n      dup3\n        /* \"#utility.yul\":1555:1564   */\n      add\n        /* \"#utility.yul\":1548:1564   */\n      swap1\n      pop\n        /* \"#utility.yul\":1583:1586   */\n      dup1\n        /* \"#utility.yul\":1580:1581   */\n      dup3\n        /* \"#utility.yul\":1577:1587   */\n      gt\n        /* \"#utility.yul\":1574:1610   */\n      iszero\n      tag_66\n      jumpi\n        /* \"#utility.yul\":1590:1608   */\n      tag_67\n      tag_44\n      jump\t// in\n    tag_67:\n        /* \"#utility.yul\":1574:1610   */\n    tag_66:\n        /* \"#utility.yul\":1426:1617   */\n      swap3\n      swap2\n      pop\n      pop\n      jump\t// out\n        /* \"#utility.yul\":1623:1741   */\n    tag_45:\n        /* \"#utility.yul\":1710:1734   */\n      tag_69\n        /* \"#utility.yul\":1728:1733   */\n      dup2\n        /* \"#utility.yul\":1710:1734   */\n      tag_43\n      jump\t// in\n    tag_69:\n        /* \"#utility.yul\":1705:1708   */\n      dup3\n        /* \"#utility.yul\":1698:1735   */\n      mstore\n        /* \"#utility.yul\":1623:1741   */\n      pop\n      pop\n      jump\t// out\n        /* \"#utility.yul\":1747:1969   */\n    tag_15:\n        /* \"#utility.yul\":1840:1844   */\n      0x00\n        /* \"#utility.yul\":1878:1880   */\n      0x20\n        /* \"#utility.yul\":1867:1876   */\n      dup3\n        /* \"#utility.yul\":1863:1881   */\n      add\n        /* \"#utility.yul\":1855:1881   */\n      swap1\n      pop\n        /* \"#utility.yul\":1891:1962   */\n      tag_71\n        /* \"#utility.yul\":1959:1960   */\n      0x00\n        /* \"#utility.yul\":1948:1957   */\n      dup4\n        /* \"#utility.yul\":1944:1961   */\n      add\n        /* \"#utility.yul\":1935:1941   */\n      dup5\n        /* \"#utility.yul\":1891:1962   */\n      tag_45\n      jump\t// in\n    tag_71:\n        /* \"#utility.yul\":1747:1969   */\n      swap3\n      swap2\n      pop\n      pop\n      jump\t// out\n        /* \"#utility.yul\":1975:2208   */\n    tag_22:\n        /* \"#utility.yul\":2014:2017   */\n      0x00\n        /* \"#utility.yul\":2037:2061   */\n      tag_73\n        /* \"#utility.yul\":2055:2060   */\n      dup3\n        /* \"#utility.yul\":2037:2061   */\n      tag_43\n      jump\t// in\n    tag_73:\n        /* \"#utility.yul\":2028:2061   */\n      swap2\n      pop\n        /* \"#utility.yul\":2083:2149   */\n      0xffffffffffffffffffffffffffffffffffffffffffffffffffffffffffffffff\n        /* \"#utility.yul\":2076:2081   */\n      dup3\n        /* \"#utility.yul\":2073:2150   */\n      sub\n        /* \"#utility.yul\":2070:2173   */\n      tag_74\n      jumpi\n        /* \"#utility.yul\":2153:2171   */\n      tag_75\n      tag_44\n      jump\t// in\n    tag_75:\n        /* \"#utility.yul\":2070:2173   */\n    tag_74:\n        /* \"#utility.yul\":2200:2201   */\n      0x01\n        /* \"#utility.yul\":2193:2198   */\n      dup3\n        /* \"#utility.yul\":2189:2202   */\n      add\n        /* \"#utility.yul\":2182:2202   */\n      swap1\n      pop\n        /* \"#utility.yul\":1975:2208   */\n      swap2\n      swap1\n      pop\n      jump\t// out\n        /* \"#utility.yul\":2214:2382   */\n    tag_46:\n        /* \"#utility.yul\":2297:2308   */\n      0x00\n        /* \"#utility.yul\":2331:2337   */\n      dup3\n        /* \"#utility.yul\":2326:2329   */\n      dup3\n        /* \"#utility.yul\":2319:2338   */\n      mstore\n        /* \"#utility.yul\":2371:2375   */\n      0x20\n        /* \"#utility.yul\":2366:2369   */\n      dup3\n        /* \"#utility.yul\":2362:2376   */\n      add\n        /* \"#utility.yul\":2347:2376   */\n      swap1\n      pop\n        /* \"#utility.yul\":2214:2382   */\n      swap3\n      swap2\n      pop\n      pop\n      jump\t// out\n        /* \"#utility.yul\":2388:2536   */\n    tag_47:\n        /* \"#utility.yul\":2486:2492   */\n      dup3\n        /* \"#utility.yul\":2481:2484   */\n      dup2\n        /* \"#utility.yul\":2476:2479   */\n      dup4\n        /* \"#utility.yul\":2463:2493   */\n      calldatacopy\n        /* \"#utility.yul\":2527:2528   */\n      0x00\n        /* \"#utility.yul\":2518:2524   */\n      dup4\n        /* \"#utility.yul\":2513:2516   */\n      dup4\n        /* \"#utility.yul\":2509:2525   */\n      add\n        /* \"#utility.yul\":2502:2529   */\n      mstore\n        /* \"#utility.yul\":2388:2536   */\n      pop\n      pop\n      pop\n      jump\t// out\n        /* \"#utility.yul\":2542:2644   */\n    tag_48:\n        /* \"#utility.yul\":2583:2589   */\n      0x00\n        /* \"#utility.yul\":2634:2636   */\n      0x1f\n        /* \"#utility.yul\":2630:2637   */\n      not\n        /* \"#utility.yul\":2625:2627   */\n      0x1f\n        /* \"#utility.yul\":2618:2623   */\n      dup4\n        /* \"#utility.yul\":2614:2628   */\n      add\n        /* \"#utility.yul\":2610:2638   */\n      and\n        /* \"#utility.yul\":2600:2638   */\n      swap1\n      pop\n        /* \"#utility.yul\":2542:2644   */\n      swap2\n      swap1\n      pop\n      jump\t// out\n        /* \"#utility.yul\":2672:2986   */\n    tag_49:\n        /* \"#utility.yul\":2768:2771   */\n      0x00\n        /* \"#utility.yul\":2789:2859   */\n      tag_80\n        /* \"#utility.yul\":2852:2858   */\n      dup4\n        /* \"#utility.yul\":2847:2850   */\n      dup6\n        /* \"#utility.yul\":2789:2859   */\n      tag_46\n      jump\t// in\n    tag_80:\n        /* \"#utility.yul\":2782:2859   */\n      swap4\n      pop\n        /* \"#utility.yul\":2869:2925   */\n      tag_81\n        /* \"#utility.yul\":2918:2924   */\n      dup4\n        /* \"#utility.yul\":2913:2916   */\n      dup6\n        /* \"#utility.yul\":2906:2911   */\n      dup5\n        /* \"#utility.yul\":2869:2925   */\n      tag_47\n      jump\t// in\n    tag_81:\n        /* \"#utility.yul\":2950:2979   */\n      tag_82\n        /* \"#utility.yul\":2972:2978   */\n      dup4\n        /* \"#utility.yul\":2950:2979   */\n      tag_48\n      jump\t// in\n    tag_82:\n        /* \"#utility.yul\":2945:2948   */\n      dup5\n        /* \"#utility.yul\":2941:2980   */\n      add\n        /* \"#utility.yul\":2934:2980   */\n      swap1\n      pop\n        /* \"#utility.yul\":2672:2986   */\n      swap4\n      swap3\n      pop\n      pop\n      pop\n      jump\t// out\n        /* \"#utility.yul\":2992:3431   */\n    tag_25:\n        /* \"#utility.yul\":3141:3145   */\n      0x00\n        /* \"#utility.yul\":3179:3181   */\n      0x40\n        /* \"#utility.yul\":3168:3177   */\n      dup3\n        /* \"#utility.yul\":3164:3182   */\n      add\n        /* \"#utility.yul\":3156:3182   */\n      swap1\n      pop\n        /* \"#utility.yul\":3192:3263   */\n      tag_84\n        /* \"#utility.yul\":3260:3261   */\n      0x00\n        /* \"#utility.yul\":3249:3258   */\n      dup4\n        /* \"#utility.yul\":3245:3262   */\n      add\n        /* \"#utility.yul\":3236:3242   */\n      dup7\n        /* \"#utility.yul\":3192:3263   */\n      tag_45\n      jump\t// in\n    tag_84:\n        /* \"#utility.yul\":3310:3319   */\n      dup2\n        /* \"#utility.yul\":3304:3308   */\n      dup2\n        /* \"#utility.yul\":3300:3320   */\n      sub\n        /* \"#utility.yul\":3295:3297   */\n      0x20\n        /* \"#utility.yul\":3284:3293   */\n      dup4\n        /* \"#utility.yul\":3280:3298   */\n      add\n        /* \"#utility.yul\":3273:3321   */\n      mstore\n        /* \"#utility.yul\":3338:3424   */\n      tag_85\n        /* \"#utility.yul\":3419:3423   */\n      dup2\n        /* \"#utility.yul\":3410:3416   */\n      dup5\n        /* \"#utility.yul\":3402:3408   */\n      dup7\n        /* \"#utility.yul\":3338:3424   */\n      tag_49\n      jump\t// in\n    tag_85:\n        /* \"#utility.yul\":3330:3424   */\n      swap1\n      pop\n        /* \"#utility.yul\":2992:3431   */\n      swap5\n      swap4\n      pop\n      pop\n      pop\n      pop\n      jump\t// out\n        /* \"#utility.yul\":3437:3536   */\n    tag_50:\n        /* \"#utility.yul\":3489:3495   */\n      0x00\n        /* \"#utility.yul\":3523:3528   */\n      dup2\n        /* \"#utility.yul\":3517:3529   */\n      mload\n        /* \"#utility.yul\":3507:3529   */\n      swap1\n      pop\n        /* \"#utility.yul\":3437:3536   */\n      swap2\n      swap1\n      pop\n      jump\t// out\n        /* \"#utility.yul\":3542:3681   */\n    tag_51:\n        /* \"#utility.yul\":3631:3637   */\n      dup3\n        /* \"#utility.yul\":3626:3629   */\n      dup2\n        /* \"#utility.yul\":3621:3624   */\n      dup4\n        /* \"#utility.yul\":3615:3638   */\n      mcopy\n        /* \"#utility.yul\":3672:3673   */\n      0x00\n        /* \"#utility.yul\":3663:3669   */\n      dup4\n        /* \"#utility.yul\":3658:3661   */\n      dup4\n        /* \"#utility.yul\":3654:3670   */\n      add\n        /* \"#utility.yul\":3647:3674   */\n      mstore\n        /* \"#utility.yul\":3542:3681   */\n      pop\n      pop\n      pop\n      jump\t// out\n        /* \"#utility.yul\":3687:4064   */\n    tag_52:\n        /* \"#utility.yul\":3775:3778   */\n      0x00\n        /* \"#utility.yul\":3803:3842   */\n      tag_89\n        /* \"#utility.yul\":3836:3841   */\n      dup3\n        /* \"#utility.yul\":3803:3842   */\n      tag_50\n      jump\t// in\n    tag_89:\n        /* \"#utility.yul\":3858:3929   */\n      tag_90\n        /* \"#utility.yul\":3922:3928   */\n      dup2\n        /* \"#utility.yul\":3917:3920   */\n      dup6\n        /* \"#utility.yul\":3858:3929   */\n      tag_40\n      jump\t// in\n    tag_90:\n        /* \"#utility.yul\":3851:3929   */\n      swap4\n      pop\n        /* \"#utility.yul\":3938:4003   */\n      tag_91\n        /* \"#utility.yul\":3996:4002   */\n      dup2\n        /* \"#utility.yul\":3991:3994   */\n      dup6\n        /* \"#utility.yul\":3984:3988   */\n      0x20\n        /* \"#utility.yul\":3977:3982   */\n      dup7\n        /* \"#utility.yul\":3973:3989   */\n      add\n        /* \"#utility.yul\":3938:4003   */\n      tag_51\n      jump\t// in\n    tag_91:\n        /* \"#utility.yul\":4028:4057   */\n      tag_92\n        /* \"#utility.yul\":4050:4056   */\n      dup2\n        /* \"#utility.yul\":4028:4057   */\n      tag_48\n      jump\t// in\n    tag_92:\n        /* \"#utility.yul\":4023:4026   */\n      dup5\n        /* \"#utility.yul\":4019:4058   */\n      add\n        /* \"#utility.yul\":4012:4058   */\n      swap2\n      pop\n        /* \"#utility.yul\":3779:4064   */\n      pop\n        /* \"#utility.yul\":3687:4064   */\n      swap3\n      swap2\n      pop\n      pop\n      jump\t// out\n        /* \"#utility.yul\":4070:4383   */\n    tag_38:\n        /* \"#utility.yul\":4183:4187   */\n      0x00\n        /* \"#utility.yul\":4221:4223   */\n      0x20\n        /* \"#utility.yul\":4210:4219   */\n      dup3\n        /* \"#utility.yul\":4206:4224   */\n      add\n        /* \"#utility.yul\":4198:4224   */\n      swap1\n      pop\n        /* \"#utility.yul\":4270:4279   */\n      dup2\n        /* \"#utility.yul\":4264:4268   */\n      dup2\n        /* \"#utility.yul\":4260:4280   */\n      sub\n        /* \"#utility.yul\":4256:4257   */\n      0x00\n        /* \"#utility.yul\":4245:4254   */\n      dup4\n        /* \"#utility.yul\":4241:4258   */\n      add\n        /* \"#utility.yul\":4234:4281   */\n      mstore\n        /* \"#utility.yul\":4298:4376   */\n      tag_94\n        /* \"#utility.yul\":4371:4375   */\n      dup2\n        /* \"#utility.yul\":4362:4368   */\n      dup5\n        /* \"#utility.yul\":4298:4376   */\n      tag_52\n      jump\t// in\n    tag_94:\n        /* \"#utility.yul\":4290:4376   */\n      swap1\n      pop\n        /* \"#utility.yul\":4070:4383   */\n      swap3\n      swap2\n      pop\n      pop\n      jump\t// out\n\n    auxdata: 0xa264697066735822122058ccbf8205b413dd97bc4a19be9843f1f38275162febf3c8302080f9da2ecbde64736f6c63430008220033\n}\n",
				"bytecode": {
					"linkReferences": {},
					"object": "6080604052348015600e575f5ffd5b5061056e8061001c5f395ff3fe608060405260043610610037575f3560e01c8063820bec9d14610228578063a170d73714610252578063d67e4b841461027c57610125565b366101255760025f9054906101000a900460ff161561008b576040517f08c379a000000000000000000000000000000000000000000000000000000000815260040161008290610348565b60405180910390fd5b600160025f6101000a81548160ff0219169083151502179055503460015f8282546100b6919061039c565b925050819055503373ffffffffffffffffffffffffffffffffffffffff167f5e92f575ab0803f5f74ba09d7a0ef8e5196e51713d917ebfb45113420ebdda623460405161010391906103de565b60405180910390a25f60025f6101000a81548160ff0219169083151502179055005b60025f9054906101000a900460ff1615610174576040517f08c379a000000000000000000000000000000000000000000000000000000000815260040161016b90610348565b60405180910390fd5b600160025f6101000a81548160ff0219169083151502179055505f5f81548092919061019f906103f7565b91905055503460015f8282546101b5919061039c565b925050819055503373ffffffffffffffffffffffffffffffffffffffff167f390f97e4a5ab8058ca67d5e2db9310ca12d1e29c64f7eb23dc5f12f1c31e9058345f3660405161020693929190610498565b60405180910390a25f60025f6101000a81548160ff0219169083151502179055005b348015610233575f5ffd5b5061023c6102a6565b60405161024991906103de565b60405180910390f35b34801561025d575f5ffd5b506102666102ac565b60405161027391906103de565b60405180910390f35b348015610287575f5ffd5b506102906102b1565b60405161029d9190610518565b60405180910390f35b60015481565b5f5481565b60606040518060400160405280601081526020017f4e6f726d616c20657865637574696f6e00000000000000000000000000000000815250905090565b5f82825260208201905092915050565b7f5265656e7472616e742063616c6c20626c6f636b6564000000000000000000005f82015250565b5f6103326016836102ee565b915061033d826102fe565b602082019050919050565b5f6020820190508181035f83015261035f81610326565b9050919050565b5f819050919050565b7f4e487b71000000000000000000000000000000000000000000000000000000005f52601160045260245ffd5b5f6103a682610366565b91506103b183610366565b92508282019050808211156103c9576103c861036f565b5b92915050565b6103d881610366565b82525050565b5f6020820190506103f15f8301846103cf565b92915050565b5f61040182610366565b91507fffffffffffffffffffffffffffffffffffffffffffffffffffffffffffffffff82036104335761043261036f565b5b600182019050919050565b5f82825260208201905092915050565b828183375f83830152505050565b5f601f19601f8301169050919050565b5f610477838561043e565b935061048483858461044e565b61048d8361045c565b840190509392505050565b5f6040820190506104ab5f8301866103cf565b81810360208301526104be81848661046c565b9050949350505050565b5f81519050919050565b8281835e5f83830152505050565b5f6104ea826104c8565b6104f481856102ee565b93506105048185602086016104d2565b61050d8161045c565b840191505092915050565b5f6020820190508181035f83015261053081846104e0565b90509291505056fea264697066735822122058ccbf8205b413dd97bc4a19be9843f1f38275162febf3c8302080f9da2ecbde64736f6c63430008220033",
					"opcodes": "PUSH1 0x80 PUSH1 0x40 MSTORE CALLVALUE DUP1 ISZERO PUSH1 0xE JUMPI PUSH0 PUSH0 REVERT JUMPDEST POP PUSH2 0x56E DUP1 PUSH2 0x1C PUSH0 CODECOPY PUSH0 RETURN INVALID PUSH1 0x80 PUSH1 0x40 MSTORE PUSH1 0x4 CALLDATASIZE LT PUSH2 0x37 JUMPI PUSH0 CALLDATALOAD PUSH1 0xE0 SHR DUP1 PUSH4 0x820BEC9D EQ PUSH2 0x228 JUMPI DUP1 PUSH4 0xA170D737 EQ PUSH2 0x252 JUMPI DUP1 PUSH4 0xD67E4B84 EQ PUSH2 0x27C JUMPI PUSH2 0x125 JUMP JUMPDEST CALLDATASIZE PUSH2 0x125 JUMPI PUSH1 0x2 PUSH0 SWAP1 SLOAD SWAP1 PUSH2 0x100 EXP SWAP1 DIV PUSH1 0xFF AND ISZERO PUSH2 0x8B JUMPI PUSH1 0x40 MLOAD PUSH32 0x8C379A000000000000000000000000000000000000000000000000000000000 DUP2 MSTORE PUSH1 0x4 ADD PUSH2 0x82 SWAP1 PUSH2 0x348 JUMP JUMPDEST PUSH1 0x40 MLOAD DUP1 SWAP2 SUB SWAP1 REVERT JUMPDEST PUSH1 0x1 PUSH1 0x2 PUSH0 PUSH2 0x100 EXP DUP2 SLOAD DUP2 PUSH1 0xFF MUL NOT AND SWAP1 DUP4 ISZERO ISZERO MUL OR SWAP1 SSTORE POP CALLVALUE PUSH1 0x1 PUSH0 DUP3 DUP3 SLOAD PUSH2 0xB6 SWAP2 SWAP1 PUSH2 0x39C JUMP JUMPDEST SWAP3 POP POP DUP2 SWAP1 SSTORE POP CALLER PUSH20 0xFFFFFFFFFFFFFFFFFFFFFFFFFFFFFFFFFFFFFFFF AND PUSH32 0x5E92F575AB0803F5F74BA09D7A0EF8E5196E51713D917EBFB45113420EBDDA62 CALLVALUE PUSH1 0x40 MLOAD PUSH2 0x103 SWAP2 SWAP1 PUSH2 0x3DE JUMP JUMPDEST PUSH1 0x40 MLOAD DUP1 SWAP2 SUB SWAP1 LOG2 PUSH0 PUSH1 0x2 PUSH0 PUSH2 0x100 EXP DUP2 SLOAD DUP2 PUSH1 0xFF MUL NOT AND SWAP1 DUP4 ISZERO ISZERO MUL OR SWAP1 SSTORE STOP JUMPDEST PUSH1 0x2 PUSH0 SWAP1 SLOAD SWAP1 PUSH2 0x100 EXP SWAP1 DIV PUSH1 0xFF AND ISZERO PUSH2 0x174 JUMPI PUSH1 0x40 MLOAD PUSH32 0x8C379A000000000000000000000000000000000000000000000000000000000 DUP2 MSTORE PUSH1 0x4 ADD PUSH2 0x16B SWAP1 PUSH2 0x348 JUMP JUMPDEST PUSH1 0x40 MLOAD DUP1 SWAP2 SUB SWAP1 REVERT JUMPDEST PUSH1 0x1 PUSH1 0x2 PUSH0 PUSH2 0x100 EXP DUP2 SLOAD DUP2 PUSH1 0xFF MUL NOT AND SWAP1 DUP4 ISZERO ISZERO MUL OR SWAP1 SSTORE POP PUSH0 PUSH0 DUP2 SLOAD DUP1 SWAP3 SWAP2 SWAP1 PUSH2 0x19F SWAP1 PUSH2 0x3F7 JUMP JUMPDEST SWAP2 SWAP1 POP SSTORE POP CALLVALUE PUSH1 0x1 PUSH0 DUP3 DUP3 SLOAD PUSH2 0x1B5 SWAP2 SWAP1 PUSH2 0x39C JUMP JUMPDEST SWAP3 POP POP DUP2 SWAP1 SSTORE POP CALLER PUSH20 0xFFFFFFFFFFFFFFFFFFFFFFFFFFFFFFFFFFFFFFFF AND PUSH32 0x390F97E4A5AB8058CA67D5E2DB9310CA12D1E29C64F7EB23DC5F12F1C31E9058 CALLVALUE PUSH0 CALLDATASIZE PUSH1 0x40 MLOAD PUSH2 0x206 SWAP4 SWAP3 SWAP2 SWAP1 PUSH2 0x498 JUMP JUMPDEST PUSH1 0x40 MLOAD DUP1 SWAP2 SUB SWAP1 LOG2 PUSH0 PUSH1 0x2 PUSH0 PUSH2 0x100 EXP DUP2 SLOAD DUP2 PUSH1 0xFF MUL NOT AND SWAP1 DUP4 ISZERO ISZERO MUL OR SWAP1 SSTORE STOP JUMPDEST CALLVALUE DUP1 ISZERO PUSH2 0x233 JUMPI PUSH0 PUSH0 REVERT JUMPDEST POP PUSH2 0x23C PUSH2 0x2A6 JUMP JUMPDEST PUSH1 0x40 MLOAD PUSH2 0x249 SWAP2 SWAP1 PUSH2 0x3DE JUMP JUMPDEST PUSH1 0x40 MLOAD DUP1 SWAP2 SUB SWAP1 RETURN JUMPDEST CALLVALUE DUP1 ISZERO PUSH2 0x25D JUMPI PUSH0 PUSH0 REVERT JUMPDEST POP PUSH2 0x266 PUSH2 0x2AC JUMP JUMPDEST PUSH1 0x40 MLOAD PUSH2 0x273 SWAP2 SWAP1 PUSH2 0x3DE JUMP JUMPDEST PUSH1 0x40 MLOAD DUP1 SWAP2 SUB SWAP1 RETURN JUMPDEST CALLVALUE DUP1 ISZERO PUSH2 0x287 JUMPI PUSH0 PUSH0 REVERT JUMPDEST POP PUSH2 0x290 PUSH2 0x2B1 JUMP JUMPDEST PUSH1 0x40 MLOAD PUSH2 0x29D SWAP2 SWAP1 PUSH2 0x518 JUMP JUMPDEST PUSH1 0x40 MLOAD DUP1 SWAP2 SUB SWAP1 RETURN JUMPDEST PUSH1 0x1 SLOAD DUP2 JUMP JUMPDEST PUSH0 SLOAD DUP2 JUMP JUMPDEST PUSH1 0x60 PUSH1 0x40 MLOAD DUP1 PUSH1 0x40 ADD PUSH1 0x40 MSTORE DUP1 PUSH1 0x10 DUP2 MSTORE PUSH1 0x20 ADD PUSH32 0x4E6F726D616C20657865637574696F6E00000000000000000000000000000000 DUP2 MSTORE POP SWAP1 POP SWAP1 JUMP JUMPDEST PUSH0 DUP3 DUP3 MSTORE PUSH1 0x20 DUP3 ADD SWAP1 POP SWAP3 SWAP2 POP POP JUMP JUMPDEST PUSH32 0x5265656E7472616E742063616C6C20626C6F636B656400000000000000000000 PUSH0 DUP3 ADD MSTORE POP JUMP JUMPDEST PUSH0 PUSH2 0x332 PUSH1 0x16 DUP4 PUSH2 0x2EE JUMP JUMPDEST SWAP2 POP PUSH2 0x33D DUP3 PUSH2 0x2FE JUMP JUMPDEST PUSH1 0x20 DUP3 ADD SWAP1 POP SWAP2 SWAP1 POP JUMP JUMPDEST PUSH0 PUSH1 0x20 DUP3 ADD SWAP1 POP DUP2 DUP2 SUB PUSH0 DUP4 ADD MSTORE PUSH2 0x35F DUP2 PUSH2 0x326 JUMP JUMPDEST SWAP1 POP SWAP2 SWAP1 POP JUMP JUMPDEST PUSH0 DUP2 SWAP1 POP SWAP2 SWAP1 POP JUMP JUMPDEST PUSH32 0x4E487B7100000000000000000000000000000000000000000000000000000000 PUSH0 MSTORE PUSH1 0x11 PUSH1 0x4 MSTORE PUSH1 0x24 PUSH0 REVERT JUMPDEST PUSH0 PUSH2 0x3A6 DUP3 PUSH2 0x366 JUMP JUMPDEST SWAP2 POP PUSH2 0x3B1 DUP4 PUSH2 0x366 JUMP JUMPDEST SWAP3 POP DUP3 DUP3 ADD SWAP1 POP DUP1 DUP3 GT ISZERO PUSH2 0x3C9 JUMPI PUSH2 0x3C8 PUSH2 0x36F JUMP JUMPDEST JUMPDEST SWAP3 SWAP2 POP POP JUMP JUMPDEST PUSH2 0x3D8 DUP2 PUSH2 0x366 JUMP JUMPDEST DUP3 MSTORE POP POP JUMP JUMPDEST PUSH0 PUSH1 0x20 DUP3 ADD SWAP1 POP PUSH2 0x3F1 PUSH0 DUP4 ADD DUP5 PUSH2 0x3CF JUMP JUMPDEST SWAP3 SWAP2 POP POP JUMP JUMPDEST PUSH0 PUSH2 0x401 DUP3 PUSH2 0x366 JUMP JUMPDEST SWAP2 POP PUSH32 0xFFFFFFFFFFFFFFFFFFFFFFFFFFFFFFFFFFFFFFFFFFFFFFFFFFFFFFFFFFFFFFFF DUP3 SUB PUSH2 0x433 JUMPI PUSH2 0x432 PUSH2 0x36F JUMP JUMPDEST JUMPDEST PUSH1 0x1 DUP3 ADD SWAP1 POP SWAP2 SWAP1 POP JUMP JUMPDEST PUSH0 DUP3 DUP3 MSTORE PUSH1 0x20 DUP3 ADD SWAP1 POP SWAP3 SWAP2 POP POP JUMP JUMPDEST DUP3 DUP2 DUP4 CALLDATACOPY PUSH0 DUP4 DUP4 ADD MSTORE POP POP POP JUMP JUMPDEST PUSH0 PUSH1 0x1F NOT PUSH1 0x1F DUP4 ADD AND SWAP1 POP SWAP2 SWAP1 POP JUMP JUMPDEST PUSH0 PUSH2 0x477 DUP4 DUP6 PUSH2 0x43E JUMP JUMPDEST SWAP4 POP PUSH2 0x484 DUP4 DUP6 DUP5 PUSH2 0x44E JUMP JUMPDEST PUSH2 0x48D DUP4 PUSH2 0x45C JUMP JUMPDEST DUP5 ADD SWAP1 POP SWAP4 SWAP3 POP POP POP JUMP JUMPDEST PUSH0 PUSH1 0x40 DUP3 ADD SWAP1 POP PUSH2 0x4AB PUSH0 DUP4 ADD DUP7 PUSH2 0x3CF JUMP JUMPDEST DUP2 DUP2 SUB PUSH1 0x20 DUP4 ADD MSTORE PUSH2 0x4BE DUP2 DUP5 DUP7 PUSH2 0x46C JUMP JUMPDEST SWAP1 POP SWAP5 SWAP4 POP POP POP POP JUMP JUMPDEST PUSH0 DUP2 MLOAD SWAP1 POP SWAP2 SWAP1 POP JUMP JUMPDEST DUP3 DUP2 DUP4 MCOPY PUSH0 DUP4 DUP4 ADD MSTORE POP POP POP JUMP JUMPDEST PUSH0 PUSH2 0x4EA DUP3 PUSH2 0x4C8 JUMP JUMPDEST PUSH2 0x4F4 DUP2 DUP6 PUSH2 0x2EE JUMP JUMPDEST SWAP4 POP PUSH2 0x504 DUP2 DUP6 PUSH1 0x20 DUP7 ADD PUSH2 0x4D2 JUMP JUMPDEST PUSH2 0x50D DUP2 PUSH2 0x45C JUMP JUMPDEST DUP5 ADD SWAP2 POP POP SWAP3 SWAP2 POP POP JUMP JUMPDEST PUSH0 PUSH1 0x20 DUP3 ADD SWAP1 POP DUP2 DUP2 SUB PUSH0 DUP4 ADD MSTORE PUSH2 0x530 DUP2 DUP5 PUSH2 0x4E0 JUMP JUMPDEST SWAP1 POP SWAP3 SWAP2 POP POP JUMP INVALID LOG2 PUSH5 0x6970667358 0x22 SLT KECCAK256 PC 0xCC 0xBF DUP3 SDIV 0xB4 SGT 0xDD SWAP8 0xBC BLOBBASEFEE NOT 0xBE SWAP9 NUMBER CALL RETURN DUP3 PUSH22 0x162FEBF3C8302080F9DA2ECBDE64736F6C6343000822 STOP CALLER "
				},
				"gasEstimates": {
					"creation": {
						"codeDepositCost": "278000",
						"executionCost": "316",
						"totalCost": "278316"
					},
					"external": {
						"": "infinite",
						"fallbackCounter()": "2424",
						"normalFunction()": "infinite",
						"receivedETH()": "2403"
					}
				},
				"methodIdentifiers": {
					"fallbackCounter()": "a170d737",
					"normalFunction()": "d67e4b84",
					"receivedETH()": "820bec9d"
				}
			},
			"storageLayout": {
				"storage": [
					{
						"astId": 109,
						"contract": "val54.sol:TargetContract",
						"label": "fallbackCounter",
						"offset": 0,
						"slot": "0",
						"type": "t_uint256"
					},
					{
						"astId": 111,
						"contract": "val54.sol:TargetContract",
						"label": "receivedETH",
						"offset": 0,
						"slot": "1",
						"type": "t_uint256"
					},
					{
						"astId": 113,
						"contract": "val54.sol:TargetContract",
						"label": "locked",
						"offset": 0,
						"slot": "2",
						"type": "t_bool"
					}
				],
				"types": {
					"t_bool": {
						"encoding": "inplace",
						"label": "bool",
						"numberOfBytes": "1"
					},
					"t_uint256": {
						"encoding": "inplace",
						"label": "uint256",
						"numberOfBytes": "32"
					}
				}
			},
			"userdoc": {
				"kind": "user",
				"methods": {},
				"version": 1
			}
		}
	}
}