{
	"val54.sol": {
		"TargetContractval": {
			"abi": [
				{
					"stateMutability": "payable",
					"type": "fallback"
				},
				{
					"inputs": [],
					"name": "fallbackCounter",
					"outputs": [
						{
							"internalType": "uint256",
							"name": "",
							"type": "uint256"
						}
					],
					"stateMutability": "view",
					"type": "function"
				},
				{
					"inputs": [],
					"name": "normalFunction",
					"outputs": [
						{
							"internalType": "string",
							"name": "",
							"type": "string"
						}
					],
					"stateMutability": "pure",
					"type": "function"
				},
				{
					"inputs": [],
					"name": "receivedETH",
					"outputs": [
						{
							"internalType": "uint256",
							"name": "",
							"type": "uint256"
						}
					],
					"stateMutability": "view",
					"type": "function"
				},
				{
					"stateMutability": "payable",
					"type": "receive"
				}
			],
			"devdoc": {
				"kind": "dev",
				"methods": {},
				"version": 1
			},
			"evm": {
				"assembly": "    /* \"val54.sol\":1917:3182  contract TargetContractval {... */\n  mstore(0x40, 0x80)\n  callvalue\n  dup1\n  iszero\n  tag_1\n  jumpi\n  revert(0x00, 0x00)\ntag_1:\n  pop\n  dataSize(sub_0)\n  dup1\n  dataOffset(sub_0)\n  0x00\n  codecopy\n  0x00\n  return\nstop\n\nsub_0: assembly {\n        /* \"val54.sol\":1917:3182  contract TargetContractval {... */\n      mstore(0x40, 0x80)\n      jumpi(tag_1, lt(calldatasize, 0x04))\n      shr(0xe0, calldataload(0x00))\n      dup1\n      0x820bec9d\n      eq\n      tag_3\n      jumpi\n      dup1\n      0xa170d737\n      eq\n      tag_4\n      jumpi\n      dup1\n      0xd67e4b84\n      eq\n      tag_5\n      jumpi\n      jump(tag_2)\n    tag_1:\n      jumpi(tag_2, calldatasize)\n        /* \"val54.sol\":2855:2864  msg.value */\n      callvalue\n        /* \"val54.sol\":2840:2851  receivedETH */\n      0x01\n      0x00\n        /* \"val54.sol\":2840:2864  receivedETH += msg.value */\n      dup3\n      dup3\n      sload\n      tag_8\n      swap2\n      swap1\n      tag_9\n      jump\t// in\n    tag_8:\n      swap3\n      pop\n      pop\n      dup2\n      swap1\n      sstore\n      stop\n        /* \"val54.sol\":1917:3182  contract TargetContractval {... */\n    tag_2:\n        /* \"val54.sol\":2434:2449  fallbackCounter */\n      0x00\n      0x00\n        /* \"val54.sol\":2434:2451  fallbackCounter++ */\n      dup2\n      sload\n      dup1\n      swap3\n      swap2\n      swap1\n      tag_12\n      swap1\n      tag_13\n      jump\t// in\n    tag_12:\n      swap2\n      swap1\n      pop\n      sstore\n      pop\n        /* \"val54.sol\":2536:2545  msg.value */\n      callvalue\n        /* \"val54.sol\":2521:2532  receivedETH */\n      0x01\n      0x00\n        /* \"val54.sol\":2521:2545  receivedETH += msg.value */\n      dup3\n      dup3\n      sload\n      tag_14\n      swap2\n      swap1\n      tag_9\n      jump\t// in\n    tag_14:\n      swap3\n      pop\n      pop\n      dup2\n      swap1\n      sstore\n      stop\n        /* \"val54.sol\":2042:2068  uint256 public receivedETH */\n    tag_3:\n      callvalue\n      dup1\n      iszero\n      tag_15\n      jumpi\n      revert(0x00, 0x00)\n    tag_15:\n      pop\n      tag_16\n      tag_17\n      jump\t// in\n    tag_16:\n      mload(0x40)\n      tag_18\n      swap2\n      swap1\n      tag_19\n      jump\t// in\n    tag_18:\n      mload(0x40)\n      dup1\n      swap2\n      sub\n      swap1\n      return\n        /* \"val54.sol\":2003:2033  uint256 public fallbackCounter */\n    tag_4:\n      callvalue\n      dup1\n      iszero\n      tag_20\n      jumpi\n      revert(0x00, 0x00)\n    tag_20:\n      pop\n      tag_21\n      tag_22\n      jump\t// in\n    tag_21:\n      mload(0x40)\n      tag_23\n      swap2\n      swap1\n      tag_19\n      jump\t// in\n    tag_23:\n      mload(0x40)\n      dup1\n      swap2\n      sub\n      swap1\n      return\n        /* \"val54.sol\":3037:3179  function normalFunction()... */\n    tag_5:\n      callvalue\n      dup1\n      iszero\n      tag_24\n      jumpi\n      revert(0x00, 0x00)\n    tag_24:\n      pop\n      tag_25\n      tag_26\n      jump\t// in\n    tag_25:\n      mload(0x40)\n      tag_27\n      swap2\n      swap1\n      tag_28\n      jump\t// in\n    tag_27:\n      mload(0x40)\n      dup1\n      swap2\n      sub\n      swap1\n      return\n        /* \"val54.sol\":2042:2068  uint256 public receivedETH */\n    tag_17:\n      sload(0x01)\n      dup2\n      jump\t// out\n        /* \"val54.sol\":2003:2033  uint256 public fallbackCounter */\n    tag_22:\n      sload(0x00)\n      dup2\n      jump\t// out\n        /* \"val54.sol\":3037:3179  function normalFunction()... */\n    tag_26:\n        /* \"val54.sol\":3113:3126  string memory */\n      0x60\n        /* \"val54.sol\":3146:3171  return \"Normal execution\" */\n      mload(0x40)\n      dup1\n      0x40\n      add\n      0x40\n      mstore\n      dup1\n      0x10\n      dup2\n      mstore\n      0x20\n      add\n      0x4e6f726d616c20657865637574696f6e00000000000000000000000000000000\n      dup2\n      mstore\n      pop\n      swap1\n      pop\n        /* \"val54.sol\":3037:3179  function normalFunction()... */\n      swap1\n      jump\t// out\n        /* \"#utility.yul\":7:84   */\n    tag_30:\n        /* \"#utility.yul\":44:51   */\n      0x00\n        /* \"#utility.yul\":73:78   */\n      dup2\n        /* \"#utility.yul\":62:78   */\n      swap1\n      pop\n        /* \"#utility.yul\":7:84   */\n      swap2\n      swap1\n      pop\n      jump\t// out\n        /* \"#utility.yul\":90:270   */\n    tag_31:\n        /* \"#utility.yul\":138:215   */\n      0x4e487b7100000000000000000000000000000000000000000000000000000000\n        /* \"#utility.yul\":135:136   */\n      0x00\n        /* \"#utility.yul\":128:216   */\n      mstore\n        /* \"#utility.yul\":235:239   */\n      0x11\n        /* \"#utility.yul\":232:233   */\n      0x04\n        /* \"#utility.yul\":225:240   */\n      mstore\n        /* \"#utility.yul\":259:263   */\n      0x24\n        /* \"#utility.yul\":256:257   */\n      0x00\n        /* \"#utility.yul\":249:264   */\n      revert\n        /* \"#utility.yul\":276:467   */\n    tag_9:\n        /* \"#utility.yul\":316:319   */\n      0x00\n        /* \"#utility.yul\":335:355   */\n      tag_42\n        /* \"#utility.yul\":353:354   */\n      dup3\n        /* \"#utility.yul\":335:355   */\n      tag_30\n      jump\t// in\n    tag_42:\n        /* \"#utility.yul\":330:355   */\n      swap2\n      pop\n        /* \"#utility.yul\":369:389   */\n      tag_43\n        /* \"#utility.yul\":387:388   */\n      dup4\n        /* \"#utility.yul\":369:389   */\n      tag_30\n      jump\t// in\n    tag_43:\n        /* \"#utility.yul\":364:389   */\n      swap3\n      pop\n        /* \"#utility.yul\":412:413   */\n      dup3\n        /* \"#utility.yul\":409:410   */\n      dup3\n        /* \"#utility.yul\":405:414   */\n      add\n        /* \"#utility.yul\":398:414   */\n      swap1\n      pop\n        /* \"#utility.yul\":433:436   */\n      dup1\n        /* \"#utility.yul\":430:431   */\n      dup3\n        /* \"#utility.yul\":427:437   */\n      gt\n        /* \"#utility.yul\":424:460   */\n      iszero\n      tag_44\n      jumpi\n        /* \"#utility.yul\":440:458   */\n      tag_45\n      tag_31\n      jump\t// in\n    tag_45:\n        /* \"#utility.yul\":424:460   */\n    tag_44:\n        /* \"#utility.yul\":276:467   */\n      swap3\n      swap2\n      pop\n      pop\n      jump\t// out\n        /* \"#utility.yul\":473:706   */\n    tag_13:\n        /* \"#utility.yul\":512:515   */\n      0x00\n        /* \"#utility.yul\":535:559   */\n      tag_47\n        /* \"#utility.yul\":553:558   */\n      dup3\n        /* \"#utility.yul\":535:559   */\n      tag_30\n      jump\t// in\n    tag_47:\n        /* \"#utility.yul\":526:559   */\n      swap2\n      pop\n        /* \"#utility.yul\":581:647   */\n      0xffffffffffffffffffffffffffffffffffffffffffffffffffffffffffffffff\n        /* \"#utility.yul\":574:579   */\n      dup3\n        /* \"#utility.yul\":571:648   */\n      sub\n        /* \"#utility.yul\":568:671   */\n      tag_48\n      jumpi\n        /* \"#utility.yul\":651:669   */\n      tag_49\n      tag_31\n      jump\t// in\n    tag_49:\n        /* \"#utility.yul\":568:671   */\n    tag_48:\n        /* \"#utility.yul\":698:699   */\n      0x01\n        /* \"#utility.yul\":691:696   */\n      dup3\n        /* \"#utility.yul\":687:700   */\n      add\n        /* \"#utility.yul\":680:700   */\n      swap1\n      pop\n        /* \"#utility.yul\":473:706   */\n      swap2\n      swap1\n      pop\n      jump\t// out\n        /* \"#utility.yul\":712:830   */\n    tag_32:\n        /* \"#utility.yul\":799:823   */\n      tag_51\n        /* \"#utility.yul\":817:822   */\n      dup2\n        /* \"#utility.yul\":799:823   */\n      tag_30\n      jump\t// in\n    tag_51:\n        /* \"#utility.yul\":794:797   */\n      dup3\n        /* \"#utility.yul\":787:824   */\n      mstore\n        /* \"#utility.yul\":712:830   */\n      pop\n      pop\n      jump\t// out\n        /* \"#utility.yul\":836:1058   */\n    tag_19:\n        /* \"#utility.yul\":929:933   */\n      0x00\n        /* \"#utility.yul\":967:969   */\n      0x20\n        /* \"#utility.yul\":956:965   */\n      dup3\n        /* \"#utility.yul\":952:970   */\n      add\n        /* \"#utility.yul\":944:970   */\n      swap1\n      pop\n        /* \"#utility.yul\":980:1051   */\n      tag_53\n        /* \"#utility.yul\":1048:1049   */\n      0x00\n        /* \"#utility.yul\":1037:1046   */\n      dup4\n        /* \"#utility.yul\":1033:1050   */\n      add\n        /* \"#utility.yul\":1024:1030   */\n      dup5\n        /* \"#utility.yul\":980:1051   */\n      tag_32\n      jump\t// in\n    tag_53:\n        /* \"#utility.yul\":836:1058   */\n      swap3\n      swap2\n      pop\n      pop\n      jump\t// out\n        /* \"#utility.yul\":1064:1163   */\n    tag_33:\n        /* \"#utility.yul\":1116:1122   */\n      0x00\n        /* \"#utility.yul\":1150:1155   */\n      dup2\n        /* \"#utility.yul\":1144:1156   */\n      mload\n        /* \"#utility.yul\":1134:1156   */\n      swap1\n      pop\n        /* \"#utility.yul\":1064:1163   */\n      swap2\n      swap1\n      pop\n      jump\t// out\n        /* \"#utility.yul\":1169:1338   */\n    tag_34:\n        /* \"#utility.yul\":1253:1264   */\n      0x00\n        /* \"#utility.yul\":1287:1293   */\n      dup3\n        /* \"#utility.yul\":1282:1285   */\n      dup3\n        /* \"#utility.yul\":1275:1294   */\n      mstore\n        /* \"#utility.yul\":1327:1331   */\n      0x20\n        /* \"#utility.yul\":1322:1325   */\n      dup3\n        /* \"#utility.yul\":1318:1332   */\n      add\n        /* \"#utility.yul\":1303:1332   */\n      swap1\n      pop\n        /* \"#utility.yul\":1169:1338   */\n      swap3\n      swap2\n      pop\n      pop\n      jump\t// out\n        /* \"#utility.yul\":1344:1483   */\n    tag_35:\n        /* \"#utility.yul\":1433:1439   */\n      dup3\n        /* \"#utility.yul\":1428:1431   */\n      dup2\n        /* \"#utility.yul\":1423:1426   */\n      dup4\n        /* \"#utility.yul\":1417:1440   */\n      mcopy\n        /* \"#utility.yul\":1474:1475   */\n      0x00\n        /* \"#utility.yul\":1465:1471   */\n      dup4\n        /* \"#utility.yul\":1460:1463   */\n      dup4\n        /* \"#utility.yul\":1456:1472   */\n      add\n        /* \"#utility.yul\":1449:1476   */\n      mstore\n        /* \"#utility.yul\":1344:1483   */\n      pop\n      pop\n      pop\n      jump\t// out\n        /* \"#utility.yul\":1489:1591   */\n    tag_36:\n        /* \"#utility.yul\":1530:1536   */\n      0x00\n        /* \"#utility.yul\":1581:1583   */\n      0x1f\n        /* \"#utility.yul\":1577:1584   */\n      not\n        /* \"#utility.yul\":1572:1574   */\n      0x1f\n        /* \"#utility.yul\":1565:1570   */\n      dup4\n        /* \"#utility.yul\":1561:1575   */\n      add\n        /* \"#utility.yul\":1557:1585   */\n      and\n        /* \"#utility.yul\":1547:1585   */\n      swap1\n      pop\n        /* \"#utility.yul\":1489:1591   */\n      swap2\n      swap1\n      pop\n      jump\t// out\n        /* \"#utility.yul\":1597:1974   */\n    tag_37:\n        /* \"#utility.yul\":1685:1688   */\n      0x00\n        /* \"#utility.yul\":1713:1752   */\n      tag_59\n        /* \"#utility.yul\":1746:1751   */\n      dup3\n        /* \"#utility.yul\":1713:1752   */\n      tag_33\n      jump\t// in\n    tag_59:\n        /* \"#utility.yul\":1768:1839   */\n      tag_60\n        /* \"#utility.yul\":1832:1838   */\n      dup2\n        /* \"#utility.yul\":1827:1830   */\n      dup6\n        /* \"#utility.yul\":1768:1839   */\n      tag_34\n      jump\t// in\n    tag_60:\n        /* \"#utility.yul\":1761:1839   */\n      swap4\n      pop\n        /* \"#utility.yul\":1848:1913   */\n      tag_61\n        /* \"#utility.yul\":1906:1912   */\n      dup2\n        /* \"#utility.yul\":1901:1904   */\n      dup6\n        /* \"#utility.yul\":1894:1898   */\n      0x20\n        /* \"#utility.yul\":1887:1892   */\n      dup7\n        /* \"#utility.yul\":1883:1899   */\n      add\n        /* \"#utility.yul\":1848:1913   */\n      tag_35\n      jump\t// in\n    tag_61:\n        /* \"#utility.yul\":1938:1967   */\n      tag_62\n        /* \"#utility.yul\":1960:1966   */\n      dup2\n        /* \"#utility.yul\":1938:1967   */\n      tag_36\n      jump\t// in\n    tag_62:\n        /* \"#utility.yul\":1933:1936   */\n      dup5\n        /* \"#utility.yul\":1929:1968   */\n      add\n        /* \"#utility.yul\":1922:1968   */\n      swap2\n      pop\n        /* \"#utility.yul\":1689:1974   */\n      pop\n        /* \"#utility.yul\":1597:1974   */\n      swap3\n      swap2\n      pop\n      pop\n      jump\t// out\n        /* \"#utility.yul\":1980:2293   */\n    tag_28:\n        /* \"#utility.yul\":2093:2097   */\n      0x00\n        /* \"#utility.yul\":2131:2133   */\n      0x20\n        /* \"#utility.yul\":2120:2129   */\n      dup3\n        /* \"#utility.yul\":2116:2134   */\n      add\n        /* \"#utility.yul\":2108:2134   */\n      swap1\n      pop\n        /* \"#utility.yul\":2180:2189   */\n      dup2\n        /* \"#utility.yul\":2174:2178   */\n      dup2\n        /* \"#utility.yul\":2170:2190   */\n      sub\n        /* \"#utility.yul\":2166:2167   */\n      0x00\n        /* \"#utility.yul\":2155:2164   */\n      dup4\n        /* \"#utility.yul\":2151:2168   */\n      add\n        /* \"#utility.yul\":2144:2191   */\n      mstore\n        /* \"#utility.yul\":2208:2286   */\n      tag_64\n        /* \"#utility.yul\":2281:2285   */\n      dup2\n        /* \"#utility.yul\":2272:2278   */\n      dup5\n        /* \"#utility.yul\":2208:2286   */\n      tag_37\n      jump\t// in\n    tag_64:\n        /* \"#utility.yul\":2200:2286   */\n      swap1\n      pop\n        /* \"#utility.yul\":1980:2293   */\n      swap3\n      swap2\n      pop\n      pop\n      jump\t// out\n\n    auxdata: 0xa26469706673582212206174387f3aac720a755a300d04f5497f8d665b894c80a14c2e6fa76e303f638064736f6c63430008220033\n}\n",
				"bytecode": {
					"linkReferences": {},
					"object": "6080604052348015600e575f5ffd5b506102e88061001c5f395ff3fe608060405260043610610037575f3560e01c8063820bec9d14610084578063a170d737146100ae578063d67e4b84146100d857610055565b36610055573460015f82825461004d9190610180565b925050819055005b5f5f815480929190610066906101b3565b91905055503460015f82825461007c9190610180565b925050819055005b34801561008f575f5ffd5b50610098610102565b6040516100a59190610209565b60405180910390f35b3480156100b9575f5ffd5b506100c2610108565b6040516100cf9190610209565b60405180910390f35b3480156100e3575f5ffd5b506100ec61010d565b6040516100f99190610292565b60405180910390f35b60015481565b5f5481565b60606040518060400160405280601081526020017f4e6f726d616c20657865637574696f6e00000000000000000000000000000000815250905090565b5f819050919050565b7f4e487b71000000000000000000000000000000000000000000000000000000005f52601160045260245ffd5b5f61018a8261014a565b91506101958361014a565b92508282019050808211156101ad576101ac610153565b5b92915050565b5f6101bd8261014a565b91507fffffffffffffffffffffffffffffffffffffffffffffffffffffffffffffffff82036101ef576101ee610153565b5b600182019050919050565b6102038161014a565b82525050565b5f60208201905061021c5f8301846101fa565b92915050565b5f81519050919050565b5f82825260208201905092915050565b8281835e5f83830152505050565b5f601f19601f8301169050919050565b5f61026482610222565b61026e818561022c565b935061027e81856020860161023c565b6102878161024a565b840191505092915050565b5f6020820190508181035f8301526102aa818461025a565b90509291505056fea26469706673582212206174387f3aac720a755a300d04f5497f8d665b894c80a14c2e6fa76e303f638064736f6c63430008220033",
					"opcodes": "PUSH1 0x80 PUSH1 0x40 MSTORE CALLVALUE DUP1 ISZERO PUSH1 0xE JUMPI PUSH0 PUSH0 REVERT JUMPDEST POP PUSH2 0x2E8 DUP1 PUSH2 0x1C PUSH0 CODECOPY PUSH0 RETURN INVALID PUSH1 0x80 PUSH1 0x40 MSTORE PUSH1 0x4 CALLDATASIZE LT PUSH2 0x37 JUMPI PUSH0 CALLDATALOAD PUSH1 0xE0 SHR DUP1 PUSH4 0x820BEC9D EQ PUSH2 0x84 JUMPI DUP1 PUSH4 0xA170D737 EQ PUSH2 0xAE JUMPI DUP1 PUSH4 0xD67E4B84 EQ PUSH2 0xD8 JUMPI PUSH2 0x55 JUMP JUMPDEST CALLDATASIZE PUSH2 0x55 JUMPI CALLVALUE PUSH1 0x1 PUSH0 DUP3 DUP3 SLOAD PUSH2 0x4D SWAP2 SWAP1 PUSH2 0x180 JUMP JUMPDEST SWAP3 POP POP DUP2 SWAP1 SSTORE STOP JUMPDEST PUSH0 PUSH0 DUP2 SLOAD DUP1 SWAP3 SWAP2 SWAP1 PUSH2 0x66 SWAP1 PUSH2 0x1B3 JUMP JUMPDEST SWAP2 SWAP1 POP SSTORE POP CALLVALUE PUSH1 0x1 PUSH0 DUP3 DUP3 SLOAD PUSH2 0x7C SWAP2 SWAP1 PUSH2 0x180 JUMP JUMPDEST SWAP3 POP POP DUP2 SWAP1 SSTORE STOP JUMPDEST CALLVALUE DUP1 ISZERO PUSH2 0x8F JUMPI PUSH0 PUSH0 REVERT JUMPDEST POP PUSH2 0x98 PUSH2 0x102 JUMP JUMPDEST PUSH1 0x40 MLOAD PUSH2 0xA5 SWAP2 SWAP1 PUSH2 0x209 JUMP JUMPDEST PUSH1 0x40 MLOAD DUP1 SWAP2 SUB SWAP1 RETURN JUMPDEST CALLVALUE DUP1 ISZERO PUSH2 0xB9 JUMPI PUSH0 PUSH0 REVERT JUMPDEST POP PUSH2 0xC2 PUSH2 0x108 JUMP JUMPDEST PUSH1 0x40 MLOAD PUSH2 0xCF SWAP2 SWAP1 PUSH2 0x209 JUMP JUMPDEST PUSH1 0x40 MLOAD DUP1 SWAP2 SUB SWAP1 RETURN JUMPDEST CALLVALUE DUP1 ISZERO PUSH2 0xE3 JUMPI PUSH0 PUSH0 REVERT JUMPDEST POP PUSH2 0xEC PUSH2 0x10D JUMP JUMPDEST PUSH1 0x40 MLOAD PUSH2 0xF9 SWAP2 SWAP1 PUSH2 0x292 JUMP JUMPDEST PUSH1 0x40 MLOAD DUP1 SWAP2 SUB SWAP1 RETURN JUMPDEST PUSH1 0x1 SLOAD DUP2 JUMP JUMPDEST PUSH0 SLOAD DUP2 JUMP JUMPDEST PUSH1 0x60 PUSH1 0x40 MLOAD DUP1 PUSH1 0x40 ADD PUSH1 0x40 MSTORE DUP1 PUSH1 0x10 DUP2 MSTORE PUSH1 0x20 ADD PUSH32 0x4E6F726D616C20657865637574696F6E00000000000000000000000000000000 DUP2 MSTORE POP SWAP1 POP SWAP1 JUMP JUMPDEST PUSH0 DUP2 SWAP1 POP SWAP2 SWAP1 POP JUMP JUMPDEST PUSH32 0x4E487B7100000000000000000000000000000000000000000000000000000000 PUSH0 MSTORE PUSH1 0x11 PUSH1 0x4 MSTORE PUSH1 0x24 PUSH0 REVERT JUMPDEST PUSH0 PUSH2 0x18A DUP3 PUSH2 0x14A JUMP JUMPDEST SWAP2 POP PUSH2 0x195 DUP4 PUSH2 0x14A JUMP JUMPDEST SWAP3 POP DUP3 DUP3 ADD SWAP1 POP DUP1 DUP3 GT ISZERO PUSH2 0x1AD JUMPI PUSH2 0x1AC PUSH2 0x153 JUMP JUMPDEST JUMPDEST SWAP3 SWAP2 POP POP JUMP JUMPDEST PUSH0 PUSH2 0x1BD DUP3 PUSH2 0x14A JUMP JUMPDEST SWAP2 POP PUSH32 0xFFFFFFFFFFFFFFFFFFFFFFFFFFFFFFFFFFFFFFFFFFFFFFFFFFFFFFFFFFFFFFFF DUP3 SUB PUSH2 0x1EF JUMPI PUSH2 0x1EE PUSH2 0x153 JUMP JUMPDEST JUMPDEST PUSH1 0x1 DUP3 ADD SWAP1 POP SWAP2 SWAP1 POP JUMP JUMPDEST PUSH2 0x203 DUP2 PUSH2 0x14A JUMP JUMPDEST DUP3 MSTORE POP POP JUMP JUMPDEST PUSH0 PUSH1 0x20 DUP3 ADD SWAP1 POP PUSH2 0x21C PUSH0 DUP4 ADD DUP5 PUSH2 0x1FA JUMP JUMPDEST SWAP3 SWAP2 POP POP JUMP JUMPDEST PUSH0 DUP2 MLOAD SWAP1 POP SWAP2 SWAP1 POP JUMP JUMPDEST PUSH0 DUP3 DUP3 MSTORE PUSH1 0x20 DUP3 ADD SWAP1 POP SWAP3 SWAP2 POP POP JUMP JUMPDEST DUP3 DUP2 DUP4 MCOPY PUSH0 DUP4 DUP4 ADD MSTORE POP POP POP JUMP JUMPDEST PUSH0 PUSH1 0x1F NOT PUSH1 0x1F DUP4 ADD AND SWAP1 POP SWAP2 SWAP1 POP JUMP JUMPDEST PUSH0 PUSH2 0x264 DUP3 PUSH2 0x222 JUMP JUMPDEST PUSH2 0x26E DUP2 DUP6 PUSH2 0x22C JUMP JUMPDEST SWAP4 POP PUSH2 0x27E DUP2 DUP6 PUSH1 0x20 DUP7 ADD PUSH2 0x23C JUMP JUMPDEST PUSH2 0x287 DUP2 PUSH2 0x24A JUMP JUMPDEST DUP5 ADD SWAP2 POP POP SWAP3 SWAP2 POP POP JUMP JUMPDEST PUSH0 PUSH1 0x20 DUP3 ADD SWAP1 POP DUP2 DUP2 SUB PUSH0 DUP4 ADD MSTORE PUSH2 0x2AA DUP2 DUP5 PUSH2 0x25A JUMP JUMPDEST SWAP1 POP SWAP3 SWAP2 POP POP JUMP INVALID LOG2 PUSH5 0x6970667358 0x22 SLT KECCAK256 PUSH2 0x7438 PUSH32 0x3AAC720A755A300D04F5497F8D665B894C80A14C2E6FA76E303F638064736F6C PUSH4 0x43000822 STOP CALLER "
				},
				"gasEstimates": {
					"creation": {
						"codeDepositCost": "148800",
						"executionCost": "194",
						"totalCost": "148994"
					},
					"external": {
						"": "infinite",
						"fallbackCounter()": "2424",
						"normalFunction()": "infinite",
						"receivedETH()": "2403"
					}
				},
				"methodIdentifiers": {
					"fallbackCounter()": "a170d737",
					"normalFunction()": "d67e4b84",
					"receivedETH()": "820bec9d"
				}
			},
			"storageLayout": {
				"storage": [
					{
						"astId": 3,
						"contract": "val54.sol:TargetContractval",
						"label": "fallbackCounter",
						"offset": 0,
						"slot": "0",
						"type": "t_uint256"
					},
					{
						"astId": 5,
						"contract": "val54.sol:TargetContractval",
						"label": "receivedETH",
						"offset": 0,
						"slot": "1",
						"type": "t_uint256"
					}
				],
				"types": {
					"t_uint256": {
						"encoding": "inplace",
						"label": "uint256",
						"numberOfBytes": "32"
					}
				}
			},
			"userdoc": {
				"kind": "user",
				"methods": {},
				"version": 1
			}
		}
	}
}