{
	"val59.sol": {
		"ExternalCallHandlerval": {
			"abi": [
				{
					"inputs": [],
					"name": "lastData",
					"outputs": [
						{
							"internalType": "bytes",
							"name": "",
							"type": "bytes"
						}
					],
					"stateMutability": "view",
					"type": "function"
				},
				{
					"inputs": [],
					"name": "lastSuccess",
					"outputs": [
						{
							"internalType": "bool",
							"name": "",
							"type": "bool"
						}
					],
					"stateMutability": "view",
					"type": "function"
				},
				{
					"inputs": [],
					"name": "localCounter",
					"outputs": [
						{
							"internalType": "uint256",
							"name": "",
							"type": "uint256"
						}
					],
					"stateMutability": "view",
					"type": "function"
				},
				{
					"inputs": [
						{
							"internalType": "address",
							"name": "_target",
							"type": "address"
						}
					],
					"name": "safeExternalCall",
					"outputs": [],
					"stateMutability": "nonpayable",
					"type": "function"
				},
				{
					"inputs": [
						{
							"internalType": "address payable",
							"name": "_target",
							"type": "address"
						}
					],
					"name": "sendETH",
					"outputs": [],
					"stateMutability": "payable",
					"type": "function"
				},
				{
					"inputs": [
						{
							"internalType": "address",
							"name": "_target",
							"type": "address"
						}
					],
					"name": "triggerFailure",
					"outputs": [],
					"stateMutability": "nonpayable",
					"type": "function"
				}
			],
			"devdoc": {
				"kind": "dev",
				"methods": {},
				"version": 1
			},
			"evm": {
				"assembly": "    /* \"val59.sol\":3058:5754  contract ExternalCallHandlerval {... */\n  mstore(0x40, 0x80)\n  callvalue\n  dup1\n  iszero\n  tag_1\n  jumpi\n  revert(0x00, 0x00)\ntag_1:\n  pop\n  dataSize(sub_0)\n  dup1\n  dataOffset(sub_0)\n  0x00\n  codecopy\n  0x00\n  return\nstop\n\nsub_0: assembly {\n        /* \"val59.sol\":3058:5754  contract ExternalCallHandlerval {... */\n      mstore(0x40, 0x80)\n      jumpi(tag_1, lt(calldatasize, 0x04))\n      shr(0xe0, calldataload(0x00))\n      dup1\n      0x6e75ec\n      eq\n      tag_2\n      jumpi\n      dup1\n      0x21b1e5f8\n      eq\n      tag_3\n      jumpi\n      dup1\n      0x9415bc59\n      eq\n      tag_4\n      jumpi\n      dup1\n      0x987fb8a2\n      eq\n      tag_5\n      jumpi\n      dup1\n      0x98971dbf\n      eq\n      tag_6\n      jumpi\n      dup1\n      0xe88cc9a3\n      eq\n      tag_7\n      jumpi\n    tag_1:\n      revert(0x00, 0x00)\n        /* \"val59.sol\":3170:3191  bytes public lastData */\n    tag_2:\n      callvalue\n      dup1\n      iszero\n      tag_8\n      jumpi\n      revert(0x00, 0x00)\n    tag_8:\n      pop\n      tag_9\n      tag_10\n      jump\t// in\n    tag_9:\n      mload(0x40)\n      tag_11\n      swap2\n      swap1\n      tag_12\n      jump\t// in\n    tag_11:\n      mload(0x40)\n      dup1\n      swap2\n      sub\n      swap1\n      return\n        /* \"val59.sol\":5191:5751  function sendETH(... */\n    tag_3:\n      tag_13\n      0x04\n      dup1\n      calldatasize\n      sub\n      dup2\n      add\n      swap1\n      tag_14\n      swap2\n      swap1\n      tag_15\n      jump\t// in\n    tag_14:\n      tag_16\n      jump\t// in\n    tag_13:\n      stop\n        /* \"val59.sol\":3138:3161  bool public lastSuccess */\n    tag_4:\n      callvalue\n      dup1\n      iszero\n      tag_17\n      jumpi\n      revert(0x00, 0x00)\n    tag_17:\n      pop\n      tag_18\n      tag_19\n      jump\t// in\n    tag_18:\n      mload(0x40)\n      tag_20\n      swap2\n      swap1\n      tag_21\n      jump\t// in\n    tag_20:\n      mload(0x40)\n      dup1\n      swap2\n      sub\n      swap1\n      return\n        /* \"val59.sol\":3396:4093  function safeExternalCall(... */\n    tag_5:\n      callvalue\n      dup1\n      iszero\n      tag_22\n      jumpi\n      revert(0x00, 0x00)\n    tag_22:\n      pop\n      tag_23\n      0x04\n      dup1\n      calldatasize\n      sub\n      dup2\n      add\n      swap1\n      tag_24\n      swap2\n      swap1\n      tag_25\n      jump\t// in\n    tag_24:\n      tag_26\n      jump\t// in\n    tag_23:\n      stop\n        /* \"val59.sol\":4264:5021  function triggerFailure(... */\n    tag_6:\n      callvalue\n      dup1\n      iszero\n      tag_27\n      jumpi\n      revert(0x00, 0x00)\n    tag_27:\n      pop\n      tag_28\n      0x04\n      dup1\n      calldatasize\n      sub\n      dup2\n      add\n      swap1\n      tag_29\n      swap2\n      swap1\n      tag_25\n      jump\t// in\n    tag_29:\n      tag_30\n      jump\t// in\n    tag_28:\n      stop\n        /* \"val59.sol\":3200:3227  uint256 public localCounter */\n    tag_7:\n      callvalue\n      dup1\n      iszero\n      tag_31\n      jumpi\n      revert(0x00, 0x00)\n    tag_31:\n      pop\n      tag_32\n      tag_33\n      jump\t// in\n    tag_32:\n      mload(0x40)\n      tag_34\n      swap2\n      swap1\n      tag_35\n      jump\t// in\n    tag_34:\n      mload(0x40)\n      dup1\n      swap2\n      sub\n      swap1\n      return\n        /* \"val59.sol\":3170:3191  bytes public lastData */\n    tag_10:\n      0x01\n      dup1\n      sload\n      tag_36\n      swap1\n      tag_37\n      jump\t// in\n    tag_36:\n      dup1\n      0x1f\n      add\n      0x20\n      dup1\n      swap2\n      div\n      mul\n      0x20\n      add\n      mload(0x40)\n      swap1\n      dup2\n      add\n      0x40\n      mstore\n      dup1\n      swap3\n      swap2\n      swap1\n      dup2\n      dup2\n      mstore\n      0x20\n      add\n      dup3\n      dup1\n      sload\n      tag_38\n      swap1\n      tag_37\n      jump\t// in\n    tag_38:\n      dup1\n      iszero\n      tag_39\n      jumpi\n      dup1\n      0x1f\n      lt\n      tag_40\n      jumpi\n      0x0100\n      dup1\n      dup4\n      sload\n      div\n      mul\n      dup4\n      mstore\n      swap2\n      0x20\n      add\n      swap2\n      jump(tag_39)\n    tag_40:\n      dup3\n      add\n      swap2\n      swap1\n      0x00\n      mstore\n      keccak256(0x00, 0x20)\n      swap1\n    tag_41:\n      dup2\n      sload\n      dup2\n      mstore\n      swap1\n      0x01\n      add\n      swap1\n      0x20\n      add\n      dup1\n      dup4\n      gt\n      tag_41\n      jumpi\n      dup3\n      swap1\n      sub\n      0x1f\n      and\n      dup3\n      add\n      swap2\n    tag_39:\n      pop\n      pop\n      pop\n      pop\n      pop\n      dup2\n      jump\t// out\n        /* \"val59.sol\":5191:5751  function sendETH(... */\n    tag_16:\n        /* \"val59.sol\":5362:5374  bool success */\n      0x00\n        /* \"val59.sol\":5376:5393  bytes memory data */\n      0x00\n        /* \"val59.sol\":5410:5417  _target */\n      dup3\n        /* \"val59.sol\":5410:5422  _target.call */\n      0xffffffffffffffffffffffffffffffffffffffff\n      and\n        /* \"val59.sol\":5448:5457  msg.value */\n      callvalue\n        /* \"val59.sol\":5410:5476  _target.call{... */\n      mload(0x40)\n      tag_43\n      swap1\n      tag_44\n      jump\t// in\n    tag_43:\n      0x00\n      mload(0x40)\n      dup1\n      dup4\n      sub\n      dup2\n      dup6\n      dup8\n      gas\n      call\n      swap3\n      pop\n      pop\n      pop\n      returndatasize\n      dup1\n      0x00\n      dup2\n      eq\n      tag_47\n      jumpi\n      mload(0x40)\n      swap2\n      pop\n      and(add(returndatasize, 0x3f), not(0x1f))\n      dup3\n      add\n      0x40\n      mstore\n      returndatasize\n      dup3\n      mstore\n      returndatasize\n      0x00\n      0x20\n      dup5\n      add\n      returndatacopy\n      jump(tag_46)\n    tag_47:\n      0x60\n      swap2\n      pop\n    tag_46:\n      pop\n        /* \"val59.sol\":5361:5476  (bool success, bytes memory data) =... */\n      swap2\n      pop\n      swap2\n      pop\n        /* \"val59.sol\":5553:5560  success */\n      dup2\n        /* \"val59.sol\":5539:5550  lastSuccess */\n      0x00\n      0x00\n        /* \"val59.sol\":5539:5560  lastSuccess = success */\n      0x0100\n      exp\n      dup2\n      sload\n      dup2\n      0xff\n      mul\n      not\n      and\n      swap1\n      dup4\n      iszero\n      iszero\n      mul\n      or\n      swap1\n      sstore\n      pop\n        /* \"val59.sol\":5584:5588  data */\n      dup1\n        /* \"val59.sol\":5573:5581  lastData */\n      0x01\n        /* \"val59.sol\":5573:5588  lastData = data */\n      swap1\n      dup2\n      tag_48\n      swap2\n      swap1\n      tag_49\n      jump\t// in\n    tag_48:\n      pop\n        /* \"val59.sol\":5687:5694  success */\n      dup2\n        /* \"val59.sol\":5665:5743  require(... */\n      tag_50\n      jumpi\n      mload(0x40)\n      0x08c379a000000000000000000000000000000000000000000000000000000000\n      dup2\n      mstore\n      0x04\n      add\n      tag_51\n      swap1\n      tag_52\n      jump\t// in\n    tag_51:\n      mload(0x40)\n      dup1\n      swap2\n      sub\n      swap1\n      revert\n    tag_50:\n        /* \"val59.sol\":5289:5751  {... */\n      pop\n      pop\n        /* \"val59.sol\":5191:5751  function sendETH(... */\n      pop\n      jump\t// out\n        /* \"val59.sol\":3138:3161  bool public lastSuccess */\n    tag_19:\n      0x00\n      0x00\n      swap1\n      sload\n      swap1\n      0x0100\n      exp\n      swap1\n      div\n      0xff\n      and\n      dup2\n      jump\t// out\n        /* \"val59.sol\":3396:4093  function safeExternalCall(... */\n    tag_26:\n        /* \"val59.sol\":3560:3572  localCounter */\n      0x02\n      0x00\n        /* \"val59.sol\":3560:3574  localCounter++ */\n      dup2\n      sload\n      dup1\n      swap3\n      swap2\n      swap1\n      tag_54\n      swap1\n      tag_55\n      jump\t// in\n    tag_54:\n      swap2\n      swap1\n      pop\n      sstore\n      pop\n        /* \"val59.sol\":3650:3662  bool success */\n      0x00\n        /* \"val59.sol\":3664:3681  bytes memory data */\n      0x00\n        /* \"val59.sol\":3698:3705  _target */\n      dup3\n        /* \"val59.sol\":3698:3710  _target.call */\n      0xffffffffffffffffffffffffffffffffffffffff\n      and\n        /* \"val59.sol\":3729:3812  abi.encodeWithSignature(... */\n      add(0x24, mload(0x40))\n      mload(0x40)\n      0x20\n      dup2\n      dup4\n      sub\n      sub\n      dup2\n      mstore\n      swap1\n      0x40\n      mstore\n      and(not(0xffffffffffffffffffffffffffffffffffffffffffffffffffffffff), 0xd67e4b8400000000000000000000000000000000000000000000000000000000)\n      0x20\n      dup3\n      add\n      dup1\n      mload\n      0xffffffffffffffffffffffffffffffffffffffffffffffffffffffff\n      dup4\n      dup2\n      dup4\n      and\n      or\n      dup4\n      mstore\n      pop\n      pop\n      pop\n      pop\n        /* \"val59.sol\":3698:3827  _target.call(... */\n      mload(0x40)\n      tag_56\n      swap2\n      swap1\n      tag_57\n      jump\t// in\n    tag_56:\n      0x00\n      mload(0x40)\n      dup1\n      dup4\n      sub\n      dup2\n      0x00\n      dup7\n      gas\n      call\n      swap2\n      pop\n      pop\n      returndatasize\n      dup1\n      0x00\n      dup2\n      eq\n      tag_60\n      jumpi\n      mload(0x40)\n      swap2\n      pop\n      and(add(returndatasize, 0x3f), not(0x1f))\n      dup3\n      add\n      0x40\n      mstore\n      returndatasize\n      dup3\n      mstore\n      returndatasize\n      0x00\n      0x20\n      dup5\n      add\n      returndatacopy\n      jump(tag_59)\n    tag_60:\n      0x60\n      swap2\n      pop\n    tag_59:\n      pop\n        /* \"val59.sol\":3649:3827  (bool success, bytes memory data) =... */\n      swap2\n      pop\n      swap2\n      pop\n        /* \"val59.sol\":3906:3913  success */\n      dup2\n        /* \"val59.sol\":3892:3903  lastSuccess */\n      0x00\n      0x00\n        /* \"val59.sol\":3892:3913  lastSuccess = success */\n      0x0100\n      exp\n      dup2\n      sload\n      dup2\n      0xff\n      mul\n      not\n      and\n      swap1\n      dup4\n      iszero\n      iszero\n      mul\n      or\n      swap1\n      sstore\n      pop\n        /* \"val59.sol\":3937:3941  data */\n      dup1\n        /* \"val59.sol\":3926:3934  lastData */\n      0x01\n        /* \"val59.sol\":3926:3941  lastData = data */\n      swap1\n      dup2\n      tag_61\n      swap2\n      swap1\n      tag_49\n      jump\t// in\n    tag_61:\n      pop\n        /* \"val59.sol\":4030:4037  success */\n      dup2\n        /* \"val59.sol\":4008:4085  require(... */\n      tag_62\n      jumpi\n      mload(0x40)\n      0x08c379a000000000000000000000000000000000000000000000000000000000\n      dup2\n      mstore\n      0x04\n      add\n      tag_63\n      swap1\n      tag_64\n      jump\t// in\n    tag_63:\n      mload(0x40)\n      dup1\n      swap2\n      sub\n      swap1\n      revert\n    tag_62:\n        /* \"val59.sol\":3478:4093  {... */\n      pop\n      pop\n        /* \"val59.sol\":3396:4093  function safeExternalCall(... */\n      pop\n      jump\t// out\n        /* \"val59.sol\":4264:5021  function triggerFailure(... */\n    tag_30:\n        /* \"val59.sol\":4420:4432  localCounter */\n      0x02\n      0x00\n        /* \"val59.sol\":4420:4434  localCounter++ */\n      dup2\n      sload\n      dup1\n      swap3\n      swap2\n      swap1\n      tag_66\n      swap1\n      tag_55\n      jump\t// in\n    tag_66:\n      swap2\n      swap1\n      pop\n      sstore\n      pop\n        /* \"val59.sol\":4510:4522  bool success */\n      0x00\n        /* \"val59.sol\":4524:4541  bytes memory data */\n      0x00\n        /* \"val59.sol\":4558:4565  _target */\n      dup3\n        /* \"val59.sol\":4558:4570  _target.call */\n      0xffffffffffffffffffffffffffffffffffffffff\n      and\n        /* \"val59.sol\":4589:4668  abi.encodeWithSignature(... */\n      add(0x24, mload(0x40))\n      mload(0x40)\n      0x20\n      dup2\n      dup4\n      sub\n      sub\n      dup2\n      mstore\n      swap1\n      0x40\n      mstore\n      and(not(0xffffffffffffffffffffffffffffffffffffffffffffffffffffffff), 0x1a35285100000000000000000000000000000000000000000000000000000000)\n      0x20\n      dup3\n      add\n      dup1\n      mload\n      0xffffffffffffffffffffffffffffffffffffffffffffffffffffffff\n      dup4\n      dup2\n      dup4\n      and\n      or\n      dup4\n      mstore\n      pop\n      pop\n      pop\n      pop\n        /* \"val59.sol\":4558:4683  _target.call(... */\n      mload(0x40)\n      tag_67\n      swap2\n      swap1\n      tag_57\n      jump\t// in\n    tag_67:\n      0x00\n      mload(0x40)\n      dup1\n      dup4\n      sub\n      dup2\n      0x00\n      dup7\n      gas\n      call\n      swap2\n      pop\n      pop\n      returndatasize\n      dup1\n      0x00\n      dup2\n      eq\n      tag_70\n      jumpi\n      mload(0x40)\n      swap2\n      pop\n      and(add(returndatasize, 0x3f), not(0x1f))\n      dup3\n      add\n      0x40\n      mstore\n      returndatasize\n      dup3\n      mstore\n      returndatasize\n      0x00\n      0x20\n      dup5\n      add\n      returndatacopy\n      jump(tag_69)\n    tag_70:\n      0x60\n      swap2\n      pop\n    tag_69:\n      pop\n        /* \"val59.sol\":4509:4683  (bool success, bytes memory data) =... */\n      swap2\n      pop\n      swap2\n      pop\n        /* \"val59.sol\":4761:4768  success */\n      dup2\n        /* \"val59.sol\":4747:4758  lastSuccess */\n      0x00\n      0x00\n        /* \"val59.sol\":4747:4768  lastSuccess = success */\n      0x0100\n      exp\n      dup2\n      sload\n      dup2\n      0xff\n      mul\n      not\n      and\n      swap1\n      dup4\n      iszero\n      iszero\n      mul\n      or\n      swap1\n      sstore\n      pop\n        /* \"val59.sol\":4792:4796  data */\n      dup1\n        /* \"val59.sol\":4781:4789  lastData */\n      0x01\n        /* \"val59.sol\":4781:4796  lastData = data */\n      swap1\n      dup2\n      tag_71\n      swap2\n      swap1\n      tag_49\n      jump\t// in\n    tag_71:\n      pop\n        /* \"val59.sol\":4957:4964  success */\n      dup2\n        /* \"val59.sol\":4935:5013  require(... */\n      tag_72\n      jumpi\n      mload(0x40)\n      0x08c379a000000000000000000000000000000000000000000000000000000000\n      dup2\n      mstore\n      0x04\n      add\n      tag_73\n      swap1\n      tag_74\n      jump\t// in\n    tag_73:\n      mload(0x40)\n      dup1\n      swap2\n      sub\n      swap1\n      revert\n    tag_72:\n        /* \"val59.sol\":4344:5021  {... */\n      pop\n      pop\n        /* \"val59.sol\":4264:5021  function triggerFailure(... */\n      pop\n      jump\t// out\n        /* \"val59.sol\":3200:3227  uint256 public localCounter */\n    tag_33:\n      sload(0x02)\n      dup2\n      jump\t// out\n        /* \"#utility.yul\":7:105   */\n    tag_75:\n        /* \"#utility.yul\":58:64   */\n      0x00\n        /* \"#utility.yul\":92:97   */\n      dup2\n        /* \"#utility.yul\":86:98   */\n      mload\n        /* \"#utility.yul\":76:98   */\n      swap1\n      pop\n        /* \"#utility.yul\":7:105   */\n      swap2\n      swap1\n      pop\n      jump\t// out\n        /* \"#utility.yul\":111:279   */\n    tag_76:\n        /* \"#utility.yul\":194:205   */\n      0x00\n        /* \"#utility.yul\":228:234   */\n      dup3\n        /* \"#utility.yul\":223:226   */\n      dup3\n        /* \"#utility.yul\":216:235   */\n      mstore\n        /* \"#utility.yul\":268:272   */\n      0x20\n        /* \"#utility.yul\":263:266   */\n      dup3\n        /* \"#utility.yul\":259:273   */\n      add\n        /* \"#utility.yul\":244:273   */\n      swap1\n      pop\n        /* \"#utility.yul\":111:279   */\n      swap3\n      swap2\n      pop\n      pop\n      jump\t// out\n        /* \"#utility.yul\":285:424   */\n    tag_77:\n        /* \"#utility.yul\":374:380   */\n      dup3\n        /* \"#utility.yul\":369:372   */\n      dup2\n        /* \"#utility.yul\":364:367   */\n      dup4\n        /* \"#utility.yul\":358:381   */\n      mcopy\n        /* \"#utility.yul\":415:416   */\n      0x00\n        /* \"#utility.yul\":406:412   */\n      dup4\n        /* \"#utility.yul\":401:404   */\n      dup4\n        /* \"#utility.yul\":397:413   */\n      add\n        /* \"#utility.yul\":390:417   */\n      mstore\n        /* \"#utility.yul\":285:424   */\n      pop\n      pop\n      pop\n      jump\t// out\n        /* \"#utility.yul\":430:532   */\n    tag_78:\n        /* \"#utility.yul\":471:477   */\n      0x00\n        /* \"#utility.yul\":522:524   */\n      0x1f\n        /* \"#utility.yul\":518:525   */\n      not\n        /* \"#utility.yul\":513:515   */\n      0x1f\n        /* \"#utility.yul\":506:511   */\n      dup4\n        /* \"#utility.yul\":502:516   */\n      add\n        /* \"#utility.yul\":498:526   */\n      and\n        /* \"#utility.yul\":488:526   */\n      swap1\n      pop\n        /* \"#utility.yul\":430:532   */\n      swap2\n      swap1\n      pop\n      jump\t// out\n        /* \"#utility.yul\":538:911   */\n    tag_79:\n        /* \"#utility.yul\":624:627   */\n      0x00\n        /* \"#utility.yul\":652:690   */\n      tag_129\n        /* \"#utility.yul\":684:689   */\n      dup3\n        /* \"#utility.yul\":652:690   */\n      tag_75\n      jump\t// in\n    tag_129:\n        /* \"#utility.yul\":706:776   */\n      tag_130\n        /* \"#utility.yul\":769:775   */\n      dup2\n        /* \"#utility.yul\":764:767   */\n      dup6\n        /* \"#utility.yul\":706:776   */\n      tag_76\n      jump\t// in\n    tag_130:\n        /* \"#utility.yul\":699:776   */\n      swap4\n      pop\n        /* \"#utility.yul\":785:850   */\n      tag_131\n        /* \"#utility.yul\":843:849   */\n      dup2\n        /* \"#utility.yul\":838:841   */\n      dup6\n        /* \"#utility.yul\":831:835   */\n      0x20\n        /* \"#utility.yul\":824:829   */\n      dup7\n        /* \"#utility.yul\":820:836   */\n      add\n        /* \"#utility.yul\":785:850   */\n      tag_77\n      jump\t// in\n    tag_131:\n        /* \"#utility.yul\":875:904   */\n      tag_132\n        /* \"#utility.yul\":897:903   */\n      dup2\n        /* \"#utility.yul\":875:904   */\n      tag_78\n      jump\t// in\n    tag_132:\n        /* \"#utility.yul\":870:873   */\n      dup5\n        /* \"#utility.yul\":866:905   */\n      add\n        /* \"#utility.yul\":859:905   */\n      swap2\n      pop\n        /* \"#utility.yul\":628:911   */\n      pop\n        /* \"#utility.yul\":538:911   */\n      swap3\n      swap2\n      pop\n      pop\n      jump\t// out\n        /* \"#utility.yul\":917:1226   */\n    tag_12:\n        /* \"#utility.yul\":1028:1032   */\n      0x00\n        /* \"#utility.yul\":1066:1068   */\n      0x20\n        /* \"#utility.yul\":1055:1064   */\n      dup3\n        /* \"#utility.yul\":1051:1069   */\n      add\n        /* \"#utility.yul\":1043:1069   */\n      swap1\n      pop\n        /* \"#utility.yul\":1115:1124   */\n      dup2\n        /* \"#utility.yul\":1109:1113   */\n      dup2\n        /* \"#utility.yul\":1105:1125   */\n      sub\n        /* \"#utility.yul\":1101:1102   */\n      0x00\n        /* \"#utility.yul\":1090:1099   */\n      dup4\n        /* \"#utility.yul\":1086:1103   */\n      add\n        /* \"#utility.yul\":1079:1126   */\n      mstore\n        /* \"#utility.yul\":1143:1219   */\n      tag_134\n        /* \"#utility.yul\":1214:1218   */\n      dup2\n        /* \"#utility.yul\":1205:1211   */\n      dup5\n        /* \"#utility.yul\":1143:1219   */\n      tag_79\n      jump\t// in\n    tag_134:\n        /* \"#utility.yul\":1135:1219   */\n      swap1\n      pop\n        /* \"#utility.yul\":917:1226   */\n      swap3\n      swap2\n      pop\n      pop\n      jump\t// out\n        /* \"#utility.yul\":1313:1430   */\n    tag_81:\n        /* \"#utility.yul\":1422:1423   */\n      0x00\n        /* \"#utility.yul\":1419:1420   */\n      0x00\n        /* \"#utility.yul\":1412:1424   */\n      revert\n        /* \"#utility.yul\":1559:1685   */\n    tag_83:\n        /* \"#utility.yul\":1596:1603   */\n      0x00\n        /* \"#utility.yul\":1636:1678   */\n      0xffffffffffffffffffffffffffffffffffffffff\n        /* \"#utility.yul\":1629:1634   */\n      dup3\n        /* \"#utility.yul\":1625:1679   */\n      and\n        /* \"#utility.yul\":1614:1679   */\n      swap1\n      pop\n        /* \"#utility.yul\":1559:1685   */\n      swap2\n      swap1\n      pop\n      jump\t// out\n        /* \"#utility.yul\":1691:1795   */\n    tag_84:\n        /* \"#utility.yul\":1736:1743   */\n      0x00\n        /* \"#utility.yul\":1765:1789   */\n      tag_140\n        /* \"#utility.yul\":1783:1788   */\n      dup3\n        /* \"#utility.yul\":1765:1789   */\n      tag_83\n      jump\t// in\n    tag_140:\n        /* \"#utility.yul\":1754:1789   */\n      swap1\n      pop\n        /* \"#utility.yul\":1691:1795   */\n      swap2\n      swap1\n      pop\n      jump\t// out\n        /* \"#utility.yul\":1801:1939   */\n    tag_85:\n        /* \"#utility.yul\":1882:1914   */\n      tag_142\n        /* \"#utility.yul\":1908:1913   */\n      dup2\n        /* \"#utility.yul\":1882:1914   */\n      tag_84\n      jump\t// in\n    tag_142:\n        /* \"#utility.yul\":1875:1880   */\n      dup2\n        /* \"#utility.yul\":1872:1915   */\n      eq\n        /* \"#utility.yul\":1862:1933   */\n      tag_143\n      jumpi\n        /* \"#utility.yul\":1929:1930   */\n      0x00\n        /* \"#utility.yul\":1926:1927   */\n      0x00\n        /* \"#utility.yul\":1919:1931   */\n      revert\n        /* \"#utility.yul\":1862:1933   */\n    tag_143:\n        /* \"#utility.yul\":1801:1939   */\n      pop\n      jump\t// out\n        /* \"#utility.yul\":1945:2100   */\n    tag_86:\n        /* \"#utility.yul\":1999:2004   */\n      0x00\n        /* \"#utility.yul\":2037:2043   */\n      dup2\n        /* \"#utility.yul\":2024:2044   */\n      calldataload\n        /* \"#utility.yul\":2015:2044   */\n      swap1\n      pop\n        /* \"#utility.yul\":2053:2094   */\n      tag_145\n        /* \"#utility.yul\":2088:2093   */\n      dup2\n        /* \"#utility.yul\":2053:2094   */\n      tag_85\n      jump\t// in\n    tag_145:\n        /* \"#utility.yul\":1945:2100   */\n      swap3\n      swap2\n      pop\n      pop\n      jump\t// out\n        /* \"#utility.yul\":2106:2451   */\n    tag_15:\n        /* \"#utility.yul\":2173:2179   */\n      0x00\n        /* \"#utility.yul\":2222:2224   */\n      0x20\n        /* \"#utility.yul\":2210:2219   */\n      dup3\n        /* \"#utility.yul\":2201:2208   */\n      dup5\n        /* \"#utility.yul\":2197:2220   */\n      sub\n        /* \"#utility.yul\":2193:2225   */\n      slt\n        /* \"#utility.yul\":2190:2309   */\n      iszero\n      tag_147\n      jumpi\n        /* \"#utility.yul\":2228:2307   */\n      tag_148\n      tag_81\n      jump\t// in\n    tag_148:\n        /* \"#utility.yul\":2190:2309   */\n    tag_147:\n        /* \"#utility.yul\":2348:2349   */\n      0x00\n        /* \"#utility.yul\":2373:2434   */\n      tag_149\n        /* \"#utility.yul\":2426:2433   */\n      dup5\n        /* \"#utility.yul\":2417:2423   */\n      dup3\n        /* \"#utility.yul\":2406:2415   */\n      dup6\n        /* \"#utility.yul\":2402:2424   */\n      add\n        /* \"#utility.yul\":2373:2434   */\n      tag_86\n      jump\t// in\n    tag_149:\n        /* \"#utility.yul\":2363:2434   */\n      swap2\n      pop\n        /* \"#utility.yul\":2319:2444   */\n      pop\n        /* \"#utility.yul\":2106:2451   */\n      swap3\n      swap2\n      pop\n      pop\n      jump\t// out\n        /* \"#utility.yul\":2457:2547   */\n    tag_87:\n        /* \"#utility.yul\":2491:2498   */\n      0x00\n        /* \"#utility.yul\":2534:2539   */\n      dup2\n        /* \"#utility.yul\":2527:2540   */\n      iszero\n        /* \"#utility.yul\":2520:2541   */\n      iszero\n        /* \"#utility.yul\":2509:2541   */\n      swap1\n      pop\n        /* \"#utility.yul\":2457:2547   */\n      swap2\n      swap1\n      pop\n      jump\t// out\n        /* \"#utility.yul\":2553:2662   */\n    tag_88:\n        /* \"#utility.yul\":2634:2655   */\n      tag_152\n        /* \"#utility.yul\":2649:2654   */\n      dup2\n        /* \"#utility.yul\":2634:2655   */\n      tag_87\n      jump\t// in\n    tag_152:\n        /* \"#utility.yul\":2629:2632   */\n      dup3\n        /* \"#utility.yul\":2622:2656   */\n      mstore\n        /* \"#utility.yul\":2553:2662   */\n      pop\n      pop\n      jump\t// out\n        /* \"#utility.yul\":2668:2878   */\n    tag_21:\n        /* \"#utility.yul\":2755:2759   */\n      0x00\n        /* \"#utility.yul\":2793:2795   */\n      0x20\n        /* \"#utility.yul\":2782:2791   */\n      dup3\n        /* \"#utility.yul\":2778:2796   */\n      add\n        /* \"#utility.yul\":2770:2796   */\n      swap1\n      pop\n        /* \"#utility.yul\":2806:2871   */\n      tag_154\n        /* \"#utility.yul\":2868:2869   */\n      0x00\n        /* \"#utility.yul\":2857:2866   */\n      dup4\n        /* \"#utility.yul\":2853:2870   */\n      add\n        /* \"#utility.yul\":2844:2850   */\n      dup5\n        /* \"#utility.yul\":2806:2871   */\n      tag_88\n      jump\t// in\n    tag_154:\n        /* \"#utility.yul\":2668:2878   */\n      swap3\n      swap2\n      pop\n      pop\n      jump\t// out\n        /* \"#utility.yul\":2884:2980   */\n    tag_89:\n        /* \"#utility.yul\":2921:2928   */\n      0x00\n        /* \"#utility.yul\":2950:2974   */\n      tag_156\n        /* \"#utility.yul\":2968:2973   */\n      dup3\n        /* \"#utility.yul\":2950:2974   */\n      tag_83\n      jump\t// in\n    tag_156:\n        /* \"#utility.yul\":2939:2974   */\n      swap1\n      pop\n        /* \"#utility.yul\":2884:2980   */\n      swap2\n      swap1\n      pop\n      jump\t// out\n        /* \"#utility.yul\":2986:3108   */\n    tag_90:\n        /* \"#utility.yul\":3059:3083   */\n      tag_158\n        /* \"#utility.yul\":3077:3082   */\n      dup2\n        /* \"#utility.yul\":3059:3083   */\n      tag_89\n      jump\t// in\n    tag_158:\n        /* \"#utility.yul\":3052:3057   */\n      dup2\n        /* \"#utility.yul\":3049:3084   */\n      eq\n        /* \"#utility.yul\":3039:3102   */\n      tag_159\n      jumpi\n        /* \"#utility.yul\":3098:3099   */\n      0x00\n        /* \"#utility.yul\":3095:3096   */\n      0x00\n        /* \"#utility.yul\":3088:3100   */\n      revert\n        /* \"#utility.yul\":3039:3102   */\n    tag_159:\n        /* \"#utility.yul\":2986:3108   */\n      pop\n      jump\t// out\n        /* \"#utility.yul\":3114:3253   */\n    tag_91:\n        /* \"#utility.yul\":3160:3165   */\n      0x00\n        /* \"#utility.yul\":3198:3204   */\n      dup2\n        /* \"#utility.yul\":3185:3205   */\n      calldataload\n        /* \"#utility.yul\":3176:3205   */\n      swap1\n      pop\n        /* \"#utility.yul\":3214:3247   */\n      tag_161\n        /* \"#utility.yul\":3241:3246   */\n      dup2\n        /* \"#utility.yul\":3214:3247   */\n      tag_90\n      jump\t// in\n    tag_161:\n        /* \"#utility.yul\":3114:3253   */\n      swap3\n      swap2\n      pop\n      pop\n      jump\t// out\n        /* \"#utility.yul\":3259:3588   */\n    tag_25:\n        /* \"#utility.yul\":3318:3324   */\n      0x00\n        /* \"#utility.yul\":3367:3369   */\n      0x20\n        /* \"#utility.yul\":3355:3364   */\n      dup3\n        /* \"#utility.yul\":3346:3353   */\n      dup5\n        /* \"#utility.yul\":3342:3365   */\n      sub\n        /* \"#utility.yul\":3338:3370   */\n      slt\n        /* \"#utility.yul\":3335:3454   */\n      iszero\n      tag_163\n      jumpi\n        /* \"#utility.yul\":3373:3452   */\n      tag_164\n      tag_81\n      jump\t// in\n    tag_164:\n        /* \"#utility.yul\":3335:3454   */\n    tag_163:\n        /* \"#utility.yul\":3493:3494   */\n      0x00\n        /* \"#utility.yul\":3518:3571   */\n      tag_165\n        /* \"#utility.yul\":3563:3570   */\n      dup5\n        /* \"#utility.yul\":3554:3560   */\n      dup3\n        /* \"#utility.yul\":3543:3552   */\n      dup6\n        /* \"#utility.yul\":3539:3561   */\n      add\n        /* \"#utility.yul\":3518:3571   */\n      tag_91\n      jump\t// in\n    tag_165:\n        /* \"#utility.yul\":3508:3571   */\n      swap2\n      pop\n        /* \"#utility.yul\":3464:3581   */\n      pop\n        /* \"#utility.yul\":3259:3588   */\n      swap3\n      swap2\n      pop\n      pop\n      jump\t// out\n        /* \"#utility.yul\":3594:3671   */\n    tag_92:\n        /* \"#utility.yul\":3631:3638   */\n      0x00\n        /* \"#utility.yul\":3660:3665   */\n      dup2\n        /* \"#utility.yul\":3649:3665   */\n      swap1\n      pop\n        /* \"#utility.yul\":3594:3671   */\n      swap2\n      swap1\n      pop\n      jump\t// out\n        /* \"#utility.yul\":3677:3795   */\n    tag_93:\n        /* \"#utility.yul\":3764:3788   */\n      tag_168\n        /* \"#utility.yul\":3782:3787   */\n      dup2\n        /* \"#utility.yul\":3764:3788   */\n      tag_92\n      jump\t// in\n    tag_168:\n        /* \"#utility.yul\":3759:3762   */\n      dup3\n        /* \"#utility.yul\":3752:3789   */\n      mstore\n        /* \"#utility.yul\":3677:3795   */\n      pop\n      pop\n      jump\t// out\n        /* \"#utility.yul\":3801:4023   */\n    tag_35:\n        /* \"#utility.yul\":3894:3898   */\n      0x00\n        /* \"#utility.yul\":3932:3934   */\n      0x20\n        /* \"#utility.yul\":3921:3930   */\n      dup3\n        /* \"#utility.yul\":3917:3935   */\n      add\n        /* \"#utility.yul\":3909:3935   */\n      swap1\n      pop\n        /* \"#utility.yul\":3945:4016   */\n      tag_170\n        /* \"#utility.yul\":4013:4014   */\n      0x00\n        /* \"#utility.yul\":4002:4011   */\n      dup4\n        /* \"#utility.yul\":3998:4015   */\n      add\n        /* \"#utility.yul\":3989:3995   */\n      dup5\n        /* \"#utility.yul\":3945:4016   */\n      tag_93\n      jump\t// in\n    tag_170:\n        /* \"#utility.yul\":3801:4023   */\n      swap3\n      swap2\n      pop\n      pop\n      jump\t// out\n        /* \"#utility.yul\":4029:4209   */\n    tag_94:\n        /* \"#utility.yul\":4077:4154   */\n      0x4e487b7100000000000000000000000000000000000000000000000000000000\n        /* \"#utility.yul\":4074:4075   */\n      0x00\n        /* \"#utility.yul\":4067:4155   */\n      mstore\n        /* \"#utility.yul\":4174:4178   */\n      0x22\n        /* \"#utility.yul\":4171:4172   */\n      0x04\n        /* \"#utility.yul\":4164:4179   */\n      mstore\n        /* \"#utility.yul\":4198:4202   */\n      0x24\n        /* \"#utility.yul\":4195:4196   */\n      0x00\n        /* \"#utility.yul\":4188:4203   */\n      revert\n        /* \"#utility.yul\":4215:4535   */\n    tag_37:\n        /* \"#utility.yul\":4259:4265   */\n      0x00\n        /* \"#utility.yul\":4296:4297   */\n      0x02\n        /* \"#utility.yul\":4290:4294   */\n      dup3\n        /* \"#utility.yul\":4286:4298   */\n      div\n        /* \"#utility.yul\":4276:4298   */\n      swap1\n      pop\n        /* \"#utility.yul\":4343:4344   */\n      0x01\n        /* \"#utility.yul\":4337:4341   */\n      dup3\n        /* \"#utility.yul\":4333:4345   */\n      and\n        /* \"#utility.yul\":4364:4382   */\n      dup1\n        /* \"#utility.yul\":4354:4435   */\n      tag_173\n      jumpi\n        /* \"#utility.yul\":4420:4424   */\n      0x7f\n        /* \"#utility.yul\":4412:4418   */\n      dup3\n        /* \"#utility.yul\":4408:4425   */\n      and\n        /* \"#utility.yul\":4398:4425   */\n      swap2\n      pop\n        /* \"#utility.yul\":4354:4435   */\n    tag_173:\n        /* \"#utility.yul\":4482:4484   */\n      0x20\n        /* \"#utility.yul\":4474:4480   */\n      dup3\n        /* \"#utility.yul\":4471:4485   */\n      lt\n        /* \"#utility.yul\":4451:4469   */\n      dup2\n        /* \"#utility.yul\":4448:4486   */\n      sub\n        /* \"#utility.yul\":4445:4529   */\n      tag_174\n      jumpi\n        /* \"#utility.yul\":4501:4519   */\n      tag_175\n      tag_94\n      jump\t// in\n    tag_175:\n        /* \"#utility.yul\":4445:4529   */\n    tag_174:\n        /* \"#utility.yul\":4266:4535   */\n      pop\n        /* \"#utility.yul\":4215:4535   */\n      swap2\n      swap1\n      pop\n      jump\t// out\n        /* \"#utility.yul\":4541:4688   */\n    tag_95:\n        /* \"#utility.yul\":4642:4653   */\n      0x00\n        /* \"#utility.yul\":4679:4682   */\n      dup2\n        /* \"#utility.yul\":4664:4682   */\n      swap1\n      pop\n        /* \"#utility.yul\":4541:4688   */\n      swap3\n      swap2\n      pop\n      pop\n      jump\t// out\n        /* \"#utility.yul\":4694:4808   */\n    tag_96:\n      pop\n      jump\t// out\n        /* \"#utility.yul\":4814:5212   */\n    tag_97:\n        /* \"#utility.yul\":4973:4976   */\n      0x00\n        /* \"#utility.yul\":4994:5077   */\n      tag_179\n        /* \"#utility.yul\":5075:5076   */\n      0x00\n        /* \"#utility.yul\":5070:5073   */\n      dup4\n        /* \"#utility.yul\":4994:5077   */\n      tag_95\n      jump\t// in\n    tag_179:\n        /* \"#utility.yul\":4987:5077   */\n      swap2\n      pop\n        /* \"#utility.yul\":5086:5179   */\n      tag_180\n        /* \"#utility.yul\":5175:5178   */\n      dup3\n        /* \"#utility.yul\":5086:5179   */\n      tag_96\n      jump\t// in\n    tag_180:\n        /* \"#utility.yul\":5204:5205   */\n      0x00\n        /* \"#utility.yul\":5199:5202   */\n      dup3\n        /* \"#utility.yul\":5195:5206   */\n      add\n        /* \"#utility.yul\":5188:5206   */\n      swap1\n      pop\n        /* \"#utility.yul\":4814:5212   */\n      swap2\n      swap1\n      pop\n      jump\t// out\n        /* \"#utility.yul\":5218:5597   */\n    tag_44:\n        /* \"#utility.yul\":5402:5405   */\n      0x00\n        /* \"#utility.yul\":5424:5571   */\n      tag_182\n        /* \"#utility.yul\":5567:5570   */\n      dup3\n        /* \"#utility.yul\":5424:5571   */\n      tag_97\n      jump\t// in\n    tag_182:\n        /* \"#utility.yul\":5417:5571   */\n      swap2\n      pop\n        /* \"#utility.yul\":5588:5591   */\n      dup2\n        /* \"#utility.yul\":5581:5591   */\n      swap1\n      pop\n        /* \"#utility.yul\":5218:5597   */\n      swap2\n      swap1\n      pop\n      jump\t// out\n        /* \"#utility.yul\":5603:5783   */\n    tag_98:\n        /* \"#utility.yul\":5651:5728   */\n      0x4e487b7100000000000000000000000000000000000000000000000000000000\n        /* \"#utility.yul\":5648:5649   */\n      0x00\n        /* \"#utility.yul\":5641:5729   */\n      mstore\n        /* \"#utility.yul\":5748:5752   */\n      0x41\n        /* \"#utility.yul\":5745:5746   */\n      0x04\n        /* \"#utility.yul\":5738:5753   */\n      mstore\n        /* \"#utility.yul\":5772:5776   */\n      0x24\n        /* \"#utility.yul\":5769:5770   */\n      0x00\n        /* \"#utility.yul\":5762:5777   */\n      revert\n        /* \"#utility.yul\":5789:5929   */\n    tag_99:\n        /* \"#utility.yul\":5837:5841   */\n      0x00\n        /* \"#utility.yul\":5860:5863   */\n      dup2\n        /* \"#utility.yul\":5852:5863   */\n      swap1\n      pop\n        /* \"#utility.yul\":5883:5886   */\n      dup2\n        /* \"#utility.yul\":5880:5881   */\n      0x00\n        /* \"#utility.yul\":5873:5887   */\n      mstore\n        /* \"#utility.yul\":5917:5921   */\n      0x20\n        /* \"#utility.yul\":5914:5915   */\n      0x00\n        /* \"#utility.yul\":5904:5922   */\n      keccak256\n        /* \"#utility.yul\":5896:5922   */\n      swap1\n      pop\n        /* \"#utility.yul\":5789:5929   */\n      swap2\n      swap1\n      pop\n      jump\t// out\n        /* \"#utility.yul\":5935:6028   */\n    tag_100:\n        /* \"#utility.yul\":5972:5978   */\n      0x00\n        /* \"#utility.yul\":6019:6021   */\n      0x20\n        /* \"#utility.yul\":6014:6016   */\n      0x1f\n        /* \"#utility.yul\":6007:6012   */\n      dup4\n        /* \"#utility.yul\":6003:6017   */\n      add\n        /* \"#utility.yul\":5999:6022   */\n      div\n        /* \"#utility.yul\":5989:6022   */\n      swap1\n      pop\n        /* \"#utility.yul\":5935:6028   */\n      swap2\n      swap1\n      pop\n      jump\t// out\n        /* \"#utility.yul\":6034:6141   */\n    tag_101:\n        /* \"#utility.yul\":6078:6086   */\n      0x00\n        /* \"#utility.yul\":6128:6133   */\n      dup3\n        /* \"#utility.yul\":6122:6126   */\n      dup3\n        /* \"#utility.yul\":6118:6134   */\n      shl\n        /* \"#utility.yul\":6097:6134   */\n      swap1\n      pop\n        /* \"#utility.yul\":6034:6141   */\n      swap3\n      swap2\n      pop\n      pop\n      jump\t// out\n        /* \"#utility.yul\":6147:6540   */\n    tag_102:\n        /* \"#utility.yul\":6216:6222   */\n      0x00\n        /* \"#utility.yul\":6266:6267   */\n      0x08\n        /* \"#utility.yul\":6254:6264   */\n      dup4\n        /* \"#utility.yul\":6250:6268   */\n      mul\n        /* \"#utility.yul\":6289:6386   */\n      tag_188\n        /* \"#utility.yul\":6319:6385   */\n      0xffffffffffffffffffffffffffffffffffffffffffffffffffffffffffffffff\n        /* \"#utility.yul\":6308:6317   */\n      dup3\n        /* \"#utility.yul\":6289:6386   */\n      tag_101\n      jump\t// in\n    tag_188:\n        /* \"#utility.yul\":6407:6446   */\n      tag_189\n        /* \"#utility.yul\":6437:6445   */\n      dup7\n        /* \"#utility.yul\":6426:6435   */\n      dup4\n        /* \"#utility.yul\":6407:6446   */\n      tag_101\n      jump\t// in\n    tag_189:\n        /* \"#utility.yul\":6395:6446   */\n      swap6\n      pop\n        /* \"#utility.yul\":6479:6483   */\n      dup1\n        /* \"#utility.yul\":6475:6484   */\n      not\n        /* \"#utility.yul\":6468:6473   */\n      dup5\n        /* \"#utility.yul\":6464:6485   */\n      and\n        /* \"#utility.yul\":6455:6485   */\n      swap4\n      pop\n        /* \"#utility.yul\":6528:6532   */\n      dup1\n        /* \"#utility.yul\":6518:6526   */\n      dup7\n        /* \"#utility.yul\":6514:6533   */\n      and\n        /* \"#utility.yul\":6507:6512   */\n      dup5\n        /* \"#utility.yul\":6504:6534   */\n      or\n        /* \"#utility.yul\":6494:6534   */\n      swap3\n      pop\n        /* \"#utility.yul\":6223:6540   */\n      pop\n      pop\n        /* \"#utility.yul\":6147:6540   */\n      swap4\n      swap3\n      pop\n      pop\n      pop\n      jump\t// out\n        /* \"#utility.yul\":6546:6606   */\n    tag_103:\n        /* \"#utility.yul\":6574:6577   */\n      0x00\n        /* \"#utility.yul\":6595:6600   */\n      dup2\n        /* \"#utility.yul\":6588:6600   */\n      swap1\n      pop\n        /* \"#utility.yul\":6546:6606   */\n      swap2\n      swap1\n      pop\n      jump\t// out\n        /* \"#utility.yul\":6612:6754   */\n    tag_104:\n        /* \"#utility.yul\":6662:6671   */\n      0x00\n        /* \"#utility.yul\":6695:6748   */\n      tag_192\n        /* \"#utility.yul\":6713:6747   */\n      tag_193\n        /* \"#utility.yul\":6722:6746   */\n      tag_194\n        /* \"#utility.yul\":6740:6745   */\n      dup5\n        /* \"#utility.yul\":6722:6746   */\n      tag_92\n      jump\t// in\n    tag_194:\n        /* \"#utility.yul\":6713:6747   */\n      tag_103\n      jump\t// in\n    tag_193:\n        /* \"#utility.yul\":6695:6748   */\n      tag_92\n      jump\t// in\n    tag_192:\n        /* \"#utility.yul\":6682:6748   */\n      swap1\n      pop\n        /* \"#utility.yul\":6612:6754   */\n      swap2\n      swap1\n      pop\n      jump\t// out\n        /* \"#utility.yul\":6760:6835   */\n    tag_105:\n        /* \"#utility.yul\":6803:6806   */\n      0x00\n        /* \"#utility.yul\":6824:6829   */\n      dup2\n        /* \"#utility.yul\":6817:6829   */\n      swap1\n      pop\n        /* \"#utility.yul\":6760:6835   */\n      swap2\n      swap1\n      pop\n      jump\t// out\n        /* \"#utility.yul\":6841:7110   */\n    tag_106:\n        /* \"#utility.yul\":6951:6990   */\n      tag_197\n        /* \"#utility.yul\":6982:6989   */\n      dup4\n        /* \"#utility.yul\":6951:6990   */\n      tag_104\n      jump\t// in\n    tag_197:\n        /* \"#utility.yul\":7012:7103   */\n      tag_198\n        /* \"#utility.yul\":7061:7102   */\n      tag_199\n        /* \"#utility.yul\":7085:7101   */\n      dup3\n        /* \"#utility.yul\":7061:7102   */\n      tag_105\n      jump\t// in\n    tag_199:\n        /* \"#utility.yul\":7053:7059   */\n      dup5\n        /* \"#utility.yul\":7046:7050   */\n      dup5\n        /* \"#utility.yul\":7040:7051   */\n      sload\n        /* \"#utility.yul\":7012:7103   */\n      tag_102\n      jump\t// in\n    tag_198:\n        /* \"#utility.yul\":7006:7010   */\n      dup3\n        /* \"#utility.yul\":6999:7104   */\n      sstore\n        /* \"#utility.yul\":6917:7110   */\n      pop\n        /* \"#utility.yul\":6841:7110   */\n      pop\n      pop\n      pop\n      jump\t// out\n        /* \"#utility.yul\":7116:7189   */\n    tag_107:\n        /* \"#utility.yul\":7161:7164   */\n      0x00\n        /* \"#utility.yul\":7182:7183   */\n      0x00\n        /* \"#utility.yul\":7175:7183   */\n      swap1\n      pop\n        /* \"#utility.yul\":7116:7189   */\n      swap1\n      jump\t// out\n        /* \"#utility.yul\":7195:7384   */\n    tag_108:\n        /* \"#utility.yul\":7272:7304   */\n      tag_202\n      tag_107\n      jump\t// in\n    tag_202:\n        /* \"#utility.yul\":7313:7378   */\n      tag_203\n        /* \"#utility.yul\":7371:7377   */\n      dup2\n        /* \"#utility.yul\":7363:7369   */\n      dup5\n        /* \"#utility.yul\":7357:7361   */\n      dup5\n        /* \"#utility.yul\":7313:7378   */\n      tag_106\n      jump\t// in\n    tag_203:\n        /* \"#utility.yul\":7248:7384   */\n      pop\n        /* \"#utility.yul\":7195:7384   */\n      pop\n      pop\n      jump\t// out\n        /* \"#utility.yul\":7390:7604   */\n    tag_109:\n        /* \"#utility.yul\":7475:7476   */\n      0x00\n        /* \"#utility.yul\":7460:7598   */\n    tag_205:\n        /* \"#utility.yul\":7485:7494   */\n      dup3\n        /* \"#utility.yul\":7482:7483   */\n      dup2\n        /* \"#utility.yul\":7479:7495   */\n      lt\n        /* \"#utility.yul\":7460:7598   */\n      iszero\n      tag_207\n      jumpi\n        /* \"#utility.yul\":7537:7588   */\n      tag_208\n        /* \"#utility.yul\":7586:7587   */\n      0x00\n        /* \"#utility.yul\":7582:7583   */\n      dup3\n        /* \"#utility.yul\":7571:7580   */\n      dup5\n        /* \"#utility.yul\":7567:7584   */\n      add\n        /* \"#utility.yul\":7537:7588   */\n      tag_108\n      jump\t// in\n    tag_208:\n        /* \"#utility.yul\":7510:7511   */\n      0x01\n        /* \"#utility.yul\":7507:7508   */\n      dup2\n        /* \"#utility.yul\":7503:7512   */\n      add\n        /* \"#utility.yul\":7498:7512   */\n      swap1\n      pop\n        /* \"#utility.yul\":7460:7598   */\n      jump(tag_205)\n    tag_207:\n        /* \"#utility.yul\":7464:7478   */\n      pop\n        /* \"#utility.yul\":7390:7604   */\n      pop\n      pop\n      jump\t// out\n        /* \"#utility.yul\":7610:8354   */\n    tag_110:\n        /* \"#utility.yul\":7710:7712   */\n      0x1f\n        /* \"#utility.yul\":7705:7708   */\n      dup3\n        /* \"#utility.yul\":7702:7713   */\n      gt\n        /* \"#utility.yul\":7699:8347   */\n      iszero\n      tag_210\n      jumpi\n        /* \"#utility.yul\":7739:7749   */\n      dup3\n        /* \"#utility.yul\":7734:7737   */\n      dup3\n        /* \"#utility.yul\":7731:7750   */\n      gt\n        /* \"#utility.yul\":7728:8337   */\n      iszero\n      tag_211\n      jumpi\n        /* \"#utility.yul\":7785:7822   */\n      tag_212\n        /* \"#utility.yul\":7816:7821   */\n      dup2\n        /* \"#utility.yul\":7785:7822   */\n      tag_99\n      jump\t// in\n    tag_212:\n        /* \"#utility.yul\":7859:7881   */\n      tag_213\n        /* \"#utility.yul\":7877:7880   */\n      dup4\n        /* \"#utility.yul\":7859:7881   */\n      tag_100\n      jump\t// in\n    tag_213:\n        /* \"#utility.yul\":7918:7947   */\n      tag_214\n        /* \"#utility.yul\":7936:7946   */\n      dup6\n        /* \"#utility.yul\":7918:7947   */\n      tag_100\n      jump\t// in\n    tag_214:\n        /* \"#utility.yul\":8108:8110   */\n      0x20\n        /* \"#utility.yul\":8096:8106   */\n      dup7\n        /* \"#utility.yul\":8093:8111   */\n      lt\n        /* \"#utility.yul\":8090:8169   */\n      iszero\n      tag_215\n      jumpi\n        /* \"#utility.yul\":8150:8151   */\n      0x00\n        /* \"#utility.yul\":8134:8151   */\n      swap1\n      pop\n        /* \"#utility.yul\":8090:8169   */\n    tag_215:\n        /* \"#utility.yul\":8219:8231   */\n      dup1\n        /* \"#utility.yul\":8209:8217   */\n      dup4\n        /* \"#utility.yul\":8205:8232   */\n      add\n        /* \"#utility.yul\":8249:8323   */\n      tag_216\n        /* \"#utility.yul\":8309:8321   */\n      dup3\n        /* \"#utility.yul\":8295:8307   */\n      dup5\n        /* \"#utility.yul\":8291:8322   */\n      sub\n        /* \"#utility.yul\":8278:8289   */\n      dup3\n        /* \"#utility.yul\":8249:8323   */\n      tag_109\n      jump\t// in\n    tag_216:\n        /* \"#utility.yul\":7751:8337   */\n      pop\n      pop\n      pop\n      pop\n        /* \"#utility.yul\":7728:8337   */\n    tag_211:\n        /* \"#utility.yul\":7699:8347   */\n    tag_210:\n        /* \"#utility.yul\":7610:8354   */\n      pop\n      pop\n      pop\n      jump\t// out\n        /* \"#utility.yul\":8360:8477   */\n    tag_111:\n        /* \"#utility.yul\":8414:8422   */\n      0x00\n        /* \"#utility.yul\":8464:8469   */\n      dup3\n        /* \"#utility.yul\":8458:8462   */\n      dup3\n        /* \"#utility.yul\":8454:8470   */\n      shr\n        /* \"#utility.yul\":8433:8470   */\n      swap1\n      pop\n        /* \"#utility.yul\":8360:8477   */\n      swap3\n      swap2\n      pop\n      pop\n      jump\t// out\n        /* \"#utility.yul\":8483:8652   */\n    tag_112:\n        /* \"#utility.yul\":8527:8533   */\n      0x00\n        /* \"#utility.yul\":8560:8611   */\n      tag_219\n        /* \"#utility.yul\":8608:8609   */\n      0x00\n        /* \"#utility.yul\":8604:8610   */\n      not\n        /* \"#utility.yul\":8596:8601   */\n      dup5\n        /* \"#utility.yul\":8593:8594   */\n      0x08\n        /* \"#utility.yul\":8589:8602   */\n      mul\n        /* \"#utility.yul\":8560:8611   */\n      tag_111\n      jump\t// in\n    tag_219:\n        /* \"#utility.yul\":8556:8612   */\n      not\n        /* \"#utility.yul\":8641:8645   */\n      dup1\n        /* \"#utility.yul\":8635:8639   */\n      dup4\n        /* \"#utility.yul\":8631:8646   */\n      and\n        /* \"#utility.yul\":8621:8646   */\n      swap2\n      pop\n        /* \"#utility.yul\":8534:8652   */\n      pop\n        /* \"#utility.yul\":8483:8652   */\n      swap3\n      swap2\n      pop\n      pop\n      jump\t// out\n        /* \"#utility.yul\":8657:8952   */\n    tag_113:\n        /* \"#utility.yul\":8733:8737   */\n      0x00\n        /* \"#utility.yul\":8879:8908   */\n      tag_221\n        /* \"#utility.yul\":8904:8907   */\n      dup4\n        /* \"#utility.yul\":8898:8902   */\n      dup4\n        /* \"#utility.yul\":8879:8908   */\n      tag_112\n      jump\t// in\n    tag_221:\n        /* \"#utility.yul\":8871:8908   */\n      swap2\n      pop\n        /* \"#utility.yul\":8941:8944   */\n      dup3\n        /* \"#utility.yul\":8938:8939   */\n      0x02\n        /* \"#utility.yul\":8934:8945   */\n      mul\n        /* \"#utility.yul\":8928:8932   */\n      dup3\n        /* \"#utility.yul\":8925:8946   */\n      or\n        /* \"#utility.yul\":8917:8946   */\n      swap1\n      pop\n        /* \"#utility.yul\":8657:8952   */\n      swap3\n      swap2\n      pop\n      pop\n      jump\t// out\n        /* \"#utility.yul\":8957:10347   */\n    tag_49:\n        /* \"#utility.yul\":9072:9108   */\n      tag_223\n        /* \"#utility.yul\":9104:9107   */\n      dup3\n        /* \"#utility.yul\":9072:9108   */\n      tag_75\n      jump\t// in\n    tag_223:\n        /* \"#utility.yul\":9173:9191   */\n      0xffffffffffffffff\n        /* \"#utility.yul\":9165:9171   */\n      dup2\n        /* \"#utility.yul\":9162:9192   */\n      gt\n        /* \"#utility.yul\":9159:9215   */\n      iszero\n      tag_224\n      jumpi\n        /* \"#utility.yul\":9195:9213   */\n      tag_225\n      tag_98\n      jump\t// in\n    tag_225:\n        /* \"#utility.yul\":9159:9215   */\n    tag_224:\n        /* \"#utility.yul\":9239:9277   */\n      tag_226\n        /* \"#utility.yul\":9271:9275   */\n      dup3\n        /* \"#utility.yul\":9265:9276   */\n      sload\n        /* \"#utility.yul\":9239:9277   */\n      tag_37\n      jump\t// in\n    tag_226:\n        /* \"#utility.yul\":9324:9390   */\n      tag_227\n        /* \"#utility.yul\":9383:9389   */\n      dup3\n        /* \"#utility.yul\":9375:9381   */\n      dup3\n        /* \"#utility.yul\":9369:9373   */\n      dup6\n        /* \"#utility.yul\":9324:9390   */\n      tag_110\n      jump\t// in\n    tag_227:\n        /* \"#utility.yul\":9417:9418   */\n      0x00\n        /* \"#utility.yul\":9441:9445   */\n      0x20\n        /* \"#utility.yul\":9428:9445   */\n      swap1\n      pop\n        /* \"#utility.yul\":9473:9475   */\n      0x1f\n        /* \"#utility.yul\":9465:9471   */\n      dup4\n        /* \"#utility.yul\":9462:9476   */\n      gt\n        /* \"#utility.yul\":9490:9491   */\n      0x01\n        /* \"#utility.yul\":9485:10102   */\n      dup2\n      eq\n      tag_229\n      jumpi\n        /* \"#utility.yul\":10146:10147   */\n      0x00\n        /* \"#utility.yul\":10163:10169   */\n      dup5\n        /* \"#utility.yul\":10160:10237   */\n      iszero\n      tag_230\n      jumpi\n        /* \"#utility.yul\":10212:10221   */\n      dup3\n        /* \"#utility.yul\":10207:10210   */\n      dup8\n        /* \"#utility.yul\":10203:10222   */\n      add\n        /* \"#utility.yul\":10197:10223   */\n      mload\n        /* \"#utility.yul\":10188:10223   */\n      swap1\n      pop\n        /* \"#utility.yul\":10160:10237   */\n    tag_230:\n        /* \"#utility.yul\":10263:10330   */\n      tag_231\n        /* \"#utility.yul\":10323:10329   */\n      dup6\n        /* \"#utility.yul\":10316:10321   */\n      dup3\n        /* \"#utility.yul\":10263:10330   */\n      tag_113\n      jump\t// in\n    tag_231:\n        /* \"#utility.yul\":10257:10261   */\n      dup7\n        /* \"#utility.yul\":10250:10331   */\n      sstore\n        /* \"#utility.yul\":10119:10341   */\n      pop\n        /* \"#utility.yul\":9455:10341   */\n      jump(tag_228)\n        /* \"#utility.yul\":9485:10102   */\n    tag_229:\n        /* \"#utility.yul\":9537:9541   */\n      0x1f\n        /* \"#utility.yul\":9533:9542   */\n      not\n        /* \"#utility.yul\":9525:9531   */\n      dup5\n        /* \"#utility.yul\":9521:9543   */\n      and\n        /* \"#utility.yul\":9571:9607   */\n      tag_232\n        /* \"#utility.yul\":9602:9606   */\n      dup7\n        /* \"#utility.yul\":9571:9607   */\n      tag_99\n      jump\t// in\n    tag_232:\n        /* \"#utility.yul\":9629:9630   */\n      0x00\n        /* \"#utility.yul\":9643:9851   */\n    tag_233:\n        /* \"#utility.yul\":9657:9664   */\n      dup3\n        /* \"#utility.yul\":9654:9655   */\n      dup2\n        /* \"#utility.yul\":9651:9665   */\n      lt\n        /* \"#utility.yul\":9643:9851   */\n      iszero\n      tag_235\n      jumpi\n        /* \"#utility.yul\":9736:9745   */\n      dup5\n        /* \"#utility.yul\":9731:9734   */\n      dup10\n        /* \"#utility.yul\":9727:9746   */\n      add\n        /* \"#utility.yul\":9721:9747   */\n      mload\n        /* \"#utility.yul\":9713:9719   */\n      dup3\n        /* \"#utility.yul\":9706:9748   */\n      sstore\n        /* \"#utility.yul\":9787:9788   */\n      0x01\n        /* \"#utility.yul\":9779:9785   */\n      dup3\n        /* \"#utility.yul\":9775:9789   */\n      add\n        /* \"#utility.yul\":9765:9789   */\n      swap2\n      pop\n        /* \"#utility.yul\":9834:9836   */\n      0x20\n        /* \"#utility.yul\":9823:9832   */\n      dup6\n        /* \"#utility.yul\":9819:9837   */\n      add\n        /* \"#utility.yul\":9806:9837   */\n      swap5\n      pop\n        /* \"#utility.yul\":9680:9684   */\n      0x20\n        /* \"#utility.yul\":9677:9678   */\n      dup2\n        /* \"#utility.yul\":9673:9685   */\n      add\n        /* \"#utility.yul\":9668:9685   */\n      swap1\n      pop\n        /* \"#utility.yul\":9643:9851   */\n      jump(tag_233)\n    tag_235:\n        /* \"#utility.yul\":9879:9885   */\n      dup7\n        /* \"#utility.yul\":9870:9877   */\n      dup4\n        /* \"#utility.yul\":9867:9886   */\n      lt\n        /* \"#utility.yul\":9864:10043   */\n      iszero\n      tag_236\n      jumpi\n        /* \"#utility.yul\":9937:9946   */\n      dup5\n        /* \"#utility.yul\":9932:9935   */\n      dup10\n        /* \"#utility.yul\":9928:9947   */\n      add\n        /* \"#utility.yul\":9922:9948   */\n      mload\n        /* \"#utility.yul\":9980:10028   */\n      tag_237\n        /* \"#utility.yul\":10022:10026   */\n      0x1f\n        /* \"#utility.yul\":10014:10020   */\n      dup10\n        /* \"#utility.yul\":10010:10027   */\n      and\n        /* \"#utility.yul\":9999:10008   */\n      dup3\n        /* \"#utility.yul\":9980:10028   */\n      tag_112\n      jump\t// in\n    tag_237:\n        /* \"#utility.yul\":9972:9978   */\n      dup4\n        /* \"#utility.yul\":9965:10029   */\n      sstore\n        /* \"#utility.yul\":9887:10043   */\n      pop\n        /* \"#utility.yul\":9864:10043   */\n    tag_236:\n        /* \"#utility.yul\":10089:10090   */\n      0x01\n        /* \"#utility.yul\":10085:10086   */\n      0x02\n        /* \"#utility.yul\":10077:10083   */\n      dup9\n        /* \"#utility.yul\":10073:10087   */\n      mul\n        /* \"#utility.yul\":10069:10091   */\n      add\n        /* \"#utility.yul\":10063:10067   */\n      dup9\n        /* \"#utility.yul\":10056:10092   */\n      sstore\n        /* \"#utility.yul\":9492:10102   */\n      pop\n      pop\n      pop\n        /* \"#utility.yul\":9455:10341   */\n    tag_228:\n      pop\n        /* \"#utility.yul\":9047:10347   */\n      pop\n      pop\n      pop\n        /* \"#utility.yul\":8957:10347   */\n      pop\n      pop\n      jump\t// out\n        /* \"#utility.yul\":10353:10522   */\n    tag_114:\n        /* \"#utility.yul\":10437:10448   */\n      0x00\n        /* \"#utility.yul\":10471:10477   */\n      dup3\n        /* \"#utility.yul\":10466:10469   */\n      dup3\n        /* \"#utility.yul\":10459:10478   */\n      mstore\n        /* \"#utility.yul\":10511:10515   */\n      0x20\n        /* \"#utility.yul\":10506:10509   */\n      dup3\n        /* \"#utility.yul\":10502:10516   */\n      add\n        /* \"#utility.yul\":10487:10516   */\n      swap1\n      pop\n        /* \"#utility.yul\":10353:10522   */\n      swap3\n      swap2\n      pop\n      pop\n      jump\t// out\n        /* \"#utility.yul\":10528:10699   */\n    tag_115:\n        /* \"#utility.yul\":10668:10691   */\n      0x455448207472616e736665722072656a65637465640000000000000000000000\n        /* \"#utility.yul\":10664:10665   */\n      0x00\n        /* \"#utility.yul\":10656:10662   */\n      dup3\n        /* \"#utility.yul\":10652:10666   */\n      add\n        /* \"#utility.yul\":10645:10692   */\n      mstore\n        /* \"#utility.yul\":10528:10699   */\n      pop\n      jump\t// out\n        /* \"#utility.yul\":10705:11071   */\n    tag_116:\n        /* \"#utility.yul\":10847:10850   */\n      0x00\n        /* \"#utility.yul\":10868:10935   */\n      tag_241\n        /* \"#utility.yul\":10932:10934   */\n      0x15\n        /* \"#utility.yul\":10927:10930   */\n      dup4\n        /* \"#utility.yul\":10868:10935   */\n      tag_114\n      jump\t// in\n    tag_241:\n        /* \"#utility.yul\":10861:10935   */\n      swap2\n      pop\n        /* \"#utility.yul\":10944:11037   */\n      tag_242\n        /* \"#utility.yul\":11033:11036   */\n      dup3\n        /* \"#utility.yul\":10944:11037   */\n      tag_115\n      jump\t// in\n    tag_242:\n        /* \"#utility.yul\":11062:11064   */\n      0x20\n        /* \"#utility.yul\":11057:11060   */\n      dup3\n        /* \"#utility.yul\":11053:11065   */\n      add\n        /* \"#utility.yul\":11046:11065   */\n      swap1\n      pop\n        /* \"#utility.yul\":10705:11071   */\n      swap2\n      swap1\n      pop\n      jump\t// out\n        /* \"#utility.yul\":11077:11496   */\n    tag_52:\n        /* \"#utility.yul\":11243:11247   */\n      0x00\n        /* \"#utility.yul\":11281:11283   */\n      0x20\n        /* \"#utility.yul\":11270:11279   */\n      dup3\n        /* \"#utility.yul\":11266:11284   */\n      add\n        /* \"#utility.yul\":11258:11284   */\n      swap1\n      pop\n        /* \"#utility.yul\":11330:11339   */\n      dup2\n        /* \"#utility.yul\":11324:11328   */\n      dup2\n        /* \"#utility.yul\":11320:11340   */\n      sub\n        /* \"#utility.yul\":11316:11317   */\n      0x00\n        /* \"#utility.yul\":11305:11314   */\n      dup4\n        /* \"#utility.yul\":11301:11318   */\n      add\n        /* \"#utility.yul\":11294:11341   */\n      mstore\n        /* \"#utility.yul\":11358:11489   */\n      tag_244\n        /* \"#utility.yul\":11484:11488   */\n      dup2\n        /* \"#utility.yul\":11358:11489   */\n      tag_116\n      jump\t// in\n    tag_244:\n        /* \"#utility.yul\":11350:11489   */\n      swap1\n      pop\n        /* \"#utility.yul\":11077:11496   */\n      swap2\n      swap1\n      pop\n      jump\t// out\n        /* \"#utility.yul\":11502:11682   */\n    tag_117:\n        /* \"#utility.yul\":11550:11627   */\n      0x4e487b7100000000000000000000000000000000000000000000000000000000\n        /* \"#utility.yul\":11547:11548   */\n      0x00\n        /* \"#utility.yul\":11540:11628   */\n      mstore\n        /* \"#utility.yul\":11647:11651   */\n      0x11\n        /* \"#utility.yul\":11644:11645   */\n      0x04\n        /* \"#utility.yul\":11637:11652   */\n      mstore\n        /* \"#utility.yul\":11671:11675   */\n      0x24\n        /* \"#utility.yul\":11668:11669   */\n      0x00\n        /* \"#utility.yul\":11661:11676   */\n      revert\n        /* \"#utility.yul\":11688:11921   */\n    tag_55:\n        /* \"#utility.yul\":11727:11730   */\n      0x00\n        /* \"#utility.yul\":11750:11774   */\n      tag_247\n        /* \"#utility.yul\":11768:11773   */\n      dup3\n        /* \"#utility.yul\":11750:11774   */\n      tag_92\n      jump\t// in\n    tag_247:\n        /* \"#utility.yul\":11741:11774   */\n      swap2\n      pop\n        /* \"#utility.yul\":11796:11862   */\n      0xffffffffffffffffffffffffffffffffffffffffffffffffffffffffffffffff\n        /* \"#utility.yul\":11789:11794   */\n      dup3\n        /* \"#utility.yul\":11786:11863   */\n      sub\n        /* \"#utility.yul\":11783:11886   */\n      tag_248\n      jumpi\n        /* \"#utility.yul\":11866:11884   */\n      tag_249\n      tag_117\n      jump\t// in\n    tag_249:\n        /* \"#utility.yul\":11783:11886   */\n    tag_248:\n        /* \"#utility.yul\":11913:11914   */\n      0x01\n        /* \"#utility.yul\":11906:11911   */\n      dup3\n        /* \"#utility.yul\":11902:11915   */\n      add\n        /* \"#utility.yul\":11895:11915   */\n      swap1\n      pop\n        /* \"#utility.yul\":11688:11921   */\n      swap2\n      swap1\n      pop\n      jump\t// out\n        /* \"#utility.yul\":11927:12313   */\n    tag_118:\n        /* \"#utility.yul\":12031:12034   */\n      0x00\n        /* \"#utility.yul\":12059:12097   */\n      tag_251\n        /* \"#utility.yul\":12091:12096   */\n      dup3\n        /* \"#utility.yul\":12059:12097   */\n      tag_75\n      jump\t// in\n    tag_251:\n        /* \"#utility.yul\":12113:12201   */\n      tag_252\n        /* \"#utility.yul\":12194:12200   */\n      dup2\n        /* \"#utility.yul\":12189:12192   */\n      dup6\n        /* \"#utility.yul\":12113:12201   */\n      tag_95\n      jump\t// in\n    tag_252:\n        /* \"#utility.yul\":12106:12201   */\n      swap4\n      pop\n        /* \"#utility.yul\":12210:12275   */\n      tag_253\n        /* \"#utility.yul\":12268:12274   */\n      dup2\n        /* \"#utility.yul\":12263:12266   */\n      dup6\n        /* \"#utility.yul\":12256:12260   */\n      0x20\n        /* \"#utility.yul\":12249:12254   */\n      dup7\n        /* \"#utility.yul\":12245:12261   */\n      add\n        /* \"#utility.yul\":12210:12275   */\n      tag_77\n      jump\t// in\n    tag_253:\n        /* \"#utility.yul\":12300:12306   */\n      dup1\n        /* \"#utility.yul\":12295:12298   */\n      dup5\n        /* \"#utility.yul\":12291:12307   */\n      add\n        /* \"#utility.yul\":12284:12307   */\n      swap2\n      pop\n        /* \"#utility.yul\":12035:12313   */\n      pop\n        /* \"#utility.yul\":11927:12313   */\n      swap3\n      swap2\n      pop\n      pop\n      jump\t// out\n        /* \"#utility.yul\":12319:12590   */\n    tag_57:\n        /* \"#utility.yul\":12449:12452   */\n      0x00\n        /* \"#utility.yul\":12471:12564   */\n      tag_255\n        /* \"#utility.yul\":12560:12563   */\n      dup3\n        /* \"#utility.yul\":12551:12557   */\n      dup5\n        /* \"#utility.yul\":12471:12564   */\n      tag_118\n      jump\t// in\n    tag_255:\n        /* \"#utility.yul\":12464:12564   */\n      swap2\n      pop\n        /* \"#utility.yul\":12581:12584   */\n      dup2\n        /* \"#utility.yul\":12574:12584   */\n      swap1\n      pop\n        /* \"#utility.yul\":12319:12590   */\n      swap3\n      swap2\n      pop\n      pop\n      jump\t// out\n        /* \"#utility.yul\":12596:12766   */\n    tag_119:\n        /* \"#utility.yul\":12736:12758   */\n      0x45787465726e616c2063616c6c206661696c6564000000000000000000000000\n        /* \"#utility.yul\":12732:12733   */\n      0x00\n        /* \"#utility.yul\":12724:12730   */\n      dup3\n        /* \"#utility.yul\":12720:12734   */\n      add\n        /* \"#utility.yul\":12713:12759   */\n      mstore\n        /* \"#utility.yul\":12596:12766   */\n      pop\n      jump\t// out\n        /* \"#utility.yul\":12772:13138   */\n    tag_120:\n        /* \"#utility.yul\":12914:12917   */\n      0x00\n        /* \"#utility.yul\":12935:13002   */\n      tag_258\n        /* \"#utility.yul\":12999:13001   */\n      0x14\n        /* \"#utility.yul\":12994:12997   */\n      dup4\n        /* \"#utility.yul\":12935:13002   */\n      tag_114\n      jump\t// in\n    tag_258:\n        /* \"#utility.yul\":12928:13002   */\n      swap2\n      pop\n        /* \"#utility.yul\":13011:13104   */\n      tag_259\n        /* \"#utility.yul\":13100:13103   */\n      dup3\n        /* \"#utility.yul\":13011:13104   */\n      tag_119\n      jump\t// in\n    tag_259:\n        /* \"#utility.yul\":13129:13131   */\n      0x20\n        /* \"#utility.yul\":13124:13127   */\n      dup3\n        /* \"#utility.yul\":13120:13132   */\n      add\n        /* \"#utility.yul\":13113:13132   */\n      swap1\n      pop\n        /* \"#utility.yul\":12772:13138   */\n      swap2\n      swap1\n      pop\n      jump\t// out\n        /* \"#utility.yul\":13144:13563   */\n    tag_64:\n        /* \"#utility.yul\":13310:13314   */\n      0x00\n        /* \"#utility.yul\":13348:13350   */\n      0x20\n        /* \"#utility.yul\":13337:13346   */\n      dup3\n        /* \"#utility.yul\":13333:13351   */\n      add\n        /* \"#utility.yul\":13325:13351   */\n      swap1\n      pop\n        /* \"#utility.yul\":13397:13406   */\n      dup2\n        /* \"#utility.yul\":13391:13395   */\n      dup2\n        /* \"#utility.yul\":13387:13407   */\n      sub\n        /* \"#utility.yul\":13383:13384   */\n      0x00\n        /* \"#utility.yul\":13372:13381   */\n      dup4\n        /* \"#utility.yul\":13368:13385   */\n      add\n        /* \"#utility.yul\":13361:13408   */\n      mstore\n        /* \"#utility.yul\":13425:13556   */\n      tag_261\n        /* \"#utility.yul\":13551:13555   */\n      dup2\n        /* \"#utility.yul\":13425:13556   */\n      tag_120\n      jump\t// in\n    tag_261:\n        /* \"#utility.yul\":13417:13556   */\n      swap1\n      pop\n        /* \"#utility.yul\":13144:13563   */\n      swap2\n      swap1\n      pop\n      jump\t// out\n        /* \"#utility.yul\":13569:13740   */\n    tag_121:\n        /* \"#utility.yul\":13709:13732   */\n      0x4c6f772d6c6576656c2063616c6c206661696c65640000000000000000000000\n        /* \"#utility.yul\":13705:13706   */\n      0x00\n        /* \"#utility.yul\":13697:13703   */\n      dup3\n        /* \"#utility.yul\":13693:13707   */\n      add\n        /* \"#utility.yul\":13686:13733   */\n      mstore\n        /* \"#utility.yul\":13569:13740   */\n      pop\n      jump\t// out\n        /* \"#utility.yul\":13746:14112   */\n    tag_122:\n        /* \"#utility.yul\":13888:13891   */\n      0x00\n        /* \"#utility.yul\":13909:13976   */\n      tag_264\n        /* \"#utility.yul\":13973:13975   */\n      0x15\n        /* \"#utility.yul\":13968:13971   */\n      dup4\n        /* \"#utility.yul\":13909:13976   */\n      tag_114\n      jump\t// in\n    tag_264:\n        /* \"#utility.yul\":13902:13976   */\n      swap2\n      pop\n        /* \"#utility.yul\":13985:14078   */\n      tag_265\n        /* \"#utility.yul\":14074:14077   */\n      dup3\n        /* \"#utility.yul\":13985:14078   */\n      tag_121\n      jump\t// in\n    tag_265:\n        /* \"#utility.yul\":14103:14105   */\n      0x20\n        /* \"#utility.yul\":14098:14101   */\n      dup3\n        /* \"#utility.yul\":14094:14106   */\n      add\n        /* \"#utility.yul\":14087:14106   */\n      swap1\n      pop\n        /* \"#utility.yul\":13746:14112   */\n      swap2\n      swap1\n      pop\n      jump\t// out\n        /* \"#utility.yul\":14118:14537   */\n    tag_74:\n        /* \"#utility.yul\":14284:14288   */\n      0x00\n        /* \"#utility.yul\":14322:14324   */\n      0x20\n        /* \"#utility.yul\":14311:14320   */\n      dup3\n        /* \"#utility.yul\":14307:14325   */\n      add\n        /* \"#utility.yul\":14299:14325   */\n      swap1\n      pop\n        /* \"#utility.yul\":14371:14380   */\n      dup2\n        /* \"#utility.yul\":14365:14369   */\n      dup2\n        /* \"#utility.yul\":14361:14381   */\n      sub\n        /* \"#utility.yul\":14357:14358   */\n      0x00\n        /* \"#utility.yul\":14346:14355   */\n      dup4\n        /* \"#utility.yul\":14342:14359   */\n      add\n        /* \"#utility.yul\":14335:14382   */\n      mstore\n        /* \"#utility.yul\":14399:14530   */\n      tag_267\n        /* \"#utility.yul\":14525:14529   */\n      dup2\n        /* \"#utility.yul\":14399:14530   */\n      tag_122\n      jump\t// in\n    tag_267:\n        /* \"#utility.yul\":14391:14530   */\n      swap1\n      pop\n        /* \"#utility.yul\":14118:14537   */\n      swap2\n      swap1\n      pop\n      jump\t// out\n\n    auxdata: 0xa26469706673582212205d82d1d08a5bf300bc98a705a67096471d13b8b0daefa77d2fbd1e14369b085664736f6c63430008220033\n}\n",
				"bytecode": {
					"linkReferences": {},
					"object": "6080604052348015600e575f5ffd5b50610d018061001c5f395ff3fe608060405260043610610053575f3560e01c80626e75ec1461005757806321b1e5f8146100815780639415bc591461009d578063987fb8a2146100c757806398971dbf146100ef578063e88cc9a314610117575b5f5ffd5b348015610062575f5ffd5b5061006b610141565b604051610078919061060b565b60405180910390f35b61009b60048036038101906100969190610689565b6101cd565b005b3480156100a8575f5ffd5b506100b16102a4565b6040516100be91906106ce565b60405180910390f35b3480156100d2575f5ffd5b506100ed60048036038101906100e89190610722565b6102b5565b005b3480156100fa575f5ffd5b5061011560048036038101906101109190610722565b610425565b005b348015610122575f5ffd5b5061012b610595565b6040516101389190610765565b60405180910390f35b6001805461014e906107ab565b80601f016020809104026020016040519081016040528092919081815260200182805461017a906107ab565b80156101c55780601f1061019c576101008083540402835291602001916101c5565b820191905f5260205f20905b8154815290600101906020018083116101a857829003601f168201915b505050505081565b5f5f8273ffffffffffffffffffffffffffffffffffffffff16346040516101f390610808565b5f6040518083038185875af1925050503d805f811461022d576040519150601f19603f3d011682016040523d82523d5f602084013e610232565b606091505b5091509150815f5f6101000a81548160ff021916908315150217905550806001908161025e91906109fa565b508161029f576040517f08c379a000000000000000000000000000000000000000000000000000000000815260040161029690610b23565b60405180910390fd5b505050565b5f5f9054906101000a900460ff1681565b60025f8154809291906102c790610b6e565b91905055505f5f8273ffffffffffffffffffffffffffffffffffffffff166040516024016040516020818303038152906040527fd67e4b84000000000000000000000000000000000000000000000000000000007bffffffffffffffffffffffffffffffffffffffffffffffffffffffff19166020820180517bffffffffffffffffffffffffffffffffffffffffffffffffffffffff83818316178352505050506040516103759190610be5565b5f604051808303815f865af19150503d805f81146103ae576040519150601f19603f3d011682016040523d82523d5f602084013e6103b3565b606091505b5091509150815f5f6101000a81548160ff02191690831515021790555080600190816103df91906109fa565b5081610420576040517f08c379a000000000000000000000000000000000000000000000000000000000815260040161041790610c45565b60405180910390fd5b505050565b60025f81548092919061043790610b6e565b91905055505f5f8273ffffffffffffffffffffffffffffffffffffffff166040516024016040516020818303038152906040527f1a352851000000000000000000000000000000000000000000000000000000007bffffffffffffffffffffffffffffffffffffffffffffffffffffffff19166020820180517bffffffffffffffffffffffffffffffffffffffffffffffffffffffff83818316178352505050506040516104e59190610be5565b5f604051808303815f865af19150503d805f811461051e576040519150601f19603f3d011682016040523d82523d5f602084013e610523565b606091505b5091509150815f5f6101000a81548160ff021916908315150217905550806001908161054f91906109fa565b5081610590576040517f08c379a000000000000000000000000000000000000000000000000000000000815260040161058790610cad565b60405180910390fd5b505050565b60025481565b5f81519050919050565b5f82825260208201905092915050565b8281835e5f83830152505050565b5f601f19601f8301169050919050565b5f6105dd8261059b565b6105e781856105a5565b93506105f78185602086016105b5565b610600816105c3565b840191505092915050565b5f6020820190508181035f83015261062381846105d3565b905092915050565b5f5ffd5b5f73ffffffffffffffffffffffffffffffffffffffff82169050919050565b5f6106588261062f565b9050919050565b6106688161064e565b8114610672575f5ffd5b50565b5f813590506106838161065f565b92915050565b5f6020828403121561069e5761069d61062b565b5b5f6106ab84828501610675565b91505092915050565b5f8115159050919050565b6106c8816106b4565b82525050565b5f6020820190506106e15f8301846106bf565b92915050565b5f6106f18261062f565b9050919050565b610701816106e7565b811461070b575f5ffd5b50565b5f8135905061071c816106f8565b92915050565b5f602082840312156107375761073661062b565b5b5f6107448482850161070e565b91505092915050565b5f819050919050565b61075f8161074d565b82525050565b5f6020820190506107785f830184610756565b92915050565b7f4e487b71000000000000000000000000000000000000000000000000000000005f52602260045260245ffd5b5f60028204905060018216806107c257607f821691505b6020821081036107d5576107d461077e565b5b50919050565b5f81905092915050565b50565b5f6107f35f836107db565b91506107fe826107e5565b5f82019050919050565b5f610812826107e8565b9150819050919050565b7f4e487b71000000000000000000000000000000000000000000000000000000005f52604160045260245ffd5b5f819050815f5260205f209050919050565b5f6020601f8301049050919050565b5f82821b905092915050565b5f600883026108a57fffffffffffffffffffffffffffffffffffffffffffffffffffffffffffffffff8261086a565b6108af868361086a565b95508019841693508086168417925050509392505050565b5f819050919050565b5f6108ea6108e56108e08461074d565b6108c7565b61074d565b9050919050565b5f819050919050565b610903836108d0565b61091761090f826108f1565b848454610876565b825550505050565b5f5f905090565b61092e61091f565b6109398184846108fa565b505050565b5f5b8281101561095f576109545f828401610926565b600181019050610940565b505050565b601f8211156109b257828211156109b15761097e81610849565b6109878361085b565b6109908561085b565b602086101561099d575f90505b8083016109ac8284038261093e565b505050505b5b505050565b5f82821c905092915050565b5f6109d25f19846008026109b7565b1980831691505092915050565b5f6109ea83836109c3565b9150826002028217905092915050565b610a038261059b565b67ffffffffffffffff811115610a1c57610a1b61081c565b5b610a2682546107ab565b610a31828285610964565b5f60209050601f831160018114610a62575f8415610a50578287015190505b610a5a85826109df565b865550610ac1565b601f198416610a7086610849565b5f5b82811015610a9757848901518255600182019150602085019450602081019050610a72565b86831015610ab45784890151610ab0601f8916826109c3565b8355505b6001600288020188555050505b505050505050565b5f82825260208201905092915050565b7f455448207472616e736665722072656a656374656400000000000000000000005f82015250565b5f610b0d601583610ac9565b9150610b1882610ad9565b602082019050919050565b5f6020820190508181035f830152610b3a81610b01565b9050919050565b7f4e487b71000000000000000000000000000000000000000000000000000000005f52601160045260245ffd5b5f610b788261074d565b91507fffffffffffffffffffffffffffffffffffffffffffffffffffffffffffffffff8203610baa57610ba9610b41565b5b600182019050919050565b5f610bbf8261059b565b610bc981856107db565b9350610bd98185602086016105b5565b80840191505092915050565b5f610bf08284610bb5565b915081905092915050565b7f45787465726e616c2063616c6c206661696c65640000000000000000000000005f82015250565b5f610c2f601483610ac9565b9150610c3a82610bfb565b602082019050919050565b5f6020820190508181035f830152610c5c81610c23565b9050919050565b7f4c6f772d6c6576656c2063616c6c206661696c656400000000000000000000005f82015250565b5f610c97601583610ac9565b9150610ca282610c63565b602082019050919050565b5f6020820190508181035f830152610cc481610c8b565b905091905056fea26469706673582212205d82d1d08a5bf300bc98a705a67096471d13b8b0daefa77d2fbd1e14369b085664736f6c63430008220033",
					"opcodes": "PUSH1 0x80 PUSH1 0x40 MSTORE CALLVALUE DUP1 ISZERO PUSH1 0xE JUMPI PUSH0 PUSH0 REVERT JUMPDEST POP PUSH2 0xD01 DUP1 PUSH2 0x1C PUSH0 CODECOPY PUSH0 RETURN INVALID PUSH1 0x80 PUSH1 0x40 MSTORE PUSH1 0x4 CALLDATASIZE LT PUSH2 0x53 JUMPI PUSH0 CALLDATALOAD PUSH1 0xE0 SHR DUP1 PUSH3 0x6E75EC EQ PUSH2 0x57 JUMPI DUP1 PUSH4 0x21B1E5F8 EQ PUSH2 0x81 JUMPI DUP1 PUSH4 0x9415BC59 EQ PUSH2 0x9D JUMPI DUP1 PUSH4 0x987FB8A2 EQ PUSH2 0xC7 JUMPI DUP1 PUSH4 0x98971DBF EQ PUSH2 0xEF JUMPI DUP1 PUSH4 0xE88CC9A3 EQ PUSH2 0x117 JUMPI JUMPDEST PUSH0 PUSH0 REVERT JUMPDEST CALLVALUE DUP1 ISZERO PUSH2 0x62 JUMPI PUSH0 PUSH0 REVERT JUMPDEST POP PUSH2 0x6B PUSH2 0x141 JUMP JUMPDEST PUSH1 0x40 MLOAD PUSH2 0x78 SWAP2 SWAP1 PUSH2 0x60B JUMP JUMPDEST PUSH1 0x40 MLOAD DUP1 SWAP2 SUB SWAP1 RETURN JUMPDEST PUSH2 0x9B PUSH1 0x4 DUP1 CALLDATASIZE SUB DUP2 ADD SWAP1 PUSH2 0x96 SWAP2 SWAP1 PUSH2 0x689 JUMP JUMPDEST PUSH2 0x1CD JUMP JUMPDEST STOP JUMPDEST CALLVALUE DUP1 ISZERO PUSH2 0xA8 JUMPI PUSH0 PUSH0 REVERT JUMPDEST POP PUSH2 0xB1 PUSH2 0x2A4 JUMP JUMPDEST PUSH1 0x40 MLOAD PUSH2 0xBE SWAP2 SWAP1 PUSH2 0x6CE JUMP JUMPDEST PUSH1 0x40 MLOAD DUP1 SWAP2 SUB SWAP1 RETURN JUMPDEST CALLVALUE DUP1 ISZERO PUSH2 0xD2 JUMPI PUSH0 PUSH0 REVERT JUMPDEST POP PUSH2 0xED PUSH1 0x4 DUP1 CALLDATASIZE SUB DUP2 ADD SWAP1 PUSH2 0xE8 SWAP2 SWAP1 PUSH2 0x722 JUMP JUMPDEST PUSH2 0x2B5 JUMP JUMPDEST STOP JUMPDEST CALLVALUE DUP1 ISZERO PUSH2 0xFA JUMPI PUSH0 PUSH0 REVERT JUMPDEST POP PUSH2 0x115 PUSH1 0x4 DUP1 CALLDATASIZE SUB DUP2 ADD SWAP1 PUSH2 0x110 SWAP2 SWAP1 PUSH2 0x722 JUMP JUMPDEST PUSH2 0x425 JUMP JUMPDEST STOP JUMPDEST CALLVALUE DUP1 ISZERO PUSH2 0x122 JUMPI PUSH0 PUSH0 REVERT JUMPDEST POP PUSH2 0x12B PUSH2 0x595 JUMP JUMPDEST PUSH1 0x40 MLOAD PUSH2 0x138 SWAP2 SWAP1 PUSH2 0x765 JUMP JUMPDEST PUSH1 0x40 MLOAD DUP1 SWAP2 SUB SWAP1 RETURN JUMPDEST PUSH1 0x1 DUP1 SLOAD PUSH2 0x14E SWAP1 PUSH2 0x7AB JUMP JUMPDEST DUP1 PUSH1 0x1F ADD PUSH1 0x20 DUP1 SWAP2 DIV MUL PUSH1 0x20 ADD PUSH1 0x40 MLOAD SWAP1 DUP2 ADD PUSH1 0x40 MSTORE DUP1 SWAP3 SWAP2 SWAP1 DUP2 DUP2 MSTORE PUSH1 0x20 ADD DUP3 DUP1 SLOAD PUSH2 0x17A SWAP1 PUSH2 0x7AB JUMP JUMPDEST DUP1 ISZERO PUSH2 0x1C5 JUMPI DUP1 PUSH1 0x1F LT PUSH2 0x19C JUMPI PUSH2 0x100 DUP1 DUP4 SLOAD DIV MUL DUP4 MSTORE SWAP2 PUSH1 0x20 ADD SWAP2 PUSH2 0x1C5 JUMP JUMPDEST DUP3 ADD SWAP2 SWAP1 PUSH0 MSTORE PUSH1 0x20 PUSH0 KECCAK256 SWAP1 JUMPDEST DUP2 SLOAD DUP2 MSTORE SWAP1 PUSH1 0x1 ADD SWAP1 PUSH1 0x20 ADD DUP1 DUP4 GT PUSH2 0x1A8 JUMPI DUP3 SWAP1 SUB PUSH1 0x1F AND DUP3 ADD SWAP2 JUMPDEST POP POP POP POP POP DUP2 JUMP JUMPDEST PUSH0 PUSH0 DUP3 PUSH20 0xFFFFFFFFFFFFFFFFFFFFFFFFFFFFFFFFFFFFFFFF AND CALLVALUE PUSH1 0x40 MLOAD PUSH2 0x1F3 SWAP1 PUSH2 0x808 JUMP JUMPDEST PUSH0 PUSH1 0x40 MLOAD DUP1 DUP4 SUB DUP2 DUP6 DUP8 GAS CALL SWAP3 POP POP POP RETURNDATASIZE DUP1 PUSH0 DUP2 EQ PUSH2 0x22D JUMPI PUSH1 0x40 MLOAD SWAP2 POP PUSH1 0x1F NOT PUSH1 0x3F RETURNDATASIZE ADD AND DUP3 ADD PUSH1 0x40 MSTORE RETURNDATASIZE DUP3 MSTORE RETURNDATASIZE PUSH0 PUSH1 0x20 DUP5 ADD RETURNDATACOPY PUSH2 0x232 JUMP JUMPDEST PUSH1 0x60 SWAP2 POP JUMPDEST POP SWAP2 POP SWAP2 POP DUP2 PUSH0 PUSH0 PUSH2 0x100 EXP DUP2 SLOAD DUP2 PUSH1 0xFF MUL NOT AND SWAP1 DUP4 ISZERO ISZERO MUL OR SWAP1 SSTORE POP DUP1 PUSH1 0x1 SWAP1 DUP2 PUSH2 0x25E SWAP2 SWAP1 PUSH2 0x9FA JUMP JUMPDEST POP DUP2 PUSH2 0x29F JUMPI PUSH1 0x40 MLOAD PUSH32 0x8C379A000000000000000000000000000000000000000000000000000000000 DUP2 MSTORE PUSH1 0x4 ADD PUSH2 0x296 SWAP1 PUSH2 0xB23 JUMP JUMPDEST PUSH1 0x40 MLOAD DUP1 SWAP2 SUB SWAP1 REVERT JUMPDEST POP POP POP JUMP JUMPDEST PUSH0 PUSH0 SWAP1 SLOAD SWAP1 PUSH2 0x100 EXP SWAP1 DIV PUSH1 0xFF AND DUP2 JUMP JUMPDEST PUSH1 0x2 PUSH0 DUP2 SLOAD DUP1 SWAP3 SWAP2 SWAP1 PUSH2 0x2C7 SWAP1 PUSH2 0xB6E JUMP JUMPDEST SWAP2 SWAP1 POP SSTORE POP PUSH0 PUSH0 DUP3 PUSH20 0xFFFFFFFFFFFFFFFFFFFFFFFFFFFFFFFFFFFFFFFF AND PUSH1 0x40 MLOAD PUSH1 0x24 ADD PUSH1 0x40 MLOAD PUSH1 0x20 DUP2 DUP4 SUB SUB DUP2 MSTORE SWAP1 PUSH1 0x40 MSTORE PUSH32 0xD67E4B8400000000000000000000000000000000000000000000000000000000 PUSH28 0xFFFFFFFFFFFFFFFFFFFFFFFFFFFFFFFFFFFFFFFFFFFFFFFFFFFFFFFF NOT AND PUSH1 0x20 DUP3 ADD DUP1 MLOAD PUSH28 0xFFFFFFFFFFFFFFFFFFFFFFFFFFFFFFFFFFFFFFFFFFFFFFFFFFFFFFFF DUP4 DUP2 DUP4 AND OR DUP4 MSTORE POP POP POP POP PUSH1 0x40 MLOAD PUSH2 0x375 SWAP2 SWAP1 PUSH2 0xBE5 JUMP JUMPDEST PUSH0 PUSH1 0x40 MLOAD DUP1 DUP4 SUB DUP2 PUSH0 DUP7 GAS CALL SWAP2 POP POP RETURNDATASIZE DUP1 PUSH0 DUP2 EQ PUSH2 0x3AE JUMPI PUSH1 0x40 MLOAD SWAP2 POP PUSH1 0x1F NOT PUSH1 0x3F RETURNDATASIZE ADD AND DUP3 ADD PUSH1 0x40 MSTORE RETURNDATASIZE DUP3 MSTORE RETURNDATASIZE PUSH0 PUSH1 0x20 DUP5 ADD RETURNDATACOPY PUSH2 0x3B3 JUMP JUMPDEST PUSH1 0x60 SWAP2 POP JUMPDEST POP SWAP2 POP SWAP2 POP DUP2 PUSH0 PUSH0 PUSH2 0x100 EXP DUP2 SLOAD DUP2 PUSH1 0xFF MUL NOT AND SWAP1 DUP4 ISZERO ISZERO MUL OR SWAP1 SSTORE POP DUP1 PUSH1 0x1 SWAP1 DUP2 PUSH2 0x3DF SWAP2 SWAP1 PUSH2 0x9FA JUMP JUMPDEST POP DUP2 PUSH2 0x420 JUMPI PUSH1 0x40 MLOAD PUSH32 0x8C379A000000000000000000000000000000000000000000000000000000000 DUP2 MSTORE PUSH1 0x4 ADD PUSH2 0x417 SWAP1 PUSH2 0xC45 JUMP JUMPDEST PUSH1 0x40 MLOAD DUP1 SWAP2 SUB SWAP1 REVERT JUMPDEST POP POP POP JUMP JUMPDEST PUSH1 0x2 PUSH0 DUP2 SLOAD DUP1 SWAP3 SWAP2 SWAP1 PUSH2 0x437 SWAP1 PUSH2 0xB6E JUMP JUMPDEST SWAP2 SWAP1 POP SSTORE POP PUSH0 PUSH0 DUP3 PUSH20 0xFFFFFFFFFFFFFFFFFFFFFFFFFFFFFFFFFFFFFFFF AND PUSH1 0x40 MLOAD PUSH1 0x24 ADD PUSH1 0x40 MLOAD PUSH1 0x20 DUP2 DUP4 SUB SUB DUP2 MSTORE SWAP1 PUSH1 0x40 MSTORE PUSH32 0x1A35285100000000000000000000000000000000000000000000000000000000 PUSH28 0xFFFFFFFFFFFFFFFFFFFFFFFFFFFFFFFFFFFFFFFFFFFFFFFFFFFFFFFF NOT AND PUSH1 0x20 DUP3 ADD DUP1 MLOAD PUSH28 0xFFFFFFFFFFFFFFFFFFFFFFFFFFFFFFFFFFFFFFFFFFFFFFFFFFFFFFFF DUP4 DUP2 DUP4 AND OR DUP4 MSTORE POP POP POP POP PUSH1 0x40 MLOAD PUSH2 0x4E5 SWAP2 SWAP1 PUSH2 0xBE5 JUMP JUMPDEST PUSH0 PUSH1 0x40 MLOAD DUP1 DUP4 SUB DUP2 PUSH0 DUP7 GAS CALL SWAP2 POP POP RETURNDATASIZE DUP1 PUSH0 DUP2 EQ PUSH2 0x51E JUMPI PUSH1 0x40 MLOAD SWAP2 POP PUSH1 0x1F NOT PUSH1 0x3F RETURNDATASIZE ADD AND DUP3 ADD PUSH1 0x40 MSTORE RETURNDATASIZE DUP3 MSTORE RETURNDATASIZE PUSH0 PUSH1 0x20 DUP5 ADD RETURNDATACOPY PUSH2 0x523 JUMP JUMPDEST PUSH1 0x60 SWAP2 POP JUMPDEST POP SWAP2 POP SWAP2 POP DUP2 PUSH0 PUSH0 PUSH2 0x100 EXP DUP2 SLOAD DUP2 PUSH1 0xFF MUL NOT AND SWAP1 DUP4 ISZERO ISZERO MUL OR SWAP1 SSTORE POP DUP1 PUSH1 0x1 SWAP1 DUP2 PUSH2 0x54F SWAP2 SWAP1 PUSH2 0x9FA JUMP JUMPDEST POP DUP2 PUSH2 0x590 JUMPI PUSH1 0x40 MLOAD PUSH32 0x8C379A000000000000000000000000000000000000000000000000000000000 DUP2 MSTORE PUSH1 0x4 ADD PUSH2 0x587 SWAP1 PUSH2 0xCAD JUMP JUMPDEST PUSH1 0x40 MLOAD DUP1 SWAP2 SUB SWAP1 REVERT JUMPDEST POP POP POP JUMP JUMPDEST PUSH1 0x2 SLOAD DUP2 JUMP JUMPDEST PUSH0 DUP2 MLOAD SWAP1 POP SWAP2 SWAP1 POP JUMP JUMPDEST PUSH0 DUP3 DUP3 MSTORE PUSH1 0x20 DUP3 ADD SWAP1 POP SWAP3 SWAP2 POP POP JUMP JUMPDEST DUP3 DUP2 DUP4 MCOPY PUSH0 DUP4 DUP4 ADD MSTORE POP POP POP JUMP JUMPDEST PUSH0 PUSH1 0x1F NOT PUSH1 0x1F DUP4 ADD AND SWAP1 POP SWAP2 SWAP1 POP JUMP JUMPDEST PUSH0 PUSH2 0x5DD DUP3 PUSH2 0x59B JUMP JUMPDEST PUSH2 0x5E7 DUP2 DUP6 PUSH2 0x5A5 JUMP JUMPDEST SWAP4 POP PUSH2 0x5F7 DUP2 DUP6 PUSH1 0x20 DUP7 ADD PUSH2 0x5B5 JUMP JUMPDEST PUSH2 0x600 DUP2 PUSH2 0x5C3 JUMP JUMPDEST DUP5 ADD SWAP2 POP POP SWAP3 SWAP2 POP POP JUMP JUMPDEST PUSH0 PUSH1 0x20 DUP3 ADD SWAP1 POP DUP2 DUP2 SUB PUSH0 DUP4 ADD MSTORE PUSH2 0x623 DUP2 DUP5 PUSH2 0x5D3 JUMP JUMPDEST SWAP1 POP SWAP3 SWAP2 POP POP JUMP JUMPDEST PUSH0 PUSH0 REVERT JUMPDEST PUSH0 PUSH20 0xFFFFFFFFFFFFFFFFFFFFFFFFFFFFFFFFFFFFFFFF DUP3 AND SWAP1 POP SWAP2 SWAP1 POP JUMP JUMPDEST PUSH0 PUSH2 0x658 DUP3 PUSH2 0x62F JUMP JUMPDEST SWAP1 POP SWAP2 SWAP1 POP JUMP JUMPDEST PUSH2 0x668 DUP2 PUSH2 0x64E JUMP JUMPDEST DUP2 EQ PUSH2 0x672 JUMPI PUSH0 PUSH0 REVERT JUMPDEST POP JUMP JUMPDEST PUSH0 DUP2 CALLDATALOAD SWAP1 POP PUSH2 0x683 DUP2 PUSH2 0x65F JUMP JUMPDEST SWAP3 SWAP2 POP POP JUMP JUMPDEST PUSH0 PUSH1 0x20 DUP3 DUP5 SUB SLT ISZERO PUSH2 0x69E JUMPI PUSH2 0x69D PUSH2 0x62B JUMP JUMPDEST JUMPDEST PUSH0 PUSH2 0x6AB DUP5 DUP3 DUP6 ADD PUSH2 0x675 JUMP JUMPDEST SWAP2 POP POP SWAP3 SWAP2 POP POP JUMP JUMPDEST PUSH0 DUP2 ISZERO ISZERO SWAP1 POP SWAP2 SWAP1 POP JUMP JUMPDEST PUSH2 0x6C8 DUP2 PUSH2 0x6B4 JUMP JUMPDEST DUP3 MSTORE POP POP JUMP JUMPDEST PUSH0 PUSH1 0x20 DUP3 ADD SWAP1 POP PUSH2 0x6E1 PUSH0 DUP4 ADD DUP5 PUSH2 0x6BF JUMP JUMPDEST SWAP3 SWAP2 POP POP JUMP JUMPDEST PUSH0 PUSH2 0x6F1 DUP3 PUSH2 0x62F JUMP JUMPDEST SWAP1 POP SWAP2 SWAP1 POP JUMP JUMPDEST PUSH2 0x701 DUP2 PUSH2 0x6E7 JUMP JUMPDEST DUP2 EQ PUSH2 0x70B JUMPI PUSH0 PUSH0 REVERT JUMPDEST POP JUMP JUMPDEST PUSH0 DUP2 CALLDATALOAD SWAP1 POP PUSH2 0x71C DUP2 PUSH2 0x6F8 JUMP JUMPDEST SWAP3 SWAP2 POP POP JUMP JUMPDEST PUSH0 PUSH1 0x20 DUP3 DUP5 SUB SLT ISZERO PUSH2 0x737 JUMPI PUSH2 0x736 PUSH2 0x62B JUMP JUMPDEST JUMPDEST PUSH0 PUSH2 0x744 DUP5 DUP3 DUP6 ADD PUSH2 0x70E JUMP JUMPDEST SWAP2 POP POP SWAP3 SWAP2 POP POP JUMP JUMPDEST PUSH0 DUP2 SWAP1 POP SWAP2 SWAP1 POP JUMP JUMPDEST PUSH2 0x75F DUP2 PUSH2 0x74D JUMP JUMPDEST DUP3 MSTORE POP POP JUMP JUMPDEST PUSH0 PUSH1 0x20 DUP3 ADD SWAP1 POP PUSH2 0x778 PUSH0 DUP4 ADD DUP5 PUSH2 0x756 JUMP JUMPDEST SWAP3 SWAP2 POP POP JUMP JUMPDEST PUSH32 0x4E487B7100000000000000000000000000000000000000000000000000000000 PUSH0 MSTORE PUSH1 0x22 PUSH1 0x4 MSTORE PUSH1 0x24 PUSH0 REVERT JUMPDEST PUSH0 PUSH1 0x2 DUP3 DIV SWAP1 POP PUSH1 0x1 DUP3 AND DUP1 PUSH2 0x7C2 JUMPI PUSH1 0x7F DUP3 AND SWAP2 POP JUMPDEST PUSH1 0x20 DUP3 LT DUP2 SUB PUSH2 0x7D5 JUMPI PUSH2 0x7D4 PUSH2 0x77E JUMP JUMPDEST JUMPDEST POP SWAP2 SWAP1 POP JUMP JUMPDEST PUSH0 DUP2 SWAP1 POP SWAP3 SWAP2 POP POP JUMP JUMPDEST POP JUMP JUMPDEST PUSH0 PUSH2 0x7F3 PUSH0 DUP4 PUSH2 0x7DB JUMP JUMPDEST SWAP2 POP PUSH2 0x7FE DUP3 PUSH2 0x7E5 JUMP JUMPDEST PUSH0 DUP3 ADD SWAP1 POP SWAP2 SWAP1 POP JUMP JUMPDEST PUSH0 PUSH2 0x812 DUP3 PUSH2 0x7E8 JUMP JUMPDEST SWAP2 POP DUP2 SWAP1 POP SWAP2 SWAP1 POP JUMP JUMPDEST PUSH32 0x4E487B7100000000000000000000000000000000000000000000000000000000 PUSH0 MSTORE PUSH1 0x41 PUSH1 0x4 MSTORE PUSH1 0x24 PUSH0 REVERT JUMPDEST PUSH0 DUP2 SWAP1 POP DUP2 PUSH0 MSTORE PUSH1 0x20 PUSH0 KECCAK256 SWAP1 POP SWAP2 SWAP1 POP JUMP JUMPDEST PUSH0 PUSH1 0x20 PUSH1 0x1F DUP4 ADD DIV SWAP1 POP SWAP2 SWAP1 POP JUMP JUMPDEST PUSH0 DUP3 DUP3 SHL SWAP1 POP SWAP3 SWAP2 POP POP JUMP JUMPDEST PUSH0 PUSH1 0x8 DUP4 MUL PUSH2 0x8A5 PUSH32 0xFFFFFFFFFFFFFFFFFFFFFFFFFFFFFFFFFFFFFFFFFFFFFFFFFFFFFFFFFFFFFFFF DUP3 PUSH2 0x86A JUMP JUMPDEST PUSH2 0x8AF DUP7 DUP4 PUSH2 0x86A JUMP JUMPDEST SWAP6 POP DUP1 NOT DUP5 AND SWAP4 POP DUP1 DUP7 AND DUP5 OR SWAP3 POP POP POP SWAP4 SWAP3 POP POP POP JUMP JUMPDEST PUSH0 DUP2 SWAP1 POP SWAP2 SWAP1 POP JUMP JUMPDEST PUSH0 PUSH2 0x8EA PUSH2 0x8E5 PUSH2 0x8E0 DUP5 PUSH2 0x74D JUMP JUMPDEST PUSH2 0x8C7 JUMP JUMPDEST PUSH2 0x74D JUMP JUMPDEST SWAP1 POP SWAP2 SWAP1 POP JUMP JUMPDEST PUSH0 DUP2 SWAP1 POP SWAP2 SWAP1 POP JUMP JUMPDEST PUSH2 0x903 DUP4 PUSH2 0x8D0 JUMP JUMPDEST PUSH2 0x917 PUSH2 0x90F DUP3 PUSH2 0x8F1 JUMP JUMPDEST DUP5 DUP5 SLOAD PUSH2 0x876 JUMP JUMPDEST DUP3 SSTORE POP POP POP POP JUMP JUMPDEST PUSH0 PUSH0 SWAP1 POP SWAP1 JUMP JUMPDEST PUSH2 0x92E PUSH2 0x91F JUMP JUMPDEST PUSH2 0x939 DUP2 DUP5 DUP5 PUSH2 0x8FA JUMP JUMPDEST POP POP POP JUMP JUMPDEST PUSH0 JUMPDEST DUP3 DUP2 LT ISZERO PUSH2 0x95F JUMPI PUSH2 0x954 PUSH0 DUP3 DUP5 ADD PUSH2 0x926 JUMP JUMPDEST PUSH1 0x1 DUP2 ADD SWAP1 POP PUSH2 0x940 JUMP JUMPDEST POP POP POP JUMP JUMPDEST PUSH1 0x1F DUP3 GT ISZERO PUSH2 0x9B2 JUMPI DUP3 DUP3 GT ISZERO PUSH2 0x9B1 JUMPI PUSH2 0x97E DUP2 PUSH2 0x849 JUMP JUMPDEST PUSH2 0x987 DUP4 PUSH2 0x85B JUMP JUMPDEST PUSH2 0x990 DUP6 PUSH2 0x85B JUMP JUMPDEST PUSH1 0x20 DUP7 LT ISZERO PUSH2 0x99D JUMPI PUSH0 SWAP1 POP JUMPDEST DUP1 DUP4 ADD PUSH2 0x9AC DUP3 DUP5 SUB DUP3 PUSH2 0x93E JUMP JUMPDEST POP POP POP POP JUMPDEST JUMPDEST POP POP POP JUMP JUMPDEST PUSH0 DUP3 DUP3 SHR SWAP1 POP SWAP3 SWAP2 POP POP JUMP JUMPDEST PUSH0 PUSH2 0x9D2 PUSH0 NOT DUP5 PUSH1 0x8 MUL PUSH2 0x9B7 JUMP JUMPDEST NOT DUP1 DUP4 AND SWAP2 POP POP SWAP3 SWAP2 POP POP JUMP JUMPDEST PUSH0 PUSH2 0x9EA DUP4 DUP4 PUSH2 0x9C3 JUMP JUMPDEST SWAP2 POP DUP3 PUSH1 0x2 MUL DUP3 OR SWAP1 POP SWAP3 SWAP2 POP POP JUMP JUMPDEST PUSH2 0xA03 DUP3 PUSH2 0x59B JUMP JUMPDEST PUSH8 0xFFFFFFFFFFFFFFFF DUP2 GT ISZERO PUSH2 0xA1C JUMPI PUSH2 0xA1B PUSH2 0x81C JUMP JUMPDEST JUMPDEST PUSH2 0xA26 DUP3 SLOAD PUSH2 0x7AB JUMP JUMPDEST PUSH2 0xA31 DUP3 DUP3 DUP6 PUSH2 0x964 JUMP JUMPDEST PUSH0 PUSH1 0x20 SWAP1 POP PUSH1 0x1F DUP4 GT PUSH1 0x1 DUP2 EQ PUSH2 0xA62 JUMPI PUSH0 DUP5 ISZERO PUSH2 0xA50 JUMPI DUP3 DUP8 ADD MLOAD SWAP1 POP JUMPDEST PUSH2 0xA5A DUP6 DUP3 PUSH2 0x9DF JUMP JUMPDEST DUP7 SSTORE POP PUSH2 0xAC1 JUMP JUMPDEST PUSH1 0x1F NOT DUP5 AND PUSH2 0xA70 DUP7 PUSH2 0x849 JUMP JUMPDEST PUSH0 JUMPDEST DUP3 DUP2 LT ISZERO PUSH2 0xA97 JUMPI DUP5 DUP10 ADD MLOAD DUP3 SSTORE PUSH1 0x1 DUP3 ADD SWAP2 POP PUSH1 0x20 DUP6 ADD SWAP5 POP PUSH1 0x20 DUP2 ADD SWAP1 POP PUSH2 0xA72 JUMP JUMPDEST DUP7 DUP4 LT ISZERO PUSH2 0xAB4 JUMPI DUP5 DUP10 ADD MLOAD PUSH2 0xAB0 PUSH1 0x1F DUP10 AND DUP3 PUSH2 0x9C3 JUMP JUMPDEST DUP4 SSTORE POP JUMPDEST PUSH1 0x1 PUSH1 0x2 DUP9 MUL ADD DUP9 SSTORE POP POP POP JUMPDEST POP POP POP POP POP POP JUMP JUMPDEST PUSH0 DUP3 DUP3 MSTORE PUSH1 0x20 DUP3 ADD SWAP1 POP SWAP3 SWAP2 POP POP JUMP JUMPDEST PUSH32 0x455448207472616E736665722072656A65637465640000000000000000000000 PUSH0 DUP3 ADD MSTORE POP JUMP JUMPDEST PUSH0 PUSH2 0xB0D PUSH1 0x15 DUP4 PUSH2 0xAC9 JUMP JUMPDEST SWAP2 POP PUSH2 0xB18 DUP3 PUSH2 0xAD9 JUMP JUMPDEST PUSH1 0x20 DUP3 ADD SWAP1 POP SWAP2 SWAP1 POP JUMP JUMPDEST PUSH0 PUSH1 0x20 DUP3 ADD SWAP1 POP DUP2 DUP2 SUB PUSH0 DUP4 ADD MSTORE PUSH2 0xB3A DUP2 PUSH2 0xB01 JUMP JUMPDEST SWAP1 POP SWAP2 SWAP1 POP JUMP JUMPDEST PUSH32 0x4E487B7100000000000000000000000000000000000000000000000000000000 PUSH0 MSTORE PUSH1 0x11 PUSH1 0x4 MSTORE PUSH1 0x24 PUSH0 REVERT JUMPDEST PUSH0 PUSH2 0xB78 DUP3 PUSH2 0x74D JUMP JUMPDEST SWAP2 POP PUSH32 0xFFFFFFFFFFFFFFFFFFFFFFFFFFFFFFFFFFFFFFFFFFFFFFFFFFFFFFFFFFFFFFFF DUP3 SUB PUSH2 0xBAA JUMPI PUSH2 0xBA9 PUSH2 0xB41 JUMP JUMPDEST JUMPDEST PUSH1 0x1 DUP3 ADD SWAP1 POP SWAP2 SWAP1 POP JUMP JUMPDEST PUSH0 PUSH2 0xBBF DUP3 PUSH2 0x59B JUMP JUMPDEST PUSH2 0xBC9 DUP2 DUP6 PUSH2 0x7DB JUMP JUMPDEST SWAP4 POP PUSH2 0xBD9 DUP2 DUP6 PUSH1 0x20 DUP7 ADD PUSH2 0x5B5 JUMP JUMPDEST DUP1 DUP5 ADD SWAP2 POP POP SWAP3 SWAP2 POP POP JUMP JUMPDEST PUSH0 PUSH2 0xBF0 DUP3 DUP5 PUSH2 0xBB5 JUMP JUMPDEST SWAP2 POP DUP2 SWAP1 POP SWAP3 SWAP2 POP POP JUMP JUMPDEST PUSH32 0x45787465726E616C2063616C6C206661696C6564000000000000000000000000 PUSH0 DUP3 ADD MSTORE POP JUMP JUMPDEST PUSH0 PUSH2 0xC2F PUSH1 0x14 DUP4 PUSH2 0xAC9 JUMP JUMPDEST SWAP2 POP PUSH2 0xC3A DUP3 PUSH2 0xBFB JUMP JUMPDEST PUSH1 0x20 DUP3 ADD SWAP1 POP SWAP2 SWAP1 POP JUMP JUMPDEST PUSH0 PUSH1 0x20 DUP3 ADD SWAP1 POP DUP2 DUP2 SUB PUSH0 DUP4 ADD MSTORE PUSH2 0xC5C DUP2 PUSH2 0xC23 JUMP JUMPDEST SWAP1 POP SWAP2 SWAP1 POP JUMP JUMPDEST PUSH32 0x4C6F772D6C6576656C2063616C6C206661696C65640000000000000000000000 PUSH0 DUP3 ADD MSTORE POP JUMP JUMPDEST PUSH0 PUSH2 0xC97 PUSH1 0x15 DUP4 PUSH2 0xAC9 JUMP JUMPDEST SWAP2 POP PUSH2 0xCA2 DUP3 PUSH2 0xC63 JUMP JUMPDEST PUSH1 0x20 DUP3 ADD SWAP1 POP SWAP2 SWAP1 POP JUMP JUMPDEST PUSH0 PUSH1 0x20 DUP3 ADD SWAP1 POP DUP2 DUP2 SUB PUSH0 DUP4 ADD MSTORE PUSH2 0xCC4 DUP2 PUSH2 0xC8B JUMP JUMPDEST SWAP1 POP SWAP2 SWAP1 POP JUMP INVALID LOG2 PUSH5 0x6970667358 0x22 SLT KECCAK256 TSTORE DUP3 DATALOADN 0xD08A JUMPDEST RETURN STOP 0xBC SWAP9 0xA7 SDIV 0xA6 PUSH17 0x96471D13B8B0DAEFA77D2FBD1E14369B08 JUMP PUSH5 0x736F6C6343 STOP ADDMOD 0x22 STOP CALLER "
				},
				"gasEstimates": {
					"creation": {
						"codeDepositCost": "665800",
						"executionCost": "700",
						"totalCost": "666500"
					},
					"external": {
						"lastData()": "infinite",
						"lastSuccess()": "2487",
						"localCounter()": "2513",
						"safeExternalCall(address)": "infinite",
						"sendETH(address)": "infinite",
						"triggerFailure(address)": "infinite"
					}
				},
				"methodIdentifiers": {
					"lastData()": "006e75ec",
					"lastSuccess()": "9415bc59",
					"localCounter()": "e88cc9a3",
					"safeExternalCall(address)": "987fb8a2",
					"sendETH(address)": "21b1e5f8",
					"triggerFailure(address)": "98971dbf"
				}
			},
			"storageLayout": {
				"storage": [
					{
						"astId": 29,
						"contract": "val59.sol:ExternalCallHandlerval",
						"label": "lastSuccess",
						"offset": 0,
						"slot": "0",
						"type": "t_bool"
					},
					{
						"astId": 31,
						"contract": "val59.sol:ExternalCallHandlerval",
						"label": "lastData",
						"offset": 0,
						"slot": "1",
						"type": "t_bytes_storage"
					},
					{
						"astId": 33,
						"contract": "val59.sol:ExternalCallHandlerval",
						"label": "localCounter",
						"offset": 0,
						"slot": "2",
						"type": "t_uint256"
					}
				],
				"types": {
					"t_bool": {
						"encoding": "inplace",
						"label": "bool",
						"numberOfBytes": "1"
					},
					"t_bytes_storage": {
						"encoding": "bytes",
						"label": "bytes",
						"numberOfBytes": "32"
					},
					"t_uint256": {
						"encoding": "inplace",
						"label": "uint256",
						"numberOfBytes": "32"
					}
				}
			},
			"userdoc": {
				"kind": "user",
				"methods": {},
				"version": 1
			}
		}
	}
}