{
	"val59.sol": {
		"Rejectorval": {
			"abi": [
				{
					"inputs": [],
					"name": "alwaysFail",
					"outputs": [],
					"stateMutability": "pure",
					"type": "function"
				},
				{
					"inputs": [],
					"name": "callCounter",
					"outputs": [
						{
							"internalType": "uint256",
							"name": "",
							"type": "uint256"
						}
					],
					"stateMutability": "view",
					"type": "function"
				},
				{
					"inputs": [],
					"name": "normalFunction",
					"outputs": [],
					"stateMutability": "nonpayable",
					"type": "function"
				},
				{
					"stateMutability": "payable",
					"type": "receive"
				}
			],
			"devdoc": {
				"kind": "dev",
				"methods": {},
				"version": 1
			},
			"evm": {
				"assembly": "    /* \"val59.sol\":1971:2909  contract Rejectorval {... */\n  mstore(0x40, 0x80)\n  callvalue\n  dup1\n  iszero\n  tag_1\n  jumpi\n  revert(0x00, 0x00)\ntag_1:\n  pop\n  dataSize(sub_0)\n  dup1\n  dataOffset(sub_0)\n  0x00\n  codecopy\n  0x00\n  return\nstop\n\nsub_0: assembly {\n        /* \"val59.sol\":1971:2909  contract Rejectorval {... */\n      mstore(0x40, 0x80)\n      jumpi(tag_1, lt(calldatasize, 0x04))\n      shr(0xe0, calldataload(0x00))\n      dup1\n      0x1a352851\n      eq\n      tag_3\n      jumpi\n      dup1\n      0xc0f9882e\n      eq\n      tag_4\n      jumpi\n      dup1\n      0xd67e4b84\n      eq\n      tag_5\n      jumpi\n      jump(tag_2)\n    tag_1:\n      jumpi(tag_2, calldatasize)\n        /* \"val59.sol\":2876:2898  revert(\"ETH rejected\") */\n      mload(0x40)\n      0x08c379a000000000000000000000000000000000000000000000000000000000\n      dup2\n      mstore\n      0x04\n      add\n      tag_8\n      swap1\n      tag_9\n      jump\t// in\n    tag_8:\n      mload(0x40)\n      dup1\n      swap2\n      sub\n      swap1\n      revert\n        /* \"val59.sol\":1971:2909  contract Rejectorval {... */\n    tag_2:\n      revert(0x00, 0x00)\n        /* \"val59.sol\":2509:2618  function alwaysFail()... */\n    tag_3:\n      callvalue\n      dup1\n      iszero\n      tag_10\n      jumpi\n      revert(0x00, 0x00)\n    tag_10:\n      pop\n      tag_11\n      tag_12\n      jump\t// in\n    tag_11:\n      stop\n        /* \"val59.sol\":2043:2069  uint256 public callCounter */\n    tag_4:\n      callvalue\n      dup1\n      iszero\n      tag_13\n      jumpi\n      revert(0x00, 0x00)\n    tag_13:\n      pop\n      tag_14\n      tag_15\n      jump\t// in\n    tag_14:\n      mload(0x40)\n      tag_16\n      swap2\n      swap1\n      tag_17\n      jump\t// in\n    tag_16:\n      mload(0x40)\n      dup1\n      swap2\n      sub\n      swap1\n      return\n        /* \"val59.sol\":2235:2318  function normalFunction()... */\n    tag_5:\n      callvalue\n      dup1\n      iszero\n      tag_18\n      jumpi\n      revert(0x00, 0x00)\n    tag_18:\n      pop\n      tag_19\n      tag_20\n      jump\t// in\n    tag_19:\n      stop\n        /* \"val59.sol\":2509:2618  function alwaysFail()... */\n    tag_12:\n        /* \"val59.sol\":2581:2610  revert(\"Intentional failure\") */\n      mload(0x40)\n      0x08c379a000000000000000000000000000000000000000000000000000000000\n      dup2\n      mstore\n      0x04\n      add\n      tag_22\n      swap1\n      tag_23\n      jump\t// in\n    tag_22:\n      mload(0x40)\n      dup1\n      swap2\n      sub\n      swap1\n      revert\n        /* \"val59.sol\":2043:2069  uint256 public callCounter */\n    tag_15:\n      sload(0x00)\n      dup2\n      jump\t// out\n        /* \"val59.sol\":2235:2318  function normalFunction()... */\n    tag_20:\n        /* \"val59.sol\":2297:2308  callCounter */\n      0x00\n      0x00\n        /* \"val59.sol\":2297:2310  callCounter++ */\n      dup2\n      sload\n      dup1\n      swap3\n      swap2\n      swap1\n      tag_25\n      swap1\n      tag_26\n      jump\t// in\n    tag_25:\n      swap2\n      swap1\n      pop\n      sstore\n      pop\n        /* \"val59.sol\":2235:2318  function normalFunction()... */\n      jump\t// out\n        /* \"#utility.yul\":7:176   */\n    tag_27:\n        /* \"#utility.yul\":91:102   */\n      0x00\n        /* \"#utility.yul\":125:131   */\n      dup3\n        /* \"#utility.yul\":120:123   */\n      dup3\n        /* \"#utility.yul\":113:132   */\n      mstore\n        /* \"#utility.yul\":165:169   */\n      0x20\n        /* \"#utility.yul\":160:163   */\n      dup3\n        /* \"#utility.yul\":156:170   */\n      add\n        /* \"#utility.yul\":141:170   */\n      swap1\n      pop\n        /* \"#utility.yul\":7:176   */\n      swap3\n      swap2\n      pop\n      pop\n      jump\t// out\n        /* \"#utility.yul\":182:344   */\n    tag_28:\n        /* \"#utility.yul\":322:336   */\n      0x4554482072656a65637465640000000000000000000000000000000000000000\n        /* \"#utility.yul\":318:319   */\n      0x00\n        /* \"#utility.yul\":310:316   */\n      dup3\n        /* \"#utility.yul\":306:320   */\n      add\n        /* \"#utility.yul\":299:337   */\n      mstore\n        /* \"#utility.yul\":182:344   */\n      pop\n      jump\t// out\n        /* \"#utility.yul\":350:716   */\n    tag_29:\n        /* \"#utility.yul\":492:495   */\n      0x00\n        /* \"#utility.yul\":513:580   */\n      tag_39\n        /* \"#utility.yul\":577:579   */\n      0x0c\n        /* \"#utility.yul\":572:575   */\n      dup4\n        /* \"#utility.yul\":513:580   */\n      tag_27\n      jump\t// in\n    tag_39:\n        /* \"#utility.yul\":506:580   */\n      swap2\n      pop\n        /* \"#utility.yul\":589:682   */\n      tag_40\n        /* \"#utility.yul\":678:681   */\n      dup3\n        /* \"#utility.yul\":589:682   */\n      tag_28\n      jump\t// in\n    tag_40:\n        /* \"#utility.yul\":707:709   */\n      0x20\n        /* \"#utility.yul\":702:705   */\n      dup3\n        /* \"#utility.yul\":698:710   */\n      add\n        /* \"#utility.yul\":691:710   */\n      swap1\n      pop\n        /* \"#utility.yul\":350:716   */\n      swap2\n      swap1\n      pop\n      jump\t// out\n        /* \"#utility.yul\":722:1141   */\n    tag_9:\n        /* \"#utility.yul\":888:892   */\n      0x00\n        /* \"#utility.yul\":926:928   */\n      0x20\n        /* \"#utility.yul\":915:924   */\n      dup3\n        /* \"#utility.yul\":911:929   */\n      add\n        /* \"#utility.yul\":903:929   */\n      swap1\n      pop\n        /* \"#utility.yul\":975:984   */\n      dup2\n        /* \"#utility.yul\":969:973   */\n      dup2\n        /* \"#utility.yul\":965:985   */\n      sub\n        /* \"#utility.yul\":961:962   */\n      0x00\n        /* \"#utility.yul\":950:959   */\n      dup4\n        /* \"#utility.yul\":946:963   */\n      add\n        /* \"#utility.yul\":939:986   */\n      mstore\n        /* \"#utility.yul\":1003:1134   */\n      tag_42\n        /* \"#utility.yul\":1129:1133   */\n      dup2\n        /* \"#utility.yul\":1003:1134   */\n      tag_29\n      jump\t// in\n    tag_42:\n        /* \"#utility.yul\":995:1134   */\n      swap1\n      pop\n        /* \"#utility.yul\":722:1141   */\n      swap2\n      swap1\n      pop\n      jump\t// out\n        /* \"#utility.yul\":1147:1224   */\n    tag_30:\n        /* \"#utility.yul\":1184:1191   */\n      0x00\n        /* \"#utility.yul\":1213:1218   */\n      dup2\n        /* \"#utility.yul\":1202:1218   */\n      swap1\n      pop\n        /* \"#utility.yul\":1147:1224   */\n      swap2\n      swap1\n      pop\n      jump\t// out\n        /* \"#utility.yul\":1230:1348   */\n    tag_31:\n        /* \"#utility.yul\":1317:1341   */\n      tag_45\n        /* \"#utility.yul\":1335:1340   */\n      dup2\n        /* \"#utility.yul\":1317:1341   */\n      tag_30\n      jump\t// in\n    tag_45:\n        /* \"#utility.yul\":1312:1315   */\n      dup3\n        /* \"#utility.yul\":1305:1342   */\n      mstore\n        /* \"#utility.yul\":1230:1348   */\n      pop\n      pop\n      jump\t// out\n        /* \"#utility.yul\":1354:1576   */\n    tag_17:\n        /* \"#utility.yul\":1447:1451   */\n      0x00\n        /* \"#utility.yul\":1485:1487   */\n      0x20\n        /* \"#utility.yul\":1474:1483   */\n      dup3\n        /* \"#utility.yul\":1470:1488   */\n      add\n        /* \"#utility.yul\":1462:1488   */\n      swap1\n      pop\n        /* \"#utility.yul\":1498:1569   */\n      tag_47\n        /* \"#utility.yul\":1566:1567   */\n      0x00\n        /* \"#utility.yul\":1555:1564   */\n      dup4\n        /* \"#utility.yul\":1551:1568   */\n      add\n        /* \"#utility.yul\":1542:1548   */\n      dup5\n        /* \"#utility.yul\":1498:1569   */\n      tag_31\n      jump\t// in\n    tag_47:\n        /* \"#utility.yul\":1354:1576   */\n      swap3\n      swap2\n      pop\n      pop\n      jump\t// out\n        /* \"#utility.yul\":1582:1751   */\n    tag_32:\n        /* \"#utility.yul\":1722:1743   */\n      0x496e74656e74696f6e616c206661696c75726500000000000000000000000000\n        /* \"#utility.yul\":1718:1719   */\n      0x00\n        /* \"#utility.yul\":1710:1716   */\n      dup3\n        /* \"#utility.yul\":1706:1720   */\n      add\n        /* \"#utility.yul\":1699:1744   */\n      mstore\n        /* \"#utility.yul\":1582:1751   */\n      pop\n      jump\t// out\n        /* \"#utility.yul\":1757:2123   */\n    tag_33:\n        /* \"#utility.yul\":1899:1902   */\n      0x00\n        /* \"#utility.yul\":1920:1987   */\n      tag_50\n        /* \"#utility.yul\":1984:1986   */\n      0x13\n        /* \"#utility.yul\":1979:1982   */\n      dup4\n        /* \"#utility.yul\":1920:1987   */\n      tag_27\n      jump\t// in\n    tag_50:\n        /* \"#utility.yul\":1913:1987   */\n      swap2\n      pop\n        /* \"#utility.yul\":1996:2089   */\n      tag_51\n        /* \"#utility.yul\":2085:2088   */\n      dup3\n        /* \"#utility.yul\":1996:2089   */\n      tag_32\n      jump\t// in\n    tag_51:\n        /* \"#utility.yul\":2114:2116   */\n      0x20\n        /* \"#utility.yul\":2109:2112   */\n      dup3\n        /* \"#utility.yul\":2105:2117   */\n      add\n        /* \"#utility.yul\":2098:2117   */\n      swap1\n      pop\n        /* \"#utility.yul\":1757:2123   */\n      swap2\n      swap1\n      pop\n      jump\t// out\n        /* \"#utility.yul\":2129:2548   */\n    tag_23:\n        /* \"#utility.yul\":2295:2299   */\n      0x00\n        /* \"#utility.yul\":2333:2335   */\n      0x20\n        /* \"#utility.yul\":2322:2331   */\n      dup3\n        /* \"#utility.yul\":2318:2336   */\n      add\n        /* \"#utility.yul\":2310:2336   */\n      swap1\n      pop\n        /* \"#utility.yul\":2382:2391   */\n      dup2\n        /* \"#utility.yul\":2376:2380   */\n      dup2\n        /* \"#utility.yul\":2372:2392   */\n      sub\n        /* \"#utility.yul\":2368:2369   */\n      0x00\n        /* \"#utility.yul\":2357:2366   */\n      dup4\n        /* \"#utility.yul\":2353:2370   */\n      add\n        /* \"#utility.yul\":2346:2393   */\n      mstore\n        /* \"#utility.yul\":2410:2541   */\n      tag_53\n        /* \"#utility.yul\":2536:2540   */\n      dup2\n        /* \"#utility.yul\":2410:2541   */\n      tag_33\n      jump\t// in\n    tag_53:\n        /* \"#utility.yul\":2402:2541   */\n      swap1\n      pop\n        /* \"#utility.yul\":2129:2548   */\n      swap2\n      swap1\n      pop\n      jump\t// out\n        /* \"#utility.yul\":2554:2734   */\n    tag_34:\n        /* \"#utility.yul\":2602:2679   */\n      0x4e487b7100000000000000000000000000000000000000000000000000000000\n        /* \"#utility.yul\":2599:2600   */\n      0x00\n        /* \"#utility.yul\":2592:2680   */\n      mstore\n        /* \"#utility.yul\":2699:2703   */\n      0x11\n        /* \"#utility.yul\":2696:2697   */\n      0x04\n        /* \"#utility.yul\":2689:2704   */\n      mstore\n        /* \"#utility.yul\":2723:2727   */\n      0x24\n        /* \"#utility.yul\":2720:2721   */\n      0x00\n        /* \"#utility.yul\":2713:2728   */\n      revert\n        /* \"#utility.yul\":2740:2973   */\n    tag_26:\n        /* \"#utility.yul\":2779:2782   */\n      0x00\n        /* \"#utility.yul\":2802:2826   */\n      tag_56\n        /* \"#utility.yul\":2820:2825   */\n      dup3\n        /* \"#utility.yul\":2802:2826   */\n      tag_30\n      jump\t// in\n    tag_56:\n        /* \"#utility.yul\":2793:2826   */\n      swap2\n      pop\n        /* \"#utility.yul\":2848:2914   */\n      0xffffffffffffffffffffffffffffffffffffffffffffffffffffffffffffffff\n        /* \"#utility.yul\":2841:2846   */\n      dup3\n        /* \"#utility.yul\":2838:2915   */\n      sub\n        /* \"#utility.yul\":2835:2938   */\n      tag_57\n      jumpi\n        /* \"#utility.yul\":2918:2936   */\n      tag_58\n      tag_34\n      jump\t// in\n    tag_58:\n        /* \"#utility.yul\":2835:2938   */\n    tag_57:\n        /* \"#utility.yul\":2965:2966   */\n      0x01\n        /* \"#utility.yul\":2958:2963   */\n      dup3\n        /* \"#utility.yul\":2954:2967   */\n      add\n        /* \"#utility.yul\":2947:2967   */\n      swap1\n      pop\n        /* \"#utility.yul\":2740:2973   */\n      swap2\n      swap1\n      pop\n      jump\t// out\n\n    auxdata: 0xa264697066735822122032df017a5f7be71009d9527cabd70891c7d71dfb1f68e7e45f9d4af435f0641c64736f6c63430008220033\n}\n",
				"bytecode": {
					"linkReferences": {},
					"object": "6080604052348015600e575f5ffd5b506102e48061001c5f395ff3fe608060405260043610610037575f3560e01c80631a3528511461007b578063c0f9882e14610091578063d67e4b84146100bb57610077565b36610077576040517f08c379a000000000000000000000000000000000000000000000000000000000815260040161006e90610183565b60405180910390fd5b5f5ffd5b348015610086575f5ffd5b5061008f6100d1565b005b34801561009c575f5ffd5b506100a561010c565b6040516100b291906101b9565b60405180910390f35b3480156100c6575f5ffd5b506100cf610111565b005b6040517f08c379a00000000000000000000000000000000000000000000000000000000081526004016101039061021c565b60405180910390fd5b5f5481565b5f5f81548092919061012290610267565b9190505550565b5f82825260208201905092915050565b7f4554482072656a656374656400000000000000000000000000000000000000005f82015250565b5f61016d600c83610129565b915061017882610139565b602082019050919050565b5f6020820190508181035f83015261019a81610161565b9050919050565b5f819050919050565b6101b3816101a1565b82525050565b5f6020820190506101cc5f8301846101aa565b92915050565b7f496e74656e74696f6e616c206661696c757265000000000000000000000000005f82015250565b5f610206601383610129565b9150610211826101d2565b602082019050919050565b5f6020820190508181035f830152610233816101fa565b9050919050565b7f4e487b71000000000000000000000000000000000000000000000000000000005f52601160045260245ffd5b5f610271826101a1565b91507fffffffffffffffffffffffffffffffffffffffffffffffffffffffffffffffff82036102a3576102a261023a565b5b60018201905091905056fea264697066735822122032df017a5f7be71009d9527cabd70891c7d71dfb1f68e7e45f9d4af435f0641c64736f6c63430008220033",
					"opcodes": "PUSH1 0x80 PUSH1 0x40 MSTORE CALLVALUE DUP1 ISZERO PUSH1 0xE JUMPI PUSH0 PUSH0 REVERT JUMPDEST POP PUSH2 0x2E4 DUP1 PUSH2 0x1C PUSH0 CODECOPY PUSH0 RETURN INVALID PUSH1 0x80 PUSH1 0x40 MSTORE PUSH1 0x4 CALLDATASIZE LT PUSH2 0x37 JUMPI PUSH0 CALLDATALOAD PUSH1 0xE0 SHR DUP1 PUSH4 0x1A352851 EQ PUSH2 0x7B JUMPI DUP1 PUSH4 0xC0F9882E EQ PUSH2 0x91 JUMPI DUP1 PUSH4 0xD67E4B84 EQ PUSH2 0xBB JUMPI PUSH2 0x77 JUMP JUMPDEST CALLDATASIZE PUSH2 0x77 JUMPI PUSH1 0x40 MLOAD PUSH32 0x8C379A000000000000000000000000000000000000000000000000000000000 DUP2 MSTORE PUSH1 0x4 ADD PUSH2 0x6E SWAP1 PUSH2 0x183 JUMP JUMPDEST PUSH1 0x40 MLOAD DUP1 SWAP2 SUB SWAP1 REVERT JUMPDEST PUSH0 PUSH0 REVERT JUMPDEST CALLVALUE DUP1 ISZERO PUSH2 0x86 JUMPI PUSH0 PUSH0 REVERT JUMPDEST POP PUSH2 0x8F PUSH2 0xD1 JUMP JUMPDEST STOP JUMPDEST CALLVALUE DUP1 ISZERO PUSH2 0x9C JUMPI PUSH0 PUSH0 REVERT JUMPDEST POP PUSH2 0xA5 PUSH2 0x10C JUMP JUMPDEST PUSH1 0x40 MLOAD PUSH2 0xB2 SWAP2 SWAP1 PUSH2 0x1B9 JUMP JUMPDEST PUSH1 0x40 MLOAD DUP1 SWAP2 SUB SWAP1 RETURN JUMPDEST CALLVALUE DUP1 ISZERO PUSH2 0xC6 JUMPI PUSH0 PUSH0 REVERT JUMPDEST POP PUSH2 0xCF PUSH2 0x111 JUMP JUMPDEST STOP JUMPDEST PUSH1 0x40 MLOAD PUSH32 0x8C379A000000000000000000000000000000000000000000000000000000000 DUP2 MSTORE PUSH1 0x4 ADD PUSH2 0x103 SWAP1 PUSH2 0x21C JUMP JUMPDEST PUSH1 0x40 MLOAD DUP1 SWAP2 SUB SWAP1 REVERT JUMPDEST PUSH0 SLOAD DUP2 JUMP JUMPDEST PUSH0 PUSH0 DUP2 SLOAD DUP1 SWAP3 SWAP2 SWAP1 PUSH2 0x122 SWAP1 PUSH2 0x267 JUMP JUMPDEST SWAP2 SWAP1 POP SSTORE POP JUMP JUMPDEST PUSH0 DUP3 DUP3 MSTORE PUSH1 0x20 DUP3 ADD SWAP1 POP SWAP3 SWAP2 POP POP JUMP JUMPDEST PUSH32 0x4554482072656A65637465640000000000000000000000000000000000000000 PUSH0 DUP3 ADD MSTORE POP JUMP JUMPDEST PUSH0 PUSH2 0x16D PUSH1 0xC DUP4 PUSH2 0x129 JUMP JUMPDEST SWAP2 POP PUSH2 0x178 DUP3 PUSH2 0x139 JUMP JUMPDEST PUSH1 0x20 DUP3 ADD SWAP1 POP SWAP2 SWAP1 POP JUMP JUMPDEST PUSH0 PUSH1 0x20 DUP3 ADD SWAP1 POP DUP2 DUP2 SUB PUSH0 DUP4 ADD MSTORE PUSH2 0x19A DUP2 PUSH2 0x161 JUMP JUMPDEST SWAP1 POP SWAP2 SWAP1 POP JUMP JUMPDEST PUSH0 DUP2 SWAP1 POP SWAP2 SWAP1 POP JUMP JUMPDEST PUSH2 0x1B3 DUP2 PUSH2 0x1A1 JUMP JUMPDEST DUP3 MSTORE POP POP JUMP JUMPDEST PUSH0 PUSH1 0x20 DUP3 ADD SWAP1 POP PUSH2 0x1CC PUSH0 DUP4 ADD DUP5 PUSH2 0x1AA JUMP JUMPDEST SWAP3 SWAP2 POP POP JUMP JUMPDEST PUSH32 0x496E74656E74696F6E616C206661696C75726500000000000000000000000000 PUSH0 DUP3 ADD MSTORE POP JUMP JUMPDEST PUSH0 PUSH2 0x206 PUSH1 0x13 DUP4 PUSH2 0x129 JUMP JUMPDEST SWAP2 POP PUSH2 0x211 DUP3 PUSH2 0x1D2 JUMP JUMPDEST PUSH1 0x20 DUP3 ADD SWAP1 POP SWAP2 SWAP1 POP JUMP JUMPDEST PUSH0 PUSH1 0x20 DUP3 ADD SWAP1 POP DUP2 DUP2 SUB PUSH0 DUP4 ADD MSTORE PUSH2 0x233 DUP2 PUSH2 0x1FA JUMP JUMPDEST SWAP1 POP SWAP2 SWAP1 POP JUMP JUMPDEST PUSH32 0x4E487B7100000000000000000000000000000000000000000000000000000000 PUSH0 MSTORE PUSH1 0x11 PUSH1 0x4 MSTORE PUSH1 0x24 PUSH0 REVERT JUMPDEST PUSH0 PUSH2 0x271 DUP3 PUSH2 0x1A1 JUMP JUMPDEST SWAP2 POP PUSH32 0xFFFFFFFFFFFFFFFFFFFFFFFFFFFFFFFFFFFFFFFFFFFFFFFFFFFFFFFFFFFFFFFF DUP3 SUB PUSH2 0x2A3 JUMPI PUSH2 0x2A2 PUSH2 0x23A JUMP JUMPDEST JUMPDEST PUSH1 0x1 DUP3 ADD SWAP1 POP SWAP2 SWAP1 POP JUMP INVALID LOG2 PUSH5 0x6970667358 0x22 SLT KECCAK256 ORIGIN 0xDF ADD PUSH27 0x5F7BE71009D9527CABD70891C7D71DFB1F68E7E45F9D4AF435F064 SHR PUSH5 0x736F6C6343 STOP ADDMOD 0x22 STOP CALLER "
				},
				"gasEstimates": {
					"creation": {
						"codeDepositCost": "148000",
						"executionCost": "194",
						"totalCost": "148194"
					},
					"external": {
						"alwaysFail()": "406",
						"callCounter()": "2424",
						"normalFunction()": "24518"
					}
				},
				"methodIdentifiers": {
					"alwaysFail()": "1a352851",
					"callCounter()": "c0f9882e",
					"normalFunction()": "d67e4b84"
				}
			},
			"storageLayout": {
				"storage": [
					{
						"astId": 3,
						"contract": "val59.sol:Rejectorval",
						"label": "callCounter",
						"offset": 0,
						"slot": "0",
						"type": "t_uint256"
					}
				],
				"types": {
					"t_uint256": {
						"encoding": "inplace",
						"label": "uint256",
						"numberOfBytes": "32"
					}
				}
			},
			"userdoc": {
				"kind": "user",
				"methods": {},
				"version": 1
			}
		}
	}
}