{
	"val59.sol": {
		"Rejector": {
			"abi": [
				{
					"anonymous": false,
					"inputs": [
						{
							"indexed": false,
							"internalType": "address",
							"name": "caller",
							"type": "address"
						}
					],
					"name": "FunctionExecuted",
					"type": "event"
				},
				{
					"anonymous": false,
					"inputs": [
						{
							"indexed": false,
							"internalType": "address",
							"name": "caller",
							"type": "address"
						},
						{
							"indexed": false,
							"internalType": "string",
							"name": "reason",
							"type": "string"
						}
					],
					"name": "FunctionFailed",
					"type": "event"
				},
				{
					"inputs": [],
					"name": "alwaysFail",
					"outputs": [],
					"stateMutability": "pure",
					"type": "function"
				},
				{
					"inputs": [],
					"name": "callCounter",
					"outputs": [
						{
							"internalType": "uint256",
							"name": "",
							"type": "uint256"
						}
					],
					"stateMutability": "view",
					"type": "function"
				},
				{
					"inputs": [],
					"name": "normalFunction",
					"outputs": [],
					"stateMutability": "nonpayable",
					"type": "function"
				},
				{
					"stateMutability": "payable",
					"type": "receive"
				}
			],
			"devdoc": {
				"kind": "dev",
				"methods": {},
				"version": 1
			},
			"evm": {
				"assembly": "    /* \"val59.sol\":17048:18362  contract Rejector {... */\n  mstore(0x40, 0x80)\n  callvalue\n  dup1\n  iszero\n  tag_1\n  jumpi\n  revert(0x00, 0x00)\ntag_1:\n  pop\n  dataSize(sub_0)\n  dup1\n  dataOffset(sub_0)\n  0x00\n  codecopy\n  0x00\n  return\nstop\n\nsub_0: assembly {\n        /* \"val59.sol\":17048:18362  contract Rejector {... */\n      mstore(0x40, 0x80)\n      jumpi(tag_1, lt(calldatasize, 0x04))\n      shr(0xe0, calldataload(0x00))\n      dup1\n      0x1a352851\n      eq\n      tag_3\n      jumpi\n      dup1\n      0xc0f9882e\n      eq\n      tag_4\n      jumpi\n      dup1\n      0xd67e4b84\n      eq\n      tag_5\n      jumpi\n      jump(tag_2)\n    tag_1:\n      jumpi(tag_2, calldatasize)\n        /* \"val59.sol\":18305:18351  revert(... */\n      mload(0x40)\n      0x08c379a000000000000000000000000000000000000000000000000000000000\n      dup2\n      mstore\n      0x04\n      add\n      tag_8\n      swap1\n      tag_9\n      jump\t// in\n    tag_8:\n      mload(0x40)\n      dup1\n      swap2\n      sub\n      swap1\n      revert\n        /* \"val59.sol\":17048:18362  contract Rejector {... */\n    tag_2:\n      revert(0x00, 0x00)\n        /* \"val59.sol\":17949:18082  function alwaysFail()... */\n    tag_3:\n      callvalue\n      dup1\n      iszero\n      tag_10\n      jumpi\n      revert(0x00, 0x00)\n    tag_10:\n      pop\n      tag_11\n      tag_12\n      jump\t// in\n    tag_11:\n      stop\n        /* \"val59.sol\":17117:17143  uint256 public callCounter */\n    tag_4:\n      callvalue\n      dup1\n      iszero\n      tag_13\n      jumpi\n      revert(0x00, 0x00)\n    tag_13:\n      pop\n      tag_14\n      tag_15\n      jump\t// in\n    tag_14:\n      mload(0x40)\n      tag_16\n      swap2\n      swap1\n      tag_17\n      jump\t// in\n    tag_16:\n      mload(0x40)\n      dup1\n      swap2\n      sub\n      swap1\n      return\n        /* \"val59.sol\":17605:17758  function normalFunction()... */\n    tag_5:\n      callvalue\n      dup1\n      iszero\n      tag_18\n      jumpi\n      revert(0x00, 0x00)\n    tag_18:\n      pop\n      tag_19\n      tag_20\n      jump\t// in\n    tag_19:\n      stop\n        /* \"val59.sol\":17949:18082  function alwaysFail()... */\n    tag_12:\n        /* \"val59.sol\":18021:18074  revert(... */\n      mload(0x40)\n      0x08c379a000000000000000000000000000000000000000000000000000000000\n      dup2\n      mstore\n      0x04\n      add\n      tag_22\n      swap1\n      tag_23\n      jump\t// in\n    tag_22:\n      mload(0x40)\n      dup1\n      swap2\n      sub\n      swap1\n      revert\n        /* \"val59.sol\":17117:17143  uint256 public callCounter */\n    tag_15:\n      sload(0x00)\n      dup2\n      jump\t// out\n        /* \"val59.sol\":17605:17758  function normalFunction()... */\n    tag_20:\n        /* \"val59.sol\":17667:17678  callCounter */\n      0x00\n      0x00\n        /* \"val59.sol\":17667:17680  callCounter++ */\n      dup2\n      sload\n      dup1\n      swap3\n      swap2\n      swap1\n      tag_25\n      swap1\n      tag_26\n      jump\t// in\n    tag_25:\n      swap2\n      swap1\n      pop\n      sstore\n      pop\n        /* \"val59.sol\":17698:17750  FunctionExecuted(... */\n      0x5143fe5c74b6d0569f5b2107edaaf7c8e3e334dddcca7abe7b58f81bca8fdc64\n        /* \"val59.sol\":17729:17739  msg.sender */\n      caller\n        /* \"val59.sol\":17698:17750  FunctionExecuted(... */\n      mload(0x40)\n      tag_27\n      swap2\n      swap1\n      tag_28\n      jump\t// in\n    tag_27:\n      mload(0x40)\n      dup1\n      swap2\n      sub\n      swap1\n      log1\n        /* \"val59.sol\":17605:17758  function normalFunction()... */\n      jump\t// out\n        /* \"#utility.yul\":7:176   */\n    tag_29:\n        /* \"#utility.yul\":91:102   */\n      0x00\n        /* \"#utility.yul\":125:131   */\n      dup3\n        /* \"#utility.yul\":120:123   */\n      dup3\n        /* \"#utility.yul\":113:132   */\n      mstore\n        /* \"#utility.yul\":165:169   */\n      0x20\n        /* \"#utility.yul\":160:163   */\n      dup3\n        /* \"#utility.yul\":156:170   */\n      add\n        /* \"#utility.yul\":141:170   */\n      swap1\n      pop\n        /* \"#utility.yul\":7:176   */\n      swap3\n      swap2\n      pop\n      pop\n      jump\t// out\n        /* \"#utility.yul\":182:344   */\n    tag_30:\n        /* \"#utility.yul\":322:336   */\n      0x4554482072656a65637465640000000000000000000000000000000000000000\n        /* \"#utility.yul\":318:319   */\n      0x00\n        /* \"#utility.yul\":310:316   */\n      dup3\n        /* \"#utility.yul\":306:320   */\n      add\n        /* \"#utility.yul\":299:337   */\n      mstore\n        /* \"#utility.yul\":182:344   */\n      pop\n      jump\t// out\n        /* \"#utility.yul\":350:716   */\n    tag_31:\n        /* \"#utility.yul\":492:495   */\n      0x00\n        /* \"#utility.yul\":513:580   */\n      tag_44\n        /* \"#utility.yul\":577:579   */\n      0x0c\n        /* \"#utility.yul\":572:575   */\n      dup4\n        /* \"#utility.yul\":513:580   */\n      tag_29\n      jump\t// in\n    tag_44:\n        /* \"#utility.yul\":506:580   */\n      swap2\n      pop\n        /* \"#utility.yul\":589:682   */\n      tag_45\n        /* \"#utility.yul\":678:681   */\n      dup3\n        /* \"#utility.yul\":589:682   */\n      tag_30\n      jump\t// in\n    tag_45:\n        /* \"#utility.yul\":707:709   */\n      0x20\n        /* \"#utility.yul\":702:705   */\n      dup3\n        /* \"#utility.yul\":698:710   */\n      add\n        /* \"#utility.yul\":691:710   */\n      swap1\n      pop\n        /* \"#utility.yul\":350:716   */\n      swap2\n      swap1\n      pop\n      jump\t// out\n        /* \"#utility.yul\":722:1141   */\n    tag_9:\n        /* \"#utility.yul\":888:892   */\n      0x00\n        /* \"#utility.yul\":926:928   */\n      0x20\n        /* \"#utility.yul\":915:924   */\n      dup3\n        /* \"#utility.yul\":911:929   */\n      add\n        /* \"#utility.yul\":903:929   */\n      swap1\n      pop\n        /* \"#utility.yul\":975:984   */\n      dup2\n        /* \"#utility.yul\":969:973   */\n      dup2\n        /* \"#utility.yul\":965:985   */\n      sub\n        /* \"#utility.yul\":961:962   */\n      0x00\n        /* \"#utility.yul\":950:959   */\n      dup4\n        /* \"#utility.yul\":946:963   */\n      add\n        /* \"#utility.yul\":939:986   */\n      mstore\n        /* \"#utility.yul\":1003:1134   */\n      tag_47\n        /* \"#utility.yul\":1129:1133   */\n      dup2\n        /* \"#utility.yul\":1003:1134   */\n      tag_31\n      jump\t// in\n    tag_47:\n        /* \"#utility.yul\":995:1134   */\n      swap1\n      pop\n        /* \"#utility.yul\":722:1141   */\n      swap2\n      swap1\n      pop\n      jump\t// out\n        /* \"#utility.yul\":1147:1224   */\n    tag_32:\n        /* \"#utility.yul\":1184:1191   */\n      0x00\n        /* \"#utility.yul\":1213:1218   */\n      dup2\n        /* \"#utility.yul\":1202:1218   */\n      swap1\n      pop\n        /* \"#utility.yul\":1147:1224   */\n      swap2\n      swap1\n      pop\n      jump\t// out\n        /* \"#utility.yul\":1230:1348   */\n    tag_33:\n        /* \"#utility.yul\":1317:1341   */\n      tag_50\n        /* \"#utility.yul\":1335:1340   */\n      dup2\n        /* \"#utility.yul\":1317:1341   */\n      tag_32\n      jump\t// in\n    tag_50:\n        /* \"#utility.yul\":1312:1315   */\n      dup3\n        /* \"#utility.yul\":1305:1342   */\n      mstore\n        /* \"#utility.yul\":1230:1348   */\n      pop\n      pop\n      jump\t// out\n        /* \"#utility.yul\":1354:1576   */\n    tag_17:\n        /* \"#utility.yul\":1447:1451   */\n      0x00\n        /* \"#utility.yul\":1485:1487   */\n      0x20\n        /* \"#utility.yul\":1474:1483   */\n      dup3\n        /* \"#utility.yul\":1470:1488   */\n      add\n        /* \"#utility.yul\":1462:1488   */\n      swap1\n      pop\n        /* \"#utility.yul\":1498:1569   */\n      tag_52\n        /* \"#utility.yul\":1566:1567   */\n      0x00\n        /* \"#utility.yul\":1555:1564   */\n      dup4\n        /* \"#utility.yul\":1551:1568   */\n      add\n        /* \"#utility.yul\":1542:1548   */\n      dup5\n        /* \"#utility.yul\":1498:1569   */\n      tag_33\n      jump\t// in\n    tag_52:\n        /* \"#utility.yul\":1354:1576   */\n      swap3\n      swap2\n      pop\n      pop\n      jump\t// out\n        /* \"#utility.yul\":1582:1751   */\n    tag_34:\n        /* \"#utility.yul\":1722:1743   */\n      0x496e74656e74696f6e616c206661696c75726500000000000000000000000000\n        /* \"#utility.yul\":1718:1719   */\n      0x00\n        /* \"#utility.yul\":1710:1716   */\n      dup3\n        /* \"#utility.yul\":1706:1720   */\n      add\n        /* \"#utility.yul\":1699:1744   */\n      mstore\n        /* \"#utility.yul\":1582:1751   */\n      pop\n      jump\t// out\n        /* \"#utility.yul\":1757:2123   */\n    tag_35:\n        /* \"#utility.yul\":1899:1902   */\n      0x00\n        /* \"#utility.yul\":1920:1987   */\n      tag_55\n        /* \"#utility.yul\":1984:1986   */\n      0x13\n        /* \"#utility.yul\":1979:1982   */\n      dup4\n        /* \"#utility.yul\":1920:1987   */\n      tag_29\n      jump\t// in\n    tag_55:\n        /* \"#utility.yul\":1913:1987   */\n      swap2\n      pop\n        /* \"#utility.yul\":1996:2089   */\n      tag_56\n        /* \"#utility.yul\":2085:2088   */\n      dup3\n        /* \"#utility.yul\":1996:2089   */\n      tag_34\n      jump\t// in\n    tag_56:\n        /* \"#utility.yul\":2114:2116   */\n      0x20\n        /* \"#utility.yul\":2109:2112   */\n      dup3\n        /* \"#utility.yul\":2105:2117   */\n      add\n        /* \"#utility.yul\":2098:2117   */\n      swap1\n      pop\n        /* \"#utility.yul\":1757:2123   */\n      swap2\n      swap1\n      pop\n      jump\t// out\n        /* \"#utility.yul\":2129:2548   */\n    tag_23:\n        /* \"#utility.yul\":2295:2299   */\n      0x00\n        /* \"#utility.yul\":2333:2335   */\n      0x20\n        /* \"#utility.yul\":2322:2331   */\n      dup3\n        /* \"#utility.yul\":2318:2336   */\n      add\n        /* \"#utility.yul\":2310:2336   */\n      swap1\n      pop\n        /* \"#utility.yul\":2382:2391   */\n      dup2\n        /* \"#utility.yul\":2376:2380   */\n      dup2\n        /* \"#utility.yul\":2372:2392   */\n      sub\n        /* \"#utility.yul\":2368:2369   */\n      0x00\n        /* \"#utility.yul\":2357:2366   */\n      dup4\n        /* \"#utility.yul\":2353:2370   */\n      add\n        /* \"#utility.yul\":2346:2393   */\n      mstore\n        /* \"#utility.yul\":2410:2541   */\n      tag_58\n        /* \"#utility.yul\":2536:2540   */\n      dup2\n        /* \"#utility.yul\":2410:2541   */\n      tag_35\n      jump\t// in\n    tag_58:\n        /* \"#utility.yul\":2402:2541   */\n      swap1\n      pop\n        /* \"#utility.yul\":2129:2548   */\n      swap2\n      swap1\n      pop\n      jump\t// out\n        /* \"#utility.yul\":2554:2734   */\n    tag_36:\n        /* \"#utility.yul\":2602:2679   */\n      0x4e487b7100000000000000000000000000000000000000000000000000000000\n        /* \"#utility.yul\":2599:2600   */\n      0x00\n        /* \"#utility.yul\":2592:2680   */\n      mstore\n        /* \"#utility.yul\":2699:2703   */\n      0x11\n        /* \"#utility.yul\":2696:2697   */\n      0x04\n        /* \"#utility.yul\":2689:2704   */\n      mstore\n        /* \"#utility.yul\":2723:2727   */\n      0x24\n        /* \"#utility.yul\":2720:2721   */\n      0x00\n        /* \"#utility.yul\":2713:2728   */\n      revert\n        /* \"#utility.yul\":2740:2973   */\n    tag_26:\n        /* \"#utility.yul\":2779:2782   */\n      0x00\n        /* \"#utility.yul\":2802:2826   */\n      tag_61\n        /* \"#utility.yul\":2820:2825   */\n      dup3\n        /* \"#utility.yul\":2802:2826   */\n      tag_32\n      jump\t// in\n    tag_61:\n        /* \"#utility.yul\":2793:2826   */\n      swap2\n      pop\n        /* \"#utility.yul\":2848:2914   */\n      0xffffffffffffffffffffffffffffffffffffffffffffffffffffffffffffffff\n        /* \"#utility.yul\":2841:2846   */\n      dup3\n        /* \"#utility.yul\":2838:2915   */\n      sub\n        /* \"#utility.yul\":2835:2938   */\n      tag_62\n      jumpi\n        /* \"#utility.yul\":2918:2936   */\n      tag_63\n      tag_36\n      jump\t// in\n    tag_63:\n        /* \"#utility.yul\":2835:2938   */\n    tag_62:\n        /* \"#utility.yul\":2965:2966   */\n      0x01\n        /* \"#utility.yul\":2958:2963   */\n      dup3\n        /* \"#utility.yul\":2954:2967   */\n      add\n        /* \"#utility.yul\":2947:2967   */\n      swap1\n      pop\n        /* \"#utility.yul\":2740:2973   */\n      swap2\n      swap1\n      pop\n      jump\t// out\n        /* \"#utility.yul\":2979:3105   */\n    tag_37:\n        /* \"#utility.yul\":3016:3023   */\n      0x00\n        /* \"#utility.yul\":3056:3098   */\n      0xffffffffffffffffffffffffffffffffffffffff\n        /* \"#utility.yul\":3049:3054   */\n      dup3\n        /* \"#utility.yul\":3045:3099   */\n      and\n        /* \"#utility.yul\":3034:3099   */\n      swap1\n      pop\n        /* \"#utility.yul\":2979:3105   */\n      swap2\n      swap1\n      pop\n      jump\t// out\n        /* \"#utility.yul\":3111:3207   */\n    tag_38:\n        /* \"#utility.yul\":3148:3155   */\n      0x00\n        /* \"#utility.yul\":3177:3201   */\n      tag_66\n        /* \"#utility.yul\":3195:3200   */\n      dup3\n        /* \"#utility.yul\":3177:3201   */\n      tag_37\n      jump\t// in\n    tag_66:\n        /* \"#utility.yul\":3166:3201   */\n      swap1\n      pop\n        /* \"#utility.yul\":3111:3207   */\n      swap2\n      swap1\n      pop\n      jump\t// out\n        /* \"#utility.yul\":3213:3331   */\n    tag_39:\n        /* \"#utility.yul\":3300:3324   */\n      tag_68\n        /* \"#utility.yul\":3318:3323   */\n      dup2\n        /* \"#utility.yul\":3300:3324   */\n      tag_38\n      jump\t// in\n    tag_68:\n        /* \"#utility.yul\":3295:3298   */\n      dup3\n        /* \"#utility.yul\":3288:3325   */\n      mstore\n        /* \"#utility.yul\":3213:3331   */\n      pop\n      pop\n      jump\t// out\n        /* \"#utility.yul\":3337:3559   */\n    tag_28:\n        /* \"#utility.yul\":3430:3434   */\n      0x00\n        /* \"#utility.yul\":3468:3470   */\n      0x20\n        /* \"#utility.yul\":3457:3466   */\n      dup3\n        /* \"#utility.yul\":3453:3471   */\n      add\n        /* \"#utility.yul\":3445:3471   */\n      swap1\n      pop\n        /* \"#utility.yul\":3481:3552   */\n      tag_70\n        /* \"#utility.yul\":3549:3550   */\n      0x00\n        /* \"#utility.yul\":3538:3547   */\n      dup4\n        /* \"#utility.yul\":3534:3551   */\n      add\n        /* \"#utility.yul\":3525:3531   */\n      dup5\n        /* \"#utility.yul\":3481:3552   */\n      tag_39\n      jump\t// in\n    tag_70:\n        /* \"#utility.yul\":3337:3559   */\n      swap3\n      swap2\n      pop\n      pop\n      jump\t// out\n\n    auxdata: 0xa264697066735822122067e3ca70043b368b69f51277c7d4e6996a54ecbf65592b3369baba62218b94e464736f6c63430008220033\n}\n",
				"bytecode": {
					"linkReferences": {},
					"object": "6080604052348015600e575f5ffd5b506103738061001c5f395ff3fe608060405260043610610037575f3560e01c80631a3528511461007b578063c0f9882e14610091578063d67e4b84146100bb57610077565b36610077576040517f08c379a000000000000000000000000000000000000000000000000000000000815260040161006e906101ba565b60405180910390fd5b5f5ffd5b348015610086575f5ffd5b5061008f6100d1565b005b34801561009c575f5ffd5b506100a561010c565b6040516100b291906101f0565b60405180910390f35b3480156100c6575f5ffd5b506100cf610111565b005b6040517f08c379a000000000000000000000000000000000000000000000000000000000815260040161010390610253565b60405180910390fd5b5f5481565b5f5f8154809291906101229061029e565b91905055507f5143fe5c74b6d0569f5b2107edaaf7c8e3e334dddcca7abe7b58f81bca8fdc64336040516101569190610324565b60405180910390a1565b5f82825260208201905092915050565b7f4554482072656a656374656400000000000000000000000000000000000000005f82015250565b5f6101a4600c83610160565b91506101af82610170565b602082019050919050565b5f6020820190508181035f8301526101d181610198565b9050919050565b5f819050919050565b6101ea816101d8565b82525050565b5f6020820190506102035f8301846101e1565b92915050565b7f496e74656e74696f6e616c206661696c757265000000000000000000000000005f82015250565b5f61023d601383610160565b915061024882610209565b602082019050919050565b5f6020820190508181035f83015261026a81610231565b9050919050565b7f4e487b71000000000000000000000000000000000000000000000000000000005f52601160045260245ffd5b5f6102a8826101d8565b91507fffffffffffffffffffffffffffffffffffffffffffffffffffffffffffffffff82036102da576102d9610271565b5b600182019050919050565b5f73ffffffffffffffffffffffffffffffffffffffff82169050919050565b5f61030e826102e5565b9050919050565b61031e81610304565b82525050565b5f6020820190506103375f830184610315565b9291505056fea264697066735822122067e3ca70043b368b69f51277c7d4e6996a54ecbf65592b3369baba62218b94e464736f6c63430008220033",
					"opcodes": "PUSH1 0x80 PUSH1 0x40 MSTORE CALLVALUE DUP1 ISZERO PUSH1 0xE JUMPI PUSH0 PUSH0 REVERT JUMPDEST POP PUSH2 0x373 DUP1 PUSH2 0x1C PUSH0 CODECOPY PUSH0 RETURN INVALID PUSH1 0x80 PUSH1 0x40 MSTORE PUSH1 0x4 CALLDATASIZE LT PUSH2 0x37 JUMPI PUSH0 CALLDATALOAD PUSH1 0xE0 SHR DUP1 PUSH4 0x1A352851 EQ PUSH2 0x7B JUMPI DUP1 PUSH4 0xC0F9882E EQ PUSH2 0x91 JUMPI DUP1 PUSH4 0xD67E4B84 EQ PUSH2 0xBB JUMPI PUSH2 0x77 JUMP JUMPDEST CALLDATASIZE PUSH2 0x77 JUMPI PUSH1 0x40 MLOAD PUSH32 0x8C379A000000000000000000000000000000000000000000000000000000000 DUP2 MSTORE PUSH1 0x4 ADD PUSH2 0x6E SWAP1 PUSH2 0x1BA JUMP JUMPDEST PUSH1 0x40 MLOAD DUP1 SWAP2 SUB SWAP1 REVERT JUMPDEST PUSH0 PUSH0 REVERT JUMPDEST CALLVALUE DUP1 ISZERO PUSH2 0x86 JUMPI PUSH0 PUSH0 REVERT JUMPDEST POP PUSH2 0x8F PUSH2 0xD1 JUMP JUMPDEST STOP JUMPDEST CALLVALUE DUP1 ISZERO PUSH2 0x9C JUMPI PUSH0 PUSH0 REVERT JUMPDEST POP PUSH2 0xA5 PUSH2 0x10C JUMP JUMPDEST PUSH1 0x40 MLOAD PUSH2 0xB2 SWAP2 SWAP1 PUSH2 0x1F0 JUMP JUMPDEST PUSH1 0x40 MLOAD DUP1 SWAP2 SUB SWAP1 RETURN JUMPDEST CALLVALUE DUP1 ISZERO PUSH2 0xC6 JUMPI PUSH0 PUSH0 REVERT JUMPDEST POP PUSH2 0xCF PUSH2 0x111 JUMP JUMPDEST STOP JUMPDEST PUSH1 0x40 MLOAD PUSH32 0x8C379A000000000000000000000000000000000000000000000000000000000 DUP2 MSTORE PUSH1 0x4 ADD PUSH2 0x103 SWAP1 PUSH2 0x253 JUMP JUMPDEST PUSH1 0x40 MLOAD DUP1 SWAP2 SUB SWAP1 REVERT JUMPDEST PUSH0 SLOAD DUP2 JUMP JUMPDEST PUSH0 PUSH0 DUP2 SLOAD DUP1 SWAP3 SWAP2 SWAP1 PUSH2 0x122 SWAP1 PUSH2 0x29E JUMP JUMPDEST SWAP2 SWAP1 POP SSTORE POP PUSH32 0x5143FE5C74B6D0569F5B2107EDAAF7C8E3E334DDDCCA7ABE7B58F81BCA8FDC64 CALLER PUSH1 0x40 MLOAD PUSH2 0x156 SWAP2 SWAP1 PUSH2 0x324 JUMP JUMPDEST PUSH1 0x40 MLOAD DUP1 SWAP2 SUB SWAP1 LOG1 JUMP JUMPDEST PUSH0 DUP3 DUP3 MSTORE PUSH1 0x20 DUP3 ADD SWAP1 POP SWAP3 SWAP2 POP POP JUMP JUMPDEST PUSH32 0x4554482072656A65637465640000000000000000000000000000000000000000 PUSH0 DUP3 ADD MSTORE POP JUMP JUMPDEST PUSH0 PUSH2 0x1A4 PUSH1 0xC DUP4 PUSH2 0x160 JUMP JUMPDEST SWAP2 POP PUSH2 0x1AF DUP3 PUSH2 0x170 JUMP JUMPDEST PUSH1 0x20 DUP3 ADD SWAP1 POP SWAP2 SWAP1 POP JUMP JUMPDEST PUSH0 PUSH1 0x20 DUP3 ADD SWAP1 POP DUP2 DUP2 SUB PUSH0 DUP4 ADD MSTORE PUSH2 0x1D1 DUP2 PUSH2 0x198 JUMP JUMPDEST SWAP1 POP SWAP2 SWAP1 POP JUMP JUMPDEST PUSH0 DUP2 SWAP1 POP SWAP2 SWAP1 POP JUMP JUMPDEST PUSH2 0x1EA DUP2 PUSH2 0x1D8 JUMP JUMPDEST DUP3 MSTORE POP POP JUMP JUMPDEST PUSH0 PUSH1 0x20 DUP3 ADD SWAP1 POP PUSH2 0x203 PUSH0 DUP4 ADD DUP5 PUSH2 0x1E1 JUMP JUMPDEST SWAP3 SWAP2 POP POP JUMP JUMPDEST PUSH32 0x496E74656E74696F6E616C206661696C75726500000000000000000000000000 PUSH0 DUP3 ADD MSTORE POP JUMP JUMPDEST PUSH0 PUSH2 0x23D PUSH1 0x13 DUP4 PUSH2 0x160 JUMP JUMPDEST SWAP2 POP PUSH2 0x248 DUP3 PUSH2 0x209 JUMP JUMPDEST PUSH1 0x20 DUP3 ADD SWAP1 POP SWAP2 SWAP1 POP JUMP JUMPDEST PUSH0 PUSH1 0x20 DUP3 ADD SWAP1 POP DUP2 DUP2 SUB PUSH0 DUP4 ADD MSTORE PUSH2 0x26A DUP2 PUSH2 0x231 JUMP JUMPDEST SWAP1 POP SWAP2 SWAP1 POP JUMP JUMPDEST PUSH32 0x4E487B7100000000000000000000000000000000000000000000000000000000 PUSH0 MSTORE PUSH1 0x11 PUSH1 0x4 MSTORE PUSH1 0x24 PUSH0 REVERT JUMPDEST PUSH0 PUSH2 0x2A8 DUP3 PUSH2 0x1D8 JUMP JUMPDEST SWAP2 POP PUSH32 0xFFFFFFFFFFFFFFFFFFFFFFFFFFFFFFFFFFFFFFFFFFFFFFFFFFFFFFFFFFFFFFFF DUP3 SUB PUSH2 0x2DA JUMPI PUSH2 0x2D9 PUSH2 0x271 JUMP JUMPDEST JUMPDEST PUSH1 0x1 DUP3 ADD SWAP1 POP SWAP2 SWAP1 POP JUMP JUMPDEST PUSH0 PUSH20 0xFFFFFFFFFFFFFFFFFFFFFFFFFFFFFFFFFFFFFFFF DUP3 AND SWAP1 POP SWAP2 SWAP1 POP JUMP JUMPDEST PUSH0 PUSH2 0x30E DUP3 PUSH2 0x2E5 JUMP JUMPDEST SWAP1 POP SWAP2 SWAP1 POP JUMP JUMPDEST PUSH2 0x31E DUP2 PUSH2 0x304 JUMP JUMPDEST DUP3 MSTORE POP POP JUMP JUMPDEST PUSH0 PUSH1 0x20 DUP3 ADD SWAP1 POP PUSH2 0x337 PUSH0 DUP4 ADD DUP5 PUSH2 0x315 JUMP JUMPDEST SWAP3 SWAP2 POP POP JUMP INVALID LOG2 PUSH5 0x6970667358 0x22 SLT KECCAK256 PUSH8 0xE3CA70043B368B69 CREATE2 SLT PUSH24 0xC7D4E6996A54ECBF65592B3369BABA62218B94E464736F6C PUSH4 0x43000822 STOP CALLER "
				},
				"gasEstimates": {
					"creation": {
						"codeDepositCost": "176600",
						"executionCost": "218",
						"totalCost": "176818"
					},
					"external": {
						"alwaysFail()": "406",
						"callCounter()": "2424",
						"normalFunction()": "25753"
					}
				},
				"methodIdentifiers": {
					"alwaysFail()": "1a352851",
					"callCounter()": "c0f9882e",
					"normalFunction()": "d67e4b84"
				}
			},
			"storageLayout": {
				"storage": [
					{
						"astId": 142,
						"contract": "val59.sol:Rejector",
						"label": "callCounter",
						"offset": 0,
						"slot": "0",
						"type": "t_uint256"
					}
				],
				"types": {
					"t_uint256": {
						"encoding": "inplace",
						"label": "uint256",
						"numberOfBytes": "32"
					}
				}
			},
			"userdoc": {
				"kind": "user",
				"methods": {},
				"version": 1
			}
		}
	}
}