{
	"val71.sol": {
		"OutOfGasDemo": {
			"abi": [
				{
					"anonymous": false,
					"inputs": [
						{
							"indexed": false,
							"internalType": "uint256",
							"name": "start",
							"type": "uint256"
						},
						{
							"indexed": false,
							"internalType": "uint256",
							"name": "end",
							"type": "uint256"
						},
						{
							"indexed": false,
							"internalType": "uint256",
							"name": "gasUsed",
							"type": "uint256"
						}
					],
					"name": "SafeChunkProcessed",
					"type": "event"
				},
				{
					"anonymous": false,
					"inputs": [
						{
							"indexed": false,
							"internalType": "uint256",
							"name": "gasUsed",
							"type": "uint256"
						},
						{
							"indexed": false,
							"internalType": "uint256",
							"name": "length",
							"type": "uint256"
						}
					],
					"name": "UnsafeLoopExecutes",
					"type": "event"
				},
				{
					"inputs": [
						{
							"internalType": "uint256",
							"name": "n",
							"type": "uint256"
						}
					],
					"name": "addMany",
					"outputs": [],
					"stateMutability": "nonpayable",
					"type": "function"
				},
				{
					"inputs": [],
					"name": "compareLoops",
					"outputs": [
						{
							"internalType": "string",
							"name": "unsafeLoop",
							"type": "string"
						},
						{
							"internalType": "string",
							"name": "safeLoop",
							"type": "string"
						}
					],
					"stateMutability": "view",
					"type": "function"
				},
				{
					"inputs": [],
					"name": "dangerousLoop",
					"outputs": [],
					"stateMutability": "nonpayable",
					"type": "function"
				},
				{
					"inputs": [
						{
							"internalType": "uint256",
							"name": "",
							"type": "uint256"
						}
					],
					"name": "data",
					"outputs": [
						{
							"internalType": "uint256",
							"name": "",
							"type": "uint256"
						}
					],
					"stateMutability": "view",
					"type": "function"
				},
				{
					"inputs": [
						{
							"internalType": "uint256",
							"name": "iterations",
							"type": "uint256"
						}
					],
					"name": "estimateGasCost",
					"outputs": [
						{
							"internalType": "string",
							"name": "",
							"type": "string"
						}
					],
					"stateMutability": "pure",
					"type": "function"
				},
				{
					"inputs": [],
					"name": "getLength",
					"outputs": [
						{
							"internalType": "uint256",
							"name": "",
							"type": "uint256"
						}
					],
					"stateMutability": "view",
					"type": "function"
				},
				{
					"inputs": [],
					"name": "lastGasUsed",
					"outputs": [
						{
							"internalType": "uint256",
							"name": "",
							"type": "uint256"
						}
					],
					"stateMutability": "view",
					"type": "function"
				},
				{
					"inputs": [],
					"name": "lastSum",
					"outputs": [
						{
							"internalType": "uint256",
							"name": "",
							"type": "uint256"
						}
					],
					"stateMutability": "view",
					"type": "function"
				},
				{
					"inputs": [
						{
							"internalType": "uint256",
							"name": "start",
							"type": "uint256"
						},
						{
							"internalType": "uint256",
							"name": "batchSize",
							"type": "uint256"
						}
					],
					"name": "safeChunkProcess",
					"outputs": [],
					"stateMutability": "nonpayable",
					"type": "function"
				},
				{
					"inputs": [
						{
							"internalType": "uint256",
							"name": "start",
							"type": "uint256"
						},
						{
							"internalType": "uint256",
							"name": "batchSize",
							"type": "uint256"
						}
					],
					"name": "safeReadOnlyProcess",
					"outputs": [
						{
							"internalType": "uint256",
							"name": "sum",
							"type": "uint256"
						}
					],
					"stateMutability": "view",
					"type": "function"
				}
			],
			"devdoc": {
				"kind": "dev",
				"methods": {},
				"version": 1
			},
			"evm": {
				"assembly": "    /* \"val71.sol\":11822:16271  contract OutOfGasDemo {... */\n  mstore(0x40, 0x80)\n  callvalue\n  dup1\n  iszero\n  tag_1\n  jumpi\n  revert(0x00, 0x00)\ntag_1:\n  pop\n  dataSize(sub_0)\n  dup1\n  dataOffset(sub_0)\n  0x00\n  codecopy\n  0x00\n  return\nstop\n\nsub_0: assembly {\n        /* \"val71.sol\":11822:16271  contract OutOfGasDemo {... */\n      mstore(0x40, 0x80)\n      callvalue\n      dup1\n      iszero\n      tag_1\n      jumpi\n      revert(0x00, 0x00)\n    tag_1:\n      pop\n      jumpi(tag_2, lt(calldatasize, 0x04))\n      shr(0xe0, calldataload(0x00))\n      dup1\n      0xbd4725a6\n      gt\n      tag_13\n      jumpi\n      dup1\n      0xbd4725a6\n      eq\n      tag_8\n      jumpi\n      dup1\n      0xbe1c766b\n      eq\n      tag_9\n      jumpi\n      dup1\n      0xc458a801\n      eq\n      tag_10\n      jumpi\n      dup1\n      0xd4d5e8d5\n      eq\n      tag_11\n      jumpi\n      dup1\n      0xf0ba8440\n      eq\n      tag_12\n      jumpi\n      jump(tag_2)\n    tag_13:\n      dup1\n      0x0d02cd\n      eq\n      tag_3\n      jumpi\n      dup1\n      0x614b9109\n      eq\n      tag_4\n      jumpi\n      dup1\n      0x62a5f171\n      eq\n      tag_5\n      jumpi\n      dup1\n      0x86738b3a\n      eq\n      tag_6\n      jumpi\n      dup1\n      0x95c570bd\n      eq\n      tag_7\n      jumpi\n    tag_2:\n      revert(0x00, 0x00)\n        /* \"val71.sol\":11945:11967  uint256 public lastSum */\n    tag_3:\n      tag_14\n      tag_15\n      jump\t// in\n    tag_14:\n      mload(0x40)\n      tag_16\n      swap2\n      swap1\n      tag_17\n      jump\t// in\n    tag_16:\n      mload(0x40)\n      dup1\n      swap2\n      sub\n      swap1\n      return\n        /* \"val71.sol\":14635:15164  function safeReadOnlyProcess(uint256 start, uint256 batchSize) view ... */\n    tag_4:\n      tag_18\n      0x04\n      dup1\n      calldatasize\n      sub\n      dup2\n      add\n      swap1\n      tag_19\n      swap2\n      swap1\n      tag_20\n      jump\t// in\n    tag_19:\n      tag_21\n      jump\t// in\n    tag_18:\n      mload(0x40)\n      tag_22\n      swap2\n      swap1\n      tag_17\n      jump\t// in\n    tag_22:\n      mload(0x40)\n      dup1\n      swap2\n      sub\n      swap1\n      return\n        /* \"val71.sol\":12367:13264  function dangerousLoop()... */\n    tag_5:\n      tag_23\n      tag_24\n      jump\t// in\n    tag_23:\n      stop\n        /* \"val71.sol\":15757:15984  function compareLoops() external view returns (string memory unsafeLoop, string memory safeLoop)... */\n    tag_6:\n      tag_25\n      tag_26\n      jump\t// in\n    tag_25:\n      mload(0x40)\n      tag_27\n      swap3\n      swap2\n      swap1\n      tag_28\n      jump\t// in\n    tag_27:\n      mload(0x40)\n      dup1\n      swap2\n      sub\n      swap1\n      return\n        /* \"val71.sol\":12004:12030  uint256 public lastGasUsed */\n    tag_7:\n      tag_29\n      tag_30\n      jump\t// in\n    tag_29:\n      mload(0x40)\n      tag_31\n      swap2\n      swap1\n      tag_17\n      jump\t// in\n    tag_31:\n      mload(0x40)\n      dup1\n      swap2\n      sub\n      swap1\n      return\n        /* \"val71.sol\":15196:15712  function estimateGasCost(uint256 iterations) external pure returns (string memory)... */\n    tag_8:\n      tag_32\n      0x04\n      dup1\n      calldatasize\n      sub\n      dup2\n      add\n      swap1\n      tag_33\n      swap2\n      swap1\n      tag_34\n      jump\t// in\n    tag_33:\n      tag_35\n      jump\t// in\n    tag_32:\n      mload(0x40)\n      tag_36\n      swap2\n      swap1\n      tag_37\n      jump\t// in\n    tag_36:\n      mload(0x40)\n      dup1\n      swap2\n      sub\n      swap1\n      return\n        /* \"val71.sol\":16144:16268  function getLength()... */\n    tag_9:\n      tag_38\n      tag_39\n      jump\t// in\n    tag_38:\n      mload(0x40)\n      tag_40\n      swap2\n      swap1\n      tag_17\n      jump\t// in\n    tag_40:\n      mload(0x40)\n      dup1\n      swap2\n      sub\n      swap1\n      return\n        /* \"val71.sol\":13304:14062  function safeChunkProcess(uint256 start, uint256 batchSize) external ... */\n    tag_10:\n      tag_41\n      0x04\n      dup1\n      calldatasize\n      sub\n      dup2\n      add\n      swap1\n      tag_42\n      swap2\n      swap1\n      tag_20\n      jump\t// in\n    tag_42:\n      tag_43\n      jump\t// in\n    tag_41:\n      stop\n        /* \"val71.sol\":14227:14471  function addMany(uint256 n)... */\n    tag_11:\n      tag_44\n      0x04\n      dup1\n      calldatasize\n      sub\n      dup2\n      add\n      swap1\n      tag_45\n      swap2\n      swap1\n      tag_34\n      jump\t// in\n    tag_45:\n      tag_46\n      jump\t// in\n    tag_44:\n      stop\n        /* \"val71.sol\":11892:11913  uint256[] public data */\n    tag_12:\n      tag_47\n      0x04\n      dup1\n      calldatasize\n      sub\n      dup2\n      add\n      swap1\n      tag_48\n      swap2\n      swap1\n      tag_34\n      jump\t// in\n    tag_48:\n      tag_49\n      jump\t// in\n    tag_47:\n      mload(0x40)\n      tag_50\n      swap2\n      swap1\n      tag_17\n      jump\t// in\n    tag_50:\n      mload(0x40)\n      dup1\n      swap2\n      sub\n      swap1\n      return\n        /* \"val71.sol\":11945:11967  uint256 public lastSum */\n    tag_15:\n      sload(0x01)\n      dup2\n      jump\t// out\n        /* \"val71.sol\":14635:15164  function safeReadOnlyProcess(uint256 start, uint256 batchSize) view ... */\n    tag_21:\n        /* \"val71.sol\":14740:14751  uint256 sum */\n      0x00\n        /* \"val71.sol\":14859:14862  100 */\n      0x64\n        /* \"val71.sol\":14846:14855  batchSize */\n      dup3\n        /* \"val71.sol\":14846:14862  batchSize <= 100 */\n      gt\n      iszero\n        /* \"val71.sol\":14838:14882  require(batchSize <= 100, \"Batch too large\") */\n      tag_52\n      jumpi\n      mload(0x40)\n      0x08c379a000000000000000000000000000000000000000000000000000000000\n      dup2\n      mstore\n      0x04\n      add\n      tag_53\n      swap1\n      tag_54\n      jump\t// in\n    tag_53:\n      mload(0x40)\n      dup1\n      swap2\n      sub\n      swap1\n      revert\n    tag_52:\n        /* \"val71.sol\":14895:14906  uint256 end */\n      0x00\n        /* \"val71.sol\":14917:14926  batchSize */\n      dup3\n        /* \"val71.sol\":14909:14914  start */\n      dup5\n        /* \"val71.sol\":14909:14926  start + batchSize */\n      tag_55\n      swap2\n      swap1\n      tag_56\n      jump\t// in\n    tag_55:\n        /* \"val71.sol\":14895:14926  uint256 end = start + batchSize */\n      swap1\n      pop\n        /* \"val71.sol\":14948:14952  data */\n      0x00\n        /* \"val71.sol\":14948:14959  data.length */\n      dup1\n      sload\n      swap1\n      pop\n        /* \"val71.sol\":14942:14945  end */\n      dup2\n        /* \"val71.sol\":14942:14959  end > data.length */\n      gt\n        /* \"val71.sol\":14939:15014  if(end > data.length)... */\n      iszero\n      tag_57\n      jumpi\n        /* \"val71.sol\":14991:14995  data */\n      0x00\n        /* \"val71.sol\":14991:15002  data.length */\n      dup1\n      sload\n      swap1\n      pop\n        /* \"val71.sol\":14985:15002  end = data.length */\n      swap1\n      pop\n        /* \"val71.sol\":14939:15014  if(end > data.length)... */\n    tag_57:\n        /* \"val71.sol\":15045:15054  uint256 i */\n      0x00\n        /* \"val71.sol\":15057:15062  start */\n      dup5\n        /* \"val71.sol\":15045:15062  uint256 i = start */\n      swap1\n      pop\n        /* \"val71.sol\":15026:15157  for (... */\n    tag_58:\n        /* \"val71.sol\":15081:15084  end */\n      dup2\n        /* \"val71.sol\":15077:15078  i */\n      dup2\n        /* \"val71.sol\":15077:15084  i < end */\n      lt\n        /* \"val71.sol\":15026:15157  for (... */\n      iszero\n      tag_59\n      jumpi\n        /* \"val71.sol\":15138:15142  data */\n      0x00\n        /* \"val71.sol\":15143:15144  i */\n      dup2\n        /* \"val71.sol\":15138:15145  data[i] */\n      dup2\n      sload\n      dup2\n      lt\n      tag_61\n      jumpi\n      tag_62\n      tag_63\n      jump\t// in\n    tag_62:\n    tag_61:\n      swap1\n      0x00\n      mstore\n      keccak256(0x00, 0x20)\n      add\n      sload\n        /* \"val71.sol\":15131:15145  sum += data[i] */\n      dup4\n      tag_65\n      swap2\n      swap1\n      tag_56\n      jump\t// in\n    tag_65:\n      swap3\n      pop\n        /* \"val71.sol\":15099:15102  i++ */\n      dup1\n      dup1\n      0x01\n      add\n      swap2\n      pop\n      pop\n        /* \"val71.sol\":15026:15157  for (... */\n      jump(tag_58)\n    tag_59:\n      pop\n        /* \"val71.sol\":14758:15164  {... */\n      pop\n        /* \"val71.sol\":14635:15164  function safeReadOnlyProcess(uint256 start, uint256 batchSize) view ... */\n      swap3\n      swap2\n      pop\n      pop\n      jump\t// out\n        /* \"val71.sol\":12367:13264  function dangerousLoop()... */\n    tag_24:\n        /* \"val71.sol\":12722:12738  uint256 startGas */\n      0x00\n        /* \"val71.sol\":12741:12750  gasleft() */\n      gas\n        /* \"val71.sol\":12722:12750  uint256 startGas = gasleft() */\n      swap1\n      pop\n        /* \"val71.sol\":12764:12775  uint256 sum */\n      0x00\n        /* \"val71.sol\":12778:12779  0 */\n      0x00\n        /* \"val71.sol\":12764:12779  uint256 sum = 0 */\n      swap1\n      pop\n        /* \"val71.sol\":12811:12820  uint256 i */\n      0x00\n        /* \"val71.sol\":12823:12824  0 */\n      0x00\n        /* \"val71.sol\":12811:12824  uint256 i = 0 */\n      swap1\n      pop\n        /* \"val71.sol\":12792:13124  for (... */\n    tag_67:\n        /* \"val71.sol\":12843:12847  data */\n      0x00\n        /* \"val71.sol\":12843:12854  data.length */\n      dup1\n      sload\n      swap1\n      pop\n        /* \"val71.sol\":12839:12840  i */\n      dup2\n        /* \"val71.sol\":12839:12854  i < data.length */\n      lt\n        /* \"val71.sol\":12792:13124  for (... */\n      iszero\n      tag_68\n      jumpi\n        /* \"val71.sol\":12983:12987  data */\n      0x00\n        /* \"val71.sol\":12988:12989  i */\n      dup2\n        /* \"val71.sol\":12983:12990  data[i] */\n      dup2\n      sload\n      dup2\n      lt\n      tag_70\n      jumpi\n      tag_71\n      tag_63\n      jump\t// in\n    tag_71:\n    tag_70:\n      swap1\n      0x00\n      mstore\n      keccak256(0x00, 0x20)\n      add\n      sload\n        /* \"val71.sol\":12976:12990  sum += data[i] */\n      dup3\n      tag_73\n      swap2\n      swap1\n      tag_56\n      jump\t// in\n    tag_73:\n      swap2\n      pop\n        /* \"val71.sol\":13109:13112  sum */\n      dup2\n        /* \"val71.sol\":13099:13103  data */\n      0x00\n        /* \"val71.sol\":13104:13105  i */\n      dup3\n        /* \"val71.sol\":13099:13106  data[i] */\n      dup2\n      sload\n      dup2\n      lt\n      tag_74\n      jumpi\n      tag_75\n      tag_63\n      jump\t// in\n    tag_75:\n    tag_74:\n      swap1\n      0x00\n      mstore\n      keccak256(0x00, 0x20)\n      add\n        /* \"val71.sol\":13099:13112  data[i] = sum */\n      dup2\n      swap1\n      sstore\n      pop\n        /* \"val71.sol\":12869:12872  i++ */\n      dup1\n      dup1\n      0x01\n      add\n      swap2\n      pop\n      pop\n        /* \"val71.sol\":12792:13124  for (... */\n      jump(tag_67)\n    tag_68:\n      pop\n        /* \"val71.sol\":13144:13147  sum */\n      dup1\n        /* \"val71.sol\":13134:13141  lastSum */\n      0x01\n        /* \"val71.sol\":13134:13147  lastSum = sum */\n      dup2\n      swap1\n      sstore\n      pop\n        /* \"val71.sol\":13185:13194  gasleft() */\n      gas\n        /* \"val71.sol\":13174:13182  startGas */\n      dup3\n        /* \"val71.sol\":13174:13194  startGas - gasleft() */\n      tag_77\n      swap2\n      swap1\n      tag_78\n      jump\t// in\n    tag_77:\n        /* \"val71.sol\":13160:13171  lastGasUsed */\n      0x02\n        /* \"val71.sol\":13160:13194  lastGasUsed = startGas - gasleft() */\n      dup2\n      swap1\n      sstore\n      pop\n        /* \"val71.sol\":13212:13256  UnsafeLoopExecutes(lastGasUsed, data.length) */\n      0x941393981297ed81e4a9780200ed4bee006292b05bc84877f285540cf574d96c\n        /* \"val71.sol\":13231:13242  lastGasUsed */\n      sload(0x02)\n        /* \"val71.sol\":13244:13248  data */\n      0x00\n        /* \"val71.sol\":13244:13255  data.length */\n      dup1\n      sload\n      swap1\n      pop\n        /* \"val71.sol\":13212:13256  UnsafeLoopExecutes(lastGasUsed, data.length) */\n      mload(0x40)\n      tag_79\n      swap3\n      swap2\n      swap1\n      tag_80\n      jump\t// in\n    tag_79:\n      mload(0x40)\n      dup1\n      swap2\n      sub\n      swap1\n      log1\n        /* \"val71.sol\":12415:13264  {... */\n      pop\n      pop\n        /* \"val71.sol\":12367:13264  function dangerousLoop()... */\n      jump\t// out\n        /* \"val71.sol\":15757:15984  function compareLoops() external view returns (string memory unsafeLoop, string memory safeLoop)... */\n    tag_26:\n        /* \"val71.sol\":15804:15828  string memory unsafeLoop */\n      0x60\n        /* \"val71.sol\":15830:15852  string memory safeLoop */\n      dup1\n        /* \"val71.sol\":15870:15920  unsafeLoop = \"loops entir array and may cause OOG\" */\n      mload(0x40)\n      dup1\n      0x60\n      add\n      0x40\n      mstore\n      dup1\n      0x23\n      dup2\n      mstore\n      0x20\n      add\n      data_3d09c28a06ca0ea5e7d5b4ef8e543a755199a44d8163db010bea1f38c7c0a5c4\n      0x23\n      swap2\n      codecopy\n      swap2\n      pop\n        /* \"val71.sol\":15933:15976  unsafeLoop = \"Uses chunking to prevent OOG\" */\n      mload(0x40)\n      dup1\n      0x40\n      add\n      0x40\n      mstore\n      dup1\n      0x1c\n      dup2\n      mstore\n      0x20\n      add\n      0x55736573206368756e6b696e6720746f2070726576656e74204f4f4700000000\n      dup2\n      mstore\n      pop\n      swap2\n      pop\n        /* \"val71.sol\":15757:15984  function compareLoops() external view returns (string memory unsafeLoop, string memory safeLoop)... */\n      swap1\n      swap2\n      jump\t// out\n        /* \"val71.sol\":12004:12030  uint256 public lastGasUsed */\n    tag_30:\n      sload(0x02)\n      dup2\n      jump\t// out\n        /* \"val71.sol\":15196:15712  function estimateGasCost(uint256 iterations) external pure returns (string memory)... */\n    tag_35:\n        /* \"val71.sol\":15264:15277  string memory */\n      0x60\n        /* \"val71.sol\":15312:15315  100 */\n      0x64\n        /* \"val71.sol\":15298:15308  iterations */\n      dup3\n        /* \"val71.sol\":15298:15315  iterations <= 100 */\n      gt\n        /* \"val71.sol\":15295:15705  if(iterations <= 100)... */\n      tag_83\n      jumpi\n        /* \"val71.sol\":15359:15362  100 */\n      0x64\n        /* \"val71.sol\":15345:15355  iterations */\n      dup3\n        /* \"val71.sol\":15345:15362  iterations <= 100 */\n      gt\n        /* \"val71.sol\":15341:15434  if (iterations <= 100)... */\n      tag_84\n      jumpi\n        /* \"val71.sol\":15396:15418  return \"low gas usage\" */\n      mload(0x40)\n      dup1\n      0x40\n      add\n      0x40\n      mstore\n      dup1\n      0x0d\n      dup2\n      mstore\n      0x20\n      add\n      0x6c6f772067617320757361676500000000000000000000000000000000000000\n      dup2\n      mstore\n      pop\n      swap1\n      pop\n      jump(tag_82)\n        /* \"val71.sol\":15341:15434  if (iterations <= 100)... */\n    tag_84:\n        /* \"val71.sol\":15466:15470  1000 */\n      0x03e8\n        /* \"val71.sol\":15452:15462  iterations */\n      dup3\n        /* \"val71.sol\":15452:15470  iterations <= 1000 */\n      gt\n        /* \"val71.sol\":15448:15545  if (iterations <= 1000)... */\n      tag_85\n      jumpi\n        /* \"val71.sol\":15504:15529  return \"Medium gas usage\" */\n      mload(0x40)\n      dup1\n      0x40\n      add\n      0x40\n      mstore\n      dup1\n      0x10\n      dup2\n      mstore\n      0x20\n      add\n      0x4d656469756d2067617320757361676500000000000000000000000000000000\n      dup2\n      mstore\n      pop\n      swap1\n      pop\n      jump(tag_82)\n        /* \"val71.sol\":15448:15545  if (iterations <= 1000)... */\n    tag_85:\n        /* \"val71.sol\":15577:15581  5000 */\n      0x1388\n        /* \"val71.sol\":15563:15573  iterations */\n      dup3\n        /* \"val71.sol\":15563:15581  iterations <= 5000 */\n      gt\n        /* \"val71.sol\":15559:15654  if (iterations <= 5000)... */\n      tag_86\n      jumpi\n        /* \"val71.sol\":15615:15638  return \"High gas usage\" */\n      mload(0x40)\n      dup1\n      0x40\n      add\n      0x40\n      mstore\n      dup1\n      0x0e\n      dup2\n      mstore\n      0x20\n      add\n      0x4869676820676173207573616765000000000000000000000000000000000000\n      dup2\n      mstore\n      pop\n      swap1\n      pop\n      jump(tag_82)\n        /* \"val71.sol\":15559:15654  if (iterations <= 5000)... */\n    tag_86:\n        /* \"val71.sol\":15668:15693  return \"Extreme gas risk\" */\n      mload(0x40)\n      dup1\n      0x40\n      add\n      0x40\n      mstore\n      dup1\n      0x10\n      dup2\n      mstore\n      0x20\n      add\n      0x45787472656d6520676173207269736b00000000000000000000000000000000\n      dup2\n      mstore\n      pop\n      swap1\n      pop\n      jump(tag_82)\n        /* \"val71.sol\":15295:15705  if(iterations <= 100)... */\n    tag_83:\n        /* \"val71.sol\":15196:15712  function estimateGasCost(uint256 iterations) external pure returns (string memory)... */\n    tag_82:\n      swap2\n      swap1\n      pop\n      jump\t// out\n        /* \"val71.sol\":16144:16268  function getLength()... */\n    tag_39:\n        /* \"val71.sol\":16215:16222  uint256 */\n      0x00\n        /* \"val71.sol\":16249:16253  data */\n      0x00\n        /* \"val71.sol\":16249:16260  data.length */\n      dup1\n      sload\n      swap1\n      pop\n        /* \"val71.sol\":16242:16260  return data.length */\n      swap1\n      pop\n        /* \"val71.sol\":16144:16268  function getLength()... */\n      swap1\n      jump\t// out\n        /* \"val71.sol\":13304:14062  function safeChunkProcess(uint256 start, uint256 batchSize) external ... */\n    tag_43:\n        /* \"val71.sol\":13411:13414  100 */\n      0x64\n        /* \"val71.sol\":13398:13407  batchSize */\n      dup2\n        /* \"val71.sol\":13398:13414  batchSize <= 100 */\n      gt\n      iszero\n        /* \"val71.sol\":13390:13434  require(batchSize <= 100, \"Batch too large\") */\n      tag_89\n      jumpi\n      mload(0x40)\n      0x08c379a000000000000000000000000000000000000000000000000000000000\n      dup2\n      mstore\n      0x04\n      add\n      tag_90\n      swap1\n      tag_54\n      jump\t// in\n    tag_90:\n      mload(0x40)\n      dup1\n      swap2\n      sub\n      swap1\n      revert\n    tag_89:\n        /* \"val71.sol\":13463:13467  data */\n      0x00\n        /* \"val71.sol\":13463:13474  data.length */\n      dup1\n      sload\n      swap1\n      pop\n        /* \"val71.sol\":13455:13460  start */\n      dup3\n        /* \"val71.sol\":13455:13474  start < data.length */\n      lt\n        /* \"val71.sol\":13447:13492  require(start < data.length, \"Invalid start\") */\n      tag_91\n      jumpi\n      mload(0x40)\n      0x08c379a000000000000000000000000000000000000000000000000000000000\n      dup2\n      mstore\n      0x04\n      add\n      tag_92\n      swap1\n      tag_93\n      jump\t// in\n    tag_92:\n      mload(0x40)\n      dup1\n      swap2\n      sub\n      swap1\n      revert\n    tag_91:\n        /* \"val71.sol\":13505:13521  uint256 startGas */\n      0x00\n        /* \"val71.sol\":13524:13533  gasleft() */\n      gas\n        /* \"val71.sol\":13505:13533  uint256 startGas = gasleft() */\n      swap1\n      pop\n        /* \"val71.sol\":13546:13557  uint256 end */\n      0x00\n        /* \"val71.sol\":13568:13577  batchSize */\n      dup3\n        /* \"val71.sol\":13560:13565  start */\n      dup5\n        /* \"val71.sol\":13560:13577  start + batchSize */\n      tag_94\n      swap2\n      swap1\n      tag_56\n      jump\t// in\n    tag_94:\n        /* \"val71.sol\":13546:13577  uint256 end = start + batchSize */\n      swap1\n      pop\n        /* \"val71.sol\":13629:13633  data */\n      0x00\n        /* \"val71.sol\":13629:13640  data.length */\n      dup1\n      sload\n      swap1\n      pop\n        /* \"val71.sol\":13622:13625  end */\n      dup2\n        /* \"val71.sol\":13622:13640  end >  data.length */\n      gt\n        /* \"val71.sol\":13619:13695  if(end >  data.length)... */\n      iszero\n      tag_95\n      jumpi\n        /* \"val71.sol\":13672:13676  data */\n      0x00\n        /* \"val71.sol\":13672:13683  data.length */\n      dup1\n      sload\n      swap1\n      pop\n        /* \"val71.sol\":13666:13683  end = data.length */\n      swap1\n      pop\n        /* \"val71.sol\":13619:13695  if(end >  data.length)... */\n    tag_95:\n        /* \"val71.sol\":13707:13718  uint256 sum */\n      0x00\n        /* \"val71.sol\":13721:13728  lastSum */\n      sload(0x01)\n        /* \"val71.sol\":13707:13728  uint256 sum = lastSum */\n      swap1\n      pop\n        /* \"val71.sol\":13775:13784  uint256 i */\n      0x00\n        /* \"val71.sol\":13787:13792  start */\n      dup6\n        /* \"val71.sol\":13775:13792  uint256 i = start */\n      swap1\n      pop\n        /* \"val71.sol\":13771:13921  for(uint256 i = start; i < end; i++)... */\n    tag_96:\n        /* \"val71.sol\":13798:13801  end */\n      dup3\n        /* \"val71.sol\":13794:13795  i */\n      dup2\n        /* \"val71.sol\":13794:13801  i < end */\n      lt\n        /* \"val71.sol\":13771:13921  for(uint256 i = start; i < end; i++)... */\n      iszero\n      tag_97\n      jumpi\n        /* \"val71.sol\":13839:13843  data */\n      0x00\n        /* \"val71.sol\":13844:13845  i */\n      dup2\n        /* \"val71.sol\":13839:13846  data[i] */\n      dup2\n      sload\n      dup2\n      lt\n      tag_99\n      jumpi\n      tag_100\n      tag_63\n      jump\t// in\n    tag_100:\n    tag_99:\n      swap1\n      0x00\n      mstore\n      keccak256(0x00, 0x20)\n      add\n      sload\n        /* \"val71.sol\":13832:13846  sum += data[i] */\n      dup3\n      tag_102\n      swap2\n      swap1\n      tag_56\n      jump\t// in\n    tag_102:\n      swap2\n      pop\n        /* \"val71.sol\":13906:13909  sum */\n      dup2\n        /* \"val71.sol\":13896:13900  data */\n      0x00\n        /* \"val71.sol\":13901:13902  i */\n      dup3\n        /* \"val71.sol\":13896:13903  data[i] */\n      dup2\n      sload\n      dup2\n      lt\n      tag_103\n      jumpi\n      tag_104\n      tag_63\n      jump\t// in\n    tag_104:\n    tag_103:\n      swap1\n      0x00\n      mstore\n      keccak256(0x00, 0x20)\n      add\n        /* \"val71.sol\":13896:13909  data[i] = sum */\n      dup2\n      swap1\n      sstore\n      pop\n        /* \"val71.sol\":13803:13806  i++ */\n      dup1\n      dup1\n      0x01\n      add\n      swap2\n      pop\n      pop\n        /* \"val71.sol\":13771:13921  for(uint256 i = start; i < end; i++)... */\n      jump(tag_96)\n    tag_97:\n      pop\n        /* \"val71.sol\":13941:13944  sum */\n      dup1\n        /* \"val71.sol\":13931:13938  lastSum */\n      0x01\n        /* \"val71.sol\":13931:13944  lastSum = sum */\n      dup2\n      swap1\n      sstore\n      pop\n        /* \"val71.sol\":13982:13991  gasleft() */\n      gas\n        /* \"val71.sol\":13971:13979  startGas */\n      dup4\n        /* \"val71.sol\":13971:13991  startGas - gasleft() */\n      tag_106\n      swap2\n      swap1\n      tag_78\n      jump\t// in\n    tag_106:\n        /* \"val71.sol\":13957:13968  lastGasUsed */\n      0x02\n        /* \"val71.sol\":13957:13991  lastGasUsed = startGas - gasleft() */\n      dup2\n      swap1\n      sstore\n      pop\n        /* \"val71.sol\":14009:14052  SafeChunkProcessed(start, end, lastGasUsed) */\n      0x625d72aebb3969a6c371d82d0fcaaf32ddbdfda8fae6cbc0402ec251b54d3462\n        /* \"val71.sol\":14028:14033  start */\n      dup6\n        /* \"val71.sol\":14035:14038  end */\n      dup4\n        /* \"val71.sol\":14040:14051  lastGasUsed */\n      sload(0x02)\n        /* \"val71.sol\":14009:14052  SafeChunkProcessed(start, end, lastGasUsed) */\n      mload(0x40)\n      tag_107\n      swap4\n      swap3\n      swap2\n      swap1\n      tag_108\n      jump\t// in\n    tag_107:\n      mload(0x40)\n      dup1\n      swap2\n      sub\n      swap1\n      log1\n        /* \"val71.sol\":13379:14062  {... */\n      pop\n      pop\n      pop\n        /* \"val71.sol\":13304:14062  function safeChunkProcess(uint256 start, uint256 batchSize) external ... */\n      pop\n      pop\n      jump\t// out\n        /* \"val71.sol\":14227:14471  function addMany(uint256 n)... */\n    tag_46:\n        /* \"val71.sol\":14304:14308  1000 */\n      0x03e8\n        /* \"val71.sol\":14299:14300  n */\n      dup2\n        /* \"val71.sol\":14299:14308  n <= 1000 */\n      gt\n      iszero\n        /* \"val71.sol\":14291:14328  require(n <= 1000, \"Too many values\") */\n      tag_110\n      jumpi\n      mload(0x40)\n      0x08c379a000000000000000000000000000000000000000000000000000000000\n      dup2\n      mstore\n      0x04\n      add\n      tag_111\n      swap1\n      tag_112\n      jump\t// in\n    tag_111:\n      mload(0x40)\n      dup1\n      swap2\n      sub\n      swap1\n      revert\n    tag_110:\n        /* \"val71.sol\":14360:14369  uint256 i */\n      0x00\n        /* \"val71.sol\":14372:14373  0 */\n      0x00\n        /* \"val71.sol\":14360:14373  uint256 i = 0 */\n      swap1\n      pop\n        /* \"val71.sol\":14341:14464  for (... */\n    tag_113:\n        /* \"val71.sol\":14392:14393  n */\n      dup2\n        /* \"val71.sol\":14388:14389  i */\n      dup2\n        /* \"val71.sol\":14388:14393  i < n */\n      lt\n        /* \"val71.sol\":14341:14464  for (... */\n      iszero\n      tag_114\n      jumpi\n        /* \"val71.sol\":14440:14444  data */\n      0x00\n        /* \"val71.sol\":14450:14451  i */\n      dup2\n        /* \"val71.sol\":14440:14452  data.push(i) */\n      swap1\n      dup1\n      0x01\n      dup2\n      sload\n      add\n      dup1\n      dup3\n      sstore\n      dup1\n      swap2\n      pop\n      pop\n      0x01\n      swap1\n      sub\n      swap1\n      0x00\n      mstore\n      keccak256(0x00, 0x20)\n      add\n      0x00\n      swap1\n      swap2\n      swap1\n      swap2\n      swap1\n      swap2\n      pop\n      sstore\n        /* \"val71.sol\":14408:14411  i++ */\n      dup1\n      dup1\n      0x01\n      add\n      swap2\n      pop\n      pop\n        /* \"val71.sol\":14341:14464  for (... */\n      jump(tag_113)\n    tag_114:\n      pop\n        /* \"val71.sol\":14227:14471  function addMany(uint256 n)... */\n      pop\n      jump\t// out\n        /* \"val71.sol\":11892:11913  uint256[] public data */\n    tag_49:\n      0x00\n      dup2\n      dup2\n      sload\n      dup2\n      lt\n      tag_117\n      jumpi\n      0x00\n      dup1\n      revert\n    tag_117:\n      swap1\n      0x00\n      mstore\n      keccak256(0x00, 0x20)\n      add\n      0x00\n      swap2\n      pop\n      swap1\n      pop\n      sload\n      dup2\n      jump\t// out\n        /* \"#utility.yul\":7:84   */\n    tag_119:\n        /* \"#utility.yul\":44:51   */\n      0x00\n        /* \"#utility.yul\":73:78   */\n      dup2\n        /* \"#utility.yul\":62:78   */\n      swap1\n      pop\n        /* \"#utility.yul\":7:84   */\n      swap2\n      swap1\n      pop\n      jump\t// out\n        /* \"#utility.yul\":90:208   */\n    tag_120:\n        /* \"#utility.yul\":177:201   */\n      tag_141\n        /* \"#utility.yul\":195:200   */\n      dup2\n        /* \"#utility.yul\":177:201   */\n      tag_119\n      jump\t// in\n    tag_141:\n        /* \"#utility.yul\":172:175   */\n      dup3\n        /* \"#utility.yul\":165:202   */\n      mstore\n        /* \"#utility.yul\":90:208   */\n      pop\n      pop\n      jump\t// out\n        /* \"#utility.yul\":214:436   */\n    tag_17:\n        /* \"#utility.yul\":307:311   */\n      0x00\n        /* \"#utility.yul\":345:347   */\n      0x20\n        /* \"#utility.yul\":334:343   */\n      dup3\n        /* \"#utility.yul\":330:348   */\n      add\n        /* \"#utility.yul\":322:348   */\n      swap1\n      pop\n        /* \"#utility.yul\":358:429   */\n      tag_143\n        /* \"#utility.yul\":426:427   */\n      0x00\n        /* \"#utility.yul\":415:424   */\n      dup4\n        /* \"#utility.yul\":411:428   */\n      add\n        /* \"#utility.yul\":402:408   */\n      dup5\n        /* \"#utility.yul\":358:429   */\n      tag_120\n      jump\t// in\n    tag_143:\n        /* \"#utility.yul\":214:436   */\n      swap3\n      swap2\n      pop\n      pop\n      jump\t// out\n        /* \"#utility.yul\":523:640   */\n    tag_122:\n        /* \"#utility.yul\":632:633   */\n      0x00\n        /* \"#utility.yul\":629:630   */\n      0x00\n        /* \"#utility.yul\":622:634   */\n      revert\n        /* \"#utility.yul\":769:891   */\n    tag_124:\n        /* \"#utility.yul\":842:866   */\n      tag_148\n        /* \"#utility.yul\":860:865   */\n      dup2\n        /* \"#utility.yul\":842:866   */\n      tag_119\n      jump\t// in\n    tag_148:\n        /* \"#utility.yul\":835:840   */\n      dup2\n        /* \"#utility.yul\":832:867   */\n      eq\n        /* \"#utility.yul\":822:885   */\n      tag_149\n      jumpi\n        /* \"#utility.yul\":881:882   */\n      0x00\n        /* \"#utility.yul\":878:879   */\n      0x00\n        /* \"#utility.yul\":871:883   */\n      revert\n        /* \"#utility.yul\":822:885   */\n    tag_149:\n        /* \"#utility.yul\":769:891   */\n      pop\n      jump\t// out\n        /* \"#utility.yul\":897:1036   */\n    tag_125:\n        /* \"#utility.yul\":943:948   */\n      0x00\n        /* \"#utility.yul\":981:987   */\n      dup2\n        /* \"#utility.yul\":968:988   */\n      calldataload\n        /* \"#utility.yul\":959:988   */\n      swap1\n      pop\n        /* \"#utility.yul\":997:1030   */\n      tag_151\n        /* \"#utility.yul\":1024:1029   */\n      dup2\n        /* \"#utility.yul\":997:1030   */\n      tag_124\n      jump\t// in\n    tag_151:\n        /* \"#utility.yul\":897:1036   */\n      swap3\n      swap2\n      pop\n      pop\n      jump\t// out\n        /* \"#utility.yul\":1042:1516   */\n    tag_20:\n        /* \"#utility.yul\":1110:1116   */\n      0x00\n        /* \"#utility.yul\":1118:1124   */\n      0x00\n        /* \"#utility.yul\":1167:1169   */\n      0x40\n        /* \"#utility.yul\":1155:1164   */\n      dup4\n        /* \"#utility.yul\":1146:1153   */\n      dup6\n        /* \"#utility.yul\":1142:1165   */\n      sub\n        /* \"#utility.yul\":1138:1170   */\n      slt\n        /* \"#utility.yul\":1135:1254   */\n      iszero\n      tag_153\n      jumpi\n        /* \"#utility.yul\":1173:1252   */\n      tag_154\n      tag_122\n      jump\t// in\n    tag_154:\n        /* \"#utility.yul\":1135:1254   */\n    tag_153:\n        /* \"#utility.yul\":1293:1294   */\n      0x00\n        /* \"#utility.yul\":1318:1371   */\n      tag_155\n        /* \"#utility.yul\":1363:1370   */\n      dup6\n        /* \"#utility.yul\":1354:1360   */\n      dup3\n        /* \"#utility.yul\":1343:1352   */\n      dup7\n        /* \"#utility.yul\":1339:1361   */\n      add\n        /* \"#utility.yul\":1318:1371   */\n      tag_125\n      jump\t// in\n    tag_155:\n        /* \"#utility.yul\":1308:1371   */\n      swap3\n      pop\n        /* \"#utility.yul\":1264:1381   */\n      pop\n        /* \"#utility.yul\":1420:1422   */\n      0x20\n        /* \"#utility.yul\":1446:1499   */\n      tag_156\n        /* \"#utility.yul\":1491:1498   */\n      dup6\n        /* \"#utility.yul\":1482:1488   */\n      dup3\n        /* \"#utility.yul\":1471:1480   */\n      dup7\n        /* \"#utility.yul\":1467:1489   */\n      add\n        /* \"#utility.yul\":1446:1499   */\n      tag_125\n      jump\t// in\n    tag_156:\n        /* \"#utility.yul\":1436:1499   */\n      swap2\n      pop\n        /* \"#utility.yul\":1391:1509   */\n      pop\n        /* \"#utility.yul\":1042:1516   */\n      swap3\n      pop\n      swap3\n      swap1\n      pop\n      jump\t// out\n        /* \"#utility.yul\":1522:1621   */\n    tag_126:\n        /* \"#utility.yul\":1574:1580   */\n      0x00\n        /* \"#utility.yul\":1608:1613   */\n      dup2\n        /* \"#utility.yul\":1602:1614   */\n      mload\n        /* \"#utility.yul\":1592:1614   */\n      swap1\n      pop\n        /* \"#utility.yul\":1522:1621   */\n      swap2\n      swap1\n      pop\n      jump\t// out\n        /* \"#utility.yul\":1627:1796   */\n    tag_127:\n        /* \"#utility.yul\":1711:1722   */\n      0x00\n        /* \"#utility.yul\":1745:1751   */\n      dup3\n        /* \"#utility.yul\":1740:1743   */\n      dup3\n        /* \"#utility.yul\":1733:1752   */\n      mstore\n        /* \"#utility.yul\":1785:1789   */\n      0x20\n        /* \"#utility.yul\":1780:1783   */\n      dup3\n        /* \"#utility.yul\":1776:1790   */\n      add\n        /* \"#utility.yul\":1761:1790   */\n      swap1\n      pop\n        /* \"#utility.yul\":1627:1796   */\n      swap3\n      swap2\n      pop\n      pop\n      jump\t// out\n        /* \"#utility.yul\":1802:1941   */\n    tag_128:\n        /* \"#utility.yul\":1891:1897   */\n      dup3\n        /* \"#utility.yul\":1886:1889   */\n      dup2\n        /* \"#utility.yul\":1881:1884   */\n      dup4\n        /* \"#utility.yul\":1875:1898   */\n      mcopy\n        /* \"#utility.yul\":1932:1933   */\n      0x00\n        /* \"#utility.yul\":1923:1929   */\n      dup4\n        /* \"#utility.yul\":1918:1921   */\n      dup4\n        /* \"#utility.yul\":1914:1930   */\n      add\n        /* \"#utility.yul\":1907:1934   */\n      mstore\n        /* \"#utility.yul\":1802:1941   */\n      pop\n      pop\n      pop\n      jump\t// out\n        /* \"#utility.yul\":1947:2049   */\n    tag_129:\n        /* \"#utility.yul\":1988:1994   */\n      0x00\n        /* \"#utility.yul\":2039:2041   */\n      0x1f\n        /* \"#utility.yul\":2035:2042   */\n      not\n        /* \"#utility.yul\":2030:2032   */\n      0x1f\n        /* \"#utility.yul\":2023:2028   */\n      dup4\n        /* \"#utility.yul\":2019:2033   */\n      add\n        /* \"#utility.yul\":2015:2043   */\n      and\n        /* \"#utility.yul\":2005:2043   */\n      swap1\n      pop\n        /* \"#utility.yul\":1947:2049   */\n      swap2\n      swap1\n      pop\n      jump\t// out\n        /* \"#utility.yul\":2055:2432   */\n    tag_130:\n        /* \"#utility.yul\":2143:2146   */\n      0x00\n        /* \"#utility.yul\":2171:2210   */\n      tag_162\n        /* \"#utility.yul\":2204:2209   */\n      dup3\n        /* \"#utility.yul\":2171:2210   */\n      tag_126\n      jump\t// in\n    tag_162:\n        /* \"#utility.yul\":2226:2297   */\n      tag_163\n        /* \"#utility.yul\":2290:2296   */\n      dup2\n        /* \"#utility.yul\":2285:2288   */\n      dup6\n        /* \"#utility.yul\":2226:2297   */\n      tag_127\n      jump\t// in\n    tag_163:\n        /* \"#utility.yul\":2219:2297   */\n      swap4\n      pop\n        /* \"#utility.yul\":2306:2371   */\n      tag_164\n        /* \"#utility.yul\":2364:2370   */\n      dup2\n        /* \"#utility.yul\":2359:2362   */\n      dup6\n        /* \"#utility.yul\":2352:2356   */\n      0x20\n        /* \"#utility.yul\":2345:2350   */\n      dup7\n        /* \"#utility.yul\":2341:2357   */\n      add\n        /* \"#utility.yul\":2306:2371   */\n      tag_128\n      jump\t// in\n    tag_164:\n        /* \"#utility.yul\":2396:2425   */\n      tag_165\n        /* \"#utility.yul\":2418:2424   */\n      dup2\n        /* \"#utility.yul\":2396:2425   */\n      tag_129\n      jump\t// in\n    tag_165:\n        /* \"#utility.yul\":2391:2394   */\n      dup5\n        /* \"#utility.yul\":2387:2426   */\n      add\n        /* \"#utility.yul\":2380:2426   */\n      swap2\n      pop\n        /* \"#utility.yul\":2147:2432   */\n      pop\n        /* \"#utility.yul\":2055:2432   */\n      swap3\n      swap2\n      pop\n      pop\n      jump\t// out\n        /* \"#utility.yul\":2438:2952   */\n    tag_28:\n        /* \"#utility.yul\":2599:2603   */\n      0x00\n        /* \"#utility.yul\":2637:2639   */\n      0x40\n        /* \"#utility.yul\":2626:2635   */\n      dup3\n        /* \"#utility.yul\":2622:2640   */\n      add\n        /* \"#utility.yul\":2614:2640   */\n      swap1\n      pop\n        /* \"#utility.yul\":2686:2695   */\n      dup2\n        /* \"#utility.yul\":2680:2684   */\n      dup2\n        /* \"#utility.yul\":2676:2696   */\n      sub\n        /* \"#utility.yul\":2672:2673   */\n      0x00\n        /* \"#utility.yul\":2661:2670   */\n      dup4\n        /* \"#utility.yul\":2657:2674   */\n      add\n        /* \"#utility.yul\":2650:2697   */\n      mstore\n        /* \"#utility.yul\":2714:2792   */\n      tag_167\n        /* \"#utility.yul\":2787:2791   */\n      dup2\n        /* \"#utility.yul\":2778:2784   */\n      dup6\n        /* \"#utility.yul\":2714:2792   */\n      tag_130\n      jump\t// in\n    tag_167:\n        /* \"#utility.yul\":2706:2792   */\n      swap1\n      pop\n        /* \"#utility.yul\":2839:2848   */\n      dup2\n        /* \"#utility.yul\":2833:2837   */\n      dup2\n        /* \"#utility.yul\":2829:2849   */\n      sub\n        /* \"#utility.yul\":2824:2826   */\n      0x20\n        /* \"#utility.yul\":2813:2822   */\n      dup4\n        /* \"#utility.yul\":2809:2827   */\n      add\n        /* \"#utility.yul\":2802:2850   */\n      mstore\n        /* \"#utility.yul\":2867:2945   */\n      tag_168\n        /* \"#utility.yul\":2940:2944   */\n      dup2\n        /* \"#utility.yul\":2931:2937   */\n      dup5\n        /* \"#utility.yul\":2867:2945   */\n      tag_130\n      jump\t// in\n    tag_168:\n        /* \"#utility.yul\":2859:2945   */\n      swap1\n      pop\n        /* \"#utility.yul\":2438:2952   */\n      swap4\n      swap3\n      pop\n      pop\n      pop\n      jump\t// out\n        /* \"#utility.yul\":2958:3287   */\n    tag_34:\n        /* \"#utility.yul\":3017:3023   */\n      0x00\n        /* \"#utility.yul\":3066:3068   */\n      0x20\n        /* \"#utility.yul\":3054:3063   */\n      dup3\n        /* \"#utility.yul\":3045:3052   */\n      dup5\n        /* \"#utility.yul\":3041:3064   */\n      sub\n        /* \"#utility.yul\":3037:3069   */\n      slt\n        /* \"#utility.yul\":3034:3153   */\n      iszero\n      tag_170\n      jumpi\n        /* \"#utility.yul\":3072:3151   */\n      tag_171\n      tag_122\n      jump\t// in\n    tag_171:\n        /* \"#utility.yul\":3034:3153   */\n    tag_170:\n        /* \"#utility.yul\":3192:3193   */\n      0x00\n        /* \"#utility.yul\":3217:3270   */\n      tag_172\n        /* \"#utility.yul\":3262:3269   */\n      dup5\n        /* \"#utility.yul\":3253:3259   */\n      dup3\n        /* \"#utility.yul\":3242:3251   */\n      dup6\n        /* \"#utility.yul\":3238:3260   */\n      add\n        /* \"#utility.yul\":3217:3270   */\n      tag_125\n      jump\t// in\n    tag_172:\n        /* \"#utility.yul\":3207:3270   */\n      swap2\n      pop\n        /* \"#utility.yul\":3163:3280   */\n      pop\n        /* \"#utility.yul\":2958:3287   */\n      swap3\n      swap2\n      pop\n      pop\n      jump\t// out\n        /* \"#utility.yul\":3293:3606   */\n    tag_37:\n        /* \"#utility.yul\":3406:3410   */\n      0x00\n        /* \"#utility.yul\":3444:3446   */\n      0x20\n        /* \"#utility.yul\":3433:3442   */\n      dup3\n        /* \"#utility.yul\":3429:3447   */\n      add\n        /* \"#utility.yul\":3421:3447   */\n      swap1\n      pop\n        /* \"#utility.yul\":3493:3502   */\n      dup2\n        /* \"#utility.yul\":3487:3491   */\n      dup2\n        /* \"#utility.yul\":3483:3503   */\n      sub\n        /* \"#utility.yul\":3479:3480   */\n      0x00\n        /* \"#utility.yul\":3468:3477   */\n      dup4\n        /* \"#utility.yul\":3464:3481   */\n      add\n        /* \"#utility.yul\":3457:3504   */\n      mstore\n        /* \"#utility.yul\":3521:3599   */\n      tag_174\n        /* \"#utility.yul\":3594:3598   */\n      dup2\n        /* \"#utility.yul\":3585:3591   */\n      dup5\n        /* \"#utility.yul\":3521:3599   */\n      tag_130\n      jump\t// in\n    tag_174:\n        /* \"#utility.yul\":3513:3599   */\n      swap1\n      pop\n        /* \"#utility.yul\":3293:3606   */\n      swap3\n      swap2\n      pop\n      pop\n      jump\t// out\n        /* \"#utility.yul\":3612:3777   */\n    tag_131:\n        /* \"#utility.yul\":3752:3769   */\n      0x426174636820746f6f206c617267650000000000000000000000000000000000\n        /* \"#utility.yul\":3748:3749   */\n      0x00\n        /* \"#utility.yul\":3740:3746   */\n      dup3\n        /* \"#utility.yul\":3736:3750   */\n      add\n        /* \"#utility.yul\":3729:3770   */\n      mstore\n        /* \"#utility.yul\":3612:3777   */\n      pop\n      jump\t// out\n        /* \"#utility.yul\":3783:4149   */\n    tag_132:\n        /* \"#utility.yul\":3925:3928   */\n      0x00\n        /* \"#utility.yul\":3946:4013   */\n      tag_177\n        /* \"#utility.yul\":4010:4012   */\n      0x0f\n        /* \"#utility.yul\":4005:4008   */\n      dup4\n        /* \"#utility.yul\":3946:4013   */\n      tag_127\n      jump\t// in\n    tag_177:\n        /* \"#utility.yul\":3939:4013   */\n      swap2\n      pop\n        /* \"#utility.yul\":4022:4115   */\n      tag_178\n        /* \"#utility.yul\":4111:4114   */\n      dup3\n        /* \"#utility.yul\":4022:4115   */\n      tag_131\n      jump\t// in\n    tag_178:\n        /* \"#utility.yul\":4140:4142   */\n      0x20\n        /* \"#utility.yul\":4135:4138   */\n      dup3\n        /* \"#utility.yul\":4131:4143   */\n      add\n        /* \"#utility.yul\":4124:4143   */\n      swap1\n      pop\n        /* \"#utility.yul\":3783:4149   */\n      swap2\n      swap1\n      pop\n      jump\t// out\n        /* \"#utility.yul\":4155:4574   */\n    tag_54:\n        /* \"#utility.yul\":4321:4325   */\n      0x00\n        /* \"#utility.yul\":4359:4361   */\n      0x20\n        /* \"#utility.yul\":4348:4357   */\n      dup3\n        /* \"#utility.yul\":4344:4362   */\n      add\n        /* \"#utility.yul\":4336:4362   */\n      swap1\n      pop\n        /* \"#utility.yul\":4408:4417   */\n      dup2\n        /* \"#utility.yul\":4402:4406   */\n      dup2\n        /* \"#utility.yul\":4398:4418   */\n      sub\n        /* \"#utility.yul\":4394:4395   */\n      0x00\n        /* \"#utility.yul\":4383:4392   */\n      dup4\n        /* \"#utility.yul\":4379:4396   */\n      add\n        /* \"#utility.yul\":4372:4419   */\n      mstore\n        /* \"#utility.yul\":4436:4567   */\n      tag_180\n        /* \"#utility.yul\":4562:4566   */\n      dup2\n        /* \"#utility.yul\":4436:4567   */\n      tag_132\n      jump\t// in\n    tag_180:\n        /* \"#utility.yul\":4428:4567   */\n      swap1\n      pop\n        /* \"#utility.yul\":4155:4574   */\n      swap2\n      swap1\n      pop\n      jump\t// out\n        /* \"#utility.yul\":4580:4760   */\n    tag_133:\n        /* \"#utility.yul\":4628:4705   */\n      0x4e487b7100000000000000000000000000000000000000000000000000000000\n        /* \"#utility.yul\":4625:4626   */\n      0x00\n        /* \"#utility.yul\":4618:4706   */\n      mstore\n        /* \"#utility.yul\":4725:4729   */\n      0x11\n        /* \"#utility.yul\":4722:4723   */\n      0x04\n        /* \"#utility.yul\":4715:4730   */\n      mstore\n        /* \"#utility.yul\":4749:4753   */\n      0x24\n        /* \"#utility.yul\":4746:4747   */\n      0x00\n        /* \"#utility.yul\":4739:4754   */\n      revert\n        /* \"#utility.yul\":4766:4957   */\n    tag_56:\n        /* \"#utility.yul\":4806:4809   */\n      0x00\n        /* \"#utility.yul\":4825:4845   */\n      tag_183\n        /* \"#utility.yul\":4843:4844   */\n      dup3\n        /* \"#utility.yul\":4825:4845   */\n      tag_119\n      jump\t// in\n    tag_183:\n        /* \"#utility.yul\":4820:4845   */\n      swap2\n      pop\n        /* \"#utility.yul\":4859:4879   */\n      tag_184\n        /* \"#utility.yul\":4877:4878   */\n      dup4\n        /* \"#utility.yul\":4859:4879   */\n      tag_119\n      jump\t// in\n    tag_184:\n        /* \"#utility.yul\":4854:4879   */\n      swap3\n      pop\n        /* \"#utility.yul\":4902:4903   */\n      dup3\n        /* \"#utility.yul\":4899:4900   */\n      dup3\n        /* \"#utility.yul\":4895:4904   */\n      add\n        /* \"#utility.yul\":4888:4904   */\n      swap1\n      pop\n        /* \"#utility.yul\":4923:4926   */\n      dup1\n        /* \"#utility.yul\":4920:4921   */\n      dup3\n        /* \"#utility.yul\":4917:4927   */\n      gt\n        /* \"#utility.yul\":4914:4950   */\n      iszero\n      tag_185\n      jumpi\n        /* \"#utility.yul\":4930:4948   */\n      tag_186\n      tag_133\n      jump\t// in\n    tag_186:\n        /* \"#utility.yul\":4914:4950   */\n    tag_185:\n        /* \"#utility.yul\":4766:4957   */\n      swap3\n      swap2\n      pop\n      pop\n      jump\t// out\n        /* \"#utility.yul\":4963:5143   */\n    tag_63:\n        /* \"#utility.yul\":5011:5088   */\n      0x4e487b7100000000000000000000000000000000000000000000000000000000\n        /* \"#utility.yul\":5008:5009   */\n      0x00\n        /* \"#utility.yul\":5001:5089   */\n      mstore\n        /* \"#utility.yul\":5108:5112   */\n      0x32\n        /* \"#utility.yul\":5105:5106   */\n      0x04\n        /* \"#utility.yul\":5098:5113   */\n      mstore\n        /* \"#utility.yul\":5132:5136   */\n      0x24\n        /* \"#utility.yul\":5129:5130   */\n      0x00\n        /* \"#utility.yul\":5122:5137   */\n      revert\n        /* \"#utility.yul\":5149:5343   */\n    tag_78:\n        /* \"#utility.yul\":5189:5193   */\n      0x00\n        /* \"#utility.yul\":5209:5229   */\n      tag_189\n        /* \"#utility.yul\":5227:5228   */\n      dup3\n        /* \"#utility.yul\":5209:5229   */\n      tag_119\n      jump\t// in\n    tag_189:\n        /* \"#utility.yul\":5204:5229   */\n      swap2\n      pop\n        /* \"#utility.yul\":5243:5263   */\n      tag_190\n        /* \"#utility.yul\":5261:5262   */\n      dup4\n        /* \"#utility.yul\":5243:5263   */\n      tag_119\n      jump\t// in\n    tag_190:\n        /* \"#utility.yul\":5238:5263   */\n      swap3\n      pop\n        /* \"#utility.yul\":5287:5288   */\n      dup3\n        /* \"#utility.yul\":5284:5285   */\n      dup3\n        /* \"#utility.yul\":5280:5289   */\n      sub\n        /* \"#utility.yul\":5272:5289   */\n      swap1\n      pop\n        /* \"#utility.yul\":5311:5312   */\n      dup2\n        /* \"#utility.yul\":5305:5309   */\n      dup2\n        /* \"#utility.yul\":5302:5313   */\n      gt\n        /* \"#utility.yul\":5299:5336   */\n      iszero\n      tag_191\n      jumpi\n        /* \"#utility.yul\":5316:5334   */\n      tag_192\n      tag_133\n      jump\t// in\n    tag_192:\n        /* \"#utility.yul\":5299:5336   */\n    tag_191:\n        /* \"#utility.yul\":5149:5343   */\n      swap3\n      swap2\n      pop\n      pop\n      jump\t// out\n        /* \"#utility.yul\":5349:5681   */\n    tag_80:\n        /* \"#utility.yul\":5470:5474   */\n      0x00\n        /* \"#utility.yul\":5508:5510   */\n      0x40\n        /* \"#utility.yul\":5497:5506   */\n      dup3\n        /* \"#utility.yul\":5493:5511   */\n      add\n        /* \"#utility.yul\":5485:5511   */\n      swap1\n      pop\n        /* \"#utility.yul\":5521:5592   */\n      tag_194\n        /* \"#utility.yul\":5589:5590   */\n      0x00\n        /* \"#utility.yul\":5578:5587   */\n      dup4\n        /* \"#utility.yul\":5574:5591   */\n      add\n        /* \"#utility.yul\":5565:5571   */\n      dup6\n        /* \"#utility.yul\":5521:5592   */\n      tag_120\n      jump\t// in\n    tag_194:\n        /* \"#utility.yul\":5602:5674   */\n      tag_195\n        /* \"#utility.yul\":5670:5672   */\n      0x20\n        /* \"#utility.yul\":5659:5668   */\n      dup4\n        /* \"#utility.yul\":5655:5673   */\n      add\n        /* \"#utility.yul\":5646:5652   */\n      dup5\n        /* \"#utility.yul\":5602:5674   */\n      tag_120\n      jump\t// in\n    tag_195:\n        /* \"#utility.yul\":5349:5681   */\n      swap4\n      swap3\n      pop\n      pop\n      pop\n      jump\t// out\n        /* \"#utility.yul\":5687:5850   */\n    tag_134:\n        /* \"#utility.yul\":5827:5842   */\n      0x496e76616c696420737461727400000000000000000000000000000000000000\n        /* \"#utility.yul\":5823:5824   */\n      0x00\n        /* \"#utility.yul\":5815:5821   */\n      dup3\n        /* \"#utility.yul\":5811:5825   */\n      add\n        /* \"#utility.yul\":5804:5843   */\n      mstore\n        /* \"#utility.yul\":5687:5850   */\n      pop\n      jump\t// out\n        /* \"#utility.yul\":5856:6222   */\n    tag_135:\n        /* \"#utility.yul\":5998:6001   */\n      0x00\n        /* \"#utility.yul\":6019:6086   */\n      tag_198\n        /* \"#utility.yul\":6083:6085   */\n      0x0d\n        /* \"#utility.yul\":6078:6081   */\n      dup4\n        /* \"#utility.yul\":6019:6086   */\n      tag_127\n      jump\t// in\n    tag_198:\n        /* \"#utility.yul\":6012:6086   */\n      swap2\n      pop\n        /* \"#utility.yul\":6095:6188   */\n      tag_199\n        /* \"#utility.yul\":6184:6187   */\n      dup3\n        /* \"#utility.yul\":6095:6188   */\n      tag_134\n      jump\t// in\n    tag_199:\n        /* \"#utility.yul\":6213:6215   */\n      0x20\n        /* \"#utility.yul\":6208:6211   */\n      dup3\n        /* \"#utility.yul\":6204:6216   */\n      add\n        /* \"#utility.yul\":6197:6216   */\n      swap1\n      pop\n        /* \"#utility.yul\":5856:6222   */\n      swap2\n      swap1\n      pop\n      jump\t// out\n        /* \"#utility.yul\":6228:6647   */\n    tag_93:\n        /* \"#utility.yul\":6394:6398   */\n      0x00\n        /* \"#utility.yul\":6432:6434   */\n      0x20\n        /* \"#utility.yul\":6421:6430   */\n      dup3\n        /* \"#utility.yul\":6417:6435   */\n      add\n        /* \"#utility.yul\":6409:6435   */\n      swap1\n      pop\n        /* \"#utility.yul\":6481:6490   */\n      dup2\n        /* \"#utility.yul\":6475:6479   */\n      dup2\n        /* \"#utility.yul\":6471:6491   */\n      sub\n        /* \"#utility.yul\":6467:6468   */\n      0x00\n        /* \"#utility.yul\":6456:6465   */\n      dup4\n        /* \"#utility.yul\":6452:6469   */\n      add\n        /* \"#utility.yul\":6445:6492   */\n      mstore\n        /* \"#utility.yul\":6509:6640   */\n      tag_201\n        /* \"#utility.yul\":6635:6639   */\n      dup2\n        /* \"#utility.yul\":6509:6640   */\n      tag_135\n      jump\t// in\n    tag_201:\n        /* \"#utility.yul\":6501:6640   */\n      swap1\n      pop\n        /* \"#utility.yul\":6228:6647   */\n      swap2\n      swap1\n      pop\n      jump\t// out\n        /* \"#utility.yul\":6653:7095   */\n    tag_108:\n        /* \"#utility.yul\":6802:6806   */\n      0x00\n        /* \"#utility.yul\":6840:6842   */\n      0x60\n        /* \"#utility.yul\":6829:6838   */\n      dup3\n        /* \"#utility.yul\":6825:6843   */\n      add\n        /* \"#utility.yul\":6817:6843   */\n      swap1\n      pop\n        /* \"#utility.yul\":6853:6924   */\n      tag_203\n        /* \"#utility.yul\":6921:6922   */\n      0x00\n        /* \"#utility.yul\":6910:6919   */\n      dup4\n        /* \"#utility.yul\":6906:6923   */\n      add\n        /* \"#utility.yul\":6897:6903   */\n      dup7\n        /* \"#utility.yul\":6853:6924   */\n      tag_120\n      jump\t// in\n    tag_203:\n        /* \"#utility.yul\":6934:7006   */\n      tag_204\n        /* \"#utility.yul\":7002:7004   */\n      0x20\n        /* \"#utility.yul\":6991:7000   */\n      dup4\n        /* \"#utility.yul\":6987:7005   */\n      add\n        /* \"#utility.yul\":6978:6984   */\n      dup6\n        /* \"#utility.yul\":6934:7006   */\n      tag_120\n      jump\t// in\n    tag_204:\n        /* \"#utility.yul\":7016:7088   */\n      tag_205\n        /* \"#utility.yul\":7084:7086   */\n      0x40\n        /* \"#utility.yul\":7073:7082   */\n      dup4\n        /* \"#utility.yul\":7069:7087   */\n      add\n        /* \"#utility.yul\":7060:7066   */\n      dup5\n        /* \"#utility.yul\":7016:7088   */\n      tag_120\n      jump\t// in\n    tag_205:\n        /* \"#utility.yul\":6653:7095   */\n      swap5\n      swap4\n      pop\n      pop\n      pop\n      pop\n      jump\t// out\n        /* \"#utility.yul\":7101:7266   */\n    tag_136:\n        /* \"#utility.yul\":7241:7258   */\n      0x546f6f206d616e792076616c7565730000000000000000000000000000000000\n        /* \"#utility.yul\":7237:7238   */\n      0x00\n        /* \"#utility.yul\":7229:7235   */\n      dup3\n        /* \"#utility.yul\":7225:7239   */\n      add\n        /* \"#utility.yul\":7218:7259   */\n      mstore\n        /* \"#utility.yul\":7101:7266   */\n      pop\n      jump\t// out\n        /* \"#utility.yul\":7272:7638   */\n    tag_137:\n        /* \"#utility.yul\":7414:7417   */\n      0x00\n        /* \"#utility.yul\":7435:7502   */\n      tag_208\n        /* \"#utility.yul\":7499:7501   */\n      0x0f\n        /* \"#utility.yul\":7494:7497   */\n      dup4\n        /* \"#utility.yul\":7435:7502   */\n      tag_127\n      jump\t// in\n    tag_208:\n        /* \"#utility.yul\":7428:7502   */\n      swap2\n      pop\n        /* \"#utility.yul\":7511:7604   */\n      tag_209\n        /* \"#utility.yul\":7600:7603   */\n      dup3\n        /* \"#utility.yul\":7511:7604   */\n      tag_136\n      jump\t// in\n    tag_209:\n        /* \"#utility.yul\":7629:7631   */\n      0x20\n        /* \"#utility.yul\":7624:7627   */\n      dup3\n        /* \"#utility.yul\":7620:7632   */\n      add\n        /* \"#utility.yul\":7613:7632   */\n      swap1\n      pop\n        /* \"#utility.yul\":7272:7638   */\n      swap2\n      swap1\n      pop\n      jump\t// out\n        /* \"#utility.yul\":7644:8063   */\n    tag_112:\n        /* \"#utility.yul\":7810:7814   */\n      0x00\n        /* \"#utility.yul\":7848:7850   */\n      0x20\n        /* \"#utility.yul\":7837:7846   */\n      dup3\n        /* \"#utility.yul\":7833:7851   */\n      add\n        /* \"#utility.yul\":7825:7851   */\n      swap1\n      pop\n        /* \"#utility.yul\":7897:7906   */\n      dup2\n        /* \"#utility.yul\":7891:7895   */\n      dup2\n        /* \"#utility.yul\":7887:7907   */\n      sub\n        /* \"#utility.yul\":7883:7884   */\n      0x00\n        /* \"#utility.yul\":7872:7881   */\n      dup4\n        /* \"#utility.yul\":7868:7885   */\n      add\n        /* \"#utility.yul\":7861:7908   */\n      mstore\n        /* \"#utility.yul\":7925:8056   */\n      tag_211\n        /* \"#utility.yul\":8051:8055   */\n      dup2\n        /* \"#utility.yul\":7925:8056   */\n      tag_137\n      jump\t// in\n    tag_211:\n        /* \"#utility.yul\":7917:8056   */\n      swap1\n      pop\n        /* \"#utility.yul\":7644:8063   */\n      swap2\n      swap1\n      pop\n      jump\t// out\n    stop\n    data_3d09c28a06ca0ea5e7d5b4ef8e543a755199a44d8163db010bea1f38c7c0a5c4 6c6f6f707320656e74697220617272617920616e64206d6179206361757365204f4f47\n\n    auxdata: 0xa26469706673582212201899fc0a7fb8d17a3970818cbaecc8e11c2600dbe68bed73830fde996ddaa46464736f6c63430008220033\n}\n",
				"bytecode": {
					"linkReferences": {},
					"object": "6080604052348015600e575f5ffd5b50610b518061001c5f395ff3fe608060405234801561000f575f5ffd5b506004361061009b575f3560e01c8063bd4725a611610064578063bd4725a614610134578063be1c766b14610164578063c458a80114610182578063d4d5e8d51461019e578063f0ba8440146101ba5761009b565b80620d02cd1461009f578063614b9109146100bd57806362a5f171146100ed57806386738b3a146100f757806395c570bd14610116575b5f5ffd5b6100a76101ea565b6040516100b4919061072f565b60405180910390f35b6100d760048036038101906100d29190610776565b6101f0565b6040516100e4919061072f565b60405180910390f35b6100f56102a3565b005b6100ff61036f565b60405161010d929190610824565b60405180910390f35b61011e6103c9565b60405161012b919061072f565b60405180910390f35b61014e60048036038101906101499190610859565b6103cf565b60405161015b9190610884565b60405180910390f35b61016c6104ed565b604051610179919061072f565b60405180910390f35b61019c60048036038101906101979190610776565b6104f8565b005b6101b860048036038101906101b39190610859565b610670565b005b6101d460048036038101906101cf9190610859565b6106f8565b6040516101e1919061072f565b60405180910390f35b60015481565b5f6064821115610235576040517f08c379a000000000000000000000000000000000000000000000000000000000815260040161022c906108ee565b60405180910390fd5b5f82846102429190610939565b90505f80549050811115610258575f8054905090505b5f8490505b8181101561029b575f81815481106102785761027761096c565b5b905f5260205f2001548361028c9190610939565b9250808060010191505061025d565b505092915050565b5f5a90505f5f90505f5f90505b5f80549050811015610312575f81815481106102cf576102ce61096c565b5b905f5260205f200154826102e39190610939565b9150815f82815481106102f9576102f861096c565b5b905f5260205f20018190555080806001019150506102b0565b50806001819055505a826103269190610999565b6002819055507f941393981297ed81e4a9780200ed4bee006292b05bc84877f285540cf574d96c6002545f805490506040516103639291906109cc565b60405180910390a15050565b606080604051806060016040528060238152602001610af96023913991506040518060400160405280601c81526020017f55736573206368756e6b696e6720746f2070726576656e74204f4f470000000081525091509091565b60025481565b6060606482116104e7576064821161041e576040518060400160405280600d81526020017f6c6f77206761732075736167650000000000000000000000000000000000000081525090506104e8565b6103e88211610464576040518060400160405280601081526020017f4d656469756d206761732075736167650000000000000000000000000000000081525090506104e8565b61138882116104aa576040518060400160405280600e81526020017f486967682067617320757361676500000000000000000000000000000000000081525090506104e8565b6040518060400160405280601081526020017f45787472656d6520676173207269736b0000000000000000000000000000000081525090506104e8565b5b919050565b5f5f80549050905090565b606481111561053c576040517f08c379a0000000000000000000000000000000000000000000000000000000008152600401610533906108ee565b60405180910390fd5b5f805490508210610582576040517f08c379a000000000000000000000000000000000000000000000000000000000815260040161057990610a3d565b60405180910390fd5b5f5a90505f82846105939190610939565b90505f805490508111156105a9575f8054905090505b5f60015490505f8590505b82811015610612575f81815481106105cf576105ce61096c565b5b905f5260205f200154826105e39190610939565b9150815f82815481106105f9576105f861096c565b5b905f5260205f20018190555080806001019150506105b4565b50806001819055505a836106269190610999565b6002819055507f625d72aebb3969a6c371d82d0fcaaf32ddbdfda8fae6cbc0402ec251b54d3462858360025460405161066193929190610a5b565b60405180910390a15050505050565b6103e88111156106b5576040517f08c379a00000000000000000000000000000000000000000000000000000000081526004016106ac90610ada565b60405180910390fd5b5f5f90505b818110156106f4575f81908060018154018082558091505060019003905f5260205f20015f909190919091505580806001019150506106ba565b5050565b5f8181548110610706575f80fd5b905f5260205f20015f915090505481565b5f819050919050565b61072981610717565b82525050565b5f6020820190506107425f830184610720565b92915050565b5f5ffd5b61075581610717565b811461075f575f5ffd5b50565b5f813590506107708161074c565b92915050565b5f5f6040838503121561078c5761078b610748565b5b5f61079985828601610762565b92505060206107aa85828601610762565b9150509250929050565b5f81519050919050565b5f82825260208201905092915050565b8281835e5f83830152505050565b5f601f19601f8301169050919050565b5f6107f6826107b4565b61080081856107be565b93506108108185602086016107ce565b610819816107dc565b840191505092915050565b5f6040820190508181035f83015261083c81856107ec565b9050818103602083015261085081846107ec565b90509392505050565b5f6020828403121561086e5761086d610748565b5b5f61087b84828501610762565b91505092915050565b5f6020820190508181035f83015261089c81846107ec565b905092915050565b7f426174636820746f6f206c6172676500000000000000000000000000000000005f82015250565b5f6108d8600f836107be565b91506108e3826108a4565b602082019050919050565b5f6020820190508181035f830152610905816108cc565b9050919050565b7f4e487b71000000000000000000000000000000000000000000000000000000005f52601160045260245ffd5b5f61094382610717565b915061094e83610717565b92508282019050808211156109665761096561090c565b5b92915050565b7f4e487b71000000000000000000000000000000000000000000000000000000005f52603260045260245ffd5b5f6109a382610717565b91506109ae83610717565b92508282039050818111156109c6576109c561090c565b5b92915050565b5f6040820190506109df5f830185610720565b6109ec6020830184610720565b9392505050565b7f496e76616c6964207374617274000000000000000000000000000000000000005f82015250565b5f610a27600d836107be565b9150610a32826109f3565b602082019050919050565b5f6020820190508181035f830152610a5481610a1b565b9050919050565b5f606082019050610a6e5f830186610720565b610a7b6020830185610720565b610a886040830184610720565b949350505050565b7f546f6f206d616e792076616c75657300000000000000000000000000000000005f82015250565b5f610ac4600f836107be565b9150610acf82610a90565b602082019050919050565b5f6020820190508181035f830152610af181610ab8565b905091905056fe6c6f6f707320656e74697220617272617920616e64206d6179206361757365204f4f47a26469706673582212201899fc0a7fb8d17a3970818cbaecc8e11c2600dbe68bed73830fde996ddaa46464736f6c63430008220033",
					"opcodes": "PUSH1 0x80 PUSH1 0x40 MSTORE CALLVALUE DUP1 ISZERO PUSH1 0xE JUMPI PUSH0 PUSH0 REVERT JUMPDEST POP PUSH2 0xB51 DUP1 PUSH2 0x1C PUSH0 CODECOPY PUSH0 RETURN INVALID PUSH1 0x80 PUSH1 0x40 MSTORE CALLVALUE DUP1 ISZERO PUSH2 0xF JUMPI PUSH0 PUSH0 REVERT JUMPDEST POP PUSH1 0x4 CALLDATASIZE LT PUSH2 0x9B JUMPI PUSH0 CALLDATALOAD PUSH1 0xE0 SHR DUP1 PUSH4 0xBD4725A6 GT PUSH2 0x64 JUMPI DUP1 PUSH4 0xBD4725A6 EQ PUSH2 0x134 JUMPI DUP1 PUSH4 0xBE1C766B EQ PUSH2 0x164 JUMPI DUP1 PUSH4 0xC458A801 EQ PUSH2 0x182 JUMPI DUP1 PUSH4 0xD4D5E8D5 EQ PUSH2 0x19E JUMPI DUP1 PUSH4 0xF0BA8440 EQ PUSH2 0x1BA JUMPI PUSH2 0x9B JUMP JUMPDEST DUP1 PUSH3 0xD02CD EQ PUSH2 0x9F JUMPI DUP1 PUSH4 0x614B9109 EQ PUSH2 0xBD JUMPI DUP1 PUSH4 0x62A5F171 EQ PUSH2 0xED JUMPI DUP1 PUSH4 0x86738B3A EQ PUSH2 0xF7 JUMPI DUP1 PUSH4 0x95C570BD EQ PUSH2 0x116 JUMPI JUMPDEST PUSH0 PUSH0 REVERT JUMPDEST PUSH2 0xA7 PUSH2 0x1EA JUMP JUMPDEST PUSH1 0x40 MLOAD PUSH2 0xB4 SWAP2 SWAP1 PUSH2 0x72F JUMP JUMPDEST PUSH1 0x40 MLOAD DUP1 SWAP2 SUB SWAP1 RETURN JUMPDEST PUSH2 0xD7 PUSH1 0x4 DUP1 CALLDATASIZE SUB DUP2 ADD SWAP1 PUSH2 0xD2 SWAP2 SWAP1 PUSH2 0x776 JUMP JUMPDEST PUSH2 0x1F0 JUMP JUMPDEST PUSH1 0x40 MLOAD PUSH2 0xE4 SWAP2 SWAP1 PUSH2 0x72F JUMP JUMPDEST PUSH1 0x40 MLOAD DUP1 SWAP2 SUB SWAP1 RETURN JUMPDEST PUSH2 0xF5 PUSH2 0x2A3 JUMP JUMPDEST STOP JUMPDEST PUSH2 0xFF PUSH2 0x36F JUMP JUMPDEST PUSH1 0x40 MLOAD PUSH2 0x10D SWAP3 SWAP2 SWAP1 PUSH2 0x824 JUMP JUMPDEST PUSH1 0x40 MLOAD DUP1 SWAP2 SUB SWAP1 RETURN JUMPDEST PUSH2 0x11E PUSH2 0x3C9 JUMP JUMPDEST PUSH1 0x40 MLOAD PUSH2 0x12B SWAP2 SWAP1 PUSH2 0x72F JUMP JUMPDEST PUSH1 0x40 MLOAD DUP1 SWAP2 SUB SWAP1 RETURN JUMPDEST PUSH2 0x14E PUSH1 0x4 DUP1 CALLDATASIZE SUB DUP2 ADD SWAP1 PUSH2 0x149 SWAP2 SWAP1 PUSH2 0x859 JUMP JUMPDEST PUSH2 0x3CF JUMP JUMPDEST PUSH1 0x40 MLOAD PUSH2 0x15B SWAP2 SWAP1 PUSH2 0x884 JUMP JUMPDEST PUSH1 0x40 MLOAD DUP1 SWAP2 SUB SWAP1 RETURN JUMPDEST PUSH2 0x16C PUSH2 0x4ED JUMP JUMPDEST PUSH1 0x40 MLOAD PUSH2 0x179 SWAP2 SWAP1 PUSH2 0x72F JUMP JUMPDEST PUSH1 0x40 MLOAD DUP1 SWAP2 SUB SWAP1 RETURN JUMPDEST PUSH2 0x19C PUSH1 0x4 DUP1 CALLDATASIZE SUB DUP2 ADD SWAP1 PUSH2 0x197 SWAP2 SWAP1 PUSH2 0x776 JUMP JUMPDEST PUSH2 0x4F8 JUMP JUMPDEST STOP JUMPDEST PUSH2 0x1B8 PUSH1 0x4 DUP1 CALLDATASIZE SUB DUP2 ADD SWAP1 PUSH2 0x1B3 SWAP2 SWAP1 PUSH2 0x859 JUMP JUMPDEST PUSH2 0x670 JUMP JUMPDEST STOP JUMPDEST PUSH2 0x1D4 PUSH1 0x4 DUP1 CALLDATASIZE SUB DUP2 ADD SWAP1 PUSH2 0x1CF SWAP2 SWAP1 PUSH2 0x859 JUMP JUMPDEST PUSH2 0x6F8 JUMP JUMPDEST PUSH1 0x40 MLOAD PUSH2 0x1E1 SWAP2 SWAP1 PUSH2 0x72F JUMP JUMPDEST PUSH1 0x40 MLOAD DUP1 SWAP2 SUB SWAP1 RETURN JUMPDEST PUSH1 0x1 SLOAD DUP2 JUMP JUMPDEST PUSH0 PUSH1 0x64 DUP3 GT ISZERO PUSH2 0x235 JUMPI PUSH1 0x40 MLOAD PUSH32 0x8C379A000000000000000000000000000000000000000000000000000000000 DUP2 MSTORE PUSH1 0x4 ADD PUSH2 0x22C SWAP1 PUSH2 0x8EE JUMP JUMPDEST PUSH1 0x40 MLOAD DUP1 SWAP2 SUB SWAP1 REVERT JUMPDEST PUSH0 DUP3 DUP5 PUSH2 0x242 SWAP2 SWAP1 PUSH2 0x939 JUMP JUMPDEST SWAP1 POP PUSH0 DUP1 SLOAD SWAP1 POP DUP2 GT ISZERO PUSH2 0x258 JUMPI PUSH0 DUP1 SLOAD SWAP1 POP SWAP1 POP JUMPDEST PUSH0 DUP5 SWAP1 POP JUMPDEST DUP2 DUP2 LT ISZERO PUSH2 0x29B JUMPI PUSH0 DUP2 DUP2 SLOAD DUP2 LT PUSH2 0x278 JUMPI PUSH2 0x277 PUSH2 0x96C JUMP JUMPDEST JUMPDEST SWAP1 PUSH0 MSTORE PUSH1 0x20 PUSH0 KECCAK256 ADD SLOAD DUP4 PUSH2 0x28C SWAP2 SWAP1 PUSH2 0x939 JUMP JUMPDEST SWAP3 POP DUP1 DUP1 PUSH1 0x1 ADD SWAP2 POP POP PUSH2 0x25D JUMP JUMPDEST POP POP SWAP3 SWAP2 POP POP JUMP JUMPDEST PUSH0 GAS SWAP1 POP PUSH0 PUSH0 SWAP1 POP PUSH0 PUSH0 SWAP1 POP JUMPDEST PUSH0 DUP1 SLOAD SWAP1 POP DUP2 LT ISZERO PUSH2 0x312 JUMPI PUSH0 DUP2 DUP2 SLOAD DUP2 LT PUSH2 0x2CF JUMPI PUSH2 0x2CE PUSH2 0x96C JUMP JUMPDEST JUMPDEST SWAP1 PUSH0 MSTORE PUSH1 0x20 PUSH0 KECCAK256 ADD SLOAD DUP3 PUSH2 0x2E3 SWAP2 SWAP1 PUSH2 0x939 JUMP JUMPDEST SWAP2 POP DUP2 PUSH0 DUP3 DUP2 SLOAD DUP2 LT PUSH2 0x2F9 JUMPI PUSH2 0x2F8 PUSH2 0x96C JUMP JUMPDEST JUMPDEST SWAP1 PUSH0 MSTORE PUSH1 0x20 PUSH0 KECCAK256 ADD DUP2 SWAP1 SSTORE POP DUP1 DUP1 PUSH1 0x1 ADD SWAP2 POP POP PUSH2 0x2B0 JUMP JUMPDEST POP DUP1 PUSH1 0x1 DUP2 SWAP1 SSTORE POP GAS DUP3 PUSH2 0x326 SWAP2 SWAP1 PUSH2 0x999 JUMP JUMPDEST PUSH1 0x2 DUP2 SWAP1 SSTORE POP PUSH32 0x941393981297ED81E4A9780200ED4BEE006292B05BC84877F285540CF574D96C PUSH1 0x2 SLOAD PUSH0 DUP1 SLOAD SWAP1 POP PUSH1 0x40 MLOAD PUSH2 0x363 SWAP3 SWAP2 SWAP1 PUSH2 0x9CC JUMP JUMPDEST PUSH1 0x40 MLOAD DUP1 SWAP2 SUB SWAP1 LOG1 POP POP JUMP JUMPDEST PUSH1 0x60 DUP1 PUSH1 0x40 MLOAD DUP1 PUSH1 0x60 ADD PUSH1 0x40 MSTORE DUP1 PUSH1 0x23 DUP2 MSTORE PUSH1 0x20 ADD PUSH2 0xAF9 PUSH1 0x23 SWAP2 CODECOPY SWAP2 POP PUSH1 0x40 MLOAD DUP1 PUSH1 0x40 ADD PUSH1 0x40 MSTORE DUP1 PUSH1 0x1C DUP2 MSTORE PUSH1 0x20 ADD PUSH32 0x55736573206368756E6B696E6720746F2070726576656E74204F4F4700000000 DUP2 MSTORE POP SWAP2 POP SWAP1 SWAP2 JUMP JUMPDEST PUSH1 0x2 SLOAD DUP2 JUMP JUMPDEST PUSH1 0x60 PUSH1 0x64 DUP3 GT PUSH2 0x4E7 JUMPI PUSH1 0x64 DUP3 GT PUSH2 0x41E JUMPI PUSH1 0x40 MLOAD DUP1 PUSH1 0x40 ADD PUSH1 0x40 MSTORE DUP1 PUSH1 0xD DUP2 MSTORE PUSH1 0x20 ADD PUSH32 0x6C6F772067617320757361676500000000000000000000000000000000000000 DUP2 MSTORE POP SWAP1 POP PUSH2 0x4E8 JUMP JUMPDEST PUSH2 0x3E8 DUP3 GT PUSH2 0x464 JUMPI PUSH1 0x40 MLOAD DUP1 PUSH1 0x40 ADD PUSH1 0x40 MSTORE DUP1 PUSH1 0x10 DUP2 MSTORE PUSH1 0x20 ADD PUSH32 0x4D656469756D2067617320757361676500000000000000000000000000000000 DUP2 MSTORE POP SWAP1 POP PUSH2 0x4E8 JUMP JUMPDEST PUSH2 0x1388 DUP3 GT PUSH2 0x4AA JUMPI PUSH1 0x40 MLOAD DUP1 PUSH1 0x40 ADD PUSH1 0x40 MSTORE DUP1 PUSH1 0xE DUP2 MSTORE PUSH1 0x20 ADD PUSH32 0x4869676820676173207573616765000000000000000000000000000000000000 DUP2 MSTORE POP SWAP1 POP PUSH2 0x4E8 JUMP JUMPDEST PUSH1 0x40 MLOAD DUP1 PUSH1 0x40 ADD PUSH1 0x40 MSTORE DUP1 PUSH1 0x10 DUP2 MSTORE PUSH1 0x20 ADD PUSH32 0x45787472656D6520676173207269736B00000000000000000000000000000000 DUP2 MSTORE POP SWAP1 POP PUSH2 0x4E8 JUMP JUMPDEST JUMPDEST SWAP2 SWAP1 POP JUMP JUMPDEST PUSH0 PUSH0 DUP1 SLOAD SWAP1 POP SWAP1 POP SWAP1 JUMP JUMPDEST PUSH1 0x64 DUP2 GT ISZERO PUSH2 0x53C JUMPI PUSH1 0x40 MLOAD PUSH32 0x8C379A000000000000000000000000000000000000000000000000000000000 DUP2 MSTORE PUSH1 0x4 ADD PUSH2 0x533 SWAP1 PUSH2 0x8EE JUMP JUMPDEST PUSH1 0x40 MLOAD DUP1 SWAP2 SUB SWAP1 REVERT JUMPDEST PUSH0 DUP1 SLOAD SWAP1 POP DUP3 LT PUSH2 0x582 JUMPI PUSH1 0x40 MLOAD PUSH32 0x8C379A000000000000000000000000000000000000000000000000000000000 DUP2 MSTORE PUSH1 0x4 ADD PUSH2 0x579 SWAP1 PUSH2 0xA3D JUMP JUMPDEST PUSH1 0x40 MLOAD DUP1 SWAP2 SUB SWAP1 REVERT JUMPDEST PUSH0 GAS SWAP1 POP PUSH0 DUP3 DUP5 PUSH2 0x593 SWAP2 SWAP1 PUSH2 0x939 JUMP JUMPDEST SWAP1 POP PUSH0 DUP1 SLOAD SWAP1 POP DUP2 GT ISZERO PUSH2 0x5A9 JUMPI PUSH0 DUP1 SLOAD SWAP1 POP SWAP1 POP JUMPDEST PUSH0 PUSH1 0x1 SLOAD SWAP1 POP PUSH0 DUP6 SWAP1 POP JUMPDEST DUP3 DUP2 LT ISZERO PUSH2 0x612 JUMPI PUSH0 DUP2 DUP2 SLOAD DUP2 LT PUSH2 0x5CF JUMPI PUSH2 0x5CE PUSH2 0x96C JUMP JUMPDEST JUMPDEST SWAP1 PUSH0 MSTORE PUSH1 0x20 PUSH0 KECCAK256 ADD SLOAD DUP3 PUSH2 0x5E3 SWAP2 SWAP1 PUSH2 0x939 JUMP JUMPDEST SWAP2 POP DUP2 PUSH0 DUP3 DUP2 SLOAD DUP2 LT PUSH2 0x5F9 JUMPI PUSH2 0x5F8 PUSH2 0x96C JUMP JUMPDEST JUMPDEST SWAP1 PUSH0 MSTORE PUSH1 0x20 PUSH0 KECCAK256 ADD DUP2 SWAP1 SSTORE POP DUP1 DUP1 PUSH1 0x1 ADD SWAP2 POP POP PUSH2 0x5B4 JUMP JUMPDEST POP DUP1 PUSH1 0x1 DUP2 SWAP1 SSTORE POP GAS DUP4 PUSH2 0x626 SWAP2 SWAP1 PUSH2 0x999 JUMP JUMPDEST PUSH1 0x2 DUP2 SWAP1 SSTORE POP PUSH32 0x625D72AEBB3969A6C371D82D0FCAAF32DDBDFDA8FAE6CBC0402EC251B54D3462 DUP6 DUP4 PUSH1 0x2 SLOAD PUSH1 0x40 MLOAD PUSH2 0x661 SWAP4 SWAP3 SWAP2 SWAP1 PUSH2 0xA5B JUMP JUMPDEST PUSH1 0x40 MLOAD DUP1 SWAP2 SUB SWAP1 LOG1 POP POP POP POP POP JUMP JUMPDEST PUSH2 0x3E8 DUP2 GT ISZERO PUSH2 0x6B5 JUMPI PUSH1 0x40 MLOAD PUSH32 0x8C379A000000000000000000000000000000000000000000000000000000000 DUP2 MSTORE PUSH1 0x4 ADD PUSH2 0x6AC SWAP1 PUSH2 0xADA JUMP JUMPDEST PUSH1 0x40 MLOAD DUP1 SWAP2 SUB SWAP1 REVERT JUMPDEST PUSH0 PUSH0 SWAP1 POP JUMPDEST DUP2 DUP2 LT ISZERO PUSH2 0x6F4 JUMPI PUSH0 DUP2 SWAP1 DUP1 PUSH1 0x1 DUP2 SLOAD ADD DUP1 DUP3 SSTORE DUP1 SWAP2 POP POP PUSH1 0x1 SWAP1 SUB SWAP1 PUSH0 MSTORE PUSH1 0x20 PUSH0 KECCAK256 ADD PUSH0 SWAP1 SWAP2 SWAP1 SWAP2 SWAP1 SWAP2 POP SSTORE DUP1 DUP1 PUSH1 0x1 ADD SWAP2 POP POP PUSH2 0x6BA JUMP JUMPDEST POP POP JUMP JUMPDEST PUSH0 DUP2 DUP2 SLOAD DUP2 LT PUSH2 0x706 JUMPI PUSH0 DUP1 REVERT JUMPDEST SWAP1 PUSH0 MSTORE PUSH1 0x20 PUSH0 KECCAK256 ADD PUSH0 SWAP2 POP SWAP1 POP SLOAD DUP2 JUMP JUMPDEST PUSH0 DUP2 SWAP1 POP SWAP2 SWAP1 POP JUMP JUMPDEST PUSH2 0x729 DUP2 PUSH2 0x717 JUMP JUMPDEST DUP3 MSTORE POP POP JUMP JUMPDEST PUSH0 PUSH1 0x20 DUP3 ADD SWAP1 POP PUSH2 0x742 PUSH0 DUP4 ADD DUP5 PUSH2 0x720 JUMP JUMPDEST SWAP3 SWAP2 POP POP JUMP JUMPDEST PUSH0 PUSH0 REVERT JUMPDEST PUSH2 0x755 DUP2 PUSH2 0x717 JUMP JUMPDEST DUP2 EQ PUSH2 0x75F JUMPI PUSH0 PUSH0 REVERT JUMPDEST POP JUMP JUMPDEST PUSH0 DUP2 CALLDATALOAD SWAP1 POP PUSH2 0x770 DUP2 PUSH2 0x74C JUMP JUMPDEST SWAP3 SWAP2 POP POP JUMP JUMPDEST PUSH0 PUSH0 PUSH1 0x40 DUP4 DUP6 SUB SLT ISZERO PUSH2 0x78C JUMPI PUSH2 0x78B PUSH2 0x748 JUMP JUMPDEST JUMPDEST PUSH0 PUSH2 0x799 DUP6 DUP3 DUP7 ADD PUSH2 0x762 JUMP JUMPDEST SWAP3 POP POP PUSH1 0x20 PUSH2 0x7AA DUP6 DUP3 DUP7 ADD PUSH2 0x762 JUMP JUMPDEST SWAP2 POP POP SWAP3 POP SWAP3 SWAP1 POP JUMP JUMPDEST PUSH0 DUP2 MLOAD SWAP1 POP SWAP2 SWAP1 POP JUMP JUMPDEST PUSH0 DUP3 DUP3 MSTORE PUSH1 0x20 DUP3 ADD SWAP1 POP SWAP3 SWAP2 POP POP JUMP JUMPDEST DUP3 DUP2 DUP4 MCOPY PUSH0 DUP4 DUP4 ADD MSTORE POP POP POP JUMP JUMPDEST PUSH0 PUSH1 0x1F NOT PUSH1 0x1F DUP4 ADD AND SWAP1 POP SWAP2 SWAP1 POP JUMP JUMPDEST PUSH0 PUSH2 0x7F6 DUP3 PUSH2 0x7B4 JUMP JUMPDEST PUSH2 0x800 DUP2 DUP6 PUSH2 0x7BE JUMP JUMPDEST SWAP4 POP PUSH2 0x810 DUP2 DUP6 PUSH1 0x20 DUP7 ADD PUSH2 0x7CE JUMP JUMPDEST PUSH2 0x819 DUP2 PUSH2 0x7DC JUMP JUMPDEST DUP5 ADD SWAP2 POP POP SWAP3 SWAP2 POP POP JUMP JUMPDEST PUSH0 PUSH1 0x40 DUP3 ADD SWAP1 POP DUP2 DUP2 SUB PUSH0 DUP4 ADD MSTORE PUSH2 0x83C DUP2 DUP6 PUSH2 0x7EC JUMP JUMPDEST SWAP1 POP DUP2 DUP2 SUB PUSH1 0x20 DUP4 ADD MSTORE PUSH2 0x850 DUP2 DUP5 PUSH2 0x7EC JUMP JUMPDEST SWAP1 POP SWAP4 SWAP3 POP POP POP JUMP JUMPDEST PUSH0 PUSH1 0x20 DUP3 DUP5 SUB SLT ISZERO PUSH2 0x86E JUMPI PUSH2 0x86D PUSH2 0x748 JUMP JUMPDEST JUMPDEST PUSH0 PUSH2 0x87B DUP5 DUP3 DUP6 ADD PUSH2 0x762 JUMP JUMPDEST SWAP2 POP POP SWAP3 SWAP2 POP POP JUMP JUMPDEST PUSH0 PUSH1 0x20 DUP3 ADD SWAP1 POP DUP2 DUP2 SUB PUSH0 DUP4 ADD MSTORE PUSH2 0x89C DUP2 DUP5 PUSH2 0x7EC JUMP JUMPDEST SWAP1 POP SWAP3 SWAP2 POP POP JUMP JUMPDEST PUSH32 0x426174636820746F6F206C617267650000000000000000000000000000000000 PUSH0 DUP3 ADD MSTORE POP JUMP JUMPDEST PUSH0 PUSH2 0x8D8 PUSH1 0xF DUP4 PUSH2 0x7BE JUMP JUMPDEST SWAP2 POP PUSH2 0x8E3 DUP3 PUSH2 0x8A4 JUMP JUMPDEST PUSH1 0x20 DUP3 ADD SWAP1 POP SWAP2 SWAP1 POP JUMP JUMPDEST PUSH0 PUSH1 0x20 DUP3 ADD SWAP1 POP DUP2 DUP2 SUB PUSH0 DUP4 ADD MSTORE PUSH2 0x905 DUP2 PUSH2 0x8CC JUMP JUMPDEST SWAP1 POP SWAP2 SWAP1 POP JUMP JUMPDEST PUSH32 0x4E487B7100000000000000000000000000000000000000000000000000000000 PUSH0 MSTORE PUSH1 0x11 PUSH1 0x4 MSTORE PUSH1 0x24 PUSH0 REVERT JUMPDEST PUSH0 PUSH2 0x943 DUP3 PUSH2 0x717 JUMP JUMPDEST SWAP2 POP PUSH2 0x94E DUP4 PUSH2 0x717 JUMP JUMPDEST SWAP3 POP DUP3 DUP3 ADD SWAP1 POP DUP1 DUP3 GT ISZERO PUSH2 0x966 JUMPI PUSH2 0x965 PUSH2 0x90C JUMP JUMPDEST JUMPDEST SWAP3 SWAP2 POP POP JUMP JUMPDEST PUSH32 0x4E487B7100000000000000000000000000000000000000000000000000000000 PUSH0 MSTORE PUSH1 0x32 PUSH1 0x4 MSTORE PUSH1 0x24 PUSH0 REVERT JUMPDEST PUSH0 PUSH2 0x9A3 DUP3 PUSH2 0x717 JUMP JUMPDEST SWAP2 POP PUSH2 0x9AE DUP4 PUSH2 0x717 JUMP JUMPDEST SWAP3 POP DUP3 DUP3 SUB SWAP1 POP DUP2 DUP2 GT ISZERO PUSH2 0x9C6 JUMPI PUSH2 0x9C5 PUSH2 0x90C JUMP JUMPDEST JUMPDEST SWAP3 SWAP2 POP POP JUMP JUMPDEST PUSH0 PUSH1 0x40 DUP3 ADD SWAP1 POP PUSH2 0x9DF PUSH0 DUP4 ADD DUP6 PUSH2 0x720 JUMP JUMPDEST PUSH2 0x9EC PUSH1 0x20 DUP4 ADD DUP5 PUSH2 0x720 JUMP JUMPDEST SWAP4 SWAP3 POP POP POP JUMP JUMPDEST PUSH32 0x496E76616C696420737461727400000000000000000000000000000000000000 PUSH0 DUP3 ADD MSTORE POP JUMP JUMPDEST PUSH0 PUSH2 0xA27 PUSH1 0xD DUP4 PUSH2 0x7BE JUMP JUMPDEST SWAP2 POP PUSH2 0xA32 DUP3 PUSH2 0x9F3 JUMP JUMPDEST PUSH1 0x20 DUP3 ADD SWAP1 POP SWAP2 SWAP1 POP JUMP JUMPDEST PUSH0 PUSH1 0x20 DUP3 ADD SWAP1 POP DUP2 DUP2 SUB PUSH0 DUP4 ADD MSTORE PUSH2 0xA54 DUP2 PUSH2 0xA1B JUMP JUMPDEST SWAP1 POP SWAP2 SWAP1 POP JUMP JUMPDEST PUSH0 PUSH1 0x60 DUP3 ADD SWAP1 POP PUSH2 0xA6E PUSH0 DUP4 ADD DUP7 PUSH2 0x720 JUMP JUMPDEST PUSH2 0xA7B PUSH1 0x20 DUP4 ADD DUP6 PUSH2 0x720 JUMP JUMPDEST PUSH2 0xA88 PUSH1 0x40 DUP4 ADD DUP5 PUSH2 0x720 JUMP JUMPDEST SWAP5 SWAP4 POP POP POP POP JUMP JUMPDEST PUSH32 0x546F6F206D616E792076616C7565730000000000000000000000000000000000 PUSH0 DUP3 ADD MSTORE POP JUMP JUMPDEST PUSH0 PUSH2 0xAC4 PUSH1 0xF DUP4 PUSH2 0x7BE JUMP JUMPDEST SWAP2 POP PUSH2 0xACF DUP3 PUSH2 0xA90 JUMP JUMPDEST PUSH1 0x20 DUP3 ADD SWAP1 POP SWAP2 SWAP1 POP JUMP JUMPDEST PUSH0 PUSH1 0x20 DUP3 ADD SWAP1 POP DUP2 DUP2 SUB PUSH0 DUP4 ADD MSTORE PUSH2 0xAF1 DUP2 PUSH2 0xAB8 JUMP JUMPDEST SWAP1 POP SWAP2 SWAP1 POP JUMP INVALID PUSH13 0x6F6F707320656E746972206172 PUSH19 0x617920616E64206D6179206361757365204F4F SELFBALANCE LOG2 PUSH5 0x6970667358 0x22 SLT KECCAK256 XOR SWAP10 0xFC EXP PUSH32 0xB8D17A3970818CBAECC8E11C2600DBE68BED73830FDE996DDAA46464736F6C63 NUMBER STOP ADDMOD 0x22 STOP CALLER "
				},
				"gasEstimates": {
					"creation": {
						"codeDepositCost": "579400",
						"executionCost": "611",
						"totalCost": "580011"
					},
					"external": {
						"addMany(uint256)": "infinite",
						"compareLoops()": "infinite",
						"dangerousLoop()": "infinite",
						"data(uint256)": "infinite",
						"estimateGasCost(uint256)": "infinite",
						"getLength()": "2461",
						"lastGasUsed()": "2514",
						"lastSum()": "2426",
						"safeChunkProcess(uint256,uint256)": "infinite",
						"safeReadOnlyProcess(uint256,uint256)": "infinite"
					}
				},
				"methodIdentifiers": {
					"addMany(uint256)": "d4d5e8d5",
					"compareLoops()": "86738b3a",
					"dangerousLoop()": "62a5f171",
					"data(uint256)": "f0ba8440",
					"estimateGasCost(uint256)": "bd4725a6",
					"getLength()": "be1c766b",
					"lastGasUsed()": "95c570bd",
					"lastSum()": "000d02cd",
					"safeChunkProcess(uint256,uint256)": "c458a801",
					"safeReadOnlyProcess(uint256,uint256)": "614b9109"
				}
			},
			"storageLayout": {
				"storage": [
					{
						"astId": 109,
						"contract": "val71.sol:OutOfGasDemo",
						"label": "data",
						"offset": 0,
						"slot": "0",
						"type": "t_array(t_uint256)dyn_storage"
					},
					{
						"astId": 111,
						"contract": "val71.sol:OutOfGasDemo",
						"label": "lastSum",
						"offset": 0,
						"slot": "1",
						"type": "t_uint256"
					},
					{
						"astId": 113,
						"contract": "val71.sol:OutOfGasDemo",
						"label": "lastGasUsed",
						"offset": 0,
						"slot": "2",
						"type": "t_uint256"
					}
				],
				"types": {
					"t_array(t_uint256)dyn_storage": {
						"base": "t_uint256",
						"encoding": "dynamic_array",
						"label": "uint256[]",
						"numberOfBytes": "32"
					},
					"t_uint256": {
						"encoding": "inplace",
						"label": "uint256",
						"numberOfBytes": "32"
					}
				}
			},
			"userdoc": {
				"kind": "user",
				"methods": {},
				"version": 1
			}
		}
	}
}