{
	"val60.sol": {
		"DangerousUncheckedCallval": {
			"abi": [
				{
					"inputs": [
						{
							"internalType": "address",
							"name": "",
							"type": "address"
						}
					],
					"name": "balances",
					"outputs": [
						{
							"internalType": "uint256",
							"name": "",
							"type": "uint256"
						}
					],
					"stateMutability": "view",
					"type": "function"
				},
				{
					"inputs": [],
					"name": "contractBalance",
					"outputs": [
						{
							"internalType": "uint256",
							"name": "",
							"type": "uint256"
						}
					],
					"stateMutability": "view",
					"type": "function"
				},
				{
					"inputs": [
						{
							"internalType": "address payable",
							"name": "_receiver",
							"type": "address"
						},
						{
							"internalType": "uint256",
							"name": "_amount",
							"type": "uint256"
						}
					],
					"name": "dangerousWithdraw",
					"outputs": [],
					"stateMutability": "nonpayable",
					"type": "function"
				},
				{
					"inputs": [],
					"name": "deposit",
					"outputs": [],
					"stateMutability": "payable",
					"type": "function"
				},
				{
					"inputs": [
						{
							"internalType": "address payable",
							"name": "_receiver",
							"type": "address"
						},
						{
							"internalType": "uint256",
							"name": "_amount",
							"type": "uint256"
						}
					],
					"name": "safeWithdraw",
					"outputs": [],
					"stateMutability": "nonpayable",
					"type": "function"
				},
				{
					"inputs": [
						{
							"internalType": "address",
							"name": "",
							"type": "address"
						}
					],
					"name": "withdrawn",
					"outputs": [
						{
							"internalType": "bool",
							"name": "",
							"type": "bool"
						}
					],
					"stateMutability": "view",
					"type": "function"
				}
			],
			"devdoc": {
				"kind": "dev",
				"methods": {},
				"version": 1
			},
			"evm": {
				"assembly": "    /* \"val60.sol\":3275:6067  contract DangerousUncheckedCallval {... */\n  mstore(0x40, 0x80)\n  callvalue\n  dup1\n  iszero\n  tag_1\n  jumpi\n  revert(0x00, 0x00)\ntag_1:\n  pop\n  dataSize(sub_0)\n  dup1\n  dataOffset(sub_0)\n  0x00\n  codecopy\n  0x00\n  return\nstop\n\nsub_0: assembly {\n        /* \"val60.sol\":3275:6067  contract DangerousUncheckedCallval {... */\n      mstore(0x40, 0x80)\n      jumpi(tag_1, lt(calldatasize, 0x04))\n      shr(0xe0, calldataload(0x00))\n      dup1\n      0x27e235e3\n      eq\n      tag_2\n      jumpi\n      dup1\n      0x5058c460\n      eq\n      tag_3\n      jumpi\n      dup1\n      0x6ef61092\n      eq\n      tag_4\n      jumpi\n      dup1\n      0x8b7afe2e\n      eq\n      tag_5\n      jumpi\n      dup1\n      0xd0e30db0\n      eq\n      tag_6\n      jumpi\n      dup1\n      0xf9087315\n      eq\n      tag_7\n      jumpi\n    tag_1:\n      revert(0x00, 0x00)\n        /* \"val60.sol\":3358:3401  mapping(address => uint256) public balances */\n    tag_2:\n      callvalue\n      dup1\n      iszero\n      tag_8\n      jumpi\n      revert(0x00, 0x00)\n    tag_8:\n      pop\n      tag_9\n      0x04\n      dup1\n      calldatasize\n      sub\n      dup2\n      add\n      swap1\n      tag_10\n      swap2\n      swap1\n      tag_11\n      jump\t// in\n    tag_10:\n      tag_12\n      jump\t// in\n    tag_9:\n      mload(0x40)\n      tag_13\n      swap2\n      swap1\n      tag_14\n      jump\t// in\n    tag_13:\n      mload(0x40)\n      dup1\n      swap2\n      sub\n      swap1\n      return\n        /* \"val60.sol\":5039:5752  function safeWithdraw(... */\n    tag_3:\n      callvalue\n      dup1\n      iszero\n      tag_15\n      jumpi\n      revert(0x00, 0x00)\n    tag_15:\n      pop\n      tag_16\n      0x04\n      dup1\n      calldatasize\n      sub\n      dup2\n      add\n      swap1\n      tag_17\n      swap2\n      swap1\n      tag_18\n      jump\t// in\n    tag_17:\n      tag_19\n      jump\t// in\n    tag_16:\n      stop\n        /* \"val60.sol\":3453:3494  mapping(address => bool) public withdrawn */\n    tag_4:\n      callvalue\n      dup1\n      iszero\n      tag_20\n      jumpi\n      revert(0x00, 0x00)\n    tag_20:\n      pop\n      tag_21\n      0x04\n      dup1\n      calldatasize\n      sub\n      dup2\n      add\n      swap1\n      tag_22\n      swap2\n      swap1\n      tag_11\n      jump\t// in\n    tag_22:\n      tag_23\n      jump\t// in\n    tag_21:\n      mload(0x40)\n      tag_24\n      swap2\n      swap1\n      tag_25\n      jump\t// in\n    tag_24:\n      mload(0x40)\n      dup1\n      swap2\n      sub\n      swap1\n      return\n        /* \"val60.sol\":5924:6064  function contractBalance()... */\n    tag_5:\n      callvalue\n      dup1\n      iszero\n      tag_26\n      jumpi\n      revert(0x00, 0x00)\n    tag_26:\n      pop\n      tag_27\n      tag_28\n      jump\t// in\n    tag_27:\n      mload(0x40)\n      tag_29\n      swap2\n      swap1\n      tag_14\n      jump\t// in\n    tag_29:\n      mload(0x40)\n      dup1\n      swap2\n      sub\n      swap1\n      return\n        /* \"val60.sol\":3656:3769  function deposit()... */\n    tag_6:\n      tag_30\n      tag_31\n      jump\t// in\n    tag_30:\n      stop\n        /* \"val60.sol\":3983:4877  function dangerousWithdraw(... */\n    tag_7:\n      callvalue\n      dup1\n      iszero\n      tag_32\n      jumpi\n      revert(0x00, 0x00)\n    tag_32:\n      pop\n      tag_33\n      0x04\n      dup1\n      calldatasize\n      sub\n      dup2\n      add\n      swap1\n      tag_34\n      swap2\n      swap1\n      tag_18\n      jump\t// in\n    tag_34:\n      tag_35\n      jump\t// in\n    tag_33:\n      stop\n        /* \"val60.sol\":3358:3401  mapping(address => uint256) public balances */\n    tag_12:\n      mstore(0x20, 0x00)\n      dup1\n      0x00\n      mstore\n      keccak256(0x00, 0x40)\n      0x00\n      swap2\n      pop\n      swap1\n      pop\n      sload\n      dup2\n      jump\t// out\n        /* \"val60.sol\":5039:5752  function safeWithdraw(... */\n    tag_19:\n        /* \"val60.sol\":5267:5274  _amount */\n      dup1\n        /* \"val60.sol\":5243:5251  balances */\n      0x00\n        /* \"val60.sol\":5243:5263  balances[msg.sender] */\n      0x00\n        /* \"val60.sol\":5252:5262  msg.sender */\n      caller\n        /* \"val60.sol\":5243:5263  balances[msg.sender] */\n      0xffffffffffffffffffffffffffffffffffffffff\n      and\n      0xffffffffffffffffffffffffffffffffffffffff\n      and\n      dup2\n      mstore\n      0x20\n      add\n      swap1\n      dup2\n      mstore\n      0x20\n      add\n      0x00\n      keccak256\n      sload\n        /* \"val60.sol\":5243:5274  balances[msg.sender] >= _amount */\n      lt\n      iszero\n        /* \"val60.sol\":5221:5322  require(... */\n      tag_37\n      jumpi\n      mload(0x40)\n      0x08c379a000000000000000000000000000000000000000000000000000000000\n      dup2\n      mstore\n      0x04\n      add\n      tag_38\n      swap1\n      tag_39\n      jump\t// in\n    tag_38:\n      mload(0x40)\n      dup1\n      swap2\n      sub\n      swap1\n      revert\n    tag_37:\n        /* \"val60.sol\":5412:5419  _amount */\n      dup1\n        /* \"val60.sol\":5388:5396  balances */\n      0x00\n        /* \"val60.sol\":5388:5408  balances[msg.sender] */\n      0x00\n        /* \"val60.sol\":5397:5407  msg.sender */\n      caller\n        /* \"val60.sol\":5388:5408  balances[msg.sender] */\n      0xffffffffffffffffffffffffffffffffffffffff\n      and\n      0xffffffffffffffffffffffffffffffffffffffff\n      and\n      dup2\n      mstore\n      0x20\n      add\n      swap1\n      dup2\n      mstore\n      0x20\n      add\n      0x00\n      keccak256\n      0x00\n        /* \"val60.sol\":5388:5419  balances[msg.sender] -= _amount */\n      dup3\n      dup3\n      sload\n      tag_40\n      swap2\n      swap1\n      tag_41\n      jump\t// in\n    tag_40:\n      swap3\n      pop\n      pop\n      dup2\n      swap1\n      sstore\n      pop\n        /* \"val60.sol\":5494:5506  bool success */\n      0x00\n        /* \"val60.sol\":5525:5534  _receiver */\n      dup3\n        /* \"val60.sol\":5525:5539  _receiver.call */\n      0xffffffffffffffffffffffffffffffffffffffff\n      and\n        /* \"val60.sol\":5565:5572  _amount */\n      dup3\n        /* \"val60.sol\":5525:5591  _receiver.call{... */\n      mload(0x40)\n      tag_42\n      swap1\n      tag_43\n      jump\t// in\n    tag_42:\n      0x00\n      mload(0x40)\n      dup1\n      dup4\n      sub\n      dup2\n      dup6\n      dup8\n      gas\n      call\n      swap3\n      pop\n      pop\n      pop\n      returndatasize\n      dup1\n      0x00\n      dup2\n      eq\n      tag_46\n      jumpi\n      mload(0x40)\n      swap2\n      pop\n      and(add(returndatasize, 0x3f), not(0x1f))\n      dup3\n      add\n      0x40\n      mstore\n      returndatasize\n      dup3\n      mstore\n      returndatasize\n      0x00\n      0x20\n      dup5\n      add\n      returndatacopy\n      jump(tag_45)\n    tag_46:\n      0x60\n      swap2\n      pop\n    tag_45:\n      pop\n        /* \"val60.sol\":5493:5591  (bool success, ) =... */\n      pop\n      swap1\n      pop\n        /* \"val60.sol\":5690:5697  success */\n      dup1\n        /* \"val60.sol\":5668:5744  require(... */\n      tag_47\n      jumpi\n      mload(0x40)\n      0x08c379a000000000000000000000000000000000000000000000000000000000\n      dup2\n      mstore\n      0x04\n      add\n      tag_48\n      swap1\n      tag_49\n      jump\t// in\n    tag_48:\n      mload(0x40)\n      dup1\n      swap2\n      sub\n      swap1\n      revert\n    tag_47:\n        /* \"val60.sol\":5153:5752  {... */\n      pop\n        /* \"val60.sol\":5039:5752  function safeWithdraw(... */\n      pop\n      pop\n      jump\t// out\n        /* \"val60.sol\":3453:3494  mapping(address => bool) public withdrawn */\n    tag_23:\n      mstore(0x20, 0x01)\n      dup1\n      0x00\n      mstore\n      keccak256(0x00, 0x40)\n      0x00\n      swap2\n      pop\n      sload\n      swap1\n      0x0100\n      exp\n      swap1\n      div\n      0xff\n      and\n      dup2\n      jump\t// out\n        /* \"val60.sol\":5924:6064  function contractBalance()... */\n    tag_28:\n        /* \"val60.sol\":6001:6008  uint256 */\n      0x00\n        /* \"val60.sol\":6035:6056  address(this).balance */\n      selfbalance\n        /* \"val60.sol\":6028:6056  return address(this).balance */\n      swap1\n      pop\n        /* \"val60.sol\":5924:6064  function contractBalance()... */\n      swap1\n      jump\t// out\n        /* \"val60.sol\":3656:3769  function deposit()... */\n    tag_31:\n        /* \"val60.sol\":3752:3761  msg.value */\n      callvalue\n        /* \"val60.sol\":3728:3736  balances */\n      0x00\n        /* \"val60.sol\":3728:3748  balances[msg.sender] */\n      0x00\n        /* \"val60.sol\":3737:3747  msg.sender */\n      caller\n        /* \"val60.sol\":3728:3748  balances[msg.sender] */\n      0xffffffffffffffffffffffffffffffffffffffff\n      and\n      0xffffffffffffffffffffffffffffffffffffffff\n      and\n      dup2\n      mstore\n      0x20\n      add\n      swap1\n      dup2\n      mstore\n      0x20\n      add\n      0x00\n      keccak256\n      0x00\n        /* \"val60.sol\":3728:3761  balances[msg.sender] += msg.value */\n      dup3\n      dup3\n      sload\n      tag_52\n      swap2\n      swap1\n      tag_53\n      jump\t// in\n    tag_52:\n      swap3\n      pop\n      pop\n      dup2\n      swap1\n      sstore\n      pop\n        /* \"val60.sol\":3656:3769  function deposit()... */\n      jump\t// out\n        /* \"val60.sol\":3983:4877  function dangerousWithdraw(... */\n    tag_35:\n        /* \"val60.sol\":4216:4223  _amount */\n      dup1\n        /* \"val60.sol\":4192:4200  balances */\n      0x00\n        /* \"val60.sol\":4192:4212  balances[msg.sender] */\n      0x00\n        /* \"val60.sol\":4201:4211  msg.sender */\n      caller\n        /* \"val60.sol\":4192:4212  balances[msg.sender] */\n      0xffffffffffffffffffffffffffffffffffffffff\n      and\n      0xffffffffffffffffffffffffffffffffffffffff\n      and\n      dup2\n      mstore\n      0x20\n      add\n      swap1\n      dup2\n      mstore\n      0x20\n      add\n      0x00\n      keccak256\n      sload\n        /* \"val60.sol\":4192:4223  balances[msg.sender] >= _amount */\n      lt\n      iszero\n        /* \"val60.sol\":4170:4271  require(... */\n      tag_55\n      jumpi\n      mload(0x40)\n      0x08c379a000000000000000000000000000000000000000000000000000000000\n      dup2\n      mstore\n      0x04\n      add\n      tag_56\n      swap1\n      tag_39\n      jump\t// in\n    tag_56:\n      mload(0x40)\n      dup1\n      swap2\n      sub\n      swap1\n      revert\n    tag_55:\n        /* \"val60.sol\":4389:4396  _amount */\n      dup1\n        /* \"val60.sol\":4365:4373  balances */\n      0x00\n        /* \"val60.sol\":4365:4385  balances[msg.sender] */\n      0x00\n        /* \"val60.sol\":4374:4384  msg.sender */\n      caller\n        /* \"val60.sol\":4365:4385  balances[msg.sender] */\n      0xffffffffffffffffffffffffffffffffffffffff\n      and\n      0xffffffffffffffffffffffffffffffffffffffff\n      and\n      dup2\n      mstore\n      0x20\n      add\n      swap1\n      dup2\n      mstore\n      0x20\n      add\n      0x00\n      keccak256\n      0x00\n        /* \"val60.sol\":4365:4396  balances[msg.sender] -= _amount */\n      dup3\n      dup3\n      sload\n      tag_57\n      swap2\n      swap1\n      tag_41\n      jump\t// in\n    tag_57:\n      swap3\n      pop\n      pop\n      dup2\n      swap1\n      sstore\n      pop\n        /* \"val60.sol\":4433:4437  true */\n      0x01\n        /* \"val60.sol\":4409:4418  withdrawn */\n      dup1\n        /* \"val60.sol\":4409:4430  withdrawn[msg.sender] */\n      0x00\n        /* \"val60.sol\":4419:4429  msg.sender */\n      caller\n        /* \"val60.sol\":4409:4430  withdrawn[msg.sender] */\n      0xffffffffffffffffffffffffffffffffffffffff\n      and\n      0xffffffffffffffffffffffffffffffffffffffff\n      and\n      dup2\n      mstore\n      0x20\n      add\n      swap1\n      dup2\n      mstore\n      0x20\n      add\n      0x00\n      keccak256\n      0x00\n        /* \"val60.sol\":4409:4437  withdrawn[msg.sender] = true */\n      0x0100\n      exp\n      dup2\n      sload\n      dup2\n      0xff\n      mul\n      not\n      and\n      swap1\n      dup4\n      iszero\n      iszero\n      mul\n      or\n      swap1\n      sstore\n      pop\n        /* \"val60.sol\":4711:4720  _receiver */\n      dup2\n        /* \"val60.sol\":4711:4725  _receiver.call */\n      0xffffffffffffffffffffffffffffffffffffffff\n      and\n        /* \"val60.sol\":4747:4754  _amount */\n      dup2\n        /* \"val60.sol\":4711:4769  _receiver.call{... */\n      mload(0x40)\n      tag_58\n      swap1\n      tag_43\n      jump\t// in\n    tag_58:\n      0x00\n      mload(0x40)\n      dup1\n      dup4\n      sub\n      dup2\n      dup6\n      dup8\n      gas\n      call\n      swap3\n      pop\n      pop\n      pop\n      returndatasize\n      dup1\n      0x00\n      dup2\n      eq\n      tag_61\n      jumpi\n      mload(0x40)\n      swap2\n      pop\n      and(add(returndatasize, 0x3f), not(0x1f))\n      dup3\n      add\n      0x40\n      mstore\n      returndatasize\n      dup3\n      mstore\n      returndatasize\n      0x00\n      0x20\n      dup5\n      add\n      returndatacopy\n      jump(tag_60)\n    tag_61:\n      0x60\n      swap2\n      pop\n    tag_60:\n      pop\n      pop\n      pop\n        /* \"val60.sol\":3983:4877  function dangerousWithdraw(... */\n      pop\n      pop\n      jump\t// out\n        /* \"#utility.yul\":88:205   */\n    tag_63:\n        /* \"#utility.yul\":197:198   */\n      0x00\n        /* \"#utility.yul\":194:195   */\n      0x00\n        /* \"#utility.yul\":187:199   */\n      revert\n        /* \"#utility.yul\":334:460   */\n    tag_65:\n        /* \"#utility.yul\":371:378   */\n      0x00\n        /* \"#utility.yul\":411:453   */\n      0xffffffffffffffffffffffffffffffffffffffff\n        /* \"#utility.yul\":404:409   */\n      dup3\n        /* \"#utility.yul\":400:454   */\n      and\n        /* \"#utility.yul\":389:454   */\n      swap1\n      pop\n        /* \"#utility.yul\":334:460   */\n      swap2\n      swap1\n      pop\n      jump\t// out\n        /* \"#utility.yul\":466:562   */\n    tag_66:\n        /* \"#utility.yul\":503:510   */\n      0x00\n        /* \"#utility.yul\":532:556   */\n      tag_93\n        /* \"#utility.yul\":550:555   */\n      dup3\n        /* \"#utility.yul\":532:556   */\n      tag_65\n      jump\t// in\n    tag_93:\n        /* \"#utility.yul\":521:556   */\n      swap1\n      pop\n        /* \"#utility.yul\":466:562   */\n      swap2\n      swap1\n      pop\n      jump\t// out\n        /* \"#utility.yul\":568:690   */\n    tag_67:\n        /* \"#utility.yul\":641:665   */\n      tag_95\n        /* \"#utility.yul\":659:664   */\n      dup2\n        /* \"#utility.yul\":641:665   */\n      tag_66\n      jump\t// in\n    tag_95:\n        /* \"#utility.yul\":634:639   */\n      dup2\n        /* \"#utility.yul\":631:666   */\n      eq\n        /* \"#utility.yul\":621:684   */\n      tag_96\n      jumpi\n        /* \"#utility.yul\":680:681   */\n      0x00\n        /* \"#utility.yul\":677:678   */\n      0x00\n        /* \"#utility.yul\":670:682   */\n      revert\n        /* \"#utility.yul\":621:684   */\n    tag_96:\n        /* \"#utility.yul\":568:690   */\n      pop\n      jump\t// out\n        /* \"#utility.yul\":696:835   */\n    tag_68:\n        /* \"#utility.yul\":742:747   */\n      0x00\n        /* \"#utility.yul\":780:786   */\n      dup2\n        /* \"#utility.yul\":767:787   */\n      calldataload\n        /* \"#utility.yul\":758:787   */\n      swap1\n      pop\n        /* \"#utility.yul\":796:829   */\n      tag_98\n        /* \"#utility.yul\":823:828   */\n      dup2\n        /* \"#utility.yul\":796:829   */\n      tag_67\n      jump\t// in\n    tag_98:\n        /* \"#utility.yul\":696:835   */\n      swap3\n      swap2\n      pop\n      pop\n      jump\t// out\n        /* \"#utility.yul\":841:1170   */\n    tag_11:\n        /* \"#utility.yul\":900:906   */\n      0x00\n        /* \"#utility.yul\":949:951   */\n      0x20\n        /* \"#utility.yul\":937:946   */\n      dup3\n        /* \"#utility.yul\":928:935   */\n      dup5\n        /* \"#utility.yul\":924:947   */\n      sub\n        /* \"#utility.yul\":920:952   */\n      slt\n        /* \"#utility.yul\":917:1036   */\n      iszero\n      tag_100\n      jumpi\n        /* \"#utility.yul\":955:1034   */\n      tag_101\n      tag_63\n      jump\t// in\n    tag_101:\n        /* \"#utility.yul\":917:1036   */\n    tag_100:\n        /* \"#utility.yul\":1075:1076   */\n      0x00\n        /* \"#utility.yul\":1100:1153   */\n      tag_102\n        /* \"#utility.yul\":1145:1152   */\n      dup5\n        /* \"#utility.yul\":1136:1142   */\n      dup3\n        /* \"#utility.yul\":1125:1134   */\n      dup6\n        /* \"#utility.yul\":1121:1143   */\n      add\n        /* \"#utility.yul\":1100:1153   */\n      tag_68\n      jump\t// in\n    tag_102:\n        /* \"#utility.yul\":1090:1153   */\n      swap2\n      pop\n        /* \"#utility.yul\":1046:1163   */\n      pop\n        /* \"#utility.yul\":841:1170   */\n      swap3\n      swap2\n      pop\n      pop\n      jump\t// out\n        /* \"#utility.yul\":1176:1253   */\n    tag_69:\n        /* \"#utility.yul\":1213:1220   */\n      0x00\n        /* \"#utility.yul\":1242:1247   */\n      dup2\n        /* \"#utility.yul\":1231:1247   */\n      swap1\n      pop\n        /* \"#utility.yul\":1176:1253   */\n      swap2\n      swap1\n      pop\n      jump\t// out\n        /* \"#utility.yul\":1259:1377   */\n    tag_70:\n        /* \"#utility.yul\":1346:1370   */\n      tag_105\n        /* \"#utility.yul\":1364:1369   */\n      dup2\n        /* \"#utility.yul\":1346:1370   */\n      tag_69\n      jump\t// in\n    tag_105:\n        /* \"#utility.yul\":1341:1344   */\n      dup3\n        /* \"#utility.yul\":1334:1371   */\n      mstore\n        /* \"#utility.yul\":1259:1377   */\n      pop\n      pop\n      jump\t// out\n        /* \"#utility.yul\":1383:1605   */\n    tag_14:\n        /* \"#utility.yul\":1476:1480   */\n      0x00\n        /* \"#utility.yul\":1514:1516   */\n      0x20\n        /* \"#utility.yul\":1503:1512   */\n      dup3\n        /* \"#utility.yul\":1499:1517   */\n      add\n        /* \"#utility.yul\":1491:1517   */\n      swap1\n      pop\n        /* \"#utility.yul\":1527:1598   */\n      tag_107\n        /* \"#utility.yul\":1595:1596   */\n      0x00\n        /* \"#utility.yul\":1584:1593   */\n      dup4\n        /* \"#utility.yul\":1580:1597   */\n      add\n        /* \"#utility.yul\":1571:1577   */\n      dup5\n        /* \"#utility.yul\":1527:1598   */\n      tag_70\n      jump\t// in\n    tag_107:\n        /* \"#utility.yul\":1383:1605   */\n      swap3\n      swap2\n      pop\n      pop\n      jump\t// out\n        /* \"#utility.yul\":1611:1715   */\n    tag_71:\n        /* \"#utility.yul\":1656:1663   */\n      0x00\n        /* \"#utility.yul\":1685:1709   */\n      tag_109\n        /* \"#utility.yul\":1703:1708   */\n      dup3\n        /* \"#utility.yul\":1685:1709   */\n      tag_65\n      jump\t// in\n    tag_109:\n        /* \"#utility.yul\":1674:1709   */\n      swap1\n      pop\n        /* \"#utility.yul\":1611:1715   */\n      swap2\n      swap1\n      pop\n      jump\t// out\n        /* \"#utility.yul\":1721:1859   */\n    tag_72:\n        /* \"#utility.yul\":1802:1834   */\n      tag_111\n        /* \"#utility.yul\":1828:1833   */\n      dup2\n        /* \"#utility.yul\":1802:1834   */\n      tag_71\n      jump\t// in\n    tag_111:\n        /* \"#utility.yul\":1795:1800   */\n      dup2\n        /* \"#utility.yul\":1792:1835   */\n      eq\n        /* \"#utility.yul\":1782:1853   */\n      tag_112\n      jumpi\n        /* \"#utility.yul\":1849:1850   */\n      0x00\n        /* \"#utility.yul\":1846:1847   */\n      0x00\n        /* \"#utility.yul\":1839:1851   */\n      revert\n        /* \"#utility.yul\":1782:1853   */\n    tag_112:\n        /* \"#utility.yul\":1721:1859   */\n      pop\n      jump\t// out\n        /* \"#utility.yul\":1865:2020   */\n    tag_73:\n        /* \"#utility.yul\":1919:1924   */\n      0x00\n        /* \"#utility.yul\":1957:1963   */\n      dup2\n        /* \"#utility.yul\":1944:1964   */\n      calldataload\n        /* \"#utility.yul\":1935:1964   */\n      swap1\n      pop\n        /* \"#utility.yul\":1973:2014   */\n      tag_114\n        /* \"#utility.yul\":2008:2013   */\n      dup2\n        /* \"#utility.yul\":1973:2014   */\n      tag_72\n      jump\t// in\n    tag_114:\n        /* \"#utility.yul\":1865:2020   */\n      swap3\n      swap2\n      pop\n      pop\n      jump\t// out\n        /* \"#utility.yul\":2026:2148   */\n    tag_74:\n        /* \"#utility.yul\":2099:2123   */\n      tag_116\n        /* \"#utility.yul\":2117:2122   */\n      dup2\n        /* \"#utility.yul\":2099:2123   */\n      tag_69\n      jump\t// in\n    tag_116:\n        /* \"#utility.yul\":2092:2097   */\n      dup2\n        /* \"#utility.yul\":2089:2124   */\n      eq\n        /* \"#utility.yul\":2079:2142   */\n      tag_117\n      jumpi\n        /* \"#utility.yul\":2138:2139   */\n      0x00\n        /* \"#utility.yul\":2135:2136   */\n      0x00\n        /* \"#utility.yul\":2128:2140   */\n      revert\n        /* \"#utility.yul\":2079:2142   */\n    tag_117:\n        /* \"#utility.yul\":2026:2148   */\n      pop\n      jump\t// out\n        /* \"#utility.yul\":2154:2293   */\n    tag_75:\n        /* \"#utility.yul\":2200:2205   */\n      0x00\n        /* \"#utility.yul\":2238:2244   */\n      dup2\n        /* \"#utility.yul\":2225:2245   */\n      calldataload\n        /* \"#utility.yul\":2216:2245   */\n      swap1\n      pop\n        /* \"#utility.yul\":2254:2287   */\n      tag_119\n        /* \"#utility.yul\":2281:2286   */\n      dup2\n        /* \"#utility.yul\":2254:2287   */\n      tag_74\n      jump\t// in\n    tag_119:\n        /* \"#utility.yul\":2154:2293   */\n      swap3\n      swap2\n      pop\n      pop\n      jump\t// out\n        /* \"#utility.yul\":2299:2789   */\n    tag_18:\n        /* \"#utility.yul\":2375:2381   */\n      0x00\n        /* \"#utility.yul\":2383:2389   */\n      0x00\n        /* \"#utility.yul\":2432:2434   */\n      0x40\n        /* \"#utility.yul\":2420:2429   */\n      dup4\n        /* \"#utility.yul\":2411:2418   */\n      dup6\n        /* \"#utility.yul\":2407:2430   */\n      sub\n        /* \"#utility.yul\":2403:2435   */\n      slt\n        /* \"#utility.yul\":2400:2519   */\n      iszero\n      tag_121\n      jumpi\n        /* \"#utility.yul\":2438:2517   */\n      tag_122\n      tag_63\n      jump\t// in\n    tag_122:\n        /* \"#utility.yul\":2400:2519   */\n    tag_121:\n        /* \"#utility.yul\":2558:2559   */\n      0x00\n        /* \"#utility.yul\":2583:2644   */\n      tag_123\n        /* \"#utility.yul\":2636:2643   */\n      dup6\n        /* \"#utility.yul\":2627:2633   */\n      dup3\n        /* \"#utility.yul\":2616:2625   */\n      dup7\n        /* \"#utility.yul\":2612:2634   */\n      add\n        /* \"#utility.yul\":2583:2644   */\n      tag_73\n      jump\t// in\n    tag_123:\n        /* \"#utility.yul\":2573:2644   */\n      swap3\n      pop\n        /* \"#utility.yul\":2529:2654   */\n      pop\n        /* \"#utility.yul\":2693:2695   */\n      0x20\n        /* \"#utility.yul\":2719:2772   */\n      tag_124\n        /* \"#utility.yul\":2764:2771   */\n      dup6\n        /* \"#utility.yul\":2755:2761   */\n      dup3\n        /* \"#utility.yul\":2744:2753   */\n      dup7\n        /* \"#utility.yul\":2740:2762   */\n      add\n        /* \"#utility.yul\":2719:2772   */\n      tag_75\n      jump\t// in\n    tag_124:\n        /* \"#utility.yul\":2709:2772   */\n      swap2\n      pop\n        /* \"#utility.yul\":2664:2782   */\n      pop\n        /* \"#utility.yul\":2299:2789   */\n      swap3\n      pop\n      swap3\n      swap1\n      pop\n      jump\t// out\n        /* \"#utility.yul\":2795:2885   */\n    tag_76:\n        /* \"#utility.yul\":2829:2836   */\n      0x00\n        /* \"#utility.yul\":2872:2877   */\n      dup2\n        /* \"#utility.yul\":2865:2878   */\n      iszero\n        /* \"#utility.yul\":2858:2879   */\n      iszero\n        /* \"#utility.yul\":2847:2879   */\n      swap1\n      pop\n        /* \"#utility.yul\":2795:2885   */\n      swap2\n      swap1\n      pop\n      jump\t// out\n        /* \"#utility.yul\":2891:3000   */\n    tag_77:\n        /* \"#utility.yul\":2972:2993   */\n      tag_127\n        /* \"#utility.yul\":2987:2992   */\n      dup2\n        /* \"#utility.yul\":2972:2993   */\n      tag_76\n      jump\t// in\n    tag_127:\n        /* \"#utility.yul\":2967:2970   */\n      dup3\n        /* \"#utility.yul\":2960:2994   */\n      mstore\n        /* \"#utility.yul\":2891:3000   */\n      pop\n      pop\n      jump\t// out\n        /* \"#utility.yul\":3006:3216   */\n    tag_25:\n        /* \"#utility.yul\":3093:3097   */\n      0x00\n        /* \"#utility.yul\":3131:3133   */\n      0x20\n        /* \"#utility.yul\":3120:3129   */\n      dup3\n        /* \"#utility.yul\":3116:3134   */\n      add\n        /* \"#utility.yul\":3108:3134   */\n      swap1\n      pop\n        /* \"#utility.yul\":3144:3209   */\n      tag_129\n        /* \"#utility.yul\":3206:3207   */\n      0x00\n        /* \"#utility.yul\":3195:3204   */\n      dup4\n        /* \"#utility.yul\":3191:3208   */\n      add\n        /* \"#utility.yul\":3182:3188   */\n      dup5\n        /* \"#utility.yul\":3144:3209   */\n      tag_77\n      jump\t// in\n    tag_129:\n        /* \"#utility.yul\":3006:3216   */\n      swap3\n      swap2\n      pop\n      pop\n      jump\t// out\n        /* \"#utility.yul\":3222:3391   */\n    tag_78:\n        /* \"#utility.yul\":3306:3317   */\n      0x00\n        /* \"#utility.yul\":3340:3346   */\n      dup3\n        /* \"#utility.yul\":3335:3338   */\n      dup3\n        /* \"#utility.yul\":3328:3347   */\n      mstore\n        /* \"#utility.yul\":3380:3384   */\n      0x20\n        /* \"#utility.yul\":3375:3378   */\n      dup3\n        /* \"#utility.yul\":3371:3385   */\n      add\n        /* \"#utility.yul\":3356:3385   */\n      swap1\n      pop\n        /* \"#utility.yul\":3222:3391   */\n      swap3\n      swap2\n      pop\n      pop\n      jump\t// out\n        /* \"#utility.yul\":3397:3567   */\n    tag_79:\n        /* \"#utility.yul\":3537:3559   */\n      0x496e73756666696369656e742062616c616e6365000000000000000000000000\n        /* \"#utility.yul\":3533:3534   */\n      0x00\n        /* \"#utility.yul\":3525:3531   */\n      dup3\n        /* \"#utility.yul\":3521:3535   */\n      add\n        /* \"#utility.yul\":3514:3560   */\n      mstore\n        /* \"#utility.yul\":3397:3567   */\n      pop\n      jump\t// out\n        /* \"#utility.yul\":3573:3939   */\n    tag_80:\n        /* \"#utility.yul\":3715:3718   */\n      0x00\n        /* \"#utility.yul\":3736:3803   */\n      tag_133\n        /* \"#utility.yul\":3800:3802   */\n      0x14\n        /* \"#utility.yul\":3795:3798   */\n      dup4\n        /* \"#utility.yul\":3736:3803   */\n      tag_78\n      jump\t// in\n    tag_133:\n        /* \"#utility.yul\":3729:3803   */\n      swap2\n      pop\n        /* \"#utility.yul\":3812:3905   */\n      tag_134\n        /* \"#utility.yul\":3901:3904   */\n      dup3\n        /* \"#utility.yul\":3812:3905   */\n      tag_79\n      jump\t// in\n    tag_134:\n        /* \"#utility.yul\":3930:3932   */\n      0x20\n        /* \"#utility.yul\":3925:3928   */\n      dup3\n        /* \"#utility.yul\":3921:3933   */\n      add\n        /* \"#utility.yul\":3914:3933   */\n      swap1\n      pop\n        /* \"#utility.yul\":3573:3939   */\n      swap2\n      swap1\n      pop\n      jump\t// out\n        /* \"#utility.yul\":3945:4364   */\n    tag_39:\n        /* \"#utility.yul\":4111:4115   */\n      0x00\n        /* \"#utility.yul\":4149:4151   */\n      0x20\n        /* \"#utility.yul\":4138:4147   */\n      dup3\n        /* \"#utility.yul\":4134:4152   */\n      add\n        /* \"#utility.yul\":4126:4152   */\n      swap1\n      pop\n        /* \"#utility.yul\":4198:4207   */\n      dup2\n        /* \"#utility.yul\":4192:4196   */\n      dup2\n        /* \"#utility.yul\":4188:4208   */\n      sub\n        /* \"#utility.yul\":4184:4185   */\n      0x00\n        /* \"#utility.yul\":4173:4182   */\n      dup4\n        /* \"#utility.yul\":4169:4186   */\n      add\n        /* \"#utility.yul\":4162:4209   */\n      mstore\n        /* \"#utility.yul\":4226:4357   */\n      tag_136\n        /* \"#utility.yul\":4352:4356   */\n      dup2\n        /* \"#utility.yul\":4226:4357   */\n      tag_80\n      jump\t// in\n    tag_136:\n        /* \"#utility.yul\":4218:4357   */\n      swap1\n      pop\n        /* \"#utility.yul\":3945:4364   */\n      swap2\n      swap1\n      pop\n      jump\t// out\n        /* \"#utility.yul\":4370:4550   */\n    tag_81:\n        /* \"#utility.yul\":4418:4495   */\n      0x4e487b7100000000000000000000000000000000000000000000000000000000\n        /* \"#utility.yul\":4415:4416   */\n      0x00\n        /* \"#utility.yul\":4408:4496   */\n      mstore\n        /* \"#utility.yul\":4515:4519   */\n      0x11\n        /* \"#utility.yul\":4512:4513   */\n      0x04\n        /* \"#utility.yul\":4505:4520   */\n      mstore\n        /* \"#utility.yul\":4539:4543   */\n      0x24\n        /* \"#utility.yul\":4536:4537   */\n      0x00\n        /* \"#utility.yul\":4529:4544   */\n      revert\n        /* \"#utility.yul\":4556:4750   */\n    tag_41:\n        /* \"#utility.yul\":4596:4600   */\n      0x00\n        /* \"#utility.yul\":4616:4636   */\n      tag_139\n        /* \"#utility.yul\":4634:4635   */\n      dup3\n        /* \"#utility.yul\":4616:4636   */\n      tag_69\n      jump\t// in\n    tag_139:\n        /* \"#utility.yul\":4611:4636   */\n      swap2\n      pop\n        /* \"#utility.yul\":4650:4670   */\n      tag_140\n        /* \"#utility.yul\":4668:4669   */\n      dup4\n        /* \"#utility.yul\":4650:4670   */\n      tag_69\n      jump\t// in\n    tag_140:\n        /* \"#utility.yul\":4645:4670   */\n      swap3\n      pop\n        /* \"#utility.yul\":4694:4695   */\n      dup3\n        /* \"#utility.yul\":4691:4692   */\n      dup3\n        /* \"#utility.yul\":4687:4696   */\n      sub\n        /* \"#utility.yul\":4679:4696   */\n      swap1\n      pop\n        /* \"#utility.yul\":4718:4719   */\n      dup2\n        /* \"#utility.yul\":4712:4716   */\n      dup2\n        /* \"#utility.yul\":4709:4720   */\n      gt\n        /* \"#utility.yul\":4706:4743   */\n      iszero\n      tag_141\n      jumpi\n        /* \"#utility.yul\":4723:4741   */\n      tag_142\n      tag_81\n      jump\t// in\n    tag_142:\n        /* \"#utility.yul\":4706:4743   */\n    tag_141:\n        /* \"#utility.yul\":4556:4750   */\n      swap3\n      swap2\n      pop\n      pop\n      jump\t// out\n        /* \"#utility.yul\":4756:4903   */\n    tag_82:\n        /* \"#utility.yul\":4857:4868   */\n      0x00\n        /* \"#utility.yul\":4894:4897   */\n      dup2\n        /* \"#utility.yul\":4879:4897   */\n      swap1\n      pop\n        /* \"#utility.yul\":4756:4903   */\n      swap3\n      swap2\n      pop\n      pop\n      jump\t// out\n        /* \"#utility.yul\":4909:5023   */\n    tag_83:\n      pop\n      jump\t// out\n        /* \"#utility.yul\":5029:5427   */\n    tag_84:\n        /* \"#utility.yul\":5188:5191   */\n      0x00\n        /* \"#utility.yul\":5209:5292   */\n      tag_146\n        /* \"#utility.yul\":5290:5291   */\n      0x00\n        /* \"#utility.yul\":5285:5288   */\n      dup4\n        /* \"#utility.yul\":5209:5292   */\n      tag_82\n      jump\t// in\n    tag_146:\n        /* \"#utility.yul\":5202:5292   */\n      swap2\n      pop\n        /* \"#utility.yul\":5301:5394   */\n      tag_147\n        /* \"#utility.yul\":5390:5393   */\n      dup3\n        /* \"#utility.yul\":5301:5394   */\n      tag_83\n      jump\t// in\n    tag_147:\n        /* \"#utility.yul\":5419:5420   */\n      0x00\n        /* \"#utility.yul\":5414:5417   */\n      dup3\n        /* \"#utility.yul\":5410:5421   */\n      add\n        /* \"#utility.yul\":5403:5421   */\n      swap1\n      pop\n        /* \"#utility.yul\":5029:5427   */\n      swap2\n      swap1\n      pop\n      jump\t// out\n        /* \"#utility.yul\":5433:5812   */\n    tag_43:\n        /* \"#utility.yul\":5617:5620   */\n      0x00\n        /* \"#utility.yul\":5639:5786   */\n      tag_149\n        /* \"#utility.yul\":5782:5785   */\n      dup3\n        /* \"#utility.yul\":5639:5786   */\n      tag_84\n      jump\t// in\n    tag_149:\n        /* \"#utility.yul\":5632:5786   */\n      swap2\n      pop\n        /* \"#utility.yul\":5803:5806   */\n      dup2\n        /* \"#utility.yul\":5796:5806   */\n      swap1\n      pop\n        /* \"#utility.yul\":5433:5812   */\n      swap2\n      swap1\n      pop\n      jump\t// out\n        /* \"#utility.yul\":5818:5987   */\n    tag_85:\n        /* \"#utility.yul\":5958:5979   */\n      0x455448207472616e73666572206661696c656400000000000000000000000000\n        /* \"#utility.yul\":5954:5955   */\n      0x00\n        /* \"#utility.yul\":5946:5952   */\n      dup3\n        /* \"#utility.yul\":5942:5956   */\n      add\n        /* \"#utility.yul\":5935:5980   */\n      mstore\n        /* \"#utility.yul\":5818:5987   */\n      pop\n      jump\t// out\n        /* \"#utility.yul\":5993:6359   */\n    tag_86:\n        /* \"#utility.yul\":6135:6138   */\n      0x00\n        /* \"#utility.yul\":6156:6223   */\n      tag_152\n        /* \"#utility.yul\":6220:6222   */\n      0x13\n        /* \"#utility.yul\":6215:6218   */\n      dup4\n        /* \"#utility.yul\":6156:6223   */\n      tag_78\n      jump\t// in\n    tag_152:\n        /* \"#utility.yul\":6149:6223   */\n      swap2\n      pop\n        /* \"#utility.yul\":6232:6325   */\n      tag_153\n        /* \"#utility.yul\":6321:6324   */\n      dup3\n        /* \"#utility.yul\":6232:6325   */\n      tag_85\n      jump\t// in\n    tag_153:\n        /* \"#utility.yul\":6350:6352   */\n      0x20\n        /* \"#utility.yul\":6345:6348   */\n      dup3\n        /* \"#utility.yul\":6341:6353   */\n      add\n        /* \"#utility.yul\":6334:6353   */\n      swap1\n      pop\n        /* \"#utility.yul\":5993:6359   */\n      swap2\n      swap1\n      pop\n      jump\t// out\n        /* \"#utility.yul\":6365:6784   */\n    tag_49:\n        /* \"#utility.yul\":6531:6535   */\n      0x00\n        /* \"#utility.yul\":6569:6571   */\n      0x20\n        /* \"#utility.yul\":6558:6567   */\n      dup3\n        /* \"#utility.yul\":6554:6572   */\n      add\n        /* \"#utility.yul\":6546:6572   */\n      swap1\n      pop\n        /* \"#utility.yul\":6618:6627   */\n      dup2\n        /* \"#utility.yul\":6612:6616   */\n      dup2\n        /* \"#utility.yul\":6608:6628   */\n      sub\n        /* \"#utility.yul\":6604:6605   */\n      0x00\n        /* \"#utility.yul\":6593:6602   */\n      dup4\n        /* \"#utility.yul\":6589:6606   */\n      add\n        /* \"#utility.yul\":6582:6629   */\n      mstore\n        /* \"#utility.yul\":6646:6777   */\n      tag_155\n        /* \"#utility.yul\":6772:6776   */\n      dup2\n        /* \"#utility.yul\":6646:6777   */\n      tag_86\n      jump\t// in\n    tag_155:\n        /* \"#utility.yul\":6638:6777   */\n      swap1\n      pop\n        /* \"#utility.yul\":6365:6784   */\n      swap2\n      swap1\n      pop\n      jump\t// out\n        /* \"#utility.yul\":6790:6981   */\n    tag_53:\n        /* \"#utility.yul\":6830:6833   */\n      0x00\n        /* \"#utility.yul\":6849:6869   */\n      tag_157\n        /* \"#utility.yul\":6867:6868   */\n      dup3\n        /* \"#utility.yul\":6849:6869   */\n      tag_69\n      jump\t// in\n    tag_157:\n        /* \"#utility.yul\":6844:6869   */\n      swap2\n      pop\n        /* \"#utility.yul\":6883:6903   */\n      tag_158\n        /* \"#utility.yul\":6901:6902   */\n      dup4\n        /* \"#utility.yul\":6883:6903   */\n      tag_69\n      jump\t// in\n    tag_158:\n        /* \"#utility.yul\":6878:6903   */\n      swap3\n      pop\n        /* \"#utility.yul\":6926:6927   */\n      dup3\n        /* \"#utility.yul\":6923:6924   */\n      dup3\n        /* \"#utility.yul\":6919:6928   */\n      add\n        /* \"#utility.yul\":6912:6928   */\n      swap1\n      pop\n        /* \"#utility.yul\":6947:6950   */\n      dup1\n        /* \"#utility.yul\":6944:6945   */\n      dup3\n        /* \"#utility.yul\":6941:6951   */\n      gt\n        /* \"#utility.yul\":6938:6974   */\n      iszero\n      tag_159\n      jumpi\n        /* \"#utility.yul\":6954:6972   */\n      tag_160\n      tag_81\n      jump\t// in\n    tag_160:\n        /* \"#utility.yul\":6938:6974   */\n    tag_159:\n        /* \"#utility.yul\":6790:6981   */\n      swap3\n      swap2\n      pop\n      pop\n      jump\t// out\n\n    auxdata: 0xa2646970667358221220de0ad9702cc00692a9f96df77d72d4f7f057eb0287f5fcbac0e3bf427015720364736f6c63430008220033\n}\n",
				"bytecode": {
					"linkReferences": {},
					"object": "6080604052348015600e575f5ffd5b506108678061001c5f395ff3fe608060405260043610610054575f3560e01c806327e235e3146100585780635058c460146100945780636ef61092146100bc5780638b7afe2e146100f8578063d0e30db014610122578063f90873151461012c575b5f5ffd5b348015610063575f5ffd5b5061007e6004803603810190610079919061054b565b610154565b60405161008b919061058e565b60405180910390f35b34801561009f575f5ffd5b506100ba60048036038101906100b5919061060c565b610168565b005b3480156100c7575f5ffd5b506100e260048036038101906100dd919061054b565b6102e6565b6040516100ef9190610664565b60405180910390f35b348015610103575f5ffd5b5061010c610303565b604051610119919061058e565b60405180910390f35b61012a61030a565b005b348015610137575f5ffd5b50610152600480360381019061014d919061060c565b61035e565b005b5f602052805f5260405f205f915090505481565b805f5f3373ffffffffffffffffffffffffffffffffffffffff1673ffffffffffffffffffffffffffffffffffffffff1681526020019081526020015f205410156101e7576040517f08c379a00000000000000000000000000000000000000000000000000000000081526004016101de906106d7565b60405180910390fd5b805f5f3373ffffffffffffffffffffffffffffffffffffffff1673ffffffffffffffffffffffffffffffffffffffff1681526020019081526020015f205f8282546102329190610722565b925050819055505f8273ffffffffffffffffffffffffffffffffffffffff168260405161025e90610782565b5f6040518083038185875af1925050503d805f8114610298576040519150601f19603f3d011682016040523d82523d5f602084013e61029d565b606091505b50509050806102e1576040517f08c379a00000000000000000000000000000000000000000000000000000000081526004016102d8906107e0565b60405180910390fd5b505050565b6001602052805f5260405f205f915054906101000a900460ff1681565b5f47905090565b345f5f3373ffffffffffffffffffffffffffffffffffffffff1673ffffffffffffffffffffffffffffffffffffffff1681526020019081526020015f205f82825461035591906107fe565b92505081905550565b805f5f3373ffffffffffffffffffffffffffffffffffffffff1673ffffffffffffffffffffffffffffffffffffffff1681526020019081526020015f205410156103dd576040517f08c379a00000000000000000000000000000000000000000000000000000000081526004016103d4906106d7565b60405180910390fd5b805f5f3373ffffffffffffffffffffffffffffffffffffffff1673ffffffffffffffffffffffffffffffffffffffff1681526020019081526020015f205f8282546104289190610722565b925050819055506001805f3373ffffffffffffffffffffffffffffffffffffffff1673ffffffffffffffffffffffffffffffffffffffff1681526020019081526020015f205f6101000a81548160ff0219169083151502179055508173ffffffffffffffffffffffffffffffffffffffff16816040516104a790610782565b5f6040518083038185875af1925050503d805f81146104e1576040519150601f19603f3d011682016040523d82523d5f602084013e6104e6565b606091505b5050505050565b5f5ffd5b5f73ffffffffffffffffffffffffffffffffffffffff82169050919050565b5f61051a826104f1565b9050919050565b61052a81610510565b8114610534575f5ffd5b50565b5f8135905061054581610521565b92915050565b5f602082840312156105605761055f6104ed565b5b5f61056d84828501610537565b91505092915050565b5f819050919050565b61058881610576565b82525050565b5f6020820190506105a15f83018461057f565b92915050565b5f6105b1826104f1565b9050919050565b6105c1816105a7565b81146105cb575f5ffd5b50565b5f813590506105dc816105b8565b92915050565b6105eb81610576565b81146105f5575f5ffd5b50565b5f81359050610606816105e2565b92915050565b5f5f60408385031215610622576106216104ed565b5b5f61062f858286016105ce565b9250506020610640858286016105f8565b9150509250929050565b5f8115159050919050565b61065e8161064a565b82525050565b5f6020820190506106775f830184610655565b92915050565b5f82825260208201905092915050565b7f496e73756666696369656e742062616c616e63650000000000000000000000005f82015250565b5f6106c160148361067d565b91506106cc8261068d565b602082019050919050565b5f6020820190508181035f8301526106ee816106b5565b9050919050565b7f4e487b71000000000000000000000000000000000000000000000000000000005f52601160045260245ffd5b5f61072c82610576565b915061073783610576565b925082820390508181111561074f5761074e6106f5565b5b92915050565b5f81905092915050565b50565b5f61076d5f83610755565b91506107788261075f565b5f82019050919050565b5f61078c82610762565b9150819050919050565b7f455448207472616e73666572206661696c6564000000000000000000000000005f82015250565b5f6107ca60138361067d565b91506107d582610796565b602082019050919050565b5f6020820190508181035f8301526107f7816107be565b9050919050565b5f61080882610576565b915061081383610576565b925082820190508082111561082b5761082a6106f5565b5b9291505056fea2646970667358221220de0ad9702cc00692a9f96df77d72d4f7f057eb0287f5fcbac0e3bf427015720364736f6c63430008220033",
					"opcodes": "PUSH1 0x80 PUSH1 0x40 MSTORE CALLVALUE DUP1 ISZERO PUSH1 0xE JUMPI PUSH0 PUSH0 REVERT JUMPDEST POP PUSH2 0x867 DUP1 PUSH2 0x1C PUSH0 CODECOPY PUSH0 RETURN INVALID PUSH1 0x80 PUSH1 0x40 MSTORE PUSH1 0x4 CALLDATASIZE LT PUSH2 0x54 JUMPI PUSH0 CALLDATALOAD PUSH1 0xE0 SHR DUP1 PUSH4 0x27E235E3 EQ PUSH2 0x58 JUMPI DUP1 PUSH4 0x5058C460 EQ PUSH2 0x94 JUMPI DUP1 PUSH4 0x6EF61092 EQ PUSH2 0xBC JUMPI DUP1 PUSH4 0x8B7AFE2E EQ PUSH2 0xF8 JUMPI DUP1 PUSH4 0xD0E30DB0 EQ PUSH2 0x122 JUMPI DUP1 PUSH4 0xF9087315 EQ PUSH2 0x12C JUMPI JUMPDEST PUSH0 PUSH0 REVERT JUMPDEST CALLVALUE DUP1 ISZERO PUSH2 0x63 JUMPI PUSH0 PUSH0 REVERT JUMPDEST POP PUSH2 0x7E PUSH1 0x4 DUP1 CALLDATASIZE SUB DUP2 ADD SWAP1 PUSH2 0x79 SWAP2 SWAP1 PUSH2 0x54B JUMP JUMPDEST PUSH2 0x154 JUMP JUMPDEST PUSH1 0x40 MLOAD PUSH2 0x8B SWAP2 SWAP1 PUSH2 0x58E JUMP JUMPDEST PUSH1 0x40 MLOAD DUP1 SWAP2 SUB SWAP1 RETURN JUMPDEST CALLVALUE DUP1 ISZERO PUSH2 0x9F JUMPI PUSH0 PUSH0 REVERT JUMPDEST POP PUSH2 0xBA PUSH1 0x4 DUP1 CALLDATASIZE SUB DUP2 ADD SWAP1 PUSH2 0xB5 SWAP2 SWAP1 PUSH2 0x60C JUMP JUMPDEST PUSH2 0x168 JUMP JUMPDEST STOP JUMPDEST CALLVALUE DUP1 ISZERO PUSH2 0xC7 JUMPI PUSH0 PUSH0 REVERT JUMPDEST POP PUSH2 0xE2 PUSH1 0x4 DUP1 CALLDATASIZE SUB DUP2 ADD SWAP1 PUSH2 0xDD SWAP2 SWAP1 PUSH2 0x54B JUMP JUMPDEST PUSH2 0x2E6 JUMP JUMPDEST PUSH1 0x40 MLOAD PUSH2 0xEF SWAP2 SWAP1 PUSH2 0x664 JUMP JUMPDEST PUSH1 0x40 MLOAD DUP1 SWAP2 SUB SWAP1 RETURN JUMPDEST CALLVALUE DUP1 ISZERO PUSH2 0x103 JUMPI PUSH0 PUSH0 REVERT JUMPDEST POP PUSH2 0x10C PUSH2 0x303 JUMP JUMPDEST PUSH1 0x40 MLOAD PUSH2 0x119 SWAP2 SWAP1 PUSH2 0x58E JUMP JUMPDEST PUSH1 0x40 MLOAD DUP1 SWAP2 SUB SWAP1 RETURN JUMPDEST PUSH2 0x12A PUSH2 0x30A JUMP JUMPDEST STOP JUMPDEST CALLVALUE DUP1 ISZERO PUSH2 0x137 JUMPI PUSH0 PUSH0 REVERT JUMPDEST POP PUSH2 0x152 PUSH1 0x4 DUP1 CALLDATASIZE SUB DUP2 ADD SWAP1 PUSH2 0x14D SWAP2 SWAP1 PUSH2 0x60C JUMP JUMPDEST PUSH2 0x35E JUMP JUMPDEST STOP JUMPDEST PUSH0 PUSH1 0x20 MSTORE DUP1 PUSH0 MSTORE PUSH1 0x40 PUSH0 KECCAK256 PUSH0 SWAP2 POP SWAP1 POP SLOAD DUP2 JUMP JUMPDEST DUP1 PUSH0 PUSH0 CALLER PUSH20 0xFFFFFFFFFFFFFFFFFFFFFFFFFFFFFFFFFFFFFFFF AND PUSH20 0xFFFFFFFFFFFFFFFFFFFFFFFFFFFFFFFFFFFFFFFF AND DUP2 MSTORE PUSH1 0x20 ADD SWAP1 DUP2 MSTORE PUSH1 0x20 ADD PUSH0 KECCAK256 SLOAD LT ISZERO PUSH2 0x1E7 JUMPI PUSH1 0x40 MLOAD PUSH32 0x8C379A000000000000000000000000000000000000000000000000000000000 DUP2 MSTORE PUSH1 0x4 ADD PUSH2 0x1DE SWAP1 PUSH2 0x6D7 JUMP JUMPDEST PUSH1 0x40 MLOAD DUP1 SWAP2 SUB SWAP1 REVERT JUMPDEST DUP1 PUSH0 PUSH0 CALLER PUSH20 0xFFFFFFFFFFFFFFFFFFFFFFFFFFFFFFFFFFFFFFFF AND PUSH20 0xFFFFFFFFFFFFFFFFFFFFFFFFFFFFFFFFFFFFFFFF AND DUP2 MSTORE PUSH1 0x20 ADD SWAP1 DUP2 MSTORE PUSH1 0x20 ADD PUSH0 KECCAK256 PUSH0 DUP3 DUP3 SLOAD PUSH2 0x232 SWAP2 SWAP1 PUSH2 0x722 JUMP JUMPDEST SWAP3 POP POP DUP2 SWAP1 SSTORE POP PUSH0 DUP3 PUSH20 0xFFFFFFFFFFFFFFFFFFFFFFFFFFFFFFFFFFFFFFFF AND DUP3 PUSH1 0x40 MLOAD PUSH2 0x25E SWAP1 PUSH2 0x782 JUMP JUMPDEST PUSH0 PUSH1 0x40 MLOAD DUP1 DUP4 SUB DUP2 DUP6 DUP8 GAS CALL SWAP3 POP POP POP RETURNDATASIZE DUP1 PUSH0 DUP2 EQ PUSH2 0x298 JUMPI PUSH1 0x40 MLOAD SWAP2 POP PUSH1 0x1F NOT PUSH1 0x3F RETURNDATASIZE ADD AND DUP3 ADD PUSH1 0x40 MSTORE RETURNDATASIZE DUP3 MSTORE RETURNDATASIZE PUSH0 PUSH1 0x20 DUP5 ADD RETURNDATACOPY PUSH2 0x29D JUMP JUMPDEST PUSH1 0x60 SWAP2 POP JUMPDEST POP POP SWAP1 POP DUP1 PUSH2 0x2E1 JUMPI PUSH1 0x40 MLOAD PUSH32 0x8C379A000000000000000000000000000000000000000000000000000000000 DUP2 MSTORE PUSH1 0x4 ADD PUSH2 0x2D8 SWAP1 PUSH2 0x7E0 JUMP JUMPDEST PUSH1 0x40 MLOAD DUP1 SWAP2 SUB SWAP1 REVERT JUMPDEST POP POP POP JUMP JUMPDEST PUSH1 0x1 PUSH1 0x20 MSTORE DUP1 PUSH0 MSTORE PUSH1 0x40 PUSH0 KECCAK256 PUSH0 SWAP2 POP SLOAD SWAP1 PUSH2 0x100 EXP SWAP1 DIV PUSH1 0xFF AND DUP2 JUMP JUMPDEST PUSH0 SELFBALANCE SWAP1 POP SWAP1 JUMP JUMPDEST CALLVALUE PUSH0 PUSH0 CALLER PUSH20 0xFFFFFFFFFFFFFFFFFFFFFFFFFFFFFFFFFFFFFFFF AND PUSH20 0xFFFFFFFFFFFFFFFFFFFFFFFFFFFFFFFFFFFFFFFF AND DUP2 MSTORE PUSH1 0x20 ADD SWAP1 DUP2 MSTORE PUSH1 0x20 ADD PUSH0 KECCAK256 PUSH0 DUP3 DUP3 SLOAD PUSH2 0x355 SWAP2 SWAP1 PUSH2 0x7FE JUMP JUMPDEST SWAP3 POP POP DUP2 SWAP1 SSTORE POP JUMP JUMPDEST DUP1 PUSH0 PUSH0 CALLER PUSH20 0xFFFFFFFFFFFFFFFFFFFFFFFFFFFFFFFFFFFFFFFF AND PUSH20 0xFFFFFFFFFFFFFFFFFFFFFFFFFFFFFFFFFFFFFFFF AND DUP2 MSTORE PUSH1 0x20 ADD SWAP1 DUP2 MSTORE PUSH1 0x20 ADD PUSH0 KECCAK256 SLOAD LT ISZERO PUSH2 0x3DD JUMPI PUSH1 0x40 MLOAD PUSH32 0x8C379A000000000000000000000000000000000000000000000000000000000 DUP2 MSTORE PUSH1 0x4 ADD PUSH2 0x3D4 SWAP1 PUSH2 0x6D7 JUMP JUMPDEST PUSH1 0x40 MLOAD DUP1 SWAP2 SUB SWAP1 REVERT JUMPDEST DUP1 PUSH0 PUSH0 CALLER PUSH20 0xFFFFFFFFFFFFFFFFFFFFFFFFFFFFFFFFFFFFFFFF AND PUSH20 0xFFFFFFFFFFFFFFFFFFFFFFFFFFFFFFFFFFFFFFFF AND DUP2 MSTORE PUSH1 0x20 ADD SWAP1 DUP2 MSTORE PUSH1 0x20 ADD PUSH0 KECCAK256 PUSH0 DUP3 DUP3 SLOAD PUSH2 0x428 SWAP2 SWAP1 PUSH2 0x722 JUMP JUMPDEST SWAP3 POP POP DUP2 SWAP1 SSTORE POP PUSH1 0x1 DUP1 PUSH0 CALLER PUSH20 0xFFFFFFFFFFFFFFFFFFFFFFFFFFFFFFFFFFFFFFFF AND PUSH20 0xFFFFFFFFFFFFFFFFFFFFFFFFFFFFFFFFFFFFFFFF AND DUP2 MSTORE PUSH1 0x20 ADD SWAP1 DUP2 MSTORE PUSH1 0x20 ADD PUSH0 KECCAK256 PUSH0 PUSH2 0x100 EXP DUP2 SLOAD DUP2 PUSH1 0xFF MUL NOT AND SWAP1 DUP4 ISZERO ISZERO MUL OR SWAP1 SSTORE POP DUP2 PUSH20 0xFFFFFFFFFFFFFFFFFFFFFFFFFFFFFFFFFFFFFFFF AND DUP2 PUSH1 0x40 MLOAD PUSH2 0x4A7 SWAP1 PUSH2 0x782 JUMP JUMPDEST PUSH0 PUSH1 0x40 MLOAD DUP1 DUP4 SUB DUP2 DUP6 DUP8 GAS CALL SWAP3 POP POP POP RETURNDATASIZE DUP1 PUSH0 DUP2 EQ PUSH2 0x4E1 JUMPI PUSH1 0x40 MLOAD SWAP2 POP PUSH1 0x1F NOT PUSH1 0x3F RETURNDATASIZE ADD AND DUP3 ADD PUSH1 0x40 MSTORE RETURNDATASIZE DUP3 MSTORE RETURNDATASIZE PUSH0 PUSH1 0x20 DUP5 ADD RETURNDATACOPY PUSH2 0x4E6 JUMP JUMPDEST PUSH1 0x60 SWAP2 POP JUMPDEST POP POP POP POP POP JUMP JUMPDEST PUSH0 PUSH0 REVERT JUMPDEST PUSH0 PUSH20 0xFFFFFFFFFFFFFFFFFFFFFFFFFFFFFFFFFFFFFFFF DUP3 AND SWAP1 POP SWAP2 SWAP1 POP JUMP JUMPDEST PUSH0 PUSH2 0x51A DUP3 PUSH2 0x4F1 JUMP JUMPDEST SWAP1 POP SWAP2 SWAP1 POP JUMP JUMPDEST PUSH2 0x52A DUP2 PUSH2 0x510 JUMP JUMPDEST DUP2 EQ PUSH2 0x534 JUMPI PUSH0 PUSH0 REVERT JUMPDEST POP JUMP JUMPDEST PUSH0 DUP2 CALLDATALOAD SWAP1 POP PUSH2 0x545 DUP2 PUSH2 0x521 JUMP JUMPDEST SWAP3 SWAP2 POP POP JUMP JUMPDEST PUSH0 PUSH1 0x20 DUP3 DUP5 SUB SLT ISZERO PUSH2 0x560 JUMPI PUSH2 0x55F PUSH2 0x4ED JUMP JUMPDEST JUMPDEST PUSH0 PUSH2 0x56D DUP5 DUP3 DUP6 ADD PUSH2 0x537 JUMP JUMPDEST SWAP2 POP POP SWAP3 SWAP2 POP POP JUMP JUMPDEST PUSH0 DUP2 SWAP1 POP SWAP2 SWAP1 POP JUMP JUMPDEST PUSH2 0x588 DUP2 PUSH2 0x576 JUMP JUMPDEST DUP3 MSTORE POP POP JUMP JUMPDEST PUSH0 PUSH1 0x20 DUP3 ADD SWAP1 POP PUSH2 0x5A1 PUSH0 DUP4 ADD DUP5 PUSH2 0x57F JUMP JUMPDEST SWAP3 SWAP2 POP POP JUMP JUMPDEST PUSH0 PUSH2 0x5B1 DUP3 PUSH2 0x4F1 JUMP JUMPDEST SWAP1 POP SWAP2 SWAP1 POP JUMP JUMPDEST PUSH2 0x5C1 DUP2 PUSH2 0x5A7 JUMP JUMPDEST DUP2 EQ PUSH2 0x5CB JUMPI PUSH0 PUSH0 REVERT JUMPDEST POP JUMP JUMPDEST PUSH0 DUP2 CALLDATALOAD SWAP1 POP PUSH2 0x5DC DUP2 PUSH2 0x5B8 JUMP JUMPDEST SWAP3 SWAP2 POP POP JUMP JUMPDEST PUSH2 0x5EB DUP2 PUSH2 0x576 JUMP JUMPDEST DUP2 EQ PUSH2 0x5F5 JUMPI PUSH0 PUSH0 REVERT JUMPDEST POP JUMP JUMPDEST PUSH0 DUP2 CALLDATALOAD SWAP1 POP PUSH2 0x606 DUP2 PUSH2 0x5E2 JUMP JUMPDEST SWAP3 SWAP2 POP POP JUMP JUMPDEST PUSH0 PUSH0 PUSH1 0x40 DUP4 DUP6 SUB SLT ISZERO PUSH2 0x622 JUMPI PUSH2 0x621 PUSH2 0x4ED JUMP JUMPDEST JUMPDEST PUSH0 PUSH2 0x62F DUP6 DUP3 DUP7 ADD PUSH2 0x5CE JUMP JUMPDEST SWAP3 POP POP PUSH1 0x20 PUSH2 0x640 DUP6 DUP3 DUP7 ADD PUSH2 0x5F8 JUMP JUMPDEST SWAP2 POP POP SWAP3 POP SWAP3 SWAP1 POP JUMP JUMPDEST PUSH0 DUP2 ISZERO ISZERO SWAP1 POP SWAP2 SWAP1 POP JUMP JUMPDEST PUSH2 0x65E DUP2 PUSH2 0x64A JUMP JUMPDEST DUP3 MSTORE POP POP JUMP JUMPDEST PUSH0 PUSH1 0x20 DUP3 ADD SWAP1 POP PUSH2 0x677 PUSH0 DUP4 ADD DUP5 PUSH2 0x655 JUMP JUMPDEST SWAP3 SWAP2 POP POP JUMP JUMPDEST PUSH0 DUP3 DUP3 MSTORE PUSH1 0x20 DUP3 ADD SWAP1 POP SWAP3 SWAP2 POP POP JUMP JUMPDEST PUSH32 0x496E73756666696369656E742062616C616E6365000000000000000000000000 PUSH0 DUP3 ADD MSTORE POP JUMP JUMPDEST PUSH0 PUSH2 0x6C1 PUSH1 0x14 DUP4 PUSH2 0x67D JUMP JUMPDEST SWAP2 POP PUSH2 0x6CC DUP3 PUSH2 0x68D JUMP JUMPDEST PUSH1 0x20 DUP3 ADD SWAP1 POP SWAP2 SWAP1 POP JUMP JUMPDEST PUSH0 PUSH1 0x20 DUP3 ADD SWAP1 POP DUP2 DUP2 SUB PUSH0 DUP4 ADD MSTORE PUSH2 0x6EE DUP2 PUSH2 0x6B5 JUMP JUMPDEST SWAP1 POP SWAP2 SWAP1 POP JUMP JUMPDEST PUSH32 0x4E487B7100000000000000000000000000000000000000000000000000000000 PUSH0 MSTORE PUSH1 0x11 PUSH1 0x4 MSTORE PUSH1 0x24 PUSH0 REVERT JUMPDEST PUSH0 PUSH2 0x72C DUP3 PUSH2 0x576 JUMP JUMPDEST SWAP2 POP PUSH2 0x737 DUP4 PUSH2 0x576 JUMP JUMPDEST SWAP3 POP DUP3 DUP3 SUB SWAP1 POP DUP2 DUP2 GT ISZERO PUSH2 0x74F JUMPI PUSH2 0x74E PUSH2 0x6F5 JUMP JUMPDEST JUMPDEST SWAP3 SWAP2 POP POP JUMP JUMPDEST PUSH0 DUP2 SWAP1 POP SWAP3 SWAP2 POP POP JUMP JUMPDEST POP JUMP JUMPDEST PUSH0 PUSH2 0x76D PUSH0 DUP4 PUSH2 0x755 JUMP JUMPDEST SWAP2 POP PUSH2 0x778 DUP3 PUSH2 0x75F JUMP JUMPDEST PUSH0 DUP3 ADD SWAP1 POP SWAP2 SWAP1 POP JUMP JUMPDEST PUSH0 PUSH2 0x78C DUP3 PUSH2 0x762 JUMP JUMPDEST SWAP2 POP DUP2 SWAP1 POP SWAP2 SWAP1 POP JUMP JUMPDEST PUSH32 0x455448207472616E73666572206661696C656400000000000000000000000000 PUSH0 DUP3 ADD MSTORE POP JUMP JUMPDEST PUSH0 PUSH2 0x7CA PUSH1 0x13 DUP4 PUSH2 0x67D JUMP JUMPDEST SWAP2 POP PUSH2 0x7D5 DUP3 PUSH2 0x796 JUMP JUMPDEST PUSH1 0x20 DUP3 ADD SWAP1 POP SWAP2 SWAP1 POP JUMP JUMPDEST PUSH0 PUSH1 0x20 DUP3 ADD SWAP1 POP DUP2 DUP2 SUB PUSH0 DUP4 ADD MSTORE PUSH2 0x7F7 DUP2 PUSH2 0x7BE JUMP JUMPDEST SWAP1 POP SWAP2 SWAP1 POP JUMP JUMPDEST PUSH0 PUSH2 0x808 DUP3 PUSH2 0x576 JUMP JUMPDEST SWAP2 POP PUSH2 0x813 DUP4 PUSH2 0x576 JUMP JUMPDEST SWAP3 POP DUP3 DUP3 ADD SWAP1 POP DUP1 DUP3 GT ISZERO PUSH2 0x82B JUMPI PUSH2 0x82A PUSH2 0x6F5 JUMP JUMPDEST JUMPDEST SWAP3 SWAP2 POP POP JUMP INVALID LOG2 PUSH5 0x6970667358 0x22 SLT KECCAK256 0xDE EXP 0xD9 PUSH17 0x2CC00692A9F96DF77D72D4F7F057EB0287 CREATE2 0xFC 0xBA 0xC0 CALLF 0xBF42 PUSH17 0x15720364736F6C63430008220033000000 "
				},
				"gasEstimates": {
					"creation": {
						"codeDepositCost": "430200",
						"executionCost": "466",
						"totalCost": "430666"
					},
					"external": {
						"balances(address)": "2779",
						"contractBalance()": "378",
						"dangerousWithdraw(address,uint256)": "infinite",
						"deposit()": "infinite",
						"safeWithdraw(address,uint256)": "infinite",
						"withdrawn(address)": "2855"
					}
				},
				"methodIdentifiers": {
					"balances(address)": "27e235e3",
					"contractBalance()": "8b7afe2e",
					"dangerousWithdraw(address,uint256)": "f9087315",
					"deposit()": "d0e30db0",
					"safeWithdraw(address,uint256)": "5058c460",
					"withdrawn(address)": "6ef61092"
				}
			},
			"storageLayout": {
				"storage": [
					{
						"astId": 31,
						"contract": "val60.sol:DangerousUncheckedCallval",
						"label": "balances",
						"offset": 0,
						"slot": "0",
						"type": "t_mapping(t_address,t_uint256)"
					},
					{
						"astId": 35,
						"contract": "val60.sol:DangerousUncheckedCallval",
						"label": "withdrawn",
						"offset": 0,
						"slot": "1",
						"type": "t_mapping(t_address,t_bool)"
					}
				],
				"types": {
					"t_address": {
						"encoding": "inplace",
						"label": "address",
						"numberOfBytes": "20"
					},
					"t_bool": {
						"encoding": "inplace",
						"label": "bool",
						"numberOfBytes": "1"
					},
					"t_mapping(t_address,t_bool)": {
						"encoding": "mapping",
						"key": "t_address",
						"label": "mapping(address => bool)",
						"numberOfBytes": "32",
						"value": "t_bool"
					},
					"t_mapping(t_address,t_uint256)": {
						"encoding": "mapping",
						"key": "t_address",
						"label": "mapping(address => uint256)",
						"numberOfBytes": "32",
						"value": "t_uint256"
					},
					"t_uint256": {
						"encoding": "inplace",
						"label": "uint256",
						"numberOfBytes": "32"
					}
				}
			},
			"userdoc": {
				"kind": "user",
				"methods": {},
				"version": 1
			}
		}
	}
}