{
	"val48.sol": {
		"OrderDependencyExample": {
			"abi": [
				{
					"inputs": [
						{
							"internalType": "address",
							"name": "",
							"type": "address"
						}
					],
					"name": "balances",
					"outputs": [
						{
							"internalType": "uint256",
							"name": "",
							"type": "uint256"
						}
					],
					"stateMutability": "view",
					"type": "function"
				},
				{
					"inputs": [
						{
							"internalType": "uint256",
							"name": "_amount",
							"type": "uint256"
						}
					],
					"name": "depositCorrect",
					"outputs": [],
					"stateMutability": "nonpayable",
					"type": "function"
				},
				{
					"inputs": [
						{
							"internalType": "uint256",
							"name": "_amount",
							"type": "uint256"
						}
					],
					"name": "depositWrong",
					"outputs": [],
					"stateMutability": "nonpayable",
					"type": "function"
				},
				{
					"inputs": [
						{
							"internalType": "address",
							"name": "",
							"type": "address"
						}
					],
					"name": "rewards",
					"outputs": [
						{
							"internalType": "uint256",
							"name": "",
							"type": "uint256"
						}
					],
					"stateMutability": "view",
					"type": "function"
				},
				{
					"inputs": [],
					"name": "totalSupply",
					"outputs": [
						{
							"internalType": "uint256",
							"name": "",
							"type": "uint256"
						}
					],
					"stateMutability": "view",
					"type": "function"
				},
				{
					"inputs": [
						{
							"internalType": "address",
							"name": "_to",
							"type": "address"
						},
						{
							"internalType": "uint256",
							"name": "_amount",
							"type": "uint256"
						}
					],
					"name": "transfer",
					"outputs": [],
					"stateMutability": "nonpayable",
					"type": "function"
				},
				{
					"inputs": [
						{
							"internalType": "uint256",
							"name": "_amount",
							"type": "uint256"
						}
					],
					"name": "withdrawSafe",
					"outputs": [],
					"stateMutability": "nonpayable",
					"type": "function"
				},
				{
					"inputs": [
						{
							"internalType": "uint256",
							"name": "_amount",
							"type": "uint256"
						}
					],
					"name": "withdrawWrong",
					"outputs": [],
					"stateMutability": "nonpayable",
					"type": "function"
				},
				{
					"stateMutability": "payable",
					"type": "receive"
				}
			],
			"devdoc": {
				"kind": "dev",
				"methods": {},
				"version": 1
			},
			"evm": {
				"assembly": "    /* \"val48.sol\":12944:16305  contract OrderDependencyExample {... */\n  mstore(0x40, 0x80)\n  callvalue\n  dup1\n  iszero\n  tag_1\n  jumpi\n  revert(0x00, 0x00)\ntag_1:\n  pop\n  dataSize(sub_0)\n  dup1\n  dataOffset(sub_0)\n  0x00\n  codecopy\n  0x00\n  return\nstop\n\nsub_0: assembly {\n        /* \"val48.sol\":12944:16305  contract OrderDependencyExample {... */\n      mstore(0x40, 0x80)\n      jumpi(tag_1, lt(calldatasize, 0x04))\n      shr(0xe0, calldataload(0x00))\n      dup1\n      0x6c813fba\n      gt\n      tag_11\n      jumpi\n      dup1\n      0x6c813fba\n      eq\n      tag_7\n      jumpi\n      dup1\n      0x7748948b\n      eq\n      tag_8\n      jumpi\n      dup1\n      0xa9059cbb\n      eq\n      tag_9\n      jumpi\n      dup1\n      0xc7045a77\n      eq\n      tag_10\n      jumpi\n      jump(tag_2)\n    tag_11:\n      dup1\n      0x0700037d\n      eq\n      tag_3\n      jumpi\n      dup1\n      0x18160ddd\n      eq\n      tag_4\n      jumpi\n      dup1\n      0x27e235e3\n      eq\n      tag_5\n      jumpi\n      dup1\n      0x319657e5\n      eq\n      tag_6\n      jumpi\n      jump(tag_2)\n    tag_1:\n      jumpi(tag_2, calldatasize)\n      stop\n    tag_2:\n      revert(0x00, 0x00)\n        /* \"val48.sol\":13189:13231  mapping(address => uint256) public rewards */\n    tag_3:\n      callvalue\n      dup1\n      iszero\n      tag_14\n      jumpi\n      revert(0x00, 0x00)\n    tag_14:\n      pop\n      tag_15\n      0x04\n      dup1\n      calldatasize\n      sub\n      dup2\n      add\n      swap1\n      tag_16\n      swap2\n      swap1\n      tag_17\n      jump\t// in\n    tag_16:\n      tag_18\n      jump\t// in\n    tag_15:\n      mload(0x40)\n      tag_19\n      swap2\n      swap1\n      tag_20\n      jump\t// in\n    tag_19:\n      mload(0x40)\n      dup1\n      swap2\n      sub\n      swap1\n      return\n        /* \"val48.sol\":13114:13140  uint256 public totalSupply */\n    tag_4:\n      callvalue\n      dup1\n      iszero\n      tag_21\n      jumpi\n      revert(0x00, 0x00)\n    tag_21:\n      pop\n      tag_22\n      tag_23\n      jump\t// in\n    tag_22:\n      mload(0x40)\n      tag_24\n      swap2\n      swap1\n      tag_20\n      jump\t// in\n    tag_24:\n      mload(0x40)\n      dup1\n      swap2\n      sub\n      swap1\n      return\n        /* \"val48.sol\":13024:13067  mapping(address => uint256) public balances */\n    tag_5:\n      callvalue\n      dup1\n      iszero\n      tag_25\n      jumpi\n      revert(0x00, 0x00)\n    tag_25:\n      pop\n      tag_26\n      0x04\n      dup1\n      calldatasize\n      sub\n      dup2\n      add\n      swap1\n      tag_27\n      swap2\n      swap1\n      tag_17\n      jump\t// in\n    tag_27:\n      tag_28\n      jump\t// in\n    tag_26:\n      mload(0x40)\n      tag_29\n      swap2\n      swap1\n      tag_20\n      jump\t// in\n    tag_29:\n      mload(0x40)\n      dup1\n      swap2\n      sub\n      swap1\n      return\n        /* \"val48.sol\":15885:16259  function withdrawSafe(uint256 _amount) external ... */\n    tag_6:\n      callvalue\n      dup1\n      iszero\n      tag_30\n      jumpi\n      revert(0x00, 0x00)\n    tag_30:\n      pop\n      tag_31\n      0x04\n      dup1\n      calldatasize\n      sub\n      dup2\n      add\n      swap1\n      tag_32\n      swap2\n      swap1\n      tag_33\n      jump\t// in\n    tag_32:\n      tag_34\n      jump\t// in\n    tag_31:\n      stop\n        /* \"val48.sol\":14265:14769  function depositWrong(... */\n    tag_7:\n      callvalue\n      dup1\n      iszero\n      tag_35\n      jumpi\n      revert(0x00, 0x00)\n    tag_35:\n      pop\n      tag_36\n      0x04\n      dup1\n      calldatasize\n      sub\n      dup2\n      add\n      swap1\n      tag_37\n      swap2\n      swap1\n      tag_33\n      jump\t// in\n    tag_37:\n      tag_38\n      jump\t// in\n    tag_36:\n      stop\n        /* \"val48.sol\":13403:14098  function depositCorrect(... */\n    tag_8:\n      callvalue\n      dup1\n      iszero\n      tag_39\n      jumpi\n      revert(0x00, 0x00)\n    tag_39:\n      pop\n      tag_40\n      0x04\n      dup1\n      calldatasize\n      sub\n      dup2\n      add\n      swap1\n      tag_41\n      swap2\n      swap1\n      tag_33\n      jump\t// in\n    tag_41:\n      tag_42\n      jump\t// in\n    tag_40:\n      stop\n        /* \"val48.sol\":14935:15446  function transfer(... */\n    tag_9:\n      callvalue\n      dup1\n      iszero\n      tag_43\n      jumpi\n      revert(0x00, 0x00)\n    tag_43:\n      pop\n      tag_44\n      0x04\n      dup1\n      calldatasize\n      sub\n      dup2\n      add\n      swap1\n      tag_45\n      swap2\n      swap1\n      tag_46\n      jump\t// in\n    tag_45:\n      tag_47\n      jump\t// in\n    tag_44:\n      stop\n        /* \"val48.sol\":15478:15853  function withdrawWrong(uint256 _amount) external ... */\n    tag_10:\n      callvalue\n      dup1\n      iszero\n      tag_48\n      jumpi\n      revert(0x00, 0x00)\n    tag_48:\n      pop\n      tag_49\n      0x04\n      dup1\n      calldatasize\n      sub\n      dup2\n      add\n      swap1\n      tag_50\n      swap2\n      swap1\n      tag_33\n      jump\t// in\n    tag_50:\n      tag_51\n      jump\t// in\n    tag_49:\n      stop\n        /* \"val48.sol\":13189:13231  mapping(address => uint256) public rewards */\n    tag_18:\n      mstore(0x20, 0x02)\n      dup1\n      0x00\n      mstore\n      keccak256(0x00, 0x40)\n      0x00\n      swap2\n      pop\n      swap1\n      pop\n      sload\n      dup2\n      jump\t// out\n        /* \"val48.sol\":13114:13140  uint256 public totalSupply */\n    tag_23:\n      sload(0x01)\n      dup2\n      jump\t// out\n        /* \"val48.sol\":13024:13067  mapping(address => uint256) public balances */\n    tag_28:\n      mstore(0x20, 0x00)\n      dup1\n      0x00\n      mstore\n      keccak256(0x00, 0x40)\n      0x00\n      swap2\n      pop\n      swap1\n      pop\n      sload\n      dup2\n      jump\t// out\n        /* \"val48.sol\":15885:16259  function withdrawSafe(uint256 _amount) external ... */\n    tag_34:\n        /* \"val48.sol\":15982:15989  _amount */\n      dup1\n        /* \"val48.sol\":15958:15966  balances */\n      0x00\n        /* \"val48.sol\":15958:15978  balances[msg.sender] */\n      0x00\n        /* \"val48.sol\":15967:15977  msg.sender */\n      caller\n        /* \"val48.sol\":15958:15978  balances[msg.sender] */\n      0xffffffffffffffffffffffffffffffffffffffff\n      and\n      0xffffffffffffffffffffffffffffffffffffffff\n      and\n      dup2\n      mstore\n      0x20\n      add\n      swap1\n      dup2\n      mstore\n      0x20\n      add\n      0x00\n      keccak256\n      sload\n        /* \"val48.sol\":15958:15989  balances[msg.sender] >= _amount */\n      lt\n      iszero\n        /* \"val48.sol\":15950:16014  require(balances[msg.sender] >= _amount, \"Insufficient balance\") */\n      tag_53\n      jumpi\n      mload(0x40)\n      0x08c379a000000000000000000000000000000000000000000000000000000000\n      dup2\n      mstore\n      0x04\n      add\n      tag_54\n      swap1\n      tag_55\n      jump\t// in\n    tag_54:\n      mload(0x40)\n      dup1\n      swap2\n      sub\n      swap1\n      revert\n    tag_53:\n        /* \"val48.sol\":16051:16058  _amount */\n      dup1\n        /* \"val48.sol\":16027:16035  balances */\n      0x00\n        /* \"val48.sol\":16027:16047  balances[msg.sender] */\n      0x00\n        /* \"val48.sol\":16036:16046  msg.sender */\n      caller\n        /* \"val48.sol\":16027:16047  balances[msg.sender] */\n      0xffffffffffffffffffffffffffffffffffffffff\n      and\n      0xffffffffffffffffffffffffffffffffffffffff\n      and\n      dup2\n      mstore\n      0x20\n      add\n      swap1\n      dup2\n      mstore\n      0x20\n      add\n      0x00\n      keccak256\n      0x00\n        /* \"val48.sol\":16027:16058  balances[msg.sender] -= _amount */\n      dup3\n      dup3\n      sload\n      tag_56\n      swap2\n      swap1\n      tag_57\n      jump\t// in\n    tag_56:\n      swap3\n      pop\n      pop\n      dup2\n      swap1\n      sstore\n      pop\n        /* \"val48.sol\":16086:16093  _amount */\n      dup1\n        /* \"val48.sol\":16071:16082  totalSupply */\n      0x01\n      0x00\n        /* \"val48.sol\":16071:16093  totalSupply -= _amount */\n      dup3\n      dup3\n      sload\n      tag_58\n      swap2\n      swap1\n      tag_57\n      jump\t// in\n    tag_58:\n      swap3\n      pop\n      pop\n      dup2\n      swap1\n      sstore\n      pop\n        /* \"val48.sol\":16107:16119  bool success */\n      0x00\n        /* \"val48.sol\":16132:16142  msg.sender */\n      caller\n        /* \"val48.sol\":16124:16148  payable(msg.sender).call */\n      0xffffffffffffffffffffffffffffffffffffffff\n      and\n        /* \"val48.sol\":16180:16187  _amount */\n      dup3\n        /* \"val48.sol\":16124:16203  payable(msg.sender).call... */\n      mload(0x40)\n      tag_59\n      swap1\n      tag_60\n      jump\t// in\n    tag_59:\n      0x00\n      mload(0x40)\n      dup1\n      dup4\n      sub\n      dup2\n      dup6\n      dup8\n      gas\n      call\n      swap3\n      pop\n      pop\n      pop\n      returndatasize\n      dup1\n      0x00\n      dup2\n      eq\n      tag_63\n      jumpi\n      mload(0x40)\n      swap2\n      pop\n      and(add(returndatasize, 0x3f), not(0x1f))\n      dup3\n      add\n      0x40\n      mstore\n      returndatasize\n      dup3\n      mstore\n      returndatasize\n      0x00\n      0x20\n      dup5\n      add\n      returndatacopy\n      jump(tag_62)\n    tag_63:\n      0x60\n      swap2\n      pop\n    tag_62:\n      pop\n        /* \"val48.sol\":16106:16203  (bool success,) = payable(msg.sender).call... */\n      pop\n      swap1\n      pop\n        /* \"val48.sol\":16224:16231  success */\n      dup1\n        /* \"val48.sol\":16216:16251  require(success, \"Transfer failed\") */\n      tag_64\n      jumpi\n      mload(0x40)\n      0x08c379a000000000000000000000000000000000000000000000000000000000\n      dup2\n      mstore\n      0x04\n      add\n      tag_65\n      swap1\n      tag_66\n      jump\t// in\n    tag_65:\n      mload(0x40)\n      dup1\n      swap2\n      sub\n      swap1\n      revert\n    tag_64:\n        /* \"val48.sol\":15939:16259  {... */\n      pop\n        /* \"val48.sol\":15885:16259  function withdrawSafe(uint256 _amount) external ... */\n      pop\n      jump\t// out\n        /* \"val48.sol\":14265:14769  function depositWrong(... */\n    tag_38:\n        /* \"val48.sol\":14526:14528  10 */\n      0x0a\n        /* \"val48.sol\":14503:14511  balances */\n      0x00\n        /* \"val48.sol\":14503:14523  balances[msg.sender] */\n      0x00\n        /* \"val48.sol\":14512:14522  msg.sender */\n      caller\n        /* \"val48.sol\":14503:14523  balances[msg.sender] */\n      0xffffffffffffffffffffffffffffffffffffffff\n      and\n      0xffffffffffffffffffffffffffffffffffffffff\n      and\n      dup2\n      mstore\n      0x20\n      add\n      swap1\n      dup2\n      mstore\n      0x20\n      add\n      0x00\n      keccak256\n      sload\n        /* \"val48.sol\":14503:14528  balances[msg.sender] / 10 */\n      tag_68\n      swap2\n      swap1\n      tag_69\n      jump\t// in\n    tag_68:\n        /* \"val48.sol\":14468:14475  rewards */\n      0x02\n        /* \"val48.sol\":14468:14487  rewards[msg.sender] */\n      0x00\n        /* \"val48.sol\":14476:14486  msg.sender */\n      caller\n        /* \"val48.sol\":14468:14487  rewards[msg.sender] */\n      0xffffffffffffffffffffffffffffffffffffffff\n      and\n      0xffffffffffffffffffffffffffffffffffffffff\n      and\n      dup2\n      mstore\n      0x20\n      add\n      swap1\n      dup2\n      mstore\n      0x20\n      add\n      0x00\n      keccak256\n        /* \"val48.sol\":14468:14528  rewards[msg.sender] =... */\n      dup2\n      swap1\n      sstore\n      pop\n        /* \"val48.sol\":14646:14653  _amount */\n      dup1\n        /* \"val48.sol\":14622:14630  balances */\n      0x00\n        /* \"val48.sol\":14622:14642  balances[msg.sender] */\n      0x00\n        /* \"val48.sol\":14631:14641  msg.sender */\n      caller\n        /* \"val48.sol\":14622:14642  balances[msg.sender] */\n      0xffffffffffffffffffffffffffffffffffffffff\n      and\n      0xffffffffffffffffffffffffffffffffffffffff\n      and\n      dup2\n      mstore\n      0x20\n      add\n      swap1\n      dup2\n      mstore\n      0x20\n      add\n      0x00\n      keccak256\n      0x00\n        /* \"val48.sol\":14622:14653  balances[msg.sender] += _amount */\n      dup3\n      dup3\n      sload\n      tag_70\n      swap2\n      swap1\n      tag_71\n      jump\t// in\n    tag_70:\n      swap3\n      pop\n      pop\n      dup2\n      swap1\n      sstore\n      pop\n        /* \"val48.sol\":14754:14761  _amount */\n      dup1\n        /* \"val48.sol\":14739:14750  totalSupply */\n      0x01\n      0x00\n        /* \"val48.sol\":14739:14761  totalSupply += _amount */\n      dup3\n      dup3\n      sload\n      tag_72\n      swap2\n      swap1\n      tag_71\n      jump\t// in\n    tag_72:\n      swap3\n      pop\n      pop\n      dup2\n      swap1\n      sstore\n      pop\n        /* \"val48.sol\":14265:14769  function depositWrong(... */\n      pop\n      jump\t// out\n        /* \"val48.sol\":13403:14098  function depositCorrect(... */\n    tag_42:\n        /* \"val48.sol\":13608:13609  0 */\n      0x00\n        /* \"val48.sol\":13598:13605  _amount */\n      dup2\n        /* \"val48.sol\":13598:13609  _amount > 0 */\n      gt\n        /* \"val48.sol\":13576:13651  require(... */\n      tag_74\n      jumpi\n      mload(0x40)\n      0x08c379a000000000000000000000000000000000000000000000000000000000\n      dup2\n      mstore\n      0x04\n      add\n      tag_75\n      swap1\n      tag_76\n      jump\t// in\n    tag_75:\n      mload(0x40)\n      dup1\n      swap2\n      sub\n      swap1\n      revert\n    tag_74:\n        /* \"val48.sol\":13767:13774  _amount */\n      dup1\n        /* \"val48.sol\":13743:13751  balances */\n      0x00\n        /* \"val48.sol\":13743:13763  balances[msg.sender] */\n      0x00\n        /* \"val48.sol\":13752:13762  msg.sender */\n      caller\n        /* \"val48.sol\":13743:13763  balances[msg.sender] */\n      0xffffffffffffffffffffffffffffffffffffffff\n      and\n      0xffffffffffffffffffffffffffffffffffffffff\n      and\n      dup2\n      mstore\n      0x20\n      add\n      swap1\n      dup2\n      mstore\n      0x20\n      add\n      0x00\n      keccak256\n      0x00\n        /* \"val48.sol\":13743:13774  balances[msg.sender] += _amount */\n      dup3\n      dup3\n      sload\n      tag_77\n      swap2\n      swap1\n      tag_71\n      jump\t// in\n    tag_77:\n      swap3\n      pop\n      pop\n      dup2\n      swap1\n      sstore\n      pop\n        /* \"val48.sol\":13923:13930  _amount */\n      dup1\n        /* \"val48.sol\":13908:13919  totalSupply */\n      0x01\n      0x00\n        /* \"val48.sol\":13908:13930  totalSupply += _amount */\n      dup3\n      dup3\n      sload\n      tag_78\n      swap2\n      swap1\n      tag_71\n      jump\t// in\n    tag_78:\n      swap3\n      pop\n      pop\n      dup2\n      swap1\n      sstore\n      pop\n        /* \"val48.sol\":14088:14090  10 */\n      0x0a\n        /* \"val48.sol\":14065:14073  balances */\n      0x00\n        /* \"val48.sol\":14065:14085  balances[msg.sender] */\n      0x00\n        /* \"val48.sol\":14074:14084  msg.sender */\n      caller\n        /* \"val48.sol\":14065:14085  balances[msg.sender] */\n      0xffffffffffffffffffffffffffffffffffffffff\n      and\n      0xffffffffffffffffffffffffffffffffffffffff\n      and\n      dup2\n      mstore\n      0x20\n      add\n      swap1\n      dup2\n      mstore\n      0x20\n      add\n      0x00\n      keccak256\n      sload\n        /* \"val48.sol\":14065:14090  balances[msg.sender] / 10 */\n      tag_79\n      swap2\n      swap1\n      tag_69\n      jump\t// in\n    tag_79:\n        /* \"val48.sol\":14030:14037  rewards */\n      0x02\n        /* \"val48.sol\":14030:14049  rewards[msg.sender] */\n      0x00\n        /* \"val48.sol\":14038:14048  msg.sender */\n      caller\n        /* \"val48.sol\":14030:14049  rewards[msg.sender] */\n      0xffffffffffffffffffffffffffffffffffffffff\n      and\n      0xffffffffffffffffffffffffffffffffffffffff\n      and\n      dup2\n      mstore\n      0x20\n      add\n      swap1\n      dup2\n      mstore\n      0x20\n      add\n      0x00\n      keccak256\n        /* \"val48.sol\":14030:14090  rewards[msg.sender] =... */\n      dup2\n      swap1\n      sstore\n      pop\n        /* \"val48.sol\":13403:14098  function depositCorrect(... */\n      pop\n      jump\t// out\n        /* \"val48.sol\":14935:15446  function transfer(... */\n    tag_47:\n        /* \"val48.sol\":15158:15165  _amount */\n      dup1\n        /* \"val48.sol\":15134:15142  balances */\n      0x00\n        /* \"val48.sol\":15134:15154  balances[msg.sender] */\n      0x00\n        /* \"val48.sol\":15143:15153  msg.sender */\n      caller\n        /* \"val48.sol\":15134:15154  balances[msg.sender] */\n      0xffffffffffffffffffffffffffffffffffffffff\n      and\n      0xffffffffffffffffffffffffffffffffffffffff\n      and\n      dup2\n      mstore\n      0x20\n      add\n      swap1\n      dup2\n      mstore\n      0x20\n      add\n      0x00\n      keccak256\n      sload\n        /* \"val48.sol\":15134:15165  balances[msg.sender] >= _amount */\n      lt\n      iszero\n        /* \"val48.sol\":15112:15213  require(... */\n      tag_81\n      jumpi\n      mload(0x40)\n      0x08c379a000000000000000000000000000000000000000000000000000000000\n      dup2\n      mstore\n      0x04\n      add\n      tag_82\n      swap1\n      tag_55\n      jump\t// in\n    tag_82:\n      mload(0x40)\n      dup1\n      swap2\n      sub\n      swap1\n      revert\n    tag_81:\n        /* \"val48.sol\":15338:15345  _amount */\n      dup1\n        /* \"val48.sol\":15314:15322  balances */\n      0x00\n        /* \"val48.sol\":15314:15334  balances[msg.sender] */\n      0x00\n        /* \"val48.sol\":15323:15333  msg.sender */\n      caller\n        /* \"val48.sol\":15314:15334  balances[msg.sender] */\n      0xffffffffffffffffffffffffffffffffffffffff\n      and\n      0xffffffffffffffffffffffffffffffffffffffff\n      and\n      dup2\n      mstore\n      0x20\n      add\n      swap1\n      dup2\n      mstore\n      0x20\n      add\n      0x00\n      keccak256\n      0x00\n        /* \"val48.sol\":15314:15345  balances[msg.sender] -= _amount */\n      dup3\n      dup3\n      sload\n      tag_83\n      swap2\n      swap1\n      tag_57\n      jump\t// in\n    tag_83:\n      swap3\n      pop\n      pop\n      dup2\n      swap1\n      sstore\n      pop\n        /* \"val48.sol\":15431:15438  _amount */\n      dup1\n        /* \"val48.sol\":15414:15422  balances */\n      0x00\n        /* \"val48.sol\":15414:15427  balances[_to] */\n      0x00\n        /* \"val48.sol\":15423:15426  _to */\n      dup5\n        /* \"val48.sol\":15414:15427  balances[_to] */\n      0xffffffffffffffffffffffffffffffffffffffff\n      and\n      0xffffffffffffffffffffffffffffffffffffffff\n      and\n      dup2\n      mstore\n      0x20\n      add\n      swap1\n      dup2\n      mstore\n      0x20\n      add\n      0x00\n      keccak256\n      0x00\n        /* \"val48.sol\":15414:15438  balances[_to] += _amount */\n      dup3\n      dup3\n      sload\n      tag_84\n      swap2\n      swap1\n      tag_71\n      jump\t// in\n    tag_84:\n      swap3\n      pop\n      pop\n      dup2\n      swap1\n      sstore\n      pop\n        /* \"val48.sol\":14935:15446  function transfer(... */\n      pop\n      pop\n      jump\t// out\n        /* \"val48.sol\":15478:15853  function withdrawWrong(uint256 _amount) external ... */\n    tag_51:\n        /* \"val48.sol\":15576:15583  _amount */\n      dup1\n        /* \"val48.sol\":15552:15560  balances */\n      0x00\n        /* \"val48.sol\":15552:15572  balances[msg.sender] */\n      0x00\n        /* \"val48.sol\":15561:15571  msg.sender */\n      caller\n        /* \"val48.sol\":15552:15572  balances[msg.sender] */\n      0xffffffffffffffffffffffffffffffffffffffff\n      and\n      0xffffffffffffffffffffffffffffffffffffffff\n      and\n      dup2\n      mstore\n      0x20\n      add\n      swap1\n      dup2\n      mstore\n      0x20\n      add\n      0x00\n      keccak256\n      sload\n        /* \"val48.sol\":15552:15583  balances[msg.sender] >= _amount */\n      lt\n      iszero\n        /* \"val48.sol\":15544:15608  require(balances[msg.sender] >= _amount, \"Insufficient balance\") */\n      tag_86\n      jumpi\n      mload(0x40)\n      0x08c379a000000000000000000000000000000000000000000000000000000000\n      dup2\n      mstore\n      0x04\n      add\n      tag_87\n      swap1\n      tag_55\n      jump\t// in\n    tag_87:\n      mload(0x40)\n      dup1\n      swap2\n      sub\n      swap1\n      revert\n    tag_86:\n        /* \"val48.sol\":15622:15634  bool success */\n      0x00\n        /* \"val48.sol\":15647:15657  msg.sender */\n      caller\n        /* \"val48.sol\":15639:15663  payable(msg.sender).call */\n      0xffffffffffffffffffffffffffffffffffffffff\n      and\n        /* \"val48.sol\":15695:15702  _amount */\n      dup3\n        /* \"val48.sol\":15639:15718  payable(msg.sender).call... */\n      mload(0x40)\n      tag_88\n      swap1\n      tag_60\n      jump\t// in\n    tag_88:\n      0x00\n      mload(0x40)\n      dup1\n      dup4\n      sub\n      dup2\n      dup6\n      dup8\n      gas\n      call\n      swap3\n      pop\n      pop\n      pop\n      returndatasize\n      dup1\n      0x00\n      dup2\n      eq\n      tag_91\n      jumpi\n      mload(0x40)\n      swap2\n      pop\n      and(add(returndatasize, 0x3f), not(0x1f))\n      dup3\n      add\n      0x40\n      mstore\n      returndatasize\n      dup3\n      mstore\n      returndatasize\n      0x00\n      0x20\n      dup5\n      add\n      returndatacopy\n      jump(tag_90)\n    tag_91:\n      0x60\n      swap2\n      pop\n    tag_90:\n      pop\n        /* \"val48.sol\":15621:15718  (bool success,) = payable(msg.sender).call... */\n      pop\n      swap1\n      pop\n        /* \"val48.sol\":15739:15746  success */\n      dup1\n        /* \"val48.sol\":15731:15766  require(success, \"Transfer failed\") */\n      tag_92\n      jumpi\n      mload(0x40)\n      0x08c379a000000000000000000000000000000000000000000000000000000000\n      dup2\n      mstore\n      0x04\n      add\n      tag_93\n      swap1\n      tag_66\n      jump\t// in\n    tag_93:\n      mload(0x40)\n      dup1\n      swap2\n      sub\n      swap1\n      revert\n    tag_92:\n        /* \"val48.sol\":15803:15810  _amount */\n      dup2\n        /* \"val48.sol\":15779:15787  balances */\n      0x00\n        /* \"val48.sol\":15779:15799  balances[msg.sender] */\n      0x00\n        /* \"val48.sol\":15788:15798  msg.sender */\n      caller\n        /* \"val48.sol\":15779:15799  balances[msg.sender] */\n      0xffffffffffffffffffffffffffffffffffffffff\n      and\n      0xffffffffffffffffffffffffffffffffffffffff\n      and\n      dup2\n      mstore\n      0x20\n      add\n      swap1\n      dup2\n      mstore\n      0x20\n      add\n      0x00\n      keccak256\n      0x00\n        /* \"val48.sol\":15779:15810  balances[msg.sender] -= _amount */\n      dup3\n      dup3\n      sload\n      tag_94\n      swap2\n      swap1\n      tag_57\n      jump\t// in\n    tag_94:\n      swap3\n      pop\n      pop\n      dup2\n      swap1\n      sstore\n      pop\n        /* \"val48.sol\":15838:15845  _amount */\n      dup2\n        /* \"val48.sol\":15823:15834  totalSupply */\n      0x01\n      0x00\n        /* \"val48.sol\":15823:15845  totalSupply -= _amount */\n      dup3\n      dup3\n      sload\n      tag_95\n      swap2\n      swap1\n      tag_57\n      jump\t// in\n    tag_95:\n      swap3\n      pop\n      pop\n      dup2\n      swap1\n      sstore\n      pop\n        /* \"val48.sol\":15533:15853  {... */\n      pop\n        /* \"val48.sol\":15478:15853  function withdrawWrong(uint256 _amount) external ... */\n      pop\n      jump\t// out\n        /* \"#utility.yul\":88:205   */\n    tag_97:\n        /* \"#utility.yul\":197:198   */\n      0x00\n        /* \"#utility.yul\":194:195   */\n      0x00\n        /* \"#utility.yul\":187:199   */\n      revert\n        /* \"#utility.yul\":334:460   */\n    tag_99:\n        /* \"#utility.yul\":371:378   */\n      0x00\n        /* \"#utility.yul\":411:453   */\n      0xffffffffffffffffffffffffffffffffffffffff\n        /* \"#utility.yul\":404:409   */\n      dup3\n        /* \"#utility.yul\":400:454   */\n      and\n        /* \"#utility.yul\":389:454   */\n      swap1\n      pop\n        /* \"#utility.yul\":334:460   */\n      swap2\n      swap1\n      pop\n      jump\t// out\n        /* \"#utility.yul\":466:562   */\n    tag_100:\n        /* \"#utility.yul\":503:510   */\n      0x00\n        /* \"#utility.yul\":532:556   */\n      tag_125\n        /* \"#utility.yul\":550:555   */\n      dup3\n        /* \"#utility.yul\":532:556   */\n      tag_99\n      jump\t// in\n    tag_125:\n        /* \"#utility.yul\":521:556   */\n      swap1\n      pop\n        /* \"#utility.yul\":466:562   */\n      swap2\n      swap1\n      pop\n      jump\t// out\n        /* \"#utility.yul\":568:690   */\n    tag_101:\n        /* \"#utility.yul\":641:665   */\n      tag_127\n        /* \"#utility.yul\":659:664   */\n      dup2\n        /* \"#utility.yul\":641:665   */\n      tag_100\n      jump\t// in\n    tag_127:\n        /* \"#utility.yul\":634:639   */\n      dup2\n        /* \"#utility.yul\":631:666   */\n      eq\n        /* \"#utility.yul\":621:684   */\n      tag_128\n      jumpi\n        /* \"#utility.yul\":680:681   */\n      0x00\n        /* \"#utility.yul\":677:678   */\n      0x00\n        /* \"#utility.yul\":670:682   */\n      revert\n        /* \"#utility.yul\":621:684   */\n    tag_128:\n        /* \"#utility.yul\":568:690   */\n      pop\n      jump\t// out\n        /* \"#utility.yul\":696:835   */\n    tag_102:\n        /* \"#utility.yul\":742:747   */\n      0x00\n        /* \"#utility.yul\":780:786   */\n      dup2\n        /* \"#utility.yul\":767:787   */\n      calldataload\n        /* \"#utility.yul\":758:787   */\n      swap1\n      pop\n        /* \"#utility.yul\":796:829   */\n      tag_130\n        /* \"#utility.yul\":823:828   */\n      dup2\n        /* \"#utility.yul\":796:829   */\n      tag_101\n      jump\t// in\n    tag_130:\n        /* \"#utility.yul\":696:835   */\n      swap3\n      swap2\n      pop\n      pop\n      jump\t// out\n        /* \"#utility.yul\":841:1170   */\n    tag_17:\n        /* \"#utility.yul\":900:906   */\n      0x00\n        /* \"#utility.yul\":949:951   */\n      0x20\n        /* \"#utility.yul\":937:946   */\n      dup3\n        /* \"#utility.yul\":928:935   */\n      dup5\n        /* \"#utility.yul\":924:947   */\n      sub\n        /* \"#utility.yul\":920:952   */\n      slt\n        /* \"#utility.yul\":917:1036   */\n      iszero\n      tag_132\n      jumpi\n        /* \"#utility.yul\":955:1034   */\n      tag_133\n      tag_97\n      jump\t// in\n    tag_133:\n        /* \"#utility.yul\":917:1036   */\n    tag_132:\n        /* \"#utility.yul\":1075:1076   */\n      0x00\n        /* \"#utility.yul\":1100:1153   */\n      tag_134\n        /* \"#utility.yul\":1145:1152   */\n      dup5\n        /* \"#utility.yul\":1136:1142   */\n      dup3\n        /* \"#utility.yul\":1125:1134   */\n      dup6\n        /* \"#utility.yul\":1121:1143   */\n      add\n        /* \"#utility.yul\":1100:1153   */\n      tag_102\n      jump\t// in\n    tag_134:\n        /* \"#utility.yul\":1090:1153   */\n      swap2\n      pop\n        /* \"#utility.yul\":1046:1163   */\n      pop\n        /* \"#utility.yul\":841:1170   */\n      swap3\n      swap2\n      pop\n      pop\n      jump\t// out\n        /* \"#utility.yul\":1176:1253   */\n    tag_103:\n        /* \"#utility.yul\":1213:1220   */\n      0x00\n        /* \"#utility.yul\":1242:1247   */\n      dup2\n        /* \"#utility.yul\":1231:1247   */\n      swap1\n      pop\n        /* \"#utility.yul\":1176:1253   */\n      swap2\n      swap1\n      pop\n      jump\t// out\n        /* \"#utility.yul\":1259:1377   */\n    tag_104:\n        /* \"#utility.yul\":1346:1370   */\n      tag_137\n        /* \"#utility.yul\":1364:1369   */\n      dup2\n        /* \"#utility.yul\":1346:1370   */\n      tag_103\n      jump\t// in\n    tag_137:\n        /* \"#utility.yul\":1341:1344   */\n      dup3\n        /* \"#utility.yul\":1334:1371   */\n      mstore\n        /* \"#utility.yul\":1259:1377   */\n      pop\n      pop\n      jump\t// out\n        /* \"#utility.yul\":1383:1605   */\n    tag_20:\n        /* \"#utility.yul\":1476:1480   */\n      0x00\n        /* \"#utility.yul\":1514:1516   */\n      0x20\n        /* \"#utility.yul\":1503:1512   */\n      dup3\n        /* \"#utility.yul\":1499:1517   */\n      add\n        /* \"#utility.yul\":1491:1517   */\n      swap1\n      pop\n        /* \"#utility.yul\":1527:1598   */\n      tag_139\n        /* \"#utility.yul\":1595:1596   */\n      0x00\n        /* \"#utility.yul\":1584:1593   */\n      dup4\n        /* \"#utility.yul\":1580:1597   */\n      add\n        /* \"#utility.yul\":1571:1577   */\n      dup5\n        /* \"#utility.yul\":1527:1598   */\n      tag_104\n      jump\t// in\n    tag_139:\n        /* \"#utility.yul\":1383:1605   */\n      swap3\n      swap2\n      pop\n      pop\n      jump\t// out\n        /* \"#utility.yul\":1611:1733   */\n    tag_105:\n        /* \"#utility.yul\":1684:1708   */\n      tag_141\n        /* \"#utility.yul\":1702:1707   */\n      dup2\n        /* \"#utility.yul\":1684:1708   */\n      tag_103\n      jump\t// in\n    tag_141:\n        /* \"#utility.yul\":1677:1682   */\n      dup2\n        /* \"#utility.yul\":1674:1709   */\n      eq\n        /* \"#utility.yul\":1664:1727   */\n      tag_142\n      jumpi\n        /* \"#utility.yul\":1723:1724   */\n      0x00\n        /* \"#utility.yul\":1720:1721   */\n      0x00\n        /* \"#utility.yul\":1713:1725   */\n      revert\n        /* \"#utility.yul\":1664:1727   */\n    tag_142:\n        /* \"#utility.yul\":1611:1733   */\n      pop\n      jump\t// out\n        /* \"#utility.yul\":1739:1878   */\n    tag_106:\n        /* \"#utility.yul\":1785:1790   */\n      0x00\n        /* \"#utility.yul\":1823:1829   */\n      dup2\n        /* \"#utility.yul\":1810:1830   */\n      calldataload\n        /* \"#utility.yul\":1801:1830   */\n      swap1\n      pop\n        /* \"#utility.yul\":1839:1872   */\n      tag_144\n        /* \"#utility.yul\":1866:1871   */\n      dup2\n        /* \"#utility.yul\":1839:1872   */\n      tag_105\n      jump\t// in\n    tag_144:\n        /* \"#utility.yul\":1739:1878   */\n      swap3\n      swap2\n      pop\n      pop\n      jump\t// out\n        /* \"#utility.yul\":1884:2213   */\n    tag_33:\n        /* \"#utility.yul\":1943:1949   */\n      0x00\n        /* \"#utility.yul\":1992:1994   */\n      0x20\n        /* \"#utility.yul\":1980:1989   */\n      dup3\n        /* \"#utility.yul\":1971:1978   */\n      dup5\n        /* \"#utility.yul\":1967:1990   */\n      sub\n        /* \"#utility.yul\":1963:1995   */\n      slt\n        /* \"#utility.yul\":1960:2079   */\n      iszero\n      tag_146\n      jumpi\n        /* \"#utility.yul\":1998:2077   */\n      tag_147\n      tag_97\n      jump\t// in\n    tag_147:\n        /* \"#utility.yul\":1960:2079   */\n    tag_146:\n        /* \"#utility.yul\":2118:2119   */\n      0x00\n        /* \"#utility.yul\":2143:2196   */\n      tag_148\n        /* \"#utility.yul\":2188:2195   */\n      dup5\n        /* \"#utility.yul\":2179:2185   */\n      dup3\n        /* \"#utility.yul\":2168:2177   */\n      dup6\n        /* \"#utility.yul\":2164:2186   */\n      add\n        /* \"#utility.yul\":2143:2196   */\n      tag_106\n      jump\t// in\n    tag_148:\n        /* \"#utility.yul\":2133:2196   */\n      swap2\n      pop\n        /* \"#utility.yul\":2089:2206   */\n      pop\n        /* \"#utility.yul\":1884:2213   */\n      swap3\n      swap2\n      pop\n      pop\n      jump\t// out\n        /* \"#utility.yul\":2219:2693   */\n    tag_46:\n        /* \"#utility.yul\":2287:2293   */\n      0x00\n        /* \"#utility.yul\":2295:2301   */\n      0x00\n        /* \"#utility.yul\":2344:2346   */\n      0x40\n        /* \"#utility.yul\":2332:2341   */\n      dup4\n        /* \"#utility.yul\":2323:2330   */\n      dup6\n        /* \"#utility.yul\":2319:2342   */\n      sub\n        /* \"#utility.yul\":2315:2347   */\n      slt\n        /* \"#utility.yul\":2312:2431   */\n      iszero\n      tag_150\n      jumpi\n        /* \"#utility.yul\":2350:2429   */\n      tag_151\n      tag_97\n      jump\t// in\n    tag_151:\n        /* \"#utility.yul\":2312:2431   */\n    tag_150:\n        /* \"#utility.yul\":2470:2471   */\n      0x00\n        /* \"#utility.yul\":2495:2548   */\n      tag_152\n        /* \"#utility.yul\":2540:2547   */\n      dup6\n        /* \"#utility.yul\":2531:2537   */\n      dup3\n        /* \"#utility.yul\":2520:2529   */\n      dup7\n        /* \"#utility.yul\":2516:2538   */\n      add\n        /* \"#utility.yul\":2495:2548   */\n      tag_102\n      jump\t// in\n    tag_152:\n        /* \"#utility.yul\":2485:2548   */\n      swap3\n      pop\n        /* \"#utility.yul\":2441:2558   */\n      pop\n        /* \"#utility.yul\":2597:2599   */\n      0x20\n        /* \"#utility.yul\":2623:2676   */\n      tag_153\n        /* \"#utility.yul\":2668:2675   */\n      dup6\n        /* \"#utility.yul\":2659:2665   */\n      dup3\n        /* \"#utility.yul\":2648:2657   */\n      dup7\n        /* \"#utility.yul\":2644:2666   */\n      add\n        /* \"#utility.yul\":2623:2676   */\n      tag_106\n      jump\t// in\n    tag_153:\n        /* \"#utility.yul\":2613:2676   */\n      swap2\n      pop\n        /* \"#utility.yul\":2568:2686   */\n      pop\n        /* \"#utility.yul\":2219:2693   */\n      swap3\n      pop\n      swap3\n      swap1\n      pop\n      jump\t// out\n        /* \"#utility.yul\":2699:2868   */\n    tag_107:\n        /* \"#utility.yul\":2783:2794   */\n      0x00\n        /* \"#utility.yul\":2817:2823   */\n      dup3\n        /* \"#utility.yul\":2812:2815   */\n      dup3\n        /* \"#utility.yul\":2805:2824   */\n      mstore\n        /* \"#utility.yul\":2857:2861   */\n      0x20\n        /* \"#utility.yul\":2852:2855   */\n      dup3\n        /* \"#utility.yul\":2848:2862   */\n      add\n        /* \"#utility.yul\":2833:2862   */\n      swap1\n      pop\n        /* \"#utility.yul\":2699:2868   */\n      swap3\n      swap2\n      pop\n      pop\n      jump\t// out\n        /* \"#utility.yul\":2874:3044   */\n    tag_108:\n        /* \"#utility.yul\":3014:3036   */\n      0x496e73756666696369656e742062616c616e6365000000000000000000000000\n        /* \"#utility.yul\":3010:3011   */\n      0x00\n        /* \"#utility.yul\":3002:3008   */\n      dup3\n        /* \"#utility.yul\":2998:3012   */\n      add\n        /* \"#utility.yul\":2991:3037   */\n      mstore\n        /* \"#utility.yul\":2874:3044   */\n      pop\n      jump\t// out\n        /* \"#utility.yul\":3050:3416   */\n    tag_109:\n        /* \"#utility.yul\":3192:3195   */\n      0x00\n        /* \"#utility.yul\":3213:3280   */\n      tag_157\n        /* \"#utility.yul\":3277:3279   */\n      0x14\n        /* \"#utility.yul\":3272:3275   */\n      dup4\n        /* \"#utility.yul\":3213:3280   */\n      tag_107\n      jump\t// in\n    tag_157:\n        /* \"#utility.yul\":3206:3280   */\n      swap2\n      pop\n        /* \"#utility.yul\":3289:3382   */\n      tag_158\n        /* \"#utility.yul\":3378:3381   */\n      dup3\n        /* \"#utility.yul\":3289:3382   */\n      tag_108\n      jump\t// in\n    tag_158:\n        /* \"#utility.yul\":3407:3409   */\n      0x20\n        /* \"#utility.yul\":3402:3405   */\n      dup3\n        /* \"#utility.yul\":3398:3410   */\n      add\n        /* \"#utility.yul\":3391:3410   */\n      swap1\n      pop\n        /* \"#utility.yul\":3050:3416   */\n      swap2\n      swap1\n      pop\n      jump\t// out\n        /* \"#utility.yul\":3422:3841   */\n    tag_55:\n        /* \"#utility.yul\":3588:3592   */\n      0x00\n        /* \"#utility.yul\":3626:3628   */\n      0x20\n        /* \"#utility.yul\":3615:3624   */\n      dup3\n        /* \"#utility.yul\":3611:3629   */\n      add\n        /* \"#utility.yul\":3603:3629   */\n      swap1\n      pop\n        /* \"#utility.yul\":3675:3684   */\n      dup2\n        /* \"#utility.yul\":3669:3673   */\n      dup2\n        /* \"#utility.yul\":3665:3685   */\n      sub\n        /* \"#utility.yul\":3661:3662   */\n      0x00\n        /* \"#utility.yul\":3650:3659   */\n      dup4\n        /* \"#utility.yul\":3646:3663   */\n      add\n        /* \"#utility.yul\":3639:3686   */\n      mstore\n        /* \"#utility.yul\":3703:3834   */\n      tag_160\n        /* \"#utility.yul\":3829:3833   */\n      dup2\n        /* \"#utility.yul\":3703:3834   */\n      tag_109\n      jump\t// in\n    tag_160:\n        /* \"#utility.yul\":3695:3834   */\n      swap1\n      pop\n        /* \"#utility.yul\":3422:3841   */\n      swap2\n      swap1\n      pop\n      jump\t// out\n        /* \"#utility.yul\":3847:4027   */\n    tag_110:\n        /* \"#utility.yul\":3895:3972   */\n      0x4e487b7100000000000000000000000000000000000000000000000000000000\n        /* \"#utility.yul\":3892:3893   */\n      0x00\n        /* \"#utility.yul\":3885:3973   */\n      mstore\n        /* \"#utility.yul\":3992:3996   */\n      0x11\n        /* \"#utility.yul\":3989:3990   */\n      0x04\n        /* \"#utility.yul\":3982:3997   */\n      mstore\n        /* \"#utility.yul\":4016:4020   */\n      0x24\n        /* \"#utility.yul\":4013:4014   */\n      0x00\n        /* \"#utility.yul\":4006:4021   */\n      revert\n        /* \"#utility.yul\":4033:4227   */\n    tag_57:\n        /* \"#utility.yul\":4073:4077   */\n      0x00\n        /* \"#utility.yul\":4093:4113   */\n      tag_163\n        /* \"#utility.yul\":4111:4112   */\n      dup3\n        /* \"#utility.yul\":4093:4113   */\n      tag_103\n      jump\t// in\n    tag_163:\n        /* \"#utility.yul\":4088:4113   */\n      swap2\n      pop\n        /* \"#utility.yul\":4127:4147   */\n      tag_164\n        /* \"#utility.yul\":4145:4146   */\n      dup4\n        /* \"#utility.yul\":4127:4147   */\n      tag_103\n      jump\t// in\n    tag_164:\n        /* \"#utility.yul\":4122:4147   */\n      swap3\n      pop\n        /* \"#utility.yul\":4171:4172   */\n      dup3\n        /* \"#utility.yul\":4168:4169   */\n      dup3\n        /* \"#utility.yul\":4164:4173   */\n      sub\n        /* \"#utility.yul\":4156:4173   */\n      swap1\n      pop\n        /* \"#utility.yul\":4195:4196   */\n      dup2\n        /* \"#utility.yul\":4189:4193   */\n      dup2\n        /* \"#utility.yul\":4186:4197   */\n      gt\n        /* \"#utility.yul\":4183:4220   */\n      iszero\n      tag_165\n      jumpi\n        /* \"#utility.yul\":4200:4218   */\n      tag_166\n      tag_110\n      jump\t// in\n    tag_166:\n        /* \"#utility.yul\":4183:4220   */\n    tag_165:\n        /* \"#utility.yul\":4033:4227   */\n      swap3\n      swap2\n      pop\n      pop\n      jump\t// out\n        /* \"#utility.yul\":4233:4380   */\n    tag_111:\n        /* \"#utility.yul\":4334:4345   */\n      0x00\n        /* \"#utility.yul\":4371:4374   */\n      dup2\n        /* \"#utility.yul\":4356:4374   */\n      swap1\n      pop\n        /* \"#utility.yul\":4233:4380   */\n      swap3\n      swap2\n      pop\n      pop\n      jump\t// out\n        /* \"#utility.yul\":4386:4500   */\n    tag_112:\n      pop\n      jump\t// out\n        /* \"#utility.yul\":4506:4904   */\n    tag_113:\n        /* \"#utility.yul\":4665:4668   */\n      0x00\n        /* \"#utility.yul\":4686:4769   */\n      tag_170\n        /* \"#utility.yul\":4767:4768   */\n      0x00\n        /* \"#utility.yul\":4762:4765   */\n      dup4\n        /* \"#utility.yul\":4686:4769   */\n      tag_111\n      jump\t// in\n    tag_170:\n        /* \"#utility.yul\":4679:4769   */\n      swap2\n      pop\n        /* \"#utility.yul\":4778:4871   */\n      tag_171\n        /* \"#utility.yul\":4867:4870   */\n      dup3\n        /* \"#utility.yul\":4778:4871   */\n      tag_112\n      jump\t// in\n    tag_171:\n        /* \"#utility.yul\":4896:4897   */\n      0x00\n        /* \"#utility.yul\":4891:4894   */\n      dup3\n        /* \"#utility.yul\":4887:4898   */\n      add\n        /* \"#utility.yul\":4880:4898   */\n      swap1\n      pop\n        /* \"#utility.yul\":4506:4904   */\n      swap2\n      swap1\n      pop\n      jump\t// out\n        /* \"#utility.yul\":4910:5289   */\n    tag_60:\n        /* \"#utility.yul\":5094:5097   */\n      0x00\n        /* \"#utility.yul\":5116:5263   */\n      tag_173\n        /* \"#utility.yul\":5259:5262   */\n      dup3\n        /* \"#utility.yul\":5116:5263   */\n      tag_113\n      jump\t// in\n    tag_173:\n        /* \"#utility.yul\":5109:5263   */\n      swap2\n      pop\n        /* \"#utility.yul\":5280:5283   */\n      dup2\n        /* \"#utility.yul\":5273:5283   */\n      swap1\n      pop\n        /* \"#utility.yul\":4910:5289   */\n      swap2\n      swap1\n      pop\n      jump\t// out\n        /* \"#utility.yul\":5295:5460   */\n    tag_114:\n        /* \"#utility.yul\":5435:5452   */\n      0x5472616e73666572206661696c65640000000000000000000000000000000000\n        /* \"#utility.yul\":5431:5432   */\n      0x00\n        /* \"#utility.yul\":5423:5429   */\n      dup3\n        /* \"#utility.yul\":5419:5433   */\n      add\n        /* \"#utility.yul\":5412:5453   */\n      mstore\n        /* \"#utility.yul\":5295:5460   */\n      pop\n      jump\t// out\n        /* \"#utility.yul\":5466:5832   */\n    tag_115:\n        /* \"#utility.yul\":5608:5611   */\n      0x00\n        /* \"#utility.yul\":5629:5696   */\n      tag_176\n        /* \"#utility.yul\":5693:5695   */\n      0x0f\n        /* \"#utility.yul\":5688:5691   */\n      dup4\n        /* \"#utility.yul\":5629:5696   */\n      tag_107\n      jump\t// in\n    tag_176:\n        /* \"#utility.yul\":5622:5696   */\n      swap2\n      pop\n        /* \"#utility.yul\":5705:5798   */\n      tag_177\n        /* \"#utility.yul\":5794:5797   */\n      dup3\n        /* \"#utility.yul\":5705:5798   */\n      tag_114\n      jump\t// in\n    tag_177:\n        /* \"#utility.yul\":5823:5825   */\n      0x20\n        /* \"#utility.yul\":5818:5821   */\n      dup3\n        /* \"#utility.yul\":5814:5826   */\n      add\n        /* \"#utility.yul\":5807:5826   */\n      swap1\n      pop\n        /* \"#utility.yul\":5466:5832   */\n      swap2\n      swap1\n      pop\n      jump\t// out\n        /* \"#utility.yul\":5838:6257   */\n    tag_66:\n        /* \"#utility.yul\":6004:6008   */\n      0x00\n        /* \"#utility.yul\":6042:6044   */\n      0x20\n        /* \"#utility.yul\":6031:6040   */\n      dup3\n        /* \"#utility.yul\":6027:6045   */\n      add\n        /* \"#utility.yul\":6019:6045   */\n      swap1\n      pop\n        /* \"#utility.yul\":6091:6100   */\n      dup2\n        /* \"#utility.yul\":6085:6089   */\n      dup2\n        /* \"#utility.yul\":6081:6101   */\n      sub\n        /* \"#utility.yul\":6077:6078   */\n      0x00\n        /* \"#utility.yul\":6066:6075   */\n      dup4\n        /* \"#utility.yul\":6062:6079   */\n      add\n        /* \"#utility.yul\":6055:6102   */\n      mstore\n        /* \"#utility.yul\":6119:6250   */\n      tag_179\n        /* \"#utility.yul\":6245:6249   */\n      dup2\n        /* \"#utility.yul\":6119:6250   */\n      tag_115\n      jump\t// in\n    tag_179:\n        /* \"#utility.yul\":6111:6250   */\n      swap1\n      pop\n        /* \"#utility.yul\":5838:6257   */\n      swap2\n      swap1\n      pop\n      jump\t// out\n        /* \"#utility.yul\":6263:6443   */\n    tag_116:\n        /* \"#utility.yul\":6311:6388   */\n      0x4e487b7100000000000000000000000000000000000000000000000000000000\n        /* \"#utility.yul\":6308:6309   */\n      0x00\n        /* \"#utility.yul\":6301:6389   */\n      mstore\n        /* \"#utility.yul\":6408:6412   */\n      0x12\n        /* \"#utility.yul\":6405:6406   */\n      0x04\n        /* \"#utility.yul\":6398:6413   */\n      mstore\n        /* \"#utility.yul\":6432:6436   */\n      0x24\n        /* \"#utility.yul\":6429:6430   */\n      0x00\n        /* \"#utility.yul\":6422:6437   */\n      revert\n        /* \"#utility.yul\":6449:6634   */\n    tag_69:\n        /* \"#utility.yul\":6489:6490   */\n      0x00\n        /* \"#utility.yul\":6506:6526   */\n      tag_182\n        /* \"#utility.yul\":6524:6525   */\n      dup3\n        /* \"#utility.yul\":6506:6526   */\n      tag_103\n      jump\t// in\n    tag_182:\n        /* \"#utility.yul\":6501:6526   */\n      swap2\n      pop\n        /* \"#utility.yul\":6540:6560   */\n      tag_183\n        /* \"#utility.yul\":6558:6559   */\n      dup4\n        /* \"#utility.yul\":6540:6560   */\n      tag_103\n      jump\t// in\n    tag_183:\n        /* \"#utility.yul\":6535:6560   */\n      swap3\n      pop\n        /* \"#utility.yul\":6579:6580   */\n      dup3\n        /* \"#utility.yul\":6569:6604   */\n      tag_184\n      jumpi\n        /* \"#utility.yul\":6584:6602   */\n      tag_185\n      tag_116\n      jump\t// in\n    tag_185:\n        /* \"#utility.yul\":6569:6604   */\n    tag_184:\n        /* \"#utility.yul\":6626:6627   */\n      dup3\n        /* \"#utility.yul\":6623:6624   */\n      dup3\n        /* \"#utility.yul\":6619:6628   */\n      div\n        /* \"#utility.yul\":6614:6628   */\n      swap1\n      pop\n        /* \"#utility.yul\":6449:6634   */\n      swap3\n      swap2\n      pop\n      pop\n      jump\t// out\n        /* \"#utility.yul\":6640:6831   */\n    tag_71:\n        /* \"#utility.yul\":6680:6683   */\n      0x00\n        /* \"#utility.yul\":6699:6719   */\n      tag_187\n        /* \"#utility.yul\":6717:6718   */\n      dup3\n        /* \"#utility.yul\":6699:6719   */\n      tag_103\n      jump\t// in\n    tag_187:\n        /* \"#utility.yul\":6694:6719   */\n      swap2\n      pop\n        /* \"#utility.yul\":6733:6753   */\n      tag_188\n        /* \"#utility.yul\":6751:6752   */\n      dup4\n        /* \"#utility.yul\":6733:6753   */\n      tag_103\n      jump\t// in\n    tag_188:\n        /* \"#utility.yul\":6728:6753   */\n      swap3\n      pop\n        /* \"#utility.yul\":6776:6777   */\n      dup3\n        /* \"#utility.yul\":6773:6774   */\n      dup3\n        /* \"#utility.yul\":6769:6778   */\n      add\n        /* \"#utility.yul\":6762:6778   */\n      swap1\n      pop\n        /* \"#utility.yul\":6797:6800   */\n      dup1\n        /* \"#utility.yul\":6794:6795   */\n      dup3\n        /* \"#utility.yul\":6791:6801   */\n      gt\n        /* \"#utility.yul\":6788:6824   */\n      iszero\n      tag_189\n      jumpi\n        /* \"#utility.yul\":6804:6822   */\n      tag_190\n      tag_110\n      jump\t// in\n    tag_190:\n        /* \"#utility.yul\":6788:6824   */\n    tag_189:\n        /* \"#utility.yul\":6640:6831   */\n      swap3\n      swap2\n      pop\n      pop\n      jump\t// out\n        /* \"#utility.yul\":6837:7001   */\n    tag_117:\n        /* \"#utility.yul\":6977:6993   */\n      0x496e76616c696420616d6f756e74000000000000000000000000000000000000\n        /* \"#utility.yul\":6973:6974   */\n      0x00\n        /* \"#utility.yul\":6965:6971   */\n      dup3\n        /* \"#utility.yul\":6961:6975   */\n      add\n        /* \"#utility.yul\":6954:6994   */\n      mstore\n        /* \"#utility.yul\":6837:7001   */\n      pop\n      jump\t// out\n        /* \"#utility.yul\":7007:7373   */\n    tag_118:\n        /* \"#utility.yul\":7149:7152   */\n      0x00\n        /* \"#utility.yul\":7170:7237   */\n      tag_193\n        /* \"#utility.yul\":7234:7236   */\n      0x0e\n        /* \"#utility.yul\":7229:7232   */\n      dup4\n        /* \"#utility.yul\":7170:7237   */\n      tag_107\n      jump\t// in\n    tag_193:\n        /* \"#utility.yul\":7163:7237   */\n      swap2\n      pop\n        /* \"#utility.yul\":7246:7339   */\n      tag_194\n        /* \"#utility.yul\":7335:7338   */\n      dup3\n        /* \"#utility.yul\":7246:7339   */\n      tag_117\n      jump\t// in\n    tag_194:\n        /* \"#utility.yul\":7364:7366   */\n      0x20\n        /* \"#utility.yul\":7359:7362   */\n      dup3\n        /* \"#utility.yul\":7355:7367   */\n      add\n        /* \"#utility.yul\":7348:7367   */\n      swap1\n      pop\n        /* \"#utility.yul\":7007:7373   */\n      swap2\n      swap1\n      pop\n      jump\t// out\n        /* \"#utility.yul\":7379:7798   */\n    tag_76:\n        /* \"#utility.yul\":7545:7549   */\n      0x00\n        /* \"#utility.yul\":7583:7585   */\n      0x20\n        /* \"#utility.yul\":7572:7581   */\n      dup3\n        /* \"#utility.yul\":7568:7586   */\n      add\n        /* \"#utility.yul\":7560:7586   */\n      swap1\n      pop\n        /* \"#utility.yul\":7632:7641   */\n      dup2\n        /* \"#utility.yul\":7626:7630   */\n      dup2\n        /* \"#utility.yul\":7622:7642   */\n      sub\n        /* \"#utility.yul\":7618:7619   */\n      0x00\n        /* \"#utility.yul\":7607:7616   */\n      dup4\n        /* \"#utility.yul\":7603:7620   */\n      add\n        /* \"#utility.yul\":7596:7643   */\n      mstore\n        /* \"#utility.yul\":7660:7791   */\n      tag_196\n        /* \"#utility.yul\":7786:7790   */\n      dup2\n        /* \"#utility.yul\":7660:7791   */\n      tag_118\n      jump\t// in\n    tag_196:\n        /* \"#utility.yul\":7652:7791   */\n      swap1\n      pop\n        /* \"#utility.yul\":7379:7798   */\n      swap2\n      swap1\n      pop\n      jump\t// out\n\n    auxdata: 0xa264697066735822122050fd0963c5ca131b7adc114a10659fd64508b35ea6e9b8e78cdc61350ace65f564736f6c63430008220033\n}\n",
				"bytecode": {
					"linkReferences": {},
					"object": "6080604052348015600e575f5ffd5b50610c9f8061001c5f395ff3fe60806040526004361061007e575f3560e01c80636c813fba1161004d5780636c813fba146101535780637748948b1461017b578063a9059cbb146101a3578063c7045a77146101cb57610085565b80630700037d1461008957806318160ddd146100c557806327e235e3146100ef578063319657e51461012b57610085565b3661008557005b5f5ffd5b348015610094575f5ffd5b506100af60048036038101906100aa9190610901565b6101f3565b6040516100bc9190610944565b60405180910390f35b3480156100d0575f5ffd5b506100d9610208565b6040516100e69190610944565b60405180910390f35b3480156100fa575f5ffd5b5061011560048036038101906101109190610901565b61020e565b6040516101229190610944565b60405180910390f35b348015610136575f5ffd5b50610151600480360381019061014c9190610987565b610222565b005b34801561015e575f5ffd5b5061017960048036038101906101749190610987565b6103b7565b005b348015610186575f5ffd5b506101a1600480360381019061019c9190610987565b6104ae565b005b3480156101ae575f5ffd5b506101c960048036038101906101c491906109b2565b6105e7565b005b3480156101d6575f5ffd5b506101f160048036038101906101ec9190610987565b61070e565b005b6002602052805f5260405f205f915090505481565b60015481565b5f602052805f5260405f205f915090505481565b805f5f3373ffffffffffffffffffffffffffffffffffffffff1673ffffffffffffffffffffffffffffffffffffffff1681526020019081526020015f205410156102a1576040517f08c379a000000000000000000000000000000000000000000000000000000000815260040161029890610a4a565b60405180910390fd5b805f5f3373ffffffffffffffffffffffffffffffffffffffff1673ffffffffffffffffffffffffffffffffffffffff1681526020019081526020015f205f8282546102ec9190610a95565b925050819055508060015f8282546103049190610a95565b925050819055505f3373ffffffffffffffffffffffffffffffffffffffff168260405161033090610af5565b5f6040518083038185875af1925050503d805f811461036a576040519150601f19603f3d011682016040523d82523d5f602084013e61036f565b606091505b50509050806103b3576040517f08c379a00000000000000000000000000000000000000000000000000000000081526004016103aa90610b53565b60405180910390fd5b5050565b600a5f5f3373ffffffffffffffffffffffffffffffffffffffff1673ffffffffffffffffffffffffffffffffffffffff1681526020019081526020015f20546104009190610b9e565b60025f3373ffffffffffffffffffffffffffffffffffffffff1673ffffffffffffffffffffffffffffffffffffffff1681526020019081526020015f2081905550805f5f3373ffffffffffffffffffffffffffffffffffffffff1673ffffffffffffffffffffffffffffffffffffffff1681526020019081526020015f205f82825461048c9190610bce565b925050819055508060015f8282546104a49190610bce565b9250508190555050565b5f81116104f0576040517f08c379a00000000000000000000000000000000000000000000000000000000081526004016104e790610c4b565b60405180910390fd5b805f5f3373ffffffffffffffffffffffffffffffffffffffff1673ffffffffffffffffffffffffffffffffffffffff1681526020019081526020015f205f82825461053b9190610bce565b925050819055508060015f8282546105539190610bce565b92505081905550600a5f5f3373ffffffffffffffffffffffffffffffffffffffff1673ffffffffffffffffffffffffffffffffffffffff1681526020019081526020015f20546105a39190610b9e565b60025f3373ffffffffffffffffffffffffffffffffffffffff1673ffffffffffffffffffffffffffffffffffffffff1681526020019081526020015f208190555050565b805f5f3373ffffffffffffffffffffffffffffffffffffffff1673ffffffffffffffffffffffffffffffffffffffff1681526020019081526020015f20541015610666576040517f08c379a000000000000000000000000000000000000000000000000000000000815260040161065d90610a4a565b60405180910390fd5b805f5f3373ffffffffffffffffffffffffffffffffffffffff1673ffffffffffffffffffffffffffffffffffffffff1681526020019081526020015f205f8282546106b19190610a95565b92505081905550805f5f8473ffffffffffffffffffffffffffffffffffffffff1673ffffffffffffffffffffffffffffffffffffffff1681526020019081526020015f205f8282546107039190610bce565b925050819055505050565b805f5f3373ffffffffffffffffffffffffffffffffffffffff1673ffffffffffffffffffffffffffffffffffffffff1681526020019081526020015f2054101561078d576040517f08c379a000000000000000000000000000000000000000000000000000000000815260040161078490610a4a565b60405180910390fd5b5f3373ffffffffffffffffffffffffffffffffffffffff16826040516107b290610af5565b5f6040518083038185875af1925050503d805f81146107ec576040519150601f19603f3d011682016040523d82523d5f602084013e6107f1565b606091505b5050905080610835576040517f08c379a000000000000000000000000000000000000000000000000000000000815260040161082c90610b53565b60405180910390fd5b815f5f3373ffffffffffffffffffffffffffffffffffffffff1673ffffffffffffffffffffffffffffffffffffffff1681526020019081526020015f205f8282546108809190610a95565b925050819055508160015f8282546108989190610a95565b925050819055505050565b5f5ffd5b5f73ffffffffffffffffffffffffffffffffffffffff82169050919050565b5f6108d0826108a7565b9050919050565b6108e0816108c6565b81146108ea575f5ffd5b50565b5f813590506108fb816108d7565b92915050565b5f60208284031215610916576109156108a3565b5b5f610923848285016108ed565b91505092915050565b5f819050919050565b61093e8161092c565b82525050565b5f6020820190506109575f830184610935565b92915050565b6109668161092c565b8114610970575f5ffd5b50565b5f813590506109818161095d565b92915050565b5f6020828403121561099c5761099b6108a3565b5b5f6109a984828501610973565b91505092915050565b5f5f604083850312156109c8576109c76108a3565b5b5f6109d5858286016108ed565b92505060206109e685828601610973565b9150509250929050565b5f82825260208201905092915050565b7f496e73756666696369656e742062616c616e63650000000000000000000000005f82015250565b5f610a346014836109f0565b9150610a3f82610a00565b602082019050919050565b5f6020820190508181035f830152610a6181610a28565b9050919050565b7f4e487b71000000000000000000000000000000000000000000000000000000005f52601160045260245ffd5b5f610a9f8261092c565b9150610aaa8361092c565b9250828203905081811115610ac257610ac1610a68565b5b92915050565b5f81905092915050565b50565b5f610ae05f83610ac8565b9150610aeb82610ad2565b5f82019050919050565b5f610aff82610ad5565b9150819050919050565b7f5472616e73666572206661696c656400000000000000000000000000000000005f82015250565b5f610b3d600f836109f0565b9150610b4882610b09565b602082019050919050565b5f6020820190508181035f830152610b6a81610b31565b9050919050565b7f4e487b71000000000000000000000000000000000000000000000000000000005f52601260045260245ffd5b5f610ba88261092c565b9150610bb38361092c565b925082610bc357610bc2610b71565b5b828204905092915050565b5f610bd88261092c565b9150610be38361092c565b9250828201905080821115610bfb57610bfa610a68565b5b92915050565b7f496e76616c696420616d6f756e740000000000000000000000000000000000005f82015250565b5f610c35600e836109f0565b9150610c4082610c01565b602082019050919050565b5f6020820190508181035f830152610c6281610c29565b905091905056fea264697066735822122050fd0963c5ca131b7adc114a10659fd64508b35ea6e9b8e78cdc61350ace65f564736f6c63430008220033",
					"opcodes": "PUSH1 0x80 PUSH1 0x40 MSTORE CALLVALUE DUP1 ISZERO PUSH1 0xE JUMPI PUSH0 PUSH0 REVERT JUMPDEST POP PUSH2 0xC9F DUP1 PUSH2 0x1C PUSH0 CODECOPY PUSH0 RETURN INVALID PUSH1 0x80 PUSH1 0x40 MSTORE PUSH1 0x4 CALLDATASIZE LT PUSH2 0x7E JUMPI PUSH0 CALLDATALOAD PUSH1 0xE0 SHR DUP1 PUSH4 0x6C813FBA GT PUSH2 0x4D JUMPI DUP1 PUSH4 0x6C813FBA EQ PUSH2 0x153 JUMPI DUP1 PUSH4 0x7748948B EQ PUSH2 0x17B JUMPI DUP1 PUSH4 0xA9059CBB EQ PUSH2 0x1A3 JUMPI DUP1 PUSH4 0xC7045A77 EQ PUSH2 0x1CB JUMPI PUSH2 0x85 JUMP JUMPDEST DUP1 PUSH4 0x700037D EQ PUSH2 0x89 JUMPI DUP1 PUSH4 0x18160DDD EQ PUSH2 0xC5 JUMPI DUP1 PUSH4 0x27E235E3 EQ PUSH2 0xEF JUMPI DUP1 PUSH4 0x319657E5 EQ PUSH2 0x12B JUMPI PUSH2 0x85 JUMP JUMPDEST CALLDATASIZE PUSH2 0x85 JUMPI STOP JUMPDEST PUSH0 PUSH0 REVERT JUMPDEST CALLVALUE DUP1 ISZERO PUSH2 0x94 JUMPI PUSH0 PUSH0 REVERT JUMPDEST POP PUSH2 0xAF PUSH1 0x4 DUP1 CALLDATASIZE SUB DUP2 ADD SWAP1 PUSH2 0xAA SWAP2 SWAP1 PUSH2 0x901 JUMP JUMPDEST PUSH2 0x1F3 JUMP JUMPDEST PUSH1 0x40 MLOAD PUSH2 0xBC SWAP2 SWAP1 PUSH2 0x944 JUMP JUMPDEST PUSH1 0x40 MLOAD DUP1 SWAP2 SUB SWAP1 RETURN JUMPDEST CALLVALUE DUP1 ISZERO PUSH2 0xD0 JUMPI PUSH0 PUSH0 REVERT JUMPDEST POP PUSH2 0xD9 PUSH2 0x208 JUMP JUMPDEST PUSH1 0x40 MLOAD PUSH2 0xE6 SWAP2 SWAP1 PUSH2 0x944 JUMP JUMPDEST PUSH1 0x40 MLOAD DUP1 SWAP2 SUB SWAP1 RETURN JUMPDEST CALLVALUE DUP1 ISZERO PUSH2 0xFA JUMPI PUSH0 PUSH0 REVERT JUMPDEST POP PUSH2 0x115 PUSH1 0x4 DUP1 CALLDATASIZE SUB DUP2 ADD SWAP1 PUSH2 0x110 SWAP2 SWAP1 PUSH2 0x901 JUMP JUMPDEST PUSH2 0x20E JUMP JUMPDEST PUSH1 0x40 MLOAD PUSH2 0x122 SWAP2 SWAP1 PUSH2 0x944 JUMP JUMPDEST PUSH1 0x40 MLOAD DUP1 SWAP2 SUB SWAP1 RETURN JUMPDEST CALLVALUE DUP1 ISZERO PUSH2 0x136 JUMPI PUSH0 PUSH0 REVERT JUMPDEST POP PUSH2 0x151 PUSH1 0x4 DUP1 CALLDATASIZE SUB DUP2 ADD SWAP1 PUSH2 0x14C SWAP2 SWAP1 PUSH2 0x987 JUMP JUMPDEST PUSH2 0x222 JUMP JUMPDEST STOP JUMPDEST CALLVALUE DUP1 ISZERO PUSH2 0x15E JUMPI PUSH0 PUSH0 REVERT JUMPDEST POP PUSH2 0x179 PUSH1 0x4 DUP1 CALLDATASIZE SUB DUP2 ADD SWAP1 PUSH2 0x174 SWAP2 SWAP1 PUSH2 0x987 JUMP JUMPDEST PUSH2 0x3B7 JUMP JUMPDEST STOP JUMPDEST CALLVALUE DUP1 ISZERO PUSH2 0x186 JUMPI PUSH0 PUSH0 REVERT JUMPDEST POP PUSH2 0x1A1 PUSH1 0x4 DUP1 CALLDATASIZE SUB DUP2 ADD SWAP1 PUSH2 0x19C SWAP2 SWAP1 PUSH2 0x987 JUMP JUMPDEST PUSH2 0x4AE JUMP JUMPDEST STOP JUMPDEST CALLVALUE DUP1 ISZERO PUSH2 0x1AE JUMPI PUSH0 PUSH0 REVERT JUMPDEST POP PUSH2 0x1C9 PUSH1 0x4 DUP1 CALLDATASIZE SUB DUP2 ADD SWAP1 PUSH2 0x1C4 SWAP2 SWAP1 PUSH2 0x9B2 JUMP JUMPDEST PUSH2 0x5E7 JUMP JUMPDEST STOP JUMPDEST CALLVALUE DUP1 ISZERO PUSH2 0x1D6 JUMPI PUSH0 PUSH0 REVERT JUMPDEST POP PUSH2 0x1F1 PUSH1 0x4 DUP1 CALLDATASIZE SUB DUP2 ADD SWAP1 PUSH2 0x1EC SWAP2 SWAP1 PUSH2 0x987 JUMP JUMPDEST PUSH2 0x70E JUMP JUMPDEST STOP JUMPDEST PUSH1 0x2 PUSH1 0x20 MSTORE DUP1 PUSH0 MSTORE PUSH1 0x40 PUSH0 KECCAK256 PUSH0 SWAP2 POP SWAP1 POP SLOAD DUP2 JUMP JUMPDEST PUSH1 0x1 SLOAD DUP2 JUMP JUMPDEST PUSH0 PUSH1 0x20 MSTORE DUP1 PUSH0 MSTORE PUSH1 0x40 PUSH0 KECCAK256 PUSH0 SWAP2 POP SWAP1 POP SLOAD DUP2 JUMP JUMPDEST DUP1 PUSH0 PUSH0 CALLER PUSH20 0xFFFFFFFFFFFFFFFFFFFFFFFFFFFFFFFFFFFFFFFF AND PUSH20 0xFFFFFFFFFFFFFFFFFFFFFFFFFFFFFFFFFFFFFFFF AND DUP2 MSTORE PUSH1 0x20 ADD SWAP1 DUP2 MSTORE PUSH1 0x20 ADD PUSH0 KECCAK256 SLOAD LT ISZERO PUSH2 0x2A1 JUMPI PUSH1 0x40 MLOAD PUSH32 0x8C379A000000000000000000000000000000000000000000000000000000000 DUP2 MSTORE PUSH1 0x4 ADD PUSH2 0x298 SWAP1 PUSH2 0xA4A JUMP JUMPDEST PUSH1 0x40 MLOAD DUP1 SWAP2 SUB SWAP1 REVERT JUMPDEST DUP1 PUSH0 PUSH0 CALLER PUSH20 0xFFFFFFFFFFFFFFFFFFFFFFFFFFFFFFFFFFFFFFFF AND PUSH20 0xFFFFFFFFFFFFFFFFFFFFFFFFFFFFFFFFFFFFFFFF AND DUP2 MSTORE PUSH1 0x20 ADD SWAP1 DUP2 MSTORE PUSH1 0x20 ADD PUSH0 KECCAK256 PUSH0 DUP3 DUP3 SLOAD PUSH2 0x2EC SWAP2 SWAP1 PUSH2 0xA95 JUMP JUMPDEST SWAP3 POP POP DUP2 SWAP1 SSTORE POP DUP1 PUSH1 0x1 PUSH0 DUP3 DUP3 SLOAD PUSH2 0x304 SWAP2 SWAP1 PUSH2 0xA95 JUMP JUMPDEST SWAP3 POP POP DUP2 SWAP1 SSTORE POP PUSH0 CALLER PUSH20 0xFFFFFFFFFFFFFFFFFFFFFFFFFFFFFFFFFFFFFFFF AND DUP3 PUSH1 0x40 MLOAD PUSH2 0x330 SWAP1 PUSH2 0xAF5 JUMP JUMPDEST PUSH0 PUSH1 0x40 MLOAD DUP1 DUP4 SUB DUP2 DUP6 DUP8 GAS CALL SWAP3 POP POP POP RETURNDATASIZE DUP1 PUSH0 DUP2 EQ PUSH2 0x36A JUMPI PUSH1 0x40 MLOAD SWAP2 POP PUSH1 0x1F NOT PUSH1 0x3F RETURNDATASIZE ADD AND DUP3 ADD PUSH1 0x40 MSTORE RETURNDATASIZE DUP3 MSTORE RETURNDATASIZE PUSH0 PUSH1 0x20 DUP5 ADD RETURNDATACOPY PUSH2 0x36F JUMP JUMPDEST PUSH1 0x60 SWAP2 POP JUMPDEST POP POP SWAP1 POP DUP1 PUSH2 0x3B3 JUMPI PUSH1 0x40 MLOAD PUSH32 0x8C379A000000000000000000000000000000000000000000000000000000000 DUP2 MSTORE PUSH1 0x4 ADD PUSH2 0x3AA SWAP1 PUSH2 0xB53 JUMP JUMPDEST PUSH1 0x40 MLOAD DUP1 SWAP2 SUB SWAP1 REVERT JUMPDEST POP POP JUMP JUMPDEST PUSH1 0xA PUSH0 PUSH0 CALLER PUSH20 0xFFFFFFFFFFFFFFFFFFFFFFFFFFFFFFFFFFFFFFFF AND PUSH20 0xFFFFFFFFFFFFFFFFFFFFFFFFFFFFFFFFFFFFFFFF AND DUP2 MSTORE PUSH1 0x20 ADD SWAP1 DUP2 MSTORE PUSH1 0x20 ADD PUSH0 KECCAK256 SLOAD PUSH2 0x400 SWAP2 SWAP1 PUSH2 0xB9E JUMP JUMPDEST PUSH1 0x2 PUSH0 CALLER PUSH20 0xFFFFFFFFFFFFFFFFFFFFFFFFFFFFFFFFFFFFFFFF AND PUSH20 0xFFFFFFFFFFFFFFFFFFFFFFFFFFFFFFFFFFFFFFFF AND DUP2 MSTORE PUSH1 0x20 ADD SWAP1 DUP2 MSTORE PUSH1 0x20 ADD PUSH0 KECCAK256 DUP2 SWAP1 SSTORE POP DUP1 PUSH0 PUSH0 CALLER PUSH20 0xFFFFFFFFFFFFFFFFFFFFFFFFFFFFFFFFFFFFFFFF AND PUSH20 0xFFFFFFFFFFFFFFFFFFFFFFFFFFFFFFFFFFFFFFFF AND DUP2 MSTORE PUSH1 0x20 ADD SWAP1 DUP2 MSTORE PUSH1 0x20 ADD PUSH0 KECCAK256 PUSH0 DUP3 DUP3 SLOAD PUSH2 0x48C SWAP2 SWAP1 PUSH2 0xBCE JUMP JUMPDEST SWAP3 POP POP DUP2 SWAP1 SSTORE POP DUP1 PUSH1 0x1 PUSH0 DUP3 DUP3 SLOAD PUSH2 0x4A4 SWAP2 SWAP1 PUSH2 0xBCE JUMP JUMPDEST SWAP3 POP POP DUP2 SWAP1 SSTORE POP POP JUMP JUMPDEST PUSH0 DUP2 GT PUSH2 0x4F0 JUMPI PUSH1 0x40 MLOAD PUSH32 0x8C379A000000000000000000000000000000000000000000000000000000000 DUP2 MSTORE PUSH1 0x4 ADD PUSH2 0x4E7 SWAP1 PUSH2 0xC4B JUMP JUMPDEST PUSH1 0x40 MLOAD DUP1 SWAP2 SUB SWAP1 REVERT JUMPDEST DUP1 PUSH0 PUSH0 CALLER PUSH20 0xFFFFFFFFFFFFFFFFFFFFFFFFFFFFFFFFFFFFFFFF AND PUSH20 0xFFFFFFFFFFFFFFFFFFFFFFFFFFFFFFFFFFFFFFFF AND DUP2 MSTORE PUSH1 0x20 ADD SWAP1 DUP2 MSTORE PUSH1 0x20 ADD PUSH0 KECCAK256 PUSH0 DUP3 DUP3 SLOAD PUSH2 0x53B SWAP2 SWAP1 PUSH2 0xBCE JUMP JUMPDEST SWAP3 POP POP DUP2 SWAP1 SSTORE POP DUP1 PUSH1 0x1 PUSH0 DUP3 DUP3 SLOAD PUSH2 0x553 SWAP2 SWAP1 PUSH2 0xBCE JUMP JUMPDEST SWAP3 POP POP DUP2 SWAP1 SSTORE POP PUSH1 0xA PUSH0 PUSH0 CALLER PUSH20 0xFFFFFFFFFFFFFFFFFFFFFFFFFFFFFFFFFFFFFFFF AND PUSH20 0xFFFFFFFFFFFFFFFFFFFFFFFFFFFFFFFFFFFFFFFF AND DUP2 MSTORE PUSH1 0x20 ADD SWAP1 DUP2 MSTORE PUSH1 0x20 ADD PUSH0 KECCAK256 SLOAD PUSH2 0x5A3 SWAP2 SWAP1 PUSH2 0xB9E JUMP JUMPDEST PUSH1 0x2 PUSH0 CALLER PUSH20 0xFFFFFFFFFFFFFFFFFFFFFFFFFFFFFFFFFFFFFFFF AND PUSH20 0xFFFFFFFFFFFFFFFFFFFFFFFFFFFFFFFFFFFFFFFF AND DUP2 MSTORE PUSH1 0x20 ADD SWAP1 DUP2 MSTORE PUSH1 0x20 ADD PUSH0 KECCAK256 DUP2 SWAP1 SSTORE POP POP JUMP JUMPDEST DUP1 PUSH0 PUSH0 CALLER PUSH20 0xFFFFFFFFFFFFFFFFFFFFFFFFFFFFFFFFFFFFFFFF AND PUSH20 0xFFFFFFFFFFFFFFFFFFFFFFFFFFFFFFFFFFFFFFFF AND DUP2 MSTORE PUSH1 0x20 ADD SWAP1 DUP2 MSTORE PUSH1 0x20 ADD PUSH0 KECCAK256 SLOAD LT ISZERO PUSH2 0x666 JUMPI PUSH1 0x40 MLOAD PUSH32 0x8C379A000000000000000000000000000000000000000000000000000000000 DUP2 MSTORE PUSH1 0x4 ADD PUSH2 0x65D SWAP1 PUSH2 0xA4A JUMP JUMPDEST PUSH1 0x40 MLOAD DUP1 SWAP2 SUB SWAP1 REVERT JUMPDEST DUP1 PUSH0 PUSH0 CALLER PUSH20 0xFFFFFFFFFFFFFFFFFFFFFFFFFFFFFFFFFFFFFFFF AND PUSH20 0xFFFFFFFFFFFFFFFFFFFFFFFFFFFFFFFFFFFFFFFF AND DUP2 MSTORE PUSH1 0x20 ADD SWAP1 DUP2 MSTORE PUSH1 0x20 ADD PUSH0 KECCAK256 PUSH0 DUP3 DUP3 SLOAD PUSH2 0x6B1 SWAP2 SWAP1 PUSH2 0xA95 JUMP JUMPDEST SWAP3 POP POP DUP2 SWAP1 SSTORE POP DUP1 PUSH0 PUSH0 DUP5 PUSH20 0xFFFFFFFFFFFFFFFFFFFFFFFFFFFFFFFFFFFFFFFF AND PUSH20 0xFFFFFFFFFFFFFFFFFFFFFFFFFFFFFFFFFFFFFFFF AND DUP2 MSTORE PUSH1 0x20 ADD SWAP1 DUP2 MSTORE PUSH1 0x20 ADD PUSH0 KECCAK256 PUSH0 DUP3 DUP3 SLOAD PUSH2 0x703 SWAP2 SWAP1 PUSH2 0xBCE JUMP JUMPDEST SWAP3 POP POP DUP2 SWAP1 SSTORE POP POP POP JUMP JUMPDEST DUP1 PUSH0 PUSH0 CALLER PUSH20 0xFFFFFFFFFFFFFFFFFFFFFFFFFFFFFFFFFFFFFFFF AND PUSH20 0xFFFFFFFFFFFFFFFFFFFFFFFFFFFFFFFFFFFFFFFF AND DUP2 MSTORE PUSH1 0x20 ADD SWAP1 DUP2 MSTORE PUSH1 0x20 ADD PUSH0 KECCAK256 SLOAD LT ISZERO PUSH2 0x78D JUMPI PUSH1 0x40 MLOAD PUSH32 0x8C379A000000000000000000000000000000000000000000000000000000000 DUP2 MSTORE PUSH1 0x4 ADD PUSH2 0x784 SWAP1 PUSH2 0xA4A JUMP JUMPDEST PUSH1 0x40 MLOAD DUP1 SWAP2 SUB SWAP1 REVERT JUMPDEST PUSH0 CALLER PUSH20 0xFFFFFFFFFFFFFFFFFFFFFFFFFFFFFFFFFFFFFFFF AND DUP3 PUSH1 0x40 MLOAD PUSH2 0x7B2 SWAP1 PUSH2 0xAF5 JUMP JUMPDEST PUSH0 PUSH1 0x40 MLOAD DUP1 DUP4 SUB DUP2 DUP6 DUP8 GAS CALL SWAP3 POP POP POP RETURNDATASIZE DUP1 PUSH0 DUP2 EQ PUSH2 0x7EC JUMPI PUSH1 0x40 MLOAD SWAP2 POP PUSH1 0x1F NOT PUSH1 0x3F RETURNDATASIZE ADD AND DUP3 ADD PUSH1 0x40 MSTORE RETURNDATASIZE DUP3 MSTORE RETURNDATASIZE PUSH0 PUSH1 0x20 DUP5 ADD RETURNDATACOPY PUSH2 0x7F1 JUMP JUMPDEST PUSH1 0x60 SWAP2 POP JUMPDEST POP POP SWAP1 POP DUP1 PUSH2 0x835 JUMPI PUSH1 0x40 MLOAD PUSH32 0x8C379A000000000000000000000000000000000000000000000000000000000 DUP2 MSTORE PUSH1 0x4 ADD PUSH2 0x82C SWAP1 PUSH2 0xB53 JUMP JUMPDEST PUSH1 0x40 MLOAD DUP1 SWAP2 SUB SWAP1 REVERT JUMPDEST DUP2 PUSH0 PUSH0 CALLER PUSH20 0xFFFFFFFFFFFFFFFFFFFFFFFFFFFFFFFFFFFFFFFF AND PUSH20 0xFFFFFFFFFFFFFFFFFFFFFFFFFFFFFFFFFFFFFFFF AND DUP2 MSTORE PUSH1 0x20 ADD SWAP1 DUP2 MSTORE PUSH1 0x20 ADD PUSH0 KECCAK256 PUSH0 DUP3 DUP3 SLOAD PUSH2 0x880 SWAP2 SWAP1 PUSH2 0xA95 JUMP JUMPDEST SWAP3 POP POP DUP2 SWAP1 SSTORE POP DUP2 PUSH1 0x1 PUSH0 DUP3 DUP3 SLOAD PUSH2 0x898 SWAP2 SWAP1 PUSH2 0xA95 JUMP JUMPDEST SWAP3 POP POP DUP2 SWAP1 SSTORE POP POP POP JUMP JUMPDEST PUSH0 PUSH0 REVERT JUMPDEST PUSH0 PUSH20 0xFFFFFFFFFFFFFFFFFFFFFFFFFFFFFFFFFFFFFFFF DUP3 AND SWAP1 POP SWAP2 SWAP1 POP JUMP JUMPDEST PUSH0 PUSH2 0x8D0 DUP3 PUSH2 0x8A7 JUMP JUMPDEST SWAP1 POP SWAP2 SWAP1 POP JUMP JUMPDEST PUSH2 0x8E0 DUP2 PUSH2 0x8C6 JUMP JUMPDEST DUP2 EQ PUSH2 0x8EA JUMPI PUSH0 PUSH0 REVERT JUMPDEST POP JUMP JUMPDEST PUSH0 DUP2 CALLDATALOAD SWAP1 POP PUSH2 0x8FB DUP2 PUSH2 0x8D7 JUMP JUMPDEST SWAP3 SWAP2 POP POP JUMP JUMPDEST PUSH0 PUSH1 0x20 DUP3 DUP5 SUB SLT ISZERO PUSH2 0x916 JUMPI PUSH2 0x915 PUSH2 0x8A3 JUMP JUMPDEST JUMPDEST PUSH0 PUSH2 0x923 DUP5 DUP3 DUP6 ADD PUSH2 0x8ED JUMP JUMPDEST SWAP2 POP POP SWAP3 SWAP2 POP POP JUMP JUMPDEST PUSH0 DUP2 SWAP1 POP SWAP2 SWAP1 POP JUMP JUMPDEST PUSH2 0x93E DUP2 PUSH2 0x92C JUMP JUMPDEST DUP3 MSTORE POP POP JUMP JUMPDEST PUSH0 PUSH1 0x20 DUP3 ADD SWAP1 POP PUSH2 0x957 PUSH0 DUP4 ADD DUP5 PUSH2 0x935 JUMP JUMPDEST SWAP3 SWAP2 POP POP JUMP JUMPDEST PUSH2 0x966 DUP2 PUSH2 0x92C JUMP JUMPDEST DUP2 EQ PUSH2 0x970 JUMPI PUSH0 PUSH0 REVERT JUMPDEST POP JUMP JUMPDEST PUSH0 DUP2 CALLDATALOAD SWAP1 POP PUSH2 0x981 DUP2 PUSH2 0x95D JUMP JUMPDEST SWAP3 SWAP2 POP POP JUMP JUMPDEST PUSH0 PUSH1 0x20 DUP3 DUP5 SUB SLT ISZERO PUSH2 0x99C JUMPI PUSH2 0x99B PUSH2 0x8A3 JUMP JUMPDEST JUMPDEST PUSH0 PUSH2 0x9A9 DUP5 DUP3 DUP6 ADD PUSH2 0x973 JUMP JUMPDEST SWAP2 POP POP SWAP3 SWAP2 POP POP JUMP JUMPDEST PUSH0 PUSH0 PUSH1 0x40 DUP4 DUP6 SUB SLT ISZERO PUSH2 0x9C8 JUMPI PUSH2 0x9C7 PUSH2 0x8A3 JUMP JUMPDEST JUMPDEST PUSH0 PUSH2 0x9D5 DUP6 DUP3 DUP7 ADD PUSH2 0x8ED JUMP JUMPDEST SWAP3 POP POP PUSH1 0x20 PUSH2 0x9E6 DUP6 DUP3 DUP7 ADD PUSH2 0x973 JUMP JUMPDEST SWAP2 POP POP SWAP3 POP SWAP3 SWAP1 POP JUMP JUMPDEST PUSH0 DUP3 DUP3 MSTORE PUSH1 0x20 DUP3 ADD SWAP1 POP SWAP3 SWAP2 POP POP JUMP JUMPDEST PUSH32 0x496E73756666696369656E742062616C616E6365000000000000000000000000 PUSH0 DUP3 ADD MSTORE POP JUMP JUMPDEST PUSH0 PUSH2 0xA34 PUSH1 0x14 DUP4 PUSH2 0x9F0 JUMP JUMPDEST SWAP2 POP PUSH2 0xA3F DUP3 PUSH2 0xA00 JUMP JUMPDEST PUSH1 0x20 DUP3 ADD SWAP1 POP SWAP2 SWAP1 POP JUMP JUMPDEST PUSH0 PUSH1 0x20 DUP3 ADD SWAP1 POP DUP2 DUP2 SUB PUSH0 DUP4 ADD MSTORE PUSH2 0xA61 DUP2 PUSH2 0xA28 JUMP JUMPDEST SWAP1 POP SWAP2 SWAP1 POP JUMP JUMPDEST PUSH32 0x4E487B7100000000000000000000000000000000000000000000000000000000 PUSH0 MSTORE PUSH1 0x11 PUSH1 0x4 MSTORE PUSH1 0x24 PUSH0 REVERT JUMPDEST PUSH0 PUSH2 0xA9F DUP3 PUSH2 0x92C JUMP JUMPDEST SWAP2 POP PUSH2 0xAAA DUP4 PUSH2 0x92C JUMP JUMPDEST SWAP3 POP DUP3 DUP3 SUB SWAP1 POP DUP2 DUP2 GT ISZERO PUSH2 0xAC2 JUMPI PUSH2 0xAC1 PUSH2 0xA68 JUMP JUMPDEST JUMPDEST SWAP3 SWAP2 POP POP JUMP JUMPDEST PUSH0 DUP2 SWAP1 POP SWAP3 SWAP2 POP POP JUMP JUMPDEST POP JUMP JUMPDEST PUSH0 PUSH2 0xAE0 PUSH0 DUP4 PUSH2 0xAC8 JUMP JUMPDEST SWAP2 POP PUSH2 0xAEB DUP3 PUSH2 0xAD2 JUMP JUMPDEST PUSH0 DUP3 ADD SWAP1 POP SWAP2 SWAP1 POP JUMP JUMPDEST PUSH0 PUSH2 0xAFF DUP3 PUSH2 0xAD5 JUMP JUMPDEST SWAP2 POP DUP2 SWAP1 POP SWAP2 SWAP1 POP JUMP JUMPDEST PUSH32 0x5472616E73666572206661696C65640000000000000000000000000000000000 PUSH0 DUP3 ADD MSTORE POP JUMP JUMPDEST PUSH0 PUSH2 0xB3D PUSH1 0xF DUP4 PUSH2 0x9F0 JUMP JUMPDEST SWAP2 POP PUSH2 0xB48 DUP3 PUSH2 0xB09 JUMP JUMPDEST PUSH1 0x20 DUP3 ADD SWAP1 POP SWAP2 SWAP1 POP JUMP JUMPDEST PUSH0 PUSH1 0x20 DUP3 ADD SWAP1 POP DUP2 DUP2 SUB PUSH0 DUP4 ADD MSTORE PUSH2 0xB6A DUP2 PUSH2 0xB31 JUMP JUMPDEST SWAP1 POP SWAP2 SWAP1 POP JUMP JUMPDEST PUSH32 0x4E487B7100000000000000000000000000000000000000000000000000000000 PUSH0 MSTORE PUSH1 0x12 PUSH1 0x4 MSTORE PUSH1 0x24 PUSH0 REVERT JUMPDEST PUSH0 PUSH2 0xBA8 DUP3 PUSH2 0x92C JUMP JUMPDEST SWAP2 POP PUSH2 0xBB3 DUP4 PUSH2 0x92C JUMP JUMPDEST SWAP3 POP DUP3 PUSH2 0xBC3 JUMPI PUSH2 0xBC2 PUSH2 0xB71 JUMP JUMPDEST JUMPDEST DUP3 DUP3 DIV SWAP1 POP SWAP3 SWAP2 POP POP JUMP JUMPDEST PUSH0 PUSH2 0xBD8 DUP3 PUSH2 0x92C JUMP JUMPDEST SWAP2 POP PUSH2 0xBE3 DUP4 PUSH2 0x92C JUMP JUMPDEST SWAP3 POP DUP3 DUP3 ADD SWAP1 POP DUP1 DUP3 GT ISZERO PUSH2 0xBFB JUMPI PUSH2 0xBFA PUSH2 0xA68 JUMP JUMPDEST JUMPDEST SWAP3 SWAP2 POP POP JUMP JUMPDEST PUSH32 0x496E76616C696420616D6F756E74000000000000000000000000000000000000 PUSH0 DUP3 ADD MSTORE POP JUMP JUMPDEST PUSH0 PUSH2 0xC35 PUSH1 0xE DUP4 PUSH2 0x9F0 JUMP JUMPDEST SWAP2 POP PUSH2 0xC40 DUP3 PUSH2 0xC01 JUMP JUMPDEST PUSH1 0x20 DUP3 ADD SWAP1 POP SWAP2 SWAP1 POP JUMP JUMPDEST PUSH0 PUSH1 0x20 DUP3 ADD SWAP1 POP DUP2 DUP2 SUB PUSH0 DUP4 ADD MSTORE PUSH2 0xC62 DUP2 PUSH2 0xC29 JUMP JUMPDEST SWAP1 POP SWAP2 SWAP1 POP JUMP INVALID LOG2 PUSH5 0x6970667358 0x22 SLT KECCAK256 POP REVERT MULMOD PUSH4 0xC5CA131B PUSH27 0xDC114A10659FD64508B35EA6E9B8E78CDC61350ACE65F564736F6C PUSH4 0x43000822 STOP CALLER "
				},
				"gasEstimates": {
					"creation": {
						"codeDepositCost": "646200",
						"executionCost": "674",
						"totalCost": "646874"
					},
					"external": {
						"balances(address)": "2846",
						"depositCorrect(uint256)": "infinite",
						"depositWrong(uint256)": "infinite",
						"rewards(address)": "2803",
						"totalSupply()": "2448",
						"transfer(address,uint256)": "infinite",
						"withdrawSafe(uint256)": "infinite",
						"withdrawWrong(uint256)": "infinite"
					}
				},
				"methodIdentifiers": {
					"balances(address)": "27e235e3",
					"depositCorrect(uint256)": "7748948b",
					"depositWrong(uint256)": "6c813fba",
					"rewards(address)": "0700037d",
					"totalSupply()": "18160ddd",
					"transfer(address,uint256)": "a9059cbb",
					"withdrawSafe(uint256)": "319657e5",
					"withdrawWrong(uint256)": "c7045a77"
				}
			},
			"storageLayout": {
				"storage": [
					{
						"astId": 112,
						"contract": "val48.sol:OrderDependencyExample",
						"label": "balances",
						"offset": 0,
						"slot": "0",
						"type": "t_mapping(t_address,t_uint256)"
					},
					{
						"astId": 114,
						"contract": "val48.sol:OrderDependencyExample",
						"label": "totalSupply",
						"offset": 0,
						"slot": "1",
						"type": "t_uint256"
					},
					{
						"astId": 118,
						"contract": "val48.sol:OrderDependencyExample",
						"label": "rewards",
						"offset": 0,
						"slot": "2",
						"type": "t_mapping(t_address,t_uint256)"
					}
				],
				"types": {
					"t_address": {
						"encoding": "inplace",
						"label": "address",
						"numberOfBytes": "20"
					},
					"t_mapping(t_address,t_uint256)": {
						"encoding": "mapping",
						"key": "t_address",
						"label": "mapping(address => uint256)",
						"numberOfBytes": "32",
						"value": "t_uint256"
					},
					"t_uint256": {
						"encoding": "inplace",
						"label": "uint256",
						"numberOfBytes": "32"
					}
				}
			},
			"userdoc": {
				"kind": "user",
				"methods": {},
				"version": 1
			}
		}
	}
}