{
	"val48.sol": {
		"OrderDependencyExampleval": {
			"abi": [
				{
					"inputs": [
						{
							"internalType": "address",
							"name": "",
							"type": "address"
						}
					],
					"name": "balances",
					"outputs": [
						{
							"internalType": "uint256",
							"name": "",
							"type": "uint256"
						}
					],
					"stateMutability": "view",
					"type": "function"
				},
				{
					"inputs": [
						{
							"internalType": "uint256",
							"name": "_amount",
							"type": "uint256"
						}
					],
					"name": "depositCorrect",
					"outputs": [],
					"stateMutability": "nonpayable",
					"type": "function"
				},
				{
					"inputs": [
						{
							"internalType": "uint256",
							"name": "_amount",
							"type": "uint256"
						}
					],
					"name": "depositWrong",
					"outputs": [],
					"stateMutability": "nonpayable",
					"type": "function"
				},
				{
					"inputs": [
						{
							"internalType": "address",
							"name": "",
							"type": "address"
						}
					],
					"name": "rewards",
					"outputs": [
						{
							"internalType": "uint256",
							"name": "",
							"type": "uint256"
						}
					],
					"stateMutability": "view",
					"type": "function"
				},
				{
					"inputs": [],
					"name": "totalSupply",
					"outputs": [
						{
							"internalType": "uint256",
							"name": "",
							"type": "uint256"
						}
					],
					"stateMutability": "view",
					"type": "function"
				},
				{
					"inputs": [
						{
							"internalType": "address",
							"name": "_to",
							"type": "address"
						},
						{
							"internalType": "uint256",
							"name": "_amount",
							"type": "uint256"
						}
					],
					"name": "transfer",
					"outputs": [],
					"stateMutability": "nonpayable",
					"type": "function"
				}
			],
			"devdoc": {
				"kind": "dev",
				"methods": {},
				"version": 1
			},
			"evm": {
				"assembly": "    /* \"val48.sol\":1726:4234  contract OrderDependencyExampleval {... */\n  mstore(0x40, 0x80)\n  callvalue\n  dup1\n  iszero\n  tag_1\n  jumpi\n  revert(0x00, 0x00)\ntag_1:\n  pop\n  dataSize(sub_0)\n  dup1\n  dataOffset(sub_0)\n  0x00\n  codecopy\n  0x00\n  return\nstop\n\nsub_0: assembly {\n        /* \"val48.sol\":1726:4234  contract OrderDependencyExampleval {... */\n      mstore(0x40, 0x80)\n      callvalue\n      dup1\n      iszero\n      tag_1\n      jumpi\n      revert(0x00, 0x00)\n    tag_1:\n      pop\n      jumpi(tag_2, lt(calldatasize, 0x04))\n      shr(0xe0, calldataload(0x00))\n      dup1\n      0x0700037d\n      eq\n      tag_3\n      jumpi\n      dup1\n      0x18160ddd\n      eq\n      tag_4\n      jumpi\n      dup1\n      0x27e235e3\n      eq\n      tag_5\n      jumpi\n      dup1\n      0x6c813fba\n      eq\n      tag_6\n      jumpi\n      dup1\n      0x7748948b\n      eq\n      tag_7\n      jumpi\n      dup1\n      0xa9059cbb\n      eq\n      tag_8\n      jumpi\n    tag_2:\n      revert(0x00, 0x00)\n        /* \"val48.sol\":1974:2016  mapping(address => uint256) public rewards */\n    tag_3:\n      tag_9\n      0x04\n      dup1\n      calldatasize\n      sub\n      dup2\n      add\n      swap1\n      tag_10\n      swap2\n      swap1\n      tag_11\n      jump\t// in\n    tag_10:\n      tag_12\n      jump\t// in\n    tag_9:\n      mload(0x40)\n      tag_13\n      swap2\n      swap1\n      tag_14\n      jump\t// in\n    tag_13:\n      mload(0x40)\n      dup1\n      swap2\n      sub\n      swap1\n      return\n        /* \"val48.sol\":1899:1925  uint256 public totalSupply */\n    tag_4:\n      tag_15\n      tag_16\n      jump\t// in\n    tag_15:\n      mload(0x40)\n      tag_17\n      swap2\n      swap1\n      tag_14\n      jump\t// in\n    tag_17:\n      mload(0x40)\n      dup1\n      swap2\n      sub\n      swap1\n      return\n        /* \"val48.sol\":1809:1852  mapping(address => uint256) public balances */\n    tag_5:\n      tag_18\n      0x04\n      dup1\n      calldatasize\n      sub\n      dup2\n      add\n      swap1\n      tag_19\n      swap2\n      swap1\n      tag_11\n      jump\t// in\n    tag_19:\n      tag_20\n      jump\t// in\n    tag_18:\n      mload(0x40)\n      tag_21\n      swap2\n      swap1\n      tag_14\n      jump\t// in\n    tag_21:\n      mload(0x40)\n      dup1\n      swap2\n      sub\n      swap1\n      return\n        /* \"val48.sol\":3050:3554  function depositWrong(... */\n    tag_6:\n      tag_22\n      0x04\n      dup1\n      calldatasize\n      sub\n      dup2\n      add\n      swap1\n      tag_23\n      swap2\n      swap1\n      tag_24\n      jump\t// in\n    tag_23:\n      tag_25\n      jump\t// in\n    tag_22:\n      stop\n        /* \"val48.sol\":2188:2883  function depositCorrect(... */\n    tag_7:\n      tag_26\n      0x04\n      dup1\n      calldatasize\n      sub\n      dup2\n      add\n      swap1\n      tag_27\n      swap2\n      swap1\n      tag_24\n      jump\t// in\n    tag_27:\n      tag_28\n      jump\t// in\n    tag_26:\n      stop\n        /* \"val48.sol\":3720:4231  function transfer(... */\n    tag_8:\n      tag_29\n      0x04\n      dup1\n      calldatasize\n      sub\n      dup2\n      add\n      swap1\n      tag_30\n      swap2\n      swap1\n      tag_31\n      jump\t// in\n    tag_30:\n      tag_32\n      jump\t// in\n    tag_29:\n      stop\n        /* \"val48.sol\":1974:2016  mapping(address => uint256) public rewards */\n    tag_12:\n      mstore(0x20, 0x02)\n      dup1\n      0x00\n      mstore\n      keccak256(0x00, 0x40)\n      0x00\n      swap2\n      pop\n      swap1\n      pop\n      sload\n      dup2\n      jump\t// out\n        /* \"val48.sol\":1899:1925  uint256 public totalSupply */\n    tag_16:\n      sload(0x01)\n      dup2\n      jump\t// out\n        /* \"val48.sol\":1809:1852  mapping(address => uint256) public balances */\n    tag_20:\n      mstore(0x20, 0x00)\n      dup1\n      0x00\n      mstore\n      keccak256(0x00, 0x40)\n      0x00\n      swap2\n      pop\n      swap1\n      pop\n      sload\n      dup2\n      jump\t// out\n        /* \"val48.sol\":3050:3554  function depositWrong(... */\n    tag_25:\n        /* \"val48.sol\":3311:3313  10 */\n      0x0a\n        /* \"val48.sol\":3288:3296  balances */\n      0x00\n        /* \"val48.sol\":3288:3308  balances[msg.sender] */\n      0x00\n        /* \"val48.sol\":3297:3307  msg.sender */\n      caller\n        /* \"val48.sol\":3288:3308  balances[msg.sender] */\n      0xffffffffffffffffffffffffffffffffffffffff\n      and\n      0xffffffffffffffffffffffffffffffffffffffff\n      and\n      dup2\n      mstore\n      0x20\n      add\n      swap1\n      dup2\n      mstore\n      0x20\n      add\n      0x00\n      keccak256\n      sload\n        /* \"val48.sol\":3288:3313  balances[msg.sender] / 10 */\n      tag_34\n      swap2\n      swap1\n      tag_35\n      jump\t// in\n    tag_34:\n        /* \"val48.sol\":3253:3260  rewards */\n      0x02\n        /* \"val48.sol\":3253:3272  rewards[msg.sender] */\n      0x00\n        /* \"val48.sol\":3261:3271  msg.sender */\n      caller\n        /* \"val48.sol\":3253:3272  rewards[msg.sender] */\n      0xffffffffffffffffffffffffffffffffffffffff\n      and\n      0xffffffffffffffffffffffffffffffffffffffff\n      and\n      dup2\n      mstore\n      0x20\n      add\n      swap1\n      dup2\n      mstore\n      0x20\n      add\n      0x00\n      keccak256\n        /* \"val48.sol\":3253:3313  rewards[msg.sender] =... */\n      dup2\n      swap1\n      sstore\n      pop\n        /* \"val48.sol\":3431:3438  _amount */\n      dup1\n        /* \"val48.sol\":3407:3415  balances */\n      0x00\n        /* \"val48.sol\":3407:3427  balances[msg.sender] */\n      0x00\n        /* \"val48.sol\":3416:3426  msg.sender */\n      caller\n        /* \"val48.sol\":3407:3427  balances[msg.sender] */\n      0xffffffffffffffffffffffffffffffffffffffff\n      and\n      0xffffffffffffffffffffffffffffffffffffffff\n      and\n      dup2\n      mstore\n      0x20\n      add\n      swap1\n      dup2\n      mstore\n      0x20\n      add\n      0x00\n      keccak256\n      0x00\n        /* \"val48.sol\":3407:3438  balances[msg.sender] += _amount */\n      dup3\n      dup3\n      sload\n      tag_36\n      swap2\n      swap1\n      tag_37\n      jump\t// in\n    tag_36:\n      swap3\n      pop\n      pop\n      dup2\n      swap1\n      sstore\n      pop\n        /* \"val48.sol\":3539:3546  _amount */\n      dup1\n        /* \"val48.sol\":3524:3535  totalSupply */\n      0x01\n      0x00\n        /* \"val48.sol\":3524:3546  totalSupply += _amount */\n      dup3\n      dup3\n      sload\n      tag_38\n      swap2\n      swap1\n      tag_37\n      jump\t// in\n    tag_38:\n      swap3\n      pop\n      pop\n      dup2\n      swap1\n      sstore\n      pop\n        /* \"val48.sol\":3050:3554  function depositWrong(... */\n      pop\n      jump\t// out\n        /* \"val48.sol\":2188:2883  function depositCorrect(... */\n    tag_28:\n        /* \"val48.sol\":2393:2394  0 */\n      0x00\n        /* \"val48.sol\":2383:2390  _amount */\n      dup2\n        /* \"val48.sol\":2383:2394  _amount > 0 */\n      gt\n        /* \"val48.sol\":2361:2436  require(... */\n      tag_40\n      jumpi\n      mload(0x40)\n      0x08c379a000000000000000000000000000000000000000000000000000000000\n      dup2\n      mstore\n      0x04\n      add\n      tag_41\n      swap1\n      tag_42\n      jump\t// in\n    tag_41:\n      mload(0x40)\n      dup1\n      swap2\n      sub\n      swap1\n      revert\n    tag_40:\n        /* \"val48.sol\":2552:2559  _amount */\n      dup1\n        /* \"val48.sol\":2528:2536  balances */\n      0x00\n        /* \"val48.sol\":2528:2548  balances[msg.sender] */\n      0x00\n        /* \"val48.sol\":2537:2547  msg.sender */\n      caller\n        /* \"val48.sol\":2528:2548  balances[msg.sender] */\n      0xffffffffffffffffffffffffffffffffffffffff\n      and\n      0xffffffffffffffffffffffffffffffffffffffff\n      and\n      dup2\n      mstore\n      0x20\n      add\n      swap1\n      dup2\n      mstore\n      0x20\n      add\n      0x00\n      keccak256\n      0x00\n        /* \"val48.sol\":2528:2559  balances[msg.sender] += _amount */\n      dup3\n      dup3\n      sload\n      tag_43\n      swap2\n      swap1\n      tag_37\n      jump\t// in\n    tag_43:\n      swap3\n      pop\n      pop\n      dup2\n      swap1\n      sstore\n      pop\n        /* \"val48.sol\":2708:2715  _amount */\n      dup1\n        /* \"val48.sol\":2693:2704  totalSupply */\n      0x01\n      0x00\n        /* \"val48.sol\":2693:2715  totalSupply += _amount */\n      dup3\n      dup3\n      sload\n      tag_44\n      swap2\n      swap1\n      tag_37\n      jump\t// in\n    tag_44:\n      swap3\n      pop\n      pop\n      dup2\n      swap1\n      sstore\n      pop\n        /* \"val48.sol\":2873:2875  10 */\n      0x0a\n        /* \"val48.sol\":2850:2858  balances */\n      0x00\n        /* \"val48.sol\":2850:2870  balances[msg.sender] */\n      0x00\n        /* \"val48.sol\":2859:2869  msg.sender */\n      caller\n        /* \"val48.sol\":2850:2870  balances[msg.sender] */\n      0xffffffffffffffffffffffffffffffffffffffff\n      and\n      0xffffffffffffffffffffffffffffffffffffffff\n      and\n      dup2\n      mstore\n      0x20\n      add\n      swap1\n      dup2\n      mstore\n      0x20\n      add\n      0x00\n      keccak256\n      sload\n        /* \"val48.sol\":2850:2875  balances[msg.sender] / 10 */\n      tag_45\n      swap2\n      swap1\n      tag_35\n      jump\t// in\n    tag_45:\n        /* \"val48.sol\":2815:2822  rewards */\n      0x02\n        /* \"val48.sol\":2815:2834  rewards[msg.sender] */\n      0x00\n        /* \"val48.sol\":2823:2833  msg.sender */\n      caller\n        /* \"val48.sol\":2815:2834  rewards[msg.sender] */\n      0xffffffffffffffffffffffffffffffffffffffff\n      and\n      0xffffffffffffffffffffffffffffffffffffffff\n      and\n      dup2\n      mstore\n      0x20\n      add\n      swap1\n      dup2\n      mstore\n      0x20\n      add\n      0x00\n      keccak256\n        /* \"val48.sol\":2815:2875  rewards[msg.sender] =... */\n      dup2\n      swap1\n      sstore\n      pop\n        /* \"val48.sol\":2188:2883  function depositCorrect(... */\n      pop\n      jump\t// out\n        /* \"val48.sol\":3720:4231  function transfer(... */\n    tag_32:\n        /* \"val48.sol\":3943:3950  _amount */\n      dup1\n        /* \"val48.sol\":3919:3927  balances */\n      0x00\n        /* \"val48.sol\":3919:3939  balances[msg.sender] */\n      0x00\n        /* \"val48.sol\":3928:3938  msg.sender */\n      caller\n        /* \"val48.sol\":3919:3939  balances[msg.sender] */\n      0xffffffffffffffffffffffffffffffffffffffff\n      and\n      0xffffffffffffffffffffffffffffffffffffffff\n      and\n      dup2\n      mstore\n      0x20\n      add\n      swap1\n      dup2\n      mstore\n      0x20\n      add\n      0x00\n      keccak256\n      sload\n        /* \"val48.sol\":3919:3950  balances[msg.sender] >= _amount */\n      lt\n      iszero\n        /* \"val48.sol\":3897:3998  require(... */\n      tag_47\n      jumpi\n      mload(0x40)\n      0x08c379a000000000000000000000000000000000000000000000000000000000\n      dup2\n      mstore\n      0x04\n      add\n      tag_48\n      swap1\n      tag_49\n      jump\t// in\n    tag_48:\n      mload(0x40)\n      dup1\n      swap2\n      sub\n      swap1\n      revert\n    tag_47:\n        /* \"val48.sol\":4123:4130  _amount */\n      dup1\n        /* \"val48.sol\":4099:4107  balances */\n      0x00\n        /* \"val48.sol\":4099:4119  balances[msg.sender] */\n      0x00\n        /* \"val48.sol\":4108:4118  msg.sender */\n      caller\n        /* \"val48.sol\":4099:4119  balances[msg.sender] */\n      0xffffffffffffffffffffffffffffffffffffffff\n      and\n      0xffffffffffffffffffffffffffffffffffffffff\n      and\n      dup2\n      mstore\n      0x20\n      add\n      swap1\n      dup2\n      mstore\n      0x20\n      add\n      0x00\n      keccak256\n      0x00\n        /* \"val48.sol\":4099:4130  balances[msg.sender] -= _amount */\n      dup3\n      dup3\n      sload\n      tag_50\n      swap2\n      swap1\n      tag_51\n      jump\t// in\n    tag_50:\n      swap3\n      pop\n      pop\n      dup2\n      swap1\n      sstore\n      pop\n        /* \"val48.sol\":4216:4223  _amount */\n      dup1\n        /* \"val48.sol\":4199:4207  balances */\n      0x00\n        /* \"val48.sol\":4199:4212  balances[_to] */\n      0x00\n        /* \"val48.sol\":4208:4211  _to */\n      dup5\n        /* \"val48.sol\":4199:4212  balances[_to] */\n      0xffffffffffffffffffffffffffffffffffffffff\n      and\n      0xffffffffffffffffffffffffffffffffffffffff\n      and\n      dup2\n      mstore\n      0x20\n      add\n      swap1\n      dup2\n      mstore\n      0x20\n      add\n      0x00\n      keccak256\n      0x00\n        /* \"val48.sol\":4199:4223  balances[_to] += _amount */\n      dup3\n      dup3\n      sload\n      tag_52\n      swap2\n      swap1\n      tag_37\n      jump\t// in\n    tag_52:\n      swap3\n      pop\n      pop\n      dup2\n      swap1\n      sstore\n      pop\n        /* \"val48.sol\":3720:4231  function transfer(... */\n      pop\n      pop\n      jump\t// out\n        /* \"#utility.yul\":88:205   */\n    tag_54:\n        /* \"#utility.yul\":197:198   */\n      0x00\n        /* \"#utility.yul\":194:195   */\n      0x00\n        /* \"#utility.yul\":187:199   */\n      revert\n        /* \"#utility.yul\":334:460   */\n    tag_56:\n        /* \"#utility.yul\":371:378   */\n      0x00\n        /* \"#utility.yul\":411:453   */\n      0xffffffffffffffffffffffffffffffffffffffff\n        /* \"#utility.yul\":404:409   */\n      dup3\n        /* \"#utility.yul\":400:454   */\n      and\n        /* \"#utility.yul\":389:454   */\n      swap1\n      pop\n        /* \"#utility.yul\":334:460   */\n      swap2\n      swap1\n      pop\n      jump\t// out\n        /* \"#utility.yul\":466:562   */\n    tag_57:\n        /* \"#utility.yul\":503:510   */\n      0x00\n        /* \"#utility.yul\":532:556   */\n      tag_77\n        /* \"#utility.yul\":550:555   */\n      dup3\n        /* \"#utility.yul\":532:556   */\n      tag_56\n      jump\t// in\n    tag_77:\n        /* \"#utility.yul\":521:556   */\n      swap1\n      pop\n        /* \"#utility.yul\":466:562   */\n      swap2\n      swap1\n      pop\n      jump\t// out\n        /* \"#utility.yul\":568:690   */\n    tag_58:\n        /* \"#utility.yul\":641:665   */\n      tag_79\n        /* \"#utility.yul\":659:664   */\n      dup2\n        /* \"#utility.yul\":641:665   */\n      tag_57\n      jump\t// in\n    tag_79:\n        /* \"#utility.yul\":634:639   */\n      dup2\n        /* \"#utility.yul\":631:666   */\n      eq\n        /* \"#utility.yul\":621:684   */\n      tag_80\n      jumpi\n        /* \"#utility.yul\":680:681   */\n      0x00\n        /* \"#utility.yul\":677:678   */\n      0x00\n        /* \"#utility.yul\":670:682   */\n      revert\n        /* \"#utility.yul\":621:684   */\n    tag_80:\n        /* \"#utility.yul\":568:690   */\n      pop\n      jump\t// out\n        /* \"#utility.yul\":696:835   */\n    tag_59:\n        /* \"#utility.yul\":742:747   */\n      0x00\n        /* \"#utility.yul\":780:786   */\n      dup2\n        /* \"#utility.yul\":767:787   */\n      calldataload\n        /* \"#utility.yul\":758:787   */\n      swap1\n      pop\n        /* \"#utility.yul\":796:829   */\n      tag_82\n        /* \"#utility.yul\":823:828   */\n      dup2\n        /* \"#utility.yul\":796:829   */\n      tag_58\n      jump\t// in\n    tag_82:\n        /* \"#utility.yul\":696:835   */\n      swap3\n      swap2\n      pop\n      pop\n      jump\t// out\n        /* \"#utility.yul\":841:1170   */\n    tag_11:\n        /* \"#utility.yul\":900:906   */\n      0x00\n        /* \"#utility.yul\":949:951   */\n      0x20\n        /* \"#utility.yul\":937:946   */\n      dup3\n        /* \"#utility.yul\":928:935   */\n      dup5\n        /* \"#utility.yul\":924:947   */\n      sub\n        /* \"#utility.yul\":920:952   */\n      slt\n        /* \"#utility.yul\":917:1036   */\n      iszero\n      tag_84\n      jumpi\n        /* \"#utility.yul\":955:1034   */\n      tag_85\n      tag_54\n      jump\t// in\n    tag_85:\n        /* \"#utility.yul\":917:1036   */\n    tag_84:\n        /* \"#utility.yul\":1075:1076   */\n      0x00\n        /* \"#utility.yul\":1100:1153   */\n      tag_86\n        /* \"#utility.yul\":1145:1152   */\n      dup5\n        /* \"#utility.yul\":1136:1142   */\n      dup3\n        /* \"#utility.yul\":1125:1134   */\n      dup6\n        /* \"#utility.yul\":1121:1143   */\n      add\n        /* \"#utility.yul\":1100:1153   */\n      tag_59\n      jump\t// in\n    tag_86:\n        /* \"#utility.yul\":1090:1153   */\n      swap2\n      pop\n        /* \"#utility.yul\":1046:1163   */\n      pop\n        /* \"#utility.yul\":841:1170   */\n      swap3\n      swap2\n      pop\n      pop\n      jump\t// out\n        /* \"#utility.yul\":1176:1253   */\n    tag_60:\n        /* \"#utility.yul\":1213:1220   */\n      0x00\n        /* \"#utility.yul\":1242:1247   */\n      dup2\n        /* \"#utility.yul\":1231:1247   */\n      swap1\n      pop\n        /* \"#utility.yul\":1176:1253   */\n      swap2\n      swap1\n      pop\n      jump\t// out\n        /* \"#utility.yul\":1259:1377   */\n    tag_61:\n        /* \"#utility.yul\":1346:1370   */\n      tag_89\n        /* \"#utility.yul\":1364:1369   */\n      dup2\n        /* \"#utility.yul\":1346:1370   */\n      tag_60\n      jump\t// in\n    tag_89:\n        /* \"#utility.yul\":1341:1344   */\n      dup3\n        /* \"#utility.yul\":1334:1371   */\n      mstore\n        /* \"#utility.yul\":1259:1377   */\n      pop\n      pop\n      jump\t// out\n        /* \"#utility.yul\":1383:1605   */\n    tag_14:\n        /* \"#utility.yul\":1476:1480   */\n      0x00\n        /* \"#utility.yul\":1514:1516   */\n      0x20\n        /* \"#utility.yul\":1503:1512   */\n      dup3\n        /* \"#utility.yul\":1499:1517   */\n      add\n        /* \"#utility.yul\":1491:1517   */\n      swap1\n      pop\n        /* \"#utility.yul\":1527:1598   */\n      tag_91\n        /* \"#utility.yul\":1595:1596   */\n      0x00\n        /* \"#utility.yul\":1584:1593   */\n      dup4\n        /* \"#utility.yul\":1580:1597   */\n      add\n        /* \"#utility.yul\":1571:1577   */\n      dup5\n        /* \"#utility.yul\":1527:1598   */\n      tag_61\n      jump\t// in\n    tag_91:\n        /* \"#utility.yul\":1383:1605   */\n      swap3\n      swap2\n      pop\n      pop\n      jump\t// out\n        /* \"#utility.yul\":1611:1733   */\n    tag_62:\n        /* \"#utility.yul\":1684:1708   */\n      tag_93\n        /* \"#utility.yul\":1702:1707   */\n      dup2\n        /* \"#utility.yul\":1684:1708   */\n      tag_60\n      jump\t// in\n    tag_93:\n        /* \"#utility.yul\":1677:1682   */\n      dup2\n        /* \"#utility.yul\":1674:1709   */\n      eq\n        /* \"#utility.yul\":1664:1727   */\n      tag_94\n      jumpi\n        /* \"#utility.yul\":1723:1724   */\n      0x00\n        /* \"#utility.yul\":1720:1721   */\n      0x00\n        /* \"#utility.yul\":1713:1725   */\n      revert\n        /* \"#utility.yul\":1664:1727   */\n    tag_94:\n        /* \"#utility.yul\":1611:1733   */\n      pop\n      jump\t// out\n        /* \"#utility.yul\":1739:1878   */\n    tag_63:\n        /* \"#utility.yul\":1785:1790   */\n      0x00\n        /* \"#utility.yul\":1823:1829   */\n      dup2\n        /* \"#utility.yul\":1810:1830   */\n      calldataload\n        /* \"#utility.yul\":1801:1830   */\n      swap1\n      pop\n        /* \"#utility.yul\":1839:1872   */\n      tag_96\n        /* \"#utility.yul\":1866:1871   */\n      dup2\n        /* \"#utility.yul\":1839:1872   */\n      tag_62\n      jump\t// in\n    tag_96:\n        /* \"#utility.yul\":1739:1878   */\n      swap3\n      swap2\n      pop\n      pop\n      jump\t// out\n        /* \"#utility.yul\":1884:2213   */\n    tag_24:\n        /* \"#utility.yul\":1943:1949   */\n      0x00\n        /* \"#utility.yul\":1992:1994   */\n      0x20\n        /* \"#utility.yul\":1980:1989   */\n      dup3\n        /* \"#utility.yul\":1971:1978   */\n      dup5\n        /* \"#utility.yul\":1967:1990   */\n      sub\n        /* \"#utility.yul\":1963:1995   */\n      slt\n        /* \"#utility.yul\":1960:2079   */\n      iszero\n      tag_98\n      jumpi\n        /* \"#utility.yul\":1998:2077   */\n      tag_99\n      tag_54\n      jump\t// in\n    tag_99:\n        /* \"#utility.yul\":1960:2079   */\n    tag_98:\n        /* \"#utility.yul\":2118:2119   */\n      0x00\n        /* \"#utility.yul\":2143:2196   */\n      tag_100\n        /* \"#utility.yul\":2188:2195   */\n      dup5\n        /* \"#utility.yul\":2179:2185   */\n      dup3\n        /* \"#utility.yul\":2168:2177   */\n      dup6\n        /* \"#utility.yul\":2164:2186   */\n      add\n        /* \"#utility.yul\":2143:2196   */\n      tag_63\n      jump\t// in\n    tag_100:\n        /* \"#utility.yul\":2133:2196   */\n      swap2\n      pop\n        /* \"#utility.yul\":2089:2206   */\n      pop\n        /* \"#utility.yul\":1884:2213   */\n      swap3\n      swap2\n      pop\n      pop\n      jump\t// out\n        /* \"#utility.yul\":2219:2693   */\n    tag_31:\n        /* \"#utility.yul\":2287:2293   */\n      0x00\n        /* \"#utility.yul\":2295:2301   */\n      0x00\n        /* \"#utility.yul\":2344:2346   */\n      0x40\n        /* \"#utility.yul\":2332:2341   */\n      dup4\n        /* \"#utility.yul\":2323:2330   */\n      dup6\n        /* \"#utility.yul\":2319:2342   */\n      sub\n        /* \"#utility.yul\":2315:2347   */\n      slt\n        /* \"#utility.yul\":2312:2431   */\n      iszero\n      tag_102\n      jumpi\n        /* \"#utility.yul\":2350:2429   */\n      tag_103\n      tag_54\n      jump\t// in\n    tag_103:\n        /* \"#utility.yul\":2312:2431   */\n    tag_102:\n        /* \"#utility.yul\":2470:2471   */\n      0x00\n        /* \"#utility.yul\":2495:2548   */\n      tag_104\n        /* \"#utility.yul\":2540:2547   */\n      dup6\n        /* \"#utility.yul\":2531:2537   */\n      dup3\n        /* \"#utility.yul\":2520:2529   */\n      dup7\n        /* \"#utility.yul\":2516:2538   */\n      add\n        /* \"#utility.yul\":2495:2548   */\n      tag_59\n      jump\t// in\n    tag_104:\n        /* \"#utility.yul\":2485:2548   */\n      swap3\n      pop\n        /* \"#utility.yul\":2441:2558   */\n      pop\n        /* \"#utility.yul\":2597:2599   */\n      0x20\n        /* \"#utility.yul\":2623:2676   */\n      tag_105\n        /* \"#utility.yul\":2668:2675   */\n      dup6\n        /* \"#utility.yul\":2659:2665   */\n      dup3\n        /* \"#utility.yul\":2648:2657   */\n      dup7\n        /* \"#utility.yul\":2644:2666   */\n      add\n        /* \"#utility.yul\":2623:2676   */\n      tag_63\n      jump\t// in\n    tag_105:\n        /* \"#utility.yul\":2613:2676   */\n      swap2\n      pop\n        /* \"#utility.yul\":2568:2686   */\n      pop\n        /* \"#utility.yul\":2219:2693   */\n      swap3\n      pop\n      swap3\n      swap1\n      pop\n      jump\t// out\n        /* \"#utility.yul\":2699:2879   */\n    tag_64:\n        /* \"#utility.yul\":2747:2824   */\n      0x4e487b7100000000000000000000000000000000000000000000000000000000\n        /* \"#utility.yul\":2744:2745   */\n      0x00\n        /* \"#utility.yul\":2737:2825   */\n      mstore\n        /* \"#utility.yul\":2844:2848   */\n      0x12\n        /* \"#utility.yul\":2841:2842   */\n      0x04\n        /* \"#utility.yul\":2834:2849   */\n      mstore\n        /* \"#utility.yul\":2868:2872   */\n      0x24\n        /* \"#utility.yul\":2865:2866   */\n      0x00\n        /* \"#utility.yul\":2858:2873   */\n      revert\n        /* \"#utility.yul\":2885:3065   */\n    tag_65:\n        /* \"#utility.yul\":2933:3010   */\n      0x4e487b7100000000000000000000000000000000000000000000000000000000\n        /* \"#utility.yul\":2930:2931   */\n      0x00\n        /* \"#utility.yul\":2923:3011   */\n      mstore\n        /* \"#utility.yul\":3030:3034   */\n      0x11\n        /* \"#utility.yul\":3027:3028   */\n      0x04\n        /* \"#utility.yul\":3020:3035   */\n      mstore\n        /* \"#utility.yul\":3054:3058   */\n      0x24\n        /* \"#utility.yul\":3051:3052   */\n      0x00\n        /* \"#utility.yul\":3044:3059   */\n      revert\n        /* \"#utility.yul\":3071:3256   */\n    tag_35:\n        /* \"#utility.yul\":3111:3112   */\n      0x00\n        /* \"#utility.yul\":3128:3148   */\n      tag_109\n        /* \"#utility.yul\":3146:3147   */\n      dup3\n        /* \"#utility.yul\":3128:3148   */\n      tag_60\n      jump\t// in\n    tag_109:\n        /* \"#utility.yul\":3123:3148   */\n      swap2\n      pop\n        /* \"#utility.yul\":3162:3182   */\n      tag_110\n        /* \"#utility.yul\":3180:3181   */\n      dup4\n        /* \"#utility.yul\":3162:3182   */\n      tag_60\n      jump\t// in\n    tag_110:\n        /* \"#utility.yul\":3157:3182   */\n      swap3\n      pop\n        /* \"#utility.yul\":3201:3202   */\n      dup3\n        /* \"#utility.yul\":3191:3226   */\n      tag_111\n      jumpi\n        /* \"#utility.yul\":3206:3224   */\n      tag_112\n      tag_64\n      jump\t// in\n    tag_112:\n        /* \"#utility.yul\":3191:3226   */\n    tag_111:\n        /* \"#utility.yul\":3248:3249   */\n      dup3\n        /* \"#utility.yul\":3245:3246   */\n      dup3\n        /* \"#utility.yul\":3241:3250   */\n      div\n        /* \"#utility.yul\":3236:3250   */\n      swap1\n      pop\n        /* \"#utility.yul\":3071:3256   */\n      swap3\n      swap2\n      pop\n      pop\n      jump\t// out\n        /* \"#utility.yul\":3262:3453   */\n    tag_37:\n        /* \"#utility.yul\":3302:3305   */\n      0x00\n        /* \"#utility.yul\":3321:3341   */\n      tag_114\n        /* \"#utility.yul\":3339:3340   */\n      dup3\n        /* \"#utility.yul\":3321:3341   */\n      tag_60\n      jump\t// in\n    tag_114:\n        /* \"#utility.yul\":3316:3341   */\n      swap2\n      pop\n        /* \"#utility.yul\":3355:3375   */\n      tag_115\n        /* \"#utility.yul\":3373:3374   */\n      dup4\n        /* \"#utility.yul\":3355:3375   */\n      tag_60\n      jump\t// in\n    tag_115:\n        /* \"#utility.yul\":3350:3375   */\n      swap3\n      pop\n        /* \"#utility.yul\":3398:3399   */\n      dup3\n        /* \"#utility.yul\":3395:3396   */\n      dup3\n        /* \"#utility.yul\":3391:3400   */\n      add\n        /* \"#utility.yul\":3384:3400   */\n      swap1\n      pop\n        /* \"#utility.yul\":3419:3422   */\n      dup1\n        /* \"#utility.yul\":3416:3417   */\n      dup3\n        /* \"#utility.yul\":3413:3423   */\n      gt\n        /* \"#utility.yul\":3410:3446   */\n      iszero\n      tag_116\n      jumpi\n        /* \"#utility.yul\":3426:3444   */\n      tag_117\n      tag_65\n      jump\t// in\n    tag_117:\n        /* \"#utility.yul\":3410:3446   */\n    tag_116:\n        /* \"#utility.yul\":3262:3453   */\n      swap3\n      swap2\n      pop\n      pop\n      jump\t// out\n        /* \"#utility.yul\":3459:3628   */\n    tag_66:\n        /* \"#utility.yul\":3543:3554   */\n      0x00\n        /* \"#utility.yul\":3577:3583   */\n      dup3\n        /* \"#utility.yul\":3572:3575   */\n      dup3\n        /* \"#utility.yul\":3565:3584   */\n      mstore\n        /* \"#utility.yul\":3617:3621   */\n      0x20\n        /* \"#utility.yul\":3612:3615   */\n      dup3\n        /* \"#utility.yul\":3608:3622   */\n      add\n        /* \"#utility.yul\":3593:3622   */\n      swap1\n      pop\n        /* \"#utility.yul\":3459:3628   */\n      swap3\n      swap2\n      pop\n      pop\n      jump\t// out\n        /* \"#utility.yul\":3634:3798   */\n    tag_67:\n        /* \"#utility.yul\":3774:3790   */\n      0x496e76616c696420616d6f756e74000000000000000000000000000000000000\n        /* \"#utility.yul\":3770:3771   */\n      0x00\n        /* \"#utility.yul\":3762:3768   */\n      dup3\n        /* \"#utility.yul\":3758:3772   */\n      add\n        /* \"#utility.yul\":3751:3791   */\n      mstore\n        /* \"#utility.yul\":3634:3798   */\n      pop\n      jump\t// out\n        /* \"#utility.yul\":3804:4170   */\n    tag_68:\n        /* \"#utility.yul\":3946:3949   */\n      0x00\n        /* \"#utility.yul\":3967:4034   */\n      tag_121\n        /* \"#utility.yul\":4031:4033   */\n      0x0e\n        /* \"#utility.yul\":4026:4029   */\n      dup4\n        /* \"#utility.yul\":3967:4034   */\n      tag_66\n      jump\t// in\n    tag_121:\n        /* \"#utility.yul\":3960:4034   */\n      swap2\n      pop\n        /* \"#utility.yul\":4043:4136   */\n      tag_122\n        /* \"#utility.yul\":4132:4135   */\n      dup3\n        /* \"#utility.yul\":4043:4136   */\n      tag_67\n      jump\t// in\n    tag_122:\n        /* \"#utility.yul\":4161:4163   */\n      0x20\n        /* \"#utility.yul\":4156:4159   */\n      dup3\n        /* \"#utility.yul\":4152:4164   */\n      add\n        /* \"#utility.yul\":4145:4164   */\n      swap1\n      pop\n        /* \"#utility.yul\":3804:4170   */\n      swap2\n      swap1\n      pop\n      jump\t// out\n        /* \"#utility.yul\":4176:4595   */\n    tag_42:\n        /* \"#utility.yul\":4342:4346   */\n      0x00\n        /* \"#utility.yul\":4380:4382   */\n      0x20\n        /* \"#utility.yul\":4369:4378   */\n      dup3\n        /* \"#utility.yul\":4365:4383   */\n      add\n        /* \"#utility.yul\":4357:4383   */\n      swap1\n      pop\n        /* \"#utility.yul\":4429:4438   */\n      dup2\n        /* \"#utility.yul\":4423:4427   */\n      dup2\n        /* \"#utility.yul\":4419:4439   */\n      sub\n        /* \"#utility.yul\":4415:4416   */\n      0x00\n        /* \"#utility.yul\":4404:4413   */\n      dup4\n        /* \"#utility.yul\":4400:4417   */\n      add\n        /* \"#utility.yul\":4393:4440   */\n      mstore\n        /* \"#utility.yul\":4457:4588   */\n      tag_124\n        /* \"#utility.yul\":4583:4587   */\n      dup2\n        /* \"#utility.yul\":4457:4588   */\n      tag_68\n      jump\t// in\n    tag_124:\n        /* \"#utility.yul\":4449:4588   */\n      swap1\n      pop\n        /* \"#utility.yul\":4176:4595   */\n      swap2\n      swap1\n      pop\n      jump\t// out\n        /* \"#utility.yul\":4601:4771   */\n    tag_69:\n        /* \"#utility.yul\":4741:4763   */\n      0x496e73756666696369656e742062616c616e6365000000000000000000000000\n        /* \"#utility.yul\":4737:4738   */\n      0x00\n        /* \"#utility.yul\":4729:4735   */\n      dup3\n        /* \"#utility.yul\":4725:4739   */\n      add\n        /* \"#utility.yul\":4718:4764   */\n      mstore\n        /* \"#utility.yul\":4601:4771   */\n      pop\n      jump\t// out\n        /* \"#utility.yul\":4777:5143   */\n    tag_70:\n        /* \"#utility.yul\":4919:4922   */\n      0x00\n        /* \"#utility.yul\":4940:5007   */\n      tag_127\n        /* \"#utility.yul\":5004:5006   */\n      0x14\n        /* \"#utility.yul\":4999:5002   */\n      dup4\n        /* \"#utility.yul\":4940:5007   */\n      tag_66\n      jump\t// in\n    tag_127:\n        /* \"#utility.yul\":4933:5007   */\n      swap2\n      pop\n        /* \"#utility.yul\":5016:5109   */\n      tag_128\n        /* \"#utility.yul\":5105:5108   */\n      dup3\n        /* \"#utility.yul\":5016:5109   */\n      tag_69\n      jump\t// in\n    tag_128:\n        /* \"#utility.yul\":5134:5136   */\n      0x20\n        /* \"#utility.yul\":5129:5132   */\n      dup3\n        /* \"#utility.yul\":5125:5137   */\n      add\n        /* \"#utility.yul\":5118:5137   */\n      swap1\n      pop\n        /* \"#utility.yul\":4777:5143   */\n      swap2\n      swap1\n      pop\n      jump\t// out\n        /* \"#utility.yul\":5149:5568   */\n    tag_49:\n        /* \"#utility.yul\":5315:5319   */\n      0x00\n        /* \"#utility.yul\":5353:5355   */\n      0x20\n        /* \"#utility.yul\":5342:5351   */\n      dup3\n        /* \"#utility.yul\":5338:5356   */\n      add\n        /* \"#utility.yul\":5330:5356   */\n      swap1\n      pop\n        /* \"#utility.yul\":5402:5411   */\n      dup2\n        /* \"#utility.yul\":5396:5400   */\n      dup2\n        /* \"#utility.yul\":5392:5412   */\n      sub\n        /* \"#utility.yul\":5388:5389   */\n      0x00\n        /* \"#utility.yul\":5377:5386   */\n      dup4\n        /* \"#utility.yul\":5373:5390   */\n      add\n        /* \"#utility.yul\":5366:5413   */\n      mstore\n        /* \"#utility.yul\":5430:5561   */\n      tag_130\n        /* \"#utility.yul\":5556:5560   */\n      dup2\n        /* \"#utility.yul\":5430:5561   */\n      tag_70\n      jump\t// in\n    tag_130:\n        /* \"#utility.yul\":5422:5561   */\n      swap1\n      pop\n        /* \"#utility.yul\":5149:5568   */\n      swap2\n      swap1\n      pop\n      jump\t// out\n        /* \"#utility.yul\":5574:5768   */\n    tag_51:\n        /* \"#utility.yul\":5614:5618   */\n      0x00\n        /* \"#utility.yul\":5634:5654   */\n      tag_132\n        /* \"#utility.yul\":5652:5653   */\n      dup3\n        /* \"#utility.yul\":5634:5654   */\n      tag_60\n      jump\t// in\n    tag_132:\n        /* \"#utility.yul\":5629:5654   */\n      swap2\n      pop\n        /* \"#utility.yul\":5668:5688   */\n      tag_133\n        /* \"#utility.yul\":5686:5687   */\n      dup4\n        /* \"#utility.yul\":5668:5688   */\n      tag_60\n      jump\t// in\n    tag_133:\n        /* \"#utility.yul\":5663:5688   */\n      swap3\n      pop\n        /* \"#utility.yul\":5712:5713   */\n      dup3\n        /* \"#utility.yul\":5709:5710   */\n      dup3\n        /* \"#utility.yul\":5705:5714   */\n      sub\n        /* \"#utility.yul\":5697:5714   */\n      swap1\n      pop\n        /* \"#utility.yul\":5736:5737   */\n      dup2\n        /* \"#utility.yul\":5730:5734   */\n      dup2\n        /* \"#utility.yul\":5727:5738   */\n      gt\n        /* \"#utility.yul\":5724:5761   */\n      iszero\n      tag_134\n      jumpi\n        /* \"#utility.yul\":5741:5759   */\n      tag_135\n      tag_65\n      jump\t// in\n    tag_135:\n        /* \"#utility.yul\":5724:5761   */\n    tag_134:\n        /* \"#utility.yul\":5574:5768   */\n      swap3\n      swap2\n      pop\n      pop\n      jump\t// out\n\n    auxdata: 0xa26469706673582212200f3c1f359f5b32742eef5bd0d8a5ff656071a5515ee8015836543af83949c08764736f6c63430008220033\n}\n",
				"bytecode": {
					"linkReferences": {},
					"object": "6080604052348015600e575f5ffd5b5061080f8061001c5f395ff3fe608060405234801561000f575f5ffd5b5060043610610060575f3560e01c80630700037d1461006457806318160ddd1461009457806327e235e3146100b25780636c813fba146100e25780637748948b146100fe578063a9059cbb1461011a575b5f5ffd5b61007e6004803603810190610079919061051a565b610136565b60405161008b919061055d565b60405180910390f35b61009c61014b565b6040516100a9919061055d565b60405180910390f35b6100cc60048036038101906100c7919061051a565b610151565b6040516100d9919061055d565b60405180910390f35b6100fc60048036038101906100f791906105a0565b610165565b005b610118600480360381019061011391906105a0565b61025c565b005b610134600480360381019061012f91906105cb565b610395565b005b6002602052805f5260405f205f915090505481565b60015481565b5f602052805f5260405f205f915090505481565b600a5f5f3373ffffffffffffffffffffffffffffffffffffffff1673ffffffffffffffffffffffffffffffffffffffff1681526020019081526020015f20546101ae9190610663565b60025f3373ffffffffffffffffffffffffffffffffffffffff1673ffffffffffffffffffffffffffffffffffffffff1681526020019081526020015f2081905550805f5f3373ffffffffffffffffffffffffffffffffffffffff1673ffffffffffffffffffffffffffffffffffffffff1681526020019081526020015f205f82825461023a9190610693565b925050819055508060015f8282546102529190610693565b9250508190555050565b5f811161029e576040517f08c379a000000000000000000000000000000000000000000000000000000000815260040161029590610720565b60405180910390fd5b805f5f3373ffffffffffffffffffffffffffffffffffffffff1673ffffffffffffffffffffffffffffffffffffffff1681526020019081526020015f205f8282546102e99190610693565b925050819055508060015f8282546103019190610693565b92505081905550600a5f5f3373ffffffffffffffffffffffffffffffffffffffff1673ffffffffffffffffffffffffffffffffffffffff1681526020019081526020015f20546103519190610663565b60025f3373ffffffffffffffffffffffffffffffffffffffff1673ffffffffffffffffffffffffffffffffffffffff1681526020019081526020015f208190555050565b805f5f3373ffffffffffffffffffffffffffffffffffffffff1673ffffffffffffffffffffffffffffffffffffffff1681526020019081526020015f20541015610414576040517f08c379a000000000000000000000000000000000000000000000000000000000815260040161040b90610788565b60405180910390fd5b805f5f3373ffffffffffffffffffffffffffffffffffffffff1673ffffffffffffffffffffffffffffffffffffffff1681526020019081526020015f205f82825461045f91906107a6565b92505081905550805f5f8473ffffffffffffffffffffffffffffffffffffffff1673ffffffffffffffffffffffffffffffffffffffff1681526020019081526020015f205f8282546104b19190610693565b925050819055505050565b5f5ffd5b5f73ffffffffffffffffffffffffffffffffffffffff82169050919050565b5f6104e9826104c0565b9050919050565b6104f9816104df565b8114610503575f5ffd5b50565b5f81359050610514816104f0565b92915050565b5f6020828403121561052f5761052e6104bc565b5b5f61053c84828501610506565b91505092915050565b5f819050919050565b61055781610545565b82525050565b5f6020820190506105705f83018461054e565b92915050565b61057f81610545565b8114610589575f5ffd5b50565b5f8135905061059a81610576565b92915050565b5f602082840312156105b5576105b46104bc565b5b5f6105c28482850161058c565b91505092915050565b5f5f604083850312156105e1576105e06104bc565b5b5f6105ee85828601610506565b92505060206105ff8582860161058c565b9150509250929050565b7f4e487b71000000000000000000000000000000000000000000000000000000005f52601260045260245ffd5b7f4e487b71000000000000000000000000000000000000000000000000000000005f52601160045260245ffd5b5f61066d82610545565b915061067883610545565b92508261068857610687610609565b5b828204905092915050565b5f61069d82610545565b91506106a883610545565b92508282019050808211156106c0576106bf610636565b5b92915050565b5f82825260208201905092915050565b7f496e76616c696420616d6f756e740000000000000000000000000000000000005f82015250565b5f61070a600e836106c6565b9150610715826106d6565b602082019050919050565b5f6020820190508181035f830152610737816106fe565b9050919050565b7f496e73756666696369656e742062616c616e63650000000000000000000000005f82015250565b5f6107726014836106c6565b915061077d8261073e565b602082019050919050565b5f6020820190508181035f83015261079f81610766565b9050919050565b5f6107b082610545565b91506107bb83610545565b92508282039050818111156107d3576107d2610636565b5b9291505056fea26469706673582212200f3c1f359f5b32742eef5bd0d8a5ff656071a5515ee8015836543af83949c08764736f6c63430008220033",
					"opcodes": "PUSH1 0x80 PUSH1 0x40 MSTORE CALLVALUE DUP1 ISZERO PUSH1 0xE JUMPI PUSH0 PUSH0 REVERT JUMPDEST POP PUSH2 0x80F DUP1 PUSH2 0x1C PUSH0 CODECOPY PUSH0 RETURN INVALID PUSH1 0x80 PUSH1 0x40 MSTORE CALLVALUE DUP1 ISZERO PUSH2 0xF JUMPI PUSH0 PUSH0 REVERT JUMPDEST POP PUSH1 0x4 CALLDATASIZE LT PUSH2 0x60 JUMPI PUSH0 CALLDATALOAD PUSH1 0xE0 SHR DUP1 PUSH4 0x700037D EQ PUSH2 0x64 JUMPI DUP1 PUSH4 0x18160DDD EQ PUSH2 0x94 JUMPI DUP1 PUSH4 0x27E235E3 EQ PUSH2 0xB2 JUMPI DUP1 PUSH4 0x6C813FBA EQ PUSH2 0xE2 JUMPI DUP1 PUSH4 0x7748948B EQ PUSH2 0xFE JUMPI DUP1 PUSH4 0xA9059CBB EQ PUSH2 0x11A JUMPI JUMPDEST PUSH0 PUSH0 REVERT JUMPDEST PUSH2 0x7E PUSH1 0x4 DUP1 CALLDATASIZE SUB DUP2 ADD SWAP1 PUSH2 0x79 SWAP2 SWAP1 PUSH2 0x51A JUMP JUMPDEST PUSH2 0x136 JUMP JUMPDEST PUSH1 0x40 MLOAD PUSH2 0x8B SWAP2 SWAP1 PUSH2 0x55D JUMP JUMPDEST PUSH1 0x40 MLOAD DUP1 SWAP2 SUB SWAP1 RETURN JUMPDEST PUSH2 0x9C PUSH2 0x14B JUMP JUMPDEST PUSH1 0x40 MLOAD PUSH2 0xA9 SWAP2 SWAP1 PUSH2 0x55D JUMP JUMPDEST PUSH1 0x40 MLOAD DUP1 SWAP2 SUB SWAP1 RETURN JUMPDEST PUSH2 0xCC PUSH1 0x4 DUP1 CALLDATASIZE SUB DUP2 ADD SWAP1 PUSH2 0xC7 SWAP2 SWAP1 PUSH2 0x51A JUMP JUMPDEST PUSH2 0x151 JUMP JUMPDEST PUSH1 0x40 MLOAD PUSH2 0xD9 SWAP2 SWAP1 PUSH2 0x55D JUMP JUMPDEST PUSH1 0x40 MLOAD DUP1 SWAP2 SUB SWAP1 RETURN JUMPDEST PUSH2 0xFC PUSH1 0x4 DUP1 CALLDATASIZE SUB DUP2 ADD SWAP1 PUSH2 0xF7 SWAP2 SWAP1 PUSH2 0x5A0 JUMP JUMPDEST PUSH2 0x165 JUMP JUMPDEST STOP JUMPDEST PUSH2 0x118 PUSH1 0x4 DUP1 CALLDATASIZE SUB DUP2 ADD SWAP1 PUSH2 0x113 SWAP2 SWAP1 PUSH2 0x5A0 JUMP JUMPDEST PUSH2 0x25C JUMP JUMPDEST STOP JUMPDEST PUSH2 0x134 PUSH1 0x4 DUP1 CALLDATASIZE SUB DUP2 ADD SWAP1 PUSH2 0x12F SWAP2 SWAP1 PUSH2 0x5CB JUMP JUMPDEST PUSH2 0x395 JUMP JUMPDEST STOP JUMPDEST PUSH1 0x2 PUSH1 0x20 MSTORE DUP1 PUSH0 MSTORE PUSH1 0x40 PUSH0 KECCAK256 PUSH0 SWAP2 POP SWAP1 POP SLOAD DUP2 JUMP JUMPDEST PUSH1 0x1 SLOAD DUP2 JUMP JUMPDEST PUSH0 PUSH1 0x20 MSTORE DUP1 PUSH0 MSTORE PUSH1 0x40 PUSH0 KECCAK256 PUSH0 SWAP2 POP SWAP1 POP SLOAD DUP2 JUMP JUMPDEST PUSH1 0xA PUSH0 PUSH0 CALLER PUSH20 0xFFFFFFFFFFFFFFFFFFFFFFFFFFFFFFFFFFFFFFFF AND PUSH20 0xFFFFFFFFFFFFFFFFFFFFFFFFFFFFFFFFFFFFFFFF AND DUP2 MSTORE PUSH1 0x20 ADD SWAP1 DUP2 MSTORE PUSH1 0x20 ADD PUSH0 KECCAK256 SLOAD PUSH2 0x1AE SWAP2 SWAP1 PUSH2 0x663 JUMP JUMPDEST PUSH1 0x2 PUSH0 CALLER PUSH20 0xFFFFFFFFFFFFFFFFFFFFFFFFFFFFFFFFFFFFFFFF AND PUSH20 0xFFFFFFFFFFFFFFFFFFFFFFFFFFFFFFFFFFFFFFFF AND DUP2 MSTORE PUSH1 0x20 ADD SWAP1 DUP2 MSTORE PUSH1 0x20 ADD PUSH0 KECCAK256 DUP2 SWAP1 SSTORE POP DUP1 PUSH0 PUSH0 CALLER PUSH20 0xFFFFFFFFFFFFFFFFFFFFFFFFFFFFFFFFFFFFFFFF AND PUSH20 0xFFFFFFFFFFFFFFFFFFFFFFFFFFFFFFFFFFFFFFFF AND DUP2 MSTORE PUSH1 0x20 ADD SWAP1 DUP2 MSTORE PUSH1 0x20 ADD PUSH0 KECCAK256 PUSH0 DUP3 DUP3 SLOAD PUSH2 0x23A SWAP2 SWAP1 PUSH2 0x693 JUMP JUMPDEST SWAP3 POP POP DUP2 SWAP1 SSTORE POP DUP1 PUSH1 0x1 PUSH0 DUP3 DUP3 SLOAD PUSH2 0x252 SWAP2 SWAP1 PUSH2 0x693 JUMP JUMPDEST SWAP3 POP POP DUP2 SWAP1 SSTORE POP POP JUMP JUMPDEST PUSH0 DUP2 GT PUSH2 0x29E JUMPI PUSH1 0x40 MLOAD PUSH32 0x8C379A000000000000000000000000000000000000000000000000000000000 DUP2 MSTORE PUSH1 0x4 ADD PUSH2 0x295 SWAP1 PUSH2 0x720 JUMP JUMPDEST PUSH1 0x40 MLOAD DUP1 SWAP2 SUB SWAP1 REVERT JUMPDEST DUP1 PUSH0 PUSH0 CALLER PUSH20 0xFFFFFFFFFFFFFFFFFFFFFFFFFFFFFFFFFFFFFFFF AND PUSH20 0xFFFFFFFFFFFFFFFFFFFFFFFFFFFFFFFFFFFFFFFF AND DUP2 MSTORE PUSH1 0x20 ADD SWAP1 DUP2 MSTORE PUSH1 0x20 ADD PUSH0 KECCAK256 PUSH0 DUP3 DUP3 SLOAD PUSH2 0x2E9 SWAP2 SWAP1 PUSH2 0x693 JUMP JUMPDEST SWAP3 POP POP DUP2 SWAP1 SSTORE POP DUP1 PUSH1 0x1 PUSH0 DUP3 DUP3 SLOAD PUSH2 0x301 SWAP2 SWAP1 PUSH2 0x693 JUMP JUMPDEST SWAP3 POP POP DUP2 SWAP1 SSTORE POP PUSH1 0xA PUSH0 PUSH0 CALLER PUSH20 0xFFFFFFFFFFFFFFFFFFFFFFFFFFFFFFFFFFFFFFFF AND PUSH20 0xFFFFFFFFFFFFFFFFFFFFFFFFFFFFFFFFFFFFFFFF AND DUP2 MSTORE PUSH1 0x20 ADD SWAP1 DUP2 MSTORE PUSH1 0x20 ADD PUSH0 KECCAK256 SLOAD PUSH2 0x351 SWAP2 SWAP1 PUSH2 0x663 JUMP JUMPDEST PUSH1 0x2 PUSH0 CALLER PUSH20 0xFFFFFFFFFFFFFFFFFFFFFFFFFFFFFFFFFFFFFFFF AND PUSH20 0xFFFFFFFFFFFFFFFFFFFFFFFFFFFFFFFFFFFFFFFF AND DUP2 MSTORE PUSH1 0x20 ADD SWAP1 DUP2 MSTORE PUSH1 0x20 ADD PUSH0 KECCAK256 DUP2 SWAP1 SSTORE POP POP JUMP JUMPDEST DUP1 PUSH0 PUSH0 CALLER PUSH20 0xFFFFFFFFFFFFFFFFFFFFFFFFFFFFFFFFFFFFFFFF AND PUSH20 0xFFFFFFFFFFFFFFFFFFFFFFFFFFFFFFFFFFFFFFFF AND DUP2 MSTORE PUSH1 0x20 ADD SWAP1 DUP2 MSTORE PUSH1 0x20 ADD PUSH0 KECCAK256 SLOAD LT ISZERO PUSH2 0x414 JUMPI PUSH1 0x40 MLOAD PUSH32 0x8C379A000000000000000000000000000000000000000000000000000000000 DUP2 MSTORE PUSH1 0x4 ADD PUSH2 0x40B SWAP1 PUSH2 0x788 JUMP JUMPDEST PUSH1 0x40 MLOAD DUP1 SWAP2 SUB SWAP1 REVERT JUMPDEST DUP1 PUSH0 PUSH0 CALLER PUSH20 0xFFFFFFFFFFFFFFFFFFFFFFFFFFFFFFFFFFFFFFFF AND PUSH20 0xFFFFFFFFFFFFFFFFFFFFFFFFFFFFFFFFFFFFFFFF AND DUP2 MSTORE PUSH1 0x20 ADD SWAP1 DUP2 MSTORE PUSH1 0x20 ADD PUSH0 KECCAK256 PUSH0 DUP3 DUP3 SLOAD PUSH2 0x45F SWAP2 SWAP1 PUSH2 0x7A6 JUMP JUMPDEST SWAP3 POP POP DUP2 SWAP1 SSTORE POP DUP1 PUSH0 PUSH0 DUP5 PUSH20 0xFFFFFFFFFFFFFFFFFFFFFFFFFFFFFFFFFFFFFFFF AND PUSH20 0xFFFFFFFFFFFFFFFFFFFFFFFFFFFFFFFFFFFFFFFF AND DUP2 MSTORE PUSH1 0x20 ADD SWAP1 DUP2 MSTORE PUSH1 0x20 ADD PUSH0 KECCAK256 PUSH0 DUP3 DUP3 SLOAD PUSH2 0x4B1 SWAP2 SWAP1 PUSH2 0x693 JUMP JUMPDEST SWAP3 POP POP DUP2 SWAP1 SSTORE POP POP POP JUMP JUMPDEST PUSH0 PUSH0 REVERT JUMPDEST PUSH0 PUSH20 0xFFFFFFFFFFFFFFFFFFFFFFFFFFFFFFFFFFFFFFFF DUP3 AND SWAP1 POP SWAP2 SWAP1 POP JUMP JUMPDEST PUSH0 PUSH2 0x4E9 DUP3 PUSH2 0x4C0 JUMP JUMPDEST SWAP1 POP SWAP2 SWAP1 POP JUMP JUMPDEST PUSH2 0x4F9 DUP2 PUSH2 0x4DF JUMP JUMPDEST DUP2 EQ PUSH2 0x503 JUMPI PUSH0 PUSH0 REVERT JUMPDEST POP JUMP JUMPDEST PUSH0 DUP2 CALLDATALOAD SWAP1 POP PUSH2 0x514 DUP2 PUSH2 0x4F0 JUMP JUMPDEST SWAP3 SWAP2 POP POP JUMP JUMPDEST PUSH0 PUSH1 0x20 DUP3 DUP5 SUB SLT ISZERO PUSH2 0x52F JUMPI PUSH2 0x52E PUSH2 0x4BC JUMP JUMPDEST JUMPDEST PUSH0 PUSH2 0x53C DUP5 DUP3 DUP6 ADD PUSH2 0x506 JUMP JUMPDEST SWAP2 POP POP SWAP3 SWAP2 POP POP JUMP JUMPDEST PUSH0 DUP2 SWAP1 POP SWAP2 SWAP1 POP JUMP JUMPDEST PUSH2 0x557 DUP2 PUSH2 0x545 JUMP JUMPDEST DUP3 MSTORE POP POP JUMP JUMPDEST PUSH0 PUSH1 0x20 DUP3 ADD SWAP1 POP PUSH2 0x570 PUSH0 DUP4 ADD DUP5 PUSH2 0x54E JUMP JUMPDEST SWAP3 SWAP2 POP POP JUMP JUMPDEST PUSH2 0x57F DUP2 PUSH2 0x545 JUMP JUMPDEST DUP2 EQ PUSH2 0x589 JUMPI PUSH0 PUSH0 REVERT JUMPDEST POP JUMP JUMPDEST PUSH0 DUP2 CALLDATALOAD SWAP1 POP PUSH2 0x59A DUP2 PUSH2 0x576 JUMP JUMPDEST SWAP3 SWAP2 POP POP JUMP JUMPDEST PUSH0 PUSH1 0x20 DUP3 DUP5 SUB SLT ISZERO PUSH2 0x5B5 JUMPI PUSH2 0x5B4 PUSH2 0x4BC JUMP JUMPDEST JUMPDEST PUSH0 PUSH2 0x5C2 DUP5 DUP3 DUP6 ADD PUSH2 0x58C JUMP JUMPDEST SWAP2 POP POP SWAP3 SWAP2 POP POP JUMP JUMPDEST PUSH0 PUSH0 PUSH1 0x40 DUP4 DUP6 SUB SLT ISZERO PUSH2 0x5E1 JUMPI PUSH2 0x5E0 PUSH2 0x4BC JUMP JUMPDEST JUMPDEST PUSH0 PUSH2 0x5EE DUP6 DUP3 DUP7 ADD PUSH2 0x506 JUMP JUMPDEST SWAP3 POP POP PUSH1 0x20 PUSH2 0x5FF DUP6 DUP3 DUP7 ADD PUSH2 0x58C JUMP JUMPDEST SWAP2 POP POP SWAP3 POP SWAP3 SWAP1 POP JUMP JUMPDEST PUSH32 0x4E487B7100000000000000000000000000000000000000000000000000000000 PUSH0 MSTORE PUSH1 0x12 PUSH1 0x4 MSTORE PUSH1 0x24 PUSH0 REVERT JUMPDEST PUSH32 0x4E487B7100000000000000000000000000000000000000000000000000000000 PUSH0 MSTORE PUSH1 0x11 PUSH1 0x4 MSTORE PUSH1 0x24 PUSH0 REVERT JUMPDEST PUSH0 PUSH2 0x66D DUP3 PUSH2 0x545 JUMP JUMPDEST SWAP2 POP PUSH2 0x678 DUP4 PUSH2 0x545 JUMP JUMPDEST SWAP3 POP DUP3 PUSH2 0x688 JUMPI PUSH2 0x687 PUSH2 0x609 JUMP JUMPDEST JUMPDEST DUP3 DUP3 DIV SWAP1 POP SWAP3 SWAP2 POP POP JUMP JUMPDEST PUSH0 PUSH2 0x69D DUP3 PUSH2 0x545 JUMP JUMPDEST SWAP2 POP PUSH2 0x6A8 DUP4 PUSH2 0x545 JUMP JUMPDEST SWAP3 POP DUP3 DUP3 ADD SWAP1 POP DUP1 DUP3 GT ISZERO PUSH2 0x6C0 JUMPI PUSH2 0x6BF PUSH2 0x636 JUMP JUMPDEST JUMPDEST SWAP3 SWAP2 POP POP JUMP JUMPDEST PUSH0 DUP3 DUP3 MSTORE PUSH1 0x20 DUP3 ADD SWAP1 POP SWAP3 SWAP2 POP POP JUMP JUMPDEST PUSH32 0x496E76616C696420616D6F756E74000000000000000000000000000000000000 PUSH0 DUP3 ADD MSTORE POP JUMP JUMPDEST PUSH0 PUSH2 0x70A PUSH1 0xE DUP4 PUSH2 0x6C6 JUMP JUMPDEST SWAP2 POP PUSH2 0x715 DUP3 PUSH2 0x6D6 JUMP JUMPDEST PUSH1 0x20 DUP3 ADD SWAP1 POP SWAP2 SWAP1 POP JUMP JUMPDEST PUSH0 PUSH1 0x20 DUP3 ADD SWAP1 POP DUP2 DUP2 SUB PUSH0 DUP4 ADD MSTORE PUSH2 0x737 DUP2 PUSH2 0x6FE JUMP JUMPDEST SWAP1 POP SWAP2 SWAP1 POP JUMP JUMPDEST PUSH32 0x496E73756666696369656E742062616C616E6365000000000000000000000000 PUSH0 DUP3 ADD MSTORE POP JUMP JUMPDEST PUSH0 PUSH2 0x772 PUSH1 0x14 DUP4 PUSH2 0x6C6 JUMP JUMPDEST SWAP2 POP PUSH2 0x77D DUP3 PUSH2 0x73E JUMP JUMPDEST PUSH1 0x20 DUP3 ADD SWAP1 POP SWAP2 SWAP1 POP JUMP JUMPDEST PUSH0 PUSH1 0x20 DUP3 ADD SWAP1 POP DUP2 DUP2 SUB PUSH0 DUP4 ADD MSTORE PUSH2 0x79F DUP2 PUSH2 0x766 JUMP JUMPDEST SWAP1 POP SWAP2 SWAP1 POP JUMP JUMPDEST PUSH0 PUSH2 0x7B0 DUP3 PUSH2 0x545 JUMP JUMPDEST SWAP2 POP PUSH2 0x7BB DUP4 PUSH2 0x545 JUMP JUMPDEST SWAP3 POP DUP3 DUP3 SUB SWAP1 POP DUP2 DUP2 GT ISZERO PUSH2 0x7D3 JUMPI PUSH2 0x7D2 PUSH2 0x636 JUMP JUMPDEST JUMPDEST SWAP3 SWAP2 POP POP JUMP INVALID LOG2 PUSH5 0x6970667358 0x22 SLT KECCAK256 0xF EXTCODECOPY 0x1F CALLDATALOAD SWAP16 JUMPDEST ORIGIN PUSH21 0x2EEF5BD0D8A5FF656071A5515EE8015836543AF839 BLOBHASH 0xC0 DUP8 PUSH5 0x736F6C6343 STOP ADDMOD 0x22 STOP CALLER "
				},
				"gasEstimates": {
					"creation": {
						"codeDepositCost": "412600",
						"executionCost": "447",
						"totalCost": "413047"
					},
					"external": {
						"balances(address)": "2823",
						"depositCorrect(uint256)": "infinite",
						"depositWrong(uint256)": "infinite",
						"rewards(address)": "2780",
						"totalSupply()": "2425",
						"transfer(address,uint256)": "infinite"
					}
				},
				"methodIdentifiers": {
					"balances(address)": "27e235e3",
					"depositCorrect(uint256)": "7748948b",
					"depositWrong(uint256)": "6c813fba",
					"rewards(address)": "0700037d",
					"totalSupply()": "18160ddd",
					"transfer(address,uint256)": "a9059cbb"
				}
			},
			"storageLayout": {
				"storage": [
					{
						"astId": 5,
						"contract": "val48.sol:OrderDependencyExampleval",
						"label": "balances",
						"offset": 0,
						"slot": "0",
						"type": "t_mapping(t_address,t_uint256)"
					},
					{
						"astId": 7,
						"contract": "val48.sol:OrderDependencyExampleval",
						"label": "totalSupply",
						"offset": 0,
						"slot": "1",
						"type": "t_uint256"
					},
					{
						"astId": 11,
						"contract": "val48.sol:OrderDependencyExampleval",
						"label": "rewards",
						"offset": 0,
						"slot": "2",
						"type": "t_mapping(t_address,t_uint256)"
					}
				],
				"types": {
					"t_address": {
						"encoding": "inplace",
						"label": "address",
						"numberOfBytes": "20"
					},
					"t_mapping(t_address,t_uint256)": {
						"encoding": "mapping",
						"key": "t_address",
						"label": "mapping(address => uint256)",
						"numberOfBytes": "32",
						"value": "t_uint256"
					},
					"t_uint256": {
						"encoding": "inplace",
						"label": "uint256",
						"numberOfBytes": "32"
					}
				}
			},
			"userdoc": {
				"kind": "user",
				"methods": {},
				"version": 1
			}
		}
	}
}