{
	"val32.sol": {
		"ExternalCalldataOptimizationval": {
			"abi": [
				{
					"inputs": [
						{
							"internalType": "uint256[]",
							"name": "_numbers",
							"type": "uint256[]"
						}
					],
					"name": "calculateSum",
					"outputs": [
						{
							"internalType": "uint256",
							"name": "",
							"type": "uint256"
						}
					],
					"stateMutability": "pure",
					"type": "function"
				},
				{
					"inputs": [
						{
							"internalType": "uint256[]",
							"name": "_numbers",
							"type": "uint256[]"
						}
					],
					"name": "calculateSumMemory",
					"outputs": [
						{
							"internalType": "uint256",
							"name": "",
							"type": "uint256"
						}
					],
					"stateMutability": "pure",
					"type": "function"
				},
				{
					"inputs": [
						{
							"internalType": "string",
							"name": "_message",
							"type": "string"
						}
					],
					"name": "echoMessage",
					"outputs": [
						{
							"internalType": "string",
							"name": "",
							"type": "string"
						}
					],
					"stateMutability": "pure",
					"type": "function"
				},
				{
					"inputs": [
						{
							"internalType": "uint256[]",
							"name": "_numbers",
							"type": "uint256[]"
						}
					],
					"name": "saveValues",
					"outputs": [],
					"stateMutability": "nonpayable",
					"type": "function"
				},
				{
					"inputs": [
						{
							"internalType": "uint256",
							"name": "",
							"type": "uint256"
						}
					],
					"name": "savedNumbers",
					"outputs": [
						{
							"internalType": "uint256",
							"name": "",
							"type": "uint256"
						}
					],
					"stateMutability": "view",
					"type": "function"
				}
			],
			"devdoc": {
				"kind": "dev",
				"methods": {},
				"version": 1
			},
			"evm": {
				"assembly": "    /* \"val32.sol\":1927:4197  contract ExternalCalldataOptimizationval {... */\n  mstore(0x40, 0x80)\n  callvalue\n  dup1\n  iszero\n  tag_1\n  jumpi\n  revert(0x00, 0x00)\ntag_1:\n  pop\n  dataSize(sub_0)\n  dup1\n  dataOffset(sub_0)\n  0x00\n  codecopy\n  0x00\n  return\nstop\n\nsub_0: assembly {\n        /* \"val32.sol\":1927:4197  contract ExternalCalldataOptimizationval {... */\n      mstore(0x40, 0x80)\n      callvalue\n      dup1\n      iszero\n      tag_1\n      jumpi\n      revert(0x00, 0x00)\n    tag_1:\n      pop\n      jumpi(tag_2, lt(calldatasize, 0x04))\n      shr(0xe0, calldataload(0x00))\n      dup1\n      0x034f55d2\n      eq\n      tag_3\n      jumpi\n      dup1\n      0x2f1faadb\n      eq\n      tag_4\n      jumpi\n      dup1\n      0x40f81363\n      eq\n      tag_5\n      jumpi\n      dup1\n      0x99df5bbe\n      eq\n      tag_6\n      jumpi\n      dup1\n      0xe4f7d551\n      eq\n      tag_7\n      jumpi\n    tag_2:\n      revert(0x00, 0x00)\n        /* \"val32.sol\":2316:2721  function calculateSum(... */\n    tag_3:\n      tag_8\n      0x04\n      dup1\n      calldatasize\n      sub\n      dup2\n      add\n      swap1\n      tag_9\n      swap2\n      swap1\n      tag_10\n      jump\t// in\n    tag_9:\n      tag_11\n      jump\t// in\n    tag_8:\n      mload(0x40)\n      tag_12\n      swap2\n      swap1\n      tag_13\n      jump\t// in\n    tag_12:\n      mload(0x40)\n      dup1\n      swap2\n      sub\n      swap1\n      return\n        /* \"val32.sol\":3823:4194  function calculateSumMemory(... */\n    tag_4:\n      tag_14\n      0x04\n      dup1\n      calldatasize\n      sub\n      dup2\n      add\n      swap1\n      tag_15\n      swap2\n      swap1\n      tag_16\n      jump\t// in\n    tag_15:\n      tag_17\n      jump\t// in\n    tag_14:\n      mload(0x40)\n      tag_18\n      swap2\n      swap1\n      tag_13\n      jump\t// in\n    tag_18:\n      mload(0x40)\n      dup1\n      swap2\n      sub\n      swap1\n      return\n        /* \"val32.sol\":2055:2084  uint256[] public savedNumbers */\n    tag_5:\n      tag_19\n      0x04\n      dup1\n      calldatasize\n      sub\n      dup2\n      add\n      swap1\n      tag_20\n      swap2\n      swap1\n      tag_21\n      jump\t// in\n    tag_20:\n      tag_22\n      jump\t// in\n    tag_19:\n      mload(0x40)\n      tag_23\n      swap2\n      swap1\n      tag_13\n      jump\t// in\n    tag_23:\n      mload(0x40)\n      dup1\n      swap2\n      sub\n      swap1\n      return\n        /* \"val32.sol\":3380:3642  function echoMessage(... */\n    tag_6:\n      tag_24\n      0x04\n      dup1\n      calldatasize\n      sub\n      dup2\n      add\n      swap1\n      tag_25\n      swap2\n      swap1\n      tag_26\n      jump\t// in\n    tag_25:\n      tag_27\n      jump\t// in\n    tag_24:\n      mload(0x40)\n      tag_28\n      swap2\n      swap1\n      tag_29\n      jump\t// in\n    tag_28:\n      mload(0x40)\n      dup1\n      swap2\n      sub\n      swap1\n      return\n        /* \"val32.sol\":2893:3207  function saveValues(... */\n    tag_7:\n      tag_30\n      0x04\n      dup1\n      calldatasize\n      sub\n      dup2\n      add\n      swap1\n      tag_31\n      swap2\n      swap1\n      tag_10\n      jump\t// in\n    tag_31:\n      tag_32\n      jump\t// in\n    tag_30:\n      stop\n        /* \"val32.sol\":2316:2721  function calculateSum(... */\n    tag_11:\n        /* \"val32.sol\":2433:2440  uint256 */\n      0x00\n        /* \"val32.sol\":2460:2473  uint256 total */\n      0x00\n        /* \"val32.sol\":2476:2477  0 */\n      0x00\n        /* \"val32.sol\":2460:2477  uint256 total = 0 */\n      swap1\n      pop\n        /* \"val32.sol\":2599:2608  uint256 i */\n      0x00\n        /* \"val32.sol\":2611:2612  0 */\n      0x00\n        /* \"val32.sol\":2599:2612  uint256 i = 0 */\n      swap1\n      pop\n        /* \"val32.sol\":2594:2689  for (uint256 i = 0; i < _numbers.length; i++) {... */\n    tag_34:\n        /* \"val32.sol\":2618:2626  _numbers */\n      dup5\n      dup5\n        /* \"val32.sol\":2618:2633  _numbers.length */\n      swap1\n      pop\n        /* \"val32.sol\":2614:2615  i */\n      dup2\n        /* \"val32.sol\":2614:2633  i < _numbers.length */\n      lt\n        /* \"val32.sol\":2594:2689  for (uint256 i = 0; i < _numbers.length; i++) {... */\n      iszero\n      tag_35\n      jumpi\n        /* \"val32.sol\":2666:2674  _numbers */\n      dup5\n      dup5\n        /* \"val32.sol\":2675:2676  i */\n      dup3\n        /* \"val32.sol\":2666:2677  _numbers[i] */\n      dup2\n      dup2\n      lt\n      tag_37\n      jumpi\n      tag_38\n      tag_39\n      jump\t// in\n    tag_38:\n    tag_37:\n      swap1\n      pop\n      0x20\n      mul\n      add\n      calldataload\n        /* \"val32.sol\":2657:2677  total += _numbers[i] */\n      dup3\n      tag_40\n      swap2\n      swap1\n      tag_41\n      jump\t// in\n    tag_40:\n      swap2\n      pop\n        /* \"val32.sol\":2635:2638  i++ */\n      dup1\n      dup1\n      0x01\n      add\n      swap2\n      pop\n      pop\n        /* \"val32.sol\":2594:2689  for (uint256 i = 0; i < _numbers.length; i++) {... */\n      jump(tag_34)\n    tag_35:\n      pop\n        /* \"val32.sol\":2708:2713  total */\n      dup1\n        /* \"val32.sol\":2701:2713  return total */\n      swap2\n      pop\n      pop\n        /* \"val32.sol\":2316:2721  function calculateSum(... */\n      swap3\n      swap2\n      pop\n      pop\n      jump\t// out\n        /* \"val32.sol\":3823:4194  function calculateSumMemory(... */\n    tag_17:\n        /* \"val32.sol\":3942:3949  uint256 */\n      0x00\n        /* \"val32.sol\":3969:3982  uint256 total */\n      0x00\n        /* \"val32.sol\":3985:3986  0 */\n      0x00\n        /* \"val32.sol\":3969:3986  uint256 total = 0 */\n      swap1\n      pop\n        /* \"val32.sol\":4072:4081  uint256 i */\n      0x00\n        /* \"val32.sol\":4084:4085  0 */\n      0x00\n        /* \"val32.sol\":4072:4085  uint256 i = 0 */\n      swap1\n      pop\n        /* \"val32.sol\":4067:4162  for (uint256 i = 0; i < _numbers.length; i++) {... */\n    tag_43:\n        /* \"val32.sol\":4091:4099  _numbers */\n      dup4\n        /* \"val32.sol\":4091:4106  _numbers.length */\n      mload\n        /* \"val32.sol\":4087:4088  i */\n      dup2\n        /* \"val32.sol\":4087:4106  i < _numbers.length */\n      lt\n        /* \"val32.sol\":4067:4162  for (uint256 i = 0; i < _numbers.length; i++) {... */\n      iszero\n      tag_44\n      jumpi\n        /* \"val32.sol\":4139:4147  _numbers */\n      dup4\n        /* \"val32.sol\":4148:4149  i */\n      dup2\n        /* \"val32.sol\":4139:4150  _numbers[i] */\n      dup2\n      mload\n      dup2\n      lt\n      tag_46\n      jumpi\n      tag_47\n      tag_39\n      jump\t// in\n    tag_47:\n    tag_46:\n      0x20\n      mul\n      0x20\n      add\n      add\n      mload\n        /* \"val32.sol\":4130:4150  total += _numbers[i] */\n      dup3\n      tag_48\n      swap2\n      swap1\n      tag_41\n      jump\t// in\n    tag_48:\n      swap2\n      pop\n        /* \"val32.sol\":4108:4111  i++ */\n      dup1\n      dup1\n      0x01\n      add\n      swap2\n      pop\n      pop\n        /* \"val32.sol\":4067:4162  for (uint256 i = 0; i < _numbers.length; i++) {... */\n      jump(tag_43)\n    tag_44:\n      pop\n        /* \"val32.sol\":4181:4186  total */\n      dup1\n        /* \"val32.sol\":4174:4186  return total */\n      swap2\n      pop\n      pop\n        /* \"val32.sol\":3823:4194  function calculateSumMemory(... */\n      swap2\n      swap1\n      pop\n      jump\t// out\n        /* \"val32.sol\":2055:2084  uint256[] public savedNumbers */\n    tag_22:\n      0x00\n      dup2\n      dup2\n      sload\n      dup2\n      lt\n      tag_49\n      jumpi\n      0x00\n      dup1\n      revert\n    tag_49:\n      swap1\n      0x00\n      mstore\n      keccak256(0x00, 0x20)\n      add\n      0x00\n      swap2\n      pop\n      swap1\n      pop\n      sload\n      dup2\n      jump\t// out\n        /* \"val32.sol\":3380:3642  function echoMessage(... */\n    tag_27:\n        /* \"val32.sol\":3493:3506  string memory */\n      0x60\n        /* \"val32.sol\":3626:3634  _message */\n      dup3\n      dup3\n        /* \"val32.sol\":3619:3634  return _message */\n      dup1\n      dup1\n      0x1f\n      add\n      0x20\n      dup1\n      swap2\n      div\n      mul\n      0x20\n      add\n      mload(0x40)\n      swap1\n      dup2\n      add\n      0x40\n      mstore\n      dup1\n      swap4\n      swap3\n      swap2\n      swap1\n      dup2\n      dup2\n      mstore\n      0x20\n      add\n      dup4\n      dup4\n      dup1\n      dup3\n      dup5\n      calldatacopy\n      0x00\n      dup2\n      dup5\n      add\n      mstore\n      not(0x1f)\n      0x1f\n      dup3\n      add\n      and\n      swap1\n      pop\n      dup1\n      dup4\n      add\n      swap3\n      pop\n      pop\n      pop\n      pop\n      pop\n      pop\n      pop\n      swap1\n      pop\n        /* \"val32.sol\":3380:3642  function echoMessage(... */\n      swap3\n      swap2\n      pop\n      pop\n      jump\t// out\n        /* \"val32.sol\":2893:3207  function saveValues(... */\n    tag_32:\n        /* \"val32.sol\":3100:3109  uint256 i */\n      0x00\n        /* \"val32.sol\":3112:3113  0 */\n      0x00\n        /* \"val32.sol\":3100:3113  uint256 i = 0 */\n      swap1\n      pop\n        /* \"val32.sol\":3095:3200  for (uint256 i = 0; i < _numbers.length; i++) {... */\n    tag_53:\n        /* \"val32.sol\":3119:3127  _numbers */\n      dup3\n      dup3\n        /* \"val32.sol\":3119:3134  _numbers.length */\n      swap1\n      pop\n        /* \"val32.sol\":3115:3116  i */\n      dup2\n        /* \"val32.sol\":3115:3134  i < _numbers.length */\n      lt\n        /* \"val32.sol\":3095:3200  for (uint256 i = 0; i < _numbers.length; i++) {... */\n      iszero\n      tag_54\n      jumpi\n        /* \"val32.sol\":3158:3170  savedNumbers */\n      0x00\n        /* \"val32.sol\":3176:3184  _numbers */\n      dup4\n      dup4\n        /* \"val32.sol\":3185:3186  i */\n      dup4\n        /* \"val32.sol\":3176:3187  _numbers[i] */\n      dup2\n      dup2\n      lt\n      tag_56\n      jumpi\n      tag_57\n      tag_39\n      jump\t// in\n    tag_57:\n    tag_56:\n      swap1\n      pop\n      0x20\n      mul\n      add\n      calldataload\n        /* \"val32.sol\":3158:3188  savedNumbers.push(_numbers[i]) */\n      swap1\n      dup1\n      0x01\n      dup2\n      sload\n      add\n      dup1\n      dup3\n      sstore\n      dup1\n      swap2\n      pop\n      pop\n      0x01\n      swap1\n      sub\n      swap1\n      0x00\n      mstore\n      keccak256(0x00, 0x20)\n      add\n      0x00\n      swap1\n      swap2\n      swap1\n      swap2\n      swap1\n      swap2\n      pop\n      sstore\n        /* \"val32.sol\":3136:3139  i++ */\n      dup1\n      dup1\n      0x01\n      add\n      swap2\n      pop\n      pop\n        /* \"val32.sol\":3095:3200  for (uint256 i = 0; i < _numbers.length; i++) {... */\n      jump(tag_53)\n    tag_54:\n      pop\n        /* \"val32.sol\":2893:3207  function saveValues(... */\n      pop\n      pop\n      jump\t// out\n        /* \"#utility.yul\":7:82   */\n    tag_59:\n        /* \"#utility.yul\":40:46   */\n      0x00\n        /* \"#utility.yul\":73:75   */\n      0x40\n        /* \"#utility.yul\":67:76   */\n      mload\n        /* \"#utility.yul\":57:76   */\n      swap1\n      pop\n        /* \"#utility.yul\":7:82   */\n      swap1\n      jump\t// out\n        /* \"#utility.yul\":88:205   */\n    tag_60:\n        /* \"#utility.yul\":197:198   */\n      0x00\n        /* \"#utility.yul\":194:195   */\n      0x00\n        /* \"#utility.yul\":187:199   */\n      revert\n        /* \"#utility.yul\":211:328   */\n    tag_61:\n        /* \"#utility.yul\":320:321   */\n      0x00\n        /* \"#utility.yul\":317:318   */\n      0x00\n        /* \"#utility.yul\":310:322   */\n      revert\n        /* \"#utility.yul\":334:451   */\n    tag_62:\n        /* \"#utility.yul\":443:444   */\n      0x00\n        /* \"#utility.yul\":440:441   */\n      0x00\n        /* \"#utility.yul\":433:445   */\n      revert\n        /* \"#utility.yul\":457:574   */\n    tag_63:\n        /* \"#utility.yul\":566:567   */\n      0x00\n        /* \"#utility.yul\":563:564   */\n      0x00\n        /* \"#utility.yul\":556:568   */\n      revert\n        /* \"#utility.yul\":580:697   */\n    tag_64:\n        /* \"#utility.yul\":689:690   */\n      0x00\n        /* \"#utility.yul\":686:687   */\n      0x00\n        /* \"#utility.yul\":679:691   */\n      revert\n        /* \"#utility.yul\":720:1288   */\n    tag_65:\n        /* \"#utility.yul\":793:801   */\n      0x00\n        /* \"#utility.yul\":803:809   */\n      0x00\n        /* \"#utility.yul\":853:856   */\n      dup4\n        /* \"#utility.yul\":846:850   */\n      0x1f\n        /* \"#utility.yul\":838:844   */\n      dup5\n        /* \"#utility.yul\":834:851   */\n      add\n        /* \"#utility.yul\":830:857   */\n      slt\n        /* \"#utility.yul\":820:942   */\n      tag_91\n      jumpi\n        /* \"#utility.yul\":861:940   */\n      tag_92\n      tag_62\n      jump\t// in\n    tag_92:\n        /* \"#utility.yul\":820:942   */\n    tag_91:\n        /* \"#utility.yul\":974:980   */\n      dup3\n        /* \"#utility.yul\":961:981   */\n      calldataload\n        /* \"#utility.yul\":951:981   */\n      swap1\n      pop\n        /* \"#utility.yul\":1004:1022   */\n      0xffffffffffffffff\n        /* \"#utility.yul\":996:1002   */\n      dup2\n        /* \"#utility.yul\":993:1023   */\n      gt\n        /* \"#utility.yul\":990:1107   */\n      iszero\n      tag_93\n      jumpi\n        /* \"#utility.yul\":1026:1105   */\n      tag_94\n      tag_63\n      jump\t// in\n    tag_94:\n        /* \"#utility.yul\":990:1107   */\n    tag_93:\n        /* \"#utility.yul\":1140:1144   */\n      0x20\n        /* \"#utility.yul\":1132:1138   */\n      dup4\n        /* \"#utility.yul\":1128:1145   */\n      add\n        /* \"#utility.yul\":1116:1145   */\n      swap2\n      pop\n        /* \"#utility.yul\":1194:1197   */\n      dup4\n        /* \"#utility.yul\":1186:1190   */\n      0x20\n        /* \"#utility.yul\":1178:1184   */\n      dup3\n        /* \"#utility.yul\":1174:1191   */\n      mul\n        /* \"#utility.yul\":1164:1172   */\n      dup4\n        /* \"#utility.yul\":1160:1192   */\n      add\n        /* \"#utility.yul\":1157:1198   */\n      gt\n        /* \"#utility.yul\":1154:1282   */\n      iszero\n      tag_95\n      jumpi\n        /* \"#utility.yul\":1201:1280   */\n      tag_96\n      tag_64\n      jump\t// in\n    tag_96:\n        /* \"#utility.yul\":1154:1282   */\n    tag_95:\n        /* \"#utility.yul\":720:1288   */\n      swap3\n      pop\n      swap3\n      swap1\n      pop\n      jump\t// out\n        /* \"#utility.yul\":1294:1853   */\n    tag_10:\n        /* \"#utility.yul\":1380:1386   */\n      0x00\n        /* \"#utility.yul\":1388:1394   */\n      0x00\n        /* \"#utility.yul\":1437:1439   */\n      0x20\n        /* \"#utility.yul\":1425:1434   */\n      dup4\n        /* \"#utility.yul\":1416:1423   */\n      dup6\n        /* \"#utility.yul\":1412:1435   */\n      sub\n        /* \"#utility.yul\":1408:1440   */\n      slt\n        /* \"#utility.yul\":1405:1524   */\n      iszero\n      tag_98\n      jumpi\n        /* \"#utility.yul\":1443:1522   */\n      tag_99\n      tag_60\n      jump\t// in\n    tag_99:\n        /* \"#utility.yul\":1405:1524   */\n    tag_98:\n        /* \"#utility.yul\":1591:1592   */\n      0x00\n        /* \"#utility.yul\":1580:1589   */\n      dup4\n        /* \"#utility.yul\":1576:1593   */\n      add\n        /* \"#utility.yul\":1563:1594   */\n      calldataload\n        /* \"#utility.yul\":1621:1639   */\n      0xffffffffffffffff\n        /* \"#utility.yul\":1613:1619   */\n      dup2\n        /* \"#utility.yul\":1610:1640   */\n      gt\n        /* \"#utility.yul\":1607:1724   */\n      iszero\n      tag_100\n      jumpi\n        /* \"#utility.yul\":1643:1722   */\n      tag_101\n      tag_61\n      jump\t// in\n    tag_101:\n        /* \"#utility.yul\":1607:1724   */\n    tag_100:\n        /* \"#utility.yul\":1756:1836   */\n      tag_102\n        /* \"#utility.yul\":1828:1835   */\n      dup6\n        /* \"#utility.yul\":1819:1825   */\n      dup3\n        /* \"#utility.yul\":1808:1817   */\n      dup7\n        /* \"#utility.yul\":1804:1826   */\n      add\n        /* \"#utility.yul\":1756:1836   */\n      tag_65\n      jump\t// in\n    tag_102:\n        /* \"#utility.yul\":1738:1836   */\n      swap3\n      pop\n      swap3\n      pop\n        /* \"#utility.yul\":1534:1846   */\n      pop\n        /* \"#utility.yul\":1294:1853   */\n      swap3\n      pop\n      swap3\n      swap1\n      pop\n      jump\t// out\n        /* \"#utility.yul\":1859:1936   */\n    tag_66:\n        /* \"#utility.yul\":1896:1903   */\n      0x00\n        /* \"#utility.yul\":1925:1930   */\n      dup2\n        /* \"#utility.yul\":1914:1930   */\n      swap1\n      pop\n        /* \"#utility.yul\":1859:1936   */\n      swap2\n      swap1\n      pop\n      jump\t// out\n        /* \"#utility.yul\":1942:2060   */\n    tag_67:\n        /* \"#utility.yul\":2029:2053   */\n      tag_105\n        /* \"#utility.yul\":2047:2052   */\n      dup2\n        /* \"#utility.yul\":2029:2053   */\n      tag_66\n      jump\t// in\n    tag_105:\n        /* \"#utility.yul\":2024:2027   */\n      dup3\n        /* \"#utility.yul\":2017:2054   */\n      mstore\n        /* \"#utility.yul\":1942:2060   */\n      pop\n      pop\n      jump\t// out\n        /* \"#utility.yul\":2066:2288   */\n    tag_13:\n        /* \"#utility.yul\":2159:2163   */\n      0x00\n        /* \"#utility.yul\":2197:2199   */\n      0x20\n        /* \"#utility.yul\":2186:2195   */\n      dup3\n        /* \"#utility.yul\":2182:2200   */\n      add\n        /* \"#utility.yul\":2174:2200   */\n      swap1\n      pop\n        /* \"#utility.yul\":2210:2281   */\n      tag_107\n        /* \"#utility.yul\":2278:2279   */\n      0x00\n        /* \"#utility.yul\":2267:2276   */\n      dup4\n        /* \"#utility.yul\":2263:2280   */\n      add\n        /* \"#utility.yul\":2254:2260   */\n      dup5\n        /* \"#utility.yul\":2210:2281   */\n      tag_67\n      jump\t// in\n    tag_107:\n        /* \"#utility.yul\":2066:2288   */\n      swap3\n      swap2\n      pop\n      pop\n      jump\t// out\n        /* \"#utility.yul\":2294:2396   */\n    tag_68:\n        /* \"#utility.yul\":2335:2341   */\n      0x00\n        /* \"#utility.yul\":2386:2388   */\n      0x1f\n        /* \"#utility.yul\":2382:2389   */\n      not\n        /* \"#utility.yul\":2377:2379   */\n      0x1f\n        /* \"#utility.yul\":2370:2375   */\n      dup4\n        /* \"#utility.yul\":2366:2380   */\n      add\n        /* \"#utility.yul\":2362:2390   */\n      and\n        /* \"#utility.yul\":2352:2390   */\n      swap1\n      pop\n        /* \"#utility.yul\":2294:2396   */\n      swap2\n      swap1\n      pop\n      jump\t// out\n        /* \"#utility.yul\":2402:2582   */\n    tag_69:\n        /* \"#utility.yul\":2450:2527   */\n      0x4e487b7100000000000000000000000000000000000000000000000000000000\n        /* \"#utility.yul\":2447:2448   */\n      0x00\n        /* \"#utility.yul\":2440:2528   */\n      mstore\n        /* \"#utility.yul\":2547:2551   */\n      0x41\n        /* \"#utility.yul\":2544:2545   */\n      0x04\n        /* \"#utility.yul\":2537:2552   */\n      mstore\n        /* \"#utility.yul\":2571:2575   */\n      0x24\n        /* \"#utility.yul\":2568:2569   */\n      0x00\n        /* \"#utility.yul\":2561:2576   */\n      revert\n        /* \"#utility.yul\":2588:2869   */\n    tag_70:\n        /* \"#utility.yul\":2671:2698   */\n      tag_111\n        /* \"#utility.yul\":2693:2697   */\n      dup3\n        /* \"#utility.yul\":2671:2698   */\n      tag_68\n      jump\t// in\n    tag_111:\n        /* \"#utility.yul\":2663:2669   */\n      dup2\n        /* \"#utility.yul\":2659:2699   */\n      add\n        /* \"#utility.yul\":2801:2807   */\n      dup2\n        /* \"#utility.yul\":2789:2799   */\n      dup2\n        /* \"#utility.yul\":2786:2808   */\n      lt\n        /* \"#utility.yul\":2765:2783   */\n      0xffffffffffffffff\n        /* \"#utility.yul\":2753:2763   */\n      dup3\n        /* \"#utility.yul\":2750:2784   */\n      gt\n        /* \"#utility.yul\":2747:2809   */\n      or\n        /* \"#utility.yul\":2744:2832   */\n      iszero\n      tag_112\n      jumpi\n        /* \"#utility.yul\":2812:2830   */\n      tag_113\n      tag_69\n      jump\t// in\n    tag_113:\n        /* \"#utility.yul\":2744:2832   */\n    tag_112:\n        /* \"#utility.yul\":2852:2862   */\n      dup1\n        /* \"#utility.yul\":2848:2850   */\n      0x40\n        /* \"#utility.yul\":2841:2863   */\n      mstore\n        /* \"#utility.yul\":2631:2869   */\n      pop\n        /* \"#utility.yul\":2588:2869   */\n      pop\n      pop\n      jump\t// out\n        /* \"#utility.yul\":2875:3004   */\n    tag_71:\n        /* \"#utility.yul\":2909:2915   */\n      0x00\n        /* \"#utility.yul\":2936:2956   */\n      tag_115\n      tag_59\n      jump\t// in\n    tag_115:\n        /* \"#utility.yul\":2926:2956   */\n      swap1\n      pop\n        /* \"#utility.yul\":2965:2998   */\n      tag_116\n        /* \"#utility.yul\":2993:2997   */\n      dup3\n        /* \"#utility.yul\":2985:2991   */\n      dup3\n        /* \"#utility.yul\":2965:2998   */\n      tag_70\n      jump\t// in\n    tag_116:\n        /* \"#utility.yul\":2875:3004   */\n      swap2\n      swap1\n      pop\n      jump\t// out\n        /* \"#utility.yul\":3010:3321   */\n    tag_72:\n        /* \"#utility.yul\":3087:3091   */\n      0x00\n        /* \"#utility.yul\":3177:3195   */\n      0xffffffffffffffff\n        /* \"#utility.yul\":3169:3175   */\n      dup3\n        /* \"#utility.yul\":3166:3196   */\n      gt\n        /* \"#utility.yul\":3163:3219   */\n      iszero\n      tag_118\n      jumpi\n        /* \"#utility.yul\":3199:3217   */\n      tag_119\n      tag_69\n      jump\t// in\n    tag_119:\n        /* \"#utility.yul\":3163:3219   */\n    tag_118:\n        /* \"#utility.yul\":3249:3253   */\n      0x20\n        /* \"#utility.yul\":3241:3247   */\n      dup3\n        /* \"#utility.yul\":3237:3254   */\n      mul\n        /* \"#utility.yul\":3229:3254   */\n      swap1\n      pop\n        /* \"#utility.yul\":3309:3313   */\n      0x20\n        /* \"#utility.yul\":3303:3307   */\n      dup2\n        /* \"#utility.yul\":3299:3314   */\n      add\n        /* \"#utility.yul\":3291:3314   */\n      swap1\n      pop\n        /* \"#utility.yul\":3010:3321   */\n      swap2\n      swap1\n      pop\n      jump\t// out\n        /* \"#utility.yul\":3327:3449   */\n    tag_73:\n        /* \"#utility.yul\":3400:3424   */\n      tag_121\n        /* \"#utility.yul\":3418:3423   */\n      dup2\n        /* \"#utility.yul\":3400:3424   */\n      tag_66\n      jump\t// in\n    tag_121:\n        /* \"#utility.yul\":3393:3398   */\n      dup2\n        /* \"#utility.yul\":3390:3425   */\n      eq\n        /* \"#utility.yul\":3380:3443   */\n      tag_122\n      jumpi\n        /* \"#utility.yul\":3439:3440   */\n      0x00\n        /* \"#utility.yul\":3436:3437   */\n      0x00\n        /* \"#utility.yul\":3429:3441   */\n      revert\n        /* \"#utility.yul\":3380:3443   */\n    tag_122:\n        /* \"#utility.yul\":3327:3449   */\n      pop\n      jump\t// out\n        /* \"#utility.yul\":3455:3594   */\n    tag_74:\n        /* \"#utility.yul\":3501:3506   */\n      0x00\n        /* \"#utility.yul\":3539:3545   */\n      dup2\n        /* \"#utility.yul\":3526:3546   */\n      calldataload\n        /* \"#utility.yul\":3517:3546   */\n      swap1\n      pop\n        /* \"#utility.yul\":3555:3588   */\n      tag_124\n        /* \"#utility.yul\":3582:3587   */\n      dup2\n        /* \"#utility.yul\":3555:3588   */\n      tag_73\n      jump\t// in\n    tag_124:\n        /* \"#utility.yul\":3455:3594   */\n      swap3\n      swap2\n      pop\n      pop\n      jump\t// out\n        /* \"#utility.yul\":3617:4327   */\n    tag_75:\n        /* \"#utility.yul\":3713:3718   */\n      0x00\n        /* \"#utility.yul\":3738:3819   */\n      tag_126\n        /* \"#utility.yul\":3754:3818   */\n      tag_127\n        /* \"#utility.yul\":3811:3817   */\n      dup5\n        /* \"#utility.yul\":3754:3818   */\n      tag_72\n      jump\t// in\n    tag_127:\n        /* \"#utility.yul\":3738:3819   */\n      tag_71\n      jump\t// in\n    tag_126:\n        /* \"#utility.yul\":3729:3819   */\n      swap1\n      pop\n        /* \"#utility.yul\":3839:3844   */\n      dup1\n        /* \"#utility.yul\":3868:3874   */\n      dup4\n        /* \"#utility.yul\":3861:3866   */\n      dup3\n        /* \"#utility.yul\":3854:3875   */\n      mstore\n        /* \"#utility.yul\":3902:3906   */\n      0x20\n        /* \"#utility.yul\":3895:3900   */\n      dup3\n        /* \"#utility.yul\":3891:3907   */\n      add\n        /* \"#utility.yul\":3884:3907   */\n      swap1\n      pop\n        /* \"#utility.yul\":3955:3959   */\n      0x20\n        /* \"#utility.yul\":3947:3953   */\n      dup5\n        /* \"#utility.yul\":3943:3960   */\n      mul\n        /* \"#utility.yul\":3935:3941   */\n      dup4\n        /* \"#utility.yul\":3931:3961   */\n      add\n        /* \"#utility.yul\":3984:3987   */\n      dup6\n        /* \"#utility.yul\":3976:3982   */\n      dup2\n        /* \"#utility.yul\":3973:3988   */\n      gt\n        /* \"#utility.yul\":3970:4092   */\n      iszero\n      tag_128\n      jumpi\n        /* \"#utility.yul\":4003:4082   */\n      tag_129\n      tag_64\n      jump\t// in\n    tag_129:\n        /* \"#utility.yul\":3970:4092   */\n    tag_128:\n        /* \"#utility.yul\":4118:4124   */\n      dup4\n        /* \"#utility.yul\":4101:4321   */\n    tag_130:\n        /* \"#utility.yul\":4135:4141   */\n      dup2\n        /* \"#utility.yul\":4130:4133   */\n      dup2\n        /* \"#utility.yul\":4127:4142   */\n      lt\n        /* \"#utility.yul\":4101:4321   */\n      iszero\n      tag_132\n      jumpi\n        /* \"#utility.yul\":4210:4213   */\n      dup1\n        /* \"#utility.yul\":4239:4276   */\n      tag_133\n        /* \"#utility.yul\":4272:4275   */\n      dup9\n        /* \"#utility.yul\":4260:4270   */\n      dup3\n        /* \"#utility.yul\":4239:4276   */\n      tag_74\n      jump\t// in\n    tag_133:\n        /* \"#utility.yul\":4234:4237   */\n      dup5\n        /* \"#utility.yul\":4227:4277   */\n      mstore\n        /* \"#utility.yul\":4306:4310   */\n      0x20\n        /* \"#utility.yul\":4301:4304   */\n      dup5\n        /* \"#utility.yul\":4297:4311   */\n      add\n        /* \"#utility.yul\":4290:4311   */\n      swap4\n      pop\n        /* \"#utility.yul\":4177:4321   */\n      pop\n        /* \"#utility.yul\":4161:4165   */\n      0x20\n        /* \"#utility.yul\":4156:4159   */\n      dup2\n        /* \"#utility.yul\":4152:4166   */\n      add\n        /* \"#utility.yul\":4145:4166   */\n      swap1\n      pop\n        /* \"#utility.yul\":4101:4321   */\n      jump(tag_130)\n    tag_132:\n        /* \"#utility.yul\":4105:4126   */\n      pop\n        /* \"#utility.yul\":3719:4327   */\n      pop\n      pop\n        /* \"#utility.yul\":3617:4327   */\n      swap4\n      swap3\n      pop\n      pop\n      pop\n      jump\t// out\n        /* \"#utility.yul\":4350:4720   */\n    tag_76:\n        /* \"#utility.yul\":4421:4426   */\n      0x00\n        /* \"#utility.yul\":4470:4473   */\n      dup3\n        /* \"#utility.yul\":4463:4467   */\n      0x1f\n        /* \"#utility.yul\":4455:4461   */\n      dup4\n        /* \"#utility.yul\":4451:4468   */\n      add\n        /* \"#utility.yul\":4447:4474   */\n      slt\n        /* \"#utility.yul\":4437:4559   */\n      tag_135\n      jumpi\n        /* \"#utility.yul\":4478:4557   */\n      tag_136\n      tag_62\n      jump\t// in\n    tag_136:\n        /* \"#utility.yul\":4437:4559   */\n    tag_135:\n        /* \"#utility.yul\":4595:4601   */\n      dup2\n        /* \"#utility.yul\":4582:4602   */\n      calldataload\n        /* \"#utility.yul\":4620:4714   */\n      tag_137\n        /* \"#utility.yul\":4710:4713   */\n      dup5\n        /* \"#utility.yul\":4702:4708   */\n      dup3\n        /* \"#utility.yul\":4695:4699   */\n      0x20\n        /* \"#utility.yul\":4687:4693   */\n      dup7\n        /* \"#utility.yul\":4683:4700   */\n      add\n        /* \"#utility.yul\":4620:4714   */\n      tag_75\n      jump\t// in\n    tag_137:\n        /* \"#utility.yul\":4611:4714   */\n      swap2\n      pop\n        /* \"#utility.yul\":4427:4720   */\n      pop\n        /* \"#utility.yul\":4350:4720   */\n      swap3\n      swap2\n      pop\n      pop\n      jump\t// out\n        /* \"#utility.yul\":4726:5265   */\n    tag_16:\n        /* \"#utility.yul\":4810:4816   */\n      0x00\n        /* \"#utility.yul\":4859:4861   */\n      0x20\n        /* \"#utility.yul\":4847:4856   */\n      dup3\n        /* \"#utility.yul\":4838:4845   */\n      dup5\n        /* \"#utility.yul\":4834:4857   */\n      sub\n        /* \"#utility.yul\":4830:4862   */\n      slt\n        /* \"#utility.yul\":4827:4946   */\n      iszero\n      tag_139\n      jumpi\n        /* \"#utility.yul\":4865:4944   */\n      tag_140\n      tag_60\n      jump\t// in\n    tag_140:\n        /* \"#utility.yul\":4827:4946   */\n    tag_139:\n        /* \"#utility.yul\":5013:5014   */\n      0x00\n        /* \"#utility.yul\":5002:5011   */\n      dup3\n        /* \"#utility.yul\":4998:5015   */\n      add\n        /* \"#utility.yul\":4985:5016   */\n      calldataload\n        /* \"#utility.yul\":5043:5061   */\n      0xffffffffffffffff\n        /* \"#utility.yul\":5035:5041   */\n      dup2\n        /* \"#utility.yul\":5032:5062   */\n      gt\n        /* \"#utility.yul\":5029:5146   */\n      iszero\n      tag_141\n      jumpi\n        /* \"#utility.yul\":5065:5144   */\n      tag_142\n      tag_61\n      jump\t// in\n    tag_142:\n        /* \"#utility.yul\":5029:5146   */\n    tag_141:\n        /* \"#utility.yul\":5170:5248   */\n      tag_143\n        /* \"#utility.yul\":5240:5247   */\n      dup5\n        /* \"#utility.yul\":5231:5237   */\n      dup3\n        /* \"#utility.yul\":5220:5229   */\n      dup6\n        /* \"#utility.yul\":5216:5238   */\n      add\n        /* \"#utility.yul\":5170:5248   */\n      tag_76\n      jump\t// in\n    tag_143:\n        /* \"#utility.yul\":5160:5248   */\n      swap2\n      pop\n        /* \"#utility.yul\":4956:5258   */\n      pop\n        /* \"#utility.yul\":4726:5265   */\n      swap3\n      swap2\n      pop\n      pop\n      jump\t// out\n        /* \"#utility.yul\":5271:5600   */\n    tag_21:\n        /* \"#utility.yul\":5330:5336   */\n      0x00\n        /* \"#utility.yul\":5379:5381   */\n      0x20\n        /* \"#utility.yul\":5367:5376   */\n      dup3\n        /* \"#utility.yul\":5358:5365   */\n      dup5\n        /* \"#utility.yul\":5354:5377   */\n      sub\n        /* \"#utility.yul\":5350:5382   */\n      slt\n        /* \"#utility.yul\":5347:5466   */\n      iszero\n      tag_145\n      jumpi\n        /* \"#utility.yul\":5385:5464   */\n      tag_146\n      tag_60\n      jump\t// in\n    tag_146:\n        /* \"#utility.yul\":5347:5466   */\n    tag_145:\n        /* \"#utility.yul\":5505:5506   */\n      0x00\n        /* \"#utility.yul\":5530:5583   */\n      tag_147\n        /* \"#utility.yul\":5575:5582   */\n      dup5\n        /* \"#utility.yul\":5566:5572   */\n      dup3\n        /* \"#utility.yul\":5555:5564   */\n      dup6\n        /* \"#utility.yul\":5551:5573   */\n      add\n        /* \"#utility.yul\":5530:5583   */\n      tag_74\n      jump\t// in\n    tag_147:\n        /* \"#utility.yul\":5520:5583   */\n      swap2\n      pop\n        /* \"#utility.yul\":5476:5593   */\n      pop\n        /* \"#utility.yul\":5271:5600   */\n      swap3\n      swap2\n      pop\n      pop\n      jump\t// out\n        /* \"#utility.yul\":5620:6173   */\n    tag_77:\n        /* \"#utility.yul\":5678:5686   */\n      0x00\n        /* \"#utility.yul\":5688:5694   */\n      0x00\n        /* \"#utility.yul\":5738:5741   */\n      dup4\n        /* \"#utility.yul\":5731:5735   */\n      0x1f\n        /* \"#utility.yul\":5723:5729   */\n      dup5\n        /* \"#utility.yul\":5719:5736   */\n      add\n        /* \"#utility.yul\":5715:5742   */\n      slt\n        /* \"#utility.yul\":5705:5827   */\n      tag_149\n      jumpi\n        /* \"#utility.yul\":5746:5825   */\n      tag_150\n      tag_62\n      jump\t// in\n    tag_150:\n        /* \"#utility.yul\":5705:5827   */\n    tag_149:\n        /* \"#utility.yul\":5859:5865   */\n      dup3\n        /* \"#utility.yul\":5846:5866   */\n      calldataload\n        /* \"#utility.yul\":5836:5866   */\n      swap1\n      pop\n        /* \"#utility.yul\":5889:5907   */\n      0xffffffffffffffff\n        /* \"#utility.yul\":5881:5887   */\n      dup2\n        /* \"#utility.yul\":5878:5908   */\n      gt\n        /* \"#utility.yul\":5875:5992   */\n      iszero\n      tag_151\n      jumpi\n        /* \"#utility.yul\":5911:5990   */\n      tag_152\n      tag_63\n      jump\t// in\n    tag_152:\n        /* \"#utility.yul\":5875:5992   */\n    tag_151:\n        /* \"#utility.yul\":6025:6029   */\n      0x20\n        /* \"#utility.yul\":6017:6023   */\n      dup4\n        /* \"#utility.yul\":6013:6030   */\n      add\n        /* \"#utility.yul\":6001:6030   */\n      swap2\n      pop\n        /* \"#utility.yul\":6079:6082   */\n      dup4\n        /* \"#utility.yul\":6071:6075   */\n      0x01\n        /* \"#utility.yul\":6063:6069   */\n      dup3\n        /* \"#utility.yul\":6059:6076   */\n      mul\n        /* \"#utility.yul\":6049:6057   */\n      dup4\n        /* \"#utility.yul\":6045:6077   */\n      add\n        /* \"#utility.yul\":6042:6083   */\n      gt\n        /* \"#utility.yul\":6039:6167   */\n      iszero\n      tag_153\n      jumpi\n        /* \"#utility.yul\":6086:6165   */\n      tag_154\n      tag_64\n      jump\t// in\n    tag_154:\n        /* \"#utility.yul\":6039:6167   */\n    tag_153:\n        /* \"#utility.yul\":5620:6173   */\n      swap3\n      pop\n      swap3\n      swap1\n      pop\n      jump\t// out\n        /* \"#utility.yul\":6179:6708   */\n    tag_26:\n        /* \"#utility.yul\":6250:6256   */\n      0x00\n        /* \"#utility.yul\":6258:6264   */\n      0x00\n        /* \"#utility.yul\":6307:6309   */\n      0x20\n        /* \"#utility.yul\":6295:6304   */\n      dup4\n        /* \"#utility.yul\":6286:6293   */\n      dup6\n        /* \"#utility.yul\":6282:6305   */\n      sub\n        /* \"#utility.yul\":6278:6310   */\n      slt\n        /* \"#utility.yul\":6275:6394   */\n      iszero\n      tag_156\n      jumpi\n        /* \"#utility.yul\":6313:6392   */\n      tag_157\n      tag_60\n      jump\t// in\n    tag_157:\n        /* \"#utility.yul\":6275:6394   */\n    tag_156:\n        /* \"#utility.yul\":6461:6462   */\n      0x00\n        /* \"#utility.yul\":6450:6459   */\n      dup4\n        /* \"#utility.yul\":6446:6463   */\n      add\n        /* \"#utility.yul\":6433:6464   */\n      calldataload\n        /* \"#utility.yul\":6491:6509   */\n      0xffffffffffffffff\n        /* \"#utility.yul\":6483:6489   */\n      dup2\n        /* \"#utility.yul\":6480:6510   */\n      gt\n        /* \"#utility.yul\":6477:6594   */\n      iszero\n      tag_158\n      jumpi\n        /* \"#utility.yul\":6513:6592   */\n      tag_159\n      tag_61\n      jump\t// in\n    tag_159:\n        /* \"#utility.yul\":6477:6594   */\n    tag_158:\n        /* \"#utility.yul\":6626:6691   */\n      tag_160\n        /* \"#utility.yul\":6683:6690   */\n      dup6\n        /* \"#utility.yul\":6674:6680   */\n      dup3\n        /* \"#utility.yul\":6663:6672   */\n      dup7\n        /* \"#utility.yul\":6659:6681   */\n      add\n        /* \"#utility.yul\":6626:6691   */\n      tag_77\n      jump\t// in\n    tag_160:\n        /* \"#utility.yul\":6608:6691   */\n      swap3\n      pop\n      swap3\n      pop\n        /* \"#utility.yul\":6404:6701   */\n      pop\n        /* \"#utility.yul\":6179:6708   */\n      swap3\n      pop\n      swap3\n      swap1\n      pop\n      jump\t// out\n        /* \"#utility.yul\":6714:6813   */\n    tag_78:\n        /* \"#utility.yul\":6766:6772   */\n      0x00\n        /* \"#utility.yul\":6800:6805   */\n      dup2\n        /* \"#utility.yul\":6794:6806   */\n      mload\n        /* \"#utility.yul\":6784:6806   */\n      swap1\n      pop\n        /* \"#utility.yul\":6714:6813   */\n      swap2\n      swap1\n      pop\n      jump\t// out\n        /* \"#utility.yul\":6819:6988   */\n    tag_79:\n        /* \"#utility.yul\":6903:6914   */\n      0x00\n        /* \"#utility.yul\":6937:6943   */\n      dup3\n        /* \"#utility.yul\":6932:6935   */\n      dup3\n        /* \"#utility.yul\":6925:6944   */\n      mstore\n        /* \"#utility.yul\":6977:6981   */\n      0x20\n        /* \"#utility.yul\":6972:6975   */\n      dup3\n        /* \"#utility.yul\":6968:6982   */\n      add\n        /* \"#utility.yul\":6953:6982   */\n      swap1\n      pop\n        /* \"#utility.yul\":6819:6988   */\n      swap3\n      swap2\n      pop\n      pop\n      jump\t// out\n        /* \"#utility.yul\":6994:7133   */\n    tag_80:\n        /* \"#utility.yul\":7083:7089   */\n      dup3\n        /* \"#utility.yul\":7078:7081   */\n      dup2\n        /* \"#utility.yul\":7073:7076   */\n      dup4\n        /* \"#utility.yul\":7067:7090   */\n      mcopy\n        /* \"#utility.yul\":7124:7125   */\n      0x00\n        /* \"#utility.yul\":7115:7121   */\n      dup4\n        /* \"#utility.yul\":7110:7113   */\n      dup4\n        /* \"#utility.yul\":7106:7122   */\n      add\n        /* \"#utility.yul\":7099:7126   */\n      mstore\n        /* \"#utility.yul\":6994:7133   */\n      pop\n      pop\n      pop\n      jump\t// out\n        /* \"#utility.yul\":7139:7516   */\n    tag_81:\n        /* \"#utility.yul\":7227:7230   */\n      0x00\n        /* \"#utility.yul\":7255:7294   */\n      tag_165\n        /* \"#utility.yul\":7288:7293   */\n      dup3\n        /* \"#utility.yul\":7255:7294   */\n      tag_78\n      jump\t// in\n    tag_165:\n        /* \"#utility.yul\":7310:7381   */\n      tag_166\n        /* \"#utility.yul\":7374:7380   */\n      dup2\n        /* \"#utility.yul\":7369:7372   */\n      dup6\n        /* \"#utility.yul\":7310:7381   */\n      tag_79\n      jump\t// in\n    tag_166:\n        /* \"#utility.yul\":7303:7381   */\n      swap4\n      pop\n        /* \"#utility.yul\":7390:7455   */\n      tag_167\n        /* \"#utility.yul\":7448:7454   */\n      dup2\n        /* \"#utility.yul\":7443:7446   */\n      dup6\n        /* \"#utility.yul\":7436:7440   */\n      0x20\n        /* \"#utility.yul\":7429:7434   */\n      dup7\n        /* \"#utility.yul\":7425:7441   */\n      add\n        /* \"#utility.yul\":7390:7455   */\n      tag_80\n      jump\t// in\n    tag_167:\n        /* \"#utility.yul\":7480:7509   */\n      tag_168\n        /* \"#utility.yul\":7502:7508   */\n      dup2\n        /* \"#utility.yul\":7480:7509   */\n      tag_68\n      jump\t// in\n    tag_168:\n        /* \"#utility.yul\":7475:7478   */\n      dup5\n        /* \"#utility.yul\":7471:7510   */\n      add\n        /* \"#utility.yul\":7464:7510   */\n      swap2\n      pop\n        /* \"#utility.yul\":7231:7516   */\n      pop\n        /* \"#utility.yul\":7139:7516   */\n      swap3\n      swap2\n      pop\n      pop\n      jump\t// out\n        /* \"#utility.yul\":7522:7835   */\n    tag_29:\n        /* \"#utility.yul\":7635:7639   */\n      0x00\n        /* \"#utility.yul\":7673:7675   */\n      0x20\n        /* \"#utility.yul\":7662:7671   */\n      dup3\n        /* \"#utility.yul\":7658:7676   */\n      add\n        /* \"#utility.yul\":7650:7676   */\n      swap1\n      pop\n        /* \"#utility.yul\":7722:7731   */\n      dup2\n        /* \"#utility.yul\":7716:7720   */\n      dup2\n        /* \"#utility.yul\":7712:7732   */\n      sub\n        /* \"#utility.yul\":7708:7709   */\n      0x00\n        /* \"#utility.yul\":7697:7706   */\n      dup4\n        /* \"#utility.yul\":7693:7710   */\n      add\n        /* \"#utility.yul\":7686:7733   */\n      mstore\n        /* \"#utility.yul\":7750:7828   */\n      tag_170\n        /* \"#utility.yul\":7823:7827   */\n      dup2\n        /* \"#utility.yul\":7814:7820   */\n      dup5\n        /* \"#utility.yul\":7750:7828   */\n      tag_81\n      jump\t// in\n    tag_170:\n        /* \"#utility.yul\":7742:7828   */\n      swap1\n      pop\n        /* \"#utility.yul\":7522:7835   */\n      swap3\n      swap2\n      pop\n      pop\n      jump\t// out\n        /* \"#utility.yul\":7841:8021   */\n    tag_39:\n        /* \"#utility.yul\":7889:7966   */\n      0x4e487b7100000000000000000000000000000000000000000000000000000000\n        /* \"#utility.yul\":7886:7887   */\n      0x00\n        /* \"#utility.yul\":7879:7967   */\n      mstore\n        /* \"#utility.yul\":7986:7990   */\n      0x32\n        /* \"#utility.yul\":7983:7984   */\n      0x04\n        /* \"#utility.yul\":7976:7991   */\n      mstore\n        /* \"#utility.yul\":8010:8014   */\n      0x24\n        /* \"#utility.yul\":8007:8008   */\n      0x00\n        /* \"#utility.yul\":8000:8015   */\n      revert\n        /* \"#utility.yul\":8027:8207   */\n    tag_82:\n        /* \"#utility.yul\":8075:8152   */\n      0x4e487b7100000000000000000000000000000000000000000000000000000000\n        /* \"#utility.yul\":8072:8073   */\n      0x00\n        /* \"#utility.yul\":8065:8153   */\n      mstore\n        /* \"#utility.yul\":8172:8176   */\n      0x11\n        /* \"#utility.yul\":8169:8170   */\n      0x04\n        /* \"#utility.yul\":8162:8177   */\n      mstore\n        /* \"#utility.yul\":8196:8200   */\n      0x24\n        /* \"#utility.yul\":8193:8194   */\n      0x00\n        /* \"#utility.yul\":8186:8201   */\n      revert\n        /* \"#utility.yul\":8213:8404   */\n    tag_41:\n        /* \"#utility.yul\":8253:8256   */\n      0x00\n        /* \"#utility.yul\":8272:8292   */\n      tag_174\n        /* \"#utility.yul\":8290:8291   */\n      dup3\n        /* \"#utility.yul\":8272:8292   */\n      tag_66\n      jump\t// in\n    tag_174:\n        /* \"#utility.yul\":8267:8292   */\n      swap2\n      pop\n        /* \"#utility.yul\":8306:8326   */\n      tag_175\n        /* \"#utility.yul\":8324:8325   */\n      dup4\n        /* \"#utility.yul\":8306:8326   */\n      tag_66\n      jump\t// in\n    tag_175:\n        /* \"#utility.yul\":8301:8326   */\n      swap3\n      pop\n        /* \"#utility.yul\":8349:8350   */\n      dup3\n        /* \"#utility.yul\":8346:8347   */\n      dup3\n        /* \"#utility.yul\":8342:8351   */\n      add\n        /* \"#utility.yul\":8335:8351   */\n      swap1\n      pop\n        /* \"#utility.yul\":8370:8373   */\n      dup1\n        /* \"#utility.yul\":8367:8368   */\n      dup3\n        /* \"#utility.yul\":8364:8374   */\n      gt\n        /* \"#utility.yul\":8361:8397   */\n      iszero\n      tag_176\n      jumpi\n        /* \"#utility.yul\":8377:8395   */\n      tag_177\n      tag_82\n      jump\t// in\n    tag_177:\n        /* \"#utility.yul\":8361:8397   */\n    tag_176:\n        /* \"#utility.yul\":8213:8404   */\n      swap3\n      swap2\n      pop\n      pop\n      jump\t// out\n\n    auxdata: 0xa26469706673582212206af01a1f527d81f38b6e9b91693eab437c1f1ff62dab6edb2a8cea126297832564736f6c63430008220033\n}\n",
				"bytecode": {
					"linkReferences": {},
					"object": "6080604052348015600e575f5ffd5b5061075d8061001c5f395ff3fe608060405234801561000f575f5ffd5b5060043610610055575f3560e01c8063034f55d2146100595780632f1faadb1461008957806340f81363146100b957806399df5bbe146100e9578063e4f7d55114610119575b5f5ffd5b610073600480360381019061006e919061031a565b610135565b604051610080919061037d565b60405180910390f35b6100a3600480360381019061009e9190610508565b610189565b6040516100b0919061037d565b60405180910390f35b6100d360048036038101906100ce919061054f565b6101db565b6040516100e0919061037d565b60405180910390f35b61010360048036038101906100fe91906105cf565b6101fa565b604051610110919061067a565b60405180910390f35b610133600480360381019061012e919061031a565b610248565b005b5f5f5f90505f5f90505b8484905081101561017e5784848281811061015d5761015c61069a565b5b905060200201358261016f91906106f4565b9150808060010191505061013f565b508091505092915050565b5f5f5f90505f5f90505b83518110156101d1578381815181106101af576101ae61069a565b5b6020026020010151826101c291906106f4565b91508080600101915050610193565b5080915050919050565b5f81815481106101e9575f80fd5b905f5260205f20015f915090505481565b606082828080601f0160208091040260200160405190810160405280939291908181526020018383808284375f81840152601f19601f82011690508083019250505050505050905092915050565b5f5f90505b828290508110156102a3575f83838381811061026c5761026b61069a565b5b90506020020135908060018154018082558091505060019003905f5260205f20015f9091909190915055808060010191505061024d565b505050565b5f604051905090565b5f5ffd5b5f5ffd5b5f5ffd5b5f5ffd5b5f5ffd5b5f5f83601f8401126102da576102d96102b9565b5b8235905067ffffffffffffffff8111156102f7576102f66102bd565b5b602083019150836020820283011115610313576103126102c1565b5b9250929050565b5f5f602083850312156103305761032f6102b1565b5b5f83013567ffffffffffffffff81111561034d5761034c6102b5565b5b610359858286016102c5565b92509250509250929050565b5f819050919050565b61037781610365565b82525050565b5f6020820190506103905f83018461036e565b92915050565b5f601f19601f8301169050919050565b7f4e487b71000000000000000000000000000000000000000000000000000000005f52604160045260245ffd5b6103dc82610396565b810181811067ffffffffffffffff821117156103fb576103fa6103a6565b5b80604052505050565b5f61040d6102a8565b905061041982826103d3565b919050565b5f67ffffffffffffffff821115610438576104376103a6565b5b602082029050602081019050919050565b61045281610365565b811461045c575f5ffd5b50565b5f8135905061046d81610449565b92915050565b5f6104856104808461041e565b610404565b905080838252602082019050602084028301858111156104a8576104a76102c1565b5b835b818110156104d157806104bd888261045f565b8452602084019350506020810190506104aa565b5050509392505050565b5f82601f8301126104ef576104ee6102b9565b5b81356104ff848260208601610473565b91505092915050565b5f6020828403121561051d5761051c6102b1565b5b5f82013567ffffffffffffffff81111561053a576105396102b5565b5b610546848285016104db565b91505092915050565b5f60208284031215610564576105636102b1565b5b5f6105718482850161045f565b91505092915050565b5f5f83601f84011261058f5761058e6102b9565b5b8235905067ffffffffffffffff8111156105ac576105ab6102bd565b5b6020830191508360018202830111156105c8576105c76102c1565b5b9250929050565b5f5f602083850312156105e5576105e46102b1565b5b5f83013567ffffffffffffffff811115610602576106016102b5565b5b61060e8582860161057a565b92509250509250929050565b5f81519050919050565b5f82825260208201905092915050565b8281835e5f83830152505050565b5f61064c8261061a565b6106568185610624565b9350610666818560208601610634565b61066f81610396565b840191505092915050565b5f6020820190508181035f8301526106928184610642565b905092915050565b7f4e487b71000000000000000000000000000000000000000000000000000000005f52603260045260245ffd5b7f4e487b71000000000000000000000000000000000000000000000000000000005f52601160045260245ffd5b5f6106fe82610365565b915061070983610365565b9250828201905080821115610721576107206106c7565b5b9291505056fea26469706673582212206af01a1f527d81f38b6e9b91693eab437c1f1ff62dab6edb2a8cea126297832564736f6c63430008220033",
					"opcodes": "PUSH1 0x80 PUSH1 0x40 MSTORE CALLVALUE DUP1 ISZERO PUSH1 0xE JUMPI PUSH0 PUSH0 REVERT JUMPDEST POP PUSH2 0x75D DUP1 PUSH2 0x1C PUSH0 CODECOPY PUSH0 RETURN INVALID PUSH1 0x80 PUSH1 0x40 MSTORE CALLVALUE DUP1 ISZERO PUSH2 0xF JUMPI PUSH0 PUSH0 REVERT JUMPDEST POP PUSH1 0x4 CALLDATASIZE LT PUSH2 0x55 JUMPI PUSH0 CALLDATALOAD PUSH1 0xE0 SHR DUP1 PUSH4 0x34F55D2 EQ PUSH2 0x59 JUMPI DUP1 PUSH4 0x2F1FAADB EQ PUSH2 0x89 JUMPI DUP1 PUSH4 0x40F81363 EQ PUSH2 0xB9 JUMPI DUP1 PUSH4 0x99DF5BBE EQ PUSH2 0xE9 JUMPI DUP1 PUSH4 0xE4F7D551 EQ PUSH2 0x119 JUMPI JUMPDEST PUSH0 PUSH0 REVERT JUMPDEST PUSH2 0x73 PUSH1 0x4 DUP1 CALLDATASIZE SUB DUP2 ADD SWAP1 PUSH2 0x6E SWAP2 SWAP1 PUSH2 0x31A JUMP JUMPDEST PUSH2 0x135 JUMP JUMPDEST PUSH1 0x40 MLOAD PUSH2 0x80 SWAP2 SWAP1 PUSH2 0x37D JUMP JUMPDEST PUSH1 0x40 MLOAD DUP1 SWAP2 SUB SWAP1 RETURN JUMPDEST PUSH2 0xA3 PUSH1 0x4 DUP1 CALLDATASIZE SUB DUP2 ADD SWAP1 PUSH2 0x9E SWAP2 SWAP1 PUSH2 0x508 JUMP JUMPDEST PUSH2 0x189 JUMP JUMPDEST PUSH1 0x40 MLOAD PUSH2 0xB0 SWAP2 SWAP1 PUSH2 0x37D JUMP JUMPDEST PUSH1 0x40 MLOAD DUP1 SWAP2 SUB SWAP1 RETURN JUMPDEST PUSH2 0xD3 PUSH1 0x4 DUP1 CALLDATASIZE SUB DUP2 ADD SWAP1 PUSH2 0xCE SWAP2 SWAP1 PUSH2 0x54F JUMP JUMPDEST PUSH2 0x1DB JUMP JUMPDEST PUSH1 0x40 MLOAD PUSH2 0xE0 SWAP2 SWAP1 PUSH2 0x37D JUMP JUMPDEST PUSH1 0x40 MLOAD DUP1 SWAP2 SUB SWAP1 RETURN JUMPDEST PUSH2 0x103 PUSH1 0x4 DUP1 CALLDATASIZE SUB DUP2 ADD SWAP1 PUSH2 0xFE SWAP2 SWAP1 PUSH2 0x5CF JUMP JUMPDEST PUSH2 0x1FA JUMP JUMPDEST PUSH1 0x40 MLOAD PUSH2 0x110 SWAP2 SWAP1 PUSH2 0x67A JUMP JUMPDEST PUSH1 0x40 MLOAD DUP1 SWAP2 SUB SWAP1 RETURN JUMPDEST PUSH2 0x133 PUSH1 0x4 DUP1 CALLDATASIZE SUB DUP2 ADD SWAP1 PUSH2 0x12E SWAP2 SWAP1 PUSH2 0x31A JUMP JUMPDEST PUSH2 0x248 JUMP JUMPDEST STOP JUMPDEST PUSH0 PUSH0 PUSH0 SWAP1 POP PUSH0 PUSH0 SWAP1 POP JUMPDEST DUP5 DUP5 SWAP1 POP DUP2 LT ISZERO PUSH2 0x17E JUMPI DUP5 DUP5 DUP3 DUP2 DUP2 LT PUSH2 0x15D JUMPI PUSH2 0x15C PUSH2 0x69A JUMP JUMPDEST JUMPDEST SWAP1 POP PUSH1 0x20 MUL ADD CALLDATALOAD DUP3 PUSH2 0x16F SWAP2 SWAP1 PUSH2 0x6F4 JUMP JUMPDEST SWAP2 POP DUP1 DUP1 PUSH1 0x1 ADD SWAP2 POP POP PUSH2 0x13F JUMP JUMPDEST POP DUP1 SWAP2 POP POP SWAP3 SWAP2 POP POP JUMP JUMPDEST PUSH0 PUSH0 PUSH0 SWAP1 POP PUSH0 PUSH0 SWAP1 POP JUMPDEST DUP4 MLOAD DUP2 LT ISZERO PUSH2 0x1D1 JUMPI DUP4 DUP2 DUP2 MLOAD DUP2 LT PUSH2 0x1AF JUMPI PUSH2 0x1AE PUSH2 0x69A JUMP JUMPDEST JUMPDEST PUSH1 0x20 MUL PUSH1 0x20 ADD ADD MLOAD DUP3 PUSH2 0x1C2 SWAP2 SWAP1 PUSH2 0x6F4 JUMP JUMPDEST SWAP2 POP DUP1 DUP1 PUSH1 0x1 ADD SWAP2 POP POP PUSH2 0x193 JUMP JUMPDEST POP DUP1 SWAP2 POP POP SWAP2 SWAP1 POP JUMP JUMPDEST PUSH0 DUP2 DUP2 SLOAD DUP2 LT PUSH2 0x1E9 JUMPI PUSH0 DUP1 REVERT JUMPDEST SWAP1 PUSH0 MSTORE PUSH1 0x20 PUSH0 KECCAK256 ADD PUSH0 SWAP2 POP SWAP1 POP SLOAD DUP2 JUMP JUMPDEST PUSH1 0x60 DUP3 DUP3 DUP1 DUP1 PUSH1 0x1F ADD PUSH1 0x20 DUP1 SWAP2 DIV MUL PUSH1 0x20 ADD PUSH1 0x40 MLOAD SWAP1 DUP2 ADD PUSH1 0x40 MSTORE DUP1 SWAP4 SWAP3 SWAP2 SWAP1 DUP2 DUP2 MSTORE PUSH1 0x20 ADD DUP4 DUP4 DUP1 DUP3 DUP5 CALLDATACOPY PUSH0 DUP2 DUP5 ADD MSTORE PUSH1 0x1F NOT PUSH1 0x1F DUP3 ADD AND SWAP1 POP DUP1 DUP4 ADD SWAP3 POP POP POP POP POP POP POP SWAP1 POP SWAP3 SWAP2 POP POP JUMP JUMPDEST PUSH0 PUSH0 SWAP1 POP JUMPDEST DUP3 DUP3 SWAP1 POP DUP2 LT ISZERO PUSH2 0x2A3 JUMPI PUSH0 DUP4 DUP4 DUP4 DUP2 DUP2 LT PUSH2 0x26C JUMPI PUSH2 0x26B PUSH2 0x69A JUMP JUMPDEST JUMPDEST SWAP1 POP PUSH1 0x20 MUL ADD CALLDATALOAD SWAP1 DUP1 PUSH1 0x1 DUP2 SLOAD ADD DUP1 DUP3 SSTORE DUP1 SWAP2 POP POP PUSH1 0x1 SWAP1 SUB SWAP1 PUSH0 MSTORE PUSH1 0x20 PUSH0 KECCAK256 ADD PUSH0 SWAP1 SWAP2 SWAP1 SWAP2 SWAP1 SWAP2 POP SSTORE DUP1 DUP1 PUSH1 0x1 ADD SWAP2 POP POP PUSH2 0x24D JUMP JUMPDEST POP POP POP JUMP JUMPDEST PUSH0 PUSH1 0x40 MLOAD SWAP1 POP SWAP1 JUMP JUMPDEST PUSH0 PUSH0 REVERT JUMPDEST PUSH0 PUSH0 REVERT JUMPDEST PUSH0 PUSH0 REVERT JUMPDEST PUSH0 PUSH0 REVERT JUMPDEST PUSH0 PUSH0 REVERT JUMPDEST PUSH0 PUSH0 DUP4 PUSH1 0x1F DUP5 ADD SLT PUSH2 0x2DA JUMPI PUSH2 0x2D9 PUSH2 0x2B9 JUMP JUMPDEST JUMPDEST DUP3 CALLDATALOAD SWAP1 POP PUSH8 0xFFFFFFFFFFFFFFFF DUP2 GT ISZERO PUSH2 0x2F7 JUMPI PUSH2 0x2F6 PUSH2 0x2BD JUMP JUMPDEST JUMPDEST PUSH1 0x20 DUP4 ADD SWAP2 POP DUP4 PUSH1 0x20 DUP3 MUL DUP4 ADD GT ISZERO PUSH2 0x313 JUMPI PUSH2 0x312 PUSH2 0x2C1 JUMP JUMPDEST JUMPDEST SWAP3 POP SWAP3 SWAP1 POP JUMP JUMPDEST PUSH0 PUSH0 PUSH1 0x20 DUP4 DUP6 SUB SLT ISZERO PUSH2 0x330 JUMPI PUSH2 0x32F PUSH2 0x2B1 JUMP JUMPDEST JUMPDEST PUSH0 DUP4 ADD CALLDATALOAD PUSH8 0xFFFFFFFFFFFFFFFF DUP2 GT ISZERO PUSH2 0x34D JUMPI PUSH2 0x34C PUSH2 0x2B5 JUMP JUMPDEST JUMPDEST PUSH2 0x359 DUP6 DUP3 DUP7 ADD PUSH2 0x2C5 JUMP JUMPDEST SWAP3 POP SWAP3 POP POP SWAP3 POP SWAP3 SWAP1 POP JUMP JUMPDEST PUSH0 DUP2 SWAP1 POP SWAP2 SWAP1 POP JUMP JUMPDEST PUSH2 0x377 DUP2 PUSH2 0x365 JUMP JUMPDEST DUP3 MSTORE POP POP JUMP JUMPDEST PUSH0 PUSH1 0x20 DUP3 ADD SWAP1 POP PUSH2 0x390 PUSH0 DUP4 ADD DUP5 PUSH2 0x36E JUMP JUMPDEST SWAP3 SWAP2 POP POP JUMP JUMPDEST PUSH0 PUSH1 0x1F NOT PUSH1 0x1F DUP4 ADD AND SWAP1 POP SWAP2 SWAP1 POP JUMP JUMPDEST PUSH32 0x4E487B7100000000000000000000000000000000000000000000000000000000 PUSH0 MSTORE PUSH1 0x41 PUSH1 0x4 MSTORE PUSH1 0x24 PUSH0 REVERT JUMPDEST PUSH2 0x3DC DUP3 PUSH2 0x396 JUMP JUMPDEST DUP2 ADD DUP2 DUP2 LT PUSH8 0xFFFFFFFFFFFFFFFF DUP3 GT OR ISZERO PUSH2 0x3FB JUMPI PUSH2 0x3FA PUSH2 0x3A6 JUMP JUMPDEST JUMPDEST DUP1 PUSH1 0x40 MSTORE POP POP POP JUMP JUMPDEST PUSH0 PUSH2 0x40D PUSH2 0x2A8 JUMP JUMPDEST SWAP1 POP PUSH2 0x419 DUP3 DUP3 PUSH2 0x3D3 JUMP JUMPDEST SWAP2 SWAP1 POP JUMP JUMPDEST PUSH0 PUSH8 0xFFFFFFFFFFFFFFFF DUP3 GT ISZERO PUSH2 0x438 JUMPI PUSH2 0x437 PUSH2 0x3A6 JUMP JUMPDEST JUMPDEST PUSH1 0x20 DUP3 MUL SWAP1 POP PUSH1 0x20 DUP2 ADD SWAP1 POP SWAP2 SWAP1 POP JUMP JUMPDEST PUSH2 0x452 DUP2 PUSH2 0x365 JUMP JUMPDEST DUP2 EQ PUSH2 0x45C JUMPI PUSH0 PUSH0 REVERT JUMPDEST POP JUMP JUMPDEST PUSH0 DUP2 CALLDATALOAD SWAP1 POP PUSH2 0x46D DUP2 PUSH2 0x449 JUMP JUMPDEST SWAP3 SWAP2 POP POP JUMP JUMPDEST PUSH0 PUSH2 0x485 PUSH2 0x480 DUP5 PUSH2 0x41E JUMP JUMPDEST PUSH2 0x404 JUMP JUMPDEST SWAP1 POP DUP1 DUP4 DUP3 MSTORE PUSH1 0x20 DUP3 ADD SWAP1 POP PUSH1 0x20 DUP5 MUL DUP4 ADD DUP6 DUP2 GT ISZERO PUSH2 0x4A8 JUMPI PUSH2 0x4A7 PUSH2 0x2C1 JUMP JUMPDEST JUMPDEST DUP4 JUMPDEST DUP2 DUP2 LT ISZERO PUSH2 0x4D1 JUMPI DUP1 PUSH2 0x4BD DUP9 DUP3 PUSH2 0x45F JUMP JUMPDEST DUP5 MSTORE PUSH1 0x20 DUP5 ADD SWAP4 POP POP PUSH1 0x20 DUP2 ADD SWAP1 POP PUSH2 0x4AA JUMP JUMPDEST POP POP POP SWAP4 SWAP3 POP POP POP JUMP JUMPDEST PUSH0 DUP3 PUSH1 0x1F DUP4 ADD SLT PUSH2 0x4EF JUMPI PUSH2 0x4EE PUSH2 0x2B9 JUMP JUMPDEST JUMPDEST DUP2 CALLDATALOAD PUSH2 0x4FF DUP5 DUP3 PUSH1 0x20 DUP7 ADD PUSH2 0x473 JUMP JUMPDEST SWAP2 POP POP SWAP3 SWAP2 POP POP JUMP JUMPDEST PUSH0 PUSH1 0x20 DUP3 DUP5 SUB SLT ISZERO PUSH2 0x51D JUMPI PUSH2 0x51C PUSH2 0x2B1 JUMP JUMPDEST JUMPDEST PUSH0 DUP3 ADD CALLDATALOAD PUSH8 0xFFFFFFFFFFFFFFFF DUP2 GT ISZERO PUSH2 0x53A JUMPI PUSH2 0x539 PUSH2 0x2B5 JUMP JUMPDEST JUMPDEST PUSH2 0x546 DUP5 DUP3 DUP6 ADD PUSH2 0x4DB JUMP JUMPDEST SWAP2 POP POP SWAP3 SWAP2 POP POP JUMP JUMPDEST PUSH0 PUSH1 0x20 DUP3 DUP5 SUB SLT ISZERO PUSH2 0x564 JUMPI PUSH2 0x563 PUSH2 0x2B1 JUMP JUMPDEST JUMPDEST PUSH0 PUSH2 0x571 DUP5 DUP3 DUP6 ADD PUSH2 0x45F JUMP JUMPDEST SWAP2 POP POP SWAP3 SWAP2 POP POP JUMP JUMPDEST PUSH0 PUSH0 DUP4 PUSH1 0x1F DUP5 ADD SLT PUSH2 0x58F JUMPI PUSH2 0x58E PUSH2 0x2B9 JUMP JUMPDEST JUMPDEST DUP3 CALLDATALOAD SWAP1 POP PUSH8 0xFFFFFFFFFFFFFFFF DUP2 GT ISZERO PUSH2 0x5AC JUMPI PUSH2 0x5AB PUSH2 0x2BD JUMP JUMPDEST JUMPDEST PUSH1 0x20 DUP4 ADD SWAP2 POP DUP4 PUSH1 0x1 DUP3 MUL DUP4 ADD GT ISZERO PUSH2 0x5C8 JUMPI PUSH2 0x5C7 PUSH2 0x2C1 JUMP JUMPDEST JUMPDEST SWAP3 POP SWAP3 SWAP1 POP JUMP JUMPDEST PUSH0 PUSH0 PUSH1 0x20 DUP4 DUP6 SUB SLT ISZERO PUSH2 0x5E5 JUMPI PUSH2 0x5E4 PUSH2 0x2B1 JUMP JUMPDEST JUMPDEST PUSH0 DUP4 ADD CALLDATALOAD PUSH8 0xFFFFFFFFFFFFFFFF DUP2 GT ISZERO PUSH2 0x602 JUMPI PUSH2 0x601 PUSH2 0x2B5 JUMP JUMPDEST JUMPDEST PUSH2 0x60E DUP6 DUP3 DUP7 ADD PUSH2 0x57A JUMP JUMPDEST SWAP3 POP SWAP3 POP POP SWAP3 POP SWAP3 SWAP1 POP JUMP JUMPDEST PUSH0 DUP2 MLOAD SWAP1 POP SWAP2 SWAP1 POP JUMP JUMPDEST PUSH0 DUP3 DUP3 MSTORE PUSH1 0x20 DUP3 ADD SWAP1 POP SWAP3 SWAP2 POP POP JUMP JUMPDEST DUP3 DUP2 DUP4 MCOPY PUSH0 DUP4 DUP4 ADD MSTORE POP POP POP JUMP JUMPDEST PUSH0 PUSH2 0x64C DUP3 PUSH2 0x61A JUMP JUMPDEST PUSH2 0x656 DUP2 DUP6 PUSH2 0x624 JUMP JUMPDEST SWAP4 POP PUSH2 0x666 DUP2 DUP6 PUSH1 0x20 DUP7 ADD PUSH2 0x634 JUMP JUMPDEST PUSH2 0x66F DUP2 PUSH2 0x396 JUMP JUMPDEST DUP5 ADD SWAP2 POP POP SWAP3 SWAP2 POP POP JUMP JUMPDEST PUSH0 PUSH1 0x20 DUP3 ADD SWAP1 POP DUP2 DUP2 SUB PUSH0 DUP4 ADD MSTORE PUSH2 0x692 DUP2 DUP5 PUSH2 0x642 JUMP JUMPDEST SWAP1 POP SWAP3 SWAP2 POP POP JUMP JUMPDEST PUSH32 0x4E487B7100000000000000000000000000000000000000000000000000000000 PUSH0 MSTORE PUSH1 0x32 PUSH1 0x4 MSTORE PUSH1 0x24 PUSH0 REVERT JUMPDEST PUSH32 0x4E487B7100000000000000000000000000000000000000000000000000000000 PUSH0 MSTORE PUSH1 0x11 PUSH1 0x4 MSTORE PUSH1 0x24 PUSH0 REVERT JUMPDEST PUSH0 PUSH2 0x6FE DUP3 PUSH2 0x365 JUMP JUMPDEST SWAP2 POP PUSH2 0x709 DUP4 PUSH2 0x365 JUMP JUMPDEST SWAP3 POP DUP3 DUP3 ADD SWAP1 POP DUP1 DUP3 GT ISZERO PUSH2 0x721 JUMPI PUSH2 0x720 PUSH2 0x6C7 JUMP JUMPDEST JUMPDEST SWAP3 SWAP2 POP POP JUMP INVALID LOG2 PUSH5 0x6970667358 0x22 SLT KECCAK256 PUSH11 0xF01A1F527D81F38B6E9B91 PUSH10 0x3EAB437C1F1FF62DAB6E 0xDB 0x2A DUP13 0xEA SLT PUSH3 0x978325 PUSH5 0x736F6C6343 STOP ADDMOD 0x22 STOP CALLER "
				},
				"gasEstimates": {
					"creation": {
						"codeDepositCost": "377000",
						"executionCost": "409",
						"totalCost": "377409"
					},
					"external": {
						"calculateSum(uint256[])": "infinite",
						"calculateSumMemory(uint256[])": "infinite",
						"echoMessage(string)": "infinite",
						"saveValues(uint256[])": "infinite",
						"savedNumbers(uint256)": "infinite"
					}
				},
				"methodIdentifiers": {
					"calculateSum(uint256[])": "034f55d2",
					"calculateSumMemory(uint256[])": "2f1faadb",
					"echoMessage(string)": "99df5bbe",
					"saveValues(uint256[])": "e4f7d551",
					"savedNumbers(uint256)": "40f81363"
				}
			},
			"storageLayout": {
				"storage": [
					{
						"astId": 4,
						"contract": "val32.sol:ExternalCalldataOptimizationval",
						"label": "savedNumbers",
						"offset": 0,
						"slot": "0",
						"type": "t_array(t_uint256)dyn_storage"
					}
				],
				"types": {
					"t_array(t_uint256)dyn_storage": {
						"base": "t_uint256",
						"encoding": "dynamic_array",
						"label": "uint256[]",
						"numberOfBytes": "32"
					},
					"t_uint256": {
						"encoding": "inplace",
						"label": "uint256",
						"numberOfBytes": "32"
					}
				}
			},
			"userdoc": {
				"kind": "user",
				"methods": {},
				"version": 1
			}
		}
	}
}