{
	"val8.sol": {
		"DynamicArrayGrowth": {
			"abi": [
				{
					"inputs": [
						{
							"internalType": "uint256",
							"name": "_value1",
							"type": "uint256"
						},
						{
							"internalType": "uint256",
							"name": "_value2",
							"type": "uint256"
						},
						{
							"internalType": "uint256",
							"name": "_value3",
							"type": "uint256"
						}
					],
					"name": "addMultipleValues",
					"outputs": [],
					"stateMutability": "nonpayable",
					"type": "function"
				},
				{
					"inputs": [],
					"name": "getLength",
					"outputs": [
						{
							"internalType": "uint256",
							"name": "",
							"type": "uint256"
						}
					],
					"stateMutability": "view",
					"type": "function"
				},
				{
					"inputs": [
						{
							"internalType": "uint256",
							"name": "_index",
							"type": "uint256"
						}
					],
					"name": "getNumber",
					"outputs": [
						{
							"internalType": "uint256",
							"name": "",
							"type": "uint256"
						}
					],
					"stateMutability": "view",
					"type": "function"
				},
				{
					"inputs": [
						{
							"internalType": "uint256",
							"name": "",
							"type": "uint256"
						}
					],
					"name": "numbers",
					"outputs": [
						{
							"internalType": "uint256",
							"name": "",
							"type": "uint256"
						}
					],
					"stateMutability": "view",
					"type": "function"
				}
			],
			"devdoc": {
				"kind": "dev",
				"methods": {},
				"version": 1
			},
			"evm": {
				"assembly": "    /* \"val8.sol\":8307:8907  contract DynamicArrayGrowth ... */\n  mstore(0x40, 0x80)\n  callvalue\n  dup1\n  iszero\n  tag_1\n  jumpi\n  revert(0x00, 0x00)\ntag_1:\n  pop\n  dataSize(sub_0)\n  dup1\n  dataOffset(sub_0)\n  0x00\n  codecopy\n  0x00\n  return\nstop\n\nsub_0: assembly {\n        /* \"val8.sol\":8307:8907  contract DynamicArrayGrowth ... */\n      mstore(0x40, 0x80)\n      callvalue\n      dup1\n      iszero\n      tag_1\n      jumpi\n      revert(0x00, 0x00)\n    tag_1:\n      pop\n      jumpi(tag_2, lt(calldatasize, 0x04))\n      shr(0xe0, calldataload(0x00))\n      dup1\n      0x08be540b\n      eq\n      tag_3\n      jumpi\n      dup1\n      0xbe1c766b\n      eq\n      tag_4\n      jumpi\n      dup1\n      0xd39fa233\n      eq\n      tag_5\n      jumpi\n      dup1\n      0xfc563658\n      eq\n      tag_6\n      jumpi\n    tag_2:\n      revert(0x00, 0x00)\n        /* \"val8.sol\":8379:8653  function addMultipleValues(... */\n    tag_3:\n      tag_7\n      0x04\n      dup1\n      calldatasize\n      sub\n      dup2\n      add\n      swap1\n      tag_8\n      swap2\n      swap1\n      tag_9\n      jump\t// in\n    tag_8:\n      tag_10\n      jump\t// in\n    tag_7:\n      stop\n        /* \"val8.sol\":8807:8904  function getLength() public view returns (uint256) ... */\n    tag_4:\n      tag_11\n      tag_12\n      jump\t// in\n    tag_11:\n      mload(0x40)\n      tag_13\n      swap2\n      swap1\n      tag_14\n      jump\t// in\n    tag_13:\n      mload(0x40)\n      dup1\n      swap2\n      sub\n      swap1\n      return\n        /* \"val8.sol\":8346:8370  uint256[] public numbers */\n    tag_5:\n      tag_15\n      0x04\n      dup1\n      calldatasize\n      sub\n      dup2\n      add\n      swap1\n      tag_16\n      swap2\n      swap1\n      tag_17\n      jump\t// in\n    tag_16:\n      tag_18\n      jump\t// in\n    tag_15:\n      mload(0x40)\n      tag_19\n      swap2\n      swap1\n      tag_14\n      jump\t// in\n    tag_19:\n      mload(0x40)\n      dup1\n      swap2\n      sub\n      swap1\n      return\n        /* \"val8.sol\":8661:8799  function getNumber(uint256 _index)... */\n    tag_6:\n      tag_20\n      0x04\n      dup1\n      calldatasize\n      sub\n      dup2\n      add\n      swap1\n      tag_21\n      swap2\n      swap1\n      tag_17\n      jump\t// in\n    tag_21:\n      tag_22\n      jump\t// in\n    tag_20:\n      mload(0x40)\n      tag_23\n      swap2\n      swap1\n      tag_14\n      jump\t// in\n    tag_23:\n      mload(0x40)\n      dup1\n      swap2\n      sub\n      swap1\n      return\n        /* \"val8.sol\":8379:8653  function addMultipleValues(... */\n    tag_10:\n        /* \"val8.sol\":8540:8542  10 */\n      0x0a\n        /* \"val8.sol\":8523:8530  numbers */\n      0x00\n        /* \"val8.sol\":8523:8537  numbers.length */\n      dup1\n      sload\n      swap1\n      pop\n        /* \"val8.sol\":8523:8542  numbers.length < 10 */\n      lt\n        /* \"val8.sol\":8515:8543  require(numbers.length < 10) */\n      tag_25\n      jumpi\n      revert(0x00, 0x00)\n    tag_25:\n        /* \"val8.sol\":8556:8563  numbers */\n      0x00\n        /* \"val8.sol\":8569:8576  _value1 */\n      dup4\n        /* \"val8.sol\":8556:8577  numbers.push(_value1) */\n      swap1\n      dup1\n      0x01\n      dup2\n      sload\n      add\n      dup1\n      dup3\n      sstore\n      dup1\n      swap2\n      pop\n      pop\n      0x01\n      swap1\n      sub\n      swap1\n      0x00\n      mstore\n      keccak256(0x00, 0x20)\n      add\n      0x00\n      swap1\n      swap2\n      swap1\n      swap2\n      swap1\n      swap2\n      pop\n      sstore\n        /* \"val8.sol\":8590:8597  numbers */\n      0x00\n        /* \"val8.sol\":8603:8610  _value2 */\n      dup3\n        /* \"val8.sol\":8590:8611  numbers.push(_value2) */\n      swap1\n      dup1\n      0x01\n      dup2\n      sload\n      add\n      dup1\n      dup3\n      sstore\n      dup1\n      swap2\n      pop\n      pop\n      0x01\n      swap1\n      sub\n      swap1\n      0x00\n      mstore\n      keccak256(0x00, 0x20)\n      add\n      0x00\n      swap1\n      swap2\n      swap1\n      swap2\n      swap1\n      swap2\n      pop\n      sstore\n        /* \"val8.sol\":8624:8631  numbers */\n      0x00\n        /* \"val8.sol\":8637:8644  _value3 */\n      dup2\n        /* \"val8.sol\":8624:8645  numbers.push(_value3) */\n      swap1\n      dup1\n      0x01\n      dup2\n      sload\n      add\n      dup1\n      dup3\n      sstore\n      dup1\n      swap2\n      pop\n      pop\n      0x01\n      swap1\n      sub\n      swap1\n      0x00\n      mstore\n      keccak256(0x00, 0x20)\n      add\n      0x00\n      swap1\n      swap2\n      swap1\n      swap2\n      swap1\n      swap2\n      pop\n      sstore\n        /* \"val8.sol\":8379:8653  function addMultipleValues(... */\n      pop\n      pop\n      pop\n      jump\t// out\n        /* \"val8.sol\":8807:8904  function getLength() public view returns (uint256) ... */\n    tag_12:\n        /* \"val8.sol\":8849:8856  uint256 */\n      0x00\n        /* \"val8.sol\":8882:8889  numbers */\n      0x00\n        /* \"val8.sol\":8882:8896  numbers.length */\n      dup1\n      sload\n      swap1\n      pop\n        /* \"val8.sol\":8875:8896  return numbers.length */\n      swap1\n      pop\n        /* \"val8.sol\":8807:8904  function getLength() public view returns (uint256) ... */\n      swap1\n      jump\t// out\n        /* \"val8.sol\":8346:8370  uint256[] public numbers */\n    tag_18:\n      0x00\n      dup2\n      dup2\n      sload\n      dup2\n      lt\n      tag_30\n      jumpi\n      0x00\n      dup1\n      revert\n    tag_30:\n      swap1\n      0x00\n      mstore\n      keccak256(0x00, 0x20)\n      add\n      0x00\n      swap2\n      pop\n      swap1\n      pop\n      sload\n      dup2\n      jump\t// out\n        /* \"val8.sol\":8661:8799  function getNumber(uint256 _index)... */\n    tag_22:\n        /* \"val8.sol\":8744:8751  uint256 */\n      0x00\n        /* \"val8.sol\":8776:8783  numbers */\n      0x00\n        /* \"val8.sol\":8784:8790  _index */\n      dup3\n        /* \"val8.sol\":8776:8791  numbers[_index] */\n      dup2\n      sload\n      dup2\n      lt\n      tag_33\n      jumpi\n      tag_34\n      tag_35\n      jump\t// in\n    tag_34:\n    tag_33:\n      swap1\n      0x00\n      mstore\n      keccak256(0x00, 0x20)\n      add\n      sload\n        /* \"val8.sol\":8769:8791  return numbers[_index] */\n      swap1\n      pop\n        /* \"val8.sol\":8661:8799  function getNumber(uint256 _index)... */\n      swap2\n      swap1\n      pop\n      jump\t// out\n        /* \"#utility.yul\":88:205   */\n    tag_38:\n        /* \"#utility.yul\":197:198   */\n      0x00\n        /* \"#utility.yul\":194:195   */\n      0x00\n        /* \"#utility.yul\":187:199   */\n      revert\n        /* \"#utility.yul\":334:411   */\n    tag_40:\n        /* \"#utility.yul\":371:378   */\n      0x00\n        /* \"#utility.yul\":400:405   */\n      dup2\n        /* \"#utility.yul\":389:405   */\n      swap1\n      pop\n        /* \"#utility.yul\":334:411   */\n      swap2\n      swap1\n      pop\n      jump\t// out\n        /* \"#utility.yul\":417:539   */\n    tag_41:\n        /* \"#utility.yul\":490:514   */\n      tag_50\n        /* \"#utility.yul\":508:513   */\n      dup2\n        /* \"#utility.yul\":490:514   */\n      tag_40\n      jump\t// in\n    tag_50:\n        /* \"#utility.yul\":483:488   */\n      dup2\n        /* \"#utility.yul\":480:515   */\n      eq\n        /* \"#utility.yul\":470:533   */\n      tag_51\n      jumpi\n        /* \"#utility.yul\":529:530   */\n      0x00\n        /* \"#utility.yul\":526:527   */\n      0x00\n        /* \"#utility.yul\":519:531   */\n      revert\n        /* \"#utility.yul\":470:533   */\n    tag_51:\n        /* \"#utility.yul\":417:539   */\n      pop\n      jump\t// out\n        /* \"#utility.yul\":545:684   */\n    tag_42:\n        /* \"#utility.yul\":591:596   */\n      0x00\n        /* \"#utility.yul\":629:635   */\n      dup2\n        /* \"#utility.yul\":616:636   */\n      calldataload\n        /* \"#utility.yul\":607:636   */\n      swap1\n      pop\n        /* \"#utility.yul\":645:678   */\n      tag_53\n        /* \"#utility.yul\":672:677   */\n      dup2\n        /* \"#utility.yul\":645:678   */\n      tag_41\n      jump\t// in\n    tag_53:\n        /* \"#utility.yul\":545:684   */\n      swap3\n      swap2\n      pop\n      pop\n      jump\t// out\n        /* \"#utility.yul\":690:1309   */\n    tag_9:\n        /* \"#utility.yul\":767:773   */\n      0x00\n        /* \"#utility.yul\":775:781   */\n      0x00\n        /* \"#utility.yul\":783:789   */\n      0x00\n        /* \"#utility.yul\":832:834   */\n      0x60\n        /* \"#utility.yul\":820:829   */\n      dup5\n        /* \"#utility.yul\":811:818   */\n      dup7\n        /* \"#utility.yul\":807:830   */\n      sub\n        /* \"#utility.yul\":803:835   */\n      slt\n        /* \"#utility.yul\":800:919   */\n      iszero\n      tag_55\n      jumpi\n        /* \"#utility.yul\":838:917   */\n      tag_56\n      tag_38\n      jump\t// in\n    tag_56:\n        /* \"#utility.yul\":800:919   */\n    tag_55:\n        /* \"#utility.yul\":958:959   */\n      0x00\n        /* \"#utility.yul\":983:1036   */\n      tag_57\n        /* \"#utility.yul\":1028:1035   */\n      dup7\n        /* \"#utility.yul\":1019:1025   */\n      dup3\n        /* \"#utility.yul\":1008:1017   */\n      dup8\n        /* \"#utility.yul\":1004:1026   */\n      add\n        /* \"#utility.yul\":983:1036   */\n      tag_42\n      jump\t// in\n    tag_57:\n        /* \"#utility.yul\":973:1036   */\n      swap4\n      pop\n        /* \"#utility.yul\":929:1046   */\n      pop\n        /* \"#utility.yul\":1085:1087   */\n      0x20\n        /* \"#utility.yul\":1111:1164   */\n      tag_58\n        /* \"#utility.yul\":1156:1163   */\n      dup7\n        /* \"#utility.yul\":1147:1153   */\n      dup3\n        /* \"#utility.yul\":1136:1145   */\n      dup8\n        /* \"#utility.yul\":1132:1154   */\n      add\n        /* \"#utility.yul\":1111:1164   */\n      tag_42\n      jump\t// in\n    tag_58:\n        /* \"#utility.yul\":1101:1164   */\n      swap3\n      pop\n        /* \"#utility.yul\":1056:1174   */\n      pop\n        /* \"#utility.yul\":1213:1215   */\n      0x40\n        /* \"#utility.yul\":1239:1292   */\n      tag_59\n        /* \"#utility.yul\":1284:1291   */\n      dup7\n        /* \"#utility.yul\":1275:1281   */\n      dup3\n        /* \"#utility.yul\":1264:1273   */\n      dup8\n        /* \"#utility.yul\":1260:1282   */\n      add\n        /* \"#utility.yul\":1239:1292   */\n      tag_42\n      jump\t// in\n    tag_59:\n        /* \"#utility.yul\":1229:1292   */\n      swap2\n      pop\n        /* \"#utility.yul\":1184:1302   */\n      pop\n        /* \"#utility.yul\":690:1309   */\n      swap3\n      pop\n      swap3\n      pop\n      swap3\n      jump\t// out\n        /* \"#utility.yul\":1315:1433   */\n    tag_43:\n        /* \"#utility.yul\":1402:1426   */\n      tag_61\n        /* \"#utility.yul\":1420:1425   */\n      dup2\n        /* \"#utility.yul\":1402:1426   */\n      tag_40\n      jump\t// in\n    tag_61:\n        /* \"#utility.yul\":1397:1400   */\n      dup3\n        /* \"#utility.yul\":1390:1427   */\n      mstore\n        /* \"#utility.yul\":1315:1433   */\n      pop\n      pop\n      jump\t// out\n        /* \"#utility.yul\":1439:1661   */\n    tag_14:\n        /* \"#utility.yul\":1532:1536   */\n      0x00\n        /* \"#utility.yul\":1570:1572   */\n      0x20\n        /* \"#utility.yul\":1559:1568   */\n      dup3\n        /* \"#utility.yul\":1555:1573   */\n      add\n        /* \"#utility.yul\":1547:1573   */\n      swap1\n      pop\n        /* \"#utility.yul\":1583:1654   */\n      tag_63\n        /* \"#utility.yul\":1651:1652   */\n      0x00\n        /* \"#utility.yul\":1640:1649   */\n      dup4\n        /* \"#utility.yul\":1636:1653   */\n      add\n        /* \"#utility.yul\":1627:1633   */\n      dup5\n        /* \"#utility.yul\":1583:1654   */\n      tag_43\n      jump\t// in\n    tag_63:\n        /* \"#utility.yul\":1439:1661   */\n      swap3\n      swap2\n      pop\n      pop\n      jump\t// out\n        /* \"#utility.yul\":1667:1996   */\n    tag_17:\n        /* \"#utility.yul\":1726:1732   */\n      0x00\n        /* \"#utility.yul\":1775:1777   */\n      0x20\n        /* \"#utility.yul\":1763:1772   */\n      dup3\n        /* \"#utility.yul\":1754:1761   */\n      dup5\n        /* \"#utility.yul\":1750:1773   */\n      sub\n        /* \"#utility.yul\":1746:1778   */\n      slt\n        /* \"#utility.yul\":1743:1862   */\n      iszero\n      tag_65\n      jumpi\n        /* \"#utility.yul\":1781:1860   */\n      tag_66\n      tag_38\n      jump\t// in\n    tag_66:\n        /* \"#utility.yul\":1743:1862   */\n    tag_65:\n        /* \"#utility.yul\":1901:1902   */\n      0x00\n        /* \"#utility.yul\":1926:1979   */\n      tag_67\n        /* \"#utility.yul\":1971:1978   */\n      dup5\n        /* \"#utility.yul\":1962:1968   */\n      dup3\n        /* \"#utility.yul\":1951:1960   */\n      dup6\n        /* \"#utility.yul\":1947:1969   */\n      add\n        /* \"#utility.yul\":1926:1979   */\n      tag_42\n      jump\t// in\n    tag_67:\n        /* \"#utility.yul\":1916:1979   */\n      swap2\n      pop\n        /* \"#utility.yul\":1872:1989   */\n      pop\n        /* \"#utility.yul\":1667:1996   */\n      swap3\n      swap2\n      pop\n      pop\n      jump\t// out\n        /* \"#utility.yul\":2002:2182   */\n    tag_35:\n        /* \"#utility.yul\":2050:2127   */\n      0x4e487b7100000000000000000000000000000000000000000000000000000000\n        /* \"#utility.yul\":2047:2048   */\n      0x00\n        /* \"#utility.yul\":2040:2128   */\n      mstore\n        /* \"#utility.yul\":2147:2151   */\n      0x32\n        /* \"#utility.yul\":2144:2145   */\n      0x04\n        /* \"#utility.yul\":2137:2152   */\n      mstore\n        /* \"#utility.yul\":2171:2175   */\n      0x24\n        /* \"#utility.yul\":2168:2169   */\n      0x00\n        /* \"#utility.yul\":2161:2176   */\n      revert\n\n    auxdata: 0xa26469706673582212207ecac1f2f43099c7bf3b46b68a1781ea3623028151ce84b43431e138abc87cd264736f6c63430008220033\n}\n",
				"bytecode": {
					"linkReferences": {},
					"object": "6080604052348015600e575f5ffd5b506102f78061001c5f395ff3fe608060405234801561000f575f5ffd5b506004361061004a575f3560e01c806308be540b1461004e578063be1c766b1461006a578063d39fa23314610088578063fc563658146100b8575b5f5ffd5b610068600480360381019061006391906101f1565b6100e8565b005b61007261016c565b60405161007f9190610250565b60405180910390f35b6100a2600480360381019061009d9190610269565b610177565b6040516100af9190610250565b60405180910390f35b6100d260048036038101906100cd9190610269565b610196565b6040516100df9190610250565b60405180910390f35b600a5f80549050106100f8575f5ffd5b5f83908060018154018082558091505060019003905f5260205f20015f90919091909150555f82908060018154018082558091505060019003905f5260205f20015f90919091909150555f81908060018154018082558091505060019003905f5260205f20015f9091909190915055505050565b5f5f80549050905090565b5f8181548110610185575f80fd5b905f5260205f20015f915090505481565b5f5f82815481106101aa576101a9610294565b5b905f5260205f2001549050919050565b5f5ffd5b5f819050919050565b6101d0816101be565b81146101da575f5ffd5b50565b5f813590506101eb816101c7565b92915050565b5f5f5f60608486031215610208576102076101ba565b5b5f610215868287016101dd565b9350506020610226868287016101dd565b9250506040610237868287016101dd565b9150509250925092565b61024a816101be565b82525050565b5f6020820190506102635f830184610241565b92915050565b5f6020828403121561027e5761027d6101ba565b5b5f61028b848285016101dd565b91505092915050565b7f4e487b71000000000000000000000000000000000000000000000000000000005f52603260045260245ffdfea26469706673582212207ecac1f2f43099c7bf3b46b68a1781ea3623028151ce84b43431e138abc87cd264736f6c63430008220033",
					"opcodes": "PUSH1 0x80 PUSH1 0x40 MSTORE CALLVALUE DUP1 ISZERO PUSH1 0xE JUMPI PUSH0 PUSH0 REVERT JUMPDEST POP PUSH2 0x2F7 DUP1 PUSH2 0x1C PUSH0 CODECOPY PUSH0 RETURN INVALID PUSH1 0x80 PUSH1 0x40 MSTORE CALLVALUE DUP1 ISZERO PUSH2 0xF JUMPI PUSH0 PUSH0 REVERT JUMPDEST POP PUSH1 0x4 CALLDATASIZE LT PUSH2 0x4A JUMPI PUSH0 CALLDATALOAD PUSH1 0xE0 SHR DUP1 PUSH4 0x8BE540B EQ PUSH2 0x4E JUMPI DUP1 PUSH4 0xBE1C766B EQ PUSH2 0x6A JUMPI DUP1 PUSH4 0xD39FA233 EQ PUSH2 0x88 JUMPI DUP1 PUSH4 0xFC563658 EQ PUSH2 0xB8 JUMPI JUMPDEST PUSH0 PUSH0 REVERT JUMPDEST PUSH2 0x68 PUSH1 0x4 DUP1 CALLDATASIZE SUB DUP2 ADD SWAP1 PUSH2 0x63 SWAP2 SWAP1 PUSH2 0x1F1 JUMP JUMPDEST PUSH2 0xE8 JUMP JUMPDEST STOP JUMPDEST PUSH2 0x72 PUSH2 0x16C JUMP JUMPDEST PUSH1 0x40 MLOAD PUSH2 0x7F SWAP2 SWAP1 PUSH2 0x250 JUMP JUMPDEST PUSH1 0x40 MLOAD DUP1 SWAP2 SUB SWAP1 RETURN JUMPDEST PUSH2 0xA2 PUSH1 0x4 DUP1 CALLDATASIZE SUB DUP2 ADD SWAP1 PUSH2 0x9D SWAP2 SWAP1 PUSH2 0x269 JUMP JUMPDEST PUSH2 0x177 JUMP JUMPDEST PUSH1 0x40 MLOAD PUSH2 0xAF SWAP2 SWAP1 PUSH2 0x250 JUMP JUMPDEST PUSH1 0x40 MLOAD DUP1 SWAP2 SUB SWAP1 RETURN JUMPDEST PUSH2 0xD2 PUSH1 0x4 DUP1 CALLDATASIZE SUB DUP2 ADD SWAP1 PUSH2 0xCD SWAP2 SWAP1 PUSH2 0x269 JUMP JUMPDEST PUSH2 0x196 JUMP JUMPDEST PUSH1 0x40 MLOAD PUSH2 0xDF SWAP2 SWAP1 PUSH2 0x250 JUMP JUMPDEST PUSH1 0x40 MLOAD DUP1 SWAP2 SUB SWAP1 RETURN JUMPDEST PUSH1 0xA PUSH0 DUP1 SLOAD SWAP1 POP LT PUSH2 0xF8 JUMPI PUSH0 PUSH0 REVERT JUMPDEST PUSH0 DUP4 SWAP1 DUP1 PUSH1 0x1 DUP2 SLOAD ADD DUP1 DUP3 SSTORE DUP1 SWAP2 POP POP PUSH1 0x1 SWAP1 SUB SWAP1 PUSH0 MSTORE PUSH1 0x20 PUSH0 KECCAK256 ADD PUSH0 SWAP1 SWAP2 SWAP1 SWAP2 SWAP1 SWAP2 POP SSTORE PUSH0 DUP3 SWAP1 DUP1 PUSH1 0x1 DUP2 SLOAD ADD DUP1 DUP3 SSTORE DUP1 SWAP2 POP POP PUSH1 0x1 SWAP1 SUB SWAP1 PUSH0 MSTORE PUSH1 0x20 PUSH0 KECCAK256 ADD PUSH0 SWAP1 SWAP2 SWAP1 SWAP2 SWAP1 SWAP2 POP SSTORE PUSH0 DUP2 SWAP1 DUP1 PUSH1 0x1 DUP2 SLOAD ADD DUP1 DUP3 SSTORE DUP1 SWAP2 POP POP PUSH1 0x1 SWAP1 SUB SWAP1 PUSH0 MSTORE PUSH1 0x20 PUSH0 KECCAK256 ADD PUSH0 SWAP1 SWAP2 SWAP1 SWAP2 SWAP1 SWAP2 POP SSTORE POP POP POP JUMP JUMPDEST PUSH0 PUSH0 DUP1 SLOAD SWAP1 POP SWAP1 POP SWAP1 JUMP JUMPDEST PUSH0 DUP2 DUP2 SLOAD DUP2 LT PUSH2 0x185 JUMPI PUSH0 DUP1 REVERT JUMPDEST SWAP1 PUSH0 MSTORE PUSH1 0x20 PUSH0 KECCAK256 ADD PUSH0 SWAP2 POP SWAP1 POP SLOAD DUP2 JUMP JUMPDEST PUSH0 PUSH0 DUP3 DUP2 SLOAD DUP2 LT PUSH2 0x1AA JUMPI PUSH2 0x1A9 PUSH2 0x294 JUMP JUMPDEST JUMPDEST SWAP1 PUSH0 MSTORE PUSH1 0x20 PUSH0 KECCAK256 ADD SLOAD SWAP1 POP SWAP2 SWAP1 POP JUMP JUMPDEST PUSH0 PUSH0 REVERT JUMPDEST PUSH0 DUP2 SWAP1 POP SWAP2 SWAP1 POP JUMP JUMPDEST PUSH2 0x1D0 DUP2 PUSH2 0x1BE JUMP JUMPDEST DUP2 EQ PUSH2 0x1DA JUMPI PUSH0 PUSH0 REVERT JUMPDEST POP JUMP JUMPDEST PUSH0 DUP2 CALLDATALOAD SWAP1 POP PUSH2 0x1EB DUP2 PUSH2 0x1C7 JUMP JUMPDEST SWAP3 SWAP2 POP POP JUMP JUMPDEST PUSH0 PUSH0 PUSH0 PUSH1 0x60 DUP5 DUP7 SUB SLT ISZERO PUSH2 0x208 JUMPI PUSH2 0x207 PUSH2 0x1BA JUMP JUMPDEST JUMPDEST PUSH0 PUSH2 0x215 DUP7 DUP3 DUP8 ADD PUSH2 0x1DD JUMP JUMPDEST SWAP4 POP POP PUSH1 0x20 PUSH2 0x226 DUP7 DUP3 DUP8 ADD PUSH2 0x1DD JUMP JUMPDEST SWAP3 POP POP PUSH1 0x40 PUSH2 0x237 DUP7 DUP3 DUP8 ADD PUSH2 0x1DD JUMP JUMPDEST SWAP2 POP POP SWAP3 POP SWAP3 POP SWAP3 JUMP JUMPDEST PUSH2 0x24A DUP2 PUSH2 0x1BE JUMP JUMPDEST DUP3 MSTORE POP POP JUMP JUMPDEST PUSH0 PUSH1 0x20 DUP3 ADD SWAP1 POP PUSH2 0x263 PUSH0 DUP4 ADD DUP5 PUSH2 0x241 JUMP JUMPDEST SWAP3 SWAP2 POP POP JUMP JUMPDEST PUSH0 PUSH1 0x20 DUP3 DUP5 SUB SLT ISZERO PUSH2 0x27E JUMPI PUSH2 0x27D PUSH2 0x1BA JUMP JUMPDEST JUMPDEST PUSH0 PUSH2 0x28B DUP5 DUP3 DUP6 ADD PUSH2 0x1DD JUMP JUMPDEST SWAP2 POP POP SWAP3 SWAP2 POP POP JUMP JUMPDEST PUSH32 0x4E487B7100000000000000000000000000000000000000000000000000000000 PUSH0 MSTORE PUSH1 0x32 PUSH1 0x4 MSTORE PUSH1 0x24 PUSH0 REVERT INVALID LOG2 PUSH5 0x6970667358 0x22 SLT KECCAK256 PUSH31 0xCAC1F2F43099C7BF3B46B68A1781EA3623028151CE84B43431E138ABC87CD2 PUSH5 0x736F6C6343 STOP ADDMOD 0x22 STOP CALLER "
				},
				"gasEstimates": {
					"creation": {
						"codeDepositCost": "151800",
						"executionCost": "194",
						"totalCost": "151994"
					},
					"external": {
						"addMultipleValues(uint256,uint256,uint256)": "infinite",
						"getLength()": "2439",
						"getNumber(uint256)": "infinite",
						"numbers(uint256)": "infinite"
					}
				},
				"methodIdentifiers": {
					"addMultipleValues(uint256,uint256,uint256)": "08be540b",
					"getLength()": "be1c766b",
					"getNumber(uint256)": "fc563658",
					"numbers(uint256)": "d39fa233"
				}
			},
			"storageLayout": {
				"storage": [
					{
						"astId": 57,
						"contract": "val8.sol:DynamicArrayGrowth",
						"label": "numbers",
						"offset": 0,
						"slot": "0",
						"type": "t_array(t_uint256)dyn_storage"
					}
				],
				"types": {
					"t_array(t_uint256)dyn_storage": {
						"base": "t_uint256",
						"encoding": "dynamic_array",
						"label": "uint256[]",
						"numberOfBytes": "32"
					},
					"t_uint256": {
						"encoding": "inplace",
						"label": "uint256",
						"numberOfBytes": "32"
					}
				}
			},
			"userdoc": {
				"kind": "user",
				"methods": {},
				"version": 1
			}
		}
	}
}