{
	"val47.sol": {
		"EventExecutionTracking": {
			"abi": [
				{
					"inputs": [],
					"stateMutability": "nonpayable",
					"type": "constructor"
				},
				{
					"anonymous": false,
					"inputs": [
						{
							"indexed": true,
							"internalType": "address",
							"name": "admin",
							"type": "address"
						},
						{
							"indexed": false,
							"internalType": "string",
							"name": "action",
							"type": "string"
						},
						{
							"indexed": true,
							"internalType": "uint256",
							"name": "tockenId",
							"type": "uint256"
						}
					],
					"name": "AdminAction",
					"type": "event"
				},
				{
					"anonymous": false,
					"inputs": [
						{
							"indexed": true,
							"internalType": "address",
							"name": "user",
							"type": "address"
						},
						{
							"indexed": false,
							"internalType": "uint256",
							"name": "newBalance",
							"type": "uint256"
						},
						{
							"indexed": true,
							"internalType": "uint256",
							"name": "tokenId",
							"type": "uint256"
						}
					],
					"name": "BalanceUpdated",
					"type": "event"
				},
				{
					"anonymous": false,
					"inputs": [
						{
							"indexed": true,
							"internalType": "address",
							"name": "user",
							"type": "address"
						},
						{
							"indexed": false,
							"internalType": "uint256",
							"name": "amount",
							"type": "uint256"
						},
						{
							"indexed": false,
							"internalType": "uint256",
							"name": "totalDeposits",
							"type": "uint256"
						},
						{
							"indexed": true,
							"internalType": "uint256",
							"name": "tokenId",
							"type": "uint256"
						}
					],
					"name": "DepositCompleted",
					"type": "event"
				},
				{
					"anonymous": false,
					"inputs": [
						{
							"indexed": true,
							"internalType": "address",
							"name": "user",
							"type": "address"
						},
						{
							"indexed": false,
							"internalType": "uint256",
							"name": "amount",
							"type": "uint256"
						},
						{
							"indexed": true,
							"internalType": "uint256",
							"name": "tokenId",
							"type": "uint256"
						}
					],
					"name": "DepositStarted",
					"type": "event"
				},
				{
					"anonymous": false,
					"inputs": [
						{
							"indexed": true,
							"internalType": "address",
							"name": "user",
							"type": "address"
						},
						{
							"indexed": false,
							"internalType": "string",
							"name": "reason",
							"type": "string"
						}
					],
					"name": "ExecutionFailed",
					"type": "event"
				},
				{
					"anonymous": false,
					"inputs": [
						{
							"indexed": true,
							"internalType": "address",
							"name": "caller",
							"type": "address"
						},
						{
							"indexed": false,
							"internalType": "string",
							"name": "action",
							"type": "string"
						}
					],
					"name": "ModifierExecuted",
					"type": "event"
				},
				{
					"anonymous": false,
					"inputs": [
						{
							"indexed": true,
							"internalType": "address",
							"name": "user",
							"type": "address"
						},
						{
							"indexed": false,
							"internalType": "uint256",
							"name": "amount",
							"type": "uint256"
						},
						{
							"indexed": false,
							"internalType": "uint256",
							"name": "remainingBalance",
							"type": "uint256"
						},
						{
							"indexed": true,
							"internalType": "uint256",
							"name": "tokenId",
							"type": "uint256"
						}
					],
					"name": "WithdrawCompleted",
					"type": "event"
				},
				{
					"inputs": [
						{
							"internalType": "address",
							"name": "",
							"type": "address"
						}
					],
					"name": "balances",
					"outputs": [
						{
							"internalType": "uint256",
							"name": "",
							"type": "uint256"
						}
					],
					"stateMutability": "view",
					"type": "function"
				},
				{
					"inputs": [
						{
							"internalType": "uint256",
							"name": "_amount",
							"type": "uint256"
						},
						{
							"internalType": "uint256",
							"name": "_tokenId",
							"type": "uint256"
						}
					],
					"name": "deposit",
					"outputs": [],
					"stateMutability": "nonpayable",
					"type": "function"
				},
				{
					"inputs": [],
					"name": "owner",
					"outputs": [
						{
							"internalType": "address",
							"name": "",
							"type": "address"
						}
					],
					"stateMutability": "view",
					"type": "function"
				},
				{
					"inputs": [
						{
							"internalType": "address",
							"name": "_user",
							"type": "address"
						},
						{
							"internalType": "uint256",
							"name": "_tokenId",
							"type": "uint256"
						}
					],
					"name": "resetBalance",
					"outputs": [],
					"stateMutability": "nonpayable",
					"type": "function"
				},
				{
					"inputs": [],
					"name": "totalDeposits",
					"outputs": [
						{
							"internalType": "uint256",
							"name": "",
							"type": "uint256"
						}
					],
					"stateMutability": "view",
					"type": "function"
				},
				{
					"inputs": [
						{
							"internalType": "uint256",
							"name": "_number",
							"type": "uint256"
						}
					],
					"name": "validateNumber",
					"outputs": [],
					"stateMutability": "nonpayable",
					"type": "function"
				},
				{
					"inputs": [
						{
							"internalType": "uint256",
							"name": "_amount",
							"type": "uint256"
						},
						{
							"internalType": "uint256",
							"name": "_tokenId",
							"type": "uint256"
						}
					],
					"name": "withdraw",
					"outputs": [],
					"stateMutability": "nonpayable",
					"type": "function"
				}
			],
			"devdoc": {
				"kind": "dev",
				"methods": {},
				"version": 1
			},
			"evm": {
				"assembly": "    /* \"val47.sol\":13198:17464  contract EventExecutionTracking {... */\n  mstore(0x40, 0x80)\n    /* \"val47.sol\":14490:14546  constructor()... */\n  callvalue\n  dup1\n  iszero\n  tag_1\n  jumpi\n  revert(0x00, 0x00)\ntag_1:\n  pop\n    /* \"val47.sol\":14528:14538  msg.sender */\n  caller\n    /* \"val47.sol\":14520:14525  owner */\n  0x02\n  0x00\n    /* \"val47.sol\":14520:14538  owner = msg.sender */\n  0x0100\n  exp\n  dup2\n  sload\n  dup2\n  0xffffffffffffffffffffffffffffffffffffffff\n  mul\n  not\n  and\n  swap1\n  dup4\n  0xffffffffffffffffffffffffffffffffffffffff\n  and\n  mul\n  or\n  swap1\n  sstore\n  pop\n    /* \"val47.sol\":13198:17464  contract EventExecutionTracking {... */\n  dataSize(sub_0)\n  dup1\n  dataOffset(sub_0)\n  0x00\n  codecopy\n  0x00\n  return\nstop\n\nsub_0: assembly {\n        /* \"val47.sol\":13198:17464  contract EventExecutionTracking {... */\n      mstore(0x40, 0x80)\n      callvalue\n      dup1\n      iszero\n      tag_1\n      jumpi\n      revert(0x00, 0x00)\n    tag_1:\n      pop\n      jumpi(tag_2, lt(calldatasize, 0x04))\n      shr(0xe0, calldataload(0x00))\n      dup1\n      0x8da5cb5b\n      gt\n      tag_10\n      jumpi\n      dup1\n      0x8da5cb5b\n      eq\n      tag_6\n      jumpi\n      dup1\n      0x91ddb1c1\n      eq\n      tag_7\n      jumpi\n      dup1\n      0xa437aaa9\n      eq\n      tag_8\n      jumpi\n      dup1\n      0xe2bbb158\n      eq\n      tag_9\n      jumpi\n      jump(tag_2)\n    tag_10:\n      dup1\n      0x27e235e3\n      eq\n      tag_3\n      jumpi\n      dup1\n      0x441a3e70\n      eq\n      tag_4\n      jumpi\n      dup1\n      0x7d882097\n      eq\n      tag_5\n      jumpi\n    tag_2:\n      revert(0x00, 0x00)\n        /* \"val47.sol\":13282:13325  mapping(address => uint256) public balances */\n    tag_3:\n      tag_11\n      0x04\n      dup1\n      calldatasize\n      sub\n      dup2\n      add\n      swap1\n      tag_12\n      swap2\n      swap1\n      tag_13\n      jump\t// in\n    tag_12:\n      tag_14\n      jump\t// in\n    tag_11:\n      mload(0x40)\n      tag_15\n      swap2\n      swap1\n      tag_16\n      jump\t// in\n    tag_15:\n      mload(0x40)\n      dup1\n      swap2\n      sub\n      swap1\n      return\n        /* \"val47.sol\":16158:16585  function withdraw(... */\n    tag_4:\n      tag_17\n      0x04\n      dup1\n      calldatasize\n      sub\n      dup2\n      add\n      swap1\n      tag_18\n      swap2\n      swap1\n      tag_19\n      jump\t// in\n    tag_18:\n      tag_20\n      jump\t// in\n    tag_17:\n      stop\n        /* \"val47.sol\":13334:13362  uint256 public totalDeposits */\n    tag_5:\n      tag_21\n      tag_22\n      jump\t// in\n    tag_21:\n      mload(0x40)\n      tag_23\n      swap2\n      swap1\n      tag_16\n      jump\t// in\n    tag_23:\n      mload(0x40)\n      dup1\n      swap2\n      sub\n      swap1\n      return\n        /* \"val47.sol\":13371:13391  address public owner */\n    tag_6:\n      tag_24\n      tag_25\n      jump\t// in\n    tag_24:\n      mload(0x40)\n      tag_26\n      swap2\n      swap1\n      tag_27\n      jump\t// in\n    tag_26:\n      mload(0x40)\n      dup1\n      swap2\n      sub\n      swap1\n      return\n        /* \"val47.sol\":16610:16923  function resetBalance(... */\n    tag_7:\n      tag_28\n      0x04\n      dup1\n      calldatasize\n      sub\n      dup2\n      add\n      swap1\n      tag_29\n      swap2\n      swap1\n      tag_30\n      jump\t// in\n    tag_29:\n      tag_31\n      jump\t// in\n    tag_28:\n      stop\n        /* \"val47.sol\":17098:17461  function validateNumber(... */\n    tag_8:\n      tag_32\n      0x04\n      dup1\n      calldatasize\n      sub\n      dup2\n      add\n      swap1\n      tag_33\n      swap2\n      swap1\n      tag_34\n      jump\t// in\n    tag_33:\n      tag_35\n      jump\t// in\n    tag_32:\n      stop\n        /* \"val47.sol\":14866:16137  function deposit(... */\n    tag_9:\n      tag_36\n      0x04\n      dup1\n      calldatasize\n      sub\n      dup2\n      add\n      swap1\n      tag_37\n      swap2\n      swap1\n      tag_19\n      jump\t// in\n    tag_37:\n      tag_38\n      jump\t// in\n    tag_36:\n      stop\n        /* \"val47.sol\":13282:13325  mapping(address => uint256) public balances */\n    tag_14:\n      mstore(0x20, 0x00)\n      dup1\n      0x00\n      mstore\n      keccak256(0x00, 0x40)\n      0x00\n      swap2\n      pop\n      swap1\n      pop\n      sload\n      dup2\n      jump\t// out\n        /* \"val47.sol\":16158:16585  function withdraw(... */\n    tag_20:\n        /* \"val47.sol\":16313:16320  _amount */\n      dup2\n        /* \"val47.sol\":16289:16297  balances */\n      0x00\n        /* \"val47.sol\":16289:16309  balances[msg.sender] */\n      0x00\n        /* \"val47.sol\":16298:16308  msg.sender */\n      caller\n        /* \"val47.sol\":16289:16309  balances[msg.sender] */\n      0xffffffffffffffffffffffffffffffffffffffff\n      and\n      0xffffffffffffffffffffffffffffffffffffffff\n      and\n      dup2\n      mstore\n      0x20\n      add\n      swap1\n      dup2\n      mstore\n      0x20\n      add\n      0x00\n      keccak256\n      sload\n        /* \"val47.sol\":16289:16320  balances[msg.sender] >= _amount */\n      lt\n      iszero\n        /* \"val47.sol\":16281:16345  require(balances[msg.sender] >= _amount, \"Insufficient balance\") */\n      tag_41\n      jumpi\n      mload(0x40)\n      0x08c379a000000000000000000000000000000000000000000000000000000000\n      dup2\n      mstore\n      0x04\n      add\n      tag_42\n      swap1\n      tag_43\n      jump\t// in\n    tag_42:\n      mload(0x40)\n      dup1\n      swap2\n      sub\n      swap1\n      revert\n    tag_41:\n        /* \"val47.sol\":16382:16389  _amount */\n      dup2\n        /* \"val47.sol\":16358:16366  balances */\n      0x00\n        /* \"val47.sol\":16358:16378  balances[msg.sender] */\n      0x00\n        /* \"val47.sol\":16367:16377  msg.sender */\n      caller\n        /* \"val47.sol\":16358:16378  balances[msg.sender] */\n      0xffffffffffffffffffffffffffffffffffffffff\n      and\n      0xffffffffffffffffffffffffffffffffffffffff\n      and\n      dup2\n      mstore\n      0x20\n      add\n      swap1\n      dup2\n      mstore\n      0x20\n      add\n      0x00\n      keccak256\n      0x00\n        /* \"val47.sol\":16358:16389  balances[msg.sender] -= _amount */\n      dup3\n      dup3\n      sload\n      tag_44\n      swap2\n      swap1\n      tag_45\n      jump\t// in\n    tag_44:\n      swap3\n      pop\n      pop\n      dup2\n      swap1\n      sstore\n      pop\n        /* \"val47.sol\":16419:16426  _amount */\n      dup2\n        /* \"val47.sol\":16402:16415  totalDeposits */\n      0x01\n      0x00\n        /* \"val47.sol\":16402:16426  totalDeposits -= _amount */\n      dup3\n      dup3\n      sload\n      tag_46\n      swap2\n      swap1\n      tag_45\n      jump\t// in\n    tag_46:\n      swap3\n      pop\n      pop\n      dup2\n      swap1\n      sstore\n      pop\n        /* \"val47.sol\":16558:16566  _tokenId */\n      dup1\n        /* \"val47.sol\":16476:16486  msg.sender */\n      caller\n        /* \"val47.sol\":16444:16577  WithdrawCompleted(... */\n      0xffffffffffffffffffffffffffffffffffffffff\n      and\n      0xfada57d3c4b7d2ba1d17dd51770436f3164806d8cf30ca643ad4c050f07019ea\n        /* \"val47.sol\":16501:16508  _amount */\n      dup5\n        /* \"val47.sol\":16523:16531  balances */\n      0x00\n        /* \"val47.sol\":16523:16543  balances[msg.sender] */\n      0x00\n        /* \"val47.sol\":16532:16542  msg.sender */\n      caller\n        /* \"val47.sol\":16523:16543  balances[msg.sender] */\n      0xffffffffffffffffffffffffffffffffffffffff\n      and\n      0xffffffffffffffffffffffffffffffffffffffff\n      and\n      dup2\n      mstore\n      0x20\n      add\n      swap1\n      dup2\n      mstore\n      0x20\n      add\n      0x00\n      keccak256\n      sload\n        /* \"val47.sol\":16444:16577  WithdrawCompleted(... */\n      mload(0x40)\n      tag_47\n      swap3\n      swap2\n      swap1\n      tag_48\n      jump\t// in\n    tag_47:\n      mload(0x40)\n      dup1\n      swap2\n      sub\n      swap1\n      log3\n        /* \"val47.sol\":14654:14664  msg.sender */\n      caller\n        /* \"val47.sol\":14637:14687  ModifierExecuted(msg.sender, \"Modifier Completed\") */\n      0xffffffffffffffffffffffffffffffffffffffff\n      and\n      0xc738a8bbba2ccb9a0d39072102ec0c8c4ff38db803ec0fefa1375a36ccb6d58b\n      mload(0x40)\n      tag_49\n      swap1\n      tag_50\n      jump\t// in\n    tag_49:\n      mload(0x40)\n      dup1\n      swap2\n      sub\n      swap1\n      log2\n        /* \"val47.sol\":16158:16585  function withdraw(... */\n      pop\n      pop\n      jump\t// out\n        /* \"val47.sol\":13334:13362  uint256 public totalDeposits */\n    tag_22:\n      sload(0x01)\n      dup2\n      jump\t// out\n        /* \"val47.sol\":13371:13391  address public owner */\n    tag_25:\n      0x02\n      0x00\n      swap1\n      sload\n      swap1\n      0x0100\n      exp\n      swap1\n      div\n      0xffffffffffffffffffffffffffffffffffffffff\n      and\n      dup2\n      jump\t// out\n        /* \"val47.sol\":16610:16923  function resetBalance(... */\n    tag_31:\n        /* \"val47.sol\":16786:16791  owner */\n      0x02\n      0x00\n      swap1\n      sload\n      swap1\n      0x0100\n      exp\n      swap1\n      div\n      0xffffffffffffffffffffffffffffffffffffffff\n      and\n        /* \"val47.sol\":16772:16791  msg.sender == owner */\n      0xffffffffffffffffffffffffffffffffffffffff\n      and\n        /* \"val47.sol\":16772:16782  msg.sender */\n      caller\n        /* \"val47.sol\":16772:16791  msg.sender == owner */\n      0xffffffffffffffffffffffffffffffffffffffff\n      and\n      eq\n        /* \"val47.sol\":16750:16815  require(... */\n      tag_52\n      jumpi\n      mload(0x40)\n      0x08c379a000000000000000000000000000000000000000000000000000000000\n      dup2\n      mstore\n      0x04\n      add\n      tag_53\n      swap1\n      tag_54\n      jump\t// in\n    tag_53:\n      mload(0x40)\n      dup1\n      swap2\n      sub\n      swap1\n      revert\n    tag_52:\n        /* \"val47.sol\":16846:16847  0 */\n      0x00\n        /* \"val47.sol\":16828:16836  balances */\n      0x00\n        /* \"val47.sol\":16828:16843  balances[_user] */\n      0x00\n        /* \"val47.sol\":16837:16842  _user */\n      dup5\n        /* \"val47.sol\":16828:16843  balances[_user] */\n      0xffffffffffffffffffffffffffffffffffffffff\n      and\n      0xffffffffffffffffffffffffffffffffffffffff\n      and\n      dup2\n      mstore\n      0x20\n      add\n      swap1\n      dup2\n      mstore\n      0x20\n      add\n      0x00\n      keccak256\n        /* \"val47.sol\":16828:16847  balances[_user] = 0 */\n      dup2\n      swap1\n      sstore\n      pop\n        /* \"val47.sol\":16906:16914  _tokenId */\n      dup1\n        /* \"val47.sol\":16877:16887  msg.sender */\n      caller\n        /* \"val47.sol\":16865:16915  AdminAction(msg.sender, \"Balance reset\", _tokenId) */\n      0xffffffffffffffffffffffffffffffffffffffff\n      and\n      0xdacf2138f2c7d272efe049f9aebc583d6419f0500344c074f73516bace83ac4c\n      mload(0x40)\n      tag_55\n      swap1\n      tag_56\n      jump\t// in\n    tag_55:\n      mload(0x40)\n      dup1\n      swap2\n      sub\n      swap1\n      log3\n        /* \"val47.sol\":16610:16923  function resetBalance(... */\n      pop\n      pop\n      jump\t// out\n        /* \"val47.sol\":17098:17461  function validateNumber(... */\n    tag_35:\n        /* \"val47.sol\":17276:17278  10 */\n      0x0a\n        /* \"val47.sol\":17266:17273  _number */\n      dup2\n        /* \"val47.sol\":17266:17278  _number > 10 */\n      gt\n        /* \"val47.sol\":17262:17454  if (_number > 10) {... */\n      iszero\n      tag_58\n      jumpi\n        /* \"val47.sol\":17336:17346  msg.sender */\n      caller\n        /* \"val47.sol\":17302:17398  ExecutionFailed(... */\n      0xffffffffffffffffffffffffffffffffffffffff\n      and\n      0xe1c5ab05a8e26b50aefe1ea23a40dd92ad70332938efc2c2f0e0680969084375\n      mload(0x40)\n      tag_59\n      swap1\n      tag_60\n      jump\t// in\n    tag_59:\n      mload(0x40)\n      dup1\n      swap2\n      sub\n      swap1\n      log2\n        /* \"val47.sol\":17415:17442  revert(\"Validation failed\") */\n      mload(0x40)\n      0x08c379a000000000000000000000000000000000000000000000000000000000\n      dup2\n      mstore\n      0x04\n      add\n      tag_61\n      swap1\n      tag_62\n      jump\t// in\n    tag_61:\n      mload(0x40)\n      dup1\n      swap2\n      sub\n      swap1\n      revert\n        /* \"val47.sol\":17262:17454  if (_number > 10) {... */\n    tag_58:\n        /* \"val47.sol\":17098:17461  function validateNumber(... */\n      pop\n      jump\t// out\n        /* \"val47.sol\":14866:16137  function deposit(... */\n    tag_38:\n        /* \"val47.sol\":15180:15188  _tokenId */\n      dup1\n        /* \"val47.sol\":15131:15141  msg.sender */\n      caller\n        /* \"val47.sol\":15102:15199  DepositStarted(... */\n      0xffffffffffffffffffffffffffffffffffffffff\n      and\n      0x9c27b7182a2826577bb105e5f1b09f9026166713ce79b47f0e04c6d52402f52c\n        /* \"val47.sol\":15157:15164  _amount */\n      dup5\n        /* \"val47.sol\":15102:15199  DepositStarted(... */\n      mload(0x40)\n      tag_65\n      swap2\n      swap1\n      tag_16\n      jump\t// in\n    tag_65:\n      mload(0x40)\n      dup1\n      swap2\n      sub\n      swap1\n      log3\n        /* \"val47.sol\":15318:15319  0 */\n      0x00\n        /* \"val47.sol\":15308:15315  _amount */\n      dup3\n        /* \"val47.sol\":15308:15319  _amount > 0 */\n      gt\n        /* \"val47.sol\":15286:15365  require(... */\n      tag_66\n      jumpi\n      mload(0x40)\n      0x08c379a000000000000000000000000000000000000000000000000000000000\n      dup2\n      mstore\n      0x04\n      add\n      tag_67\n      swap1\n      tag_68\n      jump\t// in\n    tag_67:\n      mload(0x40)\n      dup1\n      swap2\n      sub\n      swap1\n      revert\n    tag_66:\n        /* \"val47.sol\":15411:15414  100 */\n      0x64\n        /* \"val47.sol\":15400:15407  _amount */\n      dup3\n        /* \"val47.sol\":15400:15414  _amount <= 100 */\n      gt\n      iszero\n        /* \"val47.sol\":15378:15458  require(... */\n      tag_69\n      jumpi\n      mload(0x40)\n      0x08c379a000000000000000000000000000000000000000000000000000000000\n      dup2\n      mstore\n      0x04\n      add\n      tag_70\n      swap1\n      tag_71\n      jump\t// in\n    tag_70:\n      mload(0x40)\n      dup1\n      swap2\n      sub\n      swap1\n      revert\n    tag_69:\n        /* \"val47.sol\":15569:15576  _amount */\n      dup2\n        /* \"val47.sol\":15545:15553  balances */\n      0x00\n        /* \"val47.sol\":15545:15565  balances[msg.sender] */\n      0x00\n        /* \"val47.sol\":15554:15564  msg.sender */\n      caller\n        /* \"val47.sol\":15545:15565  balances[msg.sender] */\n      0xffffffffffffffffffffffffffffffffffffffff\n      and\n      0xffffffffffffffffffffffffffffffffffffffff\n      and\n      dup2\n      mstore\n      0x20\n      add\n      swap1\n      dup2\n      mstore\n      0x20\n      add\n      0x00\n      keccak256\n      0x00\n        /* \"val47.sol\":15545:15576  balances[msg.sender] += _amount */\n      dup3\n      dup3\n      sload\n      tag_72\n      swap2\n      swap1\n      tag_73\n      jump\t// in\n    tag_72:\n      swap3\n      pop\n      pop\n      dup2\n      swap1\n      sstore\n      pop\n        /* \"val47.sol\":15768:15776  _tokenId */\n      dup1\n        /* \"val47.sol\":15708:15718  msg.sender */\n      caller\n        /* \"val47.sol\":15679:15787  BalanceUpdated(... */\n      0xffffffffffffffffffffffffffffffffffffffff\n      and\n      0x5e00297b9c4f8fef460c4d7123316eeeb08a64a0930d1d9cae0b61b7f663b254\n        /* \"val47.sol\":15733:15741  balances */\n      0x00\n        /* \"val47.sol\":15733:15753  balances[msg.sender] */\n      0x00\n        /* \"val47.sol\":15742:15752  msg.sender */\n      caller\n        /* \"val47.sol\":15733:15753  balances[msg.sender] */\n      0xffffffffffffffffffffffffffffffffffffffff\n      and\n      0xffffffffffffffffffffffffffffffffffffffff\n      and\n      dup2\n      mstore\n      0x20\n      add\n      swap1\n      dup2\n      mstore\n      0x20\n      add\n      0x00\n      keccak256\n      sload\n        /* \"val47.sol\":15679:15787  BalanceUpdated(... */\n      mload(0x40)\n      tag_74\n      swap2\n      swap1\n      tag_16\n      jump\t// in\n    tag_74:\n      mload(0x40)\n      dup1\n      swap2\n      sub\n      swap1\n      log3\n        /* \"val47.sol\":15898:15905  _amount */\n      dup2\n        /* \"val47.sol\":15881:15894  totalDeposits */\n      0x01\n      0x00\n        /* \"val47.sol\":15881:15905  totalDeposits += _amount */\n      dup3\n      dup3\n      sload\n      tag_75\n      swap2\n      swap1\n      tag_73\n      jump\t// in\n    tag_75:\n      swap3\n      pop\n      pop\n      dup2\n      swap1\n      sstore\n      pop\n        /* \"val47.sol\":16110:16118  _tokenId */\n      dup1\n        /* \"val47.sol\":16035:16045  msg.sender */\n      caller\n        /* \"val47.sol\":16004:16129  DepositCompleted(... */\n      0xffffffffffffffffffffffffffffffffffffffff\n      and\n      0x53201a467e2e685380ae6e1b145057397d8710a927d37d46d7ab24918b8148ec\n        /* \"val47.sol\":16060:16067  _amount */\n      dup5\n        /* \"val47.sol\":16082:16095  totalDeposits */\n      sload(0x01)\n        /* \"val47.sol\":16004:16129  DepositCompleted(... */\n      mload(0x40)\n      tag_76\n      swap3\n      swap2\n      swap1\n      tag_48\n      jump\t// in\n    tag_76:\n      mload(0x40)\n      dup1\n      swap2\n      sub\n      swap1\n      log3\n        /* \"val47.sol\":14654:14664  msg.sender */\n      caller\n        /* \"val47.sol\":14637:14687  ModifierExecuted(msg.sender, \"Modifier Completed\") */\n      0xffffffffffffffffffffffffffffffffffffffff\n      and\n      0xc738a8bbba2ccb9a0d39072102ec0c8c4ff38db803ec0fefa1375a36ccb6d58b\n      mload(0x40)\n      tag_77\n      swap1\n      tag_50\n      jump\t// in\n    tag_77:\n      mload(0x40)\n      dup1\n      swap2\n      sub\n      swap1\n      log2\n        /* \"val47.sol\":14866:16137  function deposit(... */\n      pop\n      pop\n      jump\t// out\n        /* \"#utility.yul\":88:205   */\n    tag_79:\n        /* \"#utility.yul\":197:198   */\n      0x00\n        /* \"#utility.yul\":194:195   */\n      0x00\n        /* \"#utility.yul\":187:199   */\n      revert\n        /* \"#utility.yul\":334:460   */\n    tag_81:\n        /* \"#utility.yul\":371:378   */\n      0x00\n        /* \"#utility.yul\":411:453   */\n      0xffffffffffffffffffffffffffffffffffffffff\n        /* \"#utility.yul\":404:409   */\n      dup3\n        /* \"#utility.yul\":400:454   */\n      and\n        /* \"#utility.yul\":389:454   */\n      swap1\n      pop\n        /* \"#utility.yul\":334:460   */\n      swap2\n      swap1\n      pop\n      jump\t// out\n        /* \"#utility.yul\":466:562   */\n    tag_82:\n        /* \"#utility.yul\":503:510   */\n      0x00\n        /* \"#utility.yul\":532:556   */\n      tag_114\n        /* \"#utility.yul\":550:555   */\n      dup3\n        /* \"#utility.yul\":532:556   */\n      tag_81\n      jump\t// in\n    tag_114:\n        /* \"#utility.yul\":521:556   */\n      swap1\n      pop\n        /* \"#utility.yul\":466:562   */\n      swap2\n      swap1\n      pop\n      jump\t// out\n        /* \"#utility.yul\":568:690   */\n    tag_83:\n        /* \"#utility.yul\":641:665   */\n      tag_116\n        /* \"#utility.yul\":659:664   */\n      dup2\n        /* \"#utility.yul\":641:665   */\n      tag_82\n      jump\t// in\n    tag_116:\n        /* \"#utility.yul\":634:639   */\n      dup2\n        /* \"#utility.yul\":631:666   */\n      eq\n        /* \"#utility.yul\":621:684   */\n      tag_117\n      jumpi\n        /* \"#utility.yul\":680:681   */\n      0x00\n        /* \"#utility.yul\":677:678   */\n      0x00\n        /* \"#utility.yul\":670:682   */\n      revert\n        /* \"#utility.yul\":621:684   */\n    tag_117:\n        /* \"#utility.yul\":568:690   */\n      pop\n      jump\t// out\n        /* \"#utility.yul\":696:835   */\n    tag_84:\n        /* \"#utility.yul\":742:747   */\n      0x00\n        /* \"#utility.yul\":780:786   */\n      dup2\n        /* \"#utility.yul\":767:787   */\n      calldataload\n        /* \"#utility.yul\":758:787   */\n      swap1\n      pop\n        /* \"#utility.yul\":796:829   */\n      tag_119\n        /* \"#utility.yul\":823:828   */\n      dup2\n        /* \"#utility.yul\":796:829   */\n      tag_83\n      jump\t// in\n    tag_119:\n        /* \"#utility.yul\":696:835   */\n      swap3\n      swap2\n      pop\n      pop\n      jump\t// out\n        /* \"#utility.yul\":841:1170   */\n    tag_13:\n        /* \"#utility.yul\":900:906   */\n      0x00\n        /* \"#utility.yul\":949:951   */\n      0x20\n        /* \"#utility.yul\":937:946   */\n      dup3\n        /* \"#utility.yul\":928:935   */\n      dup5\n        /* \"#utility.yul\":924:947   */\n      sub\n        /* \"#utility.yul\":920:952   */\n      slt\n        /* \"#utility.yul\":917:1036   */\n      iszero\n      tag_121\n      jumpi\n        /* \"#utility.yul\":955:1034   */\n      tag_122\n      tag_79\n      jump\t// in\n    tag_122:\n        /* \"#utility.yul\":917:1036   */\n    tag_121:\n        /* \"#utility.yul\":1075:1076   */\n      0x00\n        /* \"#utility.yul\":1100:1153   */\n      tag_123\n        /* \"#utility.yul\":1145:1152   */\n      dup5\n        /* \"#utility.yul\":1136:1142   */\n      dup3\n        /* \"#utility.yul\":1125:1134   */\n      dup6\n        /* \"#utility.yul\":1121:1143   */\n      add\n        /* \"#utility.yul\":1100:1153   */\n      tag_84\n      jump\t// in\n    tag_123:\n        /* \"#utility.yul\":1090:1153   */\n      swap2\n      pop\n        /* \"#utility.yul\":1046:1163   */\n      pop\n        /* \"#utility.yul\":841:1170   */\n      swap3\n      swap2\n      pop\n      pop\n      jump\t// out\n        /* \"#utility.yul\":1176:1253   */\n    tag_85:\n        /* \"#utility.yul\":1213:1220   */\n      0x00\n        /* \"#utility.yul\":1242:1247   */\n      dup2\n        /* \"#utility.yul\":1231:1247   */\n      swap1\n      pop\n        /* \"#utility.yul\":1176:1253   */\n      swap2\n      swap1\n      pop\n      jump\t// out\n        /* \"#utility.yul\":1259:1377   */\n    tag_86:\n        /* \"#utility.yul\":1346:1370   */\n      tag_126\n        /* \"#utility.yul\":1364:1369   */\n      dup2\n        /* \"#utility.yul\":1346:1370   */\n      tag_85\n      jump\t// in\n    tag_126:\n        /* \"#utility.yul\":1341:1344   */\n      dup3\n        /* \"#utility.yul\":1334:1371   */\n      mstore\n        /* \"#utility.yul\":1259:1377   */\n      pop\n      pop\n      jump\t// out\n        /* \"#utility.yul\":1383:1605   */\n    tag_16:\n        /* \"#utility.yul\":1476:1480   */\n      0x00\n        /* \"#utility.yul\":1514:1516   */\n      0x20\n        /* \"#utility.yul\":1503:1512   */\n      dup3\n        /* \"#utility.yul\":1499:1517   */\n      add\n        /* \"#utility.yul\":1491:1517   */\n      swap1\n      pop\n        /* \"#utility.yul\":1527:1598   */\n      tag_128\n        /* \"#utility.yul\":1595:1596   */\n      0x00\n        /* \"#utility.yul\":1584:1593   */\n      dup4\n        /* \"#utility.yul\":1580:1597   */\n      add\n        /* \"#utility.yul\":1571:1577   */\n      dup5\n        /* \"#utility.yul\":1527:1598   */\n      tag_86\n      jump\t// in\n    tag_128:\n        /* \"#utility.yul\":1383:1605   */\n      swap3\n      swap2\n      pop\n      pop\n      jump\t// out\n        /* \"#utility.yul\":1611:1733   */\n    tag_87:\n        /* \"#utility.yul\":1684:1708   */\n      tag_130\n        /* \"#utility.yul\":1702:1707   */\n      dup2\n        /* \"#utility.yul\":1684:1708   */\n      tag_85\n      jump\t// in\n    tag_130:\n        /* \"#utility.yul\":1677:1682   */\n      dup2\n        /* \"#utility.yul\":1674:1709   */\n      eq\n        /* \"#utility.yul\":1664:1727   */\n      tag_131\n      jumpi\n        /* \"#utility.yul\":1723:1724   */\n      0x00\n        /* \"#utility.yul\":1720:1721   */\n      0x00\n        /* \"#utility.yul\":1713:1725   */\n      revert\n        /* \"#utility.yul\":1664:1727   */\n    tag_131:\n        /* \"#utility.yul\":1611:1733   */\n      pop\n      jump\t// out\n        /* \"#utility.yul\":1739:1878   */\n    tag_88:\n        /* \"#utility.yul\":1785:1790   */\n      0x00\n        /* \"#utility.yul\":1823:1829   */\n      dup2\n        /* \"#utility.yul\":1810:1830   */\n      calldataload\n        /* \"#utility.yul\":1801:1830   */\n      swap1\n      pop\n        /* \"#utility.yul\":1839:1872   */\n      tag_133\n        /* \"#utility.yul\":1866:1871   */\n      dup2\n        /* \"#utility.yul\":1839:1872   */\n      tag_87\n      jump\t// in\n    tag_133:\n        /* \"#utility.yul\":1739:1878   */\n      swap3\n      swap2\n      pop\n      pop\n      jump\t// out\n        /* \"#utility.yul\":1884:2358   */\n    tag_19:\n        /* \"#utility.yul\":1952:1958   */\n      0x00\n        /* \"#utility.yul\":1960:1966   */\n      0x00\n        /* \"#utility.yul\":2009:2011   */\n      0x40\n        /* \"#utility.yul\":1997:2006   */\n      dup4\n        /* \"#utility.yul\":1988:1995   */\n      dup6\n        /* \"#utility.yul\":1984:2007   */\n      sub\n        /* \"#utility.yul\":1980:2012   */\n      slt\n        /* \"#utility.yul\":1977:2096   */\n      iszero\n      tag_135\n      jumpi\n        /* \"#utility.yul\":2015:2094   */\n      tag_136\n      tag_79\n      jump\t// in\n    tag_136:\n        /* \"#utility.yul\":1977:2096   */\n    tag_135:\n        /* \"#utility.yul\":2135:2136   */\n      0x00\n        /* \"#utility.yul\":2160:2213   */\n      tag_137\n        /* \"#utility.yul\":2205:2212   */\n      dup6\n        /* \"#utility.yul\":2196:2202   */\n      dup3\n        /* \"#utility.yul\":2185:2194   */\n      dup7\n        /* \"#utility.yul\":2181:2203   */\n      add\n        /* \"#utility.yul\":2160:2213   */\n      tag_88\n      jump\t// in\n    tag_137:\n        /* \"#utility.yul\":2150:2213   */\n      swap3\n      pop\n        /* \"#utility.yul\":2106:2223   */\n      pop\n        /* \"#utility.yul\":2262:2264   */\n      0x20\n        /* \"#utility.yul\":2288:2341   */\n      tag_138\n        /* \"#utility.yul\":2333:2340   */\n      dup6\n        /* \"#utility.yul\":2324:2330   */\n      dup3\n        /* \"#utility.yul\":2313:2322   */\n      dup7\n        /* \"#utility.yul\":2309:2331   */\n      add\n        /* \"#utility.yul\":2288:2341   */\n      tag_88\n      jump\t// in\n    tag_138:\n        /* \"#utility.yul\":2278:2341   */\n      swap2\n      pop\n        /* \"#utility.yul\":2233:2351   */\n      pop\n        /* \"#utility.yul\":1884:2358   */\n      swap3\n      pop\n      swap3\n      swap1\n      pop\n      jump\t// out\n        /* \"#utility.yul\":2364:2482   */\n    tag_89:\n        /* \"#utility.yul\":2451:2475   */\n      tag_140\n        /* \"#utility.yul\":2469:2474   */\n      dup2\n        /* \"#utility.yul\":2451:2475   */\n      tag_82\n      jump\t// in\n    tag_140:\n        /* \"#utility.yul\":2446:2449   */\n      dup3\n        /* \"#utility.yul\":2439:2476   */\n      mstore\n        /* \"#utility.yul\":2364:2482   */\n      pop\n      pop\n      jump\t// out\n        /* \"#utility.yul\":2488:2710   */\n    tag_27:\n        /* \"#utility.yul\":2581:2585   */\n      0x00\n        /* \"#utility.yul\":2619:2621   */\n      0x20\n        /* \"#utility.yul\":2608:2617   */\n      dup3\n        /* \"#utility.yul\":2604:2622   */\n      add\n        /* \"#utility.yul\":2596:2622   */\n      swap1\n      pop\n        /* \"#utility.yul\":2632:2703   */\n      tag_142\n        /* \"#utility.yul\":2700:2701   */\n      0x00\n        /* \"#utility.yul\":2689:2698   */\n      dup4\n        /* \"#utility.yul\":2685:2702   */\n      add\n        /* \"#utility.yul\":2676:2682   */\n      dup5\n        /* \"#utility.yul\":2632:2703   */\n      tag_89\n      jump\t// in\n    tag_142:\n        /* \"#utility.yul\":2488:2710   */\n      swap3\n      swap2\n      pop\n      pop\n      jump\t// out\n        /* \"#utility.yul\":2716:3190   */\n    tag_30:\n        /* \"#utility.yul\":2784:2790   */\n      0x00\n        /* \"#utility.yul\":2792:2798   */\n      0x00\n        /* \"#utility.yul\":2841:2843   */\n      0x40\n        /* \"#utility.yul\":2829:2838   */\n      dup4\n        /* \"#utility.yul\":2820:2827   */\n      dup6\n        /* \"#utility.yul\":2816:2839   */\n      sub\n        /* \"#utility.yul\":2812:2844   */\n      slt\n        /* \"#utility.yul\":2809:2928   */\n      iszero\n      tag_144\n      jumpi\n        /* \"#utility.yul\":2847:2926   */\n      tag_145\n      tag_79\n      jump\t// in\n    tag_145:\n        /* \"#utility.yul\":2809:2928   */\n    tag_144:\n        /* \"#utility.yul\":2967:2968   */\n      0x00\n        /* \"#utility.yul\":2992:3045   */\n      tag_146\n        /* \"#utility.yul\":3037:3044   */\n      dup6\n        /* \"#utility.yul\":3028:3034   */\n      dup3\n        /* \"#utility.yul\":3017:3026   */\n      dup7\n        /* \"#utility.yul\":3013:3035   */\n      add\n        /* \"#utility.yul\":2992:3045   */\n      tag_84\n      jump\t// in\n    tag_146:\n        /* \"#utility.yul\":2982:3045   */\n      swap3\n      pop\n        /* \"#utility.yul\":2938:3055   */\n      pop\n        /* \"#utility.yul\":3094:3096   */\n      0x20\n        /* \"#utility.yul\":3120:3173   */\n      tag_147\n        /* \"#utility.yul\":3165:3172   */\n      dup6\n        /* \"#utility.yul\":3156:3162   */\n      dup3\n        /* \"#utility.yul\":3145:3154   */\n      dup7\n        /* \"#utility.yul\":3141:3163   */\n      add\n        /* \"#utility.yul\":3120:3173   */\n      tag_88\n      jump\t// in\n    tag_147:\n        /* \"#utility.yul\":3110:3173   */\n      swap2\n      pop\n        /* \"#utility.yul\":3065:3183   */\n      pop\n        /* \"#utility.yul\":2716:3190   */\n      swap3\n      pop\n      swap3\n      swap1\n      pop\n      jump\t// out\n        /* \"#utility.yul\":3196:3525   */\n    tag_34:\n        /* \"#utility.yul\":3255:3261   */\n      0x00\n        /* \"#utility.yul\":3304:3306   */\n      0x20\n        /* \"#utility.yul\":3292:3301   */\n      dup3\n        /* \"#utility.yul\":3283:3290   */\n      dup5\n        /* \"#utility.yul\":3279:3302   */\n      sub\n        /* \"#utility.yul\":3275:3307   */\n      slt\n        /* \"#utility.yul\":3272:3391   */\n      iszero\n      tag_149\n      jumpi\n        /* \"#utility.yul\":3310:3389   */\n      tag_150\n      tag_79\n      jump\t// in\n    tag_150:\n        /* \"#utility.yul\":3272:3391   */\n    tag_149:\n        /* \"#utility.yul\":3430:3431   */\n      0x00\n        /* \"#utility.yul\":3455:3508   */\n      tag_151\n        /* \"#utility.yul\":3500:3507   */\n      dup5\n        /* \"#utility.yul\":3491:3497   */\n      dup3\n        /* \"#utility.yul\":3480:3489   */\n      dup6\n        /* \"#utility.yul\":3476:3498   */\n      add\n        /* \"#utility.yul\":3455:3508   */\n      tag_88\n      jump\t// in\n    tag_151:\n        /* \"#utility.yul\":3445:3508   */\n      swap2\n      pop\n        /* \"#utility.yul\":3401:3518   */\n      pop\n        /* \"#utility.yul\":3196:3525   */\n      swap3\n      swap2\n      pop\n      pop\n      jump\t// out\n        /* \"#utility.yul\":3531:3700   */\n    tag_90:\n        /* \"#utility.yul\":3615:3626   */\n      0x00\n        /* \"#utility.yul\":3649:3655   */\n      dup3\n        /* \"#utility.yul\":3644:3647   */\n      dup3\n        /* \"#utility.yul\":3637:3656   */\n      mstore\n        /* \"#utility.yul\":3689:3693   */\n      0x20\n        /* \"#utility.yul\":3684:3687   */\n      dup3\n        /* \"#utility.yul\":3680:3694   */\n      add\n        /* \"#utility.yul\":3665:3694   */\n      swap1\n      pop\n        /* \"#utility.yul\":3531:3700   */\n      swap3\n      swap2\n      pop\n      pop\n      jump\t// out\n        /* \"#utility.yul\":3706:3876   */\n    tag_91:\n        /* \"#utility.yul\":3846:3868   */\n      0x496e73756666696369656e742062616c616e6365000000000000000000000000\n        /* \"#utility.yul\":3842:3843   */\n      0x00\n        /* \"#utility.yul\":3834:3840   */\n      dup3\n        /* \"#utility.yul\":3830:3844   */\n      add\n        /* \"#utility.yul\":3823:3869   */\n      mstore\n        /* \"#utility.yul\":3706:3876   */\n      pop\n      jump\t// out\n        /* \"#utility.yul\":3882:4248   */\n    tag_92:\n        /* \"#utility.yul\":4024:4027   */\n      0x00\n        /* \"#utility.yul\":4045:4112   */\n      tag_155\n        /* \"#utility.yul\":4109:4111   */\n      0x14\n        /* \"#utility.yul\":4104:4107   */\n      dup4\n        /* \"#utility.yul\":4045:4112   */\n      tag_90\n      jump\t// in\n    tag_155:\n        /* \"#utility.yul\":4038:4112   */\n      swap2\n      pop\n        /* \"#utility.yul\":4121:4214   */\n      tag_156\n        /* \"#utility.yul\":4210:4213   */\n      dup3\n        /* \"#utility.yul\":4121:4214   */\n      tag_91\n      jump\t// in\n    tag_156:\n        /* \"#utility.yul\":4239:4241   */\n      0x20\n        /* \"#utility.yul\":4234:4237   */\n      dup3\n        /* \"#utility.yul\":4230:4242   */\n      add\n        /* \"#utility.yul\":4223:4242   */\n      swap1\n      pop\n        /* \"#utility.yul\":3882:4248   */\n      swap2\n      swap1\n      pop\n      jump\t// out\n        /* \"#utility.yul\":4254:4673   */\n    tag_43:\n        /* \"#utility.yul\":4420:4424   */\n      0x00\n        /* \"#utility.yul\":4458:4460   */\n      0x20\n        /* \"#utility.yul\":4447:4456   */\n      dup3\n        /* \"#utility.yul\":4443:4461   */\n      add\n        /* \"#utility.yul\":4435:4461   */\n      swap1\n      pop\n        /* \"#utility.yul\":4507:4516   */\n      dup2\n        /* \"#utility.yul\":4501:4505   */\n      dup2\n        /* \"#utility.yul\":4497:4517   */\n      sub\n        /* \"#utility.yul\":4493:4494   */\n      0x00\n        /* \"#utility.yul\":4482:4491   */\n      dup4\n        /* \"#utility.yul\":4478:4495   */\n      add\n        /* \"#utility.yul\":4471:4518   */\n      mstore\n        /* \"#utility.yul\":4535:4666   */\n      tag_158\n        /* \"#utility.yul\":4661:4665   */\n      dup2\n        /* \"#utility.yul\":4535:4666   */\n      tag_92\n      jump\t// in\n    tag_158:\n        /* \"#utility.yul\":4527:4666   */\n      swap1\n      pop\n        /* \"#utility.yul\":4254:4673   */\n      swap2\n      swap1\n      pop\n      jump\t// out\n        /* \"#utility.yul\":4679:4859   */\n    tag_93:\n        /* \"#utility.yul\":4727:4804   */\n      0x4e487b7100000000000000000000000000000000000000000000000000000000\n        /* \"#utility.yul\":4724:4725   */\n      0x00\n        /* \"#utility.yul\":4717:4805   */\n      mstore\n        /* \"#utility.yul\":4824:4828   */\n      0x11\n        /* \"#utility.yul\":4821:4822   */\n      0x04\n        /* \"#utility.yul\":4814:4829   */\n      mstore\n        /* \"#utility.yul\":4848:4852   */\n      0x24\n        /* \"#utility.yul\":4845:4846   */\n      0x00\n        /* \"#utility.yul\":4838:4853   */\n      revert\n        /* \"#utility.yul\":4865:5059   */\n    tag_45:\n        /* \"#utility.yul\":4905:4909   */\n      0x00\n        /* \"#utility.yul\":4925:4945   */\n      tag_161\n        /* \"#utility.yul\":4943:4944   */\n      dup3\n        /* \"#utility.yul\":4925:4945   */\n      tag_85\n      jump\t// in\n    tag_161:\n        /* \"#utility.yul\":4920:4945   */\n      swap2\n      pop\n        /* \"#utility.yul\":4959:4979   */\n      tag_162\n        /* \"#utility.yul\":4977:4978   */\n      dup4\n        /* \"#utility.yul\":4959:4979   */\n      tag_85\n      jump\t// in\n    tag_162:\n        /* \"#utility.yul\":4954:4979   */\n      swap3\n      pop\n        /* \"#utility.yul\":5003:5004   */\n      dup3\n        /* \"#utility.yul\":5000:5001   */\n      dup3\n        /* \"#utility.yul\":4996:5005   */\n      sub\n        /* \"#utility.yul\":4988:5005   */\n      swap1\n      pop\n        /* \"#utility.yul\":5027:5028   */\n      dup2\n        /* \"#utility.yul\":5021:5025   */\n      dup2\n        /* \"#utility.yul\":5018:5029   */\n      gt\n        /* \"#utility.yul\":5015:5052   */\n      iszero\n      tag_163\n      jumpi\n        /* \"#utility.yul\":5032:5050   */\n      tag_164\n      tag_93\n      jump\t// in\n    tag_164:\n        /* \"#utility.yul\":5015:5052   */\n    tag_163:\n        /* \"#utility.yul\":4865:5059   */\n      swap3\n      swap2\n      pop\n      pop\n      jump\t// out\n        /* \"#utility.yul\":5065:5397   */\n    tag_48:\n        /* \"#utility.yul\":5186:5190   */\n      0x00\n        /* \"#utility.yul\":5224:5226   */\n      0x40\n        /* \"#utility.yul\":5213:5222   */\n      dup3\n        /* \"#utility.yul\":5209:5227   */\n      add\n        /* \"#utility.yul\":5201:5227   */\n      swap1\n      pop\n        /* \"#utility.yul\":5237:5308   */\n      tag_166\n        /* \"#utility.yul\":5305:5306   */\n      0x00\n        /* \"#utility.yul\":5294:5303   */\n      dup4\n        /* \"#utility.yul\":5290:5307   */\n      add\n        /* \"#utility.yul\":5281:5287   */\n      dup6\n        /* \"#utility.yul\":5237:5308   */\n      tag_86\n      jump\t// in\n    tag_166:\n        /* \"#utility.yul\":5318:5390   */\n      tag_167\n        /* \"#utility.yul\":5386:5388   */\n      0x20\n        /* \"#utility.yul\":5375:5384   */\n      dup4\n        /* \"#utility.yul\":5371:5389   */\n      add\n        /* \"#utility.yul\":5362:5368   */\n      dup5\n        /* \"#utility.yul\":5318:5390   */\n      tag_86\n      jump\t// in\n    tag_167:\n        /* \"#utility.yul\":5065:5397   */\n      swap4\n      swap3\n      pop\n      pop\n      pop\n      jump\t// out\n        /* \"#utility.yul\":5403:5571   */\n    tag_94:\n        /* \"#utility.yul\":5543:5563   */\n      0x4d6f64696669657220436f6d706c657465640000000000000000000000000000\n        /* \"#utility.yul\":5539:5540   */\n      0x00\n        /* \"#utility.yul\":5531:5537   */\n      dup3\n        /* \"#utility.yul\":5527:5541   */\n      add\n        /* \"#utility.yul\":5520:5564   */\n      mstore\n        /* \"#utility.yul\":5403:5571   */\n      pop\n      jump\t// out\n        /* \"#utility.yul\":5577:5943   */\n    tag_95:\n        /* \"#utility.yul\":5719:5722   */\n      0x00\n        /* \"#utility.yul\":5740:5807   */\n      tag_170\n        /* \"#utility.yul\":5804:5806   */\n      0x12\n        /* \"#utility.yul\":5799:5802   */\n      dup4\n        /* \"#utility.yul\":5740:5807   */\n      tag_90\n      jump\t// in\n    tag_170:\n        /* \"#utility.yul\":5733:5807   */\n      swap2\n      pop\n        /* \"#utility.yul\":5816:5909   */\n      tag_171\n        /* \"#utility.yul\":5905:5908   */\n      dup3\n        /* \"#utility.yul\":5816:5909   */\n      tag_94\n      jump\t// in\n    tag_171:\n        /* \"#utility.yul\":5934:5936   */\n      0x20\n        /* \"#utility.yul\":5929:5932   */\n      dup3\n        /* \"#utility.yul\":5925:5937   */\n      add\n        /* \"#utility.yul\":5918:5937   */\n      swap1\n      pop\n        /* \"#utility.yul\":5577:5943   */\n      swap2\n      swap1\n      pop\n      jump\t// out\n        /* \"#utility.yul\":5949:6368   */\n    tag_50:\n        /* \"#utility.yul\":6115:6119   */\n      0x00\n        /* \"#utility.yul\":6153:6155   */\n      0x20\n        /* \"#utility.yul\":6142:6151   */\n      dup3\n        /* \"#utility.yul\":6138:6156   */\n      add\n        /* \"#utility.yul\":6130:6156   */\n      swap1\n      pop\n        /* \"#utility.yul\":6202:6211   */\n      dup2\n        /* \"#utility.yul\":6196:6200   */\n      dup2\n        /* \"#utility.yul\":6192:6212   */\n      sub\n        /* \"#utility.yul\":6188:6189   */\n      0x00\n        /* \"#utility.yul\":6177:6186   */\n      dup4\n        /* \"#utility.yul\":6173:6190   */\n      add\n        /* \"#utility.yul\":6166:6213   */\n      mstore\n        /* \"#utility.yul\":6230:6361   */\n      tag_173\n        /* \"#utility.yul\":6356:6360   */\n      dup2\n        /* \"#utility.yul\":6230:6361   */\n      tag_95\n      jump\t// in\n    tag_173:\n        /* \"#utility.yul\":6222:6361   */\n      swap1\n      pop\n        /* \"#utility.yul\":5949:6368   */\n      swap2\n      swap1\n      pop\n      jump\t// out\n        /* \"#utility.yul\":6374:6533   */\n    tag_96:\n        /* \"#utility.yul\":6514:6525   */\n      0x4e6f74206f776e65720000000000000000000000000000000000000000000000\n        /* \"#utility.yul\":6510:6511   */\n      0x00\n        /* \"#utility.yul\":6502:6508   */\n      dup3\n        /* \"#utility.yul\":6498:6512   */\n      add\n        /* \"#utility.yul\":6491:6526   */\n      mstore\n        /* \"#utility.yul\":6374:6533   */\n      pop\n      jump\t// out\n        /* \"#utility.yul\":6539:6904   */\n    tag_97:\n        /* \"#utility.yul\":6681:6684   */\n      0x00\n        /* \"#utility.yul\":6702:6768   */\n      tag_176\n        /* \"#utility.yul\":6766:6767   */\n      0x09\n        /* \"#utility.yul\":6761:6764   */\n      dup4\n        /* \"#utility.yul\":6702:6768   */\n      tag_90\n      jump\t// in\n    tag_176:\n        /* \"#utility.yul\":6695:6768   */\n      swap2\n      pop\n        /* \"#utility.yul\":6777:6870   */\n      tag_177\n        /* \"#utility.yul\":6866:6869   */\n      dup3\n        /* \"#utility.yul\":6777:6870   */\n      tag_96\n      jump\t// in\n    tag_177:\n        /* \"#utility.yul\":6895:6897   */\n      0x20\n        /* \"#utility.yul\":6890:6893   */\n      dup3\n        /* \"#utility.yul\":6886:6898   */\n      add\n        /* \"#utility.yul\":6879:6898   */\n      swap1\n      pop\n        /* \"#utility.yul\":6539:6904   */\n      swap2\n      swap1\n      pop\n      jump\t// out\n        /* \"#utility.yul\":6910:7329   */\n    tag_54:\n        /* \"#utility.yul\":7076:7080   */\n      0x00\n        /* \"#utility.yul\":7114:7116   */\n      0x20\n        /* \"#utility.yul\":7103:7112   */\n      dup3\n        /* \"#utility.yul\":7099:7117   */\n      add\n        /* \"#utility.yul\":7091:7117   */\n      swap1\n      pop\n        /* \"#utility.yul\":7163:7172   */\n      dup2\n        /* \"#utility.yul\":7157:7161   */\n      dup2\n        /* \"#utility.yul\":7153:7173   */\n      sub\n        /* \"#utility.yul\":7149:7150   */\n      0x00\n        /* \"#utility.yul\":7138:7147   */\n      dup4\n        /* \"#utility.yul\":7134:7151   */\n      add\n        /* \"#utility.yul\":7127:7174   */\n      mstore\n        /* \"#utility.yul\":7191:7322   */\n      tag_179\n        /* \"#utility.yul\":7317:7321   */\n      dup2\n        /* \"#utility.yul\":7191:7322   */\n      tag_97\n      jump\t// in\n    tag_179:\n        /* \"#utility.yul\":7183:7322   */\n      swap1\n      pop\n        /* \"#utility.yul\":6910:7329   */\n      swap2\n      swap1\n      pop\n      jump\t// out\n        /* \"#utility.yul\":7335:7498   */\n    tag_98:\n        /* \"#utility.yul\":7475:7490   */\n      0x42616c616e636520726573657400000000000000000000000000000000000000\n        /* \"#utility.yul\":7471:7472   */\n      0x00\n        /* \"#utility.yul\":7463:7469   */\n      dup3\n        /* \"#utility.yul\":7459:7473   */\n      add\n        /* \"#utility.yul\":7452:7491   */\n      mstore\n        /* \"#utility.yul\":7335:7498   */\n      pop\n      jump\t// out\n        /* \"#utility.yul\":7504:7870   */\n    tag_99:\n        /* \"#utility.yul\":7646:7649   */\n      0x00\n        /* \"#utility.yul\":7667:7734   */\n      tag_182\n        /* \"#utility.yul\":7731:7733   */\n      0x0d\n        /* \"#utility.yul\":7726:7729   */\n      dup4\n        /* \"#utility.yul\":7667:7734   */\n      tag_90\n      jump\t// in\n    tag_182:\n        /* \"#utility.yul\":7660:7734   */\n      swap2\n      pop\n        /* \"#utility.yul\":7743:7836   */\n      tag_183\n        /* \"#utility.yul\":7832:7835   */\n      dup3\n        /* \"#utility.yul\":7743:7836   */\n      tag_98\n      jump\t// in\n    tag_183:\n        /* \"#utility.yul\":7861:7863   */\n      0x20\n        /* \"#utility.yul\":7856:7859   */\n      dup3\n        /* \"#utility.yul\":7852:7864   */\n      add\n        /* \"#utility.yul\":7845:7864   */\n      swap1\n      pop\n        /* \"#utility.yul\":7504:7870   */\n      swap2\n      swap1\n      pop\n      jump\t// out\n        /* \"#utility.yul\":7876:8295   */\n    tag_56:\n        /* \"#utility.yul\":8042:8046   */\n      0x00\n        /* \"#utility.yul\":8080:8082   */\n      0x20\n        /* \"#utility.yul\":8069:8078   */\n      dup3\n        /* \"#utility.yul\":8065:8083   */\n      add\n        /* \"#utility.yul\":8057:8083   */\n      swap1\n      pop\n        /* \"#utility.yul\":8129:8138   */\n      dup2\n        /* \"#utility.yul\":8123:8127   */\n      dup2\n        /* \"#utility.yul\":8119:8139   */\n      sub\n        /* \"#utility.yul\":8115:8116   */\n      0x00\n        /* \"#utility.yul\":8104:8113   */\n      dup4\n        /* \"#utility.yul\":8100:8117   */\n      add\n        /* \"#utility.yul\":8093:8140   */\n      mstore\n        /* \"#utility.yul\":8157:8288   */\n      tag_185\n        /* \"#utility.yul\":8283:8287   */\n      dup2\n        /* \"#utility.yul\":8157:8288   */\n      tag_99\n      jump\t// in\n    tag_185:\n        /* \"#utility.yul\":8149:8288   */\n      swap1\n      pop\n        /* \"#utility.yul\":7876:8295   */\n      swap2\n      swap1\n      pop\n      jump\t// out\n        /* \"#utility.yul\":8301:8467   */\n    tag_100:\n        /* \"#utility.yul\":8441:8459   */\n      0x4e756d62657220746f6f206c6172676500000000000000000000000000000000\n        /* \"#utility.yul\":8437:8438   */\n      0x00\n        /* \"#utility.yul\":8429:8435   */\n      dup3\n        /* \"#utility.yul\":8425:8439   */\n      add\n        /* \"#utility.yul\":8418:8460   */\n      mstore\n        /* \"#utility.yul\":8301:8467   */\n      pop\n      jump\t// out\n        /* \"#utility.yul\":8473:8839   */\n    tag_101:\n        /* \"#utility.yul\":8615:8618   */\n      0x00\n        /* \"#utility.yul\":8636:8703   */\n      tag_188\n        /* \"#utility.yul\":8700:8702   */\n      0x10\n        /* \"#utility.yul\":8695:8698   */\n      dup4\n        /* \"#utility.yul\":8636:8703   */\n      tag_90\n      jump\t// in\n    tag_188:\n        /* \"#utility.yul\":8629:8703   */\n      swap2\n      pop\n        /* \"#utility.yul\":8712:8805   */\n      tag_189\n        /* \"#utility.yul\":8801:8804   */\n      dup3\n        /* \"#utility.yul\":8712:8805   */\n      tag_100\n      jump\t// in\n    tag_189:\n        /* \"#utility.yul\":8830:8832   */\n      0x20\n        /* \"#utility.yul\":8825:8828   */\n      dup3\n        /* \"#utility.yul\":8821:8833   */\n      add\n        /* \"#utility.yul\":8814:8833   */\n      swap1\n      pop\n        /* \"#utility.yul\":8473:8839   */\n      swap2\n      swap1\n      pop\n      jump\t// out\n        /* \"#utility.yul\":8845:9264   */\n    tag_60:\n        /* \"#utility.yul\":9011:9015   */\n      0x00\n        /* \"#utility.yul\":9049:9051   */\n      0x20\n        /* \"#utility.yul\":9038:9047   */\n      dup3\n        /* \"#utility.yul\":9034:9052   */\n      add\n        /* \"#utility.yul\":9026:9052   */\n      swap1\n      pop\n        /* \"#utility.yul\":9098:9107   */\n      dup2\n        /* \"#utility.yul\":9092:9096   */\n      dup2\n        /* \"#utility.yul\":9088:9108   */\n      sub\n        /* \"#utility.yul\":9084:9085   */\n      0x00\n        /* \"#utility.yul\":9073:9082   */\n      dup4\n        /* \"#utility.yul\":9069:9086   */\n      add\n        /* \"#utility.yul\":9062:9109   */\n      mstore\n        /* \"#utility.yul\":9126:9257   */\n      tag_191\n        /* \"#utility.yul\":9252:9256   */\n      dup2\n        /* \"#utility.yul\":9126:9257   */\n      tag_101\n      jump\t// in\n    tag_191:\n        /* \"#utility.yul\":9118:9257   */\n      swap1\n      pop\n        /* \"#utility.yul\":8845:9264   */\n      swap2\n      swap1\n      pop\n      jump\t// out\n        /* \"#utility.yul\":9270:9437   */\n    tag_102:\n        /* \"#utility.yul\":9410:9429   */\n      0x56616c69646174696f6e206661696c6564000000000000000000000000000000\n        /* \"#utility.yul\":9406:9407   */\n      0x00\n        /* \"#utility.yul\":9398:9404   */\n      dup3\n        /* \"#utility.yul\":9394:9408   */\n      add\n        /* \"#utility.yul\":9387:9430   */\n      mstore\n        /* \"#utility.yul\":9270:9437   */\n      pop\n      jump\t// out\n        /* \"#utility.yul\":9443:9809   */\n    tag_103:\n        /* \"#utility.yul\":9585:9588   */\n      0x00\n        /* \"#utility.yul\":9606:9673   */\n      tag_194\n        /* \"#utility.yul\":9670:9672   */\n      0x11\n        /* \"#utility.yul\":9665:9668   */\n      dup4\n        /* \"#utility.yul\":9606:9673   */\n      tag_90\n      jump\t// in\n    tag_194:\n        /* \"#utility.yul\":9599:9673   */\n      swap2\n      pop\n        /* \"#utility.yul\":9682:9775   */\n      tag_195\n        /* \"#utility.yul\":9771:9774   */\n      dup3\n        /* \"#utility.yul\":9682:9775   */\n      tag_102\n      jump\t// in\n    tag_195:\n        /* \"#utility.yul\":9800:9802   */\n      0x20\n        /* \"#utility.yul\":9795:9798   */\n      dup3\n        /* \"#utility.yul\":9791:9803   */\n      add\n        /* \"#utility.yul\":9784:9803   */\n      swap1\n      pop\n        /* \"#utility.yul\":9443:9809   */\n      swap2\n      swap1\n      pop\n      jump\t// out\n        /* \"#utility.yul\":9815:10234   */\n    tag_62:\n        /* \"#utility.yul\":9981:9985   */\n      0x00\n        /* \"#utility.yul\":10019:10021   */\n      0x20\n        /* \"#utility.yul\":10008:10017   */\n      dup3\n        /* \"#utility.yul\":10004:10022   */\n      add\n        /* \"#utility.yul\":9996:10022   */\n      swap1\n      pop\n        /* \"#utility.yul\":10068:10077   */\n      dup2\n        /* \"#utility.yul\":10062:10066   */\n      dup2\n        /* \"#utility.yul\":10058:10078   */\n      sub\n        /* \"#utility.yul\":10054:10055   */\n      0x00\n        /* \"#utility.yul\":10043:10052   */\n      dup4\n        /* \"#utility.yul\":10039:10056   */\n      add\n        /* \"#utility.yul\":10032:10079   */\n      mstore\n        /* \"#utility.yul\":10096:10227   */\n      tag_197\n        /* \"#utility.yul\":10222:10226   */\n      dup2\n        /* \"#utility.yul\":10096:10227   */\n      tag_103\n      jump\t// in\n    tag_197:\n        /* \"#utility.yul\":10088:10227   */\n      swap1\n      pop\n        /* \"#utility.yul\":9815:10234   */\n      swap2\n      swap1\n      pop\n      jump\t// out\n        /* \"#utility.yul\":10240:10408   */\n    tag_104:\n        /* \"#utility.yul\":10380:10400   */\n      0x416d6f756e74206d757374206265203e20300000000000000000000000000000\n        /* \"#utility.yul\":10376:10377   */\n      0x00\n        /* \"#utility.yul\":10368:10374   */\n      dup3\n        /* \"#utility.yul\":10364:10378   */\n      add\n        /* \"#utility.yul\":10357:10401   */\n      mstore\n        /* \"#utility.yul\":10240:10408   */\n      pop\n      jump\t// out\n        /* \"#utility.yul\":10414:10780   */\n    tag_105:\n        /* \"#utility.yul\":10556:10559   */\n      0x00\n        /* \"#utility.yul\":10577:10644   */\n      tag_200\n        /* \"#utility.yul\":10641:10643   */\n      0x12\n        /* \"#utility.yul\":10636:10639   */\n      dup4\n        /* \"#utility.yul\":10577:10644   */\n      tag_90\n      jump\t// in\n    tag_200:\n        /* \"#utility.yul\":10570:10644   */\n      swap2\n      pop\n        /* \"#utility.yul\":10653:10746   */\n      tag_201\n        /* \"#utility.yul\":10742:10745   */\n      dup3\n        /* \"#utility.yul\":10653:10746   */\n      tag_104\n      jump\t// in\n    tag_201:\n        /* \"#utility.yul\":10771:10773   */\n      0x20\n        /* \"#utility.yul\":10766:10769   */\n      dup3\n        /* \"#utility.yul\":10762:10774   */\n      add\n        /* \"#utility.yul\":10755:10774   */\n      swap1\n      pop\n        /* \"#utility.yul\":10414:10780   */\n      swap2\n      swap1\n      pop\n      jump\t// out\n        /* \"#utility.yul\":10786:11205   */\n    tag_68:\n        /* \"#utility.yul\":10952:10956   */\n      0x00\n        /* \"#utility.yul\":10990:10992   */\n      0x20\n        /* \"#utility.yul\":10979:10988   */\n      dup3\n        /* \"#utility.yul\":10975:10993   */\n      add\n        /* \"#utility.yul\":10967:10993   */\n      swap1\n      pop\n        /* \"#utility.yul\":11039:11048   */\n      dup2\n        /* \"#utility.yul\":11033:11037   */\n      dup2\n        /* \"#utility.yul\":11029:11049   */\n      sub\n        /* \"#utility.yul\":11025:11026   */\n      0x00\n        /* \"#utility.yul\":11014:11023   */\n      dup4\n        /* \"#utility.yul\":11010:11027   */\n      add\n        /* \"#utility.yul\":11003:11050   */\n      mstore\n        /* \"#utility.yul\":11067:11198   */\n      tag_203\n        /* \"#utility.yul\":11193:11197   */\n      dup2\n        /* \"#utility.yul\":11067:11198   */\n      tag_105\n      jump\t// in\n    tag_203:\n        /* \"#utility.yul\":11059:11198   */\n      swap1\n      pop\n        /* \"#utility.yul\":10786:11205   */\n      swap2\n      swap1\n      pop\n      jump\t// out\n        /* \"#utility.yul\":11211:11377   */\n    tag_106:\n        /* \"#utility.yul\":11351:11369   */\n      0x416d6f756e7420746f6f206c6172676500000000000000000000000000000000\n        /* \"#utility.yul\":11347:11348   */\n      0x00\n        /* \"#utility.yul\":11339:11345   */\n      dup3\n        /* \"#utility.yul\":11335:11349   */\n      add\n        /* \"#utility.yul\":11328:11370   */\n      mstore\n        /* \"#utility.yul\":11211:11377   */\n      pop\n      jump\t// out\n        /* \"#utility.yul\":11383:11749   */\n    tag_107:\n        /* \"#utility.yul\":11525:11528   */\n      0x00\n        /* \"#utility.yul\":11546:11613   */\n      tag_206\n        /* \"#utility.yul\":11610:11612   */\n      0x10\n        /* \"#utility.yul\":11605:11608   */\n      dup4\n        /* \"#utility.yul\":11546:11613   */\n      tag_90\n      jump\t// in\n    tag_206:\n        /* \"#utility.yul\":11539:11613   */\n      swap2\n      pop\n        /* \"#utility.yul\":11622:11715   */\n      tag_207\n        /* \"#utility.yul\":11711:11714   */\n      dup3\n        /* \"#utility.yul\":11622:11715   */\n      tag_106\n      jump\t// in\n    tag_207:\n        /* \"#utility.yul\":11740:11742   */\n      0x20\n        /* \"#utility.yul\":11735:11738   */\n      dup3\n        /* \"#utility.yul\":11731:11743   */\n      add\n        /* \"#utility.yul\":11724:11743   */\n      swap1\n      pop\n        /* \"#utility.yul\":11383:11749   */\n      swap2\n      swap1\n      pop\n      jump\t// out\n        /* \"#utility.yul\":11755:12174   */\n    tag_71:\n        /* \"#utility.yul\":11921:11925   */\n      0x00\n        /* \"#utility.yul\":11959:11961   */\n      0x20\n        /* \"#utility.yul\":11948:11957   */\n      dup3\n        /* \"#utility.yul\":11944:11962   */\n      add\n        /* \"#utility.yul\":11936:11962   */\n      swap1\n      pop\n        /* \"#utility.yul\":12008:12017   */\n      dup2\n        /* \"#utility.yul\":12002:12006   */\n      dup2\n        /* \"#utility.yul\":11998:12018   */\n      sub\n        /* \"#utility.yul\":11994:11995   */\n      0x00\n        /* \"#utility.yul\":11983:11992   */\n      dup4\n        /* \"#utility.yul\":11979:11996   */\n      add\n        /* \"#utility.yul\":11972:12019   */\n      mstore\n        /* \"#utility.yul\":12036:12167   */\n      tag_209\n        /* \"#utility.yul\":12162:12166   */\n      dup2\n        /* \"#utility.yul\":12036:12167   */\n      tag_107\n      jump\t// in\n    tag_209:\n        /* \"#utility.yul\":12028:12167   */\n      swap1\n      pop\n        /* \"#utility.yul\":11755:12174   */\n      swap2\n      swap1\n      pop\n      jump\t// out\n        /* \"#utility.yul\":12180:12371   */\n    tag_73:\n        /* \"#utility.yul\":12220:12223   */\n      0x00\n        /* \"#utility.yul\":12239:12259   */\n      tag_211\n        /* \"#utility.yul\":12257:12258   */\n      dup3\n        /* \"#utility.yul\":12239:12259   */\n      tag_85\n      jump\t// in\n    tag_211:\n        /* \"#utility.yul\":12234:12259   */\n      swap2\n      pop\n        /* \"#utility.yul\":12273:12293   */\n      tag_212\n        /* \"#utility.yul\":12291:12292   */\n      dup4\n        /* \"#utility.yul\":12273:12293   */\n      tag_85\n      jump\t// in\n    tag_212:\n        /* \"#utility.yul\":12268:12293   */\n      swap3\n      pop\n        /* \"#utility.yul\":12316:12317   */\n      dup3\n        /* \"#utility.yul\":12313:12314   */\n      dup3\n        /* \"#utility.yul\":12309:12318   */\n      add\n        /* \"#utility.yul\":12302:12318   */\n      swap1\n      pop\n        /* \"#utility.yul\":12337:12340   */\n      dup1\n        /* \"#utility.yul\":12334:12335   */\n      dup3\n        /* \"#utility.yul\":12331:12341   */\n      gt\n        /* \"#utility.yul\":12328:12364   */\n      iszero\n      tag_213\n      jumpi\n        /* \"#utility.yul\":12344:12362   */\n      tag_214\n      tag_93\n      jump\t// in\n    tag_214:\n        /* \"#utility.yul\":12328:12364   */\n    tag_213:\n        /* \"#utility.yul\":12180:12371   */\n      swap3\n      swap2\n      pop\n      pop\n      jump\t// out\n\n    auxdata: 0xa2646970667358221220c7508dfcbabdc5dd57fda8ab0dacee1c45cd7a5c8f7509d2c067595ba07e29be64736f6c63430008220033\n}\n",
				"bytecode": {
					"linkReferences": {},
					"object": "6080604052348015600e575f5ffd5b503360025f6101000a81548173ffffffffffffffffffffffffffffffffffffffff021916908373ffffffffffffffffffffffffffffffffffffffff160217905550610d748061005c5f395ff3fe608060405234801561000f575f5ffd5b506004361061007b575f3560e01c80638da5cb5b116100595780638da5cb5b146100e957806391ddb1c114610107578063a437aaa914610123578063e2bbb1581461013f5761007b565b806327e235e31461007f578063441a3e70146100af5780637d882097146100cb575b5f5ffd5b610099600480360381019061009491906107df565b61015b565b6040516100a69190610822565b60405180910390f35b6100c960048036038101906100c49190610865565b61016f565b005b6100d3610335565b6040516100e09190610822565b60405180910390f35b6100f161033b565b6040516100fe91906108b2565b60405180910390f35b610121600480360381019061011c91906108cb565b610360565b005b61013d60048036038101906101389190610909565b610481565b005b61015960048036038101906101549190610865565b610514565b005b5f602052805f5260405f205f915090505481565b815f5f3373ffffffffffffffffffffffffffffffffffffffff1673ffffffffffffffffffffffffffffffffffffffff1681526020019081526020015f205410156101ee576040517f08c379a00000000000000000000000000000000000000000000000000000000081526004016101e59061098e565b60405180910390fd5b815f5f3373ffffffffffffffffffffffffffffffffffffffff1673ffffffffffffffffffffffffffffffffffffffff1681526020019081526020015f205f82825461023991906109d9565b925050819055508160015f82825461025191906109d9565b92505081905550803373ffffffffffffffffffffffffffffffffffffffff167ffada57d3c4b7d2ba1d17dd51770436f3164806d8cf30ca643ad4c050f07019ea845f5f3373ffffffffffffffffffffffffffffffffffffffff1673ffffffffffffffffffffffffffffffffffffffff1681526020019081526020015f20546040516102dd929190610a0c565b60405180910390a33373ffffffffffffffffffffffffffffffffffffffff167fc738a8bbba2ccb9a0d39072102ec0c8c4ff38db803ec0fefa1375a36ccb6d58b60405161032990610a7d565b60405180910390a25050565b60015481565b60025f9054906101000a900473ffffffffffffffffffffffffffffffffffffffff1681565b60025f9054906101000a900473ffffffffffffffffffffffffffffffffffffffff1673ffffffffffffffffffffffffffffffffffffffff163373ffffffffffffffffffffffffffffffffffffffff16146103ef576040517f08c379a00000000000000000000000000000000000000000000000000000000081526004016103e690610ae5565b60405180910390fd5b5f5f5f8473ffffffffffffffffffffffffffffffffffffffff1673ffffffffffffffffffffffffffffffffffffffff1681526020019081526020015f2081905550803373ffffffffffffffffffffffffffffffffffffffff167fdacf2138f2c7d272efe049f9aebc583d6419f0500344c074f73516bace83ac4c60405161047590610b4d565b60405180910390a35050565b600a811115610511573373ffffffffffffffffffffffffffffffffffffffff167fe1c5ab05a8e26b50aefe1ea23a40dd92ad70332938efc2c2f0e06809690843756040516104ce90610bb5565b60405180910390a26040517f08c379a000000000000000000000000000000000000000000000000000000000815260040161050890610c1d565b60405180910390fd5b50565b803373ffffffffffffffffffffffffffffffffffffffff167f9c27b7182a2826577bb105e5f1b09f9026166713ce79b47f0e04c6d52402f52c8460405161055b9190610822565b60405180910390a35f82116105a5576040517f08c379a000000000000000000000000000000000000000000000000000000000815260040161059c90610c85565b60405180910390fd5b60648211156105e9576040517f08c379a00000000000000000000000000000000000000000000000000000000081526004016105e090610ced565b60405180910390fd5b815f5f3373ffffffffffffffffffffffffffffffffffffffff1673ffffffffffffffffffffffffffffffffffffffff1681526020019081526020015f205f8282546106349190610d0b565b92505081905550803373ffffffffffffffffffffffffffffffffffffffff167f5e00297b9c4f8fef460c4d7123316eeeb08a64a0930d1d9cae0b61b7f663b2545f5f3373ffffffffffffffffffffffffffffffffffffffff1673ffffffffffffffffffffffffffffffffffffffff1681526020019081526020015f20546040516106be9190610822565b60405180910390a38160015f8282546106d79190610d0b565b92505081905550803373ffffffffffffffffffffffffffffffffffffffff167f53201a467e2e685380ae6e1b145057397d8710a927d37d46d7ab24918b8148ec84600154604051610729929190610a0c565b60405180910390a33373ffffffffffffffffffffffffffffffffffffffff167fc738a8bbba2ccb9a0d39072102ec0c8c4ff38db803ec0fefa1375a36ccb6d58b60405161077590610a7d565b60405180910390a25050565b5f5ffd5b5f73ffffffffffffffffffffffffffffffffffffffff82169050919050565b5f6107ae82610785565b9050919050565b6107be816107a4565b81146107c8575f5ffd5b50565b5f813590506107d9816107b5565b92915050565b5f602082840312156107f4576107f3610781565b5b5f610801848285016107cb565b91505092915050565b5f819050919050565b61081c8161080a565b82525050565b5f6020820190506108355f830184610813565b92915050565b6108448161080a565b811461084e575f5ffd5b50565b5f8135905061085f8161083b565b92915050565b5f5f6040838503121561087b5761087a610781565b5b5f61088885828601610851565b925050602061089985828601610851565b9150509250929050565b6108ac816107a4565b82525050565b5f6020820190506108c55f8301846108a3565b92915050565b5f5f604083850312156108e1576108e0610781565b5b5f6108ee858286016107cb565b92505060206108ff85828601610851565b9150509250929050565b5f6020828403121561091e5761091d610781565b5b5f61092b84828501610851565b91505092915050565b5f82825260208201905092915050565b7f496e73756666696369656e742062616c616e63650000000000000000000000005f82015250565b5f610978601483610934565b915061098382610944565b602082019050919050565b5f6020820190508181035f8301526109a58161096c565b9050919050565b7f4e487b71000000000000000000000000000000000000000000000000000000005f52601160045260245ffd5b5f6109e38261080a565b91506109ee8361080a565b9250828203905081811115610a0657610a056109ac565b5b92915050565b5f604082019050610a1f5f830185610813565b610a2c6020830184610813565b9392505050565b7f4d6f64696669657220436f6d706c6574656400000000000000000000000000005f82015250565b5f610a67601283610934565b9150610a7282610a33565b602082019050919050565b5f6020820190508181035f830152610a9481610a5b565b9050919050565b7f4e6f74206f776e657200000000000000000000000000000000000000000000005f82015250565b5f610acf600983610934565b9150610ada82610a9b565b602082019050919050565b5f6020820190508181035f830152610afc81610ac3565b9050919050565b7f42616c616e6365207265736574000000000000000000000000000000000000005f82015250565b5f610b37600d83610934565b9150610b4282610b03565b602082019050919050565b5f6020820190508181035f830152610b6481610b2b565b9050919050565b7f4e756d62657220746f6f206c61726765000000000000000000000000000000005f82015250565b5f610b9f601083610934565b9150610baa82610b6b565b602082019050919050565b5f6020820190508181035f830152610bcc81610b93565b9050919050565b7f56616c69646174696f6e206661696c65640000000000000000000000000000005f82015250565b5f610c07601183610934565b9150610c1282610bd3565b602082019050919050565b5f6020820190508181035f830152610c3481610bfb565b9050919050565b7f416d6f756e74206d757374206265203e203000000000000000000000000000005f82015250565b5f610c6f601283610934565b9150610c7a82610c3b565b602082019050919050565b5f6020820190508181035f830152610c9c81610c63565b9050919050565b7f416d6f756e7420746f6f206c61726765000000000000000000000000000000005f82015250565b5f610cd7601083610934565b9150610ce282610ca3565b602082019050919050565b5f6020820190508181035f830152610d0481610ccb565b9050919050565b5f610d158261080a565b9150610d208361080a565b9250828201905080821115610d3857610d376109ac565b5b9291505056fea2646970667358221220c7508dfcbabdc5dd57fda8ab0dacee1c45cd7a5c8f7509d2c067595ba07e29be64736f6c63430008220033",
					"opcodes": "PUSH1 0x80 PUSH1 0x40 MSTORE CALLVALUE DUP1 ISZERO PUSH1 0xE JUMPI PUSH0 PUSH0 REVERT JUMPDEST POP CALLER PUSH1 0x2 PUSH0 PUSH2 0x100 EXP DUP2 SLOAD DUP2 PUSH20 0xFFFFFFFFFFFFFFFFFFFFFFFFFFFFFFFFFFFFFFFF MUL NOT AND SWAP1 DUP4 PUSH20 0xFFFFFFFFFFFFFFFFFFFFFFFFFFFFFFFFFFFFFFFF AND MUL OR SWAP1 SSTORE POP PUSH2 0xD74 DUP1 PUSH2 0x5C PUSH0 CODECOPY PUSH0 RETURN INVALID PUSH1 0x80 PUSH1 0x40 MSTORE CALLVALUE DUP1 ISZERO PUSH2 0xF JUMPI PUSH0 PUSH0 REVERT JUMPDEST POP PUSH1 0x4 CALLDATASIZE LT PUSH2 0x7B JUMPI PUSH0 CALLDATALOAD PUSH1 0xE0 SHR DUP1 PUSH4 0x8DA5CB5B GT PUSH2 0x59 JUMPI DUP1 PUSH4 0x8DA5CB5B EQ PUSH2 0xE9 JUMPI DUP1 PUSH4 0x91DDB1C1 EQ PUSH2 0x107 JUMPI DUP1 PUSH4 0xA437AAA9 EQ PUSH2 0x123 JUMPI DUP1 PUSH4 0xE2BBB158 EQ PUSH2 0x13F JUMPI PUSH2 0x7B JUMP JUMPDEST DUP1 PUSH4 0x27E235E3 EQ PUSH2 0x7F JUMPI DUP1 PUSH4 0x441A3E70 EQ PUSH2 0xAF JUMPI DUP1 PUSH4 0x7D882097 EQ PUSH2 0xCB JUMPI JUMPDEST PUSH0 PUSH0 REVERT JUMPDEST PUSH2 0x99 PUSH1 0x4 DUP1 CALLDATASIZE SUB DUP2 ADD SWAP1 PUSH2 0x94 SWAP2 SWAP1 PUSH2 0x7DF JUMP JUMPDEST PUSH2 0x15B JUMP JUMPDEST PUSH1 0x40 MLOAD PUSH2 0xA6 SWAP2 SWAP1 PUSH2 0x822 JUMP JUMPDEST PUSH1 0x40 MLOAD DUP1 SWAP2 SUB SWAP1 RETURN JUMPDEST PUSH2 0xC9 PUSH1 0x4 DUP1 CALLDATASIZE SUB DUP2 ADD SWAP1 PUSH2 0xC4 SWAP2 SWAP1 PUSH2 0x865 JUMP JUMPDEST PUSH2 0x16F JUMP JUMPDEST STOP JUMPDEST PUSH2 0xD3 PUSH2 0x335 JUMP JUMPDEST PUSH1 0x40 MLOAD PUSH2 0xE0 SWAP2 SWAP1 PUSH2 0x822 JUMP JUMPDEST PUSH1 0x40 MLOAD DUP1 SWAP2 SUB SWAP1 RETURN JUMPDEST PUSH2 0xF1 PUSH2 0x33B JUMP JUMPDEST PUSH1 0x40 MLOAD PUSH2 0xFE SWAP2 SWAP1 PUSH2 0x8B2 JUMP JUMPDEST PUSH1 0x40 MLOAD DUP1 SWAP2 SUB SWAP1 RETURN JUMPDEST PUSH2 0x121 PUSH1 0x4 DUP1 CALLDATASIZE SUB DUP2 ADD SWAP1 PUSH2 0x11C SWAP2 SWAP1 PUSH2 0x8CB JUMP JUMPDEST PUSH2 0x360 JUMP JUMPDEST STOP JUMPDEST PUSH2 0x13D PUSH1 0x4 DUP1 CALLDATASIZE SUB DUP2 ADD SWAP1 PUSH2 0x138 SWAP2 SWAP1 PUSH2 0x909 JUMP JUMPDEST PUSH2 0x481 JUMP JUMPDEST STOP JUMPDEST PUSH2 0x159 PUSH1 0x4 DUP1 CALLDATASIZE SUB DUP2 ADD SWAP1 PUSH2 0x154 SWAP2 SWAP1 PUSH2 0x865 JUMP JUMPDEST PUSH2 0x514 JUMP JUMPDEST STOP JUMPDEST PUSH0 PUSH1 0x20 MSTORE DUP1 PUSH0 MSTORE PUSH1 0x40 PUSH0 KECCAK256 PUSH0 SWAP2 POP SWAP1 POP SLOAD DUP2 JUMP JUMPDEST DUP2 PUSH0 PUSH0 CALLER PUSH20 0xFFFFFFFFFFFFFFFFFFFFFFFFFFFFFFFFFFFFFFFF AND PUSH20 0xFFFFFFFFFFFFFFFFFFFFFFFFFFFFFFFFFFFFFFFF AND DUP2 MSTORE PUSH1 0x20 ADD SWAP1 DUP2 MSTORE PUSH1 0x20 ADD PUSH0 KECCAK256 SLOAD LT ISZERO PUSH2 0x1EE JUMPI PUSH1 0x40 MLOAD PUSH32 0x8C379A000000000000000000000000000000000000000000000000000000000 DUP2 MSTORE PUSH1 0x4 ADD PUSH2 0x1E5 SWAP1 PUSH2 0x98E JUMP JUMPDEST PUSH1 0x40 MLOAD DUP1 SWAP2 SUB SWAP1 REVERT JUMPDEST DUP2 PUSH0 PUSH0 CALLER PUSH20 0xFFFFFFFFFFFFFFFFFFFFFFFFFFFFFFFFFFFFFFFF AND PUSH20 0xFFFFFFFFFFFFFFFFFFFFFFFFFFFFFFFFFFFFFFFF AND DUP2 MSTORE PUSH1 0x20 ADD SWAP1 DUP2 MSTORE PUSH1 0x20 ADD PUSH0 KECCAK256 PUSH0 DUP3 DUP3 SLOAD PUSH2 0x239 SWAP2 SWAP1 PUSH2 0x9D9 JUMP JUMPDEST SWAP3 POP POP DUP2 SWAP1 SSTORE POP DUP2 PUSH1 0x1 PUSH0 DUP3 DUP3 SLOAD PUSH2 0x251 SWAP2 SWAP1 PUSH2 0x9D9 JUMP JUMPDEST SWAP3 POP POP DUP2 SWAP1 SSTORE POP DUP1 CALLER PUSH20 0xFFFFFFFFFFFFFFFFFFFFFFFFFFFFFFFFFFFFFFFF AND PUSH32 0xFADA57D3C4B7D2BA1D17DD51770436F3164806D8CF30CA643AD4C050F07019EA DUP5 PUSH0 PUSH0 CALLER PUSH20 0xFFFFFFFFFFFFFFFFFFFFFFFFFFFFFFFFFFFFFFFF AND PUSH20 0xFFFFFFFFFFFFFFFFFFFFFFFFFFFFFFFFFFFFFFFF AND DUP2 MSTORE PUSH1 0x20 ADD SWAP1 DUP2 MSTORE PUSH1 0x20 ADD PUSH0 KECCAK256 SLOAD PUSH1 0x40 MLOAD PUSH2 0x2DD SWAP3 SWAP2 SWAP1 PUSH2 0xA0C JUMP JUMPDEST PUSH1 0x40 MLOAD DUP1 SWAP2 SUB SWAP1 LOG3 CALLER PUSH20 0xFFFFFFFFFFFFFFFFFFFFFFFFFFFFFFFFFFFFFFFF AND PUSH32 0xC738A8BBBA2CCB9A0D39072102EC0C8C4FF38DB803EC0FEFA1375A36CCB6D58B PUSH1 0x40 MLOAD PUSH2 0x329 SWAP1 PUSH2 0xA7D JUMP JUMPDEST PUSH1 0x40 MLOAD DUP1 SWAP2 SUB SWAP1 LOG2 POP POP JUMP JUMPDEST PUSH1 0x1 SLOAD DUP2 JUMP JUMPDEST PUSH1 0x2 PUSH0 SWAP1 SLOAD SWAP1 PUSH2 0x100 EXP SWAP1 DIV PUSH20 0xFFFFFFFFFFFFFFFFFFFFFFFFFFFFFFFFFFFFFFFF AND DUP2 JUMP JUMPDEST PUSH1 0x2 PUSH0 SWAP1 SLOAD SWAP1 PUSH2 0x100 EXP SWAP1 DIV PUSH20 0xFFFFFFFFFFFFFFFFFFFFFFFFFFFFFFFFFFFFFFFF AND PUSH20 0xFFFFFFFFFFFFFFFFFFFFFFFFFFFFFFFFFFFFFFFF AND CALLER PUSH20 0xFFFFFFFFFFFFFFFFFFFFFFFFFFFFFFFFFFFFFFFF AND EQ PUSH2 0x3EF JUMPI PUSH1 0x40 MLOAD PUSH32 0x8C379A000000000000000000000000000000000000000000000000000000000 DUP2 MSTORE PUSH1 0x4 ADD PUSH2 0x3E6 SWAP1 PUSH2 0xAE5 JUMP JUMPDEST PUSH1 0x40 MLOAD DUP1 SWAP2 SUB SWAP1 REVERT JUMPDEST PUSH0 PUSH0 PUSH0 DUP5 PUSH20 0xFFFFFFFFFFFFFFFFFFFFFFFFFFFFFFFFFFFFFFFF AND PUSH20 0xFFFFFFFFFFFFFFFFFFFFFFFFFFFFFFFFFFFFFFFF AND DUP2 MSTORE PUSH1 0x20 ADD SWAP1 DUP2 MSTORE PUSH1 0x20 ADD PUSH0 KECCAK256 DUP2 SWAP1 SSTORE POP DUP1 CALLER PUSH20 0xFFFFFFFFFFFFFFFFFFFFFFFFFFFFFFFFFFFFFFFF AND PUSH32 0xDACF2138F2C7D272EFE049F9AEBC583D6419F0500344C074F73516BACE83AC4C PUSH1 0x40 MLOAD PUSH2 0x475 SWAP1 PUSH2 0xB4D JUMP JUMPDEST PUSH1 0x40 MLOAD DUP1 SWAP2 SUB SWAP1 LOG3 POP POP JUMP JUMPDEST PUSH1 0xA DUP2 GT ISZERO PUSH2 0x511 JUMPI CALLER PUSH20 0xFFFFFFFFFFFFFFFFFFFFFFFFFFFFFFFFFFFFFFFF AND PUSH32 0xE1C5AB05A8E26B50AEFE1EA23A40DD92AD70332938EFC2C2F0E0680969084375 PUSH1 0x40 MLOAD PUSH2 0x4CE SWAP1 PUSH2 0xBB5 JUMP JUMPDEST PUSH1 0x40 MLOAD DUP1 SWAP2 SUB SWAP1 LOG2 PUSH1 0x40 MLOAD PUSH32 0x8C379A000000000000000000000000000000000000000000000000000000000 DUP2 MSTORE PUSH1 0x4 ADD PUSH2 0x508 SWAP1 PUSH2 0xC1D JUMP JUMPDEST PUSH1 0x40 MLOAD DUP1 SWAP2 SUB SWAP1 REVERT JUMPDEST POP JUMP JUMPDEST DUP1 CALLER PUSH20 0xFFFFFFFFFFFFFFFFFFFFFFFFFFFFFFFFFFFFFFFF AND PUSH32 0x9C27B7182A2826577BB105E5F1B09F9026166713CE79B47F0E04C6D52402F52C DUP5 PUSH1 0x40 MLOAD PUSH2 0x55B SWAP2 SWAP1 PUSH2 0x822 JUMP JUMPDEST PUSH1 0x40 MLOAD DUP1 SWAP2 SUB SWAP1 LOG3 PUSH0 DUP3 GT PUSH2 0x5A5 JUMPI PUSH1 0x40 MLOAD PUSH32 0x8C379A000000000000000000000000000000000000000000000000000000000 DUP2 MSTORE PUSH1 0x4 ADD PUSH2 0x59C SWAP1 PUSH2 0xC85 JUMP JUMPDEST PUSH1 0x40 MLOAD DUP1 SWAP2 SUB SWAP1 REVERT JUMPDEST PUSH1 0x64 DUP3 GT ISZERO PUSH2 0x5E9 JUMPI PUSH1 0x40 MLOAD PUSH32 0x8C379A000000000000000000000000000000000000000000000000000000000 DUP2 MSTORE PUSH1 0x4 ADD PUSH2 0x5E0 SWAP1 PUSH2 0xCED JUMP JUMPDEST PUSH1 0x40 MLOAD DUP1 SWAP2 SUB SWAP1 REVERT JUMPDEST DUP2 PUSH0 PUSH0 CALLER PUSH20 0xFFFFFFFFFFFFFFFFFFFFFFFFFFFFFFFFFFFFFFFF AND PUSH20 0xFFFFFFFFFFFFFFFFFFFFFFFFFFFFFFFFFFFFFFFF AND DUP2 MSTORE PUSH1 0x20 ADD SWAP1 DUP2 MSTORE PUSH1 0x20 ADD PUSH0 KECCAK256 PUSH0 DUP3 DUP3 SLOAD PUSH2 0x634 SWAP2 SWAP1 PUSH2 0xD0B JUMP JUMPDEST SWAP3 POP POP DUP2 SWAP1 SSTORE POP DUP1 CALLER PUSH20 0xFFFFFFFFFFFFFFFFFFFFFFFFFFFFFFFFFFFFFFFF AND PUSH32 0x5E00297B9C4F8FEF460C4D7123316EEEB08A64A0930D1D9CAE0B61B7F663B254 PUSH0 PUSH0 CALLER PUSH20 0xFFFFFFFFFFFFFFFFFFFFFFFFFFFFFFFFFFFFFFFF AND PUSH20 0xFFFFFFFFFFFFFFFFFFFFFFFFFFFFFFFFFFFFFFFF AND DUP2 MSTORE PUSH1 0x20 ADD SWAP1 DUP2 MSTORE PUSH1 0x20 ADD PUSH0 KECCAK256 SLOAD PUSH1 0x40 MLOAD PUSH2 0x6BE SWAP2 SWAP1 PUSH2 0x822 JUMP JUMPDEST PUSH1 0x40 MLOAD DUP1 SWAP2 SUB SWAP1 LOG3 DUP2 PUSH1 0x1 PUSH0 DUP3 DUP3 SLOAD PUSH2 0x6D7 SWAP2 SWAP1 PUSH2 0xD0B JUMP JUMPDEST SWAP3 POP POP DUP2 SWAP1 SSTORE POP DUP1 CALLER PUSH20 0xFFFFFFFFFFFFFFFFFFFFFFFFFFFFFFFFFFFFFFFF AND PUSH32 0x53201A467E2E685380AE6E1B145057397D8710A927D37D46D7AB24918B8148EC DUP5 PUSH1 0x1 SLOAD PUSH1 0x40 MLOAD PUSH2 0x729 SWAP3 SWAP2 SWAP1 PUSH2 0xA0C JUMP JUMPDEST PUSH1 0x40 MLOAD DUP1 SWAP2 SUB SWAP1 LOG3 CALLER PUSH20 0xFFFFFFFFFFFFFFFFFFFFFFFFFFFFFFFFFFFFFFFF AND PUSH32 0xC738A8BBBA2CCB9A0D39072102EC0C8C4FF38DB803EC0FEFA1375A36CCB6D58B PUSH1 0x40 MLOAD PUSH2 0x775 SWAP1 PUSH2 0xA7D JUMP JUMPDEST PUSH1 0x40 MLOAD DUP1 SWAP2 SUB SWAP1 LOG2 POP POP JUMP JUMPDEST PUSH0 PUSH0 REVERT JUMPDEST PUSH0 PUSH20 0xFFFFFFFFFFFFFFFFFFFFFFFFFFFFFFFFFFFFFFFF DUP3 AND SWAP1 POP SWAP2 SWAP1 POP JUMP JUMPDEST PUSH0 PUSH2 0x7AE DUP3 PUSH2 0x785 JUMP JUMPDEST SWAP1 POP SWAP2 SWAP1 POP JUMP JUMPDEST PUSH2 0x7BE DUP2 PUSH2 0x7A4 JUMP JUMPDEST DUP2 EQ PUSH2 0x7C8 JUMPI PUSH0 PUSH0 REVERT JUMPDEST POP JUMP JUMPDEST PUSH0 DUP2 CALLDATALOAD SWAP1 POP PUSH2 0x7D9 DUP2 PUSH2 0x7B5 JUMP JUMPDEST SWAP3 SWAP2 POP POP JUMP JUMPDEST PUSH0 PUSH1 0x20 DUP3 DUP5 SUB SLT ISZERO PUSH2 0x7F4 JUMPI PUSH2 0x7F3 PUSH2 0x781 JUMP JUMPDEST JUMPDEST PUSH0 PUSH2 0x801 DUP5 DUP3 DUP6 ADD PUSH2 0x7CB JUMP JUMPDEST SWAP2 POP POP SWAP3 SWAP2 POP POP JUMP JUMPDEST PUSH0 DUP2 SWAP1 POP SWAP2 SWAP1 POP JUMP JUMPDEST PUSH2 0x81C DUP2 PUSH2 0x80A JUMP JUMPDEST DUP3 MSTORE POP POP JUMP JUMPDEST PUSH0 PUSH1 0x20 DUP3 ADD SWAP1 POP PUSH2 0x835 PUSH0 DUP4 ADD DUP5 PUSH2 0x813 JUMP JUMPDEST SWAP3 SWAP2 POP POP JUMP JUMPDEST PUSH2 0x844 DUP2 PUSH2 0x80A JUMP JUMPDEST DUP2 EQ PUSH2 0x84E JUMPI PUSH0 PUSH0 REVERT JUMPDEST POP JUMP JUMPDEST PUSH0 DUP2 CALLDATALOAD SWAP1 POP PUSH2 0x85F DUP2 PUSH2 0x83B JUMP JUMPDEST SWAP3 SWAP2 POP POP JUMP JUMPDEST PUSH0 PUSH0 PUSH1 0x40 DUP4 DUP6 SUB SLT ISZERO PUSH2 0x87B JUMPI PUSH2 0x87A PUSH2 0x781 JUMP JUMPDEST JUMPDEST PUSH0 PUSH2 0x888 DUP6 DUP3 DUP7 ADD PUSH2 0x851 JUMP JUMPDEST SWAP3 POP POP PUSH1 0x20 PUSH2 0x899 DUP6 DUP3 DUP7 ADD PUSH2 0x851 JUMP JUMPDEST SWAP2 POP POP SWAP3 POP SWAP3 SWAP1 POP JUMP JUMPDEST PUSH2 0x8AC DUP2 PUSH2 0x7A4 JUMP JUMPDEST DUP3 MSTORE POP POP JUMP JUMPDEST PUSH0 PUSH1 0x20 DUP3 ADD SWAP1 POP PUSH2 0x8C5 PUSH0 DUP4 ADD DUP5 PUSH2 0x8A3 JUMP JUMPDEST SWAP3 SWAP2 POP POP JUMP JUMPDEST PUSH0 PUSH0 PUSH1 0x40 DUP4 DUP6 SUB SLT ISZERO PUSH2 0x8E1 JUMPI PUSH2 0x8E0 PUSH2 0x781 JUMP JUMPDEST JUMPDEST PUSH0 PUSH2 0x8EE DUP6 DUP3 DUP7 ADD PUSH2 0x7CB JUMP JUMPDEST SWAP3 POP POP PUSH1 0x20 PUSH2 0x8FF DUP6 DUP3 DUP7 ADD PUSH2 0x851 JUMP JUMPDEST SWAP2 POP POP SWAP3 POP SWAP3 SWAP1 POP JUMP JUMPDEST PUSH0 PUSH1 0x20 DUP3 DUP5 SUB SLT ISZERO PUSH2 0x91E JUMPI PUSH2 0x91D PUSH2 0x781 JUMP JUMPDEST JUMPDEST PUSH0 PUSH2 0x92B DUP5 DUP3 DUP6 ADD PUSH2 0x851 JUMP JUMPDEST SWAP2 POP POP SWAP3 SWAP2 POP POP JUMP JUMPDEST PUSH0 DUP3 DUP3 MSTORE PUSH1 0x20 DUP3 ADD SWAP1 POP SWAP3 SWAP2 POP POP JUMP JUMPDEST PUSH32 0x496E73756666696369656E742062616C616E6365000000000000000000000000 PUSH0 DUP3 ADD MSTORE POP JUMP JUMPDEST PUSH0 PUSH2 0x978 PUSH1 0x14 DUP4 PUSH2 0x934 JUMP JUMPDEST SWAP2 POP PUSH2 0x983 DUP3 PUSH2 0x944 JUMP JUMPDEST PUSH1 0x20 DUP3 ADD SWAP1 POP SWAP2 SWAP1 POP JUMP JUMPDEST PUSH0 PUSH1 0x20 DUP3 ADD SWAP1 POP DUP2 DUP2 SUB PUSH0 DUP4 ADD MSTORE PUSH2 0x9A5 DUP2 PUSH2 0x96C JUMP JUMPDEST SWAP1 POP SWAP2 SWAP1 POP JUMP JUMPDEST PUSH32 0x4E487B7100000000000000000000000000000000000000000000000000000000 PUSH0 MSTORE PUSH1 0x11 PUSH1 0x4 MSTORE PUSH1 0x24 PUSH0 REVERT JUMPDEST PUSH0 PUSH2 0x9E3 DUP3 PUSH2 0x80A JUMP JUMPDEST SWAP2 POP PUSH2 0x9EE DUP4 PUSH2 0x80A JUMP JUMPDEST SWAP3 POP DUP3 DUP3 SUB SWAP1 POP DUP2 DUP2 GT ISZERO PUSH2 0xA06 JUMPI PUSH2 0xA05 PUSH2 0x9AC JUMP JUMPDEST JUMPDEST SWAP3 SWAP2 POP POP JUMP JUMPDEST PUSH0 PUSH1 0x40 DUP3 ADD SWAP1 POP PUSH2 0xA1F PUSH0 DUP4 ADD DUP6 PUSH2 0x813 JUMP JUMPDEST PUSH2 0xA2C PUSH1 0x20 DUP4 ADD DUP5 PUSH2 0x813 JUMP JUMPDEST SWAP4 SWAP3 POP POP POP JUMP JUMPDEST PUSH32 0x4D6F64696669657220436F6D706C657465640000000000000000000000000000 PUSH0 DUP3 ADD MSTORE POP JUMP JUMPDEST PUSH0 PUSH2 0xA67 PUSH1 0x12 DUP4 PUSH2 0x934 JUMP JUMPDEST SWAP2 POP PUSH2 0xA72 DUP3 PUSH2 0xA33 JUMP JUMPDEST PUSH1 0x20 DUP3 ADD SWAP1 POP SWAP2 SWAP1 POP JUMP JUMPDEST PUSH0 PUSH1 0x20 DUP3 ADD SWAP1 POP DUP2 DUP2 SUB PUSH0 DUP4 ADD MSTORE PUSH2 0xA94 DUP2 PUSH2 0xA5B JUMP JUMPDEST SWAP1 POP SWAP2 SWAP1 POP JUMP JUMPDEST PUSH32 0x4E6F74206F776E65720000000000000000000000000000000000000000000000 PUSH0 DUP3 ADD MSTORE POP JUMP JUMPDEST PUSH0 PUSH2 0xACF PUSH1 0x9 DUP4 PUSH2 0x934 JUMP JUMPDEST SWAP2 POP PUSH2 0xADA DUP3 PUSH2 0xA9B JUMP JUMPDEST PUSH1 0x20 DUP3 ADD SWAP1 POP SWAP2 SWAP1 POP JUMP JUMPDEST PUSH0 PUSH1 0x20 DUP3 ADD SWAP1 POP DUP2 DUP2 SUB PUSH0 DUP4 ADD MSTORE PUSH2 0xAFC DUP2 PUSH2 0xAC3 JUMP JUMPDEST SWAP1 POP SWAP2 SWAP1 POP JUMP JUMPDEST PUSH32 0x42616C616E636520726573657400000000000000000000000000000000000000 PUSH0 DUP3 ADD MSTORE POP JUMP JUMPDEST PUSH0 PUSH2 0xB37 PUSH1 0xD DUP4 PUSH2 0x934 JUMP JUMPDEST SWAP2 POP PUSH2 0xB42 DUP3 PUSH2 0xB03 JUMP JUMPDEST PUSH1 0x20 DUP3 ADD SWAP1 POP SWAP2 SWAP1 POP JUMP JUMPDEST PUSH0 PUSH1 0x20 DUP3 ADD SWAP1 POP DUP2 DUP2 SUB PUSH0 DUP4 ADD MSTORE PUSH2 0xB64 DUP2 PUSH2 0xB2B JUMP JUMPDEST SWAP1 POP SWAP2 SWAP1 POP JUMP JUMPDEST PUSH32 0x4E756D62657220746F6F206C6172676500000000000000000000000000000000 PUSH0 DUP3 ADD MSTORE POP JUMP JUMPDEST PUSH0 PUSH2 0xB9F PUSH1 0x10 DUP4 PUSH2 0x934 JUMP JUMPDEST SWAP2 POP PUSH2 0xBAA DUP3 PUSH2 0xB6B JUMP JUMPDEST PUSH1 0x20 DUP3 ADD SWAP1 POP SWAP2 SWAP1 POP JUMP JUMPDEST PUSH0 PUSH1 0x20 DUP3 ADD SWAP1 POP DUP2 DUP2 SUB PUSH0 DUP4 ADD MSTORE PUSH2 0xBCC DUP2 PUSH2 0xB93 JUMP JUMPDEST SWAP1 POP SWAP2 SWAP1 POP JUMP JUMPDEST PUSH32 0x56616C69646174696F6E206661696C6564000000000000000000000000000000 PUSH0 DUP3 ADD MSTORE POP JUMP JUMPDEST PUSH0 PUSH2 0xC07 PUSH1 0x11 DUP4 PUSH2 0x934 JUMP JUMPDEST SWAP2 POP PUSH2 0xC12 DUP3 PUSH2 0xBD3 JUMP JUMPDEST PUSH1 0x20 DUP3 ADD SWAP1 POP SWAP2 SWAP1 POP JUMP JUMPDEST PUSH0 PUSH1 0x20 DUP3 ADD SWAP1 POP DUP2 DUP2 SUB PUSH0 DUP4 ADD MSTORE PUSH2 0xC34 DUP2 PUSH2 0xBFB JUMP JUMPDEST SWAP1 POP SWAP2 SWAP1 POP JUMP JUMPDEST PUSH32 0x416D6F756E74206D757374206265203E20300000000000000000000000000000 PUSH0 DUP3 ADD MSTORE POP JUMP JUMPDEST PUSH0 PUSH2 0xC6F PUSH1 0x12 DUP4 PUSH2 0x934 JUMP JUMPDEST SWAP2 POP PUSH2 0xC7A DUP3 PUSH2 0xC3B JUMP JUMPDEST PUSH1 0x20 DUP3 ADD SWAP1 POP SWAP2 SWAP1 POP JUMP JUMPDEST PUSH0 PUSH1 0x20 DUP3 ADD SWAP1 POP DUP2 DUP2 SUB PUSH0 DUP4 ADD MSTORE PUSH2 0xC9C DUP2 PUSH2 0xC63 JUMP JUMPDEST SWAP1 POP SWAP2 SWAP1 POP JUMP JUMPDEST PUSH32 0x416D6F756E7420746F6F206C6172676500000000000000000000000000000000 PUSH0 DUP3 ADD MSTORE POP JUMP JUMPDEST PUSH0 PUSH2 0xCD7 PUSH1 0x10 DUP4 PUSH2 0x934 JUMP JUMPDEST SWAP2 POP PUSH2 0xCE2 DUP3 PUSH2 0xCA3 JUMP JUMPDEST PUSH1 0x20 DUP3 ADD SWAP1 POP SWAP2 SWAP1 POP JUMP JUMPDEST PUSH0 PUSH1 0x20 DUP3 ADD SWAP1 POP DUP2 DUP2 SUB PUSH0 DUP4 ADD MSTORE PUSH2 0xD04 DUP2 PUSH2 0xCCB JUMP JUMPDEST SWAP1 POP SWAP2 SWAP1 POP JUMP JUMPDEST PUSH0 PUSH2 0xD15 DUP3 PUSH2 0x80A JUMP JUMPDEST SWAP2 POP PUSH2 0xD20 DUP4 PUSH2 0x80A JUMP JUMPDEST SWAP3 POP DUP3 DUP3 ADD SWAP1 POP DUP1 DUP3 GT ISZERO PUSH2 0xD38 JUMPI PUSH2 0xD37 PUSH2 0x9AC JUMP JUMPDEST JUMPDEST SWAP3 SWAP2 POP POP JUMP INVALID LOG2 PUSH5 0x6970667358 0x22 SLT KECCAK256 0xC7 POP DUP14 0xFC 0xBA 0xBD 0xC5 0xDD JUMPI REVERT 0xA8 0xAB 0xD 0xAC RETURNCONTRACT 0x1C GASLIMIT 0xCD PUSH27 0x5C8F7509D2C067595BA07E29BE64736F6C63430008220033000000 "
				},
				"gasEstimates": {
					"creation": {
						"codeDepositCost": "688800",
						"executionCost": "24984",
						"totalCost": "713784"
					},
					"external": {
						"balances(address)": "2802",
						"deposit(uint256,uint256)": "infinite",
						"owner()": "2508",
						"resetBalance(address,uint256)": "10468",
						"totalDeposits()": "2470",
						"validateNumber(uint256)": "infinite",
						"withdraw(uint256,uint256)": "infinite"
					}
				},
				"methodIdentifiers": {
					"balances(address)": "27e235e3",
					"deposit(uint256,uint256)": "e2bbb158",
					"owner()": "8da5cb5b",
					"resetBalance(address,uint256)": "91ddb1c1",
					"totalDeposits()": "7d882097",
					"validateNumber(uint256)": "a437aaa9",
					"withdraw(uint256,uint256)": "441a3e70"
				}
			},
			"storageLayout": {
				"storage": [
					{
						"astId": 112,
						"contract": "val47.sol:EventExecutionTracking",
						"label": "balances",
						"offset": 0,
						"slot": "0",
						"type": "t_mapping(t_address,t_uint256)"
					},
					{
						"astId": 114,
						"contract": "val47.sol:EventExecutionTracking",
						"label": "totalDeposits",
						"offset": 0,
						"slot": "1",
						"type": "t_uint256"
					},
					{
						"astId": 116,
						"contract": "val47.sol:EventExecutionTracking",
						"label": "owner",
						"offset": 0,
						"slot": "2",
						"type": "t_address"
					}
				],
				"types": {
					"t_address": {
						"encoding": "inplace",
						"label": "address",
						"numberOfBytes": "20"
					},
					"t_mapping(t_address,t_uint256)": {
						"encoding": "mapping",
						"key": "t_address",
						"label": "mapping(address => uint256)",
						"numberOfBytes": "32",
						"value": "t_uint256"
					},
					"t_uint256": {
						"encoding": "inplace",
						"label": "uint256",
						"numberOfBytes": "32"
					}
				}
			},
			"userdoc": {
				"kind": "user",
				"methods": {},
				"version": 1
			}
		}
	}
}