{
	"val37.sol": {
		"StateRollbackBehavior": {
			"abi": [
				{
					"inputs": [],
					"name": "InsufficientBalance",
					"type": "error"
				},
				{
					"inputs": [],
					"name": "ValueTooLarge",
					"type": "error"
				},
				{
					"inputs": [
						{
							"internalType": "uint256",
							"name": "_amount",
							"type": "uint256"
						}
					],
					"name": "deposit",
					"outputs": [],
					"stateMutability": "nonpayable",
					"type": "function"
				},
				{
					"inputs": [],
					"name": "getMyBalance",
					"outputs": [
						{
							"internalType": "uint256",
							"name": "",
							"type": "uint256"
						}
					],
					"stateMutability": "view",
					"type": "function"
				},
				{
					"inputs": [
						{
							"internalType": "uint256",
							"name": "_value",
							"type": "uint256"
						}
					],
					"name": "riskyIncrement",
					"outputs": [],
					"stateMutability": "nonpayable",
					"type": "function"
				},
				{
					"inputs": [
						{
							"internalType": "uint256",
							"name": "_amount",
							"type": "uint256"
						}
					],
					"name": "riskyWithdraw",
					"outputs": [],
					"stateMutability": "nonpayable",
					"type": "function"
				},
				{
					"inputs": [
						{
							"internalType": "uint256",
							"name": "_value",
							"type": "uint256"
						}
					],
					"name": "safeIncrement",
					"outputs": [],
					"stateMutability": "nonpayable",
					"type": "function"
				},
				{
					"inputs": [
						{
							"internalType": "uint256",
							"name": "_amount",
							"type": "uint256"
						}
					],
					"name": "safeWithdraw",
					"outputs": [],
					"stateMutability": "nonpayable",
					"type": "function"
				},
				{
					"inputs": [],
					"name": "totalCounter",
					"outputs": [
						{
							"internalType": "uint256",
							"name": "",
							"type": "uint256"
						}
					],
					"stateMutability": "view",
					"type": "function"
				},
				{
					"inputs": [
						{
							"internalType": "address",
							"name": "",
							"type": "address"
						}
					],
					"name": "userCounter",
					"outputs": [
						{
							"internalType": "uint256",
							"name": "",
							"type": "uint256"
						}
					],
					"stateMutability": "view",
					"type": "function"
				}
			],
			"devdoc": {
				"kind": "dev",
				"methods": {},
				"version": 1
			},
			"evm": {
				"assembly": "    /* \"val37.sol\":12541:15106  contract StateRollbackBehavior {... */\n  mstore(0x40, 0x80)\n  callvalue\n  dup1\n  iszero\n  tag_1\n  jumpi\n  revert(0x00, 0x00)\ntag_1:\n  pop\n  dataSize(sub_0)\n  dup1\n  dataOffset(sub_0)\n  0x00\n  codecopy\n  0x00\n  return\nstop\n\nsub_0: assembly {\n        /* \"val37.sol\":12541:15106  contract StateRollbackBehavior {... */\n      mstore(0x40, 0x80)\n      callvalue\n      dup1\n      iszero\n      tag_1\n      jumpi\n      revert(0x00, 0x00)\n    tag_1:\n      pop\n      jumpi(tag_2, lt(calldatasize, 0x04))\n      shr(0xe0, calldataload(0x00))\n      dup1\n      0x97feba9d\n      gt\n      tag_11\n      jumpi\n      dup1\n      0x97feba9d\n      eq\n      tag_7\n      jumpi\n      dup1\n      0xb0fd035b\n      eq\n      tag_8\n      jumpi\n      dup1\n      0xb6b55f25\n      eq\n      tag_9\n      jumpi\n      dup1\n      0xd9d897d5\n      eq\n      tag_10\n      jumpi\n      jump(tag_2)\n    tag_11:\n      dup1\n      0x40f1dc42\n      eq\n      tag_3\n      jumpi\n      dup1\n      0x4c738909\n      eq\n      tag_4\n      jumpi\n      dup1\n      0x6887a199\n      eq\n      tag_5\n      jumpi\n      dup1\n      0x8ab389e6\n      eq\n      tag_6\n      jumpi\n    tag_2:\n      revert(0x00, 0x00)\n        /* \"val37.sol\":13809:14250  function safeIncrement(... */\n    tag_3:\n      tag_12\n      0x04\n      dup1\n      calldatasize\n      sub\n      dup2\n      add\n      swap1\n      tag_13\n      swap2\n      swap1\n      tag_14\n      jump\t// in\n    tag_13:\n      tag_15\n      jump\t// in\n    tag_12:\n      stop\n        /* \"val37.sol\":14993:15103  function getMyBalance() external view returns (uint256)... */\n    tag_4:\n      tag_16\n      tag_17\n      jump\t// in\n    tag_16:\n      mload(0x40)\n      tag_18\n      swap2\n      swap1\n      tag_19\n      jump\t// in\n    tag_18:\n      mload(0x40)\n      dup1\n      swap2\n      sub\n      swap1\n      return\n        /* \"val37.sol\":14403:14634  function riskyWithdraw(uint256 _amount) external ... */\n    tag_5:\n      tag_20\n      0x04\n      dup1\n      calldatasize\n      sub\n      dup2\n      add\n      swap1\n      tag_21\n      swap2\n      swap1\n      tag_14\n      jump\t// in\n    tag_21:\n      tag_22\n      jump\t// in\n    tag_20:\n      stop\n        /* \"val37.sol\":12996:13622  function riskyIncrement(... */\n    tag_6:\n      tag_23\n      0x04\n      dup1\n      calldatasize\n      sub\n      dup2\n      add\n      swap1\n      tag_24\n      swap2\n      swap1\n      tag_14\n      jump\t// in\n    tag_24:\n      tag_25\n      jump\t// in\n    tag_23:\n      stop\n        /* \"val37.sol\":12672:12699  uint256 public totalCounter */\n    tag_7:\n      tag_26\n      tag_27\n      jump\t// in\n    tag_26:\n      mload(0x40)\n      tag_28\n      swap2\n      swap1\n      tag_19\n      jump\t// in\n    tag_28:\n      mload(0x40)\n      dup1\n      swap2\n      sub\n      swap1\n      return\n        /* \"val37.sol\":14642:14985  function safeWithdraw(uint256 _amount) external... */\n    tag_8:\n      tag_29\n      0x04\n      dup1\n      calldatasize\n      sub\n      dup2\n      add\n      swap1\n      tag_30\n      swap2\n      swap1\n      tag_14\n      jump\t// in\n    tag_30:\n      tag_31\n      jump\t// in\n    tag_29:\n      stop\n        /* \"val37.sol\":14258:14395  function deposit(uint256 _amount) external... */\n    tag_9:\n      tag_32\n      0x04\n      dup1\n      calldatasize\n      sub\n      dup2\n      add\n      swap1\n      tag_33\n      swap2\n      swap1\n      tag_14\n      jump\t// in\n    tag_33:\n      tag_34\n      jump\t// in\n    tag_32:\n      stop\n        /* \"val37.sol\":12708:12754  mapping(address => uint256) public userCounter */\n    tag_10:\n      tag_35\n      0x04\n      dup1\n      calldatasize\n      sub\n      dup2\n      add\n      swap1\n      tag_36\n      swap2\n      swap1\n      tag_37\n      jump\t// in\n    tag_36:\n      tag_38\n      jump\t// in\n    tag_35:\n      mload(0x40)\n      tag_39\n      swap2\n      swap1\n      tag_19\n      jump\t// in\n    tag_39:\n      mload(0x40)\n      dup1\n      swap2\n      sub\n      swap1\n      return\n        /* \"val37.sol\":13809:14250  function safeIncrement(... */\n    tag_15:\n        /* \"val37.sol\":13984:13986  10 */\n      0x0a\n        /* \"val37.sol\":13974:13980  _value */\n      dup2\n        /* \"val37.sol\":13974:13986  _value <= 10 */\n      gt\n      iszero\n        /* \"val37.sol\":13952:14029  require(... */\n      tag_41\n      jumpi\n      mload(0x40)\n      0x08c379a000000000000000000000000000000000000000000000000000000000\n      dup2\n      mstore\n      0x04\n      add\n      tag_42\n      swap1\n      tag_43\n      jump\t// in\n    tag_42:\n      mload(0x40)\n      dup1\n      swap2\n      sub\n      swap1\n      revert\n    tag_41:\n        /* \"val37.sol\":14152:14158  _value */\n      dup1\n        /* \"val37.sol\":14137:14149  totalCounter */\n      sload(0x00)\n        /* \"val37.sol\":14137:14158  totalCounter + _value */\n      tag_44\n      swap2\n      swap1\n      tag_45\n      jump\t// in\n    tag_44:\n        /* \"val37.sol\":14109:14121  totalCounter */\n      0x00\n        /* \"val37.sol\":14109:14158  totalCounter =... */\n      dup2\n      swap1\n      sstore\n      pop\n        /* \"val37.sol\":14236:14242  _value */\n      dup1\n        /* \"val37.sol\":14210:14221  userCounter */\n      0x01\n        /* \"val37.sol\":14210:14233  userCounter[msg.sender] */\n      0x00\n        /* \"val37.sol\":14222:14232  msg.sender */\n      caller\n        /* \"val37.sol\":14210:14233  userCounter[msg.sender] */\n      0xffffffffffffffffffffffffffffffffffffffff\n      and\n      0xffffffffffffffffffffffffffffffffffffffff\n      and\n      dup2\n      mstore\n      0x20\n      add\n      swap1\n      dup2\n      mstore\n      0x20\n      add\n      0x00\n      keccak256\n      sload\n        /* \"val37.sol\":14210:14242  userCounter[msg.sender] + _value */\n      tag_46\n      swap2\n      swap1\n      tag_45\n      jump\t// in\n    tag_46:\n        /* \"val37.sol\":14171:14182  userCounter */\n      0x01\n        /* \"val37.sol\":14171:14194  userCounter[msg.sender] */\n      0x00\n        /* \"val37.sol\":14183:14193  msg.sender */\n      caller\n        /* \"val37.sol\":14171:14194  userCounter[msg.sender] */\n      0xffffffffffffffffffffffffffffffffffffffff\n      and\n      0xffffffffffffffffffffffffffffffffffffffff\n      and\n      dup2\n      mstore\n      0x20\n      add\n      swap1\n      dup2\n      mstore\n      0x20\n      add\n      0x00\n      keccak256\n        /* \"val37.sol\":14171:14242  userCounter[msg.sender] =... */\n      dup2\n      swap1\n      sstore\n      pop\n        /* \"val37.sol\":13809:14250  function safeIncrement(... */\n      pop\n      jump\t// out\n        /* \"val37.sol\":14993:15103  function getMyBalance() external view returns (uint256)... */\n    tag_17:\n        /* \"val37.sol\":15040:15047  uint256 */\n      0x00\n        /* \"val37.sol\":15072:15083  userCounter */\n      0x01\n        /* \"val37.sol\":15072:15095  userCounter[msg.sender] */\n      0x00\n        /* \"val37.sol\":15084:15094  msg.sender */\n      caller\n        /* \"val37.sol\":15072:15095  userCounter[msg.sender] */\n      0xffffffffffffffffffffffffffffffffffffffff\n      and\n      0xffffffffffffffffffffffffffffffffffffffff\n      and\n      dup2\n      mstore\n      0x20\n      add\n      swap1\n      dup2\n      mstore\n      0x20\n      add\n      0x00\n      keccak256\n      sload\n        /* \"val37.sol\":15065:15095  return userCounter[msg.sender] */\n      swap1\n      pop\n        /* \"val37.sol\":14993:15103  function getMyBalance() external view returns (uint256)... */\n      swap1\n      jump\t// out\n        /* \"val37.sol\":14403:14634  function riskyWithdraw(uint256 _amount) external ... */\n    tag_22:\n        /* \"val37.sol\":14496:14503  _amount */\n      dup1\n        /* \"val37.sol\":14469:14480  userCounter */\n      0x01\n        /* \"val37.sol\":14469:14492  userCounter[msg.sender] */\n      0x00\n        /* \"val37.sol\":14481:14491  msg.sender */\n      caller\n        /* \"val37.sol\":14469:14492  userCounter[msg.sender] */\n      0xffffffffffffffffffffffffffffffffffffffff\n      and\n      0xffffffffffffffffffffffffffffffffffffffff\n      and\n      dup2\n      mstore\n      0x20\n      add\n      swap1\n      dup2\n      mstore\n      0x20\n      add\n      0x00\n      keccak256\n      0x00\n        /* \"val37.sol\":14469:14503  userCounter[msg.sender] -= _amount */\n      dup3\n      dup3\n      sload\n      tag_49\n      swap2\n      swap1\n      tag_50\n      jump\t// in\n    tag_49:\n      swap3\n      pop\n      pop\n      dup2\n      swap1\n      sstore\n      pop\n        /* \"val37.sol\":14532:14539  _amount */\n      dup1\n        /* \"val37.sol\":14516:14528  totalCounter */\n      0x00\n      0x00\n        /* \"val37.sol\":14516:14539  totalCounter -= _amount */\n      dup3\n      dup3\n      sload\n      tag_51\n      swap2\n      swap1\n      tag_50\n      jump\t// in\n    tag_51:\n      swap3\n      pop\n      pop\n      dup2\n      swap1\n      sstore\n      pop\n        /* \"val37.sol\":14565:14567  10 */\n      0x0a\n        /* \"val37.sol\":14555:14562  _amount */\n      dup2\n        /* \"val37.sol\":14555:14567  _amount > 10 */\n      gt\n        /* \"val37.sol\":14552:14627  if(_amount > 10)... */\n      iszero\n      tag_52\n      jumpi\n        /* \"val37.sol\":14600:14615  ValueTooLarge() */\n      mload(0x40)\n      0x2ad907fb00000000000000000000000000000000000000000000000000000000\n      dup2\n      mstore\n      0x04\n      add\n      mload(0x40)\n      dup1\n      swap2\n      sub\n      swap1\n      revert\n        /* \"val37.sol\":14552:14627  if(_amount > 10)... */\n    tag_52:\n        /* \"val37.sol\":14403:14634  function riskyWithdraw(uint256 _amount) external ... */\n      pop\n      jump\t// out\n        /* \"val37.sol\":12996:13622  function riskyIncrement(... */\n    tag_25:\n        /* \"val37.sol\":13283:13289  _value */\n      dup1\n        /* \"val37.sol\":13268:13280  totalCounter */\n      sload(0x00)\n        /* \"val37.sol\":13268:13289  totalCounter + _value */\n      tag_54\n      swap2\n      swap1\n      tag_45\n      jump\t// in\n    tag_54:\n        /* \"val37.sol\":13240:13252  totalCounter */\n      0x00\n        /* \"val37.sol\":13240:13289  totalCounter =... */\n      dup2\n      swap1\n      sstore\n      pop\n        /* \"val37.sol\":13367:13373  _value */\n      dup1\n        /* \"val37.sol\":13341:13352  userCounter */\n      0x01\n        /* \"val37.sol\":13341:13364  userCounter[msg.sender] */\n      0x00\n        /* \"val37.sol\":13353:13363  msg.sender */\n      caller\n        /* \"val37.sol\":13341:13364  userCounter[msg.sender] */\n      0xffffffffffffffffffffffffffffffffffffffff\n      and\n      0xffffffffffffffffffffffffffffffffffffffff\n      and\n      dup2\n      mstore\n      0x20\n      add\n      swap1\n      dup2\n      mstore\n      0x20\n      add\n      0x00\n      keccak256\n      sload\n        /* \"val37.sol\":13341:13373  userCounter[msg.sender] + _value */\n      tag_55\n      swap2\n      swap1\n      tag_45\n      jump\t// in\n    tag_55:\n        /* \"val37.sol\":13302:13313  userCounter */\n      0x01\n        /* \"val37.sol\":13302:13325  userCounter[msg.sender] */\n      0x00\n        /* \"val37.sol\":13314:13324  msg.sender */\n      caller\n        /* \"val37.sol\":13302:13325  userCounter[msg.sender] */\n      0xffffffffffffffffffffffffffffffffffffffff\n      and\n      0xffffffffffffffffffffffffffffffffffffffff\n      and\n      dup2\n      mstore\n      0x20\n      add\n      swap1\n      dup2\n      mstore\n      0x20\n      add\n      0x00\n      keccak256\n        /* \"val37.sol\":13302:13373  userCounter[msg.sender] =... */\n      dup2\n      swap1\n      sstore\n      pop\n        /* \"val37.sol\":13569:13571  10 */\n      0x0a\n        /* \"val37.sol\":13559:13565  _value */\n      dup2\n        /* \"val37.sol\":13559:13571  _value <= 10 */\n      gt\n      iszero\n        /* \"val37.sol\":13537:13614  require(... */\n      tag_56\n      jumpi\n      mload(0x40)\n      0x08c379a000000000000000000000000000000000000000000000000000000000\n      dup2\n      mstore\n      0x04\n      add\n      tag_57\n      swap1\n      tag_43\n      jump\t// in\n    tag_57:\n      mload(0x40)\n      dup1\n      swap2\n      sub\n      swap1\n      revert\n    tag_56:\n        /* \"val37.sol\":12996:13622  function riskyIncrement(... */\n      pop\n      jump\t// out\n        /* \"val37.sol\":12672:12699  uint256 public totalCounter */\n    tag_27:\n      sload(0x00)\n      dup2\n      jump\t// out\n        /* \"val37.sol\":14642:14985  function safeWithdraw(uint256 _amount) external... */\n    tag_31:\n        /* \"val37.sol\":14719:14721  10 */\n      0x0a\n        /* \"val37.sol\":14709:14716  _amount */\n      dup2\n        /* \"val37.sol\":14709:14721  _amount > 10 */\n      gt\n        /* \"val37.sol\":14706:14781  if(_amount > 10)... */\n      iszero\n      tag_59\n      jumpi\n        /* \"val37.sol\":14754:14769  ValueTooLarge() */\n      mload(0x40)\n      0x2ad907fb00000000000000000000000000000000000000000000000000000000\n      dup2\n      mstore\n      0x04\n      add\n      mload(0x40)\n      dup1\n      swap2\n      sub\n      swap1\n      revert\n        /* \"val37.sol\":14706:14781  if(_amount > 10)... */\n    tag_59:\n        /* \"val37.sol\":14822:14829  _amount */\n      dup1\n        /* \"val37.sol\":14796:14807  userCounter */\n      0x01\n        /* \"val37.sol\":14796:14819  userCounter[msg.sender] */\n      0x00\n        /* \"val37.sol\":14808:14818  msg.sender */\n      caller\n        /* \"val37.sol\":14796:14819  userCounter[msg.sender] */\n      0xffffffffffffffffffffffffffffffffffffffff\n      and\n      0xffffffffffffffffffffffffffffffffffffffff\n      and\n      dup2\n      mstore\n      0x20\n      add\n      swap1\n      dup2\n      mstore\n      0x20\n      add\n      0x00\n      keccak256\n      sload\n        /* \"val37.sol\":14796:14829  userCounter[msg.sender] < _amount */\n      lt\n        /* \"val37.sol\":14793:14895  if(userCounter[msg.sender] < _amount)... */\n      iszero\n      tag_60\n      jumpi\n        /* \"val37.sol\":14862:14883  InsufficientBalance() */\n      mload(0x40)\n      0xf4d678b800000000000000000000000000000000000000000000000000000000\n      dup2\n      mstore\n      0x04\n      add\n      mload(0x40)\n      dup1\n      swap2\n      sub\n      swap1\n      revert\n        /* \"val37.sol\":14793:14895  if(userCounter[msg.sender] < _amount)... */\n    tag_60:\n        /* \"val37.sol\":14934:14941  _amount */\n      dup1\n        /* \"val37.sol\":14907:14918  userCounter */\n      0x01\n        /* \"val37.sol\":14907:14930  userCounter[msg.sender] */\n      0x00\n        /* \"val37.sol\":14919:14929  msg.sender */\n      caller\n        /* \"val37.sol\":14907:14930  userCounter[msg.sender] */\n      0xffffffffffffffffffffffffffffffffffffffff\n      and\n      0xffffffffffffffffffffffffffffffffffffffff\n      and\n      dup2\n      mstore\n      0x20\n      add\n      swap1\n      dup2\n      mstore\n      0x20\n      add\n      0x00\n      keccak256\n      0x00\n        /* \"val37.sol\":14907:14941  userCounter[msg.sender] -= _amount */\n      dup3\n      dup3\n      sload\n      tag_61\n      swap2\n      swap1\n      tag_50\n      jump\t// in\n    tag_61:\n      swap3\n      pop\n      pop\n      dup2\n      swap1\n      sstore\n      pop\n        /* \"val37.sol\":14970:14977  _amount */\n      dup1\n        /* \"val37.sol\":14954:14966  totalCounter */\n      0x00\n      0x00\n        /* \"val37.sol\":14954:14977  totalCounter -= _amount */\n      dup3\n      dup3\n      sload\n      tag_62\n      swap2\n      swap1\n      tag_50\n      jump\t// in\n    tag_62:\n      swap3\n      pop\n      pop\n      dup2\n      swap1\n      sstore\n      pop\n        /* \"val37.sol\":14642:14985  function safeWithdraw(uint256 _amount) external... */\n      pop\n      jump\t// out\n        /* \"val37.sol\":14258:14395  function deposit(uint256 _amount) external... */\n    tag_34:\n        /* \"val37.sol\":14333:14340  _amount */\n      dup1\n        /* \"val37.sol\":14317:14329  totalCounter */\n      0x00\n      0x00\n        /* \"val37.sol\":14317:14340  totalCounter += _amount */\n      dup3\n      dup3\n      sload\n      tag_64\n      swap2\n      swap1\n      tag_45\n      jump\t// in\n    tag_64:\n      swap3\n      pop\n      pop\n      dup2\n      swap1\n      sstore\n      pop\n        /* \"val37.sol\":14380:14387  _amount */\n      dup1\n        /* \"val37.sol\":14353:14364  userCounter */\n      0x01\n        /* \"val37.sol\":14353:14376  userCounter[msg.sender] */\n      0x00\n        /* \"val37.sol\":14365:14375  msg.sender */\n      caller\n        /* \"val37.sol\":14353:14376  userCounter[msg.sender] */\n      0xffffffffffffffffffffffffffffffffffffffff\n      and\n      0xffffffffffffffffffffffffffffffffffffffff\n      and\n      dup2\n      mstore\n      0x20\n      add\n      swap1\n      dup2\n      mstore\n      0x20\n      add\n      0x00\n      keccak256\n      0x00\n        /* \"val37.sol\":14353:14387  userCounter[msg.sender] += _amount */\n      dup3\n      dup3\n      sload\n      tag_65\n      swap2\n      swap1\n      tag_45\n      jump\t// in\n    tag_65:\n      swap3\n      pop\n      pop\n      dup2\n      swap1\n      sstore\n      pop\n        /* \"val37.sol\":14258:14395  function deposit(uint256 _amount) external... */\n      pop\n      jump\t// out\n        /* \"val37.sol\":12708:12754  mapping(address => uint256) public userCounter */\n    tag_38:\n      mstore(0x20, 0x01)\n      dup1\n      0x00\n      mstore\n      keccak256(0x00, 0x40)\n      0x00\n      swap2\n      pop\n      swap1\n      pop\n      sload\n      dup2\n      jump\t// out\n        /* \"#utility.yul\":88:205   */\n    tag_67:\n        /* \"#utility.yul\":197:198   */\n      0x00\n        /* \"#utility.yul\":194:195   */\n      0x00\n        /* \"#utility.yul\":187:199   */\n      revert\n        /* \"#utility.yul\":334:411   */\n    tag_69:\n        /* \"#utility.yul\":371:378   */\n      0x00\n        /* \"#utility.yul\":400:405   */\n      dup2\n        /* \"#utility.yul\":389:405   */\n      swap1\n      pop\n        /* \"#utility.yul\":334:411   */\n      swap2\n      swap1\n      pop\n      jump\t// out\n        /* \"#utility.yul\":417:539   */\n    tag_70:\n        /* \"#utility.yul\":490:514   */\n      tag_87\n        /* \"#utility.yul\":508:513   */\n      dup2\n        /* \"#utility.yul\":490:514   */\n      tag_69\n      jump\t// in\n    tag_87:\n        /* \"#utility.yul\":483:488   */\n      dup2\n        /* \"#utility.yul\":480:515   */\n      eq\n        /* \"#utility.yul\":470:533   */\n      tag_88\n      jumpi\n        /* \"#utility.yul\":529:530   */\n      0x00\n        /* \"#utility.yul\":526:527   */\n      0x00\n        /* \"#utility.yul\":519:531   */\n      revert\n        /* \"#utility.yul\":470:533   */\n    tag_88:\n        /* \"#utility.yul\":417:539   */\n      pop\n      jump\t// out\n        /* \"#utility.yul\":545:684   */\n    tag_71:\n        /* \"#utility.yul\":591:596   */\n      0x00\n        /* \"#utility.yul\":629:635   */\n      dup2\n        /* \"#utility.yul\":616:636   */\n      calldataload\n        /* \"#utility.yul\":607:636   */\n      swap1\n      pop\n        /* \"#utility.yul\":645:678   */\n      tag_90\n        /* \"#utility.yul\":672:677   */\n      dup2\n        /* \"#utility.yul\":645:678   */\n      tag_70\n      jump\t// in\n    tag_90:\n        /* \"#utility.yul\":545:684   */\n      swap3\n      swap2\n      pop\n      pop\n      jump\t// out\n        /* \"#utility.yul\":690:1019   */\n    tag_14:\n        /* \"#utility.yul\":749:755   */\n      0x00\n        /* \"#utility.yul\":798:800   */\n      0x20\n        /* \"#utility.yul\":786:795   */\n      dup3\n        /* \"#utility.yul\":777:784   */\n      dup5\n        /* \"#utility.yul\":773:796   */\n      sub\n        /* \"#utility.yul\":769:801   */\n      slt\n        /* \"#utility.yul\":766:885   */\n      iszero\n      tag_92\n      jumpi\n        /* \"#utility.yul\":804:883   */\n      tag_93\n      tag_67\n      jump\t// in\n    tag_93:\n        /* \"#utility.yul\":766:885   */\n    tag_92:\n        /* \"#utility.yul\":924:925   */\n      0x00\n        /* \"#utility.yul\":949:1002   */\n      tag_94\n        /* \"#utility.yul\":994:1001   */\n      dup5\n        /* \"#utility.yul\":985:991   */\n      dup3\n        /* \"#utility.yul\":974:983   */\n      dup6\n        /* \"#utility.yul\":970:992   */\n      add\n        /* \"#utility.yul\":949:1002   */\n      tag_71\n      jump\t// in\n    tag_94:\n        /* \"#utility.yul\":939:1002   */\n      swap2\n      pop\n        /* \"#utility.yul\":895:1012   */\n      pop\n        /* \"#utility.yul\":690:1019   */\n      swap3\n      swap2\n      pop\n      pop\n      jump\t// out\n        /* \"#utility.yul\":1025:1143   */\n    tag_72:\n        /* \"#utility.yul\":1112:1136   */\n      tag_96\n        /* \"#utility.yul\":1130:1135   */\n      dup2\n        /* \"#utility.yul\":1112:1136   */\n      tag_69\n      jump\t// in\n    tag_96:\n        /* \"#utility.yul\":1107:1110   */\n      dup3\n        /* \"#utility.yul\":1100:1137   */\n      mstore\n        /* \"#utility.yul\":1025:1143   */\n      pop\n      pop\n      jump\t// out\n        /* \"#utility.yul\":1149:1371   */\n    tag_19:\n        /* \"#utility.yul\":1242:1246   */\n      0x00\n        /* \"#utility.yul\":1280:1282   */\n      0x20\n        /* \"#utility.yul\":1269:1278   */\n      dup3\n        /* \"#utility.yul\":1265:1283   */\n      add\n        /* \"#utility.yul\":1257:1283   */\n      swap1\n      pop\n        /* \"#utility.yul\":1293:1364   */\n      tag_98\n        /* \"#utility.yul\":1361:1362   */\n      0x00\n        /* \"#utility.yul\":1350:1359   */\n      dup4\n        /* \"#utility.yul\":1346:1363   */\n      add\n        /* \"#utility.yul\":1337:1343   */\n      dup5\n        /* \"#utility.yul\":1293:1364   */\n      tag_72\n      jump\t// in\n    tag_98:\n        /* \"#utility.yul\":1149:1371   */\n      swap3\n      swap2\n      pop\n      pop\n      jump\t// out\n        /* \"#utility.yul\":1377:1503   */\n    tag_73:\n        /* \"#utility.yul\":1414:1421   */\n      0x00\n        /* \"#utility.yul\":1454:1496   */\n      0xffffffffffffffffffffffffffffffffffffffff\n        /* \"#utility.yul\":1447:1452   */\n      dup3\n        /* \"#utility.yul\":1443:1497   */\n      and\n        /* \"#utility.yul\":1432:1497   */\n      swap1\n      pop\n        /* \"#utility.yul\":1377:1503   */\n      swap2\n      swap1\n      pop\n      jump\t// out\n        /* \"#utility.yul\":1509:1605   */\n    tag_74:\n        /* \"#utility.yul\":1546:1553   */\n      0x00\n        /* \"#utility.yul\":1575:1599   */\n      tag_101\n        /* \"#utility.yul\":1593:1598   */\n      dup3\n        /* \"#utility.yul\":1575:1599   */\n      tag_73\n      jump\t// in\n    tag_101:\n        /* \"#utility.yul\":1564:1599   */\n      swap1\n      pop\n        /* \"#utility.yul\":1509:1605   */\n      swap2\n      swap1\n      pop\n      jump\t// out\n        /* \"#utility.yul\":1611:1733   */\n    tag_75:\n        /* \"#utility.yul\":1684:1708   */\n      tag_103\n        /* \"#utility.yul\":1702:1707   */\n      dup2\n        /* \"#utility.yul\":1684:1708   */\n      tag_74\n      jump\t// in\n    tag_103:\n        /* \"#utility.yul\":1677:1682   */\n      dup2\n        /* \"#utility.yul\":1674:1709   */\n      eq\n        /* \"#utility.yul\":1664:1727   */\n      tag_104\n      jumpi\n        /* \"#utility.yul\":1723:1724   */\n      0x00\n        /* \"#utility.yul\":1720:1721   */\n      0x00\n        /* \"#utility.yul\":1713:1725   */\n      revert\n        /* \"#utility.yul\":1664:1727   */\n    tag_104:\n        /* \"#utility.yul\":1611:1733   */\n      pop\n      jump\t// out\n        /* \"#utility.yul\":1739:1878   */\n    tag_76:\n        /* \"#utility.yul\":1785:1790   */\n      0x00\n        /* \"#utility.yul\":1823:1829   */\n      dup2\n        /* \"#utility.yul\":1810:1830   */\n      calldataload\n        /* \"#utility.yul\":1801:1830   */\n      swap1\n      pop\n        /* \"#utility.yul\":1839:1872   */\n      tag_106\n        /* \"#utility.yul\":1866:1871   */\n      dup2\n        /* \"#utility.yul\":1839:1872   */\n      tag_75\n      jump\t// in\n    tag_106:\n        /* \"#utility.yul\":1739:1878   */\n      swap3\n      swap2\n      pop\n      pop\n      jump\t// out\n        /* \"#utility.yul\":1884:2213   */\n    tag_37:\n        /* \"#utility.yul\":1943:1949   */\n      0x00\n        /* \"#utility.yul\":1992:1994   */\n      0x20\n        /* \"#utility.yul\":1980:1989   */\n      dup3\n        /* \"#utility.yul\":1971:1978   */\n      dup5\n        /* \"#utility.yul\":1967:1990   */\n      sub\n        /* \"#utility.yul\":1963:1995   */\n      slt\n        /* \"#utility.yul\":1960:2079   */\n      iszero\n      tag_108\n      jumpi\n        /* \"#utility.yul\":1998:2077   */\n      tag_109\n      tag_67\n      jump\t// in\n    tag_109:\n        /* \"#utility.yul\":1960:2079   */\n    tag_108:\n        /* \"#utility.yul\":2118:2119   */\n      0x00\n        /* \"#utility.yul\":2143:2196   */\n      tag_110\n        /* \"#utility.yul\":2188:2195   */\n      dup5\n        /* \"#utility.yul\":2179:2185   */\n      dup3\n        /* \"#utility.yul\":2168:2177   */\n      dup6\n        /* \"#utility.yul\":2164:2186   */\n      add\n        /* \"#utility.yul\":2143:2196   */\n      tag_76\n      jump\t// in\n    tag_110:\n        /* \"#utility.yul\":2133:2196   */\n      swap2\n      pop\n        /* \"#utility.yul\":2089:2206   */\n      pop\n        /* \"#utility.yul\":1884:2213   */\n      swap3\n      swap2\n      pop\n      pop\n      jump\t// out\n        /* \"#utility.yul\":2219:2388   */\n    tag_77:\n        /* \"#utility.yul\":2303:2314   */\n      0x00\n        /* \"#utility.yul\":2337:2343   */\n      dup3\n        /* \"#utility.yul\":2332:2335   */\n      dup3\n        /* \"#utility.yul\":2325:2344   */\n      mstore\n        /* \"#utility.yul\":2377:2381   */\n      0x20\n        /* \"#utility.yul\":2372:2375   */\n      dup3\n        /* \"#utility.yul\":2368:2382   */\n      add\n        /* \"#utility.yul\":2353:2382   */\n      swap1\n      pop\n        /* \"#utility.yul\":2219:2388   */\n      swap3\n      swap2\n      pop\n      pop\n      jump\t// out\n        /* \"#utility.yul\":2394:2559   */\n    tag_78:\n        /* \"#utility.yul\":2534:2551   */\n      0x56616c756520746f6f206c617267650000000000000000000000000000000000\n        /* \"#utility.yul\":2530:2531   */\n      0x00\n        /* \"#utility.yul\":2522:2528   */\n      dup3\n        /* \"#utility.yul\":2518:2532   */\n      add\n        /* \"#utility.yul\":2511:2552   */\n      mstore\n        /* \"#utility.yul\":2394:2559   */\n      pop\n      jump\t// out\n        /* \"#utility.yul\":2565:2931   */\n    tag_79:\n        /* \"#utility.yul\":2707:2710   */\n      0x00\n        /* \"#utility.yul\":2728:2795   */\n      tag_114\n        /* \"#utility.yul\":2792:2794   */\n      0x0f\n        /* \"#utility.yul\":2787:2790   */\n      dup4\n        /* \"#utility.yul\":2728:2795   */\n      tag_77\n      jump\t// in\n    tag_114:\n        /* \"#utility.yul\":2721:2795   */\n      swap2\n      pop\n        /* \"#utility.yul\":2804:2897   */\n      tag_115\n        /* \"#utility.yul\":2893:2896   */\n      dup3\n        /* \"#utility.yul\":2804:2897   */\n      tag_78\n      jump\t// in\n    tag_115:\n        /* \"#utility.yul\":2922:2924   */\n      0x20\n        /* \"#utility.yul\":2917:2920   */\n      dup3\n        /* \"#utility.yul\":2913:2925   */\n      add\n        /* \"#utility.yul\":2906:2925   */\n      swap1\n      pop\n        /* \"#utility.yul\":2565:2931   */\n      swap2\n      swap1\n      pop\n      jump\t// out\n        /* \"#utility.yul\":2937:3356   */\n    tag_43:\n        /* \"#utility.yul\":3103:3107   */\n      0x00\n        /* \"#utility.yul\":3141:3143   */\n      0x20\n        /* \"#utility.yul\":3130:3139   */\n      dup3\n        /* \"#utility.yul\":3126:3144   */\n      add\n        /* \"#utility.yul\":3118:3144   */\n      swap1\n      pop\n        /* \"#utility.yul\":3190:3199   */\n      dup2\n        /* \"#utility.yul\":3184:3188   */\n      dup2\n        /* \"#utility.yul\":3180:3200   */\n      sub\n        /* \"#utility.yul\":3176:3177   */\n      0x00\n        /* \"#utility.yul\":3165:3174   */\n      dup4\n        /* \"#utility.yul\":3161:3178   */\n      add\n        /* \"#utility.yul\":3154:3201   */\n      mstore\n        /* \"#utility.yul\":3218:3349   */\n      tag_117\n        /* \"#utility.yul\":3344:3348   */\n      dup2\n        /* \"#utility.yul\":3218:3349   */\n      tag_79\n      jump\t// in\n    tag_117:\n        /* \"#utility.yul\":3210:3349   */\n      swap1\n      pop\n        /* \"#utility.yul\":2937:3356   */\n      swap2\n      swap1\n      pop\n      jump\t// out\n        /* \"#utility.yul\":3362:3542   */\n    tag_80:\n        /* \"#utility.yul\":3410:3487   */\n      0x4e487b7100000000000000000000000000000000000000000000000000000000\n        /* \"#utility.yul\":3407:3408   */\n      0x00\n        /* \"#utility.yul\":3400:3488   */\n      mstore\n        /* \"#utility.yul\":3507:3511   */\n      0x11\n        /* \"#utility.yul\":3504:3505   */\n      0x04\n        /* \"#utility.yul\":3497:3512   */\n      mstore\n        /* \"#utility.yul\":3531:3535   */\n      0x24\n        /* \"#utility.yul\":3528:3529   */\n      0x00\n        /* \"#utility.yul\":3521:3536   */\n      revert\n        /* \"#utility.yul\":3548:3739   */\n    tag_45:\n        /* \"#utility.yul\":3588:3591   */\n      0x00\n        /* \"#utility.yul\":3607:3627   */\n      tag_120\n        /* \"#utility.yul\":3625:3626   */\n      dup3\n        /* \"#utility.yul\":3607:3627   */\n      tag_69\n      jump\t// in\n    tag_120:\n        /* \"#utility.yul\":3602:3627   */\n      swap2\n      pop\n        /* \"#utility.yul\":3641:3661   */\n      tag_121\n        /* \"#utility.yul\":3659:3660   */\n      dup4\n        /* \"#utility.yul\":3641:3661   */\n      tag_69\n      jump\t// in\n    tag_121:\n        /* \"#utility.yul\":3636:3661   */\n      swap3\n      pop\n        /* \"#utility.yul\":3684:3685   */\n      dup3\n        /* \"#utility.yul\":3681:3682   */\n      dup3\n        /* \"#utility.yul\":3677:3686   */\n      add\n        /* \"#utility.yul\":3670:3686   */\n      swap1\n      pop\n        /* \"#utility.yul\":3705:3708   */\n      dup1\n        /* \"#utility.yul\":3702:3703   */\n      dup3\n        /* \"#utility.yul\":3699:3709   */\n      gt\n        /* \"#utility.yul\":3696:3732   */\n      iszero\n      tag_122\n      jumpi\n        /* \"#utility.yul\":3712:3730   */\n      tag_123\n      tag_80\n      jump\t// in\n    tag_123:\n        /* \"#utility.yul\":3696:3732   */\n    tag_122:\n        /* \"#utility.yul\":3548:3739   */\n      swap3\n      swap2\n      pop\n      pop\n      jump\t// out\n        /* \"#utility.yul\":3745:3939   */\n    tag_50:\n        /* \"#utility.yul\":3785:3789   */\n      0x00\n        /* \"#utility.yul\":3805:3825   */\n      tag_125\n        /* \"#utility.yul\":3823:3824   */\n      dup3\n        /* \"#utility.yul\":3805:3825   */\n      tag_69\n      jump\t// in\n    tag_125:\n        /* \"#utility.yul\":3800:3825   */\n      swap2\n      pop\n        /* \"#utility.yul\":3839:3859   */\n      tag_126\n        /* \"#utility.yul\":3857:3858   */\n      dup4\n        /* \"#utility.yul\":3839:3859   */\n      tag_69\n      jump\t// in\n    tag_126:\n        /* \"#utility.yul\":3834:3859   */\n      swap3\n      pop\n        /* \"#utility.yul\":3883:3884   */\n      dup3\n        /* \"#utility.yul\":3880:3881   */\n      dup3\n        /* \"#utility.yul\":3876:3885   */\n      sub\n        /* \"#utility.yul\":3868:3885   */\n      swap1\n      pop\n        /* \"#utility.yul\":3907:3908   */\n      dup2\n        /* \"#utility.yul\":3901:3905   */\n      dup2\n        /* \"#utility.yul\":3898:3909   */\n      gt\n        /* \"#utility.yul\":3895:3932   */\n      iszero\n      tag_127\n      jumpi\n        /* \"#utility.yul\":3912:3930   */\n      tag_128\n      tag_80\n      jump\t// in\n    tag_128:\n        /* \"#utility.yul\":3895:3932   */\n    tag_127:\n        /* \"#utility.yul\":3745:3939   */\n      swap3\n      swap2\n      pop\n      pop\n      jump\t// out\n\n    auxdata: 0xa264697066735822122081395c09af8ec708883a110e045294c26e2deda2707bbf6605f0e20d0cf772b264736f6c63430008220033\n}\n",
				"bytecode": {
					"linkReferences": {},
					"object": "6080604052348015600e575f5ffd5b5061082a8061001c5f395ff3fe608060405234801561000f575f5ffd5b5060043610610086575f3560e01c806397feba9d1161005957806397feba9d146100fc578063b0fd035b1461011a578063b6b55f2514610136578063d9d897d51461015257610086565b806340f1dc421461008a5780634c738909146100a65780636887a199146100c45780638ab389e6146100e0575b5f5ffd5b6100a4600480360381019061009f9190610611565b610182565b005b6100ae610265565b6040516100bb919061064b565b60405180910390f35b6100de60048036038101906100d99190610611565b6102a9565b005b6100fa60048036038101906100f59190610611565b610351565b005b610104610434565b604051610111919061064b565b60405180910390f35b610134600480360381019061012f9190610611565b610439565b005b610150600480360381019061014b9190610611565b610558565b005b61016c600480360381019061016791906106be565b6105c5565b604051610179919061064b565b60405180910390f35b600a8111156101c6576040517f08c379a00000000000000000000000000000000000000000000000000000000081526004016101bd90610743565b60405180910390fd5b805f546101d3919061078e565b5f819055508060015f3373ffffffffffffffffffffffffffffffffffffffff1673ffffffffffffffffffffffffffffffffffffffff1681526020019081526020015f2054610221919061078e565b60015f3373ffffffffffffffffffffffffffffffffffffffff1673ffffffffffffffffffffffffffffffffffffffff1681526020019081526020015f208190555050565b5f60015f3373ffffffffffffffffffffffffffffffffffffffff1673ffffffffffffffffffffffffffffffffffffffff1681526020019081526020015f2054905090565b8060015f3373ffffffffffffffffffffffffffffffffffffffff1673ffffffffffffffffffffffffffffffffffffffff1681526020019081526020015f205f8282546102f591906107c1565b92505081905550805f5f82825461030c91906107c1565b92505081905550600a81111561034e576040517f2ad907fb00000000000000000000000000000000000000000000000000000000815260040160405180910390fd5b50565b805f5461035e919061078e565b5f819055508060015f3373ffffffffffffffffffffffffffffffffffffffff1673ffffffffffffffffffffffffffffffffffffffff1681526020019081526020015f20546103ac919061078e565b60015f3373ffffffffffffffffffffffffffffffffffffffff1673ffffffffffffffffffffffffffffffffffffffff1681526020019081526020015f2081905550600a811115610431576040517f08c379a000000000000000000000000000000000000000000000000000000000815260040161042890610743565b60405180910390fd5b50565b5f5481565b600a811115610474576040517f2ad907fb00000000000000000000000000000000000000000000000000000000815260040160405180910390fd5b8060015f3373ffffffffffffffffffffffffffffffffffffffff1673ffffffffffffffffffffffffffffffffffffffff1681526020019081526020015f205410156104eb576040517ff4d678b800000000000000000000000000000000000000000000000000000000815260040160405180910390fd5b8060015f3373ffffffffffffffffffffffffffffffffffffffff1673ffffffffffffffffffffffffffffffffffffffff1681526020019081526020015f205f82825461053791906107c1565b92505081905550805f5f82825461054e91906107c1565b9250508190555050565b805f5f828254610568919061078e565b925050819055508060015f3373ffffffffffffffffffffffffffffffffffffffff1673ffffffffffffffffffffffffffffffffffffffff1681526020019081526020015f205f8282546105bb919061078e565b9250508190555050565b6001602052805f5260405f205f915090505481565b5f5ffd5b5f819050919050565b6105f0816105de565b81146105fa575f5ffd5b50565b5f8135905061060b816105e7565b92915050565b5f60208284031215610626576106256105da565b5b5f610633848285016105fd565b91505092915050565b610645816105de565b82525050565b5f60208201905061065e5f83018461063c565b92915050565b5f73ffffffffffffffffffffffffffffffffffffffff82169050919050565b5f61068d82610664565b9050919050565b61069d81610683565b81146106a7575f5ffd5b50565b5f813590506106b881610694565b92915050565b5f602082840312156106d3576106d26105da565b5b5f6106e0848285016106aa565b91505092915050565b5f82825260208201905092915050565b7f56616c756520746f6f206c6172676500000000000000000000000000000000005f82015250565b5f61072d600f836106e9565b9150610738826106f9565b602082019050919050565b5f6020820190508181035f83015261075a81610721565b9050919050565b7f4e487b71000000000000000000000000000000000000000000000000000000005f52601160045260245ffd5b5f610798826105de565b91506107a3836105de565b92508282019050808211156107bb576107ba610761565b5b92915050565b5f6107cb826105de565b91506107d6836105de565b92508282039050818111156107ee576107ed610761565b5b9291505056fea264697066735822122081395c09af8ec708883a110e045294c26e2deda2707bbf6605f0e20d0cf772b264736f6c63430008220033",
					"opcodes": "PUSH1 0x80 PUSH1 0x40 MSTORE CALLVALUE DUP1 ISZERO PUSH1 0xE JUMPI PUSH0 PUSH0 REVERT JUMPDEST POP PUSH2 0x82A DUP1 PUSH2 0x1C PUSH0 CODECOPY PUSH0 RETURN INVALID PUSH1 0x80 PUSH1 0x40 MSTORE CALLVALUE DUP1 ISZERO PUSH2 0xF JUMPI PUSH0 PUSH0 REVERT JUMPDEST POP PUSH1 0x4 CALLDATASIZE LT PUSH2 0x86 JUMPI PUSH0 CALLDATALOAD PUSH1 0xE0 SHR DUP1 PUSH4 0x97FEBA9D GT PUSH2 0x59 JUMPI DUP1 PUSH4 0x97FEBA9D EQ PUSH2 0xFC JUMPI DUP1 PUSH4 0xB0FD035B EQ PUSH2 0x11A JUMPI DUP1 PUSH4 0xB6B55F25 EQ PUSH2 0x136 JUMPI DUP1 PUSH4 0xD9D897D5 EQ PUSH2 0x152 JUMPI PUSH2 0x86 JUMP JUMPDEST DUP1 PUSH4 0x40F1DC42 EQ PUSH2 0x8A JUMPI DUP1 PUSH4 0x4C738909 EQ PUSH2 0xA6 JUMPI DUP1 PUSH4 0x6887A199 EQ PUSH2 0xC4 JUMPI DUP1 PUSH4 0x8AB389E6 EQ PUSH2 0xE0 JUMPI JUMPDEST PUSH0 PUSH0 REVERT JUMPDEST PUSH2 0xA4 PUSH1 0x4 DUP1 CALLDATASIZE SUB DUP2 ADD SWAP1 PUSH2 0x9F SWAP2 SWAP1 PUSH2 0x611 JUMP JUMPDEST PUSH2 0x182 JUMP JUMPDEST STOP JUMPDEST PUSH2 0xAE PUSH2 0x265 JUMP JUMPDEST PUSH1 0x40 MLOAD PUSH2 0xBB SWAP2 SWAP1 PUSH2 0x64B JUMP JUMPDEST PUSH1 0x40 MLOAD DUP1 SWAP2 SUB SWAP1 RETURN JUMPDEST PUSH2 0xDE PUSH1 0x4 DUP1 CALLDATASIZE SUB DUP2 ADD SWAP1 PUSH2 0xD9 SWAP2 SWAP1 PUSH2 0x611 JUMP JUMPDEST PUSH2 0x2A9 JUMP JUMPDEST STOP JUMPDEST PUSH2 0xFA PUSH1 0x4 DUP1 CALLDATASIZE SUB DUP2 ADD SWAP1 PUSH2 0xF5 SWAP2 SWAP1 PUSH2 0x611 JUMP JUMPDEST PUSH2 0x351 JUMP JUMPDEST STOP JUMPDEST PUSH2 0x104 PUSH2 0x434 JUMP JUMPDEST PUSH1 0x40 MLOAD PUSH2 0x111 SWAP2 SWAP1 PUSH2 0x64B JUMP JUMPDEST PUSH1 0x40 MLOAD DUP1 SWAP2 SUB SWAP1 RETURN JUMPDEST PUSH2 0x134 PUSH1 0x4 DUP1 CALLDATASIZE SUB DUP2 ADD SWAP1 PUSH2 0x12F SWAP2 SWAP1 PUSH2 0x611 JUMP JUMPDEST PUSH2 0x439 JUMP JUMPDEST STOP JUMPDEST PUSH2 0x150 PUSH1 0x4 DUP1 CALLDATASIZE SUB DUP2 ADD SWAP1 PUSH2 0x14B SWAP2 SWAP1 PUSH2 0x611 JUMP JUMPDEST PUSH2 0x558 JUMP JUMPDEST STOP JUMPDEST PUSH2 0x16C PUSH1 0x4 DUP1 CALLDATASIZE SUB DUP2 ADD SWAP1 PUSH2 0x167 SWAP2 SWAP1 PUSH2 0x6BE JUMP JUMPDEST PUSH2 0x5C5 JUMP JUMPDEST PUSH1 0x40 MLOAD PUSH2 0x179 SWAP2 SWAP1 PUSH2 0x64B JUMP JUMPDEST PUSH1 0x40 MLOAD DUP1 SWAP2 SUB SWAP1 RETURN JUMPDEST PUSH1 0xA DUP2 GT ISZERO PUSH2 0x1C6 JUMPI PUSH1 0x40 MLOAD PUSH32 0x8C379A000000000000000000000000000000000000000000000000000000000 DUP2 MSTORE PUSH1 0x4 ADD PUSH2 0x1BD SWAP1 PUSH2 0x743 JUMP JUMPDEST PUSH1 0x40 MLOAD DUP1 SWAP2 SUB SWAP1 REVERT JUMPDEST DUP1 PUSH0 SLOAD PUSH2 0x1D3 SWAP2 SWAP1 PUSH2 0x78E JUMP JUMPDEST PUSH0 DUP2 SWAP1 SSTORE POP DUP1 PUSH1 0x1 PUSH0 CALLER PUSH20 0xFFFFFFFFFFFFFFFFFFFFFFFFFFFFFFFFFFFFFFFF AND PUSH20 0xFFFFFFFFFFFFFFFFFFFFFFFFFFFFFFFFFFFFFFFF AND DUP2 MSTORE PUSH1 0x20 ADD SWAP1 DUP2 MSTORE PUSH1 0x20 ADD PUSH0 KECCAK256 SLOAD PUSH2 0x221 SWAP2 SWAP1 PUSH2 0x78E JUMP JUMPDEST PUSH1 0x1 PUSH0 CALLER PUSH20 0xFFFFFFFFFFFFFFFFFFFFFFFFFFFFFFFFFFFFFFFF AND PUSH20 0xFFFFFFFFFFFFFFFFFFFFFFFFFFFFFFFFFFFFFFFF AND DUP2 MSTORE PUSH1 0x20 ADD SWAP1 DUP2 MSTORE PUSH1 0x20 ADD PUSH0 KECCAK256 DUP2 SWAP1 SSTORE POP POP JUMP JUMPDEST PUSH0 PUSH1 0x1 PUSH0 CALLER PUSH20 0xFFFFFFFFFFFFFFFFFFFFFFFFFFFFFFFFFFFFFFFF AND PUSH20 0xFFFFFFFFFFFFFFFFFFFFFFFFFFFFFFFFFFFFFFFF AND DUP2 MSTORE PUSH1 0x20 ADD SWAP1 DUP2 MSTORE PUSH1 0x20 ADD PUSH0 KECCAK256 SLOAD SWAP1 POP SWAP1 JUMP JUMPDEST DUP1 PUSH1 0x1 PUSH0 CALLER PUSH20 0xFFFFFFFFFFFFFFFFFFFFFFFFFFFFFFFFFFFFFFFF AND PUSH20 0xFFFFFFFFFFFFFFFFFFFFFFFFFFFFFFFFFFFFFFFF AND DUP2 MSTORE PUSH1 0x20 ADD SWAP1 DUP2 MSTORE PUSH1 0x20 ADD PUSH0 KECCAK256 PUSH0 DUP3 DUP3 SLOAD PUSH2 0x2F5 SWAP2 SWAP1 PUSH2 0x7C1 JUMP JUMPDEST SWAP3 POP POP DUP2 SWAP1 SSTORE POP DUP1 PUSH0 PUSH0 DUP3 DUP3 SLOAD PUSH2 0x30C SWAP2 SWAP1 PUSH2 0x7C1 JUMP JUMPDEST SWAP3 POP POP DUP2 SWAP1 SSTORE POP PUSH1 0xA DUP2 GT ISZERO PUSH2 0x34E JUMPI PUSH1 0x40 MLOAD PUSH32 0x2AD907FB00000000000000000000000000000000000000000000000000000000 DUP2 MSTORE PUSH1 0x4 ADD PUSH1 0x40 MLOAD DUP1 SWAP2 SUB SWAP1 REVERT JUMPDEST POP JUMP JUMPDEST DUP1 PUSH0 SLOAD PUSH2 0x35E SWAP2 SWAP1 PUSH2 0x78E JUMP JUMPDEST PUSH0 DUP2 SWAP1 SSTORE POP DUP1 PUSH1 0x1 PUSH0 CALLER PUSH20 0xFFFFFFFFFFFFFFFFFFFFFFFFFFFFFFFFFFFFFFFF AND PUSH20 0xFFFFFFFFFFFFFFFFFFFFFFFFFFFFFFFFFFFFFFFF AND DUP2 MSTORE PUSH1 0x20 ADD SWAP1 DUP2 MSTORE PUSH1 0x20 ADD PUSH0 KECCAK256 SLOAD PUSH2 0x3AC SWAP2 SWAP1 PUSH2 0x78E JUMP JUMPDEST PUSH1 0x1 PUSH0 CALLER PUSH20 0xFFFFFFFFFFFFFFFFFFFFFFFFFFFFFFFFFFFFFFFF AND PUSH20 0xFFFFFFFFFFFFFFFFFFFFFFFFFFFFFFFFFFFFFFFF AND DUP2 MSTORE PUSH1 0x20 ADD SWAP1 DUP2 MSTORE PUSH1 0x20 ADD PUSH0 KECCAK256 DUP2 SWAP1 SSTORE POP PUSH1 0xA DUP2 GT ISZERO PUSH2 0x431 JUMPI PUSH1 0x40 MLOAD PUSH32 0x8C379A000000000000000000000000000000000000000000000000000000000 DUP2 MSTORE PUSH1 0x4 ADD PUSH2 0x428 SWAP1 PUSH2 0x743 JUMP JUMPDEST PUSH1 0x40 MLOAD DUP1 SWAP2 SUB SWAP1 REVERT JUMPDEST POP JUMP JUMPDEST PUSH0 SLOAD DUP2 JUMP JUMPDEST PUSH1 0xA DUP2 GT ISZERO PUSH2 0x474 JUMPI PUSH1 0x40 MLOAD PUSH32 0x2AD907FB00000000000000000000000000000000000000000000000000000000 DUP2 MSTORE PUSH1 0x4 ADD PUSH1 0x40 MLOAD DUP1 SWAP2 SUB SWAP1 REVERT JUMPDEST DUP1 PUSH1 0x1 PUSH0 CALLER PUSH20 0xFFFFFFFFFFFFFFFFFFFFFFFFFFFFFFFFFFFFFFFF AND PUSH20 0xFFFFFFFFFFFFFFFFFFFFFFFFFFFFFFFFFFFFFFFF AND DUP2 MSTORE PUSH1 0x20 ADD SWAP1 DUP2 MSTORE PUSH1 0x20 ADD PUSH0 KECCAK256 SLOAD LT ISZERO PUSH2 0x4EB JUMPI PUSH1 0x40 MLOAD PUSH32 0xF4D678B800000000000000000000000000000000000000000000000000000000 DUP2 MSTORE PUSH1 0x4 ADD PUSH1 0x40 MLOAD DUP1 SWAP2 SUB SWAP1 REVERT JUMPDEST DUP1 PUSH1 0x1 PUSH0 CALLER PUSH20 0xFFFFFFFFFFFFFFFFFFFFFFFFFFFFFFFFFFFFFFFF AND PUSH20 0xFFFFFFFFFFFFFFFFFFFFFFFFFFFFFFFFFFFFFFFF AND DUP2 MSTORE PUSH1 0x20 ADD SWAP1 DUP2 MSTORE PUSH1 0x20 ADD PUSH0 KECCAK256 PUSH0 DUP3 DUP3 SLOAD PUSH2 0x537 SWAP2 SWAP1 PUSH2 0x7C1 JUMP JUMPDEST SWAP3 POP POP DUP2 SWAP1 SSTORE POP DUP1 PUSH0 PUSH0 DUP3 DUP3 SLOAD PUSH2 0x54E SWAP2 SWAP1 PUSH2 0x7C1 JUMP JUMPDEST SWAP3 POP POP DUP2 SWAP1 SSTORE POP POP JUMP JUMPDEST DUP1 PUSH0 PUSH0 DUP3 DUP3 SLOAD PUSH2 0x568 SWAP2 SWAP1 PUSH2 0x78E JUMP JUMPDEST SWAP3 POP POP DUP2 SWAP1 SSTORE POP DUP1 PUSH1 0x1 PUSH0 CALLER PUSH20 0xFFFFFFFFFFFFFFFFFFFFFFFFFFFFFFFFFFFFFFFF AND PUSH20 0xFFFFFFFFFFFFFFFFFFFFFFFFFFFFFFFFFFFFFFFF AND DUP2 MSTORE PUSH1 0x20 ADD SWAP1 DUP2 MSTORE PUSH1 0x20 ADD PUSH0 KECCAK256 PUSH0 DUP3 DUP3 SLOAD PUSH2 0x5BB SWAP2 SWAP1 PUSH2 0x78E JUMP JUMPDEST SWAP3 POP POP DUP2 SWAP1 SSTORE POP POP JUMP JUMPDEST PUSH1 0x1 PUSH1 0x20 MSTORE DUP1 PUSH0 MSTORE PUSH1 0x40 PUSH0 KECCAK256 PUSH0 SWAP2 POP SWAP1 POP SLOAD DUP2 JUMP JUMPDEST PUSH0 PUSH0 REVERT JUMPDEST PUSH0 DUP2 SWAP1 POP SWAP2 SWAP1 POP JUMP JUMPDEST PUSH2 0x5F0 DUP2 PUSH2 0x5DE JUMP JUMPDEST DUP2 EQ PUSH2 0x5FA JUMPI PUSH0 PUSH0 REVERT JUMPDEST POP JUMP JUMPDEST PUSH0 DUP2 CALLDATALOAD SWAP1 POP PUSH2 0x60B DUP2 PUSH2 0x5E7 JUMP JUMPDEST SWAP3 SWAP2 POP POP JUMP JUMPDEST PUSH0 PUSH1 0x20 DUP3 DUP5 SUB SLT ISZERO PUSH2 0x626 JUMPI PUSH2 0x625 PUSH2 0x5DA JUMP JUMPDEST JUMPDEST PUSH0 PUSH2 0x633 DUP5 DUP3 DUP6 ADD PUSH2 0x5FD JUMP JUMPDEST SWAP2 POP POP SWAP3 SWAP2 POP POP JUMP JUMPDEST PUSH2 0x645 DUP2 PUSH2 0x5DE JUMP JUMPDEST DUP3 MSTORE POP POP JUMP JUMPDEST PUSH0 PUSH1 0x20 DUP3 ADD SWAP1 POP PUSH2 0x65E PUSH0 DUP4 ADD DUP5 PUSH2 0x63C JUMP JUMPDEST SWAP3 SWAP2 POP POP JUMP JUMPDEST PUSH0 PUSH20 0xFFFFFFFFFFFFFFFFFFFFFFFFFFFFFFFFFFFFFFFF DUP3 AND SWAP1 POP SWAP2 SWAP1 POP JUMP JUMPDEST PUSH0 PUSH2 0x68D DUP3 PUSH2 0x664 JUMP JUMPDEST SWAP1 POP SWAP2 SWAP1 POP JUMP JUMPDEST PUSH2 0x69D DUP2 PUSH2 0x683 JUMP JUMPDEST DUP2 EQ PUSH2 0x6A7 JUMPI PUSH0 PUSH0 REVERT JUMPDEST POP JUMP JUMPDEST PUSH0 DUP2 CALLDATALOAD SWAP1 POP PUSH2 0x6B8 DUP2 PUSH2 0x694 JUMP JUMPDEST SWAP3 SWAP2 POP POP JUMP JUMPDEST PUSH0 PUSH1 0x20 DUP3 DUP5 SUB SLT ISZERO PUSH2 0x6D3 JUMPI PUSH2 0x6D2 PUSH2 0x5DA JUMP JUMPDEST JUMPDEST PUSH0 PUSH2 0x6E0 DUP5 DUP3 DUP6 ADD PUSH2 0x6AA JUMP JUMPDEST SWAP2 POP POP SWAP3 SWAP2 POP POP JUMP JUMPDEST PUSH0 DUP3 DUP3 MSTORE PUSH1 0x20 DUP3 ADD SWAP1 POP SWAP3 SWAP2 POP POP JUMP JUMPDEST PUSH32 0x56616C756520746F6F206C617267650000000000000000000000000000000000 PUSH0 DUP3 ADD MSTORE POP JUMP JUMPDEST PUSH0 PUSH2 0x72D PUSH1 0xF DUP4 PUSH2 0x6E9 JUMP JUMPDEST SWAP2 POP PUSH2 0x738 DUP3 PUSH2 0x6F9 JUMP JUMPDEST PUSH1 0x20 DUP3 ADD SWAP1 POP SWAP2 SWAP1 POP JUMP JUMPDEST PUSH0 PUSH1 0x20 DUP3 ADD SWAP1 POP DUP2 DUP2 SUB PUSH0 DUP4 ADD MSTORE PUSH2 0x75A DUP2 PUSH2 0x721 JUMP JUMPDEST SWAP1 POP SWAP2 SWAP1 POP JUMP JUMPDEST PUSH32 0x4E487B7100000000000000000000000000000000000000000000000000000000 PUSH0 MSTORE PUSH1 0x11 PUSH1 0x4 MSTORE PUSH1 0x24 PUSH0 REVERT JUMPDEST PUSH0 PUSH2 0x798 DUP3 PUSH2 0x5DE JUMP JUMPDEST SWAP2 POP PUSH2 0x7A3 DUP4 PUSH2 0x5DE JUMP JUMPDEST SWAP3 POP DUP3 DUP3 ADD SWAP1 POP DUP1 DUP3 GT ISZERO PUSH2 0x7BB JUMPI PUSH2 0x7BA PUSH2 0x761 JUMP JUMPDEST JUMPDEST SWAP3 SWAP2 POP POP JUMP JUMPDEST PUSH0 PUSH2 0x7CB DUP3 PUSH2 0x5DE JUMP JUMPDEST SWAP2 POP PUSH2 0x7D6 DUP4 PUSH2 0x5DE JUMP JUMPDEST SWAP3 POP DUP3 DUP3 SUB SWAP1 POP DUP2 DUP2 GT ISZERO PUSH2 0x7EE JUMPI PUSH2 0x7ED PUSH2 0x761 JUMP JUMPDEST JUMPDEST SWAP3 SWAP2 POP POP JUMP INVALID LOG2 PUSH5 0x6970667358 0x22 SLT KECCAK256 DUP2 CODECOPY TLOAD MULMOD 0xAF DUP15 0xC7 ADDMOD DUP9 GASPRICE GT 0xE DIV MSTORE SWAP5 0xC2 PUSH15 0x2DEDA2707BBF6605F0E20D0CF772B2 PUSH5 0x736F6C6343 STOP ADDMOD 0x22 STOP CALLER "
				},
				"gasEstimates": {
					"creation": {
						"codeDepositCost": "418000",
						"executionCost": "453",
						"totalCost": "418453"
					},
					"external": {
						"deposit(uint256)": "infinite",
						"getMyBalance()": "2542",
						"riskyIncrement(uint256)": "infinite",
						"riskyWithdraw(uint256)": "infinite",
						"safeIncrement(uint256)": "infinite",
						"safeWithdraw(uint256)": "infinite",
						"totalCounter()": "2424",
						"userCounter(address)": "2868"
					}
				},
				"methodIdentifiers": {
					"deposit(uint256)": "b6b55f25",
					"getMyBalance()": "4c738909",
					"riskyIncrement(uint256)": "8ab389e6",
					"riskyWithdraw(uint256)": "6887a199",
					"safeIncrement(uint256)": "40f1dc42",
					"safeWithdraw(uint256)": "b0fd035b",
					"totalCounter()": "97feba9d",
					"userCounter(address)": "d9d897d5"
				}
			},
			"storageLayout": {
				"storage": [
					{
						"astId": 72,
						"contract": "val37.sol:StateRollbackBehavior",
						"label": "totalCounter",
						"offset": 0,
						"slot": "0",
						"type": "t_uint256"
					},
					{
						"astId": 76,
						"contract": "val37.sol:StateRollbackBehavior",
						"label": "userCounter",
						"offset": 0,
						"slot": "1",
						"type": "t_mapping(t_address,t_uint256)"
					}
				],
				"types": {
					"t_address": {
						"encoding": "inplace",
						"label": "address",
						"numberOfBytes": "20"
					},
					"t_mapping(t_address,t_uint256)": {
						"encoding": "mapping",
						"key": "t_address",
						"label": "mapping(address => uint256)",
						"numberOfBytes": "32",
						"value": "t_uint256"
					},
					"t_uint256": {
						"encoding": "inplace",
						"label": "uint256",
						"numberOfBytes": "32"
					}
				}
			},
			"userdoc": {
				"kind": "user",
				"methods": {},
				"version": 1
			}
		}
	}
}