{
	"val3.sol": {
		"StoreAddressvul": {
			"abi": [
				{
					"inputs": [],
					"name": "getAddress",
					"outputs": [
						{
							"internalType": "address",
							"name": "",
							"type": "address"
						}
					],
					"stateMutability": "view",
					"type": "function"
				},
				{
					"inputs": [
						{
							"internalType": "address",
							"name": "_newAddress",
							"type": "address"
						}
					],
					"name": "storeAddress",
					"outputs": [],
					"stateMutability": "nonpayable",
					"type": "function"
				},
				{
					"inputs": [],
					"name": "userAddress",
					"outputs": [
						{
							"internalType": "address",
							"name": "",
							"type": "address"
						}
					],
					"stateMutability": "view",
					"type": "function"
				}
			],
			"devdoc": {
				"kind": "dev",
				"methods": {},
				"version": 1
			},
			"evm": {
				"assembly": "    /* \"val3.sol\":1508:1771  contract StoreAddressvul {... */\n  mstore(0x40, 0x80)\n  callvalue\n  dup1\n  iszero\n  tag_1\n  jumpi\n  revert(0x00, 0x00)\ntag_1:\n  pop\n  dataSize(sub_0)\n  dup1\n  dataOffset(sub_0)\n  0x00\n  codecopy\n  0x00\n  return\nstop\n\nsub_0: assembly {\n        /* \"val3.sol\":1508:1771  contract StoreAddressvul {... */\n      mstore(0x40, 0x80)\n      callvalue\n      dup1\n      iszero\n      tag_1\n      jumpi\n      revert(0x00, 0x00)\n    tag_1:\n      pop\n      jumpi(tag_2, lt(calldatasize, 0x04))\n      shr(0xe0, calldataload(0x00))\n      dup1\n      0x38cc4831\n      eq\n      tag_3\n      jumpi\n      dup1\n      0x7128666b\n      eq\n      tag_4\n      jumpi\n      dup1\n      0xe4128fb3\n      eq\n      tag_5\n      jumpi\n    tag_2:\n      revert(0x00, 0x00)\n        /* \"val3.sol\":1679:1768  function getAddress() public view returns (address) {... */\n    tag_3:\n      tag_6\n      tag_7\n      jump\t// in\n    tag_6:\n      mload(0x40)\n      tag_8\n      swap2\n      swap1\n      tag_9\n      jump\t// in\n    tag_8:\n      mload(0x40)\n      dup1\n      swap2\n      sub\n      swap1\n      return\n        /* \"val3.sol\":1577:1671  function storeAddress(address _newAddress) public {... */\n    tag_4:\n      tag_10\n      0x04\n      dup1\n      calldatasize\n      sub\n      dup2\n      add\n      swap1\n      tag_11\n      swap2\n      swap1\n      tag_12\n      jump\t// in\n    tag_11:\n      tag_13\n      jump\t// in\n    tag_10:\n      stop\n        /* \"val3.sol\":1542:1568  address public userAddress */\n    tag_5:\n      tag_14\n      tag_15\n      jump\t// in\n    tag_14:\n      mload(0x40)\n      tag_16\n      swap2\n      swap1\n      tag_9\n      jump\t// in\n    tag_16:\n      mload(0x40)\n      dup1\n      swap2\n      sub\n      swap1\n      return\n        /* \"val3.sol\":1679:1768  function getAddress() public view returns (address) {... */\n    tag_7:\n        /* \"val3.sol\":1722:1729  address */\n      0x00\n        /* \"val3.sol\":1749:1760  userAddress */\n      0x00\n      0x00\n      swap1\n      sload\n      swap1\n      0x0100\n      exp\n      swap1\n      div\n      0xffffffffffffffffffffffffffffffffffffffff\n      and\n        /* \"val3.sol\":1742:1760  return userAddress */\n      swap1\n      pop\n        /* \"val3.sol\":1679:1768  function getAddress() public view returns (address) {... */\n      swap1\n      jump\t// out\n        /* \"val3.sol\":1577:1671  function storeAddress(address _newAddress) public {... */\n    tag_13:\n        /* \"val3.sol\":1652:1663  _newAddress */\n      dup1\n        /* \"val3.sol\":1638:1649  userAddress */\n      0x00\n      0x00\n        /* \"val3.sol\":1638:1663  userAddress = _newAddress */\n      0x0100\n      exp\n      dup2\n      sload\n      dup2\n      0xffffffffffffffffffffffffffffffffffffffff\n      mul\n      not\n      and\n      swap1\n      dup4\n      0xffffffffffffffffffffffffffffffffffffffff\n      and\n      mul\n      or\n      swap1\n      sstore\n      pop\n        /* \"val3.sol\":1577:1671  function storeAddress(address _newAddress) public {... */\n      pop\n      jump\t// out\n        /* \"val3.sol\":1542:1568  address public userAddress */\n    tag_15:\n      0x00\n      0x00\n      swap1\n      sload\n      swap1\n      0x0100\n      exp\n      swap1\n      div\n      0xffffffffffffffffffffffffffffffffffffffff\n      and\n      dup2\n      jump\t// out\n        /* \"#utility.yul\":7:133   */\n    tag_19:\n        /* \"#utility.yul\":44:51   */\n      0x00\n        /* \"#utility.yul\":84:126   */\n      0xffffffffffffffffffffffffffffffffffffffff\n        /* \"#utility.yul\":77:82   */\n      dup3\n        /* \"#utility.yul\":73:127   */\n      and\n        /* \"#utility.yul\":62:127   */\n      swap1\n      pop\n        /* \"#utility.yul\":7:133   */\n      swap2\n      swap1\n      pop\n      jump\t// out\n        /* \"#utility.yul\":139:235   */\n    tag_20:\n        /* \"#utility.yul\":176:183   */\n      0x00\n        /* \"#utility.yul\":205:229   */\n      tag_30\n        /* \"#utility.yul\":223:228   */\n      dup3\n        /* \"#utility.yul\":205:229   */\n      tag_19\n      jump\t// in\n    tag_30:\n        /* \"#utility.yul\":194:229   */\n      swap1\n      pop\n        /* \"#utility.yul\":139:235   */\n      swap2\n      swap1\n      pop\n      jump\t// out\n        /* \"#utility.yul\":241:359   */\n    tag_21:\n        /* \"#utility.yul\":328:352   */\n      tag_32\n        /* \"#utility.yul\":346:351   */\n      dup2\n        /* \"#utility.yul\":328:352   */\n      tag_20\n      jump\t// in\n    tag_32:\n        /* \"#utility.yul\":323:326   */\n      dup3\n        /* \"#utility.yul\":316:353   */\n      mstore\n        /* \"#utility.yul\":241:359   */\n      pop\n      pop\n      jump\t// out\n        /* \"#utility.yul\":365:587   */\n    tag_9:\n        /* \"#utility.yul\":458:462   */\n      0x00\n        /* \"#utility.yul\":496:498   */\n      0x20\n        /* \"#utility.yul\":485:494   */\n      dup3\n        /* \"#utility.yul\":481:499   */\n      add\n        /* \"#utility.yul\":473:499   */\n      swap1\n      pop\n        /* \"#utility.yul\":509:580   */\n      tag_34\n        /* \"#utility.yul\":577:578   */\n      0x00\n        /* \"#utility.yul\":566:575   */\n      dup4\n        /* \"#utility.yul\":562:579   */\n      add\n        /* \"#utility.yul\":553:559   */\n      dup5\n        /* \"#utility.yul\":509:580   */\n      tag_21\n      jump\t// in\n    tag_34:\n        /* \"#utility.yul\":365:587   */\n      swap3\n      swap2\n      pop\n      pop\n      jump\t// out\n        /* \"#utility.yul\":674:791   */\n    tag_23:\n        /* \"#utility.yul\":783:784   */\n      0x00\n        /* \"#utility.yul\":780:781   */\n      0x00\n        /* \"#utility.yul\":773:785   */\n      revert\n        /* \"#utility.yul\":920:1042   */\n    tag_25:\n        /* \"#utility.yul\":993:1017   */\n      tag_39\n        /* \"#utility.yul\":1011:1016   */\n      dup2\n        /* \"#utility.yul\":993:1017   */\n      tag_20\n      jump\t// in\n    tag_39:\n        /* \"#utility.yul\":986:991   */\n      dup2\n        /* \"#utility.yul\":983:1018   */\n      eq\n        /* \"#utility.yul\":973:1036   */\n      tag_40\n      jumpi\n        /* \"#utility.yul\":1032:1033   */\n      0x00\n        /* \"#utility.yul\":1029:1030   */\n      0x00\n        /* \"#utility.yul\":1022:1034   */\n      revert\n        /* \"#utility.yul\":973:1036   */\n    tag_40:\n        /* \"#utility.yul\":920:1042   */\n      pop\n      jump\t// out\n        /* \"#utility.yul\":1048:1187   */\n    tag_26:\n        /* \"#utility.yul\":1094:1099   */\n      0x00\n        /* \"#utility.yul\":1132:1138   */\n      dup2\n        /* \"#utility.yul\":1119:1139   */\n      calldataload\n        /* \"#utility.yul\":1110:1139   */\n      swap1\n      pop\n        /* \"#utility.yul\":1148:1181   */\n      tag_42\n        /* \"#utility.yul\":1175:1180   */\n      dup2\n        /* \"#utility.yul\":1148:1181   */\n      tag_25\n      jump\t// in\n    tag_42:\n        /* \"#utility.yul\":1048:1187   */\n      swap3\n      swap2\n      pop\n      pop\n      jump\t// out\n        /* \"#utility.yul\":1193:1522   */\n    tag_12:\n        /* \"#utility.yul\":1252:1258   */\n      0x00\n        /* \"#utility.yul\":1301:1303   */\n      0x20\n        /* \"#utility.yul\":1289:1298   */\n      dup3\n        /* \"#utility.yul\":1280:1287   */\n      dup5\n        /* \"#utility.yul\":1276:1299   */\n      sub\n        /* \"#utility.yul\":1272:1304   */\n      slt\n        /* \"#utility.yul\":1269:1388   */\n      iszero\n      tag_44\n      jumpi\n        /* \"#utility.yul\":1307:1386   */\n      tag_45\n      tag_23\n      jump\t// in\n    tag_45:\n        /* \"#utility.yul\":1269:1388   */\n    tag_44:\n        /* \"#utility.yul\":1427:1428   */\n      0x00\n        /* \"#utility.yul\":1452:1505   */\n      tag_46\n        /* \"#utility.yul\":1497:1504   */\n      dup5\n        /* \"#utility.yul\":1488:1494   */\n      dup3\n        /* \"#utility.yul\":1477:1486   */\n      dup6\n        /* \"#utility.yul\":1473:1495   */\n      add\n        /* \"#utility.yul\":1452:1505   */\n      tag_26\n      jump\t// in\n    tag_46:\n        /* \"#utility.yul\":1442:1505   */\n      swap2\n      pop\n        /* \"#utility.yul\":1398:1515   */\n      pop\n        /* \"#utility.yul\":1193:1522   */\n      swap3\n      swap2\n      pop\n      pop\n      jump\t// out\n\n    auxdata: 0xa264697066735822122081fcab023afa06275a896dca7b81f578b08891ae540f54d42d5a745f3e064ebf64736f6c63430008220033\n}\n",
				"bytecode": {
					"linkReferences": {},
					"object": "6080604052348015600e575f5ffd5b5061020f8061001c5f395ff3fe608060405234801561000f575f5ffd5b506004361061003f575f3560e01c806338cc4831146100435780637128666b14610061578063e4128fb31461007d575b5f5ffd5b61004b61009b565b6040516100589190610167565b60405180910390f35b61007b600480360381019061007691906101ae565b6100c2565b005b610085610104565b6040516100929190610167565b60405180910390f35b5f5f5f9054906101000a900473ffffffffffffffffffffffffffffffffffffffff16905090565b805f5f6101000a81548173ffffffffffffffffffffffffffffffffffffffff021916908373ffffffffffffffffffffffffffffffffffffffff16021790555050565b5f5f9054906101000a900473ffffffffffffffffffffffffffffffffffffffff1681565b5f73ffffffffffffffffffffffffffffffffffffffff82169050919050565b5f61015182610128565b9050919050565b61016181610147565b82525050565b5f60208201905061017a5f830184610158565b92915050565b5f5ffd5b61018d81610147565b8114610197575f5ffd5b50565b5f813590506101a881610184565b92915050565b5f602082840312156101c3576101c2610180565b5b5f6101d08482850161019a565b9150509291505056fea264697066735822122081fcab023afa06275a896dca7b81f578b08891ae540f54d42d5a745f3e064ebf64736f6c63430008220033",
					"opcodes": "PUSH1 0x80 PUSH1 0x40 MSTORE CALLVALUE DUP1 ISZERO PUSH1 0xE JUMPI PUSH0 PUSH0 REVERT JUMPDEST POP PUSH2 0x20F DUP1 PUSH2 0x1C PUSH0 CODECOPY PUSH0 RETURN INVALID PUSH1 0x80 PUSH1 0x40 MSTORE CALLVALUE DUP1 ISZERO PUSH2 0xF JUMPI PUSH0 PUSH0 REVERT JUMPDEST POP PUSH1 0x4 CALLDATASIZE LT PUSH2 0x3F JUMPI PUSH0 CALLDATALOAD PUSH1 0xE0 SHR DUP1 PUSH4 0x38CC4831 EQ PUSH2 0x43 JUMPI DUP1 PUSH4 0x7128666B EQ PUSH2 0x61 JUMPI DUP1 PUSH4 0xE4128FB3 EQ PUSH2 0x7D JUMPI JUMPDEST PUSH0 PUSH0 REVERT JUMPDEST PUSH2 0x4B PUSH2 0x9B JUMP JUMPDEST PUSH1 0x40 MLOAD PUSH2 0x58 SWAP2 SWAP1 PUSH2 0x167 JUMP JUMPDEST PUSH1 0x40 MLOAD DUP1 SWAP2 SUB SWAP1 RETURN JUMPDEST PUSH2 0x7B PUSH1 0x4 DUP1 CALLDATASIZE SUB DUP2 ADD SWAP1 PUSH2 0x76 SWAP2 SWAP1 PUSH2 0x1AE JUMP JUMPDEST PUSH2 0xC2 JUMP JUMPDEST STOP JUMPDEST PUSH2 0x85 PUSH2 0x104 JUMP JUMPDEST PUSH1 0x40 MLOAD PUSH2 0x92 SWAP2 SWAP1 PUSH2 0x167 JUMP JUMPDEST PUSH1 0x40 MLOAD DUP1 SWAP2 SUB SWAP1 RETURN JUMPDEST PUSH0 PUSH0 PUSH0 SWAP1 SLOAD SWAP1 PUSH2 0x100 EXP SWAP1 DIV PUSH20 0xFFFFFFFFFFFFFFFFFFFFFFFFFFFFFFFFFFFFFFFF AND SWAP1 POP SWAP1 JUMP JUMPDEST DUP1 PUSH0 PUSH0 PUSH2 0x100 EXP DUP2 SLOAD DUP2 PUSH20 0xFFFFFFFFFFFFFFFFFFFFFFFFFFFFFFFFFFFFFFFF MUL NOT AND SWAP1 DUP4 PUSH20 0xFFFFFFFFFFFFFFFFFFFFFFFFFFFFFFFFFFFFFFFF AND MUL OR SWAP1 SSTORE POP POP JUMP JUMPDEST PUSH0 PUSH0 SWAP1 SLOAD SWAP1 PUSH2 0x100 EXP SWAP1 DIV PUSH20 0xFFFFFFFFFFFFFFFFFFFFFFFFFFFFFFFFFFFFFFFF AND DUP2 JUMP JUMPDEST PUSH0 PUSH20 0xFFFFFFFFFFFFFFFFFFFFFFFFFFFFFFFFFFFFFFFF DUP3 AND SWAP1 POP SWAP2 SWAP1 POP JUMP JUMPDEST PUSH0 PUSH2 0x151 DUP3 PUSH2 0x128 JUMP JUMPDEST SWAP1 POP SWAP2 SWAP1 POP JUMP JUMPDEST PUSH2 0x161 DUP2 PUSH2 0x147 JUMP JUMPDEST DUP3 MSTORE POP POP JUMP JUMPDEST PUSH0 PUSH1 0x20 DUP3 ADD SWAP1 POP PUSH2 0x17A PUSH0 DUP4 ADD DUP5 PUSH2 0x158 JUMP JUMPDEST SWAP3 SWAP2 POP POP JUMP JUMPDEST PUSH0 PUSH0 REVERT JUMPDEST PUSH2 0x18D DUP2 PUSH2 0x147 JUMP JUMPDEST DUP2 EQ PUSH2 0x197 JUMPI PUSH0 PUSH0 REVERT JUMPDEST POP JUMP JUMPDEST PUSH0 DUP2 CALLDATALOAD SWAP1 POP PUSH2 0x1A8 DUP2 PUSH2 0x184 JUMP JUMPDEST SWAP3 SWAP2 POP POP JUMP JUMPDEST PUSH0 PUSH1 0x20 DUP3 DUP5 SUB SLT ISZERO PUSH2 0x1C3 JUMPI PUSH2 0x1C2 PUSH2 0x180 JUMP JUMPDEST JUMPDEST PUSH0 PUSH2 0x1D0 DUP5 DUP3 DUP6 ADD PUSH2 0x19A JUMP JUMPDEST SWAP2 POP POP SWAP3 SWAP2 POP POP JUMP INVALID LOG2 PUSH5 0x6970667358 0x22 SLT KECCAK256 DUP2 0xFC 0xAB MUL GASPRICE STATICCALL MOD 0x27 GAS DUP10 PUSH14 0xCA7B81F578B08891AE540F54D42D GAS PUSH21 0x5F3E064EBF64736F6C634300082200330000000000 "
				},
				"gasEstimates": {
					"creation": {
						"codeDepositCost": "105400",
						"executionCost": "151",
						"totalCost": "105551"
					},
					"external": {
						"getAddress()": "2492",
						"storeAddress(address)": "24714",
						"userAddress()": "2529"
					}
				},
				"methodIdentifiers": {
					"getAddress()": "38cc4831",
					"storeAddress(address)": "7128666b",
					"userAddress()": "e4128fb3"
				}
			},
			"storageLayout": {
				"storage": [
					{
						"astId": 3,
						"contract": "val3.sol:StoreAddressvul",
						"label": "userAddress",
						"offset": 0,
						"slot": "0",
						"type": "t_address"
					}
				],
				"types": {
					"t_address": {
						"encoding": "inplace",
						"label": "address",
						"numberOfBytes": "20"
					}
				}
			},
			"userdoc": {
				"kind": "user",
				"methods": {},
				"version": 1
			}
		}
	}
}