{
	"val41.sol": {
		"EarlyReturnExample": {
			"abi": [
				{
					"inputs": [],
					"name": "BlacklistedUser",
					"type": "error"
				},
				{
					"inputs": [],
					"name": "ContractPaused",
					"type": "error"
				},
				{
					"inputs": [],
					"name": "ZeroAmount",
					"type": "error"
				},
				{
					"inputs": [
						{
							"internalType": "address",
							"name": "",
							"type": "address"
						}
					],
					"name": "balances",
					"outputs": [
						{
							"internalType": "uint256",
							"name": "",
							"type": "uint256"
						}
					],
					"stateMutability": "view",
					"type": "function"
				},
				{
					"inputs": [
						{
							"internalType": "address",
							"name": "",
							"type": "address"
						}
					],
					"name": "blacklisted",
					"outputs": [
						{
							"internalType": "bool",
							"name": "",
							"type": "bool"
						}
					],
					"stateMutability": "view",
					"type": "function"
				},
				{
					"inputs": [
						{
							"internalType": "uint256",
							"name": "_score",
							"type": "uint256"
						}
					],
					"name": "checkLevel",
					"outputs": [
						{
							"internalType": "string",
							"name": "",
							"type": "string"
						}
					],
					"stateMutability": "pure",
					"type": "function"
				},
				{
					"inputs": [
						{
							"internalType": "uint256",
							"name": "_amount",
							"type": "uint256"
						}
					],
					"name": "deposit",
					"outputs": [],
					"stateMutability": "nonpayable",
					"type": "function"
				},
				{
					"inputs": [
						{
							"internalType": "uint256",
							"name": "_amount",
							"type": "uint256"
						}
					],
					"name": "depositRequire",
					"outputs": [],
					"stateMutability": "nonpayable",
					"type": "function"
				},
				{
					"inputs": [
						{
							"internalType": "uint256",
							"name": "_score",
							"type": "uint256"
						},
						{
							"internalType": "bool",
							"name": "_premium",
							"type": "bool"
						},
						{
							"internalType": "bool",
							"name": "_vip",
							"type": "bool"
						}
					],
					"name": "evaluateUser",
					"outputs": [
						{
							"internalType": "string",
							"name": "",
							"type": "string"
						}
					],
					"stateMutability": "pure",
					"type": "function"
				},
				{
					"inputs": [],
					"name": "paused",
					"outputs": [
						{
							"internalType": "bool",
							"name": "",
							"type": "bool"
						}
					],
					"stateMutability": "view",
					"type": "function"
				},
				{
					"inputs": [
						{
							"internalType": "bool",
							"name": "_status",
							"type": "bool"
						}
					],
					"name": "setPaused",
					"outputs": [],
					"stateMutability": "nonpayable",
					"type": "function"
				},
				{
					"inputs": [],
					"name": "unreachableExample",
					"outputs": [
						{
							"internalType": "uint256",
							"name": "",
							"type": "uint256"
						}
					],
					"stateMutability": "pure",
					"type": "function"
				}
			],
			"devdoc": {
				"kind": "dev",
				"methods": {},
				"version": 1
			},
			"evm": {
				"assembly": "    /* \"val41.sol\":13896:17541  contract EarlyReturnExample {... */\n  mstore(0x40, 0x80)\n  callvalue\n  dup1\n  iszero\n  tag_1\n  jumpi\n  revert(0x00, 0x00)\ntag_1:\n  pop\n  dataSize(sub_0)\n  dup1\n  dataOffset(sub_0)\n  0x00\n  codecopy\n  0x00\n  return\nstop\n\nsub_0: assembly {\n        /* \"val41.sol\":13896:17541  contract EarlyReturnExample {... */\n      mstore(0x40, 0x80)\n      callvalue\n      dup1\n      iszero\n      tag_1\n      jumpi\n      revert(0x00, 0x00)\n    tag_1:\n      pop\n      jumpi(tag_2, lt(calldatasize, 0x04))\n      shr(0xe0, calldataload(0x00))\n      dup1\n      0x5c975abb\n      gt\n      tag_12\n      jumpi\n      dup1\n      0x5c975abb\n      eq\n      tag_7\n      jumpi\n      dup1\n      0x70800537\n      eq\n      tag_8\n      jumpi\n      dup1\n      0xb6b55f25\n      eq\n      tag_9\n      jumpi\n      dup1\n      0xdbac26e9\n      eq\n      tag_10\n      jumpi\n      dup1\n      0xf959f0fe\n      eq\n      tag_11\n      jumpi\n      jump(tag_2)\n    tag_12:\n      dup1\n      0x11200d70\n      eq\n      tag_3\n      jumpi\n      dup1\n      0x16c38b3c\n      eq\n      tag_4\n      jumpi\n      dup1\n      0x27e235e3\n      eq\n      tag_5\n      jumpi\n      dup1\n      0x458310ea\n      eq\n      tag_6\n      jumpi\n    tag_2:\n      revert(0x00, 0x00)\n        /* \"val41.sol\":16603:17065  function checkLevel(... */\n    tag_3:\n      tag_13\n      0x04\n      dup1\n      calldatasize\n      sub\n      dup2\n      add\n      swap1\n      tag_14\n      swap2\n      swap1\n      tag_15\n      jump\t// in\n    tag_14:\n      tag_16\n      jump\t// in\n    tag_13:\n      mload(0x40)\n      tag_17\n      swap2\n      swap1\n      tag_18\n      jump\t// in\n    tag_17:\n      mload(0x40)\n      dup1\n      swap2\n      sub\n      swap1\n      return\n        /* \"val41.sol\":14347:14456  function setPaused(... */\n    tag_4:\n      tag_19\n      0x04\n      dup1\n      calldatasize\n      sub\n      dup2\n      add\n      swap1\n      tag_20\n      swap2\n      swap1\n      tag_21\n      jump\t// in\n    tag_20:\n      tag_22\n      jump\t// in\n    tag_19:\n      stop\n        /* \"val41.sol\":13976:14019  mapping(address => uint256) public balances */\n    tag_5:\n      tag_23\n      0x04\n      dup1\n      calldatasize\n      sub\n      dup2\n      add\n      swap1\n      tag_24\n      swap2\n      swap1\n      tag_25\n      jump\t// in\n    tag_24:\n      tag_26\n      jump\t// in\n    tag_23:\n      mload(0x40)\n      tag_27\n      swap2\n      swap1\n      tag_28\n      jump\t// in\n    tag_27:\n      mload(0x40)\n      dup1\n      swap2\n      sub\n      swap1\n      return\n        /* \"val41.sol\":15435:15812  function depositRequire(uint256 _amount) external... */\n    tag_6:\n      tag_29\n      0x04\n      dup1\n      calldatasize\n      sub\n      dup2\n      add\n      swap1\n      tag_30\n      swap2\n      swap1\n      tag_15\n      jump\t// in\n    tag_30:\n      tag_31\n      jump\t// in\n    tag_29:\n      stop\n        /* \"val41.sol\":14080:14098  bool public paused */\n    tag_7:\n      tag_32\n      tag_33\n      jump\t// in\n    tag_32:\n      mload(0x40)\n      tag_34\n      swap2\n      swap1\n      tag_35\n      jump\t// in\n    tag_34:\n      mload(0x40)\n      dup1\n      swap2\n      sub\n      swap1\n      return\n        /* \"val41.sol\":17236:17538  function unreachableExample()... */\n    tag_8:\n      tag_36\n      tag_37\n      jump\t// in\n    tag_36:\n      mload(0x40)\n      tag_38\n      swap2\n      swap1\n      tag_28\n      jump\t// in\n    tag_38:\n      mload(0x40)\n      dup1\n      swap2\n      sub\n      swap1\n      return\n        /* \"val41.sol\":14626:15405  function deposit(... */\n    tag_9:\n      tag_39\n      0x04\n      dup1\n      calldatasize\n      sub\n      dup2\n      add\n      swap1\n      tag_40\n      swap2\n      swap1\n      tag_15\n      jump\t// in\n    tag_40:\n      tag_41\n      jump\t// in\n    tag_39:\n      stop\n        /* \"val41.sol\":14028:14071  mapping(address => bool) public blacklisted */\n    tag_10:\n      tag_42\n      0x04\n      dup1\n      calldatasize\n      sub\n      dup2\n      add\n      swap1\n      tag_43\n      swap2\n      swap1\n      tag_25\n      jump\t// in\n    tag_43:\n      tag_44\n      jump\t// in\n    tag_42:\n      mload(0x40)\n      tag_45\n      swap2\n      swap1\n      tag_35\n      jump\t// in\n    tag_45:\n      mload(0x40)\n      dup1\n      swap2\n      sub\n      swap1\n      return\n        /* \"val41.sol\":15863:16435  function evaluateUser(uint256 _score, bool _premium, bool _vip) external pure returns (string memory)... */\n    tag_11:\n      tag_46\n      0x04\n      dup1\n      calldatasize\n      sub\n      dup2\n      add\n      swap1\n      tag_47\n      swap2\n      swap1\n      tag_48\n      jump\t// in\n    tag_47:\n      tag_49\n      jump\t// in\n    tag_46:\n      mload(0x40)\n      tag_50\n      swap2\n      swap1\n      tag_18\n      jump\t// in\n    tag_50:\n      mload(0x40)\n      dup1\n      swap2\n      sub\n      swap1\n      return\n        /* \"val41.sol\":16603:17065  function checkLevel(... */\n    tag_16:\n        /* \"val41.sol\":16705:16718  string memory */\n      0x60\n        /* \"val41.sol\":16802:16804  90 */\n      0x5a\n        /* \"val41.sol\":16792:16798  _score */\n      dup3\n        /* \"val41.sol\":16792:16804  _score >= 90 */\n      lt\n        /* \"val41.sol\":16788:16849  if (_score >= 90) {... */\n      tag_52\n      jumpi\n        /* \"val41.sol\":16823:16837  return \"Elite\" */\n      mload(0x40)\n      dup1\n      0x40\n      add\n      0x40\n      mstore\n      dup1\n      0x05\n      dup2\n      mstore\n      0x20\n      add\n      0x456c697465000000000000000000000000000000000000000000000000000000\n      dup2\n      mstore\n      pop\n      swap1\n      pop\n      jump(tag_51)\n        /* \"val41.sol\":16788:16849  if (_score >= 90) {... */\n    tag_52:\n        /* \"val41.sol\":16926:16928  50 */\n      0x32\n        /* \"val41.sol\":16916:16922  _score */\n      dup3\n        /* \"val41.sol\":16916:16928  _score >= 50 */\n      lt\n        /* \"val41.sol\":16912:16976  if (_score >= 50) {... */\n      tag_53\n      jumpi\n        /* \"val41.sol\":16947:16964  return \"Standard\" */\n      mload(0x40)\n      dup1\n      0x40\n      add\n      0x40\n      mstore\n      dup1\n      0x08\n      dup2\n      mstore\n      0x20\n      add\n      0x5374616e64617264000000000000000000000000000000000000000000000000\n      dup2\n      mstore\n      pop\n      swap1\n      pop\n      jump(tag_51)\n        /* \"val41.sol\":16912:16976  if (_score >= 50) {... */\n    tag_53:\n        /* \"val41.sol\":17040:17057  return \"Rejected\" */\n      mload(0x40)\n      dup1\n      0x40\n      add\n      0x40\n      mstore\n      dup1\n      0x08\n      dup2\n      mstore\n      0x20\n      add\n      0x52656a6563746564000000000000000000000000000000000000000000000000\n      dup2\n      mstore\n      pop\n      swap1\n      pop\n        /* \"val41.sol\":16603:17065  function checkLevel(... */\n    tag_51:\n      swap2\n      swap1\n      pop\n      jump\t// out\n        /* \"val41.sol\":14347:14456  function setPaused(... */\n    tag_22:\n        /* \"val41.sol\":14441:14448  _status */\n      dup1\n        /* \"val41.sol\":14432:14438  paused */\n      0x02\n      0x00\n        /* \"val41.sol\":14432:14448  paused = _status */\n      0x0100\n      exp\n      dup2\n      sload\n      dup2\n      0xff\n      mul\n      not\n      and\n      swap1\n      dup4\n      iszero\n      iszero\n      mul\n      or\n      swap1\n      sstore\n      pop\n        /* \"val41.sol\":14347:14456  function setPaused(... */\n      pop\n      jump\t// out\n        /* \"val41.sol\":13976:14019  mapping(address => uint256) public balances */\n    tag_26:\n      mstore(0x20, 0x00)\n      dup1\n      0x00\n      mstore\n      keccak256(0x00, 0x40)\n      0x00\n      swap2\n      pop\n      swap1\n      pop\n      sload\n      dup2\n      jump\t// out\n        /* \"val41.sol\":15435:15812  function depositRequire(uint256 _amount) external... */\n    tag_31:\n        /* \"val41.sol\":15505:15511  paused */\n      0x02\n      0x00\n      swap1\n      sload\n      swap1\n      0x0100\n      exp\n      swap1\n      div\n      0xff\n      and\n        /* \"val41.sol\":15501:15573  if (paused) ... */\n      iszero\n      tag_56\n      jumpi\n        /* \"val41.sol\":15545:15561  ContractPaused() */\n      mload(0x40)\n      0xab35696f00000000000000000000000000000000000000000000000000000000\n      dup2\n      mstore\n      0x04\n      add\n      mload(0x40)\n      dup1\n      swap2\n      sub\n      swap1\n      revert\n        /* \"val41.sol\":15501:15573  if (paused) ... */\n    tag_56:\n        /* \"val41.sol\":15589:15600  blacklisted */\n      0x01\n        /* \"val41.sol\":15589:15612  blacklisted[msg.sender] */\n      0x00\n        /* \"val41.sol\":15601:15611  msg.sender */\n      caller\n        /* \"val41.sol\":15589:15612  blacklisted[msg.sender] */\n      0xffffffffffffffffffffffffffffffffffffffff\n      and\n      0xffffffffffffffffffffffffffffffffffffffff\n      and\n      dup2\n      mstore\n      0x20\n      add\n      swap1\n      dup2\n      mstore\n      0x20\n      add\n      0x00\n      keccak256\n      0x00\n      swap1\n      sload\n      swap1\n      0x0100\n      exp\n      swap1\n      div\n      0xff\n      and\n        /* \"val41.sol\":15585:15675  if (blacklisted[msg.sender]) ... */\n      iszero\n      tag_57\n      jumpi\n        /* \"val41.sol\":15646:15663  BlacklistedUser() */\n      mload(0x40)\n      0xd9a60d2d00000000000000000000000000000000000000000000000000000000\n      dup2\n      mstore\n      0x04\n      add\n      mload(0x40)\n      dup1\n      swap2\n      sub\n      swap1\n      revert\n        /* \"val41.sol\":15585:15675  if (blacklisted[msg.sender]) ... */\n    tag_57:\n        /* \"val41.sol\":15702:15703  0 */\n      0x00\n        /* \"val41.sol\":15691:15698  _amount */\n      dup2\n        /* \"val41.sol\":15691:15703  _amount == 0 */\n      sub\n        /* \"val41.sol\":15687:15761  if (_amount == 0) ... */\n      tag_58\n      jumpi\n        /* \"val41.sol\":15737:15749  ZeroAmount() */\n      mload(0x40)\n      0x1f2a200500000000000000000000000000000000000000000000000000000000\n      dup2\n      mstore\n      0x04\n      add\n      mload(0x40)\n      dup1\n      swap2\n      sub\n      swap1\n      revert\n        /* \"val41.sol\":15687:15761  if (_amount == 0) ... */\n    tag_58:\n        /* \"val41.sol\":15797:15804  _amount */\n      dup1\n        /* \"val41.sol\":15773:15781  balances */\n      0x00\n        /* \"val41.sol\":15773:15793  balances[msg.sender] */\n      0x00\n        /* \"val41.sol\":15782:15792  msg.sender */\n      caller\n        /* \"val41.sol\":15773:15793  balances[msg.sender] */\n      0xffffffffffffffffffffffffffffffffffffffff\n      and\n      0xffffffffffffffffffffffffffffffffffffffff\n      and\n      dup2\n      mstore\n      0x20\n      add\n      swap1\n      dup2\n      mstore\n      0x20\n      add\n      0x00\n      keccak256\n      0x00\n        /* \"val41.sol\":15773:15804  balances[msg.sender] += _amount */\n      dup3\n      dup3\n      sload\n      tag_59\n      swap2\n      swap1\n      tag_60\n      jump\t// in\n    tag_59:\n      swap3\n      pop\n      pop\n      dup2\n      swap1\n      sstore\n      pop\n        /* \"val41.sol\":15435:15812  function depositRequire(uint256 _amount) external... */\n      pop\n      jump\t// out\n        /* \"val41.sol\":14080:14098  bool public paused */\n    tag_33:\n      0x02\n      0x00\n      swap1\n      sload\n      swap1\n      0x0100\n      exp\n      swap1\n      div\n      0xff\n      and\n      dup2\n      jump\t// out\n        /* \"val41.sol\":17236:17538  function unreachableExample()... */\n    tag_37:\n        /* \"val41.sol\":17316:17323  uint256 */\n      0x00\n        /* \"val41.sol\":17409:17412  100 */\n      0x64\n        /* \"val41.sol\":17402:17412  return 100 */\n      swap1\n      pop\n        /* \"val41.sol\":17236:17538  function unreachableExample()... */\n      swap1\n      jump\t// out\n        /* \"val41.sol\":14626:15405  function deposit(... */\n    tag_41:\n        /* \"val41.sol\":14804:14808  true */\n      0x01\n        /* \"val41.sol\":14794:14808  paused == true */\n      iszero\n      iszero\n        /* \"val41.sol\":14794:14800  paused */\n      0x02\n      0x00\n      swap1\n      sload\n      swap1\n      0x0100\n      exp\n      swap1\n      div\n      0xff\n      and\n        /* \"val41.sol\":14794:14808  paused == true */\n      iszero\n      iszero\n      sub\n        /* \"val41.sol\":14790:14947  if (paused == true) {... */\n      iszero\n        /* \"val41.sol\":14929:14936  return; */\n      tag_62\n        /* \"val41.sol\":14790:14947  if (paused == true) {... */\n      jumpi\n        /* \"val41.sol\":15052:15053  0 */\n      0x00\n        /* \"val41.sol\":15041:15048  _amount */\n      dup2\n        /* \"val41.sol\":15041:15053  _amount == 0 */\n      sub\n        /* \"val41.sol\":15037:15195  if (_amount == 0) {... */\n      iszero\n        /* \"val41.sol\":15177:15184  return; */\n      tag_62\n        /* \"val41.sol\":15037:15195  if (_amount == 0) {... */\n      jumpi\n        /* \"val41.sol\":15390:15397  _amount */\n      dup1\n        /* \"val41.sol\":15366:15374  balances */\n      0x00\n        /* \"val41.sol\":15366:15386  balances[msg.sender] */\n      0x00\n        /* \"val41.sol\":15375:15385  msg.sender */\n      caller\n        /* \"val41.sol\":15366:15386  balances[msg.sender] */\n      0xffffffffffffffffffffffffffffffffffffffff\n      and\n      0xffffffffffffffffffffffffffffffffffffffff\n      and\n      dup2\n      mstore\n      0x20\n      add\n      swap1\n      dup2\n      mstore\n      0x20\n      add\n      0x00\n      keccak256\n      0x00\n        /* \"val41.sol\":15366:15397  balances[msg.sender] += _amount */\n      dup3\n      dup3\n      sload\n      tag_65\n      swap2\n      swap1\n      tag_60\n      jump\t// in\n    tag_65:\n      swap3\n      pop\n      pop\n      dup2\n      swap1\n      sstore\n      pop\n        /* \"val41.sol\":14626:15405  function deposit(... */\n    tag_62:\n      pop\n      jump\t// out\n        /* \"val41.sol\":14028:14071  mapping(address => bool) public blacklisted */\n    tag_44:\n      mstore(0x20, 0x01)\n      dup1\n      0x00\n      mstore\n      keccak256(0x00, 0x40)\n      0x00\n      swap2\n      pop\n      sload\n      swap1\n      0x0100\n      exp\n      swap1\n      div\n      0xff\n      and\n      dup2\n      jump\t// out\n        /* \"val41.sol\":15863:16435  function evaluateUser(uint256 _score, bool _premium, bool _vip) external pure returns (string memory)... */\n    tag_49:\n        /* \"val41.sol\":15950:15963  string memory */\n      0x60\n        /* \"val41.sol\":15993:15995  50 */\n      0x32\n        /* \"val41.sol\":15984:15990  _score */\n      dup5\n        /* \"val41.sol\":15984:15995  _score < 50 */\n      lt\n        /* \"val41.sol\":15981:16050  if(_score < 50)... */\n      iszero\n      tag_67\n      jumpi\n        /* \"val41.sol\":16021:16038  return \"Rejected\" */\n      mload(0x40)\n      dup1\n      0x40\n      add\n      0x40\n      mstore\n      dup1\n      0x08\n      dup2\n      mstore\n      0x20\n      add\n      0x52656a6563746564000000000000000000000000000000000000000000000000\n      dup2\n      mstore\n      pop\n      swap1\n      pop\n      jump(tag_66)\n        /* \"val41.sol\":15981:16050  if(_score < 50)... */\n    tag_67:\n        /* \"val41.sol\":16065:16069  _vip */\n      dup2\n        /* \"val41.sol\":16062:16218  if(_vip)... */\n      iszero\n      tag_68\n      jumpi\n        /* \"val41.sol\":16108:16110  95 */\n      0x5f\n        /* \"val41.sol\":16098:16104  _score */\n      dup5\n        /* \"val41.sol\":16098:16110  _score >= 95 */\n      lt\n        /* \"val41.sol\":16095:16178  if(_score >= 95)... */\n      tag_69\n      jumpi\n        /* \"val41.sol\":16144:16162  return \"VIP Elite\" */\n      mload(0x40)\n      dup1\n      0x40\n      add\n      0x40\n      mstore\n      dup1\n      0x09\n      dup2\n      mstore\n      0x20\n      add\n      0x56495020456c6974650000000000000000000000000000000000000000000000\n      dup2\n      mstore\n      pop\n      swap1\n      pop\n      jump(tag_66)\n        /* \"val41.sol\":16095:16178  if(_score >= 95)... */\n    tag_69:\n        /* \"val41.sol\":16194:16206  return \"VIP\" */\n      mload(0x40)\n      dup1\n      0x40\n      add\n      0x40\n      mstore\n      dup1\n      0x03\n      dup2\n      mstore\n      0x20\n      add\n      0x5649500000000000000000000000000000000000000000000000000000000000\n      dup2\n      mstore\n      pop\n      swap1\n      pop\n      jump(tag_66)\n        /* \"val41.sol\":16062:16218  if(_vip)... */\n    tag_68:\n        /* \"val41.sol\":16233:16241  _premium */\n      dup3\n        /* \"val41.sol\":16230:16398  if(_premium)... */\n      iszero\n      tag_70\n      jumpi\n        /* \"val41.sol\":16280:16282  90 */\n      0x5a\n        /* \"val41.sol\":16270:16276  _score */\n      dup5\n        /* \"val41.sol\":16270:16282  _score >= 90 */\n      lt\n        /* \"val41.sol\":16267:16354  if(_score >= 90)... */\n      tag_71\n      jumpi\n        /* \"val41.sol\":16316:16338  return \"Elite Premium\" */\n      mload(0x40)\n      dup1\n      0x40\n      add\n      0x40\n      mstore\n      dup1\n      0x0d\n      dup2\n      mstore\n      0x20\n      add\n      0x456c697465205072656d69756d00000000000000000000000000000000000000\n      dup2\n      mstore\n      pop\n      swap1\n      pop\n      jump(tag_66)\n        /* \"val41.sol\":16267:16354  if(_score >= 90)... */\n    tag_71:\n        /* \"val41.sol\":16370:16386  return \"Premium\" */\n      mload(0x40)\n      dup1\n      0x40\n      add\n      0x40\n      mstore\n      dup1\n      0x07\n      dup2\n      mstore\n      0x20\n      add\n      0x5072656d69756d00000000000000000000000000000000000000000000000000\n      dup2\n      mstore\n      pop\n      swap1\n      pop\n      jump(tag_66)\n        /* \"val41.sol\":16230:16398  if(_premium)... */\n    tag_70:\n        /* \"val41.sol\":16410:16427  return \"Standard\" */\n      mload(0x40)\n      dup1\n      0x40\n      add\n      0x40\n      mstore\n      dup1\n      0x08\n      dup2\n      mstore\n      0x20\n      add\n      0x5374616e64617264000000000000000000000000000000000000000000000000\n      dup2\n      mstore\n      pop\n      swap1\n      pop\n        /* \"val41.sol\":15863:16435  function evaluateUser(uint256 _score, bool _premium, bool _vip) external pure returns (string memory)... */\n    tag_66:\n      swap4\n      swap3\n      pop\n      pop\n      pop\n      jump\t// out\n        /* \"#utility.yul\":88:205   */\n    tag_73:\n        /* \"#utility.yul\":197:198   */\n      0x00\n        /* \"#utility.yul\":194:195   */\n      0x00\n        /* \"#utility.yul\":187:199   */\n      revert\n        /* \"#utility.yul\":334:411   */\n    tag_75:\n        /* \"#utility.yul\":371:378   */\n      0x00\n        /* \"#utility.yul\":400:405   */\n      dup2\n        /* \"#utility.yul\":389:405   */\n      swap1\n      pop\n        /* \"#utility.yul\":334:411   */\n      swap2\n      swap1\n      pop\n      jump\t// out\n        /* \"#utility.yul\":417:539   */\n    tag_76:\n        /* \"#utility.yul\":490:514   */\n      tag_99\n        /* \"#utility.yul\":508:513   */\n      dup2\n        /* \"#utility.yul\":490:514   */\n      tag_75\n      jump\t// in\n    tag_99:\n        /* \"#utility.yul\":483:488   */\n      dup2\n        /* \"#utility.yul\":480:515   */\n      eq\n        /* \"#utility.yul\":470:533   */\n      tag_100\n      jumpi\n        /* \"#utility.yul\":529:530   */\n      0x00\n        /* \"#utility.yul\":526:527   */\n      0x00\n        /* \"#utility.yul\":519:531   */\n      revert\n        /* \"#utility.yul\":470:533   */\n    tag_100:\n        /* \"#utility.yul\":417:539   */\n      pop\n      jump\t// out\n        /* \"#utility.yul\":545:684   */\n    tag_77:\n        /* \"#utility.yul\":591:596   */\n      0x00\n        /* \"#utility.yul\":629:635   */\n      dup2\n        /* \"#utility.yul\":616:636   */\n      calldataload\n        /* \"#utility.yul\":607:636   */\n      swap1\n      pop\n        /* \"#utility.yul\":645:678   */\n      tag_102\n        /* \"#utility.yul\":672:677   */\n      dup2\n        /* \"#utility.yul\":645:678   */\n      tag_76\n      jump\t// in\n    tag_102:\n        /* \"#utility.yul\":545:684   */\n      swap3\n      swap2\n      pop\n      pop\n      jump\t// out\n        /* \"#utility.yul\":690:1019   */\n    tag_15:\n        /* \"#utility.yul\":749:755   */\n      0x00\n        /* \"#utility.yul\":798:800   */\n      0x20\n        /* \"#utility.yul\":786:795   */\n      dup3\n        /* \"#utility.yul\":777:784   */\n      dup5\n        /* \"#utility.yul\":773:796   */\n      sub\n        /* \"#utility.yul\":769:801   */\n      slt\n        /* \"#utility.yul\":766:885   */\n      iszero\n      tag_104\n      jumpi\n        /* \"#utility.yul\":804:883   */\n      tag_105\n      tag_73\n      jump\t// in\n    tag_105:\n        /* \"#utility.yul\":766:885   */\n    tag_104:\n        /* \"#utility.yul\":924:925   */\n      0x00\n        /* \"#utility.yul\":949:1002   */\n      tag_106\n        /* \"#utility.yul\":994:1001   */\n      dup5\n        /* \"#utility.yul\":985:991   */\n      dup3\n        /* \"#utility.yul\":974:983   */\n      dup6\n        /* \"#utility.yul\":970:992   */\n      add\n        /* \"#utility.yul\":949:1002   */\n      tag_77\n      jump\t// in\n    tag_106:\n        /* \"#utility.yul\":939:1002   */\n      swap2\n      pop\n        /* \"#utility.yul\":895:1012   */\n      pop\n        /* \"#utility.yul\":690:1019   */\n      swap3\n      swap2\n      pop\n      pop\n      jump\t// out\n        /* \"#utility.yul\":1025:1124   */\n    tag_78:\n        /* \"#utility.yul\":1077:1083   */\n      0x00\n        /* \"#utility.yul\":1111:1116   */\n      dup2\n        /* \"#utility.yul\":1105:1117   */\n      mload\n        /* \"#utility.yul\":1095:1117   */\n      swap1\n      pop\n        /* \"#utility.yul\":1025:1124   */\n      swap2\n      swap1\n      pop\n      jump\t// out\n        /* \"#utility.yul\":1130:1299   */\n    tag_79:\n        /* \"#utility.yul\":1214:1225   */\n      0x00\n        /* \"#utility.yul\":1248:1254   */\n      dup3\n        /* \"#utility.yul\":1243:1246   */\n      dup3\n        /* \"#utility.yul\":1236:1255   */\n      mstore\n        /* \"#utility.yul\":1288:1292   */\n      0x20\n        /* \"#utility.yul\":1283:1286   */\n      dup3\n        /* \"#utility.yul\":1279:1293   */\n      add\n        /* \"#utility.yul\":1264:1293   */\n      swap1\n      pop\n        /* \"#utility.yul\":1130:1299   */\n      swap3\n      swap2\n      pop\n      pop\n      jump\t// out\n        /* \"#utility.yul\":1305:1444   */\n    tag_80:\n        /* \"#utility.yul\":1394:1400   */\n      dup3\n        /* \"#utility.yul\":1389:1392   */\n      dup2\n        /* \"#utility.yul\":1384:1387   */\n      dup4\n        /* \"#utility.yul\":1378:1401   */\n      mcopy\n        /* \"#utility.yul\":1435:1436   */\n      0x00\n        /* \"#utility.yul\":1426:1432   */\n      dup4\n        /* \"#utility.yul\":1421:1424   */\n      dup4\n        /* \"#utility.yul\":1417:1433   */\n      add\n        /* \"#utility.yul\":1410:1437   */\n      mstore\n        /* \"#utility.yul\":1305:1444   */\n      pop\n      pop\n      pop\n      jump\t// out\n        /* \"#utility.yul\":1450:1552   */\n    tag_81:\n        /* \"#utility.yul\":1491:1497   */\n      0x00\n        /* \"#utility.yul\":1542:1544   */\n      0x1f\n        /* \"#utility.yul\":1538:1545   */\n      not\n        /* \"#utility.yul\":1533:1535   */\n      0x1f\n        /* \"#utility.yul\":1526:1531   */\n      dup4\n        /* \"#utility.yul\":1522:1536   */\n      add\n        /* \"#utility.yul\":1518:1546   */\n      and\n        /* \"#utility.yul\":1508:1546   */\n      swap1\n      pop\n        /* \"#utility.yul\":1450:1552   */\n      swap2\n      swap1\n      pop\n      jump\t// out\n        /* \"#utility.yul\":1558:1935   */\n    tag_82:\n        /* \"#utility.yul\":1646:1649   */\n      0x00\n        /* \"#utility.yul\":1674:1713   */\n      tag_112\n        /* \"#utility.yul\":1707:1712   */\n      dup3\n        /* \"#utility.yul\":1674:1713   */\n      tag_78\n      jump\t// in\n    tag_112:\n        /* \"#utility.yul\":1729:1800   */\n      tag_113\n        /* \"#utility.yul\":1793:1799   */\n      dup2\n        /* \"#utility.yul\":1788:1791   */\n      dup6\n        /* \"#utility.yul\":1729:1800   */\n      tag_79\n      jump\t// in\n    tag_113:\n        /* \"#utility.yul\":1722:1800   */\n      swap4\n      pop\n        /* \"#utility.yul\":1809:1874   */\n      tag_114\n        /* \"#utility.yul\":1867:1873   */\n      dup2\n        /* \"#utility.yul\":1862:1865   */\n      dup6\n        /* \"#utility.yul\":1855:1859   */\n      0x20\n        /* \"#utility.yul\":1848:1853   */\n      dup7\n        /* \"#utility.yul\":1844:1860   */\n      add\n        /* \"#utility.yul\":1809:1874   */\n      tag_80\n      jump\t// in\n    tag_114:\n        /* \"#utility.yul\":1899:1928   */\n      tag_115\n        /* \"#utility.yul\":1921:1927   */\n      dup2\n        /* \"#utility.yul\":1899:1928   */\n      tag_81\n      jump\t// in\n    tag_115:\n        /* \"#utility.yul\":1894:1897   */\n      dup5\n        /* \"#utility.yul\":1890:1929   */\n      add\n        /* \"#utility.yul\":1883:1929   */\n      swap2\n      pop\n        /* \"#utility.yul\":1650:1935   */\n      pop\n        /* \"#utility.yul\":1558:1935   */\n      swap3\n      swap2\n      pop\n      pop\n      jump\t// out\n        /* \"#utility.yul\":1941:2254   */\n    tag_18:\n        /* \"#utility.yul\":2054:2058   */\n      0x00\n        /* \"#utility.yul\":2092:2094   */\n      0x20\n        /* \"#utility.yul\":2081:2090   */\n      dup3\n        /* \"#utility.yul\":2077:2095   */\n      add\n        /* \"#utility.yul\":2069:2095   */\n      swap1\n      pop\n        /* \"#utility.yul\":2141:2150   */\n      dup2\n        /* \"#utility.yul\":2135:2139   */\n      dup2\n        /* \"#utility.yul\":2131:2151   */\n      sub\n        /* \"#utility.yul\":2127:2128   */\n      0x00\n        /* \"#utility.yul\":2116:2125   */\n      dup4\n        /* \"#utility.yul\":2112:2129   */\n      add\n        /* \"#utility.yul\":2105:2152   */\n      mstore\n        /* \"#utility.yul\":2169:2247   */\n      tag_117\n        /* \"#utility.yul\":2242:2246   */\n      dup2\n        /* \"#utility.yul\":2233:2239   */\n      dup5\n        /* \"#utility.yul\":2169:2247   */\n      tag_82\n      jump\t// in\n    tag_117:\n        /* \"#utility.yul\":2161:2247   */\n      swap1\n      pop\n        /* \"#utility.yul\":1941:2254   */\n      swap3\n      swap2\n      pop\n      pop\n      jump\t// out\n        /* \"#utility.yul\":2260:2350   */\n    tag_83:\n        /* \"#utility.yul\":2294:2301   */\n      0x00\n        /* \"#utility.yul\":2337:2342   */\n      dup2\n        /* \"#utility.yul\":2330:2343   */\n      iszero\n        /* \"#utility.yul\":2323:2344   */\n      iszero\n        /* \"#utility.yul\":2312:2344   */\n      swap1\n      pop\n        /* \"#utility.yul\":2260:2350   */\n      swap2\n      swap1\n      pop\n      jump\t// out\n        /* \"#utility.yul\":2356:2472   */\n    tag_84:\n        /* \"#utility.yul\":2426:2447   */\n      tag_120\n        /* \"#utility.yul\":2441:2446   */\n      dup2\n        /* \"#utility.yul\":2426:2447   */\n      tag_83\n      jump\t// in\n    tag_120:\n        /* \"#utility.yul\":2419:2424   */\n      dup2\n        /* \"#utility.yul\":2416:2448   */\n      eq\n        /* \"#utility.yul\":2406:2466   */\n      tag_121\n      jumpi\n        /* \"#utility.yul\":2462:2463   */\n      0x00\n        /* \"#utility.yul\":2459:2460   */\n      0x00\n        /* \"#utility.yul\":2452:2464   */\n      revert\n        /* \"#utility.yul\":2406:2466   */\n    tag_121:\n        /* \"#utility.yul\":2356:2472   */\n      pop\n      jump\t// out\n        /* \"#utility.yul\":2478:2611   */\n    tag_85:\n        /* \"#utility.yul\":2521:2526   */\n      0x00\n        /* \"#utility.yul\":2559:2565   */\n      dup2\n        /* \"#utility.yul\":2546:2566   */\n      calldataload\n        /* \"#utility.yul\":2537:2566   */\n      swap1\n      pop\n        /* \"#utility.yul\":2575:2605   */\n      tag_123\n        /* \"#utility.yul\":2599:2604   */\n      dup2\n        /* \"#utility.yul\":2575:2605   */\n      tag_84\n      jump\t// in\n    tag_123:\n        /* \"#utility.yul\":2478:2611   */\n      swap3\n      swap2\n      pop\n      pop\n      jump\t// out\n        /* \"#utility.yul\":2617:2940   */\n    tag_21:\n        /* \"#utility.yul\":2673:2679   */\n      0x00\n        /* \"#utility.yul\":2722:2724   */\n      0x20\n        /* \"#utility.yul\":2710:2719   */\n      dup3\n        /* \"#utility.yul\":2701:2708   */\n      dup5\n        /* \"#utility.yul\":2697:2720   */\n      sub\n        /* \"#utility.yul\":2693:2725   */\n      slt\n        /* \"#utility.yul\":2690:2809   */\n      iszero\n      tag_125\n      jumpi\n        /* \"#utility.yul\":2728:2807   */\n      tag_126\n      tag_73\n      jump\t// in\n    tag_126:\n        /* \"#utility.yul\":2690:2809   */\n    tag_125:\n        /* \"#utility.yul\":2848:2849   */\n      0x00\n        /* \"#utility.yul\":2873:2923   */\n      tag_127\n        /* \"#utility.yul\":2915:2922   */\n      dup5\n        /* \"#utility.yul\":2906:2912   */\n      dup3\n        /* \"#utility.yul\":2895:2904   */\n      dup6\n        /* \"#utility.yul\":2891:2913   */\n      add\n        /* \"#utility.yul\":2873:2923   */\n      tag_85\n      jump\t// in\n    tag_127:\n        /* \"#utility.yul\":2863:2923   */\n      swap2\n      pop\n        /* \"#utility.yul\":2819:2933   */\n      pop\n        /* \"#utility.yul\":2617:2940   */\n      swap3\n      swap2\n      pop\n      pop\n      jump\t// out\n        /* \"#utility.yul\":2946:3072   */\n    tag_86:\n        /* \"#utility.yul\":2983:2990   */\n      0x00\n        /* \"#utility.yul\":3023:3065   */\n      0xffffffffffffffffffffffffffffffffffffffff\n        /* \"#utility.yul\":3016:3021   */\n      dup3\n        /* \"#utility.yul\":3012:3066   */\n      and\n        /* \"#utility.yul\":3001:3066   */\n      swap1\n      pop\n        /* \"#utility.yul\":2946:3072   */\n      swap2\n      swap1\n      pop\n      jump\t// out\n        /* \"#utility.yul\":3078:3174   */\n    tag_87:\n        /* \"#utility.yul\":3115:3122   */\n      0x00\n        /* \"#utility.yul\":3144:3168   */\n      tag_130\n        /* \"#utility.yul\":3162:3167   */\n      dup3\n        /* \"#utility.yul\":3144:3168   */\n      tag_86\n      jump\t// in\n    tag_130:\n        /* \"#utility.yul\":3133:3168   */\n      swap1\n      pop\n        /* \"#utility.yul\":3078:3174   */\n      swap2\n      swap1\n      pop\n      jump\t// out\n        /* \"#utility.yul\":3180:3302   */\n    tag_88:\n        /* \"#utility.yul\":3253:3277   */\n      tag_132\n        /* \"#utility.yul\":3271:3276   */\n      dup2\n        /* \"#utility.yul\":3253:3277   */\n      tag_87\n      jump\t// in\n    tag_132:\n        /* \"#utility.yul\":3246:3251   */\n      dup2\n        /* \"#utility.yul\":3243:3278   */\n      eq\n        /* \"#utility.yul\":3233:3296   */\n      tag_133\n      jumpi\n        /* \"#utility.yul\":3292:3293   */\n      0x00\n        /* \"#utility.yul\":3289:3290   */\n      0x00\n        /* \"#utility.yul\":3282:3294   */\n      revert\n        /* \"#utility.yul\":3233:3296   */\n    tag_133:\n        /* \"#utility.yul\":3180:3302   */\n      pop\n      jump\t// out\n        /* \"#utility.yul\":3308:3447   */\n    tag_89:\n        /* \"#utility.yul\":3354:3359   */\n      0x00\n        /* \"#utility.yul\":3392:3398   */\n      dup2\n        /* \"#utility.yul\":3379:3399   */\n      calldataload\n        /* \"#utility.yul\":3370:3399   */\n      swap1\n      pop\n        /* \"#utility.yul\":3408:3441   */\n      tag_135\n        /* \"#utility.yul\":3435:3440   */\n      dup2\n        /* \"#utility.yul\":3408:3441   */\n      tag_88\n      jump\t// in\n    tag_135:\n        /* \"#utility.yul\":3308:3447   */\n      swap3\n      swap2\n      pop\n      pop\n      jump\t// out\n        /* \"#utility.yul\":3453:3782   */\n    tag_25:\n        /* \"#utility.yul\":3512:3518   */\n      0x00\n        /* \"#utility.yul\":3561:3563   */\n      0x20\n        /* \"#utility.yul\":3549:3558   */\n      dup3\n        /* \"#utility.yul\":3540:3547   */\n      dup5\n        /* \"#utility.yul\":3536:3559   */\n      sub\n        /* \"#utility.yul\":3532:3564   */\n      slt\n        /* \"#utility.yul\":3529:3648   */\n      iszero\n      tag_137\n      jumpi\n        /* \"#utility.yul\":3567:3646   */\n      tag_138\n      tag_73\n      jump\t// in\n    tag_138:\n        /* \"#utility.yul\":3529:3648   */\n    tag_137:\n        /* \"#utility.yul\":3687:3688   */\n      0x00\n        /* \"#utility.yul\":3712:3765   */\n      tag_139\n        /* \"#utility.yul\":3757:3764   */\n      dup5\n        /* \"#utility.yul\":3748:3754   */\n      dup3\n        /* \"#utility.yul\":3737:3746   */\n      dup6\n        /* \"#utility.yul\":3733:3755   */\n      add\n        /* \"#utility.yul\":3712:3765   */\n      tag_89\n      jump\t// in\n    tag_139:\n        /* \"#utility.yul\":3702:3765   */\n      swap2\n      pop\n        /* \"#utility.yul\":3658:3775   */\n      pop\n        /* \"#utility.yul\":3453:3782   */\n      swap3\n      swap2\n      pop\n      pop\n      jump\t// out\n        /* \"#utility.yul\":3788:3906   */\n    tag_90:\n        /* \"#utility.yul\":3875:3899   */\n      tag_141\n        /* \"#utility.yul\":3893:3898   */\n      dup2\n        /* \"#utility.yul\":3875:3899   */\n      tag_75\n      jump\t// in\n    tag_141:\n        /* \"#utility.yul\":3870:3873   */\n      dup3\n        /* \"#utility.yul\":3863:3900   */\n      mstore\n        /* \"#utility.yul\":3788:3906   */\n      pop\n      pop\n      jump\t// out\n        /* \"#utility.yul\":3912:4134   */\n    tag_28:\n        /* \"#utility.yul\":4005:4009   */\n      0x00\n        /* \"#utility.yul\":4043:4045   */\n      0x20\n        /* \"#utility.yul\":4032:4041   */\n      dup3\n        /* \"#utility.yul\":4028:4046   */\n      add\n        /* \"#utility.yul\":4020:4046   */\n      swap1\n      pop\n        /* \"#utility.yul\":4056:4127   */\n      tag_143\n        /* \"#utility.yul\":4124:4125   */\n      0x00\n        /* \"#utility.yul\":4113:4122   */\n      dup4\n        /* \"#utility.yul\":4109:4126   */\n      add\n        /* \"#utility.yul\":4100:4106   */\n      dup5\n        /* \"#utility.yul\":4056:4127   */\n      tag_90\n      jump\t// in\n    tag_143:\n        /* \"#utility.yul\":3912:4134   */\n      swap3\n      swap2\n      pop\n      pop\n      jump\t// out\n        /* \"#utility.yul\":4140:4249   */\n    tag_91:\n        /* \"#utility.yul\":4221:4242   */\n      tag_145\n        /* \"#utility.yul\":4236:4241   */\n      dup2\n        /* \"#utility.yul\":4221:4242   */\n      tag_83\n      jump\t// in\n    tag_145:\n        /* \"#utility.yul\":4216:4219   */\n      dup3\n        /* \"#utility.yul\":4209:4243   */\n      mstore\n        /* \"#utility.yul\":4140:4249   */\n      pop\n      pop\n      jump\t// out\n        /* \"#utility.yul\":4255:4465   */\n    tag_35:\n        /* \"#utility.yul\":4342:4346   */\n      0x00\n        /* \"#utility.yul\":4380:4382   */\n      0x20\n        /* \"#utility.yul\":4369:4378   */\n      dup3\n        /* \"#utility.yul\":4365:4383   */\n      add\n        /* \"#utility.yul\":4357:4383   */\n      swap1\n      pop\n        /* \"#utility.yul\":4393:4458   */\n      tag_147\n        /* \"#utility.yul\":4455:4456   */\n      0x00\n        /* \"#utility.yul\":4444:4453   */\n      dup4\n        /* \"#utility.yul\":4440:4457   */\n      add\n        /* \"#utility.yul\":4431:4437   */\n      dup5\n        /* \"#utility.yul\":4393:4458   */\n      tag_91\n      jump\t// in\n    tag_147:\n        /* \"#utility.yul\":4255:4465   */\n      swap3\n      swap2\n      pop\n      pop\n      jump\t// out\n        /* \"#utility.yul\":4471:5078   */\n    tag_48:\n        /* \"#utility.yul\":4542:4548   */\n      0x00\n        /* \"#utility.yul\":4550:4556   */\n      0x00\n        /* \"#utility.yul\":4558:4564   */\n      0x00\n        /* \"#utility.yul\":4607:4609   */\n      0x60\n        /* \"#utility.yul\":4595:4604   */\n      dup5\n        /* \"#utility.yul\":4586:4593   */\n      dup7\n        /* \"#utility.yul\":4582:4605   */\n      sub\n        /* \"#utility.yul\":4578:4610   */\n      slt\n        /* \"#utility.yul\":4575:4694   */\n      iszero\n      tag_149\n      jumpi\n        /* \"#utility.yul\":4613:4692   */\n      tag_150\n      tag_73\n      jump\t// in\n    tag_150:\n        /* \"#utility.yul\":4575:4694   */\n    tag_149:\n        /* \"#utility.yul\":4733:4734   */\n      0x00\n        /* \"#utility.yul\":4758:4811   */\n      tag_151\n        /* \"#utility.yul\":4803:4810   */\n      dup7\n        /* \"#utility.yul\":4794:4800   */\n      dup3\n        /* \"#utility.yul\":4783:4792   */\n      dup8\n        /* \"#utility.yul\":4779:4801   */\n      add\n        /* \"#utility.yul\":4758:4811   */\n      tag_77\n      jump\t// in\n    tag_151:\n        /* \"#utility.yul\":4748:4811   */\n      swap4\n      pop\n        /* \"#utility.yul\":4704:4821   */\n      pop\n        /* \"#utility.yul\":4860:4862   */\n      0x20\n        /* \"#utility.yul\":4886:4936   */\n      tag_152\n        /* \"#utility.yul\":4928:4935   */\n      dup7\n        /* \"#utility.yul\":4919:4925   */\n      dup3\n        /* \"#utility.yul\":4908:4917   */\n      dup8\n        /* \"#utility.yul\":4904:4926   */\n      add\n        /* \"#utility.yul\":4886:4936   */\n      tag_85\n      jump\t// in\n    tag_152:\n        /* \"#utility.yul\":4876:4936   */\n      swap3\n      pop\n        /* \"#utility.yul\":4831:4946   */\n      pop\n        /* \"#utility.yul\":4985:4987   */\n      0x40\n        /* \"#utility.yul\":5011:5061   */\n      tag_153\n        /* \"#utility.yul\":5053:5060   */\n      dup7\n        /* \"#utility.yul\":5044:5050   */\n      dup3\n        /* \"#utility.yul\":5033:5042   */\n      dup8\n        /* \"#utility.yul\":5029:5051   */\n      add\n        /* \"#utility.yul\":5011:5061   */\n      tag_85\n      jump\t// in\n    tag_153:\n        /* \"#utility.yul\":5001:5061   */\n      swap2\n      pop\n        /* \"#utility.yul\":4956:5071   */\n      pop\n        /* \"#utility.yul\":4471:5078   */\n      swap3\n      pop\n      swap3\n      pop\n      swap3\n      jump\t// out\n        /* \"#utility.yul\":5084:5264   */\n    tag_92:\n        /* \"#utility.yul\":5132:5209   */\n      0x4e487b7100000000000000000000000000000000000000000000000000000000\n        /* \"#utility.yul\":5129:5130   */\n      0x00\n        /* \"#utility.yul\":5122:5210   */\n      mstore\n        /* \"#utility.yul\":5229:5233   */\n      0x11\n        /* \"#utility.yul\":5226:5227   */\n      0x04\n        /* \"#utility.yul\":5219:5234   */\n      mstore\n        /* \"#utility.yul\":5253:5257   */\n      0x24\n        /* \"#utility.yul\":5250:5251   */\n      0x00\n        /* \"#utility.yul\":5243:5258   */\n      revert\n        /* \"#utility.yul\":5270:5461   */\n    tag_60:\n        /* \"#utility.yul\":5310:5313   */\n      0x00\n        /* \"#utility.yul\":5329:5349   */\n      tag_156\n        /* \"#utility.yul\":5347:5348   */\n      dup3\n        /* \"#utility.yul\":5329:5349   */\n      tag_75\n      jump\t// in\n    tag_156:\n        /* \"#utility.yul\":5324:5349   */\n      swap2\n      pop\n        /* \"#utility.yul\":5363:5383   */\n      tag_157\n        /* \"#utility.yul\":5381:5382   */\n      dup4\n        /* \"#utility.yul\":5363:5383   */\n      tag_75\n      jump\t// in\n    tag_157:\n        /* \"#utility.yul\":5358:5383   */\n      swap3\n      pop\n        /* \"#utility.yul\":5406:5407   */\n      dup3\n        /* \"#utility.yul\":5403:5404   */\n      dup3\n        /* \"#utility.yul\":5399:5408   */\n      add\n        /* \"#utility.yul\":5392:5408   */\n      swap1\n      pop\n        /* \"#utility.yul\":5427:5430   */\n      dup1\n        /* \"#utility.yul\":5424:5425   */\n      dup3\n        /* \"#utility.yul\":5421:5431   */\n      gt\n        /* \"#utility.yul\":5418:5454   */\n      iszero\n      tag_158\n      jumpi\n        /* \"#utility.yul\":5434:5452   */\n      tag_159\n      tag_92\n      jump\t// in\n    tag_159:\n        /* \"#utility.yul\":5418:5454   */\n    tag_158:\n        /* \"#utility.yul\":5270:5461   */\n      swap3\n      swap2\n      pop\n      pop\n      jump\t// out\n\n    auxdata: 0xa26469706673582212202c6c54e804f5cf4cf76d6d76e02ace11bc094cb16b859ada145334265a5f180b64736f6c63430008220033\n}\n",
				"bytecode": {
					"linkReferences": {},
					"object": "6080604052348015600e575f5ffd5b506109898061001c5f395ff3fe608060405234801561000f575f5ffd5b5060043610610091575f3560e01c80635c975abb116100645780635c975abb1461012d578063708005371461014b578063b6b55f2514610169578063dbac26e914610185578063f959f0fe146101b557610091565b806311200d701461009557806316c38b3c146100c557806327e235e3146100e1578063458310ea14610111575b5f5ffd5b6100af60048036038101906100aa91906106b3565b6101e5565b6040516100bc919061074e565b60405180910390f35b6100df60048036038101906100da91906107a3565b6102af565b005b6100fb60048036038101906100f69190610828565b6102cb565b6040516101089190610862565b60405180910390f35b61012b600480360381019061012691906106b3565b6102df565b005b610135610434565b604051610142919061088a565b60405180910390f35b610153610446565b6040516101609190610862565b60405180910390f35b610183600480360381019061017e91906106b3565b61044e565b005b61019f600480360381019061019a9190610828565b6104c7565b6040516101ac919061088a565b60405180910390f35b6101cf60048036038101906101ca91906108a3565b6104e4565b6040516101dc919061074e565b60405180910390f35b6060605a821061022c576040518060400160405280600581526020017f456c69746500000000000000000000000000000000000000000000000000000081525090506102aa565b60328210610271576040518060400160405280600881526020017f5374616e6461726400000000000000000000000000000000000000000000000081525090506102aa565b6040518060400160405280600881526020017f52656a656374656400000000000000000000000000000000000000000000000081525090505b919050565b8060025f6101000a81548160ff02191690831515021790555050565b5f602052805f5260405f205f915090505481565b60025f9054906101000a900460ff1615610325576040517fab35696f00000000000000000000000000000000000000000000000000000000815260040160405180910390fd5b60015f3373ffffffffffffffffffffffffffffffffffffffff1673ffffffffffffffffffffffffffffffffffffffff1681526020019081526020015f205f9054906101000a900460ff16156103a6576040517fd9a60d2d00000000000000000000000000000000000000000000000000000000815260040160405180910390fd5b5f81036103df576040517f1f2a200500000000000000000000000000000000000000000000000000000000815260040160405180910390fd5b805f5f3373ffffffffffffffffffffffffffffffffffffffff1673ffffffffffffffffffffffffffffffffffffffff1681526020019081526020015f205f82825461042a9190610920565b9250508190555050565b60025f9054906101000a900460ff1681565b5f6064905090565b6001151560025f9054906101000a900460ff16151503156104c4575f8103156104c457805f5f3373ffffffffffffffffffffffffffffffffffffffff1673ffffffffffffffffffffffffffffffffffffffff1681526020019081526020015f205f8282546104bc9190610920565b925050819055505b50565b6001602052805f5260405f205f915054906101000a900460ff1681565b6060603284101561052c576040518060400160405280600881526020017f52656a65637465640000000000000000000000000000000000000000000000008152509050610675565b81156105b457605f8410610577576040518060400160405280600981526020017f56495020456c69746500000000000000000000000000000000000000000000008152509050610675565b6040518060400160405280600381526020017f56495000000000000000000000000000000000000000000000000000000000008152509050610675565b821561063c57605a84106105ff576040518060400160405280600d81526020017f456c697465205072656d69756d000000000000000000000000000000000000008152509050610675565b6040518060400160405280600781526020017f5072656d69756d000000000000000000000000000000000000000000000000008152509050610675565b6040518060400160405280600881526020017f5374616e6461726400000000000000000000000000000000000000000000000081525090505b9392505050565b5f5ffd5b5f819050919050565b61069281610680565b811461069c575f5ffd5b50565b5f813590506106ad81610689565b92915050565b5f602082840312156106c8576106c761067c565b5b5f6106d58482850161069f565b91505092915050565b5f81519050919050565b5f82825260208201905092915050565b8281835e5f83830152505050565b5f601f19601f8301169050919050565b5f610720826106de565b61072a81856106e8565b935061073a8185602086016106f8565b61074381610706565b840191505092915050565b5f6020820190508181035f8301526107668184610716565b905092915050565b5f8115159050919050565b6107828161076e565b811461078c575f5ffd5b50565b5f8135905061079d81610779565b92915050565b5f602082840312156107b8576107b761067c565b5b5f6107c58482850161078f565b91505092915050565b5f73ffffffffffffffffffffffffffffffffffffffff82169050919050565b5f6107f7826107ce565b9050919050565b610807816107ed565b8114610811575f5ffd5b50565b5f81359050610822816107fe565b92915050565b5f6020828403121561083d5761083c61067c565b5b5f61084a84828501610814565b91505092915050565b61085c81610680565b82525050565b5f6020820190506108755f830184610853565b92915050565b6108848161076e565b82525050565b5f60208201905061089d5f83018461087b565b92915050565b5f5f5f606084860312156108ba576108b961067c565b5b5f6108c78682870161069f565b93505060206108d88682870161078f565b92505060406108e98682870161078f565b9150509250925092565b7f4e487b71000000000000000000000000000000000000000000000000000000005f52601160045260245ffd5b5f61092a82610680565b915061093583610680565b925082820190508082111561094d5761094c6108f3565b5b9291505056fea26469706673582212202c6c54e804f5cf4cf76d6d76e02ace11bc094cb16b859ada145334265a5f180b64736f6c63430008220033",
					"opcodes": "PUSH1 0x80 PUSH1 0x40 MSTORE CALLVALUE DUP1 ISZERO PUSH1 0xE JUMPI PUSH0 PUSH0 REVERT JUMPDEST POP PUSH2 0x989 DUP1 PUSH2 0x1C PUSH0 CODECOPY PUSH0 RETURN INVALID PUSH1 0x80 PUSH1 0x40 MSTORE CALLVALUE DUP1 ISZERO PUSH2 0xF JUMPI PUSH0 PUSH0 REVERT JUMPDEST POP PUSH1 0x4 CALLDATASIZE LT PUSH2 0x91 JUMPI PUSH0 CALLDATALOAD PUSH1 0xE0 SHR DUP1 PUSH4 0x5C975ABB GT PUSH2 0x64 JUMPI DUP1 PUSH4 0x5C975ABB EQ PUSH2 0x12D JUMPI DUP1 PUSH4 0x70800537 EQ PUSH2 0x14B JUMPI DUP1 PUSH4 0xB6B55F25 EQ PUSH2 0x169 JUMPI DUP1 PUSH4 0xDBAC26E9 EQ PUSH2 0x185 JUMPI DUP1 PUSH4 0xF959F0FE EQ PUSH2 0x1B5 JUMPI PUSH2 0x91 JUMP JUMPDEST DUP1 PUSH4 0x11200D70 EQ PUSH2 0x95 JUMPI DUP1 PUSH4 0x16C38B3C EQ PUSH2 0xC5 JUMPI DUP1 PUSH4 0x27E235E3 EQ PUSH2 0xE1 JUMPI DUP1 PUSH4 0x458310EA EQ PUSH2 0x111 JUMPI JUMPDEST PUSH0 PUSH0 REVERT JUMPDEST PUSH2 0xAF PUSH1 0x4 DUP1 CALLDATASIZE SUB DUP2 ADD SWAP1 PUSH2 0xAA SWAP2 SWAP1 PUSH2 0x6B3 JUMP JUMPDEST PUSH2 0x1E5 JUMP JUMPDEST PUSH1 0x40 MLOAD PUSH2 0xBC SWAP2 SWAP1 PUSH2 0x74E JUMP JUMPDEST PUSH1 0x40 MLOAD DUP1 SWAP2 SUB SWAP1 RETURN JUMPDEST PUSH2 0xDF PUSH1 0x4 DUP1 CALLDATASIZE SUB DUP2 ADD SWAP1 PUSH2 0xDA SWAP2 SWAP1 PUSH2 0x7A3 JUMP JUMPDEST PUSH2 0x2AF JUMP JUMPDEST STOP JUMPDEST PUSH2 0xFB PUSH1 0x4 DUP1 CALLDATASIZE SUB DUP2 ADD SWAP1 PUSH2 0xF6 SWAP2 SWAP1 PUSH2 0x828 JUMP JUMPDEST PUSH2 0x2CB JUMP JUMPDEST PUSH1 0x40 MLOAD PUSH2 0x108 SWAP2 SWAP1 PUSH2 0x862 JUMP JUMPDEST PUSH1 0x40 MLOAD DUP1 SWAP2 SUB SWAP1 RETURN JUMPDEST PUSH2 0x12B PUSH1 0x4 DUP1 CALLDATASIZE SUB DUP2 ADD SWAP1 PUSH2 0x126 SWAP2 SWAP1 PUSH2 0x6B3 JUMP JUMPDEST PUSH2 0x2DF JUMP JUMPDEST STOP JUMPDEST PUSH2 0x135 PUSH2 0x434 JUMP JUMPDEST PUSH1 0x40 MLOAD PUSH2 0x142 SWAP2 SWAP1 PUSH2 0x88A JUMP JUMPDEST PUSH1 0x40 MLOAD DUP1 SWAP2 SUB SWAP1 RETURN JUMPDEST PUSH2 0x153 PUSH2 0x446 JUMP JUMPDEST PUSH1 0x40 MLOAD PUSH2 0x160 SWAP2 SWAP1 PUSH2 0x862 JUMP JUMPDEST PUSH1 0x40 MLOAD DUP1 SWAP2 SUB SWAP1 RETURN JUMPDEST PUSH2 0x183 PUSH1 0x4 DUP1 CALLDATASIZE SUB DUP2 ADD SWAP1 PUSH2 0x17E SWAP2 SWAP1 PUSH2 0x6B3 JUMP JUMPDEST PUSH2 0x44E JUMP JUMPDEST STOP JUMPDEST PUSH2 0x19F PUSH1 0x4 DUP1 CALLDATASIZE SUB DUP2 ADD SWAP1 PUSH2 0x19A SWAP2 SWAP1 PUSH2 0x828 JUMP JUMPDEST PUSH2 0x4C7 JUMP JUMPDEST PUSH1 0x40 MLOAD PUSH2 0x1AC SWAP2 SWAP1 PUSH2 0x88A JUMP JUMPDEST PUSH1 0x40 MLOAD DUP1 SWAP2 SUB SWAP1 RETURN JUMPDEST PUSH2 0x1CF PUSH1 0x4 DUP1 CALLDATASIZE SUB DUP2 ADD SWAP1 PUSH2 0x1CA SWAP2 SWAP1 PUSH2 0x8A3 JUMP JUMPDEST PUSH2 0x4E4 JUMP JUMPDEST PUSH1 0x40 MLOAD PUSH2 0x1DC SWAP2 SWAP1 PUSH2 0x74E JUMP JUMPDEST PUSH1 0x40 MLOAD DUP1 SWAP2 SUB SWAP1 RETURN JUMPDEST PUSH1 0x60 PUSH1 0x5A DUP3 LT PUSH2 0x22C JUMPI PUSH1 0x40 MLOAD DUP1 PUSH1 0x40 ADD PUSH1 0x40 MSTORE DUP1 PUSH1 0x5 DUP2 MSTORE PUSH1 0x20 ADD PUSH32 0x456C697465000000000000000000000000000000000000000000000000000000 DUP2 MSTORE POP SWAP1 POP PUSH2 0x2AA JUMP JUMPDEST PUSH1 0x32 DUP3 LT PUSH2 0x271 JUMPI PUSH1 0x40 MLOAD DUP1 PUSH1 0x40 ADD PUSH1 0x40 MSTORE DUP1 PUSH1 0x8 DUP2 MSTORE PUSH1 0x20 ADD PUSH32 0x5374616E64617264000000000000000000000000000000000000000000000000 DUP2 MSTORE POP SWAP1 POP PUSH2 0x2AA JUMP JUMPDEST PUSH1 0x40 MLOAD DUP1 PUSH1 0x40 ADD PUSH1 0x40 MSTORE DUP1 PUSH1 0x8 DUP2 MSTORE PUSH1 0x20 ADD PUSH32 0x52656A6563746564000000000000000000000000000000000000000000000000 DUP2 MSTORE POP SWAP1 POP JUMPDEST SWAP2 SWAP1 POP JUMP JUMPDEST DUP1 PUSH1 0x2 PUSH0 PUSH2 0x100 EXP DUP2 SLOAD DUP2 PUSH1 0xFF MUL NOT AND SWAP1 DUP4 ISZERO ISZERO MUL OR SWAP1 SSTORE POP POP JUMP JUMPDEST PUSH0 PUSH1 0x20 MSTORE DUP1 PUSH0 MSTORE PUSH1 0x40 PUSH0 KECCAK256 PUSH0 SWAP2 POP SWAP1 POP SLOAD DUP2 JUMP JUMPDEST PUSH1 0x2 PUSH0 SWAP1 SLOAD SWAP1 PUSH2 0x100 EXP SWAP1 DIV PUSH1 0xFF AND ISZERO PUSH2 0x325 JUMPI PUSH1 0x40 MLOAD PUSH32 0xAB35696F00000000000000000000000000000000000000000000000000000000 DUP2 MSTORE PUSH1 0x4 ADD PUSH1 0x40 MLOAD DUP1 SWAP2 SUB SWAP1 REVERT JUMPDEST PUSH1 0x1 PUSH0 CALLER PUSH20 0xFFFFFFFFFFFFFFFFFFFFFFFFFFFFFFFFFFFFFFFF AND PUSH20 0xFFFFFFFFFFFFFFFFFFFFFFFFFFFFFFFFFFFFFFFF AND DUP2 MSTORE PUSH1 0x20 ADD SWAP1 DUP2 MSTORE PUSH1 0x20 ADD PUSH0 KECCAK256 PUSH0 SWAP1 SLOAD SWAP1 PUSH2 0x100 EXP SWAP1 DIV PUSH1 0xFF AND ISZERO PUSH2 0x3A6 JUMPI PUSH1 0x40 MLOAD PUSH32 0xD9A60D2D00000000000000000000000000000000000000000000000000000000 DUP2 MSTORE PUSH1 0x4 ADD PUSH1 0x40 MLOAD DUP1 SWAP2 SUB SWAP1 REVERT JUMPDEST PUSH0 DUP2 SUB PUSH2 0x3DF JUMPI PUSH1 0x40 MLOAD PUSH32 0x1F2A200500000000000000000000000000000000000000000000000000000000 DUP2 MSTORE PUSH1 0x4 ADD PUSH1 0x40 MLOAD DUP1 SWAP2 SUB SWAP1 REVERT JUMPDEST DUP1 PUSH0 PUSH0 CALLER PUSH20 0xFFFFFFFFFFFFFFFFFFFFFFFFFFFFFFFFFFFFFFFF AND PUSH20 0xFFFFFFFFFFFFFFFFFFFFFFFFFFFFFFFFFFFFFFFF AND DUP2 MSTORE PUSH1 0x20 ADD SWAP1 DUP2 MSTORE PUSH1 0x20 ADD PUSH0 KECCAK256 PUSH0 DUP3 DUP3 SLOAD PUSH2 0x42A SWAP2 SWAP1 PUSH2 0x920 JUMP JUMPDEST SWAP3 POP POP DUP2 SWAP1 SSTORE POP POP JUMP JUMPDEST PUSH1 0x2 PUSH0 SWAP1 SLOAD SWAP1 PUSH2 0x100 EXP SWAP1 DIV PUSH1 0xFF AND DUP2 JUMP JUMPDEST PUSH0 PUSH1 0x64 SWAP1 POP SWAP1 JUMP JUMPDEST PUSH1 0x1 ISZERO ISZERO PUSH1 0x2 PUSH0 SWAP1 SLOAD SWAP1 PUSH2 0x100 EXP SWAP1 DIV PUSH1 0xFF AND ISZERO ISZERO SUB ISZERO PUSH2 0x4C4 JUMPI PUSH0 DUP2 SUB ISZERO PUSH2 0x4C4 JUMPI DUP1 PUSH0 PUSH0 CALLER PUSH20 0xFFFFFFFFFFFFFFFFFFFFFFFFFFFFFFFFFFFFFFFF AND PUSH20 0xFFFFFFFFFFFFFFFFFFFFFFFFFFFFFFFFFFFFFFFF AND DUP2 MSTORE PUSH1 0x20 ADD SWAP1 DUP2 MSTORE PUSH1 0x20 ADD PUSH0 KECCAK256 PUSH0 DUP3 DUP3 SLOAD PUSH2 0x4BC SWAP2 SWAP1 PUSH2 0x920 JUMP JUMPDEST SWAP3 POP POP DUP2 SWAP1 SSTORE POP JUMPDEST POP JUMP JUMPDEST PUSH1 0x1 PUSH1 0x20 MSTORE DUP1 PUSH0 MSTORE PUSH1 0x40 PUSH0 KECCAK256 PUSH0 SWAP2 POP SLOAD SWAP1 PUSH2 0x100 EXP SWAP1 DIV PUSH1 0xFF AND DUP2 JUMP JUMPDEST PUSH1 0x60 PUSH1 0x32 DUP5 LT ISZERO PUSH2 0x52C JUMPI PUSH1 0x40 MLOAD DUP1 PUSH1 0x40 ADD PUSH1 0x40 MSTORE DUP1 PUSH1 0x8 DUP2 MSTORE PUSH1 0x20 ADD PUSH32 0x52656A6563746564000000000000000000000000000000000000000000000000 DUP2 MSTORE POP SWAP1 POP PUSH2 0x675 JUMP JUMPDEST DUP2 ISZERO PUSH2 0x5B4 JUMPI PUSH1 0x5F DUP5 LT PUSH2 0x577 JUMPI PUSH1 0x40 MLOAD DUP1 PUSH1 0x40 ADD PUSH1 0x40 MSTORE DUP1 PUSH1 0x9 DUP2 MSTORE PUSH1 0x20 ADD PUSH32 0x56495020456C6974650000000000000000000000000000000000000000000000 DUP2 MSTORE POP SWAP1 POP PUSH2 0x675 JUMP JUMPDEST PUSH1 0x40 MLOAD DUP1 PUSH1 0x40 ADD PUSH1 0x40 MSTORE DUP1 PUSH1 0x3 DUP2 MSTORE PUSH1 0x20 ADD PUSH32 0x5649500000000000000000000000000000000000000000000000000000000000 DUP2 MSTORE POP SWAP1 POP PUSH2 0x675 JUMP JUMPDEST DUP3 ISZERO PUSH2 0x63C JUMPI PUSH1 0x5A DUP5 LT PUSH2 0x5FF JUMPI PUSH1 0x40 MLOAD DUP1 PUSH1 0x40 ADD PUSH1 0x40 MSTORE DUP1 PUSH1 0xD DUP2 MSTORE PUSH1 0x20 ADD PUSH32 0x456C697465205072656D69756D00000000000000000000000000000000000000 DUP2 MSTORE POP SWAP1 POP PUSH2 0x675 JUMP JUMPDEST PUSH1 0x40 MLOAD DUP1 PUSH1 0x40 ADD PUSH1 0x40 MSTORE DUP1 PUSH1 0x7 DUP2 MSTORE PUSH1 0x20 ADD PUSH32 0x5072656D69756D00000000000000000000000000000000000000000000000000 DUP2 MSTORE POP SWAP1 POP PUSH2 0x675 JUMP JUMPDEST PUSH1 0x40 MLOAD DUP1 PUSH1 0x40 ADD PUSH1 0x40 MSTORE DUP1 PUSH1 0x8 DUP2 MSTORE PUSH1 0x20 ADD PUSH32 0x5374616E64617264000000000000000000000000000000000000000000000000 DUP2 MSTORE POP SWAP1 POP JUMPDEST SWAP4 SWAP3 POP POP POP JUMP JUMPDEST PUSH0 PUSH0 REVERT JUMPDEST PUSH0 DUP2 SWAP1 POP SWAP2 SWAP1 POP JUMP JUMPDEST PUSH2 0x692 DUP2 PUSH2 0x680 JUMP JUMPDEST DUP2 EQ PUSH2 0x69C JUMPI PUSH0 PUSH0 REVERT JUMPDEST POP JUMP JUMPDEST PUSH0 DUP2 CALLDATALOAD SWAP1 POP PUSH2 0x6AD DUP2 PUSH2 0x689 JUMP JUMPDEST SWAP3 SWAP2 POP POP JUMP JUMPDEST PUSH0 PUSH1 0x20 DUP3 DUP5 SUB SLT ISZERO PUSH2 0x6C8 JUMPI PUSH2 0x6C7 PUSH2 0x67C JUMP JUMPDEST JUMPDEST PUSH0 PUSH2 0x6D5 DUP5 DUP3 DUP6 ADD PUSH2 0x69F JUMP JUMPDEST SWAP2 POP POP SWAP3 SWAP2 POP POP JUMP JUMPDEST PUSH0 DUP2 MLOAD SWAP1 POP SWAP2 SWAP1 POP JUMP JUMPDEST PUSH0 DUP3 DUP3 MSTORE PUSH1 0x20 DUP3 ADD SWAP1 POP SWAP3 SWAP2 POP POP JUMP JUMPDEST DUP3 DUP2 DUP4 MCOPY PUSH0 DUP4 DUP4 ADD MSTORE POP POP POP JUMP JUMPDEST PUSH0 PUSH1 0x1F NOT PUSH1 0x1F DUP4 ADD AND SWAP1 POP SWAP2 SWAP1 POP JUMP JUMPDEST PUSH0 PUSH2 0x720 DUP3 PUSH2 0x6DE JUMP JUMPDEST PUSH2 0x72A DUP2 DUP6 PUSH2 0x6E8 JUMP JUMPDEST SWAP4 POP PUSH2 0x73A DUP2 DUP6 PUSH1 0x20 DUP7 ADD PUSH2 0x6F8 JUMP JUMPDEST PUSH2 0x743 DUP2 PUSH2 0x706 JUMP JUMPDEST DUP5 ADD SWAP2 POP POP SWAP3 SWAP2 POP POP JUMP JUMPDEST PUSH0 PUSH1 0x20 DUP3 ADD SWAP1 POP DUP2 DUP2 SUB PUSH0 DUP4 ADD MSTORE PUSH2 0x766 DUP2 DUP5 PUSH2 0x716 JUMP JUMPDEST SWAP1 POP SWAP3 SWAP2 POP POP JUMP JUMPDEST PUSH0 DUP2 ISZERO ISZERO SWAP1 POP SWAP2 SWAP1 POP JUMP JUMPDEST PUSH2 0x782 DUP2 PUSH2 0x76E JUMP JUMPDEST DUP2 EQ PUSH2 0x78C JUMPI PUSH0 PUSH0 REVERT JUMPDEST POP JUMP JUMPDEST PUSH0 DUP2 CALLDATALOAD SWAP1 POP PUSH2 0x79D DUP2 PUSH2 0x779 JUMP JUMPDEST SWAP3 SWAP2 POP POP JUMP JUMPDEST PUSH0 PUSH1 0x20 DUP3 DUP5 SUB SLT ISZERO PUSH2 0x7B8 JUMPI PUSH2 0x7B7 PUSH2 0x67C JUMP JUMPDEST JUMPDEST PUSH0 PUSH2 0x7C5 DUP5 DUP3 DUP6 ADD PUSH2 0x78F JUMP JUMPDEST SWAP2 POP POP SWAP3 SWAP2 POP POP JUMP JUMPDEST PUSH0 PUSH20 0xFFFFFFFFFFFFFFFFFFFFFFFFFFFFFFFFFFFFFFFF DUP3 AND SWAP1 POP SWAP2 SWAP1 POP JUMP JUMPDEST PUSH0 PUSH2 0x7F7 DUP3 PUSH2 0x7CE JUMP JUMPDEST SWAP1 POP SWAP2 SWAP1 POP JUMP JUMPDEST PUSH2 0x807 DUP2 PUSH2 0x7ED JUMP JUMPDEST DUP2 EQ PUSH2 0x811 JUMPI PUSH0 PUSH0 REVERT JUMPDEST POP JUMP JUMPDEST PUSH0 DUP2 CALLDATALOAD SWAP1 POP PUSH2 0x822 DUP2 PUSH2 0x7FE JUMP JUMPDEST SWAP3 SWAP2 POP POP JUMP JUMPDEST PUSH0 PUSH1 0x20 DUP3 DUP5 SUB SLT ISZERO PUSH2 0x83D JUMPI PUSH2 0x83C PUSH2 0x67C JUMP JUMPDEST JUMPDEST PUSH0 PUSH2 0x84A DUP5 DUP3 DUP6 ADD PUSH2 0x814 JUMP JUMPDEST SWAP2 POP POP SWAP3 SWAP2 POP POP JUMP JUMPDEST PUSH2 0x85C DUP2 PUSH2 0x680 JUMP JUMPDEST DUP3 MSTORE POP POP JUMP JUMPDEST PUSH0 PUSH1 0x20 DUP3 ADD SWAP1 POP PUSH2 0x875 PUSH0 DUP4 ADD DUP5 PUSH2 0x853 JUMP JUMPDEST SWAP3 SWAP2 POP POP JUMP JUMPDEST PUSH2 0x884 DUP2 PUSH2 0x76E JUMP JUMPDEST DUP3 MSTORE POP POP JUMP JUMPDEST PUSH0 PUSH1 0x20 DUP3 ADD SWAP1 POP PUSH2 0x89D PUSH0 DUP4 ADD DUP5 PUSH2 0x87B JUMP JUMPDEST SWAP3 SWAP2 POP POP JUMP JUMPDEST PUSH0 PUSH0 PUSH0 PUSH1 0x60 DUP5 DUP7 SUB SLT ISZERO PUSH2 0x8BA JUMPI PUSH2 0x8B9 PUSH2 0x67C JUMP JUMPDEST JUMPDEST PUSH0 PUSH2 0x8C7 DUP7 DUP3 DUP8 ADD PUSH2 0x69F JUMP JUMPDEST SWAP4 POP POP PUSH1 0x20 PUSH2 0x8D8 DUP7 DUP3 DUP8 ADD PUSH2 0x78F JUMP JUMPDEST SWAP3 POP POP PUSH1 0x40 PUSH2 0x8E9 DUP7 DUP3 DUP8 ADD PUSH2 0x78F JUMP JUMPDEST SWAP2 POP POP SWAP3 POP SWAP3 POP SWAP3 JUMP JUMPDEST PUSH32 0x4E487B7100000000000000000000000000000000000000000000000000000000 PUSH0 MSTORE PUSH1 0x11 PUSH1 0x4 MSTORE PUSH1 0x24 PUSH0 REVERT JUMPDEST PUSH0 PUSH2 0x92A DUP3 PUSH2 0x680 JUMP JUMPDEST SWAP2 POP PUSH2 0x935 DUP4 PUSH2 0x680 JUMP JUMPDEST SWAP3 POP DUP3 DUP3 ADD SWAP1 POP DUP1 DUP3 GT ISZERO PUSH2 0x94D JUMPI PUSH2 0x94C PUSH2 0x8F3 JUMP JUMPDEST JUMPDEST SWAP3 SWAP2 POP POP JUMP INVALID LOG2 PUSH5 0x6970667358 0x22 SLT KECCAK256 0x2C PUSH13 0x54E804F5CF4CF76D6D76E02ACE GT 0xBC MULMOD 0x4C 0xB1 PUSH12 0x859ADA145334265A5F180B64 PUSH20 0x6F6C634300082200330000000000000000000000 "
				},
				"gasEstimates": {
					"creation": {
						"codeDepositCost": "488200",
						"executionCost": "522",
						"totalCost": "488722"
					},
					"external": {
						"balances(address)": "2846",
						"blacklisted(address)": "2899",
						"checkLevel(uint256)": "infinite",
						"deposit(uint256)": "infinite",
						"depositRequire(uint256)": "infinite",
						"evaluateUser(uint256,bool,bool)": "infinite",
						"paused()": "2466",
						"setPaused(bool)": "24696",
						"unreachableExample()": "354"
					}
				},
				"methodIdentifiers": {
					"balances(address)": "27e235e3",
					"blacklisted(address)": "dbac26e9",
					"checkLevel(uint256)": "11200d70",
					"deposit(uint256)": "b6b55f25",
					"depositRequire(uint256)": "458310ea",
					"evaluateUser(uint256,bool,bool)": "f959f0fe",
					"paused()": "5c975abb",
					"setPaused(bool)": "16c38b3c",
					"unreachableExample()": "70800537"
				}
			},
			"storageLayout": {
				"storage": [
					{
						"astId": 79,
						"contract": "val41.sol:EarlyReturnExample",
						"label": "balances",
						"offset": 0,
						"slot": "0",
						"type": "t_mapping(t_address,t_uint256)"
					},
					{
						"astId": 83,
						"contract": "val41.sol:EarlyReturnExample",
						"label": "blacklisted",
						"offset": 0,
						"slot": "1",
						"type": "t_mapping(t_address,t_bool)"
					},
					{
						"astId": 85,
						"contract": "val41.sol:EarlyReturnExample",
						"label": "paused",
						"offset": 0,
						"slot": "2",
						"type": "t_bool"
					}
				],
				"types": {
					"t_address": {
						"encoding": "inplace",
						"label": "address",
						"numberOfBytes": "20"
					},
					"t_bool": {
						"encoding": "inplace",
						"label": "bool",
						"numberOfBytes": "1"
					},
					"t_mapping(t_address,t_bool)": {
						"encoding": "mapping",
						"key": "t_address",
						"label": "mapping(address => bool)",
						"numberOfBytes": "32",
						"value": "t_bool"
					},
					"t_mapping(t_address,t_uint256)": {
						"encoding": "mapping",
						"key": "t_address",
						"label": "mapping(address => uint256)",
						"numberOfBytes": "32",
						"value": "t_uint256"
					},
					"t_uint256": {
						"encoding": "inplace",
						"label": "uint256",
						"numberOfBytes": "32"
					}
				}
			},
			"userdoc": {
				"kind": "user",
				"methods": {},
				"version": 1
			}
		}
	}
}