{
	"val68.sol": {
		"GasComparison": {
			"abi": [
				{
					"anonymous": false,
					"inputs": [
						{
							"indexed": false,
							"internalType": "string",
							"name": "operation",
							"type": "string"
						},
						{
							"indexed": false,
							"internalType": "uint256",
							"name": "gasUsed",
							"type": "uint256"
						}
					],
					"name": "GasMeasured",
					"type": "event"
				},
				{
					"inputs": [
						{
							"internalType": "uint256",
							"name": "a",
							"type": "uint256"
						},
						{
							"internalType": "uint256",
							"name": "b",
							"type": "uint256"
						}
					],
					"name": "calculateSum",
					"outputs": [
						{
							"internalType": "uint256",
							"name": "",
							"type": "uint256"
						}
					],
					"stateMutability": "pure",
					"type": "function"
				},
				{
					"inputs": [],
					"name": "compareMemoryVsStorage",
					"outputs": [],
					"stateMutability": "nonpayable",
					"type": "function"
				},
				{
					"inputs": [],
					"name": "contractBalance",
					"outputs": [
						{
							"internalType": "uint256",
							"name": "",
							"type": "uint256"
						}
					],
					"stateMutability": "view",
					"type": "function"
				},
				{
					"inputs": [],
					"name": "getArrayLength",
					"outputs": [
						{
							"internalType": "uint256",
							"name": "",
							"type": "uint256"
						}
					],
					"stateMutability": "view",
					"type": "function"
				},
				{
					"inputs": [],
					"name": "heavyStorageWrites",
					"outputs": [],
					"stateMutability": "nonpayable",
					"type": "function"
				},
				{
					"inputs": [],
					"name": "lastGasUsed",
					"outputs": [
						{
							"internalType": "uint256",
							"name": "",
							"type": "uint256"
						}
					],
					"stateMutability": "view",
					"type": "function"
				},
				{
					"inputs": [],
					"name": "memoryResult",
					"outputs": [
						{
							"internalType": "uint256",
							"name": "",
							"type": "uint256"
						}
					],
					"stateMutability": "view",
					"type": "function"
				},
				{
					"inputs": [],
					"name": "optimizedLoop",
					"outputs": [],
					"stateMutability": "nonpayable",
					"type": "function"
				},
				{
					"inputs": [],
					"name": "readStoredNumber",
					"outputs": [
						{
							"internalType": "uint256",
							"name": "",
							"type": "uint256"
						}
					],
					"stateMutability": "view",
					"type": "function"
				},
				{
					"inputs": [],
					"name": "storageResult",
					"outputs": [
						{
							"internalType": "uint256",
							"name": "",
							"type": "uint256"
						}
					],
					"stateMutability": "view",
					"type": "function"
				},
				{
					"inputs": [],
					"name": "storeManyValues",
					"outputs": [],
					"stateMutability": "nonpayable",
					"type": "function"
				},
				{
					"inputs": [
						{
							"internalType": "uint256",
							"name": "",
							"type": "uint256"
						}
					],
					"name": "storedMapping",
					"outputs": [
						{
							"internalType": "uint256",
							"name": "",
							"type": "uint256"
						}
					],
					"stateMutability": "view",
					"type": "function"
				},
				{
					"inputs": [],
					"name": "storedNumber",
					"outputs": [
						{
							"internalType": "uint256",
							"name": "",
							"type": "uint256"
						}
					],
					"stateMutability": "view",
					"type": "function"
				},
				{
					"inputs": [
						{
							"internalType": "uint256",
							"name": "_num",
							"type": "uint256"
						}
					],
					"name": "updateStoredNumber",
					"outputs": [],
					"stateMutability": "nonpayable",
					"type": "function"
				},
				{
					"inputs": [
						{
							"internalType": "uint256",
							"name": "",
							"type": "uint256"
						}
					],
					"name": "values",
					"outputs": [
						{
							"internalType": "uint256",
							"name": "",
							"type": "uint256"
						}
					],
					"stateMutability": "view",
					"type": "function"
				}
			],
			"devdoc": {
				"kind": "dev",
				"methods": {},
				"version": 1
			},
			"evm": {
				"assembly": "    /* \"val68.sol\":16797:20989  contract GasComparison {... */\n  mstore(0x40, 0x80)\n  callvalue\n  dup1\n  iszero\n  tag_1\n  jumpi\n  revert(0x00, 0x00)\ntag_1:\n  pop\n  dataSize(sub_0)\n  dup1\n  dataOffset(sub_0)\n  0x00\n  codecopy\n  0x00\n  return\nstop\n\nsub_0: assembly {\n        /* \"val68.sol\":16797:20989  contract GasComparison {... */\n      mstore(0x40, 0x80)\n      callvalue\n      dup1\n      iszero\n      tag_1\n      jumpi\n      revert(0x00, 0x00)\n    tag_1:\n      pop\n      jumpi(tag_2, lt(calldatasize, 0x04))\n      shr(0xe0, calldataload(0x00))\n      dup1\n      0x80217e46\n      gt\n      tag_18\n      jumpi\n      dup1\n      0x9c4fa45f\n      gt\n      tag_19\n      jumpi\n      dup1\n      0x9c4fa45f\n      eq\n      tag_14\n      jumpi\n      dup1\n      0xad018101\n      eq\n      tag_15\n      jumpi\n      dup1\n      0xea4097bd\n      eq\n      tag_16\n      jumpi\n      dup1\n      0xed905055\n      eq\n      tag_17\n      jumpi\n      jump(tag_2)\n    tag_19:\n      dup1\n      0x80217e46\n      eq\n      tag_10\n      jumpi\n      dup1\n      0x8b7afe2e\n      eq\n      tag_11\n      jumpi\n      dup1\n      0x95c570bd\n      eq\n      tag_12\n      jumpi\n      dup1\n      0x9b909df2\n      eq\n      tag_13\n      jumpi\n      jump(tag_2)\n    tag_18:\n      dup1\n      0x46f9bfc5\n      gt\n      tag_20\n      jumpi\n      dup1\n      0x46f9bfc5\n      eq\n      tag_6\n      jumpi\n      dup1\n      0x4a37bcbb\n      eq\n      tag_7\n      jumpi\n      dup1\n      0x5c993f95\n      eq\n      tag_8\n      jumpi\n      dup1\n      0x5e383d21\n      eq\n      tag_9\n      jumpi\n      jump(tag_2)\n    tag_20:\n      dup1\n      0x0849cc99\n      eq\n      tag_3\n      jumpi\n      dup1\n      0x09ce9ccb\n      eq\n      tag_4\n      jumpi\n      dup1\n      0x435fdb62\n      eq\n      tag_5\n      jumpi\n    tag_2:\n      revert(0x00, 0x00)\n        /* \"val68.sol\":20709:20840  function getArrayLength()... */\n    tag_3:\n      tag_21\n      tag_22\n      jump\t// in\n    tag_21:\n      mload(0x40)\n      tag_23\n      swap2\n      swap1\n      tag_24\n      jump\t// in\n    tag_23:\n      mload(0x40)\n      dup1\n      swap2\n      sub\n      swap1\n      return\n        /* \"val68.sol\":16871:16898  uint256 public storedNumber */\n    tag_4:\n      tag_25\n      tag_26\n      jump\t// in\n    tag_25:\n      mload(0x40)\n      tag_27\n      swap2\n      swap1\n      tag_24\n      jump\t// in\n    tag_27:\n      mload(0x40)\n      dup1\n      swap2\n      sub\n      swap1\n      return\n        /* \"val68.sol\":17002:17050  mapping(uint256 => uint256) public storedMapping */\n    tag_5:\n      tag_28\n      0x04\n      dup1\n      calldatasize\n      sub\n      dup2\n      add\n      swap1\n      tag_29\n      swap2\n      swap1\n      tag_30\n      jump\t// in\n    tag_29:\n      tag_31\n      jump\t// in\n    tag_28:\n      mload(0x40)\n      tag_32\n      swap2\n      swap1\n      tag_24\n      jump\t// in\n    tag_32:\n      mload(0x40)\n      dup1\n      swap2\n      sub\n      swap1\n      return\n        /* \"val68.sol\":17210:17238  uint256 public storageResult */\n    tag_6:\n      tag_33\n      tag_34\n      jump\t// in\n    tag_33:\n      mload(0x40)\n      tag_35\n      swap2\n      swap1\n      tag_24\n      jump\t// in\n    tag_35:\n      mload(0x40)\n      dup1\n      swap2\n      sub\n      swap1\n      return\n        /* \"val68.sol\":17145:17172  uint256 public memoryResult */\n    tag_7:\n      tag_36\n      tag_37\n      jump\t// in\n    tag_36:\n      mload(0x40)\n      tag_38\n      swap2\n      swap1\n      tag_24\n      jump\t// in\n    tag_38:\n      mload(0x40)\n      dup1\n      swap2\n      sub\n      swap1\n      return\n        /* \"val68.sol\":19201:19958  function compareMemoryVsStorage() external ... */\n    tag_8:\n      tag_39\n      tag_40\n      jump\t// in\n    tag_39:\n      stop\n        /* \"val68.sol\":16946:16969  uint256[] public values */\n    tag_9:\n      tag_41\n      0x04\n      dup1\n      calldatasize\n      sub\n      dup2\n      add\n      swap1\n      tag_42\n      swap2\n      swap1\n      tag_30\n      jump\t// in\n    tag_42:\n      tag_43\n      jump\t// in\n    tag_41:\n      mload(0x40)\n      tag_44\n      swap2\n      swap1\n      tag_24\n      jump\t// in\n    tag_44:\n      mload(0x40)\n      dup1\n      swap2\n      sub\n      swap1\n      return\n        /* \"val68.sol\":18725:19167  function heavyStorageWrites()... */\n    tag_10:\n      tag_45\n      tag_46\n      jump\t// in\n    tag_45:\n      stop\n        /* \"val68.sol\":20875:20986  function contractBalance() external view returns (uint256)... */\n    tag_11:\n      tag_47\n      tag_48\n      jump\t// in\n    tag_47:\n      mload(0x40)\n      tag_49\n      swap2\n      swap1\n      tag_24\n      jump\t// in\n    tag_49:\n      mload(0x40)\n      dup1\n      swap2\n      sub\n      swap1\n      return\n        /* \"val68.sol\":17082:17108  uint256 public lastGasUsed */\n    tag_12:\n      tag_50\n      tag_51\n      jump\t// in\n    tag_50:\n      mload(0x40)\n      tag_52\n      swap2\n      swap1\n      tag_24\n      jump\t// in\n    tag_52:\n      mload(0x40)\n      dup1\n      swap2\n      sub\n      swap1\n      return\n        /* \"val68.sol\":20371:20513  function storeManyValues() external ... */\n    tag_13:\n      tag_53\n      tag_54\n      jump\t// in\n    tag_53:\n      stop\n        /* \"val68.sol\":18338:18521  function updateStoredNumber(... */\n    tag_14:\n      tag_55\n      0x04\n      dup1\n      calldatasize\n      sub\n      dup2\n      add\n      swap1\n      tag_56\n      swap2\n      swap1\n      tag_30\n      jump\t// in\n    tag_56:\n      tag_57\n      jump\t// in\n    tag_55:\n      stop\n        /* \"val68.sol\":19989:20332  function optimizedLoop() external ... */\n    tag_15:\n      tag_58\n      tag_59\n      jump\t// in\n    tag_58:\n      stop\n        /* \"val68.sol\":17913:18139  function calculateSum(... */\n    tag_16:\n      tag_60\n      0x04\n      dup1\n      calldatasize\n      sub\n      dup2\n      add\n      swap1\n      tag_61\n      swap2\n      swap1\n      tag_62\n      jump\t// in\n    tag_61:\n      tag_63\n      jump\t// in\n    tag_60:\n      mload(0x40)\n      tag_64\n      swap2\n      swap1\n      tag_24\n      jump\t// in\n    tag_64:\n      mload(0x40)\n      dup1\n      swap2\n      sub\n      swap1\n      return\n        /* \"val68.sol\":17530:17719  function readStoredNumber()... */\n    tag_17:\n      tag_65\n      tag_66\n      jump\t// in\n    tag_65:\n      mload(0x40)\n      tag_67\n      swap2\n      swap1\n      tag_24\n      jump\t// in\n    tag_67:\n      mload(0x40)\n      dup1\n      swap2\n      sub\n      swap1\n      return\n        /* \"val68.sol\":20709:20840  function getArrayLength()... */\n    tag_22:\n        /* \"val68.sol\":20785:20792  uint256 */\n      0x00\n        /* \"val68.sol\":20819:20825  values */\n      0x01\n        /* \"val68.sol\":20819:20832  values.length */\n      dup1\n      sload\n      swap1\n      pop\n        /* \"val68.sol\":20812:20832  return values.length */\n      swap1\n      pop\n        /* \"val68.sol\":20709:20840  function getArrayLength()... */\n      swap1\n      jump\t// out\n        /* \"val68.sol\":16871:16898  uint256 public storedNumber */\n    tag_26:\n      sload(0x00)\n      dup2\n      jump\t// out\n        /* \"val68.sol\":17002:17050  mapping(uint256 => uint256) public storedMapping */\n    tag_31:\n      mstore(0x20, 0x02)\n      dup1\n      0x00\n      mstore\n      keccak256(0x00, 0x40)\n      0x00\n      swap2\n      pop\n      swap1\n      pop\n      sload\n      dup2\n      jump\t// out\n        /* \"val68.sol\":17210:17238  uint256 public storageResult */\n    tag_34:\n      sload(0x05)\n      dup2\n      jump\t// out\n        /* \"val68.sol\":17145:17172  uint256 public memoryResult */\n    tag_37:\n      sload(0x04)\n      dup2\n      jump\t// out\n        /* \"val68.sol\":19201:19958  function compareMemoryVsStorage() external ... */\n    tag_40:\n        /* \"val68.sol\":19261:19277  uint256 startGas */\n      0x00\n        /* \"val68.sol\":19280:19289  gasleft() */\n      gas\n        /* \"val68.sol\":19261:19289  uint256 startGas = gasleft() */\n      swap1\n      pop\n        /* \"val68.sol\":19325:19346  uint256[] memory temp */\n      0x00\n        /* \"val68.sol\":19363:19367  1000 */\n      0x03e8\n        /* \"val68.sol\":19349:19368  new uint256[](1000) */\n      0xffffffffffffffff\n      dup2\n      gt\n      iszero\n      tag_70\n      jumpi\n      tag_71\n      tag_72\n      jump\t// in\n    tag_71:\n    tag_70:\n      mload(0x40)\n      swap1\n      dup1\n      dup3\n      mstore\n      dup1\n      0x20\n      mul\n      0x20\n      add\n      dup3\n      add\n      0x40\n      mstore\n      dup1\n      iszero\n      tag_73\n      jumpi\n      dup2\n      0x20\n      add\n      0x20\n      dup3\n      mul\n      dup1\n      calldatasize\n      dup4\n      calldatacopy\n      dup1\n      dup3\n      add\n      swap2\n      pop\n      pop\n      swap1\n      pop\n    tag_73:\n      pop\n        /* \"val68.sol\":19325:19368  uint256[] memory temp = new uint256[](1000) */\n      swap1\n      pop\n        /* \"val68.sol\":19381:19390  uint256 i */\n      0x00\n        /* \"val68.sol\":19393:19394  0 */\n      0x00\n        /* \"val68.sol\":19381:19394  uint256 i = 0 */\n      swap1\n      pop\n        /* \"val68.sol\":19377:19446  for(uint256 i = 0; i < 1000; i++)... */\n    tag_74:\n        /* \"val68.sol\":19400:19404  1000 */\n      0x03e8\n        /* \"val68.sol\":19396:19397  i */\n      dup2\n        /* \"val68.sol\":19396:19404  i < 1000 */\n      lt\n        /* \"val68.sol\":19377:19446  for(uint256 i = 0; i < 1000; i++)... */\n      iszero\n      tag_75\n      jumpi\n        /* \"val68.sol\":19437:19438  i */\n      dup1\n        /* \"val68.sol\":19427:19431  temp */\n      dup3\n        /* \"val68.sol\":19432:19433  i */\n      dup3\n        /* \"val68.sol\":19427:19434  temp[i] */\n      dup2\n      mload\n      dup2\n      lt\n      tag_77\n      jumpi\n      tag_78\n      tag_79\n      jump\t// in\n    tag_78:\n    tag_77:\n      0x20\n      mul\n      0x20\n      add\n      add\n        /* \"val68.sol\":19427:19438  temp[i] = i */\n      dup2\n      dup2\n      mstore\n      pop\n      pop\n        /* \"val68.sol\":19406:19409  i++ */\n      dup1\n      dup1\n      0x01\n      add\n      swap2\n      pop\n      pop\n        /* \"val68.sol\":19377:19446  for(uint256 i = 0; i < 1000; i++)... */\n      jump(tag_74)\n    tag_75:\n      pop\n        /* \"val68.sol\":19496:19500  temp */\n      dup1\n        /* \"val68.sol\":19501:19504  999 */\n      0x03e7\n        /* \"val68.sol\":19496:19505  temp[999] */\n      dup2\n      mload\n      dup2\n      lt\n      tag_80\n      jumpi\n      tag_81\n      tag_79\n      jump\t// in\n    tag_81:\n    tag_80:\n      0x20\n      mul\n      0x20\n      add\n      add\n      mload\n        /* \"val68.sol\":19481:19493  memoryResult */\n      0x04\n        /* \"val68.sol\":19481:19505  memoryResult = temp[999] */\n      dup2\n      swap1\n      sstore\n      pop\n        /* \"val68.sol\":19514:19531  uint256 memoryGas */\n      0x00\n        /* \"val68.sol\":19545:19554  gasleft() */\n      gas\n        /* \"val68.sol\":19534:19542  startGas */\n      dup4\n        /* \"val68.sol\":19534:19554  startGas - gasleft() */\n      tag_82\n      swap2\n      swap1\n      tag_83\n      jump\t// in\n    tag_82:\n        /* \"val68.sol\":19514:19554  uint256 memoryGas = startGas - gasleft() */\n      swap1\n      pop\n        /* \"val68.sol\":19568:19607  GasMeasured(\"Memory Writes\", memoryGas) */\n      0x4d605d112b717b70b80f393cc6a0239ae0459508e54af125ee28f92acbf7fc49\n        /* \"val68.sol\":19597:19606  memoryGas */\n      dup2\n        /* \"val68.sol\":19568:19607  GasMeasured(\"Memory Writes\", memoryGas) */\n      mload(0x40)\n      tag_84\n      swap2\n      swap1\n      tag_85\n      jump\t// in\n    tag_84:\n      mload(0x40)\n      dup1\n      swap2\n      sub\n      swap1\n      log1\n        /* \"val68.sol\":19651:19660  gasleft() */\n      gas\n        /* \"val68.sol\":19640:19660  startGas = gasleft() */\n      swap3\n      pop\n        /* \"val68.sol\":19671:19680  uint256 i */\n      0x00\n        /* \"val68.sol\":19683:19684  0 */\n      0x00\n        /* \"val68.sol\":19671:19684  uint256 i = 0 */\n      swap1\n      pop\n        /* \"val68.sol\":19667:19739  for(uint256 i = 0; i < 1000; i++)... */\n    tag_86:\n        /* \"val68.sol\":19690:19694  1000 */\n      0x03e8\n        /* \"val68.sol\":19686:19687  i */\n      dup2\n        /* \"val68.sol\":19686:19694  i < 1000 */\n      lt\n        /* \"val68.sol\":19667:19739  for(uint256 i = 0; i < 1000; i++)... */\n      iszero\n      tag_87\n      jumpi\n        /* \"val68.sol\":19717:19723  values */\n      0x01\n        /* \"val68.sol\":19729:19730  i */\n      dup2\n        /* \"val68.sol\":19717:19731  values.push(i) */\n      swap1\n      dup1\n      0x01\n      dup2\n      sload\n      add\n      dup1\n      dup3\n      sstore\n      dup1\n      swap2\n      pop\n      pop\n      0x01\n      swap1\n      sub\n      swap1\n      0x00\n      mstore\n      keccak256(0x00, 0x20)\n      add\n      0x00\n      swap1\n      swap2\n      swap1\n      swap2\n      swap1\n      swap2\n      pop\n      sstore\n        /* \"val68.sol\":19696:19699  i++ */\n      dup1\n      dup1\n      0x01\n      add\n      swap2\n      pop\n      pop\n        /* \"val68.sol\":19667:19739  for(uint256 i = 0; i < 1000; i++)... */\n      jump(tag_86)\n    tag_87:\n      pop\n        /* \"val68.sol\":19774:19780  values */\n      0x01\n        /* \"val68.sol\":19774:19787  values.length */\n      dup1\n      sload\n      swap1\n      pop\n        /* \"val68.sol\":19745:19758  storageResult */\n      0x05\n        /* \"val68.sol\":19745:19787  storageResult =... */\n      dup2\n      swap1\n      sstore\n      pop\n        /* \"val68.sol\":19800:19818  uint256 storageGas */\n      0x00\n        /* \"val68.sol\":19845:19854  gasleft() */\n      gas\n        /* \"val68.sol\":19834:19842  startGas */\n      dup5\n        /* \"val68.sol\":19834:19854  startGas - gasleft() */\n      tag_90\n      swap2\n      swap1\n      tag_83\n      jump\t// in\n    tag_90:\n        /* \"val68.sol\":19800:19854  uint256 storageGas =... */\n      swap1\n      pop\n        /* \"val68.sol\":19872:19950  GasMeasured(... */\n      0x4d605d112b717b70b80f393cc6a0239ae0459508e54af125ee28f92acbf7fc49\n        /* \"val68.sol\":19929:19939  storageGas */\n      dup2\n        /* \"val68.sol\":19872:19950  GasMeasured(... */\n      mload(0x40)\n      tag_91\n      swap2\n      swap1\n      tag_92\n      jump\t// in\n    tag_91:\n      mload(0x40)\n      dup1\n      swap2\n      sub\n      swap1\n      log1\n        /* \"val68.sol\":19250:19958  {... */\n      pop\n      pop\n      pop\n      pop\n        /* \"val68.sol\":19201:19958  function compareMemoryVsStorage() external ... */\n      jump\t// out\n        /* \"val68.sol\":16946:16969  uint256[] public values */\n    tag_43:\n      0x01\n      dup2\n      dup2\n      sload\n      dup2\n      lt\n      tag_93\n      jumpi\n      0x00\n      dup1\n      revert\n    tag_93:\n      swap1\n      0x00\n      mstore\n      keccak256(0x00, 0x20)\n      add\n      0x00\n      swap2\n      pop\n      swap1\n      pop\n      sload\n      dup2\n      jump\t// out\n        /* \"val68.sol\":18725:19167  function heavyStorageWrites()... */\n    tag_46:\n        /* \"val68.sol\":18789:18805  uint256 startGas */\n      0x00\n        /* \"val68.sol\":18808:18817  gasleft() */\n      gas\n        /* \"val68.sol\":18789:18817  uint256 startGas = gasleft() */\n      swap1\n      pop\n        /* \"val68.sol\":18864:18873  uint256 i */\n      0x00\n        /* \"val68.sol\":18876:18877  0 */\n      0x00\n        /* \"val68.sol\":18864:18877  uint256 i = 0 */\n      swap1\n      pop\n        /* \"val68.sol\":18860:19011  for(uint256 i = 0; i < 1000; i++)... */\n    tag_96:\n        /* \"val68.sol\":18883:18887  1000 */\n      0x03e8\n        /* \"val68.sol\":18879:18880  i */\n      dup2\n        /* \"val68.sol\":18879:18887  i < 1000 */\n      lt\n        /* \"val68.sol\":18860:19011  for(uint256 i = 0; i < 1000; i++)... */\n      iszero\n      tag_97\n      jumpi\n        /* \"val68.sol\":18918:18924  values */\n      0x01\n        /* \"val68.sol\":18930:18931  i */\n      dup2\n        /* \"val68.sol\":18918:18932  values.push(i) */\n      swap1\n      dup1\n      0x01\n      dup2\n      sload\n      add\n      dup1\n      dup3\n      sstore\n      dup1\n      swap2\n      pop\n      pop\n      0x01\n      swap1\n      sub\n      swap1\n      0x00\n      mstore\n      keccak256(0x00, 0x20)\n      add\n      0x00\n      swap1\n      swap2\n      swap1\n      swap2\n      swap1\n      swap2\n      pop\n      sstore\n        /* \"val68.sol\":18998:18999  i */\n      dup1\n        /* \"val68.sol\":18979:18992  storedMapping */\n      0x02\n        /* \"val68.sol\":18979:18995  storedMapping[i] */\n      0x00\n        /* \"val68.sol\":18993:18994  i */\n      dup4\n        /* \"val68.sol\":18979:18995  storedMapping[i] */\n      dup2\n      mstore\n      0x20\n      add\n      swap1\n      dup2\n      mstore\n      0x20\n      add\n      0x00\n      keccak256\n        /* \"val68.sol\":18979:18999  storedMapping[i] = i */\n      dup2\n      swap1\n      sstore\n      pop\n        /* \"val68.sol\":18889:18892  i++ */\n      dup1\n      dup1\n      0x01\n      add\n      swap2\n      pop\n      pop\n        /* \"val68.sol\":18860:19011  for(uint256 i = 0; i < 1000; i++)... */\n      jump(tag_96)\n    tag_97:\n      pop\n        /* \"val68.sol\":19075:19084  gasleft() */\n      gas\n        /* \"val68.sol\":19064:19072  startGas */\n      dup2\n        /* \"val68.sol\":19064:19084  startGas - gasleft() */\n      tag_100\n      swap2\n      swap1\n      tag_83\n      jump\t// in\n    tag_100:\n        /* \"val68.sol\":19050:19061  lastGasUsed */\n      0x03\n        /* \"val68.sol\":19050:19084  lastGasUsed = startGas - gasleft() */\n      dup2\n      swap1\n      sstore\n      pop\n        /* \"val68.sol\":19102:19150  GasMeasured(\"Heavy Storage Writes\", lastGasUsed) */\n      0x4d605d112b717b70b80f393cc6a0239ae0459508e54af125ee28f92acbf7fc49\n        /* \"val68.sol\":19138:19149  lastGasUsed */\n      sload(0x03)\n        /* \"val68.sol\":19102:19150  GasMeasured(\"Heavy Storage Writes\", lastGasUsed) */\n      mload(0x40)\n      tag_101\n      swap2\n      swap1\n      tag_102\n      jump\t// in\n    tag_101:\n      mload(0x40)\n      dup1\n      swap2\n      sub\n      swap1\n      log1\n        /* \"val68.sol\":18778:19167  {... */\n      pop\n        /* \"val68.sol\":18725:19167  function heavyStorageWrites()... */\n      jump\t// out\n        /* \"val68.sol\":20875:20986  function contractBalance() external view returns (uint256)... */\n    tag_48:\n        /* \"val68.sol\":20925:20932  uint256 */\n      0x00\n        /* \"val68.sol\":20957:20978  address(this).balance */\n      selfbalance\n        /* \"val68.sol\":20950:20978  return address(this).balance */\n      swap1\n      pop\n        /* \"val68.sol\":20875:20986  function contractBalance() external view returns (uint256)... */\n      swap1\n      jump\t// out\n        /* \"val68.sol\":17082:17108  uint256 public lastGasUsed */\n    tag_51:\n      sload(0x03)\n      dup2\n      jump\t// out\n        /* \"val68.sol\":20371:20513  function storeManyValues() external ... */\n    tag_54:\n        /* \"val68.sol\":20428:20437  uint256 i */\n      0x00\n        /* \"val68.sol\":20440:20441  0 */\n      0x00\n        /* \"val68.sol\":20428:20441  uint256 i = 0 */\n      swap1\n      pop\n        /* \"val68.sol\":20424:20506  for(uint256 i = 0; i < 10; i++)... */\n    tag_105:\n        /* \"val68.sol\":20447:20449  10 */\n      0x0a\n        /* \"val68.sol\":20443:20444  i */\n      dup2\n        /* \"val68.sol\":20443:20449  i < 10 */\n      lt\n        /* \"val68.sol\":20424:20506  for(uint256 i = 0; i < 10; i++)... */\n      iszero\n      tag_106\n      jumpi\n        /* \"val68.sol\":20480:20486  values */\n      0x01\n        /* \"val68.sol\":20492:20493  i */\n      dup2\n        /* \"val68.sol\":20480:20494  values.push(i) */\n      swap1\n      dup1\n      0x01\n      dup2\n      sload\n      add\n      dup1\n      dup3\n      sstore\n      dup1\n      swap2\n      pop\n      pop\n      0x01\n      swap1\n      sub\n      swap1\n      0x00\n      mstore\n      keccak256(0x00, 0x20)\n      add\n      0x00\n      swap1\n      swap2\n      swap1\n      swap2\n      swap1\n      swap2\n      pop\n      sstore\n        /* \"val68.sol\":20451:20454  i++ */\n      dup1\n      dup1\n      0x01\n      add\n      swap2\n      pop\n      pop\n        /* \"val68.sol\":20424:20506  for(uint256 i = 0; i < 10; i++)... */\n      jump(tag_105)\n    tag_106:\n      pop\n        /* \"val68.sol\":20371:20513  function storeManyValues() external ... */\n      jump\t// out\n        /* \"val68.sol\":18338:18521  function updateStoredNumber(... */\n    tag_57:\n        /* \"val68.sol\":18509:18513  _num */\n      dup1\n        /* \"val68.sol\":18494:18506  storedNumber */\n      0x00\n        /* \"val68.sol\":18494:18513  storedNumber = _num */\n      dup2\n      swap1\n      sstore\n      pop\n        /* \"val68.sol\":18338:18521  function updateStoredNumber(... */\n      pop\n      jump\t// out\n        /* \"val68.sol\":19989:20332  function optimizedLoop() external ... */\n    tag_59:\n        /* \"val68.sol\":20040:20056  uint256 startGas */\n      0x00\n        /* \"val68.sol\":20059:20068  gasleft() */\n      gas\n        /* \"val68.sol\":20040:20068  uint256 startGas = gasleft() */\n      swap1\n      pop\n        /* \"val68.sol\":20081:20092  uint256 sum */\n      0x00\n        /* \"val68.sol\":20095:20096  0 */\n      0x00\n        /* \"val68.sol\":20081:20096  uint256 sum = 0 */\n      swap1\n      pop\n        /* \"val68.sol\":20113:20122  uint256 i */\n      0x00\n        /* \"val68.sol\":20125:20126  0 */\n      0x00\n        /* \"val68.sol\":20113:20126  uint256 i = 0 */\n      swap1\n      pop\n        /* \"val68.sol\":20109:20187  for(uint256 i = 0; i < 1000; i++)... */\n    tag_111:\n        /* \"val68.sol\":20132:20136  1000 */\n      0x03e8\n        /* \"val68.sol\":20128:20129  i */\n      dup2\n        /* \"val68.sol\":20128:20136  i < 1000 */\n      lt\n        /* \"val68.sol\":20109:20187  for(uint256 i = 0; i < 1000; i++)... */\n      iszero\n      tag_112\n      jumpi\n        /* \"val68.sol\":20174:20175  i */\n      dup1\n        /* \"val68.sol\":20167:20175  sum += i */\n      dup3\n      tag_114\n      swap2\n      swap1\n      tag_115\n      jump\t// in\n    tag_114:\n      swap2\n      pop\n        /* \"val68.sol\":20138:20141  i++ */\n      dup1\n      dup1\n      0x01\n      add\n      swap2\n      pop\n      pop\n        /* \"val68.sol\":20109:20187  for(uint256 i = 0; i < 1000; i++)... */\n      jump(tag_111)\n    tag_112:\n      pop\n        /* \"val68.sol\":20214:20217  sum */\n      dup1\n        /* \"val68.sol\":20199:20211  storedNumber */\n      0x00\n        /* \"val68.sol\":20199:20217  storedNumber = sum */\n      dup2\n      swap1\n      sstore\n      pop\n        /* \"val68.sol\":20255:20264  gasleft() */\n      gas\n        /* \"val68.sol\":20244:20252  startGas */\n      dup3\n        /* \"val68.sol\":20244:20264  startGas - gasleft() */\n      tag_116\n      swap2\n      swap1\n      tag_83\n      jump\t// in\n    tag_116:\n        /* \"val68.sol\":20230:20241  lastGasUsed */\n      0x03\n        /* \"val68.sol\":20230:20264  lastGasUsed = startGas - gasleft() */\n      dup2\n      swap1\n      sstore\n      pop\n        /* \"val68.sol\":20282:20324  GasMeasured(\"Optimized Loop\", lastGasUsed) */\n      0x4d605d112b717b70b80f393cc6a0239ae0459508e54af125ee28f92acbf7fc49\n        /* \"val68.sol\":20312:20323  lastGasUsed */\n      sload(0x03)\n        /* \"val68.sol\":20282:20324  GasMeasured(\"Optimized Loop\", lastGasUsed) */\n      mload(0x40)\n      tag_117\n      swap2\n      swap1\n      tag_118\n      jump\t// in\n    tag_117:\n      mload(0x40)\n      dup1\n      swap2\n      sub\n      swap1\n      log1\n        /* \"val68.sol\":20029:20332  {... */\n      pop\n      pop\n        /* \"val68.sol\":19989:20332  function optimizedLoop() external ... */\n      jump\t// out\n        /* \"val68.sol\":17913:18139  function calculateSum(... */\n    tag_63:\n        /* \"val68.sol\":18032:18039  uint256 */\n      0x00\n        /* \"val68.sol\":18130:18131  b */\n      dup2\n        /* \"val68.sol\":18126:18127  a */\n      dup4\n        /* \"val68.sol\":18126:18131  a + b */\n      tag_120\n      swap2\n      swap1\n      tag_115\n      jump\t// in\n    tag_120:\n        /* \"val68.sol\":18119:18131  return a + b */\n      swap1\n      pop\n        /* \"val68.sol\":17913:18139  function calculateSum(... */\n      swap3\n      swap2\n      pop\n      pop\n      jump\t// out\n        /* \"val68.sol\":17530:17719  function readStoredNumber()... */\n    tag_66:\n        /* \"val68.sol\":17608:17615  uint256 */\n      0x00\n        /* \"val68.sol\":17699:17711  storedNumber */\n      sload(0x00)\n        /* \"val68.sol\":17692:17711  return storedNumber */\n      swap1\n      pop\n        /* \"val68.sol\":17530:17719  function readStoredNumber()... */\n      swap1\n      jump\t// out\n        /* \"#utility.yul\":7:84   */\n    tag_122:\n        /* \"#utility.yul\":44:51   */\n      0x00\n        /* \"#utility.yul\":73:78   */\n      dup2\n        /* \"#utility.yul\":62:78   */\n      swap1\n      pop\n        /* \"#utility.yul\":7:84   */\n      swap2\n      swap1\n      pop\n      jump\t// out\n        /* \"#utility.yul\":90:208   */\n    tag_123:\n        /* \"#utility.yul\":177:201   */\n      tag_142\n        /* \"#utility.yul\":195:200   */\n      dup2\n        /* \"#utility.yul\":177:201   */\n      tag_122\n      jump\t// in\n    tag_142:\n        /* \"#utility.yul\":172:175   */\n      dup3\n        /* \"#utility.yul\":165:202   */\n      mstore\n        /* \"#utility.yul\":90:208   */\n      pop\n      pop\n      jump\t// out\n        /* \"#utility.yul\":214:436   */\n    tag_24:\n        /* \"#utility.yul\":307:311   */\n      0x00\n        /* \"#utility.yul\":345:347   */\n      0x20\n        /* \"#utility.yul\":334:343   */\n      dup3\n        /* \"#utility.yul\":330:348   */\n      add\n        /* \"#utility.yul\":322:348   */\n      swap1\n      pop\n        /* \"#utility.yul\":358:429   */\n      tag_144\n        /* \"#utility.yul\":426:427   */\n      0x00\n        /* \"#utility.yul\":415:424   */\n      dup4\n        /* \"#utility.yul\":411:428   */\n      add\n        /* \"#utility.yul\":402:408   */\n      dup5\n        /* \"#utility.yul\":358:429   */\n      tag_123\n      jump\t// in\n    tag_144:\n        /* \"#utility.yul\":214:436   */\n      swap3\n      swap2\n      pop\n      pop\n      jump\t// out\n        /* \"#utility.yul\":523:640   */\n    tag_125:\n        /* \"#utility.yul\":632:633   */\n      0x00\n        /* \"#utility.yul\":629:630   */\n      0x00\n        /* \"#utility.yul\":622:634   */\n      revert\n        /* \"#utility.yul\":769:891   */\n    tag_127:\n        /* \"#utility.yul\":842:866   */\n      tag_149\n        /* \"#utility.yul\":860:865   */\n      dup2\n        /* \"#utility.yul\":842:866   */\n      tag_122\n      jump\t// in\n    tag_149:\n        /* \"#utility.yul\":835:840   */\n      dup2\n        /* \"#utility.yul\":832:867   */\n      eq\n        /* \"#utility.yul\":822:885   */\n      tag_150\n      jumpi\n        /* \"#utility.yul\":881:882   */\n      0x00\n        /* \"#utility.yul\":878:879   */\n      0x00\n        /* \"#utility.yul\":871:883   */\n      revert\n        /* \"#utility.yul\":822:885   */\n    tag_150:\n        /* \"#utility.yul\":769:891   */\n      pop\n      jump\t// out\n        /* \"#utility.yul\":897:1036   */\n    tag_128:\n        /* \"#utility.yul\":943:948   */\n      0x00\n        /* \"#utility.yul\":981:987   */\n      dup2\n        /* \"#utility.yul\":968:988   */\n      calldataload\n        /* \"#utility.yul\":959:988   */\n      swap1\n      pop\n        /* \"#utility.yul\":997:1030   */\n      tag_152\n        /* \"#utility.yul\":1024:1029   */\n      dup2\n        /* \"#utility.yul\":997:1030   */\n      tag_127\n      jump\t// in\n    tag_152:\n        /* \"#utility.yul\":897:1036   */\n      swap3\n      swap2\n      pop\n      pop\n      jump\t// out\n        /* \"#utility.yul\":1042:1371   */\n    tag_30:\n        /* \"#utility.yul\":1101:1107   */\n      0x00\n        /* \"#utility.yul\":1150:1152   */\n      0x20\n        /* \"#utility.yul\":1138:1147   */\n      dup3\n        /* \"#utility.yul\":1129:1136   */\n      dup5\n        /* \"#utility.yul\":1125:1148   */\n      sub\n        /* \"#utility.yul\":1121:1153   */\n      slt\n        /* \"#utility.yul\":1118:1237   */\n      iszero\n      tag_154\n      jumpi\n        /* \"#utility.yul\":1156:1235   */\n      tag_155\n      tag_125\n      jump\t// in\n    tag_155:\n        /* \"#utility.yul\":1118:1237   */\n    tag_154:\n        /* \"#utility.yul\":1276:1277   */\n      0x00\n        /* \"#utility.yul\":1301:1354   */\n      tag_156\n        /* \"#utility.yul\":1346:1353   */\n      dup5\n        /* \"#utility.yul\":1337:1343   */\n      dup3\n        /* \"#utility.yul\":1326:1335   */\n      dup6\n        /* \"#utility.yul\":1322:1344   */\n      add\n        /* \"#utility.yul\":1301:1354   */\n      tag_128\n      jump\t// in\n    tag_156:\n        /* \"#utility.yul\":1291:1354   */\n      swap2\n      pop\n        /* \"#utility.yul\":1247:1364   */\n      pop\n        /* \"#utility.yul\":1042:1371   */\n      swap3\n      swap2\n      pop\n      pop\n      jump\t// out\n        /* \"#utility.yul\":1377:1851   */\n    tag_62:\n        /* \"#utility.yul\":1445:1451   */\n      0x00\n        /* \"#utility.yul\":1453:1459   */\n      0x00\n        /* \"#utility.yul\":1502:1504   */\n      0x40\n        /* \"#utility.yul\":1490:1499   */\n      dup4\n        /* \"#utility.yul\":1481:1488   */\n      dup6\n        /* \"#utility.yul\":1477:1500   */\n      sub\n        /* \"#utility.yul\":1473:1505   */\n      slt\n        /* \"#utility.yul\":1470:1589   */\n      iszero\n      tag_158\n      jumpi\n        /* \"#utility.yul\":1508:1587   */\n      tag_159\n      tag_125\n      jump\t// in\n    tag_159:\n        /* \"#utility.yul\":1470:1589   */\n    tag_158:\n        /* \"#utility.yul\":1628:1629   */\n      0x00\n        /* \"#utility.yul\":1653:1706   */\n      tag_160\n        /* \"#utility.yul\":1698:1705   */\n      dup6\n        /* \"#utility.yul\":1689:1695   */\n      dup3\n        /* \"#utility.yul\":1678:1687   */\n      dup7\n        /* \"#utility.yul\":1674:1696   */\n      add\n        /* \"#utility.yul\":1653:1706   */\n      tag_128\n      jump\t// in\n    tag_160:\n        /* \"#utility.yul\":1643:1706   */\n      swap3\n      pop\n        /* \"#utility.yul\":1599:1716   */\n      pop\n        /* \"#utility.yul\":1755:1757   */\n      0x20\n        /* \"#utility.yul\":1781:1834   */\n      tag_161\n        /* \"#utility.yul\":1826:1833   */\n      dup6\n        /* \"#utility.yul\":1817:1823   */\n      dup3\n        /* \"#utility.yul\":1806:1815   */\n      dup7\n        /* \"#utility.yul\":1802:1824   */\n      add\n        /* \"#utility.yul\":1781:1834   */\n      tag_128\n      jump\t// in\n    tag_161:\n        /* \"#utility.yul\":1771:1834   */\n      swap2\n      pop\n        /* \"#utility.yul\":1726:1844   */\n      pop\n        /* \"#utility.yul\":1377:1851   */\n      swap3\n      pop\n      swap3\n      swap1\n      pop\n      jump\t// out\n        /* \"#utility.yul\":1857:2037   */\n    tag_72:\n        /* \"#utility.yul\":1905:1982   */\n      0x4e487b7100000000000000000000000000000000000000000000000000000000\n        /* \"#utility.yul\":1902:1903   */\n      0x00\n        /* \"#utility.yul\":1895:1983   */\n      mstore\n        /* \"#utility.yul\":2002:2006   */\n      0x41\n        /* \"#utility.yul\":1999:2000   */\n      0x04\n        /* \"#utility.yul\":1992:2007   */\n      mstore\n        /* \"#utility.yul\":2026:2030   */\n      0x24\n        /* \"#utility.yul\":2023:2024   */\n      0x00\n        /* \"#utility.yul\":2016:2031   */\n      revert\n        /* \"#utility.yul\":2043:2223   */\n    tag_79:\n        /* \"#utility.yul\":2091:2168   */\n      0x4e487b7100000000000000000000000000000000000000000000000000000000\n        /* \"#utility.yul\":2088:2089   */\n      0x00\n        /* \"#utility.yul\":2081:2169   */\n      mstore\n        /* \"#utility.yul\":2188:2192   */\n      0x32\n        /* \"#utility.yul\":2185:2186   */\n      0x04\n        /* \"#utility.yul\":2178:2193   */\n      mstore\n        /* \"#utility.yul\":2212:2216   */\n      0x24\n        /* \"#utility.yul\":2209:2210   */\n      0x00\n        /* \"#utility.yul\":2202:2217   */\n      revert\n        /* \"#utility.yul\":2229:2409   */\n    tag_129:\n        /* \"#utility.yul\":2277:2354   */\n      0x4e487b7100000000000000000000000000000000000000000000000000000000\n        /* \"#utility.yul\":2274:2275   */\n      0x00\n        /* \"#utility.yul\":2267:2355   */\n      mstore\n        /* \"#utility.yul\":2374:2378   */\n      0x11\n        /* \"#utility.yul\":2371:2372   */\n      0x04\n        /* \"#utility.yul\":2364:2379   */\n      mstore\n        /* \"#utility.yul\":2398:2402   */\n      0x24\n        /* \"#utility.yul\":2395:2396   */\n      0x00\n        /* \"#utility.yul\":2388:2403   */\n      revert\n        /* \"#utility.yul\":2415:2609   */\n    tag_83:\n        /* \"#utility.yul\":2455:2459   */\n      0x00\n        /* \"#utility.yul\":2475:2495   */\n      tag_166\n        /* \"#utility.yul\":2493:2494   */\n      dup3\n        /* \"#utility.yul\":2475:2495   */\n      tag_122\n      jump\t// in\n    tag_166:\n        /* \"#utility.yul\":2470:2495   */\n      swap2\n      pop\n        /* \"#utility.yul\":2509:2529   */\n      tag_167\n        /* \"#utility.yul\":2527:2528   */\n      dup4\n        /* \"#utility.yul\":2509:2529   */\n      tag_122\n      jump\t// in\n    tag_167:\n        /* \"#utility.yul\":2504:2529   */\n      swap3\n      pop\n        /* \"#utility.yul\":2553:2554   */\n      dup3\n        /* \"#utility.yul\":2550:2551   */\n      dup3\n        /* \"#utility.yul\":2546:2555   */\n      sub\n        /* \"#utility.yul\":2538:2555   */\n      swap1\n      pop\n        /* \"#utility.yul\":2577:2578   */\n      dup2\n        /* \"#utility.yul\":2571:2575   */\n      dup2\n        /* \"#utility.yul\":2568:2579   */\n      gt\n        /* \"#utility.yul\":2565:2602   */\n      iszero\n      tag_168\n      jumpi\n        /* \"#utility.yul\":2582:2600   */\n      tag_169\n      tag_129\n      jump\t// in\n    tag_169:\n        /* \"#utility.yul\":2565:2602   */\n    tag_168:\n        /* \"#utility.yul\":2415:2609   */\n      swap3\n      swap2\n      pop\n      pop\n      jump\t// out\n        /* \"#utility.yul\":2615:2784   */\n    tag_130:\n        /* \"#utility.yul\":2699:2710   */\n      0x00\n        /* \"#utility.yul\":2733:2739   */\n      dup3\n        /* \"#utility.yul\":2728:2731   */\n      dup3\n        /* \"#utility.yul\":2721:2740   */\n      mstore\n        /* \"#utility.yul\":2773:2777   */\n      0x20\n        /* \"#utility.yul\":2768:2771   */\n      dup3\n        /* \"#utility.yul\":2764:2778   */\n      add\n        /* \"#utility.yul\":2749:2778   */\n      swap1\n      pop\n        /* \"#utility.yul\":2615:2784   */\n      swap3\n      swap2\n      pop\n      pop\n      jump\t// out\n        /* \"#utility.yul\":2790:2953   */\n    tag_131:\n        /* \"#utility.yul\":2930:2945   */\n      0x4d656d6f72792057726974657300000000000000000000000000000000000000\n        /* \"#utility.yul\":2926:2927   */\n      0x00\n        /* \"#utility.yul\":2918:2924   */\n      dup3\n        /* \"#utility.yul\":2914:2928   */\n      add\n        /* \"#utility.yul\":2907:2946   */\n      mstore\n        /* \"#utility.yul\":2790:2953   */\n      pop\n      jump\t// out\n        /* \"#utility.yul\":2959:3325   */\n    tag_132:\n        /* \"#utility.yul\":3101:3104   */\n      0x00\n        /* \"#utility.yul\":3122:3189   */\n      tag_173\n        /* \"#utility.yul\":3186:3188   */\n      0x0d\n        /* \"#utility.yul\":3181:3184   */\n      dup4\n        /* \"#utility.yul\":3122:3189   */\n      tag_130\n      jump\t// in\n    tag_173:\n        /* \"#utility.yul\":3115:3189   */\n      swap2\n      pop\n        /* \"#utility.yul\":3198:3291   */\n      tag_174\n        /* \"#utility.yul\":3287:3290   */\n      dup3\n        /* \"#utility.yul\":3198:3291   */\n      tag_131\n      jump\t// in\n    tag_174:\n        /* \"#utility.yul\":3316:3318   */\n      0x20\n        /* \"#utility.yul\":3311:3314   */\n      dup3\n        /* \"#utility.yul\":3307:3319   */\n      add\n        /* \"#utility.yul\":3300:3319   */\n      swap1\n      pop\n        /* \"#utility.yul\":2959:3325   */\n      swap2\n      swap1\n      pop\n      jump\t// out\n        /* \"#utility.yul\":3331:3860   */\n    tag_85:\n        /* \"#utility.yul\":3525:3529   */\n      0x00\n        /* \"#utility.yul\":3563:3565   */\n      0x40\n        /* \"#utility.yul\":3552:3561   */\n      dup3\n        /* \"#utility.yul\":3548:3566   */\n      add\n        /* \"#utility.yul\":3540:3566   */\n      swap1\n      pop\n        /* \"#utility.yul\":3612:3621   */\n      dup2\n        /* \"#utility.yul\":3606:3610   */\n      dup2\n        /* \"#utility.yul\":3602:3622   */\n      sub\n        /* \"#utility.yul\":3598:3599   */\n      0x00\n        /* \"#utility.yul\":3587:3596   */\n      dup4\n        /* \"#utility.yul\":3583:3600   */\n      add\n        /* \"#utility.yul\":3576:3623   */\n      mstore\n        /* \"#utility.yul\":3640:3771   */\n      tag_176\n        /* \"#utility.yul\":3766:3770   */\n      dup2\n        /* \"#utility.yul\":3640:3771   */\n      tag_132\n      jump\t// in\n    tag_176:\n        /* \"#utility.yul\":3632:3771   */\n      swap1\n      pop\n        /* \"#utility.yul\":3781:3853   */\n      tag_177\n        /* \"#utility.yul\":3849:3851   */\n      0x20\n        /* \"#utility.yul\":3838:3847   */\n      dup4\n        /* \"#utility.yul\":3834:3852   */\n      add\n        /* \"#utility.yul\":3825:3831   */\n      dup5\n        /* \"#utility.yul\":3781:3853   */\n      tag_123\n      jump\t// in\n    tag_177:\n        /* \"#utility.yul\":3331:3860   */\n      swap3\n      swap2\n      pop\n      pop\n      jump\t// out\n        /* \"#utility.yul\":3866:4030   */\n    tag_133:\n        /* \"#utility.yul\":4006:4022   */\n      0x53746f7261676520577269746573000000000000000000000000000000000000\n        /* \"#utility.yul\":4002:4003   */\n      0x00\n        /* \"#utility.yul\":3994:4000   */\n      dup3\n        /* \"#utility.yul\":3990:4004   */\n      add\n        /* \"#utility.yul\":3983:4023   */\n      mstore\n        /* \"#utility.yul\":3866:4030   */\n      pop\n      jump\t// out\n        /* \"#utility.yul\":4036:4402   */\n    tag_134:\n        /* \"#utility.yul\":4178:4181   */\n      0x00\n        /* \"#utility.yul\":4199:4266   */\n      tag_180\n        /* \"#utility.yul\":4263:4265   */\n      0x0e\n        /* \"#utility.yul\":4258:4261   */\n      dup4\n        /* \"#utility.yul\":4199:4266   */\n      tag_130\n      jump\t// in\n    tag_180:\n        /* \"#utility.yul\":4192:4266   */\n      swap2\n      pop\n        /* \"#utility.yul\":4275:4368   */\n      tag_181\n        /* \"#utility.yul\":4364:4367   */\n      dup3\n        /* \"#utility.yul\":4275:4368   */\n      tag_133\n      jump\t// in\n    tag_181:\n        /* \"#utility.yul\":4393:4395   */\n      0x20\n        /* \"#utility.yul\":4388:4391   */\n      dup3\n        /* \"#utility.yul\":4384:4396   */\n      add\n        /* \"#utility.yul\":4377:4396   */\n      swap1\n      pop\n        /* \"#utility.yul\":4036:4402   */\n      swap2\n      swap1\n      pop\n      jump\t// out\n        /* \"#utility.yul\":4408:4937   */\n    tag_92:\n        /* \"#utility.yul\":4602:4606   */\n      0x00\n        /* \"#utility.yul\":4640:4642   */\n      0x40\n        /* \"#utility.yul\":4629:4638   */\n      dup3\n        /* \"#utility.yul\":4625:4643   */\n      add\n        /* \"#utility.yul\":4617:4643   */\n      swap1\n      pop\n        /* \"#utility.yul\":4689:4698   */\n      dup2\n        /* \"#utility.yul\":4683:4687   */\n      dup2\n        /* \"#utility.yul\":4679:4699   */\n      sub\n        /* \"#utility.yul\":4675:4676   */\n      0x00\n        /* \"#utility.yul\":4664:4673   */\n      dup4\n        /* \"#utility.yul\":4660:4677   */\n      add\n        /* \"#utility.yul\":4653:4700   */\n      mstore\n        /* \"#utility.yul\":4717:4848   */\n      tag_183\n        /* \"#utility.yul\":4843:4847   */\n      dup2\n        /* \"#utility.yul\":4717:4848   */\n      tag_134\n      jump\t// in\n    tag_183:\n        /* \"#utility.yul\":4709:4848   */\n      swap1\n      pop\n        /* \"#utility.yul\":4858:4930   */\n      tag_184\n        /* \"#utility.yul\":4926:4928   */\n      0x20\n        /* \"#utility.yul\":4915:4924   */\n      dup4\n        /* \"#utility.yul\":4911:4929   */\n      add\n        /* \"#utility.yul\":4902:4908   */\n      dup5\n        /* \"#utility.yul\":4858:4930   */\n      tag_123\n      jump\t// in\n    tag_184:\n        /* \"#utility.yul\":4408:4937   */\n      swap3\n      swap2\n      pop\n      pop\n      jump\t// out\n        /* \"#utility.yul\":4943:5113   */\n    tag_135:\n        /* \"#utility.yul\":5083:5105   */\n      0x48656176792053746f7261676520577269746573000000000000000000000000\n        /* \"#utility.yul\":5079:5080   */\n      0x00\n        /* \"#utility.yul\":5071:5077   */\n      dup3\n        /* \"#utility.yul\":5067:5081   */\n      add\n        /* \"#utility.yul\":5060:5106   */\n      mstore\n        /* \"#utility.yul\":4943:5113   */\n      pop\n      jump\t// out\n        /* \"#utility.yul\":5119:5485   */\n    tag_136:\n        /* \"#utility.yul\":5261:5264   */\n      0x00\n        /* \"#utility.yul\":5282:5349   */\n      tag_187\n        /* \"#utility.yul\":5346:5348   */\n      0x14\n        /* \"#utility.yul\":5341:5344   */\n      dup4\n        /* \"#utility.yul\":5282:5349   */\n      tag_130\n      jump\t// in\n    tag_187:\n        /* \"#utility.yul\":5275:5349   */\n      swap2\n      pop\n        /* \"#utility.yul\":5358:5451   */\n      tag_188\n        /* \"#utility.yul\":5447:5450   */\n      dup3\n        /* \"#utility.yul\":5358:5451   */\n      tag_135\n      jump\t// in\n    tag_188:\n        /* \"#utility.yul\":5476:5478   */\n      0x20\n        /* \"#utility.yul\":5471:5474   */\n      dup3\n        /* \"#utility.yul\":5467:5479   */\n      add\n        /* \"#utility.yul\":5460:5479   */\n      swap1\n      pop\n        /* \"#utility.yul\":5119:5485   */\n      swap2\n      swap1\n      pop\n      jump\t// out\n        /* \"#utility.yul\":5491:6020   */\n    tag_102:\n        /* \"#utility.yul\":5685:5689   */\n      0x00\n        /* \"#utility.yul\":5723:5725   */\n      0x40\n        /* \"#utility.yul\":5712:5721   */\n      dup3\n        /* \"#utility.yul\":5708:5726   */\n      add\n        /* \"#utility.yul\":5700:5726   */\n      swap1\n      pop\n        /* \"#utility.yul\":5772:5781   */\n      dup2\n        /* \"#utility.yul\":5766:5770   */\n      dup2\n        /* \"#utility.yul\":5762:5782   */\n      sub\n        /* \"#utility.yul\":5758:5759   */\n      0x00\n        /* \"#utility.yul\":5747:5756   */\n      dup4\n        /* \"#utility.yul\":5743:5760   */\n      add\n        /* \"#utility.yul\":5736:5783   */\n      mstore\n        /* \"#utility.yul\":5800:5931   */\n      tag_190\n        /* \"#utility.yul\":5926:5930   */\n      dup2\n        /* \"#utility.yul\":5800:5931   */\n      tag_136\n      jump\t// in\n    tag_190:\n        /* \"#utility.yul\":5792:5931   */\n      swap1\n      pop\n        /* \"#utility.yul\":5941:6013   */\n      tag_191\n        /* \"#utility.yul\":6009:6011   */\n      0x20\n        /* \"#utility.yul\":5998:6007   */\n      dup4\n        /* \"#utility.yul\":5994:6012   */\n      add\n        /* \"#utility.yul\":5985:5991   */\n      dup5\n        /* \"#utility.yul\":5941:6013   */\n      tag_123\n      jump\t// in\n    tag_191:\n        /* \"#utility.yul\":5491:6020   */\n      swap3\n      swap2\n      pop\n      pop\n      jump\t// out\n        /* \"#utility.yul\":6026:6217   */\n    tag_115:\n        /* \"#utility.yul\":6066:6069   */\n      0x00\n        /* \"#utility.yul\":6085:6105   */\n      tag_193\n        /* \"#utility.yul\":6103:6104   */\n      dup3\n        /* \"#utility.yul\":6085:6105   */\n      tag_122\n      jump\t// in\n    tag_193:\n        /* \"#utility.yul\":6080:6105   */\n      swap2\n      pop\n        /* \"#utility.yul\":6119:6139   */\n      tag_194\n        /* \"#utility.yul\":6137:6138   */\n      dup4\n        /* \"#utility.yul\":6119:6139   */\n      tag_122\n      jump\t// in\n    tag_194:\n        /* \"#utility.yul\":6114:6139   */\n      swap3\n      pop\n        /* \"#utility.yul\":6162:6163   */\n      dup3\n        /* \"#utility.yul\":6159:6160   */\n      dup3\n        /* \"#utility.yul\":6155:6164   */\n      add\n        /* \"#utility.yul\":6148:6164   */\n      swap1\n      pop\n        /* \"#utility.yul\":6183:6186   */\n      dup1\n        /* \"#utility.yul\":6180:6181   */\n      dup3\n        /* \"#utility.yul\":6177:6187   */\n      gt\n        /* \"#utility.yul\":6174:6210   */\n      iszero\n      tag_195\n      jumpi\n        /* \"#utility.yul\":6190:6208   */\n      tag_196\n      tag_129\n      jump\t// in\n    tag_196:\n        /* \"#utility.yul\":6174:6210   */\n    tag_195:\n        /* \"#utility.yul\":6026:6217   */\n      swap3\n      swap2\n      pop\n      pop\n      jump\t// out\n        /* \"#utility.yul\":6223:6387   */\n    tag_137:\n        /* \"#utility.yul\":6363:6379   */\n      0x4f7074696d697a6564204c6f6f70000000000000000000000000000000000000\n        /* \"#utility.yul\":6359:6360   */\n      0x00\n        /* \"#utility.yul\":6351:6357   */\n      dup3\n        /* \"#utility.yul\":6347:6361   */\n      add\n        /* \"#utility.yul\":6340:6380   */\n      mstore\n        /* \"#utility.yul\":6223:6387   */\n      pop\n      jump\t// out\n        /* \"#utility.yul\":6393:6759   */\n    tag_138:\n        /* \"#utility.yul\":6535:6538   */\n      0x00\n        /* \"#utility.yul\":6556:6623   */\n      tag_199\n        /* \"#utility.yul\":6620:6622   */\n      0x0e\n        /* \"#utility.yul\":6615:6618   */\n      dup4\n        /* \"#utility.yul\":6556:6623   */\n      tag_130\n      jump\t// in\n    tag_199:\n        /* \"#utility.yul\":6549:6623   */\n      swap2\n      pop\n        /* \"#utility.yul\":6632:6725   */\n      tag_200\n        /* \"#utility.yul\":6721:6724   */\n      dup3\n        /* \"#utility.yul\":6632:6725   */\n      tag_137\n      jump\t// in\n    tag_200:\n        /* \"#utility.yul\":6750:6752   */\n      0x20\n        /* \"#utility.yul\":6745:6748   */\n      dup3\n        /* \"#utility.yul\":6741:6753   */\n      add\n        /* \"#utility.yul\":6734:6753   */\n      swap1\n      pop\n        /* \"#utility.yul\":6393:6759   */\n      swap2\n      swap1\n      pop\n      jump\t// out\n        /* \"#utility.yul\":6765:7294   */\n    tag_118:\n        /* \"#utility.yul\":6959:6963   */\n      0x00\n        /* \"#utility.yul\":6997:6999   */\n      0x40\n        /* \"#utility.yul\":6986:6995   */\n      dup3\n        /* \"#utility.yul\":6982:7000   */\n      add\n        /* \"#utility.yul\":6974:7000   */\n      swap1\n      pop\n        /* \"#utility.yul\":7046:7055   */\n      dup2\n        /* \"#utility.yul\":7040:7044   */\n      dup2\n        /* \"#utility.yul\":7036:7056   */\n      sub\n        /* \"#utility.yul\":7032:7033   */\n      0x00\n        /* \"#utility.yul\":7021:7030   */\n      dup4\n        /* \"#utility.yul\":7017:7034   */\n      add\n        /* \"#utility.yul\":7010:7057   */\n      mstore\n        /* \"#utility.yul\":7074:7205   */\n      tag_202\n        /* \"#utility.yul\":7200:7204   */\n      dup2\n        /* \"#utility.yul\":7074:7205   */\n      tag_138\n      jump\t// in\n    tag_202:\n        /* \"#utility.yul\":7066:7205   */\n      swap1\n      pop\n        /* \"#utility.yul\":7215:7287   */\n      tag_203\n        /* \"#utility.yul\":7283:7285   */\n      0x20\n        /* \"#utility.yul\":7272:7281   */\n      dup4\n        /* \"#utility.yul\":7268:7286   */\n      add\n        /* \"#utility.yul\":7259:7265   */\n      dup5\n        /* \"#utility.yul\":7215:7287   */\n      tag_123\n      jump\t// in\n    tag_203:\n        /* \"#utility.yul\":6765:7294   */\n      swap3\n      swap2\n      pop\n      pop\n      jump\t// out\n\n    auxdata: 0xa264697066735822122046a1569c8333010f546f9c36a272d449cd6f78da8da0e2fd0532c4d3f9d36fc464736f6c63430008220033\n}\n",
				"bytecode": {
					"linkReferences": {},
					"object": "6080604052348015600e575f5ffd5b50610a028061001c5f395ff3fe608060405234801561000f575f5ffd5b50600436106100f3575f3560e01c806380217e46116100955780639c4fa45f116100645780639c4fa45f14610229578063ad01810114610245578063ea4097bd1461024f578063ed9050551461027f576100f3565b806380217e46146101d95780638b7afe2e146101e357806395c570bd146102015780639b909df21461021f576100f3565b806346f9bfc5116100d157806346f9bfc5146101635780634a37bcbb146101815780635c993f951461019f5780635e383d21146101a9576100f3565b80630849cc99146100f757806309ce9ccb14610115578063435fdb6214610133575b5f5ffd5b6100ff61029d565b60405161010c9190610647565b60405180910390f35b61011d6102a9565b60405161012a9190610647565b60405180910390f35b61014d6004803603810190610148919061068e565b6102ae565b60405161015a9190610647565b60405180910390f35b61016b6102c3565b6040516101789190610647565b60405180910390f35b6101896102c9565b6040516101969190610647565b60405180910390f35b6101a76102cf565b005b6101c360048036038101906101be919061068e565b610465565b6040516101d09190610647565b60405180910390f35b6101e1610485565b005b6101eb610530565b6040516101f89190610647565b60405180910390f35b610209610537565b6040516102169190610647565b60405180910390f35b61022761053d565b005b610243600480360381019061023e919061068e565b610581565b005b61024d61058a565b005b610269600480360381019061026491906106b9565b610612565b6040516102769190610647565b60405180910390f35b610287610627565b6040516102949190610647565b60405180910390f35b5f600180549050905090565b5f5481565b6002602052805f5260405f205f915090505481565b60055481565b60045481565b5f5a90505f6103e867ffffffffffffffff8111156102f0576102ef6106f7565b5b60405190808252806020026020018201604052801561031e5781602001602082028036833780820191505090505b5090505f5f90505b6103e881101561035d578082828151811061034457610343610724565b5b6020026020010181815250508080600101915050610326565b50806103e78151811061037357610372610724565b5b60200260200101516004819055505f5a8361038e919061077e565b90507f4d605d112b717b70b80f393cc6a0239ae0459508e54af125ee28f92acbf7fc49816040516103bf919061080b565b60405180910390a15a92505f5f90505b6103e881101561040c57600181908060018154018082558091505060019003905f5260205f20015f909190919091505580806001019150506103cf565b506001805490506005819055505f5a84610426919061077e565b90507f4d605d112b717b70b80f393cc6a0239ae0459508e54af125ee28f92acbf7fc49816040516104579190610881565b60405180910390a150505050565b60018181548110610474575f80fd5b905f5260205f20015f915090505481565b5f5a90505f5f90505b6103e88110156104e157600181908060018154018082558091505060019003905f5260205f20015f90919091909150558060025f8381526020019081526020015f2081905550808060010191505061048e565b505a816104ee919061077e565b6003819055507f4d605d112b717b70b80f393cc6a0239ae0459508e54af125ee28f92acbf7fc4960035460405161052591906108f7565b60405180910390a150565b5f47905090565b60035481565b5f5f90505b600a81101561057e57600181908060018154018082558091505060019003905f5260205f20015f90919091909150558080600101915050610542565b50565b805f8190555050565b5f5a90505f5f90505f5f90505b6103e88110156105bc5780826105ad9190610923565b91508080600101915050610597565b50805f819055505a826105cf919061077e565b6003819055507f4d605d112b717b70b80f393cc6a0239ae0459508e54af125ee28f92acbf7fc4960035460405161060691906109a0565b60405180910390a15050565b5f818361061f9190610923565b905092915050565b5f5f54905090565b5f819050919050565b6106418161062f565b82525050565b5f60208201905061065a5f830184610638565b92915050565b5f5ffd5b61066d8161062f565b8114610677575f5ffd5b50565b5f8135905061068881610664565b92915050565b5f602082840312156106a3576106a2610660565b5b5f6106b08482850161067a565b91505092915050565b5f5f604083850312156106cf576106ce610660565b5b5f6106dc8582860161067a565b92505060206106ed8582860161067a565b9150509250929050565b7f4e487b71000000000000000000000000000000000000000000000000000000005f52604160045260245ffd5b7f4e487b71000000000000000000000000000000000000000000000000000000005f52603260045260245ffd5b7f4e487b71000000000000000000000000000000000000000000000000000000005f52601160045260245ffd5b5f6107888261062f565b91506107938361062f565b92508282039050818111156107ab576107aa610751565b5b92915050565b5f82825260208201905092915050565b7f4d656d6f727920577269746573000000000000000000000000000000000000005f82015250565b5f6107f5600d836107b1565b9150610800826107c1565b602082019050919050565b5f6040820190508181035f830152610822816107e9565b90506108316020830184610638565b92915050565b7f53746f72616765205772697465730000000000000000000000000000000000005f82015250565b5f61086b600e836107b1565b915061087682610837565b602082019050919050565b5f6040820190508181035f8301526108988161085f565b90506108a76020830184610638565b92915050565b7f48656176792053746f72616765205772697465730000000000000000000000005f82015250565b5f6108e16014836107b1565b91506108ec826108ad565b602082019050919050565b5f6040820190508181035f83015261090e816108d5565b905061091d6020830184610638565b92915050565b5f61092d8261062f565b91506109388361062f565b92508282019050808211156109505761094f610751565b5b92915050565b7f4f7074696d697a6564204c6f6f700000000000000000000000000000000000005f82015250565b5f61098a600e836107b1565b915061099582610956565b602082019050919050565b5f6040820190508181035f8301526109b78161097e565b90506109c66020830184610638565b9291505056fea264697066735822122046a1569c8333010f546f9c36a272d449cd6f78da8da0e2fd0532c4d3f9d36fc464736f6c63430008220033",
					"opcodes": "PUSH1 0x80 PUSH1 0x40 MSTORE CALLVALUE DUP1 ISZERO PUSH1 0xE JUMPI PUSH0 PUSH0 REVERT JUMPDEST POP PUSH2 0xA02 DUP1 PUSH2 0x1C PUSH0 CODECOPY PUSH0 RETURN INVALID PUSH1 0x80 PUSH1 0x40 MSTORE CALLVALUE DUP1 ISZERO PUSH2 0xF JUMPI PUSH0 PUSH0 REVERT JUMPDEST POP PUSH1 0x4 CALLDATASIZE LT PUSH2 0xF3 JUMPI PUSH0 CALLDATALOAD PUSH1 0xE0 SHR DUP1 PUSH4 0x80217E46 GT PUSH2 0x95 JUMPI DUP1 PUSH4 0x9C4FA45F GT PUSH2 0x64 JUMPI DUP1 PUSH4 0x9C4FA45F EQ PUSH2 0x229 JUMPI DUP1 PUSH4 0xAD018101 EQ PUSH2 0x245 JUMPI DUP1 PUSH4 0xEA4097BD EQ PUSH2 0x24F JUMPI DUP1 PUSH4 0xED905055 EQ PUSH2 0x27F JUMPI PUSH2 0xF3 JUMP JUMPDEST DUP1 PUSH4 0x80217E46 EQ PUSH2 0x1D9 JUMPI DUP1 PUSH4 0x8B7AFE2E EQ PUSH2 0x1E3 JUMPI DUP1 PUSH4 0x95C570BD EQ PUSH2 0x201 JUMPI DUP1 PUSH4 0x9B909DF2 EQ PUSH2 0x21F JUMPI PUSH2 0xF3 JUMP JUMPDEST DUP1 PUSH4 0x46F9BFC5 GT PUSH2 0xD1 JUMPI DUP1 PUSH4 0x46F9BFC5 EQ PUSH2 0x163 JUMPI DUP1 PUSH4 0x4A37BCBB EQ PUSH2 0x181 JUMPI DUP1 PUSH4 0x5C993F95 EQ PUSH2 0x19F JUMPI DUP1 PUSH4 0x5E383D21 EQ PUSH2 0x1A9 JUMPI PUSH2 0xF3 JUMP JUMPDEST DUP1 PUSH4 0x849CC99 EQ PUSH2 0xF7 JUMPI DUP1 PUSH4 0x9CE9CCB EQ PUSH2 0x115 JUMPI DUP1 PUSH4 0x435FDB62 EQ PUSH2 0x133 JUMPI JUMPDEST PUSH0 PUSH0 REVERT JUMPDEST PUSH2 0xFF PUSH2 0x29D JUMP JUMPDEST PUSH1 0x40 MLOAD PUSH2 0x10C SWAP2 SWAP1 PUSH2 0x647 JUMP JUMPDEST PUSH1 0x40 MLOAD DUP1 SWAP2 SUB SWAP1 RETURN JUMPDEST PUSH2 0x11D PUSH2 0x2A9 JUMP JUMPDEST PUSH1 0x40 MLOAD PUSH2 0x12A SWAP2 SWAP1 PUSH2 0x647 JUMP JUMPDEST PUSH1 0x40 MLOAD DUP1 SWAP2 SUB SWAP1 RETURN JUMPDEST PUSH2 0x14D PUSH1 0x4 DUP1 CALLDATASIZE SUB DUP2 ADD SWAP1 PUSH2 0x148 SWAP2 SWAP1 PUSH2 0x68E JUMP JUMPDEST PUSH2 0x2AE JUMP JUMPDEST PUSH1 0x40 MLOAD PUSH2 0x15A SWAP2 SWAP1 PUSH2 0x647 JUMP JUMPDEST PUSH1 0x40 MLOAD DUP1 SWAP2 SUB SWAP1 RETURN JUMPDEST PUSH2 0x16B PUSH2 0x2C3 JUMP JUMPDEST PUSH1 0x40 MLOAD PUSH2 0x178 SWAP2 SWAP1 PUSH2 0x647 JUMP JUMPDEST PUSH1 0x40 MLOAD DUP1 SWAP2 SUB SWAP1 RETURN JUMPDEST PUSH2 0x189 PUSH2 0x2C9 JUMP JUMPDEST PUSH1 0x40 MLOAD PUSH2 0x196 SWAP2 SWAP1 PUSH2 0x647 JUMP JUMPDEST PUSH1 0x40 MLOAD DUP1 SWAP2 SUB SWAP1 RETURN JUMPDEST PUSH2 0x1A7 PUSH2 0x2CF JUMP JUMPDEST STOP JUMPDEST PUSH2 0x1C3 PUSH1 0x4 DUP1 CALLDATASIZE SUB DUP2 ADD SWAP1 PUSH2 0x1BE SWAP2 SWAP1 PUSH2 0x68E JUMP JUMPDEST PUSH2 0x465 JUMP JUMPDEST PUSH1 0x40 MLOAD PUSH2 0x1D0 SWAP2 SWAP1 PUSH2 0x647 JUMP JUMPDEST PUSH1 0x40 MLOAD DUP1 SWAP2 SUB SWAP1 RETURN JUMPDEST PUSH2 0x1E1 PUSH2 0x485 JUMP JUMPDEST STOP JUMPDEST PUSH2 0x1EB PUSH2 0x530 JUMP JUMPDEST PUSH1 0x40 MLOAD PUSH2 0x1F8 SWAP2 SWAP1 PUSH2 0x647 JUMP JUMPDEST PUSH1 0x40 MLOAD DUP1 SWAP2 SUB SWAP1 RETURN JUMPDEST PUSH2 0x209 PUSH2 0x537 JUMP JUMPDEST PUSH1 0x40 MLOAD PUSH2 0x216 SWAP2 SWAP1 PUSH2 0x647 JUMP JUMPDEST PUSH1 0x40 MLOAD DUP1 SWAP2 SUB SWAP1 RETURN JUMPDEST PUSH2 0x227 PUSH2 0x53D JUMP JUMPDEST STOP JUMPDEST PUSH2 0x243 PUSH1 0x4 DUP1 CALLDATASIZE SUB DUP2 ADD SWAP1 PUSH2 0x23E SWAP2 SWAP1 PUSH2 0x68E JUMP JUMPDEST PUSH2 0x581 JUMP JUMPDEST STOP JUMPDEST PUSH2 0x24D PUSH2 0x58A JUMP JUMPDEST STOP JUMPDEST PUSH2 0x269 PUSH1 0x4 DUP1 CALLDATASIZE SUB DUP2 ADD SWAP1 PUSH2 0x264 SWAP2 SWAP1 PUSH2 0x6B9 JUMP JUMPDEST PUSH2 0x612 JUMP JUMPDEST PUSH1 0x40 MLOAD PUSH2 0x276 SWAP2 SWAP1 PUSH2 0x647 JUMP JUMPDEST PUSH1 0x40 MLOAD DUP1 SWAP2 SUB SWAP1 RETURN JUMPDEST PUSH2 0x287 PUSH2 0x627 JUMP JUMPDEST PUSH1 0x40 MLOAD PUSH2 0x294 SWAP2 SWAP1 PUSH2 0x647 JUMP JUMPDEST PUSH1 0x40 MLOAD DUP1 SWAP2 SUB SWAP1 RETURN JUMPDEST PUSH0 PUSH1 0x1 DUP1 SLOAD SWAP1 POP SWAP1 POP SWAP1 JUMP JUMPDEST PUSH0 SLOAD DUP2 JUMP JUMPDEST PUSH1 0x2 PUSH1 0x20 MSTORE DUP1 PUSH0 MSTORE PUSH1 0x40 PUSH0 KECCAK256 PUSH0 SWAP2 POP SWAP1 POP SLOAD DUP2 JUMP JUMPDEST PUSH1 0x5 SLOAD DUP2 JUMP JUMPDEST PUSH1 0x4 SLOAD DUP2 JUMP JUMPDEST PUSH0 GAS SWAP1 POP PUSH0 PUSH2 0x3E8 PUSH8 0xFFFFFFFFFFFFFFFF DUP2 GT ISZERO PUSH2 0x2F0 JUMPI PUSH2 0x2EF PUSH2 0x6F7 JUMP JUMPDEST JUMPDEST PUSH1 0x40 MLOAD SWAP1 DUP1 DUP3 MSTORE DUP1 PUSH1 0x20 MUL PUSH1 0x20 ADD DUP3 ADD PUSH1 0x40 MSTORE DUP1 ISZERO PUSH2 0x31E JUMPI DUP2 PUSH1 0x20 ADD PUSH1 0x20 DUP3 MUL DUP1 CALLDATASIZE DUP4 CALLDATACOPY DUP1 DUP3 ADD SWAP2 POP POP SWAP1 POP JUMPDEST POP SWAP1 POP PUSH0 PUSH0 SWAP1 POP JUMPDEST PUSH2 0x3E8 DUP2 LT ISZERO PUSH2 0x35D JUMPI DUP1 DUP3 DUP3 DUP2 MLOAD DUP2 LT PUSH2 0x344 JUMPI PUSH2 0x343 PUSH2 0x724 JUMP JUMPDEST JUMPDEST PUSH1 0x20 MUL PUSH1 0x20 ADD ADD DUP2 DUP2 MSTORE POP POP DUP1 DUP1 PUSH1 0x1 ADD SWAP2 POP POP PUSH2 0x326 JUMP JUMPDEST POP DUP1 PUSH2 0x3E7 DUP2 MLOAD DUP2 LT PUSH2 0x373 JUMPI PUSH2 0x372 PUSH2 0x724 JUMP JUMPDEST JUMPDEST PUSH1 0x20 MUL PUSH1 0x20 ADD ADD MLOAD PUSH1 0x4 DUP2 SWAP1 SSTORE POP PUSH0 GAS DUP4 PUSH2 0x38E SWAP2 SWAP1 PUSH2 0x77E JUMP JUMPDEST SWAP1 POP PUSH32 0x4D605D112B717B70B80F393CC6A0239AE0459508E54AF125EE28F92ACBF7FC49 DUP2 PUSH1 0x40 MLOAD PUSH2 0x3BF SWAP2 SWAP1 PUSH2 0x80B JUMP JUMPDEST PUSH1 0x40 MLOAD DUP1 SWAP2 SUB SWAP1 LOG1 GAS SWAP3 POP PUSH0 PUSH0 SWAP1 POP JUMPDEST PUSH2 0x3E8 DUP2 LT ISZERO PUSH2 0x40C JUMPI PUSH1 0x1 DUP2 SWAP1 DUP1 PUSH1 0x1 DUP2 SLOAD ADD DUP1 DUP3 SSTORE DUP1 SWAP2 POP POP PUSH1 0x1 SWAP1 SUB SWAP1 PUSH0 MSTORE PUSH1 0x20 PUSH0 KECCAK256 ADD PUSH0 SWAP1 SWAP2 SWAP1 SWAP2 SWAP1 SWAP2 POP SSTORE DUP1 DUP1 PUSH1 0x1 ADD SWAP2 POP POP PUSH2 0x3CF JUMP JUMPDEST POP PUSH1 0x1 DUP1 SLOAD SWAP1 POP PUSH1 0x5 DUP2 SWAP1 SSTORE POP PUSH0 GAS DUP5 PUSH2 0x426 SWAP2 SWAP1 PUSH2 0x77E JUMP JUMPDEST SWAP1 POP PUSH32 0x4D605D112B717B70B80F393CC6A0239AE0459508E54AF125EE28F92ACBF7FC49 DUP2 PUSH1 0x40 MLOAD PUSH2 0x457 SWAP2 SWAP1 PUSH2 0x881 JUMP JUMPDEST PUSH1 0x40 MLOAD DUP1 SWAP2 SUB SWAP1 LOG1 POP POP POP POP JUMP JUMPDEST PUSH1 0x1 DUP2 DUP2 SLOAD DUP2 LT PUSH2 0x474 JUMPI PUSH0 DUP1 REVERT JUMPDEST SWAP1 PUSH0 MSTORE PUSH1 0x20 PUSH0 KECCAK256 ADD PUSH0 SWAP2 POP SWAP1 POP SLOAD DUP2 JUMP JUMPDEST PUSH0 GAS SWAP1 POP PUSH0 PUSH0 SWAP1 POP JUMPDEST PUSH2 0x3E8 DUP2 LT ISZERO PUSH2 0x4E1 JUMPI PUSH1 0x1 DUP2 SWAP1 DUP1 PUSH1 0x1 DUP2 SLOAD ADD DUP1 DUP3 SSTORE DUP1 SWAP2 POP POP PUSH1 0x1 SWAP1 SUB SWAP1 PUSH0 MSTORE PUSH1 0x20 PUSH0 KECCAK256 ADD PUSH0 SWAP1 SWAP2 SWAP1 SWAP2 SWAP1 SWAP2 POP SSTORE DUP1 PUSH1 0x2 PUSH0 DUP4 DUP2 MSTORE PUSH1 0x20 ADD SWAP1 DUP2 MSTORE PUSH1 0x20 ADD PUSH0 KECCAK256 DUP2 SWAP1 SSTORE POP DUP1 DUP1 PUSH1 0x1 ADD SWAP2 POP POP PUSH2 0x48E JUMP JUMPDEST POP GAS DUP2 PUSH2 0x4EE SWAP2 SWAP1 PUSH2 0x77E JUMP JUMPDEST PUSH1 0x3 DUP2 SWAP1 SSTORE POP PUSH32 0x4D605D112B717B70B80F393CC6A0239AE0459508E54AF125EE28F92ACBF7FC49 PUSH1 0x3 SLOAD PUSH1 0x40 MLOAD PUSH2 0x525 SWAP2 SWAP1 PUSH2 0x8F7 JUMP JUMPDEST PUSH1 0x40 MLOAD DUP1 SWAP2 SUB SWAP1 LOG1 POP JUMP JUMPDEST PUSH0 SELFBALANCE SWAP1 POP SWAP1 JUMP JUMPDEST PUSH1 0x3 SLOAD DUP2 JUMP JUMPDEST PUSH0 PUSH0 SWAP1 POP JUMPDEST PUSH1 0xA DUP2 LT ISZERO PUSH2 0x57E JUMPI PUSH1 0x1 DUP2 SWAP1 DUP1 PUSH1 0x1 DUP2 SLOAD ADD DUP1 DUP3 SSTORE DUP1 SWAP2 POP POP PUSH1 0x1 SWAP1 SUB SWAP1 PUSH0 MSTORE PUSH1 0x20 PUSH0 KECCAK256 ADD PUSH0 SWAP1 SWAP2 SWAP1 SWAP2 SWAP1 SWAP2 POP SSTORE DUP1 DUP1 PUSH1 0x1 ADD SWAP2 POP POP PUSH2 0x542 JUMP JUMPDEST POP JUMP JUMPDEST DUP1 PUSH0 DUP2 SWAP1 SSTORE POP POP JUMP JUMPDEST PUSH0 GAS SWAP1 POP PUSH0 PUSH0 SWAP1 POP PUSH0 PUSH0 SWAP1 POP JUMPDEST PUSH2 0x3E8 DUP2 LT ISZERO PUSH2 0x5BC JUMPI DUP1 DUP3 PUSH2 0x5AD SWAP2 SWAP1 PUSH2 0x923 JUMP JUMPDEST SWAP2 POP DUP1 DUP1 PUSH1 0x1 ADD SWAP2 POP POP PUSH2 0x597 JUMP JUMPDEST POP DUP1 PUSH0 DUP2 SWAP1 SSTORE POP GAS DUP3 PUSH2 0x5CF SWAP2 SWAP1 PUSH2 0x77E JUMP JUMPDEST PUSH1 0x3 DUP2 SWAP1 SSTORE POP PUSH32 0x4D605D112B717B70B80F393CC6A0239AE0459508E54AF125EE28F92ACBF7FC49 PUSH1 0x3 SLOAD PUSH1 0x40 MLOAD PUSH2 0x606 SWAP2 SWAP1 PUSH2 0x9A0 JUMP JUMPDEST PUSH1 0x40 MLOAD DUP1 SWAP2 SUB SWAP1 LOG1 POP POP JUMP JUMPDEST PUSH0 DUP2 DUP4 PUSH2 0x61F SWAP2 SWAP1 PUSH2 0x923 JUMP JUMPDEST SWAP1 POP SWAP3 SWAP2 POP POP JUMP JUMPDEST PUSH0 PUSH0 SLOAD SWAP1 POP SWAP1 JUMP JUMPDEST PUSH0 DUP2 SWAP1 POP SWAP2 SWAP1 POP JUMP JUMPDEST PUSH2 0x641 DUP2 PUSH2 0x62F JUMP JUMPDEST DUP3 MSTORE POP POP JUMP JUMPDEST PUSH0 PUSH1 0x20 DUP3 ADD SWAP1 POP PUSH2 0x65A PUSH0 DUP4 ADD DUP5 PUSH2 0x638 JUMP JUMPDEST SWAP3 SWAP2 POP POP JUMP JUMPDEST PUSH0 PUSH0 REVERT JUMPDEST PUSH2 0x66D DUP2 PUSH2 0x62F JUMP JUMPDEST DUP2 EQ PUSH2 0x677 JUMPI PUSH0 PUSH0 REVERT JUMPDEST POP JUMP JUMPDEST PUSH0 DUP2 CALLDATALOAD SWAP1 POP PUSH2 0x688 DUP2 PUSH2 0x664 JUMP JUMPDEST SWAP3 SWAP2 POP POP JUMP JUMPDEST PUSH0 PUSH1 0x20 DUP3 DUP5 SUB SLT ISZERO PUSH2 0x6A3 JUMPI PUSH2 0x6A2 PUSH2 0x660 JUMP JUMPDEST JUMPDEST PUSH0 PUSH2 0x6B0 DUP5 DUP3 DUP6 ADD PUSH2 0x67A JUMP JUMPDEST SWAP2 POP POP SWAP3 SWAP2 POP POP JUMP JUMPDEST PUSH0 PUSH0 PUSH1 0x40 DUP4 DUP6 SUB SLT ISZERO PUSH2 0x6CF JUMPI PUSH2 0x6CE PUSH2 0x660 JUMP JUMPDEST JUMPDEST PUSH0 PUSH2 0x6DC DUP6 DUP3 DUP7 ADD PUSH2 0x67A JUMP JUMPDEST SWAP3 POP POP PUSH1 0x20 PUSH2 0x6ED DUP6 DUP3 DUP7 ADD PUSH2 0x67A JUMP JUMPDEST SWAP2 POP POP SWAP3 POP SWAP3 SWAP1 POP JUMP JUMPDEST PUSH32 0x4E487B7100000000000000000000000000000000000000000000000000000000 PUSH0 MSTORE PUSH1 0x41 PUSH1 0x4 MSTORE PUSH1 0x24 PUSH0 REVERT JUMPDEST PUSH32 0x4E487B7100000000000000000000000000000000000000000000000000000000 PUSH0 MSTORE PUSH1 0x32 PUSH1 0x4 MSTORE PUSH1 0x24 PUSH0 REVERT JUMPDEST PUSH32 0x4E487B7100000000000000000000000000000000000000000000000000000000 PUSH0 MSTORE PUSH1 0x11 PUSH1 0x4 MSTORE PUSH1 0x24 PUSH0 REVERT JUMPDEST PUSH0 PUSH2 0x788 DUP3 PUSH2 0x62F JUMP JUMPDEST SWAP2 POP PUSH2 0x793 DUP4 PUSH2 0x62F JUMP JUMPDEST SWAP3 POP DUP3 DUP3 SUB SWAP1 POP DUP2 DUP2 GT ISZERO PUSH2 0x7AB JUMPI PUSH2 0x7AA PUSH2 0x751 JUMP JUMPDEST JUMPDEST SWAP3 SWAP2 POP POP JUMP JUMPDEST PUSH0 DUP3 DUP3 MSTORE PUSH1 0x20 DUP3 ADD SWAP1 POP SWAP3 SWAP2 POP POP JUMP JUMPDEST PUSH32 0x4D656D6F72792057726974657300000000000000000000000000000000000000 PUSH0 DUP3 ADD MSTORE POP JUMP JUMPDEST PUSH0 PUSH2 0x7F5 PUSH1 0xD DUP4 PUSH2 0x7B1 JUMP JUMPDEST SWAP2 POP PUSH2 0x800 DUP3 PUSH2 0x7C1 JUMP JUMPDEST PUSH1 0x20 DUP3 ADD SWAP1 POP SWAP2 SWAP1 POP JUMP JUMPDEST PUSH0 PUSH1 0x40 DUP3 ADD SWAP1 POP DUP2 DUP2 SUB PUSH0 DUP4 ADD MSTORE PUSH2 0x822 DUP2 PUSH2 0x7E9 JUMP JUMPDEST SWAP1 POP PUSH2 0x831 PUSH1 0x20 DUP4 ADD DUP5 PUSH2 0x638 JUMP JUMPDEST SWAP3 SWAP2 POP POP JUMP JUMPDEST PUSH32 0x53746F7261676520577269746573000000000000000000000000000000000000 PUSH0 DUP3 ADD MSTORE POP JUMP JUMPDEST PUSH0 PUSH2 0x86B PUSH1 0xE DUP4 PUSH2 0x7B1 JUMP JUMPDEST SWAP2 POP PUSH2 0x876 DUP3 PUSH2 0x837 JUMP JUMPDEST PUSH1 0x20 DUP3 ADD SWAP1 POP SWAP2 SWAP1 POP JUMP JUMPDEST PUSH0 PUSH1 0x40 DUP3 ADD SWAP1 POP DUP2 DUP2 SUB PUSH0 DUP4 ADD MSTORE PUSH2 0x898 DUP2 PUSH2 0x85F JUMP JUMPDEST SWAP1 POP PUSH2 0x8A7 PUSH1 0x20 DUP4 ADD DUP5 PUSH2 0x638 JUMP JUMPDEST SWAP3 SWAP2 POP POP JUMP JUMPDEST PUSH32 0x48656176792053746F7261676520577269746573000000000000000000000000 PUSH0 DUP3 ADD MSTORE POP JUMP JUMPDEST PUSH0 PUSH2 0x8E1 PUSH1 0x14 DUP4 PUSH2 0x7B1 JUMP JUMPDEST SWAP2 POP PUSH2 0x8EC DUP3 PUSH2 0x8AD JUMP JUMPDEST PUSH1 0x20 DUP3 ADD SWAP1 POP SWAP2 SWAP1 POP JUMP JUMPDEST PUSH0 PUSH1 0x40 DUP3 ADD SWAP1 POP DUP2 DUP2 SUB PUSH0 DUP4 ADD MSTORE PUSH2 0x90E DUP2 PUSH2 0x8D5 JUMP JUMPDEST SWAP1 POP PUSH2 0x91D PUSH1 0x20 DUP4 ADD DUP5 PUSH2 0x638 JUMP JUMPDEST SWAP3 SWAP2 POP POP JUMP JUMPDEST PUSH0 PUSH2 0x92D DUP3 PUSH2 0x62F JUMP JUMPDEST SWAP2 POP PUSH2 0x938 DUP4 PUSH2 0x62F JUMP JUMPDEST SWAP3 POP DUP3 DUP3 ADD SWAP1 POP DUP1 DUP3 GT ISZERO PUSH2 0x950 JUMPI PUSH2 0x94F PUSH2 0x751 JUMP JUMPDEST JUMPDEST SWAP3 SWAP2 POP POP JUMP JUMPDEST PUSH32 0x4F7074696D697A6564204C6F6F70000000000000000000000000000000000000 PUSH0 DUP3 ADD MSTORE POP JUMP JUMPDEST PUSH0 PUSH2 0x98A PUSH1 0xE DUP4 PUSH2 0x7B1 JUMP JUMPDEST SWAP2 POP PUSH2 0x995 DUP3 PUSH2 0x956 JUMP JUMPDEST PUSH1 0x20 DUP3 ADD SWAP1 POP SWAP2 SWAP1 POP JUMP JUMPDEST PUSH0 PUSH1 0x40 DUP3 ADD SWAP1 POP DUP2 DUP2 SUB PUSH0 DUP4 ADD MSTORE PUSH2 0x9B7 DUP2 PUSH2 0x97E JUMP JUMPDEST SWAP1 POP PUSH2 0x9C6 PUSH1 0x20 DUP4 ADD DUP5 PUSH2 0x638 JUMP JUMPDEST SWAP3 SWAP2 POP POP JUMP INVALID LOG2 PUSH5 0x6970667358 0x22 SLT KECCAK256 CHAINID LOG1 JUMP SWAP13 DUP4 CALLER ADD 0xF SLOAD PUSH16 0x9C36A272D449CD6F78DA8DA0E2FD0532 0xC4 0xD3 EXTDELEGATECALL 0xD3 PUSH16 0xC464736F6C6343000822003300000000 "
				},
				"gasEstimates": {
					"creation": {
						"codeDepositCost": "512400",
						"executionCost": "547",
						"totalCost": "512947"
					},
					"external": {
						"calculateSum(uint256,uint256)": "infinite",
						"compareMemoryVsStorage()": "infinite",
						"contractBalance()": "379",
						"getArrayLength()": "2464",
						"heavyStorageWrites()": "infinite",
						"lastGasUsed()": "2492",
						"memoryResult()": "2470",
						"optimizedLoop()": "infinite",
						"readStoredNumber()": "2519",
						"storageResult()": "2448",
						"storeManyValues()": "infinite",
						"storedMapping(uint256)": "infinite",
						"storedNumber()": "2470",
						"updateStoredNumber(uint256)": "22536",
						"values(uint256)": "infinite"
					}
				},
				"methodIdentifiers": {
					"calculateSum(uint256,uint256)": "ea4097bd",
					"compareMemoryVsStorage()": "5c993f95",
					"contractBalance()": "8b7afe2e",
					"getArrayLength()": "0849cc99",
					"heavyStorageWrites()": "80217e46",
					"lastGasUsed()": "95c570bd",
					"memoryResult()": "4a37bcbb",
					"optimizedLoop()": "ad018101",
					"readStoredNumber()": "ed905055",
					"storageResult()": "46f9bfc5",
					"storeManyValues()": "9b909df2",
					"storedMapping(uint256)": "435fdb62",
					"storedNumber()": "09ce9ccb",
					"updateStoredNumber(uint256)": "9c4fa45f",
					"values(uint256)": "5e383d21"
				}
			},
			"storageLayout": {
				"storage": [
					{
						"astId": 72,
						"contract": "val68.sol:GasComparison",
						"label": "storedNumber",
						"offset": 0,
						"slot": "0",
						"type": "t_uint256"
					},
					{
						"astId": 75,
						"contract": "val68.sol:GasComparison",
						"label": "values",
						"offset": 0,
						"slot": "1",
						"type": "t_array(t_uint256)dyn_storage"
					},
					{
						"astId": 79,
						"contract": "val68.sol:GasComparison",
						"label": "storedMapping",
						"offset": 0,
						"slot": "2",
						"type": "t_mapping(t_uint256,t_uint256)"
					},
					{
						"astId": 81,
						"contract": "val68.sol:GasComparison",
						"label": "lastGasUsed",
						"offset": 0,
						"slot": "3",
						"type": "t_uint256"
					},
					{
						"astId": 83,
						"contract": "val68.sol:GasComparison",
						"label": "memoryResult",
						"offset": 0,
						"slot": "4",
						"type": "t_uint256"
					},
					{
						"astId": 85,
						"contract": "val68.sol:GasComparison",
						"label": "storageResult",
						"offset": 0,
						"slot": "5",
						"type": "t_uint256"
					}
				],
				"types": {
					"t_array(t_uint256)dyn_storage": {
						"base": "t_uint256",
						"encoding": "dynamic_array",
						"label": "uint256[]",
						"numberOfBytes": "32"
					},
					"t_mapping(t_uint256,t_uint256)": {
						"encoding": "mapping",
						"key": "t_uint256",
						"label": "mapping(uint256 => uint256)",
						"numberOfBytes": "32",
						"value": "t_uint256"
					},
					"t_uint256": {
						"encoding": "inplace",
						"label": "uint256",
						"numberOfBytes": "32"
					}
				}
			},
			"userdoc": {
				"kind": "user",
				"methods": {},
				"version": 1
			}
		}
	}
}