{
	"val29.sol": {
		"CalldataRestrictionval": {
			"abi": [
				{
					"inputs": [
						{
							"internalType": "uint256",
							"name": "_number",
							"type": "uint256"
						}
					],
					"name": "readCalldata",
					"outputs": [
						{
							"internalType": "uint256",
							"name": "",
							"type": "uint256"
						}
					],
					"stateMutability": "pure",
					"type": "function"
				},
				{
					"inputs": [],
					"name": "savedValue",
					"outputs": [
						{
							"internalType": "uint256",
							"name": "",
							"type": "uint256"
						}
					],
					"stateMutability": "view",
					"type": "function"
				},
				{
					"inputs": [
						{
							"internalType": "uint256[]",
							"name": "_numbers",
							"type": "uint256[]"
						}
					],
					"name": "workingMemoryExample",
					"outputs": [
						{
							"internalType": "uint256[]",
							"name": "",
							"type": "uint256[]"
						}
					],
					"stateMutability": "pure",
					"type": "function"
				}
			],
			"devdoc": {
				"kind": "dev",
				"methods": {},
				"version": 1
			},
			"evm": {
				"assembly": "    /* \"val29.sol\":1863:3442  contract CalldataRestrictionval {... */\n  mstore(0x40, 0x80)\n  callvalue\n  dup1\n  iszero\n  tag_1\n  jumpi\n  revert(0x00, 0x00)\ntag_1:\n  pop\n  dataSize(sub_0)\n  dup1\n  dataOffset(sub_0)\n  0x00\n  codecopy\n  0x00\n  return\nstop\n\nsub_0: assembly {\n        /* \"val29.sol\":1863:3442  contract CalldataRestrictionval {... */\n      mstore(0x40, 0x80)\n      callvalue\n      dup1\n      iszero\n      tag_1\n      jumpi\n      revert(0x00, 0x00)\n    tag_1:\n      pop\n      jumpi(tag_2, lt(calldatasize, 0x04))\n      shr(0xe0, calldataload(0x00))\n      dup1\n      0x081205a2\n      eq\n      tag_3\n      jumpi\n      dup1\n      0x898dd610\n      eq\n      tag_4\n      jumpi\n      dup1\n      0xcb469817\n      eq\n      tag_5\n      jumpi\n    tag_2:\n      revert(0x00, 0x00)\n        /* \"val29.sol\":2287:2723  function workingMemoryExample(... */\n    tag_3:\n      tag_6\n      0x04\n      dup1\n      calldatasize\n      sub\n      dup2\n      add\n      swap1\n      tag_7\n      swap2\n      swap1\n      tag_8\n      jump\t// in\n    tag_7:\n      tag_9\n      jump\t// in\n    tag_6:\n      mload(0x40)\n      tag_10\n      swap2\n      swap1\n      tag_11\n      jump\t// in\n    tag_10:\n      mload(0x40)\n      dup1\n      swap2\n      sub\n      swap1\n      return\n        /* \"val29.sol\":2019:2279  function readCalldata(... */\n    tag_4:\n      tag_12\n      0x04\n      dup1\n      calldatasize\n      sub\n      dup2\n      add\n      swap1\n      tag_13\n      swap2\n      swap1\n      tag_14\n      jump\t// in\n    tag_13:\n      tag_15\n      jump\t// in\n    tag_12:\n      mload(0x40)\n      tag_16\n      swap2\n      swap1\n      tag_17\n      jump\t// in\n    tag_16:\n      mload(0x40)\n      dup1\n      swap2\n      sub\n      swap1\n      return\n        /* \"val29.sol\":1985:2010  uint256 public savedValue */\n    tag_5:\n      tag_18\n      tag_19\n      jump\t// in\n    tag_18:\n      mload(0x40)\n      tag_20\n      swap2\n      swap1\n      tag_17\n      jump\t// in\n    tag_20:\n      mload(0x40)\n      dup1\n      swap2\n      sub\n      swap1\n      return\n        /* \"val29.sol\":2287:2723  function workingMemoryExample(... */\n    tag_9:\n        /* \"val29.sol\":2412:2428  uint256[] memory */\n      0x60\n        /* \"val29.sol\":2538:2564  uint256[] memory tempArray */\n      0x00\n        /* \"val29.sol\":2567:2575  _numbers */\n      dup4\n      dup4\n        /* \"val29.sol\":2538:2575  uint256[] memory tempArray = _numbers */\n      dup1\n      dup1\n      0x20\n      mul\n      0x20\n      add\n      mload(0x40)\n      swap1\n      dup2\n      add\n      0x40\n      mstore\n      dup1\n      swap4\n      swap3\n      swap2\n      swap1\n      dup2\n      dup2\n      mstore\n      0x20\n      add\n      dup4\n      dup4\n      0x20\n      mul\n      dup1\n      dup3\n      dup5\n      calldatacopy\n      0x00\n      dup2\n      dup5\n      add\n      mstore\n      not(0x1f)\n      0x1f\n      dup3\n      add\n      and\n      swap1\n      pop\n      dup1\n      dup4\n      add\n      swap3\n      pop\n      pop\n      pop\n      pop\n      pop\n      pop\n      pop\n      swap1\n      pop\n        /* \"val29.sol\":2683:2686  999 */\n      0x03e7\n        /* \"val29.sol\":2668:2677  tempArray */\n      dup2\n        /* \"val29.sol\":2678:2679  0 */\n      0x00\n        /* \"val29.sol\":2668:2680  tempArray[0] */\n      dup2\n      mload\n      dup2\n      lt\n      tag_22\n      jumpi\n      tag_23\n      tag_24\n      jump\t// in\n    tag_23:\n    tag_22:\n      0x20\n      mul\n      0x20\n      add\n      add\n        /* \"val29.sol\":2668:2686  tempArray[0] = 999 */\n      dup2\n      dup2\n      mstore\n      pop\n      pop\n        /* \"val29.sol\":2706:2715  tempArray */\n      dup1\n        /* \"val29.sol\":2699:2715  return tempArray */\n      swap2\n      pop\n      pop\n        /* \"val29.sol\":2287:2723  function workingMemoryExample(... */\n      swap3\n      swap2\n      pop\n      pop\n      jump\t// out\n        /* \"val29.sol\":2019:2279  function readCalldata(... */\n    tag_15:\n        /* \"val29.sol\":2124:2131  uint256 */\n      0x00\n        /* \"val29.sol\":2264:2271  _number */\n      dup2\n        /* \"val29.sol\":2257:2271  return _number */\n      swap1\n      pop\n        /* \"val29.sol\":2019:2279  function readCalldata(... */\n      swap2\n      swap1\n      pop\n      jump\t// out\n        /* \"val29.sol\":1985:2010  uint256 public savedValue */\n    tag_19:\n      sload(0x00)\n      dup2\n      jump\t// out\n        /* \"#utility.yul\":88:205   */\n    tag_27:\n        /* \"#utility.yul\":197:198   */\n      0x00\n        /* \"#utility.yul\":194:195   */\n      0x00\n        /* \"#utility.yul\":187:199   */\n      revert\n        /* \"#utility.yul\":211:328   */\n    tag_28:\n        /* \"#utility.yul\":320:321   */\n      0x00\n        /* \"#utility.yul\":317:318   */\n      0x00\n        /* \"#utility.yul\":310:322   */\n      revert\n        /* \"#utility.yul\":334:451   */\n    tag_29:\n        /* \"#utility.yul\":443:444   */\n      0x00\n        /* \"#utility.yul\":440:441   */\n      0x00\n        /* \"#utility.yul\":433:445   */\n      revert\n        /* \"#utility.yul\":457:574   */\n    tag_30:\n        /* \"#utility.yul\":566:567   */\n      0x00\n        /* \"#utility.yul\":563:564   */\n      0x00\n        /* \"#utility.yul\":556:568   */\n      revert\n        /* \"#utility.yul\":580:697   */\n    tag_31:\n        /* \"#utility.yul\":689:690   */\n      0x00\n        /* \"#utility.yul\":686:687   */\n      0x00\n        /* \"#utility.yul\":679:691   */\n      revert\n        /* \"#utility.yul\":720:1288   */\n    tag_32:\n        /* \"#utility.yul\":793:801   */\n      0x00\n        /* \"#utility.yul\":803:809   */\n      0x00\n        /* \"#utility.yul\":853:856   */\n      dup4\n        /* \"#utility.yul\":846:850   */\n      0x1f\n        /* \"#utility.yul\":838:844   */\n      dup5\n        /* \"#utility.yul\":834:851   */\n      add\n        /* \"#utility.yul\":830:857   */\n      slt\n        /* \"#utility.yul\":820:942   */\n      tag_52\n      jumpi\n        /* \"#utility.yul\":861:940   */\n      tag_53\n      tag_29\n      jump\t// in\n    tag_53:\n        /* \"#utility.yul\":820:942   */\n    tag_52:\n        /* \"#utility.yul\":974:980   */\n      dup3\n        /* \"#utility.yul\":961:981   */\n      calldataload\n        /* \"#utility.yul\":951:981   */\n      swap1\n      pop\n        /* \"#utility.yul\":1004:1022   */\n      0xffffffffffffffff\n        /* \"#utility.yul\":996:1002   */\n      dup2\n        /* \"#utility.yul\":993:1023   */\n      gt\n        /* \"#utility.yul\":990:1107   */\n      iszero\n      tag_54\n      jumpi\n        /* \"#utility.yul\":1026:1105   */\n      tag_55\n      tag_30\n      jump\t// in\n    tag_55:\n        /* \"#utility.yul\":990:1107   */\n    tag_54:\n        /* \"#utility.yul\":1140:1144   */\n      0x20\n        /* \"#utility.yul\":1132:1138   */\n      dup4\n        /* \"#utility.yul\":1128:1145   */\n      add\n        /* \"#utility.yul\":1116:1145   */\n      swap2\n      pop\n        /* \"#utility.yul\":1194:1197   */\n      dup4\n        /* \"#utility.yul\":1186:1190   */\n      0x20\n        /* \"#utility.yul\":1178:1184   */\n      dup3\n        /* \"#utility.yul\":1174:1191   */\n      mul\n        /* \"#utility.yul\":1164:1172   */\n      dup4\n        /* \"#utility.yul\":1160:1192   */\n      add\n        /* \"#utility.yul\":1157:1198   */\n      gt\n        /* \"#utility.yul\":1154:1282   */\n      iszero\n      tag_56\n      jumpi\n        /* \"#utility.yul\":1201:1280   */\n      tag_57\n      tag_31\n      jump\t// in\n    tag_57:\n        /* \"#utility.yul\":1154:1282   */\n    tag_56:\n        /* \"#utility.yul\":720:1288   */\n      swap3\n      pop\n      swap3\n      swap1\n      pop\n      jump\t// out\n        /* \"#utility.yul\":1294:1853   */\n    tag_8:\n        /* \"#utility.yul\":1380:1386   */\n      0x00\n        /* \"#utility.yul\":1388:1394   */\n      0x00\n        /* \"#utility.yul\":1437:1439   */\n      0x20\n        /* \"#utility.yul\":1425:1434   */\n      dup4\n        /* \"#utility.yul\":1416:1423   */\n      dup6\n        /* \"#utility.yul\":1412:1435   */\n      sub\n        /* \"#utility.yul\":1408:1440   */\n      slt\n        /* \"#utility.yul\":1405:1524   */\n      iszero\n      tag_59\n      jumpi\n        /* \"#utility.yul\":1443:1522   */\n      tag_60\n      tag_27\n      jump\t// in\n    tag_60:\n        /* \"#utility.yul\":1405:1524   */\n    tag_59:\n        /* \"#utility.yul\":1591:1592   */\n      0x00\n        /* \"#utility.yul\":1580:1589   */\n      dup4\n        /* \"#utility.yul\":1576:1593   */\n      add\n        /* \"#utility.yul\":1563:1594   */\n      calldataload\n        /* \"#utility.yul\":1621:1639   */\n      0xffffffffffffffff\n        /* \"#utility.yul\":1613:1619   */\n      dup2\n        /* \"#utility.yul\":1610:1640   */\n      gt\n        /* \"#utility.yul\":1607:1724   */\n      iszero\n      tag_61\n      jumpi\n        /* \"#utility.yul\":1643:1722   */\n      tag_62\n      tag_28\n      jump\t// in\n    tag_62:\n        /* \"#utility.yul\":1607:1724   */\n    tag_61:\n        /* \"#utility.yul\":1756:1836   */\n      tag_63\n        /* \"#utility.yul\":1828:1835   */\n      dup6\n        /* \"#utility.yul\":1819:1825   */\n      dup3\n        /* \"#utility.yul\":1808:1817   */\n      dup7\n        /* \"#utility.yul\":1804:1826   */\n      add\n        /* \"#utility.yul\":1756:1836   */\n      tag_32\n      jump\t// in\n    tag_63:\n        /* \"#utility.yul\":1738:1836   */\n      swap3\n      pop\n      swap3\n      pop\n        /* \"#utility.yul\":1534:1846   */\n      pop\n        /* \"#utility.yul\":1294:1853   */\n      swap3\n      pop\n      swap3\n      swap1\n      pop\n      jump\t// out\n        /* \"#utility.yul\":1859:1973   */\n    tag_33:\n        /* \"#utility.yul\":1926:1932   */\n      0x00\n        /* \"#utility.yul\":1960:1965   */\n      dup2\n        /* \"#utility.yul\":1954:1966   */\n      mload\n        /* \"#utility.yul\":1944:1966   */\n      swap1\n      pop\n        /* \"#utility.yul\":1859:1973   */\n      swap2\n      swap1\n      pop\n      jump\t// out\n        /* \"#utility.yul\":1979:2163   */\n    tag_34:\n        /* \"#utility.yul\":2078:2089   */\n      0x00\n        /* \"#utility.yul\":2112:2118   */\n      dup3\n        /* \"#utility.yul\":2107:2110   */\n      dup3\n        /* \"#utility.yul\":2100:2119   */\n      mstore\n        /* \"#utility.yul\":2152:2156   */\n      0x20\n        /* \"#utility.yul\":2147:2150   */\n      dup3\n        /* \"#utility.yul\":2143:2157   */\n      add\n        /* \"#utility.yul\":2128:2157   */\n      swap1\n      pop\n        /* \"#utility.yul\":1979:2163   */\n      swap3\n      swap2\n      pop\n      pop\n      jump\t// out\n        /* \"#utility.yul\":2169:2301   */\n    tag_35:\n        /* \"#utility.yul\":2236:2240   */\n      0x00\n        /* \"#utility.yul\":2259:2262   */\n      dup2\n        /* \"#utility.yul\":2251:2262   */\n      swap1\n      pop\n        /* \"#utility.yul\":2289:2293   */\n      0x20\n        /* \"#utility.yul\":2284:2287   */\n      dup3\n        /* \"#utility.yul\":2280:2294   */\n      add\n        /* \"#utility.yul\":2272:2294   */\n      swap1\n      pop\n        /* \"#utility.yul\":2169:2301   */\n      swap2\n      swap1\n      pop\n      jump\t// out\n        /* \"#utility.yul\":2307:2384   */\n    tag_36:\n        /* \"#utility.yul\":2344:2351   */\n      0x00\n        /* \"#utility.yul\":2373:2378   */\n      dup2\n        /* \"#utility.yul\":2362:2378   */\n      swap1\n      pop\n        /* \"#utility.yul\":2307:2384   */\n      swap2\n      swap1\n      pop\n      jump\t// out\n        /* \"#utility.yul\":2390:2498   */\n    tag_37:\n        /* \"#utility.yul\":2467:2491   */\n      tag_69\n        /* \"#utility.yul\":2485:2490   */\n      dup2\n        /* \"#utility.yul\":2467:2491   */\n      tag_36\n      jump\t// in\n    tag_69:\n        /* \"#utility.yul\":2462:2465   */\n      dup3\n        /* \"#utility.yul\":2455:2492   */\n      mstore\n        /* \"#utility.yul\":2390:2498   */\n      pop\n      pop\n      jump\t// out\n        /* \"#utility.yul\":2504:2683   */\n    tag_38:\n        /* \"#utility.yul\":2573:2583   */\n      0x00\n        /* \"#utility.yul\":2594:2640   */\n      tag_71\n        /* \"#utility.yul\":2636:2639   */\n      dup4\n        /* \"#utility.yul\":2628:2634   */\n      dup4\n        /* \"#utility.yul\":2594:2640   */\n      tag_37\n      jump\t// in\n    tag_71:\n        /* \"#utility.yul\":2672:2676   */\n      0x20\n        /* \"#utility.yul\":2667:2670   */\n      dup4\n        /* \"#utility.yul\":2663:2677   */\n      add\n        /* \"#utility.yul\":2649:2677   */\n      swap1\n      pop\n        /* \"#utility.yul\":2504:2683   */\n      swap3\n      swap2\n      pop\n      pop\n      jump\t// out\n        /* \"#utility.yul\":2689:2802   */\n    tag_39:\n        /* \"#utility.yul\":2759:2763   */\n      0x00\n        /* \"#utility.yul\":2791:2795   */\n      0x20\n        /* \"#utility.yul\":2786:2789   */\n      dup3\n        /* \"#utility.yul\":2782:2796   */\n      add\n        /* \"#utility.yul\":2774:2796   */\n      swap1\n      pop\n        /* \"#utility.yul\":2689:2802   */\n      swap2\n      swap1\n      pop\n      jump\t// out\n        /* \"#utility.yul\":2838:3570   */\n    tag_40:\n        /* \"#utility.yul\":2957:2960   */\n      0x00\n        /* \"#utility.yul\":2986:3040   */\n      tag_74\n        /* \"#utility.yul\":3034:3039   */\n      dup3\n        /* \"#utility.yul\":2986:3040   */\n      tag_33\n      jump\t// in\n    tag_74:\n        /* \"#utility.yul\":3056:3142   */\n      tag_75\n        /* \"#utility.yul\":3135:3141   */\n      dup2\n        /* \"#utility.yul\":3130:3133   */\n      dup6\n        /* \"#utility.yul\":3056:3142   */\n      tag_34\n      jump\t// in\n    tag_75:\n        /* \"#utility.yul\":3049:3142   */\n      swap4\n      pop\n        /* \"#utility.yul\":3166:3222   */\n      tag_76\n        /* \"#utility.yul\":3216:3221   */\n      dup4\n        /* \"#utility.yul\":3166:3222   */\n      tag_35\n      jump\t// in\n    tag_76:\n        /* \"#utility.yul\":3245:3252   */\n      dup1\n        /* \"#utility.yul\":3276:3277   */\n      0x00\n        /* \"#utility.yul\":3261:3545   */\n    tag_77:\n        /* \"#utility.yul\":3286:3292   */\n      dup4\n        /* \"#utility.yul\":3283:3284   */\n      dup2\n        /* \"#utility.yul\":3280:3293   */\n      lt\n        /* \"#utility.yul\":3261:3545   */\n      iszero\n      tag_79\n      jumpi\n        /* \"#utility.yul\":3362:3368   */\n      dup2\n        /* \"#utility.yul\":3356:3369   */\n      mload\n        /* \"#utility.yul\":3389:3452   */\n      tag_80\n        /* \"#utility.yul\":3448:3451   */\n      dup9\n        /* \"#utility.yul\":3433:3446   */\n      dup3\n        /* \"#utility.yul\":3389:3452   */\n      tag_38\n      jump\t// in\n    tag_80:\n        /* \"#utility.yul\":3382:3452   */\n      swap8\n      pop\n        /* \"#utility.yul\":3475:3535   */\n      tag_81\n        /* \"#utility.yul\":3528:3534   */\n      dup4\n        /* \"#utility.yul\":3475:3535   */\n      tag_39\n      jump\t// in\n    tag_81:\n        /* \"#utility.yul\":3465:3535   */\n      swap3\n      pop\n        /* \"#utility.yul\":3321:3545   */\n      pop\n        /* \"#utility.yul\":3308:3309   */\n      0x01\n        /* \"#utility.yul\":3305:3306   */\n      dup2\n        /* \"#utility.yul\":3301:3310   */\n      add\n        /* \"#utility.yul\":3296:3310   */\n      swap1\n      pop\n        /* \"#utility.yul\":3261:3545   */\n      jump(tag_77)\n    tag_79:\n        /* \"#utility.yul\":3265:3279   */\n      pop\n        /* \"#utility.yul\":3561:3564   */\n      dup6\n        /* \"#utility.yul\":3554:3564   */\n      swap4\n      pop\n        /* \"#utility.yul\":2962:3570   */\n      pop\n      pop\n      pop\n        /* \"#utility.yul\":2838:3570   */\n      swap3\n      swap2\n      pop\n      pop\n      jump\t// out\n        /* \"#utility.yul\":3576:3949   */\n    tag_11:\n        /* \"#utility.yul\":3719:3723   */\n      0x00\n        /* \"#utility.yul\":3757:3759   */\n      0x20\n        /* \"#utility.yul\":3746:3755   */\n      dup3\n        /* \"#utility.yul\":3742:3760   */\n      add\n        /* \"#utility.yul\":3734:3760   */\n      swap1\n      pop\n        /* \"#utility.yul\":3806:3815   */\n      dup2\n        /* \"#utility.yul\":3800:3804   */\n      dup2\n        /* \"#utility.yul\":3796:3816   */\n      sub\n        /* \"#utility.yul\":3792:3793   */\n      0x00\n        /* \"#utility.yul\":3781:3790   */\n      dup4\n        /* \"#utility.yul\":3777:3794   */\n      add\n        /* \"#utility.yul\":3770:3817   */\n      mstore\n        /* \"#utility.yul\":3834:3942   */\n      tag_83\n        /* \"#utility.yul\":3937:3941   */\n      dup2\n        /* \"#utility.yul\":3928:3934   */\n      dup5\n        /* \"#utility.yul\":3834:3942   */\n      tag_40\n      jump\t// in\n    tag_83:\n        /* \"#utility.yul\":3826:3942   */\n      swap1\n      pop\n        /* \"#utility.yul\":3576:3949   */\n      swap3\n      swap2\n      pop\n      pop\n      jump\t// out\n        /* \"#utility.yul\":3955:4077   */\n    tag_41:\n        /* \"#utility.yul\":4028:4052   */\n      tag_85\n        /* \"#utility.yul\":4046:4051   */\n      dup2\n        /* \"#utility.yul\":4028:4052   */\n      tag_36\n      jump\t// in\n    tag_85:\n        /* \"#utility.yul\":4021:4026   */\n      dup2\n        /* \"#utility.yul\":4018:4053   */\n      eq\n        /* \"#utility.yul\":4008:4071   */\n      tag_86\n      jumpi\n        /* \"#utility.yul\":4067:4068   */\n      0x00\n        /* \"#utility.yul\":4064:4065   */\n      0x00\n        /* \"#utility.yul\":4057:4069   */\n      revert\n        /* \"#utility.yul\":4008:4071   */\n    tag_86:\n        /* \"#utility.yul\":3955:4077   */\n      pop\n      jump\t// out\n        /* \"#utility.yul\":4083:4222   */\n    tag_42:\n        /* \"#utility.yul\":4129:4134   */\n      0x00\n        /* \"#utility.yul\":4167:4173   */\n      dup2\n        /* \"#utility.yul\":4154:4174   */\n      calldataload\n        /* \"#utility.yul\":4145:4174   */\n      swap1\n      pop\n        /* \"#utility.yul\":4183:4216   */\n      tag_88\n        /* \"#utility.yul\":4210:4215   */\n      dup2\n        /* \"#utility.yul\":4183:4216   */\n      tag_41\n      jump\t// in\n    tag_88:\n        /* \"#utility.yul\":4083:4222   */\n      swap3\n      swap2\n      pop\n      pop\n      jump\t// out\n        /* \"#utility.yul\":4228:4557   */\n    tag_14:\n        /* \"#utility.yul\":4287:4293   */\n      0x00\n        /* \"#utility.yul\":4336:4338   */\n      0x20\n        /* \"#utility.yul\":4324:4333   */\n      dup3\n        /* \"#utility.yul\":4315:4322   */\n      dup5\n        /* \"#utility.yul\":4311:4334   */\n      sub\n        /* \"#utility.yul\":4307:4339   */\n      slt\n        /* \"#utility.yul\":4304:4423   */\n      iszero\n      tag_90\n      jumpi\n        /* \"#utility.yul\":4342:4421   */\n      tag_91\n      tag_27\n      jump\t// in\n    tag_91:\n        /* \"#utility.yul\":4304:4423   */\n    tag_90:\n        /* \"#utility.yul\":4462:4463   */\n      0x00\n        /* \"#utility.yul\":4487:4540   */\n      tag_92\n        /* \"#utility.yul\":4532:4539   */\n      dup5\n        /* \"#utility.yul\":4523:4529   */\n      dup3\n        /* \"#utility.yul\":4512:4521   */\n      dup6\n        /* \"#utility.yul\":4508:4530   */\n      add\n        /* \"#utility.yul\":4487:4540   */\n      tag_42\n      jump\t// in\n    tag_92:\n        /* \"#utility.yul\":4477:4540   */\n      swap2\n      pop\n        /* \"#utility.yul\":4433:4550   */\n      pop\n        /* \"#utility.yul\":4228:4557   */\n      swap3\n      swap2\n      pop\n      pop\n      jump\t// out\n        /* \"#utility.yul\":4563:4681   */\n    tag_43:\n        /* \"#utility.yul\":4650:4674   */\n      tag_94\n        /* \"#utility.yul\":4668:4673   */\n      dup2\n        /* \"#utility.yul\":4650:4674   */\n      tag_36\n      jump\t// in\n    tag_94:\n        /* \"#utility.yul\":4645:4648   */\n      dup3\n        /* \"#utility.yul\":4638:4675   */\n      mstore\n        /* \"#utility.yul\":4563:4681   */\n      pop\n      pop\n      jump\t// out\n        /* \"#utility.yul\":4687:4909   */\n    tag_17:\n        /* \"#utility.yul\":4780:4784   */\n      0x00\n        /* \"#utility.yul\":4818:4820   */\n      0x20\n        /* \"#utility.yul\":4807:4816   */\n      dup3\n        /* \"#utility.yul\":4803:4821   */\n      add\n        /* \"#utility.yul\":4795:4821   */\n      swap1\n      pop\n        /* \"#utility.yul\":4831:4902   */\n      tag_96\n        /* \"#utility.yul\":4899:4900   */\n      0x00\n        /* \"#utility.yul\":4888:4897   */\n      dup4\n        /* \"#utility.yul\":4884:4901   */\n      add\n        /* \"#utility.yul\":4875:4881   */\n      dup5\n        /* \"#utility.yul\":4831:4902   */\n      tag_43\n      jump\t// in\n    tag_96:\n        /* \"#utility.yul\":4687:4909   */\n      swap3\n      swap2\n      pop\n      pop\n      jump\t// out\n        /* \"#utility.yul\":4915:5095   */\n    tag_24:\n        /* \"#utility.yul\":4963:5040   */\n      0x4e487b7100000000000000000000000000000000000000000000000000000000\n        /* \"#utility.yul\":4960:4961   */\n      0x00\n        /* \"#utility.yul\":4953:5041   */\n      mstore\n        /* \"#utility.yul\":5060:5064   */\n      0x32\n        /* \"#utility.yul\":5057:5058   */\n      0x04\n        /* \"#utility.yul\":5050:5065   */\n      mstore\n        /* \"#utility.yul\":5084:5088   */\n      0x24\n        /* \"#utility.yul\":5081:5082   */\n      0x00\n        /* \"#utility.yul\":5074:5089   */\n      revert\n\n    auxdata: 0xa26469706673582212201fdbd6f7bf3d90e25ba87c81faf9b522310f803f79039b7836e99a08826506f464736f6c63430008220033\n}\n",
				"bytecode": {
					"linkReferences": {},
					"object": "6080604052348015600e575f5ffd5b506103b58061001c5f395ff3fe608060405234801561000f575f5ffd5b506004361061003f575f3560e01c8063081205a214610043578063898dd61014610073578063cb469817146100a3575b5f5ffd5b61005d600480360381019061005891906101aa565b6100c1565b60405161006a91906102b5565b60405180910390f35b61008d600480360381019061008891906102ff565b610133565b60405161009a9190610339565b60405180910390f35b6100ab61013c565b6040516100b89190610339565b60405180910390f35b60605f8383808060200260200160405190810160405280939291908181526020018383602002808284375f81840152601f19601f8201169050808301925050505050505090506103e7815f8151811061011d5761011c610352565b5b6020026020010181815250508091505092915050565b5f819050919050565b5f5481565b5f5ffd5b5f5ffd5b5f5ffd5b5f5ffd5b5f5ffd5b5f5f83601f84011261016a57610169610149565b5b8235905067ffffffffffffffff8111156101875761018661014d565b5b6020830191508360208202830111156101a3576101a2610151565b5b9250929050565b5f5f602083850312156101c0576101bf610141565b5b5f83013567ffffffffffffffff8111156101dd576101dc610145565b5b6101e985828601610155565b92509250509250929050565b5f81519050919050565b5f82825260208201905092915050565b5f819050602082019050919050565b5f819050919050565b6102308161021e565b82525050565b5f6102418383610227565b60208301905092915050565b5f602082019050919050565b5f610263826101f5565b61026d81856101ff565b93506102788361020f565b805f5b838110156102a857815161028f8882610236565b975061029a8361024d565b92505060018101905061027b565b5085935050505092915050565b5f6020820190508181035f8301526102cd8184610259565b905092915050565b6102de8161021e565b81146102e8575f5ffd5b50565b5f813590506102f9816102d5565b92915050565b5f6020828403121561031457610313610141565b5b5f610321848285016102eb565b91505092915050565b6103338161021e565b82525050565b5f60208201905061034c5f83018461032a565b92915050565b7f4e487b71000000000000000000000000000000000000000000000000000000005f52603260045260245ffdfea26469706673582212201fdbd6f7bf3d90e25ba87c81faf9b522310f803f79039b7836e99a08826506f464736f6c63430008220033",
					"opcodes": "PUSH1 0x80 PUSH1 0x40 MSTORE CALLVALUE DUP1 ISZERO PUSH1 0xE JUMPI PUSH0 PUSH0 REVERT JUMPDEST POP PUSH2 0x3B5 DUP1 PUSH2 0x1C PUSH0 CODECOPY PUSH0 RETURN INVALID PUSH1 0x80 PUSH1 0x40 MSTORE CALLVALUE DUP1 ISZERO PUSH2 0xF JUMPI PUSH0 PUSH0 REVERT JUMPDEST POP PUSH1 0x4 CALLDATASIZE LT PUSH2 0x3F JUMPI PUSH0 CALLDATALOAD PUSH1 0xE0 SHR DUP1 PUSH4 0x81205A2 EQ PUSH2 0x43 JUMPI DUP1 PUSH4 0x898DD610 EQ PUSH2 0x73 JUMPI DUP1 PUSH4 0xCB469817 EQ PUSH2 0xA3 JUMPI JUMPDEST PUSH0 PUSH0 REVERT JUMPDEST PUSH2 0x5D PUSH1 0x4 DUP1 CALLDATASIZE SUB DUP2 ADD SWAP1 PUSH2 0x58 SWAP2 SWAP1 PUSH2 0x1AA JUMP JUMPDEST PUSH2 0xC1 JUMP JUMPDEST PUSH1 0x40 MLOAD PUSH2 0x6A SWAP2 SWAP1 PUSH2 0x2B5 JUMP JUMPDEST PUSH1 0x40 MLOAD DUP1 SWAP2 SUB SWAP1 RETURN JUMPDEST PUSH2 0x8D PUSH1 0x4 DUP1 CALLDATASIZE SUB DUP2 ADD SWAP1 PUSH2 0x88 SWAP2 SWAP1 PUSH2 0x2FF JUMP JUMPDEST PUSH2 0x133 JUMP JUMPDEST PUSH1 0x40 MLOAD PUSH2 0x9A SWAP2 SWAP1 PUSH2 0x339 JUMP JUMPDEST PUSH1 0x40 MLOAD DUP1 SWAP2 SUB SWAP1 RETURN JUMPDEST PUSH2 0xAB PUSH2 0x13C JUMP JUMPDEST PUSH1 0x40 MLOAD PUSH2 0xB8 SWAP2 SWAP1 PUSH2 0x339 JUMP JUMPDEST PUSH1 0x40 MLOAD DUP1 SWAP2 SUB SWAP1 RETURN JUMPDEST PUSH1 0x60 PUSH0 DUP4 DUP4 DUP1 DUP1 PUSH1 0x20 MUL PUSH1 0x20 ADD PUSH1 0x40 MLOAD SWAP1 DUP2 ADD PUSH1 0x40 MSTORE DUP1 SWAP4 SWAP3 SWAP2 SWAP1 DUP2 DUP2 MSTORE PUSH1 0x20 ADD DUP4 DUP4 PUSH1 0x20 MUL DUP1 DUP3 DUP5 CALLDATACOPY PUSH0 DUP2 DUP5 ADD MSTORE PUSH1 0x1F NOT PUSH1 0x1F DUP3 ADD AND SWAP1 POP DUP1 DUP4 ADD SWAP3 POP POP POP POP POP POP POP SWAP1 POP PUSH2 0x3E7 DUP2 PUSH0 DUP2 MLOAD DUP2 LT PUSH2 0x11D JUMPI PUSH2 0x11C PUSH2 0x352 JUMP JUMPDEST JUMPDEST PUSH1 0x20 MUL PUSH1 0x20 ADD ADD DUP2 DUP2 MSTORE POP POP DUP1 SWAP2 POP POP SWAP3 SWAP2 POP POP JUMP JUMPDEST PUSH0 DUP2 SWAP1 POP SWAP2 SWAP1 POP JUMP JUMPDEST PUSH0 SLOAD DUP2 JUMP JUMPDEST PUSH0 PUSH0 REVERT JUMPDEST PUSH0 PUSH0 REVERT JUMPDEST PUSH0 PUSH0 REVERT JUMPDEST PUSH0 PUSH0 REVERT JUMPDEST PUSH0 PUSH0 REVERT JUMPDEST PUSH0 PUSH0 DUP4 PUSH1 0x1F DUP5 ADD SLT PUSH2 0x16A JUMPI PUSH2 0x169 PUSH2 0x149 JUMP JUMPDEST JUMPDEST DUP3 CALLDATALOAD SWAP1 POP PUSH8 0xFFFFFFFFFFFFFFFF DUP2 GT ISZERO PUSH2 0x187 JUMPI PUSH2 0x186 PUSH2 0x14D JUMP JUMPDEST JUMPDEST PUSH1 0x20 DUP4 ADD SWAP2 POP DUP4 PUSH1 0x20 DUP3 MUL DUP4 ADD GT ISZERO PUSH2 0x1A3 JUMPI PUSH2 0x1A2 PUSH2 0x151 JUMP JUMPDEST JUMPDEST SWAP3 POP SWAP3 SWAP1 POP JUMP JUMPDEST PUSH0 PUSH0 PUSH1 0x20 DUP4 DUP6 SUB SLT ISZERO PUSH2 0x1C0 JUMPI PUSH2 0x1BF PUSH2 0x141 JUMP JUMPDEST JUMPDEST PUSH0 DUP4 ADD CALLDATALOAD PUSH8 0xFFFFFFFFFFFFFFFF DUP2 GT ISZERO PUSH2 0x1DD JUMPI PUSH2 0x1DC PUSH2 0x145 JUMP JUMPDEST JUMPDEST PUSH2 0x1E9 DUP6 DUP3 DUP7 ADD PUSH2 0x155 JUMP JUMPDEST SWAP3 POP SWAP3 POP POP SWAP3 POP SWAP3 SWAP1 POP JUMP JUMPDEST PUSH0 DUP2 MLOAD SWAP1 POP SWAP2 SWAP1 POP JUMP JUMPDEST PUSH0 DUP3 DUP3 MSTORE PUSH1 0x20 DUP3 ADD SWAP1 POP SWAP3 SWAP2 POP POP JUMP JUMPDEST PUSH0 DUP2 SWAP1 POP PUSH1 0x20 DUP3 ADD SWAP1 POP SWAP2 SWAP1 POP JUMP JUMPDEST PUSH0 DUP2 SWAP1 POP SWAP2 SWAP1 POP JUMP JUMPDEST PUSH2 0x230 DUP2 PUSH2 0x21E JUMP JUMPDEST DUP3 MSTORE POP POP JUMP JUMPDEST PUSH0 PUSH2 0x241 DUP4 DUP4 PUSH2 0x227 JUMP JUMPDEST PUSH1 0x20 DUP4 ADD SWAP1 POP SWAP3 SWAP2 POP POP JUMP JUMPDEST PUSH0 PUSH1 0x20 DUP3 ADD SWAP1 POP SWAP2 SWAP1 POP JUMP JUMPDEST PUSH0 PUSH2 0x263 DUP3 PUSH2 0x1F5 JUMP JUMPDEST PUSH2 0x26D DUP2 DUP6 PUSH2 0x1FF JUMP JUMPDEST SWAP4 POP PUSH2 0x278 DUP4 PUSH2 0x20F JUMP JUMPDEST DUP1 PUSH0 JUMPDEST DUP4 DUP2 LT ISZERO PUSH2 0x2A8 JUMPI DUP2 MLOAD PUSH2 0x28F DUP9 DUP3 PUSH2 0x236 JUMP JUMPDEST SWAP8 POP PUSH2 0x29A DUP4 PUSH2 0x24D JUMP JUMPDEST SWAP3 POP POP PUSH1 0x1 DUP2 ADD SWAP1 POP PUSH2 0x27B JUMP JUMPDEST POP DUP6 SWAP4 POP POP POP POP SWAP3 SWAP2 POP POP JUMP JUMPDEST PUSH0 PUSH1 0x20 DUP3 ADD SWAP1 POP DUP2 DUP2 SUB PUSH0 DUP4 ADD MSTORE PUSH2 0x2CD DUP2 DUP5 PUSH2 0x259 JUMP JUMPDEST SWAP1 POP SWAP3 SWAP2 POP POP JUMP JUMPDEST PUSH2 0x2DE DUP2 PUSH2 0x21E JUMP JUMPDEST DUP2 EQ PUSH2 0x2E8 JUMPI PUSH0 PUSH0 REVERT JUMPDEST POP JUMP JUMPDEST PUSH0 DUP2 CALLDATALOAD SWAP1 POP PUSH2 0x2F9 DUP2 PUSH2 0x2D5 JUMP JUMPDEST SWAP3 SWAP2 POP POP JUMP JUMPDEST PUSH0 PUSH1 0x20 DUP3 DUP5 SUB SLT ISZERO PUSH2 0x314 JUMPI PUSH2 0x313 PUSH2 0x141 JUMP JUMPDEST JUMPDEST PUSH0 PUSH2 0x321 DUP5 DUP3 DUP6 ADD PUSH2 0x2EB JUMP JUMPDEST SWAP2 POP POP SWAP3 SWAP2 POP POP JUMP JUMPDEST PUSH2 0x333 DUP2 PUSH2 0x21E JUMP JUMPDEST DUP3 MSTORE POP POP JUMP JUMPDEST PUSH0 PUSH1 0x20 DUP3 ADD SWAP1 POP PUSH2 0x34C PUSH0 DUP4 ADD DUP5 PUSH2 0x32A JUMP JUMPDEST SWAP3 SWAP2 POP POP JUMP JUMPDEST PUSH32 0x4E487B7100000000000000000000000000000000000000000000000000000000 PUSH0 MSTORE PUSH1 0x32 PUSH1 0x4 MSTORE PUSH1 0x24 PUSH0 REVERT INVALID LOG2 PUSH5 0x6970667358 0x22 SLT KECCAK256 0x1F 0xDB 0xD6 0xF7 0xBF RETURNDATASIZE SWAP1 0xE2 JUMPDEST 0xA8 PUSH29 0x81FAF9B522310F803F79039B7836E99A08826506F464736F6C63430008 0x22 STOP CALLER "
				},
				"gasEstimates": {
					"creation": {
						"codeDepositCost": "189800",
						"executionCost": "230",
						"totalCost": "190030"
					},
					"external": {
						"readCalldata(uint256)": "infinite",
						"savedValue()": "2446",
						"workingMemoryExample(uint256[])": "infinite"
					}
				},
				"methodIdentifiers": {
					"readCalldata(uint256)": "898dd610",
					"savedValue()": "cb469817",
					"workingMemoryExample(uint256[])": "081205a2"
				}
			},
			"storageLayout": {
				"storage": [
					{
						"astId": 3,
						"contract": "val29.sol:CalldataRestrictionval",
						"label": "savedValue",
						"offset": 0,
						"slot": "0",
						"type": "t_uint256"
					}
				],
				"types": {
					"t_uint256": {
						"encoding": "inplace",
						"label": "uint256",
						"numberOfBytes": "32"
					}
				}
			},
			"userdoc": {
				"kind": "user",
				"methods": {},
				"version": 1
			}
		}
	}
}