{
	"val42.sol": {
		"InternalFunctionFlow": {
			"abi": [
				{
					"inputs": [],
					"stateMutability": "nonpayable",
					"type": "constructor"
				},
				{
					"inputs": [
						{
							"internalType": "address",
							"name": "",
							"type": "address"
						}
					],
					"name": "balances",
					"outputs": [
						{
							"internalType": "uint256",
							"name": "",
							"type": "uint256"
						}
					],
					"stateMutability": "view",
					"type": "function"
				},
				{
					"inputs": [
						{
							"internalType": "uint256",
							"name": "_amount",
							"type": "uint256"
						}
					],
					"name": "deposit",
					"outputs": [],
					"stateMutability": "nonpayable",
					"type": "function"
				},
				{
					"inputs": [
						{
							"internalType": "uint256",
							"name": "_amount",
							"type": "uint256"
						}
					],
					"name": "depositWithBonus",
					"outputs": [],
					"stateMutability": "nonpayable",
					"type": "function"
				},
				{
					"inputs": [],
					"name": "owner",
					"outputs": [
						{
							"internalType": "address",
							"name": "",
							"type": "address"
						}
					],
					"stateMutability": "view",
					"type": "function"
				},
				{
					"inputs": [
						{
							"internalType": "address",
							"name": "_user",
							"type": "address"
						}
					],
					"name": "resetUserBalance",
					"outputs": [],
					"stateMutability": "nonpayable",
					"type": "function"
				},
				{
					"inputs": [],
					"name": "totalDeposits",
					"outputs": [
						{
							"internalType": "uint256",
							"name": "",
							"type": "uint256"
						}
					],
					"stateMutability": "view",
					"type": "function"
				},
				{
					"inputs": [
						{
							"internalType": "uint256",
							"name": "_amount",
							"type": "uint256"
						}
					],
					"name": "withdraw",
					"outputs": [],
					"stateMutability": "nonpayable",
					"type": "function"
				}
			],
			"devdoc": {
				"kind": "dev",
				"methods": {},
				"version": 1
			},
			"evm": {
				"assembly": "    /* \"val42.sol\":14135:18254  contract InternalFunctionFlow {... */\n  mstore(0x40, 0x80)\n    /* \"val42.sol\":14292:14343  constructor() {... */\n  callvalue\n  dup1\n  iszero\n  tag_1\n  jumpi\n  revert(0x00, 0x00)\ntag_1:\n  pop\n    /* \"val42.sol\":14325:14335  msg.sender */\n  caller\n    /* \"val42.sol\":14317:14322  owner */\n  0x02\n  0x00\n    /* \"val42.sol\":14317:14335  owner = msg.sender */\n  0x0100\n  exp\n  dup2\n  sload\n  dup2\n  0xffffffffffffffffffffffffffffffffffffffff\n  mul\n  not\n  and\n  swap1\n  dup4\n  0xffffffffffffffffffffffffffffffffffffffff\n  and\n  mul\n  or\n  swap1\n  sstore\n  pop\n    /* \"val42.sol\":14135:18254  contract InternalFunctionFlow {... */\n  dataSize(sub_0)\n  dup1\n  dataOffset(sub_0)\n  0x00\n  codecopy\n  0x00\n  return\nstop\n\nsub_0: assembly {\n        /* \"val42.sol\":14135:18254  contract InternalFunctionFlow {... */\n      mstore(0x40, 0x80)\n      callvalue\n      dup1\n      iszero\n      tag_1\n      jumpi\n      revert(0x00, 0x00)\n    tag_1:\n      pop\n      jumpi(tag_2, lt(calldatasize, 0x04))\n      shr(0xe0, calldataload(0x00))\n      dup1\n      0x7d882097\n      gt\n      tag_10\n      jumpi\n      dup1\n      0x7d882097\n      eq\n      tag_6\n      jumpi\n      dup1\n      0x8517386a\n      eq\n      tag_7\n      jumpi\n      dup1\n      0x8da5cb5b\n      eq\n      tag_8\n      jumpi\n      dup1\n      0xb6b55f25\n      eq\n      tag_9\n      jumpi\n      jump(tag_2)\n    tag_10:\n      dup1\n      0x27e235e3\n      eq\n      tag_3\n      jumpi\n      dup1\n      0x2e1a7d4d\n      eq\n      tag_4\n      jumpi\n      dup1\n      0x2f7c9ed6\n      eq\n      tag_5\n      jumpi\n    tag_2:\n      revert(0x00, 0x00)\n        /* \"val42.sol\":14174:14217  mapping(address => uint256) public balances */\n    tag_3:\n      tag_11\n      0x04\n      dup1\n      calldatasize\n      sub\n      dup2\n      add\n      swap1\n      tag_12\n      swap2\n      swap1\n      tag_13\n      jump\t// in\n    tag_12:\n      tag_14\n      jump\t// in\n    tag_11:\n      mload(0x40)\n      tag_15\n      swap2\n      swap1\n      tag_16\n      jump\t// in\n    tag_15:\n      mload(0x40)\n      dup1\n      swap2\n      sub\n      swap1\n      return\n        /* \"val42.sol\":15440:15727  function withdraw(... */\n    tag_4:\n      tag_17\n      0x04\n      dup1\n      calldatasize\n      sub\n      dup2\n      add\n      swap1\n      tag_18\n      swap2\n      swap1\n      tag_19\n      jump\t// in\n    tag_18:\n      tag_20\n      jump\t// in\n    tag_17:\n      stop\n        /* \"val42.sol\":14915:15259  function depositWithBonus(... */\n    tag_5:\n      tag_21\n      0x04\n      dup1\n      calldatasize\n      sub\n      dup2\n      add\n      swap1\n      tag_22\n      swap2\n      swap1\n      tag_19\n      jump\t// in\n    tag_22:\n      tag_23\n      jump\t// in\n    tag_21:\n      stop\n        /* \"val42.sol\":14226:14254  uint256 public totalDeposits */\n    tag_6:\n      tag_24\n      tag_25\n      jump\t// in\n    tag_24:\n      mload(0x40)\n      tag_26\n      swap2\n      swap1\n      tag_16\n      jump\t// in\n    tag_26:\n      mload(0x40)\n      dup1\n      swap2\n      sub\n      swap1\n      return\n        /* \"val42.sol\":15888:16031  function resetUserBalance(... */\n    tag_7:\n      tag_27\n      0x04\n      dup1\n      calldatasize\n      sub\n      dup2\n      add\n      swap1\n      tag_28\n      swap2\n      swap1\n      tag_13\n      jump\t// in\n    tag_28:\n      tag_29\n      jump\t// in\n    tag_27:\n      stop\n        /* \"val42.sol\":14263:14283  address public owner */\n    tag_8:\n      tag_30\n      tag_31\n      jump\t// in\n    tag_30:\n      mload(0x40)\n      tag_32\n      swap2\n      swap1\n      tag_33\n      jump\t// in\n    tag_32:\n      mload(0x40)\n      dup1\n      swap2\n      sub\n      swap1\n      return\n        /* \"val42.sol\":14509:14747  function deposit(... */\n    tag_9:\n      tag_34\n      0x04\n      dup1\n      calldatasize\n      sub\n      dup2\n      add\n      swap1\n      tag_35\n      swap2\n      swap1\n      tag_19\n      jump\t// in\n    tag_35:\n      tag_36\n      jump\t// in\n    tag_34:\n      stop\n        /* \"val42.sol\":14174:14217  mapping(address => uint256) public balances */\n    tag_14:\n      mstore(0x20, 0x00)\n      dup1\n      0x00\n      mstore\n      keccak256(0x00, 0x40)\n      0x00\n      swap2\n      pop\n      swap1\n      pop\n      sload\n      dup2\n      jump\t// out\n        /* \"val42.sol\":15440:15727  function withdraw(... */\n    tag_20:\n        /* \"val42.sol\":15525:15599  _withdrawBalance(... */\n      tag_38\n        /* \"val42.sol\":15556:15566  msg.sender */\n      caller\n        /* \"val42.sol\":15581:15588  _amount */\n      dup3\n        /* \"val42.sol\":15525:15541  _withdrawBalance */\n      tag_39\n        /* \"val42.sol\":15525:15599  _withdrawBalance(... */\n      jump\t// in\n    tag_38:\n        /* \"val42.sol\":15612:15623  uint256 fee */\n      0x00\n        /* \"val42.sol\":15639:15661  _calculateFee(_amount) */\n      tag_40\n        /* \"val42.sol\":15653:15660  _amount */\n      dup3\n        /* \"val42.sol\":15639:15652  _calculateFee */\n      tag_41\n        /* \"val42.sol\":15639:15661  _calculateFee(_amount) */\n      jump\t// in\n    tag_40:\n        /* \"val42.sol\":15612:15661  uint256 fee =... */\n      swap1\n      pop\n        /* \"val42.sol\":15715:15718  fee */\n      dup1\n        /* \"val42.sol\":15705:15712  _amount */\n      dup3\n        /* \"val42.sol\":15705:15718  _amount + fee */\n      tag_42\n      swap2\n      swap1\n      tag_43\n      jump\t// in\n    tag_42:\n        /* \"val42.sol\":15674:15687  totalDeposits */\n      0x01\n      0x00\n        /* \"val42.sol\":15674:15719  totalDeposits -=... */\n      dup3\n      dup3\n      sload\n      tag_44\n      swap2\n      swap1\n      tag_45\n      jump\t// in\n    tag_44:\n      swap3\n      pop\n      pop\n      dup2\n      swap1\n      sstore\n      pop\n        /* \"val42.sol\":15514:15727  {... */\n      pop\n        /* \"val42.sol\":15440:15727  function withdraw(... */\n      pop\n      jump\t// out\n        /* \"val42.sol\":14915:15259  function depositWithBonus(... */\n    tag_23:\n        /* \"val42.sol\":15008:15032  _validateAmount(_amount) */\n      tag_47\n        /* \"val42.sol\":15024:15031  _amount */\n      dup2\n        /* \"val42.sol\":15008:15023  _validateAmount */\n      tag_48\n        /* \"val42.sol\":15008:15032  _validateAmount(_amount) */\n      jump\t// in\n    tag_47:\n        /* \"val42.sol\":15045:15058  uint256 bonus */\n      0x00\n        /* \"val42.sol\":15074:15098  _calculateBonus(_amount) */\n      tag_49\n        /* \"val42.sol\":15090:15097  _amount */\n      dup3\n        /* \"val42.sol\":15074:15089  _calculateBonus */\n      tag_50\n        /* \"val42.sol\":15074:15098  _calculateBonus(_amount) */\n      jump\t// in\n    tag_49:\n        /* \"val42.sol\":15045:15098  uint256 bonus =... */\n      swap1\n      pop\n        /* \"val42.sol\":15111:15191  _updateBalance(... */\n      tag_51\n        /* \"val42.sol\":15140:15150  msg.sender */\n      caller\n        /* \"val42.sol\":15175:15180  bonus */\n      dup3\n        /* \"val42.sol\":15165:15172  _amount */\n      dup5\n        /* \"val42.sol\":15165:15180  _amount + bonus */\n      tag_52\n      swap2\n      swap1\n      tag_43\n      jump\t// in\n    tag_52:\n        /* \"val42.sol\":15111:15125  _updateBalance */\n      tag_53\n        /* \"val42.sol\":15111:15191  _updateBalance(... */\n      jump\t// in\n    tag_51:\n        /* \"val42.sol\":15245:15250  bonus */\n      dup1\n        /* \"val42.sol\":15235:15242  _amount */\n      dup3\n        /* \"val42.sol\":15235:15250  _amount + bonus */\n      tag_54\n      swap2\n      swap1\n      tag_43\n      jump\t// in\n    tag_54:\n        /* \"val42.sol\":15204:15217  totalDeposits */\n      0x01\n      0x00\n        /* \"val42.sol\":15204:15251  totalDeposits +=... */\n      dup3\n      dup3\n      sload\n      tag_55\n      swap2\n      swap1\n      tag_43\n      jump\t// in\n    tag_55:\n      swap3\n      pop\n      pop\n      dup2\n      swap1\n      sstore\n      pop\n        /* \"val42.sol\":14997:15259  {... */\n      pop\n        /* \"val42.sol\":14915:15259  function depositWithBonus(... */\n      pop\n      jump\t// out\n        /* \"val42.sol\":14226:14254  uint256 public totalDeposits */\n    tag_25:\n      sload(0x01)\n      dup2\n      jump\t// out\n        /* \"val42.sol\":15888:16031  function resetUserBalance(... */\n    tag_29:\n        /* \"val42.sol\":15979:15991  _onlyOwner() */\n      tag_57\n        /* \"val42.sol\":15979:15989  _onlyOwner */\n      tag_58\n        /* \"val42.sol\":15979:15991  _onlyOwner() */\n      jump\t// in\n    tag_57:\n        /* \"val42.sol\":16022:16023  0 */\n      0x00\n        /* \"val42.sol\":16004:16012  balances */\n      0x00\n        /* \"val42.sol\":16004:16019  balances[_user] */\n      0x00\n        /* \"val42.sol\":16013:16018  _user */\n      dup4\n        /* \"val42.sol\":16004:16019  balances[_user] */\n      0xffffffffffffffffffffffffffffffffffffffff\n      and\n      0xffffffffffffffffffffffffffffffffffffffff\n      and\n      dup2\n      mstore\n      0x20\n      add\n      swap1\n      dup2\n      mstore\n      0x20\n      add\n      0x00\n      keccak256\n        /* \"val42.sol\":16004:16023  balances[_user] = 0 */\n      dup2\n      swap1\n      sstore\n      pop\n        /* \"val42.sol\":15888:16031  function resetUserBalance(... */\n      pop\n      jump\t// out\n        /* \"val42.sol\":14263:14283  address public owner */\n    tag_31:\n      0x02\n      0x00\n      swap1\n      sload\n      swap1\n      0x0100\n      exp\n      swap1\n      div\n      0xffffffffffffffffffffffffffffffffffffffff\n      and\n      dup2\n      jump\t// out\n        /* \"val42.sol\":14509:14747  function deposit(... */\n    tag_36:\n        /* \"val42.sol\":14593:14617  _validateAmount(_amount) */\n      tag_60\n        /* \"val42.sol\":14609:14616  _amount */\n      dup2\n        /* \"val42.sol\":14593:14608  _validateAmount */\n      tag_48\n        /* \"val42.sol\":14593:14617  _validateAmount(_amount) */\n      jump\t// in\n    tag_60:\n        /* \"val42.sol\":14630:14702  _updateBalance(... */\n      tag_61\n        /* \"val42.sol\":14659:14669  msg.sender */\n      caller\n        /* \"val42.sol\":14684:14691  _amount */\n      dup3\n        /* \"val42.sol\":14630:14644  _updateBalance */\n      tag_53\n        /* \"val42.sol\":14630:14702  _updateBalance(... */\n      jump\t// in\n    tag_61:\n        /* \"val42.sol\":14732:14739  _amount */\n      dup1\n        /* \"val42.sol\":14715:14728  totalDeposits */\n      0x01\n      0x00\n        /* \"val42.sol\":14715:14739  totalDeposits += _amount */\n      dup3\n      dup3\n      sload\n      tag_62\n      swap2\n      swap1\n      tag_43\n      jump\t// in\n    tag_62:\n      swap3\n      pop\n      pop\n      dup2\n      swap1\n      sstore\n      pop\n        /* \"val42.sol\":14509:14747  function deposit(... */\n      pop\n      jump\t// out\n        /* \"val42.sol\":17308:17568  function _withdrawBalance(... */\n    tag_39:\n        /* \"val42.sol\":17466:17473  _amount */\n      dup1\n        /* \"val42.sol\":17447:17455  balances */\n      0x00\n        /* \"val42.sol\":17447:17462  balances[_user] */\n      0x00\n        /* \"val42.sol\":17456:17461  _user */\n      dup5\n        /* \"val42.sol\":17447:17462  balances[_user] */\n      0xffffffffffffffffffffffffffffffffffffffff\n      and\n      0xffffffffffffffffffffffffffffffffffffffff\n      and\n      dup2\n      mstore\n      0x20\n      add\n      swap1\n      dup2\n      mstore\n      0x20\n      add\n      0x00\n      keccak256\n      sload\n        /* \"val42.sol\":17447:17473  balances[_user] >= _amount */\n      lt\n      iszero\n        /* \"val42.sol\":17425:17521  require(... */\n      tag_64\n      jumpi\n      mload(0x40)\n      0x08c379a000000000000000000000000000000000000000000000000000000000\n      dup2\n      mstore\n      0x04\n      add\n      tag_65\n      swap1\n      tag_66\n      jump\t// in\n    tag_65:\n      mload(0x40)\n      dup1\n      swap2\n      sub\n      swap1\n      revert\n    tag_64:\n        /* \"val42.sol\":17553:17560  _amount */\n      dup1\n        /* \"val42.sol\":17534:17542  balances */\n      0x00\n        /* \"val42.sol\":17534:17549  balances[_user] */\n      0x00\n        /* \"val42.sol\":17543:17548  _user */\n      dup5\n        /* \"val42.sol\":17534:17549  balances[_user] */\n      0xffffffffffffffffffffffffffffffffffffffff\n      and\n      0xffffffffffffffffffffffffffffffffffffffff\n      and\n      dup2\n      mstore\n      0x20\n      add\n      swap1\n      dup2\n      mstore\n      0x20\n      add\n      0x00\n      keccak256\n      0x00\n        /* \"val42.sol\":17534:17560  balances[_user] -= _amount */\n      dup3\n      dup3\n      sload\n      tag_67\n      swap2\n      swap1\n      tag_45\n      jump\t// in\n    tag_67:\n      swap3\n      pop\n      pop\n      dup2\n      swap1\n      sstore\n      pop\n        /* \"val42.sol\":17308:17568  function _withdrawBalance(... */\n      pop\n      pop\n      jump\t// out\n        /* \"val42.sol\":18086:18251  function _calculateFee(... */\n    tag_41:\n        /* \"val42.sol\":18192:18199  uint256 */\n      0x00\n        /* \"val42.sol\":18240:18243  100 */\n      0x64\n        /* \"val42.sol\":18235:18236  2 */\n      0x02\n        /* \"val42.sol\":18225:18232  _amount */\n      dup4\n        /* \"val42.sol\":18225:18236  _amount * 2 */\n      tag_69\n      swap2\n      swap1\n      tag_70\n      jump\t// in\n    tag_69:\n        /* \"val42.sol\":18224:18243  (_amount * 2) / 100 */\n      tag_71\n      swap2\n      swap1\n      tag_72\n      jump\t// in\n    tag_71:\n        /* \"val42.sol\":18217:18243  return (_amount * 2) / 100 */\n      swap1\n      pop\n        /* \"val42.sol\":18086:18251  function _calculateFee(... */\n      swap2\n      swap1\n      pop\n      jump\t// out\n        /* \"val42.sol\":16200:16486  function _validateAmount(... */\n    tag_48:\n        /* \"val42.sol\":16338:16339  0 */\n      0x00\n        /* \"val42.sol\":16328:16335  _amount */\n      dup2\n        /* \"val42.sol\":16328:16339  _amount > 0 */\n      gt\n        /* \"val42.sol\":16306:16385  require(... */\n      tag_74\n      jumpi\n      mload(0x40)\n      0x08c379a000000000000000000000000000000000000000000000000000000000\n      dup2\n      mstore\n      0x04\n      add\n      tag_75\n      swap1\n      tag_76\n      jump\t// in\n    tag_75:\n      mload(0x40)\n      dup1\n      swap2\n      sub\n      swap1\n      revert\n    tag_74:\n        /* \"val42.sol\":16431:16434  100 */\n      0x64\n        /* \"val42.sol\":16420:16427  _amount */\n      dup2\n        /* \"val42.sol\":16420:16434  _amount <= 100 */\n      gt\n      iszero\n        /* \"val42.sol\":16398:16478  require(... */\n      tag_77\n      jumpi\n      mload(0x40)\n      0x08c379a000000000000000000000000000000000000000000000000000000000\n      dup2\n      mstore\n      0x04\n      add\n      tag_78\n      swap1\n      tag_79\n      jump\t// in\n    tag_78:\n      mload(0x40)\n      dup1\n      swap2\n      sub\n      swap1\n      revert\n    tag_77:\n        /* \"val42.sol\":16200:16486  function _validateAmount(... */\n      pop\n      jump\t// out\n        /* \"val42.sol\":17744:17912  function _calculateBonus(... */\n    tag_50:\n        /* \"val42.sol\":17852:17859  uint256 */\n      0x00\n        /* \"val42.sol\":17901:17904  100 */\n      0x64\n        /* \"val42.sol\":17895:17897  10 */\n      0x0a\n        /* \"val42.sol\":17885:17892  _amount */\n      dup4\n        /* \"val42.sol\":17885:17897  _amount * 10 */\n      tag_81\n      swap2\n      swap1\n      tag_70\n      jump\t// in\n    tag_81:\n        /* \"val42.sol\":17884:17904  (_amount * 10) / 100 */\n      tag_82\n      swap2\n      swap1\n      tag_72\n      jump\t// in\n    tag_82:\n        /* \"val42.sol\":17877:17904  return (_amount * 10) / 100 */\n      swap1\n      pop\n        /* \"val42.sol\":17744:17912  function _calculateBonus(... */\n      swap2\n      swap1\n      pop\n      jump\t// out\n        /* \"val42.sol\":16985:17134  function _updateBalance(... */\n    tag_53:\n        /* \"val42.sol\":17119:17126  _amount */\n      dup1\n        /* \"val42.sol\":17100:17108  balances */\n      0x00\n        /* \"val42.sol\":17100:17115  balances[_user] */\n      0x00\n        /* \"val42.sol\":17109:17114  _user */\n      dup5\n        /* \"val42.sol\":17100:17115  balances[_user] */\n      0xffffffffffffffffffffffffffffffffffffffff\n      and\n      0xffffffffffffffffffffffffffffffffffffffff\n      and\n      dup2\n      mstore\n      0x20\n      add\n      swap1\n      dup2\n      mstore\n      0x20\n      add\n      0x00\n      keccak256\n      0x00\n        /* \"val42.sol\":17100:17126  balances[_user] += _amount */\n      dup3\n      dup3\n      sload\n      tag_84\n      swap2\n      swap1\n      tag_43\n      jump\t// in\n    tag_84:\n      swap3\n      pop\n      pop\n      dup2\n      swap1\n      sstore\n      pop\n        /* \"val42.sol\":16985:17134  function _updateBalance(... */\n      pop\n      pop\n      jump\t// out\n        /* \"val42.sol\":16656:16812  function _onlyOwner()... */\n    tag_58:\n        /* \"val42.sol\":16762:16767  owner */\n      0x02\n      0x00\n      swap1\n      sload\n      swap1\n      0x0100\n      exp\n      swap1\n      div\n      0xffffffffffffffffffffffffffffffffffffffff\n      and\n        /* \"val42.sol\":16748:16767  msg.sender == owner */\n      0xffffffffffffffffffffffffffffffffffffffff\n      and\n        /* \"val42.sol\":16748:16758  msg.sender */\n      caller\n        /* \"val42.sol\":16748:16767  msg.sender == owner */\n      0xffffffffffffffffffffffffffffffffffffffff\n      and\n      eq\n        /* \"val42.sol\":16726:16804  require(... */\n      tag_86\n      jumpi\n      mload(0x40)\n      0x08c379a000000000000000000000000000000000000000000000000000000000\n      dup2\n      mstore\n      0x04\n      add\n      tag_87\n      swap1\n      tag_88\n      jump\t// in\n    tag_87:\n      mload(0x40)\n      dup1\n      swap2\n      sub\n      swap1\n      revert\n    tag_86:\n        /* \"val42.sol\":16656:16812  function _onlyOwner()... */\n      jump\t// out\n        /* \"#utility.yul\":88:205   */\n    tag_90:\n        /* \"#utility.yul\":197:198   */\n      0x00\n        /* \"#utility.yul\":194:195   */\n      0x00\n        /* \"#utility.yul\":187:199   */\n      revert\n        /* \"#utility.yul\":334:460   */\n    tag_92:\n        /* \"#utility.yul\":371:378   */\n      0x00\n        /* \"#utility.yul\":411:453   */\n      0xffffffffffffffffffffffffffffffffffffffff\n        /* \"#utility.yul\":404:409   */\n      dup3\n        /* \"#utility.yul\":400:454   */\n      and\n        /* \"#utility.yul\":389:454   */\n      swap1\n      pop\n        /* \"#utility.yul\":334:460   */\n      swap2\n      swap1\n      pop\n      jump\t// out\n        /* \"#utility.yul\":466:562   */\n    tag_93:\n        /* \"#utility.yul\":503:510   */\n      0x00\n        /* \"#utility.yul\":532:556   */\n      tag_118\n        /* \"#utility.yul\":550:555   */\n      dup3\n        /* \"#utility.yul\":532:556   */\n      tag_92\n      jump\t// in\n    tag_118:\n        /* \"#utility.yul\":521:556   */\n      swap1\n      pop\n        /* \"#utility.yul\":466:562   */\n      swap2\n      swap1\n      pop\n      jump\t// out\n        /* \"#utility.yul\":568:690   */\n    tag_94:\n        /* \"#utility.yul\":641:665   */\n      tag_120\n        /* \"#utility.yul\":659:664   */\n      dup2\n        /* \"#utility.yul\":641:665   */\n      tag_93\n      jump\t// in\n    tag_120:\n        /* \"#utility.yul\":634:639   */\n      dup2\n        /* \"#utility.yul\":631:666   */\n      eq\n        /* \"#utility.yul\":621:684   */\n      tag_121\n      jumpi\n        /* \"#utility.yul\":680:681   */\n      0x00\n        /* \"#utility.yul\":677:678   */\n      0x00\n        /* \"#utility.yul\":670:682   */\n      revert\n        /* \"#utility.yul\":621:684   */\n    tag_121:\n        /* \"#utility.yul\":568:690   */\n      pop\n      jump\t// out\n        /* \"#utility.yul\":696:835   */\n    tag_95:\n        /* \"#utility.yul\":742:747   */\n      0x00\n        /* \"#utility.yul\":780:786   */\n      dup2\n        /* \"#utility.yul\":767:787   */\n      calldataload\n        /* \"#utility.yul\":758:787   */\n      swap1\n      pop\n        /* \"#utility.yul\":796:829   */\n      tag_123\n        /* \"#utility.yul\":823:828   */\n      dup2\n        /* \"#utility.yul\":796:829   */\n      tag_94\n      jump\t// in\n    tag_123:\n        /* \"#utility.yul\":696:835   */\n      swap3\n      swap2\n      pop\n      pop\n      jump\t// out\n        /* \"#utility.yul\":841:1170   */\n    tag_13:\n        /* \"#utility.yul\":900:906   */\n      0x00\n        /* \"#utility.yul\":949:951   */\n      0x20\n        /* \"#utility.yul\":937:946   */\n      dup3\n        /* \"#utility.yul\":928:935   */\n      dup5\n        /* \"#utility.yul\":924:947   */\n      sub\n        /* \"#utility.yul\":920:952   */\n      slt\n        /* \"#utility.yul\":917:1036   */\n      iszero\n      tag_125\n      jumpi\n        /* \"#utility.yul\":955:1034   */\n      tag_126\n      tag_90\n      jump\t// in\n    tag_126:\n        /* \"#utility.yul\":917:1036   */\n    tag_125:\n        /* \"#utility.yul\":1075:1076   */\n      0x00\n        /* \"#utility.yul\":1100:1153   */\n      tag_127\n        /* \"#utility.yul\":1145:1152   */\n      dup5\n        /* \"#utility.yul\":1136:1142   */\n      dup3\n        /* \"#utility.yul\":1125:1134   */\n      dup6\n        /* \"#utility.yul\":1121:1143   */\n      add\n        /* \"#utility.yul\":1100:1153   */\n      tag_95\n      jump\t// in\n    tag_127:\n        /* \"#utility.yul\":1090:1153   */\n      swap2\n      pop\n        /* \"#utility.yul\":1046:1163   */\n      pop\n        /* \"#utility.yul\":841:1170   */\n      swap3\n      swap2\n      pop\n      pop\n      jump\t// out\n        /* \"#utility.yul\":1176:1253   */\n    tag_96:\n        /* \"#utility.yul\":1213:1220   */\n      0x00\n        /* \"#utility.yul\":1242:1247   */\n      dup2\n        /* \"#utility.yul\":1231:1247   */\n      swap1\n      pop\n        /* \"#utility.yul\":1176:1253   */\n      swap2\n      swap1\n      pop\n      jump\t// out\n        /* \"#utility.yul\":1259:1377   */\n    tag_97:\n        /* \"#utility.yul\":1346:1370   */\n      tag_130\n        /* \"#utility.yul\":1364:1369   */\n      dup2\n        /* \"#utility.yul\":1346:1370   */\n      tag_96\n      jump\t// in\n    tag_130:\n        /* \"#utility.yul\":1341:1344   */\n      dup3\n        /* \"#utility.yul\":1334:1371   */\n      mstore\n        /* \"#utility.yul\":1259:1377   */\n      pop\n      pop\n      jump\t// out\n        /* \"#utility.yul\":1383:1605   */\n    tag_16:\n        /* \"#utility.yul\":1476:1480   */\n      0x00\n        /* \"#utility.yul\":1514:1516   */\n      0x20\n        /* \"#utility.yul\":1503:1512   */\n      dup3\n        /* \"#utility.yul\":1499:1517   */\n      add\n        /* \"#utility.yul\":1491:1517   */\n      swap1\n      pop\n        /* \"#utility.yul\":1527:1598   */\n      tag_132\n        /* \"#utility.yul\":1595:1596   */\n      0x00\n        /* \"#utility.yul\":1584:1593   */\n      dup4\n        /* \"#utility.yul\":1580:1597   */\n      add\n        /* \"#utility.yul\":1571:1577   */\n      dup5\n        /* \"#utility.yul\":1527:1598   */\n      tag_97\n      jump\t// in\n    tag_132:\n        /* \"#utility.yul\":1383:1605   */\n      swap3\n      swap2\n      pop\n      pop\n      jump\t// out\n        /* \"#utility.yul\":1611:1733   */\n    tag_98:\n        /* \"#utility.yul\":1684:1708   */\n      tag_134\n        /* \"#utility.yul\":1702:1707   */\n      dup2\n        /* \"#utility.yul\":1684:1708   */\n      tag_96\n      jump\t// in\n    tag_134:\n        /* \"#utility.yul\":1677:1682   */\n      dup2\n        /* \"#utility.yul\":1674:1709   */\n      eq\n        /* \"#utility.yul\":1664:1727   */\n      tag_135\n      jumpi\n        /* \"#utility.yul\":1723:1724   */\n      0x00\n        /* \"#utility.yul\":1720:1721   */\n      0x00\n        /* \"#utility.yul\":1713:1725   */\n      revert\n        /* \"#utility.yul\":1664:1727   */\n    tag_135:\n        /* \"#utility.yul\":1611:1733   */\n      pop\n      jump\t// out\n        /* \"#utility.yul\":1739:1878   */\n    tag_99:\n        /* \"#utility.yul\":1785:1790   */\n      0x00\n        /* \"#utility.yul\":1823:1829   */\n      dup2\n        /* \"#utility.yul\":1810:1830   */\n      calldataload\n        /* \"#utility.yul\":1801:1830   */\n      swap1\n      pop\n        /* \"#utility.yul\":1839:1872   */\n      tag_137\n        /* \"#utility.yul\":1866:1871   */\n      dup2\n        /* \"#utility.yul\":1839:1872   */\n      tag_98\n      jump\t// in\n    tag_137:\n        /* \"#utility.yul\":1739:1878   */\n      swap3\n      swap2\n      pop\n      pop\n      jump\t// out\n        /* \"#utility.yul\":1884:2213   */\n    tag_19:\n        /* \"#utility.yul\":1943:1949   */\n      0x00\n        /* \"#utility.yul\":1992:1994   */\n      0x20\n        /* \"#utility.yul\":1980:1989   */\n      dup3\n        /* \"#utility.yul\":1971:1978   */\n      dup5\n        /* \"#utility.yul\":1967:1990   */\n      sub\n        /* \"#utility.yul\":1963:1995   */\n      slt\n        /* \"#utility.yul\":1960:2079   */\n      iszero\n      tag_139\n      jumpi\n        /* \"#utility.yul\":1998:2077   */\n      tag_140\n      tag_90\n      jump\t// in\n    tag_140:\n        /* \"#utility.yul\":1960:2079   */\n    tag_139:\n        /* \"#utility.yul\":2118:2119   */\n      0x00\n        /* \"#utility.yul\":2143:2196   */\n      tag_141\n        /* \"#utility.yul\":2188:2195   */\n      dup5\n        /* \"#utility.yul\":2179:2185   */\n      dup3\n        /* \"#utility.yul\":2168:2177   */\n      dup6\n        /* \"#utility.yul\":2164:2186   */\n      add\n        /* \"#utility.yul\":2143:2196   */\n      tag_99\n      jump\t// in\n    tag_141:\n        /* \"#utility.yul\":2133:2196   */\n      swap2\n      pop\n        /* \"#utility.yul\":2089:2206   */\n      pop\n        /* \"#utility.yul\":1884:2213   */\n      swap3\n      swap2\n      pop\n      pop\n      jump\t// out\n        /* \"#utility.yul\":2219:2337   */\n    tag_100:\n        /* \"#utility.yul\":2306:2330   */\n      tag_143\n        /* \"#utility.yul\":2324:2329   */\n      dup2\n        /* \"#utility.yul\":2306:2330   */\n      tag_93\n      jump\t// in\n    tag_143:\n        /* \"#utility.yul\":2301:2304   */\n      dup3\n        /* \"#utility.yul\":2294:2331   */\n      mstore\n        /* \"#utility.yul\":2219:2337   */\n      pop\n      pop\n      jump\t// out\n        /* \"#utility.yul\":2343:2565   */\n    tag_33:\n        /* \"#utility.yul\":2436:2440   */\n      0x00\n        /* \"#utility.yul\":2474:2476   */\n      0x20\n        /* \"#utility.yul\":2463:2472   */\n      dup3\n        /* \"#utility.yul\":2459:2477   */\n      add\n        /* \"#utility.yul\":2451:2477   */\n      swap1\n      pop\n        /* \"#utility.yul\":2487:2558   */\n      tag_145\n        /* \"#utility.yul\":2555:2556   */\n      0x00\n        /* \"#utility.yul\":2544:2553   */\n      dup4\n        /* \"#utility.yul\":2540:2557   */\n      add\n        /* \"#utility.yul\":2531:2537   */\n      dup5\n        /* \"#utility.yul\":2487:2558   */\n      tag_100\n      jump\t// in\n    tag_145:\n        /* \"#utility.yul\":2343:2565   */\n      swap3\n      swap2\n      pop\n      pop\n      jump\t// out\n        /* \"#utility.yul\":2571:2751   */\n    tag_101:\n        /* \"#utility.yul\":2619:2696   */\n      0x4e487b7100000000000000000000000000000000000000000000000000000000\n        /* \"#utility.yul\":2616:2617   */\n      0x00\n        /* \"#utility.yul\":2609:2697   */\n      mstore\n        /* \"#utility.yul\":2716:2720   */\n      0x11\n        /* \"#utility.yul\":2713:2714   */\n      0x04\n        /* \"#utility.yul\":2706:2721   */\n      mstore\n        /* \"#utility.yul\":2740:2744   */\n      0x24\n        /* \"#utility.yul\":2737:2738   */\n      0x00\n        /* \"#utility.yul\":2730:2745   */\n      revert\n        /* \"#utility.yul\":2757:2948   */\n    tag_43:\n        /* \"#utility.yul\":2797:2800   */\n      0x00\n        /* \"#utility.yul\":2816:2836   */\n      tag_148\n        /* \"#utility.yul\":2834:2835   */\n      dup3\n        /* \"#utility.yul\":2816:2836   */\n      tag_96\n      jump\t// in\n    tag_148:\n        /* \"#utility.yul\":2811:2836   */\n      swap2\n      pop\n        /* \"#utility.yul\":2850:2870   */\n      tag_149\n        /* \"#utility.yul\":2868:2869   */\n      dup4\n        /* \"#utility.yul\":2850:2870   */\n      tag_96\n      jump\t// in\n    tag_149:\n        /* \"#utility.yul\":2845:2870   */\n      swap3\n      pop\n        /* \"#utility.yul\":2893:2894   */\n      dup3\n        /* \"#utility.yul\":2890:2891   */\n      dup3\n        /* \"#utility.yul\":2886:2895   */\n      add\n        /* \"#utility.yul\":2879:2895   */\n      swap1\n      pop\n        /* \"#utility.yul\":2914:2917   */\n      dup1\n        /* \"#utility.yul\":2911:2912   */\n      dup3\n        /* \"#utility.yul\":2908:2918   */\n      gt\n        /* \"#utility.yul\":2905:2941   */\n      iszero\n      tag_150\n      jumpi\n        /* \"#utility.yul\":2921:2939   */\n      tag_151\n      tag_101\n      jump\t// in\n    tag_151:\n        /* \"#utility.yul\":2905:2941   */\n    tag_150:\n        /* \"#utility.yul\":2757:2948   */\n      swap3\n      swap2\n      pop\n      pop\n      jump\t// out\n        /* \"#utility.yul\":2954:3148   */\n    tag_45:\n        /* \"#utility.yul\":2994:2998   */\n      0x00\n        /* \"#utility.yul\":3014:3034   */\n      tag_153\n        /* \"#utility.yul\":3032:3033   */\n      dup3\n        /* \"#utility.yul\":3014:3034   */\n      tag_96\n      jump\t// in\n    tag_153:\n        /* \"#utility.yul\":3009:3034   */\n      swap2\n      pop\n        /* \"#utility.yul\":3048:3068   */\n      tag_154\n        /* \"#utility.yul\":3066:3067   */\n      dup4\n        /* \"#utility.yul\":3048:3068   */\n      tag_96\n      jump\t// in\n    tag_154:\n        /* \"#utility.yul\":3043:3068   */\n      swap3\n      pop\n        /* \"#utility.yul\":3092:3093   */\n      dup3\n        /* \"#utility.yul\":3089:3090   */\n      dup3\n        /* \"#utility.yul\":3085:3094   */\n      sub\n        /* \"#utility.yul\":3077:3094   */\n      swap1\n      pop\n        /* \"#utility.yul\":3116:3117   */\n      dup2\n        /* \"#utility.yul\":3110:3114   */\n      dup2\n        /* \"#utility.yul\":3107:3118   */\n      gt\n        /* \"#utility.yul\":3104:3141   */\n      iszero\n      tag_155\n      jumpi\n        /* \"#utility.yul\":3121:3139   */\n      tag_156\n      tag_101\n      jump\t// in\n    tag_156:\n        /* \"#utility.yul\":3104:3141   */\n    tag_155:\n        /* \"#utility.yul\":2954:3148   */\n      swap3\n      swap2\n      pop\n      pop\n      jump\t// out\n        /* \"#utility.yul\":3154:3323   */\n    tag_102:\n        /* \"#utility.yul\":3238:3249   */\n      0x00\n        /* \"#utility.yul\":3272:3278   */\n      dup3\n        /* \"#utility.yul\":3267:3270   */\n      dup3\n        /* \"#utility.yul\":3260:3279   */\n      mstore\n        /* \"#utility.yul\":3312:3316   */\n      0x20\n        /* \"#utility.yul\":3307:3310   */\n      dup3\n        /* \"#utility.yul\":3303:3317   */\n      add\n        /* \"#utility.yul\":3288:3317   */\n      swap1\n      pop\n        /* \"#utility.yul\":3154:3323   */\n      swap3\n      swap2\n      pop\n      pop\n      jump\t// out\n        /* \"#utility.yul\":3329:3499   */\n    tag_103:\n        /* \"#utility.yul\":3469:3491   */\n      0x496e73756666696369656e742062616c616e6365000000000000000000000000\n        /* \"#utility.yul\":3465:3466   */\n      0x00\n        /* \"#utility.yul\":3457:3463   */\n      dup3\n        /* \"#utility.yul\":3453:3467   */\n      add\n        /* \"#utility.yul\":3446:3492   */\n      mstore\n        /* \"#utility.yul\":3329:3499   */\n      pop\n      jump\t// out\n        /* \"#utility.yul\":3505:3871   */\n    tag_104:\n        /* \"#utility.yul\":3647:3650   */\n      0x00\n        /* \"#utility.yul\":3668:3735   */\n      tag_160\n        /* \"#utility.yul\":3732:3734   */\n      0x14\n        /* \"#utility.yul\":3727:3730   */\n      dup4\n        /* \"#utility.yul\":3668:3735   */\n      tag_102\n      jump\t// in\n    tag_160:\n        /* \"#utility.yul\":3661:3735   */\n      swap2\n      pop\n        /* \"#utility.yul\":3744:3837   */\n      tag_161\n        /* \"#utility.yul\":3833:3836   */\n      dup3\n        /* \"#utility.yul\":3744:3837   */\n      tag_103\n      jump\t// in\n    tag_161:\n        /* \"#utility.yul\":3862:3864   */\n      0x20\n        /* \"#utility.yul\":3857:3860   */\n      dup3\n        /* \"#utility.yul\":3853:3865   */\n      add\n        /* \"#utility.yul\":3846:3865   */\n      swap1\n      pop\n        /* \"#utility.yul\":3505:3871   */\n      swap2\n      swap1\n      pop\n      jump\t// out\n        /* \"#utility.yul\":3877:4296   */\n    tag_66:\n        /* \"#utility.yul\":4043:4047   */\n      0x00\n        /* \"#utility.yul\":4081:4083   */\n      0x20\n        /* \"#utility.yul\":4070:4079   */\n      dup3\n        /* \"#utility.yul\":4066:4084   */\n      add\n        /* \"#utility.yul\":4058:4084   */\n      swap1\n      pop\n        /* \"#utility.yul\":4130:4139   */\n      dup2\n        /* \"#utility.yul\":4124:4128   */\n      dup2\n        /* \"#utility.yul\":4120:4140   */\n      sub\n        /* \"#utility.yul\":4116:4117   */\n      0x00\n        /* \"#utility.yul\":4105:4114   */\n      dup4\n        /* \"#utility.yul\":4101:4118   */\n      add\n        /* \"#utility.yul\":4094:4141   */\n      mstore\n        /* \"#utility.yul\":4158:4289   */\n      tag_163\n        /* \"#utility.yul\":4284:4288   */\n      dup2\n        /* \"#utility.yul\":4158:4289   */\n      tag_104\n      jump\t// in\n    tag_163:\n        /* \"#utility.yul\":4150:4289   */\n      swap1\n      pop\n        /* \"#utility.yul\":3877:4296   */\n      swap2\n      swap1\n      pop\n      jump\t// out\n        /* \"#utility.yul\":4302:4712   */\n    tag_70:\n        /* \"#utility.yul\":4342:4349   */\n      0x00\n        /* \"#utility.yul\":4365:4385   */\n      tag_165\n        /* \"#utility.yul\":4383:4384   */\n      dup3\n        /* \"#utility.yul\":4365:4385   */\n      tag_96\n      jump\t// in\n    tag_165:\n        /* \"#utility.yul\":4360:4385   */\n      swap2\n      pop\n        /* \"#utility.yul\":4399:4419   */\n      tag_166\n        /* \"#utility.yul\":4417:4418   */\n      dup4\n        /* \"#utility.yul\":4399:4419   */\n      tag_96\n      jump\t// in\n    tag_166:\n        /* \"#utility.yul\":4394:4419   */\n      swap3\n      pop\n        /* \"#utility.yul\":4454:4455   */\n      dup3\n        /* \"#utility.yul\":4451:4452   */\n      dup3\n        /* \"#utility.yul\":4447:4456   */\n      mul\n        /* \"#utility.yul\":4476:4506   */\n      tag_167\n        /* \"#utility.yul\":4494:4505   */\n      dup2\n        /* \"#utility.yul\":4476:4506   */\n      tag_96\n      jump\t// in\n    tag_167:\n        /* \"#utility.yul\":4465:4506   */\n      swap2\n      pop\n        /* \"#utility.yul\":4655:4656   */\n      dup3\n        /* \"#utility.yul\":4646:4653   */\n      dup3\n        /* \"#utility.yul\":4642:4657   */\n      div\n        /* \"#utility.yul\":4639:4640   */\n      dup5\n        /* \"#utility.yul\":4636:4658   */\n      eq\n        /* \"#utility.yul\":4616:4617   */\n      dup4\n        /* \"#utility.yul\":4609:4618   */\n      iszero\n        /* \"#utility.yul\":4589:4672   */\n      or\n        /* \"#utility.yul\":4566:4705   */\n      tag_168\n      jumpi\n        /* \"#utility.yul\":4685:4703   */\n      tag_169\n      tag_101\n      jump\t// in\n    tag_169:\n        /* \"#utility.yul\":4566:4705   */\n    tag_168:\n        /* \"#utility.yul\":4350:4712   */\n      pop\n        /* \"#utility.yul\":4302:4712   */\n      swap3\n      swap2\n      pop\n      pop\n      jump\t// out\n        /* \"#utility.yul\":4718:4898   */\n    tag_105:\n        /* \"#utility.yul\":4766:4843   */\n      0x4e487b7100000000000000000000000000000000000000000000000000000000\n        /* \"#utility.yul\":4763:4764   */\n      0x00\n        /* \"#utility.yul\":4756:4844   */\n      mstore\n        /* \"#utility.yul\":4863:4867   */\n      0x12\n        /* \"#utility.yul\":4860:4861   */\n      0x04\n        /* \"#utility.yul\":4853:4868   */\n      mstore\n        /* \"#utility.yul\":4887:4891   */\n      0x24\n        /* \"#utility.yul\":4884:4885   */\n      0x00\n        /* \"#utility.yul\":4877:4892   */\n      revert\n        /* \"#utility.yul\":4904:5089   */\n    tag_72:\n        /* \"#utility.yul\":4944:4945   */\n      0x00\n        /* \"#utility.yul\":4961:4981   */\n      tag_172\n        /* \"#utility.yul\":4979:4980   */\n      dup3\n        /* \"#utility.yul\":4961:4981   */\n      tag_96\n      jump\t// in\n    tag_172:\n        /* \"#utility.yul\":4956:4981   */\n      swap2\n      pop\n        /* \"#utility.yul\":4995:5015   */\n      tag_173\n        /* \"#utility.yul\":5013:5014   */\n      dup4\n        /* \"#utility.yul\":4995:5015   */\n      tag_96\n      jump\t// in\n    tag_173:\n        /* \"#utility.yul\":4990:5015   */\n      swap3\n      pop\n        /* \"#utility.yul\":5034:5035   */\n      dup3\n        /* \"#utility.yul\":5024:5059   */\n      tag_174\n      jumpi\n        /* \"#utility.yul\":5039:5057   */\n      tag_175\n      tag_105\n      jump\t// in\n    tag_175:\n        /* \"#utility.yul\":5024:5059   */\n    tag_174:\n        /* \"#utility.yul\":5081:5082   */\n      dup3\n        /* \"#utility.yul\":5078:5079   */\n      dup3\n        /* \"#utility.yul\":5074:5083   */\n      div\n        /* \"#utility.yul\":5069:5083   */\n      swap1\n      pop\n        /* \"#utility.yul\":4904:5089   */\n      swap3\n      swap2\n      pop\n      pop\n      jump\t// out\n        /* \"#utility.yul\":5095:5263   */\n    tag_106:\n        /* \"#utility.yul\":5235:5255   */\n      0x416d6f756e74206d757374206265203e20300000000000000000000000000000\n        /* \"#utility.yul\":5231:5232   */\n      0x00\n        /* \"#utility.yul\":5223:5229   */\n      dup3\n        /* \"#utility.yul\":5219:5233   */\n      add\n        /* \"#utility.yul\":5212:5256   */\n      mstore\n        /* \"#utility.yul\":5095:5263   */\n      pop\n      jump\t// out\n        /* \"#utility.yul\":5269:5635   */\n    tag_107:\n        /* \"#utility.yul\":5411:5414   */\n      0x00\n        /* \"#utility.yul\":5432:5499   */\n      tag_178\n        /* \"#utility.yul\":5496:5498   */\n      0x12\n        /* \"#utility.yul\":5491:5494   */\n      dup4\n        /* \"#utility.yul\":5432:5499   */\n      tag_102\n      jump\t// in\n    tag_178:\n        /* \"#utility.yul\":5425:5499   */\n      swap2\n      pop\n        /* \"#utility.yul\":5508:5601   */\n      tag_179\n        /* \"#utility.yul\":5597:5600   */\n      dup3\n        /* \"#utility.yul\":5508:5601   */\n      tag_106\n      jump\t// in\n    tag_179:\n        /* \"#utility.yul\":5626:5628   */\n      0x20\n        /* \"#utility.yul\":5621:5624   */\n      dup3\n        /* \"#utility.yul\":5617:5629   */\n      add\n        /* \"#utility.yul\":5610:5629   */\n      swap1\n      pop\n        /* \"#utility.yul\":5269:5635   */\n      swap2\n      swap1\n      pop\n      jump\t// out\n        /* \"#utility.yul\":5641:6060   */\n    tag_76:\n        /* \"#utility.yul\":5807:5811   */\n      0x00\n        /* \"#utility.yul\":5845:5847   */\n      0x20\n        /* \"#utility.yul\":5834:5843   */\n      dup3\n        /* \"#utility.yul\":5830:5848   */\n      add\n        /* \"#utility.yul\":5822:5848   */\n      swap1\n      pop\n        /* \"#utility.yul\":5894:5903   */\n      dup2\n        /* \"#utility.yul\":5888:5892   */\n      dup2\n        /* \"#utility.yul\":5884:5904   */\n      sub\n        /* \"#utility.yul\":5880:5881   */\n      0x00\n        /* \"#utility.yul\":5869:5878   */\n      dup4\n        /* \"#utility.yul\":5865:5882   */\n      add\n        /* \"#utility.yul\":5858:5905   */\n      mstore\n        /* \"#utility.yul\":5922:6053   */\n      tag_181\n        /* \"#utility.yul\":6048:6052   */\n      dup2\n        /* \"#utility.yul\":5922:6053   */\n      tag_107\n      jump\t// in\n    tag_181:\n        /* \"#utility.yul\":5914:6053   */\n      swap1\n      pop\n        /* \"#utility.yul\":5641:6060   */\n      swap2\n      swap1\n      pop\n      jump\t// out\n        /* \"#utility.yul\":6066:6232   */\n    tag_108:\n        /* \"#utility.yul\":6206:6224   */\n      0x416d6f756e7420746f6f206c6172676500000000000000000000000000000000\n        /* \"#utility.yul\":6202:6203   */\n      0x00\n        /* \"#utility.yul\":6194:6200   */\n      dup3\n        /* \"#utility.yul\":6190:6204   */\n      add\n        /* \"#utility.yul\":6183:6225   */\n      mstore\n        /* \"#utility.yul\":6066:6232   */\n      pop\n      jump\t// out\n        /* \"#utility.yul\":6238:6604   */\n    tag_109:\n        /* \"#utility.yul\":6380:6383   */\n      0x00\n        /* \"#utility.yul\":6401:6468   */\n      tag_184\n        /* \"#utility.yul\":6465:6467   */\n      0x10\n        /* \"#utility.yul\":6460:6463   */\n      dup4\n        /* \"#utility.yul\":6401:6468   */\n      tag_102\n      jump\t// in\n    tag_184:\n        /* \"#utility.yul\":6394:6468   */\n      swap2\n      pop\n        /* \"#utility.yul\":6477:6570   */\n      tag_185\n        /* \"#utility.yul\":6566:6569   */\n      dup3\n        /* \"#utility.yul\":6477:6570   */\n      tag_108\n      jump\t// in\n    tag_185:\n        /* \"#utility.yul\":6595:6597   */\n      0x20\n        /* \"#utility.yul\":6590:6593   */\n      dup3\n        /* \"#utility.yul\":6586:6598   */\n      add\n        /* \"#utility.yul\":6579:6598   */\n      swap1\n      pop\n        /* \"#utility.yul\":6238:6604   */\n      swap2\n      swap1\n      pop\n      jump\t// out\n        /* \"#utility.yul\":6610:7029   */\n    tag_79:\n        /* \"#utility.yul\":6776:6780   */\n      0x00\n        /* \"#utility.yul\":6814:6816   */\n      0x20\n        /* \"#utility.yul\":6803:6812   */\n      dup3\n        /* \"#utility.yul\":6799:6817   */\n      add\n        /* \"#utility.yul\":6791:6817   */\n      swap1\n      pop\n        /* \"#utility.yul\":6863:6872   */\n      dup2\n        /* \"#utility.yul\":6857:6861   */\n      dup2\n        /* \"#utility.yul\":6853:6873   */\n      sub\n        /* \"#utility.yul\":6849:6850   */\n      0x00\n        /* \"#utility.yul\":6838:6847   */\n      dup4\n        /* \"#utility.yul\":6834:6851   */\n      add\n        /* \"#utility.yul\":6827:6874   */\n      mstore\n        /* \"#utility.yul\":6891:7022   */\n      tag_187\n        /* \"#utility.yul\":7017:7021   */\n      dup2\n        /* \"#utility.yul\":6891:7022   */\n      tag_109\n      jump\t// in\n    tag_187:\n        /* \"#utility.yul\":6883:7022   */\n      swap1\n      pop\n        /* \"#utility.yul\":6610:7029   */\n      swap2\n      swap1\n      pop\n      jump\t// out\n        /* \"#utility.yul\":7035:7194   */\n    tag_110:\n        /* \"#utility.yul\":7175:7186   */\n      0x4e6f74206f776e65720000000000000000000000000000000000000000000000\n        /* \"#utility.yul\":7171:7172   */\n      0x00\n        /* \"#utility.yul\":7163:7169   */\n      dup3\n        /* \"#utility.yul\":7159:7173   */\n      add\n        /* \"#utility.yul\":7152:7187   */\n      mstore\n        /* \"#utility.yul\":7035:7194   */\n      pop\n      jump\t// out\n        /* \"#utility.yul\":7200:7565   */\n    tag_111:\n        /* \"#utility.yul\":7342:7345   */\n      0x00\n        /* \"#utility.yul\":7363:7429   */\n      tag_190\n        /* \"#utility.yul\":7427:7428   */\n      0x09\n        /* \"#utility.yul\":7422:7425   */\n      dup4\n        /* \"#utility.yul\":7363:7429   */\n      tag_102\n      jump\t// in\n    tag_190:\n        /* \"#utility.yul\":7356:7429   */\n      swap2\n      pop\n        /* \"#utility.yul\":7438:7531   */\n      tag_191\n        /* \"#utility.yul\":7527:7530   */\n      dup3\n        /* \"#utility.yul\":7438:7531   */\n      tag_110\n      jump\t// in\n    tag_191:\n        /* \"#utility.yul\":7556:7558   */\n      0x20\n        /* \"#utility.yul\":7551:7554   */\n      dup3\n        /* \"#utility.yul\":7547:7559   */\n      add\n        /* \"#utility.yul\":7540:7559   */\n      swap1\n      pop\n        /* \"#utility.yul\":7200:7565   */\n      swap2\n      swap1\n      pop\n      jump\t// out\n        /* \"#utility.yul\":7571:7990   */\n    tag_88:\n        /* \"#utility.yul\":7737:7741   */\n      0x00\n        /* \"#utility.yul\":7775:7777   */\n      0x20\n        /* \"#utility.yul\":7764:7773   */\n      dup3\n        /* \"#utility.yul\":7760:7778   */\n      add\n        /* \"#utility.yul\":7752:7778   */\n      swap1\n      pop\n        /* \"#utility.yul\":7824:7833   */\n      dup2\n        /* \"#utility.yul\":7818:7822   */\n      dup2\n        /* \"#utility.yul\":7814:7834   */\n      sub\n        /* \"#utility.yul\":7810:7811   */\n      0x00\n        /* \"#utility.yul\":7799:7808   */\n      dup4\n        /* \"#utility.yul\":7795:7812   */\n      add\n        /* \"#utility.yul\":7788:7835   */\n      mstore\n        /* \"#utility.yul\":7852:7983   */\n      tag_193\n        /* \"#utility.yul\":7978:7982   */\n      dup2\n        /* \"#utility.yul\":7852:7983   */\n      tag_111\n      jump\t// in\n    tag_193:\n        /* \"#utility.yul\":7844:7983   */\n      swap1\n      pop\n        /* \"#utility.yul\":7571:7990   */\n      swap2\n      swap1\n      pop\n      jump\t// out\n\n    auxdata: 0xa2646970667358221220c605173423e0f79e5a486ed979570b078dafdbba0b9e6d06131f8e55f5c4972764736f6c63430008220033\n}\n",
				"bytecode": {
					"linkReferences": {},
					"object": "6080604052348015600e575f5ffd5b503360025f6101000a81548173ffffffffffffffffffffffffffffffffffffffff021916908373ffffffffffffffffffffffffffffffffffffffff1602179055506109778061005c5f395ff3fe608060405234801561000f575f5ffd5b506004361061007b575f3560e01c80637d882097116100595780637d882097146100e75780638517386a146101055780638da5cb5b14610121578063b6b55f251461013f5761007b565b806327e235e31461007f5780632e1a7d4d146100af5780632f7c9ed6146100cb575b5f5ffd5b61009960048036038101906100949190610587565b61015b565b6040516100a691906105ca565b60405180910390f35b6100c960048036038101906100c4919061060d565b61016f565b005b6100e560048036038101906100e0919061060d565b6101ac565b005b6100ef6101fd565b6040516100fc91906105ca565b60405180910390f35b61011f600480360381019061011a9190610587565b610203565b005b61012961024f565b6040516101369190610647565b60405180910390f35b6101596004803603810190610154919061060d565b610274565b005b5f602052805f5260405f205f915090505481565b61017933826102a2565b5f61018382610377565b90508082610191919061068d565b60015f8282546101a191906106c0565b925050819055505050565b6101b581610398565b5f6101bf82610421565b90506101d63382846101d1919061068d565b610442565b80826101e2919061068d565b60015f8282546101f2919061068d565b925050819055505050565b60015481565b61020b610498565b5f5f5f8373ffffffffffffffffffffffffffffffffffffffff1673ffffffffffffffffffffffffffffffffffffffff1681526020019081526020015f208190555050565b60025f9054906101000a900473ffffffffffffffffffffffffffffffffffffffff1681565b61027d81610398565b6102873382610442565b8060015f828254610298919061068d565b9250508190555050565b805f5f8473ffffffffffffffffffffffffffffffffffffffff1673ffffffffffffffffffffffffffffffffffffffff1681526020019081526020015f20541015610321576040517f08c379a00000000000000000000000000000000000000000000000000000000081526004016103189061074d565b60405180910390fd5b805f5f8473ffffffffffffffffffffffffffffffffffffffff1673ffffffffffffffffffffffffffffffffffffffff1681526020019081526020015f205f82825461036c91906106c0565b925050819055505050565b5f6064600283610387919061076b565b61039191906107d9565b9050919050565b5f81116103da576040517f08c379a00000000000000000000000000000000000000000000000000000000081526004016103d190610853565b60405180910390fd5b606481111561041e576040517f08c379a0000000000000000000000000000000000000000000000000000000008152600401610415906108bb565b60405180910390fd5b50565b5f6064600a83610431919061076b565b61043b91906107d9565b9050919050565b805f5f8473ffffffffffffffffffffffffffffffffffffffff1673ffffffffffffffffffffffffffffffffffffffff1681526020019081526020015f205f82825461048d919061068d565b925050819055505050565b60025f9054906101000a900473ffffffffffffffffffffffffffffffffffffffff1673ffffffffffffffffffffffffffffffffffffffff163373ffffffffffffffffffffffffffffffffffffffff1614610527576040517f08c379a000000000000000000000000000000000000000000000000000000000815260040161051e90610923565b60405180910390fd5b565b5f5ffd5b5f73ffffffffffffffffffffffffffffffffffffffff82169050919050565b5f6105568261052d565b9050919050565b6105668161054c565b8114610570575f5ffd5b50565b5f813590506105818161055d565b92915050565b5f6020828403121561059c5761059b610529565b5b5f6105a984828501610573565b91505092915050565b5f819050919050565b6105c4816105b2565b82525050565b5f6020820190506105dd5f8301846105bb565b92915050565b6105ec816105b2565b81146105f6575f5ffd5b50565b5f81359050610607816105e3565b92915050565b5f6020828403121561062257610621610529565b5b5f61062f848285016105f9565b91505092915050565b6106418161054c565b82525050565b5f60208201905061065a5f830184610638565b92915050565b7f4e487b71000000000000000000000000000000000000000000000000000000005f52601160045260245ffd5b5f610697826105b2565b91506106a2836105b2565b92508282019050808211156106ba576106b9610660565b5b92915050565b5f6106ca826105b2565b91506106d5836105b2565b92508282039050818111156106ed576106ec610660565b5b92915050565b5f82825260208201905092915050565b7f496e73756666696369656e742062616c616e63650000000000000000000000005f82015250565b5f6107376014836106f3565b915061074282610703565b602082019050919050565b5f6020820190508181035f8301526107648161072b565b9050919050565b5f610775826105b2565b9150610780836105b2565b925082820261078e816105b2565b915082820484148315176107a5576107a4610660565b5b5092915050565b7f4e487b71000000000000000000000000000000000000000000000000000000005f52601260045260245ffd5b5f6107e3826105b2565b91506107ee836105b2565b9250826107fe576107fd6107ac565b5b828204905092915050565b7f416d6f756e74206d757374206265203e203000000000000000000000000000005f82015250565b5f61083d6012836106f3565b915061084882610809565b602082019050919050565b5f6020820190508181035f83015261086a81610831565b9050919050565b7f416d6f756e7420746f6f206c61726765000000000000000000000000000000005f82015250565b5f6108a56010836106f3565b91506108b082610871565b602082019050919050565b5f6020820190508181035f8301526108d281610899565b9050919050565b7f4e6f74206f776e657200000000000000000000000000000000000000000000005f82015250565b5f61090d6009836106f3565b9150610918826108d9565b602082019050919050565b5f6020820190508181035f83015261093a81610901565b905091905056fea2646970667358221220c605173423e0f79e5a486ed979570b078dafdbba0b9e6d06131f8e55f5c4972764736f6c63430008220033",
					"opcodes": "PUSH1 0x80 PUSH1 0x40 MSTORE CALLVALUE DUP1 ISZERO PUSH1 0xE JUMPI PUSH0 PUSH0 REVERT JUMPDEST POP CALLER PUSH1 0x2 PUSH0 PUSH2 0x100 EXP DUP2 SLOAD DUP2 PUSH20 0xFFFFFFFFFFFFFFFFFFFFFFFFFFFFFFFFFFFFFFFF MUL NOT AND SWAP1 DUP4 PUSH20 0xFFFFFFFFFFFFFFFFFFFFFFFFFFFFFFFFFFFFFFFF AND MUL OR SWAP1 SSTORE POP PUSH2 0x977 DUP1 PUSH2 0x5C PUSH0 CODECOPY PUSH0 RETURN INVALID PUSH1 0x80 PUSH1 0x40 MSTORE CALLVALUE DUP1 ISZERO PUSH2 0xF JUMPI PUSH0 PUSH0 REVERT JUMPDEST POP PUSH1 0x4 CALLDATASIZE LT PUSH2 0x7B JUMPI PUSH0 CALLDATALOAD PUSH1 0xE0 SHR DUP1 PUSH4 0x7D882097 GT PUSH2 0x59 JUMPI DUP1 PUSH4 0x7D882097 EQ PUSH2 0xE7 JUMPI DUP1 PUSH4 0x8517386A EQ PUSH2 0x105 JUMPI DUP1 PUSH4 0x8DA5CB5B EQ PUSH2 0x121 JUMPI DUP1 PUSH4 0xB6B55F25 EQ PUSH2 0x13F JUMPI PUSH2 0x7B JUMP JUMPDEST DUP1 PUSH4 0x27E235E3 EQ PUSH2 0x7F JUMPI DUP1 PUSH4 0x2E1A7D4D EQ PUSH2 0xAF JUMPI DUP1 PUSH4 0x2F7C9ED6 EQ PUSH2 0xCB JUMPI JUMPDEST PUSH0 PUSH0 REVERT JUMPDEST PUSH2 0x99 PUSH1 0x4 DUP1 CALLDATASIZE SUB DUP2 ADD SWAP1 PUSH2 0x94 SWAP2 SWAP1 PUSH2 0x587 JUMP JUMPDEST PUSH2 0x15B JUMP JUMPDEST PUSH1 0x40 MLOAD PUSH2 0xA6 SWAP2 SWAP1 PUSH2 0x5CA JUMP JUMPDEST PUSH1 0x40 MLOAD DUP1 SWAP2 SUB SWAP1 RETURN JUMPDEST PUSH2 0xC9 PUSH1 0x4 DUP1 CALLDATASIZE SUB DUP2 ADD SWAP1 PUSH2 0xC4 SWAP2 SWAP1 PUSH2 0x60D JUMP JUMPDEST PUSH2 0x16F JUMP JUMPDEST STOP JUMPDEST PUSH2 0xE5 PUSH1 0x4 DUP1 CALLDATASIZE SUB DUP2 ADD SWAP1 PUSH2 0xE0 SWAP2 SWAP1 PUSH2 0x60D JUMP JUMPDEST PUSH2 0x1AC JUMP JUMPDEST STOP JUMPDEST PUSH2 0xEF PUSH2 0x1FD JUMP JUMPDEST PUSH1 0x40 MLOAD PUSH2 0xFC SWAP2 SWAP1 PUSH2 0x5CA JUMP JUMPDEST PUSH1 0x40 MLOAD DUP1 SWAP2 SUB SWAP1 RETURN JUMPDEST PUSH2 0x11F PUSH1 0x4 DUP1 CALLDATASIZE SUB DUP2 ADD SWAP1 PUSH2 0x11A SWAP2 SWAP1 PUSH2 0x587 JUMP JUMPDEST PUSH2 0x203 JUMP JUMPDEST STOP JUMPDEST PUSH2 0x129 PUSH2 0x24F JUMP JUMPDEST PUSH1 0x40 MLOAD PUSH2 0x136 SWAP2 SWAP1 PUSH2 0x647 JUMP JUMPDEST PUSH1 0x40 MLOAD DUP1 SWAP2 SUB SWAP1 RETURN JUMPDEST PUSH2 0x159 PUSH1 0x4 DUP1 CALLDATASIZE SUB DUP2 ADD SWAP1 PUSH2 0x154 SWAP2 SWAP1 PUSH2 0x60D JUMP JUMPDEST PUSH2 0x274 JUMP JUMPDEST STOP JUMPDEST PUSH0 PUSH1 0x20 MSTORE DUP1 PUSH0 MSTORE PUSH1 0x40 PUSH0 KECCAK256 PUSH0 SWAP2 POP SWAP1 POP SLOAD DUP2 JUMP JUMPDEST PUSH2 0x179 CALLER DUP3 PUSH2 0x2A2 JUMP JUMPDEST PUSH0 PUSH2 0x183 DUP3 PUSH2 0x377 JUMP JUMPDEST SWAP1 POP DUP1 DUP3 PUSH2 0x191 SWAP2 SWAP1 PUSH2 0x68D JUMP JUMPDEST PUSH1 0x1 PUSH0 DUP3 DUP3 SLOAD PUSH2 0x1A1 SWAP2 SWAP1 PUSH2 0x6C0 JUMP JUMPDEST SWAP3 POP POP DUP2 SWAP1 SSTORE POP POP POP JUMP JUMPDEST PUSH2 0x1B5 DUP2 PUSH2 0x398 JUMP JUMPDEST PUSH0 PUSH2 0x1BF DUP3 PUSH2 0x421 JUMP JUMPDEST SWAP1 POP PUSH2 0x1D6 CALLER DUP3 DUP5 PUSH2 0x1D1 SWAP2 SWAP1 PUSH2 0x68D JUMP JUMPDEST PUSH2 0x442 JUMP JUMPDEST DUP1 DUP3 PUSH2 0x1E2 SWAP2 SWAP1 PUSH2 0x68D JUMP JUMPDEST PUSH1 0x1 PUSH0 DUP3 DUP3 SLOAD PUSH2 0x1F2 SWAP2 SWAP1 PUSH2 0x68D JUMP JUMPDEST SWAP3 POP POP DUP2 SWAP1 SSTORE POP POP POP JUMP JUMPDEST PUSH1 0x1 SLOAD DUP2 JUMP JUMPDEST PUSH2 0x20B PUSH2 0x498 JUMP JUMPDEST PUSH0 PUSH0 PUSH0 DUP4 PUSH20 0xFFFFFFFFFFFFFFFFFFFFFFFFFFFFFFFFFFFFFFFF AND PUSH20 0xFFFFFFFFFFFFFFFFFFFFFFFFFFFFFFFFFFFFFFFF AND DUP2 MSTORE PUSH1 0x20 ADD SWAP1 DUP2 MSTORE PUSH1 0x20 ADD PUSH0 KECCAK256 DUP2 SWAP1 SSTORE POP POP JUMP JUMPDEST PUSH1 0x2 PUSH0 SWAP1 SLOAD SWAP1 PUSH2 0x100 EXP SWAP1 DIV PUSH20 0xFFFFFFFFFFFFFFFFFFFFFFFFFFFFFFFFFFFFFFFF AND DUP2 JUMP JUMPDEST PUSH2 0x27D DUP2 PUSH2 0x398 JUMP JUMPDEST PUSH2 0x287 CALLER DUP3 PUSH2 0x442 JUMP JUMPDEST DUP1 PUSH1 0x1 PUSH0 DUP3 DUP3 SLOAD PUSH2 0x298 SWAP2 SWAP1 PUSH2 0x68D JUMP JUMPDEST SWAP3 POP POP DUP2 SWAP1 SSTORE POP POP JUMP JUMPDEST DUP1 PUSH0 PUSH0 DUP5 PUSH20 0xFFFFFFFFFFFFFFFFFFFFFFFFFFFFFFFFFFFFFFFF AND PUSH20 0xFFFFFFFFFFFFFFFFFFFFFFFFFFFFFFFFFFFFFFFF AND DUP2 MSTORE PUSH1 0x20 ADD SWAP1 DUP2 MSTORE PUSH1 0x20 ADD PUSH0 KECCAK256 SLOAD LT ISZERO PUSH2 0x321 JUMPI PUSH1 0x40 MLOAD PUSH32 0x8C379A000000000000000000000000000000000000000000000000000000000 DUP2 MSTORE PUSH1 0x4 ADD PUSH2 0x318 SWAP1 PUSH2 0x74D JUMP JUMPDEST PUSH1 0x40 MLOAD DUP1 SWAP2 SUB SWAP1 REVERT JUMPDEST DUP1 PUSH0 PUSH0 DUP5 PUSH20 0xFFFFFFFFFFFFFFFFFFFFFFFFFFFFFFFFFFFFFFFF AND PUSH20 0xFFFFFFFFFFFFFFFFFFFFFFFFFFFFFFFFFFFFFFFF AND DUP2 MSTORE PUSH1 0x20 ADD SWAP1 DUP2 MSTORE PUSH1 0x20 ADD PUSH0 KECCAK256 PUSH0 DUP3 DUP3 SLOAD PUSH2 0x36C SWAP2 SWAP1 PUSH2 0x6C0 JUMP JUMPDEST SWAP3 POP POP DUP2 SWAP1 SSTORE POP POP POP JUMP JUMPDEST PUSH0 PUSH1 0x64 PUSH1 0x2 DUP4 PUSH2 0x387 SWAP2 SWAP1 PUSH2 0x76B JUMP JUMPDEST PUSH2 0x391 SWAP2 SWAP1 PUSH2 0x7D9 JUMP JUMPDEST SWAP1 POP SWAP2 SWAP1 POP JUMP JUMPDEST PUSH0 DUP2 GT PUSH2 0x3DA JUMPI PUSH1 0x40 MLOAD PUSH32 0x8C379A000000000000000000000000000000000000000000000000000000000 DUP2 MSTORE PUSH1 0x4 ADD PUSH2 0x3D1 SWAP1 PUSH2 0x853 JUMP JUMPDEST PUSH1 0x40 MLOAD DUP1 SWAP2 SUB SWAP1 REVERT JUMPDEST PUSH1 0x64 DUP2 GT ISZERO PUSH2 0x41E JUMPI PUSH1 0x40 MLOAD PUSH32 0x8C379A000000000000000000000000000000000000000000000000000000000 DUP2 MSTORE PUSH1 0x4 ADD PUSH2 0x415 SWAP1 PUSH2 0x8BB JUMP JUMPDEST PUSH1 0x40 MLOAD DUP1 SWAP2 SUB SWAP1 REVERT JUMPDEST POP JUMP JUMPDEST PUSH0 PUSH1 0x64 PUSH1 0xA DUP4 PUSH2 0x431 SWAP2 SWAP1 PUSH2 0x76B JUMP JUMPDEST PUSH2 0x43B SWAP2 SWAP1 PUSH2 0x7D9 JUMP JUMPDEST SWAP1 POP SWAP2 SWAP1 POP JUMP JUMPDEST DUP1 PUSH0 PUSH0 DUP5 PUSH20 0xFFFFFFFFFFFFFFFFFFFFFFFFFFFFFFFFFFFFFFFF AND PUSH20 0xFFFFFFFFFFFFFFFFFFFFFFFFFFFFFFFFFFFFFFFF AND DUP2 MSTORE PUSH1 0x20 ADD SWAP1 DUP2 MSTORE PUSH1 0x20 ADD PUSH0 KECCAK256 PUSH0 DUP3 DUP3 SLOAD PUSH2 0x48D SWAP2 SWAP1 PUSH2 0x68D JUMP JUMPDEST SWAP3 POP POP DUP2 SWAP1 SSTORE POP POP POP JUMP JUMPDEST PUSH1 0x2 PUSH0 SWAP1 SLOAD SWAP1 PUSH2 0x100 EXP SWAP1 DIV PUSH20 0xFFFFFFFFFFFFFFFFFFFFFFFFFFFFFFFFFFFFFFFF AND PUSH20 0xFFFFFFFFFFFFFFFFFFFFFFFFFFFFFFFFFFFFFFFF AND CALLER PUSH20 0xFFFFFFFFFFFFFFFFFFFFFFFFFFFFFFFFFFFFFFFF AND EQ PUSH2 0x527 JUMPI PUSH1 0x40 MLOAD PUSH32 0x8C379A000000000000000000000000000000000000000000000000000000000 DUP2 MSTORE PUSH1 0x4 ADD PUSH2 0x51E SWAP1 PUSH2 0x923 JUMP JUMPDEST PUSH1 0x40 MLOAD DUP1 SWAP2 SUB SWAP1 REVERT JUMPDEST JUMP JUMPDEST PUSH0 PUSH0 REVERT JUMPDEST PUSH0 PUSH20 0xFFFFFFFFFFFFFFFFFFFFFFFFFFFFFFFFFFFFFFFF DUP3 AND SWAP1 POP SWAP2 SWAP1 POP JUMP JUMPDEST PUSH0 PUSH2 0x556 DUP3 PUSH2 0x52D JUMP JUMPDEST SWAP1 POP SWAP2 SWAP1 POP JUMP JUMPDEST PUSH2 0x566 DUP2 PUSH2 0x54C JUMP JUMPDEST DUP2 EQ PUSH2 0x570 JUMPI PUSH0 PUSH0 REVERT JUMPDEST POP JUMP JUMPDEST PUSH0 DUP2 CALLDATALOAD SWAP1 POP PUSH2 0x581 DUP2 PUSH2 0x55D JUMP JUMPDEST SWAP3 SWAP2 POP POP JUMP JUMPDEST PUSH0 PUSH1 0x20 DUP3 DUP5 SUB SLT ISZERO PUSH2 0x59C JUMPI PUSH2 0x59B PUSH2 0x529 JUMP JUMPDEST JUMPDEST PUSH0 PUSH2 0x5A9 DUP5 DUP3 DUP6 ADD PUSH2 0x573 JUMP JUMPDEST SWAP2 POP POP SWAP3 SWAP2 POP POP JUMP JUMPDEST PUSH0 DUP2 SWAP1 POP SWAP2 SWAP1 POP JUMP JUMPDEST PUSH2 0x5C4 DUP2 PUSH2 0x5B2 JUMP JUMPDEST DUP3 MSTORE POP POP JUMP JUMPDEST PUSH0 PUSH1 0x20 DUP3 ADD SWAP1 POP PUSH2 0x5DD PUSH0 DUP4 ADD DUP5 PUSH2 0x5BB JUMP JUMPDEST SWAP3 SWAP2 POP POP JUMP JUMPDEST PUSH2 0x5EC DUP2 PUSH2 0x5B2 JUMP JUMPDEST DUP2 EQ PUSH2 0x5F6 JUMPI PUSH0 PUSH0 REVERT JUMPDEST POP JUMP JUMPDEST PUSH0 DUP2 CALLDATALOAD SWAP1 POP PUSH2 0x607 DUP2 PUSH2 0x5E3 JUMP JUMPDEST SWAP3 SWAP2 POP POP JUMP JUMPDEST PUSH0 PUSH1 0x20 DUP3 DUP5 SUB SLT ISZERO PUSH2 0x622 JUMPI PUSH2 0x621 PUSH2 0x529 JUMP JUMPDEST JUMPDEST PUSH0 PUSH2 0x62F DUP5 DUP3 DUP6 ADD PUSH2 0x5F9 JUMP JUMPDEST SWAP2 POP POP SWAP3 SWAP2 POP POP JUMP JUMPDEST PUSH2 0x641 DUP2 PUSH2 0x54C JUMP JUMPDEST DUP3 MSTORE POP POP JUMP JUMPDEST PUSH0 PUSH1 0x20 DUP3 ADD SWAP1 POP PUSH2 0x65A PUSH0 DUP4 ADD DUP5 PUSH2 0x638 JUMP JUMPDEST SWAP3 SWAP2 POP POP JUMP JUMPDEST PUSH32 0x4E487B7100000000000000000000000000000000000000000000000000000000 PUSH0 MSTORE PUSH1 0x11 PUSH1 0x4 MSTORE PUSH1 0x24 PUSH0 REVERT JUMPDEST PUSH0 PUSH2 0x697 DUP3 PUSH2 0x5B2 JUMP JUMPDEST SWAP2 POP PUSH2 0x6A2 DUP4 PUSH2 0x5B2 JUMP JUMPDEST SWAP3 POP DUP3 DUP3 ADD SWAP1 POP DUP1 DUP3 GT ISZERO PUSH2 0x6BA JUMPI PUSH2 0x6B9 PUSH2 0x660 JUMP JUMPDEST JUMPDEST SWAP3 SWAP2 POP POP JUMP JUMPDEST PUSH0 PUSH2 0x6CA DUP3 PUSH2 0x5B2 JUMP JUMPDEST SWAP2 POP PUSH2 0x6D5 DUP4 PUSH2 0x5B2 JUMP JUMPDEST SWAP3 POP DUP3 DUP3 SUB SWAP1 POP DUP2 DUP2 GT ISZERO PUSH2 0x6ED JUMPI PUSH2 0x6EC PUSH2 0x660 JUMP JUMPDEST JUMPDEST SWAP3 SWAP2 POP POP JUMP JUMPDEST PUSH0 DUP3 DUP3 MSTORE PUSH1 0x20 DUP3 ADD SWAP1 POP SWAP3 SWAP2 POP POP JUMP JUMPDEST PUSH32 0x496E73756666696369656E742062616C616E6365000000000000000000000000 PUSH0 DUP3 ADD MSTORE POP JUMP JUMPDEST PUSH0 PUSH2 0x737 PUSH1 0x14 DUP4 PUSH2 0x6F3 JUMP JUMPDEST SWAP2 POP PUSH2 0x742 DUP3 PUSH2 0x703 JUMP JUMPDEST PUSH1 0x20 DUP3 ADD SWAP1 POP SWAP2 SWAP1 POP JUMP JUMPDEST PUSH0 PUSH1 0x20 DUP3 ADD SWAP1 POP DUP2 DUP2 SUB PUSH0 DUP4 ADD MSTORE PUSH2 0x764 DUP2 PUSH2 0x72B JUMP JUMPDEST SWAP1 POP SWAP2 SWAP1 POP JUMP JUMPDEST PUSH0 PUSH2 0x775 DUP3 PUSH2 0x5B2 JUMP JUMPDEST SWAP2 POP PUSH2 0x780 DUP4 PUSH2 0x5B2 JUMP JUMPDEST SWAP3 POP DUP3 DUP3 MUL PUSH2 0x78E DUP2 PUSH2 0x5B2 JUMP JUMPDEST SWAP2 POP DUP3 DUP3 DIV DUP5 EQ DUP4 ISZERO OR PUSH2 0x7A5 JUMPI PUSH2 0x7A4 PUSH2 0x660 JUMP JUMPDEST JUMPDEST POP SWAP3 SWAP2 POP POP JUMP JUMPDEST PUSH32 0x4E487B7100000000000000000000000000000000000000000000000000000000 PUSH0 MSTORE PUSH1 0x12 PUSH1 0x4 MSTORE PUSH1 0x24 PUSH0 REVERT JUMPDEST PUSH0 PUSH2 0x7E3 DUP3 PUSH2 0x5B2 JUMP JUMPDEST SWAP2 POP PUSH2 0x7EE DUP4 PUSH2 0x5B2 JUMP JUMPDEST SWAP3 POP DUP3 PUSH2 0x7FE JUMPI PUSH2 0x7FD PUSH2 0x7AC JUMP JUMPDEST JUMPDEST DUP3 DUP3 DIV SWAP1 POP SWAP3 SWAP2 POP POP JUMP JUMPDEST PUSH32 0x416D6F756E74206D757374206265203E20300000000000000000000000000000 PUSH0 DUP3 ADD MSTORE POP JUMP JUMPDEST PUSH0 PUSH2 0x83D PUSH1 0x12 DUP4 PUSH2 0x6F3 JUMP JUMPDEST SWAP2 POP PUSH2 0x848 DUP3 PUSH2 0x809 JUMP JUMPDEST PUSH1 0x20 DUP3 ADD SWAP1 POP SWAP2 SWAP1 POP JUMP JUMPDEST PUSH0 PUSH1 0x20 DUP3 ADD SWAP1 POP DUP2 DUP2 SUB PUSH0 DUP4 ADD MSTORE PUSH2 0x86A DUP2 PUSH2 0x831 JUMP JUMPDEST SWAP1 POP SWAP2 SWAP1 POP JUMP JUMPDEST PUSH32 0x416D6F756E7420746F6F206C6172676500000000000000000000000000000000 PUSH0 DUP3 ADD MSTORE POP JUMP JUMPDEST PUSH0 PUSH2 0x8A5 PUSH1 0x10 DUP4 PUSH2 0x6F3 JUMP JUMPDEST SWAP2 POP PUSH2 0x8B0 DUP3 PUSH2 0x871 JUMP JUMPDEST PUSH1 0x20 DUP3 ADD SWAP1 POP SWAP2 SWAP1 POP JUMP JUMPDEST PUSH0 PUSH1 0x20 DUP3 ADD SWAP1 POP DUP2 DUP2 SUB PUSH0 DUP4 ADD MSTORE PUSH2 0x8D2 DUP2 PUSH2 0x899 JUMP JUMPDEST SWAP1 POP SWAP2 SWAP1 POP JUMP JUMPDEST PUSH32 0x4E6F74206F776E65720000000000000000000000000000000000000000000000 PUSH0 DUP3 ADD MSTORE POP JUMP JUMPDEST PUSH0 PUSH2 0x90D PUSH1 0x9 DUP4 PUSH2 0x6F3 JUMP JUMPDEST SWAP2 POP PUSH2 0x918 DUP3 PUSH2 0x8D9 JUMP JUMPDEST PUSH1 0x20 DUP3 ADD SWAP1 POP SWAP2 SWAP1 POP JUMP JUMPDEST PUSH0 PUSH1 0x20 DUP3 ADD SWAP1 POP DUP2 DUP2 SUB PUSH0 DUP4 ADD MSTORE PUSH2 0x93A DUP2 PUSH2 0x901 JUMP JUMPDEST SWAP1 POP SWAP2 SWAP1 POP JUMP INVALID LOG2 PUSH5 0x6970667358 0x22 SLT KECCAK256 0xC6 SDIV OR CALLVALUE 0x23 RJUMP 0xF79E GAS BASEFEE PUSH15 0xD979570B078DAFDBBA0B9E6D06131F DUP15 SSTORE CREATE2 0xC4 SWAP8 0x27 PUSH5 0x736F6C6343 STOP ADDMOD 0x22 STOP CALLER "
				},
				"gasEstimates": {
					"creation": {
						"codeDepositCost": "484600",
						"executionCost": "24781",
						"totalCost": "509381"
					},
					"external": {
						"balances(address)": "2802",
						"deposit(uint256)": "infinite",
						"depositWithBonus(uint256)": "infinite",
						"owner()": "2552",
						"resetUserBalance(address)": "7764",
						"totalDeposits()": "2425",
						"withdraw(uint256)": "infinite"
					},
					"internal": {
						"_calculateBonus(uint256)": "infinite",
						"_calculateFee(uint256)": "infinite",
						"_onlyOwner()": "infinite",
						"_updateBalance(address,uint256)": "infinite",
						"_validateAmount(uint256)": "infinite",
						"_withdrawBalance(address,uint256)": "infinite"
					}
				},
				"methodIdentifiers": {
					"balances(address)": "27e235e3",
					"deposit(uint256)": "b6b55f25",
					"depositWithBonus(uint256)": "2f7c9ed6",
					"owner()": "8da5cb5b",
					"resetUserBalance(address)": "8517386a",
					"totalDeposits()": "7d882097",
					"withdraw(uint256)": "2e1a7d4d"
				}
			},
			"storageLayout": {
				"storage": [
					{
						"astId": 112,
						"contract": "val42.sol:InternalFunctionFlow",
						"label": "balances",
						"offset": 0,
						"slot": "0",
						"type": "t_mapping(t_address,t_uint256)"
					},
					{
						"astId": 114,
						"contract": "val42.sol:InternalFunctionFlow",
						"label": "totalDeposits",
						"offset": 0,
						"slot": "1",
						"type": "t_uint256"
					},
					{
						"astId": 116,
						"contract": "val42.sol:InternalFunctionFlow",
						"label": "owner",
						"offset": 0,
						"slot": "2",
						"type": "t_address"
					}
				],
				"types": {
					"t_address": {
						"encoding": "inplace",
						"label": "address",
						"numberOfBytes": "20"
					},
					"t_mapping(t_address,t_uint256)": {
						"encoding": "mapping",
						"key": "t_address",
						"label": "mapping(address => uint256)",
						"numberOfBytes": "32",
						"value": "t_uint256"
					},
					"t_uint256": {
						"encoding": "inplace",
						"label": "uint256",
						"numberOfBytes": "32"
					}
				}
			},
			"userdoc": {
				"kind": "user",
				"methods": {},
				"version": 1
			}
		}
	}
}