{
	"val42.sol": {
		"PremiumVault": {
			"abi": [
				{
					"inputs": [
						{
							"internalType": "address",
							"name": "_user",
							"type": "address"
						},
						{
							"internalType": "uint256",
							"name": "_amount",
							"type": "uint256"
						}
					],
					"name": "adminRemoveFunds",
					"outputs": [],
					"stateMutability": "nonpayable",
					"type": "function"
				},
				{
					"inputs": [
						{
							"internalType": "address",
							"name": "",
							"type": "address"
						}
					],
					"name": "balances",
					"outputs": [
						{
							"internalType": "uint256",
							"name": "",
							"type": "uint256"
						}
					],
					"stateMutability": "view",
					"type": "function"
				},
				{
					"inputs": [
						{
							"internalType": "uint256",
							"name": "_amount",
							"type": "uint256"
						}
					],
					"name": "calculatePremiumFee",
					"outputs": [
						{
							"internalType": "uint256",
							"name": "",
							"type": "uint256"
						}
					],
					"stateMutability": "pure",
					"type": "function"
				},
				{
					"inputs": [
						{
							"internalType": "uint256",
							"name": "_amount",
							"type": "uint256"
						}
					],
					"name": "deposit",
					"outputs": [],
					"stateMutability": "nonpayable",
					"type": "function"
				},
				{
					"inputs": [
						{
							"internalType": "uint256",
							"name": "_amount",
							"type": "uint256"
						}
					],
					"name": "depositWithBonus",
					"outputs": [],
					"stateMutability": "nonpayable",
					"type": "function"
				},
				{
					"inputs": [],
					"name": "owner",
					"outputs": [
						{
							"internalType": "address",
							"name": "",
							"type": "address"
						}
					],
					"stateMutability": "view",
					"type": "function"
				},
				{
					"inputs": [
						{
							"internalType": "uint256",
							"name": "_amount",
							"type": "uint256"
						}
					],
					"name": "premiumDeposit",
					"outputs": [],
					"stateMutability": "nonpayable",
					"type": "function"
				},
				{
					"inputs": [
						{
							"internalType": "address",
							"name": "_user",
							"type": "address"
						}
					],
					"name": "resetUserBalance",
					"outputs": [],
					"stateMutability": "nonpayable",
					"type": "function"
				},
				{
					"inputs": [],
					"name": "totalDeposits",
					"outputs": [
						{
							"internalType": "uint256",
							"name": "",
							"type": "uint256"
						}
					],
					"stateMutability": "view",
					"type": "function"
				},
				{
					"inputs": [
						{
							"internalType": "uint256",
							"name": "_amount",
							"type": "uint256"
						}
					],
					"name": "withdraw",
					"outputs": [],
					"stateMutability": "nonpayable",
					"type": "function"
				}
			],
			"devdoc": {
				"kind": "dev",
				"methods": {},
				"version": 1
			},
			"evm": {
				"assembly": "    /* \"val42.sol\":18394:19321  contract PremiumVault is InternalFunctionFlow {... */\n  mstore(0x40, 0x80)\n  callvalue\n  dup1\n  iszero\n  tag_1\n  jumpi\n  revert(0x00, 0x00)\ntag_1:\n  pop\n    /* \"val42.sol\":14325:14335  msg.sender */\n  caller\n    /* \"val42.sol\":14317:14322  owner */\n  0x02\n  0x00\n    /* \"val42.sol\":14317:14335  owner = msg.sender */\n  0x0100\n  exp\n  dup2\n  sload\n  dup2\n  0xffffffffffffffffffffffffffffffffffffffff\n  mul\n  not\n  and\n  swap1\n  dup4\n  0xffffffffffffffffffffffffffffffffffffffff\n  and\n  mul\n  or\n  swap1\n  sstore\n  pop\n    /* \"val42.sol\":18394:19321  contract PremiumVault is InternalFunctionFlow {... */\n  dataSize(sub_0)\n  dup1\n  dataOffset(sub_0)\n  0x00\n  codecopy\n  0x00\n  return\nstop\n\nsub_0: assembly {\n        /* \"val42.sol\":18394:19321  contract PremiumVault is InternalFunctionFlow {... */\n      mstore(0x40, 0x80)\n      callvalue\n      dup1\n      iszero\n      tag_1\n      jumpi\n      revert(0x00, 0x00)\n    tag_1:\n      pop\n      jumpi(tag_2, lt(calldatasize, 0x04))\n      shr(0xe0, calldataload(0x00))\n      dup1\n      0x8517386a\n      gt\n      tag_13\n      jumpi\n      dup1\n      0x8517386a\n      eq\n      tag_8\n      jumpi\n      dup1\n      0x8da5cb5b\n      eq\n      tag_9\n      jumpi\n      dup1\n      0x99704ad8\n      eq\n      tag_10\n      jumpi\n      dup1\n      0xb6b55f25\n      eq\n      tag_11\n      jumpi\n      dup1\n      0xe8ad8ece\n      eq\n      tag_12\n      jumpi\n      jump(tag_2)\n    tag_13:\n      dup1\n      0x27e235e3\n      eq\n      tag_3\n      jumpi\n      dup1\n      0x2e1a7d4d\n      eq\n      tag_4\n      jumpi\n      dup1\n      0x2f7c9ed6\n      eq\n      tag_5\n      jumpi\n      dup1\n      0x3ce742bb\n      eq\n      tag_6\n      jumpi\n      dup1\n      0x7d882097\n      eq\n      tag_7\n      jumpi\n    tag_2:\n      revert(0x00, 0x00)\n        /* \"val42.sol\":14174:14217  mapping(address => uint256) public balances */\n    tag_3:\n      tag_14\n      0x04\n      dup1\n      calldatasize\n      sub\n      dup2\n      add\n      swap1\n      tag_15\n      swap2\n      swap1\n      tag_16\n      jump\t// in\n    tag_15:\n      tag_17\n      jump\t// in\n    tag_14:\n      mload(0x40)\n      tag_18\n      swap2\n      swap1\n      tag_19\n      jump\t// in\n    tag_18:\n      mload(0x40)\n      dup1\n      swap2\n      sub\n      swap1\n      return\n        /* \"val42.sol\":15440:15727  function withdraw(... */\n    tag_4:\n      tag_20\n      0x04\n      dup1\n      calldatasize\n      sub\n      dup2\n      add\n      swap1\n      tag_21\n      swap2\n      swap1\n      tag_22\n      jump\t// in\n    tag_21:\n      tag_23\n      jump\t// in\n    tag_20:\n      stop\n        /* \"val42.sol\":14915:15259  function depositWithBonus(... */\n    tag_5:\n      tag_24\n      0x04\n      dup1\n      calldatasize\n      sub\n      dup2\n      add\n      swap1\n      tag_25\n      swap2\n      swap1\n      tag_22\n      jump\t// in\n    tag_25:\n      tag_26\n      jump\t// in\n    tag_24:\n      stop\n        /* \"val42.sol\":19144:19318  function calculatePremiumFee(... */\n    tag_6:\n      tag_27\n      0x04\n      dup1\n      calldatasize\n      sub\n      dup2\n      add\n      swap1\n      tag_28\n      swap2\n      swap1\n      tag_22\n      jump\t// in\n    tag_28:\n      tag_29\n      jump\t// in\n    tag_27:\n      mload(0x40)\n      tag_30\n      swap2\n      swap1\n      tag_19\n      jump\t// in\n    tag_30:\n      mload(0x40)\n      dup1\n      swap2\n      sub\n      swap1\n      return\n        /* \"val42.sol\":14226:14254  uint256 public totalDeposits */\n    tag_7:\n      tag_31\n      tag_32\n      jump\t// in\n    tag_31:\n      mload(0x40)\n      tag_33\n      swap2\n      swap1\n      tag_19\n      jump\t// in\n    tag_33:\n      mload(0x40)\n      dup1\n      swap2\n      sub\n      swap1\n      return\n        /* \"val42.sol\":15888:16031  function resetUserBalance(... */\n    tag_8:\n      tag_34\n      0x04\n      dup1\n      calldatasize\n      sub\n      dup2\n      add\n      swap1\n      tag_35\n      swap2\n      swap1\n      tag_16\n      jump\t// in\n    tag_35:\n      tag_36\n      jump\t// in\n    tag_34:\n      stop\n        /* \"val42.sol\":14263:14283  address public owner */\n    tag_9:\n      tag_37\n      tag_38\n      jump\t// in\n    tag_37:\n      mload(0x40)\n      tag_39\n      swap2\n      swap1\n      tag_40\n      jump\t// in\n    tag_39:\n      mload(0x40)\n      dup1\n      swap2\n      sub\n      swap1\n      return\n        /* \"val42.sol\":18917:19136  function adminRemoveFunds(... */\n    tag_10:\n      tag_41\n      0x04\n      dup1\n      calldatasize\n      sub\n      dup2\n      add\n      swap1\n      tag_42\n      swap2\n      swap1\n      tag_43\n      jump\t// in\n    tag_42:\n      tag_44\n      jump\t// in\n    tag_41:\n      stop\n        /* \"val42.sol\":14509:14747  function deposit(... */\n    tag_11:\n      tag_45\n      0x04\n      dup1\n      calldatasize\n      sub\n      dup2\n      add\n      swap1\n      tag_46\n      swap2\n      swap1\n      tag_22\n      jump\t// in\n    tag_46:\n      tag_47\n      jump\t// in\n    tag_45:\n      stop\n        /* \"val42.sol\":18544:18909  function premiumDeposit(... */\n    tag_12:\n      tag_48\n      0x04\n      dup1\n      calldatasize\n      sub\n      dup2\n      add\n      swap1\n      tag_49\n      swap2\n      swap1\n      tag_22\n      jump\t// in\n    tag_49:\n      tag_50\n      jump\t// in\n    tag_48:\n      stop\n        /* \"val42.sol\":14174:14217  mapping(address => uint256) public balances */\n    tag_17:\n      mstore(0x20, 0x00)\n      dup1\n      0x00\n      mstore\n      keccak256(0x00, 0x40)\n      0x00\n      swap2\n      pop\n      swap1\n      pop\n      sload\n      dup2\n      jump\t// out\n        /* \"val42.sol\":15440:15727  function withdraw(... */\n    tag_23:\n        /* \"val42.sol\":15525:15599  _withdrawBalance(... */\n      tag_52\n        /* \"val42.sol\":15556:15566  msg.sender */\n      caller\n        /* \"val42.sol\":15581:15588  _amount */\n      dup3\n        /* \"val42.sol\":15525:15541  _withdrawBalance */\n      tag_53\n        /* \"val42.sol\":15525:15599  _withdrawBalance(... */\n      jump\t// in\n    tag_52:\n        /* \"val42.sol\":15612:15623  uint256 fee */\n      0x00\n        /* \"val42.sol\":15639:15661  _calculateFee(_amount) */\n      tag_54\n        /* \"val42.sol\":15653:15660  _amount */\n      dup3\n        /* \"val42.sol\":15639:15652  _calculateFee */\n      tag_55\n        /* \"val42.sol\":15639:15661  _calculateFee(_amount) */\n      jump\t// in\n    tag_54:\n        /* \"val42.sol\":15612:15661  uint256 fee =... */\n      swap1\n      pop\n        /* \"val42.sol\":15715:15718  fee */\n      dup1\n        /* \"val42.sol\":15705:15712  _amount */\n      dup3\n        /* \"val42.sol\":15705:15718  _amount + fee */\n      tag_56\n      swap2\n      swap1\n      tag_57\n      jump\t// in\n    tag_56:\n        /* \"val42.sol\":15674:15687  totalDeposits */\n      0x01\n      0x00\n        /* \"val42.sol\":15674:15719  totalDeposits -=... */\n      dup3\n      dup3\n      sload\n      tag_58\n      swap2\n      swap1\n      tag_59\n      jump\t// in\n    tag_58:\n      swap3\n      pop\n      pop\n      dup2\n      swap1\n      sstore\n      pop\n        /* \"val42.sol\":15514:15727  {... */\n      pop\n        /* \"val42.sol\":15440:15727  function withdraw(... */\n      pop\n      jump\t// out\n        /* \"val42.sol\":14915:15259  function depositWithBonus(... */\n    tag_26:\n        /* \"val42.sol\":15008:15032  _validateAmount(_amount) */\n      tag_61\n        /* \"val42.sol\":15024:15031  _amount */\n      dup2\n        /* \"val42.sol\":15008:15023  _validateAmount */\n      tag_62\n        /* \"val42.sol\":15008:15032  _validateAmount(_amount) */\n      jump\t// in\n    tag_61:\n        /* \"val42.sol\":15045:15058  uint256 bonus */\n      0x00\n        /* \"val42.sol\":15074:15098  _calculateBonus(_amount) */\n      tag_63\n        /* \"val42.sol\":15090:15097  _amount */\n      dup3\n        /* \"val42.sol\":15074:15089  _calculateBonus */\n      tag_64\n        /* \"val42.sol\":15074:15098  _calculateBonus(_amount) */\n      jump\t// in\n    tag_63:\n        /* \"val42.sol\":15045:15098  uint256 bonus =... */\n      swap1\n      pop\n        /* \"val42.sol\":15111:15191  _updateBalance(... */\n      tag_65\n        /* \"val42.sol\":15140:15150  msg.sender */\n      caller\n        /* \"val42.sol\":15175:15180  bonus */\n      dup3\n        /* \"val42.sol\":15165:15172  _amount */\n      dup5\n        /* \"val42.sol\":15165:15180  _amount + bonus */\n      tag_66\n      swap2\n      swap1\n      tag_57\n      jump\t// in\n    tag_66:\n        /* \"val42.sol\":15111:15125  _updateBalance */\n      tag_67\n        /* \"val42.sol\":15111:15191  _updateBalance(... */\n      jump\t// in\n    tag_65:\n        /* \"val42.sol\":15245:15250  bonus */\n      dup1\n        /* \"val42.sol\":15235:15242  _amount */\n      dup3\n        /* \"val42.sol\":15235:15250  _amount + bonus */\n      tag_68\n      swap2\n      swap1\n      tag_57\n      jump\t// in\n    tag_68:\n        /* \"val42.sol\":15204:15217  totalDeposits */\n      0x01\n      0x00\n        /* \"val42.sol\":15204:15251  totalDeposits +=... */\n      dup3\n      dup3\n      sload\n      tag_69\n      swap2\n      swap1\n      tag_57\n      jump\t// in\n    tag_69:\n      swap3\n      pop\n      pop\n      dup2\n      swap1\n      sstore\n      pop\n        /* \"val42.sol\":14997:15259  {... */\n      pop\n        /* \"val42.sol\":14915:15259  function depositWithBonus(... */\n      pop\n      jump\t// out\n        /* \"val42.sol\":19144:19318  function calculatePremiumFee(... */\n    tag_29:\n        /* \"val42.sol\":19256:19263  uint256 */\n      0x00\n        /* \"val42.sol\":19288:19310  _calculateFee(_amount) */\n      tag_71\n        /* \"val42.sol\":19302:19309  _amount */\n      dup3\n        /* \"val42.sol\":19288:19301  _calculateFee */\n      tag_55\n        /* \"val42.sol\":19288:19310  _calculateFee(_amount) */\n      jump\t// in\n    tag_71:\n        /* \"val42.sol\":19281:19310  return _calculateFee(_amount) */\n      swap1\n      pop\n        /* \"val42.sol\":19144:19318  function calculatePremiumFee(... */\n      swap2\n      swap1\n      pop\n      jump\t// out\n        /* \"val42.sol\":14226:14254  uint256 public totalDeposits */\n    tag_32:\n      sload(0x01)\n      dup2\n      jump\t// out\n        /* \"val42.sol\":15888:16031  function resetUserBalance(... */\n    tag_36:\n        /* \"val42.sol\":15979:15991  _onlyOwner() */\n      tag_73\n        /* \"val42.sol\":15979:15989  _onlyOwner */\n      tag_74\n        /* \"val42.sol\":15979:15991  _onlyOwner() */\n      jump\t// in\n    tag_73:\n        /* \"val42.sol\":16022:16023  0 */\n      0x00\n        /* \"val42.sol\":16004:16012  balances */\n      0x00\n        /* \"val42.sol\":16004:16019  balances[_user] */\n      0x00\n        /* \"val42.sol\":16013:16018  _user */\n      dup4\n        /* \"val42.sol\":16004:16019  balances[_user] */\n      0xffffffffffffffffffffffffffffffffffffffff\n      and\n      0xffffffffffffffffffffffffffffffffffffffff\n      and\n      dup2\n      mstore\n      0x20\n      add\n      swap1\n      dup2\n      mstore\n      0x20\n      add\n      0x00\n      keccak256\n        /* \"val42.sol\":16004:16023  balances[_user] = 0 */\n      dup2\n      swap1\n      sstore\n      pop\n        /* \"val42.sol\":15888:16031  function resetUserBalance(... */\n      pop\n      jump\t// out\n        /* \"val42.sol\":14263:14283  address public owner */\n    tag_38:\n      0x02\n      0x00\n      swap1\n      sload\n      swap1\n      0x0100\n      exp\n      swap1\n      div\n      0xffffffffffffffffffffffffffffffffffffffff\n      and\n      dup2\n      jump\t// out\n        /* \"val42.sol\":18917:19136  function adminRemoveFunds(... */\n    tag_44:\n        /* \"val42.sol\":19034:19046  _onlyOwner() */\n      tag_76\n        /* \"val42.sol\":19034:19044  _onlyOwner */\n      tag_74\n        /* \"val42.sol\":19034:19046  _onlyOwner() */\n      jump\t// in\n    tag_76:\n        /* \"val42.sol\":19059:19128  _withdrawBalance(... */\n      tag_77\n        /* \"val42.sol\":19090:19095  _user */\n      dup3\n        /* \"val42.sol\":19110:19117  _amount */\n      dup3\n        /* \"val42.sol\":19059:19075  _withdrawBalance */\n      tag_53\n        /* \"val42.sol\":19059:19128  _withdrawBalance(... */\n      jump\t// in\n    tag_77:\n        /* \"val42.sol\":18917:19136  function adminRemoveFunds(... */\n      pop\n      pop\n      jump\t// out\n        /* \"val42.sol\":14509:14747  function deposit(... */\n    tag_47:\n        /* \"val42.sol\":14593:14617  _validateAmount(_amount) */\n      tag_79\n        /* \"val42.sol\":14609:14616  _amount */\n      dup2\n        /* \"val42.sol\":14593:14608  _validateAmount */\n      tag_62\n        /* \"val42.sol\":14593:14617  _validateAmount(_amount) */\n      jump\t// in\n    tag_79:\n        /* \"val42.sol\":14630:14702  _updateBalance(... */\n      tag_80\n        /* \"val42.sol\":14659:14669  msg.sender */\n      caller\n        /* \"val42.sol\":14684:14691  _amount */\n      dup3\n        /* \"val42.sol\":14630:14644  _updateBalance */\n      tag_67\n        /* \"val42.sol\":14630:14702  _updateBalance(... */\n      jump\t// in\n    tag_80:\n        /* \"val42.sol\":14732:14739  _amount */\n      dup1\n        /* \"val42.sol\":14715:14728  totalDeposits */\n      0x01\n      0x00\n        /* \"val42.sol\":14715:14739  totalDeposits += _amount */\n      dup3\n      dup3\n      sload\n      tag_81\n      swap2\n      swap1\n      tag_57\n      jump\t// in\n    tag_81:\n      swap3\n      pop\n      pop\n      dup2\n      swap1\n      sstore\n      pop\n        /* \"val42.sol\":14509:14747  function deposit(... */\n      pop\n      jump\t// out\n        /* \"val42.sol\":18544:18909  function premiumDeposit(... */\n    tag_50:\n        /* \"val42.sol\":18635:18659  _validateAmount(_amount) */\n      tag_83\n        /* \"val42.sol\":18651:18658  _amount */\n      dup2\n        /* \"val42.sol\":18635:18650  _validateAmount */\n      tag_62\n        /* \"val42.sol\":18635:18659  _validateAmount(_amount) */\n      jump\t// in\n    tag_83:\n        /* \"val42.sol\":18672:18685  uint256 bonus */\n      0x00\n        /* \"val42.sol\":18701:18725  _calculateBonus(_amount) */\n      tag_84\n        /* \"val42.sol\":18717:18724  _amount */\n      dup3\n        /* \"val42.sol\":18701:18716  _calculateBonus */\n      tag_64\n        /* \"val42.sol\":18701:18725  _calculateBonus(_amount) */\n      jump\t// in\n    tag_84:\n        /* \"val42.sol\":18672:18725  uint256 bonus =... */\n      swap1\n      pop\n        /* \"val42.sol\":18747:18748  5 */\n      0x05\n        /* \"val42.sol\":18738:18748  bonus += 5 */\n      dup2\n      tag_85\n      swap2\n      swap1\n      tag_57\n      jump\t// in\n    tag_85:\n      swap1\n      pop\n        /* \"val42.sol\":18761:18841  _updateBalance(... */\n      tag_86\n        /* \"val42.sol\":18790:18800  msg.sender */\n      caller\n        /* \"val42.sol\":18825:18830  bonus */\n      dup3\n        /* \"val42.sol\":18815:18822  _amount */\n      dup5\n        /* \"val42.sol\":18815:18830  _amount + bonus */\n      tag_87\n      swap2\n      swap1\n      tag_57\n      jump\t// in\n    tag_87:\n        /* \"val42.sol\":18761:18775  _updateBalance */\n      tag_67\n        /* \"val42.sol\":18761:18841  _updateBalance(... */\n      jump\t// in\n    tag_86:\n        /* \"val42.sol\":18895:18900  bonus */\n      dup1\n        /* \"val42.sol\":18885:18892  _amount */\n      dup3\n        /* \"val42.sol\":18885:18900  _amount + bonus */\n      tag_88\n      swap2\n      swap1\n      tag_57\n      jump\t// in\n    tag_88:\n        /* \"val42.sol\":18854:18867  totalDeposits */\n      0x01\n      0x00\n        /* \"val42.sol\":18854:18901  totalDeposits +=... */\n      dup3\n      dup3\n      sload\n      tag_89\n      swap2\n      swap1\n      tag_57\n      jump\t// in\n    tag_89:\n      swap3\n      pop\n      pop\n      dup2\n      swap1\n      sstore\n      pop\n        /* \"val42.sol\":18624:18909  {... */\n      pop\n        /* \"val42.sol\":18544:18909  function premiumDeposit(... */\n      pop\n      jump\t// out\n        /* \"val42.sol\":17308:17568  function _withdrawBalance(... */\n    tag_53:\n        /* \"val42.sol\":17466:17473  _amount */\n      dup1\n        /* \"val42.sol\":17447:17455  balances */\n      0x00\n        /* \"val42.sol\":17447:17462  balances[_user] */\n      0x00\n        /* \"val42.sol\":17456:17461  _user */\n      dup5\n        /* \"val42.sol\":17447:17462  balances[_user] */\n      0xffffffffffffffffffffffffffffffffffffffff\n      and\n      0xffffffffffffffffffffffffffffffffffffffff\n      and\n      dup2\n      mstore\n      0x20\n      add\n      swap1\n      dup2\n      mstore\n      0x20\n      add\n      0x00\n      keccak256\n      sload\n        /* \"val42.sol\":17447:17473  balances[_user] >= _amount */\n      lt\n      iszero\n        /* \"val42.sol\":17425:17521  require(... */\n      tag_91\n      jumpi\n      mload(0x40)\n      0x08c379a000000000000000000000000000000000000000000000000000000000\n      dup2\n      mstore\n      0x04\n      add\n      tag_92\n      swap1\n      tag_93\n      jump\t// in\n    tag_92:\n      mload(0x40)\n      dup1\n      swap2\n      sub\n      swap1\n      revert\n    tag_91:\n        /* \"val42.sol\":17553:17560  _amount */\n      dup1\n        /* \"val42.sol\":17534:17542  balances */\n      0x00\n        /* \"val42.sol\":17534:17549  balances[_user] */\n      0x00\n        /* \"val42.sol\":17543:17548  _user */\n      dup5\n        /* \"val42.sol\":17534:17549  balances[_user] */\n      0xffffffffffffffffffffffffffffffffffffffff\n      and\n      0xffffffffffffffffffffffffffffffffffffffff\n      and\n      dup2\n      mstore\n      0x20\n      add\n      swap1\n      dup2\n      mstore\n      0x20\n      add\n      0x00\n      keccak256\n      0x00\n        /* \"val42.sol\":17534:17560  balances[_user] -= _amount */\n      dup3\n      dup3\n      sload\n      tag_94\n      swap2\n      swap1\n      tag_59\n      jump\t// in\n    tag_94:\n      swap3\n      pop\n      pop\n      dup2\n      swap1\n      sstore\n      pop\n        /* \"val42.sol\":17308:17568  function _withdrawBalance(... */\n      pop\n      pop\n      jump\t// out\n        /* \"val42.sol\":18086:18251  function _calculateFee(... */\n    tag_55:\n        /* \"val42.sol\":18192:18199  uint256 */\n      0x00\n        /* \"val42.sol\":18240:18243  100 */\n      0x64\n        /* \"val42.sol\":18235:18236  2 */\n      0x02\n        /* \"val42.sol\":18225:18232  _amount */\n      dup4\n        /* \"val42.sol\":18225:18236  _amount * 2 */\n      tag_96\n      swap2\n      swap1\n      tag_97\n      jump\t// in\n    tag_96:\n        /* \"val42.sol\":18224:18243  (_amount * 2) / 100 */\n      tag_98\n      swap2\n      swap1\n      tag_99\n      jump\t// in\n    tag_98:\n        /* \"val42.sol\":18217:18243  return (_amount * 2) / 100 */\n      swap1\n      pop\n        /* \"val42.sol\":18086:18251  function _calculateFee(... */\n      swap2\n      swap1\n      pop\n      jump\t// out\n        /* \"val42.sol\":16200:16486  function _validateAmount(... */\n    tag_62:\n        /* \"val42.sol\":16338:16339  0 */\n      0x00\n        /* \"val42.sol\":16328:16335  _amount */\n      dup2\n        /* \"val42.sol\":16328:16339  _amount > 0 */\n      gt\n        /* \"val42.sol\":16306:16385  require(... */\n      tag_101\n      jumpi\n      mload(0x40)\n      0x08c379a000000000000000000000000000000000000000000000000000000000\n      dup2\n      mstore\n      0x04\n      add\n      tag_102\n      swap1\n      tag_103\n      jump\t// in\n    tag_102:\n      mload(0x40)\n      dup1\n      swap2\n      sub\n      swap1\n      revert\n    tag_101:\n        /* \"val42.sol\":16431:16434  100 */\n      0x64\n        /* \"val42.sol\":16420:16427  _amount */\n      dup2\n        /* \"val42.sol\":16420:16434  _amount <= 100 */\n      gt\n      iszero\n        /* \"val42.sol\":16398:16478  require(... */\n      tag_104\n      jumpi\n      mload(0x40)\n      0x08c379a000000000000000000000000000000000000000000000000000000000\n      dup2\n      mstore\n      0x04\n      add\n      tag_105\n      swap1\n      tag_106\n      jump\t// in\n    tag_105:\n      mload(0x40)\n      dup1\n      swap2\n      sub\n      swap1\n      revert\n    tag_104:\n        /* \"val42.sol\":16200:16486  function _validateAmount(... */\n      pop\n      jump\t// out\n        /* \"val42.sol\":17744:17912  function _calculateBonus(... */\n    tag_64:\n        /* \"val42.sol\":17852:17859  uint256 */\n      0x00\n        /* \"val42.sol\":17901:17904  100 */\n      0x64\n        /* \"val42.sol\":17895:17897  10 */\n      0x0a\n        /* \"val42.sol\":17885:17892  _amount */\n      dup4\n        /* \"val42.sol\":17885:17897  _amount * 10 */\n      tag_108\n      swap2\n      swap1\n      tag_97\n      jump\t// in\n    tag_108:\n        /* \"val42.sol\":17884:17904  (_amount * 10) / 100 */\n      tag_109\n      swap2\n      swap1\n      tag_99\n      jump\t// in\n    tag_109:\n        /* \"val42.sol\":17877:17904  return (_amount * 10) / 100 */\n      swap1\n      pop\n        /* \"val42.sol\":17744:17912  function _calculateBonus(... */\n      swap2\n      swap1\n      pop\n      jump\t// out\n        /* \"val42.sol\":16985:17134  function _updateBalance(... */\n    tag_67:\n        /* \"val42.sol\":17119:17126  _amount */\n      dup1\n        /* \"val42.sol\":17100:17108  balances */\n      0x00\n        /* \"val42.sol\":17100:17115  balances[_user] */\n      0x00\n        /* \"val42.sol\":17109:17114  _user */\n      dup5\n        /* \"val42.sol\":17100:17115  balances[_user] */\n      0xffffffffffffffffffffffffffffffffffffffff\n      and\n      0xffffffffffffffffffffffffffffffffffffffff\n      and\n      dup2\n      mstore\n      0x20\n      add\n      swap1\n      dup2\n      mstore\n      0x20\n      add\n      0x00\n      keccak256\n      0x00\n        /* \"val42.sol\":17100:17126  balances[_user] += _amount */\n      dup3\n      dup3\n      sload\n      tag_111\n      swap2\n      swap1\n      tag_57\n      jump\t// in\n    tag_111:\n      swap3\n      pop\n      pop\n      dup2\n      swap1\n      sstore\n      pop\n        /* \"val42.sol\":16985:17134  function _updateBalance(... */\n      pop\n      pop\n      jump\t// out\n        /* \"val42.sol\":16656:16812  function _onlyOwner()... */\n    tag_74:\n        /* \"val42.sol\":16762:16767  owner */\n      0x02\n      0x00\n      swap1\n      sload\n      swap1\n      0x0100\n      exp\n      swap1\n      div\n      0xffffffffffffffffffffffffffffffffffffffff\n      and\n        /* \"val42.sol\":16748:16767  msg.sender == owner */\n      0xffffffffffffffffffffffffffffffffffffffff\n      and\n        /* \"val42.sol\":16748:16758  msg.sender */\n      caller\n        /* \"val42.sol\":16748:16767  msg.sender == owner */\n      0xffffffffffffffffffffffffffffffffffffffff\n      and\n      eq\n        /* \"val42.sol\":16726:16804  require(... */\n      tag_113\n      jumpi\n      mload(0x40)\n      0x08c379a000000000000000000000000000000000000000000000000000000000\n      dup2\n      mstore\n      0x04\n      add\n      tag_114\n      swap1\n      tag_115\n      jump\t// in\n    tag_114:\n      mload(0x40)\n      dup1\n      swap2\n      sub\n      swap1\n      revert\n    tag_113:\n        /* \"val42.sol\":16656:16812  function _onlyOwner()... */\n      jump\t// out\n        /* \"#utility.yul\":88:205   */\n    tag_117:\n        /* \"#utility.yul\":197:198   */\n      0x00\n        /* \"#utility.yul\":194:195   */\n      0x00\n        /* \"#utility.yul\":187:199   */\n      revert\n        /* \"#utility.yul\":334:460   */\n    tag_119:\n        /* \"#utility.yul\":371:378   */\n      0x00\n        /* \"#utility.yul\":411:453   */\n      0xffffffffffffffffffffffffffffffffffffffff\n        /* \"#utility.yul\":404:409   */\n      dup3\n        /* \"#utility.yul\":400:454   */\n      and\n        /* \"#utility.yul\":389:454   */\n      swap1\n      pop\n        /* \"#utility.yul\":334:460   */\n      swap2\n      swap1\n      pop\n      jump\t// out\n        /* \"#utility.yul\":466:562   */\n    tag_120:\n        /* \"#utility.yul\":503:510   */\n      0x00\n        /* \"#utility.yul\":532:556   */\n      tag_145\n        /* \"#utility.yul\":550:555   */\n      dup3\n        /* \"#utility.yul\":532:556   */\n      tag_119\n      jump\t// in\n    tag_145:\n        /* \"#utility.yul\":521:556   */\n      swap1\n      pop\n        /* \"#utility.yul\":466:562   */\n      swap2\n      swap1\n      pop\n      jump\t// out\n        /* \"#utility.yul\":568:690   */\n    tag_121:\n        /* \"#utility.yul\":641:665   */\n      tag_147\n        /* \"#utility.yul\":659:664   */\n      dup2\n        /* \"#utility.yul\":641:665   */\n      tag_120\n      jump\t// in\n    tag_147:\n        /* \"#utility.yul\":634:639   */\n      dup2\n        /* \"#utility.yul\":631:666   */\n      eq\n        /* \"#utility.yul\":621:684   */\n      tag_148\n      jumpi\n        /* \"#utility.yul\":680:681   */\n      0x00\n        /* \"#utility.yul\":677:678   */\n      0x00\n        /* \"#utility.yul\":670:682   */\n      revert\n        /* \"#utility.yul\":621:684   */\n    tag_148:\n        /* \"#utility.yul\":568:690   */\n      pop\n      jump\t// out\n        /* \"#utility.yul\":696:835   */\n    tag_122:\n        /* \"#utility.yul\":742:747   */\n      0x00\n        /* \"#utility.yul\":780:786   */\n      dup2\n        /* \"#utility.yul\":767:787   */\n      calldataload\n        /* \"#utility.yul\":758:787   */\n      swap1\n      pop\n        /* \"#utility.yul\":796:829   */\n      tag_150\n        /* \"#utility.yul\":823:828   */\n      dup2\n        /* \"#utility.yul\":796:829   */\n      tag_121\n      jump\t// in\n    tag_150:\n        /* \"#utility.yul\":696:835   */\n      swap3\n      swap2\n      pop\n      pop\n      jump\t// out\n        /* \"#utility.yul\":841:1170   */\n    tag_16:\n        /* \"#utility.yul\":900:906   */\n      0x00\n        /* \"#utility.yul\":949:951   */\n      0x20\n        /* \"#utility.yul\":937:946   */\n      dup3\n        /* \"#utility.yul\":928:935   */\n      dup5\n        /* \"#utility.yul\":924:947   */\n      sub\n        /* \"#utility.yul\":920:952   */\n      slt\n        /* \"#utility.yul\":917:1036   */\n      iszero\n      tag_152\n      jumpi\n        /* \"#utility.yul\":955:1034   */\n      tag_153\n      tag_117\n      jump\t// in\n    tag_153:\n        /* \"#utility.yul\":917:1036   */\n    tag_152:\n        /* \"#utility.yul\":1075:1076   */\n      0x00\n        /* \"#utility.yul\":1100:1153   */\n      tag_154\n        /* \"#utility.yul\":1145:1152   */\n      dup5\n        /* \"#utility.yul\":1136:1142   */\n      dup3\n        /* \"#utility.yul\":1125:1134   */\n      dup6\n        /* \"#utility.yul\":1121:1143   */\n      add\n        /* \"#utility.yul\":1100:1153   */\n      tag_122\n      jump\t// in\n    tag_154:\n        /* \"#utility.yul\":1090:1153   */\n      swap2\n      pop\n        /* \"#utility.yul\":1046:1163   */\n      pop\n        /* \"#utility.yul\":841:1170   */\n      swap3\n      swap2\n      pop\n      pop\n      jump\t// out\n        /* \"#utility.yul\":1176:1253   */\n    tag_123:\n        /* \"#utility.yul\":1213:1220   */\n      0x00\n        /* \"#utility.yul\":1242:1247   */\n      dup2\n        /* \"#utility.yul\":1231:1247   */\n      swap1\n      pop\n        /* \"#utility.yul\":1176:1253   */\n      swap2\n      swap1\n      pop\n      jump\t// out\n        /* \"#utility.yul\":1259:1377   */\n    tag_124:\n        /* \"#utility.yul\":1346:1370   */\n      tag_157\n        /* \"#utility.yul\":1364:1369   */\n      dup2\n        /* \"#utility.yul\":1346:1370   */\n      tag_123\n      jump\t// in\n    tag_157:\n        /* \"#utility.yul\":1341:1344   */\n      dup3\n        /* \"#utility.yul\":1334:1371   */\n      mstore\n        /* \"#utility.yul\":1259:1377   */\n      pop\n      pop\n      jump\t// out\n        /* \"#utility.yul\":1383:1605   */\n    tag_19:\n        /* \"#utility.yul\":1476:1480   */\n      0x00\n        /* \"#utility.yul\":1514:1516   */\n      0x20\n        /* \"#utility.yul\":1503:1512   */\n      dup3\n        /* \"#utility.yul\":1499:1517   */\n      add\n        /* \"#utility.yul\":1491:1517   */\n      swap1\n      pop\n        /* \"#utility.yul\":1527:1598   */\n      tag_159\n        /* \"#utility.yul\":1595:1596   */\n      0x00\n        /* \"#utility.yul\":1584:1593   */\n      dup4\n        /* \"#utility.yul\":1580:1597   */\n      add\n        /* \"#utility.yul\":1571:1577   */\n      dup5\n        /* \"#utility.yul\":1527:1598   */\n      tag_124\n      jump\t// in\n    tag_159:\n        /* \"#utility.yul\":1383:1605   */\n      swap3\n      swap2\n      pop\n      pop\n      jump\t// out\n        /* \"#utility.yul\":1611:1733   */\n    tag_125:\n        /* \"#utility.yul\":1684:1708   */\n      tag_161\n        /* \"#utility.yul\":1702:1707   */\n      dup2\n        /* \"#utility.yul\":1684:1708   */\n      tag_123\n      jump\t// in\n    tag_161:\n        /* \"#utility.yul\":1677:1682   */\n      dup2\n        /* \"#utility.yul\":1674:1709   */\n      eq\n        /* \"#utility.yul\":1664:1727   */\n      tag_162\n      jumpi\n        /* \"#utility.yul\":1723:1724   */\n      0x00\n        /* \"#utility.yul\":1720:1721   */\n      0x00\n        /* \"#utility.yul\":1713:1725   */\n      revert\n        /* \"#utility.yul\":1664:1727   */\n    tag_162:\n        /* \"#utility.yul\":1611:1733   */\n      pop\n      jump\t// out\n        /* \"#utility.yul\":1739:1878   */\n    tag_126:\n        /* \"#utility.yul\":1785:1790   */\n      0x00\n        /* \"#utility.yul\":1823:1829   */\n      dup2\n        /* \"#utility.yul\":1810:1830   */\n      calldataload\n        /* \"#utility.yul\":1801:1830   */\n      swap1\n      pop\n        /* \"#utility.yul\":1839:1872   */\n      tag_164\n        /* \"#utility.yul\":1866:1871   */\n      dup2\n        /* \"#utility.yul\":1839:1872   */\n      tag_125\n      jump\t// in\n    tag_164:\n        /* \"#utility.yul\":1739:1878   */\n      swap3\n      swap2\n      pop\n      pop\n      jump\t// out\n        /* \"#utility.yul\":1884:2213   */\n    tag_22:\n        /* \"#utility.yul\":1943:1949   */\n      0x00\n        /* \"#utility.yul\":1992:1994   */\n      0x20\n        /* \"#utility.yul\":1980:1989   */\n      dup3\n        /* \"#utility.yul\":1971:1978   */\n      dup5\n        /* \"#utility.yul\":1967:1990   */\n      sub\n        /* \"#utility.yul\":1963:1995   */\n      slt\n        /* \"#utility.yul\":1960:2079   */\n      iszero\n      tag_166\n      jumpi\n        /* \"#utility.yul\":1998:2077   */\n      tag_167\n      tag_117\n      jump\t// in\n    tag_167:\n        /* \"#utility.yul\":1960:2079   */\n    tag_166:\n        /* \"#utility.yul\":2118:2119   */\n      0x00\n        /* \"#utility.yul\":2143:2196   */\n      tag_168\n        /* \"#utility.yul\":2188:2195   */\n      dup5\n        /* \"#utility.yul\":2179:2185   */\n      dup3\n        /* \"#utility.yul\":2168:2177   */\n      dup6\n        /* \"#utility.yul\":2164:2186   */\n      add\n        /* \"#utility.yul\":2143:2196   */\n      tag_126\n      jump\t// in\n    tag_168:\n        /* \"#utility.yul\":2133:2196   */\n      swap2\n      pop\n        /* \"#utility.yul\":2089:2206   */\n      pop\n        /* \"#utility.yul\":1884:2213   */\n      swap3\n      swap2\n      pop\n      pop\n      jump\t// out\n        /* \"#utility.yul\":2219:2337   */\n    tag_127:\n        /* \"#utility.yul\":2306:2330   */\n      tag_170\n        /* \"#utility.yul\":2324:2329   */\n      dup2\n        /* \"#utility.yul\":2306:2330   */\n      tag_120\n      jump\t// in\n    tag_170:\n        /* \"#utility.yul\":2301:2304   */\n      dup3\n        /* \"#utility.yul\":2294:2331   */\n      mstore\n        /* \"#utility.yul\":2219:2337   */\n      pop\n      pop\n      jump\t// out\n        /* \"#utility.yul\":2343:2565   */\n    tag_40:\n        /* \"#utility.yul\":2436:2440   */\n      0x00\n        /* \"#utility.yul\":2474:2476   */\n      0x20\n        /* \"#utility.yul\":2463:2472   */\n      dup3\n        /* \"#utility.yul\":2459:2477   */\n      add\n        /* \"#utility.yul\":2451:2477   */\n      swap1\n      pop\n        /* \"#utility.yul\":2487:2558   */\n      tag_172\n        /* \"#utility.yul\":2555:2556   */\n      0x00\n        /* \"#utility.yul\":2544:2553   */\n      dup4\n        /* \"#utility.yul\":2540:2557   */\n      add\n        /* \"#utility.yul\":2531:2537   */\n      dup5\n        /* \"#utility.yul\":2487:2558   */\n      tag_127\n      jump\t// in\n    tag_172:\n        /* \"#utility.yul\":2343:2565   */\n      swap3\n      swap2\n      pop\n      pop\n      jump\t// out\n        /* \"#utility.yul\":2571:3045   */\n    tag_43:\n        /* \"#utility.yul\":2639:2645   */\n      0x00\n        /* \"#utility.yul\":2647:2653   */\n      0x00\n        /* \"#utility.yul\":2696:2698   */\n      0x40\n        /* \"#utility.yul\":2684:2693   */\n      dup4\n        /* \"#utility.yul\":2675:2682   */\n      dup6\n        /* \"#utility.yul\":2671:2694   */\n      sub\n        /* \"#utility.yul\":2667:2699   */\n      slt\n        /* \"#utility.yul\":2664:2783   */\n      iszero\n      tag_174\n      jumpi\n        /* \"#utility.yul\":2702:2781   */\n      tag_175\n      tag_117\n      jump\t// in\n    tag_175:\n        /* \"#utility.yul\":2664:2783   */\n    tag_174:\n        /* \"#utility.yul\":2822:2823   */\n      0x00\n        /* \"#utility.yul\":2847:2900   */\n      tag_176\n        /* \"#utility.yul\":2892:2899   */\n      dup6\n        /* \"#utility.yul\":2883:2889   */\n      dup3\n        /* \"#utility.yul\":2872:2881   */\n      dup7\n        /* \"#utility.yul\":2868:2890   */\n      add\n        /* \"#utility.yul\":2847:2900   */\n      tag_122\n      jump\t// in\n    tag_176:\n        /* \"#utility.yul\":2837:2900   */\n      swap3\n      pop\n        /* \"#utility.yul\":2793:2910   */\n      pop\n        /* \"#utility.yul\":2949:2951   */\n      0x20\n        /* \"#utility.yul\":2975:3028   */\n      tag_177\n        /* \"#utility.yul\":3020:3027   */\n      dup6\n        /* \"#utility.yul\":3011:3017   */\n      dup3\n        /* \"#utility.yul\":3000:3009   */\n      dup7\n        /* \"#utility.yul\":2996:3018   */\n      add\n        /* \"#utility.yul\":2975:3028   */\n      tag_126\n      jump\t// in\n    tag_177:\n        /* \"#utility.yul\":2965:3028   */\n      swap2\n      pop\n        /* \"#utility.yul\":2920:3038   */\n      pop\n        /* \"#utility.yul\":2571:3045   */\n      swap3\n      pop\n      swap3\n      swap1\n      pop\n      jump\t// out\n        /* \"#utility.yul\":3051:3231   */\n    tag_128:\n        /* \"#utility.yul\":3099:3176   */\n      0x4e487b7100000000000000000000000000000000000000000000000000000000\n        /* \"#utility.yul\":3096:3097   */\n      0x00\n        /* \"#utility.yul\":3089:3177   */\n      mstore\n        /* \"#utility.yul\":3196:3200   */\n      0x11\n        /* \"#utility.yul\":3193:3194   */\n      0x04\n        /* \"#utility.yul\":3186:3201   */\n      mstore\n        /* \"#utility.yul\":3220:3224   */\n      0x24\n        /* \"#utility.yul\":3217:3218   */\n      0x00\n        /* \"#utility.yul\":3210:3225   */\n      revert\n        /* \"#utility.yul\":3237:3428   */\n    tag_57:\n        /* \"#utility.yul\":3277:3280   */\n      0x00\n        /* \"#utility.yul\":3296:3316   */\n      tag_180\n        /* \"#utility.yul\":3314:3315   */\n      dup3\n        /* \"#utility.yul\":3296:3316   */\n      tag_123\n      jump\t// in\n    tag_180:\n        /* \"#utility.yul\":3291:3316   */\n      swap2\n      pop\n        /* \"#utility.yul\":3330:3350   */\n      tag_181\n        /* \"#utility.yul\":3348:3349   */\n      dup4\n        /* \"#utility.yul\":3330:3350   */\n      tag_123\n      jump\t// in\n    tag_181:\n        /* \"#utility.yul\":3325:3350   */\n      swap3\n      pop\n        /* \"#utility.yul\":3373:3374   */\n      dup3\n        /* \"#utility.yul\":3370:3371   */\n      dup3\n        /* \"#utility.yul\":3366:3375   */\n      add\n        /* \"#utility.yul\":3359:3375   */\n      swap1\n      pop\n        /* \"#utility.yul\":3394:3397   */\n      dup1\n        /* \"#utility.yul\":3391:3392   */\n      dup3\n        /* \"#utility.yul\":3388:3398   */\n      gt\n        /* \"#utility.yul\":3385:3421   */\n      iszero\n      tag_182\n      jumpi\n        /* \"#utility.yul\":3401:3419   */\n      tag_183\n      tag_128\n      jump\t// in\n    tag_183:\n        /* \"#utility.yul\":3385:3421   */\n    tag_182:\n        /* \"#utility.yul\":3237:3428   */\n      swap3\n      swap2\n      pop\n      pop\n      jump\t// out\n        /* \"#utility.yul\":3434:3628   */\n    tag_59:\n        /* \"#utility.yul\":3474:3478   */\n      0x00\n        /* \"#utility.yul\":3494:3514   */\n      tag_185\n        /* \"#utility.yul\":3512:3513   */\n      dup3\n        /* \"#utility.yul\":3494:3514   */\n      tag_123\n      jump\t// in\n    tag_185:\n        /* \"#utility.yul\":3489:3514   */\n      swap2\n      pop\n        /* \"#utility.yul\":3528:3548   */\n      tag_186\n        /* \"#utility.yul\":3546:3547   */\n      dup4\n        /* \"#utility.yul\":3528:3548   */\n      tag_123\n      jump\t// in\n    tag_186:\n        /* \"#utility.yul\":3523:3548   */\n      swap3\n      pop\n        /* \"#utility.yul\":3572:3573   */\n      dup3\n        /* \"#utility.yul\":3569:3570   */\n      dup3\n        /* \"#utility.yul\":3565:3574   */\n      sub\n        /* \"#utility.yul\":3557:3574   */\n      swap1\n      pop\n        /* \"#utility.yul\":3596:3597   */\n      dup2\n        /* \"#utility.yul\":3590:3594   */\n      dup2\n        /* \"#utility.yul\":3587:3598   */\n      gt\n        /* \"#utility.yul\":3584:3621   */\n      iszero\n      tag_187\n      jumpi\n        /* \"#utility.yul\":3601:3619   */\n      tag_188\n      tag_128\n      jump\t// in\n    tag_188:\n        /* \"#utility.yul\":3584:3621   */\n    tag_187:\n        /* \"#utility.yul\":3434:3628   */\n      swap3\n      swap2\n      pop\n      pop\n      jump\t// out\n        /* \"#utility.yul\":3634:3803   */\n    tag_129:\n        /* \"#utility.yul\":3718:3729   */\n      0x00\n        /* \"#utility.yul\":3752:3758   */\n      dup3\n        /* \"#utility.yul\":3747:3750   */\n      dup3\n        /* \"#utility.yul\":3740:3759   */\n      mstore\n        /* \"#utility.yul\":3792:3796   */\n      0x20\n        /* \"#utility.yul\":3787:3790   */\n      dup3\n        /* \"#utility.yul\":3783:3797   */\n      add\n        /* \"#utility.yul\":3768:3797   */\n      swap1\n      pop\n        /* \"#utility.yul\":3634:3803   */\n      swap3\n      swap2\n      pop\n      pop\n      jump\t// out\n        /* \"#utility.yul\":3809:3979   */\n    tag_130:\n        /* \"#utility.yul\":3949:3971   */\n      0x496e73756666696369656e742062616c616e6365000000000000000000000000\n        /* \"#utility.yul\":3945:3946   */\n      0x00\n        /* \"#utility.yul\":3937:3943   */\n      dup3\n        /* \"#utility.yul\":3933:3947   */\n      add\n        /* \"#utility.yul\":3926:3972   */\n      mstore\n        /* \"#utility.yul\":3809:3979   */\n      pop\n      jump\t// out\n        /* \"#utility.yul\":3985:4351   */\n    tag_131:\n        /* \"#utility.yul\":4127:4130   */\n      0x00\n        /* \"#utility.yul\":4148:4215   */\n      tag_192\n        /* \"#utility.yul\":4212:4214   */\n      0x14\n        /* \"#utility.yul\":4207:4210   */\n      dup4\n        /* \"#utility.yul\":4148:4215   */\n      tag_129\n      jump\t// in\n    tag_192:\n        /* \"#utility.yul\":4141:4215   */\n      swap2\n      pop\n        /* \"#utility.yul\":4224:4317   */\n      tag_193\n        /* \"#utility.yul\":4313:4316   */\n      dup3\n        /* \"#utility.yul\":4224:4317   */\n      tag_130\n      jump\t// in\n    tag_193:\n        /* \"#utility.yul\":4342:4344   */\n      0x20\n        /* \"#utility.yul\":4337:4340   */\n      dup3\n        /* \"#utility.yul\":4333:4345   */\n      add\n        /* \"#utility.yul\":4326:4345   */\n      swap1\n      pop\n        /* \"#utility.yul\":3985:4351   */\n      swap2\n      swap1\n      pop\n      jump\t// out\n        /* \"#utility.yul\":4357:4776   */\n    tag_93:\n        /* \"#utility.yul\":4523:4527   */\n      0x00\n        /* \"#utility.yul\":4561:4563   */\n      0x20\n        /* \"#utility.yul\":4550:4559   */\n      dup3\n        /* \"#utility.yul\":4546:4564   */\n      add\n        /* \"#utility.yul\":4538:4564   */\n      swap1\n      pop\n        /* \"#utility.yul\":4610:4619   */\n      dup2\n        /* \"#utility.yul\":4604:4608   */\n      dup2\n        /* \"#utility.yul\":4600:4620   */\n      sub\n        /* \"#utility.yul\":4596:4597   */\n      0x00\n        /* \"#utility.yul\":4585:4594   */\n      dup4\n        /* \"#utility.yul\":4581:4598   */\n      add\n        /* \"#utility.yul\":4574:4621   */\n      mstore\n        /* \"#utility.yul\":4638:4769   */\n      tag_195\n        /* \"#utility.yul\":4764:4768   */\n      dup2\n        /* \"#utility.yul\":4638:4769   */\n      tag_131\n      jump\t// in\n    tag_195:\n        /* \"#utility.yul\":4630:4769   */\n      swap1\n      pop\n        /* \"#utility.yul\":4357:4776   */\n      swap2\n      swap1\n      pop\n      jump\t// out\n        /* \"#utility.yul\":4782:5192   */\n    tag_97:\n        /* \"#utility.yul\":4822:4829   */\n      0x00\n        /* \"#utility.yul\":4845:4865   */\n      tag_197\n        /* \"#utility.yul\":4863:4864   */\n      dup3\n        /* \"#utility.yul\":4845:4865   */\n      tag_123\n      jump\t// in\n    tag_197:\n        /* \"#utility.yul\":4840:4865   */\n      swap2\n      pop\n        /* \"#utility.yul\":4879:4899   */\n      tag_198\n        /* \"#utility.yul\":4897:4898   */\n      dup4\n        /* \"#utility.yul\":4879:4899   */\n      tag_123\n      jump\t// in\n    tag_198:\n        /* \"#utility.yul\":4874:4899   */\n      swap3\n      pop\n        /* \"#utility.yul\":4934:4935   */\n      dup3\n        /* \"#utility.yul\":4931:4932   */\n      dup3\n        /* \"#utility.yul\":4927:4936   */\n      mul\n        /* \"#utility.yul\":4956:4986   */\n      tag_199\n        /* \"#utility.yul\":4974:4985   */\n      dup2\n        /* \"#utility.yul\":4956:4986   */\n      tag_123\n      jump\t// in\n    tag_199:\n        /* \"#utility.yul\":4945:4986   */\n      swap2\n      pop\n        /* \"#utility.yul\":5135:5136   */\n      dup3\n        /* \"#utility.yul\":5126:5133   */\n      dup3\n        /* \"#utility.yul\":5122:5137   */\n      div\n        /* \"#utility.yul\":5119:5120   */\n      dup5\n        /* \"#utility.yul\":5116:5138   */\n      eq\n        /* \"#utility.yul\":5096:5097   */\n      dup4\n        /* \"#utility.yul\":5089:5098   */\n      iszero\n        /* \"#utility.yul\":5069:5152   */\n      or\n        /* \"#utility.yul\":5046:5185   */\n      tag_200\n      jumpi\n        /* \"#utility.yul\":5165:5183   */\n      tag_201\n      tag_128\n      jump\t// in\n    tag_201:\n        /* \"#utility.yul\":5046:5185   */\n    tag_200:\n        /* \"#utility.yul\":4830:5192   */\n      pop\n        /* \"#utility.yul\":4782:5192   */\n      swap3\n      swap2\n      pop\n      pop\n      jump\t// out\n        /* \"#utility.yul\":5198:5378   */\n    tag_132:\n        /* \"#utility.yul\":5246:5323   */\n      0x4e487b7100000000000000000000000000000000000000000000000000000000\n        /* \"#utility.yul\":5243:5244   */\n      0x00\n        /* \"#utility.yul\":5236:5324   */\n      mstore\n        /* \"#utility.yul\":5343:5347   */\n      0x12\n        /* \"#utility.yul\":5340:5341   */\n      0x04\n        /* \"#utility.yul\":5333:5348   */\n      mstore\n        /* \"#utility.yul\":5367:5371   */\n      0x24\n        /* \"#utility.yul\":5364:5365   */\n      0x00\n        /* \"#utility.yul\":5357:5372   */\n      revert\n        /* \"#utility.yul\":5384:5569   */\n    tag_99:\n        /* \"#utility.yul\":5424:5425   */\n      0x00\n        /* \"#utility.yul\":5441:5461   */\n      tag_204\n        /* \"#utility.yul\":5459:5460   */\n      dup3\n        /* \"#utility.yul\":5441:5461   */\n      tag_123\n      jump\t// in\n    tag_204:\n        /* \"#utility.yul\":5436:5461   */\n      swap2\n      pop\n        /* \"#utility.yul\":5475:5495   */\n      tag_205\n        /* \"#utility.yul\":5493:5494   */\n      dup4\n        /* \"#utility.yul\":5475:5495   */\n      tag_123\n      jump\t// in\n    tag_205:\n        /* \"#utility.yul\":5470:5495   */\n      swap3\n      pop\n        /* \"#utility.yul\":5514:5515   */\n      dup3\n        /* \"#utility.yul\":5504:5539   */\n      tag_206\n      jumpi\n        /* \"#utility.yul\":5519:5537   */\n      tag_207\n      tag_132\n      jump\t// in\n    tag_207:\n        /* \"#utility.yul\":5504:5539   */\n    tag_206:\n        /* \"#utility.yul\":5561:5562   */\n      dup3\n        /* \"#utility.yul\":5558:5559   */\n      dup3\n        /* \"#utility.yul\":5554:5563   */\n      div\n        /* \"#utility.yul\":5549:5563   */\n      swap1\n      pop\n        /* \"#utility.yul\":5384:5569   */\n      swap3\n      swap2\n      pop\n      pop\n      jump\t// out\n        /* \"#utility.yul\":5575:5743   */\n    tag_133:\n        /* \"#utility.yul\":5715:5735   */\n      0x416d6f756e74206d757374206265203e20300000000000000000000000000000\n        /* \"#utility.yul\":5711:5712   */\n      0x00\n        /* \"#utility.yul\":5703:5709   */\n      dup3\n        /* \"#utility.yul\":5699:5713   */\n      add\n        /* \"#utility.yul\":5692:5736   */\n      mstore\n        /* \"#utility.yul\":5575:5743   */\n      pop\n      jump\t// out\n        /* \"#utility.yul\":5749:6115   */\n    tag_134:\n        /* \"#utility.yul\":5891:5894   */\n      0x00\n        /* \"#utility.yul\":5912:5979   */\n      tag_210\n        /* \"#utility.yul\":5976:5978   */\n      0x12\n        /* \"#utility.yul\":5971:5974   */\n      dup4\n        /* \"#utility.yul\":5912:5979   */\n      tag_129\n      jump\t// in\n    tag_210:\n        /* \"#utility.yul\":5905:5979   */\n      swap2\n      pop\n        /* \"#utility.yul\":5988:6081   */\n      tag_211\n        /* \"#utility.yul\":6077:6080   */\n      dup3\n        /* \"#utility.yul\":5988:6081   */\n      tag_133\n      jump\t// in\n    tag_211:\n        /* \"#utility.yul\":6106:6108   */\n      0x20\n        /* \"#utility.yul\":6101:6104   */\n      dup3\n        /* \"#utility.yul\":6097:6109   */\n      add\n        /* \"#utility.yul\":6090:6109   */\n      swap1\n      pop\n        /* \"#utility.yul\":5749:6115   */\n      swap2\n      swap1\n      pop\n      jump\t// out\n        /* \"#utility.yul\":6121:6540   */\n    tag_103:\n        /* \"#utility.yul\":6287:6291   */\n      0x00\n        /* \"#utility.yul\":6325:6327   */\n      0x20\n        /* \"#utility.yul\":6314:6323   */\n      dup3\n        /* \"#utility.yul\":6310:6328   */\n      add\n        /* \"#utility.yul\":6302:6328   */\n      swap1\n      pop\n        /* \"#utility.yul\":6374:6383   */\n      dup2\n        /* \"#utility.yul\":6368:6372   */\n      dup2\n        /* \"#utility.yul\":6364:6384   */\n      sub\n        /* \"#utility.yul\":6360:6361   */\n      0x00\n        /* \"#utility.yul\":6349:6358   */\n      dup4\n        /* \"#utility.yul\":6345:6362   */\n      add\n        /* \"#utility.yul\":6338:6385   */\n      mstore\n        /* \"#utility.yul\":6402:6533   */\n      tag_213\n        /* \"#utility.yul\":6528:6532   */\n      dup2\n        /* \"#utility.yul\":6402:6533   */\n      tag_134\n      jump\t// in\n    tag_213:\n        /* \"#utility.yul\":6394:6533   */\n      swap1\n      pop\n        /* \"#utility.yul\":6121:6540   */\n      swap2\n      swap1\n      pop\n      jump\t// out\n        /* \"#utility.yul\":6546:6712   */\n    tag_135:\n        /* \"#utility.yul\":6686:6704   */\n      0x416d6f756e7420746f6f206c6172676500000000000000000000000000000000\n        /* \"#utility.yul\":6682:6683   */\n      0x00\n        /* \"#utility.yul\":6674:6680   */\n      dup3\n        /* \"#utility.yul\":6670:6684   */\n      add\n        /* \"#utility.yul\":6663:6705   */\n      mstore\n        /* \"#utility.yul\":6546:6712   */\n      pop\n      jump\t// out\n        /* \"#utility.yul\":6718:7084   */\n    tag_136:\n        /* \"#utility.yul\":6860:6863   */\n      0x00\n        /* \"#utility.yul\":6881:6948   */\n      tag_216\n        /* \"#utility.yul\":6945:6947   */\n      0x10\n        /* \"#utility.yul\":6940:6943   */\n      dup4\n        /* \"#utility.yul\":6881:6948   */\n      tag_129\n      jump\t// in\n    tag_216:\n        /* \"#utility.yul\":6874:6948   */\n      swap2\n      pop\n        /* \"#utility.yul\":6957:7050   */\n      tag_217\n        /* \"#utility.yul\":7046:7049   */\n      dup3\n        /* \"#utility.yul\":6957:7050   */\n      tag_135\n      jump\t// in\n    tag_217:\n        /* \"#utility.yul\":7075:7077   */\n      0x20\n        /* \"#utility.yul\":7070:7073   */\n      dup3\n        /* \"#utility.yul\":7066:7078   */\n      add\n        /* \"#utility.yul\":7059:7078   */\n      swap1\n      pop\n        /* \"#utility.yul\":6718:7084   */\n      swap2\n      swap1\n      pop\n      jump\t// out\n        /* \"#utility.yul\":7090:7509   */\n    tag_106:\n        /* \"#utility.yul\":7256:7260   */\n      0x00\n        /* \"#utility.yul\":7294:7296   */\n      0x20\n        /* \"#utility.yul\":7283:7292   */\n      dup3\n        /* \"#utility.yul\":7279:7297   */\n      add\n        /* \"#utility.yul\":7271:7297   */\n      swap1\n      pop\n        /* \"#utility.yul\":7343:7352   */\n      dup2\n        /* \"#utility.yul\":7337:7341   */\n      dup2\n        /* \"#utility.yul\":7333:7353   */\n      sub\n        /* \"#utility.yul\":7329:7330   */\n      0x00\n        /* \"#utility.yul\":7318:7327   */\n      dup4\n        /* \"#utility.yul\":7314:7331   */\n      add\n        /* \"#utility.yul\":7307:7354   */\n      mstore\n        /* \"#utility.yul\":7371:7502   */\n      tag_219\n        /* \"#utility.yul\":7497:7501   */\n      dup2\n        /* \"#utility.yul\":7371:7502   */\n      tag_136\n      jump\t// in\n    tag_219:\n        /* \"#utility.yul\":7363:7502   */\n      swap1\n      pop\n        /* \"#utility.yul\":7090:7509   */\n      swap2\n      swap1\n      pop\n      jump\t// out\n        /* \"#utility.yul\":7515:7674   */\n    tag_137:\n        /* \"#utility.yul\":7655:7666   */\n      0x4e6f74206f776e65720000000000000000000000000000000000000000000000\n        /* \"#utility.yul\":7651:7652   */\n      0x00\n        /* \"#utility.yul\":7643:7649   */\n      dup3\n        /* \"#utility.yul\":7639:7653   */\n      add\n        /* \"#utility.yul\":7632:7667   */\n      mstore\n        /* \"#utility.yul\":7515:7674   */\n      pop\n      jump\t// out\n        /* \"#utility.yul\":7680:8045   */\n    tag_138:\n        /* \"#utility.yul\":7822:7825   */\n      0x00\n        /* \"#utility.yul\":7843:7909   */\n      tag_222\n        /* \"#utility.yul\":7907:7908   */\n      0x09\n        /* \"#utility.yul\":7902:7905   */\n      dup4\n        /* \"#utility.yul\":7843:7909   */\n      tag_129\n      jump\t// in\n    tag_222:\n        /* \"#utility.yul\":7836:7909   */\n      swap2\n      pop\n        /* \"#utility.yul\":7918:8011   */\n      tag_223\n        /* \"#utility.yul\":8007:8010   */\n      dup3\n        /* \"#utility.yul\":7918:8011   */\n      tag_137\n      jump\t// in\n    tag_223:\n        /* \"#utility.yul\":8036:8038   */\n      0x20\n        /* \"#utility.yul\":8031:8034   */\n      dup3\n        /* \"#utility.yul\":8027:8039   */\n      add\n        /* \"#utility.yul\":8020:8039   */\n      swap1\n      pop\n        /* \"#utility.yul\":7680:8045   */\n      swap2\n      swap1\n      pop\n      jump\t// out\n        /* \"#utility.yul\":8051:8470   */\n    tag_115:\n        /* \"#utility.yul\":8217:8221   */\n      0x00\n        /* \"#utility.yul\":8255:8257   */\n      0x20\n        /* \"#utility.yul\":8244:8253   */\n      dup3\n        /* \"#utility.yul\":8240:8258   */\n      add\n        /* \"#utility.yul\":8232:8258   */\n      swap1\n      pop\n        /* \"#utility.yul\":8304:8313   */\n      dup2\n        /* \"#utility.yul\":8298:8302   */\n      dup2\n        /* \"#utility.yul\":8294:8314   */\n      sub\n        /* \"#utility.yul\":8290:8291   */\n      0x00\n        /* \"#utility.yul\":8279:8288   */\n      dup4\n        /* \"#utility.yul\":8275:8292   */\n      add\n        /* \"#utility.yul\":8268:8315   */\n      mstore\n        /* \"#utility.yul\":8332:8463   */\n      tag_225\n        /* \"#utility.yul\":8458:8462   */\n      dup2\n        /* \"#utility.yul\":8332:8463   */\n      tag_138\n      jump\t// in\n    tag_225:\n        /* \"#utility.yul\":8324:8463   */\n      swap1\n      pop\n        /* \"#utility.yul\":8051:8470   */\n      swap2\n      swap1\n      pop\n      jump\t// out\n\n    auxdata: 0xa2646970667358221220beba82ffd6d77a39c3da35d22e838565d56c41f4c2bd6413836d7743a7ce681f64736f6c63430008220033\n}\n",
				"bytecode": {
					"linkReferences": {},
					"object": "6080604052348015600e575f5ffd5b503360025f6101000a81548173ffffffffffffffffffffffffffffffffffffffff021916908373ffffffffffffffffffffffffffffffffffffffff160217905550610ac58061005c5f395ff3fe608060405234801561000f575f5ffd5b506004361061009c575f3560e01c80638517386a116100645780638517386a146101565780638da5cb5b1461017257806399704ad814610190578063b6b55f25146101ac578063e8ad8ece146101c85761009c565b806327e235e3146100a05780632e1a7d4d146100d05780632f7c9ed6146100ec5780633ce742bb146101085780637d88209714610138575b5f5ffd5b6100ba60048036038101906100b59190610697565b6101e4565b6040516100c791906106da565b60405180910390f35b6100ea60048036038101906100e5919061071d565b6101f8565b005b6101066004803603810190610101919061071d565b610235565b005b610122600480360381019061011d919061071d565b610286565b60405161012f91906106da565b60405180910390f35b610140610297565b60405161014d91906106da565b60405180910390f35b610170600480360381019061016b9190610697565b61029d565b005b61017a6102e9565b6040516101879190610757565b60405180910390f35b6101aa60048036038101906101a59190610770565b61030e565b005b6101c660048036038101906101c1919061071d565b610324565b005b6101e260048036038101906101dd919061071d565b610352565b005b5f602052805f5260405f205f915090505481565b61020233826103b2565b5f61020c82610487565b9050808261021a91906107db565b60015f82825461022a919061080e565b925050819055505050565b61023e816104a8565b5f61024882610531565b905061025f33828461025a91906107db565b610552565b808261026b91906107db565b60015f82825461027b91906107db565b925050819055505050565b5f61029082610487565b9050919050565b60015481565b6102a56105a8565b5f5f5f8373ffffffffffffffffffffffffffffffffffffffff1673ffffffffffffffffffffffffffffffffffffffff1681526020019081526020015f208190555050565b60025f9054906101000a900473ffffffffffffffffffffffffffffffffffffffff1681565b6103166105a8565b61032082826103b2565b5050565b61032d816104a8565b6103373382610552565b8060015f82825461034891906107db565b9250508190555050565b61035b816104a8565b5f61036582610531565b905060058161037491906107db565b905061038b33828461038691906107db565b610552565b808261039791906107db565b60015f8282546103a791906107db565b925050819055505050565b805f5f8473ffffffffffffffffffffffffffffffffffffffff1673ffffffffffffffffffffffffffffffffffffffff1681526020019081526020015f20541015610431576040517f08c379a00000000000000000000000000000000000000000000000000000000081526004016104289061089b565b60405180910390fd5b805f5f8473ffffffffffffffffffffffffffffffffffffffff1673ffffffffffffffffffffffffffffffffffffffff1681526020019081526020015f205f82825461047c919061080e565b925050819055505050565b5f606460028361049791906108b9565b6104a19190610927565b9050919050565b5f81116104ea576040517f08c379a00000000000000000000000000000000000000000000000000000000081526004016104e1906109a1565b60405180910390fd5b606481111561052e576040517f08c379a000000000000000000000000000000000000000000000000000000000815260040161052590610a09565b60405180910390fd5b50565b5f6064600a8361054191906108b9565b61054b9190610927565b9050919050565b805f5f8473ffffffffffffffffffffffffffffffffffffffff1673ffffffffffffffffffffffffffffffffffffffff1681526020019081526020015f205f82825461059d91906107db565b925050819055505050565b60025f9054906101000a900473ffffffffffffffffffffffffffffffffffffffff1673ffffffffffffffffffffffffffffffffffffffff163373ffffffffffffffffffffffffffffffffffffffff1614610637576040517f08c379a000000000000000000000000000000000000000000000000000000000815260040161062e90610a71565b60405180910390fd5b565b5f5ffd5b5f73ffffffffffffffffffffffffffffffffffffffff82169050919050565b5f6106668261063d565b9050919050565b6106768161065c565b8114610680575f5ffd5b50565b5f813590506106918161066d565b92915050565b5f602082840312156106ac576106ab610639565b5b5f6106b984828501610683565b91505092915050565b5f819050919050565b6106d4816106c2565b82525050565b5f6020820190506106ed5f8301846106cb565b92915050565b6106fc816106c2565b8114610706575f5ffd5b50565b5f81359050610717816106f3565b92915050565b5f6020828403121561073257610731610639565b5b5f61073f84828501610709565b91505092915050565b6107518161065c565b82525050565b5f60208201905061076a5f830184610748565b92915050565b5f5f6040838503121561078657610785610639565b5b5f61079385828601610683565b92505060206107a485828601610709565b9150509250929050565b7f4e487b71000000000000000000000000000000000000000000000000000000005f52601160045260245ffd5b5f6107e5826106c2565b91506107f0836106c2565b9250828201905080821115610808576108076107ae565b5b92915050565b5f610818826106c2565b9150610823836106c2565b925082820390508181111561083b5761083a6107ae565b5b92915050565b5f82825260208201905092915050565b7f496e73756666696369656e742062616c616e63650000000000000000000000005f82015250565b5f610885601483610841565b915061089082610851565b602082019050919050565b5f6020820190508181035f8301526108b281610879565b9050919050565b5f6108c3826106c2565b91506108ce836106c2565b92508282026108dc816106c2565b915082820484148315176108f3576108f26107ae565b5b5092915050565b7f4e487b71000000000000000000000000000000000000000000000000000000005f52601260045260245ffd5b5f610931826106c2565b915061093c836106c2565b92508261094c5761094b6108fa565b5b828204905092915050565b7f416d6f756e74206d757374206265203e203000000000000000000000000000005f82015250565b5f61098b601283610841565b915061099682610957565b602082019050919050565b5f6020820190508181035f8301526109b88161097f565b9050919050565b7f416d6f756e7420746f6f206c61726765000000000000000000000000000000005f82015250565b5f6109f3601083610841565b91506109fe826109bf565b602082019050919050565b5f6020820190508181035f830152610a20816109e7565b9050919050565b7f4e6f74206f776e657200000000000000000000000000000000000000000000005f82015250565b5f610a5b600983610841565b9150610a6682610a27565b602082019050919050565b5f6020820190508181035f830152610a8881610a4f565b905091905056fea2646970667358221220beba82ffd6d77a39c3da35d22e838565d56c41f4c2bd6413836d7743a7ce681f64736f6c63430008220033",
					"opcodes": "PUSH1 0x80 PUSH1 0x40 MSTORE CALLVALUE DUP1 ISZERO PUSH1 0xE JUMPI PUSH0 PUSH0 REVERT JUMPDEST POP CALLER PUSH1 0x2 PUSH0 PUSH2 0x100 EXP DUP2 SLOAD DUP2 PUSH20 0xFFFFFFFFFFFFFFFFFFFFFFFFFFFFFFFFFFFFFFFF MUL NOT AND SWAP1 DUP4 PUSH20 0xFFFFFFFFFFFFFFFFFFFFFFFFFFFFFFFFFFFFFFFF AND MUL OR SWAP1 SSTORE POP PUSH2 0xAC5 DUP1 PUSH2 0x5C PUSH0 CODECOPY PUSH0 RETURN INVALID PUSH1 0x80 PUSH1 0x40 MSTORE CALLVALUE DUP1 ISZERO PUSH2 0xF JUMPI PUSH0 PUSH0 REVERT JUMPDEST POP PUSH1 0x4 CALLDATASIZE LT PUSH2 0x9C JUMPI PUSH0 CALLDATALOAD PUSH1 0xE0 SHR DUP1 PUSH4 0x8517386A GT PUSH2 0x64 JUMPI DUP1 PUSH4 0x8517386A EQ PUSH2 0x156 JUMPI DUP1 PUSH4 0x8DA5CB5B EQ PUSH2 0x172 JUMPI DUP1 PUSH4 0x99704AD8 EQ PUSH2 0x190 JUMPI DUP1 PUSH4 0xB6B55F25 EQ PUSH2 0x1AC JUMPI DUP1 PUSH4 0xE8AD8ECE EQ PUSH2 0x1C8 JUMPI PUSH2 0x9C JUMP JUMPDEST DUP1 PUSH4 0x27E235E3 EQ PUSH2 0xA0 JUMPI DUP1 PUSH4 0x2E1A7D4D EQ PUSH2 0xD0 JUMPI DUP1 PUSH4 0x2F7C9ED6 EQ PUSH2 0xEC JUMPI DUP1 PUSH4 0x3CE742BB EQ PUSH2 0x108 JUMPI DUP1 PUSH4 0x7D882097 EQ PUSH2 0x138 JUMPI JUMPDEST PUSH0 PUSH0 REVERT JUMPDEST PUSH2 0xBA PUSH1 0x4 DUP1 CALLDATASIZE SUB DUP2 ADD SWAP1 PUSH2 0xB5 SWAP2 SWAP1 PUSH2 0x697 JUMP JUMPDEST PUSH2 0x1E4 JUMP JUMPDEST PUSH1 0x40 MLOAD PUSH2 0xC7 SWAP2 SWAP1 PUSH2 0x6DA JUMP JUMPDEST PUSH1 0x40 MLOAD DUP1 SWAP2 SUB SWAP1 RETURN JUMPDEST PUSH2 0xEA PUSH1 0x4 DUP1 CALLDATASIZE SUB DUP2 ADD SWAP1 PUSH2 0xE5 SWAP2 SWAP1 PUSH2 0x71D JUMP JUMPDEST PUSH2 0x1F8 JUMP JUMPDEST STOP JUMPDEST PUSH2 0x106 PUSH1 0x4 DUP1 CALLDATASIZE SUB DUP2 ADD SWAP1 PUSH2 0x101 SWAP2 SWAP1 PUSH2 0x71D JUMP JUMPDEST PUSH2 0x235 JUMP JUMPDEST STOP JUMPDEST PUSH2 0x122 PUSH1 0x4 DUP1 CALLDATASIZE SUB DUP2 ADD SWAP1 PUSH2 0x11D SWAP2 SWAP1 PUSH2 0x71D JUMP JUMPDEST PUSH2 0x286 JUMP JUMPDEST PUSH1 0x40 MLOAD PUSH2 0x12F SWAP2 SWAP1 PUSH2 0x6DA JUMP JUMPDEST PUSH1 0x40 MLOAD DUP1 SWAP2 SUB SWAP1 RETURN JUMPDEST PUSH2 0x140 PUSH2 0x297 JUMP JUMPDEST PUSH1 0x40 MLOAD PUSH2 0x14D SWAP2 SWAP1 PUSH2 0x6DA JUMP JUMPDEST PUSH1 0x40 MLOAD DUP1 SWAP2 SUB SWAP1 RETURN JUMPDEST PUSH2 0x170 PUSH1 0x4 DUP1 CALLDATASIZE SUB DUP2 ADD SWAP1 PUSH2 0x16B SWAP2 SWAP1 PUSH2 0x697 JUMP JUMPDEST PUSH2 0x29D JUMP JUMPDEST STOP JUMPDEST PUSH2 0x17A PUSH2 0x2E9 JUMP JUMPDEST PUSH1 0x40 MLOAD PUSH2 0x187 SWAP2 SWAP1 PUSH2 0x757 JUMP JUMPDEST PUSH1 0x40 MLOAD DUP1 SWAP2 SUB SWAP1 RETURN JUMPDEST PUSH2 0x1AA PUSH1 0x4 DUP1 CALLDATASIZE SUB DUP2 ADD SWAP1 PUSH2 0x1A5 SWAP2 SWAP1 PUSH2 0x770 JUMP JUMPDEST PUSH2 0x30E JUMP JUMPDEST STOP JUMPDEST PUSH2 0x1C6 PUSH1 0x4 DUP1 CALLDATASIZE SUB DUP2 ADD SWAP1 PUSH2 0x1C1 SWAP2 SWAP1 PUSH2 0x71D JUMP JUMPDEST PUSH2 0x324 JUMP JUMPDEST STOP JUMPDEST PUSH2 0x1E2 PUSH1 0x4 DUP1 CALLDATASIZE SUB DUP2 ADD SWAP1 PUSH2 0x1DD SWAP2 SWAP1 PUSH2 0x71D JUMP JUMPDEST PUSH2 0x352 JUMP JUMPDEST STOP JUMPDEST PUSH0 PUSH1 0x20 MSTORE DUP1 PUSH0 MSTORE PUSH1 0x40 PUSH0 KECCAK256 PUSH0 SWAP2 POP SWAP1 POP SLOAD DUP2 JUMP JUMPDEST PUSH2 0x202 CALLER DUP3 PUSH2 0x3B2 JUMP JUMPDEST PUSH0 PUSH2 0x20C DUP3 PUSH2 0x487 JUMP JUMPDEST SWAP1 POP DUP1 DUP3 PUSH2 0x21A SWAP2 SWAP1 PUSH2 0x7DB JUMP JUMPDEST PUSH1 0x1 PUSH0 DUP3 DUP3 SLOAD PUSH2 0x22A SWAP2 SWAP1 PUSH2 0x80E JUMP JUMPDEST SWAP3 POP POP DUP2 SWAP1 SSTORE POP POP POP JUMP JUMPDEST PUSH2 0x23E DUP2 PUSH2 0x4A8 JUMP JUMPDEST PUSH0 PUSH2 0x248 DUP3 PUSH2 0x531 JUMP JUMPDEST SWAP1 POP PUSH2 0x25F CALLER DUP3 DUP5 PUSH2 0x25A SWAP2 SWAP1 PUSH2 0x7DB JUMP JUMPDEST PUSH2 0x552 JUMP JUMPDEST DUP1 DUP3 PUSH2 0x26B SWAP2 SWAP1 PUSH2 0x7DB JUMP JUMPDEST PUSH1 0x1 PUSH0 DUP3 DUP3 SLOAD PUSH2 0x27B SWAP2 SWAP1 PUSH2 0x7DB JUMP JUMPDEST SWAP3 POP POP DUP2 SWAP1 SSTORE POP POP POP JUMP JUMPDEST PUSH0 PUSH2 0x290 DUP3 PUSH2 0x487 JUMP JUMPDEST SWAP1 POP SWAP2 SWAP1 POP JUMP JUMPDEST PUSH1 0x1 SLOAD DUP2 JUMP JUMPDEST PUSH2 0x2A5 PUSH2 0x5A8 JUMP JUMPDEST PUSH0 PUSH0 PUSH0 DUP4 PUSH20 0xFFFFFFFFFFFFFFFFFFFFFFFFFFFFFFFFFFFFFFFF AND PUSH20 0xFFFFFFFFFFFFFFFFFFFFFFFFFFFFFFFFFFFFFFFF AND DUP2 MSTORE PUSH1 0x20 ADD SWAP1 DUP2 MSTORE PUSH1 0x20 ADD PUSH0 KECCAK256 DUP2 SWAP1 SSTORE POP POP JUMP JUMPDEST PUSH1 0x2 PUSH0 SWAP1 SLOAD SWAP1 PUSH2 0x100 EXP SWAP1 DIV PUSH20 0xFFFFFFFFFFFFFFFFFFFFFFFFFFFFFFFFFFFFFFFF AND DUP2 JUMP JUMPDEST PUSH2 0x316 PUSH2 0x5A8 JUMP JUMPDEST PUSH2 0x320 DUP3 DUP3 PUSH2 0x3B2 JUMP JUMPDEST POP POP JUMP JUMPDEST PUSH2 0x32D DUP2 PUSH2 0x4A8 JUMP JUMPDEST PUSH2 0x337 CALLER DUP3 PUSH2 0x552 JUMP JUMPDEST DUP1 PUSH1 0x1 PUSH0 DUP3 DUP3 SLOAD PUSH2 0x348 SWAP2 SWAP1 PUSH2 0x7DB JUMP JUMPDEST SWAP3 POP POP DUP2 SWAP1 SSTORE POP POP JUMP JUMPDEST PUSH2 0x35B DUP2 PUSH2 0x4A8 JUMP JUMPDEST PUSH0 PUSH2 0x365 DUP3 PUSH2 0x531 JUMP JUMPDEST SWAP1 POP PUSH1 0x5 DUP2 PUSH2 0x374 SWAP2 SWAP1 PUSH2 0x7DB JUMP JUMPDEST SWAP1 POP PUSH2 0x38B CALLER DUP3 DUP5 PUSH2 0x386 SWAP2 SWAP1 PUSH2 0x7DB JUMP JUMPDEST PUSH2 0x552 JUMP JUMPDEST DUP1 DUP3 PUSH2 0x397 SWAP2 SWAP1 PUSH2 0x7DB JUMP JUMPDEST PUSH1 0x1 PUSH0 DUP3 DUP3 SLOAD PUSH2 0x3A7 SWAP2 SWAP1 PUSH2 0x7DB JUMP JUMPDEST SWAP3 POP POP DUP2 SWAP1 SSTORE POP POP POP JUMP JUMPDEST DUP1 PUSH0 PUSH0 DUP5 PUSH20 0xFFFFFFFFFFFFFFFFFFFFFFFFFFFFFFFFFFFFFFFF AND PUSH20 0xFFFFFFFFFFFFFFFFFFFFFFFFFFFFFFFFFFFFFFFF AND DUP2 MSTORE PUSH1 0x20 ADD SWAP1 DUP2 MSTORE PUSH1 0x20 ADD PUSH0 KECCAK256 SLOAD LT ISZERO PUSH2 0x431 JUMPI PUSH1 0x40 MLOAD PUSH32 0x8C379A000000000000000000000000000000000000000000000000000000000 DUP2 MSTORE PUSH1 0x4 ADD PUSH2 0x428 SWAP1 PUSH2 0x89B JUMP JUMPDEST PUSH1 0x40 MLOAD DUP1 SWAP2 SUB SWAP1 REVERT JUMPDEST DUP1 PUSH0 PUSH0 DUP5 PUSH20 0xFFFFFFFFFFFFFFFFFFFFFFFFFFFFFFFFFFFFFFFF AND PUSH20 0xFFFFFFFFFFFFFFFFFFFFFFFFFFFFFFFFFFFFFFFF AND DUP2 MSTORE PUSH1 0x20 ADD SWAP1 DUP2 MSTORE PUSH1 0x20 ADD PUSH0 KECCAK256 PUSH0 DUP3 DUP3 SLOAD PUSH2 0x47C SWAP2 SWAP1 PUSH2 0x80E JUMP JUMPDEST SWAP3 POP POP DUP2 SWAP1 SSTORE POP POP POP JUMP JUMPDEST PUSH0 PUSH1 0x64 PUSH1 0x2 DUP4 PUSH2 0x497 SWAP2 SWAP1 PUSH2 0x8B9 JUMP JUMPDEST PUSH2 0x4A1 SWAP2 SWAP1 PUSH2 0x927 JUMP JUMPDEST SWAP1 POP SWAP2 SWAP1 POP JUMP JUMPDEST PUSH0 DUP2 GT PUSH2 0x4EA JUMPI PUSH1 0x40 MLOAD PUSH32 0x8C379A000000000000000000000000000000000000000000000000000000000 DUP2 MSTORE PUSH1 0x4 ADD PUSH2 0x4E1 SWAP1 PUSH2 0x9A1 JUMP JUMPDEST PUSH1 0x40 MLOAD DUP1 SWAP2 SUB SWAP1 REVERT JUMPDEST PUSH1 0x64 DUP2 GT ISZERO PUSH2 0x52E JUMPI PUSH1 0x40 MLOAD PUSH32 0x8C379A000000000000000000000000000000000000000000000000000000000 DUP2 MSTORE PUSH1 0x4 ADD PUSH2 0x525 SWAP1 PUSH2 0xA09 JUMP JUMPDEST PUSH1 0x40 MLOAD DUP1 SWAP2 SUB SWAP1 REVERT JUMPDEST POP JUMP JUMPDEST PUSH0 PUSH1 0x64 PUSH1 0xA DUP4 PUSH2 0x541 SWAP2 SWAP1 PUSH2 0x8B9 JUMP JUMPDEST PUSH2 0x54B SWAP2 SWAP1 PUSH2 0x927 JUMP JUMPDEST SWAP1 POP SWAP2 SWAP1 POP JUMP JUMPDEST DUP1 PUSH0 PUSH0 DUP5 PUSH20 0xFFFFFFFFFFFFFFFFFFFFFFFFFFFFFFFFFFFFFFFF AND PUSH20 0xFFFFFFFFFFFFFFFFFFFFFFFFFFFFFFFFFFFFFFFF AND DUP2 MSTORE PUSH1 0x20 ADD SWAP1 DUP2 MSTORE PUSH1 0x20 ADD PUSH0 KECCAK256 PUSH0 DUP3 DUP3 SLOAD PUSH2 0x59D SWAP2 SWAP1 PUSH2 0x7DB JUMP JUMPDEST SWAP3 POP POP DUP2 SWAP1 SSTORE POP POP POP JUMP JUMPDEST PUSH1 0x2 PUSH0 SWAP1 SLOAD SWAP1 PUSH2 0x100 EXP SWAP1 DIV PUSH20 0xFFFFFFFFFFFFFFFFFFFFFFFFFFFFFFFFFFFFFFFF AND PUSH20 0xFFFFFFFFFFFFFFFFFFFFFFFFFFFFFFFFFFFFFFFF AND CALLER PUSH20 0xFFFFFFFFFFFFFFFFFFFFFFFFFFFFFFFFFFFFFFFF AND EQ PUSH2 0x637 JUMPI PUSH1 0x40 MLOAD PUSH32 0x8C379A000000000000000000000000000000000000000000000000000000000 DUP2 MSTORE PUSH1 0x4 ADD PUSH2 0x62E SWAP1 PUSH2 0xA71 JUMP JUMPDEST PUSH1 0x40 MLOAD DUP1 SWAP2 SUB SWAP1 REVERT JUMPDEST JUMP JUMPDEST PUSH0 PUSH0 REVERT JUMPDEST PUSH0 PUSH20 0xFFFFFFFFFFFFFFFFFFFFFFFFFFFFFFFFFFFFFFFF DUP3 AND SWAP1 POP SWAP2 SWAP1 POP JUMP JUMPDEST PUSH0 PUSH2 0x666 DUP3 PUSH2 0x63D JUMP JUMPDEST SWAP1 POP SWAP2 SWAP1 POP JUMP JUMPDEST PUSH2 0x676 DUP2 PUSH2 0x65C JUMP JUMPDEST DUP2 EQ PUSH2 0x680 JUMPI PUSH0 PUSH0 REVERT JUMPDEST POP JUMP JUMPDEST PUSH0 DUP2 CALLDATALOAD SWAP1 POP PUSH2 0x691 DUP2 PUSH2 0x66D JUMP JUMPDEST SWAP3 SWAP2 POP POP JUMP JUMPDEST PUSH0 PUSH1 0x20 DUP3 DUP5 SUB SLT ISZERO PUSH2 0x6AC JUMPI PUSH2 0x6AB PUSH2 0x639 JUMP JUMPDEST JUMPDEST PUSH0 PUSH2 0x6B9 DUP5 DUP3 DUP6 ADD PUSH2 0x683 JUMP JUMPDEST SWAP2 POP POP SWAP3 SWAP2 POP POP JUMP JUMPDEST PUSH0 DUP2 SWAP1 POP SWAP2 SWAP1 POP JUMP JUMPDEST PUSH2 0x6D4 DUP2 PUSH2 0x6C2 JUMP JUMPDEST DUP3 MSTORE POP POP JUMP JUMPDEST PUSH0 PUSH1 0x20 DUP3 ADD SWAP1 POP PUSH2 0x6ED PUSH0 DUP4 ADD DUP5 PUSH2 0x6CB JUMP JUMPDEST SWAP3 SWAP2 POP POP JUMP JUMPDEST PUSH2 0x6FC DUP2 PUSH2 0x6C2 JUMP JUMPDEST DUP2 EQ PUSH2 0x706 JUMPI PUSH0 PUSH0 REVERT JUMPDEST POP JUMP JUMPDEST PUSH0 DUP2 CALLDATALOAD SWAP1 POP PUSH2 0x717 DUP2 PUSH2 0x6F3 JUMP JUMPDEST SWAP3 SWAP2 POP POP JUMP JUMPDEST PUSH0 PUSH1 0x20 DUP3 DUP5 SUB SLT ISZERO PUSH2 0x732 JUMPI PUSH2 0x731 PUSH2 0x639 JUMP JUMPDEST JUMPDEST PUSH0 PUSH2 0x73F DUP5 DUP3 DUP6 ADD PUSH2 0x709 JUMP JUMPDEST SWAP2 POP POP SWAP3 SWAP2 POP POP JUMP JUMPDEST PUSH2 0x751 DUP2 PUSH2 0x65C JUMP JUMPDEST DUP3 MSTORE POP POP JUMP JUMPDEST PUSH0 PUSH1 0x20 DUP3 ADD SWAP1 POP PUSH2 0x76A PUSH0 DUP4 ADD DUP5 PUSH2 0x748 JUMP JUMPDEST SWAP3 SWAP2 POP POP JUMP JUMPDEST PUSH0 PUSH0 PUSH1 0x40 DUP4 DUP6 SUB SLT ISZERO PUSH2 0x786 JUMPI PUSH2 0x785 PUSH2 0x639 JUMP JUMPDEST JUMPDEST PUSH0 PUSH2 0x793 DUP6 DUP3 DUP7 ADD PUSH2 0x683 JUMP JUMPDEST SWAP3 POP POP PUSH1 0x20 PUSH2 0x7A4 DUP6 DUP3 DUP7 ADD PUSH2 0x709 JUMP JUMPDEST SWAP2 POP POP SWAP3 POP SWAP3 SWAP1 POP JUMP JUMPDEST PUSH32 0x4E487B7100000000000000000000000000000000000000000000000000000000 PUSH0 MSTORE PUSH1 0x11 PUSH1 0x4 MSTORE PUSH1 0x24 PUSH0 REVERT JUMPDEST PUSH0 PUSH2 0x7E5 DUP3 PUSH2 0x6C2 JUMP JUMPDEST SWAP2 POP PUSH2 0x7F0 DUP4 PUSH2 0x6C2 JUMP JUMPDEST SWAP3 POP DUP3 DUP3 ADD SWAP1 POP DUP1 DUP3 GT ISZERO PUSH2 0x808 JUMPI PUSH2 0x807 PUSH2 0x7AE JUMP JUMPDEST JUMPDEST SWAP3 SWAP2 POP POP JUMP JUMPDEST PUSH0 PUSH2 0x818 DUP3 PUSH2 0x6C2 JUMP JUMPDEST SWAP2 POP PUSH2 0x823 DUP4 PUSH2 0x6C2 JUMP JUMPDEST SWAP3 POP DUP3 DUP3 SUB SWAP1 POP DUP2 DUP2 GT ISZERO PUSH2 0x83B JUMPI PUSH2 0x83A PUSH2 0x7AE JUMP JUMPDEST JUMPDEST SWAP3 SWAP2 POP POP JUMP JUMPDEST PUSH0 DUP3 DUP3 MSTORE PUSH1 0x20 DUP3 ADD SWAP1 POP SWAP3 SWAP2 POP POP JUMP JUMPDEST PUSH32 0x496E73756666696369656E742062616C616E6365000000000000000000000000 PUSH0 DUP3 ADD MSTORE POP JUMP JUMPDEST PUSH0 PUSH2 0x885 PUSH1 0x14 DUP4 PUSH2 0x841 JUMP JUMPDEST SWAP2 POP PUSH2 0x890 DUP3 PUSH2 0x851 JUMP JUMPDEST PUSH1 0x20 DUP3 ADD SWAP1 POP SWAP2 SWAP1 POP JUMP JUMPDEST PUSH0 PUSH1 0x20 DUP3 ADD SWAP1 POP DUP2 DUP2 SUB PUSH0 DUP4 ADD MSTORE PUSH2 0x8B2 DUP2 PUSH2 0x879 JUMP JUMPDEST SWAP1 POP SWAP2 SWAP1 POP JUMP JUMPDEST PUSH0 PUSH2 0x8C3 DUP3 PUSH2 0x6C2 JUMP JUMPDEST SWAP2 POP PUSH2 0x8CE DUP4 PUSH2 0x6C2 JUMP JUMPDEST SWAP3 POP DUP3 DUP3 MUL PUSH2 0x8DC DUP2 PUSH2 0x6C2 JUMP JUMPDEST SWAP2 POP DUP3 DUP3 DIV DUP5 EQ DUP4 ISZERO OR PUSH2 0x8F3 JUMPI PUSH2 0x8F2 PUSH2 0x7AE JUMP JUMPDEST JUMPDEST POP SWAP3 SWAP2 POP POP JUMP JUMPDEST PUSH32 0x4E487B7100000000000000000000000000000000000000000000000000000000 PUSH0 MSTORE PUSH1 0x12 PUSH1 0x4 MSTORE PUSH1 0x24 PUSH0 REVERT JUMPDEST PUSH0 PUSH2 0x931 DUP3 PUSH2 0x6C2 JUMP JUMPDEST SWAP2 POP PUSH2 0x93C DUP4 PUSH2 0x6C2 JUMP JUMPDEST SWAP3 POP DUP3 PUSH2 0x94C JUMPI PUSH2 0x94B PUSH2 0x8FA JUMP JUMPDEST JUMPDEST DUP3 DUP3 DIV SWAP1 POP SWAP3 SWAP2 POP POP JUMP JUMPDEST PUSH32 0x416D6F756E74206D757374206265203E20300000000000000000000000000000 PUSH0 DUP3 ADD MSTORE POP JUMP JUMPDEST PUSH0 PUSH2 0x98B PUSH1 0x12 DUP4 PUSH2 0x841 JUMP JUMPDEST SWAP2 POP PUSH2 0x996 DUP3 PUSH2 0x957 JUMP JUMPDEST PUSH1 0x20 DUP3 ADD SWAP1 POP SWAP2 SWAP1 POP JUMP JUMPDEST PUSH0 PUSH1 0x20 DUP3 ADD SWAP1 POP DUP2 DUP2 SUB PUSH0 DUP4 ADD MSTORE PUSH2 0x9B8 DUP2 PUSH2 0x97F JUMP JUMPDEST SWAP1 POP SWAP2 SWAP1 POP JUMP JUMPDEST PUSH32 0x416D6F756E7420746F6F206C6172676500000000000000000000000000000000 PUSH0 DUP3 ADD MSTORE POP JUMP JUMPDEST PUSH0 PUSH2 0x9F3 PUSH1 0x10 DUP4 PUSH2 0x841 JUMP JUMPDEST SWAP2 POP PUSH2 0x9FE DUP3 PUSH2 0x9BF JUMP JUMPDEST PUSH1 0x20 DUP3 ADD SWAP1 POP SWAP2 SWAP1 POP JUMP JUMPDEST PUSH0 PUSH1 0x20 DUP3 ADD SWAP1 POP DUP2 DUP2 SUB PUSH0 DUP4 ADD MSTORE PUSH2 0xA20 DUP2 PUSH2 0x9E7 JUMP JUMPDEST SWAP1 POP SWAP2 SWAP1 POP JUMP JUMPDEST PUSH32 0x4E6F74206F776E65720000000000000000000000000000000000000000000000 PUSH0 DUP3 ADD MSTORE POP JUMP JUMPDEST PUSH0 PUSH2 0xA5B PUSH1 0x9 DUP4 PUSH2 0x841 JUMP JUMPDEST SWAP2 POP PUSH2 0xA66 DUP3 PUSH2 0xA27 JUMP JUMPDEST PUSH1 0x20 DUP3 ADD SWAP1 POP SWAP2 SWAP1 POP JUMP JUMPDEST PUSH0 PUSH1 0x20 DUP3 ADD SWAP1 POP DUP2 DUP2 SUB PUSH0 DUP4 ADD MSTORE PUSH2 0xA88 DUP2 PUSH2 0xA4F JUMP JUMPDEST SWAP1 POP SWAP2 SWAP1 POP JUMP INVALID LOG2 PUSH5 0x6970667358 0x22 SLT KECCAK256 0xBE 0xBA DUP3 SELFDESTRUCT 0xD6 0xD7 PUSH27 0x39C3DA35D22E838565D56C41F4C2BD6413836D7743A7CE681F6473 PUSH16 0x6C634300082200330000000000000000 "
				},
				"gasEstimates": {
					"creation": {
						"codeDepositCost": "551400",
						"executionCost": "24850",
						"totalCost": "576250"
					},
					"external": {
						"adminRemoveFunds(address,uint256)": "infinite",
						"balances(address)": "2802",
						"calculatePremiumFee(uint256)": "infinite",
						"deposit(uint256)": "infinite",
						"depositWithBonus(uint256)": "infinite",
						"owner()": "2530",
						"premiumDeposit(uint256)": "infinite",
						"resetUserBalance(address)": "7742",
						"totalDeposits()": "2514",
						"withdraw(uint256)": "infinite"
					}
				},
				"methodIdentifiers": {
					"adminRemoveFunds(address,uint256)": "99704ad8",
					"balances(address)": "27e235e3",
					"calculatePremiumFee(uint256)": "3ce742bb",
					"deposit(uint256)": "b6b55f25",
					"depositWithBonus(uint256)": "2f7c9ed6",
					"owner()": "8da5cb5b",
					"premiumDeposit(uint256)": "e8ad8ece",
					"resetUserBalance(address)": "8517386a",
					"totalDeposits()": "7d882097",
					"withdraw(uint256)": "2e1a7d4d"
				}
			},
			"storageLayout": {
				"storage": [
					{
						"astId": 112,
						"contract": "val42.sol:PremiumVault",
						"label": "balances",
						"offset": 0,
						"slot": "0",
						"type": "t_mapping(t_address,t_uint256)"
					},
					{
						"astId": 114,
						"contract": "val42.sol:PremiumVault",
						"label": "totalDeposits",
						"offset": 0,
						"slot": "1",
						"type": "t_uint256"
					},
					{
						"astId": 116,
						"contract": "val42.sol:PremiumVault",
						"label": "owner",
						"offset": 0,
						"slot": "2",
						"type": "t_address"
					}
				],
				"types": {
					"t_address": {
						"encoding": "inplace",
						"label": "address",
						"numberOfBytes": "20"
					},
					"t_mapping(t_address,t_uint256)": {
						"encoding": "mapping",
						"key": "t_address",
						"label": "mapping(address => uint256)",
						"numberOfBytes": "32",
						"value": "t_uint256"
					},
					"t_uint256": {
						"encoding": "inplace",
						"label": "uint256",
						"numberOfBytes": "32"
					}
				}
			},
			"userdoc": {
				"kind": "user",
				"methods": {},
				"version": 1
			}
		}
	}
}