{
	"val61.sol": {
		"SafeCallHandler": {
			"abi": [
				{
					"anonymous": false,
					"inputs": [
						{
							"indexed": false,
							"internalType": "string",
							"name": "reason",
							"type": "string"
						}
					],
					"name": "FailureReason",
					"type": "event"
				},
				{
					"anonymous": false,
					"inputs": [
						{
							"indexed": false,
							"internalType": "bool",
							"name": "success",
							"type": "bool"
						},
						{
							"indexed": false,
							"internalType": "bytes",
							"name": "data",
							"type": "bytes"
						}
					],
					"name": "FunctionCallResult",
					"type": "event"
				},
				{
					"anonymous": false,
					"inputs": [
						{
							"indexed": false,
							"internalType": "string",
							"name": "reason",
							"type": "string"
						}
					],
					"name": "TryCatchFailure",
					"type": "event"
				},
				{
					"anonymous": false,
					"inputs": [
						{
							"indexed": false,
							"internalType": "string",
							"name": "message",
							"type": "string"
						}
					],
					"name": "TryCatchSuccess",
					"type": "event"
				},
				{
					"inputs": [],
					"name": "executionCounter",
					"outputs": [
						{
							"internalType": "uint256",
							"name": "",
							"type": "uint256"
						}
					],
					"stateMutability": "view",
					"type": "function"
				},
				{
					"inputs": [],
					"name": "lastData",
					"outputs": [
						{
							"internalType": "bytes",
							"name": "",
							"type": "bytes"
						}
					],
					"stateMutability": "view",
					"type": "function"
				},
				{
					"inputs": [],
					"name": "lastReverReason",
					"outputs": [
						{
							"internalType": "string",
							"name": "",
							"type": "string"
						}
					],
					"stateMutability": "view",
					"type": "function"
				},
				{
					"inputs": [],
					"name": "lastSuccess",
					"outputs": [
						{
							"internalType": "bool",
							"name": "",
							"type": "bool"
						}
					],
					"stateMutability": "view",
					"type": "function"
				},
				{
					"inputs": [
						{
							"internalType": "address payable",
							"name": "_target",
							"type": "address"
						}
					],
					"name": "safeETHTransfer",
					"outputs": [],
					"stateMutability": "payable",
					"type": "function"
				},
				{
					"inputs": [
						{
							"internalType": "address",
							"name": "_target",
							"type": "address"
						}
					],
					"name": "safeFailingCall",
					"outputs": [],
					"stateMutability": "nonpayable",
					"type": "function"
				},
				{
					"inputs": [
						{
							"internalType": "address",
							"name": "_target",
							"type": "address"
						}
					],
					"name": "safeFunctionCall",
					"outputs": [],
					"stateMutability": "nonpayable",
					"type": "function"
				},
				{
					"inputs": [
						{
							"internalType": "address",
							"name": "_target",
							"type": "address"
						}
					],
					"name": "tryCatchExample",
					"outputs": [],
					"stateMutability": "nonpayable",
					"type": "function"
				}
			],
			"devdoc": {
				"kind": "dev",
				"methods": {},
				"version": 1
			},
			"evm": {
				"assembly": "    /* \"val61.sol\":19190:24031  contract SafeCallHandler {... */\n  mstore(0x40, 0x80)\n  callvalue\n  dup1\n  iszero\n  tag_1\n  jumpi\n  revert(0x00, 0x00)\ntag_1:\n  pop\n  dataSize(sub_0)\n  dup1\n  dataOffset(sub_0)\n  0x00\n  codecopy\n  0x00\n  return\nstop\n\nsub_0: assembly {\n        /* \"val61.sol\":19190:24031  contract SafeCallHandler {... */\n      mstore(0x40, 0x80)\n      jumpi(tag_1, lt(calldatasize, 0x04))\n      shr(0xe0, calldataload(0x00))\n      dup1\n      0x9415bc59\n      gt\n      tag_10\n      jumpi\n      dup1\n      0x9415bc59\n      eq\n      tag_6\n      jumpi\n      dup1\n      0xc6a50809\n      eq\n      tag_7\n      jumpi\n      dup1\n      0xc816f038\n      eq\n      tag_8\n      jumpi\n      dup1\n      0xecf1f235\n      eq\n      tag_9\n      jumpi\n      jump(tag_1)\n    tag_10:\n      dup1\n      0x6e75ec\n      eq\n      tag_2\n      jumpi\n      dup1\n      0x2d6142a7\n      eq\n      tag_3\n      jumpi\n      dup1\n      0x540208ba\n      eq\n      tag_4\n      jumpi\n      dup1\n      0x816b9ae0\n      eq\n      tag_5\n      jumpi\n    tag_1:\n      revert(0x00, 0x00)\n        /* \"val61.sol\":19295:19316  bytes public lastData */\n    tag_2:\n      callvalue\n      dup1\n      iszero\n      tag_11\n      jumpi\n      revert(0x00, 0x00)\n    tag_11:\n      pop\n      tag_12\n      tag_13\n      jump\t// in\n    tag_12:\n      mload(0x40)\n      tag_14\n      swap2\n      swap1\n      tag_15\n      jump\t// in\n    tag_14:\n      mload(0x40)\n      dup1\n      swap2\n      sub\n      swap1\n      return\n        /* \"val61.sol\":21097:22009  function safeFailingCall(... */\n    tag_3:\n      callvalue\n      dup1\n      iszero\n      tag_16\n      jumpi\n      revert(0x00, 0x00)\n    tag_16:\n      pop\n      tag_17\n      0x04\n      dup1\n      calldatasize\n      sub\n      dup2\n      add\n      swap1\n      tag_18\n      swap2\n      swap1\n      tag_19\n      jump\t// in\n    tag_18:\n      tag_20\n      jump\t// in\n    tag_17:\n      stop\n        /* \"val61.sol\":22176:22967  function safeETHTransfer(... */\n    tag_4:\n      tag_21\n      0x04\n      dup1\n      calldatasize\n      sub\n      dup2\n      add\n      swap1\n      tag_22\n      swap2\n      swap1\n      tag_23\n      jump\t// in\n    tag_22:\n      tag_24\n      jump\t// in\n    tag_21:\n      stop\n        /* \"val61.sol\":19771:20930  function safeFunctionCall(... */\n    tag_5:\n      callvalue\n      dup1\n      iszero\n      tag_25\n      jumpi\n      revert(0x00, 0x00)\n    tag_25:\n      pop\n      tag_26\n      0x04\n      dup1\n      calldatasize\n      sub\n      dup2\n      add\n      swap1\n      tag_27\n      swap2\n      swap1\n      tag_19\n      jump\t// in\n    tag_27:\n      tag_28\n      jump\t// in\n    tag_26:\n      stop\n        /* \"val61.sol\":19263:19286  bool public lastSuccess */\n    tag_6:\n      callvalue\n      dup1\n      iszero\n      tag_29\n      jumpi\n      revert(0x00, 0x00)\n    tag_29:\n      pop\n      tag_30\n      tag_31\n      jump\t// in\n    tag_30:\n      mload(0x40)\n      tag_32\n      swap2\n      swap1\n      tag_33\n      jump\t// in\n    tag_32:\n      mload(0x40)\n      dup1\n      swap2\n      sub\n      swap1\n      return\n        /* \"val61.sol\":19325:19356  uint256 public executionCounter */\n    tag_7:\n      callvalue\n      dup1\n      iszero\n      tag_34\n      jumpi\n      revert(0x00, 0x00)\n    tag_34:\n      pop\n      tag_35\n      tag_36\n      jump\t// in\n    tag_35:\n      mload(0x40)\n      tag_37\n      swap2\n      swap1\n      tag_38\n      jump\t// in\n    tag_37:\n      mload(0x40)\n      dup1\n      swap2\n      sub\n      swap1\n      return\n        /* \"val61.sol\":23001:23615  function tryCatchExample(address _target) external ... */\n    tag_8:\n      callvalue\n      dup1\n      iszero\n      tag_39\n      jumpi\n      revert(0x00, 0x00)\n    tag_39:\n      pop\n      tag_40\n      0x04\n      dup1\n      calldatasize\n      sub\n      dup2\n      add\n      swap1\n      tag_41\n      swap2\n      swap1\n      tag_19\n      jump\t// in\n    tag_41:\n      tag_42\n      jump\t// in\n    tag_40:\n      stop\n        /* \"val61.sol\":19365:19394  string public lastReverReason */\n    tag_9:\n      callvalue\n      dup1\n      iszero\n      tag_43\n      jumpi\n      revert(0x00, 0x00)\n    tag_43:\n      pop\n      tag_44\n      tag_45\n      jump\t// in\n    tag_44:\n      mload(0x40)\n      tag_46\n      swap2\n      swap1\n      tag_47\n      jump\t// in\n    tag_46:\n      mload(0x40)\n      dup1\n      swap2\n      sub\n      swap1\n      return\n        /* \"val61.sol\":19295:19316  bytes public lastData */\n    tag_13:\n      0x01\n      dup1\n      sload\n      tag_48\n      swap1\n      tag_49\n      jump\t// in\n    tag_48:\n      dup1\n      0x1f\n      add\n      0x20\n      dup1\n      swap2\n      div\n      mul\n      0x20\n      add\n      mload(0x40)\n      swap1\n      dup2\n      add\n      0x40\n      mstore\n      dup1\n      swap3\n      swap2\n      swap1\n      dup2\n      dup2\n      mstore\n      0x20\n      add\n      dup3\n      dup1\n      sload\n      tag_50\n      swap1\n      tag_49\n      jump\t// in\n    tag_50:\n      dup1\n      iszero\n      tag_51\n      jumpi\n      dup1\n      0x1f\n      lt\n      tag_52\n      jumpi\n      0x0100\n      dup1\n      dup4\n      sload\n      div\n      mul\n      dup4\n      mstore\n      swap2\n      0x20\n      add\n      swap2\n      jump(tag_51)\n    tag_52:\n      dup3\n      add\n      swap2\n      swap1\n      0x00\n      mstore\n      keccak256(0x00, 0x20)\n      swap1\n    tag_53:\n      dup2\n      sload\n      dup2\n      mstore\n      swap1\n      0x01\n      add\n      swap1\n      0x20\n      add\n      dup1\n      dup4\n      gt\n      tag_53\n      jumpi\n      dup3\n      swap1\n      sub\n      0x1f\n      and\n      dup3\n      add\n      swap2\n    tag_51:\n      pop\n      pop\n      pop\n      pop\n      pop\n      dup2\n      jump\t// out\n        /* \"val61.sol\":21097:22009  function safeFailingCall(... */\n    tag_20:\n        /* \"val61.sol\":21248:21264  executionCounter */\n      0x02\n      0x00\n        /* \"val61.sol\":21248:21266  executionCounter++ */\n      dup2\n      sload\n      dup1\n      swap3\n      swap2\n      swap1\n      tag_55\n      swap1\n      tag_56\n      jump\t// in\n    tag_55:\n      swap2\n      swap1\n      pop\n      sstore\n      pop\n        /* \"val61.sol\":21343:21355  bool success */\n      0x00\n        /* \"val61.sol\":21357:21374  bytes memory data */\n      0x00\n        /* \"val61.sol\":21391:21398  _target */\n      dup3\n        /* \"val61.sol\":21391:21403  _target.call */\n      0xffffffffffffffffffffffffffffffffffffffff\n      and\n        /* \"val61.sol\":21422:21503  abi.encodeWithSignature(... */\n      add(0x24, mload(0x40))\n      mload(0x40)\n      0x20\n      dup2\n      dup4\n      sub\n      sub\n      dup2\n      mstore\n      swap1\n      0x40\n      mstore\n      and(not(0xffffffffffffffffffffffffffffffffffffffffffffffffffffffff), 0xca463e1900000000000000000000000000000000000000000000000000000000)\n      0x20\n      dup3\n      add\n      dup1\n      mload\n      0xffffffffffffffffffffffffffffffffffffffffffffffffffffffff\n      dup4\n      dup2\n      dup4\n      and\n      or\n      dup4\n      mstore\n      pop\n      pop\n      pop\n      pop\n        /* \"val61.sol\":21391:21518  _target.call(... */\n      mload(0x40)\n      tag_57\n      swap2\n      swap1\n      tag_58\n      jump\t// in\n    tag_57:\n      0x00\n      mload(0x40)\n      dup1\n      dup4\n      sub\n      dup2\n      0x00\n      dup7\n      gas\n      call\n      swap2\n      pop\n      pop\n      returndatasize\n      dup1\n      0x00\n      dup2\n      eq\n      tag_61\n      jumpi\n      mload(0x40)\n      swap2\n      pop\n      and(add(returndatasize, 0x3f), not(0x1f))\n      dup3\n      add\n      0x40\n      mstore\n      returndatasize\n      dup3\n      mstore\n      returndatasize\n      0x00\n      0x20\n      dup5\n      add\n      returndatacopy\n      jump(tag_60)\n    tag_61:\n      0x60\n      swap2\n      pop\n    tag_60:\n      pop\n        /* \"val61.sol\":21342:21518  (bool success, bytes memory data) =... */\n      swap2\n      pop\n      swap2\n      pop\n        /* \"val61.sol\":21596:21603  success */\n      dup2\n        /* \"val61.sol\":21582:21593  lastSuccess */\n      0x00\n      0x00\n        /* \"val61.sol\":21582:21603  lastSuccess = success */\n      0x0100\n      exp\n      dup2\n      sload\n      dup2\n      0xff\n      mul\n      not\n      and\n      swap1\n      dup4\n      iszero\n      iszero\n      mul\n      or\n      swap1\n      sstore\n      pop\n        /* \"val61.sol\":21627:21631  data */\n      dup1\n        /* \"val61.sol\":21616:21624  lastData */\n      0x01\n        /* \"val61.sol\":21616:21631  lastData = data */\n      swap1\n      dup2\n      tag_62\n      swap2\n      swap1\n      tag_63\n      jump\t// in\n    tag_62:\n      pop\n        /* \"val61.sol\":21649:21682  FunctionCallResult(success, data) */\n      0xeeb23850e36427632d80bfcaa20368ec836180508a26111cbe67d882b84908e6\n        /* \"val61.sol\":21668:21675  success */\n      dup3\n        /* \"val61.sol\":21677:21681  data */\n      dup3\n        /* \"val61.sol\":21649:21682  FunctionCallResult(success, data) */\n      mload(0x40)\n      tag_64\n      swap3\n      swap2\n      swap1\n      tag_65\n      jump\t// in\n    tag_64:\n      mload(0x40)\n      dup1\n      swap2\n      sub\n      swap1\n      log1\n        /* \"val61.sol\":21733:21740  success */\n      dup2\n        /* \"val61.sol\":21729:21910  if(!success)... */\n      tag_66\n      jumpi\n        /* \"val61.sol\":21766:21786  string memory reason */\n      0x00\n        /* \"val61.sol\":21789:21814  decodeRevertMessage(data) */\n      tag_67\n        /* \"val61.sol\":21809:21813  data */\n      dup3\n        /* \"val61.sol\":21789:21808  decodeRevertMessage */\n      tag_68\n        /* \"val61.sol\":21789:21814  decodeRevertMessage(data) */\n      jump\t// in\n    tag_67:\n        /* \"val61.sol\":21766:21814  string memory reason = decodeRevertMessage(data) */\n      swap1\n      pop\n        /* \"val61.sol\":21849:21855  reason */\n      dup1\n        /* \"val61.sol\":21831:21846  lastReverReason */\n      0x03\n        /* \"val61.sol\":21831:21855  lastReverReason = reason */\n      swap1\n      dup2\n      tag_69\n      swap2\n      swap1\n      tag_70\n      jump\t// in\n    tag_69:\n      pop\n        /* \"val61.sol\":21877:21898  FailureReason(reason) */\n      0x2c2105af88a70411f362c5ff0a4a256c01ded21bfed74377e704f64d3a052611\n        /* \"val61.sol\":21891:21897  reason */\n      dup2\n        /* \"val61.sol\":21877:21898  FailureReason(reason) */\n      mload(0x40)\n      tag_71\n      swap2\n      swap1\n      tag_47\n      jump\t// in\n    tag_71:\n      mload(0x40)\n      dup1\n      swap2\n      sub\n      swap1\n      log1\n        /* \"val61.sol\":21751:21910  {... */\n      pop\n        /* \"val61.sol\":21729:21910  if(!success)... */\n    tag_66:\n        /* \"val61.sol\":21944:21951  success */\n      dup2\n        /* \"val61.sol\":21922:22001  require(... */\n      tag_72\n      jumpi\n      mload(0x40)\n      0x08c379a000000000000000000000000000000000000000000000000000000000\n      dup2\n      mstore\n      0x04\n      add\n      tag_73\n      swap1\n      tag_74\n      jump\t// in\n    tag_73:\n      mload(0x40)\n      dup1\n      swap2\n      sub\n      swap1\n      revert\n    tag_72:\n        /* \"val61.sol\":21178:22009  {... */\n      pop\n      pop\n        /* \"val61.sol\":21097:22009  function safeFailingCall(... */\n      pop\n      jump\t// out\n        /* \"val61.sol\":22176:22967  function safeETHTransfer(... */\n    tag_24:\n        /* \"val61.sol\":22355:22367  bool success */\n      0x00\n        /* \"val61.sol\":22369:22386  bytes memory data */\n      0x00\n        /* \"val61.sol\":22403:22410  _target */\n      dup3\n        /* \"val61.sol\":22403:22415  _target.call */\n      0xffffffffffffffffffffffffffffffffffffffff\n      and\n        /* \"val61.sol\":22441:22450  msg.value */\n      callvalue\n        /* \"val61.sol\":22403:22469  _target.call{... */\n      mload(0x40)\n      tag_76\n      swap1\n      tag_77\n      jump\t// in\n    tag_76:\n      0x00\n      mload(0x40)\n      dup1\n      dup4\n      sub\n      dup2\n      dup6\n      dup8\n      gas\n      call\n      swap3\n      pop\n      pop\n      pop\n      returndatasize\n      dup1\n      0x00\n      dup2\n      eq\n      tag_80\n      jumpi\n      mload(0x40)\n      swap2\n      pop\n      and(add(returndatasize, 0x3f), not(0x1f))\n      dup3\n      add\n      0x40\n      mstore\n      returndatasize\n      dup3\n      mstore\n      returndatasize\n      0x00\n      0x20\n      dup5\n      add\n      returndatacopy\n      jump(tag_79)\n    tag_80:\n      0x60\n      swap2\n      pop\n    tag_79:\n      pop\n        /* \"val61.sol\":22354:22469  (bool success, bytes memory data) =... */\n      swap2\n      pop\n      swap2\n      pop\n        /* \"val61.sol\":22548:22555  success */\n      dup2\n        /* \"val61.sol\":22534:22545  lastSuccess */\n      0x00\n      0x00\n        /* \"val61.sol\":22534:22555  lastSuccess = success */\n      0x0100\n      exp\n      dup2\n      sload\n      dup2\n      0xff\n      mul\n      not\n      and\n      swap1\n      dup4\n      iszero\n      iszero\n      mul\n      or\n      swap1\n      sstore\n      pop\n        /* \"val61.sol\":22579:22583  data */\n      dup1\n        /* \"val61.sol\":22568:22576  lastData */\n      0x01\n        /* \"val61.sol\":22568:22583  lastData = data */\n      swap1\n      dup2\n      tag_81\n      swap2\n      swap1\n      tag_63\n      jump\t// in\n    tag_81:\n      pop\n        /* \"val61.sol\":22601:22634  FunctionCallResult(success, data) */\n      0xeeb23850e36427632d80bfcaa20368ec836180508a26111cbe67d882b84908e6\n        /* \"val61.sol\":22620:22627  success */\n      dup3\n        /* \"val61.sol\":22629:22633  data */\n      dup3\n        /* \"val61.sol\":22601:22634  FunctionCallResult(success, data) */\n      mload(0x40)\n      tag_82\n      swap3\n      swap2\n      swap1\n      tag_65\n      jump\t// in\n    tag_82:\n      mload(0x40)\n      dup1\n      swap2\n      sub\n      swap1\n      log1\n        /* \"val61.sol\":22684:22691  success */\n      dup2\n        /* \"val61.sol\":22680:22861  if(!success)... */\n      tag_83\n      jumpi\n        /* \"val61.sol\":22717:22737  string memory reason */\n      0x00\n        /* \"val61.sol\":22740:22765  decodeRevertMessage(data) */\n      tag_84\n        /* \"val61.sol\":22760:22764  data */\n      dup3\n        /* \"val61.sol\":22740:22759  decodeRevertMessage */\n      tag_68\n        /* \"val61.sol\":22740:22765  decodeRevertMessage(data) */\n      jump\t// in\n    tag_84:\n        /* \"val61.sol\":22717:22765  string memory reason = decodeRevertMessage(data) */\n      swap1\n      pop\n        /* \"val61.sol\":22800:22806  reason */\n      dup1\n        /* \"val61.sol\":22782:22797  lastReverReason */\n      0x03\n        /* \"val61.sol\":22782:22806  lastReverReason = reason */\n      swap1\n      dup2\n      tag_85\n      swap2\n      swap1\n      tag_70\n      jump\t// in\n    tag_85:\n      pop\n        /* \"val61.sol\":22828:22849  FailureReason(reason) */\n      0x2c2105af88a70411f362c5ff0a4a256c01ded21bfed74377e704f64d3a052611\n        /* \"val61.sol\":22842:22848  reason */\n      dup2\n        /* \"val61.sol\":22828:22849  FailureReason(reason) */\n      mload(0x40)\n      tag_86\n      swap2\n      swap1\n      tag_47\n      jump\t// in\n    tag_86:\n      mload(0x40)\n      dup1\n      swap2\n      sub\n      swap1\n      log1\n        /* \"val61.sol\":22702:22861  {... */\n      pop\n        /* \"val61.sol\":22680:22861  if(!success)... */\n    tag_83:\n        /* \"val61.sol\":22905:22912  success */\n      dup2\n        /* \"val61.sol\":22883:22959  require(... */\n      tag_87\n      jumpi\n      mload(0x40)\n      0x08c379a000000000000000000000000000000000000000000000000000000000\n      dup2\n      mstore\n      0x04\n      add\n      tag_88\n      swap1\n      tag_89\n      jump\t// in\n    tag_88:\n      mload(0x40)\n      dup1\n      swap2\n      sub\n      swap1\n      revert\n    tag_87:\n        /* \"val61.sol\":22282:22967  {... */\n      pop\n      pop\n        /* \"val61.sol\":22176:22967  function safeETHTransfer(... */\n      pop\n      jump\t// out\n        /* \"val61.sol\":19771:20930  function safeFunctionCall(... */\n    tag_28:\n        /* \"val61.sol\":19923:19939  executionCounter */\n      0x02\n      0x00\n        /* \"val61.sol\":19923:19941  executionCounter++ */\n      dup2\n      sload\n      dup1\n      swap3\n      swap2\n      swap1\n      tag_91\n      swap1\n      tag_56\n      jump\t// in\n    tag_91:\n      swap2\n      swap1\n      pop\n      sstore\n      pop\n        /* \"val61.sol\":20017:20029  bool success */\n      0x00\n        /* \"val61.sol\":20031:20048  bytes memory data */\n      0x00\n        /* \"val61.sol\":20065:20072  _target */\n      dup3\n        /* \"val61.sol\":20065:20077  _target.call */\n      0xffffffffffffffffffffffffffffffffffffffff\n      and\n        /* \"val61.sol\":20096:20180  abi.encodeWithSignature(... */\n      add(0x24, mload(0x40))\n      mload(0x40)\n      0x20\n      dup2\n      dup4\n      sub\n      sub\n      dup2\n      mstore\n      swap1\n      0x40\n      mstore\n      and(not(0xffffffffffffffffffffffffffffffffffffffffffffffffffffffff), 0x671bd39d00000000000000000000000000000000000000000000000000000000)\n      0x20\n      dup3\n      add\n      dup1\n      mload\n      0xffffffffffffffffffffffffffffffffffffffffffffffffffffffff\n      dup4\n      dup2\n      dup4\n      and\n      or\n      dup4\n      mstore\n      pop\n      pop\n      pop\n      pop\n        /* \"val61.sol\":20065:20195  _target.call(... */\n      mload(0x40)\n      tag_92\n      swap2\n      swap1\n      tag_58\n      jump\t// in\n    tag_92:\n      0x00\n      mload(0x40)\n      dup1\n      dup4\n      sub\n      dup2\n      0x00\n      dup7\n      gas\n      call\n      swap2\n      pop\n      pop\n      returndatasize\n      dup1\n      0x00\n      dup2\n      eq\n      tag_95\n      jumpi\n      mload(0x40)\n      swap2\n      pop\n      and(add(returndatasize, 0x3f), not(0x1f))\n      dup3\n      add\n      0x40\n      mstore\n      returndatasize\n      dup3\n      mstore\n      returndatasize\n      0x00\n      0x20\n      dup5\n      add\n      returndatacopy\n      jump(tag_94)\n    tag_95:\n      0x60\n      swap2\n      pop\n    tag_94:\n      pop\n        /* \"val61.sol\":20016:20195  (bool success, bytes memory data) =... */\n      swap2\n      pop\n      swap2\n      pop\n        /* \"val61.sol\":20274:20281  success */\n      dup2\n        /* \"val61.sol\":20260:20271  lastSuccess */\n      0x00\n      0x00\n        /* \"val61.sol\":20260:20281  lastSuccess = success */\n      0x0100\n      exp\n      dup2\n      sload\n      dup2\n      0xff\n      mul\n      not\n      and\n      swap1\n      dup4\n      iszero\n      iszero\n      mul\n      or\n      swap1\n      sstore\n      pop\n        /* \"val61.sol\":20305:20309  data */\n      dup1\n        /* \"val61.sol\":20294:20302  lastData */\n      0x01\n        /* \"val61.sol\":20294:20309  lastData = data */\n      swap1\n      dup2\n      tag_96\n      swap2\n      swap1\n      tag_63\n      jump\t// in\n    tag_96:\n      pop\n        /* \"val61.sol\":20327:20360  FunctionCallResult(success, data) */\n      0xeeb23850e36427632d80bfcaa20368ec836180508a26111cbe67d882b84908e6\n        /* \"val61.sol\":20346:20353  success */\n      dup3\n        /* \"val61.sol\":20355:20359  data */\n      dup3\n        /* \"val61.sol\":20327:20360  FunctionCallResult(success, data) */\n      mload(0x40)\n      tag_97\n      swap3\n      swap2\n      swap1\n      tag_65\n      jump\t// in\n    tag_97:\n      mload(0x40)\n      dup1\n      swap2\n      sub\n      swap1\n      log1\n        /* \"val61.sol\":20412:20419  success */\n      dup2\n        /* \"val61.sol\":20407:20589  if (!success)... */\n      tag_98\n      jumpi\n        /* \"val61.sol\":20445:20465  string memory reason */\n      0x00\n        /* \"val61.sol\":20468:20493  decodeRevertMessage(data) */\n      tag_99\n        /* \"val61.sol\":20488:20492  data */\n      dup3\n        /* \"val61.sol\":20468:20487  decodeRevertMessage */\n      tag_68\n        /* \"val61.sol\":20468:20493  decodeRevertMessage(data) */\n      jump\t// in\n    tag_99:\n        /* \"val61.sol\":20445:20493  string memory reason = decodeRevertMessage(data) */\n      swap1\n      pop\n        /* \"val61.sol\":20528:20534  reason */\n      dup1\n        /* \"val61.sol\":20510:20525  lastReverReason */\n      0x03\n        /* \"val61.sol\":20510:20534  lastReverReason = reason */\n      swap1\n      dup2\n      tag_100\n      swap2\n      swap1\n      tag_70\n      jump\t// in\n    tag_100:\n      pop\n        /* \"val61.sol\":20556:20577  FailureReason(reason) */\n      0x2c2105af88a70411f362c5ff0a4a256c01ded21bfed74377e704f64d3a052611\n        /* \"val61.sol\":20570:20576  reason */\n      dup2\n        /* \"val61.sol\":20556:20577  FailureReason(reason) */\n      mload(0x40)\n      tag_101\n      swap2\n      swap1\n      tag_47\n      jump\t// in\n    tag_101:\n      mload(0x40)\n      dup1\n      swap2\n      sub\n      swap1\n      log1\n        /* \"val61.sol\":20430:20589  {... */\n      pop\n        /* \"val61.sol\":20407:20589  if (!success)... */\n    tag_98:\n        /* \"val61.sol\":20858:20865  success */\n      dup2\n        /* \"val61.sol\":20836:20922  require(... */\n      tag_102\n      jumpi\n      mload(0x40)\n      0x08c379a000000000000000000000000000000000000000000000000000000000\n      dup2\n      mstore\n      0x04\n      add\n      tag_103\n      swap1\n      tag_104\n      jump\t// in\n    tag_103:\n      mload(0x40)\n      dup1\n      swap2\n      sub\n      swap1\n      revert\n    tag_102:\n        /* \"val61.sol\":19853:20930  {... */\n      pop\n      pop\n        /* \"val61.sol\":19771:20930  function safeFunctionCall(... */\n      pop\n      jump\t// out\n        /* \"val61.sol\":19263:19286  bool public lastSuccess */\n    tag_31:\n      0x00\n      0x00\n      swap1\n      sload\n      swap1\n      0x0100\n      exp\n      swap1\n      div\n      0xff\n      and\n      dup2\n      jump\t// out\n        /* \"val61.sol\":19325:19356  uint256 public executionCounter */\n    tag_36:\n      sload(0x02)\n      dup2\n      jump\t// out\n        /* \"val61.sol\":23001:23615  function tryCatchExample(address _target) external ... */\n    tag_42:\n        /* \"val61.sol\":23069:23087  ICallTarget target */\n      0x00\n        /* \"val61.sol\":23102:23109  _target */\n      dup2\n        /* \"val61.sol\":23069:23110  ICallTarget target = ICallTarget(_target) */\n      swap1\n      pop\n        /* \"val61.sol\":23155:23161  target */\n      dup1\n        /* \"val61.sol\":23155:23177  target.successFunction */\n      0xffffffffffffffffffffffffffffffffffffffff\n      and\n      0x671bd39d\n        /* \"val61.sol\":23155:23179  target.successFunction() */\n      mload(0x40)\n      dup2\n      0xffffffff\n      and\n      0xe0\n      shl\n      dup2\n      mstore\n      0x04\n      add\n      0x00\n      mload(0x40)\n      dup1\n      dup4\n      sub\n      dup2\n      0x00\n      dup8\n      dup1\n      extcodesize\n      iszero\n      dup1\n      iszero\n      tag_106\n      jumpi\n      revert(0x00, 0x00)\n    tag_106:\n      pop\n      gas\n      call\n      swap3\n      pop\n      pop\n      pop\n      dup1\n      iszero\n      tag_107\n      jumpi\n      pop\n      0x01\n    tag_107:\n        /* \"val61.sol\":23151:23373  try target.successFunction()... */\n      tag_108\n      jumpi\n      tag_112\n      tag_113\n      jump\t// in\n    tag_112:\n      dup1\n      0x08c379a0\n      sub\n      tag_111\n      jumpi\n      pop\n      tag_114\n      tag_115\n      jump\t// in\n    tag_114:\n      dup1\n      tag_116\n      jumpi\n      pop\n      jump(tag_110)\n    tag_116:\n        /* \"val61.sol\":23338:23361  TryCatchFailure(reason) */\n      0x2170a899eb3df99de3d6973d7f04a8981d877b84ca2055234d696ae04a5547f3\n        /* \"val61.sol\":23354:23360  reason */\n      dup2\n        /* \"val61.sol\":23338:23361  TryCatchFailure(reason) */\n      mload(0x40)\n      tag_117\n      swap2\n      swap1\n      tag_47\n      jump\t// in\n    tag_117:\n      mload(0x40)\n      dup1\n      swap2\n      sub\n      swap1\n      log1\n        /* \"val61.sol\":23275:23373  catch Error(string memory reason)... */\n      pop\n        /* \"val61.sol\":23151:23373  try target.successFunction()... */\n      jump(tag_109)\n    tag_111:\n      pop\n    tag_110:\n      returndatacopy(0x00, 0x00, returndatasize)\n      revert(0x00, returndatasize)\n    tag_109:\n      jump(tag_118)\n    tag_108:\n        /* \"val61.sol\":23209:23253  TryCatchSuccess(\"Success function executed\") */\n      0x907064b0143a723ebd8288b576f516a5fe1e8ff61101035f8d305a383cf11854\n      mload(0x40)\n      tag_119\n      swap1\n      tag_120\n      jump\t// in\n    tag_119:\n      mload(0x40)\n      dup1\n      swap2\n      sub\n      swap1\n      log1\n        /* \"val61.sol\":23151:23373  try target.successFunction()... */\n    tag_118:\n        /* \"val61.sol\":23414:23420  target */\n      dup1\n        /* \"val61.sol\":23414:23433  target.failFunction */\n      0xffffffffffffffffffffffffffffffffffffffff\n      and\n      0xca463e19\n        /* \"val61.sol\":23414:23435  target.failFunction() */\n      mload(0x40)\n      dup2\n      0xffffffff\n      and\n      0xe0\n      shl\n      dup2\n      mstore\n      0x04\n      add\n      0x00\n      mload(0x40)\n      dup1\n      dup4\n      sub\n      dup2\n      0x00\n      dup8\n      dup1\n      extcodesize\n      iszero\n      dup1\n      iszero\n      tag_121\n      jumpi\n      revert(0x00, 0x00)\n    tag_121:\n      pop\n      gas\n      call\n      swap3\n      pop\n      pop\n      pop\n      dup1\n      iszero\n      tag_122\n      jumpi\n      pop\n      0x01\n    tag_122:\n        /* \"val61.sol\":23410:23608  try target.failFunction()... */\n      tag_123\n      jumpi\n      tag_127\n      tag_113\n      jump\t// in\n    tag_127:\n      dup1\n      0x08c379a0\n      sub\n      tag_126\n      jumpi\n      pop\n      tag_128\n      tag_115\n      jump\t// in\n    tag_128:\n      dup1\n      tag_129\n      jumpi\n      pop\n      jump(tag_125)\n    tag_129:\n        /* \"val61.sol\":23545:23551  reason */\n      dup1\n        /* \"val61.sol\":23527:23542  lastReverReason */\n      0x03\n        /* \"val61.sol\":23527:23551  lastReverReason = reason */\n      swap1\n      dup2\n      tag_130\n      swap2\n      swap1\n      tag_70\n      jump\t// in\n    tag_130:\n      pop\n        /* \"val61.sol\":23573:23596  TryCatchFailure(reason) */\n      0x2170a899eb3df99de3d6973d7f04a8981d877b84ca2055234d696ae04a5547f3\n        /* \"val61.sol\":23589:23595  reason */\n      dup2\n        /* \"val61.sol\":23573:23596  TryCatchFailure(reason) */\n      mload(0x40)\n      tag_131\n      swap2\n      swap1\n      tag_47\n      jump\t// in\n    tag_131:\n      mload(0x40)\n      dup1\n      swap2\n      sub\n      swap1\n      log1\n        /* \"val61.sol\":23469:23608  catch Error(string memory reason)... */\n      pop\n        /* \"val61.sol\":23410:23608  try target.failFunction()... */\n      jump(tag_124)\n    tag_126:\n      pop\n    tag_125:\n      returndatacopy(0x00, 0x00, returndatasize)\n      revert(0x00, returndatasize)\n    tag_124:\n      jump(tag_132)\n    tag_123:\n    tag_132:\n        /* \"val61.sol\":23058:23615  {... */\n      pop\n        /* \"val61.sol\":23001:23615  function tryCatchExample(address _target) external ... */\n      pop\n      jump\t// out\n        /* \"val61.sol\":19365:19394  string public lastReverReason */\n    tag_45:\n      0x03\n      dup1\n      sload\n      tag_133\n      swap1\n      tag_49\n      jump\t// in\n    tag_133:\n      dup1\n      0x1f\n      add\n      0x20\n      dup1\n      swap2\n      div\n      mul\n      0x20\n      add\n      mload(0x40)\n      swap1\n      dup2\n      add\n      0x40\n      mstore\n      dup1\n      swap3\n      swap2\n      swap1\n      dup2\n      dup2\n      mstore\n      0x20\n      add\n      dup3\n      dup1\n      sload\n      tag_134\n      swap1\n      tag_49\n      jump\t// in\n    tag_134:\n      dup1\n      iszero\n      tag_135\n      jumpi\n      dup1\n      0x1f\n      lt\n      tag_136\n      jumpi\n      0x0100\n      dup1\n      dup4\n      sload\n      div\n      mul\n      dup4\n      mstore\n      swap2\n      0x20\n      add\n      swap2\n      jump(tag_135)\n    tag_136:\n      dup3\n      add\n      swap2\n      swap1\n      0x00\n      mstore\n      keccak256(0x00, 0x20)\n      swap1\n    tag_137:\n      dup2\n      sload\n      dup2\n      mstore\n      swap1\n      0x01\n      add\n      swap1\n      0x20\n      add\n      dup1\n      dup4\n      gt\n      tag_137\n      jumpi\n      dup3\n      swap1\n      sub\n      0x1f\n      and\n      dup3\n      add\n      swap2\n    tag_135:\n      pop\n      pop\n      pop\n      pop\n      pop\n      dup2\n      jump\t// out\n        /* \"val61.sol\":23653:24028  function decodeRevertMessage(bytes memory _data) internal pure returns (string memory)... */\n    tag_68:\n        /* \"val61.sol\":23725:23738  string memory */\n      0x60\n        /* \"val61.sol\":23800:23802  68 */\n      0x44\n        /* \"val61.sol\":23785:23790  _data */\n      dup3\n        /* \"val61.sol\":23785:23797  _data.length */\n      mload\n        /* \"val61.sol\":23785:23802  _data.length < 68 */\n      lt\n        /* \"val61.sol\":23782:23863  if(_data.length < 68)... */\n      iszero\n      tag_139\n      jumpi\n        /* \"val61.sol\":23828:23851  return \"Unknown revert\" */\n      mload(0x40)\n      dup1\n      0x40\n      add\n      0x40\n      mstore\n      dup1\n      0x0e\n      dup2\n      mstore\n      0x20\n      add\n      0x556e6b6e6f776e20726576657274000000000000000000000000000000000000\n      dup2\n      mstore\n      pop\n      swap1\n      pop\n      jump(tag_138)\n        /* \"val61.sol\":23782:23863  if(_data.length < 68)... */\n    tag_139:\n        /* \"val61.sol\":23958:23962  0x04 */\n      0x04\n        /* \"val61.sol\":23951:23956  _data */\n      dup3\n        /* \"val61.sol\":23947:23963  add(_data, 0x04) */\n      add\n        /* \"val61.sol\":23938:23963  _data := add(_data, 0x04) */\n      swap2\n      pop\n        /* \"val61.sol\":24004:24009  _data */\n      dup2\n        /* \"val61.sol\":23993:24020  abi.decode(_data, (string)) */\n      dup1\n      0x20\n      add\n      swap1\n      mload\n      dup2\n      add\n      swap1\n      tag_140\n      swap2\n      swap1\n      tag_141\n      jump\t// in\n    tag_140:\n        /* \"val61.sol\":23986:24020  return abi.decode(_data, (string)) */\n      swap1\n      pop\n        /* \"val61.sol\":23653:24028  function decodeRevertMessage(bytes memory _data) internal pure returns (string memory)... */\n    tag_138:\n      swap2\n      swap1\n      pop\n      jump\t// out\n        /* \"#utility.yul\":7:105   */\n    tag_142:\n        /* \"#utility.yul\":58:64   */\n      0x00\n        /* \"#utility.yul\":92:97   */\n      dup2\n        /* \"#utility.yul\":86:98   */\n      mload\n        /* \"#utility.yul\":76:98   */\n      swap1\n      pop\n        /* \"#utility.yul\":7:105   */\n      swap2\n      swap1\n      pop\n      jump\t// out\n        /* \"#utility.yul\":111:279   */\n    tag_143:\n        /* \"#utility.yul\":194:205   */\n      0x00\n        /* \"#utility.yul\":228:234   */\n      dup3\n        /* \"#utility.yul\":223:226   */\n      dup3\n        /* \"#utility.yul\":216:235   */\n      mstore\n        /* \"#utility.yul\":268:272   */\n      0x20\n        /* \"#utility.yul\":263:266   */\n      dup3\n        /* \"#utility.yul\":259:273   */\n      add\n        /* \"#utility.yul\":244:273   */\n      swap1\n      pop\n        /* \"#utility.yul\":111:279   */\n      swap3\n      swap2\n      pop\n      pop\n      jump\t// out\n        /* \"#utility.yul\":285:424   */\n    tag_144:\n        /* \"#utility.yul\":374:380   */\n      dup3\n        /* \"#utility.yul\":369:372   */\n      dup2\n        /* \"#utility.yul\":364:367   */\n      dup4\n        /* \"#utility.yul\":358:381   */\n      mcopy\n        /* \"#utility.yul\":415:416   */\n      0x00\n        /* \"#utility.yul\":406:412   */\n      dup4\n        /* \"#utility.yul\":401:404   */\n      dup4\n        /* \"#utility.yul\":397:413   */\n      add\n        /* \"#utility.yul\":390:417   */\n      mstore\n        /* \"#utility.yul\":285:424   */\n      pop\n      pop\n      pop\n      jump\t// out\n        /* \"#utility.yul\":430:532   */\n    tag_145:\n        /* \"#utility.yul\":471:477   */\n      0x00\n        /* \"#utility.yul\":522:524   */\n      0x1f\n        /* \"#utility.yul\":518:525   */\n      not\n        /* \"#utility.yul\":513:515   */\n      0x1f\n        /* \"#utility.yul\":506:511   */\n      dup4\n        /* \"#utility.yul\":502:516   */\n      add\n        /* \"#utility.yul\":498:526   */\n      and\n        /* \"#utility.yul\":488:526   */\n      swap1\n      pop\n        /* \"#utility.yul\":430:532   */\n      swap2\n      swap1\n      pop\n      jump\t// out\n        /* \"#utility.yul\":538:911   */\n    tag_146:\n        /* \"#utility.yul\":624:627   */\n      0x00\n        /* \"#utility.yul\":652:690   */\n      tag_210\n        /* \"#utility.yul\":684:689   */\n      dup3\n        /* \"#utility.yul\":652:690   */\n      tag_142\n      jump\t// in\n    tag_210:\n        /* \"#utility.yul\":706:776   */\n      tag_211\n        /* \"#utility.yul\":769:775   */\n      dup2\n        /* \"#utility.yul\":764:767   */\n      dup6\n        /* \"#utility.yul\":706:776   */\n      tag_143\n      jump\t// in\n    tag_211:\n        /* \"#utility.yul\":699:776   */\n      swap4\n      pop\n        /* \"#utility.yul\":785:850   */\n      tag_212\n        /* \"#utility.yul\":843:849   */\n      dup2\n        /* \"#utility.yul\":838:841   */\n      dup6\n        /* \"#utility.yul\":831:835   */\n      0x20\n        /* \"#utility.yul\":824:829   */\n      dup7\n        /* \"#utility.yul\":820:836   */\n      add\n        /* \"#utility.yul\":785:850   */\n      tag_144\n      jump\t// in\n    tag_212:\n        /* \"#utility.yul\":875:904   */\n      tag_213\n        /* \"#utility.yul\":897:903   */\n      dup2\n        /* \"#utility.yul\":875:904   */\n      tag_145\n      jump\t// in\n    tag_213:\n        /* \"#utility.yul\":870:873   */\n      dup5\n        /* \"#utility.yul\":866:905   */\n      add\n        /* \"#utility.yul\":859:905   */\n      swap2\n      pop\n        /* \"#utility.yul\":628:911   */\n      pop\n        /* \"#utility.yul\":538:911   */\n      swap3\n      swap2\n      pop\n      pop\n      jump\t// out\n        /* \"#utility.yul\":917:1226   */\n    tag_15:\n        /* \"#utility.yul\":1028:1032   */\n      0x00\n        /* \"#utility.yul\":1066:1068   */\n      0x20\n        /* \"#utility.yul\":1055:1064   */\n      dup3\n        /* \"#utility.yul\":1051:1069   */\n      add\n        /* \"#utility.yul\":1043:1069   */\n      swap1\n      pop\n        /* \"#utility.yul\":1115:1124   */\n      dup2\n        /* \"#utility.yul\":1109:1113   */\n      dup2\n        /* \"#utility.yul\":1105:1125   */\n      sub\n        /* \"#utility.yul\":1101:1102   */\n      0x00\n        /* \"#utility.yul\":1090:1099   */\n      dup4\n        /* \"#utility.yul\":1086:1103   */\n      add\n        /* \"#utility.yul\":1079:1126   */\n      mstore\n        /* \"#utility.yul\":1143:1219   */\n      tag_215\n        /* \"#utility.yul\":1214:1218   */\n      dup2\n        /* \"#utility.yul\":1205:1211   */\n      dup5\n        /* \"#utility.yul\":1143:1219   */\n      tag_146\n      jump\t// in\n    tag_215:\n        /* \"#utility.yul\":1135:1219   */\n      swap1\n      pop\n        /* \"#utility.yul\":917:1226   */\n      swap3\n      swap2\n      pop\n      pop\n      jump\t// out\n        /* \"#utility.yul\":1232:1307   */\n    tag_147:\n        /* \"#utility.yul\":1265:1271   */\n      0x00\n        /* \"#utility.yul\":1298:1300   */\n      0x40\n        /* \"#utility.yul\":1292:1301   */\n      mload\n        /* \"#utility.yul\":1282:1301   */\n      swap1\n      pop\n        /* \"#utility.yul\":1232:1307   */\n      swap1\n      jump\t// out\n        /* \"#utility.yul\":1313:1430   */\n    tag_148:\n        /* \"#utility.yul\":1422:1423   */\n      0x00\n        /* \"#utility.yul\":1419:1420   */\n      0x00\n        /* \"#utility.yul\":1412:1424   */\n      revert\n        /* \"#utility.yul\":1436:1553   */\n    tag_149:\n        /* \"#utility.yul\":1545:1546   */\n      0x00\n        /* \"#utility.yul\":1542:1543   */\n      0x00\n        /* \"#utility.yul\":1535:1547   */\n      revert\n        /* \"#utility.yul\":1559:1685   */\n    tag_150:\n        /* \"#utility.yul\":1596:1603   */\n      0x00\n        /* \"#utility.yul\":1636:1678   */\n      0xffffffffffffffffffffffffffffffffffffffff\n        /* \"#utility.yul\":1629:1634   */\n      dup3\n        /* \"#utility.yul\":1625:1679   */\n      and\n        /* \"#utility.yul\":1614:1679   */\n      swap1\n      pop\n        /* \"#utility.yul\":1559:1685   */\n      swap2\n      swap1\n      pop\n      jump\t// out\n        /* \"#utility.yul\":1691:1787   */\n    tag_151:\n        /* \"#utility.yul\":1728:1735   */\n      0x00\n        /* \"#utility.yul\":1757:1781   */\n      tag_221\n        /* \"#utility.yul\":1775:1780   */\n      dup3\n        /* \"#utility.yul\":1757:1781   */\n      tag_150\n      jump\t// in\n    tag_221:\n        /* \"#utility.yul\":1746:1781   */\n      swap1\n      pop\n        /* \"#utility.yul\":1691:1787   */\n      swap2\n      swap1\n      pop\n      jump\t// out\n        /* \"#utility.yul\":1793:1915   */\n    tag_152:\n        /* \"#utility.yul\":1866:1890   */\n      tag_223\n        /* \"#utility.yul\":1884:1889   */\n      dup2\n        /* \"#utility.yul\":1866:1890   */\n      tag_151\n      jump\t// in\n    tag_223:\n        /* \"#utility.yul\":1859:1864   */\n      dup2\n        /* \"#utility.yul\":1856:1891   */\n      eq\n        /* \"#utility.yul\":1846:1909   */\n      tag_224\n      jumpi\n        /* \"#utility.yul\":1905:1906   */\n      0x00\n        /* \"#utility.yul\":1902:1903   */\n      0x00\n        /* \"#utility.yul\":1895:1907   */\n      revert\n        /* \"#utility.yul\":1846:1909   */\n    tag_224:\n        /* \"#utility.yul\":1793:1915   */\n      pop\n      jump\t// out\n        /* \"#utility.yul\":1921:2060   */\n    tag_153:\n        /* \"#utility.yul\":1967:1972   */\n      0x00\n        /* \"#utility.yul\":2005:2011   */\n      dup2\n        /* \"#utility.yul\":1992:2012   */\n      calldataload\n        /* \"#utility.yul\":1983:2012   */\n      swap1\n      pop\n        /* \"#utility.yul\":2021:2054   */\n      tag_226\n        /* \"#utility.yul\":2048:2053   */\n      dup2\n        /* \"#utility.yul\":2021:2054   */\n      tag_152\n      jump\t// in\n    tag_226:\n        /* \"#utility.yul\":1921:2060   */\n      swap3\n      swap2\n      pop\n      pop\n      jump\t// out\n        /* \"#utility.yul\":2066:2395   */\n    tag_19:\n        /* \"#utility.yul\":2125:2131   */\n      0x00\n        /* \"#utility.yul\":2174:2176   */\n      0x20\n        /* \"#utility.yul\":2162:2171   */\n      dup3\n        /* \"#utility.yul\":2153:2160   */\n      dup5\n        /* \"#utility.yul\":2149:2172   */\n      sub\n        /* \"#utility.yul\":2145:2177   */\n      slt\n        /* \"#utility.yul\":2142:2261   */\n      iszero\n      tag_228\n      jumpi\n        /* \"#utility.yul\":2180:2259   */\n      tag_229\n      tag_148\n      jump\t// in\n    tag_229:\n        /* \"#utility.yul\":2142:2261   */\n    tag_228:\n        /* \"#utility.yul\":2300:2301   */\n      0x00\n        /* \"#utility.yul\":2325:2378   */\n      tag_230\n        /* \"#utility.yul\":2370:2377   */\n      dup5\n        /* \"#utility.yul\":2361:2367   */\n      dup3\n        /* \"#utility.yul\":2350:2359   */\n      dup6\n        /* \"#utility.yul\":2346:2368   */\n      add\n        /* \"#utility.yul\":2325:2378   */\n      tag_153\n      jump\t// in\n    tag_230:\n        /* \"#utility.yul\":2315:2378   */\n      swap2\n      pop\n        /* \"#utility.yul\":2271:2388   */\n      pop\n        /* \"#utility.yul\":2066:2395   */\n      swap3\n      swap2\n      pop\n      pop\n      jump\t// out\n        /* \"#utility.yul\":2401:2505   */\n    tag_154:\n        /* \"#utility.yul\":2446:2453   */\n      0x00\n        /* \"#utility.yul\":2475:2499   */\n      tag_232\n        /* \"#utility.yul\":2493:2498   */\n      dup3\n        /* \"#utility.yul\":2475:2499   */\n      tag_150\n      jump\t// in\n    tag_232:\n        /* \"#utility.yul\":2464:2499   */\n      swap1\n      pop\n        /* \"#utility.yul\":2401:2505   */\n      swap2\n      swap1\n      pop\n      jump\t// out\n        /* \"#utility.yul\":2511:2649   */\n    tag_155:\n        /* \"#utility.yul\":2592:2624   */\n      tag_234\n        /* \"#utility.yul\":2618:2623   */\n      dup2\n        /* \"#utility.yul\":2592:2624   */\n      tag_154\n      jump\t// in\n    tag_234:\n        /* \"#utility.yul\":2585:2590   */\n      dup2\n        /* \"#utility.yul\":2582:2625   */\n      eq\n        /* \"#utility.yul\":2572:2643   */\n      tag_235\n      jumpi\n        /* \"#utility.yul\":2639:2640   */\n      0x00\n        /* \"#utility.yul\":2636:2637   */\n      0x00\n        /* \"#utility.yul\":2629:2641   */\n      revert\n        /* \"#utility.yul\":2572:2643   */\n    tag_235:\n        /* \"#utility.yul\":2511:2649   */\n      pop\n      jump\t// out\n        /* \"#utility.yul\":2655:2810   */\n    tag_156:\n        /* \"#utility.yul\":2709:2714   */\n      0x00\n        /* \"#utility.yul\":2747:2753   */\n      dup2\n        /* \"#utility.yul\":2734:2754   */\n      calldataload\n        /* \"#utility.yul\":2725:2754   */\n      swap1\n      pop\n        /* \"#utility.yul\":2763:2804   */\n      tag_237\n        /* \"#utility.yul\":2798:2803   */\n      dup2\n        /* \"#utility.yul\":2763:2804   */\n      tag_155\n      jump\t// in\n    tag_237:\n        /* \"#utility.yul\":2655:2810   */\n      swap3\n      swap2\n      pop\n      pop\n      jump\t// out\n        /* \"#utility.yul\":2816:3161   */\n    tag_23:\n        /* \"#utility.yul\":2883:2889   */\n      0x00\n        /* \"#utility.yul\":2932:2934   */\n      0x20\n        /* \"#utility.yul\":2920:2929   */\n      dup3\n        /* \"#utility.yul\":2911:2918   */\n      dup5\n        /* \"#utility.yul\":2907:2930   */\n      sub\n        /* \"#utility.yul\":2903:2935   */\n      slt\n        /* \"#utility.yul\":2900:3019   */\n      iszero\n      tag_239\n      jumpi\n        /* \"#utility.yul\":2938:3017   */\n      tag_240\n      tag_148\n      jump\t// in\n    tag_240:\n        /* \"#utility.yul\":2900:3019   */\n    tag_239:\n        /* \"#utility.yul\":3058:3059   */\n      0x00\n        /* \"#utility.yul\":3083:3144   */\n      tag_241\n        /* \"#utility.yul\":3136:3143   */\n      dup5\n        /* \"#utility.yul\":3127:3133   */\n      dup3\n        /* \"#utility.yul\":3116:3125   */\n      dup6\n        /* \"#utility.yul\":3112:3134   */\n      add\n        /* \"#utility.yul\":3083:3144   */\n      tag_156\n      jump\t// in\n    tag_241:\n        /* \"#utility.yul\":3073:3144   */\n      swap2\n      pop\n        /* \"#utility.yul\":3029:3154   */\n      pop\n        /* \"#utility.yul\":2816:3161   */\n      swap3\n      swap2\n      pop\n      pop\n      jump\t// out\n        /* \"#utility.yul\":3167:3257   */\n    tag_157:\n        /* \"#utility.yul\":3201:3208   */\n      0x00\n        /* \"#utility.yul\":3244:3249   */\n      dup2\n        /* \"#utility.yul\":3237:3250   */\n      iszero\n        /* \"#utility.yul\":3230:3251   */\n      iszero\n        /* \"#utility.yul\":3219:3251   */\n      swap1\n      pop\n        /* \"#utility.yul\":3167:3257   */\n      swap2\n      swap1\n      pop\n      jump\t// out\n        /* \"#utility.yul\":3263:3372   */\n    tag_158:\n        /* \"#utility.yul\":3344:3365   */\n      tag_244\n        /* \"#utility.yul\":3359:3364   */\n      dup2\n        /* \"#utility.yul\":3344:3365   */\n      tag_157\n      jump\t// in\n    tag_244:\n        /* \"#utility.yul\":3339:3342   */\n      dup3\n        /* \"#utility.yul\":3332:3366   */\n      mstore\n        /* \"#utility.yul\":3263:3372   */\n      pop\n      pop\n      jump\t// out\n        /* \"#utility.yul\":3378:3588   */\n    tag_33:\n        /* \"#utility.yul\":3465:3469   */\n      0x00\n        /* \"#utility.yul\":3503:3505   */\n      0x20\n        /* \"#utility.yul\":3492:3501   */\n      dup3\n        /* \"#utility.yul\":3488:3506   */\n      add\n        /* \"#utility.yul\":3480:3506   */\n      swap1\n      pop\n        /* \"#utility.yul\":3516:3581   */\n      tag_246\n        /* \"#utility.yul\":3578:3579   */\n      0x00\n        /* \"#utility.yul\":3567:3576   */\n      dup4\n        /* \"#utility.yul\":3563:3580   */\n      add\n        /* \"#utility.yul\":3554:3560   */\n      dup5\n        /* \"#utility.yul\":3516:3581   */\n      tag_158\n      jump\t// in\n    tag_246:\n        /* \"#utility.yul\":3378:3588   */\n      swap3\n      swap2\n      pop\n      pop\n      jump\t// out\n        /* \"#utility.yul\":3594:3671   */\n    tag_159:\n        /* \"#utility.yul\":3631:3638   */\n      0x00\n        /* \"#utility.yul\":3660:3665   */\n      dup2\n        /* \"#utility.yul\":3649:3665   */\n      swap1\n      pop\n        /* \"#utility.yul\":3594:3671   */\n      swap2\n      swap1\n      pop\n      jump\t// out\n        /* \"#utility.yul\":3677:3795   */\n    tag_160:\n        /* \"#utility.yul\":3764:3788   */\n      tag_249\n        /* \"#utility.yul\":3782:3787   */\n      dup2\n        /* \"#utility.yul\":3764:3788   */\n      tag_159\n      jump\t// in\n    tag_249:\n        /* \"#utility.yul\":3759:3762   */\n      dup3\n        /* \"#utility.yul\":3752:3789   */\n      mstore\n        /* \"#utility.yul\":3677:3795   */\n      pop\n      pop\n      jump\t// out\n        /* \"#utility.yul\":3801:4023   */\n    tag_38:\n        /* \"#utility.yul\":3894:3898   */\n      0x00\n        /* \"#utility.yul\":3932:3934   */\n      0x20\n        /* \"#utility.yul\":3921:3930   */\n      dup3\n        /* \"#utility.yul\":3917:3935   */\n      add\n        /* \"#utility.yul\":3909:3935   */\n      swap1\n      pop\n        /* \"#utility.yul\":3945:4016   */\n      tag_251\n        /* \"#utility.yul\":4013:4014   */\n      0x00\n        /* \"#utility.yul\":4002:4011   */\n      dup4\n        /* \"#utility.yul\":3998:4015   */\n      add\n        /* \"#utility.yul\":3989:3995   */\n      dup5\n        /* \"#utility.yul\":3945:4016   */\n      tag_160\n      jump\t// in\n    tag_251:\n        /* \"#utility.yul\":3801:4023   */\n      swap3\n      swap2\n      pop\n      pop\n      jump\t// out\n        /* \"#utility.yul\":4029:4128   */\n    tag_161:\n        /* \"#utility.yul\":4081:4087   */\n      0x00\n        /* \"#utility.yul\":4115:4120   */\n      dup2\n        /* \"#utility.yul\":4109:4121   */\n      mload\n        /* \"#utility.yul\":4099:4121   */\n      swap1\n      pop\n        /* \"#utility.yul\":4029:4128   */\n      swap2\n      swap1\n      pop\n      jump\t// out\n        /* \"#utility.yul\":4134:4303   */\n    tag_162:\n        /* \"#utility.yul\":4218:4229   */\n      0x00\n        /* \"#utility.yul\":4252:4258   */\n      dup3\n        /* \"#utility.yul\":4247:4250   */\n      dup3\n        /* \"#utility.yul\":4240:4259   */\n      mstore\n        /* \"#utility.yul\":4292:4296   */\n      0x20\n        /* \"#utility.yul\":4287:4290   */\n      dup3\n        /* \"#utility.yul\":4283:4297   */\n      add\n        /* \"#utility.yul\":4268:4297   */\n      swap1\n      pop\n        /* \"#utility.yul\":4134:4303   */\n      swap3\n      swap2\n      pop\n      pop\n      jump\t// out\n        /* \"#utility.yul\":4309:4686   */\n    tag_163:\n        /* \"#utility.yul\":4397:4400   */\n      0x00\n        /* \"#utility.yul\":4425:4464   */\n      tag_255\n        /* \"#utility.yul\":4458:4463   */\n      dup3\n        /* \"#utility.yul\":4425:4464   */\n      tag_161\n      jump\t// in\n    tag_255:\n        /* \"#utility.yul\":4480:4551   */\n      tag_256\n        /* \"#utility.yul\":4544:4550   */\n      dup2\n        /* \"#utility.yul\":4539:4542   */\n      dup6\n        /* \"#utility.yul\":4480:4551   */\n      tag_162\n      jump\t// in\n    tag_256:\n        /* \"#utility.yul\":4473:4551   */\n      swap4\n      pop\n        /* \"#utility.yul\":4560:4625   */\n      tag_257\n        /* \"#utility.yul\":4618:4624   */\n      dup2\n        /* \"#utility.yul\":4613:4616   */\n      dup6\n        /* \"#utility.yul\":4606:4610   */\n      0x20\n        /* \"#utility.yul\":4599:4604   */\n      dup7\n        /* \"#utility.yul\":4595:4611   */\n      add\n        /* \"#utility.yul\":4560:4625   */\n      tag_144\n      jump\t// in\n    tag_257:\n        /* \"#utility.yul\":4650:4679   */\n      tag_258\n        /* \"#utility.yul\":4672:4678   */\n      dup2\n        /* \"#utility.yul\":4650:4679   */\n      tag_145\n      jump\t// in\n    tag_258:\n        /* \"#utility.yul\":4645:4648   */\n      dup5\n        /* \"#utility.yul\":4641:4680   */\n      add\n        /* \"#utility.yul\":4634:4680   */\n      swap2\n      pop\n        /* \"#utility.yul\":4401:4686   */\n      pop\n        /* \"#utility.yul\":4309:4686   */\n      swap3\n      swap2\n      pop\n      pop\n      jump\t// out\n        /* \"#utility.yul\":4692:5005   */\n    tag_47:\n        /* \"#utility.yul\":4805:4809   */\n      0x00\n        /* \"#utility.yul\":4843:4845   */\n      0x20\n        /* \"#utility.yul\":4832:4841   */\n      dup3\n        /* \"#utility.yul\":4828:4846   */\n      add\n        /* \"#utility.yul\":4820:4846   */\n      swap1\n      pop\n        /* \"#utility.yul\":4892:4901   */\n      dup2\n        /* \"#utility.yul\":4886:4890   */\n      dup2\n        /* \"#utility.yul\":4882:4902   */\n      sub\n        /* \"#utility.yul\":4878:4879   */\n      0x00\n        /* \"#utility.yul\":4867:4876   */\n      dup4\n        /* \"#utility.yul\":4863:4880   */\n      add\n        /* \"#utility.yul\":4856:4903   */\n      mstore\n        /* \"#utility.yul\":4920:4998   */\n      tag_260\n        /* \"#utility.yul\":4993:4997   */\n      dup2\n        /* \"#utility.yul\":4984:4990   */\n      dup5\n        /* \"#utility.yul\":4920:4998   */\n      tag_163\n      jump\t// in\n    tag_260:\n        /* \"#utility.yul\":4912:4998   */\n      swap1\n      pop\n        /* \"#utility.yul\":4692:5005   */\n      swap3\n      swap2\n      pop\n      pop\n      jump\t// out\n        /* \"#utility.yul\":5011:5191   */\n    tag_164:\n        /* \"#utility.yul\":5059:5136   */\n      0x4e487b7100000000000000000000000000000000000000000000000000000000\n        /* \"#utility.yul\":5056:5057   */\n      0x00\n        /* \"#utility.yul\":5049:5137   */\n      mstore\n        /* \"#utility.yul\":5156:5160   */\n      0x22\n        /* \"#utility.yul\":5153:5154   */\n      0x04\n        /* \"#utility.yul\":5146:5161   */\n      mstore\n        /* \"#utility.yul\":5180:5184   */\n      0x24\n        /* \"#utility.yul\":5177:5178   */\n      0x00\n        /* \"#utility.yul\":5170:5185   */\n      revert\n        /* \"#utility.yul\":5197:5517   */\n    tag_49:\n        /* \"#utility.yul\":5241:5247   */\n      0x00\n        /* \"#utility.yul\":5278:5279   */\n      0x02\n        /* \"#utility.yul\":5272:5276   */\n      dup3\n        /* \"#utility.yul\":5268:5280   */\n      div\n        /* \"#utility.yul\":5258:5280   */\n      swap1\n      pop\n        /* \"#utility.yul\":5325:5326   */\n      0x01\n        /* \"#utility.yul\":5319:5323   */\n      dup3\n        /* \"#utility.yul\":5315:5327   */\n      and\n        /* \"#utility.yul\":5346:5364   */\n      dup1\n        /* \"#utility.yul\":5336:5417   */\n      tag_263\n      jumpi\n        /* \"#utility.yul\":5402:5406   */\n      0x7f\n        /* \"#utility.yul\":5394:5400   */\n      dup3\n        /* \"#utility.yul\":5390:5407   */\n      and\n        /* \"#utility.yul\":5380:5407   */\n      swap2\n      pop\n        /* \"#utility.yul\":5336:5417   */\n    tag_263:\n        /* \"#utility.yul\":5464:5466   */\n      0x20\n        /* \"#utility.yul\":5456:5462   */\n      dup3\n        /* \"#utility.yul\":5453:5467   */\n      lt\n        /* \"#utility.yul\":5433:5451   */\n      dup2\n        /* \"#utility.yul\":5430:5468   */\n      sub\n        /* \"#utility.yul\":5427:5511   */\n      tag_264\n      jumpi\n        /* \"#utility.yul\":5483:5501   */\n      tag_265\n      tag_164\n      jump\t// in\n    tag_265:\n        /* \"#utility.yul\":5427:5511   */\n    tag_264:\n        /* \"#utility.yul\":5248:5517   */\n      pop\n        /* \"#utility.yul\":5197:5517   */\n      swap2\n      swap1\n      pop\n      jump\t// out\n        /* \"#utility.yul\":5523:5703   */\n    tag_165:\n        /* \"#utility.yul\":5571:5648   */\n      0x4e487b7100000000000000000000000000000000000000000000000000000000\n        /* \"#utility.yul\":5568:5569   */\n      0x00\n        /* \"#utility.yul\":5561:5649   */\n      mstore\n        /* \"#utility.yul\":5668:5672   */\n      0x11\n        /* \"#utility.yul\":5665:5666   */\n      0x04\n        /* \"#utility.yul\":5658:5673   */\n      mstore\n        /* \"#utility.yul\":5692:5696   */\n      0x24\n        /* \"#utility.yul\":5689:5690   */\n      0x00\n        /* \"#utility.yul\":5682:5697   */\n      revert\n        /* \"#utility.yul\":5709:5942   */\n    tag_56:\n        /* \"#utility.yul\":5748:5751   */\n      0x00\n        /* \"#utility.yul\":5771:5795   */\n      tag_268\n        /* \"#utility.yul\":5789:5794   */\n      dup3\n        /* \"#utility.yul\":5771:5795   */\n      tag_159\n      jump\t// in\n    tag_268:\n        /* \"#utility.yul\":5762:5795   */\n      swap2\n      pop\n        /* \"#utility.yul\":5817:5883   */\n      0xffffffffffffffffffffffffffffffffffffffffffffffffffffffffffffffff\n        /* \"#utility.yul\":5810:5815   */\n      dup3\n        /* \"#utility.yul\":5807:5884   */\n      sub\n        /* \"#utility.yul\":5804:5907   */\n      tag_269\n      jumpi\n        /* \"#utility.yul\":5887:5905   */\n      tag_270\n      tag_165\n      jump\t// in\n    tag_270:\n        /* \"#utility.yul\":5804:5907   */\n    tag_269:\n        /* \"#utility.yul\":5934:5935   */\n      0x01\n        /* \"#utility.yul\":5927:5932   */\n      dup3\n        /* \"#utility.yul\":5923:5936   */\n      add\n        /* \"#utility.yul\":5916:5936   */\n      swap1\n      pop\n        /* \"#utility.yul\":5709:5942   */\n      swap2\n      swap1\n      pop\n      jump\t// out\n        /* \"#utility.yul\":5948:6095   */\n    tag_166:\n        /* \"#utility.yul\":6049:6060   */\n      0x00\n        /* \"#utility.yul\":6086:6089   */\n      dup2\n        /* \"#utility.yul\":6071:6089   */\n      swap1\n      pop\n        /* \"#utility.yul\":5948:6095   */\n      swap3\n      swap2\n      pop\n      pop\n      jump\t// out\n        /* \"#utility.yul\":6101:6487   */\n    tag_167:\n        /* \"#utility.yul\":6205:6208   */\n      0x00\n        /* \"#utility.yul\":6233:6271   */\n      tag_273\n        /* \"#utility.yul\":6265:6270   */\n      dup3\n        /* \"#utility.yul\":6233:6271   */\n      tag_142\n      jump\t// in\n    tag_273:\n        /* \"#utility.yul\":6287:6375   */\n      tag_274\n        /* \"#utility.yul\":6368:6374   */\n      dup2\n        /* \"#utility.yul\":6363:6366   */\n      dup6\n        /* \"#utility.yul\":6287:6375   */\n      tag_166\n      jump\t// in\n    tag_274:\n        /* \"#utility.yul\":6280:6375   */\n      swap4\n      pop\n        /* \"#utility.yul\":6384:6449   */\n      tag_275\n        /* \"#utility.yul\":6442:6448   */\n      dup2\n        /* \"#utility.yul\":6437:6440   */\n      dup6\n        /* \"#utility.yul\":6430:6434   */\n      0x20\n        /* \"#utility.yul\":6423:6428   */\n      dup7\n        /* \"#utility.yul\":6419:6435   */\n      add\n        /* \"#utility.yul\":6384:6449   */\n      tag_144\n      jump\t// in\n    tag_275:\n        /* \"#utility.yul\":6474:6480   */\n      dup1\n        /* \"#utility.yul\":6469:6472   */\n      dup5\n        /* \"#utility.yul\":6465:6481   */\n      add\n        /* \"#utility.yul\":6458:6481   */\n      swap2\n      pop\n        /* \"#utility.yul\":6209:6487   */\n      pop\n        /* \"#utility.yul\":6101:6487   */\n      swap3\n      swap2\n      pop\n      pop\n      jump\t// out\n        /* \"#utility.yul\":6493:6764   */\n    tag_58:\n        /* \"#utility.yul\":6623:6626   */\n      0x00\n        /* \"#utility.yul\":6645:6738   */\n      tag_277\n        /* \"#utility.yul\":6734:6737   */\n      dup3\n        /* \"#utility.yul\":6725:6731   */\n      dup5\n        /* \"#utility.yul\":6645:6738   */\n      tag_167\n      jump\t// in\n    tag_277:\n        /* \"#utility.yul\":6638:6738   */\n      swap2\n      pop\n        /* \"#utility.yul\":6755:6758   */\n      dup2\n        /* \"#utility.yul\":6748:6758   */\n      swap1\n      pop\n        /* \"#utility.yul\":6493:6764   */\n      swap3\n      swap2\n      pop\n      pop\n      jump\t// out\n        /* \"#utility.yul\":6770:6950   */\n    tag_168:\n        /* \"#utility.yul\":6818:6895   */\n      0x4e487b7100000000000000000000000000000000000000000000000000000000\n        /* \"#utility.yul\":6815:6816   */\n      0x00\n        /* \"#utility.yul\":6808:6896   */\n      mstore\n        /* \"#utility.yul\":6915:6919   */\n      0x41\n        /* \"#utility.yul\":6912:6913   */\n      0x04\n        /* \"#utility.yul\":6905:6920   */\n      mstore\n        /* \"#utility.yul\":6939:6943   */\n      0x24\n        /* \"#utility.yul\":6936:6937   */\n      0x00\n        /* \"#utility.yul\":6929:6944   */\n      revert\n        /* \"#utility.yul\":6956:7096   */\n    tag_169:\n        /* \"#utility.yul\":7004:7008   */\n      0x00\n        /* \"#utility.yul\":7027:7030   */\n      dup2\n        /* \"#utility.yul\":7019:7030   */\n      swap1\n      pop\n        /* \"#utility.yul\":7050:7053   */\n      dup2\n        /* \"#utility.yul\":7047:7048   */\n      0x00\n        /* \"#utility.yul\":7040:7054   */\n      mstore\n        /* \"#utility.yul\":7084:7088   */\n      0x20\n        /* \"#utility.yul\":7081:7082   */\n      0x00\n        /* \"#utility.yul\":7071:7089   */\n      keccak256\n        /* \"#utility.yul\":7063:7089   */\n      swap1\n      pop\n        /* \"#utility.yul\":6956:7096   */\n      swap2\n      swap1\n      pop\n      jump\t// out\n        /* \"#utility.yul\":7102:7195   */\n    tag_170:\n        /* \"#utility.yul\":7139:7145   */\n      0x00\n        /* \"#utility.yul\":7186:7188   */\n      0x20\n        /* \"#utility.yul\":7181:7183   */\n      0x1f\n        /* \"#utility.yul\":7174:7179   */\n      dup4\n        /* \"#utility.yul\":7170:7184   */\n      add\n        /* \"#utility.yul\":7166:7189   */\n      div\n        /* \"#utility.yul\":7156:7189   */\n      swap1\n      pop\n        /* \"#utility.yul\":7102:7195   */\n      swap2\n      swap1\n      pop\n      jump\t// out\n        /* \"#utility.yul\":7201:7308   */\n    tag_171:\n        /* \"#utility.yul\":7245:7253   */\n      0x00\n        /* \"#utility.yul\":7295:7300   */\n      dup3\n        /* \"#utility.yul\":7289:7293   */\n      dup3\n        /* \"#utility.yul\":7285:7301   */\n      shl\n        /* \"#utility.yul\":7264:7301   */\n      swap1\n      pop\n        /* \"#utility.yul\":7201:7308   */\n      swap3\n      swap2\n      pop\n      pop\n      jump\t// out\n        /* \"#utility.yul\":7314:7707   */\n    tag_172:\n        /* \"#utility.yul\":7383:7389   */\n      0x00\n        /* \"#utility.yul\":7433:7434   */\n      0x08\n        /* \"#utility.yul\":7421:7431   */\n      dup4\n        /* \"#utility.yul\":7417:7435   */\n      mul\n        /* \"#utility.yul\":7456:7553   */\n      tag_283\n        /* \"#utility.yul\":7486:7552   */\n      0xffffffffffffffffffffffffffffffffffffffffffffffffffffffffffffffff\n        /* \"#utility.yul\":7475:7484   */\n      dup3\n        /* \"#utility.yul\":7456:7553   */\n      tag_171\n      jump\t// in\n    tag_283:\n        /* \"#utility.yul\":7574:7613   */\n      tag_284\n        /* \"#utility.yul\":7604:7612   */\n      dup7\n        /* \"#utility.yul\":7593:7602   */\n      dup4\n        /* \"#utility.yul\":7574:7613   */\n      tag_171\n      jump\t// in\n    tag_284:\n        /* \"#utility.yul\":7562:7613   */\n      swap6\n      pop\n        /* \"#utility.yul\":7646:7650   */\n      dup1\n        /* \"#utility.yul\":7642:7651   */\n      not\n        /* \"#utility.yul\":7635:7640   */\n      dup5\n        /* \"#utility.yul\":7631:7652   */\n      and\n        /* \"#utility.yul\":7622:7652   */\n      swap4\n      pop\n        /* \"#utility.yul\":7695:7699   */\n      dup1\n        /* \"#utility.yul\":7685:7693   */\n      dup7\n        /* \"#utility.yul\":7681:7700   */\n      and\n        /* \"#utility.yul\":7674:7679   */\n      dup5\n        /* \"#utility.yul\":7671:7701   */\n      or\n        /* \"#utility.yul\":7661:7701   */\n      swap3\n      pop\n        /* \"#utility.yul\":7390:7707   */\n      pop\n      pop\n        /* \"#utility.yul\":7314:7707   */\n      swap4\n      swap3\n      pop\n      pop\n      pop\n      jump\t// out\n        /* \"#utility.yul\":7713:7773   */\n    tag_173:\n        /* \"#utility.yul\":7741:7744   */\n      0x00\n        /* \"#utility.yul\":7762:7767   */\n      dup2\n        /* \"#utility.yul\":7755:7767   */\n      swap1\n      pop\n        /* \"#utility.yul\":7713:7773   */\n      swap2\n      swap1\n      pop\n      jump\t// out\n        /* \"#utility.yul\":7779:7921   */\n    tag_174:\n        /* \"#utility.yul\":7829:7838   */\n      0x00\n        /* \"#utility.yul\":7862:7915   */\n      tag_287\n        /* \"#utility.yul\":7880:7914   */\n      tag_288\n        /* \"#utility.yul\":7889:7913   */\n      tag_289\n        /* \"#utility.yul\":7907:7912   */\n      dup5\n        /* \"#utility.yul\":7889:7913   */\n      tag_159\n      jump\t// in\n    tag_289:\n        /* \"#utility.yul\":7880:7914   */\n      tag_173\n      jump\t// in\n    tag_288:\n        /* \"#utility.yul\":7862:7915   */\n      tag_159\n      jump\t// in\n    tag_287:\n        /* \"#utility.yul\":7849:7915   */\n      swap1\n      pop\n        /* \"#utility.yul\":7779:7921   */\n      swap2\n      swap1\n      pop\n      jump\t// out\n        /* \"#utility.yul\":7927:8002   */\n    tag_175:\n        /* \"#utility.yul\":7970:7973   */\n      0x00\n        /* \"#utility.yul\":7991:7996   */\n      dup2\n        /* \"#utility.yul\":7984:7996   */\n      swap1\n      pop\n        /* \"#utility.yul\":7927:8002   */\n      swap2\n      swap1\n      pop\n      jump\t// out\n        /* \"#utility.yul\":8008:8277   */\n    tag_176:\n        /* \"#utility.yul\":8118:8157   */\n      tag_292\n        /* \"#utility.yul\":8149:8156   */\n      dup4\n        /* \"#utility.yul\":8118:8157   */\n      tag_174\n      jump\t// in\n    tag_292:\n        /* \"#utility.yul\":8179:8270   */\n      tag_293\n        /* \"#utility.yul\":8228:8269   */\n      tag_294\n        /* \"#utility.yul\":8252:8268   */\n      dup3\n        /* \"#utility.yul\":8228:8269   */\n      tag_175\n      jump\t// in\n    tag_294:\n        /* \"#utility.yul\":8220:8226   */\n      dup5\n        /* \"#utility.yul\":8213:8217   */\n      dup5\n        /* \"#utility.yul\":8207:8218   */\n      sload\n        /* \"#utility.yul\":8179:8270   */\n      tag_172\n      jump\t// in\n    tag_293:\n        /* \"#utility.yul\":8173:8177   */\n      dup3\n        /* \"#utility.yul\":8166:8271   */\n      sstore\n        /* \"#utility.yul\":8084:8277   */\n      pop\n        /* \"#utility.yul\":8008:8277   */\n      pop\n      pop\n      pop\n      jump\t// out\n        /* \"#utility.yul\":8283:8356   */\n    tag_177:\n        /* \"#utility.yul\":8328:8331   */\n      0x00\n        /* \"#utility.yul\":8349:8350   */\n      0x00\n        /* \"#utility.yul\":8342:8350   */\n      swap1\n      pop\n        /* \"#utility.yul\":8283:8356   */\n      swap1\n      jump\t// out\n        /* \"#utility.yul\":8362:8551   */\n    tag_178:\n        /* \"#utility.yul\":8439:8471   */\n      tag_297\n      tag_177\n      jump\t// in\n    tag_297:\n        /* \"#utility.yul\":8480:8545   */\n      tag_298\n        /* \"#utility.yul\":8538:8544   */\n      dup2\n        /* \"#utility.yul\":8530:8536   */\n      dup5\n        /* \"#utility.yul\":8524:8528   */\n      dup5\n        /* \"#utility.yul\":8480:8545   */\n      tag_176\n      jump\t// in\n    tag_298:\n        /* \"#utility.yul\":8415:8551   */\n      pop\n        /* \"#utility.yul\":8362:8551   */\n      pop\n      pop\n      jump\t// out\n        /* \"#utility.yul\":8557:8771   */\n    tag_179:\n        /* \"#utility.yul\":8642:8643   */\n      0x00\n        /* \"#utility.yul\":8627:8765   */\n    tag_300:\n        /* \"#utility.yul\":8652:8661   */\n      dup3\n        /* \"#utility.yul\":8649:8650   */\n      dup2\n        /* \"#utility.yul\":8646:8662   */\n      lt\n        /* \"#utility.yul\":8627:8765   */\n      iszero\n      tag_302\n      jumpi\n        /* \"#utility.yul\":8704:8755   */\n      tag_303\n        /* \"#utility.yul\":8753:8754   */\n      0x00\n        /* \"#utility.yul\":8749:8750   */\n      dup3\n        /* \"#utility.yul\":8738:8747   */\n      dup5\n        /* \"#utility.yul\":8734:8751   */\n      add\n        /* \"#utility.yul\":8704:8755   */\n      tag_178\n      jump\t// in\n    tag_303:\n        /* \"#utility.yul\":8677:8678   */\n      0x01\n        /* \"#utility.yul\":8674:8675   */\n      dup2\n        /* \"#utility.yul\":8670:8679   */\n      add\n        /* \"#utility.yul\":8665:8679   */\n      swap1\n      pop\n        /* \"#utility.yul\":8627:8765   */\n      jump(tag_300)\n    tag_302:\n        /* \"#utility.yul\":8631:8645   */\n      pop\n        /* \"#utility.yul\":8557:8771   */\n      pop\n      pop\n      jump\t// out\n        /* \"#utility.yul\":8777:9521   */\n    tag_180:\n        /* \"#utility.yul\":8877:8879   */\n      0x1f\n        /* \"#utility.yul\":8872:8875   */\n      dup3\n        /* \"#utility.yul\":8869:8880   */\n      gt\n        /* \"#utility.yul\":8866:9514   */\n      iszero\n      tag_305\n      jumpi\n        /* \"#utility.yul\":8906:8916   */\n      dup3\n        /* \"#utility.yul\":8901:8904   */\n      dup3\n        /* \"#utility.yul\":8898:8917   */\n      gt\n        /* \"#utility.yul\":8895:9504   */\n      iszero\n      tag_306\n      jumpi\n        /* \"#utility.yul\":8952:8989   */\n      tag_307\n        /* \"#utility.yul\":8983:8988   */\n      dup2\n        /* \"#utility.yul\":8952:8989   */\n      tag_169\n      jump\t// in\n    tag_307:\n        /* \"#utility.yul\":9026:9048   */\n      tag_308\n        /* \"#utility.yul\":9044:9047   */\n      dup4\n        /* \"#utility.yul\":9026:9048   */\n      tag_170\n      jump\t// in\n    tag_308:\n        /* \"#utility.yul\":9085:9114   */\n      tag_309\n        /* \"#utility.yul\":9103:9113   */\n      dup6\n        /* \"#utility.yul\":9085:9114   */\n      tag_170\n      jump\t// in\n    tag_309:\n        /* \"#utility.yul\":9275:9277   */\n      0x20\n        /* \"#utility.yul\":9263:9273   */\n      dup7\n        /* \"#utility.yul\":9260:9278   */\n      lt\n        /* \"#utility.yul\":9257:9336   */\n      iszero\n      tag_310\n      jumpi\n        /* \"#utility.yul\":9317:9318   */\n      0x00\n        /* \"#utility.yul\":9301:9318   */\n      swap1\n      pop\n        /* \"#utility.yul\":9257:9336   */\n    tag_310:\n        /* \"#utility.yul\":9386:9398   */\n      dup1\n        /* \"#utility.yul\":9376:9384   */\n      dup4\n        /* \"#utility.yul\":9372:9399   */\n      add\n        /* \"#utility.yul\":9416:9490   */\n      tag_311\n        /* \"#utility.yul\":9476:9488   */\n      dup3\n        /* \"#utility.yul\":9462:9474   */\n      dup5\n        /* \"#utility.yul\":9458:9489   */\n      sub\n        /* \"#utility.yul\":9445:9456   */\n      dup3\n        /* \"#utility.yul\":9416:9490   */\n      tag_179\n      jump\t// in\n    tag_311:\n        /* \"#utility.yul\":8918:9504   */\n      pop\n      pop\n      pop\n      pop\n        /* \"#utility.yul\":8895:9504   */\n    tag_306:\n        /* \"#utility.yul\":8866:9514   */\n    tag_305:\n        /* \"#utility.yul\":8777:9521   */\n      pop\n      pop\n      pop\n      jump\t// out\n        /* \"#utility.yul\":9527:9644   */\n    tag_181:\n        /* \"#utility.yul\":9581:9589   */\n      0x00\n        /* \"#utility.yul\":9631:9636   */\n      dup3\n        /* \"#utility.yul\":9625:9629   */\n      dup3\n        /* \"#utility.yul\":9621:9637   */\n      shr\n        /* \"#utility.yul\":9600:9637   */\n      swap1\n      pop\n        /* \"#utility.yul\":9527:9644   */\n      swap3\n      swap2\n      pop\n      pop\n      jump\t// out\n        /* \"#utility.yul\":9650:9819   */\n    tag_182:\n        /* \"#utility.yul\":9694:9700   */\n      0x00\n        /* \"#utility.yul\":9727:9778   */\n      tag_314\n        /* \"#utility.yul\":9775:9776   */\n      0x00\n        /* \"#utility.yul\":9771:9777   */\n      not\n        /* \"#utility.yul\":9763:9768   */\n      dup5\n        /* \"#utility.yul\":9760:9761   */\n      0x08\n        /* \"#utility.yul\":9756:9769   */\n      mul\n        /* \"#utility.yul\":9727:9778   */\n      tag_181\n      jump\t// in\n    tag_314:\n        /* \"#utility.yul\":9723:9779   */\n      not\n        /* \"#utility.yul\":9808:9812   */\n      dup1\n        /* \"#utility.yul\":9802:9806   */\n      dup4\n        /* \"#utility.yul\":9798:9813   */\n      and\n        /* \"#utility.yul\":9788:9813   */\n      swap2\n      pop\n        /* \"#utility.yul\":9701:9819   */\n      pop\n        /* \"#utility.yul\":9650:9819   */\n      swap3\n      swap2\n      pop\n      pop\n      jump\t// out\n        /* \"#utility.yul\":9824:10119   */\n    tag_183:\n        /* \"#utility.yul\":9900:9904   */\n      0x00\n        /* \"#utility.yul\":10046:10075   */\n      tag_316\n        /* \"#utility.yul\":10071:10074   */\n      dup4\n        /* \"#utility.yul\":10065:10069   */\n      dup4\n        /* \"#utility.yul\":10046:10075   */\n      tag_182\n      jump\t// in\n    tag_316:\n        /* \"#utility.yul\":10038:10075   */\n      swap2\n      pop\n        /* \"#utility.yul\":10108:10111   */\n      dup3\n        /* \"#utility.yul\":10105:10106   */\n      0x02\n        /* \"#utility.yul\":10101:10112   */\n      mul\n        /* \"#utility.yul\":10095:10099   */\n      dup3\n        /* \"#utility.yul\":10092:10113   */\n      or\n        /* \"#utility.yul\":10084:10113   */\n      swap1\n      pop\n        /* \"#utility.yul\":9824:10119   */\n      swap3\n      swap2\n      pop\n      pop\n      jump\t// out\n        /* \"#utility.yul\":10124:11514   */\n    tag_63:\n        /* \"#utility.yul\":10239:10275   */\n      tag_318\n        /* \"#utility.yul\":10271:10274   */\n      dup3\n        /* \"#utility.yul\":10239:10275   */\n      tag_142\n      jump\t// in\n    tag_318:\n        /* \"#utility.yul\":10340:10358   */\n      0xffffffffffffffff\n        /* \"#utility.yul\":10332:10338   */\n      dup2\n        /* \"#utility.yul\":10329:10359   */\n      gt\n        /* \"#utility.yul\":10326:10382   */\n      iszero\n      tag_319\n      jumpi\n        /* \"#utility.yul\":10362:10380   */\n      tag_320\n      tag_168\n      jump\t// in\n    tag_320:\n        /* \"#utility.yul\":10326:10382   */\n    tag_319:\n        /* \"#utility.yul\":10406:10444   */\n      tag_321\n        /* \"#utility.yul\":10438:10442   */\n      dup3\n        /* \"#utility.yul\":10432:10443   */\n      sload\n        /* \"#utility.yul\":10406:10444   */\n      tag_49\n      jump\t// in\n    tag_321:\n        /* \"#utility.yul\":10491:10557   */\n      tag_322\n        /* \"#utility.yul\":10550:10556   */\n      dup3\n        /* \"#utility.yul\":10542:10548   */\n      dup3\n        /* \"#utility.yul\":10536:10540   */\n      dup6\n        /* \"#utility.yul\":10491:10557   */\n      tag_180\n      jump\t// in\n    tag_322:\n        /* \"#utility.yul\":10584:10585   */\n      0x00\n        /* \"#utility.yul\":10608:10612   */\n      0x20\n        /* \"#utility.yul\":10595:10612   */\n      swap1\n      pop\n        /* \"#utility.yul\":10640:10642   */\n      0x1f\n        /* \"#utility.yul\":10632:10638   */\n      dup4\n        /* \"#utility.yul\":10629:10643   */\n      gt\n        /* \"#utility.yul\":10657:10658   */\n      0x01\n        /* \"#utility.yul\":10652:11269   */\n      dup2\n      eq\n      tag_324\n      jumpi\n        /* \"#utility.yul\":11313:11314   */\n      0x00\n        /* \"#utility.yul\":11330:11336   */\n      dup5\n        /* \"#utility.yul\":11327:11404   */\n      iszero\n      tag_325\n      jumpi\n        /* \"#utility.yul\":11379:11388   */\n      dup3\n        /* \"#utility.yul\":11374:11377   */\n      dup8\n        /* \"#utility.yul\":11370:11389   */\n      add\n        /* \"#utility.yul\":11364:11390   */\n      mload\n        /* \"#utility.yul\":11355:11390   */\n      swap1\n      pop\n        /* \"#utility.yul\":11327:11404   */\n    tag_325:\n        /* \"#utility.yul\":11430:11497   */\n      tag_326\n        /* \"#utility.yul\":11490:11496   */\n      dup6\n        /* \"#utility.yul\":11483:11488   */\n      dup3\n        /* \"#utility.yul\":11430:11497   */\n      tag_183\n      jump\t// in\n    tag_326:\n        /* \"#utility.yul\":11424:11428   */\n      dup7\n        /* \"#utility.yul\":11417:11498   */\n      sstore\n        /* \"#utility.yul\":11286:11508   */\n      pop\n        /* \"#utility.yul\":10622:11508   */\n      jump(tag_323)\n        /* \"#utility.yul\":10652:11269   */\n    tag_324:\n        /* \"#utility.yul\":10704:10708   */\n      0x1f\n        /* \"#utility.yul\":10700:10709   */\n      not\n        /* \"#utility.yul\":10692:10698   */\n      dup5\n        /* \"#utility.yul\":10688:10710   */\n      and\n        /* \"#utility.yul\":10738:10774   */\n      tag_327\n        /* \"#utility.yul\":10769:10773   */\n      dup7\n        /* \"#utility.yul\":10738:10774   */\n      tag_169\n      jump\t// in\n    tag_327:\n        /* \"#utility.yul\":10796:10797   */\n      0x00\n        /* \"#utility.yul\":10810:11018   */\n    tag_328:\n        /* \"#utility.yul\":10824:10831   */\n      dup3\n        /* \"#utility.yul\":10821:10822   */\n      dup2\n        /* \"#utility.yul\":10818:10832   */\n      lt\n        /* \"#utility.yul\":10810:11018   */\n      iszero\n      tag_330\n      jumpi\n        /* \"#utility.yul\":10903:10912   */\n      dup5\n        /* \"#utility.yul\":10898:10901   */\n      dup10\n        /* \"#utility.yul\":10894:10913   */\n      add\n        /* \"#utility.yul\":10888:10914   */\n      mload\n        /* \"#utility.yul\":10880:10886   */\n      dup3\n        /* \"#utility.yul\":10873:10915   */\n      sstore\n        /* \"#utility.yul\":10954:10955   */\n      0x01\n        /* \"#utility.yul\":10946:10952   */\n      dup3\n        /* \"#utility.yul\":10942:10956   */\n      add\n        /* \"#utility.yul\":10932:10956   */\n      swap2\n      pop\n        /* \"#utility.yul\":11001:11003   */\n      0x20\n        /* \"#utility.yul\":10990:10999   */\n      dup6\n        /* \"#utility.yul\":10986:11004   */\n      add\n        /* \"#utility.yul\":10973:11004   */\n      swap5\n      pop\n        /* \"#utility.yul\":10847:10851   */\n      0x20\n        /* \"#utility.yul\":10844:10845   */\n      dup2\n        /* \"#utility.yul\":10840:10852   */\n      add\n        /* \"#utility.yul\":10835:10852   */\n      swap1\n      pop\n        /* \"#utility.yul\":10810:11018   */\n      jump(tag_328)\n    tag_330:\n        /* \"#utility.yul\":11046:11052   */\n      dup7\n        /* \"#utility.yul\":11037:11044   */\n      dup4\n        /* \"#utility.yul\":11034:11053   */\n      lt\n        /* \"#utility.yul\":11031:11210   */\n      iszero\n      tag_331\n      jumpi\n        /* \"#utility.yul\":11104:11113   */\n      dup5\n        /* \"#utility.yul\":11099:11102   */\n      dup10\n        /* \"#utility.yul\":11095:11114   */\n      add\n        /* \"#utility.yul\":11089:11115   */\n      mload\n        /* \"#utility.yul\":11147:11195   */\n      tag_332\n        /* \"#utility.yul\":11189:11193   */\n      0x1f\n        /* \"#utility.yul\":11181:11187   */\n      dup10\n        /* \"#utility.yul\":11177:11194   */\n      and\n        /* \"#utility.yul\":11166:11175   */\n      dup3\n        /* \"#utility.yul\":11147:11195   */\n      tag_182\n      jump\t// in\n    tag_332:\n        /* \"#utility.yul\":11139:11145   */\n      dup4\n        /* \"#utility.yul\":11132:11196   */\n      sstore\n        /* \"#utility.yul\":11054:11210   */\n      pop\n        /* \"#utility.yul\":11031:11210   */\n    tag_331:\n        /* \"#utility.yul\":11256:11257   */\n      0x01\n        /* \"#utility.yul\":11252:11253   */\n      0x02\n        /* \"#utility.yul\":11244:11250   */\n      dup9\n        /* \"#utility.yul\":11240:11254   */\n      mul\n        /* \"#utility.yul\":11236:11258   */\n      add\n        /* \"#utility.yul\":11230:11234   */\n      dup9\n        /* \"#utility.yul\":11223:11259   */\n      sstore\n        /* \"#utility.yul\":10659:11269   */\n      pop\n      pop\n      pop\n        /* \"#utility.yul\":10622:11508   */\n    tag_323:\n      pop\n        /* \"#utility.yul\":10214:11514   */\n      pop\n      pop\n      pop\n        /* \"#utility.yul\":10124:11514   */\n      pop\n      pop\n      jump\t// out\n        /* \"#utility.yul\":11520:11927   */\n    tag_65:\n        /* \"#utility.yul\":11653:11657   */\n      0x00\n        /* \"#utility.yul\":11691:11693   */\n      0x40\n        /* \"#utility.yul\":11680:11689   */\n      dup3\n        /* \"#utility.yul\":11676:11694   */\n      add\n        /* \"#utility.yul\":11668:11694   */\n      swap1\n      pop\n        /* \"#utility.yul\":11704:11769   */\n      tag_334\n        /* \"#utility.yul\":11766:11767   */\n      0x00\n        /* \"#utility.yul\":11755:11764   */\n      dup4\n        /* \"#utility.yul\":11751:11768   */\n      add\n        /* \"#utility.yul\":11742:11748   */\n      dup6\n        /* \"#utility.yul\":11704:11769   */\n      tag_158\n      jump\t// in\n    tag_334:\n        /* \"#utility.yul\":11816:11825   */\n      dup2\n        /* \"#utility.yul\":11810:11814   */\n      dup2\n        /* \"#utility.yul\":11806:11826   */\n      sub\n        /* \"#utility.yul\":11801:11803   */\n      0x20\n        /* \"#utility.yul\":11790:11799   */\n      dup4\n        /* \"#utility.yul\":11786:11804   */\n      add\n        /* \"#utility.yul\":11779:11827   */\n      mstore\n        /* \"#utility.yul\":11844:11920   */\n      tag_335\n        /* \"#utility.yul\":11915:11919   */\n      dup2\n        /* \"#utility.yul\":11906:11912   */\n      dup5\n        /* \"#utility.yul\":11844:11920   */\n      tag_146\n      jump\t// in\n    tag_335:\n        /* \"#utility.yul\":11836:11920   */\n      swap1\n      pop\n        /* \"#utility.yul\":11520:11927   */\n      swap4\n      swap3\n      pop\n      pop\n      pop\n      jump\t// out\n        /* \"#utility.yul\":11933:12074   */\n    tag_184:\n        /* \"#utility.yul\":11982:11986   */\n      0x00\n        /* \"#utility.yul\":12005:12008   */\n      dup2\n        /* \"#utility.yul\":11997:12008   */\n      swap1\n      pop\n        /* \"#utility.yul\":12028:12031   */\n      dup2\n        /* \"#utility.yul\":12025:12026   */\n      0x00\n        /* \"#utility.yul\":12018:12032   */\n      mstore\n        /* \"#utility.yul\":12062:12066   */\n      0x20\n        /* \"#utility.yul\":12059:12060   */\n      0x00\n        /* \"#utility.yul\":12049:12067   */\n      keccak256\n        /* \"#utility.yul\":12041:12067   */\n      swap1\n      pop\n        /* \"#utility.yul\":11933:12074   */\n      swap2\n      swap1\n      pop\n      jump\t// out\n        /* \"#utility.yul\":12080:12826   */\n    tag_185:\n        /* \"#utility.yul\":12181:12183   */\n      0x1f\n        /* \"#utility.yul\":12176:12179   */\n      dup3\n        /* \"#utility.yul\":12173:12184   */\n      gt\n        /* \"#utility.yul\":12170:12819   */\n      iszero\n      tag_338\n      jumpi\n        /* \"#utility.yul\":12210:12220   */\n      dup3\n        /* \"#utility.yul\":12205:12208   */\n      dup3\n        /* \"#utility.yul\":12202:12221   */\n      gt\n        /* \"#utility.yul\":12199:12809   */\n      iszero\n      tag_339\n      jumpi\n        /* \"#utility.yul\":12256:12294   */\n      tag_340\n        /* \"#utility.yul\":12288:12293   */\n      dup2\n        /* \"#utility.yul\":12256:12294   */\n      tag_184\n      jump\t// in\n    tag_340:\n        /* \"#utility.yul\":12331:12353   */\n      tag_341\n        /* \"#utility.yul\":12349:12352   */\n      dup4\n        /* \"#utility.yul\":12331:12353   */\n      tag_170\n      jump\t// in\n    tag_341:\n        /* \"#utility.yul\":12390:12419   */\n      tag_342\n        /* \"#utility.yul\":12408:12418   */\n      dup6\n        /* \"#utility.yul\":12390:12419   */\n      tag_170\n      jump\t// in\n    tag_342:\n        /* \"#utility.yul\":12580:12582   */\n      0x20\n        /* \"#utility.yul\":12568:12578   */\n      dup7\n        /* \"#utility.yul\":12565:12583   */\n      lt\n        /* \"#utility.yul\":12562:12641   */\n      iszero\n      tag_343\n      jumpi\n        /* \"#utility.yul\":12622:12623   */\n      0x00\n        /* \"#utility.yul\":12606:12623   */\n      swap1\n      pop\n        /* \"#utility.yul\":12562:12641   */\n    tag_343:\n        /* \"#utility.yul\":12691:12703   */\n      dup1\n        /* \"#utility.yul\":12681:12689   */\n      dup4\n        /* \"#utility.yul\":12677:12704   */\n      add\n        /* \"#utility.yul\":12721:12795   */\n      tag_344\n        /* \"#utility.yul\":12781:12793   */\n      dup3\n        /* \"#utility.yul\":12767:12779   */\n      dup5\n        /* \"#utility.yul\":12763:12794   */\n      sub\n        /* \"#utility.yul\":12750:12761   */\n      dup3\n        /* \"#utility.yul\":12721:12795   */\n      tag_179\n      jump\t// in\n    tag_344:\n        /* \"#utility.yul\":12222:12809   */\n      pop\n      pop\n      pop\n      pop\n        /* \"#utility.yul\":12199:12809   */\n    tag_339:\n        /* \"#utility.yul\":12170:12819   */\n    tag_338:\n        /* \"#utility.yul\":12080:12826   */\n      pop\n      pop\n      pop\n      jump\t// out\n        /* \"#utility.yul\":12832:14227   */\n    tag_70:\n        /* \"#utility.yul\":12949:12986   */\n      tag_346\n        /* \"#utility.yul\":12982:12985   */\n      dup3\n        /* \"#utility.yul\":12949:12986   */\n      tag_161\n      jump\t// in\n    tag_346:\n        /* \"#utility.yul\":13051:13069   */\n      0xffffffffffffffff\n        /* \"#utility.yul\":13043:13049   */\n      dup2\n        /* \"#utility.yul\":13040:13070   */\n      gt\n        /* \"#utility.yul\":13037:13093   */\n      iszero\n      tag_347\n      jumpi\n        /* \"#utility.yul\":13073:13091   */\n      tag_348\n      tag_168\n      jump\t// in\n    tag_348:\n        /* \"#utility.yul\":13037:13093   */\n    tag_347:\n        /* \"#utility.yul\":13117:13155   */\n      tag_349\n        /* \"#utility.yul\":13149:13153   */\n      dup3\n        /* \"#utility.yul\":13143:13154   */\n      sload\n        /* \"#utility.yul\":13117:13155   */\n      tag_49\n      jump\t// in\n    tag_349:\n        /* \"#utility.yul\":13202:13269   */\n      tag_350\n        /* \"#utility.yul\":13262:13268   */\n      dup3\n        /* \"#utility.yul\":13254:13260   */\n      dup3\n        /* \"#utility.yul\":13248:13252   */\n      dup6\n        /* \"#utility.yul\":13202:13269   */\n      tag_185\n      jump\t// in\n    tag_350:\n        /* \"#utility.yul\":13296:13297   */\n      0x00\n        /* \"#utility.yul\":13320:13324   */\n      0x20\n        /* \"#utility.yul\":13307:13324   */\n      swap1\n      pop\n        /* \"#utility.yul\":13352:13354   */\n      0x1f\n        /* \"#utility.yul\":13344:13350   */\n      dup4\n        /* \"#utility.yul\":13341:13355   */\n      gt\n        /* \"#utility.yul\":13369:13370   */\n      0x01\n        /* \"#utility.yul\":13364:13982   */\n      dup2\n      eq\n      tag_352\n      jumpi\n        /* \"#utility.yul\":14026:14027   */\n      0x00\n        /* \"#utility.yul\":14043:14049   */\n      dup5\n        /* \"#utility.yul\":14040:14117   */\n      iszero\n      tag_353\n      jumpi\n        /* \"#utility.yul\":14092:14101   */\n      dup3\n        /* \"#utility.yul\":14087:14090   */\n      dup8\n        /* \"#utility.yul\":14083:14102   */\n      add\n        /* \"#utility.yul\":14077:14103   */\n      mload\n        /* \"#utility.yul\":14068:14103   */\n      swap1\n      pop\n        /* \"#utility.yul\":14040:14117   */\n    tag_353:\n        /* \"#utility.yul\":14143:14210   */\n      tag_354\n        /* \"#utility.yul\":14203:14209   */\n      dup6\n        /* \"#utility.yul\":14196:14201   */\n      dup3\n        /* \"#utility.yul\":14143:14210   */\n      tag_183\n      jump\t// in\n    tag_354:\n        /* \"#utility.yul\":14137:14141   */\n      dup7\n        /* \"#utility.yul\":14130:14211   */\n      sstore\n        /* \"#utility.yul\":13999:14221   */\n      pop\n        /* \"#utility.yul\":13334:14221   */\n      jump(tag_351)\n        /* \"#utility.yul\":13364:13982   */\n    tag_352:\n        /* \"#utility.yul\":13416:13420   */\n      0x1f\n        /* \"#utility.yul\":13412:13421   */\n      not\n        /* \"#utility.yul\":13404:13410   */\n      dup5\n        /* \"#utility.yul\":13400:13422   */\n      and\n        /* \"#utility.yul\":13450:13487   */\n      tag_355\n        /* \"#utility.yul\":13482:13486   */\n      dup7\n        /* \"#utility.yul\":13450:13487   */\n      tag_184\n      jump\t// in\n    tag_355:\n        /* \"#utility.yul\":13509:13510   */\n      0x00\n        /* \"#utility.yul\":13523:13731   */\n    tag_356:\n        /* \"#utility.yul\":13537:13544   */\n      dup3\n        /* \"#utility.yul\":13534:13535   */\n      dup2\n        /* \"#utility.yul\":13531:13545   */\n      lt\n        /* \"#utility.yul\":13523:13731   */\n      iszero\n      tag_358\n      jumpi\n        /* \"#utility.yul\":13616:13625   */\n      dup5\n        /* \"#utility.yul\":13611:13614   */\n      dup10\n        /* \"#utility.yul\":13607:13626   */\n      add\n        /* \"#utility.yul\":13601:13627   */\n      mload\n        /* \"#utility.yul\":13593:13599   */\n      dup3\n        /* \"#utility.yul\":13586:13628   */\n      sstore\n        /* \"#utility.yul\":13667:13668   */\n      0x01\n        /* \"#utility.yul\":13659:13665   */\n      dup3\n        /* \"#utility.yul\":13655:13669   */\n      add\n        /* \"#utility.yul\":13645:13669   */\n      swap2\n      pop\n        /* \"#utility.yul\":13714:13716   */\n      0x20\n        /* \"#utility.yul\":13703:13712   */\n      dup6\n        /* \"#utility.yul\":13699:13717   */\n      add\n        /* \"#utility.yul\":13686:13717   */\n      swap5\n      pop\n        /* \"#utility.yul\":13560:13564   */\n      0x20\n        /* \"#utility.yul\":13557:13558   */\n      dup2\n        /* \"#utility.yul\":13553:13565   */\n      add\n        /* \"#utility.yul\":13548:13565   */\n      swap1\n      pop\n        /* \"#utility.yul\":13523:13731   */\n      jump(tag_356)\n    tag_358:\n        /* \"#utility.yul\":13759:13765   */\n      dup7\n        /* \"#utility.yul\":13750:13757   */\n      dup4\n        /* \"#utility.yul\":13747:13766   */\n      lt\n        /* \"#utility.yul\":13744:13923   */\n      iszero\n      tag_359\n      jumpi\n        /* \"#utility.yul\":13817:13826   */\n      dup5\n        /* \"#utility.yul\":13812:13815   */\n      dup10\n        /* \"#utility.yul\":13808:13827   */\n      add\n        /* \"#utility.yul\":13802:13828   */\n      mload\n        /* \"#utility.yul\":13860:13908   */\n      tag_360\n        /* \"#utility.yul\":13902:13906   */\n      0x1f\n        /* \"#utility.yul\":13894:13900   */\n      dup10\n        /* \"#utility.yul\":13890:13907   */\n      and\n        /* \"#utility.yul\":13879:13888   */\n      dup3\n        /* \"#utility.yul\":13860:13908   */\n      tag_182\n      jump\t// in\n    tag_360:\n        /* \"#utility.yul\":13852:13858   */\n      dup4\n        /* \"#utility.yul\":13845:13909   */\n      sstore\n        /* \"#utility.yul\":13767:13923   */\n      pop\n        /* \"#utility.yul\":13744:13923   */\n    tag_359:\n        /* \"#utility.yul\":13969:13970   */\n      0x01\n        /* \"#utility.yul\":13965:13966   */\n      0x02\n        /* \"#utility.yul\":13957:13963   */\n      dup9\n        /* \"#utility.yul\":13953:13967   */\n      mul\n        /* \"#utility.yul\":13949:13971   */\n      add\n        /* \"#utility.yul\":13943:13947   */\n      dup9\n        /* \"#utility.yul\":13936:13972   */\n      sstore\n        /* \"#utility.yul\":13371:13982   */\n      pop\n      pop\n      pop\n        /* \"#utility.yul\":13334:14221   */\n    tag_351:\n      pop\n        /* \"#utility.yul\":12924:14227   */\n      pop\n      pop\n      pop\n        /* \"#utility.yul\":12832:14227   */\n      pop\n      pop\n      jump\t// out\n        /* \"#utility.yul\":14233:14405   */\n    tag_186:\n        /* \"#utility.yul\":14373:14397   */\n      0x45787465726e616c2063616c6c20726576657274656400000000000000000000\n        /* \"#utility.yul\":14369:14370   */\n      0x00\n        /* \"#utility.yul\":14361:14367   */\n      dup3\n        /* \"#utility.yul\":14357:14371   */\n      add\n        /* \"#utility.yul\":14350:14398   */\n      mstore\n        /* \"#utility.yul\":14233:14405   */\n      pop\n      jump\t// out\n        /* \"#utility.yul\":14411:14777   */\n    tag_187:\n        /* \"#utility.yul\":14553:14556   */\n      0x00\n        /* \"#utility.yul\":14574:14641   */\n      tag_363\n        /* \"#utility.yul\":14638:14640   */\n      0x16\n        /* \"#utility.yul\":14633:14636   */\n      dup4\n        /* \"#utility.yul\":14574:14641   */\n      tag_162\n      jump\t// in\n    tag_363:\n        /* \"#utility.yul\":14567:14641   */\n      swap2\n      pop\n        /* \"#utility.yul\":14650:14743   */\n      tag_364\n        /* \"#utility.yul\":14739:14742   */\n      dup3\n        /* \"#utility.yul\":14650:14743   */\n      tag_186\n      jump\t// in\n    tag_364:\n        /* \"#utility.yul\":14768:14770   */\n      0x20\n        /* \"#utility.yul\":14763:14766   */\n      dup3\n        /* \"#utility.yul\":14759:14771   */\n      add\n        /* \"#utility.yul\":14752:14771   */\n      swap1\n      pop\n        /* \"#utility.yul\":14411:14777   */\n      swap2\n      swap1\n      pop\n      jump\t// out\n        /* \"#utility.yul\":14783:15202   */\n    tag_74:\n        /* \"#utility.yul\":14949:14953   */\n      0x00\n        /* \"#utility.yul\":14987:14989   */\n      0x20\n        /* \"#utility.yul\":14976:14985   */\n      dup3\n        /* \"#utility.yul\":14972:14990   */\n      add\n        /* \"#utility.yul\":14964:14990   */\n      swap1\n      pop\n        /* \"#utility.yul\":15036:15045   */\n      dup2\n        /* \"#utility.yul\":15030:15034   */\n      dup2\n        /* \"#utility.yul\":15026:15046   */\n      sub\n        /* \"#utility.yul\":15022:15023   */\n      0x00\n        /* \"#utility.yul\":15011:15020   */\n      dup4\n        /* \"#utility.yul\":15007:15024   */\n      add\n        /* \"#utility.yul\":15000:15047   */\n      mstore\n        /* \"#utility.yul\":15064:15195   */\n      tag_366\n        /* \"#utility.yul\":15190:15194   */\n      dup2\n        /* \"#utility.yul\":15064:15195   */\n      tag_187\n      jump\t// in\n    tag_366:\n        /* \"#utility.yul\":15056:15195   */\n      swap1\n      pop\n        /* \"#utility.yul\":14783:15202   */\n      swap2\n      swap1\n      pop\n      jump\t// out\n        /* \"#utility.yul\":15208:15322   */\n    tag_188:\n      pop\n      jump\t// out\n        /* \"#utility.yul\":15328:15726   */\n    tag_189:\n        /* \"#utility.yul\":15487:15490   */\n      0x00\n        /* \"#utility.yul\":15508:15591   */\n      tag_369\n        /* \"#utility.yul\":15589:15590   */\n      0x00\n        /* \"#utility.yul\":15584:15587   */\n      dup4\n        /* \"#utility.yul\":15508:15591   */\n      tag_166\n      jump\t// in\n    tag_369:\n        /* \"#utility.yul\":15501:15591   */\n      swap2\n      pop\n        /* \"#utility.yul\":15600:15693   */\n      tag_370\n        /* \"#utility.yul\":15689:15692   */\n      dup3\n        /* \"#utility.yul\":15600:15693   */\n      tag_188\n      jump\t// in\n    tag_370:\n        /* \"#utility.yul\":15718:15719   */\n      0x00\n        /* \"#utility.yul\":15713:15716   */\n      dup3\n        /* \"#utility.yul\":15709:15720   */\n      add\n        /* \"#utility.yul\":15702:15720   */\n      swap1\n      pop\n        /* \"#utility.yul\":15328:15726   */\n      swap2\n      swap1\n      pop\n      jump\t// out\n        /* \"#utility.yul\":15732:16111   */\n    tag_77:\n        /* \"#utility.yul\":15916:15919   */\n      0x00\n        /* \"#utility.yul\":15938:16085   */\n      tag_372\n        /* \"#utility.yul\":16081:16084   */\n      dup3\n        /* \"#utility.yul\":15938:16085   */\n      tag_189\n      jump\t// in\n    tag_372:\n        /* \"#utility.yul\":15931:16085   */\n      swap2\n      pop\n        /* \"#utility.yul\":16102:16105   */\n      dup2\n        /* \"#utility.yul\":16095:16105   */\n      swap1\n      pop\n        /* \"#utility.yul\":15732:16111   */\n      swap2\n      swap1\n      pop\n      jump\t// out\n        /* \"#utility.yul\":16117:16286   */\n    tag_190:\n        /* \"#utility.yul\":16257:16278   */\n      0x455448207472616e73666572206661696c656400000000000000000000000000\n        /* \"#utility.yul\":16253:16254   */\n      0x00\n        /* \"#utility.yul\":16245:16251   */\n      dup3\n        /* \"#utility.yul\":16241:16255   */\n      add\n        /* \"#utility.yul\":16234:16279   */\n      mstore\n        /* \"#utility.yul\":16117:16286   */\n      pop\n      jump\t// out\n        /* \"#utility.yul\":16292:16658   */\n    tag_191:\n        /* \"#utility.yul\":16434:16437   */\n      0x00\n        /* \"#utility.yul\":16455:16522   */\n      tag_375\n        /* \"#utility.yul\":16519:16521   */\n      0x13\n        /* \"#utility.yul\":16514:16517   */\n      dup4\n        /* \"#utility.yul\":16455:16522   */\n      tag_162\n      jump\t// in\n    tag_375:\n        /* \"#utility.yul\":16448:16522   */\n      swap2\n      pop\n        /* \"#utility.yul\":16531:16624   */\n      tag_376\n        /* \"#utility.yul\":16620:16623   */\n      dup3\n        /* \"#utility.yul\":16531:16624   */\n      tag_190\n      jump\t// in\n    tag_376:\n        /* \"#utility.yul\":16649:16651   */\n      0x20\n        /* \"#utility.yul\":16644:16647   */\n      dup3\n        /* \"#utility.yul\":16640:16652   */\n      add\n        /* \"#utility.yul\":16633:16652   */\n      swap1\n      pop\n        /* \"#utility.yul\":16292:16658   */\n      swap2\n      swap1\n      pop\n      jump\t// out\n        /* \"#utility.yul\":16664:17083   */\n    tag_89:\n        /* \"#utility.yul\":16830:16834   */\n      0x00\n        /* \"#utility.yul\":16868:16870   */\n      0x20\n        /* \"#utility.yul\":16857:16866   */\n      dup3\n        /* \"#utility.yul\":16853:16871   */\n      add\n        /* \"#utility.yul\":16845:16871   */\n      swap1\n      pop\n        /* \"#utility.yul\":16917:16926   */\n      dup2\n        /* \"#utility.yul\":16911:16915   */\n      dup2\n        /* \"#utility.yul\":16907:16927   */\n      sub\n        /* \"#utility.yul\":16903:16904   */\n      0x00\n        /* \"#utility.yul\":16892:16901   */\n      dup4\n        /* \"#utility.yul\":16888:16905   */\n      add\n        /* \"#utility.yul\":16881:16928   */\n      mstore\n        /* \"#utility.yul\":16945:17076   */\n      tag_378\n        /* \"#utility.yul\":17071:17075   */\n      dup2\n        /* \"#utility.yul\":16945:17076   */\n      tag_191\n      jump\t// in\n    tag_378:\n        /* \"#utility.yul\":16937:17076   */\n      swap1\n      pop\n        /* \"#utility.yul\":16664:17083   */\n      swap2\n      swap1\n      pop\n      jump\t// out\n        /* \"#utility.yul\":17089:17268   */\n    tag_192:\n        /* \"#utility.yul\":17229:17260   */\n      0x45787465726e616c2066756e6374696f6e2063616c6c206661696c6564000000\n        /* \"#utility.yul\":17225:17226   */\n      0x00\n        /* \"#utility.yul\":17217:17223   */\n      dup3\n        /* \"#utility.yul\":17213:17227   */\n      add\n        /* \"#utility.yul\":17206:17261   */\n      mstore\n        /* \"#utility.yul\":17089:17268   */\n      pop\n      jump\t// out\n        /* \"#utility.yul\":17274:17640   */\n    tag_193:\n        /* \"#utility.yul\":17416:17419   */\n      0x00\n        /* \"#utility.yul\":17437:17504   */\n      tag_381\n        /* \"#utility.yul\":17501:17503   */\n      0x1d\n        /* \"#utility.yul\":17496:17499   */\n      dup4\n        /* \"#utility.yul\":17437:17504   */\n      tag_162\n      jump\t// in\n    tag_381:\n        /* \"#utility.yul\":17430:17504   */\n      swap2\n      pop\n        /* \"#utility.yul\":17513:17606   */\n      tag_382\n        /* \"#utility.yul\":17602:17605   */\n      dup3\n        /* \"#utility.yul\":17513:17606   */\n      tag_192\n      jump\t// in\n    tag_382:\n        /* \"#utility.yul\":17631:17633   */\n      0x20\n        /* \"#utility.yul\":17626:17629   */\n      dup3\n        /* \"#utility.yul\":17622:17634   */\n      add\n        /* \"#utility.yul\":17615:17634   */\n      swap1\n      pop\n        /* \"#utility.yul\":17274:17640   */\n      swap2\n      swap1\n      pop\n      jump\t// out\n        /* \"#utility.yul\":17646:18065   */\n    tag_104:\n        /* \"#utility.yul\":17812:17816   */\n      0x00\n        /* \"#utility.yul\":17850:17852   */\n      0x20\n        /* \"#utility.yul\":17839:17848   */\n      dup3\n        /* \"#utility.yul\":17835:17853   */\n      add\n        /* \"#utility.yul\":17827:17853   */\n      swap1\n      pop\n        /* \"#utility.yul\":17899:17908   */\n      dup2\n        /* \"#utility.yul\":17893:17897   */\n      dup2\n        /* \"#utility.yul\":17889:17909   */\n      sub\n        /* \"#utility.yul\":17885:17886   */\n      0x00\n        /* \"#utility.yul\":17874:17883   */\n      dup4\n        /* \"#utility.yul\":17870:17887   */\n      add\n        /* \"#utility.yul\":17863:17910   */\n      mstore\n        /* \"#utility.yul\":17927:18058   */\n      tag_384\n        /* \"#utility.yul\":18053:18057   */\n      dup2\n        /* \"#utility.yul\":17927:18058   */\n      tag_193\n      jump\t// in\n    tag_384:\n        /* \"#utility.yul\":17919:18058   */\n      swap1\n      pop\n        /* \"#utility.yul\":17646:18065   */\n      swap2\n      swap1\n      pop\n      jump\t// out\n        /* \"#utility.yul\":18071:18177   */\n    tag_194:\n        /* \"#utility.yul\":18115:18123   */\n      0x00\n        /* \"#utility.yul\":18164:18169   */\n      dup2\n        /* \"#utility.yul\":18159:18162   */\n      0xe0\n        /* \"#utility.yul\":18155:18170   */\n      shr\n        /* \"#utility.yul\":18134:18170   */\n      swap1\n      pop\n        /* \"#utility.yul\":18071:18177   */\n      swap2\n      swap1\n      pop\n      jump\t// out\n        /* \"#utility.yul\":18183:18366   */\n    tag_113:\n        /* \"#utility.yul\":18218:18221   */\n      0x00\n        /* \"#utility.yul\":18256:18257   */\n      0x03\n        /* \"#utility.yul\":18238:18254   */\n      returndatasize\n        /* \"#utility.yul\":18235:18258   */\n      gt\n        /* \"#utility.yul\":18232:18360   */\n      iszero\n      tag_387\n      jumpi\n        /* \"#utility.yul\":18294:18295   */\n      0x04\n        /* \"#utility.yul\":18291:18292   */\n      0x00\n        /* \"#utility.yul\":18288:18289   */\n      0x00\n        /* \"#utility.yul\":18273:18296   */\n      returndatacopy\n        /* \"#utility.yul\":18316:18350   */\n      tag_388\n        /* \"#utility.yul\":18347:18348   */\n      0x00\n        /* \"#utility.yul\":18341:18349   */\n      mload\n        /* \"#utility.yul\":18316:18350   */\n      tag_194\n      jump\t// in\n    tag_388:\n        /* \"#utility.yul\":18309:18350   */\n      swap1\n      pop\n        /* \"#utility.yul\":18232:18360   */\n    tag_387:\n        /* \"#utility.yul\":18183:18366   */\n      swap1\n      jump\t// out\n        /* \"#utility.yul\":18372:18653   */\n    tag_195:\n        /* \"#utility.yul\":18455:18482   */\n      tag_390\n        /* \"#utility.yul\":18477:18481   */\n      dup3\n        /* \"#utility.yul\":18455:18482   */\n      tag_145\n      jump\t// in\n    tag_390:\n        /* \"#utility.yul\":18447:18453   */\n      dup2\n        /* \"#utility.yul\":18443:18483   */\n      add\n        /* \"#utility.yul\":18585:18591   */\n      dup2\n        /* \"#utility.yul\":18573:18583   */\n      dup2\n        /* \"#utility.yul\":18570:18592   */\n      lt\n        /* \"#utility.yul\":18549:18567   */\n      0xffffffffffffffff\n        /* \"#utility.yul\":18537:18547   */\n      dup3\n        /* \"#utility.yul\":18534:18568   */\n      gt\n        /* \"#utility.yul\":18531:18593   */\n      or\n        /* \"#utility.yul\":18528:18616   */\n      iszero\n      tag_391\n      jumpi\n        /* \"#utility.yul\":18596:18614   */\n      tag_392\n      tag_168\n      jump\t// in\n    tag_392:\n        /* \"#utility.yul\":18528:18616   */\n    tag_391:\n        /* \"#utility.yul\":18636:18646   */\n      dup1\n        /* \"#utility.yul\":18632:18634   */\n      0x40\n        /* \"#utility.yul\":18625:18647   */\n      mstore\n        /* \"#utility.yul\":18415:18653   */\n      pop\n        /* \"#utility.yul\":18372:18653   */\n      pop\n      pop\n      jump\t// out\n        /* \"#utility.yul\":18659:19370   */\n    tag_115:\n        /* \"#utility.yul\":18698:18701   */\n      0x00\n        /* \"#utility.yul\":18736:18740   */\n      0x44\n        /* \"#utility.yul\":18718:18734   */\n      returndatasize\n        /* \"#utility.yul\":18715:18741   */\n      lt\n        /* \"#utility.yul\":18744:18749   */\n      tag_393\n        /* \"#utility.yul\":18712:18751   */\n      jumpi\n        /* \"#utility.yul\":18773:18793   */\n      tag_395\n      tag_147\n      jump\t// in\n    tag_395:\n        /* \"#utility.yul\":18848:18849   */\n      0x04\n        /* \"#utility.yul\":18830:18846   */\n      returndatasize\n        /* \"#utility.yul\":18826:18850   */\n      sub\n        /* \"#utility.yul\":18823:18824   */\n      0x04\n        /* \"#utility.yul\":18817:18821   */\n      dup3\n        /* \"#utility.yul\":18802:18851   */\n      returndatacopy\n        /* \"#utility.yul\":18881:18885   */\n      dup1\n        /* \"#utility.yul\":18875:18886   */\n      mload\n        /* \"#utility.yul\":18980:18996   */\n      returndatasize\n        /* \"#utility.yul\":18973:18977   */\n      0x24\n        /* \"#utility.yul\":18965:18971   */\n      dup3\n        /* \"#utility.yul\":18961:18978   */\n      add\n        /* \"#utility.yul\":18958:18997   */\n      gt\n        /* \"#utility.yul\":18925:18943   */\n      0xffffffffffffffff\n        /* \"#utility.yul\":18917:18923   */\n      dup3\n        /* \"#utility.yul\":18914:18944   */\n      gt\n        /* \"#utility.yul\":18898:19011   */\n      or\n        /* \"#utility.yul\":18895:19041   */\n      iszero\n      tag_396\n      jumpi\n        /* \"#utility.yul\":19026:19031   */\n      pop\n      pop\n      jump(tag_393)\n        /* \"#utility.yul\":18895:19041   */\n    tag_396:\n        /* \"#utility.yul\":19072:19078   */\n      dup1\n        /* \"#utility.yul\":19066:19070   */\n      dup3\n        /* \"#utility.yul\":19062:19079   */\n      add\n        /* \"#utility.yul\":19108:19111   */\n      dup1\n        /* \"#utility.yul\":19102:19112   */\n      mload\n        /* \"#utility.yul\":19135:19153   */\n      0xffffffffffffffff\n        /* \"#utility.yul\":19127:19133   */\n      dup2\n        /* \"#utility.yul\":19124:19154   */\n      gt\n        /* \"#utility.yul\":19121:19164   */\n      iszero\n      tag_397\n      jumpi\n        /* \"#utility.yul\":19157:19162   */\n      pop\n      pop\n      pop\n      pop\n      jump(tag_393)\n        /* \"#utility.yul\":19121:19164   */\n    tag_397:\n        /* \"#utility.yul\":19205:19211   */\n      dup1\n        /* \"#utility.yul\":19198:19202   */\n      0x20\n        /* \"#utility.yul\":19193:19196   */\n      dup4\n        /* \"#utility.yul\":19189:19203   */\n      add\n        /* \"#utility.yul\":19185:19212   */\n      add\n        /* \"#utility.yul\":19264:19265   */\n      0x04\n        /* \"#utility.yul\":19246:19262   */\n      returndatasize\n        /* \"#utility.yul\":19242:19266   */\n      sub\n        /* \"#utility.yul\":19236:19240   */\n      dup6\n        /* \"#utility.yul\":19232:19267   */\n      add\n        /* \"#utility.yul\":19227:19230   */\n      dup2\n        /* \"#utility.yul\":19224:19268   */\n      gt\n        /* \"#utility.yul\":19221:19278   */\n      iszero\n      tag_398\n      jumpi\n        /* \"#utility.yul\":19271:19276   */\n      pop\n      pop\n      pop\n      pop\n      pop\n      jump(tag_393)\n        /* \"#utility.yul\":19221:19278   */\n    tag_398:\n        /* \"#utility.yul\":19288:19345   */\n      tag_399\n        /* \"#utility.yul\":19336:19342   */\n      dup3\n        /* \"#utility.yul\":19330:19334   */\n      0x20\n        /* \"#utility.yul\":19326:19343   */\n      add\n        /* \"#utility.yul\":19318:19324   */\n      dup6\n        /* \"#utility.yul\":19314:19344   */\n      add\n        /* \"#utility.yul\":19308:19312   */\n      dup7\n        /* \"#utility.yul\":19288:19345   */\n      tag_195\n      jump\t// in\n    tag_399:\n        /* \"#utility.yul\":19361:19364   */\n      dup3\n        /* \"#utility.yul\":19354:19364   */\n      swap6\n      pop\n        /* \"#utility.yul\":18702:19370   */\n      pop\n      pop\n      pop\n      pop\n      pop\n        /* \"#utility.yul\":18659:19370   */\n    tag_393:\n      swap1\n      jump\t// out\n        /* \"#utility.yul\":19376:19551   */\n    tag_196:\n        /* \"#utility.yul\":19516:19543   */\n      0x537563636573732066756e6374696f6e20657865637574656400000000000000\n        /* \"#utility.yul\":19512:19513   */\n      0x00\n        /* \"#utility.yul\":19504:19510   */\n      dup3\n        /* \"#utility.yul\":19500:19514   */\n      add\n        /* \"#utility.yul\":19493:19544   */\n      mstore\n        /* \"#utility.yul\":19376:19551   */\n      pop\n      jump\t// out\n        /* \"#utility.yul\":19557:19923   */\n    tag_197:\n        /* \"#utility.yul\":19699:19702   */\n      0x00\n        /* \"#utility.yul\":19720:19787   */\n      tag_402\n        /* \"#utility.yul\":19784:19786   */\n      0x19\n        /* \"#utility.yul\":19779:19782   */\n      dup4\n        /* \"#utility.yul\":19720:19787   */\n      tag_162\n      jump\t// in\n    tag_402:\n        /* \"#utility.yul\":19713:19787   */\n      swap2\n      pop\n        /* \"#utility.yul\":19796:19889   */\n      tag_403\n        /* \"#utility.yul\":19885:19888   */\n      dup3\n        /* \"#utility.yul\":19796:19889   */\n      tag_196\n      jump\t// in\n    tag_403:\n        /* \"#utility.yul\":19914:19916   */\n      0x20\n        /* \"#utility.yul\":19909:19912   */\n      dup3\n        /* \"#utility.yul\":19905:19917   */\n      add\n        /* \"#utility.yul\":19898:19917   */\n      swap1\n      pop\n        /* \"#utility.yul\":19557:19923   */\n      swap2\n      swap1\n      pop\n      jump\t// out\n        /* \"#utility.yul\":19929:20348   */\n    tag_120:\n        /* \"#utility.yul\":20095:20099   */\n      0x00\n        /* \"#utility.yul\":20133:20135   */\n      0x20\n        /* \"#utility.yul\":20122:20131   */\n      dup3\n        /* \"#utility.yul\":20118:20136   */\n      add\n        /* \"#utility.yul\":20110:20136   */\n      swap1\n      pop\n        /* \"#utility.yul\":20182:20191   */\n      dup2\n        /* \"#utility.yul\":20176:20180   */\n      dup2\n        /* \"#utility.yul\":20172:20192   */\n      sub\n        /* \"#utility.yul\":20168:20169   */\n      0x00\n        /* \"#utility.yul\":20157:20166   */\n      dup4\n        /* \"#utility.yul\":20153:20170   */\n      add\n        /* \"#utility.yul\":20146:20193   */\n      mstore\n        /* \"#utility.yul\":20210:20341   */\n      tag_405\n        /* \"#utility.yul\":20336:20340   */\n      dup2\n        /* \"#utility.yul\":20210:20341   */\n      tag_197\n      jump\t// in\n    tag_405:\n        /* \"#utility.yul\":20202:20341   */\n      swap1\n      pop\n        /* \"#utility.yul\":19929:20348   */\n      swap2\n      swap1\n      pop\n      jump\t// out\n        /* \"#utility.yul\":20354:20471   */\n    tag_198:\n        /* \"#utility.yul\":20463:20464   */\n      0x00\n        /* \"#utility.yul\":20460:20461   */\n      0x00\n        /* \"#utility.yul\":20453:20465   */\n      revert\n        /* \"#utility.yul\":20477:20594   */\n    tag_199:\n        /* \"#utility.yul\":20586:20587   */\n      0x00\n        /* \"#utility.yul\":20583:20584   */\n      0x00\n        /* \"#utility.yul\":20576:20588   */\n      revert\n        /* \"#utility.yul\":20600:20729   */\n    tag_200:\n        /* \"#utility.yul\":20634:20640   */\n      0x00\n        /* \"#utility.yul\":20661:20681   */\n      tag_409\n      tag_147\n      jump\t// in\n    tag_409:\n        /* \"#utility.yul\":20651:20681   */\n      swap1\n      pop\n        /* \"#utility.yul\":20690:20723   */\n      tag_410\n        /* \"#utility.yul\":20718:20722   */\n      dup3\n        /* \"#utility.yul\":20710:20716   */\n      dup3\n        /* \"#utility.yul\":20690:20723   */\n      tag_195\n      jump\t// in\n    tag_410:\n        /* \"#utility.yul\":20600:20729   */\n      swap2\n      swap1\n      pop\n      jump\t// out\n        /* \"#utility.yul\":20735:21043   */\n    tag_201:\n        /* \"#utility.yul\":20797:20801   */\n      0x00\n        /* \"#utility.yul\":20887:20905   */\n      0xffffffffffffffff\n        /* \"#utility.yul\":20879:20885   */\n      dup3\n        /* \"#utility.yul\":20876:20906   */\n      gt\n        /* \"#utility.yul\":20873:20929   */\n      iszero\n      tag_412\n      jumpi\n        /* \"#utility.yul\":20909:20927   */\n      tag_413\n      tag_168\n      jump\t// in\n    tag_413:\n        /* \"#utility.yul\":20873:20929   */\n    tag_412:\n        /* \"#utility.yul\":20947:20976   */\n      tag_414\n        /* \"#utility.yul\":20969:20975   */\n      dup3\n        /* \"#utility.yul\":20947:20976   */\n      tag_145\n      jump\t// in\n    tag_414:\n        /* \"#utility.yul\":20939:20976   */\n      swap1\n      pop\n        /* \"#utility.yul\":21031:21035   */\n      0x20\n        /* \"#utility.yul\":21025:21029   */\n      dup2\n        /* \"#utility.yul\":21021:21036   */\n      add\n        /* \"#utility.yul\":21013:21036   */\n      swap1\n      pop\n        /* \"#utility.yul\":20735:21043   */\n      swap2\n      swap1\n      pop\n      jump\t// out\n        /* \"#utility.yul\":21049:21483   */\n    tag_202:\n        /* \"#utility.yul\":21138:21143   */\n      0x00\n        /* \"#utility.yul\":21163:21229   */\n      tag_416\n        /* \"#utility.yul\":21179:21228   */\n      tag_417\n        /* \"#utility.yul\":21221:21227   */\n      dup5\n        /* \"#utility.yul\":21179:21228   */\n      tag_201\n      jump\t// in\n    tag_417:\n        /* \"#utility.yul\":21163:21229   */\n      tag_200\n      jump\t// in\n    tag_416:\n        /* \"#utility.yul\":21154:21229   */\n      swap1\n      pop\n        /* \"#utility.yul\":21252:21258   */\n      dup3\n        /* \"#utility.yul\":21245:21250   */\n      dup2\n        /* \"#utility.yul\":21238:21259   */\n      mstore\n        /* \"#utility.yul\":21290:21294   */\n      0x20\n        /* \"#utility.yul\":21283:21288   */\n      dup2\n        /* \"#utility.yul\":21279:21295   */\n      add\n        /* \"#utility.yul\":21328:21331   */\n      dup5\n        /* \"#utility.yul\":21319:21325   */\n      dup5\n        /* \"#utility.yul\":21314:21317   */\n      dup5\n        /* \"#utility.yul\":21310:21326   */\n      add\n        /* \"#utility.yul\":21307:21332   */\n      gt\n        /* \"#utility.yul\":21304:21416   */\n      iszero\n      tag_418\n      jumpi\n        /* \"#utility.yul\":21335:21414   */\n      tag_419\n      tag_199\n      jump\t// in\n    tag_419:\n        /* \"#utility.yul\":21304:21416   */\n    tag_418:\n        /* \"#utility.yul\":21425:21477   */\n      tag_420\n        /* \"#utility.yul\":21470:21476   */\n      dup5\n        /* \"#utility.yul\":21465:21468   */\n      dup3\n        /* \"#utility.yul\":21460:21463   */\n      dup6\n        /* \"#utility.yul\":21425:21477   */\n      tag_144\n      jump\t// in\n    tag_420:\n        /* \"#utility.yul\":21144:21483   */\n      pop\n        /* \"#utility.yul\":21049:21483   */\n      swap4\n      swap3\n      pop\n      pop\n      pop\n      jump\t// out\n        /* \"#utility.yul\":21503:21858   */\n    tag_203:\n        /* \"#utility.yul\":21570:21575   */\n      0x00\n        /* \"#utility.yul\":21619:21622   */\n      dup3\n        /* \"#utility.yul\":21612:21616   */\n      0x1f\n        /* \"#utility.yul\":21604:21610   */\n      dup4\n        /* \"#utility.yul\":21600:21617   */\n      add\n        /* \"#utility.yul\":21596:21623   */\n      slt\n        /* \"#utility.yul\":21586:21708   */\n      tag_422\n      jumpi\n        /* \"#utility.yul\":21627:21706   */\n      tag_423\n      tag_198\n      jump\t// in\n    tag_423:\n        /* \"#utility.yul\":21586:21708   */\n    tag_422:\n        /* \"#utility.yul\":21737:21743   */\n      dup2\n        /* \"#utility.yul\":21731:21744   */\n      mload\n        /* \"#utility.yul\":21762:21852   */\n      tag_424\n        /* \"#utility.yul\":21848:21851   */\n      dup5\n        /* \"#utility.yul\":21840:21846   */\n      dup3\n        /* \"#utility.yul\":21833:21837   */\n      0x20\n        /* \"#utility.yul\":21825:21831   */\n      dup7\n        /* \"#utility.yul\":21821:21838   */\n      add\n        /* \"#utility.yul\":21762:21852   */\n      tag_202\n      jump\t// in\n    tag_424:\n        /* \"#utility.yul\":21753:21852   */\n      swap2\n      pop\n        /* \"#utility.yul\":21576:21858   */\n      pop\n        /* \"#utility.yul\":21503:21858   */\n      swap3\n      swap2\n      pop\n      pop\n      jump\t// out\n        /* \"#utility.yul\":21864:22388   */\n    tag_141:\n        /* \"#utility.yul\":21944:21950   */\n      0x00\n        /* \"#utility.yul\":21993:21995   */\n      0x20\n        /* \"#utility.yul\":21981:21990   */\n      dup3\n        /* \"#utility.yul\":21972:21979   */\n      dup5\n        /* \"#utility.yul\":21968:21991   */\n      sub\n        /* \"#utility.yul\":21964:21996   */\n      slt\n        /* \"#utility.yul\":21961:22080   */\n      iszero\n      tag_426\n      jumpi\n        /* \"#utility.yul\":21999:22078   */\n      tag_427\n      tag_148\n      jump\t// in\n    tag_427:\n        /* \"#utility.yul\":21961:22080   */\n    tag_426:\n        /* \"#utility.yul\":22140:22141   */\n      0x00\n        /* \"#utility.yul\":22129:22138   */\n      dup3\n        /* \"#utility.yul\":22125:22142   */\n      add\n        /* \"#utility.yul\":22119:22143   */\n      mload\n        /* \"#utility.yul\":22170:22188   */\n      0xffffffffffffffff\n        /* \"#utility.yul\":22162:22168   */\n      dup2\n        /* \"#utility.yul\":22159:22189   */\n      gt\n        /* \"#utility.yul\":22156:22273   */\n      iszero\n      tag_428\n      jumpi\n        /* \"#utility.yul\":22192:22271   */\n      tag_429\n      tag_149\n      jump\t// in\n    tag_429:\n        /* \"#utility.yul\":22156:22273   */\n    tag_428:\n        /* \"#utility.yul\":22297:22371   */\n      tag_430\n        /* \"#utility.yul\":22363:22370   */\n      dup5\n        /* \"#utility.yul\":22354:22360   */\n      dup3\n        /* \"#utility.yul\":22343:22352   */\n      dup6\n        /* \"#utility.yul\":22339:22361   */\n      add\n        /* \"#utility.yul\":22297:22371   */\n      tag_203\n      jump\t// in\n    tag_430:\n        /* \"#utility.yul\":22287:22371   */\n      swap2\n      pop\n        /* \"#utility.yul\":22090:22381   */\n      pop\n        /* \"#utility.yul\":21864:22388   */\n      swap3\n      swap2\n      pop\n      pop\n      jump\t// out\n\n    auxdata: 0xa2646970667358221220d3b3f559421a4f69478148c9733a91f8a8da7872e1427576f24045ef853ff6d264736f6c63430008220033\n}\n",
				"bytecode": {
					"linkReferences": {},
					"object": "6080604052348015600e575f5ffd5b5061163d8061001c5f395ff3fe608060405260043610610079575f3560e01c80639415bc591161004d5780639415bc5914610113578063c6a508091461013d578063c816f03814610167578063ecf1f2351461018f57610079565b80626e75ec1461007d5780632d6142a7146100a7578063540208ba146100cf578063816b9ae0146100eb575b5f5ffd5b348015610088575f5ffd5b506100916101b9565b60405161009e9190610b1c565b60405180910390f35b3480156100b2575f5ffd5b506100cd60048036038101906100c89190610ba7565b610245565b005b6100e960048036038101906100e49190610c0d565b610448565b005b3480156100f6575f5ffd5b50610111600480360381019061010c9190610ba7565b6105b2565b005b34801561011e575f5ffd5b506101276107b5565b6040516101349190610c52565b60405180910390f35b348015610148575f5ffd5b506101516107c6565b60405161015e9190610c83565b60405180910390f35b348015610172575f5ffd5b5061018d60048036038101906101889190610ba7565b6107cc565b005b34801561019a575f5ffd5b506101a36109b5565b6040516101b09190610cee565b60405180910390f35b600180546101c690610d3b565b80601f01602080910402602001604051908101604052809291908181526020018280546101f290610d3b565b801561023d5780601f106102145761010080835404028352916020019161023d565b820191905f5260205f20905b81548152906001019060200180831161022057829003601f168201915b505050505081565b60025f81548092919061025790610d98565b91905055505f5f8273ffffffffffffffffffffffffffffffffffffffff166040516024016040516020818303038152906040527fca463e19000000000000000000000000000000000000000000000000000000007bffffffffffffffffffffffffffffffffffffffffffffffffffffffff19166020820180517bffffffffffffffffffffffffffffffffffffffffffffffffffffffff83818316178352505050506040516103059190610e19565b5f604051808303815f865af19150503d805f811461033e576040519150601f19603f3d011682016040523d82523d5f602084013e610343565b606091505b5091509150815f5f6101000a81548160ff021916908315150217905550806001908161036f919061100d565b507feeb23850e36427632d80bfcaa20368ec836180508a26111cbe67d882b84908e682826040516103a19291906110dc565b60405180910390a181610403575f6103b882610a41565b905080600390816103c9919061116f565b507f2c2105af88a70411f362c5ff0a4a256c01ded21bfed74377e704f64d3a052611816040516103f99190610cee565b60405180910390a1505b81610443576040517f08c379a000000000000000000000000000000000000000000000000000000000815260040161043a90611288565b60405180910390fd5b505050565b5f5f8273ffffffffffffffffffffffffffffffffffffffff163460405161046e906112c9565b5f6040518083038185875af1925050503d805f81146104a8576040519150601f19603f3d011682016040523d82523d5f602084013e6104ad565b606091505b5091509150815f5f6101000a81548160ff02191690831515021790555080600190816104d9919061100d565b507feeb23850e36427632d80bfcaa20368ec836180508a26111cbe67d882b84908e6828260405161050b9291906110dc565b60405180910390a18161056d575f61052282610a41565b90508060039081610533919061116f565b507f2c2105af88a70411f362c5ff0a4a256c01ded21bfed74377e704f64d3a052611816040516105639190610cee565b60405180910390a1505b816105ad576040517f08c379a00000000000000000000000000000000000000000000000000000000081526004016105a490611327565b60405180910390fd5b505050565b60025f8154809291906105c490610d98565b91905055505f5f8273ffffffffffffffffffffffffffffffffffffffff166040516024016040516020818303038152906040527f671bd39d000000000000000000000000000000000000000000000000000000007bffffffffffffffffffffffffffffffffffffffffffffffffffffffff19166020820180517bffffffffffffffffffffffffffffffffffffffffffffffffffffffff83818316178352505050506040516106729190610e19565b5f604051808303815f865af19150503d805f81146106ab576040519150601f19603f3d011682016040523d82523d5f602084013e6106b0565b606091505b5091509150815f5f6101000a81548160ff02191690831515021790555080600190816106dc919061100d565b507feeb23850e36427632d80bfcaa20368ec836180508a26111cbe67d882b84908e6828260405161070e9291906110dc565b60405180910390a181610770575f61072582610a41565b90508060039081610736919061116f565b507f2c2105af88a70411f362c5ff0a4a256c01ded21bfed74377e704f64d3a052611816040516107669190610cee565b60405180910390a1505b816107b0576040517f08c379a00000000000000000000000000000000000000000000000000000000081526004016107a79061138f565b60405180910390fd5b505050565b5f5f9054906101000a900460ff1681565b60025481565b5f8190508073ffffffffffffffffffffffffffffffffffffffff1663671bd39d6040518163ffffffff1660e01b81526004015f604051808303815f87803b158015610815575f5ffd5b505af1925050508015610826575060015b61089d576108326113b9565b806308c379a00361088e5750610846611409565b806108515750610890565b7f2170a899eb3df99de3d6973d7f04a8981d877b84ca2055234d696ae04a5547f3816040516108809190610cee565b60405180910390a150610898565b505b3d5f5f3e3d5ffd5b6108d3565b7f907064b0143a723ebd8288b576f516a5fe1e8ff61101035f8d305a383cf118546040516108ca906114e2565b60405180910390a15b8073ffffffffffffffffffffffffffffffffffffffff1663ca463e196040518163ffffffff1660e01b81526004015f604051808303815f87803b158015610918575f5ffd5b505af1925050508015610929575060015b6109b0576109356113b9565b806308c379a0036109a15750610949611409565b8061095457506109a3565b8060039081610963919061116f565b507f2170a899eb3df99de3d6973d7f04a8981d877b84ca2055234d696ae04a5547f3816040516109939190610cee565b60405180910390a1506109ab565b505b3d5f5f3e3d5ffd5b6109b1565b5b5050565b600380546109c290610d3b565b80601f01602080910402602001604051908101604052809291908181526020018280546109ee90610d3b565b8015610a395780601f10610a1057610100808354040283529160200191610a39565b820191905f5260205f20905b815481529060010190602001808311610a1c57829003601f168201915b505050505081565b6060604482511015610a8a576040518060400160405280600e81526020017f556e6b6e6f776e207265766572740000000000000000000000000000000000008152509050610aa7565b60048201915081806020019051810190610aa491906115c0565b90505b919050565b5f81519050919050565b5f82825260208201905092915050565b8281835e5f83830152505050565b5f601f19601f8301169050919050565b5f610aee82610aac565b610af88185610ab6565b9350610b08818560208601610ac6565b610b1181610ad4565b840191505092915050565b5f6020820190508181035f830152610b348184610ae4565b905092915050565b5f604051905090565b5f5ffd5b5f5ffd5b5f73ffffffffffffffffffffffffffffffffffffffff82169050919050565b5f610b7682610b4d565b9050919050565b610b8681610b6c565b8114610b90575f5ffd5b50565b5f81359050610ba181610b7d565b92915050565b5f60208284031215610bbc57610bbb610b45565b5b5f610bc984828501610b93565b91505092915050565b5f610bdc82610b4d565b9050919050565b610bec81610bd2565b8114610bf6575f5ffd5b50565b5f81359050610c0781610be3565b92915050565b5f60208284031215610c2257610c21610b45565b5b5f610c2f84828501610bf9565b91505092915050565b5f8115159050919050565b610c4c81610c38565b82525050565b5f602082019050610c655f830184610c43565b92915050565b5f819050919050565b610c7d81610c6b565b82525050565b5f602082019050610c965f830184610c74565b92915050565b5f81519050919050565b5f82825260208201905092915050565b5f610cc082610c9c565b610cca8185610ca6565b9350610cda818560208601610ac6565b610ce381610ad4565b840191505092915050565b5f6020820190508181035f830152610d068184610cb6565b905092915050565b7f4e487b71000000000000000000000000000000000000000000000000000000005f52602260045260245ffd5b5f6002820490506001821680610d5257607f821691505b602082108103610d6557610d64610d0e565b5b50919050565b7f4e487b71000000000000000000000000000000000000000000000000000000005f52601160045260245ffd5b5f610da282610c6b565b91507fffffffffffffffffffffffffffffffffffffffffffffffffffffffffffffffff8203610dd457610dd3610d6b565b5b600182019050919050565b5f81905092915050565b5f610df382610aac565b610dfd8185610ddf565b9350610e0d818560208601610ac6565b80840191505092915050565b5f610e248284610de9565b915081905092915050565b7f4e487b71000000000000000000000000000000000000000000000000000000005f52604160045260245ffd5b5f819050815f5260205f209050919050565b5f6020601f8301049050919050565b5f82821b905092915050565b5f60088302610eb87fffffffffffffffffffffffffffffffffffffffffffffffffffffffffffffffff82610e7d565b610ec28683610e7d565b95508019841693508086168417925050509392505050565b5f819050919050565b5f610efd610ef8610ef384610c6b565b610eda565b610c6b565b9050919050565b5f819050919050565b610f1683610ee3565b610f2a610f2282610f04565b848454610e89565b825550505050565b5f5f905090565b610f41610f32565b610f4c818484610f0d565b505050565b5f5b82811015610f7257610f675f828401610f39565b600181019050610f53565b505050565b601f821115610fc55782821115610fc457610f9181610e5c565b610f9a83610e6e565b610fa385610e6e565b6020861015610fb0575f90505b808301610fbf82840382610f51565b505050505b5b505050565b5f82821c905092915050565b5f610fe55f1984600802610fca565b1980831691505092915050565b5f610ffd8383610fd6565b9150826002028217905092915050565b61101682610aac565b67ffffffffffffffff81111561102f5761102e610e2f565b5b6110398254610d3b565b611044828285610f77565b5f60209050601f831160018114611075575f8415611063578287015190505b61106d8582610ff2565b8655506110d4565b601f19841661108386610e5c565b5f5b828110156110aa57848901518255600182019150602085019450602081019050611085565b868310156110c757848901516110c3601f891682610fd6565b8355505b6001600288020188555050505b505050505050565b5f6040820190506110ef5f830185610c43565b81810360208301526111018184610ae4565b90509392505050565b5f819050815f5260205f209050919050565b601f82111561116a5782821115611169576111368161110a565b61113f83610e6e565b61114885610e6e565b6020861015611155575f90505b80830161116482840382610f51565b505050505b5b505050565b61117882610c9c565b67ffffffffffffffff81111561119157611190610e2f565b5b61119b8254610d3b565b6111a682828561111c565b5f60209050601f8311600181146111d7575f84156111c5578287015190505b6111cf8582610ff2565b865550611236565b601f1984166111e58661110a565b5f5b8281101561120c578489015182556001820191506020850194506020810190506111e7565b868310156112295784890151611225601f891682610fd6565b8355505b6001600288020188555050505b505050505050565b7f45787465726e616c2063616c6c207265766572746564000000000000000000005f82015250565b5f611272601683610ca6565b915061127d8261123e565b602082019050919050565b5f6020820190508181035f83015261129f81611266565b9050919050565b50565b5f6112b45f83610ddf565b91506112bf826112a6565b5f82019050919050565b5f6112d3826112a9565b9150819050919050565b7f455448207472616e73666572206661696c6564000000000000000000000000005f82015250565b5f611311601383610ca6565b915061131c826112dd565b602082019050919050565b5f6020820190508181035f83015261133e81611305565b9050919050565b7f45787465726e616c2066756e6374696f6e2063616c6c206661696c65640000005f82015250565b5f611379601d83610ca6565b915061138482611345565b602082019050919050565b5f6020820190508181035f8301526113a68161136d565b9050919050565b5f8160e01c9050919050565b5f60033d11156113d55760045f5f3e6113d25f516113ad565b90505b90565b6113e182610ad4565b810181811067ffffffffffffffff82111715611400576113ff610e2f565b5b80604052505050565b5f60443d106114955761141a610b3c565b60043d036004823e80513d602482011167ffffffffffffffff82111715611442575050611495565b808201805167ffffffffffffffff8111156114605750505050611495565b80602083010160043d03850181111561147d575050505050611495565b61148c826020018501866113d8565b82955050505050505b90565b7f537563636573732066756e6374696f6e206578656375746564000000000000005f82015250565b5f6114cc601983610ca6565b91506114d782611498565b602082019050919050565b5f6020820190508181035f8301526114f9816114c0565b9050919050565b5f5ffd5b5f5ffd5b5f611511610b3c565b905061151d82826113d8565b919050565b5f67ffffffffffffffff82111561153c5761153b610e2f565b5b61154582610ad4565b9050602081019050919050565b5f61156461155f84611522565b611508565b9050828152602081018484840111156115805761157f611504565b5b61158b848285610ac6565b509392505050565b5f82601f8301126115a7576115a6611500565b5b81516115b7848260208601611552565b91505092915050565b5f602082840312156115d5576115d4610b45565b5b5f82015167ffffffffffffffff8111156115f2576115f1610b49565b5b6115fe84828501611593565b9150509291505056fea2646970667358221220d3b3f559421a4f69478148c9733a91f8a8da7872e1427576f24045ef853ff6d264736f6c63430008220033",
					"opcodes": "PUSH1 0x80 PUSH1 0x40 MSTORE CALLVALUE DUP1 ISZERO PUSH1 0xE JUMPI PUSH0 PUSH0 REVERT JUMPDEST POP PUSH2 0x163D DUP1 PUSH2 0x1C PUSH0 CODECOPY PUSH0 RETURN INVALID PUSH1 0x80 PUSH1 0x40 MSTORE PUSH1 0x4 CALLDATASIZE LT PUSH2 0x79 JUMPI PUSH0 CALLDATALOAD PUSH1 0xE0 SHR DUP1 PUSH4 0x9415BC59 GT PUSH2 0x4D JUMPI DUP1 PUSH4 0x9415BC59 EQ PUSH2 0x113 JUMPI DUP1 PUSH4 0xC6A50809 EQ PUSH2 0x13D JUMPI DUP1 PUSH4 0xC816F038 EQ PUSH2 0x167 JUMPI DUP1 PUSH4 0xECF1F235 EQ PUSH2 0x18F JUMPI PUSH2 0x79 JUMP JUMPDEST DUP1 PUSH3 0x6E75EC EQ PUSH2 0x7D JUMPI DUP1 PUSH4 0x2D6142A7 EQ PUSH2 0xA7 JUMPI DUP1 PUSH4 0x540208BA EQ PUSH2 0xCF JUMPI DUP1 PUSH4 0x816B9AE0 EQ PUSH2 0xEB JUMPI JUMPDEST PUSH0 PUSH0 REVERT JUMPDEST CALLVALUE DUP1 ISZERO PUSH2 0x88 JUMPI PUSH0 PUSH0 REVERT JUMPDEST POP PUSH2 0x91 PUSH2 0x1B9 JUMP JUMPDEST PUSH1 0x40 MLOAD PUSH2 0x9E SWAP2 SWAP1 PUSH2 0xB1C JUMP JUMPDEST PUSH1 0x40 MLOAD DUP1 SWAP2 SUB SWAP1 RETURN JUMPDEST CALLVALUE DUP1 ISZERO PUSH2 0xB2 JUMPI PUSH0 PUSH0 REVERT JUMPDEST POP PUSH2 0xCD PUSH1 0x4 DUP1 CALLDATASIZE SUB DUP2 ADD SWAP1 PUSH2 0xC8 SWAP2 SWAP1 PUSH2 0xBA7 JUMP JUMPDEST PUSH2 0x245 JUMP JUMPDEST STOP JUMPDEST PUSH2 0xE9 PUSH1 0x4 DUP1 CALLDATASIZE SUB DUP2 ADD SWAP1 PUSH2 0xE4 SWAP2 SWAP1 PUSH2 0xC0D JUMP JUMPDEST PUSH2 0x448 JUMP JUMPDEST STOP JUMPDEST CALLVALUE DUP1 ISZERO PUSH2 0xF6 JUMPI PUSH0 PUSH0 REVERT JUMPDEST POP PUSH2 0x111 PUSH1 0x4 DUP1 CALLDATASIZE SUB DUP2 ADD SWAP1 PUSH2 0x10C SWAP2 SWAP1 PUSH2 0xBA7 JUMP JUMPDEST PUSH2 0x5B2 JUMP JUMPDEST STOP JUMPDEST CALLVALUE DUP1 ISZERO PUSH2 0x11E JUMPI PUSH0 PUSH0 REVERT JUMPDEST POP PUSH2 0x127 PUSH2 0x7B5 JUMP JUMPDEST PUSH1 0x40 MLOAD PUSH2 0x134 SWAP2 SWAP1 PUSH2 0xC52 JUMP JUMPDEST PUSH1 0x40 MLOAD DUP1 SWAP2 SUB SWAP1 RETURN JUMPDEST CALLVALUE DUP1 ISZERO PUSH2 0x148 JUMPI PUSH0 PUSH0 REVERT JUMPDEST POP PUSH2 0x151 PUSH2 0x7C6 JUMP JUMPDEST PUSH1 0x40 MLOAD PUSH2 0x15E SWAP2 SWAP1 PUSH2 0xC83 JUMP JUMPDEST PUSH1 0x40 MLOAD DUP1 SWAP2 SUB SWAP1 RETURN JUMPDEST CALLVALUE DUP1 ISZERO PUSH2 0x172 JUMPI PUSH0 PUSH0 REVERT JUMPDEST POP PUSH2 0x18D PUSH1 0x4 DUP1 CALLDATASIZE SUB DUP2 ADD SWAP1 PUSH2 0x188 SWAP2 SWAP1 PUSH2 0xBA7 JUMP JUMPDEST PUSH2 0x7CC JUMP JUMPDEST STOP JUMPDEST CALLVALUE DUP1 ISZERO PUSH2 0x19A JUMPI PUSH0 PUSH0 REVERT JUMPDEST POP PUSH2 0x1A3 PUSH2 0x9B5 JUMP JUMPDEST PUSH1 0x40 MLOAD PUSH2 0x1B0 SWAP2 SWAP1 PUSH2 0xCEE JUMP JUMPDEST PUSH1 0x40 MLOAD DUP1 SWAP2 SUB SWAP1 RETURN JUMPDEST PUSH1 0x1 DUP1 SLOAD PUSH2 0x1C6 SWAP1 PUSH2 0xD3B JUMP JUMPDEST DUP1 PUSH1 0x1F ADD PUSH1 0x20 DUP1 SWAP2 DIV MUL PUSH1 0x20 ADD PUSH1 0x40 MLOAD SWAP1 DUP2 ADD PUSH1 0x40 MSTORE DUP1 SWAP3 SWAP2 SWAP1 DUP2 DUP2 MSTORE PUSH1 0x20 ADD DUP3 DUP1 SLOAD PUSH2 0x1F2 SWAP1 PUSH2 0xD3B JUMP JUMPDEST DUP1 ISZERO PUSH2 0x23D JUMPI DUP1 PUSH1 0x1F LT PUSH2 0x214 JUMPI PUSH2 0x100 DUP1 DUP4 SLOAD DIV MUL DUP4 MSTORE SWAP2 PUSH1 0x20 ADD SWAP2 PUSH2 0x23D JUMP JUMPDEST DUP3 ADD SWAP2 SWAP1 PUSH0 MSTORE PUSH1 0x20 PUSH0 KECCAK256 SWAP1 JUMPDEST DUP2 SLOAD DUP2 MSTORE SWAP1 PUSH1 0x1 ADD SWAP1 PUSH1 0x20 ADD DUP1 DUP4 GT PUSH2 0x220 JUMPI DUP3 SWAP1 SUB PUSH1 0x1F AND DUP3 ADD SWAP2 JUMPDEST POP POP POP POP POP DUP2 JUMP JUMPDEST PUSH1 0x2 PUSH0 DUP2 SLOAD DUP1 SWAP3 SWAP2 SWAP1 PUSH2 0x257 SWAP1 PUSH2 0xD98 JUMP JUMPDEST SWAP2 SWAP1 POP SSTORE POP PUSH0 PUSH0 DUP3 PUSH20 0xFFFFFFFFFFFFFFFFFFFFFFFFFFFFFFFFFFFFFFFF AND PUSH1 0x40 MLOAD PUSH1 0x24 ADD PUSH1 0x40 MLOAD PUSH1 0x20 DUP2 DUP4 SUB SUB DUP2 MSTORE SWAP1 PUSH1 0x40 MSTORE PUSH32 0xCA463E1900000000000000000000000000000000000000000000000000000000 PUSH28 0xFFFFFFFFFFFFFFFFFFFFFFFFFFFFFFFFFFFFFFFFFFFFFFFFFFFFFFFF NOT AND PUSH1 0x20 DUP3 ADD DUP1 MLOAD PUSH28 0xFFFFFFFFFFFFFFFFFFFFFFFFFFFFFFFFFFFFFFFFFFFFFFFFFFFFFFFF DUP4 DUP2 DUP4 AND OR DUP4 MSTORE POP POP POP POP PUSH1 0x40 MLOAD PUSH2 0x305 SWAP2 SWAP1 PUSH2 0xE19 JUMP JUMPDEST PUSH0 PUSH1 0x40 MLOAD DUP1 DUP4 SUB DUP2 PUSH0 DUP7 GAS CALL SWAP2 POP POP RETURNDATASIZE DUP1 PUSH0 DUP2 EQ PUSH2 0x33E JUMPI PUSH1 0x40 MLOAD SWAP2 POP PUSH1 0x1F NOT PUSH1 0x3F RETURNDATASIZE ADD AND DUP3 ADD PUSH1 0x40 MSTORE RETURNDATASIZE DUP3 MSTORE RETURNDATASIZE PUSH0 PUSH1 0x20 DUP5 ADD RETURNDATACOPY PUSH2 0x343 JUMP JUMPDEST PUSH1 0x60 SWAP2 POP JUMPDEST POP SWAP2 POP SWAP2 POP DUP2 PUSH0 PUSH0 PUSH2 0x100 EXP DUP2 SLOAD DUP2 PUSH1 0xFF MUL NOT AND SWAP1 DUP4 ISZERO ISZERO MUL OR SWAP1 SSTORE POP DUP1 PUSH1 0x1 SWAP1 DUP2 PUSH2 0x36F SWAP2 SWAP1 PUSH2 0x100D JUMP JUMPDEST POP PUSH32 0xEEB23850E36427632D80BFCAA20368EC836180508A26111CBE67D882B84908E6 DUP3 DUP3 PUSH1 0x40 MLOAD PUSH2 0x3A1 SWAP3 SWAP2 SWAP1 PUSH2 0x10DC JUMP JUMPDEST PUSH1 0x40 MLOAD DUP1 SWAP2 SUB SWAP1 LOG1 DUP2 PUSH2 0x403 JUMPI PUSH0 PUSH2 0x3B8 DUP3 PUSH2 0xA41 JUMP JUMPDEST SWAP1 POP DUP1 PUSH1 0x3 SWAP1 DUP2 PUSH2 0x3C9 SWAP2 SWAP1 PUSH2 0x116F JUMP JUMPDEST POP PUSH32 0x2C2105AF88A70411F362C5FF0A4A256C01DED21BFED74377E704F64D3A052611 DUP2 PUSH1 0x40 MLOAD PUSH2 0x3F9 SWAP2 SWAP1 PUSH2 0xCEE JUMP JUMPDEST PUSH1 0x40 MLOAD DUP1 SWAP2 SUB SWAP1 LOG1 POP JUMPDEST DUP2 PUSH2 0x443 JUMPI PUSH1 0x40 MLOAD PUSH32 0x8C379A000000000000000000000000000000000000000000000000000000000 DUP2 MSTORE PUSH1 0x4 ADD PUSH2 0x43A SWAP1 PUSH2 0x1288 JUMP JUMPDEST PUSH1 0x40 MLOAD DUP1 SWAP2 SUB SWAP1 REVERT JUMPDEST POP POP POP JUMP JUMPDEST PUSH0 PUSH0 DUP3 PUSH20 0xFFFFFFFFFFFFFFFFFFFFFFFFFFFFFFFFFFFFFFFF AND CALLVALUE PUSH1 0x40 MLOAD PUSH2 0x46E SWAP1 PUSH2 0x12C9 JUMP JUMPDEST PUSH0 PUSH1 0x40 MLOAD DUP1 DUP4 SUB DUP2 DUP6 DUP8 GAS CALL SWAP3 POP POP POP RETURNDATASIZE DUP1 PUSH0 DUP2 EQ PUSH2 0x4A8 JUMPI PUSH1 0x40 MLOAD SWAP2 POP PUSH1 0x1F NOT PUSH1 0x3F RETURNDATASIZE ADD AND DUP3 ADD PUSH1 0x40 MSTORE RETURNDATASIZE DUP3 MSTORE RETURNDATASIZE PUSH0 PUSH1 0x20 DUP5 ADD RETURNDATACOPY PUSH2 0x4AD JUMP JUMPDEST PUSH1 0x60 SWAP2 POP JUMPDEST POP SWAP2 POP SWAP2 POP DUP2 PUSH0 PUSH0 PUSH2 0x100 EXP DUP2 SLOAD DUP2 PUSH1 0xFF MUL NOT AND SWAP1 DUP4 ISZERO ISZERO MUL OR SWAP1 SSTORE POP DUP1 PUSH1 0x1 SWAP1 DUP2 PUSH2 0x4D9 SWAP2 SWAP1 PUSH2 0x100D JUMP JUMPDEST POP PUSH32 0xEEB23850E36427632D80BFCAA20368EC836180508A26111CBE67D882B84908E6 DUP3 DUP3 PUSH1 0x40 MLOAD PUSH2 0x50B SWAP3 SWAP2 SWAP1 PUSH2 0x10DC JUMP JUMPDEST PUSH1 0x40 MLOAD DUP1 SWAP2 SUB SWAP1 LOG1 DUP2 PUSH2 0x56D JUMPI PUSH0 PUSH2 0x522 DUP3 PUSH2 0xA41 JUMP JUMPDEST SWAP1 POP DUP1 PUSH1 0x3 SWAP1 DUP2 PUSH2 0x533 SWAP2 SWAP1 PUSH2 0x116F JUMP JUMPDEST POP PUSH32 0x2C2105AF88A70411F362C5FF0A4A256C01DED21BFED74377E704F64D3A052611 DUP2 PUSH1 0x40 MLOAD PUSH2 0x563 SWAP2 SWAP1 PUSH2 0xCEE JUMP JUMPDEST PUSH1 0x40 MLOAD DUP1 SWAP2 SUB SWAP1 LOG1 POP JUMPDEST DUP2 PUSH2 0x5AD JUMPI PUSH1 0x40 MLOAD PUSH32 0x8C379A000000000000000000000000000000000000000000000000000000000 DUP2 MSTORE PUSH1 0x4 ADD PUSH2 0x5A4 SWAP1 PUSH2 0x1327 JUMP JUMPDEST PUSH1 0x40 MLOAD DUP1 SWAP2 SUB SWAP1 REVERT JUMPDEST POP POP POP JUMP JUMPDEST PUSH1 0x2 PUSH0 DUP2 SLOAD DUP1 SWAP3 SWAP2 SWAP1 PUSH2 0x5C4 SWAP1 PUSH2 0xD98 JUMP JUMPDEST SWAP2 SWAP1 POP SSTORE POP PUSH0 PUSH0 DUP3 PUSH20 0xFFFFFFFFFFFFFFFFFFFFFFFFFFFFFFFFFFFFFFFF AND PUSH1 0x40 MLOAD PUSH1 0x24 ADD PUSH1 0x40 MLOAD PUSH1 0x20 DUP2 DUP4 SUB SUB DUP2 MSTORE SWAP1 PUSH1 0x40 MSTORE PUSH32 0x671BD39D00000000000000000000000000000000000000000000000000000000 PUSH28 0xFFFFFFFFFFFFFFFFFFFFFFFFFFFFFFFFFFFFFFFFFFFFFFFFFFFFFFFF NOT AND PUSH1 0x20 DUP3 ADD DUP1 MLOAD PUSH28 0xFFFFFFFFFFFFFFFFFFFFFFFFFFFFFFFFFFFFFFFFFFFFFFFFFFFFFFFF DUP4 DUP2 DUP4 AND OR DUP4 MSTORE POP POP POP POP PUSH1 0x40 MLOAD PUSH2 0x672 SWAP2 SWAP1 PUSH2 0xE19 JUMP JUMPDEST PUSH0 PUSH1 0x40 MLOAD DUP1 DUP4 SUB DUP2 PUSH0 DUP7 GAS CALL SWAP2 POP POP RETURNDATASIZE DUP1 PUSH0 DUP2 EQ PUSH2 0x6AB JUMPI PUSH1 0x40 MLOAD SWAP2 POP PUSH1 0x1F NOT PUSH1 0x3F RETURNDATASIZE ADD AND DUP3 ADD PUSH1 0x40 MSTORE RETURNDATASIZE DUP3 MSTORE RETURNDATASIZE PUSH0 PUSH1 0x20 DUP5 ADD RETURNDATACOPY PUSH2 0x6B0 JUMP JUMPDEST PUSH1 0x60 SWAP2 POP JUMPDEST POP SWAP2 POP SWAP2 POP DUP2 PUSH0 PUSH0 PUSH2 0x100 EXP DUP2 SLOAD DUP2 PUSH1 0xFF MUL NOT AND SWAP1 DUP4 ISZERO ISZERO MUL OR SWAP1 SSTORE POP DUP1 PUSH1 0x1 SWAP1 DUP2 PUSH2 0x6DC SWAP2 SWAP1 PUSH2 0x100D JUMP JUMPDEST POP PUSH32 0xEEB23850E36427632D80BFCAA20368EC836180508A26111CBE67D882B84908E6 DUP3 DUP3 PUSH1 0x40 MLOAD PUSH2 0x70E SWAP3 SWAP2 SWAP1 PUSH2 0x10DC JUMP JUMPDEST PUSH1 0x40 MLOAD DUP1 SWAP2 SUB SWAP1 LOG1 DUP2 PUSH2 0x770 JUMPI PUSH0 PUSH2 0x725 DUP3 PUSH2 0xA41 JUMP JUMPDEST SWAP1 POP DUP1 PUSH1 0x3 SWAP1 DUP2 PUSH2 0x736 SWAP2 SWAP1 PUSH2 0x116F JUMP JUMPDEST POP PUSH32 0x2C2105AF88A70411F362C5FF0A4A256C01DED21BFED74377E704F64D3A052611 DUP2 PUSH1 0x40 MLOAD PUSH2 0x766 SWAP2 SWAP1 PUSH2 0xCEE JUMP JUMPDEST PUSH1 0x40 MLOAD DUP1 SWAP2 SUB SWAP1 LOG1 POP JUMPDEST DUP2 PUSH2 0x7B0 JUMPI PUSH1 0x40 MLOAD PUSH32 0x8C379A000000000000000000000000000000000000000000000000000000000 DUP2 MSTORE PUSH1 0x4 ADD PUSH2 0x7A7 SWAP1 PUSH2 0x138F JUMP JUMPDEST PUSH1 0x40 MLOAD DUP1 SWAP2 SUB SWAP1 REVERT JUMPDEST POP POP POP JUMP JUMPDEST PUSH0 PUSH0 SWAP1 SLOAD SWAP1 PUSH2 0x100 EXP SWAP1 DIV PUSH1 0xFF AND DUP2 JUMP JUMPDEST PUSH1 0x2 SLOAD DUP2 JUMP JUMPDEST PUSH0 DUP2 SWAP1 POP DUP1 PUSH20 0xFFFFFFFFFFFFFFFFFFFFFFFFFFFFFFFFFFFFFFFF AND PUSH4 0x671BD39D PUSH1 0x40 MLOAD DUP2 PUSH4 0xFFFFFFFF AND PUSH1 0xE0 SHL DUP2 MSTORE PUSH1 0x4 ADD PUSH0 PUSH1 0x40 MLOAD DUP1 DUP4 SUB DUP2 PUSH0 DUP8 DUP1 EXTCODESIZE ISZERO DUP1 ISZERO PUSH2 0x815 JUMPI PUSH0 PUSH0 REVERT JUMPDEST POP GAS CALL SWAP3 POP POP POP DUP1 ISZERO PUSH2 0x826 JUMPI POP PUSH1 0x1 JUMPDEST PUSH2 0x89D JUMPI PUSH2 0x832 PUSH2 0x13B9 JUMP JUMPDEST DUP1 PUSH4 0x8C379A0 SUB PUSH2 0x88E JUMPI POP PUSH2 0x846 PUSH2 0x1409 JUMP JUMPDEST DUP1 PUSH2 0x851 JUMPI POP PUSH2 0x890 JUMP JUMPDEST PUSH32 0x2170A899EB3DF99DE3D6973D7F04A8981D877B84CA2055234D696AE04A5547F3 DUP2 PUSH1 0x40 MLOAD PUSH2 0x880 SWAP2 SWAP1 PUSH2 0xCEE JUMP JUMPDEST PUSH1 0x40 MLOAD DUP1 SWAP2 SUB SWAP1 LOG1 POP PUSH2 0x898 JUMP JUMPDEST POP JUMPDEST RETURNDATASIZE PUSH0 PUSH0 RETURNDATACOPY RETURNDATASIZE PUSH0 REVERT JUMPDEST PUSH2 0x8D3 JUMP JUMPDEST PUSH32 0x907064B0143A723EBD8288B576F516A5FE1E8FF61101035F8D305A383CF11854 PUSH1 0x40 MLOAD PUSH2 0x8CA SWAP1 PUSH2 0x14E2 JUMP JUMPDEST PUSH1 0x40 MLOAD DUP1 SWAP2 SUB SWAP1 LOG1 JUMPDEST DUP1 PUSH20 0xFFFFFFFFFFFFFFFFFFFFFFFFFFFFFFFFFFFFFFFF AND PUSH4 0xCA463E19 PUSH1 0x40 MLOAD DUP2 PUSH4 0xFFFFFFFF AND PUSH1 0xE0 SHL DUP2 MSTORE PUSH1 0x4 ADD PUSH0 PUSH1 0x40 MLOAD DUP1 DUP4 SUB DUP2 PUSH0 DUP8 DUP1 EXTCODESIZE ISZERO DUP1 ISZERO PUSH2 0x918 JUMPI PUSH0 PUSH0 REVERT JUMPDEST POP GAS CALL SWAP3 POP POP POP DUP1 ISZERO PUSH2 0x929 JUMPI POP PUSH1 0x1 JUMPDEST PUSH2 0x9B0 JUMPI PUSH2 0x935 PUSH2 0x13B9 JUMP JUMPDEST DUP1 PUSH4 0x8C379A0 SUB PUSH2 0x9A1 JUMPI POP PUSH2 0x949 PUSH2 0x1409 JUMP JUMPDEST DUP1 PUSH2 0x954 JUMPI POP PUSH2 0x9A3 JUMP JUMPDEST DUP1 PUSH1 0x3 SWAP1 DUP2 PUSH2 0x963 SWAP2 SWAP1 PUSH2 0x116F JUMP JUMPDEST POP PUSH32 0x2170A899EB3DF99DE3D6973D7F04A8981D877B84CA2055234D696AE04A5547F3 DUP2 PUSH1 0x40 MLOAD PUSH2 0x993 SWAP2 SWAP1 PUSH2 0xCEE JUMP JUMPDEST PUSH1 0x40 MLOAD DUP1 SWAP2 SUB SWAP1 LOG1 POP PUSH2 0x9AB JUMP JUMPDEST POP JUMPDEST RETURNDATASIZE PUSH0 PUSH0 RETURNDATACOPY RETURNDATASIZE PUSH0 REVERT JUMPDEST PUSH2 0x9B1 JUMP JUMPDEST JUMPDEST POP POP JUMP JUMPDEST PUSH1 0x3 DUP1 SLOAD PUSH2 0x9C2 SWAP1 PUSH2 0xD3B JUMP JUMPDEST DUP1 PUSH1 0x1F ADD PUSH1 0x20 DUP1 SWAP2 DIV MUL PUSH1 0x20 ADD PUSH1 0x40 MLOAD SWAP1 DUP2 ADD PUSH1 0x40 MSTORE DUP1 SWAP3 SWAP2 SWAP1 DUP2 DUP2 MSTORE PUSH1 0x20 ADD DUP3 DUP1 SLOAD PUSH2 0x9EE SWAP1 PUSH2 0xD3B JUMP JUMPDEST DUP1 ISZERO PUSH2 0xA39 JUMPI DUP1 PUSH1 0x1F LT PUSH2 0xA10 JUMPI PUSH2 0x100 DUP1 DUP4 SLOAD DIV MUL DUP4 MSTORE SWAP2 PUSH1 0x20 ADD SWAP2 PUSH2 0xA39 JUMP JUMPDEST DUP3 ADD SWAP2 SWAP1 PUSH0 MSTORE PUSH1 0x20 PUSH0 KECCAK256 SWAP1 JUMPDEST DUP2 SLOAD DUP2 MSTORE SWAP1 PUSH1 0x1 ADD SWAP1 PUSH1 0x20 ADD DUP1 DUP4 GT PUSH2 0xA1C JUMPI DUP3 SWAP1 SUB PUSH1 0x1F AND DUP3 ADD SWAP2 JUMPDEST POP POP POP POP POP DUP2 JUMP JUMPDEST PUSH1 0x60 PUSH1 0x44 DUP3 MLOAD LT ISZERO PUSH2 0xA8A JUMPI PUSH1 0x40 MLOAD DUP1 PUSH1 0x40 ADD PUSH1 0x40 MSTORE DUP1 PUSH1 0xE DUP2 MSTORE PUSH1 0x20 ADD PUSH32 0x556E6B6E6F776E20726576657274000000000000000000000000000000000000 DUP2 MSTORE POP SWAP1 POP PUSH2 0xAA7 JUMP JUMPDEST PUSH1 0x4 DUP3 ADD SWAP2 POP DUP2 DUP1 PUSH1 0x20 ADD SWAP1 MLOAD DUP2 ADD SWAP1 PUSH2 0xAA4 SWAP2 SWAP1 PUSH2 0x15C0 JUMP JUMPDEST SWAP1 POP JUMPDEST SWAP2 SWAP1 POP JUMP JUMPDEST PUSH0 DUP2 MLOAD SWAP1 POP SWAP2 SWAP1 POP JUMP JUMPDEST PUSH0 DUP3 DUP3 MSTORE PUSH1 0x20 DUP3 ADD SWAP1 POP SWAP3 SWAP2 POP POP JUMP JUMPDEST DUP3 DUP2 DUP4 MCOPY PUSH0 DUP4 DUP4 ADD MSTORE POP POP POP JUMP JUMPDEST PUSH0 PUSH1 0x1F NOT PUSH1 0x1F DUP4 ADD AND SWAP1 POP SWAP2 SWAP1 POP JUMP JUMPDEST PUSH0 PUSH2 0xAEE DUP3 PUSH2 0xAAC JUMP JUMPDEST PUSH2 0xAF8 DUP2 DUP6 PUSH2 0xAB6 JUMP JUMPDEST SWAP4 POP PUSH2 0xB08 DUP2 DUP6 PUSH1 0x20 DUP7 ADD PUSH2 0xAC6 JUMP JUMPDEST PUSH2 0xB11 DUP2 PUSH2 0xAD4 JUMP JUMPDEST DUP5 ADD SWAP2 POP POP SWAP3 SWAP2 POP POP JUMP JUMPDEST PUSH0 PUSH1 0x20 DUP3 ADD SWAP1 POP DUP2 DUP2 SUB PUSH0 DUP4 ADD MSTORE PUSH2 0xB34 DUP2 DUP5 PUSH2 0xAE4 JUMP JUMPDEST SWAP1 POP SWAP3 SWAP2 POP POP JUMP JUMPDEST PUSH0 PUSH1 0x40 MLOAD SWAP1 POP SWAP1 JUMP JUMPDEST PUSH0 PUSH0 REVERT JUMPDEST PUSH0 PUSH0 REVERT JUMPDEST PUSH0 PUSH20 0xFFFFFFFFFFFFFFFFFFFFFFFFFFFFFFFFFFFFFFFF DUP3 AND SWAP1 POP SWAP2 SWAP1 POP JUMP JUMPDEST PUSH0 PUSH2 0xB76 DUP3 PUSH2 0xB4D JUMP JUMPDEST SWAP1 POP SWAP2 SWAP1 POP JUMP JUMPDEST PUSH2 0xB86 DUP2 PUSH2 0xB6C JUMP JUMPDEST DUP2 EQ PUSH2 0xB90 JUMPI PUSH0 PUSH0 REVERT JUMPDEST POP JUMP JUMPDEST PUSH0 DUP2 CALLDATALOAD SWAP1 POP PUSH2 0xBA1 DUP2 PUSH2 0xB7D JUMP JUMPDEST SWAP3 SWAP2 POP POP JUMP JUMPDEST PUSH0 PUSH1 0x20 DUP3 DUP5 SUB SLT ISZERO PUSH2 0xBBC JUMPI PUSH2 0xBBB PUSH2 0xB45 JUMP JUMPDEST JUMPDEST PUSH0 PUSH2 0xBC9 DUP5 DUP3 DUP6 ADD PUSH2 0xB93 JUMP JUMPDEST SWAP2 POP POP SWAP3 SWAP2 POP POP JUMP JUMPDEST PUSH0 PUSH2 0xBDC DUP3 PUSH2 0xB4D JUMP JUMPDEST SWAP1 POP SWAP2 SWAP1 POP JUMP JUMPDEST PUSH2 0xBEC DUP2 PUSH2 0xBD2 JUMP JUMPDEST DUP2 EQ PUSH2 0xBF6 JUMPI PUSH0 PUSH0 REVERT JUMPDEST POP JUMP JUMPDEST PUSH0 DUP2 CALLDATALOAD SWAP1 POP PUSH2 0xC07 DUP2 PUSH2 0xBE3 JUMP JUMPDEST SWAP3 SWAP2 POP POP JUMP JUMPDEST PUSH0 PUSH1 0x20 DUP3 DUP5 SUB SLT ISZERO PUSH2 0xC22 JUMPI PUSH2 0xC21 PUSH2 0xB45 JUMP JUMPDEST JUMPDEST PUSH0 PUSH2 0xC2F DUP5 DUP3 DUP6 ADD PUSH2 0xBF9 JUMP JUMPDEST SWAP2 POP POP SWAP3 SWAP2 POP POP JUMP JUMPDEST PUSH0 DUP2 ISZERO ISZERO SWAP1 POP SWAP2 SWAP1 POP JUMP JUMPDEST PUSH2 0xC4C DUP2 PUSH2 0xC38 JUMP JUMPDEST DUP3 MSTORE POP POP JUMP JUMPDEST PUSH0 PUSH1 0x20 DUP3 ADD SWAP1 POP PUSH2 0xC65 PUSH0 DUP4 ADD DUP5 PUSH2 0xC43 JUMP JUMPDEST SWAP3 SWAP2 POP POP JUMP JUMPDEST PUSH0 DUP2 SWAP1 POP SWAP2 SWAP1 POP JUMP JUMPDEST PUSH2 0xC7D DUP2 PUSH2 0xC6B JUMP JUMPDEST DUP3 MSTORE POP POP JUMP JUMPDEST PUSH0 PUSH1 0x20 DUP3 ADD SWAP1 POP PUSH2 0xC96 PUSH0 DUP4 ADD DUP5 PUSH2 0xC74 JUMP JUMPDEST SWAP3 SWAP2 POP POP JUMP JUMPDEST PUSH0 DUP2 MLOAD SWAP1 POP SWAP2 SWAP1 POP JUMP JUMPDEST PUSH0 DUP3 DUP3 MSTORE PUSH1 0x20 DUP3 ADD SWAP1 POP SWAP3 SWAP2 POP POP JUMP JUMPDEST PUSH0 PUSH2 0xCC0 DUP3 PUSH2 0xC9C JUMP JUMPDEST PUSH2 0xCCA DUP2 DUP6 PUSH2 0xCA6 JUMP JUMPDEST SWAP4 POP PUSH2 0xCDA DUP2 DUP6 PUSH1 0x20 DUP7 ADD PUSH2 0xAC6 JUMP JUMPDEST PUSH2 0xCE3 DUP2 PUSH2 0xAD4 JUMP JUMPDEST DUP5 ADD SWAP2 POP POP SWAP3 SWAP2 POP POP JUMP JUMPDEST PUSH0 PUSH1 0x20 DUP3 ADD SWAP1 POP DUP2 DUP2 SUB PUSH0 DUP4 ADD MSTORE PUSH2 0xD06 DUP2 DUP5 PUSH2 0xCB6 JUMP JUMPDEST SWAP1 POP SWAP3 SWAP2 POP POP JUMP JUMPDEST PUSH32 0x4E487B7100000000000000000000000000000000000000000000000000000000 PUSH0 MSTORE PUSH1 0x22 PUSH1 0x4 MSTORE PUSH1 0x24 PUSH0 REVERT JUMPDEST PUSH0 PUSH1 0x2 DUP3 DIV SWAP1 POP PUSH1 0x1 DUP3 AND DUP1 PUSH2 0xD52 JUMPI PUSH1 0x7F DUP3 AND SWAP2 POP JUMPDEST PUSH1 0x20 DUP3 LT DUP2 SUB PUSH2 0xD65 JUMPI PUSH2 0xD64 PUSH2 0xD0E JUMP JUMPDEST JUMPDEST POP SWAP2 SWAP1 POP JUMP JUMPDEST PUSH32 0x4E487B7100000000000000000000000000000000000000000000000000000000 PUSH0 MSTORE PUSH1 0x11 PUSH1 0x4 MSTORE PUSH1 0x24 PUSH0 REVERT JUMPDEST PUSH0 PUSH2 0xDA2 DUP3 PUSH2 0xC6B JUMP JUMPDEST SWAP2 POP PUSH32 0xFFFFFFFFFFFFFFFFFFFFFFFFFFFFFFFFFFFFFFFFFFFFFFFFFFFFFFFFFFFFFFFF DUP3 SUB PUSH2 0xDD4 JUMPI PUSH2 0xDD3 PUSH2 0xD6B JUMP JUMPDEST JUMPDEST PUSH1 0x1 DUP3 ADD SWAP1 POP SWAP2 SWAP1 POP JUMP JUMPDEST PUSH0 DUP2 SWAP1 POP SWAP3 SWAP2 POP POP JUMP JUMPDEST PUSH0 PUSH2 0xDF3 DUP3 PUSH2 0xAAC JUMP JUMPDEST PUSH2 0xDFD DUP2 DUP6 PUSH2 0xDDF JUMP JUMPDEST SWAP4 POP PUSH2 0xE0D DUP2 DUP6 PUSH1 0x20 DUP7 ADD PUSH2 0xAC6 JUMP JUMPDEST DUP1 DUP5 ADD SWAP2 POP POP SWAP3 SWAP2 POP POP JUMP JUMPDEST PUSH0 PUSH2 0xE24 DUP3 DUP5 PUSH2 0xDE9 JUMP JUMPDEST SWAP2 POP DUP2 SWAP1 POP SWAP3 SWAP2 POP POP JUMP JUMPDEST PUSH32 0x4E487B7100000000000000000000000000000000000000000000000000000000 PUSH0 MSTORE PUSH1 0x41 PUSH1 0x4 MSTORE PUSH1 0x24 PUSH0 REVERT JUMPDEST PUSH0 DUP2 SWAP1 POP DUP2 PUSH0 MSTORE PUSH1 0x20 PUSH0 KECCAK256 SWAP1 POP SWAP2 SWAP1 POP JUMP JUMPDEST PUSH0 PUSH1 0x20 PUSH1 0x1F DUP4 ADD DIV SWAP1 POP SWAP2 SWAP1 POP JUMP JUMPDEST PUSH0 DUP3 DUP3 SHL SWAP1 POP SWAP3 SWAP2 POP POP JUMP JUMPDEST PUSH0 PUSH1 0x8 DUP4 MUL PUSH2 0xEB8 PUSH32 0xFFFFFFFFFFFFFFFFFFFFFFFFFFFFFFFFFFFFFFFFFFFFFFFFFFFFFFFFFFFFFFFF DUP3 PUSH2 0xE7D JUMP JUMPDEST PUSH2 0xEC2 DUP7 DUP4 PUSH2 0xE7D JUMP JUMPDEST SWAP6 POP DUP1 NOT DUP5 AND SWAP4 POP DUP1 DUP7 AND DUP5 OR SWAP3 POP POP POP SWAP4 SWAP3 POP POP POP JUMP JUMPDEST PUSH0 DUP2 SWAP1 POP SWAP2 SWAP1 POP JUMP JUMPDEST PUSH0 PUSH2 0xEFD PUSH2 0xEF8 PUSH2 0xEF3 DUP5 PUSH2 0xC6B JUMP JUMPDEST PUSH2 0xEDA JUMP JUMPDEST PUSH2 0xC6B JUMP JUMPDEST SWAP1 POP SWAP2 SWAP1 POP JUMP JUMPDEST PUSH0 DUP2 SWAP1 POP SWAP2 SWAP1 POP JUMP JUMPDEST PUSH2 0xF16 DUP4 PUSH2 0xEE3 JUMP JUMPDEST PUSH2 0xF2A PUSH2 0xF22 DUP3 PUSH2 0xF04 JUMP JUMPDEST DUP5 DUP5 SLOAD PUSH2 0xE89 JUMP JUMPDEST DUP3 SSTORE POP POP POP POP JUMP JUMPDEST PUSH0 PUSH0 SWAP1 POP SWAP1 JUMP JUMPDEST PUSH2 0xF41 PUSH2 0xF32 JUMP JUMPDEST PUSH2 0xF4C DUP2 DUP5 DUP5 PUSH2 0xF0D JUMP JUMPDEST POP POP POP JUMP JUMPDEST PUSH0 JUMPDEST DUP3 DUP2 LT ISZERO PUSH2 0xF72 JUMPI PUSH2 0xF67 PUSH0 DUP3 DUP5 ADD PUSH2 0xF39 JUMP JUMPDEST PUSH1 0x1 DUP2 ADD SWAP1 POP PUSH2 0xF53 JUMP JUMPDEST POP POP POP JUMP JUMPDEST PUSH1 0x1F DUP3 GT ISZERO PUSH2 0xFC5 JUMPI DUP3 DUP3 GT ISZERO PUSH2 0xFC4 JUMPI PUSH2 0xF91 DUP2 PUSH2 0xE5C JUMP JUMPDEST PUSH2 0xF9A DUP4 PUSH2 0xE6E JUMP JUMPDEST PUSH2 0xFA3 DUP6 PUSH2 0xE6E JUMP JUMPDEST PUSH1 0x20 DUP7 LT ISZERO PUSH2 0xFB0 JUMPI PUSH0 SWAP1 POP JUMPDEST DUP1 DUP4 ADD PUSH2 0xFBF DUP3 DUP5 SUB DUP3 PUSH2 0xF51 JUMP JUMPDEST POP POP POP POP JUMPDEST JUMPDEST POP POP POP JUMP JUMPDEST PUSH0 DUP3 DUP3 SHR SWAP1 POP SWAP3 SWAP2 POP POP JUMP JUMPDEST PUSH0 PUSH2 0xFE5 PUSH0 NOT DUP5 PUSH1 0x8 MUL PUSH2 0xFCA JUMP JUMPDEST NOT DUP1 DUP4 AND SWAP2 POP POP SWAP3 SWAP2 POP POP JUMP JUMPDEST PUSH0 PUSH2 0xFFD DUP4 DUP4 PUSH2 0xFD6 JUMP JUMPDEST SWAP2 POP DUP3 PUSH1 0x2 MUL DUP3 OR SWAP1 POP SWAP3 SWAP2 POP POP JUMP JUMPDEST PUSH2 0x1016 DUP3 PUSH2 0xAAC JUMP JUMPDEST PUSH8 0xFFFFFFFFFFFFFFFF DUP2 GT ISZERO PUSH2 0x102F JUMPI PUSH2 0x102E PUSH2 0xE2F JUMP JUMPDEST JUMPDEST PUSH2 0x1039 DUP3 SLOAD PUSH2 0xD3B JUMP JUMPDEST PUSH2 0x1044 DUP3 DUP3 DUP6 PUSH2 0xF77 JUMP JUMPDEST PUSH0 PUSH1 0x20 SWAP1 POP PUSH1 0x1F DUP4 GT PUSH1 0x1 DUP2 EQ PUSH2 0x1075 JUMPI PUSH0 DUP5 ISZERO PUSH2 0x1063 JUMPI DUP3 DUP8 ADD MLOAD SWAP1 POP JUMPDEST PUSH2 0x106D DUP6 DUP3 PUSH2 0xFF2 JUMP JUMPDEST DUP7 SSTORE POP PUSH2 0x10D4 JUMP JUMPDEST PUSH1 0x1F NOT DUP5 AND PUSH2 0x1083 DUP7 PUSH2 0xE5C JUMP JUMPDEST PUSH0 JUMPDEST DUP3 DUP2 LT ISZERO PUSH2 0x10AA JUMPI DUP5 DUP10 ADD MLOAD DUP3 SSTORE PUSH1 0x1 DUP3 ADD SWAP2 POP PUSH1 0x20 DUP6 ADD SWAP5 POP PUSH1 0x20 DUP2 ADD SWAP1 POP PUSH2 0x1085 JUMP JUMPDEST DUP7 DUP4 LT ISZERO PUSH2 0x10C7 JUMPI DUP5 DUP10 ADD MLOAD PUSH2 0x10C3 PUSH1 0x1F DUP10 AND DUP3 PUSH2 0xFD6 JUMP JUMPDEST DUP4 SSTORE POP JUMPDEST PUSH1 0x1 PUSH1 0x2 DUP9 MUL ADD DUP9 SSTORE POP POP POP JUMPDEST POP POP POP POP POP POP JUMP JUMPDEST PUSH0 PUSH1 0x40 DUP3 ADD SWAP1 POP PUSH2 0x10EF PUSH0 DUP4 ADD DUP6 PUSH2 0xC43 JUMP JUMPDEST DUP2 DUP2 SUB PUSH1 0x20 DUP4 ADD MSTORE PUSH2 0x1101 DUP2 DUP5 PUSH2 0xAE4 JUMP JUMPDEST SWAP1 POP SWAP4 SWAP3 POP POP POP JUMP JUMPDEST PUSH0 DUP2 SWAP1 POP DUP2 PUSH0 MSTORE PUSH1 0x20 PUSH0 KECCAK256 SWAP1 POP SWAP2 SWAP1 POP JUMP JUMPDEST PUSH1 0x1F DUP3 GT ISZERO PUSH2 0x116A JUMPI DUP3 DUP3 GT ISZERO PUSH2 0x1169 JUMPI PUSH2 0x1136 DUP2 PUSH2 0x110A JUMP JUMPDEST PUSH2 0x113F DUP4 PUSH2 0xE6E JUMP JUMPDEST PUSH2 0x1148 DUP6 PUSH2 0xE6E JUMP JUMPDEST PUSH1 0x20 DUP7 LT ISZERO PUSH2 0x1155 JUMPI PUSH0 SWAP1 POP JUMPDEST DUP1 DUP4 ADD PUSH2 0x1164 DUP3 DUP5 SUB DUP3 PUSH2 0xF51 JUMP JUMPDEST POP POP POP POP JUMPDEST JUMPDEST POP POP POP JUMP JUMPDEST PUSH2 0x1178 DUP3 PUSH2 0xC9C JUMP JUMPDEST PUSH8 0xFFFFFFFFFFFFFFFF DUP2 GT ISZERO PUSH2 0x1191 JUMPI PUSH2 0x1190 PUSH2 0xE2F JUMP JUMPDEST JUMPDEST PUSH2 0x119B DUP3 SLOAD PUSH2 0xD3B JUMP JUMPDEST PUSH2 0x11A6 DUP3 DUP3 DUP6 PUSH2 0x111C JUMP JUMPDEST PUSH0 PUSH1 0x20 SWAP1 POP PUSH1 0x1F DUP4 GT PUSH1 0x1 DUP2 EQ PUSH2 0x11D7 JUMPI PUSH0 DUP5 ISZERO PUSH2 0x11C5 JUMPI DUP3 DUP8 ADD MLOAD SWAP1 POP JUMPDEST PUSH2 0x11CF DUP6 DUP3 PUSH2 0xFF2 JUMP JUMPDEST DUP7 SSTORE POP PUSH2 0x1236 JUMP JUMPDEST PUSH1 0x1F NOT DUP5 AND PUSH2 0x11E5 DUP7 PUSH2 0x110A JUMP JUMPDEST PUSH0 JUMPDEST DUP3 DUP2 LT ISZERO PUSH2 0x120C JUMPI DUP5 DUP10 ADD MLOAD DUP3 SSTORE PUSH1 0x1 DUP3 ADD SWAP2 POP PUSH1 0x20 DUP6 ADD SWAP5 POP PUSH1 0x20 DUP2 ADD SWAP1 POP PUSH2 0x11E7 JUMP JUMPDEST DUP7 DUP4 LT ISZERO PUSH2 0x1229 JUMPI DUP5 DUP10 ADD MLOAD PUSH2 0x1225 PUSH1 0x1F DUP10 AND DUP3 PUSH2 0xFD6 JUMP JUMPDEST DUP4 SSTORE POP JUMPDEST PUSH1 0x1 PUSH1 0x2 DUP9 MUL ADD DUP9 SSTORE POP POP POP JUMPDEST POP POP POP POP POP POP JUMP JUMPDEST PUSH32 0x45787465726E616C2063616C6C20726576657274656400000000000000000000 PUSH0 DUP3 ADD MSTORE POP JUMP JUMPDEST PUSH0 PUSH2 0x1272 PUSH1 0x16 DUP4 PUSH2 0xCA6 JUMP JUMPDEST SWAP2 POP PUSH2 0x127D DUP3 PUSH2 0x123E JUMP JUMPDEST PUSH1 0x20 DUP3 ADD SWAP1 POP SWAP2 SWAP1 POP JUMP JUMPDEST PUSH0 PUSH1 0x20 DUP3 ADD SWAP1 POP DUP2 DUP2 SUB PUSH0 DUP4 ADD MSTORE PUSH2 0x129F DUP2 PUSH2 0x1266 JUMP JUMPDEST SWAP1 POP SWAP2 SWAP1 POP JUMP JUMPDEST POP JUMP JUMPDEST PUSH0 PUSH2 0x12B4 PUSH0 DUP4 PUSH2 0xDDF JUMP JUMPDEST SWAP2 POP PUSH2 0x12BF DUP3 PUSH2 0x12A6 JUMP JUMPDEST PUSH0 DUP3 ADD SWAP1 POP SWAP2 SWAP1 POP JUMP JUMPDEST PUSH0 PUSH2 0x12D3 DUP3 PUSH2 0x12A9 JUMP JUMPDEST SWAP2 POP DUP2 SWAP1 POP SWAP2 SWAP1 POP JUMP JUMPDEST PUSH32 0x455448207472616E73666572206661696C656400000000000000000000000000 PUSH0 DUP3 ADD MSTORE POP JUMP JUMPDEST PUSH0 PUSH2 0x1311 PUSH1 0x13 DUP4 PUSH2 0xCA6 JUMP JUMPDEST SWAP2 POP PUSH2 0x131C DUP3 PUSH2 0x12DD JUMP JUMPDEST PUSH1 0x20 DUP3 ADD SWAP1 POP SWAP2 SWAP1 POP JUMP JUMPDEST PUSH0 PUSH1 0x20 DUP3 ADD SWAP1 POP DUP2 DUP2 SUB PUSH0 DUP4 ADD MSTORE PUSH2 0x133E DUP2 PUSH2 0x1305 JUMP JUMPDEST SWAP1 POP SWAP2 SWAP1 POP JUMP JUMPDEST PUSH32 0x45787465726E616C2066756E6374696F6E2063616C6C206661696C6564000000 PUSH0 DUP3 ADD MSTORE POP JUMP JUMPDEST PUSH0 PUSH2 0x1379 PUSH1 0x1D DUP4 PUSH2 0xCA6 JUMP JUMPDEST SWAP2 POP PUSH2 0x1384 DUP3 PUSH2 0x1345 JUMP JUMPDEST PUSH1 0x20 DUP3 ADD SWAP1 POP SWAP2 SWAP1 POP JUMP JUMPDEST PUSH0 PUSH1 0x20 DUP3 ADD SWAP1 POP DUP2 DUP2 SUB PUSH0 DUP4 ADD MSTORE PUSH2 0x13A6 DUP2 PUSH2 0x136D JUMP JUMPDEST SWAP1 POP SWAP2 SWAP1 POP JUMP JUMPDEST PUSH0 DUP2 PUSH1 0xE0 SHR SWAP1 POP SWAP2 SWAP1 POP JUMP JUMPDEST PUSH0 PUSH1 0x3 RETURNDATASIZE GT ISZERO PUSH2 0x13D5 JUMPI PUSH1 0x4 PUSH0 PUSH0 RETURNDATACOPY PUSH2 0x13D2 PUSH0 MLOAD PUSH2 0x13AD JUMP JUMPDEST SWAP1 POP JUMPDEST SWAP1 JUMP JUMPDEST PUSH2 0x13E1 DUP3 PUSH2 0xAD4 JUMP JUMPDEST DUP2 ADD DUP2 DUP2 LT PUSH8 0xFFFFFFFFFFFFFFFF DUP3 GT OR ISZERO PUSH2 0x1400 JUMPI PUSH2 0x13FF PUSH2 0xE2F JUMP JUMPDEST JUMPDEST DUP1 PUSH1 0x40 MSTORE POP POP POP JUMP JUMPDEST PUSH0 PUSH1 0x44 RETURNDATASIZE LT PUSH2 0x1495 JUMPI PUSH2 0x141A PUSH2 0xB3C JUMP JUMPDEST PUSH1 0x4 RETURNDATASIZE SUB PUSH1 0x4 DUP3 RETURNDATACOPY DUP1 MLOAD RETURNDATASIZE PUSH1 0x24 DUP3 ADD GT PUSH8 0xFFFFFFFFFFFFFFFF DUP3 GT OR ISZERO PUSH2 0x1442 JUMPI POP POP PUSH2 0x1495 JUMP JUMPDEST DUP1 DUP3 ADD DUP1 MLOAD PUSH8 0xFFFFFFFFFFFFFFFF DUP2 GT ISZERO PUSH2 0x1460 JUMPI POP POP POP POP PUSH2 0x1495 JUMP JUMPDEST DUP1 PUSH1 0x20 DUP4 ADD ADD PUSH1 0x4 RETURNDATASIZE SUB DUP6 ADD DUP2 GT ISZERO PUSH2 0x147D JUMPI POP POP POP POP POP PUSH2 0x1495 JUMP JUMPDEST PUSH2 0x148C DUP3 PUSH1 0x20 ADD DUP6 ADD DUP7 PUSH2 0x13D8 JUMP JUMPDEST DUP3 SWAP6 POP POP POP POP POP POP JUMPDEST SWAP1 JUMP JUMPDEST PUSH32 0x537563636573732066756E6374696F6E20657865637574656400000000000000 PUSH0 DUP3 ADD MSTORE POP JUMP JUMPDEST PUSH0 PUSH2 0x14CC PUSH1 0x19 DUP4 PUSH2 0xCA6 JUMP JUMPDEST SWAP2 POP PUSH2 0x14D7 DUP3 PUSH2 0x1498 JUMP JUMPDEST PUSH1 0x20 DUP3 ADD SWAP1 POP SWAP2 SWAP1 POP JUMP JUMPDEST PUSH0 PUSH1 0x20 DUP3 ADD SWAP1 POP DUP2 DUP2 SUB PUSH0 DUP4 ADD MSTORE PUSH2 0x14F9 DUP2 PUSH2 0x14C0 JUMP JUMPDEST SWAP1 POP SWAP2 SWAP1 POP JUMP JUMPDEST PUSH0 PUSH0 REVERT JUMPDEST PUSH0 PUSH0 REVERT JUMPDEST PUSH0 PUSH2 0x1511 PUSH2 0xB3C JUMP JUMPDEST SWAP1 POP PUSH2 0x151D DUP3 DUP3 PUSH2 0x13D8 JUMP JUMPDEST SWAP2 SWAP1 POP JUMP JUMPDEST PUSH0 PUSH8 0xFFFFFFFFFFFFFFFF DUP3 GT ISZERO PUSH2 0x153C JUMPI PUSH2 0x153B PUSH2 0xE2F JUMP JUMPDEST JUMPDEST PUSH2 0x1545 DUP3 PUSH2 0xAD4 JUMP JUMPDEST SWAP1 POP PUSH1 0x20 DUP2 ADD SWAP1 POP SWAP2 SWAP1 POP JUMP JUMPDEST PUSH0 PUSH2 0x1564 PUSH2 0x155F DUP5 PUSH2 0x1522 JUMP JUMPDEST PUSH2 0x1508 JUMP JUMPDEST SWAP1 POP DUP3 DUP2 MSTORE PUSH1 0x20 DUP2 ADD DUP5 DUP5 DUP5 ADD GT ISZERO PUSH2 0x1580 JUMPI PUSH2 0x157F PUSH2 0x1504 JUMP JUMPDEST JUMPDEST PUSH2 0x158B DUP5 DUP3 DUP6 PUSH2 0xAC6 JUMP JUMPDEST POP SWAP4 SWAP3 POP POP POP JUMP JUMPDEST PUSH0 DUP3 PUSH1 0x1F DUP4 ADD SLT PUSH2 0x15A7 JUMPI PUSH2 0x15A6 PUSH2 0x1500 JUMP JUMPDEST JUMPDEST DUP2 MLOAD PUSH2 0x15B7 DUP5 DUP3 PUSH1 0x20 DUP7 ADD PUSH2 0x1552 JUMP JUMPDEST SWAP2 POP POP SWAP3 SWAP2 POP POP JUMP JUMPDEST PUSH0 PUSH1 0x20 DUP3 DUP5 SUB SLT ISZERO PUSH2 0x15D5 JUMPI PUSH2 0x15D4 PUSH2 0xB45 JUMP JUMPDEST JUMPDEST PUSH0 DUP3 ADD MLOAD PUSH8 0xFFFFFFFFFFFFFFFF DUP2 GT ISZERO PUSH2 0x15F2 JUMPI PUSH2 0x15F1 PUSH2 0xB49 JUMP JUMPDEST JUMPDEST PUSH2 0x15FE DUP5 DUP3 DUP6 ADD PUSH2 0x1593 JUMP JUMPDEST SWAP2 POP POP SWAP3 SWAP2 POP POP JUMP INVALID LOG2 PUSH5 0x6970667358 0x22 SLT KECCAK256 0xD3 0xB3 CREATE2 MSIZE TIMESTAMP BYTE 0x4F PUSH10 0x478148C9733A91F8A8DA PUSH25 0x72E1427576F24045EF853FF6D264736F6C6343000822003300 "
				},
				"gasEstimates": {
					"creation": {
						"codeDepositCost": "1138600",
						"executionCost": "1178",
						"totalCost": "1139778"
					},
					"external": {
						"executionCounter()": "2447",
						"lastData()": "infinite",
						"lastReverReason()": "infinite",
						"lastSuccess()": "2465",
						"safeETHTransfer(address)": "infinite",
						"safeFailingCall(address)": "infinite",
						"safeFunctionCall(address)": "infinite",
						"tryCatchExample(address)": "infinite"
					},
					"internal": {
						"decodeRevertMessage(bytes memory)": "infinite"
					}
				},
				"methodIdentifiers": {
					"executionCounter()": "c6a50809",
					"lastData()": "006e75ec",
					"lastReverReason()": "ecf1f235",
					"lastSuccess()": "9415bc59",
					"safeETHTransfer(address)": "540208ba",
					"safeFailingCall(address)": "2d6142a7",
					"safeFunctionCall(address)": "816b9ae0",
					"tryCatchExample(address)": "c816f038"
				}
			},
			"storageLayout": {
				"storage": [
					{
						"astId": 183,
						"contract": "val61.sol:SafeCallHandler",
						"label": "lastSuccess",
						"offset": 0,
						"slot": "0",
						"type": "t_bool"
					},
					{
						"astId": 185,
						"contract": "val61.sol:SafeCallHandler",
						"label": "lastData",
						"offset": 0,
						"slot": "1",
						"type": "t_bytes_storage"
					},
					{
						"astId": 187,
						"contract": "val61.sol:SafeCallHandler",
						"label": "executionCounter",
						"offset": 0,
						"slot": "2",
						"type": "t_uint256"
					},
					{
						"astId": 189,
						"contract": "val61.sol:SafeCallHandler",
						"label": "lastReverReason",
						"offset": 0,
						"slot": "3",
						"type": "t_string_storage"
					}
				],
				"types": {
					"t_bool": {
						"encoding": "inplace",
						"label": "bool",
						"numberOfBytes": "1"
					},
					"t_bytes_storage": {
						"encoding": "bytes",
						"label": "bytes",
						"numberOfBytes": "32"
					},
					"t_string_storage": {
						"encoding": "bytes",
						"label": "string",
						"numberOfBytes": "32"
					},
					"t_uint256": {
						"encoding": "inplace",
						"label": "uint256",
						"numberOfBytes": "32"
					}
				}
			},
			"userdoc": {
				"kind": "user",
				"methods": {},
				"version": 1
			}
		}
	}
}