{
	"val61.sol": {
		"CallTargetval": {
			"abi": [
				{
					"inputs": [],
					"name": "counter",
					"outputs": [
						{
							"internalType": "uint256",
							"name": "",
							"type": "uint256"
						}
					],
					"stateMutability": "view",
					"type": "function"
				},
				{
					"inputs": [],
					"name": "failFunction",
					"outputs": [],
					"stateMutability": "pure",
					"type": "function"
				},
				{
					"inputs": [],
					"name": "successFunction",
					"outputs": [],
					"stateMutability": "nonpayable",
					"type": "function"
				},
				{
					"stateMutability": "payable",
					"type": "receive"
				}
			],
			"devdoc": {
				"kind": "dev",
				"methods": {},
				"version": 1
			},
			"evm": {
				"assembly": "    /* \"val61.sol\":2273:3323  contract CallTargetval {... */\n  mstore(0x40, 0x80)\n  callvalue\n  dup1\n  iszero\n  tag_1\n  jumpi\n  revert(0x00, 0x00)\ntag_1:\n  pop\n  dataSize(sub_0)\n  dup1\n  dataOffset(sub_0)\n  0x00\n  codecopy\n  0x00\n  return\nstop\n\nsub_0: assembly {\n        /* \"val61.sol\":2273:3323  contract CallTargetval {... */\n      mstore(0x40, 0x80)\n      jumpi(tag_1, lt(calldatasize, 0x04))\n      shr(0xe0, calldataload(0x00))\n      dup1\n      0x61bc221a\n      eq\n      tag_3\n      jumpi\n      dup1\n      0x671bd39d\n      eq\n      tag_4\n      jumpi\n      dup1\n      0xca463e19\n      eq\n      tag_5\n      jumpi\n      jump(tag_2)\n    tag_1:\n      jumpi(tag_2, calldatasize)\n        /* \"val61.sol\":3290:3312  revert(\"ETH rejected\") */\n      mload(0x40)\n      0x08c379a000000000000000000000000000000000000000000000000000000000\n      dup2\n      mstore\n      0x04\n      add\n      tag_8\n      swap1\n      tag_9\n      jump\t// in\n    tag_8:\n      mload(0x40)\n      dup1\n      swap2\n      sub\n      swap1\n      revert\n        /* \"val61.sol\":2273:3323  contract CallTargetval {... */\n    tag_2:\n      revert(0x00, 0x00)\n        /* \"val61.sol\":2347:2369  uint256 public counter */\n    tag_3:\n      callvalue\n      dup1\n      iszero\n      tag_10\n      jumpi\n      revert(0x00, 0x00)\n    tag_10:\n      pop\n      tag_11\n      tag_12\n      jump\t// in\n    tag_11:\n      mload(0x40)\n      tag_13\n      swap2\n      swap1\n      tag_14\n      jump\t// in\n    tag_13:\n      mload(0x40)\n      dup1\n      swap2\n      sub\n      swap1\n      return\n        /* \"val61.sol\":2536:2672  function successFunction()... */\n    tag_4:\n      callvalue\n      dup1\n      iszero\n      tag_15\n      jumpi\n      revert(0x00, 0x00)\n    tag_15:\n      pop\n      tag_16\n      tag_17\n      jump\t// in\n    tag_16:\n      stop\n        /* \"val61.sol\":2838:3008  function failFunction()... */\n    tag_5:\n      callvalue\n      dup1\n      iszero\n      tag_18\n      jumpi\n      revert(0x00, 0x00)\n    tag_18:\n      pop\n      tag_19\n      tag_20\n      jump\t// in\n    tag_19:\n      stop\n        /* \"val61.sol\":2347:2369  uint256 public counter */\n    tag_12:\n      sload(0x00)\n      dup2\n      jump\t// out\n        /* \"val61.sol\":2536:2672  function successFunction()... */\n    tag_17:\n        /* \"val61.sol\":2655:2662  counter */\n      0x00\n      0x00\n        /* \"val61.sol\":2655:2664  counter++ */\n      dup2\n      sload\n      dup1\n      swap3\n      swap2\n      swap1\n      tag_22\n      swap1\n      tag_23\n      jump\t// in\n    tag_22:\n      swap2\n      swap1\n      pop\n      sstore\n      pop\n        /* \"val61.sol\":2536:2672  function successFunction()... */\n      jump\t// out\n        /* \"val61.sol\":2838:3008  function failFunction()... */\n    tag_20:\n        /* \"val61.sol\":2971:3000  revert(\"Intentional failure\") */\n      mload(0x40)\n      0x08c379a000000000000000000000000000000000000000000000000000000000\n      dup2\n      mstore\n      0x04\n      add\n      tag_25\n      swap1\n      tag_26\n      jump\t// in\n    tag_25:\n      mload(0x40)\n      dup1\n      swap2\n      sub\n      swap1\n      revert\n        /* \"#utility.yul\":7:176   */\n    tag_27:\n        /* \"#utility.yul\":91:102   */\n      0x00\n        /* \"#utility.yul\":125:131   */\n      dup3\n        /* \"#utility.yul\":120:123   */\n      dup3\n        /* \"#utility.yul\":113:132   */\n      mstore\n        /* \"#utility.yul\":165:169   */\n      0x20\n        /* \"#utility.yul\":160:163   */\n      dup3\n        /* \"#utility.yul\":156:170   */\n      add\n        /* \"#utility.yul\":141:170   */\n      swap1\n      pop\n        /* \"#utility.yul\":7:176   */\n      swap3\n      swap2\n      pop\n      pop\n      jump\t// out\n        /* \"#utility.yul\":182:344   */\n    tag_28:\n        /* \"#utility.yul\":322:336   */\n      0x4554482072656a65637465640000000000000000000000000000000000000000\n        /* \"#utility.yul\":318:319   */\n      0x00\n        /* \"#utility.yul\":310:316   */\n      dup3\n        /* \"#utility.yul\":306:320   */\n      add\n        /* \"#utility.yul\":299:337   */\n      mstore\n        /* \"#utility.yul\":182:344   */\n      pop\n      jump\t// out\n        /* \"#utility.yul\":350:716   */\n    tag_29:\n        /* \"#utility.yul\":492:495   */\n      0x00\n        /* \"#utility.yul\":513:580   */\n      tag_39\n        /* \"#utility.yul\":577:579   */\n      0x0c\n        /* \"#utility.yul\":572:575   */\n      dup4\n        /* \"#utility.yul\":513:580   */\n      tag_27\n      jump\t// in\n    tag_39:\n        /* \"#utility.yul\":506:580   */\n      swap2\n      pop\n        /* \"#utility.yul\":589:682   */\n      tag_40\n        /* \"#utility.yul\":678:681   */\n      dup3\n        /* \"#utility.yul\":589:682   */\n      tag_28\n      jump\t// in\n    tag_40:\n        /* \"#utility.yul\":707:709   */\n      0x20\n        /* \"#utility.yul\":702:705   */\n      dup3\n        /* \"#utility.yul\":698:710   */\n      add\n        /* \"#utility.yul\":691:710   */\n      swap1\n      pop\n        /* \"#utility.yul\":350:716   */\n      swap2\n      swap1\n      pop\n      jump\t// out\n        /* \"#utility.yul\":722:1141   */\n    tag_9:\n        /* \"#utility.yul\":888:892   */\n      0x00\n        /* \"#utility.yul\":926:928   */\n      0x20\n        /* \"#utility.yul\":915:924   */\n      dup3\n        /* \"#utility.yul\":911:929   */\n      add\n        /* \"#utility.yul\":903:929   */\n      swap1\n      pop\n        /* \"#utility.yul\":975:984   */\n      dup2\n        /* \"#utility.yul\":969:973   */\n      dup2\n        /* \"#utility.yul\":965:985   */\n      sub\n        /* \"#utility.yul\":961:962   */\n      0x00\n        /* \"#utility.yul\":950:959   */\n      dup4\n        /* \"#utility.yul\":946:963   */\n      add\n        /* \"#utility.yul\":939:986   */\n      mstore\n        /* \"#utility.yul\":1003:1134   */\n      tag_42\n        /* \"#utility.yul\":1129:1133   */\n      dup2\n        /* \"#utility.yul\":1003:1134   */\n      tag_29\n      jump\t// in\n    tag_42:\n        /* \"#utility.yul\":995:1134   */\n      swap1\n      pop\n        /* \"#utility.yul\":722:1141   */\n      swap2\n      swap1\n      pop\n      jump\t// out\n        /* \"#utility.yul\":1147:1224   */\n    tag_30:\n        /* \"#utility.yul\":1184:1191   */\n      0x00\n        /* \"#utility.yul\":1213:1218   */\n      dup2\n        /* \"#utility.yul\":1202:1218   */\n      swap1\n      pop\n        /* \"#utility.yul\":1147:1224   */\n      swap2\n      swap1\n      pop\n      jump\t// out\n        /* \"#utility.yul\":1230:1348   */\n    tag_31:\n        /* \"#utility.yul\":1317:1341   */\n      tag_45\n        /* \"#utility.yul\":1335:1340   */\n      dup2\n        /* \"#utility.yul\":1317:1341   */\n      tag_30\n      jump\t// in\n    tag_45:\n        /* \"#utility.yul\":1312:1315   */\n      dup3\n        /* \"#utility.yul\":1305:1342   */\n      mstore\n        /* \"#utility.yul\":1230:1348   */\n      pop\n      pop\n      jump\t// out\n        /* \"#utility.yul\":1354:1576   */\n    tag_14:\n        /* \"#utility.yul\":1447:1451   */\n      0x00\n        /* \"#utility.yul\":1485:1487   */\n      0x20\n        /* \"#utility.yul\":1474:1483   */\n      dup3\n        /* \"#utility.yul\":1470:1488   */\n      add\n        /* \"#utility.yul\":1462:1488   */\n      swap1\n      pop\n        /* \"#utility.yul\":1498:1569   */\n      tag_47\n        /* \"#utility.yul\":1566:1567   */\n      0x00\n        /* \"#utility.yul\":1555:1564   */\n      dup4\n        /* \"#utility.yul\":1551:1568   */\n      add\n        /* \"#utility.yul\":1542:1548   */\n      dup5\n        /* \"#utility.yul\":1498:1569   */\n      tag_31\n      jump\t// in\n    tag_47:\n        /* \"#utility.yul\":1354:1576   */\n      swap3\n      swap2\n      pop\n      pop\n      jump\t// out\n        /* \"#utility.yul\":1582:1762   */\n    tag_32:\n        /* \"#utility.yul\":1630:1707   */\n      0x4e487b7100000000000000000000000000000000000000000000000000000000\n        /* \"#utility.yul\":1627:1628   */\n      0x00\n        /* \"#utility.yul\":1620:1708   */\n      mstore\n        /* \"#utility.yul\":1727:1731   */\n      0x11\n        /* \"#utility.yul\":1724:1725   */\n      0x04\n        /* \"#utility.yul\":1717:1732   */\n      mstore\n        /* \"#utility.yul\":1751:1755   */\n      0x24\n        /* \"#utility.yul\":1748:1749   */\n      0x00\n        /* \"#utility.yul\":1741:1756   */\n      revert\n        /* \"#utility.yul\":1768:2001   */\n    tag_23:\n        /* \"#utility.yul\":1807:1810   */\n      0x00\n        /* \"#utility.yul\":1830:1854   */\n      tag_50\n        /* \"#utility.yul\":1848:1853   */\n      dup3\n        /* \"#utility.yul\":1830:1854   */\n      tag_30\n      jump\t// in\n    tag_50:\n        /* \"#utility.yul\":1821:1854   */\n      swap2\n      pop\n        /* \"#utility.yul\":1876:1942   */\n      0xffffffffffffffffffffffffffffffffffffffffffffffffffffffffffffffff\n        /* \"#utility.yul\":1869:1874   */\n      dup3\n        /* \"#utility.yul\":1866:1943   */\n      sub\n        /* \"#utility.yul\":1863:1966   */\n      tag_51\n      jumpi\n        /* \"#utility.yul\":1946:1964   */\n      tag_52\n      tag_32\n      jump\t// in\n    tag_52:\n        /* \"#utility.yul\":1863:1966   */\n    tag_51:\n        /* \"#utility.yul\":1993:1994   */\n      0x01\n        /* \"#utility.yul\":1986:1991   */\n      dup3\n        /* \"#utility.yul\":1982:1995   */\n      add\n        /* \"#utility.yul\":1975:1995   */\n      swap1\n      pop\n        /* \"#utility.yul\":1768:2001   */\n      swap2\n      swap1\n      pop\n      jump\t// out\n        /* \"#utility.yul\":2007:2176   */\n    tag_33:\n        /* \"#utility.yul\":2147:2168   */\n      0x496e74656e74696f6e616c206661696c75726500000000000000000000000000\n        /* \"#utility.yul\":2143:2144   */\n      0x00\n        /* \"#utility.yul\":2135:2141   */\n      dup3\n        /* \"#utility.yul\":2131:2145   */\n      add\n        /* \"#utility.yul\":2124:2169   */\n      mstore\n        /* \"#utility.yul\":2007:2176   */\n      pop\n      jump\t// out\n        /* \"#utility.yul\":2182:2548   */\n    tag_34:\n        /* \"#utility.yul\":2324:2327   */\n      0x00\n        /* \"#utility.yul\":2345:2412   */\n      tag_55\n        /* \"#utility.yul\":2409:2411   */\n      0x13\n        /* \"#utility.yul\":2404:2407   */\n      dup4\n        /* \"#utility.yul\":2345:2412   */\n      tag_27\n      jump\t// in\n    tag_55:\n        /* \"#utility.yul\":2338:2412   */\n      swap2\n      pop\n        /* \"#utility.yul\":2421:2514   */\n      tag_56\n        /* \"#utility.yul\":2510:2513   */\n      dup3\n        /* \"#utility.yul\":2421:2514   */\n      tag_33\n      jump\t// in\n    tag_56:\n        /* \"#utility.yul\":2539:2541   */\n      0x20\n        /* \"#utility.yul\":2534:2537   */\n      dup3\n        /* \"#utility.yul\":2530:2542   */\n      add\n        /* \"#utility.yul\":2523:2542   */\n      swap1\n      pop\n        /* \"#utility.yul\":2182:2548   */\n      swap2\n      swap1\n      pop\n      jump\t// out\n        /* \"#utility.yul\":2554:2973   */\n    tag_26:\n        /* \"#utility.yul\":2720:2724   */\n      0x00\n        /* \"#utility.yul\":2758:2760   */\n      0x20\n        /* \"#utility.yul\":2747:2756   */\n      dup3\n        /* \"#utility.yul\":2743:2761   */\n      add\n        /* \"#utility.yul\":2735:2761   */\n      swap1\n      pop\n        /* \"#utility.yul\":2807:2816   */\n      dup2\n        /* \"#utility.yul\":2801:2805   */\n      dup2\n        /* \"#utility.yul\":2797:2817   */\n      sub\n        /* \"#utility.yul\":2793:2794   */\n      0x00\n        /* \"#utility.yul\":2782:2791   */\n      dup4\n        /* \"#utility.yul\":2778:2795   */\n      add\n        /* \"#utility.yul\":2771:2818   */\n      mstore\n        /* \"#utility.yul\":2835:2966   */\n      tag_58\n        /* \"#utility.yul\":2961:2965   */\n      dup2\n        /* \"#utility.yul\":2835:2966   */\n      tag_34\n      jump\t// in\n    tag_58:\n        /* \"#utility.yul\":2827:2966   */\n      swap1\n      pop\n        /* \"#utility.yul\":2554:2973   */\n      swap2\n      swap1\n      pop\n      jump\t// out\n\n    auxdata: 0xa2646970667358221220b5366a604b29c2cb33ba42a71743430febe715ecf102fb5e58a2f6936f723a6b64736f6c63430008220033\n}\n",
				"bytecode": {
					"linkReferences": {},
					"object": "6080604052348015600e575f5ffd5b506102e48061001c5f395ff3fe608060405260043610610037575f3560e01c806361bc221a1461007b578063671bd39d146100a5578063ca463e19146100bb57610077565b36610077576040517f08c379a000000000000000000000000000000000000000000000000000000000815260040161006e90610183565b60405180910390fd5b5f5ffd5b348015610086575f5ffd5b5061008f6100d1565b60405161009c91906101b9565b60405180910390f35b3480156100b0575f5ffd5b506100b96100d6565b005b3480156100c6575f5ffd5b506100cf6100ee565b005b5f5481565b5f5f8154809291906100e7906101ff565b9190505550565b6040517f08c379a000000000000000000000000000000000000000000000000000000000815260040161012090610290565b60405180910390fd5b5f82825260208201905092915050565b7f4554482072656a656374656400000000000000000000000000000000000000005f82015250565b5f61016d600c83610129565b915061017882610139565b602082019050919050565b5f6020820190508181035f83015261019a81610161565b9050919050565b5f819050919050565b6101b3816101a1565b82525050565b5f6020820190506101cc5f8301846101aa565b92915050565b7f4e487b71000000000000000000000000000000000000000000000000000000005f52601160045260245ffd5b5f610209826101a1565b91507fffffffffffffffffffffffffffffffffffffffffffffffffffffffffffffffff820361023b5761023a6101d2565b5b600182019050919050565b7f496e74656e74696f6e616c206661696c757265000000000000000000000000005f82015250565b5f61027a601383610129565b915061028582610246565b602082019050919050565b5f6020820190508181035f8301526102a78161026e565b905091905056fea2646970667358221220b5366a604b29c2cb33ba42a71743430febe715ecf102fb5e58a2f6936f723a6b64736f6c63430008220033",
					"opcodes": "PUSH1 0x80 PUSH1 0x40 MSTORE CALLVALUE DUP1 ISZERO PUSH1 0xE JUMPI PUSH0 PUSH0 REVERT JUMPDEST POP PUSH2 0x2E4 DUP1 PUSH2 0x1C PUSH0 CODECOPY PUSH0 RETURN INVALID PUSH1 0x80 PUSH1 0x40 MSTORE PUSH1 0x4 CALLDATASIZE LT PUSH2 0x37 JUMPI PUSH0 CALLDATALOAD PUSH1 0xE0 SHR DUP1 PUSH4 0x61BC221A EQ PUSH2 0x7B JUMPI DUP1 PUSH4 0x671BD39D EQ PUSH2 0xA5 JUMPI DUP1 PUSH4 0xCA463E19 EQ PUSH2 0xBB JUMPI PUSH2 0x77 JUMP JUMPDEST CALLDATASIZE PUSH2 0x77 JUMPI PUSH1 0x40 MLOAD PUSH32 0x8C379A000000000000000000000000000000000000000000000000000000000 DUP2 MSTORE PUSH1 0x4 ADD PUSH2 0x6E SWAP1 PUSH2 0x183 JUMP JUMPDEST PUSH1 0x40 MLOAD DUP1 SWAP2 SUB SWAP1 REVERT JUMPDEST PUSH0 PUSH0 REVERT JUMPDEST CALLVALUE DUP1 ISZERO PUSH2 0x86 JUMPI PUSH0 PUSH0 REVERT JUMPDEST POP PUSH2 0x8F PUSH2 0xD1 JUMP JUMPDEST PUSH1 0x40 MLOAD PUSH2 0x9C SWAP2 SWAP1 PUSH2 0x1B9 JUMP JUMPDEST PUSH1 0x40 MLOAD DUP1 SWAP2 SUB SWAP1 RETURN JUMPDEST CALLVALUE DUP1 ISZERO PUSH2 0xB0 JUMPI PUSH0 PUSH0 REVERT JUMPDEST POP PUSH2 0xB9 PUSH2 0xD6 JUMP JUMPDEST STOP JUMPDEST CALLVALUE DUP1 ISZERO PUSH2 0xC6 JUMPI PUSH0 PUSH0 REVERT JUMPDEST POP PUSH2 0xCF PUSH2 0xEE JUMP JUMPDEST STOP JUMPDEST PUSH0 SLOAD DUP2 JUMP JUMPDEST PUSH0 PUSH0 DUP2 SLOAD DUP1 SWAP3 SWAP2 SWAP1 PUSH2 0xE7 SWAP1 PUSH2 0x1FF JUMP JUMPDEST SWAP2 SWAP1 POP SSTORE POP JUMP JUMPDEST PUSH1 0x40 MLOAD PUSH32 0x8C379A000000000000000000000000000000000000000000000000000000000 DUP2 MSTORE PUSH1 0x4 ADD PUSH2 0x120 SWAP1 PUSH2 0x290 JUMP JUMPDEST PUSH1 0x40 MLOAD DUP1 SWAP2 SUB SWAP1 REVERT JUMPDEST PUSH0 DUP3 DUP3 MSTORE PUSH1 0x20 DUP3 ADD SWAP1 POP SWAP3 SWAP2 POP POP JUMP JUMPDEST PUSH32 0x4554482072656A65637465640000000000000000000000000000000000000000 PUSH0 DUP3 ADD MSTORE POP JUMP JUMPDEST PUSH0 PUSH2 0x16D PUSH1 0xC DUP4 PUSH2 0x129 JUMP JUMPDEST SWAP2 POP PUSH2 0x178 DUP3 PUSH2 0x139 JUMP JUMPDEST PUSH1 0x20 DUP3 ADD SWAP1 POP SWAP2 SWAP1 POP JUMP JUMPDEST PUSH0 PUSH1 0x20 DUP3 ADD SWAP1 POP DUP2 DUP2 SUB PUSH0 DUP4 ADD MSTORE PUSH2 0x19A DUP2 PUSH2 0x161 JUMP JUMPDEST SWAP1 POP SWAP2 SWAP1 POP JUMP JUMPDEST PUSH0 DUP2 SWAP1 POP SWAP2 SWAP1 POP JUMP JUMPDEST PUSH2 0x1B3 DUP2 PUSH2 0x1A1 JUMP JUMPDEST DUP3 MSTORE POP POP JUMP JUMPDEST PUSH0 PUSH1 0x20 DUP3 ADD SWAP1 POP PUSH2 0x1CC PUSH0 DUP4 ADD DUP5 PUSH2 0x1AA JUMP JUMPDEST SWAP3 SWAP2 POP POP JUMP JUMPDEST PUSH32 0x4E487B7100000000000000000000000000000000000000000000000000000000 PUSH0 MSTORE PUSH1 0x11 PUSH1 0x4 MSTORE PUSH1 0x24 PUSH0 REVERT JUMPDEST PUSH0 PUSH2 0x209 DUP3 PUSH2 0x1A1 JUMP JUMPDEST SWAP2 POP PUSH32 0xFFFFFFFFFFFFFFFFFFFFFFFFFFFFFFFFFFFFFFFFFFFFFFFFFFFFFFFFFFFFFFFF DUP3 SUB PUSH2 0x23B JUMPI PUSH2 0x23A PUSH2 0x1D2 JUMP JUMPDEST JUMPDEST PUSH1 0x1 DUP3 ADD SWAP1 POP SWAP2 SWAP1 POP JUMP JUMPDEST PUSH32 0x496E74656E74696F6E616C206661696C75726500000000000000000000000000 PUSH0 DUP3 ADD MSTORE POP JUMP JUMPDEST PUSH0 PUSH2 0x27A PUSH1 0x13 DUP4 PUSH2 0x129 JUMP JUMPDEST SWAP2 POP PUSH2 0x285 DUP3 PUSH2 0x246 JUMP JUMPDEST PUSH1 0x20 DUP3 ADD SWAP1 POP SWAP2 SWAP1 POP JUMP JUMPDEST PUSH0 PUSH1 0x20 DUP3 ADD SWAP1 POP DUP2 DUP2 SUB PUSH0 DUP4 ADD MSTORE PUSH2 0x2A7 DUP2 PUSH2 0x26E JUMP JUMPDEST SWAP1 POP SWAP2 SWAP1 POP JUMP INVALID LOG2 PUSH5 0x6970667358 0x22 SLT KECCAK256 0xB5 CALLDATASIZE PUSH11 0x604B29C2CB33BA42A71743 NUMBER 0xF 0xEB SWAPN 0x15 EOFCREATE 0xF1 MUL EXTSTATICCALL MCOPY PC LOG2 0xF6 SWAP4 PUSH16 0x723A6B64736F6C634300082200330000 "
				},
				"gasEstimates": {
					"creation": {
						"codeDepositCost": "148000",
						"executionCost": "194",
						"totalCost": "148194"
					},
					"external": {
						"counter()": "2402",
						"failFunction()": "450",
						"successFunction()": "24496"
					}
				},
				"methodIdentifiers": {
					"counter()": "61bc221a",
					"failFunction()": "ca463e19",
					"successFunction()": "671bd39d"
				}
			},
			"storageLayout": {
				"storage": [
					{
						"astId": 3,
						"contract": "val61.sol:CallTargetval",
						"label": "counter",
						"offset": 0,
						"slot": "0",
						"type": "t_uint256"
					}
				],
				"types": {
					"t_uint256": {
						"encoding": "inplace",
						"label": "uint256",
						"numberOfBytes": "32"
					}
				}
			},
			"userdoc": {
				"kind": "user",
				"methods": {},
				"version": 1
			}
		}
	}
}