{
	"val61.sol": {
		"CallTarget": {
			"abi": [
				{
					"anonymous": false,
					"inputs": [
						{
							"indexed": false,
							"internalType": "address",
							"name": "caller",
							"type": "address"
						},
						{
							"indexed": false,
							"internalType": "string",
							"name": "reason",
							"type": "string"
						}
					],
					"name": "FailureTriggered",
					"type": "event"
				},
				{
					"anonymous": false,
					"inputs": [
						{
							"indexed": false,
							"internalType": "address",
							"name": "caller",
							"type": "address"
						}
					],
					"name": "SuccessExecuted",
					"type": "event"
				},
				{
					"inputs": [],
					"name": "counter",
					"outputs": [
						{
							"internalType": "uint256",
							"name": "",
							"type": "uint256"
						}
					],
					"stateMutability": "view",
					"type": "function"
				},
				{
					"inputs": [],
					"name": "failFunction",
					"outputs": [],
					"stateMutability": "pure",
					"type": "function"
				},
				{
					"inputs": [],
					"name": "successFunction",
					"outputs": [],
					"stateMutability": "nonpayable",
					"type": "function"
				},
				{
					"stateMutability": "payable",
					"type": "receive"
				}
			],
			"devdoc": {
				"kind": "dev",
				"methods": {},
				"version": 1
			},
			"evm": {
				"assembly": "    /* \"val61.sol\":17819:19036  contract CallTarget {... */\n  mstore(0x40, 0x80)\n  callvalue\n  dup1\n  iszero\n  tag_1\n  jumpi\n  revert(0x00, 0x00)\ntag_1:\n  pop\n  dataSize(sub_0)\n  dup1\n  dataOffset(sub_0)\n  0x00\n  codecopy\n  0x00\n  return\nstop\n\nsub_0: assembly {\n        /* \"val61.sol\":17819:19036  contract CallTarget {... */\n      mstore(0x40, 0x80)\n      jumpi(tag_1, lt(calldatasize, 0x04))\n      shr(0xe0, calldataload(0x00))\n      dup1\n      0x61bc221a\n      eq\n      tag_3\n      jumpi\n      dup1\n      0x671bd39d\n      eq\n      tag_4\n      jumpi\n      dup1\n      0xca463e19\n      eq\n      tag_5\n      jumpi\n      jump(tag_2)\n    tag_1:\n      jumpi(tag_2, calldatasize)\n        /* \"val61.sol\":19003:19025  revert(\"ETH rejected\") */\n      mload(0x40)\n      0x08c379a000000000000000000000000000000000000000000000000000000000\n      dup2\n      mstore\n      0x04\n      add\n      tag_8\n      swap1\n      tag_9\n      jump\t// in\n    tag_8:\n      mload(0x40)\n      dup1\n      swap2\n      sub\n      swap1\n      revert\n        /* \"val61.sol\":17819:19036  contract CallTarget {... */\n    tag_2:\n      revert(0x00, 0x00)\n        /* \"val61.sol\":17890:17912  uint256 public counter */\n    tag_3:\n      callvalue\n      dup1\n      iszero\n      tag_10\n      jumpi\n      revert(0x00, 0x00)\n    tag_10:\n      pop\n      tag_11\n      tag_12\n      jump\t// in\n    tag_11:\n      mload(0x40)\n      tag_13\n      swap2\n      swap1\n      tag_14\n      jump\t// in\n    tag_13:\n      mload(0x40)\n      dup1\n      swap2\n      sub\n      swap1\n      return\n        /* \"val61.sol\":18204:18385  function successFunction()... */\n    tag_4:\n      callvalue\n      dup1\n      iszero\n      tag_15\n      jumpi\n      revert(0x00, 0x00)\n    tag_15:\n      pop\n      tag_16\n      tag_17\n      jump\t// in\n    tag_16:\n      stop\n        /* \"val61.sol\":18551:18721  function failFunction()... */\n    tag_5:\n      callvalue\n      dup1\n      iszero\n      tag_18\n      jumpi\n      revert(0x00, 0x00)\n    tag_18:\n      pop\n      tag_19\n      tag_20\n      jump\t// in\n    tag_19:\n      stop\n        /* \"val61.sol\":17890:17912  uint256 public counter */\n    tag_12:\n      sload(0x00)\n      dup2\n      jump\t// out\n        /* \"val61.sol\":18204:18385  function successFunction()... */\n    tag_17:\n        /* \"val61.sol\":18323:18330  counter */\n      0x00\n      0x00\n        /* \"val61.sol\":18323:18332  counter++ */\n      dup2\n      sload\n      dup1\n      swap3\n      swap2\n      swap1\n      tag_22\n      swap1\n      tag_23\n      jump\t// in\n    tag_22:\n      swap2\n      swap1\n      pop\n      sstore\n      pop\n        /* \"val61.sol\":18350:18377  SuccessExecuted(msg.sender) */\n      0x59116cc78f9029c98db98283c105799681e488b5367a219a2bb878180888947b\n        /* \"val61.sol\":18366:18376  msg.sender */\n      caller\n        /* \"val61.sol\":18350:18377  SuccessExecuted(msg.sender) */\n      mload(0x40)\n      tag_24\n      swap2\n      swap1\n      tag_25\n      jump\t// in\n    tag_24:\n      mload(0x40)\n      dup1\n      swap2\n      sub\n      swap1\n      log1\n        /* \"val61.sol\":18204:18385  function successFunction()... */\n      jump\t// out\n        /* \"val61.sol\":18551:18721  function failFunction()... */\n    tag_20:\n        /* \"val61.sol\":18684:18713  revert(\"Intentional failure\") */\n      mload(0x40)\n      0x08c379a000000000000000000000000000000000000000000000000000000000\n      dup2\n      mstore\n      0x04\n      add\n      tag_27\n      swap1\n      tag_28\n      jump\t// in\n    tag_27:\n      mload(0x40)\n      dup1\n      swap2\n      sub\n      swap1\n      revert\n        /* \"#utility.yul\":7:176   */\n    tag_29:\n        /* \"#utility.yul\":91:102   */\n      0x00\n        /* \"#utility.yul\":125:131   */\n      dup3\n        /* \"#utility.yul\":120:123   */\n      dup3\n        /* \"#utility.yul\":113:132   */\n      mstore\n        /* \"#utility.yul\":165:169   */\n      0x20\n        /* \"#utility.yul\":160:163   */\n      dup3\n        /* \"#utility.yul\":156:170   */\n      add\n        /* \"#utility.yul\":141:170   */\n      swap1\n      pop\n        /* \"#utility.yul\":7:176   */\n      swap3\n      swap2\n      pop\n      pop\n      jump\t// out\n        /* \"#utility.yul\":182:344   */\n    tag_30:\n        /* \"#utility.yul\":322:336   */\n      0x4554482072656a65637465640000000000000000000000000000000000000000\n        /* \"#utility.yul\":318:319   */\n      0x00\n        /* \"#utility.yul\":310:316   */\n      dup3\n        /* \"#utility.yul\":306:320   */\n      add\n        /* \"#utility.yul\":299:337   */\n      mstore\n        /* \"#utility.yul\":182:344   */\n      pop\n      jump\t// out\n        /* \"#utility.yul\":350:716   */\n    tag_31:\n        /* \"#utility.yul\":492:495   */\n      0x00\n        /* \"#utility.yul\":513:580   */\n      tag_44\n        /* \"#utility.yul\":577:579   */\n      0x0c\n        /* \"#utility.yul\":572:575   */\n      dup4\n        /* \"#utility.yul\":513:580   */\n      tag_29\n      jump\t// in\n    tag_44:\n        /* \"#utility.yul\":506:580   */\n      swap2\n      pop\n        /* \"#utility.yul\":589:682   */\n      tag_45\n        /* \"#utility.yul\":678:681   */\n      dup3\n        /* \"#utility.yul\":589:682   */\n      tag_30\n      jump\t// in\n    tag_45:\n        /* \"#utility.yul\":707:709   */\n      0x20\n        /* \"#utility.yul\":702:705   */\n      dup3\n        /* \"#utility.yul\":698:710   */\n      add\n        /* \"#utility.yul\":691:710   */\n      swap1\n      pop\n        /* \"#utility.yul\":350:716   */\n      swap2\n      swap1\n      pop\n      jump\t// out\n        /* \"#utility.yul\":722:1141   */\n    tag_9:\n        /* \"#utility.yul\":888:892   */\n      0x00\n        /* \"#utility.yul\":926:928   */\n      0x20\n        /* \"#utility.yul\":915:924   */\n      dup3\n        /* \"#utility.yul\":911:929   */\n      add\n        /* \"#utility.yul\":903:929   */\n      swap1\n      pop\n        /* \"#utility.yul\":975:984   */\n      dup2\n        /* \"#utility.yul\":969:973   */\n      dup2\n        /* \"#utility.yul\":965:985   */\n      sub\n        /* \"#utility.yul\":961:962   */\n      0x00\n        /* \"#utility.yul\":950:959   */\n      dup4\n        /* \"#utility.yul\":946:963   */\n      add\n        /* \"#utility.yul\":939:986   */\n      mstore\n        /* \"#utility.yul\":1003:1134   */\n      tag_47\n        /* \"#utility.yul\":1129:1133   */\n      dup2\n        /* \"#utility.yul\":1003:1134   */\n      tag_31\n      jump\t// in\n    tag_47:\n        /* \"#utility.yul\":995:1134   */\n      swap1\n      pop\n        /* \"#utility.yul\":722:1141   */\n      swap2\n      swap1\n      pop\n      jump\t// out\n        /* \"#utility.yul\":1147:1224   */\n    tag_32:\n        /* \"#utility.yul\":1184:1191   */\n      0x00\n        /* \"#utility.yul\":1213:1218   */\n      dup2\n        /* \"#utility.yul\":1202:1218   */\n      swap1\n      pop\n        /* \"#utility.yul\":1147:1224   */\n      swap2\n      swap1\n      pop\n      jump\t// out\n        /* \"#utility.yul\":1230:1348   */\n    tag_33:\n        /* \"#utility.yul\":1317:1341   */\n      tag_50\n        /* \"#utility.yul\":1335:1340   */\n      dup2\n        /* \"#utility.yul\":1317:1341   */\n      tag_32\n      jump\t// in\n    tag_50:\n        /* \"#utility.yul\":1312:1315   */\n      dup3\n        /* \"#utility.yul\":1305:1342   */\n      mstore\n        /* \"#utility.yul\":1230:1348   */\n      pop\n      pop\n      jump\t// out\n        /* \"#utility.yul\":1354:1576   */\n    tag_14:\n        /* \"#utility.yul\":1447:1451   */\n      0x00\n        /* \"#utility.yul\":1485:1487   */\n      0x20\n        /* \"#utility.yul\":1474:1483   */\n      dup3\n        /* \"#utility.yul\":1470:1488   */\n      add\n        /* \"#utility.yul\":1462:1488   */\n      swap1\n      pop\n        /* \"#utility.yul\":1498:1569   */\n      tag_52\n        /* \"#utility.yul\":1566:1567   */\n      0x00\n        /* \"#utility.yul\":1555:1564   */\n      dup4\n        /* \"#utility.yul\":1551:1568   */\n      add\n        /* \"#utility.yul\":1542:1548   */\n      dup5\n        /* \"#utility.yul\":1498:1569   */\n      tag_33\n      jump\t// in\n    tag_52:\n        /* \"#utility.yul\":1354:1576   */\n      swap3\n      swap2\n      pop\n      pop\n      jump\t// out\n        /* \"#utility.yul\":1582:1762   */\n    tag_34:\n        /* \"#utility.yul\":1630:1707   */\n      0x4e487b7100000000000000000000000000000000000000000000000000000000\n        /* \"#utility.yul\":1627:1628   */\n      0x00\n        /* \"#utility.yul\":1620:1708   */\n      mstore\n        /* \"#utility.yul\":1727:1731   */\n      0x11\n        /* \"#utility.yul\":1724:1725   */\n      0x04\n        /* \"#utility.yul\":1717:1732   */\n      mstore\n        /* \"#utility.yul\":1751:1755   */\n      0x24\n        /* \"#utility.yul\":1748:1749   */\n      0x00\n        /* \"#utility.yul\":1741:1756   */\n      revert\n        /* \"#utility.yul\":1768:2001   */\n    tag_23:\n        /* \"#utility.yul\":1807:1810   */\n      0x00\n        /* \"#utility.yul\":1830:1854   */\n      tag_55\n        /* \"#utility.yul\":1848:1853   */\n      dup3\n        /* \"#utility.yul\":1830:1854   */\n      tag_32\n      jump\t// in\n    tag_55:\n        /* \"#utility.yul\":1821:1854   */\n      swap2\n      pop\n        /* \"#utility.yul\":1876:1942   */\n      0xffffffffffffffffffffffffffffffffffffffffffffffffffffffffffffffff\n        /* \"#utility.yul\":1869:1874   */\n      dup3\n        /* \"#utility.yul\":1866:1943   */\n      sub\n        /* \"#utility.yul\":1863:1966   */\n      tag_56\n      jumpi\n        /* \"#utility.yul\":1946:1964   */\n      tag_57\n      tag_34\n      jump\t// in\n    tag_57:\n        /* \"#utility.yul\":1863:1966   */\n    tag_56:\n        /* \"#utility.yul\":1993:1994   */\n      0x01\n        /* \"#utility.yul\":1986:1991   */\n      dup3\n        /* \"#utility.yul\":1982:1995   */\n      add\n        /* \"#utility.yul\":1975:1995   */\n      swap1\n      pop\n        /* \"#utility.yul\":1768:2001   */\n      swap2\n      swap1\n      pop\n      jump\t// out\n        /* \"#utility.yul\":2007:2133   */\n    tag_35:\n        /* \"#utility.yul\":2044:2051   */\n      0x00\n        /* \"#utility.yul\":2084:2126   */\n      0xffffffffffffffffffffffffffffffffffffffff\n        /* \"#utility.yul\":2077:2082   */\n      dup3\n        /* \"#utility.yul\":2073:2127   */\n      and\n        /* \"#utility.yul\":2062:2127   */\n      swap1\n      pop\n        /* \"#utility.yul\":2007:2133   */\n      swap2\n      swap1\n      pop\n      jump\t// out\n        /* \"#utility.yul\":2139:2235   */\n    tag_36:\n        /* \"#utility.yul\":2176:2183   */\n      0x00\n        /* \"#utility.yul\":2205:2229   */\n      tag_60\n        /* \"#utility.yul\":2223:2228   */\n      dup3\n        /* \"#utility.yul\":2205:2229   */\n      tag_35\n      jump\t// in\n    tag_60:\n        /* \"#utility.yul\":2194:2229   */\n      swap1\n      pop\n        /* \"#utility.yul\":2139:2235   */\n      swap2\n      swap1\n      pop\n      jump\t// out\n        /* \"#utility.yul\":2241:2359   */\n    tag_37:\n        /* \"#utility.yul\":2328:2352   */\n      tag_62\n        /* \"#utility.yul\":2346:2351   */\n      dup2\n        /* \"#utility.yul\":2328:2352   */\n      tag_36\n      jump\t// in\n    tag_62:\n        /* \"#utility.yul\":2323:2326   */\n      dup3\n        /* \"#utility.yul\":2316:2353   */\n      mstore\n        /* \"#utility.yul\":2241:2359   */\n      pop\n      pop\n      jump\t// out\n        /* \"#utility.yul\":2365:2587   */\n    tag_25:\n        /* \"#utility.yul\":2458:2462   */\n      0x00\n        /* \"#utility.yul\":2496:2498   */\n      0x20\n        /* \"#utility.yul\":2485:2494   */\n      dup3\n        /* \"#utility.yul\":2481:2499   */\n      add\n        /* \"#utility.yul\":2473:2499   */\n      swap1\n      pop\n        /* \"#utility.yul\":2509:2580   */\n      tag_64\n        /* \"#utility.yul\":2577:2578   */\n      0x00\n        /* \"#utility.yul\":2566:2575   */\n      dup4\n        /* \"#utility.yul\":2562:2579   */\n      add\n        /* \"#utility.yul\":2553:2559   */\n      dup5\n        /* \"#utility.yul\":2509:2580   */\n      tag_37\n      jump\t// in\n    tag_64:\n        /* \"#utility.yul\":2365:2587   */\n      swap3\n      swap2\n      pop\n      pop\n      jump\t// out\n        /* \"#utility.yul\":2593:2762   */\n    tag_38:\n        /* \"#utility.yul\":2733:2754   */\n      0x496e74656e74696f6e616c206661696c75726500000000000000000000000000\n        /* \"#utility.yul\":2729:2730   */\n      0x00\n        /* \"#utility.yul\":2721:2727   */\n      dup3\n        /* \"#utility.yul\":2717:2731   */\n      add\n        /* \"#utility.yul\":2710:2755   */\n      mstore\n        /* \"#utility.yul\":2593:2762   */\n      pop\n      jump\t// out\n        /* \"#utility.yul\":2768:3134   */\n    tag_39:\n        /* \"#utility.yul\":2910:2913   */\n      0x00\n        /* \"#utility.yul\":2931:2998   */\n      tag_67\n        /* \"#utility.yul\":2995:2997   */\n      0x13\n        /* \"#utility.yul\":2990:2993   */\n      dup4\n        /* \"#utility.yul\":2931:2998   */\n      tag_29\n      jump\t// in\n    tag_67:\n        /* \"#utility.yul\":2924:2998   */\n      swap2\n      pop\n        /* \"#utility.yul\":3007:3100   */\n      tag_68\n        /* \"#utility.yul\":3096:3099   */\n      dup3\n        /* \"#utility.yul\":3007:3100   */\n      tag_38\n      jump\t// in\n    tag_68:\n        /* \"#utility.yul\":3125:3127   */\n      0x20\n        /* \"#utility.yul\":3120:3123   */\n      dup3\n        /* \"#utility.yul\":3116:3128   */\n      add\n        /* \"#utility.yul\":3109:3128   */\n      swap1\n      pop\n        /* \"#utility.yul\":2768:3134   */\n      swap2\n      swap1\n      pop\n      jump\t// out\n        /* \"#utility.yul\":3140:3559   */\n    tag_28:\n        /* \"#utility.yul\":3306:3310   */\n      0x00\n        /* \"#utility.yul\":3344:3346   */\n      0x20\n        /* \"#utility.yul\":3333:3342   */\n      dup3\n        /* \"#utility.yul\":3329:3347   */\n      add\n        /* \"#utility.yul\":3321:3347   */\n      swap1\n      pop\n        /* \"#utility.yul\":3393:3402   */\n      dup2\n        /* \"#utility.yul\":3387:3391   */\n      dup2\n        /* \"#utility.yul\":3383:3403   */\n      sub\n        /* \"#utility.yul\":3379:3380   */\n      0x00\n        /* \"#utility.yul\":3368:3377   */\n      dup4\n        /* \"#utility.yul\":3364:3381   */\n      add\n        /* \"#utility.yul\":3357:3404   */\n      mstore\n        /* \"#utility.yul\":3421:3552   */\n      tag_70\n        /* \"#utility.yul\":3547:3551   */\n      dup2\n        /* \"#utility.yul\":3421:3552   */\n      tag_39\n      jump\t// in\n    tag_70:\n        /* \"#utility.yul\":3413:3552   */\n      swap1\n      pop\n        /* \"#utility.yul\":3140:3559   */\n      swap2\n      swap1\n      pop\n      jump\t// out\n\n    auxdata: 0xa26469706673582212205a85a5a031fa5c3bea2c0fd8e7499ab28c3ea66d75d3aa0e5d18370224979dbf64736f6c63430008220033\n}\n",
				"bytecode": {
					"linkReferences": {},
					"object": "6080604052348015600e575f5ffd5b506103738061001c5f395ff3fe608060405260043610610037575f3560e01c806361bc221a1461007b578063671bd39d146100a5578063ca463e19146100bb57610077565b36610077576040517f08c379a000000000000000000000000000000000000000000000000000000000815260040161006e906101ba565b60405180910390fd5b5f5ffd5b348015610086575f5ffd5b5061008f6100d1565b60405161009c91906101f0565b60405180910390f35b3480156100b0575f5ffd5b506100b96100d6565b005b3480156100c6575f5ffd5b506100cf610125565b005b5f5481565b5f5f8154809291906100e790610236565b91905055507f59116cc78f9029c98db98283c105799681e488b5367a219a2bb878180888947b3360405161011b91906102bc565b60405180910390a1565b6040517f08c379a00000000000000000000000000000000000000000000000000000000081526004016101579061031f565b60405180910390fd5b5f82825260208201905092915050565b7f4554482072656a656374656400000000000000000000000000000000000000005f82015250565b5f6101a4600c83610160565b91506101af82610170565b602082019050919050565b5f6020820190508181035f8301526101d181610198565b9050919050565b5f819050919050565b6101ea816101d8565b82525050565b5f6020820190506102035f8301846101e1565b92915050565b7f4e487b71000000000000000000000000000000000000000000000000000000005f52601160045260245ffd5b5f610240826101d8565b91507fffffffffffffffffffffffffffffffffffffffffffffffffffffffffffffffff820361027257610271610209565b5b600182019050919050565b5f73ffffffffffffffffffffffffffffffffffffffff82169050919050565b5f6102a68261027d565b9050919050565b6102b68161029c565b82525050565b5f6020820190506102cf5f8301846102ad565b92915050565b7f496e74656e74696f6e616c206661696c757265000000000000000000000000005f82015250565b5f610309601383610160565b9150610314826102d5565b602082019050919050565b5f6020820190508181035f830152610336816102fd565b905091905056fea26469706673582212205a85a5a031fa5c3bea2c0fd8e7499ab28c3ea66d75d3aa0e5d18370224979dbf64736f6c63430008220033",
					"opcodes": "PUSH1 0x80 PUSH1 0x40 MSTORE CALLVALUE DUP1 ISZERO PUSH1 0xE JUMPI PUSH0 PUSH0 REVERT JUMPDEST POP PUSH2 0x373 DUP1 PUSH2 0x1C PUSH0 CODECOPY PUSH0 RETURN INVALID PUSH1 0x80 PUSH1 0x40 MSTORE PUSH1 0x4 CALLDATASIZE LT PUSH2 0x37 JUMPI PUSH0 CALLDATALOAD PUSH1 0xE0 SHR DUP1 PUSH4 0x61BC221A EQ PUSH2 0x7B JUMPI DUP1 PUSH4 0x671BD39D EQ PUSH2 0xA5 JUMPI DUP1 PUSH4 0xCA463E19 EQ PUSH2 0xBB JUMPI PUSH2 0x77 JUMP JUMPDEST CALLDATASIZE PUSH2 0x77 JUMPI PUSH1 0x40 MLOAD PUSH32 0x8C379A000000000000000000000000000000000000000000000000000000000 DUP2 MSTORE PUSH1 0x4 ADD PUSH2 0x6E SWAP1 PUSH2 0x1BA JUMP JUMPDEST PUSH1 0x40 MLOAD DUP1 SWAP2 SUB SWAP1 REVERT JUMPDEST PUSH0 PUSH0 REVERT JUMPDEST CALLVALUE DUP1 ISZERO PUSH2 0x86 JUMPI PUSH0 PUSH0 REVERT JUMPDEST POP PUSH2 0x8F PUSH2 0xD1 JUMP JUMPDEST PUSH1 0x40 MLOAD PUSH2 0x9C SWAP2 SWAP1 PUSH2 0x1F0 JUMP JUMPDEST PUSH1 0x40 MLOAD DUP1 SWAP2 SUB SWAP1 RETURN JUMPDEST CALLVALUE DUP1 ISZERO PUSH2 0xB0 JUMPI PUSH0 PUSH0 REVERT JUMPDEST POP PUSH2 0xB9 PUSH2 0xD6 JUMP JUMPDEST STOP JUMPDEST CALLVALUE DUP1 ISZERO PUSH2 0xC6 JUMPI PUSH0 PUSH0 REVERT JUMPDEST POP PUSH2 0xCF PUSH2 0x125 JUMP JUMPDEST STOP JUMPDEST PUSH0 SLOAD DUP2 JUMP JUMPDEST PUSH0 PUSH0 DUP2 SLOAD DUP1 SWAP3 SWAP2 SWAP1 PUSH2 0xE7 SWAP1 PUSH2 0x236 JUMP JUMPDEST SWAP2 SWAP1 POP SSTORE POP PUSH32 0x59116CC78F9029C98DB98283C105799681E488B5367A219A2BB878180888947B CALLER PUSH1 0x40 MLOAD PUSH2 0x11B SWAP2 SWAP1 PUSH2 0x2BC JUMP JUMPDEST PUSH1 0x40 MLOAD DUP1 SWAP2 SUB SWAP1 LOG1 JUMP JUMPDEST PUSH1 0x40 MLOAD PUSH32 0x8C379A000000000000000000000000000000000000000000000000000000000 DUP2 MSTORE PUSH1 0x4 ADD PUSH2 0x157 SWAP1 PUSH2 0x31F JUMP JUMPDEST PUSH1 0x40 MLOAD DUP1 SWAP2 SUB SWAP1 REVERT JUMPDEST PUSH0 DUP3 DUP3 MSTORE PUSH1 0x20 DUP3 ADD SWAP1 POP SWAP3 SWAP2 POP POP JUMP JUMPDEST PUSH32 0x4554482072656A65637465640000000000000000000000000000000000000000 PUSH0 DUP3 ADD MSTORE POP JUMP JUMPDEST PUSH0 PUSH2 0x1A4 PUSH1 0xC DUP4 PUSH2 0x160 JUMP JUMPDEST SWAP2 POP PUSH2 0x1AF DUP3 PUSH2 0x170 JUMP JUMPDEST PUSH1 0x20 DUP3 ADD SWAP1 POP SWAP2 SWAP1 POP JUMP JUMPDEST PUSH0 PUSH1 0x20 DUP3 ADD SWAP1 POP DUP2 DUP2 SUB PUSH0 DUP4 ADD MSTORE PUSH2 0x1D1 DUP2 PUSH2 0x198 JUMP JUMPDEST SWAP1 POP SWAP2 SWAP1 POP JUMP JUMPDEST PUSH0 DUP2 SWAP1 POP SWAP2 SWAP1 POP JUMP JUMPDEST PUSH2 0x1EA DUP2 PUSH2 0x1D8 JUMP JUMPDEST DUP3 MSTORE POP POP JUMP JUMPDEST PUSH0 PUSH1 0x20 DUP3 ADD SWAP1 POP PUSH2 0x203 PUSH0 DUP4 ADD DUP5 PUSH2 0x1E1 JUMP JUMPDEST SWAP3 SWAP2 POP POP JUMP JUMPDEST PUSH32 0x4E487B7100000000000000000000000000000000000000000000000000000000 PUSH0 MSTORE PUSH1 0x11 PUSH1 0x4 MSTORE PUSH1 0x24 PUSH0 REVERT JUMPDEST PUSH0 PUSH2 0x240 DUP3 PUSH2 0x1D8 JUMP JUMPDEST SWAP2 POP PUSH32 0xFFFFFFFFFFFFFFFFFFFFFFFFFFFFFFFFFFFFFFFFFFFFFFFFFFFFFFFFFFFFFFFF DUP3 SUB PUSH2 0x272 JUMPI PUSH2 0x271 PUSH2 0x209 JUMP JUMPDEST JUMPDEST PUSH1 0x1 DUP3 ADD SWAP1 POP SWAP2 SWAP1 POP JUMP JUMPDEST PUSH0 PUSH20 0xFFFFFFFFFFFFFFFFFFFFFFFFFFFFFFFFFFFFFFFF DUP3 AND SWAP1 POP SWAP2 SWAP1 POP JUMP JUMPDEST PUSH0 PUSH2 0x2A6 DUP3 PUSH2 0x27D JUMP JUMPDEST SWAP1 POP SWAP2 SWAP1 POP JUMP JUMPDEST PUSH2 0x2B6 DUP2 PUSH2 0x29C JUMP JUMPDEST DUP3 MSTORE POP POP JUMP JUMPDEST PUSH0 PUSH1 0x20 DUP3 ADD SWAP1 POP PUSH2 0x2CF PUSH0 DUP4 ADD DUP5 PUSH2 0x2AD JUMP JUMPDEST SWAP3 SWAP2 POP POP JUMP JUMPDEST PUSH32 0x496E74656E74696F6E616C206661696C75726500000000000000000000000000 PUSH0 DUP3 ADD MSTORE POP JUMP JUMPDEST PUSH0 PUSH2 0x309 PUSH1 0x13 DUP4 PUSH2 0x160 JUMP JUMPDEST SWAP2 POP PUSH2 0x314 DUP3 PUSH2 0x2D5 JUMP JUMPDEST PUSH1 0x20 DUP3 ADD SWAP1 POP SWAP2 SWAP1 POP JUMP JUMPDEST PUSH0 PUSH1 0x20 DUP3 ADD SWAP1 POP DUP2 DUP2 SUB PUSH0 DUP4 ADD MSTORE PUSH2 0x336 DUP2 PUSH2 0x2FD JUMP JUMPDEST SWAP1 POP SWAP2 SWAP1 POP JUMP INVALID LOG2 PUSH5 0x6970667358 0x22 SLT KECCAK256 GAS DUP6 0xA5 LOG0 BALANCE STATICCALL TLOAD EXTCODESIZE 0xEA 0x2C 0xF 0xD8 SWAPN 0x49 SWAP11 0xB2 DUP13 RETURNDATACOPY 0xA6 PUSH14 0x75D3AA0E5D18370224979DBF6473 PUSH16 0x6C634300082200330000000000000000 "
				},
				"gasEstimates": {
					"creation": {
						"codeDepositCost": "176600",
						"executionCost": "218",
						"totalCost": "176818"
					},
					"external": {
						"counter()": "2402",
						"failFunction()": "450",
						"successFunction()": "25731"
					}
				},
				"methodIdentifiers": {
					"counter()": "61bc221a",
					"failFunction()": "ca463e19",
					"successFunction()": "671bd39d"
				}
			},
			"storageLayout": {
				"storage": [
					{
						"astId": 142,
						"contract": "val61.sol:CallTarget",
						"label": "counter",
						"offset": 0,
						"slot": "0",
						"type": "t_uint256"
					}
				],
				"types": {
					"t_uint256": {
						"encoding": "inplace",
						"label": "uint256",
						"numberOfBytes": "32"
					}
				}
			},
			"userdoc": {
				"kind": "user",
				"methods": {},
				"version": 1
			}
		}
	}
}