{
	"val45.sol": {
		"PostExecutionModifier": {
			"abi": [
				{
					"inputs": [],
					"stateMutability": "nonpayable",
					"type": "constructor"
				},
				{
					"anonymous": false,
					"inputs": [
						{
							"indexed": true,
							"internalType": "address",
							"name": "user",
							"type": "address"
						},
						{
							"indexed": false,
							"internalType": "string",
							"name": "action",
							"type": "string"
						}
					],
					"name": "FunctionExecuted",
					"type": "event"
				},
				{
					"inputs": [
						{
							"internalType": "address",
							"name": "",
							"type": "address"
						}
					],
					"name": "balances",
					"outputs": [
						{
							"internalType": "uint256",
							"name": "",
							"type": "uint256"
						}
					],
					"stateMutability": "view",
					"type": "function"
				},
				{
					"inputs": [
						{
							"internalType": "uint256",
							"name": "_amount",
							"type": "uint256"
						}
					],
					"name": "deposit",
					"outputs": [],
					"stateMutability": "nonpayable",
					"type": "function"
				},
				{
					"inputs": [],
					"name": "executionCount",
					"outputs": [
						{
							"internalType": "uint256",
							"name": "",
							"type": "uint256"
						}
					],
					"stateMutability": "view",
					"type": "function"
				},
				{
					"inputs": [
						{
							"internalType": "address",
							"name": "",
							"type": "address"
						}
					],
					"name": "failedAttempts",
					"outputs": [
						{
							"internalType": "uint256",
							"name": "",
							"type": "uint256"
						}
					],
					"stateMutability": "view",
					"type": "function"
				},
				{
					"inputs": [],
					"name": "lastAction",
					"outputs": [
						{
							"internalType": "string",
							"name": "",
							"type": "string"
						}
					],
					"stateMutability": "view",
					"type": "function"
				},
				{
					"inputs": [],
					"name": "locked",
					"outputs": [
						{
							"internalType": "bool",
							"name": "",
							"type": "bool"
						}
					],
					"stateMutability": "view",
					"type": "function"
				},
				{
					"inputs": [],
					"name": "owner",
					"outputs": [
						{
							"internalType": "address",
							"name": "",
							"type": "address"
						}
					],
					"stateMutability": "view",
					"type": "function"
				},
				{
					"inputs": [
						{
							"internalType": "uint256",
							"name": "_amount",
							"type": "uint256"
						}
					],
					"name": "secureDeposit",
					"outputs": [],
					"stateMutability": "nonpayable",
					"type": "function"
				}
			],
			"devdoc": {
				"kind": "dev",
				"methods": {},
				"version": 1
			},
			"evm": {
				"assembly": "    /* \"val45.sol\":13271:16447  contract PostExecutionModifier {... */\n  mstore(0x40, 0x80)\n    /* \"val45.sol\":13932:13985  constructor() {... */\n  callvalue\n  dup1\n  iszero\n  tag_1\n  jumpi\n  revert(0x00, 0x00)\ntag_1:\n  pop\n    /* \"val45.sol\":13967:13977  msg.sender */\n  caller\n    /* \"val45.sol\":13959:13964  owner */\n  0x00\n  0x00\n    /* \"val45.sol\":13959:13977  owner = msg.sender */\n  0x0100\n  exp\n  dup2\n  sload\n  dup2\n  0xffffffffffffffffffffffffffffffffffffffff\n  mul\n  not\n  and\n  swap1\n  dup4\n  0xffffffffffffffffffffffffffffffffffffffff\n  and\n  mul\n  or\n  swap1\n  sstore\n  pop\n    /* \"val45.sol\":13271:16447  contract PostExecutionModifier {... */\n  dataSize(sub_0)\n  dup1\n  dataOffset(sub_0)\n  0x00\n  codecopy\n  0x00\n  return\nstop\n\nsub_0: assembly {\n        /* \"val45.sol\":13271:16447  contract PostExecutionModifier {... */\n      mstore(0x40, 0x80)\n      callvalue\n      dup1\n      iszero\n      tag_1\n      jumpi\n      revert(0x00, 0x00)\n    tag_1:\n      pop\n      jumpi(tag_2, lt(calldatasize, 0x04))\n      shr(0xe0, calldataload(0x00))\n      dup1\n      0x8da5cb5b\n      gt\n      tag_11\n      jumpi\n      dup1\n      0x8da5cb5b\n      eq\n      tag_7\n      jumpi\n      dup1\n      0xa17ecef3\n      eq\n      tag_8\n      jumpi\n      dup1\n      0xb6b55f25\n      eq\n      tag_9\n      jumpi\n      dup1\n      0xcf309012\n      eq\n      tag_10\n      jumpi\n      jump(tag_2)\n    tag_11:\n      dup1\n      0x27e235e3\n      eq\n      tag_3\n      jumpi\n      dup1\n      0x32627ec7\n      eq\n      tag_4\n      jumpi\n      dup1\n      0x3a464254\n      eq\n      tag_5\n      jumpi\n      dup1\n      0x89f71d53\n      eq\n      tag_6\n      jumpi\n    tag_2:\n      revert(0x00, 0x00)\n        /* \"val45.sol\":13565:13608  mapping(address => uint256) public balances */\n    tag_3:\n      tag_12\n      0x04\n      dup1\n      calldatasize\n      sub\n      dup2\n      add\n      swap1\n      tag_13\n      swap2\n      swap1\n      tag_14\n      jump\t// in\n    tag_13:\n      tag_15\n      jump\t// in\n    tag_12:\n      mload(0x40)\n      tag_16\n      swap2\n      swap1\n      tag_17\n      jump\t// in\n    tag_16:\n      mload(0x40)\n      dup1\n      swap2\n      sub\n      swap1\n      return\n        /* \"val45.sol\":13737:13786  mapping(address => uint256) public failedAttempts */\n    tag_4:\n      tag_18\n      0x04\n      dup1\n      calldatasize\n      sub\n      dup2\n      add\n      swap1\n      tag_19\n      swap2\n      swap1\n      tag_14\n      jump\t// in\n    tag_19:\n      tag_20\n      jump\t// in\n    tag_18:\n      mload(0x40)\n      tag_21\n      swap2\n      swap1\n      tag_17\n      jump\t// in\n    tag_21:\n      mload(0x40)\n      dup1\n      swap2\n      sub\n      swap1\n      return\n        /* \"val45.sol\":16130:16444  function secureDeposit(... */\n    tag_5:\n      tag_22\n      0x04\n      dup1\n      calldatasize\n      sub\n      dup2\n      add\n      swap1\n      tag_23\n      swap2\n      swap1\n      tag_24\n      jump\t// in\n    tag_23:\n      tag_25\n      jump\t// in\n    tag_22:\n      stop\n        /* \"val45.sol\":13493:13517  string public lastAction */\n    tag_6:\n      tag_26\n      tag_27\n      jump\t// in\n    tag_26:\n      mload(0x40)\n      tag_28\n      swap2\n      swap1\n      tag_29\n      jump\t// in\n    tag_28:\n      mload(0x40)\n      dup1\n      swap2\n      sub\n      swap1\n      return\n        /* \"val45.sol\":13350:13370  address public owner */\n    tag_7:\n      tag_30\n      tag_31\n      jump\t// in\n    tag_30:\n      mload(0x40)\n      tag_32\n      swap2\n      swap1\n      tag_33\n      jump\t// in\n    tag_32:\n      mload(0x40)\n      dup1\n      swap2\n      sub\n      swap1\n      return\n        /* \"val45.sol\":13658:13687  uint256 public executionCount */\n    tag_8:\n      tag_34\n      tag_35\n      jump\t// in\n    tag_34:\n      mload(0x40)\n      tag_36\n      swap2\n      swap1\n      tag_17\n      jump\t// in\n    tag_36:\n      mload(0x40)\n      dup1\n      swap2\n      sub\n      swap1\n      return\n        /* \"val45.sol\":15651:15940  function deposit(... */\n    tag_9:\n      tag_37\n      0x04\n      dup1\n      calldatasize\n      sub\n      dup2\n      add\n      swap1\n      tag_38\n      swap2\n      swap1\n      tag_24\n      jump\t// in\n    tag_38:\n      tag_39\n      jump\t// in\n    tag_37:\n      stop\n        /* \"val45.sol\":13421:13439  bool public locked */\n    tag_10:\n      tag_40\n      tag_41\n      jump\t// in\n    tag_40:\n      mload(0x40)\n      tag_42\n      swap2\n      swap1\n      tag_43\n      jump\t// in\n    tag_42:\n      mload(0x40)\n      dup1\n      swap2\n      sub\n      swap1\n      return\n        /* \"val45.sol\":13565:13608  mapping(address => uint256) public balances */\n    tag_15:\n      mstore(0x20, 0x02)\n      dup1\n      0x00\n      mstore\n      keccak256(0x00, 0x40)\n      0x00\n      swap2\n      pop\n      swap1\n      pop\n      sload\n      dup2\n      jump\t// out\n        /* \"val45.sol\":13737:13786  mapping(address => uint256) public failedAttempts */\n    tag_20:\n      mstore(0x20, 0x04)\n      dup1\n      0x00\n      mstore\n      keccak256(0x00, 0x40)\n      0x00\n      swap2\n      pop\n      swap1\n      pop\n      sload\n      dup2\n      jump\t// out\n        /* \"val45.sol\":16130:16444  function secureDeposit(... */\n    tag_25:\n        /* \"val45.sol\":15106:15111  false */\n      0x00\n        /* \"val45.sol\":15096:15111  locked == false */\n      iszero\n      iszero\n        /* \"val45.sol\":15096:15102  locked */\n      0x00\n      0x14\n      swap1\n      sload\n      swap1\n      0x0100\n      exp\n      swap1\n      div\n      0xff\n      and\n        /* \"val45.sol\":15096:15111  locked == false */\n      iszero\n      iszero\n      eq\n        /* \"val45.sol\":15074:15161  require(... */\n      tag_45\n      jumpi\n      mload(0x40)\n      0x08c379a000000000000000000000000000000000000000000000000000000000\n      dup2\n      mstore\n      0x04\n      add\n      tag_46\n      swap1\n      tag_47\n      jump\t// in\n    tag_46:\n      mload(0x40)\n      dup1\n      swap2\n      sub\n      swap1\n      revert\n    tag_45:\n        /* \"val45.sol\":15251:15255  true */\n      0x01\n        /* \"val45.sol\":15242:15248  locked */\n      0x00\n      0x14\n        /* \"val45.sol\":15242:15255  locked = true */\n      0x0100\n      exp\n      dup2\n      sload\n      dup2\n      0xff\n      mul\n      not\n      and\n      swap1\n      dup4\n      iszero\n      iszero\n      mul\n      or\n      swap1\n      sstore\n      pop\n        /* \"val45.sol\":16349:16350  0 */\n      0x00\n        /* \"val45.sol\":16339:16346  _amount */\n      dup2\n        /* \"val45.sol\":16339:16350  _amount > 0 */\n      gt\n        /* \"val45.sol\":16317:16392  require(... */\n      tag_49\n      jumpi\n      mload(0x40)\n      0x08c379a000000000000000000000000000000000000000000000000000000000\n      dup2\n      mstore\n      0x04\n      add\n      tag_50\n      swap1\n      tag_51\n      jump\t// in\n    tag_50:\n      mload(0x40)\n      dup1\n      swap2\n      sub\n      swap1\n      revert\n    tag_49:\n        /* \"val45.sol\":16429:16436  _amount */\n      dup1\n        /* \"val45.sol\":16405:16413  balances */\n      0x02\n        /* \"val45.sol\":16405:16425  balances[msg.sender] */\n      0x00\n        /* \"val45.sol\":16414:16424  msg.sender */\n      caller\n        /* \"val45.sol\":16405:16425  balances[msg.sender] */\n      0xffffffffffffffffffffffffffffffffffffffff\n      and\n      0xffffffffffffffffffffffffffffffffffffffff\n      and\n      dup2\n      mstore\n      0x20\n      add\n      swap1\n      dup2\n      mstore\n      0x20\n      add\n      0x00\n      keccak256\n      0x00\n        /* \"val45.sol\":16405:16436  balances[msg.sender] += _amount */\n      dup3\n      dup3\n      sload\n      tag_52\n      swap2\n      swap1\n      tag_53\n      jump\t// in\n    tag_52:\n      swap3\n      pop\n      pop\n      dup2\n      swap1\n      sstore\n      pop\n        /* \"val45.sol\":15460:15465  false */\n      0x00\n        /* \"val45.sol\":15451:15457  locked */\n      0x00\n      0x14\n        /* \"val45.sol\":15451:15465  locked = false */\n      0x0100\n      exp\n      dup2\n      sload\n      dup2\n      0xff\n      mul\n      not\n      and\n      swap1\n      dup4\n      iszero\n      iszero\n      mul\n      or\n      swap1\n      sstore\n      pop\n        /* \"val45.sol\":16130:16444  function secureDeposit(... */\n      pop\n      jump\t// out\n        /* \"val45.sol\":13493:13517  string public lastAction */\n    tag_27:\n      0x01\n      dup1\n      sload\n      tag_54\n      swap1\n      tag_55\n      jump\t// in\n    tag_54:\n      dup1\n      0x1f\n      add\n      0x20\n      dup1\n      swap2\n      div\n      mul\n      0x20\n      add\n      mload(0x40)\n      swap1\n      dup2\n      add\n      0x40\n      mstore\n      dup1\n      swap3\n      swap2\n      swap1\n      dup2\n      dup2\n      mstore\n      0x20\n      add\n      dup3\n      dup1\n      sload\n      tag_56\n      swap1\n      tag_55\n      jump\t// in\n    tag_56:\n      dup1\n      iszero\n      tag_57\n      jumpi\n      dup1\n      0x1f\n      lt\n      tag_58\n      jumpi\n      0x0100\n      dup1\n      dup4\n      sload\n      div\n      mul\n      dup4\n      mstore\n      swap2\n      0x20\n      add\n      swap2\n      jump(tag_57)\n    tag_58:\n      dup3\n      add\n      swap2\n      swap1\n      0x00\n      mstore\n      keccak256(0x00, 0x20)\n      swap1\n    tag_59:\n      dup2\n      sload\n      dup2\n      mstore\n      swap1\n      0x01\n      add\n      swap1\n      0x20\n      add\n      dup1\n      dup4\n      gt\n      tag_59\n      jumpi\n      dup3\n      swap1\n      sub\n      0x1f\n      and\n      dup3\n      add\n      swap2\n    tag_57:\n      pop\n      pop\n      pop\n      pop\n      pop\n      dup2\n      jump\t// out\n        /* \"val45.sol\":13350:13370  address public owner */\n    tag_31:\n      0x00\n      0x00\n      swap1\n      sload\n      swap1\n      0x0100\n      exp\n      swap1\n      div\n      0xffffffffffffffffffffffffffffffffffffffff\n      and\n      dup2\n      jump\t// out\n        /* \"val45.sol\":13658:13687  uint256 public executionCount */\n    tag_35:\n      sload(0x03)\n      dup2\n      jump\t// out\n        /* \"val45.sol\":15651:15940  function deposit(... */\n    tag_39:\n        /* \"val45.sol\":14265:14296  lastAction = \"Function started\" */\n      mload(0x40)\n      dup1\n      0x40\n      add\n      0x40\n      mstore\n      dup1\n      0x10\n      dup2\n      mstore\n      0x20\n      add\n      0x46756e6374696f6e207374617274656400000000000000000000000000000000\n      dup2\n      mstore\n      pop\n        /* \"val45.sol\":14265:14275  lastAction */\n      0x01\n        /* \"val45.sol\":14265:14296  lastAction = \"Function started\" */\n      swap1\n      dup2\n      tag_61\n      swap2\n      swap1\n      tag_62\n      jump\t// in\n    tag_61:\n      pop\n        /* \"val45.sol\":15845:15846  0 */\n      0x00\n        /* \"val45.sol\":15835:15842  _amount */\n      dup2\n        /* \"val45.sol\":15835:15846  _amount > 0 */\n      gt\n        /* \"val45.sol\":15813:15888  require(... */\n      tag_64\n      jumpi\n      mload(0x40)\n      0x08c379a000000000000000000000000000000000000000000000000000000000\n      dup2\n      mstore\n      0x04\n      add\n      tag_65\n      swap1\n      tag_51\n      jump\t// in\n    tag_65:\n      mload(0x40)\n      dup1\n      swap2\n      sub\n      swap1\n      revert\n    tag_64:\n        /* \"val45.sol\":15925:15932  _amount */\n      dup1\n        /* \"val45.sol\":15901:15909  balances */\n      0x02\n        /* \"val45.sol\":15901:15921  balances[msg.sender] */\n      0x00\n        /* \"val45.sol\":15910:15920  msg.sender */\n      caller\n        /* \"val45.sol\":15901:15921  balances[msg.sender] */\n      0xffffffffffffffffffffffffffffffffffffffff\n      and\n      0xffffffffffffffffffffffffffffffffffffffff\n      and\n      dup2\n      mstore\n      0x20\n      add\n      swap1\n      dup2\n      mstore\n      0x20\n      add\n      0x00\n      keccak256\n      0x00\n        /* \"val45.sol\":15901:15932  balances[msg.sender] += _amount */\n      dup3\n      dup3\n      sload\n      tag_66\n      swap2\n      swap1\n      tag_53\n      jump\t// in\n    tag_66:\n      swap3\n      pop\n      pop\n      dup2\n      swap1\n      sstore\n      pop\n        /* \"val45.sol\":14491:14524  lastAction = \"Function completed\" */\n      mload(0x40)\n      dup1\n      0x40\n      add\n      0x40\n      mstore\n      dup1\n      0x12\n      dup2\n      mstore\n      0x20\n      add\n      0x46756e6374696f6e20636f6d706c657465640000000000000000000000000000\n      dup2\n      mstore\n      pop\n        /* \"val45.sol\":14491:14501  lastAction */\n      0x01\n        /* \"val45.sol\":14491:14524  lastAction = \"Function completed\" */\n      swap1\n      dup2\n      tag_67\n      swap2\n      swap1\n      tag_62\n      jump\t// in\n    tag_67:\n      pop\n        /* \"val45.sol\":15651:15940  function deposit(... */\n      pop\n      jump\t// out\n        /* \"val45.sol\":13421:13439  bool public locked */\n    tag_41:\n      0x00\n      0x14\n      swap1\n      sload\n      swap1\n      0x0100\n      exp\n      swap1\n      div\n      0xff\n      and\n      dup2\n      jump\t// out\n        /* \"#utility.yul\":88:205   */\n    tag_69:\n        /* \"#utility.yul\":197:198   */\n      0x00\n        /* \"#utility.yul\":194:195   */\n      0x00\n        /* \"#utility.yul\":187:199   */\n      revert\n        /* \"#utility.yul\":334:460   */\n    tag_71:\n        /* \"#utility.yul\":371:378   */\n      0x00\n        /* \"#utility.yul\":411:453   */\n      0xffffffffffffffffffffffffffffffffffffffff\n        /* \"#utility.yul\":404:409   */\n      dup3\n        /* \"#utility.yul\":400:454   */\n      and\n        /* \"#utility.yul\":389:454   */\n      swap1\n      pop\n        /* \"#utility.yul\":334:460   */\n      swap2\n      swap1\n      pop\n      jump\t// out\n        /* \"#utility.yul\":466:562   */\n    tag_72:\n        /* \"#utility.yul\":503:510   */\n      0x00\n        /* \"#utility.yul\":532:556   */\n      tag_115\n        /* \"#utility.yul\":550:555   */\n      dup3\n        /* \"#utility.yul\":532:556   */\n      tag_71\n      jump\t// in\n    tag_115:\n        /* \"#utility.yul\":521:556   */\n      swap1\n      pop\n        /* \"#utility.yul\":466:562   */\n      swap2\n      swap1\n      pop\n      jump\t// out\n        /* \"#utility.yul\":568:690   */\n    tag_73:\n        /* \"#utility.yul\":641:665   */\n      tag_117\n        /* \"#utility.yul\":659:664   */\n      dup2\n        /* \"#utility.yul\":641:665   */\n      tag_72\n      jump\t// in\n    tag_117:\n        /* \"#utility.yul\":634:639   */\n      dup2\n        /* \"#utility.yul\":631:666   */\n      eq\n        /* \"#utility.yul\":621:684   */\n      tag_118\n      jumpi\n        /* \"#utility.yul\":680:681   */\n      0x00\n        /* \"#utility.yul\":677:678   */\n      0x00\n        /* \"#utility.yul\":670:682   */\n      revert\n        /* \"#utility.yul\":621:684   */\n    tag_118:\n        /* \"#utility.yul\":568:690   */\n      pop\n      jump\t// out\n        /* \"#utility.yul\":696:835   */\n    tag_74:\n        /* \"#utility.yul\":742:747   */\n      0x00\n        /* \"#utility.yul\":780:786   */\n      dup2\n        /* \"#utility.yul\":767:787   */\n      calldataload\n        /* \"#utility.yul\":758:787   */\n      swap1\n      pop\n        /* \"#utility.yul\":796:829   */\n      tag_120\n        /* \"#utility.yul\":823:828   */\n      dup2\n        /* \"#utility.yul\":796:829   */\n      tag_73\n      jump\t// in\n    tag_120:\n        /* \"#utility.yul\":696:835   */\n      swap3\n      swap2\n      pop\n      pop\n      jump\t// out\n        /* \"#utility.yul\":841:1170   */\n    tag_14:\n        /* \"#utility.yul\":900:906   */\n      0x00\n        /* \"#utility.yul\":949:951   */\n      0x20\n        /* \"#utility.yul\":937:946   */\n      dup3\n        /* \"#utility.yul\":928:935   */\n      dup5\n        /* \"#utility.yul\":924:947   */\n      sub\n        /* \"#utility.yul\":920:952   */\n      slt\n        /* \"#utility.yul\":917:1036   */\n      iszero\n      tag_122\n      jumpi\n        /* \"#utility.yul\":955:1034   */\n      tag_123\n      tag_69\n      jump\t// in\n    tag_123:\n        /* \"#utility.yul\":917:1036   */\n    tag_122:\n        /* \"#utility.yul\":1075:1076   */\n      0x00\n        /* \"#utility.yul\":1100:1153   */\n      tag_124\n        /* \"#utility.yul\":1145:1152   */\n      dup5\n        /* \"#utility.yul\":1136:1142   */\n      dup3\n        /* \"#utility.yul\":1125:1134   */\n      dup6\n        /* \"#utility.yul\":1121:1143   */\n      add\n        /* \"#utility.yul\":1100:1153   */\n      tag_74\n      jump\t// in\n    tag_124:\n        /* \"#utility.yul\":1090:1153   */\n      swap2\n      pop\n        /* \"#utility.yul\":1046:1163   */\n      pop\n        /* \"#utility.yul\":841:1170   */\n      swap3\n      swap2\n      pop\n      pop\n      jump\t// out\n        /* \"#utility.yul\":1176:1253   */\n    tag_75:\n        /* \"#utility.yul\":1213:1220   */\n      0x00\n        /* \"#utility.yul\":1242:1247   */\n      dup2\n        /* \"#utility.yul\":1231:1247   */\n      swap1\n      pop\n        /* \"#utility.yul\":1176:1253   */\n      swap2\n      swap1\n      pop\n      jump\t// out\n        /* \"#utility.yul\":1259:1377   */\n    tag_76:\n        /* \"#utility.yul\":1346:1370   */\n      tag_127\n        /* \"#utility.yul\":1364:1369   */\n      dup2\n        /* \"#utility.yul\":1346:1370   */\n      tag_75\n      jump\t// in\n    tag_127:\n        /* \"#utility.yul\":1341:1344   */\n      dup3\n        /* \"#utility.yul\":1334:1371   */\n      mstore\n        /* \"#utility.yul\":1259:1377   */\n      pop\n      pop\n      jump\t// out\n        /* \"#utility.yul\":1383:1605   */\n    tag_17:\n        /* \"#utility.yul\":1476:1480   */\n      0x00\n        /* \"#utility.yul\":1514:1516   */\n      0x20\n        /* \"#utility.yul\":1503:1512   */\n      dup3\n        /* \"#utility.yul\":1499:1517   */\n      add\n        /* \"#utility.yul\":1491:1517   */\n      swap1\n      pop\n        /* \"#utility.yul\":1527:1598   */\n      tag_129\n        /* \"#utility.yul\":1595:1596   */\n      0x00\n        /* \"#utility.yul\":1584:1593   */\n      dup4\n        /* \"#utility.yul\":1580:1597   */\n      add\n        /* \"#utility.yul\":1571:1577   */\n      dup5\n        /* \"#utility.yul\":1527:1598   */\n      tag_76\n      jump\t// in\n    tag_129:\n        /* \"#utility.yul\":1383:1605   */\n      swap3\n      swap2\n      pop\n      pop\n      jump\t// out\n        /* \"#utility.yul\":1611:1733   */\n    tag_77:\n        /* \"#utility.yul\":1684:1708   */\n      tag_131\n        /* \"#utility.yul\":1702:1707   */\n      dup2\n        /* \"#utility.yul\":1684:1708   */\n      tag_75\n      jump\t// in\n    tag_131:\n        /* \"#utility.yul\":1677:1682   */\n      dup2\n        /* \"#utility.yul\":1674:1709   */\n      eq\n        /* \"#utility.yul\":1664:1727   */\n      tag_132\n      jumpi\n        /* \"#utility.yul\":1723:1724   */\n      0x00\n        /* \"#utility.yul\":1720:1721   */\n      0x00\n        /* \"#utility.yul\":1713:1725   */\n      revert\n        /* \"#utility.yul\":1664:1727   */\n    tag_132:\n        /* \"#utility.yul\":1611:1733   */\n      pop\n      jump\t// out\n        /* \"#utility.yul\":1739:1878   */\n    tag_78:\n        /* \"#utility.yul\":1785:1790   */\n      0x00\n        /* \"#utility.yul\":1823:1829   */\n      dup2\n        /* \"#utility.yul\":1810:1830   */\n      calldataload\n        /* \"#utility.yul\":1801:1830   */\n      swap1\n      pop\n        /* \"#utility.yul\":1839:1872   */\n      tag_134\n        /* \"#utility.yul\":1866:1871   */\n      dup2\n        /* \"#utility.yul\":1839:1872   */\n      tag_77\n      jump\t// in\n    tag_134:\n        /* \"#utility.yul\":1739:1878   */\n      swap3\n      swap2\n      pop\n      pop\n      jump\t// out\n        /* \"#utility.yul\":1884:2213   */\n    tag_24:\n        /* \"#utility.yul\":1943:1949   */\n      0x00\n        /* \"#utility.yul\":1992:1994   */\n      0x20\n        /* \"#utility.yul\":1980:1989   */\n      dup3\n        /* \"#utility.yul\":1971:1978   */\n      dup5\n        /* \"#utility.yul\":1967:1990   */\n      sub\n        /* \"#utility.yul\":1963:1995   */\n      slt\n        /* \"#utility.yul\":1960:2079   */\n      iszero\n      tag_136\n      jumpi\n        /* \"#utility.yul\":1998:2077   */\n      tag_137\n      tag_69\n      jump\t// in\n    tag_137:\n        /* \"#utility.yul\":1960:2079   */\n    tag_136:\n        /* \"#utility.yul\":2118:2119   */\n      0x00\n        /* \"#utility.yul\":2143:2196   */\n      tag_138\n        /* \"#utility.yul\":2188:2195   */\n      dup5\n        /* \"#utility.yul\":2179:2185   */\n      dup3\n        /* \"#utility.yul\":2168:2177   */\n      dup6\n        /* \"#utility.yul\":2164:2186   */\n      add\n        /* \"#utility.yul\":2143:2196   */\n      tag_78\n      jump\t// in\n    tag_138:\n        /* \"#utility.yul\":2133:2196   */\n      swap2\n      pop\n        /* \"#utility.yul\":2089:2206   */\n      pop\n        /* \"#utility.yul\":1884:2213   */\n      swap3\n      swap2\n      pop\n      pop\n      jump\t// out\n        /* \"#utility.yul\":2219:2318   */\n    tag_79:\n        /* \"#utility.yul\":2271:2277   */\n      0x00\n        /* \"#utility.yul\":2305:2310   */\n      dup2\n        /* \"#utility.yul\":2299:2311   */\n      mload\n        /* \"#utility.yul\":2289:2311   */\n      swap1\n      pop\n        /* \"#utility.yul\":2219:2318   */\n      swap2\n      swap1\n      pop\n      jump\t// out\n        /* \"#utility.yul\":2324:2493   */\n    tag_80:\n        /* \"#utility.yul\":2408:2419   */\n      0x00\n        /* \"#utility.yul\":2442:2448   */\n      dup3\n        /* \"#utility.yul\":2437:2440   */\n      dup3\n        /* \"#utility.yul\":2430:2449   */\n      mstore\n        /* \"#utility.yul\":2482:2486   */\n      0x20\n        /* \"#utility.yul\":2477:2480   */\n      dup3\n        /* \"#utility.yul\":2473:2487   */\n      add\n        /* \"#utility.yul\":2458:2487   */\n      swap1\n      pop\n        /* \"#utility.yul\":2324:2493   */\n      swap3\n      swap2\n      pop\n      pop\n      jump\t// out\n        /* \"#utility.yul\":2499:2638   */\n    tag_81:\n        /* \"#utility.yul\":2588:2594   */\n      dup3\n        /* \"#utility.yul\":2583:2586   */\n      dup2\n        /* \"#utility.yul\":2578:2581   */\n      dup4\n        /* \"#utility.yul\":2572:2595   */\n      mcopy\n        /* \"#utility.yul\":2629:2630   */\n      0x00\n        /* \"#utility.yul\":2620:2626   */\n      dup4\n        /* \"#utility.yul\":2615:2618   */\n      dup4\n        /* \"#utility.yul\":2611:2627   */\n      add\n        /* \"#utility.yul\":2604:2631   */\n      mstore\n        /* \"#utility.yul\":2499:2638   */\n      pop\n      pop\n      pop\n      jump\t// out\n        /* \"#utility.yul\":2644:2746   */\n    tag_82:\n        /* \"#utility.yul\":2685:2691   */\n      0x00\n        /* \"#utility.yul\":2736:2738   */\n      0x1f\n        /* \"#utility.yul\":2732:2739   */\n      not\n        /* \"#utility.yul\":2727:2729   */\n      0x1f\n        /* \"#utility.yul\":2720:2725   */\n      dup4\n        /* \"#utility.yul\":2716:2730   */\n      add\n        /* \"#utility.yul\":2712:2740   */\n      and\n        /* \"#utility.yul\":2702:2740   */\n      swap1\n      pop\n        /* \"#utility.yul\":2644:2746   */\n      swap2\n      swap1\n      pop\n      jump\t// out\n        /* \"#utility.yul\":2752:3129   */\n    tag_83:\n        /* \"#utility.yul\":2840:2843   */\n      0x00\n        /* \"#utility.yul\":2868:2907   */\n      tag_144\n        /* \"#utility.yul\":2901:2906   */\n      dup3\n        /* \"#utility.yul\":2868:2907   */\n      tag_79\n      jump\t// in\n    tag_144:\n        /* \"#utility.yul\":2923:2994   */\n      tag_145\n        /* \"#utility.yul\":2987:2993   */\n      dup2\n        /* \"#utility.yul\":2982:2985   */\n      dup6\n        /* \"#utility.yul\":2923:2994   */\n      tag_80\n      jump\t// in\n    tag_145:\n        /* \"#utility.yul\":2916:2994   */\n      swap4\n      pop\n        /* \"#utility.yul\":3003:3068   */\n      tag_146\n        /* \"#utility.yul\":3061:3067   */\n      dup2\n        /* \"#utility.yul\":3056:3059   */\n      dup6\n        /* \"#utility.yul\":3049:3053   */\n      0x20\n        /* \"#utility.yul\":3042:3047   */\n      dup7\n        /* \"#utility.yul\":3038:3054   */\n      add\n        /* \"#utility.yul\":3003:3068   */\n      tag_81\n      jump\t// in\n    tag_146:\n        /* \"#utility.yul\":3093:3122   */\n      tag_147\n        /* \"#utility.yul\":3115:3121   */\n      dup2\n        /* \"#utility.yul\":3093:3122   */\n      tag_82\n      jump\t// in\n    tag_147:\n        /* \"#utility.yul\":3088:3091   */\n      dup5\n        /* \"#utility.yul\":3084:3123   */\n      add\n        /* \"#utility.yul\":3077:3123   */\n      swap2\n      pop\n        /* \"#utility.yul\":2844:3129   */\n      pop\n        /* \"#utility.yul\":2752:3129   */\n      swap3\n      swap2\n      pop\n      pop\n      jump\t// out\n        /* \"#utility.yul\":3135:3448   */\n    tag_29:\n        /* \"#utility.yul\":3248:3252   */\n      0x00\n        /* \"#utility.yul\":3286:3288   */\n      0x20\n        /* \"#utility.yul\":3275:3284   */\n      dup3\n        /* \"#utility.yul\":3271:3289   */\n      add\n        /* \"#utility.yul\":3263:3289   */\n      swap1\n      pop\n        /* \"#utility.yul\":3335:3344   */\n      dup2\n        /* \"#utility.yul\":3329:3333   */\n      dup2\n        /* \"#utility.yul\":3325:3345   */\n      sub\n        /* \"#utility.yul\":3321:3322   */\n      0x00\n        /* \"#utility.yul\":3310:3319   */\n      dup4\n        /* \"#utility.yul\":3306:3323   */\n      add\n        /* \"#utility.yul\":3299:3346   */\n      mstore\n        /* \"#utility.yul\":3363:3441   */\n      tag_149\n        /* \"#utility.yul\":3436:3440   */\n      dup2\n        /* \"#utility.yul\":3427:3433   */\n      dup5\n        /* \"#utility.yul\":3363:3441   */\n      tag_83\n      jump\t// in\n    tag_149:\n        /* \"#utility.yul\":3355:3441   */\n      swap1\n      pop\n        /* \"#utility.yul\":3135:3448   */\n      swap3\n      swap2\n      pop\n      pop\n      jump\t// out\n        /* \"#utility.yul\":3454:3572   */\n    tag_84:\n        /* \"#utility.yul\":3541:3565   */\n      tag_151\n        /* \"#utility.yul\":3559:3564   */\n      dup2\n        /* \"#utility.yul\":3541:3565   */\n      tag_72\n      jump\t// in\n    tag_151:\n        /* \"#utility.yul\":3536:3539   */\n      dup3\n        /* \"#utility.yul\":3529:3566   */\n      mstore\n        /* \"#utility.yul\":3454:3572   */\n      pop\n      pop\n      jump\t// out\n        /* \"#utility.yul\":3578:3800   */\n    tag_33:\n        /* \"#utility.yul\":3671:3675   */\n      0x00\n        /* \"#utility.yul\":3709:3711   */\n      0x20\n        /* \"#utility.yul\":3698:3707   */\n      dup3\n        /* \"#utility.yul\":3694:3712   */\n      add\n        /* \"#utility.yul\":3686:3712   */\n      swap1\n      pop\n        /* \"#utility.yul\":3722:3793   */\n      tag_153\n        /* \"#utility.yul\":3790:3791   */\n      0x00\n        /* \"#utility.yul\":3779:3788   */\n      dup4\n        /* \"#utility.yul\":3775:3792   */\n      add\n        /* \"#utility.yul\":3766:3772   */\n      dup5\n        /* \"#utility.yul\":3722:3793   */\n      tag_84\n      jump\t// in\n    tag_153:\n        /* \"#utility.yul\":3578:3800   */\n      swap3\n      swap2\n      pop\n      pop\n      jump\t// out\n        /* \"#utility.yul\":3806:3896   */\n    tag_85:\n        /* \"#utility.yul\":3840:3847   */\n      0x00\n        /* \"#utility.yul\":3883:3888   */\n      dup2\n        /* \"#utility.yul\":3876:3889   */\n      iszero\n        /* \"#utility.yul\":3869:3890   */\n      iszero\n        /* \"#utility.yul\":3858:3890   */\n      swap1\n      pop\n        /* \"#utility.yul\":3806:3896   */\n      swap2\n      swap1\n      pop\n      jump\t// out\n        /* \"#utility.yul\":3902:4011   */\n    tag_86:\n        /* \"#utility.yul\":3983:4004   */\n      tag_156\n        /* \"#utility.yul\":3998:4003   */\n      dup2\n        /* \"#utility.yul\":3983:4004   */\n      tag_85\n      jump\t// in\n    tag_156:\n        /* \"#utility.yul\":3978:3981   */\n      dup3\n        /* \"#utility.yul\":3971:4005   */\n      mstore\n        /* \"#utility.yul\":3902:4011   */\n      pop\n      pop\n      jump\t// out\n        /* \"#utility.yul\":4017:4227   */\n    tag_43:\n        /* \"#utility.yul\":4104:4108   */\n      0x00\n        /* \"#utility.yul\":4142:4144   */\n      0x20\n        /* \"#utility.yul\":4131:4140   */\n      dup3\n        /* \"#utility.yul\":4127:4145   */\n      add\n        /* \"#utility.yul\":4119:4145   */\n      swap1\n      pop\n        /* \"#utility.yul\":4155:4220   */\n      tag_158\n        /* \"#utility.yul\":4217:4218   */\n      0x00\n        /* \"#utility.yul\":4206:4215   */\n      dup4\n        /* \"#utility.yul\":4202:4219   */\n      add\n        /* \"#utility.yul\":4193:4199   */\n      dup5\n        /* \"#utility.yul\":4155:4220   */\n      tag_86\n      jump\t// in\n    tag_158:\n        /* \"#utility.yul\":4017:4227   */\n      swap3\n      swap2\n      pop\n      pop\n      jump\t// out\n        /* \"#utility.yul\":4233:4405   */\n    tag_87:\n        /* \"#utility.yul\":4373:4397   */\n      0x5265656e7472616e742063616c6c20626c6f636b656400000000000000000000\n        /* \"#utility.yul\":4369:4370   */\n      0x00\n        /* \"#utility.yul\":4361:4367   */\n      dup3\n        /* \"#utility.yul\":4357:4371   */\n      add\n        /* \"#utility.yul\":4350:4398   */\n      mstore\n        /* \"#utility.yul\":4233:4405   */\n      pop\n      jump\t// out\n        /* \"#utility.yul\":4411:4777   */\n    tag_88:\n        /* \"#utility.yul\":4553:4556   */\n      0x00\n        /* \"#utility.yul\":4574:4641   */\n      tag_161\n        /* \"#utility.yul\":4638:4640   */\n      0x16\n        /* \"#utility.yul\":4633:4636   */\n      dup4\n        /* \"#utility.yul\":4574:4641   */\n      tag_80\n      jump\t// in\n    tag_161:\n        /* \"#utility.yul\":4567:4641   */\n      swap2\n      pop\n        /* \"#utility.yul\":4650:4743   */\n      tag_162\n        /* \"#utility.yul\":4739:4742   */\n      dup3\n        /* \"#utility.yul\":4650:4743   */\n      tag_87\n      jump\t// in\n    tag_162:\n        /* \"#utility.yul\":4768:4770   */\n      0x20\n        /* \"#utility.yul\":4763:4766   */\n      dup3\n        /* \"#utility.yul\":4759:4771   */\n      add\n        /* \"#utility.yul\":4752:4771   */\n      swap1\n      pop\n        /* \"#utility.yul\":4411:4777   */\n      swap2\n      swap1\n      pop\n      jump\t// out\n        /* \"#utility.yul\":4783:5202   */\n    tag_47:\n        /* \"#utility.yul\":4949:4953   */\n      0x00\n        /* \"#utility.yul\":4987:4989   */\n      0x20\n        /* \"#utility.yul\":4976:4985   */\n      dup3\n        /* \"#utility.yul\":4972:4990   */\n      add\n        /* \"#utility.yul\":4964:4990   */\n      swap1\n      pop\n        /* \"#utility.yul\":5036:5045   */\n      dup2\n        /* \"#utility.yul\":5030:5034   */\n      dup2\n        /* \"#utility.yul\":5026:5046   */\n      sub\n        /* \"#utility.yul\":5022:5023   */\n      0x00\n        /* \"#utility.yul\":5011:5020   */\n      dup4\n        /* \"#utility.yul\":5007:5024   */\n      add\n        /* \"#utility.yul\":5000:5047   */\n      mstore\n        /* \"#utility.yul\":5064:5195   */\n      tag_164\n        /* \"#utility.yul\":5190:5194   */\n      dup2\n        /* \"#utility.yul\":5064:5195   */\n      tag_88\n      jump\t// in\n    tag_164:\n        /* \"#utility.yul\":5056:5195   */\n      swap1\n      pop\n        /* \"#utility.yul\":4783:5202   */\n      swap2\n      swap1\n      pop\n      jump\t// out\n        /* \"#utility.yul\":5208:5372   */\n    tag_89:\n        /* \"#utility.yul\":5348:5364   */\n      0x496e76616c696420616d6f756e74000000000000000000000000000000000000\n        /* \"#utility.yul\":5344:5345   */\n      0x00\n        /* \"#utility.yul\":5336:5342   */\n      dup3\n        /* \"#utility.yul\":5332:5346   */\n      add\n        /* \"#utility.yul\":5325:5365   */\n      mstore\n        /* \"#utility.yul\":5208:5372   */\n      pop\n      jump\t// out\n        /* \"#utility.yul\":5378:5744   */\n    tag_90:\n        /* \"#utility.yul\":5520:5523   */\n      0x00\n        /* \"#utility.yul\":5541:5608   */\n      tag_167\n        /* \"#utility.yul\":5605:5607   */\n      0x0e\n        /* \"#utility.yul\":5600:5603   */\n      dup4\n        /* \"#utility.yul\":5541:5608   */\n      tag_80\n      jump\t// in\n    tag_167:\n        /* \"#utility.yul\":5534:5608   */\n      swap2\n      pop\n        /* \"#utility.yul\":5617:5710   */\n      tag_168\n        /* \"#utility.yul\":5706:5709   */\n      dup3\n        /* \"#utility.yul\":5617:5710   */\n      tag_89\n      jump\t// in\n    tag_168:\n        /* \"#utility.yul\":5735:5737   */\n      0x20\n        /* \"#utility.yul\":5730:5733   */\n      dup3\n        /* \"#utility.yul\":5726:5738   */\n      add\n        /* \"#utility.yul\":5719:5738   */\n      swap1\n      pop\n        /* \"#utility.yul\":5378:5744   */\n      swap2\n      swap1\n      pop\n      jump\t// out\n        /* \"#utility.yul\":5750:6169   */\n    tag_51:\n        /* \"#utility.yul\":5916:5920   */\n      0x00\n        /* \"#utility.yul\":5954:5956   */\n      0x20\n        /* \"#utility.yul\":5943:5952   */\n      dup3\n        /* \"#utility.yul\":5939:5957   */\n      add\n        /* \"#utility.yul\":5931:5957   */\n      swap1\n      pop\n        /* \"#utility.yul\":6003:6012   */\n      dup2\n        /* \"#utility.yul\":5997:6001   */\n      dup2\n        /* \"#utility.yul\":5993:6013   */\n      sub\n        /* \"#utility.yul\":5989:5990   */\n      0x00\n        /* \"#utility.yul\":5978:5987   */\n      dup4\n        /* \"#utility.yul\":5974:5991   */\n      add\n        /* \"#utility.yul\":5967:6014   */\n      mstore\n        /* \"#utility.yul\":6031:6162   */\n      tag_170\n        /* \"#utility.yul\":6157:6161   */\n      dup2\n        /* \"#utility.yul\":6031:6162   */\n      tag_90\n      jump\t// in\n    tag_170:\n        /* \"#utility.yul\":6023:6162   */\n      swap1\n      pop\n        /* \"#utility.yul\":5750:6169   */\n      swap2\n      swap1\n      pop\n      jump\t// out\n        /* \"#utility.yul\":6175:6355   */\n    tag_91:\n        /* \"#utility.yul\":6223:6300   */\n      0x4e487b7100000000000000000000000000000000000000000000000000000000\n        /* \"#utility.yul\":6220:6221   */\n      0x00\n        /* \"#utility.yul\":6213:6301   */\n      mstore\n        /* \"#utility.yul\":6320:6324   */\n      0x11\n        /* \"#utility.yul\":6317:6318   */\n      0x04\n        /* \"#utility.yul\":6310:6325   */\n      mstore\n        /* \"#utility.yul\":6344:6348   */\n      0x24\n        /* \"#utility.yul\":6341:6342   */\n      0x00\n        /* \"#utility.yul\":6334:6349   */\n      revert\n        /* \"#utility.yul\":6361:6552   */\n    tag_53:\n        /* \"#utility.yul\":6401:6404   */\n      0x00\n        /* \"#utility.yul\":6420:6440   */\n      tag_173\n        /* \"#utility.yul\":6438:6439   */\n      dup3\n        /* \"#utility.yul\":6420:6440   */\n      tag_75\n      jump\t// in\n    tag_173:\n        /* \"#utility.yul\":6415:6440   */\n      swap2\n      pop\n        /* \"#utility.yul\":6454:6474   */\n      tag_174\n        /* \"#utility.yul\":6472:6473   */\n      dup4\n        /* \"#utility.yul\":6454:6474   */\n      tag_75\n      jump\t// in\n    tag_174:\n        /* \"#utility.yul\":6449:6474   */\n      swap3\n      pop\n        /* \"#utility.yul\":6497:6498   */\n      dup3\n        /* \"#utility.yul\":6494:6495   */\n      dup3\n        /* \"#utility.yul\":6490:6499   */\n      add\n        /* \"#utility.yul\":6483:6499   */\n      swap1\n      pop\n        /* \"#utility.yul\":6518:6521   */\n      dup1\n        /* \"#utility.yul\":6515:6516   */\n      dup3\n        /* \"#utility.yul\":6512:6522   */\n      gt\n        /* \"#utility.yul\":6509:6545   */\n      iszero\n      tag_175\n      jumpi\n        /* \"#utility.yul\":6525:6543   */\n      tag_176\n      tag_91\n      jump\t// in\n    tag_176:\n        /* \"#utility.yul\":6509:6545   */\n    tag_175:\n        /* \"#utility.yul\":6361:6552   */\n      swap3\n      swap2\n      pop\n      pop\n      jump\t// out\n        /* \"#utility.yul\":6558:6738   */\n    tag_92:\n        /* \"#utility.yul\":6606:6683   */\n      0x4e487b7100000000000000000000000000000000000000000000000000000000\n        /* \"#utility.yul\":6603:6604   */\n      0x00\n        /* \"#utility.yul\":6596:6684   */\n      mstore\n        /* \"#utility.yul\":6703:6707   */\n      0x22\n        /* \"#utility.yul\":6700:6701   */\n      0x04\n        /* \"#utility.yul\":6693:6708   */\n      mstore\n        /* \"#utility.yul\":6727:6731   */\n      0x24\n        /* \"#utility.yul\":6724:6725   */\n      0x00\n        /* \"#utility.yul\":6717:6732   */\n      revert\n        /* \"#utility.yul\":6744:7064   */\n    tag_55:\n        /* \"#utility.yul\":6788:6794   */\n      0x00\n        /* \"#utility.yul\":6825:6826   */\n      0x02\n        /* \"#utility.yul\":6819:6823   */\n      dup3\n        /* \"#utility.yul\":6815:6827   */\n      div\n        /* \"#utility.yul\":6805:6827   */\n      swap1\n      pop\n        /* \"#utility.yul\":6872:6873   */\n      0x01\n        /* \"#utility.yul\":6866:6870   */\n      dup3\n        /* \"#utility.yul\":6862:6874   */\n      and\n        /* \"#utility.yul\":6893:6911   */\n      dup1\n        /* \"#utility.yul\":6883:6964   */\n      tag_179\n      jumpi\n        /* \"#utility.yul\":6949:6953   */\n      0x7f\n        /* \"#utility.yul\":6941:6947   */\n      dup3\n        /* \"#utility.yul\":6937:6954   */\n      and\n        /* \"#utility.yul\":6927:6954   */\n      swap2\n      pop\n        /* \"#utility.yul\":6883:6964   */\n    tag_179:\n        /* \"#utility.yul\":7011:7013   */\n      0x20\n        /* \"#utility.yul\":7003:7009   */\n      dup3\n        /* \"#utility.yul\":7000:7014   */\n      lt\n        /* \"#utility.yul\":6980:6998   */\n      dup2\n        /* \"#utility.yul\":6977:7015   */\n      sub\n        /* \"#utility.yul\":6974:7058   */\n      tag_180\n      jumpi\n        /* \"#utility.yul\":7030:7048   */\n      tag_181\n      tag_92\n      jump\t// in\n    tag_181:\n        /* \"#utility.yul\":6974:7058   */\n    tag_180:\n        /* \"#utility.yul\":6795:7064   */\n      pop\n        /* \"#utility.yul\":6744:7064   */\n      swap2\n      swap1\n      pop\n      jump\t// out\n        /* \"#utility.yul\":7070:7250   */\n    tag_93:\n        /* \"#utility.yul\":7118:7195   */\n      0x4e487b7100000000000000000000000000000000000000000000000000000000\n        /* \"#utility.yul\":7115:7116   */\n      0x00\n        /* \"#utility.yul\":7108:7196   */\n      mstore\n        /* \"#utility.yul\":7215:7219   */\n      0x41\n        /* \"#utility.yul\":7212:7213   */\n      0x04\n        /* \"#utility.yul\":7205:7220   */\n      mstore\n        /* \"#utility.yul\":7239:7243   */\n      0x24\n        /* \"#utility.yul\":7236:7237   */\n      0x00\n        /* \"#utility.yul\":7229:7244   */\n      revert\n        /* \"#utility.yul\":7256:7397   */\n    tag_94:\n        /* \"#utility.yul\":7305:7309   */\n      0x00\n        /* \"#utility.yul\":7328:7331   */\n      dup2\n        /* \"#utility.yul\":7320:7331   */\n      swap1\n      pop\n        /* \"#utility.yul\":7351:7354   */\n      dup2\n        /* \"#utility.yul\":7348:7349   */\n      0x00\n        /* \"#utility.yul\":7341:7355   */\n      mstore\n        /* \"#utility.yul\":7385:7389   */\n      0x20\n        /* \"#utility.yul\":7382:7383   */\n      0x00\n        /* \"#utility.yul\":7372:7390   */\n      keccak256\n        /* \"#utility.yul\":7364:7390   */\n      swap1\n      pop\n        /* \"#utility.yul\":7256:7397   */\n      swap2\n      swap1\n      pop\n      jump\t// out\n        /* \"#utility.yul\":7403:7496   */\n    tag_95:\n        /* \"#utility.yul\":7440:7446   */\n      0x00\n        /* \"#utility.yul\":7487:7489   */\n      0x20\n        /* \"#utility.yul\":7482:7484   */\n      0x1f\n        /* \"#utility.yul\":7475:7480   */\n      dup4\n        /* \"#utility.yul\":7471:7485   */\n      add\n        /* \"#utility.yul\":7467:7490   */\n      div\n        /* \"#utility.yul\":7457:7490   */\n      swap1\n      pop\n        /* \"#utility.yul\":7403:7496   */\n      swap2\n      swap1\n      pop\n      jump\t// out\n        /* \"#utility.yul\":7502:7609   */\n    tag_96:\n        /* \"#utility.yul\":7546:7554   */\n      0x00\n        /* \"#utility.yul\":7596:7601   */\n      dup3\n        /* \"#utility.yul\":7590:7594   */\n      dup3\n        /* \"#utility.yul\":7586:7602   */\n      shl\n        /* \"#utility.yul\":7565:7602   */\n      swap1\n      pop\n        /* \"#utility.yul\":7502:7609   */\n      swap3\n      swap2\n      pop\n      pop\n      jump\t// out\n        /* \"#utility.yul\":7615:8008   */\n    tag_97:\n        /* \"#utility.yul\":7684:7690   */\n      0x00\n        /* \"#utility.yul\":7734:7735   */\n      0x08\n        /* \"#utility.yul\":7722:7732   */\n      dup4\n        /* \"#utility.yul\":7718:7736   */\n      mul\n        /* \"#utility.yul\":7757:7854   */\n      tag_187\n        /* \"#utility.yul\":7787:7853   */\n      0xffffffffffffffffffffffffffffffffffffffffffffffffffffffffffffffff\n        /* \"#utility.yul\":7776:7785   */\n      dup3\n        /* \"#utility.yul\":7757:7854   */\n      tag_96\n      jump\t// in\n    tag_187:\n        /* \"#utility.yul\":7875:7914   */\n      tag_188\n        /* \"#utility.yul\":7905:7913   */\n      dup7\n        /* \"#utility.yul\":7894:7903   */\n      dup4\n        /* \"#utility.yul\":7875:7914   */\n      tag_96\n      jump\t// in\n    tag_188:\n        /* \"#utility.yul\":7863:7914   */\n      swap6\n      pop\n        /* \"#utility.yul\":7947:7951   */\n      dup1\n        /* \"#utility.yul\":7943:7952   */\n      not\n        /* \"#utility.yul\":7936:7941   */\n      dup5\n        /* \"#utility.yul\":7932:7953   */\n      and\n        /* \"#utility.yul\":7923:7953   */\n      swap4\n      pop\n        /* \"#utility.yul\":7996:8000   */\n      dup1\n        /* \"#utility.yul\":7986:7994   */\n      dup7\n        /* \"#utility.yul\":7982:8001   */\n      and\n        /* \"#utility.yul\":7975:7980   */\n      dup5\n        /* \"#utility.yul\":7972:8002   */\n      or\n        /* \"#utility.yul\":7962:8002   */\n      swap3\n      pop\n        /* \"#utility.yul\":7691:8008   */\n      pop\n      pop\n        /* \"#utility.yul\":7615:8008   */\n      swap4\n      swap3\n      pop\n      pop\n      pop\n      jump\t// out\n        /* \"#utility.yul\":8014:8074   */\n    tag_98:\n        /* \"#utility.yul\":8042:8045   */\n      0x00\n        /* \"#utility.yul\":8063:8068   */\n      dup2\n        /* \"#utility.yul\":8056:8068   */\n      swap1\n      pop\n        /* \"#utility.yul\":8014:8074   */\n      swap2\n      swap1\n      pop\n      jump\t// out\n        /* \"#utility.yul\":8080:8222   */\n    tag_99:\n        /* \"#utility.yul\":8130:8139   */\n      0x00\n        /* \"#utility.yul\":8163:8216   */\n      tag_191\n        /* \"#utility.yul\":8181:8215   */\n      tag_192\n        /* \"#utility.yul\":8190:8214   */\n      tag_193\n        /* \"#utility.yul\":8208:8213   */\n      dup5\n        /* \"#utility.yul\":8190:8214   */\n      tag_75\n      jump\t// in\n    tag_193:\n        /* \"#utility.yul\":8181:8215   */\n      tag_98\n      jump\t// in\n    tag_192:\n        /* \"#utility.yul\":8163:8216   */\n      tag_75\n      jump\t// in\n    tag_191:\n        /* \"#utility.yul\":8150:8216   */\n      swap1\n      pop\n        /* \"#utility.yul\":8080:8222   */\n      swap2\n      swap1\n      pop\n      jump\t// out\n        /* \"#utility.yul\":8228:8303   */\n    tag_100:\n        /* \"#utility.yul\":8271:8274   */\n      0x00\n        /* \"#utility.yul\":8292:8297   */\n      dup2\n        /* \"#utility.yul\":8285:8297   */\n      swap1\n      pop\n        /* \"#utility.yul\":8228:8303   */\n      swap2\n      swap1\n      pop\n      jump\t// out\n        /* \"#utility.yul\":8309:8578   */\n    tag_101:\n        /* \"#utility.yul\":8419:8458   */\n      tag_196\n        /* \"#utility.yul\":8450:8457   */\n      dup4\n        /* \"#utility.yul\":8419:8458   */\n      tag_99\n      jump\t// in\n    tag_196:\n        /* \"#utility.yul\":8480:8571   */\n      tag_197\n        /* \"#utility.yul\":8529:8570   */\n      tag_198\n        /* \"#utility.yul\":8553:8569   */\n      dup3\n        /* \"#utility.yul\":8529:8570   */\n      tag_100\n      jump\t// in\n    tag_198:\n        /* \"#utility.yul\":8521:8527   */\n      dup5\n        /* \"#utility.yul\":8514:8518   */\n      dup5\n        /* \"#utility.yul\":8508:8519   */\n      sload\n        /* \"#utility.yul\":8480:8571   */\n      tag_97\n      jump\t// in\n    tag_197:\n        /* \"#utility.yul\":8474:8478   */\n      dup3\n        /* \"#utility.yul\":8467:8572   */\n      sstore\n        /* \"#utility.yul\":8385:8578   */\n      pop\n        /* \"#utility.yul\":8309:8578   */\n      pop\n      pop\n      pop\n      jump\t// out\n        /* \"#utility.yul\":8584:8657   */\n    tag_102:\n        /* \"#utility.yul\":8629:8632   */\n      0x00\n        /* \"#utility.yul\":8650:8651   */\n      0x00\n        /* \"#utility.yul\":8643:8651   */\n      swap1\n      pop\n        /* \"#utility.yul\":8584:8657   */\n      swap1\n      jump\t// out\n        /* \"#utility.yul\":8663:8852   */\n    tag_103:\n        /* \"#utility.yul\":8740:8772   */\n      tag_201\n      tag_102\n      jump\t// in\n    tag_201:\n        /* \"#utility.yul\":8781:8846   */\n      tag_202\n        /* \"#utility.yul\":8839:8845   */\n      dup2\n        /* \"#utility.yul\":8831:8837   */\n      dup5\n        /* \"#utility.yul\":8825:8829   */\n      dup5\n        /* \"#utility.yul\":8781:8846   */\n      tag_101\n      jump\t// in\n    tag_202:\n        /* \"#utility.yul\":8716:8852   */\n      pop\n        /* \"#utility.yul\":8663:8852   */\n      pop\n      pop\n      jump\t// out\n        /* \"#utility.yul\":8858:9072   */\n    tag_104:\n        /* \"#utility.yul\":8943:8944   */\n      0x00\n        /* \"#utility.yul\":8928:9066   */\n    tag_204:\n        /* \"#utility.yul\":8953:8962   */\n      dup3\n        /* \"#utility.yul\":8950:8951   */\n      dup2\n        /* \"#utility.yul\":8947:8963   */\n      lt\n        /* \"#utility.yul\":8928:9066   */\n      iszero\n      tag_206\n      jumpi\n        /* \"#utility.yul\":9005:9056   */\n      tag_207\n        /* \"#utility.yul\":9054:9055   */\n      0x00\n        /* \"#utility.yul\":9050:9051   */\n      dup3\n        /* \"#utility.yul\":9039:9048   */\n      dup5\n        /* \"#utility.yul\":9035:9052   */\n      add\n        /* \"#utility.yul\":9005:9056   */\n      tag_103\n      jump\t// in\n    tag_207:\n        /* \"#utility.yul\":8978:8979   */\n      0x01\n        /* \"#utility.yul\":8975:8976   */\n      dup2\n        /* \"#utility.yul\":8971:8980   */\n      add\n        /* \"#utility.yul\":8966:8980   */\n      swap1\n      pop\n        /* \"#utility.yul\":8928:9066   */\n      jump(tag_204)\n    tag_206:\n        /* \"#utility.yul\":8932:8946   */\n      pop\n        /* \"#utility.yul\":8858:9072   */\n      pop\n      pop\n      jump\t// out\n        /* \"#utility.yul\":9078:9824   */\n    tag_105:\n        /* \"#utility.yul\":9179:9181   */\n      0x1f\n        /* \"#utility.yul\":9174:9177   */\n      dup3\n        /* \"#utility.yul\":9171:9182   */\n      gt\n        /* \"#utility.yul\":9168:9817   */\n      iszero\n      tag_209\n      jumpi\n        /* \"#utility.yul\":9208:9218   */\n      dup3\n        /* \"#utility.yul\":9203:9206   */\n      dup3\n        /* \"#utility.yul\":9200:9219   */\n      gt\n        /* \"#utility.yul\":9197:9807   */\n      iszero\n      tag_210\n      jumpi\n        /* \"#utility.yul\":9254:9292   */\n      tag_211\n        /* \"#utility.yul\":9286:9291   */\n      dup2\n        /* \"#utility.yul\":9254:9292   */\n      tag_94\n      jump\t// in\n    tag_211:\n        /* \"#utility.yul\":9329:9351   */\n      tag_212\n        /* \"#utility.yul\":9347:9350   */\n      dup4\n        /* \"#utility.yul\":9329:9351   */\n      tag_95\n      jump\t// in\n    tag_212:\n        /* \"#utility.yul\":9388:9417   */\n      tag_213\n        /* \"#utility.yul\":9406:9416   */\n      dup6\n        /* \"#utility.yul\":9388:9417   */\n      tag_95\n      jump\t// in\n    tag_213:\n        /* \"#utility.yul\":9578:9580   */\n      0x20\n        /* \"#utility.yul\":9566:9576   */\n      dup7\n        /* \"#utility.yul\":9563:9581   */\n      lt\n        /* \"#utility.yul\":9560:9639   */\n      iszero\n      tag_214\n      jumpi\n        /* \"#utility.yul\":9620:9621   */\n      0x00\n        /* \"#utility.yul\":9604:9621   */\n      swap1\n      pop\n        /* \"#utility.yul\":9560:9639   */\n    tag_214:\n        /* \"#utility.yul\":9689:9701   */\n      dup1\n        /* \"#utility.yul\":9679:9687   */\n      dup4\n        /* \"#utility.yul\":9675:9702   */\n      add\n        /* \"#utility.yul\":9719:9793   */\n      tag_215\n        /* \"#utility.yul\":9779:9791   */\n      dup3\n        /* \"#utility.yul\":9765:9777   */\n      dup5\n        /* \"#utility.yul\":9761:9792   */\n      sub\n        /* \"#utility.yul\":9748:9759   */\n      dup3\n        /* \"#utility.yul\":9719:9793   */\n      tag_104\n      jump\t// in\n    tag_215:\n        /* \"#utility.yul\":9220:9807   */\n      pop\n      pop\n      pop\n      pop\n        /* \"#utility.yul\":9197:9807   */\n    tag_210:\n        /* \"#utility.yul\":9168:9817   */\n    tag_209:\n        /* \"#utility.yul\":9078:9824   */\n      pop\n      pop\n      pop\n      jump\t// out\n        /* \"#utility.yul\":9830:9947   */\n    tag_106:\n        /* \"#utility.yul\":9884:9892   */\n      0x00\n        /* \"#utility.yul\":9934:9939   */\n      dup3\n        /* \"#utility.yul\":9928:9932   */\n      dup3\n        /* \"#utility.yul\":9924:9940   */\n      shr\n        /* \"#utility.yul\":9903:9940   */\n      swap1\n      pop\n        /* \"#utility.yul\":9830:9947   */\n      swap3\n      swap2\n      pop\n      pop\n      jump\t// out\n        /* \"#utility.yul\":9953:10122   */\n    tag_107:\n        /* \"#utility.yul\":9997:10003   */\n      0x00\n        /* \"#utility.yul\":10030:10081   */\n      tag_218\n        /* \"#utility.yul\":10078:10079   */\n      0x00\n        /* \"#utility.yul\":10074:10080   */\n      not\n        /* \"#utility.yul\":10066:10071   */\n      dup5\n        /* \"#utility.yul\":10063:10064   */\n      0x08\n        /* \"#utility.yul\":10059:10072   */\n      mul\n        /* \"#utility.yul\":10030:10081   */\n      tag_106\n      jump\t// in\n    tag_218:\n        /* \"#utility.yul\":10026:10082   */\n      not\n        /* \"#utility.yul\":10111:10115   */\n      dup1\n        /* \"#utility.yul\":10105:10109   */\n      dup4\n        /* \"#utility.yul\":10101:10116   */\n      and\n        /* \"#utility.yul\":10091:10116   */\n      swap2\n      pop\n        /* \"#utility.yul\":10004:10122   */\n      pop\n        /* \"#utility.yul\":9953:10122   */\n      swap3\n      swap2\n      pop\n      pop\n      jump\t// out\n        /* \"#utility.yul\":10127:10422   */\n    tag_108:\n        /* \"#utility.yul\":10203:10207   */\n      0x00\n        /* \"#utility.yul\":10349:10378   */\n      tag_220\n        /* \"#utility.yul\":10374:10377   */\n      dup4\n        /* \"#utility.yul\":10368:10372   */\n      dup4\n        /* \"#utility.yul\":10349:10378   */\n      tag_107\n      jump\t// in\n    tag_220:\n        /* \"#utility.yul\":10341:10378   */\n      swap2\n      pop\n        /* \"#utility.yul\":10411:10414   */\n      dup3\n        /* \"#utility.yul\":10408:10409   */\n      0x02\n        /* \"#utility.yul\":10404:10415   */\n      mul\n        /* \"#utility.yul\":10398:10402   */\n      dup3\n        /* \"#utility.yul\":10395:10416   */\n      or\n        /* \"#utility.yul\":10387:10416   */\n      swap1\n      pop\n        /* \"#utility.yul\":10127:10422   */\n      swap3\n      swap2\n      pop\n      pop\n      jump\t// out\n        /* \"#utility.yul\":10427:11822   */\n    tag_62:\n        /* \"#utility.yul\":10544:10581   */\n      tag_222\n        /* \"#utility.yul\":10577:10580   */\n      dup3\n        /* \"#utility.yul\":10544:10581   */\n      tag_79\n      jump\t// in\n    tag_222:\n        /* \"#utility.yul\":10646:10664   */\n      0xffffffffffffffff\n        /* \"#utility.yul\":10638:10644   */\n      dup2\n        /* \"#utility.yul\":10635:10665   */\n      gt\n        /* \"#utility.yul\":10632:10688   */\n      iszero\n      tag_223\n      jumpi\n        /* \"#utility.yul\":10668:10686   */\n      tag_224\n      tag_93\n      jump\t// in\n    tag_224:\n        /* \"#utility.yul\":10632:10688   */\n    tag_223:\n        /* \"#utility.yul\":10712:10750   */\n      tag_225\n        /* \"#utility.yul\":10744:10748   */\n      dup3\n        /* \"#utility.yul\":10738:10749   */\n      sload\n        /* \"#utility.yul\":10712:10750   */\n      tag_55\n      jump\t// in\n    tag_225:\n        /* \"#utility.yul\":10797:10864   */\n      tag_226\n        /* \"#utility.yul\":10857:10863   */\n      dup3\n        /* \"#utility.yul\":10849:10855   */\n      dup3\n        /* \"#utility.yul\":10843:10847   */\n      dup6\n        /* \"#utility.yul\":10797:10864   */\n      tag_105\n      jump\t// in\n    tag_226:\n        /* \"#utility.yul\":10891:10892   */\n      0x00\n        /* \"#utility.yul\":10915:10919   */\n      0x20\n        /* \"#utility.yul\":10902:10919   */\n      swap1\n      pop\n        /* \"#utility.yul\":10947:10949   */\n      0x1f\n        /* \"#utility.yul\":10939:10945   */\n      dup4\n        /* \"#utility.yul\":10936:10950   */\n      gt\n        /* \"#utility.yul\":10964:10965   */\n      0x01\n        /* \"#utility.yul\":10959:11577   */\n      dup2\n      eq\n      tag_228\n      jumpi\n        /* \"#utility.yul\":11621:11622   */\n      0x00\n        /* \"#utility.yul\":11638:11644   */\n      dup5\n        /* \"#utility.yul\":11635:11712   */\n      iszero\n      tag_229\n      jumpi\n        /* \"#utility.yul\":11687:11696   */\n      dup3\n        /* \"#utility.yul\":11682:11685   */\n      dup8\n        /* \"#utility.yul\":11678:11697   */\n      add\n        /* \"#utility.yul\":11672:11698   */\n      mload\n        /* \"#utility.yul\":11663:11698   */\n      swap1\n      pop\n        /* \"#utility.yul\":11635:11712   */\n    tag_229:\n        /* \"#utility.yul\":11738:11805   */\n      tag_230\n        /* \"#utility.yul\":11798:11804   */\n      dup6\n        /* \"#utility.yul\":11791:11796   */\n      dup3\n        /* \"#utility.yul\":11738:11805   */\n      tag_108\n      jump\t// in\n    tag_230:\n        /* \"#utility.yul\":11732:11736   */\n      dup7\n        /* \"#utility.yul\":11725:11806   */\n      sstore\n        /* \"#utility.yul\":11594:11816   */\n      pop\n        /* \"#utility.yul\":10929:11816   */\n      jump(tag_227)\n        /* \"#utility.yul\":10959:11577   */\n    tag_228:\n        /* \"#utility.yul\":11011:11015   */\n      0x1f\n        /* \"#utility.yul\":11007:11016   */\n      not\n        /* \"#utility.yul\":10999:11005   */\n      dup5\n        /* \"#utility.yul\":10995:11017   */\n      and\n        /* \"#utility.yul\":11045:11082   */\n      tag_231\n        /* \"#utility.yul\":11077:11081   */\n      dup7\n        /* \"#utility.yul\":11045:11082   */\n      tag_94\n      jump\t// in\n    tag_231:\n        /* \"#utility.yul\":11104:11105   */\n      0x00\n        /* \"#utility.yul\":11118:11326   */\n    tag_232:\n        /* \"#utility.yul\":11132:11139   */\n      dup3\n        /* \"#utility.yul\":11129:11130   */\n      dup2\n        /* \"#utility.yul\":11126:11140   */\n      lt\n        /* \"#utility.yul\":11118:11326   */\n      iszero\n      tag_234\n      jumpi\n        /* \"#utility.yul\":11211:11220   */\n      dup5\n        /* \"#utility.yul\":11206:11209   */\n      dup10\n        /* \"#utility.yul\":11202:11221   */\n      add\n        /* \"#utility.yul\":11196:11222   */\n      mload\n        /* \"#utility.yul\":11188:11194   */\n      dup3\n        /* \"#utility.yul\":11181:11223   */\n      sstore\n        /* \"#utility.yul\":11262:11263   */\n      0x01\n        /* \"#utility.yul\":11254:11260   */\n      dup3\n        /* \"#utility.yul\":11250:11264   */\n      add\n        /* \"#utility.yul\":11240:11264   */\n      swap2\n      pop\n        /* \"#utility.yul\":11309:11311   */\n      0x20\n        /* \"#utility.yul\":11298:11307   */\n      dup6\n        /* \"#utility.yul\":11294:11312   */\n      add\n        /* \"#utility.yul\":11281:11312   */\n      swap5\n      pop\n        /* \"#utility.yul\":11155:11159   */\n      0x20\n        /* \"#utility.yul\":11152:11153   */\n      dup2\n        /* \"#utility.yul\":11148:11160   */\n      add\n        /* \"#utility.yul\":11143:11160   */\n      swap1\n      pop\n        /* \"#utility.yul\":11118:11326   */\n      jump(tag_232)\n    tag_234:\n        /* \"#utility.yul\":11354:11360   */\n      dup7\n        /* \"#utility.yul\":11345:11352   */\n      dup4\n        /* \"#utility.yul\":11342:11361   */\n      lt\n        /* \"#utility.yul\":11339:11518   */\n      iszero\n      tag_235\n      jumpi\n        /* \"#utility.yul\":11412:11421   */\n      dup5\n        /* \"#utility.yul\":11407:11410   */\n      dup10\n        /* \"#utility.yul\":11403:11422   */\n      add\n        /* \"#utility.yul\":11397:11423   */\n      mload\n        /* \"#utility.yul\":11455:11503   */\n      tag_236\n        /* \"#utility.yul\":11497:11501   */\n      0x1f\n        /* \"#utility.yul\":11489:11495   */\n      dup10\n        /* \"#utility.yul\":11485:11502   */\n      and\n        /* \"#utility.yul\":11474:11483   */\n      dup3\n        /* \"#utility.yul\":11455:11503   */\n      tag_107\n      jump\t// in\n    tag_236:\n        /* \"#utility.yul\":11447:11453   */\n      dup4\n        /* \"#utility.yul\":11440:11504   */\n      sstore\n        /* \"#utility.yul\":11362:11518   */\n      pop\n        /* \"#utility.yul\":11339:11518   */\n    tag_235:\n        /* \"#utility.yul\":11564:11565   */\n      0x01\n        /* \"#utility.yul\":11560:11561   */\n      0x02\n        /* \"#utility.yul\":11552:11558   */\n      dup9\n        /* \"#utility.yul\":11548:11562   */\n      mul\n        /* \"#utility.yul\":11544:11566   */\n      add\n        /* \"#utility.yul\":11538:11542   */\n      dup9\n        /* \"#utility.yul\":11531:11567   */\n      sstore\n        /* \"#utility.yul\":10966:11577   */\n      pop\n      pop\n      pop\n        /* \"#utility.yul\":10929:11816   */\n    tag_227:\n      pop\n        /* \"#utility.yul\":10519:11822   */\n      pop\n      pop\n      pop\n        /* \"#utility.yul\":10427:11822   */\n      pop\n      pop\n      jump\t// out\n\n    auxdata: 0xa264697066735822122088620214b9114623b6b052c2d34b8daaef19e361d665318a27c1d8570ac2091764736f6c63430008220033\n}\n",
				"bytecode": {
					"linkReferences": {},
					"object": "6080604052348015600e575f5ffd5b50335f5f6101000a81548173ffffffffffffffffffffffffffffffffffffffff021916908373ffffffffffffffffffffffffffffffffffffffff160217905550610b378061005b5f395ff3fe608060405234801561000f575f5ffd5b5060043610610086575f3560e01c80638da5cb5b116100595780638da5cb5b14610124578063a17ecef314610142578063b6b55f2514610160578063cf3090121461017c57610086565b806327e235e31461008a57806332627ec7146100ba5780633a464254146100ea57806389f71d5314610106575b5f5ffd5b6100a4600480360381019061009f919061052b565b61019a565b6040516100b1919061056e565b60405180910390f35b6100d460048036038101906100cf919061052b565b6101af565b6040516100e1919061056e565b60405180910390f35b61010460048036038101906100ff91906105b1565b6101c4565b005b61010e6102e3565b60405161011b919061064c565b60405180910390f35b61012c61036f565b604051610139919061067b565b60405180910390f35b61014a610393565b604051610157919061056e565b60405180910390f35b61017a600480360381019061017591906105b1565b610399565b005b6101846104bb565b60405161019191906106ae565b60405180910390f35b6002602052805f5260405f205f915090505481565b6004602052805f5260405f205f915090505481565b5f15155f60149054906101000a900460ff16151514610218576040517f08c379a000000000000000000000000000000000000000000000000000000000815260040161020f90610711565b60405180910390fd5b60015f60146101000a81548160ff0219169083151502179055505f8111610274576040517f08c379a000000000000000000000000000000000000000000000000000000000815260040161026b90610779565b60405180910390fd5b8060025f3373ffffffffffffffffffffffffffffffffffffffff1673ffffffffffffffffffffffffffffffffffffffff1681526020019081526020015f205f8282546102c091906107c4565b925050819055505f5f60146101000a81548160ff02191690831515021790555050565b600180546102f090610824565b80601f016020809104026020016040519081016040528092919081815260200182805461031c90610824565b80156103675780601f1061033e57610100808354040283529160200191610367565b820191905f5260205f20905b81548152906001019060200180831161034a57829003601f168201915b505050505081565b5f5f9054906101000a900473ffffffffffffffffffffffffffffffffffffffff1681565b60035481565b6040518060400160405280601081526020017f46756e6374696f6e207374617274656400000000000000000000000000000000815250600190816103dd9190610a32565b505f8111610420576040517f08c379a000000000000000000000000000000000000000000000000000000000815260040161041790610779565b60405180910390fd5b8060025f3373ffffffffffffffffffffffffffffffffffffffff1673ffffffffffffffffffffffffffffffffffffffff1681526020019081526020015f205f82825461046c91906107c4565b925050819055506040518060400160405280601281526020017f46756e6374696f6e20636f6d706c657465640000000000000000000000000000815250600190816104b79190610a32565b5050565b5f60149054906101000a900460ff1681565b5f5ffd5b5f73ffffffffffffffffffffffffffffffffffffffff82169050919050565b5f6104fa826104d1565b9050919050565b61050a816104f0565b8114610514575f5ffd5b50565b5f8135905061052581610501565b92915050565b5f602082840312156105405761053f6104cd565b5b5f61054d84828501610517565b91505092915050565b5f819050919050565b61056881610556565b82525050565b5f6020820190506105815f83018461055f565b92915050565b61059081610556565b811461059a575f5ffd5b50565b5f813590506105ab81610587565b92915050565b5f602082840312156105c6576105c56104cd565b5b5f6105d38482850161059d565b91505092915050565b5f81519050919050565b5f82825260208201905092915050565b8281835e5f83830152505050565b5f601f19601f8301169050919050565b5f61061e826105dc565b61062881856105e6565b93506106388185602086016105f6565b61064181610604565b840191505092915050565b5f6020820190508181035f8301526106648184610614565b905092915050565b610675816104f0565b82525050565b5f60208201905061068e5f83018461066c565b92915050565b5f8115159050919050565b6106a881610694565b82525050565b5f6020820190506106c15f83018461069f565b92915050565b7f5265656e7472616e742063616c6c20626c6f636b6564000000000000000000005f82015250565b5f6106fb6016836105e6565b9150610706826106c7565b602082019050919050565b5f6020820190508181035f830152610728816106ef565b9050919050565b7f496e76616c696420616d6f756e740000000000000000000000000000000000005f82015250565b5f610763600e836105e6565b915061076e8261072f565b602082019050919050565b5f6020820190508181035f83015261079081610757565b9050919050565b7f4e487b71000000000000000000000000000000000000000000000000000000005f52601160045260245ffd5b5f6107ce82610556565b91506107d983610556565b92508282019050808211156107f1576107f0610797565b5b92915050565b7f4e487b71000000000000000000000000000000000000000000000000000000005f52602260045260245ffd5b5f600282049050600182168061083b57607f821691505b60208210810361084e5761084d6107f7565b5b50919050565b7f4e487b71000000000000000000000000000000000000000000000000000000005f52604160045260245ffd5b5f819050815f5260205f209050919050565b5f6020601f8301049050919050565b5f82821b905092915050565b5f600883026108dd7fffffffffffffffffffffffffffffffffffffffffffffffffffffffffffffffff826108a2565b6108e786836108a2565b95508019841693508086168417925050509392505050565b5f819050919050565b5f61092261091d61091884610556565b6108ff565b610556565b9050919050565b5f819050919050565b61093b83610908565b61094f61094782610929565b8484546108ae565b825550505050565b5f5f905090565b610966610957565b610971818484610932565b505050565b5f5b828110156109975761098c5f82840161095e565b600181019050610978565b505050565b601f8211156109ea57828211156109e9576109b681610881565b6109bf83610893565b6109c885610893565b60208610156109d5575f90505b8083016109e482840382610976565b505050505b5b505050565b5f82821c905092915050565b5f610a0a5f19846008026109ef565b1980831691505092915050565b5f610a2283836109fb565b9150826002028217905092915050565b610a3b826105dc565b67ffffffffffffffff811115610a5457610a53610854565b5b610a5e8254610824565b610a6982828561099c565b5f60209050601f831160018114610a9a575f8415610a88578287015190505b610a928582610a17565b865550610af9565b601f198416610aa886610881565b5f5b82811015610acf57848901518255600182019150602085019450602081019050610aaa565b86831015610aec5784890151610ae8601f8916826109fb565b8355505b6001600288020188555050505b50505050505056fea264697066735822122088620214b9114623b6b052c2d34b8daaef19e361d665318a27c1d8570ac2091764736f6c63430008220033",
					"opcodes": "PUSH1 0x80 PUSH1 0x40 MSTORE CALLVALUE DUP1 ISZERO PUSH1 0xE JUMPI PUSH0 PUSH0 REVERT JUMPDEST POP CALLER PUSH0 PUSH0 PUSH2 0x100 EXP DUP2 SLOAD DUP2 PUSH20 0xFFFFFFFFFFFFFFFFFFFFFFFFFFFFFFFFFFFFFFFF MUL NOT AND SWAP1 DUP4 PUSH20 0xFFFFFFFFFFFFFFFFFFFFFFFFFFFFFFFFFFFFFFFF AND MUL OR SWAP1 SSTORE POP PUSH2 0xB37 DUP1 PUSH2 0x5B PUSH0 CODECOPY PUSH0 RETURN INVALID PUSH1 0x80 PUSH1 0x40 MSTORE CALLVALUE DUP1 ISZERO PUSH2 0xF JUMPI PUSH0 PUSH0 REVERT JUMPDEST POP PUSH1 0x4 CALLDATASIZE LT PUSH2 0x86 JUMPI PUSH0 CALLDATALOAD PUSH1 0xE0 SHR DUP1 PUSH4 0x8DA5CB5B GT PUSH2 0x59 JUMPI DUP1 PUSH4 0x8DA5CB5B EQ PUSH2 0x124 JUMPI DUP1 PUSH4 0xA17ECEF3 EQ PUSH2 0x142 JUMPI DUP1 PUSH4 0xB6B55F25 EQ PUSH2 0x160 JUMPI DUP1 PUSH4 0xCF309012 EQ PUSH2 0x17C JUMPI PUSH2 0x86 JUMP JUMPDEST DUP1 PUSH4 0x27E235E3 EQ PUSH2 0x8A JUMPI DUP1 PUSH4 0x32627EC7 EQ PUSH2 0xBA JUMPI DUP1 PUSH4 0x3A464254 EQ PUSH2 0xEA JUMPI DUP1 PUSH4 0x89F71D53 EQ PUSH2 0x106 JUMPI JUMPDEST PUSH0 PUSH0 REVERT JUMPDEST PUSH2 0xA4 PUSH1 0x4 DUP1 CALLDATASIZE SUB DUP2 ADD SWAP1 PUSH2 0x9F SWAP2 SWAP1 PUSH2 0x52B JUMP JUMPDEST PUSH2 0x19A JUMP JUMPDEST PUSH1 0x40 MLOAD PUSH2 0xB1 SWAP2 SWAP1 PUSH2 0x56E JUMP JUMPDEST PUSH1 0x40 MLOAD DUP1 SWAP2 SUB SWAP1 RETURN JUMPDEST PUSH2 0xD4 PUSH1 0x4 DUP1 CALLDATASIZE SUB DUP2 ADD SWAP1 PUSH2 0xCF SWAP2 SWAP1 PUSH2 0x52B JUMP JUMPDEST PUSH2 0x1AF JUMP JUMPDEST PUSH1 0x40 MLOAD PUSH2 0xE1 SWAP2 SWAP1 PUSH2 0x56E JUMP JUMPDEST PUSH1 0x40 MLOAD DUP1 SWAP2 SUB SWAP1 RETURN JUMPDEST PUSH2 0x104 PUSH1 0x4 DUP1 CALLDATASIZE SUB DUP2 ADD SWAP1 PUSH2 0xFF SWAP2 SWAP1 PUSH2 0x5B1 JUMP JUMPDEST PUSH2 0x1C4 JUMP JUMPDEST STOP JUMPDEST PUSH2 0x10E PUSH2 0x2E3 JUMP JUMPDEST PUSH1 0x40 MLOAD PUSH2 0x11B SWAP2 SWAP1 PUSH2 0x64C JUMP JUMPDEST PUSH1 0x40 MLOAD DUP1 SWAP2 SUB SWAP1 RETURN JUMPDEST PUSH2 0x12C PUSH2 0x36F JUMP JUMPDEST PUSH1 0x40 MLOAD PUSH2 0x139 SWAP2 SWAP1 PUSH2 0x67B JUMP JUMPDEST PUSH1 0x40 MLOAD DUP1 SWAP2 SUB SWAP1 RETURN JUMPDEST PUSH2 0x14A PUSH2 0x393 JUMP JUMPDEST PUSH1 0x40 MLOAD PUSH2 0x157 SWAP2 SWAP1 PUSH2 0x56E JUMP JUMPDEST PUSH1 0x40 MLOAD DUP1 SWAP2 SUB SWAP1 RETURN JUMPDEST PUSH2 0x17A PUSH1 0x4 DUP1 CALLDATASIZE SUB DUP2 ADD SWAP1 PUSH2 0x175 SWAP2 SWAP1 PUSH2 0x5B1 JUMP JUMPDEST PUSH2 0x399 JUMP JUMPDEST STOP JUMPDEST PUSH2 0x184 PUSH2 0x4BB JUMP JUMPDEST PUSH1 0x40 MLOAD PUSH2 0x191 SWAP2 SWAP1 PUSH2 0x6AE JUMP JUMPDEST PUSH1 0x40 MLOAD DUP1 SWAP2 SUB SWAP1 RETURN JUMPDEST PUSH1 0x2 PUSH1 0x20 MSTORE DUP1 PUSH0 MSTORE PUSH1 0x40 PUSH0 KECCAK256 PUSH0 SWAP2 POP SWAP1 POP SLOAD DUP2 JUMP JUMPDEST PUSH1 0x4 PUSH1 0x20 MSTORE DUP1 PUSH0 MSTORE PUSH1 0x40 PUSH0 KECCAK256 PUSH0 SWAP2 POP SWAP1 POP SLOAD DUP2 JUMP JUMPDEST PUSH0 ISZERO ISZERO PUSH0 PUSH1 0x14 SWAP1 SLOAD SWAP1 PUSH2 0x100 EXP SWAP1 DIV PUSH1 0xFF AND ISZERO ISZERO EQ PUSH2 0x218 JUMPI PUSH1 0x40 MLOAD PUSH32 0x8C379A000000000000000000000000000000000000000000000000000000000 DUP2 MSTORE PUSH1 0x4 ADD PUSH2 0x20F SWAP1 PUSH2 0x711 JUMP JUMPDEST PUSH1 0x40 MLOAD DUP1 SWAP2 SUB SWAP1 REVERT JUMPDEST PUSH1 0x1 PUSH0 PUSH1 0x14 PUSH2 0x100 EXP DUP2 SLOAD DUP2 PUSH1 0xFF MUL NOT AND SWAP1 DUP4 ISZERO ISZERO MUL OR SWAP1 SSTORE POP PUSH0 DUP2 GT PUSH2 0x274 JUMPI PUSH1 0x40 MLOAD PUSH32 0x8C379A000000000000000000000000000000000000000000000000000000000 DUP2 MSTORE PUSH1 0x4 ADD PUSH2 0x26B SWAP1 PUSH2 0x779 JUMP JUMPDEST PUSH1 0x40 MLOAD DUP1 SWAP2 SUB SWAP1 REVERT JUMPDEST DUP1 PUSH1 0x2 PUSH0 CALLER PUSH20 0xFFFFFFFFFFFFFFFFFFFFFFFFFFFFFFFFFFFFFFFF AND PUSH20 0xFFFFFFFFFFFFFFFFFFFFFFFFFFFFFFFFFFFFFFFF AND DUP2 MSTORE PUSH1 0x20 ADD SWAP1 DUP2 MSTORE PUSH1 0x20 ADD PUSH0 KECCAK256 PUSH0 DUP3 DUP3 SLOAD PUSH2 0x2C0 SWAP2 SWAP1 PUSH2 0x7C4 JUMP JUMPDEST SWAP3 POP POP DUP2 SWAP1 SSTORE POP PUSH0 PUSH0 PUSH1 0x14 PUSH2 0x100 EXP DUP2 SLOAD DUP2 PUSH1 0xFF MUL NOT AND SWAP1 DUP4 ISZERO ISZERO MUL OR SWAP1 SSTORE POP POP JUMP JUMPDEST PUSH1 0x1 DUP1 SLOAD PUSH2 0x2F0 SWAP1 PUSH2 0x824 JUMP JUMPDEST DUP1 PUSH1 0x1F ADD PUSH1 0x20 DUP1 SWAP2 DIV MUL PUSH1 0x20 ADD PUSH1 0x40 MLOAD SWAP1 DUP2 ADD PUSH1 0x40 MSTORE DUP1 SWAP3 SWAP2 SWAP1 DUP2 DUP2 MSTORE PUSH1 0x20 ADD DUP3 DUP1 SLOAD PUSH2 0x31C SWAP1 PUSH2 0x824 JUMP JUMPDEST DUP1 ISZERO PUSH2 0x367 JUMPI DUP1 PUSH1 0x1F LT PUSH2 0x33E JUMPI PUSH2 0x100 DUP1 DUP4 SLOAD DIV MUL DUP4 MSTORE SWAP2 PUSH1 0x20 ADD SWAP2 PUSH2 0x367 JUMP JUMPDEST DUP3 ADD SWAP2 SWAP1 PUSH0 MSTORE PUSH1 0x20 PUSH0 KECCAK256 SWAP1 JUMPDEST DUP2 SLOAD DUP2 MSTORE SWAP1 PUSH1 0x1 ADD SWAP1 PUSH1 0x20 ADD DUP1 DUP4 GT PUSH2 0x34A JUMPI DUP3 SWAP1 SUB PUSH1 0x1F AND DUP3 ADD SWAP2 JUMPDEST POP POP POP POP POP DUP2 JUMP JUMPDEST PUSH0 PUSH0 SWAP1 SLOAD SWAP1 PUSH2 0x100 EXP SWAP1 DIV PUSH20 0xFFFFFFFFFFFFFFFFFFFFFFFFFFFFFFFFFFFFFFFF AND DUP2 JUMP JUMPDEST PUSH1 0x3 SLOAD DUP2 JUMP JUMPDEST PUSH1 0x40 MLOAD DUP1 PUSH1 0x40 ADD PUSH1 0x40 MSTORE DUP1 PUSH1 0x10 DUP2 MSTORE PUSH1 0x20 ADD PUSH32 0x46756E6374696F6E207374617274656400000000000000000000000000000000 DUP2 MSTORE POP PUSH1 0x1 SWAP1 DUP2 PUSH2 0x3DD SWAP2 SWAP1 PUSH2 0xA32 JUMP JUMPDEST POP PUSH0 DUP2 GT PUSH2 0x420 JUMPI PUSH1 0x40 MLOAD PUSH32 0x8C379A000000000000000000000000000000000000000000000000000000000 DUP2 MSTORE PUSH1 0x4 ADD PUSH2 0x417 SWAP1 PUSH2 0x779 JUMP JUMPDEST PUSH1 0x40 MLOAD DUP1 SWAP2 SUB SWAP1 REVERT JUMPDEST DUP1 PUSH1 0x2 PUSH0 CALLER PUSH20 0xFFFFFFFFFFFFFFFFFFFFFFFFFFFFFFFFFFFFFFFF AND PUSH20 0xFFFFFFFFFFFFFFFFFFFFFFFFFFFFFFFFFFFFFFFF AND DUP2 MSTORE PUSH1 0x20 ADD SWAP1 DUP2 MSTORE PUSH1 0x20 ADD PUSH0 KECCAK256 PUSH0 DUP3 DUP3 SLOAD PUSH2 0x46C SWAP2 SWAP1 PUSH2 0x7C4 JUMP JUMPDEST SWAP3 POP POP DUP2 SWAP1 SSTORE POP PUSH1 0x40 MLOAD DUP1 PUSH1 0x40 ADD PUSH1 0x40 MSTORE DUP1 PUSH1 0x12 DUP2 MSTORE PUSH1 0x20 ADD PUSH32 0x46756E6374696F6E20636F6D706C657465640000000000000000000000000000 DUP2 MSTORE POP PUSH1 0x1 SWAP1 DUP2 PUSH2 0x4B7 SWAP2 SWAP1 PUSH2 0xA32 JUMP JUMPDEST POP POP JUMP JUMPDEST PUSH0 PUSH1 0x14 SWAP1 SLOAD SWAP1 PUSH2 0x100 EXP SWAP1 DIV PUSH1 0xFF AND DUP2 JUMP JUMPDEST PUSH0 PUSH0 REVERT JUMPDEST PUSH0 PUSH20 0xFFFFFFFFFFFFFFFFFFFFFFFFFFFFFFFFFFFFFFFF DUP3 AND SWAP1 POP SWAP2 SWAP1 POP JUMP JUMPDEST PUSH0 PUSH2 0x4FA DUP3 PUSH2 0x4D1 JUMP JUMPDEST SWAP1 POP SWAP2 SWAP1 POP JUMP JUMPDEST PUSH2 0x50A DUP2 PUSH2 0x4F0 JUMP JUMPDEST DUP2 EQ PUSH2 0x514 JUMPI PUSH0 PUSH0 REVERT JUMPDEST POP JUMP JUMPDEST PUSH0 DUP2 CALLDATALOAD SWAP1 POP PUSH2 0x525 DUP2 PUSH2 0x501 JUMP JUMPDEST SWAP3 SWAP2 POP POP JUMP JUMPDEST PUSH0 PUSH1 0x20 DUP3 DUP5 SUB SLT ISZERO PUSH2 0x540 JUMPI PUSH2 0x53F PUSH2 0x4CD JUMP JUMPDEST JUMPDEST PUSH0 PUSH2 0x54D DUP5 DUP3 DUP6 ADD PUSH2 0x517 JUMP JUMPDEST SWAP2 POP POP SWAP3 SWAP2 POP POP JUMP JUMPDEST PUSH0 DUP2 SWAP1 POP SWAP2 SWAP1 POP JUMP JUMPDEST PUSH2 0x568 DUP2 PUSH2 0x556 JUMP JUMPDEST DUP3 MSTORE POP POP JUMP JUMPDEST PUSH0 PUSH1 0x20 DUP3 ADD SWAP1 POP PUSH2 0x581 PUSH0 DUP4 ADD DUP5 PUSH2 0x55F JUMP JUMPDEST SWAP3 SWAP2 POP POP JUMP JUMPDEST PUSH2 0x590 DUP2 PUSH2 0x556 JUMP JUMPDEST DUP2 EQ PUSH2 0x59A JUMPI PUSH0 PUSH0 REVERT JUMPDEST POP JUMP JUMPDEST PUSH0 DUP2 CALLDATALOAD SWAP1 POP PUSH2 0x5AB DUP2 PUSH2 0x587 JUMP JUMPDEST SWAP3 SWAP2 POP POP JUMP JUMPDEST PUSH0 PUSH1 0x20 DUP3 DUP5 SUB SLT ISZERO PUSH2 0x5C6 JUMPI PUSH2 0x5C5 PUSH2 0x4CD JUMP JUMPDEST JUMPDEST PUSH0 PUSH2 0x5D3 DUP5 DUP3 DUP6 ADD PUSH2 0x59D JUMP JUMPDEST SWAP2 POP POP SWAP3 SWAP2 POP POP JUMP JUMPDEST PUSH0 DUP2 MLOAD SWAP1 POP SWAP2 SWAP1 POP JUMP JUMPDEST PUSH0 DUP3 DUP3 MSTORE PUSH1 0x20 DUP3 ADD SWAP1 POP SWAP3 SWAP2 POP POP JUMP JUMPDEST DUP3 DUP2 DUP4 MCOPY PUSH0 DUP4 DUP4 ADD MSTORE POP POP POP JUMP JUMPDEST PUSH0 PUSH1 0x1F NOT PUSH1 0x1F DUP4 ADD AND SWAP1 POP SWAP2 SWAP1 POP JUMP JUMPDEST PUSH0 PUSH2 0x61E DUP3 PUSH2 0x5DC JUMP JUMPDEST PUSH2 0x628 DUP2 DUP6 PUSH2 0x5E6 JUMP JUMPDEST SWAP4 POP PUSH2 0x638 DUP2 DUP6 PUSH1 0x20 DUP7 ADD PUSH2 0x5F6 JUMP JUMPDEST PUSH2 0x641 DUP2 PUSH2 0x604 JUMP JUMPDEST DUP5 ADD SWAP2 POP POP SWAP3 SWAP2 POP POP JUMP JUMPDEST PUSH0 PUSH1 0x20 DUP3 ADD SWAP1 POP DUP2 DUP2 SUB PUSH0 DUP4 ADD MSTORE PUSH2 0x664 DUP2 DUP5 PUSH2 0x614 JUMP JUMPDEST SWAP1 POP SWAP3 SWAP2 POP POP JUMP JUMPDEST PUSH2 0x675 DUP2 PUSH2 0x4F0 JUMP JUMPDEST DUP3 MSTORE POP POP JUMP JUMPDEST PUSH0 PUSH1 0x20 DUP3 ADD SWAP1 POP PUSH2 0x68E PUSH0 DUP4 ADD DUP5 PUSH2 0x66C JUMP JUMPDEST SWAP3 SWAP2 POP POP JUMP JUMPDEST PUSH0 DUP2 ISZERO ISZERO SWAP1 POP SWAP2 SWAP1 POP JUMP JUMPDEST PUSH2 0x6A8 DUP2 PUSH2 0x694 JUMP JUMPDEST DUP3 MSTORE POP POP JUMP JUMPDEST PUSH0 PUSH1 0x20 DUP3 ADD SWAP1 POP PUSH2 0x6C1 PUSH0 DUP4 ADD DUP5 PUSH2 0x69F JUMP JUMPDEST SWAP3 SWAP2 POP POP JUMP JUMPDEST PUSH32 0x5265656E7472616E742063616C6C20626C6F636B656400000000000000000000 PUSH0 DUP3 ADD MSTORE POP JUMP JUMPDEST PUSH0 PUSH2 0x6FB PUSH1 0x16 DUP4 PUSH2 0x5E6 JUMP JUMPDEST SWAP2 POP PUSH2 0x706 DUP3 PUSH2 0x6C7 JUMP JUMPDEST PUSH1 0x20 DUP3 ADD SWAP1 POP SWAP2 SWAP1 POP JUMP JUMPDEST PUSH0 PUSH1 0x20 DUP3 ADD SWAP1 POP DUP2 DUP2 SUB PUSH0 DUP4 ADD MSTORE PUSH2 0x728 DUP2 PUSH2 0x6EF JUMP JUMPDEST SWAP1 POP SWAP2 SWAP1 POP JUMP JUMPDEST PUSH32 0x496E76616C696420616D6F756E74000000000000000000000000000000000000 PUSH0 DUP3 ADD MSTORE POP JUMP JUMPDEST PUSH0 PUSH2 0x763 PUSH1 0xE DUP4 PUSH2 0x5E6 JUMP JUMPDEST SWAP2 POP PUSH2 0x76E DUP3 PUSH2 0x72F JUMP JUMPDEST PUSH1 0x20 DUP3 ADD SWAP1 POP SWAP2 SWAP1 POP JUMP JUMPDEST PUSH0 PUSH1 0x20 DUP3 ADD SWAP1 POP DUP2 DUP2 SUB PUSH0 DUP4 ADD MSTORE PUSH2 0x790 DUP2 PUSH2 0x757 JUMP JUMPDEST SWAP1 POP SWAP2 SWAP1 POP JUMP JUMPDEST PUSH32 0x4E487B7100000000000000000000000000000000000000000000000000000000 PUSH0 MSTORE PUSH1 0x11 PUSH1 0x4 MSTORE PUSH1 0x24 PUSH0 REVERT JUMPDEST PUSH0 PUSH2 0x7CE DUP3 PUSH2 0x556 JUMP JUMPDEST SWAP2 POP PUSH2 0x7D9 DUP4 PUSH2 0x556 JUMP JUMPDEST SWAP3 POP DUP3 DUP3 ADD SWAP1 POP DUP1 DUP3 GT ISZERO PUSH2 0x7F1 JUMPI PUSH2 0x7F0 PUSH2 0x797 JUMP JUMPDEST JUMPDEST SWAP3 SWAP2 POP POP JUMP JUMPDEST PUSH32 0x4E487B7100000000000000000000000000000000000000000000000000000000 PUSH0 MSTORE PUSH1 0x22 PUSH1 0x4 MSTORE PUSH1 0x24 PUSH0 REVERT JUMPDEST PUSH0 PUSH1 0x2 DUP3 DIV SWAP1 POP PUSH1 0x1 DUP3 AND DUP1 PUSH2 0x83B JUMPI PUSH1 0x7F DUP3 AND SWAP2 POP JUMPDEST PUSH1 0x20 DUP3 LT DUP2 SUB PUSH2 0x84E JUMPI PUSH2 0x84D PUSH2 0x7F7 JUMP JUMPDEST JUMPDEST POP SWAP2 SWAP1 POP JUMP JUMPDEST PUSH32 0x4E487B7100000000000000000000000000000000000000000000000000000000 PUSH0 MSTORE PUSH1 0x41 PUSH1 0x4 MSTORE PUSH1 0x24 PUSH0 REVERT JUMPDEST PUSH0 DUP2 SWAP1 POP DUP2 PUSH0 MSTORE PUSH1 0x20 PUSH0 KECCAK256 SWAP1 POP SWAP2 SWAP1 POP JUMP JUMPDEST PUSH0 PUSH1 0x20 PUSH1 0x1F DUP4 ADD DIV SWAP1 POP SWAP2 SWAP1 POP JUMP JUMPDEST PUSH0 DUP3 DUP3 SHL SWAP1 POP SWAP3 SWAP2 POP POP JUMP JUMPDEST PUSH0 PUSH1 0x8 DUP4 MUL PUSH2 0x8DD PUSH32 0xFFFFFFFFFFFFFFFFFFFFFFFFFFFFFFFFFFFFFFFFFFFFFFFFFFFFFFFFFFFFFFFF DUP3 PUSH2 0x8A2 JUMP JUMPDEST PUSH2 0x8E7 DUP7 DUP4 PUSH2 0x8A2 JUMP JUMPDEST SWAP6 POP DUP1 NOT DUP5 AND SWAP4 POP DUP1 DUP7 AND DUP5 OR SWAP3 POP POP POP SWAP4 SWAP3 POP POP POP JUMP JUMPDEST PUSH0 DUP2 SWAP1 POP SWAP2 SWAP1 POP JUMP JUMPDEST PUSH0 PUSH2 0x922 PUSH2 0x91D PUSH2 0x918 DUP5 PUSH2 0x556 JUMP JUMPDEST PUSH2 0x8FF JUMP JUMPDEST PUSH2 0x556 JUMP JUMPDEST SWAP1 POP SWAP2 SWAP1 POP JUMP JUMPDEST PUSH0 DUP2 SWAP1 POP SWAP2 SWAP1 POP JUMP JUMPDEST PUSH2 0x93B DUP4 PUSH2 0x908 JUMP JUMPDEST PUSH2 0x94F PUSH2 0x947 DUP3 PUSH2 0x929 JUMP JUMPDEST DUP5 DUP5 SLOAD PUSH2 0x8AE JUMP JUMPDEST DUP3 SSTORE POP POP POP POP JUMP JUMPDEST PUSH0 PUSH0 SWAP1 POP SWAP1 JUMP JUMPDEST PUSH2 0x966 PUSH2 0x957 JUMP JUMPDEST PUSH2 0x971 DUP2 DUP5 DUP5 PUSH2 0x932 JUMP JUMPDEST POP POP POP JUMP JUMPDEST PUSH0 JUMPDEST DUP3 DUP2 LT ISZERO PUSH2 0x997 JUMPI PUSH2 0x98C PUSH0 DUP3 DUP5 ADD PUSH2 0x95E JUMP JUMPDEST PUSH1 0x1 DUP2 ADD SWAP1 POP PUSH2 0x978 JUMP JUMPDEST POP POP POP JUMP JUMPDEST PUSH1 0x1F DUP3 GT ISZERO PUSH2 0x9EA JUMPI DUP3 DUP3 GT ISZERO PUSH2 0x9E9 JUMPI PUSH2 0x9B6 DUP2 PUSH2 0x881 JUMP JUMPDEST PUSH2 0x9BF DUP4 PUSH2 0x893 JUMP JUMPDEST PUSH2 0x9C8 DUP6 PUSH2 0x893 JUMP JUMPDEST PUSH1 0x20 DUP7 LT ISZERO PUSH2 0x9D5 JUMPI PUSH0 SWAP1 POP JUMPDEST DUP1 DUP4 ADD PUSH2 0x9E4 DUP3 DUP5 SUB DUP3 PUSH2 0x976 JUMP JUMPDEST POP POP POP POP JUMPDEST JUMPDEST POP POP POP JUMP JUMPDEST PUSH0 DUP3 DUP3 SHR SWAP1 POP SWAP3 SWAP2 POP POP JUMP JUMPDEST PUSH0 PUSH2 0xA0A PUSH0 NOT DUP5 PUSH1 0x8 MUL PUSH2 0x9EF JUMP JUMPDEST NOT DUP1 DUP4 AND SWAP2 POP POP SWAP3 SWAP2 POP POP JUMP JUMPDEST PUSH0 PUSH2 0xA22 DUP4 DUP4 PUSH2 0x9FB JUMP JUMPDEST SWAP2 POP DUP3 PUSH1 0x2 MUL DUP3 OR SWAP1 POP SWAP3 SWAP2 POP POP JUMP JUMPDEST PUSH2 0xA3B DUP3 PUSH2 0x5DC JUMP JUMPDEST PUSH8 0xFFFFFFFFFFFFFFFF DUP2 GT ISZERO PUSH2 0xA54 JUMPI PUSH2 0xA53 PUSH2 0x854 JUMP JUMPDEST JUMPDEST PUSH2 0xA5E DUP3 SLOAD PUSH2 0x824 JUMP JUMPDEST PUSH2 0xA69 DUP3 DUP3 DUP6 PUSH2 0x99C JUMP JUMPDEST PUSH0 PUSH1 0x20 SWAP1 POP PUSH1 0x1F DUP4 GT PUSH1 0x1 DUP2 EQ PUSH2 0xA9A JUMPI PUSH0 DUP5 ISZERO PUSH2 0xA88 JUMPI DUP3 DUP8 ADD MLOAD SWAP1 POP JUMPDEST PUSH2 0xA92 DUP6 DUP3 PUSH2 0xA17 JUMP JUMPDEST DUP7 SSTORE POP PUSH2 0xAF9 JUMP JUMPDEST PUSH1 0x1F NOT DUP5 AND PUSH2 0xAA8 DUP7 PUSH2 0x881 JUMP JUMPDEST PUSH0 JUMPDEST DUP3 DUP2 LT ISZERO PUSH2 0xACF JUMPI DUP5 DUP10 ADD MLOAD DUP3 SSTORE PUSH1 0x1 DUP3 ADD SWAP2 POP PUSH1 0x20 DUP6 ADD SWAP5 POP PUSH1 0x20 DUP2 ADD SWAP1 POP PUSH2 0xAAA JUMP JUMPDEST DUP7 DUP4 LT ISZERO PUSH2 0xAEC JUMPI DUP5 DUP10 ADD MLOAD PUSH2 0xAE8 PUSH1 0x1F DUP10 AND DUP3 PUSH2 0x9FB JUMP JUMPDEST DUP4 SSTORE POP JUMPDEST PUSH1 0x1 PUSH1 0x2 DUP9 MUL ADD DUP9 SSTORE POP POP POP JUMPDEST POP POP POP POP POP POP JUMP INVALID LOG2 PUSH5 0x6970667358 0x22 SLT KECCAK256 DUP9 PUSH3 0x214B9 GT CHAINID 0x23 0xB6 0xB0 MSTORE 0xC2 0xD3 0x4B DUP14 0xAA 0xEF NOT CALLF 0x61D6 PUSH6 0x318A27C1D857 EXP 0xC2 MULMOD OR PUSH5 0x736F6C6343 STOP ADDMOD 0x22 STOP CALLER "
				},
				"gasEstimates": {
					"creation": {
						"codeDepositCost": "574200",
						"executionCost": "24868",
						"totalCost": "599068"
					},
					"external": {
						"balances(address)": "2803",
						"deposit(uint256)": "infinite",
						"executionCount()": "2447",
						"failedAttempts(address)": "2825",
						"lastAction()": "infinite",
						"locked()": "2582",
						"owner()": "2507",
						"secureDeposit(uint256)": "infinite"
					}
				},
				"methodIdentifiers": {
					"balances(address)": "27e235e3",
					"deposit(uint256)": "b6b55f25",
					"executionCount()": "a17ecef3",
					"failedAttempts(address)": "32627ec7",
					"lastAction()": "89f71d53",
					"locked()": "cf309012",
					"owner()": "8da5cb5b",
					"secureDeposit(uint256)": "3a464254"
				}
			},
			"storageLayout": {
				"storage": [
					{
						"astId": 98,
						"contract": "val45.sol:PostExecutionModifier",
						"label": "owner",
						"offset": 0,
						"slot": "0",
						"type": "t_address"
					},
					{
						"astId": 100,
						"contract": "val45.sol:PostExecutionModifier",
						"label": "locked",
						"offset": 20,
						"slot": "0",
						"type": "t_bool"
					},
					{
						"astId": 102,
						"contract": "val45.sol:PostExecutionModifier",
						"label": "lastAction",
						"offset": 0,
						"slot": "1",
						"type": "t_string_storage"
					},
					{
						"astId": 106,
						"contract": "val45.sol:PostExecutionModifier",
						"label": "balances",
						"offset": 0,
						"slot": "2",
						"type": "t_mapping(t_address,t_uint256)"
					},
					{
						"astId": 108,
						"contract": "val45.sol:PostExecutionModifier",
						"label": "executionCount",
						"offset": 0,
						"slot": "3",
						"type": "t_uint256"
					},
					{
						"astId": 112,
						"contract": "val45.sol:PostExecutionModifier",
						"label": "failedAttempts",
						"offset": 0,
						"slot": "4",
						"type": "t_mapping(t_address,t_uint256)"
					}
				],
				"types": {
					"t_address": {
						"encoding": "inplace",
						"label": "address",
						"numberOfBytes": "20"
					},
					"t_bool": {
						"encoding": "inplace",
						"label": "bool",
						"numberOfBytes": "1"
					},
					"t_mapping(t_address,t_uint256)": {
						"encoding": "mapping",
						"key": "t_address",
						"label": "mapping(address => uint256)",
						"numberOfBytes": "32",
						"value": "t_uint256"
					},
					"t_string_storage": {
						"encoding": "bytes",
						"label": "string",
						"numberOfBytes": "32"
					},
					"t_uint256": {
						"encoding": "inplace",
						"label": "uint256",
						"numberOfBytes": "32"
					}
				}
			},
			"userdoc": {
				"kind": "user",
				"methods": {},
				"version": 1
			}
		}
	}
}