{
	"val82.sol": {
		"SafeProxy": {
			"abi": [
				{
					"inputs": [
						{
							"internalType": "address",
							"name": "_implementation",
							"type": "address"
						}
					],
					"stateMutability": "nonpayable",
					"type": "constructor"
				},
				{
					"anonymous": false,
					"inputs": [
						{
							"indexed": false,
							"internalType": "address",
							"name": "implementation",
							"type": "address"
						}
					],
					"name": "Upgraded",
					"type": "event"
				},
				{
					"stateMutability": "payable",
					"type": "fallback"
				},
				{
					"inputs": [],
					"name": "admin",
					"outputs": [
						{
							"internalType": "address",
							"name": "",
							"type": "address"
						}
					],
					"stateMutability": "view",
					"type": "function"
				},
				{
					"inputs": [],
					"name": "implementation",
					"outputs": [
						{
							"internalType": "address",
							"name": "",
							"type": "address"
						}
					],
					"stateMutability": "view",
					"type": "function"
				},
				{
					"inputs": [],
					"name": "owner",
					"outputs": [
						{
							"internalType": "address",
							"name": "",
							"type": "address"
						}
					],
					"stateMutability": "view",
					"type": "function"
				},
				{
					"inputs": [
						{
							"internalType": "address",
							"name": "_newImplementation",
							"type": "address"
						}
					],
					"name": "upgrade",
					"outputs": [],
					"stateMutability": "nonpayable",
					"type": "function"
				},
				{
					"inputs": [],
					"name": "value",
					"outputs": [
						{
							"internalType": "uint256",
							"name": "",
							"type": "uint256"
						}
					],
					"stateMutability": "view",
					"type": "function"
				},
				{
					"stateMutability": "payable",
					"type": "receive"
				}
			],
			"devdoc": {
				"kind": "dev",
				"methods": {},
				"version": 1
			},
			"evm": {
				"assembly": "    /* \"val82.sol\":9661:12741  contract SafeProxy {... */\n  mstore(0x40, 0x80)\n    /* \"val82.sol\":10358:10508  constructor(... */\n  callvalue\n  dup1\n  iszero\n  tag_1\n  jumpi\n  revert(0x00, 0x00)\ntag_1:\n  pop\n  mload(0x40)\n  sub(codesize, bytecodeSize)\n  dup1\n  bytecodeSize\n  dup4\n  codecopy\n  dup2\n  dup2\n  add\n  0x40\n  mstore\n  dup2\n  add\n  swap1\n  tag_2\n  swap2\n  swap1\n  tag_3\n  jump\t// in\ntag_2:\n    /* \"val82.sol\":10454:10469  _implementation */\n  dup1\n    /* \"val82.sol\":10424:10438  implementation */\n  0x02\n  0x00\n    /* \"val82.sol\":10424:10469  implementation =... */\n  0x0100\n  exp\n  dup2\n  sload\n  dup2\n  0xffffffffffffffffffffffffffffffffffffffff\n  mul\n  not\n  and\n  swap1\n  dup4\n  0xffffffffffffffffffffffffffffffffffffffff\n  and\n  mul\n  or\n  swap1\n  sstore\n  pop\n    /* \"val82.sol\":10490:10500  msg.sender */\n  caller\n    /* \"val82.sol\":10482:10487  admin */\n  0x03\n  0x00\n    /* \"val82.sol\":10482:10500  admin = msg.sender */\n  0x0100\n  exp\n  dup2\n  sload\n  dup2\n  0xffffffffffffffffffffffffffffffffffffffff\n  mul\n  not\n  and\n  swap1\n  dup4\n  0xffffffffffffffffffffffffffffffffffffffff\n  and\n  mul\n  or\n  swap1\n  sstore\n  pop\n    /* \"val82.sol\":10358:10508  constructor(... */\n  pop\n    /* \"val82.sol\":9661:12741  contract SafeProxy {... */\n  jump(tag_6)\n    /* \"#utility.yul\":88:205   */\ntag_8:\n    /* \"#utility.yul\":197:198   */\n  0x00\n    /* \"#utility.yul\":194:195   */\n  0x00\n    /* \"#utility.yul\":187:199   */\n  revert\n    /* \"#utility.yul\":334:460   */\ntag_10:\n    /* \"#utility.yul\":371:378   */\n  0x00\n    /* \"#utility.yul\":411:453   */\n  0xffffffffffffffffffffffffffffffffffffffff\n    /* \"#utility.yul\":404:409   */\n  dup3\n    /* \"#utility.yul\":400:454   */\n  and\n    /* \"#utility.yul\":389:454   */\n  swap1\n  pop\n    /* \"#utility.yul\":334:460   */\n  swap2\n  swap1\n  pop\n  jump\t// out\n    /* \"#utility.yul\":466:562   */\ntag_11:\n    /* \"#utility.yul\":503:510   */\n  0x00\n    /* \"#utility.yul\":532:556   */\n  tag_20\n    /* \"#utility.yul\":550:555   */\n  dup3\n    /* \"#utility.yul\":532:556   */\n  tag_10\n  jump\t// in\ntag_20:\n    /* \"#utility.yul\":521:556   */\n  swap1\n  pop\n    /* \"#utility.yul\":466:562   */\n  swap2\n  swap1\n  pop\n  jump\t// out\n    /* \"#utility.yul\":568:690   */\ntag_12:\n    /* \"#utility.yul\":641:665   */\n  tag_22\n    /* \"#utility.yul\":659:664   */\n  dup2\n    /* \"#utility.yul\":641:665   */\n  tag_11\n  jump\t// in\ntag_22:\n    /* \"#utility.yul\":634:639   */\n  dup2\n    /* \"#utility.yul\":631:666   */\n  eq\n    /* \"#utility.yul\":621:684   */\n  tag_23\n  jumpi\n    /* \"#utility.yul\":680:681   */\n  0x00\n    /* \"#utility.yul\":677:678   */\n  0x00\n    /* \"#utility.yul\":670:682   */\n  revert\n    /* \"#utility.yul\":621:684   */\ntag_23:\n    /* \"#utility.yul\":568:690   */\n  pop\n  jump\t// out\n    /* \"#utility.yul\":696:839   */\ntag_13:\n    /* \"#utility.yul\":753:758   */\n  0x00\n    /* \"#utility.yul\":784:790   */\n  dup2\n    /* \"#utility.yul\":778:791   */\n  mload\n    /* \"#utility.yul\":769:791   */\n  swap1\n  pop\n    /* \"#utility.yul\":800:833   */\n  tag_25\n    /* \"#utility.yul\":827:832   */\n  dup2\n    /* \"#utility.yul\":800:833   */\n  tag_12\n  jump\t// in\ntag_25:\n    /* \"#utility.yul\":696:839   */\n  swap3\n  swap2\n  pop\n  pop\n  jump\t// out\n    /* \"#utility.yul\":845:1196   */\ntag_3:\n    /* \"#utility.yul\":915:921   */\n  0x00\n    /* \"#utility.yul\":964:966   */\n  0x20\n    /* \"#utility.yul\":952:961   */\n  dup3\n    /* \"#utility.yul\":943:950   */\n  dup5\n    /* \"#utility.yul\":939:962   */\n  sub\n    /* \"#utility.yul\":935:967   */\n  slt\n    /* \"#utility.yul\":932:1051   */\n  iszero\n  tag_27\n  jumpi\n    /* \"#utility.yul\":970:1049   */\n  tag_28\n  tag_8\n  jump\t// in\ntag_28:\n    /* \"#utility.yul\":932:1051   */\ntag_27:\n    /* \"#utility.yul\":1090:1091   */\n  0x00\n    /* \"#utility.yul\":1115:1179   */\n  tag_29\n    /* \"#utility.yul\":1171:1178   */\n  dup5\n    /* \"#utility.yul\":1162:1168   */\n  dup3\n    /* \"#utility.yul\":1151:1160   */\n  dup6\n    /* \"#utility.yul\":1147:1169   */\n  add\n    /* \"#utility.yul\":1115:1179   */\n  tag_13\n  jump\t// in\ntag_29:\n    /* \"#utility.yul\":1105:1179   */\n  swap2\n  pop\n    /* \"#utility.yul\":1061:1189   */\n  pop\n    /* \"#utility.yul\":845:1196   */\n  swap3\n  swap2\n  pop\n  pop\n  jump\t// out\n    /* \"val82.sol\":9661:12741  contract SafeProxy {... */\ntag_6:\n  dataSize(sub_0)\n  dup1\n  dataOffset(sub_0)\n  0x00\n  codecopy\n  0x00\n  return\nstop\n\nsub_0: assembly {\n        /* \"val82.sol\":9661:12741  contract SafeProxy {... */\n      mstore(0x40, 0x80)\n      jumpi(tag_1, lt(calldatasize, 0x04))\n      shr(0xe0, calldataload(0x00))\n      dup1\n      0x0900f010\n      eq\n      tag_3\n      jumpi\n      dup1\n      0x3fa4f245\n      eq\n      tag_4\n      jumpi\n      dup1\n      0x5c60da1b\n      eq\n      tag_5\n      jumpi\n      dup1\n      0x8da5cb5b\n      eq\n      tag_6\n      jumpi\n      dup1\n      0xf851a440\n      eq\n      tag_7\n      jumpi\n      jump(tag_2)\n    tag_1:\n      jumpi(tag_2, calldatasize)\n        /* \"val82.sol\":11654:11665  _delegate() */\n      tag_10\n        /* \"val82.sol\":11654:11663  _delegate */\n      tag_11\n        /* \"val82.sol\":11654:11665  _delegate() */\n      jump\t// in\n    tag_10:\n        /* \"val82.sol\":9661:12741  contract SafeProxy {... */\n      stop\n    tag_2:\n        /* \"val82.sol\":11566:11577  _delegate() */\n      tag_14\n        /* \"val82.sol\":11566:11575  _delegate */\n      tag_11\n        /* \"val82.sol\":11566:11577  _delegate() */\n      jump\t// in\n    tag_14:\n        /* \"val82.sol\":9661:12741  contract SafeProxy {... */\n      stop\n        /* \"val82.sol\":10974:11346  function upgrade(... */\n    tag_3:\n      callvalue\n      dup1\n      iszero\n      tag_15\n      jumpi\n      revert(0x00, 0x00)\n    tag_15:\n      pop\n      tag_16\n      0x04\n      dup1\n      calldatasize\n      sub\n      dup2\n      add\n      swap1\n      tag_17\n      swap2\n      swap1\n      tag_18\n      jump\t// in\n    tag_17:\n      tag_19\n      jump\t// in\n    tag_16:\n      stop\n        /* \"val82.sol\":9763:9783  uint256 public value */\n    tag_4:\n      callvalue\n      dup1\n      iszero\n      tag_20\n      jumpi\n      revert(0x00, 0x00)\n    tag_20:\n      pop\n      tag_21\n      tag_22\n      jump\t// in\n    tag_21:\n      mload(0x40)\n      tag_23\n      swap2\n      swap1\n      tag_24\n      jump\t// in\n    tag_23:\n      mload(0x40)\n      dup1\n      swap2\n      sub\n      swap1\n      return\n        /* \"val82.sol\":9929:9958  address public implementation */\n    tag_5:\n      callvalue\n      dup1\n      iszero\n      tag_25\n      jumpi\n      revert(0x00, 0x00)\n    tag_25:\n      pop\n      tag_26\n      tag_27\n      jump\t// in\n    tag_26:\n      mload(0x40)\n      tag_28\n      swap2\n      swap1\n      tag_29\n      jump\t// in\n    tag_28:\n      mload(0x40)\n      dup1\n      swap2\n      sub\n      swap1\n      return\n        /* \"val82.sol\":9790:9810  address public owner */\n    tag_6:\n      callvalue\n      dup1\n      iszero\n      tag_30\n      jumpi\n      revert(0x00, 0x00)\n    tag_30:\n      pop\n      tag_31\n      tag_32\n      jump\t// in\n    tag_31:\n      mload(0x40)\n      tag_33\n      swap2\n      swap1\n      tag_29\n      jump\t// in\n    tag_33:\n      mload(0x40)\n      dup1\n      swap2\n      sub\n      swap1\n      return\n        /* \"val82.sol\":9965:9985  address public admin */\n    tag_7:\n      callvalue\n      dup1\n      iszero\n      tag_34\n      jumpi\n      revert(0x00, 0x00)\n    tag_34:\n      pop\n      tag_35\n      tag_36\n      jump\t// in\n    tag_35:\n      mload(0x40)\n      tag_37\n      swap2\n      swap1\n      tag_29\n      jump\t// in\n    tag_37:\n      mload(0x40)\n      dup1\n      swap2\n      sub\n      swap1\n      return\n        /* \"val82.sol\":11840:12738  function _delegate()... */\n    tag_11:\n        /* \"val82.sol\":11897:11909  address impl */\n      0x00\n        /* \"val82.sol\":11912:11926  implementation */\n      0x02\n      0x00\n      swap1\n      sload\n      swap1\n      0x0100\n      exp\n      swap1\n      div\n      0xffffffffffffffffffffffffffffffffffffffff\n      and\n        /* \"val82.sol\":11897:11926  address impl = implementation */\n      swap1\n      pop\n        /* \"val82.sol\":11977:11978  0 */\n      0x00\n        /* \"val82.sol\":11961:11979  impl != address(0) */\n      0xffffffffffffffffffffffffffffffffffffffff\n      and\n        /* \"val82.sol\":11961:11965  impl */\n      dup2\n        /* \"val82.sol\":11961:11979  impl != address(0) */\n      0xffffffffffffffffffffffffffffffffffffffff\n      and\n      sub\n        /* \"val82.sol\":11939:12029  require(... */\n      tag_39\n      jumpi\n      mload(0x40)\n      0x08c379a000000000000000000000000000000000000000000000000000000000\n      dup2\n      mstore\n      0x04\n      add\n      tag_40\n      swap1\n      tag_41\n      jump\t// in\n    tag_40:\n      mload(0x40)\n      dup1\n      swap2\n      sub\n      swap1\n      revert\n    tag_39:\n        /* \"val82.sol\":12085:12099  calldatasize() */\n      calldatasize\n        /* \"val82.sol\":12083:12084  0 */\n      0x00\n        /* \"val82.sol\":12081:12082  0 */\n      0x00\n        /* \"val82.sol\":12068:12101  calldatacopy(0,0,calldatasize() ) */\n      calldatacopy\n        /* \"val82.sol\":12323:12324  0 */\n      0x00\n        /* \"val82.sol\":12299:12300  0 */\n      0x00\n        /* \"val82.sol\":12262:12276  calldatasize() */\n      calldatasize\n        /* \"val82.sol\":12238:12239  0 */\n      0x00\n        /* \"val82.sol\":12211:12215  impl */\n      dup5\n        /* \"val82.sol\":12183:12188  gas() */\n      gas\n        /* \"val82.sol\":12148:12343  delegatecall(... */\n      delegatecall\n        /* \"val82.sol\":12378:12394  returndatasize() */\n      returndatasize\n        /* \"val82.sol\":12376:12377  0 */\n      0x00\n        /* \"val82.sol\":12374:12375  0 */\n      0x00\n        /* \"val82.sol\":12359:12396  returndatacopy(0,0,returndatasize() ) */\n      returndatacopy\n        /* \"val82.sol\":12419:12425  result */\n      dup1\n        /* \"val82.sol\":12446:12447  0 */\n      0x00\n        /* \"val82.sol\":12441:12572  case 0 {... */\n      dup2\n      eq\n      tag_43\n      jumpi\n        /* \"val82.sol\":12670:12686  returndatasize() */\n      returndatasize\n        /* \"val82.sol\":12646:12647  0 */\n      0x00\n        /* \"val82.sol\":12617:12705  return(... */\n      return\n        /* \"val82.sol\":12441:12572  case 0 {... */\n    tag_43:\n        /* \"val82.sol\":12522:12538  returndatasize() */\n      returndatasize\n        /* \"val82.sol\":12498:12499  0 */\n      0x00\n        /* \"val82.sol\":12469:12557  revert(... */\n      revert\n        /* \"val82.sol\":10974:11346  function upgrade(... */\n    tag_19:\n        /* \"val82.sol\":10738:10743  admin */\n      0x03\n      0x00\n      swap1\n      sload\n      swap1\n      0x0100\n      exp\n      swap1\n      div\n      0xffffffffffffffffffffffffffffffffffffffff\n      and\n        /* \"val82.sol\":10724:10743  msg.sender == admin */\n      0xffffffffffffffffffffffffffffffffffffffff\n      and\n        /* \"val82.sol\":10724:10734  msg.sender */\n      caller\n        /* \"val82.sol\":10724:10743  msg.sender == admin */\n      0xffffffffffffffffffffffffffffffffffffffff\n      and\n      eq\n        /* \"val82.sol\":10702:10780  require(... */\n      tag_45\n      jumpi\n      mload(0x40)\n      0x08c379a000000000000000000000000000000000000000000000000000000000\n      dup2\n      mstore\n      0x04\n      add\n      tag_46\n      swap1\n      tag_47\n      jump\t// in\n    tag_46:\n      mload(0x40)\n      dup1\n      swap2\n      sub\n      swap1\n      revert\n    tag_45:\n        /* \"val82.sol\":11155:11156  0 */\n      0x00\n        /* \"val82.sol\":11112:11157  _newImplementation !=... */\n      0xffffffffffffffffffffffffffffffffffffffff\n      and\n        /* \"val82.sol\":11112:11130  _newImplementation */\n      dup2\n        /* \"val82.sol\":11112:11157  _newImplementation !=... */\n      0xffffffffffffffffffffffffffffffffffffffff\n      and\n      sub\n        /* \"val82.sol\":11090:11207  require(... */\n      tag_49\n      jumpi\n      mload(0x40)\n      0x08c379a000000000000000000000000000000000000000000000000000000000\n      dup2\n      mstore\n      0x04\n      add\n      tag_50\n      swap1\n      tag_51\n      jump\t// in\n    tag_50:\n      mload(0x40)\n      dup1\n      swap2\n      sub\n      swap1\n      revert\n    tag_49:\n        /* \"val82.sol\":11250:11268  _newImplementation */\n      dup1\n        /* \"val82.sol\":11220:11234  implementation */\n      0x02\n      0x00\n        /* \"val82.sol\":11220:11268  implementation =... */\n      0x0100\n      exp\n      dup2\n      sload\n      dup2\n      0xffffffffffffffffffffffffffffffffffffffff\n      mul\n      not\n      and\n      swap1\n      dup4\n      0xffffffffffffffffffffffffffffffffffffffff\n      and\n      mul\n      or\n      swap1\n      sstore\n      pop\n        /* \"val82.sol\":11286:11338  Upgraded(... */\n      0xbc7cd75a20ee27fd9adebab32041f755214dbc6bffa90cc0225b39da2e5c2d3b\n        /* \"val82.sol\":11309:11327  _newImplementation */\n      dup2\n        /* \"val82.sol\":11286:11338  Upgraded(... */\n      mload(0x40)\n      tag_52\n      swap2\n      swap1\n      tag_29\n      jump\t// in\n    tag_52:\n      mload(0x40)\n      dup1\n      swap2\n      sub\n      swap1\n      log1\n        /* \"val82.sol\":10974:11346  function upgrade(... */\n      pop\n      jump\t// out\n        /* \"val82.sol\":9763:9783  uint256 public value */\n    tag_22:\n      sload(0x00)\n      dup2\n      jump\t// out\n        /* \"val82.sol\":9929:9958  address public implementation */\n    tag_27:\n      0x02\n      0x00\n      swap1\n      sload\n      swap1\n      0x0100\n      exp\n      swap1\n      div\n      0xffffffffffffffffffffffffffffffffffffffff\n      and\n      dup2\n      jump\t// out\n        /* \"val82.sol\":9790:9810  address public owner */\n    tag_32:\n      0x01\n      0x00\n      swap1\n      sload\n      swap1\n      0x0100\n      exp\n      swap1\n      div\n      0xffffffffffffffffffffffffffffffffffffffff\n      and\n      dup2\n      jump\t// out\n        /* \"val82.sol\":9965:9985  address public admin */\n    tag_36:\n      0x03\n      0x00\n      swap1\n      sload\n      swap1\n      0x0100\n      exp\n      swap1\n      div\n      0xffffffffffffffffffffffffffffffffffffffff\n      and\n      dup2\n      jump\t// out\n        /* \"#utility.yul\":88:205   */\n    tag_54:\n        /* \"#utility.yul\":197:198   */\n      0x00\n        /* \"#utility.yul\":194:195   */\n      0x00\n        /* \"#utility.yul\":187:199   */\n      revert\n        /* \"#utility.yul\":334:460   */\n    tag_56:\n        /* \"#utility.yul\":371:378   */\n      0x00\n        /* \"#utility.yul\":411:453   */\n      0xffffffffffffffffffffffffffffffffffffffff\n        /* \"#utility.yul\":404:409   */\n      dup3\n        /* \"#utility.yul\":400:454   */\n      and\n        /* \"#utility.yul\":389:454   */\n      swap1\n      pop\n        /* \"#utility.yul\":334:460   */\n      swap2\n      swap1\n      pop\n      jump\t// out\n        /* \"#utility.yul\":466:562   */\n    tag_57:\n        /* \"#utility.yul\":503:510   */\n      0x00\n        /* \"#utility.yul\":532:556   */\n      tag_76\n        /* \"#utility.yul\":550:555   */\n      dup3\n        /* \"#utility.yul\":532:556   */\n      tag_56\n      jump\t// in\n    tag_76:\n        /* \"#utility.yul\":521:556   */\n      swap1\n      pop\n        /* \"#utility.yul\":466:562   */\n      swap2\n      swap1\n      pop\n      jump\t// out\n        /* \"#utility.yul\":568:690   */\n    tag_58:\n        /* \"#utility.yul\":641:665   */\n      tag_78\n        /* \"#utility.yul\":659:664   */\n      dup2\n        /* \"#utility.yul\":641:665   */\n      tag_57\n      jump\t// in\n    tag_78:\n        /* \"#utility.yul\":634:639   */\n      dup2\n        /* \"#utility.yul\":631:666   */\n      eq\n        /* \"#utility.yul\":621:684   */\n      tag_79\n      jumpi\n        /* \"#utility.yul\":680:681   */\n      0x00\n        /* \"#utility.yul\":677:678   */\n      0x00\n        /* \"#utility.yul\":670:682   */\n      revert\n        /* \"#utility.yul\":621:684   */\n    tag_79:\n        /* \"#utility.yul\":568:690   */\n      pop\n      jump\t// out\n        /* \"#utility.yul\":696:835   */\n    tag_59:\n        /* \"#utility.yul\":742:747   */\n      0x00\n        /* \"#utility.yul\":780:786   */\n      dup2\n        /* \"#utility.yul\":767:787   */\n      calldataload\n        /* \"#utility.yul\":758:787   */\n      swap1\n      pop\n        /* \"#utility.yul\":796:829   */\n      tag_81\n        /* \"#utility.yul\":823:828   */\n      dup2\n        /* \"#utility.yul\":796:829   */\n      tag_58\n      jump\t// in\n    tag_81:\n        /* \"#utility.yul\":696:835   */\n      swap3\n      swap2\n      pop\n      pop\n      jump\t// out\n        /* \"#utility.yul\":841:1170   */\n    tag_18:\n        /* \"#utility.yul\":900:906   */\n      0x00\n        /* \"#utility.yul\":949:951   */\n      0x20\n        /* \"#utility.yul\":937:946   */\n      dup3\n        /* \"#utility.yul\":928:935   */\n      dup5\n        /* \"#utility.yul\":924:947   */\n      sub\n        /* \"#utility.yul\":920:952   */\n      slt\n        /* \"#utility.yul\":917:1036   */\n      iszero\n      tag_83\n      jumpi\n        /* \"#utility.yul\":955:1034   */\n      tag_84\n      tag_54\n      jump\t// in\n    tag_84:\n        /* \"#utility.yul\":917:1036   */\n    tag_83:\n        /* \"#utility.yul\":1075:1076   */\n      0x00\n        /* \"#utility.yul\":1100:1153   */\n      tag_85\n        /* \"#utility.yul\":1145:1152   */\n      dup5\n        /* \"#utility.yul\":1136:1142   */\n      dup3\n        /* \"#utility.yul\":1125:1134   */\n      dup6\n        /* \"#utility.yul\":1121:1143   */\n      add\n        /* \"#utility.yul\":1100:1153   */\n      tag_59\n      jump\t// in\n    tag_85:\n        /* \"#utility.yul\":1090:1153   */\n      swap2\n      pop\n        /* \"#utility.yul\":1046:1163   */\n      pop\n        /* \"#utility.yul\":841:1170   */\n      swap3\n      swap2\n      pop\n      pop\n      jump\t// out\n        /* \"#utility.yul\":1176:1253   */\n    tag_60:\n        /* \"#utility.yul\":1213:1220   */\n      0x00\n        /* \"#utility.yul\":1242:1247   */\n      dup2\n        /* \"#utility.yul\":1231:1247   */\n      swap1\n      pop\n        /* \"#utility.yul\":1176:1253   */\n      swap2\n      swap1\n      pop\n      jump\t// out\n        /* \"#utility.yul\":1259:1377   */\n    tag_61:\n        /* \"#utility.yul\":1346:1370   */\n      tag_88\n        /* \"#utility.yul\":1364:1369   */\n      dup2\n        /* \"#utility.yul\":1346:1370   */\n      tag_60\n      jump\t// in\n    tag_88:\n        /* \"#utility.yul\":1341:1344   */\n      dup3\n        /* \"#utility.yul\":1334:1371   */\n      mstore\n        /* \"#utility.yul\":1259:1377   */\n      pop\n      pop\n      jump\t// out\n        /* \"#utility.yul\":1383:1605   */\n    tag_24:\n        /* \"#utility.yul\":1476:1480   */\n      0x00\n        /* \"#utility.yul\":1514:1516   */\n      0x20\n        /* \"#utility.yul\":1503:1512   */\n      dup3\n        /* \"#utility.yul\":1499:1517   */\n      add\n        /* \"#utility.yul\":1491:1517   */\n      swap1\n      pop\n        /* \"#utility.yul\":1527:1598   */\n      tag_90\n        /* \"#utility.yul\":1595:1596   */\n      0x00\n        /* \"#utility.yul\":1584:1593   */\n      dup4\n        /* \"#utility.yul\":1580:1597   */\n      add\n        /* \"#utility.yul\":1571:1577   */\n      dup5\n        /* \"#utility.yul\":1527:1598   */\n      tag_61\n      jump\t// in\n    tag_90:\n        /* \"#utility.yul\":1383:1605   */\n      swap3\n      swap2\n      pop\n      pop\n      jump\t// out\n        /* \"#utility.yul\":1611:1729   */\n    tag_62:\n        /* \"#utility.yul\":1698:1722   */\n      tag_92\n        /* \"#utility.yul\":1716:1721   */\n      dup2\n        /* \"#utility.yul\":1698:1722   */\n      tag_57\n      jump\t// in\n    tag_92:\n        /* \"#utility.yul\":1693:1696   */\n      dup3\n        /* \"#utility.yul\":1686:1723   */\n      mstore\n        /* \"#utility.yul\":1611:1729   */\n      pop\n      pop\n      jump\t// out\n        /* \"#utility.yul\":1735:1957   */\n    tag_29:\n        /* \"#utility.yul\":1828:1832   */\n      0x00\n        /* \"#utility.yul\":1866:1868   */\n      0x20\n        /* \"#utility.yul\":1855:1864   */\n      dup3\n        /* \"#utility.yul\":1851:1869   */\n      add\n        /* \"#utility.yul\":1843:1869   */\n      swap1\n      pop\n        /* \"#utility.yul\":1879:1950   */\n      tag_94\n        /* \"#utility.yul\":1947:1948   */\n      0x00\n        /* \"#utility.yul\":1936:1945   */\n      dup4\n        /* \"#utility.yul\":1932:1949   */\n      add\n        /* \"#utility.yul\":1923:1929   */\n      dup5\n        /* \"#utility.yul\":1879:1950   */\n      tag_62\n      jump\t// in\n    tag_94:\n        /* \"#utility.yul\":1735:1957   */\n      swap3\n      swap2\n      pop\n      pop\n      jump\t// out\n        /* \"#utility.yul\":1963:2132   */\n    tag_63:\n        /* \"#utility.yul\":2047:2058   */\n      0x00\n        /* \"#utility.yul\":2081:2087   */\n      dup3\n        /* \"#utility.yul\":2076:2079   */\n      dup3\n        /* \"#utility.yul\":2069:2088   */\n      mstore\n        /* \"#utility.yul\":2121:2125   */\n      0x20\n        /* \"#utility.yul\":2116:2119   */\n      dup3\n        /* \"#utility.yul\":2112:2126   */\n      add\n        /* \"#utility.yul\":2097:2126   */\n      swap1\n      pop\n        /* \"#utility.yul\":1963:2132   */\n      swap3\n      swap2\n      pop\n      pop\n      jump\t// out\n        /* \"#utility.yul\":2138:2310   */\n    tag_64:\n        /* \"#utility.yul\":2278:2302   */\n      0x496d706c656d656e746174696f6e206d697373696e6700000000000000000000\n        /* \"#utility.yul\":2274:2275   */\n      0x00\n        /* \"#utility.yul\":2266:2272   */\n      dup3\n        /* \"#utility.yul\":2262:2276   */\n      add\n        /* \"#utility.yul\":2255:2303   */\n      mstore\n        /* \"#utility.yul\":2138:2310   */\n      pop\n      jump\t// out\n        /* \"#utility.yul\":2316:2682   */\n    tag_65:\n        /* \"#utility.yul\":2458:2461   */\n      0x00\n        /* \"#utility.yul\":2479:2546   */\n      tag_98\n        /* \"#utility.yul\":2543:2545   */\n      0x16\n        /* \"#utility.yul\":2538:2541   */\n      dup4\n        /* \"#utility.yul\":2479:2546   */\n      tag_63\n      jump\t// in\n    tag_98:\n        /* \"#utility.yul\":2472:2546   */\n      swap2\n      pop\n        /* \"#utility.yul\":2555:2648   */\n      tag_99\n        /* \"#utility.yul\":2644:2647   */\n      dup3\n        /* \"#utility.yul\":2555:2648   */\n      tag_64\n      jump\t// in\n    tag_99:\n        /* \"#utility.yul\":2673:2675   */\n      0x20\n        /* \"#utility.yul\":2668:2671   */\n      dup3\n        /* \"#utility.yul\":2664:2676   */\n      add\n        /* \"#utility.yul\":2657:2676   */\n      swap1\n      pop\n        /* \"#utility.yul\":2316:2682   */\n      swap2\n      swap1\n      pop\n      jump\t// out\n        /* \"#utility.yul\":2688:3107   */\n    tag_41:\n        /* \"#utility.yul\":2854:2858   */\n      0x00\n        /* \"#utility.yul\":2892:2894   */\n      0x20\n        /* \"#utility.yul\":2881:2890   */\n      dup3\n        /* \"#utility.yul\":2877:2895   */\n      add\n        /* \"#utility.yul\":2869:2895   */\n      swap1\n      pop\n        /* \"#utility.yul\":2941:2950   */\n      dup2\n        /* \"#utility.yul\":2935:2939   */\n      dup2\n        /* \"#utility.yul\":2931:2951   */\n      sub\n        /* \"#utility.yul\":2927:2928   */\n      0x00\n        /* \"#utility.yul\":2916:2925   */\n      dup4\n        /* \"#utility.yul\":2912:2929   */\n      add\n        /* \"#utility.yul\":2905:2952   */\n      mstore\n        /* \"#utility.yul\":2969:3100   */\n      tag_101\n        /* \"#utility.yul\":3095:3099   */\n      dup2\n        /* \"#utility.yul\":2969:3100   */\n      tag_65\n      jump\t// in\n    tag_101:\n        /* \"#utility.yul\":2961:3100   */\n      swap1\n      pop\n        /* \"#utility.yul\":2688:3107   */\n      swap2\n      swap1\n      pop\n      jump\t// out\n        /* \"#utility.yul\":3113:3272   */\n    tag_66:\n        /* \"#utility.yul\":3253:3264   */\n      0x4e6f742061646d696e0000000000000000000000000000000000000000000000\n        /* \"#utility.yul\":3249:3250   */\n      0x00\n        /* \"#utility.yul\":3241:3247   */\n      dup3\n        /* \"#utility.yul\":3237:3251   */\n      add\n        /* \"#utility.yul\":3230:3265   */\n      mstore\n        /* \"#utility.yul\":3113:3272   */\n      pop\n      jump\t// out\n        /* \"#utility.yul\":3278:3643   */\n    tag_67:\n        /* \"#utility.yul\":3420:3423   */\n      0x00\n        /* \"#utility.yul\":3441:3507   */\n      tag_104\n        /* \"#utility.yul\":3505:3506   */\n      0x09\n        /* \"#utility.yul\":3500:3503   */\n      dup4\n        /* \"#utility.yul\":3441:3507   */\n      tag_63\n      jump\t// in\n    tag_104:\n        /* \"#utility.yul\":3434:3507   */\n      swap2\n      pop\n        /* \"#utility.yul\":3516:3609   */\n      tag_105\n        /* \"#utility.yul\":3605:3608   */\n      dup3\n        /* \"#utility.yul\":3516:3609   */\n      tag_66\n      jump\t// in\n    tag_105:\n        /* \"#utility.yul\":3634:3636   */\n      0x20\n        /* \"#utility.yul\":3629:3632   */\n      dup3\n        /* \"#utility.yul\":3625:3637   */\n      add\n        /* \"#utility.yul\":3618:3637   */\n      swap1\n      pop\n        /* \"#utility.yul\":3278:3643   */\n      swap2\n      swap1\n      pop\n      jump\t// out\n        /* \"#utility.yul\":3649:4068   */\n    tag_47:\n        /* \"#utility.yul\":3815:3819   */\n      0x00\n        /* \"#utility.yul\":3853:3855   */\n      0x20\n        /* \"#utility.yul\":3842:3851   */\n      dup3\n        /* \"#utility.yul\":3838:3856   */\n      add\n        /* \"#utility.yul\":3830:3856   */\n      swap1\n      pop\n        /* \"#utility.yul\":3902:3911   */\n      dup2\n        /* \"#utility.yul\":3896:3900   */\n      dup2\n        /* \"#utility.yul\":3892:3912   */\n      sub\n        /* \"#utility.yul\":3888:3889   */\n      0x00\n        /* \"#utility.yul\":3877:3886   */\n      dup4\n        /* \"#utility.yul\":3873:3890   */\n      add\n        /* \"#utility.yul\":3866:3913   */\n      mstore\n        /* \"#utility.yul\":3930:4061   */\n      tag_107\n        /* \"#utility.yul\":4056:4060   */\n      dup2\n        /* \"#utility.yul\":3930:4061   */\n      tag_67\n      jump\t// in\n    tag_107:\n        /* \"#utility.yul\":3922:4061   */\n      swap1\n      pop\n        /* \"#utility.yul\":3649:4068   */\n      swap2\n      swap1\n      pop\n      jump\t// out\n        /* \"#utility.yul\":4074:4246   */\n    tag_68:\n        /* \"#utility.yul\":4214:4238   */\n      0x496e76616c696420696d706c656d656e746174696f6e00000000000000000000\n        /* \"#utility.yul\":4210:4211   */\n      0x00\n        /* \"#utility.yul\":4202:4208   */\n      dup3\n        /* \"#utility.yul\":4198:4212   */\n      add\n        /* \"#utility.yul\":4191:4239   */\n      mstore\n        /* \"#utility.yul\":4074:4246   */\n      pop\n      jump\t// out\n        /* \"#utility.yul\":4252:4618   */\n    tag_69:\n        /* \"#utility.yul\":4394:4397   */\n      0x00\n        /* \"#utility.yul\":4415:4482   */\n      tag_110\n        /* \"#utility.yul\":4479:4481   */\n      0x16\n        /* \"#utility.yul\":4474:4477   */\n      dup4\n        /* \"#utility.yul\":4415:4482   */\n      tag_63\n      jump\t// in\n    tag_110:\n        /* \"#utility.yul\":4408:4482   */\n      swap2\n      pop\n        /* \"#utility.yul\":4491:4584   */\n      tag_111\n        /* \"#utility.yul\":4580:4583   */\n      dup3\n        /* \"#utility.yul\":4491:4584   */\n      tag_68\n      jump\t// in\n    tag_111:\n        /* \"#utility.yul\":4609:4611   */\n      0x20\n        /* \"#utility.yul\":4604:4607   */\n      dup3\n        /* \"#utility.yul\":4600:4612   */\n      add\n        /* \"#utility.yul\":4593:4612   */\n      swap1\n      pop\n        /* \"#utility.yul\":4252:4618   */\n      swap2\n      swap1\n      pop\n      jump\t// out\n        /* \"#utility.yul\":4624:5043   */\n    tag_51:\n        /* \"#utility.yul\":4790:4794   */\n      0x00\n        /* \"#utility.yul\":4828:4830   */\n      0x20\n        /* \"#utility.yul\":4817:4826   */\n      dup3\n        /* \"#utility.yul\":4813:4831   */\n      add\n        /* \"#utility.yul\":4805:4831   */\n      swap1\n      pop\n        /* \"#utility.yul\":4877:4886   */\n      dup2\n        /* \"#utility.yul\":4871:4875   */\n      dup2\n        /* \"#utility.yul\":4867:4887   */\n      sub\n        /* \"#utility.yul\":4863:4864   */\n      0x00\n        /* \"#utility.yul\":4852:4861   */\n      dup4\n        /* \"#utility.yul\":4848:4865   */\n      add\n        /* \"#utility.yul\":4841:4888   */\n      mstore\n        /* \"#utility.yul\":4905:5036   */\n      tag_113\n        /* \"#utility.yul\":5031:5035   */\n      dup2\n        /* \"#utility.yul\":4905:5036   */\n      tag_69\n      jump\t// in\n    tag_113:\n        /* \"#utility.yul\":4897:5036   */\n      swap1\n      pop\n        /* \"#utility.yul\":4624:5043   */\n      swap2\n      swap1\n      pop\n      jump\t// out\n\n    auxdata: 0xa26469706673582212204263bce36567546d2ff52ac4b53b2f681f00ab3ca69a265de37e0f965c1288f764736f6c63430008220033\n}\n",
				"bytecode": {
					"linkReferences": {},
					"object": "608060405234801561000f575f5ffd5b5060405161078038038061078083398181016040528101906100319190610115565b8060025f6101000a81548173ffffffffffffffffffffffffffffffffffffffff021916908373ffffffffffffffffffffffffffffffffffffffff1602179055503360035f6101000a81548173ffffffffffffffffffffffffffffffffffffffff021916908373ffffffffffffffffffffffffffffffffffffffff16021790555050610140565b5f5ffd5b5f73ffffffffffffffffffffffffffffffffffffffff82169050919050565b5f6100e4826100bb565b9050919050565b6100f4816100da565b81146100fe575f5ffd5b50565b5f8151905061010f816100eb565b92915050565b5f6020828403121561012a576101296100b7565b5b5f61013784828501610101565b91505092915050565b6106338061014d5f395ff3fe60806040526004361061004d575f3560e01c80630900f010146100665780633fa4f2451461008e5780635c60da1b146100b85780638da5cb5b146100e2578063f851a4401461010c5761005c565b3661005c5761005a610136565b005b610064610136565b005b348015610071575f5ffd5b5061008c60048036038101906100879190610431565b6101e8565b005b348015610099575f5ffd5b506100a261035f565b6040516100af9190610474565b60405180910390f35b3480156100c3575f5ffd5b506100cc610364565b6040516100d9919061049c565b60405180910390f35b3480156100ed575f5ffd5b506100f6610389565b604051610103919061049c565b60405180910390f35b348015610117575f5ffd5b506101206103ae565b60405161012d919061049c565b60405180910390f35b5f60025f9054906101000a900473ffffffffffffffffffffffffffffffffffffffff1690505f73ffffffffffffffffffffffffffffffffffffffff168173ffffffffffffffffffffffffffffffffffffffff16036101c9576040517f08c379a00000000000000000000000000000000000000000000000000000000081526004016101c09061050f565b60405180910390fd5b365f5f375f5f365f845af43d5f5f3e805f81146101e4573d5ff35b3d5ffd5b60035f9054906101000a900473ffffffffffffffffffffffffffffffffffffffff1673ffffffffffffffffffffffffffffffffffffffff163373ffffffffffffffffffffffffffffffffffffffff1614610277576040517f08c379a000000000000000000000000000000000000000000000000000000000815260040161026e90610577565b60405180910390fd5b5f73ffffffffffffffffffffffffffffffffffffffff168173ffffffffffffffffffffffffffffffffffffffff16036102e5576040517f08c379a00000000000000000000000000000000000000000000000000000000081526004016102dc906105df565b60405180910390fd5b8060025f6101000a81548173ffffffffffffffffffffffffffffffffffffffff021916908373ffffffffffffffffffffffffffffffffffffffff1602179055507fbc7cd75a20ee27fd9adebab32041f755214dbc6bffa90cc0225b39da2e5c2d3b81604051610354919061049c565b60405180910390a150565b5f5481565b60025f9054906101000a900473ffffffffffffffffffffffffffffffffffffffff1681565b60015f9054906101000a900473ffffffffffffffffffffffffffffffffffffffff1681565b60035f9054906101000a900473ffffffffffffffffffffffffffffffffffffffff1681565b5f5ffd5b5f73ffffffffffffffffffffffffffffffffffffffff82169050919050565b5f610400826103d7565b9050919050565b610410816103f6565b811461041a575f5ffd5b50565b5f8135905061042b81610407565b92915050565b5f60208284031215610446576104456103d3565b5b5f6104538482850161041d565b91505092915050565b5f819050919050565b61046e8161045c565b82525050565b5f6020820190506104875f830184610465565b92915050565b610496816103f6565b82525050565b5f6020820190506104af5f83018461048d565b92915050565b5f82825260208201905092915050565b7f496d706c656d656e746174696f6e206d697373696e67000000000000000000005f82015250565b5f6104f96016836104b5565b9150610504826104c5565b602082019050919050565b5f6020820190508181035f830152610526816104ed565b9050919050565b7f4e6f742061646d696e00000000000000000000000000000000000000000000005f82015250565b5f6105616009836104b5565b915061056c8261052d565b602082019050919050565b5f6020820190508181035f83015261058e81610555565b9050919050565b7f496e76616c696420696d706c656d656e746174696f6e000000000000000000005f82015250565b5f6105c96016836104b5565b91506105d482610595565b602082019050919050565b5f6020820190508181035f8301526105f6816105bd565b905091905056fea26469706673582212204263bce36567546d2ff52ac4b53b2f681f00ab3ca69a265de37e0f965c1288f764736f6c63430008220033",
					"opcodes": "PUSH1 0x80 PUSH1 0x40 MSTORE CALLVALUE DUP1 ISZERO PUSH2 0xF JUMPI PUSH0 PUSH0 REVERT JUMPDEST POP PUSH1 0x40 MLOAD PUSH2 0x780 CODESIZE SUB DUP1 PUSH2 0x780 DUP4 CODECOPY DUP2 DUP2 ADD PUSH1 0x40 MSTORE DUP2 ADD SWAP1 PUSH2 0x31 SWAP2 SWAP1 PUSH2 0x115 JUMP JUMPDEST DUP1 PUSH1 0x2 PUSH0 PUSH2 0x100 EXP DUP2 SLOAD DUP2 PUSH20 0xFFFFFFFFFFFFFFFFFFFFFFFFFFFFFFFFFFFFFFFF MUL NOT AND SWAP1 DUP4 PUSH20 0xFFFFFFFFFFFFFFFFFFFFFFFFFFFFFFFFFFFFFFFF AND MUL OR SWAP1 SSTORE POP CALLER PUSH1 0x3 PUSH0 PUSH2 0x100 EXP DUP2 SLOAD DUP2 PUSH20 0xFFFFFFFFFFFFFFFFFFFFFFFFFFFFFFFFFFFFFFFF MUL NOT AND SWAP1 DUP4 PUSH20 0xFFFFFFFFFFFFFFFFFFFFFFFFFFFFFFFFFFFFFFFF AND MUL OR SWAP1 SSTORE POP POP PUSH2 0x140 JUMP JUMPDEST PUSH0 PUSH0 REVERT JUMPDEST PUSH0 PUSH20 0xFFFFFFFFFFFFFFFFFFFFFFFFFFFFFFFFFFFFFFFF DUP3 AND SWAP1 POP SWAP2 SWAP1 POP JUMP JUMPDEST PUSH0 PUSH2 0xE4 DUP3 PUSH2 0xBB JUMP JUMPDEST SWAP1 POP SWAP2 SWAP1 POP JUMP JUMPDEST PUSH2 0xF4 DUP2 PUSH2 0xDA JUMP JUMPDEST DUP2 EQ PUSH2 0xFE JUMPI PUSH0 PUSH0 REVERT JUMPDEST POP JUMP JUMPDEST PUSH0 DUP2 MLOAD SWAP1 POP PUSH2 0x10F DUP2 PUSH2 0xEB JUMP JUMPDEST SWAP3 SWAP2 POP POP JUMP JUMPDEST PUSH0 PUSH1 0x20 DUP3 DUP5 SUB SLT ISZERO PUSH2 0x12A JUMPI PUSH2 0x129 PUSH2 0xB7 JUMP JUMPDEST JUMPDEST PUSH0 PUSH2 0x137 DUP5 DUP3 DUP6 ADD PUSH2 0x101 JUMP JUMPDEST SWAP2 POP POP SWAP3 SWAP2 POP POP JUMP JUMPDEST PUSH2 0x633 DUP1 PUSH2 0x14D PUSH0 CODECOPY PUSH0 RETURN INVALID PUSH1 0x80 PUSH1 0x40 MSTORE PUSH1 0x4 CALLDATASIZE LT PUSH2 0x4D JUMPI PUSH0 CALLDATALOAD PUSH1 0xE0 SHR DUP1 PUSH4 0x900F010 EQ PUSH2 0x66 JUMPI DUP1 PUSH4 0x3FA4F245 EQ PUSH2 0x8E JUMPI DUP1 PUSH4 0x5C60DA1B EQ PUSH2 0xB8 JUMPI DUP1 PUSH4 0x8DA5CB5B EQ PUSH2 0xE2 JUMPI DUP1 PUSH4 0xF851A440 EQ PUSH2 0x10C JUMPI PUSH2 0x5C JUMP JUMPDEST CALLDATASIZE PUSH2 0x5C JUMPI PUSH2 0x5A PUSH2 0x136 JUMP JUMPDEST STOP JUMPDEST PUSH2 0x64 PUSH2 0x136 JUMP JUMPDEST STOP JUMPDEST CALLVALUE DUP1 ISZERO PUSH2 0x71 JUMPI PUSH0 PUSH0 REVERT JUMPDEST POP PUSH2 0x8C PUSH1 0x4 DUP1 CALLDATASIZE SUB DUP2 ADD SWAP1 PUSH2 0x87 SWAP2 SWAP1 PUSH2 0x431 JUMP JUMPDEST PUSH2 0x1E8 JUMP JUMPDEST STOP JUMPDEST CALLVALUE DUP1 ISZERO PUSH2 0x99 JUMPI PUSH0 PUSH0 REVERT JUMPDEST POP PUSH2 0xA2 PUSH2 0x35F JUMP JUMPDEST PUSH1 0x40 MLOAD PUSH2 0xAF SWAP2 SWAP1 PUSH2 0x474 JUMP JUMPDEST PUSH1 0x40 MLOAD DUP1 SWAP2 SUB SWAP1 RETURN JUMPDEST CALLVALUE DUP1 ISZERO PUSH2 0xC3 JUMPI PUSH0 PUSH0 REVERT JUMPDEST POP PUSH2 0xCC PUSH2 0x364 JUMP JUMPDEST PUSH1 0x40 MLOAD PUSH2 0xD9 SWAP2 SWAP1 PUSH2 0x49C JUMP JUMPDEST PUSH1 0x40 MLOAD DUP1 SWAP2 SUB SWAP1 RETURN JUMPDEST CALLVALUE DUP1 ISZERO PUSH2 0xED JUMPI PUSH0 PUSH0 REVERT JUMPDEST POP PUSH2 0xF6 PUSH2 0x389 JUMP JUMPDEST PUSH1 0x40 MLOAD PUSH2 0x103 SWAP2 SWAP1 PUSH2 0x49C JUMP JUMPDEST PUSH1 0x40 MLOAD DUP1 SWAP2 SUB SWAP1 RETURN JUMPDEST CALLVALUE DUP1 ISZERO PUSH2 0x117 JUMPI PUSH0 PUSH0 REVERT JUMPDEST POP PUSH2 0x120 PUSH2 0x3AE JUMP JUMPDEST PUSH1 0x40 MLOAD PUSH2 0x12D SWAP2 SWAP1 PUSH2 0x49C JUMP JUMPDEST PUSH1 0x40 MLOAD DUP1 SWAP2 SUB SWAP1 RETURN JUMPDEST PUSH0 PUSH1 0x2 PUSH0 SWAP1 SLOAD SWAP1 PUSH2 0x100 EXP SWAP1 DIV PUSH20 0xFFFFFFFFFFFFFFFFFFFFFFFFFFFFFFFFFFFFFFFF AND SWAP1 POP PUSH0 PUSH20 0xFFFFFFFFFFFFFFFFFFFFFFFFFFFFFFFFFFFFFFFF AND DUP2 PUSH20 0xFFFFFFFFFFFFFFFFFFFFFFFFFFFFFFFFFFFFFFFF AND SUB PUSH2 0x1C9 JUMPI PUSH1 0x40 MLOAD PUSH32 0x8C379A000000000000000000000000000000000000000000000000000000000 DUP2 MSTORE PUSH1 0x4 ADD PUSH2 0x1C0 SWAP1 PUSH2 0x50F JUMP JUMPDEST PUSH1 0x40 MLOAD DUP1 SWAP2 SUB SWAP1 REVERT JUMPDEST CALLDATASIZE PUSH0 PUSH0 CALLDATACOPY PUSH0 PUSH0 CALLDATASIZE PUSH0 DUP5 GAS DELEGATECALL RETURNDATASIZE PUSH0 PUSH0 RETURNDATACOPY DUP1 PUSH0 DUP2 EQ PUSH2 0x1E4 JUMPI RETURNDATASIZE PUSH0 RETURN JUMPDEST RETURNDATASIZE PUSH0 REVERT JUMPDEST PUSH1 0x3 PUSH0 SWAP1 SLOAD SWAP1 PUSH2 0x100 EXP SWAP1 DIV PUSH20 0xFFFFFFFFFFFFFFFFFFFFFFFFFFFFFFFFFFFFFFFF AND PUSH20 0xFFFFFFFFFFFFFFFFFFFFFFFFFFFFFFFFFFFFFFFF AND CALLER PUSH20 0xFFFFFFFFFFFFFFFFFFFFFFFFFFFFFFFFFFFFFFFF AND EQ PUSH2 0x277 JUMPI PUSH1 0x40 MLOAD PUSH32 0x8C379A000000000000000000000000000000000000000000000000000000000 DUP2 MSTORE PUSH1 0x4 ADD PUSH2 0x26E SWAP1 PUSH2 0x577 JUMP JUMPDEST PUSH1 0x40 MLOAD DUP1 SWAP2 SUB SWAP1 REVERT JUMPDEST PUSH0 PUSH20 0xFFFFFFFFFFFFFFFFFFFFFFFFFFFFFFFFFFFFFFFF AND DUP2 PUSH20 0xFFFFFFFFFFFFFFFFFFFFFFFFFFFFFFFFFFFFFFFF AND SUB PUSH2 0x2E5 JUMPI PUSH1 0x40 MLOAD PUSH32 0x8C379A000000000000000000000000000000000000000000000000000000000 DUP2 MSTORE PUSH1 0x4 ADD PUSH2 0x2DC SWAP1 PUSH2 0x5DF JUMP JUMPDEST PUSH1 0x40 MLOAD DUP1 SWAP2 SUB SWAP1 REVERT JUMPDEST DUP1 PUSH1 0x2 PUSH0 PUSH2 0x100 EXP DUP2 SLOAD DUP2 PUSH20 0xFFFFFFFFFFFFFFFFFFFFFFFFFFFFFFFFFFFFFFFF MUL NOT AND SWAP1 DUP4 PUSH20 0xFFFFFFFFFFFFFFFFFFFFFFFFFFFFFFFFFFFFFFFF AND MUL OR SWAP1 SSTORE POP PUSH32 0xBC7CD75A20EE27FD9ADEBAB32041F755214DBC6BFFA90CC0225B39DA2E5C2D3B DUP2 PUSH1 0x40 MLOAD PUSH2 0x354 SWAP2 SWAP1 PUSH2 0x49C JUMP JUMPDEST PUSH1 0x40 MLOAD DUP1 SWAP2 SUB SWAP1 LOG1 POP JUMP JUMPDEST PUSH0 SLOAD DUP2 JUMP JUMPDEST PUSH1 0x2 PUSH0 SWAP1 SLOAD SWAP1 PUSH2 0x100 EXP SWAP1 DIV PUSH20 0xFFFFFFFFFFFFFFFFFFFFFFFFFFFFFFFFFFFFFFFF AND DUP2 JUMP JUMPDEST PUSH1 0x1 PUSH0 SWAP1 SLOAD SWAP1 PUSH2 0x100 EXP SWAP1 DIV PUSH20 0xFFFFFFFFFFFFFFFFFFFFFFFFFFFFFFFFFFFFFFFF AND DUP2 JUMP JUMPDEST PUSH1 0x3 PUSH0 SWAP1 SLOAD SWAP1 PUSH2 0x100 EXP SWAP1 DIV PUSH20 0xFFFFFFFFFFFFFFFFFFFFFFFFFFFFFFFFFFFFFFFF AND DUP2 JUMP JUMPDEST PUSH0 PUSH0 REVERT JUMPDEST PUSH0 PUSH20 0xFFFFFFFFFFFFFFFFFFFFFFFFFFFFFFFFFFFFFFFF DUP3 AND SWAP1 POP SWAP2 SWAP1 POP JUMP JUMPDEST PUSH0 PUSH2 0x400 DUP3 PUSH2 0x3D7 JUMP JUMPDEST SWAP1 POP SWAP2 SWAP1 POP JUMP JUMPDEST PUSH2 0x410 DUP2 PUSH2 0x3F6 JUMP JUMPDEST DUP2 EQ PUSH2 0x41A JUMPI PUSH0 PUSH0 REVERT JUMPDEST POP JUMP JUMPDEST PUSH0 DUP2 CALLDATALOAD SWAP1 POP PUSH2 0x42B DUP2 PUSH2 0x407 JUMP JUMPDEST SWAP3 SWAP2 POP POP JUMP JUMPDEST PUSH0 PUSH1 0x20 DUP3 DUP5 SUB SLT ISZERO PUSH2 0x446 JUMPI PUSH2 0x445 PUSH2 0x3D3 JUMP JUMPDEST JUMPDEST PUSH0 PUSH2 0x453 DUP5 DUP3 DUP6 ADD PUSH2 0x41D JUMP JUMPDEST SWAP2 POP POP SWAP3 SWAP2 POP POP JUMP JUMPDEST PUSH0 DUP2 SWAP1 POP SWAP2 SWAP1 POP JUMP JUMPDEST PUSH2 0x46E DUP2 PUSH2 0x45C JUMP JUMPDEST DUP3 MSTORE POP POP JUMP JUMPDEST PUSH0 PUSH1 0x20 DUP3 ADD SWAP1 POP PUSH2 0x487 PUSH0 DUP4 ADD DUP5 PUSH2 0x465 JUMP JUMPDEST SWAP3 SWAP2 POP POP JUMP JUMPDEST PUSH2 0x496 DUP2 PUSH2 0x3F6 JUMP JUMPDEST DUP3 MSTORE POP POP JUMP JUMPDEST PUSH0 PUSH1 0x20 DUP3 ADD SWAP1 POP PUSH2 0x4AF PUSH0 DUP4 ADD DUP5 PUSH2 0x48D JUMP JUMPDEST SWAP3 SWAP2 POP POP JUMP JUMPDEST PUSH0 DUP3 DUP3 MSTORE PUSH1 0x20 DUP3 ADD SWAP1 POP SWAP3 SWAP2 POP POP JUMP JUMPDEST PUSH32 0x496D706C656D656E746174696F6E206D697373696E6700000000000000000000 PUSH0 DUP3 ADD MSTORE POP JUMP JUMPDEST PUSH0 PUSH2 0x4F9 PUSH1 0x16 DUP4 PUSH2 0x4B5 JUMP JUMPDEST SWAP2 POP PUSH2 0x504 DUP3 PUSH2 0x4C5 JUMP JUMPDEST PUSH1 0x20 DUP3 ADD SWAP1 POP SWAP2 SWAP1 POP JUMP JUMPDEST PUSH0 PUSH1 0x20 DUP3 ADD SWAP1 POP DUP2 DUP2 SUB PUSH0 DUP4 ADD MSTORE PUSH2 0x526 DUP2 PUSH2 0x4ED JUMP JUMPDEST SWAP1 POP SWAP2 SWAP1 POP JUMP JUMPDEST PUSH32 0x4E6F742061646D696E0000000000000000000000000000000000000000000000 PUSH0 DUP3 ADD MSTORE POP JUMP JUMPDEST PUSH0 PUSH2 0x561 PUSH1 0x9 DUP4 PUSH2 0x4B5 JUMP JUMPDEST SWAP2 POP PUSH2 0x56C DUP3 PUSH2 0x52D JUMP JUMPDEST PUSH1 0x20 DUP3 ADD SWAP1 POP SWAP2 SWAP1 POP JUMP JUMPDEST PUSH0 PUSH1 0x20 DUP3 ADD SWAP1 POP DUP2 DUP2 SUB PUSH0 DUP4 ADD MSTORE PUSH2 0x58E DUP2 PUSH2 0x555 JUMP JUMPDEST SWAP1 POP SWAP2 SWAP1 POP JUMP JUMPDEST PUSH32 0x496E76616C696420696D706C656D656E746174696F6E00000000000000000000 PUSH0 DUP3 ADD MSTORE POP JUMP JUMPDEST PUSH0 PUSH2 0x5C9 PUSH1 0x16 DUP4 PUSH2 0x4B5 JUMP JUMPDEST SWAP2 POP PUSH2 0x5D4 DUP3 PUSH2 0x595 JUMP JUMPDEST PUSH1 0x20 DUP3 ADD SWAP1 POP SWAP2 SWAP1 POP JUMP JUMPDEST PUSH0 PUSH1 0x20 DUP3 ADD SWAP1 POP DUP2 DUP2 SUB PUSH0 DUP4 ADD MSTORE PUSH2 0x5F6 DUP2 PUSH2 0x5BD JUMP JUMPDEST SWAP1 POP SWAP2 SWAP1 POP JUMP INVALID LOG2 PUSH5 0x6970667358 0x22 SLT KECCAK256 TIMESTAMP PUSH4 0xBCE36567 SLOAD PUSH14 0x2FF52AC4B53B2F681F00AB3CA69A 0x26 TSTORE CALLF 0x7E0F SWAP7 TLOAD SLT DUP9 0xF7 PUSH5 0x736F6C6343 STOP ADDMOD 0x22 STOP CALLER "
				},
				"gasEstimates": {
					"creation": {
						"codeDepositCost": "317400",
						"executionCost": "infinite",
						"totalCost": "infinite"
					},
					"external": {
						"": "infinite",
						"admin()": "2574",
						"implementation()": "2530",
						"owner()": "2552",
						"upgrade(address)": "infinite",
						"value()": "2424"
					},
					"internal": {
						"_delegate()": "infinite"
					}
				},
				"methodIdentifiers": {
					"admin()": "f851a440",
					"implementation()": "5c60da1b",
					"owner()": "8da5cb5b",
					"upgrade(address)": "0900f010",
					"value()": "3fa4f245"
				}
			},
			"storageLayout": {
				"storage": [
					{
						"astId": 206,
						"contract": "val82.sol:SafeProxy",
						"label": "value",
						"offset": 0,
						"slot": "0",
						"type": "t_uint256"
					},
					{
						"astId": 208,
						"contract": "val82.sol:SafeProxy",
						"label": "owner",
						"offset": 0,
						"slot": "1",
						"type": "t_address"
					},
					{
						"astId": 210,
						"contract": "val82.sol:SafeProxy",
						"label": "initialized",
						"offset": 20,
						"slot": "1",
						"type": "t_bool"
					},
					{
						"astId": 212,
						"contract": "val82.sol:SafeProxy",
						"label": "implementation",
						"offset": 0,
						"slot": "2",
						"type": "t_address"
					},
					{
						"astId": 214,
						"contract": "val82.sol:SafeProxy",
						"label": "admin",
						"offset": 0,
						"slot": "3",
						"type": "t_address"
					}
				],
				"types": {
					"t_address": {
						"encoding": "inplace",
						"label": "address",
						"numberOfBytes": "20"
					},
					"t_bool": {
						"encoding": "inplace",
						"label": "bool",
						"numberOfBytes": "1"
					},
					"t_uint256": {
						"encoding": "inplace",
						"label": "uint256",
						"numberOfBytes": "32"
					}
				}
			},
			"userdoc": {
				"kind": "user",
				"methods": {},
				"version": 1
			}
		}
	}
}