{
	"val58.sol": {
		"ReentryTester": {
			"abi": [
				{
					"inputs": [
						{
							"internalType": "address",
							"name": "_target",
							"type": "address"
						}
					],
					"stateMutability": "nonpayable",
					"type": "constructor"
				},
				{
					"anonymous": false,
					"inputs": [],
					"name": "AttackFailed",
					"type": "event"
				},
				{
					"anonymous": false,
					"inputs": [
						{
							"indexed": false,
							"internalType": "address",
							"name": "attacker",
							"type": "address"
						}
					],
					"name": "AttackStarted",
					"type": "event"
				},
				{
					"anonymous": false,
					"inputs": [
						{
							"indexed": false,
							"internalType": "uint256",
							"name": "totalReentries",
							"type": "uint256"
						}
					],
					"name": "AttackSucceeded",
					"type": "event"
				},
				{
					"anonymous": false,
					"inputs": [
						{
							"indexed": false,
							"internalType": "uint256",
							"name": "attackNumber",
							"type": "uint256"
						}
					],
					"name": "Reentered",
					"type": "event"
				},
				{
					"inputs": [],
					"name": "MAX_ATTACKS",
					"outputs": [
						{
							"internalType": "uint256",
							"name": "",
							"type": "uint256"
						}
					],
					"stateMutability": "view",
					"type": "function"
				},
				{
					"inputs": [],
					"name": "attacSafe",
					"outputs": [],
					"stateMutability": "nonpayable",
					"type": "function"
				},
				{
					"inputs": [],
					"name": "attackCounter",
					"outputs": [
						{
							"internalType": "uint256",
							"name": "",
							"type": "uint256"
						}
					],
					"stateMutability": "view",
					"type": "function"
				},
				{
					"inputs": [],
					"name": "attackVulnerable",
					"outputs": [],
					"stateMutability": "nonpayable",
					"type": "function"
				},
				{
					"inputs": [],
					"name": "depositToTarget",
					"outputs": [],
					"stateMutability": "payable",
					"type": "function"
				},
				{
					"inputs": [],
					"name": "target",
					"outputs": [
						{
							"internalType": "contract SafeBank",
							"name": "",
							"type": "address"
						}
					],
					"stateMutability": "view",
					"type": "function"
				},
				{
					"stateMutability": "payable",
					"type": "receive"
				}
			],
			"devdoc": {
				"kind": "dev",
				"methods": {},
				"version": 1
			},
			"evm": {
				"assembly": "    /* \"val58.sol\":19947:22133  contract ReentryTester {... */\n  mstore(0x40, 0x80)\n    /* \"val58.sol\":20443:20524  constructor(address _target)... */\n  callvalue\n  dup1\n  iszero\n  tag_1\n  jumpi\n  revert(0x00, 0x00)\ntag_1:\n  pop\n  mload(0x40)\n  sub(codesize, bytecodeSize)\n  dup1\n  bytecodeSize\n  dup4\n  codecopy\n  dup2\n  dup2\n  add\n  0x40\n  mstore\n  dup2\n  add\n  swap1\n  tag_2\n  swap2\n  swap1\n  tag_3\n  jump\t// in\ntag_2:\n    /* \"val58.sol\":20508:20515  _target */\n  dup1\n    /* \"val58.sol\":20490:20496  target */\n  0x00\n  0x00\n    /* \"val58.sol\":20490:20516  target = SafeBank(_target) */\n  0x0100\n  exp\n  dup2\n  sload\n  dup2\n  0xffffffffffffffffffffffffffffffffffffffff\n  mul\n  not\n  and\n  swap1\n  dup4\n  0xffffffffffffffffffffffffffffffffffffffff\n  and\n  mul\n  or\n  swap1\n  sstore\n  pop\n    /* \"val58.sol\":20443:20524  constructor(address _target)... */\n  pop\n    /* \"val58.sol\":19947:22133  contract ReentryTester {... */\n  jump(tag_6)\n    /* \"#utility.yul\":88:205   */\ntag_8:\n    /* \"#utility.yul\":197:198   */\n  0x00\n    /* \"#utility.yul\":194:195   */\n  0x00\n    /* \"#utility.yul\":187:199   */\n  revert\n    /* \"#utility.yul\":334:460   */\ntag_10:\n    /* \"#utility.yul\":371:378   */\n  0x00\n    /* \"#utility.yul\":411:453   */\n  0xffffffffffffffffffffffffffffffffffffffff\n    /* \"#utility.yul\":404:409   */\n  dup3\n    /* \"#utility.yul\":400:454   */\n  and\n    /* \"#utility.yul\":389:454   */\n  swap1\n  pop\n    /* \"#utility.yul\":334:460   */\n  swap2\n  swap1\n  pop\n  jump\t// out\n    /* \"#utility.yul\":466:562   */\ntag_11:\n    /* \"#utility.yul\":503:510   */\n  0x00\n    /* \"#utility.yul\":532:556   */\n  tag_20\n    /* \"#utility.yul\":550:555   */\n  dup3\n    /* \"#utility.yul\":532:556   */\n  tag_10\n  jump\t// in\ntag_20:\n    /* \"#utility.yul\":521:556   */\n  swap1\n  pop\n    /* \"#utility.yul\":466:562   */\n  swap2\n  swap1\n  pop\n  jump\t// out\n    /* \"#utility.yul\":568:690   */\ntag_12:\n    /* \"#utility.yul\":641:665   */\n  tag_22\n    /* \"#utility.yul\":659:664   */\n  dup2\n    /* \"#utility.yul\":641:665   */\n  tag_11\n  jump\t// in\ntag_22:\n    /* \"#utility.yul\":634:639   */\n  dup2\n    /* \"#utility.yul\":631:666   */\n  eq\n    /* \"#utility.yul\":621:684   */\n  tag_23\n  jumpi\n    /* \"#utility.yul\":680:681   */\n  0x00\n    /* \"#utility.yul\":677:678   */\n  0x00\n    /* \"#utility.yul\":670:682   */\n  revert\n    /* \"#utility.yul\":621:684   */\ntag_23:\n    /* \"#utility.yul\":568:690   */\n  pop\n  jump\t// out\n    /* \"#utility.yul\":696:839   */\ntag_13:\n    /* \"#utility.yul\":753:758   */\n  0x00\n    /* \"#utility.yul\":784:790   */\n  dup2\n    /* \"#utility.yul\":778:791   */\n  mload\n    /* \"#utility.yul\":769:791   */\n  swap1\n  pop\n    /* \"#utility.yul\":800:833   */\n  tag_25\n    /* \"#utility.yul\":827:832   */\n  dup2\n    /* \"#utility.yul\":800:833   */\n  tag_12\n  jump\t// in\ntag_25:\n    /* \"#utility.yul\":696:839   */\n  swap3\n  swap2\n  pop\n  pop\n  jump\t// out\n    /* \"#utility.yul\":845:1196   */\ntag_3:\n    /* \"#utility.yul\":915:921   */\n  0x00\n    /* \"#utility.yul\":964:966   */\n  0x20\n    /* \"#utility.yul\":952:961   */\n  dup3\n    /* \"#utility.yul\":943:950   */\n  dup5\n    /* \"#utility.yul\":939:962   */\n  sub\n    /* \"#utility.yul\":935:967   */\n  slt\n    /* \"#utility.yul\":932:1051   */\n  iszero\n  tag_27\n  jumpi\n    /* \"#utility.yul\":970:1049   */\n  tag_28\n  tag_8\n  jump\t// in\ntag_28:\n    /* \"#utility.yul\":932:1051   */\ntag_27:\n    /* \"#utility.yul\":1090:1091   */\n  0x00\n    /* \"#utility.yul\":1115:1179   */\n  tag_29\n    /* \"#utility.yul\":1171:1178   */\n  dup5\n    /* \"#utility.yul\":1162:1168   */\n  dup3\n    /* \"#utility.yul\":1151:1160   */\n  dup6\n    /* \"#utility.yul\":1147:1169   */\n  add\n    /* \"#utility.yul\":1115:1179   */\n  tag_13\n  jump\t// in\ntag_29:\n    /* \"#utility.yul\":1105:1179   */\n  swap2\n  pop\n    /* \"#utility.yul\":1061:1189   */\n  pop\n    /* \"#utility.yul\":845:1196   */\n  swap3\n  swap2\n  pop\n  pop\n  jump\t// out\n    /* \"val58.sol\":19947:22133  contract ReentryTester {... */\ntag_6:\n  dataSize(sub_0)\n  dup1\n  dataOffset(sub_0)\n  0x00\n  codecopy\n  0x00\n  return\nstop\n\nsub_0: assembly {\n        /* \"val58.sol\":19947:22133  contract ReentryTester {... */\n      mstore(0x40, 0x80)\n      jumpi(tag_1, lt(calldatasize, 0x04))\n      shr(0xe0, calldataload(0x00))\n      dup1\n      0x2631a7c6\n      eq\n      tag_3\n      jumpi\n      dup1\n      0x4d6a7baa\n      eq\n      tag_4\n      jumpi\n      dup1\n      0x64bf5dcb\n      eq\n      tag_5\n      jumpi\n      dup1\n      0x67a3fde8\n      eq\n      tag_6\n      jumpi\n      dup1\n      0xb36303fe\n      eq\n      tag_7\n      jumpi\n      dup1\n      0xd4b83992\n      eq\n      tag_8\n      jumpi\n      jump(tag_2)\n    tag_1:\n      jumpi(tag_2, calldatasize)\n        /* \"val58.sol\":21619:21632  attackCounter */\n      0x01\n      0x00\n        /* \"val58.sol\":21619:21634  attackCounter++ */\n      dup2\n      sload\n      dup1\n      swap3\n      swap2\n      swap1\n      tag_11\n      swap1\n      tag_12\n      jump\t// in\n    tag_11:\n      swap2\n      swap1\n      pop\n      sstore\n      pop\n        /* \"val58.sol\":21652:21676  Reentered(attackCounter) */\n      0xfe490e4ff15fdf52613fd81ee11eb3c5e4480db700591894a5dec8ecb498bbc7\n        /* \"val58.sol\":21662:21675  attackCounter */\n      sload(0x01)\n        /* \"val58.sol\":21652:21676  Reentered(attackCounter) */\n      mload(0x40)\n      tag_13\n      swap2\n      swap1\n      tag_14\n      jump\t// in\n    tag_13:\n      mload(0x40)\n      dup1\n      swap2\n      sub\n      swap1\n      log1\n        /* \"val58.sol\":21794:21801  1 ether */\n      0x0de0b6b3a7640000\n        /* \"val58.sol\":21775:21781  target */\n      0x00\n      0x00\n      swap1\n      sload\n      swap1\n      0x0100\n      exp\n      swap1\n      div\n      0xffffffffffffffffffffffffffffffffffffffff\n      and\n        /* \"val58.sol\":21767:21790  address(target).balance */\n      0xffffffffffffffffffffffffffffffffffffffff\n      and\n      balance\n        /* \"val58.sol\":21767:21801  address(target).balance >= 1 ether */\n      lt\n      iszero\n        /* \"val58.sol\":21767:21832  address(target).balance >= 1 ether && attackCounter < MAX_ATTACKS */\n      dup1\n      iszero\n      tag_15\n      jumpi\n      pop\n        /* \"val58.sol\":20204:20205  3 */\n      0x03\n        /* \"val58.sol\":21805:21818  attackCounter */\n      sload(0x01)\n        /* \"val58.sol\":21805:21832  attackCounter < MAX_ATTACKS */\n      lt\n        /* \"val58.sol\":21767:21832  address(target).balance >= 1 ether && attackCounter < MAX_ATTACKS */\n    tag_15:\n        /* \"val58.sol\":21749:22123  if (... */\n      iszero\n      tag_16\n      jumpi\n        /* \"val58.sol\":21993:21999  target */\n      0x00\n      0x00\n      swap1\n      sload\n      swap1\n      0x0100\n      exp\n      swap1\n      div\n      0xffffffffffffffffffffffffffffffffffffffff\n      and\n        /* \"val58.sol\":21993:22018  target.vulnerableWithdraw */\n      0xffffffffffffffffffffffffffffffffffffffff\n      and\n      0xcc817673\n        /* \"val58.sol\":22019:22026  1 ether */\n      0x0de0b6b3a7640000\n        /* \"val58.sol\":21993:22027  target.vulnerableWithdraw(1 ether) */\n      mload(0x40)\n      dup3\n      0xffffffff\n      and\n      0xe0\n      shl\n      dup2\n      mstore\n      0x04\n      add\n      tag_17\n      swap2\n      swap1\n      tag_18\n      jump\t// in\n    tag_17:\n      0x00\n      mload(0x40)\n      dup1\n      dup4\n      sub\n      dup2\n      0x00\n      dup8\n      dup1\n      extcodesize\n      iszero\n      dup1\n      iszero\n      tag_19\n      jumpi\n      revert(0x00, 0x00)\n    tag_19:\n      pop\n      gas\n      call\n      swap3\n      pop\n      pop\n      pop\n      dup1\n      iszero\n      tag_20\n      jumpi\n      pop\n      0x01\n    tag_20:\n        /* \"val58.sol\":21989:22112  try target.vulnerableWithdraw(1 ether)  {... */\n      tag_21\n      jumpi\n        /* \"val58.sol\":22082:22096  AttackFailed() */\n      0xadc0bdc1f2b12281171d3eff2dfcfe4657af4c61a8e57a97990f8edf68a09cf0\n      mload(0x40)\n      mload(0x40)\n      dup1\n      swap2\n      sub\n      swap1\n      log1\n        /* \"val58.sol\":21989:22112  try target.vulnerableWithdraw(1 ether)  {... */\n      jump(tag_25)\n    tag_21:\n    tag_25:\n        /* \"val58.sol\":21749:22123  if (... */\n    tag_16:\n        /* \"val58.sol\":19947:22133  contract ReentryTester {... */\n      stop\n    tag_2:\n      revert(0x00, 0x00)\n        /* \"val58.sol\":20104:20132  uint256 public attackCounter */\n    tag_3:\n      callvalue\n      dup1\n      iszero\n      tag_26\n      jumpi\n      revert(0x00, 0x00)\n    tag_26:\n      pop\n      tag_27\n      tag_28\n      jump\t// in\n    tag_27:\n      mload(0x40)\n      tag_29\n      swap2\n      swap1\n      tag_14\n      jump\t// in\n    tag_29:\n      mload(0x40)\n      dup1\n      swap2\n      sub\n      swap1\n      return\n        /* \"val58.sol\":21209:21356  function attacSafe() external {... */\n    tag_4:\n      callvalue\n      dup1\n      iszero\n      tag_30\n      jumpi\n      revert(0x00, 0x00)\n    tag_30:\n      pop\n      tag_31\n      tag_32\n      jump\t// in\n    tag_31:\n      stop\n        /* \"val58.sol\":20693:20815  function depositToTarget()... */\n    tag_5:\n      tag_33\n      tag_34\n      jump\t// in\n    tag_33:\n      stop\n        /* \"val58.sol\":20858:21045  function attackVulnerable() external ... */\n    tag_6:\n      callvalue\n      dup1\n      iszero\n      tag_35\n      jumpi\n      revert(0x00, 0x00)\n    tag_35:\n      pop\n      tag_36\n      tag_37\n      jump\t// in\n    tag_36:\n      stop\n        /* \"val58.sol\":20166:20205  uint256 public constant MAX_ATTACKS = 3 */\n    tag_7:\n      callvalue\n      dup1\n      iszero\n      tag_38\n      jumpi\n      revert(0x00, 0x00)\n    tag_38:\n      pop\n      tag_39\n      tag_40\n      jump\t// in\n    tag_39:\n      mload(0x40)\n      tag_41\n      swap2\n      swap1\n      tag_14\n      jump\t// in\n    tag_41:\n      mload(0x40)\n      dup1\n      swap2\n      sub\n      swap1\n      return\n        /* \"val58.sol\":20025:20047  SafeBank public target */\n    tag_8:\n      callvalue\n      dup1\n      iszero\n      tag_42\n      jumpi\n      revert(0x00, 0x00)\n    tag_42:\n      pop\n      tag_43\n      tag_44\n      jump\t// in\n    tag_43:\n      mload(0x40)\n      tag_45\n      swap2\n      swap1\n      tag_46\n      jump\t// in\n    tag_45:\n      mload(0x40)\n      dup1\n      swap2\n      sub\n      swap1\n      return\n        /* \"val58.sol\":20104:20132  uint256 public attackCounter */\n    tag_28:\n      sload(0x01)\n      dup2\n      jump\t// out\n        /* \"val58.sol\":21209:21356  function attacSafe() external {... */\n    tag_32:\n        /* \"val58.sol\":21253:21278  AttackStarted(msg.sender) */\n      0xce47de3ada8bbc7bfa5119dcccfa33a2a79fc932531d5ece6a80a32547f0b7a3\n        /* \"val58.sol\":21267:21277  msg.sender */\n      caller\n        /* \"val58.sol\":21253:21278  AttackStarted(msg.sender) */\n      mload(0x40)\n      tag_48\n      swap2\n      swap1\n      tag_49\n      jump\t// in\n    tag_48:\n      mload(0x40)\n      dup1\n      swap2\n      sub\n      swap1\n      log1\n        /* \"val58.sol\":21289:21295  target */\n      0x00\n      0x00\n      swap1\n      sload\n      swap1\n      0x0100\n      exp\n      swap1\n      div\n      0xffffffffffffffffffffffffffffffffffffffff\n      and\n        /* \"val58.sol\":21289:21304  target.withdraw */\n      0xffffffffffffffffffffffffffffffffffffffff\n      and\n      0x2e1a7d4d\n        /* \"val58.sol\":21305:21312  1 ether */\n      0x0de0b6b3a7640000\n        /* \"val58.sol\":21289:21313  target.withdraw(1 ether) */\n      mload(0x40)\n      dup3\n      0xffffffff\n      and\n      0xe0\n      shl\n      dup2\n      mstore\n      0x04\n      add\n      tag_50\n      swap2\n      swap1\n      tag_18\n      jump\t// in\n    tag_50:\n      0x00\n      mload(0x40)\n      dup1\n      dup4\n      sub\n      dup2\n      0x00\n      dup8\n      dup1\n      extcodesize\n      iszero\n      dup1\n      iszero\n      tag_51\n      jumpi\n      revert(0x00, 0x00)\n    tag_51:\n      pop\n      gas\n      call\n      swap3\n      pop\n      pop\n      pop\n      dup1\n      iszero\n      tag_52\n      jumpi\n      pop\n      0x01\n    tag_52:\n        /* \"val58.sol\":21285:21353  try target.withdraw(1 ether) {} ... */\n      tag_53\n      jumpi\n        /* \"val58.sol\":21336:21350  AttackFailed() */\n      0xadc0bdc1f2b12281171d3eff2dfcfe4657af4c61a8e57a97990f8edf68a09cf0\n      mload(0x40)\n      mload(0x40)\n      dup1\n      swap2\n      sub\n      swap1\n      log1\n        /* \"val58.sol\":21285:21353  try target.withdraw(1 ether) {} ... */\n      jump(tag_57)\n    tag_53:\n    tag_57:\n        /* \"val58.sol\":21209:21356  function attacSafe() external {... */\n      jump\t// out\n        /* \"val58.sol\":20693:20815  function depositToTarget()... */\n    tag_34:\n        /* \"val58.sol\":20773:20779  target */\n      0x00\n      0x00\n      swap1\n      sload\n      swap1\n      0x0100\n      exp\n      swap1\n      div\n      0xffffffffffffffffffffffffffffffffffffffff\n      and\n        /* \"val58.sol\":20773:20787  target.deposit */\n      0xffffffffffffffffffffffffffffffffffffffff\n      and\n      0xd0e30db0\n        /* \"val58.sol\":20795:20804  msg.value */\n      callvalue\n        /* \"val58.sol\":20773:20807  target.deposit{value: msg.value}() */\n      mload(0x40)\n      dup3\n      0xffffffff\n      and\n      0xe0\n      shl\n      dup2\n      mstore\n      0x04\n      add\n      0x00\n      mload(0x40)\n      dup1\n      dup4\n      sub\n      dup2\n      dup6\n      dup9\n      dup1\n      extcodesize\n      iszero\n      dup1\n      iszero\n      tag_59\n      jumpi\n      revert(0x00, 0x00)\n    tag_59:\n      pop\n      gas\n      call\n      iszero\n      dup1\n      iszero\n      tag_61\n      jumpi\n      returndatacopy(0x00, 0x00, returndatasize)\n      revert(0x00, returndatasize)\n    tag_61:\n      pop\n      pop\n      pop\n      pop\n      pop\n        /* \"val58.sol\":20693:20815  function depositToTarget()... */\n      jump\t// out\n        /* \"val58.sol\":20858:21045  function attackVulnerable() external ... */\n    tag_37:\n        /* \"val58.sol\":20917:20942  AttackStarted(msg.sender) */\n      0xce47de3ada8bbc7bfa5119dcccfa33a2a79fc932531d5ece6a80a32547f0b7a3\n        /* \"val58.sol\":20931:20941  msg.sender */\n      caller\n        /* \"val58.sol\":20917:20942  AttackStarted(msg.sender) */\n      mload(0x40)\n      tag_63\n      swap2\n      swap1\n      tag_49\n      jump\t// in\n    tag_63:\n      mload(0x40)\n      dup1\n      swap2\n      sub\n      swap1\n      log1\n        /* \"val58.sol\":20955:20961  target */\n      0x00\n      0x00\n      swap1\n      sload\n      swap1\n      0x0100\n      exp\n      swap1\n      div\n      0xffffffffffffffffffffffffffffffffffffffff\n      and\n        /* \"val58.sol\":20955:20980  target.vulnerableWithdraw */\n      0xffffffffffffffffffffffffffffffffffffffff\n      and\n      0xcc817673\n        /* \"val58.sol\":20981:20988  1 ether */\n      0x0de0b6b3a7640000\n        /* \"val58.sol\":20955:20989  target.vulnerableWithdraw(1 ether) */\n      mload(0x40)\n      dup3\n      0xffffffff\n      and\n      0xe0\n      shl\n      dup2\n      mstore\n      0x04\n      add\n      tag_64\n      swap2\n      swap1\n      tag_18\n      jump\t// in\n    tag_64:\n      0x00\n      mload(0x40)\n      dup1\n      dup4\n      sub\n      dup2\n      0x00\n      dup8\n      dup1\n      extcodesize\n      iszero\n      dup1\n      iszero\n      tag_65\n      jumpi\n      revert(0x00, 0x00)\n    tag_65:\n      pop\n      gas\n      call\n      iszero\n      dup1\n      iszero\n      tag_67\n      jumpi\n      returndatacopy(0x00, 0x00, returndatasize)\n      revert(0x00, returndatasize)\n    tag_67:\n      pop\n      pop\n      pop\n      pop\n        /* \"val58.sol\":21007:21037  AttackSucceeded(attackCounter) */\n      0x87bdb4bdd764b85bcc2ac8c46ee07b3880e73be114fd9ab5c4dc42f45dd6cb16\n        /* \"val58.sol\":21023:21036  attackCounter */\n      sload(0x01)\n        /* \"val58.sol\":21007:21037  AttackSucceeded(attackCounter) */\n      mload(0x40)\n      tag_68\n      swap2\n      swap1\n      tag_14\n      jump\t// in\n    tag_68:\n      mload(0x40)\n      dup1\n      swap2\n      sub\n      swap1\n      log1\n        /* \"val58.sol\":20858:21045  function attackVulnerable() external ... */\n      jump\t// out\n        /* \"val58.sol\":20166:20205  uint256 public constant MAX_ATTACKS = 3 */\n    tag_40:\n        /* \"val58.sol\":20204:20205  3 */\n      0x03\n        /* \"val58.sol\":20166:20205  uint256 public constant MAX_ATTACKS = 3 */\n      dup2\n      jump\t// out\n        /* \"val58.sol\":20025:20047  SafeBank public target */\n    tag_44:\n      0x00\n      0x00\n      swap1\n      sload\n      swap1\n      0x0100\n      exp\n      swap1\n      div\n      0xffffffffffffffffffffffffffffffffffffffff\n      and\n      dup2\n      jump\t// out\n        /* \"#utility.yul\":7:187   */\n    tag_69:\n        /* \"#utility.yul\":55:132   */\n      0x4e487b7100000000000000000000000000000000000000000000000000000000\n        /* \"#utility.yul\":52:53   */\n      0x00\n        /* \"#utility.yul\":45:133   */\n      mstore\n        /* \"#utility.yul\":152:156   */\n      0x11\n        /* \"#utility.yul\":149:150   */\n      0x04\n        /* \"#utility.yul\":142:157   */\n      mstore\n        /* \"#utility.yul\":176:180   */\n      0x24\n        /* \"#utility.yul\":173:174   */\n      0x00\n        /* \"#utility.yul\":166:181   */\n      revert\n        /* \"#utility.yul\":193:270   */\n    tag_70:\n        /* \"#utility.yul\":230:237   */\n      0x00\n        /* \"#utility.yul\":259:264   */\n      dup2\n        /* \"#utility.yul\":248:264   */\n      swap1\n      pop\n        /* \"#utility.yul\":193:270   */\n      swap2\n      swap1\n      pop\n      jump\t// out\n        /* \"#utility.yul\":276:509   */\n    tag_12:\n        /* \"#utility.yul\":315:318   */\n      0x00\n        /* \"#utility.yul\":338:362   */\n      tag_87\n        /* \"#utility.yul\":356:361   */\n      dup3\n        /* \"#utility.yul\":338:362   */\n      tag_70\n      jump\t// in\n    tag_87:\n        /* \"#utility.yul\":329:362   */\n      swap2\n      pop\n        /* \"#utility.yul\":384:450   */\n      0xffffffffffffffffffffffffffffffffffffffffffffffffffffffffffffffff\n        /* \"#utility.yul\":377:382   */\n      dup3\n        /* \"#utility.yul\":374:451   */\n      sub\n        /* \"#utility.yul\":371:474   */\n      tag_88\n      jumpi\n        /* \"#utility.yul\":454:472   */\n      tag_89\n      tag_69\n      jump\t// in\n    tag_89:\n        /* \"#utility.yul\":371:474   */\n    tag_88:\n        /* \"#utility.yul\":501:502   */\n      0x01\n        /* \"#utility.yul\":494:499   */\n      dup3\n        /* \"#utility.yul\":490:503   */\n      add\n        /* \"#utility.yul\":483:503   */\n      swap1\n      pop\n        /* \"#utility.yul\":276:509   */\n      swap2\n      swap1\n      pop\n      jump\t// out\n        /* \"#utility.yul\":515:633   */\n    tag_71:\n        /* \"#utility.yul\":602:626   */\n      tag_91\n        /* \"#utility.yul\":620:625   */\n      dup2\n        /* \"#utility.yul\":602:626   */\n      tag_70\n      jump\t// in\n    tag_91:\n        /* \"#utility.yul\":597:600   */\n      dup3\n        /* \"#utility.yul\":590:627   */\n      mstore\n        /* \"#utility.yul\":515:633   */\n      pop\n      pop\n      jump\t// out\n        /* \"#utility.yul\":639:861   */\n    tag_14:\n        /* \"#utility.yul\":732:736   */\n      0x00\n        /* \"#utility.yul\":770:772   */\n      0x20\n        /* \"#utility.yul\":759:768   */\n      dup3\n        /* \"#utility.yul\":755:773   */\n      add\n        /* \"#utility.yul\":747:773   */\n      swap1\n      pop\n        /* \"#utility.yul\":783:854   */\n      tag_93\n        /* \"#utility.yul\":851:852   */\n      0x00\n        /* \"#utility.yul\":840:849   */\n      dup4\n        /* \"#utility.yul\":836:853   */\n      add\n        /* \"#utility.yul\":827:833   */\n      dup5\n        /* \"#utility.yul\":783:854   */\n      tag_71\n      jump\t// in\n    tag_93:\n        /* \"#utility.yul\":639:861   */\n      swap3\n      swap2\n      pop\n      pop\n      jump\t// out\n        /* \"#utility.yul\":867:970   */\n    tag_72:\n        /* \"#utility.yul\":930:937   */\n      0x00\n        /* \"#utility.yul\":959:964   */\n      dup2\n        /* \"#utility.yul\":948:964   */\n      swap1\n      pop\n        /* \"#utility.yul\":867:970   */\n      swap2\n      swap1\n      pop\n      jump\t// out\n        /* \"#utility.yul\":976:1036   */\n    tag_73:\n        /* \"#utility.yul\":1004:1007   */\n      0x00\n        /* \"#utility.yul\":1025:1030   */\n      dup2\n        /* \"#utility.yul\":1018:1030   */\n      swap1\n      pop\n        /* \"#utility.yul\":976:1036   */\n      swap2\n      swap1\n      pop\n      jump\t// out\n        /* \"#utility.yul\":1042:1236   */\n    tag_74:\n        /* \"#utility.yul\":1118:1127   */\n      0x00\n        /* \"#utility.yul\":1151:1230   */\n      tag_97\n        /* \"#utility.yul\":1169:1229   */\n      tag_98\n        /* \"#utility.yul\":1178:1228   */\n      tag_99\n        /* \"#utility.yul\":1222:1227   */\n      dup5\n        /* \"#utility.yul\":1178:1228   */\n      tag_72\n      jump\t// in\n    tag_99:\n        /* \"#utility.yul\":1169:1229   */\n      tag_73\n      jump\t// in\n    tag_98:\n        /* \"#utility.yul\":1151:1230   */\n      tag_70\n      jump\t// in\n    tag_97:\n        /* \"#utility.yul\":1138:1230   */\n      swap1\n      pop\n        /* \"#utility.yul\":1042:1236   */\n      swap2\n      swap1\n      pop\n      jump\t// out\n        /* \"#utility.yul\":1242:1425   */\n    tag_75:\n        /* \"#utility.yul\":1355:1418   */\n      tag_101\n        /* \"#utility.yul\":1412:1417   */\n      dup2\n        /* \"#utility.yul\":1355:1418   */\n      tag_74\n      jump\t// in\n    tag_101:\n        /* \"#utility.yul\":1350:1353   */\n      dup3\n        /* \"#utility.yul\":1343:1419   */\n      mstore\n        /* \"#utility.yul\":1242:1425   */\n      pop\n      pop\n      jump\t// out\n        /* \"#utility.yul\":1431:1705   */\n    tag_18:\n        /* \"#utility.yul\":1550:1554   */\n      0x00\n        /* \"#utility.yul\":1588:1590   */\n      0x20\n        /* \"#utility.yul\":1577:1586   */\n      dup3\n        /* \"#utility.yul\":1573:1591   */\n      add\n        /* \"#utility.yul\":1565:1591   */\n      swap1\n      pop\n        /* \"#utility.yul\":1601:1698   */\n      tag_103\n        /* \"#utility.yul\":1695:1696   */\n      0x00\n        /* \"#utility.yul\":1684:1693   */\n      dup4\n        /* \"#utility.yul\":1680:1697   */\n      add\n        /* \"#utility.yul\":1671:1677   */\n      dup5\n        /* \"#utility.yul\":1601:1698   */\n      tag_75\n      jump\t// in\n    tag_103:\n        /* \"#utility.yul\":1431:1705   */\n      swap3\n      swap2\n      pop\n      pop\n      jump\t// out\n        /* \"#utility.yul\":1711:1837   */\n    tag_76:\n        /* \"#utility.yul\":1748:1755   */\n      0x00\n        /* \"#utility.yul\":1788:1830   */\n      0xffffffffffffffffffffffffffffffffffffffff\n        /* \"#utility.yul\":1781:1786   */\n      dup3\n        /* \"#utility.yul\":1777:1831   */\n      and\n        /* \"#utility.yul\":1766:1831   */\n      swap1\n      pop\n        /* \"#utility.yul\":1711:1837   */\n      swap2\n      swap1\n      pop\n      jump\t// out\n        /* \"#utility.yul\":1843:1985   */\n    tag_77:\n        /* \"#utility.yul\":1893:1902   */\n      0x00\n        /* \"#utility.yul\":1926:1979   */\n      tag_106\n        /* \"#utility.yul\":1944:1978   */\n      tag_107\n        /* \"#utility.yul\":1953:1977   */\n      tag_108\n        /* \"#utility.yul\":1971:1976   */\n      dup5\n        /* \"#utility.yul\":1953:1977   */\n      tag_76\n      jump\t// in\n    tag_108:\n        /* \"#utility.yul\":1944:1978   */\n      tag_73\n      jump\t// in\n    tag_107:\n        /* \"#utility.yul\":1926:1979   */\n      tag_76\n      jump\t// in\n    tag_106:\n        /* \"#utility.yul\":1913:1979   */\n      swap1\n      pop\n        /* \"#utility.yul\":1843:1985   */\n      swap2\n      swap1\n      pop\n      jump\t// out\n        /* \"#utility.yul\":1991:2117   */\n    tag_78:\n        /* \"#utility.yul\":2041:2050   */\n      0x00\n        /* \"#utility.yul\":2074:2111   */\n      tag_110\n        /* \"#utility.yul\":2105:2110   */\n      dup3\n        /* \"#utility.yul\":2074:2111   */\n      tag_77\n      jump\t// in\n    tag_110:\n        /* \"#utility.yul\":2061:2111   */\n      swap1\n      pop\n        /* \"#utility.yul\":1991:2117   */\n      swap2\n      swap1\n      pop\n      jump\t// out\n        /* \"#utility.yul\":2123:2265   */\n    tag_79:\n        /* \"#utility.yul\":2189:2198   */\n      0x00\n        /* \"#utility.yul\":2222:2259   */\n      tag_112\n        /* \"#utility.yul\":2253:2258   */\n      dup3\n        /* \"#utility.yul\":2222:2259   */\n      tag_78\n      jump\t// in\n    tag_112:\n        /* \"#utility.yul\":2209:2259   */\n      swap1\n      pop\n        /* \"#utility.yul\":2123:2265   */\n      swap2\n      swap1\n      pop\n      jump\t// out\n        /* \"#utility.yul\":2271:2434   */\n    tag_80:\n        /* \"#utility.yul\":2374:2427   */\n      tag_114\n        /* \"#utility.yul\":2421:2426   */\n      dup2\n        /* \"#utility.yul\":2374:2427   */\n      tag_79\n      jump\t// in\n    tag_114:\n        /* \"#utility.yul\":2369:2372   */\n      dup3\n        /* \"#utility.yul\":2362:2428   */\n      mstore\n        /* \"#utility.yul\":2271:2434   */\n      pop\n      pop\n      jump\t// out\n        /* \"#utility.yul\":2440:2694   */\n    tag_46:\n        /* \"#utility.yul\":2549:2553   */\n      0x00\n        /* \"#utility.yul\":2587:2589   */\n      0x20\n        /* \"#utility.yul\":2576:2585   */\n      dup3\n        /* \"#utility.yul\":2572:2590   */\n      add\n        /* \"#utility.yul\":2564:2590   */\n      swap1\n      pop\n        /* \"#utility.yul\":2600:2687   */\n      tag_116\n        /* \"#utility.yul\":2684:2685   */\n      0x00\n        /* \"#utility.yul\":2673:2682   */\n      dup4\n        /* \"#utility.yul\":2669:2686   */\n      add\n        /* \"#utility.yul\":2660:2666   */\n      dup5\n        /* \"#utility.yul\":2600:2687   */\n      tag_80\n      jump\t// in\n    tag_116:\n        /* \"#utility.yul\":2440:2694   */\n      swap3\n      swap2\n      pop\n      pop\n      jump\t// out\n        /* \"#utility.yul\":2700:2796   */\n    tag_81:\n        /* \"#utility.yul\":2737:2744   */\n      0x00\n        /* \"#utility.yul\":2766:2790   */\n      tag_118\n        /* \"#utility.yul\":2784:2789   */\n      dup3\n        /* \"#utility.yul\":2766:2790   */\n      tag_76\n      jump\t// in\n    tag_118:\n        /* \"#utility.yul\":2755:2790   */\n      swap1\n      pop\n        /* \"#utility.yul\":2700:2796   */\n      swap2\n      swap1\n      pop\n      jump\t// out\n        /* \"#utility.yul\":2802:2920   */\n    tag_82:\n        /* \"#utility.yul\":2889:2913   */\n      tag_120\n        /* \"#utility.yul\":2907:2912   */\n      dup2\n        /* \"#utility.yul\":2889:2913   */\n      tag_81\n      jump\t// in\n    tag_120:\n        /* \"#utility.yul\":2884:2887   */\n      dup3\n        /* \"#utility.yul\":2877:2914   */\n      mstore\n        /* \"#utility.yul\":2802:2920   */\n      pop\n      pop\n      jump\t// out\n        /* \"#utility.yul\":2926:3148   */\n    tag_49:\n        /* \"#utility.yul\":3019:3023   */\n      0x00\n        /* \"#utility.yul\":3057:3059   */\n      0x20\n        /* \"#utility.yul\":3046:3055   */\n      dup3\n        /* \"#utility.yul\":3042:3060   */\n      add\n        /* \"#utility.yul\":3034:3060   */\n      swap1\n      pop\n        /* \"#utility.yul\":3070:3141   */\n      tag_122\n        /* \"#utility.yul\":3138:3139   */\n      0x00\n        /* \"#utility.yul\":3127:3136   */\n      dup4\n        /* \"#utility.yul\":3123:3140   */\n      add\n        /* \"#utility.yul\":3114:3120   */\n      dup5\n        /* \"#utility.yul\":3070:3141   */\n      tag_82\n      jump\t// in\n    tag_122:\n        /* \"#utility.yul\":2926:3148   */\n      swap3\n      swap2\n      pop\n      pop\n      jump\t// out\n\n    auxdata: 0xa26469706673582212205d595fb7e745f59afaed499ef7e5bd802a3366491d856667a9637233a7dddea864736f6c63430008220033\n}\n",
				"bytecode": {
					"linkReferences": {},
					"object": "608060405234801561000f575f5ffd5b50604051610828380380610828833981810160405281019061003191906100d4565b805f5f6101000a81548173ffffffffffffffffffffffffffffffffffffffff021916908373ffffffffffffffffffffffffffffffffffffffff160217905550506100ff565b5f5ffd5b5f73ffffffffffffffffffffffffffffffffffffffff82169050919050565b5f6100a38261007a565b9050919050565b6100b381610099565b81146100bd575f5ffd5b50565b5f815190506100ce816100aa565b92915050565b5f602082840312156100e9576100e8610076565b5b5f6100f6848285016100c0565b91505092915050565b61071c8061010c5f395ff3fe608060405260043610610058575f3560e01c80632631a7c6146101c95780634d6a7baa146101f357806364bf5dcb1461020957806367a3fde814610213578063b36303fe14610229578063d4b8399214610253576101c5565b366101c55760015f81548092919061006f90610559565b91905055507ffe490e4ff15fdf52613fd81ee11eb3c5e4480db700591894a5dec8ecb498bbc76001546040516100a591906105af565b60405180910390a1670de0b6b3a76400005f5f9054906101000a900473ffffffffffffffffffffffffffffffffffffffff1673ffffffffffffffffffffffffffffffffffffffff1631101580156100fe57506003600154105b156101c3575f5f9054906101000a900473ffffffffffffffffffffffffffffffffffffffff1673ffffffffffffffffffffffffffffffffffffffff1663cc817673670de0b6b3a76400006040518263ffffffff1660e01b8152600401610164919061060a565b5f604051808303815f87803b15801561017b575f5ffd5b505af192505050801561018c575060015b6101c1577fadc0bdc1f2b12281171d3eff2dfcfe4657af4c61a8e57a97990f8edf68a09cf060405160405180910390a16101c2565b5b5b005b5f5ffd5b3480156101d4575f5ffd5b506101dd61027d565b6040516101ea91906105af565b60405180910390f35b3480156101fe575f5ffd5b50610207610283565b005b61021161037b565b005b34801561021e575f5ffd5b506102276103fa565b005b348015610234575f5ffd5b5061023d6104fa565b60405161024a91906105af565b60405180910390f35b34801561025e575f5ffd5b506102676104ff565b6040516102749190610694565b60405180910390f35b60015481565b7fce47de3ada8bbc7bfa5119dcccfa33a2a79fc932531d5ece6a80a32547f0b7a3336040516102b291906106cd565b60405180910390a15f5f9054906101000a900473ffffffffffffffffffffffffffffffffffffffff1673ffffffffffffffffffffffffffffffffffffffff16632e1a7d4d670de0b6b3a76400006040518263ffffffff1660e01b815260040161031b919061060a565b5f604051808303815f87803b158015610332575f5ffd5b505af1925050508015610343575060015b610378577fadc0bdc1f2b12281171d3eff2dfcfe4657af4c61a8e57a97990f8edf68a09cf060405160405180910390a1610379565b5b565b5f5f9054906101000a900473ffffffffffffffffffffffffffffffffffffffff1673ffffffffffffffffffffffffffffffffffffffff1663d0e30db0346040518263ffffffff1660e01b81526004015f604051808303818588803b1580156103e1575f5ffd5b505af11580156103f3573d5f5f3e3d5ffd5b5050505050565b7fce47de3ada8bbc7bfa5119dcccfa33a2a79fc932531d5ece6a80a32547f0b7a33360405161042991906106cd565b60405180910390a15f5f9054906101000a900473ffffffffffffffffffffffffffffffffffffffff1673ffffffffffffffffffffffffffffffffffffffff1663cc817673670de0b6b3a76400006040518263ffffffff1660e01b8152600401610492919061060a565b5f604051808303815f87803b1580156104a9575f5ffd5b505af11580156104bb573d5f5f3e3d5ffd5b505050507f87bdb4bdd764b85bcc2ac8c46ee07b3880e73be114fd9ab5c4dc42f45dd6cb166001546040516104f091906105af565b60405180910390a1565b600381565b5f5f9054906101000a900473ffffffffffffffffffffffffffffffffffffffff1681565b7f4e487b71000000000000000000000000000000000000000000000000000000005f52601160045260245ffd5b5f819050919050565b5f61056382610550565b91507fffffffffffffffffffffffffffffffffffffffffffffffffffffffffffffffff820361059557610594610523565b5b600182019050919050565b6105a981610550565b82525050565b5f6020820190506105c25f8301846105a0565b92915050565b5f819050919050565b5f819050919050565b5f6105f46105ef6105ea846105c8565b6105d1565b610550565b9050919050565b610604816105da565b82525050565b5f60208201905061061d5f8301846105fb565b92915050565b5f73ffffffffffffffffffffffffffffffffffffffff82169050919050565b5f61065c61065761065284610623565b6105d1565b610623565b9050919050565b5f61066d82610642565b9050919050565b5f61067e82610663565b9050919050565b61068e81610674565b82525050565b5f6020820190506106a75f830184610685565b92915050565b5f6106b782610623565b9050919050565b6106c7816106ad565b82525050565b5f6020820190506106e05f8301846106be565b9291505056fea26469706673582212205d595fb7e745f59afaed499ef7e5bd802a3366491d856667a9637233a7dddea864736f6c63430008220033",
					"opcodes": "PUSH1 0x80 PUSH1 0x40 MSTORE CALLVALUE DUP1 ISZERO PUSH2 0xF JUMPI PUSH0 PUSH0 REVERT JUMPDEST POP PUSH1 0x40 MLOAD PUSH2 0x828 CODESIZE SUB DUP1 PUSH2 0x828 DUP4 CODECOPY DUP2 DUP2 ADD PUSH1 0x40 MSTORE DUP2 ADD SWAP1 PUSH2 0x31 SWAP2 SWAP1 PUSH2 0xD4 JUMP JUMPDEST DUP1 PUSH0 PUSH0 PUSH2 0x100 EXP DUP2 SLOAD DUP2 PUSH20 0xFFFFFFFFFFFFFFFFFFFFFFFFFFFFFFFFFFFFFFFF MUL NOT AND SWAP1 DUP4 PUSH20 0xFFFFFFFFFFFFFFFFFFFFFFFFFFFFFFFFFFFFFFFF AND MUL OR SWAP1 SSTORE POP POP PUSH2 0xFF JUMP JUMPDEST PUSH0 PUSH0 REVERT JUMPDEST PUSH0 PUSH20 0xFFFFFFFFFFFFFFFFFFFFFFFFFFFFFFFFFFFFFFFF DUP3 AND SWAP1 POP SWAP2 SWAP1 POP JUMP JUMPDEST PUSH0 PUSH2 0xA3 DUP3 PUSH2 0x7A JUMP JUMPDEST SWAP1 POP SWAP2 SWAP1 POP JUMP JUMPDEST PUSH2 0xB3 DUP2 PUSH2 0x99 JUMP JUMPDEST DUP2 EQ PUSH2 0xBD JUMPI PUSH0 PUSH0 REVERT JUMPDEST POP JUMP JUMPDEST PUSH0 DUP2 MLOAD SWAP1 POP PUSH2 0xCE DUP2 PUSH2 0xAA JUMP JUMPDEST SWAP3 SWAP2 POP POP JUMP JUMPDEST PUSH0 PUSH1 0x20 DUP3 DUP5 SUB SLT ISZERO PUSH2 0xE9 JUMPI PUSH2 0xE8 PUSH2 0x76 JUMP JUMPDEST JUMPDEST PUSH0 PUSH2 0xF6 DUP5 DUP3 DUP6 ADD PUSH2 0xC0 JUMP JUMPDEST SWAP2 POP POP SWAP3 SWAP2 POP POP JUMP JUMPDEST PUSH2 0x71C DUP1 PUSH2 0x10C PUSH0 CODECOPY PUSH0 RETURN INVALID PUSH1 0x80 PUSH1 0x40 MSTORE PUSH1 0x4 CALLDATASIZE LT PUSH2 0x58 JUMPI PUSH0 CALLDATALOAD PUSH1 0xE0 SHR DUP1 PUSH4 0x2631A7C6 EQ PUSH2 0x1C9 JUMPI DUP1 PUSH4 0x4D6A7BAA EQ PUSH2 0x1F3 JUMPI DUP1 PUSH4 0x64BF5DCB EQ PUSH2 0x209 JUMPI DUP1 PUSH4 0x67A3FDE8 EQ PUSH2 0x213 JUMPI DUP1 PUSH4 0xB36303FE EQ PUSH2 0x229 JUMPI DUP1 PUSH4 0xD4B83992 EQ PUSH2 0x253 JUMPI PUSH2 0x1C5 JUMP JUMPDEST CALLDATASIZE PUSH2 0x1C5 JUMPI PUSH1 0x1 PUSH0 DUP2 SLOAD DUP1 SWAP3 SWAP2 SWAP1 PUSH2 0x6F SWAP1 PUSH2 0x559 JUMP JUMPDEST SWAP2 SWAP1 POP SSTORE POP PUSH32 0xFE490E4FF15FDF52613FD81EE11EB3C5E4480DB700591894A5DEC8ECB498BBC7 PUSH1 0x1 SLOAD PUSH1 0x40 MLOAD PUSH2 0xA5 SWAP2 SWAP1 PUSH2 0x5AF JUMP JUMPDEST PUSH1 0x40 MLOAD DUP1 SWAP2 SUB SWAP1 LOG1 PUSH8 0xDE0B6B3A7640000 PUSH0 PUSH0 SWAP1 SLOAD SWAP1 PUSH2 0x100 EXP SWAP1 DIV PUSH20 0xFFFFFFFFFFFFFFFFFFFFFFFFFFFFFFFFFFFFFFFF AND PUSH20 0xFFFFFFFFFFFFFFFFFFFFFFFFFFFFFFFFFFFFFFFF AND BALANCE LT ISZERO DUP1 ISZERO PUSH2 0xFE JUMPI POP PUSH1 0x3 PUSH1 0x1 SLOAD LT JUMPDEST ISZERO PUSH2 0x1C3 JUMPI PUSH0 PUSH0 SWAP1 SLOAD SWAP1 PUSH2 0x100 EXP SWAP1 DIV PUSH20 0xFFFFFFFFFFFFFFFFFFFFFFFFFFFFFFFFFFFFFFFF AND PUSH20 0xFFFFFFFFFFFFFFFFFFFFFFFFFFFFFFFFFFFFFFFF AND PUSH4 0xCC817673 PUSH8 0xDE0B6B3A7640000 PUSH1 0x40 MLOAD DUP3 PUSH4 0xFFFFFFFF AND PUSH1 0xE0 SHL DUP2 MSTORE PUSH1 0x4 ADD PUSH2 0x164 SWAP2 SWAP1 PUSH2 0x60A JUMP JUMPDEST PUSH0 PUSH1 0x40 MLOAD DUP1 DUP4 SUB DUP2 PUSH0 DUP8 DUP1 EXTCODESIZE ISZERO DUP1 ISZERO PUSH2 0x17B JUMPI PUSH0 PUSH0 REVERT JUMPDEST POP GAS CALL SWAP3 POP POP POP DUP1 ISZERO PUSH2 0x18C JUMPI POP PUSH1 0x1 JUMPDEST PUSH2 0x1C1 JUMPI PUSH32 0xADC0BDC1F2B12281171D3EFF2DFCFE4657AF4C61A8E57A97990F8EDF68A09CF0 PUSH1 0x40 MLOAD PUSH1 0x40 MLOAD DUP1 SWAP2 SUB SWAP1 LOG1 PUSH2 0x1C2 JUMP JUMPDEST JUMPDEST JUMPDEST STOP JUMPDEST PUSH0 PUSH0 REVERT JUMPDEST CALLVALUE DUP1 ISZERO PUSH2 0x1D4 JUMPI PUSH0 PUSH0 REVERT JUMPDEST POP PUSH2 0x1DD PUSH2 0x27D JUMP JUMPDEST PUSH1 0x40 MLOAD PUSH2 0x1EA SWAP2 SWAP1 PUSH2 0x5AF JUMP JUMPDEST PUSH1 0x40 MLOAD DUP1 SWAP2 SUB SWAP1 RETURN JUMPDEST CALLVALUE DUP1 ISZERO PUSH2 0x1FE JUMPI PUSH0 PUSH0 REVERT JUMPDEST POP PUSH2 0x207 PUSH2 0x283 JUMP JUMPDEST STOP JUMPDEST PUSH2 0x211 PUSH2 0x37B JUMP JUMPDEST STOP JUMPDEST CALLVALUE DUP1 ISZERO PUSH2 0x21E JUMPI PUSH0 PUSH0 REVERT JUMPDEST POP PUSH2 0x227 PUSH2 0x3FA JUMP JUMPDEST STOP JUMPDEST CALLVALUE DUP1 ISZERO PUSH2 0x234 JUMPI PUSH0 PUSH0 REVERT JUMPDEST POP PUSH2 0x23D PUSH2 0x4FA JUMP JUMPDEST PUSH1 0x40 MLOAD PUSH2 0x24A SWAP2 SWAP1 PUSH2 0x5AF JUMP JUMPDEST PUSH1 0x40 MLOAD DUP1 SWAP2 SUB SWAP1 RETURN JUMPDEST CALLVALUE DUP1 ISZERO PUSH2 0x25E JUMPI PUSH0 PUSH0 REVERT JUMPDEST POP PUSH2 0x267 PUSH2 0x4FF JUMP JUMPDEST PUSH1 0x40 MLOAD PUSH2 0x274 SWAP2 SWAP1 PUSH2 0x694 JUMP JUMPDEST PUSH1 0x40 MLOAD DUP1 SWAP2 SUB SWAP1 RETURN JUMPDEST PUSH1 0x1 SLOAD DUP2 JUMP JUMPDEST PUSH32 0xCE47DE3ADA8BBC7BFA5119DCCCFA33A2A79FC932531D5ECE6A80A32547F0B7A3 CALLER PUSH1 0x40 MLOAD PUSH2 0x2B2 SWAP2 SWAP1 PUSH2 0x6CD JUMP JUMPDEST PUSH1 0x40 MLOAD DUP1 SWAP2 SUB SWAP1 LOG1 PUSH0 PUSH0 SWAP1 SLOAD SWAP1 PUSH2 0x100 EXP SWAP1 DIV PUSH20 0xFFFFFFFFFFFFFFFFFFFFFFFFFFFFFFFFFFFFFFFF AND PUSH20 0xFFFFFFFFFFFFFFFFFFFFFFFFFFFFFFFFFFFFFFFF AND PUSH4 0x2E1A7D4D PUSH8 0xDE0B6B3A7640000 PUSH1 0x40 MLOAD DUP3 PUSH4 0xFFFFFFFF AND PUSH1 0xE0 SHL DUP2 MSTORE PUSH1 0x4 ADD PUSH2 0x31B SWAP2 SWAP1 PUSH2 0x60A JUMP JUMPDEST PUSH0 PUSH1 0x40 MLOAD DUP1 DUP4 SUB DUP2 PUSH0 DUP8 DUP1 EXTCODESIZE ISZERO DUP1 ISZERO PUSH2 0x332 JUMPI PUSH0 PUSH0 REVERT JUMPDEST POP GAS CALL SWAP3 POP POP POP DUP1 ISZERO PUSH2 0x343 JUMPI POP PUSH1 0x1 JUMPDEST PUSH2 0x378 JUMPI PUSH32 0xADC0BDC1F2B12281171D3EFF2DFCFE4657AF4C61A8E57A97990F8EDF68A09CF0 PUSH1 0x40 MLOAD PUSH1 0x40 MLOAD DUP1 SWAP2 SUB SWAP1 LOG1 PUSH2 0x379 JUMP JUMPDEST JUMPDEST JUMP JUMPDEST PUSH0 PUSH0 SWAP1 SLOAD SWAP1 PUSH2 0x100 EXP SWAP1 DIV PUSH20 0xFFFFFFFFFFFFFFFFFFFFFFFFFFFFFFFFFFFFFFFF AND PUSH20 0xFFFFFFFFFFFFFFFFFFFFFFFFFFFFFFFFFFFFFFFF AND PUSH4 0xD0E30DB0 CALLVALUE PUSH1 0x40 MLOAD DUP3 PUSH4 0xFFFFFFFF AND PUSH1 0xE0 SHL DUP2 MSTORE PUSH1 0x4 ADD PUSH0 PUSH1 0x40 MLOAD DUP1 DUP4 SUB DUP2 DUP6 DUP9 DUP1 EXTCODESIZE ISZERO DUP1 ISZERO PUSH2 0x3E1 JUMPI PUSH0 PUSH0 REVERT JUMPDEST POP GAS CALL ISZERO DUP1 ISZERO PUSH2 0x3F3 JUMPI RETURNDATASIZE PUSH0 PUSH0 RETURNDATACOPY RETURNDATASIZE PUSH0 REVERT JUMPDEST POP POP POP POP POP JUMP JUMPDEST PUSH32 0xCE47DE3ADA8BBC7BFA5119DCCCFA33A2A79FC932531D5ECE6A80A32547F0B7A3 CALLER PUSH1 0x40 MLOAD PUSH2 0x429 SWAP2 SWAP1 PUSH2 0x6CD JUMP JUMPDEST PUSH1 0x40 MLOAD DUP1 SWAP2 SUB SWAP1 LOG1 PUSH0 PUSH0 SWAP1 SLOAD SWAP1 PUSH2 0x100 EXP SWAP1 DIV PUSH20 0xFFFFFFFFFFFFFFFFFFFFFFFFFFFFFFFFFFFFFFFF AND PUSH20 0xFFFFFFFFFFFFFFFFFFFFFFFFFFFFFFFFFFFFFFFF AND PUSH4 0xCC817673 PUSH8 0xDE0B6B3A7640000 PUSH1 0x40 MLOAD DUP3 PUSH4 0xFFFFFFFF AND PUSH1 0xE0 SHL DUP2 MSTORE PUSH1 0x4 ADD PUSH2 0x492 SWAP2 SWAP1 PUSH2 0x60A JUMP JUMPDEST PUSH0 PUSH1 0x40 MLOAD DUP1 DUP4 SUB DUP2 PUSH0 DUP8 DUP1 EXTCODESIZE ISZERO DUP1 ISZERO PUSH2 0x4A9 JUMPI PUSH0 PUSH0 REVERT JUMPDEST POP GAS CALL ISZERO DUP1 ISZERO PUSH2 0x4BB JUMPI RETURNDATASIZE PUSH0 PUSH0 RETURNDATACOPY RETURNDATASIZE PUSH0 REVERT JUMPDEST POP POP POP POP PUSH32 0x87BDB4BDD764B85BCC2AC8C46EE07B3880E73BE114FD9AB5C4DC42F45DD6CB16 PUSH1 0x1 SLOAD PUSH1 0x40 MLOAD PUSH2 0x4F0 SWAP2 SWAP1 PUSH2 0x5AF JUMP JUMPDEST PUSH1 0x40 MLOAD DUP1 SWAP2 SUB SWAP1 LOG1 JUMP JUMPDEST PUSH1 0x3 DUP2 JUMP JUMPDEST PUSH0 PUSH0 SWAP1 SLOAD SWAP1 PUSH2 0x100 EXP SWAP1 DIV PUSH20 0xFFFFFFFFFFFFFFFFFFFFFFFFFFFFFFFFFFFFFFFF AND DUP2 JUMP JUMPDEST PUSH32 0x4E487B7100000000000000000000000000000000000000000000000000000000 PUSH0 MSTORE PUSH1 0x11 PUSH1 0x4 MSTORE PUSH1 0x24 PUSH0 REVERT JUMPDEST PUSH0 DUP2 SWAP1 POP SWAP2 SWAP1 POP JUMP JUMPDEST PUSH0 PUSH2 0x563 DUP3 PUSH2 0x550 JUMP JUMPDEST SWAP2 POP PUSH32 0xFFFFFFFFFFFFFFFFFFFFFFFFFFFFFFFFFFFFFFFFFFFFFFFFFFFFFFFFFFFFFFFF DUP3 SUB PUSH2 0x595 JUMPI PUSH2 0x594 PUSH2 0x523 JUMP JUMPDEST JUMPDEST PUSH1 0x1 DUP3 ADD SWAP1 POP SWAP2 SWAP1 POP JUMP JUMPDEST PUSH2 0x5A9 DUP2 PUSH2 0x550 JUMP JUMPDEST DUP3 MSTORE POP POP JUMP JUMPDEST PUSH0 PUSH1 0x20 DUP3 ADD SWAP1 POP PUSH2 0x5C2 PUSH0 DUP4 ADD DUP5 PUSH2 0x5A0 JUMP JUMPDEST SWAP3 SWAP2 POP POP JUMP JUMPDEST PUSH0 DUP2 SWAP1 POP SWAP2 SWAP1 POP JUMP JUMPDEST PUSH0 DUP2 SWAP1 POP SWAP2 SWAP1 POP JUMP JUMPDEST PUSH0 PUSH2 0x5F4 PUSH2 0x5EF PUSH2 0x5EA DUP5 PUSH2 0x5C8 JUMP JUMPDEST PUSH2 0x5D1 JUMP JUMPDEST PUSH2 0x550 JUMP JUMPDEST SWAP1 POP SWAP2 SWAP1 POP JUMP JUMPDEST PUSH2 0x604 DUP2 PUSH2 0x5DA JUMP JUMPDEST DUP3 MSTORE POP POP JUMP JUMPDEST PUSH0 PUSH1 0x20 DUP3 ADD SWAP1 POP PUSH2 0x61D PUSH0 DUP4 ADD DUP5 PUSH2 0x5FB JUMP JUMPDEST SWAP3 SWAP2 POP POP JUMP JUMPDEST PUSH0 PUSH20 0xFFFFFFFFFFFFFFFFFFFFFFFFFFFFFFFFFFFFFFFF DUP3 AND SWAP1 POP SWAP2 SWAP1 POP JUMP JUMPDEST PUSH0 PUSH2 0x65C PUSH2 0x657 PUSH2 0x652 DUP5 PUSH2 0x623 JUMP JUMPDEST PUSH2 0x5D1 JUMP JUMPDEST PUSH2 0x623 JUMP JUMPDEST SWAP1 POP SWAP2 SWAP1 POP JUMP JUMPDEST PUSH0 PUSH2 0x66D DUP3 PUSH2 0x642 JUMP JUMPDEST SWAP1 POP SWAP2 SWAP1 POP JUMP JUMPDEST PUSH0 PUSH2 0x67E DUP3 PUSH2 0x663 JUMP JUMPDEST SWAP1 POP SWAP2 SWAP1 POP JUMP JUMPDEST PUSH2 0x68E DUP2 PUSH2 0x674 JUMP JUMPDEST DUP3 MSTORE POP POP JUMP JUMPDEST PUSH0 PUSH1 0x20 DUP3 ADD SWAP1 POP PUSH2 0x6A7 PUSH0 DUP4 ADD DUP5 PUSH2 0x685 JUMP JUMPDEST SWAP3 SWAP2 POP POP JUMP JUMPDEST PUSH0 PUSH2 0x6B7 DUP3 PUSH2 0x623 JUMP JUMPDEST SWAP1 POP SWAP2 SWAP1 POP JUMP JUMPDEST PUSH2 0x6C7 DUP2 PUSH2 0x6AD JUMP JUMPDEST DUP3 MSTORE POP POP JUMP JUMPDEST PUSH0 PUSH1 0x20 DUP3 ADD SWAP1 POP PUSH2 0x6E0 PUSH0 DUP4 ADD DUP5 PUSH2 0x6BE JUMP JUMPDEST SWAP3 SWAP2 POP POP JUMP INVALID LOG2 PUSH5 0x6970667358 0x22 SLT KECCAK256 TSTORE MSIZE PUSH0 0xB7 SWAPN 0x45 CREATE2 SWAP11 STATICCALL 0xED BLOBHASH SWAP15 0xF7 JUMPF 0xBD80 0x2A CALLER PUSH7 0x491D856667A963 PUSH19 0x33A7DDDEA864736F6C63430008220033000000 "
				},
				"gasEstimates": {
					"creation": {
						"codeDepositCost": "364000",
						"executionCost": "infinite",
						"totalCost": "infinite"
					},
					"external": {
						"MAX_ATTACKS()": "391",
						"attacSafe()": "infinite",
						"attackCounter()": "2403",
						"attackVulnerable()": "infinite",
						"depositToTarget()": "infinite",
						"target()": "infinite"
					}
				},
				"methodIdentifiers": {
					"MAX_ATTACKS()": "b36303fe",
					"attacSafe()": "4d6a7baa",
					"attackCounter()": "2631a7c6",
					"attackVulnerable()": "67a3fde8",
					"depositToTarget()": "64bf5dcb",
					"target()": "d4b83992"
				}
			},
			"storageLayout": {
				"storage": [
					{
						"astId": 193,
						"contract": "val58.sol:ReentryTester",
						"label": "target",
						"offset": 0,
						"slot": "0",
						"type": "t_contract(SafeBank)190"
					},
					{
						"astId": 195,
						"contract": "val58.sol:ReentryTester",
						"label": "attackCounter",
						"offset": 0,
						"slot": "1",
						"type": "t_uint256"
					}
				],
				"types": {
					"t_contract(SafeBank)190": {
						"encoding": "inplace",
						"label": "contract SafeBank",
						"numberOfBytes": "20"
					},
					"t_uint256": {
						"encoding": "inplace",
						"label": "uint256",
						"numberOfBytes": "32"
					}
				}
			},
			"userdoc": {
				"kind": "user",
				"methods": {},
				"version": 1
			}
		}
	}
}