{
	"val46.sol": {
		"ManualRevertExample": {
			"abi": [
				{
					"inputs": [],
					"name": "AmountExceedsLimit",
					"type": "error"
				},
				{
					"inputs": [
						{
							"internalType": "uint256",
							"name": "available",
							"type": "uint256"
						},
						{
							"internalType": "uint256",
							"name": "requested",
							"type": "uint256"
						}
					],
					"name": "InsufficientBalance",
					"type": "error"
				},
				{
					"inputs": [],
					"name": "OddNumberRejected",
					"type": "error"
				},
				{
					"inputs": [],
					"name": "SilenFailure",
					"type": "error"
				},
				{
					"inputs": [
						{
							"internalType": "address",
							"name": "",
							"type": "address"
						}
					],
					"name": "balances",
					"outputs": [
						{
							"internalType": "uint256",
							"name": "",
							"type": "uint256"
						}
					],
					"stateMutability": "view",
					"type": "function"
				},
				{
					"inputs": [
						{
							"internalType": "uint256",
							"name": "_amount",
							"type": "uint256"
						}
					],
					"name": "dangerousDeposit",
					"outputs": [],
					"stateMutability": "nonpayable",
					"type": "function"
				},
				{
					"inputs": [
						{
							"internalType": "uint256",
							"name": "_number",
							"type": "uint256"
						}
					],
					"name": "onlyEven",
					"outputs": [
						{
							"internalType": "string",
							"name": "",
							"type": "string"
						}
					],
					"stateMutability": "pure",
					"type": "function"
				},
				{
					"inputs": [
						{
							"internalType": "bool",
							"name": "_shouldFail",
							"type": "bool"
						}
					],
					"name": "silentRevert",
					"outputs": [],
					"stateMutability": "pure",
					"type": "function"
				},
				{
					"inputs": [],
					"name": "totalCounter",
					"outputs": [
						{
							"internalType": "uint256",
							"name": "",
							"type": "uint256"
						}
					],
					"stateMutability": "view",
					"type": "function"
				},
				{
					"inputs": [
						{
							"internalType": "uint256",
							"name": "_amount",
							"type": "uint256"
						}
					],
					"name": "withdraw",
					"outputs": [],
					"stateMutability": "nonpayable",
					"type": "function"
				}
			],
			"devdoc": {
				"kind": "dev",
				"methods": {},
				"version": 1
			},
			"evm": {
				"assembly": "    /* \"val46.sol\":12626:15054  contract ManualRevertExample ... */\n  mstore(0x40, 0x80)\n  callvalue\n  dup1\n  iszero\n  tag_1\n  jumpi\n  revert(0x00, 0x00)\ntag_1:\n  pop\n  dataSize(sub_0)\n  dup1\n  dataOffset(sub_0)\n  0x00\n  codecopy\n  0x00\n  return\nstop\n\nsub_0: assembly {\n        /* \"val46.sol\":12626:15054  contract ManualRevertExample ... */\n      mstore(0x40, 0x80)\n      callvalue\n      dup1\n      iszero\n      tag_1\n      jumpi\n      revert(0x00, 0x00)\n    tag_1:\n      pop\n      jumpi(tag_2, lt(calldatasize, 0x04))\n      shr(0xe0, calldataload(0x00))\n      dup1\n      0x0c86b48b\n      eq\n      tag_3\n      jumpi\n      dup1\n      0x27e235e3\n      eq\n      tag_4\n      jumpi\n      dup1\n      0x2e1a7d4d\n      eq\n      tag_5\n      jumpi\n      dup1\n      0x97feba9d\n      eq\n      tag_6\n      jumpi\n      dup1\n      0xa05beee8\n      eq\n      tag_7\n      jumpi\n      dup1\n      0xce0b4213\n      eq\n      tag_8\n      jumpi\n    tag_2:\n      revert(0x00, 0x00)\n        /* \"val46.sol\":14805:15051  function silentRevert(... */\n    tag_3:\n      tag_9\n      0x04\n      dup1\n      calldatasize\n      sub\n      dup2\n      add\n      swap1\n      tag_10\n      swap2\n      swap1\n      tag_11\n      jump\t// in\n    tag_10:\n      tag_12\n      jump\t// in\n    tag_9:\n      stop\n        /* \"val46.sol\":12745:12788  mapping(address => uint256) public balances */\n    tag_4:\n      tag_13\n      0x04\n      dup1\n      calldatasize\n      sub\n      dup2\n      add\n      swap1\n      tag_14\n      swap2\n      swap1\n      tag_15\n      jump\t// in\n    tag_14:\n      tag_16\n      jump\t// in\n    tag_13:\n      mload(0x40)\n      tag_17\n      swap2\n      swap1\n      tag_18\n      jump\t// in\n    tag_17:\n      mload(0x40)\n      dup1\n      swap2\n      sub\n      swap1\n      return\n        /* \"val46.sol\":13861:14137  function withdraw(uint256 _amount) external ... */\n    tag_5:\n      tag_19\n      0x04\n      dup1\n      calldatasize\n      sub\n      dup2\n      add\n      swap1\n      tag_20\n      swap2\n      swap1\n      tag_21\n      jump\t// in\n    tag_20:\n      tag_22\n      jump\t// in\n    tag_19:\n      stop\n        /* \"val46.sol\":12709:12736  uint256 public totalCounter */\n    tag_6:\n      tag_23\n      tag_24\n      jump\t// in\n    tag_23:\n      mload(0x40)\n      tag_25\n      swap2\n      swap1\n      tag_18\n      jump\t// in\n    tag_25:\n      mload(0x40)\n      dup1\n      swap2\n      sub\n      swap1\n      return\n        /* \"val46.sol\":13143:13831  function dangerousDeposit(... */\n    tag_7:\n      tag_26\n      0x04\n      dup1\n      calldatasize\n      sub\n      dup2\n      add\n      swap1\n      tag_27\n      swap2\n      swap1\n      tag_21\n      jump\t// in\n    tag_27:\n      tag_28\n      jump\t// in\n    tag_26:\n      stop\n        /* \"val46.sol\":14313:14633  function onlyEven(... */\n    tag_8:\n      tag_29\n      0x04\n      dup1\n      calldatasize\n      sub\n      dup2\n      add\n      swap1\n      tag_30\n      swap2\n      swap1\n      tag_21\n      jump\t// in\n    tag_30:\n      tag_31\n      jump\t// in\n    tag_29:\n      mload(0x40)\n      tag_32\n      swap2\n      swap1\n      tag_33\n      jump\t// in\n    tag_32:\n      mload(0x40)\n      dup1\n      swap2\n      sub\n      swap1\n      return\n        /* \"val46.sol\":14805:15051  function silentRevert(... */\n    tag_12:\n        /* \"val46.sol\":14915:14926  _shouldFail */\n      dup1\n        /* \"val46.sol\":14911:15044  if (_shouldFail) {... */\n      iszero\n      tag_35\n      jumpi\n        /* \"val46.sol\":15024:15032  revert() */\n      revert(0x00, 0x00)\n        /* \"val46.sol\":14911:15044  if (_shouldFail) {... */\n    tag_35:\n        /* \"val46.sol\":14805:15051  function silentRevert(... */\n      pop\n      jump\t// out\n        /* \"val46.sol\":12745:12788  mapping(address => uint256) public balances */\n    tag_16:\n      mstore(0x20, 0x01)\n      dup1\n      0x00\n      mstore\n      keccak256(0x00, 0x40)\n      0x00\n      swap2\n      pop\n      swap1\n      pop\n      sload\n      dup2\n      jump\t// out\n        /* \"val46.sol\":13861:14137  function withdraw(uint256 _amount) external ... */\n    tag_22:\n        /* \"val46.sol\":13948:13955  _amount */\n      dup1\n        /* \"val46.sol\":13925:13933  balances */\n      0x01\n        /* \"val46.sol\":13925:13945  balances[msg.sender] */\n      0x00\n        /* \"val46.sol\":13934:13944  msg.sender */\n      caller\n        /* \"val46.sol\":13925:13945  balances[msg.sender] */\n      0xffffffffffffffffffffffffffffffffffffffff\n      and\n      0xffffffffffffffffffffffffffffffffffffffff\n      and\n      dup2\n      mstore\n      0x20\n      add\n      swap1\n      dup2\n      mstore\n      0x20\n      add\n      0x00\n      keccak256\n      sload\n        /* \"val46.sol\":13925:13955  balances[msg.sender] < _amount */\n      lt\n        /* \"val46.sol\":13922:14050  if(balances[msg.sender] < _amount)... */\n      iszero\n      tag_37\n      jumpi\n        /* \"val46.sol\":14008:14016  balances */\n      0x01\n        /* \"val46.sol\":14008:14028  balances[msg.sender] */\n      0x00\n        /* \"val46.sol\":14017:14027  msg.sender */\n      caller\n        /* \"val46.sol\":14008:14028  balances[msg.sender] */\n      0xffffffffffffffffffffffffffffffffffffffff\n      and\n      0xffffffffffffffffffffffffffffffffffffffff\n      and\n      dup2\n      mstore\n      0x20\n      add\n      swap1\n      dup2\n      mstore\n      0x20\n      add\n      0x00\n      keccak256\n      sload\n        /* \"val46.sol\":14030:14037  _amount */\n      dup2\n        /* \"val46.sol\":13988:14038  InsufficientBalance(balances[msg.sender], _amount) */\n      mload(0x40)\n      0xcf47918100000000000000000000000000000000000000000000000000000000\n      dup2\n      mstore\n      0x04\n      add\n      tag_38\n      swap3\n      swap2\n      swap1\n      tag_39\n      jump\t// in\n    tag_38:\n      mload(0x40)\n      dup1\n      swap2\n      sub\n      swap1\n      revert\n        /* \"val46.sol\":13922:14050  if(balances[msg.sender] < _amount)... */\n    tag_37:\n        /* \"val46.sol\":14086:14093  _amount */\n      dup1\n        /* \"val46.sol\":14062:14070  balances */\n      0x01\n        /* \"val46.sol\":14062:14082  balances[msg.sender] */\n      0x00\n        /* \"val46.sol\":14071:14081  msg.sender */\n      caller\n        /* \"val46.sol\":14062:14082  balances[msg.sender] */\n      0xffffffffffffffffffffffffffffffffffffffff\n      and\n      0xffffffffffffffffffffffffffffffffffffffff\n      and\n      dup2\n      mstore\n      0x20\n      add\n      swap1\n      dup2\n      mstore\n      0x20\n      add\n      0x00\n      keccak256\n      0x00\n        /* \"val46.sol\":14062:14093  balances[msg.sender] -= _amount */\n      dup3\n      dup3\n      sload\n      tag_40\n      swap2\n      swap1\n      tag_41\n      jump\t// in\n    tag_40:\n      swap3\n      pop\n      pop\n      dup2\n      swap1\n      sstore\n      pop\n        /* \"val46.sol\":14122:14129  _amount */\n      dup1\n        /* \"val46.sol\":14106:14118  totalCounter */\n      0x00\n      0x00\n        /* \"val46.sol\":14106:14129  totalCounter -= _amount */\n      dup3\n      dup3\n      sload\n      tag_42\n      swap2\n      swap1\n      tag_41\n      jump\t// in\n    tag_42:\n      swap3\n      pop\n      pop\n      dup2\n      swap1\n      sstore\n      pop\n        /* \"val46.sol\":13861:14137  function withdraw(uint256 _amount) external ... */\n      pop\n      jump\t// out\n        /* \"val46.sol\":12709:12736  uint256 public totalCounter */\n    tag_24:\n      sload(0x00)\n      dup2\n      jump\t// out\n        /* \"val46.sol\":13143:13831  function dangerousDeposit(... */\n    tag_28:\n        /* \"val46.sol\":13389:13396  _amount */\n      dup1\n        /* \"val46.sol\":13365:13373  balances */\n      0x01\n        /* \"val46.sol\":13365:13385  balances[msg.sender] */\n      0x00\n        /* \"val46.sol\":13374:13384  msg.sender */\n      caller\n        /* \"val46.sol\":13365:13385  balances[msg.sender] */\n      0xffffffffffffffffffffffffffffffffffffffff\n      and\n      0xffffffffffffffffffffffffffffffffffffffff\n      and\n      dup2\n      mstore\n      0x20\n      add\n      swap1\n      dup2\n      mstore\n      0x20\n      add\n      0x00\n      keccak256\n      0x00\n        /* \"val46.sol\":13365:13396  balances[msg.sender] += _amount */\n      dup3\n      dup3\n      sload\n      tag_44\n      swap2\n      swap1\n      tag_45\n      jump\t// in\n    tag_44:\n      swap3\n      pop\n      pop\n      dup2\n      swap1\n      sstore\n      pop\n        /* \"val46.sol\":13425:13432  _amount */\n      dup1\n        /* \"val46.sol\":13409:13421  totalCounter */\n      0x00\n      0x00\n        /* \"val46.sol\":13409:13432  totalCounter += _amount */\n      dup3\n      dup3\n      sload\n      tag_46\n      swap2\n      swap1\n      tag_45\n      jump\t// in\n    tag_46:\n      swap3\n      pop\n      pop\n      dup2\n      swap1\n      sstore\n      pop\n        /* \"val46.sol\":13542:13544  10 */\n      0x0a\n        /* \"val46.sol\":13532:13539  _amount */\n      dup2\n        /* \"val46.sol\":13532:13544  _amount > 10 */\n      gt\n        /* \"val46.sol\":13528:13723  if (_amount > 10) {... */\n      iszero\n      tag_47\n      jumpi\n        /* \"val46.sol\":13681:13711  revert(\"Amount exceeds limit\") */\n      mload(0x40)\n      0x08c379a000000000000000000000000000000000000000000000000000000000\n      dup2\n      mstore\n      0x04\n      add\n      tag_48\n      swap1\n      tag_49\n      jump\t// in\n    tag_48:\n      mload(0x40)\n      dup1\n      swap2\n      sub\n      swap1\n      revert\n        /* \"val46.sol\":13528:13723  if (_amount > 10) {... */\n    tag_47:\n        /* \"val46.sol\":13143:13831  function dangerousDeposit(... */\n      pop\n      jump\t// out\n        /* \"val46.sol\":14313:14633  function onlyEven(... */\n    tag_31:\n        /* \"val46.sol\":14414:14427  string memory */\n      0x60\n        /* \"val46.sol\":14523:14524  0 */\n      0x00\n        /* \"val46.sol\":14518:14519  2 */\n      0x02\n        /* \"val46.sol\":14508:14515  _number */\n      dup4\n        /* \"val46.sol\":14508:14519  _number % 2 */\n      tag_51\n      swap2\n      swap1\n      tag_52\n      jump\t// in\n    tag_51:\n        /* \"val46.sol\":14508:14524  _number % 2 != 0 */\n      eq\n        /* \"val46.sol\":14504:14584  if (_number % 2 != 0) {... */\n      tag_53\n      jumpi\n        /* \"val46.sol\":14543:14572  revert(\"Odd number rejected\") */\n      mload(0x40)\n      0x08c379a000000000000000000000000000000000000000000000000000000000\n      dup2\n      mstore\n      0x04\n      add\n      tag_54\n      swap1\n      tag_55\n      jump\t// in\n    tag_54:\n      mload(0x40)\n      dup1\n      swap2\n      sub\n      swap1\n      revert\n        /* \"val46.sol\":14504:14584  if (_number % 2 != 0) {... */\n    tag_53:\n        /* \"val46.sol\":14596:14625  return \"Even number accepted\" */\n      mload(0x40)\n      dup1\n      0x40\n      add\n      0x40\n      mstore\n      dup1\n      0x14\n      dup2\n      mstore\n      0x20\n      add\n      0x4576656e206e756d626572206163636570746564000000000000000000000000\n      dup2\n      mstore\n      pop\n      swap1\n      pop\n        /* \"val46.sol\":14313:14633  function onlyEven(... */\n      swap2\n      swap1\n      pop\n      jump\t// out\n        /* \"#utility.yul\":88:205   */\n    tag_57:\n        /* \"#utility.yul\":197:198   */\n      0x00\n        /* \"#utility.yul\":194:195   */\n      0x00\n        /* \"#utility.yul\":187:199   */\n      revert\n        /* \"#utility.yul\":334:424   */\n    tag_59:\n        /* \"#utility.yul\":368:375   */\n      0x00\n        /* \"#utility.yul\":411:416   */\n      dup2\n        /* \"#utility.yul\":404:417   */\n      iszero\n        /* \"#utility.yul\":397:418   */\n      iszero\n        /* \"#utility.yul\":386:418   */\n      swap1\n      pop\n        /* \"#utility.yul\":334:424   */\n      swap2\n      swap1\n      pop\n      jump\t// out\n        /* \"#utility.yul\":430:546   */\n    tag_60:\n        /* \"#utility.yul\":500:521   */\n      tag_87\n        /* \"#utility.yul\":515:520   */\n      dup2\n        /* \"#utility.yul\":500:521   */\n      tag_59\n      jump\t// in\n    tag_87:\n        /* \"#utility.yul\":493:498   */\n      dup2\n        /* \"#utility.yul\":490:522   */\n      eq\n        /* \"#utility.yul\":480:540   */\n      tag_88\n      jumpi\n        /* \"#utility.yul\":536:537   */\n      0x00\n        /* \"#utility.yul\":533:534   */\n      0x00\n        /* \"#utility.yul\":526:538   */\n      revert\n        /* \"#utility.yul\":480:540   */\n    tag_88:\n        /* \"#utility.yul\":430:546   */\n      pop\n      jump\t// out\n        /* \"#utility.yul\":552:685   */\n    tag_61:\n        /* \"#utility.yul\":595:600   */\n      0x00\n        /* \"#utility.yul\":633:639   */\n      dup2\n        /* \"#utility.yul\":620:640   */\n      calldataload\n        /* \"#utility.yul\":611:640   */\n      swap1\n      pop\n        /* \"#utility.yul\":649:679   */\n      tag_90\n        /* \"#utility.yul\":673:678   */\n      dup2\n        /* \"#utility.yul\":649:679   */\n      tag_60\n      jump\t// in\n    tag_90:\n        /* \"#utility.yul\":552:685   */\n      swap3\n      swap2\n      pop\n      pop\n      jump\t// out\n        /* \"#utility.yul\":691:1014   */\n    tag_11:\n        /* \"#utility.yul\":747:753   */\n      0x00\n        /* \"#utility.yul\":796:798   */\n      0x20\n        /* \"#utility.yul\":784:793   */\n      dup3\n        /* \"#utility.yul\":775:782   */\n      dup5\n        /* \"#utility.yul\":771:794   */\n      sub\n        /* \"#utility.yul\":767:799   */\n      slt\n        /* \"#utility.yul\":764:883   */\n      iszero\n      tag_92\n      jumpi\n        /* \"#utility.yul\":802:881   */\n      tag_93\n      tag_57\n      jump\t// in\n    tag_93:\n        /* \"#utility.yul\":764:883   */\n    tag_92:\n        /* \"#utility.yul\":922:923   */\n      0x00\n        /* \"#utility.yul\":947:997   */\n      tag_94\n        /* \"#utility.yul\":989:996   */\n      dup5\n        /* \"#utility.yul\":980:986   */\n      dup3\n        /* \"#utility.yul\":969:978   */\n      dup6\n        /* \"#utility.yul\":965:987   */\n      add\n        /* \"#utility.yul\":947:997   */\n      tag_61\n      jump\t// in\n    tag_94:\n        /* \"#utility.yul\":937:997   */\n      swap2\n      pop\n        /* \"#utility.yul\":893:1007   */\n      pop\n        /* \"#utility.yul\":691:1014   */\n      swap3\n      swap2\n      pop\n      pop\n      jump\t// out\n        /* \"#utility.yul\":1020:1146   */\n    tag_62:\n        /* \"#utility.yul\":1057:1064   */\n      0x00\n        /* \"#utility.yul\":1097:1139   */\n      0xffffffffffffffffffffffffffffffffffffffff\n        /* \"#utility.yul\":1090:1095   */\n      dup3\n        /* \"#utility.yul\":1086:1140   */\n      and\n        /* \"#utility.yul\":1075:1140   */\n      swap1\n      pop\n        /* \"#utility.yul\":1020:1146   */\n      swap2\n      swap1\n      pop\n      jump\t// out\n        /* \"#utility.yul\":1152:1248   */\n    tag_63:\n        /* \"#utility.yul\":1189:1196   */\n      0x00\n        /* \"#utility.yul\":1218:1242   */\n      tag_97\n        /* \"#utility.yul\":1236:1241   */\n      dup3\n        /* \"#utility.yul\":1218:1242   */\n      tag_62\n      jump\t// in\n    tag_97:\n        /* \"#utility.yul\":1207:1242   */\n      swap1\n      pop\n        /* \"#utility.yul\":1152:1248   */\n      swap2\n      swap1\n      pop\n      jump\t// out\n        /* \"#utility.yul\":1254:1376   */\n    tag_64:\n        /* \"#utility.yul\":1327:1351   */\n      tag_99\n        /* \"#utility.yul\":1345:1350   */\n      dup2\n        /* \"#utility.yul\":1327:1351   */\n      tag_63\n      jump\t// in\n    tag_99:\n        /* \"#utility.yul\":1320:1325   */\n      dup2\n        /* \"#utility.yul\":1317:1352   */\n      eq\n        /* \"#utility.yul\":1307:1370   */\n      tag_100\n      jumpi\n        /* \"#utility.yul\":1366:1367   */\n      0x00\n        /* \"#utility.yul\":1363:1364   */\n      0x00\n        /* \"#utility.yul\":1356:1368   */\n      revert\n        /* \"#utility.yul\":1307:1370   */\n    tag_100:\n        /* \"#utility.yul\":1254:1376   */\n      pop\n      jump\t// out\n        /* \"#utility.yul\":1382:1521   */\n    tag_65:\n        /* \"#utility.yul\":1428:1433   */\n      0x00\n        /* \"#utility.yul\":1466:1472   */\n      dup2\n        /* \"#utility.yul\":1453:1473   */\n      calldataload\n        /* \"#utility.yul\":1444:1473   */\n      swap1\n      pop\n        /* \"#utility.yul\":1482:1515   */\n      tag_102\n        /* \"#utility.yul\":1509:1514   */\n      dup2\n        /* \"#utility.yul\":1482:1515   */\n      tag_64\n      jump\t// in\n    tag_102:\n        /* \"#utility.yul\":1382:1521   */\n      swap3\n      swap2\n      pop\n      pop\n      jump\t// out\n        /* \"#utility.yul\":1527:1856   */\n    tag_15:\n        /* \"#utility.yul\":1586:1592   */\n      0x00\n        /* \"#utility.yul\":1635:1637   */\n      0x20\n        /* \"#utility.yul\":1623:1632   */\n      dup3\n        /* \"#utility.yul\":1614:1621   */\n      dup5\n        /* \"#utility.yul\":1610:1633   */\n      sub\n        /* \"#utility.yul\":1606:1638   */\n      slt\n        /* \"#utility.yul\":1603:1722   */\n      iszero\n      tag_104\n      jumpi\n        /* \"#utility.yul\":1641:1720   */\n      tag_105\n      tag_57\n      jump\t// in\n    tag_105:\n        /* \"#utility.yul\":1603:1722   */\n    tag_104:\n        /* \"#utility.yul\":1761:1762   */\n      0x00\n        /* \"#utility.yul\":1786:1839   */\n      tag_106\n        /* \"#utility.yul\":1831:1838   */\n      dup5\n        /* \"#utility.yul\":1822:1828   */\n      dup3\n        /* \"#utility.yul\":1811:1820   */\n      dup6\n        /* \"#utility.yul\":1807:1829   */\n      add\n        /* \"#utility.yul\":1786:1839   */\n      tag_65\n      jump\t// in\n    tag_106:\n        /* \"#utility.yul\":1776:1839   */\n      swap2\n      pop\n        /* \"#utility.yul\":1732:1849   */\n      pop\n        /* \"#utility.yul\":1527:1856   */\n      swap3\n      swap2\n      pop\n      pop\n      jump\t// out\n        /* \"#utility.yul\":1862:1939   */\n    tag_66:\n        /* \"#utility.yul\":1899:1906   */\n      0x00\n        /* \"#utility.yul\":1928:1933   */\n      dup2\n        /* \"#utility.yul\":1917:1933   */\n      swap1\n      pop\n        /* \"#utility.yul\":1862:1939   */\n      swap2\n      swap1\n      pop\n      jump\t// out\n        /* \"#utility.yul\":1945:2063   */\n    tag_67:\n        /* \"#utility.yul\":2032:2056   */\n      tag_109\n        /* \"#utility.yul\":2050:2055   */\n      dup2\n        /* \"#utility.yul\":2032:2056   */\n      tag_66\n      jump\t// in\n    tag_109:\n        /* \"#utility.yul\":2027:2030   */\n      dup3\n        /* \"#utility.yul\":2020:2057   */\n      mstore\n        /* \"#utility.yul\":1945:2063   */\n      pop\n      pop\n      jump\t// out\n        /* \"#utility.yul\":2069:2291   */\n    tag_18:\n        /* \"#utility.yul\":2162:2166   */\n      0x00\n        /* \"#utility.yul\":2200:2202   */\n      0x20\n        /* \"#utility.yul\":2189:2198   */\n      dup3\n        /* \"#utility.yul\":2185:2203   */\n      add\n        /* \"#utility.yul\":2177:2203   */\n      swap1\n      pop\n        /* \"#utility.yul\":2213:2284   */\n      tag_111\n        /* \"#utility.yul\":2281:2282   */\n      0x00\n        /* \"#utility.yul\":2270:2279   */\n      dup4\n        /* \"#utility.yul\":2266:2283   */\n      add\n        /* \"#utility.yul\":2257:2263   */\n      dup5\n        /* \"#utility.yul\":2213:2284   */\n      tag_67\n      jump\t// in\n    tag_111:\n        /* \"#utility.yul\":2069:2291   */\n      swap3\n      swap2\n      pop\n      pop\n      jump\t// out\n        /* \"#utility.yul\":2297:2419   */\n    tag_68:\n        /* \"#utility.yul\":2370:2394   */\n      tag_113\n        /* \"#utility.yul\":2388:2393   */\n      dup2\n        /* \"#utility.yul\":2370:2394   */\n      tag_66\n      jump\t// in\n    tag_113:\n        /* \"#utility.yul\":2363:2368   */\n      dup2\n        /* \"#utility.yul\":2360:2395   */\n      eq\n        /* \"#utility.yul\":2350:2413   */\n      tag_114\n      jumpi\n        /* \"#utility.yul\":2409:2410   */\n      0x00\n        /* \"#utility.yul\":2406:2407   */\n      0x00\n        /* \"#utility.yul\":2399:2411   */\n      revert\n        /* \"#utility.yul\":2350:2413   */\n    tag_114:\n        /* \"#utility.yul\":2297:2419   */\n      pop\n      jump\t// out\n        /* \"#utility.yul\":2425:2564   */\n    tag_69:\n        /* \"#utility.yul\":2471:2476   */\n      0x00\n        /* \"#utility.yul\":2509:2515   */\n      dup2\n        /* \"#utility.yul\":2496:2516   */\n      calldataload\n        /* \"#utility.yul\":2487:2516   */\n      swap1\n      pop\n        /* \"#utility.yul\":2525:2558   */\n      tag_116\n        /* \"#utility.yul\":2552:2557   */\n      dup2\n        /* \"#utility.yul\":2525:2558   */\n      tag_68\n      jump\t// in\n    tag_116:\n        /* \"#utility.yul\":2425:2564   */\n      swap3\n      swap2\n      pop\n      pop\n      jump\t// out\n        /* \"#utility.yul\":2570:2899   */\n    tag_21:\n        /* \"#utility.yul\":2629:2635   */\n      0x00\n        /* \"#utility.yul\":2678:2680   */\n      0x20\n        /* \"#utility.yul\":2666:2675   */\n      dup3\n        /* \"#utility.yul\":2657:2664   */\n      dup5\n        /* \"#utility.yul\":2653:2676   */\n      sub\n        /* \"#utility.yul\":2649:2681   */\n      slt\n        /* \"#utility.yul\":2646:2765   */\n      iszero\n      tag_118\n      jumpi\n        /* \"#utility.yul\":2684:2763   */\n      tag_119\n      tag_57\n      jump\t// in\n    tag_119:\n        /* \"#utility.yul\":2646:2765   */\n    tag_118:\n        /* \"#utility.yul\":2804:2805   */\n      0x00\n        /* \"#utility.yul\":2829:2882   */\n      tag_120\n        /* \"#utility.yul\":2874:2881   */\n      dup5\n        /* \"#utility.yul\":2865:2871   */\n      dup3\n        /* \"#utility.yul\":2854:2863   */\n      dup6\n        /* \"#utility.yul\":2850:2872   */\n      add\n        /* \"#utility.yul\":2829:2882   */\n      tag_69\n      jump\t// in\n    tag_120:\n        /* \"#utility.yul\":2819:2882   */\n      swap2\n      pop\n        /* \"#utility.yul\":2775:2892   */\n      pop\n        /* \"#utility.yul\":2570:2899   */\n      swap3\n      swap2\n      pop\n      pop\n      jump\t// out\n        /* \"#utility.yul\":2905:3004   */\n    tag_70:\n        /* \"#utility.yul\":2957:2963   */\n      0x00\n        /* \"#utility.yul\":2991:2996   */\n      dup2\n        /* \"#utility.yul\":2985:2997   */\n      mload\n        /* \"#utility.yul\":2975:2997   */\n      swap1\n      pop\n        /* \"#utility.yul\":2905:3004   */\n      swap2\n      swap1\n      pop\n      jump\t// out\n        /* \"#utility.yul\":3010:3179   */\n    tag_71:\n        /* \"#utility.yul\":3094:3105   */\n      0x00\n        /* \"#utility.yul\":3128:3134   */\n      dup3\n        /* \"#utility.yul\":3123:3126   */\n      dup3\n        /* \"#utility.yul\":3116:3135   */\n      mstore\n        /* \"#utility.yul\":3168:3172   */\n      0x20\n        /* \"#utility.yul\":3163:3166   */\n      dup3\n        /* \"#utility.yul\":3159:3173   */\n      add\n        /* \"#utility.yul\":3144:3173   */\n      swap1\n      pop\n        /* \"#utility.yul\":3010:3179   */\n      swap3\n      swap2\n      pop\n      pop\n      jump\t// out\n        /* \"#utility.yul\":3185:3324   */\n    tag_72:\n        /* \"#utility.yul\":3274:3280   */\n      dup3\n        /* \"#utility.yul\":3269:3272   */\n      dup2\n        /* \"#utility.yul\":3264:3267   */\n      dup4\n        /* \"#utility.yul\":3258:3281   */\n      mcopy\n        /* \"#utility.yul\":3315:3316   */\n      0x00\n        /* \"#utility.yul\":3306:3312   */\n      dup4\n        /* \"#utility.yul\":3301:3304   */\n      dup4\n        /* \"#utility.yul\":3297:3313   */\n      add\n        /* \"#utility.yul\":3290:3317   */\n      mstore\n        /* \"#utility.yul\":3185:3324   */\n      pop\n      pop\n      pop\n      jump\t// out\n        /* \"#utility.yul\":3330:3432   */\n    tag_73:\n        /* \"#utility.yul\":3371:3377   */\n      0x00\n        /* \"#utility.yul\":3422:3424   */\n      0x1f\n        /* \"#utility.yul\":3418:3425   */\n      not\n        /* \"#utility.yul\":3413:3415   */\n      0x1f\n        /* \"#utility.yul\":3406:3411   */\n      dup4\n        /* \"#utility.yul\":3402:3416   */\n      add\n        /* \"#utility.yul\":3398:3426   */\n      and\n        /* \"#utility.yul\":3388:3426   */\n      swap1\n      pop\n        /* \"#utility.yul\":3330:3432   */\n      swap2\n      swap1\n      pop\n      jump\t// out\n        /* \"#utility.yul\":3438:3815   */\n    tag_74:\n        /* \"#utility.yul\":3526:3529   */\n      0x00\n        /* \"#utility.yul\":3554:3593   */\n      tag_126\n        /* \"#utility.yul\":3587:3592   */\n      dup3\n        /* \"#utility.yul\":3554:3593   */\n      tag_70\n      jump\t// in\n    tag_126:\n        /* \"#utility.yul\":3609:3680   */\n      tag_127\n        /* \"#utility.yul\":3673:3679   */\n      dup2\n        /* \"#utility.yul\":3668:3671   */\n      dup6\n        /* \"#utility.yul\":3609:3680   */\n      tag_71\n      jump\t// in\n    tag_127:\n        /* \"#utility.yul\":3602:3680   */\n      swap4\n      pop\n        /* \"#utility.yul\":3689:3754   */\n      tag_128\n        /* \"#utility.yul\":3747:3753   */\n      dup2\n        /* \"#utility.yul\":3742:3745   */\n      dup6\n        /* \"#utility.yul\":3735:3739   */\n      0x20\n        /* \"#utility.yul\":3728:3733   */\n      dup7\n        /* \"#utility.yul\":3724:3740   */\n      add\n        /* \"#utility.yul\":3689:3754   */\n      tag_72\n      jump\t// in\n    tag_128:\n        /* \"#utility.yul\":3779:3808   */\n      tag_129\n        /* \"#utility.yul\":3801:3807   */\n      dup2\n        /* \"#utility.yul\":3779:3808   */\n      tag_73\n      jump\t// in\n    tag_129:\n        /* \"#utility.yul\":3774:3777   */\n      dup5\n        /* \"#utility.yul\":3770:3809   */\n      add\n        /* \"#utility.yul\":3763:3809   */\n      swap2\n      pop\n        /* \"#utility.yul\":3530:3815   */\n      pop\n        /* \"#utility.yul\":3438:3815   */\n      swap3\n      swap2\n      pop\n      pop\n      jump\t// out\n        /* \"#utility.yul\":3821:4134   */\n    tag_33:\n        /* \"#utility.yul\":3934:3938   */\n      0x00\n        /* \"#utility.yul\":3972:3974   */\n      0x20\n        /* \"#utility.yul\":3961:3970   */\n      dup3\n        /* \"#utility.yul\":3957:3975   */\n      add\n        /* \"#utility.yul\":3949:3975   */\n      swap1\n      pop\n        /* \"#utility.yul\":4021:4030   */\n      dup2\n        /* \"#utility.yul\":4015:4019   */\n      dup2\n        /* \"#utility.yul\":4011:4031   */\n      sub\n        /* \"#utility.yul\":4007:4008   */\n      0x00\n        /* \"#utility.yul\":3996:4005   */\n      dup4\n        /* \"#utility.yul\":3992:4009   */\n      add\n        /* \"#utility.yul\":3985:4032   */\n      mstore\n        /* \"#utility.yul\":4049:4127   */\n      tag_131\n        /* \"#utility.yul\":4122:4126   */\n      dup2\n        /* \"#utility.yul\":4113:4119   */\n      dup5\n        /* \"#utility.yul\":4049:4127   */\n      tag_74\n      jump\t// in\n    tag_131:\n        /* \"#utility.yul\":4041:4127   */\n      swap1\n      pop\n        /* \"#utility.yul\":3821:4134   */\n      swap3\n      swap2\n      pop\n      pop\n      jump\t// out\n        /* \"#utility.yul\":4140:4472   */\n    tag_39:\n        /* \"#utility.yul\":4261:4265   */\n      0x00\n        /* \"#utility.yul\":4299:4301   */\n      0x40\n        /* \"#utility.yul\":4288:4297   */\n      dup3\n        /* \"#utility.yul\":4284:4302   */\n      add\n        /* \"#utility.yul\":4276:4302   */\n      swap1\n      pop\n        /* \"#utility.yul\":4312:4383   */\n      tag_133\n        /* \"#utility.yul\":4380:4381   */\n      0x00\n        /* \"#utility.yul\":4369:4378   */\n      dup4\n        /* \"#utility.yul\":4365:4382   */\n      add\n        /* \"#utility.yul\":4356:4362   */\n      dup6\n        /* \"#utility.yul\":4312:4383   */\n      tag_67\n      jump\t// in\n    tag_133:\n        /* \"#utility.yul\":4393:4465   */\n      tag_134\n        /* \"#utility.yul\":4461:4463   */\n      0x20\n        /* \"#utility.yul\":4450:4459   */\n      dup4\n        /* \"#utility.yul\":4446:4464   */\n      add\n        /* \"#utility.yul\":4437:4443   */\n      dup5\n        /* \"#utility.yul\":4393:4465   */\n      tag_67\n      jump\t// in\n    tag_134:\n        /* \"#utility.yul\":4140:4472   */\n      swap4\n      swap3\n      pop\n      pop\n      pop\n      jump\t// out\n        /* \"#utility.yul\":4478:4658   */\n    tag_75:\n        /* \"#utility.yul\":4526:4603   */\n      0x4e487b7100000000000000000000000000000000000000000000000000000000\n        /* \"#utility.yul\":4523:4524   */\n      0x00\n        /* \"#utility.yul\":4516:4604   */\n      mstore\n        /* \"#utility.yul\":4623:4627   */\n      0x11\n        /* \"#utility.yul\":4620:4621   */\n      0x04\n        /* \"#utility.yul\":4613:4628   */\n      mstore\n        /* \"#utility.yul\":4647:4651   */\n      0x24\n        /* \"#utility.yul\":4644:4645   */\n      0x00\n        /* \"#utility.yul\":4637:4652   */\n      revert\n        /* \"#utility.yul\":4664:4858   */\n    tag_41:\n        /* \"#utility.yul\":4704:4708   */\n      0x00\n        /* \"#utility.yul\":4724:4744   */\n      tag_137\n        /* \"#utility.yul\":4742:4743   */\n      dup3\n        /* \"#utility.yul\":4724:4744   */\n      tag_66\n      jump\t// in\n    tag_137:\n        /* \"#utility.yul\":4719:4744   */\n      swap2\n      pop\n        /* \"#utility.yul\":4758:4778   */\n      tag_138\n        /* \"#utility.yul\":4776:4777   */\n      dup4\n        /* \"#utility.yul\":4758:4778   */\n      tag_66\n      jump\t// in\n    tag_138:\n        /* \"#utility.yul\":4753:4778   */\n      swap3\n      pop\n        /* \"#utility.yul\":4802:4803   */\n      dup3\n        /* \"#utility.yul\":4799:4800   */\n      dup3\n        /* \"#utility.yul\":4795:4804   */\n      sub\n        /* \"#utility.yul\":4787:4804   */\n      swap1\n      pop\n        /* \"#utility.yul\":4826:4827   */\n      dup2\n        /* \"#utility.yul\":4820:4824   */\n      dup2\n        /* \"#utility.yul\":4817:4828   */\n      gt\n        /* \"#utility.yul\":4814:4851   */\n      iszero\n      tag_139\n      jumpi\n        /* \"#utility.yul\":4831:4849   */\n      tag_140\n      tag_75\n      jump\t// in\n    tag_140:\n        /* \"#utility.yul\":4814:4851   */\n    tag_139:\n        /* \"#utility.yul\":4664:4858   */\n      swap3\n      swap2\n      pop\n      pop\n      jump\t// out\n        /* \"#utility.yul\":4864:5055   */\n    tag_45:\n        /* \"#utility.yul\":4904:4907   */\n      0x00\n        /* \"#utility.yul\":4923:4943   */\n      tag_142\n        /* \"#utility.yul\":4941:4942   */\n      dup3\n        /* \"#utility.yul\":4923:4943   */\n      tag_66\n      jump\t// in\n    tag_142:\n        /* \"#utility.yul\":4918:4943   */\n      swap2\n      pop\n        /* \"#utility.yul\":4957:4977   */\n      tag_143\n        /* \"#utility.yul\":4975:4976   */\n      dup4\n        /* \"#utility.yul\":4957:4977   */\n      tag_66\n      jump\t// in\n    tag_143:\n        /* \"#utility.yul\":4952:4977   */\n      swap3\n      pop\n        /* \"#utility.yul\":5000:5001   */\n      dup3\n        /* \"#utility.yul\":4997:4998   */\n      dup3\n        /* \"#utility.yul\":4993:5002   */\n      add\n        /* \"#utility.yul\":4986:5002   */\n      swap1\n      pop\n        /* \"#utility.yul\":5021:5024   */\n      dup1\n        /* \"#utility.yul\":5018:5019   */\n      dup3\n        /* \"#utility.yul\":5015:5025   */\n      gt\n        /* \"#utility.yul\":5012:5048   */\n      iszero\n      tag_144\n      jumpi\n        /* \"#utility.yul\":5028:5046   */\n      tag_145\n      tag_75\n      jump\t// in\n    tag_145:\n        /* \"#utility.yul\":5012:5048   */\n    tag_144:\n        /* \"#utility.yul\":4864:5055   */\n      swap3\n      swap2\n      pop\n      pop\n      jump\t// out\n        /* \"#utility.yul\":5061:5231   */\n    tag_76:\n        /* \"#utility.yul\":5201:5223   */\n      0x416d6f756e742065786365656473206c696d6974000000000000000000000000\n        /* \"#utility.yul\":5197:5198   */\n      0x00\n        /* \"#utility.yul\":5189:5195   */\n      dup3\n        /* \"#utility.yul\":5185:5199   */\n      add\n        /* \"#utility.yul\":5178:5224   */\n      mstore\n        /* \"#utility.yul\":5061:5231   */\n      pop\n      jump\t// out\n        /* \"#utility.yul\":5237:5603   */\n    tag_77:\n        /* \"#utility.yul\":5379:5382   */\n      0x00\n        /* \"#utility.yul\":5400:5467   */\n      tag_148\n        /* \"#utility.yul\":5464:5466   */\n      0x14\n        /* \"#utility.yul\":5459:5462   */\n      dup4\n        /* \"#utility.yul\":5400:5467   */\n      tag_71\n      jump\t// in\n    tag_148:\n        /* \"#utility.yul\":5393:5467   */\n      swap2\n      pop\n        /* \"#utility.yul\":5476:5569   */\n      tag_149\n        /* \"#utility.yul\":5565:5568   */\n      dup3\n        /* \"#utility.yul\":5476:5569   */\n      tag_76\n      jump\t// in\n    tag_149:\n        /* \"#utility.yul\":5594:5596   */\n      0x20\n        /* \"#utility.yul\":5589:5592   */\n      dup3\n        /* \"#utility.yul\":5585:5597   */\n      add\n        /* \"#utility.yul\":5578:5597   */\n      swap1\n      pop\n        /* \"#utility.yul\":5237:5603   */\n      swap2\n      swap1\n      pop\n      jump\t// out\n        /* \"#utility.yul\":5609:6028   */\n    tag_49:\n        /* \"#utility.yul\":5775:5779   */\n      0x00\n        /* \"#utility.yul\":5813:5815   */\n      0x20\n        /* \"#utility.yul\":5802:5811   */\n      dup3\n        /* \"#utility.yul\":5798:5816   */\n      add\n        /* \"#utility.yul\":5790:5816   */\n      swap1\n      pop\n        /* \"#utility.yul\":5862:5871   */\n      dup2\n        /* \"#utility.yul\":5856:5860   */\n      dup2\n        /* \"#utility.yul\":5852:5872   */\n      sub\n        /* \"#utility.yul\":5848:5849   */\n      0x00\n        /* \"#utility.yul\":5837:5846   */\n      dup4\n        /* \"#utility.yul\":5833:5850   */\n      add\n        /* \"#utility.yul\":5826:5873   */\n      mstore\n        /* \"#utility.yul\":5890:6021   */\n      tag_151\n        /* \"#utility.yul\":6016:6020   */\n      dup2\n        /* \"#utility.yul\":5890:6021   */\n      tag_77\n      jump\t// in\n    tag_151:\n        /* \"#utility.yul\":5882:6021   */\n      swap1\n      pop\n        /* \"#utility.yul\":5609:6028   */\n      swap2\n      swap1\n      pop\n      jump\t// out\n        /* \"#utility.yul\":6034:6214   */\n    tag_78:\n        /* \"#utility.yul\":6082:6159   */\n      0x4e487b7100000000000000000000000000000000000000000000000000000000\n        /* \"#utility.yul\":6079:6080   */\n      0x00\n        /* \"#utility.yul\":6072:6160   */\n      mstore\n        /* \"#utility.yul\":6179:6183   */\n      0x12\n        /* \"#utility.yul\":6176:6177   */\n      0x04\n        /* \"#utility.yul\":6169:6184   */\n      mstore\n        /* \"#utility.yul\":6203:6207   */\n      0x24\n        /* \"#utility.yul\":6200:6201   */\n      0x00\n        /* \"#utility.yul\":6193:6208   */\n      revert\n        /* \"#utility.yul\":6220:6396   */\n    tag_52:\n        /* \"#utility.yul\":6252:6253   */\n      0x00\n        /* \"#utility.yul\":6269:6289   */\n      tag_154\n        /* \"#utility.yul\":6287:6288   */\n      dup3\n        /* \"#utility.yul\":6269:6289   */\n      tag_66\n      jump\t// in\n    tag_154:\n        /* \"#utility.yul\":6264:6289   */\n      swap2\n      pop\n        /* \"#utility.yul\":6303:6323   */\n      tag_155\n        /* \"#utility.yul\":6321:6322   */\n      dup4\n        /* \"#utility.yul\":6303:6323   */\n      tag_66\n      jump\t// in\n    tag_155:\n        /* \"#utility.yul\":6298:6323   */\n      swap3\n      pop\n        /* \"#utility.yul\":6342:6343   */\n      dup3\n        /* \"#utility.yul\":6332:6367   */\n      tag_156\n      jumpi\n        /* \"#utility.yul\":6347:6365   */\n      tag_157\n      tag_78\n      jump\t// in\n    tag_157:\n        /* \"#utility.yul\":6332:6367   */\n    tag_156:\n        /* \"#utility.yul\":6388:6389   */\n      dup3\n        /* \"#utility.yul\":6385:6386   */\n      dup3\n        /* \"#utility.yul\":6381:6390   */\n      mod\n        /* \"#utility.yul\":6376:6390   */\n      swap1\n      pop\n        /* \"#utility.yul\":6220:6396   */\n      swap3\n      swap2\n      pop\n      pop\n      jump\t// out\n        /* \"#utility.yul\":6402:6571   */\n    tag_79:\n        /* \"#utility.yul\":6542:6563   */\n      0x4f6464206e756d6265722072656a656374656400000000000000000000000000\n        /* \"#utility.yul\":6538:6539   */\n      0x00\n        /* \"#utility.yul\":6530:6536   */\n      dup3\n        /* \"#utility.yul\":6526:6540   */\n      add\n        /* \"#utility.yul\":6519:6564   */\n      mstore\n        /* \"#utility.yul\":6402:6571   */\n      pop\n      jump\t// out\n        /* \"#utility.yul\":6577:6943   */\n    tag_80:\n        /* \"#utility.yul\":6719:6722   */\n      0x00\n        /* \"#utility.yul\":6740:6807   */\n      tag_160\n        /* \"#utility.yul\":6804:6806   */\n      0x13\n        /* \"#utility.yul\":6799:6802   */\n      dup4\n        /* \"#utility.yul\":6740:6807   */\n      tag_71\n      jump\t// in\n    tag_160:\n        /* \"#utility.yul\":6733:6807   */\n      swap2\n      pop\n        /* \"#utility.yul\":6816:6909   */\n      tag_161\n        /* \"#utility.yul\":6905:6908   */\n      dup3\n        /* \"#utility.yul\":6816:6909   */\n      tag_79\n      jump\t// in\n    tag_161:\n        /* \"#utility.yul\":6934:6936   */\n      0x20\n        /* \"#utility.yul\":6929:6932   */\n      dup3\n        /* \"#utility.yul\":6925:6937   */\n      add\n        /* \"#utility.yul\":6918:6937   */\n      swap1\n      pop\n        /* \"#utility.yul\":6577:6943   */\n      swap2\n      swap1\n      pop\n      jump\t// out\n        /* \"#utility.yul\":6949:7368   */\n    tag_55:\n        /* \"#utility.yul\":7115:7119   */\n      0x00\n        /* \"#utility.yul\":7153:7155   */\n      0x20\n        /* \"#utility.yul\":7142:7151   */\n      dup3\n        /* \"#utility.yul\":7138:7156   */\n      add\n        /* \"#utility.yul\":7130:7156   */\n      swap1\n      pop\n        /* \"#utility.yul\":7202:7211   */\n      dup2\n        /* \"#utility.yul\":7196:7200   */\n      dup2\n        /* \"#utility.yul\":7192:7212   */\n      sub\n        /* \"#utility.yul\":7188:7189   */\n      0x00\n        /* \"#utility.yul\":7177:7186   */\n      dup4\n        /* \"#utility.yul\":7173:7190   */\n      add\n        /* \"#utility.yul\":7166:7213   */\n      mstore\n        /* \"#utility.yul\":7230:7361   */\n      tag_163\n        /* \"#utility.yul\":7356:7360   */\n      dup2\n        /* \"#utility.yul\":7230:7361   */\n      tag_80\n      jump\t// in\n    tag_163:\n        /* \"#utility.yul\":7222:7361   */\n      swap1\n      pop\n        /* \"#utility.yul\":6949:7368   */\n      swap2\n      swap1\n      pop\n      jump\t// out\n\n    auxdata: 0xa26469706673582212201e8d9fcc0d751407259273b2e260ed854dcdac8b4cf536a9af41d7cdf4c3990a64736f6c63430008220033\n}\n",
				"bytecode": {
					"linkReferences": {},
					"object": "6080604052348015600e575f5ffd5b506107e58061001c5f395ff3fe608060405234801561000f575f5ffd5b5060043610610060575f3560e01c80630c86b48b1461006457806327e235e3146100805780632e1a7d4d146100b057806397feba9d146100cc578063a05beee8146100ea578063ce0b421314610106575b5f5ffd5b61007e60048036038101906100799190610402565b610136565b005b61009a60048036038101906100959190610487565b610143565b6040516100a791906104ca565b60405180910390f35b6100ca60048036038101906100c5919061050d565b610158565b005b6100d4610286565b6040516100e191906104ca565b60405180910390f35b61010460048036038101906100ff919061050d565b61028b565b005b610120600480360381019061011b919061050d565b61033c565b60405161012d91906105a8565b60405180910390f35b8015610140575f5ffd5b50565b6001602052805f5260405f205f915090505481565b8060015f3373ffffffffffffffffffffffffffffffffffffffff1673ffffffffffffffffffffffffffffffffffffffff1681526020019081526020015f205410156102195760015f3373ffffffffffffffffffffffffffffffffffffffff1673ffffffffffffffffffffffffffffffffffffffff1681526020019081526020015f2054816040517fcf4791810000000000000000000000000000000000000000000000000000000081526004016102109291906105c8565b60405180910390fd5b8060015f3373ffffffffffffffffffffffffffffffffffffffff1673ffffffffffffffffffffffffffffffffffffffff1681526020019081526020015f205f828254610265919061061c565b92505081905550805f5f82825461027c919061061c565b9250508190555050565b5f5481565b8060015f3373ffffffffffffffffffffffffffffffffffffffff1673ffffffffffffffffffffffffffffffffffffffff1681526020019081526020015f205f8282546102d7919061064f565b92505081905550805f5f8282546102ee919061064f565b92505081905550600a811115610339576040517f08c379a0000000000000000000000000000000000000000000000000000000008152600401610330906106cc565b60405180910390fd5b50565b60605f60028361034c9190610717565b1461038c576040517f08c379a000000000000000000000000000000000000000000000000000000000815260040161038390610791565b60405180910390fd5b6040518060400160405280601481526020017f4576656e206e756d6265722061636365707465640000000000000000000000008152509050919050565b5f5ffd5b5f8115159050919050565b6103e1816103cd565b81146103eb575f5ffd5b50565b5f813590506103fc816103d8565b92915050565b5f60208284031215610417576104166103c9565b5b5f610424848285016103ee565b91505092915050565b5f73ffffffffffffffffffffffffffffffffffffffff82169050919050565b5f6104568261042d565b9050919050565b6104668161044c565b8114610470575f5ffd5b50565b5f813590506104818161045d565b92915050565b5f6020828403121561049c5761049b6103c9565b5b5f6104a984828501610473565b91505092915050565b5f819050919050565b6104c4816104b2565b82525050565b5f6020820190506104dd5f8301846104bb565b92915050565b6104ec816104b2565b81146104f6575f5ffd5b50565b5f81359050610507816104e3565b92915050565b5f60208284031215610522576105216103c9565b5b5f61052f848285016104f9565b91505092915050565b5f81519050919050565b5f82825260208201905092915050565b8281835e5f83830152505050565b5f601f19601f8301169050919050565b5f61057a82610538565b6105848185610542565b9350610594818560208601610552565b61059d81610560565b840191505092915050565b5f6020820190508181035f8301526105c08184610570565b905092915050565b5f6040820190506105db5f8301856104bb565b6105e860208301846104bb565b9392505050565b7f4e487b71000000000000000000000000000000000000000000000000000000005f52601160045260245ffd5b5f610626826104b2565b9150610631836104b2565b9250828203905081811115610649576106486105ef565b5b92915050565b5f610659826104b2565b9150610664836104b2565b925082820190508082111561067c5761067b6105ef565b5b92915050565b7f416d6f756e742065786365656473206c696d69740000000000000000000000005f82015250565b5f6106b6601483610542565b91506106c182610682565b602082019050919050565b5f6020820190508181035f8301526106e3816106aa565b9050919050565b7f4e487b71000000000000000000000000000000000000000000000000000000005f52601260045260245ffd5b5f610721826104b2565b915061072c836104b2565b92508261073c5761073b6106ea565b5b828206905092915050565b7f4f6464206e756d6265722072656a6563746564000000000000000000000000005f82015250565b5f61077b601383610542565b915061078682610747565b602082019050919050565b5f6020820190508181035f8301526107a88161076f565b905091905056fea26469706673582212201e8d9fcc0d751407259273b2e260ed854dcdac8b4cf536a9af41d7cdf4c3990a64736f6c63430008220033",
					"opcodes": "PUSH1 0x80 PUSH1 0x40 MSTORE CALLVALUE DUP1 ISZERO PUSH1 0xE JUMPI PUSH0 PUSH0 REVERT JUMPDEST POP PUSH2 0x7E5 DUP1 PUSH2 0x1C PUSH0 CODECOPY PUSH0 RETURN INVALID PUSH1 0x80 PUSH1 0x40 MSTORE CALLVALUE DUP1 ISZERO PUSH2 0xF JUMPI PUSH0 PUSH0 REVERT JUMPDEST POP PUSH1 0x4 CALLDATASIZE LT PUSH2 0x60 JUMPI PUSH0 CALLDATALOAD PUSH1 0xE0 SHR DUP1 PUSH4 0xC86B48B EQ PUSH2 0x64 JUMPI DUP1 PUSH4 0x27E235E3 EQ PUSH2 0x80 JUMPI DUP1 PUSH4 0x2E1A7D4D EQ PUSH2 0xB0 JUMPI DUP1 PUSH4 0x97FEBA9D EQ PUSH2 0xCC JUMPI DUP1 PUSH4 0xA05BEEE8 EQ PUSH2 0xEA JUMPI DUP1 PUSH4 0xCE0B4213 EQ PUSH2 0x106 JUMPI JUMPDEST PUSH0 PUSH0 REVERT JUMPDEST PUSH2 0x7E PUSH1 0x4 DUP1 CALLDATASIZE SUB DUP2 ADD SWAP1 PUSH2 0x79 SWAP2 SWAP1 PUSH2 0x402 JUMP JUMPDEST PUSH2 0x136 JUMP JUMPDEST STOP JUMPDEST PUSH2 0x9A PUSH1 0x4 DUP1 CALLDATASIZE SUB DUP2 ADD SWAP1 PUSH2 0x95 SWAP2 SWAP1 PUSH2 0x487 JUMP JUMPDEST PUSH2 0x143 JUMP JUMPDEST PUSH1 0x40 MLOAD PUSH2 0xA7 SWAP2 SWAP1 PUSH2 0x4CA JUMP JUMPDEST PUSH1 0x40 MLOAD DUP1 SWAP2 SUB SWAP1 RETURN JUMPDEST PUSH2 0xCA PUSH1 0x4 DUP1 CALLDATASIZE SUB DUP2 ADD SWAP1 PUSH2 0xC5 SWAP2 SWAP1 PUSH2 0x50D JUMP JUMPDEST PUSH2 0x158 JUMP JUMPDEST STOP JUMPDEST PUSH2 0xD4 PUSH2 0x286 JUMP JUMPDEST PUSH1 0x40 MLOAD PUSH2 0xE1 SWAP2 SWAP1 PUSH2 0x4CA JUMP JUMPDEST PUSH1 0x40 MLOAD DUP1 SWAP2 SUB SWAP1 RETURN JUMPDEST PUSH2 0x104 PUSH1 0x4 DUP1 CALLDATASIZE SUB DUP2 ADD SWAP1 PUSH2 0xFF SWAP2 SWAP1 PUSH2 0x50D JUMP JUMPDEST PUSH2 0x28B JUMP JUMPDEST STOP JUMPDEST PUSH2 0x120 PUSH1 0x4 DUP1 CALLDATASIZE SUB DUP2 ADD SWAP1 PUSH2 0x11B SWAP2 SWAP1 PUSH2 0x50D JUMP JUMPDEST PUSH2 0x33C JUMP JUMPDEST PUSH1 0x40 MLOAD PUSH2 0x12D SWAP2 SWAP1 PUSH2 0x5A8 JUMP JUMPDEST PUSH1 0x40 MLOAD DUP1 SWAP2 SUB SWAP1 RETURN JUMPDEST DUP1 ISZERO PUSH2 0x140 JUMPI PUSH0 PUSH0 REVERT JUMPDEST POP JUMP JUMPDEST PUSH1 0x1 PUSH1 0x20 MSTORE DUP1 PUSH0 MSTORE PUSH1 0x40 PUSH0 KECCAK256 PUSH0 SWAP2 POP SWAP1 POP SLOAD DUP2 JUMP JUMPDEST DUP1 PUSH1 0x1 PUSH0 CALLER PUSH20 0xFFFFFFFFFFFFFFFFFFFFFFFFFFFFFFFFFFFFFFFF AND PUSH20 0xFFFFFFFFFFFFFFFFFFFFFFFFFFFFFFFFFFFFFFFF AND DUP2 MSTORE PUSH1 0x20 ADD SWAP1 DUP2 MSTORE PUSH1 0x20 ADD PUSH0 KECCAK256 SLOAD LT ISZERO PUSH2 0x219 JUMPI PUSH1 0x1 PUSH0 CALLER PUSH20 0xFFFFFFFFFFFFFFFFFFFFFFFFFFFFFFFFFFFFFFFF AND PUSH20 0xFFFFFFFFFFFFFFFFFFFFFFFFFFFFFFFFFFFFFFFF AND DUP2 MSTORE PUSH1 0x20 ADD SWAP1 DUP2 MSTORE PUSH1 0x20 ADD PUSH0 KECCAK256 SLOAD DUP2 PUSH1 0x40 MLOAD PUSH32 0xCF47918100000000000000000000000000000000000000000000000000000000 DUP2 MSTORE PUSH1 0x4 ADD PUSH2 0x210 SWAP3 SWAP2 SWAP1 PUSH2 0x5C8 JUMP JUMPDEST PUSH1 0x40 MLOAD DUP1 SWAP2 SUB SWAP1 REVERT JUMPDEST DUP1 PUSH1 0x1 PUSH0 CALLER PUSH20 0xFFFFFFFFFFFFFFFFFFFFFFFFFFFFFFFFFFFFFFFF AND PUSH20 0xFFFFFFFFFFFFFFFFFFFFFFFFFFFFFFFFFFFFFFFF AND DUP2 MSTORE PUSH1 0x20 ADD SWAP1 DUP2 MSTORE PUSH1 0x20 ADD PUSH0 KECCAK256 PUSH0 DUP3 DUP3 SLOAD PUSH2 0x265 SWAP2 SWAP1 PUSH2 0x61C JUMP JUMPDEST SWAP3 POP POP DUP2 SWAP1 SSTORE POP DUP1 PUSH0 PUSH0 DUP3 DUP3 SLOAD PUSH2 0x27C SWAP2 SWAP1 PUSH2 0x61C JUMP JUMPDEST SWAP3 POP POP DUP2 SWAP1 SSTORE POP POP JUMP JUMPDEST PUSH0 SLOAD DUP2 JUMP JUMPDEST DUP1 PUSH1 0x1 PUSH0 CALLER PUSH20 0xFFFFFFFFFFFFFFFFFFFFFFFFFFFFFFFFFFFFFFFF AND PUSH20 0xFFFFFFFFFFFFFFFFFFFFFFFFFFFFFFFFFFFFFFFF AND DUP2 MSTORE PUSH1 0x20 ADD SWAP1 DUP2 MSTORE PUSH1 0x20 ADD PUSH0 KECCAK256 PUSH0 DUP3 DUP3 SLOAD PUSH2 0x2D7 SWAP2 SWAP1 PUSH2 0x64F JUMP JUMPDEST SWAP3 POP POP DUP2 SWAP1 SSTORE POP DUP1 PUSH0 PUSH0 DUP3 DUP3 SLOAD PUSH2 0x2EE SWAP2 SWAP1 PUSH2 0x64F JUMP JUMPDEST SWAP3 POP POP DUP2 SWAP1 SSTORE POP PUSH1 0xA DUP2 GT ISZERO PUSH2 0x339 JUMPI PUSH1 0x40 MLOAD PUSH32 0x8C379A000000000000000000000000000000000000000000000000000000000 DUP2 MSTORE PUSH1 0x4 ADD PUSH2 0x330 SWAP1 PUSH2 0x6CC JUMP JUMPDEST PUSH1 0x40 MLOAD DUP1 SWAP2 SUB SWAP1 REVERT JUMPDEST POP JUMP JUMPDEST PUSH1 0x60 PUSH0 PUSH1 0x2 DUP4 PUSH2 0x34C SWAP2 SWAP1 PUSH2 0x717 JUMP JUMPDEST EQ PUSH2 0x38C JUMPI PUSH1 0x40 MLOAD PUSH32 0x8C379A000000000000000000000000000000000000000000000000000000000 DUP2 MSTORE PUSH1 0x4 ADD PUSH2 0x383 SWAP1 PUSH2 0x791 JUMP JUMPDEST PUSH1 0x40 MLOAD DUP1 SWAP2 SUB SWAP1 REVERT JUMPDEST PUSH1 0x40 MLOAD DUP1 PUSH1 0x40 ADD PUSH1 0x40 MSTORE DUP1 PUSH1 0x14 DUP2 MSTORE PUSH1 0x20 ADD PUSH32 0x4576656E206E756D626572206163636570746564000000000000000000000000 DUP2 MSTORE POP SWAP1 POP SWAP2 SWAP1 POP JUMP JUMPDEST PUSH0 PUSH0 REVERT JUMPDEST PUSH0 DUP2 ISZERO ISZERO SWAP1 POP SWAP2 SWAP1 POP JUMP JUMPDEST PUSH2 0x3E1 DUP2 PUSH2 0x3CD JUMP JUMPDEST DUP2 EQ PUSH2 0x3EB JUMPI PUSH0 PUSH0 REVERT JUMPDEST POP JUMP JUMPDEST PUSH0 DUP2 CALLDATALOAD SWAP1 POP PUSH2 0x3FC DUP2 PUSH2 0x3D8 JUMP JUMPDEST SWAP3 SWAP2 POP POP JUMP JUMPDEST PUSH0 PUSH1 0x20 DUP3 DUP5 SUB SLT ISZERO PUSH2 0x417 JUMPI PUSH2 0x416 PUSH2 0x3C9 JUMP JUMPDEST JUMPDEST PUSH0 PUSH2 0x424 DUP5 DUP3 DUP6 ADD PUSH2 0x3EE JUMP JUMPDEST SWAP2 POP POP SWAP3 SWAP2 POP POP JUMP JUMPDEST PUSH0 PUSH20 0xFFFFFFFFFFFFFFFFFFFFFFFFFFFFFFFFFFFFFFFF DUP3 AND SWAP1 POP SWAP2 SWAP1 POP JUMP JUMPDEST PUSH0 PUSH2 0x456 DUP3 PUSH2 0x42D JUMP JUMPDEST SWAP1 POP SWAP2 SWAP1 POP JUMP JUMPDEST PUSH2 0x466 DUP2 PUSH2 0x44C JUMP JUMPDEST DUP2 EQ PUSH2 0x470 JUMPI PUSH0 PUSH0 REVERT JUMPDEST POP JUMP JUMPDEST PUSH0 DUP2 CALLDATALOAD SWAP1 POP PUSH2 0x481 DUP2 PUSH2 0x45D JUMP JUMPDEST SWAP3 SWAP2 POP POP JUMP JUMPDEST PUSH0 PUSH1 0x20 DUP3 DUP5 SUB SLT ISZERO PUSH2 0x49C JUMPI PUSH2 0x49B PUSH2 0x3C9 JUMP JUMPDEST JUMPDEST PUSH0 PUSH2 0x4A9 DUP5 DUP3 DUP6 ADD PUSH2 0x473 JUMP JUMPDEST SWAP2 POP POP SWAP3 SWAP2 POP POP JUMP JUMPDEST PUSH0 DUP2 SWAP1 POP SWAP2 SWAP1 POP JUMP JUMPDEST PUSH2 0x4C4 DUP2 PUSH2 0x4B2 JUMP JUMPDEST DUP3 MSTORE POP POP JUMP JUMPDEST PUSH0 PUSH1 0x20 DUP3 ADD SWAP1 POP PUSH2 0x4DD PUSH0 DUP4 ADD DUP5 PUSH2 0x4BB JUMP JUMPDEST SWAP3 SWAP2 POP POP JUMP JUMPDEST PUSH2 0x4EC DUP2 PUSH2 0x4B2 JUMP JUMPDEST DUP2 EQ PUSH2 0x4F6 JUMPI PUSH0 PUSH0 REVERT JUMPDEST POP JUMP JUMPDEST PUSH0 DUP2 CALLDATALOAD SWAP1 POP PUSH2 0x507 DUP2 PUSH2 0x4E3 JUMP JUMPDEST SWAP3 SWAP2 POP POP JUMP JUMPDEST PUSH0 PUSH1 0x20 DUP3 DUP5 SUB SLT ISZERO PUSH2 0x522 JUMPI PUSH2 0x521 PUSH2 0x3C9 JUMP JUMPDEST JUMPDEST PUSH0 PUSH2 0x52F DUP5 DUP3 DUP6 ADD PUSH2 0x4F9 JUMP JUMPDEST SWAP2 POP POP SWAP3 SWAP2 POP POP JUMP JUMPDEST PUSH0 DUP2 MLOAD SWAP1 POP SWAP2 SWAP1 POP JUMP JUMPDEST PUSH0 DUP3 DUP3 MSTORE PUSH1 0x20 DUP3 ADD SWAP1 POP SWAP3 SWAP2 POP POP JUMP JUMPDEST DUP3 DUP2 DUP4 MCOPY PUSH0 DUP4 DUP4 ADD MSTORE POP POP POP JUMP JUMPDEST PUSH0 PUSH1 0x1F NOT PUSH1 0x1F DUP4 ADD AND SWAP1 POP SWAP2 SWAP1 POP JUMP JUMPDEST PUSH0 PUSH2 0x57A DUP3 PUSH2 0x538 JUMP JUMPDEST PUSH2 0x584 DUP2 DUP6 PUSH2 0x542 JUMP JUMPDEST SWAP4 POP PUSH2 0x594 DUP2 DUP6 PUSH1 0x20 DUP7 ADD PUSH2 0x552 JUMP JUMPDEST PUSH2 0x59D DUP2 PUSH2 0x560 JUMP JUMPDEST DUP5 ADD SWAP2 POP POP SWAP3 SWAP2 POP POP JUMP JUMPDEST PUSH0 PUSH1 0x20 DUP3 ADD SWAP1 POP DUP2 DUP2 SUB PUSH0 DUP4 ADD MSTORE PUSH2 0x5C0 DUP2 DUP5 PUSH2 0x570 JUMP JUMPDEST SWAP1 POP SWAP3 SWAP2 POP POP JUMP JUMPDEST PUSH0 PUSH1 0x40 DUP3 ADD SWAP1 POP PUSH2 0x5DB PUSH0 DUP4 ADD DUP6 PUSH2 0x4BB JUMP JUMPDEST PUSH2 0x5E8 PUSH1 0x20 DUP4 ADD DUP5 PUSH2 0x4BB JUMP JUMPDEST SWAP4 SWAP3 POP POP POP JUMP JUMPDEST PUSH32 0x4E487B7100000000000000000000000000000000000000000000000000000000 PUSH0 MSTORE PUSH1 0x11 PUSH1 0x4 MSTORE PUSH1 0x24 PUSH0 REVERT JUMPDEST PUSH0 PUSH2 0x626 DUP3 PUSH2 0x4B2 JUMP JUMPDEST SWAP2 POP PUSH2 0x631 DUP4 PUSH2 0x4B2 JUMP JUMPDEST SWAP3 POP DUP3 DUP3 SUB SWAP1 POP DUP2 DUP2 GT ISZERO PUSH2 0x649 JUMPI PUSH2 0x648 PUSH2 0x5EF JUMP JUMPDEST JUMPDEST SWAP3 SWAP2 POP POP JUMP JUMPDEST PUSH0 PUSH2 0x659 DUP3 PUSH2 0x4B2 JUMP JUMPDEST SWAP2 POP PUSH2 0x664 DUP4 PUSH2 0x4B2 JUMP JUMPDEST SWAP3 POP DUP3 DUP3 ADD SWAP1 POP DUP1 DUP3 GT ISZERO PUSH2 0x67C JUMPI PUSH2 0x67B PUSH2 0x5EF JUMP JUMPDEST JUMPDEST SWAP3 SWAP2 POP POP JUMP JUMPDEST PUSH32 0x416D6F756E742065786365656473206C696D6974000000000000000000000000 PUSH0 DUP3 ADD MSTORE POP JUMP JUMPDEST PUSH0 PUSH2 0x6B6 PUSH1 0x14 DUP4 PUSH2 0x542 JUMP JUMPDEST SWAP2 POP PUSH2 0x6C1 DUP3 PUSH2 0x682 JUMP JUMPDEST PUSH1 0x20 DUP3 ADD SWAP1 POP SWAP2 SWAP1 POP JUMP JUMPDEST PUSH0 PUSH1 0x20 DUP3 ADD SWAP1 POP DUP2 DUP2 SUB PUSH0 DUP4 ADD MSTORE PUSH2 0x6E3 DUP2 PUSH2 0x6AA JUMP JUMPDEST SWAP1 POP SWAP2 SWAP1 POP JUMP JUMPDEST PUSH32 0x4E487B7100000000000000000000000000000000000000000000000000000000 PUSH0 MSTORE PUSH1 0x12 PUSH1 0x4 MSTORE PUSH1 0x24 PUSH0 REVERT JUMPDEST PUSH0 PUSH2 0x721 DUP3 PUSH2 0x4B2 JUMP JUMPDEST SWAP2 POP PUSH2 0x72C DUP4 PUSH2 0x4B2 JUMP JUMPDEST SWAP3 POP DUP3 PUSH2 0x73C JUMPI PUSH2 0x73B PUSH2 0x6EA JUMP JUMPDEST JUMPDEST DUP3 DUP3 MOD SWAP1 POP SWAP3 SWAP2 POP POP JUMP JUMPDEST PUSH32 0x4F6464206E756D6265722072656A656374656400000000000000000000000000 PUSH0 DUP3 ADD MSTORE POP JUMP JUMPDEST PUSH0 PUSH2 0x77B PUSH1 0x13 DUP4 PUSH2 0x542 JUMP JUMPDEST SWAP2 POP PUSH2 0x786 DUP3 PUSH2 0x747 JUMP JUMPDEST PUSH1 0x20 DUP3 ADD SWAP1 POP SWAP2 SWAP1 POP JUMP JUMPDEST PUSH0 PUSH1 0x20 DUP3 ADD SWAP1 POP DUP2 DUP2 SUB PUSH0 DUP4 ADD MSTORE PUSH2 0x7A8 DUP2 PUSH2 0x76F JUMP JUMPDEST SWAP1 POP SWAP2 SWAP1 POP JUMP INVALID LOG2 PUSH5 0x6970667358 0x22 SLT KECCAK256 CLZ DUP14 SWAP16 0xCC 0xD PUSH22 0x1407259273B2E260ED854DCDAC8B4CF536A9AF41D7CD DELEGATECALL 0xC3 SWAP10 EXP PUSH5 0x736F6C6343 STOP ADDMOD 0x22 STOP CALLER "
				},
				"gasEstimates": {
					"creation": {
						"codeDepositCost": "404200",
						"executionCost": "441",
						"totalCost": "404641"
					},
					"external": {
						"balances(address)": "2802",
						"dangerousDeposit(uint256)": "infinite",
						"onlyEven(uint256)": "infinite",
						"silentRevert(bool)": "405",
						"totalCounter()": "2468",
						"withdraw(uint256)": "infinite"
					}
				},
				"methodIdentifiers": {
					"balances(address)": "27e235e3",
					"dangerousDeposit(uint256)": "a05beee8",
					"onlyEven(uint256)": "ce0b4213",
					"silentRevert(bool)": "0c86b48b",
					"totalCounter()": "97feba9d",
					"withdraw(uint256)": "2e1a7d4d"
				}
			},
			"storageLayout": {
				"storage": [
					{
						"astId": 69,
						"contract": "val46.sol:ManualRevertExample",
						"label": "totalCounter",
						"offset": 0,
						"slot": "0",
						"type": "t_uint256"
					},
					{
						"astId": 73,
						"contract": "val46.sol:ManualRevertExample",
						"label": "balances",
						"offset": 0,
						"slot": "1",
						"type": "t_mapping(t_address,t_uint256)"
					}
				],
				"types": {
					"t_address": {
						"encoding": "inplace",
						"label": "address",
						"numberOfBytes": "20"
					},
					"t_mapping(t_address,t_uint256)": {
						"encoding": "mapping",
						"key": "t_address",
						"label": "mapping(address => uint256)",
						"numberOfBytes": "32",
						"value": "t_uint256"
					},
					"t_uint256": {
						"encoding": "inplace",
						"label": "uint256",
						"numberOfBytes": "32"
					}
				}
			},
			"userdoc": {
				"kind": "user",
				"methods": {},
				"version": 1
			}
		}
	}
}