{
	"val28.sol": {
		"ReadCalldataValuesval": {
			"abi": [
				{
					"inputs": [],
					"name": "lastMessage",
					"outputs": [
						{
							"internalType": "string",
							"name": "",
							"type": "string"
						}
					],
					"stateMutability": "view",
					"type": "function"
				},
				{
					"inputs": [],
					"name": "lastNumber",
					"outputs": [
						{
							"internalType": "uint256",
							"name": "",
							"type": "uint256"
						}
					],
					"stateMutability": "view",
					"type": "function"
				},
				{
					"inputs": [
						{
							"internalType": "uint256",
							"name": "_age",
							"type": "uint256"
						},
						{
							"internalType": "bool",
							"name": "_active",
							"type": "bool"
						},
						{
							"internalType": "address",
							"name": "_user",
							"type": "address"
						}
					],
					"name": "readMultipleInputs",
					"outputs": [
						{
							"internalType": "uint256",
							"name": "",
							"type": "uint256"
						},
						{
							"internalType": "bool",
							"name": "",
							"type": "bool"
						},
						{
							"internalType": "address",
							"name": "",
							"type": "address"
						}
					],
					"stateMutability": "pure",
					"type": "function"
				},
				{
					"inputs": [
						{
							"internalType": "string",
							"name": "_message",
							"type": "string"
						}
					],
					"name": "readString",
					"outputs": [
						{
							"internalType": "string",
							"name": "",
							"type": "string"
						}
					],
					"stateMutability": "pure",
					"type": "function"
				},
				{
					"inputs": [
						{
							"internalType": "uint256",
							"name": "_number",
							"type": "uint256"
						}
					],
					"name": "readUint",
					"outputs": [
						{
							"internalType": "uint256",
							"name": "",
							"type": "uint256"
						}
					],
					"stateMutability": "pure",
					"type": "function"
				},
				{
					"inputs": [
						{
							"internalType": "uint256",
							"name": "_number",
							"type": "uint256"
						},
						{
							"internalType": "string",
							"name": "_message",
							"type": "string"
						}
					],
					"name": "saveInput",
					"outputs": [],
					"stateMutability": "nonpayable",
					"type": "function"
				}
			],
			"devdoc": {
				"kind": "dev",
				"methods": {},
				"version": 1
			},
			"evm": {
				"assembly": "    /* \"val28.sol\":1849:3461  contract ReadCalldataValuesval {... */\n  mstore(0x40, 0x80)\n  callvalue\n  dup1\n  iszero\n  tag_1\n  jumpi\n  revert(0x00, 0x00)\ntag_1:\n  pop\n  dataSize(sub_0)\n  dup1\n  dataOffset(sub_0)\n  0x00\n  codecopy\n  0x00\n  return\nstop\n\nsub_0: assembly {\n        /* \"val28.sol\":1849:3461  contract ReadCalldataValuesval {... */\n      mstore(0x40, 0x80)\n      callvalue\n      dup1\n      iszero\n      tag_1\n      jumpi\n      revert(0x00, 0x00)\n    tag_1:\n      pop\n      jumpi(tag_2, lt(calldatasize, 0x04))\n      shr(0xe0, calldataload(0x00))\n      dup1\n      0x17679e13\n      eq\n      tag_3\n      jumpi\n      dup1\n      0x32970710\n      eq\n      tag_4\n      jumpi\n      dup1\n      0x42a91734\n      eq\n      tag_5\n      jumpi\n      dup1\n      0x85974f2f\n      eq\n      tag_6\n      jumpi\n      dup1\n      0xb3db9f1a\n      eq\n      tag_7\n      jumpi\n      dup1\n      0xcbfbca5e\n      eq\n      tag_8\n      jumpi\n    tag_2:\n      revert(0x00, 0x00)\n        /* \"val28.sol\":3176:3458  function saveInput(... */\n    tag_3:\n      tag_9\n      0x04\n      dup1\n      calldatasize\n      sub\n      dup2\n      add\n      swap1\n      tag_10\n      swap2\n      swap1\n      tag_11\n      jump\t// in\n    tag_10:\n      tag_12\n      jump\t// in\n    tag_9:\n      stop\n        /* \"val28.sol\":1996:2021  string public lastMessage */\n    tag_4:\n      tag_13\n      tag_14\n      jump\t// in\n    tag_13:\n      mload(0x40)\n      tag_15\n      swap2\n      swap1\n      tag_16\n      jump\t// in\n    tag_15:\n      mload(0x40)\n      dup1\n      swap2\n      sub\n      swap1\n      return\n        /* \"val28.sol\":2847:3168  function readString(... */\n    tag_5:\n      tag_17\n      0x04\n      dup1\n      calldatasize\n      sub\n      dup2\n      add\n      swap1\n      tag_18\n      swap2\n      swap1\n      tag_19\n      jump\t// in\n    tag_18:\n      tag_20\n      jump\t// in\n    tag_17:\n      mload(0x40)\n      tag_21\n      swap2\n      swap1\n      tag_16\n      jump\t// in\n    tag_21:\n      mload(0x40)\n      dup1\n      swap2\n      sub\n      swap1\n      return\n        /* \"val28.sol\":2351:2839  function readMultipleInputs(... */\n    tag_6:\n      tag_22\n      0x04\n      dup1\n      calldatasize\n      sub\n      dup2\n      add\n      swap1\n      tag_23\n      swap2\n      swap1\n      tag_24\n      jump\t// in\n    tag_23:\n      tag_25\n      jump\t// in\n    tag_22:\n      mload(0x40)\n      tag_26\n      swap4\n      swap3\n      swap2\n      swap1\n      tag_27\n      jump\t// in\n    tag_26:\n      mload(0x40)\n      dup1\n      swap2\n      sub\n      swap1\n      return\n        /* \"val28.sol\":1962:1987  uint256 public lastNumber */\n    tag_7:\n      tag_28\n      tag_29\n      jump\t// in\n    tag_28:\n      mload(0x40)\n      tag_30\n      swap2\n      swap1\n      tag_31\n      jump\t// in\n    tag_30:\n      mload(0x40)\n      dup1\n      swap2\n      sub\n      swap1\n      return\n        /* \"val28.sol\":2030:2343  function readUint(... */\n    tag_8:\n      tag_32\n      0x04\n      dup1\n      calldatasize\n      sub\n      dup2\n      add\n      swap1\n      tag_33\n      swap2\n      swap1\n      tag_34\n      jump\t// in\n    tag_33:\n      tag_35\n      jump\t// in\n    tag_32:\n      mload(0x40)\n      tag_36\n      swap2\n      swap1\n      tag_31\n      jump\t// in\n    tag_36:\n      mload(0x40)\n      dup1\n      swap2\n      sub\n      swap1\n      return\n        /* \"val28.sol\":3176:3458  function saveInput(... */\n    tag_12:\n        /* \"val28.sol\":3408:3415  _number */\n      dup3\n        /* \"val28.sol\":3395:3405  lastNumber */\n      0x00\n        /* \"val28.sol\":3395:3415  lastNumber = _number */\n      dup2\n      swap1\n      sstore\n      pop\n        /* \"val28.sol\":3442:3450  _message */\n      dup2\n      dup2\n        /* \"val28.sol\":3428:3439  lastMessage */\n      0x01\n        /* \"val28.sol\":3428:3450  lastMessage = _message */\n      swap2\n      dup3\n      tag_38\n      swap3\n      swap2\n      swap1\n      tag_39\n      jump\t// in\n    tag_38:\n      pop\n        /* \"val28.sol\":3176:3458  function saveInput(... */\n      pop\n      pop\n      pop\n      jump\t// out\n        /* \"val28.sol\":1996:2021  string public lastMessage */\n    tag_14:\n      0x01\n      dup1\n      sload\n      tag_40\n      swap1\n      tag_41\n      jump\t// in\n    tag_40:\n      dup1\n      0x1f\n      add\n      0x20\n      dup1\n      swap2\n      div\n      mul\n      0x20\n      add\n      mload(0x40)\n      swap1\n      dup2\n      add\n      0x40\n      mstore\n      dup1\n      swap3\n      swap2\n      swap1\n      dup2\n      dup2\n      mstore\n      0x20\n      add\n      dup3\n      dup1\n      sload\n      tag_42\n      swap1\n      tag_41\n      jump\t// in\n    tag_42:\n      dup1\n      iszero\n      tag_43\n      jumpi\n      dup1\n      0x1f\n      lt\n      tag_44\n      jumpi\n      0x0100\n      dup1\n      dup4\n      sload\n      div\n      mul\n      dup4\n      mstore\n      swap2\n      0x20\n      add\n      swap2\n      jump(tag_43)\n    tag_44:\n      dup3\n      add\n      swap2\n      swap1\n      0x00\n      mstore\n      keccak256(0x00, 0x20)\n      swap1\n    tag_45:\n      dup2\n      sload\n      dup2\n      mstore\n      swap1\n      0x01\n      add\n      swap1\n      0x20\n      add\n      dup1\n      dup4\n      gt\n      tag_45\n      jumpi\n      dup3\n      swap1\n      sub\n      0x1f\n      and\n      dup3\n      add\n      swap2\n    tag_43:\n      pop\n      pop\n      pop\n      pop\n      pop\n      dup2\n      jump\t// out\n        /* \"val28.sol\":2847:3168  function readString(... */\n    tag_20:\n        /* \"val28.sol\":2959:2972  string memory */\n      0x60\n        /* \"val28.sol\":3152:3160  _message */\n      dup3\n      dup3\n        /* \"val28.sol\":3145:3160  return _message */\n      dup1\n      dup1\n      0x1f\n      add\n      0x20\n      dup1\n      swap2\n      div\n      mul\n      0x20\n      add\n      mload(0x40)\n      swap1\n      dup2\n      add\n      0x40\n      mstore\n      dup1\n      swap4\n      swap3\n      swap2\n      swap1\n      dup2\n      dup2\n      mstore\n      0x20\n      add\n      dup4\n      dup4\n      dup1\n      dup3\n      dup5\n      calldatacopy\n      0x00\n      dup2\n      dup5\n      add\n      mstore\n      not(0x1f)\n      0x1f\n      dup3\n      add\n      and\n      swap1\n      pop\n      dup1\n      dup4\n      add\n      swap3\n      pop\n      pop\n      pop\n      pop\n      pop\n      pop\n      pop\n      swap1\n      pop\n        /* \"val28.sol\":2847:3168  function readString(... */\n      swap3\n      swap2\n      pop\n      pop\n      jump\t// out\n        /* \"val28.sol\":2351:2839  function readMultipleInputs(... */\n    tag_25:\n        /* \"val28.sol\":2520:2527  uint256 */\n      0x00\n        /* \"val28.sol\":2542:2546  bool */\n      0x00\n        /* \"val28.sol\":2561:2568  address */\n      0x00\n        /* \"val28.sol\":2774:2778  _age */\n      dup6\n        /* \"val28.sol\":2793:2800  _active */\n      dup6\n        /* \"val28.sol\":2815:2820  _user */\n      dup6\n        /* \"val28.sol\":2752:2831  return (... */\n      swap3\n      pop\n      swap3\n      pop\n      swap3\n      pop\n        /* \"val28.sol\":2351:2839  function readMultipleInputs(... */\n      swap4\n      pop\n      swap4\n      pop\n      swap4\n      swap1\n      pop\n      jump\t// out\n        /* \"val28.sol\":1962:1987  uint256 public lastNumber */\n    tag_29:\n      sload(0x00)\n      dup2\n      jump\t// out\n        /* \"val28.sol\":2030:2343  function readUint(... */\n    tag_35:\n        /* \"val28.sol\":2131:2138  uint256 */\n      0x00\n        /* \"val28.sol\":2328:2335  _number */\n      dup2\n        /* \"val28.sol\":2321:2335  return _number */\n      swap1\n      pop\n        /* \"val28.sol\":2030:2343  function readUint(... */\n      swap2\n      swap1\n      pop\n      jump\t// out\n        /* \"#utility.yul\":88:205   */\n    tag_50:\n        /* \"#utility.yul\":197:198   */\n      0x00\n        /* \"#utility.yul\":194:195   */\n      0x00\n        /* \"#utility.yul\":187:199   */\n      revert\n        /* \"#utility.yul\":211:328   */\n    tag_51:\n        /* \"#utility.yul\":320:321   */\n      0x00\n        /* \"#utility.yul\":317:318   */\n      0x00\n        /* \"#utility.yul\":310:322   */\n      revert\n        /* \"#utility.yul\":334:411   */\n    tag_52:\n        /* \"#utility.yul\":371:378   */\n      0x00\n        /* \"#utility.yul\":400:405   */\n      dup2\n        /* \"#utility.yul\":389:405   */\n      swap1\n      pop\n        /* \"#utility.yul\":334:411   */\n      swap2\n      swap1\n      pop\n      jump\t// out\n        /* \"#utility.yul\":417:539   */\n    tag_53:\n        /* \"#utility.yul\":490:514   */\n      tag_98\n        /* \"#utility.yul\":508:513   */\n      dup2\n        /* \"#utility.yul\":490:514   */\n      tag_52\n      jump\t// in\n    tag_98:\n        /* \"#utility.yul\":483:488   */\n      dup2\n        /* \"#utility.yul\":480:515   */\n      eq\n        /* \"#utility.yul\":470:533   */\n      tag_99\n      jumpi\n        /* \"#utility.yul\":529:530   */\n      0x00\n        /* \"#utility.yul\":526:527   */\n      0x00\n        /* \"#utility.yul\":519:531   */\n      revert\n        /* \"#utility.yul\":470:533   */\n    tag_99:\n        /* \"#utility.yul\":417:539   */\n      pop\n      jump\t// out\n        /* \"#utility.yul\":545:684   */\n    tag_54:\n        /* \"#utility.yul\":591:596   */\n      0x00\n        /* \"#utility.yul\":629:635   */\n      dup2\n        /* \"#utility.yul\":616:636   */\n      calldataload\n        /* \"#utility.yul\":607:636   */\n      swap1\n      pop\n        /* \"#utility.yul\":645:678   */\n      tag_101\n        /* \"#utility.yul\":672:677   */\n      dup2\n        /* \"#utility.yul\":645:678   */\n      tag_53\n      jump\t// in\n    tag_101:\n        /* \"#utility.yul\":545:684   */\n      swap3\n      swap2\n      pop\n      pop\n      jump\t// out\n        /* \"#utility.yul\":690:807   */\n    tag_55:\n        /* \"#utility.yul\":799:800   */\n      0x00\n        /* \"#utility.yul\":796:797   */\n      0x00\n        /* \"#utility.yul\":789:801   */\n      revert\n        /* \"#utility.yul\":813:930   */\n    tag_56:\n        /* \"#utility.yul\":922:923   */\n      0x00\n        /* \"#utility.yul\":919:920   */\n      0x00\n        /* \"#utility.yul\":912:924   */\n      revert\n        /* \"#utility.yul\":936:1053   */\n    tag_57:\n        /* \"#utility.yul\":1045:1046   */\n      0x00\n        /* \"#utility.yul\":1042:1043   */\n      0x00\n        /* \"#utility.yul\":1035:1047   */\n      revert\n        /* \"#utility.yul\":1073:1626   */\n    tag_58:\n        /* \"#utility.yul\":1131:1139   */\n      0x00\n        /* \"#utility.yul\":1141:1147   */\n      0x00\n        /* \"#utility.yul\":1191:1194   */\n      dup4\n        /* \"#utility.yul\":1184:1188   */\n      0x1f\n        /* \"#utility.yul\":1176:1182   */\n      dup5\n        /* \"#utility.yul\":1172:1189   */\n      add\n        /* \"#utility.yul\":1168:1195   */\n      slt\n        /* \"#utility.yul\":1158:1280   */\n      tag_106\n      jumpi\n        /* \"#utility.yul\":1199:1278   */\n      tag_107\n      tag_55\n      jump\t// in\n    tag_107:\n        /* \"#utility.yul\":1158:1280   */\n    tag_106:\n        /* \"#utility.yul\":1312:1318   */\n      dup3\n        /* \"#utility.yul\":1299:1319   */\n      calldataload\n        /* \"#utility.yul\":1289:1319   */\n      swap1\n      pop\n        /* \"#utility.yul\":1342:1360   */\n      0xffffffffffffffff\n        /* \"#utility.yul\":1334:1340   */\n      dup2\n        /* \"#utility.yul\":1331:1361   */\n      gt\n        /* \"#utility.yul\":1328:1445   */\n      iszero\n      tag_108\n      jumpi\n        /* \"#utility.yul\":1364:1443   */\n      tag_109\n      tag_56\n      jump\t// in\n    tag_109:\n        /* \"#utility.yul\":1328:1445   */\n    tag_108:\n        /* \"#utility.yul\":1478:1482   */\n      0x20\n        /* \"#utility.yul\":1470:1476   */\n      dup4\n        /* \"#utility.yul\":1466:1483   */\n      add\n        /* \"#utility.yul\":1454:1483   */\n      swap2\n      pop\n        /* \"#utility.yul\":1532:1535   */\n      dup4\n        /* \"#utility.yul\":1524:1528   */\n      0x01\n        /* \"#utility.yul\":1516:1522   */\n      dup3\n        /* \"#utility.yul\":1512:1529   */\n      mul\n        /* \"#utility.yul\":1502:1510   */\n      dup4\n        /* \"#utility.yul\":1498:1530   */\n      add\n        /* \"#utility.yul\":1495:1536   */\n      gt\n        /* \"#utility.yul\":1492:1620   */\n      iszero\n      tag_110\n      jumpi\n        /* \"#utility.yul\":1539:1618   */\n      tag_111\n      tag_57\n      jump\t// in\n    tag_111:\n        /* \"#utility.yul\":1492:1620   */\n    tag_110:\n        /* \"#utility.yul\":1073:1626   */\n      swap3\n      pop\n      swap3\n      swap1\n      pop\n      jump\t// out\n        /* \"#utility.yul\":1632:2306   */\n    tag_11:\n        /* \"#utility.yul\":1712:1718   */\n      0x00\n        /* \"#utility.yul\":1720:1726   */\n      0x00\n        /* \"#utility.yul\":1728:1734   */\n      0x00\n        /* \"#utility.yul\":1777:1779   */\n      0x40\n        /* \"#utility.yul\":1765:1774   */\n      dup5\n        /* \"#utility.yul\":1756:1763   */\n      dup7\n        /* \"#utility.yul\":1752:1775   */\n      sub\n        /* \"#utility.yul\":1748:1780   */\n      slt\n        /* \"#utility.yul\":1745:1864   */\n      iszero\n      tag_113\n      jumpi\n        /* \"#utility.yul\":1783:1862   */\n      tag_114\n      tag_50\n      jump\t// in\n    tag_114:\n        /* \"#utility.yul\":1745:1864   */\n    tag_113:\n        /* \"#utility.yul\":1903:1904   */\n      0x00\n        /* \"#utility.yul\":1928:1981   */\n      tag_115\n        /* \"#utility.yul\":1973:1980   */\n      dup7\n        /* \"#utility.yul\":1964:1970   */\n      dup3\n        /* \"#utility.yul\":1953:1962   */\n      dup8\n        /* \"#utility.yul\":1949:1971   */\n      add\n        /* \"#utility.yul\":1928:1981   */\n      tag_54\n      jump\t// in\n    tag_115:\n        /* \"#utility.yul\":1918:1981   */\n      swap4\n      pop\n        /* \"#utility.yul\":1874:1991   */\n      pop\n        /* \"#utility.yul\":2058:2060   */\n      0x20\n        /* \"#utility.yul\":2047:2056   */\n      dup5\n        /* \"#utility.yul\":2043:2061   */\n      add\n        /* \"#utility.yul\":2030:2062   */\n      calldataload\n        /* \"#utility.yul\":2089:2107   */\n      0xffffffffffffffff\n        /* \"#utility.yul\":2081:2087   */\n      dup2\n        /* \"#utility.yul\":2078:2108   */\n      gt\n        /* \"#utility.yul\":2075:2192   */\n      iszero\n      tag_116\n      jumpi\n        /* \"#utility.yul\":2111:2190   */\n      tag_117\n      tag_51\n      jump\t// in\n    tag_117:\n        /* \"#utility.yul\":2075:2192   */\n    tag_116:\n        /* \"#utility.yul\":2224:2289   */\n      tag_118\n        /* \"#utility.yul\":2281:2288   */\n      dup7\n        /* \"#utility.yul\":2272:2278   */\n      dup3\n        /* \"#utility.yul\":2261:2270   */\n      dup8\n        /* \"#utility.yul\":2257:2279   */\n      add\n        /* \"#utility.yul\":2224:2289   */\n      tag_58\n      jump\t// in\n    tag_118:\n        /* \"#utility.yul\":2206:2289   */\n      swap3\n      pop\n      swap3\n      pop\n        /* \"#utility.yul\":2001:2299   */\n      pop\n        /* \"#utility.yul\":1632:2306   */\n      swap3\n      pop\n      swap3\n      pop\n      swap3\n      jump\t// out\n        /* \"#utility.yul\":2312:2411   */\n    tag_59:\n        /* \"#utility.yul\":2364:2370   */\n      0x00\n        /* \"#utility.yul\":2398:2403   */\n      dup2\n        /* \"#utility.yul\":2392:2404   */\n      mload\n        /* \"#utility.yul\":2382:2404   */\n      swap1\n      pop\n        /* \"#utility.yul\":2312:2411   */\n      swap2\n      swap1\n      pop\n      jump\t// out\n        /* \"#utility.yul\":2417:2586   */\n    tag_60:\n        /* \"#utility.yul\":2501:2512   */\n      0x00\n        /* \"#utility.yul\":2535:2541   */\n      dup3\n        /* \"#utility.yul\":2530:2533   */\n      dup3\n        /* \"#utility.yul\":2523:2542   */\n      mstore\n        /* \"#utility.yul\":2575:2579   */\n      0x20\n        /* \"#utility.yul\":2570:2573   */\n      dup3\n        /* \"#utility.yul\":2566:2580   */\n      add\n        /* \"#utility.yul\":2551:2580   */\n      swap1\n      pop\n        /* \"#utility.yul\":2417:2586   */\n      swap3\n      swap2\n      pop\n      pop\n      jump\t// out\n        /* \"#utility.yul\":2592:2731   */\n    tag_61:\n        /* \"#utility.yul\":2681:2687   */\n      dup3\n        /* \"#utility.yul\":2676:2679   */\n      dup2\n        /* \"#utility.yul\":2671:2674   */\n      dup4\n        /* \"#utility.yul\":2665:2688   */\n      mcopy\n        /* \"#utility.yul\":2722:2723   */\n      0x00\n        /* \"#utility.yul\":2713:2719   */\n      dup4\n        /* \"#utility.yul\":2708:2711   */\n      dup4\n        /* \"#utility.yul\":2704:2720   */\n      add\n        /* \"#utility.yul\":2697:2724   */\n      mstore\n        /* \"#utility.yul\":2592:2731   */\n      pop\n      pop\n      pop\n      jump\t// out\n        /* \"#utility.yul\":2737:2839   */\n    tag_62:\n        /* \"#utility.yul\":2778:2784   */\n      0x00\n        /* \"#utility.yul\":2829:2831   */\n      0x1f\n        /* \"#utility.yul\":2825:2832   */\n      not\n        /* \"#utility.yul\":2820:2822   */\n      0x1f\n        /* \"#utility.yul\":2813:2818   */\n      dup4\n        /* \"#utility.yul\":2809:2823   */\n      add\n        /* \"#utility.yul\":2805:2833   */\n      and\n        /* \"#utility.yul\":2795:2833   */\n      swap1\n      pop\n        /* \"#utility.yul\":2737:2839   */\n      swap2\n      swap1\n      pop\n      jump\t// out\n        /* \"#utility.yul\":2845:3222   */\n    tag_63:\n        /* \"#utility.yul\":2933:2936   */\n      0x00\n        /* \"#utility.yul\":2961:3000   */\n      tag_124\n        /* \"#utility.yul\":2994:2999   */\n      dup3\n        /* \"#utility.yul\":2961:3000   */\n      tag_59\n      jump\t// in\n    tag_124:\n        /* \"#utility.yul\":3016:3087   */\n      tag_125\n        /* \"#utility.yul\":3080:3086   */\n      dup2\n        /* \"#utility.yul\":3075:3078   */\n      dup6\n        /* \"#utility.yul\":3016:3087   */\n      tag_60\n      jump\t// in\n    tag_125:\n        /* \"#utility.yul\":3009:3087   */\n      swap4\n      pop\n        /* \"#utility.yul\":3096:3161   */\n      tag_126\n        /* \"#utility.yul\":3154:3160   */\n      dup2\n        /* \"#utility.yul\":3149:3152   */\n      dup6\n        /* \"#utility.yul\":3142:3146   */\n      0x20\n        /* \"#utility.yul\":3135:3140   */\n      dup7\n        /* \"#utility.yul\":3131:3147   */\n      add\n        /* \"#utility.yul\":3096:3161   */\n      tag_61\n      jump\t// in\n    tag_126:\n        /* \"#utility.yul\":3186:3215   */\n      tag_127\n        /* \"#utility.yul\":3208:3214   */\n      dup2\n        /* \"#utility.yul\":3186:3215   */\n      tag_62\n      jump\t// in\n    tag_127:\n        /* \"#utility.yul\":3181:3184   */\n      dup5\n        /* \"#utility.yul\":3177:3216   */\n      add\n        /* \"#utility.yul\":3170:3216   */\n      swap2\n      pop\n        /* \"#utility.yul\":2937:3222   */\n      pop\n        /* \"#utility.yul\":2845:3222   */\n      swap3\n      swap2\n      pop\n      pop\n      jump\t// out\n        /* \"#utility.yul\":3228:3541   */\n    tag_16:\n        /* \"#utility.yul\":3341:3345   */\n      0x00\n        /* \"#utility.yul\":3379:3381   */\n      0x20\n        /* \"#utility.yul\":3368:3377   */\n      dup3\n        /* \"#utility.yul\":3364:3382   */\n      add\n        /* \"#utility.yul\":3356:3382   */\n      swap1\n      pop\n        /* \"#utility.yul\":3428:3437   */\n      dup2\n        /* \"#utility.yul\":3422:3426   */\n      dup2\n        /* \"#utility.yul\":3418:3438   */\n      sub\n        /* \"#utility.yul\":3414:3415   */\n      0x00\n        /* \"#utility.yul\":3403:3412   */\n      dup4\n        /* \"#utility.yul\":3399:3416   */\n      add\n        /* \"#utility.yul\":3392:3439   */\n      mstore\n        /* \"#utility.yul\":3456:3534   */\n      tag_129\n        /* \"#utility.yul\":3529:3533   */\n      dup2\n        /* \"#utility.yul\":3520:3526   */\n      dup5\n        /* \"#utility.yul\":3456:3534   */\n      tag_63\n      jump\t// in\n    tag_129:\n        /* \"#utility.yul\":3448:3534   */\n      swap1\n      pop\n        /* \"#utility.yul\":3228:3541   */\n      swap3\n      swap2\n      pop\n      pop\n      jump\t// out\n        /* \"#utility.yul\":3547:4076   */\n    tag_19:\n        /* \"#utility.yul\":3618:3624   */\n      0x00\n        /* \"#utility.yul\":3626:3632   */\n      0x00\n        /* \"#utility.yul\":3675:3677   */\n      0x20\n        /* \"#utility.yul\":3663:3672   */\n      dup4\n        /* \"#utility.yul\":3654:3661   */\n      dup6\n        /* \"#utility.yul\":3650:3673   */\n      sub\n        /* \"#utility.yul\":3646:3678   */\n      slt\n        /* \"#utility.yul\":3643:3762   */\n      iszero\n      tag_131\n      jumpi\n        /* \"#utility.yul\":3681:3760   */\n      tag_132\n      tag_50\n      jump\t// in\n    tag_132:\n        /* \"#utility.yul\":3643:3762   */\n    tag_131:\n        /* \"#utility.yul\":3829:3830   */\n      0x00\n        /* \"#utility.yul\":3818:3827   */\n      dup4\n        /* \"#utility.yul\":3814:3831   */\n      add\n        /* \"#utility.yul\":3801:3832   */\n      calldataload\n        /* \"#utility.yul\":3859:3877   */\n      0xffffffffffffffff\n        /* \"#utility.yul\":3851:3857   */\n      dup2\n        /* \"#utility.yul\":3848:3878   */\n      gt\n        /* \"#utility.yul\":3845:3962   */\n      iszero\n      tag_133\n      jumpi\n        /* \"#utility.yul\":3881:3960   */\n      tag_134\n      tag_51\n      jump\t// in\n    tag_134:\n        /* \"#utility.yul\":3845:3962   */\n    tag_133:\n        /* \"#utility.yul\":3994:4059   */\n      tag_135\n        /* \"#utility.yul\":4051:4058   */\n      dup6\n        /* \"#utility.yul\":4042:4048   */\n      dup3\n        /* \"#utility.yul\":4031:4040   */\n      dup7\n        /* \"#utility.yul\":4027:4049   */\n      add\n        /* \"#utility.yul\":3994:4059   */\n      tag_58\n      jump\t// in\n    tag_135:\n        /* \"#utility.yul\":3976:4059   */\n      swap3\n      pop\n      swap3\n      pop\n        /* \"#utility.yul\":3772:4069   */\n      pop\n        /* \"#utility.yul\":3547:4076   */\n      swap3\n      pop\n      swap3\n      swap1\n      pop\n      jump\t// out\n        /* \"#utility.yul\":4082:4172   */\n    tag_64:\n        /* \"#utility.yul\":4116:4123   */\n      0x00\n        /* \"#utility.yul\":4159:4164   */\n      dup2\n        /* \"#utility.yul\":4152:4165   */\n      iszero\n        /* \"#utility.yul\":4145:4166   */\n      iszero\n        /* \"#utility.yul\":4134:4166   */\n      swap1\n      pop\n        /* \"#utility.yul\":4082:4172   */\n      swap2\n      swap1\n      pop\n      jump\t// out\n        /* \"#utility.yul\":4178:4294   */\n    tag_65:\n        /* \"#utility.yul\":4248:4269   */\n      tag_138\n        /* \"#utility.yul\":4263:4268   */\n      dup2\n        /* \"#utility.yul\":4248:4269   */\n      tag_64\n      jump\t// in\n    tag_138:\n        /* \"#utility.yul\":4241:4246   */\n      dup2\n        /* \"#utility.yul\":4238:4270   */\n      eq\n        /* \"#utility.yul\":4228:4288   */\n      tag_139\n      jumpi\n        /* \"#utility.yul\":4284:4285   */\n      0x00\n        /* \"#utility.yul\":4281:4282   */\n      0x00\n        /* \"#utility.yul\":4274:4286   */\n      revert\n        /* \"#utility.yul\":4228:4288   */\n    tag_139:\n        /* \"#utility.yul\":4178:4294   */\n      pop\n      jump\t// out\n        /* \"#utility.yul\":4300:4433   */\n    tag_66:\n        /* \"#utility.yul\":4343:4348   */\n      0x00\n        /* \"#utility.yul\":4381:4387   */\n      dup2\n        /* \"#utility.yul\":4368:4388   */\n      calldataload\n        /* \"#utility.yul\":4359:4388   */\n      swap1\n      pop\n        /* \"#utility.yul\":4397:4427   */\n      tag_141\n        /* \"#utility.yul\":4421:4426   */\n      dup2\n        /* \"#utility.yul\":4397:4427   */\n      tag_65\n      jump\t// in\n    tag_141:\n        /* \"#utility.yul\":4300:4433   */\n      swap3\n      swap2\n      pop\n      pop\n      jump\t// out\n        /* \"#utility.yul\":4439:4565   */\n    tag_67:\n        /* \"#utility.yul\":4476:4483   */\n      0x00\n        /* \"#utility.yul\":4516:4558   */\n      0xffffffffffffffffffffffffffffffffffffffff\n        /* \"#utility.yul\":4509:4514   */\n      dup3\n        /* \"#utility.yul\":4505:4559   */\n      and\n        /* \"#utility.yul\":4494:4559   */\n      swap1\n      pop\n        /* \"#utility.yul\":4439:4565   */\n      swap2\n      swap1\n      pop\n      jump\t// out\n        /* \"#utility.yul\":4571:4667   */\n    tag_68:\n        /* \"#utility.yul\":4608:4615   */\n      0x00\n        /* \"#utility.yul\":4637:4661   */\n      tag_144\n        /* \"#utility.yul\":4655:4660   */\n      dup3\n        /* \"#utility.yul\":4637:4661   */\n      tag_67\n      jump\t// in\n    tag_144:\n        /* \"#utility.yul\":4626:4661   */\n      swap1\n      pop\n        /* \"#utility.yul\":4571:4667   */\n      swap2\n      swap1\n      pop\n      jump\t// out\n        /* \"#utility.yul\":4673:4795   */\n    tag_69:\n        /* \"#utility.yul\":4746:4770   */\n      tag_146\n        /* \"#utility.yul\":4764:4769   */\n      dup2\n        /* \"#utility.yul\":4746:4770   */\n      tag_68\n      jump\t// in\n    tag_146:\n        /* \"#utility.yul\":4739:4744   */\n      dup2\n        /* \"#utility.yul\":4736:4771   */\n      eq\n        /* \"#utility.yul\":4726:4789   */\n      tag_147\n      jumpi\n        /* \"#utility.yul\":4785:4786   */\n      0x00\n        /* \"#utility.yul\":4782:4783   */\n      0x00\n        /* \"#utility.yul\":4775:4787   */\n      revert\n        /* \"#utility.yul\":4726:4789   */\n    tag_147:\n        /* \"#utility.yul\":4673:4795   */\n      pop\n      jump\t// out\n        /* \"#utility.yul\":4801:4940   */\n    tag_70:\n        /* \"#utility.yul\":4847:4852   */\n      0x00\n        /* \"#utility.yul\":4885:4891   */\n      dup2\n        /* \"#utility.yul\":4872:4892   */\n      calldataload\n        /* \"#utility.yul\":4863:4892   */\n      swap1\n      pop\n        /* \"#utility.yul\":4901:4934   */\n      tag_149\n        /* \"#utility.yul\":4928:4933   */\n      dup2\n        /* \"#utility.yul\":4901:4934   */\n      tag_69\n      jump\t// in\n    tag_149:\n        /* \"#utility.yul\":4801:4940   */\n      swap3\n      swap2\n      pop\n      pop\n      jump\t// out\n        /* \"#utility.yul\":4946:5559   */\n    tag_24:\n        /* \"#utility.yul\":5020:5026   */\n      0x00\n        /* \"#utility.yul\":5028:5034   */\n      0x00\n        /* \"#utility.yul\":5036:5042   */\n      0x00\n        /* \"#utility.yul\":5085:5087   */\n      0x60\n        /* \"#utility.yul\":5073:5082   */\n      dup5\n        /* \"#utility.yul\":5064:5071   */\n      dup7\n        /* \"#utility.yul\":5060:5083   */\n      sub\n        /* \"#utility.yul\":5056:5088   */\n      slt\n        /* \"#utility.yul\":5053:5172   */\n      iszero\n      tag_151\n      jumpi\n        /* \"#utility.yul\":5091:5170   */\n      tag_152\n      tag_50\n      jump\t// in\n    tag_152:\n        /* \"#utility.yul\":5053:5172   */\n    tag_151:\n        /* \"#utility.yul\":5211:5212   */\n      0x00\n        /* \"#utility.yul\":5236:5289   */\n      tag_153\n        /* \"#utility.yul\":5281:5288   */\n      dup7\n        /* \"#utility.yul\":5272:5278   */\n      dup3\n        /* \"#utility.yul\":5261:5270   */\n      dup8\n        /* \"#utility.yul\":5257:5279   */\n      add\n        /* \"#utility.yul\":5236:5289   */\n      tag_54\n      jump\t// in\n    tag_153:\n        /* \"#utility.yul\":5226:5289   */\n      swap4\n      pop\n        /* \"#utility.yul\":5182:5299   */\n      pop\n        /* \"#utility.yul\":5338:5340   */\n      0x20\n        /* \"#utility.yul\":5364:5414   */\n      tag_154\n        /* \"#utility.yul\":5406:5413   */\n      dup7\n        /* \"#utility.yul\":5397:5403   */\n      dup3\n        /* \"#utility.yul\":5386:5395   */\n      dup8\n        /* \"#utility.yul\":5382:5404   */\n      add\n        /* \"#utility.yul\":5364:5414   */\n      tag_66\n      jump\t// in\n    tag_154:\n        /* \"#utility.yul\":5354:5414   */\n      swap3\n      pop\n        /* \"#utility.yul\":5309:5424   */\n      pop\n        /* \"#utility.yul\":5463:5465   */\n      0x40\n        /* \"#utility.yul\":5489:5542   */\n      tag_155\n        /* \"#utility.yul\":5534:5541   */\n      dup7\n        /* \"#utility.yul\":5525:5531   */\n      dup3\n        /* \"#utility.yul\":5514:5523   */\n      dup8\n        /* \"#utility.yul\":5510:5532   */\n      add\n        /* \"#utility.yul\":5489:5542   */\n      tag_70\n      jump\t// in\n    tag_155:\n        /* \"#utility.yul\":5479:5542   */\n      swap2\n      pop\n        /* \"#utility.yul\":5434:5552   */\n      pop\n        /* \"#utility.yul\":4946:5559   */\n      swap3\n      pop\n      swap3\n      pop\n      swap3\n      jump\t// out\n        /* \"#utility.yul\":5565:5683   */\n    tag_71:\n        /* \"#utility.yul\":5652:5676   */\n      tag_157\n        /* \"#utility.yul\":5670:5675   */\n      dup2\n        /* \"#utility.yul\":5652:5676   */\n      tag_52\n      jump\t// in\n    tag_157:\n        /* \"#utility.yul\":5647:5650   */\n      dup3\n        /* \"#utility.yul\":5640:5677   */\n      mstore\n        /* \"#utility.yul\":5565:5683   */\n      pop\n      pop\n      jump\t// out\n        /* \"#utility.yul\":5689:5798   */\n    tag_72:\n        /* \"#utility.yul\":5770:5791   */\n      tag_159\n        /* \"#utility.yul\":5785:5790   */\n      dup2\n        /* \"#utility.yul\":5770:5791   */\n      tag_64\n      jump\t// in\n    tag_159:\n        /* \"#utility.yul\":5765:5768   */\n      dup3\n        /* \"#utility.yul\":5758:5792   */\n      mstore\n        /* \"#utility.yul\":5689:5798   */\n      pop\n      pop\n      jump\t// out\n        /* \"#utility.yul\":5804:5922   */\n    tag_73:\n        /* \"#utility.yul\":5891:5915   */\n      tag_161\n        /* \"#utility.yul\":5909:5914   */\n      dup2\n        /* \"#utility.yul\":5891:5915   */\n      tag_68\n      jump\t// in\n    tag_161:\n        /* \"#utility.yul\":5886:5889   */\n      dup3\n        /* \"#utility.yul\":5879:5916   */\n      mstore\n        /* \"#utility.yul\":5804:5922   */\n      pop\n      pop\n      jump\t// out\n        /* \"#utility.yul\":5928:6358   */\n    tag_27:\n        /* \"#utility.yul\":6071:6075   */\n      0x00\n        /* \"#utility.yul\":6109:6111   */\n      0x60\n        /* \"#utility.yul\":6098:6107   */\n      dup3\n        /* \"#utility.yul\":6094:6112   */\n      add\n        /* \"#utility.yul\":6086:6112   */\n      swap1\n      pop\n        /* \"#utility.yul\":6122:6193   */\n      tag_163\n        /* \"#utility.yul\":6190:6191   */\n      0x00\n        /* \"#utility.yul\":6179:6188   */\n      dup4\n        /* \"#utility.yul\":6175:6192   */\n      add\n        /* \"#utility.yul\":6166:6172   */\n      dup7\n        /* \"#utility.yul\":6122:6193   */\n      tag_71\n      jump\t// in\n    tag_163:\n        /* \"#utility.yul\":6203:6269   */\n      tag_164\n        /* \"#utility.yul\":6265:6267   */\n      0x20\n        /* \"#utility.yul\":6254:6263   */\n      dup4\n        /* \"#utility.yul\":6250:6268   */\n      add\n        /* \"#utility.yul\":6241:6247   */\n      dup6\n        /* \"#utility.yul\":6203:6269   */\n      tag_72\n      jump\t// in\n    tag_164:\n        /* \"#utility.yul\":6279:6351   */\n      tag_165\n        /* \"#utility.yul\":6347:6349   */\n      0x40\n        /* \"#utility.yul\":6336:6345   */\n      dup4\n        /* \"#utility.yul\":6332:6350   */\n      add\n        /* \"#utility.yul\":6323:6329   */\n      dup5\n        /* \"#utility.yul\":6279:6351   */\n      tag_73\n      jump\t// in\n    tag_165:\n        /* \"#utility.yul\":5928:6358   */\n      swap5\n      swap4\n      pop\n      pop\n      pop\n      pop\n      jump\t// out\n        /* \"#utility.yul\":6364:6586   */\n    tag_31:\n        /* \"#utility.yul\":6457:6461   */\n      0x00\n        /* \"#utility.yul\":6495:6497   */\n      0x20\n        /* \"#utility.yul\":6484:6493   */\n      dup3\n        /* \"#utility.yul\":6480:6498   */\n      add\n        /* \"#utility.yul\":6472:6498   */\n      swap1\n      pop\n        /* \"#utility.yul\":6508:6579   */\n      tag_167\n        /* \"#utility.yul\":6576:6577   */\n      0x00\n        /* \"#utility.yul\":6565:6574   */\n      dup4\n        /* \"#utility.yul\":6561:6578   */\n      add\n        /* \"#utility.yul\":6552:6558   */\n      dup5\n        /* \"#utility.yul\":6508:6579   */\n      tag_71\n      jump\t// in\n    tag_167:\n        /* \"#utility.yul\":6364:6586   */\n      swap3\n      swap2\n      pop\n      pop\n      jump\t// out\n        /* \"#utility.yul\":6592:6921   */\n    tag_34:\n        /* \"#utility.yul\":6651:6657   */\n      0x00\n        /* \"#utility.yul\":6700:6702   */\n      0x20\n        /* \"#utility.yul\":6688:6697   */\n      dup3\n        /* \"#utility.yul\":6679:6686   */\n      dup5\n        /* \"#utility.yul\":6675:6698   */\n      sub\n        /* \"#utility.yul\":6671:6703   */\n      slt\n        /* \"#utility.yul\":6668:6787   */\n      iszero\n      tag_169\n      jumpi\n        /* \"#utility.yul\":6706:6785   */\n      tag_170\n      tag_50\n      jump\t// in\n    tag_170:\n        /* \"#utility.yul\":6668:6787   */\n    tag_169:\n        /* \"#utility.yul\":6826:6827   */\n      0x00\n        /* \"#utility.yul\":6851:6904   */\n      tag_171\n        /* \"#utility.yul\":6896:6903   */\n      dup5\n        /* \"#utility.yul\":6887:6893   */\n      dup3\n        /* \"#utility.yul\":6876:6885   */\n      dup6\n        /* \"#utility.yul\":6872:6894   */\n      add\n        /* \"#utility.yul\":6851:6904   */\n      tag_54\n      jump\t// in\n    tag_171:\n        /* \"#utility.yul\":6841:6904   */\n      swap2\n      pop\n        /* \"#utility.yul\":6797:6914   */\n      pop\n        /* \"#utility.yul\":6592:6921   */\n      swap3\n      swap2\n      pop\n      pop\n      jump\t// out\n        /* \"#utility.yul\":6927:7024   */\n    tag_74:\n        /* \"#utility.yul\":6986:6992   */\n      0x00\n        /* \"#utility.yul\":7014:7017   */\n      dup3\n        /* \"#utility.yul\":7004:7017   */\n      swap1\n      pop\n        /* \"#utility.yul\":6927:7024   */\n      swap3\n      swap2\n      pop\n      pop\n      jump\t// out\n        /* \"#utility.yul\":7030:7210   */\n    tag_75:\n        /* \"#utility.yul\":7078:7155   */\n      0x4e487b7100000000000000000000000000000000000000000000000000000000\n        /* \"#utility.yul\":7075:7076   */\n      0x00\n        /* \"#utility.yul\":7068:7156   */\n      mstore\n        /* \"#utility.yul\":7175:7179   */\n      0x41\n        /* \"#utility.yul\":7172:7173   */\n      0x04\n        /* \"#utility.yul\":7165:7180   */\n      mstore\n        /* \"#utility.yul\":7199:7203   */\n      0x24\n        /* \"#utility.yul\":7196:7197   */\n      0x00\n        /* \"#utility.yul\":7189:7204   */\n      revert\n        /* \"#utility.yul\":7216:7396   */\n    tag_76:\n        /* \"#utility.yul\":7264:7341   */\n      0x4e487b7100000000000000000000000000000000000000000000000000000000\n        /* \"#utility.yul\":7261:7262   */\n      0x00\n        /* \"#utility.yul\":7254:7342   */\n      mstore\n        /* \"#utility.yul\":7361:7365   */\n      0x22\n        /* \"#utility.yul\":7358:7359   */\n      0x04\n        /* \"#utility.yul\":7351:7366   */\n      mstore\n        /* \"#utility.yul\":7385:7389   */\n      0x24\n        /* \"#utility.yul\":7382:7383   */\n      0x00\n        /* \"#utility.yul\":7375:7390   */\n      revert\n        /* \"#utility.yul\":7402:7722   */\n    tag_41:\n        /* \"#utility.yul\":7446:7452   */\n      0x00\n        /* \"#utility.yul\":7483:7484   */\n      0x02\n        /* \"#utility.yul\":7477:7481   */\n      dup3\n        /* \"#utility.yul\":7473:7485   */\n      div\n        /* \"#utility.yul\":7463:7485   */\n      swap1\n      pop\n        /* \"#utility.yul\":7530:7531   */\n      0x01\n        /* \"#utility.yul\":7524:7528   */\n      dup3\n        /* \"#utility.yul\":7520:7532   */\n      and\n        /* \"#utility.yul\":7551:7569   */\n      dup1\n        /* \"#utility.yul\":7541:7622   */\n      tag_176\n      jumpi\n        /* \"#utility.yul\":7607:7611   */\n      0x7f\n        /* \"#utility.yul\":7599:7605   */\n      dup3\n        /* \"#utility.yul\":7595:7612   */\n      and\n        /* \"#utility.yul\":7585:7612   */\n      swap2\n      pop\n        /* \"#utility.yul\":7541:7622   */\n    tag_176:\n        /* \"#utility.yul\":7669:7671   */\n      0x20\n        /* \"#utility.yul\":7661:7667   */\n      dup3\n        /* \"#utility.yul\":7658:7672   */\n      lt\n        /* \"#utility.yul\":7638:7656   */\n      dup2\n        /* \"#utility.yul\":7635:7673   */\n      sub\n        /* \"#utility.yul\":7632:7716   */\n      tag_177\n      jumpi\n        /* \"#utility.yul\":7688:7706   */\n      tag_178\n      tag_76\n      jump\t// in\n    tag_178:\n        /* \"#utility.yul\":7632:7716   */\n    tag_177:\n        /* \"#utility.yul\":7453:7722   */\n      pop\n        /* \"#utility.yul\":7402:7722   */\n      swap2\n      swap1\n      pop\n      jump\t// out\n        /* \"#utility.yul\":7728:7869   */\n    tag_77:\n        /* \"#utility.yul\":7777:7781   */\n      0x00\n        /* \"#utility.yul\":7800:7803   */\n      dup2\n        /* \"#utility.yul\":7792:7803   */\n      swap1\n      pop\n        /* \"#utility.yul\":7823:7826   */\n      dup2\n        /* \"#utility.yul\":7820:7821   */\n      0x00\n        /* \"#utility.yul\":7813:7827   */\n      mstore\n        /* \"#utility.yul\":7857:7861   */\n      0x20\n        /* \"#utility.yul\":7854:7855   */\n      0x00\n        /* \"#utility.yul\":7844:7862   */\n      keccak256\n        /* \"#utility.yul\":7836:7862   */\n      swap1\n      pop\n        /* \"#utility.yul\":7728:7869   */\n      swap2\n      swap1\n      pop\n      jump\t// out\n        /* \"#utility.yul\":7875:7968   */\n    tag_78:\n        /* \"#utility.yul\":7912:7918   */\n      0x00\n        /* \"#utility.yul\":7959:7961   */\n      0x20\n        /* \"#utility.yul\":7954:7956   */\n      0x1f\n        /* \"#utility.yul\":7947:7952   */\n      dup4\n        /* \"#utility.yul\":7943:7957   */\n      add\n        /* \"#utility.yul\":7939:7962   */\n      div\n        /* \"#utility.yul\":7929:7962   */\n      swap1\n      pop\n        /* \"#utility.yul\":7875:7968   */\n      swap2\n      swap1\n      pop\n      jump\t// out\n        /* \"#utility.yul\":7974:8081   */\n    tag_79:\n        /* \"#utility.yul\":8018:8026   */\n      0x00\n        /* \"#utility.yul\":8068:8073   */\n      dup3\n        /* \"#utility.yul\":8062:8066   */\n      dup3\n        /* \"#utility.yul\":8058:8074   */\n      shl\n        /* \"#utility.yul\":8037:8074   */\n      swap1\n      pop\n        /* \"#utility.yul\":7974:8081   */\n      swap3\n      swap2\n      pop\n      pop\n      jump\t// out\n        /* \"#utility.yul\":8087:8480   */\n    tag_80:\n        /* \"#utility.yul\":8156:8162   */\n      0x00\n        /* \"#utility.yul\":8206:8207   */\n      0x08\n        /* \"#utility.yul\":8194:8204   */\n      dup4\n        /* \"#utility.yul\":8190:8208   */\n      mul\n        /* \"#utility.yul\":8229:8326   */\n      tag_183\n        /* \"#utility.yul\":8259:8325   */\n      0xffffffffffffffffffffffffffffffffffffffffffffffffffffffffffffffff\n        /* \"#utility.yul\":8248:8257   */\n      dup3\n        /* \"#utility.yul\":8229:8326   */\n      tag_79\n      jump\t// in\n    tag_183:\n        /* \"#utility.yul\":8347:8386   */\n      tag_184\n        /* \"#utility.yul\":8377:8385   */\n      dup7\n        /* \"#utility.yul\":8366:8375   */\n      dup4\n        /* \"#utility.yul\":8347:8386   */\n      tag_79\n      jump\t// in\n    tag_184:\n        /* \"#utility.yul\":8335:8386   */\n      swap6\n      pop\n        /* \"#utility.yul\":8419:8423   */\n      dup1\n        /* \"#utility.yul\":8415:8424   */\n      not\n        /* \"#utility.yul\":8408:8413   */\n      dup5\n        /* \"#utility.yul\":8404:8425   */\n      and\n        /* \"#utility.yul\":8395:8425   */\n      swap4\n      pop\n        /* \"#utility.yul\":8468:8472   */\n      dup1\n        /* \"#utility.yul\":8458:8466   */\n      dup7\n        /* \"#utility.yul\":8454:8473   */\n      and\n        /* \"#utility.yul\":8447:8452   */\n      dup5\n        /* \"#utility.yul\":8444:8474   */\n      or\n        /* \"#utility.yul\":8434:8474   */\n      swap3\n      pop\n        /* \"#utility.yul\":8163:8480   */\n      pop\n      pop\n        /* \"#utility.yul\":8087:8480   */\n      swap4\n      swap3\n      pop\n      pop\n      pop\n      jump\t// out\n        /* \"#utility.yul\":8486:8546   */\n    tag_81:\n        /* \"#utility.yul\":8514:8517   */\n      0x00\n        /* \"#utility.yul\":8535:8540   */\n      dup2\n        /* \"#utility.yul\":8528:8540   */\n      swap1\n      pop\n        /* \"#utility.yul\":8486:8546   */\n      swap2\n      swap1\n      pop\n      jump\t// out\n        /* \"#utility.yul\":8552:8694   */\n    tag_82:\n        /* \"#utility.yul\":8602:8611   */\n      0x00\n        /* \"#utility.yul\":8635:8688   */\n      tag_187\n        /* \"#utility.yul\":8653:8687   */\n      tag_188\n        /* \"#utility.yul\":8662:8686   */\n      tag_189\n        /* \"#utility.yul\":8680:8685   */\n      dup5\n        /* \"#utility.yul\":8662:8686   */\n      tag_52\n      jump\t// in\n    tag_189:\n        /* \"#utility.yul\":8653:8687   */\n      tag_81\n      jump\t// in\n    tag_188:\n        /* \"#utility.yul\":8635:8688   */\n      tag_52\n      jump\t// in\n    tag_187:\n        /* \"#utility.yul\":8622:8688   */\n      swap1\n      pop\n        /* \"#utility.yul\":8552:8694   */\n      swap2\n      swap1\n      pop\n      jump\t// out\n        /* \"#utility.yul\":8700:8775   */\n    tag_83:\n        /* \"#utility.yul\":8743:8746   */\n      0x00\n        /* \"#utility.yul\":8764:8769   */\n      dup2\n        /* \"#utility.yul\":8757:8769   */\n      swap1\n      pop\n        /* \"#utility.yul\":8700:8775   */\n      swap2\n      swap1\n      pop\n      jump\t// out\n        /* \"#utility.yul\":8781:9050   */\n    tag_84:\n        /* \"#utility.yul\":8891:8930   */\n      tag_192\n        /* \"#utility.yul\":8922:8929   */\n      dup4\n        /* \"#utility.yul\":8891:8930   */\n      tag_82\n      jump\t// in\n    tag_192:\n        /* \"#utility.yul\":8952:9043   */\n      tag_193\n        /* \"#utility.yul\":9001:9042   */\n      tag_194\n        /* \"#utility.yul\":9025:9041   */\n      dup3\n        /* \"#utility.yul\":9001:9042   */\n      tag_83\n      jump\t// in\n    tag_194:\n        /* \"#utility.yul\":8993:8999   */\n      dup5\n        /* \"#utility.yul\":8986:8990   */\n      dup5\n        /* \"#utility.yul\":8980:8991   */\n      sload\n        /* \"#utility.yul\":8952:9043   */\n      tag_80\n      jump\t// in\n    tag_193:\n        /* \"#utility.yul\":8946:8950   */\n      dup3\n        /* \"#utility.yul\":8939:9044   */\n      sstore\n        /* \"#utility.yul\":8857:9050   */\n      pop\n        /* \"#utility.yul\":8781:9050   */\n      pop\n      pop\n      pop\n      jump\t// out\n        /* \"#utility.yul\":9056:9129   */\n    tag_85:\n        /* \"#utility.yul\":9101:9104   */\n      0x00\n        /* \"#utility.yul\":9122:9123   */\n      0x00\n        /* \"#utility.yul\":9115:9123   */\n      swap1\n      pop\n        /* \"#utility.yul\":9056:9129   */\n      swap1\n      jump\t// out\n        /* \"#utility.yul\":9135:9324   */\n    tag_86:\n        /* \"#utility.yul\":9212:9244   */\n      tag_197\n      tag_85\n      jump\t// in\n    tag_197:\n        /* \"#utility.yul\":9253:9318   */\n      tag_198\n        /* \"#utility.yul\":9311:9317   */\n      dup2\n        /* \"#utility.yul\":9303:9309   */\n      dup5\n        /* \"#utility.yul\":9297:9301   */\n      dup5\n        /* \"#utility.yul\":9253:9318   */\n      tag_84\n      jump\t// in\n    tag_198:\n        /* \"#utility.yul\":9188:9324   */\n      pop\n        /* \"#utility.yul\":9135:9324   */\n      pop\n      pop\n      jump\t// out\n        /* \"#utility.yul\":9330:9544   */\n    tag_87:\n        /* \"#utility.yul\":9415:9416   */\n      0x00\n        /* \"#utility.yul\":9400:9538   */\n    tag_200:\n        /* \"#utility.yul\":9425:9434   */\n      dup3\n        /* \"#utility.yul\":9422:9423   */\n      dup2\n        /* \"#utility.yul\":9419:9435   */\n      lt\n        /* \"#utility.yul\":9400:9538   */\n      iszero\n      tag_202\n      jumpi\n        /* \"#utility.yul\":9477:9528   */\n      tag_203\n        /* \"#utility.yul\":9526:9527   */\n      0x00\n        /* \"#utility.yul\":9522:9523   */\n      dup3\n        /* \"#utility.yul\":9511:9520   */\n      dup5\n        /* \"#utility.yul\":9507:9524   */\n      add\n        /* \"#utility.yul\":9477:9528   */\n      tag_86\n      jump\t// in\n    tag_203:\n        /* \"#utility.yul\":9450:9451   */\n      0x01\n        /* \"#utility.yul\":9447:9448   */\n      dup2\n        /* \"#utility.yul\":9443:9452   */\n      add\n        /* \"#utility.yul\":9438:9452   */\n      swap1\n      pop\n        /* \"#utility.yul\":9400:9538   */\n      jump(tag_200)\n    tag_202:\n        /* \"#utility.yul\":9404:9418   */\n      pop\n        /* \"#utility.yul\":9330:9544   */\n      pop\n      pop\n      jump\t// out\n        /* \"#utility.yul\":9550:10296   */\n    tag_88:\n        /* \"#utility.yul\":9651:9653   */\n      0x1f\n        /* \"#utility.yul\":9646:9649   */\n      dup3\n        /* \"#utility.yul\":9643:9654   */\n      gt\n        /* \"#utility.yul\":9640:10289   */\n      iszero\n      tag_205\n      jumpi\n        /* \"#utility.yul\":9680:9690   */\n      dup3\n        /* \"#utility.yul\":9675:9678   */\n      dup3\n        /* \"#utility.yul\":9672:9691   */\n      gt\n        /* \"#utility.yul\":9669:10279   */\n      iszero\n      tag_206\n      jumpi\n        /* \"#utility.yul\":9726:9764   */\n      tag_207\n        /* \"#utility.yul\":9758:9763   */\n      dup2\n        /* \"#utility.yul\":9726:9764   */\n      tag_77\n      jump\t// in\n    tag_207:\n        /* \"#utility.yul\":9801:9823   */\n      tag_208\n        /* \"#utility.yul\":9819:9822   */\n      dup4\n        /* \"#utility.yul\":9801:9823   */\n      tag_78\n      jump\t// in\n    tag_208:\n        /* \"#utility.yul\":9860:9889   */\n      tag_209\n        /* \"#utility.yul\":9878:9888   */\n      dup6\n        /* \"#utility.yul\":9860:9889   */\n      tag_78\n      jump\t// in\n    tag_209:\n        /* \"#utility.yul\":10050:10052   */\n      0x20\n        /* \"#utility.yul\":10038:10048   */\n      dup7\n        /* \"#utility.yul\":10035:10053   */\n      lt\n        /* \"#utility.yul\":10032:10111   */\n      iszero\n      tag_210\n      jumpi\n        /* \"#utility.yul\":10092:10093   */\n      0x00\n        /* \"#utility.yul\":10076:10093   */\n      swap1\n      pop\n        /* \"#utility.yul\":10032:10111   */\n    tag_210:\n        /* \"#utility.yul\":10161:10173   */\n      dup1\n        /* \"#utility.yul\":10151:10159   */\n      dup4\n        /* \"#utility.yul\":10147:10174   */\n      add\n        /* \"#utility.yul\":10191:10265   */\n      tag_211\n        /* \"#utility.yul\":10251:10263   */\n      dup3\n        /* \"#utility.yul\":10237:10249   */\n      dup5\n        /* \"#utility.yul\":10233:10264   */\n      sub\n        /* \"#utility.yul\":10220:10231   */\n      dup3\n        /* \"#utility.yul\":10191:10265   */\n      tag_87\n      jump\t// in\n    tag_211:\n        /* \"#utility.yul\":9692:10279   */\n      pop\n      pop\n      pop\n      pop\n        /* \"#utility.yul\":9669:10279   */\n    tag_206:\n        /* \"#utility.yul\":9640:10289   */\n    tag_205:\n        /* \"#utility.yul\":9550:10296   */\n      pop\n      pop\n      pop\n      jump\t// out\n        /* \"#utility.yul\":10302:10419   */\n    tag_89:\n        /* \"#utility.yul\":10356:10364   */\n      0x00\n        /* \"#utility.yul\":10406:10411   */\n      dup3\n        /* \"#utility.yul\":10400:10404   */\n      dup3\n        /* \"#utility.yul\":10396:10412   */\n      shr\n        /* \"#utility.yul\":10375:10412   */\n      swap1\n      pop\n        /* \"#utility.yul\":10302:10419   */\n      swap3\n      swap2\n      pop\n      pop\n      jump\t// out\n        /* \"#utility.yul\":10425:10594   */\n    tag_90:\n        /* \"#utility.yul\":10469:10475   */\n      0x00\n        /* \"#utility.yul\":10502:10553   */\n      tag_214\n        /* \"#utility.yul\":10550:10551   */\n      0x00\n        /* \"#utility.yul\":10546:10552   */\n      not\n        /* \"#utility.yul\":10538:10543   */\n      dup5\n        /* \"#utility.yul\":10535:10536   */\n      0x08\n        /* \"#utility.yul\":10531:10544   */\n      mul\n        /* \"#utility.yul\":10502:10553   */\n      tag_89\n      jump\t// in\n    tag_214:\n        /* \"#utility.yul\":10498:10554   */\n      not\n        /* \"#utility.yul\":10583:10587   */\n      dup1\n        /* \"#utility.yul\":10577:10581   */\n      dup4\n        /* \"#utility.yul\":10573:10588   */\n      and\n        /* \"#utility.yul\":10563:10588   */\n      swap2\n      pop\n        /* \"#utility.yul\":10476:10594   */\n      pop\n        /* \"#utility.yul\":10425:10594   */\n      swap3\n      swap2\n      pop\n      pop\n      jump\t// out\n        /* \"#utility.yul\":10599:10894   */\n    tag_91:\n        /* \"#utility.yul\":10675:10679   */\n      0x00\n        /* \"#utility.yul\":10821:10850   */\n      tag_216\n        /* \"#utility.yul\":10846:10849   */\n      dup4\n        /* \"#utility.yul\":10840:10844   */\n      dup4\n        /* \"#utility.yul\":10821:10850   */\n      tag_90\n      jump\t// in\n    tag_216:\n        /* \"#utility.yul\":10813:10850   */\n      swap2\n      pop\n        /* \"#utility.yul\":10883:10886   */\n      dup3\n        /* \"#utility.yul\":10880:10881   */\n      0x02\n        /* \"#utility.yul\":10876:10887   */\n      mul\n        /* \"#utility.yul\":10870:10874   */\n      dup3\n        /* \"#utility.yul\":10867:10888   */\n      or\n        /* \"#utility.yul\":10859:10888   */\n      swap1\n      pop\n        /* \"#utility.yul\":10599:10894   */\n      swap3\n      swap2\n      pop\n      pop\n      jump\t// out\n        /* \"#utility.yul\":10899:12302   */\n    tag_39:\n        /* \"#utility.yul\":11023:11067   */\n      tag_218\n        /* \"#utility.yul\":11063:11066   */\n      dup4\n        /* \"#utility.yul\":11058:11061   */\n      dup4\n        /* \"#utility.yul\":11023:11067   */\n      tag_74\n      jump\t// in\n    tag_218:\n        /* \"#utility.yul\":11132:11150   */\n      0xffffffffffffffff\n        /* \"#utility.yul\":11124:11130   */\n      dup2\n        /* \"#utility.yul\":11121:11151   */\n      gt\n        /* \"#utility.yul\":11118:11174   */\n      iszero\n      tag_219\n      jumpi\n        /* \"#utility.yul\":11154:11172   */\n      tag_220\n      tag_75\n      jump\t// in\n    tag_220:\n        /* \"#utility.yul\":11118:11174   */\n    tag_219:\n        /* \"#utility.yul\":11198:11236   */\n      tag_221\n        /* \"#utility.yul\":11230:11234   */\n      dup3\n        /* \"#utility.yul\":11224:11235   */\n      sload\n        /* \"#utility.yul\":11198:11236   */\n      tag_41\n      jump\t// in\n    tag_221:\n        /* \"#utility.yul\":11283:11350   */\n      tag_222\n        /* \"#utility.yul\":11343:11349   */\n      dup3\n        /* \"#utility.yul\":11335:11341   */\n      dup3\n        /* \"#utility.yul\":11329:11333   */\n      dup6\n        /* \"#utility.yul\":11283:11350   */\n      tag_88\n      jump\t// in\n    tag_222:\n        /* \"#utility.yul\":11377:11378   */\n      0x00\n        /* \"#utility.yul\":11406:11408   */\n      0x1f\n        /* \"#utility.yul\":11398:11404   */\n      dup4\n        /* \"#utility.yul\":11395:11409   */\n      gt\n        /* \"#utility.yul\":11423:11424   */\n      0x01\n        /* \"#utility.yul\":11418:12050   */\n      dup2\n      eq\n      tag_224\n      jumpi\n        /* \"#utility.yul\":12094:12095   */\n      0x00\n        /* \"#utility.yul\":12111:12117   */\n      dup5\n        /* \"#utility.yul\":12108:12192   */\n      iszero\n      tag_225\n      jumpi\n        /* \"#utility.yul\":12167:12176   */\n      dup3\n        /* \"#utility.yul\":12162:12165   */\n      dup8\n        /* \"#utility.yul\":12158:12177   */\n      add\n        /* \"#utility.yul\":12145:12178   */\n      calldataload\n        /* \"#utility.yul\":12136:12178   */\n      swap1\n      pop\n        /* \"#utility.yul\":12108:12192   */\n    tag_225:\n        /* \"#utility.yul\":12218:12285   */\n      tag_226\n        /* \"#utility.yul\":12278:12284   */\n      dup6\n        /* \"#utility.yul\":12271:12276   */\n      dup3\n        /* \"#utility.yul\":12218:12285   */\n      tag_91\n      jump\t// in\n    tag_226:\n        /* \"#utility.yul\":12212:12216   */\n      dup7\n        /* \"#utility.yul\":12205:12286   */\n      sstore\n        /* \"#utility.yul\":12067:12296   */\n      pop\n        /* \"#utility.yul\":11388:12296   */\n      jump(tag_223)\n        /* \"#utility.yul\":11418:12050   */\n    tag_224:\n        /* \"#utility.yul\":11470:11474   */\n      0x1f\n        /* \"#utility.yul\":11466:11475   */\n      not\n        /* \"#utility.yul\":11458:11464   */\n      dup5\n        /* \"#utility.yul\":11454:11476   */\n      and\n        /* \"#utility.yul\":11504:11541   */\n      tag_227\n        /* \"#utility.yul\":11536:11540   */\n      dup7\n        /* \"#utility.yul\":11504:11541   */\n      tag_77\n      jump\t// in\n    tag_227:\n        /* \"#utility.yul\":11563:11564   */\n      0x00\n        /* \"#utility.yul\":11577:11792   */\n    tag_228:\n        /* \"#utility.yul\":11591:11598   */\n      dup3\n        /* \"#utility.yul\":11588:11589   */\n      dup2\n        /* \"#utility.yul\":11585:11599   */\n      lt\n        /* \"#utility.yul\":11577:11792   */\n      iszero\n      tag_230\n      jumpi\n        /* \"#utility.yul\":11677:11686   */\n      dup5\n        /* \"#utility.yul\":11672:11675   */\n      dup10\n        /* \"#utility.yul\":11668:11687   */\n      add\n        /* \"#utility.yul\":11655:11688   */\n      calldataload\n        /* \"#utility.yul\":11647:11653   */\n      dup3\n        /* \"#utility.yul\":11640:11689   */\n      sstore\n        /* \"#utility.yul\":11728:11729   */\n      0x01\n        /* \"#utility.yul\":11720:11726   */\n      dup3\n        /* \"#utility.yul\":11716:11730   */\n      add\n        /* \"#utility.yul\":11706:11730   */\n      swap2\n      pop\n        /* \"#utility.yul\":11775:11777   */\n      0x20\n        /* \"#utility.yul\":11764:11773   */\n      dup6\n        /* \"#utility.yul\":11760:11778   */\n      add\n        /* \"#utility.yul\":11747:11778   */\n      swap5\n      pop\n        /* \"#utility.yul\":11614:11618   */\n      0x20\n        /* \"#utility.yul\":11611:11612   */\n      dup2\n        /* \"#utility.yul\":11607:11619   */\n      add\n        /* \"#utility.yul\":11602:11619   */\n      swap1\n      pop\n        /* \"#utility.yul\":11577:11792   */\n      jump(tag_228)\n    tag_230:\n        /* \"#utility.yul\":11820:11826   */\n      dup7\n        /* \"#utility.yul\":11811:11818   */\n      dup4\n        /* \"#utility.yul\":11808:11827   */\n      lt\n        /* \"#utility.yul\":11805:11991   */\n      iszero\n      tag_231\n      jumpi\n        /* \"#utility.yul\":11885:11894   */\n      dup5\n        /* \"#utility.yul\":11880:11883   */\n      dup10\n        /* \"#utility.yul\":11876:11895   */\n      add\n        /* \"#utility.yul\":11863:11896   */\n      calldataload\n        /* \"#utility.yul\":11928:11976   */\n      tag_232\n        /* \"#utility.yul\":11970:11974   */\n      0x1f\n        /* \"#utility.yul\":11962:11968   */\n      dup10\n        /* \"#utility.yul\":11958:11975   */\n      and\n        /* \"#utility.yul\":11947:11956   */\n      dup3\n        /* \"#utility.yul\":11928:11976   */\n      tag_90\n      jump\t// in\n    tag_232:\n        /* \"#utility.yul\":11920:11926   */\n      dup4\n        /* \"#utility.yul\":11913:11977   */\n      sstore\n        /* \"#utility.yul\":11828:11991   */\n      pop\n        /* \"#utility.yul\":11805:11991   */\n    tag_231:\n        /* \"#utility.yul\":12037:12038   */\n      0x01\n        /* \"#utility.yul\":12033:12034   */\n      0x02\n        /* \"#utility.yul\":12025:12031   */\n      dup9\n        /* \"#utility.yul\":12021:12035   */\n      mul\n        /* \"#utility.yul\":12017:12039   */\n      add\n        /* \"#utility.yul\":12011:12015   */\n      dup9\n        /* \"#utility.yul\":12004:12040   */\n      sstore\n        /* \"#utility.yul\":11425:12050   */\n      pop\n      pop\n      pop\n        /* \"#utility.yul\":11388:12296   */\n    tag_223:\n      pop\n        /* \"#utility.yul\":10998:12302   */\n      pop\n      pop\n      pop\n        /* \"#utility.yul\":10899:12302   */\n      pop\n      pop\n      pop\n      jump\t// out\n\n    auxdata: 0xa2646970667358221220d5a4626ebb6b810e1b2c401cdbace6b19e11e99f854ce48638fea93396b3361a64736f6c63430008220033\n}\n",
				"bytecode": {
					"linkReferences": {},
					"object": "6080604052348015600e575f5ffd5b506109098061001c5f395ff3fe608060405234801561000f575f5ffd5b5060043610610060575f3560e01c806317679e1314610064578063329707101461008057806342a917341461009e57806385974f2f146100ce578063b3db9f1a14610100578063cbfbca5e1461011e575b5f5ffd5b61007e60048036038101906100799190610304565b61014e565b005b61008861016b565b60405161009591906103d1565b60405180910390f35b6100b860048036038101906100b391906103f1565b6101f7565b6040516100c591906103d1565b60405180910390f35b6100e860048036038101906100e391906104cb565b610245565b6040516100f793929190610548565b60405180910390f35b61010861025a565b604051610115919061057d565b60405180910390f35b61013860048036038101906101339190610596565b61025f565b604051610145919061057d565b60405180910390f35b825f81905550818160019182610165929190610806565b50505050565b6001805461017890610625565b80601f01602080910402602001604051908101604052809291908181526020018280546101a490610625565b80156101ef5780601f106101c6576101008083540402835291602001916101ef565b820191905f5260205f20905b8154815290600101906020018083116101d257829003601f168201915b505050505081565b606082828080601f0160208091040260200160405190810160405280939291908181526020018383808284375f81840152601f19601f82011690508083019250505050505050905092915050565b5f5f5f85858592509250925093509350939050565b5f5481565b5f819050919050565b5f5ffd5b5f5ffd5b5f819050919050565b61028281610270565b811461028c575f5ffd5b50565b5f8135905061029d81610279565b92915050565b5f5ffd5b5f5ffd5b5f5ffd5b5f5f83601f8401126102c4576102c36102a3565b5b8235905067ffffffffffffffff8111156102e1576102e06102a7565b5b6020830191508360018202830111156102fd576102fc6102ab565b5b9250929050565b5f5f5f6040848603121561031b5761031a610268565b5b5f6103288682870161028f565b935050602084013567ffffffffffffffff8111156103495761034861026c565b5b610355868287016102af565b92509250509250925092565b5f81519050919050565b5f82825260208201905092915050565b8281835e5f83830152505050565b5f601f19601f8301169050919050565b5f6103a382610361565b6103ad818561036b565b93506103bd81856020860161037b565b6103c681610389565b840191505092915050565b5f6020820190508181035f8301526103e98184610399565b905092915050565b5f5f6020838503121561040757610406610268565b5b5f83013567ffffffffffffffff8111156104245761042361026c565b5b610430858286016102af565b92509250509250929050565b5f8115159050919050565b6104508161043c565b811461045a575f5ffd5b50565b5f8135905061046b81610447565b92915050565b5f73ffffffffffffffffffffffffffffffffffffffff82169050919050565b5f61049a82610471565b9050919050565b6104aa81610490565b81146104b4575f5ffd5b50565b5f813590506104c5816104a1565b92915050565b5f5f5f606084860312156104e2576104e1610268565b5b5f6104ef8682870161028f565b93505060206105008682870161045d565b9250506040610511868287016104b7565b9150509250925092565b61052481610270565b82525050565b6105338161043c565b82525050565b61054281610490565b82525050565b5f60608201905061055b5f83018661051b565b610568602083018561052a565b6105756040830184610539565b949350505050565b5f6020820190506105905f83018461051b565b92915050565b5f602082840312156105ab576105aa610268565b5b5f6105b88482850161028f565b91505092915050565b5f82905092915050565b7f4e487b71000000000000000000000000000000000000000000000000000000005f52604160045260245ffd5b7f4e487b71000000000000000000000000000000000000000000000000000000005f52602260045260245ffd5b5f600282049050600182168061063c57607f821691505b60208210810361064f5761064e6105f8565b5b50919050565b5f819050815f5260205f209050919050565b5f6020601f8301049050919050565b5f82821b905092915050565b5f600883026106b17fffffffffffffffffffffffffffffffffffffffffffffffffffffffffffffffff82610676565b6106bb8683610676565b95508019841693508086168417925050509392505050565b5f819050919050565b5f6106f66106f16106ec84610270565b6106d3565b610270565b9050919050565b5f819050919050565b61070f836106dc565b61072361071b826106fd565b848454610682565b825550505050565b5f5f905090565b61073a61072b565b610745818484610706565b505050565b5f5b8281101561076b576107605f828401610732565b60018101905061074c565b505050565b601f8211156107be57828211156107bd5761078a81610655565b61079383610667565b61079c85610667565b60208610156107a9575f90505b8083016107b88284038261074a565b505050505b5b505050565b5f82821c905092915050565b5f6107de5f19846008026107c3565b1980831691505092915050565b5f6107f683836107cf565b9150826002028217905092915050565b61081083836105c1565b67ffffffffffffffff811115610829576108286105cb565b5b6108338254610625565b61083e828285610770565b5f601f83116001811461086b575f8415610859578287013590505b61086385826107eb565b8655506108ca565b601f19841661087986610655565b5f5b828110156108a05784890135825560018201915060208501945060208101905061087b565b868310156108bd57848901356108b9601f8916826107cf565b8355505b6001600288020188555050505b5050505050505056fea2646970667358221220d5a4626ebb6b810e1b2c401cdbace6b19e11e99f854ce48638fea93396b3361a64736f6c63430008220033",
					"opcodes": "PUSH1 0x80 PUSH1 0x40 MSTORE CALLVALUE DUP1 ISZERO PUSH1 0xE JUMPI PUSH0 PUSH0 REVERT JUMPDEST POP PUSH2 0x909 DUP1 PUSH2 0x1C PUSH0 CODECOPY PUSH0 RETURN INVALID PUSH1 0x80 PUSH1 0x40 MSTORE CALLVALUE DUP1 ISZERO PUSH2 0xF JUMPI PUSH0 PUSH0 REVERT JUMPDEST POP PUSH1 0x4 CALLDATASIZE LT PUSH2 0x60 JUMPI PUSH0 CALLDATALOAD PUSH1 0xE0 SHR DUP1 PUSH4 0x17679E13 EQ PUSH2 0x64 JUMPI DUP1 PUSH4 0x32970710 EQ PUSH2 0x80 JUMPI DUP1 PUSH4 0x42A91734 EQ PUSH2 0x9E JUMPI DUP1 PUSH4 0x85974F2F EQ PUSH2 0xCE JUMPI DUP1 PUSH4 0xB3DB9F1A EQ PUSH2 0x100 JUMPI DUP1 PUSH4 0xCBFBCA5E EQ PUSH2 0x11E JUMPI JUMPDEST PUSH0 PUSH0 REVERT JUMPDEST PUSH2 0x7E PUSH1 0x4 DUP1 CALLDATASIZE SUB DUP2 ADD SWAP1 PUSH2 0x79 SWAP2 SWAP1 PUSH2 0x304 JUMP JUMPDEST PUSH2 0x14E JUMP JUMPDEST STOP JUMPDEST PUSH2 0x88 PUSH2 0x16B JUMP JUMPDEST PUSH1 0x40 MLOAD PUSH2 0x95 SWAP2 SWAP1 PUSH2 0x3D1 JUMP JUMPDEST PUSH1 0x40 MLOAD DUP1 SWAP2 SUB SWAP1 RETURN JUMPDEST PUSH2 0xB8 PUSH1 0x4 DUP1 CALLDATASIZE SUB DUP2 ADD SWAP1 PUSH2 0xB3 SWAP2 SWAP1 PUSH2 0x3F1 JUMP JUMPDEST PUSH2 0x1F7 JUMP JUMPDEST PUSH1 0x40 MLOAD PUSH2 0xC5 SWAP2 SWAP1 PUSH2 0x3D1 JUMP JUMPDEST PUSH1 0x40 MLOAD DUP1 SWAP2 SUB SWAP1 RETURN JUMPDEST PUSH2 0xE8 PUSH1 0x4 DUP1 CALLDATASIZE SUB DUP2 ADD SWAP1 PUSH2 0xE3 SWAP2 SWAP1 PUSH2 0x4CB JUMP JUMPDEST PUSH2 0x245 JUMP JUMPDEST PUSH1 0x40 MLOAD PUSH2 0xF7 SWAP4 SWAP3 SWAP2 SWAP1 PUSH2 0x548 JUMP JUMPDEST PUSH1 0x40 MLOAD DUP1 SWAP2 SUB SWAP1 RETURN JUMPDEST PUSH2 0x108 PUSH2 0x25A JUMP JUMPDEST PUSH1 0x40 MLOAD PUSH2 0x115 SWAP2 SWAP1 PUSH2 0x57D JUMP JUMPDEST PUSH1 0x40 MLOAD DUP1 SWAP2 SUB SWAP1 RETURN JUMPDEST PUSH2 0x138 PUSH1 0x4 DUP1 CALLDATASIZE SUB DUP2 ADD SWAP1 PUSH2 0x133 SWAP2 SWAP1 PUSH2 0x596 JUMP JUMPDEST PUSH2 0x25F JUMP JUMPDEST PUSH1 0x40 MLOAD PUSH2 0x145 SWAP2 SWAP1 PUSH2 0x57D JUMP JUMPDEST PUSH1 0x40 MLOAD DUP1 SWAP2 SUB SWAP1 RETURN JUMPDEST DUP3 PUSH0 DUP2 SWAP1 SSTORE POP DUP2 DUP2 PUSH1 0x1 SWAP2 DUP3 PUSH2 0x165 SWAP3 SWAP2 SWAP1 PUSH2 0x806 JUMP JUMPDEST POP POP POP POP JUMP JUMPDEST PUSH1 0x1 DUP1 SLOAD PUSH2 0x178 SWAP1 PUSH2 0x625 JUMP JUMPDEST DUP1 PUSH1 0x1F ADD PUSH1 0x20 DUP1 SWAP2 DIV MUL PUSH1 0x20 ADD PUSH1 0x40 MLOAD SWAP1 DUP2 ADD PUSH1 0x40 MSTORE DUP1 SWAP3 SWAP2 SWAP1 DUP2 DUP2 MSTORE PUSH1 0x20 ADD DUP3 DUP1 SLOAD PUSH2 0x1A4 SWAP1 PUSH2 0x625 JUMP JUMPDEST DUP1 ISZERO PUSH2 0x1EF JUMPI DUP1 PUSH1 0x1F LT PUSH2 0x1C6 JUMPI PUSH2 0x100 DUP1 DUP4 SLOAD DIV MUL DUP4 MSTORE SWAP2 PUSH1 0x20 ADD SWAP2 PUSH2 0x1EF JUMP JUMPDEST DUP3 ADD SWAP2 SWAP1 PUSH0 MSTORE PUSH1 0x20 PUSH0 KECCAK256 SWAP1 JUMPDEST DUP2 SLOAD DUP2 MSTORE SWAP1 PUSH1 0x1 ADD SWAP1 PUSH1 0x20 ADD DUP1 DUP4 GT PUSH2 0x1D2 JUMPI DUP3 SWAP1 SUB PUSH1 0x1F AND DUP3 ADD SWAP2 JUMPDEST POP POP POP POP POP DUP2 JUMP JUMPDEST PUSH1 0x60 DUP3 DUP3 DUP1 DUP1 PUSH1 0x1F ADD PUSH1 0x20 DUP1 SWAP2 DIV MUL PUSH1 0x20 ADD PUSH1 0x40 MLOAD SWAP1 DUP2 ADD PUSH1 0x40 MSTORE DUP1 SWAP4 SWAP3 SWAP2 SWAP1 DUP2 DUP2 MSTORE PUSH1 0x20 ADD DUP4 DUP4 DUP1 DUP3 DUP5 CALLDATACOPY PUSH0 DUP2 DUP5 ADD MSTORE PUSH1 0x1F NOT PUSH1 0x1F DUP3 ADD AND SWAP1 POP DUP1 DUP4 ADD SWAP3 POP POP POP POP POP POP POP SWAP1 POP SWAP3 SWAP2 POP POP JUMP JUMPDEST PUSH0 PUSH0 PUSH0 DUP6 DUP6 DUP6 SWAP3 POP SWAP3 POP SWAP3 POP SWAP4 POP SWAP4 POP SWAP4 SWAP1 POP JUMP JUMPDEST PUSH0 SLOAD DUP2 JUMP JUMPDEST PUSH0 DUP2 SWAP1 POP SWAP2 SWAP1 POP JUMP JUMPDEST PUSH0 PUSH0 REVERT JUMPDEST PUSH0 PUSH0 REVERT JUMPDEST PUSH0 DUP2 SWAP1 POP SWAP2 SWAP1 POP JUMP JUMPDEST PUSH2 0x282 DUP2 PUSH2 0x270 JUMP JUMPDEST DUP2 EQ PUSH2 0x28C JUMPI PUSH0 PUSH0 REVERT JUMPDEST POP JUMP JUMPDEST PUSH0 DUP2 CALLDATALOAD SWAP1 POP PUSH2 0x29D DUP2 PUSH2 0x279 JUMP JUMPDEST SWAP3 SWAP2 POP POP JUMP JUMPDEST PUSH0 PUSH0 REVERT JUMPDEST PUSH0 PUSH0 REVERT JUMPDEST PUSH0 PUSH0 REVERT JUMPDEST PUSH0 PUSH0 DUP4 PUSH1 0x1F DUP5 ADD SLT PUSH2 0x2C4 JUMPI PUSH2 0x2C3 PUSH2 0x2A3 JUMP JUMPDEST JUMPDEST DUP3 CALLDATALOAD SWAP1 POP PUSH8 0xFFFFFFFFFFFFFFFF DUP2 GT ISZERO PUSH2 0x2E1 JUMPI PUSH2 0x2E0 PUSH2 0x2A7 JUMP JUMPDEST JUMPDEST PUSH1 0x20 DUP4 ADD SWAP2 POP DUP4 PUSH1 0x1 DUP3 MUL DUP4 ADD GT ISZERO PUSH2 0x2FD JUMPI PUSH2 0x2FC PUSH2 0x2AB JUMP JUMPDEST JUMPDEST SWAP3 POP SWAP3 SWAP1 POP JUMP JUMPDEST PUSH0 PUSH0 PUSH0 PUSH1 0x40 DUP5 DUP7 SUB SLT ISZERO PUSH2 0x31B JUMPI PUSH2 0x31A PUSH2 0x268 JUMP JUMPDEST JUMPDEST PUSH0 PUSH2 0x328 DUP7 DUP3 DUP8 ADD PUSH2 0x28F JUMP JUMPDEST SWAP4 POP POP PUSH1 0x20 DUP5 ADD CALLDATALOAD PUSH8 0xFFFFFFFFFFFFFFFF DUP2 GT ISZERO PUSH2 0x349 JUMPI PUSH2 0x348 PUSH2 0x26C JUMP JUMPDEST JUMPDEST PUSH2 0x355 DUP7 DUP3 DUP8 ADD PUSH2 0x2AF JUMP JUMPDEST SWAP3 POP SWAP3 POP POP SWAP3 POP SWAP3 POP SWAP3 JUMP JUMPDEST PUSH0 DUP2 MLOAD SWAP1 POP SWAP2 SWAP1 POP JUMP JUMPDEST PUSH0 DUP3 DUP3 MSTORE PUSH1 0x20 DUP3 ADD SWAP1 POP SWAP3 SWAP2 POP POP JUMP JUMPDEST DUP3 DUP2 DUP4 MCOPY PUSH0 DUP4 DUP4 ADD MSTORE POP POP POP JUMP JUMPDEST PUSH0 PUSH1 0x1F NOT PUSH1 0x1F DUP4 ADD AND SWAP1 POP SWAP2 SWAP1 POP JUMP JUMPDEST PUSH0 PUSH2 0x3A3 DUP3 PUSH2 0x361 JUMP JUMPDEST PUSH2 0x3AD DUP2 DUP6 PUSH2 0x36B JUMP JUMPDEST SWAP4 POP PUSH2 0x3BD DUP2 DUP6 PUSH1 0x20 DUP7 ADD PUSH2 0x37B JUMP JUMPDEST PUSH2 0x3C6 DUP2 PUSH2 0x389 JUMP JUMPDEST DUP5 ADD SWAP2 POP POP SWAP3 SWAP2 POP POP JUMP JUMPDEST PUSH0 PUSH1 0x20 DUP3 ADD SWAP1 POP DUP2 DUP2 SUB PUSH0 DUP4 ADD MSTORE PUSH2 0x3E9 DUP2 DUP5 PUSH2 0x399 JUMP JUMPDEST SWAP1 POP SWAP3 SWAP2 POP POP JUMP JUMPDEST PUSH0 PUSH0 PUSH1 0x20 DUP4 DUP6 SUB SLT ISZERO PUSH2 0x407 JUMPI PUSH2 0x406 PUSH2 0x268 JUMP JUMPDEST JUMPDEST PUSH0 DUP4 ADD CALLDATALOAD PUSH8 0xFFFFFFFFFFFFFFFF DUP2 GT ISZERO PUSH2 0x424 JUMPI PUSH2 0x423 PUSH2 0x26C JUMP JUMPDEST JUMPDEST PUSH2 0x430 DUP6 DUP3 DUP7 ADD PUSH2 0x2AF JUMP JUMPDEST SWAP3 POP SWAP3 POP POP SWAP3 POP SWAP3 SWAP1 POP JUMP JUMPDEST PUSH0 DUP2 ISZERO ISZERO SWAP1 POP SWAP2 SWAP1 POP JUMP JUMPDEST PUSH2 0x450 DUP2 PUSH2 0x43C JUMP JUMPDEST DUP2 EQ PUSH2 0x45A JUMPI PUSH0 PUSH0 REVERT JUMPDEST POP JUMP JUMPDEST PUSH0 DUP2 CALLDATALOAD SWAP1 POP PUSH2 0x46B DUP2 PUSH2 0x447 JUMP JUMPDEST SWAP3 SWAP2 POP POP JUMP JUMPDEST PUSH0 PUSH20 0xFFFFFFFFFFFFFFFFFFFFFFFFFFFFFFFFFFFFFFFF DUP3 AND SWAP1 POP SWAP2 SWAP1 POP JUMP JUMPDEST PUSH0 PUSH2 0x49A DUP3 PUSH2 0x471 JUMP JUMPDEST SWAP1 POP SWAP2 SWAP1 POP JUMP JUMPDEST PUSH2 0x4AA DUP2 PUSH2 0x490 JUMP JUMPDEST DUP2 EQ PUSH2 0x4B4 JUMPI PUSH0 PUSH0 REVERT JUMPDEST POP JUMP JUMPDEST PUSH0 DUP2 CALLDATALOAD SWAP1 POP PUSH2 0x4C5 DUP2 PUSH2 0x4A1 JUMP JUMPDEST SWAP3 SWAP2 POP POP JUMP JUMPDEST PUSH0 PUSH0 PUSH0 PUSH1 0x60 DUP5 DUP7 SUB SLT ISZERO PUSH2 0x4E2 JUMPI PUSH2 0x4E1 PUSH2 0x268 JUMP JUMPDEST JUMPDEST PUSH0 PUSH2 0x4EF DUP7 DUP3 DUP8 ADD PUSH2 0x28F JUMP JUMPDEST SWAP4 POP POP PUSH1 0x20 PUSH2 0x500 DUP7 DUP3 DUP8 ADD PUSH2 0x45D JUMP JUMPDEST SWAP3 POP POP PUSH1 0x40 PUSH2 0x511 DUP7 DUP3 DUP8 ADD PUSH2 0x4B7 JUMP JUMPDEST SWAP2 POP POP SWAP3 POP SWAP3 POP SWAP3 JUMP JUMPDEST PUSH2 0x524 DUP2 PUSH2 0x270 JUMP JUMPDEST DUP3 MSTORE POP POP JUMP JUMPDEST PUSH2 0x533 DUP2 PUSH2 0x43C JUMP JUMPDEST DUP3 MSTORE POP POP JUMP JUMPDEST PUSH2 0x542 DUP2 PUSH2 0x490 JUMP JUMPDEST DUP3 MSTORE POP POP JUMP JUMPDEST PUSH0 PUSH1 0x60 DUP3 ADD SWAP1 POP PUSH2 0x55B PUSH0 DUP4 ADD DUP7 PUSH2 0x51B JUMP JUMPDEST PUSH2 0x568 PUSH1 0x20 DUP4 ADD DUP6 PUSH2 0x52A JUMP JUMPDEST PUSH2 0x575 PUSH1 0x40 DUP4 ADD DUP5 PUSH2 0x539 JUMP JUMPDEST SWAP5 SWAP4 POP POP POP POP JUMP JUMPDEST PUSH0 PUSH1 0x20 DUP3 ADD SWAP1 POP PUSH2 0x590 PUSH0 DUP4 ADD DUP5 PUSH2 0x51B JUMP JUMPDEST SWAP3 SWAP2 POP POP JUMP JUMPDEST PUSH0 PUSH1 0x20 DUP3 DUP5 SUB SLT ISZERO PUSH2 0x5AB JUMPI PUSH2 0x5AA PUSH2 0x268 JUMP JUMPDEST JUMPDEST PUSH0 PUSH2 0x5B8 DUP5 DUP3 DUP6 ADD PUSH2 0x28F JUMP JUMPDEST SWAP2 POP POP SWAP3 SWAP2 POP POP JUMP JUMPDEST PUSH0 DUP3 SWAP1 POP SWAP3 SWAP2 POP POP JUMP JUMPDEST PUSH32 0x4E487B7100000000000000000000000000000000000000000000000000000000 PUSH0 MSTORE PUSH1 0x41 PUSH1 0x4 MSTORE PUSH1 0x24 PUSH0 REVERT JUMPDEST PUSH32 0x4E487B7100000000000000000000000000000000000000000000000000000000 PUSH0 MSTORE PUSH1 0x22 PUSH1 0x4 MSTORE PUSH1 0x24 PUSH0 REVERT JUMPDEST PUSH0 PUSH1 0x2 DUP3 DIV SWAP1 POP PUSH1 0x1 DUP3 AND DUP1 PUSH2 0x63C JUMPI PUSH1 0x7F DUP3 AND SWAP2 POP JUMPDEST PUSH1 0x20 DUP3 LT DUP2 SUB PUSH2 0x64F JUMPI PUSH2 0x64E PUSH2 0x5F8 JUMP JUMPDEST JUMPDEST POP SWAP2 SWAP1 POP JUMP JUMPDEST PUSH0 DUP2 SWAP1 POP DUP2 PUSH0 MSTORE PUSH1 0x20 PUSH0 KECCAK256 SWAP1 POP SWAP2 SWAP1 POP JUMP JUMPDEST PUSH0 PUSH1 0x20 PUSH1 0x1F DUP4 ADD DIV SWAP1 POP SWAP2 SWAP1 POP JUMP JUMPDEST PUSH0 DUP3 DUP3 SHL SWAP1 POP SWAP3 SWAP2 POP POP JUMP JUMPDEST PUSH0 PUSH1 0x8 DUP4 MUL PUSH2 0x6B1 PUSH32 0xFFFFFFFFFFFFFFFFFFFFFFFFFFFFFFFFFFFFFFFFFFFFFFFFFFFFFFFFFFFFFFFF DUP3 PUSH2 0x676 JUMP JUMPDEST PUSH2 0x6BB DUP7 DUP4 PUSH2 0x676 JUMP JUMPDEST SWAP6 POP DUP1 NOT DUP5 AND SWAP4 POP DUP1 DUP7 AND DUP5 OR SWAP3 POP POP POP SWAP4 SWAP3 POP POP POP JUMP JUMPDEST PUSH0 DUP2 SWAP1 POP SWAP2 SWAP1 POP JUMP JUMPDEST PUSH0 PUSH2 0x6F6 PUSH2 0x6F1 PUSH2 0x6EC DUP5 PUSH2 0x270 JUMP JUMPDEST PUSH2 0x6D3 JUMP JUMPDEST PUSH2 0x270 JUMP JUMPDEST SWAP1 POP SWAP2 SWAP1 POP JUMP JUMPDEST PUSH0 DUP2 SWAP1 POP SWAP2 SWAP1 POP JUMP JUMPDEST PUSH2 0x70F DUP4 PUSH2 0x6DC JUMP JUMPDEST PUSH2 0x723 PUSH2 0x71B DUP3 PUSH2 0x6FD JUMP JUMPDEST DUP5 DUP5 SLOAD PUSH2 0x682 JUMP JUMPDEST DUP3 SSTORE POP POP POP POP JUMP JUMPDEST PUSH0 PUSH0 SWAP1 POP SWAP1 JUMP JUMPDEST PUSH2 0x73A PUSH2 0x72B JUMP JUMPDEST PUSH2 0x745 DUP2 DUP5 DUP5 PUSH2 0x706 JUMP JUMPDEST POP POP POP JUMP JUMPDEST PUSH0 JUMPDEST DUP3 DUP2 LT ISZERO PUSH2 0x76B JUMPI PUSH2 0x760 PUSH0 DUP3 DUP5 ADD PUSH2 0x732 JUMP JUMPDEST PUSH1 0x1 DUP2 ADD SWAP1 POP PUSH2 0x74C JUMP JUMPDEST POP POP POP JUMP JUMPDEST PUSH1 0x1F DUP3 GT ISZERO PUSH2 0x7BE JUMPI DUP3 DUP3 GT ISZERO PUSH2 0x7BD JUMPI PUSH2 0x78A DUP2 PUSH2 0x655 JUMP JUMPDEST PUSH2 0x793 DUP4 PUSH2 0x667 JUMP JUMPDEST PUSH2 0x79C DUP6 PUSH2 0x667 JUMP JUMPDEST PUSH1 0x20 DUP7 LT ISZERO PUSH2 0x7A9 JUMPI PUSH0 SWAP1 POP JUMPDEST DUP1 DUP4 ADD PUSH2 0x7B8 DUP3 DUP5 SUB DUP3 PUSH2 0x74A JUMP JUMPDEST POP POP POP POP JUMPDEST JUMPDEST POP POP POP JUMP JUMPDEST PUSH0 DUP3 DUP3 SHR SWAP1 POP SWAP3 SWAP2 POP POP JUMP JUMPDEST PUSH0 PUSH2 0x7DE PUSH0 NOT DUP5 PUSH1 0x8 MUL PUSH2 0x7C3 JUMP JUMPDEST NOT DUP1 DUP4 AND SWAP2 POP POP SWAP3 SWAP2 POP POP JUMP JUMPDEST PUSH0 PUSH2 0x7F6 DUP4 DUP4 PUSH2 0x7CF JUMP JUMPDEST SWAP2 POP DUP3 PUSH1 0x2 MUL DUP3 OR SWAP1 POP SWAP3 SWAP2 POP POP JUMP JUMPDEST PUSH2 0x810 DUP4 DUP4 PUSH2 0x5C1 JUMP JUMPDEST PUSH8 0xFFFFFFFFFFFFFFFF DUP2 GT ISZERO PUSH2 0x829 JUMPI PUSH2 0x828 PUSH2 0x5CB JUMP JUMPDEST JUMPDEST PUSH2 0x833 DUP3 SLOAD PUSH2 0x625 JUMP JUMPDEST PUSH2 0x83E DUP3 DUP3 DUP6 PUSH2 0x770 JUMP JUMPDEST PUSH0 PUSH1 0x1F DUP4 GT PUSH1 0x1 DUP2 EQ PUSH2 0x86B JUMPI PUSH0 DUP5 ISZERO PUSH2 0x859 JUMPI DUP3 DUP8 ADD CALLDATALOAD SWAP1 POP JUMPDEST PUSH2 0x863 DUP6 DUP3 PUSH2 0x7EB JUMP JUMPDEST DUP7 SSTORE POP PUSH2 0x8CA JUMP JUMPDEST PUSH1 0x1F NOT DUP5 AND PUSH2 0x879 DUP7 PUSH2 0x655 JUMP JUMPDEST PUSH0 JUMPDEST DUP3 DUP2 LT ISZERO PUSH2 0x8A0 JUMPI DUP5 DUP10 ADD CALLDATALOAD DUP3 SSTORE PUSH1 0x1 DUP3 ADD SWAP2 POP PUSH1 0x20 DUP6 ADD SWAP5 POP PUSH1 0x20 DUP2 ADD SWAP1 POP PUSH2 0x87B JUMP JUMPDEST DUP7 DUP4 LT ISZERO PUSH2 0x8BD JUMPI DUP5 DUP10 ADD CALLDATALOAD PUSH2 0x8B9 PUSH1 0x1F DUP10 AND DUP3 PUSH2 0x7CF JUMP JUMPDEST DUP4 SSTORE POP JUMPDEST PUSH1 0x1 PUSH1 0x2 DUP9 MUL ADD DUP9 SSTORE POP POP POP JUMPDEST POP POP POP POP POP POP POP JUMP INVALID LOG2 PUSH5 0x6970667358 0x22 SLT KECCAK256 0xD5 LOG4 PUSH3 0x6EBB6B DUP2 0xE SHL 0x2C BLOCKHASH SHR 0xDB 0xAC DUPN 0xB1 SWAP15 GT 0xE9 SWAP16 DUP6 0x4C RETF DUP7 CODESIZE INVALID 0xA9 CALLER SWAP7 0xB3 CALLDATASIZE BYTE PUSH5 0x736F6C6343 STOP ADDMOD 0x22 STOP CALLER "
				},
				"gasEstimates": {
					"creation": {
						"codeDepositCost": "462600",
						"executionCost": "497",
						"totalCost": "463097"
					},
					"external": {
						"lastMessage()": "infinite",
						"lastNumber()": "2490",
						"readMultipleInputs(uint256,bool,address)": "infinite",
						"readString(string)": "infinite",
						"readUint(uint256)": "infinite",
						"saveInput(uint256,string)": "infinite"
					}
				},
				"methodIdentifiers": {
					"lastMessage()": "32970710",
					"lastNumber()": "b3db9f1a",
					"readMultipleInputs(uint256,bool,address)": "85974f2f",
					"readString(string)": "42a91734",
					"readUint(uint256)": "cbfbca5e",
					"saveInput(uint256,string)": "17679e13"
				}
			},
			"storageLayout": {
				"storage": [
					{
						"astId": 3,
						"contract": "val28.sol:ReadCalldataValuesval",
						"label": "lastNumber",
						"offset": 0,
						"slot": "0",
						"type": "t_uint256"
					},
					{
						"astId": 5,
						"contract": "val28.sol:ReadCalldataValuesval",
						"label": "lastMessage",
						"offset": 0,
						"slot": "1",
						"type": "t_string_storage"
					}
				],
				"types": {
					"t_string_storage": {
						"encoding": "bytes",
						"label": "string",
						"numberOfBytes": "32"
					},
					"t_uint256": {
						"encoding": "inplace",
						"label": "uint256",
						"numberOfBytes": "32"
					}
				}
			},
			"userdoc": {
				"kind": "user",
				"methods": {},
				"version": 1
			}
		}
	}
}