{
	"val34.sol": {
		"NestedCalldataArray": {
			"abi": [
				{
					"inputs": [],
					"name": "MAX_INNER_LENGTH",
					"outputs": [
						{
							"internalType": "uint256",
							"name": "",
							"type": "uint256"
						}
					],
					"stateMutability": "view",
					"type": "function"
				},
				{
					"inputs": [],
					"name": "MAX_OUTER_LENGTH",
					"outputs": [
						{
							"internalType": "uint256",
							"name": "",
							"type": "uint256"
						}
					],
					"stateMutability": "view",
					"type": "function"
				},
				{
					"inputs": [
						{
							"internalType": "uint256[][]",
							"name": "_matrix",
							"type": "uint256[][]"
						}
					],
					"name": "calculateNestedSum",
					"outputs": [
						{
							"internalType": "uint256",
							"name": "",
							"type": "uint256"
						}
					],
					"stateMutability": "pure",
					"type": "function"
				},
				{
					"inputs": [
						{
							"internalType": "uint256[][]",
							"name": "_matrix",
							"type": "uint256[][]"
						}
					],
					"name": "findLargestNumber",
					"outputs": [
						{
							"internalType": "uint256",
							"name": "",
							"type": "uint256"
						}
					],
					"stateMutability": "pure",
					"type": "function"
				},
				{
					"inputs": [
						{
							"internalType": "uint256[][]",
							"name": "_matrix",
							"type": "uint256[][]"
						}
					],
					"name": "getOuterLength",
					"outputs": [
						{
							"internalType": "uint256",
							"name": "",
							"type": "uint256"
						}
					],
					"stateMutability": "pure",
					"type": "function"
				},
				{
					"inputs": [
						{
							"internalType": "uint256[][]",
							"name": "_matrix",
							"type": "uint256[][]"
						}
					],
					"name": "processAndStore",
					"outputs": [],
					"stateMutability": "nonpayable",
					"type": "function"
				},
				{
					"inputs": [
						{
							"internalType": "uint256[][]",
							"name": "_matrix",
							"type": "uint256[][]"
						}
					],
					"name": "readNestedArray",
					"outputs": [
						{
							"internalType": "uint256[][]",
							"name": "",
							"type": "uint256[][]"
						}
					],
					"stateMutability": "pure",
					"type": "function"
				},
				{
					"inputs": [],
					"name": "totalSum",
					"outputs": [
						{
							"internalType": "uint256",
							"name": "",
							"type": "uint256"
						}
					],
					"stateMutability": "view",
					"type": "function"
				}
			],
			"devdoc": {
				"kind": "dev",
				"methods": {},
				"version": 1
			},
			"evm": {
				"assembly": "    /* \"val34.sol\":12235:15642  contract NestedCalldataArray {... */\n  mstore(0x40, 0x80)\n  callvalue\n  dup1\n  iszero\n  tag_1\n  jumpi\n  revert(0x00, 0x00)\ntag_1:\n  pop\n  dataSize(sub_0)\n  dup1\n  dataOffset(sub_0)\n  0x00\n  codecopy\n  0x00\n  return\nstop\n\nsub_0: assembly {\n        /* \"val34.sol\":12235:15642  contract NestedCalldataArray {... */\n      mstore(0x40, 0x80)\n      callvalue\n      dup1\n      iszero\n      tag_1\n      jumpi\n      revert(0x00, 0x00)\n    tag_1:\n      pop\n      jumpi(tag_2, lt(calldatasize, 0x04))\n      shr(0xe0, calldataload(0x00))\n      dup1\n      0x545f46c2\n      gt\n      tag_11\n      jumpi\n      dup1\n      0x545f46c2\n      eq\n      tag_7\n      jumpi\n      dup1\n      0x6f2dff4e\n      eq\n      tag_8\n      jumpi\n      dup1\n      0x71a7c188\n      eq\n      tag_9\n      jumpi\n      dup1\n      0xb6530583\n      eq\n      tag_10\n      jumpi\n      jump(tag_2)\n    tag_11:\n      dup1\n      0x0db8dc4d\n      eq\n      tag_3\n      jumpi\n      dup1\n      0x18f1024d\n      eq\n      tag_4\n      jumpi\n      dup1\n      0x1a151fa2\n      eq\n      tag_5\n      jumpi\n      dup1\n      0x4869f99d\n      eq\n      tag_6\n      jumpi\n    tag_2:\n      revert(0x00, 0x00)\n        /* \"val34.sol\":13162:13932  function findLargestNumber(uint256[][] calldata _matrix) external pure returns (uint256)... */\n    tag_3:\n      tag_12\n      0x04\n      dup1\n      calldatasize\n      sub\n      dup2\n      add\n      swap1\n      tag_13\n      swap2\n      swap1\n      tag_14\n      jump\t// in\n    tag_13:\n      tag_15\n      jump\t// in\n    tag_12:\n      mload(0x40)\n      tag_16\n      swap2\n      swap1\n      tag_17\n      jump\t// in\n    tag_16:\n      mload(0x40)\n      dup1\n      swap2\n      sub\n      swap1\n      return\n        /* \"val34.sol\":14756:15299  function processAndStore(... */\n    tag_4:\n      tag_18\n      0x04\n      dup1\n      calldatasize\n      sub\n      dup2\n      add\n      swap1\n      tag_19\n      swap2\n      swap1\n      tag_14\n      jump\t// in\n    tag_19:\n      tag_20\n      jump\t// in\n    tag_18:\n      stop\n        /* \"val34.sol\":13054:13099  uint256 public constant MAX_OUTER_LENGTH = 50 */\n    tag_5:\n      tag_21\n      tag_22\n      jump\t// in\n    tag_21:\n      mload(0x40)\n      tag_23\n      swap2\n      swap1\n      tag_17\n      jump\t// in\n    tag_23:\n      mload(0x40)\n      dup1\n      swap2\n      sub\n      swap1\n      return\n        /* \"val34.sol\":12354:12377  uint256 public totalSum */\n    tag_6:\n      tag_24\n      tag_25\n      jump\t// in\n    tag_24:\n      mload(0x40)\n      tag_26\n      swap2\n      swap1\n      tag_17\n      jump\t// in\n    tag_26:\n      mload(0x40)\n      dup1\n      swap2\n      sub\n      swap1\n      return\n        /* \"val34.sol\":12554:12859  function readNestedArray(... */\n    tag_7:\n      tag_27\n      0x04\n      dup1\n      calldatasize\n      sub\n      dup2\n      add\n      swap1\n      tag_28\n      swap2\n      swap1\n      tag_14\n      jump\t// in\n    tag_28:\n      tag_29\n      jump\t// in\n    tag_27:\n      mload(0x40)\n      tag_30\n      swap2\n      swap1\n      tag_31\n      jump\t// in\n    tag_30:\n      mload(0x40)\n      dup1\n      swap2\n      sub\n      swap1\n      return\n        /* \"val34.sol\":13108:13153  uint256 public constant MAX_INNER_LENGTH = 50 */\n    tag_8:\n      tag_32\n      tag_33\n      jump\t// in\n    tag_32:\n      mload(0x40)\n      tag_34\n      swap2\n      swap1\n      tag_17\n      jump\t// in\n    tag_34:\n      mload(0x40)\n      dup1\n      swap2\n      sub\n      swap1\n      return\n        /* \"val34.sol\":13940:14587  function calculateNestedSum(... */\n    tag_9:\n      tag_35\n      0x04\n      dup1\n      calldatasize\n      sub\n      dup2\n      add\n      swap1\n      tag_36\n      swap2\n      swap1\n      tag_14\n      jump\t// in\n    tag_36:\n      tag_37\n      jump\t// in\n    tag_35:\n      mload(0x40)\n      tag_38\n      swap2\n      swap1\n      tag_17\n      jump\t// in\n    tag_38:\n      mload(0x40)\n      dup1\n      swap2\n      sub\n      swap1\n      return\n        /* \"val34.sol\":15463:15639  function getOuterLength(... */\n    tag_10:\n      tag_39\n      0x04\n      dup1\n      calldatasize\n      sub\n      dup2\n      add\n      swap1\n      tag_40\n      swap2\n      swap1\n      tag_14\n      jump\t// in\n    tag_40:\n      tag_41\n      jump\t// in\n    tag_39:\n      mload(0x40)\n      tag_42\n      swap2\n      swap1\n      tag_17\n      jump\t// in\n    tag_42:\n      mload(0x40)\n      dup1\n      swap2\n      sub\n      swap1\n      return\n        /* \"val34.sol\":13162:13932  function findLargestNumber(uint256[][] calldata _matrix) external pure returns (uint256)... */\n    tag_15:\n        /* \"val34.sol\":13242:13249  uint256 */\n      0x00\n        /* \"val34.sol\":13292:13293  0 */\n      0x00\n        /* \"val34.sol\":13275:13282  _matrix */\n      dup4\n      dup4\n        /* \"val34.sol\":13275:13289  _matrix.length */\n      swap1\n      pop\n        /* \"val34.sol\":13275:13293  _matrix.length > 0 */\n      gt\n        /* \"val34.sol\":13267:13321  require(_matrix.length > 0, \"Array must not be empty\") */\n      tag_44\n      jumpi\n      mload(0x40)\n      0x08c379a000000000000000000000000000000000000000000000000000000000\n      dup2\n      mstore\n      0x04\n      add\n      tag_45\n      swap1\n      tag_46\n      jump\t// in\n    tag_45:\n      mload(0x40)\n      dup1\n      swap2\n      sub\n      swap1\n      revert\n    tag_44:\n        /* \"val34.sol\":13097:13099  50 */\n      0x32\n        /* \"val34.sol\":13342:13349  _matrix */\n      dup4\n      dup4\n        /* \"val34.sol\":13342:13356  _matrix.length */\n      swap1\n      pop\n        /* \"val34.sol\":13342:13376  _matrix.length <= MAX_OUTER_LENGTH */\n      gt\n      iszero\n        /* \"val34.sol\":13334:13402  require(_matrix.length <= MAX_OUTER_LENGTH, \"Outer array too large\") */\n      tag_47\n      jumpi\n      mload(0x40)\n      0x08c379a000000000000000000000000000000000000000000000000000000000\n      dup2\n      mstore\n      0x04\n      add\n      tag_48\n      swap1\n      tag_49\n      jump\t// in\n    tag_48:\n      mload(0x40)\n      dup1\n      swap2\n      sub\n      swap1\n      revert\n    tag_47:\n        /* \"val34.sol\":13415:13430  uint256 largest */\n      0x00\n        /* \"val34.sol\":13433:13440  _matrix */\n      dup4\n      dup4\n        /* \"val34.sol\":13441:13442  0 */\n      0x00\n        /* \"val34.sol\":13433:13443  _matrix[0] */\n      dup2\n      dup2\n      lt\n      tag_50\n      jumpi\n      tag_51\n      tag_52\n      jump\t// in\n    tag_51:\n    tag_50:\n      swap1\n      pop\n      0x20\n      mul\n      dup2\n      add\n      swap1\n      tag_53\n      swap2\n      swap1\n      tag_54\n      jump\t// in\n    tag_53:\n        /* \"val34.sol\":13444:13445  0 */\n      0x00\n        /* \"val34.sol\":13433:13446  _matrix[0][0] */\n      dup2\n      dup2\n      lt\n      tag_55\n      jumpi\n      tag_56\n      tag_52\n      jump\t// in\n    tag_56:\n    tag_55:\n      swap1\n      pop\n      0x20\n      mul\n      add\n      calldataload\n        /* \"val34.sol\":13415:13446  uint256 largest = _matrix[0][0] */\n      swap1\n      pop\n        /* \"val34.sol\":13463:13472  uint256 i */\n      0x00\n        /* \"val34.sol\":13475:13476  0 */\n      0x00\n        /* \"val34.sol\":13463:13476  uint256 i = 0 */\n      swap1\n      pop\n        /* \"val34.sol\":13459:13898  for(uint256 i = 0; i < _matrix.length; i++)... */\n    tag_57:\n        /* \"val34.sol\":13482:13489  _matrix */\n      dup5\n      dup5\n        /* \"val34.sol\":13482:13496  _matrix.length */\n      swap1\n      pop\n        /* \"val34.sol\":13478:13479  i */\n      dup2\n        /* \"val34.sol\":13478:13496  i < _matrix.length */\n      lt\n        /* \"val34.sol\":13459:13898  for(uint256 i = 0; i < _matrix.length; i++)... */\n      iszero\n      tag_58\n      jumpi\n        /* \"val34.sol\":13555:13556  0 */\n      0x00\n        /* \"val34.sol\":13535:13542  _matrix */\n      dup6\n      dup6\n        /* \"val34.sol\":13543:13544  i */\n      dup4\n        /* \"val34.sol\":13535:13545  _matrix[i] */\n      dup2\n      dup2\n      lt\n      tag_60\n      jumpi\n      tag_61\n      tag_52\n      jump\t// in\n    tag_61:\n    tag_60:\n      swap1\n      pop\n      0x20\n      mul\n      dup2\n      add\n      swap1\n      tag_62\n      swap2\n      swap1\n      tag_54\n      jump\t// in\n    tag_62:\n        /* \"val34.sol\":13535:13552  _matrix[i].length */\n      swap1\n      pop\n        /* \"val34.sol\":13535:13556  _matrix[i].length > 0 */\n      gt\n        /* \"val34.sol\":13527:13578  require(_matrix[i].length > 0, \"Empty inner array\") */\n      tag_63\n      jumpi\n      mload(0x40)\n      0x08c379a000000000000000000000000000000000000000000000000000000000\n      dup2\n      mstore\n      0x04\n      add\n      tag_64\n      swap1\n      tag_65\n      jump\t// in\n    tag_64:\n      mload(0x40)\n      dup1\n      swap2\n      sub\n      swap1\n      revert\n    tag_63:\n        /* \"val34.sol\":13151:13153  50 */\n      0x32\n        /* \"val34.sol\":13603:13610  _matrix */\n      dup6\n      dup6\n        /* \"val34.sol\":13611:13612  i */\n      dup4\n        /* \"val34.sol\":13603:13613  _matrix[i] */\n      dup2\n      dup2\n      lt\n      tag_66\n      jumpi\n      tag_67\n      tag_52\n      jump\t// in\n    tag_67:\n    tag_66:\n      swap1\n      pop\n      0x20\n      mul\n      dup2\n      add\n      swap1\n      tag_68\n      swap2\n      swap1\n      tag_54\n      jump\t// in\n    tag_68:\n        /* \"val34.sol\":13603:13620  _matrix[i].length */\n      swap1\n      pop\n        /* \"val34.sol\":13603:13640  _matrix[i].length <= MAX_INNER_LENGTH */\n      gt\n      iszero\n        /* \"val34.sol\":13595:13665  require(_matrix[i].length <= MAX_INNER_LENGTH,\"Inner array too large\") */\n      tag_69\n      jumpi\n      mload(0x40)\n      0x08c379a000000000000000000000000000000000000000000000000000000000\n      dup2\n      mstore\n      0x04\n      add\n      tag_70\n      swap1\n      tag_71\n      jump\t// in\n    tag_70:\n      mload(0x40)\n      dup1\n      swap2\n      sub\n      swap1\n      revert\n    tag_69:\n        /* \"val34.sol\":13686:13695  uint256 j */\n      0x00\n        /* \"val34.sol\":13698:13699  0 */\n      0x00\n        /* \"val34.sol\":13686:13699  uint256 j = 0 */\n      swap1\n      pop\n        /* \"val34.sol\":13682:13887  for(uint256 j = 0; j < _matrix[i].length; j++)... */\n    tag_72:\n        /* \"val34.sol\":13705:13712  _matrix */\n      dup6\n      dup6\n        /* \"val34.sol\":13713:13714  i */\n      dup4\n        /* \"val34.sol\":13705:13715  _matrix[i] */\n      dup2\n      dup2\n      lt\n      tag_75\n      jumpi\n      tag_76\n      tag_52\n      jump\t// in\n    tag_76:\n    tag_75:\n      swap1\n      pop\n      0x20\n      mul\n      dup2\n      add\n      swap1\n      tag_77\n      swap2\n      swap1\n      tag_54\n      jump\t// in\n    tag_77:\n        /* \"val34.sol\":13705:13722  _matrix[i].length */\n      swap1\n      pop\n        /* \"val34.sol\":13701:13702  j */\n      dup2\n        /* \"val34.sol\":13701:13722  j < _matrix[i].length */\n      lt\n        /* \"val34.sol\":13682:13887  for(uint256 j = 0; j < _matrix[i].length; j++)... */\n      iszero\n      tag_73\n      jumpi\n        /* \"val34.sol\":13780:13787  largest */\n      dup3\n        /* \"val34.sol\":13764:13771  _matrix */\n      dup7\n      dup7\n        /* \"val34.sol\":13772:13773  i */\n      dup5\n        /* \"val34.sol\":13764:13774  _matrix[i] */\n      dup2\n      dup2\n      lt\n      tag_78\n      jumpi\n      tag_79\n      tag_52\n      jump\t// in\n    tag_79:\n    tag_78:\n      swap1\n      pop\n      0x20\n      mul\n      dup2\n      add\n      swap1\n      tag_80\n      swap2\n      swap1\n      tag_54\n      jump\t// in\n    tag_80:\n        /* \"val34.sol\":13775:13776  j */\n      dup4\n        /* \"val34.sol\":13764:13777  _matrix[i][j] */\n      dup2\n      dup2\n      lt\n      tag_81\n      jumpi\n      tag_82\n      tag_52\n      jump\t// in\n    tag_82:\n    tag_81:\n      swap1\n      pop\n      0x20\n      mul\n      add\n      calldataload\n        /* \"val34.sol\":13764:13787  _matrix[i][j] > largest */\n      gt\n        /* \"val34.sol\":13761:13872  if(_matrix[i][j] > largest)... */\n      iszero\n      tag_83\n      jumpi\n        /* \"val34.sol\":13839:13846  _matrix */\n      dup6\n      dup6\n        /* \"val34.sol\":13847:13848  i */\n      dup4\n        /* \"val34.sol\":13839:13849  _matrix[i] */\n      dup2\n      dup2\n      lt\n      tag_84\n      jumpi\n      tag_85\n      tag_52\n      jump\t// in\n    tag_85:\n    tag_84:\n      swap1\n      pop\n      0x20\n      mul\n      dup2\n      add\n      swap1\n      tag_86\n      swap2\n      swap1\n      tag_54\n      jump\t// in\n    tag_86:\n        /* \"val34.sol\":13850:13851  j */\n      dup3\n        /* \"val34.sol\":13839:13852  _matrix[i][j] */\n      dup2\n      dup2\n      lt\n      tag_87\n      jumpi\n      tag_88\n      tag_52\n      jump\t// in\n    tag_88:\n    tag_87:\n      swap1\n      pop\n      0x20\n      mul\n      add\n      calldataload\n        /* \"val34.sol\":13829:13852  largest = _matrix[i][j] */\n      swap3\n      pop\n        /* \"val34.sol\":13761:13872  if(_matrix[i][j] > largest)... */\n    tag_83:\n        /* \"val34.sol\":13724:13727  j++ */\n      dup1\n      dup1\n      0x01\n      add\n      swap2\n      pop\n      pop\n        /* \"val34.sol\":13682:13887  for(uint256 j = 0; j < _matrix[i].length; j++)... */\n      jump(tag_72)\n    tag_73:\n      pop\n        /* \"val34.sol\":13498:13501  i++ */\n      dup1\n      dup1\n      0x01\n      add\n      swap2\n      pop\n      pop\n        /* \"val34.sol\":13459:13898  for(uint256 i = 0; i < _matrix.length; i++)... */\n      jump(tag_57)\n    tag_58:\n      pop\n        /* \"val34.sol\":13917:13924  largest */\n      dup1\n        /* \"val34.sol\":13910:13924  return largest */\n      swap2\n      pop\n      pop\n        /* \"val34.sol\":13162:13932  function findLargestNumber(uint256[][] calldata _matrix) external pure returns (uint256)... */\n      swap3\n      swap2\n      pop\n      pop\n      jump\t// out\n        /* \"val34.sol\":14756:15299  function processAndStore(... */\n    tag_20:\n        /* \"val34.sol\":14863:14876  uint256 total */\n      0x00\n        /* \"val34.sol\":14879:14880  0 */\n      0x00\n        /* \"val34.sol\":14863:14880  uint256 total = 0 */\n      swap1\n      pop\n        /* \"val34.sol\":14959:14968  uint256 i */\n      0x00\n        /* \"val34.sol\":14971:14972  0 */\n      0x00\n        /* \"val34.sol\":14959:14972  uint256 i = 0 */\n      swap1\n      pop\n        /* \"val34.sol\":14954:15200  for (uint256 i = 0; i < _matrix.length; i++) {... */\n    tag_90:\n        /* \"val34.sol\":14978:14985  _matrix */\n      dup4\n      dup4\n        /* \"val34.sol\":14978:14992  _matrix.length */\n      swap1\n      pop\n        /* \"val34.sol\":14974:14975  i */\n      dup2\n        /* \"val34.sol\":14974:14992  i < _matrix.length */\n      lt\n        /* \"val34.sol\":14954:15200  for (uint256 i = 0; i < _matrix.length; i++) {... */\n      iszero\n      tag_91\n      jumpi\n        /* \"val34.sol\":15039:15048  uint256 j */\n      0x00\n        /* \"val34.sol\":15051:15052  0 */\n      0x00\n        /* \"val34.sol\":15039:15052  uint256 j = 0 */\n      swap1\n      pop\n        /* \"val34.sol\":15016:15189  for (... */\n    tag_93:\n        /* \"val34.sol\":15075:15082  _matrix */\n      dup5\n      dup5\n        /* \"val34.sol\":15083:15084  i */\n      dup4\n        /* \"val34.sol\":15075:15085  _matrix[i] */\n      dup2\n      dup2\n      lt\n      tag_96\n      jumpi\n      tag_97\n      tag_52\n      jump\t// in\n    tag_97:\n    tag_96:\n      swap1\n      pop\n      0x20\n      mul\n      dup2\n      add\n      swap1\n      tag_98\n      swap2\n      swap1\n      tag_54\n      jump\t// in\n    tag_98:\n        /* \"val34.sol\":15075:15092  _matrix[i].length */\n      swap1\n      pop\n        /* \"val34.sol\":15071:15072  j */\n      dup2\n        /* \"val34.sol\":15071:15092  j < _matrix[i].length */\n      lt\n        /* \"val34.sol\":15016:15189  for (... */\n      iszero\n      tag_94\n      jumpi\n        /* \"val34.sol\":15160:15167  _matrix */\n      dup5\n      dup5\n        /* \"val34.sol\":15168:15169  i */\n      dup4\n        /* \"val34.sol\":15160:15170  _matrix[i] */\n      dup2\n      dup2\n      lt\n      tag_99\n      jumpi\n      tag_100\n      tag_52\n      jump\t// in\n    tag_100:\n    tag_99:\n      swap1\n      pop\n      0x20\n      mul\n      dup2\n      add\n      swap1\n      tag_101\n      swap2\n      swap1\n      tag_54\n      jump\t// in\n    tag_101:\n        /* \"val34.sol\":15171:15172  j */\n      dup3\n        /* \"val34.sol\":15160:15173  _matrix[i][j] */\n      dup2\n      dup2\n      lt\n      tag_102\n      jumpi\n      tag_103\n      tag_52\n      jump\t// in\n    tag_103:\n    tag_102:\n      swap1\n      pop\n      0x20\n      mul\n      add\n      calldataload\n        /* \"val34.sol\":15151:15173  total += _matrix[i][j] */\n      dup4\n      tag_104\n      swap2\n      swap1\n      tag_105\n      jump\t// in\n    tag_104:\n      swap3\n      pop\n        /* \"val34.sol\":15111:15114  j++ */\n      dup1\n      dup1\n      0x01\n      add\n      swap2\n      pop\n      pop\n        /* \"val34.sol\":15016:15189  for (... */\n      jump(tag_93)\n    tag_94:\n      pop\n        /* \"val34.sol\":14994:14997  i++ */\n      dup1\n      dup1\n      0x01\n      add\n      swap2\n      pop\n      pop\n        /* \"val34.sol\":14954:15200  for (uint256 i = 0; i < _matrix.length; i++) {... */\n      jump(tag_90)\n    tag_91:\n      pop\n        /* \"val34.sol\":15286:15291  total */\n      dup1\n        /* \"val34.sol\":15275:15283  totalSum */\n      0x00\n        /* \"val34.sol\":15275:15291  totalSum = total */\n      dup2\n      swap1\n      sstore\n      pop\n        /* \"val34.sol\":14850:15299  {... */\n      pop\n        /* \"val34.sol\":14756:15299  function processAndStore(... */\n      pop\n      pop\n      jump\t// out\n        /* \"val34.sol\":13054:13099  uint256 public constant MAX_OUTER_LENGTH = 50 */\n    tag_22:\n        /* \"val34.sol\":13097:13099  50 */\n      0x32\n        /* \"val34.sol\":13054:13099  uint256 public constant MAX_OUTER_LENGTH = 50 */\n      dup2\n      jump\t// out\n        /* \"val34.sol\":12354:12377  uint256 public totalSum */\n    tag_25:\n      sload(0x00)\n      dup2\n      jump\t// out\n        /* \"val34.sol\":12554:12859  function readNestedArray(... */\n    tag_29:\n        /* \"val34.sol\":12675:12693  uint256[][] memory */\n      0x60\n        /* \"val34.sol\":12844:12851  _matrix */\n      dup3\n      dup3\n        /* \"val34.sol\":12837:12851  return _matrix */\n      swap1\n      tag_107\n      swap2\n      swap1\n      tag_108\n      jump\t// in\n    tag_107:\n      swap1\n      pop\n        /* \"val34.sol\":12554:12859  function readNestedArray(... */\n      swap3\n      swap2\n      pop\n      pop\n      jump\t// out\n        /* \"val34.sol\":13108:13153  uint256 public constant MAX_INNER_LENGTH = 50 */\n    tag_33:\n        /* \"val34.sol\":13151:13153  50 */\n      0x32\n        /* \"val34.sol\":13108:13153  uint256 public constant MAX_INNER_LENGTH = 50 */\n      dup2\n      jump\t// out\n        /* \"val34.sol\":13940:14587  function calculateNestedSum(... */\n    tag_37:\n        /* \"val34.sol\":14064:14071  uint256 */\n      0x00\n        /* \"val34.sol\":14091:14104  uint256 total */\n      0x00\n        /* \"val34.sol\":14107:14108  0 */\n      0x00\n        /* \"val34.sol\":14091:14108  uint256 total = 0 */\n      swap1\n      pop\n        /* \"val34.sol\":14212:14221  uint256 i */\n      0x00\n        /* \"val34.sol\":14224:14225  0 */\n      0x00\n        /* \"val34.sol\":14212:14225  uint256 i = 0 */\n      swap1\n      pop\n        /* \"val34.sol\":14207:14555  for (uint256 i = 0; i < _matrix.length; i++) {... */\n    tag_110:\n        /* \"val34.sol\":14231:14238  _matrix */\n      dup5\n      dup5\n        /* \"val34.sol\":14231:14245  _matrix.length */\n      swap1\n      pop\n        /* \"val34.sol\":14227:14228  i */\n      dup2\n        /* \"val34.sol\":14227:14245  i < _matrix.length */\n      lt\n        /* \"val34.sol\":14207:14555  for (uint256 i = 0; i < _matrix.length; i++) {... */\n      iszero\n      tag_111\n      jumpi\n        /* \"val34.sol\":14394:14403  uint256 j */\n      0x00\n        /* \"val34.sol\":14406:14407  0 */\n      0x00\n        /* \"val34.sol\":14394:14407  uint256 j = 0 */\n      swap1\n      pop\n        /* \"val34.sol\":14371:14544  for (... */\n    tag_113:\n        /* \"val34.sol\":14430:14437  _matrix */\n      dup6\n      dup6\n        /* \"val34.sol\":14438:14439  i */\n      dup4\n        /* \"val34.sol\":14430:14440  _matrix[i] */\n      dup2\n      dup2\n      lt\n      tag_116\n      jumpi\n      tag_117\n      tag_52\n      jump\t// in\n    tag_117:\n    tag_116:\n      swap1\n      pop\n      0x20\n      mul\n      dup2\n      add\n      swap1\n      tag_118\n      swap2\n      swap1\n      tag_54\n      jump\t// in\n    tag_118:\n        /* \"val34.sol\":14430:14447  _matrix[i].length */\n      swap1\n      pop\n        /* \"val34.sol\":14426:14427  j */\n      dup2\n        /* \"val34.sol\":14426:14447  j < _matrix[i].length */\n      lt\n        /* \"val34.sol\":14371:14544  for (... */\n      iszero\n      tag_114\n      jumpi\n        /* \"val34.sol\":14515:14522  _matrix */\n      dup6\n      dup6\n        /* \"val34.sol\":14523:14524  i */\n      dup4\n        /* \"val34.sol\":14515:14525  _matrix[i] */\n      dup2\n      dup2\n      lt\n      tag_119\n      jumpi\n      tag_120\n      tag_52\n      jump\t// in\n    tag_120:\n    tag_119:\n      swap1\n      pop\n      0x20\n      mul\n      dup2\n      add\n      swap1\n      tag_121\n      swap2\n      swap1\n      tag_54\n      jump\t// in\n    tag_121:\n        /* \"val34.sol\":14526:14527  j */\n      dup3\n        /* \"val34.sol\":14515:14528  _matrix[i][j] */\n      dup2\n      dup2\n      lt\n      tag_122\n      jumpi\n      tag_123\n      tag_52\n      jump\t// in\n    tag_123:\n    tag_122:\n      swap1\n      pop\n      0x20\n      mul\n      add\n      calldataload\n        /* \"val34.sol\":14506:14528  total += _matrix[i][j] */\n      dup4\n      tag_124\n      swap2\n      swap1\n      tag_105\n      jump\t// in\n    tag_124:\n      swap3\n      pop\n        /* \"val34.sol\":14466:14469  j++ */\n      dup1\n      dup1\n      0x01\n      add\n      swap2\n      pop\n      pop\n        /* \"val34.sol\":14371:14544  for (... */\n      jump(tag_113)\n    tag_114:\n      pop\n        /* \"val34.sol\":14247:14250  i++ */\n      dup1\n      dup1\n      0x01\n      add\n      swap2\n      pop\n      pop\n        /* \"val34.sol\":14207:14555  for (uint256 i = 0; i < _matrix.length; i++) {... */\n      jump(tag_110)\n    tag_111:\n      pop\n        /* \"val34.sol\":14574:14579  total */\n      dup1\n        /* \"val34.sol\":14567:14579  return total */\n      swap2\n      pop\n      pop\n        /* \"val34.sol\":13940:14587  function calculateNestedSum(... */\n      swap3\n      swap2\n      pop\n      pop\n      jump\t// out\n        /* \"val34.sol\":15463:15639  function getOuterLength(... */\n    tag_41:\n        /* \"val34.sol\":15583:15590  uint256 */\n      0x00\n        /* \"val34.sol\":15617:15624  _matrix */\n      dup3\n      dup3\n        /* \"val34.sol\":15617:15631  _matrix.length */\n      swap1\n      pop\n        /* \"val34.sol\":15610:15631  return _matrix.length */\n      swap1\n      pop\n        /* \"val34.sol\":15463:15639  function getOuterLength(... */\n      swap3\n      swap2\n      pop\n      pop\n      jump\t// out\n        /* \"#utility.yul\":7:82   */\n    tag_126:\n        /* \"#utility.yul\":40:46   */\n      0x00\n        /* \"#utility.yul\":73:75   */\n      0x40\n        /* \"#utility.yul\":67:76   */\n      mload\n        /* \"#utility.yul\":57:76   */\n      swap1\n      pop\n        /* \"#utility.yul\":7:82   */\n      swap1\n      jump\t// out\n        /* \"#utility.yul\":88:205   */\n    tag_127:\n        /* \"#utility.yul\":197:198   */\n      0x00\n        /* \"#utility.yul\":194:195   */\n      0x00\n        /* \"#utility.yul\":187:199   */\n      revert\n        /* \"#utility.yul\":211:328   */\n    tag_128:\n        /* \"#utility.yul\":320:321   */\n      0x00\n        /* \"#utility.yul\":317:318   */\n      0x00\n        /* \"#utility.yul\":310:322   */\n      revert\n        /* \"#utility.yul\":334:451   */\n    tag_129:\n        /* \"#utility.yul\":443:444   */\n      0x00\n        /* \"#utility.yul\":440:441   */\n      0x00\n        /* \"#utility.yul\":433:445   */\n      revert\n        /* \"#utility.yul\":457:574   */\n    tag_130:\n        /* \"#utility.yul\":566:567   */\n      0x00\n        /* \"#utility.yul\":563:564   */\n      0x00\n        /* \"#utility.yul\":556:568   */\n      revert\n        /* \"#utility.yul\":580:697   */\n    tag_131:\n        /* \"#utility.yul\":689:690   */\n      0x00\n        /* \"#utility.yul\":686:687   */\n      0x00\n        /* \"#utility.yul\":679:691   */\n      revert\n        /* \"#utility.yul\":722:1317   */\n    tag_132:\n        /* \"#utility.yul\":822:830   */\n      0x00\n        /* \"#utility.yul\":832:838   */\n      0x00\n        /* \"#utility.yul\":882:885   */\n      dup4\n        /* \"#utility.yul\":875:879   */\n      0x1f\n        /* \"#utility.yul\":867:873   */\n      dup5\n        /* \"#utility.yul\":863:880   */\n      add\n        /* \"#utility.yul\":859:886   */\n      slt\n        /* \"#utility.yul\":849:971   */\n      tag_180\n      jumpi\n        /* \"#utility.yul\":890:969   */\n      tag_181\n      tag_129\n      jump\t// in\n    tag_181:\n        /* \"#utility.yul\":849:971   */\n    tag_180:\n        /* \"#utility.yul\":1003:1009   */\n      dup3\n        /* \"#utility.yul\":990:1010   */\n      calldataload\n        /* \"#utility.yul\":980:1010   */\n      swap1\n      pop\n        /* \"#utility.yul\":1033:1051   */\n      0xffffffffffffffff\n        /* \"#utility.yul\":1025:1031   */\n      dup2\n        /* \"#utility.yul\":1022:1052   */\n      gt\n        /* \"#utility.yul\":1019:1136   */\n      iszero\n      tag_182\n      jumpi\n        /* \"#utility.yul\":1055:1134   */\n      tag_183\n      tag_130\n      jump\t// in\n    tag_183:\n        /* \"#utility.yul\":1019:1136   */\n    tag_182:\n        /* \"#utility.yul\":1169:1173   */\n      0x20\n        /* \"#utility.yul\":1161:1167   */\n      dup4\n        /* \"#utility.yul\":1157:1174   */\n      add\n        /* \"#utility.yul\":1145:1174   */\n      swap2\n      pop\n        /* \"#utility.yul\":1223:1226   */\n      dup4\n        /* \"#utility.yul\":1215:1219   */\n      0x20\n        /* \"#utility.yul\":1207:1213   */\n      dup3\n        /* \"#utility.yul\":1203:1220   */\n      mul\n        /* \"#utility.yul\":1193:1201   */\n      dup4\n        /* \"#utility.yul\":1189:1221   */\n      add\n        /* \"#utility.yul\":1186:1227   */\n      gt\n        /* \"#utility.yul\":1183:1311   */\n      iszero\n      tag_184\n      jumpi\n        /* \"#utility.yul\":1230:1309   */\n      tag_185\n      tag_131\n      jump\t// in\n    tag_185:\n        /* \"#utility.yul\":1183:1311   */\n    tag_184:\n        /* \"#utility.yul\":722:1317   */\n      swap3\n      pop\n      swap3\n      swap1\n      pop\n      jump\t// out\n        /* \"#utility.yul\":1323:1936   */\n    tag_14:\n        /* \"#utility.yul\":1436:1442   */\n      0x00\n        /* \"#utility.yul\":1444:1450   */\n      0x00\n        /* \"#utility.yul\":1493:1495   */\n      0x20\n        /* \"#utility.yul\":1481:1490   */\n      dup4\n        /* \"#utility.yul\":1472:1479   */\n      dup6\n        /* \"#utility.yul\":1468:1491   */\n      sub\n        /* \"#utility.yul\":1464:1496   */\n      slt\n        /* \"#utility.yul\":1461:1580   */\n      iszero\n      tag_187\n      jumpi\n        /* \"#utility.yul\":1499:1578   */\n      tag_188\n      tag_127\n      jump\t// in\n    tag_188:\n        /* \"#utility.yul\":1461:1580   */\n    tag_187:\n        /* \"#utility.yul\":1647:1648   */\n      0x00\n        /* \"#utility.yul\":1636:1645   */\n      dup4\n        /* \"#utility.yul\":1632:1649   */\n      add\n        /* \"#utility.yul\":1619:1650   */\n      calldataload\n        /* \"#utility.yul\":1677:1695   */\n      0xffffffffffffffff\n        /* \"#utility.yul\":1669:1675   */\n      dup2\n        /* \"#utility.yul\":1666:1696   */\n      gt\n        /* \"#utility.yul\":1663:1780   */\n      iszero\n      tag_189\n      jumpi\n        /* \"#utility.yul\":1699:1778   */\n      tag_190\n      tag_128\n      jump\t// in\n    tag_190:\n        /* \"#utility.yul\":1663:1780   */\n    tag_189:\n        /* \"#utility.yul\":1812:1919   */\n      tag_191\n        /* \"#utility.yul\":1911:1918   */\n      dup6\n        /* \"#utility.yul\":1902:1908   */\n      dup3\n        /* \"#utility.yul\":1891:1900   */\n      dup7\n        /* \"#utility.yul\":1887:1909   */\n      add\n        /* \"#utility.yul\":1812:1919   */\n      tag_132\n      jump\t// in\n    tag_191:\n        /* \"#utility.yul\":1794:1919   */\n      swap3\n      pop\n      swap3\n      pop\n        /* \"#utility.yul\":1590:1929   */\n      pop\n        /* \"#utility.yul\":1323:1936   */\n      swap3\n      pop\n      swap3\n      swap1\n      pop\n      jump\t// out\n        /* \"#utility.yul\":1942:2019   */\n    tag_133:\n        /* \"#utility.yul\":1979:1986   */\n      0x00\n        /* \"#utility.yul\":2008:2013   */\n      dup2\n        /* \"#utility.yul\":1997:2013   */\n      swap1\n      pop\n        /* \"#utility.yul\":1942:2019   */\n      swap2\n      swap1\n      pop\n      jump\t// out\n        /* \"#utility.yul\":2025:2143   */\n    tag_134:\n        /* \"#utility.yul\":2112:2136   */\n      tag_194\n        /* \"#utility.yul\":2130:2135   */\n      dup2\n        /* \"#utility.yul\":2112:2136   */\n      tag_133\n      jump\t// in\n    tag_194:\n        /* \"#utility.yul\":2107:2110   */\n      dup3\n        /* \"#utility.yul\":2100:2137   */\n      mstore\n        /* \"#utility.yul\":2025:2143   */\n      pop\n      pop\n      jump\t// out\n        /* \"#utility.yul\":2149:2371   */\n    tag_17:\n        /* \"#utility.yul\":2242:2246   */\n      0x00\n        /* \"#utility.yul\":2280:2282   */\n      0x20\n        /* \"#utility.yul\":2269:2278   */\n      dup3\n        /* \"#utility.yul\":2265:2283   */\n      add\n        /* \"#utility.yul\":2257:2283   */\n      swap1\n      pop\n        /* \"#utility.yul\":2293:2364   */\n      tag_196\n        /* \"#utility.yul\":2361:2362   */\n      0x00\n        /* \"#utility.yul\":2350:2359   */\n      dup4\n        /* \"#utility.yul\":2346:2363   */\n      add\n        /* \"#utility.yul\":2337:2343   */\n      dup5\n        /* \"#utility.yul\":2293:2364   */\n      tag_134\n      jump\t// in\n    tag_196:\n        /* \"#utility.yul\":2149:2371   */\n      swap3\n      swap2\n      pop\n      pop\n      jump\t// out\n        /* \"#utility.yul\":2377:2516   */\n    tag_135:\n        /* \"#utility.yul\":2469:2475   */\n      0x00\n        /* \"#utility.yul\":2503:2508   */\n      dup2\n        /* \"#utility.yul\":2497:2509   */\n      mload\n        /* \"#utility.yul\":2487:2509   */\n      swap1\n      pop\n        /* \"#utility.yul\":2377:2516   */\n      swap2\n      swap1\n      pop\n      jump\t// out\n        /* \"#utility.yul\":2522:2731   */\n    tag_136:\n        /* \"#utility.yul\":2646:2657   */\n      0x00\n        /* \"#utility.yul\":2680:2686   */\n      dup3\n        /* \"#utility.yul\":2675:2678   */\n      dup3\n        /* \"#utility.yul\":2668:2687   */\n      mstore\n        /* \"#utility.yul\":2720:2724   */\n      0x20\n        /* \"#utility.yul\":2715:2718   */\n      dup3\n        /* \"#utility.yul\":2711:2725   */\n      add\n        /* \"#utility.yul\":2696:2725   */\n      swap1\n      pop\n        /* \"#utility.yul\":2522:2731   */\n      swap3\n      swap2\n      pop\n      pop\n      jump\t// out\n        /* \"#utility.yul\":2737:2894   */\n    tag_137:\n        /* \"#utility.yul\":2829:2833   */\n      0x00\n        /* \"#utility.yul\":2852:2855   */\n      dup2\n        /* \"#utility.yul\":2844:2855   */\n      swap1\n      pop\n        /* \"#utility.yul\":2882:2886   */\n      0x20\n        /* \"#utility.yul\":2877:2880   */\n      dup3\n        /* \"#utility.yul\":2873:2887   */\n      add\n        /* \"#utility.yul\":2865:2887   */\n      swap1\n      pop\n        /* \"#utility.yul\":2737:2894   */\n      swap2\n      swap1\n      pop\n      jump\t// out\n        /* \"#utility.yul\":2900:3014   */\n    tag_138:\n        /* \"#utility.yul\":2967:2973   */\n      0x00\n        /* \"#utility.yul\":3001:3006   */\n      dup2\n        /* \"#utility.yul\":2995:3007   */\n      mload\n        /* \"#utility.yul\":2985:3007   */\n      swap1\n      pop\n        /* \"#utility.yul\":2900:3014   */\n      swap2\n      swap1\n      pop\n      jump\t// out\n        /* \"#utility.yul\":3020:3194   */\n    tag_139:\n        /* \"#utility.yul\":3109:3120   */\n      0x00\n        /* \"#utility.yul\":3143:3149   */\n      dup3\n        /* \"#utility.yul\":3138:3141   */\n      dup3\n        /* \"#utility.yul\":3131:3150   */\n      mstore\n        /* \"#utility.yul\":3183:3187   */\n      0x20\n        /* \"#utility.yul\":3178:3181   */\n      dup3\n        /* \"#utility.yul\":3174:3188   */\n      add\n        /* \"#utility.yul\":3159:3188   */\n      swap1\n      pop\n        /* \"#utility.yul\":3020:3194   */\n      swap3\n      swap2\n      pop\n      pop\n      jump\t// out\n        /* \"#utility.yul\":3200:3332   */\n    tag_140:\n        /* \"#utility.yul\":3267:3271   */\n      0x00\n        /* \"#utility.yul\":3290:3293   */\n      dup2\n        /* \"#utility.yul\":3282:3293   */\n      swap1\n      pop\n        /* \"#utility.yul\":3320:3324   */\n      0x20\n        /* \"#utility.yul\":3315:3318   */\n      dup3\n        /* \"#utility.yul\":3311:3325   */\n      add\n        /* \"#utility.yul\":3303:3325   */\n      swap1\n      pop\n        /* \"#utility.yul\":3200:3332   */\n      swap2\n      swap1\n      pop\n      jump\t// out\n        /* \"#utility.yul\":3338:3446   */\n    tag_141:\n        /* \"#utility.yul\":3415:3439   */\n      tag_204\n        /* \"#utility.yul\":3433:3438   */\n      dup2\n        /* \"#utility.yul\":3415:3439   */\n      tag_133\n      jump\t// in\n    tag_204:\n        /* \"#utility.yul\":3410:3413   */\n      dup3\n        /* \"#utility.yul\":3403:3440   */\n      mstore\n        /* \"#utility.yul\":3338:3446   */\n      pop\n      pop\n      jump\t// out\n        /* \"#utility.yul\":3452:3631   */\n    tag_142:\n        /* \"#utility.yul\":3521:3531   */\n      0x00\n        /* \"#utility.yul\":3542:3588   */\n      tag_206\n        /* \"#utility.yul\":3584:3587   */\n      dup4\n        /* \"#utility.yul\":3576:3582   */\n      dup4\n        /* \"#utility.yul\":3542:3588   */\n      tag_141\n      jump\t// in\n    tag_206:\n        /* \"#utility.yul\":3620:3624   */\n      0x20\n        /* \"#utility.yul\":3615:3618   */\n      dup4\n        /* \"#utility.yul\":3611:3625   */\n      add\n        /* \"#utility.yul\":3597:3625   */\n      swap1\n      pop\n        /* \"#utility.yul\":3452:3631   */\n      swap3\n      swap2\n      pop\n      pop\n      jump\t// out\n        /* \"#utility.yul\":3637:3750   */\n    tag_143:\n        /* \"#utility.yul\":3707:3711   */\n      0x00\n        /* \"#utility.yul\":3739:3743   */\n      0x20\n        /* \"#utility.yul\":3734:3737   */\n      dup3\n        /* \"#utility.yul\":3730:3744   */\n      add\n        /* \"#utility.yul\":3722:3744   */\n      swap1\n      pop\n        /* \"#utility.yul\":3637:3750   */\n      swap2\n      swap1\n      pop\n      jump\t// out\n        /* \"#utility.yul\":3786:4498   */\n    tag_144:\n        /* \"#utility.yul\":3895:3898   */\n      0x00\n        /* \"#utility.yul\":3924:3978   */\n      tag_209\n        /* \"#utility.yul\":3972:3977   */\n      dup3\n        /* \"#utility.yul\":3924:3978   */\n      tag_138\n      jump\t// in\n    tag_209:\n        /* \"#utility.yul\":3994:4070   */\n      tag_210\n        /* \"#utility.yul\":4063:4069   */\n      dup2\n        /* \"#utility.yul\":4058:4061   */\n      dup6\n        /* \"#utility.yul\":3994:4070   */\n      tag_139\n      jump\t// in\n    tag_210:\n        /* \"#utility.yul\":3987:4070   */\n      swap4\n      pop\n        /* \"#utility.yul\":4094:4150   */\n      tag_211\n        /* \"#utility.yul\":4144:4149   */\n      dup4\n        /* \"#utility.yul\":4094:4150   */\n      tag_140\n      jump\t// in\n    tag_211:\n        /* \"#utility.yul\":4173:4180   */\n      dup1\n        /* \"#utility.yul\":4204:4205   */\n      0x00\n        /* \"#utility.yul\":4189:4473   */\n    tag_212:\n        /* \"#utility.yul\":4214:4220   */\n      dup4\n        /* \"#utility.yul\":4211:4212   */\n      dup2\n        /* \"#utility.yul\":4208:4221   */\n      lt\n        /* \"#utility.yul\":4189:4473   */\n      iszero\n      tag_214\n      jumpi\n        /* \"#utility.yul\":4290:4296   */\n      dup2\n        /* \"#utility.yul\":4284:4297   */\n      mload\n        /* \"#utility.yul\":4317:4380   */\n      tag_215\n        /* \"#utility.yul\":4376:4379   */\n      dup9\n        /* \"#utility.yul\":4361:4374   */\n      dup3\n        /* \"#utility.yul\":4317:4380   */\n      tag_142\n      jump\t// in\n    tag_215:\n        /* \"#utility.yul\":4310:4380   */\n      swap8\n      pop\n        /* \"#utility.yul\":4403:4463   */\n      tag_216\n        /* \"#utility.yul\":4456:4462   */\n      dup4\n        /* \"#utility.yul\":4403:4463   */\n      tag_143\n      jump\t// in\n    tag_216:\n        /* \"#utility.yul\":4393:4463   */\n      swap3\n      pop\n        /* \"#utility.yul\":4249:4473   */\n      pop\n        /* \"#utility.yul\":4236:4237   */\n      0x01\n        /* \"#utility.yul\":4233:4234   */\n      dup2\n        /* \"#utility.yul\":4229:4238   */\n      add\n        /* \"#utility.yul\":4224:4238   */\n      swap1\n      pop\n        /* \"#utility.yul\":4189:4473   */\n      jump(tag_212)\n    tag_214:\n        /* \"#utility.yul\":4193:4207   */\n      pop\n        /* \"#utility.yul\":4489:4492   */\n      dup6\n        /* \"#utility.yul\":4482:4492   */\n      swap4\n      pop\n        /* \"#utility.yul\":3900:4498   */\n      pop\n      pop\n      pop\n        /* \"#utility.yul\":3786:4498   */\n      swap3\n      swap2\n      pop\n      pop\n      jump\t// out\n        /* \"#utility.yul\":4504:4760   */\n    tag_145:\n        /* \"#utility.yul\":4623:4633   */\n      0x00\n        /* \"#utility.yul\":4658:4754   */\n      tag_218\n        /* \"#utility.yul\":4750:4753   */\n      dup4\n        /* \"#utility.yul\":4742:4748   */\n      dup4\n        /* \"#utility.yul\":4658:4754   */\n      tag_144\n      jump\t// in\n    tag_218:\n        /* \"#utility.yul\":4644:4754   */\n      swap1\n      pop\n        /* \"#utility.yul\":4504:4760   */\n      swap3\n      swap2\n      pop\n      pop\n      jump\t// out\n        /* \"#utility.yul\":4766:4904   */\n    tag_146:\n        /* \"#utility.yul\":4861:4865   */\n      0x00\n        /* \"#utility.yul\":4893:4897   */\n      0x20\n        /* \"#utility.yul\":4888:4891   */\n      dup3\n        /* \"#utility.yul\":4884:4898   */\n      add\n        /* \"#utility.yul\":4876:4898   */\n      swap1\n      pop\n        /* \"#utility.yul\":4766:4904   */\n      swap2\n      swap1\n      pop\n      jump\t// out\n        /* \"#utility.yul\":4944:6055   */\n    tag_147:\n        /* \"#utility.yul\":5113:5116   */\n      0x00\n        /* \"#utility.yul\":5142:5221   */\n      tag_221\n        /* \"#utility.yul\":5215:5220   */\n      dup3\n        /* \"#utility.yul\":5142:5221   */\n      tag_135\n      jump\t// in\n    tag_221:\n        /* \"#utility.yul\":5237:5348   */\n      tag_222\n        /* \"#utility.yul\":5341:5347   */\n      dup2\n        /* \"#utility.yul\":5336:5339   */\n      dup6\n        /* \"#utility.yul\":5237:5348   */\n      tag_136\n      jump\t// in\n    tag_222:\n        /* \"#utility.yul\":5230:5348   */\n      swap4\n      pop\n        /* \"#utility.yul\":5374:5377   */\n      dup4\n        /* \"#utility.yul\":5419:5423   */\n      0x20\n        /* \"#utility.yul\":5411:5417   */\n      dup3\n        /* \"#utility.yul\":5407:5424   */\n      mul\n        /* \"#utility.yul\":5402:5405   */\n      dup6\n        /* \"#utility.yul\":5398:5425   */\n      add\n        /* \"#utility.yul\":5449:5530   */\n      tag_223\n        /* \"#utility.yul\":5524:5529   */\n      dup6\n        /* \"#utility.yul\":5449:5530   */\n      tag_137\n      jump\t// in\n    tag_223:\n        /* \"#utility.yul\":5553:5560   */\n      dup1\n        /* \"#utility.yul\":5584:5585   */\n      0x00\n        /* \"#utility.yul\":5569:6010   */\n    tag_224:\n        /* \"#utility.yul\":5594:5600   */\n      dup6\n        /* \"#utility.yul\":5591:5592   */\n      dup2\n        /* \"#utility.yul\":5588:5601   */\n      lt\n        /* \"#utility.yul\":5569:6010   */\n      iszero\n      tag_226\n      jumpi\n        /* \"#utility.yul\":5665:5674   */\n      dup5\n        /* \"#utility.yul\":5659:5663   */\n      dup5\n        /* \"#utility.yul\":5655:5675   */\n      sub\n        /* \"#utility.yul\":5650:5653   */\n      dup10\n        /* \"#utility.yul\":5643:5676   */\n      mstore\n        /* \"#utility.yul\":5716:5722   */\n      dup2\n        /* \"#utility.yul\":5710:5723   */\n      mload\n        /* \"#utility.yul\":5744:5858   */\n      tag_227\n        /* \"#utility.yul\":5853:5857   */\n      dup6\n        /* \"#utility.yul\":5838:5851   */\n      dup3\n        /* \"#utility.yul\":5744:5858   */\n      tag_145\n      jump\t// in\n    tag_227:\n        /* \"#utility.yul\":5736:5858   */\n      swap5\n      pop\n        /* \"#utility.yul\":5881:5966   */\n      tag_228\n        /* \"#utility.yul\":5959:5965   */\n      dup4\n        /* \"#utility.yul\":5881:5966   */\n      tag_146\n      jump\t// in\n    tag_228:\n        /* \"#utility.yul\":5871:5966   */\n      swap3\n      pop\n        /* \"#utility.yul\":5995:5999   */\n      0x20\n        /* \"#utility.yul\":5990:5993   */\n      dup11\n        /* \"#utility.yul\":5986:6000   */\n      add\n        /* \"#utility.yul\":5979:6000   */\n      swap10\n      pop\n        /* \"#utility.yul\":5629:6010   */\n      pop\n        /* \"#utility.yul\":5616:5617   */\n      0x01\n        /* \"#utility.yul\":5613:5614   */\n      dup2\n        /* \"#utility.yul\":5609:5618   */\n      add\n        /* \"#utility.yul\":5604:5618   */\n      swap1\n      pop\n        /* \"#utility.yul\":5569:6010   */\n      jump(tag_224)\n    tag_226:\n        /* \"#utility.yul\":5573:5587   */\n      pop\n        /* \"#utility.yul\":6026:6030   */\n      dup3\n        /* \"#utility.yul\":6019:6030   */\n      swap8\n      pop\n        /* \"#utility.yul\":6046:6049   */\n      dup8\n        /* \"#utility.yul\":6039:6049   */\n      swap6\n      pop\n        /* \"#utility.yul\":5118:6055   */\n      pop\n      pop\n      pop\n      pop\n      pop\n        /* \"#utility.yul\":4944:6055   */\n      swap3\n      swap2\n      pop\n      pop\n      jump\t// out\n        /* \"#utility.yul\":6061:6534   */\n    tag_31:\n        /* \"#utility.yul\":6254:6258   */\n      0x00\n        /* \"#utility.yul\":6292:6294   */\n      0x20\n        /* \"#utility.yul\":6281:6290   */\n      dup3\n        /* \"#utility.yul\":6277:6295   */\n      add\n        /* \"#utility.yul\":6269:6295   */\n      swap1\n      pop\n        /* \"#utility.yul\":6341:6350   */\n      dup2\n        /* \"#utility.yul\":6335:6339   */\n      dup2\n        /* \"#utility.yul\":6331:6351   */\n      sub\n        /* \"#utility.yul\":6327:6328   */\n      0x00\n        /* \"#utility.yul\":6316:6325   */\n      dup4\n        /* \"#utility.yul\":6312:6329   */\n      add\n        /* \"#utility.yul\":6305:6352   */\n      mstore\n        /* \"#utility.yul\":6369:6527   */\n      tag_230\n        /* \"#utility.yul\":6522:6526   */\n      dup2\n        /* \"#utility.yul\":6513:6519   */\n      dup5\n        /* \"#utility.yul\":6369:6527   */\n      tag_147\n      jump\t// in\n    tag_230:\n        /* \"#utility.yul\":6361:6527   */\n      swap1\n      pop\n        /* \"#utility.yul\":6061:6534   */\n      swap3\n      swap2\n      pop\n      pop\n      jump\t// out\n        /* \"#utility.yul\":6540:6709   */\n    tag_148:\n        /* \"#utility.yul\":6624:6635   */\n      0x00\n        /* \"#utility.yul\":6658:6664   */\n      dup3\n        /* \"#utility.yul\":6653:6656   */\n      dup3\n        /* \"#utility.yul\":6646:6665   */\n      mstore\n        /* \"#utility.yul\":6698:6702   */\n      0x20\n        /* \"#utility.yul\":6693:6696   */\n      dup3\n        /* \"#utility.yul\":6689:6703   */\n      add\n        /* \"#utility.yul\":6674:6703   */\n      swap1\n      pop\n        /* \"#utility.yul\":6540:6709   */\n      swap3\n      swap2\n      pop\n      pop\n      jump\t// out\n        /* \"#utility.yul\":6715:6888   */\n    tag_149:\n        /* \"#utility.yul\":6855:6880   */\n      0x4172726179206d757374206e6f7420626520656d707479000000000000000000\n        /* \"#utility.yul\":6851:6852   */\n      0x00\n        /* \"#utility.yul\":6843:6849   */\n      dup3\n        /* \"#utility.yul\":6839:6853   */\n      add\n        /* \"#utility.yul\":6832:6881   */\n      mstore\n        /* \"#utility.yul\":6715:6888   */\n      pop\n      jump\t// out\n        /* \"#utility.yul\":6894:7260   */\n    tag_150:\n        /* \"#utility.yul\":7036:7039   */\n      0x00\n        /* \"#utility.yul\":7057:7124   */\n      tag_234\n        /* \"#utility.yul\":7121:7123   */\n      0x17\n        /* \"#utility.yul\":7116:7119   */\n      dup4\n        /* \"#utility.yul\":7057:7124   */\n      tag_148\n      jump\t// in\n    tag_234:\n        /* \"#utility.yul\":7050:7124   */\n      swap2\n      pop\n        /* \"#utility.yul\":7133:7226   */\n      tag_235\n        /* \"#utility.yul\":7222:7225   */\n      dup3\n        /* \"#utility.yul\":7133:7226   */\n      tag_149\n      jump\t// in\n    tag_235:\n        /* \"#utility.yul\":7251:7253   */\n      0x20\n        /* \"#utility.yul\":7246:7249   */\n      dup3\n        /* \"#utility.yul\":7242:7254   */\n      add\n        /* \"#utility.yul\":7235:7254   */\n      swap1\n      pop\n        /* \"#utility.yul\":6894:7260   */\n      swap2\n      swap1\n      pop\n      jump\t// out\n        /* \"#utility.yul\":7266:7685   */\n    tag_46:\n        /* \"#utility.yul\":7432:7436   */\n      0x00\n        /* \"#utility.yul\":7470:7472   */\n      0x20\n        /* \"#utility.yul\":7459:7468   */\n      dup3\n        /* \"#utility.yul\":7455:7473   */\n      add\n        /* \"#utility.yul\":7447:7473   */\n      swap1\n      pop\n        /* \"#utility.yul\":7519:7528   */\n      dup2\n        /* \"#utility.yul\":7513:7517   */\n      dup2\n        /* \"#utility.yul\":7509:7529   */\n      sub\n        /* \"#utility.yul\":7505:7506   */\n      0x00\n        /* \"#utility.yul\":7494:7503   */\n      dup4\n        /* \"#utility.yul\":7490:7507   */\n      add\n        /* \"#utility.yul\":7483:7530   */\n      mstore\n        /* \"#utility.yul\":7547:7678   */\n      tag_237\n        /* \"#utility.yul\":7673:7677   */\n      dup2\n        /* \"#utility.yul\":7547:7678   */\n      tag_150\n      jump\t// in\n    tag_237:\n        /* \"#utility.yul\":7539:7678   */\n      swap1\n      pop\n        /* \"#utility.yul\":7266:7685   */\n      swap2\n      swap1\n      pop\n      jump\t// out\n        /* \"#utility.yul\":7691:7862   */\n    tag_151:\n        /* \"#utility.yul\":7831:7854   */\n      0x4f7574657220617272617920746f6f206c617267650000000000000000000000\n        /* \"#utility.yul\":7827:7828   */\n      0x00\n        /* \"#utility.yul\":7819:7825   */\n      dup3\n        /* \"#utility.yul\":7815:7829   */\n      add\n        /* \"#utility.yul\":7808:7855   */\n      mstore\n        /* \"#utility.yul\":7691:7862   */\n      pop\n      jump\t// out\n        /* \"#utility.yul\":7868:8234   */\n    tag_152:\n        /* \"#utility.yul\":8010:8013   */\n      0x00\n        /* \"#utility.yul\":8031:8098   */\n      tag_240\n        /* \"#utility.yul\":8095:8097   */\n      0x15\n        /* \"#utility.yul\":8090:8093   */\n      dup4\n        /* \"#utility.yul\":8031:8098   */\n      tag_148\n      jump\t// in\n    tag_240:\n        /* \"#utility.yul\":8024:8098   */\n      swap2\n      pop\n        /* \"#utility.yul\":8107:8200   */\n      tag_241\n        /* \"#utility.yul\":8196:8199   */\n      dup3\n        /* \"#utility.yul\":8107:8200   */\n      tag_151\n      jump\t// in\n    tag_241:\n        /* \"#utility.yul\":8225:8227   */\n      0x20\n        /* \"#utility.yul\":8220:8223   */\n      dup3\n        /* \"#utility.yul\":8216:8228   */\n      add\n        /* \"#utility.yul\":8209:8228   */\n      swap1\n      pop\n        /* \"#utility.yul\":7868:8234   */\n      swap2\n      swap1\n      pop\n      jump\t// out\n        /* \"#utility.yul\":8240:8659   */\n    tag_49:\n        /* \"#utility.yul\":8406:8410   */\n      0x00\n        /* \"#utility.yul\":8444:8446   */\n      0x20\n        /* \"#utility.yul\":8433:8442   */\n      dup3\n        /* \"#utility.yul\":8429:8447   */\n      add\n        /* \"#utility.yul\":8421:8447   */\n      swap1\n      pop\n        /* \"#utility.yul\":8493:8502   */\n      dup2\n        /* \"#utility.yul\":8487:8491   */\n      dup2\n        /* \"#utility.yul\":8483:8503   */\n      sub\n        /* \"#utility.yul\":8479:8480   */\n      0x00\n        /* \"#utility.yul\":8468:8477   */\n      dup4\n        /* \"#utility.yul\":8464:8481   */\n      add\n        /* \"#utility.yul\":8457:8504   */\n      mstore\n        /* \"#utility.yul\":8521:8652   */\n      tag_243\n        /* \"#utility.yul\":8647:8651   */\n      dup2\n        /* \"#utility.yul\":8521:8652   */\n      tag_152\n      jump\t// in\n    tag_243:\n        /* \"#utility.yul\":8513:8652   */\n      swap1\n      pop\n        /* \"#utility.yul\":8240:8659   */\n      swap2\n      swap1\n      pop\n      jump\t// out\n        /* \"#utility.yul\":8665:8845   */\n    tag_52:\n        /* \"#utility.yul\":8713:8790   */\n      0x4e487b7100000000000000000000000000000000000000000000000000000000\n        /* \"#utility.yul\":8710:8711   */\n      0x00\n        /* \"#utility.yul\":8703:8791   */\n      mstore\n        /* \"#utility.yul\":8810:8814   */\n      0x32\n        /* \"#utility.yul\":8807:8808   */\n      0x04\n        /* \"#utility.yul\":8800:8815   */\n      mstore\n        /* \"#utility.yul\":8834:8838   */\n      0x24\n        /* \"#utility.yul\":8831:8832   */\n      0x00\n        /* \"#utility.yul\":8824:8839   */\n      revert\n        /* \"#utility.yul\":8851:8968   */\n    tag_153:\n        /* \"#utility.yul\":8960:8961   */\n      0x00\n        /* \"#utility.yul\":8957:8958   */\n      0x00\n        /* \"#utility.yul\":8950:8962   */\n      revert\n        /* \"#utility.yul\":8974:9091   */\n    tag_154:\n        /* \"#utility.yul\":9083:9084   */\n      0x00\n        /* \"#utility.yul\":9080:9081   */\n      0x00\n        /* \"#utility.yul\":9073:9085   */\n      revert\n        /* \"#utility.yul\":9097:9214   */\n    tag_155:\n        /* \"#utility.yul\":9206:9207   */\n      0x00\n        /* \"#utility.yul\":9203:9204   */\n      0x00\n        /* \"#utility.yul\":9196:9208   */\n      revert\n        /* \"#utility.yul\":9220:9960   */\n    tag_54:\n        /* \"#utility.yul\":9313:9317   */\n      0x00\n        /* \"#utility.yul\":9319:9325   */\n      0x00\n        /* \"#utility.yul\":9375:9386   */\n      dup4\n        /* \"#utility.yul\":9362:9387   */\n      calldataload\n        /* \"#utility.yul\":9475:9476   */\n      0x01\n        /* \"#utility.yul\":9469:9473   */\n      0x20\n        /* \"#utility.yul\":9465:9477   */\n      sub\n        /* \"#utility.yul\":9454:9462   */\n      dup5\n        /* \"#utility.yul\":9438:9452   */\n      calldatasize\n        /* \"#utility.yul\":9434:9463   */\n      sub\n        /* \"#utility.yul\":9430:9478   */\n      sub\n        /* \"#utility.yul\":9410:9428   */\n      dup2\n        /* \"#utility.yul\":9406:9479   */\n      slt\n        /* \"#utility.yul\":9396:9564   */\n      tag_249\n      jumpi\n        /* \"#utility.yul\":9483:9562   */\n      tag_250\n      tag_153\n      jump\t// in\n    tag_250:\n        /* \"#utility.yul\":9396:9564   */\n    tag_249:\n        /* \"#utility.yul\":9595:9613   */\n      dup1\n        /* \"#utility.yul\":9585:9593   */\n      dup5\n        /* \"#utility.yul\":9581:9614   */\n      add\n        /* \"#utility.yul\":9573:9614   */\n      swap3\n      pop\n        /* \"#utility.yul\":9647:9651   */\n      dup3\n        /* \"#utility.yul\":9634:9652   */\n      calldataload\n        /* \"#utility.yul\":9624:9652   */\n      swap2\n      pop\n        /* \"#utility.yul\":9675:9693   */\n      0xffffffffffffffff\n        /* \"#utility.yul\":9667:9673   */\n      dup3\n        /* \"#utility.yul\":9664:9694   */\n      gt\n        /* \"#utility.yul\":9661:9778   */\n      iszero\n      tag_251\n      jumpi\n        /* \"#utility.yul\":9697:9776   */\n      tag_252\n      tag_154\n      jump\t// in\n    tag_252:\n        /* \"#utility.yul\":9661:9778   */\n    tag_251:\n        /* \"#utility.yul\":9805:9807   */\n      0x20\n        /* \"#utility.yul\":9799:9803   */\n      dup4\n        /* \"#utility.yul\":9795:9808   */\n      add\n        /* \"#utility.yul\":9787:9808   */\n      swap3\n      pop\n        /* \"#utility.yul\":9862:9866   */\n      0x20\n        /* \"#utility.yul\":9854:9860   */\n      dup3\n        /* \"#utility.yul\":9850:9867   */\n      mul\n        /* \"#utility.yul\":9834:9848   */\n      calldatasize\n        /* \"#utility.yul\":9830:9868   */\n      sub\n        /* \"#utility.yul\":9824:9828   */\n      dup4\n        /* \"#utility.yul\":9820:9869   */\n      sgt\n        /* \"#utility.yul\":9817:9953   */\n      iszero\n      tag_253\n      jumpi\n        /* \"#utility.yul\":9872:9951   */\n      tag_254\n      tag_155\n      jump\t// in\n    tag_254:\n        /* \"#utility.yul\":9817:9953   */\n    tag_253:\n        /* \"#utility.yul\":9326:9960   */\n      pop\n        /* \"#utility.yul\":9220:9960   */\n      swap3\n      pop\n      swap3\n      swap1\n      pop\n      jump\t// out\n        /* \"#utility.yul\":9966:10133   */\n    tag_156:\n        /* \"#utility.yul\":10106:10125   */\n      0x456d70747920696e6e6572206172726179000000000000000000000000000000\n        /* \"#utility.yul\":10102:10103   */\n      0x00\n        /* \"#utility.yul\":10094:10100   */\n      dup3\n        /* \"#utility.yul\":10090:10104   */\n      add\n        /* \"#utility.yul\":10083:10126   */\n      mstore\n        /* \"#utility.yul\":9966:10133   */\n      pop\n      jump\t// out\n        /* \"#utility.yul\":10139:10505   */\n    tag_157:\n        /* \"#utility.yul\":10281:10284   */\n      0x00\n        /* \"#utility.yul\":10302:10369   */\n      tag_257\n        /* \"#utility.yul\":10366:10368   */\n      0x11\n        /* \"#utility.yul\":10361:10364   */\n      dup4\n        /* \"#utility.yul\":10302:10369   */\n      tag_148\n      jump\t// in\n    tag_257:\n        /* \"#utility.yul\":10295:10369   */\n      swap2\n      pop\n        /* \"#utility.yul\":10378:10471   */\n      tag_258\n        /* \"#utility.yul\":10467:10470   */\n      dup3\n        /* \"#utility.yul\":10378:10471   */\n      tag_156\n      jump\t// in\n    tag_258:\n        /* \"#utility.yul\":10496:10498   */\n      0x20\n        /* \"#utility.yul\":10491:10494   */\n      dup3\n        /* \"#utility.yul\":10487:10499   */\n      add\n        /* \"#utility.yul\":10480:10499   */\n      swap1\n      pop\n        /* \"#utility.yul\":10139:10505   */\n      swap2\n      swap1\n      pop\n      jump\t// out\n        /* \"#utility.yul\":10511:10930   */\n    tag_65:\n        /* \"#utility.yul\":10677:10681   */\n      0x00\n        /* \"#utility.yul\":10715:10717   */\n      0x20\n        /* \"#utility.yul\":10704:10713   */\n      dup3\n        /* \"#utility.yul\":10700:10718   */\n      add\n        /* \"#utility.yul\":10692:10718   */\n      swap1\n      pop\n        /* \"#utility.yul\":10764:10773   */\n      dup2\n        /* \"#utility.yul\":10758:10762   */\n      dup2\n        /* \"#utility.yul\":10754:10774   */\n      sub\n        /* \"#utility.yul\":10750:10751   */\n      0x00\n        /* \"#utility.yul\":10739:10748   */\n      dup4\n        /* \"#utility.yul\":10735:10752   */\n      add\n        /* \"#utility.yul\":10728:10775   */\n      mstore\n        /* \"#utility.yul\":10792:10923   */\n      tag_260\n        /* \"#utility.yul\":10918:10922   */\n      dup2\n        /* \"#utility.yul\":10792:10923   */\n      tag_157\n      jump\t// in\n    tag_260:\n        /* \"#utility.yul\":10784:10923   */\n      swap1\n      pop\n        /* \"#utility.yul\":10511:10930   */\n      swap2\n      swap1\n      pop\n      jump\t// out\n        /* \"#utility.yul\":10936:11107   */\n    tag_158:\n        /* \"#utility.yul\":11076:11099   */\n      0x496e6e657220617272617920746f6f206c617267650000000000000000000000\n        /* \"#utility.yul\":11072:11073   */\n      0x00\n        /* \"#utility.yul\":11064:11070   */\n      dup3\n        /* \"#utility.yul\":11060:11074   */\n      add\n        /* \"#utility.yul\":11053:11100   */\n      mstore\n        /* \"#utility.yul\":10936:11107   */\n      pop\n      jump\t// out\n        /* \"#utility.yul\":11113:11479   */\n    tag_159:\n        /* \"#utility.yul\":11255:11258   */\n      0x00\n        /* \"#utility.yul\":11276:11343   */\n      tag_263\n        /* \"#utility.yul\":11340:11342   */\n      0x15\n        /* \"#utility.yul\":11335:11338   */\n      dup4\n        /* \"#utility.yul\":11276:11343   */\n      tag_148\n      jump\t// in\n    tag_263:\n        /* \"#utility.yul\":11269:11343   */\n      swap2\n      pop\n        /* \"#utility.yul\":11352:11445   */\n      tag_264\n        /* \"#utility.yul\":11441:11444   */\n      dup3\n        /* \"#utility.yul\":11352:11445   */\n      tag_158\n      jump\t// in\n    tag_264:\n        /* \"#utility.yul\":11470:11472   */\n      0x20\n        /* \"#utility.yul\":11465:11468   */\n      dup3\n        /* \"#utility.yul\":11461:11473   */\n      add\n        /* \"#utility.yul\":11454:11473   */\n      swap1\n      pop\n        /* \"#utility.yul\":11113:11479   */\n      swap2\n      swap1\n      pop\n      jump\t// out\n        /* \"#utility.yul\":11485:11904   */\n    tag_71:\n        /* \"#utility.yul\":11651:11655   */\n      0x00\n        /* \"#utility.yul\":11689:11691   */\n      0x20\n        /* \"#utility.yul\":11678:11687   */\n      dup3\n        /* \"#utility.yul\":11674:11692   */\n      add\n        /* \"#utility.yul\":11666:11692   */\n      swap1\n      pop\n        /* \"#utility.yul\":11738:11747   */\n      dup2\n        /* \"#utility.yul\":11732:11736   */\n      dup2\n        /* \"#utility.yul\":11728:11748   */\n      sub\n        /* \"#utility.yul\":11724:11725   */\n      0x00\n        /* \"#utility.yul\":11713:11722   */\n      dup4\n        /* \"#utility.yul\":11709:11726   */\n      add\n        /* \"#utility.yul\":11702:11749   */\n      mstore\n        /* \"#utility.yul\":11766:11897   */\n      tag_266\n        /* \"#utility.yul\":11892:11896   */\n      dup2\n        /* \"#utility.yul\":11766:11897   */\n      tag_159\n      jump\t// in\n    tag_266:\n        /* \"#utility.yul\":11758:11897   */\n      swap1\n      pop\n        /* \"#utility.yul\":11485:11904   */\n      swap2\n      swap1\n      pop\n      jump\t// out\n        /* \"#utility.yul\":11910:12090   */\n    tag_160:\n        /* \"#utility.yul\":11958:12035   */\n      0x4e487b7100000000000000000000000000000000000000000000000000000000\n        /* \"#utility.yul\":11955:11956   */\n      0x00\n        /* \"#utility.yul\":11948:12036   */\n      mstore\n        /* \"#utility.yul\":12055:12059   */\n      0x11\n        /* \"#utility.yul\":12052:12053   */\n      0x04\n        /* \"#utility.yul\":12045:12060   */\n      mstore\n        /* \"#utility.yul\":12079:12083   */\n      0x24\n        /* \"#utility.yul\":12076:12077   */\n      0x00\n        /* \"#utility.yul\":12069:12084   */\n      revert\n        /* \"#utility.yul\":12096:12287   */\n    tag_105:\n        /* \"#utility.yul\":12136:12139   */\n      0x00\n        /* \"#utility.yul\":12155:12175   */\n      tag_269\n        /* \"#utility.yul\":12173:12174   */\n      dup3\n        /* \"#utility.yul\":12155:12175   */\n      tag_133\n      jump\t// in\n    tag_269:\n        /* \"#utility.yul\":12150:12175   */\n      swap2\n      pop\n        /* \"#utility.yul\":12189:12209   */\n      tag_270\n        /* \"#utility.yul\":12207:12208   */\n      dup4\n        /* \"#utility.yul\":12189:12209   */\n      tag_133\n      jump\t// in\n    tag_270:\n        /* \"#utility.yul\":12184:12209   */\n      swap3\n      pop\n        /* \"#utility.yul\":12232:12233   */\n      dup3\n        /* \"#utility.yul\":12229:12230   */\n      dup3\n        /* \"#utility.yul\":12225:12234   */\n      add\n        /* \"#utility.yul\":12218:12234   */\n      swap1\n      pop\n        /* \"#utility.yul\":12253:12256   */\n      dup1\n        /* \"#utility.yul\":12250:12251   */\n      dup3\n        /* \"#utility.yul\":12247:12257   */\n      gt\n        /* \"#utility.yul\":12244:12280   */\n      iszero\n      tag_271\n      jumpi\n        /* \"#utility.yul\":12260:12278   */\n      tag_272\n      tag_160\n      jump\t// in\n    tag_272:\n        /* \"#utility.yul\":12244:12280   */\n    tag_271:\n        /* \"#utility.yul\":12096:12287   */\n      swap3\n      swap2\n      pop\n      pop\n      jump\t// out\n        /* \"#utility.yul\":12293:12395   */\n    tag_161:\n        /* \"#utility.yul\":12334:12340   */\n      0x00\n        /* \"#utility.yul\":12385:12387   */\n      0x1f\n        /* \"#utility.yul\":12381:12388   */\n      not\n        /* \"#utility.yul\":12376:12378   */\n      0x1f\n        /* \"#utility.yul\":12369:12374   */\n      dup4\n        /* \"#utility.yul\":12365:12379   */\n      add\n        /* \"#utility.yul\":12361:12389   */\n      and\n        /* \"#utility.yul\":12351:12389   */\n      swap1\n      pop\n        /* \"#utility.yul\":12293:12395   */\n      swap2\n      swap1\n      pop\n      jump\t// out\n        /* \"#utility.yul\":12401:12581   */\n    tag_162:\n        /* \"#utility.yul\":12449:12526   */\n      0x4e487b7100000000000000000000000000000000000000000000000000000000\n        /* \"#utility.yul\":12446:12447   */\n      0x00\n        /* \"#utility.yul\":12439:12527   */\n      mstore\n        /* \"#utility.yul\":12546:12550   */\n      0x41\n        /* \"#utility.yul\":12543:12544   */\n      0x04\n        /* \"#utility.yul\":12536:12551   */\n      mstore\n        /* \"#utility.yul\":12570:12574   */\n      0x24\n        /* \"#utility.yul\":12567:12568   */\n      0x00\n        /* \"#utility.yul\":12560:12575   */\n      revert\n        /* \"#utility.yul\":12587:12868   */\n    tag_163:\n        /* \"#utility.yul\":12670:12697   */\n      tag_276\n        /* \"#utility.yul\":12692:12696   */\n      dup3\n        /* \"#utility.yul\":12670:12697   */\n      tag_161\n      jump\t// in\n    tag_276:\n        /* \"#utility.yul\":12662:12668   */\n      dup2\n        /* \"#utility.yul\":12658:12698   */\n      add\n        /* \"#utility.yul\":12800:12806   */\n      dup2\n        /* \"#utility.yul\":12788:12798   */\n      dup2\n        /* \"#utility.yul\":12785:12807   */\n      lt\n        /* \"#utility.yul\":12764:12782   */\n      0xffffffffffffffff\n        /* \"#utility.yul\":12752:12762   */\n      dup3\n        /* \"#utility.yul\":12749:12783   */\n      gt\n        /* \"#utility.yul\":12746:12808   */\n      or\n        /* \"#utility.yul\":12743:12831   */\n      iszero\n      tag_277\n      jumpi\n        /* \"#utility.yul\":12811:12829   */\n      tag_278\n      tag_162\n      jump\t// in\n    tag_278:\n        /* \"#utility.yul\":12743:12831   */\n    tag_277:\n        /* \"#utility.yul\":12851:12861   */\n      dup1\n        /* \"#utility.yul\":12847:12849   */\n      0x40\n        /* \"#utility.yul\":12840:12862   */\n      mstore\n        /* \"#utility.yul\":12630:12868   */\n      pop\n        /* \"#utility.yul\":12587:12868   */\n      pop\n      pop\n      jump\t// out\n        /* \"#utility.yul\":12874:13003   */\n    tag_164:\n        /* \"#utility.yul\":12908:12914   */\n      0x00\n        /* \"#utility.yul\":12935:12955   */\n      tag_280\n      tag_126\n      jump\t// in\n    tag_280:\n        /* \"#utility.yul\":12925:12955   */\n      swap1\n      pop\n        /* \"#utility.yul\":12964:12997   */\n      tag_281\n        /* \"#utility.yul\":12992:12996   */\n      dup3\n        /* \"#utility.yul\":12984:12990   */\n      dup3\n        /* \"#utility.yul\":12964:12997   */\n      tag_163\n      jump\t// in\n    tag_281:\n        /* \"#utility.yul\":12874:13003   */\n      swap2\n      swap1\n      pop\n      jump\t// out\n        /* \"#utility.yul\":13009:13345   */\n    tag_165:\n        /* \"#utility.yul\":13111:13115   */\n      0x00\n        /* \"#utility.yul\":13201:13219   */\n      0xffffffffffffffff\n        /* \"#utility.yul\":13193:13199   */\n      dup3\n        /* \"#utility.yul\":13190:13220   */\n      gt\n        /* \"#utility.yul\":13187:13243   */\n      iszero\n      tag_283\n      jumpi\n        /* \"#utility.yul\":13223:13241   */\n      tag_284\n      tag_162\n      jump\t// in\n    tag_284:\n        /* \"#utility.yul\":13187:13243   */\n    tag_283:\n        /* \"#utility.yul\":13273:13277   */\n      0x20\n        /* \"#utility.yul\":13265:13271   */\n      dup3\n        /* \"#utility.yul\":13261:13278   */\n      mul\n        /* \"#utility.yul\":13253:13278   */\n      swap1\n      pop\n        /* \"#utility.yul\":13333:13337   */\n      0x20\n        /* \"#utility.yul\":13327:13331   */\n      dup2\n        /* \"#utility.yul\":13323:13338   */\n      add\n        /* \"#utility.yul\":13315:13338   */\n      swap1\n      pop\n        /* \"#utility.yul\":13009:13345   */\n      swap2\n      swap1\n      pop\n      jump\t// out\n        /* \"#utility.yul\":13351:13662   */\n    tag_166:\n        /* \"#utility.yul\":13428:13432   */\n      0x00\n        /* \"#utility.yul\":13518:13536   */\n      0xffffffffffffffff\n        /* \"#utility.yul\":13510:13516   */\n      dup3\n        /* \"#utility.yul\":13507:13537   */\n      gt\n        /* \"#utility.yul\":13504:13560   */\n      iszero\n      tag_286\n      jumpi\n        /* \"#utility.yul\":13540:13558   */\n      tag_287\n      tag_162\n      jump\t// in\n    tag_287:\n        /* \"#utility.yul\":13504:13560   */\n    tag_286:\n        /* \"#utility.yul\":13590:13594   */\n      0x20\n        /* \"#utility.yul\":13582:13588   */\n      dup3\n        /* \"#utility.yul\":13578:13595   */\n      mul\n        /* \"#utility.yul\":13570:13595   */\n      swap1\n      pop\n        /* \"#utility.yul\":13650:13654   */\n      0x20\n        /* \"#utility.yul\":13644:13648   */\n      dup2\n        /* \"#utility.yul\":13640:13655   */\n      add\n        /* \"#utility.yul\":13632:13655   */\n      swap1\n      pop\n        /* \"#utility.yul\":13351:13662   */\n      swap2\n      swap1\n      pop\n      jump\t// out\n        /* \"#utility.yul\":13668:13790   */\n    tag_167:\n        /* \"#utility.yul\":13741:13765   */\n      tag_289\n        /* \"#utility.yul\":13759:13764   */\n      dup2\n        /* \"#utility.yul\":13741:13765   */\n      tag_133\n      jump\t// in\n    tag_289:\n        /* \"#utility.yul\":13734:13739   */\n      dup2\n        /* \"#utility.yul\":13731:13766   */\n      eq\n        /* \"#utility.yul\":13721:13784   */\n      tag_290\n      jumpi\n        /* \"#utility.yul\":13780:13781   */\n      0x00\n        /* \"#utility.yul\":13777:13778   */\n      0x00\n        /* \"#utility.yul\":13770:13782   */\n      revert\n        /* \"#utility.yul\":13721:13784   */\n    tag_290:\n        /* \"#utility.yul\":13668:13790   */\n      pop\n      jump\t// out\n        /* \"#utility.yul\":13796:13935   */\n    tag_168:\n        /* \"#utility.yul\":13842:13847   */\n      0x00\n        /* \"#utility.yul\":13880:13886   */\n      dup2\n        /* \"#utility.yul\":13867:13887   */\n      calldataload\n        /* \"#utility.yul\":13858:13887   */\n      swap1\n      pop\n        /* \"#utility.yul\":13896:13929   */\n      tag_292\n        /* \"#utility.yul\":13923:13928   */\n      dup2\n        /* \"#utility.yul\":13896:13929   */\n      tag_167\n      jump\t// in\n    tag_292:\n        /* \"#utility.yul\":13796:13935   */\n      swap3\n      swap2\n      pop\n      pop\n      jump\t// out\n        /* \"#utility.yul\":13958:14668   */\n    tag_169:\n        /* \"#utility.yul\":14054:14059   */\n      0x00\n        /* \"#utility.yul\":14079:14160   */\n      tag_294\n        /* \"#utility.yul\":14095:14159   */\n      tag_295\n        /* \"#utility.yul\":14152:14158   */\n      dup5\n        /* \"#utility.yul\":14095:14159   */\n      tag_166\n      jump\t// in\n    tag_295:\n        /* \"#utility.yul\":14079:14160   */\n      tag_164\n      jump\t// in\n    tag_294:\n        /* \"#utility.yul\":14070:14160   */\n      swap1\n      pop\n        /* \"#utility.yul\":14180:14185   */\n      dup1\n        /* \"#utility.yul\":14209:14215   */\n      dup4\n        /* \"#utility.yul\":14202:14207   */\n      dup3\n        /* \"#utility.yul\":14195:14216   */\n      mstore\n        /* \"#utility.yul\":14243:14247   */\n      0x20\n        /* \"#utility.yul\":14236:14241   */\n      dup3\n        /* \"#utility.yul\":14232:14248   */\n      add\n        /* \"#utility.yul\":14225:14248   */\n      swap1\n      pop\n        /* \"#utility.yul\":14296:14300   */\n      0x20\n        /* \"#utility.yul\":14288:14294   */\n      dup5\n        /* \"#utility.yul\":14284:14301   */\n      mul\n        /* \"#utility.yul\":14276:14282   */\n      dup4\n        /* \"#utility.yul\":14272:14302   */\n      add\n        /* \"#utility.yul\":14325:14328   */\n      dup6\n        /* \"#utility.yul\":14317:14323   */\n      dup2\n        /* \"#utility.yul\":14314:14329   */\n      gt\n        /* \"#utility.yul\":14311:14433   */\n      iszero\n      tag_296\n      jumpi\n        /* \"#utility.yul\":14344:14423   */\n      tag_297\n      tag_131\n      jump\t// in\n    tag_297:\n        /* \"#utility.yul\":14311:14433   */\n    tag_296:\n        /* \"#utility.yul\":14459:14465   */\n      dup4\n        /* \"#utility.yul\":14442:14662   */\n    tag_298:\n        /* \"#utility.yul\":14476:14482   */\n      dup2\n        /* \"#utility.yul\":14471:14474   */\n      dup2\n        /* \"#utility.yul\":14468:14483   */\n      lt\n        /* \"#utility.yul\":14442:14662   */\n      iszero\n      tag_300\n      jumpi\n        /* \"#utility.yul\":14551:14554   */\n      dup1\n        /* \"#utility.yul\":14580:14617   */\n      tag_301\n        /* \"#utility.yul\":14613:14616   */\n      dup9\n        /* \"#utility.yul\":14601:14611   */\n      dup3\n        /* \"#utility.yul\":14580:14617   */\n      tag_168\n      jump\t// in\n    tag_301:\n        /* \"#utility.yul\":14575:14578   */\n      dup5\n        /* \"#utility.yul\":14568:14618   */\n      mstore\n        /* \"#utility.yul\":14647:14651   */\n      0x20\n        /* \"#utility.yul\":14642:14645   */\n      dup5\n        /* \"#utility.yul\":14638:14652   */\n      add\n        /* \"#utility.yul\":14631:14652   */\n      swap4\n      pop\n        /* \"#utility.yul\":14518:14662   */\n      pop\n        /* \"#utility.yul\":14502:14506   */\n      0x20\n        /* \"#utility.yul\":14497:14500   */\n      dup2\n        /* \"#utility.yul\":14493:14507   */\n      add\n        /* \"#utility.yul\":14486:14507   */\n      swap1\n      pop\n        /* \"#utility.yul\":14442:14662   */\n      jump(tag_298)\n    tag_300:\n        /* \"#utility.yul\":14446:14467   */\n      pop\n        /* \"#utility.yul\":14060:14668   */\n      pop\n      pop\n        /* \"#utility.yul\":13958:14668   */\n      swap4\n      swap3\n      pop\n      pop\n      pop\n      jump\t// out\n        /* \"#utility.yul\":14691:15061   */\n    tag_170:\n        /* \"#utility.yul\":14762:14767   */\n      0x00\n        /* \"#utility.yul\":14811:14814   */\n      dup3\n        /* \"#utility.yul\":14804:14808   */\n      0x1f\n        /* \"#utility.yul\":14796:14802   */\n      dup4\n        /* \"#utility.yul\":14792:14809   */\n      add\n        /* \"#utility.yul\":14788:14815   */\n      slt\n        /* \"#utility.yul\":14778:14900   */\n      tag_303\n      jumpi\n        /* \"#utility.yul\":14819:14898   */\n      tag_304\n      tag_129\n      jump\t// in\n    tag_304:\n        /* \"#utility.yul\":14778:14900   */\n    tag_303:\n        /* \"#utility.yul\":14936:14942   */\n      dup2\n        /* \"#utility.yul\":14923:14943   */\n      calldataload\n        /* \"#utility.yul\":14961:15055   */\n      tag_305\n        /* \"#utility.yul\":15051:15054   */\n      dup5\n        /* \"#utility.yul\":15043:15049   */\n      dup3\n        /* \"#utility.yul\":15036:15040   */\n      0x20\n        /* \"#utility.yul\":15028:15034   */\n      dup7\n        /* \"#utility.yul\":15024:15041   */\n      add\n        /* \"#utility.yul\":14961:15055   */\n      tag_169\n      jump\t// in\n    tag_305:\n        /* \"#utility.yul\":14952:15055   */\n      swap2\n      pop\n        /* \"#utility.yul\":14768:15061   */\n      pop\n        /* \"#utility.yul\":14691:15061   */\n      swap3\n      swap2\n      pop\n      pop\n      jump\t// out\n        /* \"#utility.yul\":15086:16076   */\n    tag_171:\n        /* \"#utility.yul\":15207:15212   */\n      0x00\n        /* \"#utility.yul\":15232:15338   */\n      tag_307\n        /* \"#utility.yul\":15248:15337   */\n      tag_308\n        /* \"#utility.yul\":15330:15336   */\n      dup5\n        /* \"#utility.yul\":15248:15337   */\n      tag_165\n      jump\t// in\n    tag_308:\n        /* \"#utility.yul\":15232:15338   */\n      tag_164\n      jump\t// in\n    tag_307:\n        /* \"#utility.yul\":15223:15338   */\n      swap1\n      pop\n        /* \"#utility.yul\":15358:15363   */\n      dup1\n        /* \"#utility.yul\":15387:15393   */\n      dup4\n        /* \"#utility.yul\":15380:15385   */\n      dup3\n        /* \"#utility.yul\":15373:15394   */\n      mstore\n        /* \"#utility.yul\":15421:15425   */\n      0x20\n        /* \"#utility.yul\":15414:15419   */\n      dup3\n        /* \"#utility.yul\":15410:15426   */\n      add\n        /* \"#utility.yul\":15403:15426   */\n      swap1\n      pop\n        /* \"#utility.yul\":15474:15478   */\n      0x20\n        /* \"#utility.yul\":15466:15472   */\n      dup5\n        /* \"#utility.yul\":15462:15479   */\n      mul\n        /* \"#utility.yul\":15454:15460   */\n      dup4\n        /* \"#utility.yul\":15450:15480   */\n      add\n        /* \"#utility.yul\":15503:15506   */\n      dup6\n        /* \"#utility.yul\":15495:15501   */\n      dup2\n        /* \"#utility.yul\":15492:15507   */\n      gt\n        /* \"#utility.yul\":15489:15611   */\n      iszero\n      tag_309\n      jumpi\n        /* \"#utility.yul\":15522:15601   */\n      tag_310\n      tag_131\n      jump\t// in\n    tag_310:\n        /* \"#utility.yul\":15489:15611   */\n    tag_309:\n        /* \"#utility.yul\":15637:15643   */\n      dup4\n        /* \"#utility.yul\":15620:16070   */\n    tag_311:\n        /* \"#utility.yul\":15654:15660   */\n      dup2\n        /* \"#utility.yul\":15649:15652   */\n      dup2\n        /* \"#utility.yul\":15646:15661   */\n      lt\n        /* \"#utility.yul\":15620:16070   */\n      iszero\n      tag_313\n      jumpi\n        /* \"#utility.yul\":15743:15746   */\n      dup1\n        /* \"#utility.yul\":15730:15747   */\n      calldataload\n        /* \"#utility.yul\":15779:15797   */\n      0xffffffffffffffff\n        /* \"#utility.yul\":15766:15777   */\n      dup2\n        /* \"#utility.yul\":15763:15798   */\n      gt\n        /* \"#utility.yul\":15760:15882   */\n      iszero\n      tag_314\n      jumpi\n        /* \"#utility.yul\":15801:15880   */\n      tag_315\n      tag_129\n      jump\t// in\n    tag_315:\n        /* \"#utility.yul\":15760:15882   */\n    tag_314:\n        /* \"#utility.yul\":15925:15936   */\n      dup1\n        /* \"#utility.yul\":15917:15923   */\n      dup7\n        /* \"#utility.yul\":15913:15937   */\n      add\n        /* \"#utility.yul\":15963:16025   */\n      tag_316\n        /* \"#utility.yul\":16021:16024   */\n      dup10\n        /* \"#utility.yul\":16009:16019   */\n      dup3\n        /* \"#utility.yul\":15963:16025   */\n      tag_170\n      jump\t// in\n    tag_316:\n        /* \"#utility.yul\":15958:15961   */\n      dup6\n        /* \"#utility.yul\":15951:16026   */\n      mstore\n        /* \"#utility.yul\":16055:16059   */\n      0x20\n        /* \"#utility.yul\":16050:16053   */\n      dup6\n        /* \"#utility.yul\":16046:16060   */\n      add\n        /* \"#utility.yul\":16039:16060   */\n      swap5\n      pop\n        /* \"#utility.yul\":15696:16070   */\n      pop\n      pop\n        /* \"#utility.yul\":15680:15684   */\n      0x20\n        /* \"#utility.yul\":15675:15678   */\n      dup2\n        /* \"#utility.yul\":15671:15685   */\n      add\n        /* \"#utility.yul\":15664:15685   */\n      swap1\n      pop\n        /* \"#utility.yul\":15620:16070   */\n      jump(tag_311)\n    tag_313:\n        /* \"#utility.yul\":15624:15645   */\n      pop\n        /* \"#utility.yul\":15213:16076   */\n      pop\n      pop\n        /* \"#utility.yul\":15086:16076   */\n      swap4\n      swap3\n      pop\n      pop\n      pop\n      jump\t// out\n        /* \"#utility.yul\":16082:16474   */\n    tag_108:\n        /* \"#utility.yul\":16250:16259   */\n      0x00\n        /* \"#utility.yul\":16349:16467   */\n      tag_318\n        /* \"#utility.yul\":16452:16466   */\n      calldatasize\n        /* \"#utility.yul\":16444:16450   */\n      dup5\n        /* \"#utility.yul\":16437:16442   */\n      dup5\n        /* \"#utility.yul\":16349:16467   */\n      tag_171\n      jump\t// in\n    tag_318:\n        /* \"#utility.yul\":16327:16467   */\n      swap1\n      pop\n        /* \"#utility.yul\":16082:16474   */\n      swap3\n      swap2\n      pop\n      pop\n      jump\t// out\n\n    auxdata: 0xa26469706673582212202a250b5ca288710fb90ac840f017970381892a313ce59efb845126daf0d6427a64736f6c63430008220033\n}\n",
				"bytecode": {
					"linkReferences": {},
					"object": "6080604052348015600e575f5ffd5b50610d878061001c5f395ff3fe608060405234801561000f575f5ffd5b5060043610610086575f3560e01c8063545f46c211610059578063545f46c2146101125780636f2dff4e1461014257806371a7c18814610160578063b65305831461019057610086565b80630db8dc4d1461008a57806318f1024d146100ba5780631a151fa2146100d65780634869f99d146100f4575b5f5ffd5b6100a4600480360381019061009f9190610661565b6101c0565b6040516100b191906106c4565b60405180910390f35b6100d460048036038101906100cf9190610661565b61044c565b005b6100de610504565b6040516100eb91906106c4565b60405180910390f35b6100fc610509565b60405161010991906106c4565b60405180910390f35b61012c60048036038101906101279190610661565b61050e565b604051610139919061084f565b60405180910390f35b61014a610525565b60405161015791906106c4565b60405180910390f35b61017a60048036038101906101759190610661565b61052a565b60405161018791906106c4565b60405180910390f35b6101aa60048036038101906101a59190610661565b6105e2565b6040516101b791906106c4565b60405180910390f35b5f5f8383905011610206576040517f08c379a00000000000000000000000000000000000000000000000000000000081526004016101fd906108c9565b60405180910390fd5b603283839050111561024d576040517f08c379a000000000000000000000000000000000000000000000000000000000815260040161024490610931565b60405180910390fd5b5f83835f8181106102615761026061094f565b5b90506020028101906102739190610988565b5f8181106102845761028361094f565b5b9050602002013590505f5f90505b84849050811015610441575f8585838181106102b1576102b061094f565b5b90506020028101906102c39190610988565b905011610305576040517f08c379a00000000000000000000000000000000000000000000000000000000081526004016102fc90610a34565b60405180910390fd5b603285858381811061031a5761031961094f565b5b905060200281019061032c9190610988565b9050111561036f576040517f08c379a000000000000000000000000000000000000000000000000000000000815260040161036690610a9c565b60405180910390fd5b5f5f90505b8585838181106103875761038661094f565b5b90506020028101906103999190610988565b905081101561043357828686848181106103b6576103b561094f565b5b90506020028101906103c89190610988565b838181106103d9576103d861094f565b5b905060200201351115610426578585838181106103f9576103f861094f565b5b905060200281019061040b9190610988565b8281811061041c5761041b61094f565b5b9050602002013592505b8080600101915050610374565b508080600101915050610292565b508091505092915050565b5f5f90505f5f90505b838390508110156104f8575f5f90505b8484838181106104785761047761094f565b5b905060200281019061048a9190610988565b90508110156104ea578484838181106104a6576104a561094f565b5b90506020028101906104b89190610988565b828181106104c9576104c861094f565b5b90506020020135836104db9190610ae7565b92508080600101915050610465565b508080600101915050610455565b50805f81905550505050565b603281565b5f5481565b606082829061051d9190610d3d565b905092915050565b603281565b5f5f5f90505f5f90505b848490508110156105d7575f5f90505b8585838181106105575761055661094f565b5b90506020028101906105699190610988565b90508110156105c9578585838181106105855761058461094f565b5b90506020028101906105979190610988565b828181106105a8576105a761094f565b5b90506020020135836105ba9190610ae7565b92508080600101915050610544565b508080600101915050610534565b508091505092915050565b5f82829050905092915050565b5f604051905090565b5f5ffd5b5f5ffd5b5f5ffd5b5f5ffd5b5f5ffd5b5f5f83601f84011261062157610620610600565b5b8235905067ffffffffffffffff81111561063e5761063d610604565b5b60208301915083602082028301111561065a57610659610608565b5b9250929050565b5f5f60208385031215610677576106766105f8565b5b5f83013567ffffffffffffffff811115610694576106936105fc565b5b6106a08582860161060c565b92509250509250929050565b5f819050919050565b6106be816106ac565b82525050565b5f6020820190506106d75f8301846106b5565b92915050565b5f81519050919050565b5f82825260208201905092915050565b5f819050602082019050919050565b5f81519050919050565b5f82825260208201905092915050565b5f819050602082019050919050565b610738816106ac565b82525050565b5f610749838361072f565b60208301905092915050565b5f602082019050919050565b5f61076b82610706565b6107758185610710565b935061078083610720565b805f5b838110156107b0578151610797888261073e565b97506107a283610755565b925050600181019050610783565b5085935050505092915050565b5f6107c88383610761565b905092915050565b5f602082019050919050565b5f6107e6826106dd565b6107f081856106e7565b935083602082028501610802856106f7565b805f5b8581101561083d578484038952815161081e85826107bd565b9450610829836107d0565b925060208a01995050600181019050610805565b50829750879550505050505092915050565b5f6020820190508181035f83015261086781846107dc565b905092915050565b5f82825260208201905092915050565b7f4172726179206d757374206e6f7420626520656d7074790000000000000000005f82015250565b5f6108b360178361086f565b91506108be8261087f565b602082019050919050565b5f6020820190508181035f8301526108e0816108a7565b9050919050565b7f4f7574657220617272617920746f6f206c6172676500000000000000000000005f82015250565b5f61091b60158361086f565b9150610926826108e7565b602082019050919050565b5f6020820190508181035f8301526109488161090f565b9050919050565b7f4e487b71000000000000000000000000000000000000000000000000000000005f52603260045260245ffd5b5f5ffd5b5f5ffd5b5f5ffd5b5f5f833560016020038436030381126109a4576109a361097c565b5b80840192508235915067ffffffffffffffff8211156109c6576109c5610980565b5b6020830192506020820236038313156109e2576109e1610984565b5b509250929050565b7f456d70747920696e6e65722061727261790000000000000000000000000000005f82015250565b5f610a1e60118361086f565b9150610a29826109ea565b602082019050919050565b5f6020820190508181035f830152610a4b81610a12565b9050919050565b7f496e6e657220617272617920746f6f206c6172676500000000000000000000005f82015250565b5f610a8660158361086f565b9150610a9182610a52565b602082019050919050565b5f6020820190508181035f830152610ab381610a7a565b9050919050565b7f4e487b71000000000000000000000000000000000000000000000000000000005f52601160045260245ffd5b5f610af1826106ac565b9150610afc836106ac565b9250828201905080821115610b1457610b13610aba565b5b92915050565b5f601f19601f8301169050919050565b7f4e487b71000000000000000000000000000000000000000000000000000000005f52604160045260245ffd5b610b6082610b1a565b810181811067ffffffffffffffff82111715610b7f57610b7e610b2a565b5b80604052505050565b5f610b916105ef565b9050610b9d8282610b57565b919050565b5f67ffffffffffffffff821115610bbc57610bbb610b2a565b5b602082029050602081019050919050565b5f67ffffffffffffffff821115610be757610be6610b2a565b5b602082029050602081019050919050565b610c01816106ac565b8114610c0b575f5ffd5b50565b5f81359050610c1c81610bf8565b92915050565b5f610c34610c2f84610bcd565b610b88565b90508083825260208201905060208402830185811115610c5757610c56610608565b5b835b81811015610c805780610c6c8882610c0e565b845260208401935050602081019050610c59565b5050509392505050565b5f82601f830112610c9e57610c9d610600565b5b8135610cae848260208601610c22565b91505092915050565b5f610cc9610cc484610ba2565b610b88565b90508083825260208201905060208402830185811115610cec57610ceb610608565b5b835b81811015610d3357803567ffffffffffffffff811115610d1157610d10610600565b5b808601610d1e8982610c8a565b85526020850194505050602081019050610cee565b5050509392505050565b5f610d49368484610cb7565b90509291505056fea26469706673582212202a250b5ca288710fb90ac840f017970381892a313ce59efb845126daf0d6427a64736f6c63430008220033",
					"opcodes": "PUSH1 0x80 PUSH1 0x40 MSTORE CALLVALUE DUP1 ISZERO PUSH1 0xE JUMPI PUSH0 PUSH0 REVERT JUMPDEST POP PUSH2 0xD87 DUP1 PUSH2 0x1C PUSH0 CODECOPY PUSH0 RETURN INVALID PUSH1 0x80 PUSH1 0x40 MSTORE CALLVALUE DUP1 ISZERO PUSH2 0xF JUMPI PUSH0 PUSH0 REVERT JUMPDEST POP PUSH1 0x4 CALLDATASIZE LT PUSH2 0x86 JUMPI PUSH0 CALLDATALOAD PUSH1 0xE0 SHR DUP1 PUSH4 0x545F46C2 GT PUSH2 0x59 JUMPI DUP1 PUSH4 0x545F46C2 EQ PUSH2 0x112 JUMPI DUP1 PUSH4 0x6F2DFF4E EQ PUSH2 0x142 JUMPI DUP1 PUSH4 0x71A7C188 EQ PUSH2 0x160 JUMPI DUP1 PUSH4 0xB6530583 EQ PUSH2 0x190 JUMPI PUSH2 0x86 JUMP JUMPDEST DUP1 PUSH4 0xDB8DC4D EQ PUSH2 0x8A JUMPI DUP1 PUSH4 0x18F1024D EQ PUSH2 0xBA JUMPI DUP1 PUSH4 0x1A151FA2 EQ PUSH2 0xD6 JUMPI DUP1 PUSH4 0x4869F99D EQ PUSH2 0xF4 JUMPI JUMPDEST PUSH0 PUSH0 REVERT JUMPDEST PUSH2 0xA4 PUSH1 0x4 DUP1 CALLDATASIZE SUB DUP2 ADD SWAP1 PUSH2 0x9F SWAP2 SWAP1 PUSH2 0x661 JUMP JUMPDEST PUSH2 0x1C0 JUMP JUMPDEST PUSH1 0x40 MLOAD PUSH2 0xB1 SWAP2 SWAP1 PUSH2 0x6C4 JUMP JUMPDEST PUSH1 0x40 MLOAD DUP1 SWAP2 SUB SWAP1 RETURN JUMPDEST PUSH2 0xD4 PUSH1 0x4 DUP1 CALLDATASIZE SUB DUP2 ADD SWAP1 PUSH2 0xCF SWAP2 SWAP1 PUSH2 0x661 JUMP JUMPDEST PUSH2 0x44C JUMP JUMPDEST STOP JUMPDEST PUSH2 0xDE PUSH2 0x504 JUMP JUMPDEST PUSH1 0x40 MLOAD PUSH2 0xEB SWAP2 SWAP1 PUSH2 0x6C4 JUMP JUMPDEST PUSH1 0x40 MLOAD DUP1 SWAP2 SUB SWAP1 RETURN JUMPDEST PUSH2 0xFC PUSH2 0x509 JUMP JUMPDEST PUSH1 0x40 MLOAD PUSH2 0x109 SWAP2 SWAP1 PUSH2 0x6C4 JUMP JUMPDEST PUSH1 0x40 MLOAD DUP1 SWAP2 SUB SWAP1 RETURN JUMPDEST PUSH2 0x12C PUSH1 0x4 DUP1 CALLDATASIZE SUB DUP2 ADD SWAP1 PUSH2 0x127 SWAP2 SWAP1 PUSH2 0x661 JUMP JUMPDEST PUSH2 0x50E JUMP JUMPDEST PUSH1 0x40 MLOAD PUSH2 0x139 SWAP2 SWAP1 PUSH2 0x84F JUMP JUMPDEST PUSH1 0x40 MLOAD DUP1 SWAP2 SUB SWAP1 RETURN JUMPDEST PUSH2 0x14A PUSH2 0x525 JUMP JUMPDEST PUSH1 0x40 MLOAD PUSH2 0x157 SWAP2 SWAP1 PUSH2 0x6C4 JUMP JUMPDEST PUSH1 0x40 MLOAD DUP1 SWAP2 SUB SWAP1 RETURN JUMPDEST PUSH2 0x17A PUSH1 0x4 DUP1 CALLDATASIZE SUB DUP2 ADD SWAP1 PUSH2 0x175 SWAP2 SWAP1 PUSH2 0x661 JUMP JUMPDEST PUSH2 0x52A JUMP JUMPDEST PUSH1 0x40 MLOAD PUSH2 0x187 SWAP2 SWAP1 PUSH2 0x6C4 JUMP JUMPDEST PUSH1 0x40 MLOAD DUP1 SWAP2 SUB SWAP1 RETURN JUMPDEST PUSH2 0x1AA PUSH1 0x4 DUP1 CALLDATASIZE SUB DUP2 ADD SWAP1 PUSH2 0x1A5 SWAP2 SWAP1 PUSH2 0x661 JUMP JUMPDEST PUSH2 0x5E2 JUMP JUMPDEST PUSH1 0x40 MLOAD PUSH2 0x1B7 SWAP2 SWAP1 PUSH2 0x6C4 JUMP JUMPDEST PUSH1 0x40 MLOAD DUP1 SWAP2 SUB SWAP1 RETURN JUMPDEST PUSH0 PUSH0 DUP4 DUP4 SWAP1 POP GT PUSH2 0x206 JUMPI PUSH1 0x40 MLOAD PUSH32 0x8C379A000000000000000000000000000000000000000000000000000000000 DUP2 MSTORE PUSH1 0x4 ADD PUSH2 0x1FD SWAP1 PUSH2 0x8C9 JUMP JUMPDEST PUSH1 0x40 MLOAD DUP1 SWAP2 SUB SWAP1 REVERT JUMPDEST PUSH1 0x32 DUP4 DUP4 SWAP1 POP GT ISZERO PUSH2 0x24D JUMPI PUSH1 0x40 MLOAD PUSH32 0x8C379A000000000000000000000000000000000000000000000000000000000 DUP2 MSTORE PUSH1 0x4 ADD PUSH2 0x244 SWAP1 PUSH2 0x931 JUMP JUMPDEST PUSH1 0x40 MLOAD DUP1 SWAP2 SUB SWAP1 REVERT JUMPDEST PUSH0 DUP4 DUP4 PUSH0 DUP2 DUP2 LT PUSH2 0x261 JUMPI PUSH2 0x260 PUSH2 0x94F JUMP JUMPDEST JUMPDEST SWAP1 POP PUSH1 0x20 MUL DUP2 ADD SWAP1 PUSH2 0x273 SWAP2 SWAP1 PUSH2 0x988 JUMP JUMPDEST PUSH0 DUP2 DUP2 LT PUSH2 0x284 JUMPI PUSH2 0x283 PUSH2 0x94F JUMP JUMPDEST JUMPDEST SWAP1 POP PUSH1 0x20 MUL ADD CALLDATALOAD SWAP1 POP PUSH0 PUSH0 SWAP1 POP JUMPDEST DUP5 DUP5 SWAP1 POP DUP2 LT ISZERO PUSH2 0x441 JUMPI PUSH0 DUP6 DUP6 DUP4 DUP2 DUP2 LT PUSH2 0x2B1 JUMPI PUSH2 0x2B0 PUSH2 0x94F JUMP JUMPDEST JUMPDEST SWAP1 POP PUSH1 0x20 MUL DUP2 ADD SWAP1 PUSH2 0x2C3 SWAP2 SWAP1 PUSH2 0x988 JUMP JUMPDEST SWAP1 POP GT PUSH2 0x305 JUMPI PUSH1 0x40 MLOAD PUSH32 0x8C379A000000000000000000000000000000000000000000000000000000000 DUP2 MSTORE PUSH1 0x4 ADD PUSH2 0x2FC SWAP1 PUSH2 0xA34 JUMP JUMPDEST PUSH1 0x40 MLOAD DUP1 SWAP2 SUB SWAP1 REVERT JUMPDEST PUSH1 0x32 DUP6 DUP6 DUP4 DUP2 DUP2 LT PUSH2 0x31A JUMPI PUSH2 0x319 PUSH2 0x94F JUMP JUMPDEST JUMPDEST SWAP1 POP PUSH1 0x20 MUL DUP2 ADD SWAP1 PUSH2 0x32C SWAP2 SWAP1 PUSH2 0x988 JUMP JUMPDEST SWAP1 POP GT ISZERO PUSH2 0x36F JUMPI PUSH1 0x40 MLOAD PUSH32 0x8C379A000000000000000000000000000000000000000000000000000000000 DUP2 MSTORE PUSH1 0x4 ADD PUSH2 0x366 SWAP1 PUSH2 0xA9C JUMP JUMPDEST PUSH1 0x40 MLOAD DUP1 SWAP2 SUB SWAP1 REVERT JUMPDEST PUSH0 PUSH0 SWAP1 POP JUMPDEST DUP6 DUP6 DUP4 DUP2 DUP2 LT PUSH2 0x387 JUMPI PUSH2 0x386 PUSH2 0x94F JUMP JUMPDEST JUMPDEST SWAP1 POP PUSH1 0x20 MUL DUP2 ADD SWAP1 PUSH2 0x399 SWAP2 SWAP1 PUSH2 0x988 JUMP JUMPDEST SWAP1 POP DUP2 LT ISZERO PUSH2 0x433 JUMPI DUP3 DUP7 DUP7 DUP5 DUP2 DUP2 LT PUSH2 0x3B6 JUMPI PUSH2 0x3B5 PUSH2 0x94F JUMP JUMPDEST JUMPDEST SWAP1 POP PUSH1 0x20 MUL DUP2 ADD SWAP1 PUSH2 0x3C8 SWAP2 SWAP1 PUSH2 0x988 JUMP JUMPDEST DUP4 DUP2 DUP2 LT PUSH2 0x3D9 JUMPI PUSH2 0x3D8 PUSH2 0x94F JUMP JUMPDEST JUMPDEST SWAP1 POP PUSH1 0x20 MUL ADD CALLDATALOAD GT ISZERO PUSH2 0x426 JUMPI DUP6 DUP6 DUP4 DUP2 DUP2 LT PUSH2 0x3F9 JUMPI PUSH2 0x3F8 PUSH2 0x94F JUMP JUMPDEST JUMPDEST SWAP1 POP PUSH1 0x20 MUL DUP2 ADD SWAP1 PUSH2 0x40B SWAP2 SWAP1 PUSH2 0x988 JUMP JUMPDEST DUP3 DUP2 DUP2 LT PUSH2 0x41C JUMPI PUSH2 0x41B PUSH2 0x94F JUMP JUMPDEST JUMPDEST SWAP1 POP PUSH1 0x20 MUL ADD CALLDATALOAD SWAP3 POP JUMPDEST DUP1 DUP1 PUSH1 0x1 ADD SWAP2 POP POP PUSH2 0x374 JUMP JUMPDEST POP DUP1 DUP1 PUSH1 0x1 ADD SWAP2 POP POP PUSH2 0x292 JUMP JUMPDEST POP DUP1 SWAP2 POP POP SWAP3 SWAP2 POP POP JUMP JUMPDEST PUSH0 PUSH0 SWAP1 POP PUSH0 PUSH0 SWAP1 POP JUMPDEST DUP4 DUP4 SWAP1 POP DUP2 LT ISZERO PUSH2 0x4F8 JUMPI PUSH0 PUSH0 SWAP1 POP JUMPDEST DUP5 DUP5 DUP4 DUP2 DUP2 LT PUSH2 0x478 JUMPI PUSH2 0x477 PUSH2 0x94F JUMP JUMPDEST JUMPDEST SWAP1 POP PUSH1 0x20 MUL DUP2 ADD SWAP1 PUSH2 0x48A SWAP2 SWAP1 PUSH2 0x988 JUMP JUMPDEST SWAP1 POP DUP2 LT ISZERO PUSH2 0x4EA JUMPI DUP5 DUP5 DUP4 DUP2 DUP2 LT PUSH2 0x4A6 JUMPI PUSH2 0x4A5 PUSH2 0x94F JUMP JUMPDEST JUMPDEST SWAP1 POP PUSH1 0x20 MUL DUP2 ADD SWAP1 PUSH2 0x4B8 SWAP2 SWAP1 PUSH2 0x988 JUMP JUMPDEST DUP3 DUP2 DUP2 LT PUSH2 0x4C9 JUMPI PUSH2 0x4C8 PUSH2 0x94F JUMP JUMPDEST JUMPDEST SWAP1 POP PUSH1 0x20 MUL ADD CALLDATALOAD DUP4 PUSH2 0x4DB SWAP2 SWAP1 PUSH2 0xAE7 JUMP JUMPDEST SWAP3 POP DUP1 DUP1 PUSH1 0x1 ADD SWAP2 POP POP PUSH2 0x465 JUMP JUMPDEST POP DUP1 DUP1 PUSH1 0x1 ADD SWAP2 POP POP PUSH2 0x455 JUMP JUMPDEST POP DUP1 PUSH0 DUP2 SWAP1 SSTORE POP POP POP POP JUMP JUMPDEST PUSH1 0x32 DUP2 JUMP JUMPDEST PUSH0 SLOAD DUP2 JUMP JUMPDEST PUSH1 0x60 DUP3 DUP3 SWAP1 PUSH2 0x51D SWAP2 SWAP1 PUSH2 0xD3D JUMP JUMPDEST SWAP1 POP SWAP3 SWAP2 POP POP JUMP JUMPDEST PUSH1 0x32 DUP2 JUMP JUMPDEST PUSH0 PUSH0 PUSH0 SWAP1 POP PUSH0 PUSH0 SWAP1 POP JUMPDEST DUP5 DUP5 SWAP1 POP DUP2 LT ISZERO PUSH2 0x5D7 JUMPI PUSH0 PUSH0 SWAP1 POP JUMPDEST DUP6 DUP6 DUP4 DUP2 DUP2 LT PUSH2 0x557 JUMPI PUSH2 0x556 PUSH2 0x94F JUMP JUMPDEST JUMPDEST SWAP1 POP PUSH1 0x20 MUL DUP2 ADD SWAP1 PUSH2 0x569 SWAP2 SWAP1 PUSH2 0x988 JUMP JUMPDEST SWAP1 POP DUP2 LT ISZERO PUSH2 0x5C9 JUMPI DUP6 DUP6 DUP4 DUP2 DUP2 LT PUSH2 0x585 JUMPI PUSH2 0x584 PUSH2 0x94F JUMP JUMPDEST JUMPDEST SWAP1 POP PUSH1 0x20 MUL DUP2 ADD SWAP1 PUSH2 0x597 SWAP2 SWAP1 PUSH2 0x988 JUMP JUMPDEST DUP3 DUP2 DUP2 LT PUSH2 0x5A8 JUMPI PUSH2 0x5A7 PUSH2 0x94F JUMP JUMPDEST JUMPDEST SWAP1 POP PUSH1 0x20 MUL ADD CALLDATALOAD DUP4 PUSH2 0x5BA SWAP2 SWAP1 PUSH2 0xAE7 JUMP JUMPDEST SWAP3 POP DUP1 DUP1 PUSH1 0x1 ADD SWAP2 POP POP PUSH2 0x544 JUMP JUMPDEST POP DUP1 DUP1 PUSH1 0x1 ADD SWAP2 POP POP PUSH2 0x534 JUMP JUMPDEST POP DUP1 SWAP2 POP POP SWAP3 SWAP2 POP POP JUMP JUMPDEST PUSH0 DUP3 DUP3 SWAP1 POP SWAP1 POP SWAP3 SWAP2 POP POP JUMP JUMPDEST PUSH0 PUSH1 0x40 MLOAD SWAP1 POP SWAP1 JUMP JUMPDEST PUSH0 PUSH0 REVERT JUMPDEST PUSH0 PUSH0 REVERT JUMPDEST PUSH0 PUSH0 REVERT JUMPDEST PUSH0 PUSH0 REVERT JUMPDEST PUSH0 PUSH0 REVERT JUMPDEST PUSH0 PUSH0 DUP4 PUSH1 0x1F DUP5 ADD SLT PUSH2 0x621 JUMPI PUSH2 0x620 PUSH2 0x600 JUMP JUMPDEST JUMPDEST DUP3 CALLDATALOAD SWAP1 POP PUSH8 0xFFFFFFFFFFFFFFFF DUP2 GT ISZERO PUSH2 0x63E JUMPI PUSH2 0x63D PUSH2 0x604 JUMP JUMPDEST JUMPDEST PUSH1 0x20 DUP4 ADD SWAP2 POP DUP4 PUSH1 0x20 DUP3 MUL DUP4 ADD GT ISZERO PUSH2 0x65A JUMPI PUSH2 0x659 PUSH2 0x608 JUMP JUMPDEST JUMPDEST SWAP3 POP SWAP3 SWAP1 POP JUMP JUMPDEST PUSH0 PUSH0 PUSH1 0x20 DUP4 DUP6 SUB SLT ISZERO PUSH2 0x677 JUMPI PUSH2 0x676 PUSH2 0x5F8 JUMP JUMPDEST JUMPDEST PUSH0 DUP4 ADD CALLDATALOAD PUSH8 0xFFFFFFFFFFFFFFFF DUP2 GT ISZERO PUSH2 0x694 JUMPI PUSH2 0x693 PUSH2 0x5FC JUMP JUMPDEST JUMPDEST PUSH2 0x6A0 DUP6 DUP3 DUP7 ADD PUSH2 0x60C JUMP JUMPDEST SWAP3 POP SWAP3 POP POP SWAP3 POP SWAP3 SWAP1 POP JUMP JUMPDEST PUSH0 DUP2 SWAP1 POP SWAP2 SWAP1 POP JUMP JUMPDEST PUSH2 0x6BE DUP2 PUSH2 0x6AC JUMP JUMPDEST DUP3 MSTORE POP POP JUMP JUMPDEST PUSH0 PUSH1 0x20 DUP3 ADD SWAP1 POP PUSH2 0x6D7 PUSH0 DUP4 ADD DUP5 PUSH2 0x6B5 JUMP JUMPDEST SWAP3 SWAP2 POP POP JUMP JUMPDEST PUSH0 DUP2 MLOAD SWAP1 POP SWAP2 SWAP1 POP JUMP JUMPDEST PUSH0 DUP3 DUP3 MSTORE PUSH1 0x20 DUP3 ADD SWAP1 POP SWAP3 SWAP2 POP POP JUMP JUMPDEST PUSH0 DUP2 SWAP1 POP PUSH1 0x20 DUP3 ADD SWAP1 POP SWAP2 SWAP1 POP JUMP JUMPDEST PUSH0 DUP2 MLOAD SWAP1 POP SWAP2 SWAP1 POP JUMP JUMPDEST PUSH0 DUP3 DUP3 MSTORE PUSH1 0x20 DUP3 ADD SWAP1 POP SWAP3 SWAP2 POP POP JUMP JUMPDEST PUSH0 DUP2 SWAP1 POP PUSH1 0x20 DUP3 ADD SWAP1 POP SWAP2 SWAP1 POP JUMP JUMPDEST PUSH2 0x738 DUP2 PUSH2 0x6AC JUMP JUMPDEST DUP3 MSTORE POP POP JUMP JUMPDEST PUSH0 PUSH2 0x749 DUP4 DUP4 PUSH2 0x72F JUMP JUMPDEST PUSH1 0x20 DUP4 ADD SWAP1 POP SWAP3 SWAP2 POP POP JUMP JUMPDEST PUSH0 PUSH1 0x20 DUP3 ADD SWAP1 POP SWAP2 SWAP1 POP JUMP JUMPDEST PUSH0 PUSH2 0x76B DUP3 PUSH2 0x706 JUMP JUMPDEST PUSH2 0x775 DUP2 DUP6 PUSH2 0x710 JUMP JUMPDEST SWAP4 POP PUSH2 0x780 DUP4 PUSH2 0x720 JUMP JUMPDEST DUP1 PUSH0 JUMPDEST DUP4 DUP2 LT ISZERO PUSH2 0x7B0 JUMPI DUP2 MLOAD PUSH2 0x797 DUP9 DUP3 PUSH2 0x73E JUMP JUMPDEST SWAP8 POP PUSH2 0x7A2 DUP4 PUSH2 0x755 JUMP JUMPDEST SWAP3 POP POP PUSH1 0x1 DUP2 ADD SWAP1 POP PUSH2 0x783 JUMP JUMPDEST POP DUP6 SWAP4 POP POP POP POP SWAP3 SWAP2 POP POP JUMP JUMPDEST PUSH0 PUSH2 0x7C8 DUP4 DUP4 PUSH2 0x761 JUMP JUMPDEST SWAP1 POP SWAP3 SWAP2 POP POP JUMP JUMPDEST PUSH0 PUSH1 0x20 DUP3 ADD SWAP1 POP SWAP2 SWAP1 POP JUMP JUMPDEST PUSH0 PUSH2 0x7E6 DUP3 PUSH2 0x6DD JUMP JUMPDEST PUSH2 0x7F0 DUP2 DUP6 PUSH2 0x6E7 JUMP JUMPDEST SWAP4 POP DUP4 PUSH1 0x20 DUP3 MUL DUP6 ADD PUSH2 0x802 DUP6 PUSH2 0x6F7 JUMP JUMPDEST DUP1 PUSH0 JUMPDEST DUP6 DUP2 LT ISZERO PUSH2 0x83D JUMPI DUP5 DUP5 SUB DUP10 MSTORE DUP2 MLOAD PUSH2 0x81E DUP6 DUP3 PUSH2 0x7BD JUMP JUMPDEST SWAP5 POP PUSH2 0x829 DUP4 PUSH2 0x7D0 JUMP JUMPDEST SWAP3 POP PUSH1 0x20 DUP11 ADD SWAP10 POP POP PUSH1 0x1 DUP2 ADD SWAP1 POP PUSH2 0x805 JUMP JUMPDEST POP DUP3 SWAP8 POP DUP8 SWAP6 POP POP POP POP POP POP SWAP3 SWAP2 POP POP JUMP JUMPDEST PUSH0 PUSH1 0x20 DUP3 ADD SWAP1 POP DUP2 DUP2 SUB PUSH0 DUP4 ADD MSTORE PUSH2 0x867 DUP2 DUP5 PUSH2 0x7DC JUMP JUMPDEST SWAP1 POP SWAP3 SWAP2 POP POP JUMP JUMPDEST PUSH0 DUP3 DUP3 MSTORE PUSH1 0x20 DUP3 ADD SWAP1 POP SWAP3 SWAP2 POP POP JUMP JUMPDEST PUSH32 0x4172726179206D757374206E6F7420626520656D707479000000000000000000 PUSH0 DUP3 ADD MSTORE POP JUMP JUMPDEST PUSH0 PUSH2 0x8B3 PUSH1 0x17 DUP4 PUSH2 0x86F JUMP JUMPDEST SWAP2 POP PUSH2 0x8BE DUP3 PUSH2 0x87F JUMP JUMPDEST PUSH1 0x20 DUP3 ADD SWAP1 POP SWAP2 SWAP1 POP JUMP JUMPDEST PUSH0 PUSH1 0x20 DUP3 ADD SWAP1 POP DUP2 DUP2 SUB PUSH0 DUP4 ADD MSTORE PUSH2 0x8E0 DUP2 PUSH2 0x8A7 JUMP JUMPDEST SWAP1 POP SWAP2 SWAP1 POP JUMP JUMPDEST PUSH32 0x4F7574657220617272617920746F6F206C617267650000000000000000000000 PUSH0 DUP3 ADD MSTORE POP JUMP JUMPDEST PUSH0 PUSH2 0x91B PUSH1 0x15 DUP4 PUSH2 0x86F JUMP JUMPDEST SWAP2 POP PUSH2 0x926 DUP3 PUSH2 0x8E7 JUMP JUMPDEST PUSH1 0x20 DUP3 ADD SWAP1 POP SWAP2 SWAP1 POP JUMP JUMPDEST PUSH0 PUSH1 0x20 DUP3 ADD SWAP1 POP DUP2 DUP2 SUB PUSH0 DUP4 ADD MSTORE PUSH2 0x948 DUP2 PUSH2 0x90F JUMP JUMPDEST SWAP1 POP SWAP2 SWAP1 POP JUMP JUMPDEST PUSH32 0x4E487B7100000000000000000000000000000000000000000000000000000000 PUSH0 MSTORE PUSH1 0x32 PUSH1 0x4 MSTORE PUSH1 0x24 PUSH0 REVERT JUMPDEST PUSH0 PUSH0 REVERT JUMPDEST PUSH0 PUSH0 REVERT JUMPDEST PUSH0 PUSH0 REVERT JUMPDEST PUSH0 PUSH0 DUP4 CALLDATALOAD PUSH1 0x1 PUSH1 0x20 SUB DUP5 CALLDATASIZE SUB SUB DUP2 SLT PUSH2 0x9A4 JUMPI PUSH2 0x9A3 PUSH2 0x97C JUMP JUMPDEST JUMPDEST DUP1 DUP5 ADD SWAP3 POP DUP3 CALLDATALOAD SWAP2 POP PUSH8 0xFFFFFFFFFFFFFFFF DUP3 GT ISZERO PUSH2 0x9C6 JUMPI PUSH2 0x9C5 PUSH2 0x980 JUMP JUMPDEST JUMPDEST PUSH1 0x20 DUP4 ADD SWAP3 POP PUSH1 0x20 DUP3 MUL CALLDATASIZE SUB DUP4 SGT ISZERO PUSH2 0x9E2 JUMPI PUSH2 0x9E1 PUSH2 0x984 JUMP JUMPDEST JUMPDEST POP SWAP3 POP SWAP3 SWAP1 POP JUMP JUMPDEST PUSH32 0x456D70747920696E6E6572206172726179000000000000000000000000000000 PUSH0 DUP3 ADD MSTORE POP JUMP JUMPDEST PUSH0 PUSH2 0xA1E PUSH1 0x11 DUP4 PUSH2 0x86F JUMP JUMPDEST SWAP2 POP PUSH2 0xA29 DUP3 PUSH2 0x9EA JUMP JUMPDEST PUSH1 0x20 DUP3 ADD SWAP1 POP SWAP2 SWAP1 POP JUMP JUMPDEST PUSH0 PUSH1 0x20 DUP3 ADD SWAP1 POP DUP2 DUP2 SUB PUSH0 DUP4 ADD MSTORE PUSH2 0xA4B DUP2 PUSH2 0xA12 JUMP JUMPDEST SWAP1 POP SWAP2 SWAP1 POP JUMP JUMPDEST PUSH32 0x496E6E657220617272617920746F6F206C617267650000000000000000000000 PUSH0 DUP3 ADD MSTORE POP JUMP JUMPDEST PUSH0 PUSH2 0xA86 PUSH1 0x15 DUP4 PUSH2 0x86F JUMP JUMPDEST SWAP2 POP PUSH2 0xA91 DUP3 PUSH2 0xA52 JUMP JUMPDEST PUSH1 0x20 DUP3 ADD SWAP1 POP SWAP2 SWAP1 POP JUMP JUMPDEST PUSH0 PUSH1 0x20 DUP3 ADD SWAP1 POP DUP2 DUP2 SUB PUSH0 DUP4 ADD MSTORE PUSH2 0xAB3 DUP2 PUSH2 0xA7A JUMP JUMPDEST SWAP1 POP SWAP2 SWAP1 POP JUMP JUMPDEST PUSH32 0x4E487B7100000000000000000000000000000000000000000000000000000000 PUSH0 MSTORE PUSH1 0x11 PUSH1 0x4 MSTORE PUSH1 0x24 PUSH0 REVERT JUMPDEST PUSH0 PUSH2 0xAF1 DUP3 PUSH2 0x6AC JUMP JUMPDEST SWAP2 POP PUSH2 0xAFC DUP4 PUSH2 0x6AC JUMP JUMPDEST SWAP3 POP DUP3 DUP3 ADD SWAP1 POP DUP1 DUP3 GT ISZERO PUSH2 0xB14 JUMPI PUSH2 0xB13 PUSH2 0xABA JUMP JUMPDEST JUMPDEST SWAP3 SWAP2 POP POP JUMP JUMPDEST PUSH0 PUSH1 0x1F NOT PUSH1 0x1F DUP4 ADD AND SWAP1 POP SWAP2 SWAP1 POP JUMP JUMPDEST PUSH32 0x4E487B7100000000000000000000000000000000000000000000000000000000 PUSH0 MSTORE PUSH1 0x41 PUSH1 0x4 MSTORE PUSH1 0x24 PUSH0 REVERT JUMPDEST PUSH2 0xB60 DUP3 PUSH2 0xB1A JUMP JUMPDEST DUP2 ADD DUP2 DUP2 LT PUSH8 0xFFFFFFFFFFFFFFFF DUP3 GT OR ISZERO PUSH2 0xB7F JUMPI PUSH2 0xB7E PUSH2 0xB2A JUMP JUMPDEST JUMPDEST DUP1 PUSH1 0x40 MSTORE POP POP POP JUMP JUMPDEST PUSH0 PUSH2 0xB91 PUSH2 0x5EF JUMP JUMPDEST SWAP1 POP PUSH2 0xB9D DUP3 DUP3 PUSH2 0xB57 JUMP JUMPDEST SWAP2 SWAP1 POP JUMP JUMPDEST PUSH0 PUSH8 0xFFFFFFFFFFFFFFFF DUP3 GT ISZERO PUSH2 0xBBC JUMPI PUSH2 0xBBB PUSH2 0xB2A JUMP JUMPDEST JUMPDEST PUSH1 0x20 DUP3 MUL SWAP1 POP PUSH1 0x20 DUP2 ADD SWAP1 POP SWAP2 SWAP1 POP JUMP JUMPDEST PUSH0 PUSH8 0xFFFFFFFFFFFFFFFF DUP3 GT ISZERO PUSH2 0xBE7 JUMPI PUSH2 0xBE6 PUSH2 0xB2A JUMP JUMPDEST JUMPDEST PUSH1 0x20 DUP3 MUL SWAP1 POP PUSH1 0x20 DUP2 ADD SWAP1 POP SWAP2 SWAP1 POP JUMP JUMPDEST PUSH2 0xC01 DUP2 PUSH2 0x6AC JUMP JUMPDEST DUP2 EQ PUSH2 0xC0B JUMPI PUSH0 PUSH0 REVERT JUMPDEST POP JUMP JUMPDEST PUSH0 DUP2 CALLDATALOAD SWAP1 POP PUSH2 0xC1C DUP2 PUSH2 0xBF8 JUMP JUMPDEST SWAP3 SWAP2 POP POP JUMP JUMPDEST PUSH0 PUSH2 0xC34 PUSH2 0xC2F DUP5 PUSH2 0xBCD JUMP JUMPDEST PUSH2 0xB88 JUMP JUMPDEST SWAP1 POP DUP1 DUP4 DUP3 MSTORE PUSH1 0x20 DUP3 ADD SWAP1 POP PUSH1 0x20 DUP5 MUL DUP4 ADD DUP6 DUP2 GT ISZERO PUSH2 0xC57 JUMPI PUSH2 0xC56 PUSH2 0x608 JUMP JUMPDEST JUMPDEST DUP4 JUMPDEST DUP2 DUP2 LT ISZERO PUSH2 0xC80 JUMPI DUP1 PUSH2 0xC6C DUP9 DUP3 PUSH2 0xC0E JUMP JUMPDEST DUP5 MSTORE PUSH1 0x20 DUP5 ADD SWAP4 POP POP PUSH1 0x20 DUP2 ADD SWAP1 POP PUSH2 0xC59 JUMP JUMPDEST POP POP POP SWAP4 SWAP3 POP POP POP JUMP JUMPDEST PUSH0 DUP3 PUSH1 0x1F DUP4 ADD SLT PUSH2 0xC9E JUMPI PUSH2 0xC9D PUSH2 0x600 JUMP JUMPDEST JUMPDEST DUP2 CALLDATALOAD PUSH2 0xCAE DUP5 DUP3 PUSH1 0x20 DUP7 ADD PUSH2 0xC22 JUMP JUMPDEST SWAP2 POP POP SWAP3 SWAP2 POP POP JUMP JUMPDEST PUSH0 PUSH2 0xCC9 PUSH2 0xCC4 DUP5 PUSH2 0xBA2 JUMP JUMPDEST PUSH2 0xB88 JUMP JUMPDEST SWAP1 POP DUP1 DUP4 DUP3 MSTORE PUSH1 0x20 DUP3 ADD SWAP1 POP PUSH1 0x20 DUP5 MUL DUP4 ADD DUP6 DUP2 GT ISZERO PUSH2 0xCEC JUMPI PUSH2 0xCEB PUSH2 0x608 JUMP JUMPDEST JUMPDEST DUP4 JUMPDEST DUP2 DUP2 LT ISZERO PUSH2 0xD33 JUMPI DUP1 CALLDATALOAD PUSH8 0xFFFFFFFFFFFFFFFF DUP2 GT ISZERO PUSH2 0xD11 JUMPI PUSH2 0xD10 PUSH2 0x600 JUMP JUMPDEST JUMPDEST DUP1 DUP7 ADD PUSH2 0xD1E DUP10 DUP3 PUSH2 0xC8A JUMP JUMPDEST DUP6 MSTORE PUSH1 0x20 DUP6 ADD SWAP5 POP POP POP PUSH1 0x20 DUP2 ADD SWAP1 POP PUSH2 0xCEE JUMP JUMPDEST POP POP POP SWAP4 SWAP3 POP POP POP JUMP JUMPDEST PUSH0 PUSH2 0xD49 CALLDATASIZE DUP5 DUP5 PUSH2 0xCB7 JUMP JUMPDEST SWAP1 POP SWAP3 SWAP2 POP POP JUMP INVALID LOG2 PUSH5 0x6970667358 0x22 SLT KECCAK256 0x2A 0x25 SIGNEXTEND TLOAD LOG2 DUP9 PUSH18 0xFB90AC840F017970381892A313CE59EFB84 MLOAD 0x26 0xDA CREATE 0xD6 TIMESTAMP PUSH27 0x64736F6C6343000822003300000000000000000000000000000000 "
				},
				"gasEstimates": {
					"creation": {
						"codeDepositCost": "692600",
						"executionCost": "726",
						"totalCost": "693326"
					},
					"external": {
						"MAX_INNER_LENGTH()": "347",
						"MAX_OUTER_LENGTH()": "370",
						"calculateNestedSum(uint256[][])": "infinite",
						"findLargestNumber(uint256[][])": "infinite",
						"getOuterLength(uint256[][])": "734",
						"processAndStore(uint256[][])": "infinite",
						"readNestedArray(uint256[][])": "infinite",
						"totalSum()": "2491"
					}
				},
				"methodIdentifiers": {
					"MAX_INNER_LENGTH()": "6f2dff4e",
					"MAX_OUTER_LENGTH()": "1a151fa2",
					"calculateNestedSum(uint256[][])": "71a7c188",
					"findLargestNumber(uint256[][])": "0db8dc4d",
					"getOuterLength(uint256[][])": "b6530583",
					"processAndStore(uint256[][])": "18f1024d",
					"readNestedArray(uint256[][])": "545f46c2",
					"totalSum()": "4869f99d"
				}
			},
			"storageLayout": {
				"storage": [
					{
						"astId": 137,
						"contract": "val34.sol:NestedCalldataArray",
						"label": "totalSum",
						"offset": 0,
						"slot": "0",
						"type": "t_uint256"
					}
				],
				"types": {
					"t_uint256": {
						"encoding": "inplace",
						"label": "uint256",
						"numberOfBytes": "32"
					}
				}
			},
			"userdoc": {
				"kind": "user",
				"methods": {},
				"version": 1
			}
		}
	}
}