{
	"val55.sol": {
		"ETHSenderval": {
			"abi": [
				{
					"inputs": [
						{
							"internalType": "address payable",
							"name": "_receiver",
							"type": "address"
						}
					],
					"stateMutability": "nonpayable",
					"type": "constructor"
				},
				{
					"inputs": [],
					"name": "lastSuccess",
					"outputs": [
						{
							"internalType": "bool",
							"name": "",
							"type": "bool"
						}
					],
					"stateMutability": "view",
					"type": "function"
				},
				{
					"inputs": [],
					"name": "receiver",
					"outputs": [
						{
							"internalType": "address payable",
							"name": "",
							"type": "address"
						}
					],
					"stateMutability": "view",
					"type": "function"
				},
				{
					"inputs": [],
					"name": "sendETH",
					"outputs": [],
					"stateMutability": "payable",
					"type": "function"
				}
			],
			"devdoc": {
				"kind": "dev",
				"methods": {},
				"version": 1
			},
			"evm": {
				"assembly": "    /* \"val55.sol\":3200:4200  contract ETHSenderval {... */\n  mstore(0x40, 0x80)\n    /* \"val55.sol\":3431:3516  constructor(address payable _receiver)... */\n  callvalue\n  dup1\n  iszero\n  tag_1\n  jumpi\n  revert(0x00, 0x00)\ntag_1:\n  pop\n  mload(0x40)\n  sub(codesize, bytecodeSize)\n  dup1\n  bytecodeSize\n  dup4\n  codecopy\n  dup2\n  dup2\n  add\n  0x40\n  mstore\n  dup2\n  add\n  swap1\n  tag_2\n  swap2\n  swap1\n  tag_3\n  jump\t// in\ntag_2:\n    /* \"val55.sol\":3499:3508  _receiver */\n  dup1\n    /* \"val55.sol\":3488:3496  receiver */\n  0x00\n  0x00\n    /* \"val55.sol\":3488:3508  receiver = _receiver */\n  0x0100\n  exp\n  dup2\n  sload\n  dup2\n  0xffffffffffffffffffffffffffffffffffffffff\n  mul\n  not\n  and\n  swap1\n  dup4\n  0xffffffffffffffffffffffffffffffffffffffff\n  and\n  mul\n  or\n  swap1\n  sstore\n  pop\n    /* \"val55.sol\":3431:3516  constructor(address payable _receiver)... */\n  pop\n    /* \"val55.sol\":3200:4200  contract ETHSenderval {... */\n  jump(tag_6)\n    /* \"#utility.yul\":88:205   */\ntag_8:\n    /* \"#utility.yul\":197:198   */\n  0x00\n    /* \"#utility.yul\":194:195   */\n  0x00\n    /* \"#utility.yul\":187:199   */\n  revert\n    /* \"#utility.yul\":334:460   */\ntag_10:\n    /* \"#utility.yul\":371:378   */\n  0x00\n    /* \"#utility.yul\":411:453   */\n  0xffffffffffffffffffffffffffffffffffffffff\n    /* \"#utility.yul\":404:409   */\n  dup3\n    /* \"#utility.yul\":400:454   */\n  and\n    /* \"#utility.yul\":389:454   */\n  swap1\n  pop\n    /* \"#utility.yul\":334:460   */\n  swap2\n  swap1\n  pop\n  jump\t// out\n    /* \"#utility.yul\":466:570   */\ntag_11:\n    /* \"#utility.yul\":511:518   */\n  0x00\n    /* \"#utility.yul\":540:564   */\n  tag_20\n    /* \"#utility.yul\":558:563   */\n  dup3\n    /* \"#utility.yul\":540:564   */\n  tag_10\n  jump\t// in\ntag_20:\n    /* \"#utility.yul\":529:564   */\n  swap1\n  pop\n    /* \"#utility.yul\":466:570   */\n  swap2\n  swap1\n  pop\n  jump\t// out\n    /* \"#utility.yul\":576:714   */\ntag_12:\n    /* \"#utility.yul\":657:689   */\n  tag_22\n    /* \"#utility.yul\":683:688   */\n  dup2\n    /* \"#utility.yul\":657:689   */\n  tag_11\n  jump\t// in\ntag_22:\n    /* \"#utility.yul\":650:655   */\n  dup2\n    /* \"#utility.yul\":647:690   */\n  eq\n    /* \"#utility.yul\":637:708   */\n  tag_23\n  jumpi\n    /* \"#utility.yul\":704:705   */\n  0x00\n    /* \"#utility.yul\":701:702   */\n  0x00\n    /* \"#utility.yul\":694:706   */\n  revert\n    /* \"#utility.yul\":637:708   */\ntag_23:\n    /* \"#utility.yul\":576:714   */\n  pop\n  jump\t// out\n    /* \"#utility.yul\":720:879   */\ntag_13:\n    /* \"#utility.yul\":785:790   */\n  0x00\n    /* \"#utility.yul\":816:822   */\n  dup2\n    /* \"#utility.yul\":810:823   */\n  mload\n    /* \"#utility.yul\":801:823   */\n  swap1\n  pop\n    /* \"#utility.yul\":832:873   */\n  tag_25\n    /* \"#utility.yul\":867:872   */\n  dup2\n    /* \"#utility.yul\":832:873   */\n  tag_12\n  jump\t// in\ntag_25:\n    /* \"#utility.yul\":720:879   */\n  swap3\n  swap2\n  pop\n  pop\n  jump\t// out\n    /* \"#utility.yul\":885:1252   */\ntag_3:\n    /* \"#utility.yul\":963:969   */\n  0x00\n    /* \"#utility.yul\":1012:1014   */\n  0x20\n    /* \"#utility.yul\":1000:1009   */\n  dup3\n    /* \"#utility.yul\":991:998   */\n  dup5\n    /* \"#utility.yul\":987:1010   */\n  sub\n    /* \"#utility.yul\":983:1015   */\n  slt\n    /* \"#utility.yul\":980:1099   */\n  iszero\n  tag_27\n  jumpi\n    /* \"#utility.yul\":1018:1097   */\n  tag_28\n  tag_8\n  jump\t// in\ntag_28:\n    /* \"#utility.yul\":980:1099   */\ntag_27:\n    /* \"#utility.yul\":1138:1139   */\n  0x00\n    /* \"#utility.yul\":1163:1235   */\n  tag_29\n    /* \"#utility.yul\":1227:1234   */\n  dup5\n    /* \"#utility.yul\":1218:1224   */\n  dup3\n    /* \"#utility.yul\":1207:1216   */\n  dup6\n    /* \"#utility.yul\":1203:1225   */\n  add\n    /* \"#utility.yul\":1163:1235   */\n  tag_13\n  jump\t// in\ntag_29:\n    /* \"#utility.yul\":1153:1235   */\n  swap2\n  pop\n    /* \"#utility.yul\":1109:1245   */\n  pop\n    /* \"#utility.yul\":885:1252   */\n  swap3\n  swap2\n  pop\n  pop\n  jump\t// out\n    /* \"val55.sol\":3200:4200  contract ETHSenderval {... */\ntag_6:\n  dataSize(sub_0)\n  dup1\n  dataOffset(sub_0)\n  0x00\n  codecopy\n  0x00\n  return\nstop\n\nsub_0: assembly {\n        /* \"val55.sol\":3200:4200  contract ETHSenderval {... */\n      mstore(0x40, 0x80)\n      jumpi(tag_1, lt(calldatasize, 0x04))\n      shr(0xe0, calldataload(0x00))\n      dup1\n      0x1d16d9a0\n      eq\n      tag_2\n      jumpi\n      dup1\n      0x9415bc59\n      eq\n      tag_3\n      jumpi\n      dup1\n      0xf7260d3e\n      eq\n      tag_4\n      jumpi\n    tag_1:\n      revert(0x00, 0x00)\n        /* \"val55.sol\":3674:4197  function sendETH()... */\n    tag_2:\n      tag_5\n      tag_6\n      jump\t// in\n    tag_5:\n      stop\n        /* \"val55.sol\":3362:3385  bool public lastSuccess */\n    tag_3:\n      callvalue\n      dup1\n      iszero\n      tag_7\n      jumpi\n      revert(0x00, 0x00)\n    tag_7:\n      pop\n      tag_8\n      tag_9\n      jump\t// in\n    tag_8:\n      mload(0x40)\n      tag_10\n      swap2\n      swap1\n      tag_11\n      jump\t// in\n    tag_10:\n      mload(0x40)\n      dup1\n      swap2\n      sub\n      swap1\n      return\n        /* \"val55.sol\":3279:3310  address payable public receiver */\n    tag_4:\n      callvalue\n      dup1\n      iszero\n      tag_12\n      jumpi\n      revert(0x00, 0x00)\n    tag_12:\n      pop\n      tag_13\n      tag_14\n      jump\t// in\n    tag_13:\n      mload(0x40)\n      tag_15\n      swap2\n      swap1\n      tag_16\n      jump\t// in\n    tag_15:\n      mload(0x40)\n      dup1\n      swap2\n      sub\n      swap1\n      return\n        /* \"val55.sol\":3674:4197  function sendETH()... */\n    tag_6:\n        /* \"val55.sol\":3867:3879  bool success */\n      0x00\n        /* \"val55.sol\":3898:3906  receiver */\n      0x00\n      0x00\n      swap1\n      sload\n      swap1\n      0x0100\n      exp\n      swap1\n      div\n      0xffffffffffffffffffffffffffffffffffffffff\n      and\n        /* \"val55.sol\":3898:3911  receiver.call */\n      0xffffffffffffffffffffffffffffffffffffffff\n      and\n        /* \"val55.sol\":3937:3946  msg.value */\n      callvalue\n        /* \"val55.sol\":3898:3965  receiver.call{... */\n      mload(0x40)\n      tag_18\n      swap1\n      tag_19\n      jump\t// in\n    tag_18:\n      0x00\n      mload(0x40)\n      dup1\n      dup4\n      sub\n      dup2\n      dup6\n      dup8\n      gas\n      call\n      swap3\n      pop\n      pop\n      pop\n      returndatasize\n      dup1\n      0x00\n      dup2\n      eq\n      tag_22\n      jumpi\n      mload(0x40)\n      swap2\n      pop\n      and(add(returndatasize, 0x3f), not(0x1f))\n      dup3\n      add\n      0x40\n      mstore\n      returndatasize\n      dup3\n      mstore\n      returndatasize\n      0x00\n      0x20\n      dup5\n      add\n      returndatacopy\n      jump(tag_21)\n    tag_22:\n      0x60\n      swap2\n      pop\n    tag_21:\n      pop\n        /* \"val55.sol\":3866:3965  (bool success, ) =... */\n      pop\n      swap1\n      pop\n        /* \"val55.sol\":4041:4048  success */\n      dup1\n        /* \"val55.sol\":4027:4038  lastSuccess */\n      0x00\n      0x14\n        /* \"val55.sol\":4027:4048  lastSuccess = success */\n      0x0100\n      exp\n      dup2\n      sload\n      dup2\n      0xff\n      mul\n      not\n      and\n      swap1\n      dup4\n      iszero\n      iszero\n      mul\n      or\n      swap1\n      sstore\n      pop\n        /* \"val55.sol\":4135:4142  success */\n      dup1\n        /* \"val55.sol\":4113:4189  require(... */\n      tag_23\n      jumpi\n      mload(0x40)\n      0x08c379a000000000000000000000000000000000000000000000000000000000\n      dup2\n      mstore\n      0x04\n      add\n      tag_24\n      swap1\n      tag_25\n      jump\t// in\n    tag_24:\n      mload(0x40)\n      dup1\n      swap2\n      sub\n      swap1\n      revert\n    tag_23:\n        /* \"val55.sol\":3733:4197  {... */\n      pop\n        /* \"val55.sol\":3674:4197  function sendETH()... */\n      jump\t// out\n        /* \"val55.sol\":3362:3385  bool public lastSuccess */\n    tag_9:\n      0x00\n      0x14\n      swap1\n      sload\n      swap1\n      0x0100\n      exp\n      swap1\n      div\n      0xff\n      and\n      dup2\n      jump\t// out\n        /* \"val55.sol\":3279:3310  address payable public receiver */\n    tag_14:\n      0x00\n      0x00\n      swap1\n      sload\n      swap1\n      0x0100\n      exp\n      swap1\n      div\n      0xffffffffffffffffffffffffffffffffffffffff\n      and\n      dup2\n      jump\t// out\n        /* \"#utility.yul\":7:97   */\n    tag_26:\n        /* \"#utility.yul\":41:48   */\n      0x00\n        /* \"#utility.yul\":84:89   */\n      dup2\n        /* \"#utility.yul\":77:90   */\n      iszero\n        /* \"#utility.yul\":70:91   */\n      iszero\n        /* \"#utility.yul\":59:91   */\n      swap1\n      pop\n        /* \"#utility.yul\":7:97   */\n      swap2\n      swap1\n      pop\n      jump\t// out\n        /* \"#utility.yul\":103:212   */\n    tag_27:\n        /* \"#utility.yul\":184:205   */\n      tag_40\n        /* \"#utility.yul\":199:204   */\n      dup2\n        /* \"#utility.yul\":184:205   */\n      tag_26\n      jump\t// in\n    tag_40:\n        /* \"#utility.yul\":179:182   */\n      dup3\n        /* \"#utility.yul\":172:206   */\n      mstore\n        /* \"#utility.yul\":103:212   */\n      pop\n      pop\n      jump\t// out\n        /* \"#utility.yul\":218:428   */\n    tag_11:\n        /* \"#utility.yul\":305:309   */\n      0x00\n        /* \"#utility.yul\":343:345   */\n      0x20\n        /* \"#utility.yul\":332:341   */\n      dup3\n        /* \"#utility.yul\":328:346   */\n      add\n        /* \"#utility.yul\":320:346   */\n      swap1\n      pop\n        /* \"#utility.yul\":356:421   */\n      tag_42\n        /* \"#utility.yul\":418:419   */\n      0x00\n        /* \"#utility.yul\":407:416   */\n      dup4\n        /* \"#utility.yul\":403:420   */\n      add\n        /* \"#utility.yul\":394:400   */\n      dup5\n        /* \"#utility.yul\":356:421   */\n      tag_27\n      jump\t// in\n    tag_42:\n        /* \"#utility.yul\":218:428   */\n      swap3\n      swap2\n      pop\n      pop\n      jump\t// out\n        /* \"#utility.yul\":434:560   */\n    tag_28:\n        /* \"#utility.yul\":471:478   */\n      0x00\n        /* \"#utility.yul\":511:553   */\n      0xffffffffffffffffffffffffffffffffffffffff\n        /* \"#utility.yul\":504:509   */\n      dup3\n        /* \"#utility.yul\":500:554   */\n      and\n        /* \"#utility.yul\":489:554   */\n      swap1\n      pop\n        /* \"#utility.yul\":434:560   */\n      swap2\n      swap1\n      pop\n      jump\t// out\n        /* \"#utility.yul\":566:670   */\n    tag_29:\n        /* \"#utility.yul\":611:618   */\n      0x00\n        /* \"#utility.yul\":640:664   */\n      tag_45\n        /* \"#utility.yul\":658:663   */\n      dup3\n        /* \"#utility.yul\":640:664   */\n      tag_28\n      jump\t// in\n    tag_45:\n        /* \"#utility.yul\":629:664   */\n      swap1\n      pop\n        /* \"#utility.yul\":566:670   */\n      swap2\n      swap1\n      pop\n      jump\t// out\n        /* \"#utility.yul\":676:818   */\n    tag_30:\n        /* \"#utility.yul\":779:811   */\n      tag_47\n        /* \"#utility.yul\":805:810   */\n      dup2\n        /* \"#utility.yul\":779:811   */\n      tag_29\n      jump\t// in\n    tag_47:\n        /* \"#utility.yul\":774:777   */\n      dup3\n        /* \"#utility.yul\":767:812   */\n      mstore\n        /* \"#utility.yul\":676:818   */\n      pop\n      pop\n      jump\t// out\n        /* \"#utility.yul\":824:1078   */\n    tag_16:\n        /* \"#utility.yul\":933:937   */\n      0x00\n        /* \"#utility.yul\":971:973   */\n      0x20\n        /* \"#utility.yul\":960:969   */\n      dup3\n        /* \"#utility.yul\":956:974   */\n      add\n        /* \"#utility.yul\":948:974   */\n      swap1\n      pop\n        /* \"#utility.yul\":984:1071   */\n      tag_49\n        /* \"#utility.yul\":1068:1069   */\n      0x00\n        /* \"#utility.yul\":1057:1066   */\n      dup4\n        /* \"#utility.yul\":1053:1070   */\n      add\n        /* \"#utility.yul\":1044:1050   */\n      dup5\n        /* \"#utility.yul\":984:1071   */\n      tag_30\n      jump\t// in\n    tag_49:\n        /* \"#utility.yul\":824:1078   */\n      swap3\n      swap2\n      pop\n      pop\n      jump\t// out\n        /* \"#utility.yul\":1084:1231   */\n    tag_31:\n        /* \"#utility.yul\":1185:1196   */\n      0x00\n        /* \"#utility.yul\":1222:1225   */\n      dup2\n        /* \"#utility.yul\":1207:1225   */\n      swap1\n      pop\n        /* \"#utility.yul\":1084:1231   */\n      swap3\n      swap2\n      pop\n      pop\n      jump\t// out\n        /* \"#utility.yul\":1237:1351   */\n    tag_32:\n      pop\n      jump\t// out\n        /* \"#utility.yul\":1357:1755   */\n    tag_33:\n        /* \"#utility.yul\":1516:1519   */\n      0x00\n        /* \"#utility.yul\":1537:1620   */\n      tag_53\n        /* \"#utility.yul\":1618:1619   */\n      0x00\n        /* \"#utility.yul\":1613:1616   */\n      dup4\n        /* \"#utility.yul\":1537:1620   */\n      tag_31\n      jump\t// in\n    tag_53:\n        /* \"#utility.yul\":1530:1620   */\n      swap2\n      pop\n        /* \"#utility.yul\":1629:1722   */\n      tag_54\n        /* \"#utility.yul\":1718:1721   */\n      dup3\n        /* \"#utility.yul\":1629:1722   */\n      tag_32\n      jump\t// in\n    tag_54:\n        /* \"#utility.yul\":1747:1748   */\n      0x00\n        /* \"#utility.yul\":1742:1745   */\n      dup3\n        /* \"#utility.yul\":1738:1749   */\n      add\n        /* \"#utility.yul\":1731:1749   */\n      swap1\n      pop\n        /* \"#utility.yul\":1357:1755   */\n      swap2\n      swap1\n      pop\n      jump\t// out\n        /* \"#utility.yul\":1761:2140   */\n    tag_19:\n        /* \"#utility.yul\":1945:1948   */\n      0x00\n        /* \"#utility.yul\":1967:2114   */\n      tag_56\n        /* \"#utility.yul\":2110:2113   */\n      dup3\n        /* \"#utility.yul\":1967:2114   */\n      tag_33\n      jump\t// in\n    tag_56:\n        /* \"#utility.yul\":1960:2114   */\n      swap2\n      pop\n        /* \"#utility.yul\":2131:2134   */\n      dup2\n        /* \"#utility.yul\":2124:2134   */\n      swap1\n      pop\n        /* \"#utility.yul\":1761:2140   */\n      swap2\n      swap1\n      pop\n      jump\t// out\n        /* \"#utility.yul\":2146:2315   */\n    tag_34:\n        /* \"#utility.yul\":2230:2241   */\n      0x00\n        /* \"#utility.yul\":2264:2270   */\n      dup3\n        /* \"#utility.yul\":2259:2262   */\n      dup3\n        /* \"#utility.yul\":2252:2271   */\n      mstore\n        /* \"#utility.yul\":2304:2308   */\n      0x20\n        /* \"#utility.yul\":2299:2302   */\n      dup3\n        /* \"#utility.yul\":2295:2309   */\n      add\n        /* \"#utility.yul\":2280:2309   */\n      swap1\n      pop\n        /* \"#utility.yul\":2146:2315   */\n      swap3\n      swap2\n      pop\n      pop\n      jump\t// out\n        /* \"#utility.yul\":2321:2490   */\n    tag_35:\n        /* \"#utility.yul\":2461:2482   */\n      0x455448207472616e73666572206661696c656400000000000000000000000000\n        /* \"#utility.yul\":2457:2458   */\n      0x00\n        /* \"#utility.yul\":2449:2455   */\n      dup3\n        /* \"#utility.yul\":2445:2459   */\n      add\n        /* \"#utility.yul\":2438:2483   */\n      mstore\n        /* \"#utility.yul\":2321:2490   */\n      pop\n      jump\t// out\n        /* \"#utility.yul\":2496:2862   */\n    tag_36:\n        /* \"#utility.yul\":2638:2641   */\n      0x00\n        /* \"#utility.yul\":2659:2726   */\n      tag_60\n        /* \"#utility.yul\":2723:2725   */\n      0x13\n        /* \"#utility.yul\":2718:2721   */\n      dup4\n        /* \"#utility.yul\":2659:2726   */\n      tag_34\n      jump\t// in\n    tag_60:\n        /* \"#utility.yul\":2652:2726   */\n      swap2\n      pop\n        /* \"#utility.yul\":2735:2828   */\n      tag_61\n        /* \"#utility.yul\":2824:2827   */\n      dup3\n        /* \"#utility.yul\":2735:2828   */\n      tag_35\n      jump\t// in\n    tag_61:\n        /* \"#utility.yul\":2853:2855   */\n      0x20\n        /* \"#utility.yul\":2848:2851   */\n      dup3\n        /* \"#utility.yul\":2844:2856   */\n      add\n        /* \"#utility.yul\":2837:2856   */\n      swap1\n      pop\n        /* \"#utility.yul\":2496:2862   */\n      swap2\n      swap1\n      pop\n      jump\t// out\n        /* \"#utility.yul\":2868:3287   */\n    tag_25:\n        /* \"#utility.yul\":3034:3038   */\n      0x00\n        /* \"#utility.yul\":3072:3074   */\n      0x20\n        /* \"#utility.yul\":3061:3070   */\n      dup3\n        /* \"#utility.yul\":3057:3075   */\n      add\n        /* \"#utility.yul\":3049:3075   */\n      swap1\n      pop\n        /* \"#utility.yul\":3121:3130   */\n      dup2\n        /* \"#utility.yul\":3115:3119   */\n      dup2\n        /* \"#utility.yul\":3111:3131   */\n      sub\n        /* \"#utility.yul\":3107:3108   */\n      0x00\n        /* \"#utility.yul\":3096:3105   */\n      dup4\n        /* \"#utility.yul\":3092:3109   */\n      add\n        /* \"#utility.yul\":3085:3132   */\n      mstore\n        /* \"#utility.yul\":3149:3280   */\n      tag_63\n        /* \"#utility.yul\":3275:3279   */\n      dup2\n        /* \"#utility.yul\":3149:3280   */\n      tag_36\n      jump\t// in\n    tag_63:\n        /* \"#utility.yul\":3141:3280   */\n      swap1\n      pop\n        /* \"#utility.yul\":2868:3287   */\n      swap2\n      swap1\n      pop\n      jump\t// out\n\n    auxdata: 0xa2646970667358221220652c29f83d509da482dba47c2481978866ade28899ac30ebbacede80e573f89a64736f6c63430008220033\n}\n",
				"bytecode": {
					"linkReferences": {},
					"object": "608060405234801561000f575f5ffd5b50604051610435380380610435833981810160405281019061003191906100d4565b805f5f6101000a81548173ffffffffffffffffffffffffffffffffffffffff021916908373ffffffffffffffffffffffffffffffffffffffff160217905550506100ff565b5f5ffd5b5f73ffffffffffffffffffffffffffffffffffffffff82169050919050565b5f6100a38261007a565b9050919050565b6100b381610099565b81146100bd575f5ffd5b50565b5f815190506100ce816100aa565b92915050565b5f602082840312156100e9576100e8610076565b5b5f6100f6848285016100c0565b91505092915050565b6103298061010c5f395ff3fe608060405260043610610033575f3560e01c80631d16d9a0146100375780639415bc5914610041578063f7260d3e1461006b575b5f5ffd5b61003f610095565b005b34801561004c575f5ffd5b50610055610179565b60405161006291906101c9565b60405180910390f35b348015610076575f5ffd5b5061007f61018b565b60405161008c9190610221565b60405180910390f35b5f5f5f9054906101000a900473ffffffffffffffffffffffffffffffffffffffff1673ffffffffffffffffffffffffffffffffffffffff16346040516100da90610267565b5f6040518083038185875af1925050503d805f8114610114576040519150601f19603f3d011682016040523d82523d5f602084013e610119565b606091505b50509050805f60146101000a81548160ff02191690831515021790555080610176576040517f08c379a000000000000000000000000000000000000000000000000000000000815260040161016d906102d5565b60405180910390fd5b50565b5f60149054906101000a900460ff1681565b5f5f9054906101000a900473ffffffffffffffffffffffffffffffffffffffff1681565b5f8115159050919050565b6101c3816101af565b82525050565b5f6020820190506101dc5f8301846101ba565b92915050565b5f73ffffffffffffffffffffffffffffffffffffffff82169050919050565b5f61020b826101e2565b9050919050565b61021b81610201565b82525050565b5f6020820190506102345f830184610212565b92915050565b5f81905092915050565b50565b5f6102525f8361023a565b915061025d82610244565b5f82019050919050565b5f61027182610247565b9150819050919050565b5f82825260208201905092915050565b7f455448207472616e73666572206661696c6564000000000000000000000000005f82015250565b5f6102bf60138361027b565b91506102ca8261028b565b602082019050919050565b5f6020820190508181035f8301526102ec816102b3565b905091905056fea2646970667358221220652c29f83d509da482dba47c2481978866ade28899ac30ebbacede80e573f89a64736f6c63430008220033",
					"opcodes": "PUSH1 0x80 PUSH1 0x40 MSTORE CALLVALUE DUP1 ISZERO PUSH2 0xF JUMPI PUSH0 PUSH0 REVERT JUMPDEST POP PUSH1 0x40 MLOAD PUSH2 0x435 CODESIZE SUB DUP1 PUSH2 0x435 DUP4 CODECOPY DUP2 DUP2 ADD PUSH1 0x40 MSTORE DUP2 ADD SWAP1 PUSH2 0x31 SWAP2 SWAP1 PUSH2 0xD4 JUMP JUMPDEST DUP1 PUSH0 PUSH0 PUSH2 0x100 EXP DUP2 SLOAD DUP2 PUSH20 0xFFFFFFFFFFFFFFFFFFFFFFFFFFFFFFFFFFFFFFFF MUL NOT AND SWAP1 DUP4 PUSH20 0xFFFFFFFFFFFFFFFFFFFFFFFFFFFFFFFFFFFFFFFF AND MUL OR SWAP1 SSTORE POP POP PUSH2 0xFF JUMP JUMPDEST PUSH0 PUSH0 REVERT JUMPDEST PUSH0 PUSH20 0xFFFFFFFFFFFFFFFFFFFFFFFFFFFFFFFFFFFFFFFF DUP3 AND SWAP1 POP SWAP2 SWAP1 POP JUMP JUMPDEST PUSH0 PUSH2 0xA3 DUP3 PUSH2 0x7A JUMP JUMPDEST SWAP1 POP SWAP2 SWAP1 POP JUMP JUMPDEST PUSH2 0xB3 DUP2 PUSH2 0x99 JUMP JUMPDEST DUP2 EQ PUSH2 0xBD JUMPI PUSH0 PUSH0 REVERT JUMPDEST POP JUMP JUMPDEST PUSH0 DUP2 MLOAD SWAP1 POP PUSH2 0xCE DUP2 PUSH2 0xAA JUMP JUMPDEST SWAP3 SWAP2 POP POP JUMP JUMPDEST PUSH0 PUSH1 0x20 DUP3 DUP5 SUB SLT ISZERO PUSH2 0xE9 JUMPI PUSH2 0xE8 PUSH2 0x76 JUMP JUMPDEST JUMPDEST PUSH0 PUSH2 0xF6 DUP5 DUP3 DUP6 ADD PUSH2 0xC0 JUMP JUMPDEST SWAP2 POP POP SWAP3 SWAP2 POP POP JUMP JUMPDEST PUSH2 0x329 DUP1 PUSH2 0x10C PUSH0 CODECOPY PUSH0 RETURN INVALID PUSH1 0x80 PUSH1 0x40 MSTORE PUSH1 0x4 CALLDATASIZE LT PUSH2 0x33 JUMPI PUSH0 CALLDATALOAD PUSH1 0xE0 SHR DUP1 PUSH4 0x1D16D9A0 EQ PUSH2 0x37 JUMPI DUP1 PUSH4 0x9415BC59 EQ PUSH2 0x41 JUMPI DUP1 PUSH4 0xF7260D3E EQ PUSH2 0x6B JUMPI JUMPDEST PUSH0 PUSH0 REVERT JUMPDEST PUSH2 0x3F PUSH2 0x95 JUMP JUMPDEST STOP JUMPDEST CALLVALUE DUP1 ISZERO PUSH2 0x4C JUMPI PUSH0 PUSH0 REVERT JUMPDEST POP PUSH2 0x55 PUSH2 0x179 JUMP JUMPDEST PUSH1 0x40 MLOAD PUSH2 0x62 SWAP2 SWAP1 PUSH2 0x1C9 JUMP JUMPDEST PUSH1 0x40 MLOAD DUP1 SWAP2 SUB SWAP1 RETURN JUMPDEST CALLVALUE DUP1 ISZERO PUSH2 0x76 JUMPI PUSH0 PUSH0 REVERT JUMPDEST POP PUSH2 0x7F PUSH2 0x18B JUMP JUMPDEST PUSH1 0x40 MLOAD PUSH2 0x8C SWAP2 SWAP1 PUSH2 0x221 JUMP JUMPDEST PUSH1 0x40 MLOAD DUP1 SWAP2 SUB SWAP1 RETURN JUMPDEST PUSH0 PUSH0 PUSH0 SWAP1 SLOAD SWAP1 PUSH2 0x100 EXP SWAP1 DIV PUSH20 0xFFFFFFFFFFFFFFFFFFFFFFFFFFFFFFFFFFFFFFFF AND PUSH20 0xFFFFFFFFFFFFFFFFFFFFFFFFFFFFFFFFFFFFFFFF AND CALLVALUE PUSH1 0x40 MLOAD PUSH2 0xDA SWAP1 PUSH2 0x267 JUMP JUMPDEST PUSH0 PUSH1 0x40 MLOAD DUP1 DUP4 SUB DUP2 DUP6 DUP8 GAS CALL SWAP3 POP POP POP RETURNDATASIZE DUP1 PUSH0 DUP2 EQ PUSH2 0x114 JUMPI PUSH1 0x40 MLOAD SWAP2 POP PUSH1 0x1F NOT PUSH1 0x3F RETURNDATASIZE ADD AND DUP3 ADD PUSH1 0x40 MSTORE RETURNDATASIZE DUP3 MSTORE RETURNDATASIZE PUSH0 PUSH1 0x20 DUP5 ADD RETURNDATACOPY PUSH2 0x119 JUMP JUMPDEST PUSH1 0x60 SWAP2 POP JUMPDEST POP POP SWAP1 POP DUP1 PUSH0 PUSH1 0x14 PUSH2 0x100 EXP DUP2 SLOAD DUP2 PUSH1 0xFF MUL NOT AND SWAP1 DUP4 ISZERO ISZERO MUL OR SWAP1 SSTORE POP DUP1 PUSH2 0x176 JUMPI PUSH1 0x40 MLOAD PUSH32 0x8C379A000000000000000000000000000000000000000000000000000000000 DUP2 MSTORE PUSH1 0x4 ADD PUSH2 0x16D SWAP1 PUSH2 0x2D5 JUMP JUMPDEST PUSH1 0x40 MLOAD DUP1 SWAP2 SUB SWAP1 REVERT JUMPDEST POP JUMP JUMPDEST PUSH0 PUSH1 0x14 SWAP1 SLOAD SWAP1 PUSH2 0x100 EXP SWAP1 DIV PUSH1 0xFF AND DUP2 JUMP JUMPDEST PUSH0 PUSH0 SWAP1 SLOAD SWAP1 PUSH2 0x100 EXP SWAP1 DIV PUSH20 0xFFFFFFFFFFFFFFFFFFFFFFFFFFFFFFFFFFFFFFFF AND DUP2 JUMP JUMPDEST PUSH0 DUP2 ISZERO ISZERO SWAP1 POP SWAP2 SWAP1 POP JUMP JUMPDEST PUSH2 0x1C3 DUP2 PUSH2 0x1AF JUMP JUMPDEST DUP3 MSTORE POP POP JUMP JUMPDEST PUSH0 PUSH1 0x20 DUP3 ADD SWAP1 POP PUSH2 0x1DC PUSH0 DUP4 ADD DUP5 PUSH2 0x1BA JUMP JUMPDEST SWAP3 SWAP2 POP POP JUMP JUMPDEST PUSH0 PUSH20 0xFFFFFFFFFFFFFFFFFFFFFFFFFFFFFFFFFFFFFFFF DUP3 AND SWAP1 POP SWAP2 SWAP1 POP JUMP JUMPDEST PUSH0 PUSH2 0x20B DUP3 PUSH2 0x1E2 JUMP JUMPDEST SWAP1 POP SWAP2 SWAP1 POP JUMP JUMPDEST PUSH2 0x21B DUP2 PUSH2 0x201 JUMP JUMPDEST DUP3 MSTORE POP POP JUMP JUMPDEST PUSH0 PUSH1 0x20 DUP3 ADD SWAP1 POP PUSH2 0x234 PUSH0 DUP4 ADD DUP5 PUSH2 0x212 JUMP JUMPDEST SWAP3 SWAP2 POP POP JUMP JUMPDEST PUSH0 DUP2 SWAP1 POP SWAP3 SWAP2 POP POP JUMP JUMPDEST POP JUMP JUMPDEST PUSH0 PUSH2 0x252 PUSH0 DUP4 PUSH2 0x23A JUMP JUMPDEST SWAP2 POP PUSH2 0x25D DUP3 PUSH2 0x244 JUMP JUMPDEST PUSH0 DUP3 ADD SWAP1 POP SWAP2 SWAP1 POP JUMP JUMPDEST PUSH0 PUSH2 0x271 DUP3 PUSH2 0x247 JUMP JUMPDEST SWAP2 POP DUP2 SWAP1 POP SWAP2 SWAP1 POP JUMP JUMPDEST PUSH0 DUP3 DUP3 MSTORE PUSH1 0x20 DUP3 ADD SWAP1 POP SWAP3 SWAP2 POP POP JUMP JUMPDEST PUSH32 0x455448207472616E73666572206661696C656400000000000000000000000000 PUSH0 DUP3 ADD MSTORE POP JUMP JUMPDEST PUSH0 PUSH2 0x2BF PUSH1 0x13 DUP4 PUSH2 0x27B JUMP JUMPDEST SWAP2 POP PUSH2 0x2CA DUP3 PUSH2 0x28B JUMP JUMPDEST PUSH1 0x20 DUP3 ADD SWAP1 POP SWAP2 SWAP1 POP JUMP JUMPDEST PUSH0 PUSH1 0x20 DUP3 ADD SWAP1 POP DUP2 DUP2 SUB PUSH0 DUP4 ADD MSTORE PUSH2 0x2EC DUP2 PUSH2 0x2B3 JUMP JUMPDEST SWAP1 POP SWAP2 SWAP1 POP JUMP INVALID LOG2 PUSH5 0x6970667358 0x22 SLT KECCAK256 PUSH6 0x2C29F83D509D LOG4 DUP3 0xDB LOG4 PUSH29 0x2481978866ADE28899AC30EBBACEDE80E573F89A64736F6C6343000822 STOP CALLER "
				},
				"gasEstimates": {
					"creation": {
						"codeDepositCost": "161800",
						"executionCost": "infinite",
						"totalCost": "infinite"
					},
					"external": {
						"lastSuccess()": "2516",
						"receiver()": "2529",
						"sendETH()": "infinite"
					}
				},
				"methodIdentifiers": {
					"lastSuccess()": "9415bc59",
					"receiver()": "f7260d3e",
					"sendETH()": "1d16d9a0"
				}
			},
			"storageLayout": {
				"storage": [
					{
						"astId": 39,
						"contract": "val55.sol:ETHSenderval",
						"label": "receiver",
						"offset": 0,
						"slot": "0",
						"type": "t_address_payable"
					},
					{
						"astId": 41,
						"contract": "val55.sol:ETHSenderval",
						"label": "lastSuccess",
						"offset": 20,
						"slot": "0",
						"type": "t_bool"
					}
				],
				"types": {
					"t_address_payable": {
						"encoding": "inplace",
						"label": "address payable",
						"numberOfBytes": "20"
					},
					"t_bool": {
						"encoding": "inplace",
						"label": "bool",
						"numberOfBytes": "1"
					}
				}
			},
			"userdoc": {
				"kind": "user",
				"methods": {},
				"version": 1
			}
		}
	}
}