{
	"val55.sol": {
		"ETHReceiver": {
			"abi": [
				{
					"inputs": [],
					"stateMutability": "nonpayable",
					"type": "constructor"
				},
				{
					"anonymous": false,
					"inputs": [
						{
							"indexed": true,
							"internalType": "address",
							"name": "sender",
							"type": "address"
						},
						{
							"indexed": false,
							"internalType": "uint256",
							"name": "amount",
							"type": "uint256"
						},
						{
							"indexed": false,
							"internalType": "bytes",
							"name": "data",
							"type": "bytes"
						}
					],
					"name": "FallbackExecuted",
					"type": "event"
				},
				{
					"anonymous": false,
					"inputs": [
						{
							"indexed": true,
							"internalType": "address",
							"name": "sender",
							"type": "address"
						},
						{
							"indexed": false,
							"internalType": "uint256",
							"name": "",
							"type": "uint256"
						}
					],
					"name": "ReceiveExecuted",
					"type": "event"
				},
				{
					"anonymous": false,
					"inputs": [
						{
							"indexed": true,
							"internalType": "address",
							"name": "receiver",
							"type": "address"
						},
						{
							"indexed": false,
							"internalType": "uint256",
							"name": "amount",
							"type": "uint256"
						}
					],
					"name": "WithdrawalExecuted",
					"type": "event"
				},
				{
					"stateMutability": "payable",
					"type": "fallback"
				},
				{
					"inputs": [],
					"name": "contractBalance",
					"outputs": [
						{
							"internalType": "uint256",
							"name": "",
							"type": "uint256"
						}
					],
					"stateMutability": "view",
					"type": "function"
				},
				{
					"inputs": [],
					"name": "fallbackCounter",
					"outputs": [
						{
							"internalType": "uint256",
							"name": "",
							"type": "uint256"
						}
					],
					"stateMutability": "view",
					"type": "function"
				},
				{
					"inputs": [],
					"name": "lastSender",
					"outputs": [
						{
							"internalType": "address",
							"name": "",
							"type": "address"
						}
					],
					"stateMutability": "view",
					"type": "function"
				},
				{
					"inputs": [],
					"name": "owner",
					"outputs": [
						{
							"internalType": "address",
							"name": "",
							"type": "address"
						}
					],
					"stateMutability": "view",
					"type": "function"
				},
				{
					"inputs": [],
					"name": "receiveCounter",
					"outputs": [
						{
							"internalType": "uint256",
							"name": "",
							"type": "uint256"
						}
					],
					"stateMutability": "view",
					"type": "function"
				},
				{
					"inputs": [],
					"name": "totalReceived",
					"outputs": [
						{
							"internalType": "uint256",
							"name": "",
							"type": "uint256"
						}
					],
					"stateMutability": "view",
					"type": "function"
				},
				{
					"inputs": [
						{
							"internalType": "uint256",
							"name": "_amount",
							"type": "uint256"
						}
					],
					"name": "withdraw",
					"outputs": [],
					"stateMutability": "nonpayable",
					"type": "function"
				},
				{
					"stateMutability": "payable",
					"type": "receive"
				}
			],
			"devdoc": {
				"kind": "dev",
				"methods": {},
				"version": 1
			},
			"evm": {
				"assembly": "    /* \"val55.sol\":14760:17239  contract ETHReceiver {... */\n  mstore(0x40, 0x80)\n    /* \"val55.sol\":15414:15470  constructor()... */\n  callvalue\n  dup1\n  iszero\n  tag_1\n  jumpi\n  revert(0x00, 0x00)\ntag_1:\n  pop\n    /* \"val55.sol\":15452:15462  msg.sender */\n  caller\n    /* \"val55.sol\":15444:15449  owner */\n  0x04\n  0x00\n    /* \"val55.sol\":15444:15462  owner = msg.sender */\n  0x0100\n  exp\n  dup2\n  sload\n  dup2\n  0xffffffffffffffffffffffffffffffffffffffff\n  mul\n  not\n  and\n  swap1\n  dup4\n  0xffffffffffffffffffffffffffffffffffffffff\n  and\n  mul\n  or\n  swap1\n  sstore\n  pop\n    /* \"val55.sol\":14760:17239  contract ETHReceiver {... */\n  dataSize(sub_0)\n  dup1\n  dataOffset(sub_0)\n  0x00\n  codecopy\n  0x00\n  return\nstop\n\nsub_0: assembly {\n        /* \"val55.sol\":14760:17239  contract ETHReceiver {... */\n      mstore(0x40, 0x80)\n      jumpi(tag_1, lt(calldatasize, 0x04))\n      shr(0xe0, calldataload(0x00))\n      dup1\n      0x8da5cb5b\n      gt\n      tag_10\n      jumpi\n      dup1\n      0x8da5cb5b\n      eq\n      tag_6\n      jumpi\n      dup1\n      0xa170d737\n      eq\n      tag_7\n      jumpi\n      dup1\n      0xa3c2c462\n      eq\n      tag_8\n      jumpi\n      dup1\n      0xc3ca5ffe\n      eq\n      tag_9\n      jumpi\n      jump(tag_2)\n    tag_10:\n      dup1\n      0x256fec88\n      eq\n      tag_3\n      jumpi\n      dup1\n      0x2e1a7d4d\n      eq\n      tag_4\n      jumpi\n      dup1\n      0x8b7afe2e\n      eq\n      tag_5\n      jumpi\n      jump(tag_2)\n    tag_1:\n      jumpi(tag_2, calldatasize)\n        /* \"val55.sol\":15868:15878  msg.sender */\n      caller\n        /* \"val55.sol\":15855:15865  lastSender */\n      0x01\n      0x00\n        /* \"val55.sol\":15855:15878  lastSender = msg.sender */\n      0x0100\n      exp\n      dup2\n      sload\n      dup2\n      0xffffffffffffffffffffffffffffffffffffffff\n      mul\n      not\n      and\n      swap1\n      dup4\n      0xffffffffffffffffffffffffffffffffffffffff\n      and\n      mul\n      or\n      swap1\n      sstore\n      pop\n        /* \"val55.sol\":15989:15998  msg.value */\n      callvalue\n        /* \"val55.sol\":15972:15985  totalReceived */\n      0x00\n      0x00\n        /* \"val55.sol\":15972:15998  totalReceived += msg.value */\n      dup3\n      dup3\n      sload\n      tag_13\n      swap2\n      swap1\n      tag_14\n      jump\t// in\n    tag_13:\n      swap3\n      pop\n      pop\n      dup2\n      swap1\n      sstore\n      pop\n        /* \"val55.sol\":16073:16087  receiveCounter */\n      0x02\n      0x00\n        /* \"val55.sol\":16073:16089  receiveCounter++ */\n      dup2\n      sload\n      dup1\n      swap3\n      swap2\n      swap1\n      tag_15\n      swap1\n      tag_16\n      jump\t// in\n    tag_15:\n      swap2\n      swap1\n      pop\n      sstore\n      pop\n        /* \"val55.sol\":16123:16133  msg.sender */\n      caller\n        /* \"val55.sol\":16107:16145  ReceiveExecuted(msg.sender, msg.value) */\n      0xffffffffffffffffffffffffffffffffffffffff\n      and\n      0xe782884e1d82c4de79e0b14ad0bd0c07bb01bda66e4be33e9bc0096fb59a11a2\n        /* \"val55.sol\":16135:16144  msg.value */\n      callvalue\n        /* \"val55.sol\":16107:16145  ReceiveExecuted(msg.sender, msg.value) */\n      mload(0x40)\n      tag_17\n      swap2\n      swap1\n      tag_18\n      jump\t// in\n    tag_17:\n      mload(0x40)\n      dup1\n      swap2\n      sub\n      swap1\n      log2\n        /* \"val55.sol\":14760:17239  contract ETHReceiver {... */\n      stop\n    tag_2:\n        /* \"val55.sol\":16333:16343  msg.sender */\n      caller\n        /* \"val55.sol\":16320:16330  lastSender */\n      0x01\n      0x00\n        /* \"val55.sol\":16320:16343  lastSender = msg.sender */\n      0x0100\n      exp\n      dup2\n      sload\n      dup2\n      0xffffffffffffffffffffffffffffffffffffffff\n      mul\n      not\n      and\n      swap1\n      dup4\n      0xffffffffffffffffffffffffffffffffffffffff\n      and\n      mul\n      or\n      swap1\n      sstore\n      pop\n        /* \"val55.sol\":16373:16382  msg.value */\n      callvalue\n        /* \"val55.sol\":16356:16369  totalReceived */\n      0x00\n      0x00\n        /* \"val55.sol\":16356:16382  totalReceived += msg.value */\n      dup3\n      dup3\n      sload\n      tag_21\n      swap2\n      swap1\n      tag_14\n      jump\t// in\n    tag_21:\n      swap3\n      pop\n      pop\n      dup2\n      swap1\n      sstore\n      pop\n        /* \"val55.sol\":16395:16410  fallbackCounter */\n      0x03\n      0x00\n        /* \"val55.sol\":16395:16412  fallbackCounter++ */\n      dup2\n      sload\n      dup1\n      swap3\n      swap2\n      swap1\n      tag_22\n      swap1\n      tag_16\n      jump\t// in\n    tag_22:\n      swap2\n      swap1\n      pop\n      sstore\n      pop\n        /* \"val55.sol\":16447:16457  msg.sender */\n      caller\n        /* \"val55.sol\":16430:16479  FallbackExecuted(msg.sender, msg.value, msg.data) */\n      0xffffffffffffffffffffffffffffffffffffffff\n      and\n      0x2087642f508df0bba22bccd980242c5ea3ccef54a9fe18eda4632f3f9de91fbc\n        /* \"val55.sol\":16459:16468  msg.value */\n      callvalue\n        /* \"val55.sol\":16470:16478  msg.data */\n      0x00\n      calldatasize\n        /* \"val55.sol\":16430:16479  FallbackExecuted(msg.sender, msg.value, msg.data) */\n      mload(0x40)\n      tag_23\n      swap4\n      swap3\n      swap2\n      swap1\n      tag_24\n      jump\t// in\n    tag_23:\n      mload(0x40)\n      dup1\n      swap2\n      sub\n      swap1\n      log2\n        /* \"val55.sol\":14760:17239  contract ETHReceiver {... */\n      stop\n        /* \"val55.sol\":14920:14945  address public lastSender */\n    tag_3:\n      callvalue\n      dup1\n      iszero\n      tag_25\n      jumpi\n      revert(0x00, 0x00)\n    tag_25:\n      pop\n      tag_26\n      tag_27\n      jump\t// in\n    tag_26:\n      mload(0x40)\n      tag_28\n      swap2\n      swap1\n      tag_29\n      jump\t// in\n    tag_28:\n      mload(0x40)\n      dup1\n      swap2\n      sub\n      swap1\n      return\n        /* \"val55.sol\":16516:16922  function withdraw(uint256 _amount) external ... */\n    tag_4:\n      callvalue\n      dup1\n      iszero\n      tag_30\n      jumpi\n      revert(0x00, 0x00)\n    tag_30:\n      pop\n      tag_31\n      0x04\n      dup1\n      calldatasize\n      sub\n      dup2\n      add\n      swap1\n      tag_32\n      swap2\n      swap1\n      tag_33\n      jump\t// in\n    tag_32:\n      tag_34\n      jump\t// in\n    tag_31:\n      stop\n        /* \"val55.sol\":17096:17236  function contractBalance()... */\n    tag_5:\n      callvalue\n      dup1\n      iszero\n      tag_35\n      jumpi\n      revert(0x00, 0x00)\n    tag_35:\n      pop\n      tag_36\n      tag_37\n      jump\t// in\n    tag_36:\n      mload(0x40)\n      tag_38\n      swap2\n      swap1\n      tag_18\n      jump\t// in\n    tag_38:\n      mload(0x40)\n      dup1\n      swap2\n      sub\n      swap1\n      return\n        /* \"val55.sol\":15129:15149  address public owner */\n    tag_6:\n      callvalue\n      dup1\n      iszero\n      tag_39\n      jumpi\n      revert(0x00, 0x00)\n    tag_39:\n      pop\n      tag_40\n      tag_41\n      jump\t// in\n    tag_40:\n      mload(0x40)\n      tag_42\n      swap2\n      swap1\n      tag_29\n      jump\t// in\n    tag_42:\n      mload(0x40)\n      dup1\n      swap2\n      sub\n      swap1\n      return\n        /* \"val55.sol\":15076:15106  uint256 public fallbackCounter */\n    tag_7:\n      callvalue\n      dup1\n      iszero\n      tag_43\n      jumpi\n      revert(0x00, 0x00)\n    tag_43:\n      pop\n      tag_44\n      tag_45\n      jump\t// in\n    tag_44:\n      mload(0x40)\n      tag_46\n      swap2\n      swap1\n      tag_18\n      jump\t// in\n    tag_46:\n      mload(0x40)\n      dup1\n      swap2\n      sub\n      swap1\n      return\n        /* \"val55.sol\":14840:14868  uint256 public totalReceived */\n    tag_8:\n      callvalue\n      dup1\n      iszero\n      tag_47\n      jumpi\n      revert(0x00, 0x00)\n    tag_47:\n      pop\n      tag_48\n      tag_49\n      jump\t// in\n    tag_48:\n      mload(0x40)\n      tag_50\n      swap2\n      swap1\n      tag_18\n      jump\t// in\n    tag_50:\n      mload(0x40)\n      dup1\n      swap2\n      sub\n      swap1\n      return\n        /* \"val55.sol\":15004:15033  uint256 public receiveCounter */\n    tag_9:\n      callvalue\n      dup1\n      iszero\n      tag_51\n      jumpi\n      revert(0x00, 0x00)\n    tag_51:\n      pop\n      tag_52\n      tag_53\n      jump\t// in\n    tag_52:\n      mload(0x40)\n      tag_54\n      swap2\n      swap1\n      tag_18\n      jump\t// in\n    tag_54:\n      mload(0x40)\n      dup1\n      swap2\n      sub\n      swap1\n      return\n        /* \"val55.sol\":14920:14945  address public lastSender */\n    tag_27:\n      0x01\n      0x00\n      swap1\n      sload\n      swap1\n      0x0100\n      exp\n      swap1\n      div\n      0xffffffffffffffffffffffffffffffffffffffff\n      and\n      dup2\n      jump\t// out\n        /* \"val55.sol\":16516:16922  function withdraw(uint256 _amount) external ... */\n    tag_34:\n        /* \"val55.sol\":16599:16604  owner */\n      0x04\n      0x00\n      swap1\n      sload\n      swap1\n      0x0100\n      exp\n      swap1\n      div\n      0xffffffffffffffffffffffffffffffffffffffff\n      and\n        /* \"val55.sol\":16585:16604  msg.sender == owner */\n      0xffffffffffffffffffffffffffffffffffffffff\n      and\n        /* \"val55.sol\":16585:16595  msg.sender */\n      caller\n        /* \"val55.sol\":16585:16604  msg.sender == owner */\n      0xffffffffffffffffffffffffffffffffffffffff\n      and\n      eq\n        /* \"val55.sol\":16577:16622  require(msg.sender == owner, \"Not the owner\") */\n      tag_56\n      jumpi\n      mload(0x40)\n      0x08c379a000000000000000000000000000000000000000000000000000000000\n      dup2\n      mstore\n      0x04\n      add\n      tag_57\n      swap1\n      tag_58\n      jump\t// in\n    tag_57:\n      mload(0x40)\n      dup1\n      swap2\n      sub\n      swap1\n      revert\n    tag_56:\n        /* \"val55.sol\":16668:16675  _amount */\n      dup1\n        /* \"val55.sol\":16643:16664  address(this).balance */\n      selfbalance\n        /* \"val55.sol\":16643:16675  address(this).balance >= _amount */\n      lt\n      iszero\n        /* \"val55.sol\":16635:16709  require(address(this).balance >= _amount, \"Insufficient contract balance\") */\n      tag_59\n      jumpi\n      mload(0x40)\n      0x08c379a000000000000000000000000000000000000000000000000000000000\n      dup2\n      mstore\n      0x04\n      add\n      tag_60\n      swap1\n      tag_61\n      jump\t// in\n    tag_60:\n      mload(0x40)\n      dup1\n      swap2\n      sub\n      swap1\n      revert\n    tag_59:\n        /* \"val55.sol\":16723:16735  bool success */\n      0x00\n        /* \"val55.sol\":16749:16754  owner */\n      0x04\n      0x00\n      swap1\n      sload\n      swap1\n      0x0100\n      exp\n      swap1\n      div\n      0xffffffffffffffffffffffffffffffffffffffff\n      and\n        /* \"val55.sol\":16741:16760  payable(owner).call */\n      0xffffffffffffffffffffffffffffffffffffffff\n      and\n        /* \"val55.sol\":16792:16799  _amount */\n      dup3\n        /* \"val55.sol\":16741:16814  payable(owner).call... */\n      mload(0x40)\n      tag_62\n      swap1\n      tag_63\n      jump\t// in\n    tag_62:\n      0x00\n      mload(0x40)\n      dup1\n      dup4\n      sub\n      dup2\n      dup6\n      dup8\n      gas\n      call\n      swap3\n      pop\n      pop\n      pop\n      returndatasize\n      dup1\n      0x00\n      dup2\n      eq\n      tag_66\n      jumpi\n      mload(0x40)\n      swap2\n      pop\n      and(add(returndatasize, 0x3f), not(0x1f))\n      dup3\n      add\n      0x40\n      mstore\n      returndatasize\n      dup3\n      mstore\n      returndatasize\n      0x00\n      0x20\n      dup5\n      add\n      returndatacopy\n      jump(tag_65)\n    tag_66:\n      0x60\n      swap2\n      pop\n    tag_65:\n      pop\n        /* \"val55.sol\":16722:16814  (bool success, ) = payable(owner).call... */\n      pop\n      swap1\n      pop\n        /* \"val55.sol\":16835:16842  success */\n      dup1\n        /* \"val55.sol\":16827:16862  require(success, \"Transfer failed\") */\n      tag_67\n      jumpi\n      mload(0x40)\n      0x08c379a000000000000000000000000000000000000000000000000000000000\n      dup2\n      mstore\n      0x04\n      add\n      tag_68\n      swap1\n      tag_69\n      jump\t// in\n    tag_68:\n      mload(0x40)\n      dup1\n      swap2\n      sub\n      swap1\n      revert\n    tag_67:\n        /* \"val55.sol\":16899:16904  owner */\n      0x04\n      0x00\n      swap1\n      sload\n      swap1\n      0x0100\n      exp\n      swap1\n      div\n      0xffffffffffffffffffffffffffffffffffffffff\n      and\n        /* \"val55.sol\":16880:16914  WithdrawalExecuted(owner, _amount) */\n      0xffffffffffffffffffffffffffffffffffffffff\n      and\n      0x1131c2afe9ce72c59360d085f89bfdd088fcf4a3c93eec6cc5ff42f5d6b0801f\n        /* \"val55.sol\":16906:16913  _amount */\n      dup4\n        /* \"val55.sol\":16880:16914  WithdrawalExecuted(owner, _amount) */\n      mload(0x40)\n      tag_70\n      swap2\n      swap1\n      tag_18\n      jump\t// in\n    tag_70:\n      mload(0x40)\n      dup1\n      swap2\n      sub\n      swap1\n      log2\n        /* \"val55.sol\":16566:16922  {... */\n      pop\n        /* \"val55.sol\":16516:16922  function withdraw(uint256 _amount) external ... */\n      pop\n      jump\t// out\n        /* \"val55.sol\":17096:17236  function contractBalance()... */\n    tag_37:\n        /* \"val55.sol\":17173:17180  uint256 */\n      0x00\n        /* \"val55.sol\":17207:17228  address(this).balance */\n      selfbalance\n        /* \"val55.sol\":17200:17228  return address(this).balance */\n      swap1\n      pop\n        /* \"val55.sol\":17096:17236  function contractBalance()... */\n      swap1\n      jump\t// out\n        /* \"val55.sol\":15129:15149  address public owner */\n    tag_41:\n      0x04\n      0x00\n      swap1\n      sload\n      swap1\n      0x0100\n      exp\n      swap1\n      div\n      0xffffffffffffffffffffffffffffffffffffffff\n      and\n      dup2\n      jump\t// out\n        /* \"val55.sol\":15076:15106  uint256 public fallbackCounter */\n    tag_45:\n      sload(0x03)\n      dup2\n      jump\t// out\n        /* \"val55.sol\":14840:14868  uint256 public totalReceived */\n    tag_49:\n      sload(0x00)\n      dup2\n      jump\t// out\n        /* \"val55.sol\":15004:15033  uint256 public receiveCounter */\n    tag_53:\n      sload(0x02)\n      dup2\n      jump\t// out\n        /* \"#utility.yul\":7:84   */\n    tag_72:\n        /* \"#utility.yul\":44:51   */\n      0x00\n        /* \"#utility.yul\":73:78   */\n      dup2\n        /* \"#utility.yul\":62:78   */\n      swap1\n      pop\n        /* \"#utility.yul\":7:84   */\n      swap2\n      swap1\n      pop\n      jump\t// out\n        /* \"#utility.yul\":90:270   */\n    tag_73:\n        /* \"#utility.yul\":138:215   */\n      0x4e487b7100000000000000000000000000000000000000000000000000000000\n        /* \"#utility.yul\":135:136   */\n      0x00\n        /* \"#utility.yul\":128:216   */\n      mstore\n        /* \"#utility.yul\":235:239   */\n      0x11\n        /* \"#utility.yul\":232:233   */\n      0x04\n        /* \"#utility.yul\":225:240   */\n      mstore\n        /* \"#utility.yul\":259:263   */\n      0x24\n        /* \"#utility.yul\":256:257   */\n      0x00\n        /* \"#utility.yul\":249:264   */\n      revert\n        /* \"#utility.yul\":276:467   */\n    tag_14:\n        /* \"#utility.yul\":316:319   */\n      0x00\n        /* \"#utility.yul\":335:355   */\n      tag_101\n        /* \"#utility.yul\":353:354   */\n      dup3\n        /* \"#utility.yul\":335:355   */\n      tag_72\n      jump\t// in\n    tag_101:\n        /* \"#utility.yul\":330:355   */\n      swap2\n      pop\n        /* \"#utility.yul\":369:389   */\n      tag_102\n        /* \"#utility.yul\":387:388   */\n      dup4\n        /* \"#utility.yul\":369:389   */\n      tag_72\n      jump\t// in\n    tag_102:\n        /* \"#utility.yul\":364:389   */\n      swap3\n      pop\n        /* \"#utility.yul\":412:413   */\n      dup3\n        /* \"#utility.yul\":409:410   */\n      dup3\n        /* \"#utility.yul\":405:414   */\n      add\n        /* \"#utility.yul\":398:414   */\n      swap1\n      pop\n        /* \"#utility.yul\":433:436   */\n      dup1\n        /* \"#utility.yul\":430:431   */\n      dup3\n        /* \"#utility.yul\":427:437   */\n      gt\n        /* \"#utility.yul\":424:460   */\n      iszero\n      tag_103\n      jumpi\n        /* \"#utility.yul\":440:458   */\n      tag_104\n      tag_73\n      jump\t// in\n    tag_104:\n        /* \"#utility.yul\":424:460   */\n    tag_103:\n        /* \"#utility.yul\":276:467   */\n      swap3\n      swap2\n      pop\n      pop\n      jump\t// out\n        /* \"#utility.yul\":473:706   */\n    tag_16:\n        /* \"#utility.yul\":512:515   */\n      0x00\n        /* \"#utility.yul\":535:559   */\n      tag_106\n        /* \"#utility.yul\":553:558   */\n      dup3\n        /* \"#utility.yul\":535:559   */\n      tag_72\n      jump\t// in\n    tag_106:\n        /* \"#utility.yul\":526:559   */\n      swap2\n      pop\n        /* \"#utility.yul\":581:647   */\n      0xffffffffffffffffffffffffffffffffffffffffffffffffffffffffffffffff\n        /* \"#utility.yul\":574:579   */\n      dup3\n        /* \"#utility.yul\":571:648   */\n      sub\n        /* \"#utility.yul\":568:671   */\n      tag_107\n      jumpi\n        /* \"#utility.yul\":651:669   */\n      tag_108\n      tag_73\n      jump\t// in\n    tag_108:\n        /* \"#utility.yul\":568:671   */\n    tag_107:\n        /* \"#utility.yul\":698:699   */\n      0x01\n        /* \"#utility.yul\":691:696   */\n      dup3\n        /* \"#utility.yul\":687:700   */\n      add\n        /* \"#utility.yul\":680:700   */\n      swap1\n      pop\n        /* \"#utility.yul\":473:706   */\n      swap2\n      swap1\n      pop\n      jump\t// out\n        /* \"#utility.yul\":712:830   */\n    tag_74:\n        /* \"#utility.yul\":799:823   */\n      tag_110\n        /* \"#utility.yul\":817:822   */\n      dup2\n        /* \"#utility.yul\":799:823   */\n      tag_72\n      jump\t// in\n    tag_110:\n        /* \"#utility.yul\":794:797   */\n      dup3\n        /* \"#utility.yul\":787:824   */\n      mstore\n        /* \"#utility.yul\":712:830   */\n      pop\n      pop\n      jump\t// out\n        /* \"#utility.yul\":836:1058   */\n    tag_18:\n        /* \"#utility.yul\":929:933   */\n      0x00\n        /* \"#utility.yul\":967:969   */\n      0x20\n        /* \"#utility.yul\":956:965   */\n      dup3\n        /* \"#utility.yul\":952:970   */\n      add\n        /* \"#utility.yul\":944:970   */\n      swap1\n      pop\n        /* \"#utility.yul\":980:1051   */\n      tag_112\n        /* \"#utility.yul\":1048:1049   */\n      0x00\n        /* \"#utility.yul\":1037:1046   */\n      dup4\n        /* \"#utility.yul\":1033:1050   */\n      add\n        /* \"#utility.yul\":1024:1030   */\n      dup5\n        /* \"#utility.yul\":980:1051   */\n      tag_74\n      jump\t// in\n    tag_112:\n        /* \"#utility.yul\":836:1058   */\n      swap3\n      swap2\n      pop\n      pop\n      jump\t// out\n        /* \"#utility.yul\":1064:1232   */\n    tag_75:\n        /* \"#utility.yul\":1147:1158   */\n      0x00\n        /* \"#utility.yul\":1181:1187   */\n      dup3\n        /* \"#utility.yul\":1176:1179   */\n      dup3\n        /* \"#utility.yul\":1169:1188   */\n      mstore\n        /* \"#utility.yul\":1221:1225   */\n      0x20\n        /* \"#utility.yul\":1216:1219   */\n      dup3\n        /* \"#utility.yul\":1212:1226   */\n      add\n        /* \"#utility.yul\":1197:1226   */\n      swap1\n      pop\n        /* \"#utility.yul\":1064:1232   */\n      swap3\n      swap2\n      pop\n      pop\n      jump\t// out\n        /* \"#utility.yul\":1238:1386   */\n    tag_76:\n        /* \"#utility.yul\":1336:1342   */\n      dup3\n        /* \"#utility.yul\":1331:1334   */\n      dup2\n        /* \"#utility.yul\":1326:1329   */\n      dup4\n        /* \"#utility.yul\":1313:1343   */\n      calldatacopy\n        /* \"#utility.yul\":1377:1378   */\n      0x00\n        /* \"#utility.yul\":1368:1374   */\n      dup4\n        /* \"#utility.yul\":1363:1366   */\n      dup4\n        /* \"#utility.yul\":1359:1375   */\n      add\n        /* \"#utility.yul\":1352:1379   */\n      mstore\n        /* \"#utility.yul\":1238:1386   */\n      pop\n      pop\n      pop\n      jump\t// out\n        /* \"#utility.yul\":1392:1494   */\n    tag_77:\n        /* \"#utility.yul\":1433:1439   */\n      0x00\n        /* \"#utility.yul\":1484:1486   */\n      0x1f\n        /* \"#utility.yul\":1480:1487   */\n      not\n        /* \"#utility.yul\":1475:1477   */\n      0x1f\n        /* \"#utility.yul\":1468:1473   */\n      dup4\n        /* \"#utility.yul\":1464:1478   */\n      add\n        /* \"#utility.yul\":1460:1488   */\n      and\n        /* \"#utility.yul\":1450:1488   */\n      swap1\n      pop\n        /* \"#utility.yul\":1392:1494   */\n      swap2\n      swap1\n      pop\n      jump\t// out\n        /* \"#utility.yul\":1522:1836   */\n    tag_78:\n        /* \"#utility.yul\":1618:1621   */\n      0x00\n        /* \"#utility.yul\":1639:1709   */\n      tag_117\n        /* \"#utility.yul\":1702:1708   */\n      dup4\n        /* \"#utility.yul\":1697:1700   */\n      dup6\n        /* \"#utility.yul\":1639:1709   */\n      tag_75\n      jump\t// in\n    tag_117:\n        /* \"#utility.yul\":1632:1709   */\n      swap4\n      pop\n        /* \"#utility.yul\":1719:1775   */\n      tag_118\n        /* \"#utility.yul\":1768:1774   */\n      dup4\n        /* \"#utility.yul\":1763:1766   */\n      dup6\n        /* \"#utility.yul\":1756:1761   */\n      dup5\n        /* \"#utility.yul\":1719:1775   */\n      tag_76\n      jump\t// in\n    tag_118:\n        /* \"#utility.yul\":1800:1829   */\n      tag_119\n        /* \"#utility.yul\":1822:1828   */\n      dup4\n        /* \"#utility.yul\":1800:1829   */\n      tag_77\n      jump\t// in\n    tag_119:\n        /* \"#utility.yul\":1795:1798   */\n      dup5\n        /* \"#utility.yul\":1791:1830   */\n      add\n        /* \"#utility.yul\":1784:1830   */\n      swap1\n      pop\n        /* \"#utility.yul\":1522:1836   */\n      swap4\n      swap3\n      pop\n      pop\n      pop\n      jump\t// out\n        /* \"#utility.yul\":1842:2281   */\n    tag_24:\n        /* \"#utility.yul\":1991:1995   */\n      0x00\n        /* \"#utility.yul\":2029:2031   */\n      0x40\n        /* \"#utility.yul\":2018:2027   */\n      dup3\n        /* \"#utility.yul\":2014:2032   */\n      add\n        /* \"#utility.yul\":2006:2032   */\n      swap1\n      pop\n        /* \"#utility.yul\":2042:2113   */\n      tag_121\n        /* \"#utility.yul\":2110:2111   */\n      0x00\n        /* \"#utility.yul\":2099:2108   */\n      dup4\n        /* \"#utility.yul\":2095:2112   */\n      add\n        /* \"#utility.yul\":2086:2092   */\n      dup7\n        /* \"#utility.yul\":2042:2113   */\n      tag_74\n      jump\t// in\n    tag_121:\n        /* \"#utility.yul\":2160:2169   */\n      dup2\n        /* \"#utility.yul\":2154:2158   */\n      dup2\n        /* \"#utility.yul\":2150:2170   */\n      sub\n        /* \"#utility.yul\":2145:2147   */\n      0x20\n        /* \"#utility.yul\":2134:2143   */\n      dup4\n        /* \"#utility.yul\":2130:2148   */\n      add\n        /* \"#utility.yul\":2123:2171   */\n      mstore\n        /* \"#utility.yul\":2188:2274   */\n      tag_122\n        /* \"#utility.yul\":2269:2273   */\n      dup2\n        /* \"#utility.yul\":2260:2266   */\n      dup5\n        /* \"#utility.yul\":2252:2258   */\n      dup7\n        /* \"#utility.yul\":2188:2274   */\n      tag_78\n      jump\t// in\n    tag_122:\n        /* \"#utility.yul\":2180:2274   */\n      swap1\n      pop\n        /* \"#utility.yul\":1842:2281   */\n      swap5\n      swap4\n      pop\n      pop\n      pop\n      pop\n      jump\t// out\n        /* \"#utility.yul\":2287:2413   */\n    tag_79:\n        /* \"#utility.yul\":2324:2331   */\n      0x00\n        /* \"#utility.yul\":2364:2406   */\n      0xffffffffffffffffffffffffffffffffffffffff\n        /* \"#utility.yul\":2357:2362   */\n      dup3\n        /* \"#utility.yul\":2353:2407   */\n      and\n        /* \"#utility.yul\":2342:2407   */\n      swap1\n      pop\n        /* \"#utility.yul\":2287:2413   */\n      swap2\n      swap1\n      pop\n      jump\t// out\n        /* \"#utility.yul\":2419:2515   */\n    tag_80:\n        /* \"#utility.yul\":2456:2463   */\n      0x00\n        /* \"#utility.yul\":2485:2509   */\n      tag_125\n        /* \"#utility.yul\":2503:2508   */\n      dup3\n        /* \"#utility.yul\":2485:2509   */\n      tag_79\n      jump\t// in\n    tag_125:\n        /* \"#utility.yul\":2474:2509   */\n      swap1\n      pop\n        /* \"#utility.yul\":2419:2515   */\n      swap2\n      swap1\n      pop\n      jump\t// out\n        /* \"#utility.yul\":2521:2639   */\n    tag_81:\n        /* \"#utility.yul\":2608:2632   */\n      tag_127\n        /* \"#utility.yul\":2626:2631   */\n      dup2\n        /* \"#utility.yul\":2608:2632   */\n      tag_80\n      jump\t// in\n    tag_127:\n        /* \"#utility.yul\":2603:2606   */\n      dup3\n        /* \"#utility.yul\":2596:2633   */\n      mstore\n        /* \"#utility.yul\":2521:2639   */\n      pop\n      pop\n      jump\t// out\n        /* \"#utility.yul\":2645:2867   */\n    tag_29:\n        /* \"#utility.yul\":2738:2742   */\n      0x00\n        /* \"#utility.yul\":2776:2778   */\n      0x20\n        /* \"#utility.yul\":2765:2774   */\n      dup3\n        /* \"#utility.yul\":2761:2779   */\n      add\n        /* \"#utility.yul\":2753:2779   */\n      swap1\n      pop\n        /* \"#utility.yul\":2789:2860   */\n      tag_129\n        /* \"#utility.yul\":2857:2858   */\n      0x00\n        /* \"#utility.yul\":2846:2855   */\n      dup4\n        /* \"#utility.yul\":2842:2859   */\n      add\n        /* \"#utility.yul\":2833:2839   */\n      dup5\n        /* \"#utility.yul\":2789:2860   */\n      tag_81\n      jump\t// in\n    tag_129:\n        /* \"#utility.yul\":2645:2867   */\n      swap3\n      swap2\n      pop\n      pop\n      jump\t// out\n        /* \"#utility.yul\":2954:3071   */\n    tag_83:\n        /* \"#utility.yul\":3063:3064   */\n      0x00\n        /* \"#utility.yul\":3060:3061   */\n      0x00\n        /* \"#utility.yul\":3053:3065   */\n      revert\n        /* \"#utility.yul\":3200:3322   */\n    tag_85:\n        /* \"#utility.yul\":3273:3297   */\n      tag_134\n        /* \"#utility.yul\":3291:3296   */\n      dup2\n        /* \"#utility.yul\":3273:3297   */\n      tag_72\n      jump\t// in\n    tag_134:\n        /* \"#utility.yul\":3266:3271   */\n      dup2\n        /* \"#utility.yul\":3263:3298   */\n      eq\n        /* \"#utility.yul\":3253:3316   */\n      tag_135\n      jumpi\n        /* \"#utility.yul\":3312:3313   */\n      0x00\n        /* \"#utility.yul\":3309:3310   */\n      0x00\n        /* \"#utility.yul\":3302:3314   */\n      revert\n        /* \"#utility.yul\":3253:3316   */\n    tag_135:\n        /* \"#utility.yul\":3200:3322   */\n      pop\n      jump\t// out\n        /* \"#utility.yul\":3328:3467   */\n    tag_86:\n        /* \"#utility.yul\":3374:3379   */\n      0x00\n        /* \"#utility.yul\":3412:3418   */\n      dup2\n        /* \"#utility.yul\":3399:3419   */\n      calldataload\n        /* \"#utility.yul\":3390:3419   */\n      swap1\n      pop\n        /* \"#utility.yul\":3428:3461   */\n      tag_137\n        /* \"#utility.yul\":3455:3460   */\n      dup2\n        /* \"#utility.yul\":3428:3461   */\n      tag_85\n      jump\t// in\n    tag_137:\n        /* \"#utility.yul\":3328:3467   */\n      swap3\n      swap2\n      pop\n      pop\n      jump\t// out\n        /* \"#utility.yul\":3473:3802   */\n    tag_33:\n        /* \"#utility.yul\":3532:3538   */\n      0x00\n        /* \"#utility.yul\":3581:3583   */\n      0x20\n        /* \"#utility.yul\":3569:3578   */\n      dup3\n        /* \"#utility.yul\":3560:3567   */\n      dup5\n        /* \"#utility.yul\":3556:3579   */\n      sub\n        /* \"#utility.yul\":3552:3584   */\n      slt\n        /* \"#utility.yul\":3549:3668   */\n      iszero\n      tag_139\n      jumpi\n        /* \"#utility.yul\":3587:3666   */\n      tag_140\n      tag_83\n      jump\t// in\n    tag_140:\n        /* \"#utility.yul\":3549:3668   */\n    tag_139:\n        /* \"#utility.yul\":3707:3708   */\n      0x00\n        /* \"#utility.yul\":3732:3785   */\n      tag_141\n        /* \"#utility.yul\":3777:3784   */\n      dup5\n        /* \"#utility.yul\":3768:3774   */\n      dup3\n        /* \"#utility.yul\":3757:3766   */\n      dup6\n        /* \"#utility.yul\":3753:3775   */\n      add\n        /* \"#utility.yul\":3732:3785   */\n      tag_86\n      jump\t// in\n    tag_141:\n        /* \"#utility.yul\":3722:3785   */\n      swap2\n      pop\n        /* \"#utility.yul\":3678:3795   */\n      pop\n        /* \"#utility.yul\":3473:3802   */\n      swap3\n      swap2\n      pop\n      pop\n      jump\t// out\n        /* \"#utility.yul\":3808:3977   */\n    tag_87:\n        /* \"#utility.yul\":3892:3903   */\n      0x00\n        /* \"#utility.yul\":3926:3932   */\n      dup3\n        /* \"#utility.yul\":3921:3924   */\n      dup3\n        /* \"#utility.yul\":3914:3933   */\n      mstore\n        /* \"#utility.yul\":3966:3970   */\n      0x20\n        /* \"#utility.yul\":3961:3964   */\n      dup3\n        /* \"#utility.yul\":3957:3971   */\n      add\n        /* \"#utility.yul\":3942:3971   */\n      swap1\n      pop\n        /* \"#utility.yul\":3808:3977   */\n      swap3\n      swap2\n      pop\n      pop\n      jump\t// out\n        /* \"#utility.yul\":3983:4146   */\n    tag_88:\n        /* \"#utility.yul\":4123:4138   */\n      0x4e6f7420746865206f776e657200000000000000000000000000000000000000\n        /* \"#utility.yul\":4119:4120   */\n      0x00\n        /* \"#utility.yul\":4111:4117   */\n      dup3\n        /* \"#utility.yul\":4107:4121   */\n      add\n        /* \"#utility.yul\":4100:4139   */\n      mstore\n        /* \"#utility.yul\":3983:4146   */\n      pop\n      jump\t// out\n        /* \"#utility.yul\":4152:4518   */\n    tag_89:\n        /* \"#utility.yul\":4294:4297   */\n      0x00\n        /* \"#utility.yul\":4315:4382   */\n      tag_145\n        /* \"#utility.yul\":4379:4381   */\n      0x0d\n        /* \"#utility.yul\":4374:4377   */\n      dup4\n        /* \"#utility.yul\":4315:4382   */\n      tag_87\n      jump\t// in\n    tag_145:\n        /* \"#utility.yul\":4308:4382   */\n      swap2\n      pop\n        /* \"#utility.yul\":4391:4484   */\n      tag_146\n        /* \"#utility.yul\":4480:4483   */\n      dup3\n        /* \"#utility.yul\":4391:4484   */\n      tag_88\n      jump\t// in\n    tag_146:\n        /* \"#utility.yul\":4509:4511   */\n      0x20\n        /* \"#utility.yul\":4504:4507   */\n      dup3\n        /* \"#utility.yul\":4500:4512   */\n      add\n        /* \"#utility.yul\":4493:4512   */\n      swap1\n      pop\n        /* \"#utility.yul\":4152:4518   */\n      swap2\n      swap1\n      pop\n      jump\t// out\n        /* \"#utility.yul\":4524:4943   */\n    tag_58:\n        /* \"#utility.yul\":4690:4694   */\n      0x00\n        /* \"#utility.yul\":4728:4730   */\n      0x20\n        /* \"#utility.yul\":4717:4726   */\n      dup3\n        /* \"#utility.yul\":4713:4731   */\n      add\n        /* \"#utility.yul\":4705:4731   */\n      swap1\n      pop\n        /* \"#utility.yul\":4777:4786   */\n      dup2\n        /* \"#utility.yul\":4771:4775   */\n      dup2\n        /* \"#utility.yul\":4767:4787   */\n      sub\n        /* \"#utility.yul\":4763:4764   */\n      0x00\n        /* \"#utility.yul\":4752:4761   */\n      dup4\n        /* \"#utility.yul\":4748:4765   */\n      add\n        /* \"#utility.yul\":4741:4788   */\n      mstore\n        /* \"#utility.yul\":4805:4936   */\n      tag_148\n        /* \"#utility.yul\":4931:4935   */\n      dup2\n        /* \"#utility.yul\":4805:4936   */\n      tag_89\n      jump\t// in\n    tag_148:\n        /* \"#utility.yul\":4797:4936   */\n      swap1\n      pop\n        /* \"#utility.yul\":4524:4943   */\n      swap2\n      swap1\n      pop\n      jump\t// out\n        /* \"#utility.yul\":4949:5128   */\n    tag_90:\n        /* \"#utility.yul\":5089:5120   */\n      0x496e73756666696369656e7420636f6e74726163742062616c616e6365000000\n        /* \"#utility.yul\":5085:5086   */\n      0x00\n        /* \"#utility.yul\":5077:5083   */\n      dup3\n        /* \"#utility.yul\":5073:5087   */\n      add\n        /* \"#utility.yul\":5066:5121   */\n      mstore\n        /* \"#utility.yul\":4949:5128   */\n      pop\n      jump\t// out\n        /* \"#utility.yul\":5134:5500   */\n    tag_91:\n        /* \"#utility.yul\":5276:5279   */\n      0x00\n        /* \"#utility.yul\":5297:5364   */\n      tag_151\n        /* \"#utility.yul\":5361:5363   */\n      0x1d\n        /* \"#utility.yul\":5356:5359   */\n      dup4\n        /* \"#utility.yul\":5297:5364   */\n      tag_87\n      jump\t// in\n    tag_151:\n        /* \"#utility.yul\":5290:5364   */\n      swap2\n      pop\n        /* \"#utility.yul\":5373:5466   */\n      tag_152\n        /* \"#utility.yul\":5462:5465   */\n      dup3\n        /* \"#utility.yul\":5373:5466   */\n      tag_90\n      jump\t// in\n    tag_152:\n        /* \"#utility.yul\":5491:5493   */\n      0x20\n        /* \"#utility.yul\":5486:5489   */\n      dup3\n        /* \"#utility.yul\":5482:5494   */\n      add\n        /* \"#utility.yul\":5475:5494   */\n      swap1\n      pop\n        /* \"#utility.yul\":5134:5500   */\n      swap2\n      swap1\n      pop\n      jump\t// out\n        /* \"#utility.yul\":5506:5925   */\n    tag_61:\n        /* \"#utility.yul\":5672:5676   */\n      0x00\n        /* \"#utility.yul\":5710:5712   */\n      0x20\n        /* \"#utility.yul\":5699:5708   */\n      dup3\n        /* \"#utility.yul\":5695:5713   */\n      add\n        /* \"#utility.yul\":5687:5713   */\n      swap1\n      pop\n        /* \"#utility.yul\":5759:5768   */\n      dup2\n        /* \"#utility.yul\":5753:5757   */\n      dup2\n        /* \"#utility.yul\":5749:5769   */\n      sub\n        /* \"#utility.yul\":5745:5746   */\n      0x00\n        /* \"#utility.yul\":5734:5743   */\n      dup4\n        /* \"#utility.yul\":5730:5747   */\n      add\n        /* \"#utility.yul\":5723:5770   */\n      mstore\n        /* \"#utility.yul\":5787:5918   */\n      tag_154\n        /* \"#utility.yul\":5913:5917   */\n      dup2\n        /* \"#utility.yul\":5787:5918   */\n      tag_91\n      jump\t// in\n    tag_154:\n        /* \"#utility.yul\":5779:5918   */\n      swap1\n      pop\n        /* \"#utility.yul\":5506:5925   */\n      swap2\n      swap1\n      pop\n      jump\t// out\n        /* \"#utility.yul\":5931:6078   */\n    tag_92:\n        /* \"#utility.yul\":6032:6043   */\n      0x00\n        /* \"#utility.yul\":6069:6072   */\n      dup2\n        /* \"#utility.yul\":6054:6072   */\n      swap1\n      pop\n        /* \"#utility.yul\":5931:6078   */\n      swap3\n      swap2\n      pop\n      pop\n      jump\t// out\n        /* \"#utility.yul\":6084:6198   */\n    tag_93:\n      pop\n      jump\t// out\n        /* \"#utility.yul\":6204:6602   */\n    tag_94:\n        /* \"#utility.yul\":6363:6366   */\n      0x00\n        /* \"#utility.yul\":6384:6467   */\n      tag_158\n        /* \"#utility.yul\":6465:6466   */\n      0x00\n        /* \"#utility.yul\":6460:6463   */\n      dup4\n        /* \"#utility.yul\":6384:6467   */\n      tag_92\n      jump\t// in\n    tag_158:\n        /* \"#utility.yul\":6377:6467   */\n      swap2\n      pop\n        /* \"#utility.yul\":6476:6569   */\n      tag_159\n        /* \"#utility.yul\":6565:6568   */\n      dup3\n        /* \"#utility.yul\":6476:6569   */\n      tag_93\n      jump\t// in\n    tag_159:\n        /* \"#utility.yul\":6594:6595   */\n      0x00\n        /* \"#utility.yul\":6589:6592   */\n      dup3\n        /* \"#utility.yul\":6585:6596   */\n      add\n        /* \"#utility.yul\":6578:6596   */\n      swap1\n      pop\n        /* \"#utility.yul\":6204:6602   */\n      swap2\n      swap1\n      pop\n      jump\t// out\n        /* \"#utility.yul\":6608:6987   */\n    tag_63:\n        /* \"#utility.yul\":6792:6795   */\n      0x00\n        /* \"#utility.yul\":6814:6961   */\n      tag_161\n        /* \"#utility.yul\":6957:6960   */\n      dup3\n        /* \"#utility.yul\":6814:6961   */\n      tag_94\n      jump\t// in\n    tag_161:\n        /* \"#utility.yul\":6807:6961   */\n      swap2\n      pop\n        /* \"#utility.yul\":6978:6981   */\n      dup2\n        /* \"#utility.yul\":6971:6981   */\n      swap1\n      pop\n        /* \"#utility.yul\":6608:6987   */\n      swap2\n      swap1\n      pop\n      jump\t// out\n        /* \"#utility.yul\":6993:7158   */\n    tag_95:\n        /* \"#utility.yul\":7133:7150   */\n      0x5472616e73666572206661696c65640000000000000000000000000000000000\n        /* \"#utility.yul\":7129:7130   */\n      0x00\n        /* \"#utility.yul\":7121:7127   */\n      dup3\n        /* \"#utility.yul\":7117:7131   */\n      add\n        /* \"#utility.yul\":7110:7151   */\n      mstore\n        /* \"#utility.yul\":6993:7158   */\n      pop\n      jump\t// out\n        /* \"#utility.yul\":7164:7530   */\n    tag_96:\n        /* \"#utility.yul\":7306:7309   */\n      0x00\n        /* \"#utility.yul\":7327:7394   */\n      tag_164\n        /* \"#utility.yul\":7391:7393   */\n      0x0f\n        /* \"#utility.yul\":7386:7389   */\n      dup4\n        /* \"#utility.yul\":7327:7394   */\n      tag_87\n      jump\t// in\n    tag_164:\n        /* \"#utility.yul\":7320:7394   */\n      swap2\n      pop\n        /* \"#utility.yul\":7403:7496   */\n      tag_165\n        /* \"#utility.yul\":7492:7495   */\n      dup3\n        /* \"#utility.yul\":7403:7496   */\n      tag_95\n      jump\t// in\n    tag_165:\n        /* \"#utility.yul\":7521:7523   */\n      0x20\n        /* \"#utility.yul\":7516:7519   */\n      dup3\n        /* \"#utility.yul\":7512:7524   */\n      add\n        /* \"#utility.yul\":7505:7524   */\n      swap1\n      pop\n        /* \"#utility.yul\":7164:7530   */\n      swap2\n      swap1\n      pop\n      jump\t// out\n        /* \"#utility.yul\":7536:7955   */\n    tag_69:\n        /* \"#utility.yul\":7702:7706   */\n      0x00\n        /* \"#utility.yul\":7740:7742   */\n      0x20\n        /* \"#utility.yul\":7729:7738   */\n      dup3\n        /* \"#utility.yul\":7725:7743   */\n      add\n        /* \"#utility.yul\":7717:7743   */\n      swap1\n      pop\n        /* \"#utility.yul\":7789:7798   */\n      dup2\n        /* \"#utility.yul\":7783:7787   */\n      dup2\n        /* \"#utility.yul\":7779:7799   */\n      sub\n        /* \"#utility.yul\":7775:7776   */\n      0x00\n        /* \"#utility.yul\":7764:7773   */\n      dup4\n        /* \"#utility.yul\":7760:7777   */\n      add\n        /* \"#utility.yul\":7753:7800   */\n      mstore\n        /* \"#utility.yul\":7817:7948   */\n      tag_167\n        /* \"#utility.yul\":7943:7947   */\n      dup2\n        /* \"#utility.yul\":7817:7948   */\n      tag_96\n      jump\t// in\n    tag_167:\n        /* \"#utility.yul\":7809:7948   */\n      swap1\n      pop\n        /* \"#utility.yul\":7536:7955   */\n      swap2\n      swap1\n      pop\n      jump\t// out\n\n    auxdata: 0xa264697066735822122009487a053c2c68809194b02edad82bc87176e02bf93dd717c25a2c20c4ee024564736f6c63430008220033\n}\n",
				"bytecode": {
					"linkReferences": {},
					"object": "6080604052348015600e575f5ffd5b503360045f6101000a81548173ffffffffffffffffffffffffffffffffffffffff021916908373ffffffffffffffffffffffffffffffffffffffff16021790555061095e8061005c5f395ff3fe608060405260043610610073575f3560e01c80638da5cb5b1161004d5780638da5cb5b14610274578063a170d7371461029e578063a3c2c462146102c8578063c3ca5ffe146102f257610136565b8063256fec88146101f85780632e1a7d4d146102225780638b7afe2e1461024a57610136565b36610136573360015f6101000a81548173ffffffffffffffffffffffffffffffffffffffff021916908373ffffffffffffffffffffffffffffffffffffffff160217905550345f5f8282546100c891906105c2565b9250508190555060025f8154809291906100e1906105f5565b91905055503373ffffffffffffffffffffffffffffffffffffffff167fe782884e1d82c4de79e0b14ad0bd0c07bb01bda66e4be33e9bc0096fb59a11a23460405161012c919061064b565b60405180910390a2005b3360015f6101000a81548173ffffffffffffffffffffffffffffffffffffffff021916908373ffffffffffffffffffffffffffffffffffffffff160217905550345f5f82825461018691906105c2565b9250508190555060035f81548092919061019f906105f5565b91905055503373ffffffffffffffffffffffffffffffffffffffff167f2087642f508df0bba22bccd980242c5ea3ccef54a9fe18eda4632f3f9de91fbc345f366040516101ee939291906106be565b60405180910390a2005b348015610203575f5ffd5b5061020c61031c565b604051610219919061072d565b60405180910390f35b34801561022d575f5ffd5b5061024860048036038101906102439190610774565b610341565b005b348015610255575f5ffd5b5061025e61054f565b60405161026b919061064b565b60405180910390f35b34801561027f575f5ffd5b50610288610556565b604051610295919061072d565b60405180910390f35b3480156102a9575f5ffd5b506102b261057b565b6040516102bf919061064b565b60405180910390f35b3480156102d3575f5ffd5b506102dc610581565b6040516102e9919061064b565b60405180910390f35b3480156102fd575f5ffd5b50610306610586565b604051610313919061064b565b60405180910390f35b60015f9054906101000a900473ffffffffffffffffffffffffffffffffffffffff1681565b60045f9054906101000a900473ffffffffffffffffffffffffffffffffffffffff1673ffffffffffffffffffffffffffffffffffffffff163373ffffffffffffffffffffffffffffffffffffffff16146103d0576040517f08c379a00000000000000000000000000000000000000000000000000000000081526004016103c7906107f9565b60405180910390fd5b80471015610413576040517f08c379a000000000000000000000000000000000000000000000000000000000815260040161040a90610861565b60405180910390fd5b5f60045f9054906101000a900473ffffffffffffffffffffffffffffffffffffffff1673ffffffffffffffffffffffffffffffffffffffff1682604051610459906108ac565b5f6040518083038185875af1925050503d805f8114610493576040519150601f19603f3d011682016040523d82523d5f602084013e610498565b606091505b50509050806104dc576040517f08c379a00000000000000000000000000000000000000000000000000000000081526004016104d39061090a565b60405180910390fd5b60045f9054906101000a900473ffffffffffffffffffffffffffffffffffffffff1673ffffffffffffffffffffffffffffffffffffffff167f1131c2afe9ce72c59360d085f89bfdd088fcf4a3c93eec6cc5ff42f5d6b0801f83604051610543919061064b565b60405180910390a25050565b5f47905090565b60045f9054906101000a900473ffffffffffffffffffffffffffffffffffffffff1681565b60035481565b5f5481565b60025481565b5f819050919050565b7f4e487b71000000000000000000000000000000000000000000000000000000005f52601160045260245ffd5b5f6105cc8261058c565b91506105d78361058c565b92508282019050808211156105ef576105ee610595565b5b92915050565b5f6105ff8261058c565b91507fffffffffffffffffffffffffffffffffffffffffffffffffffffffffffffffff820361063157610630610595565b5b600182019050919050565b6106458161058c565b82525050565b5f60208201905061065e5f83018461063c565b92915050565b5f82825260208201905092915050565b828183375f83830152505050565b5f601f19601f8301169050919050565b5f61069d8385610664565b93506106aa838584610674565b6106b383610682565b840190509392505050565b5f6040820190506106d15f83018661063c565b81810360208301526106e4818486610692565b9050949350505050565b5f73ffffffffffffffffffffffffffffffffffffffff82169050919050565b5f610717826106ee565b9050919050565b6107278161070d565b82525050565b5f6020820190506107405f83018461071e565b92915050565b5f5ffd5b6107538161058c565b811461075d575f5ffd5b50565b5f8135905061076e8161074a565b92915050565b5f6020828403121561078957610788610746565b5b5f61079684828501610760565b91505092915050565b5f82825260208201905092915050565b7f4e6f7420746865206f776e6572000000000000000000000000000000000000005f82015250565b5f6107e3600d8361079f565b91506107ee826107af565b602082019050919050565b5f6020820190508181035f830152610810816107d7565b9050919050565b7f496e73756666696369656e7420636f6e74726163742062616c616e63650000005f82015250565b5f61084b601d8361079f565b915061085682610817565b602082019050919050565b5f6020820190508181035f8301526108788161083f565b9050919050565b5f81905092915050565b50565b5f6108975f8361087f565b91506108a282610889565b5f82019050919050565b5f6108b68261088c565b9150819050919050565b7f5472616e73666572206661696c656400000000000000000000000000000000005f82015250565b5f6108f4600f8361079f565b91506108ff826108c0565b602082019050919050565b5f6020820190508181035f830152610921816108e8565b905091905056fea264697066735822122009487a053c2c68809194b02edad82bc87176e02bf93dd717c25a2c20c4ee024564736f6c63430008220033",
					"opcodes": "PUSH1 0x80 PUSH1 0x40 MSTORE CALLVALUE DUP1 ISZERO PUSH1 0xE JUMPI PUSH0 PUSH0 REVERT JUMPDEST POP CALLER PUSH1 0x4 PUSH0 PUSH2 0x100 EXP DUP2 SLOAD DUP2 PUSH20 0xFFFFFFFFFFFFFFFFFFFFFFFFFFFFFFFFFFFFFFFF MUL NOT AND SWAP1 DUP4 PUSH20 0xFFFFFFFFFFFFFFFFFFFFFFFFFFFFFFFFFFFFFFFF AND MUL OR SWAP1 SSTORE POP PUSH2 0x95E DUP1 PUSH2 0x5C PUSH0 CODECOPY PUSH0 RETURN INVALID PUSH1 0x80 PUSH1 0x40 MSTORE PUSH1 0x4 CALLDATASIZE LT PUSH2 0x73 JUMPI PUSH0 CALLDATALOAD PUSH1 0xE0 SHR DUP1 PUSH4 0x8DA5CB5B GT PUSH2 0x4D JUMPI DUP1 PUSH4 0x8DA5CB5B EQ PUSH2 0x274 JUMPI DUP1 PUSH4 0xA170D737 EQ PUSH2 0x29E JUMPI DUP1 PUSH4 0xA3C2C462 EQ PUSH2 0x2C8 JUMPI DUP1 PUSH4 0xC3CA5FFE EQ PUSH2 0x2F2 JUMPI PUSH2 0x136 JUMP JUMPDEST DUP1 PUSH4 0x256FEC88 EQ PUSH2 0x1F8 JUMPI DUP1 PUSH4 0x2E1A7D4D EQ PUSH2 0x222 JUMPI DUP1 PUSH4 0x8B7AFE2E EQ PUSH2 0x24A JUMPI PUSH2 0x136 JUMP JUMPDEST CALLDATASIZE PUSH2 0x136 JUMPI CALLER PUSH1 0x1 PUSH0 PUSH2 0x100 EXP DUP2 SLOAD DUP2 PUSH20 0xFFFFFFFFFFFFFFFFFFFFFFFFFFFFFFFFFFFFFFFF MUL NOT AND SWAP1 DUP4 PUSH20 0xFFFFFFFFFFFFFFFFFFFFFFFFFFFFFFFFFFFFFFFF AND MUL OR SWAP1 SSTORE POP CALLVALUE PUSH0 PUSH0 DUP3 DUP3 SLOAD PUSH2 0xC8 SWAP2 SWAP1 PUSH2 0x5C2 JUMP JUMPDEST SWAP3 POP POP DUP2 SWAP1 SSTORE POP PUSH1 0x2 PUSH0 DUP2 SLOAD DUP1 SWAP3 SWAP2 SWAP1 PUSH2 0xE1 SWAP1 PUSH2 0x5F5 JUMP JUMPDEST SWAP2 SWAP1 POP SSTORE POP CALLER PUSH20 0xFFFFFFFFFFFFFFFFFFFFFFFFFFFFFFFFFFFFFFFF AND PUSH32 0xE782884E1D82C4DE79E0B14AD0BD0C07BB01BDA66E4BE33E9BC0096FB59A11A2 CALLVALUE PUSH1 0x40 MLOAD PUSH2 0x12C SWAP2 SWAP1 PUSH2 0x64B JUMP JUMPDEST PUSH1 0x40 MLOAD DUP1 SWAP2 SUB SWAP1 LOG2 STOP JUMPDEST CALLER PUSH1 0x1 PUSH0 PUSH2 0x100 EXP DUP2 SLOAD DUP2 PUSH20 0xFFFFFFFFFFFFFFFFFFFFFFFFFFFFFFFFFFFFFFFF MUL NOT AND SWAP1 DUP4 PUSH20 0xFFFFFFFFFFFFFFFFFFFFFFFFFFFFFFFFFFFFFFFF AND MUL OR SWAP1 SSTORE POP CALLVALUE PUSH0 PUSH0 DUP3 DUP3 SLOAD PUSH2 0x186 SWAP2 SWAP1 PUSH2 0x5C2 JUMP JUMPDEST SWAP3 POP POP DUP2 SWAP1 SSTORE POP PUSH1 0x3 PUSH0 DUP2 SLOAD DUP1 SWAP3 SWAP2 SWAP1 PUSH2 0x19F SWAP1 PUSH2 0x5F5 JUMP JUMPDEST SWAP2 SWAP1 POP SSTORE POP CALLER PUSH20 0xFFFFFFFFFFFFFFFFFFFFFFFFFFFFFFFFFFFFFFFF AND PUSH32 0x2087642F508DF0BBA22BCCD980242C5EA3CCEF54A9FE18EDA4632F3F9DE91FBC CALLVALUE PUSH0 CALLDATASIZE PUSH1 0x40 MLOAD PUSH2 0x1EE SWAP4 SWAP3 SWAP2 SWAP1 PUSH2 0x6BE JUMP JUMPDEST PUSH1 0x40 MLOAD DUP1 SWAP2 SUB SWAP1 LOG2 STOP JUMPDEST CALLVALUE DUP1 ISZERO PUSH2 0x203 JUMPI PUSH0 PUSH0 REVERT JUMPDEST POP PUSH2 0x20C PUSH2 0x31C JUMP JUMPDEST PUSH1 0x40 MLOAD PUSH2 0x219 SWAP2 SWAP1 PUSH2 0x72D JUMP JUMPDEST PUSH1 0x40 MLOAD DUP1 SWAP2 SUB SWAP1 RETURN JUMPDEST CALLVALUE DUP1 ISZERO PUSH2 0x22D JUMPI PUSH0 PUSH0 REVERT JUMPDEST POP PUSH2 0x248 PUSH1 0x4 DUP1 CALLDATASIZE SUB DUP2 ADD SWAP1 PUSH2 0x243 SWAP2 SWAP1 PUSH2 0x774 JUMP JUMPDEST PUSH2 0x341 JUMP JUMPDEST STOP JUMPDEST CALLVALUE DUP1 ISZERO PUSH2 0x255 JUMPI PUSH0 PUSH0 REVERT JUMPDEST POP PUSH2 0x25E PUSH2 0x54F JUMP JUMPDEST PUSH1 0x40 MLOAD PUSH2 0x26B SWAP2 SWAP1 PUSH2 0x64B JUMP JUMPDEST PUSH1 0x40 MLOAD DUP1 SWAP2 SUB SWAP1 RETURN JUMPDEST CALLVALUE DUP1 ISZERO PUSH2 0x27F JUMPI PUSH0 PUSH0 REVERT JUMPDEST POP PUSH2 0x288 PUSH2 0x556 JUMP JUMPDEST PUSH1 0x40 MLOAD PUSH2 0x295 SWAP2 SWAP1 PUSH2 0x72D JUMP JUMPDEST PUSH1 0x40 MLOAD DUP1 SWAP2 SUB SWAP1 RETURN JUMPDEST CALLVALUE DUP1 ISZERO PUSH2 0x2A9 JUMPI PUSH0 PUSH0 REVERT JUMPDEST POP PUSH2 0x2B2 PUSH2 0x57B JUMP JUMPDEST PUSH1 0x40 MLOAD PUSH2 0x2BF SWAP2 SWAP1 PUSH2 0x64B JUMP JUMPDEST PUSH1 0x40 MLOAD DUP1 SWAP2 SUB SWAP1 RETURN JUMPDEST CALLVALUE DUP1 ISZERO PUSH2 0x2D3 JUMPI PUSH0 PUSH0 REVERT JUMPDEST POP PUSH2 0x2DC PUSH2 0x581 JUMP JUMPDEST PUSH1 0x40 MLOAD PUSH2 0x2E9 SWAP2 SWAP1 PUSH2 0x64B JUMP JUMPDEST PUSH1 0x40 MLOAD DUP1 SWAP2 SUB SWAP1 RETURN JUMPDEST CALLVALUE DUP1 ISZERO PUSH2 0x2FD JUMPI PUSH0 PUSH0 REVERT JUMPDEST POP PUSH2 0x306 PUSH2 0x586 JUMP JUMPDEST PUSH1 0x40 MLOAD PUSH2 0x313 SWAP2 SWAP1 PUSH2 0x64B JUMP JUMPDEST PUSH1 0x40 MLOAD DUP1 SWAP2 SUB SWAP1 RETURN JUMPDEST PUSH1 0x1 PUSH0 SWAP1 SLOAD SWAP1 PUSH2 0x100 EXP SWAP1 DIV PUSH20 0xFFFFFFFFFFFFFFFFFFFFFFFFFFFFFFFFFFFFFFFF AND DUP2 JUMP JUMPDEST PUSH1 0x4 PUSH0 SWAP1 SLOAD SWAP1 PUSH2 0x100 EXP SWAP1 DIV PUSH20 0xFFFFFFFFFFFFFFFFFFFFFFFFFFFFFFFFFFFFFFFF AND PUSH20 0xFFFFFFFFFFFFFFFFFFFFFFFFFFFFFFFFFFFFFFFF AND CALLER PUSH20 0xFFFFFFFFFFFFFFFFFFFFFFFFFFFFFFFFFFFFFFFF AND EQ PUSH2 0x3D0 JUMPI PUSH1 0x40 MLOAD PUSH32 0x8C379A000000000000000000000000000000000000000000000000000000000 DUP2 MSTORE PUSH1 0x4 ADD PUSH2 0x3C7 SWAP1 PUSH2 0x7F9 JUMP JUMPDEST PUSH1 0x40 MLOAD DUP1 SWAP2 SUB SWAP1 REVERT JUMPDEST DUP1 SELFBALANCE LT ISZERO PUSH2 0x413 JUMPI PUSH1 0x40 MLOAD PUSH32 0x8C379A000000000000000000000000000000000000000000000000000000000 DUP2 MSTORE PUSH1 0x4 ADD PUSH2 0x40A SWAP1 PUSH2 0x861 JUMP JUMPDEST PUSH1 0x40 MLOAD DUP1 SWAP2 SUB SWAP1 REVERT JUMPDEST PUSH0 PUSH1 0x4 PUSH0 SWAP1 SLOAD SWAP1 PUSH2 0x100 EXP SWAP1 DIV PUSH20 0xFFFFFFFFFFFFFFFFFFFFFFFFFFFFFFFFFFFFFFFF AND PUSH20 0xFFFFFFFFFFFFFFFFFFFFFFFFFFFFFFFFFFFFFFFF AND DUP3 PUSH1 0x40 MLOAD PUSH2 0x459 SWAP1 PUSH2 0x8AC JUMP JUMPDEST PUSH0 PUSH1 0x40 MLOAD DUP1 DUP4 SUB DUP2 DUP6 DUP8 GAS CALL SWAP3 POP POP POP RETURNDATASIZE DUP1 PUSH0 DUP2 EQ PUSH2 0x493 JUMPI PUSH1 0x40 MLOAD SWAP2 POP PUSH1 0x1F NOT PUSH1 0x3F RETURNDATASIZE ADD AND DUP3 ADD PUSH1 0x40 MSTORE RETURNDATASIZE DUP3 MSTORE RETURNDATASIZE PUSH0 PUSH1 0x20 DUP5 ADD RETURNDATACOPY PUSH2 0x498 JUMP JUMPDEST PUSH1 0x60 SWAP2 POP JUMPDEST POP POP SWAP1 POP DUP1 PUSH2 0x4DC JUMPI PUSH1 0x40 MLOAD PUSH32 0x8C379A000000000000000000000000000000000000000000000000000000000 DUP2 MSTORE PUSH1 0x4 ADD PUSH2 0x4D3 SWAP1 PUSH2 0x90A JUMP JUMPDEST PUSH1 0x40 MLOAD DUP1 SWAP2 SUB SWAP1 REVERT JUMPDEST PUSH1 0x4 PUSH0 SWAP1 SLOAD SWAP1 PUSH2 0x100 EXP SWAP1 DIV PUSH20 0xFFFFFFFFFFFFFFFFFFFFFFFFFFFFFFFFFFFFFFFF AND PUSH20 0xFFFFFFFFFFFFFFFFFFFFFFFFFFFFFFFFFFFFFFFF AND PUSH32 0x1131C2AFE9CE72C59360D085F89BFDD088FCF4A3C93EEC6CC5FF42F5D6B0801F DUP4 PUSH1 0x40 MLOAD PUSH2 0x543 SWAP2 SWAP1 PUSH2 0x64B JUMP JUMPDEST PUSH1 0x40 MLOAD DUP1 SWAP2 SUB SWAP1 LOG2 POP POP JUMP JUMPDEST PUSH0 SELFBALANCE SWAP1 POP SWAP1 JUMP JUMPDEST PUSH1 0x4 PUSH0 SWAP1 SLOAD SWAP1 PUSH2 0x100 EXP SWAP1 DIV PUSH20 0xFFFFFFFFFFFFFFFFFFFFFFFFFFFFFFFFFFFFFFFF AND DUP2 JUMP JUMPDEST PUSH1 0x3 SLOAD DUP2 JUMP JUMPDEST PUSH0 SLOAD DUP2 JUMP JUMPDEST PUSH1 0x2 SLOAD DUP2 JUMP JUMPDEST PUSH0 DUP2 SWAP1 POP SWAP2 SWAP1 POP JUMP JUMPDEST PUSH32 0x4E487B7100000000000000000000000000000000000000000000000000000000 PUSH0 MSTORE PUSH1 0x11 PUSH1 0x4 MSTORE PUSH1 0x24 PUSH0 REVERT JUMPDEST PUSH0 PUSH2 0x5CC DUP3 PUSH2 0x58C JUMP JUMPDEST SWAP2 POP PUSH2 0x5D7 DUP4 PUSH2 0x58C JUMP JUMPDEST SWAP3 POP DUP3 DUP3 ADD SWAP1 POP DUP1 DUP3 GT ISZERO PUSH2 0x5EF JUMPI PUSH2 0x5EE PUSH2 0x595 JUMP JUMPDEST JUMPDEST SWAP3 SWAP2 POP POP JUMP JUMPDEST PUSH0 PUSH2 0x5FF DUP3 PUSH2 0x58C JUMP JUMPDEST SWAP2 POP PUSH32 0xFFFFFFFFFFFFFFFFFFFFFFFFFFFFFFFFFFFFFFFFFFFFFFFFFFFFFFFFFFFFFFFF DUP3 SUB PUSH2 0x631 JUMPI PUSH2 0x630 PUSH2 0x595 JUMP JUMPDEST JUMPDEST PUSH1 0x1 DUP3 ADD SWAP1 POP SWAP2 SWAP1 POP JUMP JUMPDEST PUSH2 0x645 DUP2 PUSH2 0x58C JUMP JUMPDEST DUP3 MSTORE POP POP JUMP JUMPDEST PUSH0 PUSH1 0x20 DUP3 ADD SWAP1 POP PUSH2 0x65E PUSH0 DUP4 ADD DUP5 PUSH2 0x63C JUMP JUMPDEST SWAP3 SWAP2 POP POP JUMP JUMPDEST PUSH0 DUP3 DUP3 MSTORE PUSH1 0x20 DUP3 ADD SWAP1 POP SWAP3 SWAP2 POP POP JUMP JUMPDEST DUP3 DUP2 DUP4 CALLDATACOPY PUSH0 DUP4 DUP4 ADD MSTORE POP POP POP JUMP JUMPDEST PUSH0 PUSH1 0x1F NOT PUSH1 0x1F DUP4 ADD AND SWAP1 POP SWAP2 SWAP1 POP JUMP JUMPDEST PUSH0 PUSH2 0x69D DUP4 DUP6 PUSH2 0x664 JUMP JUMPDEST SWAP4 POP PUSH2 0x6AA DUP4 DUP6 DUP5 PUSH2 0x674 JUMP JUMPDEST PUSH2 0x6B3 DUP4 PUSH2 0x682 JUMP JUMPDEST DUP5 ADD SWAP1 POP SWAP4 SWAP3 POP POP POP JUMP JUMPDEST PUSH0 PUSH1 0x40 DUP3 ADD SWAP1 POP PUSH2 0x6D1 PUSH0 DUP4 ADD DUP7 PUSH2 0x63C JUMP JUMPDEST DUP2 DUP2 SUB PUSH1 0x20 DUP4 ADD MSTORE PUSH2 0x6E4 DUP2 DUP5 DUP7 PUSH2 0x692 JUMP JUMPDEST SWAP1 POP SWAP5 SWAP4 POP POP POP POP JUMP JUMPDEST PUSH0 PUSH20 0xFFFFFFFFFFFFFFFFFFFFFFFFFFFFFFFFFFFFFFFF DUP3 AND SWAP1 POP SWAP2 SWAP1 POP JUMP JUMPDEST PUSH0 PUSH2 0x717 DUP3 PUSH2 0x6EE JUMP JUMPDEST SWAP1 POP SWAP2 SWAP1 POP JUMP JUMPDEST PUSH2 0x727 DUP2 PUSH2 0x70D JUMP JUMPDEST DUP3 MSTORE POP POP JUMP JUMPDEST PUSH0 PUSH1 0x20 DUP3 ADD SWAP1 POP PUSH2 0x740 PUSH0 DUP4 ADD DUP5 PUSH2 0x71E JUMP JUMPDEST SWAP3 SWAP2 POP POP JUMP JUMPDEST PUSH0 PUSH0 REVERT JUMPDEST PUSH2 0x753 DUP2 PUSH2 0x58C JUMP JUMPDEST DUP2 EQ PUSH2 0x75D JUMPI PUSH0 PUSH0 REVERT JUMPDEST POP JUMP JUMPDEST PUSH0 DUP2 CALLDATALOAD SWAP1 POP PUSH2 0x76E DUP2 PUSH2 0x74A JUMP JUMPDEST SWAP3 SWAP2 POP POP JUMP JUMPDEST PUSH0 PUSH1 0x20 DUP3 DUP5 SUB SLT ISZERO PUSH2 0x789 JUMPI PUSH2 0x788 PUSH2 0x746 JUMP JUMPDEST JUMPDEST PUSH0 PUSH2 0x796 DUP5 DUP3 DUP6 ADD PUSH2 0x760 JUMP JUMPDEST SWAP2 POP POP SWAP3 SWAP2 POP POP JUMP JUMPDEST PUSH0 DUP3 DUP3 MSTORE PUSH1 0x20 DUP3 ADD SWAP1 POP SWAP3 SWAP2 POP POP JUMP JUMPDEST PUSH32 0x4E6F7420746865206F776E657200000000000000000000000000000000000000 PUSH0 DUP3 ADD MSTORE POP JUMP JUMPDEST PUSH0 PUSH2 0x7E3 PUSH1 0xD DUP4 PUSH2 0x79F JUMP JUMPDEST SWAP2 POP PUSH2 0x7EE DUP3 PUSH2 0x7AF JUMP JUMPDEST PUSH1 0x20 DUP3 ADD SWAP1 POP SWAP2 SWAP1 POP JUMP JUMPDEST PUSH0 PUSH1 0x20 DUP3 ADD SWAP1 POP DUP2 DUP2 SUB PUSH0 DUP4 ADD MSTORE PUSH2 0x810 DUP2 PUSH2 0x7D7 JUMP JUMPDEST SWAP1 POP SWAP2 SWAP1 POP JUMP JUMPDEST PUSH32 0x496E73756666696369656E7420636F6E74726163742062616C616E6365000000 PUSH0 DUP3 ADD MSTORE POP JUMP JUMPDEST PUSH0 PUSH2 0x84B PUSH1 0x1D DUP4 PUSH2 0x79F JUMP JUMPDEST SWAP2 POP PUSH2 0x856 DUP3 PUSH2 0x817 JUMP JUMPDEST PUSH1 0x20 DUP3 ADD SWAP1 POP SWAP2 SWAP1 POP JUMP JUMPDEST PUSH0 PUSH1 0x20 DUP3 ADD SWAP1 POP DUP2 DUP2 SUB PUSH0 DUP4 ADD MSTORE PUSH2 0x878 DUP2 PUSH2 0x83F JUMP JUMPDEST SWAP1 POP SWAP2 SWAP1 POP JUMP JUMPDEST PUSH0 DUP2 SWAP1 POP SWAP3 SWAP2 POP POP JUMP JUMPDEST POP JUMP JUMPDEST PUSH0 PUSH2 0x897 PUSH0 DUP4 PUSH2 0x87F JUMP JUMPDEST SWAP2 POP PUSH2 0x8A2 DUP3 PUSH2 0x889 JUMP JUMPDEST PUSH0 DUP3 ADD SWAP1 POP SWAP2 SWAP1 POP JUMP JUMPDEST PUSH0 PUSH2 0x8B6 DUP3 PUSH2 0x88C JUMP JUMPDEST SWAP2 POP DUP2 SWAP1 POP SWAP2 SWAP1 POP JUMP JUMPDEST PUSH32 0x5472616E73666572206661696C65640000000000000000000000000000000000 PUSH0 DUP3 ADD MSTORE POP JUMP JUMPDEST PUSH0 PUSH2 0x8F4 PUSH1 0xF DUP4 PUSH2 0x79F JUMP JUMPDEST SWAP2 POP PUSH2 0x8FF DUP3 PUSH2 0x8C0 JUMP JUMPDEST PUSH1 0x20 DUP3 ADD SWAP1 POP SWAP2 SWAP1 POP JUMP JUMPDEST PUSH0 PUSH1 0x20 DUP3 ADD SWAP1 POP DUP2 DUP2 SUB PUSH0 DUP4 ADD MSTORE PUSH2 0x921 DUP2 PUSH2 0x8E8 JUMP JUMPDEST SWAP1 POP SWAP2 SWAP1 POP JUMP INVALID LOG2 PUSH5 0x6970667358 0x22 SLT KECCAK256 MULMOD BASEFEE PUSH27 0x53C2C68809194B02EDAD82BC87176E02BF93DD717C25A2C20C4EE MUL GASLIMIT PUSH5 0x736F6C6343 STOP ADDMOD 0x22 STOP CALLER "
				},
				"gasEstimates": {
					"creation": {
						"codeDepositCost": "479600",
						"executionCost": "24774",
						"totalCost": "504374"
					},
					"external": {
						"": "infinite",
						"contractBalance()": "379",
						"fallbackCounter()": "2447",
						"lastSender()": "2509",
						"owner()": "2508",
						"receiveCounter()": "2491",
						"totalReceived()": "2468",
						"withdraw(uint256)": "infinite"
					}
				},
				"methodIdentifiers": {
					"contractBalance()": "8b7afe2e",
					"fallbackCounter()": "a170d737",
					"lastSender()": "256fec88",
					"owner()": "8da5cb5b",
					"receiveCounter()": "c3ca5ffe",
					"totalReceived()": "a3c2c462",
					"withdraw(uint256)": "2e1a7d4d"
				}
			},
			"storageLayout": {
				"storage": [
					{
						"astId": 77,
						"contract": "val55.sol:ETHReceiver",
						"label": "totalReceived",
						"offset": 0,
						"slot": "0",
						"type": "t_uint256"
					},
					{
						"astId": 79,
						"contract": "val55.sol:ETHReceiver",
						"label": "lastSender",
						"offset": 0,
						"slot": "1",
						"type": "t_address"
					},
					{
						"astId": 81,
						"contract": "val55.sol:ETHReceiver",
						"label": "receiveCounter",
						"offset": 0,
						"slot": "2",
						"type": "t_uint256"
					},
					{
						"astId": 83,
						"contract": "val55.sol:ETHReceiver",
						"label": "fallbackCounter",
						"offset": 0,
						"slot": "3",
						"type": "t_uint256"
					},
					{
						"astId": 85,
						"contract": "val55.sol:ETHReceiver",
						"label": "owner",
						"offset": 0,
						"slot": "4",
						"type": "t_address"
					}
				],
				"types": {
					"t_address": {
						"encoding": "inplace",
						"label": "address",
						"numberOfBytes": "20"
					},
					"t_uint256": {
						"encoding": "inplace",
						"label": "uint256",
						"numberOfBytes": "32"
					}
				}
			},
			"userdoc": {
				"kind": "user",
				"methods": {},
				"version": 1
			}
		}
	}
}