{
	"val55.sol": {
		"ETHSender": {
			"abi": [
				{
					"inputs": [
						{
							"internalType": "address payable",
							"name": "_receiver",
							"type": "address"
						}
					],
					"stateMutability": "nonpayable",
					"type": "constructor"
				},
				{
					"inputs": [],
					"name": "lastSuccess",
					"outputs": [
						{
							"internalType": "bool",
							"name": "",
							"type": "bool"
						}
					],
					"stateMutability": "view",
					"type": "function"
				},
				{
					"inputs": [],
					"name": "receiver",
					"outputs": [
						{
							"internalType": "address payable",
							"name": "",
							"type": "address"
						}
					],
					"stateMutability": "view",
					"type": "function"
				},
				{
					"inputs": [],
					"name": "sendETH",
					"outputs": [],
					"stateMutability": "payable",
					"type": "function"
				},
				{
					"inputs": [],
					"name": "triggerFallback",
					"outputs": [],
					"stateMutability": "payable",
					"type": "function"
				}
			],
			"devdoc": {
				"kind": "dev",
				"methods": {},
				"version": 1
			},
			"evm": {
				"assembly": "    /* \"val55.sol\":17388:18818  contract ETHSender {... */\n  mstore(0x40, 0x80)\n    /* \"val55.sol\":17616:17701  constructor(address payable _receiver)... */\n  callvalue\n  dup1\n  iszero\n  tag_1\n  jumpi\n  revert(0x00, 0x00)\ntag_1:\n  pop\n  mload(0x40)\n  sub(codesize, bytecodeSize)\n  dup1\n  bytecodeSize\n  dup4\n  codecopy\n  dup2\n  dup2\n  add\n  0x40\n  mstore\n  dup2\n  add\n  swap1\n  tag_2\n  swap2\n  swap1\n  tag_3\n  jump\t// in\ntag_2:\n    /* \"val55.sol\":17684:17693  _receiver */\n  dup1\n    /* \"val55.sol\":17673:17681  receiver */\n  0x00\n  0x00\n    /* \"val55.sol\":17673:17693  receiver = _receiver */\n  0x0100\n  exp\n  dup2\n  sload\n  dup2\n  0xffffffffffffffffffffffffffffffffffffffff\n  mul\n  not\n  and\n  swap1\n  dup4\n  0xffffffffffffffffffffffffffffffffffffffff\n  and\n  mul\n  or\n  swap1\n  sstore\n  pop\n    /* \"val55.sol\":17616:17701  constructor(address payable _receiver)... */\n  pop\n    /* \"val55.sol\":17388:18818  contract ETHSender {... */\n  jump(tag_6)\n    /* \"#utility.yul\":88:205   */\ntag_8:\n    /* \"#utility.yul\":197:198   */\n  0x00\n    /* \"#utility.yul\":194:195   */\n  0x00\n    /* \"#utility.yul\":187:199   */\n  revert\n    /* \"#utility.yul\":334:460   */\ntag_10:\n    /* \"#utility.yul\":371:378   */\n  0x00\n    /* \"#utility.yul\":411:453   */\n  0xffffffffffffffffffffffffffffffffffffffff\n    /* \"#utility.yul\":404:409   */\n  dup3\n    /* \"#utility.yul\":400:454   */\n  and\n    /* \"#utility.yul\":389:454   */\n  swap1\n  pop\n    /* \"#utility.yul\":334:460   */\n  swap2\n  swap1\n  pop\n  jump\t// out\n    /* \"#utility.yul\":466:570   */\ntag_11:\n    /* \"#utility.yul\":511:518   */\n  0x00\n    /* \"#utility.yul\":540:564   */\n  tag_20\n    /* \"#utility.yul\":558:563   */\n  dup3\n    /* \"#utility.yul\":540:564   */\n  tag_10\n  jump\t// in\ntag_20:\n    /* \"#utility.yul\":529:564   */\n  swap1\n  pop\n    /* \"#utility.yul\":466:570   */\n  swap2\n  swap1\n  pop\n  jump\t// out\n    /* \"#utility.yul\":576:714   */\ntag_12:\n    /* \"#utility.yul\":657:689   */\n  tag_22\n    /* \"#utility.yul\":683:688   */\n  dup2\n    /* \"#utility.yul\":657:689   */\n  tag_11\n  jump\t// in\ntag_22:\n    /* \"#utility.yul\":650:655   */\n  dup2\n    /* \"#utility.yul\":647:690   */\n  eq\n    /* \"#utility.yul\":637:708   */\n  tag_23\n  jumpi\n    /* \"#utility.yul\":704:705   */\n  0x00\n    /* \"#utility.yul\":701:702   */\n  0x00\n    /* \"#utility.yul\":694:706   */\n  revert\n    /* \"#utility.yul\":637:708   */\ntag_23:\n    /* \"#utility.yul\":576:714   */\n  pop\n  jump\t// out\n    /* \"#utility.yul\":720:879   */\ntag_13:\n    /* \"#utility.yul\":785:790   */\n  0x00\n    /* \"#utility.yul\":816:822   */\n  dup2\n    /* \"#utility.yul\":810:823   */\n  mload\n    /* \"#utility.yul\":801:823   */\n  swap1\n  pop\n    /* \"#utility.yul\":832:873   */\n  tag_25\n    /* \"#utility.yul\":867:872   */\n  dup2\n    /* \"#utility.yul\":832:873   */\n  tag_12\n  jump\t// in\ntag_25:\n    /* \"#utility.yul\":720:879   */\n  swap3\n  swap2\n  pop\n  pop\n  jump\t// out\n    /* \"#utility.yul\":885:1252   */\ntag_3:\n    /* \"#utility.yul\":963:969   */\n  0x00\n    /* \"#utility.yul\":1012:1014   */\n  0x20\n    /* \"#utility.yul\":1000:1009   */\n  dup3\n    /* \"#utility.yul\":991:998   */\n  dup5\n    /* \"#utility.yul\":987:1010   */\n  sub\n    /* \"#utility.yul\":983:1015   */\n  slt\n    /* \"#utility.yul\":980:1099   */\n  iszero\n  tag_27\n  jumpi\n    /* \"#utility.yul\":1018:1097   */\n  tag_28\n  tag_8\n  jump\t// in\ntag_28:\n    /* \"#utility.yul\":980:1099   */\ntag_27:\n    /* \"#utility.yul\":1138:1139   */\n  0x00\n    /* \"#utility.yul\":1163:1235   */\n  tag_29\n    /* \"#utility.yul\":1227:1234   */\n  dup5\n    /* \"#utility.yul\":1218:1224   */\n  dup3\n    /* \"#utility.yul\":1207:1216   */\n  dup6\n    /* \"#utility.yul\":1203:1225   */\n  add\n    /* \"#utility.yul\":1163:1235   */\n  tag_13\n  jump\t// in\ntag_29:\n    /* \"#utility.yul\":1153:1235   */\n  swap2\n  pop\n    /* \"#utility.yul\":1109:1245   */\n  pop\n    /* \"#utility.yul\":885:1252   */\n  swap3\n  swap2\n  pop\n  pop\n  jump\t// out\n    /* \"val55.sol\":17388:18818  contract ETHSender {... */\ntag_6:\n  dataSize(sub_0)\n  dup1\n  dataOffset(sub_0)\n  0x00\n  codecopy\n  0x00\n  return\nstop\n\nsub_0: assembly {\n        /* \"val55.sol\":17388:18818  contract ETHSender {... */\n      mstore(0x40, 0x80)\n      jumpi(tag_1, lt(calldatasize, 0x04))\n      shr(0xe0, calldataload(0x00))\n      dup1\n      0x1d16d9a0\n      eq\n      tag_2\n      jumpi\n      dup1\n      0x2acda0c8\n      eq\n      tag_3\n      jumpi\n      dup1\n      0x9415bc59\n      eq\n      tag_4\n      jumpi\n      dup1\n      0xf7260d3e\n      eq\n      tag_5\n      jumpi\n    tag_1:\n      revert(0x00, 0x00)\n        /* \"val55.sol\":17885:18408  function sendETH()... */\n    tag_2:\n      tag_6\n      tag_7\n      jump\t// in\n    tag_6:\n      stop\n        /* \"val55.sol\":18489:18815  function triggerFallback() external payable ... */\n    tag_3:\n      tag_8\n      tag_9\n      jump\t// in\n    tag_8:\n      stop\n        /* \"val55.sol\":17547:17570  bool public lastSuccess */\n    tag_4:\n      callvalue\n      dup1\n      iszero\n      tag_10\n      jumpi\n      revert(0x00, 0x00)\n    tag_10:\n      pop\n      tag_11\n      tag_12\n      jump\t// in\n    tag_11:\n      mload(0x40)\n      tag_13\n      swap2\n      swap1\n      tag_14\n      jump\t// in\n    tag_13:\n      mload(0x40)\n      dup1\n      swap2\n      sub\n      swap1\n      return\n        /* \"val55.sol\":17464:17495  address payable public receiver */\n    tag_5:\n      callvalue\n      dup1\n      iszero\n      tag_15\n      jumpi\n      revert(0x00, 0x00)\n    tag_15:\n      pop\n      tag_16\n      tag_17\n      jump\t// in\n    tag_16:\n      mload(0x40)\n      tag_18\n      swap2\n      swap1\n      tag_19\n      jump\t// in\n    tag_18:\n      mload(0x40)\n      dup1\n      swap2\n      sub\n      swap1\n      return\n        /* \"val55.sol\":17885:18408  function sendETH()... */\n    tag_7:\n        /* \"val55.sol\":18078:18090  bool success */\n      0x00\n        /* \"val55.sol\":18109:18117  receiver */\n      0x00\n      0x00\n      swap1\n      sload\n      swap1\n      0x0100\n      exp\n      swap1\n      div\n      0xffffffffffffffffffffffffffffffffffffffff\n      and\n        /* \"val55.sol\":18109:18122  receiver.call */\n      0xffffffffffffffffffffffffffffffffffffffff\n      and\n        /* \"val55.sol\":18148:18157  msg.value */\n      callvalue\n        /* \"val55.sol\":18109:18176  receiver.call{... */\n      mload(0x40)\n      tag_21\n      swap1\n      tag_22\n      jump\t// in\n    tag_21:\n      0x00\n      mload(0x40)\n      dup1\n      dup4\n      sub\n      dup2\n      dup6\n      dup8\n      gas\n      call\n      swap3\n      pop\n      pop\n      pop\n      returndatasize\n      dup1\n      0x00\n      dup2\n      eq\n      tag_25\n      jumpi\n      mload(0x40)\n      swap2\n      pop\n      and(add(returndatasize, 0x3f), not(0x1f))\n      dup3\n      add\n      0x40\n      mstore\n      returndatasize\n      dup3\n      mstore\n      returndatasize\n      0x00\n      0x20\n      dup5\n      add\n      returndatacopy\n      jump(tag_24)\n    tag_25:\n      0x60\n      swap2\n      pop\n    tag_24:\n      pop\n        /* \"val55.sol\":18077:18176  (bool success, ) =... */\n      pop\n      swap1\n      pop\n        /* \"val55.sol\":18252:18259  success */\n      dup1\n        /* \"val55.sol\":18238:18249  lastSuccess */\n      0x00\n      0x14\n        /* \"val55.sol\":18238:18259  lastSuccess = success */\n      0x0100\n      exp\n      dup2\n      sload\n      dup2\n      0xff\n      mul\n      not\n      and\n      swap1\n      dup4\n      iszero\n      iszero\n      mul\n      or\n      swap1\n      sstore\n      pop\n        /* \"val55.sol\":18346:18353  success */\n      dup1\n        /* \"val55.sol\":18324:18400  require(... */\n      tag_26\n      jumpi\n      mload(0x40)\n      0x08c379a000000000000000000000000000000000000000000000000000000000\n      dup2\n      mstore\n      0x04\n      add\n      tag_27\n      swap1\n      tag_28\n      jump\t// in\n    tag_27:\n      mload(0x40)\n      dup1\n      swap2\n      sub\n      swap1\n      revert\n    tag_26:\n        /* \"val55.sol\":17944:18408  {... */\n      pop\n        /* \"val55.sol\":17885:18408  function sendETH()... */\n      jump\t// out\n        /* \"val55.sol\":18489:18815  function triggerFallback() external payable ... */\n    tag_9:\n        /* \"val55.sol\":18551:18563  bool success */\n      0x00\n        /* \"val55.sol\":18569:18577  receiver */\n      0x00\n      0x00\n      swap1\n      sload\n      swap1\n      0x0100\n      exp\n      swap1\n      div\n      0xffffffffffffffffffffffffffffffffffffffff\n      and\n        /* \"val55.sol\":18569:18582  receiver.call */\n      0xffffffffffffffffffffffffffffffffffffffff\n      and\n        /* \"val55.sol\":18615:18624  msg.value */\n      callvalue\n        /* \"val55.sol\":18650:18691  abi.encodeWithSignature(\"fackFunction()\") */\n      add(0x24, mload(0x40))\n      mload(0x40)\n      0x20\n      dup2\n      dup4\n      sub\n      sub\n      dup2\n      mstore\n      swap1\n      0x40\n      mstore\n      and(not(0xffffffffffffffffffffffffffffffffffffffffffffffffffffffff), 0xfc0545e200000000000000000000000000000000000000000000000000000000)\n      0x20\n      dup3\n      add\n      dup1\n      mload\n      0xffffffffffffffffffffffffffffffffffffffffffffffffffffffff\n      dup4\n      dup2\n      dup4\n      and\n      or\n      dup4\n      mstore\n      pop\n      pop\n      pop\n      pop\n        /* \"val55.sol\":18569:18702  receiver.call ... */\n      mload(0x40)\n      tag_30\n      swap2\n      swap1\n      tag_31\n      jump\t// in\n    tag_30:\n      0x00\n      mload(0x40)\n      dup1\n      dup4\n      sub\n      dup2\n      dup6\n      dup8\n      gas\n      call\n      swap3\n      pop\n      pop\n      pop\n      returndatasize\n      dup1\n      0x00\n      dup2\n      eq\n      tag_34\n      jumpi\n      mload(0x40)\n      swap2\n      pop\n      and(add(returndatasize, 0x3f), not(0x1f))\n      dup3\n      add\n      0x40\n      mstore\n      returndatasize\n      dup3\n      mstore\n      returndatasize\n      0x00\n      0x20\n      dup5\n      add\n      returndatacopy\n      jump(tag_33)\n    tag_34:\n      0x60\n      swap2\n      pop\n    tag_33:\n      pop\n        /* \"val55.sol\":18550:18702  (bool success, ) = receiver.call ... */\n      pop\n      swap1\n      pop\n        /* \"val55.sol\":18733:18740  success */\n      dup1\n        /* \"val55.sol\":18719:18730  lastSuccess */\n      0x00\n      0x14\n        /* \"val55.sol\":18719:18740  lastSuccess = success */\n      0x0100\n      exp\n      dup2\n      sload\n      dup2\n      0xff\n      mul\n      not\n      and\n      swap1\n      dup4\n      iszero\n      iszero\n      mul\n      or\n      swap1\n      sstore\n      pop\n        /* \"val55.sol\":18765:18772  success */\n      dup1\n        /* \"val55.sol\":18757:18797  require(success, \"Fallback call failed\") */\n      tag_35\n      jumpi\n      mload(0x40)\n      0x08c379a000000000000000000000000000000000000000000000000000000000\n      dup2\n      mstore\n      0x04\n      add\n      tag_36\n      swap1\n      tag_37\n      jump\t// in\n    tag_36:\n      mload(0x40)\n      dup1\n      swap2\n      sub\n      swap1\n      revert\n    tag_35:\n        /* \"val55.sol\":18539:18815  {... */\n      pop\n        /* \"val55.sol\":18489:18815  function triggerFallback() external payable ... */\n      jump\t// out\n        /* \"val55.sol\":17547:17570  bool public lastSuccess */\n    tag_12:\n      0x00\n      0x14\n      swap1\n      sload\n      swap1\n      0x0100\n      exp\n      swap1\n      div\n      0xff\n      and\n      dup2\n      jump\t// out\n        /* \"val55.sol\":17464:17495  address payable public receiver */\n    tag_17:\n      0x00\n      0x00\n      swap1\n      sload\n      swap1\n      0x0100\n      exp\n      swap1\n      div\n      0xffffffffffffffffffffffffffffffffffffffff\n      and\n      dup2\n      jump\t// out\n        /* \"#utility.yul\":7:97   */\n    tag_38:\n        /* \"#utility.yul\":41:48   */\n      0x00\n        /* \"#utility.yul\":84:89   */\n      dup2\n        /* \"#utility.yul\":77:90   */\n      iszero\n        /* \"#utility.yul\":70:91   */\n      iszero\n        /* \"#utility.yul\":59:91   */\n      swap1\n      pop\n        /* \"#utility.yul\":7:97   */\n      swap2\n      swap1\n      pop\n      jump\t// out\n        /* \"#utility.yul\":103:212   */\n    tag_39:\n        /* \"#utility.yul\":184:205   */\n      tag_57\n        /* \"#utility.yul\":199:204   */\n      dup2\n        /* \"#utility.yul\":184:205   */\n      tag_38\n      jump\t// in\n    tag_57:\n        /* \"#utility.yul\":179:182   */\n      dup3\n        /* \"#utility.yul\":172:206   */\n      mstore\n        /* \"#utility.yul\":103:212   */\n      pop\n      pop\n      jump\t// out\n        /* \"#utility.yul\":218:428   */\n    tag_14:\n        /* \"#utility.yul\":305:309   */\n      0x00\n        /* \"#utility.yul\":343:345   */\n      0x20\n        /* \"#utility.yul\":332:341   */\n      dup3\n        /* \"#utility.yul\":328:346   */\n      add\n        /* \"#utility.yul\":320:346   */\n      swap1\n      pop\n        /* \"#utility.yul\":356:421   */\n      tag_59\n        /* \"#utility.yul\":418:419   */\n      0x00\n        /* \"#utility.yul\":407:416   */\n      dup4\n        /* \"#utility.yul\":403:420   */\n      add\n        /* \"#utility.yul\":394:400   */\n      dup5\n        /* \"#utility.yul\":356:421   */\n      tag_39\n      jump\t// in\n    tag_59:\n        /* \"#utility.yul\":218:428   */\n      swap3\n      swap2\n      pop\n      pop\n      jump\t// out\n        /* \"#utility.yul\":434:560   */\n    tag_40:\n        /* \"#utility.yul\":471:478   */\n      0x00\n        /* \"#utility.yul\":511:553   */\n      0xffffffffffffffffffffffffffffffffffffffff\n        /* \"#utility.yul\":504:509   */\n      dup3\n        /* \"#utility.yul\":500:554   */\n      and\n        /* \"#utility.yul\":489:554   */\n      swap1\n      pop\n        /* \"#utility.yul\":434:560   */\n      swap2\n      swap1\n      pop\n      jump\t// out\n        /* \"#utility.yul\":566:670   */\n    tag_41:\n        /* \"#utility.yul\":611:618   */\n      0x00\n        /* \"#utility.yul\":640:664   */\n      tag_62\n        /* \"#utility.yul\":658:663   */\n      dup3\n        /* \"#utility.yul\":640:664   */\n      tag_40\n      jump\t// in\n    tag_62:\n        /* \"#utility.yul\":629:664   */\n      swap1\n      pop\n        /* \"#utility.yul\":566:670   */\n      swap2\n      swap1\n      pop\n      jump\t// out\n        /* \"#utility.yul\":676:818   */\n    tag_42:\n        /* \"#utility.yul\":779:811   */\n      tag_64\n        /* \"#utility.yul\":805:810   */\n      dup2\n        /* \"#utility.yul\":779:811   */\n      tag_41\n      jump\t// in\n    tag_64:\n        /* \"#utility.yul\":774:777   */\n      dup3\n        /* \"#utility.yul\":767:812   */\n      mstore\n        /* \"#utility.yul\":676:818   */\n      pop\n      pop\n      jump\t// out\n        /* \"#utility.yul\":824:1078   */\n    tag_19:\n        /* \"#utility.yul\":933:937   */\n      0x00\n        /* \"#utility.yul\":971:973   */\n      0x20\n        /* \"#utility.yul\":960:969   */\n      dup3\n        /* \"#utility.yul\":956:974   */\n      add\n        /* \"#utility.yul\":948:974   */\n      swap1\n      pop\n        /* \"#utility.yul\":984:1071   */\n      tag_66\n        /* \"#utility.yul\":1068:1069   */\n      0x00\n        /* \"#utility.yul\":1057:1066   */\n      dup4\n        /* \"#utility.yul\":1053:1070   */\n      add\n        /* \"#utility.yul\":1044:1050   */\n      dup5\n        /* \"#utility.yul\":984:1071   */\n      tag_42\n      jump\t// in\n    tag_66:\n        /* \"#utility.yul\":824:1078   */\n      swap3\n      swap2\n      pop\n      pop\n      jump\t// out\n        /* \"#utility.yul\":1084:1231   */\n    tag_43:\n        /* \"#utility.yul\":1185:1196   */\n      0x00\n        /* \"#utility.yul\":1222:1225   */\n      dup2\n        /* \"#utility.yul\":1207:1225   */\n      swap1\n      pop\n        /* \"#utility.yul\":1084:1231   */\n      swap3\n      swap2\n      pop\n      pop\n      jump\t// out\n        /* \"#utility.yul\":1237:1351   */\n    tag_44:\n      pop\n      jump\t// out\n        /* \"#utility.yul\":1357:1755   */\n    tag_45:\n        /* \"#utility.yul\":1516:1519   */\n      0x00\n        /* \"#utility.yul\":1537:1620   */\n      tag_70\n        /* \"#utility.yul\":1618:1619   */\n      0x00\n        /* \"#utility.yul\":1613:1616   */\n      dup4\n        /* \"#utility.yul\":1537:1620   */\n      tag_43\n      jump\t// in\n    tag_70:\n        /* \"#utility.yul\":1530:1620   */\n      swap2\n      pop\n        /* \"#utility.yul\":1629:1722   */\n      tag_71\n        /* \"#utility.yul\":1718:1721   */\n      dup3\n        /* \"#utility.yul\":1629:1722   */\n      tag_44\n      jump\t// in\n    tag_71:\n        /* \"#utility.yul\":1747:1748   */\n      0x00\n        /* \"#utility.yul\":1742:1745   */\n      dup3\n        /* \"#utility.yul\":1738:1749   */\n      add\n        /* \"#utility.yul\":1731:1749   */\n      swap1\n      pop\n        /* \"#utility.yul\":1357:1755   */\n      swap2\n      swap1\n      pop\n      jump\t// out\n        /* \"#utility.yul\":1761:2140   */\n    tag_22:\n        /* \"#utility.yul\":1945:1948   */\n      0x00\n        /* \"#utility.yul\":1967:2114   */\n      tag_73\n        /* \"#utility.yul\":2110:2113   */\n      dup3\n        /* \"#utility.yul\":1967:2114   */\n      tag_45\n      jump\t// in\n    tag_73:\n        /* \"#utility.yul\":1960:2114   */\n      swap2\n      pop\n        /* \"#utility.yul\":2131:2134   */\n      dup2\n        /* \"#utility.yul\":2124:2134   */\n      swap1\n      pop\n        /* \"#utility.yul\":1761:2140   */\n      swap2\n      swap1\n      pop\n      jump\t// out\n        /* \"#utility.yul\":2146:2315   */\n    tag_46:\n        /* \"#utility.yul\":2230:2241   */\n      0x00\n        /* \"#utility.yul\":2264:2270   */\n      dup3\n        /* \"#utility.yul\":2259:2262   */\n      dup3\n        /* \"#utility.yul\":2252:2271   */\n      mstore\n        /* \"#utility.yul\":2304:2308   */\n      0x20\n        /* \"#utility.yul\":2299:2302   */\n      dup3\n        /* \"#utility.yul\":2295:2309   */\n      add\n        /* \"#utility.yul\":2280:2309   */\n      swap1\n      pop\n        /* \"#utility.yul\":2146:2315   */\n      swap3\n      swap2\n      pop\n      pop\n      jump\t// out\n        /* \"#utility.yul\":2321:2490   */\n    tag_47:\n        /* \"#utility.yul\":2461:2482   */\n      0x455448207472616e73666572206661696c656400000000000000000000000000\n        /* \"#utility.yul\":2457:2458   */\n      0x00\n        /* \"#utility.yul\":2449:2455   */\n      dup3\n        /* \"#utility.yul\":2445:2459   */\n      add\n        /* \"#utility.yul\":2438:2483   */\n      mstore\n        /* \"#utility.yul\":2321:2490   */\n      pop\n      jump\t// out\n        /* \"#utility.yul\":2496:2862   */\n    tag_48:\n        /* \"#utility.yul\":2638:2641   */\n      0x00\n        /* \"#utility.yul\":2659:2726   */\n      tag_77\n        /* \"#utility.yul\":2723:2725   */\n      0x13\n        /* \"#utility.yul\":2718:2721   */\n      dup4\n        /* \"#utility.yul\":2659:2726   */\n      tag_46\n      jump\t// in\n    tag_77:\n        /* \"#utility.yul\":2652:2726   */\n      swap2\n      pop\n        /* \"#utility.yul\":2735:2828   */\n      tag_78\n        /* \"#utility.yul\":2824:2827   */\n      dup3\n        /* \"#utility.yul\":2735:2828   */\n      tag_47\n      jump\t// in\n    tag_78:\n        /* \"#utility.yul\":2853:2855   */\n      0x20\n        /* \"#utility.yul\":2848:2851   */\n      dup3\n        /* \"#utility.yul\":2844:2856   */\n      add\n        /* \"#utility.yul\":2837:2856   */\n      swap1\n      pop\n        /* \"#utility.yul\":2496:2862   */\n      swap2\n      swap1\n      pop\n      jump\t// out\n        /* \"#utility.yul\":2868:3287   */\n    tag_28:\n        /* \"#utility.yul\":3034:3038   */\n      0x00\n        /* \"#utility.yul\":3072:3074   */\n      0x20\n        /* \"#utility.yul\":3061:3070   */\n      dup3\n        /* \"#utility.yul\":3057:3075   */\n      add\n        /* \"#utility.yul\":3049:3075   */\n      swap1\n      pop\n        /* \"#utility.yul\":3121:3130   */\n      dup2\n        /* \"#utility.yul\":3115:3119   */\n      dup2\n        /* \"#utility.yul\":3111:3131   */\n      sub\n        /* \"#utility.yul\":3107:3108   */\n      0x00\n        /* \"#utility.yul\":3096:3105   */\n      dup4\n        /* \"#utility.yul\":3092:3109   */\n      add\n        /* \"#utility.yul\":3085:3132   */\n      mstore\n        /* \"#utility.yul\":3149:3280   */\n      tag_80\n        /* \"#utility.yul\":3275:3279   */\n      dup2\n        /* \"#utility.yul\":3149:3280   */\n      tag_48\n      jump\t// in\n    tag_80:\n        /* \"#utility.yul\":3141:3280   */\n      swap1\n      pop\n        /* \"#utility.yul\":2868:3287   */\n      swap2\n      swap1\n      pop\n      jump\t// out\n        /* \"#utility.yul\":3293:3391   */\n    tag_49:\n        /* \"#utility.yul\":3344:3350   */\n      0x00\n        /* \"#utility.yul\":3378:3383   */\n      dup2\n        /* \"#utility.yul\":3372:3384   */\n      mload\n        /* \"#utility.yul\":3362:3384   */\n      swap1\n      pop\n        /* \"#utility.yul\":3293:3391   */\n      swap2\n      swap1\n      pop\n      jump\t// out\n        /* \"#utility.yul\":3397:3536   */\n    tag_50:\n        /* \"#utility.yul\":3486:3492   */\n      dup3\n        /* \"#utility.yul\":3481:3484   */\n      dup2\n        /* \"#utility.yul\":3476:3479   */\n      dup4\n        /* \"#utility.yul\":3470:3493   */\n      mcopy\n        /* \"#utility.yul\":3527:3528   */\n      0x00\n        /* \"#utility.yul\":3518:3524   */\n      dup4\n        /* \"#utility.yul\":3513:3516   */\n      dup4\n        /* \"#utility.yul\":3509:3525   */\n      add\n        /* \"#utility.yul\":3502:3529   */\n      mstore\n        /* \"#utility.yul\":3397:3536   */\n      pop\n      pop\n      pop\n      jump\t// out\n        /* \"#utility.yul\":3542:3928   */\n    tag_51:\n        /* \"#utility.yul\":3646:3649   */\n      0x00\n        /* \"#utility.yul\":3674:3712   */\n      tag_84\n        /* \"#utility.yul\":3706:3711   */\n      dup3\n        /* \"#utility.yul\":3674:3712   */\n      tag_49\n      jump\t// in\n    tag_84:\n        /* \"#utility.yul\":3728:3816   */\n      tag_85\n        /* \"#utility.yul\":3809:3815   */\n      dup2\n        /* \"#utility.yul\":3804:3807   */\n      dup6\n        /* \"#utility.yul\":3728:3816   */\n      tag_43\n      jump\t// in\n    tag_85:\n        /* \"#utility.yul\":3721:3816   */\n      swap4\n      pop\n        /* \"#utility.yul\":3825:3890   */\n      tag_86\n        /* \"#utility.yul\":3883:3889   */\n      dup2\n        /* \"#utility.yul\":3878:3881   */\n      dup6\n        /* \"#utility.yul\":3871:3875   */\n      0x20\n        /* \"#utility.yul\":3864:3869   */\n      dup7\n        /* \"#utility.yul\":3860:3876   */\n      add\n        /* \"#utility.yul\":3825:3890   */\n      tag_50\n      jump\t// in\n    tag_86:\n        /* \"#utility.yul\":3915:3921   */\n      dup1\n        /* \"#utility.yul\":3910:3913   */\n      dup5\n        /* \"#utility.yul\":3906:3922   */\n      add\n        /* \"#utility.yul\":3899:3922   */\n      swap2\n      pop\n        /* \"#utility.yul\":3650:3928   */\n      pop\n        /* \"#utility.yul\":3542:3928   */\n      swap3\n      swap2\n      pop\n      pop\n      jump\t// out\n        /* \"#utility.yul\":3934:4205   */\n    tag_31:\n        /* \"#utility.yul\":4064:4067   */\n      0x00\n        /* \"#utility.yul\":4086:4179   */\n      tag_88\n        /* \"#utility.yul\":4175:4178   */\n      dup3\n        /* \"#utility.yul\":4166:4172   */\n      dup5\n        /* \"#utility.yul\":4086:4179   */\n      tag_51\n      jump\t// in\n    tag_88:\n        /* \"#utility.yul\":4079:4179   */\n      swap2\n      pop\n        /* \"#utility.yul\":4196:4199   */\n      dup2\n        /* \"#utility.yul\":4189:4199   */\n      swap1\n      pop\n        /* \"#utility.yul\":3934:4205   */\n      swap3\n      swap2\n      pop\n      pop\n      jump\t// out\n        /* \"#utility.yul\":4211:4381   */\n    tag_52:\n        /* \"#utility.yul\":4351:4373   */\n      0x46616c6c6261636b2063616c6c206661696c6564000000000000000000000000\n        /* \"#utility.yul\":4347:4348   */\n      0x00\n        /* \"#utility.yul\":4339:4345   */\n      dup3\n        /* \"#utility.yul\":4335:4349   */\n      add\n        /* \"#utility.yul\":4328:4374   */\n      mstore\n        /* \"#utility.yul\":4211:4381   */\n      pop\n      jump\t// out\n        /* \"#utility.yul\":4387:4753   */\n    tag_53:\n        /* \"#utility.yul\":4529:4532   */\n      0x00\n        /* \"#utility.yul\":4550:4617   */\n      tag_91\n        /* \"#utility.yul\":4614:4616   */\n      0x14\n        /* \"#utility.yul\":4609:4612   */\n      dup4\n        /* \"#utility.yul\":4550:4617   */\n      tag_46\n      jump\t// in\n    tag_91:\n        /* \"#utility.yul\":4543:4617   */\n      swap2\n      pop\n        /* \"#utility.yul\":4626:4719   */\n      tag_92\n        /* \"#utility.yul\":4715:4718   */\n      dup3\n        /* \"#utility.yul\":4626:4719   */\n      tag_52\n      jump\t// in\n    tag_92:\n        /* \"#utility.yul\":4744:4746   */\n      0x20\n        /* \"#utility.yul\":4739:4742   */\n      dup3\n        /* \"#utility.yul\":4735:4747   */\n      add\n        /* \"#utility.yul\":4728:4747   */\n      swap1\n      pop\n        /* \"#utility.yul\":4387:4753   */\n      swap2\n      swap1\n      pop\n      jump\t// out\n        /* \"#utility.yul\":4759:5178   */\n    tag_37:\n        /* \"#utility.yul\":4925:4929   */\n      0x00\n        /* \"#utility.yul\":4963:4965   */\n      0x20\n        /* \"#utility.yul\":4952:4961   */\n      dup3\n        /* \"#utility.yul\":4948:4966   */\n      add\n        /* \"#utility.yul\":4940:4966   */\n      swap1\n      pop\n        /* \"#utility.yul\":5012:5021   */\n      dup2\n        /* \"#utility.yul\":5006:5010   */\n      dup2\n        /* \"#utility.yul\":5002:5022   */\n      sub\n        /* \"#utility.yul\":4998:4999   */\n      0x00\n        /* \"#utility.yul\":4987:4996   */\n      dup4\n        /* \"#utility.yul\":4983:5000   */\n      add\n        /* \"#utility.yul\":4976:5023   */\n      mstore\n        /* \"#utility.yul\":5040:5171   */\n      tag_94\n        /* \"#utility.yul\":5166:5170   */\n      dup2\n        /* \"#utility.yul\":5040:5171   */\n      tag_53\n      jump\t// in\n    tag_94:\n        /* \"#utility.yul\":5032:5171   */\n      swap1\n      pop\n        /* \"#utility.yul\":4759:5178   */\n      swap2\n      swap1\n      pop\n      jump\t// out\n\n    auxdata: 0xa264697066735822122079a8bf234bd1664ef837149a91dd774489d6de6c0c9cc041e6510166765093ff64736f6c63430008220033\n}\n",
				"bytecode": {
					"linkReferences": {},
					"object": "608060405234801561000f575f5ffd5b50604051610678380380610678833981810160405281019061003191906100d4565b805f5f6101000a81548173ffffffffffffffffffffffffffffffffffffffff021916908373ffffffffffffffffffffffffffffffffffffffff160217905550506100ff565b5f5ffd5b5f73ffffffffffffffffffffffffffffffffffffffff82169050919050565b5f6100a38261007a565b9050919050565b6100b381610099565b81146100bd575f5ffd5b50565b5f815190506100ce816100aa565b92915050565b5f602082840312156100e9576100e8610076565b5b5f6100f6848285016100c0565b91505092915050565b61056c8061010c5f395ff3fe60806040526004361061003e575f3560e01c80631d16d9a0146100425780632acda0c81461004c5780639415bc5914610056578063f7260d3e14610080575b5f5ffd5b61004a6100aa565b005b61005461018e565b005b348015610061575f5ffd5b5061006a6102f6565b6040516100779190610346565b60405180910390f35b34801561008b575f5ffd5b50610094610308565b6040516100a1919061039e565b60405180910390f35b5f5f5f9054906101000a900473ffffffffffffffffffffffffffffffffffffffff1673ffffffffffffffffffffffffffffffffffffffff16346040516100ef906103e4565b5f6040518083038185875af1925050503d805f8114610129576040519150601f19603f3d011682016040523d82523d5f602084013e61012e565b606091505b50509050805f60146101000a81548160ff0219169083151502179055508061018b576040517f08c379a000000000000000000000000000000000000000000000000000000000815260040161018290610452565b60405180910390fd5b50565b5f5f5f9054906101000a900473ffffffffffffffffffffffffffffffffffffffff1673ffffffffffffffffffffffffffffffffffffffff16346040516024016040516020818303038152906040527ffc0545e2000000000000000000000000000000000000000000000000000000007bffffffffffffffffffffffffffffffffffffffffffffffffffffffff19166020820180517bffffffffffffffffffffffffffffffffffffffffffffffffffffffff838183161783525050505060405161025791906104b8565b5f6040518083038185875af1925050503d805f8114610291576040519150601f19603f3d011682016040523d82523d5f602084013e610296565b606091505b50509050805f60146101000a81548160ff021916908315150217905550806102f3576040517f08c379a00000000000000000000000000000000000000000000000000000000081526004016102ea90610518565b60405180910390fd5b50565b5f60149054906101000a900460ff1681565b5f5f9054906101000a900473ffffffffffffffffffffffffffffffffffffffff1681565b5f8115159050919050565b6103408161032c565b82525050565b5f6020820190506103595f830184610337565b92915050565b5f73ffffffffffffffffffffffffffffffffffffffff82169050919050565b5f6103888261035f565b9050919050565b6103988161037e565b82525050565b5f6020820190506103b15f83018461038f565b92915050565b5f81905092915050565b50565b5f6103cf5f836103b7565b91506103da826103c1565b5f82019050919050565b5f6103ee826103c4565b9150819050919050565b5f82825260208201905092915050565b7f455448207472616e73666572206661696c6564000000000000000000000000005f82015250565b5f61043c6013836103f8565b915061044782610408565b602082019050919050565b5f6020820190508181035f83015261046981610430565b9050919050565b5f81519050919050565b8281835e5f83830152505050565b5f61049282610470565b61049c81856103b7565b93506104ac81856020860161047a565b80840191505092915050565b5f6104c38284610488565b915081905092915050565b7f46616c6c6261636b2063616c6c206661696c65640000000000000000000000005f82015250565b5f6105026014836103f8565b915061050d826104ce565b602082019050919050565b5f6020820190508181035f83015261052f816104f6565b905091905056fea264697066735822122079a8bf234bd1664ef837149a91dd774489d6de6c0c9cc041e6510166765093ff64736f6c63430008220033",
					"opcodes": "PUSH1 0x80 PUSH1 0x40 MSTORE CALLVALUE DUP1 ISZERO PUSH2 0xF JUMPI PUSH0 PUSH0 REVERT JUMPDEST POP PUSH1 0x40 MLOAD PUSH2 0x678 CODESIZE SUB DUP1 PUSH2 0x678 DUP4 CODECOPY DUP2 DUP2 ADD PUSH1 0x40 MSTORE DUP2 ADD SWAP1 PUSH2 0x31 SWAP2 SWAP1 PUSH2 0xD4 JUMP JUMPDEST DUP1 PUSH0 PUSH0 PUSH2 0x100 EXP DUP2 SLOAD DUP2 PUSH20 0xFFFFFFFFFFFFFFFFFFFFFFFFFFFFFFFFFFFFFFFF MUL NOT AND SWAP1 DUP4 PUSH20 0xFFFFFFFFFFFFFFFFFFFFFFFFFFFFFFFFFFFFFFFF AND MUL OR SWAP1 SSTORE POP POP PUSH2 0xFF JUMP JUMPDEST PUSH0 PUSH0 REVERT JUMPDEST PUSH0 PUSH20 0xFFFFFFFFFFFFFFFFFFFFFFFFFFFFFFFFFFFFFFFF DUP3 AND SWAP1 POP SWAP2 SWAP1 POP JUMP JUMPDEST PUSH0 PUSH2 0xA3 DUP3 PUSH2 0x7A JUMP JUMPDEST SWAP1 POP SWAP2 SWAP1 POP JUMP JUMPDEST PUSH2 0xB3 DUP2 PUSH2 0x99 JUMP JUMPDEST DUP2 EQ PUSH2 0xBD JUMPI PUSH0 PUSH0 REVERT JUMPDEST POP JUMP JUMPDEST PUSH0 DUP2 MLOAD SWAP1 POP PUSH2 0xCE DUP2 PUSH2 0xAA JUMP JUMPDEST SWAP3 SWAP2 POP POP JUMP JUMPDEST PUSH0 PUSH1 0x20 DUP3 DUP5 SUB SLT ISZERO PUSH2 0xE9 JUMPI PUSH2 0xE8 PUSH2 0x76 JUMP JUMPDEST JUMPDEST PUSH0 PUSH2 0xF6 DUP5 DUP3 DUP6 ADD PUSH2 0xC0 JUMP JUMPDEST SWAP2 POP POP SWAP3 SWAP2 POP POP JUMP JUMPDEST PUSH2 0x56C DUP1 PUSH2 0x10C PUSH0 CODECOPY PUSH0 RETURN INVALID PUSH1 0x80 PUSH1 0x40 MSTORE PUSH1 0x4 CALLDATASIZE LT PUSH2 0x3E JUMPI PUSH0 CALLDATALOAD PUSH1 0xE0 SHR DUP1 PUSH4 0x1D16D9A0 EQ PUSH2 0x42 JUMPI DUP1 PUSH4 0x2ACDA0C8 EQ PUSH2 0x4C JUMPI DUP1 PUSH4 0x9415BC59 EQ PUSH2 0x56 JUMPI DUP1 PUSH4 0xF7260D3E EQ PUSH2 0x80 JUMPI JUMPDEST PUSH0 PUSH0 REVERT JUMPDEST PUSH2 0x4A PUSH2 0xAA JUMP JUMPDEST STOP JUMPDEST PUSH2 0x54 PUSH2 0x18E JUMP JUMPDEST STOP JUMPDEST CALLVALUE DUP1 ISZERO PUSH2 0x61 JUMPI PUSH0 PUSH0 REVERT JUMPDEST POP PUSH2 0x6A PUSH2 0x2F6 JUMP JUMPDEST PUSH1 0x40 MLOAD PUSH2 0x77 SWAP2 SWAP1 PUSH2 0x346 JUMP JUMPDEST PUSH1 0x40 MLOAD DUP1 SWAP2 SUB SWAP1 RETURN JUMPDEST CALLVALUE DUP1 ISZERO PUSH2 0x8B JUMPI PUSH0 PUSH0 REVERT JUMPDEST POP PUSH2 0x94 PUSH2 0x308 JUMP JUMPDEST PUSH1 0x40 MLOAD PUSH2 0xA1 SWAP2 SWAP1 PUSH2 0x39E JUMP JUMPDEST PUSH1 0x40 MLOAD DUP1 SWAP2 SUB SWAP1 RETURN JUMPDEST PUSH0 PUSH0 PUSH0 SWAP1 SLOAD SWAP1 PUSH2 0x100 EXP SWAP1 DIV PUSH20 0xFFFFFFFFFFFFFFFFFFFFFFFFFFFFFFFFFFFFFFFF AND PUSH20 0xFFFFFFFFFFFFFFFFFFFFFFFFFFFFFFFFFFFFFFFF AND CALLVALUE PUSH1 0x40 MLOAD PUSH2 0xEF SWAP1 PUSH2 0x3E4 JUMP JUMPDEST PUSH0 PUSH1 0x40 MLOAD DUP1 DUP4 SUB DUP2 DUP6 DUP8 GAS CALL SWAP3 POP POP POP RETURNDATASIZE DUP1 PUSH0 DUP2 EQ PUSH2 0x129 JUMPI PUSH1 0x40 MLOAD SWAP2 POP PUSH1 0x1F NOT PUSH1 0x3F RETURNDATASIZE ADD AND DUP3 ADD PUSH1 0x40 MSTORE RETURNDATASIZE DUP3 MSTORE RETURNDATASIZE PUSH0 PUSH1 0x20 DUP5 ADD RETURNDATACOPY PUSH2 0x12E JUMP JUMPDEST PUSH1 0x60 SWAP2 POP JUMPDEST POP POP SWAP1 POP DUP1 PUSH0 PUSH1 0x14 PUSH2 0x100 EXP DUP2 SLOAD DUP2 PUSH1 0xFF MUL NOT AND SWAP1 DUP4 ISZERO ISZERO MUL OR SWAP1 SSTORE POP DUP1 PUSH2 0x18B JUMPI PUSH1 0x40 MLOAD PUSH32 0x8C379A000000000000000000000000000000000000000000000000000000000 DUP2 MSTORE PUSH1 0x4 ADD PUSH2 0x182 SWAP1 PUSH2 0x452 JUMP JUMPDEST PUSH1 0x40 MLOAD DUP1 SWAP2 SUB SWAP1 REVERT JUMPDEST POP JUMP JUMPDEST PUSH0 PUSH0 PUSH0 SWAP1 SLOAD SWAP1 PUSH2 0x100 EXP SWAP1 DIV PUSH20 0xFFFFFFFFFFFFFFFFFFFFFFFFFFFFFFFFFFFFFFFF AND PUSH20 0xFFFFFFFFFFFFFFFFFFFFFFFFFFFFFFFFFFFFFFFF AND CALLVALUE PUSH1 0x40 MLOAD PUSH1 0x24 ADD PUSH1 0x40 MLOAD PUSH1 0x20 DUP2 DUP4 SUB SUB DUP2 MSTORE SWAP1 PUSH1 0x40 MSTORE PUSH32 0xFC0545E200000000000000000000000000000000000000000000000000000000 PUSH28 0xFFFFFFFFFFFFFFFFFFFFFFFFFFFFFFFFFFFFFFFFFFFFFFFFFFFFFFFF NOT AND PUSH1 0x20 DUP3 ADD DUP1 MLOAD PUSH28 0xFFFFFFFFFFFFFFFFFFFFFFFFFFFFFFFFFFFFFFFFFFFFFFFFFFFFFFFF DUP4 DUP2 DUP4 AND OR DUP4 MSTORE POP POP POP POP PUSH1 0x40 MLOAD PUSH2 0x257 SWAP2 SWAP1 PUSH2 0x4B8 JUMP JUMPDEST PUSH0 PUSH1 0x40 MLOAD DUP1 DUP4 SUB DUP2 DUP6 DUP8 GAS CALL SWAP3 POP POP POP RETURNDATASIZE DUP1 PUSH0 DUP2 EQ PUSH2 0x291 JUMPI PUSH1 0x40 MLOAD SWAP2 POP PUSH1 0x1F NOT PUSH1 0x3F RETURNDATASIZE ADD AND DUP3 ADD PUSH1 0x40 MSTORE RETURNDATASIZE DUP3 MSTORE RETURNDATASIZE PUSH0 PUSH1 0x20 DUP5 ADD RETURNDATACOPY PUSH2 0x296 JUMP JUMPDEST PUSH1 0x60 SWAP2 POP JUMPDEST POP POP SWAP1 POP DUP1 PUSH0 PUSH1 0x14 PUSH2 0x100 EXP DUP2 SLOAD DUP2 PUSH1 0xFF MUL NOT AND SWAP1 DUP4 ISZERO ISZERO MUL OR SWAP1 SSTORE POP DUP1 PUSH2 0x2F3 JUMPI PUSH1 0x40 MLOAD PUSH32 0x8C379A000000000000000000000000000000000000000000000000000000000 DUP2 MSTORE PUSH1 0x4 ADD PUSH2 0x2EA SWAP1 PUSH2 0x518 JUMP JUMPDEST PUSH1 0x40 MLOAD DUP1 SWAP2 SUB SWAP1 REVERT JUMPDEST POP JUMP JUMPDEST PUSH0 PUSH1 0x14 SWAP1 SLOAD SWAP1 PUSH2 0x100 EXP SWAP1 DIV PUSH1 0xFF AND DUP2 JUMP JUMPDEST PUSH0 PUSH0 SWAP1 SLOAD SWAP1 PUSH2 0x100 EXP SWAP1 DIV PUSH20 0xFFFFFFFFFFFFFFFFFFFFFFFFFFFFFFFFFFFFFFFF AND DUP2 JUMP JUMPDEST PUSH0 DUP2 ISZERO ISZERO SWAP1 POP SWAP2 SWAP1 POP JUMP JUMPDEST PUSH2 0x340 DUP2 PUSH2 0x32C JUMP JUMPDEST DUP3 MSTORE POP POP JUMP JUMPDEST PUSH0 PUSH1 0x20 DUP3 ADD SWAP1 POP PUSH2 0x359 PUSH0 DUP4 ADD DUP5 PUSH2 0x337 JUMP JUMPDEST SWAP3 SWAP2 POP POP JUMP JUMPDEST PUSH0 PUSH20 0xFFFFFFFFFFFFFFFFFFFFFFFFFFFFFFFFFFFFFFFF DUP3 AND SWAP1 POP SWAP2 SWAP1 POP JUMP JUMPDEST PUSH0 PUSH2 0x388 DUP3 PUSH2 0x35F JUMP JUMPDEST SWAP1 POP SWAP2 SWAP1 POP JUMP JUMPDEST PUSH2 0x398 DUP2 PUSH2 0x37E JUMP JUMPDEST DUP3 MSTORE POP POP JUMP JUMPDEST PUSH0 PUSH1 0x20 DUP3 ADD SWAP1 POP PUSH2 0x3B1 PUSH0 DUP4 ADD DUP5 PUSH2 0x38F JUMP JUMPDEST SWAP3 SWAP2 POP POP JUMP JUMPDEST PUSH0 DUP2 SWAP1 POP SWAP3 SWAP2 POP POP JUMP JUMPDEST POP JUMP JUMPDEST PUSH0 PUSH2 0x3CF PUSH0 DUP4 PUSH2 0x3B7 JUMP JUMPDEST SWAP2 POP PUSH2 0x3DA DUP3 PUSH2 0x3C1 JUMP JUMPDEST PUSH0 DUP3 ADD SWAP1 POP SWAP2 SWAP1 POP JUMP JUMPDEST PUSH0 PUSH2 0x3EE DUP3 PUSH2 0x3C4 JUMP JUMPDEST SWAP2 POP DUP2 SWAP1 POP SWAP2 SWAP1 POP JUMP JUMPDEST PUSH0 DUP3 DUP3 MSTORE PUSH1 0x20 DUP3 ADD SWAP1 POP SWAP3 SWAP2 POP POP JUMP JUMPDEST PUSH32 0x455448207472616E73666572206661696C656400000000000000000000000000 PUSH0 DUP3 ADD MSTORE POP JUMP JUMPDEST PUSH0 PUSH2 0x43C PUSH1 0x13 DUP4 PUSH2 0x3F8 JUMP JUMPDEST SWAP2 POP PUSH2 0x447 DUP3 PUSH2 0x408 JUMP JUMPDEST PUSH1 0x20 DUP3 ADD SWAP1 POP SWAP2 SWAP1 POP JUMP JUMPDEST PUSH0 PUSH1 0x20 DUP3 ADD SWAP1 POP DUP2 DUP2 SUB PUSH0 DUP4 ADD MSTORE PUSH2 0x469 DUP2 PUSH2 0x430 JUMP JUMPDEST SWAP1 POP SWAP2 SWAP1 POP JUMP JUMPDEST PUSH0 DUP2 MLOAD SWAP1 POP SWAP2 SWAP1 POP JUMP JUMPDEST DUP3 DUP2 DUP4 MCOPY PUSH0 DUP4 DUP4 ADD MSTORE POP POP POP JUMP JUMPDEST PUSH0 PUSH2 0x492 DUP3 PUSH2 0x470 JUMP JUMPDEST PUSH2 0x49C DUP2 DUP6 PUSH2 0x3B7 JUMP JUMPDEST SWAP4 POP PUSH2 0x4AC DUP2 DUP6 PUSH1 0x20 DUP7 ADD PUSH2 0x47A JUMP JUMPDEST DUP1 DUP5 ADD SWAP2 POP POP SWAP3 SWAP2 POP POP JUMP JUMPDEST PUSH0 PUSH2 0x4C3 DUP3 DUP5 PUSH2 0x488 JUMP JUMPDEST SWAP2 POP DUP2 SWAP1 POP SWAP3 SWAP2 POP POP JUMP JUMPDEST PUSH32 0x46616C6C6261636B2063616C6C206661696C6564000000000000000000000000 PUSH0 DUP3 ADD MSTORE POP JUMP JUMPDEST PUSH0 PUSH2 0x502 PUSH1 0x14 DUP4 PUSH2 0x3F8 JUMP JUMPDEST SWAP2 POP PUSH2 0x50D DUP3 PUSH2 0x4CE JUMP JUMPDEST PUSH1 0x20 DUP3 ADD SWAP1 POP SWAP2 SWAP1 POP JUMP JUMPDEST PUSH0 PUSH1 0x20 DUP3 ADD SWAP1 POP DUP2 DUP2 SUB PUSH0 DUP4 ADD MSTORE PUSH2 0x52F DUP2 PUSH2 0x4F6 JUMP JUMPDEST SWAP1 POP SWAP2 SWAP1 POP JUMP INVALID LOG2 PUSH5 0x6970667358 0x22 SLT KECCAK256 PUSH26 0xA8BF234BD1664EF837149A91DD774489D6DE6C0C9CC041E65101 PUSH7 0x765093FF64736F PUSH13 0x63430008220033000000000000 "
				},
				"gasEstimates": {
					"creation": {
						"codeDepositCost": "277600",
						"executionCost": "infinite",
						"totalCost": "infinite"
					},
					"external": {
						"lastSuccess()": "2538",
						"receiver()": "2551",
						"sendETH()": "infinite",
						"triggerFallback()": "infinite"
					}
				},
				"methodIdentifiers": {
					"lastSuccess()": "9415bc59",
					"receiver()": "f7260d3e",
					"sendETH()": "1d16d9a0",
					"triggerFallback()": "2acda0c8"
				}
			},
			"storageLayout": {
				"storage": [
					{
						"astId": 226,
						"contract": "val55.sol:ETHSender",
						"label": "receiver",
						"offset": 0,
						"slot": "0",
						"type": "t_address_payable"
					},
					{
						"astId": 228,
						"contract": "val55.sol:ETHSender",
						"label": "lastSuccess",
						"offset": 20,
						"slot": "0",
						"type": "t_bool"
					}
				],
				"types": {
					"t_address_payable": {
						"encoding": "inplace",
						"label": "address payable",
						"numberOfBytes": "20"
					},
					"t_bool": {
						"encoding": "inplace",
						"label": "bool",
						"numberOfBytes": "1"
					}
				}
			},
			"userdoc": {
				"kind": "user",
				"methods": {},
				"version": 1
			}
		}
	}
}