{
	"val16.sol": {
		"LocalUintVariableval": {
			"abi": [
				{
					"inputs": [
						{
							"internalType": "uint256",
							"name": "_a",
							"type": "uint256"
						},
						{
							"internalType": "uint256",
							"name": "_b",
							"type": "uint256"
						}
					],
					"name": "calculateSum",
					"outputs": [
						{
							"internalType": "uint256",
							"name": "",
							"type": "uint256"
						}
					],
					"stateMutability": "pure",
					"type": "function"
				},
				{
					"inputs": [],
					"name": "demonstrateLocalVariable",
					"outputs": [
						{
							"internalType": "uint256",
							"name": "",
							"type": "uint256"
						}
					],
					"stateMutability": "pure",
					"type": "function"
				},
				{
					"inputs": [
						{
							"internalType": "uint256",
							"name": "_x",
							"type": "uint256"
						},
						{
							"internalType": "uint256",
							"name": "_y",
							"type": "uint256"
						}
					],
					"name": "storeCalculatedValue",
					"outputs": [],
					"stateMutability": "nonpayable",
					"type": "function"
				},
				{
					"inputs": [],
					"name": "storedValue",
					"outputs": [
						{
							"internalType": "uint256",
							"name": "",
							"type": "uint256"
						}
					],
					"stateMutability": "view",
					"type": "function"
				}
			],
			"devdoc": {
				"kind": "dev",
				"methods": {},
				"version": 1
			},
			"evm": {
				"assembly": "    /* \"val16.sol\":1992:3153  contract LocalUintVariableval {... */\n  mstore(0x40, 0x80)\n  callvalue\n  dup1\n  iszero\n  tag_1\n  jumpi\n  revert(0x00, 0x00)\ntag_1:\n  pop\n  dataSize(sub_0)\n  dup1\n  dataOffset(sub_0)\n  0x00\n  codecopy\n  0x00\n  return\nstop\n\nsub_0: assembly {\n        /* \"val16.sol\":1992:3153  contract LocalUintVariableval {... */\n      mstore(0x40, 0x80)\n      callvalue\n      dup1\n      iszero\n      tag_1\n      jumpi\n      revert(0x00, 0x00)\n    tag_1:\n      pop\n      jumpi(tag_2, lt(calldatasize, 0x04))\n      shr(0xe0, calldataload(0x00))\n      dup1\n      0x35d8c47a\n      eq\n      tag_3\n      jumpi\n      dup1\n      0x38db579d\n      eq\n      tag_4\n      jumpi\n      dup1\n      0x6d619daa\n      eq\n      tag_5\n      jumpi\n      dup1\n      0xea4097bd\n      eq\n      tag_6\n      jumpi\n    tag_2:\n      revert(0x00, 0x00)\n        /* \"val16.sol\":2820:3150  function demonstrateLocalVariable()... */\n    tag_3:\n      tag_7\n      tag_8\n      jump\t// in\n    tag_7:\n      mload(0x40)\n      tag_9\n      swap2\n      swap1\n      tag_10\n      jump\t// in\n    tag_9:\n      mload(0x40)\n      dup1\n      swap2\n      sub\n      swap1\n      return\n        /* \"val16.sol\":2428:2812  function storeCalculatedValue(... */\n    tag_4:\n      tag_11\n      0x04\n      dup1\n      calldatasize\n      sub\n      dup2\n      add\n      swap1\n      tag_12\n      swap2\n      swap1\n      tag_13\n      jump\t// in\n    tag_12:\n      tag_14\n      jump\t// in\n    tag_11:\n      stop\n        /* \"val16.sol\":2031:2057  uint256 public storedValue */\n    tag_5:\n      tag_15\n      tag_16\n      jump\t// in\n    tag_15:\n      mload(0x40)\n      tag_17\n      swap2\n      swap1\n      tag_10\n      jump\t// in\n    tag_17:\n      mload(0x40)\n      dup1\n      swap2\n      sub\n      swap1\n      return\n        /* \"val16.sol\":2066:2420  function calculateSum(uint256 _a, uint256 _b)... */\n    tag_6:\n      tag_18\n      0x04\n      dup1\n      calldatasize\n      sub\n      dup2\n      add\n      swap1\n      tag_19\n      swap2\n      swap1\n      tag_13\n      jump\t// in\n    tag_19:\n      tag_20\n      jump\t// in\n    tag_18:\n      mload(0x40)\n      tag_21\n      swap2\n      swap1\n      tag_10\n      jump\t// in\n    tag_21:\n      mload(0x40)\n      dup1\n      swap2\n      sub\n      swap1\n      return\n        /* \"val16.sol\":2820:3150  function demonstrateLocalVariable()... */\n    tag_8:\n        /* \"val16.sol\":2904:2911  uint256 */\n      0x00\n        /* \"val16.sol\":2991:3003  uint256 temp */\n      0x00\n        /* \"val16.sol\":3006:3009  100 */\n      0x64\n        /* \"val16.sol\":2991:3009  uint256 temp = 100 */\n      swap1\n      pop\n        /* \"val16.sol\":3116:3118  50 */\n      0x32\n        /* \"val16.sol\":3109:3113  temp */\n      dup2\n        /* \"val16.sol\":3109:3118  temp + 50 */\n      tag_23\n      swap2\n      swap1\n      tag_24\n      jump\t// in\n    tag_23:\n        /* \"val16.sol\":3102:3118  temp = temp + 50 */\n      swap1\n      pop\n        /* \"val16.sol\":3138:3142  temp */\n      dup1\n        /* \"val16.sol\":3131:3142  return temp */\n      swap2\n      pop\n      pop\n        /* \"val16.sol\":2820:3150  function demonstrateLocalVariable()... */\n      swap1\n      jump\t// out\n        /* \"val16.sol\":2428:2812  function storeCalculatedValue(... */\n    tag_14:\n        /* \"val16.sol\":2639:2653  uint256 result */\n      0x00\n        /* \"val16.sol\":2661:2663  _y */\n      dup2\n        /* \"val16.sol\":2656:2658  _x */\n      dup4\n        /* \"val16.sol\":2656:2663  _x + _y */\n      tag_26\n      swap2\n      swap1\n      tag_24\n      jump\t// in\n    tag_26:\n        /* \"val16.sol\":2639:2663  uint256 result = _x + _y */\n      swap1\n      pop\n        /* \"val16.sol\":2798:2804  result */\n      dup1\n        /* \"val16.sol\":2784:2795  storedValue */\n      0x00\n        /* \"val16.sol\":2784:2804  storedValue = result */\n      dup2\n      swap1\n      sstore\n      pop\n        /* \"val16.sol\":2514:2812  {... */\n      pop\n        /* \"val16.sol\":2428:2812  function storeCalculatedValue(... */\n      pop\n      pop\n      jump\t// out\n        /* \"val16.sol\":2031:2057  uint256 public storedValue */\n    tag_16:\n      sload(0x00)\n      dup2\n      jump\t// out\n        /* \"val16.sol\":2066:2420  function calculateSum(uint256 _a, uint256 _b)... */\n    tag_20:\n        /* \"val16.sol\":2160:2167  uint256 */\n      0x00\n        /* \"val16.sol\":2368:2379  uint256 sum */\n      0x00\n        /* \"val16.sol\":2387:2389  _b */\n      dup3\n        /* \"val16.sol\":2382:2384  _a */\n      dup5\n        /* \"val16.sol\":2382:2389  _a + _b */\n      tag_28\n      swap2\n      swap1\n      tag_24\n      jump\t// in\n    tag_28:\n        /* \"val16.sol\":2368:2389  uint256 sum = _a + _b */\n      swap1\n      pop\n        /* \"val16.sol\":2409:2412  sum */\n      dup1\n        /* \"val16.sol\":2402:2412  return sum */\n      swap2\n      pop\n      pop\n        /* \"val16.sol\":2066:2420  function calculateSum(uint256 _a, uint256 _b)... */\n      swap3\n      swap2\n      pop\n      pop\n      jump\t// out\n        /* \"#utility.yul\":7:84   */\n    tag_29:\n        /* \"#utility.yul\":44:51   */\n      0x00\n        /* \"#utility.yul\":73:78   */\n      dup2\n        /* \"#utility.yul\":62:78   */\n      swap1\n      pop\n        /* \"#utility.yul\":7:84   */\n      swap2\n      swap1\n      pop\n      jump\t// out\n        /* \"#utility.yul\":90:208   */\n    tag_30:\n        /* \"#utility.yul\":177:201   */\n      tag_40\n        /* \"#utility.yul\":195:200   */\n      dup2\n        /* \"#utility.yul\":177:201   */\n      tag_29\n      jump\t// in\n    tag_40:\n        /* \"#utility.yul\":172:175   */\n      dup3\n        /* \"#utility.yul\":165:202   */\n      mstore\n        /* \"#utility.yul\":90:208   */\n      pop\n      pop\n      jump\t// out\n        /* \"#utility.yul\":214:436   */\n    tag_10:\n        /* \"#utility.yul\":307:311   */\n      0x00\n        /* \"#utility.yul\":345:347   */\n      0x20\n        /* \"#utility.yul\":334:343   */\n      dup3\n        /* \"#utility.yul\":330:348   */\n      add\n        /* \"#utility.yul\":322:348   */\n      swap1\n      pop\n        /* \"#utility.yul\":358:429   */\n      tag_42\n        /* \"#utility.yul\":426:427   */\n      0x00\n        /* \"#utility.yul\":415:424   */\n      dup4\n        /* \"#utility.yul\":411:428   */\n      add\n        /* \"#utility.yul\":402:408   */\n      dup5\n        /* \"#utility.yul\":358:429   */\n      tag_30\n      jump\t// in\n    tag_42:\n        /* \"#utility.yul\":214:436   */\n      swap3\n      swap2\n      pop\n      pop\n      jump\t// out\n        /* \"#utility.yul\":523:640   */\n    tag_32:\n        /* \"#utility.yul\":632:633   */\n      0x00\n        /* \"#utility.yul\":629:630   */\n      0x00\n        /* \"#utility.yul\":622:634   */\n      revert\n        /* \"#utility.yul\":769:891   */\n    tag_34:\n        /* \"#utility.yul\":842:866   */\n      tag_47\n        /* \"#utility.yul\":860:865   */\n      dup2\n        /* \"#utility.yul\":842:866   */\n      tag_29\n      jump\t// in\n    tag_47:\n        /* \"#utility.yul\":835:840   */\n      dup2\n        /* \"#utility.yul\":832:867   */\n      eq\n        /* \"#utility.yul\":822:885   */\n      tag_48\n      jumpi\n        /* \"#utility.yul\":881:882   */\n      0x00\n        /* \"#utility.yul\":878:879   */\n      0x00\n        /* \"#utility.yul\":871:883   */\n      revert\n        /* \"#utility.yul\":822:885   */\n    tag_48:\n        /* \"#utility.yul\":769:891   */\n      pop\n      jump\t// out\n        /* \"#utility.yul\":897:1036   */\n    tag_35:\n        /* \"#utility.yul\":943:948   */\n      0x00\n        /* \"#utility.yul\":981:987   */\n      dup2\n        /* \"#utility.yul\":968:988   */\n      calldataload\n        /* \"#utility.yul\":959:988   */\n      swap1\n      pop\n        /* \"#utility.yul\":997:1030   */\n      tag_50\n        /* \"#utility.yul\":1024:1029   */\n      dup2\n        /* \"#utility.yul\":997:1030   */\n      tag_34\n      jump\t// in\n    tag_50:\n        /* \"#utility.yul\":897:1036   */\n      swap3\n      swap2\n      pop\n      pop\n      jump\t// out\n        /* \"#utility.yul\":1042:1516   */\n    tag_13:\n        /* \"#utility.yul\":1110:1116   */\n      0x00\n        /* \"#utility.yul\":1118:1124   */\n      0x00\n        /* \"#utility.yul\":1167:1169   */\n      0x40\n        /* \"#utility.yul\":1155:1164   */\n      dup4\n        /* \"#utility.yul\":1146:1153   */\n      dup6\n        /* \"#utility.yul\":1142:1165   */\n      sub\n        /* \"#utility.yul\":1138:1170   */\n      slt\n        /* \"#utility.yul\":1135:1254   */\n      iszero\n      tag_52\n      jumpi\n        /* \"#utility.yul\":1173:1252   */\n      tag_53\n      tag_32\n      jump\t// in\n    tag_53:\n        /* \"#utility.yul\":1135:1254   */\n    tag_52:\n        /* \"#utility.yul\":1293:1294   */\n      0x00\n        /* \"#utility.yul\":1318:1371   */\n      tag_54\n        /* \"#utility.yul\":1363:1370   */\n      dup6\n        /* \"#utility.yul\":1354:1360   */\n      dup3\n        /* \"#utility.yul\":1343:1352   */\n      dup7\n        /* \"#utility.yul\":1339:1361   */\n      add\n        /* \"#utility.yul\":1318:1371   */\n      tag_35\n      jump\t// in\n    tag_54:\n        /* \"#utility.yul\":1308:1371   */\n      swap3\n      pop\n        /* \"#utility.yul\":1264:1381   */\n      pop\n        /* \"#utility.yul\":1420:1422   */\n      0x20\n        /* \"#utility.yul\":1446:1499   */\n      tag_55\n        /* \"#utility.yul\":1491:1498   */\n      dup6\n        /* \"#utility.yul\":1482:1488   */\n      dup3\n        /* \"#utility.yul\":1471:1480   */\n      dup7\n        /* \"#utility.yul\":1467:1489   */\n      add\n        /* \"#utility.yul\":1446:1499   */\n      tag_35\n      jump\t// in\n    tag_55:\n        /* \"#utility.yul\":1436:1499   */\n      swap2\n      pop\n        /* \"#utility.yul\":1391:1509   */\n      pop\n        /* \"#utility.yul\":1042:1516   */\n      swap3\n      pop\n      swap3\n      swap1\n      pop\n      jump\t// out\n        /* \"#utility.yul\":1522:1702   */\n    tag_36:\n        /* \"#utility.yul\":1570:1647   */\n      0x4e487b7100000000000000000000000000000000000000000000000000000000\n        /* \"#utility.yul\":1567:1568   */\n      0x00\n        /* \"#utility.yul\":1560:1648   */\n      mstore\n        /* \"#utility.yul\":1667:1671   */\n      0x11\n        /* \"#utility.yul\":1664:1665   */\n      0x04\n        /* \"#utility.yul\":1657:1672   */\n      mstore\n        /* \"#utility.yul\":1691:1695   */\n      0x24\n        /* \"#utility.yul\":1688:1689   */\n      0x00\n        /* \"#utility.yul\":1681:1696   */\n      revert\n        /* \"#utility.yul\":1708:1899   */\n    tag_24:\n        /* \"#utility.yul\":1748:1751   */\n      0x00\n        /* \"#utility.yul\":1767:1787   */\n      tag_58\n        /* \"#utility.yul\":1785:1786   */\n      dup3\n        /* \"#utility.yul\":1767:1787   */\n      tag_29\n      jump\t// in\n    tag_58:\n        /* \"#utility.yul\":1762:1787   */\n      swap2\n      pop\n        /* \"#utility.yul\":1801:1821   */\n      tag_59\n        /* \"#utility.yul\":1819:1820   */\n      dup4\n        /* \"#utility.yul\":1801:1821   */\n      tag_29\n      jump\t// in\n    tag_59:\n        /* \"#utility.yul\":1796:1821   */\n      swap3\n      pop\n        /* \"#utility.yul\":1844:1845   */\n      dup3\n        /* \"#utility.yul\":1841:1842   */\n      dup3\n        /* \"#utility.yul\":1837:1846   */\n      add\n        /* \"#utility.yul\":1830:1846   */\n      swap1\n      pop\n        /* \"#utility.yul\":1865:1868   */\n      dup1\n        /* \"#utility.yul\":1862:1863   */\n      dup3\n        /* \"#utility.yul\":1859:1869   */\n      gt\n        /* \"#utility.yul\":1856:1892   */\n      iszero\n      tag_60\n      jumpi\n        /* \"#utility.yul\":1872:1890   */\n      tag_61\n      tag_36\n      jump\t// in\n    tag_61:\n        /* \"#utility.yul\":1856:1892   */\n    tag_60:\n        /* \"#utility.yul\":1708:1899   */\n      swap3\n      swap2\n      pop\n      pop\n      jump\t// out\n\n    auxdata: 0xa2646970667358221220a2c9c28deec05e53b48d8793bb5dbd19e67106257fd5e7c8bb947c98c9eea0db64736f6c63430008220033\n}\n",
				"bytecode": {
					"linkReferences": {},
					"object": "6080604052348015600e575f5ffd5b5061025e8061001c5f395ff3fe608060405234801561000f575f5ffd5b506004361061004a575f3560e01c806335d8c47a1461004e57806338db579d1461006c5780636d619daa14610088578063ea4097bd146100a6575b5f5ffd5b6100566100d6565b6040516100639190610143565b60405180910390f35b6100866004803603810190610081919061018a565b6100f2565b005b61009061010c565b60405161009d9190610143565b60405180910390f35b6100c060048036038101906100bb919061018a565b610111565b6040516100cd9190610143565b60405180910390f35b5f5f606490506032816100e991906101f5565b90508091505090565b5f81836100ff91906101f5565b9050805f81905550505050565b5f5481565b5f5f828461011f91906101f5565b90508091505092915050565b5f819050919050565b61013d8161012b565b82525050565b5f6020820190506101565f830184610134565b92915050565b5f5ffd5b6101698161012b565b8114610173575f5ffd5b50565b5f8135905061018481610160565b92915050565b5f5f604083850312156101a05761019f61015c565b5b5f6101ad85828601610176565b92505060206101be85828601610176565b9150509250929050565b7f4e487b71000000000000000000000000000000000000000000000000000000005f52601160045260245ffd5b5f6101ff8261012b565b915061020a8361012b565b9250828201905080821115610222576102216101c8565b5b9291505056fea2646970667358221220a2c9c28deec05e53b48d8793bb5dbd19e67106257fd5e7c8bb947c98c9eea0db64736f6c63430008220033",
					"opcodes": "PUSH1 0x80 PUSH1 0x40 MSTORE CALLVALUE DUP1 ISZERO PUSH1 0xE JUMPI PUSH0 PUSH0 REVERT JUMPDEST POP PUSH2 0x25E DUP1 PUSH2 0x1C PUSH0 CODECOPY PUSH0 RETURN INVALID PUSH1 0x80 PUSH1 0x40 MSTORE CALLVALUE DUP1 ISZERO PUSH2 0xF JUMPI PUSH0 PUSH0 REVERT JUMPDEST POP PUSH1 0x4 CALLDATASIZE LT PUSH2 0x4A JUMPI PUSH0 CALLDATALOAD PUSH1 0xE0 SHR DUP1 PUSH4 0x35D8C47A EQ PUSH2 0x4E JUMPI DUP1 PUSH4 0x38DB579D EQ PUSH2 0x6C JUMPI DUP1 PUSH4 0x6D619DAA EQ PUSH2 0x88 JUMPI DUP1 PUSH4 0xEA4097BD EQ PUSH2 0xA6 JUMPI JUMPDEST PUSH0 PUSH0 REVERT JUMPDEST PUSH2 0x56 PUSH2 0xD6 JUMP JUMPDEST PUSH1 0x40 MLOAD PUSH2 0x63 SWAP2 SWAP1 PUSH2 0x143 JUMP JUMPDEST PUSH1 0x40 MLOAD DUP1 SWAP2 SUB SWAP1 RETURN JUMPDEST PUSH2 0x86 PUSH1 0x4 DUP1 CALLDATASIZE SUB DUP2 ADD SWAP1 PUSH2 0x81 SWAP2 SWAP1 PUSH2 0x18A JUMP JUMPDEST PUSH2 0xF2 JUMP JUMPDEST STOP JUMPDEST PUSH2 0x90 PUSH2 0x10C JUMP JUMPDEST PUSH1 0x40 MLOAD PUSH2 0x9D SWAP2 SWAP1 PUSH2 0x143 JUMP JUMPDEST PUSH1 0x40 MLOAD DUP1 SWAP2 SUB SWAP1 RETURN JUMPDEST PUSH2 0xC0 PUSH1 0x4 DUP1 CALLDATASIZE SUB DUP2 ADD SWAP1 PUSH2 0xBB SWAP2 SWAP1 PUSH2 0x18A JUMP JUMPDEST PUSH2 0x111 JUMP JUMPDEST PUSH1 0x40 MLOAD PUSH2 0xCD SWAP2 SWAP1 PUSH2 0x143 JUMP JUMPDEST PUSH1 0x40 MLOAD DUP1 SWAP2 SUB SWAP1 RETURN JUMPDEST PUSH0 PUSH0 PUSH1 0x64 SWAP1 POP PUSH1 0x32 DUP2 PUSH2 0xE9 SWAP2 SWAP1 PUSH2 0x1F5 JUMP JUMPDEST SWAP1 POP DUP1 SWAP2 POP POP SWAP1 JUMP JUMPDEST PUSH0 DUP2 DUP4 PUSH2 0xFF SWAP2 SWAP1 PUSH2 0x1F5 JUMP JUMPDEST SWAP1 POP DUP1 PUSH0 DUP2 SWAP1 SSTORE POP POP POP POP JUMP JUMPDEST PUSH0 SLOAD DUP2 JUMP JUMPDEST PUSH0 PUSH0 DUP3 DUP5 PUSH2 0x11F SWAP2 SWAP1 PUSH2 0x1F5 JUMP JUMPDEST SWAP1 POP DUP1 SWAP2 POP POP SWAP3 SWAP2 POP POP JUMP JUMPDEST PUSH0 DUP2 SWAP1 POP SWAP2 SWAP1 POP JUMP JUMPDEST PUSH2 0x13D DUP2 PUSH2 0x12B JUMP JUMPDEST DUP3 MSTORE POP POP JUMP JUMPDEST PUSH0 PUSH1 0x20 DUP3 ADD SWAP1 POP PUSH2 0x156 PUSH0 DUP4 ADD DUP5 PUSH2 0x134 JUMP JUMPDEST SWAP3 SWAP2 POP POP JUMP JUMPDEST PUSH0 PUSH0 REVERT JUMPDEST PUSH2 0x169 DUP2 PUSH2 0x12B JUMP JUMPDEST DUP2 EQ PUSH2 0x173 JUMPI PUSH0 PUSH0 REVERT JUMPDEST POP JUMP JUMPDEST PUSH0 DUP2 CALLDATALOAD SWAP1 POP PUSH2 0x184 DUP2 PUSH2 0x160 JUMP JUMPDEST SWAP3 SWAP2 POP POP JUMP JUMPDEST PUSH0 PUSH0 PUSH1 0x40 DUP4 DUP6 SUB SLT ISZERO PUSH2 0x1A0 JUMPI PUSH2 0x19F PUSH2 0x15C JUMP JUMPDEST JUMPDEST PUSH0 PUSH2 0x1AD DUP6 DUP3 DUP7 ADD PUSH2 0x176 JUMP JUMPDEST SWAP3 POP POP PUSH1 0x20 PUSH2 0x1BE DUP6 DUP3 DUP7 ADD PUSH2 0x176 JUMP JUMPDEST SWAP2 POP POP SWAP3 POP SWAP3 SWAP1 POP JUMP JUMPDEST PUSH32 0x4E487B7100000000000000000000000000000000000000000000000000000000 PUSH0 MSTORE PUSH1 0x11 PUSH1 0x4 MSTORE PUSH1 0x24 PUSH0 REVERT JUMPDEST PUSH0 PUSH2 0x1FF DUP3 PUSH2 0x12B JUMP JUMPDEST SWAP2 POP PUSH2 0x20A DUP4 PUSH2 0x12B JUMP JUMPDEST SWAP3 POP DUP3 DUP3 ADD SWAP1 POP DUP1 DUP3 GT ISZERO PUSH2 0x222 JUMPI PUSH2 0x221 PUSH2 0x1C8 JUMP JUMPDEST JUMPDEST SWAP3 SWAP2 POP POP JUMP INVALID LOG2 PUSH5 0x6970667358 0x22 SLT KECCAK256 LOG2 0xC9 0xC2 DUP14 RETURNCONTRACT 0xC0 MCOPY MSTORE8 0xB4 DUP14 DUP8 SWAP4 0xBB TSTORE 0xBD NOT DUPN 0x71 MOD 0x25 PUSH32 0xD5E7C8BB947C98C9EEA0DB64736F6C6343000822003300000000000000000000 "
				},
				"gasEstimates": {
					"creation": {
						"codeDepositCost": "121200",
						"executionCost": "163",
						"totalCost": "121363"
					},
					"external": {
						"calculateSum(uint256,uint256)": "infinite",
						"demonstrateLocalVariable()": "infinite",
						"storeCalculatedValue(uint256,uint256)": "infinite",
						"storedValue()": "2446"
					}
				},
				"methodIdentifiers": {
					"calculateSum(uint256,uint256)": "ea4097bd",
					"demonstrateLocalVariable()": "35d8c47a",
					"storeCalculatedValue(uint256,uint256)": "38db579d",
					"storedValue()": "6d619daa"
				}
			},
			"storageLayout": {
				"storage": [
					{
						"astId": 3,
						"contract": "val16.sol:LocalUintVariableval",
						"label": "storedValue",
						"offset": 0,
						"slot": "0",
						"type": "t_uint256"
					}
				],
				"types": {
					"t_uint256": {
						"encoding": "inplace",
						"label": "uint256",
						"numberOfBytes": "32"
					}
				}
			},
			"userdoc": {
				"kind": "user",
				"methods": {},
				"version": 1
			}
		}
	}
}