{
	"val16.sol": {
		"LocalUintVariable": {
			"abi": [
				{
					"inputs": [
						{
							"internalType": "uint256",
							"name": "_a",
							"type": "uint256"
						},
						{
							"internalType": "uint256",
							"name": "_b",
							"type": "uint256"
						}
					],
					"name": "CalculateMultiplication",
					"outputs": [
						{
							"internalType": "uint256",
							"name": "",
							"type": "uint256"
						}
					],
					"stateMutability": "pure",
					"type": "function"
				},
				{
					"inputs": [
						{
							"internalType": "uint256",
							"name": "_a",
							"type": "uint256"
						},
						{
							"internalType": "uint256",
							"name": "_b",
							"type": "uint256"
						}
					],
					"name": "calculateSum",
					"outputs": [
						{
							"internalType": "uint256",
							"name": "",
							"type": "uint256"
						}
					],
					"stateMutability": "pure",
					"type": "function"
				},
				{
					"inputs": [],
					"name": "demonstrateLocalVariable",
					"outputs": [
						{
							"internalType": "uint256",
							"name": "",
							"type": "uint256"
						}
					],
					"stateMutability": "pure",
					"type": "function"
				},
				{
					"inputs": [
						{
							"internalType": "uint256",
							"name": "_x",
							"type": "uint256"
						},
						{
							"internalType": "uint256",
							"name": "_y",
							"type": "uint256"
						}
					],
					"name": "storeCalculatedValue",
					"outputs": [],
					"stateMutability": "nonpayable",
					"type": "function"
				},
				{
					"inputs": [],
					"name": "storedValue",
					"outputs": [
						{
							"internalType": "uint256",
							"name": "",
							"type": "uint256"
						}
					],
					"stateMutability": "view",
					"type": "function"
				}
			],
			"devdoc": {
				"kind": "dev",
				"methods": {},
				"version": 1
			},
			"evm": {
				"assembly": "    /* \"val16.sol\":10504:11840  contract LocalUintVariable ... */\n  mstore(0x40, 0x80)\n  callvalue\n  dup1\n  iszero\n  tag_1\n  jumpi\n  revert(0x00, 0x00)\ntag_1:\n  pop\n  dataSize(sub_0)\n  dup1\n  dataOffset(sub_0)\n  0x00\n  codecopy\n  0x00\n  return\nstop\n\nsub_0: assembly {\n        /* \"val16.sol\":10504:11840  contract LocalUintVariable ... */\n      mstore(0x40, 0x80)\n      callvalue\n      dup1\n      iszero\n      tag_1\n      jumpi\n      revert(0x00, 0x00)\n    tag_1:\n      pop\n      jumpi(tag_2, lt(calldatasize, 0x04))\n      shr(0xe0, calldataload(0x00))\n      dup1\n      0x35d8c47a\n      eq\n      tag_3\n      jumpi\n      dup1\n      0x38db579d\n      eq\n      tag_4\n      jumpi\n      dup1\n      0x6d619daa\n      eq\n      tag_5\n      jumpi\n      dup1\n      0xb1f6627b\n      eq\n      tag_6\n      jumpi\n      dup1\n      0xea4097bd\n      eq\n      tag_7\n      jumpi\n    tag_2:\n      revert(0x00, 0x00)\n        /* \"val16.sol\":11507:11837  function demonstrateLocalVariable()... */\n    tag_3:\n      tag_8\n      tag_9\n      jump\t// in\n    tag_8:\n      mload(0x40)\n      tag_10\n      swap2\n      swap1\n      tag_11\n      jump\t// in\n    tag_10:\n      mload(0x40)\n      dup1\n      swap2\n      sub\n      swap1\n      return\n        /* \"val16.sol\":11109:11499  function storeCalculatedValue(... */\n    tag_4:\n      tag_12\n      0x04\n      dup1\n      calldatasize\n      sub\n      dup2\n      add\n      swap1\n      tag_13\n      swap2\n      swap1\n      tag_14\n      jump\t// in\n    tag_13:\n      tag_15\n      jump\t// in\n    tag_12:\n      stop\n        /* \"val16.sol\":10542:10568  uint256 public storedValue */\n    tag_5:\n      tag_16\n      tag_17\n      jump\t// in\n    tag_16:\n      mload(0x40)\n      tag_18\n      swap2\n      swap1\n      tag_11\n      jump\t// in\n    tag_18:\n      mload(0x40)\n      dup1\n      swap2\n      sub\n      swap1\n      return\n        /* \"val16.sol\":10939:11101  function CalculateMultiplication(uint256 _a, uint256 _b) public pure returns(uint256)... */\n    tag_6:\n      tag_19\n      0x04\n      dup1\n      calldatasize\n      sub\n      dup2\n      add\n      swap1\n      tag_20\n      swap2\n      swap1\n      tag_14\n      jump\t// in\n    tag_20:\n      tag_21\n      jump\t// in\n    tag_19:\n      mload(0x40)\n      tag_22\n      swap2\n      swap1\n      tag_11\n      jump\t// in\n    tag_22:\n      mload(0x40)\n      dup1\n      swap2\n      sub\n      swap1\n      return\n        /* \"val16.sol\":10577:10931  function calculateSum(uint256 _a, uint256 _b)... */\n    tag_7:\n      tag_23\n      0x04\n      dup1\n      calldatasize\n      sub\n      dup2\n      add\n      swap1\n      tag_24\n      swap2\n      swap1\n      tag_14\n      jump\t// in\n    tag_24:\n      tag_25\n      jump\t// in\n    tag_23:\n      mload(0x40)\n      tag_26\n      swap2\n      swap1\n      tag_11\n      jump\t// in\n    tag_26:\n      mload(0x40)\n      dup1\n      swap2\n      sub\n      swap1\n      return\n        /* \"val16.sol\":11507:11837  function demonstrateLocalVariable()... */\n    tag_9:\n        /* \"val16.sol\":11591:11598  uint256 */\n      0x00\n        /* \"val16.sol\":11678:11690  uint256 temp */\n      0x00\n        /* \"val16.sol\":11693:11696  100 */\n      0x64\n        /* \"val16.sol\":11678:11696  uint256 temp = 100 */\n      swap1\n      pop\n        /* \"val16.sol\":11803:11805  50 */\n      0x32\n        /* \"val16.sol\":11796:11800  temp */\n      dup2\n        /* \"val16.sol\":11796:11805  temp + 50 */\n      tag_28\n      swap2\n      swap1\n      tag_29\n      jump\t// in\n    tag_28:\n        /* \"val16.sol\":11789:11805  temp = temp + 50 */\n      swap1\n      pop\n        /* \"val16.sol\":11825:11829  temp */\n      dup1\n        /* \"val16.sol\":11818:11829  return temp */\n      swap2\n      pop\n      pop\n        /* \"val16.sol\":11507:11837  function demonstrateLocalVariable()... */\n      swap1\n      jump\t// out\n        /* \"val16.sol\":11109:11499  function storeCalculatedValue(... */\n    tag_15:\n        /* \"val16.sol\":11326:11340  uint256 result */\n      0x00\n        /* \"val16.sol\":11348:11350  _y */\n      dup2\n        /* \"val16.sol\":11343:11345  _x */\n      dup4\n        /* \"val16.sol\":11343:11350  _x + _y */\n      tag_31\n      swap2\n      swap1\n      tag_29\n      jump\t// in\n    tag_31:\n        /* \"val16.sol\":11326:11350  uint256 result = _x + _y */\n      swap1\n      pop\n        /* \"val16.sol\":11485:11491  result */\n      dup1\n        /* \"val16.sol\":11471:11482  storedValue */\n      0x00\n        /* \"val16.sol\":11471:11491  storedValue = result */\n      dup2\n      swap1\n      sstore\n      pop\n        /* \"val16.sol\":11201:11499  {... */\n      pop\n        /* \"val16.sol\":11109:11499  function storeCalculatedValue(... */\n      pop\n      pop\n      jump\t// out\n        /* \"val16.sol\":10542:10568  uint256 public storedValue */\n    tag_17:\n      sload(0x00)\n      dup2\n      jump\t// out\n        /* \"val16.sol\":10939:11101  function CalculateMultiplication(uint256 _a, uint256 _b) public pure returns(uint256)... */\n    tag_21:\n        /* \"val16.sol\":11016:11023  uint256 */\n      0x00\n        /* \"val16.sol\":11041:11056  uint256 product */\n      0x00\n        /* \"val16.sol\":11064:11066  _b */\n      dup3\n        /* \"val16.sol\":11059:11061  _a */\n      dup5\n        /* \"val16.sol\":11059:11066  _a * _b */\n      tag_33\n      swap2\n      swap1\n      tag_34\n      jump\t// in\n    tag_33:\n        /* \"val16.sol\":11041:11066  uint256 product = _a * _b */\n      swap1\n      pop\n        /* \"val16.sol\":11086:11093  product */\n      dup1\n        /* \"val16.sol\":11079:11093  return product */\n      swap2\n      pop\n      pop\n        /* \"val16.sol\":10939:11101  function CalculateMultiplication(uint256 _a, uint256 _b) public pure returns(uint256)... */\n      swap3\n      swap2\n      pop\n      pop\n      jump\t// out\n        /* \"val16.sol\":10577:10931  function calculateSum(uint256 _a, uint256 _b)... */\n    tag_25:\n        /* \"val16.sol\":10671:10678  uint256 */\n      0x00\n        /* \"val16.sol\":10879:10890  uint256 sum */\n      0x00\n        /* \"val16.sol\":10898:10900  _b */\n      dup3\n        /* \"val16.sol\":10893:10895  _a */\n      dup5\n        /* \"val16.sol\":10893:10900  _a + _b */\n      tag_36\n      swap2\n      swap1\n      tag_29\n      jump\t// in\n    tag_36:\n        /* \"val16.sol\":10879:10900  uint256 sum = _a + _b */\n      swap1\n      pop\n        /* \"val16.sol\":10920:10923  sum */\n      dup1\n        /* \"val16.sol\":10913:10923  return sum */\n      swap2\n      pop\n      pop\n        /* \"val16.sol\":10577:10931  function calculateSum(uint256 _a, uint256 _b)... */\n      swap3\n      swap2\n      pop\n      pop\n      jump\t// out\n        /* \"#utility.yul\":7:84   */\n    tag_37:\n        /* \"#utility.yul\":44:51   */\n      0x00\n        /* \"#utility.yul\":73:78   */\n      dup2\n        /* \"#utility.yul\":62:78   */\n      swap1\n      pop\n        /* \"#utility.yul\":7:84   */\n      swap2\n      swap1\n      pop\n      jump\t// out\n        /* \"#utility.yul\":90:208   */\n    tag_38:\n        /* \"#utility.yul\":177:201   */\n      tag_48\n        /* \"#utility.yul\":195:200   */\n      dup2\n        /* \"#utility.yul\":177:201   */\n      tag_37\n      jump\t// in\n    tag_48:\n        /* \"#utility.yul\":172:175   */\n      dup3\n        /* \"#utility.yul\":165:202   */\n      mstore\n        /* \"#utility.yul\":90:208   */\n      pop\n      pop\n      jump\t// out\n        /* \"#utility.yul\":214:436   */\n    tag_11:\n        /* \"#utility.yul\":307:311   */\n      0x00\n        /* \"#utility.yul\":345:347   */\n      0x20\n        /* \"#utility.yul\":334:343   */\n      dup3\n        /* \"#utility.yul\":330:348   */\n      add\n        /* \"#utility.yul\":322:348   */\n      swap1\n      pop\n        /* \"#utility.yul\":358:429   */\n      tag_50\n        /* \"#utility.yul\":426:427   */\n      0x00\n        /* \"#utility.yul\":415:424   */\n      dup4\n        /* \"#utility.yul\":411:428   */\n      add\n        /* \"#utility.yul\":402:408   */\n      dup5\n        /* \"#utility.yul\":358:429   */\n      tag_38\n      jump\t// in\n    tag_50:\n        /* \"#utility.yul\":214:436   */\n      swap3\n      swap2\n      pop\n      pop\n      jump\t// out\n        /* \"#utility.yul\":523:640   */\n    tag_40:\n        /* \"#utility.yul\":632:633   */\n      0x00\n        /* \"#utility.yul\":629:630   */\n      0x00\n        /* \"#utility.yul\":622:634   */\n      revert\n        /* \"#utility.yul\":769:891   */\n    tag_42:\n        /* \"#utility.yul\":842:866   */\n      tag_55\n        /* \"#utility.yul\":860:865   */\n      dup2\n        /* \"#utility.yul\":842:866   */\n      tag_37\n      jump\t// in\n    tag_55:\n        /* \"#utility.yul\":835:840   */\n      dup2\n        /* \"#utility.yul\":832:867   */\n      eq\n        /* \"#utility.yul\":822:885   */\n      tag_56\n      jumpi\n        /* \"#utility.yul\":881:882   */\n      0x00\n        /* \"#utility.yul\":878:879   */\n      0x00\n        /* \"#utility.yul\":871:883   */\n      revert\n        /* \"#utility.yul\":822:885   */\n    tag_56:\n        /* \"#utility.yul\":769:891   */\n      pop\n      jump\t// out\n        /* \"#utility.yul\":897:1036   */\n    tag_43:\n        /* \"#utility.yul\":943:948   */\n      0x00\n        /* \"#utility.yul\":981:987   */\n      dup2\n        /* \"#utility.yul\":968:988   */\n      calldataload\n        /* \"#utility.yul\":959:988   */\n      swap1\n      pop\n        /* \"#utility.yul\":997:1030   */\n      tag_58\n        /* \"#utility.yul\":1024:1029   */\n      dup2\n        /* \"#utility.yul\":997:1030   */\n      tag_42\n      jump\t// in\n    tag_58:\n        /* \"#utility.yul\":897:1036   */\n      swap3\n      swap2\n      pop\n      pop\n      jump\t// out\n        /* \"#utility.yul\":1042:1516   */\n    tag_14:\n        /* \"#utility.yul\":1110:1116   */\n      0x00\n        /* \"#utility.yul\":1118:1124   */\n      0x00\n        /* \"#utility.yul\":1167:1169   */\n      0x40\n        /* \"#utility.yul\":1155:1164   */\n      dup4\n        /* \"#utility.yul\":1146:1153   */\n      dup6\n        /* \"#utility.yul\":1142:1165   */\n      sub\n        /* \"#utility.yul\":1138:1170   */\n      slt\n        /* \"#utility.yul\":1135:1254   */\n      iszero\n      tag_60\n      jumpi\n        /* \"#utility.yul\":1173:1252   */\n      tag_61\n      tag_40\n      jump\t// in\n    tag_61:\n        /* \"#utility.yul\":1135:1254   */\n    tag_60:\n        /* \"#utility.yul\":1293:1294   */\n      0x00\n        /* \"#utility.yul\":1318:1371   */\n      tag_62\n        /* \"#utility.yul\":1363:1370   */\n      dup6\n        /* \"#utility.yul\":1354:1360   */\n      dup3\n        /* \"#utility.yul\":1343:1352   */\n      dup7\n        /* \"#utility.yul\":1339:1361   */\n      add\n        /* \"#utility.yul\":1318:1371   */\n      tag_43\n      jump\t// in\n    tag_62:\n        /* \"#utility.yul\":1308:1371   */\n      swap3\n      pop\n        /* \"#utility.yul\":1264:1381   */\n      pop\n        /* \"#utility.yul\":1420:1422   */\n      0x20\n        /* \"#utility.yul\":1446:1499   */\n      tag_63\n        /* \"#utility.yul\":1491:1498   */\n      dup6\n        /* \"#utility.yul\":1482:1488   */\n      dup3\n        /* \"#utility.yul\":1471:1480   */\n      dup7\n        /* \"#utility.yul\":1467:1489   */\n      add\n        /* \"#utility.yul\":1446:1499   */\n      tag_43\n      jump\t// in\n    tag_63:\n        /* \"#utility.yul\":1436:1499   */\n      swap2\n      pop\n        /* \"#utility.yul\":1391:1509   */\n      pop\n        /* \"#utility.yul\":1042:1516   */\n      swap3\n      pop\n      swap3\n      swap1\n      pop\n      jump\t// out\n        /* \"#utility.yul\":1522:1702   */\n    tag_44:\n        /* \"#utility.yul\":1570:1647   */\n      0x4e487b7100000000000000000000000000000000000000000000000000000000\n        /* \"#utility.yul\":1567:1568   */\n      0x00\n        /* \"#utility.yul\":1560:1648   */\n      mstore\n        /* \"#utility.yul\":1667:1671   */\n      0x11\n        /* \"#utility.yul\":1664:1665   */\n      0x04\n        /* \"#utility.yul\":1657:1672   */\n      mstore\n        /* \"#utility.yul\":1691:1695   */\n      0x24\n        /* \"#utility.yul\":1688:1689   */\n      0x00\n        /* \"#utility.yul\":1681:1696   */\n      revert\n        /* \"#utility.yul\":1708:1899   */\n    tag_29:\n        /* \"#utility.yul\":1748:1751   */\n      0x00\n        /* \"#utility.yul\":1767:1787   */\n      tag_66\n        /* \"#utility.yul\":1785:1786   */\n      dup3\n        /* \"#utility.yul\":1767:1787   */\n      tag_37\n      jump\t// in\n    tag_66:\n        /* \"#utility.yul\":1762:1787   */\n      swap2\n      pop\n        /* \"#utility.yul\":1801:1821   */\n      tag_67\n        /* \"#utility.yul\":1819:1820   */\n      dup4\n        /* \"#utility.yul\":1801:1821   */\n      tag_37\n      jump\t// in\n    tag_67:\n        /* \"#utility.yul\":1796:1821   */\n      swap3\n      pop\n        /* \"#utility.yul\":1844:1845   */\n      dup3\n        /* \"#utility.yul\":1841:1842   */\n      dup3\n        /* \"#utility.yul\":1837:1846   */\n      add\n        /* \"#utility.yul\":1830:1846   */\n      swap1\n      pop\n        /* \"#utility.yul\":1865:1868   */\n      dup1\n        /* \"#utility.yul\":1862:1863   */\n      dup3\n        /* \"#utility.yul\":1859:1869   */\n      gt\n        /* \"#utility.yul\":1856:1892   */\n      iszero\n      tag_68\n      jumpi\n        /* \"#utility.yul\":1872:1890   */\n      tag_69\n      tag_44\n      jump\t// in\n    tag_69:\n        /* \"#utility.yul\":1856:1892   */\n    tag_68:\n        /* \"#utility.yul\":1708:1899   */\n      swap3\n      swap2\n      pop\n      pop\n      jump\t// out\n        /* \"#utility.yul\":1905:2315   */\n    tag_34:\n        /* \"#utility.yul\":1945:1952   */\n      0x00\n        /* \"#utility.yul\":1968:1988   */\n      tag_71\n        /* \"#utility.yul\":1986:1987   */\n      dup3\n        /* \"#utility.yul\":1968:1988   */\n      tag_37\n      jump\t// in\n    tag_71:\n        /* \"#utility.yul\":1963:1988   */\n      swap2\n      pop\n        /* \"#utility.yul\":2002:2022   */\n      tag_72\n        /* \"#utility.yul\":2020:2021   */\n      dup4\n        /* \"#utility.yul\":2002:2022   */\n      tag_37\n      jump\t// in\n    tag_72:\n        /* \"#utility.yul\":1997:2022   */\n      swap3\n      pop\n        /* \"#utility.yul\":2057:2058   */\n      dup3\n        /* \"#utility.yul\":2054:2055   */\n      dup3\n        /* \"#utility.yul\":2050:2059   */\n      mul\n        /* \"#utility.yul\":2079:2109   */\n      tag_73\n        /* \"#utility.yul\":2097:2108   */\n      dup2\n        /* \"#utility.yul\":2079:2109   */\n      tag_37\n      jump\t// in\n    tag_73:\n        /* \"#utility.yul\":2068:2109   */\n      swap2\n      pop\n        /* \"#utility.yul\":2258:2259   */\n      dup3\n        /* \"#utility.yul\":2249:2256   */\n      dup3\n        /* \"#utility.yul\":2245:2260   */\n      div\n        /* \"#utility.yul\":2242:2243   */\n      dup5\n        /* \"#utility.yul\":2239:2261   */\n      eq\n        /* \"#utility.yul\":2219:2220   */\n      dup4\n        /* \"#utility.yul\":2212:2221   */\n      iszero\n        /* \"#utility.yul\":2192:2275   */\n      or\n        /* \"#utility.yul\":2169:2308   */\n      tag_74\n      jumpi\n        /* \"#utility.yul\":2288:2306   */\n      tag_75\n      tag_44\n      jump\t// in\n    tag_75:\n        /* \"#utility.yul\":2169:2308   */\n    tag_74:\n        /* \"#utility.yul\":1953:2315   */\n      pop\n        /* \"#utility.yul\":1905:2315   */\n      swap3\n      swap2\n      pop\n      pop\n      jump\t// out\n\n    auxdata: 0xa2646970667358221220dcd38833e9f2981b99097426cb72e3c5c66d8a56b63cc2d2ca6e1effb4491fb364736f6c63430008220033\n}\n",
				"bytecode": {
					"linkReferences": {},
					"object": "6080604052348015600e575f5ffd5b506102f48061001c5f395ff3fe608060405234801561000f575f5ffd5b5060043610610055575f3560e01c806335d8c47a1461005957806338db579d146100775780636d619daa14610093578063b1f6627b146100b1578063ea4097bd146100e1575b5f5ffd5b610061610111565b60405161006e9190610198565b60405180910390f35b610091600480360381019061008c91906101df565b61012d565b005b61009b610147565b6040516100a89190610198565b60405180910390f35b6100cb60048036038101906100c691906101df565b61014c565b6040516100d89190610198565b60405180910390f35b6100fb60048036038101906100f691906101df565b610166565b6040516101089190610198565b60405180910390f35b5f5f60649050603281610124919061024a565b90508091505090565b5f818361013a919061024a565b9050805f81905550505050565b5f5481565b5f5f828461015a919061027d565b90508091505092915050565b5f5f8284610174919061024a565b90508091505092915050565b5f819050919050565b61019281610180565b82525050565b5f6020820190506101ab5f830184610189565b92915050565b5f5ffd5b6101be81610180565b81146101c8575f5ffd5b50565b5f813590506101d9816101b5565b92915050565b5f5f604083850312156101f5576101f46101b1565b5b5f610202858286016101cb565b9250506020610213858286016101cb565b9150509250929050565b7f4e487b71000000000000000000000000000000000000000000000000000000005f52601160045260245ffd5b5f61025482610180565b915061025f83610180565b92508282019050808211156102775761027661021d565b5b92915050565b5f61028782610180565b915061029283610180565b92508282026102a081610180565b915082820484148315176102b7576102b661021d565b5b509291505056fea2646970667358221220dcd38833e9f2981b99097426cb72e3c5c66d8a56b63cc2d2ca6e1effb4491fb364736f6c63430008220033",
					"opcodes": "PUSH1 0x80 PUSH1 0x40 MSTORE CALLVALUE DUP1 ISZERO PUSH1 0xE JUMPI PUSH0 PUSH0 REVERT JUMPDEST POP PUSH2 0x2F4 DUP1 PUSH2 0x1C PUSH0 CODECOPY PUSH0 RETURN INVALID PUSH1 0x80 PUSH1 0x40 MSTORE CALLVALUE DUP1 ISZERO PUSH2 0xF JUMPI PUSH0 PUSH0 REVERT JUMPDEST POP PUSH1 0x4 CALLDATASIZE LT PUSH2 0x55 JUMPI PUSH0 CALLDATALOAD PUSH1 0xE0 SHR DUP1 PUSH4 0x35D8C47A EQ PUSH2 0x59 JUMPI DUP1 PUSH4 0x38DB579D EQ PUSH2 0x77 JUMPI DUP1 PUSH4 0x6D619DAA EQ PUSH2 0x93 JUMPI DUP1 PUSH4 0xB1F6627B EQ PUSH2 0xB1 JUMPI DUP1 PUSH4 0xEA4097BD EQ PUSH2 0xE1 JUMPI JUMPDEST PUSH0 PUSH0 REVERT JUMPDEST PUSH2 0x61 PUSH2 0x111 JUMP JUMPDEST PUSH1 0x40 MLOAD PUSH2 0x6E SWAP2 SWAP1 PUSH2 0x198 JUMP JUMPDEST PUSH1 0x40 MLOAD DUP1 SWAP2 SUB SWAP1 RETURN JUMPDEST PUSH2 0x91 PUSH1 0x4 DUP1 CALLDATASIZE SUB DUP2 ADD SWAP1 PUSH2 0x8C SWAP2 SWAP1 PUSH2 0x1DF JUMP JUMPDEST PUSH2 0x12D JUMP JUMPDEST STOP JUMPDEST PUSH2 0x9B PUSH2 0x147 JUMP JUMPDEST PUSH1 0x40 MLOAD PUSH2 0xA8 SWAP2 SWAP1 PUSH2 0x198 JUMP JUMPDEST PUSH1 0x40 MLOAD DUP1 SWAP2 SUB SWAP1 RETURN JUMPDEST PUSH2 0xCB PUSH1 0x4 DUP1 CALLDATASIZE SUB DUP2 ADD SWAP1 PUSH2 0xC6 SWAP2 SWAP1 PUSH2 0x1DF JUMP JUMPDEST PUSH2 0x14C JUMP JUMPDEST PUSH1 0x40 MLOAD PUSH2 0xD8 SWAP2 SWAP1 PUSH2 0x198 JUMP JUMPDEST PUSH1 0x40 MLOAD DUP1 SWAP2 SUB SWAP1 RETURN JUMPDEST PUSH2 0xFB PUSH1 0x4 DUP1 CALLDATASIZE SUB DUP2 ADD SWAP1 PUSH2 0xF6 SWAP2 SWAP1 PUSH2 0x1DF JUMP JUMPDEST PUSH2 0x166 JUMP JUMPDEST PUSH1 0x40 MLOAD PUSH2 0x108 SWAP2 SWAP1 PUSH2 0x198 JUMP JUMPDEST PUSH1 0x40 MLOAD DUP1 SWAP2 SUB SWAP1 RETURN JUMPDEST PUSH0 PUSH0 PUSH1 0x64 SWAP1 POP PUSH1 0x32 DUP2 PUSH2 0x124 SWAP2 SWAP1 PUSH2 0x24A JUMP JUMPDEST SWAP1 POP DUP1 SWAP2 POP POP SWAP1 JUMP JUMPDEST PUSH0 DUP2 DUP4 PUSH2 0x13A SWAP2 SWAP1 PUSH2 0x24A JUMP JUMPDEST SWAP1 POP DUP1 PUSH0 DUP2 SWAP1 SSTORE POP POP POP POP JUMP JUMPDEST PUSH0 SLOAD DUP2 JUMP JUMPDEST PUSH0 PUSH0 DUP3 DUP5 PUSH2 0x15A SWAP2 SWAP1 PUSH2 0x27D JUMP JUMPDEST SWAP1 POP DUP1 SWAP2 POP POP SWAP3 SWAP2 POP POP JUMP JUMPDEST PUSH0 PUSH0 DUP3 DUP5 PUSH2 0x174 SWAP2 SWAP1 PUSH2 0x24A JUMP JUMPDEST SWAP1 POP DUP1 SWAP2 POP POP SWAP3 SWAP2 POP POP JUMP JUMPDEST PUSH0 DUP2 SWAP1 POP SWAP2 SWAP1 POP JUMP JUMPDEST PUSH2 0x192 DUP2 PUSH2 0x180 JUMP JUMPDEST DUP3 MSTORE POP POP JUMP JUMPDEST PUSH0 PUSH1 0x20 DUP3 ADD SWAP1 POP PUSH2 0x1AB PUSH0 DUP4 ADD DUP5 PUSH2 0x189 JUMP JUMPDEST SWAP3 SWAP2 POP POP JUMP JUMPDEST PUSH0 PUSH0 REVERT JUMPDEST PUSH2 0x1BE DUP2 PUSH2 0x180 JUMP JUMPDEST DUP2 EQ PUSH2 0x1C8 JUMPI PUSH0 PUSH0 REVERT JUMPDEST POP JUMP JUMPDEST PUSH0 DUP2 CALLDATALOAD SWAP1 POP PUSH2 0x1D9 DUP2 PUSH2 0x1B5 JUMP JUMPDEST SWAP3 SWAP2 POP POP JUMP JUMPDEST PUSH0 PUSH0 PUSH1 0x40 DUP4 DUP6 SUB SLT ISZERO PUSH2 0x1F5 JUMPI PUSH2 0x1F4 PUSH2 0x1B1 JUMP JUMPDEST JUMPDEST PUSH0 PUSH2 0x202 DUP6 DUP3 DUP7 ADD PUSH2 0x1CB JUMP JUMPDEST SWAP3 POP POP PUSH1 0x20 PUSH2 0x213 DUP6 DUP3 DUP7 ADD PUSH2 0x1CB JUMP JUMPDEST SWAP2 POP POP SWAP3 POP SWAP3 SWAP1 POP JUMP JUMPDEST PUSH32 0x4E487B7100000000000000000000000000000000000000000000000000000000 PUSH0 MSTORE PUSH1 0x11 PUSH1 0x4 MSTORE PUSH1 0x24 PUSH0 REVERT JUMPDEST PUSH0 PUSH2 0x254 DUP3 PUSH2 0x180 JUMP JUMPDEST SWAP2 POP PUSH2 0x25F DUP4 PUSH2 0x180 JUMP JUMPDEST SWAP3 POP DUP3 DUP3 ADD SWAP1 POP DUP1 DUP3 GT ISZERO PUSH2 0x277 JUMPI PUSH2 0x276 PUSH2 0x21D JUMP JUMPDEST JUMPDEST SWAP3 SWAP2 POP POP JUMP JUMPDEST PUSH0 PUSH2 0x287 DUP3 PUSH2 0x180 JUMP JUMPDEST SWAP2 POP PUSH2 0x292 DUP4 PUSH2 0x180 JUMP JUMPDEST SWAP3 POP DUP3 DUP3 MUL PUSH2 0x2A0 DUP2 PUSH2 0x180 JUMP JUMPDEST SWAP2 POP DUP3 DUP3 DIV DUP5 EQ DUP4 ISZERO OR PUSH2 0x2B7 JUMPI PUSH2 0x2B6 PUSH2 0x21D JUMP JUMPDEST JUMPDEST POP SWAP3 SWAP2 POP POP JUMP INVALID LOG2 PUSH5 0x6970667358 0x22 SLT KECCAK256 0xDC 0xD3 DUP9 CALLER 0xE9 CALLCODE SWAP9 SHL SWAP10 MULMOD PUSH21 0x26CB72E3C5C66D8A56B63CC2D2CA6E1EFFB4491FB3 PUSH5 0x736F6C6343 STOP ADDMOD 0x22 STOP CALLER "
				},
				"gasEstimates": {
					"creation": {
						"codeDepositCost": "151200",
						"executionCost": "194",
						"totalCost": "151394"
					},
					"external": {
						"CalculateMultiplication(uint256,uint256)": "infinite",
						"calculateSum(uint256,uint256)": "infinite",
						"demonstrateLocalVariable()": "infinite",
						"storeCalculatedValue(uint256,uint256)": "infinite",
						"storedValue()": "2446"
					}
				},
				"methodIdentifiers": {
					"CalculateMultiplication(uint256,uint256)": "b1f6627b",
					"calculateSum(uint256,uint256)": "ea4097bd",
					"demonstrateLocalVariable()": "35d8c47a",
					"storeCalculatedValue(uint256,uint256)": "38db579d",
					"storedValue()": "6d619daa"
				}
			},
			"storageLayout": {
				"storage": [
					{
						"astId": 60,
						"contract": "val16.sol:LocalUintVariable",
						"label": "storedValue",
						"offset": 0,
						"slot": "0",
						"type": "t_uint256"
					}
				],
				"types": {
					"t_uint256": {
						"encoding": "inplace",
						"label": "uint256",
						"numberOfBytes": "32"
					}
				}
			},
			"userdoc": {
				"kind": "user",
				"methods": {},
				"version": 1
			}
		}
	}
}