{
	"val83.sol": {
		"SafeVault": {
			"abi": [
				{
					"inputs": [],
					"stateMutability": "nonpayable",
					"type": "constructor"
				},
				{
					"anonymous": false,
					"inputs": [
						{
							"indexed": true,
							"internalType": "address",
							"name": "user",
							"type": "address"
						},
						{
							"indexed": false,
							"internalType": "uint256",
							"name": "amount",
							"type": "uint256"
						}
					],
					"name": "Deposited",
					"type": "event"
				},
				{
					"anonymous": false,
					"inputs": [
						{
							"indexed": false,
							"internalType": "uint256",
							"name": "unexpectedAmount",
							"type": "uint256"
						}
					],
					"name": "ForcedETHDetected",
					"type": "event"
				},
				{
					"anonymous": false,
					"inputs": [
						{
							"indexed": false,
							"internalType": "uint256",
							"name": "amount",
							"type": "uint256"
						}
					],
					"name": "RescueETH",
					"type": "event"
				},
				{
					"anonymous": false,
					"inputs": [
						{
							"indexed": true,
							"internalType": "address",
							"name": "user",
							"type": "address"
						},
						{
							"indexed": false,
							"internalType": "uint256",
							"name": "amount",
							"type": "uint256"
						}
					],
					"name": "Withdrawn",
					"type": "event"
				},
				{
					"inputs": [
						{
							"internalType": "address",
							"name": "",
							"type": "address"
						}
					],
					"name": "balances",
					"outputs": [
						{
							"internalType": "uint256",
							"name": "",
							"type": "uint256"
						}
					],
					"stateMutability": "view",
					"type": "function"
				},
				{
					"inputs": [],
					"name": "deposit",
					"outputs": [],
					"stateMutability": "payable",
					"type": "function"
				},
				{
					"inputs": [],
					"name": "detectForcedETH",
					"outputs": [
						{
							"internalType": "uint256",
							"name": "",
							"type": "uint256"
						}
					],
					"stateMutability": "nonpayable",
					"type": "function"
				},
				{
					"inputs": [],
					"name": "getActualBalance",
					"outputs": [
						{
							"internalType": "uint256",
							"name": "",
							"type": "uint256"
						}
					],
					"stateMutability": "view",
					"type": "function"
				},
				{
					"inputs": [],
					"name": "getTrackedBalance",
					"outputs": [
						{
							"internalType": "uint256",
							"name": "",
							"type": "uint256"
						}
					],
					"stateMutability": "view",
					"type": "function"
				},
				{
					"inputs": [],
					"name": "owner",
					"outputs": [
						{
							"internalType": "address",
							"name": "",
							"type": "address"
						}
					],
					"stateMutability": "view",
					"type": "function"
				},
				{
					"inputs": [],
					"name": "rescueForcedETH",
					"outputs": [],
					"stateMutability": "nonpayable",
					"type": "function"
				},
				{
					"inputs": [],
					"name": "trackedDeposits",
					"outputs": [
						{
							"internalType": "uint256",
							"name": "",
							"type": "uint256"
						}
					],
					"stateMutability": "view",
					"type": "function"
				},
				{
					"inputs": [
						{
							"internalType": "uint256",
							"name": "amount",
							"type": "uint256"
						}
					],
					"name": "withdraw",
					"outputs": [],
					"stateMutability": "nonpayable",
					"type": "function"
				},
				{
					"stateMutability": "payable",
					"type": "receive"
				}
			],
			"devdoc": {
				"kind": "dev",
				"methods": {},
				"version": 1
			},
			"evm": {
				"assembly": "    /* \"val83.sol\":5327:9864  contract SafeVault {... */\n  mstore(0x40, 0x80)\n    /* \"val83.sol\":6494:6545  constructor() {... */\n  callvalue\n  dup1\n  iszero\n  tag_1\n  jumpi\n  revert(0x00, 0x00)\ntag_1:\n  pop\n    /* \"val83.sol\":6527:6537  msg.sender */\n  caller\n    /* \"val83.sol\":6519:6524  owner */\n  0x02\n  0x00\n    /* \"val83.sol\":6519:6537  owner = msg.sender */\n  0x0100\n  exp\n  dup2\n  sload\n  dup2\n  0xffffffffffffffffffffffffffffffffffffffff\n  mul\n  not\n  and\n  swap1\n  dup4\n  0xffffffffffffffffffffffffffffffffffffffff\n  and\n  mul\n  or\n  swap1\n  sstore\n  pop\n    /* \"val83.sol\":5327:9864  contract SafeVault {... */\n  dataSize(sub_0)\n  dup1\n  dataOffset(sub_0)\n  0x00\n  codecopy\n  0x00\n  return\nstop\n\nsub_0: assembly {\n        /* \"val83.sol\":5327:9864  contract SafeVault {... */\n      mstore(0x40, 0x80)\n      jumpi(tag_1, lt(calldatasize, 0x04))\n      shr(0xe0, calldataload(0x00))\n      dup1\n      0x8da5cb5b\n      gt\n      tag_12\n      jumpi\n      dup1\n      0x8da5cb5b\n      eq\n      tag_7\n      jumpi\n      dup1\n      0xa6352871\n      eq\n      tag_8\n      jumpi\n      dup1\n      0xd0e30db0\n      eq\n      tag_9\n      jumpi\n      dup1\n      0xe35819b6\n      eq\n      tag_10\n      jumpi\n      dup1\n      0xf01c7bbc\n      eq\n      tag_11\n      jumpi\n      jump(tag_2)\n    tag_12:\n      dup1\n      0x15669b5f\n      eq\n      tag_3\n      jumpi\n      dup1\n      0x27e235e3\n      eq\n      tag_4\n      jumpi\n      dup1\n      0x2e1a7d4d\n      eq\n      tag_5\n      jumpi\n      dup1\n      0x44dd3d0d\n      eq\n      tag_6\n      jumpi\n      jump(tag_2)\n    tag_1:\n      jumpi(tag_2, calldatasize)\n      stop\n    tag_2:\n      revert(0x00, 0x00)\n        /* \"val83.sol\":8293:8756  function detectForcedETH()... */\n    tag_3:\n      callvalue\n      dup1\n      iszero\n      tag_15\n      jumpi\n      revert(0x00, 0x00)\n    tag_15:\n      pop\n      tag_16\n      tag_17\n      jump\t// in\n    tag_16:\n      mload(0x40)\n      tag_18\n      swap2\n      swap1\n      tag_19\n      jump\t// in\n    tag_18:\n      mload(0x40)\n      dup1\n      swap2\n      sub\n      swap1\n      return\n        /* \"val83.sol\":5394:5437  mapping(address => uint256) public balances */\n    tag_4:\n      callvalue\n      dup1\n      iszero\n      tag_20\n      jumpi\n      revert(0x00, 0x00)\n    tag_20:\n      pop\n      tag_21\n      0x04\n      dup1\n      calldatasize\n      sub\n      dup2\n      add\n      swap1\n      tag_22\n      swap2\n      swap1\n      tag_23\n      jump\t// in\n    tag_22:\n      tag_24\n      jump\t// in\n    tag_21:\n      mload(0x40)\n      tag_25\n      swap2\n      swap1\n      tag_19\n      jump\t// in\n    tag_25:\n      mload(0x40)\n      dup1\n      swap2\n      sub\n      swap1\n      return\n        /* \"val83.sol\":7440:8075  function withdraw(... */\n    tag_5:\n      callvalue\n      dup1\n      iszero\n      tag_26\n      jumpi\n      revert(0x00, 0x00)\n    tag_26:\n      pop\n      tag_27\n      0x04\n      dup1\n      calldatasize\n      sub\n      dup2\n      add\n      swap1\n      tag_28\n      swap2\n      swap1\n      tag_29\n      jump\t// in\n    tag_28:\n      tag_30\n      jump\t// in\n    tag_27:\n      stop\n        /* \"val83.sol\":9580:9719  function getActualBalance()... */\n    tag_6:\n      callvalue\n      dup1\n      iszero\n      tag_31\n      jumpi\n      revert(0x00, 0x00)\n    tag_31:\n      pop\n      tag_32\n      tag_33\n      jump\t// in\n    tag_32:\n      mload(0x40)\n      tag_34\n      swap2\n      swap1\n      tag_19\n      jump\t// in\n    tag_34:\n      mload(0x40)\n      dup1\n      swap2\n      sub\n      swap1\n      return\n        /* \"val83.sol\":5572:5592  address public owner */\n    tag_7:\n      callvalue\n      dup1\n      iszero\n      tag_35\n      jumpi\n      revert(0x00, 0x00)\n    tag_35:\n      pop\n      tag_36\n      tag_37\n      jump\t// in\n    tag_36:\n      mload(0x40)\n      tag_38\n      swap2\n      swap1\n      tag_39\n      jump\t// in\n    tag_38:\n      mload(0x40)\n      dup1\n      swap2\n      sub\n      swap1\n      return\n        /* \"val83.sol\":8966:9416  function rescueForcedETH()... */\n    tag_8:\n      callvalue\n      dup1\n      iszero\n      tag_40\n      jumpi\n      revert(0x00, 0x00)\n    tag_40:\n      pop\n      tag_41\n      tag_42\n      jump\t// in\n    tag_41:\n      stop\n        /* \"val83.sol\":6954:7277  function deposit()... */\n    tag_9:\n      tag_43\n      tag_44\n      jump\t// in\n    tag_43:\n      stop\n        /* \"val83.sol\":9727:9861  function getTrackedBalance()... */\n    tag_10:\n      callvalue\n      dup1\n      iszero\n      tag_45\n      jumpi\n      revert(0x00, 0x00)\n    tag_45:\n      pop\n      tag_46\n      tag_47\n      jump\t// in\n    tag_46:\n      mload(0x40)\n      tag_48\n      swap2\n      swap1\n      tag_19\n      jump\t// in\n    tag_48:\n      mload(0x40)\n      dup1\n      swap2\n      sub\n      swap1\n      return\n        /* \"val83.sol\":5502:5532  uint256 public trackedDeposits */\n    tag_11:\n      callvalue\n      dup1\n      iszero\n      tag_49\n      jumpi\n      revert(0x00, 0x00)\n    tag_49:\n      pop\n      tag_50\n      tag_51\n      jump\t// in\n    tag_50:\n      mload(0x40)\n      tag_52\n      swap2\n      swap1\n      tag_19\n      jump\t// in\n    tag_52:\n      mload(0x40)\n      dup1\n      swap2\n      sub\n      swap1\n      return\n        /* \"val83.sol\":8293:8756  function detectForcedETH()... */\n    tag_17:\n        /* \"val83.sol\":8354:8361  uint256 */\n      0x00\n        /* \"val83.sol\":8379:8400  uint256 actualBalance */\n      0x00\n        /* \"val83.sol\":8416:8437  address(this).balance */\n      selfbalance\n        /* \"val83.sol\":8379:8437  uint256 actualBalance =... */\n      swap1\n      pop\n        /* \"val83.sol\":8484:8499  trackedDeposits */\n      sload(0x01)\n        /* \"val83.sol\":8468:8481  actualBalance */\n      dup2\n        /* \"val83.sol\":8468:8499  actualBalance > trackedDeposits */\n      gt\n        /* \"val83.sol\":8450:8728  if (... */\n      iszero\n      tag_54\n      jumpi\n        /* \"val83.sol\":8528:8541  uint256 extra */\n      0x00\n        /* \"val83.sol\":8594:8609  trackedDeposits */\n      sload(0x01)\n        /* \"val83.sol\":8561:8574  actualBalance */\n      dup3\n        /* \"val83.sol\":8561:8609  actualBalance -... */\n      tag_55\n      swap2\n      swap1\n      tag_56\n      jump\t// in\n    tag_55:\n        /* \"val83.sol\":8528:8609  uint256 extra =... */\n      swap1\n      pop\n        /* \"val83.sol\":8631:8687  ForcedETHDetected(... */\n      0x2d64c0193bb49687e15b2785f0b7708cace7ccd21c01ab17420833c1015a766a\n        /* \"val83.sol\":8667:8672  extra */\n      dup2\n        /* \"val83.sol\":8631:8687  ForcedETHDetected(... */\n      mload(0x40)\n      tag_57\n      swap2\n      swap1\n      tag_19\n      jump\t// in\n    tag_57:\n      mload(0x40)\n      dup1\n      swap2\n      sub\n      swap1\n      log1\n        /* \"val83.sol\":8711:8716  extra */\n      dup1\n        /* \"val83.sol\":8704:8716  return extra */\n      swap3\n      pop\n      pop\n      pop\n      jump(tag_53)\n        /* \"val83.sol\":8450:8728  if (... */\n    tag_54:\n        /* \"val83.sol\":8747:8748  0 */\n      0x00\n        /* \"val83.sol\":8740:8748  return 0 */\n      swap2\n      pop\n      pop\n        /* \"val83.sol\":8293:8756  function detectForcedETH()... */\n    tag_53:\n      swap1\n      jump\t// out\n        /* \"val83.sol\":5394:5437  mapping(address => uint256) public balances */\n    tag_24:\n      mstore(0x20, 0x00)\n      dup1\n      0x00\n      mstore\n      keccak256(0x00, 0x40)\n      0x00\n      swap2\n      pop\n      swap1\n      pop\n      sload\n      dup2\n      jump\t// out\n        /* \"val83.sol\":7440:8075  function withdraw(... */\n    tag_30:\n        /* \"val83.sol\":7570:7576  amount */\n      dup1\n        /* \"val83.sol\":7546:7554  balances */\n      0x00\n        /* \"val83.sol\":7546:7566  balances[msg.sender] */\n      0x00\n        /* \"val83.sol\":7555:7565  msg.sender */\n      caller\n        /* \"val83.sol\":7546:7566  balances[msg.sender] */\n      0xffffffffffffffffffffffffffffffffffffffff\n      and\n      0xffffffffffffffffffffffffffffffffffffffff\n      and\n      dup2\n      mstore\n      0x20\n      add\n      swap1\n      dup2\n      mstore\n      0x20\n      add\n      0x00\n      keccak256\n      sload\n        /* \"val83.sol\":7546:7576  balances[msg.sender] >= amount */\n      lt\n      iszero\n        /* \"val83.sol\":7524:7624  require(... */\n      tag_59\n      jumpi\n      mload(0x40)\n      0x08c379a000000000000000000000000000000000000000000000000000000000\n      dup2\n      mstore\n      0x04\n      add\n      tag_60\n      swap1\n      tag_61\n      jump\t// in\n    tag_60:\n      mload(0x40)\n      dup1\n      swap2\n      sub\n      swap1\n      revert\n    tag_59:\n        /* \"val83.sol\":7734:7740  amount */\n      dup1\n        /* \"val83.sol\":7710:7718  balances */\n      0x00\n        /* \"val83.sol\":7710:7730  balances[msg.sender] */\n      0x00\n        /* \"val83.sol\":7719:7729  msg.sender */\n      caller\n        /* \"val83.sol\":7710:7730  balances[msg.sender] */\n      0xffffffffffffffffffffffffffffffffffffffff\n      and\n      0xffffffffffffffffffffffffffffffffffffffff\n      and\n      dup2\n      mstore\n      0x20\n      add\n      swap1\n      dup2\n      mstore\n      0x20\n      add\n      0x00\n      keccak256\n      0x00\n        /* \"val83.sol\":7710:7740  balances[msg.sender] -= amount */\n      dup3\n      dup3\n      sload\n      tag_62\n      swap2\n      swap1\n      tag_56\n      jump\t// in\n    tag_62:\n      swap3\n      pop\n      pop\n      dup2\n      swap1\n      sstore\n      pop\n        /* \"val83.sol\":7772:7778  amount */\n      dup1\n        /* \"val83.sol\":7753:7768  trackedDeposits */\n      0x01\n      0x00\n        /* \"val83.sol\":7753:7778  trackedDeposits -= amount */\n      dup3\n      dup3\n      sload\n      tag_63\n      swap2\n      swap1\n      tag_56\n      jump\t// in\n    tag_63:\n      swap3\n      pop\n      pop\n      dup2\n      swap1\n      sstore\n      pop\n        /* \"val83.sol\":7792:7804  bool success */\n      0x00\n        /* \"val83.sol\":7831:7841  msg.sender */\n      caller\n        /* \"val83.sol\":7823:7847  payable(msg.sender).call */\n      0xffffffffffffffffffffffffffffffffffffffff\n      and\n        /* \"val83.sol\":7873:7879  amount */\n      dup3\n        /* \"val83.sol\":7823:7898  payable(msg.sender).call{... */\n      mload(0x40)\n      tag_64\n      swap1\n      tag_65\n      jump\t// in\n    tag_64:\n      0x00\n      mload(0x40)\n      dup1\n      dup4\n      sub\n      dup2\n      dup6\n      dup8\n      gas\n      call\n      swap3\n      pop\n      pop\n      pop\n      returndatasize\n      dup1\n      0x00\n      dup2\n      eq\n      tag_68\n      jumpi\n      mload(0x40)\n      swap2\n      pop\n      and(add(returndatasize, 0x3f), not(0x1f))\n      dup3\n      add\n      0x40\n      mstore\n      returndatasize\n      dup3\n      mstore\n      returndatasize\n      0x00\n      0x20\n      dup5\n      add\n      returndatacopy\n      jump(tag_67)\n    tag_68:\n      0x60\n      swap2\n      pop\n    tag_67:\n      pop\n        /* \"val83.sol\":7791:7898  (bool success, ) =... */\n      pop\n      swap1\n      pop\n        /* \"val83.sol\":7933:7940  success */\n      dup1\n        /* \"val83.sol\":7911:7983  require(... */\n      tag_69\n      jumpi\n      mload(0x40)\n      0x08c379a000000000000000000000000000000000000000000000000000000000\n      dup2\n      mstore\n      0x04\n      add\n      tag_70\n      swap1\n      tag_71\n      jump\t// in\n    tag_70:\n      mload(0x40)\n      dup1\n      swap2\n      sub\n      swap1\n      revert\n    tag_69:\n        /* \"val83.sol\":8025:8035  msg.sender */\n      caller\n        /* \"val83.sol\":8001:8067  Withdrawn(... */\n      0xffffffffffffffffffffffffffffffffffffffff\n      and\n      0x7084f5476618d8e60b11ef0d7d3f06914655adb8793e28ff7f018d4c76d505d5\n        /* \"val83.sol\":8050:8056  amount */\n      dup4\n        /* \"val83.sol\":8001:8067  Withdrawn(... */\n      mload(0x40)\n      tag_72\n      swap2\n      swap1\n      tag_19\n      jump\t// in\n    tag_72:\n      mload(0x40)\n      dup1\n      swap2\n      sub\n      swap1\n      log2\n        /* \"val83.sol\":7513:8075  {... */\n      pop\n        /* \"val83.sol\":7440:8075  function withdraw(... */\n      pop\n      jump\t// out\n        /* \"val83.sol\":9580:9719  function getActualBalance()... */\n    tag_33:\n        /* \"val83.sol\":9658:9665  uint256 */\n      0x00\n        /* \"val83.sol\":9690:9711  address(this).balance */\n      selfbalance\n        /* \"val83.sol\":9683:9711  return address(this).balance */\n      swap1\n      pop\n        /* \"val83.sol\":9580:9719  function getActualBalance()... */\n      swap1\n      jump\t// out\n        /* \"val83.sol\":5572:5592  address public owner */\n    tag_37:\n      0x02\n      0x00\n      swap1\n      sload\n      swap1\n      0x0100\n      exp\n      swap1\n      div\n      0xffffffffffffffffffffffffffffffffffffffff\n      and\n      dup2\n      jump\t// out\n        /* \"val83.sol\":8966:9416  function rescueForcedETH()... */\n    tag_42:\n        /* \"val83.sol\":6271:6276  owner */\n      0x02\n      0x00\n      swap1\n      sload\n      swap1\n      0x0100\n      exp\n      swap1\n      div\n      0xffffffffffffffffffffffffffffffffffffffff\n      and\n        /* \"val83.sol\":6257:6276  msg.sender == owner */\n      0xffffffffffffffffffffffffffffffffffffffff\n      and\n        /* \"val83.sol\":6257:6267  msg.sender */\n      caller\n        /* \"val83.sol\":6257:6276  msg.sender == owner */\n      0xffffffffffffffffffffffffffffffffffffffff\n      and\n      eq\n        /* \"val83.sol\":6235:6313  require(... */\n      tag_75\n      jumpi\n      mload(0x40)\n      0x08c379a000000000000000000000000000000000000000000000000000000000\n      dup2\n      mstore\n      0x04\n      add\n      tag_76\n      swap1\n      tag_77\n      jump\t// in\n    tag_76:\n      mload(0x40)\n      dup1\n      swap2\n      sub\n      swap1\n      revert\n    tag_75:\n        /* \"val83.sol\":9046:9059  uint256 extra */\n      0x00\n        /* \"val83.sol\":9075:9092  detectForcedETH() */\n      tag_79\n        /* \"val83.sol\":9075:9090  detectForcedETH */\n      tag_17\n        /* \"val83.sol\":9075:9092  detectForcedETH() */\n      jump\t// in\n    tag_79:\n        /* \"val83.sol\":9046:9092  uint256 extra =... */\n      swap1\n      pop\n        /* \"val83.sol\":9135:9136  0 */\n      0x00\n        /* \"val83.sol\":9127:9132  extra */\n      dup2\n        /* \"val83.sol\":9127:9136  extra > 0 */\n      gt\n        /* \"val83.sol\":9105:9177  require(... */\n      tag_80\n      jumpi\n      mload(0x40)\n      0x08c379a000000000000000000000000000000000000000000000000000000000\n      dup2\n      mstore\n      0x04\n      add\n      tag_81\n      swap1\n      tag_82\n      jump\t// in\n    tag_81:\n      mload(0x40)\n      dup1\n      swap2\n      sub\n      swap1\n      revert\n    tag_80:\n        /* \"val83.sol\":9191:9203  bool success */\n      0x00\n        /* \"val83.sol\":9230:9235  owner */\n      0x02\n      0x00\n      swap1\n      sload\n      swap1\n      0x0100\n      exp\n      swap1\n      div\n      0xffffffffffffffffffffffffffffffffffffffff\n      and\n        /* \"val83.sol\":9222:9241  payable(owner).call */\n      0xffffffffffffffffffffffffffffffffffffffff\n      and\n        /* \"val83.sol\":9267:9272  extra */\n      dup3\n        /* \"val83.sol\":9222:9291  payable(owner).call{... */\n      mload(0x40)\n      tag_83\n      swap1\n      tag_65\n      jump\t// in\n    tag_83:\n      0x00\n      mload(0x40)\n      dup1\n      dup4\n      sub\n      dup2\n      dup6\n      dup8\n      gas\n      call\n      swap3\n      pop\n      pop\n      pop\n      returndatasize\n      dup1\n      0x00\n      dup2\n      eq\n      tag_86\n      jumpi\n      mload(0x40)\n      swap2\n      pop\n      and(add(returndatasize, 0x3f), not(0x1f))\n      dup3\n      add\n      0x40\n      mstore\n      returndatasize\n      dup3\n      mstore\n      returndatasize\n      0x00\n      0x20\n      dup5\n      add\n      returndatacopy\n      jump(tag_85)\n    tag_86:\n      0x60\n      swap2\n      pop\n    tag_85:\n      pop\n        /* \"val83.sol\":9190:9291  (bool success, ) =... */\n      pop\n      swap1\n      pop\n        /* \"val83.sol\":9326:9333  success */\n      dup1\n        /* \"val83.sol\":9304:9374  require(... */\n      tag_87\n      jumpi\n      mload(0x40)\n      0x08c379a000000000000000000000000000000000000000000000000000000000\n      dup2\n      mstore\n      0x04\n      add\n      tag_88\n      swap1\n      tag_89\n      jump\t// in\n    tag_88:\n      mload(0x40)\n      dup1\n      swap2\n      sub\n      swap1\n      revert\n    tag_87:\n        /* \"val83.sol\":9392:9408  RescueETH(extra) */\n      0x3373c052f32575936b89b777340cd8fa8fc47f26ff5ae1620367db5ac6b9d8f4\n        /* \"val83.sol\":9402:9407  extra */\n      dup3\n        /* \"val83.sol\":9392:9408  RescueETH(extra) */\n      mload(0x40)\n      tag_90\n      swap2\n      swap1\n      tag_19\n      jump\t// in\n    tag_90:\n      mload(0x40)\n      dup1\n      swap2\n      sub\n      swap1\n      log1\n        /* \"val83.sol\":9035:9416  {... */\n      pop\n      pop\n        /* \"val83.sol\":8966:9416  function rescueForcedETH()... */\n      jump\t// out\n        /* \"val83.sol\":6954:7277  function deposit()... */\n    tag_44:\n        /* \"val83.sol\":7058:7059  0 */\n      0x00\n        /* \"val83.sol\":7046:7055  msg.value */\n      callvalue\n        /* \"val83.sol\":7046:7059  msg.value > 0 */\n      gt\n        /* \"val83.sol\":7024:7095  require(... */\n      tag_92\n      jumpi\n      mload(0x40)\n      0x08c379a000000000000000000000000000000000000000000000000000000000\n      dup2\n      mstore\n      0x04\n      add\n      tag_93\n      swap1\n      tag_94\n      jump\t// in\n    tag_93:\n      mload(0x40)\n      dup1\n      swap2\n      sub\n      swap1\n      revert\n    tag_92:\n        /* \"val83.sol\":7132:7141  msg.value */\n      callvalue\n        /* \"val83.sol\":7108:7116  balances */\n      0x00\n        /* \"val83.sol\":7108:7128  balances[msg.sender] */\n      0x00\n        /* \"val83.sol\":7117:7127  msg.sender */\n      caller\n        /* \"val83.sol\":7108:7128  balances[msg.sender] */\n      0xffffffffffffffffffffffffffffffffffffffff\n      and\n      0xffffffffffffffffffffffffffffffffffffffff\n      and\n      dup2\n      mstore\n      0x20\n      add\n      swap1\n      dup2\n      mstore\n      0x20\n      add\n      0x00\n      keccak256\n      0x00\n        /* \"val83.sol\":7108:7141  balances[msg.sender] += msg.value */\n      dup3\n      dup3\n      sload\n      tag_95\n      swap2\n      swap1\n      tag_96\n      jump\t// in\n    tag_95:\n      swap3\n      pop\n      pop\n      dup2\n      swap1\n      sstore\n      pop\n        /* \"val83.sol\":7173:7182  msg.value */\n      callvalue\n        /* \"val83.sol\":7154:7169  trackedDeposits */\n      0x01\n      0x00\n        /* \"val83.sol\":7154:7182  trackedDeposits += msg.value */\n      dup3\n      dup3\n      sload\n      tag_97\n      swap2\n      swap1\n      tag_96\n      jump\t// in\n    tag_97:\n      swap3\n      pop\n      pop\n      dup2\n      swap1\n      sstore\n      pop\n        /* \"val83.sol\":7224:7234  msg.sender */\n      caller\n        /* \"val83.sol\":7200:7269  Deposited(... */\n      0xffffffffffffffffffffffffffffffffffffffff\n      and\n      0x2da466a7b24304f47e87fa2e1e5a81b9831ce54fec19055ce277ca2f39ba42c4\n        /* \"val83.sol\":7249:7258  msg.value */\n      callvalue\n        /* \"val83.sol\":7200:7269  Deposited(... */\n      mload(0x40)\n      tag_98\n      swap2\n      swap1\n      tag_19\n      jump\t// in\n    tag_98:\n      mload(0x40)\n      dup1\n      swap2\n      sub\n      swap1\n      log2\n        /* \"val83.sol\":6954:7277  function deposit()... */\n      jump\t// out\n        /* \"val83.sol\":9727:9861  function getTrackedBalance()... */\n    tag_47:\n        /* \"val83.sol\":9806:9813  uint256 */\n      0x00\n        /* \"val83.sol\":9838:9853  trackedDeposits */\n      sload(0x01)\n        /* \"val83.sol\":9831:9853  return trackedDeposits */\n      swap1\n      pop\n        /* \"val83.sol\":9727:9861  function getTrackedBalance()... */\n      swap1\n      jump\t// out\n        /* \"val83.sol\":5502:5532  uint256 public trackedDeposits */\n    tag_51:\n      sload(0x01)\n      dup2\n      jump\t// out\n        /* \"#utility.yul\":7:84   */\n    tag_100:\n        /* \"#utility.yul\":44:51   */\n      0x00\n        /* \"#utility.yul\":73:78   */\n      dup2\n        /* \"#utility.yul\":62:78   */\n      swap1\n      pop\n        /* \"#utility.yul\":7:84   */\n      swap2\n      swap1\n      pop\n      jump\t// out\n        /* \"#utility.yul\":90:208   */\n    tag_101:\n        /* \"#utility.yul\":177:201   */\n      tag_132\n        /* \"#utility.yul\":195:200   */\n      dup2\n        /* \"#utility.yul\":177:201   */\n      tag_100\n      jump\t// in\n    tag_132:\n        /* \"#utility.yul\":172:175   */\n      dup3\n        /* \"#utility.yul\":165:202   */\n      mstore\n        /* \"#utility.yul\":90:208   */\n      pop\n      pop\n      jump\t// out\n        /* \"#utility.yul\":214:436   */\n    tag_19:\n        /* \"#utility.yul\":307:311   */\n      0x00\n        /* \"#utility.yul\":345:347   */\n      0x20\n        /* \"#utility.yul\":334:343   */\n      dup3\n        /* \"#utility.yul\":330:348   */\n      add\n        /* \"#utility.yul\":322:348   */\n      swap1\n      pop\n        /* \"#utility.yul\":358:429   */\n      tag_134\n        /* \"#utility.yul\":426:427   */\n      0x00\n        /* \"#utility.yul\":415:424   */\n      dup4\n        /* \"#utility.yul\":411:428   */\n      add\n        /* \"#utility.yul\":402:408   */\n      dup5\n        /* \"#utility.yul\":358:429   */\n      tag_101\n      jump\t// in\n    tag_134:\n        /* \"#utility.yul\":214:436   */\n      swap3\n      swap2\n      pop\n      pop\n      jump\t// out\n        /* \"#utility.yul\":523:640   */\n    tag_103:\n        /* \"#utility.yul\":632:633   */\n      0x00\n        /* \"#utility.yul\":629:630   */\n      0x00\n        /* \"#utility.yul\":622:634   */\n      revert\n        /* \"#utility.yul\":769:895   */\n    tag_105:\n        /* \"#utility.yul\":806:813   */\n      0x00\n        /* \"#utility.yul\":846:888   */\n      0xffffffffffffffffffffffffffffffffffffffff\n        /* \"#utility.yul\":839:844   */\n      dup3\n        /* \"#utility.yul\":835:889   */\n      and\n        /* \"#utility.yul\":824:889   */\n      swap1\n      pop\n        /* \"#utility.yul\":769:895   */\n      swap2\n      swap1\n      pop\n      jump\t// out\n        /* \"#utility.yul\":901:997   */\n    tag_106:\n        /* \"#utility.yul\":938:945   */\n      0x00\n        /* \"#utility.yul\":967:991   */\n      tag_140\n        /* \"#utility.yul\":985:990   */\n      dup3\n        /* \"#utility.yul\":967:991   */\n      tag_105\n      jump\t// in\n    tag_140:\n        /* \"#utility.yul\":956:991   */\n      swap1\n      pop\n        /* \"#utility.yul\":901:997   */\n      swap2\n      swap1\n      pop\n      jump\t// out\n        /* \"#utility.yul\":1003:1125   */\n    tag_107:\n        /* \"#utility.yul\":1076:1100   */\n      tag_142\n        /* \"#utility.yul\":1094:1099   */\n      dup2\n        /* \"#utility.yul\":1076:1100   */\n      tag_106\n      jump\t// in\n    tag_142:\n        /* \"#utility.yul\":1069:1074   */\n      dup2\n        /* \"#utility.yul\":1066:1101   */\n      eq\n        /* \"#utility.yul\":1056:1119   */\n      tag_143\n      jumpi\n        /* \"#utility.yul\":1115:1116   */\n      0x00\n        /* \"#utility.yul\":1112:1113   */\n      0x00\n        /* \"#utility.yul\":1105:1117   */\n      revert\n        /* \"#utility.yul\":1056:1119   */\n    tag_143:\n        /* \"#utility.yul\":1003:1125   */\n      pop\n      jump\t// out\n        /* \"#utility.yul\":1131:1270   */\n    tag_108:\n        /* \"#utility.yul\":1177:1182   */\n      0x00\n        /* \"#utility.yul\":1215:1221   */\n      dup2\n        /* \"#utility.yul\":1202:1222   */\n      calldataload\n        /* \"#utility.yul\":1193:1222   */\n      swap1\n      pop\n        /* \"#utility.yul\":1231:1264   */\n      tag_145\n        /* \"#utility.yul\":1258:1263   */\n      dup2\n        /* \"#utility.yul\":1231:1264   */\n      tag_107\n      jump\t// in\n    tag_145:\n        /* \"#utility.yul\":1131:1270   */\n      swap3\n      swap2\n      pop\n      pop\n      jump\t// out\n        /* \"#utility.yul\":1276:1605   */\n    tag_23:\n        /* \"#utility.yul\":1335:1341   */\n      0x00\n        /* \"#utility.yul\":1384:1386   */\n      0x20\n        /* \"#utility.yul\":1372:1381   */\n      dup3\n        /* \"#utility.yul\":1363:1370   */\n      dup5\n        /* \"#utility.yul\":1359:1382   */\n      sub\n        /* \"#utility.yul\":1355:1387   */\n      slt\n        /* \"#utility.yul\":1352:1471   */\n      iszero\n      tag_147\n      jumpi\n        /* \"#utility.yul\":1390:1469   */\n      tag_148\n      tag_103\n      jump\t// in\n    tag_148:\n        /* \"#utility.yul\":1352:1471   */\n    tag_147:\n        /* \"#utility.yul\":1510:1511   */\n      0x00\n        /* \"#utility.yul\":1535:1588   */\n      tag_149\n        /* \"#utility.yul\":1580:1587   */\n      dup5\n        /* \"#utility.yul\":1571:1577   */\n      dup3\n        /* \"#utility.yul\":1560:1569   */\n      dup6\n        /* \"#utility.yul\":1556:1578   */\n      add\n        /* \"#utility.yul\":1535:1588   */\n      tag_108\n      jump\t// in\n    tag_149:\n        /* \"#utility.yul\":1525:1588   */\n      swap2\n      pop\n        /* \"#utility.yul\":1481:1598   */\n      pop\n        /* \"#utility.yul\":1276:1605   */\n      swap3\n      swap2\n      pop\n      pop\n      jump\t// out\n        /* \"#utility.yul\":1611:1733   */\n    tag_109:\n        /* \"#utility.yul\":1684:1708   */\n      tag_151\n        /* \"#utility.yul\":1702:1707   */\n      dup2\n        /* \"#utility.yul\":1684:1708   */\n      tag_100\n      jump\t// in\n    tag_151:\n        /* \"#utility.yul\":1677:1682   */\n      dup2\n        /* \"#utility.yul\":1674:1709   */\n      eq\n        /* \"#utility.yul\":1664:1727   */\n      tag_152\n      jumpi\n        /* \"#utility.yul\":1723:1724   */\n      0x00\n        /* \"#utility.yul\":1720:1721   */\n      0x00\n        /* \"#utility.yul\":1713:1725   */\n      revert\n        /* \"#utility.yul\":1664:1727   */\n    tag_152:\n        /* \"#utility.yul\":1611:1733   */\n      pop\n      jump\t// out\n        /* \"#utility.yul\":1739:1878   */\n    tag_110:\n        /* \"#utility.yul\":1785:1790   */\n      0x00\n        /* \"#utility.yul\":1823:1829   */\n      dup2\n        /* \"#utility.yul\":1810:1830   */\n      calldataload\n        /* \"#utility.yul\":1801:1830   */\n      swap1\n      pop\n        /* \"#utility.yul\":1839:1872   */\n      tag_154\n        /* \"#utility.yul\":1866:1871   */\n      dup2\n        /* \"#utility.yul\":1839:1872   */\n      tag_109\n      jump\t// in\n    tag_154:\n        /* \"#utility.yul\":1739:1878   */\n      swap3\n      swap2\n      pop\n      pop\n      jump\t// out\n        /* \"#utility.yul\":1884:2213   */\n    tag_29:\n        /* \"#utility.yul\":1943:1949   */\n      0x00\n        /* \"#utility.yul\":1992:1994   */\n      0x20\n        /* \"#utility.yul\":1980:1989   */\n      dup3\n        /* \"#utility.yul\":1971:1978   */\n      dup5\n        /* \"#utility.yul\":1967:1990   */\n      sub\n        /* \"#utility.yul\":1963:1995   */\n      slt\n        /* \"#utility.yul\":1960:2079   */\n      iszero\n      tag_156\n      jumpi\n        /* \"#utility.yul\":1998:2077   */\n      tag_157\n      tag_103\n      jump\t// in\n    tag_157:\n        /* \"#utility.yul\":1960:2079   */\n    tag_156:\n        /* \"#utility.yul\":2118:2119   */\n      0x00\n        /* \"#utility.yul\":2143:2196   */\n      tag_158\n        /* \"#utility.yul\":2188:2195   */\n      dup5\n        /* \"#utility.yul\":2179:2185   */\n      dup3\n        /* \"#utility.yul\":2168:2177   */\n      dup6\n        /* \"#utility.yul\":2164:2186   */\n      add\n        /* \"#utility.yul\":2143:2196   */\n      tag_110\n      jump\t// in\n    tag_158:\n        /* \"#utility.yul\":2133:2196   */\n      swap2\n      pop\n        /* \"#utility.yul\":2089:2206   */\n      pop\n        /* \"#utility.yul\":1884:2213   */\n      swap3\n      swap2\n      pop\n      pop\n      jump\t// out\n        /* \"#utility.yul\":2219:2337   */\n    tag_111:\n        /* \"#utility.yul\":2306:2330   */\n      tag_160\n        /* \"#utility.yul\":2324:2329   */\n      dup2\n        /* \"#utility.yul\":2306:2330   */\n      tag_106\n      jump\t// in\n    tag_160:\n        /* \"#utility.yul\":2301:2304   */\n      dup3\n        /* \"#utility.yul\":2294:2331   */\n      mstore\n        /* \"#utility.yul\":2219:2337   */\n      pop\n      pop\n      jump\t// out\n        /* \"#utility.yul\":2343:2565   */\n    tag_39:\n        /* \"#utility.yul\":2436:2440   */\n      0x00\n        /* \"#utility.yul\":2474:2476   */\n      0x20\n        /* \"#utility.yul\":2463:2472   */\n      dup3\n        /* \"#utility.yul\":2459:2477   */\n      add\n        /* \"#utility.yul\":2451:2477   */\n      swap1\n      pop\n        /* \"#utility.yul\":2487:2558   */\n      tag_162\n        /* \"#utility.yul\":2555:2556   */\n      0x00\n        /* \"#utility.yul\":2544:2553   */\n      dup4\n        /* \"#utility.yul\":2540:2557   */\n      add\n        /* \"#utility.yul\":2531:2537   */\n      dup5\n        /* \"#utility.yul\":2487:2558   */\n      tag_111\n      jump\t// in\n    tag_162:\n        /* \"#utility.yul\":2343:2565   */\n      swap3\n      swap2\n      pop\n      pop\n      jump\t// out\n        /* \"#utility.yul\":2571:2751   */\n    tag_112:\n        /* \"#utility.yul\":2619:2696   */\n      0x4e487b7100000000000000000000000000000000000000000000000000000000\n        /* \"#utility.yul\":2616:2617   */\n      0x00\n        /* \"#utility.yul\":2609:2697   */\n      mstore\n        /* \"#utility.yul\":2716:2720   */\n      0x11\n        /* \"#utility.yul\":2713:2714   */\n      0x04\n        /* \"#utility.yul\":2706:2721   */\n      mstore\n        /* \"#utility.yul\":2740:2744   */\n      0x24\n        /* \"#utility.yul\":2737:2738   */\n      0x00\n        /* \"#utility.yul\":2730:2745   */\n      revert\n        /* \"#utility.yul\":2757:2951   */\n    tag_56:\n        /* \"#utility.yul\":2797:2801   */\n      0x00\n        /* \"#utility.yul\":2817:2837   */\n      tag_165\n        /* \"#utility.yul\":2835:2836   */\n      dup3\n        /* \"#utility.yul\":2817:2837   */\n      tag_100\n      jump\t// in\n    tag_165:\n        /* \"#utility.yul\":2812:2837   */\n      swap2\n      pop\n        /* \"#utility.yul\":2851:2871   */\n      tag_166\n        /* \"#utility.yul\":2869:2870   */\n      dup4\n        /* \"#utility.yul\":2851:2871   */\n      tag_100\n      jump\t// in\n    tag_166:\n        /* \"#utility.yul\":2846:2871   */\n      swap3\n      pop\n        /* \"#utility.yul\":2895:2896   */\n      dup3\n        /* \"#utility.yul\":2892:2893   */\n      dup3\n        /* \"#utility.yul\":2888:2897   */\n      sub\n        /* \"#utility.yul\":2880:2897   */\n      swap1\n      pop\n        /* \"#utility.yul\":2919:2920   */\n      dup2\n        /* \"#utility.yul\":2913:2917   */\n      dup2\n        /* \"#utility.yul\":2910:2921   */\n      gt\n        /* \"#utility.yul\":2907:2944   */\n      iszero\n      tag_167\n      jumpi\n        /* \"#utility.yul\":2924:2942   */\n      tag_168\n      tag_112\n      jump\t// in\n    tag_168:\n        /* \"#utility.yul\":2907:2944   */\n    tag_167:\n        /* \"#utility.yul\":2757:2951   */\n      swap3\n      swap2\n      pop\n      pop\n      jump\t// out\n        /* \"#utility.yul\":2957:3126   */\n    tag_113:\n        /* \"#utility.yul\":3041:3052   */\n      0x00\n        /* \"#utility.yul\":3075:3081   */\n      dup3\n        /* \"#utility.yul\":3070:3073   */\n      dup3\n        /* \"#utility.yul\":3063:3082   */\n      mstore\n        /* \"#utility.yul\":3115:3119   */\n      0x20\n        /* \"#utility.yul\":3110:3113   */\n      dup3\n        /* \"#utility.yul\":3106:3120   */\n      add\n        /* \"#utility.yul\":3091:3120   */\n      swap1\n      pop\n        /* \"#utility.yul\":2957:3126   */\n      swap3\n      swap2\n      pop\n      pop\n      jump\t// out\n        /* \"#utility.yul\":3132:3302   */\n    tag_114:\n        /* \"#utility.yul\":3272:3294   */\n      0x496e73756666696369656e742062616c616e6365000000000000000000000000\n        /* \"#utility.yul\":3268:3269   */\n      0x00\n        /* \"#utility.yul\":3260:3266   */\n      dup3\n        /* \"#utility.yul\":3256:3270   */\n      add\n        /* \"#utility.yul\":3249:3295   */\n      mstore\n        /* \"#utility.yul\":3132:3302   */\n      pop\n      jump\t// out\n        /* \"#utility.yul\":3308:3674   */\n    tag_115:\n        /* \"#utility.yul\":3450:3453   */\n      0x00\n        /* \"#utility.yul\":3471:3538   */\n      tag_172\n        /* \"#utility.yul\":3535:3537   */\n      0x14\n        /* \"#utility.yul\":3530:3533   */\n      dup4\n        /* \"#utility.yul\":3471:3538   */\n      tag_113\n      jump\t// in\n    tag_172:\n        /* \"#utility.yul\":3464:3538   */\n      swap2\n      pop\n        /* \"#utility.yul\":3547:3640   */\n      tag_173\n        /* \"#utility.yul\":3636:3639   */\n      dup3\n        /* \"#utility.yul\":3547:3640   */\n      tag_114\n      jump\t// in\n    tag_173:\n        /* \"#utility.yul\":3665:3667   */\n      0x20\n        /* \"#utility.yul\":3660:3663   */\n      dup3\n        /* \"#utility.yul\":3656:3668   */\n      add\n        /* \"#utility.yul\":3649:3668   */\n      swap1\n      pop\n        /* \"#utility.yul\":3308:3674   */\n      swap2\n      swap1\n      pop\n      jump\t// out\n        /* \"#utility.yul\":3680:4099   */\n    tag_61:\n        /* \"#utility.yul\":3846:3850   */\n      0x00\n        /* \"#utility.yul\":3884:3886   */\n      0x20\n        /* \"#utility.yul\":3873:3882   */\n      dup3\n        /* \"#utility.yul\":3869:3887   */\n      add\n        /* \"#utility.yul\":3861:3887   */\n      swap1\n      pop\n        /* \"#utility.yul\":3933:3942   */\n      dup2\n        /* \"#utility.yul\":3927:3931   */\n      dup2\n        /* \"#utility.yul\":3923:3943   */\n      sub\n        /* \"#utility.yul\":3919:3920   */\n      0x00\n        /* \"#utility.yul\":3908:3917   */\n      dup4\n        /* \"#utility.yul\":3904:3921   */\n      add\n        /* \"#utility.yul\":3897:3944   */\n      mstore\n        /* \"#utility.yul\":3961:4092   */\n      tag_175\n        /* \"#utility.yul\":4087:4091   */\n      dup2\n        /* \"#utility.yul\":3961:4092   */\n      tag_115\n      jump\t// in\n    tag_175:\n        /* \"#utility.yul\":3953:4092   */\n      swap1\n      pop\n        /* \"#utility.yul\":3680:4099   */\n      swap2\n      swap1\n      pop\n      jump\t// out\n        /* \"#utility.yul\":4105:4252   */\n    tag_116:\n        /* \"#utility.yul\":4206:4217   */\n      0x00\n        /* \"#utility.yul\":4243:4246   */\n      dup2\n        /* \"#utility.yul\":4228:4246   */\n      swap1\n      pop\n        /* \"#utility.yul\":4105:4252   */\n      swap3\n      swap2\n      pop\n      pop\n      jump\t// out\n        /* \"#utility.yul\":4258:4372   */\n    tag_117:\n      pop\n      jump\t// out\n        /* \"#utility.yul\":4378:4776   */\n    tag_118:\n        /* \"#utility.yul\":4537:4540   */\n      0x00\n        /* \"#utility.yul\":4558:4641   */\n      tag_179\n        /* \"#utility.yul\":4639:4640   */\n      0x00\n        /* \"#utility.yul\":4634:4637   */\n      dup4\n        /* \"#utility.yul\":4558:4641   */\n      tag_116\n      jump\t// in\n    tag_179:\n        /* \"#utility.yul\":4551:4641   */\n      swap2\n      pop\n        /* \"#utility.yul\":4650:4743   */\n      tag_180\n        /* \"#utility.yul\":4739:4742   */\n      dup3\n        /* \"#utility.yul\":4650:4743   */\n      tag_117\n      jump\t// in\n    tag_180:\n        /* \"#utility.yul\":4768:4769   */\n      0x00\n        /* \"#utility.yul\":4763:4766   */\n      dup3\n        /* \"#utility.yul\":4759:4770   */\n      add\n        /* \"#utility.yul\":4752:4770   */\n      swap1\n      pop\n        /* \"#utility.yul\":4378:4776   */\n      swap2\n      swap1\n      pop\n      jump\t// out\n        /* \"#utility.yul\":4782:5161   */\n    tag_65:\n        /* \"#utility.yul\":4966:4969   */\n      0x00\n        /* \"#utility.yul\":4988:5135   */\n      tag_182\n        /* \"#utility.yul\":5131:5134   */\n      dup3\n        /* \"#utility.yul\":4988:5135   */\n      tag_118\n      jump\t// in\n    tag_182:\n        /* \"#utility.yul\":4981:5135   */\n      swap2\n      pop\n        /* \"#utility.yul\":5152:5155   */\n      dup2\n        /* \"#utility.yul\":5145:5155   */\n      swap1\n      pop\n        /* \"#utility.yul\":4782:5161   */\n      swap2\n      swap1\n      pop\n      jump\t// out\n        /* \"#utility.yul\":5167:5332   */\n    tag_119:\n        /* \"#utility.yul\":5307:5324   */\n      0x5472616e73666572206661696c65640000000000000000000000000000000000\n        /* \"#utility.yul\":5303:5304   */\n      0x00\n        /* \"#utility.yul\":5295:5301   */\n      dup3\n        /* \"#utility.yul\":5291:5305   */\n      add\n        /* \"#utility.yul\":5284:5325   */\n      mstore\n        /* \"#utility.yul\":5167:5332   */\n      pop\n      jump\t// out\n        /* \"#utility.yul\":5338:5704   */\n    tag_120:\n        /* \"#utility.yul\":5480:5483   */\n      0x00\n        /* \"#utility.yul\":5501:5568   */\n      tag_185\n        /* \"#utility.yul\":5565:5567   */\n      0x0f\n        /* \"#utility.yul\":5560:5563   */\n      dup4\n        /* \"#utility.yul\":5501:5568   */\n      tag_113\n      jump\t// in\n    tag_185:\n        /* \"#utility.yul\":5494:5568   */\n      swap2\n      pop\n        /* \"#utility.yul\":5577:5670   */\n      tag_186\n        /* \"#utility.yul\":5666:5669   */\n      dup3\n        /* \"#utility.yul\":5577:5670   */\n      tag_119\n      jump\t// in\n    tag_186:\n        /* \"#utility.yul\":5695:5697   */\n      0x20\n        /* \"#utility.yul\":5690:5693   */\n      dup3\n        /* \"#utility.yul\":5686:5698   */\n      add\n        /* \"#utility.yul\":5679:5698   */\n      swap1\n      pop\n        /* \"#utility.yul\":5338:5704   */\n      swap2\n      swap1\n      pop\n      jump\t// out\n        /* \"#utility.yul\":5710:6129   */\n    tag_71:\n        /* \"#utility.yul\":5876:5880   */\n      0x00\n        /* \"#utility.yul\":5914:5916   */\n      0x20\n        /* \"#utility.yul\":5903:5912   */\n      dup3\n        /* \"#utility.yul\":5899:5917   */\n      add\n        /* \"#utility.yul\":5891:5917   */\n      swap1\n      pop\n        /* \"#utility.yul\":5963:5972   */\n      dup2\n        /* \"#utility.yul\":5957:5961   */\n      dup2\n        /* \"#utility.yul\":5953:5973   */\n      sub\n        /* \"#utility.yul\":5949:5950   */\n      0x00\n        /* \"#utility.yul\":5938:5947   */\n      dup4\n        /* \"#utility.yul\":5934:5951   */\n      add\n        /* \"#utility.yul\":5927:5974   */\n      mstore\n        /* \"#utility.yul\":5991:6122   */\n      tag_188\n        /* \"#utility.yul\":6117:6121   */\n      dup2\n        /* \"#utility.yul\":5991:6122   */\n      tag_120\n      jump\t// in\n    tag_188:\n        /* \"#utility.yul\":5983:6122   */\n      swap1\n      pop\n        /* \"#utility.yul\":5710:6129   */\n      swap2\n      swap1\n      pop\n      jump\t// out\n        /* \"#utility.yul\":6135:6294   */\n    tag_121:\n        /* \"#utility.yul\":6275:6286   */\n      0x4e6f74206f776e65720000000000000000000000000000000000000000000000\n        /* \"#utility.yul\":6271:6272   */\n      0x00\n        /* \"#utility.yul\":6263:6269   */\n      dup3\n        /* \"#utility.yul\":6259:6273   */\n      add\n        /* \"#utility.yul\":6252:6287   */\n      mstore\n        /* \"#utility.yul\":6135:6294   */\n      pop\n      jump\t// out\n        /* \"#utility.yul\":6300:6665   */\n    tag_122:\n        /* \"#utility.yul\":6442:6445   */\n      0x00\n        /* \"#utility.yul\":6463:6529   */\n      tag_191\n        /* \"#utility.yul\":6527:6528   */\n      0x09\n        /* \"#utility.yul\":6522:6525   */\n      dup4\n        /* \"#utility.yul\":6463:6529   */\n      tag_113\n      jump\t// in\n    tag_191:\n        /* \"#utility.yul\":6456:6529   */\n      swap2\n      pop\n        /* \"#utility.yul\":6538:6631   */\n      tag_192\n        /* \"#utility.yul\":6627:6630   */\n      dup3\n        /* \"#utility.yul\":6538:6631   */\n      tag_121\n      jump\t// in\n    tag_192:\n        /* \"#utility.yul\":6656:6658   */\n      0x20\n        /* \"#utility.yul\":6651:6654   */\n      dup3\n        /* \"#utility.yul\":6647:6659   */\n      add\n        /* \"#utility.yul\":6640:6659   */\n      swap1\n      pop\n        /* \"#utility.yul\":6300:6665   */\n      swap2\n      swap1\n      pop\n      jump\t// out\n        /* \"#utility.yul\":6671:7090   */\n    tag_77:\n        /* \"#utility.yul\":6837:6841   */\n      0x00\n        /* \"#utility.yul\":6875:6877   */\n      0x20\n        /* \"#utility.yul\":6864:6873   */\n      dup3\n        /* \"#utility.yul\":6860:6878   */\n      add\n        /* \"#utility.yul\":6852:6878   */\n      swap1\n      pop\n        /* \"#utility.yul\":6924:6933   */\n      dup2\n        /* \"#utility.yul\":6918:6922   */\n      dup2\n        /* \"#utility.yul\":6914:6934   */\n      sub\n        /* \"#utility.yul\":6910:6911   */\n      0x00\n        /* \"#utility.yul\":6899:6908   */\n      dup4\n        /* \"#utility.yul\":6895:6912   */\n      add\n        /* \"#utility.yul\":6888:6935   */\n      mstore\n        /* \"#utility.yul\":6952:7083   */\n      tag_194\n        /* \"#utility.yul\":7078:7082   */\n      dup2\n        /* \"#utility.yul\":6952:7083   */\n      tag_122\n      jump\t// in\n    tag_194:\n        /* \"#utility.yul\":6944:7083   */\n      swap1\n      pop\n        /* \"#utility.yul\":6671:7090   */\n      swap2\n      swap1\n      pop\n      jump\t// out\n        /* \"#utility.yul\":7096:7259   */\n    tag_123:\n        /* \"#utility.yul\":7236:7251   */\n      0x4e6f20666f726365642045544800000000000000000000000000000000000000\n        /* \"#utility.yul\":7232:7233   */\n      0x00\n        /* \"#utility.yul\":7224:7230   */\n      dup3\n        /* \"#utility.yul\":7220:7234   */\n      add\n        /* \"#utility.yul\":7213:7252   */\n      mstore\n        /* \"#utility.yul\":7096:7259   */\n      pop\n      jump\t// out\n        /* \"#utility.yul\":7265:7631   */\n    tag_124:\n        /* \"#utility.yul\":7407:7410   */\n      0x00\n        /* \"#utility.yul\":7428:7495   */\n      tag_197\n        /* \"#utility.yul\":7492:7494   */\n      0x0d\n        /* \"#utility.yul\":7487:7490   */\n      dup4\n        /* \"#utility.yul\":7428:7495   */\n      tag_113\n      jump\t// in\n    tag_197:\n        /* \"#utility.yul\":7421:7495   */\n      swap2\n      pop\n        /* \"#utility.yul\":7504:7597   */\n      tag_198\n        /* \"#utility.yul\":7593:7596   */\n      dup3\n        /* \"#utility.yul\":7504:7597   */\n      tag_123\n      jump\t// in\n    tag_198:\n        /* \"#utility.yul\":7622:7624   */\n      0x20\n        /* \"#utility.yul\":7617:7620   */\n      dup3\n        /* \"#utility.yul\":7613:7625   */\n      add\n        /* \"#utility.yul\":7606:7625   */\n      swap1\n      pop\n        /* \"#utility.yul\":7265:7631   */\n      swap2\n      swap1\n      pop\n      jump\t// out\n        /* \"#utility.yul\":7637:8056   */\n    tag_82:\n        /* \"#utility.yul\":7803:7807   */\n      0x00\n        /* \"#utility.yul\":7841:7843   */\n      0x20\n        /* \"#utility.yul\":7830:7839   */\n      dup3\n        /* \"#utility.yul\":7826:7844   */\n      add\n        /* \"#utility.yul\":7818:7844   */\n      swap1\n      pop\n        /* \"#utility.yul\":7890:7899   */\n      dup2\n        /* \"#utility.yul\":7884:7888   */\n      dup2\n        /* \"#utility.yul\":7880:7900   */\n      sub\n        /* \"#utility.yul\":7876:7877   */\n      0x00\n        /* \"#utility.yul\":7865:7874   */\n      dup4\n        /* \"#utility.yul\":7861:7878   */\n      add\n        /* \"#utility.yul\":7854:7901   */\n      mstore\n        /* \"#utility.yul\":7918:8049   */\n      tag_200\n        /* \"#utility.yul\":8044:8048   */\n      dup2\n        /* \"#utility.yul\":7918:8049   */\n      tag_124\n      jump\t// in\n    tag_200:\n        /* \"#utility.yul\":7910:8049   */\n      swap1\n      pop\n        /* \"#utility.yul\":7637:8056   */\n      swap2\n      swap1\n      pop\n      jump\t// out\n        /* \"#utility.yul\":8062:8225   */\n    tag_125:\n        /* \"#utility.yul\":8202:8217   */\n      0x526573637565206661696c656400000000000000000000000000000000000000\n        /* \"#utility.yul\":8198:8199   */\n      0x00\n        /* \"#utility.yul\":8190:8196   */\n      dup3\n        /* \"#utility.yul\":8186:8200   */\n      add\n        /* \"#utility.yul\":8179:8218   */\n      mstore\n        /* \"#utility.yul\":8062:8225   */\n      pop\n      jump\t// out\n        /* \"#utility.yul\":8231:8597   */\n    tag_126:\n        /* \"#utility.yul\":8373:8376   */\n      0x00\n        /* \"#utility.yul\":8394:8461   */\n      tag_203\n        /* \"#utility.yul\":8458:8460   */\n      0x0d\n        /* \"#utility.yul\":8453:8456   */\n      dup4\n        /* \"#utility.yul\":8394:8461   */\n      tag_113\n      jump\t// in\n    tag_203:\n        /* \"#utility.yul\":8387:8461   */\n      swap2\n      pop\n        /* \"#utility.yul\":8470:8563   */\n      tag_204\n        /* \"#utility.yul\":8559:8562   */\n      dup3\n        /* \"#utility.yul\":8470:8563   */\n      tag_125\n      jump\t// in\n    tag_204:\n        /* \"#utility.yul\":8588:8590   */\n      0x20\n        /* \"#utility.yul\":8583:8586   */\n      dup3\n        /* \"#utility.yul\":8579:8591   */\n      add\n        /* \"#utility.yul\":8572:8591   */\n      swap1\n      pop\n        /* \"#utility.yul\":8231:8597   */\n      swap2\n      swap1\n      pop\n      jump\t// out\n        /* \"#utility.yul\":8603:9022   */\n    tag_89:\n        /* \"#utility.yul\":8769:8773   */\n      0x00\n        /* \"#utility.yul\":8807:8809   */\n      0x20\n        /* \"#utility.yul\":8796:8805   */\n      dup3\n        /* \"#utility.yul\":8792:8810   */\n      add\n        /* \"#utility.yul\":8784:8810   */\n      swap1\n      pop\n        /* \"#utility.yul\":8856:8865   */\n      dup2\n        /* \"#utility.yul\":8850:8854   */\n      dup2\n        /* \"#utility.yul\":8846:8866   */\n      sub\n        /* \"#utility.yul\":8842:8843   */\n      0x00\n        /* \"#utility.yul\":8831:8840   */\n      dup4\n        /* \"#utility.yul\":8827:8844   */\n      add\n        /* \"#utility.yul\":8820:8867   */\n      mstore\n        /* \"#utility.yul\":8884:9015   */\n      tag_206\n        /* \"#utility.yul\":9010:9014   */\n      dup2\n        /* \"#utility.yul\":8884:9015   */\n      tag_126\n      jump\t// in\n    tag_206:\n        /* \"#utility.yul\":8876:9015   */\n      swap1\n      pop\n        /* \"#utility.yul\":8603:9022   */\n      swap2\n      swap1\n      pop\n      jump\t// out\n        /* \"#utility.yul\":9028:9186   */\n    tag_127:\n        /* \"#utility.yul\":9168:9178   */\n      0x5a65726f20455448000000000000000000000000000000000000000000000000\n        /* \"#utility.yul\":9164:9165   */\n      0x00\n        /* \"#utility.yul\":9156:9162   */\n      dup3\n        /* \"#utility.yul\":9152:9166   */\n      add\n        /* \"#utility.yul\":9145:9179   */\n      mstore\n        /* \"#utility.yul\":9028:9186   */\n      pop\n      jump\t// out\n        /* \"#utility.yul\":9192:9557   */\n    tag_128:\n        /* \"#utility.yul\":9334:9337   */\n      0x00\n        /* \"#utility.yul\":9355:9421   */\n      tag_209\n        /* \"#utility.yul\":9419:9420   */\n      0x08\n        /* \"#utility.yul\":9414:9417   */\n      dup4\n        /* \"#utility.yul\":9355:9421   */\n      tag_113\n      jump\t// in\n    tag_209:\n        /* \"#utility.yul\":9348:9421   */\n      swap2\n      pop\n        /* \"#utility.yul\":9430:9523   */\n      tag_210\n        /* \"#utility.yul\":9519:9522   */\n      dup3\n        /* \"#utility.yul\":9430:9523   */\n      tag_127\n      jump\t// in\n    tag_210:\n        /* \"#utility.yul\":9548:9550   */\n      0x20\n        /* \"#utility.yul\":9543:9546   */\n      dup3\n        /* \"#utility.yul\":9539:9551   */\n      add\n        /* \"#utility.yul\":9532:9551   */\n      swap1\n      pop\n        /* \"#utility.yul\":9192:9557   */\n      swap2\n      swap1\n      pop\n      jump\t// out\n        /* \"#utility.yul\":9563:9982   */\n    tag_94:\n        /* \"#utility.yul\":9729:9733   */\n      0x00\n        /* \"#utility.yul\":9767:9769   */\n      0x20\n        /* \"#utility.yul\":9756:9765   */\n      dup3\n        /* \"#utility.yul\":9752:9770   */\n      add\n        /* \"#utility.yul\":9744:9770   */\n      swap1\n      pop\n        /* \"#utility.yul\":9816:9825   */\n      dup2\n        /* \"#utility.yul\":9810:9814   */\n      dup2\n        /* \"#utility.yul\":9806:9826   */\n      sub\n        /* \"#utility.yul\":9802:9803   */\n      0x00\n        /* \"#utility.yul\":9791:9800   */\n      dup4\n        /* \"#utility.yul\":9787:9804   */\n      add\n        /* \"#utility.yul\":9780:9827   */\n      mstore\n        /* \"#utility.yul\":9844:9975   */\n      tag_212\n        /* \"#utility.yul\":9970:9974   */\n      dup2\n        /* \"#utility.yul\":9844:9975   */\n      tag_128\n      jump\t// in\n    tag_212:\n        /* \"#utility.yul\":9836:9975   */\n      swap1\n      pop\n        /* \"#utility.yul\":9563:9982   */\n      swap2\n      swap1\n      pop\n      jump\t// out\n        /* \"#utility.yul\":9988:10179   */\n    tag_96:\n        /* \"#utility.yul\":10028:10031   */\n      0x00\n        /* \"#utility.yul\":10047:10067   */\n      tag_214\n        /* \"#utility.yul\":10065:10066   */\n      dup3\n        /* \"#utility.yul\":10047:10067   */\n      tag_100\n      jump\t// in\n    tag_214:\n        /* \"#utility.yul\":10042:10067   */\n      swap2\n      pop\n        /* \"#utility.yul\":10081:10101   */\n      tag_215\n        /* \"#utility.yul\":10099:10100   */\n      dup4\n        /* \"#utility.yul\":10081:10101   */\n      tag_100\n      jump\t// in\n    tag_215:\n        /* \"#utility.yul\":10076:10101   */\n      swap3\n      pop\n        /* \"#utility.yul\":10124:10125   */\n      dup3\n        /* \"#utility.yul\":10121:10122   */\n      dup3\n        /* \"#utility.yul\":10117:10126   */\n      add\n        /* \"#utility.yul\":10110:10126   */\n      swap1\n      pop\n        /* \"#utility.yul\":10145:10148   */\n      dup1\n        /* \"#utility.yul\":10142:10143   */\n      dup3\n        /* \"#utility.yul\":10139:10149   */\n      gt\n        /* \"#utility.yul\":10136:10172   */\n      iszero\n      tag_216\n      jumpi\n        /* \"#utility.yul\":10152:10170   */\n      tag_217\n      tag_112\n      jump\t// in\n    tag_217:\n        /* \"#utility.yul\":10136:10172   */\n    tag_216:\n        /* \"#utility.yul\":9988:10179   */\n      swap3\n      swap2\n      pop\n      pop\n      jump\t// out\n\n    auxdata: 0xa2646970667358221220bb240668ade04d68dbcc49d93ce2fe8cf0d50c8a537427e5bb60b76ec7dedf4964736f6c63430008220033\n}\n",
				"bytecode": {
					"linkReferences": {},
					"object": "6080604052348015600e575f5ffd5b503360025f6101000a81548173ffffffffffffffffffffffffffffffffffffffff021916908373ffffffffffffffffffffffffffffffffffffffff160217905550610c228061005c5f395ff3fe608060405260043610610089575f3560e01c80638da5cb5b116100585780638da5cb5b1461014c578063a635287114610176578063d0e30db01461018c578063e35819b614610196578063f01c7bbc146101c057610090565b806315669b5f1461009457806327e235e3146100be5780632e1a7d4d146100fa57806344dd3d0d1461012257610090565b3661009057005b5f5ffd5b34801561009f575f5ffd5b506100a86101ea565b6040516100b59190610779565b60405180910390f35b3480156100c9575f5ffd5b506100e460048036038101906100df91906107f0565b610253565b6040516100f19190610779565b60405180910390f35b348015610105575f5ffd5b50610120600480360381019061011b9190610845565b610267565b005b34801561012d575f5ffd5b5061013661044a565b6040516101439190610779565b60405180910390f35b348015610157575f5ffd5b50610160610451565b60405161016d919061087f565b60405180910390f35b348015610181575f5ffd5b5061018a610476565b005b610194610656565b005b3480156101a1575f5ffd5b506101aa610752565b6040516101b79190610779565b60405180910390f35b3480156101cb575f5ffd5b506101d461075b565b6040516101e19190610779565b60405180910390f35b5f5f47905060015481111561024b575f6001548261020891906108c5565b90507f2d64c0193bb49687e15b2785f0b7708cace7ccd21c01ab17420833c1015a766a816040516102399190610779565b60405180910390a18092505050610250565b5f9150505b90565b5f602052805f5260405f205f915090505481565b805f5f3373ffffffffffffffffffffffffffffffffffffffff1673ffffffffffffffffffffffffffffffffffffffff1681526020019081526020015f205410156102e6576040517f08c379a00000000000000000000000000000000000000000000000000000000081526004016102dd90610952565b60405180910390fd5b805f5f3373ffffffffffffffffffffffffffffffffffffffff1673ffffffffffffffffffffffffffffffffffffffff1681526020019081526020015f205f82825461033191906108c5565b925050819055508060015f82825461034991906108c5565b925050819055505f3373ffffffffffffffffffffffffffffffffffffffff16826040516103759061099d565b5f6040518083038185875af1925050503d805f81146103af576040519150601f19603f3d011682016040523d82523d5f602084013e6103b4565b606091505b50509050806103f8576040517f08c379a00000000000000000000000000000000000000000000000000000000081526004016103ef906109fb565b60405180910390fd5b3373ffffffffffffffffffffffffffffffffffffffff167f7084f5476618d8e60b11ef0d7d3f06914655adb8793e28ff7f018d4c76d505d58360405161043e9190610779565b60405180910390a25050565b5f47905090565b60025f9054906101000a900473ffffffffffffffffffffffffffffffffffffffff1681565b60025f9054906101000a900473ffffffffffffffffffffffffffffffffffffffff1673ffffffffffffffffffffffffffffffffffffffff163373ffffffffffffffffffffffffffffffffffffffff1614610505576040517f08c379a00000000000000000000000000000000000000000000000000000000081526004016104fc90610a63565b60405180910390fd5b5f61050e6101ea565b90505f8111610552576040517f08c379a000000000000000000000000000000000000000000000000000000000815260040161054990610acb565b60405180910390fd5b5f60025f9054906101000a900473ffffffffffffffffffffffffffffffffffffffff1673ffffffffffffffffffffffffffffffffffffffff16826040516105989061099d565b5f6040518083038185875af1925050503d805f81146105d2576040519150601f19603f3d011682016040523d82523d5f602084013e6105d7565b606091505b505090508061061b576040517f08c379a000000000000000000000000000000000000000000000000000000000815260040161061290610b33565b60405180910390fd5b7f3373c052f32575936b89b777340cd8fa8fc47f26ff5ae1620367db5ac6b9d8f48260405161064a9190610779565b60405180910390a15050565b5f3411610698576040517f08c379a000000000000000000000000000000000000000000000000000000000815260040161068f90610b9b565b60405180910390fd5b345f5f3373ffffffffffffffffffffffffffffffffffffffff1673ffffffffffffffffffffffffffffffffffffffff1681526020019081526020015f205f8282546106e39190610bb9565b925050819055503460015f8282546106fb9190610bb9565b925050819055503373ffffffffffffffffffffffffffffffffffffffff167f2da466a7b24304f47e87fa2e1e5a81b9831ce54fec19055ce277ca2f39ba42c4346040516107489190610779565b60405180910390a2565b5f600154905090565b60015481565b5f819050919050565b61077381610761565b82525050565b5f60208201905061078c5f83018461076a565b92915050565b5f5ffd5b5f73ffffffffffffffffffffffffffffffffffffffff82169050919050565b5f6107bf82610796565b9050919050565b6107cf816107b5565b81146107d9575f5ffd5b50565b5f813590506107ea816107c6565b92915050565b5f6020828403121561080557610804610792565b5b5f610812848285016107dc565b91505092915050565b61082481610761565b811461082e575f5ffd5b50565b5f8135905061083f8161081b565b92915050565b5f6020828403121561085a57610859610792565b5b5f61086784828501610831565b91505092915050565b610879816107b5565b82525050565b5f6020820190506108925f830184610870565b92915050565b7f4e487b71000000000000000000000000000000000000000000000000000000005f52601160045260245ffd5b5f6108cf82610761565b91506108da83610761565b92508282039050818111156108f2576108f1610898565b5b92915050565b5f82825260208201905092915050565b7f496e73756666696369656e742062616c616e63650000000000000000000000005f82015250565b5f61093c6014836108f8565b915061094782610908565b602082019050919050565b5f6020820190508181035f83015261096981610930565b9050919050565b5f81905092915050565b50565b5f6109885f83610970565b91506109938261097a565b5f82019050919050565b5f6109a78261097d565b9150819050919050565b7f5472616e73666572206661696c656400000000000000000000000000000000005f82015250565b5f6109e5600f836108f8565b91506109f0826109b1565b602082019050919050565b5f6020820190508181035f830152610a12816109d9565b9050919050565b7f4e6f74206f776e657200000000000000000000000000000000000000000000005f82015250565b5f610a4d6009836108f8565b9150610a5882610a19565b602082019050919050565b5f6020820190508181035f830152610a7a81610a41565b9050919050565b7f4e6f20666f7263656420455448000000000000000000000000000000000000005f82015250565b5f610ab5600d836108f8565b9150610ac082610a81565b602082019050919050565b5f6020820190508181035f830152610ae281610aa9565b9050919050565b7f526573637565206661696c6564000000000000000000000000000000000000005f82015250565b5f610b1d600d836108f8565b9150610b2882610ae9565b602082019050919050565b5f6020820190508181035f830152610b4a81610b11565b9050919050565b7f5a65726f204554480000000000000000000000000000000000000000000000005f82015250565b5f610b856008836108f8565b9150610b9082610b51565b602082019050919050565b5f6020820190508181035f830152610bb281610b79565b9050919050565b5f610bc382610761565b9150610bce83610761565b9250828201905080821115610be657610be5610898565b5b9291505056fea2646970667358221220bb240668ade04d68dbcc49d93ce2fe8cf0d50c8a537427e5bb60b76ec7dedf4964736f6c63430008220033",
					"opcodes": "PUSH1 0x80 PUSH1 0x40 MSTORE CALLVALUE DUP1 ISZERO PUSH1 0xE JUMPI PUSH0 PUSH0 REVERT JUMPDEST POP CALLER PUSH1 0x2 PUSH0 PUSH2 0x100 EXP DUP2 SLOAD DUP2 PUSH20 0xFFFFFFFFFFFFFFFFFFFFFFFFFFFFFFFFFFFFFFFF MUL NOT AND SWAP1 DUP4 PUSH20 0xFFFFFFFFFFFFFFFFFFFFFFFFFFFFFFFFFFFFFFFF AND MUL OR SWAP1 SSTORE POP PUSH2 0xC22 DUP1 PUSH2 0x5C PUSH0 CODECOPY PUSH0 RETURN INVALID PUSH1 0x80 PUSH1 0x40 MSTORE PUSH1 0x4 CALLDATASIZE LT PUSH2 0x89 JUMPI PUSH0 CALLDATALOAD PUSH1 0xE0 SHR DUP1 PUSH4 0x8DA5CB5B GT PUSH2 0x58 JUMPI DUP1 PUSH4 0x8DA5CB5B EQ PUSH2 0x14C JUMPI DUP1 PUSH4 0xA6352871 EQ PUSH2 0x176 JUMPI DUP1 PUSH4 0xD0E30DB0 EQ PUSH2 0x18C JUMPI DUP1 PUSH4 0xE35819B6 EQ PUSH2 0x196 JUMPI DUP1 PUSH4 0xF01C7BBC EQ PUSH2 0x1C0 JUMPI PUSH2 0x90 JUMP JUMPDEST DUP1 PUSH4 0x15669B5F EQ PUSH2 0x94 JUMPI DUP1 PUSH4 0x27E235E3 EQ PUSH2 0xBE JUMPI DUP1 PUSH4 0x2E1A7D4D EQ PUSH2 0xFA JUMPI DUP1 PUSH4 0x44DD3D0D EQ PUSH2 0x122 JUMPI PUSH2 0x90 JUMP JUMPDEST CALLDATASIZE PUSH2 0x90 JUMPI STOP JUMPDEST PUSH0 PUSH0 REVERT JUMPDEST CALLVALUE DUP1 ISZERO PUSH2 0x9F JUMPI PUSH0 PUSH0 REVERT JUMPDEST POP PUSH2 0xA8 PUSH2 0x1EA JUMP JUMPDEST PUSH1 0x40 MLOAD PUSH2 0xB5 SWAP2 SWAP1 PUSH2 0x779 JUMP JUMPDEST PUSH1 0x40 MLOAD DUP1 SWAP2 SUB SWAP1 RETURN JUMPDEST CALLVALUE DUP1 ISZERO PUSH2 0xC9 JUMPI PUSH0 PUSH0 REVERT JUMPDEST POP PUSH2 0xE4 PUSH1 0x4 DUP1 CALLDATASIZE SUB DUP2 ADD SWAP1 PUSH2 0xDF SWAP2 SWAP1 PUSH2 0x7F0 JUMP JUMPDEST PUSH2 0x253 JUMP JUMPDEST PUSH1 0x40 MLOAD PUSH2 0xF1 SWAP2 SWAP1 PUSH2 0x779 JUMP JUMPDEST PUSH1 0x40 MLOAD DUP1 SWAP2 SUB SWAP1 RETURN JUMPDEST CALLVALUE DUP1 ISZERO PUSH2 0x105 JUMPI PUSH0 PUSH0 REVERT JUMPDEST POP PUSH2 0x120 PUSH1 0x4 DUP1 CALLDATASIZE SUB DUP2 ADD SWAP1 PUSH2 0x11B SWAP2 SWAP1 PUSH2 0x845 JUMP JUMPDEST PUSH2 0x267 JUMP JUMPDEST STOP JUMPDEST CALLVALUE DUP1 ISZERO PUSH2 0x12D JUMPI PUSH0 PUSH0 REVERT JUMPDEST POP PUSH2 0x136 PUSH2 0x44A JUMP JUMPDEST PUSH1 0x40 MLOAD PUSH2 0x143 SWAP2 SWAP1 PUSH2 0x779 JUMP JUMPDEST PUSH1 0x40 MLOAD DUP1 SWAP2 SUB SWAP1 RETURN JUMPDEST CALLVALUE DUP1 ISZERO PUSH2 0x157 JUMPI PUSH0 PUSH0 REVERT JUMPDEST POP PUSH2 0x160 PUSH2 0x451 JUMP JUMPDEST PUSH1 0x40 MLOAD PUSH2 0x16D SWAP2 SWAP1 PUSH2 0x87F JUMP JUMPDEST PUSH1 0x40 MLOAD DUP1 SWAP2 SUB SWAP1 RETURN JUMPDEST CALLVALUE DUP1 ISZERO PUSH2 0x181 JUMPI PUSH0 PUSH0 REVERT JUMPDEST POP PUSH2 0x18A PUSH2 0x476 JUMP JUMPDEST STOP JUMPDEST PUSH2 0x194 PUSH2 0x656 JUMP JUMPDEST STOP JUMPDEST CALLVALUE DUP1 ISZERO PUSH2 0x1A1 JUMPI PUSH0 PUSH0 REVERT JUMPDEST POP PUSH2 0x1AA PUSH2 0x752 JUMP JUMPDEST PUSH1 0x40 MLOAD PUSH2 0x1B7 SWAP2 SWAP1 PUSH2 0x779 JUMP JUMPDEST PUSH1 0x40 MLOAD DUP1 SWAP2 SUB SWAP1 RETURN JUMPDEST CALLVALUE DUP1 ISZERO PUSH2 0x1CB JUMPI PUSH0 PUSH0 REVERT JUMPDEST POP PUSH2 0x1D4 PUSH2 0x75B JUMP JUMPDEST PUSH1 0x40 MLOAD PUSH2 0x1E1 SWAP2 SWAP1 PUSH2 0x779 JUMP JUMPDEST PUSH1 0x40 MLOAD DUP1 SWAP2 SUB SWAP1 RETURN JUMPDEST PUSH0 PUSH0 SELFBALANCE SWAP1 POP PUSH1 0x1 SLOAD DUP2 GT ISZERO PUSH2 0x24B JUMPI PUSH0 PUSH1 0x1 SLOAD DUP3 PUSH2 0x208 SWAP2 SWAP1 PUSH2 0x8C5 JUMP JUMPDEST SWAP1 POP PUSH32 0x2D64C0193BB49687E15B2785F0B7708CACE7CCD21C01AB17420833C1015A766A DUP2 PUSH1 0x40 MLOAD PUSH2 0x239 SWAP2 SWAP1 PUSH2 0x779 JUMP JUMPDEST PUSH1 0x40 MLOAD DUP1 SWAP2 SUB SWAP1 LOG1 DUP1 SWAP3 POP POP POP PUSH2 0x250 JUMP JUMPDEST PUSH0 SWAP2 POP POP JUMPDEST SWAP1 JUMP JUMPDEST PUSH0 PUSH1 0x20 MSTORE DUP1 PUSH0 MSTORE PUSH1 0x40 PUSH0 KECCAK256 PUSH0 SWAP2 POP SWAP1 POP SLOAD DUP2 JUMP JUMPDEST DUP1 PUSH0 PUSH0 CALLER PUSH20 0xFFFFFFFFFFFFFFFFFFFFFFFFFFFFFFFFFFFFFFFF AND PUSH20 0xFFFFFFFFFFFFFFFFFFFFFFFFFFFFFFFFFFFFFFFF AND DUP2 MSTORE PUSH1 0x20 ADD SWAP1 DUP2 MSTORE PUSH1 0x20 ADD PUSH0 KECCAK256 SLOAD LT ISZERO PUSH2 0x2E6 JUMPI PUSH1 0x40 MLOAD PUSH32 0x8C379A000000000000000000000000000000000000000000000000000000000 DUP2 MSTORE PUSH1 0x4 ADD PUSH2 0x2DD SWAP1 PUSH2 0x952 JUMP JUMPDEST PUSH1 0x40 MLOAD DUP1 SWAP2 SUB SWAP1 REVERT JUMPDEST DUP1 PUSH0 PUSH0 CALLER PUSH20 0xFFFFFFFFFFFFFFFFFFFFFFFFFFFFFFFFFFFFFFFF AND PUSH20 0xFFFFFFFFFFFFFFFFFFFFFFFFFFFFFFFFFFFFFFFF AND DUP2 MSTORE PUSH1 0x20 ADD SWAP1 DUP2 MSTORE PUSH1 0x20 ADD PUSH0 KECCAK256 PUSH0 DUP3 DUP3 SLOAD PUSH2 0x331 SWAP2 SWAP1 PUSH2 0x8C5 JUMP JUMPDEST SWAP3 POP POP DUP2 SWAP1 SSTORE POP DUP1 PUSH1 0x1 PUSH0 DUP3 DUP3 SLOAD PUSH2 0x349 SWAP2 SWAP1 PUSH2 0x8C5 JUMP JUMPDEST SWAP3 POP POP DUP2 SWAP1 SSTORE POP PUSH0 CALLER PUSH20 0xFFFFFFFFFFFFFFFFFFFFFFFFFFFFFFFFFFFFFFFF AND DUP3 PUSH1 0x40 MLOAD PUSH2 0x375 SWAP1 PUSH2 0x99D JUMP JUMPDEST PUSH0 PUSH1 0x40 MLOAD DUP1 DUP4 SUB DUP2 DUP6 DUP8 GAS CALL SWAP3 POP POP POP RETURNDATASIZE DUP1 PUSH0 DUP2 EQ PUSH2 0x3AF JUMPI PUSH1 0x40 MLOAD SWAP2 POP PUSH1 0x1F NOT PUSH1 0x3F RETURNDATASIZE ADD AND DUP3 ADD PUSH1 0x40 MSTORE RETURNDATASIZE DUP3 MSTORE RETURNDATASIZE PUSH0 PUSH1 0x20 DUP5 ADD RETURNDATACOPY PUSH2 0x3B4 JUMP JUMPDEST PUSH1 0x60 SWAP2 POP JUMPDEST POP POP SWAP1 POP DUP1 PUSH2 0x3F8 JUMPI PUSH1 0x40 MLOAD PUSH32 0x8C379A000000000000000000000000000000000000000000000000000000000 DUP2 MSTORE PUSH1 0x4 ADD PUSH2 0x3EF SWAP1 PUSH2 0x9FB JUMP JUMPDEST PUSH1 0x40 MLOAD DUP1 SWAP2 SUB SWAP1 REVERT JUMPDEST CALLER PUSH20 0xFFFFFFFFFFFFFFFFFFFFFFFFFFFFFFFFFFFFFFFF AND PUSH32 0x7084F5476618D8E60B11EF0D7D3F06914655ADB8793E28FF7F018D4C76D505D5 DUP4 PUSH1 0x40 MLOAD PUSH2 0x43E SWAP2 SWAP1 PUSH2 0x779 JUMP JUMPDEST PUSH1 0x40 MLOAD DUP1 SWAP2 SUB SWAP1 LOG2 POP POP JUMP JUMPDEST PUSH0 SELFBALANCE SWAP1 POP SWAP1 JUMP JUMPDEST PUSH1 0x2 PUSH0 SWAP1 SLOAD SWAP1 PUSH2 0x100 EXP SWAP1 DIV PUSH20 0xFFFFFFFFFFFFFFFFFFFFFFFFFFFFFFFFFFFFFFFF AND DUP2 JUMP JUMPDEST PUSH1 0x2 PUSH0 SWAP1 SLOAD SWAP1 PUSH2 0x100 EXP SWAP1 DIV PUSH20 0xFFFFFFFFFFFFFFFFFFFFFFFFFFFFFFFFFFFFFFFF AND PUSH20 0xFFFFFFFFFFFFFFFFFFFFFFFFFFFFFFFFFFFFFFFF AND CALLER PUSH20 0xFFFFFFFFFFFFFFFFFFFFFFFFFFFFFFFFFFFFFFFF AND EQ PUSH2 0x505 JUMPI PUSH1 0x40 MLOAD PUSH32 0x8C379A000000000000000000000000000000000000000000000000000000000 DUP2 MSTORE PUSH1 0x4 ADD PUSH2 0x4FC SWAP1 PUSH2 0xA63 JUMP JUMPDEST PUSH1 0x40 MLOAD DUP1 SWAP2 SUB SWAP1 REVERT JUMPDEST PUSH0 PUSH2 0x50E PUSH2 0x1EA JUMP JUMPDEST SWAP1 POP PUSH0 DUP2 GT PUSH2 0x552 JUMPI PUSH1 0x40 MLOAD PUSH32 0x8C379A000000000000000000000000000000000000000000000000000000000 DUP2 MSTORE PUSH1 0x4 ADD PUSH2 0x549 SWAP1 PUSH2 0xACB JUMP JUMPDEST PUSH1 0x40 MLOAD DUP1 SWAP2 SUB SWAP1 REVERT JUMPDEST PUSH0 PUSH1 0x2 PUSH0 SWAP1 SLOAD SWAP1 PUSH2 0x100 EXP SWAP1 DIV PUSH20 0xFFFFFFFFFFFFFFFFFFFFFFFFFFFFFFFFFFFFFFFF AND PUSH20 0xFFFFFFFFFFFFFFFFFFFFFFFFFFFFFFFFFFFFFFFF AND DUP3 PUSH1 0x40 MLOAD PUSH2 0x598 SWAP1 PUSH2 0x99D JUMP JUMPDEST PUSH0 PUSH1 0x40 MLOAD DUP1 DUP4 SUB DUP2 DUP6 DUP8 GAS CALL SWAP3 POP POP POP RETURNDATASIZE DUP1 PUSH0 DUP2 EQ PUSH2 0x5D2 JUMPI PUSH1 0x40 MLOAD SWAP2 POP PUSH1 0x1F NOT PUSH1 0x3F RETURNDATASIZE ADD AND DUP3 ADD PUSH1 0x40 MSTORE RETURNDATASIZE DUP3 MSTORE RETURNDATASIZE PUSH0 PUSH1 0x20 DUP5 ADD RETURNDATACOPY PUSH2 0x5D7 JUMP JUMPDEST PUSH1 0x60 SWAP2 POP JUMPDEST POP POP SWAP1 POP DUP1 PUSH2 0x61B JUMPI PUSH1 0x40 MLOAD PUSH32 0x8C379A000000000000000000000000000000000000000000000000000000000 DUP2 MSTORE PUSH1 0x4 ADD PUSH2 0x612 SWAP1 PUSH2 0xB33 JUMP JUMPDEST PUSH1 0x40 MLOAD DUP1 SWAP2 SUB SWAP1 REVERT JUMPDEST PUSH32 0x3373C052F32575936B89B777340CD8FA8FC47F26FF5AE1620367DB5AC6B9D8F4 DUP3 PUSH1 0x40 MLOAD PUSH2 0x64A SWAP2 SWAP1 PUSH2 0x779 JUMP JUMPDEST PUSH1 0x40 MLOAD DUP1 SWAP2 SUB SWAP1 LOG1 POP POP JUMP JUMPDEST PUSH0 CALLVALUE GT PUSH2 0x698 JUMPI PUSH1 0x40 MLOAD PUSH32 0x8C379A000000000000000000000000000000000000000000000000000000000 DUP2 MSTORE PUSH1 0x4 ADD PUSH2 0x68F SWAP1 PUSH2 0xB9B JUMP JUMPDEST PUSH1 0x40 MLOAD DUP1 SWAP2 SUB SWAP1 REVERT JUMPDEST CALLVALUE PUSH0 PUSH0 CALLER PUSH20 0xFFFFFFFFFFFFFFFFFFFFFFFFFFFFFFFFFFFFFFFF AND PUSH20 0xFFFFFFFFFFFFFFFFFFFFFFFFFFFFFFFFFFFFFFFF AND DUP2 MSTORE PUSH1 0x20 ADD SWAP1 DUP2 MSTORE PUSH1 0x20 ADD PUSH0 KECCAK256 PUSH0 DUP3 DUP3 SLOAD PUSH2 0x6E3 SWAP2 SWAP1 PUSH2 0xBB9 JUMP JUMPDEST SWAP3 POP POP DUP2 SWAP1 SSTORE POP CALLVALUE PUSH1 0x1 PUSH0 DUP3 DUP3 SLOAD PUSH2 0x6FB SWAP2 SWAP1 PUSH2 0xBB9 JUMP JUMPDEST SWAP3 POP POP DUP2 SWAP1 SSTORE POP CALLER PUSH20 0xFFFFFFFFFFFFFFFFFFFFFFFFFFFFFFFFFFFFFFFF AND PUSH32 0x2DA466A7B24304F47E87FA2E1E5A81B9831CE54FEC19055CE277CA2F39BA42C4 CALLVALUE PUSH1 0x40 MLOAD PUSH2 0x748 SWAP2 SWAP1 PUSH2 0x779 JUMP JUMPDEST PUSH1 0x40 MLOAD DUP1 SWAP2 SUB SWAP1 LOG2 JUMP JUMPDEST PUSH0 PUSH1 0x1 SLOAD SWAP1 POP SWAP1 JUMP JUMPDEST PUSH1 0x1 SLOAD DUP2 JUMP JUMPDEST PUSH0 DUP2 SWAP1 POP SWAP2 SWAP1 POP JUMP JUMPDEST PUSH2 0x773 DUP2 PUSH2 0x761 JUMP JUMPDEST DUP3 MSTORE POP POP JUMP JUMPDEST PUSH0 PUSH1 0x20 DUP3 ADD SWAP1 POP PUSH2 0x78C PUSH0 DUP4 ADD DUP5 PUSH2 0x76A JUMP JUMPDEST SWAP3 SWAP2 POP POP JUMP JUMPDEST PUSH0 PUSH0 REVERT JUMPDEST PUSH0 PUSH20 0xFFFFFFFFFFFFFFFFFFFFFFFFFFFFFFFFFFFFFFFF DUP3 AND SWAP1 POP SWAP2 SWAP1 POP JUMP JUMPDEST PUSH0 PUSH2 0x7BF DUP3 PUSH2 0x796 JUMP JUMPDEST SWAP1 POP SWAP2 SWAP1 POP JUMP JUMPDEST PUSH2 0x7CF DUP2 PUSH2 0x7B5 JUMP JUMPDEST DUP2 EQ PUSH2 0x7D9 JUMPI PUSH0 PUSH0 REVERT JUMPDEST POP JUMP JUMPDEST PUSH0 DUP2 CALLDATALOAD SWAP1 POP PUSH2 0x7EA DUP2 PUSH2 0x7C6 JUMP JUMPDEST SWAP3 SWAP2 POP POP JUMP JUMPDEST PUSH0 PUSH1 0x20 DUP3 DUP5 SUB SLT ISZERO PUSH2 0x805 JUMPI PUSH2 0x804 PUSH2 0x792 JUMP JUMPDEST JUMPDEST PUSH0 PUSH2 0x812 DUP5 DUP3 DUP6 ADD PUSH2 0x7DC JUMP JUMPDEST SWAP2 POP POP SWAP3 SWAP2 POP POP JUMP JUMPDEST PUSH2 0x824 DUP2 PUSH2 0x761 JUMP JUMPDEST DUP2 EQ PUSH2 0x82E JUMPI PUSH0 PUSH0 REVERT JUMPDEST POP JUMP JUMPDEST PUSH0 DUP2 CALLDATALOAD SWAP1 POP PUSH2 0x83F DUP2 PUSH2 0x81B JUMP JUMPDEST SWAP3 SWAP2 POP POP JUMP JUMPDEST PUSH0 PUSH1 0x20 DUP3 DUP5 SUB SLT ISZERO PUSH2 0x85A JUMPI PUSH2 0x859 PUSH2 0x792 JUMP JUMPDEST JUMPDEST PUSH0 PUSH2 0x867 DUP5 DUP3 DUP6 ADD PUSH2 0x831 JUMP JUMPDEST SWAP2 POP POP SWAP3 SWAP2 POP POP JUMP JUMPDEST PUSH2 0x879 DUP2 PUSH2 0x7B5 JUMP JUMPDEST DUP3 MSTORE POP POP JUMP JUMPDEST PUSH0 PUSH1 0x20 DUP3 ADD SWAP1 POP PUSH2 0x892 PUSH0 DUP4 ADD DUP5 PUSH2 0x870 JUMP JUMPDEST SWAP3 SWAP2 POP POP JUMP JUMPDEST PUSH32 0x4E487B7100000000000000000000000000000000000000000000000000000000 PUSH0 MSTORE PUSH1 0x11 PUSH1 0x4 MSTORE PUSH1 0x24 PUSH0 REVERT JUMPDEST PUSH0 PUSH2 0x8CF DUP3 PUSH2 0x761 JUMP JUMPDEST SWAP2 POP PUSH2 0x8DA DUP4 PUSH2 0x761 JUMP JUMPDEST SWAP3 POP DUP3 DUP3 SUB SWAP1 POP DUP2 DUP2 GT ISZERO PUSH2 0x8F2 JUMPI PUSH2 0x8F1 PUSH2 0x898 JUMP JUMPDEST JUMPDEST SWAP3 SWAP2 POP POP JUMP JUMPDEST PUSH0 DUP3 DUP3 MSTORE PUSH1 0x20 DUP3 ADD SWAP1 POP SWAP3 SWAP2 POP POP JUMP JUMPDEST PUSH32 0x496E73756666696369656E742062616C616E6365000000000000000000000000 PUSH0 DUP3 ADD MSTORE POP JUMP JUMPDEST PUSH0 PUSH2 0x93C PUSH1 0x14 DUP4 PUSH2 0x8F8 JUMP JUMPDEST SWAP2 POP PUSH2 0x947 DUP3 PUSH2 0x908 JUMP JUMPDEST PUSH1 0x20 DUP3 ADD SWAP1 POP SWAP2 SWAP1 POP JUMP JUMPDEST PUSH0 PUSH1 0x20 DUP3 ADD SWAP1 POP DUP2 DUP2 SUB PUSH0 DUP4 ADD MSTORE PUSH2 0x969 DUP2 PUSH2 0x930 JUMP JUMPDEST SWAP1 POP SWAP2 SWAP1 POP JUMP JUMPDEST PUSH0 DUP2 SWAP1 POP SWAP3 SWAP2 POP POP JUMP JUMPDEST POP JUMP JUMPDEST PUSH0 PUSH2 0x988 PUSH0 DUP4 PUSH2 0x970 JUMP JUMPDEST SWAP2 POP PUSH2 0x993 DUP3 PUSH2 0x97A JUMP JUMPDEST PUSH0 DUP3 ADD SWAP1 POP SWAP2 SWAP1 POP JUMP JUMPDEST PUSH0 PUSH2 0x9A7 DUP3 PUSH2 0x97D JUMP JUMPDEST SWAP2 POP DUP2 SWAP1 POP SWAP2 SWAP1 POP JUMP JUMPDEST PUSH32 0x5472616E73666572206661696C65640000000000000000000000000000000000 PUSH0 DUP3 ADD MSTORE POP JUMP JUMPDEST PUSH0 PUSH2 0x9E5 PUSH1 0xF DUP4 PUSH2 0x8F8 JUMP JUMPDEST SWAP2 POP PUSH2 0x9F0 DUP3 PUSH2 0x9B1 JUMP JUMPDEST PUSH1 0x20 DUP3 ADD SWAP1 POP SWAP2 SWAP1 POP JUMP JUMPDEST PUSH0 PUSH1 0x20 DUP3 ADD SWAP1 POP DUP2 DUP2 SUB PUSH0 DUP4 ADD MSTORE PUSH2 0xA12 DUP2 PUSH2 0x9D9 JUMP JUMPDEST SWAP1 POP SWAP2 SWAP1 POP JUMP JUMPDEST PUSH32 0x4E6F74206F776E65720000000000000000000000000000000000000000000000 PUSH0 DUP3 ADD MSTORE POP JUMP JUMPDEST PUSH0 PUSH2 0xA4D PUSH1 0x9 DUP4 PUSH2 0x8F8 JUMP JUMPDEST SWAP2 POP PUSH2 0xA58 DUP3 PUSH2 0xA19 JUMP JUMPDEST PUSH1 0x20 DUP3 ADD SWAP1 POP SWAP2 SWAP1 POP JUMP JUMPDEST PUSH0 PUSH1 0x20 DUP3 ADD SWAP1 POP DUP2 DUP2 SUB PUSH0 DUP4 ADD MSTORE PUSH2 0xA7A DUP2 PUSH2 0xA41 JUMP JUMPDEST SWAP1 POP SWAP2 SWAP1 POP JUMP JUMPDEST PUSH32 0x4E6F20666F726365642045544800000000000000000000000000000000000000 PUSH0 DUP3 ADD MSTORE POP JUMP JUMPDEST PUSH0 PUSH2 0xAB5 PUSH1 0xD DUP4 PUSH2 0x8F8 JUMP JUMPDEST SWAP2 POP PUSH2 0xAC0 DUP3 PUSH2 0xA81 JUMP JUMPDEST PUSH1 0x20 DUP3 ADD SWAP1 POP SWAP2 SWAP1 POP JUMP JUMPDEST PUSH0 PUSH1 0x20 DUP3 ADD SWAP1 POP DUP2 DUP2 SUB PUSH0 DUP4 ADD MSTORE PUSH2 0xAE2 DUP2 PUSH2 0xAA9 JUMP JUMPDEST SWAP1 POP SWAP2 SWAP1 POP JUMP JUMPDEST PUSH32 0x526573637565206661696C656400000000000000000000000000000000000000 PUSH0 DUP3 ADD MSTORE POP JUMP JUMPDEST PUSH0 PUSH2 0xB1D PUSH1 0xD DUP4 PUSH2 0x8F8 JUMP JUMPDEST SWAP2 POP PUSH2 0xB28 DUP3 PUSH2 0xAE9 JUMP JUMPDEST PUSH1 0x20 DUP3 ADD SWAP1 POP SWAP2 SWAP1 POP JUMP JUMPDEST PUSH0 PUSH1 0x20 DUP3 ADD SWAP1 POP DUP2 DUP2 SUB PUSH0 DUP4 ADD MSTORE PUSH2 0xB4A DUP2 PUSH2 0xB11 JUMP JUMPDEST SWAP1 POP SWAP2 SWAP1 POP JUMP JUMPDEST PUSH32 0x5A65726F20455448000000000000000000000000000000000000000000000000 PUSH0 DUP3 ADD MSTORE POP JUMP JUMPDEST PUSH0 PUSH2 0xB85 PUSH1 0x8 DUP4 PUSH2 0x8F8 JUMP JUMPDEST SWAP2 POP PUSH2 0xB90 DUP3 PUSH2 0xB51 JUMP JUMPDEST PUSH1 0x20 DUP3 ADD SWAP1 POP SWAP2 SWAP1 POP JUMP JUMPDEST PUSH0 PUSH1 0x20 DUP3 ADD SWAP1 POP DUP2 DUP2 SUB PUSH0 DUP4 ADD MSTORE PUSH2 0xBB2 DUP2 PUSH2 0xB79 JUMP JUMPDEST SWAP1 POP SWAP2 SWAP1 POP JUMP JUMPDEST PUSH0 PUSH2 0xBC3 DUP3 PUSH2 0x761 JUMP JUMPDEST SWAP2 POP PUSH2 0xBCE DUP4 PUSH2 0x761 JUMP JUMPDEST SWAP3 POP DUP3 DUP3 ADD SWAP1 POP DUP1 DUP3 GT ISZERO PUSH2 0xBE6 JUMPI PUSH2 0xBE5 PUSH2 0x898 JUMP JUMPDEST JUMPDEST SWAP3 SWAP2 POP POP JUMP INVALID LOG2 PUSH5 0x6970667358 0x22 SLT KECCAK256 0xBB 0x24 MOD PUSH9 0xADE04D68DBCC49D93C 0xE2 INVALID DUP13 CREATE 0xD5 0xC DUP11 MSTORE8 PUSH21 0x27E5BB60B76EC7DEDF4964736F6C63430008220033 "
				},
				"gasEstimates": {
					"creation": {
						"codeDepositCost": "621200",
						"executionCost": "24920",
						"totalCost": "646120"
					},
					"external": {
						"balances(address)": "2824",
						"deposit()": "infinite",
						"detectForcedETH()": "infinite",
						"getActualBalance()": "401",
						"getTrackedBalance()": "2498",
						"owner()": "2508",
						"rescueForcedETH()": "infinite",
						"trackedDeposits()": "2513",
						"withdraw(uint256)": "infinite"
					}
				},
				"methodIdentifiers": {
					"balances(address)": "27e235e3",
					"deposit()": "d0e30db0",
					"detectForcedETH()": "15669b5f",
					"getActualBalance()": "44dd3d0d",
					"getTrackedBalance()": "e35819b6",
					"owner()": "8da5cb5b",
					"rescueForcedETH()": "a6352871",
					"trackedDeposits()": "f01c7bbc",
					"withdraw(uint256)": "2e1a7d4d"
				}
			},
			"storageLayout": {
				"storage": [
					{
						"astId": 5,
						"contract": "val83.sol:SafeVault",
						"label": "balances",
						"offset": 0,
						"slot": "0",
						"type": "t_mapping(t_address,t_uint256)"
					},
					{
						"astId": 7,
						"contract": "val83.sol:SafeVault",
						"label": "trackedDeposits",
						"offset": 0,
						"slot": "1",
						"type": "t_uint256"
					},
					{
						"astId": 9,
						"contract": "val83.sol:SafeVault",
						"label": "owner",
						"offset": 0,
						"slot": "2",
						"type": "t_address"
					}
				],
				"types": {
					"t_address": {
						"encoding": "inplace",
						"label": "address",
						"numberOfBytes": "20"
					},
					"t_mapping(t_address,t_uint256)": {
						"encoding": "mapping",
						"key": "t_address",
						"label": "mapping(address => uint256)",
						"numberOfBytes": "32",
						"value": "t_uint256"
					},
					"t_uint256": {
						"encoding": "inplace",
						"label": "uint256",
						"numberOfBytes": "32"
					}
				}
			},
			"userdoc": {
				"kind": "user",
				"methods": {},
				"version": 1
			}
		}
	}
}