{
	"val49.sol": {
		"ReorderLogicVulnerability": {
			"abi": [
				{
					"inputs": [
						{
							"internalType": "uint256",
							"name": "_deposit",
							"type": "uint256"
						}
					],
					"name": "badRewardUpdate",
					"outputs": [],
					"stateMutability": "nonpayable",
					"type": "function"
				},
				{
					"inputs": [
						{
							"internalType": "address",
							"name": "",
							"type": "address"
						}
					],
					"name": "balances",
					"outputs": [
						{
							"internalType": "uint256",
							"name": "",
							"type": "uint256"
						}
					],
					"stateMutability": "view",
					"type": "function"
				},
				{
					"inputs": [
						{
							"internalType": "address",
							"name": "",
							"type": "address"
						}
					],
					"name": "rewards",
					"outputs": [
						{
							"internalType": "uint256",
							"name": "",
							"type": "uint256"
						}
					],
					"stateMutability": "view",
					"type": "function"
				},
				{
					"inputs": [],
					"name": "safeDeposit",
					"outputs": [],
					"stateMutability": "payable",
					"type": "function"
				},
				{
					"inputs": [
						{
							"internalType": "uint256",
							"name": "_deposit",
							"type": "uint256"
						}
					],
					"name": "safeRewardUpdate",
					"outputs": [],
					"stateMutability": "nonpayable",
					"type": "function"
				},
				{
					"inputs": [
						{
							"internalType": "uint256",
							"name": "_amount",
							"type": "uint256"
						}
					],
					"name": "safeTokenWithdraw",
					"outputs": [],
					"stateMutability": "nonpayable",
					"type": "function"
				},
				{
					"inputs": [
						{
							"internalType": "uint256",
							"name": "_amount",
							"type": "uint256"
						}
					],
					"name": "safeWithdraw",
					"outputs": [],
					"stateMutability": "nonpayable",
					"type": "function"
				},
				{
					"inputs": [],
					"name": "totalBalance",
					"outputs": [
						{
							"internalType": "uint256",
							"name": "",
							"type": "uint256"
						}
					],
					"stateMutability": "view",
					"type": "function"
				},
				{
					"inputs": [
						{
							"internalType": "uint256",
							"name": "_amount",
							"type": "uint256"
						}
					],
					"name": "vulnerableTokenWithdraw",
					"outputs": [],
					"stateMutability": "nonpayable",
					"type": "function"
				},
				{
					"inputs": [
						{
							"internalType": "uint256",
							"name": "_amount",
							"type": "uint256"
						}
					],
					"name": "vulnerableWithdraw",
					"outputs": [],
					"stateMutability": "nonpayable",
					"type": "function"
				}
			],
			"devdoc": {
				"kind": "dev",
				"methods": {},
				"version": 1
			},
			"evm": {
				"assembly": "    /* \"val49.sol\":14197:18787  contract ReorderLogicVulnerability {... */\n  mstore(0x40, 0x80)\n  callvalue\n  dup1\n  iszero\n  tag_1\n  jumpi\n  revert(0x00, 0x00)\ntag_1:\n  pop\n  dataSize(sub_0)\n  dup1\n  dataOffset(sub_0)\n  0x00\n  codecopy\n  0x00\n  return\nstop\n\nsub_0: assembly {\n        /* \"val49.sol\":14197:18787  contract ReorderLogicVulnerability {... */\n      mstore(0x40, 0x80)\n      jumpi(tag_1, lt(calldatasize, 0x04))\n      shr(0xe0, calldataload(0x00))\n      dup1\n      0x993faec5\n      gt\n      tag_12\n      jumpi\n      dup1\n      0x993faec5\n      eq\n      tag_7\n      jumpi\n      dup1\n      0xad7a672f\n      eq\n      tag_8\n      jumpi\n      dup1\n      0xb0a03eb5\n      eq\n      tag_9\n      jumpi\n      dup1\n      0xb0fd035b\n      eq\n      tag_10\n      jumpi\n      dup1\n      0xcc817673\n      eq\n      tag_11\n      jumpi\n      jump(tag_1)\n    tag_12:\n      dup1\n      0x06fbef84\n      eq\n      tag_2\n      jumpi\n      dup1\n      0x0700037d\n      eq\n      tag_3\n      jumpi\n      dup1\n      0x27e235e3\n      eq\n      tag_4\n      jumpi\n      dup1\n      0x596c4bb4\n      eq\n      tag_5\n      jumpi\n      dup1\n      0x6e47b938\n      eq\n      tag_6\n      jumpi\n    tag_1:\n      revert(0x00, 0x00)\n        /* \"val49.sol\":18549:18784  function safeTokenWithdraw(uint256 _amount)... */\n    tag_2:\n      callvalue\n      dup1\n      iszero\n      tag_13\n      jumpi\n      revert(0x00, 0x00)\n    tag_13:\n      pop\n      tag_14\n      0x04\n      dup1\n      calldatasize\n      sub\n      dup2\n      add\n      swap1\n      tag_15\n      swap2\n      swap1\n      tag_16\n      jump\t// in\n    tag_15:\n      tag_17\n      jump\t// in\n    tag_14:\n      stop\n        /* \"val49.sol\":17035:17077  mapping(address => uint256) public rewards */\n    tag_3:\n      callvalue\n      dup1\n      iszero\n      tag_18\n      jumpi\n      revert(0x00, 0x00)\n    tag_18:\n      pop\n      tag_19\n      0x04\n      dup1\n      calldatasize\n      sub\n      dup2\n      add\n      swap1\n      tag_20\n      swap2\n      swap1\n      tag_21\n      jump\t// in\n    tag_20:\n      tag_22\n      jump\t// in\n    tag_19:\n      mload(0x40)\n      tag_23\n      swap2\n      swap1\n      tag_24\n      jump\t// in\n    tag_23:\n      mload(0x40)\n      dup1\n      swap2\n      sub\n      swap1\n      return\n        /* \"val49.sol\":14280:14323  mapping(address => uint256) public balances */\n    tag_4:\n      callvalue\n      dup1\n      iszero\n      tag_25\n      jumpi\n      revert(0x00, 0x00)\n    tag_25:\n      pop\n      tag_26\n      0x04\n      dup1\n      calldatasize\n      sub\n      dup2\n      add\n      swap1\n      tag_27\n      swap2\n      swap1\n      tag_21\n      jump\t// in\n    tag_27:\n      tag_28\n      jump\t// in\n    tag_26:\n      mload(0x40)\n      tag_29\n      swap2\n      swap1\n      tag_24\n      jump\t// in\n    tag_29:\n      mload(0x40)\n      dup1\n      swap2\n      sub\n      swap1\n      return\n        /* \"val49.sol\":17086:17473  function badRewardUpdate(... */\n    tag_5:\n      callvalue\n      dup1\n      iszero\n      tag_30\n      jumpi\n      revert(0x00, 0x00)\n    tag_30:\n      pop\n      tag_31\n      0x04\n      dup1\n      calldatasize\n      sub\n      dup2\n      add\n      swap1\n      tag_32\n      swap2\n      swap1\n      tag_16\n      jump\t// in\n    tag_32:\n      tag_33\n      jump\t// in\n    tag_31:\n      stop\n        /* \"val49.sol\":14822:15301  function safeDeposit()... */\n    tag_6:\n      tag_34\n      tag_35\n      jump\t// in\n    tag_34:\n      stop\n        /* \"val49.sol\":17640:17998  function safeRewardUpdate(... */\n    tag_7:\n      callvalue\n      dup1\n      iszero\n      tag_36\n      jumpi\n      revert(0x00, 0x00)\n    tag_36:\n      pop\n      tag_37\n      0x04\n      dup1\n      calldatasize\n      sub\n      dup2\n      add\n      swap1\n      tag_38\n      swap2\n      swap1\n      tag_16\n      jump\t// in\n    tag_38:\n      tag_39\n      jump\t// in\n    tag_37:\n      stop\n        /* \"val49.sol\":14378:14405  uint256 public totalBalance */\n    tag_8:\n      callvalue\n      dup1\n      iszero\n      tag_40\n      jumpi\n      revert(0x00, 0x00)\n    tag_40:\n      pop\n      tag_41\n      tag_42\n      jump\t// in\n    tag_41:\n      mload(0x40)\n      tag_43\n      swap2\n      swap1\n      tag_24\n      jump\t// in\n    tag_43:\n      mload(0x40)\n      dup1\n      swap2\n      sub\n      swap1\n      return\n        /* \"val49.sol\":18237:18541  function vulnerableTokenWithdraw(uint256 _amount)external {... */\n    tag_9:\n      callvalue\n      dup1\n      iszero\n      tag_44\n      jumpi\n      revert(0x00, 0x00)\n    tag_44:\n      pop\n      tag_45\n      0x04\n      dup1\n      calldatasize\n      sub\n      dup2\n      add\n      swap1\n      tag_46\n      swap2\n      swap1\n      tag_16\n      jump\t// in\n    tag_46:\n      tag_47\n      jump\t// in\n    tag_45:\n      stop\n        /* \"val49.sol\":15516:16079  function safeWithdraw(... */\n    tag_10:\n      callvalue\n      dup1\n      iszero\n      tag_48\n      jumpi\n      revert(0x00, 0x00)\n    tag_48:\n      pop\n      tag_49\n      0x04\n      dup1\n      calldatasize\n      sub\n      dup2\n      add\n      swap1\n      tag_50\n      swap2\n      swap1\n      tag_16\n      jump\t// in\n    tag_50:\n      tag_51\n      jump\t// in\n    tag_49:\n      stop\n        /* \"val49.sol\":16279:16869  function vulnerableWithdraw(... */\n    tag_11:\n      callvalue\n      dup1\n      iszero\n      tag_52\n      jumpi\n      revert(0x00, 0x00)\n    tag_52:\n      pop\n      tag_53\n      0x04\n      dup1\n      calldatasize\n      sub\n      dup2\n      add\n      swap1\n      tag_54\n      swap2\n      swap1\n      tag_16\n      jump\t// in\n    tag_54:\n      tag_55\n      jump\t// in\n    tag_53:\n      stop\n        /* \"val49.sol\":18549:18784  function safeTokenWithdraw(uint256 _amount)... */\n    tag_17:\n        /* \"val49.sol\":14572:14578  locked */\n      0x02\n      0x00\n      swap1\n      sload\n      swap1\n      0x0100\n      exp\n      swap1\n      div\n      0xff\n      and\n        /* \"val49.sol\":14571:14578  !locked */\n      iszero\n        /* \"val49.sol\":14563:14605  require(!locked, \"Reentrant call blocked\") */\n      tag_57\n      jumpi\n      mload(0x40)\n      0x08c379a000000000000000000000000000000000000000000000000000000000\n      dup2\n      mstore\n      0x04\n      add\n      tag_58\n      swap1\n      tag_59\n      jump\t// in\n    tag_58:\n      mload(0x40)\n      dup1\n      swap2\n      sub\n      swap1\n      revert\n    tag_57:\n        /* \"val49.sol\":14623:14627  true */\n      0x01\n        /* \"val49.sol\":14614:14620  locked */\n      0x02\n      0x00\n        /* \"val49.sol\":14614:14627  locked = true */\n      0x0100\n      exp\n      dup2\n      sload\n      dup2\n      0xff\n      mul\n      not\n      and\n      swap1\n      dup4\n      iszero\n      iszero\n      mul\n      or\n      swap1\n      sstore\n      pop\n        /* \"val49.sol\":18665:18672  _amount */\n      dup1\n        /* \"val49.sol\":18641:18649  balances */\n      0x00\n        /* \"val49.sol\":18641:18661  balances[msg.sender] */\n      0x00\n        /* \"val49.sol\":18650:18660  msg.sender */\n      caller\n        /* \"val49.sol\":18641:18661  balances[msg.sender] */\n      0xffffffffffffffffffffffffffffffffffffffff\n      and\n      0xffffffffffffffffffffffffffffffffffffffff\n      and\n      dup2\n      mstore\n      0x20\n      add\n      swap1\n      dup2\n      mstore\n      0x20\n      add\n      0x00\n      keccak256\n      sload\n        /* \"val49.sol\":18641:18672  balances[msg.sender] >= _amount */\n      lt\n      iszero\n        /* \"val49.sol\":18633:18697  require(balances[msg.sender] >= _amount, \"Insufficient balance\") */\n      tag_61\n      jumpi\n      mload(0x40)\n      0x08c379a000000000000000000000000000000000000000000000000000000000\n      dup2\n      mstore\n      0x04\n      add\n      tag_62\n      swap1\n      tag_63\n      jump\t// in\n    tag_62:\n      mload(0x40)\n      dup1\n      swap2\n      sub\n      swap1\n      revert\n    tag_61:\n        /* \"val49.sol\":18730:18737  _amount */\n      dup1\n        /* \"val49.sol\":18706:18714  balances */\n      0x00\n        /* \"val49.sol\":18706:18726  balances[msg.sender] */\n      0x00\n        /* \"val49.sol\":18715:18725  msg.sender */\n      caller\n        /* \"val49.sol\":18706:18726  balances[msg.sender] */\n      0xffffffffffffffffffffffffffffffffffffffff\n      and\n      0xffffffffffffffffffffffffffffffffffffffff\n      and\n      dup2\n      mstore\n      0x20\n      add\n      swap1\n      dup2\n      mstore\n      0x20\n      add\n      0x00\n      keccak256\n      0x00\n        /* \"val49.sol\":18706:18737  balances[msg.sender] -= _amount */\n      dup3\n      dup3\n      sload\n      tag_64\n      swap2\n      swap1\n      tag_65\n      jump\t// in\n    tag_64:\n      swap3\n      pop\n      pop\n      dup2\n      swap1\n      sstore\n      pop\n        /* \"val49.sol\":18746:18780  tokenTransfer(msg.sender, _amount) */\n      tag_66\n        /* \"val49.sol\":18760:18770  msg.sender */\n      caller\n        /* \"val49.sol\":18772:18779  _amount */\n      dup3\n        /* \"val49.sol\":18746:18759  tokenTransfer */\n      tag_67\n        /* \"val49.sol\":18746:18780  tokenTransfer(msg.sender, _amount) */\n      jump\t// in\n    tag_66:\n        /* \"val49.sol\":14651:14656  false */\n      0x00\n        /* \"val49.sol\":14642:14648  locked */\n      0x02\n      0x00\n        /* \"val49.sol\":14642:14656  locked = false */\n      0x0100\n      exp\n      dup2\n      sload\n      dup2\n      0xff\n      mul\n      not\n      and\n      swap1\n      dup4\n      iszero\n      iszero\n      mul\n      or\n      swap1\n      sstore\n      pop\n        /* \"val49.sol\":18549:18784  function safeTokenWithdraw(uint256 _amount)... */\n      pop\n      jump\t// out\n        /* \"val49.sol\":17035:17077  mapping(address => uint256) public rewards */\n    tag_22:\n      mstore(0x20, 0x03)\n      dup1\n      0x00\n      mstore\n      keccak256(0x00, 0x40)\n      0x00\n      swap2\n      pop\n      swap1\n      pop\n      sload\n      dup2\n      jump\t// out\n        /* \"val49.sol\":14280:14323  mapping(address => uint256) public balances */\n    tag_28:\n      mstore(0x20, 0x00)\n      dup1\n      0x00\n      mstore\n      keccak256(0x00, 0x40)\n      0x00\n      swap2\n      pop\n      swap1\n      pop\n      sload\n      dup2\n      jump\t// out\n        /* \"val49.sol\":17086:17473  function badRewardUpdate(... */\n    tag_33:\n        /* \"val49.sol\":17358:17360  10 */\n      0x0a\n        /* \"val49.sol\":17335:17343  balances */\n      0x00\n        /* \"val49.sol\":17335:17355  balances[msg.sender] */\n      0x00\n        /* \"val49.sol\":17344:17354  msg.sender */\n      caller\n        /* \"val49.sol\":17335:17355  balances[msg.sender] */\n      0xffffffffffffffffffffffffffffffffffffffff\n      and\n      0xffffffffffffffffffffffffffffffffffffffff\n      and\n      dup2\n      mstore\n      0x20\n      add\n      swap1\n      dup2\n      mstore\n      0x20\n      add\n      0x00\n      keccak256\n      sload\n        /* \"val49.sol\":17335:17360  balances[msg.sender] / 10 */\n      tag_69\n      swap2\n      swap1\n      tag_70\n      jump\t// in\n    tag_69:\n        /* \"val49.sol\":17300:17307  rewards */\n      0x03\n        /* \"val49.sol\":17300:17319  rewards[msg.sender] */\n      0x00\n        /* \"val49.sol\":17308:17318  msg.sender */\n      caller\n        /* \"val49.sol\":17300:17319  rewards[msg.sender] */\n      0xffffffffffffffffffffffffffffffffffffffff\n      and\n      0xffffffffffffffffffffffffffffffffffffffff\n      and\n      dup2\n      mstore\n      0x20\n      add\n      swap1\n      dup2\n      mstore\n      0x20\n      add\n      0x00\n      keccak256\n        /* \"val49.sol\":17300:17360  rewards[msg.sender] =... */\n      dup2\n      swap1\n      sstore\n      pop\n        /* \"val49.sol\":17457:17465  _deposit */\n      dup1\n        /* \"val49.sol\":17433:17441  balances */\n      0x00\n        /* \"val49.sol\":17433:17453  balances[msg.sender] */\n      0x00\n        /* \"val49.sol\":17442:17452  msg.sender */\n      caller\n        /* \"val49.sol\":17433:17453  balances[msg.sender] */\n      0xffffffffffffffffffffffffffffffffffffffff\n      and\n      0xffffffffffffffffffffffffffffffffffffffff\n      and\n      dup2\n      mstore\n      0x20\n      add\n      swap1\n      dup2\n      mstore\n      0x20\n      add\n      0x00\n      keccak256\n      0x00\n        /* \"val49.sol\":17433:17465  balances[msg.sender] += _deposit */\n      dup3\n      dup3\n      sload\n      tag_71\n      swap2\n      swap1\n      tag_72\n      jump\t// in\n    tag_71:\n      swap3\n      pop\n      pop\n      dup2\n      swap1\n      sstore\n      pop\n        /* \"val49.sol\":17086:17473  function badRewardUpdate(... */\n      pop\n      jump\t// out\n        /* \"val49.sol\":14822:15301  function safeDeposit()... */\n    tag_35:\n        /* \"val49.sol\":15006:15007  0 */\n      0x00\n        /* \"val49.sol\":14994:15003  msg.value */\n      callvalue\n        /* \"val49.sol\":14994:15007  msg.value > 0 */\n      gt\n        /* \"val49.sol\":14972:15046  require(... */\n      tag_74\n      jumpi\n      mload(0x40)\n      0x08c379a000000000000000000000000000000000000000000000000000000000\n      dup2\n      mstore\n      0x04\n      add\n      tag_75\n      swap1\n      tag_76\n      jump\t// in\n    tag_75:\n      mload(0x40)\n      dup1\n      swap2\n      sub\n      swap1\n      revert\n    tag_74:\n        /* \"val49.sol\":15162:15171  msg.value */\n      callvalue\n        /* \"val49.sol\":15138:15146  balances */\n      0x00\n        /* \"val49.sol\":15138:15158  balances[msg.sender] */\n      0x00\n        /* \"val49.sol\":15147:15157  msg.sender */\n      caller\n        /* \"val49.sol\":15138:15158  balances[msg.sender] */\n      0xffffffffffffffffffffffffffffffffffffffff\n      and\n      0xffffffffffffffffffffffffffffffffffffffff\n      and\n      dup2\n      mstore\n      0x20\n      add\n      swap1\n      dup2\n      mstore\n      0x20\n      add\n      0x00\n      keccak256\n      0x00\n        /* \"val49.sol\":15138:15171  balances[msg.sender] += msg.value */\n      dup3\n      dup3\n      sload\n      tag_77\n      swap2\n      swap1\n      tag_72\n      jump\t// in\n    tag_77:\n      swap3\n      pop\n      pop\n      dup2\n      swap1\n      sstore\n      pop\n        /* \"val49.sol\":15284:15293  msg.value */\n      callvalue\n        /* \"val49.sol\":15268:15280  totalBalance */\n      0x01\n      0x00\n        /* \"val49.sol\":15268:15293  totalBalance += msg.value */\n      dup3\n      dup3\n      sload\n      tag_78\n      swap2\n      swap1\n      tag_72\n      jump\t// in\n    tag_78:\n      swap3\n      pop\n      pop\n      dup2\n      swap1\n      sstore\n      pop\n        /* \"val49.sol\":14822:15301  function safeDeposit()... */\n      jump\t// out\n        /* \"val49.sol\":17640:17998  function safeRewardUpdate(... */\n    tag_39:\n        /* \"val49.sol\":17847:17855  _deposit */\n      dup1\n        /* \"val49.sol\":17823:17831  balances */\n      0x00\n        /* \"val49.sol\":17823:17843  balances[msg.sender] */\n      0x00\n        /* \"val49.sol\":17832:17842  msg.sender */\n      caller\n        /* \"val49.sol\":17823:17843  balances[msg.sender] */\n      0xffffffffffffffffffffffffffffffffffffffff\n      and\n      0xffffffffffffffffffffffffffffffffffffffff\n      and\n      dup2\n      mstore\n      0x20\n      add\n      swap1\n      dup2\n      mstore\n      0x20\n      add\n      0x00\n      keccak256\n      0x00\n        /* \"val49.sol\":17823:17855  balances[msg.sender] += _deposit */\n      dup3\n      dup3\n      sload\n      tag_80\n      swap2\n      swap1\n      tag_72\n      jump\t// in\n    tag_80:\n      swap3\n      pop\n      pop\n      dup2\n      swap1\n      sstore\n      pop\n        /* \"val49.sol\":17988:17990  10 */\n      0x0a\n        /* \"val49.sol\":17965:17973  balances */\n      0x00\n        /* \"val49.sol\":17965:17985  balances[msg.sender] */\n      0x00\n        /* \"val49.sol\":17974:17984  msg.sender */\n      caller\n        /* \"val49.sol\":17965:17985  balances[msg.sender] */\n      0xffffffffffffffffffffffffffffffffffffffff\n      and\n      0xffffffffffffffffffffffffffffffffffffffff\n      and\n      dup2\n      mstore\n      0x20\n      add\n      swap1\n      dup2\n      mstore\n      0x20\n      add\n      0x00\n      keccak256\n      sload\n        /* \"val49.sol\":17965:17990  balances[msg.sender] / 10 */\n      tag_81\n      swap2\n      swap1\n      tag_70\n      jump\t// in\n    tag_81:\n        /* \"val49.sol\":17930:17937  rewards */\n      0x03\n        /* \"val49.sol\":17930:17949  rewards[msg.sender] */\n      0x00\n        /* \"val49.sol\":17938:17948  msg.sender */\n      caller\n        /* \"val49.sol\":17930:17949  rewards[msg.sender] */\n      0xffffffffffffffffffffffffffffffffffffffff\n      and\n      0xffffffffffffffffffffffffffffffffffffffff\n      and\n      dup2\n      mstore\n      0x20\n      add\n      swap1\n      dup2\n      mstore\n      0x20\n      add\n      0x00\n      keccak256\n        /* \"val49.sol\":17930:17990  rewards[msg.sender] =... */\n      dup2\n      swap1\n      sstore\n      pop\n        /* \"val49.sol\":17640:17998  function safeRewardUpdate(... */\n      pop\n      jump\t// out\n        /* \"val49.sol\":14378:14405  uint256 public totalBalance */\n    tag_42:\n      sload(0x01)\n      dup2\n      jump\t// out\n        /* \"val49.sol\":18237:18541  function vulnerableTokenWithdraw(uint256 _amount)external {... */\n    tag_47:\n        /* \"val49.sol\":18338:18345  _amount */\n      dup1\n        /* \"val49.sol\":18314:18322  balances */\n      0x00\n        /* \"val49.sol\":18314:18334  balances[msg.sender] */\n      0x00\n        /* \"val49.sol\":18323:18333  msg.sender */\n      caller\n        /* \"val49.sol\":18314:18334  balances[msg.sender] */\n      0xffffffffffffffffffffffffffffffffffffffff\n      and\n      0xffffffffffffffffffffffffffffffffffffffff\n      and\n      dup2\n      mstore\n      0x20\n      add\n      swap1\n      dup2\n      mstore\n      0x20\n      add\n      0x00\n      keccak256\n      sload\n        /* \"val49.sol\":18314:18345  balances[msg.sender] >= _amount */\n      lt\n      iszero\n        /* \"val49.sol\":18306:18370  require(balances[msg.sender] >= _amount, \"Insufficient balance\") */\n      tag_83\n      jumpi\n      mload(0x40)\n      0x08c379a000000000000000000000000000000000000000000000000000000000\n      dup2\n      mstore\n      0x04\n      add\n      tag_84\n      swap1\n      tag_63\n      jump\t// in\n    tag_84:\n      mload(0x40)\n      dup1\n      swap2\n      sub\n      swap1\n      revert\n    tag_83:\n        /* \"val49.sol\":18427:18461  tokenTransfer(msg.sender, _amount) */\n      tag_85\n        /* \"val49.sol\":18441:18451  msg.sender */\n      caller\n        /* \"val49.sol\":18453:18460  _amount */\n      dup3\n        /* \"val49.sol\":18427:18440  tokenTransfer */\n      tag_67\n        /* \"val49.sol\":18427:18461  tokenTransfer(msg.sender, _amount) */\n      jump\t// in\n    tag_85:\n        /* \"val49.sol\":18526:18533  _amount */\n      dup1\n        /* \"val49.sol\":18502:18510  balances */\n      0x00\n        /* \"val49.sol\":18502:18522  balances[msg.sender] */\n      0x00\n        /* \"val49.sol\":18511:18521  msg.sender */\n      caller\n        /* \"val49.sol\":18502:18522  balances[msg.sender] */\n      0xffffffffffffffffffffffffffffffffffffffff\n      and\n      0xffffffffffffffffffffffffffffffffffffffff\n      and\n      dup2\n      mstore\n      0x20\n      add\n      swap1\n      dup2\n      mstore\n      0x20\n      add\n      0x00\n      keccak256\n      0x00\n        /* \"val49.sol\":18502:18533  balances[msg.sender] -= _amount */\n      dup3\n      dup3\n      sload\n      tag_86\n      swap2\n      swap1\n      tag_65\n      jump\t// in\n    tag_86:\n      swap3\n      pop\n      pop\n      dup2\n      swap1\n      sstore\n      pop\n        /* \"val49.sol\":18237:18541  function vulnerableTokenWithdraw(uint256 _amount)external {... */\n      pop\n      jump\t// out\n        /* \"val49.sol\":15516:16079  function safeWithdraw(... */\n    tag_51:\n        /* \"val49.sol\":15697:15704  _amount */\n      dup1\n        /* \"val49.sol\":15673:15681  balances */\n      0x00\n        /* \"val49.sol\":15673:15693  balances[msg.sender] */\n      0x00\n        /* \"val49.sol\":15682:15692  msg.sender */\n      caller\n        /* \"val49.sol\":15673:15693  balances[msg.sender] */\n      0xffffffffffffffffffffffffffffffffffffffff\n      and\n      0xffffffffffffffffffffffffffffffffffffffff\n      and\n      dup2\n      mstore\n      0x20\n      add\n      swap1\n      dup2\n      mstore\n      0x20\n      add\n      0x00\n      keccak256\n      sload\n        /* \"val49.sol\":15673:15704  balances[msg.sender] >= _amount */\n      lt\n      iszero\n        /* \"val49.sol\":15651:15752  require(... */\n      tag_88\n      jumpi\n      mload(0x40)\n      0x08c379a000000000000000000000000000000000000000000000000000000000\n      dup2\n      mstore\n      0x04\n      add\n      tag_89\n      swap1\n      tag_63\n      jump\t// in\n    tag_89:\n      mload(0x40)\n      dup1\n      swap2\n      sub\n      swap1\n      revert\n    tag_88:\n        /* \"val49.sol\":15886:15893  _amount */\n      dup1\n        /* \"val49.sol\":15862:15870  balances */\n      0x00\n        /* \"val49.sol\":15862:15882  balances[msg.sender] */\n      0x00\n        /* \"val49.sol\":15871:15881  msg.sender */\n      caller\n        /* \"val49.sol\":15862:15882  balances[msg.sender] */\n      0xffffffffffffffffffffffffffffffffffffffff\n      and\n      0xffffffffffffffffffffffffffffffffffffffff\n      and\n      dup2\n      mstore\n      0x20\n      add\n      swap1\n      dup2\n      mstore\n      0x20\n      add\n      0x00\n      keccak256\n      0x00\n        /* \"val49.sol\":15862:15893  balances[msg.sender] -= _amount */\n      dup3\n      dup3\n      sload\n      tag_90\n      swap2\n      swap1\n      tag_65\n      jump\t// in\n    tag_90:\n      swap3\n      pop\n      pop\n      dup2\n      swap1\n      sstore\n      pop\n        /* \"val49.sol\":15922:15929  _amount */\n      dup1\n        /* \"val49.sol\":15906:15918  totalBalance */\n      0x01\n      0x00\n        /* \"val49.sol\":15906:15929  totalBalance -= _amount */\n      dup3\n      dup3\n      sload\n      tag_91\n      swap2\n      swap1\n      tag_65\n      jump\t// in\n    tag_91:\n      swap3\n      pop\n      pop\n      dup2\n      swap1\n      sstore\n      pop\n        /* \"val49.sol\":16042:16052  msg.sender */\n      caller\n        /* \"val49.sol\":16034:16062  payable(msg.sender).transfer */\n      0xffffffffffffffffffffffffffffffffffffffff\n      and\n        /* \"val49.sol\":16034:16071  payable(msg.sender).transfer(_amount) */\n      0x08fc\n        /* \"val49.sol\":16063:16070  _amount */\n      dup3\n        /* \"val49.sol\":16034:16071  payable(msg.sender).transfer(_amount) */\n      swap1\n      dup2\n      iszero\n      mul\n      swap1\n      mload(0x40)\n      0x00\n      mload(0x40)\n      dup1\n      dup4\n      sub\n      dup2\n      dup6\n      dup9\n      dup9\n      call\n      swap4\n      pop\n      pop\n      pop\n      pop\n      iszero\n      dup1\n      iszero\n      tag_93\n      jumpi\n      returndatacopy(0x00, 0x00, returndatasize)\n      revert(0x00, returndatasize)\n    tag_93:\n      pop\n        /* \"val49.sol\":15516:16079  function safeWithdraw(... */\n      pop\n      jump\t// out\n        /* \"val49.sol\":16279:16869  function vulnerableWithdraw(... */\n    tag_55:\n        /* \"val49.sol\":16504:16511  _amount */\n      dup1\n        /* \"val49.sol\":16480:16488  balances */\n      0x00\n        /* \"val49.sol\":16480:16500  balances[msg.sender] */\n      0x00\n        /* \"val49.sol\":16489:16499  msg.sender */\n      caller\n        /* \"val49.sol\":16480:16500  balances[msg.sender] */\n      0xffffffffffffffffffffffffffffffffffffffff\n      and\n      0xffffffffffffffffffffffffffffffffffffffff\n      and\n      dup2\n      mstore\n      0x20\n      add\n      swap1\n      dup2\n      mstore\n      0x20\n      add\n      0x00\n      keccak256\n      sload\n        /* \"val49.sol\":16480:16511  balances[msg.sender] >= _amount */\n      lt\n      iszero\n        /* \"val49.sol\":16458:16559  require(... */\n      tag_95\n      jumpi\n      mload(0x40)\n      0x08c379a000000000000000000000000000000000000000000000000000000000\n      dup2\n      mstore\n      0x04\n      add\n      tag_96\n      swap1\n      tag_63\n      jump\t// in\n    tag_96:\n      mload(0x40)\n      dup1\n      swap2\n      sub\n      swap1\n      revert\n    tag_95:\n        /* \"val49.sol\":16684:16694  msg.sender */\n      caller\n        /* \"val49.sol\":16676:16700  payable(msg.sender).call */\n      0xffffffffffffffffffffffffffffffffffffffff\n      and\n        /* \"val49.sol\":16709:16716  _amount */\n      dup2\n        /* \"val49.sol\":16676:16721  payable(msg.sender).call{ value: _amount}(\"\") */\n      mload(0x40)\n      tag_97\n      swap1\n      tag_98\n      jump\t// in\n    tag_97:\n      0x00\n      mload(0x40)\n      dup1\n      dup4\n      sub\n      dup2\n      dup6\n      dup8\n      gas\n      call\n      swap3\n      pop\n      pop\n      pop\n      returndatasize\n      dup1\n      0x00\n      dup2\n      eq\n      tag_101\n      jumpi\n      mload(0x40)\n      swap2\n      pop\n      and(add(returndatasize, 0x3f), not(0x1f))\n      dup3\n      add\n      0x40\n      mstore\n      returndatasize\n      dup3\n      mstore\n      returndatasize\n      0x00\n      0x20\n      dup5\n      add\n      returndatacopy\n      jump(tag_100)\n    tag_101:\n      0x60\n      swap2\n      pop\n    tag_100:\n      pop\n      pop\n      pop\n        /* \"val49.sol\":16818:16825  _amount */\n      dup1\n        /* \"val49.sol\":16794:16802  balances */\n      0x00\n        /* \"val49.sol\":16794:16814  balances[msg.sender] */\n      0x00\n        /* \"val49.sol\":16803:16813  msg.sender */\n      caller\n        /* \"val49.sol\":16794:16814  balances[msg.sender] */\n      0xffffffffffffffffffffffffffffffffffffffff\n      and\n      0xffffffffffffffffffffffffffffffffffffffff\n      and\n      dup2\n      mstore\n      0x20\n      add\n      swap1\n      dup2\n      mstore\n      0x20\n      add\n      0x00\n      keccak256\n      0x00\n        /* \"val49.sol\":16794:16825  balances[msg.sender] -= _amount */\n      dup3\n      dup3\n      sload\n      tag_102\n      swap2\n      swap1\n      tag_65\n      jump\t// in\n    tag_102:\n      swap3\n      pop\n      pop\n      dup2\n      swap1\n      sstore\n      pop\n        /* \"val49.sol\":16854:16861  _amount */\n      dup1\n        /* \"val49.sol\":16838:16850  totalBalance */\n      0x01\n      0x00\n        /* \"val49.sol\":16838:16861  totalBalance -= _amount */\n      dup3\n      dup3\n      sload\n      tag_103\n      swap2\n      swap1\n      tag_65\n      jump\t// in\n    tag_103:\n      swap3\n      pop\n      pop\n      dup2\n      swap1\n      sstore\n      pop\n        /* \"val49.sol\":16279:16869  function vulnerableWithdraw(... */\n      pop\n      jump\t// out\n        /* \"val49.sol\":18006:18229  function tokenTransfer(address to,uint amount)internal {... */\n    tag_67:\n        /* \"val49.sol\":18116:18128  bool success */\n      0x00\n        /* \"val49.sol\":18142:18144  to */\n      dup3\n        /* \"val49.sol\":18134:18150  payable(to).call */\n      0xffffffffffffffffffffffffffffffffffffffff\n      and\n        /* \"val49.sol\":18158:18164  amount */\n      dup3\n        /* \"val49.sol\":18134:18169  payable(to).call{value: amount}(\"\") */\n      mload(0x40)\n      tag_105\n      swap1\n      tag_98\n      jump\t// in\n    tag_105:\n      0x00\n      mload(0x40)\n      dup1\n      dup4\n      sub\n      dup2\n      dup6\n      dup8\n      gas\n      call\n      swap3\n      pop\n      pop\n      pop\n      returndatasize\n      dup1\n      0x00\n      dup2\n      eq\n      tag_108\n      jumpi\n      mload(0x40)\n      swap2\n      pop\n      and(add(returndatasize, 0x3f), not(0x1f))\n      dup3\n      add\n      0x40\n      mstore\n      returndatasize\n      dup3\n      mstore\n      returndatasize\n      0x00\n      0x20\n      dup5\n      add\n      returndatacopy\n      jump(tag_107)\n    tag_108:\n      0x60\n      swap2\n      pop\n    tag_107:\n      pop\n        /* \"val49.sol\":18115:18169  (bool success, ) = payable(to).call{value: amount}(\"\") */\n      pop\n      swap1\n      pop\n        /* \"val49.sol\":18188:18195  success */\n      dup1\n        /* \"val49.sol\":18180:18221  require(success, \"Token transfer failed\") */\n      tag_109\n      jumpi\n      mload(0x40)\n      0x08c379a000000000000000000000000000000000000000000000000000000000\n      dup2\n      mstore\n      0x04\n      add\n      tag_110\n      swap1\n      tag_111\n      jump\t// in\n    tag_110:\n      mload(0x40)\n      dup1\n      swap2\n      sub\n      swap1\n      revert\n    tag_109:\n        /* \"val49.sol\":18061:18229  {... */\n      pop\n        /* \"val49.sol\":18006:18229  function tokenTransfer(address to,uint amount)internal {... */\n      pop\n      pop\n      jump\t// out\n        /* \"#utility.yul\":88:205   */\n    tag_113:\n        /* \"#utility.yul\":197:198   */\n      0x00\n        /* \"#utility.yul\":194:195   */\n      0x00\n        /* \"#utility.yul\":187:199   */\n      revert\n        /* \"#utility.yul\":334:411   */\n    tag_115:\n        /* \"#utility.yul\":371:378   */\n      0x00\n        /* \"#utility.yul\":400:405   */\n      dup2\n        /* \"#utility.yul\":389:405   */\n      swap1\n      pop\n        /* \"#utility.yul\":334:411   */\n      swap2\n      swap1\n      pop\n      jump\t// out\n        /* \"#utility.yul\":417:539   */\n    tag_116:\n        /* \"#utility.yul\":490:514   */\n      tag_143\n        /* \"#utility.yul\":508:513   */\n      dup2\n        /* \"#utility.yul\":490:514   */\n      tag_115\n      jump\t// in\n    tag_143:\n        /* \"#utility.yul\":483:488   */\n      dup2\n        /* \"#utility.yul\":480:515   */\n      eq\n        /* \"#utility.yul\":470:533   */\n      tag_144\n      jumpi\n        /* \"#utility.yul\":529:530   */\n      0x00\n        /* \"#utility.yul\":526:527   */\n      0x00\n        /* \"#utility.yul\":519:531   */\n      revert\n        /* \"#utility.yul\":470:533   */\n    tag_144:\n        /* \"#utility.yul\":417:539   */\n      pop\n      jump\t// out\n        /* \"#utility.yul\":545:684   */\n    tag_117:\n        /* \"#utility.yul\":591:596   */\n      0x00\n        /* \"#utility.yul\":629:635   */\n      dup2\n        /* \"#utility.yul\":616:636   */\n      calldataload\n        /* \"#utility.yul\":607:636   */\n      swap1\n      pop\n        /* \"#utility.yul\":645:678   */\n      tag_146\n        /* \"#utility.yul\":672:677   */\n      dup2\n        /* \"#utility.yul\":645:678   */\n      tag_116\n      jump\t// in\n    tag_146:\n        /* \"#utility.yul\":545:684   */\n      swap3\n      swap2\n      pop\n      pop\n      jump\t// out\n        /* \"#utility.yul\":690:1019   */\n    tag_16:\n        /* \"#utility.yul\":749:755   */\n      0x00\n        /* \"#utility.yul\":798:800   */\n      0x20\n        /* \"#utility.yul\":786:795   */\n      dup3\n        /* \"#utility.yul\":777:784   */\n      dup5\n        /* \"#utility.yul\":773:796   */\n      sub\n        /* \"#utility.yul\":769:801   */\n      slt\n        /* \"#utility.yul\":766:885   */\n      iszero\n      tag_148\n      jumpi\n        /* \"#utility.yul\":804:883   */\n      tag_149\n      tag_113\n      jump\t// in\n    tag_149:\n        /* \"#utility.yul\":766:885   */\n    tag_148:\n        /* \"#utility.yul\":924:925   */\n      0x00\n        /* \"#utility.yul\":949:1002   */\n      tag_150\n        /* \"#utility.yul\":994:1001   */\n      dup5\n        /* \"#utility.yul\":985:991   */\n      dup3\n        /* \"#utility.yul\":974:983   */\n      dup6\n        /* \"#utility.yul\":970:992   */\n      add\n        /* \"#utility.yul\":949:1002   */\n      tag_117\n      jump\t// in\n    tag_150:\n        /* \"#utility.yul\":939:1002   */\n      swap2\n      pop\n        /* \"#utility.yul\":895:1012   */\n      pop\n        /* \"#utility.yul\":690:1019   */\n      swap3\n      swap2\n      pop\n      pop\n      jump\t// out\n        /* \"#utility.yul\":1025:1151   */\n    tag_118:\n        /* \"#utility.yul\":1062:1069   */\n      0x00\n        /* \"#utility.yul\":1102:1144   */\n      0xffffffffffffffffffffffffffffffffffffffff\n        /* \"#utility.yul\":1095:1100   */\n      dup3\n        /* \"#utility.yul\":1091:1145   */\n      and\n        /* \"#utility.yul\":1080:1145   */\n      swap1\n      pop\n        /* \"#utility.yul\":1025:1151   */\n      swap2\n      swap1\n      pop\n      jump\t// out\n        /* \"#utility.yul\":1157:1253   */\n    tag_119:\n        /* \"#utility.yul\":1194:1201   */\n      0x00\n        /* \"#utility.yul\":1223:1247   */\n      tag_153\n        /* \"#utility.yul\":1241:1246   */\n      dup3\n        /* \"#utility.yul\":1223:1247   */\n      tag_118\n      jump\t// in\n    tag_153:\n        /* \"#utility.yul\":1212:1247   */\n      swap1\n      pop\n        /* \"#utility.yul\":1157:1253   */\n      swap2\n      swap1\n      pop\n      jump\t// out\n        /* \"#utility.yul\":1259:1381   */\n    tag_120:\n        /* \"#utility.yul\":1332:1356   */\n      tag_155\n        /* \"#utility.yul\":1350:1355   */\n      dup2\n        /* \"#utility.yul\":1332:1356   */\n      tag_119\n      jump\t// in\n    tag_155:\n        /* \"#utility.yul\":1325:1330   */\n      dup2\n        /* \"#utility.yul\":1322:1357   */\n      eq\n        /* \"#utility.yul\":1312:1375   */\n      tag_156\n      jumpi\n        /* \"#utility.yul\":1371:1372   */\n      0x00\n        /* \"#utility.yul\":1368:1369   */\n      0x00\n        /* \"#utility.yul\":1361:1373   */\n      revert\n        /* \"#utility.yul\":1312:1375   */\n    tag_156:\n        /* \"#utility.yul\":1259:1381   */\n      pop\n      jump\t// out\n        /* \"#utility.yul\":1387:1526   */\n    tag_121:\n        /* \"#utility.yul\":1433:1438   */\n      0x00\n        /* \"#utility.yul\":1471:1477   */\n      dup2\n        /* \"#utility.yul\":1458:1478   */\n      calldataload\n        /* \"#utility.yul\":1449:1478   */\n      swap1\n      pop\n        /* \"#utility.yul\":1487:1520   */\n      tag_158\n        /* \"#utility.yul\":1514:1519   */\n      dup2\n        /* \"#utility.yul\":1487:1520   */\n      tag_120\n      jump\t// in\n    tag_158:\n        /* \"#utility.yul\":1387:1526   */\n      swap3\n      swap2\n      pop\n      pop\n      jump\t// out\n        /* \"#utility.yul\":1532:1861   */\n    tag_21:\n        /* \"#utility.yul\":1591:1597   */\n      0x00\n        /* \"#utility.yul\":1640:1642   */\n      0x20\n        /* \"#utility.yul\":1628:1637   */\n      dup3\n        /* \"#utility.yul\":1619:1626   */\n      dup5\n        /* \"#utility.yul\":1615:1638   */\n      sub\n        /* \"#utility.yul\":1611:1643   */\n      slt\n        /* \"#utility.yul\":1608:1727   */\n      iszero\n      tag_160\n      jumpi\n        /* \"#utility.yul\":1646:1725   */\n      tag_161\n      tag_113\n      jump\t// in\n    tag_161:\n        /* \"#utility.yul\":1608:1727   */\n    tag_160:\n        /* \"#utility.yul\":1766:1767   */\n      0x00\n        /* \"#utility.yul\":1791:1844   */\n      tag_162\n        /* \"#utility.yul\":1836:1843   */\n      dup5\n        /* \"#utility.yul\":1827:1833   */\n      dup3\n        /* \"#utility.yul\":1816:1825   */\n      dup6\n        /* \"#utility.yul\":1812:1834   */\n      add\n        /* \"#utility.yul\":1791:1844   */\n      tag_121\n      jump\t// in\n    tag_162:\n        /* \"#utility.yul\":1781:1844   */\n      swap2\n      pop\n        /* \"#utility.yul\":1737:1854   */\n      pop\n        /* \"#utility.yul\":1532:1861   */\n      swap3\n      swap2\n      pop\n      pop\n      jump\t// out\n        /* \"#utility.yul\":1867:1985   */\n    tag_122:\n        /* \"#utility.yul\":1954:1978   */\n      tag_164\n        /* \"#utility.yul\":1972:1977   */\n      dup2\n        /* \"#utility.yul\":1954:1978   */\n      tag_115\n      jump\t// in\n    tag_164:\n        /* \"#utility.yul\":1949:1952   */\n      dup3\n        /* \"#utility.yul\":1942:1979   */\n      mstore\n        /* \"#utility.yul\":1867:1985   */\n      pop\n      pop\n      jump\t// out\n        /* \"#utility.yul\":1991:2213   */\n    tag_24:\n        /* \"#utility.yul\":2084:2088   */\n      0x00\n        /* \"#utility.yul\":2122:2124   */\n      0x20\n        /* \"#utility.yul\":2111:2120   */\n      dup3\n        /* \"#utility.yul\":2107:2125   */\n      add\n        /* \"#utility.yul\":2099:2125   */\n      swap1\n      pop\n        /* \"#utility.yul\":2135:2206   */\n      tag_166\n        /* \"#utility.yul\":2203:2204   */\n      0x00\n        /* \"#utility.yul\":2192:2201   */\n      dup4\n        /* \"#utility.yul\":2188:2205   */\n      add\n        /* \"#utility.yul\":2179:2185   */\n      dup5\n        /* \"#utility.yul\":2135:2206   */\n      tag_122\n      jump\t// in\n    tag_166:\n        /* \"#utility.yul\":1991:2213   */\n      swap3\n      swap2\n      pop\n      pop\n      jump\t// out\n        /* \"#utility.yul\":2219:2388   */\n    tag_123:\n        /* \"#utility.yul\":2303:2314   */\n      0x00\n        /* \"#utility.yul\":2337:2343   */\n      dup3\n        /* \"#utility.yul\":2332:2335   */\n      dup3\n        /* \"#utility.yul\":2325:2344   */\n      mstore\n        /* \"#utility.yul\":2377:2381   */\n      0x20\n        /* \"#utility.yul\":2372:2375   */\n      dup3\n        /* \"#utility.yul\":2368:2382   */\n      add\n        /* \"#utility.yul\":2353:2382   */\n      swap1\n      pop\n        /* \"#utility.yul\":2219:2388   */\n      swap3\n      swap2\n      pop\n      pop\n      jump\t// out\n        /* \"#utility.yul\":2394:2566   */\n    tag_124:\n        /* \"#utility.yul\":2534:2558   */\n      0x5265656e7472616e742063616c6c20626c6f636b656400000000000000000000\n        /* \"#utility.yul\":2530:2531   */\n      0x00\n        /* \"#utility.yul\":2522:2528   */\n      dup3\n        /* \"#utility.yul\":2518:2532   */\n      add\n        /* \"#utility.yul\":2511:2559   */\n      mstore\n        /* \"#utility.yul\":2394:2566   */\n      pop\n      jump\t// out\n        /* \"#utility.yul\":2572:2938   */\n    tag_125:\n        /* \"#utility.yul\":2714:2717   */\n      0x00\n        /* \"#utility.yul\":2735:2802   */\n      tag_170\n        /* \"#utility.yul\":2799:2801   */\n      0x16\n        /* \"#utility.yul\":2794:2797   */\n      dup4\n        /* \"#utility.yul\":2735:2802   */\n      tag_123\n      jump\t// in\n    tag_170:\n        /* \"#utility.yul\":2728:2802   */\n      swap2\n      pop\n        /* \"#utility.yul\":2811:2904   */\n      tag_171\n        /* \"#utility.yul\":2900:2903   */\n      dup3\n        /* \"#utility.yul\":2811:2904   */\n      tag_124\n      jump\t// in\n    tag_171:\n        /* \"#utility.yul\":2929:2931   */\n      0x20\n        /* \"#utility.yul\":2924:2927   */\n      dup3\n        /* \"#utility.yul\":2920:2932   */\n      add\n        /* \"#utility.yul\":2913:2932   */\n      swap1\n      pop\n        /* \"#utility.yul\":2572:2938   */\n      swap2\n      swap1\n      pop\n      jump\t// out\n        /* \"#utility.yul\":2944:3363   */\n    tag_59:\n        /* \"#utility.yul\":3110:3114   */\n      0x00\n        /* \"#utility.yul\":3148:3150   */\n      0x20\n        /* \"#utility.yul\":3137:3146   */\n      dup3\n        /* \"#utility.yul\":3133:3151   */\n      add\n        /* \"#utility.yul\":3125:3151   */\n      swap1\n      pop\n        /* \"#utility.yul\":3197:3206   */\n      dup2\n        /* \"#utility.yul\":3191:3195   */\n      dup2\n        /* \"#utility.yul\":3187:3207   */\n      sub\n        /* \"#utility.yul\":3183:3184   */\n      0x00\n        /* \"#utility.yul\":3172:3181   */\n      dup4\n        /* \"#utility.yul\":3168:3185   */\n      add\n        /* \"#utility.yul\":3161:3208   */\n      mstore\n        /* \"#utility.yul\":3225:3356   */\n      tag_173\n        /* \"#utility.yul\":3351:3355   */\n      dup2\n        /* \"#utility.yul\":3225:3356   */\n      tag_125\n      jump\t// in\n    tag_173:\n        /* \"#utility.yul\":3217:3356   */\n      swap1\n      pop\n        /* \"#utility.yul\":2944:3363   */\n      swap2\n      swap1\n      pop\n      jump\t// out\n        /* \"#utility.yul\":3369:3539   */\n    tag_126:\n        /* \"#utility.yul\":3509:3531   */\n      0x496e73756666696369656e742062616c616e6365000000000000000000000000\n        /* \"#utility.yul\":3505:3506   */\n      0x00\n        /* \"#utility.yul\":3497:3503   */\n      dup3\n        /* \"#utility.yul\":3493:3507   */\n      add\n        /* \"#utility.yul\":3486:3532   */\n      mstore\n        /* \"#utility.yul\":3369:3539   */\n      pop\n      jump\t// out\n        /* \"#utility.yul\":3545:3911   */\n    tag_127:\n        /* \"#utility.yul\":3687:3690   */\n      0x00\n        /* \"#utility.yul\":3708:3775   */\n      tag_176\n        /* \"#utility.yul\":3772:3774   */\n      0x14\n        /* \"#utility.yul\":3767:3770   */\n      dup4\n        /* \"#utility.yul\":3708:3775   */\n      tag_123\n      jump\t// in\n    tag_176:\n        /* \"#utility.yul\":3701:3775   */\n      swap2\n      pop\n        /* \"#utility.yul\":3784:3877   */\n      tag_177\n        /* \"#utility.yul\":3873:3876   */\n      dup3\n        /* \"#utility.yul\":3784:3877   */\n      tag_126\n      jump\t// in\n    tag_177:\n        /* \"#utility.yul\":3902:3904   */\n      0x20\n        /* \"#utility.yul\":3897:3900   */\n      dup3\n        /* \"#utility.yul\":3893:3905   */\n      add\n        /* \"#utility.yul\":3886:3905   */\n      swap1\n      pop\n        /* \"#utility.yul\":3545:3911   */\n      swap2\n      swap1\n      pop\n      jump\t// out\n        /* \"#utility.yul\":3917:4336   */\n    tag_63:\n        /* \"#utility.yul\":4083:4087   */\n      0x00\n        /* \"#utility.yul\":4121:4123   */\n      0x20\n        /* \"#utility.yul\":4110:4119   */\n      dup3\n        /* \"#utility.yul\":4106:4124   */\n      add\n        /* \"#utility.yul\":4098:4124   */\n      swap1\n      pop\n        /* \"#utility.yul\":4170:4179   */\n      dup2\n        /* \"#utility.yul\":4164:4168   */\n      dup2\n        /* \"#utility.yul\":4160:4180   */\n      sub\n        /* \"#utility.yul\":4156:4157   */\n      0x00\n        /* \"#utility.yul\":4145:4154   */\n      dup4\n        /* \"#utility.yul\":4141:4158   */\n      add\n        /* \"#utility.yul\":4134:4181   */\n      mstore\n        /* \"#utility.yul\":4198:4329   */\n      tag_179\n        /* \"#utility.yul\":4324:4328   */\n      dup2\n        /* \"#utility.yul\":4198:4329   */\n      tag_127\n      jump\t// in\n    tag_179:\n        /* \"#utility.yul\":4190:4329   */\n      swap1\n      pop\n        /* \"#utility.yul\":3917:4336   */\n      swap2\n      swap1\n      pop\n      jump\t// out\n        /* \"#utility.yul\":4342:4522   */\n    tag_128:\n        /* \"#utility.yul\":4390:4467   */\n      0x4e487b7100000000000000000000000000000000000000000000000000000000\n        /* \"#utility.yul\":4387:4388   */\n      0x00\n        /* \"#utility.yul\":4380:4468   */\n      mstore\n        /* \"#utility.yul\":4487:4491   */\n      0x11\n        /* \"#utility.yul\":4484:4485   */\n      0x04\n        /* \"#utility.yul\":4477:4492   */\n      mstore\n        /* \"#utility.yul\":4511:4515   */\n      0x24\n        /* \"#utility.yul\":4508:4509   */\n      0x00\n        /* \"#utility.yul\":4501:4516   */\n      revert\n        /* \"#utility.yul\":4528:4722   */\n    tag_65:\n        /* \"#utility.yul\":4568:4572   */\n      0x00\n        /* \"#utility.yul\":4588:4608   */\n      tag_182\n        /* \"#utility.yul\":4606:4607   */\n      dup3\n        /* \"#utility.yul\":4588:4608   */\n      tag_115\n      jump\t// in\n    tag_182:\n        /* \"#utility.yul\":4583:4608   */\n      swap2\n      pop\n        /* \"#utility.yul\":4622:4642   */\n      tag_183\n        /* \"#utility.yul\":4640:4641   */\n      dup4\n        /* \"#utility.yul\":4622:4642   */\n      tag_115\n      jump\t// in\n    tag_183:\n        /* \"#utility.yul\":4617:4642   */\n      swap3\n      pop\n        /* \"#utility.yul\":4666:4667   */\n      dup3\n        /* \"#utility.yul\":4663:4664   */\n      dup3\n        /* \"#utility.yul\":4659:4668   */\n      sub\n        /* \"#utility.yul\":4651:4668   */\n      swap1\n      pop\n        /* \"#utility.yul\":4690:4691   */\n      dup2\n        /* \"#utility.yul\":4684:4688   */\n      dup2\n        /* \"#utility.yul\":4681:4692   */\n      gt\n        /* \"#utility.yul\":4678:4715   */\n      iszero\n      tag_184\n      jumpi\n        /* \"#utility.yul\":4695:4713   */\n      tag_185\n      tag_128\n      jump\t// in\n    tag_185:\n        /* \"#utility.yul\":4678:4715   */\n    tag_184:\n        /* \"#utility.yul\":4528:4722   */\n      swap3\n      swap2\n      pop\n      pop\n      jump\t// out\n        /* \"#utility.yul\":4728:4908   */\n    tag_129:\n        /* \"#utility.yul\":4776:4853   */\n      0x4e487b7100000000000000000000000000000000000000000000000000000000\n        /* \"#utility.yul\":4773:4774   */\n      0x00\n        /* \"#utility.yul\":4766:4854   */\n      mstore\n        /* \"#utility.yul\":4873:4877   */\n      0x12\n        /* \"#utility.yul\":4870:4871   */\n      0x04\n        /* \"#utility.yul\":4863:4878   */\n      mstore\n        /* \"#utility.yul\":4897:4901   */\n      0x24\n        /* \"#utility.yul\":4894:4895   */\n      0x00\n        /* \"#utility.yul\":4887:4902   */\n      revert\n        /* \"#utility.yul\":4914:5099   */\n    tag_70:\n        /* \"#utility.yul\":4954:4955   */\n      0x00\n        /* \"#utility.yul\":4971:4991   */\n      tag_188\n        /* \"#utility.yul\":4989:4990   */\n      dup3\n        /* \"#utility.yul\":4971:4991   */\n      tag_115\n      jump\t// in\n    tag_188:\n        /* \"#utility.yul\":4966:4991   */\n      swap2\n      pop\n        /* \"#utility.yul\":5005:5025   */\n      tag_189\n        /* \"#utility.yul\":5023:5024   */\n      dup4\n        /* \"#utility.yul\":5005:5025   */\n      tag_115\n      jump\t// in\n    tag_189:\n        /* \"#utility.yul\":5000:5025   */\n      swap3\n      pop\n        /* \"#utility.yul\":5044:5045   */\n      dup3\n        /* \"#utility.yul\":5034:5069   */\n      tag_190\n      jumpi\n        /* \"#utility.yul\":5049:5067   */\n      tag_191\n      tag_129\n      jump\t// in\n    tag_191:\n        /* \"#utility.yul\":5034:5069   */\n    tag_190:\n        /* \"#utility.yul\":5091:5092   */\n      dup3\n        /* \"#utility.yul\":5088:5089   */\n      dup3\n        /* \"#utility.yul\":5084:5093   */\n      div\n        /* \"#utility.yul\":5079:5093   */\n      swap1\n      pop\n        /* \"#utility.yul\":4914:5099   */\n      swap3\n      swap2\n      pop\n      pop\n      jump\t// out\n        /* \"#utility.yul\":5105:5296   */\n    tag_72:\n        /* \"#utility.yul\":5145:5148   */\n      0x00\n        /* \"#utility.yul\":5164:5184   */\n      tag_193\n        /* \"#utility.yul\":5182:5183   */\n      dup3\n        /* \"#utility.yul\":5164:5184   */\n      tag_115\n      jump\t// in\n    tag_193:\n        /* \"#utility.yul\":5159:5184   */\n      swap2\n      pop\n        /* \"#utility.yul\":5198:5218   */\n      tag_194\n        /* \"#utility.yul\":5216:5217   */\n      dup4\n        /* \"#utility.yul\":5198:5218   */\n      tag_115\n      jump\t// in\n    tag_194:\n        /* \"#utility.yul\":5193:5218   */\n      swap3\n      pop\n        /* \"#utility.yul\":5241:5242   */\n      dup3\n        /* \"#utility.yul\":5238:5239   */\n      dup3\n        /* \"#utility.yul\":5234:5243   */\n      add\n        /* \"#utility.yul\":5227:5243   */\n      swap1\n      pop\n        /* \"#utility.yul\":5262:5265   */\n      dup1\n        /* \"#utility.yul\":5259:5260   */\n      dup3\n        /* \"#utility.yul\":5256:5266   */\n      gt\n        /* \"#utility.yul\":5253:5289   */\n      iszero\n      tag_195\n      jumpi\n        /* \"#utility.yul\":5269:5287   */\n      tag_196\n      tag_128\n      jump\t// in\n    tag_196:\n        /* \"#utility.yul\":5253:5289   */\n    tag_195:\n        /* \"#utility.yul\":5105:5296   */\n      swap3\n      swap2\n      pop\n      pop\n      jump\t// out\n        /* \"#utility.yul\":5302:5463   */\n    tag_130:\n        /* \"#utility.yul\":5442:5455   */\n      0x4e6f204554482073656e74000000000000000000000000000000000000000000\n        /* \"#utility.yul\":5438:5439   */\n      0x00\n        /* \"#utility.yul\":5430:5436   */\n      dup3\n        /* \"#utility.yul\":5426:5440   */\n      add\n        /* \"#utility.yul\":5419:5456   */\n      mstore\n        /* \"#utility.yul\":5302:5463   */\n      pop\n      jump\t// out\n        /* \"#utility.yul\":5469:5835   */\n    tag_131:\n        /* \"#utility.yul\":5611:5614   */\n      0x00\n        /* \"#utility.yul\":5632:5699   */\n      tag_199\n        /* \"#utility.yul\":5696:5698   */\n      0x0b\n        /* \"#utility.yul\":5691:5694   */\n      dup4\n        /* \"#utility.yul\":5632:5699   */\n      tag_123\n      jump\t// in\n    tag_199:\n        /* \"#utility.yul\":5625:5699   */\n      swap2\n      pop\n        /* \"#utility.yul\":5708:5801   */\n      tag_200\n        /* \"#utility.yul\":5797:5800   */\n      dup3\n        /* \"#utility.yul\":5708:5801   */\n      tag_130\n      jump\t// in\n    tag_200:\n        /* \"#utility.yul\":5826:5828   */\n      0x20\n        /* \"#utility.yul\":5821:5824   */\n      dup3\n        /* \"#utility.yul\":5817:5829   */\n      add\n        /* \"#utility.yul\":5810:5829   */\n      swap1\n      pop\n        /* \"#utility.yul\":5469:5835   */\n      swap2\n      swap1\n      pop\n      jump\t// out\n        /* \"#utility.yul\":5841:6260   */\n    tag_76:\n        /* \"#utility.yul\":6007:6011   */\n      0x00\n        /* \"#utility.yul\":6045:6047   */\n      0x20\n        /* \"#utility.yul\":6034:6043   */\n      dup3\n        /* \"#utility.yul\":6030:6048   */\n      add\n        /* \"#utility.yul\":6022:6048   */\n      swap1\n      pop\n        /* \"#utility.yul\":6094:6103   */\n      dup2\n        /* \"#utility.yul\":6088:6092   */\n      dup2\n        /* \"#utility.yul\":6084:6104   */\n      sub\n        /* \"#utility.yul\":6080:6081   */\n      0x00\n        /* \"#utility.yul\":6069:6078   */\n      dup4\n        /* \"#utility.yul\":6065:6082   */\n      add\n        /* \"#utility.yul\":6058:6105   */\n      mstore\n        /* \"#utility.yul\":6122:6253   */\n      tag_202\n        /* \"#utility.yul\":6248:6252   */\n      dup2\n        /* \"#utility.yul\":6122:6253   */\n      tag_131\n      jump\t// in\n    tag_202:\n        /* \"#utility.yul\":6114:6253   */\n      swap1\n      pop\n        /* \"#utility.yul\":5841:6260   */\n      swap2\n      swap1\n      pop\n      jump\t// out\n        /* \"#utility.yul\":6266:6413   */\n    tag_132:\n        /* \"#utility.yul\":6367:6378   */\n      0x00\n        /* \"#utility.yul\":6404:6407   */\n      dup2\n        /* \"#utility.yul\":6389:6407   */\n      swap1\n      pop\n        /* \"#utility.yul\":6266:6413   */\n      swap3\n      swap2\n      pop\n      pop\n      jump\t// out\n        /* \"#utility.yul\":6419:6533   */\n    tag_133:\n      pop\n      jump\t// out\n        /* \"#utility.yul\":6539:6937   */\n    tag_134:\n        /* \"#utility.yul\":6698:6701   */\n      0x00\n        /* \"#utility.yul\":6719:6802   */\n      tag_206\n        /* \"#utility.yul\":6800:6801   */\n      0x00\n        /* \"#utility.yul\":6795:6798   */\n      dup4\n        /* \"#utility.yul\":6719:6802   */\n      tag_132\n      jump\t// in\n    tag_206:\n        /* \"#utility.yul\":6712:6802   */\n      swap2\n      pop\n        /* \"#utility.yul\":6811:6904   */\n      tag_207\n        /* \"#utility.yul\":6900:6903   */\n      dup3\n        /* \"#utility.yul\":6811:6904   */\n      tag_133\n      jump\t// in\n    tag_207:\n        /* \"#utility.yul\":6929:6930   */\n      0x00\n        /* \"#utility.yul\":6924:6927   */\n      dup3\n        /* \"#utility.yul\":6920:6931   */\n      add\n        /* \"#utility.yul\":6913:6931   */\n      swap1\n      pop\n        /* \"#utility.yul\":6539:6937   */\n      swap2\n      swap1\n      pop\n      jump\t// out\n        /* \"#utility.yul\":6943:7322   */\n    tag_98:\n        /* \"#utility.yul\":7127:7130   */\n      0x00\n        /* \"#utility.yul\":7149:7296   */\n      tag_209\n        /* \"#utility.yul\":7292:7295   */\n      dup3\n        /* \"#utility.yul\":7149:7296   */\n      tag_134\n      jump\t// in\n    tag_209:\n        /* \"#utility.yul\":7142:7296   */\n      swap2\n      pop\n        /* \"#utility.yul\":7313:7316   */\n      dup2\n        /* \"#utility.yul\":7306:7316   */\n      swap1\n      pop\n        /* \"#utility.yul\":6943:7322   */\n      swap2\n      swap1\n      pop\n      jump\t// out\n        /* \"#utility.yul\":7328:7499   */\n    tag_135:\n        /* \"#utility.yul\":7468:7491   */\n      0x546f6b656e207472616e73666572206661696c65640000000000000000000000\n        /* \"#utility.yul\":7464:7465   */\n      0x00\n        /* \"#utility.yul\":7456:7462   */\n      dup3\n        /* \"#utility.yul\":7452:7466   */\n      add\n        /* \"#utility.yul\":7445:7492   */\n      mstore\n        /* \"#utility.yul\":7328:7499   */\n      pop\n      jump\t// out\n        /* \"#utility.yul\":7505:7871   */\n    tag_136:\n        /* \"#utility.yul\":7647:7650   */\n      0x00\n        /* \"#utility.yul\":7668:7735   */\n      tag_212\n        /* \"#utility.yul\":7732:7734   */\n      0x15\n        /* \"#utility.yul\":7727:7730   */\n      dup4\n        /* \"#utility.yul\":7668:7735   */\n      tag_123\n      jump\t// in\n    tag_212:\n        /* \"#utility.yul\":7661:7735   */\n      swap2\n      pop\n        /* \"#utility.yul\":7744:7837   */\n      tag_213\n        /* \"#utility.yul\":7833:7836   */\n      dup3\n        /* \"#utility.yul\":7744:7837   */\n      tag_135\n      jump\t// in\n    tag_213:\n        /* \"#utility.yul\":7862:7864   */\n      0x20\n        /* \"#utility.yul\":7857:7860   */\n      dup3\n        /* \"#utility.yul\":7853:7865   */\n      add\n        /* \"#utility.yul\":7846:7865   */\n      swap1\n      pop\n        /* \"#utility.yul\":7505:7871   */\n      swap2\n      swap1\n      pop\n      jump\t// out\n        /* \"#utility.yul\":7877:8296   */\n    tag_111:\n        /* \"#utility.yul\":8043:8047   */\n      0x00\n        /* \"#utility.yul\":8081:8083   */\n      0x20\n        /* \"#utility.yul\":8070:8079   */\n      dup3\n        /* \"#utility.yul\":8066:8084   */\n      add\n        /* \"#utility.yul\":8058:8084   */\n      swap1\n      pop\n        /* \"#utility.yul\":8130:8139   */\n      dup2\n        /* \"#utility.yul\":8124:8128   */\n      dup2\n        /* \"#utility.yul\":8120:8140   */\n      sub\n        /* \"#utility.yul\":8116:8117   */\n      0x00\n        /* \"#utility.yul\":8105:8114   */\n      dup4\n        /* \"#utility.yul\":8101:8118   */\n      add\n        /* \"#utility.yul\":8094:8141   */\n      mstore\n        /* \"#utility.yul\":8158:8289   */\n      tag_215\n        /* \"#utility.yul\":8284:8288   */\n      dup2\n        /* \"#utility.yul\":8158:8289   */\n      tag_136\n      jump\t// in\n    tag_215:\n        /* \"#utility.yul\":8150:8289   */\n      swap1\n      pop\n        /* \"#utility.yul\":7877:8296   */\n      swap2\n      swap1\n      pop\n      jump\t// out\n\n    auxdata: 0xa2646970667358221220c339307e3f5a6c6bec61ab576776133b1f9c6978d83ce091c357cea0454d721564736f6c63430008220033\n}\n",
				"bytecode": {
					"linkReferences": {},
					"object": "6080604052348015600e575f5ffd5b50610e5e8061001c5f395ff3fe608060405260043610610090575f3560e01c8063993faec511610058578063993faec514610166578063ad7a672f1461018e578063b0a03eb5146101b8578063b0fd035b146101e0578063cc8176731461020857610090565b806306fbef84146100945780630700037d146100bc57806327e235e3146100f8578063596c4bb4146101345780636e47b9381461015c575b5f5ffd5b34801561009f575f5ffd5b506100ba60048036038101906100b59190610a6f565b610230565b005b3480156100c7575f5ffd5b506100e260048036038101906100dd9190610af4565b610390565b6040516100ef9190610b2e565b60405180910390f35b348015610103575f5ffd5b5061011e60048036038101906101199190610af4565b6103a5565b60405161012b9190610b2e565b60405180910390f35b34801561013f575f5ffd5b5061015a60048036038101906101559190610a6f565b6103b9565b005b610164610498565b005b348015610171575f5ffd5b5061018c60048036038101906101879190610a6f565b610546565b005b348015610199575f5ffd5b506101a2610625565b6040516101af9190610b2e565b60405180910390f35b3480156101c3575f5ffd5b506101de60048036038101906101d99190610a6f565b61062b565b005b3480156101eb575f5ffd5b5061020660048036038101906102019190610a6f565b610709565b005b348015610213575f5ffd5b5061022e60048036038101906102299190610a6f565b610839565b005b60025f9054906101000a900460ff161561027f576040517f08c379a000000000000000000000000000000000000000000000000000000000815260040161027690610ba1565b60405180910390fd5b600160025f6101000a81548160ff021916908315150217905550805f5f3373ffffffffffffffffffffffffffffffffffffffff1673ffffffffffffffffffffffffffffffffffffffff1681526020019081526020015f20541015610318576040517f08c379a000000000000000000000000000000000000000000000000000000000815260040161030f90610c09565b60405180910390fd5b805f5f3373ffffffffffffffffffffffffffffffffffffffff1673ffffffffffffffffffffffffffffffffffffffff1681526020019081526020015f205f8282546103639190610c54565b92505081905550610374338261098b565b5f60025f6101000a81548160ff02191690831515021790555050565b6003602052805f5260405f205f915090505481565b5f602052805f5260405f205f915090505481565b600a5f5f3373ffffffffffffffffffffffffffffffffffffffff1673ffffffffffffffffffffffffffffffffffffffff1681526020019081526020015f20546104029190610cb4565b60035f3373ffffffffffffffffffffffffffffffffffffffff1673ffffffffffffffffffffffffffffffffffffffff1681526020019081526020015f2081905550805f5f3373ffffffffffffffffffffffffffffffffffffffff1673ffffffffffffffffffffffffffffffffffffffff1681526020019081526020015f205f82825461048e9190610ce4565b9250508190555050565b5f34116104da576040517f08c379a00000000000000000000000000000000000000000000000000000000081526004016104d190610d61565b60405180910390fd5b345f5f3373ffffffffffffffffffffffffffffffffffffffff1673ffffffffffffffffffffffffffffffffffffffff1681526020019081526020015f205f8282546105259190610ce4565b925050819055503460015f82825461053d9190610ce4565b92505081905550565b805f5f3373ffffffffffffffffffffffffffffffffffffffff1673ffffffffffffffffffffffffffffffffffffffff1681526020019081526020015f205f8282546105919190610ce4565b92505081905550600a5f5f3373ffffffffffffffffffffffffffffffffffffffff1673ffffffffffffffffffffffffffffffffffffffff1681526020019081526020015f20546105e19190610cb4565b60035f3373ffffffffffffffffffffffffffffffffffffffff1673ffffffffffffffffffffffffffffffffffffffff1681526020019081526020015f208190555050565b60015481565b805f5f3373ffffffffffffffffffffffffffffffffffffffff1673ffffffffffffffffffffffffffffffffffffffff1681526020019081526020015f205410156106aa576040517f08c379a00000000000000000000000000000000000000000000000000000000081526004016106a190610c09565b60405180910390fd5b6106b4338261098b565b805f5f3373ffffffffffffffffffffffffffffffffffffffff1673ffffffffffffffffffffffffffffffffffffffff1681526020019081526020015f205f8282546106ff9190610c54565b9250508190555050565b805f5f3373ffffffffffffffffffffffffffffffffffffffff1673ffffffffffffffffffffffffffffffffffffffff1681526020019081526020015f20541015610788576040517f08c379a000000000000000000000000000000000000000000000000000000000815260040161077f90610c09565b60405180910390fd5b805f5f3373ffffffffffffffffffffffffffffffffffffffff1673ffffffffffffffffffffffffffffffffffffffff1681526020019081526020015f205f8282546107d39190610c54565b925050819055508060015f8282546107eb9190610c54565b925050819055503373ffffffffffffffffffffffffffffffffffffffff166108fc8290811502906040515f60405180830381858888f19350505050158015610835573d5f5f3e3d5ffd5b5050565b805f5f3373ffffffffffffffffffffffffffffffffffffffff1673ffffffffffffffffffffffffffffffffffffffff1681526020019081526020015f205410156108b8576040517f08c379a00000000000000000000000000000000000000000000000000000000081526004016108af90610c09565b60405180910390fd5b3373ffffffffffffffffffffffffffffffffffffffff16816040516108dc90610dac565b5f6040518083038185875af1925050503d805f8114610916576040519150601f19603f3d011682016040523d82523d5f602084013e61091b565b606091505b505050805f5f3373ffffffffffffffffffffffffffffffffffffffff1673ffffffffffffffffffffffffffffffffffffffff1681526020019081526020015f205f8282546109699190610c54565b925050819055508060015f8282546109819190610c54565b9250508190555050565b5f8273ffffffffffffffffffffffffffffffffffffffff16826040516109b090610dac565b5f6040518083038185875af1925050503d805f81146109ea576040519150601f19603f3d011682016040523d82523d5f602084013e6109ef565b606091505b5050905080610a33576040517f08c379a0000000000000000000000000000000000000000000000000000000008152600401610a2a90610e0a565b60405180910390fd5b505050565b5f5ffd5b5f819050919050565b610a4e81610a3c565b8114610a58575f5ffd5b50565b5f81359050610a6981610a45565b92915050565b5f60208284031215610a8457610a83610a38565b5b5f610a9184828501610a5b565b91505092915050565b5f73ffffffffffffffffffffffffffffffffffffffff82169050919050565b5f610ac382610a9a565b9050919050565b610ad381610ab9565b8114610add575f5ffd5b50565b5f81359050610aee81610aca565b92915050565b5f60208284031215610b0957610b08610a38565b5b5f610b1684828501610ae0565b91505092915050565b610b2881610a3c565b82525050565b5f602082019050610b415f830184610b1f565b92915050565b5f82825260208201905092915050565b7f5265656e7472616e742063616c6c20626c6f636b6564000000000000000000005f82015250565b5f610b8b601683610b47565b9150610b9682610b57565b602082019050919050565b5f6020820190508181035f830152610bb881610b7f565b9050919050565b7f496e73756666696369656e742062616c616e63650000000000000000000000005f82015250565b5f610bf3601483610b47565b9150610bfe82610bbf565b602082019050919050565b5f6020820190508181035f830152610c2081610be7565b9050919050565b7f4e487b71000000000000000000000000000000000000000000000000000000005f52601160045260245ffd5b5f610c5e82610a3c565b9150610c6983610a3c565b9250828203905081811115610c8157610c80610c27565b5b92915050565b7f4e487b71000000000000000000000000000000000000000000000000000000005f52601260045260245ffd5b5f610cbe82610a3c565b9150610cc983610a3c565b925082610cd957610cd8610c87565b5b828204905092915050565b5f610cee82610a3c565b9150610cf983610a3c565b9250828201905080821115610d1157610d10610c27565b5b92915050565b7f4e6f204554482073656e740000000000000000000000000000000000000000005f82015250565b5f610d4b600b83610b47565b9150610d5682610d17565b602082019050919050565b5f6020820190508181035f830152610d7881610d3f565b9050919050565b5f81905092915050565b50565b5f610d975f83610d7f565b9150610da282610d89565b5f82019050919050565b5f610db682610d8c565b9150819050919050565b7f546f6b656e207472616e73666572206661696c656400000000000000000000005f82015250565b5f610df4601583610b47565b9150610dff82610dc0565b602082019050919050565b5f6020820190508181035f830152610e2181610de8565b905091905056fea2646970667358221220c339307e3f5a6c6bec61ab576776133b1f9c6978d83ce091c357cea0454d721564736f6c63430008220033",
					"opcodes": "PUSH1 0x80 PUSH1 0x40 MSTORE CALLVALUE DUP1 ISZERO PUSH1 0xE JUMPI PUSH0 PUSH0 REVERT JUMPDEST POP PUSH2 0xE5E DUP1 PUSH2 0x1C PUSH0 CODECOPY PUSH0 RETURN INVALID PUSH1 0x80 PUSH1 0x40 MSTORE PUSH1 0x4 CALLDATASIZE LT PUSH2 0x90 JUMPI PUSH0 CALLDATALOAD PUSH1 0xE0 SHR DUP1 PUSH4 0x993FAEC5 GT PUSH2 0x58 JUMPI DUP1 PUSH4 0x993FAEC5 EQ PUSH2 0x166 JUMPI DUP1 PUSH4 0xAD7A672F EQ PUSH2 0x18E JUMPI DUP1 PUSH4 0xB0A03EB5 EQ PUSH2 0x1B8 JUMPI DUP1 PUSH4 0xB0FD035B EQ PUSH2 0x1E0 JUMPI DUP1 PUSH4 0xCC817673 EQ PUSH2 0x208 JUMPI PUSH2 0x90 JUMP JUMPDEST DUP1 PUSH4 0x6FBEF84 EQ PUSH2 0x94 JUMPI DUP1 PUSH4 0x700037D EQ PUSH2 0xBC JUMPI DUP1 PUSH4 0x27E235E3 EQ PUSH2 0xF8 JUMPI DUP1 PUSH4 0x596C4BB4 EQ PUSH2 0x134 JUMPI DUP1 PUSH4 0x6E47B938 EQ PUSH2 0x15C JUMPI JUMPDEST PUSH0 PUSH0 REVERT JUMPDEST CALLVALUE DUP1 ISZERO PUSH2 0x9F JUMPI PUSH0 PUSH0 REVERT JUMPDEST POP PUSH2 0xBA PUSH1 0x4 DUP1 CALLDATASIZE SUB DUP2 ADD SWAP1 PUSH2 0xB5 SWAP2 SWAP1 PUSH2 0xA6F JUMP JUMPDEST PUSH2 0x230 JUMP JUMPDEST STOP JUMPDEST CALLVALUE DUP1 ISZERO PUSH2 0xC7 JUMPI PUSH0 PUSH0 REVERT JUMPDEST POP PUSH2 0xE2 PUSH1 0x4 DUP1 CALLDATASIZE SUB DUP2 ADD SWAP1 PUSH2 0xDD SWAP2 SWAP1 PUSH2 0xAF4 JUMP JUMPDEST PUSH2 0x390 JUMP JUMPDEST PUSH1 0x40 MLOAD PUSH2 0xEF SWAP2 SWAP1 PUSH2 0xB2E JUMP JUMPDEST PUSH1 0x40 MLOAD DUP1 SWAP2 SUB SWAP1 RETURN JUMPDEST CALLVALUE DUP1 ISZERO PUSH2 0x103 JUMPI PUSH0 PUSH0 REVERT JUMPDEST POP PUSH2 0x11E PUSH1 0x4 DUP1 CALLDATASIZE SUB DUP2 ADD SWAP1 PUSH2 0x119 SWAP2 SWAP1 PUSH2 0xAF4 JUMP JUMPDEST PUSH2 0x3A5 JUMP JUMPDEST PUSH1 0x40 MLOAD PUSH2 0x12B SWAP2 SWAP1 PUSH2 0xB2E JUMP JUMPDEST PUSH1 0x40 MLOAD DUP1 SWAP2 SUB SWAP1 RETURN JUMPDEST CALLVALUE DUP1 ISZERO PUSH2 0x13F JUMPI PUSH0 PUSH0 REVERT JUMPDEST POP PUSH2 0x15A PUSH1 0x4 DUP1 CALLDATASIZE SUB DUP2 ADD SWAP1 PUSH2 0x155 SWAP2 SWAP1 PUSH2 0xA6F JUMP JUMPDEST PUSH2 0x3B9 JUMP JUMPDEST STOP JUMPDEST PUSH2 0x164 PUSH2 0x498 JUMP JUMPDEST STOP JUMPDEST CALLVALUE DUP1 ISZERO PUSH2 0x171 JUMPI PUSH0 PUSH0 REVERT JUMPDEST POP PUSH2 0x18C PUSH1 0x4 DUP1 CALLDATASIZE SUB DUP2 ADD SWAP1 PUSH2 0x187 SWAP2 SWAP1 PUSH2 0xA6F JUMP JUMPDEST PUSH2 0x546 JUMP JUMPDEST STOP JUMPDEST CALLVALUE DUP1 ISZERO PUSH2 0x199 JUMPI PUSH0 PUSH0 REVERT JUMPDEST POP PUSH2 0x1A2 PUSH2 0x625 JUMP JUMPDEST PUSH1 0x40 MLOAD PUSH2 0x1AF SWAP2 SWAP1 PUSH2 0xB2E JUMP JUMPDEST PUSH1 0x40 MLOAD DUP1 SWAP2 SUB SWAP1 RETURN JUMPDEST CALLVALUE DUP1 ISZERO PUSH2 0x1C3 JUMPI PUSH0 PUSH0 REVERT JUMPDEST POP PUSH2 0x1DE PUSH1 0x4 DUP1 CALLDATASIZE SUB DUP2 ADD SWAP1 PUSH2 0x1D9 SWAP2 SWAP1 PUSH2 0xA6F JUMP JUMPDEST PUSH2 0x62B JUMP JUMPDEST STOP JUMPDEST CALLVALUE DUP1 ISZERO PUSH2 0x1EB JUMPI PUSH0 PUSH0 REVERT JUMPDEST POP PUSH2 0x206 PUSH1 0x4 DUP1 CALLDATASIZE SUB DUP2 ADD SWAP1 PUSH2 0x201 SWAP2 SWAP1 PUSH2 0xA6F JUMP JUMPDEST PUSH2 0x709 JUMP JUMPDEST STOP JUMPDEST CALLVALUE DUP1 ISZERO PUSH2 0x213 JUMPI PUSH0 PUSH0 REVERT JUMPDEST POP PUSH2 0x22E PUSH1 0x4 DUP1 CALLDATASIZE SUB DUP2 ADD SWAP1 PUSH2 0x229 SWAP2 SWAP1 PUSH2 0xA6F JUMP JUMPDEST PUSH2 0x839 JUMP JUMPDEST STOP JUMPDEST PUSH1 0x2 PUSH0 SWAP1 SLOAD SWAP1 PUSH2 0x100 EXP SWAP1 DIV PUSH1 0xFF AND ISZERO PUSH2 0x27F JUMPI PUSH1 0x40 MLOAD PUSH32 0x8C379A000000000000000000000000000000000000000000000000000000000 DUP2 MSTORE PUSH1 0x4 ADD PUSH2 0x276 SWAP1 PUSH2 0xBA1 JUMP JUMPDEST PUSH1 0x40 MLOAD DUP1 SWAP2 SUB SWAP1 REVERT JUMPDEST PUSH1 0x1 PUSH1 0x2 PUSH0 PUSH2 0x100 EXP DUP2 SLOAD DUP2 PUSH1 0xFF MUL NOT AND SWAP1 DUP4 ISZERO ISZERO MUL OR SWAP1 SSTORE POP DUP1 PUSH0 PUSH0 CALLER PUSH20 0xFFFFFFFFFFFFFFFFFFFFFFFFFFFFFFFFFFFFFFFF AND PUSH20 0xFFFFFFFFFFFFFFFFFFFFFFFFFFFFFFFFFFFFFFFF AND DUP2 MSTORE PUSH1 0x20 ADD SWAP1 DUP2 MSTORE PUSH1 0x20 ADD PUSH0 KECCAK256 SLOAD LT ISZERO PUSH2 0x318 JUMPI PUSH1 0x40 MLOAD PUSH32 0x8C379A000000000000000000000000000000000000000000000000000000000 DUP2 MSTORE PUSH1 0x4 ADD PUSH2 0x30F SWAP1 PUSH2 0xC09 JUMP JUMPDEST PUSH1 0x40 MLOAD DUP1 SWAP2 SUB SWAP1 REVERT JUMPDEST DUP1 PUSH0 PUSH0 CALLER PUSH20 0xFFFFFFFFFFFFFFFFFFFFFFFFFFFFFFFFFFFFFFFF AND PUSH20 0xFFFFFFFFFFFFFFFFFFFFFFFFFFFFFFFFFFFFFFFF AND DUP2 MSTORE PUSH1 0x20 ADD SWAP1 DUP2 MSTORE PUSH1 0x20 ADD PUSH0 KECCAK256 PUSH0 DUP3 DUP3 SLOAD PUSH2 0x363 SWAP2 SWAP1 PUSH2 0xC54 JUMP JUMPDEST SWAP3 POP POP DUP2 SWAP1 SSTORE POP PUSH2 0x374 CALLER DUP3 PUSH2 0x98B JUMP JUMPDEST PUSH0 PUSH1 0x2 PUSH0 PUSH2 0x100 EXP DUP2 SLOAD DUP2 PUSH1 0xFF MUL NOT AND SWAP1 DUP4 ISZERO ISZERO MUL OR SWAP1 SSTORE POP POP JUMP JUMPDEST PUSH1 0x3 PUSH1 0x20 MSTORE DUP1 PUSH0 MSTORE PUSH1 0x40 PUSH0 KECCAK256 PUSH0 SWAP2 POP SWAP1 POP SLOAD DUP2 JUMP JUMPDEST PUSH0 PUSH1 0x20 MSTORE DUP1 PUSH0 MSTORE PUSH1 0x40 PUSH0 KECCAK256 PUSH0 SWAP2 POP SWAP1 POP SLOAD DUP2 JUMP JUMPDEST PUSH1 0xA PUSH0 PUSH0 CALLER PUSH20 0xFFFFFFFFFFFFFFFFFFFFFFFFFFFFFFFFFFFFFFFF AND PUSH20 0xFFFFFFFFFFFFFFFFFFFFFFFFFFFFFFFFFFFFFFFF AND DUP2 MSTORE PUSH1 0x20 ADD SWAP1 DUP2 MSTORE PUSH1 0x20 ADD PUSH0 KECCAK256 SLOAD PUSH2 0x402 SWAP2 SWAP1 PUSH2 0xCB4 JUMP JUMPDEST PUSH1 0x3 PUSH0 CALLER PUSH20 0xFFFFFFFFFFFFFFFFFFFFFFFFFFFFFFFFFFFFFFFF AND PUSH20 0xFFFFFFFFFFFFFFFFFFFFFFFFFFFFFFFFFFFFFFFF AND DUP2 MSTORE PUSH1 0x20 ADD SWAP1 DUP2 MSTORE PUSH1 0x20 ADD PUSH0 KECCAK256 DUP2 SWAP1 SSTORE POP DUP1 PUSH0 PUSH0 CALLER PUSH20 0xFFFFFFFFFFFFFFFFFFFFFFFFFFFFFFFFFFFFFFFF AND PUSH20 0xFFFFFFFFFFFFFFFFFFFFFFFFFFFFFFFFFFFFFFFF AND DUP2 MSTORE PUSH1 0x20 ADD SWAP1 DUP2 MSTORE PUSH1 0x20 ADD PUSH0 KECCAK256 PUSH0 DUP3 DUP3 SLOAD PUSH2 0x48E SWAP2 SWAP1 PUSH2 0xCE4 JUMP JUMPDEST SWAP3 POP POP DUP2 SWAP1 SSTORE POP POP JUMP JUMPDEST PUSH0 CALLVALUE GT PUSH2 0x4DA JUMPI PUSH1 0x40 MLOAD PUSH32 0x8C379A000000000000000000000000000000000000000000000000000000000 DUP2 MSTORE PUSH1 0x4 ADD PUSH2 0x4D1 SWAP1 PUSH2 0xD61 JUMP JUMPDEST PUSH1 0x40 MLOAD DUP1 SWAP2 SUB SWAP1 REVERT JUMPDEST CALLVALUE PUSH0 PUSH0 CALLER PUSH20 0xFFFFFFFFFFFFFFFFFFFFFFFFFFFFFFFFFFFFFFFF AND PUSH20 0xFFFFFFFFFFFFFFFFFFFFFFFFFFFFFFFFFFFFFFFF AND DUP2 MSTORE PUSH1 0x20 ADD SWAP1 DUP2 MSTORE PUSH1 0x20 ADD PUSH0 KECCAK256 PUSH0 DUP3 DUP3 SLOAD PUSH2 0x525 SWAP2 SWAP1 PUSH2 0xCE4 JUMP JUMPDEST SWAP3 POP POP DUP2 SWAP1 SSTORE POP CALLVALUE PUSH1 0x1 PUSH0 DUP3 DUP3 SLOAD PUSH2 0x53D SWAP2 SWAP1 PUSH2 0xCE4 JUMP JUMPDEST SWAP3 POP POP DUP2 SWAP1 SSTORE POP JUMP JUMPDEST DUP1 PUSH0 PUSH0 CALLER PUSH20 0xFFFFFFFFFFFFFFFFFFFFFFFFFFFFFFFFFFFFFFFF AND PUSH20 0xFFFFFFFFFFFFFFFFFFFFFFFFFFFFFFFFFFFFFFFF AND DUP2 MSTORE PUSH1 0x20 ADD SWAP1 DUP2 MSTORE PUSH1 0x20 ADD PUSH0 KECCAK256 PUSH0 DUP3 DUP3 SLOAD PUSH2 0x591 SWAP2 SWAP1 PUSH2 0xCE4 JUMP JUMPDEST SWAP3 POP POP DUP2 SWAP1 SSTORE POP PUSH1 0xA PUSH0 PUSH0 CALLER PUSH20 0xFFFFFFFFFFFFFFFFFFFFFFFFFFFFFFFFFFFFFFFF AND PUSH20 0xFFFFFFFFFFFFFFFFFFFFFFFFFFFFFFFFFFFFFFFF AND DUP2 MSTORE PUSH1 0x20 ADD SWAP1 DUP2 MSTORE PUSH1 0x20 ADD PUSH0 KECCAK256 SLOAD PUSH2 0x5E1 SWAP2 SWAP1 PUSH2 0xCB4 JUMP JUMPDEST PUSH1 0x3 PUSH0 CALLER PUSH20 0xFFFFFFFFFFFFFFFFFFFFFFFFFFFFFFFFFFFFFFFF AND PUSH20 0xFFFFFFFFFFFFFFFFFFFFFFFFFFFFFFFFFFFFFFFF AND DUP2 MSTORE PUSH1 0x20 ADD SWAP1 DUP2 MSTORE PUSH1 0x20 ADD PUSH0 KECCAK256 DUP2 SWAP1 SSTORE POP POP JUMP JUMPDEST PUSH1 0x1 SLOAD DUP2 JUMP JUMPDEST DUP1 PUSH0 PUSH0 CALLER PUSH20 0xFFFFFFFFFFFFFFFFFFFFFFFFFFFFFFFFFFFFFFFF AND PUSH20 0xFFFFFFFFFFFFFFFFFFFFFFFFFFFFFFFFFFFFFFFF AND DUP2 MSTORE PUSH1 0x20 ADD SWAP1 DUP2 MSTORE PUSH1 0x20 ADD PUSH0 KECCAK256 SLOAD LT ISZERO PUSH2 0x6AA JUMPI PUSH1 0x40 MLOAD PUSH32 0x8C379A000000000000000000000000000000000000000000000000000000000 DUP2 MSTORE PUSH1 0x4 ADD PUSH2 0x6A1 SWAP1 PUSH2 0xC09 JUMP JUMPDEST PUSH1 0x40 MLOAD DUP1 SWAP2 SUB SWAP1 REVERT JUMPDEST PUSH2 0x6B4 CALLER DUP3 PUSH2 0x98B JUMP JUMPDEST DUP1 PUSH0 PUSH0 CALLER PUSH20 0xFFFFFFFFFFFFFFFFFFFFFFFFFFFFFFFFFFFFFFFF AND PUSH20 0xFFFFFFFFFFFFFFFFFFFFFFFFFFFFFFFFFFFFFFFF AND DUP2 MSTORE PUSH1 0x20 ADD SWAP1 DUP2 MSTORE PUSH1 0x20 ADD PUSH0 KECCAK256 PUSH0 DUP3 DUP3 SLOAD PUSH2 0x6FF SWAP2 SWAP1 PUSH2 0xC54 JUMP JUMPDEST SWAP3 POP POP DUP2 SWAP1 SSTORE POP POP JUMP JUMPDEST DUP1 PUSH0 PUSH0 CALLER PUSH20 0xFFFFFFFFFFFFFFFFFFFFFFFFFFFFFFFFFFFFFFFF AND PUSH20 0xFFFFFFFFFFFFFFFFFFFFFFFFFFFFFFFFFFFFFFFF AND DUP2 MSTORE PUSH1 0x20 ADD SWAP1 DUP2 MSTORE PUSH1 0x20 ADD PUSH0 KECCAK256 SLOAD LT ISZERO PUSH2 0x788 JUMPI PUSH1 0x40 MLOAD PUSH32 0x8C379A000000000000000000000000000000000000000000000000000000000 DUP2 MSTORE PUSH1 0x4 ADD PUSH2 0x77F SWAP1 PUSH2 0xC09 JUMP JUMPDEST PUSH1 0x40 MLOAD DUP1 SWAP2 SUB SWAP1 REVERT JUMPDEST DUP1 PUSH0 PUSH0 CALLER PUSH20 0xFFFFFFFFFFFFFFFFFFFFFFFFFFFFFFFFFFFFFFFF AND PUSH20 0xFFFFFFFFFFFFFFFFFFFFFFFFFFFFFFFFFFFFFFFF AND DUP2 MSTORE PUSH1 0x20 ADD SWAP1 DUP2 MSTORE PUSH1 0x20 ADD PUSH0 KECCAK256 PUSH0 DUP3 DUP3 SLOAD PUSH2 0x7D3 SWAP2 SWAP1 PUSH2 0xC54 JUMP JUMPDEST SWAP3 POP POP DUP2 SWAP1 SSTORE POP DUP1 PUSH1 0x1 PUSH0 DUP3 DUP3 SLOAD PUSH2 0x7EB SWAP2 SWAP1 PUSH2 0xC54 JUMP JUMPDEST SWAP3 POP POP DUP2 SWAP1 SSTORE POP CALLER PUSH20 0xFFFFFFFFFFFFFFFFFFFFFFFFFFFFFFFFFFFFFFFF AND PUSH2 0x8FC DUP3 SWAP1 DUP2 ISZERO MUL SWAP1 PUSH1 0x40 MLOAD PUSH0 PUSH1 0x40 MLOAD DUP1 DUP4 SUB DUP2 DUP6 DUP9 DUP9 CALL SWAP4 POP POP POP POP ISZERO DUP1 ISZERO PUSH2 0x835 JUMPI RETURNDATASIZE PUSH0 PUSH0 RETURNDATACOPY RETURNDATASIZE PUSH0 REVERT JUMPDEST POP POP JUMP JUMPDEST DUP1 PUSH0 PUSH0 CALLER PUSH20 0xFFFFFFFFFFFFFFFFFFFFFFFFFFFFFFFFFFFFFFFF AND PUSH20 0xFFFFFFFFFFFFFFFFFFFFFFFFFFFFFFFFFFFFFFFF AND DUP2 MSTORE PUSH1 0x20 ADD SWAP1 DUP2 MSTORE PUSH1 0x20 ADD PUSH0 KECCAK256 SLOAD LT ISZERO PUSH2 0x8B8 JUMPI PUSH1 0x40 MLOAD PUSH32 0x8C379A000000000000000000000000000000000000000000000000000000000 DUP2 MSTORE PUSH1 0x4 ADD PUSH2 0x8AF SWAP1 PUSH2 0xC09 JUMP JUMPDEST PUSH1 0x40 MLOAD DUP1 SWAP2 SUB SWAP1 REVERT JUMPDEST CALLER PUSH20 0xFFFFFFFFFFFFFFFFFFFFFFFFFFFFFFFFFFFFFFFF AND DUP2 PUSH1 0x40 MLOAD PUSH2 0x8DC SWAP1 PUSH2 0xDAC JUMP JUMPDEST PUSH0 PUSH1 0x40 MLOAD DUP1 DUP4 SUB DUP2 DUP6 DUP8 GAS CALL SWAP3 POP POP POP RETURNDATASIZE DUP1 PUSH0 DUP2 EQ PUSH2 0x916 JUMPI PUSH1 0x40 MLOAD SWAP2 POP PUSH1 0x1F NOT PUSH1 0x3F RETURNDATASIZE ADD AND DUP3 ADD PUSH1 0x40 MSTORE RETURNDATASIZE DUP3 MSTORE RETURNDATASIZE PUSH0 PUSH1 0x20 DUP5 ADD RETURNDATACOPY PUSH2 0x91B JUMP JUMPDEST PUSH1 0x60 SWAP2 POP JUMPDEST POP POP POP DUP1 PUSH0 PUSH0 CALLER PUSH20 0xFFFFFFFFFFFFFFFFFFFFFFFFFFFFFFFFFFFFFFFF AND PUSH20 0xFFFFFFFFFFFFFFFFFFFFFFFFFFFFFFFFFFFFFFFF AND DUP2 MSTORE PUSH1 0x20 ADD SWAP1 DUP2 MSTORE PUSH1 0x20 ADD PUSH0 KECCAK256 PUSH0 DUP3 DUP3 SLOAD PUSH2 0x969 SWAP2 SWAP1 PUSH2 0xC54 JUMP JUMPDEST SWAP3 POP POP DUP2 SWAP1 SSTORE POP DUP1 PUSH1 0x1 PUSH0 DUP3 DUP3 SLOAD PUSH2 0x981 SWAP2 SWAP1 PUSH2 0xC54 JUMP JUMPDEST SWAP3 POP POP DUP2 SWAP1 SSTORE POP POP JUMP JUMPDEST PUSH0 DUP3 PUSH20 0xFFFFFFFFFFFFFFFFFFFFFFFFFFFFFFFFFFFFFFFF AND DUP3 PUSH1 0x40 MLOAD PUSH2 0x9B0 SWAP1 PUSH2 0xDAC JUMP JUMPDEST PUSH0 PUSH1 0x40 MLOAD DUP1 DUP4 SUB DUP2 DUP6 DUP8 GAS CALL SWAP3 POP POP POP RETURNDATASIZE DUP1 PUSH0 DUP2 EQ PUSH2 0x9EA JUMPI PUSH1 0x40 MLOAD SWAP2 POP PUSH1 0x1F NOT PUSH1 0x3F RETURNDATASIZE ADD AND DUP3 ADD PUSH1 0x40 MSTORE RETURNDATASIZE DUP3 MSTORE RETURNDATASIZE PUSH0 PUSH1 0x20 DUP5 ADD RETURNDATACOPY PUSH2 0x9EF JUMP JUMPDEST PUSH1 0x60 SWAP2 POP JUMPDEST POP POP SWAP1 POP DUP1 PUSH2 0xA33 JUMPI PUSH1 0x40 MLOAD PUSH32 0x8C379A000000000000000000000000000000000000000000000000000000000 DUP2 MSTORE PUSH1 0x4 ADD PUSH2 0xA2A SWAP1 PUSH2 0xE0A JUMP JUMPDEST PUSH1 0x40 MLOAD DUP1 SWAP2 SUB SWAP1 REVERT JUMPDEST POP POP POP JUMP JUMPDEST PUSH0 PUSH0 REVERT JUMPDEST PUSH0 DUP2 SWAP1 POP SWAP2 SWAP1 POP JUMP JUMPDEST PUSH2 0xA4E DUP2 PUSH2 0xA3C JUMP JUMPDEST DUP2 EQ PUSH2 0xA58 JUMPI PUSH0 PUSH0 REVERT JUMPDEST POP JUMP JUMPDEST PUSH0 DUP2 CALLDATALOAD SWAP1 POP PUSH2 0xA69 DUP2 PUSH2 0xA45 JUMP JUMPDEST SWAP3 SWAP2 POP POP JUMP JUMPDEST PUSH0 PUSH1 0x20 DUP3 DUP5 SUB SLT ISZERO PUSH2 0xA84 JUMPI PUSH2 0xA83 PUSH2 0xA38 JUMP JUMPDEST JUMPDEST PUSH0 PUSH2 0xA91 DUP5 DUP3 DUP6 ADD PUSH2 0xA5B JUMP JUMPDEST SWAP2 POP POP SWAP3 SWAP2 POP POP JUMP JUMPDEST PUSH0 PUSH20 0xFFFFFFFFFFFFFFFFFFFFFFFFFFFFFFFFFFFFFFFF DUP3 AND SWAP1 POP SWAP2 SWAP1 POP JUMP JUMPDEST PUSH0 PUSH2 0xAC3 DUP3 PUSH2 0xA9A JUMP JUMPDEST SWAP1 POP SWAP2 SWAP1 POP JUMP JUMPDEST PUSH2 0xAD3 DUP2 PUSH2 0xAB9 JUMP JUMPDEST DUP2 EQ PUSH2 0xADD JUMPI PUSH0 PUSH0 REVERT JUMPDEST POP JUMP JUMPDEST PUSH0 DUP2 CALLDATALOAD SWAP1 POP PUSH2 0xAEE DUP2 PUSH2 0xACA JUMP JUMPDEST SWAP3 SWAP2 POP POP JUMP JUMPDEST PUSH0 PUSH1 0x20 DUP3 DUP5 SUB SLT ISZERO PUSH2 0xB09 JUMPI PUSH2 0xB08 PUSH2 0xA38 JUMP JUMPDEST JUMPDEST PUSH0 PUSH2 0xB16 DUP5 DUP3 DUP6 ADD PUSH2 0xAE0 JUMP JUMPDEST SWAP2 POP POP SWAP3 SWAP2 POP POP JUMP JUMPDEST PUSH2 0xB28 DUP2 PUSH2 0xA3C JUMP JUMPDEST DUP3 MSTORE POP POP JUMP JUMPDEST PUSH0 PUSH1 0x20 DUP3 ADD SWAP1 POP PUSH2 0xB41 PUSH0 DUP4 ADD DUP5 PUSH2 0xB1F JUMP JUMPDEST SWAP3 SWAP2 POP POP JUMP JUMPDEST PUSH0 DUP3 DUP3 MSTORE PUSH1 0x20 DUP3 ADD SWAP1 POP SWAP3 SWAP2 POP POP JUMP JUMPDEST PUSH32 0x5265656E7472616E742063616C6C20626C6F636B656400000000000000000000 PUSH0 DUP3 ADD MSTORE POP JUMP JUMPDEST PUSH0 PUSH2 0xB8B PUSH1 0x16 DUP4 PUSH2 0xB47 JUMP JUMPDEST SWAP2 POP PUSH2 0xB96 DUP3 PUSH2 0xB57 JUMP JUMPDEST PUSH1 0x20 DUP3 ADD SWAP1 POP SWAP2 SWAP1 POP JUMP JUMPDEST PUSH0 PUSH1 0x20 DUP3 ADD SWAP1 POP DUP2 DUP2 SUB PUSH0 DUP4 ADD MSTORE PUSH2 0xBB8 DUP2 PUSH2 0xB7F JUMP JUMPDEST SWAP1 POP SWAP2 SWAP1 POP JUMP JUMPDEST PUSH32 0x496E73756666696369656E742062616C616E6365000000000000000000000000 PUSH0 DUP3 ADD MSTORE POP JUMP JUMPDEST PUSH0 PUSH2 0xBF3 PUSH1 0x14 DUP4 PUSH2 0xB47 JUMP JUMPDEST SWAP2 POP PUSH2 0xBFE DUP3 PUSH2 0xBBF JUMP JUMPDEST PUSH1 0x20 DUP3 ADD SWAP1 POP SWAP2 SWAP1 POP JUMP JUMPDEST PUSH0 PUSH1 0x20 DUP3 ADD SWAP1 POP DUP2 DUP2 SUB PUSH0 DUP4 ADD MSTORE PUSH2 0xC20 DUP2 PUSH2 0xBE7 JUMP JUMPDEST SWAP1 POP SWAP2 SWAP1 POP JUMP JUMPDEST PUSH32 0x4E487B7100000000000000000000000000000000000000000000000000000000 PUSH0 MSTORE PUSH1 0x11 PUSH1 0x4 MSTORE PUSH1 0x24 PUSH0 REVERT JUMPDEST PUSH0 PUSH2 0xC5E DUP3 PUSH2 0xA3C JUMP JUMPDEST SWAP2 POP PUSH2 0xC69 DUP4 PUSH2 0xA3C JUMP JUMPDEST SWAP3 POP DUP3 DUP3 SUB SWAP1 POP DUP2 DUP2 GT ISZERO PUSH2 0xC81 JUMPI PUSH2 0xC80 PUSH2 0xC27 JUMP JUMPDEST JUMPDEST SWAP3 SWAP2 POP POP JUMP JUMPDEST PUSH32 0x4E487B7100000000000000000000000000000000000000000000000000000000 PUSH0 MSTORE PUSH1 0x12 PUSH1 0x4 MSTORE PUSH1 0x24 PUSH0 REVERT JUMPDEST PUSH0 PUSH2 0xCBE DUP3 PUSH2 0xA3C JUMP JUMPDEST SWAP2 POP PUSH2 0xCC9 DUP4 PUSH2 0xA3C JUMP JUMPDEST SWAP3 POP DUP3 PUSH2 0xCD9 JUMPI PUSH2 0xCD8 PUSH2 0xC87 JUMP JUMPDEST JUMPDEST DUP3 DUP3 DIV SWAP1 POP SWAP3 SWAP2 POP POP JUMP JUMPDEST PUSH0 PUSH2 0xCEE DUP3 PUSH2 0xA3C JUMP JUMPDEST SWAP2 POP PUSH2 0xCF9 DUP4 PUSH2 0xA3C JUMP JUMPDEST SWAP3 POP DUP3 DUP3 ADD SWAP1 POP DUP1 DUP3 GT ISZERO PUSH2 0xD11 JUMPI PUSH2 0xD10 PUSH2 0xC27 JUMP JUMPDEST JUMPDEST SWAP3 SWAP2 POP POP JUMP JUMPDEST PUSH32 0x4E6F204554482073656E74000000000000000000000000000000000000000000 PUSH0 DUP3 ADD MSTORE POP JUMP JUMPDEST PUSH0 PUSH2 0xD4B PUSH1 0xB DUP4 PUSH2 0xB47 JUMP JUMPDEST SWAP2 POP PUSH2 0xD56 DUP3 PUSH2 0xD17 JUMP JUMPDEST PUSH1 0x20 DUP3 ADD SWAP1 POP SWAP2 SWAP1 POP JUMP JUMPDEST PUSH0 PUSH1 0x20 DUP3 ADD SWAP1 POP DUP2 DUP2 SUB PUSH0 DUP4 ADD MSTORE PUSH2 0xD78 DUP2 PUSH2 0xD3F JUMP JUMPDEST SWAP1 POP SWAP2 SWAP1 POP JUMP JUMPDEST PUSH0 DUP2 SWAP1 POP SWAP3 SWAP2 POP POP JUMP JUMPDEST POP JUMP JUMPDEST PUSH0 PUSH2 0xD97 PUSH0 DUP4 PUSH2 0xD7F JUMP JUMPDEST SWAP2 POP PUSH2 0xDA2 DUP3 PUSH2 0xD89 JUMP JUMPDEST PUSH0 DUP3 ADD SWAP1 POP SWAP2 SWAP1 POP JUMP JUMPDEST PUSH0 PUSH2 0xDB6 DUP3 PUSH2 0xD8C JUMP JUMPDEST SWAP2 POP DUP2 SWAP1 POP SWAP2 SWAP1 POP JUMP JUMPDEST PUSH32 0x546F6B656E207472616E73666572206661696C65640000000000000000000000 PUSH0 DUP3 ADD MSTORE POP JUMP JUMPDEST PUSH0 PUSH2 0xDF4 PUSH1 0x15 DUP4 PUSH2 0xB47 JUMP JUMPDEST SWAP2 POP PUSH2 0xDFF DUP3 PUSH2 0xDC0 JUMP JUMPDEST PUSH1 0x20 DUP3 ADD SWAP1 POP SWAP2 SWAP1 POP JUMP JUMPDEST PUSH0 PUSH1 0x20 DUP3 ADD SWAP1 POP DUP2 DUP2 SUB PUSH0 DUP4 ADD MSTORE PUSH2 0xE21 DUP2 PUSH2 0xDE8 JUMP JUMPDEST SWAP1 POP SWAP2 SWAP1 POP JUMP INVALID LOG2 PUSH5 0x6970667358 0x22 SLT KECCAK256 0xC3 CODECOPY ADDRESS PUSH31 0x3F5A6C6BEC61AB576776133B1F9C6978D83CE091C357CEA0454D721564736F PUSH13 0x63430008220033000000000000 "
				},
				"gasEstimates": {
					"creation": {
						"codeDepositCost": "735600",
						"executionCost": "764",
						"totalCost": "736364"
					},
					"external": {
						"badRewardUpdate(uint256)": "infinite",
						"balances(address)": "2846",
						"rewards(address)": "2825",
						"safeDeposit()": "infinite",
						"safeRewardUpdate(uint256)": "infinite",
						"safeTokenWithdraw(uint256)": "infinite",
						"safeWithdraw(uint256)": "infinite",
						"totalBalance()": "2447",
						"vulnerableTokenWithdraw(uint256)": "infinite",
						"vulnerableWithdraw(uint256)": "infinite"
					},
					"internal": {
						"tokenTransfer(address,uint256)": "infinite"
					}
				},
				"methodIdentifiers": {
					"badRewardUpdate(uint256)": "596c4bb4",
					"balances(address)": "27e235e3",
					"rewards(address)": "0700037d",
					"safeDeposit()": "6e47b938",
					"safeRewardUpdate(uint256)": "993faec5",
					"safeTokenWithdraw(uint256)": "06fbef84",
					"safeWithdraw(uint256)": "b0fd035b",
					"totalBalance()": "ad7a672f",
					"vulnerableTokenWithdraw(uint256)": "b0a03eb5",
					"vulnerableWithdraw(uint256)": "cc817673"
				}
			},
			"storageLayout": {
				"storage": [
					{
						"astId": 165,
						"contract": "val49.sol:ReorderLogicVulnerability",
						"label": "balances",
						"offset": 0,
						"slot": "0",
						"type": "t_mapping(t_address,t_uint256)"
					},
					{
						"astId": 167,
						"contract": "val49.sol:ReorderLogicVulnerability",
						"label": "totalBalance",
						"offset": 0,
						"slot": "1",
						"type": "t_uint256"
					},
					{
						"astId": 169,
						"contract": "val49.sol:ReorderLogicVulnerability",
						"label": "locked",
						"offset": 0,
						"slot": "2",
						"type": "t_bool"
					},
					{
						"astId": 290,
						"contract": "val49.sol:ReorderLogicVulnerability",
						"label": "rewards",
						"offset": 0,
						"slot": "3",
						"type": "t_mapping(t_address,t_uint256)"
					}
				],
				"types": {
					"t_address": {
						"encoding": "inplace",
						"label": "address",
						"numberOfBytes": "20"
					},
					"t_bool": {
						"encoding": "inplace",
						"label": "bool",
						"numberOfBytes": "1"
					},
					"t_mapping(t_address,t_uint256)": {
						"encoding": "mapping",
						"key": "t_address",
						"label": "mapping(address => uint256)",
						"numberOfBytes": "32",
						"value": "t_uint256"
					},
					"t_uint256": {
						"encoding": "inplace",
						"label": "uint256",
						"numberOfBytes": "32"
					}
				}
			},
			"userdoc": {
				"kind": "user",
				"methods": {},
				"version": 1
			}
		}
	}
}