{
	"val18.sol": {
		"MemoryArray": {
			"abi": [
				{
					"inputs": [
						{
							"internalType": "uint256",
							"name": "_number",
							"type": "uint256"
						}
					],
					"name": "calculateSquares",
					"outputs": [
						{
							"internalType": "uint256[]",
							"name": "",
							"type": "uint256[]"
						}
					],
					"stateMutability": "pure",
					"type": "function"
				},
				{
					"inputs": [],
					"name": "createMemoryArray",
					"outputs": [
						{
							"internalType": "uint256[]",
							"name": "",
							"type": "uint256[]"
						}
					],
					"stateMutability": "pure",
					"type": "function"
				},
				{
					"inputs": [
						{
							"internalType": "uint256",
							"name": "_number",
							"type": "uint256"
						}
					],
					"name": "multiplyValues",
					"outputs": [
						{
							"internalType": "uint256[]",
							"name": "",
							"type": "uint256[]"
						}
					],
					"stateMutability": "pure",
					"type": "function"
				},
				{
					"inputs": [
						{
							"internalType": "uint256",
							"name": "_value",
							"type": "uint256"
						}
					],
					"name": "storeValue",
					"outputs": [],
					"stateMutability": "nonpayable",
					"type": "function"
				},
				{
					"inputs": [
						{
							"internalType": "uint256",
							"name": "",
							"type": "uint256"
						}
					],
					"name": "storedNumbers",
					"outputs": [
						{
							"internalType": "uint256",
							"name": "",
							"type": "uint256"
						}
					],
					"stateMutability": "view",
					"type": "function"
				}
			],
			"devdoc": {
				"kind": "dev",
				"methods": {},
				"version": 1
			},
			"evm": {
				"assembly": "    /* \"val18.sol\":9559:11181  contract MemoryArray ... */\n  mstore(0x40, 0x80)\n  callvalue\n  dup1\n  iszero\n  tag_1\n  jumpi\n  revert(0x00, 0x00)\ntag_1:\n  pop\n  dataSize(sub_0)\n  dup1\n  dataOffset(sub_0)\n  0x00\n  codecopy\n  0x00\n  return\nstop\n\nsub_0: assembly {\n        /* \"val18.sol\":9559:11181  contract MemoryArray ... */\n      mstore(0x40, 0x80)\n      callvalue\n      dup1\n      iszero\n      tag_1\n      jumpi\n      revert(0x00, 0x00)\n    tag_1:\n      pop\n      jumpi(tag_2, lt(calldatasize, 0x04))\n      shr(0xe0, calldataload(0x00))\n      dup1\n      0x3b1f0cd0\n      eq\n      tag_3\n      jumpi\n      dup1\n      0x7221a26a\n      eq\n      tag_4\n      jumpi\n      dup1\n      0xc59083f5\n      eq\n      tag_5\n      jumpi\n      dup1\n      0xd03e67f4\n      eq\n      tag_6\n      jumpi\n      dup1\n      0xf0569df3\n      eq\n      tag_7\n      jumpi\n    tag_2:\n      revert(0x00, 0x00)\n        /* \"val18.sol\":9591:9621  uint256[] public storedNumbers */\n    tag_3:\n      tag_8\n      0x04\n      dup1\n      calldatasize\n      sub\n      dup2\n      add\n      swap1\n      tag_9\n      swap2\n      swap1\n      tag_10\n      jump\t// in\n    tag_9:\n      tag_11\n      jump\t// in\n    tag_8:\n      mload(0x40)\n      tag_12\n      swap2\n      swap1\n      tag_13\n      jump\t// in\n    tag_12:\n      mload(0x40)\n      dup1\n      swap2\n      sub\n      swap1\n      return\n        /* \"val18.sol\":10995:11178  function storeValue(uint256 _value) public {... */\n    tag_4:\n      tag_14\n      0x04\n      dup1\n      calldatasize\n      sub\n      dup2\n      add\n      swap1\n      tag_15\n      swap2\n      swap1\n      tag_10\n      jump\t// in\n    tag_15:\n      tag_16\n      jump\t// in\n    tag_14:\n      stop\n        /* \"val18.sol\":9630:10223  function createMemoryArray()... */\n    tag_5:\n      tag_17\n      tag_18\n      jump\t// in\n    tag_17:\n      mload(0x40)\n      tag_19\n      swap2\n      swap1\n      tag_20\n      jump\t// in\n    tag_19:\n      mload(0x40)\n      dup1\n      swap2\n      sub\n      swap1\n      return\n        /* \"val18.sol\":10694:10987  function multiplyValues(uint256 _number) public pure returns (uint256[] memory)... */\n    tag_6:\n      tag_21\n      0x04\n      dup1\n      calldatasize\n      sub\n      dup2\n      add\n      swap1\n      tag_22\n      swap2\n      swap1\n      tag_10\n      jump\t// in\n    tag_22:\n      tag_23\n      jump\t// in\n    tag_21:\n      mload(0x40)\n      tag_24\n      swap2\n      swap1\n      tag_20\n      jump\t// in\n    tag_24:\n      mload(0x40)\n      dup1\n      swap2\n      sub\n      swap1\n      return\n        /* \"val18.sol\":10231:10686  function calculateSquares(uint256 _number)... */\n    tag_7:\n      tag_25\n      0x04\n      dup1\n      calldatasize\n      sub\n      dup2\n      add\n      swap1\n      tag_26\n      swap2\n      swap1\n      tag_10\n      jump\t// in\n    tag_26:\n      tag_27\n      jump\t// in\n    tag_25:\n      mload(0x40)\n      tag_28\n      swap2\n      swap1\n      tag_20\n      jump\t// in\n    tag_28:\n      mload(0x40)\n      dup1\n      swap2\n      sub\n      swap1\n      return\n        /* \"val18.sol\":9591:9621  uint256[] public storedNumbers */\n    tag_11:\n      0x00\n      dup2\n      dup2\n      sload\n      dup2\n      lt\n      tag_29\n      jumpi\n      0x00\n      dup1\n      revert\n    tag_29:\n      swap1\n      0x00\n      mstore\n      keccak256(0x00, 0x20)\n      add\n      0x00\n      swap2\n      pop\n      swap1\n      pop\n      sload\n      dup2\n      jump\t// out\n        /* \"val18.sol\":10995:11178  function storeValue(uint256 _value) public {... */\n    tag_16:\n        /* \"val18.sol\":11144:11157  storedNumbers */\n      0x00\n        /* \"val18.sol\":11163:11169  _value */\n      dup2\n        /* \"val18.sol\":11144:11170  storedNumbers.push(_value) */\n      swap1\n      dup1\n      0x01\n      dup2\n      sload\n      add\n      dup1\n      dup3\n      sstore\n      dup1\n      swap2\n      pop\n      pop\n      0x01\n      swap1\n      sub\n      swap1\n      0x00\n      mstore\n      keccak256(0x00, 0x20)\n      add\n      0x00\n      swap1\n      swap2\n      swap1\n      swap2\n      swap1\n      swap2\n      pop\n      sstore\n        /* \"val18.sol\":10995:11178  function storeValue(uint256 _value) public {... */\n      pop\n      jump\t// out\n        /* \"val18.sol\":9630:10223  function createMemoryArray()... */\n    tag_18:\n        /* \"val18.sol\":9707:9723  uint256[] memory */\n      0x60\n        /* \"val18.sol\":9914:9940  uint256[] memory tempArray */\n      0x00\n        /* \"val18.sol\":9957:9958  3 */\n      0x03\n        /* \"val18.sol\":9943:9959  new uint256[](3) */\n      0xffffffffffffffff\n      dup2\n      gt\n      iszero\n      tag_34\n      jumpi\n      tag_35\n      tag_36\n      jump\t// in\n    tag_35:\n    tag_34:\n      mload(0x40)\n      swap1\n      dup1\n      dup3\n      mstore\n      dup1\n      0x20\n      mul\n      0x20\n      add\n      dup3\n      add\n      0x40\n      mstore\n      dup1\n      iszero\n      tag_37\n      jumpi\n      dup2\n      0x20\n      add\n      0x20\n      dup3\n      mul\n      dup1\n      calldatasize\n      dup4\n      calldatacopy\n      dup1\n      dup3\n      add\n      swap2\n      pop\n      pop\n      swap1\n      pop\n    tag_37:\n      pop\n        /* \"val18.sol\":9914:9959  uint256[] memory tempArray = new uint256[](3) */\n      swap1\n      pop\n        /* \"val18.sol\":10057:10059  10 */\n      0x0a\n        /* \"val18.sol\":10042:10051  tempArray */\n      dup2\n        /* \"val18.sol\":10052:10053  0 */\n      0x00\n        /* \"val18.sol\":10042:10054  tempArray[0] */\n      dup2\n      mload\n      dup2\n      lt\n      tag_38\n      jumpi\n      tag_39\n      tag_40\n      jump\t// in\n    tag_39:\n    tag_38:\n      0x20\n      mul\n      0x20\n      add\n      add\n        /* \"val18.sol\":10042:10059  tempArray[0] = 10 */\n      dup2\n      dup2\n      mstore\n      pop\n      pop\n        /* \"val18.sol\":10087:10089  20 */\n      0x14\n        /* \"val18.sol\":10072:10081  tempArray */\n      dup2\n        /* \"val18.sol\":10082:10083  1 */\n      0x01\n        /* \"val18.sol\":10072:10084  tempArray[1] */\n      dup2\n      mload\n      dup2\n      lt\n      tag_41\n      jumpi\n      tag_42\n      tag_40\n      jump\t// in\n    tag_42:\n    tag_41:\n      0x20\n      mul\n      0x20\n      add\n      add\n        /* \"val18.sol\":10072:10089  tempArray[1] = 20 */\n      dup2\n      dup2\n      mstore\n      pop\n      pop\n        /* \"val18.sol\":10117:10119  30 */\n      0x1e\n        /* \"val18.sol\":10102:10111  tempArray */\n      dup2\n        /* \"val18.sol\":10112:10113  2 */\n      0x02\n        /* \"val18.sol\":10102:10114  tempArray[2] */\n      dup2\n      mload\n      dup2\n      lt\n      tag_43\n      jumpi\n      tag_44\n      tag_40\n      jump\t// in\n    tag_44:\n    tag_43:\n      0x20\n      mul\n      0x20\n      add\n      add\n        /* \"val18.sol\":10102:10119  tempArray[2] = 30 */\n      dup2\n      dup2\n      mstore\n      pop\n      pop\n        /* \"val18.sol\":10206:10215  tempArray */\n      dup1\n        /* \"val18.sol\":10199:10215  return tempArray */\n      swap2\n      pop\n      pop\n        /* \"val18.sol\":9630:10223  function createMemoryArray()... */\n      swap1\n      jump\t// out\n        /* \"val18.sol\":10694:10987  function multiplyValues(uint256 _number) public pure returns (uint256[] memory)... */\n    tag_23:\n        /* \"val18.sol\":10756:10772  uint256[] memory */\n      0x60\n        /* \"val18.sol\":10790:10817  uint256[] memory multiplied */\n      0x00\n        /* \"val18.sol\":10834:10835  5 */\n      0x05\n        /* \"val18.sol\":10820:10836  new uint256[](5) */\n      0xffffffffffffffff\n      dup2\n      gt\n      iszero\n      tag_46\n      jumpi\n      tag_47\n      tag_36\n      jump\t// in\n    tag_47:\n    tag_46:\n      mload(0x40)\n      swap1\n      dup1\n      dup3\n      mstore\n      dup1\n      0x20\n      mul\n      0x20\n      add\n      dup3\n      add\n      0x40\n      mstore\n      dup1\n      iszero\n      tag_48\n      jumpi\n      dup2\n      0x20\n      add\n      0x20\n      dup3\n      mul\n      dup1\n      calldatasize\n      dup4\n      calldatacopy\n      dup1\n      dup3\n      add\n      swap2\n      pop\n      pop\n      swap1\n      pop\n    tag_48:\n      pop\n        /* \"val18.sol\":10790:10836  uint256[] memory multiplied = new uint256[](5) */\n      swap1\n      pop\n        /* \"val18.sol\":10854:10863  uint256 i */\n      0x00\n        /* \"val18.sol\":10866:10867  0 */\n      0x00\n        /* \"val18.sol\":10854:10867  uint256 i = 0 */\n      swap1\n      pop\n        /* \"val18.sol\":10849:10950  for (uint256 i = 0; i < 5; i++)... */\n    tag_49:\n        /* \"val18.sol\":10873:10874  5 */\n      0x05\n        /* \"val18.sol\":10869:10870  i */\n      dup2\n        /* \"val18.sol\":10869:10874  i < 5 */\n      lt\n        /* \"val18.sol\":10849:10950  for (uint256 i = 0; i < 5; i++)... */\n      iszero\n      tag_50\n      jumpi\n        /* \"val18.sol\":10936:10937  1 */\n      0x01\n        /* \"val18.sol\":10932:10933  i */\n      dup2\n        /* \"val18.sol\":10932:10937  i + 1 */\n      tag_52\n      swap2\n      swap1\n      tag_53\n      jump\t// in\n    tag_52:\n        /* \"val18.sol\":10921:10928  _number */\n      dup5\n        /* \"val18.sol\":10921:10938  _number * (i + 1) */\n      tag_54\n      swap2\n      swap1\n      tag_55\n      jump\t// in\n    tag_54:\n        /* \"val18.sol\":10905:10915  multiplied */\n      dup3\n        /* \"val18.sol\":10916:10917  i */\n      dup3\n        /* \"val18.sol\":10905:10918  multiplied[i] */\n      dup2\n      mload\n      dup2\n      lt\n      tag_56\n      jumpi\n      tag_57\n      tag_40\n      jump\t// in\n    tag_57:\n    tag_56:\n      0x20\n      mul\n      0x20\n      add\n      add\n        /* \"val18.sol\":10905:10938  multiplied[i] = _number * (i + 1) */\n      dup2\n      dup2\n      mstore\n      pop\n      pop\n        /* \"val18.sol\":10876:10879  i++ */\n      dup1\n      dup1\n      0x01\n      add\n      swap2\n      pop\n      pop\n        /* \"val18.sol\":10849:10950  for (uint256 i = 0; i < 5; i++)... */\n      jump(tag_49)\n    tag_50:\n      pop\n        /* \"val18.sol\":10969:10979  multiplied */\n      dup1\n        /* \"val18.sol\":10962:10979  return multiplied */\n      swap2\n      pop\n      pop\n        /* \"val18.sol\":10694:10987  function multiplyValues(uint256 _number) public pure returns (uint256[] memory)... */\n      swap2\n      swap1\n      pop\n      jump\t// out\n        /* \"val18.sol\":10231:10686  function calculateSquares(uint256 _number)... */\n    tag_27:\n        /* \"val18.sol\":10322:10338  uint256[] memory */\n      0x60\n        /* \"val18.sol\":10418:10442  uint256[] memory squares */\n      0x00\n        /* \"val18.sol\":10459:10460  3 */\n      0x03\n        /* \"val18.sol\":10445:10461  new uint256[](3) */\n      0xffffffffffffffff\n      dup2\n      gt\n      iszero\n      tag_59\n      jumpi\n      tag_60\n      tag_36\n      jump\t// in\n    tag_60:\n    tag_59:\n      mload(0x40)\n      swap1\n      dup1\n      dup3\n      mstore\n      dup1\n      0x20\n      mul\n      0x20\n      add\n      dup3\n      add\n      0x40\n      mstore\n      dup1\n      iszero\n      tag_61\n      jumpi\n      dup2\n      0x20\n      add\n      0x20\n      dup3\n      mul\n      dup1\n      calldatasize\n      dup4\n      calldatacopy\n      dup1\n      dup3\n      add\n      swap2\n      pop\n      pop\n      swap1\n      pop\n    tag_61:\n      pop\n        /* \"val18.sol\":10418:10461  uint256[] memory squares = new uint256[](3) */\n      swap1\n      pop\n        /* \"val18.sol\":10548:10555  _number */\n      dup3\n        /* \"val18.sol\":10535:10542  squares */\n      dup2\n        /* \"val18.sol\":10543:10544  0 */\n      0x00\n        /* \"val18.sol\":10535:10545  squares[0] */\n      dup2\n      mload\n      dup2\n      lt\n      tag_62\n      jumpi\n      tag_63\n      tag_40\n      jump\t// in\n    tag_63:\n    tag_62:\n      0x20\n      mul\n      0x20\n      add\n      add\n        /* \"val18.sol\":10535:10555  squares[0] = _number */\n      dup2\n      dup2\n      mstore\n      pop\n      pop\n        /* \"val18.sol\":10591:10598  _number */\n      dup3\n        /* \"val18.sol\":10581:10588  _number */\n      dup4\n        /* \"val18.sol\":10581:10598  _number * _number */\n      tag_64\n      swap2\n      swap1\n      tag_55\n      jump\t// in\n    tag_64:\n        /* \"val18.sol\":10568:10575  squares */\n      dup2\n        /* \"val18.sol\":10576:10577  1 */\n      0x01\n        /* \"val18.sol\":10568:10578  squares[1] */\n      dup2\n      mload\n      dup2\n      lt\n      tag_65\n      jumpi\n      tag_66\n      tag_40\n      jump\t// in\n    tag_66:\n    tag_65:\n      0x20\n      mul\n      0x20\n      add\n      add\n        /* \"val18.sol\":10568:10598  squares[1] = _number * _number */\n      dup2\n      dup2\n      mstore\n      pop\n      pop\n        /* \"val18.sol\":10644:10651  _number */\n      dup3\n        /* \"val18.sol\":10634:10641  _number */\n      dup4\n        /* \"val18.sol\":10624:10631  _number */\n      dup5\n        /* \"val18.sol\":10624:10641  _number * _number */\n      tag_67\n      swap2\n      swap1\n      tag_55\n      jump\t// in\n    tag_67:\n        /* \"val18.sol\":10624:10651  _number * _number * _number */\n      tag_68\n      swap2\n      swap1\n      tag_55\n      jump\t// in\n    tag_68:\n        /* \"val18.sol\":10611:10618  squares */\n      dup2\n        /* \"val18.sol\":10619:10620  2 */\n      0x02\n        /* \"val18.sol\":10611:10621  squares[2] */\n      dup2\n      mload\n      dup2\n      lt\n      tag_69\n      jumpi\n      tag_70\n      tag_40\n      jump\t// in\n    tag_70:\n    tag_69:\n      0x20\n      mul\n      0x20\n      add\n      add\n        /* \"val18.sol\":10611:10651  squares[2] = _number * _number * _number */\n      dup2\n      dup2\n      mstore\n      pop\n      pop\n        /* \"val18.sol\":10671:10678  squares */\n      dup1\n        /* \"val18.sol\":10664:10678  return squares */\n      swap2\n      pop\n      pop\n        /* \"val18.sol\":10231:10686  function calculateSquares(uint256 _number)... */\n      swap2\n      swap1\n      pop\n      jump\t// out\n        /* \"#utility.yul\":88:205   */\n    tag_72:\n        /* \"#utility.yul\":197:198   */\n      0x00\n        /* \"#utility.yul\":194:195   */\n      0x00\n        /* \"#utility.yul\":187:199   */\n      revert\n        /* \"#utility.yul\":334:411   */\n    tag_74:\n        /* \"#utility.yul\":371:378   */\n      0x00\n        /* \"#utility.yul\":400:405   */\n      dup2\n        /* \"#utility.yul\":389:405   */\n      swap1\n      pop\n        /* \"#utility.yul\":334:411   */\n      swap2\n      swap1\n      pop\n      jump\t// out\n        /* \"#utility.yul\":417:539   */\n    tag_75:\n        /* \"#utility.yul\":490:514   */\n      tag_92\n        /* \"#utility.yul\":508:513   */\n      dup2\n        /* \"#utility.yul\":490:514   */\n      tag_74\n      jump\t// in\n    tag_92:\n        /* \"#utility.yul\":483:488   */\n      dup2\n        /* \"#utility.yul\":480:515   */\n      eq\n        /* \"#utility.yul\":470:533   */\n      tag_93\n      jumpi\n        /* \"#utility.yul\":529:530   */\n      0x00\n        /* \"#utility.yul\":526:527   */\n      0x00\n        /* \"#utility.yul\":519:531   */\n      revert\n        /* \"#utility.yul\":470:533   */\n    tag_93:\n        /* \"#utility.yul\":417:539   */\n      pop\n      jump\t// out\n        /* \"#utility.yul\":545:684   */\n    tag_76:\n        /* \"#utility.yul\":591:596   */\n      0x00\n        /* \"#utility.yul\":629:635   */\n      dup2\n        /* \"#utility.yul\":616:636   */\n      calldataload\n        /* \"#utility.yul\":607:636   */\n      swap1\n      pop\n        /* \"#utility.yul\":645:678   */\n      tag_95\n        /* \"#utility.yul\":672:677   */\n      dup2\n        /* \"#utility.yul\":645:678   */\n      tag_75\n      jump\t// in\n    tag_95:\n        /* \"#utility.yul\":545:684   */\n      swap3\n      swap2\n      pop\n      pop\n      jump\t// out\n        /* \"#utility.yul\":690:1019   */\n    tag_10:\n        /* \"#utility.yul\":749:755   */\n      0x00\n        /* \"#utility.yul\":798:800   */\n      0x20\n        /* \"#utility.yul\":786:795   */\n      dup3\n        /* \"#utility.yul\":777:784   */\n      dup5\n        /* \"#utility.yul\":773:796   */\n      sub\n        /* \"#utility.yul\":769:801   */\n      slt\n        /* \"#utility.yul\":766:885   */\n      iszero\n      tag_97\n      jumpi\n        /* \"#utility.yul\":804:883   */\n      tag_98\n      tag_72\n      jump\t// in\n    tag_98:\n        /* \"#utility.yul\":766:885   */\n    tag_97:\n        /* \"#utility.yul\":924:925   */\n      0x00\n        /* \"#utility.yul\":949:1002   */\n      tag_99\n        /* \"#utility.yul\":994:1001   */\n      dup5\n        /* \"#utility.yul\":985:991   */\n      dup3\n        /* \"#utility.yul\":974:983   */\n      dup6\n        /* \"#utility.yul\":970:992   */\n      add\n        /* \"#utility.yul\":949:1002   */\n      tag_76\n      jump\t// in\n    tag_99:\n        /* \"#utility.yul\":939:1002   */\n      swap2\n      pop\n        /* \"#utility.yul\":895:1012   */\n      pop\n        /* \"#utility.yul\":690:1019   */\n      swap3\n      swap2\n      pop\n      pop\n      jump\t// out\n        /* \"#utility.yul\":1025:1143   */\n    tag_77:\n        /* \"#utility.yul\":1112:1136   */\n      tag_101\n        /* \"#utility.yul\":1130:1135   */\n      dup2\n        /* \"#utility.yul\":1112:1136   */\n      tag_74\n      jump\t// in\n    tag_101:\n        /* \"#utility.yul\":1107:1110   */\n      dup3\n        /* \"#utility.yul\":1100:1137   */\n      mstore\n        /* \"#utility.yul\":1025:1143   */\n      pop\n      pop\n      jump\t// out\n        /* \"#utility.yul\":1149:1371   */\n    tag_13:\n        /* \"#utility.yul\":1242:1246   */\n      0x00\n        /* \"#utility.yul\":1280:1282   */\n      0x20\n        /* \"#utility.yul\":1269:1278   */\n      dup3\n        /* \"#utility.yul\":1265:1283   */\n      add\n        /* \"#utility.yul\":1257:1283   */\n      swap1\n      pop\n        /* \"#utility.yul\":1293:1364   */\n      tag_103\n        /* \"#utility.yul\":1361:1362   */\n      0x00\n        /* \"#utility.yul\":1350:1359   */\n      dup4\n        /* \"#utility.yul\":1346:1363   */\n      add\n        /* \"#utility.yul\":1337:1343   */\n      dup5\n        /* \"#utility.yul\":1293:1364   */\n      tag_77\n      jump\t// in\n    tag_103:\n        /* \"#utility.yul\":1149:1371   */\n      swap3\n      swap2\n      pop\n      pop\n      jump\t// out\n        /* \"#utility.yul\":1377:1491   */\n    tag_78:\n        /* \"#utility.yul\":1444:1450   */\n      0x00\n        /* \"#utility.yul\":1478:1483   */\n      dup2\n        /* \"#utility.yul\":1472:1484   */\n      mload\n        /* \"#utility.yul\":1462:1484   */\n      swap1\n      pop\n        /* \"#utility.yul\":1377:1491   */\n      swap2\n      swap1\n      pop\n      jump\t// out\n        /* \"#utility.yul\":1497:1681   */\n    tag_79:\n        /* \"#utility.yul\":1596:1607   */\n      0x00\n        /* \"#utility.yul\":1630:1636   */\n      dup3\n        /* \"#utility.yul\":1625:1628   */\n      dup3\n        /* \"#utility.yul\":1618:1637   */\n      mstore\n        /* \"#utility.yul\":1670:1674   */\n      0x20\n        /* \"#utility.yul\":1665:1668   */\n      dup3\n        /* \"#utility.yul\":1661:1675   */\n      add\n        /* \"#utility.yul\":1646:1675   */\n      swap1\n      pop\n        /* \"#utility.yul\":1497:1681   */\n      swap3\n      swap2\n      pop\n      pop\n      jump\t// out\n        /* \"#utility.yul\":1687:1819   */\n    tag_80:\n        /* \"#utility.yul\":1754:1758   */\n      0x00\n        /* \"#utility.yul\":1777:1780   */\n      dup2\n        /* \"#utility.yul\":1769:1780   */\n      swap1\n      pop\n        /* \"#utility.yul\":1807:1811   */\n      0x20\n        /* \"#utility.yul\":1802:1805   */\n      dup3\n        /* \"#utility.yul\":1798:1812   */\n      add\n        /* \"#utility.yul\":1790:1812   */\n      swap1\n      pop\n        /* \"#utility.yul\":1687:1819   */\n      swap2\n      swap1\n      pop\n      jump\t// out\n        /* \"#utility.yul\":1825:1933   */\n    tag_81:\n        /* \"#utility.yul\":1902:1926   */\n      tag_108\n        /* \"#utility.yul\":1920:1925   */\n      dup2\n        /* \"#utility.yul\":1902:1926   */\n      tag_74\n      jump\t// in\n    tag_108:\n        /* \"#utility.yul\":1897:1900   */\n      dup3\n        /* \"#utility.yul\":1890:1927   */\n      mstore\n        /* \"#utility.yul\":1825:1933   */\n      pop\n      pop\n      jump\t// out\n        /* \"#utility.yul\":1939:2118   */\n    tag_82:\n        /* \"#utility.yul\":2008:2018   */\n      0x00\n        /* \"#utility.yul\":2029:2075   */\n      tag_110\n        /* \"#utility.yul\":2071:2074   */\n      dup4\n        /* \"#utility.yul\":2063:2069   */\n      dup4\n        /* \"#utility.yul\":2029:2075   */\n      tag_81\n      jump\t// in\n    tag_110:\n        /* \"#utility.yul\":2107:2111   */\n      0x20\n        /* \"#utility.yul\":2102:2105   */\n      dup4\n        /* \"#utility.yul\":2098:2112   */\n      add\n        /* \"#utility.yul\":2084:2112   */\n      swap1\n      pop\n        /* \"#utility.yul\":1939:2118   */\n      swap3\n      swap2\n      pop\n      pop\n      jump\t// out\n        /* \"#utility.yul\":2124:2237   */\n    tag_83:\n        /* \"#utility.yul\":2194:2198   */\n      0x00\n        /* \"#utility.yul\":2226:2230   */\n      0x20\n        /* \"#utility.yul\":2221:2224   */\n      dup3\n        /* \"#utility.yul\":2217:2231   */\n      add\n        /* \"#utility.yul\":2209:2231   */\n      swap1\n      pop\n        /* \"#utility.yul\":2124:2237   */\n      swap2\n      swap1\n      pop\n      jump\t// out\n        /* \"#utility.yul\":2273:3005   */\n    tag_84:\n        /* \"#utility.yul\":2392:2395   */\n      0x00\n        /* \"#utility.yul\":2421:2475   */\n      tag_113\n        /* \"#utility.yul\":2469:2474   */\n      dup3\n        /* \"#utility.yul\":2421:2475   */\n      tag_78\n      jump\t// in\n    tag_113:\n        /* \"#utility.yul\":2491:2577   */\n      tag_114\n        /* \"#utility.yul\":2570:2576   */\n      dup2\n        /* \"#utility.yul\":2565:2568   */\n      dup6\n        /* \"#utility.yul\":2491:2577   */\n      tag_79\n      jump\t// in\n    tag_114:\n        /* \"#utility.yul\":2484:2577   */\n      swap4\n      pop\n        /* \"#utility.yul\":2601:2657   */\n      tag_115\n        /* \"#utility.yul\":2651:2656   */\n      dup4\n        /* \"#utility.yul\":2601:2657   */\n      tag_80\n      jump\t// in\n    tag_115:\n        /* \"#utility.yul\":2680:2687   */\n      dup1\n        /* \"#utility.yul\":2711:2712   */\n      0x00\n        /* \"#utility.yul\":2696:2980   */\n    tag_116:\n        /* \"#utility.yul\":2721:2727   */\n      dup4\n        /* \"#utility.yul\":2718:2719   */\n      dup2\n        /* \"#utility.yul\":2715:2728   */\n      lt\n        /* \"#utility.yul\":2696:2980   */\n      iszero\n      tag_118\n      jumpi\n        /* \"#utility.yul\":2797:2803   */\n      dup2\n        /* \"#utility.yul\":2791:2804   */\n      mload\n        /* \"#utility.yul\":2824:2887   */\n      tag_119\n        /* \"#utility.yul\":2883:2886   */\n      dup9\n        /* \"#utility.yul\":2868:2881   */\n      dup3\n        /* \"#utility.yul\":2824:2887   */\n      tag_82\n      jump\t// in\n    tag_119:\n        /* \"#utility.yul\":2817:2887   */\n      swap8\n      pop\n        /* \"#utility.yul\":2910:2970   */\n      tag_120\n        /* \"#utility.yul\":2963:2969   */\n      dup4\n        /* \"#utility.yul\":2910:2970   */\n      tag_83\n      jump\t// in\n    tag_120:\n        /* \"#utility.yul\":2900:2970   */\n      swap3\n      pop\n        /* \"#utility.yul\":2756:2980   */\n      pop\n        /* \"#utility.yul\":2743:2744   */\n      0x01\n        /* \"#utility.yul\":2740:2741   */\n      dup2\n        /* \"#utility.yul\":2736:2745   */\n      add\n        /* \"#utility.yul\":2731:2745   */\n      swap1\n      pop\n        /* \"#utility.yul\":2696:2980   */\n      jump(tag_116)\n    tag_118:\n        /* \"#utility.yul\":2700:2714   */\n      pop\n        /* \"#utility.yul\":2996:2999   */\n      dup6\n        /* \"#utility.yul\":2989:2999   */\n      swap4\n      pop\n        /* \"#utility.yul\":2397:3005   */\n      pop\n      pop\n      pop\n        /* \"#utility.yul\":2273:3005   */\n      swap3\n      swap2\n      pop\n      pop\n      jump\t// out\n        /* \"#utility.yul\":3011:3384   */\n    tag_20:\n        /* \"#utility.yul\":3154:3158   */\n      0x00\n        /* \"#utility.yul\":3192:3194   */\n      0x20\n        /* \"#utility.yul\":3181:3190   */\n      dup3\n        /* \"#utility.yul\":3177:3195   */\n      add\n        /* \"#utility.yul\":3169:3195   */\n      swap1\n      pop\n        /* \"#utility.yul\":3241:3250   */\n      dup2\n        /* \"#utility.yul\":3235:3239   */\n      dup2\n        /* \"#utility.yul\":3231:3251   */\n      sub\n        /* \"#utility.yul\":3227:3228   */\n      0x00\n        /* \"#utility.yul\":3216:3225   */\n      dup4\n        /* \"#utility.yul\":3212:3229   */\n      add\n        /* \"#utility.yul\":3205:3252   */\n      mstore\n        /* \"#utility.yul\":3269:3377   */\n      tag_122\n        /* \"#utility.yul\":3372:3376   */\n      dup2\n        /* \"#utility.yul\":3363:3369   */\n      dup5\n        /* \"#utility.yul\":3269:3377   */\n      tag_84\n      jump\t// in\n    tag_122:\n        /* \"#utility.yul\":3261:3377   */\n      swap1\n      pop\n        /* \"#utility.yul\":3011:3384   */\n      swap3\n      swap2\n      pop\n      pop\n      jump\t// out\n        /* \"#utility.yul\":3390:3570   */\n    tag_36:\n        /* \"#utility.yul\":3438:3515   */\n      0x4e487b7100000000000000000000000000000000000000000000000000000000\n        /* \"#utility.yul\":3435:3436   */\n      0x00\n        /* \"#utility.yul\":3428:3516   */\n      mstore\n        /* \"#utility.yul\":3535:3539   */\n      0x41\n        /* \"#utility.yul\":3532:3533   */\n      0x04\n        /* \"#utility.yul\":3525:3540   */\n      mstore\n        /* \"#utility.yul\":3559:3563   */\n      0x24\n        /* \"#utility.yul\":3556:3557   */\n      0x00\n        /* \"#utility.yul\":3549:3564   */\n      revert\n        /* \"#utility.yul\":3576:3756   */\n    tag_40:\n        /* \"#utility.yul\":3624:3701   */\n      0x4e487b7100000000000000000000000000000000000000000000000000000000\n        /* \"#utility.yul\":3621:3622   */\n      0x00\n        /* \"#utility.yul\":3614:3702   */\n      mstore\n        /* \"#utility.yul\":3721:3725   */\n      0x32\n        /* \"#utility.yul\":3718:3719   */\n      0x04\n        /* \"#utility.yul\":3711:3726   */\n      mstore\n        /* \"#utility.yul\":3745:3749   */\n      0x24\n        /* \"#utility.yul\":3742:3743   */\n      0x00\n        /* \"#utility.yul\":3735:3750   */\n      revert\n        /* \"#utility.yul\":3762:3942   */\n    tag_85:\n        /* \"#utility.yul\":3810:3887   */\n      0x4e487b7100000000000000000000000000000000000000000000000000000000\n        /* \"#utility.yul\":3807:3808   */\n      0x00\n        /* \"#utility.yul\":3800:3888   */\n      mstore\n        /* \"#utility.yul\":3907:3911   */\n      0x11\n        /* \"#utility.yul\":3904:3905   */\n      0x04\n        /* \"#utility.yul\":3897:3912   */\n      mstore\n        /* \"#utility.yul\":3931:3935   */\n      0x24\n        /* \"#utility.yul\":3928:3929   */\n      0x00\n        /* \"#utility.yul\":3921:3936   */\n      revert\n        /* \"#utility.yul\":3948:4139   */\n    tag_53:\n        /* \"#utility.yul\":3988:3991   */\n      0x00\n        /* \"#utility.yul\":4007:4027   */\n      tag_127\n        /* \"#utility.yul\":4025:4026   */\n      dup3\n        /* \"#utility.yul\":4007:4027   */\n      tag_74\n      jump\t// in\n    tag_127:\n        /* \"#utility.yul\":4002:4027   */\n      swap2\n      pop\n        /* \"#utility.yul\":4041:4061   */\n      tag_128\n        /* \"#utility.yul\":4059:4060   */\n      dup4\n        /* \"#utility.yul\":4041:4061   */\n      tag_74\n      jump\t// in\n    tag_128:\n        /* \"#utility.yul\":4036:4061   */\n      swap3\n      pop\n        /* \"#utility.yul\":4084:4085   */\n      dup3\n        /* \"#utility.yul\":4081:4082   */\n      dup3\n        /* \"#utility.yul\":4077:4086   */\n      add\n        /* \"#utility.yul\":4070:4086   */\n      swap1\n      pop\n        /* \"#utility.yul\":4105:4108   */\n      dup1\n        /* \"#utility.yul\":4102:4103   */\n      dup3\n        /* \"#utility.yul\":4099:4109   */\n      gt\n        /* \"#utility.yul\":4096:4132   */\n      iszero\n      tag_129\n      jumpi\n        /* \"#utility.yul\":4112:4130   */\n      tag_130\n      tag_85\n      jump\t// in\n    tag_130:\n        /* \"#utility.yul\":4096:4132   */\n    tag_129:\n        /* \"#utility.yul\":3948:4139   */\n      swap3\n      swap2\n      pop\n      pop\n      jump\t// out\n        /* \"#utility.yul\":4145:4555   */\n    tag_55:\n        /* \"#utility.yul\":4185:4192   */\n      0x00\n        /* \"#utility.yul\":4208:4228   */\n      tag_132\n        /* \"#utility.yul\":4226:4227   */\n      dup3\n        /* \"#utility.yul\":4208:4228   */\n      tag_74\n      jump\t// in\n    tag_132:\n        /* \"#utility.yul\":4203:4228   */\n      swap2\n      pop\n        /* \"#utility.yul\":4242:4262   */\n      tag_133\n        /* \"#utility.yul\":4260:4261   */\n      dup4\n        /* \"#utility.yul\":4242:4262   */\n      tag_74\n      jump\t// in\n    tag_133:\n        /* \"#utility.yul\":4237:4262   */\n      swap3\n      pop\n        /* \"#utility.yul\":4297:4298   */\n      dup3\n        /* \"#utility.yul\":4294:4295   */\n      dup3\n        /* \"#utility.yul\":4290:4299   */\n      mul\n        /* \"#utility.yul\":4319:4349   */\n      tag_134\n        /* \"#utility.yul\":4337:4348   */\n      dup2\n        /* \"#utility.yul\":4319:4349   */\n      tag_74\n      jump\t// in\n    tag_134:\n        /* \"#utility.yul\":4308:4349   */\n      swap2\n      pop\n        /* \"#utility.yul\":4498:4499   */\n      dup3\n        /* \"#utility.yul\":4489:4496   */\n      dup3\n        /* \"#utility.yul\":4485:4500   */\n      div\n        /* \"#utility.yul\":4482:4483   */\n      dup5\n        /* \"#utility.yul\":4479:4501   */\n      eq\n        /* \"#utility.yul\":4459:4460   */\n      dup4\n        /* \"#utility.yul\":4452:4461   */\n      iszero\n        /* \"#utility.yul\":4432:4515   */\n      or\n        /* \"#utility.yul\":4409:4548   */\n      tag_135\n      jumpi\n        /* \"#utility.yul\":4528:4546   */\n      tag_136\n      tag_85\n      jump\t// in\n    tag_136:\n        /* \"#utility.yul\":4409:4548   */\n    tag_135:\n        /* \"#utility.yul\":4193:4555   */\n      pop\n        /* \"#utility.yul\":4145:4555   */\n      swap3\n      swap2\n      pop\n      pop\n      jump\t// out\n\n    auxdata: 0xa264697066735822122075506e47438b5d84e524cdef58c886de38c704ab182b7f1529466dfb830f8f9764736f6c63430008220033\n}\n",
				"bytecode": {
					"linkReferences": {},
					"object": "6080604052348015600e575f5ffd5b5061063d8061001c5f395ff3fe608060405234801561000f575f5ffd5b5060043610610055575f3560e01c80633b1f0cd0146100595780637221a26a14610089578063c59083f5146100a5578063d03e67f4146100c3578063f0569df3146100f3575b5f5ffd5b610073600480360381019061006e91906103e2565b610123565b604051610080919061041c565b60405180910390f35b6100a3600480360381019061009e91906103e2565b610142565b005b6100ad61016a565b6040516100ba91906104ec565b60405180910390f35b6100dd60048036038101906100d891906103e2565b610225565b6040516100ea91906104ec565b60405180910390f35b61010d600480360381019061010891906103e2565b6102d0565b60405161011a91906104ec565b60405180910390f35b5f8181548110610131575f80fd5b905f5260205f20015f915090505481565b5f81908060018154018082558091505060019003905f5260205f20015f909190919091505550565b60605f600367ffffffffffffffff8111156101885761018761050c565b5b6040519080825280602002602001820160405280156101b65781602001602082028036833780820191505090505b509050600a815f815181106101ce576101cd610539565b5b6020026020010181815250506014816001815181106101f0576101ef610539565b5b602002602001018181525050601e8160028151811061021257610211610539565b5b6020026020010181815250508091505090565b60605f600567ffffffffffffffff8111156102435761024261050c565b5b6040519080825280602002602001820160405280156102715781602001602082028036833780820191505090505b5090505f5f90505b60058110156102c65760018161028f9190610593565b8461029a91906105c6565b8282815181106102ad576102ac610539565b5b6020026020010181815250508080600101915050610279565b5080915050919050565b60605f600367ffffffffffffffff8111156102ee576102ed61050c565b5b60405190808252806020026020018201604052801561031c5781602001602082028036833780820191505090505b50905082815f8151811061033357610332610539565b5b602002602001018181525050828361034b91906105c6565b8160018151811061035f5761035e610539565b5b60200260200101818152505082838461037891906105c6565b61038291906105c6565b8160028151811061039657610395610539565b5b60200260200101818152505080915050919050565b5f5ffd5b5f819050919050565b6103c1816103af565b81146103cb575f5ffd5b50565b5f813590506103dc816103b8565b92915050565b5f602082840312156103f7576103f66103ab565b5b5f610404848285016103ce565b91505092915050565b610416816103af565b82525050565b5f60208201905061042f5f83018461040d565b92915050565b5f81519050919050565b5f82825260208201905092915050565b5f819050602082019050919050565b610467816103af565b82525050565b5f610478838361045e565b60208301905092915050565b5f602082019050919050565b5f61049a82610435565b6104a4818561043f565b93506104af8361044f565b805f5b838110156104df5781516104c6888261046d565b97506104d183610484565b9250506001810190506104b2565b5085935050505092915050565b5f6020820190508181035f8301526105048184610490565b905092915050565b7f4e487b71000000000000000000000000000000000000000000000000000000005f52604160045260245ffd5b7f4e487b71000000000000000000000000000000000000000000000000000000005f52603260045260245ffd5b7f4e487b71000000000000000000000000000000000000000000000000000000005f52601160045260245ffd5b5f61059d826103af565b91506105a8836103af565b92508282019050808211156105c0576105bf610566565b5b92915050565b5f6105d0826103af565b91506105db836103af565b92508282026105e9816103af565b91508282048414831517610600576105ff610566565b5b509291505056fea264697066735822122075506e47438b5d84e524cdef58c886de38c704ab182b7f1529466dfb830f8f9764736f6c63430008220033",
					"opcodes": "PUSH1 0x80 PUSH1 0x40 MSTORE CALLVALUE DUP1 ISZERO PUSH1 0xE JUMPI PUSH0 PUSH0 REVERT JUMPDEST POP PUSH2 0x63D DUP1 PUSH2 0x1C PUSH0 CODECOPY PUSH0 RETURN INVALID PUSH1 0x80 PUSH1 0x40 MSTORE CALLVALUE DUP1 ISZERO PUSH2 0xF JUMPI PUSH0 PUSH0 REVERT JUMPDEST POP PUSH1 0x4 CALLDATASIZE LT PUSH2 0x55 JUMPI PUSH0 CALLDATALOAD PUSH1 0xE0 SHR DUP1 PUSH4 0x3B1F0CD0 EQ PUSH2 0x59 JUMPI DUP1 PUSH4 0x7221A26A EQ PUSH2 0x89 JUMPI DUP1 PUSH4 0xC59083F5 EQ PUSH2 0xA5 JUMPI DUP1 PUSH4 0xD03E67F4 EQ PUSH2 0xC3 JUMPI DUP1 PUSH4 0xF0569DF3 EQ PUSH2 0xF3 JUMPI JUMPDEST PUSH0 PUSH0 REVERT JUMPDEST PUSH2 0x73 PUSH1 0x4 DUP1 CALLDATASIZE SUB DUP2 ADD SWAP1 PUSH2 0x6E SWAP2 SWAP1 PUSH2 0x3E2 JUMP JUMPDEST PUSH2 0x123 JUMP JUMPDEST PUSH1 0x40 MLOAD PUSH2 0x80 SWAP2 SWAP1 PUSH2 0x41C JUMP JUMPDEST PUSH1 0x40 MLOAD DUP1 SWAP2 SUB SWAP1 RETURN JUMPDEST PUSH2 0xA3 PUSH1 0x4 DUP1 CALLDATASIZE SUB DUP2 ADD SWAP1 PUSH2 0x9E SWAP2 SWAP1 PUSH2 0x3E2 JUMP JUMPDEST PUSH2 0x142 JUMP JUMPDEST STOP JUMPDEST PUSH2 0xAD PUSH2 0x16A JUMP JUMPDEST PUSH1 0x40 MLOAD PUSH2 0xBA SWAP2 SWAP1 PUSH2 0x4EC JUMP JUMPDEST PUSH1 0x40 MLOAD DUP1 SWAP2 SUB SWAP1 RETURN JUMPDEST PUSH2 0xDD PUSH1 0x4 DUP1 CALLDATASIZE SUB DUP2 ADD SWAP1 PUSH2 0xD8 SWAP2 SWAP1 PUSH2 0x3E2 JUMP JUMPDEST PUSH2 0x225 JUMP JUMPDEST PUSH1 0x40 MLOAD PUSH2 0xEA SWAP2 SWAP1 PUSH2 0x4EC JUMP JUMPDEST PUSH1 0x40 MLOAD DUP1 SWAP2 SUB SWAP1 RETURN JUMPDEST PUSH2 0x10D PUSH1 0x4 DUP1 CALLDATASIZE SUB DUP2 ADD SWAP1 PUSH2 0x108 SWAP2 SWAP1 PUSH2 0x3E2 JUMP JUMPDEST PUSH2 0x2D0 JUMP JUMPDEST PUSH1 0x40 MLOAD PUSH2 0x11A SWAP2 SWAP1 PUSH2 0x4EC JUMP JUMPDEST PUSH1 0x40 MLOAD DUP1 SWAP2 SUB SWAP1 RETURN JUMPDEST PUSH0 DUP2 DUP2 SLOAD DUP2 LT PUSH2 0x131 JUMPI PUSH0 DUP1 REVERT JUMPDEST SWAP1 PUSH0 MSTORE PUSH1 0x20 PUSH0 KECCAK256 ADD PUSH0 SWAP2 POP SWAP1 POP SLOAD DUP2 JUMP JUMPDEST PUSH0 DUP2 SWAP1 DUP1 PUSH1 0x1 DUP2 SLOAD ADD DUP1 DUP3 SSTORE DUP1 SWAP2 POP POP PUSH1 0x1 SWAP1 SUB SWAP1 PUSH0 MSTORE PUSH1 0x20 PUSH0 KECCAK256 ADD PUSH0 SWAP1 SWAP2 SWAP1 SWAP2 SWAP1 SWAP2 POP SSTORE POP JUMP JUMPDEST PUSH1 0x60 PUSH0 PUSH1 0x3 PUSH8 0xFFFFFFFFFFFFFFFF DUP2 GT ISZERO PUSH2 0x188 JUMPI PUSH2 0x187 PUSH2 0x50C JUMP JUMPDEST JUMPDEST PUSH1 0x40 MLOAD SWAP1 DUP1 DUP3 MSTORE DUP1 PUSH1 0x20 MUL PUSH1 0x20 ADD DUP3 ADD PUSH1 0x40 MSTORE DUP1 ISZERO PUSH2 0x1B6 JUMPI DUP2 PUSH1 0x20 ADD PUSH1 0x20 DUP3 MUL DUP1 CALLDATASIZE DUP4 CALLDATACOPY DUP1 DUP3 ADD SWAP2 POP POP SWAP1 POP JUMPDEST POP SWAP1 POP PUSH1 0xA DUP2 PUSH0 DUP2 MLOAD DUP2 LT PUSH2 0x1CE JUMPI PUSH2 0x1CD PUSH2 0x539 JUMP JUMPDEST JUMPDEST PUSH1 0x20 MUL PUSH1 0x20 ADD ADD DUP2 DUP2 MSTORE POP POP PUSH1 0x14 DUP2 PUSH1 0x1 DUP2 MLOAD DUP2 LT PUSH2 0x1F0 JUMPI PUSH2 0x1EF PUSH2 0x539 JUMP JUMPDEST JUMPDEST PUSH1 0x20 MUL PUSH1 0x20 ADD ADD DUP2 DUP2 MSTORE POP POP PUSH1 0x1E DUP2 PUSH1 0x2 DUP2 MLOAD DUP2 LT PUSH2 0x212 JUMPI PUSH2 0x211 PUSH2 0x539 JUMP JUMPDEST JUMPDEST PUSH1 0x20 MUL PUSH1 0x20 ADD ADD DUP2 DUP2 MSTORE POP POP DUP1 SWAP2 POP POP SWAP1 JUMP JUMPDEST PUSH1 0x60 PUSH0 PUSH1 0x5 PUSH8 0xFFFFFFFFFFFFFFFF DUP2 GT ISZERO PUSH2 0x243 JUMPI PUSH2 0x242 PUSH2 0x50C JUMP JUMPDEST JUMPDEST PUSH1 0x40 MLOAD SWAP1 DUP1 DUP3 MSTORE DUP1 PUSH1 0x20 MUL PUSH1 0x20 ADD DUP3 ADD PUSH1 0x40 MSTORE DUP1 ISZERO PUSH2 0x271 JUMPI DUP2 PUSH1 0x20 ADD PUSH1 0x20 DUP3 MUL DUP1 CALLDATASIZE DUP4 CALLDATACOPY DUP1 DUP3 ADD SWAP2 POP POP SWAP1 POP JUMPDEST POP SWAP1 POP PUSH0 PUSH0 SWAP1 POP JUMPDEST PUSH1 0x5 DUP2 LT ISZERO PUSH2 0x2C6 JUMPI PUSH1 0x1 DUP2 PUSH2 0x28F SWAP2 SWAP1 PUSH2 0x593 JUMP JUMPDEST DUP5 PUSH2 0x29A SWAP2 SWAP1 PUSH2 0x5C6 JUMP JUMPDEST DUP3 DUP3 DUP2 MLOAD DUP2 LT PUSH2 0x2AD JUMPI PUSH2 0x2AC PUSH2 0x539 JUMP JUMPDEST JUMPDEST PUSH1 0x20 MUL PUSH1 0x20 ADD ADD DUP2 DUP2 MSTORE POP POP DUP1 DUP1 PUSH1 0x1 ADD SWAP2 POP POP PUSH2 0x279 JUMP JUMPDEST POP DUP1 SWAP2 POP POP SWAP2 SWAP1 POP JUMP JUMPDEST PUSH1 0x60 PUSH0 PUSH1 0x3 PUSH8 0xFFFFFFFFFFFFFFFF DUP2 GT ISZERO PUSH2 0x2EE JUMPI PUSH2 0x2ED PUSH2 0x50C JUMP JUMPDEST JUMPDEST PUSH1 0x40 MLOAD SWAP1 DUP1 DUP3 MSTORE DUP1 PUSH1 0x20 MUL PUSH1 0x20 ADD DUP3 ADD PUSH1 0x40 MSTORE DUP1 ISZERO PUSH2 0x31C JUMPI DUP2 PUSH1 0x20 ADD PUSH1 0x20 DUP3 MUL DUP1 CALLDATASIZE DUP4 CALLDATACOPY DUP1 DUP3 ADD SWAP2 POP POP SWAP1 POP JUMPDEST POP SWAP1 POP DUP3 DUP2 PUSH0 DUP2 MLOAD DUP2 LT PUSH2 0x333 JUMPI PUSH2 0x332 PUSH2 0x539 JUMP JUMPDEST JUMPDEST PUSH1 0x20 MUL PUSH1 0x20 ADD ADD DUP2 DUP2 MSTORE POP POP DUP3 DUP4 PUSH2 0x34B SWAP2 SWAP1 PUSH2 0x5C6 JUMP JUMPDEST DUP2 PUSH1 0x1 DUP2 MLOAD DUP2 LT PUSH2 0x35F JUMPI PUSH2 0x35E PUSH2 0x539 JUMP JUMPDEST JUMPDEST PUSH1 0x20 MUL PUSH1 0x20 ADD ADD DUP2 DUP2 MSTORE POP POP DUP3 DUP4 DUP5 PUSH2 0x378 SWAP2 SWAP1 PUSH2 0x5C6 JUMP JUMPDEST PUSH2 0x382 SWAP2 SWAP1 PUSH2 0x5C6 JUMP JUMPDEST DUP2 PUSH1 0x2 DUP2 MLOAD DUP2 LT PUSH2 0x396 JUMPI PUSH2 0x395 PUSH2 0x539 JUMP JUMPDEST JUMPDEST PUSH1 0x20 MUL PUSH1 0x20 ADD ADD DUP2 DUP2 MSTORE POP POP DUP1 SWAP2 POP POP SWAP2 SWAP1 POP JUMP JUMPDEST PUSH0 PUSH0 REVERT JUMPDEST PUSH0 DUP2 SWAP1 POP SWAP2 SWAP1 POP JUMP JUMPDEST PUSH2 0x3C1 DUP2 PUSH2 0x3AF JUMP JUMPDEST DUP2 EQ PUSH2 0x3CB JUMPI PUSH0 PUSH0 REVERT JUMPDEST POP JUMP JUMPDEST PUSH0 DUP2 CALLDATALOAD SWAP1 POP PUSH2 0x3DC DUP2 PUSH2 0x3B8 JUMP JUMPDEST SWAP3 SWAP2 POP POP JUMP JUMPDEST PUSH0 PUSH1 0x20 DUP3 DUP5 SUB SLT ISZERO PUSH2 0x3F7 JUMPI PUSH2 0x3F6 PUSH2 0x3AB JUMP JUMPDEST JUMPDEST PUSH0 PUSH2 0x404 DUP5 DUP3 DUP6 ADD PUSH2 0x3CE JUMP JUMPDEST SWAP2 POP POP SWAP3 SWAP2 POP POP JUMP JUMPDEST PUSH2 0x416 DUP2 PUSH2 0x3AF JUMP JUMPDEST DUP3 MSTORE POP POP JUMP JUMPDEST PUSH0 PUSH1 0x20 DUP3 ADD SWAP1 POP PUSH2 0x42F PUSH0 DUP4 ADD DUP5 PUSH2 0x40D JUMP JUMPDEST SWAP3 SWAP2 POP POP JUMP JUMPDEST PUSH0 DUP2 MLOAD SWAP1 POP SWAP2 SWAP1 POP JUMP JUMPDEST PUSH0 DUP3 DUP3 MSTORE PUSH1 0x20 DUP3 ADD SWAP1 POP SWAP3 SWAP2 POP POP JUMP JUMPDEST PUSH0 DUP2 SWAP1 POP PUSH1 0x20 DUP3 ADD SWAP1 POP SWAP2 SWAP1 POP JUMP JUMPDEST PUSH2 0x467 DUP2 PUSH2 0x3AF JUMP JUMPDEST DUP3 MSTORE POP POP JUMP JUMPDEST PUSH0 PUSH2 0x478 DUP4 DUP4 PUSH2 0x45E JUMP JUMPDEST PUSH1 0x20 DUP4 ADD SWAP1 POP SWAP3 SWAP2 POP POP JUMP JUMPDEST PUSH0 PUSH1 0x20 DUP3 ADD SWAP1 POP SWAP2 SWAP1 POP JUMP JUMPDEST PUSH0 PUSH2 0x49A DUP3 PUSH2 0x435 JUMP JUMPDEST PUSH2 0x4A4 DUP2 DUP6 PUSH2 0x43F JUMP JUMPDEST SWAP4 POP PUSH2 0x4AF DUP4 PUSH2 0x44F JUMP JUMPDEST DUP1 PUSH0 JUMPDEST DUP4 DUP2 LT ISZERO PUSH2 0x4DF JUMPI DUP2 MLOAD PUSH2 0x4C6 DUP9 DUP3 PUSH2 0x46D JUMP JUMPDEST SWAP8 POP PUSH2 0x4D1 DUP4 PUSH2 0x484 JUMP JUMPDEST SWAP3 POP POP PUSH1 0x1 DUP2 ADD SWAP1 POP PUSH2 0x4B2 JUMP JUMPDEST POP DUP6 SWAP4 POP POP POP POP SWAP3 SWAP2 POP POP JUMP JUMPDEST PUSH0 PUSH1 0x20 DUP3 ADD SWAP1 POP DUP2 DUP2 SUB PUSH0 DUP4 ADD MSTORE PUSH2 0x504 DUP2 DUP5 PUSH2 0x490 JUMP JUMPDEST SWAP1 POP SWAP3 SWAP2 POP POP JUMP JUMPDEST PUSH32 0x4E487B7100000000000000000000000000000000000000000000000000000000 PUSH0 MSTORE PUSH1 0x41 PUSH1 0x4 MSTORE PUSH1 0x24 PUSH0 REVERT JUMPDEST PUSH32 0x4E487B7100000000000000000000000000000000000000000000000000000000 PUSH0 MSTORE PUSH1 0x32 PUSH1 0x4 MSTORE PUSH1 0x24 PUSH0 REVERT JUMPDEST PUSH32 0x4E487B7100000000000000000000000000000000000000000000000000000000 PUSH0 MSTORE PUSH1 0x11 PUSH1 0x4 MSTORE PUSH1 0x24 PUSH0 REVERT JUMPDEST PUSH0 PUSH2 0x59D DUP3 PUSH2 0x3AF JUMP JUMPDEST SWAP2 POP PUSH2 0x5A8 DUP4 PUSH2 0x3AF JUMP JUMPDEST SWAP3 POP DUP3 DUP3 ADD SWAP1 POP DUP1 DUP3 GT ISZERO PUSH2 0x5C0 JUMPI PUSH2 0x5BF PUSH2 0x566 JUMP JUMPDEST JUMPDEST SWAP3 SWAP2 POP POP JUMP JUMPDEST PUSH0 PUSH2 0x5D0 DUP3 PUSH2 0x3AF JUMP JUMPDEST SWAP2 POP PUSH2 0x5DB DUP4 PUSH2 0x3AF JUMP JUMPDEST SWAP3 POP DUP3 DUP3 MUL PUSH2 0x5E9 DUP2 PUSH2 0x3AF JUMP JUMPDEST SWAP2 POP DUP3 DUP3 DIV DUP5 EQ DUP4 ISZERO OR PUSH2 0x600 JUMPI PUSH2 0x5FF PUSH2 0x566 JUMP JUMPDEST JUMPDEST POP SWAP3 SWAP2 POP POP JUMP INVALID LOG2 PUSH5 0x6970667358 0x22 SLT KECCAK256 PUSH22 0x506E47438B5D84E524CDEF58C886DE38C704AB182B7F ISZERO 0x29 CHAINID PUSH14 0xFB830F8F9764736F6C6343000822 STOP CALLER "
				},
				"gasEstimates": {
					"creation": {
						"codeDepositCost": "319400",
						"executionCost": "353",
						"totalCost": "319753"
					},
					"external": {
						"calculateSquares(uint256)": "infinite",
						"createMemoryArray()": "infinite",
						"multiplyValues(uint256)": "infinite",
						"storeValue(uint256)": "46820",
						"storedNumbers(uint256)": "infinite"
					}
				},
				"methodIdentifiers": {
					"calculateSquares(uint256)": "f0569df3",
					"createMemoryArray()": "c59083f5",
					"multiplyValues(uint256)": "d03e67f4",
					"storeValue(uint256)": "7221a26a",
					"storedNumbers(uint256)": "3b1f0cd0"
				}
			},
			"storageLayout": {
				"storage": [
					{
						"astId": 104,
						"contract": "val18.sol:MemoryArray",
						"label": "storedNumbers",
						"offset": 0,
						"slot": "0",
						"type": "t_array(t_uint256)dyn_storage"
					}
				],
				"types": {
					"t_array(t_uint256)dyn_storage": {
						"base": "t_uint256",
						"encoding": "dynamic_array",
						"label": "uint256[]",
						"numberOfBytes": "32"
					},
					"t_uint256": {
						"encoding": "inplace",
						"label": "uint256",
						"numberOfBytes": "32"
					}
				}
			},
			"userdoc": {
				"kind": "user",
				"methods": {},
				"version": 1
			}
		}
	}
}