{
	"val67.sol": {
		"GasScalingLoopval": {
			"abi": [
				{
					"inputs": [],
					"name": "finalSum",
					"outputs": [
						{
							"internalType": "uint256",
							"name": "",
							"type": "uint256"
						}
					],
					"stateMutability": "view",
					"type": "function"
				},
				{
					"inputs": [],
					"name": "getArrayLength",
					"outputs": [
						{
							"internalType": "uint256",
							"name": "",
							"type": "uint256"
						}
					],
					"stateMutability": "view",
					"type": "function"
				},
				{
					"inputs": [],
					"name": "loop1000",
					"outputs": [],
					"stateMutability": "nonpayable",
					"type": "function"
				},
				{
					"inputs": [],
					"name": "optimizedLoop1000",
					"outputs": [],
					"stateMutability": "nonpayable",
					"type": "function"
				},
				{
					"inputs": [],
					"name": "totalIterations",
					"outputs": [
						{
							"internalType": "uint256",
							"name": "",
							"type": "uint256"
						}
					],
					"stateMutability": "view",
					"type": "function"
				},
				{
					"inputs": [
						{
							"internalType": "uint256",
							"name": "",
							"type": "uint256"
						}
					],
					"name": "values",
					"outputs": [
						{
							"internalType": "uint256",
							"name": "",
							"type": "uint256"
						}
					],
					"stateMutability": "view",
					"type": "function"
				}
			],
			"devdoc": {
				"kind": "dev",
				"methods": {},
				"version": 1
			},
			"evm": {
				"assembly": "    /* \"val67.sol\":2004:4723  contract GasScalingLoopval {... */\n  mstore(0x40, 0x80)\n  callvalue\n  dup1\n  iszero\n  tag_1\n  jumpi\n  revert(0x00, 0x00)\ntag_1:\n  pop\n  dataSize(sub_0)\n  dup1\n  dataOffset(sub_0)\n  0x00\n  codecopy\n  0x00\n  return\nstop\n\nsub_0: assembly {\n        /* \"val67.sol\":2004:4723  contract GasScalingLoopval {... */\n      mstore(0x40, 0x80)\n      callvalue\n      dup1\n      iszero\n      tag_1\n      jumpi\n      revert(0x00, 0x00)\n    tag_1:\n      pop\n      jumpi(tag_2, lt(calldatasize, 0x04))\n      shr(0xe0, calldataload(0x00))\n      dup1\n      0x0849cc99\n      eq\n      tag_3\n      jumpi\n      dup1\n      0x283c91f4\n      eq\n      tag_4\n      jumpi\n      dup1\n      0x5e383d21\n      eq\n      tag_5\n      jumpi\n      dup1\n      0x607cf744\n      eq\n      tag_6\n      jumpi\n      dup1\n      0xaad675be\n      eq\n      tag_7\n      jumpi\n      dup1\n      0xc87fde32\n      eq\n      tag_8\n      jumpi\n    tag_2:\n      revert(0x00, 0x00)\n        /* \"val67.sol\":4589:4720  function getArrayLength()... */\n    tag_3:\n      tag_9\n      tag_10\n      jump\t// in\n    tag_9:\n      mload(0x40)\n      tag_11\n      swap2\n      swap1\n      tag_12\n      jump\t// in\n    tag_11:\n      mload(0x40)\n      dup1\n      swap2\n      sub\n      swap1\n      return\n        /* \"val67.sol\":2152:2182  uint256 public totalIterations */\n    tag_4:\n      tag_13\n      tag_14\n      jump\t// in\n    tag_13:\n      mload(0x40)\n      tag_15\n      swap2\n      swap1\n      tag_12\n      jump\t// in\n    tag_15:\n      mload(0x40)\n      dup1\n      swap2\n      sub\n      swap1\n      return\n        /* \"val67.sol\":2078:2101  uint256[] public values */\n    tag_5:\n      tag_16\n      0x04\n      dup1\n      calldatasize\n      sub\n      dup2\n      add\n      swap1\n      tag_17\n      swap2\n      swap1\n      tag_18\n      jump\t// in\n    tag_17:\n      tag_19\n      jump\t// in\n    tag_16:\n      mload(0x40)\n      tag_20\n      swap2\n      swap1\n      tag_12\n      jump\t// in\n    tag_20:\n      mload(0x40)\n      dup1\n      swap2\n      sub\n      swap1\n      return\n        /* \"val67.sol\":3870:4421  function optimizedLoop1000()... */\n    tag_6:\n      tag_21\n      tag_22\n      jump\t// in\n    tag_21:\n      stop\n        /* \"val67.sol\":2421:3670  function loop1000()... */\n    tag_7:\n      tag_23\n      tag_24\n      jump\t// in\n    tag_23:\n      stop\n        /* \"val67.sol\":2232:2255  uint256 public finalSum */\n    tag_8:\n      tag_25\n      tag_26\n      jump\t// in\n    tag_25:\n      mload(0x40)\n      tag_27\n      swap2\n      swap1\n      tag_12\n      jump\t// in\n    tag_27:\n      mload(0x40)\n      dup1\n      swap2\n      sub\n      swap1\n      return\n        /* \"val67.sol\":4589:4720  function getArrayLength()... */\n    tag_10:\n        /* \"val67.sol\":4665:4672  uint256 */\n      0x00\n        /* \"val67.sol\":4699:4705  values */\n      0x00\n        /* \"val67.sol\":4699:4712  values.length */\n      dup1\n      sload\n      swap1\n      pop\n        /* \"val67.sol\":4692:4712  return values.length */\n      swap1\n      pop\n        /* \"val67.sol\":4589:4720  function getArrayLength()... */\n      swap1\n      jump\t// out\n        /* \"val67.sol\":2152:2182  uint256 public totalIterations */\n    tag_14:\n      sload(0x01)\n      dup2\n      jump\t// out\n        /* \"val67.sol\":2078:2101  uint256[] public values */\n    tag_19:\n      0x00\n      dup2\n      dup2\n      sload\n      dup2\n      lt\n      tag_29\n      jumpi\n      0x00\n      dup1\n      revert\n    tag_29:\n      swap1\n      0x00\n      mstore\n      keccak256(0x00, 0x20)\n      add\n      0x00\n      swap2\n      pop\n      swap1\n      pop\n      sload\n      dup2\n      jump\t// out\n        /* \"val67.sol\":3870:4421  function optimizedLoop1000()... */\n    tag_22:\n        /* \"val67.sol\":3998:4009  uint256 sum */\n      0x00\n        /* \"val67.sol\":4012:4013  0 */\n      0x00\n        /* \"val67.sol\":3998:4013  uint256 sum = 0 */\n      swap1\n      pop\n        /* \"val67.sol\":4099:4108  uint256 i */\n      0x00\n        /* \"val67.sol\":4111:4112  0 */\n      0x00\n        /* \"val67.sol\":4099:4112  uint256 i = 0 */\n      swap1\n      pop\n        /* \"val67.sol\":4080:4321  for (... */\n    tag_32:\n        /* \"val67.sol\":4131:4135  1000 */\n      0x03e8\n        /* \"val67.sol\":4127:4128  i */\n      dup2\n        /* \"val67.sol\":4127:4135  i < 1000 */\n      lt\n        /* \"val67.sol\":4080:4321  for (... */\n      iszero\n      tag_33\n      jumpi\n        /* \"val67.sol\":4308:4309  i */\n      dup1\n        /* \"val67.sol\":4301:4309  sum += i */\n      dup3\n      tag_35\n      swap2\n      swap1\n      tag_36\n      jump\t// in\n    tag_35:\n      swap2\n      pop\n        /* \"val67.sol\":4150:4153  i++ */\n      dup1\n      dup1\n      0x01\n      add\n      swap2\n      pop\n      pop\n        /* \"val67.sol\":4080:4321  for (... */\n      jump(tag_32)\n    tag_33:\n      pop\n        /* \"val67.sol\":4410:4413  sum */\n      dup1\n        /* \"val67.sol\":4399:4407  finalSum */\n      0x02\n        /* \"val67.sol\":4399:4413  finalSum = sum */\n      dup2\n      swap1\n      sstore\n      pop\n        /* \"val67.sol\":3922:4421  {... */\n      pop\n        /* \"val67.sol\":3870:4421  function optimizedLoop1000()... */\n      jump\t// out\n        /* \"val67.sol\":2421:3670  function loop1000()... */\n    tag_24:\n        /* \"val67.sol\":2631:2642  uint256 sum */\n      0x00\n        /* \"val67.sol\":2645:2646  0 */\n      0x00\n        /* \"val67.sol\":2631:2646  uint256 sum = 0 */\n      swap1\n      pop\n        /* \"val67.sol\":2888:2897  uint256 i */\n      0x00\n        /* \"val67.sol\":2900:2901  0 */\n      0x00\n        /* \"val67.sol\":2888:2901  uint256 i = 0 */\n      swap1\n      pop\n        /* \"val67.sol\":2869:3578  for (... */\n    tag_38:\n        /* \"val67.sol\":2920:2924  1000 */\n      0x03e8\n        /* \"val67.sol\":2916:2917  i */\n      dup2\n        /* \"val67.sol\":2916:2924  i < 1000 */\n      lt\n        /* \"val67.sol\":2869:3578  for (... */\n      iszero\n      tag_39\n      jumpi\n        /* \"val67.sol\":3313:3314  i */\n      dup1\n        /* \"val67.sol\":3306:3314  sum += i */\n      dup3\n      tag_41\n      swap2\n      swap1\n      tag_36\n      jump\t// in\n    tag_41:\n      swap2\n      pop\n        /* \"val67.sol\":3446:3452  values */\n      0x00\n        /* \"val67.sol\":3458:3459  i */\n      dup2\n        /* \"val67.sol\":3446:3460  values.push(i) */\n      swap1\n      dup1\n      0x01\n      dup2\n      sload\n      add\n      dup1\n      dup3\n      sstore\n      dup1\n      swap2\n      pop\n      pop\n      0x01\n      swap1\n      sub\n      swap1\n      0x00\n      mstore\n      keccak256(0x00, 0x20)\n      add\n      0x00\n      swap1\n      swap2\n      swap1\n      swap2\n      swap1\n      swap2\n      pop\n      sstore\n        /* \"val67.sol\":3549:3564  totalIterations */\n      0x01\n      0x00\n        /* \"val67.sol\":3549:3566  totalIterations++ */\n      dup2\n      sload\n      dup1\n      swap3\n      swap2\n      swap1\n      tag_43\n      swap1\n      tag_44\n      jump\t// in\n    tag_43:\n      swap2\n      swap1\n      pop\n      sstore\n      pop\n        /* \"val67.sol\":2939:2942  i++ */\n      dup1\n      dup1\n      0x01\n      add\n      swap2\n      pop\n      pop\n        /* \"val67.sol\":2869:3578  for (... */\n      jump(tag_38)\n    tag_39:\n      pop\n        /* \"val67.sol\":3659:3662  sum */\n      dup1\n        /* \"val67.sol\":3648:3656  finalSum */\n      0x02\n        /* \"val67.sol\":3648:3662  finalSum = sum */\n      dup2\n      swap1\n      sstore\n      pop\n        /* \"val67.sol\":2464:3670  {... */\n      pop\n        /* \"val67.sol\":2421:3670  function loop1000()... */\n      jump\t// out\n        /* \"val67.sol\":2232:2255  uint256 public finalSum */\n    tag_26:\n      sload(0x02)\n      dup2\n      jump\t// out\n        /* \"#utility.yul\":7:84   */\n    tag_45:\n        /* \"#utility.yul\":44:51   */\n      0x00\n        /* \"#utility.yul\":73:78   */\n      dup2\n        /* \"#utility.yul\":62:78   */\n      swap1\n      pop\n        /* \"#utility.yul\":7:84   */\n      swap2\n      swap1\n      pop\n      jump\t// out\n        /* \"#utility.yul\":90:208   */\n    tag_46:\n        /* \"#utility.yul\":177:201   */\n      tag_56\n        /* \"#utility.yul\":195:200   */\n      dup2\n        /* \"#utility.yul\":177:201   */\n      tag_45\n      jump\t// in\n    tag_56:\n        /* \"#utility.yul\":172:175   */\n      dup3\n        /* \"#utility.yul\":165:202   */\n      mstore\n        /* \"#utility.yul\":90:208   */\n      pop\n      pop\n      jump\t// out\n        /* \"#utility.yul\":214:436   */\n    tag_12:\n        /* \"#utility.yul\":307:311   */\n      0x00\n        /* \"#utility.yul\":345:347   */\n      0x20\n        /* \"#utility.yul\":334:343   */\n      dup3\n        /* \"#utility.yul\":330:348   */\n      add\n        /* \"#utility.yul\":322:348   */\n      swap1\n      pop\n        /* \"#utility.yul\":358:429   */\n      tag_58\n        /* \"#utility.yul\":426:427   */\n      0x00\n        /* \"#utility.yul\":415:424   */\n      dup4\n        /* \"#utility.yul\":411:428   */\n      add\n        /* \"#utility.yul\":402:408   */\n      dup5\n        /* \"#utility.yul\":358:429   */\n      tag_46\n      jump\t// in\n    tag_58:\n        /* \"#utility.yul\":214:436   */\n      swap3\n      swap2\n      pop\n      pop\n      jump\t// out\n        /* \"#utility.yul\":523:640   */\n    tag_48:\n        /* \"#utility.yul\":632:633   */\n      0x00\n        /* \"#utility.yul\":629:630   */\n      0x00\n        /* \"#utility.yul\":622:634   */\n      revert\n        /* \"#utility.yul\":769:891   */\n    tag_50:\n        /* \"#utility.yul\":842:866   */\n      tag_63\n        /* \"#utility.yul\":860:865   */\n      dup2\n        /* \"#utility.yul\":842:866   */\n      tag_45\n      jump\t// in\n    tag_63:\n        /* \"#utility.yul\":835:840   */\n      dup2\n        /* \"#utility.yul\":832:867   */\n      eq\n        /* \"#utility.yul\":822:885   */\n      tag_64\n      jumpi\n        /* \"#utility.yul\":881:882   */\n      0x00\n        /* \"#utility.yul\":878:879   */\n      0x00\n        /* \"#utility.yul\":871:883   */\n      revert\n        /* \"#utility.yul\":822:885   */\n    tag_64:\n        /* \"#utility.yul\":769:891   */\n      pop\n      jump\t// out\n        /* \"#utility.yul\":897:1036   */\n    tag_51:\n        /* \"#utility.yul\":943:948   */\n      0x00\n        /* \"#utility.yul\":981:987   */\n      dup2\n        /* \"#utility.yul\":968:988   */\n      calldataload\n        /* \"#utility.yul\":959:988   */\n      swap1\n      pop\n        /* \"#utility.yul\":997:1030   */\n      tag_66\n        /* \"#utility.yul\":1024:1029   */\n      dup2\n        /* \"#utility.yul\":997:1030   */\n      tag_50\n      jump\t// in\n    tag_66:\n        /* \"#utility.yul\":897:1036   */\n      swap3\n      swap2\n      pop\n      pop\n      jump\t// out\n        /* \"#utility.yul\":1042:1371   */\n    tag_18:\n        /* \"#utility.yul\":1101:1107   */\n      0x00\n        /* \"#utility.yul\":1150:1152   */\n      0x20\n        /* \"#utility.yul\":1138:1147   */\n      dup3\n        /* \"#utility.yul\":1129:1136   */\n      dup5\n        /* \"#utility.yul\":1125:1148   */\n      sub\n        /* \"#utility.yul\":1121:1153   */\n      slt\n        /* \"#utility.yul\":1118:1237   */\n      iszero\n      tag_68\n      jumpi\n        /* \"#utility.yul\":1156:1235   */\n      tag_69\n      tag_48\n      jump\t// in\n    tag_69:\n        /* \"#utility.yul\":1118:1237   */\n    tag_68:\n        /* \"#utility.yul\":1276:1277   */\n      0x00\n        /* \"#utility.yul\":1301:1354   */\n      tag_70\n        /* \"#utility.yul\":1346:1353   */\n      dup5\n        /* \"#utility.yul\":1337:1343   */\n      dup3\n        /* \"#utility.yul\":1326:1335   */\n      dup6\n        /* \"#utility.yul\":1322:1344   */\n      add\n        /* \"#utility.yul\":1301:1354   */\n      tag_51\n      jump\t// in\n    tag_70:\n        /* \"#utility.yul\":1291:1354   */\n      swap2\n      pop\n        /* \"#utility.yul\":1247:1364   */\n      pop\n        /* \"#utility.yul\":1042:1371   */\n      swap3\n      swap2\n      pop\n      pop\n      jump\t// out\n        /* \"#utility.yul\":1377:1557   */\n    tag_52:\n        /* \"#utility.yul\":1425:1502   */\n      0x4e487b7100000000000000000000000000000000000000000000000000000000\n        /* \"#utility.yul\":1422:1423   */\n      0x00\n        /* \"#utility.yul\":1415:1503   */\n      mstore\n        /* \"#utility.yul\":1522:1526   */\n      0x11\n        /* \"#utility.yul\":1519:1520   */\n      0x04\n        /* \"#utility.yul\":1512:1527   */\n      mstore\n        /* \"#utility.yul\":1546:1550   */\n      0x24\n        /* \"#utility.yul\":1543:1544   */\n      0x00\n        /* \"#utility.yul\":1536:1551   */\n      revert\n        /* \"#utility.yul\":1563:1754   */\n    tag_36:\n        /* \"#utility.yul\":1603:1606   */\n      0x00\n        /* \"#utility.yul\":1622:1642   */\n      tag_73\n        /* \"#utility.yul\":1640:1641   */\n      dup3\n        /* \"#utility.yul\":1622:1642   */\n      tag_45\n      jump\t// in\n    tag_73:\n        /* \"#utility.yul\":1617:1642   */\n      swap2\n      pop\n        /* \"#utility.yul\":1656:1676   */\n      tag_74\n        /* \"#utility.yul\":1674:1675   */\n      dup4\n        /* \"#utility.yul\":1656:1676   */\n      tag_45\n      jump\t// in\n    tag_74:\n        /* \"#utility.yul\":1651:1676   */\n      swap3\n      pop\n        /* \"#utility.yul\":1699:1700   */\n      dup3\n        /* \"#utility.yul\":1696:1697   */\n      dup3\n        /* \"#utility.yul\":1692:1701   */\n      add\n        /* \"#utility.yul\":1685:1701   */\n      swap1\n      pop\n        /* \"#utility.yul\":1720:1723   */\n      dup1\n        /* \"#utility.yul\":1717:1718   */\n      dup3\n        /* \"#utility.yul\":1714:1724   */\n      gt\n        /* \"#utility.yul\":1711:1747   */\n      iszero\n      tag_75\n      jumpi\n        /* \"#utility.yul\":1727:1745   */\n      tag_76\n      tag_52\n      jump\t// in\n    tag_76:\n        /* \"#utility.yul\":1711:1747   */\n    tag_75:\n        /* \"#utility.yul\":1563:1754   */\n      swap3\n      swap2\n      pop\n      pop\n      jump\t// out\n        /* \"#utility.yul\":1760:1993   */\n    tag_44:\n        /* \"#utility.yul\":1799:1802   */\n      0x00\n        /* \"#utility.yul\":1822:1846   */\n      tag_78\n        /* \"#utility.yul\":1840:1845   */\n      dup3\n        /* \"#utility.yul\":1822:1846   */\n      tag_45\n      jump\t// in\n    tag_78:\n        /* \"#utility.yul\":1813:1846   */\n      swap2\n      pop\n        /* \"#utility.yul\":1868:1934   */\n      0xffffffffffffffffffffffffffffffffffffffffffffffffffffffffffffffff\n        /* \"#utility.yul\":1861:1866   */\n      dup3\n        /* \"#utility.yul\":1858:1935   */\n      sub\n        /* \"#utility.yul\":1855:1958   */\n      tag_79\n      jumpi\n        /* \"#utility.yul\":1938:1956   */\n      tag_80\n      tag_52\n      jump\t// in\n    tag_80:\n        /* \"#utility.yul\":1855:1958   */\n    tag_79:\n        /* \"#utility.yul\":1985:1986   */\n      0x01\n        /* \"#utility.yul\":1978:1983   */\n      dup3\n        /* \"#utility.yul\":1974:1987   */\n      add\n        /* \"#utility.yul\":1967:1987   */\n      swap1\n      pop\n        /* \"#utility.yul\":1760:1993   */\n      swap2\n      swap1\n      pop\n      jump\t// out\n\n    auxdata: 0xa2646970667358221220fa9256404118ba76267a7eb7ee3e2db0bf250c7dc41dd69cee6e9ce154d8a42d64736f6c63430008220033\n}\n",
				"bytecode": {
					"linkReferences": {},
					"object": "6080604052348015600e575f5ffd5b5061034d8061001c5f395ff3fe608060405234801561000f575f5ffd5b5060043610610060575f3560e01c80630849cc9914610064578063283c91f4146100825780635e383d21146100a0578063607cf744146100d0578063aad675be146100da578063c87fde32146100e4575b5f5ffd5b61006c610102565b60405161007991906101fe565b60405180910390f35b61008a61010d565b60405161009791906101fe565b60405180910390f35b6100ba60048036038101906100b59190610245565b610113565b6040516100c791906101fe565b60405180910390f35b6100d8610132565b005b6100e261016b565b005b6100ec6101e0565b6040516100f991906101fe565b60405180910390f35b5f5f80549050905090565b60015481565b5f8181548110610121575f80fd5b905f5260205f20015f915090505481565b5f5f90505f5f90505b6103e8811015610160578082610151919061029d565b9150808060010191505061013b565b508060028190555050565b5f5f90505f5f90505b6103e88110156101d557808261018a919061029d565b91505f81908060018154018082558091505060019003905f5260205f20015f909190919091505560015f8154809291906101c3906102d0565b91905055508080600101915050610174565b508060028190555050565b60025481565b5f819050919050565b6101f8816101e6565b82525050565b5f6020820190506102115f8301846101ef565b92915050565b5f5ffd5b610224816101e6565b811461022e575f5ffd5b50565b5f8135905061023f8161021b565b92915050565b5f6020828403121561025a57610259610217565b5b5f61026784828501610231565b91505092915050565b7f4e487b71000000000000000000000000000000000000000000000000000000005f52601160045260245ffd5b5f6102a7826101e6565b91506102b2836101e6565b92508282019050808211156102ca576102c9610270565b5b92915050565b5f6102da826101e6565b91507fffffffffffffffffffffffffffffffffffffffffffffffffffffffffffffffff820361030c5761030b610270565b5b60018201905091905056fea2646970667358221220fa9256404118ba76267a7eb7ee3e2db0bf250c7dc41dd69cee6e9ce154d8a42d64736f6c63430008220033",
					"opcodes": "PUSH1 0x80 PUSH1 0x40 MSTORE CALLVALUE DUP1 ISZERO PUSH1 0xE JUMPI PUSH0 PUSH0 REVERT JUMPDEST POP PUSH2 0x34D DUP1 PUSH2 0x1C PUSH0 CODECOPY PUSH0 RETURN INVALID PUSH1 0x80 PUSH1 0x40 MSTORE CALLVALUE DUP1 ISZERO PUSH2 0xF JUMPI PUSH0 PUSH0 REVERT JUMPDEST POP PUSH1 0x4 CALLDATASIZE LT PUSH2 0x60 JUMPI PUSH0 CALLDATALOAD PUSH1 0xE0 SHR DUP1 PUSH4 0x849CC99 EQ PUSH2 0x64 JUMPI DUP1 PUSH4 0x283C91F4 EQ PUSH2 0x82 JUMPI DUP1 PUSH4 0x5E383D21 EQ PUSH2 0xA0 JUMPI DUP1 PUSH4 0x607CF744 EQ PUSH2 0xD0 JUMPI DUP1 PUSH4 0xAAD675BE EQ PUSH2 0xDA JUMPI DUP1 PUSH4 0xC87FDE32 EQ PUSH2 0xE4 JUMPI JUMPDEST PUSH0 PUSH0 REVERT JUMPDEST PUSH2 0x6C PUSH2 0x102 JUMP JUMPDEST PUSH1 0x40 MLOAD PUSH2 0x79 SWAP2 SWAP1 PUSH2 0x1FE JUMP JUMPDEST PUSH1 0x40 MLOAD DUP1 SWAP2 SUB SWAP1 RETURN JUMPDEST PUSH2 0x8A PUSH2 0x10D JUMP JUMPDEST PUSH1 0x40 MLOAD PUSH2 0x97 SWAP2 SWAP1 PUSH2 0x1FE JUMP JUMPDEST PUSH1 0x40 MLOAD DUP1 SWAP2 SUB SWAP1 RETURN JUMPDEST PUSH2 0xBA PUSH1 0x4 DUP1 CALLDATASIZE SUB DUP2 ADD SWAP1 PUSH2 0xB5 SWAP2 SWAP1 PUSH2 0x245 JUMP JUMPDEST PUSH2 0x113 JUMP JUMPDEST PUSH1 0x40 MLOAD PUSH2 0xC7 SWAP2 SWAP1 PUSH2 0x1FE JUMP JUMPDEST PUSH1 0x40 MLOAD DUP1 SWAP2 SUB SWAP1 RETURN JUMPDEST PUSH2 0xD8 PUSH2 0x132 JUMP JUMPDEST STOP JUMPDEST PUSH2 0xE2 PUSH2 0x16B JUMP JUMPDEST STOP JUMPDEST PUSH2 0xEC PUSH2 0x1E0 JUMP JUMPDEST PUSH1 0x40 MLOAD PUSH2 0xF9 SWAP2 SWAP1 PUSH2 0x1FE JUMP JUMPDEST PUSH1 0x40 MLOAD DUP1 SWAP2 SUB SWAP1 RETURN JUMPDEST PUSH0 PUSH0 DUP1 SLOAD SWAP1 POP SWAP1 POP SWAP1 JUMP JUMPDEST PUSH1 0x1 SLOAD DUP2 JUMP JUMPDEST PUSH0 DUP2 DUP2 SLOAD DUP2 LT PUSH2 0x121 JUMPI PUSH0 DUP1 REVERT JUMPDEST SWAP1 PUSH0 MSTORE PUSH1 0x20 PUSH0 KECCAK256 ADD PUSH0 SWAP2 POP SWAP1 POP SLOAD DUP2 JUMP JUMPDEST PUSH0 PUSH0 SWAP1 POP PUSH0 PUSH0 SWAP1 POP JUMPDEST PUSH2 0x3E8 DUP2 LT ISZERO PUSH2 0x160 JUMPI DUP1 DUP3 PUSH2 0x151 SWAP2 SWAP1 PUSH2 0x29D JUMP JUMPDEST SWAP2 POP DUP1 DUP1 PUSH1 0x1 ADD SWAP2 POP POP PUSH2 0x13B JUMP JUMPDEST POP DUP1 PUSH1 0x2 DUP2 SWAP1 SSTORE POP POP JUMP JUMPDEST PUSH0 PUSH0 SWAP1 POP PUSH0 PUSH0 SWAP1 POP JUMPDEST PUSH2 0x3E8 DUP2 LT ISZERO PUSH2 0x1D5 JUMPI DUP1 DUP3 PUSH2 0x18A SWAP2 SWAP1 PUSH2 0x29D JUMP JUMPDEST SWAP2 POP PUSH0 DUP2 SWAP1 DUP1 PUSH1 0x1 DUP2 SLOAD ADD DUP1 DUP3 SSTORE DUP1 SWAP2 POP POP PUSH1 0x1 SWAP1 SUB SWAP1 PUSH0 MSTORE PUSH1 0x20 PUSH0 KECCAK256 ADD PUSH0 SWAP1 SWAP2 SWAP1 SWAP2 SWAP1 SWAP2 POP SSTORE PUSH1 0x1 PUSH0 DUP2 SLOAD DUP1 SWAP3 SWAP2 SWAP1 PUSH2 0x1C3 SWAP1 PUSH2 0x2D0 JUMP JUMPDEST SWAP2 SWAP1 POP SSTORE POP DUP1 DUP1 PUSH1 0x1 ADD SWAP2 POP POP PUSH2 0x174 JUMP JUMPDEST POP DUP1 PUSH1 0x2 DUP2 SWAP1 SSTORE POP POP JUMP JUMPDEST PUSH1 0x2 SLOAD DUP2 JUMP JUMPDEST PUSH0 DUP2 SWAP1 POP SWAP2 SWAP1 POP JUMP JUMPDEST PUSH2 0x1F8 DUP2 PUSH2 0x1E6 JUMP JUMPDEST DUP3 MSTORE POP POP JUMP JUMPDEST PUSH0 PUSH1 0x20 DUP3 ADD SWAP1 POP PUSH2 0x211 PUSH0 DUP4 ADD DUP5 PUSH2 0x1EF JUMP JUMPDEST SWAP3 SWAP2 POP POP JUMP JUMPDEST PUSH0 PUSH0 REVERT JUMPDEST PUSH2 0x224 DUP2 PUSH2 0x1E6 JUMP JUMPDEST DUP2 EQ PUSH2 0x22E JUMPI PUSH0 PUSH0 REVERT JUMPDEST POP JUMP JUMPDEST PUSH0 DUP2 CALLDATALOAD SWAP1 POP PUSH2 0x23F DUP2 PUSH2 0x21B JUMP JUMPDEST SWAP3 SWAP2 POP POP JUMP JUMPDEST PUSH0 PUSH1 0x20 DUP3 DUP5 SUB SLT ISZERO PUSH2 0x25A JUMPI PUSH2 0x259 PUSH2 0x217 JUMP JUMPDEST JUMPDEST PUSH0 PUSH2 0x267 DUP5 DUP3 DUP6 ADD PUSH2 0x231 JUMP JUMPDEST SWAP2 POP POP SWAP3 SWAP2 POP POP JUMP JUMPDEST PUSH32 0x4E487B7100000000000000000000000000000000000000000000000000000000 PUSH0 MSTORE PUSH1 0x11 PUSH1 0x4 MSTORE PUSH1 0x24 PUSH0 REVERT JUMPDEST PUSH0 PUSH2 0x2A7 DUP3 PUSH2 0x1E6 JUMP JUMPDEST SWAP2 POP PUSH2 0x2B2 DUP4 PUSH2 0x1E6 JUMP JUMPDEST SWAP3 POP DUP3 DUP3 ADD SWAP1 POP DUP1 DUP3 GT ISZERO PUSH2 0x2CA JUMPI PUSH2 0x2C9 PUSH2 0x270 JUMP JUMPDEST JUMPDEST SWAP3 SWAP2 POP POP JUMP JUMPDEST PUSH0 PUSH2 0x2DA DUP3 PUSH2 0x1E6 JUMP JUMPDEST SWAP2 POP PUSH32 0xFFFFFFFFFFFFFFFFFFFFFFFFFFFFFFFFFFFFFFFFFFFFFFFFFFFFFFFFFFFFFFFF DUP3 SUB PUSH2 0x30C JUMPI PUSH2 0x30B PUSH2 0x270 JUMP JUMPDEST JUMPDEST PUSH1 0x1 DUP3 ADD SWAP1 POP SWAP2 SWAP1 POP JUMP INVALID LOG2 PUSH5 0x6970667358 0x22 SLT KECCAK256 STATICCALL SWAP3 JUMP BLOCKHASH COINBASE XOR 0xBA PUSH23 0x267A7EB7EE3E2DB0BF250C7DC41DD69CEE6E9CE154D8A4 0x2D PUSH5 0x736F6C6343 STOP ADDMOD 0x22 STOP CALLER "
				},
				"gasEstimates": {
					"creation": {
						"codeDepositCost": "169000",
						"executionCost": "212",
						"totalCost": "169212"
					},
					"external": {
						"finalSum()": "2513",
						"getArrayLength()": "2417",
						"loop1000()": "infinite",
						"optimizedLoop1000()": "infinite",
						"totalIterations()": "2425",
						"values(uint256)": "infinite"
					}
				},
				"methodIdentifiers": {
					"finalSum()": "c87fde32",
					"getArrayLength()": "0849cc99",
					"loop1000()": "aad675be",
					"optimizedLoop1000()": "607cf744",
					"totalIterations()": "283c91f4",
					"values(uint256)": "5e383d21"
				}
			},
			"storageLayout": {
				"storage": [
					{
						"astId": 4,
						"contract": "val67.sol:GasScalingLoopval",
						"label": "values",
						"offset": 0,
						"slot": "0",
						"type": "t_array(t_uint256)dyn_storage"
					},
					{
						"astId": 6,
						"contract": "val67.sol:GasScalingLoopval",
						"label": "totalIterations",
						"offset": 0,
						"slot": "1",
						"type": "t_uint256"
					},
					{
						"astId": 8,
						"contract": "val67.sol:GasScalingLoopval",
						"label": "finalSum",
						"offset": 0,
						"slot": "2",
						"type": "t_uint256"
					}
				],
				"types": {
					"t_array(t_uint256)dyn_storage": {
						"base": "t_uint256",
						"encoding": "dynamic_array",
						"label": "uint256[]",
						"numberOfBytes": "32"
					},
					"t_uint256": {
						"encoding": "inplace",
						"label": "uint256",
						"numberOfBytes": "32"
					}
				}
			},
			"userdoc": {
				"kind": "user",
				"methods": {},
				"version": 1
			}
		}
	}
}