{
	"val67.sol": {
		"GasScalingLoop": {
			"abi": [
				{
					"inputs": [
						{
							"internalType": "address",
							"name": "_processor",
							"type": "address"
						}
					],
					"stateMutability": "nonpayable",
					"type": "constructor"
				},
				{
					"anonymous": false,
					"inputs": [
						{
							"indexed": false,
							"internalType": "uint256",
							"name": "iteration",
							"type": "uint256"
						}
					],
					"name": "ExternalCallExecuted",
					"type": "event"
				},
				{
					"anonymous": false,
					"inputs": [
						{
							"indexed": false,
							"internalType": "uint256",
							"name": "gasUsed",
							"type": "uint256"
						},
						{
							"indexed": false,
							"internalType": "uint256",
							"name": "finalResult",
							"type": "uint256"
						}
					],
					"name": "LoopCompleted",
					"type": "event"
				},
				{
					"inputs": [],
					"name": "contractBalance",
					"outputs": [
						{
							"internalType": "uint256",
							"name": "",
							"type": "uint256"
						}
					],
					"stateMutability": "view",
					"type": "function"
				},
				{
					"inputs": [],
					"name": "expensiveLoop10000",
					"outputs": [],
					"stateMutability": "nonpayable",
					"type": "function"
				},
				{
					"inputs": [],
					"name": "finalSum",
					"outputs": [
						{
							"internalType": "uint256",
							"name": "",
							"type": "uint256"
						}
					],
					"stateMutability": "view",
					"type": "function"
				},
				{
					"inputs": [],
					"name": "getArrayLength",
					"outputs": [
						{
							"internalType": "uint256",
							"name": "",
							"type": "uint256"
						}
					],
					"stateMutability": "view",
					"type": "function"
				},
				{
					"inputs": [],
					"name": "lastGasUsed",
					"outputs": [
						{
							"internalType": "uint256",
							"name": "",
							"type": "uint256"
						}
					],
					"stateMutability": "view",
					"type": "function"
				},
				{
					"inputs": [],
					"name": "optimizedLoop1000",
					"outputs": [],
					"stateMutability": "nonpayable",
					"type": "function"
				},
				{
					"inputs": [],
					"name": "processor",
					"outputs": [
						{
							"internalType": "contract ExternalProcessor",
							"name": "",
							"type": "address"
						}
					],
					"stateMutability": "view",
					"type": "function"
				},
				{
					"inputs": [],
					"name": "totalIterations",
					"outputs": [
						{
							"internalType": "uint256",
							"name": "",
							"type": "uint256"
						}
					],
					"stateMutability": "view",
					"type": "function"
				},
				{
					"inputs": [
						{
							"internalType": "uint256",
							"name": "",
							"type": "uint256"
						}
					],
					"name": "values",
					"outputs": [
						{
							"internalType": "uint256",
							"name": "",
							"type": "uint256"
						}
					],
					"stateMutability": "view",
					"type": "function"
				}
			],
			"devdoc": {
				"kind": "dev",
				"methods": {},
				"version": 1
			},
			"evm": {
				"assembly": "    /* \"val67.sol\":17023:19830  contract GasScalingLoop {... */\n  mstore(0x40, 0x80)\n    /* \"val67.sol\":17563:17660  constructor(address _processor)... */\n  callvalue\n  dup1\n  iszero\n  tag_1\n  jumpi\n  revert(0x00, 0x00)\ntag_1:\n  pop\n  mload(0x40)\n  sub(codesize, bytecodeSize)\n  dup1\n  bytecodeSize\n  dup4\n  codecopy\n  dup2\n  dup2\n  add\n  0x40\n  mstore\n  dup2\n  add\n  swap1\n  tag_2\n  swap2\n  swap1\n  tag_3\n  jump\t// in\ntag_2:\n    /* \"val67.sol\":17641:17651  _processor */\n  dup1\n    /* \"val67.sol\":17611:17620  processor */\n  0x04\n  0x00\n    /* \"val67.sol\":17611:17652  processor = ExternalProcessor(_processor) */\n  0x0100\n  exp\n  dup2\n  sload\n  dup2\n  0xffffffffffffffffffffffffffffffffffffffff\n  mul\n  not\n  and\n  swap1\n  dup4\n  0xffffffffffffffffffffffffffffffffffffffff\n  and\n  mul\n  or\n  swap1\n  sstore\n  pop\n    /* \"val67.sol\":17563:17660  constructor(address _processor)... */\n  pop\n    /* \"val67.sol\":17023:19830  contract GasScalingLoop {... */\n  jump(tag_6)\n    /* \"#utility.yul\":88:205   */\ntag_8:\n    /* \"#utility.yul\":197:198   */\n  0x00\n    /* \"#utility.yul\":194:195   */\n  0x00\n    /* \"#utility.yul\":187:199   */\n  revert\n    /* \"#utility.yul\":334:460   */\ntag_10:\n    /* \"#utility.yul\":371:378   */\n  0x00\n    /* \"#utility.yul\":411:453   */\n  0xffffffffffffffffffffffffffffffffffffffff\n    /* \"#utility.yul\":404:409   */\n  dup3\n    /* \"#utility.yul\":400:454   */\n  and\n    /* \"#utility.yul\":389:454   */\n  swap1\n  pop\n    /* \"#utility.yul\":334:460   */\n  swap2\n  swap1\n  pop\n  jump\t// out\n    /* \"#utility.yul\":466:562   */\ntag_11:\n    /* \"#utility.yul\":503:510   */\n  0x00\n    /* \"#utility.yul\":532:556   */\n  tag_20\n    /* \"#utility.yul\":550:555   */\n  dup3\n    /* \"#utility.yul\":532:556   */\n  tag_10\n  jump\t// in\ntag_20:\n    /* \"#utility.yul\":521:556   */\n  swap1\n  pop\n    /* \"#utility.yul\":466:562   */\n  swap2\n  swap1\n  pop\n  jump\t// out\n    /* \"#utility.yul\":568:690   */\ntag_12:\n    /* \"#utility.yul\":641:665   */\n  tag_22\n    /* \"#utility.yul\":659:664   */\n  dup2\n    /* \"#utility.yul\":641:665   */\n  tag_11\n  jump\t// in\ntag_22:\n    /* \"#utility.yul\":634:639   */\n  dup2\n    /* \"#utility.yul\":631:666   */\n  eq\n    /* \"#utility.yul\":621:684   */\n  tag_23\n  jumpi\n    /* \"#utility.yul\":680:681   */\n  0x00\n    /* \"#utility.yul\":677:678   */\n  0x00\n    /* \"#utility.yul\":670:682   */\n  revert\n    /* \"#utility.yul\":621:684   */\ntag_23:\n    /* \"#utility.yul\":568:690   */\n  pop\n  jump\t// out\n    /* \"#utility.yul\":696:839   */\ntag_13:\n    /* \"#utility.yul\":753:758   */\n  0x00\n    /* \"#utility.yul\":784:790   */\n  dup2\n    /* \"#utility.yul\":778:791   */\n  mload\n    /* \"#utility.yul\":769:791   */\n  swap1\n  pop\n    /* \"#utility.yul\":800:833   */\n  tag_25\n    /* \"#utility.yul\":827:832   */\n  dup2\n    /* \"#utility.yul\":800:833   */\n  tag_12\n  jump\t// in\ntag_25:\n    /* \"#utility.yul\":696:839   */\n  swap3\n  swap2\n  pop\n  pop\n  jump\t// out\n    /* \"#utility.yul\":845:1196   */\ntag_3:\n    /* \"#utility.yul\":915:921   */\n  0x00\n    /* \"#utility.yul\":964:966   */\n  0x20\n    /* \"#utility.yul\":952:961   */\n  dup3\n    /* \"#utility.yul\":943:950   */\n  dup5\n    /* \"#utility.yul\":939:962   */\n  sub\n    /* \"#utility.yul\":935:967   */\n  slt\n    /* \"#utility.yul\":932:1051   */\n  iszero\n  tag_27\n  jumpi\n    /* \"#utility.yul\":970:1049   */\n  tag_28\n  tag_8\n  jump\t// in\ntag_28:\n    /* \"#utility.yul\":932:1051   */\ntag_27:\n    /* \"#utility.yul\":1090:1091   */\n  0x00\n    /* \"#utility.yul\":1115:1179   */\n  tag_29\n    /* \"#utility.yul\":1171:1178   */\n  dup5\n    /* \"#utility.yul\":1162:1168   */\n  dup3\n    /* \"#utility.yul\":1151:1160   */\n  dup6\n    /* \"#utility.yul\":1147:1169   */\n  add\n    /* \"#utility.yul\":1115:1179   */\n  tag_13\n  jump\t// in\ntag_29:\n    /* \"#utility.yul\":1105:1179   */\n  swap2\n  pop\n    /* \"#utility.yul\":1061:1189   */\n  pop\n    /* \"#utility.yul\":845:1196   */\n  swap3\n  swap2\n  pop\n  pop\n  jump\t// out\n    /* \"val67.sol\":17023:19830  contract GasScalingLoop {... */\ntag_6:\n  dataSize(sub_0)\n  dup1\n  dataOffset(sub_0)\n  0x00\n  codecopy\n  0x00\n  return\nstop\n\nsub_0: assembly {\n        /* \"val67.sol\":17023:19830  contract GasScalingLoop {... */\n      mstore(0x40, 0x80)\n      callvalue\n      dup1\n      iszero\n      tag_1\n      jumpi\n      revert(0x00, 0x00)\n    tag_1:\n      pop\n      jumpi(tag_2, lt(calldatasize, 0x04))\n      shr(0xe0, calldataload(0x00))\n      dup1\n      0x777182ed\n      gt\n      tag_12\n      jumpi\n      dup1\n      0x777182ed\n      eq\n      tag_7\n      jumpi\n      dup1\n      0x8b7afe2e\n      eq\n      tag_8\n      jumpi\n      dup1\n      0x95c570bd\n      eq\n      tag_9\n      jumpi\n      dup1\n      0xc87fde32\n      eq\n      tag_10\n      jumpi\n      dup1\n      0xce1b1d43\n      eq\n      tag_11\n      jumpi\n      jump(tag_2)\n    tag_12:\n      dup1\n      0x0849cc99\n      eq\n      tag_3\n      jumpi\n      dup1\n      0x283c91f4\n      eq\n      tag_4\n      jumpi\n      dup1\n      0x5e383d21\n      eq\n      tag_5\n      jumpi\n      dup1\n      0x607cf744\n      eq\n      tag_6\n      jumpi\n    tag_2:\n      revert(0x00, 0x00)\n        /* \"val67.sol\":19550:19681  function getArrayLength()... */\n    tag_3:\n      tag_13\n      tag_14\n      jump\t// in\n    tag_13:\n      mload(0x40)\n      tag_15\n      swap2\n      swap1\n      tag_16\n      jump\t// in\n    tag_15:\n      mload(0x40)\n      dup1\n      swap2\n      sub\n      swap1\n      return\n        /* \"val67.sol\":17168:17198  uint256 public totalIterations */\n    tag_4:\n      tag_17\n      tag_18\n      jump\t// in\n    tag_17:\n      mload(0x40)\n      tag_19\n      swap2\n      swap1\n      tag_16\n      jump\t// in\n    tag_19:\n      mload(0x40)\n      dup1\n      swap2\n      sub\n      swap1\n      return\n        /* \"val67.sol\":17094:17117  uint256[] public values */\n    tag_5:\n      tag_20\n      0x04\n      dup1\n      calldatasize\n      sub\n      dup2\n      add\n      swap1\n      tag_21\n      swap2\n      swap1\n      tag_22\n      jump\t// in\n    tag_21:\n      tag_23\n      jump\t// in\n    tag_20:\n      mload(0x40)\n      tag_24\n      swap2\n      swap1\n      tag_16\n      jump\t// in\n    tag_24:\n      mload(0x40)\n      dup1\n      swap2\n      sub\n      swap1\n      return\n        /* \"val67.sol\":18869:19387  function optimizedLoop1000()... */\n    tag_6:\n      tag_25\n      tag_26\n      jump\t// in\n    tag_25:\n      stop\n        /* \"val67.sol\":17691:18705  function expensiveLoop10000() external ... */\n    tag_7:\n      tag_27\n      tag_28\n      jump\t// in\n    tag_27:\n      stop\n        /* \"val67.sol\":19716:19827  function contractBalance() external view returns (uint256)... */\n    tag_8:\n      tag_29\n      tag_30\n      jump\t// in\n    tag_29:\n      mload(0x40)\n      tag_31\n      swap2\n      swap1\n      tag_16\n      jump\t// in\n    tag_31:\n      mload(0x40)\n      dup1\n      swap2\n      sub\n      swap1\n      return\n        /* \"val67.sol\":17303:17329  uint256 public lastGasUsed */\n    tag_9:\n      tag_32\n      tag_33\n      jump\t// in\n    tag_32:\n      mload(0x40)\n      tag_34\n      swap2\n      swap1\n      tag_16\n      jump\t// in\n    tag_34:\n      mload(0x40)\n      dup1\n      swap2\n      sub\n      swap1\n      return\n        /* \"val67.sol\":17248:17271  uint256 public finalSum */\n    tag_10:\n      tag_35\n      tag_36\n      jump\t// in\n    tag_35:\n      mload(0x40)\n      tag_37\n      swap2\n      swap1\n      tag_16\n      jump\t// in\n    tag_37:\n      mload(0x40)\n      dup1\n      swap2\n      sub\n      swap1\n      return\n        /* \"val67.sol\":17364:17398  ExternalProcessor public processor */\n    tag_11:\n      tag_38\n      tag_39\n      jump\t// in\n    tag_38:\n      mload(0x40)\n      tag_40\n      swap2\n      swap1\n      tag_41\n      jump\t// in\n    tag_40:\n      mload(0x40)\n      dup1\n      swap2\n      sub\n      swap1\n      return\n        /* \"val67.sol\":19550:19681  function getArrayLength()... */\n    tag_14:\n        /* \"val67.sol\":19626:19633  uint256 */\n      0x00\n        /* \"val67.sol\":19660:19666  values */\n      0x00\n        /* \"val67.sol\":19660:19673  values.length */\n      dup1\n      sload\n      swap1\n      pop\n        /* \"val67.sol\":19653:19673  return values.length */\n      swap1\n      pop\n        /* \"val67.sol\":19550:19681  function getArrayLength()... */\n      swap1\n      jump\t// out\n        /* \"val67.sol\":17168:17198  uint256 public totalIterations */\n    tag_18:\n      sload(0x01)\n      dup2\n      jump\t// out\n        /* \"val67.sol\":17094:17117  uint256[] public values */\n    tag_23:\n      0x00\n      dup2\n      dup2\n      sload\n      dup2\n      lt\n      tag_43\n      jumpi\n      0x00\n      dup1\n      revert\n    tag_43:\n      swap1\n      0x00\n      mstore\n      keccak256(0x00, 0x20)\n      add\n      0x00\n      swap2\n      pop\n      swap1\n      pop\n      sload\n      dup2\n      jump\t// out\n        /* \"val67.sol\":18869:19387  function optimizedLoop1000()... */\n    tag_26:\n        /* \"val67.sol\":18932:18948  uint256 startGas */\n      0x00\n        /* \"val67.sol\":18951:18960  gasleft() */\n      gas\n        /* \"val67.sol\":18932:18960  uint256 startGas = gasleft() */\n      swap1\n      pop\n        /* \"val67.sol\":18974:18985  uint256 sum */\n      0x00\n        /* \"val67.sol\":18988:18989  0 */\n      0x00\n        /* \"val67.sol\":18974:18989  uint256 sum = 0 */\n      swap1\n      pop\n        /* \"val67.sol\":19070:19079  uint256 i */\n      0x00\n        /* \"val67.sol\":19082:19083  0 */\n      0x00\n        /* \"val67.sol\":19070:19083  uint256 i = 0 */\n      swap1\n      pop\n        /* \"val67.sol\":19051:19171  for (... */\n    tag_46:\n        /* \"val67.sol\":19102:19106  1000 */\n      0x03e8\n        /* \"val67.sol\":19098:19099  i */\n      dup2\n        /* \"val67.sol\":19098:19106  i < 1000 */\n      lt\n        /* \"val67.sol\":19051:19171  for (... */\n      iszero\n      tag_47\n      jumpi\n        /* \"val67.sol\":19158:19159  i */\n      dup1\n        /* \"val67.sol\":19151:19159  sum += i */\n      dup3\n      tag_49\n      swap2\n      swap1\n      tag_50\n      jump\t// in\n    tag_49:\n      swap2\n      pop\n        /* \"val67.sol\":19121:19124  i++ */\n      dup1\n      dup1\n      0x01\n      add\n      swap2\n      pop\n      pop\n        /* \"val67.sol\":19051:19171  for (... */\n      jump(tag_46)\n    tag_47:\n      pop\n        /* \"val67.sol\":19253:19256  sum */\n      dup1\n        /* \"val67.sol\":19242:19250  finalSum */\n      0x02\n        /* \"val67.sol\":19242:19256  finalSum = sum */\n      dup2\n      swap1\n      sstore\n      pop\n        /* \"val67.sol\":19321:19330  gasleft() */\n      gas\n        /* \"val67.sol\":19310:19318  startGas */\n      dup3\n        /* \"val67.sol\":19310:19330  startGas - gasleft() */\n      tag_51\n      swap2\n      swap1\n      tag_52\n      jump\t// in\n    tag_51:\n        /* \"val67.sol\":19296:19307  lastGasUsed */\n      0x03\n        /* \"val67.sol\":19296:19330  lastGasUsed = startGas - gasleft() */\n      dup2\n      swap1\n      sstore\n      pop\n        /* \"val67.sol\":19348:19379  LoopCompleted(lastGasUsed, sum) */\n      0x87243bf8585d1956697e216ae0fb5b1fd23f985b1af093eacee6788f515314ac\n        /* \"val67.sol\":19362:19373  lastGasUsed */\n      sload(0x03)\n        /* \"val67.sol\":19375:19378  sum */\n      dup3\n        /* \"val67.sol\":19348:19379  LoopCompleted(lastGasUsed, sum) */\n      mload(0x40)\n      tag_53\n      swap3\n      swap2\n      swap1\n      tag_54\n      jump\t// in\n    tag_53:\n      mload(0x40)\n      dup1\n      swap2\n      sub\n      swap1\n      log1\n        /* \"val67.sol\":18921:19387  {... */\n      pop\n      pop\n        /* \"val67.sol\":18869:19387  function optimizedLoop1000()... */\n      jump\t// out\n        /* \"val67.sol\":17691:18705  function expensiveLoop10000() external ... */\n    tag_28:\n        /* \"val67.sol\":17747:17763  uint256 startGas */\n      0x00\n        /* \"val67.sol\":17766:17775  gasleft() */\n      gas\n        /* \"val67.sol\":17747:17775  uint256 startGas = gasleft() */\n      swap1\n      pop\n        /* \"val67.sol\":17788:17799  uint256 sum */\n      0x00\n        /* \"val67.sol\":17802:17803  0 */\n      0x00\n        /* \"val67.sol\":17788:17803  uint256 sum = 0 */\n      swap1\n      pop\n        /* \"val67.sol\":17998:18007  uint256 i */\n      0x00\n        /* \"val67.sol\":18010:18011  0 */\n      0x00\n        /* \"val67.sol\":17998:18011  uint256 i = 0 */\n      swap1\n      pop\n        /* \"val67.sol\":17979:18485  for (... */\n    tag_56:\n        /* \"val67.sol\":18030:18034  1000 */\n      0x03e8\n        /* \"val67.sol\":18026:18027  i */\n      dup2\n        /* \"val67.sol\":18026:18034  i < 1000 */\n      lt\n        /* \"val67.sol\":17979:18485  for (... */\n      iszero\n      tag_57\n      jumpi\n        /* \"val67.sol\":18103:18104  i */\n      dup1\n        /* \"val67.sol\":18096:18104  sum += i */\n      dup3\n      tag_59\n      swap2\n      swap1\n      tag_50\n      jump\t// in\n    tag_59:\n      swap2\n      pop\n        /* \"val67.sol\":18236:18242  values */\n      0x00\n        /* \"val67.sol\":18248:18249  i */\n      dup2\n        /* \"val67.sol\":18236:18250  values.push(i) */\n      swap1\n      dup1\n      0x01\n      dup2\n      sload\n      add\n      dup1\n      dup3\n      sstore\n      dup1\n      swap2\n      pop\n      pop\n      0x01\n      swap1\n      sub\n      swap1\n      0x00\n      mstore\n      keccak256(0x00, 0x20)\n      add\n      0x00\n      swap1\n      swap2\n      swap1\n      swap2\n      swap1\n      swap2\n      pop\n      sstore\n        /* \"val67.sol\":18339:18354  totalIterations */\n      0x01\n      0x00\n        /* \"val67.sol\":18339:18356  totalIterations++ */\n      dup2\n      sload\n      dup1\n      swap3\n      swap2\n      swap1\n      tag_61\n      swap1\n      tag_62\n      jump\t// in\n    tag_61:\n      swap2\n      swap1\n      pop\n      sstore\n      pop\n        /* \"val67.sol\":18403:18412  processor */\n      0x04\n      0x00\n      swap1\n      sload\n      swap1\n      0x0100\n      exp\n      swap1\n      div\n      0xffffffffffffffffffffffffffffffffffffffff\n      and\n        /* \"val67.sol\":18403:18425  processor.processValue */\n      0xffffffffffffffffffffffffffffffffffffffff\n      and\n      0x948e3bdb\n        /* \"val67.sol\":18426:18427  i */\n      dup3\n        /* \"val67.sol\":18403:18428  processor.processValue(i) */\n      mload(0x40)\n      dup3\n      0xffffffff\n      and\n      0xe0\n      shl\n      dup2\n      mstore\n      0x04\n      add\n      tag_63\n      swap2\n      swap1\n      tag_16\n      jump\t// in\n    tag_63:\n      0x00\n      mload(0x40)\n      dup1\n      dup4\n      sub\n      dup2\n      0x00\n      dup8\n      dup1\n      extcodesize\n      iszero\n      dup1\n      iszero\n      tag_64\n      jumpi\n      revert(0x00, 0x00)\n    tag_64:\n      pop\n      gas\n      call\n      iszero\n      dup1\n      iszero\n      tag_66\n      jumpi\n      returndatacopy(0x00, 0x00, returndatasize)\n      revert(0x00, returndatasize)\n    tag_66:\n      pop\n      pop\n      pop\n      pop\n        /* \"val67.sol\":18450:18473  ExternalCallExecuted(i) */\n      0xfcdc2b64b85e0f44828957876c2d223cf1144a517b84bffb4ff0d90316bcc72f\n        /* \"val67.sol\":18471:18472  i */\n      dup2\n        /* \"val67.sol\":18450:18473  ExternalCallExecuted(i) */\n      mload(0x40)\n      tag_67\n      swap2\n      swap1\n      tag_16\n      jump\t// in\n    tag_67:\n      mload(0x40)\n      dup1\n      swap2\n      sub\n      swap1\n      log1\n        /* \"val67.sol\":18049:18052  i++ */\n      dup1\n      dup1\n      0x01\n      add\n      swap2\n      pop\n      pop\n        /* \"val67.sol\":17979:18485  for (... */\n      jump(tag_56)\n    tag_57:\n      pop\n        /* \"val67.sol\":18566:18569  sum */\n      dup1\n        /* \"val67.sol\":18555:18563  finalSum */\n      0x02\n        /* \"val67.sol\":18555:18569  finalSum = sum */\n      dup2\n      swap1\n      sstore\n      pop\n        /* \"val67.sol\":18639:18648  gasleft() */\n      gas\n        /* \"val67.sol\":18628:18636  startGas */\n      dup3\n        /* \"val67.sol\":18628:18648  startGas - gasleft() */\n      tag_68\n      swap2\n      swap1\n      tag_52\n      jump\t// in\n    tag_68:\n        /* \"val67.sol\":18614:18625  lastGasUsed */\n      0x03\n        /* \"val67.sol\":18614:18648  lastGasUsed = startGas - gasleft() */\n      dup2\n      swap1\n      sstore\n      pop\n        /* \"val67.sol\":18666:18697  LoopCompleted(lastGasUsed, sum) */\n      0x87243bf8585d1956697e216ae0fb5b1fd23f985b1af093eacee6788f515314ac\n        /* \"val67.sol\":18680:18691  lastGasUsed */\n      sload(0x03)\n        /* \"val67.sol\":18693:18696  sum */\n      dup3\n        /* \"val67.sol\":18666:18697  LoopCompleted(lastGasUsed, sum) */\n      mload(0x40)\n      tag_69\n      swap3\n      swap2\n      swap1\n      tag_54\n      jump\t// in\n    tag_69:\n      mload(0x40)\n      dup1\n      swap2\n      sub\n      swap1\n      log1\n        /* \"val67.sol\":17736:18705  {... */\n      pop\n      pop\n        /* \"val67.sol\":17691:18705  function expensiveLoop10000() external ... */\n      jump\t// out\n        /* \"val67.sol\":19716:19827  function contractBalance() external view returns (uint256)... */\n    tag_30:\n        /* \"val67.sol\":19766:19773  uint256 */\n      0x00\n        /* \"val67.sol\":19798:19819  address(this).balance */\n      selfbalance\n        /* \"val67.sol\":19791:19819  return address(this).balance */\n      swap1\n      pop\n        /* \"val67.sol\":19716:19827  function contractBalance() external view returns (uint256)... */\n      swap1\n      jump\t// out\n        /* \"val67.sol\":17303:17329  uint256 public lastGasUsed */\n    tag_33:\n      sload(0x03)\n      dup2\n      jump\t// out\n        /* \"val67.sol\":17248:17271  uint256 public finalSum */\n    tag_36:\n      sload(0x02)\n      dup2\n      jump\t// out\n        /* \"val67.sol\":17364:17398  ExternalProcessor public processor */\n    tag_39:\n      0x04\n      0x00\n      swap1\n      sload\n      swap1\n      0x0100\n      exp\n      swap1\n      div\n      0xffffffffffffffffffffffffffffffffffffffff\n      and\n      dup2\n      jump\t// out\n        /* \"#utility.yul\":7:84   */\n    tag_71:\n        /* \"#utility.yul\":44:51   */\n      0x00\n        /* \"#utility.yul\":73:78   */\n      dup2\n        /* \"#utility.yul\":62:78   */\n      swap1\n      pop\n        /* \"#utility.yul\":7:84   */\n      swap2\n      swap1\n      pop\n      jump\t// out\n        /* \"#utility.yul\":90:208   */\n    tag_72:\n        /* \"#utility.yul\":177:201   */\n      tag_88\n        /* \"#utility.yul\":195:200   */\n      dup2\n        /* \"#utility.yul\":177:201   */\n      tag_71\n      jump\t// in\n    tag_88:\n        /* \"#utility.yul\":172:175   */\n      dup3\n        /* \"#utility.yul\":165:202   */\n      mstore\n        /* \"#utility.yul\":90:208   */\n      pop\n      pop\n      jump\t// out\n        /* \"#utility.yul\":214:436   */\n    tag_16:\n        /* \"#utility.yul\":307:311   */\n      0x00\n        /* \"#utility.yul\":345:347   */\n      0x20\n        /* \"#utility.yul\":334:343   */\n      dup3\n        /* \"#utility.yul\":330:348   */\n      add\n        /* \"#utility.yul\":322:348   */\n      swap1\n      pop\n        /* \"#utility.yul\":358:429   */\n      tag_90\n        /* \"#utility.yul\":426:427   */\n      0x00\n        /* \"#utility.yul\":415:424   */\n      dup4\n        /* \"#utility.yul\":411:428   */\n      add\n        /* \"#utility.yul\":402:408   */\n      dup5\n        /* \"#utility.yul\":358:429   */\n      tag_72\n      jump\t// in\n    tag_90:\n        /* \"#utility.yul\":214:436   */\n      swap3\n      swap2\n      pop\n      pop\n      jump\t// out\n        /* \"#utility.yul\":523:640   */\n    tag_74:\n        /* \"#utility.yul\":632:633   */\n      0x00\n        /* \"#utility.yul\":629:630   */\n      0x00\n        /* \"#utility.yul\":622:634   */\n      revert\n        /* \"#utility.yul\":769:891   */\n    tag_76:\n        /* \"#utility.yul\":842:866   */\n      tag_95\n        /* \"#utility.yul\":860:865   */\n      dup2\n        /* \"#utility.yul\":842:866   */\n      tag_71\n      jump\t// in\n    tag_95:\n        /* \"#utility.yul\":835:840   */\n      dup2\n        /* \"#utility.yul\":832:867   */\n      eq\n        /* \"#utility.yul\":822:885   */\n      tag_96\n      jumpi\n        /* \"#utility.yul\":881:882   */\n      0x00\n        /* \"#utility.yul\":878:879   */\n      0x00\n        /* \"#utility.yul\":871:883   */\n      revert\n        /* \"#utility.yul\":822:885   */\n    tag_96:\n        /* \"#utility.yul\":769:891   */\n      pop\n      jump\t// out\n        /* \"#utility.yul\":897:1036   */\n    tag_77:\n        /* \"#utility.yul\":943:948   */\n      0x00\n        /* \"#utility.yul\":981:987   */\n      dup2\n        /* \"#utility.yul\":968:988   */\n      calldataload\n        /* \"#utility.yul\":959:988   */\n      swap1\n      pop\n        /* \"#utility.yul\":997:1030   */\n      tag_98\n        /* \"#utility.yul\":1024:1029   */\n      dup2\n        /* \"#utility.yul\":997:1030   */\n      tag_76\n      jump\t// in\n    tag_98:\n        /* \"#utility.yul\":897:1036   */\n      swap3\n      swap2\n      pop\n      pop\n      jump\t// out\n        /* \"#utility.yul\":1042:1371   */\n    tag_22:\n        /* \"#utility.yul\":1101:1107   */\n      0x00\n        /* \"#utility.yul\":1150:1152   */\n      0x20\n        /* \"#utility.yul\":1138:1147   */\n      dup3\n        /* \"#utility.yul\":1129:1136   */\n      dup5\n        /* \"#utility.yul\":1125:1148   */\n      sub\n        /* \"#utility.yul\":1121:1153   */\n      slt\n        /* \"#utility.yul\":1118:1237   */\n      iszero\n      tag_100\n      jumpi\n        /* \"#utility.yul\":1156:1235   */\n      tag_101\n      tag_74\n      jump\t// in\n    tag_101:\n        /* \"#utility.yul\":1118:1237   */\n    tag_100:\n        /* \"#utility.yul\":1276:1277   */\n      0x00\n        /* \"#utility.yul\":1301:1354   */\n      tag_102\n        /* \"#utility.yul\":1346:1353   */\n      dup5\n        /* \"#utility.yul\":1337:1343   */\n      dup3\n        /* \"#utility.yul\":1326:1335   */\n      dup6\n        /* \"#utility.yul\":1322:1344   */\n      add\n        /* \"#utility.yul\":1301:1354   */\n      tag_77\n      jump\t// in\n    tag_102:\n        /* \"#utility.yul\":1291:1354   */\n      swap2\n      pop\n        /* \"#utility.yul\":1247:1364   */\n      pop\n        /* \"#utility.yul\":1042:1371   */\n      swap3\n      swap2\n      pop\n      pop\n      jump\t// out\n        /* \"#utility.yul\":1377:1503   */\n    tag_78:\n        /* \"#utility.yul\":1414:1421   */\n      0x00\n        /* \"#utility.yul\":1454:1496   */\n      0xffffffffffffffffffffffffffffffffffffffff\n        /* \"#utility.yul\":1447:1452   */\n      dup3\n        /* \"#utility.yul\":1443:1497   */\n      and\n        /* \"#utility.yul\":1432:1497   */\n      swap1\n      pop\n        /* \"#utility.yul\":1377:1503   */\n      swap2\n      swap1\n      pop\n      jump\t// out\n        /* \"#utility.yul\":1509:1569   */\n    tag_79:\n        /* \"#utility.yul\":1537:1540   */\n      0x00\n        /* \"#utility.yul\":1558:1563   */\n      dup2\n        /* \"#utility.yul\":1551:1563   */\n      swap1\n      pop\n        /* \"#utility.yul\":1509:1569   */\n      swap2\n      swap1\n      pop\n      jump\t// out\n        /* \"#utility.yul\":1575:1717   */\n    tag_80:\n        /* \"#utility.yul\":1625:1634   */\n      0x00\n        /* \"#utility.yul\":1658:1711   */\n      tag_106\n        /* \"#utility.yul\":1676:1710   */\n      tag_107\n        /* \"#utility.yul\":1685:1709   */\n      tag_108\n        /* \"#utility.yul\":1703:1708   */\n      dup5\n        /* \"#utility.yul\":1685:1709   */\n      tag_78\n      jump\t// in\n    tag_108:\n        /* \"#utility.yul\":1676:1710   */\n      tag_79\n      jump\t// in\n    tag_107:\n        /* \"#utility.yul\":1658:1711   */\n      tag_78\n      jump\t// in\n    tag_106:\n        /* \"#utility.yul\":1645:1711   */\n      swap1\n      pop\n        /* \"#utility.yul\":1575:1717   */\n      swap2\n      swap1\n      pop\n      jump\t// out\n        /* \"#utility.yul\":1723:1849   */\n    tag_81:\n        /* \"#utility.yul\":1773:1782   */\n      0x00\n        /* \"#utility.yul\":1806:1843   */\n      tag_110\n        /* \"#utility.yul\":1837:1842   */\n      dup3\n        /* \"#utility.yul\":1806:1843   */\n      tag_80\n      jump\t// in\n    tag_110:\n        /* \"#utility.yul\":1793:1843   */\n      swap1\n      pop\n        /* \"#utility.yul\":1723:1849   */\n      swap2\n      swap1\n      pop\n      jump\t// out\n        /* \"#utility.yul\":1855:2005   */\n    tag_82:\n        /* \"#utility.yul\":1929:1938   */\n      0x00\n        /* \"#utility.yul\":1962:1999   */\n      tag_112\n        /* \"#utility.yul\":1993:1998   */\n      dup3\n        /* \"#utility.yul\":1962:1999   */\n      tag_81\n      jump\t// in\n    tag_112:\n        /* \"#utility.yul\":1949:1999   */\n      swap1\n      pop\n        /* \"#utility.yul\":1855:2005   */\n      swap2\n      swap1\n      pop\n      jump\t// out\n        /* \"#utility.yul\":2011:2190   */\n    tag_83:\n        /* \"#utility.yul\":2122:2183   */\n      tag_114\n        /* \"#utility.yul\":2177:2182   */\n      dup2\n        /* \"#utility.yul\":2122:2183   */\n      tag_82\n      jump\t// in\n    tag_114:\n        /* \"#utility.yul\":2117:2120   */\n      dup3\n        /* \"#utility.yul\":2110:2184   */\n      mstore\n        /* \"#utility.yul\":2011:2190   */\n      pop\n      pop\n      jump\t// out\n        /* \"#utility.yul\":2196:2466   */\n    tag_41:\n        /* \"#utility.yul\":2313:2317   */\n      0x00\n        /* \"#utility.yul\":2351:2353   */\n      0x20\n        /* \"#utility.yul\":2340:2349   */\n      dup3\n        /* \"#utility.yul\":2336:2354   */\n      add\n        /* \"#utility.yul\":2328:2354   */\n      swap1\n      pop\n        /* \"#utility.yul\":2364:2459   */\n      tag_116\n        /* \"#utility.yul\":2456:2457   */\n      0x00\n        /* \"#utility.yul\":2445:2454   */\n      dup4\n        /* \"#utility.yul\":2441:2458   */\n      add\n        /* \"#utility.yul\":2432:2438   */\n      dup5\n        /* \"#utility.yul\":2364:2459   */\n      tag_83\n      jump\t// in\n    tag_116:\n        /* \"#utility.yul\":2196:2466   */\n      swap3\n      swap2\n      pop\n      pop\n      jump\t// out\n        /* \"#utility.yul\":2472:2652   */\n    tag_84:\n        /* \"#utility.yul\":2520:2597   */\n      0x4e487b7100000000000000000000000000000000000000000000000000000000\n        /* \"#utility.yul\":2517:2518   */\n      0x00\n        /* \"#utility.yul\":2510:2598   */\n      mstore\n        /* \"#utility.yul\":2617:2621   */\n      0x11\n        /* \"#utility.yul\":2614:2615   */\n      0x04\n        /* \"#utility.yul\":2607:2622   */\n      mstore\n        /* \"#utility.yul\":2641:2645   */\n      0x24\n        /* \"#utility.yul\":2638:2639   */\n      0x00\n        /* \"#utility.yul\":2631:2646   */\n      revert\n        /* \"#utility.yul\":2658:2849   */\n    tag_50:\n        /* \"#utility.yul\":2698:2701   */\n      0x00\n        /* \"#utility.yul\":2717:2737   */\n      tag_119\n        /* \"#utility.yul\":2735:2736   */\n      dup3\n        /* \"#utility.yul\":2717:2737   */\n      tag_71\n      jump\t// in\n    tag_119:\n        /* \"#utility.yul\":2712:2737   */\n      swap2\n      pop\n        /* \"#utility.yul\":2751:2771   */\n      tag_120\n        /* \"#utility.yul\":2769:2770   */\n      dup4\n        /* \"#utility.yul\":2751:2771   */\n      tag_71\n      jump\t// in\n    tag_120:\n        /* \"#utility.yul\":2746:2771   */\n      swap3\n      pop\n        /* \"#utility.yul\":2794:2795   */\n      dup3\n        /* \"#utility.yul\":2791:2792   */\n      dup3\n        /* \"#utility.yul\":2787:2796   */\n      add\n        /* \"#utility.yul\":2780:2796   */\n      swap1\n      pop\n        /* \"#utility.yul\":2815:2818   */\n      dup1\n        /* \"#utility.yul\":2812:2813   */\n      dup3\n        /* \"#utility.yul\":2809:2819   */\n      gt\n        /* \"#utility.yul\":2806:2842   */\n      iszero\n      tag_121\n      jumpi\n        /* \"#utility.yul\":2822:2840   */\n      tag_122\n      tag_84\n      jump\t// in\n    tag_122:\n        /* \"#utility.yul\":2806:2842   */\n    tag_121:\n        /* \"#utility.yul\":2658:2849   */\n      swap3\n      swap2\n      pop\n      pop\n      jump\t// out\n        /* \"#utility.yul\":2855:3049   */\n    tag_52:\n        /* \"#utility.yul\":2895:2899   */\n      0x00\n        /* \"#utility.yul\":2915:2935   */\n      tag_124\n        /* \"#utility.yul\":2933:2934   */\n      dup3\n        /* \"#utility.yul\":2915:2935   */\n      tag_71\n      jump\t// in\n    tag_124:\n        /* \"#utility.yul\":2910:2935   */\n      swap2\n      pop\n        /* \"#utility.yul\":2949:2969   */\n      tag_125\n        /* \"#utility.yul\":2967:2968   */\n      dup4\n        /* \"#utility.yul\":2949:2969   */\n      tag_71\n      jump\t// in\n    tag_125:\n        /* \"#utility.yul\":2944:2969   */\n      swap3\n      pop\n        /* \"#utility.yul\":2993:2994   */\n      dup3\n        /* \"#utility.yul\":2990:2991   */\n      dup3\n        /* \"#utility.yul\":2986:2995   */\n      sub\n        /* \"#utility.yul\":2978:2995   */\n      swap1\n      pop\n        /* \"#utility.yul\":3017:3018   */\n      dup2\n        /* \"#utility.yul\":3011:3015   */\n      dup2\n        /* \"#utility.yul\":3008:3019   */\n      gt\n        /* \"#utility.yul\":3005:3042   */\n      iszero\n      tag_126\n      jumpi\n        /* \"#utility.yul\":3022:3040   */\n      tag_127\n      tag_84\n      jump\t// in\n    tag_127:\n        /* \"#utility.yul\":3005:3042   */\n    tag_126:\n        /* \"#utility.yul\":2855:3049   */\n      swap3\n      swap2\n      pop\n      pop\n      jump\t// out\n        /* \"#utility.yul\":3055:3387   */\n    tag_54:\n        /* \"#utility.yul\":3176:3180   */\n      0x00\n        /* \"#utility.yul\":3214:3216   */\n      0x40\n        /* \"#utility.yul\":3203:3212   */\n      dup3\n        /* \"#utility.yul\":3199:3217   */\n      add\n        /* \"#utility.yul\":3191:3217   */\n      swap1\n      pop\n        /* \"#utility.yul\":3227:3298   */\n      tag_129\n        /* \"#utility.yul\":3295:3296   */\n      0x00\n        /* \"#utility.yul\":3284:3293   */\n      dup4\n        /* \"#utility.yul\":3280:3297   */\n      add\n        /* \"#utility.yul\":3271:3277   */\n      dup6\n        /* \"#utility.yul\":3227:3298   */\n      tag_72\n      jump\t// in\n    tag_129:\n        /* \"#utility.yul\":3308:3380   */\n      tag_130\n        /* \"#utility.yul\":3376:3378   */\n      0x20\n        /* \"#utility.yul\":3365:3374   */\n      dup4\n        /* \"#utility.yul\":3361:3379   */\n      add\n        /* \"#utility.yul\":3352:3358   */\n      dup5\n        /* \"#utility.yul\":3308:3380   */\n      tag_72\n      jump\t// in\n    tag_130:\n        /* \"#utility.yul\":3055:3387   */\n      swap4\n      swap3\n      pop\n      pop\n      pop\n      jump\t// out\n        /* \"#utility.yul\":3393:3626   */\n    tag_62:\n        /* \"#utility.yul\":3432:3435   */\n      0x00\n        /* \"#utility.yul\":3455:3479   */\n      tag_132\n        /* \"#utility.yul\":3473:3478   */\n      dup3\n        /* \"#utility.yul\":3455:3479   */\n      tag_71\n      jump\t// in\n    tag_132:\n        /* \"#utility.yul\":3446:3479   */\n      swap2\n      pop\n        /* \"#utility.yul\":3501:3567   */\n      0xffffffffffffffffffffffffffffffffffffffffffffffffffffffffffffffff\n        /* \"#utility.yul\":3494:3499   */\n      dup3\n        /* \"#utility.yul\":3491:3568   */\n      sub\n        /* \"#utility.yul\":3488:3591   */\n      tag_133\n      jumpi\n        /* \"#utility.yul\":3571:3589   */\n      tag_134\n      tag_84\n      jump\t// in\n    tag_134:\n        /* \"#utility.yul\":3488:3591   */\n    tag_133:\n        /* \"#utility.yul\":3618:3619   */\n      0x01\n        /* \"#utility.yul\":3611:3616   */\n      dup3\n        /* \"#utility.yul\":3607:3620   */\n      add\n        /* \"#utility.yul\":3600:3620   */\n      swap1\n      pop\n        /* \"#utility.yul\":3393:3626   */\n      swap2\n      swap1\n      pop\n      jump\t// out\n\n    auxdata: 0xa26469706673582212208f36fbfa7bf3eb81521769e21aa8e622e741c3ff1831863af711a09f4338226664736f6c63430008220033\n}\n",
				"bytecode": {
					"linkReferences": {},
					"object": "608060405234801561000f575f5ffd5b50604051610766380380610766833981810160405281019061003191906100d5565b8060045f6101000a81548173ffffffffffffffffffffffffffffffffffffffff021916908373ffffffffffffffffffffffffffffffffffffffff16021790555050610100565b5f5ffd5b5f73ffffffffffffffffffffffffffffffffffffffff82169050919050565b5f6100a48261007b565b9050919050565b6100b48161009a565b81146100be575f5ffd5b50565b5f815190506100cf816100ab565b92915050565b5f602082840312156100ea576100e9610077565b5b5f6100f7848285016100c1565b91505092915050565b6106598061010d5f395ff3fe608060405234801561000f575f5ffd5b5060043610610091575f3560e01c8063777182ed11610064578063777182ed1461010b5780638b7afe2e1461011557806395c570bd14610133578063c87fde3214610151578063ce1b1d431461016f57610091565b80630849cc9914610095578063283c91f4146100b35780635e383d21146100d1578063607cf74414610101575b5f5ffd5b61009d61018d565b6040516100aa919061041d565b60405180910390f35b6100bb610198565b6040516100c8919061041d565b60405180910390f35b6100eb60048036038101906100e69190610464565b61019e565b6040516100f8919061041d565b60405180910390f35b6101096101bd565b005b610113610248565b005b61011d6103cd565b60405161012a919061041d565b60405180910390f35b61013b6103d4565b604051610148919061041d565b60405180910390f35b6101596103da565b604051610166919061041d565b60405180910390f35b6101776103e0565b6040516101849190610509565b60405180910390f35b5f5f80549050905090565b60015481565b5f81815481106101ac575f80fd5b905f5260205f20015f915090505481565b5f5a90505f5f90505f5f90505b6103e88110156101ef5780826101e0919061054f565b915080806001019150506101ca565b50806002819055505a826102039190610582565b6003819055507f87243bf8585d1956697e216ae0fb5b1fd23f985b1af093eacee6788f515314ac6003548260405161023c9291906105b5565b60405180910390a15050565b5f5a90505f5f90505f5f90505b6103e881101561037457808261026b919061054f565b91505f81908060018154018082558091505060019003905f5260205f20015f909190919091505560015f8154809291906102a4906105dc565b919050555060045f9054906101000a900473ffffffffffffffffffffffffffffffffffffffff1673ffffffffffffffffffffffffffffffffffffffff1663948e3bdb826040518263ffffffff1660e01b8152600401610303919061041d565b5f604051808303815f87803b15801561031a575f5ffd5b505af115801561032c573d5f5f3e3d5ffd5b505050507ffcdc2b64b85e0f44828957876c2d223cf1144a517b84bffb4ff0d90316bcc72f8160405161035f919061041d565b60405180910390a18080600101915050610255565b50806002819055505a826103889190610582565b6003819055507f87243bf8585d1956697e216ae0fb5b1fd23f985b1af093eacee6788f515314ac600354826040516103c19291906105b5565b60405180910390a15050565b5f47905090565b60035481565b60025481565b60045f9054906101000a900473ffffffffffffffffffffffffffffffffffffffff1681565b5f819050919050565b61041781610405565b82525050565b5f6020820190506104305f83018461040e565b92915050565b5f5ffd5b61044381610405565b811461044d575f5ffd5b50565b5f8135905061045e8161043a565b92915050565b5f6020828403121561047957610478610436565b5b5f61048684828501610450565b91505092915050565b5f73ffffffffffffffffffffffffffffffffffffffff82169050919050565b5f819050919050565b5f6104d16104cc6104c78461048f565b6104ae565b61048f565b9050919050565b5f6104e2826104b7565b9050919050565b5f6104f3826104d8565b9050919050565b610503816104e9565b82525050565b5f60208201905061051c5f8301846104fa565b92915050565b7f4e487b71000000000000000000000000000000000000000000000000000000005f52601160045260245ffd5b5f61055982610405565b915061056483610405565b925082820190508082111561057c5761057b610522565b5b92915050565b5f61058c82610405565b915061059783610405565b92508282039050818111156105af576105ae610522565b5b92915050565b5f6040820190506105c85f83018561040e565b6105d5602083018461040e565b9392505050565b5f6105e682610405565b91507fffffffffffffffffffffffffffffffffffffffffffffffffffffffffffffffff820361061857610617610522565b5b60018201905091905056fea26469706673582212208f36fbfa7bf3eb81521769e21aa8e622e741c3ff1831863af711a09f4338226664736f6c63430008220033",
					"opcodes": "PUSH1 0x80 PUSH1 0x40 MSTORE CALLVALUE DUP1 ISZERO PUSH2 0xF JUMPI PUSH0 PUSH0 REVERT JUMPDEST POP PUSH1 0x40 MLOAD PUSH2 0x766 CODESIZE SUB DUP1 PUSH2 0x766 DUP4 CODECOPY DUP2 DUP2 ADD PUSH1 0x40 MSTORE DUP2 ADD SWAP1 PUSH2 0x31 SWAP2 SWAP1 PUSH2 0xD5 JUMP JUMPDEST DUP1 PUSH1 0x4 PUSH0 PUSH2 0x100 EXP DUP2 SLOAD DUP2 PUSH20 0xFFFFFFFFFFFFFFFFFFFFFFFFFFFFFFFFFFFFFFFF MUL NOT AND SWAP1 DUP4 PUSH20 0xFFFFFFFFFFFFFFFFFFFFFFFFFFFFFFFFFFFFFFFF AND MUL OR SWAP1 SSTORE POP POP PUSH2 0x100 JUMP JUMPDEST PUSH0 PUSH0 REVERT JUMPDEST PUSH0 PUSH20 0xFFFFFFFFFFFFFFFFFFFFFFFFFFFFFFFFFFFFFFFF DUP3 AND SWAP1 POP SWAP2 SWAP1 POP JUMP JUMPDEST PUSH0 PUSH2 0xA4 DUP3 PUSH2 0x7B JUMP JUMPDEST SWAP1 POP SWAP2 SWAP1 POP JUMP JUMPDEST PUSH2 0xB4 DUP2 PUSH2 0x9A JUMP JUMPDEST DUP2 EQ PUSH2 0xBE JUMPI PUSH0 PUSH0 REVERT JUMPDEST POP JUMP JUMPDEST PUSH0 DUP2 MLOAD SWAP1 POP PUSH2 0xCF DUP2 PUSH2 0xAB JUMP JUMPDEST SWAP3 SWAP2 POP POP JUMP JUMPDEST PUSH0 PUSH1 0x20 DUP3 DUP5 SUB SLT ISZERO PUSH2 0xEA JUMPI PUSH2 0xE9 PUSH2 0x77 JUMP JUMPDEST JUMPDEST PUSH0 PUSH2 0xF7 DUP5 DUP3 DUP6 ADD PUSH2 0xC1 JUMP JUMPDEST SWAP2 POP POP SWAP3 SWAP2 POP POP JUMP JUMPDEST PUSH2 0x659 DUP1 PUSH2 0x10D PUSH0 CODECOPY PUSH0 RETURN INVALID PUSH1 0x80 PUSH1 0x40 MSTORE CALLVALUE DUP1 ISZERO PUSH2 0xF JUMPI PUSH0 PUSH0 REVERT JUMPDEST POP PUSH1 0x4 CALLDATASIZE LT PUSH2 0x91 JUMPI PUSH0 CALLDATALOAD PUSH1 0xE0 SHR DUP1 PUSH4 0x777182ED GT PUSH2 0x64 JUMPI DUP1 PUSH4 0x777182ED EQ PUSH2 0x10B JUMPI DUP1 PUSH4 0x8B7AFE2E EQ PUSH2 0x115 JUMPI DUP1 PUSH4 0x95C570BD EQ PUSH2 0x133 JUMPI DUP1 PUSH4 0xC87FDE32 EQ PUSH2 0x151 JUMPI DUP1 PUSH4 0xCE1B1D43 EQ PUSH2 0x16F JUMPI PUSH2 0x91 JUMP JUMPDEST DUP1 PUSH4 0x849CC99 EQ PUSH2 0x95 JUMPI DUP1 PUSH4 0x283C91F4 EQ PUSH2 0xB3 JUMPI DUP1 PUSH4 0x5E383D21 EQ PUSH2 0xD1 JUMPI DUP1 PUSH4 0x607CF744 EQ PUSH2 0x101 JUMPI JUMPDEST PUSH0 PUSH0 REVERT JUMPDEST PUSH2 0x9D PUSH2 0x18D JUMP JUMPDEST PUSH1 0x40 MLOAD PUSH2 0xAA SWAP2 SWAP1 PUSH2 0x41D JUMP JUMPDEST PUSH1 0x40 MLOAD DUP1 SWAP2 SUB SWAP1 RETURN JUMPDEST PUSH2 0xBB PUSH2 0x198 JUMP JUMPDEST PUSH1 0x40 MLOAD PUSH2 0xC8 SWAP2 SWAP1 PUSH2 0x41D JUMP JUMPDEST PUSH1 0x40 MLOAD DUP1 SWAP2 SUB SWAP1 RETURN JUMPDEST PUSH2 0xEB PUSH1 0x4 DUP1 CALLDATASIZE SUB DUP2 ADD SWAP1 PUSH2 0xE6 SWAP2 SWAP1 PUSH2 0x464 JUMP JUMPDEST PUSH2 0x19E JUMP JUMPDEST PUSH1 0x40 MLOAD PUSH2 0xF8 SWAP2 SWAP1 PUSH2 0x41D JUMP JUMPDEST PUSH1 0x40 MLOAD DUP1 SWAP2 SUB SWAP1 RETURN JUMPDEST PUSH2 0x109 PUSH2 0x1BD JUMP JUMPDEST STOP JUMPDEST PUSH2 0x113 PUSH2 0x248 JUMP JUMPDEST STOP JUMPDEST PUSH2 0x11D PUSH2 0x3CD JUMP JUMPDEST PUSH1 0x40 MLOAD PUSH2 0x12A SWAP2 SWAP1 PUSH2 0x41D JUMP JUMPDEST PUSH1 0x40 MLOAD DUP1 SWAP2 SUB SWAP1 RETURN JUMPDEST PUSH2 0x13B PUSH2 0x3D4 JUMP JUMPDEST PUSH1 0x40 MLOAD PUSH2 0x148 SWAP2 SWAP1 PUSH2 0x41D JUMP JUMPDEST PUSH1 0x40 MLOAD DUP1 SWAP2 SUB SWAP1 RETURN JUMPDEST PUSH2 0x159 PUSH2 0x3DA JUMP JUMPDEST PUSH1 0x40 MLOAD PUSH2 0x166 SWAP2 SWAP1 PUSH2 0x41D JUMP JUMPDEST PUSH1 0x40 MLOAD DUP1 SWAP2 SUB SWAP1 RETURN JUMPDEST PUSH2 0x177 PUSH2 0x3E0 JUMP JUMPDEST PUSH1 0x40 MLOAD PUSH2 0x184 SWAP2 SWAP1 PUSH2 0x509 JUMP JUMPDEST PUSH1 0x40 MLOAD DUP1 SWAP2 SUB SWAP1 RETURN JUMPDEST PUSH0 PUSH0 DUP1 SLOAD SWAP1 POP SWAP1 POP SWAP1 JUMP JUMPDEST PUSH1 0x1 SLOAD DUP2 JUMP JUMPDEST PUSH0 DUP2 DUP2 SLOAD DUP2 LT PUSH2 0x1AC JUMPI PUSH0 DUP1 REVERT JUMPDEST SWAP1 PUSH0 MSTORE PUSH1 0x20 PUSH0 KECCAK256 ADD PUSH0 SWAP2 POP SWAP1 POP SLOAD DUP2 JUMP JUMPDEST PUSH0 GAS SWAP1 POP PUSH0 PUSH0 SWAP1 POP PUSH0 PUSH0 SWAP1 POP JUMPDEST PUSH2 0x3E8 DUP2 LT ISZERO PUSH2 0x1EF JUMPI DUP1 DUP3 PUSH2 0x1E0 SWAP2 SWAP1 PUSH2 0x54F JUMP JUMPDEST SWAP2 POP DUP1 DUP1 PUSH1 0x1 ADD SWAP2 POP POP PUSH2 0x1CA JUMP JUMPDEST POP DUP1 PUSH1 0x2 DUP2 SWAP1 SSTORE POP GAS DUP3 PUSH2 0x203 SWAP2 SWAP1 PUSH2 0x582 JUMP JUMPDEST PUSH1 0x3 DUP2 SWAP1 SSTORE POP PUSH32 0x87243BF8585D1956697E216AE0FB5B1FD23F985B1AF093EACEE6788F515314AC PUSH1 0x3 SLOAD DUP3 PUSH1 0x40 MLOAD PUSH2 0x23C SWAP3 SWAP2 SWAP1 PUSH2 0x5B5 JUMP JUMPDEST PUSH1 0x40 MLOAD DUP1 SWAP2 SUB SWAP1 LOG1 POP POP JUMP JUMPDEST PUSH0 GAS SWAP1 POP PUSH0 PUSH0 SWAP1 POP PUSH0 PUSH0 SWAP1 POP JUMPDEST PUSH2 0x3E8 DUP2 LT ISZERO PUSH2 0x374 JUMPI DUP1 DUP3 PUSH2 0x26B SWAP2 SWAP1 PUSH2 0x54F JUMP JUMPDEST SWAP2 POP PUSH0 DUP2 SWAP1 DUP1 PUSH1 0x1 DUP2 SLOAD ADD DUP1 DUP3 SSTORE DUP1 SWAP2 POP POP PUSH1 0x1 SWAP1 SUB SWAP1 PUSH0 MSTORE PUSH1 0x20 PUSH0 KECCAK256 ADD PUSH0 SWAP1 SWAP2 SWAP1 SWAP2 SWAP1 SWAP2 POP SSTORE PUSH1 0x1 PUSH0 DUP2 SLOAD DUP1 SWAP3 SWAP2 SWAP1 PUSH2 0x2A4 SWAP1 PUSH2 0x5DC JUMP JUMPDEST SWAP2 SWAP1 POP SSTORE POP PUSH1 0x4 PUSH0 SWAP1 SLOAD SWAP1 PUSH2 0x100 EXP SWAP1 DIV PUSH20 0xFFFFFFFFFFFFFFFFFFFFFFFFFFFFFFFFFFFFFFFF AND PUSH20 0xFFFFFFFFFFFFFFFFFFFFFFFFFFFFFFFFFFFFFFFF AND PUSH4 0x948E3BDB DUP3 PUSH1 0x40 MLOAD DUP3 PUSH4 0xFFFFFFFF AND PUSH1 0xE0 SHL DUP2 MSTORE PUSH1 0x4 ADD PUSH2 0x303 SWAP2 SWAP1 PUSH2 0x41D JUMP JUMPDEST PUSH0 PUSH1 0x40 MLOAD DUP1 DUP4 SUB DUP2 PUSH0 DUP8 DUP1 EXTCODESIZE ISZERO DUP1 ISZERO PUSH2 0x31A JUMPI PUSH0 PUSH0 REVERT JUMPDEST POP GAS CALL ISZERO DUP1 ISZERO PUSH2 0x32C JUMPI RETURNDATASIZE PUSH0 PUSH0 RETURNDATACOPY RETURNDATASIZE PUSH0 REVERT JUMPDEST POP POP POP POP PUSH32 0xFCDC2B64B85E0F44828957876C2D223CF1144A517B84BFFB4FF0D90316BCC72F DUP2 PUSH1 0x40 MLOAD PUSH2 0x35F SWAP2 SWAP1 PUSH2 0x41D JUMP JUMPDEST PUSH1 0x40 MLOAD DUP1 SWAP2 SUB SWAP1 LOG1 DUP1 DUP1 PUSH1 0x1 ADD SWAP2 POP POP PUSH2 0x255 JUMP JUMPDEST POP DUP1 PUSH1 0x2 DUP2 SWAP1 SSTORE POP GAS DUP3 PUSH2 0x388 SWAP2 SWAP1 PUSH2 0x582 JUMP JUMPDEST PUSH1 0x3 DUP2 SWAP1 SSTORE POP PUSH32 0x87243BF8585D1956697E216AE0FB5B1FD23F985B1AF093EACEE6788F515314AC PUSH1 0x3 SLOAD DUP3 PUSH1 0x40 MLOAD PUSH2 0x3C1 SWAP3 SWAP2 SWAP1 PUSH2 0x5B5 JUMP JUMPDEST PUSH1 0x40 MLOAD DUP1 SWAP2 SUB SWAP1 LOG1 POP POP JUMP JUMPDEST PUSH0 SELFBALANCE SWAP1 POP SWAP1 JUMP JUMPDEST PUSH1 0x3 SLOAD DUP2 JUMP JUMPDEST PUSH1 0x2 SLOAD DUP2 JUMP JUMPDEST PUSH1 0x4 PUSH0 SWAP1 SLOAD SWAP1 PUSH2 0x100 EXP SWAP1 DIV PUSH20 0xFFFFFFFFFFFFFFFFFFFFFFFFFFFFFFFFFFFFFFFF AND DUP2 JUMP JUMPDEST PUSH0 DUP2 SWAP1 POP SWAP2 SWAP1 POP JUMP JUMPDEST PUSH2 0x417 DUP2 PUSH2 0x405 JUMP JUMPDEST DUP3 MSTORE POP POP JUMP JUMPDEST PUSH0 PUSH1 0x20 DUP3 ADD SWAP1 POP PUSH2 0x430 PUSH0 DUP4 ADD DUP5 PUSH2 0x40E JUMP JUMPDEST SWAP3 SWAP2 POP POP JUMP JUMPDEST PUSH0 PUSH0 REVERT JUMPDEST PUSH2 0x443 DUP2 PUSH2 0x405 JUMP JUMPDEST DUP2 EQ PUSH2 0x44D JUMPI PUSH0 PUSH0 REVERT JUMPDEST POP JUMP JUMPDEST PUSH0 DUP2 CALLDATALOAD SWAP1 POP PUSH2 0x45E DUP2 PUSH2 0x43A JUMP JUMPDEST SWAP3 SWAP2 POP POP JUMP JUMPDEST PUSH0 PUSH1 0x20 DUP3 DUP5 SUB SLT ISZERO PUSH2 0x479 JUMPI PUSH2 0x478 PUSH2 0x436 JUMP JUMPDEST JUMPDEST PUSH0 PUSH2 0x486 DUP5 DUP3 DUP6 ADD PUSH2 0x450 JUMP JUMPDEST SWAP2 POP POP SWAP3 SWAP2 POP POP JUMP JUMPDEST PUSH0 PUSH20 0xFFFFFFFFFFFFFFFFFFFFFFFFFFFFFFFFFFFFFFFF DUP3 AND SWAP1 POP SWAP2 SWAP1 POP JUMP JUMPDEST PUSH0 DUP2 SWAP1 POP SWAP2 SWAP1 POP JUMP JUMPDEST PUSH0 PUSH2 0x4D1 PUSH2 0x4CC PUSH2 0x4C7 DUP5 PUSH2 0x48F JUMP JUMPDEST PUSH2 0x4AE JUMP JUMPDEST PUSH2 0x48F JUMP JUMPDEST SWAP1 POP SWAP2 SWAP1 POP JUMP JUMPDEST PUSH0 PUSH2 0x4E2 DUP3 PUSH2 0x4B7 JUMP JUMPDEST SWAP1 POP SWAP2 SWAP1 POP JUMP JUMPDEST PUSH0 PUSH2 0x4F3 DUP3 PUSH2 0x4D8 JUMP JUMPDEST SWAP1 POP SWAP2 SWAP1 POP JUMP JUMPDEST PUSH2 0x503 DUP2 PUSH2 0x4E9 JUMP JUMPDEST DUP3 MSTORE POP POP JUMP JUMPDEST PUSH0 PUSH1 0x20 DUP3 ADD SWAP1 POP PUSH2 0x51C PUSH0 DUP4 ADD DUP5 PUSH2 0x4FA JUMP JUMPDEST SWAP3 SWAP2 POP POP JUMP JUMPDEST PUSH32 0x4E487B7100000000000000000000000000000000000000000000000000000000 PUSH0 MSTORE PUSH1 0x11 PUSH1 0x4 MSTORE PUSH1 0x24 PUSH0 REVERT JUMPDEST PUSH0 PUSH2 0x559 DUP3 PUSH2 0x405 JUMP JUMPDEST SWAP2 POP PUSH2 0x564 DUP4 PUSH2 0x405 JUMP JUMPDEST SWAP3 POP DUP3 DUP3 ADD SWAP1 POP DUP1 DUP3 GT ISZERO PUSH2 0x57C JUMPI PUSH2 0x57B PUSH2 0x522 JUMP JUMPDEST JUMPDEST SWAP3 SWAP2 POP POP JUMP JUMPDEST PUSH0 PUSH2 0x58C DUP3 PUSH2 0x405 JUMP JUMPDEST SWAP2 POP PUSH2 0x597 DUP4 PUSH2 0x405 JUMP JUMPDEST SWAP3 POP DUP3 DUP3 SUB SWAP1 POP DUP2 DUP2 GT ISZERO PUSH2 0x5AF JUMPI PUSH2 0x5AE PUSH2 0x522 JUMP JUMPDEST JUMPDEST SWAP3 SWAP2 POP POP JUMP JUMPDEST PUSH0 PUSH1 0x40 DUP3 ADD SWAP1 POP PUSH2 0x5C8 PUSH0 DUP4 ADD DUP6 PUSH2 0x40E JUMP JUMPDEST PUSH2 0x5D5 PUSH1 0x20 DUP4 ADD DUP5 PUSH2 0x40E JUMP JUMPDEST SWAP4 SWAP3 POP POP POP JUMP JUMPDEST PUSH0 PUSH2 0x5E6 DUP3 PUSH2 0x405 JUMP JUMPDEST SWAP2 POP PUSH32 0xFFFFFFFFFFFFFFFFFFFFFFFFFFFFFFFFFFFFFFFFFFFFFFFFFFFFFFFFFFFFFFFF DUP3 SUB PUSH2 0x618 JUMPI PUSH2 0x617 PUSH2 0x522 JUMP JUMPDEST JUMPDEST PUSH1 0x1 DUP3 ADD SWAP1 POP SWAP2 SWAP1 POP JUMP INVALID LOG2 PUSH5 0x6970667358 0x22 SLT KECCAK256 DUP16 CALLDATASIZE EXTSTATICCALL STATICCALL PUSH28 0xF3EB81521769E21AA8E622E741C3FF1831863AF711A09F4338226664 PUSH20 0x6F6C634300082200330000000000000000000000 "
				},
				"gasEstimates": {
					"creation": {
						"codeDepositCost": "325000",
						"executionCost": "infinite",
						"totalCost": "infinite"
					},
					"external": {
						"contractBalance()": "356",
						"expensiveLoop10000()": "infinite",
						"finalSum()": "2491",
						"getArrayLength()": "2440",
						"lastGasUsed()": "2469",
						"optimizedLoop1000()": "infinite",
						"processor()": "infinite",
						"totalIterations()": "2448",
						"values(uint256)": "infinite"
					}
				},
				"methodIdentifiers": {
					"contractBalance()": "8b7afe2e",
					"expensiveLoop10000()": "777182ed",
					"finalSum()": "c87fde32",
					"getArrayLength()": "0849cc99",
					"lastGasUsed()": "95c570bd",
					"optimizedLoop1000()": "607cf744",
					"processor()": "ce1b1d43",
					"totalIterations()": "283c91f4",
					"values(uint256)": "5e383d21"
				}
			},
			"storageLayout": {
				"storage": [
					{
						"astId": 99,
						"contract": "val67.sol:GasScalingLoop",
						"label": "values",
						"offset": 0,
						"slot": "0",
						"type": "t_array(t_uint256)dyn_storage"
					},
					{
						"astId": 101,
						"contract": "val67.sol:GasScalingLoop",
						"label": "totalIterations",
						"offset": 0,
						"slot": "1",
						"type": "t_uint256"
					},
					{
						"astId": 103,
						"contract": "val67.sol:GasScalingLoop",
						"label": "finalSum",
						"offset": 0,
						"slot": "2",
						"type": "t_uint256"
					},
					{
						"astId": 105,
						"contract": "val67.sol:GasScalingLoop",
						"label": "lastGasUsed",
						"offset": 0,
						"slot": "3",
						"type": "t_uint256"
					},
					{
						"astId": 108,
						"contract": "val67.sol:GasScalingLoop",
						"label": "processor",
						"offset": 0,
						"slot": "4",
						"type": "t_contract(ExternalProcessor)96"
					}
				],
				"types": {
					"t_array(t_uint256)dyn_storage": {
						"base": "t_uint256",
						"encoding": "dynamic_array",
						"label": "uint256[]",
						"numberOfBytes": "32"
					},
					"t_contract(ExternalProcessor)96": {
						"encoding": "inplace",
						"label": "contract ExternalProcessor",
						"numberOfBytes": "20"
					},
					"t_uint256": {
						"encoding": "inplace",
						"label": "uint256",
						"numberOfBytes": "32"
					}
				}
			},
			"userdoc": {
				"kind": "user",
				"methods": {},
				"version": 1
			}
		}
	}
}