{
	"val35.sol": {
		"ValidateCalldataInput": {
			"abi": [
				{
					"inputs": [],
					"name": "AmountMustBeGreaterThanZero",
					"type": "error"
				},
				{
					"inputs": [],
					"name": "AmountTooLarge",
					"type": "error"
				},
				{
					"inputs": [
						{
							"internalType": "uint256",
							"name": "value",
							"type": "uint256"
						}
					],
					"name": "DuplicateValue",
					"type": "error"
				},
				{
					"inputs": [],
					"name": "InnerArrayTooLarge",
					"type": "error"
				},
				{
					"inputs": [],
					"name": "InvalidAddress",
					"type": "error"
				},
				{
					"inputs": [],
					"name": "OuterArrayTooLarge",
					"type": "error"
				},
				{
					"inputs": [
						{
							"internalType": "uint256",
							"name": "_amount",
							"type": "uint256"
						}
					],
					"name": "deposit",
					"outputs": [],
					"stateMutability": "nonpayable",
					"type": "function"
				},
				{
					"inputs": [],
					"name": "lastReceiver",
					"outputs": [
						{
							"internalType": "address",
							"name": "",
							"type": "address"
						}
					],
					"stateMutability": "view",
					"type": "function"
				},
				{
					"inputs": [
						{
							"internalType": "address",
							"name": "_receiver",
							"type": "address"
						}
					],
					"name": "setReceiver",
					"outputs": [],
					"stateMutability": "nonpayable",
					"type": "function"
				},
				{
					"inputs": [],
					"name": "storedAmount",
					"outputs": [
						{
							"internalType": "uint256",
							"name": "",
							"type": "uint256"
						}
					],
					"stateMutability": "view",
					"type": "function"
				},
				{
					"inputs": [
						{
							"internalType": "string",
							"name": "_message",
							"type": "string"
						}
					],
					"name": "validateMessage",
					"outputs": [
						{
							"internalType": "bool",
							"name": "",
							"type": "bool"
						}
					],
					"stateMutability": "pure",
					"type": "function"
				},
				{
					"inputs": [
						{
							"internalType": "uint256[][]",
							"name": "_matrix",
							"type": "uint256[][]"
						}
					],
					"name": "validateNestedArray",
					"outputs": [
						{
							"internalType": "bool",
							"name": "",
							"type": "bool"
						}
					],
					"stateMutability": "pure",
					"type": "function"
				}
			],
			"devdoc": {
				"kind": "dev",
				"methods": {},
				"version": 1
			},
			"evm": {
				"assembly": "    /* \"val35.sol\":12950:16019  contract ValidateCalldataInput {... */\n  mstore(0x40, 0x80)\n  callvalue\n  dup1\n  iszero\n  tag_1\n  jumpi\n  revert(0x00, 0x00)\ntag_1:\n  pop\n  dataSize(sub_0)\n  dup1\n  dataOffset(sub_0)\n  0x00\n  codecopy\n  0x00\n  return\nstop\n\nsub_0: assembly {\n        /* \"val35.sol\":12950:16019  contract ValidateCalldataInput {... */\n      mstore(0x40, 0x80)\n      callvalue\n      dup1\n      iszero\n      tag_1\n      jumpi\n      revert(0x00, 0x00)\n    tag_1:\n      pop\n      jumpi(tag_2, lt(calldatasize, 0x04))\n      shr(0xe0, calldataload(0x00))\n      dup1\n      0x1d7315cc\n      eq\n      tag_3\n      jumpi\n      dup1\n      0x5cda7927\n      eq\n      tag_4\n      jumpi\n      dup1\n      0x718da7ee\n      eq\n      tag_5\n      jumpi\n      dup1\n      0xb5cc7bd9\n      eq\n      tag_6\n      jumpi\n      dup1\n      0xb6b55f25\n      eq\n      tag_7\n      jumpi\n      dup1\n      0xf8ea8ed0\n      eq\n      tag_8\n      jumpi\n    tag_2:\n      revert(0x00, 0x00)\n        /* \"val35.sol\":13070:13097  uint256 public storedAmount */\n    tag_3:\n      tag_9\n      tag_10\n      jump\t// in\n    tag_9:\n      mload(0x40)\n      tag_11\n      swap2\n      swap1\n      tag_12\n      jump\t// in\n    tag_11:\n      mload(0x40)\n      dup1\n      swap2\n      sub\n      swap1\n      return\n        /* \"val35.sol\":15584:16016  function validateMessage(... */\n    tag_4:\n      tag_13\n      0x04\n      dup1\n      calldatasize\n      sub\n      dup2\n      add\n      swap1\n      tag_14\n      swap2\n      swap1\n      tag_15\n      jump\t// in\n    tag_14:\n      tag_16\n      jump\t// in\n    tag_13:\n      mload(0x40)\n      tag_17\n      swap2\n      swap1\n      tag_18\n      jump\t// in\n    tag_17:\n      mload(0x40)\n      dup1\n      swap2\n      sub\n      swap1\n      return\n        /* \"val35.sol\":14013:14236  function setReceiver(... */\n    tag_5:\n      tag_19\n      0x04\n      dup1\n      calldatasize\n      sub\n      dup2\n      add\n      swap1\n      tag_20\n      swap2\n      swap1\n      tag_21\n      jump\t// in\n    tag_20:\n      tag_22\n      jump\t// in\n    tag_19:\n      stop\n        /* \"val35.sol\":14413:15413  function validateNestedArray(... */\n    tag_6:\n      tag_23\n      0x04\n      dup1\n      calldatasize\n      sub\n      dup2\n      add\n      swap1\n      tag_24\n      swap2\n      swap1\n      tag_25\n      jump\t// in\n    tag_24:\n      tag_26\n      jump\t// in\n    tag_23:\n      mload(0x40)\n      tag_27\n      swap2\n      swap1\n      tag_18\n      jump\t// in\n    tag_27:\n      mload(0x40)\n      dup1\n      swap2\n      sub\n      swap1\n      return\n        /* \"val35.sol\":13535:13841  function deposit(... */\n    tag_7:\n      tag_28\n      0x04\n      dup1\n      calldatasize\n      sub\n      dup2\n      add\n      swap1\n      tag_29\n      swap2\n      swap1\n      tag_30\n      jump\t// in\n    tag_29:\n      tag_31\n      jump\t// in\n    tag_28:\n      stop\n        /* \"val35.sol\":13106:13133  address public lastReceiver */\n    tag_8:\n      tag_32\n      tag_33\n      jump\t// in\n    tag_32:\n      mload(0x40)\n      tag_34\n      swap2\n      swap1\n      tag_35\n      jump\t// in\n    tag_34:\n      mload(0x40)\n      dup1\n      swap2\n      sub\n      swap1\n      return\n        /* \"val35.sol\":13070:13097  uint256 public storedAmount */\n    tag_10:\n      sload(0x00)\n      dup2\n      jump\t// out\n        /* \"val35.sol\":15584:16016  function validateMessage(... */\n    tag_16:\n        /* \"val35.sol\":15701:15705  bool */\n      0x00\n        /* \"val35.sol\":15723:15750  bytes calldata messageBytes */\n      calldatasize\n      0x00\n        /* \"val35.sol\":15772:15780  _message */\n      dup5\n      dup5\n        /* \"val35.sol\":15723:15781  bytes calldata messageBytes =... */\n      swap2\n      pop\n      swap2\n      pop\n        /* \"val35.sol\":15838:15839  0 */\n      0x00\n        /* \"val35.sol\":15816:15828  messageBytes */\n      dup3\n      dup3\n        /* \"val35.sol\":15816:15835  messageBytes.length */\n      swap1\n      pop\n        /* \"val35.sol\":15816:15839  messageBytes.length > 0 */\n      gt\n        /* \"val35.sol\":15794:15880  require(... */\n      tag_37\n      jumpi\n      mload(0x40)\n      0x08c379a000000000000000000000000000000000000000000000000000000000\n      dup2\n      mstore\n      0x04\n      add\n      tag_38\n      swap1\n      tag_39\n      jump\t// in\n    tag_38:\n      mload(0x40)\n      dup1\n      swap2\n      sub\n      swap1\n      revert\n    tag_37:\n        /* \"val35.sol\":15938:15940  50 */\n      0x32\n        /* \"val35.sol\":15915:15927  messageBytes */\n      dup3\n      dup3\n        /* \"val35.sol\":15915:15934  messageBytes.length */\n      swap1\n      pop\n        /* \"val35.sol\":15915:15940  messageBytes.length <= 50 */\n      gt\n      iszero\n        /* \"val35.sol\":15893:15984  require(... */\n      tag_40\n      jumpi\n      mload(0x40)\n      0x08c379a000000000000000000000000000000000000000000000000000000000\n      dup2\n      mstore\n      0x04\n      add\n      tag_41\n      swap1\n      tag_42\n      jump\t// in\n    tag_41:\n      mload(0x40)\n      dup1\n      swap2\n      sub\n      swap1\n      revert\n    tag_40:\n        /* \"val35.sol\":16004:16008  true */\n      0x01\n        /* \"val35.sol\":15997:16008  return true */\n      swap3\n      pop\n      pop\n      pop\n        /* \"val35.sol\":15584:16016  function validateMessage(... */\n      swap3\n      swap2\n      pop\n      pop\n      jump\t// out\n        /* \"val35.sol\":14013:14236  function setReceiver(... */\n    tag_22:\n        /* \"val35.sol\":14146:14147  0 */\n      0x00\n        /* \"val35.sol\":14125:14148  _receiver != address(0) */\n      0xffffffffffffffffffffffffffffffffffffffff\n      and\n        /* \"val35.sol\":14125:14134  _receiver */\n      dup2\n        /* \"val35.sol\":14125:14148  _receiver != address(0) */\n      0xffffffffffffffffffffffffffffffffffffffff\n      and\n      sub\n        /* \"val35.sol\":14103:14191  require(... */\n      tag_44\n      jumpi\n      mload(0x40)\n      0x08c379a000000000000000000000000000000000000000000000000000000000\n      dup2\n      mstore\n      0x04\n      add\n      tag_45\n      swap1\n      tag_46\n      jump\t// in\n    tag_45:\n      mload(0x40)\n      dup1\n      swap2\n      sub\n      swap1\n      revert\n    tag_44:\n        /* \"val35.sol\":14219:14228  _receiver */\n      dup1\n        /* \"val35.sol\":14204:14216  lastReceiver */\n      0x01\n      0x00\n        /* \"val35.sol\":14204:14228  lastReceiver = _receiver */\n      0x0100\n      exp\n      dup2\n      sload\n      dup2\n      0xffffffffffffffffffffffffffffffffffffffff\n      mul\n      not\n      and\n      swap1\n      dup4\n      0xffffffffffffffffffffffffffffffffffffffff\n      and\n      mul\n      or\n      swap1\n      sstore\n      pop\n        /* \"val35.sol\":14013:14236  function setReceiver(... */\n      pop\n      jump\t// out\n        /* \"val35.sol\":14413:15413  function validateNestedArray(... */\n    tag_26:\n        /* \"val35.sol\":14538:14542  bool */\n      0x00\n        /* \"val35.sol\":14581:14583  50 */\n      0x32\n        /* \"val35.sol\":14564:14571  _matrix */\n      dup4\n      dup4\n        /* \"val35.sol\":14564:14578  _matrix.length */\n      swap1\n      pop\n        /* \"val35.sol\":14564:14583  _matrix.length > 50 */\n      gt\n        /* \"val35.sol\":14560:14639  if (_matrix.length > 50) {... */\n      iszero\n      tag_48\n      jumpi\n        /* \"val35.sol\":14607:14627  OuterArrayTooLarge() */\n      mload(0x40)\n      0xa4fa22c400000000000000000000000000000000000000000000000000000000\n      dup2\n      mstore\n      0x04\n      add\n      mload(0x40)\n      dup1\n      swap2\n      sub\n      swap1\n      revert\n        /* \"val35.sol\":14560:14639  if (_matrix.length > 50) {... */\n    tag_48:\n        /* \"val35.sol\":14651:14672  uint256[] memory seen */\n      0x00\n        /* \"val35.sol\":14689:14693  2500 */\n      0x09c4\n        /* \"val35.sol\":14675:14694  new uint256[](2500) */\n      0xffffffffffffffff\n      dup2\n      gt\n      iszero\n      tag_49\n      jumpi\n      tag_50\n      tag_51\n      jump\t// in\n    tag_50:\n    tag_49:\n      mload(0x40)\n      swap1\n      dup1\n      dup3\n      mstore\n      dup1\n      0x20\n      mul\n      0x20\n      add\n      dup3\n      add\n      0x40\n      mstore\n      dup1\n      iszero\n      tag_52\n      jumpi\n      dup2\n      0x20\n      add\n      0x20\n      dup3\n      mul\n      dup1\n      calldatasize\n      dup4\n      calldatacopy\n      dup1\n      dup3\n      add\n      swap2\n      pop\n      pop\n      swap1\n      pop\n    tag_52:\n      pop\n        /* \"val35.sol\":14651:14694  uint256[] memory seen = new uint256[](2500) */\n      swap1\n      pop\n        /* \"val35.sol\":14707:14720  uint256 count */\n      0x00\n        /* \"val35.sol\":14723:14724  0 */\n      0x00\n        /* \"val35.sol\":14707:14724  uint256 count = 0 */\n      swap1\n      pop\n        /* \"val35.sol\":14742:14751  uint256 i */\n      0x00\n        /* \"val35.sol\":14754:14755  0 */\n      0x00\n        /* \"val35.sol\":14742:14755  uint256 i = 0 */\n      swap1\n      pop\n        /* \"val35.sol\":14737:15382  for (uint256 i = 0; i < _matrix.length; i++) {... */\n    tag_53:\n        /* \"val35.sol\":14761:14768  _matrix */\n      dup6\n      dup6\n        /* \"val35.sol\":14761:14775  _matrix.length */\n      swap1\n      pop\n        /* \"val35.sol\":14757:14758  i */\n      dup2\n        /* \"val35.sol\":14757:14775  i < _matrix.length */\n      lt\n        /* \"val35.sol\":14737:15382  for (uint256 i = 0; i < _matrix.length; i++) {... */\n      iszero\n      tag_54\n      jumpi\n        /* \"val35.sol\":14867:14869  50 */\n      0x32\n        /* \"val35.sol\":14847:14854  _matrix */\n      dup7\n      dup7\n        /* \"val35.sol\":14855:14856  i */\n      dup4\n        /* \"val35.sol\":14847:14857  _matrix[i] */\n      dup2\n      dup2\n      lt\n      tag_56\n      jumpi\n      tag_57\n      tag_58\n      jump\t// in\n    tag_57:\n    tag_56:\n      swap1\n      pop\n      0x20\n      mul\n      dup2\n      add\n      swap1\n      tag_59\n      swap2\n      swap1\n      tag_60\n      jump\t// in\n    tag_59:\n        /* \"val35.sol\":14847:14864  _matrix[i].length */\n      swap1\n      pop\n        /* \"val35.sol\":14847:14869  _matrix[i].length > 50 */\n      gt\n        /* \"val35.sol\":14843:14933  if (_matrix[i].length > 50) {... */\n      iszero\n      tag_61\n      jumpi\n        /* \"val35.sol\":14897:14917  InnerArrayTooLarge() */\n      mload(0x40)\n      0x862639e600000000000000000000000000000000000000000000000000000000\n      dup2\n      mstore\n      0x04\n      add\n      mload(0x40)\n      dup1\n      swap2\n      sub\n      swap1\n      revert\n        /* \"val35.sol\":14843:14933  if (_matrix[i].length > 50) {... */\n    tag_61:\n        /* \"val35.sol\":14954:14963  uint256 j */\n      0x00\n        /* \"val35.sol\":14966:14967  0 */\n      0x00\n        /* \"val35.sol\":14954:14967  uint256 j = 0 */\n      swap1\n      pop\n        /* \"val35.sol\":14949:15371  for (uint256 j = 0; j < _matrix[i].length; j++) {... */\n    tag_62:\n        /* \"val35.sol\":14973:14980  _matrix */\n      dup7\n      dup7\n        /* \"val35.sol\":14981:14982  i */\n      dup4\n        /* \"val35.sol\":14973:14983  _matrix[i] */\n      dup2\n      dup2\n      lt\n      tag_65\n      jumpi\n      tag_66\n      tag_58\n      jump\t// in\n    tag_66:\n    tag_65:\n      swap1\n      pop\n      0x20\n      mul\n      dup2\n      add\n      swap1\n      tag_67\n      swap2\n      swap1\n      tag_60\n      jump\t// in\n    tag_67:\n        /* \"val35.sol\":14973:14990  _matrix[i].length */\n      swap1\n      pop\n        /* \"val35.sol\":14969:14970  j */\n      dup2\n        /* \"val35.sol\":14969:14990  j < _matrix[i].length */\n      lt\n        /* \"val35.sol\":14949:15371  for (uint256 j = 0; j < _matrix[i].length; j++) {... */\n      iszero\n      tag_63\n      jumpi\n        /* \"val35.sol\":15018:15031  uint256 value */\n      0x00\n        /* \"val35.sol\":15034:15041  _matrix */\n      dup8\n      dup8\n        /* \"val35.sol\":15042:15043  i */\n      dup5\n        /* \"val35.sol\":15034:15044  _matrix[i] */\n      dup2\n      dup2\n      lt\n      tag_68\n      jumpi\n      tag_69\n      tag_58\n      jump\t// in\n    tag_69:\n    tag_68:\n      swap1\n      pop\n      0x20\n      mul\n      dup2\n      add\n      swap1\n      tag_70\n      swap2\n      swap1\n      tag_60\n      jump\t// in\n    tag_70:\n        /* \"val35.sol\":15045:15046  j */\n      dup4\n        /* \"val35.sol\":15034:15047  _matrix[i][j] */\n      dup2\n      dup2\n      lt\n      tag_71\n      jumpi\n      tag_72\n      tag_58\n      jump\t// in\n    tag_72:\n    tag_71:\n      swap1\n      pop\n      0x20\n      mul\n      add\n      calldataload\n        /* \"val35.sol\":15018:15047  uint256 value = _matrix[i][j] */\n      swap1\n      pop\n        /* \"val35.sol\":15114:15123  uint256 k */\n      0x00\n        /* \"val35.sol\":15126:15127  0 */\n      0x00\n        /* \"val35.sol\":15114:15127  uint256 k = 0 */\n      swap1\n      pop\n        /* \"val35.sol\":15109:15290  for (uint256 k = 0; k < count; k++) {... */\n    tag_73:\n        /* \"val35.sol\":15133:15138  count */\n      dup5\n        /* \"val35.sol\":15129:15130  k */\n      dup2\n        /* \"val35.sol\":15129:15138  k < count */\n      lt\n        /* \"val35.sol\":15109:15290  for (uint256 k = 0; k < count; k++) {... */\n      iszero\n      tag_74\n      jumpi\n        /* \"val35.sol\":15185:15190  value */\n      dup2\n        /* \"val35.sol\":15174:15178  seen */\n      dup7\n        /* \"val35.sol\":15179:15180  k */\n      dup3\n        /* \"val35.sol\":15174:15181  seen[k] */\n      dup2\n      mload\n      dup2\n      lt\n      tag_76\n      jumpi\n      tag_77\n      tag_58\n      jump\t// in\n    tag_77:\n    tag_76:\n      0x20\n      mul\n      0x20\n      add\n      add\n      mload\n        /* \"val35.sol\":15174:15190  seen[k] == value */\n      sub\n        /* \"val35.sol\":15170:15271  if (seen[k] == value) {... */\n      tag_78\n      jumpi\n        /* \"val35.sol\":15241:15246  value */\n      dup2\n        /* \"val35.sol\":15226:15247  DuplicateValue(value) */\n      mload(0x40)\n      0x259e6bf600000000000000000000000000000000000000000000000000000000\n      dup2\n      mstore\n      0x04\n      add\n      tag_79\n      swap2\n      swap1\n      tag_12\n      jump\t// in\n    tag_79:\n      mload(0x40)\n      dup1\n      swap2\n      sub\n      swap1\n      revert\n        /* \"val35.sol\":15170:15271  if (seen[k] == value) {... */\n    tag_78:\n        /* \"val35.sol\":15140:15143  k++ */\n      dup1\n      dup1\n      0x01\n      add\n      swap2\n      pop\n      pop\n        /* \"val35.sol\":15109:15290  for (uint256 k = 0; k < count; k++) {... */\n      jump(tag_73)\n    tag_74:\n      pop\n        /* \"val35.sol\":15324:15329  value */\n      dup1\n        /* \"val35.sol\":15310:15314  seen */\n      dup6\n        /* \"val35.sol\":15315:15320  count */\n      dup6\n        /* \"val35.sol\":15310:15321  seen[count] */\n      dup2\n      mload\n      dup2\n      lt\n      tag_80\n      jumpi\n      tag_81\n      tag_58\n      jump\t// in\n    tag_81:\n    tag_80:\n      0x20\n      mul\n      0x20\n      add\n      add\n        /* \"val35.sol\":15310:15329  seen[count] = value */\n      dup2\n      dup2\n      mstore\n      pop\n      pop\n        /* \"val35.sol\":15348:15355  count++ */\n      dup4\n      dup1\n      tag_82\n      swap1\n      tag_83\n      jump\t// in\n    tag_82:\n      swap5\n      pop\n      pop\n        /* \"val35.sol\":14997:15371  {... */\n      pop\n        /* \"val35.sol\":14992:14995  j++ */\n      dup1\n      dup1\n      0x01\n      add\n      swap2\n      pop\n      pop\n        /* \"val35.sol\":14949:15371  for (uint256 j = 0; j < _matrix[i].length; j++) {... */\n      jump(tag_62)\n    tag_63:\n      pop\n        /* \"val35.sol\":14777:14780  i++ */\n      dup1\n      dup1\n      0x01\n      add\n      swap2\n      pop\n      pop\n        /* \"val35.sol\":14737:15382  for (uint256 i = 0; i < _matrix.length; i++) {... */\n      jump(tag_53)\n    tag_54:\n      pop\n        /* \"val35.sol\":15401:15405  true */\n      0x01\n        /* \"val35.sol\":15394:15405  return true */\n      swap3\n      pop\n      pop\n      pop\n        /* \"val35.sol\":14413:15413  function validateNestedArray(... */\n      swap3\n      swap2\n      pop\n      pop\n      jump\t// out\n        /* \"val35.sol\":13535:13841  function deposit(... */\n    tag_31:\n        /* \"val35.sol\":13651:13652  0 */\n      0x00\n        /* \"val35.sol\":13641:13648  _amount */\n      dup2\n        /* \"val35.sol\":13641:13652  _amount > 0 */\n      gt\n        /* \"val35.sol\":13619:13698  require(... */\n      tag_85\n      jumpi\n      mload(0x40)\n      0x08c379a000000000000000000000000000000000000000000000000000000000\n      dup2\n      mstore\n      0x04\n      add\n      tag_86\n      swap1\n      tag_87\n      jump\t// in\n    tag_86:\n      mload(0x40)\n      dup1\n      swap2\n      sub\n      swap1\n      revert\n    tag_85:\n        /* \"val35.sol\":13744:13754  1000 ether */\n      0x3635c9adc5dea00000\n        /* \"val35.sol\":13733:13740  _amount */\n      dup2\n        /* \"val35.sol\":13733:13754  _amount <= 1000 ether */\n      gt\n      iszero\n        /* \"val35.sol\":13711:13798  require(... */\n      tag_88\n      jumpi\n      mload(0x40)\n      0x08c379a000000000000000000000000000000000000000000000000000000000\n      dup2\n      mstore\n      0x04\n      add\n      tag_89\n      swap1\n      tag_90\n      jump\t// in\n    tag_89:\n      mload(0x40)\n      dup1\n      swap2\n      sub\n      swap1\n      revert\n    tag_88:\n        /* \"val35.sol\":13826:13833  _amount */\n      dup1\n        /* \"val35.sol\":13811:13823  storedAmount */\n      0x00\n        /* \"val35.sol\":13811:13833  storedAmount = _amount */\n      dup2\n      swap1\n      sstore\n      pop\n        /* \"val35.sol\":13535:13841  function deposit(... */\n      pop\n      jump\t// out\n        /* \"val35.sol\":13106:13133  address public lastReceiver */\n    tag_33:\n      0x01\n      0x00\n      swap1\n      sload\n      swap1\n      0x0100\n      exp\n      swap1\n      div\n      0xffffffffffffffffffffffffffffffffffffffff\n      and\n      dup2\n      jump\t// out\n        /* \"#utility.yul\":7:84   */\n    tag_91:\n        /* \"#utility.yul\":44:51   */\n      0x00\n        /* \"#utility.yul\":73:78   */\n      dup2\n        /* \"#utility.yul\":62:78   */\n      swap1\n      pop\n        /* \"#utility.yul\":7:84   */\n      swap2\n      swap1\n      pop\n      jump\t// out\n        /* \"#utility.yul\":90:208   */\n    tag_92:\n        /* \"#utility.yul\":177:201   */\n      tag_128\n        /* \"#utility.yul\":195:200   */\n      dup2\n        /* \"#utility.yul\":177:201   */\n      tag_91\n      jump\t// in\n    tag_128:\n        /* \"#utility.yul\":172:175   */\n      dup3\n        /* \"#utility.yul\":165:202   */\n      mstore\n        /* \"#utility.yul\":90:208   */\n      pop\n      pop\n      jump\t// out\n        /* \"#utility.yul\":214:436   */\n    tag_12:\n        /* \"#utility.yul\":307:311   */\n      0x00\n        /* \"#utility.yul\":345:347   */\n      0x20\n        /* \"#utility.yul\":334:343   */\n      dup3\n        /* \"#utility.yul\":330:348   */\n      add\n        /* \"#utility.yul\":322:348   */\n      swap1\n      pop\n        /* \"#utility.yul\":358:429   */\n      tag_130\n        /* \"#utility.yul\":426:427   */\n      0x00\n        /* \"#utility.yul\":415:424   */\n      dup4\n        /* \"#utility.yul\":411:428   */\n      add\n        /* \"#utility.yul\":402:408   */\n      dup5\n        /* \"#utility.yul\":358:429   */\n      tag_92\n      jump\t// in\n    tag_130:\n        /* \"#utility.yul\":214:436   */\n      swap3\n      swap2\n      pop\n      pop\n      jump\t// out\n        /* \"#utility.yul\":523:640   */\n    tag_94:\n        /* \"#utility.yul\":632:633   */\n      0x00\n        /* \"#utility.yul\":629:630   */\n      0x00\n        /* \"#utility.yul\":622:634   */\n      revert\n        /* \"#utility.yul\":646:763   */\n    tag_95:\n        /* \"#utility.yul\":755:756   */\n      0x00\n        /* \"#utility.yul\":752:753   */\n      0x00\n        /* \"#utility.yul\":745:757   */\n      revert\n        /* \"#utility.yul\":769:886   */\n    tag_96:\n        /* \"#utility.yul\":878:879   */\n      0x00\n        /* \"#utility.yul\":875:876   */\n      0x00\n        /* \"#utility.yul\":868:880   */\n      revert\n        /* \"#utility.yul\":892:1009   */\n    tag_97:\n        /* \"#utility.yul\":1001:1002   */\n      0x00\n        /* \"#utility.yul\":998:999   */\n      0x00\n        /* \"#utility.yul\":991:1003   */\n      revert\n        /* \"#utility.yul\":1015:1132   */\n    tag_98:\n        /* \"#utility.yul\":1124:1125   */\n      0x00\n        /* \"#utility.yul\":1121:1122   */\n      0x00\n        /* \"#utility.yul\":1114:1126   */\n      revert\n        /* \"#utility.yul\":1152:1705   */\n    tag_99:\n        /* \"#utility.yul\":1210:1218   */\n      0x00\n        /* \"#utility.yul\":1220:1226   */\n      0x00\n        /* \"#utility.yul\":1270:1273   */\n      dup4\n        /* \"#utility.yul\":1263:1267   */\n      0x1f\n        /* \"#utility.yul\":1255:1261   */\n      dup5\n        /* \"#utility.yul\":1251:1268   */\n      add\n        /* \"#utility.yul\":1247:1274   */\n      slt\n        /* \"#utility.yul\":1237:1359   */\n      tag_138\n      jumpi\n        /* \"#utility.yul\":1278:1357   */\n      tag_139\n      tag_96\n      jump\t// in\n    tag_139:\n        /* \"#utility.yul\":1237:1359   */\n    tag_138:\n        /* \"#utility.yul\":1391:1397   */\n      dup3\n        /* \"#utility.yul\":1378:1398   */\n      calldataload\n        /* \"#utility.yul\":1368:1398   */\n      swap1\n      pop\n        /* \"#utility.yul\":1421:1439   */\n      0xffffffffffffffff\n        /* \"#utility.yul\":1413:1419   */\n      dup2\n        /* \"#utility.yul\":1410:1440   */\n      gt\n        /* \"#utility.yul\":1407:1524   */\n      iszero\n      tag_140\n      jumpi\n        /* \"#utility.yul\":1443:1522   */\n      tag_141\n      tag_97\n      jump\t// in\n    tag_141:\n        /* \"#utility.yul\":1407:1524   */\n    tag_140:\n        /* \"#utility.yul\":1557:1561   */\n      0x20\n        /* \"#utility.yul\":1549:1555   */\n      dup4\n        /* \"#utility.yul\":1545:1562   */\n      add\n        /* \"#utility.yul\":1533:1562   */\n      swap2\n      pop\n        /* \"#utility.yul\":1611:1614   */\n      dup4\n        /* \"#utility.yul\":1603:1607   */\n      0x01\n        /* \"#utility.yul\":1595:1601   */\n      dup3\n        /* \"#utility.yul\":1591:1608   */\n      mul\n        /* \"#utility.yul\":1581:1589   */\n      dup4\n        /* \"#utility.yul\":1577:1609   */\n      add\n        /* \"#utility.yul\":1574:1615   */\n      gt\n        /* \"#utility.yul\":1571:1699   */\n      iszero\n      tag_142\n      jumpi\n        /* \"#utility.yul\":1618:1697   */\n      tag_143\n      tag_98\n      jump\t// in\n    tag_143:\n        /* \"#utility.yul\":1571:1699   */\n    tag_142:\n        /* \"#utility.yul\":1152:1705   */\n      swap3\n      pop\n      swap3\n      swap1\n      pop\n      jump\t// out\n        /* \"#utility.yul\":1711:2240   */\n    tag_15:\n        /* \"#utility.yul\":1782:1788   */\n      0x00\n        /* \"#utility.yul\":1790:1796   */\n      0x00\n        /* \"#utility.yul\":1839:1841   */\n      0x20\n        /* \"#utility.yul\":1827:1836   */\n      dup4\n        /* \"#utility.yul\":1818:1825   */\n      dup6\n        /* \"#utility.yul\":1814:1837   */\n      sub\n        /* \"#utility.yul\":1810:1842   */\n      slt\n        /* \"#utility.yul\":1807:1926   */\n      iszero\n      tag_145\n      jumpi\n        /* \"#utility.yul\":1845:1924   */\n      tag_146\n      tag_94\n      jump\t// in\n    tag_146:\n        /* \"#utility.yul\":1807:1926   */\n    tag_145:\n        /* \"#utility.yul\":1993:1994   */\n      0x00\n        /* \"#utility.yul\":1982:1991   */\n      dup4\n        /* \"#utility.yul\":1978:1995   */\n      add\n        /* \"#utility.yul\":1965:1996   */\n      calldataload\n        /* \"#utility.yul\":2023:2041   */\n      0xffffffffffffffff\n        /* \"#utility.yul\":2015:2021   */\n      dup2\n        /* \"#utility.yul\":2012:2042   */\n      gt\n        /* \"#utility.yul\":2009:2126   */\n      iszero\n      tag_147\n      jumpi\n        /* \"#utility.yul\":2045:2124   */\n      tag_148\n      tag_95\n      jump\t// in\n    tag_148:\n        /* \"#utility.yul\":2009:2126   */\n    tag_147:\n        /* \"#utility.yul\":2158:2223   */\n      tag_149\n        /* \"#utility.yul\":2215:2222   */\n      dup6\n        /* \"#utility.yul\":2206:2212   */\n      dup3\n        /* \"#utility.yul\":2195:2204   */\n      dup7\n        /* \"#utility.yul\":2191:2213   */\n      add\n        /* \"#utility.yul\":2158:2223   */\n      tag_99\n      jump\t// in\n    tag_149:\n        /* \"#utility.yul\":2140:2223   */\n      swap3\n      pop\n      swap3\n      pop\n        /* \"#utility.yul\":1936:2233   */\n      pop\n        /* \"#utility.yul\":1711:2240   */\n      swap3\n      pop\n      swap3\n      swap1\n      pop\n      jump\t// out\n        /* \"#utility.yul\":2246:2336   */\n    tag_100:\n        /* \"#utility.yul\":2280:2287   */\n      0x00\n        /* \"#utility.yul\":2323:2328   */\n      dup2\n        /* \"#utility.yul\":2316:2329   */\n      iszero\n        /* \"#utility.yul\":2309:2330   */\n      iszero\n        /* \"#utility.yul\":2298:2330   */\n      swap1\n      pop\n        /* \"#utility.yul\":2246:2336   */\n      swap2\n      swap1\n      pop\n      jump\t// out\n        /* \"#utility.yul\":2342:2451   */\n    tag_101:\n        /* \"#utility.yul\":2423:2444   */\n      tag_152\n        /* \"#utility.yul\":2438:2443   */\n      dup2\n        /* \"#utility.yul\":2423:2444   */\n      tag_100\n      jump\t// in\n    tag_152:\n        /* \"#utility.yul\":2418:2421   */\n      dup3\n        /* \"#utility.yul\":2411:2445   */\n      mstore\n        /* \"#utility.yul\":2342:2451   */\n      pop\n      pop\n      jump\t// out\n        /* \"#utility.yul\":2457:2667   */\n    tag_18:\n        /* \"#utility.yul\":2544:2548   */\n      0x00\n        /* \"#utility.yul\":2582:2584   */\n      0x20\n        /* \"#utility.yul\":2571:2580   */\n      dup3\n        /* \"#utility.yul\":2567:2585   */\n      add\n        /* \"#utility.yul\":2559:2585   */\n      swap1\n      pop\n        /* \"#utility.yul\":2595:2660   */\n      tag_154\n        /* \"#utility.yul\":2657:2658   */\n      0x00\n        /* \"#utility.yul\":2646:2655   */\n      dup4\n        /* \"#utility.yul\":2642:2659   */\n      add\n        /* \"#utility.yul\":2633:2639   */\n      dup5\n        /* \"#utility.yul\":2595:2660   */\n      tag_101\n      jump\t// in\n    tag_154:\n        /* \"#utility.yul\":2457:2667   */\n      swap3\n      swap2\n      pop\n      pop\n      jump\t// out\n        /* \"#utility.yul\":2673:2799   */\n    tag_102:\n        /* \"#utility.yul\":2710:2717   */\n      0x00\n        /* \"#utility.yul\":2750:2792   */\n      0xffffffffffffffffffffffffffffffffffffffff\n        /* \"#utility.yul\":2743:2748   */\n      dup3\n        /* \"#utility.yul\":2739:2793   */\n      and\n        /* \"#utility.yul\":2728:2793   */\n      swap1\n      pop\n        /* \"#utility.yul\":2673:2799   */\n      swap2\n      swap1\n      pop\n      jump\t// out\n        /* \"#utility.yul\":2805:2901   */\n    tag_103:\n        /* \"#utility.yul\":2842:2849   */\n      0x00\n        /* \"#utility.yul\":2871:2895   */\n      tag_157\n        /* \"#utility.yul\":2889:2894   */\n      dup3\n        /* \"#utility.yul\":2871:2895   */\n      tag_102\n      jump\t// in\n    tag_157:\n        /* \"#utility.yul\":2860:2895   */\n      swap1\n      pop\n        /* \"#utility.yul\":2805:2901   */\n      swap2\n      swap1\n      pop\n      jump\t// out\n        /* \"#utility.yul\":2907:3029   */\n    tag_104:\n        /* \"#utility.yul\":2980:3004   */\n      tag_159\n        /* \"#utility.yul\":2998:3003   */\n      dup2\n        /* \"#utility.yul\":2980:3004   */\n      tag_103\n      jump\t// in\n    tag_159:\n        /* \"#utility.yul\":2973:2978   */\n      dup2\n        /* \"#utility.yul\":2970:3005   */\n      eq\n        /* \"#utility.yul\":2960:3023   */\n      tag_160\n      jumpi\n        /* \"#utility.yul\":3019:3020   */\n      0x00\n        /* \"#utility.yul\":3016:3017   */\n      0x00\n        /* \"#utility.yul\":3009:3021   */\n      revert\n        /* \"#utility.yul\":2960:3023   */\n    tag_160:\n        /* \"#utility.yul\":2907:3029   */\n      pop\n      jump\t// out\n        /* \"#utility.yul\":3035:3174   */\n    tag_105:\n        /* \"#utility.yul\":3081:3086   */\n      0x00\n        /* \"#utility.yul\":3119:3125   */\n      dup2\n        /* \"#utility.yul\":3106:3126   */\n      calldataload\n        /* \"#utility.yul\":3097:3126   */\n      swap1\n      pop\n        /* \"#utility.yul\":3135:3168   */\n      tag_162\n        /* \"#utility.yul\":3162:3167   */\n      dup2\n        /* \"#utility.yul\":3135:3168   */\n      tag_104\n      jump\t// in\n    tag_162:\n        /* \"#utility.yul\":3035:3174   */\n      swap3\n      swap2\n      pop\n      pop\n      jump\t// out\n        /* \"#utility.yul\":3180:3509   */\n    tag_21:\n        /* \"#utility.yul\":3239:3245   */\n      0x00\n        /* \"#utility.yul\":3288:3290   */\n      0x20\n        /* \"#utility.yul\":3276:3285   */\n      dup3\n        /* \"#utility.yul\":3267:3274   */\n      dup5\n        /* \"#utility.yul\":3263:3286   */\n      sub\n        /* \"#utility.yul\":3259:3291   */\n      slt\n        /* \"#utility.yul\":3256:3375   */\n      iszero\n      tag_164\n      jumpi\n        /* \"#utility.yul\":3294:3373   */\n      tag_165\n      tag_94\n      jump\t// in\n    tag_165:\n        /* \"#utility.yul\":3256:3375   */\n    tag_164:\n        /* \"#utility.yul\":3414:3415   */\n      0x00\n        /* \"#utility.yul\":3439:3492   */\n      tag_166\n        /* \"#utility.yul\":3484:3491   */\n      dup5\n        /* \"#utility.yul\":3475:3481   */\n      dup3\n        /* \"#utility.yul\":3464:3473   */\n      dup6\n        /* \"#utility.yul\":3460:3482   */\n      add\n        /* \"#utility.yul\":3439:3492   */\n      tag_105\n      jump\t// in\n    tag_166:\n        /* \"#utility.yul\":3429:3492   */\n      swap2\n      pop\n        /* \"#utility.yul\":3385:3502   */\n      pop\n        /* \"#utility.yul\":3180:3509   */\n      swap3\n      swap2\n      pop\n      pop\n      jump\t// out\n        /* \"#utility.yul\":3534:4129   */\n    tag_106:\n        /* \"#utility.yul\":3634:3642   */\n      0x00\n        /* \"#utility.yul\":3644:3650   */\n      0x00\n        /* \"#utility.yul\":3694:3697   */\n      dup4\n        /* \"#utility.yul\":3687:3691   */\n      0x1f\n        /* \"#utility.yul\":3679:3685   */\n      dup5\n        /* \"#utility.yul\":3675:3692   */\n      add\n        /* \"#utility.yul\":3671:3698   */\n      slt\n        /* \"#utility.yul\":3661:3783   */\n      tag_168\n      jumpi\n        /* \"#utility.yul\":3702:3781   */\n      tag_169\n      tag_96\n      jump\t// in\n    tag_169:\n        /* \"#utility.yul\":3661:3783   */\n    tag_168:\n        /* \"#utility.yul\":3815:3821   */\n      dup3\n        /* \"#utility.yul\":3802:3822   */\n      calldataload\n        /* \"#utility.yul\":3792:3822   */\n      swap1\n      pop\n        /* \"#utility.yul\":3845:3863   */\n      0xffffffffffffffff\n        /* \"#utility.yul\":3837:3843   */\n      dup2\n        /* \"#utility.yul\":3834:3864   */\n      gt\n        /* \"#utility.yul\":3831:3948   */\n      iszero\n      tag_170\n      jumpi\n        /* \"#utility.yul\":3867:3946   */\n      tag_171\n      tag_97\n      jump\t// in\n    tag_171:\n        /* \"#utility.yul\":3831:3948   */\n    tag_170:\n        /* \"#utility.yul\":3981:3985   */\n      0x20\n        /* \"#utility.yul\":3973:3979   */\n      dup4\n        /* \"#utility.yul\":3969:3986   */\n      add\n        /* \"#utility.yul\":3957:3986   */\n      swap2\n      pop\n        /* \"#utility.yul\":4035:4038   */\n      dup4\n        /* \"#utility.yul\":4027:4031   */\n      0x20\n        /* \"#utility.yul\":4019:4025   */\n      dup3\n        /* \"#utility.yul\":4015:4032   */\n      mul\n        /* \"#utility.yul\":4005:4013   */\n      dup4\n        /* \"#utility.yul\":4001:4033   */\n      add\n        /* \"#utility.yul\":3998:4039   */\n      gt\n        /* \"#utility.yul\":3995:4123   */\n      iszero\n      tag_172\n      jumpi\n        /* \"#utility.yul\":4042:4121   */\n      tag_173\n      tag_98\n      jump\t// in\n    tag_173:\n        /* \"#utility.yul\":3995:4123   */\n    tag_172:\n        /* \"#utility.yul\":3534:4129   */\n      swap3\n      pop\n      swap3\n      swap1\n      pop\n      jump\t// out\n        /* \"#utility.yul\":4135:4748   */\n    tag_25:\n        /* \"#utility.yul\":4248:4254   */\n      0x00\n        /* \"#utility.yul\":4256:4262   */\n      0x00\n        /* \"#utility.yul\":4305:4307   */\n      0x20\n        /* \"#utility.yul\":4293:4302   */\n      dup4\n        /* \"#utility.yul\":4284:4291   */\n      dup6\n        /* \"#utility.yul\":4280:4303   */\n      sub\n        /* \"#utility.yul\":4276:4308   */\n      slt\n        /* \"#utility.yul\":4273:4392   */\n      iszero\n      tag_175\n      jumpi\n        /* \"#utility.yul\":4311:4390   */\n      tag_176\n      tag_94\n      jump\t// in\n    tag_176:\n        /* \"#utility.yul\":4273:4392   */\n    tag_175:\n        /* \"#utility.yul\":4459:4460   */\n      0x00\n        /* \"#utility.yul\":4448:4457   */\n      dup4\n        /* \"#utility.yul\":4444:4461   */\n      add\n        /* \"#utility.yul\":4431:4462   */\n      calldataload\n        /* \"#utility.yul\":4489:4507   */\n      0xffffffffffffffff\n        /* \"#utility.yul\":4481:4487   */\n      dup2\n        /* \"#utility.yul\":4478:4508   */\n      gt\n        /* \"#utility.yul\":4475:4592   */\n      iszero\n      tag_177\n      jumpi\n        /* \"#utility.yul\":4511:4590   */\n      tag_178\n      tag_95\n      jump\t// in\n    tag_178:\n        /* \"#utility.yul\":4475:4592   */\n    tag_177:\n        /* \"#utility.yul\":4624:4731   */\n      tag_179\n        /* \"#utility.yul\":4723:4730   */\n      dup6\n        /* \"#utility.yul\":4714:4720   */\n      dup3\n        /* \"#utility.yul\":4703:4712   */\n      dup7\n        /* \"#utility.yul\":4699:4721   */\n      add\n        /* \"#utility.yul\":4624:4731   */\n      tag_106\n      jump\t// in\n    tag_179:\n        /* \"#utility.yul\":4606:4731   */\n      swap3\n      pop\n      swap3\n      pop\n        /* \"#utility.yul\":4402:4741   */\n      pop\n        /* \"#utility.yul\":4135:4748   */\n      swap3\n      pop\n      swap3\n      swap1\n      pop\n      jump\t// out\n        /* \"#utility.yul\":4754:4876   */\n    tag_107:\n        /* \"#utility.yul\":4827:4851   */\n      tag_181\n        /* \"#utility.yul\":4845:4850   */\n      dup2\n        /* \"#utility.yul\":4827:4851   */\n      tag_91\n      jump\t// in\n    tag_181:\n        /* \"#utility.yul\":4820:4825   */\n      dup2\n        /* \"#utility.yul\":4817:4852   */\n      eq\n        /* \"#utility.yul\":4807:4870   */\n      tag_182\n      jumpi\n        /* \"#utility.yul\":4866:4867   */\n      0x00\n        /* \"#utility.yul\":4863:4864   */\n      0x00\n        /* \"#utility.yul\":4856:4868   */\n      revert\n        /* \"#utility.yul\":4807:4870   */\n    tag_182:\n        /* \"#utility.yul\":4754:4876   */\n      pop\n      jump\t// out\n        /* \"#utility.yul\":4882:5021   */\n    tag_108:\n        /* \"#utility.yul\":4928:4933   */\n      0x00\n        /* \"#utility.yul\":4966:4972   */\n      dup2\n        /* \"#utility.yul\":4953:4973   */\n      calldataload\n        /* \"#utility.yul\":4944:4973   */\n      swap1\n      pop\n        /* \"#utility.yul\":4982:5015   */\n      tag_184\n        /* \"#utility.yul\":5009:5014   */\n      dup2\n        /* \"#utility.yul\":4982:5015   */\n      tag_107\n      jump\t// in\n    tag_184:\n        /* \"#utility.yul\":4882:5021   */\n      swap3\n      swap2\n      pop\n      pop\n      jump\t// out\n        /* \"#utility.yul\":5027:5356   */\n    tag_30:\n        /* \"#utility.yul\":5086:5092   */\n      0x00\n        /* \"#utility.yul\":5135:5137   */\n      0x20\n        /* \"#utility.yul\":5123:5132   */\n      dup3\n        /* \"#utility.yul\":5114:5121   */\n      dup5\n        /* \"#utility.yul\":5110:5133   */\n      sub\n        /* \"#utility.yul\":5106:5138   */\n      slt\n        /* \"#utility.yul\":5103:5222   */\n      iszero\n      tag_186\n      jumpi\n        /* \"#utility.yul\":5141:5220   */\n      tag_187\n      tag_94\n      jump\t// in\n    tag_187:\n        /* \"#utility.yul\":5103:5222   */\n    tag_186:\n        /* \"#utility.yul\":5261:5262   */\n      0x00\n        /* \"#utility.yul\":5286:5339   */\n      tag_188\n        /* \"#utility.yul\":5331:5338   */\n      dup5\n        /* \"#utility.yul\":5322:5328   */\n      dup3\n        /* \"#utility.yul\":5311:5320   */\n      dup6\n        /* \"#utility.yul\":5307:5329   */\n      add\n        /* \"#utility.yul\":5286:5339   */\n      tag_108\n      jump\t// in\n    tag_188:\n        /* \"#utility.yul\":5276:5339   */\n      swap2\n      pop\n        /* \"#utility.yul\":5232:5349   */\n      pop\n        /* \"#utility.yul\":5027:5356   */\n      swap3\n      swap2\n      pop\n      pop\n      jump\t// out\n        /* \"#utility.yul\":5362:5480   */\n    tag_109:\n        /* \"#utility.yul\":5449:5473   */\n      tag_190\n        /* \"#utility.yul\":5467:5472   */\n      dup2\n        /* \"#utility.yul\":5449:5473   */\n      tag_103\n      jump\t// in\n    tag_190:\n        /* \"#utility.yul\":5444:5447   */\n      dup3\n        /* \"#utility.yul\":5437:5474   */\n      mstore\n        /* \"#utility.yul\":5362:5480   */\n      pop\n      pop\n      jump\t// out\n        /* \"#utility.yul\":5486:5708   */\n    tag_35:\n        /* \"#utility.yul\":5579:5583   */\n      0x00\n        /* \"#utility.yul\":5617:5619   */\n      0x20\n        /* \"#utility.yul\":5606:5615   */\n      dup3\n        /* \"#utility.yul\":5602:5620   */\n      add\n        /* \"#utility.yul\":5594:5620   */\n      swap1\n      pop\n        /* \"#utility.yul\":5630:5701   */\n      tag_192\n        /* \"#utility.yul\":5698:5699   */\n      0x00\n        /* \"#utility.yul\":5687:5696   */\n      dup4\n        /* \"#utility.yul\":5683:5700   */\n      add\n        /* \"#utility.yul\":5674:5680   */\n      dup5\n        /* \"#utility.yul\":5630:5701   */\n      tag_109\n      jump\t// in\n    tag_192:\n        /* \"#utility.yul\":5486:5708   */\n      swap3\n      swap2\n      pop\n      pop\n      jump\t// out\n        /* \"#utility.yul\":5714:5883   */\n    tag_110:\n        /* \"#utility.yul\":5798:5809   */\n      0x00\n        /* \"#utility.yul\":5832:5838   */\n      dup3\n        /* \"#utility.yul\":5827:5830   */\n      dup3\n        /* \"#utility.yul\":5820:5839   */\n      mstore\n        /* \"#utility.yul\":5872:5876   */\n      0x20\n        /* \"#utility.yul\":5867:5870   */\n      dup3\n        /* \"#utility.yul\":5863:5877   */\n      add\n        /* \"#utility.yul\":5848:5877   */\n      swap1\n      pop\n        /* \"#utility.yul\":5714:5883   */\n      swap3\n      swap2\n      pop\n      pop\n      jump\t// out\n        /* \"#utility.yul\":5889:6052   */\n    tag_111:\n        /* \"#utility.yul\":6029:6044   */\n      0x456d707479206d65737361676500000000000000000000000000000000000000\n        /* \"#utility.yul\":6025:6026   */\n      0x00\n        /* \"#utility.yul\":6017:6023   */\n      dup3\n        /* \"#utility.yul\":6013:6027   */\n      add\n        /* \"#utility.yul\":6006:6045   */\n      mstore\n        /* \"#utility.yul\":5889:6052   */\n      pop\n      jump\t// out\n        /* \"#utility.yul\":6058:6424   */\n    tag_112:\n        /* \"#utility.yul\":6200:6203   */\n      0x00\n        /* \"#utility.yul\":6221:6288   */\n      tag_196\n        /* \"#utility.yul\":6285:6287   */\n      0x0d\n        /* \"#utility.yul\":6280:6283   */\n      dup4\n        /* \"#utility.yul\":6221:6288   */\n      tag_110\n      jump\t// in\n    tag_196:\n        /* \"#utility.yul\":6214:6288   */\n      swap2\n      pop\n        /* \"#utility.yul\":6297:6390   */\n      tag_197\n        /* \"#utility.yul\":6386:6389   */\n      dup3\n        /* \"#utility.yul\":6297:6390   */\n      tag_111\n      jump\t// in\n    tag_197:\n        /* \"#utility.yul\":6415:6417   */\n      0x20\n        /* \"#utility.yul\":6410:6413   */\n      dup3\n        /* \"#utility.yul\":6406:6418   */\n      add\n        /* \"#utility.yul\":6399:6418   */\n      swap1\n      pop\n        /* \"#utility.yul\":6058:6424   */\n      swap2\n      swap1\n      pop\n      jump\t// out\n        /* \"#utility.yul\":6430:6849   */\n    tag_39:\n        /* \"#utility.yul\":6596:6600   */\n      0x00\n        /* \"#utility.yul\":6634:6636   */\n      0x20\n        /* \"#utility.yul\":6623:6632   */\n      dup3\n        /* \"#utility.yul\":6619:6637   */\n      add\n        /* \"#utility.yul\":6611:6637   */\n      swap1\n      pop\n        /* \"#utility.yul\":6683:6692   */\n      dup2\n        /* \"#utility.yul\":6677:6681   */\n      dup2\n        /* \"#utility.yul\":6673:6693   */\n      sub\n        /* \"#utility.yul\":6669:6670   */\n      0x00\n        /* \"#utility.yul\":6658:6667   */\n      dup4\n        /* \"#utility.yul\":6654:6671   */\n      add\n        /* \"#utility.yul\":6647:6694   */\n      mstore\n        /* \"#utility.yul\":6711:6842   */\n      tag_199\n        /* \"#utility.yul\":6837:6841   */\n      dup2\n        /* \"#utility.yul\":6711:6842   */\n      tag_112\n      jump\t// in\n    tag_199:\n        /* \"#utility.yul\":6703:6842   */\n      swap1\n      pop\n        /* \"#utility.yul\":6430:6849   */\n      swap2\n      swap1\n      pop\n      jump\t// out\n        /* \"#utility.yul\":6855:7021   */\n    tag_113:\n        /* \"#utility.yul\":6995:7013   */\n      0x4d65737361676520746f6f206c6f6e6700000000000000000000000000000000\n        /* \"#utility.yul\":6991:6992   */\n      0x00\n        /* \"#utility.yul\":6983:6989   */\n      dup3\n        /* \"#utility.yul\":6979:6993   */\n      add\n        /* \"#utility.yul\":6972:7014   */\n      mstore\n        /* \"#utility.yul\":6855:7021   */\n      pop\n      jump\t// out\n        /* \"#utility.yul\":7027:7393   */\n    tag_114:\n        /* \"#utility.yul\":7169:7172   */\n      0x00\n        /* \"#utility.yul\":7190:7257   */\n      tag_202\n        /* \"#utility.yul\":7254:7256   */\n      0x10\n        /* \"#utility.yul\":7249:7252   */\n      dup4\n        /* \"#utility.yul\":7190:7257   */\n      tag_110\n      jump\t// in\n    tag_202:\n        /* \"#utility.yul\":7183:7257   */\n      swap2\n      pop\n        /* \"#utility.yul\":7266:7359   */\n      tag_203\n        /* \"#utility.yul\":7355:7358   */\n      dup3\n        /* \"#utility.yul\":7266:7359   */\n      tag_113\n      jump\t// in\n    tag_203:\n        /* \"#utility.yul\":7384:7386   */\n      0x20\n        /* \"#utility.yul\":7379:7382   */\n      dup3\n        /* \"#utility.yul\":7375:7387   */\n      add\n        /* \"#utility.yul\":7368:7387   */\n      swap1\n      pop\n        /* \"#utility.yul\":7027:7393   */\n      swap2\n      swap1\n      pop\n      jump\t// out\n        /* \"#utility.yul\":7399:7818   */\n    tag_42:\n        /* \"#utility.yul\":7565:7569   */\n      0x00\n        /* \"#utility.yul\":7603:7605   */\n      0x20\n        /* \"#utility.yul\":7592:7601   */\n      dup3\n        /* \"#utility.yul\":7588:7606   */\n      add\n        /* \"#utility.yul\":7580:7606   */\n      swap1\n      pop\n        /* \"#utility.yul\":7652:7661   */\n      dup2\n        /* \"#utility.yul\":7646:7650   */\n      dup2\n        /* \"#utility.yul\":7642:7662   */\n      sub\n        /* \"#utility.yul\":7638:7639   */\n      0x00\n        /* \"#utility.yul\":7627:7636   */\n      dup4\n        /* \"#utility.yul\":7623:7640   */\n      add\n        /* \"#utility.yul\":7616:7663   */\n      mstore\n        /* \"#utility.yul\":7680:7811   */\n      tag_205\n        /* \"#utility.yul\":7806:7810   */\n      dup2\n        /* \"#utility.yul\":7680:7811   */\n      tag_114\n      jump\t// in\n    tag_205:\n        /* \"#utility.yul\":7672:7811   */\n      swap1\n      pop\n        /* \"#utility.yul\":7399:7818   */\n      swap2\n      swap1\n      pop\n      jump\t// out\n        /* \"#utility.yul\":7824:7989   */\n    tag_115:\n        /* \"#utility.yul\":7964:7981   */\n      0x496e76616c696420616464726573730000000000000000000000000000000000\n        /* \"#utility.yul\":7960:7961   */\n      0x00\n        /* \"#utility.yul\":7952:7958   */\n      dup3\n        /* \"#utility.yul\":7948:7962   */\n      add\n        /* \"#utility.yul\":7941:7982   */\n      mstore\n        /* \"#utility.yul\":7824:7989   */\n      pop\n      jump\t// out\n        /* \"#utility.yul\":7995:8361   */\n    tag_116:\n        /* \"#utility.yul\":8137:8140   */\n      0x00\n        /* \"#utility.yul\":8158:8225   */\n      tag_208\n        /* \"#utility.yul\":8222:8224   */\n      0x0f\n        /* \"#utility.yul\":8217:8220   */\n      dup4\n        /* \"#utility.yul\":8158:8225   */\n      tag_110\n      jump\t// in\n    tag_208:\n        /* \"#utility.yul\":8151:8225   */\n      swap2\n      pop\n        /* \"#utility.yul\":8234:8327   */\n      tag_209\n        /* \"#utility.yul\":8323:8326   */\n      dup3\n        /* \"#utility.yul\":8234:8327   */\n      tag_115\n      jump\t// in\n    tag_209:\n        /* \"#utility.yul\":8352:8354   */\n      0x20\n        /* \"#utility.yul\":8347:8350   */\n      dup3\n        /* \"#utility.yul\":8343:8355   */\n      add\n        /* \"#utility.yul\":8336:8355   */\n      swap1\n      pop\n        /* \"#utility.yul\":7995:8361   */\n      swap2\n      swap1\n      pop\n      jump\t// out\n        /* \"#utility.yul\":8367:8786   */\n    tag_46:\n        /* \"#utility.yul\":8533:8537   */\n      0x00\n        /* \"#utility.yul\":8571:8573   */\n      0x20\n        /* \"#utility.yul\":8560:8569   */\n      dup3\n        /* \"#utility.yul\":8556:8574   */\n      add\n        /* \"#utility.yul\":8548:8574   */\n      swap1\n      pop\n        /* \"#utility.yul\":8620:8629   */\n      dup2\n        /* \"#utility.yul\":8614:8618   */\n      dup2\n        /* \"#utility.yul\":8610:8630   */\n      sub\n        /* \"#utility.yul\":8606:8607   */\n      0x00\n        /* \"#utility.yul\":8595:8604   */\n      dup4\n        /* \"#utility.yul\":8591:8608   */\n      add\n        /* \"#utility.yul\":8584:8631   */\n      mstore\n        /* \"#utility.yul\":8648:8779   */\n      tag_211\n        /* \"#utility.yul\":8774:8778   */\n      dup2\n        /* \"#utility.yul\":8648:8779   */\n      tag_116\n      jump\t// in\n    tag_211:\n        /* \"#utility.yul\":8640:8779   */\n      swap1\n      pop\n        /* \"#utility.yul\":8367:8786   */\n      swap2\n      swap1\n      pop\n      jump\t// out\n        /* \"#utility.yul\":8792:8972   */\n    tag_51:\n        /* \"#utility.yul\":8840:8917   */\n      0x4e487b7100000000000000000000000000000000000000000000000000000000\n        /* \"#utility.yul\":8837:8838   */\n      0x00\n        /* \"#utility.yul\":8830:8918   */\n      mstore\n        /* \"#utility.yul\":8937:8941   */\n      0x41\n        /* \"#utility.yul\":8934:8935   */\n      0x04\n        /* \"#utility.yul\":8927:8942   */\n      mstore\n        /* \"#utility.yul\":8961:8965   */\n      0x24\n        /* \"#utility.yul\":8958:8959   */\n      0x00\n        /* \"#utility.yul\":8951:8966   */\n      revert\n        /* \"#utility.yul\":8978:9158   */\n    tag_58:\n        /* \"#utility.yul\":9026:9103   */\n      0x4e487b7100000000000000000000000000000000000000000000000000000000\n        /* \"#utility.yul\":9023:9024   */\n      0x00\n        /* \"#utility.yul\":9016:9104   */\n      mstore\n        /* \"#utility.yul\":9123:9127   */\n      0x32\n        /* \"#utility.yul\":9120:9121   */\n      0x04\n        /* \"#utility.yul\":9113:9128   */\n      mstore\n        /* \"#utility.yul\":9147:9151   */\n      0x24\n        /* \"#utility.yul\":9144:9145   */\n      0x00\n        /* \"#utility.yul\":9137:9152   */\n      revert\n        /* \"#utility.yul\":9164:9281   */\n    tag_117:\n        /* \"#utility.yul\":9273:9274   */\n      0x00\n        /* \"#utility.yul\":9270:9271   */\n      0x00\n        /* \"#utility.yul\":9263:9275   */\n      revert\n        /* \"#utility.yul\":9287:9404   */\n    tag_118:\n        /* \"#utility.yul\":9396:9397   */\n      0x00\n        /* \"#utility.yul\":9393:9394   */\n      0x00\n        /* \"#utility.yul\":9386:9398   */\n      revert\n        /* \"#utility.yul\":9410:9527   */\n    tag_119:\n        /* \"#utility.yul\":9519:9520   */\n      0x00\n        /* \"#utility.yul\":9516:9517   */\n      0x00\n        /* \"#utility.yul\":9509:9521   */\n      revert\n        /* \"#utility.yul\":9533:10273   */\n    tag_60:\n        /* \"#utility.yul\":9626:9630   */\n      0x00\n        /* \"#utility.yul\":9632:9638   */\n      0x00\n        /* \"#utility.yul\":9688:9699   */\n      dup4\n        /* \"#utility.yul\":9675:9700   */\n      calldataload\n        /* \"#utility.yul\":9788:9789   */\n      0x01\n        /* \"#utility.yul\":9782:9786   */\n      0x20\n        /* \"#utility.yul\":9778:9790   */\n      sub\n        /* \"#utility.yul\":9767:9775   */\n      dup5\n        /* \"#utility.yul\":9751:9765   */\n      calldatasize\n        /* \"#utility.yul\":9747:9776   */\n      sub\n        /* \"#utility.yul\":9743:9791   */\n      sub\n        /* \"#utility.yul\":9723:9741   */\n      dup2\n        /* \"#utility.yul\":9719:9792   */\n      slt\n        /* \"#utility.yul\":9709:9877   */\n      tag_218\n      jumpi\n        /* \"#utility.yul\":9796:9875   */\n      tag_219\n      tag_117\n      jump\t// in\n    tag_219:\n        /* \"#utility.yul\":9709:9877   */\n    tag_218:\n        /* \"#utility.yul\":9908:9926   */\n      dup1\n        /* \"#utility.yul\":9898:9906   */\n      dup5\n        /* \"#utility.yul\":9894:9927   */\n      add\n        /* \"#utility.yul\":9886:9927   */\n      swap3\n      pop\n        /* \"#utility.yul\":9960:9964   */\n      dup3\n        /* \"#utility.yul\":9947:9965   */\n      calldataload\n        /* \"#utility.yul\":9937:9965   */\n      swap2\n      pop\n        /* \"#utility.yul\":9988:10006   */\n      0xffffffffffffffff\n        /* \"#utility.yul\":9980:9986   */\n      dup3\n        /* \"#utility.yul\":9977:10007   */\n      gt\n        /* \"#utility.yul\":9974:10091   */\n      iszero\n      tag_220\n      jumpi\n        /* \"#utility.yul\":10010:10089   */\n      tag_221\n      tag_118\n      jump\t// in\n    tag_221:\n        /* \"#utility.yul\":9974:10091   */\n    tag_220:\n        /* \"#utility.yul\":10118:10120   */\n      0x20\n        /* \"#utility.yul\":10112:10116   */\n      dup4\n        /* \"#utility.yul\":10108:10121   */\n      add\n        /* \"#utility.yul\":10100:10121   */\n      swap3\n      pop\n        /* \"#utility.yul\":10175:10179   */\n      0x20\n        /* \"#utility.yul\":10167:10173   */\n      dup3\n        /* \"#utility.yul\":10163:10180   */\n      mul\n        /* \"#utility.yul\":10147:10161   */\n      calldatasize\n        /* \"#utility.yul\":10143:10181   */\n      sub\n        /* \"#utility.yul\":10137:10141   */\n      dup4\n        /* \"#utility.yul\":10133:10182   */\n      sgt\n        /* \"#utility.yul\":10130:10266   */\n      iszero\n      tag_222\n      jumpi\n        /* \"#utility.yul\":10185:10264   */\n      tag_223\n      tag_119\n      jump\t// in\n    tag_223:\n        /* \"#utility.yul\":10130:10266   */\n    tag_222:\n        /* \"#utility.yul\":9639:10273   */\n      pop\n        /* \"#utility.yul\":9533:10273   */\n      swap3\n      pop\n      swap3\n      swap1\n      pop\n      jump\t// out\n        /* \"#utility.yul\":10279:10459   */\n    tag_120:\n        /* \"#utility.yul\":10327:10404   */\n      0x4e487b7100000000000000000000000000000000000000000000000000000000\n        /* \"#utility.yul\":10324:10325   */\n      0x00\n        /* \"#utility.yul\":10317:10405   */\n      mstore\n        /* \"#utility.yul\":10424:10428   */\n      0x11\n        /* \"#utility.yul\":10421:10422   */\n      0x04\n        /* \"#utility.yul\":10414:10429   */\n      mstore\n        /* \"#utility.yul\":10448:10452   */\n      0x24\n        /* \"#utility.yul\":10445:10446   */\n      0x00\n        /* \"#utility.yul\":10438:10453   */\n      revert\n        /* \"#utility.yul\":10465:10698   */\n    tag_83:\n        /* \"#utility.yul\":10504:10507   */\n      0x00\n        /* \"#utility.yul\":10527:10551   */\n      tag_226\n        /* \"#utility.yul\":10545:10550   */\n      dup3\n        /* \"#utility.yul\":10527:10551   */\n      tag_91\n      jump\t// in\n    tag_226:\n        /* \"#utility.yul\":10518:10551   */\n      swap2\n      pop\n        /* \"#utility.yul\":10573:10639   */\n      0xffffffffffffffffffffffffffffffffffffffffffffffffffffffffffffffff\n        /* \"#utility.yul\":10566:10571   */\n      dup3\n        /* \"#utility.yul\":10563:10640   */\n      sub\n        /* \"#utility.yul\":10560:10663   */\n      tag_227\n      jumpi\n        /* \"#utility.yul\":10643:10661   */\n      tag_228\n      tag_120\n      jump\t// in\n    tag_228:\n        /* \"#utility.yul\":10560:10663   */\n    tag_227:\n        /* \"#utility.yul\":10690:10691   */\n      0x01\n        /* \"#utility.yul\":10683:10688   */\n      dup3\n        /* \"#utility.yul\":10679:10692   */\n      add\n        /* \"#utility.yul\":10672:10692   */\n      swap1\n      pop\n        /* \"#utility.yul\":10465:10698   */\n      swap2\n      swap1\n      pop\n      jump\t// out\n        /* \"#utility.yul\":10704:10872   */\n    tag_121:\n        /* \"#utility.yul\":10844:10864   */\n      0x416d6f756e74206d757374206265203e20300000000000000000000000000000\n        /* \"#utility.yul\":10840:10841   */\n      0x00\n        /* \"#utility.yul\":10832:10838   */\n      dup3\n        /* \"#utility.yul\":10828:10842   */\n      add\n        /* \"#utility.yul\":10821:10865   */\n      mstore\n        /* \"#utility.yul\":10704:10872   */\n      pop\n      jump\t// out\n        /* \"#utility.yul\":10878:11244   */\n    tag_122:\n        /* \"#utility.yul\":11020:11023   */\n      0x00\n        /* \"#utility.yul\":11041:11108   */\n      tag_231\n        /* \"#utility.yul\":11105:11107   */\n      0x12\n        /* \"#utility.yul\":11100:11103   */\n      dup4\n        /* \"#utility.yul\":11041:11108   */\n      tag_110\n      jump\t// in\n    tag_231:\n        /* \"#utility.yul\":11034:11108   */\n      swap2\n      pop\n        /* \"#utility.yul\":11117:11210   */\n      tag_232\n        /* \"#utility.yul\":11206:11209   */\n      dup3\n        /* \"#utility.yul\":11117:11210   */\n      tag_121\n      jump\t// in\n    tag_232:\n        /* \"#utility.yul\":11235:11237   */\n      0x20\n        /* \"#utility.yul\":11230:11233   */\n      dup3\n        /* \"#utility.yul\":11226:11238   */\n      add\n        /* \"#utility.yul\":11219:11238   */\n      swap1\n      pop\n        /* \"#utility.yul\":10878:11244   */\n      swap2\n      swap1\n      pop\n      jump\t// out\n        /* \"#utility.yul\":11250:11669   */\n    tag_87:\n        /* \"#utility.yul\":11416:11420   */\n      0x00\n        /* \"#utility.yul\":11454:11456   */\n      0x20\n        /* \"#utility.yul\":11443:11452   */\n      dup3\n        /* \"#utility.yul\":11439:11457   */\n      add\n        /* \"#utility.yul\":11431:11457   */\n      swap1\n      pop\n        /* \"#utility.yul\":11503:11512   */\n      dup2\n        /* \"#utility.yul\":11497:11501   */\n      dup2\n        /* \"#utility.yul\":11493:11513   */\n      sub\n        /* \"#utility.yul\":11489:11490   */\n      0x00\n        /* \"#utility.yul\":11478:11487   */\n      dup4\n        /* \"#utility.yul\":11474:11491   */\n      add\n        /* \"#utility.yul\":11467:11514   */\n      mstore\n        /* \"#utility.yul\":11531:11662   */\n      tag_234\n        /* \"#utility.yul\":11657:11661   */\n      dup2\n        /* \"#utility.yul\":11531:11662   */\n      tag_122\n      jump\t// in\n    tag_234:\n        /* \"#utility.yul\":11523:11662   */\n      swap1\n      pop\n        /* \"#utility.yul\":11250:11669   */\n      swap2\n      swap1\n      pop\n      jump\t// out\n        /* \"#utility.yul\":11675:11841   */\n    tag_123:\n        /* \"#utility.yul\":11815:11833   */\n      0x416d6f756e7420746f6f206c6172676500000000000000000000000000000000\n        /* \"#utility.yul\":11811:11812   */\n      0x00\n        /* \"#utility.yul\":11803:11809   */\n      dup3\n        /* \"#utility.yul\":11799:11813   */\n      add\n        /* \"#utility.yul\":11792:11834   */\n      mstore\n        /* \"#utility.yul\":11675:11841   */\n      pop\n      jump\t// out\n        /* \"#utility.yul\":11847:12213   */\n    tag_124:\n        /* \"#utility.yul\":11989:11992   */\n      0x00\n        /* \"#utility.yul\":12010:12077   */\n      tag_237\n        /* \"#utility.yul\":12074:12076   */\n      0x10\n        /* \"#utility.yul\":12069:12072   */\n      dup4\n        /* \"#utility.yul\":12010:12077   */\n      tag_110\n      jump\t// in\n    tag_237:\n        /* \"#utility.yul\":12003:12077   */\n      swap2\n      pop\n        /* \"#utility.yul\":12086:12179   */\n      tag_238\n        /* \"#utility.yul\":12175:12178   */\n      dup3\n        /* \"#utility.yul\":12086:12179   */\n      tag_123\n      jump\t// in\n    tag_238:\n        /* \"#utility.yul\":12204:12206   */\n      0x20\n        /* \"#utility.yul\":12199:12202   */\n      dup3\n        /* \"#utility.yul\":12195:12207   */\n      add\n        /* \"#utility.yul\":12188:12207   */\n      swap1\n      pop\n        /* \"#utility.yul\":11847:12213   */\n      swap2\n      swap1\n      pop\n      jump\t// out\n        /* \"#utility.yul\":12219:12638   */\n    tag_90:\n        /* \"#utility.yul\":12385:12389   */\n      0x00\n        /* \"#utility.yul\":12423:12425   */\n      0x20\n        /* \"#utility.yul\":12412:12421   */\n      dup3\n        /* \"#utility.yul\":12408:12426   */\n      add\n        /* \"#utility.yul\":12400:12426   */\n      swap1\n      pop\n        /* \"#utility.yul\":12472:12481   */\n      dup2\n        /* \"#utility.yul\":12466:12470   */\n      dup2\n        /* \"#utility.yul\":12462:12482   */\n      sub\n        /* \"#utility.yul\":12458:12459   */\n      0x00\n        /* \"#utility.yul\":12447:12456   */\n      dup4\n        /* \"#utility.yul\":12443:12460   */\n      add\n        /* \"#utility.yul\":12436:12483   */\n      mstore\n        /* \"#utility.yul\":12500:12631   */\n      tag_240\n        /* \"#utility.yul\":12626:12630   */\n      dup2\n        /* \"#utility.yul\":12500:12631   */\n      tag_124\n      jump\t// in\n    tag_240:\n        /* \"#utility.yul\":12492:12631   */\n      swap1\n      pop\n        /* \"#utility.yul\":12219:12638   */\n      swap2\n      swap1\n      pop\n      jump\t// out\n\n    auxdata: 0xa2646970667358221220dc912c55e9fd5eb0d6d50b2ac2c042e78002facb93b5a33ccbf43f8630b788d864736f6c63430008220033\n}\n",
				"bytecode": {
					"linkReferences": {},
					"object": "6080604052348015600e575f5ffd5b50610bd48061001c5f395ff3fe608060405234801561000f575f5ffd5b5060043610610060575f3560e01c80631d7315cc146100645780635cda792714610082578063718da7ee146100b2578063b5cc7bd9146100ce578063b6b55f25146100fe578063f8ea8ed01461011a575b5f5ffd5b61006c610138565b60405161007991906105a8565b60405180910390f35b61009c6004803603810190610097919061062a565b61013d565b6040516100a9919061068f565b60405180910390f35b6100cc60048036038101906100c79190610702565b6101de565b005b6100e860048036038101906100e39190610782565b61028f565b6040516100f5919061068f565b60405180910390f35b610118600480360381019061011391906107f7565b6104d4565b005b61012261056b565b60405161012f9190610831565b60405180910390f35b5f5481565b5f365f8484915091505f828290501161018b576040517f08c379a0000000000000000000000000000000000000000000000000000000008152600401610182906108a4565b60405180910390fd5b60328282905011156101d2576040517f08c379a00000000000000000000000000000000000000000000000000000000081526004016101c99061090c565b60405180910390fd5b60019250505092915050565b5f73ffffffffffffffffffffffffffffffffffffffff168173ffffffffffffffffffffffffffffffffffffffff160361024c576040517f08c379a000000000000000000000000000000000000000000000000000000000815260040161024390610974565b60405180910390fd5b8060015f6101000a81548173ffffffffffffffffffffffffffffffffffffffff021916908373ffffffffffffffffffffffffffffffffffffffff16021790555050565b5f60328383905011156102ce576040517fa4fa22c400000000000000000000000000000000000000000000000000000000815260040160405180910390fd5b5f6109c467ffffffffffffffff8111156102eb576102ea610992565b5b6040519080825280602002602001820160405280156103195781602001602082028036833780820191505090505b5090505f5f90505f5f90505b858590508110156104c7576032868683818110610345576103446109bf565b5b905060200281019061035791906109f8565b90501115610391576040517f862639e600000000000000000000000000000000000000000000000000000000815260040160405180910390fd5b5f5f90505b8686838181106103a9576103a86109bf565b5b90506020028101906103bb91906109f8565b90508110156104b9575f8787848181106103d8576103d76109bf565b5b90506020028101906103ea91906109f8565b838181106103fb576103fa6109bf565b5b9050602002013590505f5f90505b8481101561047c5781868281518110610425576104246109bf565b5b60200260200101510361046f57816040517f259e6bf600000000000000000000000000000000000000000000000000000000815260040161046691906105a8565b60405180910390fd5b8080600101915050610409565b5080858581518110610491576104906109bf565b5b60200260200101818152505083806104a890610a87565b945050508080600101915050610396565b508080600101915050610325565b5060019250505092915050565b5f8111610516576040517f08c379a000000000000000000000000000000000000000000000000000000000815260040161050d90610b18565b60405180910390fd5b683635c9adc5dea00000811115610562576040517f08c379a000000000000000000000000000000000000000000000000000000000815260040161055990610b80565b60405180910390fd5b805f8190555050565b60015f9054906101000a900473ffffffffffffffffffffffffffffffffffffffff1681565b5f819050919050565b6105a281610590565b82525050565b5f6020820190506105bb5f830184610599565b92915050565b5f5ffd5b5f5ffd5b5f5ffd5b5f5ffd5b5f5ffd5b5f5f83601f8401126105ea576105e96105c9565b5b8235905067ffffffffffffffff811115610607576106066105cd565b5b602083019150836001820283011115610623576106226105d1565b5b9250929050565b5f5f602083850312156106405761063f6105c1565b5b5f83013567ffffffffffffffff81111561065d5761065c6105c5565b5b610669858286016105d5565b92509250509250929050565b5f8115159050919050565b61068981610675565b82525050565b5f6020820190506106a25f830184610680565b92915050565b5f73ffffffffffffffffffffffffffffffffffffffff82169050919050565b5f6106d1826106a8565b9050919050565b6106e1816106c7565b81146106eb575f5ffd5b50565b5f813590506106fc816106d8565b92915050565b5f60208284031215610717576107166105c1565b5b5f610724848285016106ee565b91505092915050565b5f5f83601f840112610742576107416105c9565b5b8235905067ffffffffffffffff81111561075f5761075e6105cd565b5b60208301915083602082028301111561077b5761077a6105d1565b5b9250929050565b5f5f60208385031215610798576107976105c1565b5b5f83013567ffffffffffffffff8111156107b5576107b46105c5565b5b6107c18582860161072d565b92509250509250929050565b6107d681610590565b81146107e0575f5ffd5b50565b5f813590506107f1816107cd565b92915050565b5f6020828403121561080c5761080b6105c1565b5b5f610819848285016107e3565b91505092915050565b61082b816106c7565b82525050565b5f6020820190506108445f830184610822565b92915050565b5f82825260208201905092915050565b7f456d707479206d657373616765000000000000000000000000000000000000005f82015250565b5f61088e600d8361084a565b91506108998261085a565b602082019050919050565b5f6020820190508181035f8301526108bb81610882565b9050919050565b7f4d65737361676520746f6f206c6f6e67000000000000000000000000000000005f82015250565b5f6108f660108361084a565b9150610901826108c2565b602082019050919050565b5f6020820190508181035f830152610923816108ea565b9050919050565b7f496e76616c6964206164647265737300000000000000000000000000000000005f82015250565b5f61095e600f8361084a565b91506109698261092a565b602082019050919050565b5f6020820190508181035f83015261098b81610952565b9050919050565b7f4e487b71000000000000000000000000000000000000000000000000000000005f52604160045260245ffd5b7f4e487b71000000000000000000000000000000000000000000000000000000005f52603260045260245ffd5b5f5ffd5b5f5ffd5b5f5ffd5b5f5f83356001602003843603038112610a1457610a136109ec565b5b80840192508235915067ffffffffffffffff821115610a3657610a356109f0565b5b602083019250602082023603831315610a5257610a516109f4565b5b509250929050565b7f4e487b71000000000000000000000000000000000000000000000000000000005f52601160045260245ffd5b5f610a9182610590565b91507fffffffffffffffffffffffffffffffffffffffffffffffffffffffffffffffff8203610ac357610ac2610a5a565b5b600182019050919050565b7f416d6f756e74206d757374206265203e203000000000000000000000000000005f82015250565b5f610b0260128361084a565b9150610b0d82610ace565b602082019050919050565b5f6020820190508181035f830152610b2f81610af6565b9050919050565b7f416d6f756e7420746f6f206c61726765000000000000000000000000000000005f82015250565b5f610b6a60108361084a565b9150610b7582610b36565b602082019050919050565b5f6020820190508181035f830152610b9781610b5e565b905091905056fea2646970667358221220dc912c55e9fd5eb0d6d50b2ac2c042e78002facb93b5a33ccbf43f8630b788d864736f6c63430008220033",
					"opcodes": "PUSH1 0x80 PUSH1 0x40 MSTORE CALLVALUE DUP1 ISZERO PUSH1 0xE JUMPI PUSH0 PUSH0 REVERT JUMPDEST POP PUSH2 0xBD4 DUP1 PUSH2 0x1C PUSH0 CODECOPY PUSH0 RETURN INVALID PUSH1 0x80 PUSH1 0x40 MSTORE CALLVALUE DUP1 ISZERO PUSH2 0xF JUMPI PUSH0 PUSH0 REVERT JUMPDEST POP PUSH1 0x4 CALLDATASIZE LT PUSH2 0x60 JUMPI PUSH0 CALLDATALOAD PUSH1 0xE0 SHR DUP1 PUSH4 0x1D7315CC EQ PUSH2 0x64 JUMPI DUP1 PUSH4 0x5CDA7927 EQ PUSH2 0x82 JUMPI DUP1 PUSH4 0x718DA7EE EQ PUSH2 0xB2 JUMPI DUP1 PUSH4 0xB5CC7BD9 EQ PUSH2 0xCE JUMPI DUP1 PUSH4 0xB6B55F25 EQ PUSH2 0xFE JUMPI DUP1 PUSH4 0xF8EA8ED0 EQ PUSH2 0x11A JUMPI JUMPDEST PUSH0 PUSH0 REVERT JUMPDEST PUSH2 0x6C PUSH2 0x138 JUMP JUMPDEST PUSH1 0x40 MLOAD PUSH2 0x79 SWAP2 SWAP1 PUSH2 0x5A8 JUMP JUMPDEST PUSH1 0x40 MLOAD DUP1 SWAP2 SUB SWAP1 RETURN JUMPDEST PUSH2 0x9C PUSH1 0x4 DUP1 CALLDATASIZE SUB DUP2 ADD SWAP1 PUSH2 0x97 SWAP2 SWAP1 PUSH2 0x62A JUMP JUMPDEST PUSH2 0x13D JUMP JUMPDEST PUSH1 0x40 MLOAD PUSH2 0xA9 SWAP2 SWAP1 PUSH2 0x68F JUMP JUMPDEST PUSH1 0x40 MLOAD DUP1 SWAP2 SUB SWAP1 RETURN JUMPDEST PUSH2 0xCC PUSH1 0x4 DUP1 CALLDATASIZE SUB DUP2 ADD SWAP1 PUSH2 0xC7 SWAP2 SWAP1 PUSH2 0x702 JUMP JUMPDEST PUSH2 0x1DE JUMP JUMPDEST STOP JUMPDEST PUSH2 0xE8 PUSH1 0x4 DUP1 CALLDATASIZE SUB DUP2 ADD SWAP1 PUSH2 0xE3 SWAP2 SWAP1 PUSH2 0x782 JUMP JUMPDEST PUSH2 0x28F JUMP JUMPDEST PUSH1 0x40 MLOAD PUSH2 0xF5 SWAP2 SWAP1 PUSH2 0x68F JUMP JUMPDEST PUSH1 0x40 MLOAD DUP1 SWAP2 SUB SWAP1 RETURN JUMPDEST PUSH2 0x118 PUSH1 0x4 DUP1 CALLDATASIZE SUB DUP2 ADD SWAP1 PUSH2 0x113 SWAP2 SWAP1 PUSH2 0x7F7 JUMP JUMPDEST PUSH2 0x4D4 JUMP JUMPDEST STOP JUMPDEST PUSH2 0x122 PUSH2 0x56B JUMP JUMPDEST PUSH1 0x40 MLOAD PUSH2 0x12F SWAP2 SWAP1 PUSH2 0x831 JUMP JUMPDEST PUSH1 0x40 MLOAD DUP1 SWAP2 SUB SWAP1 RETURN JUMPDEST PUSH0 SLOAD DUP2 JUMP JUMPDEST PUSH0 CALLDATASIZE PUSH0 DUP5 DUP5 SWAP2 POP SWAP2 POP PUSH0 DUP3 DUP3 SWAP1 POP GT PUSH2 0x18B JUMPI PUSH1 0x40 MLOAD PUSH32 0x8C379A000000000000000000000000000000000000000000000000000000000 DUP2 MSTORE PUSH1 0x4 ADD PUSH2 0x182 SWAP1 PUSH2 0x8A4 JUMP JUMPDEST PUSH1 0x40 MLOAD DUP1 SWAP2 SUB SWAP1 REVERT JUMPDEST PUSH1 0x32 DUP3 DUP3 SWAP1 POP GT ISZERO PUSH2 0x1D2 JUMPI PUSH1 0x40 MLOAD PUSH32 0x8C379A000000000000000000000000000000000000000000000000000000000 DUP2 MSTORE PUSH1 0x4 ADD PUSH2 0x1C9 SWAP1 PUSH2 0x90C JUMP JUMPDEST PUSH1 0x40 MLOAD DUP1 SWAP2 SUB SWAP1 REVERT JUMPDEST PUSH1 0x1 SWAP3 POP POP POP SWAP3 SWAP2 POP POP JUMP JUMPDEST PUSH0 PUSH20 0xFFFFFFFFFFFFFFFFFFFFFFFFFFFFFFFFFFFFFFFF AND DUP2 PUSH20 0xFFFFFFFFFFFFFFFFFFFFFFFFFFFFFFFFFFFFFFFF AND SUB PUSH2 0x24C JUMPI PUSH1 0x40 MLOAD PUSH32 0x8C379A000000000000000000000000000000000000000000000000000000000 DUP2 MSTORE PUSH1 0x4 ADD PUSH2 0x243 SWAP1 PUSH2 0x974 JUMP JUMPDEST PUSH1 0x40 MLOAD DUP1 SWAP2 SUB SWAP1 REVERT JUMPDEST DUP1 PUSH1 0x1 PUSH0 PUSH2 0x100 EXP DUP2 SLOAD DUP2 PUSH20 0xFFFFFFFFFFFFFFFFFFFFFFFFFFFFFFFFFFFFFFFF MUL NOT AND SWAP1 DUP4 PUSH20 0xFFFFFFFFFFFFFFFFFFFFFFFFFFFFFFFFFFFFFFFF AND MUL OR SWAP1 SSTORE POP POP JUMP JUMPDEST PUSH0 PUSH1 0x32 DUP4 DUP4 SWAP1 POP GT ISZERO PUSH2 0x2CE JUMPI PUSH1 0x40 MLOAD PUSH32 0xA4FA22C400000000000000000000000000000000000000000000000000000000 DUP2 MSTORE PUSH1 0x4 ADD PUSH1 0x40 MLOAD DUP1 SWAP2 SUB SWAP1 REVERT JUMPDEST PUSH0 PUSH2 0x9C4 PUSH8 0xFFFFFFFFFFFFFFFF DUP2 GT ISZERO PUSH2 0x2EB JUMPI PUSH2 0x2EA PUSH2 0x992 JUMP JUMPDEST JUMPDEST PUSH1 0x40 MLOAD SWAP1 DUP1 DUP3 MSTORE DUP1 PUSH1 0x20 MUL PUSH1 0x20 ADD DUP3 ADD PUSH1 0x40 MSTORE DUP1 ISZERO PUSH2 0x319 JUMPI DUP2 PUSH1 0x20 ADD PUSH1 0x20 DUP3 MUL DUP1 CALLDATASIZE DUP4 CALLDATACOPY DUP1 DUP3 ADD SWAP2 POP POP SWAP1 POP JUMPDEST POP SWAP1 POP PUSH0 PUSH0 SWAP1 POP PUSH0 PUSH0 SWAP1 POP JUMPDEST DUP6 DUP6 SWAP1 POP DUP2 LT ISZERO PUSH2 0x4C7 JUMPI PUSH1 0x32 DUP7 DUP7 DUP4 DUP2 DUP2 LT PUSH2 0x345 JUMPI PUSH2 0x344 PUSH2 0x9BF JUMP JUMPDEST JUMPDEST SWAP1 POP PUSH1 0x20 MUL DUP2 ADD SWAP1 PUSH2 0x357 SWAP2 SWAP1 PUSH2 0x9F8 JUMP JUMPDEST SWAP1 POP GT ISZERO PUSH2 0x391 JUMPI PUSH1 0x40 MLOAD PUSH32 0x862639E600000000000000000000000000000000000000000000000000000000 DUP2 MSTORE PUSH1 0x4 ADD PUSH1 0x40 MLOAD DUP1 SWAP2 SUB SWAP1 REVERT JUMPDEST PUSH0 PUSH0 SWAP1 POP JUMPDEST DUP7 DUP7 DUP4 DUP2 DUP2 LT PUSH2 0x3A9 JUMPI PUSH2 0x3A8 PUSH2 0x9BF JUMP JUMPDEST JUMPDEST SWAP1 POP PUSH1 0x20 MUL DUP2 ADD SWAP1 PUSH2 0x3BB SWAP2 SWAP1 PUSH2 0x9F8 JUMP JUMPDEST SWAP1 POP DUP2 LT ISZERO PUSH2 0x4B9 JUMPI PUSH0 DUP8 DUP8 DUP5 DUP2 DUP2 LT PUSH2 0x3D8 JUMPI PUSH2 0x3D7 PUSH2 0x9BF JUMP JUMPDEST JUMPDEST SWAP1 POP PUSH1 0x20 MUL DUP2 ADD SWAP1 PUSH2 0x3EA SWAP2 SWAP1 PUSH2 0x9F8 JUMP JUMPDEST DUP4 DUP2 DUP2 LT PUSH2 0x3FB JUMPI PUSH2 0x3FA PUSH2 0x9BF JUMP JUMPDEST JUMPDEST SWAP1 POP PUSH1 0x20 MUL ADD CALLDATALOAD SWAP1 POP PUSH0 PUSH0 SWAP1 POP JUMPDEST DUP5 DUP2 LT ISZERO PUSH2 0x47C JUMPI DUP2 DUP7 DUP3 DUP2 MLOAD DUP2 LT PUSH2 0x425 JUMPI PUSH2 0x424 PUSH2 0x9BF JUMP JUMPDEST JUMPDEST PUSH1 0x20 MUL PUSH1 0x20 ADD ADD MLOAD SUB PUSH2 0x46F JUMPI DUP2 PUSH1 0x40 MLOAD PUSH32 0x259E6BF600000000000000000000000000000000000000000000000000000000 DUP2 MSTORE PUSH1 0x4 ADD PUSH2 0x466 SWAP2 SWAP1 PUSH2 0x5A8 JUMP JUMPDEST PUSH1 0x40 MLOAD DUP1 SWAP2 SUB SWAP1 REVERT JUMPDEST DUP1 DUP1 PUSH1 0x1 ADD SWAP2 POP POP PUSH2 0x409 JUMP JUMPDEST POP DUP1 DUP6 DUP6 DUP2 MLOAD DUP2 LT PUSH2 0x491 JUMPI PUSH2 0x490 PUSH2 0x9BF JUMP JUMPDEST JUMPDEST PUSH1 0x20 MUL PUSH1 0x20 ADD ADD DUP2 DUP2 MSTORE POP POP DUP4 DUP1 PUSH2 0x4A8 SWAP1 PUSH2 0xA87 JUMP JUMPDEST SWAP5 POP POP POP DUP1 DUP1 PUSH1 0x1 ADD SWAP2 POP POP PUSH2 0x396 JUMP JUMPDEST POP DUP1 DUP1 PUSH1 0x1 ADD SWAP2 POP POP PUSH2 0x325 JUMP JUMPDEST POP PUSH1 0x1 SWAP3 POP POP POP SWAP3 SWAP2 POP POP JUMP JUMPDEST PUSH0 DUP2 GT PUSH2 0x516 JUMPI PUSH1 0x40 MLOAD PUSH32 0x8C379A000000000000000000000000000000000000000000000000000000000 DUP2 MSTORE PUSH1 0x4 ADD PUSH2 0x50D SWAP1 PUSH2 0xB18 JUMP JUMPDEST PUSH1 0x40 MLOAD DUP1 SWAP2 SUB SWAP1 REVERT JUMPDEST PUSH9 0x3635C9ADC5DEA00000 DUP2 GT ISZERO PUSH2 0x562 JUMPI PUSH1 0x40 MLOAD PUSH32 0x8C379A000000000000000000000000000000000000000000000000000000000 DUP2 MSTORE PUSH1 0x4 ADD PUSH2 0x559 SWAP1 PUSH2 0xB80 JUMP JUMPDEST PUSH1 0x40 MLOAD DUP1 SWAP2 SUB SWAP1 REVERT JUMPDEST DUP1 PUSH0 DUP2 SWAP1 SSTORE POP POP JUMP JUMPDEST PUSH1 0x1 PUSH0 SWAP1 SLOAD SWAP1 PUSH2 0x100 EXP SWAP1 DIV PUSH20 0xFFFFFFFFFFFFFFFFFFFFFFFFFFFFFFFFFFFFFFFF AND DUP2 JUMP JUMPDEST PUSH0 DUP2 SWAP1 POP SWAP2 SWAP1 POP JUMP JUMPDEST PUSH2 0x5A2 DUP2 PUSH2 0x590 JUMP JUMPDEST DUP3 MSTORE POP POP JUMP JUMPDEST PUSH0 PUSH1 0x20 DUP3 ADD SWAP1 POP PUSH2 0x5BB PUSH0 DUP4 ADD DUP5 PUSH2 0x599 JUMP JUMPDEST SWAP3 SWAP2 POP POP JUMP JUMPDEST PUSH0 PUSH0 REVERT JUMPDEST PUSH0 PUSH0 REVERT JUMPDEST PUSH0 PUSH0 REVERT JUMPDEST PUSH0 PUSH0 REVERT JUMPDEST PUSH0 PUSH0 REVERT JUMPDEST PUSH0 PUSH0 DUP4 PUSH1 0x1F DUP5 ADD SLT PUSH2 0x5EA JUMPI PUSH2 0x5E9 PUSH2 0x5C9 JUMP JUMPDEST JUMPDEST DUP3 CALLDATALOAD SWAP1 POP PUSH8 0xFFFFFFFFFFFFFFFF DUP2 GT ISZERO PUSH2 0x607 JUMPI PUSH2 0x606 PUSH2 0x5CD JUMP JUMPDEST JUMPDEST PUSH1 0x20 DUP4 ADD SWAP2 POP DUP4 PUSH1 0x1 DUP3 MUL DUP4 ADD GT ISZERO PUSH2 0x623 JUMPI PUSH2 0x622 PUSH2 0x5D1 JUMP JUMPDEST JUMPDEST SWAP3 POP SWAP3 SWAP1 POP JUMP JUMPDEST PUSH0 PUSH0 PUSH1 0x20 DUP4 DUP6 SUB SLT ISZERO PUSH2 0x640 JUMPI PUSH2 0x63F PUSH2 0x5C1 JUMP JUMPDEST JUMPDEST PUSH0 DUP4 ADD CALLDATALOAD PUSH8 0xFFFFFFFFFFFFFFFF DUP2 GT ISZERO PUSH2 0x65D JUMPI PUSH2 0x65C PUSH2 0x5C5 JUMP JUMPDEST JUMPDEST PUSH2 0x669 DUP6 DUP3 DUP7 ADD PUSH2 0x5D5 JUMP JUMPDEST SWAP3 POP SWAP3 POP POP SWAP3 POP SWAP3 SWAP1 POP JUMP JUMPDEST PUSH0 DUP2 ISZERO ISZERO SWAP1 POP SWAP2 SWAP1 POP JUMP JUMPDEST PUSH2 0x689 DUP2 PUSH2 0x675 JUMP JUMPDEST DUP3 MSTORE POP POP JUMP JUMPDEST PUSH0 PUSH1 0x20 DUP3 ADD SWAP1 POP PUSH2 0x6A2 PUSH0 DUP4 ADD DUP5 PUSH2 0x680 JUMP JUMPDEST SWAP3 SWAP2 POP POP JUMP JUMPDEST PUSH0 PUSH20 0xFFFFFFFFFFFFFFFFFFFFFFFFFFFFFFFFFFFFFFFF DUP3 AND SWAP1 POP SWAP2 SWAP1 POP JUMP JUMPDEST PUSH0 PUSH2 0x6D1 DUP3 PUSH2 0x6A8 JUMP JUMPDEST SWAP1 POP SWAP2 SWAP1 POP JUMP JUMPDEST PUSH2 0x6E1 DUP2 PUSH2 0x6C7 JUMP JUMPDEST DUP2 EQ PUSH2 0x6EB JUMPI PUSH0 PUSH0 REVERT JUMPDEST POP JUMP JUMPDEST PUSH0 DUP2 CALLDATALOAD SWAP1 POP PUSH2 0x6FC DUP2 PUSH2 0x6D8 JUMP JUMPDEST SWAP3 SWAP2 POP POP JUMP JUMPDEST PUSH0 PUSH1 0x20 DUP3 DUP5 SUB SLT ISZERO PUSH2 0x717 JUMPI PUSH2 0x716 PUSH2 0x5C1 JUMP JUMPDEST JUMPDEST PUSH0 PUSH2 0x724 DUP5 DUP3 DUP6 ADD PUSH2 0x6EE JUMP JUMPDEST SWAP2 POP POP SWAP3 SWAP2 POP POP JUMP JUMPDEST PUSH0 PUSH0 DUP4 PUSH1 0x1F DUP5 ADD SLT PUSH2 0x742 JUMPI PUSH2 0x741 PUSH2 0x5C9 JUMP JUMPDEST JUMPDEST DUP3 CALLDATALOAD SWAP1 POP PUSH8 0xFFFFFFFFFFFFFFFF DUP2 GT ISZERO PUSH2 0x75F JUMPI PUSH2 0x75E PUSH2 0x5CD JUMP JUMPDEST JUMPDEST PUSH1 0x20 DUP4 ADD SWAP2 POP DUP4 PUSH1 0x20 DUP3 MUL DUP4 ADD GT ISZERO PUSH2 0x77B JUMPI PUSH2 0x77A PUSH2 0x5D1 JUMP JUMPDEST JUMPDEST SWAP3 POP SWAP3 SWAP1 POP JUMP JUMPDEST PUSH0 PUSH0 PUSH1 0x20 DUP4 DUP6 SUB SLT ISZERO PUSH2 0x798 JUMPI PUSH2 0x797 PUSH2 0x5C1 JUMP JUMPDEST JUMPDEST PUSH0 DUP4 ADD CALLDATALOAD PUSH8 0xFFFFFFFFFFFFFFFF DUP2 GT ISZERO PUSH2 0x7B5 JUMPI PUSH2 0x7B4 PUSH2 0x5C5 JUMP JUMPDEST JUMPDEST PUSH2 0x7C1 DUP6 DUP3 DUP7 ADD PUSH2 0x72D JUMP JUMPDEST SWAP3 POP SWAP3 POP POP SWAP3 POP SWAP3 SWAP1 POP JUMP JUMPDEST PUSH2 0x7D6 DUP2 PUSH2 0x590 JUMP JUMPDEST DUP2 EQ PUSH2 0x7E0 JUMPI PUSH0 PUSH0 REVERT JUMPDEST POP JUMP JUMPDEST PUSH0 DUP2 CALLDATALOAD SWAP1 POP PUSH2 0x7F1 DUP2 PUSH2 0x7CD JUMP JUMPDEST SWAP3 SWAP2 POP POP JUMP JUMPDEST PUSH0 PUSH1 0x20 DUP3 DUP5 SUB SLT ISZERO PUSH2 0x80C JUMPI PUSH2 0x80B PUSH2 0x5C1 JUMP JUMPDEST JUMPDEST PUSH0 PUSH2 0x819 DUP5 DUP3 DUP6 ADD PUSH2 0x7E3 JUMP JUMPDEST SWAP2 POP POP SWAP3 SWAP2 POP POP JUMP JUMPDEST PUSH2 0x82B DUP2 PUSH2 0x6C7 JUMP JUMPDEST DUP3 MSTORE POP POP JUMP JUMPDEST PUSH0 PUSH1 0x20 DUP3 ADD SWAP1 POP PUSH2 0x844 PUSH0 DUP4 ADD DUP5 PUSH2 0x822 JUMP JUMPDEST SWAP3 SWAP2 POP POP JUMP JUMPDEST PUSH0 DUP3 DUP3 MSTORE PUSH1 0x20 DUP3 ADD SWAP1 POP SWAP3 SWAP2 POP POP JUMP JUMPDEST PUSH32 0x456D707479206D65737361676500000000000000000000000000000000000000 PUSH0 DUP3 ADD MSTORE POP JUMP JUMPDEST PUSH0 PUSH2 0x88E PUSH1 0xD DUP4 PUSH2 0x84A JUMP JUMPDEST SWAP2 POP PUSH2 0x899 DUP3 PUSH2 0x85A JUMP JUMPDEST PUSH1 0x20 DUP3 ADD SWAP1 POP SWAP2 SWAP1 POP JUMP JUMPDEST PUSH0 PUSH1 0x20 DUP3 ADD SWAP1 POP DUP2 DUP2 SUB PUSH0 DUP4 ADD MSTORE PUSH2 0x8BB DUP2 PUSH2 0x882 JUMP JUMPDEST SWAP1 POP SWAP2 SWAP1 POP JUMP JUMPDEST PUSH32 0x4D65737361676520746F6F206C6F6E6700000000000000000000000000000000 PUSH0 DUP3 ADD MSTORE POP JUMP JUMPDEST PUSH0 PUSH2 0x8F6 PUSH1 0x10 DUP4 PUSH2 0x84A JUMP JUMPDEST SWAP2 POP PUSH2 0x901 DUP3 PUSH2 0x8C2 JUMP JUMPDEST PUSH1 0x20 DUP3 ADD SWAP1 POP SWAP2 SWAP1 POP JUMP JUMPDEST PUSH0 PUSH1 0x20 DUP3 ADD SWAP1 POP DUP2 DUP2 SUB PUSH0 DUP4 ADD MSTORE PUSH2 0x923 DUP2 PUSH2 0x8EA JUMP JUMPDEST SWAP1 POP SWAP2 SWAP1 POP JUMP JUMPDEST PUSH32 0x496E76616C696420616464726573730000000000000000000000000000000000 PUSH0 DUP3 ADD MSTORE POP JUMP JUMPDEST PUSH0 PUSH2 0x95E PUSH1 0xF DUP4 PUSH2 0x84A JUMP JUMPDEST SWAP2 POP PUSH2 0x969 DUP3 PUSH2 0x92A JUMP JUMPDEST PUSH1 0x20 DUP3 ADD SWAP1 POP SWAP2 SWAP1 POP JUMP JUMPDEST PUSH0 PUSH1 0x20 DUP3 ADD SWAP1 POP DUP2 DUP2 SUB PUSH0 DUP4 ADD MSTORE PUSH2 0x98B DUP2 PUSH2 0x952 JUMP JUMPDEST SWAP1 POP SWAP2 SWAP1 POP JUMP JUMPDEST PUSH32 0x4E487B7100000000000000000000000000000000000000000000000000000000 PUSH0 MSTORE PUSH1 0x41 PUSH1 0x4 MSTORE PUSH1 0x24 PUSH0 REVERT JUMPDEST PUSH32 0x4E487B7100000000000000000000000000000000000000000000000000000000 PUSH0 MSTORE PUSH1 0x32 PUSH1 0x4 MSTORE PUSH1 0x24 PUSH0 REVERT JUMPDEST PUSH0 PUSH0 REVERT JUMPDEST PUSH0 PUSH0 REVERT JUMPDEST PUSH0 PUSH0 REVERT JUMPDEST PUSH0 PUSH0 DUP4 CALLDATALOAD PUSH1 0x1 PUSH1 0x20 SUB DUP5 CALLDATASIZE SUB SUB DUP2 SLT PUSH2 0xA14 JUMPI PUSH2 0xA13 PUSH2 0x9EC JUMP JUMPDEST JUMPDEST DUP1 DUP5 ADD SWAP3 POP DUP3 CALLDATALOAD SWAP2 POP PUSH8 0xFFFFFFFFFFFFFFFF DUP3 GT ISZERO PUSH2 0xA36 JUMPI PUSH2 0xA35 PUSH2 0x9F0 JUMP JUMPDEST JUMPDEST PUSH1 0x20 DUP4 ADD SWAP3 POP PUSH1 0x20 DUP3 MUL CALLDATASIZE SUB DUP4 SGT ISZERO PUSH2 0xA52 JUMPI PUSH2 0xA51 PUSH2 0x9F4 JUMP JUMPDEST JUMPDEST POP SWAP3 POP SWAP3 SWAP1 POP JUMP JUMPDEST PUSH32 0x4E487B7100000000000000000000000000000000000000000000000000000000 PUSH0 MSTORE PUSH1 0x11 PUSH1 0x4 MSTORE PUSH1 0x24 PUSH0 REVERT JUMPDEST PUSH0 PUSH2 0xA91 DUP3 PUSH2 0x590 JUMP JUMPDEST SWAP2 POP PUSH32 0xFFFFFFFFFFFFFFFFFFFFFFFFFFFFFFFFFFFFFFFFFFFFFFFFFFFFFFFFFFFFFFFF DUP3 SUB PUSH2 0xAC3 JUMPI PUSH2 0xAC2 PUSH2 0xA5A JUMP JUMPDEST JUMPDEST PUSH1 0x1 DUP3 ADD SWAP1 POP SWAP2 SWAP1 POP JUMP JUMPDEST PUSH32 0x416D6F756E74206D757374206265203E20300000000000000000000000000000 PUSH0 DUP3 ADD MSTORE POP JUMP JUMPDEST PUSH0 PUSH2 0xB02 PUSH1 0x12 DUP4 PUSH2 0x84A JUMP JUMPDEST SWAP2 POP PUSH2 0xB0D DUP3 PUSH2 0xACE JUMP JUMPDEST PUSH1 0x20 DUP3 ADD SWAP1 POP SWAP2 SWAP1 POP JUMP JUMPDEST PUSH0 PUSH1 0x20 DUP3 ADD SWAP1 POP DUP2 DUP2 SUB PUSH0 DUP4 ADD MSTORE PUSH2 0xB2F DUP2 PUSH2 0xAF6 JUMP JUMPDEST SWAP1 POP SWAP2 SWAP1 POP JUMP JUMPDEST PUSH32 0x416D6F756E7420746F6F206C6172676500000000000000000000000000000000 PUSH0 DUP3 ADD MSTORE POP JUMP JUMPDEST PUSH0 PUSH2 0xB6A PUSH1 0x10 DUP4 PUSH2 0x84A JUMP JUMPDEST SWAP2 POP PUSH2 0xB75 DUP3 PUSH2 0xB36 JUMP JUMPDEST PUSH1 0x20 DUP3 ADD SWAP1 POP SWAP2 SWAP1 POP JUMP JUMPDEST PUSH0 PUSH1 0x20 DUP3 ADD SWAP1 POP DUP2 DUP2 SUB PUSH0 DUP4 ADD MSTORE PUSH2 0xB97 DUP2 PUSH2 0xB5E JUMP JUMPDEST SWAP1 POP SWAP2 SWAP1 POP JUMP INVALID LOG2 PUSH5 0x6970667358 0x22 SLT KECCAK256 0xDC SWAP2 0x2C SSTORE 0xE9 REVERT MCOPY 0xB0 0xD6 0xD5 SIGNEXTEND 0x2A 0xC2 0xC0 TIMESTAMP SWAPN 0x80 MUL STATICCALL 0xCB SWAP4 0xB5 LOG3 EXTCODECOPY 0xCB DELEGATECALL EXTCODEHASH DUP7 ADDRESS 0xB7 DUP9 0xD8 PUSH5 0x736F6C6343 STOP ADDMOD 0x22 STOP CALLER "
				},
				"gasEstimates": {
					"creation": {
						"codeDepositCost": "605600",
						"executionCost": "636",
						"totalCost": "606236"
					},
					"external": {
						"deposit(uint256)": "22628",
						"lastReceiver()": "2596",
						"setReceiver(address)": "24771",
						"storedAmount()": "2402",
						"validateMessage(string)": "834",
						"validateNestedArray(uint256[][])": "infinite"
					}
				},
				"methodIdentifiers": {
					"deposit(uint256)": "b6b55f25",
					"lastReceiver()": "f8ea8ed0",
					"setReceiver(address)": "718da7ee",
					"storedAmount()": "1d7315cc",
					"validateMessage(string)": "5cda7927",
					"validateNestedArray(uint256[][])": "b5cc7bd9"
				}
			},
			"storageLayout": {
				"storage": [
					{
						"astId": 136,
						"contract": "val35.sol:ValidateCalldataInput",
						"label": "storedAmount",
						"offset": 0,
						"slot": "0",
						"type": "t_uint256"
					},
					{
						"astId": 138,
						"contract": "val35.sol:ValidateCalldataInput",
						"label": "lastReceiver",
						"offset": 0,
						"slot": "1",
						"type": "t_address"
					}
				],
				"types": {
					"t_address": {
						"encoding": "inplace",
						"label": "address",
						"numberOfBytes": "20"
					},
					"t_uint256": {
						"encoding": "inplace",
						"label": "uint256",
						"numberOfBytes": "32"
					}
				}
			},
			"userdoc": {
				"kind": "user",
				"methods": {},
				"version": 1
			}
		}
	}
}