{
	"val11.sol": {
		"SparseArrayBehaviorval": {
			"abi": [
				{
					"inputs": [
						{
							"internalType": "uint256",
							"name": "_number",
							"type": "uint256"
						}
					],
					"name": "addNumber",
					"outputs": [],
					"stateMutability": "nonpayable",
					"type": "function"
				},
				{
					"inputs": [
						{
							"internalType": "uint256",
							"name": "_index",
							"type": "uint256"
						}
					],
					"name": "deleteItem",
					"outputs": [],
					"stateMutability": "nonpayable",
					"type": "function"
				},
				{
					"inputs": [],
					"name": "getArray",
					"outputs": [
						{
							"internalType": "uint256[]",
							"name": "",
							"type": "uint256[]"
						}
					],
					"stateMutability": "view",
					"type": "function"
				},
				{
					"inputs": [],
					"name": "getLength",
					"outputs": [
						{
							"internalType": "uint256",
							"name": "",
							"type": "uint256"
						}
					],
					"stateMutability": "view",
					"type": "function"
				},
				{
					"inputs": [
						{
							"internalType": "uint256",
							"name": "",
							"type": "uint256"
						}
					],
					"name": "numbers",
					"outputs": [
						{
							"internalType": "uint256",
							"name": "",
							"type": "uint256"
						}
					],
					"stateMutability": "view",
					"type": "function"
				}
			],
			"devdoc": {
				"kind": "dev",
				"methods": {},
				"version": 1
			},
			"evm": {
				"assembly": "    /* \"val11.sol\":9360:10123  contract SparseArrayBehaviorval ... */\n  mstore(0x40, 0x80)\n  callvalue\n  dup1\n  iszero\n  tag_1\n  jumpi\n  revert(0x00, 0x00)\ntag_1:\n  pop\n  dataSize(sub_0)\n  dup1\n  dataOffset(sub_0)\n  0x00\n  codecopy\n  0x00\n  return\nstop\n\nsub_0: assembly {\n        /* \"val11.sol\":9360:10123  contract SparseArrayBehaviorval ... */\n      mstore(0x40, 0x80)\n      callvalue\n      dup1\n      iszero\n      tag_1\n      jumpi\n      revert(0x00, 0x00)\n    tag_1:\n      pop\n      jumpi(tag_2, lt(calldatasize, 0x04))\n      shr(0xe0, calldataload(0x00))\n      dup1\n      0x654fc833\n      eq\n      tag_3\n      jumpi\n      dup1\n      0xbe1c766b\n      eq\n      tag_4\n      jumpi\n      dup1\n      0xd39fa233\n      eq\n      tag_5\n      jumpi\n      dup1\n      0xd504ea1d\n      eq\n      tag_6\n      jumpi\n      dup1\n      0xfce68023\n      eq\n      tag_7\n      jumpi\n    tag_2:\n      revert(0x00, 0x00)\n        /* \"val11.sol\":9533:9883  function deleteItem(uint256 _index) public ... */\n    tag_3:\n      tag_8\n      0x04\n      dup1\n      calldatasize\n      sub\n      dup2\n      add\n      swap1\n      tag_9\n      swap2\n      swap1\n      tag_10\n      jump\t// in\n    tag_9:\n      tag_11\n      jump\t// in\n    tag_8:\n      stop\n        /* \"val11.sol\":10023:10120  function getLength() public view returns (uint256) ... */\n    tag_4:\n      tag_12\n      tag_13\n      jump\t// in\n    tag_12:\n      mload(0x40)\n      tag_14\n      swap2\n      swap1\n      tag_15\n      jump\t// in\n    tag_14:\n      mload(0x40)\n      dup1\n      swap2\n      sub\n      swap1\n      return\n        /* \"val11.sol\":9403:9427  uint256[] public numbers */\n    tag_5:\n      tag_16\n      0x04\n      dup1\n      calldatasize\n      sub\n      dup2\n      add\n      swap1\n      tag_17\n      swap2\n      swap1\n      tag_10\n      jump\t// in\n    tag_17:\n      tag_18\n      jump\t// in\n    tag_16:\n      mload(0x40)\n      tag_19\n      swap2\n      swap1\n      tag_15\n      jump\t// in\n    tag_19:\n      mload(0x40)\n      dup1\n      swap2\n      sub\n      swap1\n      return\n        /* \"val11.sol\":9891:10015  function getArray()... */\n    tag_6:\n      tag_20\n      tag_21\n      jump\t// in\n    tag_20:\n      mload(0x40)\n      tag_22\n      swap2\n      swap1\n      tag_23\n      jump\t// in\n    tag_22:\n      mload(0x40)\n      dup1\n      swap2\n      sub\n      swap1\n      return\n        /* \"val11.sol\":9436:9525  function addNumber(uint256 _number) public ... */\n    tag_7:\n      tag_24\n      0x04\n      dup1\n      calldatasize\n      sub\n      dup2\n      add\n      swap1\n      tag_25\n      swap2\n      swap1\n      tag_10\n      jump\t// in\n    tag_25:\n      tag_26\n      jump\t// in\n    tag_24:\n      stop\n        /* \"val11.sol\":9533:9883  function deleteItem(uint256 _index) public ... */\n    tag_11:\n        /* \"val11.sol\":9610:9617  numbers */\n      0x00\n        /* \"val11.sol\":9610:9624  numbers.length */\n      dup1\n      sload\n      swap1\n      pop\n        /* \"val11.sol\":9601:9607  _index */\n      dup2\n        /* \"val11.sol\":9601:9624  _index < numbers.length */\n      lt\n        /* \"val11.sol\":9593:9642  require(_index < numbers.length, \"Invalid index\") */\n      tag_28\n      jumpi\n      mload(0x40)\n      0x08c379a000000000000000000000000000000000000000000000000000000000\n      dup2\n      mstore\n      0x04\n      add\n      tag_29\n      swap1\n      tag_30\n      jump\t// in\n    tag_29:\n      mload(0x40)\n      dup1\n      swap2\n      sub\n      swap1\n      revert\n    tag_28:\n        /* \"val11.sol\":9671:9680  uint256 i */\n      0x00\n        /* \"val11.sol\":9683:9689  _index */\n      dup2\n        /* \"val11.sol\":9671:9689  uint256 i = _index */\n      swap1\n      pop\n        /* \"val11.sol\":9667:9797  for(uint256 i = _index; i < numbers.length - 1; i++)... */\n    tag_31:\n        /* \"val11.sol\":9712:9713  1 */\n      0x01\n        /* \"val11.sol\":9695:9702  numbers */\n      0x00\n        /* \"val11.sol\":9695:9709  numbers.length */\n      dup1\n      sload\n      swap1\n      pop\n        /* \"val11.sol\":9695:9713  numbers.length - 1 */\n      tag_34\n      swap2\n      swap1\n      tag_35\n      jump\t// in\n    tag_34:\n        /* \"val11.sol\":9691:9692  i */\n      dup2\n        /* \"val11.sol\":9691:9713  i < numbers.length - 1 */\n      lt\n        /* \"val11.sol\":9667:9797  for(uint256 i = _index; i < numbers.length - 1; i++)... */\n      iszero\n      tag_32\n      jumpi\n        /* \"val11.sol\":9766:9773  numbers */\n      0x00\n        /* \"val11.sol\":9779:9780  1 */\n      0x01\n        /* \"val11.sol\":9775:9776  i */\n      dup3\n        /* \"val11.sol\":9775:9780  i + 1 */\n      tag_36\n      swap2\n      swap1\n      tag_37\n      jump\t// in\n    tag_36:\n        /* \"val11.sol\":9766:9781  numbers [i + 1] */\n      dup2\n      sload\n      dup2\n      lt\n      tag_38\n      jumpi\n      tag_39\n      tag_40\n      jump\t// in\n    tag_39:\n    tag_38:\n      swap1\n      0x00\n      mstore\n      keccak256(0x00, 0x20)\n      add\n      sload\n        /* \"val11.sol\":9753:9760  numbers */\n      0x00\n        /* \"val11.sol\":9761:9762  i */\n      dup3\n        /* \"val11.sol\":9753:9763  numbers[i] */\n      dup2\n      sload\n      dup2\n      lt\n      tag_42\n      jumpi\n      tag_43\n      tag_40\n      jump\t// in\n    tag_43:\n    tag_42:\n      swap1\n      0x00\n      mstore\n      keccak256(0x00, 0x20)\n      add\n        /* \"val11.sol\":9753:9781  numbers[i] = numbers [i + 1] */\n      dup2\n      swap1\n      sstore\n      pop\n        /* \"val11.sol\":9715:9718  i++ */\n      dup1\n      dup1\n      0x01\n      add\n      swap2\n      pop\n      pop\n        /* \"val11.sol\":9667:9797  for(uint256 i = _index; i < numbers.length - 1; i++)... */\n      jump(tag_31)\n    tag_32:\n      pop\n        /* \"val11.sol\":9860:9867  numbers */\n      0x00\n        /* \"val11.sol\":9868:9874  _index */\n      dup2\n        /* \"val11.sol\":9860:9875  numbers[_index] */\n      dup2\n      sload\n      dup2\n      lt\n      tag_45\n      jumpi\n      tag_46\n      tag_40\n      jump\t// in\n    tag_46:\n    tag_45:\n      swap1\n      0x00\n      mstore\n      keccak256(0x00, 0x20)\n      add\n        /* \"val11.sol\":9853:9875  delete numbers[_index] */\n      0x00\n      swap1\n      sstore\n        /* \"val11.sol\":9533:9883  function deleteItem(uint256 _index) public ... */\n      pop\n      jump\t// out\n        /* \"val11.sol\":10023:10120  function getLength() public view returns (uint256) ... */\n    tag_13:\n        /* \"val11.sol\":10065:10072  uint256 */\n      0x00\n        /* \"val11.sol\":10098:10105  numbers */\n      0x00\n        /* \"val11.sol\":10098:10112  numbers.length */\n      dup1\n      sload\n      swap1\n      pop\n        /* \"val11.sol\":10091:10112  return numbers.length */\n      swap1\n      pop\n        /* \"val11.sol\":10023:10120  function getLength() public view returns (uint256) ... */\n      swap1\n      jump\t// out\n        /* \"val11.sol\":9403:9427  uint256[] public numbers */\n    tag_18:\n      0x00\n      dup2\n      dup2\n      sload\n      dup2\n      lt\n      tag_49\n      jumpi\n      0x00\n      dup1\n      revert\n    tag_49:\n      swap1\n      0x00\n      mstore\n      keccak256(0x00, 0x20)\n      add\n      0x00\n      swap2\n      pop\n      swap1\n      pop\n      sload\n      dup2\n      jump\t// out\n        /* \"val11.sol\":9891:10015  function getArray()... */\n    tag_21:\n        /* \"val11.sol\":9959:9975  uint256[] memory */\n      0x60\n        /* \"val11.sol\":10000:10007  numbers */\n      0x00\n        /* \"val11.sol\":9993:10007  return numbers */\n      dup1\n      sload\n      dup1\n      0x20\n      mul\n      0x20\n      add\n      mload(0x40)\n      swap1\n      dup2\n      add\n      0x40\n      mstore\n      dup1\n      swap3\n      swap2\n      swap1\n      dup2\n      dup2\n      mstore\n      0x20\n      add\n      dup3\n      dup1\n      sload\n      dup1\n      iszero\n      tag_52\n      jumpi\n      0x20\n      mul\n      dup3\n      add\n      swap2\n      swap1\n      0x00\n      mstore\n      keccak256(0x00, 0x20)\n      swap1\n    tag_53:\n      dup2\n      sload\n      dup2\n      mstore\n      0x20\n      add\n      swap1\n      0x01\n      add\n      swap1\n      dup1\n      dup4\n      gt\n      tag_53\n      jumpi\n    tag_52:\n      pop\n      pop\n      pop\n      pop\n      pop\n      swap1\n      pop\n        /* \"val11.sol\":9891:10015  function getArray()... */\n      swap1\n      jump\t// out\n        /* \"val11.sol\":9436:9525  function addNumber(uint256 _number) public ... */\n    tag_26:\n        /* \"val11.sol\":9496:9503  numbers */\n      0x00\n        /* \"val11.sol\":9509:9516  _number */\n      dup2\n        /* \"val11.sol\":9496:9517  numbers.push(_number) */\n      swap1\n      dup1\n      0x01\n      dup2\n      sload\n      add\n      dup1\n      dup3\n      sstore\n      dup1\n      swap2\n      pop\n      pop\n      0x01\n      swap1\n      sub\n      swap1\n      0x00\n      mstore\n      keccak256(0x00, 0x20)\n      add\n      0x00\n      swap1\n      swap2\n      swap1\n      swap2\n      swap1\n      swap2\n      pop\n      sstore\n        /* \"val11.sol\":9436:9525  function addNumber(uint256 _number) public ... */\n      pop\n      jump\t// out\n        /* \"#utility.yul\":88:205   */\n    tag_57:\n        /* \"#utility.yul\":197:198   */\n      0x00\n        /* \"#utility.yul\":194:195   */\n      0x00\n        /* \"#utility.yul\":187:199   */\n      revert\n        /* \"#utility.yul\":334:411   */\n    tag_59:\n        /* \"#utility.yul\":371:378   */\n      0x00\n        /* \"#utility.yul\":400:405   */\n      dup2\n        /* \"#utility.yul\":389:405   */\n      swap1\n      pop\n        /* \"#utility.yul\":334:411   */\n      swap2\n      swap1\n      pop\n      jump\t// out\n        /* \"#utility.yul\":417:539   */\n    tag_60:\n        /* \"#utility.yul\":490:514   */\n      tag_80\n        /* \"#utility.yul\":508:513   */\n      dup2\n        /* \"#utility.yul\":490:514   */\n      tag_59\n      jump\t// in\n    tag_80:\n        /* \"#utility.yul\":483:488   */\n      dup2\n        /* \"#utility.yul\":480:515   */\n      eq\n        /* \"#utility.yul\":470:533   */\n      tag_81\n      jumpi\n        /* \"#utility.yul\":529:530   */\n      0x00\n        /* \"#utility.yul\":526:527   */\n      0x00\n        /* \"#utility.yul\":519:531   */\n      revert\n        /* \"#utility.yul\":470:533   */\n    tag_81:\n        /* \"#utility.yul\":417:539   */\n      pop\n      jump\t// out\n        /* \"#utility.yul\":545:684   */\n    tag_61:\n        /* \"#utility.yul\":591:596   */\n      0x00\n        /* \"#utility.yul\":629:635   */\n      dup2\n        /* \"#utility.yul\":616:636   */\n      calldataload\n        /* \"#utility.yul\":607:636   */\n      swap1\n      pop\n        /* \"#utility.yul\":645:678   */\n      tag_83\n        /* \"#utility.yul\":672:677   */\n      dup2\n        /* \"#utility.yul\":645:678   */\n      tag_60\n      jump\t// in\n    tag_83:\n        /* \"#utility.yul\":545:684   */\n      swap3\n      swap2\n      pop\n      pop\n      jump\t// out\n        /* \"#utility.yul\":690:1019   */\n    tag_10:\n        /* \"#utility.yul\":749:755   */\n      0x00\n        /* \"#utility.yul\":798:800   */\n      0x20\n        /* \"#utility.yul\":786:795   */\n      dup3\n        /* \"#utility.yul\":777:784   */\n      dup5\n        /* \"#utility.yul\":773:796   */\n      sub\n        /* \"#utility.yul\":769:801   */\n      slt\n        /* \"#utility.yul\":766:885   */\n      iszero\n      tag_85\n      jumpi\n        /* \"#utility.yul\":804:883   */\n      tag_86\n      tag_57\n      jump\t// in\n    tag_86:\n        /* \"#utility.yul\":766:885   */\n    tag_85:\n        /* \"#utility.yul\":924:925   */\n      0x00\n        /* \"#utility.yul\":949:1002   */\n      tag_87\n        /* \"#utility.yul\":994:1001   */\n      dup5\n        /* \"#utility.yul\":985:991   */\n      dup3\n        /* \"#utility.yul\":974:983   */\n      dup6\n        /* \"#utility.yul\":970:992   */\n      add\n        /* \"#utility.yul\":949:1002   */\n      tag_61\n      jump\t// in\n    tag_87:\n        /* \"#utility.yul\":939:1002   */\n      swap2\n      pop\n        /* \"#utility.yul\":895:1012   */\n      pop\n        /* \"#utility.yul\":690:1019   */\n      swap3\n      swap2\n      pop\n      pop\n      jump\t// out\n        /* \"#utility.yul\":1025:1143   */\n    tag_62:\n        /* \"#utility.yul\":1112:1136   */\n      tag_89\n        /* \"#utility.yul\":1130:1135   */\n      dup2\n        /* \"#utility.yul\":1112:1136   */\n      tag_59\n      jump\t// in\n    tag_89:\n        /* \"#utility.yul\":1107:1110   */\n      dup3\n        /* \"#utility.yul\":1100:1137   */\n      mstore\n        /* \"#utility.yul\":1025:1143   */\n      pop\n      pop\n      jump\t// out\n        /* \"#utility.yul\":1149:1371   */\n    tag_15:\n        /* \"#utility.yul\":1242:1246   */\n      0x00\n        /* \"#utility.yul\":1280:1282   */\n      0x20\n        /* \"#utility.yul\":1269:1278   */\n      dup3\n        /* \"#utility.yul\":1265:1283   */\n      add\n        /* \"#utility.yul\":1257:1283   */\n      swap1\n      pop\n        /* \"#utility.yul\":1293:1364   */\n      tag_91\n        /* \"#utility.yul\":1361:1362   */\n      0x00\n        /* \"#utility.yul\":1350:1359   */\n      dup4\n        /* \"#utility.yul\":1346:1363   */\n      add\n        /* \"#utility.yul\":1337:1343   */\n      dup5\n        /* \"#utility.yul\":1293:1364   */\n      tag_62\n      jump\t// in\n    tag_91:\n        /* \"#utility.yul\":1149:1371   */\n      swap3\n      swap2\n      pop\n      pop\n      jump\t// out\n        /* \"#utility.yul\":1377:1491   */\n    tag_63:\n        /* \"#utility.yul\":1444:1450   */\n      0x00\n        /* \"#utility.yul\":1478:1483   */\n      dup2\n        /* \"#utility.yul\":1472:1484   */\n      mload\n        /* \"#utility.yul\":1462:1484   */\n      swap1\n      pop\n        /* \"#utility.yul\":1377:1491   */\n      swap2\n      swap1\n      pop\n      jump\t// out\n        /* \"#utility.yul\":1497:1681   */\n    tag_64:\n        /* \"#utility.yul\":1596:1607   */\n      0x00\n        /* \"#utility.yul\":1630:1636   */\n      dup3\n        /* \"#utility.yul\":1625:1628   */\n      dup3\n        /* \"#utility.yul\":1618:1637   */\n      mstore\n        /* \"#utility.yul\":1670:1674   */\n      0x20\n        /* \"#utility.yul\":1665:1668   */\n      dup3\n        /* \"#utility.yul\":1661:1675   */\n      add\n        /* \"#utility.yul\":1646:1675   */\n      swap1\n      pop\n        /* \"#utility.yul\":1497:1681   */\n      swap3\n      swap2\n      pop\n      pop\n      jump\t// out\n        /* \"#utility.yul\":1687:1819   */\n    tag_65:\n        /* \"#utility.yul\":1754:1758   */\n      0x00\n        /* \"#utility.yul\":1777:1780   */\n      dup2\n        /* \"#utility.yul\":1769:1780   */\n      swap1\n      pop\n        /* \"#utility.yul\":1807:1811   */\n      0x20\n        /* \"#utility.yul\":1802:1805   */\n      dup3\n        /* \"#utility.yul\":1798:1812   */\n      add\n        /* \"#utility.yul\":1790:1812   */\n      swap1\n      pop\n        /* \"#utility.yul\":1687:1819   */\n      swap2\n      swap1\n      pop\n      jump\t// out\n        /* \"#utility.yul\":1825:1933   */\n    tag_66:\n        /* \"#utility.yul\":1902:1926   */\n      tag_96\n        /* \"#utility.yul\":1920:1925   */\n      dup2\n        /* \"#utility.yul\":1902:1926   */\n      tag_59\n      jump\t// in\n    tag_96:\n        /* \"#utility.yul\":1897:1900   */\n      dup3\n        /* \"#utility.yul\":1890:1927   */\n      mstore\n        /* \"#utility.yul\":1825:1933   */\n      pop\n      pop\n      jump\t// out\n        /* \"#utility.yul\":1939:2118   */\n    tag_67:\n        /* \"#utility.yul\":2008:2018   */\n      0x00\n        /* \"#utility.yul\":2029:2075   */\n      tag_98\n        /* \"#utility.yul\":2071:2074   */\n      dup4\n        /* \"#utility.yul\":2063:2069   */\n      dup4\n        /* \"#utility.yul\":2029:2075   */\n      tag_66\n      jump\t// in\n    tag_98:\n        /* \"#utility.yul\":2107:2111   */\n      0x20\n        /* \"#utility.yul\":2102:2105   */\n      dup4\n        /* \"#utility.yul\":2098:2112   */\n      add\n        /* \"#utility.yul\":2084:2112   */\n      swap1\n      pop\n        /* \"#utility.yul\":1939:2118   */\n      swap3\n      swap2\n      pop\n      pop\n      jump\t// out\n        /* \"#utility.yul\":2124:2237   */\n    tag_68:\n        /* \"#utility.yul\":2194:2198   */\n      0x00\n        /* \"#utility.yul\":2226:2230   */\n      0x20\n        /* \"#utility.yul\":2221:2224   */\n      dup3\n        /* \"#utility.yul\":2217:2231   */\n      add\n        /* \"#utility.yul\":2209:2231   */\n      swap1\n      pop\n        /* \"#utility.yul\":2124:2237   */\n      swap2\n      swap1\n      pop\n      jump\t// out\n        /* \"#utility.yul\":2273:3005   */\n    tag_69:\n        /* \"#utility.yul\":2392:2395   */\n      0x00\n        /* \"#utility.yul\":2421:2475   */\n      tag_101\n        /* \"#utility.yul\":2469:2474   */\n      dup3\n        /* \"#utility.yul\":2421:2475   */\n      tag_63\n      jump\t// in\n    tag_101:\n        /* \"#utility.yul\":2491:2577   */\n      tag_102\n        /* \"#utility.yul\":2570:2576   */\n      dup2\n        /* \"#utility.yul\":2565:2568   */\n      dup6\n        /* \"#utility.yul\":2491:2577   */\n      tag_64\n      jump\t// in\n    tag_102:\n        /* \"#utility.yul\":2484:2577   */\n      swap4\n      pop\n        /* \"#utility.yul\":2601:2657   */\n      tag_103\n        /* \"#utility.yul\":2651:2656   */\n      dup4\n        /* \"#utility.yul\":2601:2657   */\n      tag_65\n      jump\t// in\n    tag_103:\n        /* \"#utility.yul\":2680:2687   */\n      dup1\n        /* \"#utility.yul\":2711:2712   */\n      0x00\n        /* \"#utility.yul\":2696:2980   */\n    tag_104:\n        /* \"#utility.yul\":2721:2727   */\n      dup4\n        /* \"#utility.yul\":2718:2719   */\n      dup2\n        /* \"#utility.yul\":2715:2728   */\n      lt\n        /* \"#utility.yul\":2696:2980   */\n      iszero\n      tag_106\n      jumpi\n        /* \"#utility.yul\":2797:2803   */\n      dup2\n        /* \"#utility.yul\":2791:2804   */\n      mload\n        /* \"#utility.yul\":2824:2887   */\n      tag_107\n        /* \"#utility.yul\":2883:2886   */\n      dup9\n        /* \"#utility.yul\":2868:2881   */\n      dup3\n        /* \"#utility.yul\":2824:2887   */\n      tag_67\n      jump\t// in\n    tag_107:\n        /* \"#utility.yul\":2817:2887   */\n      swap8\n      pop\n        /* \"#utility.yul\":2910:2970   */\n      tag_108\n        /* \"#utility.yul\":2963:2969   */\n      dup4\n        /* \"#utility.yul\":2910:2970   */\n      tag_68\n      jump\t// in\n    tag_108:\n        /* \"#utility.yul\":2900:2970   */\n      swap3\n      pop\n        /* \"#utility.yul\":2756:2980   */\n      pop\n        /* \"#utility.yul\":2743:2744   */\n      0x01\n        /* \"#utility.yul\":2740:2741   */\n      dup2\n        /* \"#utility.yul\":2736:2745   */\n      add\n        /* \"#utility.yul\":2731:2745   */\n      swap1\n      pop\n        /* \"#utility.yul\":2696:2980   */\n      jump(tag_104)\n    tag_106:\n        /* \"#utility.yul\":2700:2714   */\n      pop\n        /* \"#utility.yul\":2996:2999   */\n      dup6\n        /* \"#utility.yul\":2989:2999   */\n      swap4\n      pop\n        /* \"#utility.yul\":2397:3005   */\n      pop\n      pop\n      pop\n        /* \"#utility.yul\":2273:3005   */\n      swap3\n      swap2\n      pop\n      pop\n      jump\t// out\n        /* \"#utility.yul\":3011:3384   */\n    tag_23:\n        /* \"#utility.yul\":3154:3158   */\n      0x00\n        /* \"#utility.yul\":3192:3194   */\n      0x20\n        /* \"#utility.yul\":3181:3190   */\n      dup3\n        /* \"#utility.yul\":3177:3195   */\n      add\n        /* \"#utility.yul\":3169:3195   */\n      swap1\n      pop\n        /* \"#utility.yul\":3241:3250   */\n      dup2\n        /* \"#utility.yul\":3235:3239   */\n      dup2\n        /* \"#utility.yul\":3231:3251   */\n      sub\n        /* \"#utility.yul\":3227:3228   */\n      0x00\n        /* \"#utility.yul\":3216:3225   */\n      dup4\n        /* \"#utility.yul\":3212:3229   */\n      add\n        /* \"#utility.yul\":3205:3252   */\n      mstore\n        /* \"#utility.yul\":3269:3377   */\n      tag_110\n        /* \"#utility.yul\":3372:3376   */\n      dup2\n        /* \"#utility.yul\":3363:3369   */\n      dup5\n        /* \"#utility.yul\":3269:3377   */\n      tag_69\n      jump\t// in\n    tag_110:\n        /* \"#utility.yul\":3261:3377   */\n      swap1\n      pop\n        /* \"#utility.yul\":3011:3384   */\n      swap3\n      swap2\n      pop\n      pop\n      jump\t// out\n        /* \"#utility.yul\":3390:3559   */\n    tag_70:\n        /* \"#utility.yul\":3474:3485   */\n      0x00\n        /* \"#utility.yul\":3508:3514   */\n      dup3\n        /* \"#utility.yul\":3503:3506   */\n      dup3\n        /* \"#utility.yul\":3496:3515   */\n      mstore\n        /* \"#utility.yul\":3548:3552   */\n      0x20\n        /* \"#utility.yul\":3543:3546   */\n      dup3\n        /* \"#utility.yul\":3539:3553   */\n      add\n        /* \"#utility.yul\":3524:3553   */\n      swap1\n      pop\n        /* \"#utility.yul\":3390:3559   */\n      swap3\n      swap2\n      pop\n      pop\n      jump\t// out\n        /* \"#utility.yul\":3565:3728   */\n    tag_71:\n        /* \"#utility.yul\":3705:3720   */\n      0x496e76616c696420696e64657800000000000000000000000000000000000000\n        /* \"#utility.yul\":3701:3702   */\n      0x00\n        /* \"#utility.yul\":3693:3699   */\n      dup3\n        /* \"#utility.yul\":3689:3703   */\n      add\n        /* \"#utility.yul\":3682:3721   */\n      mstore\n        /* \"#utility.yul\":3565:3728   */\n      pop\n      jump\t// out\n        /* \"#utility.yul\":3734:4100   */\n    tag_72:\n        /* \"#utility.yul\":3876:3879   */\n      0x00\n        /* \"#utility.yul\":3897:3964   */\n      tag_114\n        /* \"#utility.yul\":3961:3963   */\n      0x0d\n        /* \"#utility.yul\":3956:3959   */\n      dup4\n        /* \"#utility.yul\":3897:3964   */\n      tag_70\n      jump\t// in\n    tag_114:\n        /* \"#utility.yul\":3890:3964   */\n      swap2\n      pop\n        /* \"#utility.yul\":3973:4066   */\n      tag_115\n        /* \"#utility.yul\":4062:4065   */\n      dup3\n        /* \"#utility.yul\":3973:4066   */\n      tag_71\n      jump\t// in\n    tag_115:\n        /* \"#utility.yul\":4091:4093   */\n      0x20\n        /* \"#utility.yul\":4086:4089   */\n      dup3\n        /* \"#utility.yul\":4082:4094   */\n      add\n        /* \"#utility.yul\":4075:4094   */\n      swap1\n      pop\n        /* \"#utility.yul\":3734:4100   */\n      swap2\n      swap1\n      pop\n      jump\t// out\n        /* \"#utility.yul\":4106:4525   */\n    tag_30:\n        /* \"#utility.yul\":4272:4276   */\n      0x00\n        /* \"#utility.yul\":4310:4312   */\n      0x20\n        /* \"#utility.yul\":4299:4308   */\n      dup3\n        /* \"#utility.yul\":4295:4313   */\n      add\n        /* \"#utility.yul\":4287:4313   */\n      swap1\n      pop\n        /* \"#utility.yul\":4359:4368   */\n      dup2\n        /* \"#utility.yul\":4353:4357   */\n      dup2\n        /* \"#utility.yul\":4349:4369   */\n      sub\n        /* \"#utility.yul\":4345:4346   */\n      0x00\n        /* \"#utility.yul\":4334:4343   */\n      dup4\n        /* \"#utility.yul\":4330:4347   */\n      add\n        /* \"#utility.yul\":4323:4370   */\n      mstore\n        /* \"#utility.yul\":4387:4518   */\n      tag_117\n        /* \"#utility.yul\":4513:4517   */\n      dup2\n        /* \"#utility.yul\":4387:4518   */\n      tag_72\n      jump\t// in\n    tag_117:\n        /* \"#utility.yul\":4379:4518   */\n      swap1\n      pop\n        /* \"#utility.yul\":4106:4525   */\n      swap2\n      swap1\n      pop\n      jump\t// out\n        /* \"#utility.yul\":4531:4711   */\n    tag_73:\n        /* \"#utility.yul\":4579:4656   */\n      0x4e487b7100000000000000000000000000000000000000000000000000000000\n        /* \"#utility.yul\":4576:4577   */\n      0x00\n        /* \"#utility.yul\":4569:4657   */\n      mstore\n        /* \"#utility.yul\":4676:4680   */\n      0x11\n        /* \"#utility.yul\":4673:4674   */\n      0x04\n        /* \"#utility.yul\":4666:4681   */\n      mstore\n        /* \"#utility.yul\":4700:4704   */\n      0x24\n        /* \"#utility.yul\":4697:4698   */\n      0x00\n        /* \"#utility.yul\":4690:4705   */\n      revert\n        /* \"#utility.yul\":4717:4911   */\n    tag_35:\n        /* \"#utility.yul\":4757:4761   */\n      0x00\n        /* \"#utility.yul\":4777:4797   */\n      tag_120\n        /* \"#utility.yul\":4795:4796   */\n      dup3\n        /* \"#utility.yul\":4777:4797   */\n      tag_59\n      jump\t// in\n    tag_120:\n        /* \"#utility.yul\":4772:4797   */\n      swap2\n      pop\n        /* \"#utility.yul\":4811:4831   */\n      tag_121\n        /* \"#utility.yul\":4829:4830   */\n      dup4\n        /* \"#utility.yul\":4811:4831   */\n      tag_59\n      jump\t// in\n    tag_121:\n        /* \"#utility.yul\":4806:4831   */\n      swap3\n      pop\n        /* \"#utility.yul\":4855:4856   */\n      dup3\n        /* \"#utility.yul\":4852:4853   */\n      dup3\n        /* \"#utility.yul\":4848:4857   */\n      sub\n        /* \"#utility.yul\":4840:4857   */\n      swap1\n      pop\n        /* \"#utility.yul\":4879:4880   */\n      dup2\n        /* \"#utility.yul\":4873:4877   */\n      dup2\n        /* \"#utility.yul\":4870:4881   */\n      gt\n        /* \"#utility.yul\":4867:4904   */\n      iszero\n      tag_122\n      jumpi\n        /* \"#utility.yul\":4884:4902   */\n      tag_123\n      tag_73\n      jump\t// in\n    tag_123:\n        /* \"#utility.yul\":4867:4904   */\n    tag_122:\n        /* \"#utility.yul\":4717:4911   */\n      swap3\n      swap2\n      pop\n      pop\n      jump\t// out\n        /* \"#utility.yul\":4917:5108   */\n    tag_37:\n        /* \"#utility.yul\":4957:4960   */\n      0x00\n        /* \"#utility.yul\":4976:4996   */\n      tag_125\n        /* \"#utility.yul\":4994:4995   */\n      dup3\n        /* \"#utility.yul\":4976:4996   */\n      tag_59\n      jump\t// in\n    tag_125:\n        /* \"#utility.yul\":4971:4996   */\n      swap2\n      pop\n        /* \"#utility.yul\":5010:5030   */\n      tag_126\n        /* \"#utility.yul\":5028:5029   */\n      dup4\n        /* \"#utility.yul\":5010:5030   */\n      tag_59\n      jump\t// in\n    tag_126:\n        /* \"#utility.yul\":5005:5030   */\n      swap3\n      pop\n        /* \"#utility.yul\":5053:5054   */\n      dup3\n        /* \"#utility.yul\":5050:5051   */\n      dup3\n        /* \"#utility.yul\":5046:5055   */\n      add\n        /* \"#utility.yul\":5039:5055   */\n      swap1\n      pop\n        /* \"#utility.yul\":5074:5077   */\n      dup1\n        /* \"#utility.yul\":5071:5072   */\n      dup3\n        /* \"#utility.yul\":5068:5078   */\n      gt\n        /* \"#utility.yul\":5065:5101   */\n      iszero\n      tag_127\n      jumpi\n        /* \"#utility.yul\":5081:5099   */\n      tag_128\n      tag_73\n      jump\t// in\n    tag_128:\n        /* \"#utility.yul\":5065:5101   */\n    tag_127:\n        /* \"#utility.yul\":4917:5108   */\n      swap3\n      swap2\n      pop\n      pop\n      jump\t// out\n        /* \"#utility.yul\":5114:5294   */\n    tag_40:\n        /* \"#utility.yul\":5162:5239   */\n      0x4e487b7100000000000000000000000000000000000000000000000000000000\n        /* \"#utility.yul\":5159:5160   */\n      0x00\n        /* \"#utility.yul\":5152:5240   */\n      mstore\n        /* \"#utility.yul\":5259:5263   */\n      0x32\n        /* \"#utility.yul\":5256:5257   */\n      0x04\n        /* \"#utility.yul\":5249:5264   */\n      mstore\n        /* \"#utility.yul\":5283:5287   */\n      0x24\n        /* \"#utility.yul\":5280:5281   */\n      0x00\n        /* \"#utility.yul\":5273:5288   */\n      revert\n\n    auxdata: 0xa264697066735822122009eda2d7b55c877216feab306c9c72eae96046f392048e4502c12c47e9be1c5464736f6c63430008220033\n}\n",
				"bytecode": {
					"linkReferences": {},
					"object": "6080604052348015600e575f5ffd5b5061054c8061001c5f395ff3fe608060405234801561000f575f5ffd5b5060043610610055575f3560e01c8063654fc83314610059578063be1c766b14610075578063d39fa23314610093578063d504ea1d146100c3578063fce68023146100e1575b5f5ffd5b610073600480360381019061006e91906102b4565b6100fd565b005b61007d6101d6565b60405161008a91906102ee565b60405180910390f35b6100ad60048036038101906100a891906102b4565b6101e1565b6040516100ba91906102ee565b60405180910390f35b6100cb610200565b6040516100d891906103be565b60405180910390f35b6100fb60048036038101906100f691906102b4565b610255565b005b5f805490508110610143576040517f08c379a000000000000000000000000000000000000000000000000000000000815260040161013a90610438565b60405180910390fd5b5f8190505b60015f805490506101599190610483565b8110156101b4575f60018261016e91906104b6565b8154811061017f5761017e6104e9565b5b905f5260205f2001545f828154811061019b5761019a6104e9565b5b905f5260205f2001819055508080600101915050610148565b505f81815481106101c8576101c76104e9565b5b905f5260205f20015f905550565b5f5f80549050905090565b5f81815481106101ef575f80fd5b905f5260205f20015f915090505481565b60605f80548060200260200160405190810160405280929190818152602001828054801561024b57602002820191905f5260205f20905b815481526020019060010190808311610237575b5050505050905090565b5f81908060018154018082558091505060019003905f5260205f20015f909190919091505550565b5f5ffd5b5f819050919050565b61029381610281565b811461029d575f5ffd5b50565b5f813590506102ae8161028a565b92915050565b5f602082840312156102c9576102c861027d565b5b5f6102d6848285016102a0565b91505092915050565b6102e881610281565b82525050565b5f6020820190506103015f8301846102df565b92915050565b5f81519050919050565b5f82825260208201905092915050565b5f819050602082019050919050565b61033981610281565b82525050565b5f61034a8383610330565b60208301905092915050565b5f602082019050919050565b5f61036c82610307565b6103768185610311565b935061038183610321565b805f5b838110156103b1578151610398888261033f565b97506103a383610356565b925050600181019050610384565b5085935050505092915050565b5f6020820190508181035f8301526103d68184610362565b905092915050565b5f82825260208201905092915050565b7f496e76616c696420696e646578000000000000000000000000000000000000005f82015250565b5f610422600d836103de565b915061042d826103ee565b602082019050919050565b5f6020820190508181035f83015261044f81610416565b9050919050565b7f4e487b71000000000000000000000000000000000000000000000000000000005f52601160045260245ffd5b5f61048d82610281565b915061049883610281565b92508282039050818111156104b0576104af610456565b5b92915050565b5f6104c082610281565b91506104cb83610281565b92508282019050808211156104e3576104e2610456565b5b92915050565b7f4e487b71000000000000000000000000000000000000000000000000000000005f52603260045260245ffdfea264697066735822122009eda2d7b55c877216feab306c9c72eae96046f392048e4502c12c47e9be1c5464736f6c63430008220033",
					"opcodes": "PUSH1 0x80 PUSH1 0x40 MSTORE CALLVALUE DUP1 ISZERO PUSH1 0xE JUMPI PUSH0 PUSH0 REVERT JUMPDEST POP PUSH2 0x54C DUP1 PUSH2 0x1C PUSH0 CODECOPY PUSH0 RETURN INVALID PUSH1 0x80 PUSH1 0x40 MSTORE CALLVALUE DUP1 ISZERO PUSH2 0xF JUMPI PUSH0 PUSH0 REVERT JUMPDEST POP PUSH1 0x4 CALLDATASIZE LT PUSH2 0x55 JUMPI PUSH0 CALLDATALOAD PUSH1 0xE0 SHR DUP1 PUSH4 0x654FC833 EQ PUSH2 0x59 JUMPI DUP1 PUSH4 0xBE1C766B EQ PUSH2 0x75 JUMPI DUP1 PUSH4 0xD39FA233 EQ PUSH2 0x93 JUMPI DUP1 PUSH4 0xD504EA1D EQ PUSH2 0xC3 JUMPI DUP1 PUSH4 0xFCE68023 EQ PUSH2 0xE1 JUMPI JUMPDEST PUSH0 PUSH0 REVERT JUMPDEST PUSH2 0x73 PUSH1 0x4 DUP1 CALLDATASIZE SUB DUP2 ADD SWAP1 PUSH2 0x6E SWAP2 SWAP1 PUSH2 0x2B4 JUMP JUMPDEST PUSH2 0xFD JUMP JUMPDEST STOP JUMPDEST PUSH2 0x7D PUSH2 0x1D6 JUMP JUMPDEST PUSH1 0x40 MLOAD PUSH2 0x8A SWAP2 SWAP1 PUSH2 0x2EE JUMP JUMPDEST PUSH1 0x40 MLOAD DUP1 SWAP2 SUB SWAP1 RETURN JUMPDEST PUSH2 0xAD PUSH1 0x4 DUP1 CALLDATASIZE SUB DUP2 ADD SWAP1 PUSH2 0xA8 SWAP2 SWAP1 PUSH2 0x2B4 JUMP JUMPDEST PUSH2 0x1E1 JUMP JUMPDEST PUSH1 0x40 MLOAD PUSH2 0xBA SWAP2 SWAP1 PUSH2 0x2EE JUMP JUMPDEST PUSH1 0x40 MLOAD DUP1 SWAP2 SUB SWAP1 RETURN JUMPDEST PUSH2 0xCB PUSH2 0x200 JUMP JUMPDEST PUSH1 0x40 MLOAD PUSH2 0xD8 SWAP2 SWAP1 PUSH2 0x3BE JUMP JUMPDEST PUSH1 0x40 MLOAD DUP1 SWAP2 SUB SWAP1 RETURN JUMPDEST PUSH2 0xFB PUSH1 0x4 DUP1 CALLDATASIZE SUB DUP2 ADD SWAP1 PUSH2 0xF6 SWAP2 SWAP1 PUSH2 0x2B4 JUMP JUMPDEST PUSH2 0x255 JUMP JUMPDEST STOP JUMPDEST PUSH0 DUP1 SLOAD SWAP1 POP DUP2 LT PUSH2 0x143 JUMPI PUSH1 0x40 MLOAD PUSH32 0x8C379A000000000000000000000000000000000000000000000000000000000 DUP2 MSTORE PUSH1 0x4 ADD PUSH2 0x13A SWAP1 PUSH2 0x438 JUMP JUMPDEST PUSH1 0x40 MLOAD DUP1 SWAP2 SUB SWAP1 REVERT JUMPDEST PUSH0 DUP2 SWAP1 POP JUMPDEST PUSH1 0x1 PUSH0 DUP1 SLOAD SWAP1 POP PUSH2 0x159 SWAP2 SWAP1 PUSH2 0x483 JUMP JUMPDEST DUP2 LT ISZERO PUSH2 0x1B4 JUMPI PUSH0 PUSH1 0x1 DUP3 PUSH2 0x16E SWAP2 SWAP1 PUSH2 0x4B6 JUMP JUMPDEST DUP2 SLOAD DUP2 LT PUSH2 0x17F JUMPI PUSH2 0x17E PUSH2 0x4E9 JUMP JUMPDEST JUMPDEST SWAP1 PUSH0 MSTORE PUSH1 0x20 PUSH0 KECCAK256 ADD SLOAD PUSH0 DUP3 DUP2 SLOAD DUP2 LT PUSH2 0x19B JUMPI PUSH2 0x19A PUSH2 0x4E9 JUMP JUMPDEST JUMPDEST SWAP1 PUSH0 MSTORE PUSH1 0x20 PUSH0 KECCAK256 ADD DUP2 SWAP1 SSTORE POP DUP1 DUP1 PUSH1 0x1 ADD SWAP2 POP POP PUSH2 0x148 JUMP JUMPDEST POP PUSH0 DUP2 DUP2 SLOAD DUP2 LT PUSH2 0x1C8 JUMPI PUSH2 0x1C7 PUSH2 0x4E9 JUMP JUMPDEST JUMPDEST SWAP1 PUSH0 MSTORE PUSH1 0x20 PUSH0 KECCAK256 ADD PUSH0 SWAP1 SSTORE POP JUMP JUMPDEST PUSH0 PUSH0 DUP1 SLOAD SWAP1 POP SWAP1 POP SWAP1 JUMP JUMPDEST PUSH0 DUP2 DUP2 SLOAD DUP2 LT PUSH2 0x1EF JUMPI PUSH0 DUP1 REVERT JUMPDEST SWAP1 PUSH0 MSTORE PUSH1 0x20 PUSH0 KECCAK256 ADD PUSH0 SWAP2 POP SWAP1 POP SLOAD DUP2 JUMP JUMPDEST PUSH1 0x60 PUSH0 DUP1 SLOAD DUP1 PUSH1 0x20 MUL PUSH1 0x20 ADD PUSH1 0x40 MLOAD SWAP1 DUP2 ADD PUSH1 0x40 MSTORE DUP1 SWAP3 SWAP2 SWAP1 DUP2 DUP2 MSTORE PUSH1 0x20 ADD DUP3 DUP1 SLOAD DUP1 ISZERO PUSH2 0x24B JUMPI PUSH1 0x20 MUL DUP3 ADD SWAP2 SWAP1 PUSH0 MSTORE PUSH1 0x20 PUSH0 KECCAK256 SWAP1 JUMPDEST DUP2 SLOAD DUP2 MSTORE PUSH1 0x20 ADD SWAP1 PUSH1 0x1 ADD SWAP1 DUP1 DUP4 GT PUSH2 0x237 JUMPI JUMPDEST POP POP POP POP POP SWAP1 POP SWAP1 JUMP JUMPDEST PUSH0 DUP2 SWAP1 DUP1 PUSH1 0x1 DUP2 SLOAD ADD DUP1 DUP3 SSTORE DUP1 SWAP2 POP POP PUSH1 0x1 SWAP1 SUB SWAP1 PUSH0 MSTORE PUSH1 0x20 PUSH0 KECCAK256 ADD PUSH0 SWAP1 SWAP2 SWAP1 SWAP2 SWAP1 SWAP2 POP SSTORE POP JUMP JUMPDEST PUSH0 PUSH0 REVERT JUMPDEST PUSH0 DUP2 SWAP1 POP SWAP2 SWAP1 POP JUMP JUMPDEST PUSH2 0x293 DUP2 PUSH2 0x281 JUMP JUMPDEST DUP2 EQ PUSH2 0x29D JUMPI PUSH0 PUSH0 REVERT JUMPDEST POP JUMP JUMPDEST PUSH0 DUP2 CALLDATALOAD SWAP1 POP PUSH2 0x2AE DUP2 PUSH2 0x28A JUMP JUMPDEST SWAP3 SWAP2 POP POP JUMP JUMPDEST PUSH0 PUSH1 0x20 DUP3 DUP5 SUB SLT ISZERO PUSH2 0x2C9 JUMPI PUSH2 0x2C8 PUSH2 0x27D JUMP JUMPDEST JUMPDEST PUSH0 PUSH2 0x2D6 DUP5 DUP3 DUP6 ADD PUSH2 0x2A0 JUMP JUMPDEST SWAP2 POP POP SWAP3 SWAP2 POP POP JUMP JUMPDEST PUSH2 0x2E8 DUP2 PUSH2 0x281 JUMP JUMPDEST DUP3 MSTORE POP POP JUMP JUMPDEST PUSH0 PUSH1 0x20 DUP3 ADD SWAP1 POP PUSH2 0x301 PUSH0 DUP4 ADD DUP5 PUSH2 0x2DF JUMP JUMPDEST SWAP3 SWAP2 POP POP JUMP JUMPDEST PUSH0 DUP2 MLOAD SWAP1 POP SWAP2 SWAP1 POP JUMP JUMPDEST PUSH0 DUP3 DUP3 MSTORE PUSH1 0x20 DUP3 ADD SWAP1 POP SWAP3 SWAP2 POP POP JUMP JUMPDEST PUSH0 DUP2 SWAP1 POP PUSH1 0x20 DUP3 ADD SWAP1 POP SWAP2 SWAP1 POP JUMP JUMPDEST PUSH2 0x339 DUP2 PUSH2 0x281 JUMP JUMPDEST DUP3 MSTORE POP POP JUMP JUMPDEST PUSH0 PUSH2 0x34A DUP4 DUP4 PUSH2 0x330 JUMP JUMPDEST PUSH1 0x20 DUP4 ADD SWAP1 POP SWAP3 SWAP2 POP POP JUMP JUMPDEST PUSH0 PUSH1 0x20 DUP3 ADD SWAP1 POP SWAP2 SWAP1 POP JUMP JUMPDEST PUSH0 PUSH2 0x36C DUP3 PUSH2 0x307 JUMP JUMPDEST PUSH2 0x376 DUP2 DUP6 PUSH2 0x311 JUMP JUMPDEST SWAP4 POP PUSH2 0x381 DUP4 PUSH2 0x321 JUMP JUMPDEST DUP1 PUSH0 JUMPDEST DUP4 DUP2 LT ISZERO PUSH2 0x3B1 JUMPI DUP2 MLOAD PUSH2 0x398 DUP9 DUP3 PUSH2 0x33F JUMP JUMPDEST SWAP8 POP PUSH2 0x3A3 DUP4 PUSH2 0x356 JUMP JUMPDEST SWAP3 POP POP PUSH1 0x1 DUP2 ADD SWAP1 POP PUSH2 0x384 JUMP JUMPDEST POP DUP6 SWAP4 POP POP POP POP SWAP3 SWAP2 POP POP JUMP JUMPDEST PUSH0 PUSH1 0x20 DUP3 ADD SWAP1 POP DUP2 DUP2 SUB PUSH0 DUP4 ADD MSTORE PUSH2 0x3D6 DUP2 DUP5 PUSH2 0x362 JUMP JUMPDEST SWAP1 POP SWAP3 SWAP2 POP POP JUMP JUMPDEST PUSH0 DUP3 DUP3 MSTORE PUSH1 0x20 DUP3 ADD SWAP1 POP SWAP3 SWAP2 POP POP JUMP JUMPDEST PUSH32 0x496E76616C696420696E64657800000000000000000000000000000000000000 PUSH0 DUP3 ADD MSTORE POP JUMP JUMPDEST PUSH0 PUSH2 0x422 PUSH1 0xD DUP4 PUSH2 0x3DE JUMP JUMPDEST SWAP2 POP PUSH2 0x42D DUP3 PUSH2 0x3EE JUMP JUMPDEST PUSH1 0x20 DUP3 ADD SWAP1 POP SWAP2 SWAP1 POP JUMP JUMPDEST PUSH0 PUSH1 0x20 DUP3 ADD SWAP1 POP DUP2 DUP2 SUB PUSH0 DUP4 ADD MSTORE PUSH2 0x44F DUP2 PUSH2 0x416 JUMP JUMPDEST SWAP1 POP SWAP2 SWAP1 POP JUMP JUMPDEST PUSH32 0x4E487B7100000000000000000000000000000000000000000000000000000000 PUSH0 MSTORE PUSH1 0x11 PUSH1 0x4 MSTORE PUSH1 0x24 PUSH0 REVERT JUMPDEST PUSH0 PUSH2 0x48D DUP3 PUSH2 0x281 JUMP JUMPDEST SWAP2 POP PUSH2 0x498 DUP4 PUSH2 0x281 JUMP JUMPDEST SWAP3 POP DUP3 DUP3 SUB SWAP1 POP DUP2 DUP2 GT ISZERO PUSH2 0x4B0 JUMPI PUSH2 0x4AF PUSH2 0x456 JUMP JUMPDEST JUMPDEST SWAP3 SWAP2 POP POP JUMP JUMPDEST PUSH0 PUSH2 0x4C0 DUP3 PUSH2 0x281 JUMP JUMPDEST SWAP2 POP PUSH2 0x4CB DUP4 PUSH2 0x281 JUMP JUMPDEST SWAP3 POP DUP3 DUP3 ADD SWAP1 POP DUP1 DUP3 GT ISZERO PUSH2 0x4E3 JUMPI PUSH2 0x4E2 PUSH2 0x456 JUMP JUMPDEST JUMPDEST SWAP3 SWAP2 POP POP JUMP JUMPDEST PUSH32 0x4E487B7100000000000000000000000000000000000000000000000000000000 PUSH0 MSTORE PUSH1 0x32 PUSH1 0x4 MSTORE PUSH1 0x24 PUSH0 REVERT INVALID LOG2 PUSH5 0x6970667358 0x22 SLT KECCAK256 MULMOD 0xED LOG2 0xD7 0xB5 TLOAD DUP8 PUSH19 0x16FEAB306C9C72EAE96046F392048E4502C12C SELFBALANCE 0xE9 0xBE SHR SLOAD PUSH5 0x736F6C6343 STOP ADDMOD 0x22 STOP CALLER "
				},
				"gasEstimates": {
					"creation": {
						"codeDepositCost": "271200",
						"executionCost": "310",
						"totalCost": "271510"
					},
					"external": {
						"addNumber(uint256)": "46886",
						"deleteItem(uint256)": "infinite",
						"getArray()": "infinite",
						"getLength()": "2439",
						"numbers(uint256)": "infinite"
					}
				},
				"methodIdentifiers": {
					"addNumber(uint256)": "fce68023",
					"deleteItem(uint256)": "654fc833",
					"getArray()": "d504ea1d",
					"getLength()": "be1c766b",
					"numbers(uint256)": "d39fa233"
				}
			},
			"storageLayout": {
				"storage": [
					{
						"astId": 49,
						"contract": "val11.sol:SparseArrayBehaviorval",
						"label": "numbers",
						"offset": 0,
						"slot": "0",
						"type": "t_array(t_uint256)dyn_storage"
					}
				],
				"types": {
					"t_array(t_uint256)dyn_storage": {
						"base": "t_uint256",
						"encoding": "dynamic_array",
						"label": "uint256[]",
						"numberOfBytes": "32"
					},
					"t_uint256": {
						"encoding": "inplace",
						"label": "uint256",
						"numberOfBytes": "32"
					}
				}
			},
			"userdoc": {
				"kind": "user",
				"methods": {},
				"version": 1
			}
		}
	}
}