{
	"val25.sol": {
		"LargeMemoryArray": {
			"abi": [
				{
					"inputs": [
						{
							"internalType": "uint256",
							"name": "_count",
							"type": "uint256"
						}
					],
					"name": "addValues",
					"outputs": [],
					"stateMutability": "nonpayable",
					"type": "function"
				},
				{
					"inputs": [],
					"name": "copyStorageToMemory",
					"outputs": [
						{
							"internalType": "uint256[]",
							"name": "",
							"type": "uint256[]"
						}
					],
					"stateMutability": "view",
					"type": "function"
				},
				{
					"inputs": [],
					"name": "getLength",
					"outputs": [
						{
							"internalType": "uint256",
							"name": "",
							"type": "uint256"
						}
					],
					"stateMutability": "view",
					"type": "function"
				},
				{
					"inputs": [
						{
							"internalType": "uint256",
							"name": "_start",
							"type": "uint256"
						},
						{
							"internalType": "uint256",
							"name": "_limit",
							"type": "uint256"
						}
					],
					"name": "getPaginatedValues",
					"outputs": [
						{
							"internalType": "uint256[]",
							"name": "",
							"type": "uint256[]"
						}
					],
					"stateMutability": "view",
					"type": "function"
				},
				{
					"inputs": [
						{
							"internalType": "uint256",
							"name": "_size",
							"type": "uint256"
						}
					],
					"name": "returnLargeArray",
					"outputs": [
						{
							"internalType": "uint256[]",
							"name": "",
							"type": "uint256[]"
						}
					],
					"stateMutability": "pure",
					"type": "function"
				},
				{
					"inputs": [
						{
							"internalType": "uint256",
							"name": "",
							"type": "uint256"
						}
					],
					"name": "storedValues",
					"outputs": [
						{
							"internalType": "uint256",
							"name": "",
							"type": "uint256"
						}
					],
					"stateMutability": "view",
					"type": "function"
				}
			],
			"devdoc": {
				"kind": "dev",
				"methods": {},
				"version": 1
			},
			"evm": {
				"assembly": "    /* \"val25.sol\":10580:12588  contract LargeMemoryArray ... */\n  mstore(0x40, 0x80)\n  callvalue\n  dup1\n  iszero\n  tag_1\n  jumpi\n  revert(0x00, 0x00)\ntag_1:\n  pop\n  dataSize(sub_0)\n  dup1\n  dataOffset(sub_0)\n  0x00\n  codecopy\n  0x00\n  return\nstop\n\nsub_0: assembly {\n        /* \"val25.sol\":10580:12588  contract LargeMemoryArray ... */\n      mstore(0x40, 0x80)\n      callvalue\n      dup1\n      iszero\n      tag_1\n      jumpi\n      revert(0x00, 0x00)\n    tag_1:\n      pop\n      jumpi(tag_2, lt(calldatasize, 0x04))\n      shr(0xe0, calldataload(0x00))\n      dup1\n      0x2d25bf7c\n      eq\n      tag_3\n      jumpi\n      dup1\n      0x4575cf5f\n      eq\n      tag_4\n      jumpi\n      dup1\n      0x46d724d3\n      eq\n      tag_5\n      jumpi\n      dup1\n      0x820d0934\n      eq\n      tag_6\n      jumpi\n      dup1\n      0x9e258efe\n      eq\n      tag_7\n      jumpi\n      dup1\n      0xbe1c766b\n      eq\n      tag_8\n      jumpi\n    tag_2:\n      revert(0x00, 0x00)\n        /* \"val25.sol\":11020:11624  function returnLargeArray(uint256 _size)... */\n    tag_3:\n      tag_9\n      0x04\n      dup1\n      calldatasize\n      sub\n      dup2\n      add\n      swap1\n      tag_10\n      swap2\n      swap1\n      tag_11\n      jump\t// in\n    tag_10:\n      tag_12\n      jump\t// in\n    tag_9:\n      mload(0x40)\n      tag_13\n      swap2\n      swap1\n      tag_14\n      jump\t// in\n    tag_13:\n      mload(0x40)\n      dup1\n      swap2\n      sub\n      swap1\n      return\n        /* \"val25.sol\":11632:12207  function getPaginatedValues(uint256 _start, uint256 _limit) public view returns (uint256[] memory)... */\n    tag_4:\n      tag_15\n      0x04\n      dup1\n      calldatasize\n      sub\n      dup2\n      add\n      swap1\n      tag_16\n      swap2\n      swap1\n      tag_17\n      jump\t// in\n    tag_16:\n      tag_18\n      jump\t// in\n    tag_15:\n      mload(0x40)\n      tag_19\n      swap2\n      swap1\n      tag_14\n      jump\t// in\n    tag_19:\n      mload(0x40)\n      dup1\n      swap2\n      sub\n      swap1\n      return\n        /* \"val25.sol\":12322:12585  function copyStorageToMemory()... */\n    tag_5:\n      tag_20\n      tag_21\n      jump\t// in\n    tag_20:\n      mload(0x40)\n      tag_22\n      swap2\n      swap1\n      tag_14\n      jump\t// in\n    tag_22:\n      mload(0x40)\n      dup1\n      swap2\n      sub\n      swap1\n      return\n        /* \"val25.sol\":10727:11012  function addValues(uint256 _count) public {... */\n    tag_6:\n      tag_23\n      0x04\n      dup1\n      calldatasize\n      sub\n      dup2\n      add\n      swap1\n      tag_24\n      swap2\n      swap1\n      tag_11\n      jump\t// in\n    tag_24:\n      tag_25\n      jump\t// in\n    tag_23:\n      stop\n        /* \"val25.sol\":10689:10718  uint256[] public storedValues */\n    tag_7:\n      tag_26\n      0x04\n      dup1\n      calldatasize\n      sub\n      dup2\n      add\n      swap1\n      tag_27\n      swap2\n      swap1\n      tag_11\n      jump\t// in\n    tag_27:\n      tag_28\n      jump\t// in\n    tag_26:\n      mload(0x40)\n      tag_29\n      swap2\n      swap1\n      tag_30\n      jump\t// in\n    tag_29:\n      mload(0x40)\n      dup1\n      swap2\n      sub\n      swap1\n      return\n        /* \"val25.sol\":12213:12314  function getLength() public view returns (uint256)... */\n    tag_8:\n      tag_31\n      tag_32\n      jump\t// in\n    tag_31:\n      mload(0x40)\n      tag_33\n      swap2\n      swap1\n      tag_30\n      jump\t// in\n    tag_33:\n      mload(0x40)\n      dup1\n      swap2\n      sub\n      swap1\n      return\n        /* \"val25.sol\":11020:11624  function returnLargeArray(uint256 _size)... */\n    tag_12:\n        /* \"val25.sol\":11109:11125  uint256[] memory */\n      0x60\n        /* \"val25.sol\":11253:11279  uint256[] memory tempArray */\n      0x00\n        /* \"val25.sol\":11309:11314  _size */\n      dup3\n        /* \"val25.sol\":11295:11315  new uint256[](_size) */\n      0xffffffffffffffff\n      dup2\n      gt\n      iszero\n      tag_35\n      jumpi\n      tag_36\n      tag_37\n      jump\t// in\n    tag_36:\n    tag_35:\n      mload(0x40)\n      swap1\n      dup1\n      dup3\n      mstore\n      dup1\n      0x20\n      mul\n      0x20\n      add\n      dup3\n      add\n      0x40\n      mstore\n      dup1\n      iszero\n      tag_38\n      jumpi\n      dup2\n      0x20\n      add\n      0x20\n      dup3\n      mul\n      dup1\n      calldatasize\n      dup4\n      calldatacopy\n      dup1\n      dup3\n      add\n      swap2\n      pop\n      pop\n      swap1\n      pop\n    tag_38:\n      pop\n        /* \"val25.sol\":11253:11315  uint256[] memory tempArray =... */\n      swap1\n      pop\n        /* \"val25.sol\":11388:11397  uint256 i */\n      0x00\n        /* \"val25.sol\":11400:11401  0 */\n      0x00\n        /* \"val25.sol\":11388:11401  uint256 i = 0 */\n      swap1\n      pop\n        /* \"val25.sol\":11383:11468  for (uint256 i = 0; i < _size; i++) {... */\n    tag_39:\n        /* \"val25.sol\":11407:11412  _size */\n      dup4\n        /* \"val25.sol\":11403:11404  i */\n      dup2\n        /* \"val25.sol\":11403:11412  i < _size */\n      lt\n        /* \"val25.sol\":11383:11468  for (uint256 i = 0; i < _size; i++) {... */\n      iszero\n      tag_40\n      jumpi\n        /* \"val25.sol\":11455:11456  1 */\n      0x01\n        /* \"val25.sol\":11451:11452  i */\n      dup2\n        /* \"val25.sol\":11451:11456  i + 1 */\n      tag_42\n      swap2\n      swap1\n      tag_43\n      jump\t// in\n    tag_42:\n        /* \"val25.sol\":11436:11445  tempArray */\n      dup3\n        /* \"val25.sol\":11446:11447  i */\n      dup3\n        /* \"val25.sol\":11436:11448  tempArray[i] */\n      dup2\n      mload\n      dup2\n      lt\n      tag_44\n      jumpi\n      tag_45\n      tag_46\n      jump\t// in\n    tag_45:\n    tag_44:\n      0x20\n      mul\n      0x20\n      add\n      add\n        /* \"val25.sol\":11436:11456  tempArray[i] = i + 1 */\n      dup2\n      dup2\n      mstore\n      pop\n      pop\n        /* \"val25.sol\":11414:11417  i++ */\n      dup1\n      dup1\n      0x01\n      add\n      swap2\n      pop\n      pop\n        /* \"val25.sol\":11383:11468  for (uint256 i = 0; i < _size; i++) {... */\n      jump(tag_39)\n    tag_40:\n      pop\n        /* \"val25.sol\":11607:11616  tempArray */\n      dup1\n        /* \"val25.sol\":11600:11616  return tempArray */\n      swap2\n      pop\n      pop\n        /* \"val25.sol\":11020:11624  function returnLargeArray(uint256 _size)... */\n      swap2\n      swap1\n      pop\n      jump\t// out\n        /* \"val25.sol\":11632:12207  function getPaginatedValues(uint256 _start, uint256 _limit) public view returns (uint256[] memory)... */\n    tag_18:\n        /* \"val25.sol\":11713:11729  uint256[] memory */\n      0x60\n        /* \"val25.sol\":11765:11777  storedValues */\n      0x00\n        /* \"val25.sol\":11765:11784  storedValues.length */\n      dup1\n      sload\n      swap1\n      pop\n        /* \"val25.sol\":11756:11762  _start */\n      dup4\n        /* \"val25.sol\":11756:11784  _start < storedValues.length */\n      lt\n        /* \"val25.sol\":11747:11814  require( _start < storedValues.length, \"Start index out of bounds\") */\n      tag_48\n      jumpi\n      mload(0x40)\n      0x08c379a000000000000000000000000000000000000000000000000000000000\n      dup2\n      mstore\n      0x04\n      add\n      tag_49\n      swap1\n      tag_50\n      jump\t// in\n    tag_49:\n      mload(0x40)\n      dup1\n      swap2\n      sub\n      swap1\n      revert\n    tag_48:\n        /* \"val25.sol\":11833:11844  uint256 end */\n      0x00\n        /* \"val25.sol\":11856:11862  _limit */\n      dup3\n        /* \"val25.sol\":11847:11853  _start */\n      dup5\n        /* \"val25.sol\":11847:11862  _start + _limit */\n      tag_51\n      swap2\n      swap1\n      tag_43\n      jump\t// in\n    tag_51:\n        /* \"val25.sol\":11833:11862  uint256 end = _start + _limit */\n      swap1\n      pop\n        /* \"val25.sol\":11886:11898  storedValues */\n      0x00\n        /* \"val25.sol\":11886:11905  storedValues.length */\n      dup1\n      sload\n      swap1\n      pop\n        /* \"val25.sol\":11880:11883  end */\n      dup2\n        /* \"val25.sol\":11880:11905  end > storedValues.length */\n      gt\n        /* \"val25.sol\":11877:11956  if(end > storedValues.length)... */\n      iszero\n      tag_52\n      jumpi\n        /* \"val25.sol\":11929:11941  storedValues */\n      0x00\n        /* \"val25.sol\":11929:11948  storedValues.length */\n      dup1\n      sload\n      swap1\n      pop\n        /* \"val25.sol\":11923:11948  end = storedValues.length */\n      swap1\n      pop\n        /* \"val25.sol\":11877:11956  if(end > storedValues.length)... */\n    tag_52:\n        /* \"val25.sol\":11964:11982  uint256 resultSize */\n      0x00\n        /* \"val25.sol\":11991:11997  _start */\n      dup5\n        /* \"val25.sol\":11985:11988  end */\n      dup3\n        /* \"val25.sol\":11985:11997  end - _start */\n      tag_53\n      swap2\n      swap1\n      tag_54\n      jump\t// in\n    tag_53:\n        /* \"val25.sol\":11964:11997  uint256 resultSize = end - _start */\n      swap1\n      pop\n        /* \"val25.sol\":12006:12029  uint256[] memory result */\n      0x00\n        /* \"val25.sol\":12046:12056  resultSize */\n      dup2\n        /* \"val25.sol\":12032:12057  new uint256[](resultSize) */\n      0xffffffffffffffff\n      dup2\n      gt\n      iszero\n      tag_55\n      jumpi\n      tag_56\n      tag_37\n      jump\t// in\n    tag_56:\n    tag_55:\n      mload(0x40)\n      swap1\n      dup1\n      dup3\n      mstore\n      dup1\n      0x20\n      mul\n      0x20\n      add\n      dup3\n      add\n      0x40\n      mstore\n      dup1\n      iszero\n      tag_57\n      jumpi\n      dup2\n      0x20\n      add\n      0x20\n      dup3\n      mul\n      dup1\n      calldatasize\n      dup4\n      calldatacopy\n      dup1\n      dup3\n      add\n      swap2\n      pop\n      pop\n      swap1\n      pop\n    tag_57:\n      pop\n        /* \"val25.sol\":12006:12057  uint256[] memory result = new uint256[](resultSize) */\n      swap1\n      pop\n        /* \"val25.sol\":12070:12079  uint256 i */\n      0x00\n        /* \"val25.sol\":12082:12083  0 */\n      0x00\n        /* \"val25.sol\":12070:12083  uint256 i = 0 */\n      swap1\n      pop\n        /* \"val25.sol\":12066:12174  for(uint256 i = 0; i < resultSize; i++)... */\n    tag_58:\n        /* \"val25.sol\":12089:12099  resultSize */\n      dup3\n        /* \"val25.sol\":12085:12086  i */\n      dup2\n        /* \"val25.sol\":12085:12099  i < resultSize */\n      lt\n        /* \"val25.sol\":12066:12174  for(uint256 i = 0; i < resultSize; i++)... */\n      iszero\n      tag_59\n      jumpi\n        /* \"val25.sol\":12134:12146  storedValues */\n      0x00\n        /* \"val25.sol\":12156:12157  i */\n      dup2\n        /* \"val25.sol\":12147:12153  _start */\n      dup9\n        /* \"val25.sol\":12147:12157  _start + i */\n      tag_61\n      swap2\n      swap1\n      tag_43\n      jump\t// in\n    tag_61:\n        /* \"val25.sol\":12134:12158  storedValues[_start + i] */\n      dup2\n      sload\n      dup2\n      lt\n      tag_62\n      jumpi\n      tag_63\n      tag_46\n      jump\t// in\n    tag_63:\n    tag_62:\n      swap1\n      0x00\n      mstore\n      keccak256(0x00, 0x20)\n      add\n      sload\n        /* \"val25.sol\":12122:12128  result */\n      dup3\n        /* \"val25.sol\":12129:12130  i */\n      dup3\n        /* \"val25.sol\":12122:12131  result[i] */\n      dup2\n      mload\n      dup2\n      lt\n      tag_65\n      jumpi\n      tag_66\n      tag_46\n      jump\t// in\n    tag_66:\n    tag_65:\n      0x20\n      mul\n      0x20\n      add\n      add\n        /* \"val25.sol\":12122:12158  result[i] = storedValues[_start + i] */\n      dup2\n      dup2\n      mstore\n      pop\n      pop\n        /* \"val25.sol\":12101:12104  i++ */\n      dup1\n      dup1\n      0x01\n      add\n      swap2\n      pop\n      pop\n        /* \"val25.sol\":12066:12174  for(uint256 i = 0; i < resultSize; i++)... */\n      jump(tag_58)\n    tag_59:\n      pop\n        /* \"val25.sol\":12193:12199  result */\n      dup1\n        /* \"val25.sol\":12186:12199  return result */\n      swap4\n      pop\n      pop\n      pop\n      pop\n        /* \"val25.sol\":11632:12207  function getPaginatedValues(uint256 _start, uint256 _limit) public view returns (uint256[] memory)... */\n      swap3\n      swap2\n      pop\n      pop\n      jump\t// out\n        /* \"val25.sol\":12322:12585  function copyStorageToMemory()... */\n    tag_21:\n        /* \"val25.sol\":12401:12417  uint256[] memory */\n      0x60\n        /* \"val25.sol\":12565:12577  storedValues */\n      0x00\n        /* \"val25.sol\":12558:12577  return storedValues */\n      dup1\n      sload\n      dup1\n      0x20\n      mul\n      0x20\n      add\n      mload(0x40)\n      swap1\n      dup2\n      add\n      0x40\n      mstore\n      dup1\n      swap3\n      swap2\n      swap1\n      dup2\n      dup2\n      mstore\n      0x20\n      add\n      dup3\n      dup1\n      sload\n      dup1\n      iszero\n      tag_68\n      jumpi\n      0x20\n      mul\n      dup3\n      add\n      swap2\n      swap1\n      0x00\n      mstore\n      keccak256(0x00, 0x20)\n      swap1\n    tag_69:\n      dup2\n      sload\n      dup2\n      mstore\n      0x20\n      add\n      swap1\n      0x01\n      add\n      swap1\n      dup1\n      dup4\n      gt\n      tag_69\n      jumpi\n    tag_68:\n      pop\n      pop\n      pop\n      pop\n      pop\n      swap1\n      pop\n        /* \"val25.sol\":12322:12585  function copyStorageToMemory()... */\n      swap1\n      jump\t// out\n        /* \"val25.sol\":10727:11012  function addValues(uint256 _count) public {... */\n    tag_25:\n        /* \"val25.sol\":10924:10933  uint256 i */\n      0x00\n        /* \"val25.sol\":10936:10937  0 */\n      0x00\n        /* \"val25.sol\":10924:10937  uint256 i = 0 */\n      swap1\n      pop\n        /* \"val25.sol\":10919:11005  for (uint256 i = 0; i < _count; i++) {... */\n    tag_71:\n        /* \"val25.sol\":10943:10949  _count */\n      dup2\n        /* \"val25.sol\":10939:10940  i */\n      dup2\n        /* \"val25.sol\":10939:10949  i < _count */\n      lt\n        /* \"val25.sol\":10919:11005  for (uint256 i = 0; i < _count; i++) {... */\n      iszero\n      tag_72\n      jumpi\n        /* \"val25.sol\":10973:10985  storedValues */\n      0x00\n        /* \"val25.sol\":10991:10992  i */\n      dup2\n        /* \"val25.sol\":10973:10993  storedValues.push(i) */\n      swap1\n      dup1\n      0x01\n      dup2\n      sload\n      add\n      dup1\n      dup3\n      sstore\n      dup1\n      swap2\n      pop\n      pop\n      0x01\n      swap1\n      sub\n      swap1\n      0x00\n      mstore\n      keccak256(0x00, 0x20)\n      add\n      0x00\n      swap1\n      swap2\n      swap1\n      swap2\n      swap1\n      swap2\n      pop\n      sstore\n        /* \"val25.sol\":10951:10954  i++ */\n      dup1\n      dup1\n      0x01\n      add\n      swap2\n      pop\n      pop\n        /* \"val25.sol\":10919:11005  for (uint256 i = 0; i < _count; i++) {... */\n      jump(tag_71)\n    tag_72:\n      pop\n        /* \"val25.sol\":10727:11012  function addValues(uint256 _count) public {... */\n      pop\n      jump\t// out\n        /* \"val25.sol\":10689:10718  uint256[] public storedValues */\n    tag_28:\n      0x00\n      dup2\n      dup2\n      sload\n      dup2\n      lt\n      tag_75\n      jumpi\n      0x00\n      dup1\n      revert\n    tag_75:\n      swap1\n      0x00\n      mstore\n      keccak256(0x00, 0x20)\n      add\n      0x00\n      swap2\n      pop\n      swap1\n      pop\n      sload\n      dup2\n      jump\t// out\n        /* \"val25.sol\":12213:12314  function getLength() public view returns (uint256)... */\n    tag_32:\n        /* \"val25.sol\":12255:12262  uint256 */\n      0x00\n        /* \"val25.sol\":12287:12299  storedValues */\n      0x00\n        /* \"val25.sol\":12287:12306  storedValues.length */\n      dup1\n      sload\n      swap1\n      pop\n        /* \"val25.sol\":12280:12306  return storedValues.length */\n      swap1\n      pop\n        /* \"val25.sol\":12213:12314  function getLength() public view returns (uint256)... */\n      swap1\n      jump\t// out\n        /* \"#utility.yul\":88:205   */\n    tag_79:\n        /* \"#utility.yul\":197:198   */\n      0x00\n        /* \"#utility.yul\":194:195   */\n      0x00\n        /* \"#utility.yul\":187:199   */\n      revert\n        /* \"#utility.yul\":334:411   */\n    tag_81:\n        /* \"#utility.yul\":371:378   */\n      0x00\n        /* \"#utility.yul\":400:405   */\n      dup2\n        /* \"#utility.yul\":389:405   */\n      swap1\n      pop\n        /* \"#utility.yul\":334:411   */\n      swap2\n      swap1\n      pop\n      jump\t// out\n        /* \"#utility.yul\":417:539   */\n    tag_82:\n        /* \"#utility.yul\":490:514   */\n      tag_102\n        /* \"#utility.yul\":508:513   */\n      dup2\n        /* \"#utility.yul\":490:514   */\n      tag_81\n      jump\t// in\n    tag_102:\n        /* \"#utility.yul\":483:488   */\n      dup2\n        /* \"#utility.yul\":480:515   */\n      eq\n        /* \"#utility.yul\":470:533   */\n      tag_103\n      jumpi\n        /* \"#utility.yul\":529:530   */\n      0x00\n        /* \"#utility.yul\":526:527   */\n      0x00\n        /* \"#utility.yul\":519:531   */\n      revert\n        /* \"#utility.yul\":470:533   */\n    tag_103:\n        /* \"#utility.yul\":417:539   */\n      pop\n      jump\t// out\n        /* \"#utility.yul\":545:684   */\n    tag_83:\n        /* \"#utility.yul\":591:596   */\n      0x00\n        /* \"#utility.yul\":629:635   */\n      dup2\n        /* \"#utility.yul\":616:636   */\n      calldataload\n        /* \"#utility.yul\":607:636   */\n      swap1\n      pop\n        /* \"#utility.yul\":645:678   */\n      tag_105\n        /* \"#utility.yul\":672:677   */\n      dup2\n        /* \"#utility.yul\":645:678   */\n      tag_82\n      jump\t// in\n    tag_105:\n        /* \"#utility.yul\":545:684   */\n      swap3\n      swap2\n      pop\n      pop\n      jump\t// out\n        /* \"#utility.yul\":690:1019   */\n    tag_11:\n        /* \"#utility.yul\":749:755   */\n      0x00\n        /* \"#utility.yul\":798:800   */\n      0x20\n        /* \"#utility.yul\":786:795   */\n      dup3\n        /* \"#utility.yul\":777:784   */\n      dup5\n        /* \"#utility.yul\":773:796   */\n      sub\n        /* \"#utility.yul\":769:801   */\n      slt\n        /* \"#utility.yul\":766:885   */\n      iszero\n      tag_107\n      jumpi\n        /* \"#utility.yul\":804:883   */\n      tag_108\n      tag_79\n      jump\t// in\n    tag_108:\n        /* \"#utility.yul\":766:885   */\n    tag_107:\n        /* \"#utility.yul\":924:925   */\n      0x00\n        /* \"#utility.yul\":949:1002   */\n      tag_109\n        /* \"#utility.yul\":994:1001   */\n      dup5\n        /* \"#utility.yul\":985:991   */\n      dup3\n        /* \"#utility.yul\":974:983   */\n      dup6\n        /* \"#utility.yul\":970:992   */\n      add\n        /* \"#utility.yul\":949:1002   */\n      tag_83\n      jump\t// in\n    tag_109:\n        /* \"#utility.yul\":939:1002   */\n      swap2\n      pop\n        /* \"#utility.yul\":895:1012   */\n      pop\n        /* \"#utility.yul\":690:1019   */\n      swap3\n      swap2\n      pop\n      pop\n      jump\t// out\n        /* \"#utility.yul\":1025:1139   */\n    tag_84:\n        /* \"#utility.yul\":1092:1098   */\n      0x00\n        /* \"#utility.yul\":1126:1131   */\n      dup2\n        /* \"#utility.yul\":1120:1132   */\n      mload\n        /* \"#utility.yul\":1110:1132   */\n      swap1\n      pop\n        /* \"#utility.yul\":1025:1139   */\n      swap2\n      swap1\n      pop\n      jump\t// out\n        /* \"#utility.yul\":1145:1329   */\n    tag_85:\n        /* \"#utility.yul\":1244:1255   */\n      0x00\n        /* \"#utility.yul\":1278:1284   */\n      dup3\n        /* \"#utility.yul\":1273:1276   */\n      dup3\n        /* \"#utility.yul\":1266:1285   */\n      mstore\n        /* \"#utility.yul\":1318:1322   */\n      0x20\n        /* \"#utility.yul\":1313:1316   */\n      dup3\n        /* \"#utility.yul\":1309:1323   */\n      add\n        /* \"#utility.yul\":1294:1323   */\n      swap1\n      pop\n        /* \"#utility.yul\":1145:1329   */\n      swap3\n      swap2\n      pop\n      pop\n      jump\t// out\n        /* \"#utility.yul\":1335:1467   */\n    tag_86:\n        /* \"#utility.yul\":1402:1406   */\n      0x00\n        /* \"#utility.yul\":1425:1428   */\n      dup2\n        /* \"#utility.yul\":1417:1428   */\n      swap1\n      pop\n        /* \"#utility.yul\":1455:1459   */\n      0x20\n        /* \"#utility.yul\":1450:1453   */\n      dup3\n        /* \"#utility.yul\":1446:1460   */\n      add\n        /* \"#utility.yul\":1438:1460   */\n      swap1\n      pop\n        /* \"#utility.yul\":1335:1467   */\n      swap2\n      swap1\n      pop\n      jump\t// out\n        /* \"#utility.yul\":1473:1581   */\n    tag_87:\n        /* \"#utility.yul\":1550:1574   */\n      tag_114\n        /* \"#utility.yul\":1568:1573   */\n      dup2\n        /* \"#utility.yul\":1550:1574   */\n      tag_81\n      jump\t// in\n    tag_114:\n        /* \"#utility.yul\":1545:1548   */\n      dup3\n        /* \"#utility.yul\":1538:1575   */\n      mstore\n        /* \"#utility.yul\":1473:1581   */\n      pop\n      pop\n      jump\t// out\n        /* \"#utility.yul\":1587:1766   */\n    tag_88:\n        /* \"#utility.yul\":1656:1666   */\n      0x00\n        /* \"#utility.yul\":1677:1723   */\n      tag_116\n        /* \"#utility.yul\":1719:1722   */\n      dup4\n        /* \"#utility.yul\":1711:1717   */\n      dup4\n        /* \"#utility.yul\":1677:1723   */\n      tag_87\n      jump\t// in\n    tag_116:\n        /* \"#utility.yul\":1755:1759   */\n      0x20\n        /* \"#utility.yul\":1750:1753   */\n      dup4\n        /* \"#utility.yul\":1746:1760   */\n      add\n        /* \"#utility.yul\":1732:1760   */\n      swap1\n      pop\n        /* \"#utility.yul\":1587:1766   */\n      swap3\n      swap2\n      pop\n      pop\n      jump\t// out\n        /* \"#utility.yul\":1772:1885   */\n    tag_89:\n        /* \"#utility.yul\":1842:1846   */\n      0x00\n        /* \"#utility.yul\":1874:1878   */\n      0x20\n        /* \"#utility.yul\":1869:1872   */\n      dup3\n        /* \"#utility.yul\":1865:1879   */\n      add\n        /* \"#utility.yul\":1857:1879   */\n      swap1\n      pop\n        /* \"#utility.yul\":1772:1885   */\n      swap2\n      swap1\n      pop\n      jump\t// out\n        /* \"#utility.yul\":1921:2653   */\n    tag_90:\n        /* \"#utility.yul\":2040:2043   */\n      0x00\n        /* \"#utility.yul\":2069:2123   */\n      tag_119\n        /* \"#utility.yul\":2117:2122   */\n      dup3\n        /* \"#utility.yul\":2069:2123   */\n      tag_84\n      jump\t// in\n    tag_119:\n        /* \"#utility.yul\":2139:2225   */\n      tag_120\n        /* \"#utility.yul\":2218:2224   */\n      dup2\n        /* \"#utility.yul\":2213:2216   */\n      dup6\n        /* \"#utility.yul\":2139:2225   */\n      tag_85\n      jump\t// in\n    tag_120:\n        /* \"#utility.yul\":2132:2225   */\n      swap4\n      pop\n        /* \"#utility.yul\":2249:2305   */\n      tag_121\n        /* \"#utility.yul\":2299:2304   */\n      dup4\n        /* \"#utility.yul\":2249:2305   */\n      tag_86\n      jump\t// in\n    tag_121:\n        /* \"#utility.yul\":2328:2335   */\n      dup1\n        /* \"#utility.yul\":2359:2360   */\n      0x00\n        /* \"#utility.yul\":2344:2628   */\n    tag_122:\n        /* \"#utility.yul\":2369:2375   */\n      dup4\n        /* \"#utility.yul\":2366:2367   */\n      dup2\n        /* \"#utility.yul\":2363:2376   */\n      lt\n        /* \"#utility.yul\":2344:2628   */\n      iszero\n      tag_124\n      jumpi\n        /* \"#utility.yul\":2445:2451   */\n      dup2\n        /* \"#utility.yul\":2439:2452   */\n      mload\n        /* \"#utility.yul\":2472:2535   */\n      tag_125\n        /* \"#utility.yul\":2531:2534   */\n      dup9\n        /* \"#utility.yul\":2516:2529   */\n      dup3\n        /* \"#utility.yul\":2472:2535   */\n      tag_88\n      jump\t// in\n    tag_125:\n        /* \"#utility.yul\":2465:2535   */\n      swap8\n      pop\n        /* \"#utility.yul\":2558:2618   */\n      tag_126\n        /* \"#utility.yul\":2611:2617   */\n      dup4\n        /* \"#utility.yul\":2558:2618   */\n      tag_89\n      jump\t// in\n    tag_126:\n        /* \"#utility.yul\":2548:2618   */\n      swap3\n      pop\n        /* \"#utility.yul\":2404:2628   */\n      pop\n        /* \"#utility.yul\":2391:2392   */\n      0x01\n        /* \"#utility.yul\":2388:2389   */\n      dup2\n        /* \"#utility.yul\":2384:2393   */\n      add\n        /* \"#utility.yul\":2379:2393   */\n      swap1\n      pop\n        /* \"#utility.yul\":2344:2628   */\n      jump(tag_122)\n    tag_124:\n        /* \"#utility.yul\":2348:2362   */\n      pop\n        /* \"#utility.yul\":2644:2647   */\n      dup6\n        /* \"#utility.yul\":2637:2647   */\n      swap4\n      pop\n        /* \"#utility.yul\":2045:2653   */\n      pop\n      pop\n      pop\n        /* \"#utility.yul\":1921:2653   */\n      swap3\n      swap2\n      pop\n      pop\n      jump\t// out\n        /* \"#utility.yul\":2659:3032   */\n    tag_14:\n        /* \"#utility.yul\":2802:2806   */\n      0x00\n        /* \"#utility.yul\":2840:2842   */\n      0x20\n        /* \"#utility.yul\":2829:2838   */\n      dup3\n        /* \"#utility.yul\":2825:2843   */\n      add\n        /* \"#utility.yul\":2817:2843   */\n      swap1\n      pop\n        /* \"#utility.yul\":2889:2898   */\n      dup2\n        /* \"#utility.yul\":2883:2887   */\n      dup2\n        /* \"#utility.yul\":2879:2899   */\n      sub\n        /* \"#utility.yul\":2875:2876   */\n      0x00\n        /* \"#utility.yul\":2864:2873   */\n      dup4\n        /* \"#utility.yul\":2860:2877   */\n      add\n        /* \"#utility.yul\":2853:2900   */\n      mstore\n        /* \"#utility.yul\":2917:3025   */\n      tag_128\n        /* \"#utility.yul\":3020:3024   */\n      dup2\n        /* \"#utility.yul\":3011:3017   */\n      dup5\n        /* \"#utility.yul\":2917:3025   */\n      tag_90\n      jump\t// in\n    tag_128:\n        /* \"#utility.yul\":2909:3025   */\n      swap1\n      pop\n        /* \"#utility.yul\":2659:3032   */\n      swap3\n      swap2\n      pop\n      pop\n      jump\t// out\n        /* \"#utility.yul\":3038:3512   */\n    tag_17:\n        /* \"#utility.yul\":3106:3112   */\n      0x00\n        /* \"#utility.yul\":3114:3120   */\n      0x00\n        /* \"#utility.yul\":3163:3165   */\n      0x40\n        /* \"#utility.yul\":3151:3160   */\n      dup4\n        /* \"#utility.yul\":3142:3149   */\n      dup6\n        /* \"#utility.yul\":3138:3161   */\n      sub\n        /* \"#utility.yul\":3134:3166   */\n      slt\n        /* \"#utility.yul\":3131:3250   */\n      iszero\n      tag_130\n      jumpi\n        /* \"#utility.yul\":3169:3248   */\n      tag_131\n      tag_79\n      jump\t// in\n    tag_131:\n        /* \"#utility.yul\":3131:3250   */\n    tag_130:\n        /* \"#utility.yul\":3289:3290   */\n      0x00\n        /* \"#utility.yul\":3314:3367   */\n      tag_132\n        /* \"#utility.yul\":3359:3366   */\n      dup6\n        /* \"#utility.yul\":3350:3356   */\n      dup3\n        /* \"#utility.yul\":3339:3348   */\n      dup7\n        /* \"#utility.yul\":3335:3357   */\n      add\n        /* \"#utility.yul\":3314:3367   */\n      tag_83\n      jump\t// in\n    tag_132:\n        /* \"#utility.yul\":3304:3367   */\n      swap3\n      pop\n        /* \"#utility.yul\":3260:3377   */\n      pop\n        /* \"#utility.yul\":3416:3418   */\n      0x20\n        /* \"#utility.yul\":3442:3495   */\n      tag_133\n        /* \"#utility.yul\":3487:3494   */\n      dup6\n        /* \"#utility.yul\":3478:3484   */\n      dup3\n        /* \"#utility.yul\":3467:3476   */\n      dup7\n        /* \"#utility.yul\":3463:3485   */\n      add\n        /* \"#utility.yul\":3442:3495   */\n      tag_83\n      jump\t// in\n    tag_133:\n        /* \"#utility.yul\":3432:3495   */\n      swap2\n      pop\n        /* \"#utility.yul\":3387:3505   */\n      pop\n        /* \"#utility.yul\":3038:3512   */\n      swap3\n      pop\n      swap3\n      swap1\n      pop\n      jump\t// out\n        /* \"#utility.yul\":3518:3636   */\n    tag_91:\n        /* \"#utility.yul\":3605:3629   */\n      tag_135\n        /* \"#utility.yul\":3623:3628   */\n      dup2\n        /* \"#utility.yul\":3605:3629   */\n      tag_81\n      jump\t// in\n    tag_135:\n        /* \"#utility.yul\":3600:3603   */\n      dup3\n        /* \"#utility.yul\":3593:3630   */\n      mstore\n        /* \"#utility.yul\":3518:3636   */\n      pop\n      pop\n      jump\t// out\n        /* \"#utility.yul\":3642:3864   */\n    tag_30:\n        /* \"#utility.yul\":3735:3739   */\n      0x00\n        /* \"#utility.yul\":3773:3775   */\n      0x20\n        /* \"#utility.yul\":3762:3771   */\n      dup3\n        /* \"#utility.yul\":3758:3776   */\n      add\n        /* \"#utility.yul\":3750:3776   */\n      swap1\n      pop\n        /* \"#utility.yul\":3786:3857   */\n      tag_137\n        /* \"#utility.yul\":3854:3855   */\n      0x00\n        /* \"#utility.yul\":3843:3852   */\n      dup4\n        /* \"#utility.yul\":3839:3856   */\n      add\n        /* \"#utility.yul\":3830:3836   */\n      dup5\n        /* \"#utility.yul\":3786:3857   */\n      tag_91\n      jump\t// in\n    tag_137:\n        /* \"#utility.yul\":3642:3864   */\n      swap3\n      swap2\n      pop\n      pop\n      jump\t// out\n        /* \"#utility.yul\":3870:4050   */\n    tag_37:\n        /* \"#utility.yul\":3918:3995   */\n      0x4e487b7100000000000000000000000000000000000000000000000000000000\n        /* \"#utility.yul\":3915:3916   */\n      0x00\n        /* \"#utility.yul\":3908:3996   */\n      mstore\n        /* \"#utility.yul\":4015:4019   */\n      0x41\n        /* \"#utility.yul\":4012:4013   */\n      0x04\n        /* \"#utility.yul\":4005:4020   */\n      mstore\n        /* \"#utility.yul\":4039:4043   */\n      0x24\n        /* \"#utility.yul\":4036:4037   */\n      0x00\n        /* \"#utility.yul\":4029:4044   */\n      revert\n        /* \"#utility.yul\":4056:4236   */\n    tag_92:\n        /* \"#utility.yul\":4104:4181   */\n      0x4e487b7100000000000000000000000000000000000000000000000000000000\n        /* \"#utility.yul\":4101:4102   */\n      0x00\n        /* \"#utility.yul\":4094:4182   */\n      mstore\n        /* \"#utility.yul\":4201:4205   */\n      0x11\n        /* \"#utility.yul\":4198:4199   */\n      0x04\n        /* \"#utility.yul\":4191:4206   */\n      mstore\n        /* \"#utility.yul\":4225:4229   */\n      0x24\n        /* \"#utility.yul\":4222:4223   */\n      0x00\n        /* \"#utility.yul\":4215:4230   */\n      revert\n        /* \"#utility.yul\":4242:4433   */\n    tag_43:\n        /* \"#utility.yul\":4282:4285   */\n      0x00\n        /* \"#utility.yul\":4301:4321   */\n      tag_141\n        /* \"#utility.yul\":4319:4320   */\n      dup3\n        /* \"#utility.yul\":4301:4321   */\n      tag_81\n      jump\t// in\n    tag_141:\n        /* \"#utility.yul\":4296:4321   */\n      swap2\n      pop\n        /* \"#utility.yul\":4335:4355   */\n      tag_142\n        /* \"#utility.yul\":4353:4354   */\n      dup4\n        /* \"#utility.yul\":4335:4355   */\n      tag_81\n      jump\t// in\n    tag_142:\n        /* \"#utility.yul\":4330:4355   */\n      swap3\n      pop\n        /* \"#utility.yul\":4378:4379   */\n      dup3\n        /* \"#utility.yul\":4375:4376   */\n      dup3\n        /* \"#utility.yul\":4371:4380   */\n      add\n        /* \"#utility.yul\":4364:4380   */\n      swap1\n      pop\n        /* \"#utility.yul\":4399:4402   */\n      dup1\n        /* \"#utility.yul\":4396:4397   */\n      dup3\n        /* \"#utility.yul\":4393:4403   */\n      gt\n        /* \"#utility.yul\":4390:4426   */\n      iszero\n      tag_143\n      jumpi\n        /* \"#utility.yul\":4406:4424   */\n      tag_144\n      tag_92\n      jump\t// in\n    tag_144:\n        /* \"#utility.yul\":4390:4426   */\n    tag_143:\n        /* \"#utility.yul\":4242:4433   */\n      swap3\n      swap2\n      pop\n      pop\n      jump\t// out\n        /* \"#utility.yul\":4439:4619   */\n    tag_46:\n        /* \"#utility.yul\":4487:4564   */\n      0x4e487b7100000000000000000000000000000000000000000000000000000000\n        /* \"#utility.yul\":4484:4485   */\n      0x00\n        /* \"#utility.yul\":4477:4565   */\n      mstore\n        /* \"#utility.yul\":4584:4588   */\n      0x32\n        /* \"#utility.yul\":4581:4582   */\n      0x04\n        /* \"#utility.yul\":4574:4589   */\n      mstore\n        /* \"#utility.yul\":4608:4612   */\n      0x24\n        /* \"#utility.yul\":4605:4606   */\n      0x00\n        /* \"#utility.yul\":4598:4613   */\n      revert\n        /* \"#utility.yul\":4625:4794   */\n    tag_93:\n        /* \"#utility.yul\":4709:4720   */\n      0x00\n        /* \"#utility.yul\":4743:4749   */\n      dup3\n        /* \"#utility.yul\":4738:4741   */\n      dup3\n        /* \"#utility.yul\":4731:4750   */\n      mstore\n        /* \"#utility.yul\":4783:4787   */\n      0x20\n        /* \"#utility.yul\":4778:4781   */\n      dup3\n        /* \"#utility.yul\":4774:4788   */\n      add\n        /* \"#utility.yul\":4759:4788   */\n      swap1\n      pop\n        /* \"#utility.yul\":4625:4794   */\n      swap3\n      swap2\n      pop\n      pop\n      jump\t// out\n        /* \"#utility.yul\":4800:4975   */\n    tag_94:\n        /* \"#utility.yul\":4940:4967   */\n      0x537461727420696e646578206f7574206f6620626f756e647300000000000000\n        /* \"#utility.yul\":4936:4937   */\n      0x00\n        /* \"#utility.yul\":4928:4934   */\n      dup3\n        /* \"#utility.yul\":4924:4938   */\n      add\n        /* \"#utility.yul\":4917:4968   */\n      mstore\n        /* \"#utility.yul\":4800:4975   */\n      pop\n      jump\t// out\n        /* \"#utility.yul\":4981:5347   */\n    tag_95:\n        /* \"#utility.yul\":5123:5126   */\n      0x00\n        /* \"#utility.yul\":5144:5211   */\n      tag_149\n        /* \"#utility.yul\":5208:5210   */\n      0x19\n        /* \"#utility.yul\":5203:5206   */\n      dup4\n        /* \"#utility.yul\":5144:5211   */\n      tag_93\n      jump\t// in\n    tag_149:\n        /* \"#utility.yul\":5137:5211   */\n      swap2\n      pop\n        /* \"#utility.yul\":5220:5313   */\n      tag_150\n        /* \"#utility.yul\":5309:5312   */\n      dup3\n        /* \"#utility.yul\":5220:5313   */\n      tag_94\n      jump\t// in\n    tag_150:\n        /* \"#utility.yul\":5338:5340   */\n      0x20\n        /* \"#utility.yul\":5333:5336   */\n      dup3\n        /* \"#utility.yul\":5329:5341   */\n      add\n        /* \"#utility.yul\":5322:5341   */\n      swap1\n      pop\n        /* \"#utility.yul\":4981:5347   */\n      swap2\n      swap1\n      pop\n      jump\t// out\n        /* \"#utility.yul\":5353:5772   */\n    tag_50:\n        /* \"#utility.yul\":5519:5523   */\n      0x00\n        /* \"#utility.yul\":5557:5559   */\n      0x20\n        /* \"#utility.yul\":5546:5555   */\n      dup3\n        /* \"#utility.yul\":5542:5560   */\n      add\n        /* \"#utility.yul\":5534:5560   */\n      swap1\n      pop\n        /* \"#utility.yul\":5606:5615   */\n      dup2\n        /* \"#utility.yul\":5600:5604   */\n      dup2\n        /* \"#utility.yul\":5596:5616   */\n      sub\n        /* \"#utility.yul\":5592:5593   */\n      0x00\n        /* \"#utility.yul\":5581:5590   */\n      dup4\n        /* \"#utility.yul\":5577:5594   */\n      add\n        /* \"#utility.yul\":5570:5617   */\n      mstore\n        /* \"#utility.yul\":5634:5765   */\n      tag_152\n        /* \"#utility.yul\":5760:5764   */\n      dup2\n        /* \"#utility.yul\":5634:5765   */\n      tag_95\n      jump\t// in\n    tag_152:\n        /* \"#utility.yul\":5626:5765   */\n      swap1\n      pop\n        /* \"#utility.yul\":5353:5772   */\n      swap2\n      swap1\n      pop\n      jump\t// out\n        /* \"#utility.yul\":5778:5972   */\n    tag_54:\n        /* \"#utility.yul\":5818:5822   */\n      0x00\n        /* \"#utility.yul\":5838:5858   */\n      tag_154\n        /* \"#utility.yul\":5856:5857   */\n      dup3\n        /* \"#utility.yul\":5838:5858   */\n      tag_81\n      jump\t// in\n    tag_154:\n        /* \"#utility.yul\":5833:5858   */\n      swap2\n      pop\n        /* \"#utility.yul\":5872:5892   */\n      tag_155\n        /* \"#utility.yul\":5890:5891   */\n      dup4\n        /* \"#utility.yul\":5872:5892   */\n      tag_81\n      jump\t// in\n    tag_155:\n        /* \"#utility.yul\":5867:5892   */\n      swap3\n      pop\n        /* \"#utility.yul\":5916:5917   */\n      dup3\n        /* \"#utility.yul\":5913:5914   */\n      dup3\n        /* \"#utility.yul\":5909:5918   */\n      sub\n        /* \"#utility.yul\":5901:5918   */\n      swap1\n      pop\n        /* \"#utility.yul\":5940:5941   */\n      dup2\n        /* \"#utility.yul\":5934:5938   */\n      dup2\n        /* \"#utility.yul\":5931:5942   */\n      gt\n        /* \"#utility.yul\":5928:5965   */\n      iszero\n      tag_156\n      jumpi\n        /* \"#utility.yul\":5945:5963   */\n      tag_157\n      tag_92\n      jump\t// in\n    tag_157:\n        /* \"#utility.yul\":5928:5965   */\n    tag_156:\n        /* \"#utility.yul\":5778:5972   */\n      swap3\n      swap2\n      pop\n      pop\n      jump\t// out\n\n    auxdata: 0xa2646970667358221220e9a8cc2cfd4c51479ff498cb8d19a2ed5bf1a5f1b482b4f3af888ce2befc848464736f6c63430008220033\n}\n",
				"bytecode": {
					"linkReferences": {},
					"object": "6080604052348015600e575f5ffd5b506107198061001c5f395ff3fe608060405234801561000f575f5ffd5b5060043610610060575f3560e01c80632d25bf7c146100645780634575cf5f1461009457806346d724d3146100c4578063820d0934146100e25780639e258efe146100fe578063be1c766b1461012e575b5f5ffd5b61007e60048036038101906100799190610416565b61014c565b60405161008b91906104f8565b60405180910390f35b6100ae60048036038101906100a99190610518565b6101ea565b6040516100bb91906104f8565b60405180910390f35b6100cc61031d565b6040516100d991906104f8565b60405180910390f35b6100fc60048036038101906100f79190610416565b610372565b005b61011860048036038101906101139190610416565b6103b5565b6040516101259190610565565b60405180910390f35b6101366103d4565b6040516101439190610565565b60405180910390f35b60605f8267ffffffffffffffff8111156101695761016861057e565b5b6040519080825280602002602001820160405280156101975781602001602082028036833780820191505090505b5090505f5f90505b838110156101e0576001816101b491906105d8565b8282815181106101c7576101c661060b565b5b602002602001018181525050808060010191505061019f565b5080915050919050565b60605f805490508310610232576040517f08c379a000000000000000000000000000000000000000000000000000000000815260040161022990610692565b60405180910390fd5b5f828461023f91906105d8565b90505f80549050811115610255575f8054905090505b5f848261026291906106b0565b90505f8167ffffffffffffffff81111561027f5761027e61057e565b5b6040519080825280602002602001820160405280156102ad5781602001602082028036833780820191505090505b5090505f5f90505b82811015610310575f81886102ca91906105d8565b815481106102db576102da61060b565b5b905f5260205f2001548282815181106102f7576102f661060b565b5b60200260200101818152505080806001019150506102b5565b5080935050505092915050565b60605f80548060200260200160405190810160405280929190818152602001828054801561036857602002820191905f5260205f20905b815481526020019060010190808311610354575b5050505050905090565b5f5f90505b818110156103b1575f81908060018154018082558091505060019003905f5260205f20015f90919091909150558080600101915050610377565b5050565b5f81815481106103c3575f80fd5b905f5260205f20015f915090505481565b5f5f80549050905090565b5f5ffd5b5f819050919050565b6103f5816103e3565b81146103ff575f5ffd5b50565b5f81359050610410816103ec565b92915050565b5f6020828403121561042b5761042a6103df565b5b5f61043884828501610402565b91505092915050565b5f81519050919050565b5f82825260208201905092915050565b5f819050602082019050919050565b610473816103e3565b82525050565b5f610484838361046a565b60208301905092915050565b5f602082019050919050565b5f6104a682610441565b6104b0818561044b565b93506104bb8361045b565b805f5b838110156104eb5781516104d28882610479565b97506104dd83610490565b9250506001810190506104be565b5085935050505092915050565b5f6020820190508181035f830152610510818461049c565b905092915050565b5f5f6040838503121561052e5761052d6103df565b5b5f61053b85828601610402565b925050602061054c85828601610402565b9150509250929050565b61055f816103e3565b82525050565b5f6020820190506105785f830184610556565b92915050565b7f4e487b71000000000000000000000000000000000000000000000000000000005f52604160045260245ffd5b7f4e487b71000000000000000000000000000000000000000000000000000000005f52601160045260245ffd5b5f6105e2826103e3565b91506105ed836103e3565b9250828201905080821115610605576106046105ab565b5b92915050565b7f4e487b71000000000000000000000000000000000000000000000000000000005f52603260045260245ffd5b5f82825260208201905092915050565b7f537461727420696e646578206f7574206f6620626f756e6473000000000000005f82015250565b5f61067c601983610638565b915061068782610648565b602082019050919050565b5f6020820190508181035f8301526106a981610670565b9050919050565b5f6106ba826103e3565b91506106c5836103e3565b92508282039050818111156106dd576106dc6105ab565b5b9291505056fea2646970667358221220e9a8cc2cfd4c51479ff498cb8d19a2ed5bf1a5f1b482b4f3af888ce2befc848464736f6c63430008220033",
					"opcodes": "PUSH1 0x80 PUSH1 0x40 MSTORE CALLVALUE DUP1 ISZERO PUSH1 0xE JUMPI PUSH0 PUSH0 REVERT JUMPDEST POP PUSH2 0x719 DUP1 PUSH2 0x1C PUSH0 CODECOPY PUSH0 RETURN INVALID PUSH1 0x80 PUSH1 0x40 MSTORE CALLVALUE DUP1 ISZERO PUSH2 0xF JUMPI PUSH0 PUSH0 REVERT JUMPDEST POP PUSH1 0x4 CALLDATASIZE LT PUSH2 0x60 JUMPI PUSH0 CALLDATALOAD PUSH1 0xE0 SHR DUP1 PUSH4 0x2D25BF7C EQ PUSH2 0x64 JUMPI DUP1 PUSH4 0x4575CF5F EQ PUSH2 0x94 JUMPI DUP1 PUSH4 0x46D724D3 EQ PUSH2 0xC4 JUMPI DUP1 PUSH4 0x820D0934 EQ PUSH2 0xE2 JUMPI DUP1 PUSH4 0x9E258EFE EQ PUSH2 0xFE JUMPI DUP1 PUSH4 0xBE1C766B EQ PUSH2 0x12E JUMPI JUMPDEST PUSH0 PUSH0 REVERT JUMPDEST PUSH2 0x7E PUSH1 0x4 DUP1 CALLDATASIZE SUB DUP2 ADD SWAP1 PUSH2 0x79 SWAP2 SWAP1 PUSH2 0x416 JUMP JUMPDEST PUSH2 0x14C JUMP JUMPDEST PUSH1 0x40 MLOAD PUSH2 0x8B SWAP2 SWAP1 PUSH2 0x4F8 JUMP JUMPDEST PUSH1 0x40 MLOAD DUP1 SWAP2 SUB SWAP1 RETURN JUMPDEST PUSH2 0xAE PUSH1 0x4 DUP1 CALLDATASIZE SUB DUP2 ADD SWAP1 PUSH2 0xA9 SWAP2 SWAP1 PUSH2 0x518 JUMP JUMPDEST PUSH2 0x1EA JUMP JUMPDEST PUSH1 0x40 MLOAD PUSH2 0xBB SWAP2 SWAP1 PUSH2 0x4F8 JUMP JUMPDEST PUSH1 0x40 MLOAD DUP1 SWAP2 SUB SWAP1 RETURN JUMPDEST PUSH2 0xCC PUSH2 0x31D JUMP JUMPDEST PUSH1 0x40 MLOAD PUSH2 0xD9 SWAP2 SWAP1 PUSH2 0x4F8 JUMP JUMPDEST PUSH1 0x40 MLOAD DUP1 SWAP2 SUB SWAP1 RETURN JUMPDEST PUSH2 0xFC PUSH1 0x4 DUP1 CALLDATASIZE SUB DUP2 ADD SWAP1 PUSH2 0xF7 SWAP2 SWAP1 PUSH2 0x416 JUMP JUMPDEST PUSH2 0x372 JUMP JUMPDEST STOP JUMPDEST PUSH2 0x118 PUSH1 0x4 DUP1 CALLDATASIZE SUB DUP2 ADD SWAP1 PUSH2 0x113 SWAP2 SWAP1 PUSH2 0x416 JUMP JUMPDEST PUSH2 0x3B5 JUMP JUMPDEST PUSH1 0x40 MLOAD PUSH2 0x125 SWAP2 SWAP1 PUSH2 0x565 JUMP JUMPDEST PUSH1 0x40 MLOAD DUP1 SWAP2 SUB SWAP1 RETURN JUMPDEST PUSH2 0x136 PUSH2 0x3D4 JUMP JUMPDEST PUSH1 0x40 MLOAD PUSH2 0x143 SWAP2 SWAP1 PUSH2 0x565 JUMP JUMPDEST PUSH1 0x40 MLOAD DUP1 SWAP2 SUB SWAP1 RETURN JUMPDEST PUSH1 0x60 PUSH0 DUP3 PUSH8 0xFFFFFFFFFFFFFFFF DUP2 GT ISZERO PUSH2 0x169 JUMPI PUSH2 0x168 PUSH2 0x57E JUMP JUMPDEST JUMPDEST PUSH1 0x40 MLOAD SWAP1 DUP1 DUP3 MSTORE DUP1 PUSH1 0x20 MUL PUSH1 0x20 ADD DUP3 ADD PUSH1 0x40 MSTORE DUP1 ISZERO PUSH2 0x197 JUMPI DUP2 PUSH1 0x20 ADD PUSH1 0x20 DUP3 MUL DUP1 CALLDATASIZE DUP4 CALLDATACOPY DUP1 DUP3 ADD SWAP2 POP POP SWAP1 POP JUMPDEST POP SWAP1 POP PUSH0 PUSH0 SWAP1 POP JUMPDEST DUP4 DUP2 LT ISZERO PUSH2 0x1E0 JUMPI PUSH1 0x1 DUP2 PUSH2 0x1B4 SWAP2 SWAP1 PUSH2 0x5D8 JUMP JUMPDEST DUP3 DUP3 DUP2 MLOAD DUP2 LT PUSH2 0x1C7 JUMPI PUSH2 0x1C6 PUSH2 0x60B JUMP JUMPDEST JUMPDEST PUSH1 0x20 MUL PUSH1 0x20 ADD ADD DUP2 DUP2 MSTORE POP POP DUP1 DUP1 PUSH1 0x1 ADD SWAP2 POP POP PUSH2 0x19F JUMP JUMPDEST POP DUP1 SWAP2 POP POP SWAP2 SWAP1 POP JUMP JUMPDEST PUSH1 0x60 PUSH0 DUP1 SLOAD SWAP1 POP DUP4 LT PUSH2 0x232 JUMPI PUSH1 0x40 MLOAD PUSH32 0x8C379A000000000000000000000000000000000000000000000000000000000 DUP2 MSTORE PUSH1 0x4 ADD PUSH2 0x229 SWAP1 PUSH2 0x692 JUMP JUMPDEST PUSH1 0x40 MLOAD DUP1 SWAP2 SUB SWAP1 REVERT JUMPDEST PUSH0 DUP3 DUP5 PUSH2 0x23F SWAP2 SWAP1 PUSH2 0x5D8 JUMP JUMPDEST SWAP1 POP PUSH0 DUP1 SLOAD SWAP1 POP DUP2 GT ISZERO PUSH2 0x255 JUMPI PUSH0 DUP1 SLOAD SWAP1 POP SWAP1 POP JUMPDEST PUSH0 DUP5 DUP3 PUSH2 0x262 SWAP2 SWAP1 PUSH2 0x6B0 JUMP JUMPDEST SWAP1 POP PUSH0 DUP2 PUSH8 0xFFFFFFFFFFFFFFFF DUP2 GT ISZERO PUSH2 0x27F JUMPI PUSH2 0x27E PUSH2 0x57E JUMP JUMPDEST JUMPDEST PUSH1 0x40 MLOAD SWAP1 DUP1 DUP3 MSTORE DUP1 PUSH1 0x20 MUL PUSH1 0x20 ADD DUP3 ADD PUSH1 0x40 MSTORE DUP1 ISZERO PUSH2 0x2AD JUMPI DUP2 PUSH1 0x20 ADD PUSH1 0x20 DUP3 MUL DUP1 CALLDATASIZE DUP4 CALLDATACOPY DUP1 DUP3 ADD SWAP2 POP POP SWAP1 POP JUMPDEST POP SWAP1 POP PUSH0 PUSH0 SWAP1 POP JUMPDEST DUP3 DUP2 LT ISZERO PUSH2 0x310 JUMPI PUSH0 DUP2 DUP9 PUSH2 0x2CA SWAP2 SWAP1 PUSH2 0x5D8 JUMP JUMPDEST DUP2 SLOAD DUP2 LT PUSH2 0x2DB JUMPI PUSH2 0x2DA PUSH2 0x60B JUMP JUMPDEST JUMPDEST SWAP1 PUSH0 MSTORE PUSH1 0x20 PUSH0 KECCAK256 ADD SLOAD DUP3 DUP3 DUP2 MLOAD DUP2 LT PUSH2 0x2F7 JUMPI PUSH2 0x2F6 PUSH2 0x60B JUMP JUMPDEST JUMPDEST PUSH1 0x20 MUL PUSH1 0x20 ADD ADD DUP2 DUP2 MSTORE POP POP DUP1 DUP1 PUSH1 0x1 ADD SWAP2 POP POP PUSH2 0x2B5 JUMP JUMPDEST POP DUP1 SWAP4 POP POP POP POP SWAP3 SWAP2 POP POP JUMP JUMPDEST PUSH1 0x60 PUSH0 DUP1 SLOAD DUP1 PUSH1 0x20 MUL PUSH1 0x20 ADD PUSH1 0x40 MLOAD SWAP1 DUP2 ADD PUSH1 0x40 MSTORE DUP1 SWAP3 SWAP2 SWAP1 DUP2 DUP2 MSTORE PUSH1 0x20 ADD DUP3 DUP1 SLOAD DUP1 ISZERO PUSH2 0x368 JUMPI PUSH1 0x20 MUL DUP3 ADD SWAP2 SWAP1 PUSH0 MSTORE PUSH1 0x20 PUSH0 KECCAK256 SWAP1 JUMPDEST DUP2 SLOAD DUP2 MSTORE PUSH1 0x20 ADD SWAP1 PUSH1 0x1 ADD SWAP1 DUP1 DUP4 GT PUSH2 0x354 JUMPI JUMPDEST POP POP POP POP POP SWAP1 POP SWAP1 JUMP JUMPDEST PUSH0 PUSH0 SWAP1 POP JUMPDEST DUP2 DUP2 LT ISZERO PUSH2 0x3B1 JUMPI PUSH0 DUP2 SWAP1 DUP1 PUSH1 0x1 DUP2 SLOAD ADD DUP1 DUP3 SSTORE DUP1 SWAP2 POP POP PUSH1 0x1 SWAP1 SUB SWAP1 PUSH0 MSTORE PUSH1 0x20 PUSH0 KECCAK256 ADD PUSH0 SWAP1 SWAP2 SWAP1 SWAP2 SWAP1 SWAP2 POP SSTORE DUP1 DUP1 PUSH1 0x1 ADD SWAP2 POP POP PUSH2 0x377 JUMP JUMPDEST POP POP JUMP JUMPDEST PUSH0 DUP2 DUP2 SLOAD DUP2 LT PUSH2 0x3C3 JUMPI PUSH0 DUP1 REVERT JUMPDEST SWAP1 PUSH0 MSTORE PUSH1 0x20 PUSH0 KECCAK256 ADD PUSH0 SWAP2 POP SWAP1 POP SLOAD DUP2 JUMP JUMPDEST PUSH0 PUSH0 DUP1 SLOAD SWAP1 POP SWAP1 POP SWAP1 JUMP JUMPDEST PUSH0 PUSH0 REVERT JUMPDEST PUSH0 DUP2 SWAP1 POP SWAP2 SWAP1 POP JUMP JUMPDEST PUSH2 0x3F5 DUP2 PUSH2 0x3E3 JUMP JUMPDEST DUP2 EQ PUSH2 0x3FF JUMPI PUSH0 PUSH0 REVERT JUMPDEST POP JUMP JUMPDEST PUSH0 DUP2 CALLDATALOAD SWAP1 POP PUSH2 0x410 DUP2 PUSH2 0x3EC JUMP JUMPDEST SWAP3 SWAP2 POP POP JUMP JUMPDEST PUSH0 PUSH1 0x20 DUP3 DUP5 SUB SLT ISZERO PUSH2 0x42B JUMPI PUSH2 0x42A PUSH2 0x3DF JUMP JUMPDEST JUMPDEST PUSH0 PUSH2 0x438 DUP5 DUP3 DUP6 ADD PUSH2 0x402 JUMP JUMPDEST SWAP2 POP POP SWAP3 SWAP2 POP POP JUMP JUMPDEST PUSH0 DUP2 MLOAD SWAP1 POP SWAP2 SWAP1 POP JUMP JUMPDEST PUSH0 DUP3 DUP3 MSTORE PUSH1 0x20 DUP3 ADD SWAP1 POP SWAP3 SWAP2 POP POP JUMP JUMPDEST PUSH0 DUP2 SWAP1 POP PUSH1 0x20 DUP3 ADD SWAP1 POP SWAP2 SWAP1 POP JUMP JUMPDEST PUSH2 0x473 DUP2 PUSH2 0x3E3 JUMP JUMPDEST DUP3 MSTORE POP POP JUMP JUMPDEST PUSH0 PUSH2 0x484 DUP4 DUP4 PUSH2 0x46A JUMP JUMPDEST PUSH1 0x20 DUP4 ADD SWAP1 POP SWAP3 SWAP2 POP POP JUMP JUMPDEST PUSH0 PUSH1 0x20 DUP3 ADD SWAP1 POP SWAP2 SWAP1 POP JUMP JUMPDEST PUSH0 PUSH2 0x4A6 DUP3 PUSH2 0x441 JUMP JUMPDEST PUSH2 0x4B0 DUP2 DUP6 PUSH2 0x44B JUMP JUMPDEST SWAP4 POP PUSH2 0x4BB DUP4 PUSH2 0x45B JUMP JUMPDEST DUP1 PUSH0 JUMPDEST DUP4 DUP2 LT ISZERO PUSH2 0x4EB JUMPI DUP2 MLOAD PUSH2 0x4D2 DUP9 DUP3 PUSH2 0x479 JUMP JUMPDEST SWAP8 POP PUSH2 0x4DD DUP4 PUSH2 0x490 JUMP JUMPDEST SWAP3 POP POP PUSH1 0x1 DUP2 ADD SWAP1 POP PUSH2 0x4BE JUMP JUMPDEST POP DUP6 SWAP4 POP POP POP POP SWAP3 SWAP2 POP POP JUMP JUMPDEST PUSH0 PUSH1 0x20 DUP3 ADD SWAP1 POP DUP2 DUP2 SUB PUSH0 DUP4 ADD MSTORE PUSH2 0x510 DUP2 DUP5 PUSH2 0x49C JUMP JUMPDEST SWAP1 POP SWAP3 SWAP2 POP POP JUMP JUMPDEST PUSH0 PUSH0 PUSH1 0x40 DUP4 DUP6 SUB SLT ISZERO PUSH2 0x52E JUMPI PUSH2 0x52D PUSH2 0x3DF JUMP JUMPDEST JUMPDEST PUSH0 PUSH2 0x53B DUP6 DUP3 DUP7 ADD PUSH2 0x402 JUMP JUMPDEST SWAP3 POP POP PUSH1 0x20 PUSH2 0x54C DUP6 DUP3 DUP7 ADD PUSH2 0x402 JUMP JUMPDEST SWAP2 POP POP SWAP3 POP SWAP3 SWAP1 POP JUMP JUMPDEST PUSH2 0x55F DUP2 PUSH2 0x3E3 JUMP JUMPDEST DUP3 MSTORE POP POP JUMP JUMPDEST PUSH0 PUSH1 0x20 DUP3 ADD SWAP1 POP PUSH2 0x578 PUSH0 DUP4 ADD DUP5 PUSH2 0x556 JUMP JUMPDEST SWAP3 SWAP2 POP POP JUMP JUMPDEST PUSH32 0x4E487B7100000000000000000000000000000000000000000000000000000000 PUSH0 MSTORE PUSH1 0x41 PUSH1 0x4 MSTORE PUSH1 0x24 PUSH0 REVERT JUMPDEST PUSH32 0x4E487B7100000000000000000000000000000000000000000000000000000000 PUSH0 MSTORE PUSH1 0x11 PUSH1 0x4 MSTORE PUSH1 0x24 PUSH0 REVERT JUMPDEST PUSH0 PUSH2 0x5E2 DUP3 PUSH2 0x3E3 JUMP JUMPDEST SWAP2 POP PUSH2 0x5ED DUP4 PUSH2 0x3E3 JUMP JUMPDEST SWAP3 POP DUP3 DUP3 ADD SWAP1 POP DUP1 DUP3 GT ISZERO PUSH2 0x605 JUMPI PUSH2 0x604 PUSH2 0x5AB JUMP JUMPDEST JUMPDEST SWAP3 SWAP2 POP POP JUMP JUMPDEST PUSH32 0x4E487B7100000000000000000000000000000000000000000000000000000000 PUSH0 MSTORE PUSH1 0x32 PUSH1 0x4 MSTORE PUSH1 0x24 PUSH0 REVERT JUMPDEST PUSH0 DUP3 DUP3 MSTORE PUSH1 0x20 DUP3 ADD SWAP1 POP SWAP3 SWAP2 POP POP JUMP JUMPDEST PUSH32 0x537461727420696E646578206F7574206F6620626F756E647300000000000000 PUSH0 DUP3 ADD MSTORE POP JUMP JUMPDEST PUSH0 PUSH2 0x67C PUSH1 0x19 DUP4 PUSH2 0x638 JUMP JUMPDEST SWAP2 POP PUSH2 0x687 DUP3 PUSH2 0x648 JUMP JUMPDEST PUSH1 0x20 DUP3 ADD SWAP1 POP SWAP2 SWAP1 POP JUMP JUMPDEST PUSH0 PUSH1 0x20 DUP3 ADD SWAP1 POP DUP2 DUP2 SUB PUSH0 DUP4 ADD MSTORE PUSH2 0x6A9 DUP2 PUSH2 0x670 JUMP JUMPDEST SWAP1 POP SWAP2 SWAP1 POP JUMP JUMPDEST PUSH0 PUSH2 0x6BA DUP3 PUSH2 0x3E3 JUMP JUMPDEST SWAP2 POP PUSH2 0x6C5 DUP4 PUSH2 0x3E3 JUMP JUMPDEST SWAP3 POP DUP3 DUP3 SUB SWAP1 POP DUP2 DUP2 GT ISZERO PUSH2 0x6DD JUMPI PUSH2 0x6DC PUSH2 0x5AB JUMP JUMPDEST JUMPDEST SWAP3 SWAP2 POP POP JUMP INVALID LOG2 PUSH5 0x6970667358 0x22 SLT KECCAK256 0xE9 0xA8 0xCC 0x2C REVERT 0x4C MLOAD SELFBALANCE SWAP16 DELEGATECALL SWAP9 0xCB DUP14 NOT LOG2 0xED JUMPDEST CALL 0xA5 CALL 0xB4 DUP3 0xB4 RETURN 0xAF DUP9 DUP13 0xE2 0xBE 0xFC DUP5 DUP5 PUSH5 0x736F6C6343 STOP ADDMOD 0x22 STOP CALLER "
				},
				"gasEstimates": {
					"creation": {
						"codeDepositCost": "363400",
						"executionCost": "397",
						"totalCost": "363797"
					},
					"external": {
						"addValues(uint256)": "infinite",
						"copyStorageToMemory()": "infinite",
						"getLength()": "2527",
						"getPaginatedValues(uint256,uint256)": "infinite",
						"returnLargeArray(uint256)": "infinite",
						"storedValues(uint256)": "infinite"
					}
				},
				"methodIdentifiers": {
					"addValues(uint256)": "820d0934",
					"copyStorageToMemory()": "46d724d3",
					"getLength()": "be1c766b",
					"getPaginatedValues(uint256,uint256)": "4575cf5f",
					"returnLargeArray(uint256)": "2d25bf7c",
					"storedValues(uint256)": "9e258efe"
				}
			},
			"storageLayout": {
				"storage": [
					{
						"astId": 83,
						"contract": "val25.sol:LargeMemoryArray",
						"label": "storedValues",
						"offset": 0,
						"slot": "0",
						"type": "t_array(t_uint256)dyn_storage"
					}
				],
				"types": {
					"t_array(t_uint256)dyn_storage": {
						"base": "t_uint256",
						"encoding": "dynamic_array",
						"label": "uint256[]",
						"numberOfBytes": "32"
					},
					"t_uint256": {
						"encoding": "inplace",
						"label": "uint256",
						"numberOfBytes": "32"
					}
				}
			},
			"userdoc": {
				"kind": "user",
				"methods": {},
				"version": 1
			}
		}
	}
}