{
	"val52.sol": {
		"EthTransferMechanics": {
			"abi": [
				{
					"inputs": [
						{
							"internalType": "address",
							"name": "",
							"type": "address"
						}
					],
					"name": "balances",
					"outputs": [
						{
							"internalType": "uint256",
							"name": "",
							"type": "uint256"
						}
					],
					"stateMutability": "view",
					"type": "function"
				},
				{
					"inputs": [],
					"name": "contractBalance",
					"outputs": [
						{
							"internalType": "uint256",
							"name": "",
							"type": "uint256"
						}
					],
					"stateMutability": "view",
					"type": "function"
				},
				{
					"inputs": [],
					"name": "deposit",
					"outputs": [],
					"stateMutability": "payable",
					"type": "function"
				},
				{
					"inputs": [
						{
							"internalType": "uint256",
							"name": "_amount",
							"type": "uint256"
						}
					],
					"name": "vulnerableWithdraw",
					"outputs": [],
					"stateMutability": "nonpayable",
					"type": "function"
				},
				{
					"inputs": [
						{
							"internalType": "uint256",
							"name": "_amount",
							"type": "uint256"
						}
					],
					"name": "withdraw",
					"outputs": [],
					"stateMutability": "nonpayable",
					"type": "function"
				},
				{
					"stateMutability": "payable",
					"type": "receive"
				}
			],
			"devdoc": {
				"kind": "dev",
				"methods": {},
				"version": 1
			},
			"evm": {
				"assembly": "    /* \"val52.sol\":13503:16192  contract EthTransferMechanics {... */\n  mstore(0x40, 0x80)\n  callvalue\n  dup1\n  iszero\n  tag_1\n  jumpi\n  revert(0x00, 0x00)\ntag_1:\n  pop\n  dataSize(sub_0)\n  dup1\n  dataOffset(sub_0)\n  0x00\n  codecopy\n  0x00\n  return\nstop\n\nsub_0: assembly {\n        /* \"val52.sol\":13503:16192  contract EthTransferMechanics {... */\n      mstore(0x40, 0x80)\n      jumpi(tag_1, lt(calldatasize, 0x04))\n      shr(0xe0, calldataload(0x00))\n      dup1\n      0x27e235e3\n      eq\n      tag_3\n      jumpi\n      dup1\n      0x2e1a7d4d\n      eq\n      tag_4\n      jumpi\n      dup1\n      0x8b7afe2e\n      eq\n      tag_5\n      jumpi\n      dup1\n      0xcc817673\n      eq\n      tag_6\n      jumpi\n      dup1\n      0xd0e30db0\n      eq\n      tag_7\n      jumpi\n      jump(tag_2)\n    tag_1:\n      jumpi(tag_2, calldatasize)\n      stop\n    tag_2:\n      revert(0x00, 0x00)\n        /* \"val52.sol\":13581:13624  mapping(address => uint256) public balances */\n    tag_3:\n      callvalue\n      dup1\n      iszero\n      tag_10\n      jumpi\n      revert(0x00, 0x00)\n    tag_10:\n      pop\n      tag_11\n      0x04\n      dup1\n      calldatasize\n      sub\n      dup2\n      add\n      swap1\n      tag_12\n      swap2\n      swap1\n      tag_13\n      jump\t// in\n    tag_12:\n      tag_14\n      jump\t// in\n    tag_11:\n      mload(0x40)\n      tag_15\n      swap2\n      swap1\n      tag_16\n      jump\t// in\n    tag_15:\n      mload(0x40)\n      dup1\n      swap2\n      sub\n      swap1\n      return\n        /* \"val52.sol\":14597:15307  function withdraw(... */\n    tag_4:\n      callvalue\n      dup1\n      iszero\n      tag_17\n      jumpi\n      revert(0x00, 0x00)\n    tag_17:\n      pop\n      tag_18\n      0x04\n      dup1\n      calldatasize\n      sub\n      dup2\n      add\n      swap1\n      tag_19\n      swap2\n      swap1\n      tag_20\n      jump\t// in\n    tag_19:\n      tag_21\n      jump\t// in\n    tag_18:\n      stop\n        /* \"val52.sol\":15863:16130  function contractBalance()... */\n    tag_5:\n      callvalue\n      dup1\n      iszero\n      tag_22\n      jumpi\n      revert(0x00, 0x00)\n    tag_22:\n      pop\n      tag_23\n      tag_24\n      jump\t// in\n    tag_23:\n      mload(0x40)\n      tag_25\n      swap2\n      swap1\n      tag_16\n      jump\t// in\n    tag_25:\n      mload(0x40)\n      dup1\n      swap2\n      sub\n      swap1\n      return\n        /* \"val52.sol\":15341:15687  function vulnerableWithdraw(uint256 _amount) external ... */\n    tag_6:\n      callvalue\n      dup1\n      iszero\n      tag_26\n      jumpi\n      revert(0x00, 0x00)\n    tag_26:\n      pop\n      tag_27\n      0x04\n      dup1\n      calldatasize\n      sub\n      dup2\n      add\n      swap1\n      tag_28\n      swap2\n      swap1\n      tag_20\n      jump\t// in\n    tag_28:\n      tag_29\n      jump\t// in\n    tag_27:\n      stop\n        /* \"val52.sol\":14069:14422  function deposit()... */\n    tag_7:\n      tag_30\n      tag_31\n      jump\t// in\n    tag_30:\n      stop\n        /* \"val52.sol\":13581:13624  mapping(address => uint256) public balances */\n    tag_14:\n      mstore(0x20, 0x00)\n      dup1\n      0x00\n      mstore\n      keccak256(0x00, 0x40)\n      0x00\n      swap2\n      pop\n      swap1\n      pop\n      sload\n      dup2\n      jump\t// out\n        /* \"val52.sol\":14597:15307  function withdraw(... */\n    tag_21:\n        /* \"val52.sol\":13763:13769  locked */\n      0x01\n      0x00\n      swap1\n      sload\n      swap1\n      0x0100\n      exp\n      swap1\n      div\n      0xff\n      and\n        /* \"val52.sol\":13762:13769  !locked */\n      iszero\n        /* \"val52.sol\":13754:13796  require(!locked, \"Reentrant call blocked\") */\n      tag_33\n      jumpi\n      mload(0x40)\n      0x08c379a000000000000000000000000000000000000000000000000000000000\n      dup2\n      mstore\n      0x04\n      add\n      tag_34\n      swap1\n      tag_35\n      jump\t// in\n    tag_34:\n      mload(0x40)\n      dup1\n      swap2\n      sub\n      swap1\n      revert\n    tag_33:\n        /* \"val52.sol\":13818:13822  true */\n      0x01\n        /* \"val52.sol\":13809:13815  locked */\n      dup1\n      0x00\n        /* \"val52.sol\":13809:13822  locked = true */\n      0x0100\n      exp\n      dup2\n      sload\n      dup2\n      0xff\n      mul\n      not\n      and\n      swap1\n      dup4\n      iszero\n      iszero\n      mul\n      or\n      swap1\n      sstore\n      pop\n        /* \"val52.sol\":14824:14831  _amount */\n      dup1\n        /* \"val52.sol\":14800:14808  balances */\n      0x00\n        /* \"val52.sol\":14800:14820  balances[msg.sender] */\n      0x00\n        /* \"val52.sol\":14809:14819  msg.sender */\n      caller\n        /* \"val52.sol\":14800:14820  balances[msg.sender] */\n      0xffffffffffffffffffffffffffffffffffffffff\n      and\n      0xffffffffffffffffffffffffffffffffffffffff\n      and\n      dup2\n      mstore\n      0x20\n      add\n      swap1\n      dup2\n      mstore\n      0x20\n      add\n      0x00\n      keccak256\n      sload\n        /* \"val52.sol\":14800:14831  balances[msg.sender] >= _amount */\n      lt\n      iszero\n        /* \"val52.sol\":14778:14879  require(... */\n      tag_37\n      jumpi\n      mload(0x40)\n      0x08c379a000000000000000000000000000000000000000000000000000000000\n      dup2\n      mstore\n      0x04\n      add\n      tag_38\n      swap1\n      tag_39\n      jump\t// in\n    tag_38:\n      mload(0x40)\n      dup1\n      swap2\n      sub\n      swap1\n      revert\n    tag_37:\n        /* \"val52.sol\":15082:15089  _amount */\n      dup1\n        /* \"val52.sol\":15058:15066  balances */\n      0x00\n        /* \"val52.sol\":15058:15078  balances[msg.sender] */\n      0x00\n        /* \"val52.sol\":15067:15077  msg.sender */\n      caller\n        /* \"val52.sol\":15058:15078  balances[msg.sender] */\n      0xffffffffffffffffffffffffffffffffffffffff\n      and\n      0xffffffffffffffffffffffffffffffffffffffff\n      and\n      dup2\n      mstore\n      0x20\n      add\n      swap1\n      dup2\n      mstore\n      0x20\n      add\n      0x00\n      keccak256\n      0x00\n        /* \"val52.sol\":15058:15089  balances[msg.sender] -= _amount */\n      dup3\n      dup3\n      sload\n      tag_40\n      swap2\n      swap1\n      tag_41\n      jump\t// in\n    tag_40:\n      swap3\n      pop\n      pop\n      dup2\n      swap1\n      sstore\n      pop\n        /* \"val52.sol\":15154:15166  bool success */\n      0x00\n        /* \"val52.sol\":15180:15190  msg.sender */\n      caller\n        /* \"val52.sol\":15172:15196  payable(msg.sender).call */\n      0xffffffffffffffffffffffffffffffffffffffff\n      and\n        /* \"val52.sol\":15228:15235  _amount */\n      dup3\n        /* \"val52.sol\":15172:15251  payable(msg.sender).call... */\n      mload(0x40)\n      tag_42\n      swap1\n      tag_43\n      jump\t// in\n    tag_42:\n      0x00\n      mload(0x40)\n      dup1\n      dup4\n      sub\n      dup2\n      dup6\n      dup8\n      gas\n      call\n      swap3\n      pop\n      pop\n      pop\n      returndatasize\n      dup1\n      0x00\n      dup2\n      eq\n      tag_46\n      jumpi\n      mload(0x40)\n      swap2\n      pop\n      and(add(returndatasize, 0x3f), not(0x1f))\n      dup3\n      add\n      0x40\n      mstore\n      returndatasize\n      dup3\n      mstore\n      returndatasize\n      0x00\n      0x20\n      dup5\n      add\n      returndatacopy\n      jump(tag_45)\n    tag_46:\n      0x60\n      swap2\n      pop\n    tag_45:\n      pop\n        /* \"val52.sol\":15153:15251  (bool success, ) = payable(msg.sender).call... */\n      pop\n      swap1\n      pop\n        /* \"val52.sol\":15272:15279  success */\n      dup1\n        /* \"val52.sol\":15264:15299  require(success, \"transfer failed\") */\n      tag_47\n      jumpi\n      mload(0x40)\n      0x08c379a000000000000000000000000000000000000000000000000000000000\n      dup2\n      mstore\n      0x04\n      add\n      tag_48\n      swap1\n      tag_49\n      jump\t// in\n    tag_48:\n      mload(0x40)\n      dup1\n      swap2\n      sub\n      swap1\n      revert\n    tag_47:\n        /* \"val52.sol\":14684:15307  {... */\n      pop\n        /* \"val52.sol\":13848:13853  false */\n      0x00\n        /* \"val52.sol\":13839:13845  locked */\n      0x01\n      0x00\n        /* \"val52.sol\":13839:13853  locked = false */\n      0x0100\n      exp\n      dup2\n      sload\n      dup2\n      0xff\n      mul\n      not\n      and\n      swap1\n      dup4\n      iszero\n      iszero\n      mul\n      or\n      swap1\n      sstore\n      pop\n        /* \"val52.sol\":14597:15307  function withdraw(... */\n      pop\n      jump\t// out\n        /* \"val52.sol\":15863:16130  function contractBalance()... */\n    tag_24:\n        /* \"val52.sol\":15940:15947  uint256 */\n      0x00\n        /* \"val52.sol\":16101:16122  address(this).balance */\n      selfbalance\n        /* \"val52.sol\":16094:16122  return address(this).balance */\n      swap1\n      pop\n        /* \"val52.sol\":15863:16130  function contractBalance()... */\n      swap1\n      jump\t// out\n        /* \"val52.sol\":15341:15687  function vulnerableWithdraw(uint256 _amount) external ... */\n    tag_29:\n        /* \"val52.sol\":15444:15451  _amount */\n      dup1\n        /* \"val52.sol\":15420:15428  balances */\n      0x00\n        /* \"val52.sol\":15420:15440  balances[msg.sender] */\n      0x00\n        /* \"val52.sol\":15429:15439  msg.sender */\n      caller\n        /* \"val52.sol\":15420:15440  balances[msg.sender] */\n      0xffffffffffffffffffffffffffffffffffffffff\n      and\n      0xffffffffffffffffffffffffffffffffffffffff\n      and\n      dup2\n      mstore\n      0x20\n      add\n      swap1\n      dup2\n      mstore\n      0x20\n      add\n      0x00\n      keccak256\n      sload\n        /* \"val52.sol\":15420:15451  balances[msg.sender] >= _amount */\n      lt\n      iszero\n        /* \"val52.sol\":15412:15476  require(balances[msg.sender] >= _amount, \"Insufficient balance\") */\n      tag_52\n      jumpi\n      mload(0x40)\n      0x08c379a000000000000000000000000000000000000000000000000000000000\n      dup2\n      mstore\n      0x04\n      add\n      tag_53\n      swap1\n      tag_39\n      jump\t// in\n    tag_53:\n      mload(0x40)\n      dup1\n      swap2\n      sub\n      swap1\n      revert\n    tag_52:\n        /* \"val52.sol\":15490:15502  bool success */\n      0x00\n        /* \"val52.sol\":15516:15526  msg.sender */\n      caller\n        /* \"val52.sol\":15508:15532  payable(msg.sender).call */\n      0xffffffffffffffffffffffffffffffffffffffff\n      and\n        /* \"val52.sol\":15565:15572  _amount */\n      dup3\n        /* \"val52.sol\":15508:15587  payable(msg.sender).call ... */\n      mload(0x40)\n      tag_54\n      swap1\n      tag_43\n      jump\t// in\n    tag_54:\n      0x00\n      mload(0x40)\n      dup1\n      dup4\n      sub\n      dup2\n      dup6\n      dup8\n      gas\n      call\n      swap3\n      pop\n      pop\n      pop\n      returndatasize\n      dup1\n      0x00\n      dup2\n      eq\n      tag_57\n      jumpi\n      mload(0x40)\n      swap2\n      pop\n      and(add(returndatasize, 0x3f), not(0x1f))\n      dup3\n      add\n      0x40\n      mstore\n      returndatasize\n      dup3\n      mstore\n      returndatasize\n      0x00\n      0x20\n      dup5\n      add\n      returndatacopy\n      jump(tag_56)\n    tag_57:\n      0x60\n      swap2\n      pop\n    tag_56:\n      pop\n        /* \"val52.sol\":15489:15587  (bool success, ) = payable(msg.sender).call ... */\n      pop\n      swap1\n      pop\n        /* \"val52.sol\":15608:15615  success */\n      dup1\n        /* \"val52.sol\":15600:15635  require(success, \"Transfer failed\") */\n      tag_58\n      jumpi\n      mload(0x40)\n      0x08c379a000000000000000000000000000000000000000000000000000000000\n      dup2\n      mstore\n      0x04\n      add\n      tag_59\n      swap1\n      tag_60\n      jump\t// in\n    tag_59:\n      mload(0x40)\n      dup1\n      swap2\n      sub\n      swap1\n      revert\n    tag_58:\n        /* \"val52.sol\":15672:15679  _amount */\n      dup2\n        /* \"val52.sol\":15648:15656  balances */\n      0x00\n        /* \"val52.sol\":15648:15668  balances[msg.sender] */\n      0x00\n        /* \"val52.sol\":15657:15667  msg.sender */\n      caller\n        /* \"val52.sol\":15648:15668  balances[msg.sender] */\n      0xffffffffffffffffffffffffffffffffffffffff\n      and\n      0xffffffffffffffffffffffffffffffffffffffff\n      and\n      dup2\n      mstore\n      0x20\n      add\n      swap1\n      dup2\n      mstore\n      0x20\n      add\n      0x00\n      keccak256\n      0x00\n        /* \"val52.sol\":15648:15679  balances[msg.sender] -= _amount */\n      dup3\n      dup3\n      sload\n      tag_61\n      swap2\n      swap1\n      tag_41\n      jump\t// in\n    tag_61:\n      swap3\n      pop\n      pop\n      dup2\n      swap1\n      sstore\n      pop\n        /* \"val52.sol\":15401:15687  {... */\n      pop\n        /* \"val52.sol\":15341:15687  function vulnerableWithdraw(uint256 _amount) external ... */\n      pop\n      jump\t// out\n        /* \"val52.sol\":14069:14422  function deposit()... */\n    tag_31:\n        /* \"val52.sol\":14263:14264  0 */\n      0x00\n        /* \"val52.sol\":14251:14260  msg.value */\n      callvalue\n        /* \"val52.sol\":14251:14264  msg.value > 0 */\n      gt\n        /* \"val52.sol\":14229:14303  require(... */\n      tag_63\n      jumpi\n      mload(0x40)\n      0x08c379a000000000000000000000000000000000000000000000000000000000\n      dup2\n      mstore\n      0x04\n      add\n      tag_64\n      swap1\n      tag_65\n      jump\t// in\n    tag_64:\n      mload(0x40)\n      dup1\n      swap2\n      sub\n      swap1\n      revert\n    tag_63:\n        /* \"val52.sol\":14405:14414  msg.value */\n      callvalue\n        /* \"val52.sol\":14381:14389  balances */\n      0x00\n        /* \"val52.sol\":14381:14401  balances[msg.sender] */\n      0x00\n        /* \"val52.sol\":14390:14400  msg.sender */\n      caller\n        /* \"val52.sol\":14381:14401  balances[msg.sender] */\n      0xffffffffffffffffffffffffffffffffffffffff\n      and\n      0xffffffffffffffffffffffffffffffffffffffff\n      and\n      dup2\n      mstore\n      0x20\n      add\n      swap1\n      dup2\n      mstore\n      0x20\n      add\n      0x00\n      keccak256\n      0x00\n        /* \"val52.sol\":14381:14414  balances[msg.sender] += msg.value */\n      dup3\n      dup3\n      sload\n      tag_66\n      swap2\n      swap1\n      tag_67\n      jump\t// in\n    tag_66:\n      swap3\n      pop\n      pop\n      dup2\n      swap1\n      sstore\n      pop\n        /* \"val52.sol\":14069:14422  function deposit()... */\n      jump\t// out\n        /* \"#utility.yul\":88:205   */\n    tag_69:\n        /* \"#utility.yul\":197:198   */\n      0x00\n        /* \"#utility.yul\":194:195   */\n      0x00\n        /* \"#utility.yul\":187:199   */\n      revert\n        /* \"#utility.yul\":334:460   */\n    tag_71:\n        /* \"#utility.yul\":371:378   */\n      0x00\n        /* \"#utility.yul\":411:453   */\n      0xffffffffffffffffffffffffffffffffffffffff\n        /* \"#utility.yul\":404:409   */\n      dup3\n        /* \"#utility.yul\":400:454   */\n      and\n        /* \"#utility.yul\":389:454   */\n      swap1\n      pop\n        /* \"#utility.yul\":334:460   */\n      swap2\n      swap1\n      pop\n      jump\t// out\n        /* \"#utility.yul\":466:562   */\n    tag_72:\n        /* \"#utility.yul\":503:510   */\n      0x00\n        /* \"#utility.yul\":532:556   */\n      tag_100\n        /* \"#utility.yul\":550:555   */\n      dup3\n        /* \"#utility.yul\":532:556   */\n      tag_71\n      jump\t// in\n    tag_100:\n        /* \"#utility.yul\":521:556   */\n      swap1\n      pop\n        /* \"#utility.yul\":466:562   */\n      swap2\n      swap1\n      pop\n      jump\t// out\n        /* \"#utility.yul\":568:690   */\n    tag_73:\n        /* \"#utility.yul\":641:665   */\n      tag_102\n        /* \"#utility.yul\":659:664   */\n      dup2\n        /* \"#utility.yul\":641:665   */\n      tag_72\n      jump\t// in\n    tag_102:\n        /* \"#utility.yul\":634:639   */\n      dup2\n        /* \"#utility.yul\":631:666   */\n      eq\n        /* \"#utility.yul\":621:684   */\n      tag_103\n      jumpi\n        /* \"#utility.yul\":680:681   */\n      0x00\n        /* \"#utility.yul\":677:678   */\n      0x00\n        /* \"#utility.yul\":670:682   */\n      revert\n        /* \"#utility.yul\":621:684   */\n    tag_103:\n        /* \"#utility.yul\":568:690   */\n      pop\n      jump\t// out\n        /* \"#utility.yul\":696:835   */\n    tag_74:\n        /* \"#utility.yul\":742:747   */\n      0x00\n        /* \"#utility.yul\":780:786   */\n      dup2\n        /* \"#utility.yul\":767:787   */\n      calldataload\n        /* \"#utility.yul\":758:787   */\n      swap1\n      pop\n        /* \"#utility.yul\":796:829   */\n      tag_105\n        /* \"#utility.yul\":823:828   */\n      dup2\n        /* \"#utility.yul\":796:829   */\n      tag_73\n      jump\t// in\n    tag_105:\n        /* \"#utility.yul\":696:835   */\n      swap3\n      swap2\n      pop\n      pop\n      jump\t// out\n        /* \"#utility.yul\":841:1170   */\n    tag_13:\n        /* \"#utility.yul\":900:906   */\n      0x00\n        /* \"#utility.yul\":949:951   */\n      0x20\n        /* \"#utility.yul\":937:946   */\n      dup3\n        /* \"#utility.yul\":928:935   */\n      dup5\n        /* \"#utility.yul\":924:947   */\n      sub\n        /* \"#utility.yul\":920:952   */\n      slt\n        /* \"#utility.yul\":917:1036   */\n      iszero\n      tag_107\n      jumpi\n        /* \"#utility.yul\":955:1034   */\n      tag_108\n      tag_69\n      jump\t// in\n    tag_108:\n        /* \"#utility.yul\":917:1036   */\n    tag_107:\n        /* \"#utility.yul\":1075:1076   */\n      0x00\n        /* \"#utility.yul\":1100:1153   */\n      tag_109\n        /* \"#utility.yul\":1145:1152   */\n      dup5\n        /* \"#utility.yul\":1136:1142   */\n      dup3\n        /* \"#utility.yul\":1125:1134   */\n      dup6\n        /* \"#utility.yul\":1121:1143   */\n      add\n        /* \"#utility.yul\":1100:1153   */\n      tag_74\n      jump\t// in\n    tag_109:\n        /* \"#utility.yul\":1090:1153   */\n      swap2\n      pop\n        /* \"#utility.yul\":1046:1163   */\n      pop\n        /* \"#utility.yul\":841:1170   */\n      swap3\n      swap2\n      pop\n      pop\n      jump\t// out\n        /* \"#utility.yul\":1176:1253   */\n    tag_75:\n        /* \"#utility.yul\":1213:1220   */\n      0x00\n        /* \"#utility.yul\":1242:1247   */\n      dup2\n        /* \"#utility.yul\":1231:1247   */\n      swap1\n      pop\n        /* \"#utility.yul\":1176:1253   */\n      swap2\n      swap1\n      pop\n      jump\t// out\n        /* \"#utility.yul\":1259:1377   */\n    tag_76:\n        /* \"#utility.yul\":1346:1370   */\n      tag_112\n        /* \"#utility.yul\":1364:1369   */\n      dup2\n        /* \"#utility.yul\":1346:1370   */\n      tag_75\n      jump\t// in\n    tag_112:\n        /* \"#utility.yul\":1341:1344   */\n      dup3\n        /* \"#utility.yul\":1334:1371   */\n      mstore\n        /* \"#utility.yul\":1259:1377   */\n      pop\n      pop\n      jump\t// out\n        /* \"#utility.yul\":1383:1605   */\n    tag_16:\n        /* \"#utility.yul\":1476:1480   */\n      0x00\n        /* \"#utility.yul\":1514:1516   */\n      0x20\n        /* \"#utility.yul\":1503:1512   */\n      dup3\n        /* \"#utility.yul\":1499:1517   */\n      add\n        /* \"#utility.yul\":1491:1517   */\n      swap1\n      pop\n        /* \"#utility.yul\":1527:1598   */\n      tag_114\n        /* \"#utility.yul\":1595:1596   */\n      0x00\n        /* \"#utility.yul\":1584:1593   */\n      dup4\n        /* \"#utility.yul\":1580:1597   */\n      add\n        /* \"#utility.yul\":1571:1577   */\n      dup5\n        /* \"#utility.yul\":1527:1598   */\n      tag_76\n      jump\t// in\n    tag_114:\n        /* \"#utility.yul\":1383:1605   */\n      swap3\n      swap2\n      pop\n      pop\n      jump\t// out\n        /* \"#utility.yul\":1611:1733   */\n    tag_77:\n        /* \"#utility.yul\":1684:1708   */\n      tag_116\n        /* \"#utility.yul\":1702:1707   */\n      dup2\n        /* \"#utility.yul\":1684:1708   */\n      tag_75\n      jump\t// in\n    tag_116:\n        /* \"#utility.yul\":1677:1682   */\n      dup2\n        /* \"#utility.yul\":1674:1709   */\n      eq\n        /* \"#utility.yul\":1664:1727   */\n      tag_117\n      jumpi\n        /* \"#utility.yul\":1723:1724   */\n      0x00\n        /* \"#utility.yul\":1720:1721   */\n      0x00\n        /* \"#utility.yul\":1713:1725   */\n      revert\n        /* \"#utility.yul\":1664:1727   */\n    tag_117:\n        /* \"#utility.yul\":1611:1733   */\n      pop\n      jump\t// out\n        /* \"#utility.yul\":1739:1878   */\n    tag_78:\n        /* \"#utility.yul\":1785:1790   */\n      0x00\n        /* \"#utility.yul\":1823:1829   */\n      dup2\n        /* \"#utility.yul\":1810:1830   */\n      calldataload\n        /* \"#utility.yul\":1801:1830   */\n      swap1\n      pop\n        /* \"#utility.yul\":1839:1872   */\n      tag_119\n        /* \"#utility.yul\":1866:1871   */\n      dup2\n        /* \"#utility.yul\":1839:1872   */\n      tag_77\n      jump\t// in\n    tag_119:\n        /* \"#utility.yul\":1739:1878   */\n      swap3\n      swap2\n      pop\n      pop\n      jump\t// out\n        /* \"#utility.yul\":1884:2213   */\n    tag_20:\n        /* \"#utility.yul\":1943:1949   */\n      0x00\n        /* \"#utility.yul\":1992:1994   */\n      0x20\n        /* \"#utility.yul\":1980:1989   */\n      dup3\n        /* \"#utility.yul\":1971:1978   */\n      dup5\n        /* \"#utility.yul\":1967:1990   */\n      sub\n        /* \"#utility.yul\":1963:1995   */\n      slt\n        /* \"#utility.yul\":1960:2079   */\n      iszero\n      tag_121\n      jumpi\n        /* \"#utility.yul\":1998:2077   */\n      tag_122\n      tag_69\n      jump\t// in\n    tag_122:\n        /* \"#utility.yul\":1960:2079   */\n    tag_121:\n        /* \"#utility.yul\":2118:2119   */\n      0x00\n        /* \"#utility.yul\":2143:2196   */\n      tag_123\n        /* \"#utility.yul\":2188:2195   */\n      dup5\n        /* \"#utility.yul\":2179:2185   */\n      dup3\n        /* \"#utility.yul\":2168:2177   */\n      dup6\n        /* \"#utility.yul\":2164:2186   */\n      add\n        /* \"#utility.yul\":2143:2196   */\n      tag_78\n      jump\t// in\n    tag_123:\n        /* \"#utility.yul\":2133:2196   */\n      swap2\n      pop\n        /* \"#utility.yul\":2089:2206   */\n      pop\n        /* \"#utility.yul\":1884:2213   */\n      swap3\n      swap2\n      pop\n      pop\n      jump\t// out\n        /* \"#utility.yul\":2219:2388   */\n    tag_79:\n        /* \"#utility.yul\":2303:2314   */\n      0x00\n        /* \"#utility.yul\":2337:2343   */\n      dup3\n        /* \"#utility.yul\":2332:2335   */\n      dup3\n        /* \"#utility.yul\":2325:2344   */\n      mstore\n        /* \"#utility.yul\":2377:2381   */\n      0x20\n        /* \"#utility.yul\":2372:2375   */\n      dup3\n        /* \"#utility.yul\":2368:2382   */\n      add\n        /* \"#utility.yul\":2353:2382   */\n      swap1\n      pop\n        /* \"#utility.yul\":2219:2388   */\n      swap3\n      swap2\n      pop\n      pop\n      jump\t// out\n        /* \"#utility.yul\":2394:2566   */\n    tag_80:\n        /* \"#utility.yul\":2534:2558   */\n      0x5265656e7472616e742063616c6c20626c6f636b656400000000000000000000\n        /* \"#utility.yul\":2530:2531   */\n      0x00\n        /* \"#utility.yul\":2522:2528   */\n      dup3\n        /* \"#utility.yul\":2518:2532   */\n      add\n        /* \"#utility.yul\":2511:2559   */\n      mstore\n        /* \"#utility.yul\":2394:2566   */\n      pop\n      jump\t// out\n        /* \"#utility.yul\":2572:2938   */\n    tag_81:\n        /* \"#utility.yul\":2714:2717   */\n      0x00\n        /* \"#utility.yul\":2735:2802   */\n      tag_127\n        /* \"#utility.yul\":2799:2801   */\n      0x16\n        /* \"#utility.yul\":2794:2797   */\n      dup4\n        /* \"#utility.yul\":2735:2802   */\n      tag_79\n      jump\t// in\n    tag_127:\n        /* \"#utility.yul\":2728:2802   */\n      swap2\n      pop\n        /* \"#utility.yul\":2811:2904   */\n      tag_128\n        /* \"#utility.yul\":2900:2903   */\n      dup3\n        /* \"#utility.yul\":2811:2904   */\n      tag_80\n      jump\t// in\n    tag_128:\n        /* \"#utility.yul\":2929:2931   */\n      0x20\n        /* \"#utility.yul\":2924:2927   */\n      dup3\n        /* \"#utility.yul\":2920:2932   */\n      add\n        /* \"#utility.yul\":2913:2932   */\n      swap1\n      pop\n        /* \"#utility.yul\":2572:2938   */\n      swap2\n      swap1\n      pop\n      jump\t// out\n        /* \"#utility.yul\":2944:3363   */\n    tag_35:\n        /* \"#utility.yul\":3110:3114   */\n      0x00\n        /* \"#utility.yul\":3148:3150   */\n      0x20\n        /* \"#utility.yul\":3137:3146   */\n      dup3\n        /* \"#utility.yul\":3133:3151   */\n      add\n        /* \"#utility.yul\":3125:3151   */\n      swap1\n      pop\n        /* \"#utility.yul\":3197:3206   */\n      dup2\n        /* \"#utility.yul\":3191:3195   */\n      dup2\n        /* \"#utility.yul\":3187:3207   */\n      sub\n        /* \"#utility.yul\":3183:3184   */\n      0x00\n        /* \"#utility.yul\":3172:3181   */\n      dup4\n        /* \"#utility.yul\":3168:3185   */\n      add\n        /* \"#utility.yul\":3161:3208   */\n      mstore\n        /* \"#utility.yul\":3225:3356   */\n      tag_130\n        /* \"#utility.yul\":3351:3355   */\n      dup2\n        /* \"#utility.yul\":3225:3356   */\n      tag_81\n      jump\t// in\n    tag_130:\n        /* \"#utility.yul\":3217:3356   */\n      swap1\n      pop\n        /* \"#utility.yul\":2944:3363   */\n      swap2\n      swap1\n      pop\n      jump\t// out\n        /* \"#utility.yul\":3369:3539   */\n    tag_82:\n        /* \"#utility.yul\":3509:3531   */\n      0x496e73756666696369656e742062616c616e6365000000000000000000000000\n        /* \"#utility.yul\":3505:3506   */\n      0x00\n        /* \"#utility.yul\":3497:3503   */\n      dup3\n        /* \"#utility.yul\":3493:3507   */\n      add\n        /* \"#utility.yul\":3486:3532   */\n      mstore\n        /* \"#utility.yul\":3369:3539   */\n      pop\n      jump\t// out\n        /* \"#utility.yul\":3545:3911   */\n    tag_83:\n        /* \"#utility.yul\":3687:3690   */\n      0x00\n        /* \"#utility.yul\":3708:3775   */\n      tag_133\n        /* \"#utility.yul\":3772:3774   */\n      0x14\n        /* \"#utility.yul\":3767:3770   */\n      dup4\n        /* \"#utility.yul\":3708:3775   */\n      tag_79\n      jump\t// in\n    tag_133:\n        /* \"#utility.yul\":3701:3775   */\n      swap2\n      pop\n        /* \"#utility.yul\":3784:3877   */\n      tag_134\n        /* \"#utility.yul\":3873:3876   */\n      dup3\n        /* \"#utility.yul\":3784:3877   */\n      tag_82\n      jump\t// in\n    tag_134:\n        /* \"#utility.yul\":3902:3904   */\n      0x20\n        /* \"#utility.yul\":3897:3900   */\n      dup3\n        /* \"#utility.yul\":3893:3905   */\n      add\n        /* \"#utility.yul\":3886:3905   */\n      swap1\n      pop\n        /* \"#utility.yul\":3545:3911   */\n      swap2\n      swap1\n      pop\n      jump\t// out\n        /* \"#utility.yul\":3917:4336   */\n    tag_39:\n        /* \"#utility.yul\":4083:4087   */\n      0x00\n        /* \"#utility.yul\":4121:4123   */\n      0x20\n        /* \"#utility.yul\":4110:4119   */\n      dup3\n        /* \"#utility.yul\":4106:4124   */\n      add\n        /* \"#utility.yul\":4098:4124   */\n      swap1\n      pop\n        /* \"#utility.yul\":4170:4179   */\n      dup2\n        /* \"#utility.yul\":4164:4168   */\n      dup2\n        /* \"#utility.yul\":4160:4180   */\n      sub\n        /* \"#utility.yul\":4156:4157   */\n      0x00\n        /* \"#utility.yul\":4145:4154   */\n      dup4\n        /* \"#utility.yul\":4141:4158   */\n      add\n        /* \"#utility.yul\":4134:4181   */\n      mstore\n        /* \"#utility.yul\":4198:4329   */\n      tag_136\n        /* \"#utility.yul\":4324:4328   */\n      dup2\n        /* \"#utility.yul\":4198:4329   */\n      tag_83\n      jump\t// in\n    tag_136:\n        /* \"#utility.yul\":4190:4329   */\n      swap1\n      pop\n        /* \"#utility.yul\":3917:4336   */\n      swap2\n      swap1\n      pop\n      jump\t// out\n        /* \"#utility.yul\":4342:4522   */\n    tag_84:\n        /* \"#utility.yul\":4390:4467   */\n      0x4e487b7100000000000000000000000000000000000000000000000000000000\n        /* \"#utility.yul\":4387:4388   */\n      0x00\n        /* \"#utility.yul\":4380:4468   */\n      mstore\n        /* \"#utility.yul\":4487:4491   */\n      0x11\n        /* \"#utility.yul\":4484:4485   */\n      0x04\n        /* \"#utility.yul\":4477:4492   */\n      mstore\n        /* \"#utility.yul\":4511:4515   */\n      0x24\n        /* \"#utility.yul\":4508:4509   */\n      0x00\n        /* \"#utility.yul\":4501:4516   */\n      revert\n        /* \"#utility.yul\":4528:4722   */\n    tag_41:\n        /* \"#utility.yul\":4568:4572   */\n      0x00\n        /* \"#utility.yul\":4588:4608   */\n      tag_139\n        /* \"#utility.yul\":4606:4607   */\n      dup3\n        /* \"#utility.yul\":4588:4608   */\n      tag_75\n      jump\t// in\n    tag_139:\n        /* \"#utility.yul\":4583:4608   */\n      swap2\n      pop\n        /* \"#utility.yul\":4622:4642   */\n      tag_140\n        /* \"#utility.yul\":4640:4641   */\n      dup4\n        /* \"#utility.yul\":4622:4642   */\n      tag_75\n      jump\t// in\n    tag_140:\n        /* \"#utility.yul\":4617:4642   */\n      swap3\n      pop\n        /* \"#utility.yul\":4666:4667   */\n      dup3\n        /* \"#utility.yul\":4663:4664   */\n      dup3\n        /* \"#utility.yul\":4659:4668   */\n      sub\n        /* \"#utility.yul\":4651:4668   */\n      swap1\n      pop\n        /* \"#utility.yul\":4690:4691   */\n      dup2\n        /* \"#utility.yul\":4684:4688   */\n      dup2\n        /* \"#utility.yul\":4681:4692   */\n      gt\n        /* \"#utility.yul\":4678:4715   */\n      iszero\n      tag_141\n      jumpi\n        /* \"#utility.yul\":4695:4713   */\n      tag_142\n      tag_84\n      jump\t// in\n    tag_142:\n        /* \"#utility.yul\":4678:4715   */\n    tag_141:\n        /* \"#utility.yul\":4528:4722   */\n      swap3\n      swap2\n      pop\n      pop\n      jump\t// out\n        /* \"#utility.yul\":4728:4875   */\n    tag_85:\n        /* \"#utility.yul\":4829:4840   */\n      0x00\n        /* \"#utility.yul\":4866:4869   */\n      dup2\n        /* \"#utility.yul\":4851:4869   */\n      swap1\n      pop\n        /* \"#utility.yul\":4728:4875   */\n      swap3\n      swap2\n      pop\n      pop\n      jump\t// out\n        /* \"#utility.yul\":4881:4995   */\n    tag_86:\n      pop\n      jump\t// out\n        /* \"#utility.yul\":5001:5399   */\n    tag_87:\n        /* \"#utility.yul\":5160:5163   */\n      0x00\n        /* \"#utility.yul\":5181:5264   */\n      tag_146\n        /* \"#utility.yul\":5262:5263   */\n      0x00\n        /* \"#utility.yul\":5257:5260   */\n      dup4\n        /* \"#utility.yul\":5181:5264   */\n      tag_85\n      jump\t// in\n    tag_146:\n        /* \"#utility.yul\":5174:5264   */\n      swap2\n      pop\n        /* \"#utility.yul\":5273:5366   */\n      tag_147\n        /* \"#utility.yul\":5362:5365   */\n      dup3\n        /* \"#utility.yul\":5273:5366   */\n      tag_86\n      jump\t// in\n    tag_147:\n        /* \"#utility.yul\":5391:5392   */\n      0x00\n        /* \"#utility.yul\":5386:5389   */\n      dup3\n        /* \"#utility.yul\":5382:5393   */\n      add\n        /* \"#utility.yul\":5375:5393   */\n      swap1\n      pop\n        /* \"#utility.yul\":5001:5399   */\n      swap2\n      swap1\n      pop\n      jump\t// out\n        /* \"#utility.yul\":5405:5784   */\n    tag_43:\n        /* \"#utility.yul\":5589:5592   */\n      0x00\n        /* \"#utility.yul\":5611:5758   */\n      tag_149\n        /* \"#utility.yul\":5754:5757   */\n      dup3\n        /* \"#utility.yul\":5611:5758   */\n      tag_87\n      jump\t// in\n    tag_149:\n        /* \"#utility.yul\":5604:5758   */\n      swap2\n      pop\n        /* \"#utility.yul\":5775:5778   */\n      dup2\n        /* \"#utility.yul\":5768:5778   */\n      swap1\n      pop\n        /* \"#utility.yul\":5405:5784   */\n      swap2\n      swap1\n      pop\n      jump\t// out\n        /* \"#utility.yul\":5790:5955   */\n    tag_88:\n        /* \"#utility.yul\":5930:5947   */\n      0x7472616e73666572206661696c65640000000000000000000000000000000000\n        /* \"#utility.yul\":5926:5927   */\n      0x00\n        /* \"#utility.yul\":5918:5924   */\n      dup3\n        /* \"#utility.yul\":5914:5928   */\n      add\n        /* \"#utility.yul\":5907:5948   */\n      mstore\n        /* \"#utility.yul\":5790:5955   */\n      pop\n      jump\t// out\n        /* \"#utility.yul\":5961:6327   */\n    tag_89:\n        /* \"#utility.yul\":6103:6106   */\n      0x00\n        /* \"#utility.yul\":6124:6191   */\n      tag_152\n        /* \"#utility.yul\":6188:6190   */\n      0x0f\n        /* \"#utility.yul\":6183:6186   */\n      dup4\n        /* \"#utility.yul\":6124:6191   */\n      tag_79\n      jump\t// in\n    tag_152:\n        /* \"#utility.yul\":6117:6191   */\n      swap2\n      pop\n        /* \"#utility.yul\":6200:6293   */\n      tag_153\n        /* \"#utility.yul\":6289:6292   */\n      dup3\n        /* \"#utility.yul\":6200:6293   */\n      tag_88\n      jump\t// in\n    tag_153:\n        /* \"#utility.yul\":6318:6320   */\n      0x20\n        /* \"#utility.yul\":6313:6316   */\n      dup3\n        /* \"#utility.yul\":6309:6321   */\n      add\n        /* \"#utility.yul\":6302:6321   */\n      swap1\n      pop\n        /* \"#utility.yul\":5961:6327   */\n      swap2\n      swap1\n      pop\n      jump\t// out\n        /* \"#utility.yul\":6333:6752   */\n    tag_49:\n        /* \"#utility.yul\":6499:6503   */\n      0x00\n        /* \"#utility.yul\":6537:6539   */\n      0x20\n        /* \"#utility.yul\":6526:6535   */\n      dup3\n        /* \"#utility.yul\":6522:6540   */\n      add\n        /* \"#utility.yul\":6514:6540   */\n      swap1\n      pop\n        /* \"#utility.yul\":6586:6595   */\n      dup2\n        /* \"#utility.yul\":6580:6584   */\n      dup2\n        /* \"#utility.yul\":6576:6596   */\n      sub\n        /* \"#utility.yul\":6572:6573   */\n      0x00\n        /* \"#utility.yul\":6561:6570   */\n      dup4\n        /* \"#utility.yul\":6557:6574   */\n      add\n        /* \"#utility.yul\":6550:6597   */\n      mstore\n        /* \"#utility.yul\":6614:6745   */\n      tag_155\n        /* \"#utility.yul\":6740:6744   */\n      dup2\n        /* \"#utility.yul\":6614:6745   */\n      tag_89\n      jump\t// in\n    tag_155:\n        /* \"#utility.yul\":6606:6745   */\n      swap1\n      pop\n        /* \"#utility.yul\":6333:6752   */\n      swap2\n      swap1\n      pop\n      jump\t// out\n        /* \"#utility.yul\":6758:6923   */\n    tag_90:\n        /* \"#utility.yul\":6898:6915   */\n      0x5472616e73666572206661696c65640000000000000000000000000000000000\n        /* \"#utility.yul\":6894:6895   */\n      0x00\n        /* \"#utility.yul\":6886:6892   */\n      dup3\n        /* \"#utility.yul\":6882:6896   */\n      add\n        /* \"#utility.yul\":6875:6916   */\n      mstore\n        /* \"#utility.yul\":6758:6923   */\n      pop\n      jump\t// out\n        /* \"#utility.yul\":6929:7295   */\n    tag_91:\n        /* \"#utility.yul\":7071:7074   */\n      0x00\n        /* \"#utility.yul\":7092:7159   */\n      tag_158\n        /* \"#utility.yul\":7156:7158   */\n      0x0f\n        /* \"#utility.yul\":7151:7154   */\n      dup4\n        /* \"#utility.yul\":7092:7159   */\n      tag_79\n      jump\t// in\n    tag_158:\n        /* \"#utility.yul\":7085:7159   */\n      swap2\n      pop\n        /* \"#utility.yul\":7168:7261   */\n      tag_159\n        /* \"#utility.yul\":7257:7260   */\n      dup3\n        /* \"#utility.yul\":7168:7261   */\n      tag_90\n      jump\t// in\n    tag_159:\n        /* \"#utility.yul\":7286:7288   */\n      0x20\n        /* \"#utility.yul\":7281:7284   */\n      dup3\n        /* \"#utility.yul\":7277:7289   */\n      add\n        /* \"#utility.yul\":7270:7289   */\n      swap1\n      pop\n        /* \"#utility.yul\":6929:7295   */\n      swap2\n      swap1\n      pop\n      jump\t// out\n        /* \"#utility.yul\":7301:7720   */\n    tag_60:\n        /* \"#utility.yul\":7467:7471   */\n      0x00\n        /* \"#utility.yul\":7505:7507   */\n      0x20\n        /* \"#utility.yul\":7494:7503   */\n      dup3\n        /* \"#utility.yul\":7490:7508   */\n      add\n        /* \"#utility.yul\":7482:7508   */\n      swap1\n      pop\n        /* \"#utility.yul\":7554:7563   */\n      dup2\n        /* \"#utility.yul\":7548:7552   */\n      dup2\n        /* \"#utility.yul\":7544:7564   */\n      sub\n        /* \"#utility.yul\":7540:7541   */\n      0x00\n        /* \"#utility.yul\":7529:7538   */\n      dup4\n        /* \"#utility.yul\":7525:7542   */\n      add\n        /* \"#utility.yul\":7518:7565   */\n      mstore\n        /* \"#utility.yul\":7582:7713   */\n      tag_161\n        /* \"#utility.yul\":7708:7712   */\n      dup2\n        /* \"#utility.yul\":7582:7713   */\n      tag_91\n      jump\t// in\n    tag_161:\n        /* \"#utility.yul\":7574:7713   */\n      swap1\n      pop\n        /* \"#utility.yul\":7301:7720   */\n      swap2\n      swap1\n      pop\n      jump\t// out\n        /* \"#utility.yul\":7726:7887   */\n    tag_92:\n        /* \"#utility.yul\":7866:7879   */\n      0x4e6f204554482073656e74000000000000000000000000000000000000000000\n        /* \"#utility.yul\":7862:7863   */\n      0x00\n        /* \"#utility.yul\":7854:7860   */\n      dup3\n        /* \"#utility.yul\":7850:7864   */\n      add\n        /* \"#utility.yul\":7843:7880   */\n      mstore\n        /* \"#utility.yul\":7726:7887   */\n      pop\n      jump\t// out\n        /* \"#utility.yul\":7893:8259   */\n    tag_93:\n        /* \"#utility.yul\":8035:8038   */\n      0x00\n        /* \"#utility.yul\":8056:8123   */\n      tag_164\n        /* \"#utility.yul\":8120:8122   */\n      0x0b\n        /* \"#utility.yul\":8115:8118   */\n      dup4\n        /* \"#utility.yul\":8056:8123   */\n      tag_79\n      jump\t// in\n    tag_164:\n        /* \"#utility.yul\":8049:8123   */\n      swap2\n      pop\n        /* \"#utility.yul\":8132:8225   */\n      tag_165\n        /* \"#utility.yul\":8221:8224   */\n      dup3\n        /* \"#utility.yul\":8132:8225   */\n      tag_92\n      jump\t// in\n    tag_165:\n        /* \"#utility.yul\":8250:8252   */\n      0x20\n        /* \"#utility.yul\":8245:8248   */\n      dup3\n        /* \"#utility.yul\":8241:8253   */\n      add\n        /* \"#utility.yul\":8234:8253   */\n      swap1\n      pop\n        /* \"#utility.yul\":7893:8259   */\n      swap2\n      swap1\n      pop\n      jump\t// out\n        /* \"#utility.yul\":8265:8684   */\n    tag_65:\n        /* \"#utility.yul\":8431:8435   */\n      0x00\n        /* \"#utility.yul\":8469:8471   */\n      0x20\n        /* \"#utility.yul\":8458:8467   */\n      dup3\n        /* \"#utility.yul\":8454:8472   */\n      add\n        /* \"#utility.yul\":8446:8472   */\n      swap1\n      pop\n        /* \"#utility.yul\":8518:8527   */\n      dup2\n        /* \"#utility.yul\":8512:8516   */\n      dup2\n        /* \"#utility.yul\":8508:8528   */\n      sub\n        /* \"#utility.yul\":8504:8505   */\n      0x00\n        /* \"#utility.yul\":8493:8502   */\n      dup4\n        /* \"#utility.yul\":8489:8506   */\n      add\n        /* \"#utility.yul\":8482:8529   */\n      mstore\n        /* \"#utility.yul\":8546:8677   */\n      tag_167\n        /* \"#utility.yul\":8672:8676   */\n      dup2\n        /* \"#utility.yul\":8546:8677   */\n      tag_93\n      jump\t// in\n    tag_167:\n        /* \"#utility.yul\":8538:8677   */\n      swap1\n      pop\n        /* \"#utility.yul\":8265:8684   */\n      swap2\n      swap1\n      pop\n      jump\t// out\n        /* \"#utility.yul\":8690:8881   */\n    tag_67:\n        /* \"#utility.yul\":8730:8733   */\n      0x00\n        /* \"#utility.yul\":8749:8769   */\n      tag_169\n        /* \"#utility.yul\":8767:8768   */\n      dup3\n        /* \"#utility.yul\":8749:8769   */\n      tag_75\n      jump\t// in\n    tag_169:\n        /* \"#utility.yul\":8744:8769   */\n      swap2\n      pop\n        /* \"#utility.yul\":8783:8803   */\n      tag_170\n        /* \"#utility.yul\":8801:8802   */\n      dup4\n        /* \"#utility.yul\":8783:8803   */\n      tag_75\n      jump\t// in\n    tag_170:\n        /* \"#utility.yul\":8778:8803   */\n      swap3\n      pop\n        /* \"#utility.yul\":8826:8827   */\n      dup3\n        /* \"#utility.yul\":8823:8824   */\n      dup3\n        /* \"#utility.yul\":8819:8828   */\n      add\n        /* \"#utility.yul\":8812:8828   */\n      swap1\n      pop\n        /* \"#utility.yul\":8847:8850   */\n      dup1\n        /* \"#utility.yul\":8844:8845   */\n      dup3\n        /* \"#utility.yul\":8841:8851   */\n      gt\n        /* \"#utility.yul\":8838:8874   */\n      iszero\n      tag_171\n      jumpi\n        /* \"#utility.yul\":8854:8872   */\n      tag_172\n      tag_84\n      jump\t// in\n    tag_172:\n        /* \"#utility.yul\":8838:8874   */\n    tag_171:\n        /* \"#utility.yul\":8690:8881   */\n      swap3\n      swap2\n      pop\n      pop\n      jump\t// out\n\n    auxdata: 0xa2646970667358221220240f3a59eaa349c0fa4ba4a7aa1255483c92afde119ced79f697258282b56ea164736f6c63430008220033\n}\n",
				"bytecode": {
					"linkReferences": {},
					"object": "6080604052348015600e575f5ffd5b506109758061001c5f395ff3fe60806040526004361061004d575f3560e01c806327e235e3146100585780632e1a7d4d146100945780638b7afe2e146100bc578063cc817673146100e6578063d0e30db01461010e57610054565b3661005457005b5f5ffd5b348015610063575f5ffd5b5061007e600480360381019061007991906105a2565b610118565b60405161008b91906105e5565b60405180910390f35b34801561009f575f5ffd5b506100ba60048036038101906100b59190610628565b61012c565b005b3480156100c7575f5ffd5b506100d061032a565b6040516100dd91906105e5565b60405180910390f35b3480156100f1575f5ffd5b5061010c60048036038101906101079190610628565b610331565b005b6101166104ae565b005b5f602052805f5260405f205f915090505481565b60015f9054906101000a900460ff161561017b576040517f08c379a0000000000000000000000000000000000000000000000000000000008152600401610172906106ad565b60405180910390fd5b6001805f6101000a81548160ff021916908315150217905550805f5f3373ffffffffffffffffffffffffffffffffffffffff1673ffffffffffffffffffffffffffffffffffffffff1681526020019081526020015f20541015610213576040517f08c379a000000000000000000000000000000000000000000000000000000000815260040161020a90610715565b60405180910390fd5b805f5f3373ffffffffffffffffffffffffffffffffffffffff1673ffffffffffffffffffffffffffffffffffffffff1681526020019081526020015f205f82825461025e9190610760565b925050819055505f3373ffffffffffffffffffffffffffffffffffffffff168260405161028a906107c0565b5f6040518083038185875af1925050503d805f81146102c4576040519150601f19603f3d011682016040523d82523d5f602084013e6102c9565b606091505b505090508061030d576040517f08c379a00000000000000000000000000000000000000000000000000000000081526004016103049061081e565b60405180910390fd5b505f60015f6101000a81548160ff02191690831515021790555050565b5f47905090565b805f5f3373ffffffffffffffffffffffffffffffffffffffff1673ffffffffffffffffffffffffffffffffffffffff1681526020019081526020015f205410156103b0576040517f08c379a00000000000000000000000000000000000000000000000000000000081526004016103a790610715565b60405180910390fd5b5f3373ffffffffffffffffffffffffffffffffffffffff16826040516103d5906107c0565b5f6040518083038185875af1925050503d805f811461040f576040519150601f19603f3d011682016040523d82523d5f602084013e610414565b606091505b5050905080610458576040517f08c379a000000000000000000000000000000000000000000000000000000000815260040161044f90610886565b60405180910390fd5b815f5f3373ffffffffffffffffffffffffffffffffffffffff1673ffffffffffffffffffffffffffffffffffffffff1681526020019081526020015f205f8282546104a39190610760565b925050819055505050565b5f34116104f0576040517f08c379a00000000000000000000000000000000000000000000000000000000081526004016104e7906108ee565b60405180910390fd5b345f5f3373ffffffffffffffffffffffffffffffffffffffff1673ffffffffffffffffffffffffffffffffffffffff1681526020019081526020015f205f82825461053b919061090c565b92505081905550565b5f5ffd5b5f73ffffffffffffffffffffffffffffffffffffffff82169050919050565b5f61057182610548565b9050919050565b61058181610567565b811461058b575f5ffd5b50565b5f8135905061059c81610578565b92915050565b5f602082840312156105b7576105b6610544565b5b5f6105c48482850161058e565b91505092915050565b5f819050919050565b6105df816105cd565b82525050565b5f6020820190506105f85f8301846105d6565b92915050565b610607816105cd565b8114610611575f5ffd5b50565b5f81359050610622816105fe565b92915050565b5f6020828403121561063d5761063c610544565b5b5f61064a84828501610614565b91505092915050565b5f82825260208201905092915050565b7f5265656e7472616e742063616c6c20626c6f636b6564000000000000000000005f82015250565b5f610697601683610653565b91506106a282610663565b602082019050919050565b5f6020820190508181035f8301526106c48161068b565b9050919050565b7f496e73756666696369656e742062616c616e63650000000000000000000000005f82015250565b5f6106ff601483610653565b915061070a826106cb565b602082019050919050565b5f6020820190508181035f83015261072c816106f3565b9050919050565b7f4e487b71000000000000000000000000000000000000000000000000000000005f52601160045260245ffd5b5f61076a826105cd565b9150610775836105cd565b925082820390508181111561078d5761078c610733565b5b92915050565b5f81905092915050565b50565b5f6107ab5f83610793565b91506107b68261079d565b5f82019050919050565b5f6107ca826107a0565b9150819050919050565b7f7472616e73666572206661696c656400000000000000000000000000000000005f82015250565b5f610808600f83610653565b9150610813826107d4565b602082019050919050565b5f6020820190508181035f830152610835816107fc565b9050919050565b7f5472616e73666572206661696c656400000000000000000000000000000000005f82015250565b5f610870600f83610653565b915061087b8261083c565b602082019050919050565b5f6020820190508181035f83015261089d81610864565b9050919050565b7f4e6f204554482073656e740000000000000000000000000000000000000000005f82015250565b5f6108d8600b83610653565b91506108e3826108a4565b602082019050919050565b5f6020820190508181035f830152610905816108cc565b9050919050565b5f610916826105cd565b9150610921836105cd565b925082820190508082111561093957610938610733565b5b9291505056fea2646970667358221220240f3a59eaa349c0fa4ba4a7aa1255483c92afde119ced79f697258282b56ea164736f6c63430008220033",
					"opcodes": "PUSH1 0x80 PUSH1 0x40 MSTORE CALLVALUE DUP1 ISZERO PUSH1 0xE JUMPI PUSH0 PUSH0 REVERT JUMPDEST POP PUSH2 0x975 DUP1 PUSH2 0x1C PUSH0 CODECOPY PUSH0 RETURN INVALID PUSH1 0x80 PUSH1 0x40 MSTORE PUSH1 0x4 CALLDATASIZE LT PUSH2 0x4D JUMPI PUSH0 CALLDATALOAD PUSH1 0xE0 SHR DUP1 PUSH4 0x27E235E3 EQ PUSH2 0x58 JUMPI DUP1 PUSH4 0x2E1A7D4D EQ PUSH2 0x94 JUMPI DUP1 PUSH4 0x8B7AFE2E EQ PUSH2 0xBC JUMPI DUP1 PUSH4 0xCC817673 EQ PUSH2 0xE6 JUMPI DUP1 PUSH4 0xD0E30DB0 EQ PUSH2 0x10E JUMPI PUSH2 0x54 JUMP JUMPDEST CALLDATASIZE PUSH2 0x54 JUMPI STOP JUMPDEST PUSH0 PUSH0 REVERT JUMPDEST CALLVALUE DUP1 ISZERO PUSH2 0x63 JUMPI PUSH0 PUSH0 REVERT JUMPDEST POP PUSH2 0x7E PUSH1 0x4 DUP1 CALLDATASIZE SUB DUP2 ADD SWAP1 PUSH2 0x79 SWAP2 SWAP1 PUSH2 0x5A2 JUMP JUMPDEST PUSH2 0x118 JUMP JUMPDEST PUSH1 0x40 MLOAD PUSH2 0x8B SWAP2 SWAP1 PUSH2 0x5E5 JUMP JUMPDEST PUSH1 0x40 MLOAD DUP1 SWAP2 SUB SWAP1 RETURN JUMPDEST CALLVALUE DUP1 ISZERO PUSH2 0x9F JUMPI PUSH0 PUSH0 REVERT JUMPDEST POP PUSH2 0xBA PUSH1 0x4 DUP1 CALLDATASIZE SUB DUP2 ADD SWAP1 PUSH2 0xB5 SWAP2 SWAP1 PUSH2 0x628 JUMP JUMPDEST PUSH2 0x12C JUMP JUMPDEST STOP JUMPDEST CALLVALUE DUP1 ISZERO PUSH2 0xC7 JUMPI PUSH0 PUSH0 REVERT JUMPDEST POP PUSH2 0xD0 PUSH2 0x32A JUMP JUMPDEST PUSH1 0x40 MLOAD PUSH2 0xDD SWAP2 SWAP1 PUSH2 0x5E5 JUMP JUMPDEST PUSH1 0x40 MLOAD DUP1 SWAP2 SUB SWAP1 RETURN JUMPDEST CALLVALUE DUP1 ISZERO PUSH2 0xF1 JUMPI PUSH0 PUSH0 REVERT JUMPDEST POP PUSH2 0x10C PUSH1 0x4 DUP1 CALLDATASIZE SUB DUP2 ADD SWAP1 PUSH2 0x107 SWAP2 SWAP1 PUSH2 0x628 JUMP JUMPDEST PUSH2 0x331 JUMP JUMPDEST STOP JUMPDEST PUSH2 0x116 PUSH2 0x4AE JUMP JUMPDEST STOP JUMPDEST PUSH0 PUSH1 0x20 MSTORE DUP1 PUSH0 MSTORE PUSH1 0x40 PUSH0 KECCAK256 PUSH0 SWAP2 POP SWAP1 POP SLOAD DUP2 JUMP JUMPDEST PUSH1 0x1 PUSH0 SWAP1 SLOAD SWAP1 PUSH2 0x100 EXP SWAP1 DIV PUSH1 0xFF AND ISZERO PUSH2 0x17B JUMPI PUSH1 0x40 MLOAD PUSH32 0x8C379A000000000000000000000000000000000000000000000000000000000 DUP2 MSTORE PUSH1 0x4 ADD PUSH2 0x172 SWAP1 PUSH2 0x6AD JUMP JUMPDEST PUSH1 0x40 MLOAD DUP1 SWAP2 SUB SWAP1 REVERT JUMPDEST PUSH1 0x1 DUP1 PUSH0 PUSH2 0x100 EXP DUP2 SLOAD DUP2 PUSH1 0xFF MUL NOT AND SWAP1 DUP4 ISZERO ISZERO MUL OR SWAP1 SSTORE POP DUP1 PUSH0 PUSH0 CALLER PUSH20 0xFFFFFFFFFFFFFFFFFFFFFFFFFFFFFFFFFFFFFFFF AND PUSH20 0xFFFFFFFFFFFFFFFFFFFFFFFFFFFFFFFFFFFFFFFF AND DUP2 MSTORE PUSH1 0x20 ADD SWAP1 DUP2 MSTORE PUSH1 0x20 ADD PUSH0 KECCAK256 SLOAD LT ISZERO PUSH2 0x213 JUMPI PUSH1 0x40 MLOAD PUSH32 0x8C379A000000000000000000000000000000000000000000000000000000000 DUP2 MSTORE PUSH1 0x4 ADD PUSH2 0x20A SWAP1 PUSH2 0x715 JUMP JUMPDEST PUSH1 0x40 MLOAD DUP1 SWAP2 SUB SWAP1 REVERT JUMPDEST DUP1 PUSH0 PUSH0 CALLER PUSH20 0xFFFFFFFFFFFFFFFFFFFFFFFFFFFFFFFFFFFFFFFF AND PUSH20 0xFFFFFFFFFFFFFFFFFFFFFFFFFFFFFFFFFFFFFFFF AND DUP2 MSTORE PUSH1 0x20 ADD SWAP1 DUP2 MSTORE PUSH1 0x20 ADD PUSH0 KECCAK256 PUSH0 DUP3 DUP3 SLOAD PUSH2 0x25E SWAP2 SWAP1 PUSH2 0x760 JUMP JUMPDEST SWAP3 POP POP DUP2 SWAP1 SSTORE POP PUSH0 CALLER PUSH20 0xFFFFFFFFFFFFFFFFFFFFFFFFFFFFFFFFFFFFFFFF AND DUP3 PUSH1 0x40 MLOAD PUSH2 0x28A SWAP1 PUSH2 0x7C0 JUMP JUMPDEST PUSH0 PUSH1 0x40 MLOAD DUP1 DUP4 SUB DUP2 DUP6 DUP8 GAS CALL SWAP3 POP POP POP RETURNDATASIZE DUP1 PUSH0 DUP2 EQ PUSH2 0x2C4 JUMPI PUSH1 0x40 MLOAD SWAP2 POP PUSH1 0x1F NOT PUSH1 0x3F RETURNDATASIZE ADD AND DUP3 ADD PUSH1 0x40 MSTORE RETURNDATASIZE DUP3 MSTORE RETURNDATASIZE PUSH0 PUSH1 0x20 DUP5 ADD RETURNDATACOPY PUSH2 0x2C9 JUMP JUMPDEST PUSH1 0x60 SWAP2 POP JUMPDEST POP POP SWAP1 POP DUP1 PUSH2 0x30D JUMPI PUSH1 0x40 MLOAD PUSH32 0x8C379A000000000000000000000000000000000000000000000000000000000 DUP2 MSTORE PUSH1 0x4 ADD PUSH2 0x304 SWAP1 PUSH2 0x81E JUMP JUMPDEST PUSH1 0x40 MLOAD DUP1 SWAP2 SUB SWAP1 REVERT JUMPDEST POP PUSH0 PUSH1 0x1 PUSH0 PUSH2 0x100 EXP DUP2 SLOAD DUP2 PUSH1 0xFF MUL NOT AND SWAP1 DUP4 ISZERO ISZERO MUL OR SWAP1 SSTORE POP POP JUMP JUMPDEST PUSH0 SELFBALANCE SWAP1 POP SWAP1 JUMP JUMPDEST DUP1 PUSH0 PUSH0 CALLER PUSH20 0xFFFFFFFFFFFFFFFFFFFFFFFFFFFFFFFFFFFFFFFF AND PUSH20 0xFFFFFFFFFFFFFFFFFFFFFFFFFFFFFFFFFFFFFFFF AND DUP2 MSTORE PUSH1 0x20 ADD SWAP1 DUP2 MSTORE PUSH1 0x20 ADD PUSH0 KECCAK256 SLOAD LT ISZERO PUSH2 0x3B0 JUMPI PUSH1 0x40 MLOAD PUSH32 0x8C379A000000000000000000000000000000000000000000000000000000000 DUP2 MSTORE PUSH1 0x4 ADD PUSH2 0x3A7 SWAP1 PUSH2 0x715 JUMP JUMPDEST PUSH1 0x40 MLOAD DUP1 SWAP2 SUB SWAP1 REVERT JUMPDEST PUSH0 CALLER PUSH20 0xFFFFFFFFFFFFFFFFFFFFFFFFFFFFFFFFFFFFFFFF AND DUP3 PUSH1 0x40 MLOAD PUSH2 0x3D5 SWAP1 PUSH2 0x7C0 JUMP JUMPDEST PUSH0 PUSH1 0x40 MLOAD DUP1 DUP4 SUB DUP2 DUP6 DUP8 GAS CALL SWAP3 POP POP POP RETURNDATASIZE DUP1 PUSH0 DUP2 EQ PUSH2 0x40F JUMPI PUSH1 0x40 MLOAD SWAP2 POP PUSH1 0x1F NOT PUSH1 0x3F RETURNDATASIZE ADD AND DUP3 ADD PUSH1 0x40 MSTORE RETURNDATASIZE DUP3 MSTORE RETURNDATASIZE PUSH0 PUSH1 0x20 DUP5 ADD RETURNDATACOPY PUSH2 0x414 JUMP JUMPDEST PUSH1 0x60 SWAP2 POP JUMPDEST POP POP SWAP1 POP DUP1 PUSH2 0x458 JUMPI PUSH1 0x40 MLOAD PUSH32 0x8C379A000000000000000000000000000000000000000000000000000000000 DUP2 MSTORE PUSH1 0x4 ADD PUSH2 0x44F SWAP1 PUSH2 0x886 JUMP JUMPDEST PUSH1 0x40 MLOAD DUP1 SWAP2 SUB SWAP1 REVERT JUMPDEST DUP2 PUSH0 PUSH0 CALLER PUSH20 0xFFFFFFFFFFFFFFFFFFFFFFFFFFFFFFFFFFFFFFFF AND PUSH20 0xFFFFFFFFFFFFFFFFFFFFFFFFFFFFFFFFFFFFFFFF AND DUP2 MSTORE PUSH1 0x20 ADD SWAP1 DUP2 MSTORE PUSH1 0x20 ADD PUSH0 KECCAK256 PUSH0 DUP3 DUP3 SLOAD PUSH2 0x4A3 SWAP2 SWAP1 PUSH2 0x760 JUMP JUMPDEST SWAP3 POP POP DUP2 SWAP1 SSTORE POP POP POP JUMP JUMPDEST PUSH0 CALLVALUE GT PUSH2 0x4F0 JUMPI PUSH1 0x40 MLOAD PUSH32 0x8C379A000000000000000000000000000000000000000000000000000000000 DUP2 MSTORE PUSH1 0x4 ADD PUSH2 0x4E7 SWAP1 PUSH2 0x8EE JUMP JUMPDEST PUSH1 0x40 MLOAD DUP1 SWAP2 SUB SWAP1 REVERT JUMPDEST CALLVALUE PUSH0 PUSH0 CALLER PUSH20 0xFFFFFFFFFFFFFFFFFFFFFFFFFFFFFFFFFFFFFFFF AND PUSH20 0xFFFFFFFFFFFFFFFFFFFFFFFFFFFFFFFFFFFFFFFF AND DUP2 MSTORE PUSH1 0x20 ADD SWAP1 DUP2 MSTORE PUSH1 0x20 ADD PUSH0 KECCAK256 PUSH0 DUP3 DUP3 SLOAD PUSH2 0x53B SWAP2 SWAP1 PUSH2 0x90C JUMP JUMPDEST SWAP3 POP POP DUP2 SWAP1 SSTORE POP JUMP JUMPDEST PUSH0 PUSH0 REVERT JUMPDEST PUSH0 PUSH20 0xFFFFFFFFFFFFFFFFFFFFFFFFFFFFFFFFFFFFFFFF DUP3 AND SWAP1 POP SWAP2 SWAP1 POP JUMP JUMPDEST PUSH0 PUSH2 0x571 DUP3 PUSH2 0x548 JUMP JUMPDEST SWAP1 POP SWAP2 SWAP1 POP JUMP JUMPDEST PUSH2 0x581 DUP2 PUSH2 0x567 JUMP JUMPDEST DUP2 EQ PUSH2 0x58B JUMPI PUSH0 PUSH0 REVERT JUMPDEST POP JUMP JUMPDEST PUSH0 DUP2 CALLDATALOAD SWAP1 POP PUSH2 0x59C DUP2 PUSH2 0x578 JUMP JUMPDEST SWAP3 SWAP2 POP POP JUMP JUMPDEST PUSH0 PUSH1 0x20 DUP3 DUP5 SUB SLT ISZERO PUSH2 0x5B7 JUMPI PUSH2 0x5B6 PUSH2 0x544 JUMP JUMPDEST JUMPDEST PUSH0 PUSH2 0x5C4 DUP5 DUP3 DUP6 ADD PUSH2 0x58E JUMP JUMPDEST SWAP2 POP POP SWAP3 SWAP2 POP POP JUMP JUMPDEST PUSH0 DUP2 SWAP1 POP SWAP2 SWAP1 POP JUMP JUMPDEST PUSH2 0x5DF DUP2 PUSH2 0x5CD JUMP JUMPDEST DUP3 MSTORE POP POP JUMP JUMPDEST PUSH0 PUSH1 0x20 DUP3 ADD SWAP1 POP PUSH2 0x5F8 PUSH0 DUP4 ADD DUP5 PUSH2 0x5D6 JUMP JUMPDEST SWAP3 SWAP2 POP POP JUMP JUMPDEST PUSH2 0x607 DUP2 PUSH2 0x5CD JUMP JUMPDEST DUP2 EQ PUSH2 0x611 JUMPI PUSH0 PUSH0 REVERT JUMPDEST POP JUMP JUMPDEST PUSH0 DUP2 CALLDATALOAD SWAP1 POP PUSH2 0x622 DUP2 PUSH2 0x5FE JUMP JUMPDEST SWAP3 SWAP2 POP POP JUMP JUMPDEST PUSH0 PUSH1 0x20 DUP3 DUP5 SUB SLT ISZERO PUSH2 0x63D JUMPI PUSH2 0x63C PUSH2 0x544 JUMP JUMPDEST JUMPDEST PUSH0 PUSH2 0x64A DUP5 DUP3 DUP6 ADD PUSH2 0x614 JUMP JUMPDEST SWAP2 POP POP SWAP3 SWAP2 POP POP JUMP JUMPDEST PUSH0 DUP3 DUP3 MSTORE PUSH1 0x20 DUP3 ADD SWAP1 POP SWAP3 SWAP2 POP POP JUMP JUMPDEST PUSH32 0x5265656E7472616E742063616C6C20626C6F636B656400000000000000000000 PUSH0 DUP3 ADD MSTORE POP JUMP JUMPDEST PUSH0 PUSH2 0x697 PUSH1 0x16 DUP4 PUSH2 0x653 JUMP JUMPDEST SWAP2 POP PUSH2 0x6A2 DUP3 PUSH2 0x663 JUMP JUMPDEST PUSH1 0x20 DUP3 ADD SWAP1 POP SWAP2 SWAP1 POP JUMP JUMPDEST PUSH0 PUSH1 0x20 DUP3 ADD SWAP1 POP DUP2 DUP2 SUB PUSH0 DUP4 ADD MSTORE PUSH2 0x6C4 DUP2 PUSH2 0x68B JUMP JUMPDEST SWAP1 POP SWAP2 SWAP1 POP JUMP JUMPDEST PUSH32 0x496E73756666696369656E742062616C616E6365000000000000000000000000 PUSH0 DUP3 ADD MSTORE POP JUMP JUMPDEST PUSH0 PUSH2 0x6FF PUSH1 0x14 DUP4 PUSH2 0x653 JUMP JUMPDEST SWAP2 POP PUSH2 0x70A DUP3 PUSH2 0x6CB JUMP JUMPDEST PUSH1 0x20 DUP3 ADD SWAP1 POP SWAP2 SWAP1 POP JUMP JUMPDEST PUSH0 PUSH1 0x20 DUP3 ADD SWAP1 POP DUP2 DUP2 SUB PUSH0 DUP4 ADD MSTORE PUSH2 0x72C DUP2 PUSH2 0x6F3 JUMP JUMPDEST SWAP1 POP SWAP2 SWAP1 POP JUMP JUMPDEST PUSH32 0x4E487B7100000000000000000000000000000000000000000000000000000000 PUSH0 MSTORE PUSH1 0x11 PUSH1 0x4 MSTORE PUSH1 0x24 PUSH0 REVERT JUMPDEST PUSH0 PUSH2 0x76A DUP3 PUSH2 0x5CD JUMP JUMPDEST SWAP2 POP PUSH2 0x775 DUP4 PUSH2 0x5CD JUMP JUMPDEST SWAP3 POP DUP3 DUP3 SUB SWAP1 POP DUP2 DUP2 GT ISZERO PUSH2 0x78D JUMPI PUSH2 0x78C PUSH2 0x733 JUMP JUMPDEST JUMPDEST SWAP3 SWAP2 POP POP JUMP JUMPDEST PUSH0 DUP2 SWAP1 POP SWAP3 SWAP2 POP POP JUMP JUMPDEST POP JUMP JUMPDEST PUSH0 PUSH2 0x7AB PUSH0 DUP4 PUSH2 0x793 JUMP JUMPDEST SWAP2 POP PUSH2 0x7B6 DUP3 PUSH2 0x79D JUMP JUMPDEST PUSH0 DUP3 ADD SWAP1 POP SWAP2 SWAP1 POP JUMP JUMPDEST PUSH0 PUSH2 0x7CA DUP3 PUSH2 0x7A0 JUMP JUMPDEST SWAP2 POP DUP2 SWAP1 POP SWAP2 SWAP1 POP JUMP JUMPDEST PUSH32 0x7472616E73666572206661696C65640000000000000000000000000000000000 PUSH0 DUP3 ADD MSTORE POP JUMP JUMPDEST PUSH0 PUSH2 0x808 PUSH1 0xF DUP4 PUSH2 0x653 JUMP JUMPDEST SWAP2 POP PUSH2 0x813 DUP3 PUSH2 0x7D4 JUMP JUMPDEST PUSH1 0x20 DUP3 ADD SWAP1 POP SWAP2 SWAP1 POP JUMP JUMPDEST PUSH0 PUSH1 0x20 DUP3 ADD SWAP1 POP DUP2 DUP2 SUB PUSH0 DUP4 ADD MSTORE PUSH2 0x835 DUP2 PUSH2 0x7FC JUMP JUMPDEST SWAP1 POP SWAP2 SWAP1 POP JUMP JUMPDEST PUSH32 0x5472616E73666572206661696C65640000000000000000000000000000000000 PUSH0 DUP3 ADD MSTORE POP JUMP JUMPDEST PUSH0 PUSH2 0x870 PUSH1 0xF DUP4 PUSH2 0x653 JUMP JUMPDEST SWAP2 POP PUSH2 0x87B DUP3 PUSH2 0x83C JUMP JUMPDEST PUSH1 0x20 DUP3 ADD SWAP1 POP SWAP2 SWAP1 POP JUMP JUMPDEST PUSH0 PUSH1 0x20 DUP3 ADD SWAP1 POP DUP2 DUP2 SUB PUSH0 DUP4 ADD MSTORE PUSH2 0x89D DUP2 PUSH2 0x864 JUMP JUMPDEST SWAP1 POP SWAP2 SWAP1 POP JUMP JUMPDEST PUSH32 0x4E6F204554482073656E74000000000000000000000000000000000000000000 PUSH0 DUP3 ADD MSTORE POP JUMP JUMPDEST PUSH0 PUSH2 0x8D8 PUSH1 0xB DUP4 PUSH2 0x653 JUMP JUMPDEST SWAP2 POP PUSH2 0x8E3 DUP3 PUSH2 0x8A4 JUMP JUMPDEST PUSH1 0x20 DUP3 ADD SWAP1 POP SWAP2 SWAP1 POP JUMP JUMPDEST PUSH0 PUSH1 0x20 DUP3 ADD SWAP1 POP DUP2 DUP2 SUB PUSH0 DUP4 ADD MSTORE PUSH2 0x905 DUP2 PUSH2 0x8CC JUMP JUMPDEST SWAP1 POP SWAP2 SWAP1 POP JUMP JUMPDEST PUSH0 PUSH2 0x916 DUP3 PUSH2 0x5CD JUMP JUMPDEST SWAP2 POP PUSH2 0x921 DUP4 PUSH2 0x5CD JUMP JUMPDEST SWAP3 POP DUP3 DUP3 ADD SWAP1 POP DUP1 DUP3 GT ISZERO PUSH2 0x939 JUMPI PUSH2 0x938 PUSH2 0x733 JUMP JUMPDEST JUMPDEST SWAP3 SWAP2 POP POP JUMP INVALID LOG2 PUSH5 0x6970667358 0x22 SLT KECCAK256 0x24 0xF GASPRICE MSIZE 0xEA LOG3 BLOBHASH 0xC0 STATICCALL 0x4B LOG4 0xA7 0xAA SLT SSTORE BASEFEE EXTCODECOPY SWAP3 0xAF 0xDE GT SWAP13 0xED PUSH26 0xF697258282B56EA164736F6C6343000822003300000000000000 "
				},
				"gasEstimates": {
					"creation": {
						"codeDepositCost": "484200",
						"executionCost": "516",
						"totalCost": "484716"
					},
					"external": {
						"balances(address)": "2779",
						"contractBalance()": "356",
						"deposit()": "infinite",
						"vulnerableWithdraw(uint256)": "infinite",
						"withdraw(uint256)": "infinite"
					}
				},
				"methodIdentifiers": {
					"balances(address)": "27e235e3",
					"contractBalance()": "8b7afe2e",
					"deposit()": "d0e30db0",
					"vulnerableWithdraw(uint256)": "cc817673",
					"withdraw(uint256)": "2e1a7d4d"
				}
			},
			"storageLayout": {
				"storage": [
					{
						"astId": 74,
						"contract": "val52.sol:EthTransferMechanics",
						"label": "balances",
						"offset": 0,
						"slot": "0",
						"type": "t_mapping(t_address,t_uint256)"
					},
					{
						"astId": 76,
						"contract": "val52.sol:EthTransferMechanics",
						"label": "locked",
						"offset": 0,
						"slot": "1",
						"type": "t_bool"
					}
				],
				"types": {
					"t_address": {
						"encoding": "inplace",
						"label": "address",
						"numberOfBytes": "20"
					},
					"t_bool": {
						"encoding": "inplace",
						"label": "bool",
						"numberOfBytes": "1"
					},
					"t_mapping(t_address,t_uint256)": {
						"encoding": "mapping",
						"key": "t_address",
						"label": "mapping(address => uint256)",
						"numberOfBytes": "32",
						"value": "t_uint256"
					},
					"t_uint256": {
						"encoding": "inplace",
						"label": "uint256",
						"numberOfBytes": "32"
					}
				}
			},
			"userdoc": {
				"kind": "user",
				"methods": {},
				"version": 1
			}
		}
	}
}