{
	"val31.sol": {
		"LargeCalldataArray": {
			"abi": [
				{
					"inputs": [],
					"name": "MAX_BATCH_SIZE",
					"outputs": [
						{
							"internalType": "uint256",
							"name": "",
							"type": "uint256"
						}
					],
					"stateMutability": "view",
					"type": "function"
				},
				{
					"inputs": [
						{
							"internalType": "uint256[]",
							"name": "_numbers",
							"type": "uint256[]"
						}
					],
					"name": "getArraySize",
					"outputs": [
						{
							"internalType": "uint256",
							"name": "",
							"type": "uint256"
						}
					],
					"stateMutability": "pure",
					"type": "function"
				},
				{
					"inputs": [
						{
							"internalType": "uint256[]",
							"name": "_numbers",
							"type": "uint256[]"
						},
						{
							"internalType": "uint256",
							"name": "start",
							"type": "uint256"
						},
						{
							"internalType": "uint256",
							"name": "batchSize",
							"type": "uint256"
						}
					],
					"name": "processBatch",
					"outputs": [
						{
							"internalType": "uint256",
							"name": "",
							"type": "uint256"
						}
					],
					"stateMutability": "pure",
					"type": "function"
				},
				{
					"inputs": [
						{
							"internalType": "uint256[]",
							"name": "_numbers",
							"type": "uint256[]"
						}
					],
					"name": "processLargeArray",
					"outputs": [
						{
							"internalType": "uint256",
							"name": "",
							"type": "uint256"
						}
					],
					"stateMutability": "nonpayable",
					"type": "function"
				},
				{
					"inputs": [
						{
							"internalType": "uint256[]",
							"name": "_numbers",
							"type": "uint256[]"
						}
					],
					"name": "safeProcessing",
					"outputs": [
						{
							"internalType": "uint256",
							"name": "",
							"type": "uint256"
						}
					],
					"stateMutability": "pure",
					"type": "function"
				},
				{
					"inputs": [],
					"name": "totalProcessed",
					"outputs": [
						{
							"internalType": "uint256",
							"name": "",
							"type": "uint256"
						}
					],
					"stateMutability": "view",
					"type": "function"
				}
			],
			"devdoc": {
				"kind": "dev",
				"methods": {},
				"version": 1
			},
			"evm": {
				"assembly": "    /* \"val31.sol\":11404:13976  contract LargeCalldataArray {... */\n  mstore(0x40, 0x80)\n  callvalue\n  dup1\n  iszero\n  tag_1\n  jumpi\n  revert(0x00, 0x00)\ntag_1:\n  pop\n  dataSize(sub_0)\n  dup1\n  dataOffset(sub_0)\n  0x00\n  codecopy\n  0x00\n  return\nstop\n\nsub_0: assembly {\n        /* \"val31.sol\":11404:13976  contract LargeCalldataArray {... */\n      mstore(0x40, 0x80)\n      callvalue\n      dup1\n      iszero\n      tag_1\n      jumpi\n      revert(0x00, 0x00)\n    tag_1:\n      pop\n      jumpi(tag_2, lt(calldatasize, 0x04))\n      shr(0xe0, calldataload(0x00))\n      dup1\n      0x612199fe\n      eq\n      tag_3\n      jumpi\n      dup1\n      0x84411d65\n      eq\n      tag_4\n      jumpi\n      dup1\n      0xbb394844\n      eq\n      tag_5\n      jumpi\n      dup1\n      0xcfdbf254\n      eq\n      tag_6\n      jumpi\n      dup1\n      0xd8075761\n      eq\n      tag_7\n      jumpi\n      dup1\n      0xdab7a073\n      eq\n      tag_8\n      jumpi\n    tag_2:\n      revert(0x00, 0x00)\n        /* \"val31.sol\":12364:12946  function processBatch(uint256[] calldata _numbers, uint256 start, uint256 batchSize) external pure returns (uint256)... */\n    tag_3:\n      tag_9\n      0x04\n      dup1\n      calldatasize\n      sub\n      dup2\n      add\n      swap1\n      tag_10\n      swap2\n      swap1\n      tag_11\n      jump\t// in\n    tag_10:\n      tag_12\n      jump\t// in\n    tag_9:\n      mload(0x40)\n      tag_13\n      swap2\n      swap1\n      tag_14\n      jump\t// in\n    tag_13:\n      mload(0x40)\n      dup1\n      swap2\n      sub\n      swap1\n      return\n        /* \"val31.sol\":11520:11549  uint256 public totalProcessed */\n    tag_4:\n      tag_15\n      tag_16\n      jump\t// in\n    tag_15:\n      mload(0x40)\n      tag_17\n      swap2\n      swap1\n      tag_14\n      jump\t// in\n    tag_17:\n      mload(0x40)\n      dup1\n      swap2\n      sub\n      swap1\n      return\n        /* \"val31.sol\":11728:12280  function processLargeArray(... */\n    tag_5:\n      tag_18\n      0x04\n      dup1\n      calldatasize\n      sub\n      dup2\n      add\n      swap1\n      tag_19\n      swap2\n      swap1\n      tag_20\n      jump\t// in\n    tag_19:\n      tag_21\n      jump\t// in\n    tag_18:\n      mload(0x40)\n      tag_22\n      swap2\n      swap1\n      tag_14\n      jump\t// in\n    tag_22:\n      mload(0x40)\n      dup1\n      swap2\n      sub\n      swap1\n      return\n        /* \"val31.sol\":12313:12357  uint256 public constant MAX_BATCH_SIZE = 100 */\n    tag_6:\n      tag_23\n      tag_24\n      jump\t// in\n    tag_23:\n      mload(0x40)\n      tag_25\n      swap2\n      swap1\n      tag_14\n      jump\t// in\n    tag_25:\n      mload(0x40)\n      dup1\n      swap2\n      sub\n      swap1\n      return\n        /* \"val31.sol\":13461:13973  function safeProcessing(... */\n    tag_7:\n      tag_26\n      0x04\n      dup1\n      calldatasize\n      sub\n      dup2\n      add\n      swap1\n      tag_27\n      swap2\n      swap1\n      tag_20\n      jump\t// in\n    tag_27:\n      tag_28\n      jump\t// in\n    tag_26:\n      mload(0x40)\n      tag_29\n      swap2\n      swap1\n      tag_14\n      jump\t// in\n    tag_29:\n      mload(0x40)\n      dup1\n      swap2\n      sub\n      swap1\n      return\n        /* \"val31.sol\":13113:13287  function getArraySize(... */\n    tag_8:\n      tag_30\n      0x04\n      dup1\n      calldatasize\n      sub\n      dup2\n      add\n      swap1\n      tag_31\n      swap2\n      swap1\n      tag_20\n      jump\t// in\n    tag_31:\n      tag_32\n      jump\t// in\n    tag_30:\n      mload(0x40)\n      tag_33\n      swap2\n      swap1\n      tag_14\n      jump\t// in\n    tag_33:\n      mload(0x40)\n      dup1\n      swap2\n      sub\n      swap1\n      return\n        /* \"val31.sol\":12364:12946  function processBatch(uint256[] calldata _numbers, uint256 start, uint256 batchSize) external pure returns (uint256)... */\n    tag_12:\n        /* \"val31.sol\":12472:12479  uint256 */\n      0x00\n        /* \"val31.sol\":12513:12521  _numbers */\n      dup5\n      dup5\n        /* \"val31.sol\":12513:12528  _numbers.length */\n      swap1\n      pop\n        /* \"val31.sol\":12505:12510  start */\n      dup4\n        /* \"val31.sol\":12505:12528  start < _numbers.length */\n      lt\n        /* \"val31.sol\":12497:12552  require(start < _numbers.length, \"Invalid start index\") */\n      tag_35\n      jumpi\n      mload(0x40)\n      0x08c379a000000000000000000000000000000000000000000000000000000000\n      dup2\n      mstore\n      0x04\n      add\n      tag_36\n      swap1\n      tag_37\n      jump\t// in\n    tag_36:\n      mload(0x40)\n      dup1\n      swap2\n      sub\n      swap1\n      revert\n    tag_35:\n        /* \"val31.sol\":12585:12586  0 */\n      0x00\n        /* \"val31.sol\":12573:12582  batchSize */\n      dup3\n        /* \"val31.sol\":12573:12586  batchSize > 0 */\n      gt\n        /* \"val31.sol\":12573:12617  batchSize > 0 && batchSize <= MAX_BATCH_SIZE */\n      dup1\n      iszero\n      tag_38\n      jumpi\n      pop\n        /* \"val31.sol\":12354:12357  100 */\n      0x64\n        /* \"val31.sol\":12590:12599  batchSize */\n      dup3\n        /* \"val31.sol\":12590:12617  batchSize <= MAX_BATCH_SIZE */\n      gt\n      iszero\n        /* \"val31.sol\":12573:12617  batchSize > 0 && batchSize <= MAX_BATCH_SIZE */\n    tag_38:\n        /* \"val31.sol\":12565:12642  require(batchSize > 0 && batchSize <= MAX_BATCH_SIZE, \"Batch size too large\") */\n      tag_39\n      jumpi\n      mload(0x40)\n      0x08c379a000000000000000000000000000000000000000000000000000000000\n      dup2\n      mstore\n      0x04\n      add\n      tag_40\n      swap1\n      tag_41\n      jump\t// in\n    tag_40:\n      mload(0x40)\n      dup1\n      swap2\n      sub\n      swap1\n      revert\n    tag_39:\n        /* \"val31.sol\":12655:12666  uint256 end */\n      0x00\n        /* \"val31.sol\":12677:12686  batchSize */\n      dup3\n        /* \"val31.sol\":12669:12674  start */\n      dup5\n        /* \"val31.sol\":12669:12686  start + batchSize */\n      tag_42\n      swap2\n      swap1\n      tag_43\n      jump\t// in\n    tag_42:\n        /* \"val31.sol\":12655:12686  uint256 end = start + batchSize */\n      swap1\n      pop\n        /* \"val31.sol\":12708:12716  _numbers */\n      dup6\n      dup6\n        /* \"val31.sol\":12708:12723  _numbers.length */\n      swap1\n      pop\n        /* \"val31.sol\":12702:12705  end */\n      dup2\n        /* \"val31.sol\":12702:12723  end > _numbers.length */\n      gt\n        /* \"val31.sol\":12699:12782  if(end > _numbers.length)... */\n      iszero\n      tag_44\n      jumpi\n        /* \"val31.sol\":12755:12763  _numbers */\n      dup6\n      dup6\n        /* \"val31.sol\":12755:12770  _numbers.length */\n      swap1\n      pop\n        /* \"val31.sol\":12749:12770  end = _numbers.length */\n      swap1\n      pop\n        /* \"val31.sol\":12699:12782  if(end > _numbers.length)... */\n    tag_44:\n        /* \"val31.sol\":12794:12804  uint total */\n      0x00\n        /* \"val31.sol\":12807:12808  0 */\n      0x00\n        /* \"val31.sol\":12794:12808  uint total = 0 */\n      swap1\n      pop\n        /* \"val31.sol\":12825:12834  uint256 i */\n      0x00\n        /* \"val31.sol\":12837:12842  start */\n      dup6\n        /* \"val31.sol\":12825:12842  uint256 i = start */\n      swap1\n      pop\n        /* \"val31.sol\":12821:12914  for(uint256 i = start; i < end; i++)... */\n    tag_45:\n        /* \"val31.sol\":12848:12851  end */\n      dup3\n        /* \"val31.sol\":12844:12845  i */\n      dup2\n        /* \"val31.sol\":12844:12851  i < end */\n      lt\n        /* \"val31.sol\":12821:12914  for(uint256 i = start; i < end; i++)... */\n      iszero\n      tag_46\n      jumpi\n        /* \"val31.sol\":12891:12899  _numbers */\n      dup8\n      dup8\n        /* \"val31.sol\":12900:12901  i */\n      dup3\n        /* \"val31.sol\":12891:12902  _numbers[i] */\n      dup2\n      dup2\n      lt\n      tag_48\n      jumpi\n      tag_49\n      tag_50\n      jump\t// in\n    tag_49:\n    tag_48:\n      swap1\n      pop\n      0x20\n      mul\n      add\n      calldataload\n        /* \"val31.sol\":12882:12902  total += _numbers[i] */\n      dup3\n      tag_51\n      swap2\n      swap1\n      tag_43\n      jump\t// in\n    tag_51:\n      swap2\n      pop\n        /* \"val31.sol\":12853:12856  i++ */\n      dup1\n      dup1\n      0x01\n      add\n      swap2\n      pop\n      pop\n        /* \"val31.sol\":12821:12914  for(uint256 i = start; i < end; i++)... */\n      jump(tag_45)\n    tag_46:\n      pop\n        /* \"val31.sol\":12933:12938  total */\n      dup1\n        /* \"val31.sol\":12926:12938  return total */\n      swap3\n      pop\n      pop\n      pop\n        /* \"val31.sol\":12364:12946  function processBatch(uint256[] calldata _numbers, uint256 start, uint256 batchSize) external pure returns (uint256)... */\n      swap5\n      swap4\n      pop\n      pop\n      pop\n      pop\n      jump\t// out\n        /* \"val31.sol\":11520:11549  uint256 public totalProcessed */\n    tag_16:\n      sload(0x00)\n      dup2\n      jump\t// out\n        /* \"val31.sol\":11728:12280  function processLargeArray(... */\n    tag_21:\n        /* \"val31.sol\":11836:11843  uint256 */\n      0x00\n        /* \"val31.sol\":11863:11876  uint256 total */\n      0x00\n        /* \"val31.sol\":11879:11880  0 */\n      0x00\n        /* \"val31.sol\":11863:11880  uint256 total = 0 */\n      swap1\n      pop\n        /* \"val31.sol\":12055:12064  uint256 i */\n      0x00\n        /* \"val31.sol\":12067:12068  0 */\n      0x00\n        /* \"val31.sol\":12055:12068  uint256 i = 0 */\n      swap1\n      pop\n        /* \"val31.sol\":12050:12145  for (uint256 i = 0; i < _numbers.length; i++) {... */\n    tag_53:\n        /* \"val31.sol\":12074:12082  _numbers */\n      dup5\n      dup5\n        /* \"val31.sol\":12074:12089  _numbers.length */\n      swap1\n      pop\n        /* \"val31.sol\":12070:12071  i */\n      dup2\n        /* \"val31.sol\":12070:12089  i < _numbers.length */\n      lt\n        /* \"val31.sol\":12050:12145  for (uint256 i = 0; i < _numbers.length; i++) {... */\n      iszero\n      tag_54\n      jumpi\n        /* \"val31.sol\":12122:12130  _numbers */\n      dup5\n      dup5\n        /* \"val31.sol\":12131:12132  i */\n      dup3\n        /* \"val31.sol\":12122:12133  _numbers[i] */\n      dup2\n      dup2\n      lt\n      tag_56\n      jumpi\n      tag_57\n      tag_50\n      jump\t// in\n    tag_57:\n    tag_56:\n      swap1\n      pop\n      0x20\n      mul\n      add\n      calldataload\n        /* \"val31.sol\":12113:12133  total += _numbers[i] */\n      dup3\n      tag_58\n      swap2\n      swap1\n      tag_43\n      jump\t// in\n    tag_58:\n      swap2\n      pop\n        /* \"val31.sol\":12091:12094  i++ */\n      dup1\n      dup1\n      0x01\n      add\n      swap2\n      pop\n      pop\n        /* \"val31.sol\":12050:12145  for (uint256 i = 0; i < _numbers.length; i++) {... */\n      jump(tag_53)\n    tag_54:\n      pop\n        /* \"val31.sol\":12242:12247  total */\n      dup1\n        /* \"val31.sol\":12225:12239  totalProcessed */\n      0x00\n        /* \"val31.sol\":12225:12247  totalProcessed = total */\n      dup2\n      swap1\n      sstore\n      pop\n        /* \"val31.sol\":12267:12272  total */\n      dup1\n        /* \"val31.sol\":12260:12272  return total */\n      swap2\n      pop\n      pop\n        /* \"val31.sol\":11728:12280  function processLargeArray(... */\n      swap3\n      swap2\n      pop\n      pop\n      jump\t// out\n        /* \"val31.sol\":12313:12357  uint256 public constant MAX_BATCH_SIZE = 100 */\n    tag_24:\n        /* \"val31.sol\":12354:12357  100 */\n      0x64\n        /* \"val31.sol\":12313:12357  uint256 public constant MAX_BATCH_SIZE = 100 */\n      dup2\n      jump\t// out\n        /* \"val31.sol\":13461:13973  function safeProcessing(... */\n    tag_28:\n        /* \"val31.sol\":13580:13587  uint256 */\n      0x00\n        /* \"val31.sol\":13757:13760  100 */\n      0x64\n        /* \"val31.sol\":13738:13746  _numbers */\n      dup4\n      dup4\n        /* \"val31.sol\":13738:13753  _numbers.length */\n      swap1\n      pop\n        /* \"val31.sol\":13738:13760  _numbers.length <= 100 */\n      gt\n      iszero\n        /* \"val31.sol\":13716:13803  require(... */\n      tag_60\n      jumpi\n      mload(0x40)\n      0x08c379a000000000000000000000000000000000000000000000000000000000\n      dup2\n      mstore\n      0x04\n      add\n      tag_61\n      swap1\n      tag_62\n      jump\t// in\n    tag_61:\n      mload(0x40)\n      dup1\n      swap2\n      sub\n      swap1\n      revert\n    tag_60:\n        /* \"val31.sol\":13816:13829  uint256 total */\n      0x00\n        /* \"val31.sol\":13832:13833  0 */\n      0x00\n        /* \"val31.sol\":13816:13833  uint256 total = 0 */\n      swap1\n      pop\n        /* \"val31.sol\":13851:13860  uint256 i */\n      0x00\n        /* \"val31.sol\":13863:13864  0 */\n      0x00\n        /* \"val31.sol\":13851:13864  uint256 i = 0 */\n      swap1\n      pop\n        /* \"val31.sol\":13846:13941  for (uint256 i = 0; i < _numbers.length; i++) {... */\n    tag_63:\n        /* \"val31.sol\":13870:13878  _numbers */\n      dup5\n      dup5\n        /* \"val31.sol\":13870:13885  _numbers.length */\n      swap1\n      pop\n        /* \"val31.sol\":13866:13867  i */\n      dup2\n        /* \"val31.sol\":13866:13885  i < _numbers.length */\n      lt\n        /* \"val31.sol\":13846:13941  for (uint256 i = 0; i < _numbers.length; i++) {... */\n      iszero\n      tag_64\n      jumpi\n        /* \"val31.sol\":13918:13926  _numbers */\n      dup5\n      dup5\n        /* \"val31.sol\":13927:13928  i */\n      dup3\n        /* \"val31.sol\":13918:13929  _numbers[i] */\n      dup2\n      dup2\n      lt\n      tag_66\n      jumpi\n      tag_67\n      tag_50\n      jump\t// in\n    tag_67:\n    tag_66:\n      swap1\n      pop\n      0x20\n      mul\n      add\n      calldataload\n        /* \"val31.sol\":13909:13929  total += _numbers[i] */\n      dup3\n      tag_68\n      swap2\n      swap1\n      tag_43\n      jump\t// in\n    tag_68:\n      swap2\n      pop\n        /* \"val31.sol\":13887:13890  i++ */\n      dup1\n      dup1\n      0x01\n      add\n      swap2\n      pop\n      pop\n        /* \"val31.sol\":13846:13941  for (uint256 i = 0; i < _numbers.length; i++) {... */\n      jump(tag_63)\n    tag_64:\n      pop\n        /* \"val31.sol\":13960:13965  total */\n      dup1\n        /* \"val31.sol\":13953:13965  return total */\n      swap2\n      pop\n      pop\n        /* \"val31.sol\":13461:13973  function safeProcessing(... */\n      swap3\n      swap2\n      pop\n      pop\n      jump\t// out\n        /* \"val31.sol\":13113:13287  function getArraySize(... */\n    tag_32:\n        /* \"val31.sol\":13230:13237  uint256 */\n      0x00\n        /* \"val31.sol\":13264:13272  _numbers */\n      dup3\n      dup3\n        /* \"val31.sol\":13264:13279  _numbers.length */\n      swap1\n      pop\n        /* \"val31.sol\":13257:13279  return _numbers.length */\n      swap1\n      pop\n        /* \"val31.sol\":13113:13287  function getArraySize(... */\n      swap3\n      swap2\n      pop\n      pop\n      jump\t// out\n        /* \"#utility.yul\":88:205   */\n    tag_71:\n        /* \"#utility.yul\":197:198   */\n      0x00\n        /* \"#utility.yul\":194:195   */\n      0x00\n        /* \"#utility.yul\":187:199   */\n      revert\n        /* \"#utility.yul\":211:328   */\n    tag_72:\n        /* \"#utility.yul\":320:321   */\n      0x00\n        /* \"#utility.yul\":317:318   */\n      0x00\n        /* \"#utility.yul\":310:322   */\n      revert\n        /* \"#utility.yul\":334:451   */\n    tag_73:\n        /* \"#utility.yul\":443:444   */\n      0x00\n        /* \"#utility.yul\":440:441   */\n      0x00\n        /* \"#utility.yul\":433:445   */\n      revert\n        /* \"#utility.yul\":457:574   */\n    tag_74:\n        /* \"#utility.yul\":566:567   */\n      0x00\n        /* \"#utility.yul\":563:564   */\n      0x00\n        /* \"#utility.yul\":556:568   */\n      revert\n        /* \"#utility.yul\":580:697   */\n    tag_75:\n        /* \"#utility.yul\":689:690   */\n      0x00\n        /* \"#utility.yul\":686:687   */\n      0x00\n        /* \"#utility.yul\":679:691   */\n      revert\n        /* \"#utility.yul\":720:1288   */\n    tag_76:\n        /* \"#utility.yul\":793:801   */\n      0x00\n        /* \"#utility.yul\":803:809   */\n      0x00\n        /* \"#utility.yul\":853:856   */\n      dup4\n        /* \"#utility.yul\":846:850   */\n      0x1f\n        /* \"#utility.yul\":838:844   */\n      dup5\n        /* \"#utility.yul\":834:851   */\n      add\n        /* \"#utility.yul\":830:857   */\n      slt\n        /* \"#utility.yul\":820:942   */\n      tag_97\n      jumpi\n        /* \"#utility.yul\":861:940   */\n      tag_98\n      tag_73\n      jump\t// in\n    tag_98:\n        /* \"#utility.yul\":820:942   */\n    tag_97:\n        /* \"#utility.yul\":974:980   */\n      dup3\n        /* \"#utility.yul\":961:981   */\n      calldataload\n        /* \"#utility.yul\":951:981   */\n      swap1\n      pop\n        /* \"#utility.yul\":1004:1022   */\n      0xffffffffffffffff\n        /* \"#utility.yul\":996:1002   */\n      dup2\n        /* \"#utility.yul\":993:1023   */\n      gt\n        /* \"#utility.yul\":990:1107   */\n      iszero\n      tag_99\n      jumpi\n        /* \"#utility.yul\":1026:1105   */\n      tag_100\n      tag_74\n      jump\t// in\n    tag_100:\n        /* \"#utility.yul\":990:1107   */\n    tag_99:\n        /* \"#utility.yul\":1140:1144   */\n      0x20\n        /* \"#utility.yul\":1132:1138   */\n      dup4\n        /* \"#utility.yul\":1128:1145   */\n      add\n        /* \"#utility.yul\":1116:1145   */\n      swap2\n      pop\n        /* \"#utility.yul\":1194:1197   */\n      dup4\n        /* \"#utility.yul\":1186:1190   */\n      0x20\n        /* \"#utility.yul\":1178:1184   */\n      dup3\n        /* \"#utility.yul\":1174:1191   */\n      mul\n        /* \"#utility.yul\":1164:1172   */\n      dup4\n        /* \"#utility.yul\":1160:1192   */\n      add\n        /* \"#utility.yul\":1157:1198   */\n      gt\n        /* \"#utility.yul\":1154:1282   */\n      iszero\n      tag_101\n      jumpi\n        /* \"#utility.yul\":1201:1280   */\n      tag_102\n      tag_75\n      jump\t// in\n    tag_102:\n        /* \"#utility.yul\":1154:1282   */\n    tag_101:\n        /* \"#utility.yul\":720:1288   */\n      swap3\n      pop\n      swap3\n      swap1\n      pop\n      jump\t// out\n        /* \"#utility.yul\":1294:1371   */\n    tag_77:\n        /* \"#utility.yul\":1331:1338   */\n      0x00\n        /* \"#utility.yul\":1360:1365   */\n      dup2\n        /* \"#utility.yul\":1349:1365   */\n      swap1\n      pop\n        /* \"#utility.yul\":1294:1371   */\n      swap2\n      swap1\n      pop\n      jump\t// out\n        /* \"#utility.yul\":1377:1499   */\n    tag_78:\n        /* \"#utility.yul\":1450:1474   */\n      tag_105\n        /* \"#utility.yul\":1468:1473   */\n      dup2\n        /* \"#utility.yul\":1450:1474   */\n      tag_77\n      jump\t// in\n    tag_105:\n        /* \"#utility.yul\":1443:1448   */\n      dup2\n        /* \"#utility.yul\":1440:1475   */\n      eq\n        /* \"#utility.yul\":1430:1493   */\n      tag_106\n      jumpi\n        /* \"#utility.yul\":1489:1490   */\n      0x00\n        /* \"#utility.yul\":1486:1487   */\n      0x00\n        /* \"#utility.yul\":1479:1491   */\n      revert\n        /* \"#utility.yul\":1430:1493   */\n    tag_106:\n        /* \"#utility.yul\":1377:1499   */\n      pop\n      jump\t// out\n        /* \"#utility.yul\":1505:1644   */\n    tag_79:\n        /* \"#utility.yul\":1551:1556   */\n      0x00\n        /* \"#utility.yul\":1589:1595   */\n      dup2\n        /* \"#utility.yul\":1576:1596   */\n      calldataload\n        /* \"#utility.yul\":1567:1596   */\n      swap1\n      pop\n        /* \"#utility.yul\":1605:1638   */\n      tag_108\n        /* \"#utility.yul\":1632:1637   */\n      dup2\n        /* \"#utility.yul\":1605:1638   */\n      tag_78\n      jump\t// in\n    tag_108:\n        /* \"#utility.yul\":1505:1644   */\n      swap3\n      swap2\n      pop\n      pop\n      jump\t// out\n        /* \"#utility.yul\":1650:2499   */\n    tag_11:\n        /* \"#utility.yul\":1754:1760   */\n      0x00\n        /* \"#utility.yul\":1762:1768   */\n      0x00\n        /* \"#utility.yul\":1770:1776   */\n      0x00\n        /* \"#utility.yul\":1778:1784   */\n      0x00\n        /* \"#utility.yul\":1827:1829   */\n      0x60\n        /* \"#utility.yul\":1815:1824   */\n      dup6\n        /* \"#utility.yul\":1806:1813   */\n      dup8\n        /* \"#utility.yul\":1802:1825   */\n      sub\n        /* \"#utility.yul\":1798:1830   */\n      slt\n        /* \"#utility.yul\":1795:1914   */\n      iszero\n      tag_110\n      jumpi\n        /* \"#utility.yul\":1833:1912   */\n      tag_111\n      tag_71\n      jump\t// in\n    tag_111:\n        /* \"#utility.yul\":1795:1914   */\n    tag_110:\n        /* \"#utility.yul\":1981:1982   */\n      0x00\n        /* \"#utility.yul\":1970:1979   */\n      dup6\n        /* \"#utility.yul\":1966:1983   */\n      add\n        /* \"#utility.yul\":1953:1984   */\n      calldataload\n        /* \"#utility.yul\":2011:2029   */\n      0xffffffffffffffff\n        /* \"#utility.yul\":2003:2009   */\n      dup2\n        /* \"#utility.yul\":2000:2030   */\n      gt\n        /* \"#utility.yul\":1997:2114   */\n      iszero\n      tag_112\n      jumpi\n        /* \"#utility.yul\":2033:2112   */\n      tag_113\n      tag_72\n      jump\t// in\n    tag_113:\n        /* \"#utility.yul\":1997:2114   */\n    tag_112:\n        /* \"#utility.yul\":2146:2226   */\n      tag_114\n        /* \"#utility.yul\":2218:2225   */\n      dup8\n        /* \"#utility.yul\":2209:2215   */\n      dup3\n        /* \"#utility.yul\":2198:2207   */\n      dup9\n        /* \"#utility.yul\":2194:2216   */\n      add\n        /* \"#utility.yul\":2146:2226   */\n      tag_76\n      jump\t// in\n    tag_114:\n        /* \"#utility.yul\":2128:2226   */\n      swap5\n      pop\n      swap5\n      pop\n        /* \"#utility.yul\":1924:2236   */\n      pop\n        /* \"#utility.yul\":2275:2277   */\n      0x20\n        /* \"#utility.yul\":2301:2354   */\n      tag_115\n        /* \"#utility.yul\":2346:2353   */\n      dup8\n        /* \"#utility.yul\":2337:2343   */\n      dup3\n        /* \"#utility.yul\":2326:2335   */\n      dup9\n        /* \"#utility.yul\":2322:2344   */\n      add\n        /* \"#utility.yul\":2301:2354   */\n      tag_79\n      jump\t// in\n    tag_115:\n        /* \"#utility.yul\":2291:2354   */\n      swap3\n      pop\n        /* \"#utility.yul\":2246:2364   */\n      pop\n        /* \"#utility.yul\":2403:2405   */\n      0x40\n        /* \"#utility.yul\":2429:2482   */\n      tag_116\n        /* \"#utility.yul\":2474:2481   */\n      dup8\n        /* \"#utility.yul\":2465:2471   */\n      dup3\n        /* \"#utility.yul\":2454:2463   */\n      dup9\n        /* \"#utility.yul\":2450:2472   */\n      add\n        /* \"#utility.yul\":2429:2482   */\n      tag_79\n      jump\t// in\n    tag_116:\n        /* \"#utility.yul\":2419:2482   */\n      swap2\n      pop\n        /* \"#utility.yul\":2374:2492   */\n      pop\n        /* \"#utility.yul\":1650:2499   */\n      swap3\n      swap6\n      swap2\n      swap5\n      pop\n      swap3\n      pop\n      jump\t// out\n        /* \"#utility.yul\":2505:2623   */\n    tag_80:\n        /* \"#utility.yul\":2592:2616   */\n      tag_118\n        /* \"#utility.yul\":2610:2615   */\n      dup2\n        /* \"#utility.yul\":2592:2616   */\n      tag_77\n      jump\t// in\n    tag_118:\n        /* \"#utility.yul\":2587:2590   */\n      dup3\n        /* \"#utility.yul\":2580:2617   */\n      mstore\n        /* \"#utility.yul\":2505:2623   */\n      pop\n      pop\n      jump\t// out\n        /* \"#utility.yul\":2629:2851   */\n    tag_14:\n        /* \"#utility.yul\":2722:2726   */\n      0x00\n        /* \"#utility.yul\":2760:2762   */\n      0x20\n        /* \"#utility.yul\":2749:2758   */\n      dup3\n        /* \"#utility.yul\":2745:2763   */\n      add\n        /* \"#utility.yul\":2737:2763   */\n      swap1\n      pop\n        /* \"#utility.yul\":2773:2844   */\n      tag_120\n        /* \"#utility.yul\":2841:2842   */\n      0x00\n        /* \"#utility.yul\":2830:2839   */\n      dup4\n        /* \"#utility.yul\":2826:2843   */\n      add\n        /* \"#utility.yul\":2817:2823   */\n      dup5\n        /* \"#utility.yul\":2773:2844   */\n      tag_80\n      jump\t// in\n    tag_120:\n        /* \"#utility.yul\":2629:2851   */\n      swap3\n      swap2\n      pop\n      pop\n      jump\t// out\n        /* \"#utility.yul\":2857:3416   */\n    tag_20:\n        /* \"#utility.yul\":2943:2949   */\n      0x00\n        /* \"#utility.yul\":2951:2957   */\n      0x00\n        /* \"#utility.yul\":3000:3002   */\n      0x20\n        /* \"#utility.yul\":2988:2997   */\n      dup4\n        /* \"#utility.yul\":2979:2986   */\n      dup6\n        /* \"#utility.yul\":2975:2998   */\n      sub\n        /* \"#utility.yul\":2971:3003   */\n      slt\n        /* \"#utility.yul\":2968:3087   */\n      iszero\n      tag_122\n      jumpi\n        /* \"#utility.yul\":3006:3085   */\n      tag_123\n      tag_71\n      jump\t// in\n    tag_123:\n        /* \"#utility.yul\":2968:3087   */\n    tag_122:\n        /* \"#utility.yul\":3154:3155   */\n      0x00\n        /* \"#utility.yul\":3143:3152   */\n      dup4\n        /* \"#utility.yul\":3139:3156   */\n      add\n        /* \"#utility.yul\":3126:3157   */\n      calldataload\n        /* \"#utility.yul\":3184:3202   */\n      0xffffffffffffffff\n        /* \"#utility.yul\":3176:3182   */\n      dup2\n        /* \"#utility.yul\":3173:3203   */\n      gt\n        /* \"#utility.yul\":3170:3287   */\n      iszero\n      tag_124\n      jumpi\n        /* \"#utility.yul\":3206:3285   */\n      tag_125\n      tag_72\n      jump\t// in\n    tag_125:\n        /* \"#utility.yul\":3170:3287   */\n    tag_124:\n        /* \"#utility.yul\":3319:3399   */\n      tag_126\n        /* \"#utility.yul\":3391:3398   */\n      dup6\n        /* \"#utility.yul\":3382:3388   */\n      dup3\n        /* \"#utility.yul\":3371:3380   */\n      dup7\n        /* \"#utility.yul\":3367:3389   */\n      add\n        /* \"#utility.yul\":3319:3399   */\n      tag_76\n      jump\t// in\n    tag_126:\n        /* \"#utility.yul\":3301:3399   */\n      swap3\n      pop\n      swap3\n      pop\n        /* \"#utility.yul\":3097:3409   */\n      pop\n        /* \"#utility.yul\":2857:3416   */\n      swap3\n      pop\n      swap3\n      swap1\n      pop\n      jump\t// out\n        /* \"#utility.yul\":3422:3591   */\n    tag_81:\n        /* \"#utility.yul\":3506:3517   */\n      0x00\n        /* \"#utility.yul\":3540:3546   */\n      dup3\n        /* \"#utility.yul\":3535:3538   */\n      dup3\n        /* \"#utility.yul\":3528:3547   */\n      mstore\n        /* \"#utility.yul\":3580:3584   */\n      0x20\n        /* \"#utility.yul\":3575:3578   */\n      dup3\n        /* \"#utility.yul\":3571:3585   */\n      add\n        /* \"#utility.yul\":3556:3585   */\n      swap1\n      pop\n        /* \"#utility.yul\":3422:3591   */\n      swap3\n      swap2\n      pop\n      pop\n      jump\t// out\n        /* \"#utility.yul\":3597:3766   */\n    tag_82:\n        /* \"#utility.yul\":3737:3758   */\n      0x496e76616c696420737461727420696e64657800000000000000000000000000\n        /* \"#utility.yul\":3733:3734   */\n      0x00\n        /* \"#utility.yul\":3725:3731   */\n      dup3\n        /* \"#utility.yul\":3721:3735   */\n      add\n        /* \"#utility.yul\":3714:3759   */\n      mstore\n        /* \"#utility.yul\":3597:3766   */\n      pop\n      jump\t// out\n        /* \"#utility.yul\":3772:4138   */\n    tag_83:\n        /* \"#utility.yul\":3914:3917   */\n      0x00\n        /* \"#utility.yul\":3935:4002   */\n      tag_130\n        /* \"#utility.yul\":3999:4001   */\n      0x13\n        /* \"#utility.yul\":3994:3997   */\n      dup4\n        /* \"#utility.yul\":3935:4002   */\n      tag_81\n      jump\t// in\n    tag_130:\n        /* \"#utility.yul\":3928:4002   */\n      swap2\n      pop\n        /* \"#utility.yul\":4011:4104   */\n      tag_131\n        /* \"#utility.yul\":4100:4103   */\n      dup3\n        /* \"#utility.yul\":4011:4104   */\n      tag_82\n      jump\t// in\n    tag_131:\n        /* \"#utility.yul\":4129:4131   */\n      0x20\n        /* \"#utility.yul\":4124:4127   */\n      dup3\n        /* \"#utility.yul\":4120:4132   */\n      add\n        /* \"#utility.yul\":4113:4132   */\n      swap1\n      pop\n        /* \"#utility.yul\":3772:4138   */\n      swap2\n      swap1\n      pop\n      jump\t// out\n        /* \"#utility.yul\":4144:4563   */\n    tag_37:\n        /* \"#utility.yul\":4310:4314   */\n      0x00\n        /* \"#utility.yul\":4348:4350   */\n      0x20\n        /* \"#utility.yul\":4337:4346   */\n      dup3\n        /* \"#utility.yul\":4333:4351   */\n      add\n        /* \"#utility.yul\":4325:4351   */\n      swap1\n      pop\n        /* \"#utility.yul\":4397:4406   */\n      dup2\n        /* \"#utility.yul\":4391:4395   */\n      dup2\n        /* \"#utility.yul\":4387:4407   */\n      sub\n        /* \"#utility.yul\":4383:4384   */\n      0x00\n        /* \"#utility.yul\":4372:4381   */\n      dup4\n        /* \"#utility.yul\":4368:4385   */\n      add\n        /* \"#utility.yul\":4361:4408   */\n      mstore\n        /* \"#utility.yul\":4425:4556   */\n      tag_133\n        /* \"#utility.yul\":4551:4555   */\n      dup2\n        /* \"#utility.yul\":4425:4556   */\n      tag_83\n      jump\t// in\n    tag_133:\n        /* \"#utility.yul\":4417:4556   */\n      swap1\n      pop\n        /* \"#utility.yul\":4144:4563   */\n      swap2\n      swap1\n      pop\n      jump\t// out\n        /* \"#utility.yul\":4569:4739   */\n    tag_84:\n        /* \"#utility.yul\":4709:4731   */\n      0x42617463682073697a6520746f6f206c61726765000000000000000000000000\n        /* \"#utility.yul\":4705:4706   */\n      0x00\n        /* \"#utility.yul\":4697:4703   */\n      dup3\n        /* \"#utility.yul\":4693:4707   */\n      add\n        /* \"#utility.yul\":4686:4732   */\n      mstore\n        /* \"#utility.yul\":4569:4739   */\n      pop\n      jump\t// out\n        /* \"#utility.yul\":4745:5111   */\n    tag_85:\n        /* \"#utility.yul\":4887:4890   */\n      0x00\n        /* \"#utility.yul\":4908:4975   */\n      tag_136\n        /* \"#utility.yul\":4972:4974   */\n      0x14\n        /* \"#utility.yul\":4967:4970   */\n      dup4\n        /* \"#utility.yul\":4908:4975   */\n      tag_81\n      jump\t// in\n    tag_136:\n        /* \"#utility.yul\":4901:4975   */\n      swap2\n      pop\n        /* \"#utility.yul\":4984:5077   */\n      tag_137\n        /* \"#utility.yul\":5073:5076   */\n      dup3\n        /* \"#utility.yul\":4984:5077   */\n      tag_84\n      jump\t// in\n    tag_137:\n        /* \"#utility.yul\":5102:5104   */\n      0x20\n        /* \"#utility.yul\":5097:5100   */\n      dup3\n        /* \"#utility.yul\":5093:5105   */\n      add\n        /* \"#utility.yul\":5086:5105   */\n      swap1\n      pop\n        /* \"#utility.yul\":4745:5111   */\n      swap2\n      swap1\n      pop\n      jump\t// out\n        /* \"#utility.yul\":5117:5536   */\n    tag_41:\n        /* \"#utility.yul\":5283:5287   */\n      0x00\n        /* \"#utility.yul\":5321:5323   */\n      0x20\n        /* \"#utility.yul\":5310:5319   */\n      dup3\n        /* \"#utility.yul\":5306:5324   */\n      add\n        /* \"#utility.yul\":5298:5324   */\n      swap1\n      pop\n        /* \"#utility.yul\":5370:5379   */\n      dup2\n        /* \"#utility.yul\":5364:5368   */\n      dup2\n        /* \"#utility.yul\":5360:5380   */\n      sub\n        /* \"#utility.yul\":5356:5357   */\n      0x00\n        /* \"#utility.yul\":5345:5354   */\n      dup4\n        /* \"#utility.yul\":5341:5358   */\n      add\n        /* \"#utility.yul\":5334:5381   */\n      mstore\n        /* \"#utility.yul\":5398:5529   */\n      tag_139\n        /* \"#utility.yul\":5524:5528   */\n      dup2\n        /* \"#utility.yul\":5398:5529   */\n      tag_85\n      jump\t// in\n    tag_139:\n        /* \"#utility.yul\":5390:5529   */\n      swap1\n      pop\n        /* \"#utility.yul\":5117:5536   */\n      swap2\n      swap1\n      pop\n      jump\t// out\n        /* \"#utility.yul\":5542:5722   */\n    tag_86:\n        /* \"#utility.yul\":5590:5667   */\n      0x4e487b7100000000000000000000000000000000000000000000000000000000\n        /* \"#utility.yul\":5587:5588   */\n      0x00\n        /* \"#utility.yul\":5580:5668   */\n      mstore\n        /* \"#utility.yul\":5687:5691   */\n      0x11\n        /* \"#utility.yul\":5684:5685   */\n      0x04\n        /* \"#utility.yul\":5677:5692   */\n      mstore\n        /* \"#utility.yul\":5711:5715   */\n      0x24\n        /* \"#utility.yul\":5708:5709   */\n      0x00\n        /* \"#utility.yul\":5701:5716   */\n      revert\n        /* \"#utility.yul\":5728:5919   */\n    tag_43:\n        /* \"#utility.yul\":5768:5771   */\n      0x00\n        /* \"#utility.yul\":5787:5807   */\n      tag_142\n        /* \"#utility.yul\":5805:5806   */\n      dup3\n        /* \"#utility.yul\":5787:5807   */\n      tag_77\n      jump\t// in\n    tag_142:\n        /* \"#utility.yul\":5782:5807   */\n      swap2\n      pop\n        /* \"#utility.yul\":5821:5841   */\n      tag_143\n        /* \"#utility.yul\":5839:5840   */\n      dup4\n        /* \"#utility.yul\":5821:5841   */\n      tag_77\n      jump\t// in\n    tag_143:\n        /* \"#utility.yul\":5816:5841   */\n      swap3\n      pop\n        /* \"#utility.yul\":5864:5865   */\n      dup3\n        /* \"#utility.yul\":5861:5862   */\n      dup3\n        /* \"#utility.yul\":5857:5866   */\n      add\n        /* \"#utility.yul\":5850:5866   */\n      swap1\n      pop\n        /* \"#utility.yul\":5885:5888   */\n      dup1\n        /* \"#utility.yul\":5882:5883   */\n      dup3\n        /* \"#utility.yul\":5879:5889   */\n      gt\n        /* \"#utility.yul\":5876:5912   */\n      iszero\n      tag_144\n      jumpi\n        /* \"#utility.yul\":5892:5910   */\n      tag_145\n      tag_86\n      jump\t// in\n    tag_145:\n        /* \"#utility.yul\":5876:5912   */\n    tag_144:\n        /* \"#utility.yul\":5728:5919   */\n      swap3\n      swap2\n      pop\n      pop\n      jump\t// out\n        /* \"#utility.yul\":5925:6105   */\n    tag_50:\n        /* \"#utility.yul\":5973:6050   */\n      0x4e487b7100000000000000000000000000000000000000000000000000000000\n        /* \"#utility.yul\":5970:5971   */\n      0x00\n        /* \"#utility.yul\":5963:6051   */\n      mstore\n        /* \"#utility.yul\":6070:6074   */\n      0x32\n        /* \"#utility.yul\":6067:6068   */\n      0x04\n        /* \"#utility.yul\":6060:6075   */\n      mstore\n        /* \"#utility.yul\":6094:6098   */\n      0x24\n        /* \"#utility.yul\":6091:6092   */\n      0x00\n        /* \"#utility.yul\":6084:6099   */\n      revert\n        /* \"#utility.yul\":6111:6276   */\n    tag_87:\n        /* \"#utility.yul\":6251:6268   */\n      0x417272617920746f6f206c617267650000000000000000000000000000000000\n        /* \"#utility.yul\":6247:6248   */\n      0x00\n        /* \"#utility.yul\":6239:6245   */\n      dup3\n        /* \"#utility.yul\":6235:6249   */\n      add\n        /* \"#utility.yul\":6228:6269   */\n      mstore\n        /* \"#utility.yul\":6111:6276   */\n      pop\n      jump\t// out\n        /* \"#utility.yul\":6282:6648   */\n    tag_88:\n        /* \"#utility.yul\":6424:6427   */\n      0x00\n        /* \"#utility.yul\":6445:6512   */\n      tag_149\n        /* \"#utility.yul\":6509:6511   */\n      0x0f\n        /* \"#utility.yul\":6504:6507   */\n      dup4\n        /* \"#utility.yul\":6445:6512   */\n      tag_81\n      jump\t// in\n    tag_149:\n        /* \"#utility.yul\":6438:6512   */\n      swap2\n      pop\n        /* \"#utility.yul\":6521:6614   */\n      tag_150\n        /* \"#utility.yul\":6610:6613   */\n      dup3\n        /* \"#utility.yul\":6521:6614   */\n      tag_87\n      jump\t// in\n    tag_150:\n        /* \"#utility.yul\":6639:6641   */\n      0x20\n        /* \"#utility.yul\":6634:6637   */\n      dup3\n        /* \"#utility.yul\":6630:6642   */\n      add\n        /* \"#utility.yul\":6623:6642   */\n      swap1\n      pop\n        /* \"#utility.yul\":6282:6648   */\n      swap2\n      swap1\n      pop\n      jump\t// out\n        /* \"#utility.yul\":6654:7073   */\n    tag_62:\n        /* \"#utility.yul\":6820:6824   */\n      0x00\n        /* \"#utility.yul\":6858:6860   */\n      0x20\n        /* \"#utility.yul\":6847:6856   */\n      dup3\n        /* \"#utility.yul\":6843:6861   */\n      add\n        /* \"#utility.yul\":6835:6861   */\n      swap1\n      pop\n        /* \"#utility.yul\":6907:6916   */\n      dup2\n        /* \"#utility.yul\":6901:6905   */\n      dup2\n        /* \"#utility.yul\":6897:6917   */\n      sub\n        /* \"#utility.yul\":6893:6894   */\n      0x00\n        /* \"#utility.yul\":6882:6891   */\n      dup4\n        /* \"#utility.yul\":6878:6895   */\n      add\n        /* \"#utility.yul\":6871:6918   */\n      mstore\n        /* \"#utility.yul\":6935:7066   */\n      tag_152\n        /* \"#utility.yul\":7061:7065   */\n      dup2\n        /* \"#utility.yul\":6935:7066   */\n      tag_88\n      jump\t// in\n    tag_152:\n        /* \"#utility.yul\":6927:7066   */\n      swap1\n      pop\n        /* \"#utility.yul\":6654:7073   */\n      swap2\n      swap1\n      pop\n      jump\t// out\n\n    auxdata: 0xa2646970667358221220a6bd2c9e9c7dc85495c33d70f94a097286e37945ac295962d687f0511be2a69964736f6c63430008220033\n}\n",
				"bytecode": {
					"linkReferences": {},
					"object": "6080604052348015600e575f5ffd5b506107008061001c5f395ff3fe608060405234801561000f575f5ffd5b5060043610610060575f3560e01c8063612199fe1461006457806384411d6514610094578063bb394844146100b2578063cfdbf254146100e2578063d807576114610100578063dab7a07314610130575b5f5ffd5b61007e60048036038101906100799190610411565b610160565b60405161008b9190610491565b60405180910390f35b61009c610269565b6040516100a99190610491565b60405180910390f35b6100cc60048036038101906100c791906104aa565b61026e565b6040516100d99190610491565b60405180910390f35b6100ea6102c8565b6040516100f79190610491565b60405180910390f35b61011a600480360381019061011591906104aa565b6102cd565b6040516101279190610491565b60405180910390f35b61014a600480360381019061014591906104aa565b610368565b6040516101579190610491565b60405180910390f35b5f8484905083106101a6576040517f08c379a000000000000000000000000000000000000000000000000000000000815260040161019d9061054f565b60405180910390fd5b5f821180156101b6575060648211155b6101f5576040517f08c379a00000000000000000000000000000000000000000000000000000000081526004016101ec906105b7565b60405180910390fd5b5f82846102029190610602565b905085859050811115610216578585905090505b5f5f90505f8590505b8281101561025b5787878281811061023a57610239610635565b5b905060200201358261024c9190610602565b9150808060010191505061021f565b508092505050949350505050565b5f5481565b5f5f5f90505f5f90505b848490508110156102b75784848281811061029657610295610635565b5b90506020020135826102a89190610602565b91508080600101915050610278565b50805f819055508091505092915050565b606481565b5f6064838390501115610315576040517f08c379a000000000000000000000000000000000000000000000000000000000815260040161030c906106ac565b60405180910390fd5b5f5f90505f5f90505b8484905081101561035d5784848281811061033c5761033b610635565b5b905060200201358261034e9190610602565b9150808060010191505061031e565b508091505092915050565b5f82829050905092915050565b5f5ffd5b5f5ffd5b5f5ffd5b5f5ffd5b5f5ffd5b5f5f83601f84011261039e5761039d61037d565b5b8235905067ffffffffffffffff8111156103bb576103ba610381565b5b6020830191508360208202830111156103d7576103d6610385565b5b9250929050565b5f819050919050565b6103f0816103de565b81146103fa575f5ffd5b50565b5f8135905061040b816103e7565b92915050565b5f5f5f5f6060858703121561042957610428610375565b5b5f85013567ffffffffffffffff81111561044657610445610379565b5b61045287828801610389565b94509450506020610465878288016103fd565b9250506040610476878288016103fd565b91505092959194509250565b61048b816103de565b82525050565b5f6020820190506104a45f830184610482565b92915050565b5f5f602083850312156104c0576104bf610375565b5b5f83013567ffffffffffffffff8111156104dd576104dc610379565b5b6104e985828601610389565b92509250509250929050565b5f82825260208201905092915050565b7f496e76616c696420737461727420696e646578000000000000000000000000005f82015250565b5f6105396013836104f5565b915061054482610505565b602082019050919050565b5f6020820190508181035f8301526105668161052d565b9050919050565b7f42617463682073697a6520746f6f206c617267650000000000000000000000005f82015250565b5f6105a16014836104f5565b91506105ac8261056d565b602082019050919050565b5f6020820190508181035f8301526105ce81610595565b9050919050565b7f4e487b71000000000000000000000000000000000000000000000000000000005f52601160045260245ffd5b5f61060c826103de565b9150610617836103de565b925082820190508082111561062f5761062e6105d5565b5b92915050565b7f4e487b71000000000000000000000000000000000000000000000000000000005f52603260045260245ffd5b7f417272617920746f6f206c6172676500000000000000000000000000000000005f82015250565b5f610696600f836104f5565b91506106a182610662565b602082019050919050565b5f6020820190508181035f8301526106c38161068a565b905091905056fea2646970667358221220a6bd2c9e9c7dc85495c33d70f94a097286e37945ac295962d687f0511be2a69964736f6c63430008220033",
					"opcodes": "PUSH1 0x80 PUSH1 0x40 MSTORE CALLVALUE DUP1 ISZERO PUSH1 0xE JUMPI PUSH0 PUSH0 REVERT JUMPDEST POP PUSH2 0x700 DUP1 PUSH2 0x1C PUSH0 CODECOPY PUSH0 RETURN INVALID PUSH1 0x80 PUSH1 0x40 MSTORE CALLVALUE DUP1 ISZERO PUSH2 0xF JUMPI PUSH0 PUSH0 REVERT JUMPDEST POP PUSH1 0x4 CALLDATASIZE LT PUSH2 0x60 JUMPI PUSH0 CALLDATALOAD PUSH1 0xE0 SHR DUP1 PUSH4 0x612199FE EQ PUSH2 0x64 JUMPI DUP1 PUSH4 0x84411D65 EQ PUSH2 0x94 JUMPI DUP1 PUSH4 0xBB394844 EQ PUSH2 0xB2 JUMPI DUP1 PUSH4 0xCFDBF254 EQ PUSH2 0xE2 JUMPI DUP1 PUSH4 0xD8075761 EQ PUSH2 0x100 JUMPI DUP1 PUSH4 0xDAB7A073 EQ PUSH2 0x130 JUMPI JUMPDEST PUSH0 PUSH0 REVERT JUMPDEST PUSH2 0x7E PUSH1 0x4 DUP1 CALLDATASIZE SUB DUP2 ADD SWAP1 PUSH2 0x79 SWAP2 SWAP1 PUSH2 0x411 JUMP JUMPDEST PUSH2 0x160 JUMP JUMPDEST PUSH1 0x40 MLOAD PUSH2 0x8B SWAP2 SWAP1 PUSH2 0x491 JUMP JUMPDEST PUSH1 0x40 MLOAD DUP1 SWAP2 SUB SWAP1 RETURN JUMPDEST PUSH2 0x9C PUSH2 0x269 JUMP JUMPDEST PUSH1 0x40 MLOAD PUSH2 0xA9 SWAP2 SWAP1 PUSH2 0x491 JUMP JUMPDEST PUSH1 0x40 MLOAD DUP1 SWAP2 SUB SWAP1 RETURN JUMPDEST PUSH2 0xCC PUSH1 0x4 DUP1 CALLDATASIZE SUB DUP2 ADD SWAP1 PUSH2 0xC7 SWAP2 SWAP1 PUSH2 0x4AA JUMP JUMPDEST PUSH2 0x26E JUMP JUMPDEST PUSH1 0x40 MLOAD PUSH2 0xD9 SWAP2 SWAP1 PUSH2 0x491 JUMP JUMPDEST PUSH1 0x40 MLOAD DUP1 SWAP2 SUB SWAP1 RETURN JUMPDEST PUSH2 0xEA PUSH2 0x2C8 JUMP JUMPDEST PUSH1 0x40 MLOAD PUSH2 0xF7 SWAP2 SWAP1 PUSH2 0x491 JUMP JUMPDEST PUSH1 0x40 MLOAD DUP1 SWAP2 SUB SWAP1 RETURN JUMPDEST PUSH2 0x11A PUSH1 0x4 DUP1 CALLDATASIZE SUB DUP2 ADD SWAP1 PUSH2 0x115 SWAP2 SWAP1 PUSH2 0x4AA JUMP JUMPDEST PUSH2 0x2CD JUMP JUMPDEST PUSH1 0x40 MLOAD PUSH2 0x127 SWAP2 SWAP1 PUSH2 0x491 JUMP JUMPDEST PUSH1 0x40 MLOAD DUP1 SWAP2 SUB SWAP1 RETURN JUMPDEST PUSH2 0x14A PUSH1 0x4 DUP1 CALLDATASIZE SUB DUP2 ADD SWAP1 PUSH2 0x145 SWAP2 SWAP1 PUSH2 0x4AA JUMP JUMPDEST PUSH2 0x368 JUMP JUMPDEST PUSH1 0x40 MLOAD PUSH2 0x157 SWAP2 SWAP1 PUSH2 0x491 JUMP JUMPDEST PUSH1 0x40 MLOAD DUP1 SWAP2 SUB SWAP1 RETURN JUMPDEST PUSH0 DUP5 DUP5 SWAP1 POP DUP4 LT PUSH2 0x1A6 JUMPI PUSH1 0x40 MLOAD PUSH32 0x8C379A000000000000000000000000000000000000000000000000000000000 DUP2 MSTORE PUSH1 0x4 ADD PUSH2 0x19D SWAP1 PUSH2 0x54F JUMP JUMPDEST PUSH1 0x40 MLOAD DUP1 SWAP2 SUB SWAP1 REVERT JUMPDEST PUSH0 DUP3 GT DUP1 ISZERO PUSH2 0x1B6 JUMPI POP PUSH1 0x64 DUP3 GT ISZERO JUMPDEST PUSH2 0x1F5 JUMPI PUSH1 0x40 MLOAD PUSH32 0x8C379A000000000000000000000000000000000000000000000000000000000 DUP2 MSTORE PUSH1 0x4 ADD PUSH2 0x1EC SWAP1 PUSH2 0x5B7 JUMP JUMPDEST PUSH1 0x40 MLOAD DUP1 SWAP2 SUB SWAP1 REVERT JUMPDEST PUSH0 DUP3 DUP5 PUSH2 0x202 SWAP2 SWAP1 PUSH2 0x602 JUMP JUMPDEST SWAP1 POP DUP6 DUP6 SWAP1 POP DUP2 GT ISZERO PUSH2 0x216 JUMPI DUP6 DUP6 SWAP1 POP SWAP1 POP JUMPDEST PUSH0 PUSH0 SWAP1 POP PUSH0 DUP6 SWAP1 POP JUMPDEST DUP3 DUP2 LT ISZERO PUSH2 0x25B JUMPI DUP8 DUP8 DUP3 DUP2 DUP2 LT PUSH2 0x23A JUMPI PUSH2 0x239 PUSH2 0x635 JUMP JUMPDEST JUMPDEST SWAP1 POP PUSH1 0x20 MUL ADD CALLDATALOAD DUP3 PUSH2 0x24C SWAP2 SWAP1 PUSH2 0x602 JUMP JUMPDEST SWAP2 POP DUP1 DUP1 PUSH1 0x1 ADD SWAP2 POP POP PUSH2 0x21F JUMP JUMPDEST POP DUP1 SWAP3 POP POP POP SWAP5 SWAP4 POP POP POP POP JUMP JUMPDEST PUSH0 SLOAD DUP2 JUMP JUMPDEST PUSH0 PUSH0 PUSH0 SWAP1 POP PUSH0 PUSH0 SWAP1 POP JUMPDEST DUP5 DUP5 SWAP1 POP DUP2 LT ISZERO PUSH2 0x2B7 JUMPI DUP5 DUP5 DUP3 DUP2 DUP2 LT PUSH2 0x296 JUMPI PUSH2 0x295 PUSH2 0x635 JUMP JUMPDEST JUMPDEST SWAP1 POP PUSH1 0x20 MUL ADD CALLDATALOAD DUP3 PUSH2 0x2A8 SWAP2 SWAP1 PUSH2 0x602 JUMP JUMPDEST SWAP2 POP DUP1 DUP1 PUSH1 0x1 ADD SWAP2 POP POP PUSH2 0x278 JUMP JUMPDEST POP DUP1 PUSH0 DUP2 SWAP1 SSTORE POP DUP1 SWAP2 POP POP SWAP3 SWAP2 POP POP JUMP JUMPDEST PUSH1 0x64 DUP2 JUMP JUMPDEST PUSH0 PUSH1 0x64 DUP4 DUP4 SWAP1 POP GT ISZERO PUSH2 0x315 JUMPI PUSH1 0x40 MLOAD PUSH32 0x8C379A000000000000000000000000000000000000000000000000000000000 DUP2 MSTORE PUSH1 0x4 ADD PUSH2 0x30C SWAP1 PUSH2 0x6AC JUMP JUMPDEST PUSH1 0x40 MLOAD DUP1 SWAP2 SUB SWAP1 REVERT JUMPDEST PUSH0 PUSH0 SWAP1 POP PUSH0 PUSH0 SWAP1 POP JUMPDEST DUP5 DUP5 SWAP1 POP DUP2 LT ISZERO PUSH2 0x35D JUMPI DUP5 DUP5 DUP3 DUP2 DUP2 LT PUSH2 0x33C JUMPI PUSH2 0x33B PUSH2 0x635 JUMP JUMPDEST JUMPDEST SWAP1 POP PUSH1 0x20 MUL ADD CALLDATALOAD DUP3 PUSH2 0x34E SWAP2 SWAP1 PUSH2 0x602 JUMP JUMPDEST SWAP2 POP DUP1 DUP1 PUSH1 0x1 ADD SWAP2 POP POP PUSH2 0x31E JUMP JUMPDEST POP DUP1 SWAP2 POP POP SWAP3 SWAP2 POP POP JUMP JUMPDEST PUSH0 DUP3 DUP3 SWAP1 POP SWAP1 POP SWAP3 SWAP2 POP POP JUMP JUMPDEST PUSH0 PUSH0 REVERT JUMPDEST PUSH0 PUSH0 REVERT JUMPDEST PUSH0 PUSH0 REVERT JUMPDEST PUSH0 PUSH0 REVERT JUMPDEST PUSH0 PUSH0 REVERT JUMPDEST PUSH0 PUSH0 DUP4 PUSH1 0x1F DUP5 ADD SLT PUSH2 0x39E JUMPI PUSH2 0x39D PUSH2 0x37D JUMP JUMPDEST JUMPDEST DUP3 CALLDATALOAD SWAP1 POP PUSH8 0xFFFFFFFFFFFFFFFF DUP2 GT ISZERO PUSH2 0x3BB JUMPI PUSH2 0x3BA PUSH2 0x381 JUMP JUMPDEST JUMPDEST PUSH1 0x20 DUP4 ADD SWAP2 POP DUP4 PUSH1 0x20 DUP3 MUL DUP4 ADD GT ISZERO PUSH2 0x3D7 JUMPI PUSH2 0x3D6 PUSH2 0x385 JUMP JUMPDEST JUMPDEST SWAP3 POP SWAP3 SWAP1 POP JUMP JUMPDEST PUSH0 DUP2 SWAP1 POP SWAP2 SWAP1 POP JUMP JUMPDEST PUSH2 0x3F0 DUP2 PUSH2 0x3DE JUMP JUMPDEST DUP2 EQ PUSH2 0x3FA JUMPI PUSH0 PUSH0 REVERT JUMPDEST POP JUMP JUMPDEST PUSH0 DUP2 CALLDATALOAD SWAP1 POP PUSH2 0x40B DUP2 PUSH2 0x3E7 JUMP JUMPDEST SWAP3 SWAP2 POP POP JUMP JUMPDEST PUSH0 PUSH0 PUSH0 PUSH0 PUSH1 0x60 DUP6 DUP8 SUB SLT ISZERO PUSH2 0x429 JUMPI PUSH2 0x428 PUSH2 0x375 JUMP JUMPDEST JUMPDEST PUSH0 DUP6 ADD CALLDATALOAD PUSH8 0xFFFFFFFFFFFFFFFF DUP2 GT ISZERO PUSH2 0x446 JUMPI PUSH2 0x445 PUSH2 0x379 JUMP JUMPDEST JUMPDEST PUSH2 0x452 DUP8 DUP3 DUP9 ADD PUSH2 0x389 JUMP JUMPDEST SWAP5 POP SWAP5 POP POP PUSH1 0x20 PUSH2 0x465 DUP8 DUP3 DUP9 ADD PUSH2 0x3FD JUMP JUMPDEST SWAP3 POP POP PUSH1 0x40 PUSH2 0x476 DUP8 DUP3 DUP9 ADD PUSH2 0x3FD JUMP JUMPDEST SWAP2 POP POP SWAP3 SWAP6 SWAP2 SWAP5 POP SWAP3 POP JUMP JUMPDEST PUSH2 0x48B DUP2 PUSH2 0x3DE JUMP JUMPDEST DUP3 MSTORE POP POP JUMP JUMPDEST PUSH0 PUSH1 0x20 DUP3 ADD SWAP1 POP PUSH2 0x4A4 PUSH0 DUP4 ADD DUP5 PUSH2 0x482 JUMP JUMPDEST SWAP3 SWAP2 POP POP JUMP JUMPDEST PUSH0 PUSH0 PUSH1 0x20 DUP4 DUP6 SUB SLT ISZERO PUSH2 0x4C0 JUMPI PUSH2 0x4BF PUSH2 0x375 JUMP JUMPDEST JUMPDEST PUSH0 DUP4 ADD CALLDATALOAD PUSH8 0xFFFFFFFFFFFFFFFF DUP2 GT ISZERO PUSH2 0x4DD JUMPI PUSH2 0x4DC PUSH2 0x379 JUMP JUMPDEST JUMPDEST PUSH2 0x4E9 DUP6 DUP3 DUP7 ADD PUSH2 0x389 JUMP JUMPDEST SWAP3 POP SWAP3 POP POP SWAP3 POP SWAP3 SWAP1 POP JUMP JUMPDEST PUSH0 DUP3 DUP3 MSTORE PUSH1 0x20 DUP3 ADD SWAP1 POP SWAP3 SWAP2 POP POP JUMP JUMPDEST PUSH32 0x496E76616C696420737461727420696E64657800000000000000000000000000 PUSH0 DUP3 ADD MSTORE POP JUMP JUMPDEST PUSH0 PUSH2 0x539 PUSH1 0x13 DUP4 PUSH2 0x4F5 JUMP JUMPDEST SWAP2 POP PUSH2 0x544 DUP3 PUSH2 0x505 JUMP JUMPDEST PUSH1 0x20 DUP3 ADD SWAP1 POP SWAP2 SWAP1 POP JUMP JUMPDEST PUSH0 PUSH1 0x20 DUP3 ADD SWAP1 POP DUP2 DUP2 SUB PUSH0 DUP4 ADD MSTORE PUSH2 0x566 DUP2 PUSH2 0x52D JUMP JUMPDEST SWAP1 POP SWAP2 SWAP1 POP JUMP JUMPDEST PUSH32 0x42617463682073697A6520746F6F206C61726765000000000000000000000000 PUSH0 DUP3 ADD MSTORE POP JUMP JUMPDEST PUSH0 PUSH2 0x5A1 PUSH1 0x14 DUP4 PUSH2 0x4F5 JUMP JUMPDEST SWAP2 POP PUSH2 0x5AC DUP3 PUSH2 0x56D JUMP JUMPDEST PUSH1 0x20 DUP3 ADD SWAP1 POP SWAP2 SWAP1 POP JUMP JUMPDEST PUSH0 PUSH1 0x20 DUP3 ADD SWAP1 POP DUP2 DUP2 SUB PUSH0 DUP4 ADD MSTORE PUSH2 0x5CE DUP2 PUSH2 0x595 JUMP JUMPDEST SWAP1 POP SWAP2 SWAP1 POP JUMP JUMPDEST PUSH32 0x4E487B7100000000000000000000000000000000000000000000000000000000 PUSH0 MSTORE PUSH1 0x11 PUSH1 0x4 MSTORE PUSH1 0x24 PUSH0 REVERT JUMPDEST PUSH0 PUSH2 0x60C DUP3 PUSH2 0x3DE JUMP JUMPDEST SWAP2 POP PUSH2 0x617 DUP4 PUSH2 0x3DE JUMP JUMPDEST SWAP3 POP DUP3 DUP3 ADD SWAP1 POP DUP1 DUP3 GT ISZERO PUSH2 0x62F JUMPI PUSH2 0x62E PUSH2 0x5D5 JUMP JUMPDEST JUMPDEST SWAP3 SWAP2 POP POP JUMP JUMPDEST PUSH32 0x4E487B7100000000000000000000000000000000000000000000000000000000 PUSH0 MSTORE PUSH1 0x32 PUSH1 0x4 MSTORE PUSH1 0x24 PUSH0 REVERT JUMPDEST PUSH32 0x417272617920746F6F206C617267650000000000000000000000000000000000 PUSH0 DUP3 ADD MSTORE POP JUMP JUMPDEST PUSH0 PUSH2 0x696 PUSH1 0xF DUP4 PUSH2 0x4F5 JUMP JUMPDEST SWAP2 POP PUSH2 0x6A1 DUP3 PUSH2 0x662 JUMP JUMPDEST PUSH1 0x20 DUP3 ADD SWAP1 POP SWAP2 SWAP1 POP JUMP JUMPDEST PUSH0 PUSH1 0x20 DUP3 ADD SWAP1 POP DUP2 DUP2 SUB PUSH0 DUP4 ADD MSTORE PUSH2 0x6C3 DUP2 PUSH2 0x68A JUMP JUMPDEST SWAP1 POP SWAP2 SWAP1 POP JUMP INVALID LOG2 PUSH5 0x6970667358 0x22 SLT KECCAK256 0xA6 0xBD 0x2C SWAP15 SWAP13 PUSH30 0xC85495C33D70F94A097286E37945AC295962D687F0511BE2A69964736F6C PUSH4 0x43000822 STOP CALLER "
				},
				"gasEstimates": {
					"creation": {
						"codeDepositCost": "358400",
						"executionCost": "391",
						"totalCost": "358791"
					},
					"external": {
						"MAX_BATCH_SIZE()": "369",
						"getArraySize(uint256[])": "756",
						"processBatch(uint256[],uint256,uint256)": "infinite",
						"processLargeArray(uint256[])": "infinite",
						"safeProcessing(uint256[])": "infinite",
						"totalProcessed()": "2424"
					}
				},
				"methodIdentifiers": {
					"MAX_BATCH_SIZE()": "cfdbf254",
					"getArraySize(uint256[])": "dab7a073",
					"processBatch(uint256[],uint256,uint256)": "612199fe",
					"processLargeArray(uint256[])": "bb394844",
					"safeProcessing(uint256[])": "d8075761",
					"totalProcessed()": "84411d65"
				}
			},
			"storageLayout": {
				"storage": [
					{
						"astId": 98,
						"contract": "val31.sol:LargeCalldataArray",
						"label": "totalProcessed",
						"offset": 0,
						"slot": "0",
						"type": "t_uint256"
					}
				],
				"types": {
					"t_uint256": {
						"encoding": "inplace",
						"label": "uint256",
						"numberOfBytes": "32"
					}
				}
			},
			"userdoc": {
				"kind": "user",
				"methods": {},
				"version": 1
			}
		}
	}
}