{
	"data": {
		"bytecode": {
			"linkReferences": {},
			"object": "6080604052348015600e575f5ffd5b50610d6a8061001c5f395ff3fe608060405234801561000f575f5ffd5b5060043610610091575f3560e01c80637aa63a86116100645780637aa63a86146101075780638af77bd7146101255780638b7afe2e1461014357806395c570bd146101615780639e6aa3481461017f57610091565b8063416e366d146100955780634869f99d146100b157806376064fb4146100cf5780637a8cee63146100eb575b5f5ffd5b6100af60048036038101906100aa9190610640565b6101af565b005b6100b96102b6565b6040516100c691906106a3565b60405180910390f35b6100e960048036038101906100e49190610711565b6102bb565b005b61010560048036038101906101009190610640565b610459565b005b61010f610560565b60405161011c91906106a3565b60405180910390f35b61012d610569565b60405161013a91906106a3565b60405180910390f35b61014b61056f565b60405161015891906106a3565b60405180910390f35b610169610576565b60405161017691906106a3565b60405180910390f35b610199600480360381019061019491906108ce565b61057c565b6040516101a691906106a3565b60405180910390f35b6101f48282905011156101f7576040517f08c379a00000000000000000000000000000000000000000000000000000000081526004016101ee9061096f565b60405180910390fd5b5f5a90505f5f90505f5f90505b84849050811015610243578484828181106102225761022161098d565b5b905060200201358261023491906109e7565b91508080600101915050610204565b508383905060015f82825461025891906109e7565b92505081905550805f819055505a826102719190610a1a565b6002819055507f4d605d112b717b70b80f393cc6a0239ae0459508e54af125ee28f92acbf7fc496002546040516102a89190610a97565b60405180910390a150505050565b5f5481565b5f5a90505f5f90505f5f90505f5f90505b858590508110156103e8576101f48686838181106102ed576102ec61098d565b5b90506020028101906102ff9190610acf565b90501115610342576040517f08c379a000000000000000000000000000000000000000000000000000000000815260040161033990610b7b565b60405180910390fd5b5f5f90505b86868381811061035a5761035961098d565b5b905060200281019061036c9190610acf565b90508110156103da578686838181106103885761038761098d565b5b905060200281019061039a9190610acf565b828181106103ab576103aa61098d565b5b90506020020135846103bd91906109e7565b935082806103ca90610b99565b9350508080600101915050610347565b5080806001019150506102cc565b50815f819055508060015f82825461040091906109e7565b925050819055505a836104139190610a1a565b6002819055507f4d605d112b717b70b80f393cc6a0239ae0459508e54af125ee28f92acbf7fc4960025460405161044a9190610c2a565b60405180910390a15050505050565b6103e88282905011156104a1576040517f08c379a000000000000000000000000000000000000000000000000000000000815260040161049890610ca0565b60405180910390fd5b5f5a90505f5f90505f5f90505b84849050811015610559578484828181106104cc576104cb61098d565b5b90506020020135826104de91906109e7565b9150815f819055508484905060015f8282546104fa91906109e7565b925050819055505a8361050d9190610a1a565b6002819055507f4d605d112b717b70b80f393cc6a0239ae0459508e54af125ee28f92acbf7fc496002546040516105449190610d08565b60405180910390a180806001019150506104ae565b5050505050565b5f600154905090565b60015481565b5f47905090565b60025481565b5f5f5f90505f5f90505b83518110156105c4578381815181106105a2576105a161098d565b5b6020026020010151826105b591906109e7565b91508080600101915050610586565b5080915050919050565b5f604051905090565b5f5ffd5b5f5ffd5b5f5ffd5b5f5ffd5b5f5ffd5b5f5f83601f840112610600576105ff6105df565b5b8235905067ffffffffffffffff81111561061d5761061c6105e3565b5b602083019150836020820283011115610639576106386105e7565b5b9250929050565b5f5f60208385031215610656576106556105d7565b5b5f83013567ffffffffffffffff811115610673576106726105db565b5b61067f858286016105eb565b92509250509250929050565b5f819050919050565b61069d8161068b565b82525050565b5f6020820190506106b65f830184610694565b92915050565b5f5f83601f8401126106d1576106d06105df565b5b8235905067ffffffffffffffff8111156106ee576106ed6105e3565b5b60208301915083602082028301111561070a576107096105e7565b5b9250929050565b5f5f60208385031215610727576107266105d7565b5b5f83013567ffffffffffffffff811115610744576107436105db565b5b610750858286016106bc565b92509250509250929050565b5f601f19601f8301169050919050565b7f4e487b71000000000000000000000000000000000000000000000000000000005f52604160045260245ffd5b6107a28261075c565b810181811067ffffffffffffffff821117156107c1576107c061076c565b5b80604052505050565b5f6107d36105ce565b90506107df8282610799565b919050565b5f67ffffffffffffffff8211156107fe576107fd61076c565b5b602082029050602081019050919050565b6108188161068b565b8114610822575f5ffd5b50565b5f813590506108338161080f565b92915050565b5f61084b610846846107e4565b6107ca565b9050808382526020820190506020840283018581111561086e5761086d6105e7565b5b835b8181101561089757806108838882610825565b845260208401935050602081019050610870565b5050509392505050565b5f82601f8301126108b5576108b46105df565b5b81356108c5848260208601610839565b91505092915050565b5f602082840312156108e3576108e26105d7565b5b5f82013567ffffffffffffffff811115610900576108ff6105db565b5b61090c848285016108a1565b91505092915050565b5f82825260208201905092915050565b7f6d61782035303020656c656d656e7473000000000000000000000000000000005f82015250565b5f610959601083610915565b915061096482610925565b602082019050919050565b5f6020820190508181035f8301526109868161094d565b9050919050565b7f4e487b71000000000000000000000000000000000000000000000000000000005f52603260045260245ffd5b7f4e487b71000000000000000000000000000000000000000000000000000000005f52601160045260245ffd5b5f6109f18261068b565b91506109fc8361068b565b9250828201905080821115610a1457610a136109ba565b5b92915050565b5f610a248261068b565b9150610a2f8361068b565b9250828203905081811115610a4757610a466109ba565b5b92915050565b7f35303020456c656d656e742050726f63657373696e67000000000000000000005f82015250565b5f610a81601683610915565b9150610a8c82610a4d565b602082019050919050565b5f6040820190508181035f830152610aae81610a75565b9050610abd6020830184610694565b92915050565b5f5ffd5b5f5ffd5b5f5ffd5b5f5f83356001602003843603038112610aeb57610aea610ac3565b5b80840192508235915067ffffffffffffffff821115610b0d57610b0c610ac7565b5b602083019250602082023603831315610b2957610b28610acb565b5b509250929050565b7f426174636820746f6f206c6172676500000000000000000000000000000000005f82015250565b5f610b65600f83610915565b9150610b7082610b31565b602082019050919050565b5f6020820190508181035f830152610b9281610b59565b9050919050565b5f610ba38261068b565b91507fffffffffffffffffffffffffffffffffffffffffffffffffffffffffffffffff8203610bd557610bd46109ba565b5b600182019050919050565b7f42617463682050726f63657373696e67000000000000000000000000000000005f82015250565b5f610c14601083610915565b9150610c1f82610be0565b602082019050919050565b5f6040820190508181035f830152610c4181610c08565b9050610c506020830184610694565b92915050565b7f4d6178203130303020656c656d656e74730000000000000000000000000000005f82015250565b5f610c8a601183610915565b9150610c9582610c56565b602082019050919050565b5f6020820190508181035f830152610cb781610c7e565b9050919050565b7f3130303020456c656d656e742050726f63657373696e670000000000000000005f82015250565b5f610cf2601783610915565b9150610cfd82610cbe565b602082019050919050565b5f6040820190508181035f830152610d1f81610ce6565b9050610d2e6020830184610694565b9291505056fea26469706673582212201a077cc8a7e013ab27679be453299ce0712cbdebcd3494290dcecec79682f6d064736f6c63430008220033",
			"opcodes": "PUSH1 0x80 PUSH1 0x40 MSTORE CALLVALUE DUP1 ISZERO PUSH1 0xE JUMPI PUSH0 PUSH0 REVERT JUMPDEST POP PUSH2 0xD6A DUP1 PUSH2 0x1C PUSH0 CODECOPY PUSH0 RETURN INVALID PUSH1 0x80 PUSH1 0x40 MSTORE CALLVALUE DUP1 ISZERO PUSH2 0xF JUMPI PUSH0 PUSH0 REVERT JUMPDEST POP PUSH1 0x4 CALLDATASIZE LT PUSH2 0x91 JUMPI PUSH0 CALLDATALOAD PUSH1 0xE0 SHR DUP1 PUSH4 0x7AA63A86 GT PUSH2 0x64 JUMPI DUP1 PUSH4 0x7AA63A86 EQ PUSH2 0x107 JUMPI DUP1 PUSH4 0x8AF77BD7 EQ PUSH2 0x125 JUMPI DUP1 PUSH4 0x8B7AFE2E EQ PUSH2 0x143 JUMPI DUP1 PUSH4 0x95C570BD EQ PUSH2 0x161 JUMPI DUP1 PUSH4 0x9E6AA348 EQ PUSH2 0x17F JUMPI PUSH2 0x91 JUMP JUMPDEST DUP1 PUSH4 0x416E366D EQ PUSH2 0x95 JUMPI DUP1 PUSH4 0x4869F99D EQ PUSH2 0xB1 JUMPI DUP1 PUSH4 0x76064FB4 EQ PUSH2 0xCF JUMPI DUP1 PUSH4 0x7A8CEE63 EQ PUSH2 0xEB JUMPI JUMPDEST PUSH0 PUSH0 REVERT JUMPDEST PUSH2 0xAF PUSH1 0x4 DUP1 CALLDATASIZE SUB DUP2 ADD SWAP1 PUSH2 0xAA SWAP2 SWAP1 PUSH2 0x640 JUMP JUMPDEST PUSH2 0x1AF JUMP JUMPDEST STOP JUMPDEST PUSH2 0xB9 PUSH2 0x2B6 JUMP JUMPDEST PUSH1 0x40 MLOAD PUSH2 0xC6 SWAP2 SWAP1 PUSH2 0x6A3 JUMP JUMPDEST PUSH1 0x40 MLOAD DUP1 SWAP2 SUB SWAP1 RETURN JUMPDEST PUSH2 0xE9 PUSH1 0x4 DUP1 CALLDATASIZE SUB DUP2 ADD SWAP1 PUSH2 0xE4 SWAP2 SWAP1 PUSH2 0x711 JUMP JUMPDEST PUSH2 0x2BB JUMP JUMPDEST STOP JUMPDEST PUSH2 0x105 PUSH1 0x4 DUP1 CALLDATASIZE SUB DUP2 ADD SWAP1 PUSH2 0x100 SWAP2 SWAP1 PUSH2 0x640 JUMP JUMPDEST PUSH2 0x459 JUMP JUMPDEST STOP JUMPDEST PUSH2 0x10F PUSH2 0x560 JUMP JUMPDEST PUSH1 0x40 MLOAD PUSH2 0x11C SWAP2 SWAP1 PUSH2 0x6A3 JUMP JUMPDEST PUSH1 0x40 MLOAD DUP1 SWAP2 SUB SWAP1 RETURN JUMPDEST PUSH2 0x12D PUSH2 0x569 JUMP JUMPDEST PUSH1 0x40 MLOAD PUSH2 0x13A SWAP2 SWAP1 PUSH2 0x6A3 JUMP JUMPDEST PUSH1 0x40 MLOAD DUP1 SWAP2 SUB SWAP1 RETURN JUMPDEST PUSH2 0x14B PUSH2 0x56F JUMP JUMPDEST PUSH1 0x40 MLOAD PUSH2 0x158 SWAP2 SWAP1 PUSH2 0x6A3 JUMP JUMPDEST PUSH1 0x40 MLOAD DUP1 SWAP2 SUB SWAP1 RETURN JUMPDEST PUSH2 0x169 PUSH2 0x576 JUMP JUMPDEST PUSH1 0x40 MLOAD PUSH2 0x176 SWAP2 SWAP1 PUSH2 0x6A3 JUMP JUMPDEST PUSH1 0x40 MLOAD DUP1 SWAP2 SUB SWAP1 RETURN JUMPDEST PUSH2 0x199 PUSH1 0x4 DUP1 CALLDATASIZE SUB DUP2 ADD SWAP1 PUSH2 0x194 SWAP2 SWAP1 PUSH2 0x8CE JUMP JUMPDEST PUSH2 0x57C JUMP JUMPDEST PUSH1 0x40 MLOAD PUSH2 0x1A6 SWAP2 SWAP1 PUSH2 0x6A3 JUMP JUMPDEST PUSH1 0x40 MLOAD DUP1 SWAP2 SUB SWAP1 RETURN JUMPDEST PUSH2 0x1F4 DUP3 DUP3 SWAP1 POP GT ISZERO PUSH2 0x1F7 JUMPI PUSH1 0x40 MLOAD PUSH32 0x8C379A000000000000000000000000000000000000000000000000000000000 DUP2 MSTORE PUSH1 0x4 ADD PUSH2 0x1EE SWAP1 PUSH2 0x96F JUMP JUMPDEST PUSH1 0x40 MLOAD DUP1 SWAP2 SUB SWAP1 REVERT JUMPDEST PUSH0 GAS SWAP1 POP PUSH0 PUSH0 SWAP1 POP PUSH0 PUSH0 SWAP1 POP JUMPDEST DUP5 DUP5 SWAP1 POP DUP2 LT ISZERO PUSH2 0x243 JUMPI DUP5 DUP5 DUP3 DUP2 DUP2 LT PUSH2 0x222 JUMPI PUSH2 0x221 PUSH2 0x98D JUMP JUMPDEST JUMPDEST SWAP1 POP PUSH1 0x20 MUL ADD CALLDATALOAD DUP3 PUSH2 0x234 SWAP2 SWAP1 PUSH2 0x9E7 JUMP JUMPDEST SWAP2 POP DUP1 DUP1 PUSH1 0x1 ADD SWAP2 POP POP PUSH2 0x204 JUMP JUMPDEST POP DUP4 DUP4 SWAP1 POP PUSH1 0x1 PUSH0 DUP3 DUP3 SLOAD PUSH2 0x258 SWAP2 SWAP1 PUSH2 0x9E7 JUMP JUMPDEST SWAP3 POP POP DUP2 SWAP1 SSTORE POP DUP1 PUSH0 DUP2 SWAP1 SSTORE POP GAS DUP3 PUSH2 0x271 SWAP2 SWAP1 PUSH2 0xA1A JUMP JUMPDEST PUSH1 0x2 DUP2 SWAP1 SSTORE POP PUSH32 0x4D605D112B717B70B80F393CC6A0239AE0459508E54AF125EE28F92ACBF7FC49 PUSH1 0x2 SLOAD PUSH1 0x40 MLOAD PUSH2 0x2A8 SWAP2 SWAP1 PUSH2 0xA97 JUMP JUMPDEST PUSH1 0x40 MLOAD DUP1 SWAP2 SUB SWAP1 LOG1 POP POP POP POP JUMP JUMPDEST PUSH0 SLOAD DUP2 JUMP JUMPDEST PUSH0 GAS SWAP1 POP PUSH0 PUSH0 SWAP1 POP PUSH0 PUSH0 SWAP1 POP PUSH0 PUSH0 SWAP1 POP JUMPDEST DUP6 DUP6 SWAP1 POP DUP2 LT ISZERO PUSH2 0x3E8 JUMPI PUSH2 0x1F4 DUP7 DUP7 DUP4 DUP2 DUP2 LT PUSH2 0x2ED JUMPI PUSH2 0x2EC PUSH2 0x98D JUMP JUMPDEST JUMPDEST SWAP1 POP PUSH1 0x20 MUL DUP2 ADD SWAP1 PUSH2 0x2FF SWAP2 SWAP1 PUSH2 0xACF JUMP JUMPDEST SWAP1 POP GT ISZERO PUSH2 0x342 JUMPI PUSH1 0x40 MLOAD PUSH32 0x8C379A000000000000000000000000000000000000000000000000000000000 DUP2 MSTORE PUSH1 0x4 ADD PUSH2 0x339 SWAP1 PUSH2 0xB7B JUMP JUMPDEST PUSH1 0x40 MLOAD DUP1 SWAP2 SUB SWAP1 REVERT JUMPDEST PUSH0 PUSH0 SWAP1 POP JUMPDEST DUP7 DUP7 DUP4 DUP2 DUP2 LT PUSH2 0x35A JUMPI PUSH2 0x359 PUSH2 0x98D JUMP JUMPDEST JUMPDEST SWAP1 POP PUSH1 0x20 MUL DUP2 ADD SWAP1 PUSH2 0x36C SWAP2 SWAP1 PUSH2 0xACF JUMP JUMPDEST SWAP1 POP DUP2 LT ISZERO PUSH2 0x3DA JUMPI DUP7 DUP7 DUP4 DUP2 DUP2 LT PUSH2 0x388 JUMPI PUSH2 0x387 PUSH2 0x98D JUMP JUMPDEST JUMPDEST SWAP1 POP PUSH1 0x20 MUL DUP2 ADD SWAP1 PUSH2 0x39A SWAP2 SWAP1 PUSH2 0xACF JUMP JUMPDEST DUP3 DUP2 DUP2 LT PUSH2 0x3AB JUMPI PUSH2 0x3AA PUSH2 0x98D JUMP JUMPDEST JUMPDEST SWAP1 POP PUSH1 0x20 MUL ADD CALLDATALOAD DUP5 PUSH2 0x3BD SWAP2 SWAP1 PUSH2 0x9E7 JUMP JUMPDEST SWAP4 POP DUP3 DUP1 PUSH2 0x3CA SWAP1 PUSH2 0xB99 JUMP JUMPDEST SWAP4 POP POP DUP1 DUP1 PUSH1 0x1 ADD SWAP2 POP POP PUSH2 0x347 JUMP JUMPDEST POP DUP1 DUP1 PUSH1 0x1 ADD SWAP2 POP POP PUSH2 0x2CC JUMP JUMPDEST POP DUP2 PUSH0 DUP2 SWAP1 SSTORE POP DUP1 PUSH1 0x1 PUSH0 DUP3 DUP3 SLOAD PUSH2 0x400 SWAP2 SWAP1 PUSH2 0x9E7 JUMP JUMPDEST SWAP3 POP POP DUP2 SWAP1 SSTORE POP GAS DUP4 PUSH2 0x413 SWAP2 SWAP1 PUSH2 0xA1A JUMP JUMPDEST PUSH1 0x2 DUP2 SWAP1 SSTORE POP PUSH32 0x4D605D112B717B70B80F393CC6A0239AE0459508E54AF125EE28F92ACBF7FC49 PUSH1 0x2 SLOAD PUSH1 0x40 MLOAD PUSH2 0x44A SWAP2 SWAP1 PUSH2 0xC2A JUMP JUMPDEST PUSH1 0x40 MLOAD DUP1 SWAP2 SUB SWAP1 LOG1 POP POP POP POP POP JUMP JUMPDEST PUSH2 0x3E8 DUP3 DUP3 SWAP1 POP GT ISZERO PUSH2 0x4A1 JUMPI PUSH1 0x40 MLOAD PUSH32 0x8C379A000000000000000000000000000000000000000000000000000000000 DUP2 MSTORE PUSH1 0x4 ADD PUSH2 0x498 SWAP1 PUSH2 0xCA0 JUMP JUMPDEST PUSH1 0x40 MLOAD DUP1 SWAP2 SUB SWAP1 REVERT JUMPDEST PUSH0 GAS SWAP1 POP PUSH0 PUSH0 SWAP1 POP PUSH0 PUSH0 SWAP1 POP JUMPDEST DUP5 DUP5 SWAP1 POP DUP2 LT ISZERO PUSH2 0x559 JUMPI DUP5 DUP5 DUP3 DUP2 DUP2 LT PUSH2 0x4CC JUMPI PUSH2 0x4CB PUSH2 0x98D JUMP JUMPDEST JUMPDEST SWAP1 POP PUSH1 0x20 MUL ADD CALLDATALOAD DUP3 PUSH2 0x4DE SWAP2 SWAP1 PUSH2 0x9E7 JUMP JUMPDEST SWAP2 POP DUP2 PUSH0 DUP2 SWAP1 SSTORE POP DUP5 DUP5 SWAP1 POP PUSH1 0x1 PUSH0 DUP3 DUP3 SLOAD PUSH2 0x4FA SWAP2 SWAP1 PUSH2 0x9E7 JUMP JUMPDEST SWAP3 POP POP DUP2 SWAP1 SSTORE POP GAS DUP4 PUSH2 0x50D SWAP2 SWAP1 PUSH2 0xA1A JUMP JUMPDEST PUSH1 0x2 DUP2 SWAP1 SSTORE POP PUSH32 0x4D605D112B717B70B80F393CC6A0239AE0459508E54AF125EE28F92ACBF7FC49 PUSH1 0x2 SLOAD PUSH1 0x40 MLOAD PUSH2 0x544 SWAP2 SWAP1 PUSH2 0xD08 JUMP JUMPDEST PUSH1 0x40 MLOAD DUP1 SWAP2 SUB SWAP1 LOG1 DUP1 DUP1 PUSH1 0x1 ADD SWAP2 POP POP PUSH2 0x4AE JUMP JUMPDEST POP POP POP POP POP JUMP JUMPDEST PUSH0 PUSH1 0x1 SLOAD SWAP1 POP SWAP1 JUMP JUMPDEST PUSH1 0x1 SLOAD DUP2 JUMP JUMPDEST PUSH0 SELFBALANCE SWAP1 POP SWAP1 JUMP JUMPDEST PUSH1 0x2 SLOAD DUP2 JUMP JUMPDEST PUSH0 PUSH0 PUSH0 SWAP1 POP PUSH0 PUSH0 SWAP1 POP JUMPDEST DUP4 MLOAD DUP2 LT ISZERO PUSH2 0x5C4 JUMPI DUP4 DUP2 DUP2 MLOAD DUP2 LT PUSH2 0x5A2 JUMPI PUSH2 0x5A1 PUSH2 0x98D JUMP JUMPDEST JUMPDEST PUSH1 0x20 MUL PUSH1 0x20 ADD ADD MLOAD DUP3 PUSH2 0x5B5 SWAP2 SWAP1 PUSH2 0x9E7 JUMP JUMPDEST SWAP2 POP DUP1 DUP1 PUSH1 0x1 ADD SWAP2 POP POP PUSH2 0x586 JUMP JUMPDEST POP DUP1 SWAP2 POP POP SWAP2 SWAP1 POP JUMP JUMPDEST PUSH0 PUSH1 0x40 MLOAD SWAP1 POP SWAP1 JUMP JUMPDEST PUSH0 PUSH0 REVERT JUMPDEST PUSH0 PUSH0 REVERT JUMPDEST PUSH0 PUSH0 REVERT JUMPDEST PUSH0 PUSH0 REVERT JUMPDEST PUSH0 PUSH0 REVERT JUMPDEST PUSH0 PUSH0 DUP4 PUSH1 0x1F DUP5 ADD SLT PUSH2 0x600 JUMPI PUSH2 0x5FF PUSH2 0x5DF JUMP JUMPDEST JUMPDEST DUP3 CALLDATALOAD SWAP1 POP PUSH8 0xFFFFFFFFFFFFFFFF DUP2 GT ISZERO PUSH2 0x61D JUMPI PUSH2 0x61C PUSH2 0x5E3 JUMP JUMPDEST JUMPDEST PUSH1 0x20 DUP4 ADD SWAP2 POP DUP4 PUSH1 0x20 DUP3 MUL DUP4 ADD GT ISZERO PUSH2 0x639 JUMPI PUSH2 0x638 PUSH2 0x5E7 JUMP JUMPDEST JUMPDEST SWAP3 POP SWAP3 SWAP1 POP JUMP JUMPDEST PUSH0 PUSH0 PUSH1 0x20 DUP4 DUP6 SUB SLT ISZERO PUSH2 0x656 JUMPI PUSH2 0x655 PUSH2 0x5D7 JUMP JUMPDEST JUMPDEST PUSH0 DUP4 ADD CALLDATALOAD PUSH8 0xFFFFFFFFFFFFFFFF DUP2 GT ISZERO PUSH2 0x673 JUMPI PUSH2 0x672 PUSH2 0x5DB JUMP JUMPDEST JUMPDEST PUSH2 0x67F DUP6 DUP3 DUP7 ADD PUSH2 0x5EB JUMP JUMPDEST SWAP3 POP SWAP3 POP POP SWAP3 POP SWAP3 SWAP1 POP JUMP JUMPDEST PUSH0 DUP2 SWAP1 POP SWAP2 SWAP1 POP JUMP JUMPDEST PUSH2 0x69D DUP2 PUSH2 0x68B JUMP JUMPDEST DUP3 MSTORE POP POP JUMP JUMPDEST PUSH0 PUSH1 0x20 DUP3 ADD SWAP1 POP PUSH2 0x6B6 PUSH0 DUP4 ADD DUP5 PUSH2 0x694 JUMP JUMPDEST SWAP3 SWAP2 POP POP JUMP JUMPDEST PUSH0 PUSH0 DUP4 PUSH1 0x1F DUP5 ADD SLT PUSH2 0x6D1 JUMPI PUSH2 0x6D0 PUSH2 0x5DF JUMP JUMPDEST JUMPDEST DUP3 CALLDATALOAD SWAP1 POP PUSH8 0xFFFFFFFFFFFFFFFF DUP2 GT ISZERO PUSH2 0x6EE JUMPI PUSH2 0x6ED PUSH2 0x5E3 JUMP JUMPDEST JUMPDEST PUSH1 0x20 DUP4 ADD SWAP2 POP DUP4 PUSH1 0x20 DUP3 MUL DUP4 ADD GT ISZERO PUSH2 0x70A JUMPI PUSH2 0x709 PUSH2 0x5E7 JUMP JUMPDEST JUMPDEST SWAP3 POP SWAP3 SWAP1 POP JUMP JUMPDEST PUSH0 PUSH0 PUSH1 0x20 DUP4 DUP6 SUB SLT ISZERO PUSH2 0x727 JUMPI PUSH2 0x726 PUSH2 0x5D7 JUMP JUMPDEST JUMPDEST PUSH0 DUP4 ADD CALLDATALOAD PUSH8 0xFFFFFFFFFFFFFFFF DUP2 GT ISZERO PUSH2 0x744 JUMPI PUSH2 0x743 PUSH2 0x5DB JUMP JUMPDEST JUMPDEST PUSH2 0x750 DUP6 DUP3 DUP7 ADD PUSH2 0x6BC JUMP JUMPDEST SWAP3 POP SWAP3 POP POP SWAP3 POP SWAP3 SWAP1 POP JUMP JUMPDEST PUSH0 PUSH1 0x1F NOT PUSH1 0x1F DUP4 ADD AND SWAP1 POP SWAP2 SWAP1 POP JUMP JUMPDEST PUSH32 0x4E487B7100000000000000000000000000000000000000000000000000000000 PUSH0 MSTORE PUSH1 0x41 PUSH1 0x4 MSTORE PUSH1 0x24 PUSH0 REVERT JUMPDEST PUSH2 0x7A2 DUP3 PUSH2 0x75C JUMP JUMPDEST DUP2 ADD DUP2 DUP2 LT PUSH8 0xFFFFFFFFFFFFFFFF DUP3 GT OR ISZERO PUSH2 0x7C1 JUMPI PUSH2 0x7C0 PUSH2 0x76C JUMP JUMPDEST JUMPDEST DUP1 PUSH1 0x40 MSTORE POP POP POP JUMP JUMPDEST PUSH0 PUSH2 0x7D3 PUSH2 0x5CE JUMP JUMPDEST SWAP1 POP PUSH2 0x7DF DUP3 DUP3 PUSH2 0x799 JUMP JUMPDEST SWAP2 SWAP1 POP JUMP JUMPDEST PUSH0 PUSH8 0xFFFFFFFFFFFFFFFF DUP3 GT ISZERO PUSH2 0x7FE JUMPI PUSH2 0x7FD PUSH2 0x76C JUMP JUMPDEST JUMPDEST PUSH1 0x20 DUP3 MUL SWAP1 POP PUSH1 0x20 DUP2 ADD SWAP1 POP SWAP2 SWAP1 POP JUMP JUMPDEST PUSH2 0x818 DUP2 PUSH2 0x68B JUMP JUMPDEST DUP2 EQ PUSH2 0x822 JUMPI PUSH0 PUSH0 REVERT JUMPDEST POP JUMP JUMPDEST PUSH0 DUP2 CALLDATALOAD SWAP1 POP PUSH2 0x833 DUP2 PUSH2 0x80F JUMP JUMPDEST SWAP3 SWAP2 POP POP JUMP JUMPDEST PUSH0 PUSH2 0x84B PUSH2 0x846 DUP5 PUSH2 0x7E4 JUMP JUMPDEST PUSH2 0x7CA JUMP JUMPDEST SWAP1 POP DUP1 DUP4 DUP3 MSTORE PUSH1 0x20 DUP3 ADD SWAP1 POP PUSH1 0x20 DUP5 MUL DUP4 ADD DUP6 DUP2 GT ISZERO PUSH2 0x86E JUMPI PUSH2 0x86D PUSH2 0x5E7 JUMP JUMPDEST JUMPDEST DUP4 JUMPDEST DUP2 DUP2 LT ISZERO PUSH2 0x897 JUMPI DUP1 PUSH2 0x883 DUP9 DUP3 PUSH2 0x825 JUMP JUMPDEST DUP5 MSTORE PUSH1 0x20 DUP5 ADD SWAP4 POP POP PUSH1 0x20 DUP2 ADD SWAP1 POP PUSH2 0x870 JUMP JUMPDEST POP POP POP SWAP4 SWAP3 POP POP POP JUMP JUMPDEST PUSH0 DUP3 PUSH1 0x1F DUP4 ADD SLT PUSH2 0x8B5 JUMPI PUSH2 0x8B4 PUSH2 0x5DF JUMP JUMPDEST JUMPDEST DUP2 CALLDATALOAD PUSH2 0x8C5 DUP5 DUP3 PUSH1 0x20 DUP7 ADD PUSH2 0x839 JUMP JUMPDEST SWAP2 POP POP SWAP3 SWAP2 POP POP JUMP JUMPDEST PUSH0 PUSH1 0x20 DUP3 DUP5 SUB SLT ISZERO PUSH2 0x8E3 JUMPI PUSH2 0x8E2 PUSH2 0x5D7 JUMP JUMPDEST JUMPDEST PUSH0 DUP3 ADD CALLDATALOAD PUSH8 0xFFFFFFFFFFFFFFFF DUP2 GT ISZERO PUSH2 0x900 JUMPI PUSH2 0x8FF PUSH2 0x5DB JUMP JUMPDEST JUMPDEST PUSH2 0x90C DUP5 DUP3 DUP6 ADD PUSH2 0x8A1 JUMP JUMPDEST SWAP2 POP POP SWAP3 SWAP2 POP POP JUMP JUMPDEST PUSH0 DUP3 DUP3 MSTORE PUSH1 0x20 DUP3 ADD SWAP1 POP SWAP3 SWAP2 POP POP JUMP JUMPDEST PUSH32 0x6D61782035303020656C656D656E747300000000000000000000000000000000 PUSH0 DUP3 ADD MSTORE POP JUMP JUMPDEST PUSH0 PUSH2 0x959 PUSH1 0x10 DUP4 PUSH2 0x915 JUMP JUMPDEST SWAP2 POP PUSH2 0x964 DUP3 PUSH2 0x925 JUMP JUMPDEST PUSH1 0x20 DUP3 ADD SWAP1 POP SWAP2 SWAP1 POP JUMP JUMPDEST PUSH0 PUSH1 0x20 DUP3 ADD SWAP1 POP DUP2 DUP2 SUB PUSH0 DUP4 ADD MSTORE PUSH2 0x986 DUP2 PUSH2 0x94D JUMP JUMPDEST SWAP1 POP SWAP2 SWAP1 POP JUMP JUMPDEST PUSH32 0x4E487B7100000000000000000000000000000000000000000000000000000000 PUSH0 MSTORE PUSH1 0x32 PUSH1 0x4 MSTORE PUSH1 0x24 PUSH0 REVERT JUMPDEST PUSH32 0x4E487B7100000000000000000000000000000000000000000000000000000000 PUSH0 MSTORE PUSH1 0x11 PUSH1 0x4 MSTORE PUSH1 0x24 PUSH0 REVERT JUMPDEST PUSH0 PUSH2 0x9F1 DUP3 PUSH2 0x68B JUMP JUMPDEST SWAP2 POP PUSH2 0x9FC DUP4 PUSH2 0x68B JUMP JUMPDEST SWAP3 POP DUP3 DUP3 ADD SWAP1 POP DUP1 DUP3 GT ISZERO PUSH2 0xA14 JUMPI PUSH2 0xA13 PUSH2 0x9BA JUMP JUMPDEST JUMPDEST SWAP3 SWAP2 POP POP JUMP JUMPDEST PUSH0 PUSH2 0xA24 DUP3 PUSH2 0x68B JUMP JUMPDEST SWAP2 POP PUSH2 0xA2F DUP4 PUSH2 0x68B JUMP JUMPDEST SWAP3 POP DUP3 DUP3 SUB SWAP1 POP DUP2 DUP2 GT ISZERO PUSH2 0xA47 JUMPI PUSH2 0xA46 PUSH2 0x9BA JUMP JUMPDEST JUMPDEST SWAP3 SWAP2 POP POP JUMP JUMPDEST PUSH32 0x35303020456C656D656E742050726F63657373696E6700000000000000000000 PUSH0 DUP3 ADD MSTORE POP JUMP JUMPDEST PUSH0 PUSH2 0xA81 PUSH1 0x16 DUP4 PUSH2 0x915 JUMP JUMPDEST SWAP2 POP PUSH2 0xA8C DUP3 PUSH2 0xA4D JUMP JUMPDEST PUSH1 0x20 DUP3 ADD SWAP1 POP SWAP2 SWAP1 POP JUMP JUMPDEST PUSH0 PUSH1 0x40 DUP3 ADD SWAP1 POP DUP2 DUP2 SUB PUSH0 DUP4 ADD MSTORE PUSH2 0xAAE DUP2 PUSH2 0xA75 JUMP JUMPDEST SWAP1 POP PUSH2 0xABD PUSH1 0x20 DUP4 ADD DUP5 PUSH2 0x694 JUMP JUMPDEST SWAP3 SWAP2 POP POP JUMP JUMPDEST PUSH0 PUSH0 REVERT JUMPDEST PUSH0 PUSH0 REVERT JUMPDEST PUSH0 PUSH0 REVERT JUMPDEST PUSH0 PUSH0 DUP4 CALLDATALOAD PUSH1 0x1 PUSH1 0x20 SUB DUP5 CALLDATASIZE SUB SUB DUP2 SLT PUSH2 0xAEB JUMPI PUSH2 0xAEA PUSH2 0xAC3 JUMP JUMPDEST JUMPDEST DUP1 DUP5 ADD SWAP3 POP DUP3 CALLDATALOAD SWAP2 POP PUSH8 0xFFFFFFFFFFFFFFFF DUP3 GT ISZERO PUSH2 0xB0D JUMPI PUSH2 0xB0C PUSH2 0xAC7 JUMP JUMPDEST JUMPDEST PUSH1 0x20 DUP4 ADD SWAP3 POP PUSH1 0x20 DUP3 MUL CALLDATASIZE SUB DUP4 SGT ISZERO PUSH2 0xB29 JUMPI PUSH2 0xB28 PUSH2 0xACB JUMP JUMPDEST JUMPDEST POP SWAP3 POP SWAP3 SWAP1 POP JUMP JUMPDEST PUSH32 0x426174636820746F6F206C617267650000000000000000000000000000000000 PUSH0 DUP3 ADD MSTORE POP JUMP JUMPDEST PUSH0 PUSH2 0xB65 PUSH1 0xF DUP4 PUSH2 0x915 JUMP JUMPDEST SWAP2 POP PUSH2 0xB70 DUP3 PUSH2 0xB31 JUMP JUMPDEST PUSH1 0x20 DUP3 ADD SWAP1 POP SWAP2 SWAP1 POP JUMP JUMPDEST PUSH0 PUSH1 0x20 DUP3 ADD SWAP1 POP DUP2 DUP2 SUB PUSH0 DUP4 ADD MSTORE PUSH2 0xB92 DUP2 PUSH2 0xB59 JUMP JUMPDEST SWAP1 POP SWAP2 SWAP1 POP JUMP JUMPDEST PUSH0 PUSH2 0xBA3 DUP3 PUSH2 0x68B JUMP JUMPDEST SWAP2 POP PUSH32 0xFFFFFFFFFFFFFFFFFFFFFFFFFFFFFFFFFFFFFFFFFFFFFFFFFFFFFFFFFFFFFFFF DUP3 SUB PUSH2 0xBD5 JUMPI PUSH2 0xBD4 PUSH2 0x9BA JUMP JUMPDEST JUMPDEST PUSH1 0x1 DUP3 ADD SWAP1 POP SWAP2 SWAP1 POP JUMP JUMPDEST PUSH32 0x42617463682050726F63657373696E6700000000000000000000000000000000 PUSH0 DUP3 ADD MSTORE POP JUMP JUMPDEST PUSH0 PUSH2 0xC14 PUSH1 0x10 DUP4 PUSH2 0x915 JUMP JUMPDEST SWAP2 POP PUSH2 0xC1F DUP3 PUSH2 0xBE0 JUMP JUMPDEST PUSH1 0x20 DUP3 ADD SWAP1 POP SWAP2 SWAP1 POP JUMP JUMPDEST PUSH0 PUSH1 0x40 DUP3 ADD SWAP1 POP DUP2 DUP2 SUB PUSH0 DUP4 ADD MSTORE PUSH2 0xC41 DUP2 PUSH2 0xC08 JUMP JUMPDEST SWAP1 POP PUSH2 0xC50 PUSH1 0x20 DUP4 ADD DUP5 PUSH2 0x694 JUMP JUMPDEST SWAP3 SWAP2 POP POP JUMP JUMPDEST PUSH32 0x4D6178203130303020656C656D656E7473000000000000000000000000000000 PUSH0 DUP3 ADD MSTORE POP JUMP JUMPDEST PUSH0 PUSH2 0xC8A PUSH1 0x11 DUP4 PUSH2 0x915 JUMP JUMPDEST SWAP2 POP PUSH2 0xC95 DUP3 PUSH2 0xC56 JUMP JUMPDEST PUSH1 0x20 DUP3 ADD SWAP1 POP SWAP2 SWAP1 POP JUMP JUMPDEST PUSH0 PUSH1 0x20 DUP3 ADD SWAP1 POP DUP2 DUP2 SUB PUSH0 DUP4 ADD MSTORE PUSH2 0xCB7 DUP2 PUSH2 0xC7E JUMP JUMPDEST SWAP1 POP SWAP2 SWAP1 POP JUMP JUMPDEST PUSH32 0x3130303020456C656D656E742050726F63657373696E67000000000000000000 PUSH0 DUP3 ADD MSTORE POP JUMP JUMPDEST PUSH0 PUSH2 0xCF2 PUSH1 0x17 DUP4 PUSH2 0x915 JUMP JUMPDEST SWAP2 POP PUSH2 0xCFD DUP3 PUSH2 0xCBE JUMP JUMPDEST PUSH1 0x20 DUP3 ADD SWAP1 POP SWAP2 SWAP1 POP JUMP JUMPDEST PUSH0 PUSH1 0x40 DUP3 ADD SWAP1 POP DUP2 DUP2 SUB PUSH0 DUP4 ADD MSTORE PUSH2 0xD1F DUP2 PUSH2 0xCE6 JUMP JUMPDEST SWAP1 POP PUSH2 0xD2E PUSH1 0x20 DUP4 ADD DUP5 PUSH2 0x694 JUMP JUMPDEST SWAP3 SWAP2 POP POP JUMP INVALID LOG2 PUSH5 0x6970667358 0x22 SLT KECCAK256 BYTE SMOD PUSH29 0xC8A7E013AB27679BE453299CE0712CBDEBCD3494290DCECEC79682F6D0 PUSH5 0x736F6C6343 STOP ADDMOD 0x22 STOP CALLER "
		},
		"gasEstimates": {
			"creation": {
				"codeDepositCost": "686800",
				"executionCost": "719",
				"totalCost": "687519"
			},
			"external": {
				"batchProcess(uint256[][])": "infinite",
				"contractBalance()": "378",
				"getTotalElements()": "2432",
				"lastGasUsed()": "2491",
				"process1000Array(uint256[])": "infinite",
				"processCalldataArray(uint256[])": "infinite",
				"processMemoryArray(uint256[])": "infinite",
				"totalElements()": "2447",
				"totalSum()": "2447"
			}
		},
		"methodIdentifiers": {
			"batchProcess(uint256[][])": "76064fb4",
			"contractBalance()": "8b7afe2e",
			"getTotalElements()": "7aa63a86",
			"lastGasUsed()": "95c570bd",
			"process1000Array(uint256[])": "7a8cee63",
			"processCalldataArray(uint256[])": "416e366d",
			"processMemoryArray(uint256[])": "9e6aa348",
			"totalElements()": "8af77bd7",
			"totalSum()": "4869f99d"
		}
	},
	"abi": [
		{
			"anonymous": false,
			"inputs": [
				{
					"indexed": false,
					"internalType": "string",
					"name": "operation",
					"type": "string"
				},
				{
					"indexed": false,
					"internalType": "uint256",
					"name": "gasUsed",
					"type": "uint256"
				}
			],
			"name": "GasMeasured",
			"type": "event"
		},
		{
			"inputs": [
				{
					"internalType": "uint256[][]",
					"name": "batches",
					"type": "uint256[][]"
				}
			],
			"name": "batchProcess",
			"outputs": [],
			"stateMutability": "nonpayable",
			"type": "function"
		},
		{
			"inputs": [],
			"name": "contractBalance",
			"outputs": [
				{
					"internalType": "uint256",
					"name": "",
					"type": "uint256"
				}
			],
			"stateMutability": "view",
			"type": "function"
		},
		{
			"inputs": [],
			"name": "getTotalElements",
			"outputs": [
				{
					"internalType": "uint256",
					"name": "",
					"type": "uint256"
				}
			],
			"stateMutability": "view",
			"type": "function"
		},
		{
			"inputs": [],
			"name": "lastGasUsed",
			"outputs": [
				{
					"internalType": "uint256",
					"name": "",
					"type": "uint256"
				}
			],
			"stateMutability": "view",
			"type": "function"
		},
		{
			"inputs": [
				{
					"internalType": "uint256[]",
					"name": "data",
					"type": "uint256[]"
				}
			],
			"name": "process1000Array",
			"outputs": [],
			"stateMutability": "nonpayable",
			"type": "function"
		},
		{
			"inputs": [
				{
					"internalType": "uint256[]",
					"name": "data",
					"type": "uint256[]"
				}
			],
			"name": "processCalldataArray",
			"outputs": [],
			"stateMutability": "nonpayable",
			"type": "function"
		},
		{
			"inputs": [
				{
					"internalType": "uint256[]",
					"name": "data",
					"type": "uint256[]"
				}
			],
			"name": "processMemoryArray",
			"outputs": [
				{
					"internalType": "uint256",
					"name": "",
					"type": "uint256"
				}
			],
			"stateMutability": "pure",
			"type": "function"
		},
		{
			"inputs": [],
			"name": "totalElements",
			"outputs": [
				{
					"internalType": "uint256",
					"name": "",
					"type": "uint256"
				}
			],
			"stateMutability": "view",
			"type": "function"
		},
		{
			"inputs": [],
			"name": "totalSum",
			"outputs": [
				{
					"internalType": "uint256",
					"name": "",
					"type": "uint256"
				}
			],
			"stateMutability": "view",
			"type": "function"
		}
	]
}