{
	"data": {
		"bytecode": {
			"linkReferences": {},
			"object": "6080604052348015600e575f5ffd5b506113af8061001c5f395ff3fe60806040526004361061007a575f3560e01c8063c816f0381161004d578063c816f03814610148578063d0e30db014610170578063ecf1f2351461017a578063f9087315146101a45761007a565b806327e235e31461007e5780635058c460146100ba5780636ef61092146100e25780638b7afe2e1461011e575b5f5ffd5b348015610089575f5ffd5b506100a4600480360381019061009f9190610a28565b6101cc565b6040516100b19190610a6b565b60405180910390f35b3480156100c5575f5ffd5b506100e060048036038101906100db9190610ae9565b6101e0565b005b3480156100ed575f5ffd5b5061010860048036038101906101039190610a28565b6103d6565b6040516101159190610b41565b60405180910390f35b348015610129575f5ffd5b506101326103f3565b60405161013f9190610a6b565b60405180910390f35b348015610153575f5ffd5b5061016e60048036038101906101699190610a28565b6103fa565b005b6101786105e3565b005b348015610185575f5ffd5b5061018e610685565b60405161019b9190610bca565b60405180910390f35b3480156101af575f5ffd5b506101ca60048036038101906101c59190610ae9565b610711565b005b5f602052805f5260405f205f915090505481565b805f5f3373ffffffffffffffffffffffffffffffffffffffff1673ffffffffffffffffffffffffffffffffffffffff1681526020019081526020015f2054101561025f576040517f08c379a000000000000000000000000000000000000000000000000000000000815260040161025690610c34565b60405180910390fd5b805f5f3373ffffffffffffffffffffffffffffffffffffffff1673ffffffffffffffffffffffffffffffffffffffff1681526020019081526020015f205f8282546102aa9190610c7f565b925050819055505f5f8373ffffffffffffffffffffffffffffffffffffffff16836040516102d790610cdf565b5f6040518083038185875af1925050503d805f8114610311576040519150601f19603f3d011682016040523d82523d5f602084013e610316565b606091505b50915091503373ffffffffffffffffffffffffffffffffffffffff167f6326ac4908827896cdebc9986d1bdd4cd8ba02d0a41eab45d6722430eedc4ed085858560405161036593929190610d4e565b60405180910390a281610390575f61037c82610952565b9050806002908161038d9190610fb5565b50505b816103d0576040517f08c379a00000000000000000000000000000000000000000000000000000000081526004016103c7906110ce565b60405180910390fd5b50505050565b6001602052805f5260405f205f915054906101000a900460ff1681565b5f47905090565b5f8190508073ffffffffffffffffffffffffffffffffffffffff1663671bd39d6040518163ffffffff1660e01b81526004015f604051808303815f87803b158015610443575f5ffd5b505af1925050508015610454575060015b6104cb576104606110f8565b806308c379a0036104bc5750610474611148565b8061047f57506104be565b7f2170a899eb3df99de3d6973d7f04a8981d877b84ca2055234d696ae04a5547f3816040516104ae9190610bca565b60405180910390a1506104c6565b505b3d5f5f3e3d5ffd5b610501565b7f907064b0143a723ebd8288b576f516a5fe1e8ff61101035f8d305a383cf118546040516104f890611221565b60405180910390a15b8073ffffffffffffffffffffffffffffffffffffffff1663ca463e196040518163ffffffff1660e01b81526004015f604051808303815f87803b158015610546575f5ffd5b505af1925050508015610557575060015b6105de576105636110f8565b806308c379a0036105cf5750610577611148565b8061058257506105d1565b80600290816105919190610fb5565b507f2170a899eb3df99de3d6973d7f04a8981d877b84ca2055234d696ae04a5547f3816040516105c19190610bca565b60405180910390a1506105d9565b505b3d5f5f3e3d5ffd5b6105df565b5b5050565b345f5f3373ffffffffffffffffffffffffffffffffffffffff1673ffffffffffffffffffffffffffffffffffffffff1681526020019081526020015f205f82825461062e919061123f565b925050819055503373ffffffffffffffffffffffffffffffffffffffff167fe1fffcc4923d04b559f4d29a8bfc6cda04eb5b0d3c460751c2402c5c5cc9109c3460405161067b9190610a6b565b60405180910390a2565b6002805461069290610ddd565b80601f01602080910402602001604051908101604052809291908181526020018280546106be90610ddd565b80156107095780601f106106e057610100808354040283529160200191610709565b820191905f5260205f20905b8154815290600101906020018083116106ec57829003601f168201915b505050505081565b805f5f3373ffffffffffffffffffffffffffffffffffffffff1673ffffffffffffffffffffffffffffffffffffffff1681526020019081526020015f20541015610790576040517f08c379a000000000000000000000000000000000000000000000000000000000815260040161078790610c34565b60405180910390fd5b805f5f3373ffffffffffffffffffffffffffffffffffffffff1673ffffffffffffffffffffffffffffffffffffffff1681526020019081526020015f205f8282546107db9190610c7f565b925050819055506001805f3373ffffffffffffffffffffffffffffffffffffffff1673ffffffffffffffffffffffffffffffffffffffff1681526020019081526020015f205f6101000a81548160ff0219169083151502179055505f5f8373ffffffffffffffffffffffffffffffffffffffff168360405161085c90610cdf565b5f6040518083038185875af1925050503d805f8114610896576040519150601f19603f3d011682016040523d82523d5f602084013e61089b565b606091505b50915091503373ffffffffffffffffffffffffffffffffffffffff167f12aa0df8f16dc5d59f75b84454862e4212020d52951328d17678c3e226f510a48585856040516108ea93929190610d4e565b60405180910390a28161094c575f61090182610952565b905080600290816109129190610fb5565b507fd74425d2c4a95b1f08686289ced4d572a8cd1be1531394e53102ce98b1761df4816040516109429190610bca565b60405180910390a1505b50505050565b606060448251101561099b576040518060400160405280600e81526020017f556e6b6e6f776e2072657665727400000000000000000000000000000000000081525090506109b8565b600482019150818060200190518101906109b59190611332565b90505b919050565b5f604051905090565b5f5ffd5b5f5ffd5b5f73ffffffffffffffffffffffffffffffffffffffff82169050919050565b5f6109f7826109ce565b9050919050565b610a07816109ed565b8114610a11575f5ffd5b50565b5f81359050610a22816109fe565b92915050565b5f60208284031215610a3d57610a3c6109c6565b5b5f610a4a84828501610a14565b91505092915050565b5f819050919050565b610a6581610a53565b82525050565b5f602082019050610a7e5f830184610a5c565b92915050565b5f610a8e826109ce565b9050919050565b610a9e81610a84565b8114610aa8575f5ffd5b50565b5f81359050610ab981610a95565b92915050565b610ac881610a53565b8114610ad2575f5ffd5b50565b5f81359050610ae381610abf565b92915050565b5f5f60408385031215610aff57610afe6109c6565b5b5f610b0c85828601610aab565b9250506020610b1d85828601610ad5565b9150509250929050565b5f8115159050919050565b610b3b81610b27565b82525050565b5f602082019050610b545f830184610b32565b92915050565b5f81519050919050565b5f82825260208201905092915050565b8281835e5f83830152505050565b5f601f19601f8301169050919050565b5f610b9c82610b5a565b610ba68185610b64565b9350610bb6818560208601610b74565b610bbf81610b82565b840191505092915050565b5f6020820190508181035f830152610be28184610b92565b905092915050565b7f496e73756666696369656e742062616c616e63650000000000000000000000005f82015250565b5f610c1e601483610b64565b9150610c2982610bea565b602082019050919050565b5f6020820190508181035f830152610c4b81610c12565b9050919050565b7f4e487b71000000000000000000000000000000000000000000000000000000005f52601160045260245ffd5b5f610c8982610a53565b9150610c9483610a53565b9250828203905081811115610cac57610cab610c52565b5b92915050565b5f81905092915050565b50565b5f610cca5f83610cb2565b9150610cd582610cbc565b5f82019050919050565b5f610ce982610cbf565b9150819050919050565b5f819050919050565b5f610d16610d11610d0c846109ce565b610cf3565b6109ce565b9050919050565b5f610d2782610cfc565b9050919050565b5f610d3882610d1d565b9050919050565b610d4881610d2e565b82525050565b5f606082019050610d615f830186610d3f565b610d6e6020830185610a5c565b610d7b6040830184610b32565b949350505050565b7f4e487b71000000000000000000000000000000000000000000000000000000005f52604160045260245ffd5b7f4e487b71000000000000000000000000000000000000000000000000000000005f52602260045260245ffd5b5f6002820490506001821680610df457607f821691505b602082108103610e0757610e06610db0565b5b50919050565b5f819050815f5260205f209050919050565b5f6020601f8301049050919050565b5f82821b905092915050565b5f60088302610e697fffffffffffffffffffffffffffffffffffffffffffffffffffffffffffffffff82610e2e565b610e738683610e2e565b95508019841693508086168417925050509392505050565b5f610ea5610ea0610e9b84610a53565b610cf3565b610a53565b9050919050565b5f819050919050565b610ebe83610e8b565b610ed2610eca82610eac565b848454610e3a565b825550505050565b5f5f905090565b610ee9610eda565b610ef4818484610eb5565b505050565b5f5b82811015610f1a57610f0f5f828401610ee1565b600181019050610efb565b505050565b601f821115610f6d5782821115610f6c57610f3981610e0d565b610f4283610e1f565b610f4b85610e1f565b6020861015610f58575f90505b808301610f6782840382610ef9565b505050505b5b505050565b5f82821c905092915050565b5f610f8d5f1984600802610f72565b1980831691505092915050565b5f610fa58383610f7e565b9150826002028217905092915050565b610fbe82610b5a565b67ffffffffffffffff811115610fd757610fd6610d83565b5b610fe18254610ddd565b610fec828285610f1f565b5f60209050601f83116001811461101d575f841561100b578287015190505b6110158582610f9a565b86555061107c565b601f19841661102b86610e0d565b5f5b828110156110525784890151825560018201915060208501945060208101905061102d565b8683101561106f578489015161106b601f891682610f7e565b8355505b6001600288020188555050505b505050505050565b7f455448207472616e73666572206661696c6564000000000000000000000000005f82015250565b5f6110b8601383610b64565b91506110c382611084565b602082019050919050565b5f6020820190508181035f8301526110e5816110ac565b9050919050565b5f8160e01c9050919050565b5f60033d11156111145760045f5f3e6111115f516110ec565b90505b90565b61112082610b82565b810181811067ffffffffffffffff8211171561113f5761113e610d83565b5b80604052505050565b5f60443d106111d4576111596109bd565b60043d036004823e80513d602482011167ffffffffffffffff821117156111815750506111d4565b808201805167ffffffffffffffff81111561119f57505050506111d4565b80602083010160043d0385018111156111bc5750505050506111d4565b6111cb82602001850186611117565b82955050505050505b90565b7f537563636573732066756e6374696f6e206578656374656400000000000000005f82015250565b5f61120b601883610b64565b9150611216826111d7565b602082019050919050565b5f6020820190508181035f830152611238816111ff565b9050919050565b5f61124982610a53565b915061125483610a53565b925082820190508082111561126c5761126b610c52565b5b92915050565b5f5ffd5b5f5ffd5b5f6112836109bd565b905061128f8282611117565b919050565b5f67ffffffffffffffff8211156112ae576112ad610d83565b5b6112b782610b82565b9050602081019050919050565b5f6112d66112d184611294565b61127a565b9050828152602081018484840111156112f2576112f1611276565b5b6112fd848285610b74565b509392505050565b5f82601f83011261131957611318611272565b5b81516113298482602086016112c4565b91505092915050565b5f60208284031215611347576113466109c6565b5b5f82015167ffffffffffffffff811115611364576113636109ca565b5b61137084828501611305565b9150509291505056fea2646970667358221220109f0ea77f9d9ef29c79ea29ebb1b9dc9d5259decd37b204e5292a7b83caaec064736f6c63430008220033",
			"opcodes": "PUSH1 0x80 PUSH1 0x40 MSTORE CALLVALUE DUP1 ISZERO PUSH1 0xE JUMPI PUSH0 PUSH0 REVERT JUMPDEST POP PUSH2 0x13AF DUP1 PUSH2 0x1C PUSH0 CODECOPY PUSH0 RETURN INVALID PUSH1 0x80 PUSH1 0x40 MSTORE PUSH1 0x4 CALLDATASIZE LT PUSH2 0x7A JUMPI PUSH0 CALLDATALOAD PUSH1 0xE0 SHR DUP1 PUSH4 0xC816F038 GT PUSH2 0x4D JUMPI DUP1 PUSH4 0xC816F038 EQ PUSH2 0x148 JUMPI DUP1 PUSH4 0xD0E30DB0 EQ PUSH2 0x170 JUMPI DUP1 PUSH4 0xECF1F235 EQ PUSH2 0x17A JUMPI DUP1 PUSH4 0xF9087315 EQ PUSH2 0x1A4 JUMPI PUSH2 0x7A JUMP JUMPDEST DUP1 PUSH4 0x27E235E3 EQ PUSH2 0x7E JUMPI DUP1 PUSH4 0x5058C460 EQ PUSH2 0xBA JUMPI DUP1 PUSH4 0x6EF61092 EQ PUSH2 0xE2 JUMPI DUP1 PUSH4 0x8B7AFE2E EQ PUSH2 0x11E JUMPI JUMPDEST PUSH0 PUSH0 REVERT JUMPDEST CALLVALUE DUP1 ISZERO PUSH2 0x89 JUMPI PUSH0 PUSH0 REVERT JUMPDEST POP PUSH2 0xA4 PUSH1 0x4 DUP1 CALLDATASIZE SUB DUP2 ADD SWAP1 PUSH2 0x9F SWAP2 SWAP1 PUSH2 0xA28 JUMP JUMPDEST PUSH2 0x1CC JUMP JUMPDEST PUSH1 0x40 MLOAD PUSH2 0xB1 SWAP2 SWAP1 PUSH2 0xA6B JUMP JUMPDEST PUSH1 0x40 MLOAD DUP1 SWAP2 SUB SWAP1 RETURN JUMPDEST CALLVALUE DUP1 ISZERO PUSH2 0xC5 JUMPI PUSH0 PUSH0 REVERT JUMPDEST POP PUSH2 0xE0 PUSH1 0x4 DUP1 CALLDATASIZE SUB DUP2 ADD SWAP1 PUSH2 0xDB SWAP2 SWAP1 PUSH2 0xAE9 JUMP JUMPDEST PUSH2 0x1E0 JUMP JUMPDEST STOP JUMPDEST CALLVALUE DUP1 ISZERO PUSH2 0xED JUMPI PUSH0 PUSH0 REVERT JUMPDEST POP PUSH2 0x108 PUSH1 0x4 DUP1 CALLDATASIZE SUB DUP2 ADD SWAP1 PUSH2 0x103 SWAP2 SWAP1 PUSH2 0xA28 JUMP JUMPDEST PUSH2 0x3D6 JUMP JUMPDEST PUSH1 0x40 MLOAD PUSH2 0x115 SWAP2 SWAP1 PUSH2 0xB41 JUMP JUMPDEST PUSH1 0x40 MLOAD DUP1 SWAP2 SUB SWAP1 RETURN JUMPDEST CALLVALUE DUP1 ISZERO PUSH2 0x129 JUMPI PUSH0 PUSH0 REVERT JUMPDEST POP PUSH2 0x132 PUSH2 0x3F3 JUMP JUMPDEST PUSH1 0x40 MLOAD PUSH2 0x13F SWAP2 SWAP1 PUSH2 0xA6B JUMP JUMPDEST PUSH1 0x40 MLOAD DUP1 SWAP2 SUB SWAP1 RETURN JUMPDEST CALLVALUE DUP1 ISZERO PUSH2 0x153 JUMPI PUSH0 PUSH0 REVERT JUMPDEST POP PUSH2 0x16E PUSH1 0x4 DUP1 CALLDATASIZE SUB DUP2 ADD SWAP1 PUSH2 0x169 SWAP2 SWAP1 PUSH2 0xA28 JUMP JUMPDEST PUSH2 0x3FA JUMP JUMPDEST STOP JUMPDEST PUSH2 0x178 PUSH2 0x5E3 JUMP JUMPDEST STOP JUMPDEST CALLVALUE DUP1 ISZERO PUSH2 0x185 JUMPI PUSH0 PUSH0 REVERT JUMPDEST POP PUSH2 0x18E PUSH2 0x685 JUMP JUMPDEST PUSH1 0x40 MLOAD PUSH2 0x19B SWAP2 SWAP1 PUSH2 0xBCA JUMP JUMPDEST PUSH1 0x40 MLOAD DUP1 SWAP2 SUB SWAP1 RETURN JUMPDEST CALLVALUE DUP1 ISZERO PUSH2 0x1AF JUMPI PUSH0 PUSH0 REVERT JUMPDEST POP PUSH2 0x1CA PUSH1 0x4 DUP1 CALLDATASIZE SUB DUP2 ADD SWAP1 PUSH2 0x1C5 SWAP2 SWAP1 PUSH2 0xAE9 JUMP JUMPDEST PUSH2 0x711 JUMP JUMPDEST STOP JUMPDEST PUSH0 PUSH1 0x20 MSTORE DUP1 PUSH0 MSTORE PUSH1 0x40 PUSH0 KECCAK256 PUSH0 SWAP2 POP SWAP1 POP SLOAD DUP2 JUMP JUMPDEST DUP1 PUSH0 PUSH0 CALLER PUSH20 0xFFFFFFFFFFFFFFFFFFFFFFFFFFFFFFFFFFFFFFFF AND PUSH20 0xFFFFFFFFFFFFFFFFFFFFFFFFFFFFFFFFFFFFFFFF AND DUP2 MSTORE PUSH1 0x20 ADD SWAP1 DUP2 MSTORE PUSH1 0x20 ADD PUSH0 KECCAK256 SLOAD LT ISZERO PUSH2 0x25F JUMPI PUSH1 0x40 MLOAD PUSH32 0x8C379A000000000000000000000000000000000000000000000000000000000 DUP2 MSTORE PUSH1 0x4 ADD PUSH2 0x256 SWAP1 PUSH2 0xC34 JUMP JUMPDEST PUSH1 0x40 MLOAD DUP1 SWAP2 SUB SWAP1 REVERT JUMPDEST DUP1 PUSH0 PUSH0 CALLER PUSH20 0xFFFFFFFFFFFFFFFFFFFFFFFFFFFFFFFFFFFFFFFF AND PUSH20 0xFFFFFFFFFFFFFFFFFFFFFFFFFFFFFFFFFFFFFFFF AND DUP2 MSTORE PUSH1 0x20 ADD SWAP1 DUP2 MSTORE PUSH1 0x20 ADD PUSH0 KECCAK256 PUSH0 DUP3 DUP3 SLOAD PUSH2 0x2AA SWAP2 SWAP1 PUSH2 0xC7F JUMP JUMPDEST SWAP3 POP POP DUP2 SWAP1 SSTORE POP PUSH0 PUSH0 DUP4 PUSH20 0xFFFFFFFFFFFFFFFFFFFFFFFFFFFFFFFFFFFFFFFF AND DUP4 PUSH1 0x40 MLOAD PUSH2 0x2D7 SWAP1 PUSH2 0xCDF JUMP JUMPDEST PUSH0 PUSH1 0x40 MLOAD DUP1 DUP4 SUB DUP2 DUP6 DUP8 GAS CALL SWAP3 POP POP POP RETURNDATASIZE DUP1 PUSH0 DUP2 EQ PUSH2 0x311 JUMPI PUSH1 0x40 MLOAD SWAP2 POP PUSH1 0x1F NOT PUSH1 0x3F RETURNDATASIZE ADD AND DUP3 ADD PUSH1 0x40 MSTORE RETURNDATASIZE DUP3 MSTORE RETURNDATASIZE PUSH0 PUSH1 0x20 DUP5 ADD RETURNDATACOPY PUSH2 0x316 JUMP JUMPDEST PUSH1 0x60 SWAP2 POP JUMPDEST POP SWAP2 POP SWAP2 POP CALLER PUSH20 0xFFFFFFFFFFFFFFFFFFFFFFFFFFFFFFFFFFFFFFFF AND PUSH32 0x6326AC4908827896CDEBC9986D1BDD4CD8BA02D0A41EAB45D6722430EEDC4ED0 DUP6 DUP6 DUP6 PUSH1 0x40 MLOAD PUSH2 0x365 SWAP4 SWAP3 SWAP2 SWAP1 PUSH2 0xD4E JUMP JUMPDEST PUSH1 0x40 MLOAD DUP1 SWAP2 SUB SWAP1 LOG2 DUP2 PUSH2 0x390 JUMPI PUSH0 PUSH2 0x37C DUP3 PUSH2 0x952 JUMP JUMPDEST SWAP1 POP DUP1 PUSH1 0x2 SWAP1 DUP2 PUSH2 0x38D SWAP2 SWAP1 PUSH2 0xFB5 JUMP JUMPDEST POP POP JUMPDEST DUP2 PUSH2 0x3D0 JUMPI PUSH1 0x40 MLOAD PUSH32 0x8C379A000000000000000000000000000000000000000000000000000000000 DUP2 MSTORE PUSH1 0x4 ADD PUSH2 0x3C7 SWAP1 PUSH2 0x10CE JUMP JUMPDEST PUSH1 0x40 MLOAD DUP1 SWAP2 SUB SWAP1 REVERT JUMPDEST POP POP POP POP JUMP JUMPDEST PUSH1 0x1 PUSH1 0x20 MSTORE DUP1 PUSH0 MSTORE PUSH1 0x40 PUSH0 KECCAK256 PUSH0 SWAP2 POP SLOAD SWAP1 PUSH2 0x100 EXP SWAP1 DIV PUSH1 0xFF AND DUP2 JUMP JUMPDEST PUSH0 SELFBALANCE SWAP1 POP SWAP1 JUMP JUMPDEST PUSH0 DUP2 SWAP1 POP DUP1 PUSH20 0xFFFFFFFFFFFFFFFFFFFFFFFFFFFFFFFFFFFFFFFF AND PUSH4 0x671BD39D PUSH1 0x40 MLOAD DUP2 PUSH4 0xFFFFFFFF AND PUSH1 0xE0 SHL DUP2 MSTORE PUSH1 0x4 ADD PUSH0 PUSH1 0x40 MLOAD DUP1 DUP4 SUB DUP2 PUSH0 DUP8 DUP1 EXTCODESIZE ISZERO DUP1 ISZERO PUSH2 0x443 JUMPI PUSH0 PUSH0 REVERT JUMPDEST POP GAS CALL SWAP3 POP POP POP DUP1 ISZERO PUSH2 0x454 JUMPI POP PUSH1 0x1 JUMPDEST PUSH2 0x4CB JUMPI PUSH2 0x460 PUSH2 0x10F8 JUMP JUMPDEST DUP1 PUSH4 0x8C379A0 SUB PUSH2 0x4BC JUMPI POP PUSH2 0x474 PUSH2 0x1148 JUMP JUMPDEST DUP1 PUSH2 0x47F JUMPI POP PUSH2 0x4BE JUMP JUMPDEST PUSH32 0x2170A899EB3DF99DE3D6973D7F04A8981D877B84CA2055234D696AE04A5547F3 DUP2 PUSH1 0x40 MLOAD PUSH2 0x4AE SWAP2 SWAP1 PUSH2 0xBCA JUMP JUMPDEST PUSH1 0x40 MLOAD DUP1 SWAP2 SUB SWAP1 LOG1 POP PUSH2 0x4C6 JUMP JUMPDEST POP JUMPDEST RETURNDATASIZE PUSH0 PUSH0 RETURNDATACOPY RETURNDATASIZE PUSH0 REVERT JUMPDEST PUSH2 0x501 JUMP JUMPDEST PUSH32 0x907064B0143A723EBD8288B576F516A5FE1E8FF61101035F8D305A383CF11854 PUSH1 0x40 MLOAD PUSH2 0x4F8 SWAP1 PUSH2 0x1221 JUMP JUMPDEST PUSH1 0x40 MLOAD DUP1 SWAP2 SUB SWAP1 LOG1 JUMPDEST DUP1 PUSH20 0xFFFFFFFFFFFFFFFFFFFFFFFFFFFFFFFFFFFFFFFF AND PUSH4 0xCA463E19 PUSH1 0x40 MLOAD DUP2 PUSH4 0xFFFFFFFF AND PUSH1 0xE0 SHL DUP2 MSTORE PUSH1 0x4 ADD PUSH0 PUSH1 0x40 MLOAD DUP1 DUP4 SUB DUP2 PUSH0 DUP8 DUP1 EXTCODESIZE ISZERO DUP1 ISZERO PUSH2 0x546 JUMPI PUSH0 PUSH0 REVERT JUMPDEST POP GAS CALL SWAP3 POP POP POP DUP1 ISZERO PUSH2 0x557 JUMPI POP PUSH1 0x1 JUMPDEST PUSH2 0x5DE JUMPI PUSH2 0x563 PUSH2 0x10F8 JUMP JUMPDEST DUP1 PUSH4 0x8C379A0 SUB PUSH2 0x5CF JUMPI POP PUSH2 0x577 PUSH2 0x1148 JUMP JUMPDEST DUP1 PUSH2 0x582 JUMPI POP PUSH2 0x5D1 JUMP JUMPDEST DUP1 PUSH1 0x2 SWAP1 DUP2 PUSH2 0x591 SWAP2 SWAP1 PUSH2 0xFB5 JUMP JUMPDEST POP PUSH32 0x2170A899EB3DF99DE3D6973D7F04A8981D877B84CA2055234D696AE04A5547F3 DUP2 PUSH1 0x40 MLOAD PUSH2 0x5C1 SWAP2 SWAP1 PUSH2 0xBCA JUMP JUMPDEST PUSH1 0x40 MLOAD DUP1 SWAP2 SUB SWAP1 LOG1 POP PUSH2 0x5D9 JUMP JUMPDEST POP JUMPDEST RETURNDATASIZE PUSH0 PUSH0 RETURNDATACOPY RETURNDATASIZE PUSH0 REVERT JUMPDEST PUSH2 0x5DF JUMP JUMPDEST JUMPDEST POP POP JUMP JUMPDEST CALLVALUE PUSH0 PUSH0 CALLER PUSH20 0xFFFFFFFFFFFFFFFFFFFFFFFFFFFFFFFFFFFFFFFF AND PUSH20 0xFFFFFFFFFFFFFFFFFFFFFFFFFFFFFFFFFFFFFFFF AND DUP2 MSTORE PUSH1 0x20 ADD SWAP1 DUP2 MSTORE PUSH1 0x20 ADD PUSH0 KECCAK256 PUSH0 DUP3 DUP3 SLOAD PUSH2 0x62E SWAP2 SWAP1 PUSH2 0x123F JUMP JUMPDEST SWAP3 POP POP DUP2 SWAP1 SSTORE POP CALLER PUSH20 0xFFFFFFFFFFFFFFFFFFFFFFFFFFFFFFFFFFFFFFFF AND PUSH32 0xE1FFFCC4923D04B559F4D29A8BFC6CDA04EB5B0D3C460751C2402C5C5CC9109C CALLVALUE PUSH1 0x40 MLOAD PUSH2 0x67B SWAP2 SWAP1 PUSH2 0xA6B JUMP JUMPDEST PUSH1 0x40 MLOAD DUP1 SWAP2 SUB SWAP1 LOG2 JUMP JUMPDEST PUSH1 0x2 DUP1 SLOAD PUSH2 0x692 SWAP1 PUSH2 0xDDD JUMP JUMPDEST DUP1 PUSH1 0x1F ADD PUSH1 0x20 DUP1 SWAP2 DIV MUL PUSH1 0x20 ADD PUSH1 0x40 MLOAD SWAP1 DUP2 ADD PUSH1 0x40 MSTORE DUP1 SWAP3 SWAP2 SWAP1 DUP2 DUP2 MSTORE PUSH1 0x20 ADD DUP3 DUP1 SLOAD PUSH2 0x6BE SWAP1 PUSH2 0xDDD JUMP JUMPDEST DUP1 ISZERO PUSH2 0x709 JUMPI DUP1 PUSH1 0x1F LT PUSH2 0x6E0 JUMPI PUSH2 0x100 DUP1 DUP4 SLOAD DIV MUL DUP4 MSTORE SWAP2 PUSH1 0x20 ADD SWAP2 PUSH2 0x709 JUMP JUMPDEST DUP3 ADD SWAP2 SWAP1 PUSH0 MSTORE PUSH1 0x20 PUSH0 KECCAK256 SWAP1 JUMPDEST DUP2 SLOAD DUP2 MSTORE SWAP1 PUSH1 0x1 ADD SWAP1 PUSH1 0x20 ADD DUP1 DUP4 GT PUSH2 0x6EC JUMPI DUP3 SWAP1 SUB PUSH1 0x1F AND DUP3 ADD SWAP2 JUMPDEST POP POP POP POP POP DUP2 JUMP JUMPDEST DUP1 PUSH0 PUSH0 CALLER PUSH20 0xFFFFFFFFFFFFFFFFFFFFFFFFFFFFFFFFFFFFFFFF AND PUSH20 0xFFFFFFFFFFFFFFFFFFFFFFFFFFFFFFFFFFFFFFFF AND DUP2 MSTORE PUSH1 0x20 ADD SWAP1 DUP2 MSTORE PUSH1 0x20 ADD PUSH0 KECCAK256 SLOAD LT ISZERO PUSH2 0x790 JUMPI PUSH1 0x40 MLOAD PUSH32 0x8C379A000000000000000000000000000000000000000000000000000000000 DUP2 MSTORE PUSH1 0x4 ADD PUSH2 0x787 SWAP1 PUSH2 0xC34 JUMP JUMPDEST PUSH1 0x40 MLOAD DUP1 SWAP2 SUB SWAP1 REVERT JUMPDEST DUP1 PUSH0 PUSH0 CALLER PUSH20 0xFFFFFFFFFFFFFFFFFFFFFFFFFFFFFFFFFFFFFFFF AND PUSH20 0xFFFFFFFFFFFFFFFFFFFFFFFFFFFFFFFFFFFFFFFF AND DUP2 MSTORE PUSH1 0x20 ADD SWAP1 DUP2 MSTORE PUSH1 0x20 ADD PUSH0 KECCAK256 PUSH0 DUP3 DUP3 SLOAD PUSH2 0x7DB SWAP2 SWAP1 PUSH2 0xC7F JUMP JUMPDEST SWAP3 POP POP DUP2 SWAP1 SSTORE POP PUSH1 0x1 DUP1 PUSH0 CALLER PUSH20 0xFFFFFFFFFFFFFFFFFFFFFFFFFFFFFFFFFFFFFFFF AND PUSH20 0xFFFFFFFFFFFFFFFFFFFFFFFFFFFFFFFFFFFFFFFF AND DUP2 MSTORE PUSH1 0x20 ADD SWAP1 DUP2 MSTORE PUSH1 0x20 ADD PUSH0 KECCAK256 PUSH0 PUSH2 0x100 EXP DUP2 SLOAD DUP2 PUSH1 0xFF MUL NOT AND SWAP1 DUP4 ISZERO ISZERO MUL OR SWAP1 SSTORE POP PUSH0 PUSH0 DUP4 PUSH20 0xFFFFFFFFFFFFFFFFFFFFFFFFFFFFFFFFFFFFFFFF AND DUP4 PUSH1 0x40 MLOAD PUSH2 0x85C SWAP1 PUSH2 0xCDF JUMP JUMPDEST PUSH0 PUSH1 0x40 MLOAD DUP1 DUP4 SUB DUP2 DUP6 DUP8 GAS CALL SWAP3 POP POP POP RETURNDATASIZE DUP1 PUSH0 DUP2 EQ PUSH2 0x896 JUMPI PUSH1 0x40 MLOAD SWAP2 POP PUSH1 0x1F NOT PUSH1 0x3F RETURNDATASIZE ADD AND DUP3 ADD PUSH1 0x40 MSTORE RETURNDATASIZE DUP3 MSTORE RETURNDATASIZE PUSH0 PUSH1 0x20 DUP5 ADD RETURNDATACOPY PUSH2 0x89B JUMP JUMPDEST PUSH1 0x60 SWAP2 POP JUMPDEST POP SWAP2 POP SWAP2 POP CALLER PUSH20 0xFFFFFFFFFFFFFFFFFFFFFFFFFFFFFFFFFFFFFFFF AND PUSH32 0x12AA0DF8F16DC5D59F75B84454862E4212020D52951328D17678C3E226F510A4 DUP6 DUP6 DUP6 PUSH1 0x40 MLOAD PUSH2 0x8EA SWAP4 SWAP3 SWAP2 SWAP1 PUSH2 0xD4E JUMP JUMPDEST PUSH1 0x40 MLOAD DUP1 SWAP2 SUB SWAP1 LOG2 DUP2 PUSH2 0x94C JUMPI PUSH0 PUSH2 0x901 DUP3 PUSH2 0x952 JUMP JUMPDEST SWAP1 POP DUP1 PUSH1 0x2 SWAP1 DUP2 PUSH2 0x912 SWAP2 SWAP1 PUSH2 0xFB5 JUMP JUMPDEST POP PUSH32 0xD74425D2C4A95B1F08686289CED4D572A8CD1BE1531394E53102CE98B1761DF4 DUP2 PUSH1 0x40 MLOAD PUSH2 0x942 SWAP2 SWAP1 PUSH2 0xBCA JUMP JUMPDEST PUSH1 0x40 MLOAD DUP1 SWAP2 SUB SWAP1 LOG1 POP JUMPDEST POP POP POP POP JUMP JUMPDEST PUSH1 0x60 PUSH1 0x44 DUP3 MLOAD LT ISZERO PUSH2 0x99B JUMPI PUSH1 0x40 MLOAD DUP1 PUSH1 0x40 ADD PUSH1 0x40 MSTORE DUP1 PUSH1 0xE DUP2 MSTORE PUSH1 0x20 ADD PUSH32 0x556E6B6E6F776E20726576657274000000000000000000000000000000000000 DUP2 MSTORE POP SWAP1 POP PUSH2 0x9B8 JUMP JUMPDEST PUSH1 0x4 DUP3 ADD SWAP2 POP DUP2 DUP1 PUSH1 0x20 ADD SWAP1 MLOAD DUP2 ADD SWAP1 PUSH2 0x9B5 SWAP2 SWAP1 PUSH2 0x1332 JUMP JUMPDEST SWAP1 POP JUMPDEST SWAP2 SWAP1 POP JUMP JUMPDEST PUSH0 PUSH1 0x40 MLOAD SWAP1 POP SWAP1 JUMP JUMPDEST PUSH0 PUSH0 REVERT JUMPDEST PUSH0 PUSH0 REVERT JUMPDEST PUSH0 PUSH20 0xFFFFFFFFFFFFFFFFFFFFFFFFFFFFFFFFFFFFFFFF DUP3 AND SWAP1 POP SWAP2 SWAP1 POP JUMP JUMPDEST PUSH0 PUSH2 0x9F7 DUP3 PUSH2 0x9CE JUMP JUMPDEST SWAP1 POP SWAP2 SWAP1 POP JUMP JUMPDEST PUSH2 0xA07 DUP2 PUSH2 0x9ED JUMP JUMPDEST DUP2 EQ PUSH2 0xA11 JUMPI PUSH0 PUSH0 REVERT JUMPDEST POP JUMP JUMPDEST PUSH0 DUP2 CALLDATALOAD SWAP1 POP PUSH2 0xA22 DUP2 PUSH2 0x9FE JUMP JUMPDEST SWAP3 SWAP2 POP POP JUMP JUMPDEST PUSH0 PUSH1 0x20 DUP3 DUP5 SUB SLT ISZERO PUSH2 0xA3D JUMPI PUSH2 0xA3C PUSH2 0x9C6 JUMP JUMPDEST JUMPDEST PUSH0 PUSH2 0xA4A DUP5 DUP3 DUP6 ADD PUSH2 0xA14 JUMP JUMPDEST SWAP2 POP POP SWAP3 SWAP2 POP POP JUMP JUMPDEST PUSH0 DUP2 SWAP1 POP SWAP2 SWAP1 POP JUMP JUMPDEST PUSH2 0xA65 DUP2 PUSH2 0xA53 JUMP JUMPDEST DUP3 MSTORE POP POP JUMP JUMPDEST PUSH0 PUSH1 0x20 DUP3 ADD SWAP1 POP PUSH2 0xA7E PUSH0 DUP4 ADD DUP5 PUSH2 0xA5C JUMP JUMPDEST SWAP3 SWAP2 POP POP JUMP JUMPDEST PUSH0 PUSH2 0xA8E DUP3 PUSH2 0x9CE JUMP JUMPDEST SWAP1 POP SWAP2 SWAP1 POP JUMP JUMPDEST PUSH2 0xA9E DUP2 PUSH2 0xA84 JUMP JUMPDEST DUP2 EQ PUSH2 0xAA8 JUMPI PUSH0 PUSH0 REVERT JUMPDEST POP JUMP JUMPDEST PUSH0 DUP2 CALLDATALOAD SWAP1 POP PUSH2 0xAB9 DUP2 PUSH2 0xA95 JUMP JUMPDEST SWAP3 SWAP2 POP POP JUMP JUMPDEST PUSH2 0xAC8 DUP2 PUSH2 0xA53 JUMP JUMPDEST DUP2 EQ PUSH2 0xAD2 JUMPI PUSH0 PUSH0 REVERT JUMPDEST POP JUMP JUMPDEST PUSH0 DUP2 CALLDATALOAD SWAP1 POP PUSH2 0xAE3 DUP2 PUSH2 0xABF JUMP JUMPDEST SWAP3 SWAP2 POP POP JUMP JUMPDEST PUSH0 PUSH0 PUSH1 0x40 DUP4 DUP6 SUB SLT ISZERO PUSH2 0xAFF JUMPI PUSH2 0xAFE PUSH2 0x9C6 JUMP JUMPDEST JUMPDEST PUSH0 PUSH2 0xB0C DUP6 DUP3 DUP7 ADD PUSH2 0xAAB JUMP JUMPDEST SWAP3 POP POP PUSH1 0x20 PUSH2 0xB1D DUP6 DUP3 DUP7 ADD PUSH2 0xAD5 JUMP JUMPDEST SWAP2 POP POP SWAP3 POP SWAP3 SWAP1 POP JUMP JUMPDEST PUSH0 DUP2 ISZERO ISZERO SWAP1 POP SWAP2 SWAP1 POP JUMP JUMPDEST PUSH2 0xB3B DUP2 PUSH2 0xB27 JUMP JUMPDEST DUP3 MSTORE POP POP JUMP JUMPDEST PUSH0 PUSH1 0x20 DUP3 ADD SWAP1 POP PUSH2 0xB54 PUSH0 DUP4 ADD DUP5 PUSH2 0xB32 JUMP JUMPDEST SWAP3 SWAP2 POP POP JUMP JUMPDEST PUSH0 DUP2 MLOAD SWAP1 POP SWAP2 SWAP1 POP JUMP JUMPDEST PUSH0 DUP3 DUP3 MSTORE PUSH1 0x20 DUP3 ADD SWAP1 POP SWAP3 SWAP2 POP POP JUMP JUMPDEST DUP3 DUP2 DUP4 MCOPY PUSH0 DUP4 DUP4 ADD MSTORE POP POP POP JUMP JUMPDEST PUSH0 PUSH1 0x1F NOT PUSH1 0x1F DUP4 ADD AND SWAP1 POP SWAP2 SWAP1 POP JUMP JUMPDEST PUSH0 PUSH2 0xB9C DUP3 PUSH2 0xB5A JUMP JUMPDEST PUSH2 0xBA6 DUP2 DUP6 PUSH2 0xB64 JUMP JUMPDEST SWAP4 POP PUSH2 0xBB6 DUP2 DUP6 PUSH1 0x20 DUP7 ADD PUSH2 0xB74 JUMP JUMPDEST PUSH2 0xBBF DUP2 PUSH2 0xB82 JUMP JUMPDEST DUP5 ADD SWAP2 POP POP SWAP3 SWAP2 POP POP JUMP JUMPDEST PUSH0 PUSH1 0x20 DUP3 ADD SWAP1 POP DUP2 DUP2 SUB PUSH0 DUP4 ADD MSTORE PUSH2 0xBE2 DUP2 DUP5 PUSH2 0xB92 JUMP JUMPDEST SWAP1 POP SWAP3 SWAP2 POP POP JUMP JUMPDEST PUSH32 0x496E73756666696369656E742062616C616E6365000000000000000000000000 PUSH0 DUP3 ADD MSTORE POP JUMP JUMPDEST PUSH0 PUSH2 0xC1E PUSH1 0x14 DUP4 PUSH2 0xB64 JUMP JUMPDEST SWAP2 POP PUSH2 0xC29 DUP3 PUSH2 0xBEA JUMP JUMPDEST PUSH1 0x20 DUP3 ADD SWAP1 POP SWAP2 SWAP1 POP JUMP JUMPDEST PUSH0 PUSH1 0x20 DUP3 ADD SWAP1 POP DUP2 DUP2 SUB PUSH0 DUP4 ADD MSTORE PUSH2 0xC4B DUP2 PUSH2 0xC12 JUMP JUMPDEST SWAP1 POP SWAP2 SWAP1 POP JUMP JUMPDEST PUSH32 0x4E487B7100000000000000000000000000000000000000000000000000000000 PUSH0 MSTORE PUSH1 0x11 PUSH1 0x4 MSTORE PUSH1 0x24 PUSH0 REVERT JUMPDEST PUSH0 PUSH2 0xC89 DUP3 PUSH2 0xA53 JUMP JUMPDEST SWAP2 POP PUSH2 0xC94 DUP4 PUSH2 0xA53 JUMP JUMPDEST SWAP3 POP DUP3 DUP3 SUB SWAP1 POP DUP2 DUP2 GT ISZERO PUSH2 0xCAC JUMPI PUSH2 0xCAB PUSH2 0xC52 JUMP JUMPDEST JUMPDEST SWAP3 SWAP2 POP POP JUMP JUMPDEST PUSH0 DUP2 SWAP1 POP SWAP3 SWAP2 POP POP JUMP JUMPDEST POP JUMP JUMPDEST PUSH0 PUSH2 0xCCA PUSH0 DUP4 PUSH2 0xCB2 JUMP JUMPDEST SWAP2 POP PUSH2 0xCD5 DUP3 PUSH2 0xCBC JUMP JUMPDEST PUSH0 DUP3 ADD SWAP1 POP SWAP2 SWAP1 POP JUMP JUMPDEST PUSH0 PUSH2 0xCE9 DUP3 PUSH2 0xCBF JUMP JUMPDEST SWAP2 POP DUP2 SWAP1 POP SWAP2 SWAP1 POP JUMP JUMPDEST PUSH0 DUP2 SWAP1 POP SWAP2 SWAP1 POP JUMP JUMPDEST PUSH0 PUSH2 0xD16 PUSH2 0xD11 PUSH2 0xD0C DUP5 PUSH2 0x9CE JUMP JUMPDEST PUSH2 0xCF3 JUMP JUMPDEST PUSH2 0x9CE JUMP JUMPDEST SWAP1 POP SWAP2 SWAP1 POP JUMP JUMPDEST PUSH0 PUSH2 0xD27 DUP3 PUSH2 0xCFC JUMP JUMPDEST SWAP1 POP SWAP2 SWAP1 POP JUMP JUMPDEST PUSH0 PUSH2 0xD38 DUP3 PUSH2 0xD1D JUMP JUMPDEST SWAP1 POP SWAP2 SWAP1 POP JUMP JUMPDEST PUSH2 0xD48 DUP2 PUSH2 0xD2E JUMP JUMPDEST DUP3 MSTORE POP POP JUMP JUMPDEST PUSH0 PUSH1 0x60 DUP3 ADD SWAP1 POP PUSH2 0xD61 PUSH0 DUP4 ADD DUP7 PUSH2 0xD3F JUMP JUMPDEST PUSH2 0xD6E PUSH1 0x20 DUP4 ADD DUP6 PUSH2 0xA5C JUMP JUMPDEST PUSH2 0xD7B PUSH1 0x40 DUP4 ADD DUP5 PUSH2 0xB32 JUMP JUMPDEST SWAP5 SWAP4 POP POP POP POP JUMP JUMPDEST PUSH32 0x4E487B7100000000000000000000000000000000000000000000000000000000 PUSH0 MSTORE PUSH1 0x41 PUSH1 0x4 MSTORE PUSH1 0x24 PUSH0 REVERT JUMPDEST PUSH32 0x4E487B7100000000000000000000000000000000000000000000000000000000 PUSH0 MSTORE PUSH1 0x22 PUSH1 0x4 MSTORE PUSH1 0x24 PUSH0 REVERT JUMPDEST PUSH0 PUSH1 0x2 DUP3 DIV SWAP1 POP PUSH1 0x1 DUP3 AND DUP1 PUSH2 0xDF4 JUMPI PUSH1 0x7F DUP3 AND SWAP2 POP JUMPDEST PUSH1 0x20 DUP3 LT DUP2 SUB PUSH2 0xE07 JUMPI PUSH2 0xE06 PUSH2 0xDB0 JUMP JUMPDEST JUMPDEST POP SWAP2 SWAP1 POP JUMP JUMPDEST PUSH0 DUP2 SWAP1 POP DUP2 PUSH0 MSTORE PUSH1 0x20 PUSH0 KECCAK256 SWAP1 POP SWAP2 SWAP1 POP JUMP JUMPDEST PUSH0 PUSH1 0x20 PUSH1 0x1F DUP4 ADD DIV SWAP1 POP SWAP2 SWAP1 POP JUMP JUMPDEST PUSH0 DUP3 DUP3 SHL SWAP1 POP SWAP3 SWAP2 POP POP JUMP JUMPDEST PUSH0 PUSH1 0x8 DUP4 MUL PUSH2 0xE69 PUSH32 0xFFFFFFFFFFFFFFFFFFFFFFFFFFFFFFFFFFFFFFFFFFFFFFFFFFFFFFFFFFFFFFFF DUP3 PUSH2 0xE2E JUMP JUMPDEST PUSH2 0xE73 DUP7 DUP4 PUSH2 0xE2E JUMP JUMPDEST SWAP6 POP DUP1 NOT DUP5 AND SWAP4 POP DUP1 DUP7 AND DUP5 OR SWAP3 POP POP POP SWAP4 SWAP3 POP POP POP JUMP JUMPDEST PUSH0 PUSH2 0xEA5 PUSH2 0xEA0 PUSH2 0xE9B DUP5 PUSH2 0xA53 JUMP JUMPDEST PUSH2 0xCF3 JUMP JUMPDEST PUSH2 0xA53 JUMP JUMPDEST SWAP1 POP SWAP2 SWAP1 POP JUMP JUMPDEST PUSH0 DUP2 SWAP1 POP SWAP2 SWAP1 POP JUMP JUMPDEST PUSH2 0xEBE DUP4 PUSH2 0xE8B JUMP JUMPDEST PUSH2 0xED2 PUSH2 0xECA DUP3 PUSH2 0xEAC JUMP JUMPDEST DUP5 DUP5 SLOAD PUSH2 0xE3A JUMP JUMPDEST DUP3 SSTORE POP POP POP POP JUMP JUMPDEST PUSH0 PUSH0 SWAP1 POP SWAP1 JUMP JUMPDEST PUSH2 0xEE9 PUSH2 0xEDA JUMP JUMPDEST PUSH2 0xEF4 DUP2 DUP5 DUP5 PUSH2 0xEB5 JUMP JUMPDEST POP POP POP JUMP JUMPDEST PUSH0 JUMPDEST DUP3 DUP2 LT ISZERO PUSH2 0xF1A JUMPI PUSH2 0xF0F PUSH0 DUP3 DUP5 ADD PUSH2 0xEE1 JUMP JUMPDEST PUSH1 0x1 DUP2 ADD SWAP1 POP PUSH2 0xEFB JUMP JUMPDEST POP POP POP JUMP JUMPDEST PUSH1 0x1F DUP3 GT ISZERO PUSH2 0xF6D JUMPI DUP3 DUP3 GT ISZERO PUSH2 0xF6C JUMPI PUSH2 0xF39 DUP2 PUSH2 0xE0D JUMP JUMPDEST PUSH2 0xF42 DUP4 PUSH2 0xE1F JUMP JUMPDEST PUSH2 0xF4B DUP6 PUSH2 0xE1F JUMP JUMPDEST PUSH1 0x20 DUP7 LT ISZERO PUSH2 0xF58 JUMPI PUSH0 SWAP1 POP JUMPDEST DUP1 DUP4 ADD PUSH2 0xF67 DUP3 DUP5 SUB DUP3 PUSH2 0xEF9 JUMP JUMPDEST POP POP POP POP JUMPDEST JUMPDEST POP POP POP JUMP JUMPDEST PUSH0 DUP3 DUP3 SHR SWAP1 POP SWAP3 SWAP2 POP POP JUMP JUMPDEST PUSH0 PUSH2 0xF8D PUSH0 NOT DUP5 PUSH1 0x8 MUL PUSH2 0xF72 JUMP JUMPDEST NOT DUP1 DUP4 AND SWAP2 POP POP SWAP3 SWAP2 POP POP JUMP JUMPDEST PUSH0 PUSH2 0xFA5 DUP4 DUP4 PUSH2 0xF7E JUMP JUMPDEST SWAP2 POP DUP3 PUSH1 0x2 MUL DUP3 OR SWAP1 POP SWAP3 SWAP2 POP POP JUMP JUMPDEST PUSH2 0xFBE DUP3 PUSH2 0xB5A JUMP JUMPDEST PUSH8 0xFFFFFFFFFFFFFFFF DUP2 GT ISZERO PUSH2 0xFD7 JUMPI PUSH2 0xFD6 PUSH2 0xD83 JUMP JUMPDEST JUMPDEST PUSH2 0xFE1 DUP3 SLOAD PUSH2 0xDDD JUMP JUMPDEST PUSH2 0xFEC DUP3 DUP3 DUP6 PUSH2 0xF1F JUMP JUMPDEST PUSH0 PUSH1 0x20 SWAP1 POP PUSH1 0x1F DUP4 GT PUSH1 0x1 DUP2 EQ PUSH2 0x101D JUMPI PUSH0 DUP5 ISZERO PUSH2 0x100B JUMPI DUP3 DUP8 ADD MLOAD SWAP1 POP JUMPDEST PUSH2 0x1015 DUP6 DUP3 PUSH2 0xF9A JUMP JUMPDEST DUP7 SSTORE POP PUSH2 0x107C JUMP JUMPDEST PUSH1 0x1F NOT DUP5 AND PUSH2 0x102B DUP7 PUSH2 0xE0D JUMP JUMPDEST PUSH0 JUMPDEST DUP3 DUP2 LT ISZERO PUSH2 0x1052 JUMPI DUP5 DUP10 ADD MLOAD DUP3 SSTORE PUSH1 0x1 DUP3 ADD SWAP2 POP PUSH1 0x20 DUP6 ADD SWAP5 POP PUSH1 0x20 DUP2 ADD SWAP1 POP PUSH2 0x102D JUMP JUMPDEST DUP7 DUP4 LT ISZERO PUSH2 0x106F JUMPI DUP5 DUP10 ADD MLOAD PUSH2 0x106B PUSH1 0x1F DUP10 AND DUP3 PUSH2 0xF7E JUMP JUMPDEST DUP4 SSTORE POP JUMPDEST PUSH1 0x1 PUSH1 0x2 DUP9 MUL ADD DUP9 SSTORE POP POP POP JUMPDEST POP POP POP POP POP POP JUMP JUMPDEST PUSH32 0x455448207472616E73666572206661696C656400000000000000000000000000 PUSH0 DUP3 ADD MSTORE POP JUMP JUMPDEST PUSH0 PUSH2 0x10B8 PUSH1 0x13 DUP4 PUSH2 0xB64 JUMP JUMPDEST SWAP2 POP PUSH2 0x10C3 DUP3 PUSH2 0x1084 JUMP JUMPDEST PUSH1 0x20 DUP3 ADD SWAP1 POP SWAP2 SWAP1 POP JUMP JUMPDEST PUSH0 PUSH1 0x20 DUP3 ADD SWAP1 POP DUP2 DUP2 SUB PUSH0 DUP4 ADD MSTORE PUSH2 0x10E5 DUP2 PUSH2 0x10AC JUMP JUMPDEST SWAP1 POP SWAP2 SWAP1 POP JUMP JUMPDEST PUSH0 DUP2 PUSH1 0xE0 SHR SWAP1 POP SWAP2 SWAP1 POP JUMP JUMPDEST PUSH0 PUSH1 0x3 RETURNDATASIZE GT ISZERO PUSH2 0x1114 JUMPI PUSH1 0x4 PUSH0 PUSH0 RETURNDATACOPY PUSH2 0x1111 PUSH0 MLOAD PUSH2 0x10EC JUMP JUMPDEST SWAP1 POP JUMPDEST SWAP1 JUMP JUMPDEST PUSH2 0x1120 DUP3 PUSH2 0xB82 JUMP JUMPDEST DUP2 ADD DUP2 DUP2 LT PUSH8 0xFFFFFFFFFFFFFFFF DUP3 GT OR ISZERO PUSH2 0x113F JUMPI PUSH2 0x113E PUSH2 0xD83 JUMP JUMPDEST JUMPDEST DUP1 PUSH1 0x40 MSTORE POP POP POP JUMP JUMPDEST PUSH0 PUSH1 0x44 RETURNDATASIZE LT PUSH2 0x11D4 JUMPI PUSH2 0x1159 PUSH2 0x9BD JUMP JUMPDEST PUSH1 0x4 RETURNDATASIZE SUB PUSH1 0x4 DUP3 RETURNDATACOPY DUP1 MLOAD RETURNDATASIZE PUSH1 0x24 DUP3 ADD GT PUSH8 0xFFFFFFFFFFFFFFFF DUP3 GT OR ISZERO PUSH2 0x1181 JUMPI POP POP PUSH2 0x11D4 JUMP JUMPDEST DUP1 DUP3 ADD DUP1 MLOAD PUSH8 0xFFFFFFFFFFFFFFFF DUP2 GT ISZERO PUSH2 0x119F JUMPI POP POP POP POP PUSH2 0x11D4 JUMP JUMPDEST DUP1 PUSH1 0x20 DUP4 ADD ADD PUSH1 0x4 RETURNDATASIZE SUB DUP6 ADD DUP2 GT ISZERO PUSH2 0x11BC JUMPI POP POP POP POP POP PUSH2 0x11D4 JUMP JUMPDEST PUSH2 0x11CB DUP3 PUSH1 0x20 ADD DUP6 ADD DUP7 PUSH2 0x1117 JUMP JUMPDEST DUP3 SWAP6 POP POP POP POP POP POP JUMPDEST SWAP1 JUMP JUMPDEST PUSH32 0x537563636573732066756E6374696F6E20657865637465640000000000000000 PUSH0 DUP3 ADD MSTORE POP JUMP JUMPDEST PUSH0 PUSH2 0x120B PUSH1 0x18 DUP4 PUSH2 0xB64 JUMP JUMPDEST SWAP2 POP PUSH2 0x1216 DUP3 PUSH2 0x11D7 JUMP JUMPDEST PUSH1 0x20 DUP3 ADD SWAP1 POP SWAP2 SWAP1 POP JUMP JUMPDEST PUSH0 PUSH1 0x20 DUP3 ADD SWAP1 POP DUP2 DUP2 SUB PUSH0 DUP4 ADD MSTORE PUSH2 0x1238 DUP2 PUSH2 0x11FF JUMP JUMPDEST SWAP1 POP SWAP2 SWAP1 POP JUMP JUMPDEST PUSH0 PUSH2 0x1249 DUP3 PUSH2 0xA53 JUMP JUMPDEST SWAP2 POP PUSH2 0x1254 DUP4 PUSH2 0xA53 JUMP JUMPDEST SWAP3 POP DUP3 DUP3 ADD SWAP1 POP DUP1 DUP3 GT ISZERO PUSH2 0x126C JUMPI PUSH2 0x126B PUSH2 0xC52 JUMP JUMPDEST JUMPDEST SWAP3 SWAP2 POP POP JUMP JUMPDEST PUSH0 PUSH0 REVERT JUMPDEST PUSH0 PUSH0 REVERT JUMPDEST PUSH0 PUSH2 0x1283 PUSH2 0x9BD JUMP JUMPDEST SWAP1 POP PUSH2 0x128F DUP3 DUP3 PUSH2 0x1117 JUMP JUMPDEST SWAP2 SWAP1 POP JUMP JUMPDEST PUSH0 PUSH8 0xFFFFFFFFFFFFFFFF DUP3 GT ISZERO PUSH2 0x12AE JUMPI PUSH2 0x12AD PUSH2 0xD83 JUMP JUMPDEST JUMPDEST PUSH2 0x12B7 DUP3 PUSH2 0xB82 JUMP JUMPDEST SWAP1 POP PUSH1 0x20 DUP2 ADD SWAP1 POP SWAP2 SWAP1 POP JUMP JUMPDEST PUSH0 PUSH2 0x12D6 PUSH2 0x12D1 DUP5 PUSH2 0x1294 JUMP JUMPDEST PUSH2 0x127A JUMP JUMPDEST SWAP1 POP DUP3 DUP2 MSTORE PUSH1 0x20 DUP2 ADD DUP5 DUP5 DUP5 ADD GT ISZERO PUSH2 0x12F2 JUMPI PUSH2 0x12F1 PUSH2 0x1276 JUMP JUMPDEST JUMPDEST PUSH2 0x12FD DUP5 DUP3 DUP6 PUSH2 0xB74 JUMP JUMPDEST POP SWAP4 SWAP3 POP POP POP JUMP JUMPDEST PUSH0 DUP3 PUSH1 0x1F DUP4 ADD SLT PUSH2 0x1319 JUMPI PUSH2 0x1318 PUSH2 0x1272 JUMP JUMPDEST JUMPDEST DUP2 MLOAD PUSH2 0x1329 DUP5 DUP3 PUSH1 0x20 DUP7 ADD PUSH2 0x12C4 JUMP JUMPDEST SWAP2 POP POP SWAP3 SWAP2 POP POP JUMP JUMPDEST PUSH0 PUSH1 0x20 DUP3 DUP5 SUB SLT ISZERO PUSH2 0x1347 JUMPI PUSH2 0x1346 PUSH2 0x9C6 JUMP JUMPDEST JUMPDEST PUSH0 DUP3 ADD MLOAD PUSH8 0xFFFFFFFFFFFFFFFF DUP2 GT ISZERO PUSH2 0x1364 JUMPI PUSH2 0x1363 PUSH2 0x9CA JUMP JUMPDEST JUMPDEST PUSH2 0x1370 DUP5 DUP3 DUP6 ADD PUSH2 0x1305 JUMP JUMPDEST SWAP2 POP POP SWAP3 SWAP2 POP POP JUMP INVALID LOG2 PUSH5 0x6970667358 0x22 SLT KECCAK256 LT SWAP16 0xE 0xA7 PUSH32 0x9D9EF29C79EA29EBB1B9DC9D5259DECD37B204E5292A7B83CAAEC064736F6C63 NUMBER STOP ADDMOD 0x22 STOP CALLER "
		},
		"gasEstimates": {
			"creation": {
				"codeDepositCost": "1007800",
				"executionCost": "1045",
				"totalCost": "1008845"
			},
			"external": {
				"balances(address)": "2802",
				"contractBalance()": "401",
				"dangerousWithdraw(address,uint256)": "infinite",
				"deposit()": "infinite",
				"lastReverReason()": "infinite",
				"safeWithdraw(address,uint256)": "infinite",
				"tryCatchExample(address)": "infinite",
				"withdrawn(address)": "2878"
			},
			"internal": {
				"decodeRevertMessage(bytes memory)": "infinite"
			}
		},
		"methodIdentifiers": {
			"balances(address)": "27e235e3",
			"contractBalance()": "8b7afe2e",
			"dangerousWithdraw(address,uint256)": "f9087315",
			"deposit()": "d0e30db0",
			"lastReverReason()": "ecf1f235",
			"safeWithdraw(address,uint256)": "5058c460",
			"tryCatchExample(address)": "c816f038",
			"withdrawn(address)": "6ef61092"
		}
	},
	"abi": [
		{
			"anonymous": false,
			"inputs": [
				{
					"indexed": true,
					"internalType": "address",
					"name": "user",
					"type": "address"
				},
				{
					"indexed": false,
					"internalType": "address",
					"name": "receiver",
					"type": "address"
				},
				{
					"indexed": false,
					"internalType": "uint256",
					"name": "amount",
					"type": "uint256"
				},
				{
					"indexed": false,
					"internalType": "bool",
					"name": "success",
					"type": "bool"
				}
			],
			"name": "DangerousWithdrawAttempt",
			"type": "event"
		},
		{
			"anonymous": false,
			"inputs": [
				{
					"indexed": false,
					"internalType": "string",
					"name": "reason",
					"type": "string"
				}
			],
			"name": "DecodedRevertReason",
			"type": "event"
		},
		{
			"anonymous": false,
			"inputs": [
				{
					"indexed": true,
					"internalType": "address",
					"name": "user",
					"type": "address"
				},
				{
					"indexed": false,
					"internalType": "uint256",
					"name": "amount",
					"type": "uint256"
				}
			],
			"name": "Deposit",
			"type": "event"
		},
		{
			"anonymous": false,
			"inputs": [
				{
					"indexed": true,
					"internalType": "address",
					"name": "user",
					"type": "address"
				},
				{
					"indexed": false,
					"internalType": "address",
					"name": "receiver",
					"type": "address"
				},
				{
					"indexed": false,
					"internalType": "uint256",
					"name": "amount",
					"type": "uint256"
				},
				{
					"indexed": false,
					"internalType": "bool",
					"name": "success",
					"type": "bool"
				}
			],
			"name": "SafeWithdrawattempt",
			"type": "event"
		},
		{
			"anonymous": false,
			"inputs": [
				{
					"indexed": false,
					"internalType": "string",
					"name": "reason",
					"type": "string"
				}
			],
			"name": "TryCatchFailure",
			"type": "event"
		},
		{
			"anonymous": false,
			"inputs": [
				{
					"indexed": false,
					"internalType": "string",
					"name": "message",
					"type": "string"
				}
			],
			"name": "TryCatchSuccess",
			"type": "event"
		},
		{
			"inputs": [
				{
					"internalType": "address",
					"name": "",
					"type": "address"
				}
			],
			"name": "balances",
			"outputs": [
				{
					"internalType": "uint256",
					"name": "",
					"type": "uint256"
				}
			],
			"stateMutability": "view",
			"type": "function"
		},
		{
			"inputs": [],
			"name": "contractBalance",
			"outputs": [
				{
					"internalType": "uint256",
					"name": "",
					"type": "uint256"
				}
			],
			"stateMutability": "view",
			"type": "function"
		},
		{
			"inputs": [
				{
					"internalType": "address payable",
					"name": "_receiver",
					"type": "address"
				},
				{
					"internalType": "uint256",
					"name": "_amount",
					"type": "uint256"
				}
			],
			"name": "dangerousWithdraw",
			"outputs": [],
			"stateMutability": "nonpayable",
			"type": "function"
		},
		{
			"inputs": [],
			"name": "deposit",
			"outputs": [],
			"stateMutability": "payable",
			"type": "function"
		},
		{
			"inputs": [],
			"name": "lastReverReason",
			"outputs": [
				{
					"internalType": "string",
					"name": "",
					"type": "string"
				}
			],
			"stateMutability": "view",
			"type": "function"
		},
		{
			"inputs": [
				{
					"internalType": "address payable",
					"name": "_receiver",
					"type": "address"
				},
				{
					"internalType": "uint256",
					"name": "_amount",
					"type": "uint256"
				}
			],
			"name": "safeWithdraw",
			"outputs": [],
			"stateMutability": "nonpayable",
			"type": "function"
		},
		{
			"inputs": [
				{
					"internalType": "address",
					"name": "_target",
					"type": "address"
				}
			],
			"name": "tryCatchExample",
			"outputs": [],
			"stateMutability": "nonpayable",
			"type": "function"
		},
		{
			"inputs": [
				{
					"internalType": "address",
					"name": "",
					"type": "address"
				}
			],
			"name": "withdrawn",
			"outputs": [
				{
					"internalType": "bool",
					"name": "",
					"type": "bool"
				}
			],
			"stateMutability": "view",
			"type": "function"
		}
	]
}