{
	"data": {
		"bytecode": {
			"linkReferences": {},
			"object": "6080604052348015600e575f5ffd5b506110688061001c5f395ff3fe60806040526004361061007a575f3560e01c80638b7afe2e1161004d5780638b7afe2e1461010a5780639415bc5914610134578063c816f0381461015e578063d50f6bf0146101865761007a565b806321b1e5f81461007e57806329f0de3f1461009a57806341456ddb146100c457806346f99063146100e0575b5f5ffd5b61009860048036038101906100939190610704565b6101a2565b005b3480156100a5575f5ffd5b506100ae61034d565b6040516100bb919061079f565b60405180910390f35b6100de60048036038101906100d99190610704565b6103d9565b005b3480156100eb575f5ffd5b506100f461047f565b60405161010191906107d7565b60405180910390f35b348015610115575f5ffd5b5061011e610485565b60405161012b91906107d7565b60405180910390f35b34801561013f575f5ffd5b5061014861048c565b604051610155919061080a565b60405180910390f35b348015610169575f5ffd5b50610184600480360381019061017f919061085e565b61049d565b005b6101a0600480360381019061019b9190610704565b610596565b005b5f5f8273ffffffffffffffffffffffffffffffffffffffff16346040516101c8906108b6565b5f6040518083038185875af1925050503d805f8114610202576040519150601f19603f3d011682016040523d82523d5f602084013e610207565b606091505b5091509150815f5f6101000a81548160ff0219169083151502179055507f86ee1b0bfc110fe36004dcdbb3d6cdc48f92eb028c59a0349f53657f769c26a683348460405161025793929190610925565b60405180910390a1816102b55761026d8161062e565b6002908161027b9190610b8c565b507f2170a899eb3df99de3d6973d7f04a8981d877b84ca2055234d696ae04a5547f360026040516102ac9190610cdc565b60405180910390a15b816102f5576040517f08c379a00000000000000000000000000000000000000000000000000000000081526004016102ec90610d46565b60405180910390fd5b3460015f8282546103069190610d91565b925050819055507f01d1e1188d5752b0c2ac75cd3116d1909db9188078cf91e662696106a2a0ff9b83348460405161034093929190610925565b60405180910390a1505050565b6002805461035a906109b4565b80601f0160208091040260200160405190810160405280929190818152602001828054610386906109b4565b80156103d15780601f106103a8576101008083540402835291602001916103d1565b820191905f5260205f20905b8154815290600101906020018083116103b457829003601f168201915b505050505081565b5f8173ffffffffffffffffffffffffffffffffffffffff166108fc3490811502906040515f60405180830381858888f193505050509050805f5f6101000a81548160ff0219169083151502179055507fc60736f3ae230e2d267fe2c5d403bc0a6a81d7a017fd1c31fdbec1c682085fdb82348360405161045b93929190610925565b60405180910390a13460015f8282546104749190610d91565b925050819055505050565b60015481565b5f47905090565b5f5f9054906101000a900460ff1681565b5f8190508073ffffffffffffffffffffffffffffffffffffffff166312065fe06040518163ffffffff1660e01b8152600401602060405180830381865afa92505050801561050957506040513d601f19601f820116820180604052508101906105069190610dee565b60015b61059057610515610e25565b806308c379a0036105815750610529610e75565b806105345750610583565b80600290816105439190610b8c565b507f2170a899eb3df99de3d6973d7f04a8981d877b84ca2055234d696ae04a5547f381604051610573919061079f565b60405180910390a15061058b565b505b3d5f5f3e3d5ffd5b610592565b505b5050565b8073ffffffffffffffffffffffffffffffffffffffff166108fc3490811502906040515f60405180830381858888f193505050501580156105d9573d5f5f3e3d5ffd5b503460015f8282546105eb9190610d91565b925050819055507f9b0c9a078eb3a8dd07deb39169cba7370ba2167e65af328c00d89420c5c4532a8134604051610623929190610f04565b60405180910390a150565b6060604482511015610677576040518060400160405280600e81526020017f556e6b6e6f776e207265766572740000000000000000000000000000000000008152509050610694565b600482019150818060200190518101906106919190610feb565b90505b919050565b5f604051905090565b5f5ffd5b5f5ffd5b5f73ffffffffffffffffffffffffffffffffffffffff82169050919050565b5f6106d3826106aa565b9050919050565b6106e3816106c9565b81146106ed575f5ffd5b50565b5f813590506106fe816106da565b92915050565b5f60208284031215610719576107186106a2565b5b5f610726848285016106f0565b91505092915050565b5f81519050919050565b5f82825260208201905092915050565b8281835e5f83830152505050565b5f601f19601f8301169050919050565b5f6107718261072f565b61077b8185610739565b935061078b818560208601610749565b61079481610757565b840191505092915050565b5f6020820190508181035f8301526107b78184610767565b905092915050565b5f819050919050565b6107d1816107bf565b82525050565b5f6020820190506107ea5f8301846107c8565b92915050565b5f8115159050919050565b610804816107f0565b82525050565b5f60208201905061081d5f8301846107fb565b92915050565b5f61082d826106aa565b9050919050565b61083d81610823565b8114610847575f5ffd5b50565b5f8135905061085881610834565b92915050565b5f60208284031215610873576108726106a2565b5b5f6108808482850161084a565b91505092915050565b5f81905092915050565b50565b5f6108a15f83610889565b91506108ac82610893565b5f82019050919050565b5f6108c082610896565b9150819050919050565b5f819050919050565b5f6108ed6108e86108e3846106aa565b6108ca565b6106aa565b9050919050565b5f6108fe826108d3565b9050919050565b5f61090f826108f4565b9050919050565b61091f81610905565b82525050565b5f6060820190506109385f830186610916565b61094560208301856107c8565b61095260408301846107fb565b949350505050565b7f4e487b71000000000000000000000000000000000000000000000000000000005f52604160045260245ffd5b7f4e487b71000000000000000000000000000000000000000000000000000000005f52602260045260245ffd5b5f60028204905060018216806109cb57607f821691505b6020821081036109de576109dd610987565b5b50919050565b5f819050815f5260205f209050919050565b5f6020601f8301049050919050565b5f82821b905092915050565b5f60088302610a407fffffffffffffffffffffffffffffffffffffffffffffffffffffffffffffffff82610a05565b610a4a8683610a05565b95508019841693508086168417925050509392505050565b5f610a7c610a77610a72846107bf565b6108ca565b6107bf565b9050919050565b5f819050919050565b610a9583610a62565b610aa9610aa182610a83565b848454610a11565b825550505050565b5f5f905090565b610ac0610ab1565b610acb818484610a8c565b505050565b5f5b82811015610af157610ae65f828401610ab8565b600181019050610ad2565b505050565b601f821115610b445782821115610b4357610b10816109e4565b610b19836109f6565b610b22856109f6565b6020861015610b2f575f90505b808301610b3e82840382610ad0565b505050505b5b505050565b5f82821c905092915050565b5f610b645f1984600802610b49565b1980831691505092915050565b5f610b7c8383610b55565b9150826002028217905092915050565b610b958261072f565b67ffffffffffffffff811115610bae57610bad61095a565b5b610bb882546109b4565b610bc3828285610af6565b5f60209050601f831160018114610bf4575f8415610be2578287015190505b610bec8582610b71565b865550610c53565b601f198416610c02866109e4565b5f5b82811015610c2957848901518255600182019150602085019450602081019050610c04565b86831015610c465784890151610c42601f891682610b55565b8355505b6001600288020188555050505b505050505050565b5f8154610c67816109b4565b610c718186610739565b9450600182165f8114610c8b5760018114610ca157610cd3565b60ff198316865281151560200286019350610cd3565b610caa856109e4565b5f5b83811015610ccb57815481890152600182019150602081019050610cac565b808801955050505b50505092915050565b5f6020820190508181035f830152610cf48184610c5b565b905092915050565b7f455448207472616e73666572206661696c6564000000000000000000000000005f82015250565b5f610d30601383610739565b9150610d3b82610cfc565b602082019050919050565b5f6020820190508181035f830152610d5d81610d24565b9050919050565b7f4e487b71000000000000000000000000000000000000000000000000000000005f52601160045260245ffd5b5f610d9b826107bf565b9150610da6836107bf565b9250828201905080821115610dbe57610dbd610d64565b5b92915050565b610dcd816107bf565b8114610dd7575f5ffd5b50565b5f81519050610de881610dc4565b92915050565b5f60208284031215610e0357610e026106a2565b5b5f610e1084828501610dda565b91505092915050565b5f8160e01c9050919050565b5f60033d1115610e415760045f5f3e610e3e5f51610e19565b90505b90565b610e4d82610757565b810181811067ffffffffffffffff82111715610e6c57610e6b61095a565b5b80604052505050565b5f60443d10610f0157610e86610699565b60043d036004823e80513d602482011167ffffffffffffffff82111715610eae575050610f01565b808201805167ffffffffffffffff811115610ecc5750505050610f01565b80602083010160043d038501811115610ee9575050505050610f01565b610ef882602001850186610e44565b82955050505050505b90565b5f604082019050610f175f830185610916565b610f2460208301846107c8565b9392505050565b5f5ffd5b5f5ffd5b5f610f3c610699565b9050610f488282610e44565b919050565b5f67ffffffffffffffff821115610f6757610f6661095a565b5b610f7082610757565b9050602081019050919050565b5f610f8f610f8a84610f4d565b610f33565b905082815260208101848484011115610fab57610faa610f2f565b5b610fb6848285610749565b509392505050565b5f82601f830112610fd257610fd1610f2b565b5b8151610fe2848260208601610f7d565b91505092915050565b5f6020828403121561100057610fff6106a2565b5b5f82015167ffffffffffffffff81111561101d5761101c6106a6565b5b61102984828501610fbe565b9150509291505056fea26469706673582212208660a9cc505ac68a64a14306653bd1a5c957729c340b44c8969893cb6193c57564736f6c63430008220033",
			"opcodes": "PUSH1 0x80 PUSH1 0x40 MSTORE CALLVALUE DUP1 ISZERO PUSH1 0xE JUMPI PUSH0 PUSH0 REVERT JUMPDEST POP PUSH2 0x1068 DUP1 PUSH2 0x1C PUSH0 CODECOPY PUSH0 RETURN INVALID PUSH1 0x80 PUSH1 0x40 MSTORE PUSH1 0x4 CALLDATASIZE LT PUSH2 0x7A JUMPI PUSH0 CALLDATALOAD PUSH1 0xE0 SHR DUP1 PUSH4 0x8B7AFE2E GT PUSH2 0x4D JUMPI DUP1 PUSH4 0x8B7AFE2E EQ PUSH2 0x10A JUMPI DUP1 PUSH4 0x9415BC59 EQ PUSH2 0x134 JUMPI DUP1 PUSH4 0xC816F038 EQ PUSH2 0x15E JUMPI DUP1 PUSH4 0xD50F6BF0 EQ PUSH2 0x186 JUMPI PUSH2 0x7A JUMP JUMPDEST DUP1 PUSH4 0x21B1E5F8 EQ PUSH2 0x7E JUMPI DUP1 PUSH4 0x29F0DE3F EQ PUSH2 0x9A JUMPI DUP1 PUSH4 0x41456DDB EQ PUSH2 0xC4 JUMPI DUP1 PUSH4 0x46F99063 EQ PUSH2 0xE0 JUMPI JUMPDEST PUSH0 PUSH0 REVERT JUMPDEST PUSH2 0x98 PUSH1 0x4 DUP1 CALLDATASIZE SUB DUP2 ADD SWAP1 PUSH2 0x93 SWAP2 SWAP1 PUSH2 0x704 JUMP JUMPDEST PUSH2 0x1A2 JUMP JUMPDEST STOP JUMPDEST CALLVALUE DUP1 ISZERO PUSH2 0xA5 JUMPI PUSH0 PUSH0 REVERT JUMPDEST POP PUSH2 0xAE PUSH2 0x34D JUMP JUMPDEST PUSH1 0x40 MLOAD PUSH2 0xBB SWAP2 SWAP1 PUSH2 0x79F JUMP JUMPDEST PUSH1 0x40 MLOAD DUP1 SWAP2 SUB SWAP1 RETURN JUMPDEST PUSH2 0xDE PUSH1 0x4 DUP1 CALLDATASIZE SUB DUP2 ADD SWAP1 PUSH2 0xD9 SWAP2 SWAP1 PUSH2 0x704 JUMP JUMPDEST PUSH2 0x3D9 JUMP JUMPDEST STOP JUMPDEST CALLVALUE DUP1 ISZERO PUSH2 0xEB JUMPI PUSH0 PUSH0 REVERT JUMPDEST POP PUSH2 0xF4 PUSH2 0x47F JUMP JUMPDEST PUSH1 0x40 MLOAD PUSH2 0x101 SWAP2 SWAP1 PUSH2 0x7D7 JUMP JUMPDEST PUSH1 0x40 MLOAD DUP1 SWAP2 SUB SWAP1 RETURN JUMPDEST CALLVALUE DUP1 ISZERO PUSH2 0x115 JUMPI PUSH0 PUSH0 REVERT JUMPDEST POP PUSH2 0x11E PUSH2 0x485 JUMP JUMPDEST PUSH1 0x40 MLOAD PUSH2 0x12B SWAP2 SWAP1 PUSH2 0x7D7 JUMP JUMPDEST PUSH1 0x40 MLOAD DUP1 SWAP2 SUB SWAP1 RETURN JUMPDEST CALLVALUE DUP1 ISZERO PUSH2 0x13F JUMPI PUSH0 PUSH0 REVERT JUMPDEST POP PUSH2 0x148 PUSH2 0x48C JUMP JUMPDEST PUSH1 0x40 MLOAD PUSH2 0x155 SWAP2 SWAP1 PUSH2 0x80A JUMP JUMPDEST PUSH1 0x40 MLOAD DUP1 SWAP2 SUB SWAP1 RETURN JUMPDEST CALLVALUE DUP1 ISZERO PUSH2 0x169 JUMPI PUSH0 PUSH0 REVERT JUMPDEST POP PUSH2 0x184 PUSH1 0x4 DUP1 CALLDATASIZE SUB DUP2 ADD SWAP1 PUSH2 0x17F SWAP2 SWAP1 PUSH2 0x85E JUMP JUMPDEST PUSH2 0x49D JUMP JUMPDEST STOP JUMPDEST PUSH2 0x1A0 PUSH1 0x4 DUP1 CALLDATASIZE SUB DUP2 ADD SWAP1 PUSH2 0x19B SWAP2 SWAP1 PUSH2 0x704 JUMP JUMPDEST PUSH2 0x596 JUMP JUMPDEST STOP JUMPDEST PUSH0 PUSH0 DUP3 PUSH20 0xFFFFFFFFFFFFFFFFFFFFFFFFFFFFFFFFFFFFFFFF AND CALLVALUE PUSH1 0x40 MLOAD PUSH2 0x1C8 SWAP1 PUSH2 0x8B6 JUMP JUMPDEST PUSH0 PUSH1 0x40 MLOAD DUP1 DUP4 SUB DUP2 DUP6 DUP8 GAS CALL SWAP3 POP POP POP RETURNDATASIZE DUP1 PUSH0 DUP2 EQ PUSH2 0x202 JUMPI PUSH1 0x40 MLOAD SWAP2 POP PUSH1 0x1F NOT PUSH1 0x3F RETURNDATASIZE ADD AND DUP3 ADD PUSH1 0x40 MSTORE RETURNDATASIZE DUP3 MSTORE RETURNDATASIZE PUSH0 PUSH1 0x20 DUP5 ADD RETURNDATACOPY PUSH2 0x207 JUMP JUMPDEST PUSH1 0x60 SWAP2 POP JUMPDEST POP SWAP2 POP SWAP2 POP DUP2 PUSH0 PUSH0 PUSH2 0x100 EXP DUP2 SLOAD DUP2 PUSH1 0xFF MUL NOT AND SWAP1 DUP4 ISZERO ISZERO MUL OR SWAP1 SSTORE POP PUSH32 0x86EE1B0BFC110FE36004DCDBB3D6CDC48F92EB028C59A0349F53657F769C26A6 DUP4 CALLVALUE DUP5 PUSH1 0x40 MLOAD PUSH2 0x257 SWAP4 SWAP3 SWAP2 SWAP1 PUSH2 0x925 JUMP JUMPDEST PUSH1 0x40 MLOAD DUP1 SWAP2 SUB SWAP1 LOG1 DUP2 PUSH2 0x2B5 JUMPI PUSH2 0x26D DUP2 PUSH2 0x62E JUMP JUMPDEST PUSH1 0x2 SWAP1 DUP2 PUSH2 0x27B SWAP2 SWAP1 PUSH2 0xB8C JUMP JUMPDEST POP PUSH32 0x2170A899EB3DF99DE3D6973D7F04A8981D877B84CA2055234D696AE04A5547F3 PUSH1 0x2 PUSH1 0x40 MLOAD PUSH2 0x2AC SWAP2 SWAP1 PUSH2 0xCDC JUMP JUMPDEST PUSH1 0x40 MLOAD DUP1 SWAP2 SUB SWAP1 LOG1 JUMPDEST DUP2 PUSH2 0x2F5 JUMPI PUSH1 0x40 MLOAD PUSH32 0x8C379A000000000000000000000000000000000000000000000000000000000 DUP2 MSTORE PUSH1 0x4 ADD PUSH2 0x2EC SWAP1 PUSH2 0xD46 JUMP JUMPDEST PUSH1 0x40 MLOAD DUP1 SWAP2 SUB SWAP1 REVERT JUMPDEST CALLVALUE PUSH1 0x1 PUSH0 DUP3 DUP3 SLOAD PUSH2 0x306 SWAP2 SWAP1 PUSH2 0xD91 JUMP JUMPDEST SWAP3 POP POP DUP2 SWAP1 SSTORE POP PUSH32 0x1D1E1188D5752B0C2AC75CD3116D1909DB9188078CF91E662696106A2A0FF9B DUP4 CALLVALUE DUP5 PUSH1 0x40 MLOAD PUSH2 0x340 SWAP4 SWAP3 SWAP2 SWAP1 PUSH2 0x925 JUMP JUMPDEST PUSH1 0x40 MLOAD DUP1 SWAP2 SUB SWAP1 LOG1 POP POP POP JUMP JUMPDEST PUSH1 0x2 DUP1 SLOAD PUSH2 0x35A SWAP1 PUSH2 0x9B4 JUMP JUMPDEST DUP1 PUSH1 0x1F ADD PUSH1 0x20 DUP1 SWAP2 DIV MUL PUSH1 0x20 ADD PUSH1 0x40 MLOAD SWAP1 DUP2 ADD PUSH1 0x40 MSTORE DUP1 SWAP3 SWAP2 SWAP1 DUP2 DUP2 MSTORE PUSH1 0x20 ADD DUP3 DUP1 SLOAD PUSH2 0x386 SWAP1 PUSH2 0x9B4 JUMP JUMPDEST DUP1 ISZERO PUSH2 0x3D1 JUMPI DUP1 PUSH1 0x1F LT PUSH2 0x3A8 JUMPI PUSH2 0x100 DUP1 DUP4 SLOAD DIV MUL DUP4 MSTORE SWAP2 PUSH1 0x20 ADD SWAP2 PUSH2 0x3D1 JUMP JUMPDEST DUP3 ADD SWAP2 SWAP1 PUSH0 MSTORE PUSH1 0x20 PUSH0 KECCAK256 SWAP1 JUMPDEST DUP2 SLOAD DUP2 MSTORE SWAP1 PUSH1 0x1 ADD SWAP1 PUSH1 0x20 ADD DUP1 DUP4 GT PUSH2 0x3B4 JUMPI DUP3 SWAP1 SUB PUSH1 0x1F AND DUP3 ADD SWAP2 JUMPDEST POP POP POP POP POP DUP2 JUMP JUMPDEST PUSH0 DUP2 PUSH20 0xFFFFFFFFFFFFFFFFFFFFFFFFFFFFFFFFFFFFFFFF AND PUSH2 0x8FC CALLVALUE SWAP1 DUP2 ISZERO MUL SWAP1 PUSH1 0x40 MLOAD PUSH0 PUSH1 0x40 MLOAD DUP1 DUP4 SUB DUP2 DUP6 DUP9 DUP9 CALL SWAP4 POP POP POP POP SWAP1 POP DUP1 PUSH0 PUSH0 PUSH2 0x100 EXP DUP2 SLOAD DUP2 PUSH1 0xFF MUL NOT AND SWAP1 DUP4 ISZERO ISZERO MUL OR SWAP1 SSTORE POP PUSH32 0xC60736F3AE230E2D267FE2C5D403BC0A6A81D7A017FD1C31FDBEC1C682085FDB DUP3 CALLVALUE DUP4 PUSH1 0x40 MLOAD PUSH2 0x45B SWAP4 SWAP3 SWAP2 SWAP1 PUSH2 0x925 JUMP JUMPDEST PUSH1 0x40 MLOAD DUP1 SWAP2 SUB SWAP1 LOG1 CALLVALUE PUSH1 0x1 PUSH0 DUP3 DUP3 SLOAD PUSH2 0x474 SWAP2 SWAP1 PUSH2 0xD91 JUMP JUMPDEST SWAP3 POP POP DUP2 SWAP1 SSTORE POP POP POP JUMP JUMPDEST PUSH1 0x1 SLOAD DUP2 JUMP JUMPDEST PUSH0 SELFBALANCE SWAP1 POP SWAP1 JUMP JUMPDEST PUSH0 PUSH0 SWAP1 SLOAD SWAP1 PUSH2 0x100 EXP SWAP1 DIV PUSH1 0xFF AND DUP2 JUMP JUMPDEST PUSH0 DUP2 SWAP1 POP DUP1 PUSH20 0xFFFFFFFFFFFFFFFFFFFFFFFFFFFFFFFFFFFFFFFF AND PUSH4 0x12065FE0 PUSH1 0x40 MLOAD DUP2 PUSH4 0xFFFFFFFF AND PUSH1 0xE0 SHL DUP2 MSTORE PUSH1 0x4 ADD PUSH1 0x20 PUSH1 0x40 MLOAD DUP1 DUP4 SUB DUP2 DUP7 GAS STATICCALL SWAP3 POP POP POP DUP1 ISZERO PUSH2 0x509 JUMPI POP PUSH1 0x40 MLOAD RETURNDATASIZE PUSH1 0x1F NOT PUSH1 0x1F DUP3 ADD AND DUP3 ADD DUP1 PUSH1 0x40 MSTORE POP DUP2 ADD SWAP1 PUSH2 0x506 SWAP2 SWAP1 PUSH2 0xDEE JUMP JUMPDEST PUSH1 0x1 JUMPDEST PUSH2 0x590 JUMPI PUSH2 0x515 PUSH2 0xE25 JUMP JUMPDEST DUP1 PUSH4 0x8C379A0 SUB PUSH2 0x581 JUMPI POP PUSH2 0x529 PUSH2 0xE75 JUMP JUMPDEST DUP1 PUSH2 0x534 JUMPI POP PUSH2 0x583 JUMP JUMPDEST DUP1 PUSH1 0x2 SWAP1 DUP2 PUSH2 0x543 SWAP2 SWAP1 PUSH2 0xB8C JUMP JUMPDEST POP PUSH32 0x2170A899EB3DF99DE3D6973D7F04A8981D877B84CA2055234D696AE04A5547F3 DUP2 PUSH1 0x40 MLOAD PUSH2 0x573 SWAP2 SWAP1 PUSH2 0x79F JUMP JUMPDEST PUSH1 0x40 MLOAD DUP1 SWAP2 SUB SWAP1 LOG1 POP PUSH2 0x58B JUMP JUMPDEST POP JUMPDEST RETURNDATASIZE PUSH0 PUSH0 RETURNDATACOPY RETURNDATASIZE PUSH0 REVERT JUMPDEST PUSH2 0x592 JUMP JUMPDEST POP JUMPDEST POP POP JUMP JUMPDEST DUP1 PUSH20 0xFFFFFFFFFFFFFFFFFFFFFFFFFFFFFFFFFFFFFFFF AND PUSH2 0x8FC CALLVALUE SWAP1 DUP2 ISZERO MUL SWAP1 PUSH1 0x40 MLOAD PUSH0 PUSH1 0x40 MLOAD DUP1 DUP4 SUB DUP2 DUP6 DUP9 DUP9 CALL SWAP4 POP POP POP POP ISZERO DUP1 ISZERO PUSH2 0x5D9 JUMPI RETURNDATASIZE PUSH0 PUSH0 RETURNDATACOPY RETURNDATASIZE PUSH0 REVERT JUMPDEST POP CALLVALUE PUSH1 0x1 PUSH0 DUP3 DUP3 SLOAD PUSH2 0x5EB SWAP2 SWAP1 PUSH2 0xD91 JUMP JUMPDEST SWAP3 POP POP DUP2 SWAP1 SSTORE POP PUSH32 0x9B0C9A078EB3A8DD07DEB39169CBA7370BA2167E65AF328C00D89420C5C4532A DUP2 CALLVALUE PUSH1 0x40 MLOAD PUSH2 0x623 SWAP3 SWAP2 SWAP1 PUSH2 0xF04 JUMP JUMPDEST PUSH1 0x40 MLOAD DUP1 SWAP2 SUB SWAP1 LOG1 POP JUMP JUMPDEST PUSH1 0x60 PUSH1 0x44 DUP3 MLOAD LT ISZERO PUSH2 0x677 JUMPI PUSH1 0x40 MLOAD DUP1 PUSH1 0x40 ADD PUSH1 0x40 MSTORE DUP1 PUSH1 0xE DUP2 MSTORE PUSH1 0x20 ADD PUSH32 0x556E6B6E6F776E20726576657274000000000000000000000000000000000000 DUP2 MSTORE POP SWAP1 POP PUSH2 0x694 JUMP JUMPDEST PUSH1 0x4 DUP3 ADD SWAP2 POP DUP2 DUP1 PUSH1 0x20 ADD SWAP1 MLOAD DUP2 ADD SWAP1 PUSH2 0x691 SWAP2 SWAP1 PUSH2 0xFEB JUMP JUMPDEST SWAP1 POP JUMPDEST SWAP2 SWAP1 POP JUMP JUMPDEST PUSH0 PUSH1 0x40 MLOAD SWAP1 POP SWAP1 JUMP JUMPDEST PUSH0 PUSH0 REVERT JUMPDEST PUSH0 PUSH0 REVERT JUMPDEST PUSH0 PUSH20 0xFFFFFFFFFFFFFFFFFFFFFFFFFFFFFFFFFFFFFFFF DUP3 AND SWAP1 POP SWAP2 SWAP1 POP JUMP JUMPDEST PUSH0 PUSH2 0x6D3 DUP3 PUSH2 0x6AA JUMP JUMPDEST SWAP1 POP SWAP2 SWAP1 POP JUMP JUMPDEST PUSH2 0x6E3 DUP2 PUSH2 0x6C9 JUMP JUMPDEST DUP2 EQ PUSH2 0x6ED JUMPI PUSH0 PUSH0 REVERT JUMPDEST POP JUMP JUMPDEST PUSH0 DUP2 CALLDATALOAD SWAP1 POP PUSH2 0x6FE DUP2 PUSH2 0x6DA JUMP JUMPDEST SWAP3 SWAP2 POP POP JUMP JUMPDEST PUSH0 PUSH1 0x20 DUP3 DUP5 SUB SLT ISZERO PUSH2 0x719 JUMPI PUSH2 0x718 PUSH2 0x6A2 JUMP JUMPDEST JUMPDEST PUSH0 PUSH2 0x726 DUP5 DUP3 DUP6 ADD PUSH2 0x6F0 JUMP JUMPDEST SWAP2 POP POP SWAP3 SWAP2 POP POP JUMP JUMPDEST PUSH0 DUP2 MLOAD SWAP1 POP SWAP2 SWAP1 POP JUMP JUMPDEST PUSH0 DUP3 DUP3 MSTORE PUSH1 0x20 DUP3 ADD SWAP1 POP SWAP3 SWAP2 POP POP JUMP JUMPDEST DUP3 DUP2 DUP4 MCOPY PUSH0 DUP4 DUP4 ADD MSTORE POP POP POP JUMP JUMPDEST PUSH0 PUSH1 0x1F NOT PUSH1 0x1F DUP4 ADD AND SWAP1 POP SWAP2 SWAP1 POP JUMP JUMPDEST PUSH0 PUSH2 0x771 DUP3 PUSH2 0x72F JUMP JUMPDEST PUSH2 0x77B DUP2 DUP6 PUSH2 0x739 JUMP JUMPDEST SWAP4 POP PUSH2 0x78B DUP2 DUP6 PUSH1 0x20 DUP7 ADD PUSH2 0x749 JUMP JUMPDEST PUSH2 0x794 DUP2 PUSH2 0x757 JUMP JUMPDEST DUP5 ADD SWAP2 POP POP SWAP3 SWAP2 POP POP JUMP JUMPDEST PUSH0 PUSH1 0x20 DUP3 ADD SWAP1 POP DUP2 DUP2 SUB PUSH0 DUP4 ADD MSTORE PUSH2 0x7B7 DUP2 DUP5 PUSH2 0x767 JUMP JUMPDEST SWAP1 POP SWAP3 SWAP2 POP POP JUMP JUMPDEST PUSH0 DUP2 SWAP1 POP SWAP2 SWAP1 POP JUMP JUMPDEST PUSH2 0x7D1 DUP2 PUSH2 0x7BF JUMP JUMPDEST DUP3 MSTORE POP POP JUMP JUMPDEST PUSH0 PUSH1 0x20 DUP3 ADD SWAP1 POP PUSH2 0x7EA PUSH0 DUP4 ADD DUP5 PUSH2 0x7C8 JUMP JUMPDEST SWAP3 SWAP2 POP POP JUMP JUMPDEST PUSH0 DUP2 ISZERO ISZERO SWAP1 POP SWAP2 SWAP1 POP JUMP JUMPDEST PUSH2 0x804 DUP2 PUSH2 0x7F0 JUMP JUMPDEST DUP3 MSTORE POP POP JUMP JUMPDEST PUSH0 PUSH1 0x20 DUP3 ADD SWAP1 POP PUSH2 0x81D PUSH0 DUP4 ADD DUP5 PUSH2 0x7FB JUMP JUMPDEST SWAP3 SWAP2 POP POP JUMP JUMPDEST PUSH0 PUSH2 0x82D DUP3 PUSH2 0x6AA JUMP JUMPDEST SWAP1 POP SWAP2 SWAP1 POP JUMP JUMPDEST PUSH2 0x83D DUP2 PUSH2 0x823 JUMP JUMPDEST DUP2 EQ PUSH2 0x847 JUMPI PUSH0 PUSH0 REVERT JUMPDEST POP JUMP JUMPDEST PUSH0 DUP2 CALLDATALOAD SWAP1 POP PUSH2 0x858 DUP2 PUSH2 0x834 JUMP JUMPDEST SWAP3 SWAP2 POP POP JUMP JUMPDEST PUSH0 PUSH1 0x20 DUP3 DUP5 SUB SLT ISZERO PUSH2 0x873 JUMPI PUSH2 0x872 PUSH2 0x6A2 JUMP JUMPDEST JUMPDEST PUSH0 PUSH2 0x880 DUP5 DUP3 DUP6 ADD PUSH2 0x84A JUMP JUMPDEST SWAP2 POP POP SWAP3 SWAP2 POP POP JUMP JUMPDEST PUSH0 DUP2 SWAP1 POP SWAP3 SWAP2 POP POP JUMP JUMPDEST POP JUMP JUMPDEST PUSH0 PUSH2 0x8A1 PUSH0 DUP4 PUSH2 0x889 JUMP JUMPDEST SWAP2 POP PUSH2 0x8AC DUP3 PUSH2 0x893 JUMP JUMPDEST PUSH0 DUP3 ADD SWAP1 POP SWAP2 SWAP1 POP JUMP JUMPDEST PUSH0 PUSH2 0x8C0 DUP3 PUSH2 0x896 JUMP JUMPDEST SWAP2 POP DUP2 SWAP1 POP SWAP2 SWAP1 POP JUMP JUMPDEST PUSH0 DUP2 SWAP1 POP SWAP2 SWAP1 POP JUMP JUMPDEST PUSH0 PUSH2 0x8ED PUSH2 0x8E8 PUSH2 0x8E3 DUP5 PUSH2 0x6AA JUMP JUMPDEST PUSH2 0x8CA JUMP JUMPDEST PUSH2 0x6AA JUMP JUMPDEST SWAP1 POP SWAP2 SWAP1 POP JUMP JUMPDEST PUSH0 PUSH2 0x8FE DUP3 PUSH2 0x8D3 JUMP JUMPDEST SWAP1 POP SWAP2 SWAP1 POP JUMP JUMPDEST PUSH0 PUSH2 0x90F DUP3 PUSH2 0x8F4 JUMP JUMPDEST SWAP1 POP SWAP2 SWAP1 POP JUMP JUMPDEST PUSH2 0x91F DUP2 PUSH2 0x905 JUMP JUMPDEST DUP3 MSTORE POP POP JUMP JUMPDEST PUSH0 PUSH1 0x60 DUP3 ADD SWAP1 POP PUSH2 0x938 PUSH0 DUP4 ADD DUP7 PUSH2 0x916 JUMP JUMPDEST PUSH2 0x945 PUSH1 0x20 DUP4 ADD DUP6 PUSH2 0x7C8 JUMP JUMPDEST PUSH2 0x952 PUSH1 0x40 DUP4 ADD DUP5 PUSH2 0x7FB JUMP JUMPDEST SWAP5 SWAP4 POP POP POP POP JUMP JUMPDEST PUSH32 0x4E487B7100000000000000000000000000000000000000000000000000000000 PUSH0 MSTORE PUSH1 0x41 PUSH1 0x4 MSTORE PUSH1 0x24 PUSH0 REVERT JUMPDEST PUSH32 0x4E487B7100000000000000000000000000000000000000000000000000000000 PUSH0 MSTORE PUSH1 0x22 PUSH1 0x4 MSTORE PUSH1 0x24 PUSH0 REVERT JUMPDEST PUSH0 PUSH1 0x2 DUP3 DIV SWAP1 POP PUSH1 0x1 DUP3 AND DUP1 PUSH2 0x9CB JUMPI PUSH1 0x7F DUP3 AND SWAP2 POP JUMPDEST PUSH1 0x20 DUP3 LT DUP2 SUB PUSH2 0x9DE JUMPI PUSH2 0x9DD PUSH2 0x987 JUMP JUMPDEST JUMPDEST POP SWAP2 SWAP1 POP JUMP JUMPDEST PUSH0 DUP2 SWAP1 POP DUP2 PUSH0 MSTORE PUSH1 0x20 PUSH0 KECCAK256 SWAP1 POP SWAP2 SWAP1 POP JUMP JUMPDEST PUSH0 PUSH1 0x20 PUSH1 0x1F DUP4 ADD DIV SWAP1 POP SWAP2 SWAP1 POP JUMP JUMPDEST PUSH0 DUP3 DUP3 SHL SWAP1 POP SWAP3 SWAP2 POP POP JUMP JUMPDEST PUSH0 PUSH1 0x8 DUP4 MUL PUSH2 0xA40 PUSH32 0xFFFFFFFFFFFFFFFFFFFFFFFFFFFFFFFFFFFFFFFFFFFFFFFFFFFFFFFFFFFFFFFF DUP3 PUSH2 0xA05 JUMP JUMPDEST PUSH2 0xA4A DUP7 DUP4 PUSH2 0xA05 JUMP JUMPDEST SWAP6 POP DUP1 NOT DUP5 AND SWAP4 POP DUP1 DUP7 AND DUP5 OR SWAP3 POP POP POP SWAP4 SWAP3 POP POP POP JUMP JUMPDEST PUSH0 PUSH2 0xA7C PUSH2 0xA77 PUSH2 0xA72 DUP5 PUSH2 0x7BF JUMP JUMPDEST PUSH2 0x8CA JUMP JUMPDEST PUSH2 0x7BF JUMP JUMPDEST SWAP1 POP SWAP2 SWAP1 POP JUMP JUMPDEST PUSH0 DUP2 SWAP1 POP SWAP2 SWAP1 POP JUMP JUMPDEST PUSH2 0xA95 DUP4 PUSH2 0xA62 JUMP JUMPDEST PUSH2 0xAA9 PUSH2 0xAA1 DUP3 PUSH2 0xA83 JUMP JUMPDEST DUP5 DUP5 SLOAD PUSH2 0xA11 JUMP JUMPDEST DUP3 SSTORE POP POP POP POP JUMP JUMPDEST PUSH0 PUSH0 SWAP1 POP SWAP1 JUMP JUMPDEST PUSH2 0xAC0 PUSH2 0xAB1 JUMP JUMPDEST PUSH2 0xACB DUP2 DUP5 DUP5 PUSH2 0xA8C JUMP JUMPDEST POP POP POP JUMP JUMPDEST PUSH0 JUMPDEST DUP3 DUP2 LT ISZERO PUSH2 0xAF1 JUMPI PUSH2 0xAE6 PUSH0 DUP3 DUP5 ADD PUSH2 0xAB8 JUMP JUMPDEST PUSH1 0x1 DUP2 ADD SWAP1 POP PUSH2 0xAD2 JUMP JUMPDEST POP POP POP JUMP JUMPDEST PUSH1 0x1F DUP3 GT ISZERO PUSH2 0xB44 JUMPI DUP3 DUP3 GT ISZERO PUSH2 0xB43 JUMPI PUSH2 0xB10 DUP2 PUSH2 0x9E4 JUMP JUMPDEST PUSH2 0xB19 DUP4 PUSH2 0x9F6 JUMP JUMPDEST PUSH2 0xB22 DUP6 PUSH2 0x9F6 JUMP JUMPDEST PUSH1 0x20 DUP7 LT ISZERO PUSH2 0xB2F JUMPI PUSH0 SWAP1 POP JUMPDEST DUP1 DUP4 ADD PUSH2 0xB3E DUP3 DUP5 SUB DUP3 PUSH2 0xAD0 JUMP JUMPDEST POP POP POP POP JUMPDEST JUMPDEST POP POP POP JUMP JUMPDEST PUSH0 DUP3 DUP3 SHR SWAP1 POP SWAP3 SWAP2 POP POP JUMP JUMPDEST PUSH0 PUSH2 0xB64 PUSH0 NOT DUP5 PUSH1 0x8 MUL PUSH2 0xB49 JUMP JUMPDEST NOT DUP1 DUP4 AND SWAP2 POP POP SWAP3 SWAP2 POP POP JUMP JUMPDEST PUSH0 PUSH2 0xB7C DUP4 DUP4 PUSH2 0xB55 JUMP JUMPDEST SWAP2 POP DUP3 PUSH1 0x2 MUL DUP3 OR SWAP1 POP SWAP3 SWAP2 POP POP JUMP JUMPDEST PUSH2 0xB95 DUP3 PUSH2 0x72F JUMP JUMPDEST PUSH8 0xFFFFFFFFFFFFFFFF DUP2 GT ISZERO PUSH2 0xBAE JUMPI PUSH2 0xBAD PUSH2 0x95A JUMP JUMPDEST JUMPDEST PUSH2 0xBB8 DUP3 SLOAD PUSH2 0x9B4 JUMP JUMPDEST PUSH2 0xBC3 DUP3 DUP3 DUP6 PUSH2 0xAF6 JUMP JUMPDEST PUSH0 PUSH1 0x20 SWAP1 POP PUSH1 0x1F DUP4 GT PUSH1 0x1 DUP2 EQ PUSH2 0xBF4 JUMPI PUSH0 DUP5 ISZERO PUSH2 0xBE2 JUMPI DUP3 DUP8 ADD MLOAD SWAP1 POP JUMPDEST PUSH2 0xBEC DUP6 DUP3 PUSH2 0xB71 JUMP JUMPDEST DUP7 SSTORE POP PUSH2 0xC53 JUMP JUMPDEST PUSH1 0x1F NOT DUP5 AND PUSH2 0xC02 DUP7 PUSH2 0x9E4 JUMP JUMPDEST PUSH0 JUMPDEST DUP3 DUP2 LT ISZERO PUSH2 0xC29 JUMPI DUP5 DUP10 ADD MLOAD DUP3 SSTORE PUSH1 0x1 DUP3 ADD SWAP2 POP PUSH1 0x20 DUP6 ADD SWAP5 POP PUSH1 0x20 DUP2 ADD SWAP1 POP PUSH2 0xC04 JUMP JUMPDEST DUP7 DUP4 LT ISZERO PUSH2 0xC46 JUMPI DUP5 DUP10 ADD MLOAD PUSH2 0xC42 PUSH1 0x1F DUP10 AND DUP3 PUSH2 0xB55 JUMP JUMPDEST DUP4 SSTORE POP JUMPDEST PUSH1 0x1 PUSH1 0x2 DUP9 MUL ADD DUP9 SSTORE POP POP POP JUMPDEST POP POP POP POP POP POP JUMP JUMPDEST PUSH0 DUP2 SLOAD PUSH2 0xC67 DUP2 PUSH2 0x9B4 JUMP JUMPDEST PUSH2 0xC71 DUP2 DUP7 PUSH2 0x739 JUMP JUMPDEST SWAP5 POP PUSH1 0x1 DUP3 AND PUSH0 DUP2 EQ PUSH2 0xC8B JUMPI PUSH1 0x1 DUP2 EQ PUSH2 0xCA1 JUMPI PUSH2 0xCD3 JUMP JUMPDEST PUSH1 0xFF NOT DUP4 AND DUP7 MSTORE DUP2 ISZERO ISZERO PUSH1 0x20 MUL DUP7 ADD SWAP4 POP PUSH2 0xCD3 JUMP JUMPDEST PUSH2 0xCAA DUP6 PUSH2 0x9E4 JUMP JUMPDEST PUSH0 JUMPDEST DUP4 DUP2 LT ISZERO PUSH2 0xCCB JUMPI DUP2 SLOAD DUP2 DUP10 ADD MSTORE PUSH1 0x1 DUP3 ADD SWAP2 POP PUSH1 0x20 DUP2 ADD SWAP1 POP PUSH2 0xCAC JUMP JUMPDEST DUP1 DUP9 ADD SWAP6 POP POP POP JUMPDEST POP POP POP SWAP3 SWAP2 POP POP JUMP JUMPDEST PUSH0 PUSH1 0x20 DUP3 ADD SWAP1 POP DUP2 DUP2 SUB PUSH0 DUP4 ADD MSTORE PUSH2 0xCF4 DUP2 DUP5 PUSH2 0xC5B JUMP JUMPDEST SWAP1 POP SWAP3 SWAP2 POP POP JUMP JUMPDEST PUSH32 0x455448207472616E73666572206661696C656400000000000000000000000000 PUSH0 DUP3 ADD MSTORE POP JUMP JUMPDEST PUSH0 PUSH2 0xD30 PUSH1 0x13 DUP4 PUSH2 0x739 JUMP JUMPDEST SWAP2 POP PUSH2 0xD3B DUP3 PUSH2 0xCFC JUMP JUMPDEST PUSH1 0x20 DUP3 ADD SWAP1 POP SWAP2 SWAP1 POP JUMP JUMPDEST PUSH0 PUSH1 0x20 DUP3 ADD SWAP1 POP DUP2 DUP2 SUB PUSH0 DUP4 ADD MSTORE PUSH2 0xD5D DUP2 PUSH2 0xD24 JUMP JUMPDEST SWAP1 POP SWAP2 SWAP1 POP JUMP JUMPDEST PUSH32 0x4E487B7100000000000000000000000000000000000000000000000000000000 PUSH0 MSTORE PUSH1 0x11 PUSH1 0x4 MSTORE PUSH1 0x24 PUSH0 REVERT JUMPDEST PUSH0 PUSH2 0xD9B DUP3 PUSH2 0x7BF JUMP JUMPDEST SWAP2 POP PUSH2 0xDA6 DUP4 PUSH2 0x7BF JUMP JUMPDEST SWAP3 POP DUP3 DUP3 ADD SWAP1 POP DUP1 DUP3 GT ISZERO PUSH2 0xDBE JUMPI PUSH2 0xDBD PUSH2 0xD64 JUMP JUMPDEST JUMPDEST SWAP3 SWAP2 POP POP JUMP JUMPDEST PUSH2 0xDCD DUP2 PUSH2 0x7BF JUMP JUMPDEST DUP2 EQ PUSH2 0xDD7 JUMPI PUSH0 PUSH0 REVERT JUMPDEST POP JUMP JUMPDEST PUSH0 DUP2 MLOAD SWAP1 POP PUSH2 0xDE8 DUP2 PUSH2 0xDC4 JUMP JUMPDEST SWAP3 SWAP2 POP POP JUMP JUMPDEST PUSH0 PUSH1 0x20 DUP3 DUP5 SUB SLT ISZERO PUSH2 0xE03 JUMPI PUSH2 0xE02 PUSH2 0x6A2 JUMP JUMPDEST JUMPDEST PUSH0 PUSH2 0xE10 DUP5 DUP3 DUP6 ADD PUSH2 0xDDA JUMP JUMPDEST SWAP2 POP POP SWAP3 SWAP2 POP POP JUMP JUMPDEST PUSH0 DUP2 PUSH1 0xE0 SHR SWAP1 POP SWAP2 SWAP1 POP JUMP JUMPDEST PUSH0 PUSH1 0x3 RETURNDATASIZE GT ISZERO PUSH2 0xE41 JUMPI PUSH1 0x4 PUSH0 PUSH0 RETURNDATACOPY PUSH2 0xE3E PUSH0 MLOAD PUSH2 0xE19 JUMP JUMPDEST SWAP1 POP JUMPDEST SWAP1 JUMP JUMPDEST PUSH2 0xE4D DUP3 PUSH2 0x757 JUMP JUMPDEST DUP2 ADD DUP2 DUP2 LT PUSH8 0xFFFFFFFFFFFFFFFF DUP3 GT OR ISZERO PUSH2 0xE6C JUMPI PUSH2 0xE6B PUSH2 0x95A JUMP JUMPDEST JUMPDEST DUP1 PUSH1 0x40 MSTORE POP POP POP JUMP JUMPDEST PUSH0 PUSH1 0x44 RETURNDATASIZE LT PUSH2 0xF01 JUMPI PUSH2 0xE86 PUSH2 0x699 JUMP JUMPDEST PUSH1 0x4 RETURNDATASIZE SUB PUSH1 0x4 DUP3 RETURNDATACOPY DUP1 MLOAD RETURNDATASIZE PUSH1 0x24 DUP3 ADD GT PUSH8 0xFFFFFFFFFFFFFFFF DUP3 GT OR ISZERO PUSH2 0xEAE JUMPI POP POP PUSH2 0xF01 JUMP JUMPDEST DUP1 DUP3 ADD DUP1 MLOAD PUSH8 0xFFFFFFFFFFFFFFFF DUP2 GT ISZERO PUSH2 0xECC JUMPI POP POP POP POP PUSH2 0xF01 JUMP JUMPDEST DUP1 PUSH1 0x20 DUP4 ADD ADD PUSH1 0x4 RETURNDATASIZE SUB DUP6 ADD DUP2 GT ISZERO PUSH2 0xEE9 JUMPI POP POP POP POP POP PUSH2 0xF01 JUMP JUMPDEST PUSH2 0xEF8 DUP3 PUSH1 0x20 ADD DUP6 ADD DUP7 PUSH2 0xE44 JUMP JUMPDEST DUP3 SWAP6 POP POP POP POP POP POP JUMPDEST SWAP1 JUMP JUMPDEST PUSH0 PUSH1 0x40 DUP3 ADD SWAP1 POP PUSH2 0xF17 PUSH0 DUP4 ADD DUP6 PUSH2 0x916 JUMP JUMPDEST PUSH2 0xF24 PUSH1 0x20 DUP4 ADD DUP5 PUSH2 0x7C8 JUMP JUMPDEST SWAP4 SWAP3 POP POP POP JUMP JUMPDEST PUSH0 PUSH0 REVERT JUMPDEST PUSH0 PUSH0 REVERT JUMPDEST PUSH0 PUSH2 0xF3C PUSH2 0x699 JUMP JUMPDEST SWAP1 POP PUSH2 0xF48 DUP3 DUP3 PUSH2 0xE44 JUMP JUMPDEST SWAP2 SWAP1 POP JUMP JUMPDEST PUSH0 PUSH8 0xFFFFFFFFFFFFFFFF DUP3 GT ISZERO PUSH2 0xF67 JUMPI PUSH2 0xF66 PUSH2 0x95A JUMP JUMPDEST JUMPDEST PUSH2 0xF70 DUP3 PUSH2 0x757 JUMP JUMPDEST SWAP1 POP PUSH1 0x20 DUP2 ADD SWAP1 POP SWAP2 SWAP1 POP JUMP JUMPDEST PUSH0 PUSH2 0xF8F PUSH2 0xF8A DUP5 PUSH2 0xF4D JUMP JUMPDEST PUSH2 0xF33 JUMP JUMPDEST SWAP1 POP DUP3 DUP2 MSTORE PUSH1 0x20 DUP2 ADD DUP5 DUP5 DUP5 ADD GT ISZERO PUSH2 0xFAB JUMPI PUSH2 0xFAA PUSH2 0xF2F JUMP JUMPDEST JUMPDEST PUSH2 0xFB6 DUP5 DUP3 DUP6 PUSH2 0x749 JUMP JUMPDEST POP SWAP4 SWAP3 POP POP POP JUMP JUMPDEST PUSH0 DUP3 PUSH1 0x1F DUP4 ADD SLT PUSH2 0xFD2 JUMPI PUSH2 0xFD1 PUSH2 0xF2B JUMP JUMPDEST JUMPDEST DUP2 MLOAD PUSH2 0xFE2 DUP5 DUP3 PUSH1 0x20 DUP7 ADD PUSH2 0xF7D JUMP JUMPDEST SWAP2 POP POP SWAP3 SWAP2 POP POP JUMP JUMPDEST PUSH0 PUSH1 0x20 DUP3 DUP5 SUB SLT ISZERO PUSH2 0x1000 JUMPI PUSH2 0xFFF PUSH2 0x6A2 JUMP JUMPDEST JUMPDEST PUSH0 DUP3 ADD MLOAD PUSH8 0xFFFFFFFFFFFFFFFF DUP2 GT ISZERO PUSH2 0x101D JUMPI PUSH2 0x101C PUSH2 0x6A6 JUMP JUMPDEST JUMPDEST PUSH2 0x1029 DUP5 DUP3 DUP6 ADD PUSH2 0xFBE JUMP JUMPDEST SWAP2 POP POP SWAP3 SWAP2 POP POP JUMP INVALID LOG2 PUSH5 0x6970667358 0x22 SLT KECCAK256 DUP7 PUSH1 0xA9 0xCC POP GAS 0xC6 DUP11 PUSH5 0xA14306653B DATALOADN 0xA5C9 JUMPI PUSH19 0x9C340B44C8969893CB6193C57564736F6C6343 STOP ADDMOD 0x22 STOP CALLER "
		},
		"gasEstimates": {
			"creation": {
				"codeDepositCost": "840000",
				"executionCost": "875",
				"totalCost": "840875"
			},
			"external": {
				"contractBalance()": "334",
				"dangerousSend(address)": "infinite",
				"lastError()": "infinite",
				"lastSuccess()": "2487",
				"sendETH(address)": "infinite",
				"totalSent()": "2492",
				"transferETH(address)": "infinite",
				"tryCatchExample(address)": "infinite"
			},
			"internal": {
				"decodeRevert(bytes memory)": "infinite"
			}
		},
		"methodIdentifiers": {
			"contractBalance()": "8b7afe2e",
			"dangerousSend(address)": "41456ddb",
			"lastError()": "29f0de3f",
			"lastSuccess()": "9415bc59",
			"sendETH(address)": "21b1e5f8",
			"totalSent()": "46f99063",
			"transferETH(address)": "d50f6bf0",
			"tryCatchExample(address)": "c816f038"
		}
	},
	"abi": [
		{
			"anonymous": false,
			"inputs": [
				{
					"indexed": false,
					"internalType": "address",
					"name": "receiver",
					"type": "address"
				},
				{
					"indexed": false,
					"internalType": "uint256",
					"name": "amount",
					"type": "uint256"
				},
				{
					"indexed": false,
					"internalType": "bool",
					"name": "success",
					"type": "bool"
				}
			],
			"name": "CallUsed",
			"type": "event"
		},
		{
			"anonymous": false,
			"inputs": [
				{
					"indexed": false,
					"internalType": "address",
					"name": "receiver",
					"type": "address"
				},
				{
					"indexed": false,
					"internalType": "uint256",
					"name": "amount",
					"type": "uint256"
				},
				{
					"indexed": false,
					"internalType": "bool",
					"name": "success",
					"type": "bool"
				}
			],
			"name": "ETHTransferResult",
			"type": "event"
		},
		{
			"anonymous": false,
			"inputs": [
				{
					"indexed": false,
					"internalType": "address",
					"name": "receiver",
					"type": "address"
				},
				{
					"indexed": false,
					"internalType": "uint256",
					"name": "amount",
					"type": "uint256"
				},
				{
					"indexed": false,
					"internalType": "bool",
					"name": "success",
					"type": "bool"
				}
			],
			"name": "SendUsed",
			"type": "event"
		},
		{
			"anonymous": false,
			"inputs": [
				{
					"indexed": false,
					"internalType": "address",
					"name": "receiver",
					"type": "address"
				},
				{
					"indexed": false,
					"internalType": "uint256",
					"name": "amount",
					"type": "uint256"
				}
			],
			"name": "TransferUsed",
			"type": "event"
		},
		{
			"anonymous": false,
			"inputs": [
				{
					"indexed": false,
					"internalType": "string",
					"name": "reason",
					"type": "string"
				}
			],
			"name": "TryCatchFailure",
			"type": "event"
		},
		{
			"inputs": [],
			"name": "contractBalance",
			"outputs": [
				{
					"internalType": "uint256",
					"name": "",
					"type": "uint256"
				}
			],
			"stateMutability": "view",
			"type": "function"
		},
		{
			"inputs": [
				{
					"internalType": "address payable",
					"name": "_receiver",
					"type": "address"
				}
			],
			"name": "dangerousSend",
			"outputs": [],
			"stateMutability": "payable",
			"type": "function"
		},
		{
			"inputs": [],
			"name": "lastError",
			"outputs": [
				{
					"internalType": "string",
					"name": "",
					"type": "string"
				}
			],
			"stateMutability": "view",
			"type": "function"
		},
		{
			"inputs": [],
			"name": "lastSuccess",
			"outputs": [
				{
					"internalType": "bool",
					"name": "",
					"type": "bool"
				}
			],
			"stateMutability": "view",
			"type": "function"
		},
		{
			"inputs": [
				{
					"internalType": "address payable",
					"name": "_receiver",
					"type": "address"
				}
			],
			"name": "sendETH",
			"outputs": [],
			"stateMutability": "payable",
			"type": "function"
		},
		{
			"inputs": [],
			"name": "totalSent",
			"outputs": [
				{
					"internalType": "uint256",
					"name": "",
					"type": "uint256"
				}
			],
			"stateMutability": "view",
			"type": "function"
		},
		{
			"inputs": [
				{
					"internalType": "address payable",
					"name": "_receiver",
					"type": "address"
				}
			],
			"name": "transferETH",
			"outputs": [],
			"stateMutability": "payable",
			"type": "function"
		},
		{
			"inputs": [
				{
					"internalType": "address",
					"name": "_receiver",
					"type": "address"
				}
			],
			"name": "tryCatchExample",
			"outputs": [],
			"stateMutability": "nonpayable",
			"type": "function"
		}
	]
}