{
	"data": {
		"bytecode": {
			"linkReferences": {},
			"object": "608060405234801561000f575f5ffd5b50604051611121380380611121833981810160405281019061003191906100d4565b805f5f6101000a81548173ffffffffffffffffffffffffffffffffffffffff021916908373ffffffffffffffffffffffffffffffffffffffff160217905550506100ff565b5f5ffd5b5f73ffffffffffffffffffffffffffffffffffffffff82169050919050565b5f6100a38261007a565b9050919050565b6100b381610099565b81146100bd575f5ffd5b50565b5f815190506100ce816100aa565b92915050565b5f602082840312156100e9576100e8610076565b5b5f6100f6848285016100c0565b91505092915050565b6110158061010c5f395ff3fe608060405260043610610089575f3560e01c806335a24eb51161005857806335a24eb51461010e5780636e4a56ed146101245780638b7afe2e1461013a578063d4b8399214610164578063e88cc9a31461018e57610090565b80631ec1f7781461009457806321b1e5f8146100be5780632b526dcc146100da57806332083fcd1461010457610090565b3661009057005b5f5ffd5b34801561009f575f5ffd5b506100a86101b8565b6040516100b5919061085e565b60405180910390f35b6100d860048036038101906100d391906108b6565b6101dd565b005b3480156100e5575f5ffd5b506100ee6102c2565b6040516100fb9190610951565b60405180910390f35b61010c61034e565b005b348015610119575f5ffd5b506101226105a1565b005b34801561012f575f5ffd5b50610138610728565b005b348015610145575f5ffd5b5061014e6107ee565b60405161015b9190610989565b60405180910390f35b34801561016f575f5ffd5b506101786107f5565b60405161018591906109fd565b60405180910390f35b348015610199575f5ffd5b506101a2610819565b6040516101af9190610989565b60405180910390f35b60035f9054906101000a900473ffffffffffffffffffffffffffffffffffffffff1681565b5f8173ffffffffffffffffffffffffffffffffffffffff163460405161020290610a43565b5f6040518083038185875af1925050503d805f811461023c576040519150601f19603f3d011682016040523d82523d5f602084013e610241565b606091505b5050905080610285576040517f08c379a000000000000000000000000000000000000000000000000000000000815260040161027c90610aa1565b60405180910390fd5b7f2e50b45bc3e108704a22f64213f8c365fec6fc72f3351a5e975e4d337a6ef77982346040516102b6929190610af0565b60405180910390a15050565b600280546102cf90610b44565b80601f01602080910402602001604051908101604052809291908181526020018280546102fb90610b44565b80156103465780601f1061031d57610100808354040283529160200191610346565b820191905f5260205f20905b81548152906001019060200180831161032957829003601f168201915b505050505081565b600360149054906101000a900460ff161561039e576040517f08c379a000000000000000000000000000000000000000000000000000000000815260040161039590610bbe565b60405180910390fd5b6001600360146101000a81548160ff0219169083151502179055506040518060400160405280601481526020017f4265666f72652065787465726e616c2063616c6c000000000000000000000000815250600290816103fd9190610db1565b503360035f6101000a81548173ffffffffffffffffffffffffffffffffffffffff021916908373ffffffffffffffffffffffffffffffffffffffff16021790555060015f81548092919061045090610ead565b91905055507fc8e68dfd834c23015051268f2db5d1d9203c543e25bd177be502f46e2f4d613233604051610484919061085e565b60405180910390a15f5f9054906101000a900473ffffffffffffffffffffffffffffffffffffffff1673ffffffffffffffffffffffffffffffffffffffff1663a341a91b346040518263ffffffff1660e01b81526004015f604051808303818588803b1580156104f2575f5ffd5b505af1158015610504573d5f5f3e3d5ffd5b50505050506040518060400160405280601381526020017f41667465722065787465726e616c2063616c6c000000000000000000000000008152506002908161054d9190610db1565b507fef0a105f65763e4ba161bc76268b5704c85f25a24c542925bf389433a3e1d6063360405161057d919061085e565b60405180910390a15f600360146101000a81548160ff021916908315150217905550565b5f5f5f5f9054906101000a900473ffffffffffffffffffffffffffffffffffffffff1673ffffffffffffffffffffffffffffffffffffffff166040516024016040516020818303038152906040527fa341a91b000000000000000000000000000000000000000000000000000000007bffffffffffffffffffffffffffffffffffffffffffffffffffffffff19166020820180517bffffffffffffffffffffffffffffffffffffffffffffffffffffffff838183161783525050505060405161066a9190610f2e565b5f604051808303815f865af19150503d805f81146106a3576040519150601f19603f3d011682016040523d82523d5f602084013e6106a8565b606091505b50915091507f371af01c5f2c31a6a7ae2d5fef37cfa6aec0b635583aed736aebcd8c8ad25890826040516106dc9190610f5e565b60405180910390a181610724576040517f08c379a000000000000000000000000000000000000000000000000000000000815260040161071b90610fc1565b60405180910390fd5b5050565b5f5f9054906101000a900473ffffffffffffffffffffffffffffffffffffffff1673ffffffffffffffffffffffffffffffffffffffff1663ca463e196040518163ffffffff1660e01b81526004015f6040518083038186803b15801561078c575f5ffd5b505afa92505050801561079d575060015b6107eb576040518060400160405280600f81526020017f4661696c7572652068616e646c65640000000000000000000000000000000000815250600290816107e59190610db1565b506107ec565b5b565b5f47905090565b5f5f9054906101000a900473ffffffffffffffffffffffffffffffffffffffff1681565b60015481565b5f73ffffffffffffffffffffffffffffffffffffffff82169050919050565b5f6108488261081f565b9050919050565b6108588161083e565b82525050565b5f6020820190506108715f83018461084f565b92915050565b5f5ffd5b5f6108858261081f565b9050919050565b6108958161087b565b811461089f575f5ffd5b50565b5f813590506108b08161088c565b92915050565b5f602082840312156108cb576108ca610877565b5b5f6108d8848285016108a2565b91505092915050565b5f81519050919050565b5f82825260208201905092915050565b8281835e5f83830152505050565b5f601f19601f8301169050919050565b5f610923826108e1565b61092d81856108eb565b935061093d8185602086016108fb565b61094681610909565b840191505092915050565b5f6020820190508181035f8301526109698184610919565b905092915050565b5f819050919050565b61098381610971565b82525050565b5f60208201905061099c5f83018461097a565b92915050565b5f819050919050565b5f6109c56109c06109bb8461081f565b6109a2565b61081f565b9050919050565b5f6109d6826109ab565b9050919050565b5f6109e7826109cc565b9050919050565b6109f7816109dd565b82525050565b5f602082019050610a105f8301846109ee565b92915050565b5f81905092915050565b50565b5f610a2e5f83610a16565b9150610a3982610a20565b5f82019050919050565b5f610a4d82610a23565b9150819050919050565b7f455448207472616e73666572206661696c6564000000000000000000000000005f82015250565b5f610a8b6013836108eb565b9150610a9682610a57565b602082019050919050565b5f6020820190508181035f830152610ab881610a7f565b9050919050565b5f610ac9826109ab565b9050919050565b5f610ada82610abf565b9050919050565b610aea81610ad0565b82525050565b5f604082019050610b035f830185610ae1565b610b10602083018461097a565b9392505050565b7f4e487b71000000000000000000000000000000000000000000000000000000005f52602260045260245ffd5b5f6002820490506001821680610b5b57607f821691505b602082108103610b6e57610b6d610b17565b5b50919050565b7f5265656e7472616e637920626c6f636b656400000000000000000000000000005f82015250565b5f610ba86012836108eb565b9150610bb382610b74565b602082019050919050565b5f6020820190508181035f830152610bd581610b9c565b9050919050565b7f4e487b71000000000000000000000000000000000000000000000000000000005f52604160045260245ffd5b5f819050815f5260205f209050919050565b5f6020601f8301049050919050565b5f82821b905092915050565b5f60088302610c657fffffffffffffffffffffffffffffffffffffffffffffffffffffffffffffffff82610c2a565b610c6f8683610c2a565b95508019841693508086168417925050509392505050565b5f610ca1610c9c610c9784610971565b6109a2565b610971565b9050919050565b5f819050919050565b610cba83610c87565b610cce610cc682610ca8565b848454610c36565b825550505050565b5f5f905090565b610ce5610cd6565b610cf0818484610cb1565b505050565b5f5b82811015610d1657610d0b5f828401610cdd565b600181019050610cf7565b505050565b601f821115610d695782821115610d6857610d3581610c09565b610d3e83610c1b565b610d4785610c1b565b6020861015610d54575f90505b808301610d6382840382610cf5565b505050505b5b505050565b5f82821c905092915050565b5f610d895f1984600802610d6e565b1980831691505092915050565b5f610da18383610d7a565b9150826002028217905092915050565b610dba826108e1565b67ffffffffffffffff811115610dd357610dd2610bdc565b5b610ddd8254610b44565b610de8828285610d1b565b5f60209050601f831160018114610e19575f8415610e07578287015190505b610e118582610d96565b865550610e78565b601f198416610e2786610c09565b5f5b82811015610e4e57848901518255600182019150602085019450602081019050610e29565b86831015610e6b5784890151610e67601f891682610d7a565b8355505b6001600288020188555050505b505050505050565b7f4e487b71000000000000000000000000000000000000000000000000000000005f52601160045260245ffd5b5f610eb782610971565b91507fffffffffffffffffffffffffffffffffffffffffffffffffffffffffffffffff8203610ee957610ee8610e80565b5b600182019050919050565b5f81519050919050565b5f610f0882610ef4565b610f128185610a16565b9350610f228185602086016108fb565b80840191505092915050565b5f610f398284610efe565b915081905092915050565b5f8115159050919050565b610f5881610f44565b82525050565b5f602082019050610f715f830184610f4f565b92915050565b7f4c6f772d6c6576656c2063616c6c206661696c656400000000000000000000005f82015250565b5f610fab6015836108eb565b9150610fb682610f77565b602082019050919050565b5f6020820190508181035f830152610fd881610f9f565b905091905056fea264697066735822122073f924d2ce81584285a8ac823bf0bdab557ecd357c71e2423be1f2f8d0a6d19964736f6c63430008220033",
			"opcodes": "PUSH1 0x80 PUSH1 0x40 MSTORE CALLVALUE DUP1 ISZERO PUSH2 0xF JUMPI PUSH0 PUSH0 REVERT JUMPDEST POP PUSH1 0x40 MLOAD PUSH2 0x1121 CODESIZE SUB DUP1 PUSH2 0x1121 DUP4 CODECOPY DUP2 DUP2 ADD PUSH1 0x40 MSTORE DUP2 ADD SWAP1 PUSH2 0x31 SWAP2 SWAP1 PUSH2 0xD4 JUMP JUMPDEST DUP1 PUSH0 PUSH0 PUSH2 0x100 EXP DUP2 SLOAD DUP2 PUSH20 0xFFFFFFFFFFFFFFFFFFFFFFFFFFFFFFFFFFFFFFFF MUL NOT AND SWAP1 DUP4 PUSH20 0xFFFFFFFFFFFFFFFFFFFFFFFFFFFFFFFFFFFFFFFF AND MUL OR SWAP1 SSTORE POP POP PUSH2 0xFF JUMP JUMPDEST PUSH0 PUSH0 REVERT JUMPDEST PUSH0 PUSH20 0xFFFFFFFFFFFFFFFFFFFFFFFFFFFFFFFFFFFFFFFF DUP3 AND SWAP1 POP SWAP2 SWAP1 POP JUMP JUMPDEST PUSH0 PUSH2 0xA3 DUP3 PUSH2 0x7A JUMP JUMPDEST SWAP1 POP SWAP2 SWAP1 POP JUMP JUMPDEST PUSH2 0xB3 DUP2 PUSH2 0x99 JUMP JUMPDEST DUP2 EQ PUSH2 0xBD JUMPI PUSH0 PUSH0 REVERT JUMPDEST POP JUMP JUMPDEST PUSH0 DUP2 MLOAD SWAP1 POP PUSH2 0xCE DUP2 PUSH2 0xAA JUMP JUMPDEST SWAP3 SWAP2 POP POP JUMP JUMPDEST PUSH0 PUSH1 0x20 DUP3 DUP5 SUB SLT ISZERO PUSH2 0xE9 JUMPI PUSH2 0xE8 PUSH2 0x76 JUMP JUMPDEST JUMPDEST PUSH0 PUSH2 0xF6 DUP5 DUP3 DUP6 ADD PUSH2 0xC0 JUMP JUMPDEST SWAP2 POP POP SWAP3 SWAP2 POP POP JUMP JUMPDEST PUSH2 0x1015 DUP1 PUSH2 0x10C PUSH0 CODECOPY PUSH0 RETURN INVALID PUSH1 0x80 PUSH1 0x40 MSTORE PUSH1 0x4 CALLDATASIZE LT PUSH2 0x89 JUMPI PUSH0 CALLDATALOAD PUSH1 0xE0 SHR DUP1 PUSH4 0x35A24EB5 GT PUSH2 0x58 JUMPI DUP1 PUSH4 0x35A24EB5 EQ PUSH2 0x10E JUMPI DUP1 PUSH4 0x6E4A56ED EQ PUSH2 0x124 JUMPI DUP1 PUSH4 0x8B7AFE2E EQ PUSH2 0x13A JUMPI DUP1 PUSH4 0xD4B83992 EQ PUSH2 0x164 JUMPI DUP1 PUSH4 0xE88CC9A3 EQ PUSH2 0x18E JUMPI PUSH2 0x90 JUMP JUMPDEST DUP1 PUSH4 0x1EC1F778 EQ PUSH2 0x94 JUMPI DUP1 PUSH4 0x21B1E5F8 EQ PUSH2 0xBE JUMPI DUP1 PUSH4 0x2B526DCC EQ PUSH2 0xDA JUMPI DUP1 PUSH4 0x32083FCD EQ PUSH2 0x104 JUMPI PUSH2 0x90 JUMP JUMPDEST CALLDATASIZE PUSH2 0x90 JUMPI STOP JUMPDEST PUSH0 PUSH0 REVERT JUMPDEST CALLVALUE DUP1 ISZERO PUSH2 0x9F JUMPI PUSH0 PUSH0 REVERT JUMPDEST POP PUSH2 0xA8 PUSH2 0x1B8 JUMP JUMPDEST PUSH1 0x40 MLOAD PUSH2 0xB5 SWAP2 SWAP1 PUSH2 0x85E JUMP JUMPDEST PUSH1 0x40 MLOAD DUP1 SWAP2 SUB SWAP1 RETURN JUMPDEST PUSH2 0xD8 PUSH1 0x4 DUP1 CALLDATASIZE SUB DUP2 ADD SWAP1 PUSH2 0xD3 SWAP2 SWAP1 PUSH2 0x8B6 JUMP JUMPDEST PUSH2 0x1DD JUMP JUMPDEST STOP JUMPDEST CALLVALUE DUP1 ISZERO PUSH2 0xE5 JUMPI PUSH0 PUSH0 REVERT JUMPDEST POP PUSH2 0xEE PUSH2 0x2C2 JUMP JUMPDEST PUSH1 0x40 MLOAD PUSH2 0xFB SWAP2 SWAP1 PUSH2 0x951 JUMP JUMPDEST PUSH1 0x40 MLOAD DUP1 SWAP2 SUB SWAP1 RETURN JUMPDEST PUSH2 0x10C PUSH2 0x34E JUMP JUMPDEST STOP JUMPDEST CALLVALUE DUP1 ISZERO PUSH2 0x119 JUMPI PUSH0 PUSH0 REVERT JUMPDEST POP PUSH2 0x122 PUSH2 0x5A1 JUMP JUMPDEST STOP JUMPDEST CALLVALUE DUP1 ISZERO PUSH2 0x12F JUMPI PUSH0 PUSH0 REVERT JUMPDEST POP PUSH2 0x138 PUSH2 0x728 JUMP JUMPDEST STOP JUMPDEST CALLVALUE DUP1 ISZERO PUSH2 0x145 JUMPI PUSH0 PUSH0 REVERT JUMPDEST POP PUSH2 0x14E PUSH2 0x7EE JUMP JUMPDEST PUSH1 0x40 MLOAD PUSH2 0x15B SWAP2 SWAP1 PUSH2 0x989 JUMP JUMPDEST PUSH1 0x40 MLOAD DUP1 SWAP2 SUB SWAP1 RETURN JUMPDEST CALLVALUE DUP1 ISZERO PUSH2 0x16F JUMPI PUSH0 PUSH0 REVERT JUMPDEST POP PUSH2 0x178 PUSH2 0x7F5 JUMP JUMPDEST PUSH1 0x40 MLOAD PUSH2 0x185 SWAP2 SWAP1 PUSH2 0x9FD JUMP JUMPDEST PUSH1 0x40 MLOAD DUP1 SWAP2 SUB SWAP1 RETURN JUMPDEST CALLVALUE DUP1 ISZERO PUSH2 0x199 JUMPI PUSH0 PUSH0 REVERT JUMPDEST POP PUSH2 0x1A2 PUSH2 0x819 JUMP JUMPDEST PUSH1 0x40 MLOAD PUSH2 0x1AF SWAP2 SWAP1 PUSH2 0x989 JUMP JUMPDEST PUSH1 0x40 MLOAD DUP1 SWAP2 SUB SWAP1 RETURN JUMPDEST PUSH1 0x3 PUSH0 SWAP1 SLOAD SWAP1 PUSH2 0x100 EXP SWAP1 DIV PUSH20 0xFFFFFFFFFFFFFFFFFFFFFFFFFFFFFFFFFFFFFFFF AND DUP2 JUMP JUMPDEST PUSH0 DUP2 PUSH20 0xFFFFFFFFFFFFFFFFFFFFFFFFFFFFFFFFFFFFFFFF AND CALLVALUE PUSH1 0x40 MLOAD PUSH2 0x202 SWAP1 PUSH2 0xA43 JUMP JUMPDEST PUSH0 PUSH1 0x40 MLOAD DUP1 DUP4 SUB DUP2 DUP6 DUP8 GAS CALL SWAP3 POP POP POP RETURNDATASIZE DUP1 PUSH0 DUP2 EQ PUSH2 0x23C JUMPI PUSH1 0x40 MLOAD SWAP2 POP PUSH1 0x1F NOT PUSH1 0x3F RETURNDATASIZE ADD AND DUP3 ADD PUSH1 0x40 MSTORE RETURNDATASIZE DUP3 MSTORE RETURNDATASIZE PUSH0 PUSH1 0x20 DUP5 ADD RETURNDATACOPY PUSH2 0x241 JUMP JUMPDEST PUSH1 0x60 SWAP2 POP JUMPDEST POP POP SWAP1 POP DUP1 PUSH2 0x285 JUMPI PUSH1 0x40 MLOAD PUSH32 0x8C379A000000000000000000000000000000000000000000000000000000000 DUP2 MSTORE PUSH1 0x4 ADD PUSH2 0x27C SWAP1 PUSH2 0xAA1 JUMP JUMPDEST PUSH1 0x40 MLOAD DUP1 SWAP2 SUB SWAP1 REVERT JUMPDEST PUSH32 0x2E50B45BC3E108704A22F64213F8C365FEC6FC72F3351A5E975E4D337A6EF779 DUP3 CALLVALUE PUSH1 0x40 MLOAD PUSH2 0x2B6 SWAP3 SWAP2 SWAP1 PUSH2 0xAF0 JUMP JUMPDEST PUSH1 0x40 MLOAD DUP1 SWAP2 SUB SWAP1 LOG1 POP POP JUMP JUMPDEST PUSH1 0x2 DUP1 SLOAD PUSH2 0x2CF SWAP1 PUSH2 0xB44 JUMP JUMPDEST DUP1 PUSH1 0x1F ADD PUSH1 0x20 DUP1 SWAP2 DIV MUL PUSH1 0x20 ADD PUSH1 0x40 MLOAD SWAP1 DUP2 ADD PUSH1 0x40 MSTORE DUP1 SWAP3 SWAP2 SWAP1 DUP2 DUP2 MSTORE PUSH1 0x20 ADD DUP3 DUP1 SLOAD PUSH2 0x2FB SWAP1 PUSH2 0xB44 JUMP JUMPDEST DUP1 ISZERO PUSH2 0x346 JUMPI DUP1 PUSH1 0x1F LT PUSH2 0x31D JUMPI PUSH2 0x100 DUP1 DUP4 SLOAD DIV MUL DUP4 MSTORE SWAP2 PUSH1 0x20 ADD SWAP2 PUSH2 0x346 JUMP JUMPDEST DUP3 ADD SWAP2 SWAP1 PUSH0 MSTORE PUSH1 0x20 PUSH0 KECCAK256 SWAP1 JUMPDEST DUP2 SLOAD DUP2 MSTORE SWAP1 PUSH1 0x1 ADD SWAP1 PUSH1 0x20 ADD DUP1 DUP4 GT PUSH2 0x329 JUMPI DUP3 SWAP1 SUB PUSH1 0x1F AND DUP3 ADD SWAP2 JUMPDEST POP POP POP POP POP DUP2 JUMP JUMPDEST PUSH1 0x3 PUSH1 0x14 SWAP1 SLOAD SWAP1 PUSH2 0x100 EXP SWAP1 DIV PUSH1 0xFF AND ISZERO PUSH2 0x39E JUMPI PUSH1 0x40 MLOAD PUSH32 0x8C379A000000000000000000000000000000000000000000000000000000000 DUP2 MSTORE PUSH1 0x4 ADD PUSH2 0x395 SWAP1 PUSH2 0xBBE JUMP JUMPDEST PUSH1 0x40 MLOAD DUP1 SWAP2 SUB SWAP1 REVERT JUMPDEST PUSH1 0x1 PUSH1 0x3 PUSH1 0x14 PUSH2 0x100 EXP DUP2 SLOAD DUP2 PUSH1 0xFF MUL NOT AND SWAP1 DUP4 ISZERO ISZERO MUL OR SWAP1 SSTORE POP PUSH1 0x40 MLOAD DUP1 PUSH1 0x40 ADD PUSH1 0x40 MSTORE DUP1 PUSH1 0x14 DUP2 MSTORE PUSH1 0x20 ADD PUSH32 0x4265666F72652065787465726E616C2063616C6C000000000000000000000000 DUP2 MSTORE POP PUSH1 0x2 SWAP1 DUP2 PUSH2 0x3FD SWAP2 SWAP1 PUSH2 0xDB1 JUMP JUMPDEST POP CALLER PUSH1 0x3 PUSH0 PUSH2 0x100 EXP DUP2 SLOAD DUP2 PUSH20 0xFFFFFFFFFFFFFFFFFFFFFFFFFFFFFFFFFFFFFFFF MUL NOT AND SWAP1 DUP4 PUSH20 0xFFFFFFFFFFFFFFFFFFFFFFFFFFFFFFFFFFFFFFFF AND MUL OR SWAP1 SSTORE POP PUSH1 0x1 PUSH0 DUP2 SLOAD DUP1 SWAP3 SWAP2 SWAP1 PUSH2 0x450 SWAP1 PUSH2 0xEAD JUMP JUMPDEST SWAP2 SWAP1 POP SSTORE POP PUSH32 0xC8E68DFD834C23015051268F2DB5D1D9203C543E25BD177BE502F46E2F4D6132 CALLER PUSH1 0x40 MLOAD PUSH2 0x484 SWAP2 SWAP1 PUSH2 0x85E JUMP JUMPDEST PUSH1 0x40 MLOAD DUP1 SWAP2 SUB SWAP1 LOG1 PUSH0 PUSH0 SWAP1 SLOAD SWAP1 PUSH2 0x100 EXP SWAP1 DIV PUSH20 0xFFFFFFFFFFFFFFFFFFFFFFFFFFFFFFFFFFFFFFFF AND PUSH20 0xFFFFFFFFFFFFFFFFFFFFFFFFFFFFFFFFFFFFFFFF AND PUSH4 0xA341A91B CALLVALUE PUSH1 0x40 MLOAD DUP3 PUSH4 0xFFFFFFFF AND PUSH1 0xE0 SHL DUP2 MSTORE PUSH1 0x4 ADD PUSH0 PUSH1 0x40 MLOAD DUP1 DUP4 SUB DUP2 DUP6 DUP9 DUP1 EXTCODESIZE ISZERO DUP1 ISZERO PUSH2 0x4F2 JUMPI PUSH0 PUSH0 REVERT JUMPDEST POP GAS CALL ISZERO DUP1 ISZERO PUSH2 0x504 JUMPI RETURNDATASIZE PUSH0 PUSH0 RETURNDATACOPY RETURNDATASIZE PUSH0 REVERT JUMPDEST POP POP POP POP POP PUSH1 0x40 MLOAD DUP1 PUSH1 0x40 ADD PUSH1 0x40 MSTORE DUP1 PUSH1 0x13 DUP2 MSTORE PUSH1 0x20 ADD PUSH32 0x41667465722065787465726E616C2063616C6C00000000000000000000000000 DUP2 MSTORE POP PUSH1 0x2 SWAP1 DUP2 PUSH2 0x54D SWAP2 SWAP1 PUSH2 0xDB1 JUMP JUMPDEST POP PUSH32 0xEF0A105F65763E4BA161BC76268B5704C85F25A24C542925BF389433A3E1D606 CALLER PUSH1 0x40 MLOAD PUSH2 0x57D SWAP2 SWAP1 PUSH2 0x85E JUMP JUMPDEST PUSH1 0x40 MLOAD DUP1 SWAP2 SUB SWAP1 LOG1 PUSH0 PUSH1 0x3 PUSH1 0x14 PUSH2 0x100 EXP DUP2 SLOAD DUP2 PUSH1 0xFF MUL NOT AND SWAP1 DUP4 ISZERO ISZERO MUL OR SWAP1 SSTORE POP JUMP JUMPDEST PUSH0 PUSH0 PUSH0 PUSH0 SWAP1 SLOAD SWAP1 PUSH2 0x100 EXP SWAP1 DIV PUSH20 0xFFFFFFFFFFFFFFFFFFFFFFFFFFFFFFFFFFFFFFFF AND PUSH20 0xFFFFFFFFFFFFFFFFFFFFFFFFFFFFFFFFFFFFFFFF AND PUSH1 0x40 MLOAD PUSH1 0x24 ADD PUSH1 0x40 MLOAD PUSH1 0x20 DUP2 DUP4 SUB SUB DUP2 MSTORE SWAP1 PUSH1 0x40 MSTORE PUSH32 0xA341A91B00000000000000000000000000000000000000000000000000000000 PUSH28 0xFFFFFFFFFFFFFFFFFFFFFFFFFFFFFFFFFFFFFFFFFFFFFFFFFFFFFFFF NOT AND PUSH1 0x20 DUP3 ADD DUP1 MLOAD PUSH28 0xFFFFFFFFFFFFFFFFFFFFFFFFFFFFFFFFFFFFFFFFFFFFFFFFFFFFFFFF DUP4 DUP2 DUP4 AND OR DUP4 MSTORE POP POP POP POP PUSH1 0x40 MLOAD PUSH2 0x66A SWAP2 SWAP1 PUSH2 0xF2E JUMP JUMPDEST PUSH0 PUSH1 0x40 MLOAD DUP1 DUP4 SUB DUP2 PUSH0 DUP7 GAS CALL SWAP2 POP POP RETURNDATASIZE DUP1 PUSH0 DUP2 EQ PUSH2 0x6A3 JUMPI PUSH1 0x40 MLOAD SWAP2 POP PUSH1 0x1F NOT PUSH1 0x3F RETURNDATASIZE ADD AND DUP3 ADD PUSH1 0x40 MSTORE RETURNDATASIZE DUP3 MSTORE RETURNDATASIZE PUSH0 PUSH1 0x20 DUP5 ADD RETURNDATACOPY PUSH2 0x6A8 JUMP JUMPDEST PUSH1 0x60 SWAP2 POP JUMPDEST POP SWAP2 POP SWAP2 POP PUSH32 0x371AF01C5F2C31A6A7AE2D5FEF37CFA6AEC0B635583AED736AEBCD8C8AD25890 DUP3 PUSH1 0x40 MLOAD PUSH2 0x6DC SWAP2 SWAP1 PUSH2 0xF5E JUMP JUMPDEST PUSH1 0x40 MLOAD DUP1 SWAP2 SUB SWAP1 LOG1 DUP2 PUSH2 0x724 JUMPI PUSH1 0x40 MLOAD PUSH32 0x8C379A000000000000000000000000000000000000000000000000000000000 DUP2 MSTORE PUSH1 0x4 ADD PUSH2 0x71B SWAP1 PUSH2 0xFC1 JUMP JUMPDEST PUSH1 0x40 MLOAD DUP1 SWAP2 SUB SWAP1 REVERT JUMPDEST POP POP JUMP JUMPDEST PUSH0 PUSH0 SWAP1 SLOAD SWAP1 PUSH2 0x100 EXP SWAP1 DIV PUSH20 0xFFFFFFFFFFFFFFFFFFFFFFFFFFFFFFFFFFFFFFFF AND PUSH20 0xFFFFFFFFFFFFFFFFFFFFFFFFFFFFFFFFFFFFFFFF AND PUSH4 0xCA463E19 PUSH1 0x40 MLOAD DUP2 PUSH4 0xFFFFFFFF AND PUSH1 0xE0 SHL DUP2 MSTORE PUSH1 0x4 ADD PUSH0 PUSH1 0x40 MLOAD DUP1 DUP4 SUB DUP2 DUP7 DUP1 EXTCODESIZE ISZERO DUP1 ISZERO PUSH2 0x78C JUMPI PUSH0 PUSH0 REVERT JUMPDEST POP GAS STATICCALL SWAP3 POP POP POP DUP1 ISZERO PUSH2 0x79D JUMPI POP PUSH1 0x1 JUMPDEST PUSH2 0x7EB JUMPI PUSH1 0x40 MLOAD DUP1 PUSH1 0x40 ADD PUSH1 0x40 MSTORE DUP1 PUSH1 0xF DUP2 MSTORE PUSH1 0x20 ADD PUSH32 0x4661696C7572652068616E646C65640000000000000000000000000000000000 DUP2 MSTORE POP PUSH1 0x2 SWAP1 DUP2 PUSH2 0x7E5 SWAP2 SWAP1 PUSH2 0xDB1 JUMP JUMPDEST POP PUSH2 0x7EC JUMP JUMPDEST JUMPDEST JUMP JUMPDEST PUSH0 SELFBALANCE SWAP1 POP SWAP1 JUMP JUMPDEST PUSH0 PUSH0 SWAP1 SLOAD SWAP1 PUSH2 0x100 EXP SWAP1 DIV PUSH20 0xFFFFFFFFFFFFFFFFFFFFFFFFFFFFFFFFFFFFFFFF AND DUP2 JUMP JUMPDEST PUSH1 0x1 SLOAD DUP2 JUMP JUMPDEST PUSH0 PUSH20 0xFFFFFFFFFFFFFFFFFFFFFFFFFFFFFFFFFFFFFFFF DUP3 AND SWAP1 POP SWAP2 SWAP1 POP JUMP JUMPDEST PUSH0 PUSH2 0x848 DUP3 PUSH2 0x81F JUMP JUMPDEST SWAP1 POP SWAP2 SWAP1 POP JUMP JUMPDEST PUSH2 0x858 DUP2 PUSH2 0x83E JUMP JUMPDEST DUP3 MSTORE POP POP JUMP JUMPDEST PUSH0 PUSH1 0x20 DUP3 ADD SWAP1 POP PUSH2 0x871 PUSH0 DUP4 ADD DUP5 PUSH2 0x84F JUMP JUMPDEST SWAP3 SWAP2 POP POP JUMP JUMPDEST PUSH0 PUSH0 REVERT JUMPDEST PUSH0 PUSH2 0x885 DUP3 PUSH2 0x81F JUMP JUMPDEST SWAP1 POP SWAP2 SWAP1 POP JUMP JUMPDEST PUSH2 0x895 DUP2 PUSH2 0x87B JUMP JUMPDEST DUP2 EQ PUSH2 0x89F JUMPI PUSH0 PUSH0 REVERT JUMPDEST POP JUMP JUMPDEST PUSH0 DUP2 CALLDATALOAD SWAP1 POP PUSH2 0x8B0 DUP2 PUSH2 0x88C JUMP JUMPDEST SWAP3 SWAP2 POP POP JUMP JUMPDEST PUSH0 PUSH1 0x20 DUP3 DUP5 SUB SLT ISZERO PUSH2 0x8CB JUMPI PUSH2 0x8CA PUSH2 0x877 JUMP JUMPDEST JUMPDEST PUSH0 PUSH2 0x8D8 DUP5 DUP3 DUP6 ADD PUSH2 0x8A2 JUMP JUMPDEST SWAP2 POP POP SWAP3 SWAP2 POP POP JUMP JUMPDEST PUSH0 DUP2 MLOAD SWAP1 POP SWAP2 SWAP1 POP JUMP JUMPDEST PUSH0 DUP3 DUP3 MSTORE PUSH1 0x20 DUP3 ADD SWAP1 POP SWAP3 SWAP2 POP POP JUMP JUMPDEST DUP3 DUP2 DUP4 MCOPY PUSH0 DUP4 DUP4 ADD MSTORE POP POP POP JUMP JUMPDEST PUSH0 PUSH1 0x1F NOT PUSH1 0x1F DUP4 ADD AND SWAP1 POP SWAP2 SWAP1 POP JUMP JUMPDEST PUSH0 PUSH2 0x923 DUP3 PUSH2 0x8E1 JUMP JUMPDEST PUSH2 0x92D DUP2 DUP6 PUSH2 0x8EB JUMP JUMPDEST SWAP4 POP PUSH2 0x93D DUP2 DUP6 PUSH1 0x20 DUP7 ADD PUSH2 0x8FB JUMP JUMPDEST PUSH2 0x946 DUP2 PUSH2 0x909 JUMP JUMPDEST DUP5 ADD SWAP2 POP POP SWAP3 SWAP2 POP POP JUMP JUMPDEST PUSH0 PUSH1 0x20 DUP3 ADD SWAP1 POP DUP2 DUP2 SUB PUSH0 DUP4 ADD MSTORE PUSH2 0x969 DUP2 DUP5 PUSH2 0x919 JUMP JUMPDEST SWAP1 POP SWAP3 SWAP2 POP POP JUMP JUMPDEST PUSH0 DUP2 SWAP1 POP SWAP2 SWAP1 POP JUMP JUMPDEST PUSH2 0x983 DUP2 PUSH2 0x971 JUMP JUMPDEST DUP3 MSTORE POP POP JUMP JUMPDEST PUSH0 PUSH1 0x20 DUP3 ADD SWAP1 POP PUSH2 0x99C PUSH0 DUP4 ADD DUP5 PUSH2 0x97A JUMP JUMPDEST SWAP3 SWAP2 POP POP JUMP JUMPDEST PUSH0 DUP2 SWAP1 POP SWAP2 SWAP1 POP JUMP JUMPDEST PUSH0 PUSH2 0x9C5 PUSH2 0x9C0 PUSH2 0x9BB DUP5 PUSH2 0x81F JUMP JUMPDEST PUSH2 0x9A2 JUMP JUMPDEST PUSH2 0x81F JUMP JUMPDEST SWAP1 POP SWAP2 SWAP1 POP JUMP JUMPDEST PUSH0 PUSH2 0x9D6 DUP3 PUSH2 0x9AB JUMP JUMPDEST SWAP1 POP SWAP2 SWAP1 POP JUMP JUMPDEST PUSH0 PUSH2 0x9E7 DUP3 PUSH2 0x9CC JUMP JUMPDEST SWAP1 POP SWAP2 SWAP1 POP JUMP JUMPDEST PUSH2 0x9F7 DUP2 PUSH2 0x9DD JUMP JUMPDEST DUP3 MSTORE POP POP JUMP JUMPDEST PUSH0 PUSH1 0x20 DUP3 ADD SWAP1 POP PUSH2 0xA10 PUSH0 DUP4 ADD DUP5 PUSH2 0x9EE JUMP JUMPDEST SWAP3 SWAP2 POP POP JUMP JUMPDEST PUSH0 DUP2 SWAP1 POP SWAP3 SWAP2 POP POP JUMP JUMPDEST POP JUMP JUMPDEST PUSH0 PUSH2 0xA2E PUSH0 DUP4 PUSH2 0xA16 JUMP JUMPDEST SWAP2 POP PUSH2 0xA39 DUP3 PUSH2 0xA20 JUMP JUMPDEST PUSH0 DUP3 ADD SWAP1 POP SWAP2 SWAP1 POP JUMP JUMPDEST PUSH0 PUSH2 0xA4D DUP3 PUSH2 0xA23 JUMP JUMPDEST SWAP2 POP DUP2 SWAP1 POP SWAP2 SWAP1 POP JUMP JUMPDEST PUSH32 0x455448207472616E73666572206661696C656400000000000000000000000000 PUSH0 DUP3 ADD MSTORE POP JUMP JUMPDEST PUSH0 PUSH2 0xA8B PUSH1 0x13 DUP4 PUSH2 0x8EB JUMP JUMPDEST SWAP2 POP PUSH2 0xA96 DUP3 PUSH2 0xA57 JUMP JUMPDEST PUSH1 0x20 DUP3 ADD SWAP1 POP SWAP2 SWAP1 POP JUMP JUMPDEST PUSH0 PUSH1 0x20 DUP3 ADD SWAP1 POP DUP2 DUP2 SUB PUSH0 DUP4 ADD MSTORE PUSH2 0xAB8 DUP2 PUSH2 0xA7F JUMP JUMPDEST SWAP1 POP SWAP2 SWAP1 POP JUMP JUMPDEST PUSH0 PUSH2 0xAC9 DUP3 PUSH2 0x9AB JUMP JUMPDEST SWAP1 POP SWAP2 SWAP1 POP JUMP JUMPDEST PUSH0 PUSH2 0xADA DUP3 PUSH2 0xABF JUMP JUMPDEST SWAP1 POP SWAP2 SWAP1 POP JUMP JUMPDEST PUSH2 0xAEA DUP2 PUSH2 0xAD0 JUMP JUMPDEST DUP3 MSTORE POP POP JUMP JUMPDEST PUSH0 PUSH1 0x40 DUP3 ADD SWAP1 POP PUSH2 0xB03 PUSH0 DUP4 ADD DUP6 PUSH2 0xAE1 JUMP JUMPDEST PUSH2 0xB10 PUSH1 0x20 DUP4 ADD DUP5 PUSH2 0x97A JUMP JUMPDEST SWAP4 SWAP3 POP POP POP JUMP JUMPDEST PUSH32 0x4E487B7100000000000000000000000000000000000000000000000000000000 PUSH0 MSTORE PUSH1 0x22 PUSH1 0x4 MSTORE PUSH1 0x24 PUSH0 REVERT JUMPDEST PUSH0 PUSH1 0x2 DUP3 DIV SWAP1 POP PUSH1 0x1 DUP3 AND DUP1 PUSH2 0xB5B JUMPI PUSH1 0x7F DUP3 AND SWAP2 POP JUMPDEST PUSH1 0x20 DUP3 LT DUP2 SUB PUSH2 0xB6E JUMPI PUSH2 0xB6D PUSH2 0xB17 JUMP JUMPDEST JUMPDEST POP SWAP2 SWAP1 POP JUMP JUMPDEST PUSH32 0x5265656E7472616E637920626C6F636B65640000000000000000000000000000 PUSH0 DUP3 ADD MSTORE POP JUMP JUMPDEST PUSH0 PUSH2 0xBA8 PUSH1 0x12 DUP4 PUSH2 0x8EB JUMP JUMPDEST SWAP2 POP PUSH2 0xBB3 DUP3 PUSH2 0xB74 JUMP JUMPDEST PUSH1 0x20 DUP3 ADD SWAP1 POP SWAP2 SWAP1 POP JUMP JUMPDEST PUSH0 PUSH1 0x20 DUP3 ADD SWAP1 POP DUP2 DUP2 SUB PUSH0 DUP4 ADD MSTORE PUSH2 0xBD5 DUP2 PUSH2 0xB9C JUMP JUMPDEST SWAP1 POP SWAP2 SWAP1 POP JUMP JUMPDEST PUSH32 0x4E487B7100000000000000000000000000000000000000000000000000000000 PUSH0 MSTORE PUSH1 0x41 PUSH1 0x4 MSTORE PUSH1 0x24 PUSH0 REVERT JUMPDEST PUSH0 DUP2 SWAP1 POP DUP2 PUSH0 MSTORE PUSH1 0x20 PUSH0 KECCAK256 SWAP1 POP SWAP2 SWAP1 POP JUMP JUMPDEST PUSH0 PUSH1 0x20 PUSH1 0x1F DUP4 ADD DIV SWAP1 POP SWAP2 SWAP1 POP JUMP JUMPDEST PUSH0 DUP3 DUP3 SHL SWAP1 POP SWAP3 SWAP2 POP POP JUMP JUMPDEST PUSH0 PUSH1 0x8 DUP4 MUL PUSH2 0xC65 PUSH32 0xFFFFFFFFFFFFFFFFFFFFFFFFFFFFFFFFFFFFFFFFFFFFFFFFFFFFFFFFFFFFFFFF DUP3 PUSH2 0xC2A JUMP JUMPDEST PUSH2 0xC6F DUP7 DUP4 PUSH2 0xC2A JUMP JUMPDEST SWAP6 POP DUP1 NOT DUP5 AND SWAP4 POP DUP1 DUP7 AND DUP5 OR SWAP3 POP POP POP SWAP4 SWAP3 POP POP POP JUMP JUMPDEST PUSH0 PUSH2 0xCA1 PUSH2 0xC9C PUSH2 0xC97 DUP5 PUSH2 0x971 JUMP JUMPDEST PUSH2 0x9A2 JUMP JUMPDEST PUSH2 0x971 JUMP JUMPDEST SWAP1 POP SWAP2 SWAP1 POP JUMP JUMPDEST PUSH0 DUP2 SWAP1 POP SWAP2 SWAP1 POP JUMP JUMPDEST PUSH2 0xCBA DUP4 PUSH2 0xC87 JUMP JUMPDEST PUSH2 0xCCE PUSH2 0xCC6 DUP3 PUSH2 0xCA8 JUMP JUMPDEST DUP5 DUP5 SLOAD PUSH2 0xC36 JUMP JUMPDEST DUP3 SSTORE POP POP POP POP JUMP JUMPDEST PUSH0 PUSH0 SWAP1 POP SWAP1 JUMP JUMPDEST PUSH2 0xCE5 PUSH2 0xCD6 JUMP JUMPDEST PUSH2 0xCF0 DUP2 DUP5 DUP5 PUSH2 0xCB1 JUMP JUMPDEST POP POP POP JUMP JUMPDEST PUSH0 JUMPDEST DUP3 DUP2 LT ISZERO PUSH2 0xD16 JUMPI PUSH2 0xD0B PUSH0 DUP3 DUP5 ADD PUSH2 0xCDD JUMP JUMPDEST PUSH1 0x1 DUP2 ADD SWAP1 POP PUSH2 0xCF7 JUMP JUMPDEST POP POP POP JUMP JUMPDEST PUSH1 0x1F DUP3 GT ISZERO PUSH2 0xD69 JUMPI DUP3 DUP3 GT ISZERO PUSH2 0xD68 JUMPI PUSH2 0xD35 DUP2 PUSH2 0xC09 JUMP JUMPDEST PUSH2 0xD3E DUP4 PUSH2 0xC1B JUMP JUMPDEST PUSH2 0xD47 DUP6 PUSH2 0xC1B JUMP JUMPDEST PUSH1 0x20 DUP7 LT ISZERO PUSH2 0xD54 JUMPI PUSH0 SWAP1 POP JUMPDEST DUP1 DUP4 ADD PUSH2 0xD63 DUP3 DUP5 SUB DUP3 PUSH2 0xCF5 JUMP JUMPDEST POP POP POP POP JUMPDEST JUMPDEST POP POP POP JUMP JUMPDEST PUSH0 DUP3 DUP3 SHR SWAP1 POP SWAP3 SWAP2 POP POP JUMP JUMPDEST PUSH0 PUSH2 0xD89 PUSH0 NOT DUP5 PUSH1 0x8 MUL PUSH2 0xD6E JUMP JUMPDEST NOT DUP1 DUP4 AND SWAP2 POP POP SWAP3 SWAP2 POP POP JUMP JUMPDEST PUSH0 PUSH2 0xDA1 DUP4 DUP4 PUSH2 0xD7A JUMP JUMPDEST SWAP2 POP DUP3 PUSH1 0x2 MUL DUP3 OR SWAP1 POP SWAP3 SWAP2 POP POP JUMP JUMPDEST PUSH2 0xDBA DUP3 PUSH2 0x8E1 JUMP JUMPDEST PUSH8 0xFFFFFFFFFFFFFFFF DUP2 GT ISZERO PUSH2 0xDD3 JUMPI PUSH2 0xDD2 PUSH2 0xBDC JUMP JUMPDEST JUMPDEST PUSH2 0xDDD DUP3 SLOAD PUSH2 0xB44 JUMP JUMPDEST PUSH2 0xDE8 DUP3 DUP3 DUP6 PUSH2 0xD1B JUMP JUMPDEST PUSH0 PUSH1 0x20 SWAP1 POP PUSH1 0x1F DUP4 GT PUSH1 0x1 DUP2 EQ PUSH2 0xE19 JUMPI PUSH0 DUP5 ISZERO PUSH2 0xE07 JUMPI DUP3 DUP8 ADD MLOAD SWAP1 POP JUMPDEST PUSH2 0xE11 DUP6 DUP3 PUSH2 0xD96 JUMP JUMPDEST DUP7 SSTORE POP PUSH2 0xE78 JUMP JUMPDEST PUSH1 0x1F NOT DUP5 AND PUSH2 0xE27 DUP7 PUSH2 0xC09 JUMP JUMPDEST PUSH0 JUMPDEST DUP3 DUP2 LT ISZERO PUSH2 0xE4E JUMPI DUP5 DUP10 ADD MLOAD DUP3 SSTORE PUSH1 0x1 DUP3 ADD SWAP2 POP PUSH1 0x20 DUP6 ADD SWAP5 POP PUSH1 0x20 DUP2 ADD SWAP1 POP PUSH2 0xE29 JUMP JUMPDEST DUP7 DUP4 LT ISZERO PUSH2 0xE6B JUMPI DUP5 DUP10 ADD MLOAD PUSH2 0xE67 PUSH1 0x1F DUP10 AND DUP3 PUSH2 0xD7A JUMP JUMPDEST DUP4 SSTORE POP JUMPDEST PUSH1 0x1 PUSH1 0x2 DUP9 MUL ADD DUP9 SSTORE POP POP POP JUMPDEST POP POP POP POP POP POP JUMP JUMPDEST PUSH32 0x4E487B7100000000000000000000000000000000000000000000000000000000 PUSH0 MSTORE PUSH1 0x11 PUSH1 0x4 MSTORE PUSH1 0x24 PUSH0 REVERT JUMPDEST PUSH0 PUSH2 0xEB7 DUP3 PUSH2 0x971 JUMP JUMPDEST SWAP2 POP PUSH32 0xFFFFFFFFFFFFFFFFFFFFFFFFFFFFFFFFFFFFFFFFFFFFFFFFFFFFFFFFFFFFFFFF DUP3 SUB PUSH2 0xEE9 JUMPI PUSH2 0xEE8 PUSH2 0xE80 JUMP JUMPDEST JUMPDEST PUSH1 0x1 DUP3 ADD SWAP1 POP SWAP2 SWAP1 POP JUMP JUMPDEST PUSH0 DUP2 MLOAD SWAP1 POP SWAP2 SWAP1 POP JUMP JUMPDEST PUSH0 PUSH2 0xF08 DUP3 PUSH2 0xEF4 JUMP JUMPDEST PUSH2 0xF12 DUP2 DUP6 PUSH2 0xA16 JUMP JUMPDEST SWAP4 POP PUSH2 0xF22 DUP2 DUP6 PUSH1 0x20 DUP7 ADD PUSH2 0x8FB JUMP JUMPDEST DUP1 DUP5 ADD SWAP2 POP POP SWAP3 SWAP2 POP POP JUMP JUMPDEST PUSH0 PUSH2 0xF39 DUP3 DUP5 PUSH2 0xEFE JUMP JUMPDEST SWAP2 POP DUP2 SWAP1 POP SWAP3 SWAP2 POP POP JUMP JUMPDEST PUSH0 DUP2 ISZERO ISZERO SWAP1 POP SWAP2 SWAP1 POP JUMP JUMPDEST PUSH2 0xF58 DUP2 PUSH2 0xF44 JUMP JUMPDEST DUP3 MSTORE POP POP JUMP JUMPDEST PUSH0 PUSH1 0x20 DUP3 ADD SWAP1 POP PUSH2 0xF71 PUSH0 DUP4 ADD DUP5 PUSH2 0xF4F JUMP JUMPDEST SWAP3 SWAP2 POP POP JUMP JUMPDEST PUSH32 0x4C6F772D6C6576656C2063616C6C206661696C65640000000000000000000000 PUSH0 DUP3 ADD MSTORE POP JUMP JUMPDEST PUSH0 PUSH2 0xFAB PUSH1 0x15 DUP4 PUSH2 0x8EB JUMP JUMPDEST SWAP2 POP PUSH2 0xFB6 DUP3 PUSH2 0xF77 JUMP JUMPDEST PUSH1 0x20 DUP3 ADD SWAP1 POP SWAP2 SWAP1 POP JUMP JUMPDEST PUSH0 PUSH1 0x20 DUP3 ADD SWAP1 POP DUP2 DUP2 SUB PUSH0 DUP4 ADD MSTORE PUSH2 0xFD8 DUP2 PUSH2 0xF9F JUMP JUMPDEST SWAP1 POP SWAP2 SWAP1 POP JUMP INVALID LOG2 PUSH5 0x6970667358 0x22 SLT KECCAK256 PUSH20 0xF924D2CE81584285A8AC823BF0BDAB557ECD357C PUSH18 0xE2423BE1F2F8D0A6D19964736F6C63430008 0x22 STOP CALLER "
		},
		"gasEstimates": {
			"creation": {
				"codeDepositCost": "823400",
				"executionCost": "infinite",
				"totalCost": "infinite"
			},
			"external": {
				"contractBalance()": "378",
				"executionStage()": "infinite",
				"failingTrace()": "infinite",
				"lastObservedSender()": "2509",
				"localCounter()": "2513",
				"lowLevelTrace()": "infinite",
				"sendETH(address)": "infinite",
				"target()": "infinite",
				"traceExecution()": "infinite"
			}
		},
		"methodIdentifiers": {
			"contractBalance()": "8b7afe2e",
			"executionStage()": "2b526dcc",
			"failingTrace()": "6e4a56ed",
			"lastObservedSender()": "1ec1f778",
			"localCounter()": "e88cc9a3",
			"lowLevelTrace()": "35a24eb5",
			"sendETH(address)": "21b1e5f8",
			"target()": "d4b83992",
			"traceExecution()": "32083fcd"
		}
	},
	"abi": [
		{
			"inputs": [
				{
					"internalType": "address payable",
					"name": "_target",
					"type": "address"
				}
			],
			"stateMutability": "nonpayable",
			"type": "constructor"
		},
		{
			"anonymous": false,
			"inputs": [
				{
					"indexed": false,
					"internalType": "address",
					"name": "receiver",
					"type": "address"
				},
				{
					"indexed": false,
					"internalType": "uint256",
					"name": "amount",
					"type": "uint256"
				}
			],
			"name": "ETHTransfer",
			"type": "event"
		},
		{
			"anonymous": false,
			"inputs": [
				{
					"indexed": false,
					"internalType": "address",
					"name": "caller",
					"type": "address"
				}
			],
			"name": "ExecutionFinished",
			"type": "event"
		},
		{
			"anonymous": false,
			"inputs": [
				{
					"indexed": false,
					"internalType": "address",
					"name": "caller",
					"type": "address"
				}
			],
			"name": "ExecutionStarted",
			"type": "event"
		},
		{
			"anonymous": false,
			"inputs": [
				{
					"indexed": false,
					"internalType": "bool",
					"name": "success",
					"type": "bool"
				}
			],
			"name": "LowLevelResult",
			"type": "event"
		},
		{
			"inputs": [],
			"name": "contractBalance",
			"outputs": [
				{
					"internalType": "uint256",
					"name": "",
					"type": "uint256"
				}
			],
			"stateMutability": "view",
			"type": "function"
		},
		{
			"inputs": [],
			"name": "executionStage",
			"outputs": [
				{
					"internalType": "string",
					"name": "",
					"type": "string"
				}
			],
			"stateMutability": "view",
			"type": "function"
		},
		{
			"inputs": [],
			"name": "failingTrace",
			"outputs": [],
			"stateMutability": "nonpayable",
			"type": "function"
		},
		{
			"inputs": [],
			"name": "lastObservedSender",
			"outputs": [
				{
					"internalType": "address",
					"name": "",
					"type": "address"
				}
			],
			"stateMutability": "view",
			"type": "function"
		},
		{
			"inputs": [],
			"name": "localCounter",
			"outputs": [
				{
					"internalType": "uint256",
					"name": "",
					"type": "uint256"
				}
			],
			"stateMutability": "view",
			"type": "function"
		},
		{
			"inputs": [],
			"name": "lowLevelTrace",
			"outputs": [],
			"stateMutability": "nonpayable",
			"type": "function"
		},
		{
			"inputs": [
				{
					"internalType": "address payable",
					"name": "_receiver",
					"type": "address"
				}
			],
			"name": "sendETH",
			"outputs": [],
			"stateMutability": "payable",
			"type": "function"
		},
		{
			"inputs": [],
			"name": "target",
			"outputs": [
				{
					"internalType": "contract ExternalTarget",
					"name": "",
					"type": "address"
				}
			],
			"stateMutability": "view",
			"type": "function"
		},
		{
			"inputs": [],
			"name": "traceExecution",
			"outputs": [],
			"stateMutability": "payable",
			"type": "function"
		},
		{
			"stateMutability": "payable",
			"type": "receive"
		}
	]
}