{
	"data": {
		"bytecode": {
			"linkReferences": {},
			"object": "6080604052348015600e575f5ffd5b506113ca8061001c5f395ff3fe608060405260043610610079575f3560e01c806398971dbf1161004d57806398971dbf14610115578063c816f0381461013d578063e88cc9a314610165578063eec192741461018f57610079565b80626e75ec1461007d57806321b1e5f8146100a75780639415bc59146100c3578063987fb8a2146100ed575b5f5ffd5b348015610088575f5ffd5b506100916101b9565b60405161009e9190610979565b60405180910390f35b6100c160048036038101906100bc9190610a04565b610245565b005b3480156100ce575f5ffd5b506100d761036f565b6040516100e49190610a49565b60405180910390f35b3480156100f8575f5ffd5b50610113600480360381019061010e9190610a9d565b610380565b005b348015610120575f5ffd5b5061013b60048036038101906101369190610a9d565b6104e9565b005b348015610148575f5ffd5b50610163600480360381019061015e9190610a9d565b6106ac565b005b348015610170575f5ffd5b5061017961080c565b6040516101869190610ae0565b60405180910390f35b34801561019a575f5ffd5b506101a3610812565b6040516101b09190610b4b565b60405180910390f35b600180546101c690610b98565b80601f01602080910402602001604051908101604052809291908181526020018280546101f290610b98565b801561023d5780601f106102145761010080835404028352916020019161023d565b820191905f5260205f20905b81548152906001019060200180831161022057829003601f168201915b505050505081565b5f5f8273ffffffffffffffffffffffffffffffffffffffff163460405161026b90610bf5565b5f6040518083038185875af1925050503d805f81146102a5576040519150601f19603f3d011682016040523d82523d5f602084013e6102aa565b606091505b5091509150815f5f6101000a81548160ff02191690831515021790555080600190816102d69190610de7565b507f582326e533af48b16567b0565a82550442e225cf8491cb9ae2a29e1f96935e7c8282604051610308929190610eb6565b60405180910390a18161036a575f61031f8261089e565b905080600290816103309190610f49565b507fd74425d2c4a95b1f08686289ced4d572a8cd1be1531394e53102ce98b1761df4816040516103609190610b4b565b60405180910390a1505b505050565b5f5f9054906101000a900460ff1681565b60035f81548092919061039290611045565b91905055505f5f8273ffffffffffffffffffffffffffffffffffffffff166040516024016040516020818303038152906040527fd67e4b84000000000000000000000000000000000000000000000000000000007bffffffffffffffffffffffffffffffffffffffffffffffffffffffff19166020820180517bffffffffffffffffffffffffffffffffffffffffffffffffffffffff838183161783525050505060405161044091906110bc565b5f604051808303815f865af19150503d805f8114610479576040519150601f19603f3d011682016040523d82523d5f602084013e61047e565b606091505b5091509150815f5f6101000a81548160ff02191690831515021790555080600190816104aa9190610de7565b507f582326e533af48b16567b0565a82550442e225cf8491cb9ae2a29e1f96935e7c82826040516104dc929190610eb6565b60405180910390a1505050565b60035f8154809291906104fb90611045565b91905055505f5f8273ffffffffffffffffffffffffffffffffffffffff166040516024016040516020818303038152906040527f1a352851000000000000000000000000000000000000000000000000000000007bffffffffffffffffffffffffffffffffffffffffffffffffffffffff19166020820180517bffffffffffffffffffffffffffffffffffffffffffffffffffffffff83818316178352505050506040516105a991906110bc565b5f604051808303815f865af19150503d805f81146105e2576040519150601f19603f3d011682016040523d82523d5f602084013e6105e7565b606091505b5091509150815f5f6101000a81548160ff02191690831515021790555080600190816106139190610de7565b507f582326e533af48b16567b0565a82550442e225cf8491cb9ae2a29e1f96935e7c8282604051610645929190610eb6565b60405180910390a1816106a7575f61065c8261089e565b9050806002908161066d9190610f49565b507fd74425d2c4a95b1f08686289ced4d572a8cd1be1531394e53102ce98b1761df48160405161069d9190610b4b565b60405180910390a1505b505050565b60035f8154809291906106be90611045565b91905055505f8190508073ffffffffffffffffffffffffffffffffffffffff16631a3528516040518163ffffffff1660e01b81526004015f604051808303815f87803b15801561070c575f5ffd5b505af192505050801561071d575060015b6107d2576107296110de565b806308c379a003610795575061073d61112e565b806107485750610797565b80600290816107579190610f49565b507f2170a899eb3df99de3d6973d7f04a8981d877b84ca2055234d696ae04a5547f3816040516107879190610b4b565b60405180910390a1506107cd565b505b7f2170a899eb3df99de3d6973d7f04a8981d877b84ca2055234d696ae04a5547f36040516107c490611207565b60405180910390a15b610808565b7f907064b0143a723ebd8288b576f516a5fe1e8ff61101035f8d305a383cf118546040516107ff9061126f565b60405180910390a15b5050565b60035481565b6002805461081f90610b98565b80601f016020809104026020016040519081016040528092919081815260200182805461084b90610b98565b80156108965780601f1061086d57610100808354040283529160200191610896565b820191905f5260205f20905b81548152906001019060200180831161087957829003601f168201915b505050505081565b60606044825110156108e7576040518060400160405280600e81526020017f556e6b6e6f776e207265766572740000000000000000000000000000000000008152509050610904565b60048201915081806020019051810190610901919061134d565b90505b919050565b5f81519050919050565b5f82825260208201905092915050565b8281835e5f83830152505050565b5f601f19601f8301169050919050565b5f61094b82610909565b6109558185610913565b9350610965818560208601610923565b61096e81610931565b840191505092915050565b5f6020820190508181035f8301526109918184610941565b905092915050565b5f604051905090565b5f5ffd5b5f5ffd5b5f73ffffffffffffffffffffffffffffffffffffffff82169050919050565b5f6109d3826109aa565b9050919050565b6109e3816109c9565b81146109ed575f5ffd5b50565b5f813590506109fe816109da565b92915050565b5f60208284031215610a1957610a186109a2565b5b5f610a26848285016109f0565b91505092915050565b5f8115159050919050565b610a4381610a2f565b82525050565b5f602082019050610a5c5f830184610a3a565b92915050565b5f610a6c826109aa565b9050919050565b610a7c81610a62565b8114610a86575f5ffd5b50565b5f81359050610a9781610a73565b92915050565b5f60208284031215610ab257610ab16109a2565b5b5f610abf84828501610a89565b91505092915050565b5f819050919050565b610ada81610ac8565b82525050565b5f602082019050610af35f830184610ad1565b92915050565b5f81519050919050565b5f82825260208201905092915050565b5f610b1d82610af9565b610b278185610b03565b9350610b37818560208601610923565b610b4081610931565b840191505092915050565b5f6020820190508181035f830152610b638184610b13565b905092915050565b7f4e487b71000000000000000000000000000000000000000000000000000000005f52602260045260245ffd5b5f6002820490506001821680610baf57607f821691505b602082108103610bc257610bc1610b6b565b5b50919050565b5f81905092915050565b50565b5f610be05f83610bc8565b9150610beb82610bd2565b5f82019050919050565b5f610bff82610bd5565b9150819050919050565b7f4e487b71000000000000000000000000000000000000000000000000000000005f52604160045260245ffd5b5f819050815f5260205f209050919050565b5f6020601f8301049050919050565b5f82821b905092915050565b5f60088302610c927fffffffffffffffffffffffffffffffffffffffffffffffffffffffffffffffff82610c57565b610c9c8683610c57565b95508019841693508086168417925050509392505050565b5f819050919050565b5f610cd7610cd2610ccd84610ac8565b610cb4565b610ac8565b9050919050565b5f819050919050565b610cf083610cbd565b610d04610cfc82610cde565b848454610c63565b825550505050565b5f5f905090565b610d1b610d0c565b610d26818484610ce7565b505050565b5f5b82811015610d4c57610d415f828401610d13565b600181019050610d2d565b505050565b601f821115610d9f5782821115610d9e57610d6b81610c36565b610d7483610c48565b610d7d85610c48565b6020861015610d8a575f90505b808301610d9982840382610d2b565b505050505b5b505050565b5f82821c905092915050565b5f610dbf5f1984600802610da4565b1980831691505092915050565b5f610dd78383610db0565b9150826002028217905092915050565b610df082610909565b67ffffffffffffffff811115610e0957610e08610c09565b5b610e138254610b98565b610e1e828285610d51565b5f60209050601f831160018114610e4f575f8415610e3d578287015190505b610e478582610dcc565b865550610eae565b601f198416610e5d86610c36565b5f5b82811015610e8457848901518255600182019150602085019450602081019050610e5f565b86831015610ea15784890151610e9d601f891682610db0565b8355505b6001600288020188555050505b505050505050565b5f604082019050610ec95f830185610a3a565b8181036020830152610edb8184610941565b90509392505050565b5f819050815f5260205f209050919050565b601f821115610f445782821115610f4357610f1081610ee4565b610f1983610c48565b610f2285610c48565b6020861015610f2f575f90505b808301610f3e82840382610d2b565b505050505b5b505050565b610f5282610af9565b67ffffffffffffffff811115610f6b57610f6a610c09565b5b610f758254610b98565b610f80828285610ef6565b5f60209050601f831160018114610fb1575f8415610f9f578287015190505b610fa98582610dcc565b865550611010565b601f198416610fbf86610ee4565b5f5b82811015610fe657848901518255600182019150602085019450602081019050610fc1565b868310156110035784890151610fff601f891682610db0565b8355505b6001600288020188555050505b505050505050565b7f4e487b71000000000000000000000000000000000000000000000000000000005f52601160045260245ffd5b5f61104f82610ac8565b91507fffffffffffffffffffffffffffffffffffffffffffffffffffffffffffffffff820361108157611080611018565b5b600182019050919050565b5f61109682610909565b6110a08185610bc8565b93506110b0818560208601610923565b80840191505092915050565b5f6110c7828461108c565b915081905092915050565b5f8160e01c9050919050565b5f60033d11156110fa5760045f5f3e6110f75f516110d2565b90505b90565b61110682610931565b810181811067ffffffffffffffff8211171561112557611124610c09565b5b80604052505050565b5f60443d106111ba5761113f610999565b60043d036004823e80513d602482011167ffffffffffffffff821117156111675750506111ba565b808201805167ffffffffffffffff81111561118557505050506111ba565b80602083010160043d0385018111156111a25750505050506111ba565b6111b1826020018501866110fd565b82955050505050505b90565b7f556e6b6e6f776e206572726f72000000000000000000000000000000000000005f82015250565b5f6111f1600d83610b03565b91506111fc826111bd565b602082019050919050565b5f6020820190508181035f83015261121e816111e5565b9050919050565b7f43616c6c207375636365656465640000000000000000000000000000000000005f82015250565b5f611259600e83610b03565b915061126482611225565b602082019050919050565b5f6020820190508181035f8301526112868161124d565b9050919050565b5f5ffd5b5f5ffd5b5f61129e610999565b90506112aa82826110fd565b919050565b5f67ffffffffffffffff8211156112c9576112c8610c09565b5b6112d282610931565b9050602081019050919050565b5f6112f16112ec846112af565b611295565b90508281526020810184848401111561130d5761130c611291565b5b611318848285610923565b509392505050565b5f82601f8301126113345761133361128d565b5b81516113448482602086016112df565b91505092915050565b5f60208284031215611362576113616109a2565b5b5f82015167ffffffffffffffff81111561137f5761137e6109a6565b5b61138b84828501611320565b9150509291505056fea2646970667358221220387c7b8771f4c511b49bd7a99d14485783c41e1d26fbef241c4385e41d9be38b64736f6c63430008220033",
			"opcodes": "PUSH1 0x80 PUSH1 0x40 MSTORE CALLVALUE DUP1 ISZERO PUSH1 0xE JUMPI PUSH0 PUSH0 REVERT JUMPDEST POP PUSH2 0x13CA DUP1 PUSH2 0x1C PUSH0 CODECOPY PUSH0 RETURN INVALID PUSH1 0x80 PUSH1 0x40 MSTORE PUSH1 0x4 CALLDATASIZE LT PUSH2 0x79 JUMPI PUSH0 CALLDATALOAD PUSH1 0xE0 SHR DUP1 PUSH4 0x98971DBF GT PUSH2 0x4D JUMPI DUP1 PUSH4 0x98971DBF EQ PUSH2 0x115 JUMPI DUP1 PUSH4 0xC816F038 EQ PUSH2 0x13D JUMPI DUP1 PUSH4 0xE88CC9A3 EQ PUSH2 0x165 JUMPI DUP1 PUSH4 0xEEC19274 EQ PUSH2 0x18F JUMPI PUSH2 0x79 JUMP JUMPDEST DUP1 PUSH3 0x6E75EC EQ PUSH2 0x7D JUMPI DUP1 PUSH4 0x21B1E5F8 EQ PUSH2 0xA7 JUMPI DUP1 PUSH4 0x9415BC59 EQ PUSH2 0xC3 JUMPI DUP1 PUSH4 0x987FB8A2 EQ PUSH2 0xED JUMPI JUMPDEST PUSH0 PUSH0 REVERT JUMPDEST CALLVALUE DUP1 ISZERO PUSH2 0x88 JUMPI PUSH0 PUSH0 REVERT JUMPDEST POP PUSH2 0x91 PUSH2 0x1B9 JUMP JUMPDEST PUSH1 0x40 MLOAD PUSH2 0x9E SWAP2 SWAP1 PUSH2 0x979 JUMP JUMPDEST PUSH1 0x40 MLOAD DUP1 SWAP2 SUB SWAP1 RETURN JUMPDEST PUSH2 0xC1 PUSH1 0x4 DUP1 CALLDATASIZE SUB DUP2 ADD SWAP1 PUSH2 0xBC SWAP2 SWAP1 PUSH2 0xA04 JUMP JUMPDEST PUSH2 0x245 JUMP JUMPDEST STOP JUMPDEST CALLVALUE DUP1 ISZERO PUSH2 0xCE JUMPI PUSH0 PUSH0 REVERT JUMPDEST POP PUSH2 0xD7 PUSH2 0x36F JUMP JUMPDEST PUSH1 0x40 MLOAD PUSH2 0xE4 SWAP2 SWAP1 PUSH2 0xA49 JUMP JUMPDEST PUSH1 0x40 MLOAD DUP1 SWAP2 SUB SWAP1 RETURN JUMPDEST CALLVALUE DUP1 ISZERO PUSH2 0xF8 JUMPI PUSH0 PUSH0 REVERT JUMPDEST POP PUSH2 0x113 PUSH1 0x4 DUP1 CALLDATASIZE SUB DUP2 ADD SWAP1 PUSH2 0x10E SWAP2 SWAP1 PUSH2 0xA9D JUMP JUMPDEST PUSH2 0x380 JUMP JUMPDEST STOP JUMPDEST CALLVALUE DUP1 ISZERO PUSH2 0x120 JUMPI PUSH0 PUSH0 REVERT JUMPDEST POP PUSH2 0x13B PUSH1 0x4 DUP1 CALLDATASIZE SUB DUP2 ADD SWAP1 PUSH2 0x136 SWAP2 SWAP1 PUSH2 0xA9D JUMP JUMPDEST PUSH2 0x4E9 JUMP JUMPDEST STOP JUMPDEST CALLVALUE DUP1 ISZERO PUSH2 0x148 JUMPI PUSH0 PUSH0 REVERT JUMPDEST POP PUSH2 0x163 PUSH1 0x4 DUP1 CALLDATASIZE SUB DUP2 ADD SWAP1 PUSH2 0x15E SWAP2 SWAP1 PUSH2 0xA9D JUMP JUMPDEST PUSH2 0x6AC JUMP JUMPDEST STOP JUMPDEST CALLVALUE DUP1 ISZERO PUSH2 0x170 JUMPI PUSH0 PUSH0 REVERT JUMPDEST POP PUSH2 0x179 PUSH2 0x80C JUMP JUMPDEST PUSH1 0x40 MLOAD PUSH2 0x186 SWAP2 SWAP1 PUSH2 0xAE0 JUMP JUMPDEST PUSH1 0x40 MLOAD DUP1 SWAP2 SUB SWAP1 RETURN JUMPDEST CALLVALUE DUP1 ISZERO PUSH2 0x19A JUMPI PUSH0 PUSH0 REVERT JUMPDEST POP PUSH2 0x1A3 PUSH2 0x812 JUMP JUMPDEST PUSH1 0x40 MLOAD PUSH2 0x1B0 SWAP2 SWAP1 PUSH2 0xB4B JUMP JUMPDEST PUSH1 0x40 MLOAD DUP1 SWAP2 SUB SWAP1 RETURN JUMPDEST PUSH1 0x1 DUP1 SLOAD PUSH2 0x1C6 SWAP1 PUSH2 0xB98 JUMP JUMPDEST DUP1 PUSH1 0x1F ADD PUSH1 0x20 DUP1 SWAP2 DIV MUL PUSH1 0x20 ADD PUSH1 0x40 MLOAD SWAP1 DUP2 ADD PUSH1 0x40 MSTORE DUP1 SWAP3 SWAP2 SWAP1 DUP2 DUP2 MSTORE PUSH1 0x20 ADD DUP3 DUP1 SLOAD PUSH2 0x1F2 SWAP1 PUSH2 0xB98 JUMP JUMPDEST DUP1 ISZERO PUSH2 0x23D JUMPI DUP1 PUSH1 0x1F LT PUSH2 0x214 JUMPI PUSH2 0x100 DUP1 DUP4 SLOAD DIV MUL DUP4 MSTORE SWAP2 PUSH1 0x20 ADD SWAP2 PUSH2 0x23D JUMP JUMPDEST DUP3 ADD SWAP2 SWAP1 PUSH0 MSTORE PUSH1 0x20 PUSH0 KECCAK256 SWAP1 JUMPDEST DUP2 SLOAD DUP2 MSTORE SWAP1 PUSH1 0x1 ADD SWAP1 PUSH1 0x20 ADD DUP1 DUP4 GT PUSH2 0x220 JUMPI DUP3 SWAP1 SUB PUSH1 0x1F AND DUP3 ADD SWAP2 JUMPDEST POP POP POP POP POP DUP2 JUMP JUMPDEST PUSH0 PUSH0 DUP3 PUSH20 0xFFFFFFFFFFFFFFFFFFFFFFFFFFFFFFFFFFFFFFFF AND CALLVALUE PUSH1 0x40 MLOAD PUSH2 0x26B SWAP1 PUSH2 0xBF5 JUMP JUMPDEST PUSH0 PUSH1 0x40 MLOAD DUP1 DUP4 SUB DUP2 DUP6 DUP8 GAS CALL SWAP3 POP POP POP RETURNDATASIZE DUP1 PUSH0 DUP2 EQ PUSH2 0x2A5 JUMPI PUSH1 0x40 MLOAD SWAP2 POP PUSH1 0x1F NOT PUSH1 0x3F RETURNDATASIZE ADD AND DUP3 ADD PUSH1 0x40 MSTORE RETURNDATASIZE DUP3 MSTORE RETURNDATASIZE PUSH0 PUSH1 0x20 DUP5 ADD RETURNDATACOPY PUSH2 0x2AA JUMP JUMPDEST PUSH1 0x60 SWAP2 POP JUMPDEST POP SWAP2 POP SWAP2 POP DUP2 PUSH0 PUSH0 PUSH2 0x100 EXP DUP2 SLOAD DUP2 PUSH1 0xFF MUL NOT AND SWAP1 DUP4 ISZERO ISZERO MUL OR SWAP1 SSTORE POP DUP1 PUSH1 0x1 SWAP1 DUP2 PUSH2 0x2D6 SWAP2 SWAP1 PUSH2 0xDE7 JUMP JUMPDEST POP PUSH32 0x582326E533AF48B16567B0565A82550442E225CF8491CB9AE2A29E1F96935E7C DUP3 DUP3 PUSH1 0x40 MLOAD PUSH2 0x308 SWAP3 SWAP2 SWAP1 PUSH2 0xEB6 JUMP JUMPDEST PUSH1 0x40 MLOAD DUP1 SWAP2 SUB SWAP1 LOG1 DUP2 PUSH2 0x36A JUMPI PUSH0 PUSH2 0x31F DUP3 PUSH2 0x89E JUMP JUMPDEST SWAP1 POP DUP1 PUSH1 0x2 SWAP1 DUP2 PUSH2 0x330 SWAP2 SWAP1 PUSH2 0xF49 JUMP JUMPDEST POP PUSH32 0xD74425D2C4A95B1F08686289CED4D572A8CD1BE1531394E53102CE98B1761DF4 DUP2 PUSH1 0x40 MLOAD PUSH2 0x360 SWAP2 SWAP1 PUSH2 0xB4B JUMP JUMPDEST PUSH1 0x40 MLOAD DUP1 SWAP2 SUB SWAP1 LOG1 POP JUMPDEST POP POP POP JUMP JUMPDEST PUSH0 PUSH0 SWAP1 SLOAD SWAP1 PUSH2 0x100 EXP SWAP1 DIV PUSH1 0xFF AND DUP2 JUMP JUMPDEST PUSH1 0x3 PUSH0 DUP2 SLOAD DUP1 SWAP3 SWAP2 SWAP1 PUSH2 0x392 SWAP1 PUSH2 0x1045 JUMP JUMPDEST SWAP2 SWAP1 POP SSTORE POP PUSH0 PUSH0 DUP3 PUSH20 0xFFFFFFFFFFFFFFFFFFFFFFFFFFFFFFFFFFFFFFFF AND PUSH1 0x40 MLOAD PUSH1 0x24 ADD PUSH1 0x40 MLOAD PUSH1 0x20 DUP2 DUP4 SUB SUB DUP2 MSTORE SWAP1 PUSH1 0x40 MSTORE PUSH32 0xD67E4B8400000000000000000000000000000000000000000000000000000000 PUSH28 0xFFFFFFFFFFFFFFFFFFFFFFFFFFFFFFFFFFFFFFFFFFFFFFFFFFFFFFFF NOT AND PUSH1 0x20 DUP3 ADD DUP1 MLOAD PUSH28 0xFFFFFFFFFFFFFFFFFFFFFFFFFFFFFFFFFFFFFFFFFFFFFFFFFFFFFFFF DUP4 DUP2 DUP4 AND OR DUP4 MSTORE POP POP POP POP PUSH1 0x40 MLOAD PUSH2 0x440 SWAP2 SWAP1 PUSH2 0x10BC JUMP JUMPDEST PUSH0 PUSH1 0x40 MLOAD DUP1 DUP4 SUB DUP2 PUSH0 DUP7 GAS CALL SWAP2 POP POP RETURNDATASIZE DUP1 PUSH0 DUP2 EQ PUSH2 0x479 JUMPI PUSH1 0x40 MLOAD SWAP2 POP PUSH1 0x1F NOT PUSH1 0x3F RETURNDATASIZE ADD AND DUP3 ADD PUSH1 0x40 MSTORE RETURNDATASIZE DUP3 MSTORE RETURNDATASIZE PUSH0 PUSH1 0x20 DUP5 ADD RETURNDATACOPY PUSH2 0x47E JUMP JUMPDEST PUSH1 0x60 SWAP2 POP JUMPDEST POP SWAP2 POP SWAP2 POP DUP2 PUSH0 PUSH0 PUSH2 0x100 EXP DUP2 SLOAD DUP2 PUSH1 0xFF MUL NOT AND SWAP1 DUP4 ISZERO ISZERO MUL OR SWAP1 SSTORE POP DUP1 PUSH1 0x1 SWAP1 DUP2 PUSH2 0x4AA SWAP2 SWAP1 PUSH2 0xDE7 JUMP JUMPDEST POP PUSH32 0x582326E533AF48B16567B0565A82550442E225CF8491CB9AE2A29E1F96935E7C DUP3 DUP3 PUSH1 0x40 MLOAD PUSH2 0x4DC SWAP3 SWAP2 SWAP1 PUSH2 0xEB6 JUMP JUMPDEST PUSH1 0x40 MLOAD DUP1 SWAP2 SUB SWAP1 LOG1 POP POP POP JUMP JUMPDEST PUSH1 0x3 PUSH0 DUP2 SLOAD DUP1 SWAP3 SWAP2 SWAP1 PUSH2 0x4FB SWAP1 PUSH2 0x1045 JUMP JUMPDEST SWAP2 SWAP1 POP SSTORE POP PUSH0 PUSH0 DUP3 PUSH20 0xFFFFFFFFFFFFFFFFFFFFFFFFFFFFFFFFFFFFFFFF AND PUSH1 0x40 MLOAD PUSH1 0x24 ADD PUSH1 0x40 MLOAD PUSH1 0x20 DUP2 DUP4 SUB SUB DUP2 MSTORE SWAP1 PUSH1 0x40 MSTORE PUSH32 0x1A35285100000000000000000000000000000000000000000000000000000000 PUSH28 0xFFFFFFFFFFFFFFFFFFFFFFFFFFFFFFFFFFFFFFFFFFFFFFFFFFFFFFFF NOT AND PUSH1 0x20 DUP3 ADD DUP1 MLOAD PUSH28 0xFFFFFFFFFFFFFFFFFFFFFFFFFFFFFFFFFFFFFFFFFFFFFFFFFFFFFFFF DUP4 DUP2 DUP4 AND OR DUP4 MSTORE POP POP POP POP PUSH1 0x40 MLOAD PUSH2 0x5A9 SWAP2 SWAP1 PUSH2 0x10BC JUMP JUMPDEST PUSH0 PUSH1 0x40 MLOAD DUP1 DUP4 SUB DUP2 PUSH0 DUP7 GAS CALL SWAP2 POP POP RETURNDATASIZE DUP1 PUSH0 DUP2 EQ PUSH2 0x5E2 JUMPI PUSH1 0x40 MLOAD SWAP2 POP PUSH1 0x1F NOT PUSH1 0x3F RETURNDATASIZE ADD AND DUP3 ADD PUSH1 0x40 MSTORE RETURNDATASIZE DUP3 MSTORE RETURNDATASIZE PUSH0 PUSH1 0x20 DUP5 ADD RETURNDATACOPY PUSH2 0x5E7 JUMP JUMPDEST PUSH1 0x60 SWAP2 POP JUMPDEST POP SWAP2 POP SWAP2 POP DUP2 PUSH0 PUSH0 PUSH2 0x100 EXP DUP2 SLOAD DUP2 PUSH1 0xFF MUL NOT AND SWAP1 DUP4 ISZERO ISZERO MUL OR SWAP1 SSTORE POP DUP1 PUSH1 0x1 SWAP1 DUP2 PUSH2 0x613 SWAP2 SWAP1 PUSH2 0xDE7 JUMP JUMPDEST POP PUSH32 0x582326E533AF48B16567B0565A82550442E225CF8491CB9AE2A29E1F96935E7C DUP3 DUP3 PUSH1 0x40 MLOAD PUSH2 0x645 SWAP3 SWAP2 SWAP1 PUSH2 0xEB6 JUMP JUMPDEST PUSH1 0x40 MLOAD DUP1 SWAP2 SUB SWAP1 LOG1 DUP2 PUSH2 0x6A7 JUMPI PUSH0 PUSH2 0x65C DUP3 PUSH2 0x89E JUMP JUMPDEST SWAP1 POP DUP1 PUSH1 0x2 SWAP1 DUP2 PUSH2 0x66D SWAP2 SWAP1 PUSH2 0xF49 JUMP JUMPDEST POP PUSH32 0xD74425D2C4A95B1F08686289CED4D572A8CD1BE1531394E53102CE98B1761DF4 DUP2 PUSH1 0x40 MLOAD PUSH2 0x69D SWAP2 SWAP1 PUSH2 0xB4B JUMP JUMPDEST PUSH1 0x40 MLOAD DUP1 SWAP2 SUB SWAP1 LOG1 POP JUMPDEST POP POP POP JUMP JUMPDEST PUSH1 0x3 PUSH0 DUP2 SLOAD DUP1 SWAP3 SWAP2 SWAP1 PUSH2 0x6BE SWAP1 PUSH2 0x1045 JUMP JUMPDEST SWAP2 SWAP1 POP SSTORE POP PUSH0 DUP2 SWAP1 POP DUP1 PUSH20 0xFFFFFFFFFFFFFFFFFFFFFFFFFFFFFFFFFFFFFFFF AND PUSH4 0x1A352851 PUSH1 0x40 MLOAD DUP2 PUSH4 0xFFFFFFFF AND PUSH1 0xE0 SHL DUP2 MSTORE PUSH1 0x4 ADD PUSH0 PUSH1 0x40 MLOAD DUP1 DUP4 SUB DUP2 PUSH0 DUP8 DUP1 EXTCODESIZE ISZERO DUP1 ISZERO PUSH2 0x70C JUMPI PUSH0 PUSH0 REVERT JUMPDEST POP GAS CALL SWAP3 POP POP POP DUP1 ISZERO PUSH2 0x71D JUMPI POP PUSH1 0x1 JUMPDEST PUSH2 0x7D2 JUMPI PUSH2 0x729 PUSH2 0x10DE JUMP JUMPDEST DUP1 PUSH4 0x8C379A0 SUB PUSH2 0x795 JUMPI POP PUSH2 0x73D PUSH2 0x112E JUMP JUMPDEST DUP1 PUSH2 0x748 JUMPI POP PUSH2 0x797 JUMP JUMPDEST DUP1 PUSH1 0x2 SWAP1 DUP2 PUSH2 0x757 SWAP2 SWAP1 PUSH2 0xF49 JUMP JUMPDEST POP PUSH32 0x2170A899EB3DF99DE3D6973D7F04A8981D877B84CA2055234D696AE04A5547F3 DUP2 PUSH1 0x40 MLOAD PUSH2 0x787 SWAP2 SWAP1 PUSH2 0xB4B JUMP JUMPDEST PUSH1 0x40 MLOAD DUP1 SWAP2 SUB SWAP1 LOG1 POP PUSH2 0x7CD JUMP JUMPDEST POP JUMPDEST PUSH32 0x2170A899EB3DF99DE3D6973D7F04A8981D877B84CA2055234D696AE04A5547F3 PUSH1 0x40 MLOAD PUSH2 0x7C4 SWAP1 PUSH2 0x1207 JUMP JUMPDEST PUSH1 0x40 MLOAD DUP1 SWAP2 SUB SWAP1 LOG1 JUMPDEST PUSH2 0x808 JUMP JUMPDEST PUSH32 0x907064B0143A723EBD8288B576F516A5FE1E8FF61101035F8D305A383CF11854 PUSH1 0x40 MLOAD PUSH2 0x7FF SWAP1 PUSH2 0x126F JUMP JUMPDEST PUSH1 0x40 MLOAD DUP1 SWAP2 SUB SWAP1 LOG1 JUMPDEST POP POP JUMP JUMPDEST PUSH1 0x3 SLOAD DUP2 JUMP JUMPDEST PUSH1 0x2 DUP1 SLOAD PUSH2 0x81F SWAP1 PUSH2 0xB98 JUMP JUMPDEST DUP1 PUSH1 0x1F ADD PUSH1 0x20 DUP1 SWAP2 DIV MUL PUSH1 0x20 ADD PUSH1 0x40 MLOAD SWAP1 DUP2 ADD PUSH1 0x40 MSTORE DUP1 SWAP3 SWAP2 SWAP1 DUP2 DUP2 MSTORE PUSH1 0x20 ADD DUP3 DUP1 SLOAD PUSH2 0x84B SWAP1 PUSH2 0xB98 JUMP JUMPDEST DUP1 ISZERO PUSH2 0x896 JUMPI DUP1 PUSH1 0x1F LT PUSH2 0x86D JUMPI PUSH2 0x100 DUP1 DUP4 SLOAD DIV MUL DUP4 MSTORE SWAP2 PUSH1 0x20 ADD SWAP2 PUSH2 0x896 JUMP JUMPDEST DUP3 ADD SWAP2 SWAP1 PUSH0 MSTORE PUSH1 0x20 PUSH0 KECCAK256 SWAP1 JUMPDEST DUP2 SLOAD DUP2 MSTORE SWAP1 PUSH1 0x1 ADD SWAP1 PUSH1 0x20 ADD DUP1 DUP4 GT PUSH2 0x879 JUMPI DUP3 SWAP1 SUB PUSH1 0x1F AND DUP3 ADD SWAP2 JUMPDEST POP POP POP POP POP DUP2 JUMP JUMPDEST PUSH1 0x60 PUSH1 0x44 DUP3 MLOAD LT ISZERO PUSH2 0x8E7 JUMPI PUSH1 0x40 MLOAD DUP1 PUSH1 0x40 ADD PUSH1 0x40 MSTORE DUP1 PUSH1 0xE DUP2 MSTORE PUSH1 0x20 ADD PUSH32 0x556E6B6E6F776E20726576657274000000000000000000000000000000000000 DUP2 MSTORE POP SWAP1 POP PUSH2 0x904 JUMP JUMPDEST PUSH1 0x4 DUP3 ADD SWAP2 POP DUP2 DUP1 PUSH1 0x20 ADD SWAP1 MLOAD DUP2 ADD SWAP1 PUSH2 0x901 SWAP2 SWAP1 PUSH2 0x134D JUMP JUMPDEST SWAP1 POP JUMPDEST SWAP2 SWAP1 POP JUMP JUMPDEST PUSH0 DUP2 MLOAD SWAP1 POP SWAP2 SWAP1 POP JUMP JUMPDEST PUSH0 DUP3 DUP3 MSTORE PUSH1 0x20 DUP3 ADD SWAP1 POP SWAP3 SWAP2 POP POP JUMP JUMPDEST DUP3 DUP2 DUP4 MCOPY PUSH0 DUP4 DUP4 ADD MSTORE POP POP POP JUMP JUMPDEST PUSH0 PUSH1 0x1F NOT PUSH1 0x1F DUP4 ADD AND SWAP1 POP SWAP2 SWAP1 POP JUMP JUMPDEST PUSH0 PUSH2 0x94B DUP3 PUSH2 0x909 JUMP JUMPDEST PUSH2 0x955 DUP2 DUP6 PUSH2 0x913 JUMP JUMPDEST SWAP4 POP PUSH2 0x965 DUP2 DUP6 PUSH1 0x20 DUP7 ADD PUSH2 0x923 JUMP JUMPDEST PUSH2 0x96E DUP2 PUSH2 0x931 JUMP JUMPDEST DUP5 ADD SWAP2 POP POP SWAP3 SWAP2 POP POP JUMP JUMPDEST PUSH0 PUSH1 0x20 DUP3 ADD SWAP1 POP DUP2 DUP2 SUB PUSH0 DUP4 ADD MSTORE PUSH2 0x991 DUP2 DUP5 PUSH2 0x941 JUMP JUMPDEST SWAP1 POP SWAP3 SWAP2 POP POP JUMP JUMPDEST PUSH0 PUSH1 0x40 MLOAD SWAP1 POP SWAP1 JUMP JUMPDEST PUSH0 PUSH0 REVERT JUMPDEST PUSH0 PUSH0 REVERT JUMPDEST PUSH0 PUSH20 0xFFFFFFFFFFFFFFFFFFFFFFFFFFFFFFFFFFFFFFFF DUP3 AND SWAP1 POP SWAP2 SWAP1 POP JUMP JUMPDEST PUSH0 PUSH2 0x9D3 DUP3 PUSH2 0x9AA JUMP JUMPDEST SWAP1 POP SWAP2 SWAP1 POP JUMP JUMPDEST PUSH2 0x9E3 DUP2 PUSH2 0x9C9 JUMP JUMPDEST DUP2 EQ PUSH2 0x9ED JUMPI PUSH0 PUSH0 REVERT JUMPDEST POP JUMP JUMPDEST PUSH0 DUP2 CALLDATALOAD SWAP1 POP PUSH2 0x9FE DUP2 PUSH2 0x9DA JUMP JUMPDEST SWAP3 SWAP2 POP POP JUMP JUMPDEST PUSH0 PUSH1 0x20 DUP3 DUP5 SUB SLT ISZERO PUSH2 0xA19 JUMPI PUSH2 0xA18 PUSH2 0x9A2 JUMP JUMPDEST JUMPDEST PUSH0 PUSH2 0xA26 DUP5 DUP3 DUP6 ADD PUSH2 0x9F0 JUMP JUMPDEST SWAP2 POP POP SWAP3 SWAP2 POP POP JUMP JUMPDEST PUSH0 DUP2 ISZERO ISZERO SWAP1 POP SWAP2 SWAP1 POP JUMP JUMPDEST PUSH2 0xA43 DUP2 PUSH2 0xA2F JUMP JUMPDEST DUP3 MSTORE POP POP JUMP JUMPDEST PUSH0 PUSH1 0x20 DUP3 ADD SWAP1 POP PUSH2 0xA5C PUSH0 DUP4 ADD DUP5 PUSH2 0xA3A JUMP JUMPDEST SWAP3 SWAP2 POP POP JUMP JUMPDEST PUSH0 PUSH2 0xA6C DUP3 PUSH2 0x9AA JUMP JUMPDEST SWAP1 POP SWAP2 SWAP1 POP JUMP JUMPDEST PUSH2 0xA7C DUP2 PUSH2 0xA62 JUMP JUMPDEST DUP2 EQ PUSH2 0xA86 JUMPI PUSH0 PUSH0 REVERT JUMPDEST POP JUMP JUMPDEST PUSH0 DUP2 CALLDATALOAD SWAP1 POP PUSH2 0xA97 DUP2 PUSH2 0xA73 JUMP JUMPDEST SWAP3 SWAP2 POP POP JUMP JUMPDEST PUSH0 PUSH1 0x20 DUP3 DUP5 SUB SLT ISZERO PUSH2 0xAB2 JUMPI PUSH2 0xAB1 PUSH2 0x9A2 JUMP JUMPDEST JUMPDEST PUSH0 PUSH2 0xABF DUP5 DUP3 DUP6 ADD PUSH2 0xA89 JUMP JUMPDEST SWAP2 POP POP SWAP3 SWAP2 POP POP JUMP JUMPDEST PUSH0 DUP2 SWAP1 POP SWAP2 SWAP1 POP JUMP JUMPDEST PUSH2 0xADA DUP2 PUSH2 0xAC8 JUMP JUMPDEST DUP3 MSTORE POP POP JUMP JUMPDEST PUSH0 PUSH1 0x20 DUP3 ADD SWAP1 POP PUSH2 0xAF3 PUSH0 DUP4 ADD DUP5 PUSH2 0xAD1 JUMP JUMPDEST SWAP3 SWAP2 POP POP JUMP JUMPDEST PUSH0 DUP2 MLOAD SWAP1 POP SWAP2 SWAP1 POP JUMP JUMPDEST PUSH0 DUP3 DUP3 MSTORE PUSH1 0x20 DUP3 ADD SWAP1 POP SWAP3 SWAP2 POP POP JUMP JUMPDEST PUSH0 PUSH2 0xB1D DUP3 PUSH2 0xAF9 JUMP JUMPDEST PUSH2 0xB27 DUP2 DUP6 PUSH2 0xB03 JUMP JUMPDEST SWAP4 POP PUSH2 0xB37 DUP2 DUP6 PUSH1 0x20 DUP7 ADD PUSH2 0x923 JUMP JUMPDEST PUSH2 0xB40 DUP2 PUSH2 0x931 JUMP JUMPDEST DUP5 ADD SWAP2 POP POP SWAP3 SWAP2 POP POP JUMP JUMPDEST PUSH0 PUSH1 0x20 DUP3 ADD SWAP1 POP DUP2 DUP2 SUB PUSH0 DUP4 ADD MSTORE PUSH2 0xB63 DUP2 DUP5 PUSH2 0xB13 JUMP JUMPDEST SWAP1 POP SWAP3 SWAP2 POP POP JUMP JUMPDEST PUSH32 0x4E487B7100000000000000000000000000000000000000000000000000000000 PUSH0 MSTORE PUSH1 0x22 PUSH1 0x4 MSTORE PUSH1 0x24 PUSH0 REVERT JUMPDEST PUSH0 PUSH1 0x2 DUP3 DIV SWAP1 POP PUSH1 0x1 DUP3 AND DUP1 PUSH2 0xBAF JUMPI PUSH1 0x7F DUP3 AND SWAP2 POP JUMPDEST PUSH1 0x20 DUP3 LT DUP2 SUB PUSH2 0xBC2 JUMPI PUSH2 0xBC1 PUSH2 0xB6B JUMP JUMPDEST JUMPDEST POP SWAP2 SWAP1 POP JUMP JUMPDEST PUSH0 DUP2 SWAP1 POP SWAP3 SWAP2 POP POP JUMP JUMPDEST POP JUMP JUMPDEST PUSH0 PUSH2 0xBE0 PUSH0 DUP4 PUSH2 0xBC8 JUMP JUMPDEST SWAP2 POP PUSH2 0xBEB DUP3 PUSH2 0xBD2 JUMP JUMPDEST PUSH0 DUP3 ADD SWAP1 POP SWAP2 SWAP1 POP JUMP JUMPDEST PUSH0 PUSH2 0xBFF DUP3 PUSH2 0xBD5 JUMP JUMPDEST SWAP2 POP DUP2 SWAP1 POP SWAP2 SWAP1 POP JUMP JUMPDEST PUSH32 0x4E487B7100000000000000000000000000000000000000000000000000000000 PUSH0 MSTORE PUSH1 0x41 PUSH1 0x4 MSTORE PUSH1 0x24 PUSH0 REVERT JUMPDEST PUSH0 DUP2 SWAP1 POP DUP2 PUSH0 MSTORE PUSH1 0x20 PUSH0 KECCAK256 SWAP1 POP SWAP2 SWAP1 POP JUMP JUMPDEST PUSH0 PUSH1 0x20 PUSH1 0x1F DUP4 ADD DIV SWAP1 POP SWAP2 SWAP1 POP JUMP JUMPDEST PUSH0 DUP3 DUP3 SHL SWAP1 POP SWAP3 SWAP2 POP POP JUMP JUMPDEST PUSH0 PUSH1 0x8 DUP4 MUL PUSH2 0xC92 PUSH32 0xFFFFFFFFFFFFFFFFFFFFFFFFFFFFFFFFFFFFFFFFFFFFFFFFFFFFFFFFFFFFFFFF DUP3 PUSH2 0xC57 JUMP JUMPDEST PUSH2 0xC9C DUP7 DUP4 PUSH2 0xC57 JUMP JUMPDEST SWAP6 POP DUP1 NOT DUP5 AND SWAP4 POP DUP1 DUP7 AND DUP5 OR SWAP3 POP POP POP SWAP4 SWAP3 POP POP POP JUMP JUMPDEST PUSH0 DUP2 SWAP1 POP SWAP2 SWAP1 POP JUMP JUMPDEST PUSH0 PUSH2 0xCD7 PUSH2 0xCD2 PUSH2 0xCCD DUP5 PUSH2 0xAC8 JUMP JUMPDEST PUSH2 0xCB4 JUMP JUMPDEST PUSH2 0xAC8 JUMP JUMPDEST SWAP1 POP SWAP2 SWAP1 POP JUMP JUMPDEST PUSH0 DUP2 SWAP1 POP SWAP2 SWAP1 POP JUMP JUMPDEST PUSH2 0xCF0 DUP4 PUSH2 0xCBD JUMP JUMPDEST PUSH2 0xD04 PUSH2 0xCFC DUP3 PUSH2 0xCDE JUMP JUMPDEST DUP5 DUP5 SLOAD PUSH2 0xC63 JUMP JUMPDEST DUP3 SSTORE POP POP POP POP JUMP JUMPDEST PUSH0 PUSH0 SWAP1 POP SWAP1 JUMP JUMPDEST PUSH2 0xD1B PUSH2 0xD0C JUMP JUMPDEST PUSH2 0xD26 DUP2 DUP5 DUP5 PUSH2 0xCE7 JUMP JUMPDEST POP POP POP JUMP JUMPDEST PUSH0 JUMPDEST DUP3 DUP2 LT ISZERO PUSH2 0xD4C JUMPI PUSH2 0xD41 PUSH0 DUP3 DUP5 ADD PUSH2 0xD13 JUMP JUMPDEST PUSH1 0x1 DUP2 ADD SWAP1 POP PUSH2 0xD2D JUMP JUMPDEST POP POP POP JUMP JUMPDEST PUSH1 0x1F DUP3 GT ISZERO PUSH2 0xD9F JUMPI DUP3 DUP3 GT ISZERO PUSH2 0xD9E JUMPI PUSH2 0xD6B DUP2 PUSH2 0xC36 JUMP JUMPDEST PUSH2 0xD74 DUP4 PUSH2 0xC48 JUMP JUMPDEST PUSH2 0xD7D DUP6 PUSH2 0xC48 JUMP JUMPDEST PUSH1 0x20 DUP7 LT ISZERO PUSH2 0xD8A JUMPI PUSH0 SWAP1 POP JUMPDEST DUP1 DUP4 ADD PUSH2 0xD99 DUP3 DUP5 SUB DUP3 PUSH2 0xD2B JUMP JUMPDEST POP POP POP POP JUMPDEST JUMPDEST POP POP POP JUMP JUMPDEST PUSH0 DUP3 DUP3 SHR SWAP1 POP SWAP3 SWAP2 POP POP JUMP JUMPDEST PUSH0 PUSH2 0xDBF PUSH0 NOT DUP5 PUSH1 0x8 MUL PUSH2 0xDA4 JUMP JUMPDEST NOT DUP1 DUP4 AND SWAP2 POP POP SWAP3 SWAP2 POP POP JUMP JUMPDEST PUSH0 PUSH2 0xDD7 DUP4 DUP4 PUSH2 0xDB0 JUMP JUMPDEST SWAP2 POP DUP3 PUSH1 0x2 MUL DUP3 OR SWAP1 POP SWAP3 SWAP2 POP POP JUMP JUMPDEST PUSH2 0xDF0 DUP3 PUSH2 0x909 JUMP JUMPDEST PUSH8 0xFFFFFFFFFFFFFFFF DUP2 GT ISZERO PUSH2 0xE09 JUMPI PUSH2 0xE08 PUSH2 0xC09 JUMP JUMPDEST JUMPDEST PUSH2 0xE13 DUP3 SLOAD PUSH2 0xB98 JUMP JUMPDEST PUSH2 0xE1E DUP3 DUP3 DUP6 PUSH2 0xD51 JUMP JUMPDEST PUSH0 PUSH1 0x20 SWAP1 POP PUSH1 0x1F DUP4 GT PUSH1 0x1 DUP2 EQ PUSH2 0xE4F JUMPI PUSH0 DUP5 ISZERO PUSH2 0xE3D JUMPI DUP3 DUP8 ADD MLOAD SWAP1 POP JUMPDEST PUSH2 0xE47 DUP6 DUP3 PUSH2 0xDCC JUMP JUMPDEST DUP7 SSTORE POP PUSH2 0xEAE JUMP JUMPDEST PUSH1 0x1F NOT DUP5 AND PUSH2 0xE5D DUP7 PUSH2 0xC36 JUMP JUMPDEST PUSH0 JUMPDEST DUP3 DUP2 LT ISZERO PUSH2 0xE84 JUMPI DUP5 DUP10 ADD MLOAD DUP3 SSTORE PUSH1 0x1 DUP3 ADD SWAP2 POP PUSH1 0x20 DUP6 ADD SWAP5 POP PUSH1 0x20 DUP2 ADD SWAP1 POP PUSH2 0xE5F JUMP JUMPDEST DUP7 DUP4 LT ISZERO PUSH2 0xEA1 JUMPI DUP5 DUP10 ADD MLOAD PUSH2 0xE9D PUSH1 0x1F DUP10 AND DUP3 PUSH2 0xDB0 JUMP JUMPDEST DUP4 SSTORE POP JUMPDEST PUSH1 0x1 PUSH1 0x2 DUP9 MUL ADD DUP9 SSTORE POP POP POP JUMPDEST POP POP POP POP POP POP JUMP JUMPDEST PUSH0 PUSH1 0x40 DUP3 ADD SWAP1 POP PUSH2 0xEC9 PUSH0 DUP4 ADD DUP6 PUSH2 0xA3A JUMP JUMPDEST DUP2 DUP2 SUB PUSH1 0x20 DUP4 ADD MSTORE PUSH2 0xEDB DUP2 DUP5 PUSH2 0x941 JUMP JUMPDEST SWAP1 POP SWAP4 SWAP3 POP POP POP JUMP JUMPDEST PUSH0 DUP2 SWAP1 POP DUP2 PUSH0 MSTORE PUSH1 0x20 PUSH0 KECCAK256 SWAP1 POP SWAP2 SWAP1 POP JUMP JUMPDEST PUSH1 0x1F DUP3 GT ISZERO PUSH2 0xF44 JUMPI DUP3 DUP3 GT ISZERO PUSH2 0xF43 JUMPI PUSH2 0xF10 DUP2 PUSH2 0xEE4 JUMP JUMPDEST PUSH2 0xF19 DUP4 PUSH2 0xC48 JUMP JUMPDEST PUSH2 0xF22 DUP6 PUSH2 0xC48 JUMP JUMPDEST PUSH1 0x20 DUP7 LT ISZERO PUSH2 0xF2F JUMPI PUSH0 SWAP1 POP JUMPDEST DUP1 DUP4 ADD PUSH2 0xF3E DUP3 DUP5 SUB DUP3 PUSH2 0xD2B JUMP JUMPDEST POP POP POP POP JUMPDEST JUMPDEST POP POP POP JUMP JUMPDEST PUSH2 0xF52 DUP3 PUSH2 0xAF9 JUMP JUMPDEST PUSH8 0xFFFFFFFFFFFFFFFF DUP2 GT ISZERO PUSH2 0xF6B JUMPI PUSH2 0xF6A PUSH2 0xC09 JUMP JUMPDEST JUMPDEST PUSH2 0xF75 DUP3 SLOAD PUSH2 0xB98 JUMP JUMPDEST PUSH2 0xF80 DUP3 DUP3 DUP6 PUSH2 0xEF6 JUMP JUMPDEST PUSH0 PUSH1 0x20 SWAP1 POP PUSH1 0x1F DUP4 GT PUSH1 0x1 DUP2 EQ PUSH2 0xFB1 JUMPI PUSH0 DUP5 ISZERO PUSH2 0xF9F JUMPI DUP3 DUP8 ADD MLOAD SWAP1 POP JUMPDEST PUSH2 0xFA9 DUP6 DUP3 PUSH2 0xDCC JUMP JUMPDEST DUP7 SSTORE POP PUSH2 0x1010 JUMP JUMPDEST PUSH1 0x1F NOT DUP5 AND PUSH2 0xFBF DUP7 PUSH2 0xEE4 JUMP JUMPDEST PUSH0 JUMPDEST DUP3 DUP2 LT ISZERO PUSH2 0xFE6 JUMPI DUP5 DUP10 ADD MLOAD DUP3 SSTORE PUSH1 0x1 DUP3 ADD SWAP2 POP PUSH1 0x20 DUP6 ADD SWAP5 POP PUSH1 0x20 DUP2 ADD SWAP1 POP PUSH2 0xFC1 JUMP JUMPDEST DUP7 DUP4 LT ISZERO PUSH2 0x1003 JUMPI DUP5 DUP10 ADD MLOAD PUSH2 0xFFF PUSH1 0x1F DUP10 AND DUP3 PUSH2 0xDB0 JUMP JUMPDEST DUP4 SSTORE POP JUMPDEST PUSH1 0x1 PUSH1 0x2 DUP9 MUL ADD DUP9 SSTORE POP POP POP JUMPDEST POP POP POP POP POP POP JUMP JUMPDEST PUSH32 0x4E487B7100000000000000000000000000000000000000000000000000000000 PUSH0 MSTORE PUSH1 0x11 PUSH1 0x4 MSTORE PUSH1 0x24 PUSH0 REVERT JUMPDEST PUSH0 PUSH2 0x104F DUP3 PUSH2 0xAC8 JUMP JUMPDEST SWAP2 POP PUSH32 0xFFFFFFFFFFFFFFFFFFFFFFFFFFFFFFFFFFFFFFFFFFFFFFFFFFFFFFFFFFFFFFFF DUP3 SUB PUSH2 0x1081 JUMPI PUSH2 0x1080 PUSH2 0x1018 JUMP JUMPDEST JUMPDEST PUSH1 0x1 DUP3 ADD SWAP1 POP SWAP2 SWAP1 POP JUMP JUMPDEST PUSH0 PUSH2 0x1096 DUP3 PUSH2 0x909 JUMP JUMPDEST PUSH2 0x10A0 DUP2 DUP6 PUSH2 0xBC8 JUMP JUMPDEST SWAP4 POP PUSH2 0x10B0 DUP2 DUP6 PUSH1 0x20 DUP7 ADD PUSH2 0x923 JUMP JUMPDEST DUP1 DUP5 ADD SWAP2 POP POP SWAP3 SWAP2 POP POP JUMP JUMPDEST PUSH0 PUSH2 0x10C7 DUP3 DUP5 PUSH2 0x108C JUMP JUMPDEST SWAP2 POP DUP2 SWAP1 POP SWAP3 SWAP2 POP POP JUMP JUMPDEST PUSH0 DUP2 PUSH1 0xE0 SHR SWAP1 POP SWAP2 SWAP1 POP JUMP JUMPDEST PUSH0 PUSH1 0x3 RETURNDATASIZE GT ISZERO PUSH2 0x10FA JUMPI PUSH1 0x4 PUSH0 PUSH0 RETURNDATACOPY PUSH2 0x10F7 PUSH0 MLOAD PUSH2 0x10D2 JUMP JUMPDEST SWAP1 POP JUMPDEST SWAP1 JUMP JUMPDEST PUSH2 0x1106 DUP3 PUSH2 0x931 JUMP JUMPDEST DUP2 ADD DUP2 DUP2 LT PUSH8 0xFFFFFFFFFFFFFFFF DUP3 GT OR ISZERO PUSH2 0x1125 JUMPI PUSH2 0x1124 PUSH2 0xC09 JUMP JUMPDEST JUMPDEST DUP1 PUSH1 0x40 MSTORE POP POP POP JUMP JUMPDEST PUSH0 PUSH1 0x44 RETURNDATASIZE LT PUSH2 0x11BA JUMPI PUSH2 0x113F PUSH2 0x999 JUMP JUMPDEST PUSH1 0x4 RETURNDATASIZE SUB PUSH1 0x4 DUP3 RETURNDATACOPY DUP1 MLOAD RETURNDATASIZE PUSH1 0x24 DUP3 ADD GT PUSH8 0xFFFFFFFFFFFFFFFF DUP3 GT OR ISZERO PUSH2 0x1167 JUMPI POP POP PUSH2 0x11BA JUMP JUMPDEST DUP1 DUP3 ADD DUP1 MLOAD PUSH8 0xFFFFFFFFFFFFFFFF DUP2 GT ISZERO PUSH2 0x1185 JUMPI POP POP POP POP PUSH2 0x11BA JUMP JUMPDEST DUP1 PUSH1 0x20 DUP4 ADD ADD PUSH1 0x4 RETURNDATASIZE SUB DUP6 ADD DUP2 GT ISZERO PUSH2 0x11A2 JUMPI POP POP POP POP POP PUSH2 0x11BA JUMP JUMPDEST PUSH2 0x11B1 DUP3 PUSH1 0x20 ADD DUP6 ADD DUP7 PUSH2 0x10FD JUMP JUMPDEST DUP3 SWAP6 POP POP POP POP POP POP JUMPDEST SWAP1 JUMP JUMPDEST PUSH32 0x556E6B6E6F776E206572726F7200000000000000000000000000000000000000 PUSH0 DUP3 ADD MSTORE POP JUMP JUMPDEST PUSH0 PUSH2 0x11F1 PUSH1 0xD DUP4 PUSH2 0xB03 JUMP JUMPDEST SWAP2 POP PUSH2 0x11FC DUP3 PUSH2 0x11BD JUMP JUMPDEST PUSH1 0x20 DUP3 ADD SWAP1 POP SWAP2 SWAP1 POP JUMP JUMPDEST PUSH0 PUSH1 0x20 DUP3 ADD SWAP1 POP DUP2 DUP2 SUB PUSH0 DUP4 ADD MSTORE PUSH2 0x121E DUP2 PUSH2 0x11E5 JUMP JUMPDEST SWAP1 POP SWAP2 SWAP1 POP JUMP JUMPDEST PUSH32 0x43616C6C20737563636565646564000000000000000000000000000000000000 PUSH0 DUP3 ADD MSTORE POP JUMP JUMPDEST PUSH0 PUSH2 0x1259 PUSH1 0xE DUP4 PUSH2 0xB03 JUMP JUMPDEST SWAP2 POP PUSH2 0x1264 DUP3 PUSH2 0x1225 JUMP JUMPDEST PUSH1 0x20 DUP3 ADD SWAP1 POP SWAP2 SWAP1 POP JUMP JUMPDEST PUSH0 PUSH1 0x20 DUP3 ADD SWAP1 POP DUP2 DUP2 SUB PUSH0 DUP4 ADD MSTORE PUSH2 0x1286 DUP2 PUSH2 0x124D JUMP JUMPDEST SWAP1 POP SWAP2 SWAP1 POP JUMP JUMPDEST PUSH0 PUSH0 REVERT JUMPDEST PUSH0 PUSH0 REVERT JUMPDEST PUSH0 PUSH2 0x129E PUSH2 0x999 JUMP JUMPDEST SWAP1 POP PUSH2 0x12AA DUP3 DUP3 PUSH2 0x10FD JUMP JUMPDEST SWAP2 SWAP1 POP JUMP JUMPDEST PUSH0 PUSH8 0xFFFFFFFFFFFFFFFF DUP3 GT ISZERO PUSH2 0x12C9 JUMPI PUSH2 0x12C8 PUSH2 0xC09 JUMP JUMPDEST JUMPDEST PUSH2 0x12D2 DUP3 PUSH2 0x931 JUMP JUMPDEST SWAP1 POP PUSH1 0x20 DUP2 ADD SWAP1 POP SWAP2 SWAP1 POP JUMP JUMPDEST PUSH0 PUSH2 0x12F1 PUSH2 0x12EC DUP5 PUSH2 0x12AF JUMP JUMPDEST PUSH2 0x1295 JUMP JUMPDEST SWAP1 POP DUP3 DUP2 MSTORE PUSH1 0x20 DUP2 ADD DUP5 DUP5 DUP5 ADD GT ISZERO PUSH2 0x130D JUMPI PUSH2 0x130C PUSH2 0x1291 JUMP JUMPDEST JUMPDEST PUSH2 0x1318 DUP5 DUP3 DUP6 PUSH2 0x923 JUMP JUMPDEST POP SWAP4 SWAP3 POP POP POP JUMP JUMPDEST PUSH0 DUP3 PUSH1 0x1F DUP4 ADD SLT PUSH2 0x1334 JUMPI PUSH2 0x1333 PUSH2 0x128D JUMP JUMPDEST JUMPDEST DUP2 MLOAD PUSH2 0x1344 DUP5 DUP3 PUSH1 0x20 DUP7 ADD PUSH2 0x12DF JUMP JUMPDEST SWAP2 POP POP SWAP3 SWAP2 POP POP JUMP JUMPDEST PUSH0 PUSH1 0x20 DUP3 DUP5 SUB SLT ISZERO PUSH2 0x1362 JUMPI PUSH2 0x1361 PUSH2 0x9A2 JUMP JUMPDEST JUMPDEST PUSH0 DUP3 ADD MLOAD PUSH8 0xFFFFFFFFFFFFFFFF DUP2 GT ISZERO PUSH2 0x137F JUMPI PUSH2 0x137E PUSH2 0x9A6 JUMP JUMPDEST JUMPDEST PUSH2 0x138B DUP5 DUP3 DUP6 ADD PUSH2 0x1320 JUMP JUMPDEST SWAP2 POP POP SWAP3 SWAP2 POP POP JUMP INVALID LOG2 PUSH5 0x6970667358 0x22 SLT KECCAK256 CODESIZE PUSH29 0x7B8771F4C511B49BD7A99D14485783C41E1D26FBEF241C4385E41D9BE3 DUP12 PUSH5 0x736F6C6343 STOP ADDMOD 0x22 STOP CALLER "
		},
		"gasEstimates": {
			"creation": {
				"codeDepositCost": "1013200",
				"executionCost": "1052",
				"totalCost": "1014252"
			},
			"external": {
				"lastData()": "infinite",
				"lastRevertReason()": "infinite",
				"lastSuccess()": "2510",
				"localCounter()": "2469",
				"safeExternalCall(address)": "infinite",
				"sendETH(address)": "infinite",
				"triggerFailure(address)": "infinite",
				"tryCatchExample(address)": "infinite"
			},
			"internal": {
				"decodeRevertMessage(bytes memory)": "infinite"
			}
		},
		"methodIdentifiers": {
			"lastData()": "006e75ec",
			"lastRevertReason()": "eec19274",
			"lastSuccess()": "9415bc59",
			"localCounter()": "e88cc9a3",
			"safeExternalCall(address)": "987fb8a2",
			"sendETH(address)": "21b1e5f8",
			"triggerFailure(address)": "98971dbf",
			"tryCatchExample(address)": "c816f038"
		}
	},
	"abi": [
		{
			"anonymous": false,
			"inputs": [
				{
					"indexed": false,
					"internalType": "bool",
					"name": "success",
					"type": "bool"
				},
				{
					"indexed": false,
					"internalType": "bytes",
					"name": "data",
					"type": "bytes"
				}
			],
			"name": "CallResult",
			"type": "event"
		},
		{
			"anonymous": false,
			"inputs": [
				{
					"indexed": false,
					"internalType": "string",
					"name": "reason",
					"type": "string"
				}
			],
			"name": "DecodedRevertReason",
			"type": "event"
		},
		{
			"anonymous": false,
			"inputs": [
				{
					"indexed": false,
					"internalType": "string",
					"name": "reason",
					"type": "string"
				}
			],
			"name": "TryCatchFailure",
			"type": "event"
		},
		{
			"anonymous": false,
			"inputs": [
				{
					"indexed": false,
					"internalType": "string",
					"name": "message",
					"type": "string"
				}
			],
			"name": "TryCatchSuccess",
			"type": "event"
		},
		{
			"inputs": [],
			"name": "lastData",
			"outputs": [
				{
					"internalType": "bytes",
					"name": "",
					"type": "bytes"
				}
			],
			"stateMutability": "view",
			"type": "function"
		},
		{
			"inputs": [],
			"name": "lastRevertReason",
			"outputs": [
				{
					"internalType": "string",
					"name": "",
					"type": "string"
				}
			],
			"stateMutability": "view",
			"type": "function"
		},
		{
			"inputs": [],
			"name": "lastSuccess",
			"outputs": [
				{
					"internalType": "bool",
					"name": "",
					"type": "bool"
				}
			],
			"stateMutability": "view",
			"type": "function"
		},
		{
			"inputs": [],
			"name": "localCounter",
			"outputs": [
				{
					"internalType": "uint256",
					"name": "",
					"type": "uint256"
				}
			],
			"stateMutability": "view",
			"type": "function"
		},
		{
			"inputs": [
				{
					"internalType": "address",
					"name": "_target",
					"type": "address"
				}
			],
			"name": "safeExternalCall",
			"outputs": [],
			"stateMutability": "nonpayable",
			"type": "function"
		},
		{
			"inputs": [
				{
					"internalType": "address payable",
					"name": "_target",
					"type": "address"
				}
			],
			"name": "sendETH",
			"outputs": [],
			"stateMutability": "payable",
			"type": "function"
		},
		{
			"inputs": [
				{
					"internalType": "address",
					"name": "_target",
					"type": "address"
				}
			],
			"name": "triggerFailure",
			"outputs": [],
			"stateMutability": "nonpayable",
			"type": "function"
		},
		{
			"inputs": [
				{
					"internalType": "address",
					"name": "_target",
					"type": "address"
				}
			],
			"name": "tryCatchExample",
			"outputs": [],
			"stateMutability": "nonpayable",
			"type": "function"
		}
	]
}