{
	"data": {
		"bytecode": {
			"linkReferences": {},
			"object": "6080604052348015600e575f5ffd5b506109dc8061001c5f395ff3fe608060405234801561000f575f5ffd5b5060043610610060575f3560e01c80637a36b3ee14610064578063b142de4a14610094578063bc420523146100c4578063bed34bba146100e0578063ceec501414610111578063e10a949c14610141575b5f5ffd5b61007e600480360381019061007991906103cb565b61015f565b60405161008b91906104a1565b60405180910390f35b6100ae60048036038101906100a9919061051e565b610190565b6040516100bb91906104a1565b60405180910390f35b6100de60048036038101906100d9919061059c565b6101c2565b005b6100fa60048036038101906100f591906103cb565b6101d4565b6040516101089291906105e3565b60405180910390f35b61012b6004803603810190610126919061059c565b6101e4565b60405161013891906104a1565b60405180910390f35b6101496101f3565b60405161015691906104a1565b60405180910390f35b60605f8383604051602001610175929190610652565b60405160208183030381529060405290508091505092915050565b6060848484846040516020016101a99493929190610699565b6040516020818303038152906040529050949350505050565b805f90816101d091906108d7565b5050565b6060808383915091509250929050565b60605f82905080915050919050565b5f80546101ff906106ed565b80601f016020809104026020016040519081016040528092919081815260200182805461022b906106ed565b80156102765780601f1061024d57610100808354040283529160200191610276565b820191905f5260205f20905b81548152906001019060200180831161025957829003601f168201915b505050505081565b5f604051905090565b5f5ffd5b5f5ffd5b5f5ffd5b5f5ffd5b5f601f19601f8301169050919050565b7f4e487b71000000000000000000000000000000000000000000000000000000005f52604160045260245ffd5b6102dd82610297565b810181811067ffffffffffffffff821117156102fc576102fb6102a7565b5b80604052505050565b5f61030e61027e565b905061031a82826102d4565b919050565b5f67ffffffffffffffff821115610339576103386102a7565b5b61034282610297565b9050602081019050919050565b828183375f83830152505050565b5f61036f61036a8461031f565b610305565b90508281526020810184848401111561038b5761038a610293565b5b61039684828561034f565b509392505050565b5f82601f8301126103b2576103b161028f565b5b81356103c284826020860161035d565b91505092915050565b5f5f604083850312156103e1576103e0610287565b5b5f83013567ffffffffffffffff8111156103fe576103fd61028b565b5b61040a8582860161039e565b925050602083013567ffffffffffffffff81111561042b5761042a61028b565b5b6104378582860161039e565b9150509250929050565b5f81519050919050565b5f82825260208201905092915050565b8281835e5f83830152505050565b5f61047382610441565b61047d818561044b565b935061048d81856020860161045b565b61049681610297565b840191505092915050565b5f6020820190508181035f8301526104b98184610469565b905092915050565b5f5ffd5b5f5ffd5b5f5f83601f8401126104de576104dd61028f565b5b8235905067ffffffffffffffff8111156104fb576104fa6104c1565b5b602083019150836001820283011115610517576105166104c5565b5b9250929050565b5f5f5f5f6040858703121561053657610535610287565b5b5f85013567ffffffffffffffff8111156105535761055261028b565b5b61055f878288016104c9565b9450945050602085013567ffffffffffffffff8111156105825761058161028b565b5b61058e878288016104c9565b925092505092959194509250565b5f602082840312156105b1576105b0610287565b5b5f82013567ffffffffffffffff8111156105ce576105cd61028b565b5b6105da8482850161039e565b91505092915050565b5f6040820190508181035f8301526105fb8185610469565b9050818103602083015261060f8184610469565b90509392505050565b5f81905092915050565b5f61062c82610441565b6106368185610618565b935061064681856020860161045b565b80840191505092915050565b5f61065d8285610622565b91506106698284610622565b91508190509392505050565b5f6106808385610618565b935061068d83858461034f565b82840190509392505050565b5f6106a5828688610675565b91506106b2828486610675565b915081905095945050505050565b7f4e487b71000000000000000000000000000000000000000000000000000000005f52602260045260245ffd5b5f600282049050600182168061070457607f821691505b602082108103610717576107166106c0565b5b50919050565b5f819050815f5260205f209050919050565b5f6020601f8301049050919050565b5f82821b905092915050565b5f600883026107797fffffffffffffffffffffffffffffffffffffffffffffffffffffffffffffffff8261073e565b610783868361073e565b95508019841693508086168417925050509392505050565b5f819050919050565b5f819050919050565b5f6107c76107c26107bd8461079b565b6107a4565b61079b565b9050919050565b5f819050919050565b6107e0836107ad565b6107f46107ec826107ce565b84845461074a565b825550505050565b5f5f905090565b61080b6107fc565b6108168184846107d7565b505050565b5f5b8281101561083c576108315f828401610803565b60018101905061081d565b505050565b601f82111561088f578282111561088e5761085b8161071d565b6108648361072f565b61086d8561072f565b602086101561087a575f90505b8083016108898284038261081b565b505050505b5b505050565b5f82821c905092915050565b5f6108af5f1984600802610894565b1980831691505092915050565b5f6108c783836108a0565b9150826002028217905092915050565b6108e082610441565b67ffffffffffffffff8111156108f9576108f86102a7565b5b61090382546106ed565b61090e828285610841565b5f60209050601f83116001811461093f575f841561092d578287015190505b61093785826108bc565b86555061099e565b601f19841661094d8661071d565b5f5b828110156109745784890151825560018201915060208501945060208101905061094f565b86831015610991578489015161098d601f8916826108a0565b8355505b6001600288020188555050505b50505050505056fea264697066735822122025c3ad71edc216b727e87864a085b15a6bd4097061698d1ec7ccc4f7c3fb7c3064736f6c63430008220033",
			"opcodes": "PUSH1 0x80 PUSH1 0x40 MSTORE CALLVALUE DUP1 ISZERO PUSH1 0xE JUMPI PUSH0 PUSH0 REVERT JUMPDEST POP PUSH2 0x9DC DUP1 PUSH2 0x1C PUSH0 CODECOPY PUSH0 RETURN INVALID PUSH1 0x80 PUSH1 0x40 MSTORE CALLVALUE DUP1 ISZERO PUSH2 0xF JUMPI PUSH0 PUSH0 REVERT JUMPDEST POP PUSH1 0x4 CALLDATASIZE LT PUSH2 0x60 JUMPI PUSH0 CALLDATALOAD PUSH1 0xE0 SHR DUP1 PUSH4 0x7A36B3EE EQ PUSH2 0x64 JUMPI DUP1 PUSH4 0xB142DE4A EQ PUSH2 0x94 JUMPI DUP1 PUSH4 0xBC420523 EQ PUSH2 0xC4 JUMPI DUP1 PUSH4 0xBED34BBA EQ PUSH2 0xE0 JUMPI DUP1 PUSH4 0xCEEC5014 EQ PUSH2 0x111 JUMPI DUP1 PUSH4 0xE10A949C EQ PUSH2 0x141 JUMPI JUMPDEST PUSH0 PUSH0 REVERT JUMPDEST PUSH2 0x7E PUSH1 0x4 DUP1 CALLDATASIZE SUB DUP2 ADD SWAP1 PUSH2 0x79 SWAP2 SWAP1 PUSH2 0x3CB JUMP JUMPDEST PUSH2 0x15F JUMP JUMPDEST PUSH1 0x40 MLOAD PUSH2 0x8B SWAP2 SWAP1 PUSH2 0x4A1 JUMP JUMPDEST PUSH1 0x40 MLOAD DUP1 SWAP2 SUB SWAP1 RETURN JUMPDEST PUSH2 0xAE PUSH1 0x4 DUP1 CALLDATASIZE SUB DUP2 ADD SWAP1 PUSH2 0xA9 SWAP2 SWAP1 PUSH2 0x51E JUMP JUMPDEST PUSH2 0x190 JUMP JUMPDEST PUSH1 0x40 MLOAD PUSH2 0xBB SWAP2 SWAP1 PUSH2 0x4A1 JUMP JUMPDEST PUSH1 0x40 MLOAD DUP1 SWAP2 SUB SWAP1 RETURN JUMPDEST PUSH2 0xDE PUSH1 0x4 DUP1 CALLDATASIZE SUB DUP2 ADD SWAP1 PUSH2 0xD9 SWAP2 SWAP1 PUSH2 0x59C JUMP JUMPDEST PUSH2 0x1C2 JUMP JUMPDEST STOP JUMPDEST PUSH2 0xFA PUSH1 0x4 DUP1 CALLDATASIZE SUB DUP2 ADD SWAP1 PUSH2 0xF5 SWAP2 SWAP1 PUSH2 0x3CB JUMP JUMPDEST PUSH2 0x1D4 JUMP JUMPDEST PUSH1 0x40 MLOAD PUSH2 0x108 SWAP3 SWAP2 SWAP1 PUSH2 0x5E3 JUMP JUMPDEST PUSH1 0x40 MLOAD DUP1 SWAP2 SUB SWAP1 RETURN JUMPDEST PUSH2 0x12B PUSH1 0x4 DUP1 CALLDATASIZE SUB DUP2 ADD SWAP1 PUSH2 0x126 SWAP2 SWAP1 PUSH2 0x59C JUMP JUMPDEST PUSH2 0x1E4 JUMP JUMPDEST PUSH1 0x40 MLOAD PUSH2 0x138 SWAP2 SWAP1 PUSH2 0x4A1 JUMP JUMPDEST PUSH1 0x40 MLOAD DUP1 SWAP2 SUB SWAP1 RETURN JUMPDEST PUSH2 0x149 PUSH2 0x1F3 JUMP JUMPDEST PUSH1 0x40 MLOAD PUSH2 0x156 SWAP2 SWAP1 PUSH2 0x4A1 JUMP JUMPDEST PUSH1 0x40 MLOAD DUP1 SWAP2 SUB SWAP1 RETURN JUMPDEST PUSH1 0x60 PUSH0 DUP4 DUP4 PUSH1 0x40 MLOAD PUSH1 0x20 ADD PUSH2 0x175 SWAP3 SWAP2 SWAP1 PUSH2 0x652 JUMP JUMPDEST PUSH1 0x40 MLOAD PUSH1 0x20 DUP2 DUP4 SUB SUB DUP2 MSTORE SWAP1 PUSH1 0x40 MSTORE SWAP1 POP DUP1 SWAP2 POP POP SWAP3 SWAP2 POP POP JUMP JUMPDEST PUSH1 0x60 DUP5 DUP5 DUP5 DUP5 PUSH1 0x40 MLOAD PUSH1 0x20 ADD PUSH2 0x1A9 SWAP5 SWAP4 SWAP3 SWAP2 SWAP1 PUSH2 0x699 JUMP JUMPDEST PUSH1 0x40 MLOAD PUSH1 0x20 DUP2 DUP4 SUB SUB DUP2 MSTORE SWAP1 PUSH1 0x40 MSTORE SWAP1 POP SWAP5 SWAP4 POP POP POP POP JUMP JUMPDEST DUP1 PUSH0 SWAP1 DUP2 PUSH2 0x1D0 SWAP2 SWAP1 PUSH2 0x8D7 JUMP JUMPDEST POP POP JUMP JUMPDEST PUSH1 0x60 DUP1 DUP4 DUP4 SWAP2 POP SWAP2 POP SWAP3 POP SWAP3 SWAP1 POP JUMP JUMPDEST PUSH1 0x60 PUSH0 DUP3 SWAP1 POP DUP1 SWAP2 POP POP SWAP2 SWAP1 POP JUMP JUMPDEST PUSH0 DUP1 SLOAD PUSH2 0x1FF SWAP1 PUSH2 0x6ED JUMP JUMPDEST DUP1 PUSH1 0x1F ADD PUSH1 0x20 DUP1 SWAP2 DIV MUL PUSH1 0x20 ADD PUSH1 0x40 MLOAD SWAP1 DUP2 ADD PUSH1 0x40 MSTORE DUP1 SWAP3 SWAP2 SWAP1 DUP2 DUP2 MSTORE PUSH1 0x20 ADD DUP3 DUP1 SLOAD PUSH2 0x22B SWAP1 PUSH2 0x6ED JUMP JUMPDEST DUP1 ISZERO PUSH2 0x276 JUMPI DUP1 PUSH1 0x1F LT PUSH2 0x24D JUMPI PUSH2 0x100 DUP1 DUP4 SLOAD DIV MUL DUP4 MSTORE SWAP2 PUSH1 0x20 ADD SWAP2 PUSH2 0x276 JUMP JUMPDEST DUP3 ADD SWAP2 SWAP1 PUSH0 MSTORE PUSH1 0x20 PUSH0 KECCAK256 SWAP1 JUMPDEST DUP2 SLOAD DUP2 MSTORE SWAP1 PUSH1 0x1 ADD SWAP1 PUSH1 0x20 ADD DUP1 DUP4 GT PUSH2 0x259 JUMPI DUP3 SWAP1 SUB PUSH1 0x1F AND DUP3 ADD SWAP2 JUMPDEST POP POP POP POP POP DUP2 JUMP JUMPDEST PUSH0 PUSH1 0x40 MLOAD SWAP1 POP SWAP1 JUMP JUMPDEST PUSH0 PUSH0 REVERT JUMPDEST PUSH0 PUSH0 REVERT JUMPDEST PUSH0 PUSH0 REVERT JUMPDEST PUSH0 PUSH0 REVERT JUMPDEST PUSH0 PUSH1 0x1F NOT PUSH1 0x1F DUP4 ADD AND SWAP1 POP SWAP2 SWAP1 POP JUMP JUMPDEST PUSH32 0x4E487B7100000000000000000000000000000000000000000000000000000000 PUSH0 MSTORE PUSH1 0x41 PUSH1 0x4 MSTORE PUSH1 0x24 PUSH0 REVERT JUMPDEST PUSH2 0x2DD DUP3 PUSH2 0x297 JUMP JUMPDEST DUP2 ADD DUP2 DUP2 LT PUSH8 0xFFFFFFFFFFFFFFFF DUP3 GT OR ISZERO PUSH2 0x2FC JUMPI PUSH2 0x2FB PUSH2 0x2A7 JUMP JUMPDEST JUMPDEST DUP1 PUSH1 0x40 MSTORE POP POP POP JUMP JUMPDEST PUSH0 PUSH2 0x30E PUSH2 0x27E JUMP JUMPDEST SWAP1 POP PUSH2 0x31A DUP3 DUP3 PUSH2 0x2D4 JUMP JUMPDEST SWAP2 SWAP1 POP JUMP JUMPDEST PUSH0 PUSH8 0xFFFFFFFFFFFFFFFF DUP3 GT ISZERO PUSH2 0x339 JUMPI PUSH2 0x338 PUSH2 0x2A7 JUMP JUMPDEST JUMPDEST PUSH2 0x342 DUP3 PUSH2 0x297 JUMP JUMPDEST SWAP1 POP PUSH1 0x20 DUP2 ADD SWAP1 POP SWAP2 SWAP1 POP JUMP JUMPDEST DUP3 DUP2 DUP4 CALLDATACOPY PUSH0 DUP4 DUP4 ADD MSTORE POP POP POP JUMP JUMPDEST PUSH0 PUSH2 0x36F PUSH2 0x36A DUP5 PUSH2 0x31F JUMP JUMPDEST PUSH2 0x305 JUMP JUMPDEST SWAP1 POP DUP3 DUP2 MSTORE PUSH1 0x20 DUP2 ADD DUP5 DUP5 DUP5 ADD GT ISZERO PUSH2 0x38B JUMPI PUSH2 0x38A PUSH2 0x293 JUMP JUMPDEST JUMPDEST PUSH2 0x396 DUP5 DUP3 DUP6 PUSH2 0x34F JUMP JUMPDEST POP SWAP4 SWAP3 POP POP POP JUMP JUMPDEST PUSH0 DUP3 PUSH1 0x1F DUP4 ADD SLT PUSH2 0x3B2 JUMPI PUSH2 0x3B1 PUSH2 0x28F JUMP JUMPDEST JUMPDEST DUP2 CALLDATALOAD PUSH2 0x3C2 DUP5 DUP3 PUSH1 0x20 DUP7 ADD PUSH2 0x35D JUMP JUMPDEST SWAP2 POP POP SWAP3 SWAP2 POP POP JUMP JUMPDEST PUSH0 PUSH0 PUSH1 0x40 DUP4 DUP6 SUB SLT ISZERO PUSH2 0x3E1 JUMPI PUSH2 0x3E0 PUSH2 0x287 JUMP JUMPDEST JUMPDEST PUSH0 DUP4 ADD CALLDATALOAD PUSH8 0xFFFFFFFFFFFFFFFF DUP2 GT ISZERO PUSH2 0x3FE JUMPI PUSH2 0x3FD PUSH2 0x28B JUMP JUMPDEST JUMPDEST PUSH2 0x40A DUP6 DUP3 DUP7 ADD PUSH2 0x39E JUMP JUMPDEST SWAP3 POP POP PUSH1 0x20 DUP4 ADD CALLDATALOAD PUSH8 0xFFFFFFFFFFFFFFFF DUP2 GT ISZERO PUSH2 0x42B JUMPI PUSH2 0x42A PUSH2 0x28B JUMP JUMPDEST JUMPDEST PUSH2 0x437 DUP6 DUP3 DUP7 ADD PUSH2 0x39E JUMP JUMPDEST SWAP2 POP POP SWAP3 POP SWAP3 SWAP1 POP JUMP JUMPDEST PUSH0 DUP2 MLOAD SWAP1 POP SWAP2 SWAP1 POP JUMP JUMPDEST PUSH0 DUP3 DUP3 MSTORE PUSH1 0x20 DUP3 ADD SWAP1 POP SWAP3 SWAP2 POP POP JUMP JUMPDEST DUP3 DUP2 DUP4 MCOPY PUSH0 DUP4 DUP4 ADD MSTORE POP POP POP JUMP JUMPDEST PUSH0 PUSH2 0x473 DUP3 PUSH2 0x441 JUMP JUMPDEST PUSH2 0x47D DUP2 DUP6 PUSH2 0x44B JUMP JUMPDEST SWAP4 POP PUSH2 0x48D DUP2 DUP6 PUSH1 0x20 DUP7 ADD PUSH2 0x45B JUMP JUMPDEST PUSH2 0x496 DUP2 PUSH2 0x297 JUMP JUMPDEST DUP5 ADD SWAP2 POP POP SWAP3 SWAP2 POP POP JUMP JUMPDEST PUSH0 PUSH1 0x20 DUP3 ADD SWAP1 POP DUP2 DUP2 SUB PUSH0 DUP4 ADD MSTORE PUSH2 0x4B9 DUP2 DUP5 PUSH2 0x469 JUMP JUMPDEST SWAP1 POP SWAP3 SWAP2 POP POP JUMP JUMPDEST PUSH0 PUSH0 REVERT JUMPDEST PUSH0 PUSH0 REVERT JUMPDEST PUSH0 PUSH0 DUP4 PUSH1 0x1F DUP5 ADD SLT PUSH2 0x4DE JUMPI PUSH2 0x4DD PUSH2 0x28F JUMP JUMPDEST JUMPDEST DUP3 CALLDATALOAD SWAP1 POP PUSH8 0xFFFFFFFFFFFFFFFF DUP2 GT ISZERO PUSH2 0x4FB JUMPI PUSH2 0x4FA PUSH2 0x4C1 JUMP JUMPDEST JUMPDEST PUSH1 0x20 DUP4 ADD SWAP2 POP DUP4 PUSH1 0x1 DUP3 MUL DUP4 ADD GT ISZERO PUSH2 0x517 JUMPI PUSH2 0x516 PUSH2 0x4C5 JUMP JUMPDEST JUMPDEST SWAP3 POP SWAP3 SWAP1 POP JUMP JUMPDEST PUSH0 PUSH0 PUSH0 PUSH0 PUSH1 0x40 DUP6 DUP8 SUB SLT ISZERO PUSH2 0x536 JUMPI PUSH2 0x535 PUSH2 0x287 JUMP JUMPDEST JUMPDEST PUSH0 DUP6 ADD CALLDATALOAD PUSH8 0xFFFFFFFFFFFFFFFF DUP2 GT ISZERO PUSH2 0x553 JUMPI PUSH2 0x552 PUSH2 0x28B JUMP JUMPDEST JUMPDEST PUSH2 0x55F DUP8 DUP3 DUP9 ADD PUSH2 0x4C9 JUMP JUMPDEST SWAP5 POP SWAP5 POP POP PUSH1 0x20 DUP6 ADD CALLDATALOAD PUSH8 0xFFFFFFFFFFFFFFFF DUP2 GT ISZERO PUSH2 0x582 JUMPI PUSH2 0x581 PUSH2 0x28B JUMP JUMPDEST JUMPDEST PUSH2 0x58E DUP8 DUP3 DUP9 ADD PUSH2 0x4C9 JUMP JUMPDEST SWAP3 POP SWAP3 POP POP SWAP3 SWAP6 SWAP2 SWAP5 POP SWAP3 POP JUMP JUMPDEST PUSH0 PUSH1 0x20 DUP3 DUP5 SUB SLT ISZERO PUSH2 0x5B1 JUMPI PUSH2 0x5B0 PUSH2 0x287 JUMP JUMPDEST JUMPDEST PUSH0 DUP3 ADD CALLDATALOAD PUSH8 0xFFFFFFFFFFFFFFFF DUP2 GT ISZERO PUSH2 0x5CE JUMPI PUSH2 0x5CD PUSH2 0x28B JUMP JUMPDEST JUMPDEST PUSH2 0x5DA DUP5 DUP3 DUP6 ADD PUSH2 0x39E JUMP JUMPDEST SWAP2 POP POP SWAP3 SWAP2 POP POP JUMP JUMPDEST PUSH0 PUSH1 0x40 DUP3 ADD SWAP1 POP DUP2 DUP2 SUB PUSH0 DUP4 ADD MSTORE PUSH2 0x5FB DUP2 DUP6 PUSH2 0x469 JUMP JUMPDEST SWAP1 POP DUP2 DUP2 SUB PUSH1 0x20 DUP4 ADD MSTORE PUSH2 0x60F DUP2 DUP5 PUSH2 0x469 JUMP JUMPDEST SWAP1 POP SWAP4 SWAP3 POP POP POP JUMP JUMPDEST PUSH0 DUP2 SWAP1 POP SWAP3 SWAP2 POP POP JUMP JUMPDEST PUSH0 PUSH2 0x62C DUP3 PUSH2 0x441 JUMP JUMPDEST PUSH2 0x636 DUP2 DUP6 PUSH2 0x618 JUMP JUMPDEST SWAP4 POP PUSH2 0x646 DUP2 DUP6 PUSH1 0x20 DUP7 ADD PUSH2 0x45B JUMP JUMPDEST DUP1 DUP5 ADD SWAP2 POP POP SWAP3 SWAP2 POP POP JUMP JUMPDEST PUSH0 PUSH2 0x65D DUP3 DUP6 PUSH2 0x622 JUMP JUMPDEST SWAP2 POP PUSH2 0x669 DUP3 DUP5 PUSH2 0x622 JUMP JUMPDEST SWAP2 POP DUP2 SWAP1 POP SWAP4 SWAP3 POP POP POP JUMP JUMPDEST PUSH0 PUSH2 0x680 DUP4 DUP6 PUSH2 0x618 JUMP JUMPDEST SWAP4 POP PUSH2 0x68D DUP4 DUP6 DUP5 PUSH2 0x34F JUMP JUMPDEST DUP3 DUP5 ADD SWAP1 POP SWAP4 SWAP3 POP POP POP JUMP JUMPDEST PUSH0 PUSH2 0x6A5 DUP3 DUP7 DUP9 PUSH2 0x675 JUMP JUMPDEST SWAP2 POP PUSH2 0x6B2 DUP3 DUP5 DUP7 PUSH2 0x675 JUMP JUMPDEST SWAP2 POP DUP2 SWAP1 POP SWAP6 SWAP5 POP POP POP POP POP JUMP JUMPDEST PUSH32 0x4E487B7100000000000000000000000000000000000000000000000000000000 PUSH0 MSTORE PUSH1 0x22 PUSH1 0x4 MSTORE PUSH1 0x24 PUSH0 REVERT JUMPDEST PUSH0 PUSH1 0x2 DUP3 DIV SWAP1 POP PUSH1 0x1 DUP3 AND DUP1 PUSH2 0x704 JUMPI PUSH1 0x7F DUP3 AND SWAP2 POP JUMPDEST PUSH1 0x20 DUP3 LT DUP2 SUB PUSH2 0x717 JUMPI PUSH2 0x716 PUSH2 0x6C0 JUMP JUMPDEST JUMPDEST POP SWAP2 SWAP1 POP JUMP JUMPDEST PUSH0 DUP2 SWAP1 POP DUP2 PUSH0 MSTORE PUSH1 0x20 PUSH0 KECCAK256 SWAP1 POP SWAP2 SWAP1 POP JUMP JUMPDEST PUSH0 PUSH1 0x20 PUSH1 0x1F DUP4 ADD DIV SWAP1 POP SWAP2 SWAP1 POP JUMP JUMPDEST PUSH0 DUP3 DUP3 SHL SWAP1 POP SWAP3 SWAP2 POP POP JUMP JUMPDEST PUSH0 PUSH1 0x8 DUP4 MUL PUSH2 0x779 PUSH32 0xFFFFFFFFFFFFFFFFFFFFFFFFFFFFFFFFFFFFFFFFFFFFFFFFFFFFFFFFFFFFFFFF DUP3 PUSH2 0x73E JUMP JUMPDEST PUSH2 0x783 DUP7 DUP4 PUSH2 0x73E JUMP JUMPDEST SWAP6 POP DUP1 NOT DUP5 AND SWAP4 POP DUP1 DUP7 AND DUP5 OR SWAP3 POP POP POP SWAP4 SWAP3 POP POP POP JUMP JUMPDEST PUSH0 DUP2 SWAP1 POP SWAP2 SWAP1 POP JUMP JUMPDEST PUSH0 DUP2 SWAP1 POP SWAP2 SWAP1 POP JUMP JUMPDEST PUSH0 PUSH2 0x7C7 PUSH2 0x7C2 PUSH2 0x7BD DUP5 PUSH2 0x79B JUMP JUMPDEST PUSH2 0x7A4 JUMP JUMPDEST PUSH2 0x79B JUMP JUMPDEST SWAP1 POP SWAP2 SWAP1 POP JUMP JUMPDEST PUSH0 DUP2 SWAP1 POP SWAP2 SWAP1 POP JUMP JUMPDEST PUSH2 0x7E0 DUP4 PUSH2 0x7AD JUMP JUMPDEST PUSH2 0x7F4 PUSH2 0x7EC DUP3 PUSH2 0x7CE JUMP JUMPDEST DUP5 DUP5 SLOAD PUSH2 0x74A JUMP JUMPDEST DUP3 SSTORE POP POP POP POP JUMP JUMPDEST PUSH0 PUSH0 SWAP1 POP SWAP1 JUMP JUMPDEST PUSH2 0x80B PUSH2 0x7FC JUMP JUMPDEST PUSH2 0x816 DUP2 DUP5 DUP5 PUSH2 0x7D7 JUMP JUMPDEST POP POP POP JUMP JUMPDEST PUSH0 JUMPDEST DUP3 DUP2 LT ISZERO PUSH2 0x83C JUMPI PUSH2 0x831 PUSH0 DUP3 DUP5 ADD PUSH2 0x803 JUMP JUMPDEST PUSH1 0x1 DUP2 ADD SWAP1 POP PUSH2 0x81D JUMP JUMPDEST POP POP POP JUMP JUMPDEST PUSH1 0x1F DUP3 GT ISZERO PUSH2 0x88F JUMPI DUP3 DUP3 GT ISZERO PUSH2 0x88E JUMPI PUSH2 0x85B DUP2 PUSH2 0x71D JUMP JUMPDEST PUSH2 0x864 DUP4 PUSH2 0x72F JUMP JUMPDEST PUSH2 0x86D DUP6 PUSH2 0x72F JUMP JUMPDEST PUSH1 0x20 DUP7 LT ISZERO PUSH2 0x87A JUMPI PUSH0 SWAP1 POP JUMPDEST DUP1 DUP4 ADD PUSH2 0x889 DUP3 DUP5 SUB DUP3 PUSH2 0x81B JUMP JUMPDEST POP POP POP POP JUMPDEST JUMPDEST POP POP POP JUMP JUMPDEST PUSH0 DUP3 DUP3 SHR SWAP1 POP SWAP3 SWAP2 POP POP JUMP JUMPDEST PUSH0 PUSH2 0x8AF PUSH0 NOT DUP5 PUSH1 0x8 MUL PUSH2 0x894 JUMP JUMPDEST NOT DUP1 DUP4 AND SWAP2 POP POP SWAP3 SWAP2 POP POP JUMP JUMPDEST PUSH0 PUSH2 0x8C7 DUP4 DUP4 PUSH2 0x8A0 JUMP JUMPDEST SWAP2 POP DUP3 PUSH1 0x2 MUL DUP3 OR SWAP1 POP SWAP3 SWAP2 POP POP JUMP JUMPDEST PUSH2 0x8E0 DUP3 PUSH2 0x441 JUMP JUMPDEST PUSH8 0xFFFFFFFFFFFFFFFF DUP2 GT ISZERO PUSH2 0x8F9 JUMPI PUSH2 0x8F8 PUSH2 0x2A7 JUMP JUMPDEST JUMPDEST PUSH2 0x903 DUP3 SLOAD PUSH2 0x6ED JUMP JUMPDEST PUSH2 0x90E DUP3 DUP3 DUP6 PUSH2 0x841 JUMP JUMPDEST PUSH0 PUSH1 0x20 SWAP1 POP PUSH1 0x1F DUP4 GT PUSH1 0x1 DUP2 EQ PUSH2 0x93F JUMPI PUSH0 DUP5 ISZERO PUSH2 0x92D JUMPI DUP3 DUP8 ADD MLOAD SWAP1 POP JUMPDEST PUSH2 0x937 DUP6 DUP3 PUSH2 0x8BC JUMP JUMPDEST DUP7 SSTORE POP PUSH2 0x99E JUMP JUMPDEST PUSH1 0x1F NOT DUP5 AND PUSH2 0x94D DUP7 PUSH2 0x71D JUMP JUMPDEST PUSH0 JUMPDEST DUP3 DUP2 LT ISZERO PUSH2 0x974 JUMPI DUP5 DUP10 ADD MLOAD DUP3 SSTORE PUSH1 0x1 DUP3 ADD SWAP2 POP PUSH1 0x20 DUP6 ADD SWAP5 POP PUSH1 0x20 DUP2 ADD SWAP1 POP PUSH2 0x94F JUMP JUMPDEST DUP7 DUP4 LT ISZERO PUSH2 0x991 JUMPI DUP5 DUP10 ADD MLOAD PUSH2 0x98D PUSH1 0x1F DUP10 AND DUP3 PUSH2 0x8A0 JUMP JUMPDEST DUP4 SSTORE POP JUMPDEST PUSH1 0x1 PUSH1 0x2 DUP9 MUL ADD DUP9 SSTORE POP POP POP JUMPDEST POP POP POP POP POP POP JUMP INVALID LOG2 PUSH5 0x6970667358 0x22 SLT KECCAK256 0x25 0xC3 0xAD PUSH18 0xEDC216B727E87864A085B15A6BD409706169 DUP14 CLZ 0xC7 0xCC 0xC4 0xF7 0xC3 EXTSTATICCALL PUSH29 0x3064736F6C634300082200330000000000000000000000000000000000 "
		},
		"gasEstimates": {
			"creation": {
				"codeDepositCost": "504800",
				"executionCost": "535",
				"totalCost": "505335"
			},
			"external": {
				"compareStrings(string,string)": "infinite",
				"concatenateCalldataStrings(string,string)": "infinite",
				"concatenateStrings(string,string)": "infinite",
				"getWelcomeMessage(string)": "infinite",
				"saveName(string)": "infinite",
				"storedName()": "infinite"
			}
		},
		"methodIdentifiers": {
			"compareStrings(string,string)": "bed34bba",
			"concatenateCalldataStrings(string,string)": "b142de4a",
			"concatenateStrings(string,string)": "7a36b3ee",
			"getWelcomeMessage(string)": "ceec5014",
			"saveName(string)": "bc420523",
			"storedName()": "e10a949c"
		}
	},
	"abi": [
		{
			"inputs": [
				{
					"internalType": "string",
					"name": "_first",
					"type": "string"
				},
				{
					"internalType": "string",
					"name": "_second",
					"type": "string"
				}
			],
			"name": "compareStrings",
			"outputs": [
				{
					"internalType": "string",
					"name": "",
					"type": "string"
				},
				{
					"internalType": "string",
					"name": "",
					"type": "string"
				}
			],
			"stateMutability": "pure",
			"type": "function"
		},
		{
			"inputs": [
				{
					"internalType": "string",
					"name": "_first",
					"type": "string"
				},
				{
					"internalType": "string",
					"name": "_second",
					"type": "string"
				}
			],
			"name": "concatenateCalldataStrings",
			"outputs": [
				{
					"internalType": "string",
					"name": "",
					"type": "string"
				}
			],
			"stateMutability": "pure",
			"type": "function"
		},
		{
			"inputs": [
				{
					"internalType": "string",
					"name": "_first",
					"type": "string"
				},
				{
					"internalType": "string",
					"name": "_second",
					"type": "string"
				}
			],
			"name": "concatenateStrings",
			"outputs": [
				{
					"internalType": "string",
					"name": "",
					"type": "string"
				}
			],
			"stateMutability": "pure",
			"type": "function"
		},
		{
			"inputs": [
				{
					"internalType": "string",
					"name": "_name",
					"type": "string"
				}
			],
			"name": "getWelcomeMessage",
			"outputs": [
				{
					"internalType": "string",
					"name": "",
					"type": "string"
				}
			],
			"stateMutability": "pure",
			"type": "function"
		},
		{
			"inputs": [
				{
					"internalType": "string",
					"name": "_name",
					"type": "string"
				}
			],
			"name": "saveName",
			"outputs": [],
			"stateMutability": "nonpayable",
			"type": "function"
		},
		{
			"inputs": [],
			"name": "storedName",
			"outputs": [
				{
					"internalType": "string",
					"name": "",
					"type": "string"
				}
			],
			"stateMutability": "view",
			"type": "function"
		}
	]
}