{
	"data": {
		"bytecode": {
			"linkReferences": {},
			"object": "6080604052348015600e575f5ffd5b506109618061001c5f395ff3fe608060405234801561000f575f5ffd5b5060043610610055575f3560e01c80633ed97dcb146100595780635f596dfd14610079578063760b8b8d1461009957806382d8686f146100bc578063e80c3f13146100c6575b5f5ffd5b6100616100e6565b60405161007093929190610578565b60405180910390f35b61008161015b565b60405161009093929190610578565b60405180910390f35b6100a16101eb565b6040516100b3969594939291906105b4565b60405180910390f35b6100c4610397565b005b6100ce61042e565b6040516100dd93929190610578565b60405180910390f35b60605f5f5f60405180606001604052806040518060400160405280600581526020017f416c696365000000000000000000000000000000000000000000000000000000815250815260200160198152602001600115158152509050805f01518160200151826040015193509350935050909192565b60605f5f5f60405180606001604052806040518060400160405280600381526020017f426f6200000000000000000000000000000000000000000000000000000000008152508152602001601e815260200160011515815250905060638160200181815250505f816040019015159081151581525050805f01518160200151826040015193509350935050909192565b60605f5f60605f5f5f5f6040518060600160405290815f8201805461020f9061064e565b80601f016020809104026020016040519081016040528092919081815260200182805461023b9061064e565b80156102865780601f1061025d57610100808354040283529160200191610286565b820191905f5260205f20905b81548152906001019060200180831161026957829003601f168201915b5050505050815260200160018201548152602001600282015f9054906101000a900460ff16151515158152505090506103e78160200181815250505f816040019015159081151581525050805f0151816020015182604001515f5f015f600101545f6002015f9054906101000a900460ff168280546103049061064e565b80601f01602080910402602001604051908101604052809291908181526020018280546103309061064e565b801561037b5780601f106103525761010080835404028352916020019161037b565b820191905f5260205f20905b81548152906001019060200180831161035e57829003601f168201915b5050505050925096509650965096509650965050909192939495565b60405180606001604052806040518060400160405280600781526020017f436861726c696500000000000000000000000000000000000000000000000000815250815260200160288152602001600115158152505f5f820151815f0190816103ff919061085c565b50602082015181600101556040820151816002015f6101000a81548160ff021916908315150217905550905050565b5f805f01805461043d9061064e565b80601f01602080910402602001604051908101604052809291908181526020018280546104699061064e565b80156104b45780601f1061048b576101008083540402835291602001916104b4565b820191905f5260205f20905b81548152906001019060200180831161049757829003601f168201915b505050505090806001015490806002015f9054906101000a900460ff16905083565b5f81519050919050565b5f82825260208201905092915050565b8281835e5f83830152505050565b5f601f19601f8301169050919050565b5f610518826104d6565b61052281856104e0565b93506105328185602086016104f0565b61053b816104fe565b840191505092915050565b5f819050919050565b61055881610546565b82525050565b5f8115159050919050565b6105728161055e565b82525050565b5f6060820190508181035f830152610590818661050e565b905061059f602083018561054f565b6105ac6040830184610569565b949350505050565b5f60c0820190508181035f8301526105cc818961050e565b90506105db602083018861054f565b6105e86040830187610569565b81810360608301526105fa818661050e565b9050610609608083018561054f565b61061660a0830184610569565b979650505050505050565b7f4e487b71000000000000000000000000000000000000000000000000000000005f52602260045260245ffd5b5f600282049050600182168061066557607f821691505b60208210810361067857610677610621565b5b50919050565b7f4e487b71000000000000000000000000000000000000000000000000000000005f52604160045260245ffd5b5f819050815f5260205f209050919050565b5f6020601f8301049050919050565b5f82821b905092915050565b5f600883026107077fffffffffffffffffffffffffffffffffffffffffffffffffffffffffffffffff826106cc565b61071186836106cc565b95508019841693508086168417925050509392505050565b5f819050919050565b5f61074c61074761074284610546565b610729565b610546565b9050919050565b5f819050919050565b61076583610732565b61077961077182610753565b8484546106d8565b825550505050565b5f5f905090565b610790610781565b61079b81848461075c565b505050565b5f5b828110156107c1576107b65f828401610788565b6001810190506107a2565b505050565b601f8211156108145782821115610813576107e0816106ab565b6107e9836106bd565b6107f2856106bd565b60208610156107ff575f90505b80830161080e828403826107a0565b505050505b5b505050565b5f82821c905092915050565b5f6108345f1984600802610819565b1980831691505092915050565b5f61084c8383610825565b9150826002028217905092915050565b610865826104d6565b67ffffffffffffffff81111561087e5761087d61067e565b5b610888825461064e565b6108938282856107c6565b5f60209050601f8311600181146108c4575f84156108b2578287015190505b6108bc8582610841565b865550610923565b601f1984166108d2866106ab565b5f5b828110156108f9578489015182556001820191506020850194506020810190506108d4565b868310156109165784890151610912601f891682610825565b8355505b6001600288020188555050505b50505050505056fea26469706673582212202b35f7667b06b16ed64ef8851c65976aeb50ccd508774968ab31bbef7729455b64736f6c63430008220033",
			"opcodes": "PUSH1 0x80 PUSH1 0x40 MSTORE CALLVALUE DUP1 ISZERO PUSH1 0xE JUMPI PUSH0 PUSH0 REVERT JUMPDEST POP PUSH2 0x961 DUP1 PUSH2 0x1C PUSH0 CODECOPY PUSH0 RETURN INVALID PUSH1 0x80 PUSH1 0x40 MSTORE CALLVALUE DUP1 ISZERO PUSH2 0xF JUMPI PUSH0 PUSH0 REVERT JUMPDEST POP PUSH1 0x4 CALLDATASIZE LT PUSH2 0x55 JUMPI PUSH0 CALLDATALOAD PUSH1 0xE0 SHR DUP1 PUSH4 0x3ED97DCB EQ PUSH2 0x59 JUMPI DUP1 PUSH4 0x5F596DFD EQ PUSH2 0x79 JUMPI DUP1 PUSH4 0x760B8B8D EQ PUSH2 0x99 JUMPI DUP1 PUSH4 0x82D8686F EQ PUSH2 0xBC JUMPI DUP1 PUSH4 0xE80C3F13 EQ PUSH2 0xC6 JUMPI JUMPDEST PUSH0 PUSH0 REVERT JUMPDEST PUSH2 0x61 PUSH2 0xE6 JUMP JUMPDEST PUSH1 0x40 MLOAD PUSH2 0x70 SWAP4 SWAP3 SWAP2 SWAP1 PUSH2 0x578 JUMP JUMPDEST PUSH1 0x40 MLOAD DUP1 SWAP2 SUB SWAP1 RETURN JUMPDEST PUSH2 0x81 PUSH2 0x15B JUMP JUMPDEST PUSH1 0x40 MLOAD PUSH2 0x90 SWAP4 SWAP3 SWAP2 SWAP1 PUSH2 0x578 JUMP JUMPDEST PUSH1 0x40 MLOAD DUP1 SWAP2 SUB SWAP1 RETURN JUMPDEST PUSH2 0xA1 PUSH2 0x1EB JUMP JUMPDEST PUSH1 0x40 MLOAD PUSH2 0xB3 SWAP7 SWAP6 SWAP5 SWAP4 SWAP3 SWAP2 SWAP1 PUSH2 0x5B4 JUMP JUMPDEST PUSH1 0x40 MLOAD DUP1 SWAP2 SUB SWAP1 RETURN JUMPDEST PUSH2 0xC4 PUSH2 0x397 JUMP JUMPDEST STOP JUMPDEST PUSH2 0xCE PUSH2 0x42E JUMP JUMPDEST PUSH1 0x40 MLOAD PUSH2 0xDD SWAP4 SWAP3 SWAP2 SWAP1 PUSH2 0x578 JUMP JUMPDEST PUSH1 0x40 MLOAD DUP1 SWAP2 SUB SWAP1 RETURN JUMPDEST PUSH1 0x60 PUSH0 PUSH0 PUSH0 PUSH1 0x40 MLOAD DUP1 PUSH1 0x60 ADD PUSH1 0x40 MSTORE DUP1 PUSH1 0x40 MLOAD DUP1 PUSH1 0x40 ADD PUSH1 0x40 MSTORE DUP1 PUSH1 0x5 DUP2 MSTORE PUSH1 0x20 ADD PUSH32 0x416C696365000000000000000000000000000000000000000000000000000000 DUP2 MSTORE POP DUP2 MSTORE PUSH1 0x20 ADD PUSH1 0x19 DUP2 MSTORE PUSH1 0x20 ADD PUSH1 0x1 ISZERO ISZERO DUP2 MSTORE POP SWAP1 POP DUP1 PUSH0 ADD MLOAD DUP2 PUSH1 0x20 ADD MLOAD DUP3 PUSH1 0x40 ADD MLOAD SWAP4 POP SWAP4 POP SWAP4 POP POP SWAP1 SWAP2 SWAP3 JUMP JUMPDEST PUSH1 0x60 PUSH0 PUSH0 PUSH0 PUSH1 0x40 MLOAD DUP1 PUSH1 0x60 ADD PUSH1 0x40 MSTORE DUP1 PUSH1 0x40 MLOAD DUP1 PUSH1 0x40 ADD PUSH1 0x40 MSTORE DUP1 PUSH1 0x3 DUP2 MSTORE PUSH1 0x20 ADD PUSH32 0x426F620000000000000000000000000000000000000000000000000000000000 DUP2 MSTORE POP DUP2 MSTORE PUSH1 0x20 ADD PUSH1 0x1E DUP2 MSTORE PUSH1 0x20 ADD PUSH1 0x1 ISZERO ISZERO DUP2 MSTORE POP SWAP1 POP PUSH1 0x63 DUP2 PUSH1 0x20 ADD DUP2 DUP2 MSTORE POP POP PUSH0 DUP2 PUSH1 0x40 ADD SWAP1 ISZERO ISZERO SWAP1 DUP2 ISZERO ISZERO DUP2 MSTORE POP POP DUP1 PUSH0 ADD MLOAD DUP2 PUSH1 0x20 ADD MLOAD DUP3 PUSH1 0x40 ADD MLOAD SWAP4 POP SWAP4 POP SWAP4 POP POP SWAP1 SWAP2 SWAP3 JUMP JUMPDEST PUSH1 0x60 PUSH0 PUSH0 PUSH1 0x60 PUSH0 PUSH0 PUSH0 PUSH0 PUSH1 0x40 MLOAD DUP1 PUSH1 0x60 ADD PUSH1 0x40 MSTORE SWAP1 DUP2 PUSH0 DUP3 ADD DUP1 SLOAD PUSH2 0x20F SWAP1 PUSH2 0x64E JUMP JUMPDEST DUP1 PUSH1 0x1F ADD PUSH1 0x20 DUP1 SWAP2 DIV MUL PUSH1 0x20 ADD PUSH1 0x40 MLOAD SWAP1 DUP2 ADD PUSH1 0x40 MSTORE DUP1 SWAP3 SWAP2 SWAP1 DUP2 DUP2 MSTORE PUSH1 0x20 ADD DUP3 DUP1 SLOAD PUSH2 0x23B SWAP1 PUSH2 0x64E JUMP JUMPDEST DUP1 ISZERO PUSH2 0x286 JUMPI DUP1 PUSH1 0x1F LT PUSH2 0x25D JUMPI PUSH2 0x100 DUP1 DUP4 SLOAD DIV MUL DUP4 MSTORE SWAP2 PUSH1 0x20 ADD SWAP2 PUSH2 0x286 JUMP JUMPDEST DUP3 ADD SWAP2 SWAP1 PUSH0 MSTORE PUSH1 0x20 PUSH0 KECCAK256 SWAP1 JUMPDEST DUP2 SLOAD DUP2 MSTORE SWAP1 PUSH1 0x1 ADD SWAP1 PUSH1 0x20 ADD DUP1 DUP4 GT PUSH2 0x269 JUMPI DUP3 SWAP1 SUB PUSH1 0x1F AND DUP3 ADD SWAP2 JUMPDEST POP POP POP POP POP DUP2 MSTORE PUSH1 0x20 ADD PUSH1 0x1 DUP3 ADD SLOAD DUP2 MSTORE PUSH1 0x20 ADD PUSH1 0x2 DUP3 ADD PUSH0 SWAP1 SLOAD SWAP1 PUSH2 0x100 EXP SWAP1 DIV PUSH1 0xFF AND ISZERO ISZERO ISZERO ISZERO DUP2 MSTORE POP POP SWAP1 POP PUSH2 0x3E7 DUP2 PUSH1 0x20 ADD DUP2 DUP2 MSTORE POP POP PUSH0 DUP2 PUSH1 0x40 ADD SWAP1 ISZERO ISZERO SWAP1 DUP2 ISZERO ISZERO DUP2 MSTORE POP POP DUP1 PUSH0 ADD MLOAD DUP2 PUSH1 0x20 ADD MLOAD DUP3 PUSH1 0x40 ADD MLOAD PUSH0 PUSH0 ADD PUSH0 PUSH1 0x1 ADD SLOAD PUSH0 PUSH1 0x2 ADD PUSH0 SWAP1 SLOAD SWAP1 PUSH2 0x100 EXP SWAP1 DIV PUSH1 0xFF AND DUP3 DUP1 SLOAD PUSH2 0x304 SWAP1 PUSH2 0x64E JUMP JUMPDEST DUP1 PUSH1 0x1F ADD PUSH1 0x20 DUP1 SWAP2 DIV MUL PUSH1 0x20 ADD PUSH1 0x40 MLOAD SWAP1 DUP2 ADD PUSH1 0x40 MSTORE DUP1 SWAP3 SWAP2 SWAP1 DUP2 DUP2 MSTORE PUSH1 0x20 ADD DUP3 DUP1 SLOAD PUSH2 0x330 SWAP1 PUSH2 0x64E JUMP JUMPDEST DUP1 ISZERO PUSH2 0x37B JUMPI DUP1 PUSH1 0x1F LT PUSH2 0x352 JUMPI PUSH2 0x100 DUP1 DUP4 SLOAD DIV MUL DUP4 MSTORE SWAP2 PUSH1 0x20 ADD SWAP2 PUSH2 0x37B JUMP JUMPDEST DUP3 ADD SWAP2 SWAP1 PUSH0 MSTORE PUSH1 0x20 PUSH0 KECCAK256 SWAP1 JUMPDEST DUP2 SLOAD DUP2 MSTORE SWAP1 PUSH1 0x1 ADD SWAP1 PUSH1 0x20 ADD DUP1 DUP4 GT PUSH2 0x35E JUMPI DUP3 SWAP1 SUB PUSH1 0x1F AND DUP3 ADD SWAP2 JUMPDEST POP POP POP POP POP SWAP3 POP SWAP7 POP SWAP7 POP SWAP7 POP SWAP7 POP SWAP7 POP SWAP7 POP POP SWAP1 SWAP2 SWAP3 SWAP4 SWAP5 SWAP6 JUMP JUMPDEST PUSH1 0x40 MLOAD DUP1 PUSH1 0x60 ADD PUSH1 0x40 MSTORE DUP1 PUSH1 0x40 MLOAD DUP1 PUSH1 0x40 ADD PUSH1 0x40 MSTORE DUP1 PUSH1 0x7 DUP2 MSTORE PUSH1 0x20 ADD PUSH32 0x436861726C696500000000000000000000000000000000000000000000000000 DUP2 MSTORE POP DUP2 MSTORE PUSH1 0x20 ADD PUSH1 0x28 DUP2 MSTORE PUSH1 0x20 ADD PUSH1 0x1 ISZERO ISZERO DUP2 MSTORE POP PUSH0 PUSH0 DUP3 ADD MLOAD DUP2 PUSH0 ADD SWAP1 DUP2 PUSH2 0x3FF SWAP2 SWAP1 PUSH2 0x85C JUMP JUMPDEST POP PUSH1 0x20 DUP3 ADD MLOAD DUP2 PUSH1 0x1 ADD SSTORE PUSH1 0x40 DUP3 ADD MLOAD DUP2 PUSH1 0x2 ADD PUSH0 PUSH2 0x100 EXP DUP2 SLOAD DUP2 PUSH1 0xFF MUL NOT AND SWAP1 DUP4 ISZERO ISZERO MUL OR SWAP1 SSTORE POP SWAP1 POP POP JUMP JUMPDEST PUSH0 DUP1 PUSH0 ADD DUP1 SLOAD PUSH2 0x43D SWAP1 PUSH2 0x64E JUMP JUMPDEST DUP1 PUSH1 0x1F ADD PUSH1 0x20 DUP1 SWAP2 DIV MUL PUSH1 0x20 ADD PUSH1 0x40 MLOAD SWAP1 DUP2 ADD PUSH1 0x40 MSTORE DUP1 SWAP3 SWAP2 SWAP1 DUP2 DUP2 MSTORE PUSH1 0x20 ADD DUP3 DUP1 SLOAD PUSH2 0x469 SWAP1 PUSH2 0x64E JUMP JUMPDEST DUP1 ISZERO PUSH2 0x4B4 JUMPI DUP1 PUSH1 0x1F LT PUSH2 0x48B JUMPI PUSH2 0x100 DUP1 DUP4 SLOAD DIV MUL DUP4 MSTORE SWAP2 PUSH1 0x20 ADD SWAP2 PUSH2 0x4B4 JUMP JUMPDEST DUP3 ADD SWAP2 SWAP1 PUSH0 MSTORE PUSH1 0x20 PUSH0 KECCAK256 SWAP1 JUMPDEST DUP2 SLOAD DUP2 MSTORE SWAP1 PUSH1 0x1 ADD SWAP1 PUSH1 0x20 ADD DUP1 DUP4 GT PUSH2 0x497 JUMPI DUP3 SWAP1 SUB PUSH1 0x1F AND DUP3 ADD SWAP2 JUMPDEST POP POP POP POP POP SWAP1 DUP1 PUSH1 0x1 ADD SLOAD SWAP1 DUP1 PUSH1 0x2 ADD PUSH0 SWAP1 SLOAD SWAP1 PUSH2 0x100 EXP SWAP1 DIV PUSH1 0xFF AND SWAP1 POP DUP4 JUMP JUMPDEST PUSH0 DUP2 MLOAD SWAP1 POP SWAP2 SWAP1 POP JUMP JUMPDEST PUSH0 DUP3 DUP3 MSTORE PUSH1 0x20 DUP3 ADD SWAP1 POP SWAP3 SWAP2 POP POP JUMP JUMPDEST DUP3 DUP2 DUP4 MCOPY PUSH0 DUP4 DUP4 ADD MSTORE POP POP POP JUMP JUMPDEST PUSH0 PUSH1 0x1F NOT PUSH1 0x1F DUP4 ADD AND SWAP1 POP SWAP2 SWAP1 POP JUMP JUMPDEST PUSH0 PUSH2 0x518 DUP3 PUSH2 0x4D6 JUMP JUMPDEST PUSH2 0x522 DUP2 DUP6 PUSH2 0x4E0 JUMP JUMPDEST SWAP4 POP PUSH2 0x532 DUP2 DUP6 PUSH1 0x20 DUP7 ADD PUSH2 0x4F0 JUMP JUMPDEST PUSH2 0x53B DUP2 PUSH2 0x4FE JUMP JUMPDEST DUP5 ADD SWAP2 POP POP SWAP3 SWAP2 POP POP JUMP JUMPDEST PUSH0 DUP2 SWAP1 POP SWAP2 SWAP1 POP JUMP JUMPDEST PUSH2 0x558 DUP2 PUSH2 0x546 JUMP JUMPDEST DUP3 MSTORE POP POP JUMP JUMPDEST PUSH0 DUP2 ISZERO ISZERO SWAP1 POP SWAP2 SWAP1 POP JUMP JUMPDEST PUSH2 0x572 DUP2 PUSH2 0x55E JUMP JUMPDEST DUP3 MSTORE POP POP JUMP JUMPDEST PUSH0 PUSH1 0x60 DUP3 ADD SWAP1 POP DUP2 DUP2 SUB PUSH0 DUP4 ADD MSTORE PUSH2 0x590 DUP2 DUP7 PUSH2 0x50E JUMP JUMPDEST SWAP1 POP PUSH2 0x59F PUSH1 0x20 DUP4 ADD DUP6 PUSH2 0x54F JUMP JUMPDEST PUSH2 0x5AC PUSH1 0x40 DUP4 ADD DUP5 PUSH2 0x569 JUMP JUMPDEST SWAP5 SWAP4 POP POP POP POP JUMP JUMPDEST PUSH0 PUSH1 0xC0 DUP3 ADD SWAP1 POP DUP2 DUP2 SUB PUSH0 DUP4 ADD MSTORE PUSH2 0x5CC DUP2 DUP10 PUSH2 0x50E JUMP JUMPDEST SWAP1 POP PUSH2 0x5DB PUSH1 0x20 DUP4 ADD DUP9 PUSH2 0x54F JUMP JUMPDEST PUSH2 0x5E8 PUSH1 0x40 DUP4 ADD DUP8 PUSH2 0x569 JUMP JUMPDEST DUP2 DUP2 SUB PUSH1 0x60 DUP4 ADD MSTORE PUSH2 0x5FA DUP2 DUP7 PUSH2 0x50E JUMP JUMPDEST SWAP1 POP PUSH2 0x609 PUSH1 0x80 DUP4 ADD DUP6 PUSH2 0x54F JUMP JUMPDEST PUSH2 0x616 PUSH1 0xA0 DUP4 ADD DUP5 PUSH2 0x569 JUMP JUMPDEST SWAP8 SWAP7 POP POP POP POP POP POP POP JUMP JUMPDEST PUSH32 0x4E487B7100000000000000000000000000000000000000000000000000000000 PUSH0 MSTORE PUSH1 0x22 PUSH1 0x4 MSTORE PUSH1 0x24 PUSH0 REVERT JUMPDEST PUSH0 PUSH1 0x2 DUP3 DIV SWAP1 POP PUSH1 0x1 DUP3 AND DUP1 PUSH2 0x665 JUMPI PUSH1 0x7F DUP3 AND SWAP2 POP JUMPDEST PUSH1 0x20 DUP3 LT DUP2 SUB PUSH2 0x678 JUMPI PUSH2 0x677 PUSH2 0x621 JUMP JUMPDEST JUMPDEST POP SWAP2 SWAP1 POP JUMP JUMPDEST PUSH32 0x4E487B7100000000000000000000000000000000000000000000000000000000 PUSH0 MSTORE PUSH1 0x41 PUSH1 0x4 MSTORE PUSH1 0x24 PUSH0 REVERT JUMPDEST PUSH0 DUP2 SWAP1 POP DUP2 PUSH0 MSTORE PUSH1 0x20 PUSH0 KECCAK256 SWAP1 POP SWAP2 SWAP1 POP JUMP JUMPDEST PUSH0 PUSH1 0x20 PUSH1 0x1F DUP4 ADD DIV SWAP1 POP SWAP2 SWAP1 POP JUMP JUMPDEST PUSH0 DUP3 DUP3 SHL SWAP1 POP SWAP3 SWAP2 POP POP JUMP JUMPDEST PUSH0 PUSH1 0x8 DUP4 MUL PUSH2 0x707 PUSH32 0xFFFFFFFFFFFFFFFFFFFFFFFFFFFFFFFFFFFFFFFFFFFFFFFFFFFFFFFFFFFFFFFF DUP3 PUSH2 0x6CC JUMP JUMPDEST PUSH2 0x711 DUP7 DUP4 PUSH2 0x6CC JUMP JUMPDEST SWAP6 POP DUP1 NOT DUP5 AND SWAP4 POP DUP1 DUP7 AND DUP5 OR SWAP3 POP POP POP SWAP4 SWAP3 POP POP POP JUMP JUMPDEST PUSH0 DUP2 SWAP1 POP SWAP2 SWAP1 POP JUMP JUMPDEST PUSH0 PUSH2 0x74C PUSH2 0x747 PUSH2 0x742 DUP5 PUSH2 0x546 JUMP JUMPDEST PUSH2 0x729 JUMP JUMPDEST PUSH2 0x546 JUMP JUMPDEST SWAP1 POP SWAP2 SWAP1 POP JUMP JUMPDEST PUSH0 DUP2 SWAP1 POP SWAP2 SWAP1 POP JUMP JUMPDEST PUSH2 0x765 DUP4 PUSH2 0x732 JUMP JUMPDEST PUSH2 0x779 PUSH2 0x771 DUP3 PUSH2 0x753 JUMP JUMPDEST DUP5 DUP5 SLOAD PUSH2 0x6D8 JUMP JUMPDEST DUP3 SSTORE POP POP POP POP JUMP JUMPDEST PUSH0 PUSH0 SWAP1 POP SWAP1 JUMP JUMPDEST PUSH2 0x790 PUSH2 0x781 JUMP JUMPDEST PUSH2 0x79B DUP2 DUP5 DUP5 PUSH2 0x75C JUMP JUMPDEST POP POP POP JUMP JUMPDEST PUSH0 JUMPDEST DUP3 DUP2 LT ISZERO PUSH2 0x7C1 JUMPI PUSH2 0x7B6 PUSH0 DUP3 DUP5 ADD PUSH2 0x788 JUMP JUMPDEST PUSH1 0x1 DUP2 ADD SWAP1 POP PUSH2 0x7A2 JUMP JUMPDEST POP POP POP JUMP JUMPDEST PUSH1 0x1F DUP3 GT ISZERO PUSH2 0x814 JUMPI DUP3 DUP3 GT ISZERO PUSH2 0x813 JUMPI PUSH2 0x7E0 DUP2 PUSH2 0x6AB JUMP JUMPDEST PUSH2 0x7E9 DUP4 PUSH2 0x6BD JUMP JUMPDEST PUSH2 0x7F2 DUP6 PUSH2 0x6BD JUMP JUMPDEST PUSH1 0x20 DUP7 LT ISZERO PUSH2 0x7FF JUMPI PUSH0 SWAP1 POP JUMPDEST DUP1 DUP4 ADD PUSH2 0x80E DUP3 DUP5 SUB DUP3 PUSH2 0x7A0 JUMP JUMPDEST POP POP POP POP JUMPDEST JUMPDEST POP POP POP JUMP JUMPDEST PUSH0 DUP3 DUP3 SHR SWAP1 POP SWAP3 SWAP2 POP POP JUMP JUMPDEST PUSH0 PUSH2 0x834 PUSH0 NOT DUP5 PUSH1 0x8 MUL PUSH2 0x819 JUMP JUMPDEST NOT DUP1 DUP4 AND SWAP2 POP POP SWAP3 SWAP2 POP POP JUMP JUMPDEST PUSH0 PUSH2 0x84C DUP4 DUP4 PUSH2 0x825 JUMP JUMPDEST SWAP2 POP DUP3 PUSH1 0x2 MUL DUP3 OR SWAP1 POP SWAP3 SWAP2 POP POP JUMP JUMPDEST PUSH2 0x865 DUP3 PUSH2 0x4D6 JUMP JUMPDEST PUSH8 0xFFFFFFFFFFFFFFFF DUP2 GT ISZERO PUSH2 0x87E JUMPI PUSH2 0x87D PUSH2 0x67E JUMP JUMPDEST JUMPDEST PUSH2 0x888 DUP3 SLOAD PUSH2 0x64E JUMP JUMPDEST PUSH2 0x893 DUP3 DUP3 DUP6 PUSH2 0x7C6 JUMP JUMPDEST PUSH0 PUSH1 0x20 SWAP1 POP PUSH1 0x1F DUP4 GT PUSH1 0x1 DUP2 EQ PUSH2 0x8C4 JUMPI PUSH0 DUP5 ISZERO PUSH2 0x8B2 JUMPI DUP3 DUP8 ADD MLOAD SWAP1 POP JUMPDEST PUSH2 0x8BC DUP6 DUP3 PUSH2 0x841 JUMP JUMPDEST DUP7 SSTORE POP PUSH2 0x923 JUMP JUMPDEST PUSH1 0x1F NOT DUP5 AND PUSH2 0x8D2 DUP7 PUSH2 0x6AB JUMP JUMPDEST PUSH0 JUMPDEST DUP3 DUP2 LT ISZERO PUSH2 0x8F9 JUMPI DUP5 DUP10 ADD MLOAD DUP3 SSTORE PUSH1 0x1 DUP3 ADD SWAP2 POP PUSH1 0x20 DUP6 ADD SWAP5 POP PUSH1 0x20 DUP2 ADD SWAP1 POP PUSH2 0x8D4 JUMP JUMPDEST DUP7 DUP4 LT ISZERO PUSH2 0x916 JUMPI DUP5 DUP10 ADD MLOAD PUSH2 0x912 PUSH1 0x1F DUP10 AND DUP3 PUSH2 0x825 JUMP JUMPDEST DUP4 SSTORE POP JUMPDEST PUSH1 0x1 PUSH1 0x2 DUP9 MUL ADD DUP9 SSTORE POP POP POP JUMPDEST POP POP POP POP POP POP JUMP INVALID LOG2 PUSH5 0x6970667358 0x22 SLT KECCAK256 0x2B CALLDATALOAD 0xF7 PUSH7 0x7B06B16ED64EF8 DUP6 SHR PUSH6 0x976AEB50CCD5 ADDMOD PUSH24 0x4968AB31BBEF7729455B64736F6C63430008220033000000 "
		},
		"gasEstimates": {
			"creation": {
				"codeDepositCost": "480200",
				"executionCost": "516",
				"totalCost": "480716"
			},
			"external": {
				"createAndModifyMemoryStruct()": "infinite",
				"createMemoryStruct()": "infinite",
				"modifierMemoryCopy()": "infinite",
				"storeUser()": "infinite",
				"storedUser()": "infinite"
			}
		},
		"methodIdentifiers": {
			"createAndModifyMemoryStruct()": "5f596dfd",
			"createMemoryStruct()": "3ed97dcb",
			"modifierMemoryCopy()": "760b8b8d",
			"storeUser()": "82d8686f",
			"storedUser()": "e80c3f13"
		}
	},
	"abi": [
		{
			"inputs": [],
			"name": "createAndModifyMemoryStruct",
			"outputs": [
				{
					"internalType": "string",
					"name": "",
					"type": "string"
				},
				{
					"internalType": "uint256",
					"name": "",
					"type": "uint256"
				},
				{
					"internalType": "bool",
					"name": "",
					"type": "bool"
				}
			],
			"stateMutability": "pure",
			"type": "function"
		},
		{
			"inputs": [],
			"name": "createMemoryStruct",
			"outputs": [
				{
					"internalType": "string",
					"name": "",
					"type": "string"
				},
				{
					"internalType": "uint256",
					"name": "",
					"type": "uint256"
				},
				{
					"internalType": "bool",
					"name": "",
					"type": "bool"
				}
			],
			"stateMutability": "pure",
			"type": "function"
		},
		{
			"inputs": [],
			"name": "modifierMemoryCopy",
			"outputs": [
				{
					"internalType": "string",
					"name": "memoryname",
					"type": "string"
				},
				{
					"internalType": "uint256",
					"name": "memoryAge",
					"type": "uint256"
				},
				{
					"internalType": "bool",
					"name": "memoryActive",
					"type": "bool"
				},
				{
					"internalType": "string",
					"name": "storageeName",
					"type": "string"
				},
				{
					"internalType": "uint256",
					"name": "storageAge",
					"type": "uint256"
				},
				{
					"internalType": "bool",
					"name": "storageActive",
					"type": "bool"
				}
			],
			"stateMutability": "view",
			"type": "function"
		},
		{
			"inputs": [],
			"name": "storeUser",
			"outputs": [],
			"stateMutability": "nonpayable",
			"type": "function"
		},
		{
			"inputs": [],
			"name": "storedUser",
			"outputs": [
				{
					"internalType": "string",
					"name": "name",
					"type": "string"
				},
				{
					"internalType": "uint256",
					"name": "age",
					"type": "uint256"
				},
				{
					"internalType": "bool",
					"name": "active",
					"type": "bool"
				}
			],
			"stateMutability": "view",
			"type": "function"
		}
	]
}