{
	"data": {
		"bytecode": {
			"linkReferences": {},
			"object": "60806040526040518060400160405280600a81526020017f426c6f636b636861696e000000000000000000000000000000000000000000008152505f908161004791906102a7565b50348015610053575f5ffd5b50610376565b5f81519050919050565b7f4e487b71000000000000000000000000000000000000000000000000000000005f52604160045260245ffd5b7f4e487b71000000000000000000000000000000000000000000000000000000005f52602260045260245ffd5b5f60028204905060018216806100d457607f821691505b6020821081036100e7576100e6610090565b5b50919050565b5f819050815f5260205f209050919050565b5f6020601f8301049050919050565b5f82821b905092915050565b5f600883026101497fffffffffffffffffffffffffffffffffffffffffffffffffffffffffffffffff8261010e565b610153868361010e565b95508019841693508086168417925050509392505050565b5f819050919050565b5f819050919050565b5f61019761019261018d8461016b565b610174565b61016b565b9050919050565b5f819050919050565b6101b08361017d565b6101c46101bc8261019e565b84845461011a565b825550505050565b5f5f905090565b6101db6101cc565b6101e68184846101a7565b505050565b5f5b8281101561020c576102015f8284016101d3565b6001810190506101ed565b505050565b601f82111561025f578282111561025e5761022b816100ed565b610234836100ff565b61023d856100ff565b602086101561024a575f90505b808301610259828403826101eb565b505050505b5b505050565b5f82821c905092915050565b5f61027f5f1984600802610264565b1980831691505092915050565b5f6102978383610270565b9150826002028217905092915050565b6102b082610059565b67ffffffffffffffff8111156102c9576102c8610063565b5b6102d382546100bd565b6102de828285610211565b5f60209050601f83116001811461030f575f84156102fd578287015190505b610307858261028c565b86555061036e565b601f19841661031d866100ed565b5f5b828110156103445784890151825560018201915060208501945060208101905061031f565b86831015610361578489015161035d601f891682610270565b8355505b6001600288020188555050505b505050505050565b61059d806103835f395ff3fe608060405234801561000f575f5ffd5b5060043610610055575f3560e01c80633940516b1461005957806346d724d314610077578063a05a387414610095578063c59083f5146100b3578063e10a949c146100d1575b5f5ffd5b6100616100ef565b60405161006e9190610388565b60405180910390f35b61007f610131565b60405161008c9190610388565b60405180910390f35b61009d6101c5565b6040516100aa91906103c0565b60405180910390f35b6100bb6101d2565b6040516100c89190610490565b60405180910390f35b6100d961028d565b6040516100e69190610388565b60405180910390f35b60605f6040518060400160405280600881526020017f536f6c696469747900000000000000000000000000000000000000000000000081525090508091505090565b60605f5f8054610140906104dd565b80601f016020809104026020016040519081016040528092919081815260200182805461016c906104dd565b80156101b75780601f1061018e576101008083540402835291602001916101b7565b820191905f5260205f20905b81548152906001019060200180831161019a57829003601f168201915b505050505090508091505090565b5f5f606490508091505090565b60605f600367ffffffffffffffff8111156101f0576101ef61050d565b5b60405190808252806020026020018201604052801561021e5781602001602082028036833780820191505090505b509050600a815f815181106102365761023561053a565b5b6020026020010181815250506014816001815181106102585761025761053a565b5b602002602001018181525050601e8160028151811061027a5761027961053a565b5b6020026020010181815250508091505090565b5f8054610299906104dd565b80601f01602080910402602001604051908101604052809291908181526020018280546102c5906104dd565b80156103105780601f106102e757610100808354040283529160200191610310565b820191905f5260205f20905b8154815290600101906020018083116102f357829003601f168201915b505050505081565b5f81519050919050565b5f82825260208201905092915050565b8281835e5f83830152505050565b5f601f19601f8301169050919050565b5f61035a82610318565b6103648185610322565b9350610374818560208601610332565b61037d81610340565b840191505092915050565b5f6020820190508181035f8301526103a08184610350565b905092915050565b5f819050919050565b6103ba816103a8565b82525050565b5f6020820190506103d35f8301846103b1565b92915050565b5f81519050919050565b5f82825260208201905092915050565b5f819050602082019050919050565b61040b816103a8565b82525050565b5f61041c8383610402565b60208301905092915050565b5f602082019050919050565b5f61043e826103d9565b61044881856103e3565b9350610453836103f3565b805f5b8381101561048357815161046a8882610411565b975061047583610428565b925050600181019050610456565b5085935050505092915050565b5f6020820190508181035f8301526104a88184610434565b905092915050565b7f4e487b71000000000000000000000000000000000000000000000000000000005f52602260045260245ffd5b5f60028204905060018216806104f457607f821691505b602082108103610507576105066104b0565b5b50919050565b7f4e487b71000000000000000000000000000000000000000000000000000000005f52604160045260245ffd5b7f4e487b71000000000000000000000000000000000000000000000000000000005f52603260045260245ffdfea26469706673582212205979a658bfdd53630d2e65c37fc6f3c5be428750e12907f1650a5eeaac054e9a64736f6c63430008220033",
			"opcodes": "PUSH1 0x80 PUSH1 0x40 MSTORE PUSH1 0x40 MLOAD DUP1 PUSH1 0x40 ADD PUSH1 0x40 MSTORE DUP1 PUSH1 0xA DUP2 MSTORE PUSH1 0x20 ADD PUSH32 0x426C6F636B636861696E00000000000000000000000000000000000000000000 DUP2 MSTORE POP PUSH0 SWAP1 DUP2 PUSH2 0x47 SWAP2 SWAP1 PUSH2 0x2A7 JUMP JUMPDEST POP CALLVALUE DUP1 ISZERO PUSH2 0x53 JUMPI PUSH0 PUSH0 REVERT JUMPDEST POP PUSH2 0x376 JUMP JUMPDEST PUSH0 DUP2 MLOAD SWAP1 POP SWAP2 SWAP1 POP JUMP JUMPDEST PUSH32 0x4E487B7100000000000000000000000000000000000000000000000000000000 PUSH0 MSTORE PUSH1 0x41 PUSH1 0x4 MSTORE PUSH1 0x24 PUSH0 REVERT JUMPDEST PUSH32 0x4E487B7100000000000000000000000000000000000000000000000000000000 PUSH0 MSTORE PUSH1 0x22 PUSH1 0x4 MSTORE PUSH1 0x24 PUSH0 REVERT JUMPDEST PUSH0 PUSH1 0x2 DUP3 DIV SWAP1 POP PUSH1 0x1 DUP3 AND DUP1 PUSH2 0xD4 JUMPI PUSH1 0x7F DUP3 AND SWAP2 POP JUMPDEST PUSH1 0x20 DUP3 LT DUP2 SUB PUSH2 0xE7 JUMPI PUSH2 0xE6 PUSH2 0x90 JUMP JUMPDEST JUMPDEST POP SWAP2 SWAP1 POP JUMP JUMPDEST PUSH0 DUP2 SWAP1 POP DUP2 PUSH0 MSTORE PUSH1 0x20 PUSH0 KECCAK256 SWAP1 POP SWAP2 SWAP1 POP JUMP JUMPDEST PUSH0 PUSH1 0x20 PUSH1 0x1F DUP4 ADD DIV SWAP1 POP SWAP2 SWAP1 POP JUMP JUMPDEST PUSH0 DUP3 DUP3 SHL SWAP1 POP SWAP3 SWAP2 POP POP JUMP JUMPDEST PUSH0 PUSH1 0x8 DUP4 MUL PUSH2 0x149 PUSH32 0xFFFFFFFFFFFFFFFFFFFFFFFFFFFFFFFFFFFFFFFFFFFFFFFFFFFFFFFFFFFFFFFF DUP3 PUSH2 0x10E JUMP JUMPDEST PUSH2 0x153 DUP7 DUP4 PUSH2 0x10E JUMP JUMPDEST SWAP6 POP DUP1 NOT DUP5 AND SWAP4 POP DUP1 DUP7 AND DUP5 OR SWAP3 POP POP POP SWAP4 SWAP3 POP POP POP JUMP JUMPDEST PUSH0 DUP2 SWAP1 POP SWAP2 SWAP1 POP JUMP JUMPDEST PUSH0 DUP2 SWAP1 POP SWAP2 SWAP1 POP JUMP JUMPDEST PUSH0 PUSH2 0x197 PUSH2 0x192 PUSH2 0x18D DUP5 PUSH2 0x16B JUMP JUMPDEST PUSH2 0x174 JUMP JUMPDEST PUSH2 0x16B JUMP JUMPDEST SWAP1 POP SWAP2 SWAP1 POP JUMP JUMPDEST PUSH0 DUP2 SWAP1 POP SWAP2 SWAP1 POP JUMP JUMPDEST PUSH2 0x1B0 DUP4 PUSH2 0x17D JUMP JUMPDEST PUSH2 0x1C4 PUSH2 0x1BC DUP3 PUSH2 0x19E JUMP JUMPDEST DUP5 DUP5 SLOAD PUSH2 0x11A JUMP JUMPDEST DUP3 SSTORE POP POP POP POP JUMP JUMPDEST PUSH0 PUSH0 SWAP1 POP SWAP1 JUMP JUMPDEST PUSH2 0x1DB PUSH2 0x1CC JUMP JUMPDEST PUSH2 0x1E6 DUP2 DUP5 DUP5 PUSH2 0x1A7 JUMP JUMPDEST POP POP POP JUMP JUMPDEST PUSH0 JUMPDEST DUP3 DUP2 LT ISZERO PUSH2 0x20C JUMPI PUSH2 0x201 PUSH0 DUP3 DUP5 ADD PUSH2 0x1D3 JUMP JUMPDEST PUSH1 0x1 DUP2 ADD SWAP1 POP PUSH2 0x1ED JUMP JUMPDEST POP POP POP JUMP JUMPDEST PUSH1 0x1F DUP3 GT ISZERO PUSH2 0x25F JUMPI DUP3 DUP3 GT ISZERO PUSH2 0x25E JUMPI PUSH2 0x22B DUP2 PUSH2 0xED JUMP JUMPDEST PUSH2 0x234 DUP4 PUSH2 0xFF JUMP JUMPDEST PUSH2 0x23D DUP6 PUSH2 0xFF JUMP JUMPDEST PUSH1 0x20 DUP7 LT ISZERO PUSH2 0x24A JUMPI PUSH0 SWAP1 POP JUMPDEST DUP1 DUP4 ADD PUSH2 0x259 DUP3 DUP5 SUB DUP3 PUSH2 0x1EB JUMP JUMPDEST POP POP POP POP JUMPDEST JUMPDEST POP POP POP JUMP JUMPDEST PUSH0 DUP3 DUP3 SHR SWAP1 POP SWAP3 SWAP2 POP POP JUMP JUMPDEST PUSH0 PUSH2 0x27F PUSH0 NOT DUP5 PUSH1 0x8 MUL PUSH2 0x264 JUMP JUMPDEST NOT DUP1 DUP4 AND SWAP2 POP POP SWAP3 SWAP2 POP POP JUMP JUMPDEST PUSH0 PUSH2 0x297 DUP4 DUP4 PUSH2 0x270 JUMP JUMPDEST SWAP2 POP DUP3 PUSH1 0x2 MUL DUP3 OR SWAP1 POP SWAP3 SWAP2 POP POP JUMP JUMPDEST PUSH2 0x2B0 DUP3 PUSH2 0x59 JUMP JUMPDEST PUSH8 0xFFFFFFFFFFFFFFFF DUP2 GT ISZERO PUSH2 0x2C9 JUMPI PUSH2 0x2C8 PUSH2 0x63 JUMP JUMPDEST JUMPDEST PUSH2 0x2D3 DUP3 SLOAD PUSH2 0xBD JUMP JUMPDEST PUSH2 0x2DE DUP3 DUP3 DUP6 PUSH2 0x211 JUMP JUMPDEST PUSH0 PUSH1 0x20 SWAP1 POP PUSH1 0x1F DUP4 GT PUSH1 0x1 DUP2 EQ PUSH2 0x30F JUMPI PUSH0 DUP5 ISZERO PUSH2 0x2FD JUMPI DUP3 DUP8 ADD MLOAD SWAP1 POP JUMPDEST PUSH2 0x307 DUP6 DUP3 PUSH2 0x28C JUMP JUMPDEST DUP7 SSTORE POP PUSH2 0x36E JUMP JUMPDEST PUSH1 0x1F NOT DUP5 AND PUSH2 0x31D DUP7 PUSH2 0xED JUMP JUMPDEST PUSH0 JUMPDEST DUP3 DUP2 LT ISZERO PUSH2 0x344 JUMPI DUP5 DUP10 ADD MLOAD DUP3 SSTORE PUSH1 0x1 DUP3 ADD SWAP2 POP PUSH1 0x20 DUP6 ADD SWAP5 POP PUSH1 0x20 DUP2 ADD SWAP1 POP PUSH2 0x31F JUMP JUMPDEST DUP7 DUP4 LT ISZERO PUSH2 0x361 JUMPI DUP5 DUP10 ADD MLOAD PUSH2 0x35D PUSH1 0x1F DUP10 AND DUP3 PUSH2 0x270 JUMP JUMPDEST DUP4 SSTORE POP JUMPDEST PUSH1 0x1 PUSH1 0x2 DUP9 MUL ADD DUP9 SSTORE POP POP POP JUMPDEST POP POP POP POP POP POP JUMP JUMPDEST PUSH2 0x59D DUP1 PUSH2 0x383 PUSH0 CODECOPY PUSH0 RETURN INVALID PUSH1 0x80 PUSH1 0x40 MSTORE CALLVALUE DUP1 ISZERO PUSH2 0xF JUMPI PUSH0 PUSH0 REVERT JUMPDEST POP PUSH1 0x4 CALLDATASIZE LT PUSH2 0x55 JUMPI PUSH0 CALLDATALOAD PUSH1 0xE0 SHR DUP1 PUSH4 0x3940516B EQ PUSH2 0x59 JUMPI DUP1 PUSH4 0x46D724D3 EQ PUSH2 0x77 JUMPI DUP1 PUSH4 0xA05A3874 EQ PUSH2 0x95 JUMPI DUP1 PUSH4 0xC59083F5 EQ PUSH2 0xB3 JUMPI DUP1 PUSH4 0xE10A949C EQ PUSH2 0xD1 JUMPI JUMPDEST PUSH0 PUSH0 REVERT JUMPDEST PUSH2 0x61 PUSH2 0xEF JUMP JUMPDEST PUSH1 0x40 MLOAD PUSH2 0x6E SWAP2 SWAP1 PUSH2 0x388 JUMP JUMPDEST PUSH1 0x40 MLOAD DUP1 SWAP2 SUB SWAP1 RETURN JUMPDEST PUSH2 0x7F PUSH2 0x131 JUMP JUMPDEST PUSH1 0x40 MLOAD PUSH2 0x8C SWAP2 SWAP1 PUSH2 0x388 JUMP JUMPDEST PUSH1 0x40 MLOAD DUP1 SWAP2 SUB SWAP1 RETURN JUMPDEST PUSH2 0x9D PUSH2 0x1C5 JUMP JUMPDEST PUSH1 0x40 MLOAD PUSH2 0xAA SWAP2 SWAP1 PUSH2 0x3C0 JUMP JUMPDEST PUSH1 0x40 MLOAD DUP1 SWAP2 SUB SWAP1 RETURN JUMPDEST PUSH2 0xBB PUSH2 0x1D2 JUMP JUMPDEST PUSH1 0x40 MLOAD PUSH2 0xC8 SWAP2 SWAP1 PUSH2 0x490 JUMP JUMPDEST PUSH1 0x40 MLOAD DUP1 SWAP2 SUB SWAP1 RETURN JUMPDEST PUSH2 0xD9 PUSH2 0x28D JUMP JUMPDEST PUSH1 0x40 MLOAD PUSH2 0xE6 SWAP2 SWAP1 PUSH2 0x388 JUMP JUMPDEST PUSH1 0x40 MLOAD DUP1 SWAP2 SUB SWAP1 RETURN JUMPDEST PUSH1 0x60 PUSH0 PUSH1 0x40 MLOAD DUP1 PUSH1 0x40 ADD PUSH1 0x40 MSTORE DUP1 PUSH1 0x8 DUP2 MSTORE PUSH1 0x20 ADD PUSH32 0x536F6C6964697479000000000000000000000000000000000000000000000000 DUP2 MSTORE POP SWAP1 POP DUP1 SWAP2 POP POP SWAP1 JUMP JUMPDEST PUSH1 0x60 PUSH0 PUSH0 DUP1 SLOAD PUSH2 0x140 SWAP1 PUSH2 0x4DD JUMP JUMPDEST DUP1 PUSH1 0x1F ADD PUSH1 0x20 DUP1 SWAP2 DIV MUL PUSH1 0x20 ADD PUSH1 0x40 MLOAD SWAP1 DUP2 ADD PUSH1 0x40 MSTORE DUP1 SWAP3 SWAP2 SWAP1 DUP2 DUP2 MSTORE PUSH1 0x20 ADD DUP3 DUP1 SLOAD PUSH2 0x16C SWAP1 PUSH2 0x4DD JUMP JUMPDEST DUP1 ISZERO PUSH2 0x1B7 JUMPI DUP1 PUSH1 0x1F LT PUSH2 0x18E JUMPI PUSH2 0x100 DUP1 DUP4 SLOAD DIV MUL DUP4 MSTORE SWAP2 PUSH1 0x20 ADD SWAP2 PUSH2 0x1B7 JUMP JUMPDEST DUP3 ADD SWAP2 SWAP1 PUSH0 MSTORE PUSH1 0x20 PUSH0 KECCAK256 SWAP1 JUMPDEST DUP2 SLOAD DUP2 MSTORE SWAP1 PUSH1 0x1 ADD SWAP1 PUSH1 0x20 ADD DUP1 DUP4 GT PUSH2 0x19A JUMPI DUP3 SWAP1 SUB PUSH1 0x1F AND DUP3 ADD SWAP2 JUMPDEST POP POP POP POP POP SWAP1 POP DUP1 SWAP2 POP POP SWAP1 JUMP JUMPDEST PUSH0 PUSH0 PUSH1 0x64 SWAP1 POP DUP1 SWAP2 POP POP SWAP1 JUMP JUMPDEST PUSH1 0x60 PUSH0 PUSH1 0x3 PUSH8 0xFFFFFFFFFFFFFFFF DUP2 GT ISZERO PUSH2 0x1F0 JUMPI PUSH2 0x1EF PUSH2 0x50D JUMP JUMPDEST JUMPDEST PUSH1 0x40 MLOAD SWAP1 DUP1 DUP3 MSTORE DUP1 PUSH1 0x20 MUL PUSH1 0x20 ADD DUP3 ADD PUSH1 0x40 MSTORE DUP1 ISZERO PUSH2 0x21E JUMPI DUP2 PUSH1 0x20 ADD PUSH1 0x20 DUP3 MUL DUP1 CALLDATASIZE DUP4 CALLDATACOPY DUP1 DUP3 ADD SWAP2 POP POP SWAP1 POP JUMPDEST POP SWAP1 POP PUSH1 0xA DUP2 PUSH0 DUP2 MLOAD DUP2 LT PUSH2 0x236 JUMPI PUSH2 0x235 PUSH2 0x53A JUMP JUMPDEST JUMPDEST PUSH1 0x20 MUL PUSH1 0x20 ADD ADD DUP2 DUP2 MSTORE POP POP PUSH1 0x14 DUP2 PUSH1 0x1 DUP2 MLOAD DUP2 LT PUSH2 0x258 JUMPI PUSH2 0x257 PUSH2 0x53A JUMP JUMPDEST JUMPDEST PUSH1 0x20 MUL PUSH1 0x20 ADD ADD DUP2 DUP2 MSTORE POP POP PUSH1 0x1E DUP2 PUSH1 0x2 DUP2 MLOAD DUP2 LT PUSH2 0x27A JUMPI PUSH2 0x279 PUSH2 0x53A JUMP JUMPDEST JUMPDEST PUSH1 0x20 MUL PUSH1 0x20 ADD ADD DUP2 DUP2 MSTORE POP POP DUP1 SWAP2 POP POP SWAP1 JUMP JUMPDEST PUSH0 DUP1 SLOAD PUSH2 0x299 SWAP1 PUSH2 0x4DD JUMP JUMPDEST DUP1 PUSH1 0x1F ADD PUSH1 0x20 DUP1 SWAP2 DIV MUL PUSH1 0x20 ADD PUSH1 0x40 MLOAD SWAP1 DUP2 ADD PUSH1 0x40 MSTORE DUP1 SWAP3 SWAP2 SWAP1 DUP2 DUP2 MSTORE PUSH1 0x20 ADD DUP3 DUP1 SLOAD PUSH2 0x2C5 SWAP1 PUSH2 0x4DD JUMP JUMPDEST DUP1 ISZERO PUSH2 0x310 JUMPI DUP1 PUSH1 0x1F LT PUSH2 0x2E7 JUMPI PUSH2 0x100 DUP1 DUP4 SLOAD DIV MUL DUP4 MSTORE SWAP2 PUSH1 0x20 ADD SWAP2 PUSH2 0x310 JUMP JUMPDEST DUP3 ADD SWAP2 SWAP1 PUSH0 MSTORE PUSH1 0x20 PUSH0 KECCAK256 SWAP1 JUMPDEST DUP2 SLOAD DUP2 MSTORE SWAP1 PUSH1 0x1 ADD SWAP1 PUSH1 0x20 ADD DUP1 DUP4 GT PUSH2 0x2F3 JUMPI DUP3 SWAP1 SUB PUSH1 0x1F AND DUP3 ADD SWAP2 JUMPDEST POP POP POP POP POP DUP2 JUMP JUMPDEST PUSH0 DUP2 MLOAD SWAP1 POP SWAP2 SWAP1 POP JUMP JUMPDEST PUSH0 DUP3 DUP3 MSTORE PUSH1 0x20 DUP3 ADD SWAP1 POP SWAP3 SWAP2 POP POP JUMP JUMPDEST DUP3 DUP2 DUP4 MCOPY PUSH0 DUP4 DUP4 ADD MSTORE POP POP POP JUMP JUMPDEST PUSH0 PUSH1 0x1F NOT PUSH1 0x1F DUP4 ADD AND SWAP1 POP SWAP2 SWAP1 POP JUMP JUMPDEST PUSH0 PUSH2 0x35A DUP3 PUSH2 0x318 JUMP JUMPDEST PUSH2 0x364 DUP2 DUP6 PUSH2 0x322 JUMP JUMPDEST SWAP4 POP PUSH2 0x374 DUP2 DUP6 PUSH1 0x20 DUP7 ADD PUSH2 0x332 JUMP JUMPDEST PUSH2 0x37D DUP2 PUSH2 0x340 JUMP JUMPDEST DUP5 ADD SWAP2 POP POP SWAP3 SWAP2 POP POP JUMP JUMPDEST PUSH0 PUSH1 0x20 DUP3 ADD SWAP1 POP DUP2 DUP2 SUB PUSH0 DUP4 ADD MSTORE PUSH2 0x3A0 DUP2 DUP5 PUSH2 0x350 JUMP JUMPDEST SWAP1 POP SWAP3 SWAP2 POP POP JUMP JUMPDEST PUSH0 DUP2 SWAP1 POP SWAP2 SWAP1 POP JUMP JUMPDEST PUSH2 0x3BA DUP2 PUSH2 0x3A8 JUMP JUMPDEST DUP3 MSTORE POP POP JUMP JUMPDEST PUSH0 PUSH1 0x20 DUP3 ADD SWAP1 POP PUSH2 0x3D3 PUSH0 DUP4 ADD DUP5 PUSH2 0x3B1 JUMP JUMPDEST SWAP3 SWAP2 POP POP JUMP JUMPDEST PUSH0 DUP2 MLOAD SWAP1 POP SWAP2 SWAP1 POP JUMP JUMPDEST PUSH0 DUP3 DUP3 MSTORE PUSH1 0x20 DUP3 ADD SWAP1 POP SWAP3 SWAP2 POP POP JUMP JUMPDEST PUSH0 DUP2 SWAP1 POP PUSH1 0x20 DUP3 ADD SWAP1 POP SWAP2 SWAP1 POP JUMP JUMPDEST PUSH2 0x40B DUP2 PUSH2 0x3A8 JUMP JUMPDEST DUP3 MSTORE POP POP JUMP JUMPDEST PUSH0 PUSH2 0x41C DUP4 DUP4 PUSH2 0x402 JUMP JUMPDEST PUSH1 0x20 DUP4 ADD SWAP1 POP SWAP3 SWAP2 POP POP JUMP JUMPDEST PUSH0 PUSH1 0x20 DUP3 ADD SWAP1 POP SWAP2 SWAP1 POP JUMP JUMPDEST PUSH0 PUSH2 0x43E DUP3 PUSH2 0x3D9 JUMP JUMPDEST PUSH2 0x448 DUP2 DUP6 PUSH2 0x3E3 JUMP JUMPDEST SWAP4 POP PUSH2 0x453 DUP4 PUSH2 0x3F3 JUMP JUMPDEST DUP1 PUSH0 JUMPDEST DUP4 DUP2 LT ISZERO PUSH2 0x483 JUMPI DUP2 MLOAD PUSH2 0x46A DUP9 DUP3 PUSH2 0x411 JUMP JUMPDEST SWAP8 POP PUSH2 0x475 DUP4 PUSH2 0x428 JUMP JUMPDEST SWAP3 POP POP PUSH1 0x1 DUP2 ADD SWAP1 POP PUSH2 0x456 JUMP JUMPDEST POP DUP6 SWAP4 POP POP POP POP SWAP3 SWAP2 POP POP JUMP JUMPDEST PUSH0 PUSH1 0x20 DUP3 ADD SWAP1 POP DUP2 DUP2 SUB PUSH0 DUP4 ADD MSTORE PUSH2 0x4A8 DUP2 DUP5 PUSH2 0x434 JUMP JUMPDEST SWAP1 POP SWAP3 SWAP2 POP POP JUMP JUMPDEST PUSH32 0x4E487B7100000000000000000000000000000000000000000000000000000000 PUSH0 MSTORE PUSH1 0x22 PUSH1 0x4 MSTORE PUSH1 0x24 PUSH0 REVERT JUMPDEST PUSH0 PUSH1 0x2 DUP3 DIV SWAP1 POP PUSH1 0x1 DUP3 AND DUP1 PUSH2 0x4F4 JUMPI PUSH1 0x7F DUP3 AND SWAP2 POP JUMPDEST PUSH1 0x20 DUP3 LT DUP2 SUB PUSH2 0x507 JUMPI PUSH2 0x506 PUSH2 0x4B0 JUMP JUMPDEST JUMPDEST POP SWAP2 SWAP1 POP JUMP JUMPDEST PUSH32 0x4E487B7100000000000000000000000000000000000000000000000000000000 PUSH0 MSTORE PUSH1 0x41 PUSH1 0x4 MSTORE PUSH1 0x24 PUSH0 REVERT JUMPDEST PUSH32 0x4E487B7100000000000000000000000000000000000000000000000000000000 PUSH0 MSTORE PUSH1 0x32 PUSH1 0x4 MSTORE PUSH1 0x24 PUSH0 REVERT INVALID LOG2 PUSH5 0x6970667358 0x22 SLT KECCAK256 MSIZE PUSH26 0xA658BFDD53630D2E65C37FC6F3C5BE428750E12907F1650A5EEA 0xAC SDIV 0x4E SWAP11 PUSH5 0x736F6C6343 STOP ADDMOD 0x22 STOP CALLER "
		},
		"gasEstimates": {
			"creation": {
				"codeDepositCost": "287400",
				"executionCost": "infinite",
				"totalCost": "infinite"
			},
			"external": {
				"copyStorageToMemory()": "infinite",
				"createMemoryArray()": "infinite",
				"createMemoryVariable()": "366",
				"returnMemoryString()": "infinite",
				"storedName()": "infinite"
			}
		},
		"methodIdentifiers": {
			"copyStorageToMemory()": "46d724d3",
			"createMemoryArray()": "c59083f5",
			"createMemoryVariable()": "a05a3874",
			"returnMemoryString()": "3940516b",
			"storedName()": "e10a949c"
		}
	},
	"abi": [
		{
			"inputs": [],
			"name": "copyStorageToMemory",
			"outputs": [
				{
					"internalType": "string",
					"name": "",
					"type": "string"
				}
			],
			"stateMutability": "view",
			"type": "function"
		},
		{
			"inputs": [],
			"name": "createMemoryArray",
			"outputs": [
				{
					"internalType": "uint256[]",
					"name": "",
					"type": "uint256[]"
				}
			],
			"stateMutability": "pure",
			"type": "function"
		},
		{
			"inputs": [],
			"name": "createMemoryVariable",
			"outputs": [
				{
					"internalType": "uint256",
					"name": "",
					"type": "uint256"
				}
			],
			"stateMutability": "pure",
			"type": "function"
		},
		{
			"inputs": [],
			"name": "returnMemoryString",
			"outputs": [
				{
					"internalType": "string",
					"name": "",
					"type": "string"
				}
			],
			"stateMutability": "pure",
			"type": "function"
		},
		{
			"inputs": [],
			"name": "storedName",
			"outputs": [
				{
					"internalType": "string",
					"name": "",
					"type": "string"
				}
			],
			"stateMutability": "view",
			"type": "function"
		}
	]
}