{
	"data": {
		"bytecode": {
			"linkReferences": {},
			"object": "6080604052348015600e575f5ffd5b506106b68061001c5f395ff3fe608060405234801561000f575f5ffd5b5060043610610055575f3560e01c8063191ec845146100595780633b1f0cd0146100895780637221a26a146100b957806385e41462146100d5578063d672f27814610105575b5f5ffd5b610073600480360381019061006e9190610474565b610123565b6040516100809190610572565b60405180910390f35b6100a3600480360381019061009e9190610592565b61014f565b6040516100b091906105cc565b60405180910390f35b6100d360048036038101906100ce9190610592565b61016e565b005b6100ef60048036038101906100ea9190610474565b610196565b6040516100fc9190610572565b60405180910390f35b61010d610202565b60405161011a9190610572565b60405180910390f35b6060610309825f8151811061013b5761013a6105e5565b5b602002602001018181525050819050919050565b5f818154811061015d575f80fd5b905f5260205f20015f915090505481565b5f81908060018154018082558091505060019003905f5260205f20015f909190919091505550565b60605f5f90505b82518110156101f95760028382815181106101bb576101ba6105e5565b5b60200260200101516101cd919061063f565b8382815181106101e0576101df6105e5565b5b602002602001018181525050808060010191505061019d565b50819050919050565b60605f600367ffffffffffffffff8111156102205761021f610305565b5b60405190808252806020026020018201604052801561024e5781602001602082028036833780820191505090505b5090506001815f81518110610266576102656105e5565b5b602002602001018181525050600281600181518110610288576102876105e5565b5b6020026020010181815250506003816002815181106102aa576102a96105e5565b5b6020026020010181815250506103e7816001815181106102cd576102cc6105e5565b5b6020026020010181815250508091505090565b5f604051905090565b5f5ffd5b5f5ffd5b5f5ffd5b5f601f19601f8301169050919050565b7f4e487b71000000000000000000000000000000000000000000000000000000005f52604160045260245ffd5b61033b826102f5565b810181811067ffffffffffffffff8211171561035a57610359610305565b5b80604052505050565b5f61036c6102e0565b90506103788282610332565b919050565b5f67ffffffffffffffff82111561039757610396610305565b5b602082029050602081019050919050565b5f5ffd5b5f819050919050565b6103be816103ac565b81146103c8575f5ffd5b50565b5f813590506103d9816103b5565b92915050565b5f6103f16103ec8461037d565b610363565b90508083825260208201905060208402830185811115610414576104136103a8565b5b835b8181101561043d578061042988826103cb565b845260208401935050602081019050610416565b5050509392505050565b5f82601f83011261045b5761045a6102f1565b5b813561046b8482602086016103df565b91505092915050565b5f60208284031215610489576104886102e9565b5b5f82013567ffffffffffffffff8111156104a6576104a56102ed565b5b6104b284828501610447565b91505092915050565b5f81519050919050565b5f82825260208201905092915050565b5f819050602082019050919050565b6104ed816103ac565b82525050565b5f6104fe83836104e4565b60208301905092915050565b5f602082019050919050565b5f610520826104bb565b61052a81856104c5565b9350610535836104d5565b805f5b8381101561056557815161054c88826104f3565b97506105578361050a565b925050600181019050610538565b5085935050505092915050565b5f6020820190508181035f83015261058a8184610516565b905092915050565b5f602082840312156105a7576105a66102e9565b5b5f6105b4848285016103cb565b91505092915050565b6105c6816103ac565b82525050565b5f6020820190506105df5f8301846105bd565b92915050565b7f4e487b71000000000000000000000000000000000000000000000000000000005f52603260045260245ffd5b7f4e487b71000000000000000000000000000000000000000000000000000000005f52601160045260245ffd5b5f610649826103ac565b9150610654836103ac565b9250828202610662816103ac565b9150828204841483151761067957610678610612565b5b509291505056fea2646970667358221220d70dab879ca4d431d6f04602dcdd1f49b0dad275da035da9ee84ba917fa5ad5d64736f6c63430008220033",
			"opcodes": "PUSH1 0x80 PUSH1 0x40 MSTORE CALLVALUE DUP1 ISZERO PUSH1 0xE JUMPI PUSH0 PUSH0 REVERT JUMPDEST POP PUSH2 0x6B6 DUP1 PUSH2 0x1C PUSH0 CODECOPY PUSH0 RETURN INVALID PUSH1 0x80 PUSH1 0x40 MSTORE CALLVALUE DUP1 ISZERO PUSH2 0xF JUMPI PUSH0 PUSH0 REVERT JUMPDEST POP PUSH1 0x4 CALLDATASIZE LT PUSH2 0x55 JUMPI PUSH0 CALLDATALOAD PUSH1 0xE0 SHR DUP1 PUSH4 0x191EC845 EQ PUSH2 0x59 JUMPI DUP1 PUSH4 0x3B1F0CD0 EQ PUSH2 0x89 JUMPI DUP1 PUSH4 0x7221A26A EQ PUSH2 0xB9 JUMPI DUP1 PUSH4 0x85E41462 EQ PUSH2 0xD5 JUMPI DUP1 PUSH4 0xD672F278 EQ PUSH2 0x105 JUMPI JUMPDEST PUSH0 PUSH0 REVERT JUMPDEST PUSH2 0x73 PUSH1 0x4 DUP1 CALLDATASIZE SUB DUP2 ADD SWAP1 PUSH2 0x6E SWAP2 SWAP1 PUSH2 0x474 JUMP JUMPDEST PUSH2 0x123 JUMP JUMPDEST PUSH1 0x40 MLOAD PUSH2 0x80 SWAP2 SWAP1 PUSH2 0x572 JUMP JUMPDEST PUSH1 0x40 MLOAD DUP1 SWAP2 SUB SWAP1 RETURN JUMPDEST PUSH2 0xA3 PUSH1 0x4 DUP1 CALLDATASIZE SUB DUP2 ADD SWAP1 PUSH2 0x9E SWAP2 SWAP1 PUSH2 0x592 JUMP JUMPDEST PUSH2 0x14F JUMP JUMPDEST PUSH1 0x40 MLOAD PUSH2 0xB0 SWAP2 SWAP1 PUSH2 0x5CC JUMP JUMPDEST PUSH1 0x40 MLOAD DUP1 SWAP2 SUB SWAP1 RETURN JUMPDEST PUSH2 0xD3 PUSH1 0x4 DUP1 CALLDATASIZE SUB DUP2 ADD SWAP1 PUSH2 0xCE SWAP2 SWAP1 PUSH2 0x592 JUMP JUMPDEST PUSH2 0x16E JUMP JUMPDEST STOP JUMPDEST PUSH2 0xEF PUSH1 0x4 DUP1 CALLDATASIZE SUB DUP2 ADD SWAP1 PUSH2 0xEA SWAP2 SWAP1 PUSH2 0x474 JUMP JUMPDEST PUSH2 0x196 JUMP JUMPDEST PUSH1 0x40 MLOAD PUSH2 0xFC SWAP2 SWAP1 PUSH2 0x572 JUMP JUMPDEST PUSH1 0x40 MLOAD DUP1 SWAP2 SUB SWAP1 RETURN JUMPDEST PUSH2 0x10D PUSH2 0x202 JUMP JUMPDEST PUSH1 0x40 MLOAD PUSH2 0x11A SWAP2 SWAP1 PUSH2 0x572 JUMP JUMPDEST PUSH1 0x40 MLOAD DUP1 SWAP2 SUB SWAP1 RETURN JUMPDEST PUSH1 0x60 PUSH2 0x309 DUP3 PUSH0 DUP2 MLOAD DUP2 LT PUSH2 0x13B JUMPI PUSH2 0x13A PUSH2 0x5E5 JUMP JUMPDEST JUMPDEST PUSH1 0x20 MUL PUSH1 0x20 ADD ADD DUP2 DUP2 MSTORE POP POP DUP2 SWAP1 POP SWAP2 SWAP1 POP JUMP JUMPDEST PUSH0 DUP2 DUP2 SLOAD DUP2 LT PUSH2 0x15D JUMPI PUSH0 DUP1 REVERT JUMPDEST SWAP1 PUSH0 MSTORE PUSH1 0x20 PUSH0 KECCAK256 ADD PUSH0 SWAP2 POP SWAP1 POP SLOAD DUP2 JUMP JUMPDEST PUSH0 DUP2 SWAP1 DUP1 PUSH1 0x1 DUP2 SLOAD ADD DUP1 DUP3 SSTORE DUP1 SWAP2 POP POP PUSH1 0x1 SWAP1 SUB SWAP1 PUSH0 MSTORE PUSH1 0x20 PUSH0 KECCAK256 ADD PUSH0 SWAP1 SWAP2 SWAP1 SWAP2 SWAP1 SWAP2 POP SSTORE POP JUMP JUMPDEST PUSH1 0x60 PUSH0 PUSH0 SWAP1 POP JUMPDEST DUP3 MLOAD DUP2 LT ISZERO PUSH2 0x1F9 JUMPI PUSH1 0x2 DUP4 DUP3 DUP2 MLOAD DUP2 LT PUSH2 0x1BB JUMPI PUSH2 0x1BA PUSH2 0x5E5 JUMP JUMPDEST JUMPDEST PUSH1 0x20 MUL PUSH1 0x20 ADD ADD MLOAD PUSH2 0x1CD SWAP2 SWAP1 PUSH2 0x63F JUMP JUMPDEST DUP4 DUP3 DUP2 MLOAD DUP2 LT PUSH2 0x1E0 JUMPI PUSH2 0x1DF PUSH2 0x5E5 JUMP JUMPDEST JUMPDEST PUSH1 0x20 MUL PUSH1 0x20 ADD ADD DUP2 DUP2 MSTORE POP POP DUP1 DUP1 PUSH1 0x1 ADD SWAP2 POP POP PUSH2 0x19D JUMP JUMPDEST POP DUP2 SWAP1 POP SWAP2 SWAP1 POP JUMP JUMPDEST PUSH1 0x60 PUSH0 PUSH1 0x3 PUSH8 0xFFFFFFFFFFFFFFFF DUP2 GT ISZERO PUSH2 0x220 JUMPI PUSH2 0x21F PUSH2 0x305 JUMP JUMPDEST JUMPDEST PUSH1 0x40 MLOAD SWAP1 DUP1 DUP3 MSTORE DUP1 PUSH1 0x20 MUL PUSH1 0x20 ADD DUP3 ADD PUSH1 0x40 MSTORE DUP1 ISZERO PUSH2 0x24E JUMPI DUP2 PUSH1 0x20 ADD PUSH1 0x20 DUP3 MUL DUP1 CALLDATASIZE DUP4 CALLDATACOPY DUP1 DUP3 ADD SWAP2 POP POP SWAP1 POP JUMPDEST POP SWAP1 POP PUSH1 0x1 DUP2 PUSH0 DUP2 MLOAD DUP2 LT PUSH2 0x266 JUMPI PUSH2 0x265 PUSH2 0x5E5 JUMP JUMPDEST JUMPDEST PUSH1 0x20 MUL PUSH1 0x20 ADD ADD DUP2 DUP2 MSTORE POP POP PUSH1 0x2 DUP2 PUSH1 0x1 DUP2 MLOAD DUP2 LT PUSH2 0x288 JUMPI PUSH2 0x287 PUSH2 0x5E5 JUMP JUMPDEST JUMPDEST PUSH1 0x20 MUL PUSH1 0x20 ADD ADD DUP2 DUP2 MSTORE POP POP PUSH1 0x3 DUP2 PUSH1 0x2 DUP2 MLOAD DUP2 LT PUSH2 0x2AA JUMPI PUSH2 0x2A9 PUSH2 0x5E5 JUMP JUMPDEST JUMPDEST PUSH1 0x20 MUL PUSH1 0x20 ADD ADD DUP2 DUP2 MSTORE POP POP PUSH2 0x3E7 DUP2 PUSH1 0x1 DUP2 MLOAD DUP2 LT PUSH2 0x2CD JUMPI PUSH2 0x2CC PUSH2 0x5E5 JUMP JUMPDEST JUMPDEST PUSH1 0x20 MUL PUSH1 0x20 ADD ADD DUP2 DUP2 MSTORE POP POP DUP1 SWAP2 POP POP SWAP1 JUMP JUMPDEST PUSH0 PUSH1 0x40 MLOAD SWAP1 POP SWAP1 JUMP JUMPDEST PUSH0 PUSH0 REVERT JUMPDEST PUSH0 PUSH0 REVERT JUMPDEST PUSH0 PUSH0 REVERT JUMPDEST PUSH0 PUSH1 0x1F NOT PUSH1 0x1F DUP4 ADD AND SWAP1 POP SWAP2 SWAP1 POP JUMP JUMPDEST PUSH32 0x4E487B7100000000000000000000000000000000000000000000000000000000 PUSH0 MSTORE PUSH1 0x41 PUSH1 0x4 MSTORE PUSH1 0x24 PUSH0 REVERT JUMPDEST PUSH2 0x33B DUP3 PUSH2 0x2F5 JUMP JUMPDEST DUP2 ADD DUP2 DUP2 LT PUSH8 0xFFFFFFFFFFFFFFFF DUP3 GT OR ISZERO PUSH2 0x35A JUMPI PUSH2 0x359 PUSH2 0x305 JUMP JUMPDEST JUMPDEST DUP1 PUSH1 0x40 MSTORE POP POP POP JUMP JUMPDEST PUSH0 PUSH2 0x36C PUSH2 0x2E0 JUMP JUMPDEST SWAP1 POP PUSH2 0x378 DUP3 DUP3 PUSH2 0x332 JUMP JUMPDEST SWAP2 SWAP1 POP JUMP JUMPDEST PUSH0 PUSH8 0xFFFFFFFFFFFFFFFF DUP3 GT ISZERO PUSH2 0x397 JUMPI PUSH2 0x396 PUSH2 0x305 JUMP JUMPDEST JUMPDEST PUSH1 0x20 DUP3 MUL SWAP1 POP PUSH1 0x20 DUP2 ADD SWAP1 POP SWAP2 SWAP1 POP JUMP JUMPDEST PUSH0 PUSH0 REVERT JUMPDEST PUSH0 DUP2 SWAP1 POP SWAP2 SWAP1 POP JUMP JUMPDEST PUSH2 0x3BE DUP2 PUSH2 0x3AC JUMP JUMPDEST DUP2 EQ PUSH2 0x3C8 JUMPI PUSH0 PUSH0 REVERT JUMPDEST POP JUMP JUMPDEST PUSH0 DUP2 CALLDATALOAD SWAP1 POP PUSH2 0x3D9 DUP2 PUSH2 0x3B5 JUMP JUMPDEST SWAP3 SWAP2 POP POP JUMP JUMPDEST PUSH0 PUSH2 0x3F1 PUSH2 0x3EC DUP5 PUSH2 0x37D JUMP JUMPDEST PUSH2 0x363 JUMP JUMPDEST SWAP1 POP DUP1 DUP4 DUP3 MSTORE PUSH1 0x20 DUP3 ADD SWAP1 POP PUSH1 0x20 DUP5 MUL DUP4 ADD DUP6 DUP2 GT ISZERO PUSH2 0x414 JUMPI PUSH2 0x413 PUSH2 0x3A8 JUMP JUMPDEST JUMPDEST DUP4 JUMPDEST DUP2 DUP2 LT ISZERO PUSH2 0x43D JUMPI DUP1 PUSH2 0x429 DUP9 DUP3 PUSH2 0x3CB JUMP JUMPDEST DUP5 MSTORE PUSH1 0x20 DUP5 ADD SWAP4 POP POP PUSH1 0x20 DUP2 ADD SWAP1 POP PUSH2 0x416 JUMP JUMPDEST POP POP POP SWAP4 SWAP3 POP POP POP JUMP JUMPDEST PUSH0 DUP3 PUSH1 0x1F DUP4 ADD SLT PUSH2 0x45B JUMPI PUSH2 0x45A PUSH2 0x2F1 JUMP JUMPDEST JUMPDEST DUP2 CALLDATALOAD PUSH2 0x46B DUP5 DUP3 PUSH1 0x20 DUP7 ADD PUSH2 0x3DF JUMP JUMPDEST SWAP2 POP POP SWAP3 SWAP2 POP POP JUMP JUMPDEST PUSH0 PUSH1 0x20 DUP3 DUP5 SUB SLT ISZERO PUSH2 0x489 JUMPI PUSH2 0x488 PUSH2 0x2E9 JUMP JUMPDEST JUMPDEST PUSH0 DUP3 ADD CALLDATALOAD PUSH8 0xFFFFFFFFFFFFFFFF DUP2 GT ISZERO PUSH2 0x4A6 JUMPI PUSH2 0x4A5 PUSH2 0x2ED JUMP JUMPDEST JUMPDEST PUSH2 0x4B2 DUP5 DUP3 DUP6 ADD PUSH2 0x447 JUMP JUMPDEST SWAP2 POP POP SWAP3 SWAP2 POP POP JUMP JUMPDEST PUSH0 DUP2 MLOAD SWAP1 POP SWAP2 SWAP1 POP JUMP JUMPDEST PUSH0 DUP3 DUP3 MSTORE PUSH1 0x20 DUP3 ADD SWAP1 POP SWAP3 SWAP2 POP POP JUMP JUMPDEST PUSH0 DUP2 SWAP1 POP PUSH1 0x20 DUP3 ADD SWAP1 POP SWAP2 SWAP1 POP JUMP JUMPDEST PUSH2 0x4ED DUP2 PUSH2 0x3AC JUMP JUMPDEST DUP3 MSTORE POP POP JUMP JUMPDEST PUSH0 PUSH2 0x4FE DUP4 DUP4 PUSH2 0x4E4 JUMP JUMPDEST PUSH1 0x20 DUP4 ADD SWAP1 POP SWAP3 SWAP2 POP POP JUMP JUMPDEST PUSH0 PUSH1 0x20 DUP3 ADD SWAP1 POP SWAP2 SWAP1 POP JUMP JUMPDEST PUSH0 PUSH2 0x520 DUP3 PUSH2 0x4BB JUMP JUMPDEST PUSH2 0x52A DUP2 DUP6 PUSH2 0x4C5 JUMP JUMPDEST SWAP4 POP PUSH2 0x535 DUP4 PUSH2 0x4D5 JUMP JUMPDEST DUP1 PUSH0 JUMPDEST DUP4 DUP2 LT ISZERO PUSH2 0x565 JUMPI DUP2 MLOAD PUSH2 0x54C DUP9 DUP3 PUSH2 0x4F3 JUMP JUMPDEST SWAP8 POP PUSH2 0x557 DUP4 PUSH2 0x50A JUMP JUMPDEST SWAP3 POP POP PUSH1 0x1 DUP2 ADD SWAP1 POP PUSH2 0x538 JUMP JUMPDEST POP DUP6 SWAP4 POP POP POP POP SWAP3 SWAP2 POP POP JUMP JUMPDEST PUSH0 PUSH1 0x20 DUP3 ADD SWAP1 POP DUP2 DUP2 SUB PUSH0 DUP4 ADD MSTORE PUSH2 0x58A DUP2 DUP5 PUSH2 0x516 JUMP JUMPDEST SWAP1 POP SWAP3 SWAP2 POP POP JUMP JUMPDEST PUSH0 PUSH1 0x20 DUP3 DUP5 SUB SLT ISZERO PUSH2 0x5A7 JUMPI PUSH2 0x5A6 PUSH2 0x2E9 JUMP JUMPDEST JUMPDEST PUSH0 PUSH2 0x5B4 DUP5 DUP3 DUP6 ADD PUSH2 0x3CB JUMP JUMPDEST SWAP2 POP POP SWAP3 SWAP2 POP POP JUMP JUMPDEST PUSH2 0x5C6 DUP2 PUSH2 0x3AC JUMP JUMPDEST DUP3 MSTORE POP POP JUMP JUMPDEST PUSH0 PUSH1 0x20 DUP3 ADD SWAP1 POP PUSH2 0x5DF PUSH0 DUP4 ADD DUP5 PUSH2 0x5BD JUMP JUMPDEST SWAP3 SWAP2 POP POP JUMP JUMPDEST PUSH32 0x4E487B7100000000000000000000000000000000000000000000000000000000 PUSH0 MSTORE PUSH1 0x32 PUSH1 0x4 MSTORE PUSH1 0x24 PUSH0 REVERT JUMPDEST PUSH32 0x4E487B7100000000000000000000000000000000000000000000000000000000 PUSH0 MSTORE PUSH1 0x11 PUSH1 0x4 MSTORE PUSH1 0x24 PUSH0 REVERT JUMPDEST PUSH0 PUSH2 0x649 DUP3 PUSH2 0x3AC JUMP JUMPDEST SWAP2 POP PUSH2 0x654 DUP4 PUSH2 0x3AC JUMP JUMPDEST SWAP3 POP DUP3 DUP3 MUL PUSH2 0x662 DUP2 PUSH2 0x3AC JUMP JUMPDEST SWAP2 POP DUP3 DUP3 DIV DUP5 EQ DUP4 ISZERO OR PUSH2 0x679 JUMPI PUSH2 0x678 PUSH2 0x612 JUMP JUMPDEST JUMPDEST POP SWAP3 SWAP2 POP POP JUMP INVALID LOG2 PUSH5 0x6970667358 0x22 SLT KECCAK256 0xD7 0xD 0xAB DUP8 SWAP13 LOG4 0xD4 BALANCE 0xD6 CREATE CHAINID MUL 0xDC 0xDD 0x1F BLOBHASH 0xB0 0xDA 0xD2 PUSH22 0xDA035DA9EE84BA917FA5AD5D64736F6C634300082200 CALLER "
		},
		"gasEstimates": {
			"creation": {
				"codeDepositCost": "343600",
				"executionCost": "378",
				"totalCost": "343978"
			},
			"external": {
				"createAndModifyArray()": "infinite",
				"doubleArrayValues(uint256[])": "infinite",
				"modifyInputArray(uint256[])": "infinite",
				"storeValue(uint256)": "46842",
				"storedNumbers(uint256)": "infinite"
			}
		},
		"methodIdentifiers": {
			"createAndModifyArray()": "d672f278",
			"doubleArrayValues(uint256[])": "85e41462",
			"modifyInputArray(uint256[])": "191ec845",
			"storeValue(uint256)": "7221a26a",
			"storedNumbers(uint256)": "3b1f0cd0"
		}
	},
	"abi": [
		{
			"inputs": [],
			"name": "createAndModifyArray",
			"outputs": [
				{
					"internalType": "uint256[]",
					"name": "",
					"type": "uint256[]"
				}
			],
			"stateMutability": "pure",
			"type": "function"
		},
		{
			"inputs": [
				{
					"internalType": "uint256[]",
					"name": "_number",
					"type": "uint256[]"
				}
			],
			"name": "doubleArrayValues",
			"outputs": [
				{
					"internalType": "uint256[]",
					"name": "",
					"type": "uint256[]"
				}
			],
			"stateMutability": "pure",
			"type": "function"
		},
		{
			"inputs": [
				{
					"internalType": "uint256[]",
					"name": "_numbers",
					"type": "uint256[]"
				}
			],
			"name": "modifyInputArray",
			"outputs": [
				{
					"internalType": "uint256[]",
					"name": "",
					"type": "uint256[]"
				}
			],
			"stateMutability": "pure",
			"type": "function"
		},
		{
			"inputs": [
				{
					"internalType": "uint256",
					"name": "_value",
					"type": "uint256"
				}
			],
			"name": "storeValue",
			"outputs": [],
			"stateMutability": "nonpayable",
			"type": "function"
		},
		{
			"inputs": [
				{
					"internalType": "uint256",
					"name": "",
					"type": "uint256"
				}
			],
			"name": "storedNumbers",
			"outputs": [
				{
					"internalType": "uint256",
					"name": "",
					"type": "uint256"
				}
			],
			"stateMutability": "view",
			"type": "function"
		}
	]
}