{
	"data": {
		"bytecode": {
			"linkReferences": {},
			"object": "608060405234801561000f575f5ffd5b5060405161119f38038061119f833981810160405281019061003191906100d4565b805f5f6101000a81548173ffffffffffffffffffffffffffffffffffffffff021916908373ffffffffffffffffffffffffffffffffffffffff160217905550506100ff565b5f5ffd5b5f73ffffffffffffffffffffffffffffffffffffffff82169050919050565b5f6100a38261007a565b9050919050565b6100b381610099565b81146100bd575f5ffd5b50565b5f815190506100ce816100aa565b92915050565b5f602082840312156100e9576100e8610076565b5b5f6100f6848285016100c0565b91505092915050565b6110938061010c5f395ff3fe60806040526004361061007d575f3560e01c806398de4cee1161004d57806398de4cee1461011a578063ce8deaf014610130578063d4b8399214610158578063e88cc9a31461018257610084565b80626e75ec1461008857806311c04ef4146100b25780631eedbfe8146100da5780639415bc59146100f057610084565b3661008457005b5f5ffd5b348015610093575f5ffd5b5061009c6101ac565b6040516100a9919061084f565b60405180910390f35b3480156100bd575f5ffd5b506100d860048036038101906100d391906108b3565b610238565b005b3480156100e5575f5ffd5b506100ee6102d8565b005b3480156100fb575f5ffd5b506101046103c7565b60405161011191906108f8565b60405180910390f35b348015610125575f5ffd5b5061012e6103d9565b005b34801561013b575f5ffd5b50610156600480360381019061015191906108b3565b61058e565b005b348015610163575f5ffd5b5061016c61074a565b604051610179919061098b565b60405180910390f35b34801561018d575f5ffd5b5061019661076e565b6040516101a391906109b3565b60405180910390f35b600380546101b9906109f9565b80601f01602080910402602001604051908101604052809291908181526020018280546101e5906109f9565b80156102305780601f1061020757610100808354040283529160200191610230565b820191905f5260205f20905b81548152906001019060200180831161021357829003601f168201915b505050505081565b60015f81548092919061024a90610a56565b91905055505f5f9054906101000a900473ffffffffffffffffffffffffffffffffffffffff1673ffffffffffffffffffffffffffffffffffffffff16633fb5c1cb826040518263ffffffff1660e01b81526004016102a891906109b3565b5f604051808303815f87803b1580156102bf575f5ffd5b505af11580156102d1573d5f5f3e3d5ffd5b5050505050565b5f5f9054906101000a900473ffffffffffffffffffffffffffffffffffffffff1673ffffffffffffffffffffffffffffffffffffffff1663ca463e196040518163ffffffff1660e01b81526004015f6040518083038186803b15801561033c575f5ffd5b505afa92505050801561034d575060015b6103c457610359610aa9565b806308c379a0036103b5575061036d610b26565b8061037857506103b7565b7ffd5de27667e5407df5be0b6efb7f86ae8c40433040399a5e4d36a46ccc50638d816040516103a79190610c07565b60405180910390a1506103bf565b505b3d5f5f3e3d5ffd5b6103c5565b5b565b60025f9054906101000a900460ff1681565b5f5f5f5f9054906101000a900473ffffffffffffffffffffffffffffffffffffffff1673ffffffffffffffffffffffffffffffffffffffff166040516024016040516020818303038152906040527fca463e19000000000000000000000000000000000000000000000000000000007bffffffffffffffffffffffffffffffffffffffffffffffffffffffff19166020820180517bffffffffffffffffffffffffffffffffffffffffffffffffffffffff83818316178352505050506040516104a29190610c61565b5f604051808303815f865af19150503d805f81146104db576040519150601f19603f3d011682016040523d82523d5f602084013e6104e0565b606091505b50915091508160025f6101000a81548160ff021916908315150217905550806003908161050d9190610e1f565b507f371af01c5f2c31a6a7ae2d5fef37cfa6aec0b635583aed736aebcd8c8ad258908260405161053d91906108f8565b60405180910390a18161058a577ffd5de27667e5407df5be0b6efb7f86ae8c40433040399a5e4d36a46ccc50638d61057482610774565b6040516105819190610c07565b60405180910390a15b5050565b5f5f5f5f9054906101000a900473ffffffffffffffffffffffffffffffffffffffff1673ffffffffffffffffffffffffffffffffffffffff16836040516024016105d891906109b3565b6040516020818303038152906040527f3fb5c1cb000000000000000000000000000000000000000000000000000000007bffffffffffffffffffffffffffffffffffffffffffffffffffffffff19166020820180517bffffffffffffffffffffffffffffffffffffffffffffffffffffffff83818316178352505050506040516106629190610c61565b5f604051808303815f865af19150503d805f811461069b576040519150601f19603f3d011682016040523d82523d5f602084013e6106a0565b606091505b50915091508160025f6101000a81548160ff02191690831515021790555080600390816106cd9190610e1f565b507f371af01c5f2c31a6a7ae2d5fef37cfa6aec0b635583aed736aebcd8c8ad25890826040516106fd91906108f8565b60405180910390a181610745576040517f08c379a000000000000000000000000000000000000000000000000000000000815260040161073c90610f38565b60405180910390fd5b505050565b5f5f9054906101000a900473ffffffffffffffffffffffffffffffffffffffff1681565b60015481565b60606044825110156107bd576040518060400160405280600e81526020017f556e6b6e6f776e2072657665727400000000000000000000000000000000000081525090506107da565b600482019150818060200190518101906107d79190611016565b90505b919050565b5f81519050919050565b5f82825260208201905092915050565b8281835e5f83830152505050565b5f601f19601f8301169050919050565b5f610821826107df565b61082b81856107e9565b935061083b8185602086016107f9565b61084481610807565b840191505092915050565b5f6020820190508181035f8301526108678184610817565b905092915050565b5f604051905090565b5f5ffd5b5f5ffd5b5f819050919050565b61089281610880565b811461089c575f5ffd5b50565b5f813590506108ad81610889565b92915050565b5f602082840312156108c8576108c7610878565b5b5f6108d58482850161089f565b91505092915050565b5f8115159050919050565b6108f2816108de565b82525050565b5f60208201905061090b5f8301846108e9565b92915050565b5f73ffffffffffffffffffffffffffffffffffffffff82169050919050565b5f819050919050565b5f61095361094e61094984610911565b610930565b610911565b9050919050565b5f61096482610939565b9050919050565b5f6109758261095a565b9050919050565b6109858161096b565b82525050565b5f60208201905061099e5f83018461097c565b92915050565b6109ad81610880565b82525050565b5f6020820190506109c65f8301846109a4565b92915050565b7f4e487b71000000000000000000000000000000000000000000000000000000005f52602260045260245ffd5b5f6002820490506001821680610a1057607f821691505b602082108103610a2357610a226109cc565b5b50919050565b7f4e487b71000000000000000000000000000000000000000000000000000000005f52601160045260245ffd5b5f610a6082610880565b91507fffffffffffffffffffffffffffffffffffffffffffffffffffffffffffffffff8203610a9257610a91610a29565b5b600182019050919050565b5f8160e01c9050919050565b5f60033d1115610ac55760045f5f3e610ac25f51610a9d565b90505b90565b7f4e487b71000000000000000000000000000000000000000000000000000000005f52604160045260245ffd5b610afe82610807565b810181811067ffffffffffffffff82111715610b1d57610b1c610ac8565b5b80604052505050565b5f60443d10610bb257610b3761086f565b60043d036004823e80513d602482011167ffffffffffffffff82111715610b5f575050610bb2565b808201805167ffffffffffffffff811115610b7d5750505050610bb2565b80602083010160043d038501811115610b9a575050505050610bb2565b610ba982602001850186610af5565b82955050505050505b90565b5f81519050919050565b5f82825260208201905092915050565b5f610bd982610bb5565b610be38185610bbf565b9350610bf38185602086016107f9565b610bfc81610807565b840191505092915050565b5f6020820190508181035f830152610c1f8184610bcf565b905092915050565b5f81905092915050565b5f610c3b826107df565b610c458185610c27565b9350610c558185602086016107f9565b80840191505092915050565b5f610c6c8284610c31565b915081905092915050565b5f819050815f5260205f209050919050565b5f6020601f8301049050919050565b5f82821b905092915050565b5f60088302610cd37fffffffffffffffffffffffffffffffffffffffffffffffffffffffffffffffff82610c98565b610cdd8683610c98565b95508019841693508086168417925050509392505050565b5f610d0f610d0a610d0584610880565b610930565b610880565b9050919050565b5f819050919050565b610d2883610cf5565b610d3c610d3482610d16565b848454610ca4565b825550505050565b5f5f905090565b610d53610d44565b610d5e818484610d1f565b505050565b5f5b82811015610d8457610d795f828401610d4b565b600181019050610d65565b505050565b601f821115610dd75782821115610dd657610da381610c77565b610dac83610c89565b610db585610c89565b6020861015610dc2575f90505b808301610dd182840382610d63565b505050505b5b505050565b5f82821c905092915050565b5f610df75f1984600802610ddc565b1980831691505092915050565b5f610e0f8383610de8565b9150826002028217905092915050565b610e28826107df565b67ffffffffffffffff811115610e4157610e40610ac8565b5b610e4b82546109f9565b610e56828285610d89565b5f60209050601f831160018114610e87575f8415610e75578287015190505b610e7f8582610e04565b865550610ee6565b601f198416610e9586610c77565b5f5b82811015610ebc57848901518255600182019150602085019450602081019050610e97565b86831015610ed95784890151610ed5601f891682610de8565b8355505b6001600288020188555050505b505050505050565b7f4c6f772d6c6576656c2063616c6c206661696c656400000000000000000000005f82015250565b5f610f22601583610bbf565b9150610f2d82610eee565b602082019050919050565b5f6020820190508181035f830152610f4f81610f16565b9050919050565b5f5ffd5b5f5ffd5b5f610f6761086f565b9050610f738282610af5565b919050565b5f67ffffffffffffffff821115610f9257610f91610ac8565b5b610f9b82610807565b9050602081019050919050565b5f610fba610fb584610f78565b610f5e565b905082815260208101848484011115610fd657610fd5610f5a565b5b610fe18482856107f9565b509392505050565b5f82601f830112610ffd57610ffc610f56565b5b815161100d848260208601610fa8565b91505092915050565b5f6020828403121561102b5761102a610878565b5b5f82015167ffffffffffffffff8111156110485761104761087c565b5b61105484828501610fe9565b9150509291505056fea2646970667358221220db473405de32c66baa7fdbd0b02efd7e748fc0d2a2f882fe3f550f5606e3187664736f6c63430008220033",
			"opcodes": "PUSH1 0x80 PUSH1 0x40 MSTORE CALLVALUE DUP1 ISZERO PUSH2 0xF JUMPI PUSH0 PUSH0 REVERT JUMPDEST POP PUSH1 0x40 MLOAD PUSH2 0x119F CODESIZE SUB DUP1 PUSH2 0x119F DUP4 CODECOPY DUP2 DUP2 ADD PUSH1 0x40 MSTORE DUP2 ADD SWAP1 PUSH2 0x31 SWAP2 SWAP1 PUSH2 0xD4 JUMP JUMPDEST DUP1 PUSH0 PUSH0 PUSH2 0x100 EXP DUP2 SLOAD DUP2 PUSH20 0xFFFFFFFFFFFFFFFFFFFFFFFFFFFFFFFFFFFFFFFF MUL NOT AND SWAP1 DUP4 PUSH20 0xFFFFFFFFFFFFFFFFFFFFFFFFFFFFFFFFFFFFFFFF AND MUL OR SWAP1 SSTORE POP POP PUSH2 0xFF JUMP JUMPDEST PUSH0 PUSH0 REVERT JUMPDEST PUSH0 PUSH20 0xFFFFFFFFFFFFFFFFFFFFFFFFFFFFFFFFFFFFFFFF DUP3 AND SWAP1 POP SWAP2 SWAP1 POP JUMP JUMPDEST PUSH0 PUSH2 0xA3 DUP3 PUSH2 0x7A JUMP JUMPDEST SWAP1 POP SWAP2 SWAP1 POP JUMP JUMPDEST PUSH2 0xB3 DUP2 PUSH2 0x99 JUMP JUMPDEST DUP2 EQ PUSH2 0xBD JUMPI PUSH0 PUSH0 REVERT JUMPDEST POP JUMP JUMPDEST PUSH0 DUP2 MLOAD SWAP1 POP PUSH2 0xCE DUP2 PUSH2 0xAA JUMP JUMPDEST SWAP3 SWAP2 POP POP JUMP JUMPDEST PUSH0 PUSH1 0x20 DUP3 DUP5 SUB SLT ISZERO PUSH2 0xE9 JUMPI PUSH2 0xE8 PUSH2 0x76 JUMP JUMPDEST JUMPDEST PUSH0 PUSH2 0xF6 DUP5 DUP3 DUP6 ADD PUSH2 0xC0 JUMP JUMPDEST SWAP2 POP POP SWAP3 SWAP2 POP POP JUMP JUMPDEST PUSH2 0x1093 DUP1 PUSH2 0x10C PUSH0 CODECOPY PUSH0 RETURN INVALID PUSH1 0x80 PUSH1 0x40 MSTORE PUSH1 0x4 CALLDATASIZE LT PUSH2 0x7D JUMPI PUSH0 CALLDATALOAD PUSH1 0xE0 SHR DUP1 PUSH4 0x98DE4CEE GT PUSH2 0x4D JUMPI DUP1 PUSH4 0x98DE4CEE EQ PUSH2 0x11A JUMPI DUP1 PUSH4 0xCE8DEAF0 EQ PUSH2 0x130 JUMPI DUP1 PUSH4 0xD4B83992 EQ PUSH2 0x158 JUMPI DUP1 PUSH4 0xE88CC9A3 EQ PUSH2 0x182 JUMPI PUSH2 0x84 JUMP JUMPDEST DUP1 PUSH3 0x6E75EC EQ PUSH2 0x88 JUMPI DUP1 PUSH4 0x11C04EF4 EQ PUSH2 0xB2 JUMPI DUP1 PUSH4 0x1EEDBFE8 EQ PUSH2 0xDA JUMPI DUP1 PUSH4 0x9415BC59 EQ PUSH2 0xF0 JUMPI PUSH2 0x84 JUMP JUMPDEST CALLDATASIZE PUSH2 0x84 JUMPI STOP JUMPDEST PUSH0 PUSH0 REVERT JUMPDEST CALLVALUE DUP1 ISZERO PUSH2 0x93 JUMPI PUSH0 PUSH0 REVERT JUMPDEST POP PUSH2 0x9C PUSH2 0x1AC JUMP JUMPDEST PUSH1 0x40 MLOAD PUSH2 0xA9 SWAP2 SWAP1 PUSH2 0x84F JUMP JUMPDEST PUSH1 0x40 MLOAD DUP1 SWAP2 SUB SWAP1 RETURN JUMPDEST CALLVALUE DUP1 ISZERO PUSH2 0xBD JUMPI PUSH0 PUSH0 REVERT JUMPDEST POP PUSH2 0xD8 PUSH1 0x4 DUP1 CALLDATASIZE SUB DUP2 ADD SWAP1 PUSH2 0xD3 SWAP2 SWAP1 PUSH2 0x8B3 JUMP JUMPDEST PUSH2 0x238 JUMP JUMPDEST STOP JUMPDEST CALLVALUE DUP1 ISZERO PUSH2 0xE5 JUMPI PUSH0 PUSH0 REVERT JUMPDEST POP PUSH2 0xEE PUSH2 0x2D8 JUMP JUMPDEST STOP JUMPDEST CALLVALUE DUP1 ISZERO PUSH2 0xFB JUMPI PUSH0 PUSH0 REVERT JUMPDEST POP PUSH2 0x104 PUSH2 0x3C7 JUMP JUMPDEST PUSH1 0x40 MLOAD PUSH2 0x111 SWAP2 SWAP1 PUSH2 0x8F8 JUMP JUMPDEST PUSH1 0x40 MLOAD DUP1 SWAP2 SUB SWAP1 RETURN JUMPDEST CALLVALUE DUP1 ISZERO PUSH2 0x125 JUMPI PUSH0 PUSH0 REVERT JUMPDEST POP PUSH2 0x12E PUSH2 0x3D9 JUMP JUMPDEST STOP JUMPDEST CALLVALUE DUP1 ISZERO PUSH2 0x13B JUMPI PUSH0 PUSH0 REVERT JUMPDEST POP PUSH2 0x156 PUSH1 0x4 DUP1 CALLDATASIZE SUB DUP2 ADD SWAP1 PUSH2 0x151 SWAP2 SWAP1 PUSH2 0x8B3 JUMP JUMPDEST PUSH2 0x58E JUMP JUMPDEST STOP JUMPDEST CALLVALUE DUP1 ISZERO PUSH2 0x163 JUMPI PUSH0 PUSH0 REVERT JUMPDEST POP PUSH2 0x16C PUSH2 0x74A JUMP JUMPDEST PUSH1 0x40 MLOAD PUSH2 0x179 SWAP2 SWAP1 PUSH2 0x98B JUMP JUMPDEST PUSH1 0x40 MLOAD DUP1 SWAP2 SUB SWAP1 RETURN JUMPDEST CALLVALUE DUP1 ISZERO PUSH2 0x18D JUMPI PUSH0 PUSH0 REVERT JUMPDEST POP PUSH2 0x196 PUSH2 0x76E JUMP JUMPDEST PUSH1 0x40 MLOAD PUSH2 0x1A3 SWAP2 SWAP1 PUSH2 0x9B3 JUMP JUMPDEST PUSH1 0x40 MLOAD DUP1 SWAP2 SUB SWAP1 RETURN JUMPDEST PUSH1 0x3 DUP1 SLOAD PUSH2 0x1B9 SWAP1 PUSH2 0x9F9 JUMP JUMPDEST DUP1 PUSH1 0x1F ADD PUSH1 0x20 DUP1 SWAP2 DIV MUL PUSH1 0x20 ADD PUSH1 0x40 MLOAD SWAP1 DUP2 ADD PUSH1 0x40 MSTORE DUP1 SWAP3 SWAP2 SWAP1 DUP2 DUP2 MSTORE PUSH1 0x20 ADD DUP3 DUP1 SLOAD PUSH2 0x1E5 SWAP1 PUSH2 0x9F9 JUMP JUMPDEST DUP1 ISZERO PUSH2 0x230 JUMPI DUP1 PUSH1 0x1F LT PUSH2 0x207 JUMPI PUSH2 0x100 DUP1 DUP4 SLOAD DIV MUL DUP4 MSTORE SWAP2 PUSH1 0x20 ADD SWAP2 PUSH2 0x230 JUMP JUMPDEST DUP3 ADD SWAP2 SWAP1 PUSH0 MSTORE PUSH1 0x20 PUSH0 KECCAK256 SWAP1 JUMPDEST DUP2 SLOAD DUP2 MSTORE SWAP1 PUSH1 0x1 ADD SWAP1 PUSH1 0x20 ADD DUP1 DUP4 GT PUSH2 0x213 JUMPI DUP3 SWAP1 SUB PUSH1 0x1F AND DUP3 ADD SWAP2 JUMPDEST POP POP POP POP POP DUP2 JUMP JUMPDEST PUSH1 0x1 PUSH0 DUP2 SLOAD DUP1 SWAP3 SWAP2 SWAP1 PUSH2 0x24A SWAP1 PUSH2 0xA56 JUMP JUMPDEST SWAP2 SWAP1 POP SSTORE POP PUSH0 PUSH0 SWAP1 SLOAD SWAP1 PUSH2 0x100 EXP SWAP1 DIV PUSH20 0xFFFFFFFFFFFFFFFFFFFFFFFFFFFFFFFFFFFFFFFF AND PUSH20 0xFFFFFFFFFFFFFFFFFFFFFFFFFFFFFFFFFFFFFFFF AND PUSH4 0x3FB5C1CB DUP3 PUSH1 0x40 MLOAD DUP3 PUSH4 0xFFFFFFFF AND PUSH1 0xE0 SHL DUP2 MSTORE PUSH1 0x4 ADD PUSH2 0x2A8 SWAP2 SWAP1 PUSH2 0x9B3 JUMP JUMPDEST PUSH0 PUSH1 0x40 MLOAD DUP1 DUP4 SUB DUP2 PUSH0 DUP8 DUP1 EXTCODESIZE ISZERO DUP1 ISZERO PUSH2 0x2BF JUMPI PUSH0 PUSH0 REVERT JUMPDEST POP GAS CALL ISZERO DUP1 ISZERO PUSH2 0x2D1 JUMPI RETURNDATASIZE PUSH0 PUSH0 RETURNDATACOPY RETURNDATASIZE PUSH0 REVERT JUMPDEST POP POP POP POP POP JUMP JUMPDEST PUSH0 PUSH0 SWAP1 SLOAD SWAP1 PUSH2 0x100 EXP SWAP1 DIV PUSH20 0xFFFFFFFFFFFFFFFFFFFFFFFFFFFFFFFFFFFFFFFF AND PUSH20 0xFFFFFFFFFFFFFFFFFFFFFFFFFFFFFFFFFFFFFFFF AND PUSH4 0xCA463E19 PUSH1 0x40 MLOAD DUP2 PUSH4 0xFFFFFFFF AND PUSH1 0xE0 SHL DUP2 MSTORE PUSH1 0x4 ADD PUSH0 PUSH1 0x40 MLOAD DUP1 DUP4 SUB DUP2 DUP7 DUP1 EXTCODESIZE ISZERO DUP1 ISZERO PUSH2 0x33C JUMPI PUSH0 PUSH0 REVERT JUMPDEST POP GAS STATICCALL SWAP3 POP POP POP DUP1 ISZERO PUSH2 0x34D JUMPI POP PUSH1 0x1 JUMPDEST PUSH2 0x3C4 JUMPI PUSH2 0x359 PUSH2 0xAA9 JUMP JUMPDEST DUP1 PUSH4 0x8C379A0 SUB PUSH2 0x3B5 JUMPI POP PUSH2 0x36D PUSH2 0xB26 JUMP JUMPDEST DUP1 PUSH2 0x378 JUMPI POP PUSH2 0x3B7 JUMP JUMPDEST PUSH32 0xFD5DE27667E5407DF5BE0B6EFB7F86AE8C40433040399A5E4D36A46CCC50638D DUP2 PUSH1 0x40 MLOAD PUSH2 0x3A7 SWAP2 SWAP1 PUSH2 0xC07 JUMP JUMPDEST PUSH1 0x40 MLOAD DUP1 SWAP2 SUB SWAP1 LOG1 POP PUSH2 0x3BF JUMP JUMPDEST POP JUMPDEST RETURNDATASIZE PUSH0 PUSH0 RETURNDATACOPY RETURNDATASIZE PUSH0 REVERT JUMPDEST PUSH2 0x3C5 JUMP JUMPDEST JUMPDEST JUMP JUMPDEST PUSH1 0x2 PUSH0 SWAP1 SLOAD SWAP1 PUSH2 0x100 EXP SWAP1 DIV PUSH1 0xFF AND DUP2 JUMP JUMPDEST PUSH0 PUSH0 PUSH0 PUSH0 SWAP1 SLOAD SWAP1 PUSH2 0x100 EXP SWAP1 DIV PUSH20 0xFFFFFFFFFFFFFFFFFFFFFFFFFFFFFFFFFFFFFFFF AND PUSH20 0xFFFFFFFFFFFFFFFFFFFFFFFFFFFFFFFFFFFFFFFF AND PUSH1 0x40 MLOAD PUSH1 0x24 ADD PUSH1 0x40 MLOAD PUSH1 0x20 DUP2 DUP4 SUB SUB DUP2 MSTORE SWAP1 PUSH1 0x40 MSTORE PUSH32 0xCA463E1900000000000000000000000000000000000000000000000000000000 PUSH28 0xFFFFFFFFFFFFFFFFFFFFFFFFFFFFFFFFFFFFFFFFFFFFFFFFFFFFFFFF NOT AND PUSH1 0x20 DUP3 ADD DUP1 MLOAD PUSH28 0xFFFFFFFFFFFFFFFFFFFFFFFFFFFFFFFFFFFFFFFFFFFFFFFFFFFFFFFF DUP4 DUP2 DUP4 AND OR DUP4 MSTORE POP POP POP POP PUSH1 0x40 MLOAD PUSH2 0x4A2 SWAP2 SWAP1 PUSH2 0xC61 JUMP JUMPDEST PUSH0 PUSH1 0x40 MLOAD DUP1 DUP4 SUB DUP2 PUSH0 DUP7 GAS CALL SWAP2 POP POP RETURNDATASIZE DUP1 PUSH0 DUP2 EQ PUSH2 0x4DB JUMPI PUSH1 0x40 MLOAD SWAP2 POP PUSH1 0x1F NOT PUSH1 0x3F RETURNDATASIZE ADD AND DUP3 ADD PUSH1 0x40 MSTORE RETURNDATASIZE DUP3 MSTORE RETURNDATASIZE PUSH0 PUSH1 0x20 DUP5 ADD RETURNDATACOPY PUSH2 0x4E0 JUMP JUMPDEST PUSH1 0x60 SWAP2 POP JUMPDEST POP SWAP2 POP SWAP2 POP DUP2 PUSH1 0x2 PUSH0 PUSH2 0x100 EXP DUP2 SLOAD DUP2 PUSH1 0xFF MUL NOT AND SWAP1 DUP4 ISZERO ISZERO MUL OR SWAP1 SSTORE POP DUP1 PUSH1 0x3 SWAP1 DUP2 PUSH2 0x50D SWAP2 SWAP1 PUSH2 0xE1F JUMP JUMPDEST POP PUSH32 0x371AF01C5F2C31A6A7AE2D5FEF37CFA6AEC0B635583AED736AEBCD8C8AD25890 DUP3 PUSH1 0x40 MLOAD PUSH2 0x53D SWAP2 SWAP1 PUSH2 0x8F8 JUMP JUMPDEST PUSH1 0x40 MLOAD DUP1 SWAP2 SUB SWAP1 LOG1 DUP2 PUSH2 0x58A JUMPI PUSH32 0xFD5DE27667E5407DF5BE0B6EFB7F86AE8C40433040399A5E4D36A46CCC50638D PUSH2 0x574 DUP3 PUSH2 0x774 JUMP JUMPDEST PUSH1 0x40 MLOAD PUSH2 0x581 SWAP2 SWAP1 PUSH2 0xC07 JUMP JUMPDEST PUSH1 0x40 MLOAD DUP1 SWAP2 SUB SWAP1 LOG1 JUMPDEST POP POP JUMP JUMPDEST PUSH0 PUSH0 PUSH0 PUSH0 SWAP1 SLOAD SWAP1 PUSH2 0x100 EXP SWAP1 DIV PUSH20 0xFFFFFFFFFFFFFFFFFFFFFFFFFFFFFFFFFFFFFFFF AND PUSH20 0xFFFFFFFFFFFFFFFFFFFFFFFFFFFFFFFFFFFFFFFF AND DUP4 PUSH1 0x40 MLOAD PUSH1 0x24 ADD PUSH2 0x5D8 SWAP2 SWAP1 PUSH2 0x9B3 JUMP JUMPDEST PUSH1 0x40 MLOAD PUSH1 0x20 DUP2 DUP4 SUB SUB DUP2 MSTORE SWAP1 PUSH1 0x40 MSTORE PUSH32 0x3FB5C1CB00000000000000000000000000000000000000000000000000000000 PUSH28 0xFFFFFFFFFFFFFFFFFFFFFFFFFFFFFFFFFFFFFFFFFFFFFFFFFFFFFFFF NOT AND PUSH1 0x20 DUP3 ADD DUP1 MLOAD PUSH28 0xFFFFFFFFFFFFFFFFFFFFFFFFFFFFFFFFFFFFFFFFFFFFFFFFFFFFFFFF DUP4 DUP2 DUP4 AND OR DUP4 MSTORE POP POP POP POP PUSH1 0x40 MLOAD PUSH2 0x662 SWAP2 SWAP1 PUSH2 0xC61 JUMP JUMPDEST PUSH0 PUSH1 0x40 MLOAD DUP1 DUP4 SUB DUP2 PUSH0 DUP7 GAS CALL SWAP2 POP POP RETURNDATASIZE DUP1 PUSH0 DUP2 EQ PUSH2 0x69B JUMPI PUSH1 0x40 MLOAD SWAP2 POP PUSH1 0x1F NOT PUSH1 0x3F RETURNDATASIZE ADD AND DUP3 ADD PUSH1 0x40 MSTORE RETURNDATASIZE DUP3 MSTORE RETURNDATASIZE PUSH0 PUSH1 0x20 DUP5 ADD RETURNDATACOPY PUSH2 0x6A0 JUMP JUMPDEST PUSH1 0x60 SWAP2 POP JUMPDEST POP SWAP2 POP SWAP2 POP DUP2 PUSH1 0x2 PUSH0 PUSH2 0x100 EXP DUP2 SLOAD DUP2 PUSH1 0xFF MUL NOT AND SWAP1 DUP4 ISZERO ISZERO MUL OR SWAP1 SSTORE POP DUP1 PUSH1 0x3 SWAP1 DUP2 PUSH2 0x6CD SWAP2 SWAP1 PUSH2 0xE1F JUMP JUMPDEST POP PUSH32 0x371AF01C5F2C31A6A7AE2D5FEF37CFA6AEC0B635583AED736AEBCD8C8AD25890 DUP3 PUSH1 0x40 MLOAD PUSH2 0x6FD SWAP2 SWAP1 PUSH2 0x8F8 JUMP JUMPDEST PUSH1 0x40 MLOAD DUP1 SWAP2 SUB SWAP1 LOG1 DUP2 PUSH2 0x745 JUMPI PUSH1 0x40 MLOAD PUSH32 0x8C379A000000000000000000000000000000000000000000000000000000000 DUP2 MSTORE PUSH1 0x4 ADD PUSH2 0x73C SWAP1 PUSH2 0xF38 JUMP JUMPDEST PUSH1 0x40 MLOAD DUP1 SWAP2 SUB SWAP1 REVERT JUMPDEST POP POP POP JUMP JUMPDEST PUSH0 PUSH0 SWAP1 SLOAD SWAP1 PUSH2 0x100 EXP SWAP1 DIV PUSH20 0xFFFFFFFFFFFFFFFFFFFFFFFFFFFFFFFFFFFFFFFF AND DUP2 JUMP JUMPDEST PUSH1 0x1 SLOAD DUP2 JUMP JUMPDEST PUSH1 0x60 PUSH1 0x44 DUP3 MLOAD LT ISZERO PUSH2 0x7BD JUMPI PUSH1 0x40 MLOAD DUP1 PUSH1 0x40 ADD PUSH1 0x40 MSTORE DUP1 PUSH1 0xE DUP2 MSTORE PUSH1 0x20 ADD PUSH32 0x556E6B6E6F776E20726576657274000000000000000000000000000000000000 DUP2 MSTORE POP SWAP1 POP PUSH2 0x7DA JUMP JUMPDEST PUSH1 0x4 DUP3 ADD SWAP2 POP DUP2 DUP1 PUSH1 0x20 ADD SWAP1 MLOAD DUP2 ADD SWAP1 PUSH2 0x7D7 SWAP2 SWAP1 PUSH2 0x1016 JUMP JUMPDEST SWAP1 POP JUMPDEST SWAP2 SWAP1 POP JUMP JUMPDEST PUSH0 DUP2 MLOAD SWAP1 POP SWAP2 SWAP1 POP JUMP JUMPDEST PUSH0 DUP3 DUP3 MSTORE PUSH1 0x20 DUP3 ADD SWAP1 POP SWAP3 SWAP2 POP POP JUMP JUMPDEST DUP3 DUP2 DUP4 MCOPY PUSH0 DUP4 DUP4 ADD MSTORE POP POP POP JUMP JUMPDEST PUSH0 PUSH1 0x1F NOT PUSH1 0x1F DUP4 ADD AND SWAP1 POP SWAP2 SWAP1 POP JUMP JUMPDEST PUSH0 PUSH2 0x821 DUP3 PUSH2 0x7DF JUMP JUMPDEST PUSH2 0x82B DUP2 DUP6 PUSH2 0x7E9 JUMP JUMPDEST SWAP4 POP PUSH2 0x83B DUP2 DUP6 PUSH1 0x20 DUP7 ADD PUSH2 0x7F9 JUMP JUMPDEST PUSH2 0x844 DUP2 PUSH2 0x807 JUMP JUMPDEST DUP5 ADD SWAP2 POP POP SWAP3 SWAP2 POP POP JUMP JUMPDEST PUSH0 PUSH1 0x20 DUP3 ADD SWAP1 POP DUP2 DUP2 SUB PUSH0 DUP4 ADD MSTORE PUSH2 0x867 DUP2 DUP5 PUSH2 0x817 JUMP JUMPDEST SWAP1 POP SWAP3 SWAP2 POP POP JUMP JUMPDEST PUSH0 PUSH1 0x40 MLOAD SWAP1 POP SWAP1 JUMP JUMPDEST PUSH0 PUSH0 REVERT JUMPDEST PUSH0 PUSH0 REVERT JUMPDEST PUSH0 DUP2 SWAP1 POP SWAP2 SWAP1 POP JUMP JUMPDEST PUSH2 0x892 DUP2 PUSH2 0x880 JUMP JUMPDEST DUP2 EQ PUSH2 0x89C JUMPI PUSH0 PUSH0 REVERT JUMPDEST POP JUMP JUMPDEST PUSH0 DUP2 CALLDATALOAD SWAP1 POP PUSH2 0x8AD DUP2 PUSH2 0x889 JUMP JUMPDEST SWAP3 SWAP2 POP POP JUMP JUMPDEST PUSH0 PUSH1 0x20 DUP3 DUP5 SUB SLT ISZERO PUSH2 0x8C8 JUMPI PUSH2 0x8C7 PUSH2 0x878 JUMP JUMPDEST JUMPDEST PUSH0 PUSH2 0x8D5 DUP5 DUP3 DUP6 ADD PUSH2 0x89F JUMP JUMPDEST SWAP2 POP POP SWAP3 SWAP2 POP POP JUMP JUMPDEST PUSH0 DUP2 ISZERO ISZERO SWAP1 POP SWAP2 SWAP1 POP JUMP JUMPDEST PUSH2 0x8F2 DUP2 PUSH2 0x8DE JUMP JUMPDEST DUP3 MSTORE POP POP JUMP JUMPDEST PUSH0 PUSH1 0x20 DUP3 ADD SWAP1 POP PUSH2 0x90B PUSH0 DUP4 ADD DUP5 PUSH2 0x8E9 JUMP JUMPDEST SWAP3 SWAP2 POP POP JUMP JUMPDEST PUSH0 PUSH20 0xFFFFFFFFFFFFFFFFFFFFFFFFFFFFFFFFFFFFFFFF DUP3 AND SWAP1 POP SWAP2 SWAP1 POP JUMP JUMPDEST PUSH0 DUP2 SWAP1 POP SWAP2 SWAP1 POP JUMP JUMPDEST PUSH0 PUSH2 0x953 PUSH2 0x94E PUSH2 0x949 DUP5 PUSH2 0x911 JUMP JUMPDEST PUSH2 0x930 JUMP JUMPDEST PUSH2 0x911 JUMP JUMPDEST SWAP1 POP SWAP2 SWAP1 POP JUMP JUMPDEST PUSH0 PUSH2 0x964 DUP3 PUSH2 0x939 JUMP JUMPDEST SWAP1 POP SWAP2 SWAP1 POP JUMP JUMPDEST PUSH0 PUSH2 0x975 DUP3 PUSH2 0x95A JUMP JUMPDEST SWAP1 POP SWAP2 SWAP1 POP JUMP JUMPDEST PUSH2 0x985 DUP2 PUSH2 0x96B JUMP JUMPDEST DUP3 MSTORE POP POP JUMP JUMPDEST PUSH0 PUSH1 0x20 DUP3 ADD SWAP1 POP PUSH2 0x99E PUSH0 DUP4 ADD DUP5 PUSH2 0x97C JUMP JUMPDEST SWAP3 SWAP2 POP POP JUMP JUMPDEST PUSH2 0x9AD DUP2 PUSH2 0x880 JUMP JUMPDEST DUP3 MSTORE POP POP JUMP JUMPDEST PUSH0 PUSH1 0x20 DUP3 ADD SWAP1 POP PUSH2 0x9C6 PUSH0 DUP4 ADD DUP5 PUSH2 0x9A4 JUMP JUMPDEST SWAP3 SWAP2 POP POP JUMP JUMPDEST PUSH32 0x4E487B7100000000000000000000000000000000000000000000000000000000 PUSH0 MSTORE PUSH1 0x22 PUSH1 0x4 MSTORE PUSH1 0x24 PUSH0 REVERT JUMPDEST PUSH0 PUSH1 0x2 DUP3 DIV SWAP1 POP PUSH1 0x1 DUP3 AND DUP1 PUSH2 0xA10 JUMPI PUSH1 0x7F DUP3 AND SWAP2 POP JUMPDEST PUSH1 0x20 DUP3 LT DUP2 SUB PUSH2 0xA23 JUMPI PUSH2 0xA22 PUSH2 0x9CC JUMP JUMPDEST JUMPDEST POP SWAP2 SWAP1 POP JUMP JUMPDEST PUSH32 0x4E487B7100000000000000000000000000000000000000000000000000000000 PUSH0 MSTORE PUSH1 0x11 PUSH1 0x4 MSTORE PUSH1 0x24 PUSH0 REVERT JUMPDEST PUSH0 PUSH2 0xA60 DUP3 PUSH2 0x880 JUMP JUMPDEST SWAP2 POP PUSH32 0xFFFFFFFFFFFFFFFFFFFFFFFFFFFFFFFFFFFFFFFFFFFFFFFFFFFFFFFFFFFFFFFF DUP3 SUB PUSH2 0xA92 JUMPI PUSH2 0xA91 PUSH2 0xA29 JUMP JUMPDEST JUMPDEST PUSH1 0x1 DUP3 ADD SWAP1 POP SWAP2 SWAP1 POP JUMP JUMPDEST PUSH0 DUP2 PUSH1 0xE0 SHR SWAP1 POP SWAP2 SWAP1 POP JUMP JUMPDEST PUSH0 PUSH1 0x3 RETURNDATASIZE GT ISZERO PUSH2 0xAC5 JUMPI PUSH1 0x4 PUSH0 PUSH0 RETURNDATACOPY PUSH2 0xAC2 PUSH0 MLOAD PUSH2 0xA9D JUMP JUMPDEST SWAP1 POP JUMPDEST SWAP1 JUMP JUMPDEST PUSH32 0x4E487B7100000000000000000000000000000000000000000000000000000000 PUSH0 MSTORE PUSH1 0x41 PUSH1 0x4 MSTORE PUSH1 0x24 PUSH0 REVERT JUMPDEST PUSH2 0xAFE DUP3 PUSH2 0x807 JUMP JUMPDEST DUP2 ADD DUP2 DUP2 LT PUSH8 0xFFFFFFFFFFFFFFFF DUP3 GT OR ISZERO PUSH2 0xB1D JUMPI PUSH2 0xB1C PUSH2 0xAC8 JUMP JUMPDEST JUMPDEST DUP1 PUSH1 0x40 MSTORE POP POP POP JUMP JUMPDEST PUSH0 PUSH1 0x44 RETURNDATASIZE LT PUSH2 0xBB2 JUMPI PUSH2 0xB37 PUSH2 0x86F JUMP JUMPDEST PUSH1 0x4 RETURNDATASIZE SUB PUSH1 0x4 DUP3 RETURNDATACOPY DUP1 MLOAD RETURNDATASIZE PUSH1 0x24 DUP3 ADD GT PUSH8 0xFFFFFFFFFFFFFFFF DUP3 GT OR ISZERO PUSH2 0xB5F JUMPI POP POP PUSH2 0xBB2 JUMP JUMPDEST DUP1 DUP3 ADD DUP1 MLOAD PUSH8 0xFFFFFFFFFFFFFFFF DUP2 GT ISZERO PUSH2 0xB7D JUMPI POP POP POP POP PUSH2 0xBB2 JUMP JUMPDEST DUP1 PUSH1 0x20 DUP4 ADD ADD PUSH1 0x4 RETURNDATASIZE SUB DUP6 ADD DUP2 GT ISZERO PUSH2 0xB9A JUMPI POP POP POP POP POP PUSH2 0xBB2 JUMP JUMPDEST PUSH2 0xBA9 DUP3 PUSH1 0x20 ADD DUP6 ADD DUP7 PUSH2 0xAF5 JUMP JUMPDEST DUP3 SWAP6 POP POP POP POP POP POP JUMPDEST SWAP1 JUMP JUMPDEST PUSH0 DUP2 MLOAD SWAP1 POP SWAP2 SWAP1 POP JUMP JUMPDEST PUSH0 DUP3 DUP3 MSTORE PUSH1 0x20 DUP3 ADD SWAP1 POP SWAP3 SWAP2 POP POP JUMP JUMPDEST PUSH0 PUSH2 0xBD9 DUP3 PUSH2 0xBB5 JUMP JUMPDEST PUSH2 0xBE3 DUP2 DUP6 PUSH2 0xBBF JUMP JUMPDEST SWAP4 POP PUSH2 0xBF3 DUP2 DUP6 PUSH1 0x20 DUP7 ADD PUSH2 0x7F9 JUMP JUMPDEST PUSH2 0xBFC DUP2 PUSH2 0x807 JUMP JUMPDEST DUP5 ADD SWAP2 POP POP SWAP3 SWAP2 POP POP JUMP JUMPDEST PUSH0 PUSH1 0x20 DUP3 ADD SWAP1 POP DUP2 DUP2 SUB PUSH0 DUP4 ADD MSTORE PUSH2 0xC1F DUP2 DUP5 PUSH2 0xBCF JUMP JUMPDEST SWAP1 POP SWAP3 SWAP2 POP POP JUMP JUMPDEST PUSH0 DUP2 SWAP1 POP SWAP3 SWAP2 POP POP JUMP JUMPDEST PUSH0 PUSH2 0xC3B DUP3 PUSH2 0x7DF JUMP JUMPDEST PUSH2 0xC45 DUP2 DUP6 PUSH2 0xC27 JUMP JUMPDEST SWAP4 POP PUSH2 0xC55 DUP2 DUP6 PUSH1 0x20 DUP7 ADD PUSH2 0x7F9 JUMP JUMPDEST DUP1 DUP5 ADD SWAP2 POP POP SWAP3 SWAP2 POP POP JUMP JUMPDEST PUSH0 PUSH2 0xC6C DUP3 DUP5 PUSH2 0xC31 JUMP JUMPDEST SWAP2 POP DUP2 SWAP1 POP SWAP3 SWAP2 POP POP JUMP JUMPDEST PUSH0 DUP2 SWAP1 POP DUP2 PUSH0 MSTORE PUSH1 0x20 PUSH0 KECCAK256 SWAP1 POP SWAP2 SWAP1 POP JUMP JUMPDEST PUSH0 PUSH1 0x20 PUSH1 0x1F DUP4 ADD DIV SWAP1 POP SWAP2 SWAP1 POP JUMP JUMPDEST PUSH0 DUP3 DUP3 SHL SWAP1 POP SWAP3 SWAP2 POP POP JUMP JUMPDEST PUSH0 PUSH1 0x8 DUP4 MUL PUSH2 0xCD3 PUSH32 0xFFFFFFFFFFFFFFFFFFFFFFFFFFFFFFFFFFFFFFFFFFFFFFFFFFFFFFFFFFFFFFFF DUP3 PUSH2 0xC98 JUMP JUMPDEST PUSH2 0xCDD DUP7 DUP4 PUSH2 0xC98 JUMP JUMPDEST SWAP6 POP DUP1 NOT DUP5 AND SWAP4 POP DUP1 DUP7 AND DUP5 OR SWAP3 POP POP POP SWAP4 SWAP3 POP POP POP JUMP JUMPDEST PUSH0 PUSH2 0xD0F PUSH2 0xD0A PUSH2 0xD05 DUP5 PUSH2 0x880 JUMP JUMPDEST PUSH2 0x930 JUMP JUMPDEST PUSH2 0x880 JUMP JUMPDEST SWAP1 POP SWAP2 SWAP1 POP JUMP JUMPDEST PUSH0 DUP2 SWAP1 POP SWAP2 SWAP1 POP JUMP JUMPDEST PUSH2 0xD28 DUP4 PUSH2 0xCF5 JUMP JUMPDEST PUSH2 0xD3C PUSH2 0xD34 DUP3 PUSH2 0xD16 JUMP JUMPDEST DUP5 DUP5 SLOAD PUSH2 0xCA4 JUMP JUMPDEST DUP3 SSTORE POP POP POP POP JUMP JUMPDEST PUSH0 PUSH0 SWAP1 POP SWAP1 JUMP JUMPDEST PUSH2 0xD53 PUSH2 0xD44 JUMP JUMPDEST PUSH2 0xD5E DUP2 DUP5 DUP5 PUSH2 0xD1F JUMP JUMPDEST POP POP POP JUMP JUMPDEST PUSH0 JUMPDEST DUP3 DUP2 LT ISZERO PUSH2 0xD84 JUMPI PUSH2 0xD79 PUSH0 DUP3 DUP5 ADD PUSH2 0xD4B JUMP JUMPDEST PUSH1 0x1 DUP2 ADD SWAP1 POP PUSH2 0xD65 JUMP JUMPDEST POP POP POP JUMP JUMPDEST PUSH1 0x1F DUP3 GT ISZERO PUSH2 0xDD7 JUMPI DUP3 DUP3 GT ISZERO PUSH2 0xDD6 JUMPI PUSH2 0xDA3 DUP2 PUSH2 0xC77 JUMP JUMPDEST PUSH2 0xDAC DUP4 PUSH2 0xC89 JUMP JUMPDEST PUSH2 0xDB5 DUP6 PUSH2 0xC89 JUMP JUMPDEST PUSH1 0x20 DUP7 LT ISZERO PUSH2 0xDC2 JUMPI PUSH0 SWAP1 POP JUMPDEST DUP1 DUP4 ADD PUSH2 0xDD1 DUP3 DUP5 SUB DUP3 PUSH2 0xD63 JUMP JUMPDEST POP POP POP POP JUMPDEST JUMPDEST POP POP POP JUMP JUMPDEST PUSH0 DUP3 DUP3 SHR SWAP1 POP SWAP3 SWAP2 POP POP JUMP JUMPDEST PUSH0 PUSH2 0xDF7 PUSH0 NOT DUP5 PUSH1 0x8 MUL PUSH2 0xDDC JUMP JUMPDEST NOT DUP1 DUP4 AND SWAP2 POP POP SWAP3 SWAP2 POP POP JUMP JUMPDEST PUSH0 PUSH2 0xE0F DUP4 DUP4 PUSH2 0xDE8 JUMP JUMPDEST SWAP2 POP DUP3 PUSH1 0x2 MUL DUP3 OR SWAP1 POP SWAP3 SWAP2 POP POP JUMP JUMPDEST PUSH2 0xE28 DUP3 PUSH2 0x7DF JUMP JUMPDEST PUSH8 0xFFFFFFFFFFFFFFFF DUP2 GT ISZERO PUSH2 0xE41 JUMPI PUSH2 0xE40 PUSH2 0xAC8 JUMP JUMPDEST JUMPDEST PUSH2 0xE4B DUP3 SLOAD PUSH2 0x9F9 JUMP JUMPDEST PUSH2 0xE56 DUP3 DUP3 DUP6 PUSH2 0xD89 JUMP JUMPDEST PUSH0 PUSH1 0x20 SWAP1 POP PUSH1 0x1F DUP4 GT PUSH1 0x1 DUP2 EQ PUSH2 0xE87 JUMPI PUSH0 DUP5 ISZERO PUSH2 0xE75 JUMPI DUP3 DUP8 ADD MLOAD SWAP1 POP JUMPDEST PUSH2 0xE7F DUP6 DUP3 PUSH2 0xE04 JUMP JUMPDEST DUP7 SSTORE POP PUSH2 0xEE6 JUMP JUMPDEST PUSH1 0x1F NOT DUP5 AND PUSH2 0xE95 DUP7 PUSH2 0xC77 JUMP JUMPDEST PUSH0 JUMPDEST DUP3 DUP2 LT ISZERO PUSH2 0xEBC JUMPI DUP5 DUP10 ADD MLOAD DUP3 SSTORE PUSH1 0x1 DUP3 ADD SWAP2 POP PUSH1 0x20 DUP6 ADD SWAP5 POP PUSH1 0x20 DUP2 ADD SWAP1 POP PUSH2 0xE97 JUMP JUMPDEST DUP7 DUP4 LT ISZERO PUSH2 0xED9 JUMPI DUP5 DUP10 ADD MLOAD PUSH2 0xED5 PUSH1 0x1F DUP10 AND DUP3 PUSH2 0xDE8 JUMP JUMPDEST DUP4 SSTORE POP JUMPDEST PUSH1 0x1 PUSH1 0x2 DUP9 MUL ADD DUP9 SSTORE POP POP POP JUMPDEST POP POP POP POP POP POP JUMP JUMPDEST PUSH32 0x4C6F772D6C6576656C2063616C6C206661696C65640000000000000000000000 PUSH0 DUP3 ADD MSTORE POP JUMP JUMPDEST PUSH0 PUSH2 0xF22 PUSH1 0x15 DUP4 PUSH2 0xBBF JUMP JUMPDEST SWAP2 POP PUSH2 0xF2D DUP3 PUSH2 0xEEE JUMP JUMPDEST PUSH1 0x20 DUP3 ADD SWAP1 POP SWAP2 SWAP1 POP JUMP JUMPDEST PUSH0 PUSH1 0x20 DUP3 ADD SWAP1 POP DUP2 DUP2 SUB PUSH0 DUP4 ADD MSTORE PUSH2 0xF4F DUP2 PUSH2 0xF16 JUMP JUMPDEST SWAP1 POP SWAP2 SWAP1 POP JUMP JUMPDEST PUSH0 PUSH0 REVERT JUMPDEST PUSH0 PUSH0 REVERT JUMPDEST PUSH0 PUSH2 0xF67 PUSH2 0x86F JUMP JUMPDEST SWAP1 POP PUSH2 0xF73 DUP3 DUP3 PUSH2 0xAF5 JUMP JUMPDEST SWAP2 SWAP1 POP JUMP JUMPDEST PUSH0 PUSH8 0xFFFFFFFFFFFFFFFF DUP3 GT ISZERO PUSH2 0xF92 JUMPI PUSH2 0xF91 PUSH2 0xAC8 JUMP JUMPDEST JUMPDEST PUSH2 0xF9B DUP3 PUSH2 0x807 JUMP JUMPDEST SWAP1 POP PUSH1 0x20 DUP2 ADD SWAP1 POP SWAP2 SWAP1 POP JUMP JUMPDEST PUSH0 PUSH2 0xFBA PUSH2 0xFB5 DUP5 PUSH2 0xF78 JUMP JUMPDEST PUSH2 0xF5E JUMP JUMPDEST SWAP1 POP DUP3 DUP2 MSTORE PUSH1 0x20 DUP2 ADD DUP5 DUP5 DUP5 ADD GT ISZERO PUSH2 0xFD6 JUMPI PUSH2 0xFD5 PUSH2 0xF5A JUMP JUMPDEST JUMPDEST PUSH2 0xFE1 DUP5 DUP3 DUP6 PUSH2 0x7F9 JUMP JUMPDEST POP SWAP4 SWAP3 POP POP POP JUMP JUMPDEST PUSH0 DUP3 PUSH1 0x1F DUP4 ADD SLT PUSH2 0xFFD JUMPI PUSH2 0xFFC PUSH2 0xF56 JUMP JUMPDEST JUMPDEST DUP2 MLOAD PUSH2 0x100D DUP5 DUP3 PUSH1 0x20 DUP7 ADD PUSH2 0xFA8 JUMP JUMPDEST SWAP2 POP POP SWAP3 SWAP2 POP POP JUMP JUMPDEST PUSH0 PUSH1 0x20 DUP3 DUP5 SUB SLT ISZERO PUSH2 0x102B JUMPI PUSH2 0x102A PUSH2 0x878 JUMP JUMPDEST JUMPDEST PUSH0 DUP3 ADD MLOAD PUSH8 0xFFFFFFFFFFFFFFFF DUP2 GT ISZERO PUSH2 0x1048 JUMPI PUSH2 0x1047 PUSH2 0x87C JUMP JUMPDEST JUMPDEST PUSH2 0x1054 DUP5 DUP3 DUP6 ADD PUSH2 0xFE9 JUMP JUMPDEST SWAP2 POP POP SWAP3 SWAP2 POP POP JUMP INVALID LOG2 PUSH5 0x6970667358 0x22 SLT KECCAK256 0xDB SELFBALANCE CALLVALUE SDIV 0xDE ORIGIN 0xC6 PUSH12 0xAA7FDBD0B02EFD7E748FC0D2 LOG2 EXTCALL DUP3 INVALID EXTCODEHASH SSTORE 0xF JUMP MOD CALLF 0x1876 PUSH5 0x736F6C6343 STOP ADDMOD 0x22 STOP CALLER "
		},
		"gasEstimates": {
			"creation": {
				"codeDepositCost": "848600",
				"executionCost": "infinite",
				"totalCost": "infinite"
			},
			"external": {
				"callSetNumber(uint256)": "infinite",
				"failingCall()": "infinite",
				"lastData()": "infinite",
				"lastSuccess()": "2533",
				"localCounter()": "2491",
				"lowLevelCall(uint256)": "infinite",
				"target()": "infinite",
				"tryCatchExample()": "infinite"
			},
			"internal": {
				"decodeRevert(bytes memory)": "infinite"
			}
		},
		"methodIdentifiers": {
			"callSetNumber(uint256)": "11c04ef4",
			"failingCall()": "98de4cee",
			"lastData()": "006e75ec",
			"lastSuccess()": "9415bc59",
			"localCounter()": "e88cc9a3",
			"lowLevelCall(uint256)": "ce8deaf0",
			"target()": "d4b83992",
			"tryCatchExample()": "1eedbfe8"
		}
	},
	"abi": [
		{
			"inputs": [
				{
					"internalType": "address payable",
					"name": "_target",
					"type": "address"
				}
			],
			"stateMutability": "nonpayable",
			"type": "constructor"
		},
		{
			"anonymous": false,
			"inputs": [
				{
					"indexed": false,
					"internalType": "string",
					"name": "reason",
					"type": "string"
				}
			],
			"name": "Failure",
			"type": "event"
		},
		{
			"anonymous": false,
			"inputs": [
				{
					"indexed": false,
					"internalType": "bool",
					"name": "success",
					"type": "bool"
				}
			],
			"name": "LowLevelResult",
			"type": "event"
		},
		{
			"inputs": [
				{
					"internalType": "uint256",
					"name": "_number",
					"type": "uint256"
				}
			],
			"name": "callSetNumber",
			"outputs": [],
			"stateMutability": "nonpayable",
			"type": "function"
		},
		{
			"inputs": [],
			"name": "failingCall",
			"outputs": [],
			"stateMutability": "nonpayable",
			"type": "function"
		},
		{
			"inputs": [],
			"name": "lastData",
			"outputs": [
				{
					"internalType": "bytes",
					"name": "",
					"type": "bytes"
				}
			],
			"stateMutability": "view",
			"type": "function"
		},
		{
			"inputs": [],
			"name": "lastSuccess",
			"outputs": [
				{
					"internalType": "bool",
					"name": "",
					"type": "bool"
				}
			],
			"stateMutability": "view",
			"type": "function"
		},
		{
			"inputs": [],
			"name": "localCounter",
			"outputs": [
				{
					"internalType": "uint256",
					"name": "",
					"type": "uint256"
				}
			],
			"stateMutability": "view",
			"type": "function"
		},
		{
			"inputs": [
				{
					"internalType": "uint256",
					"name": "_number",
					"type": "uint256"
				}
			],
			"name": "lowLevelCall",
			"outputs": [],
			"stateMutability": "nonpayable",
			"type": "function"
		},
		{
			"inputs": [],
			"name": "target",
			"outputs": [
				{
					"internalType": "contract DataStorage",
					"name": "",
					"type": "address"
				}
			],
			"stateMutability": "view",
			"type": "function"
		},
		{
			"inputs": [],
			"name": "tryCatchExample",
			"outputs": [],
			"stateMutability": "nonpayable",
			"type": "function"
		},
		{
			"stateMutability": "payable",
			"type": "receive"
		}
	]
}