{
	"data": {
		"bytecode": {
			"linkReferences": {},
			"object": "6080604052348015600e575f5ffd5b50610b518061001c5f395ff3fe608060405234801561000f575f5ffd5b506004361061009b575f3560e01c8063bd4725a611610064578063bd4725a614610134578063be1c766b14610164578063c458a80114610182578063d4d5e8d51461019e578063f0ba8440146101ba5761009b565b80620d02cd1461009f578063614b9109146100bd57806362a5f171146100ed57806386738b3a146100f757806395c570bd14610116575b5f5ffd5b6100a76101ea565b6040516100b4919061072f565b60405180910390f35b6100d760048036038101906100d29190610776565b6101f0565b6040516100e4919061072f565b60405180910390f35b6100f56102a3565b005b6100ff61036f565b60405161010d929190610824565b60405180910390f35b61011e6103c9565b60405161012b919061072f565b60405180910390f35b61014e60048036038101906101499190610859565b6103cf565b60405161015b9190610884565b60405180910390f35b61016c6104ed565b604051610179919061072f565b60405180910390f35b61019c60048036038101906101979190610776565b6104f8565b005b6101b860048036038101906101b39190610859565b610670565b005b6101d460048036038101906101cf9190610859565b6106f8565b6040516101e1919061072f565b60405180910390f35b60015481565b5f6064821115610235576040517f08c379a000000000000000000000000000000000000000000000000000000000815260040161022c906108ee565b60405180910390fd5b5f82846102429190610939565b90505f80549050811115610258575f8054905090505b5f8490505b8181101561029b575f81815481106102785761027761096c565b5b905f5260205f2001548361028c9190610939565b9250808060010191505061025d565b505092915050565b5f5a90505f5f90505f5f90505b5f80549050811015610312575f81815481106102cf576102ce61096c565b5b905f5260205f200154826102e39190610939565b9150815f82815481106102f9576102f861096c565b5b905f5260205f20018190555080806001019150506102b0565b50806001819055505a826103269190610999565b6002819055507f941393981297ed81e4a9780200ed4bee006292b05bc84877f285540cf574d96c6002545f805490506040516103639291906109cc565b60405180910390a15050565b606080604051806060016040528060238152602001610af96023913991506040518060400160405280601c81526020017f55736573206368756e6b696e6720746f2070726576656e74204f4f470000000081525091509091565b60025481565b6060606482116104e7576064821161041e576040518060400160405280600d81526020017f6c6f77206761732075736167650000000000000000000000000000000000000081525090506104e8565b6103e88211610464576040518060400160405280601081526020017f4d656469756d206761732075736167650000000000000000000000000000000081525090506104e8565b61138882116104aa576040518060400160405280600e81526020017f486967682067617320757361676500000000000000000000000000000000000081525090506104e8565b6040518060400160405280601081526020017f45787472656d6520676173207269736b0000000000000000000000000000000081525090506104e8565b5b919050565b5f5f80549050905090565b606481111561053c576040517f08c379a0000000000000000000000000000000000000000000000000000000008152600401610533906108ee565b60405180910390fd5b5f805490508210610582576040517f08c379a000000000000000000000000000000000000000000000000000000000815260040161057990610a3d565b60405180910390fd5b5f5a90505f82846105939190610939565b90505f805490508111156105a9575f8054905090505b5f60015490505f8590505b82811015610612575f81815481106105cf576105ce61096c565b5b905f5260205f200154826105e39190610939565b9150815f82815481106105f9576105f861096c565b5b905f5260205f20018190555080806001019150506105b4565b50806001819055505a836106269190610999565b6002819055507f625d72aebb3969a6c371d82d0fcaaf32ddbdfda8fae6cbc0402ec251b54d3462858360025460405161066193929190610a5b565b60405180910390a15050505050565b6103e88111156106b5576040517f08c379a00000000000000000000000000000000000000000000000000000000081526004016106ac90610ada565b60405180910390fd5b5f5f90505b818110156106f4575f81908060018154018082558091505060019003905f5260205f20015f909190919091505580806001019150506106ba565b5050565b5f8181548110610706575f80fd5b905f5260205f20015f915090505481565b5f819050919050565b61072981610717565b82525050565b5f6020820190506107425f830184610720565b92915050565b5f5ffd5b61075581610717565b811461075f575f5ffd5b50565b5f813590506107708161074c565b92915050565b5f5f6040838503121561078c5761078b610748565b5b5f61079985828601610762565b92505060206107aa85828601610762565b9150509250929050565b5f81519050919050565b5f82825260208201905092915050565b8281835e5f83830152505050565b5f601f19601f8301169050919050565b5f6107f6826107b4565b61080081856107be565b93506108108185602086016107ce565b610819816107dc565b840191505092915050565b5f6040820190508181035f83015261083c81856107ec565b9050818103602083015261085081846107ec565b90509392505050565b5f6020828403121561086e5761086d610748565b5b5f61087b84828501610762565b91505092915050565b5f6020820190508181035f83015261089c81846107ec565b905092915050565b7f426174636820746f6f206c6172676500000000000000000000000000000000005f82015250565b5f6108d8600f836107be565b91506108e3826108a4565b602082019050919050565b5f6020820190508181035f830152610905816108cc565b9050919050565b7f4e487b71000000000000000000000000000000000000000000000000000000005f52601160045260245ffd5b5f61094382610717565b915061094e83610717565b92508282019050808211156109665761096561090c565b5b92915050565b7f4e487b71000000000000000000000000000000000000000000000000000000005f52603260045260245ffd5b5f6109a382610717565b91506109ae83610717565b92508282039050818111156109c6576109c561090c565b5b92915050565b5f6040820190506109df5f830185610720565b6109ec6020830184610720565b9392505050565b7f496e76616c6964207374617274000000000000000000000000000000000000005f82015250565b5f610a27600d836107be565b9150610a32826109f3565b602082019050919050565b5f6020820190508181035f830152610a5481610a1b565b9050919050565b5f606082019050610a6e5f830186610720565b610a7b6020830185610720565b610a886040830184610720565b949350505050565b7f546f6f206d616e792076616c75657300000000000000000000000000000000005f82015250565b5f610ac4600f836107be565b9150610acf82610a90565b602082019050919050565b5f6020820190508181035f830152610af181610ab8565b905091905056fe6c6f6f707320656e74697220617272617920616e64206d6179206361757365204f4f47a26469706673582212201899fc0a7fb8d17a3970818cbaecc8e11c2600dbe68bed73830fde996ddaa46464736f6c63430008220033",
			"opcodes": "PUSH1 0x80 PUSH1 0x40 MSTORE CALLVALUE DUP1 ISZERO PUSH1 0xE JUMPI PUSH0 PUSH0 REVERT JUMPDEST POP PUSH2 0xB51 DUP1 PUSH2 0x1C PUSH0 CODECOPY PUSH0 RETURN INVALID PUSH1 0x80 PUSH1 0x40 MSTORE CALLVALUE DUP1 ISZERO PUSH2 0xF JUMPI PUSH0 PUSH0 REVERT JUMPDEST POP PUSH1 0x4 CALLDATASIZE LT PUSH2 0x9B JUMPI PUSH0 CALLDATALOAD PUSH1 0xE0 SHR DUP1 PUSH4 0xBD4725A6 GT PUSH2 0x64 JUMPI DUP1 PUSH4 0xBD4725A6 EQ PUSH2 0x134 JUMPI DUP1 PUSH4 0xBE1C766B EQ PUSH2 0x164 JUMPI DUP1 PUSH4 0xC458A801 EQ PUSH2 0x182 JUMPI DUP1 PUSH4 0xD4D5E8D5 EQ PUSH2 0x19E JUMPI DUP1 PUSH4 0xF0BA8440 EQ PUSH2 0x1BA JUMPI PUSH2 0x9B JUMP JUMPDEST DUP1 PUSH3 0xD02CD EQ PUSH2 0x9F JUMPI DUP1 PUSH4 0x614B9109 EQ PUSH2 0xBD JUMPI DUP1 PUSH4 0x62A5F171 EQ PUSH2 0xED JUMPI DUP1 PUSH4 0x86738B3A EQ PUSH2 0xF7 JUMPI DUP1 PUSH4 0x95C570BD EQ PUSH2 0x116 JUMPI JUMPDEST PUSH0 PUSH0 REVERT JUMPDEST PUSH2 0xA7 PUSH2 0x1EA JUMP JUMPDEST PUSH1 0x40 MLOAD PUSH2 0xB4 SWAP2 SWAP1 PUSH2 0x72F JUMP JUMPDEST PUSH1 0x40 MLOAD DUP1 SWAP2 SUB SWAP1 RETURN JUMPDEST PUSH2 0xD7 PUSH1 0x4 DUP1 CALLDATASIZE SUB DUP2 ADD SWAP1 PUSH2 0xD2 SWAP2 SWAP1 PUSH2 0x776 JUMP JUMPDEST PUSH2 0x1F0 JUMP JUMPDEST PUSH1 0x40 MLOAD PUSH2 0xE4 SWAP2 SWAP1 PUSH2 0x72F JUMP JUMPDEST PUSH1 0x40 MLOAD DUP1 SWAP2 SUB SWAP1 RETURN JUMPDEST PUSH2 0xF5 PUSH2 0x2A3 JUMP JUMPDEST STOP JUMPDEST PUSH2 0xFF PUSH2 0x36F JUMP JUMPDEST PUSH1 0x40 MLOAD PUSH2 0x10D SWAP3 SWAP2 SWAP1 PUSH2 0x824 JUMP JUMPDEST PUSH1 0x40 MLOAD DUP1 SWAP2 SUB SWAP1 RETURN JUMPDEST PUSH2 0x11E PUSH2 0x3C9 JUMP JUMPDEST PUSH1 0x40 MLOAD PUSH2 0x12B SWAP2 SWAP1 PUSH2 0x72F JUMP JUMPDEST PUSH1 0x40 MLOAD DUP1 SWAP2 SUB SWAP1 RETURN JUMPDEST PUSH2 0x14E PUSH1 0x4 DUP1 CALLDATASIZE SUB DUP2 ADD SWAP1 PUSH2 0x149 SWAP2 SWAP1 PUSH2 0x859 JUMP JUMPDEST PUSH2 0x3CF JUMP JUMPDEST PUSH1 0x40 MLOAD PUSH2 0x15B SWAP2 SWAP1 PUSH2 0x884 JUMP JUMPDEST PUSH1 0x40 MLOAD DUP1 SWAP2 SUB SWAP1 RETURN JUMPDEST PUSH2 0x16C PUSH2 0x4ED JUMP JUMPDEST PUSH1 0x40 MLOAD PUSH2 0x179 SWAP2 SWAP1 PUSH2 0x72F JUMP JUMPDEST PUSH1 0x40 MLOAD DUP1 SWAP2 SUB SWAP1 RETURN JUMPDEST PUSH2 0x19C PUSH1 0x4 DUP1 CALLDATASIZE SUB DUP2 ADD SWAP1 PUSH2 0x197 SWAP2 SWAP1 PUSH2 0x776 JUMP JUMPDEST PUSH2 0x4F8 JUMP JUMPDEST STOP JUMPDEST PUSH2 0x1B8 PUSH1 0x4 DUP1 CALLDATASIZE SUB DUP2 ADD SWAP1 PUSH2 0x1B3 SWAP2 SWAP1 PUSH2 0x859 JUMP JUMPDEST PUSH2 0x670 JUMP JUMPDEST STOP JUMPDEST PUSH2 0x1D4 PUSH1 0x4 DUP1 CALLDATASIZE SUB DUP2 ADD SWAP1 PUSH2 0x1CF SWAP2 SWAP1 PUSH2 0x859 JUMP JUMPDEST PUSH2 0x6F8 JUMP JUMPDEST PUSH1 0x40 MLOAD PUSH2 0x1E1 SWAP2 SWAP1 PUSH2 0x72F JUMP JUMPDEST PUSH1 0x40 MLOAD DUP1 SWAP2 SUB SWAP1 RETURN JUMPDEST PUSH1 0x1 SLOAD DUP2 JUMP JUMPDEST PUSH0 PUSH1 0x64 DUP3 GT ISZERO PUSH2 0x235 JUMPI PUSH1 0x40 MLOAD PUSH32 0x8C379A000000000000000000000000000000000000000000000000000000000 DUP2 MSTORE PUSH1 0x4 ADD PUSH2 0x22C SWAP1 PUSH2 0x8EE JUMP JUMPDEST PUSH1 0x40 MLOAD DUP1 SWAP2 SUB SWAP1 REVERT JUMPDEST PUSH0 DUP3 DUP5 PUSH2 0x242 SWAP2 SWAP1 PUSH2 0x939 JUMP JUMPDEST SWAP1 POP PUSH0 DUP1 SLOAD SWAP1 POP DUP2 GT ISZERO PUSH2 0x258 JUMPI PUSH0 DUP1 SLOAD SWAP1 POP SWAP1 POP JUMPDEST PUSH0 DUP5 SWAP1 POP JUMPDEST DUP2 DUP2 LT ISZERO PUSH2 0x29B JUMPI PUSH0 DUP2 DUP2 SLOAD DUP2 LT PUSH2 0x278 JUMPI PUSH2 0x277 PUSH2 0x96C JUMP JUMPDEST JUMPDEST SWAP1 PUSH0 MSTORE PUSH1 0x20 PUSH0 KECCAK256 ADD SLOAD DUP4 PUSH2 0x28C SWAP2 SWAP1 PUSH2 0x939 JUMP JUMPDEST SWAP3 POP DUP1 DUP1 PUSH1 0x1 ADD SWAP2 POP POP PUSH2 0x25D JUMP JUMPDEST POP POP SWAP3 SWAP2 POP POP JUMP JUMPDEST PUSH0 GAS SWAP1 POP PUSH0 PUSH0 SWAP1 POP PUSH0 PUSH0 SWAP1 POP JUMPDEST PUSH0 DUP1 SLOAD SWAP1 POP DUP2 LT ISZERO PUSH2 0x312 JUMPI PUSH0 DUP2 DUP2 SLOAD DUP2 LT PUSH2 0x2CF JUMPI PUSH2 0x2CE PUSH2 0x96C JUMP JUMPDEST JUMPDEST SWAP1 PUSH0 MSTORE PUSH1 0x20 PUSH0 KECCAK256 ADD SLOAD DUP3 PUSH2 0x2E3 SWAP2 SWAP1 PUSH2 0x939 JUMP JUMPDEST SWAP2 POP DUP2 PUSH0 DUP3 DUP2 SLOAD DUP2 LT PUSH2 0x2F9 JUMPI PUSH2 0x2F8 PUSH2 0x96C JUMP JUMPDEST JUMPDEST SWAP1 PUSH0 MSTORE PUSH1 0x20 PUSH0 KECCAK256 ADD DUP2 SWAP1 SSTORE POP DUP1 DUP1 PUSH1 0x1 ADD SWAP2 POP POP PUSH2 0x2B0 JUMP JUMPDEST POP DUP1 PUSH1 0x1 DUP2 SWAP1 SSTORE POP GAS DUP3 PUSH2 0x326 SWAP2 SWAP1 PUSH2 0x999 JUMP JUMPDEST PUSH1 0x2 DUP2 SWAP1 SSTORE POP PUSH32 0x941393981297ED81E4A9780200ED4BEE006292B05BC84877F285540CF574D96C PUSH1 0x2 SLOAD PUSH0 DUP1 SLOAD SWAP1 POP PUSH1 0x40 MLOAD PUSH2 0x363 SWAP3 SWAP2 SWAP1 PUSH2 0x9CC JUMP JUMPDEST PUSH1 0x40 MLOAD DUP1 SWAP2 SUB SWAP1 LOG1 POP POP JUMP JUMPDEST PUSH1 0x60 DUP1 PUSH1 0x40 MLOAD DUP1 PUSH1 0x60 ADD PUSH1 0x40 MSTORE DUP1 PUSH1 0x23 DUP2 MSTORE PUSH1 0x20 ADD PUSH2 0xAF9 PUSH1 0x23 SWAP2 CODECOPY SWAP2 POP PUSH1 0x40 MLOAD DUP1 PUSH1 0x40 ADD PUSH1 0x40 MSTORE DUP1 PUSH1 0x1C DUP2 MSTORE PUSH1 0x20 ADD PUSH32 0x55736573206368756E6B696E6720746F2070726576656E74204F4F4700000000 DUP2 MSTORE POP SWAP2 POP SWAP1 SWAP2 JUMP JUMPDEST PUSH1 0x2 SLOAD DUP2 JUMP JUMPDEST PUSH1 0x60 PUSH1 0x64 DUP3 GT PUSH2 0x4E7 JUMPI PUSH1 0x64 DUP3 GT PUSH2 0x41E JUMPI PUSH1 0x40 MLOAD DUP1 PUSH1 0x40 ADD PUSH1 0x40 MSTORE DUP1 PUSH1 0xD DUP2 MSTORE PUSH1 0x20 ADD PUSH32 0x6C6F772067617320757361676500000000000000000000000000000000000000 DUP2 MSTORE POP SWAP1 POP PUSH2 0x4E8 JUMP JUMPDEST PUSH2 0x3E8 DUP3 GT PUSH2 0x464 JUMPI PUSH1 0x40 MLOAD DUP1 PUSH1 0x40 ADD PUSH1 0x40 MSTORE DUP1 PUSH1 0x10 DUP2 MSTORE PUSH1 0x20 ADD PUSH32 0x4D656469756D2067617320757361676500000000000000000000000000000000 DUP2 MSTORE POP SWAP1 POP PUSH2 0x4E8 JUMP JUMPDEST PUSH2 0x1388 DUP3 GT PUSH2 0x4AA JUMPI PUSH1 0x40 MLOAD DUP1 PUSH1 0x40 ADD PUSH1 0x40 MSTORE DUP1 PUSH1 0xE DUP2 MSTORE PUSH1 0x20 ADD PUSH32 0x4869676820676173207573616765000000000000000000000000000000000000 DUP2 MSTORE POP SWAP1 POP PUSH2 0x4E8 JUMP JUMPDEST PUSH1 0x40 MLOAD DUP1 PUSH1 0x40 ADD PUSH1 0x40 MSTORE DUP1 PUSH1 0x10 DUP2 MSTORE PUSH1 0x20 ADD PUSH32 0x45787472656D6520676173207269736B00000000000000000000000000000000 DUP2 MSTORE POP SWAP1 POP PUSH2 0x4E8 JUMP JUMPDEST JUMPDEST SWAP2 SWAP1 POP JUMP JUMPDEST PUSH0 PUSH0 DUP1 SLOAD SWAP1 POP SWAP1 POP SWAP1 JUMP JUMPDEST PUSH1 0x64 DUP2 GT ISZERO PUSH2 0x53C JUMPI PUSH1 0x40 MLOAD PUSH32 0x8C379A000000000000000000000000000000000000000000000000000000000 DUP2 MSTORE PUSH1 0x4 ADD PUSH2 0x533 SWAP1 PUSH2 0x8EE JUMP JUMPDEST PUSH1 0x40 MLOAD DUP1 SWAP2 SUB SWAP1 REVERT JUMPDEST PUSH0 DUP1 SLOAD SWAP1 POP DUP3 LT PUSH2 0x582 JUMPI PUSH1 0x40 MLOAD PUSH32 0x8C379A000000000000000000000000000000000000000000000000000000000 DUP2 MSTORE PUSH1 0x4 ADD PUSH2 0x579 SWAP1 PUSH2 0xA3D JUMP JUMPDEST PUSH1 0x40 MLOAD DUP1 SWAP2 SUB SWAP1 REVERT JUMPDEST PUSH0 GAS SWAP1 POP PUSH0 DUP3 DUP5 PUSH2 0x593 SWAP2 SWAP1 PUSH2 0x939 JUMP JUMPDEST SWAP1 POP PUSH0 DUP1 SLOAD SWAP1 POP DUP2 GT ISZERO PUSH2 0x5A9 JUMPI PUSH0 DUP1 SLOAD SWAP1 POP SWAP1 POP JUMPDEST PUSH0 PUSH1 0x1 SLOAD SWAP1 POP PUSH0 DUP6 SWAP1 POP JUMPDEST DUP3 DUP2 LT ISZERO PUSH2 0x612 JUMPI PUSH0 DUP2 DUP2 SLOAD DUP2 LT PUSH2 0x5CF JUMPI PUSH2 0x5CE PUSH2 0x96C JUMP JUMPDEST JUMPDEST SWAP1 PUSH0 MSTORE PUSH1 0x20 PUSH0 KECCAK256 ADD SLOAD DUP3 PUSH2 0x5E3 SWAP2 SWAP1 PUSH2 0x939 JUMP JUMPDEST SWAP2 POP DUP2 PUSH0 DUP3 DUP2 SLOAD DUP2 LT PUSH2 0x5F9 JUMPI PUSH2 0x5F8 PUSH2 0x96C JUMP JUMPDEST JUMPDEST SWAP1 PUSH0 MSTORE PUSH1 0x20 PUSH0 KECCAK256 ADD DUP2 SWAP1 SSTORE POP DUP1 DUP1 PUSH1 0x1 ADD SWAP2 POP POP PUSH2 0x5B4 JUMP JUMPDEST POP DUP1 PUSH1 0x1 DUP2 SWAP1 SSTORE POP GAS DUP4 PUSH2 0x626 SWAP2 SWAP1 PUSH2 0x999 JUMP JUMPDEST PUSH1 0x2 DUP2 SWAP1 SSTORE POP PUSH32 0x625D72AEBB3969A6C371D82D0FCAAF32DDBDFDA8FAE6CBC0402EC251B54D3462 DUP6 DUP4 PUSH1 0x2 SLOAD PUSH1 0x40 MLOAD PUSH2 0x661 SWAP4 SWAP3 SWAP2 SWAP1 PUSH2 0xA5B JUMP JUMPDEST PUSH1 0x40 MLOAD DUP1 SWAP2 SUB SWAP1 LOG1 POP POP POP POP POP JUMP JUMPDEST PUSH2 0x3E8 DUP2 GT ISZERO PUSH2 0x6B5 JUMPI PUSH1 0x40 MLOAD PUSH32 0x8C379A000000000000000000000000000000000000000000000000000000000 DUP2 MSTORE PUSH1 0x4 ADD PUSH2 0x6AC SWAP1 PUSH2 0xADA JUMP JUMPDEST PUSH1 0x40 MLOAD DUP1 SWAP2 SUB SWAP1 REVERT JUMPDEST PUSH0 PUSH0 SWAP1 POP JUMPDEST DUP2 DUP2 LT ISZERO PUSH2 0x6F4 JUMPI PUSH0 DUP2 SWAP1 DUP1 PUSH1 0x1 DUP2 SLOAD ADD DUP1 DUP3 SSTORE DUP1 SWAP2 POP POP PUSH1 0x1 SWAP1 SUB SWAP1 PUSH0 MSTORE PUSH1 0x20 PUSH0 KECCAK256 ADD PUSH0 SWAP1 SWAP2 SWAP1 SWAP2 SWAP1 SWAP2 POP SSTORE DUP1 DUP1 PUSH1 0x1 ADD SWAP2 POP POP PUSH2 0x6BA JUMP JUMPDEST POP POP JUMP JUMPDEST PUSH0 DUP2 DUP2 SLOAD DUP2 LT PUSH2 0x706 JUMPI PUSH0 DUP1 REVERT JUMPDEST SWAP1 PUSH0 MSTORE PUSH1 0x20 PUSH0 KECCAK256 ADD PUSH0 SWAP2 POP SWAP1 POP SLOAD DUP2 JUMP JUMPDEST PUSH0 DUP2 SWAP1 POP SWAP2 SWAP1 POP JUMP JUMPDEST PUSH2 0x729 DUP2 PUSH2 0x717 JUMP JUMPDEST DUP3 MSTORE POP POP JUMP JUMPDEST PUSH0 PUSH1 0x20 DUP3 ADD SWAP1 POP PUSH2 0x742 PUSH0 DUP4 ADD DUP5 PUSH2 0x720 JUMP JUMPDEST SWAP3 SWAP2 POP POP JUMP JUMPDEST PUSH0 PUSH0 REVERT JUMPDEST PUSH2 0x755 DUP2 PUSH2 0x717 JUMP JUMPDEST DUP2 EQ PUSH2 0x75F JUMPI PUSH0 PUSH0 REVERT JUMPDEST POP JUMP JUMPDEST PUSH0 DUP2 CALLDATALOAD SWAP1 POP PUSH2 0x770 DUP2 PUSH2 0x74C JUMP JUMPDEST SWAP3 SWAP2 POP POP JUMP JUMPDEST PUSH0 PUSH0 PUSH1 0x40 DUP4 DUP6 SUB SLT ISZERO PUSH2 0x78C JUMPI PUSH2 0x78B PUSH2 0x748 JUMP JUMPDEST JUMPDEST PUSH0 PUSH2 0x799 DUP6 DUP3 DUP7 ADD PUSH2 0x762 JUMP JUMPDEST SWAP3 POP POP PUSH1 0x20 PUSH2 0x7AA DUP6 DUP3 DUP7 ADD PUSH2 0x762 JUMP JUMPDEST SWAP2 POP POP SWAP3 POP SWAP3 SWAP1 POP JUMP JUMPDEST PUSH0 DUP2 MLOAD SWAP1 POP SWAP2 SWAP1 POP JUMP JUMPDEST PUSH0 DUP3 DUP3 MSTORE PUSH1 0x20 DUP3 ADD SWAP1 POP SWAP3 SWAP2 POP POP JUMP JUMPDEST DUP3 DUP2 DUP4 MCOPY PUSH0 DUP4 DUP4 ADD MSTORE POP POP POP JUMP JUMPDEST PUSH0 PUSH1 0x1F NOT PUSH1 0x1F DUP4 ADD AND SWAP1 POP SWAP2 SWAP1 POP JUMP JUMPDEST PUSH0 PUSH2 0x7F6 DUP3 PUSH2 0x7B4 JUMP JUMPDEST PUSH2 0x800 DUP2 DUP6 PUSH2 0x7BE JUMP JUMPDEST SWAP4 POP PUSH2 0x810 DUP2 DUP6 PUSH1 0x20 DUP7 ADD PUSH2 0x7CE JUMP JUMPDEST PUSH2 0x819 DUP2 PUSH2 0x7DC JUMP JUMPDEST DUP5 ADD SWAP2 POP POP SWAP3 SWAP2 POP POP JUMP JUMPDEST PUSH0 PUSH1 0x40 DUP3 ADD SWAP1 POP DUP2 DUP2 SUB PUSH0 DUP4 ADD MSTORE PUSH2 0x83C DUP2 DUP6 PUSH2 0x7EC JUMP JUMPDEST SWAP1 POP DUP2 DUP2 SUB PUSH1 0x20 DUP4 ADD MSTORE PUSH2 0x850 DUP2 DUP5 PUSH2 0x7EC JUMP JUMPDEST SWAP1 POP SWAP4 SWAP3 POP POP POP JUMP JUMPDEST PUSH0 PUSH1 0x20 DUP3 DUP5 SUB SLT ISZERO PUSH2 0x86E JUMPI PUSH2 0x86D PUSH2 0x748 JUMP JUMPDEST JUMPDEST PUSH0 PUSH2 0x87B DUP5 DUP3 DUP6 ADD PUSH2 0x762 JUMP JUMPDEST SWAP2 POP POP SWAP3 SWAP2 POP POP JUMP JUMPDEST PUSH0 PUSH1 0x20 DUP3 ADD SWAP1 POP DUP2 DUP2 SUB PUSH0 DUP4 ADD MSTORE PUSH2 0x89C DUP2 DUP5 PUSH2 0x7EC JUMP JUMPDEST SWAP1 POP SWAP3 SWAP2 POP POP JUMP JUMPDEST PUSH32 0x426174636820746F6F206C617267650000000000000000000000000000000000 PUSH0 DUP3 ADD MSTORE POP JUMP JUMPDEST PUSH0 PUSH2 0x8D8 PUSH1 0xF DUP4 PUSH2 0x7BE JUMP JUMPDEST SWAP2 POP PUSH2 0x8E3 DUP3 PUSH2 0x8A4 JUMP JUMPDEST PUSH1 0x20 DUP3 ADD SWAP1 POP SWAP2 SWAP1 POP JUMP JUMPDEST PUSH0 PUSH1 0x20 DUP3 ADD SWAP1 POP DUP2 DUP2 SUB PUSH0 DUP4 ADD MSTORE PUSH2 0x905 DUP2 PUSH2 0x8CC JUMP JUMPDEST SWAP1 POP SWAP2 SWAP1 POP JUMP JUMPDEST PUSH32 0x4E487B7100000000000000000000000000000000000000000000000000000000 PUSH0 MSTORE PUSH1 0x11 PUSH1 0x4 MSTORE PUSH1 0x24 PUSH0 REVERT JUMPDEST PUSH0 PUSH2 0x943 DUP3 PUSH2 0x717 JUMP JUMPDEST SWAP2 POP PUSH2 0x94E DUP4 PUSH2 0x717 JUMP JUMPDEST SWAP3 POP DUP3 DUP3 ADD SWAP1 POP DUP1 DUP3 GT ISZERO PUSH2 0x966 JUMPI PUSH2 0x965 PUSH2 0x90C JUMP JUMPDEST JUMPDEST SWAP3 SWAP2 POP POP JUMP JUMPDEST PUSH32 0x4E487B7100000000000000000000000000000000000000000000000000000000 PUSH0 MSTORE PUSH1 0x32 PUSH1 0x4 MSTORE PUSH1 0x24 PUSH0 REVERT JUMPDEST PUSH0 PUSH2 0x9A3 DUP3 PUSH2 0x717 JUMP JUMPDEST SWAP2 POP PUSH2 0x9AE DUP4 PUSH2 0x717 JUMP JUMPDEST SWAP3 POP DUP3 DUP3 SUB SWAP1 POP DUP2 DUP2 GT ISZERO PUSH2 0x9C6 JUMPI PUSH2 0x9C5 PUSH2 0x90C JUMP JUMPDEST JUMPDEST SWAP3 SWAP2 POP POP JUMP JUMPDEST PUSH0 PUSH1 0x40 DUP3 ADD SWAP1 POP PUSH2 0x9DF PUSH0 DUP4 ADD DUP6 PUSH2 0x720 JUMP JUMPDEST PUSH2 0x9EC PUSH1 0x20 DUP4 ADD DUP5 PUSH2 0x720 JUMP JUMPDEST SWAP4 SWAP3 POP POP POP JUMP JUMPDEST PUSH32 0x496E76616C696420737461727400000000000000000000000000000000000000 PUSH0 DUP3 ADD MSTORE POP JUMP JUMPDEST PUSH0 PUSH2 0xA27 PUSH1 0xD DUP4 PUSH2 0x7BE JUMP JUMPDEST SWAP2 POP PUSH2 0xA32 DUP3 PUSH2 0x9F3 JUMP JUMPDEST PUSH1 0x20 DUP3 ADD SWAP1 POP SWAP2 SWAP1 POP JUMP JUMPDEST PUSH0 PUSH1 0x20 DUP3 ADD SWAP1 POP DUP2 DUP2 SUB PUSH0 DUP4 ADD MSTORE PUSH2 0xA54 DUP2 PUSH2 0xA1B JUMP JUMPDEST SWAP1 POP SWAP2 SWAP1 POP JUMP JUMPDEST PUSH0 PUSH1 0x60 DUP3 ADD SWAP1 POP PUSH2 0xA6E PUSH0 DUP4 ADD DUP7 PUSH2 0x720 JUMP JUMPDEST PUSH2 0xA7B PUSH1 0x20 DUP4 ADD DUP6 PUSH2 0x720 JUMP JUMPDEST PUSH2 0xA88 PUSH1 0x40 DUP4 ADD DUP5 PUSH2 0x720 JUMP JUMPDEST SWAP5 SWAP4 POP POP POP POP JUMP JUMPDEST PUSH32 0x546F6F206D616E792076616C7565730000000000000000000000000000000000 PUSH0 DUP3 ADD MSTORE POP JUMP JUMPDEST PUSH0 PUSH2 0xAC4 PUSH1 0xF DUP4 PUSH2 0x7BE JUMP JUMPDEST SWAP2 POP PUSH2 0xACF DUP3 PUSH2 0xA90 JUMP JUMPDEST PUSH1 0x20 DUP3 ADD SWAP1 POP SWAP2 SWAP1 POP JUMP JUMPDEST PUSH0 PUSH1 0x20 DUP3 ADD SWAP1 POP DUP2 DUP2 SUB PUSH0 DUP4 ADD MSTORE PUSH2 0xAF1 DUP2 PUSH2 0xAB8 JUMP JUMPDEST SWAP1 POP SWAP2 SWAP1 POP JUMP INVALID PUSH13 0x6F6F707320656E746972206172 PUSH19 0x617920616E64206D6179206361757365204F4F SELFBALANCE LOG2 PUSH5 0x6970667358 0x22 SLT KECCAK256 XOR SWAP10 0xFC EXP PUSH32 0xB8D17A3970818CBAECC8E11C2600DBE68BED73830FDE996DDAA46464736F6C63 NUMBER STOP ADDMOD 0x22 STOP CALLER "
		},
		"gasEstimates": {
			"creation": {
				"codeDepositCost": "579400",
				"executionCost": "611",
				"totalCost": "580011"
			},
			"external": {
				"addMany(uint256)": "infinite",
				"compareLoops()": "infinite",
				"dangerousLoop()": "infinite",
				"data(uint256)": "infinite",
				"estimateGasCost(uint256)": "infinite",
				"getLength()": "2461",
				"lastGasUsed()": "2514",
				"lastSum()": "2426",
				"safeChunkProcess(uint256,uint256)": "infinite",
				"safeReadOnlyProcess(uint256,uint256)": "infinite"
			}
		},
		"methodIdentifiers": {
			"addMany(uint256)": "d4d5e8d5",
			"compareLoops()": "86738b3a",
			"dangerousLoop()": "62a5f171",
			"data(uint256)": "f0ba8440",
			"estimateGasCost(uint256)": "bd4725a6",
			"getLength()": "be1c766b",
			"lastGasUsed()": "95c570bd",
			"lastSum()": "000d02cd",
			"safeChunkProcess(uint256,uint256)": "c458a801",
			"safeReadOnlyProcess(uint256,uint256)": "614b9109"
		}
	},
	"abi": [
		{
			"anonymous": false,
			"inputs": [
				{
					"indexed": false,
					"internalType": "uint256",
					"name": "start",
					"type": "uint256"
				},
				{
					"indexed": false,
					"internalType": "uint256",
					"name": "end",
					"type": "uint256"
				},
				{
					"indexed": false,
					"internalType": "uint256",
					"name": "gasUsed",
					"type": "uint256"
				}
			],
			"name": "SafeChunkProcessed",
			"type": "event"
		},
		{
			"anonymous": false,
			"inputs": [
				{
					"indexed": false,
					"internalType": "uint256",
					"name": "gasUsed",
					"type": "uint256"
				},
				{
					"indexed": false,
					"internalType": "uint256",
					"name": "length",
					"type": "uint256"
				}
			],
			"name": "UnsafeLoopExecutes",
			"type": "event"
		},
		{
			"inputs": [
				{
					"internalType": "uint256",
					"name": "n",
					"type": "uint256"
				}
			],
			"name": "addMany",
			"outputs": [],
			"stateMutability": "nonpayable",
			"type": "function"
		},
		{
			"inputs": [],
			"name": "compareLoops",
			"outputs": [
				{
					"internalType": "string",
					"name": "unsafeLoop",
					"type": "string"
				},
				{
					"internalType": "string",
					"name": "safeLoop",
					"type": "string"
				}
			],
			"stateMutability": "view",
			"type": "function"
		},
		{
			"inputs": [],
			"name": "dangerousLoop",
			"outputs": [],
			"stateMutability": "nonpayable",
			"type": "function"
		},
		{
			"inputs": [
				{
					"internalType": "uint256",
					"name": "",
					"type": "uint256"
				}
			],
			"name": "data",
			"outputs": [
				{
					"internalType": "uint256",
					"name": "",
					"type": "uint256"
				}
			],
			"stateMutability": "view",
			"type": "function"
		},
		{
			"inputs": [
				{
					"internalType": "uint256",
					"name": "iterations",
					"type": "uint256"
				}
			],
			"name": "estimateGasCost",
			"outputs": [
				{
					"internalType": "string",
					"name": "",
					"type": "string"
				}
			],
			"stateMutability": "pure",
			"type": "function"
		},
		{
			"inputs": [],
			"name": "getLength",
			"outputs": [
				{
					"internalType": "uint256",
					"name": "",
					"type": "uint256"
				}
			],
			"stateMutability": "view",
			"type": "function"
		},
		{
			"inputs": [],
			"name": "lastGasUsed",
			"outputs": [
				{
					"internalType": "uint256",
					"name": "",
					"type": "uint256"
				}
			],
			"stateMutability": "view",
			"type": "function"
		},
		{
			"inputs": [],
			"name": "lastSum",
			"outputs": [
				{
					"internalType": "uint256",
					"name": "",
					"type": "uint256"
				}
			],
			"stateMutability": "view",
			"type": "function"
		},
		{
			"inputs": [
				{
					"internalType": "uint256",
					"name": "start",
					"type": "uint256"
				},
				{
					"internalType": "uint256",
					"name": "batchSize",
					"type": "uint256"
				}
			],
			"name": "safeChunkProcess",
			"outputs": [],
			"stateMutability": "nonpayable",
			"type": "function"
		},
		{
			"inputs": [
				{
					"internalType": "uint256",
					"name": "start",
					"type": "uint256"
				},
				{
					"internalType": "uint256",
					"name": "batchSize",
					"type": "uint256"
				}
			],
			"name": "safeReadOnlyProcess",
			"outputs": [
				{
					"internalType": "uint256",
					"name": "sum",
					"type": "uint256"
				}
			],
			"stateMutability": "view",
			"type": "function"
		}
	]
}