{
	"data": {
		"bytecode": {
			"linkReferences": {},
			"object": "6080604052348015600e575f5ffd5b503360025f6101000a81548173ffffffffffffffffffffffffffffffffffffffff021916908373ffffffffffffffffffffffffffffffffffffffff160217905550610ac58061005c5f395ff3fe608060405234801561000f575f5ffd5b506004361061009c575f3560e01c80638517386a116100645780638517386a146101565780638da5cb5b1461017257806399704ad814610190578063b6b55f25146101ac578063e8ad8ece146101c85761009c565b806327e235e3146100a05780632e1a7d4d146100d05780632f7c9ed6146100ec5780633ce742bb146101085780637d88209714610138575b5f5ffd5b6100ba60048036038101906100b59190610697565b6101e4565b6040516100c791906106da565b60405180910390f35b6100ea60048036038101906100e5919061071d565b6101f8565b005b6101066004803603810190610101919061071d565b610235565b005b610122600480360381019061011d919061071d565b610286565b60405161012f91906106da565b60405180910390f35b610140610297565b60405161014d91906106da565b60405180910390f35b610170600480360381019061016b9190610697565b61029d565b005b61017a6102e9565b6040516101879190610757565b60405180910390f35b6101aa60048036038101906101a59190610770565b61030e565b005b6101c660048036038101906101c1919061071d565b610324565b005b6101e260048036038101906101dd919061071d565b610352565b005b5f602052805f5260405f205f915090505481565b61020233826103b2565b5f61020c82610487565b9050808261021a91906107db565b60015f82825461022a919061080e565b925050819055505050565b61023e816104a8565b5f61024882610531565b905061025f33828461025a91906107db565b610552565b808261026b91906107db565b60015f82825461027b91906107db565b925050819055505050565b5f61029082610487565b9050919050565b60015481565b6102a56105a8565b5f5f5f8373ffffffffffffffffffffffffffffffffffffffff1673ffffffffffffffffffffffffffffffffffffffff1681526020019081526020015f208190555050565b60025f9054906101000a900473ffffffffffffffffffffffffffffffffffffffff1681565b6103166105a8565b61032082826103b2565b5050565b61032d816104a8565b6103373382610552565b8060015f82825461034891906107db565b9250508190555050565b61035b816104a8565b5f61036582610531565b905060058161037491906107db565b905061038b33828461038691906107db565b610552565b808261039791906107db565b60015f8282546103a791906107db565b925050819055505050565b805f5f8473ffffffffffffffffffffffffffffffffffffffff1673ffffffffffffffffffffffffffffffffffffffff1681526020019081526020015f20541015610431576040517f08c379a00000000000000000000000000000000000000000000000000000000081526004016104289061089b565b60405180910390fd5b805f5f8473ffffffffffffffffffffffffffffffffffffffff1673ffffffffffffffffffffffffffffffffffffffff1681526020019081526020015f205f82825461047c919061080e565b925050819055505050565b5f606460028361049791906108b9565b6104a19190610927565b9050919050565b5f81116104ea576040517f08c379a00000000000000000000000000000000000000000000000000000000081526004016104e1906109a1565b60405180910390fd5b606481111561052e576040517f08c379a000000000000000000000000000000000000000000000000000000000815260040161052590610a09565b60405180910390fd5b50565b5f6064600a8361054191906108b9565b61054b9190610927565b9050919050565b805f5f8473ffffffffffffffffffffffffffffffffffffffff1673ffffffffffffffffffffffffffffffffffffffff1681526020019081526020015f205f82825461059d91906107db565b925050819055505050565b60025f9054906101000a900473ffffffffffffffffffffffffffffffffffffffff1673ffffffffffffffffffffffffffffffffffffffff163373ffffffffffffffffffffffffffffffffffffffff1614610637576040517f08c379a000000000000000000000000000000000000000000000000000000000815260040161062e90610a71565b60405180910390fd5b565b5f5ffd5b5f73ffffffffffffffffffffffffffffffffffffffff82169050919050565b5f6106668261063d565b9050919050565b6106768161065c565b8114610680575f5ffd5b50565b5f813590506106918161066d565b92915050565b5f602082840312156106ac576106ab610639565b5b5f6106b984828501610683565b91505092915050565b5f819050919050565b6106d4816106c2565b82525050565b5f6020820190506106ed5f8301846106cb565b92915050565b6106fc816106c2565b8114610706575f5ffd5b50565b5f81359050610717816106f3565b92915050565b5f6020828403121561073257610731610639565b5b5f61073f84828501610709565b91505092915050565b6107518161065c565b82525050565b5f60208201905061076a5f830184610748565b92915050565b5f5f6040838503121561078657610785610639565b5b5f61079385828601610683565b92505060206107a485828601610709565b9150509250929050565b7f4e487b71000000000000000000000000000000000000000000000000000000005f52601160045260245ffd5b5f6107e5826106c2565b91506107f0836106c2565b9250828201905080821115610808576108076107ae565b5b92915050565b5f610818826106c2565b9150610823836106c2565b925082820390508181111561083b5761083a6107ae565b5b92915050565b5f82825260208201905092915050565b7f496e73756666696369656e742062616c616e63650000000000000000000000005f82015250565b5f610885601483610841565b915061089082610851565b602082019050919050565b5f6020820190508181035f8301526108b281610879565b9050919050565b5f6108c3826106c2565b91506108ce836106c2565b92508282026108dc816106c2565b915082820484148315176108f3576108f26107ae565b5b5092915050565b7f4e487b71000000000000000000000000000000000000000000000000000000005f52601260045260245ffd5b5f610931826106c2565b915061093c836106c2565b92508261094c5761094b6108fa565b5b828204905092915050565b7f416d6f756e74206d757374206265203e203000000000000000000000000000005f82015250565b5f61098b601283610841565b915061099682610957565b602082019050919050565b5f6020820190508181035f8301526109b88161097f565b9050919050565b7f416d6f756e7420746f6f206c61726765000000000000000000000000000000005f82015250565b5f6109f3601083610841565b91506109fe826109bf565b602082019050919050565b5f6020820190508181035f830152610a20816109e7565b9050919050565b7f4e6f74206f776e657200000000000000000000000000000000000000000000005f82015250565b5f610a5b600983610841565b9150610a6682610a27565b602082019050919050565b5f6020820190508181035f830152610a8881610a4f565b905091905056fea2646970667358221220beba82ffd6d77a39c3da35d22e838565d56c41f4c2bd6413836d7743a7ce681f64736f6c63430008220033",
			"opcodes": "PUSH1 0x80 PUSH1 0x40 MSTORE CALLVALUE DUP1 ISZERO PUSH1 0xE JUMPI PUSH0 PUSH0 REVERT JUMPDEST POP CALLER PUSH1 0x2 PUSH0 PUSH2 0x100 EXP DUP2 SLOAD DUP2 PUSH20 0xFFFFFFFFFFFFFFFFFFFFFFFFFFFFFFFFFFFFFFFF MUL NOT AND SWAP1 DUP4 PUSH20 0xFFFFFFFFFFFFFFFFFFFFFFFFFFFFFFFFFFFFFFFF AND MUL OR SWAP1 SSTORE POP PUSH2 0xAC5 DUP1 PUSH2 0x5C PUSH0 CODECOPY PUSH0 RETURN INVALID PUSH1 0x80 PUSH1 0x40 MSTORE CALLVALUE DUP1 ISZERO PUSH2 0xF JUMPI PUSH0 PUSH0 REVERT JUMPDEST POP PUSH1 0x4 CALLDATASIZE LT PUSH2 0x9C JUMPI PUSH0 CALLDATALOAD PUSH1 0xE0 SHR DUP1 PUSH4 0x8517386A GT PUSH2 0x64 JUMPI DUP1 PUSH4 0x8517386A EQ PUSH2 0x156 JUMPI DUP1 PUSH4 0x8DA5CB5B EQ PUSH2 0x172 JUMPI DUP1 PUSH4 0x99704AD8 EQ PUSH2 0x190 JUMPI DUP1 PUSH4 0xB6B55F25 EQ PUSH2 0x1AC JUMPI DUP1 PUSH4 0xE8AD8ECE EQ PUSH2 0x1C8 JUMPI PUSH2 0x9C JUMP JUMPDEST DUP1 PUSH4 0x27E235E3 EQ PUSH2 0xA0 JUMPI DUP1 PUSH4 0x2E1A7D4D EQ PUSH2 0xD0 JUMPI DUP1 PUSH4 0x2F7C9ED6 EQ PUSH2 0xEC JUMPI DUP1 PUSH4 0x3CE742BB EQ PUSH2 0x108 JUMPI DUP1 PUSH4 0x7D882097 EQ PUSH2 0x138 JUMPI JUMPDEST PUSH0 PUSH0 REVERT JUMPDEST PUSH2 0xBA PUSH1 0x4 DUP1 CALLDATASIZE SUB DUP2 ADD SWAP1 PUSH2 0xB5 SWAP2 SWAP1 PUSH2 0x697 JUMP JUMPDEST PUSH2 0x1E4 JUMP JUMPDEST PUSH1 0x40 MLOAD PUSH2 0xC7 SWAP2 SWAP1 PUSH2 0x6DA JUMP JUMPDEST PUSH1 0x40 MLOAD DUP1 SWAP2 SUB SWAP1 RETURN JUMPDEST PUSH2 0xEA PUSH1 0x4 DUP1 CALLDATASIZE SUB DUP2 ADD SWAP1 PUSH2 0xE5 SWAP2 SWAP1 PUSH2 0x71D JUMP JUMPDEST PUSH2 0x1F8 JUMP JUMPDEST STOP JUMPDEST PUSH2 0x106 PUSH1 0x4 DUP1 CALLDATASIZE SUB DUP2 ADD SWAP1 PUSH2 0x101 SWAP2 SWAP1 PUSH2 0x71D JUMP JUMPDEST PUSH2 0x235 JUMP JUMPDEST STOP JUMPDEST PUSH2 0x122 PUSH1 0x4 DUP1 CALLDATASIZE SUB DUP2 ADD SWAP1 PUSH2 0x11D SWAP2 SWAP1 PUSH2 0x71D JUMP JUMPDEST PUSH2 0x286 JUMP JUMPDEST PUSH1 0x40 MLOAD PUSH2 0x12F SWAP2 SWAP1 PUSH2 0x6DA JUMP JUMPDEST PUSH1 0x40 MLOAD DUP1 SWAP2 SUB SWAP1 RETURN JUMPDEST PUSH2 0x140 PUSH2 0x297 JUMP JUMPDEST PUSH1 0x40 MLOAD PUSH2 0x14D SWAP2 SWAP1 PUSH2 0x6DA JUMP JUMPDEST PUSH1 0x40 MLOAD DUP1 SWAP2 SUB SWAP1 RETURN JUMPDEST PUSH2 0x170 PUSH1 0x4 DUP1 CALLDATASIZE SUB DUP2 ADD SWAP1 PUSH2 0x16B SWAP2 SWAP1 PUSH2 0x697 JUMP JUMPDEST PUSH2 0x29D JUMP JUMPDEST STOP JUMPDEST PUSH2 0x17A PUSH2 0x2E9 JUMP JUMPDEST PUSH1 0x40 MLOAD PUSH2 0x187 SWAP2 SWAP1 PUSH2 0x757 JUMP JUMPDEST PUSH1 0x40 MLOAD DUP1 SWAP2 SUB SWAP1 RETURN JUMPDEST PUSH2 0x1AA PUSH1 0x4 DUP1 CALLDATASIZE SUB DUP2 ADD SWAP1 PUSH2 0x1A5 SWAP2 SWAP1 PUSH2 0x770 JUMP JUMPDEST PUSH2 0x30E JUMP JUMPDEST STOP JUMPDEST PUSH2 0x1C6 PUSH1 0x4 DUP1 CALLDATASIZE SUB DUP2 ADD SWAP1 PUSH2 0x1C1 SWAP2 SWAP1 PUSH2 0x71D JUMP JUMPDEST PUSH2 0x324 JUMP JUMPDEST STOP JUMPDEST PUSH2 0x1E2 PUSH1 0x4 DUP1 CALLDATASIZE SUB DUP2 ADD SWAP1 PUSH2 0x1DD SWAP2 SWAP1 PUSH2 0x71D JUMP JUMPDEST PUSH2 0x352 JUMP JUMPDEST STOP JUMPDEST PUSH0 PUSH1 0x20 MSTORE DUP1 PUSH0 MSTORE PUSH1 0x40 PUSH0 KECCAK256 PUSH0 SWAP2 POP SWAP1 POP SLOAD DUP2 JUMP JUMPDEST PUSH2 0x202 CALLER DUP3 PUSH2 0x3B2 JUMP JUMPDEST PUSH0 PUSH2 0x20C DUP3 PUSH2 0x487 JUMP JUMPDEST SWAP1 POP DUP1 DUP3 PUSH2 0x21A SWAP2 SWAP1 PUSH2 0x7DB JUMP JUMPDEST PUSH1 0x1 PUSH0 DUP3 DUP3 SLOAD PUSH2 0x22A SWAP2 SWAP1 PUSH2 0x80E JUMP JUMPDEST SWAP3 POP POP DUP2 SWAP1 SSTORE POP POP POP JUMP JUMPDEST PUSH2 0x23E DUP2 PUSH2 0x4A8 JUMP JUMPDEST PUSH0 PUSH2 0x248 DUP3 PUSH2 0x531 JUMP JUMPDEST SWAP1 POP PUSH2 0x25F CALLER DUP3 DUP5 PUSH2 0x25A SWAP2 SWAP1 PUSH2 0x7DB JUMP JUMPDEST PUSH2 0x552 JUMP JUMPDEST DUP1 DUP3 PUSH2 0x26B SWAP2 SWAP1 PUSH2 0x7DB JUMP JUMPDEST PUSH1 0x1 PUSH0 DUP3 DUP3 SLOAD PUSH2 0x27B SWAP2 SWAP1 PUSH2 0x7DB JUMP JUMPDEST SWAP3 POP POP DUP2 SWAP1 SSTORE POP POP POP JUMP JUMPDEST PUSH0 PUSH2 0x290 DUP3 PUSH2 0x487 JUMP JUMPDEST SWAP1 POP SWAP2 SWAP1 POP JUMP JUMPDEST PUSH1 0x1 SLOAD DUP2 JUMP JUMPDEST PUSH2 0x2A5 PUSH2 0x5A8 JUMP JUMPDEST PUSH0 PUSH0 PUSH0 DUP4 PUSH20 0xFFFFFFFFFFFFFFFFFFFFFFFFFFFFFFFFFFFFFFFF AND PUSH20 0xFFFFFFFFFFFFFFFFFFFFFFFFFFFFFFFFFFFFFFFF AND DUP2 MSTORE PUSH1 0x20 ADD SWAP1 DUP2 MSTORE PUSH1 0x20 ADD PUSH0 KECCAK256 DUP2 SWAP1 SSTORE POP POP JUMP JUMPDEST PUSH1 0x2 PUSH0 SWAP1 SLOAD SWAP1 PUSH2 0x100 EXP SWAP1 DIV PUSH20 0xFFFFFFFFFFFFFFFFFFFFFFFFFFFFFFFFFFFFFFFF AND DUP2 JUMP JUMPDEST PUSH2 0x316 PUSH2 0x5A8 JUMP JUMPDEST PUSH2 0x320 DUP3 DUP3 PUSH2 0x3B2 JUMP JUMPDEST POP POP JUMP JUMPDEST PUSH2 0x32D DUP2 PUSH2 0x4A8 JUMP JUMPDEST PUSH2 0x337 CALLER DUP3 PUSH2 0x552 JUMP JUMPDEST DUP1 PUSH1 0x1 PUSH0 DUP3 DUP3 SLOAD PUSH2 0x348 SWAP2 SWAP1 PUSH2 0x7DB JUMP JUMPDEST SWAP3 POP POP DUP2 SWAP1 SSTORE POP POP JUMP JUMPDEST PUSH2 0x35B DUP2 PUSH2 0x4A8 JUMP JUMPDEST PUSH0 PUSH2 0x365 DUP3 PUSH2 0x531 JUMP JUMPDEST SWAP1 POP PUSH1 0x5 DUP2 PUSH2 0x374 SWAP2 SWAP1 PUSH2 0x7DB JUMP JUMPDEST SWAP1 POP PUSH2 0x38B CALLER DUP3 DUP5 PUSH2 0x386 SWAP2 SWAP1 PUSH2 0x7DB JUMP JUMPDEST PUSH2 0x552 JUMP JUMPDEST DUP1 DUP3 PUSH2 0x397 SWAP2 SWAP1 PUSH2 0x7DB JUMP JUMPDEST PUSH1 0x1 PUSH0 DUP3 DUP3 SLOAD PUSH2 0x3A7 SWAP2 SWAP1 PUSH2 0x7DB JUMP JUMPDEST SWAP3 POP POP DUP2 SWAP1 SSTORE POP POP POP JUMP JUMPDEST DUP1 PUSH0 PUSH0 DUP5 PUSH20 0xFFFFFFFFFFFFFFFFFFFFFFFFFFFFFFFFFFFFFFFF AND PUSH20 0xFFFFFFFFFFFFFFFFFFFFFFFFFFFFFFFFFFFFFFFF AND DUP2 MSTORE PUSH1 0x20 ADD SWAP1 DUP2 MSTORE PUSH1 0x20 ADD PUSH0 KECCAK256 SLOAD LT ISZERO PUSH2 0x431 JUMPI PUSH1 0x40 MLOAD PUSH32 0x8C379A000000000000000000000000000000000000000000000000000000000 DUP2 MSTORE PUSH1 0x4 ADD PUSH2 0x428 SWAP1 PUSH2 0x89B JUMP JUMPDEST PUSH1 0x40 MLOAD DUP1 SWAP2 SUB SWAP1 REVERT JUMPDEST DUP1 PUSH0 PUSH0 DUP5 PUSH20 0xFFFFFFFFFFFFFFFFFFFFFFFFFFFFFFFFFFFFFFFF AND PUSH20 0xFFFFFFFFFFFFFFFFFFFFFFFFFFFFFFFFFFFFFFFF AND DUP2 MSTORE PUSH1 0x20 ADD SWAP1 DUP2 MSTORE PUSH1 0x20 ADD PUSH0 KECCAK256 PUSH0 DUP3 DUP3 SLOAD PUSH2 0x47C SWAP2 SWAP1 PUSH2 0x80E JUMP JUMPDEST SWAP3 POP POP DUP2 SWAP1 SSTORE POP POP POP JUMP JUMPDEST PUSH0 PUSH1 0x64 PUSH1 0x2 DUP4 PUSH2 0x497 SWAP2 SWAP1 PUSH2 0x8B9 JUMP JUMPDEST PUSH2 0x4A1 SWAP2 SWAP1 PUSH2 0x927 JUMP JUMPDEST SWAP1 POP SWAP2 SWAP1 POP JUMP JUMPDEST PUSH0 DUP2 GT PUSH2 0x4EA JUMPI PUSH1 0x40 MLOAD PUSH32 0x8C379A000000000000000000000000000000000000000000000000000000000 DUP2 MSTORE PUSH1 0x4 ADD PUSH2 0x4E1 SWAP1 PUSH2 0x9A1 JUMP JUMPDEST PUSH1 0x40 MLOAD DUP1 SWAP2 SUB SWAP1 REVERT JUMPDEST PUSH1 0x64 DUP2 GT ISZERO PUSH2 0x52E JUMPI PUSH1 0x40 MLOAD PUSH32 0x8C379A000000000000000000000000000000000000000000000000000000000 DUP2 MSTORE PUSH1 0x4 ADD PUSH2 0x525 SWAP1 PUSH2 0xA09 JUMP JUMPDEST PUSH1 0x40 MLOAD DUP1 SWAP2 SUB SWAP1 REVERT JUMPDEST POP JUMP JUMPDEST PUSH0 PUSH1 0x64 PUSH1 0xA DUP4 PUSH2 0x541 SWAP2 SWAP1 PUSH2 0x8B9 JUMP JUMPDEST PUSH2 0x54B SWAP2 SWAP1 PUSH2 0x927 JUMP JUMPDEST SWAP1 POP SWAP2 SWAP1 POP JUMP JUMPDEST DUP1 PUSH0 PUSH0 DUP5 PUSH20 0xFFFFFFFFFFFFFFFFFFFFFFFFFFFFFFFFFFFFFFFF AND PUSH20 0xFFFFFFFFFFFFFFFFFFFFFFFFFFFFFFFFFFFFFFFF AND DUP2 MSTORE PUSH1 0x20 ADD SWAP1 DUP2 MSTORE PUSH1 0x20 ADD PUSH0 KECCAK256 PUSH0 DUP3 DUP3 SLOAD PUSH2 0x59D SWAP2 SWAP1 PUSH2 0x7DB JUMP JUMPDEST SWAP3 POP POP DUP2 SWAP1 SSTORE POP POP POP JUMP JUMPDEST PUSH1 0x2 PUSH0 SWAP1 SLOAD SWAP1 PUSH2 0x100 EXP SWAP1 DIV PUSH20 0xFFFFFFFFFFFFFFFFFFFFFFFFFFFFFFFFFFFFFFFF AND PUSH20 0xFFFFFFFFFFFFFFFFFFFFFFFFFFFFFFFFFFFFFFFF AND CALLER PUSH20 0xFFFFFFFFFFFFFFFFFFFFFFFFFFFFFFFFFFFFFFFF AND EQ PUSH2 0x637 JUMPI PUSH1 0x40 MLOAD PUSH32 0x8C379A000000000000000000000000000000000000000000000000000000000 DUP2 MSTORE PUSH1 0x4 ADD PUSH2 0x62E SWAP1 PUSH2 0xA71 JUMP JUMPDEST PUSH1 0x40 MLOAD DUP1 SWAP2 SUB SWAP1 REVERT JUMPDEST JUMP JUMPDEST PUSH0 PUSH0 REVERT JUMPDEST PUSH0 PUSH20 0xFFFFFFFFFFFFFFFFFFFFFFFFFFFFFFFFFFFFFFFF DUP3 AND SWAP1 POP SWAP2 SWAP1 POP JUMP JUMPDEST PUSH0 PUSH2 0x666 DUP3 PUSH2 0x63D JUMP JUMPDEST SWAP1 POP SWAP2 SWAP1 POP JUMP JUMPDEST PUSH2 0x676 DUP2 PUSH2 0x65C JUMP JUMPDEST DUP2 EQ PUSH2 0x680 JUMPI PUSH0 PUSH0 REVERT JUMPDEST POP JUMP JUMPDEST PUSH0 DUP2 CALLDATALOAD SWAP1 POP PUSH2 0x691 DUP2 PUSH2 0x66D JUMP JUMPDEST SWAP3 SWAP2 POP POP JUMP JUMPDEST PUSH0 PUSH1 0x20 DUP3 DUP5 SUB SLT ISZERO PUSH2 0x6AC JUMPI PUSH2 0x6AB PUSH2 0x639 JUMP JUMPDEST JUMPDEST PUSH0 PUSH2 0x6B9 DUP5 DUP3 DUP6 ADD PUSH2 0x683 JUMP JUMPDEST SWAP2 POP POP SWAP3 SWAP2 POP POP JUMP JUMPDEST PUSH0 DUP2 SWAP1 POP SWAP2 SWAP1 POP JUMP JUMPDEST PUSH2 0x6D4 DUP2 PUSH2 0x6C2 JUMP JUMPDEST DUP3 MSTORE POP POP JUMP JUMPDEST PUSH0 PUSH1 0x20 DUP3 ADD SWAP1 POP PUSH2 0x6ED PUSH0 DUP4 ADD DUP5 PUSH2 0x6CB JUMP JUMPDEST SWAP3 SWAP2 POP POP JUMP JUMPDEST PUSH2 0x6FC DUP2 PUSH2 0x6C2 JUMP JUMPDEST DUP2 EQ PUSH2 0x706 JUMPI PUSH0 PUSH0 REVERT JUMPDEST POP JUMP JUMPDEST PUSH0 DUP2 CALLDATALOAD SWAP1 POP PUSH2 0x717 DUP2 PUSH2 0x6F3 JUMP JUMPDEST SWAP3 SWAP2 POP POP JUMP JUMPDEST PUSH0 PUSH1 0x20 DUP3 DUP5 SUB SLT ISZERO PUSH2 0x732 JUMPI PUSH2 0x731 PUSH2 0x639 JUMP JUMPDEST JUMPDEST PUSH0 PUSH2 0x73F DUP5 DUP3 DUP6 ADD PUSH2 0x709 JUMP JUMPDEST SWAP2 POP POP SWAP3 SWAP2 POP POP JUMP JUMPDEST PUSH2 0x751 DUP2 PUSH2 0x65C JUMP JUMPDEST DUP3 MSTORE POP POP JUMP JUMPDEST PUSH0 PUSH1 0x20 DUP3 ADD SWAP1 POP PUSH2 0x76A PUSH0 DUP4 ADD DUP5 PUSH2 0x748 JUMP JUMPDEST SWAP3 SWAP2 POP POP JUMP JUMPDEST PUSH0 PUSH0 PUSH1 0x40 DUP4 DUP6 SUB SLT ISZERO PUSH2 0x786 JUMPI PUSH2 0x785 PUSH2 0x639 JUMP JUMPDEST JUMPDEST PUSH0 PUSH2 0x793 DUP6 DUP3 DUP7 ADD PUSH2 0x683 JUMP JUMPDEST SWAP3 POP POP PUSH1 0x20 PUSH2 0x7A4 DUP6 DUP3 DUP7 ADD PUSH2 0x709 JUMP JUMPDEST SWAP2 POP POP SWAP3 POP SWAP3 SWAP1 POP JUMP JUMPDEST PUSH32 0x4E487B7100000000000000000000000000000000000000000000000000000000 PUSH0 MSTORE PUSH1 0x11 PUSH1 0x4 MSTORE PUSH1 0x24 PUSH0 REVERT JUMPDEST PUSH0 PUSH2 0x7E5 DUP3 PUSH2 0x6C2 JUMP JUMPDEST SWAP2 POP PUSH2 0x7F0 DUP4 PUSH2 0x6C2 JUMP JUMPDEST SWAP3 POP DUP3 DUP3 ADD SWAP1 POP DUP1 DUP3 GT ISZERO PUSH2 0x808 JUMPI PUSH2 0x807 PUSH2 0x7AE JUMP JUMPDEST JUMPDEST SWAP3 SWAP2 POP POP JUMP JUMPDEST PUSH0 PUSH2 0x818 DUP3 PUSH2 0x6C2 JUMP JUMPDEST SWAP2 POP PUSH2 0x823 DUP4 PUSH2 0x6C2 JUMP JUMPDEST SWAP3 POP DUP3 DUP3 SUB SWAP1 POP DUP2 DUP2 GT ISZERO PUSH2 0x83B JUMPI PUSH2 0x83A PUSH2 0x7AE JUMP JUMPDEST JUMPDEST SWAP3 SWAP2 POP POP JUMP JUMPDEST PUSH0 DUP3 DUP3 MSTORE PUSH1 0x20 DUP3 ADD SWAP1 POP SWAP3 SWAP2 POP POP JUMP JUMPDEST PUSH32 0x496E73756666696369656E742062616C616E6365000000000000000000000000 PUSH0 DUP3 ADD MSTORE POP JUMP JUMPDEST PUSH0 PUSH2 0x885 PUSH1 0x14 DUP4 PUSH2 0x841 JUMP JUMPDEST SWAP2 POP PUSH2 0x890 DUP3 PUSH2 0x851 JUMP JUMPDEST PUSH1 0x20 DUP3 ADD SWAP1 POP SWAP2 SWAP1 POP JUMP JUMPDEST PUSH0 PUSH1 0x20 DUP3 ADD SWAP1 POP DUP2 DUP2 SUB PUSH0 DUP4 ADD MSTORE PUSH2 0x8B2 DUP2 PUSH2 0x879 JUMP JUMPDEST SWAP1 POP SWAP2 SWAP1 POP JUMP JUMPDEST PUSH0 PUSH2 0x8C3 DUP3 PUSH2 0x6C2 JUMP JUMPDEST SWAP2 POP PUSH2 0x8CE DUP4 PUSH2 0x6C2 JUMP JUMPDEST SWAP3 POP DUP3 DUP3 MUL PUSH2 0x8DC DUP2 PUSH2 0x6C2 JUMP JUMPDEST SWAP2 POP DUP3 DUP3 DIV DUP5 EQ DUP4 ISZERO OR PUSH2 0x8F3 JUMPI PUSH2 0x8F2 PUSH2 0x7AE JUMP JUMPDEST JUMPDEST POP SWAP3 SWAP2 POP POP JUMP JUMPDEST PUSH32 0x4E487B7100000000000000000000000000000000000000000000000000000000 PUSH0 MSTORE PUSH1 0x12 PUSH1 0x4 MSTORE PUSH1 0x24 PUSH0 REVERT JUMPDEST PUSH0 PUSH2 0x931 DUP3 PUSH2 0x6C2 JUMP JUMPDEST SWAP2 POP PUSH2 0x93C DUP4 PUSH2 0x6C2 JUMP JUMPDEST SWAP3 POP DUP3 PUSH2 0x94C JUMPI PUSH2 0x94B PUSH2 0x8FA JUMP JUMPDEST JUMPDEST DUP3 DUP3 DIV SWAP1 POP SWAP3 SWAP2 POP POP JUMP JUMPDEST PUSH32 0x416D6F756E74206D757374206265203E20300000000000000000000000000000 PUSH0 DUP3 ADD MSTORE POP JUMP JUMPDEST PUSH0 PUSH2 0x98B PUSH1 0x12 DUP4 PUSH2 0x841 JUMP JUMPDEST SWAP2 POP PUSH2 0x996 DUP3 PUSH2 0x957 JUMP JUMPDEST PUSH1 0x20 DUP3 ADD SWAP1 POP SWAP2 SWAP1 POP JUMP JUMPDEST PUSH0 PUSH1 0x20 DUP3 ADD SWAP1 POP DUP2 DUP2 SUB PUSH0 DUP4 ADD MSTORE PUSH2 0x9B8 DUP2 PUSH2 0x97F JUMP JUMPDEST SWAP1 POP SWAP2 SWAP1 POP JUMP JUMPDEST PUSH32 0x416D6F756E7420746F6F206C6172676500000000000000000000000000000000 PUSH0 DUP3 ADD MSTORE POP JUMP JUMPDEST PUSH0 PUSH2 0x9F3 PUSH1 0x10 DUP4 PUSH2 0x841 JUMP JUMPDEST SWAP2 POP PUSH2 0x9FE DUP3 PUSH2 0x9BF JUMP JUMPDEST PUSH1 0x20 DUP3 ADD SWAP1 POP SWAP2 SWAP1 POP JUMP JUMPDEST PUSH0 PUSH1 0x20 DUP3 ADD SWAP1 POP DUP2 DUP2 SUB PUSH0 DUP4 ADD MSTORE PUSH2 0xA20 DUP2 PUSH2 0x9E7 JUMP JUMPDEST SWAP1 POP SWAP2 SWAP1 POP JUMP JUMPDEST PUSH32 0x4E6F74206F776E65720000000000000000000000000000000000000000000000 PUSH0 DUP3 ADD MSTORE POP JUMP JUMPDEST PUSH0 PUSH2 0xA5B PUSH1 0x9 DUP4 PUSH2 0x841 JUMP JUMPDEST SWAP2 POP PUSH2 0xA66 DUP3 PUSH2 0xA27 JUMP JUMPDEST PUSH1 0x20 DUP3 ADD SWAP1 POP SWAP2 SWAP1 POP JUMP JUMPDEST PUSH0 PUSH1 0x20 DUP3 ADD SWAP1 POP DUP2 DUP2 SUB PUSH0 DUP4 ADD MSTORE PUSH2 0xA88 DUP2 PUSH2 0xA4F JUMP JUMPDEST SWAP1 POP SWAP2 SWAP1 POP JUMP INVALID LOG2 PUSH5 0x6970667358 0x22 SLT KECCAK256 0xBE 0xBA DUP3 SELFDESTRUCT 0xD6 0xD7 PUSH27 0x39C3DA35D22E838565D56C41F4C2BD6413836D7743A7CE681F6473 PUSH16 0x6C634300082200330000000000000000 "
		},
		"gasEstimates": {
			"creation": {
				"codeDepositCost": "551400",
				"executionCost": "24850",
				"totalCost": "576250"
			},
			"external": {
				"adminRemoveFunds(address,uint256)": "infinite",
				"balances(address)": "2802",
				"calculatePremiumFee(uint256)": "infinite",
				"deposit(uint256)": "infinite",
				"depositWithBonus(uint256)": "infinite",
				"owner()": "2530",
				"premiumDeposit(uint256)": "infinite",
				"resetUserBalance(address)": "7742",
				"totalDeposits()": "2514",
				"withdraw(uint256)": "infinite"
			}
		},
		"methodIdentifiers": {
			"adminRemoveFunds(address,uint256)": "99704ad8",
			"balances(address)": "27e235e3",
			"calculatePremiumFee(uint256)": "3ce742bb",
			"deposit(uint256)": "b6b55f25",
			"depositWithBonus(uint256)": "2f7c9ed6",
			"owner()": "8da5cb5b",
			"premiumDeposit(uint256)": "e8ad8ece",
			"resetUserBalance(address)": "8517386a",
			"totalDeposits()": "7d882097",
			"withdraw(uint256)": "2e1a7d4d"
		}
	},
	"abi": [
		{
			"inputs": [
				{
					"internalType": "address",
					"name": "_user",
					"type": "address"
				},
				{
					"internalType": "uint256",
					"name": "_amount",
					"type": "uint256"
				}
			],
			"name": "adminRemoveFunds",
			"outputs": [],
			"stateMutability": "nonpayable",
			"type": "function"
		},
		{
			"inputs": [
				{
					"internalType": "address",
					"name": "",
					"type": "address"
				}
			],
			"name": "balances",
			"outputs": [
				{
					"internalType": "uint256",
					"name": "",
					"type": "uint256"
				}
			],
			"stateMutability": "view",
			"type": "function"
		},
		{
			"inputs": [
				{
					"internalType": "uint256",
					"name": "_amount",
					"type": "uint256"
				}
			],
			"name": "calculatePremiumFee",
			"outputs": [
				{
					"internalType": "uint256",
					"name": "",
					"type": "uint256"
				}
			],
			"stateMutability": "pure",
			"type": "function"
		},
		{
			"inputs": [
				{
					"internalType": "uint256",
					"name": "_amount",
					"type": "uint256"
				}
			],
			"name": "deposit",
			"outputs": [],
			"stateMutability": "nonpayable",
			"type": "function"
		},
		{
			"inputs": [
				{
					"internalType": "uint256",
					"name": "_amount",
					"type": "uint256"
				}
			],
			"name": "depositWithBonus",
			"outputs": [],
			"stateMutability": "nonpayable",
			"type": "function"
		},
		{
			"inputs": [],
			"name": "owner",
			"outputs": [
				{
					"internalType": "address",
					"name": "",
					"type": "address"
				}
			],
			"stateMutability": "view",
			"type": "function"
		},
		{
			"inputs": [
				{
					"internalType": "uint256",
					"name": "_amount",
					"type": "uint256"
				}
			],
			"name": "premiumDeposit",
			"outputs": [],
			"stateMutability": "nonpayable",
			"type": "function"
		},
		{
			"inputs": [
				{
					"internalType": "address",
					"name": "_user",
					"type": "address"
				}
			],
			"name": "resetUserBalance",
			"outputs": [],
			"stateMutability": "nonpayable",
			"type": "function"
		},
		{
			"inputs": [],
			"name": "totalDeposits",
			"outputs": [
				{
					"internalType": "uint256",
					"name": "",
					"type": "uint256"
				}
			],
			"stateMutability": "view",
			"type": "function"
		},
		{
			"inputs": [
				{
					"internalType": "uint256",
					"name": "_amount",
					"type": "uint256"
				}
			],
			"name": "withdraw",
			"outputs": [],
			"stateMutability": "nonpayable",
			"type": "function"
		}
	]
}