{
	"data": {
		"bytecode": {
			"linkReferences": {},
			"object": "608060405234801561000f575f5ffd5b506040516108fa3803806108fa83398181016040528101906100319190610115565b3360015f6101000a81548173ffffffffffffffffffffffffffffffffffffffff021916908373ffffffffffffffffffffffffffffffffffffffff1602179055508060025f6101000a81548173ffffffffffffffffffffffffffffffffffffffff021916908373ffffffffffffffffffffffffffffffffffffffff16021790555050610140565b5f5ffd5b5f73ffffffffffffffffffffffffffffffffffffffff82169050919050565b5f6100e4826100bb565b9050919050565b6100f4816100da565b81146100fe575f5ffd5b50565b5f8151905061010f816100eb565b92915050565b5f6020828403121561012a576101296100b7565b5b5f61013784828501610101565b91505092915050565b6107ad8061014d5f395ff3fe608060405234801561000f575f5ffd5b5060043610610055575f3560e01c806313af4035146100595780633fa4f2451461007557806355241077146100935780635c60da1b146100af5780638da5cb5b146100cd575b5f5ffd5b610073600480360381019061006e91906104b8565b6100eb565b005b61007d61027b565b60405161008a91906104fb565b60405180910390f35b6100ad60048036038101906100a8919061053e565b610280565b005b6100b7610410565b6040516100c49190610578565b60405180910390f35b6100d5610435565b6040516100e29190610578565b60405180910390f35b5f60025f9054906101000a900473ffffffffffffffffffffffffffffffffffffffff1673ffffffffffffffffffffffffffffffffffffffff16826040516024016101359190610578565b6040516020818303038152906040527f13af4035000000000000000000000000000000000000000000000000000000007bffffffffffffffffffffffffffffffffffffffffffffffffffffffff19166020820180517bffffffffffffffffffffffffffffffffffffffffffffffffffffffff83818316178352505050506040516101bf91906105e3565b5f60405180830381855af49150503d805f81146101f7576040519150601f19603f3d011682016040523d82523d5f602084013e6101fc565b606091505b505090507f17b187cb88412832f4b7606881f230794bf04650ca4794f06da62f8c00f4f0078160405161022f919061066d565b60405180910390a180610277576040517f08c379a000000000000000000000000000000000000000000000000000000000815260040161026e906106e3565b60405180910390fd5b5050565b5f5481565b5f60025f9054906101000a900473ffffffffffffffffffffffffffffffffffffffff1673ffffffffffffffffffffffffffffffffffffffff16826040516024016102ca91906104fb565b6040516020818303038152906040527f55241077000000000000000000000000000000000000000000000000000000007bffffffffffffffffffffffffffffffffffffffffffffffffffffffff19166020820180517bffffffffffffffffffffffffffffffffffffffffffffffffffffffff838183161783525050505060405161035491906105e3565b5f60405180830381855af49150503d805f811461038c576040519150601f19603f3d011682016040523d82523d5f602084013e610391565b606091505b505090507f17b187cb88412832f4b7606881f230794bf04650ca4794f06da62f8c00f4f007816040516103c4919061074b565b60405180910390a18061040c576040517f08c379a0000000000000000000000000000000000000000000000000000000008152600401610403906106e3565b60405180910390fd5b5050565b60025f9054906101000a900473ffffffffffffffffffffffffffffffffffffffff1681565b60015f9054906101000a900473ffffffffffffffffffffffffffffffffffffffff1681565b5f5ffd5b5f73ffffffffffffffffffffffffffffffffffffffff82169050919050565b5f6104878261045e565b9050919050565b6104978161047d565b81146104a1575f5ffd5b50565b5f813590506104b28161048e565b92915050565b5f602082840312156104cd576104cc61045a565b5b5f6104da848285016104a4565b91505092915050565b5f819050919050565b6104f5816104e3565b82525050565b5f60208201905061050e5f8301846104ec565b92915050565b61051d816104e3565b8114610527575f5ffd5b50565b5f8135905061053881610514565b92915050565b5f602082840312156105535761055261045a565b5b5f6105608482850161052a565b91505092915050565b6105728161047d565b82525050565b5f60208201905061058b5f830184610569565b92915050565b5f81519050919050565b5f81905092915050565b8281835e5f83830152505050565b5f6105bd82610591565b6105c7818561059b565b93506105d78185602086016105a5565b80840191505092915050565b5f6105ee82846105b3565b915081905092915050565b5f82825260208201905092915050565b7f7365744f776e65720000000000000000000000000000000000000000000000005f82015250565b5f61063d6008836105f9565b915061064882610609565b602082019050919050565b5f8115159050919050565b61066781610653565b82525050565b5f6040820190508181035f83015261068481610631565b9050610693602083018461065e565b92915050565b7f64656c656761746563616c6c206661696c6564000000000000000000000000005f82015250565b5f6106cd6013836105f9565b91506106d882610699565b602082019050919050565b5f6020820190508181035f8301526106fa816106c1565b9050919050565b7f73657456616c75650000000000000000000000000000000000000000000000005f82015250565b5f6107356008836105f9565b915061074082610701565b602082019050919050565b5f6040820190508181035f83015261076281610729565b9050610771602083018461065e565b9291505056fea26469706673582212205af76a8c2de8f788bdc7f28f4e148bffb1f043f3e0ce69d4d12ea507abbcf63264736f6c63430008220033",
			"opcodes": "PUSH1 0x80 PUSH1 0x40 MSTORE CALLVALUE DUP1 ISZERO PUSH2 0xF JUMPI PUSH0 PUSH0 REVERT JUMPDEST POP PUSH1 0x40 MLOAD PUSH2 0x8FA CODESIZE SUB DUP1 PUSH2 0x8FA DUP4 CODECOPY DUP2 DUP2 ADD PUSH1 0x40 MSTORE DUP2 ADD SWAP1 PUSH2 0x31 SWAP2 SWAP1 PUSH2 0x115 JUMP JUMPDEST CALLER PUSH1 0x1 PUSH0 PUSH2 0x100 EXP DUP2 SLOAD DUP2 PUSH20 0xFFFFFFFFFFFFFFFFFFFFFFFFFFFFFFFFFFFFFFFF MUL NOT AND SWAP1 DUP4 PUSH20 0xFFFFFFFFFFFFFFFFFFFFFFFFFFFFFFFFFFFFFFFF AND MUL OR SWAP1 SSTORE POP DUP1 PUSH1 0x2 PUSH0 PUSH2 0x100 EXP DUP2 SLOAD DUP2 PUSH20 0xFFFFFFFFFFFFFFFFFFFFFFFFFFFFFFFFFFFFFFFF MUL NOT AND SWAP1 DUP4 PUSH20 0xFFFFFFFFFFFFFFFFFFFFFFFFFFFFFFFFFFFFFFFF AND MUL OR SWAP1 SSTORE POP POP PUSH2 0x140 JUMP JUMPDEST PUSH0 PUSH0 REVERT JUMPDEST PUSH0 PUSH20 0xFFFFFFFFFFFFFFFFFFFFFFFFFFFFFFFFFFFFFFFF DUP3 AND SWAP1 POP SWAP2 SWAP1 POP JUMP JUMPDEST PUSH0 PUSH2 0xE4 DUP3 PUSH2 0xBB JUMP JUMPDEST SWAP1 POP SWAP2 SWAP1 POP JUMP JUMPDEST PUSH2 0xF4 DUP2 PUSH2 0xDA JUMP JUMPDEST DUP2 EQ PUSH2 0xFE JUMPI PUSH0 PUSH0 REVERT JUMPDEST POP JUMP JUMPDEST PUSH0 DUP2 MLOAD SWAP1 POP PUSH2 0x10F DUP2 PUSH2 0xEB JUMP JUMPDEST SWAP3 SWAP2 POP POP JUMP JUMPDEST PUSH0 PUSH1 0x20 DUP3 DUP5 SUB SLT ISZERO PUSH2 0x12A JUMPI PUSH2 0x129 PUSH2 0xB7 JUMP JUMPDEST JUMPDEST PUSH0 PUSH2 0x137 DUP5 DUP3 DUP6 ADD PUSH2 0x101 JUMP JUMPDEST SWAP2 POP POP SWAP3 SWAP2 POP POP JUMP JUMPDEST PUSH2 0x7AD DUP1 PUSH2 0x14D PUSH0 CODECOPY PUSH0 RETURN INVALID PUSH1 0x80 PUSH1 0x40 MSTORE CALLVALUE DUP1 ISZERO PUSH2 0xF JUMPI PUSH0 PUSH0 REVERT JUMPDEST POP PUSH1 0x4 CALLDATASIZE LT PUSH2 0x55 JUMPI PUSH0 CALLDATALOAD PUSH1 0xE0 SHR DUP1 PUSH4 0x13AF4035 EQ PUSH2 0x59 JUMPI DUP1 PUSH4 0x3FA4F245 EQ PUSH2 0x75 JUMPI DUP1 PUSH4 0x55241077 EQ PUSH2 0x93 JUMPI DUP1 PUSH4 0x5C60DA1B EQ PUSH2 0xAF JUMPI DUP1 PUSH4 0x8DA5CB5B EQ PUSH2 0xCD JUMPI JUMPDEST PUSH0 PUSH0 REVERT JUMPDEST PUSH2 0x73 PUSH1 0x4 DUP1 CALLDATASIZE SUB DUP2 ADD SWAP1 PUSH2 0x6E SWAP2 SWAP1 PUSH2 0x4B8 JUMP JUMPDEST PUSH2 0xEB JUMP JUMPDEST STOP JUMPDEST PUSH2 0x7D PUSH2 0x27B JUMP JUMPDEST PUSH1 0x40 MLOAD PUSH2 0x8A SWAP2 SWAP1 PUSH2 0x4FB JUMP JUMPDEST PUSH1 0x40 MLOAD DUP1 SWAP2 SUB SWAP1 RETURN JUMPDEST PUSH2 0xAD PUSH1 0x4 DUP1 CALLDATASIZE SUB DUP2 ADD SWAP1 PUSH2 0xA8 SWAP2 SWAP1 PUSH2 0x53E JUMP JUMPDEST PUSH2 0x280 JUMP JUMPDEST STOP JUMPDEST PUSH2 0xB7 PUSH2 0x410 JUMP JUMPDEST PUSH1 0x40 MLOAD PUSH2 0xC4 SWAP2 SWAP1 PUSH2 0x578 JUMP JUMPDEST PUSH1 0x40 MLOAD DUP1 SWAP2 SUB SWAP1 RETURN JUMPDEST PUSH2 0xD5 PUSH2 0x435 JUMP JUMPDEST PUSH1 0x40 MLOAD PUSH2 0xE2 SWAP2 SWAP1 PUSH2 0x578 JUMP JUMPDEST PUSH1 0x40 MLOAD DUP1 SWAP2 SUB SWAP1 RETURN JUMPDEST PUSH0 PUSH1 0x2 PUSH0 SWAP1 SLOAD SWAP1 PUSH2 0x100 EXP SWAP1 DIV PUSH20 0xFFFFFFFFFFFFFFFFFFFFFFFFFFFFFFFFFFFFFFFF AND PUSH20 0xFFFFFFFFFFFFFFFFFFFFFFFFFFFFFFFFFFFFFFFF AND DUP3 PUSH1 0x40 MLOAD PUSH1 0x24 ADD PUSH2 0x135 SWAP2 SWAP1 PUSH2 0x578 JUMP JUMPDEST PUSH1 0x40 MLOAD PUSH1 0x20 DUP2 DUP4 SUB SUB DUP2 MSTORE SWAP1 PUSH1 0x40 MSTORE PUSH32 0x13AF403500000000000000000000000000000000000000000000000000000000 PUSH28 0xFFFFFFFFFFFFFFFFFFFFFFFFFFFFFFFFFFFFFFFFFFFFFFFFFFFFFFFF NOT AND PUSH1 0x20 DUP3 ADD DUP1 MLOAD PUSH28 0xFFFFFFFFFFFFFFFFFFFFFFFFFFFFFFFFFFFFFFFFFFFFFFFFFFFFFFFF DUP4 DUP2 DUP4 AND OR DUP4 MSTORE POP POP POP POP PUSH1 0x40 MLOAD PUSH2 0x1BF SWAP2 SWAP1 PUSH2 0x5E3 JUMP JUMPDEST PUSH0 PUSH1 0x40 MLOAD DUP1 DUP4 SUB DUP2 DUP6 GAS DELEGATECALL SWAP2 POP POP RETURNDATASIZE DUP1 PUSH0 DUP2 EQ PUSH2 0x1F7 JUMPI PUSH1 0x40 MLOAD SWAP2 POP PUSH1 0x1F NOT PUSH1 0x3F RETURNDATASIZE ADD AND DUP3 ADD PUSH1 0x40 MSTORE RETURNDATASIZE DUP3 MSTORE RETURNDATASIZE PUSH0 PUSH1 0x20 DUP5 ADD RETURNDATACOPY PUSH2 0x1FC JUMP JUMPDEST PUSH1 0x60 SWAP2 POP JUMPDEST POP POP SWAP1 POP PUSH32 0x17B187CB88412832F4B7606881F230794BF04650CA4794F06DA62F8C00F4F007 DUP2 PUSH1 0x40 MLOAD PUSH2 0x22F SWAP2 SWAP1 PUSH2 0x66D JUMP JUMPDEST PUSH1 0x40 MLOAD DUP1 SWAP2 SUB SWAP1 LOG1 DUP1 PUSH2 0x277 JUMPI PUSH1 0x40 MLOAD PUSH32 0x8C379A000000000000000000000000000000000000000000000000000000000 DUP2 MSTORE PUSH1 0x4 ADD PUSH2 0x26E SWAP1 PUSH2 0x6E3 JUMP JUMPDEST PUSH1 0x40 MLOAD DUP1 SWAP2 SUB SWAP1 REVERT JUMPDEST POP POP JUMP JUMPDEST PUSH0 SLOAD DUP2 JUMP JUMPDEST PUSH0 PUSH1 0x2 PUSH0 SWAP1 SLOAD SWAP1 PUSH2 0x100 EXP SWAP1 DIV PUSH20 0xFFFFFFFFFFFFFFFFFFFFFFFFFFFFFFFFFFFFFFFF AND PUSH20 0xFFFFFFFFFFFFFFFFFFFFFFFFFFFFFFFFFFFFFFFF AND DUP3 PUSH1 0x40 MLOAD PUSH1 0x24 ADD PUSH2 0x2CA SWAP2 SWAP1 PUSH2 0x4FB JUMP JUMPDEST PUSH1 0x40 MLOAD PUSH1 0x20 DUP2 DUP4 SUB SUB DUP2 MSTORE SWAP1 PUSH1 0x40 MSTORE PUSH32 0x5524107700000000000000000000000000000000000000000000000000000000 PUSH28 0xFFFFFFFFFFFFFFFFFFFFFFFFFFFFFFFFFFFFFFFFFFFFFFFFFFFFFFFF NOT AND PUSH1 0x20 DUP3 ADD DUP1 MLOAD PUSH28 0xFFFFFFFFFFFFFFFFFFFFFFFFFFFFFFFFFFFFFFFFFFFFFFFFFFFFFFFF DUP4 DUP2 DUP4 AND OR DUP4 MSTORE POP POP POP POP PUSH1 0x40 MLOAD PUSH2 0x354 SWAP2 SWAP1 PUSH2 0x5E3 JUMP JUMPDEST PUSH0 PUSH1 0x40 MLOAD DUP1 DUP4 SUB DUP2 DUP6 GAS DELEGATECALL SWAP2 POP POP RETURNDATASIZE DUP1 PUSH0 DUP2 EQ PUSH2 0x38C JUMPI PUSH1 0x40 MLOAD SWAP2 POP PUSH1 0x1F NOT PUSH1 0x3F RETURNDATASIZE ADD AND DUP3 ADD PUSH1 0x40 MSTORE RETURNDATASIZE DUP3 MSTORE RETURNDATASIZE PUSH0 PUSH1 0x20 DUP5 ADD RETURNDATACOPY PUSH2 0x391 JUMP JUMPDEST PUSH1 0x60 SWAP2 POP JUMPDEST POP POP SWAP1 POP PUSH32 0x17B187CB88412832F4B7606881F230794BF04650CA4794F06DA62F8C00F4F007 DUP2 PUSH1 0x40 MLOAD PUSH2 0x3C4 SWAP2 SWAP1 PUSH2 0x74B JUMP JUMPDEST PUSH1 0x40 MLOAD DUP1 SWAP2 SUB SWAP1 LOG1 DUP1 PUSH2 0x40C JUMPI PUSH1 0x40 MLOAD PUSH32 0x8C379A000000000000000000000000000000000000000000000000000000000 DUP2 MSTORE PUSH1 0x4 ADD PUSH2 0x403 SWAP1 PUSH2 0x6E3 JUMP JUMPDEST PUSH1 0x40 MLOAD DUP1 SWAP2 SUB SWAP1 REVERT JUMPDEST POP POP JUMP JUMPDEST PUSH1 0x2 PUSH0 SWAP1 SLOAD SWAP1 PUSH2 0x100 EXP SWAP1 DIV PUSH20 0xFFFFFFFFFFFFFFFFFFFFFFFFFFFFFFFFFFFFFFFF AND DUP2 JUMP JUMPDEST PUSH1 0x1 PUSH0 SWAP1 SLOAD SWAP1 PUSH2 0x100 EXP SWAP1 DIV PUSH20 0xFFFFFFFFFFFFFFFFFFFFFFFFFFFFFFFFFFFFFFFF AND DUP2 JUMP JUMPDEST PUSH0 PUSH0 REVERT JUMPDEST PUSH0 PUSH20 0xFFFFFFFFFFFFFFFFFFFFFFFFFFFFFFFFFFFFFFFF DUP3 AND SWAP1 POP SWAP2 SWAP1 POP JUMP JUMPDEST PUSH0 PUSH2 0x487 DUP3 PUSH2 0x45E JUMP JUMPDEST SWAP1 POP SWAP2 SWAP1 POP JUMP JUMPDEST PUSH2 0x497 DUP2 PUSH2 0x47D JUMP JUMPDEST DUP2 EQ PUSH2 0x4A1 JUMPI PUSH0 PUSH0 REVERT JUMPDEST POP JUMP JUMPDEST PUSH0 DUP2 CALLDATALOAD SWAP1 POP PUSH2 0x4B2 DUP2 PUSH2 0x48E JUMP JUMPDEST SWAP3 SWAP2 POP POP JUMP JUMPDEST PUSH0 PUSH1 0x20 DUP3 DUP5 SUB SLT ISZERO PUSH2 0x4CD JUMPI PUSH2 0x4CC PUSH2 0x45A JUMP JUMPDEST JUMPDEST PUSH0 PUSH2 0x4DA DUP5 DUP3 DUP6 ADD PUSH2 0x4A4 JUMP JUMPDEST SWAP2 POP POP SWAP3 SWAP2 POP POP JUMP JUMPDEST PUSH0 DUP2 SWAP1 POP SWAP2 SWAP1 POP JUMP JUMPDEST PUSH2 0x4F5 DUP2 PUSH2 0x4E3 JUMP JUMPDEST DUP3 MSTORE POP POP JUMP JUMPDEST PUSH0 PUSH1 0x20 DUP3 ADD SWAP1 POP PUSH2 0x50E PUSH0 DUP4 ADD DUP5 PUSH2 0x4EC JUMP JUMPDEST SWAP3 SWAP2 POP POP JUMP JUMPDEST PUSH2 0x51D DUP2 PUSH2 0x4E3 JUMP JUMPDEST DUP2 EQ PUSH2 0x527 JUMPI PUSH0 PUSH0 REVERT JUMPDEST POP JUMP JUMPDEST PUSH0 DUP2 CALLDATALOAD SWAP1 POP PUSH2 0x538 DUP2 PUSH2 0x514 JUMP JUMPDEST SWAP3 SWAP2 POP POP JUMP JUMPDEST PUSH0 PUSH1 0x20 DUP3 DUP5 SUB SLT ISZERO PUSH2 0x553 JUMPI PUSH2 0x552 PUSH2 0x45A JUMP JUMPDEST JUMPDEST PUSH0 PUSH2 0x560 DUP5 DUP3 DUP6 ADD PUSH2 0x52A JUMP JUMPDEST SWAP2 POP POP SWAP3 SWAP2 POP POP JUMP JUMPDEST PUSH2 0x572 DUP2 PUSH2 0x47D JUMP JUMPDEST DUP3 MSTORE POP POP JUMP JUMPDEST PUSH0 PUSH1 0x20 DUP3 ADD SWAP1 POP PUSH2 0x58B PUSH0 DUP4 ADD DUP5 PUSH2 0x569 JUMP JUMPDEST SWAP3 SWAP2 POP POP JUMP JUMPDEST PUSH0 DUP2 MLOAD SWAP1 POP SWAP2 SWAP1 POP JUMP JUMPDEST PUSH0 DUP2 SWAP1 POP SWAP3 SWAP2 POP POP JUMP JUMPDEST DUP3 DUP2 DUP4 MCOPY PUSH0 DUP4 DUP4 ADD MSTORE POP POP POP JUMP JUMPDEST PUSH0 PUSH2 0x5BD DUP3 PUSH2 0x591 JUMP JUMPDEST PUSH2 0x5C7 DUP2 DUP6 PUSH2 0x59B JUMP JUMPDEST SWAP4 POP PUSH2 0x5D7 DUP2 DUP6 PUSH1 0x20 DUP7 ADD PUSH2 0x5A5 JUMP JUMPDEST DUP1 DUP5 ADD SWAP2 POP POP SWAP3 SWAP2 POP POP JUMP JUMPDEST PUSH0 PUSH2 0x5EE DUP3 DUP5 PUSH2 0x5B3 JUMP JUMPDEST SWAP2 POP DUP2 SWAP1 POP SWAP3 SWAP2 POP POP JUMP JUMPDEST PUSH0 DUP3 DUP3 MSTORE PUSH1 0x20 DUP3 ADD SWAP1 POP SWAP3 SWAP2 POP POP JUMP JUMPDEST PUSH32 0x7365744F776E6572000000000000000000000000000000000000000000000000 PUSH0 DUP3 ADD MSTORE POP JUMP JUMPDEST PUSH0 PUSH2 0x63D PUSH1 0x8 DUP4 PUSH2 0x5F9 JUMP JUMPDEST SWAP2 POP PUSH2 0x648 DUP3 PUSH2 0x609 JUMP JUMPDEST PUSH1 0x20 DUP3 ADD SWAP1 POP SWAP2 SWAP1 POP JUMP JUMPDEST PUSH0 DUP2 ISZERO ISZERO SWAP1 POP SWAP2 SWAP1 POP JUMP JUMPDEST PUSH2 0x667 DUP2 PUSH2 0x653 JUMP JUMPDEST DUP3 MSTORE POP POP JUMP JUMPDEST PUSH0 PUSH1 0x40 DUP3 ADD SWAP1 POP DUP2 DUP2 SUB PUSH0 DUP4 ADD MSTORE PUSH2 0x684 DUP2 PUSH2 0x631 JUMP JUMPDEST SWAP1 POP PUSH2 0x693 PUSH1 0x20 DUP4 ADD DUP5 PUSH2 0x65E JUMP JUMPDEST SWAP3 SWAP2 POP POP JUMP JUMPDEST PUSH32 0x64656C656761746563616C6C206661696C656400000000000000000000000000 PUSH0 DUP3 ADD MSTORE POP JUMP JUMPDEST PUSH0 PUSH2 0x6CD PUSH1 0x13 DUP4 PUSH2 0x5F9 JUMP JUMPDEST SWAP2 POP PUSH2 0x6D8 DUP3 PUSH2 0x699 JUMP JUMPDEST PUSH1 0x20 DUP3 ADD SWAP1 POP SWAP2 SWAP1 POP JUMP JUMPDEST PUSH0 PUSH1 0x20 DUP3 ADD SWAP1 POP DUP2 DUP2 SUB PUSH0 DUP4 ADD MSTORE PUSH2 0x6FA DUP2 PUSH2 0x6C1 JUMP JUMPDEST SWAP1 POP SWAP2 SWAP1 POP JUMP JUMPDEST PUSH32 0x73657456616C7565000000000000000000000000000000000000000000000000 PUSH0 DUP3 ADD MSTORE POP JUMP JUMPDEST PUSH0 PUSH2 0x735 PUSH1 0x8 DUP4 PUSH2 0x5F9 JUMP JUMPDEST SWAP2 POP PUSH2 0x740 DUP3 PUSH2 0x701 JUMP JUMPDEST PUSH1 0x20 DUP3 ADD SWAP1 POP SWAP2 SWAP1 POP JUMP JUMPDEST PUSH0 PUSH1 0x40 DUP3 ADD SWAP1 POP DUP2 DUP2 SUB PUSH0 DUP4 ADD MSTORE PUSH2 0x762 DUP2 PUSH2 0x729 JUMP JUMPDEST SWAP1 POP PUSH2 0x771 PUSH1 0x20 DUP4 ADD DUP5 PUSH2 0x65E JUMP JUMPDEST SWAP3 SWAP2 POP POP JUMP INVALID LOG2 PUSH5 0x6970667358 0x22 SLT KECCAK256 GAS 0xF7 PUSH11 0x8C2DE8F788BDC7F28F4E14 DUP12 SELFDESTRUCT 0xB1 CREATE NUMBER RETURN RJUMP 0xCE69 0xD4 DATALOADN 0x2EA5 SMOD 0xAB 0xBC 0xF6 ORIGIN PUSH5 0x736F6C6343 STOP ADDMOD 0x22 STOP CALLER "
		},
		"gasEstimates": {
			"creation": {
				"codeDepositCost": "393000",
				"executionCost": "infinite",
				"totalCost": "infinite"
			},
			"external": {
				"implementation()": "2552",
				"owner()": "2574",
				"setOwner(address)": "infinite",
				"setValue(uint256)": "infinite",
				"value()": "2424"
			}
		},
		"methodIdentifiers": {
			"implementation()": "5c60da1b",
			"owner()": "8da5cb5b",
			"setOwner(address)": "13af4035",
			"setValue(uint256)": "55241077",
			"value()": "3fa4f245"
		}
	},
	"abi": [
		{
			"inputs": [
				{
					"internalType": "address",
					"name": "_implementation",
					"type": "address"
				}
			],
			"stateMutability": "nonpayable",
			"type": "constructor"
		},
		{
			"anonymous": false,
			"inputs": [
				{
					"indexed": false,
					"internalType": "string",
					"name": "functionName",
					"type": "string"
				},
				{
					"indexed": false,
					"internalType": "bool",
					"name": "success",
					"type": "bool"
				}
			],
			"name": "DelegateExecuted",
			"type": "event"
		},
		{
			"inputs": [],
			"name": "implementation",
			"outputs": [
				{
					"internalType": "address",
					"name": "",
					"type": "address"
				}
			],
			"stateMutability": "view",
			"type": "function"
		},
		{
			"inputs": [],
			"name": "owner",
			"outputs": [
				{
					"internalType": "address",
					"name": "",
					"type": "address"
				}
			],
			"stateMutability": "view",
			"type": "function"
		},
		{
			"inputs": [
				{
					"internalType": "address",
					"name": "_owner",
					"type": "address"
				}
			],
			"name": "setOwner",
			"outputs": [],
			"stateMutability": "nonpayable",
			"type": "function"
		},
		{
			"inputs": [
				{
					"internalType": "uint256",
					"name": "_value",
					"type": "uint256"
				}
			],
			"name": "setValue",
			"outputs": [],
			"stateMutability": "nonpayable",
			"type": "function"
		},
		{
			"inputs": [],
			"name": "value",
			"outputs": [
				{
					"internalType": "uint256",
					"name": "",
					"type": "uint256"
				}
			],
			"stateMutability": "view",
			"type": "function"
		}
	]
}