{
	"data": {
		"bytecode": {
			"linkReferences": {},
			"object": "6080604052348015600e575f5ffd5b50610c028061001c5f395ff3fe608060405234801561000f575f5ffd5b506004361061007b575f3560e01c806385974f2f1161005957806385974f2f146100e95780639f9b9bdc1461011b578063b3db9f1a1461014b578063cbfbca5e146101695761007b565b806317679e131461007f578063329707101461009b57806342a91734146100b9575b5f5ffd5b61009960048036038101906100949190610460565b610199565b005b6100a36101b6565b6040516100b0919061052d565b60405180910390f35b6100d360048036038101906100ce919061054d565b610242565b6040516100e0919061052d565b60405180910390f35b61010360048036038101906100fe9190610627565b610290565b604051610112939291906106a4565b60405180910390f35b6101356004803603810190610130919061072e565b6102a5565b6040516101429190610779565b60405180910390f35b6101536103b6565b6040516101609190610779565b60405180910390f35b610183600480360381019061017e9190610792565b6103bb565b6040516101909190610779565b60405180910390f35b825f819055508181600191826101b0929190610a02565b50505050565b600180546101c390610821565b80601f01602080910402602001604051908101604052809291908181526020018280546101ef90610821565b801561023a5780601f106102115761010080835404028352916020019161023a565b820191905f5260205f20905b81548152906001019060200180831161021d57829003601f168201915b505050505081565b606082828080601f0160208091040260200160405190810160405280939291908181526020018383808284375f81840152601f19601f82011690508083019250505050505050905092915050565b5f5f5f85858592509250925093509350939050565b5f5f83839050116102eb576040517f08c379a00000000000000000000000000000000000000000000000000000000081526004016102e290610b19565b60405180910390fd5b6064838390501115610332576040517f08c379a000000000000000000000000000000000000000000000000000000000815260040161032990610b81565b60405180910390fd5b5f83835f81811061034657610345610b9f565b5b9050602002013590505f600190505b848490508110156103ab578185858381811061037457610373610b9f565b5b90506020020135111561039e5784848281811061039457610393610b9f565b5b9050602002013591505b8080600101915050610355565b508091505092915050565b5f5481565b5f819050919050565b5f5ffd5b5f5ffd5b5f819050919050565b6103de816103cc565b81146103e8575f5ffd5b50565b5f813590506103f9816103d5565b92915050565b5f5ffd5b5f5ffd5b5f5ffd5b5f5f83601f8401126104205761041f6103ff565b5b8235905067ffffffffffffffff81111561043d5761043c610403565b5b60208301915083600182028301111561045957610458610407565b5b9250929050565b5f5f5f60408486031215610477576104766103c4565b5b5f610484868287016103eb565b935050602084013567ffffffffffffffff8111156104a5576104a46103c8565b5b6104b18682870161040b565b92509250509250925092565b5f81519050919050565b5f82825260208201905092915050565b8281835e5f83830152505050565b5f601f19601f8301169050919050565b5f6104ff826104bd565b61050981856104c7565b93506105198185602086016104d7565b610522816104e5565b840191505092915050565b5f6020820190508181035f83015261054581846104f5565b905092915050565b5f5f60208385031215610563576105626103c4565b5b5f83013567ffffffffffffffff8111156105805761057f6103c8565b5b61058c8582860161040b565b92509250509250929050565b5f8115159050919050565b6105ac81610598565b81146105b6575f5ffd5b50565b5f813590506105c7816105a3565b92915050565b5f73ffffffffffffffffffffffffffffffffffffffff82169050919050565b5f6105f6826105cd565b9050919050565b610606816105ec565b8114610610575f5ffd5b50565b5f81359050610621816105fd565b92915050565b5f5f5f6060848603121561063e5761063d6103c4565b5b5f61064b868287016103eb565b935050602061065c868287016105b9565b925050604061066d86828701610613565b9150509250925092565b610680816103cc565b82525050565b61068f81610598565b82525050565b61069e816105ec565b82525050565b5f6060820190506106b75f830186610677565b6106c46020830185610686565b6106d16040830184610695565b949350505050565b5f5f83601f8401126106ee576106ed6103ff565b5b8235905067ffffffffffffffff81111561070b5761070a610403565b5b60208301915083602082028301111561072757610726610407565b5b9250929050565b5f5f60208385031215610744576107436103c4565b5b5f83013567ffffffffffffffff811115610761576107606103c8565b5b61076d858286016106d9565b92509250509250929050565b5f60208201905061078c5f830184610677565b92915050565b5f602082840312156107a7576107a66103c4565b5b5f6107b4848285016103eb565b91505092915050565b5f82905092915050565b7f4e487b71000000000000000000000000000000000000000000000000000000005f52604160045260245ffd5b7f4e487b71000000000000000000000000000000000000000000000000000000005f52602260045260245ffd5b5f600282049050600182168061083857607f821691505b60208210810361084b5761084a6107f4565b5b50919050565b5f819050815f5260205f209050919050565b5f6020601f8301049050919050565b5f82821b905092915050565b5f600883026108ad7fffffffffffffffffffffffffffffffffffffffffffffffffffffffffffffffff82610872565b6108b78683610872565b95508019841693508086168417925050509392505050565b5f819050919050565b5f6108f26108ed6108e8846103cc565b6108cf565b6103cc565b9050919050565b5f819050919050565b61090b836108d8565b61091f610917826108f9565b84845461087e565b825550505050565b5f5f905090565b610936610927565b610941818484610902565b505050565b5f5b828110156109675761095c5f82840161092e565b600181019050610948565b505050565b601f8211156109ba57828211156109b95761098681610851565b61098f83610863565b61099885610863565b60208610156109a5575f90505b8083016109b482840382610946565b505050505b5b505050565b5f82821c905092915050565b5f6109da5f19846008026109bf565b1980831691505092915050565b5f6109f283836109cb565b9150826002028217905092915050565b610a0c83836107bd565b67ffffffffffffffff811115610a2557610a246107c7565b5b610a2f8254610821565b610a3a82828561096c565b5f601f831160018114610a67575f8415610a55578287013590505b610a5f85826109e7565b865550610ac6565b601f198416610a7586610851565b5f5b82811015610a9c57848901358255600182019150602085019450602081019050610a77565b86831015610ab95784890135610ab5601f8916826109cb565b8355505b6001600288020188555050505b50505050505050565b7f4172726179206d757374206e6f7420626520656d7074790000000000000000005f82015250565b5f610b036017836104c7565b9150610b0e82610acf565b602082019050919050565b5f6020820190508181035f830152610b3081610af7565b9050919050565b7f4d6178696d756d2031303020656c656d656e747320616c6c6f776564000000005f82015250565b5f610b6b601c836104c7565b9150610b7682610b37565b602082019050919050565b5f6020820190508181035f830152610b9881610b5f565b9050919050565b7f4e487b71000000000000000000000000000000000000000000000000000000005f52603260045260245ffdfea2646970667358221220793623e961fa00796ff682642b174adc17507b6794abaf738c3e9cc78ecdb86064736f6c63430008220033",
			"opcodes": "PUSH1 0x80 PUSH1 0x40 MSTORE CALLVALUE DUP1 ISZERO PUSH1 0xE JUMPI PUSH0 PUSH0 REVERT JUMPDEST POP PUSH2 0xC02 DUP1 PUSH2 0x1C PUSH0 CODECOPY PUSH0 RETURN INVALID PUSH1 0x80 PUSH1 0x40 MSTORE CALLVALUE DUP1 ISZERO PUSH2 0xF JUMPI PUSH0 PUSH0 REVERT JUMPDEST POP PUSH1 0x4 CALLDATASIZE LT PUSH2 0x7B JUMPI PUSH0 CALLDATALOAD PUSH1 0xE0 SHR DUP1 PUSH4 0x85974F2F GT PUSH2 0x59 JUMPI DUP1 PUSH4 0x85974F2F EQ PUSH2 0xE9 JUMPI DUP1 PUSH4 0x9F9B9BDC EQ PUSH2 0x11B JUMPI DUP1 PUSH4 0xB3DB9F1A EQ PUSH2 0x14B JUMPI DUP1 PUSH4 0xCBFBCA5E EQ PUSH2 0x169 JUMPI PUSH2 0x7B JUMP JUMPDEST DUP1 PUSH4 0x17679E13 EQ PUSH2 0x7F JUMPI DUP1 PUSH4 0x32970710 EQ PUSH2 0x9B JUMPI DUP1 PUSH4 0x42A91734 EQ PUSH2 0xB9 JUMPI JUMPDEST PUSH0 PUSH0 REVERT JUMPDEST PUSH2 0x99 PUSH1 0x4 DUP1 CALLDATASIZE SUB DUP2 ADD SWAP1 PUSH2 0x94 SWAP2 SWAP1 PUSH2 0x460 JUMP JUMPDEST PUSH2 0x199 JUMP JUMPDEST STOP JUMPDEST PUSH2 0xA3 PUSH2 0x1B6 JUMP JUMPDEST PUSH1 0x40 MLOAD PUSH2 0xB0 SWAP2 SWAP1 PUSH2 0x52D JUMP JUMPDEST PUSH1 0x40 MLOAD DUP1 SWAP2 SUB SWAP1 RETURN JUMPDEST PUSH2 0xD3 PUSH1 0x4 DUP1 CALLDATASIZE SUB DUP2 ADD SWAP1 PUSH2 0xCE SWAP2 SWAP1 PUSH2 0x54D JUMP JUMPDEST PUSH2 0x242 JUMP JUMPDEST PUSH1 0x40 MLOAD PUSH2 0xE0 SWAP2 SWAP1 PUSH2 0x52D JUMP JUMPDEST PUSH1 0x40 MLOAD DUP1 SWAP2 SUB SWAP1 RETURN JUMPDEST PUSH2 0x103 PUSH1 0x4 DUP1 CALLDATASIZE SUB DUP2 ADD SWAP1 PUSH2 0xFE SWAP2 SWAP1 PUSH2 0x627 JUMP JUMPDEST PUSH2 0x290 JUMP JUMPDEST PUSH1 0x40 MLOAD PUSH2 0x112 SWAP4 SWAP3 SWAP2 SWAP1 PUSH2 0x6A4 JUMP JUMPDEST PUSH1 0x40 MLOAD DUP1 SWAP2 SUB SWAP1 RETURN JUMPDEST PUSH2 0x135 PUSH1 0x4 DUP1 CALLDATASIZE SUB DUP2 ADD SWAP1 PUSH2 0x130 SWAP2 SWAP1 PUSH2 0x72E JUMP JUMPDEST PUSH2 0x2A5 JUMP JUMPDEST PUSH1 0x40 MLOAD PUSH2 0x142 SWAP2 SWAP1 PUSH2 0x779 JUMP JUMPDEST PUSH1 0x40 MLOAD DUP1 SWAP2 SUB SWAP1 RETURN JUMPDEST PUSH2 0x153 PUSH2 0x3B6 JUMP JUMPDEST PUSH1 0x40 MLOAD PUSH2 0x160 SWAP2 SWAP1 PUSH2 0x779 JUMP JUMPDEST PUSH1 0x40 MLOAD DUP1 SWAP2 SUB SWAP1 RETURN JUMPDEST PUSH2 0x183 PUSH1 0x4 DUP1 CALLDATASIZE SUB DUP2 ADD SWAP1 PUSH2 0x17E SWAP2 SWAP1 PUSH2 0x792 JUMP JUMPDEST PUSH2 0x3BB JUMP JUMPDEST PUSH1 0x40 MLOAD PUSH2 0x190 SWAP2 SWAP1 PUSH2 0x779 JUMP JUMPDEST PUSH1 0x40 MLOAD DUP1 SWAP2 SUB SWAP1 RETURN JUMPDEST DUP3 PUSH0 DUP2 SWAP1 SSTORE POP DUP2 DUP2 PUSH1 0x1 SWAP2 DUP3 PUSH2 0x1B0 SWAP3 SWAP2 SWAP1 PUSH2 0xA02 JUMP JUMPDEST POP POP POP POP JUMP JUMPDEST PUSH1 0x1 DUP1 SLOAD PUSH2 0x1C3 SWAP1 PUSH2 0x821 JUMP JUMPDEST DUP1 PUSH1 0x1F ADD PUSH1 0x20 DUP1 SWAP2 DIV MUL PUSH1 0x20 ADD PUSH1 0x40 MLOAD SWAP1 DUP2 ADD PUSH1 0x40 MSTORE DUP1 SWAP3 SWAP2 SWAP1 DUP2 DUP2 MSTORE PUSH1 0x20 ADD DUP3 DUP1 SLOAD PUSH2 0x1EF SWAP1 PUSH2 0x821 JUMP JUMPDEST DUP1 ISZERO PUSH2 0x23A JUMPI DUP1 PUSH1 0x1F LT PUSH2 0x211 JUMPI PUSH2 0x100 DUP1 DUP4 SLOAD DIV MUL DUP4 MSTORE SWAP2 PUSH1 0x20 ADD SWAP2 PUSH2 0x23A JUMP JUMPDEST DUP3 ADD SWAP2 SWAP1 PUSH0 MSTORE PUSH1 0x20 PUSH0 KECCAK256 SWAP1 JUMPDEST DUP2 SLOAD DUP2 MSTORE SWAP1 PUSH1 0x1 ADD SWAP1 PUSH1 0x20 ADD DUP1 DUP4 GT PUSH2 0x21D JUMPI DUP3 SWAP1 SUB PUSH1 0x1F AND DUP3 ADD SWAP2 JUMPDEST POP POP POP POP POP DUP2 JUMP JUMPDEST PUSH1 0x60 DUP3 DUP3 DUP1 DUP1 PUSH1 0x1F ADD PUSH1 0x20 DUP1 SWAP2 DIV MUL PUSH1 0x20 ADD PUSH1 0x40 MLOAD SWAP1 DUP2 ADD PUSH1 0x40 MSTORE DUP1 SWAP4 SWAP3 SWAP2 SWAP1 DUP2 DUP2 MSTORE PUSH1 0x20 ADD DUP4 DUP4 DUP1 DUP3 DUP5 CALLDATACOPY PUSH0 DUP2 DUP5 ADD MSTORE PUSH1 0x1F NOT PUSH1 0x1F DUP3 ADD AND SWAP1 POP DUP1 DUP4 ADD SWAP3 POP POP POP POP POP POP POP SWAP1 POP SWAP3 SWAP2 POP POP JUMP JUMPDEST PUSH0 PUSH0 PUSH0 DUP6 DUP6 DUP6 SWAP3 POP SWAP3 POP SWAP3 POP SWAP4 POP SWAP4 POP SWAP4 SWAP1 POP JUMP JUMPDEST PUSH0 PUSH0 DUP4 DUP4 SWAP1 POP GT PUSH2 0x2EB JUMPI PUSH1 0x40 MLOAD PUSH32 0x8C379A000000000000000000000000000000000000000000000000000000000 DUP2 MSTORE PUSH1 0x4 ADD PUSH2 0x2E2 SWAP1 PUSH2 0xB19 JUMP JUMPDEST PUSH1 0x40 MLOAD DUP1 SWAP2 SUB SWAP1 REVERT JUMPDEST PUSH1 0x64 DUP4 DUP4 SWAP1 POP GT ISZERO PUSH2 0x332 JUMPI PUSH1 0x40 MLOAD PUSH32 0x8C379A000000000000000000000000000000000000000000000000000000000 DUP2 MSTORE PUSH1 0x4 ADD PUSH2 0x329 SWAP1 PUSH2 0xB81 JUMP JUMPDEST PUSH1 0x40 MLOAD DUP1 SWAP2 SUB SWAP1 REVERT JUMPDEST PUSH0 DUP4 DUP4 PUSH0 DUP2 DUP2 LT PUSH2 0x346 JUMPI PUSH2 0x345 PUSH2 0xB9F JUMP JUMPDEST JUMPDEST SWAP1 POP PUSH1 0x20 MUL ADD CALLDATALOAD SWAP1 POP PUSH0 PUSH1 0x1 SWAP1 POP JUMPDEST DUP5 DUP5 SWAP1 POP DUP2 LT ISZERO PUSH2 0x3AB JUMPI DUP2 DUP6 DUP6 DUP4 DUP2 DUP2 LT PUSH2 0x374 JUMPI PUSH2 0x373 PUSH2 0xB9F JUMP JUMPDEST JUMPDEST SWAP1 POP PUSH1 0x20 MUL ADD CALLDATALOAD GT ISZERO PUSH2 0x39E JUMPI DUP5 DUP5 DUP3 DUP2 DUP2 LT PUSH2 0x394 JUMPI PUSH2 0x393 PUSH2 0xB9F JUMP JUMPDEST JUMPDEST SWAP1 POP PUSH1 0x20 MUL ADD CALLDATALOAD SWAP2 POP JUMPDEST DUP1 DUP1 PUSH1 0x1 ADD SWAP2 POP POP PUSH2 0x355 JUMP JUMPDEST POP DUP1 SWAP2 POP POP SWAP3 SWAP2 POP POP JUMP JUMPDEST PUSH0 SLOAD DUP2 JUMP JUMPDEST PUSH0 DUP2 SWAP1 POP SWAP2 SWAP1 POP JUMP JUMPDEST PUSH0 PUSH0 REVERT JUMPDEST PUSH0 PUSH0 REVERT JUMPDEST PUSH0 DUP2 SWAP1 POP SWAP2 SWAP1 POP JUMP JUMPDEST PUSH2 0x3DE DUP2 PUSH2 0x3CC JUMP JUMPDEST DUP2 EQ PUSH2 0x3E8 JUMPI PUSH0 PUSH0 REVERT JUMPDEST POP JUMP JUMPDEST PUSH0 DUP2 CALLDATALOAD SWAP1 POP PUSH2 0x3F9 DUP2 PUSH2 0x3D5 JUMP JUMPDEST SWAP3 SWAP2 POP POP JUMP JUMPDEST PUSH0 PUSH0 REVERT JUMPDEST PUSH0 PUSH0 REVERT JUMPDEST PUSH0 PUSH0 REVERT JUMPDEST PUSH0 PUSH0 DUP4 PUSH1 0x1F DUP5 ADD SLT PUSH2 0x420 JUMPI PUSH2 0x41F PUSH2 0x3FF JUMP JUMPDEST JUMPDEST DUP3 CALLDATALOAD SWAP1 POP PUSH8 0xFFFFFFFFFFFFFFFF DUP2 GT ISZERO PUSH2 0x43D JUMPI PUSH2 0x43C PUSH2 0x403 JUMP JUMPDEST JUMPDEST PUSH1 0x20 DUP4 ADD SWAP2 POP DUP4 PUSH1 0x1 DUP3 MUL DUP4 ADD GT ISZERO PUSH2 0x459 JUMPI PUSH2 0x458 PUSH2 0x407 JUMP JUMPDEST JUMPDEST SWAP3 POP SWAP3 SWAP1 POP JUMP JUMPDEST PUSH0 PUSH0 PUSH0 PUSH1 0x40 DUP5 DUP7 SUB SLT ISZERO PUSH2 0x477 JUMPI PUSH2 0x476 PUSH2 0x3C4 JUMP JUMPDEST JUMPDEST PUSH0 PUSH2 0x484 DUP7 DUP3 DUP8 ADD PUSH2 0x3EB JUMP JUMPDEST SWAP4 POP POP PUSH1 0x20 DUP5 ADD CALLDATALOAD PUSH8 0xFFFFFFFFFFFFFFFF DUP2 GT ISZERO PUSH2 0x4A5 JUMPI PUSH2 0x4A4 PUSH2 0x3C8 JUMP JUMPDEST JUMPDEST PUSH2 0x4B1 DUP7 DUP3 DUP8 ADD PUSH2 0x40B JUMP JUMPDEST SWAP3 POP SWAP3 POP POP SWAP3 POP SWAP3 POP SWAP3 JUMP JUMPDEST PUSH0 DUP2 MLOAD SWAP1 POP SWAP2 SWAP1 POP JUMP JUMPDEST PUSH0 DUP3 DUP3 MSTORE PUSH1 0x20 DUP3 ADD SWAP1 POP SWAP3 SWAP2 POP POP JUMP JUMPDEST DUP3 DUP2 DUP4 MCOPY PUSH0 DUP4 DUP4 ADD MSTORE POP POP POP JUMP JUMPDEST PUSH0 PUSH1 0x1F NOT PUSH1 0x1F DUP4 ADD AND SWAP1 POP SWAP2 SWAP1 POP JUMP JUMPDEST PUSH0 PUSH2 0x4FF DUP3 PUSH2 0x4BD JUMP JUMPDEST PUSH2 0x509 DUP2 DUP6 PUSH2 0x4C7 JUMP JUMPDEST SWAP4 POP PUSH2 0x519 DUP2 DUP6 PUSH1 0x20 DUP7 ADD PUSH2 0x4D7 JUMP JUMPDEST PUSH2 0x522 DUP2 PUSH2 0x4E5 JUMP JUMPDEST DUP5 ADD SWAP2 POP POP SWAP3 SWAP2 POP POP JUMP JUMPDEST PUSH0 PUSH1 0x20 DUP3 ADD SWAP1 POP DUP2 DUP2 SUB PUSH0 DUP4 ADD MSTORE PUSH2 0x545 DUP2 DUP5 PUSH2 0x4F5 JUMP JUMPDEST SWAP1 POP SWAP3 SWAP2 POP POP JUMP JUMPDEST PUSH0 PUSH0 PUSH1 0x20 DUP4 DUP6 SUB SLT ISZERO PUSH2 0x563 JUMPI PUSH2 0x562 PUSH2 0x3C4 JUMP JUMPDEST JUMPDEST PUSH0 DUP4 ADD CALLDATALOAD PUSH8 0xFFFFFFFFFFFFFFFF DUP2 GT ISZERO PUSH2 0x580 JUMPI PUSH2 0x57F PUSH2 0x3C8 JUMP JUMPDEST JUMPDEST PUSH2 0x58C DUP6 DUP3 DUP7 ADD PUSH2 0x40B JUMP JUMPDEST SWAP3 POP SWAP3 POP POP SWAP3 POP SWAP3 SWAP1 POP JUMP JUMPDEST PUSH0 DUP2 ISZERO ISZERO SWAP1 POP SWAP2 SWAP1 POP JUMP JUMPDEST PUSH2 0x5AC DUP2 PUSH2 0x598 JUMP JUMPDEST DUP2 EQ PUSH2 0x5B6 JUMPI PUSH0 PUSH0 REVERT JUMPDEST POP JUMP JUMPDEST PUSH0 DUP2 CALLDATALOAD SWAP1 POP PUSH2 0x5C7 DUP2 PUSH2 0x5A3 JUMP JUMPDEST SWAP3 SWAP2 POP POP JUMP JUMPDEST PUSH0 PUSH20 0xFFFFFFFFFFFFFFFFFFFFFFFFFFFFFFFFFFFFFFFF DUP3 AND SWAP1 POP SWAP2 SWAP1 POP JUMP JUMPDEST PUSH0 PUSH2 0x5F6 DUP3 PUSH2 0x5CD JUMP JUMPDEST SWAP1 POP SWAP2 SWAP1 POP JUMP JUMPDEST PUSH2 0x606 DUP2 PUSH2 0x5EC JUMP JUMPDEST DUP2 EQ PUSH2 0x610 JUMPI PUSH0 PUSH0 REVERT JUMPDEST POP JUMP JUMPDEST PUSH0 DUP2 CALLDATALOAD SWAP1 POP PUSH2 0x621 DUP2 PUSH2 0x5FD JUMP JUMPDEST SWAP3 SWAP2 POP POP JUMP JUMPDEST PUSH0 PUSH0 PUSH0 PUSH1 0x60 DUP5 DUP7 SUB SLT ISZERO PUSH2 0x63E JUMPI PUSH2 0x63D PUSH2 0x3C4 JUMP JUMPDEST JUMPDEST PUSH0 PUSH2 0x64B DUP7 DUP3 DUP8 ADD PUSH2 0x3EB JUMP JUMPDEST SWAP4 POP POP PUSH1 0x20 PUSH2 0x65C DUP7 DUP3 DUP8 ADD PUSH2 0x5B9 JUMP JUMPDEST SWAP3 POP POP PUSH1 0x40 PUSH2 0x66D DUP7 DUP3 DUP8 ADD PUSH2 0x613 JUMP JUMPDEST SWAP2 POP POP SWAP3 POP SWAP3 POP SWAP3 JUMP JUMPDEST PUSH2 0x680 DUP2 PUSH2 0x3CC JUMP JUMPDEST DUP3 MSTORE POP POP JUMP JUMPDEST PUSH2 0x68F DUP2 PUSH2 0x598 JUMP JUMPDEST DUP3 MSTORE POP POP JUMP JUMPDEST PUSH2 0x69E DUP2 PUSH2 0x5EC JUMP JUMPDEST DUP3 MSTORE POP POP JUMP JUMPDEST PUSH0 PUSH1 0x60 DUP3 ADD SWAP1 POP PUSH2 0x6B7 PUSH0 DUP4 ADD DUP7 PUSH2 0x677 JUMP JUMPDEST PUSH2 0x6C4 PUSH1 0x20 DUP4 ADD DUP6 PUSH2 0x686 JUMP JUMPDEST PUSH2 0x6D1 PUSH1 0x40 DUP4 ADD DUP5 PUSH2 0x695 JUMP JUMPDEST SWAP5 SWAP4 POP POP POP POP JUMP JUMPDEST PUSH0 PUSH0 DUP4 PUSH1 0x1F DUP5 ADD SLT PUSH2 0x6EE JUMPI PUSH2 0x6ED PUSH2 0x3FF JUMP JUMPDEST JUMPDEST DUP3 CALLDATALOAD SWAP1 POP PUSH8 0xFFFFFFFFFFFFFFFF DUP2 GT ISZERO PUSH2 0x70B JUMPI PUSH2 0x70A PUSH2 0x403 JUMP JUMPDEST JUMPDEST PUSH1 0x20 DUP4 ADD SWAP2 POP DUP4 PUSH1 0x20 DUP3 MUL DUP4 ADD GT ISZERO PUSH2 0x727 JUMPI PUSH2 0x726 PUSH2 0x407 JUMP JUMPDEST JUMPDEST SWAP3 POP SWAP3 SWAP1 POP JUMP JUMPDEST PUSH0 PUSH0 PUSH1 0x20 DUP4 DUP6 SUB SLT ISZERO PUSH2 0x744 JUMPI PUSH2 0x743 PUSH2 0x3C4 JUMP JUMPDEST JUMPDEST PUSH0 DUP4 ADD CALLDATALOAD PUSH8 0xFFFFFFFFFFFFFFFF DUP2 GT ISZERO PUSH2 0x761 JUMPI PUSH2 0x760 PUSH2 0x3C8 JUMP JUMPDEST JUMPDEST PUSH2 0x76D DUP6 DUP3 DUP7 ADD PUSH2 0x6D9 JUMP JUMPDEST SWAP3 POP SWAP3 POP POP SWAP3 POP SWAP3 SWAP1 POP JUMP JUMPDEST PUSH0 PUSH1 0x20 DUP3 ADD SWAP1 POP PUSH2 0x78C PUSH0 DUP4 ADD DUP5 PUSH2 0x677 JUMP JUMPDEST SWAP3 SWAP2 POP POP JUMP JUMPDEST PUSH0 PUSH1 0x20 DUP3 DUP5 SUB SLT ISZERO PUSH2 0x7A7 JUMPI PUSH2 0x7A6 PUSH2 0x3C4 JUMP JUMPDEST JUMPDEST PUSH0 PUSH2 0x7B4 DUP5 DUP3 DUP6 ADD PUSH2 0x3EB JUMP JUMPDEST SWAP2 POP POP SWAP3 SWAP2 POP POP JUMP JUMPDEST PUSH0 DUP3 SWAP1 POP SWAP3 SWAP2 POP POP JUMP JUMPDEST PUSH32 0x4E487B7100000000000000000000000000000000000000000000000000000000 PUSH0 MSTORE PUSH1 0x41 PUSH1 0x4 MSTORE PUSH1 0x24 PUSH0 REVERT JUMPDEST PUSH32 0x4E487B7100000000000000000000000000000000000000000000000000000000 PUSH0 MSTORE PUSH1 0x22 PUSH1 0x4 MSTORE PUSH1 0x24 PUSH0 REVERT JUMPDEST PUSH0 PUSH1 0x2 DUP3 DIV SWAP1 POP PUSH1 0x1 DUP3 AND DUP1 PUSH2 0x838 JUMPI PUSH1 0x7F DUP3 AND SWAP2 POP JUMPDEST PUSH1 0x20 DUP3 LT DUP2 SUB PUSH2 0x84B JUMPI PUSH2 0x84A PUSH2 0x7F4 JUMP JUMPDEST JUMPDEST POP SWAP2 SWAP1 POP JUMP JUMPDEST PUSH0 DUP2 SWAP1 POP DUP2 PUSH0 MSTORE PUSH1 0x20 PUSH0 KECCAK256 SWAP1 POP SWAP2 SWAP1 POP JUMP JUMPDEST PUSH0 PUSH1 0x20 PUSH1 0x1F DUP4 ADD DIV SWAP1 POP SWAP2 SWAP1 POP JUMP JUMPDEST PUSH0 DUP3 DUP3 SHL SWAP1 POP SWAP3 SWAP2 POP POP JUMP JUMPDEST PUSH0 PUSH1 0x8 DUP4 MUL PUSH2 0x8AD PUSH32 0xFFFFFFFFFFFFFFFFFFFFFFFFFFFFFFFFFFFFFFFFFFFFFFFFFFFFFFFFFFFFFFFF DUP3 PUSH2 0x872 JUMP JUMPDEST PUSH2 0x8B7 DUP7 DUP4 PUSH2 0x872 JUMP JUMPDEST SWAP6 POP DUP1 NOT DUP5 AND SWAP4 POP DUP1 DUP7 AND DUP5 OR SWAP3 POP POP POP SWAP4 SWAP3 POP POP POP JUMP JUMPDEST PUSH0 DUP2 SWAP1 POP SWAP2 SWAP1 POP JUMP JUMPDEST PUSH0 PUSH2 0x8F2 PUSH2 0x8ED PUSH2 0x8E8 DUP5 PUSH2 0x3CC JUMP JUMPDEST PUSH2 0x8CF JUMP JUMPDEST PUSH2 0x3CC JUMP JUMPDEST SWAP1 POP SWAP2 SWAP1 POP JUMP JUMPDEST PUSH0 DUP2 SWAP1 POP SWAP2 SWAP1 POP JUMP JUMPDEST PUSH2 0x90B DUP4 PUSH2 0x8D8 JUMP JUMPDEST PUSH2 0x91F PUSH2 0x917 DUP3 PUSH2 0x8F9 JUMP JUMPDEST DUP5 DUP5 SLOAD PUSH2 0x87E JUMP JUMPDEST DUP3 SSTORE POP POP POP POP JUMP JUMPDEST PUSH0 PUSH0 SWAP1 POP SWAP1 JUMP JUMPDEST PUSH2 0x936 PUSH2 0x927 JUMP JUMPDEST PUSH2 0x941 DUP2 DUP5 DUP5 PUSH2 0x902 JUMP JUMPDEST POP POP POP JUMP JUMPDEST PUSH0 JUMPDEST DUP3 DUP2 LT ISZERO PUSH2 0x967 JUMPI PUSH2 0x95C PUSH0 DUP3 DUP5 ADD PUSH2 0x92E JUMP JUMPDEST PUSH1 0x1 DUP2 ADD SWAP1 POP PUSH2 0x948 JUMP JUMPDEST POP POP POP JUMP JUMPDEST PUSH1 0x1F DUP3 GT ISZERO PUSH2 0x9BA JUMPI DUP3 DUP3 GT ISZERO PUSH2 0x9B9 JUMPI PUSH2 0x986 DUP2 PUSH2 0x851 JUMP JUMPDEST PUSH2 0x98F DUP4 PUSH2 0x863 JUMP JUMPDEST PUSH2 0x998 DUP6 PUSH2 0x863 JUMP JUMPDEST PUSH1 0x20 DUP7 LT ISZERO PUSH2 0x9A5 JUMPI PUSH0 SWAP1 POP JUMPDEST DUP1 DUP4 ADD PUSH2 0x9B4 DUP3 DUP5 SUB DUP3 PUSH2 0x946 JUMP JUMPDEST POP POP POP POP JUMPDEST JUMPDEST POP POP POP JUMP JUMPDEST PUSH0 DUP3 DUP3 SHR SWAP1 POP SWAP3 SWAP2 POP POP JUMP JUMPDEST PUSH0 PUSH2 0x9DA PUSH0 NOT DUP5 PUSH1 0x8 MUL PUSH2 0x9BF JUMP JUMPDEST NOT DUP1 DUP4 AND SWAP2 POP POP SWAP3 SWAP2 POP POP JUMP JUMPDEST PUSH0 PUSH2 0x9F2 DUP4 DUP4 PUSH2 0x9CB JUMP JUMPDEST SWAP2 POP DUP3 PUSH1 0x2 MUL DUP3 OR SWAP1 POP SWAP3 SWAP2 POP POP JUMP JUMPDEST PUSH2 0xA0C DUP4 DUP4 PUSH2 0x7BD JUMP JUMPDEST PUSH8 0xFFFFFFFFFFFFFFFF DUP2 GT ISZERO PUSH2 0xA25 JUMPI PUSH2 0xA24 PUSH2 0x7C7 JUMP JUMPDEST JUMPDEST PUSH2 0xA2F DUP3 SLOAD PUSH2 0x821 JUMP JUMPDEST PUSH2 0xA3A DUP3 DUP3 DUP6 PUSH2 0x96C JUMP JUMPDEST PUSH0 PUSH1 0x1F DUP4 GT PUSH1 0x1 DUP2 EQ PUSH2 0xA67 JUMPI PUSH0 DUP5 ISZERO PUSH2 0xA55 JUMPI DUP3 DUP8 ADD CALLDATALOAD SWAP1 POP JUMPDEST PUSH2 0xA5F DUP6 DUP3 PUSH2 0x9E7 JUMP JUMPDEST DUP7 SSTORE POP PUSH2 0xAC6 JUMP JUMPDEST PUSH1 0x1F NOT DUP5 AND PUSH2 0xA75 DUP7 PUSH2 0x851 JUMP JUMPDEST PUSH0 JUMPDEST DUP3 DUP2 LT ISZERO PUSH2 0xA9C JUMPI DUP5 DUP10 ADD CALLDATALOAD DUP3 SSTORE PUSH1 0x1 DUP3 ADD SWAP2 POP PUSH1 0x20 DUP6 ADD SWAP5 POP PUSH1 0x20 DUP2 ADD SWAP1 POP PUSH2 0xA77 JUMP JUMPDEST DUP7 DUP4 LT ISZERO PUSH2 0xAB9 JUMPI DUP5 DUP10 ADD CALLDATALOAD PUSH2 0xAB5 PUSH1 0x1F DUP10 AND DUP3 PUSH2 0x9CB JUMP JUMPDEST DUP4 SSTORE POP JUMPDEST PUSH1 0x1 PUSH1 0x2 DUP9 MUL ADD DUP9 SSTORE POP POP POP JUMPDEST POP POP POP POP POP POP POP JUMP JUMPDEST PUSH32 0x4172726179206D757374206E6F7420626520656D707479000000000000000000 PUSH0 DUP3 ADD MSTORE POP JUMP JUMPDEST PUSH0 PUSH2 0xB03 PUSH1 0x17 DUP4 PUSH2 0x4C7 JUMP JUMPDEST SWAP2 POP PUSH2 0xB0E DUP3 PUSH2 0xACF JUMP JUMPDEST PUSH1 0x20 DUP3 ADD SWAP1 POP SWAP2 SWAP1 POP JUMP JUMPDEST PUSH0 PUSH1 0x20 DUP3 ADD SWAP1 POP DUP2 DUP2 SUB PUSH0 DUP4 ADD MSTORE PUSH2 0xB30 DUP2 PUSH2 0xAF7 JUMP JUMPDEST SWAP1 POP SWAP2 SWAP1 POP JUMP JUMPDEST PUSH32 0x4D6178696D756D2031303020656C656D656E747320616C6C6F77656400000000 PUSH0 DUP3 ADD MSTORE POP JUMP JUMPDEST PUSH0 PUSH2 0xB6B PUSH1 0x1C DUP4 PUSH2 0x4C7 JUMP JUMPDEST SWAP2 POP PUSH2 0xB76 DUP3 PUSH2 0xB37 JUMP JUMPDEST PUSH1 0x20 DUP3 ADD SWAP1 POP SWAP2 SWAP1 POP JUMP JUMPDEST PUSH0 PUSH1 0x20 DUP3 ADD SWAP1 POP DUP2 DUP2 SUB PUSH0 DUP4 ADD MSTORE PUSH2 0xB98 DUP2 PUSH2 0xB5F JUMP JUMPDEST SWAP1 POP SWAP2 SWAP1 POP JUMP JUMPDEST PUSH32 0x4E487B7100000000000000000000000000000000000000000000000000000000 PUSH0 MSTORE PUSH1 0x32 PUSH1 0x4 MSTORE PUSH1 0x24 PUSH0 REVERT INVALID LOG2 PUSH5 0x6970667358 0x22 SLT KECCAK256 PUSH26 0x3623E961FA00796FF682642B174ADC17507B6794ABAF738C3E9C 0xC7 DUP15 0xCD 0xB8 PUSH1 0x64 PUSH20 0x6F6C634300082200330000000000000000000000 "
		},
		"gasEstimates": {
			"creation": {
				"codeDepositCost": "614800",
				"executionCost": "649",
				"totalCost": "615449"
			},
			"external": {
				"findLargestNumber(uint256[])": "infinite",
				"lastMessage()": "infinite",
				"lastNumber()": "2468",
				"readMultipleInputs(uint256,bool,address)": "infinite",
				"readString(string)": "infinite",
				"readUint(uint256)": "infinite",
				"saveInput(uint256,string)": "infinite"
			}
		},
		"methodIdentifiers": {
			"findLargestNumber(uint256[])": "9f9b9bdc",
			"lastMessage()": "32970710",
			"lastNumber()": "b3db9f1a",
			"readMultipleInputs(uint256,bool,address)": "85974f2f",
			"readString(string)": "42a91734",
			"readUint(uint256)": "cbfbca5e",
			"saveInput(uint256,string)": "17679e13"
		}
	},
	"abi": [
		{
			"inputs": [
				{
					"internalType": "uint256[]",
					"name": "_number",
					"type": "uint256[]"
				}
			],
			"name": "findLargestNumber",
			"outputs": [
				{
					"internalType": "uint256",
					"name": "",
					"type": "uint256"
				}
			],
			"stateMutability": "pure",
			"type": "function"
		},
		{
			"inputs": [],
			"name": "lastMessage",
			"outputs": [
				{
					"internalType": "string",
					"name": "",
					"type": "string"
				}
			],
			"stateMutability": "view",
			"type": "function"
		},
		{
			"inputs": [],
			"name": "lastNumber",
			"outputs": [
				{
					"internalType": "uint256",
					"name": "",
					"type": "uint256"
				}
			],
			"stateMutability": "view",
			"type": "function"
		},
		{
			"inputs": [
				{
					"internalType": "uint256",
					"name": "_age",
					"type": "uint256"
				},
				{
					"internalType": "bool",
					"name": "_active",
					"type": "bool"
				},
				{
					"internalType": "address",
					"name": "_user",
					"type": "address"
				}
			],
			"name": "readMultipleInputs",
			"outputs": [
				{
					"internalType": "uint256",
					"name": "",
					"type": "uint256"
				},
				{
					"internalType": "bool",
					"name": "",
					"type": "bool"
				},
				{
					"internalType": "address",
					"name": "",
					"type": "address"
				}
			],
			"stateMutability": "pure",
			"type": "function"
		},
		{
			"inputs": [
				{
					"internalType": "string",
					"name": "_message",
					"type": "string"
				}
			],
			"name": "readString",
			"outputs": [
				{
					"internalType": "string",
					"name": "",
					"type": "string"
				}
			],
			"stateMutability": "pure",
			"type": "function"
		},
		{
			"inputs": [
				{
					"internalType": "uint256",
					"name": "_number",
					"type": "uint256"
				}
			],
			"name": "readUint",
			"outputs": [
				{
					"internalType": "uint256",
					"name": "",
					"type": "uint256"
				}
			],
			"stateMutability": "pure",
			"type": "function"
		},
		{
			"inputs": [
				{
					"internalType": "uint256",
					"name": "_number",
					"type": "uint256"
				},
				{
					"internalType": "string",
					"name": "_message",
					"type": "string"
				}
			],
			"name": "saveInput",
			"outputs": [],
			"stateMutability": "nonpayable",
			"type": "function"
		}
	]
}