{
	"data": {
		"bytecode": {
			"linkReferences": {},
			"object": "6080604052348015600e575f5ffd5b5061082a8061001c5f395ff3fe608060405234801561000f575f5ffd5b5060043610610086575f3560e01c806397feba9d1161005957806397feba9d146100fc578063b0fd035b1461011a578063b6b55f2514610136578063d9d897d51461015257610086565b806340f1dc421461008a5780634c738909146100a65780636887a199146100c45780638ab389e6146100e0575b5f5ffd5b6100a4600480360381019061009f9190610611565b610182565b005b6100ae610265565b6040516100bb919061064b565b60405180910390f35b6100de60048036038101906100d99190610611565b6102a9565b005b6100fa60048036038101906100f59190610611565b610351565b005b610104610434565b604051610111919061064b565b60405180910390f35b610134600480360381019061012f9190610611565b610439565b005b610150600480360381019061014b9190610611565b610558565b005b61016c600480360381019061016791906106be565b6105c5565b604051610179919061064b565b60405180910390f35b600a8111156101c6576040517f08c379a00000000000000000000000000000000000000000000000000000000081526004016101bd90610743565b60405180910390fd5b805f546101d3919061078e565b5f819055508060015f3373ffffffffffffffffffffffffffffffffffffffff1673ffffffffffffffffffffffffffffffffffffffff1681526020019081526020015f2054610221919061078e565b60015f3373ffffffffffffffffffffffffffffffffffffffff1673ffffffffffffffffffffffffffffffffffffffff1681526020019081526020015f208190555050565b5f60015f3373ffffffffffffffffffffffffffffffffffffffff1673ffffffffffffffffffffffffffffffffffffffff1681526020019081526020015f2054905090565b8060015f3373ffffffffffffffffffffffffffffffffffffffff1673ffffffffffffffffffffffffffffffffffffffff1681526020019081526020015f205f8282546102f591906107c1565b92505081905550805f5f82825461030c91906107c1565b92505081905550600a81111561034e576040517f2ad907fb00000000000000000000000000000000000000000000000000000000815260040160405180910390fd5b50565b805f5461035e919061078e565b5f819055508060015f3373ffffffffffffffffffffffffffffffffffffffff1673ffffffffffffffffffffffffffffffffffffffff1681526020019081526020015f20546103ac919061078e565b60015f3373ffffffffffffffffffffffffffffffffffffffff1673ffffffffffffffffffffffffffffffffffffffff1681526020019081526020015f2081905550600a811115610431576040517f08c379a000000000000000000000000000000000000000000000000000000000815260040161042890610743565b60405180910390fd5b50565b5f5481565b600a811115610474576040517f2ad907fb00000000000000000000000000000000000000000000000000000000815260040160405180910390fd5b8060015f3373ffffffffffffffffffffffffffffffffffffffff1673ffffffffffffffffffffffffffffffffffffffff1681526020019081526020015f205410156104eb576040517ff4d678b800000000000000000000000000000000000000000000000000000000815260040160405180910390fd5b8060015f3373ffffffffffffffffffffffffffffffffffffffff1673ffffffffffffffffffffffffffffffffffffffff1681526020019081526020015f205f82825461053791906107c1565b92505081905550805f5f82825461054e91906107c1565b9250508190555050565b805f5f828254610568919061078e565b925050819055508060015f3373ffffffffffffffffffffffffffffffffffffffff1673ffffffffffffffffffffffffffffffffffffffff1681526020019081526020015f205f8282546105bb919061078e565b9250508190555050565b6001602052805f5260405f205f915090505481565b5f5ffd5b5f819050919050565b6105f0816105de565b81146105fa575f5ffd5b50565b5f8135905061060b816105e7565b92915050565b5f60208284031215610626576106256105da565b5b5f610633848285016105fd565b91505092915050565b610645816105de565b82525050565b5f60208201905061065e5f83018461063c565b92915050565b5f73ffffffffffffffffffffffffffffffffffffffff82169050919050565b5f61068d82610664565b9050919050565b61069d81610683565b81146106a7575f5ffd5b50565b5f813590506106b881610694565b92915050565b5f602082840312156106d3576106d26105da565b5b5f6106e0848285016106aa565b91505092915050565b5f82825260208201905092915050565b7f56616c756520746f6f206c6172676500000000000000000000000000000000005f82015250565b5f61072d600f836106e9565b9150610738826106f9565b602082019050919050565b5f6020820190508181035f83015261075a81610721565b9050919050565b7f4e487b71000000000000000000000000000000000000000000000000000000005f52601160045260245ffd5b5f610798826105de565b91506107a3836105de565b92508282019050808211156107bb576107ba610761565b5b92915050565b5f6107cb826105de565b91506107d6836105de565b92508282039050818111156107ee576107ed610761565b5b9291505056fea264697066735822122081395c09af8ec708883a110e045294c26e2deda2707bbf6605f0e20d0cf772b264736f6c63430008220033",
			"opcodes": "PUSH1 0x80 PUSH1 0x40 MSTORE CALLVALUE DUP1 ISZERO PUSH1 0xE JUMPI PUSH0 PUSH0 REVERT JUMPDEST POP PUSH2 0x82A DUP1 PUSH2 0x1C PUSH0 CODECOPY PUSH0 RETURN INVALID PUSH1 0x80 PUSH1 0x40 MSTORE CALLVALUE DUP1 ISZERO PUSH2 0xF JUMPI PUSH0 PUSH0 REVERT JUMPDEST POP PUSH1 0x4 CALLDATASIZE LT PUSH2 0x86 JUMPI PUSH0 CALLDATALOAD PUSH1 0xE0 SHR DUP1 PUSH4 0x97FEBA9D GT PUSH2 0x59 JUMPI DUP1 PUSH4 0x97FEBA9D EQ PUSH2 0xFC JUMPI DUP1 PUSH4 0xB0FD035B EQ PUSH2 0x11A JUMPI DUP1 PUSH4 0xB6B55F25 EQ PUSH2 0x136 JUMPI DUP1 PUSH4 0xD9D897D5 EQ PUSH2 0x152 JUMPI PUSH2 0x86 JUMP JUMPDEST DUP1 PUSH4 0x40F1DC42 EQ PUSH2 0x8A JUMPI DUP1 PUSH4 0x4C738909 EQ PUSH2 0xA6 JUMPI DUP1 PUSH4 0x6887A199 EQ PUSH2 0xC4 JUMPI DUP1 PUSH4 0x8AB389E6 EQ PUSH2 0xE0 JUMPI JUMPDEST PUSH0 PUSH0 REVERT JUMPDEST PUSH2 0xA4 PUSH1 0x4 DUP1 CALLDATASIZE SUB DUP2 ADD SWAP1 PUSH2 0x9F SWAP2 SWAP1 PUSH2 0x611 JUMP JUMPDEST PUSH2 0x182 JUMP JUMPDEST STOP JUMPDEST PUSH2 0xAE PUSH2 0x265 JUMP JUMPDEST PUSH1 0x40 MLOAD PUSH2 0xBB SWAP2 SWAP1 PUSH2 0x64B JUMP JUMPDEST PUSH1 0x40 MLOAD DUP1 SWAP2 SUB SWAP1 RETURN JUMPDEST PUSH2 0xDE PUSH1 0x4 DUP1 CALLDATASIZE SUB DUP2 ADD SWAP1 PUSH2 0xD9 SWAP2 SWAP1 PUSH2 0x611 JUMP JUMPDEST PUSH2 0x2A9 JUMP JUMPDEST STOP JUMPDEST PUSH2 0xFA PUSH1 0x4 DUP1 CALLDATASIZE SUB DUP2 ADD SWAP1 PUSH2 0xF5 SWAP2 SWAP1 PUSH2 0x611 JUMP JUMPDEST PUSH2 0x351 JUMP JUMPDEST STOP JUMPDEST PUSH2 0x104 PUSH2 0x434 JUMP JUMPDEST PUSH1 0x40 MLOAD PUSH2 0x111 SWAP2 SWAP1 PUSH2 0x64B JUMP JUMPDEST PUSH1 0x40 MLOAD DUP1 SWAP2 SUB SWAP1 RETURN JUMPDEST PUSH2 0x134 PUSH1 0x4 DUP1 CALLDATASIZE SUB DUP2 ADD SWAP1 PUSH2 0x12F SWAP2 SWAP1 PUSH2 0x611 JUMP JUMPDEST PUSH2 0x439 JUMP JUMPDEST STOP JUMPDEST PUSH2 0x150 PUSH1 0x4 DUP1 CALLDATASIZE SUB DUP2 ADD SWAP1 PUSH2 0x14B SWAP2 SWAP1 PUSH2 0x611 JUMP JUMPDEST PUSH2 0x558 JUMP JUMPDEST STOP JUMPDEST PUSH2 0x16C PUSH1 0x4 DUP1 CALLDATASIZE SUB DUP2 ADD SWAP1 PUSH2 0x167 SWAP2 SWAP1 PUSH2 0x6BE JUMP JUMPDEST PUSH2 0x5C5 JUMP JUMPDEST PUSH1 0x40 MLOAD PUSH2 0x179 SWAP2 SWAP1 PUSH2 0x64B JUMP JUMPDEST PUSH1 0x40 MLOAD DUP1 SWAP2 SUB SWAP1 RETURN JUMPDEST PUSH1 0xA DUP2 GT ISZERO PUSH2 0x1C6 JUMPI PUSH1 0x40 MLOAD PUSH32 0x8C379A000000000000000000000000000000000000000000000000000000000 DUP2 MSTORE PUSH1 0x4 ADD PUSH2 0x1BD SWAP1 PUSH2 0x743 JUMP JUMPDEST PUSH1 0x40 MLOAD DUP1 SWAP2 SUB SWAP1 REVERT JUMPDEST DUP1 PUSH0 SLOAD PUSH2 0x1D3 SWAP2 SWAP1 PUSH2 0x78E JUMP JUMPDEST PUSH0 DUP2 SWAP1 SSTORE POP DUP1 PUSH1 0x1 PUSH0 CALLER PUSH20 0xFFFFFFFFFFFFFFFFFFFFFFFFFFFFFFFFFFFFFFFF AND PUSH20 0xFFFFFFFFFFFFFFFFFFFFFFFFFFFFFFFFFFFFFFFF AND DUP2 MSTORE PUSH1 0x20 ADD SWAP1 DUP2 MSTORE PUSH1 0x20 ADD PUSH0 KECCAK256 SLOAD PUSH2 0x221 SWAP2 SWAP1 PUSH2 0x78E JUMP JUMPDEST PUSH1 0x1 PUSH0 CALLER PUSH20 0xFFFFFFFFFFFFFFFFFFFFFFFFFFFFFFFFFFFFFFFF AND PUSH20 0xFFFFFFFFFFFFFFFFFFFFFFFFFFFFFFFFFFFFFFFF AND DUP2 MSTORE PUSH1 0x20 ADD SWAP1 DUP2 MSTORE PUSH1 0x20 ADD PUSH0 KECCAK256 DUP2 SWAP1 SSTORE POP POP JUMP JUMPDEST PUSH0 PUSH1 0x1 PUSH0 CALLER PUSH20 0xFFFFFFFFFFFFFFFFFFFFFFFFFFFFFFFFFFFFFFFF AND PUSH20 0xFFFFFFFFFFFFFFFFFFFFFFFFFFFFFFFFFFFFFFFF AND DUP2 MSTORE PUSH1 0x20 ADD SWAP1 DUP2 MSTORE PUSH1 0x20 ADD PUSH0 KECCAK256 SLOAD SWAP1 POP SWAP1 JUMP JUMPDEST DUP1 PUSH1 0x1 PUSH0 CALLER PUSH20 0xFFFFFFFFFFFFFFFFFFFFFFFFFFFFFFFFFFFFFFFF AND PUSH20 0xFFFFFFFFFFFFFFFFFFFFFFFFFFFFFFFFFFFFFFFF AND DUP2 MSTORE PUSH1 0x20 ADD SWAP1 DUP2 MSTORE PUSH1 0x20 ADD PUSH0 KECCAK256 PUSH0 DUP3 DUP3 SLOAD PUSH2 0x2F5 SWAP2 SWAP1 PUSH2 0x7C1 JUMP JUMPDEST SWAP3 POP POP DUP2 SWAP1 SSTORE POP DUP1 PUSH0 PUSH0 DUP3 DUP3 SLOAD PUSH2 0x30C SWAP2 SWAP1 PUSH2 0x7C1 JUMP JUMPDEST SWAP3 POP POP DUP2 SWAP1 SSTORE POP PUSH1 0xA DUP2 GT ISZERO PUSH2 0x34E JUMPI PUSH1 0x40 MLOAD PUSH32 0x2AD907FB00000000000000000000000000000000000000000000000000000000 DUP2 MSTORE PUSH1 0x4 ADD PUSH1 0x40 MLOAD DUP1 SWAP2 SUB SWAP1 REVERT JUMPDEST POP JUMP JUMPDEST DUP1 PUSH0 SLOAD PUSH2 0x35E SWAP2 SWAP1 PUSH2 0x78E JUMP JUMPDEST PUSH0 DUP2 SWAP1 SSTORE POP DUP1 PUSH1 0x1 PUSH0 CALLER PUSH20 0xFFFFFFFFFFFFFFFFFFFFFFFFFFFFFFFFFFFFFFFF AND PUSH20 0xFFFFFFFFFFFFFFFFFFFFFFFFFFFFFFFFFFFFFFFF AND DUP2 MSTORE PUSH1 0x20 ADD SWAP1 DUP2 MSTORE PUSH1 0x20 ADD PUSH0 KECCAK256 SLOAD PUSH2 0x3AC SWAP2 SWAP1 PUSH2 0x78E JUMP JUMPDEST PUSH1 0x1 PUSH0 CALLER PUSH20 0xFFFFFFFFFFFFFFFFFFFFFFFFFFFFFFFFFFFFFFFF AND PUSH20 0xFFFFFFFFFFFFFFFFFFFFFFFFFFFFFFFFFFFFFFFF AND DUP2 MSTORE PUSH1 0x20 ADD SWAP1 DUP2 MSTORE PUSH1 0x20 ADD PUSH0 KECCAK256 DUP2 SWAP1 SSTORE POP PUSH1 0xA DUP2 GT ISZERO PUSH2 0x431 JUMPI PUSH1 0x40 MLOAD PUSH32 0x8C379A000000000000000000000000000000000000000000000000000000000 DUP2 MSTORE PUSH1 0x4 ADD PUSH2 0x428 SWAP1 PUSH2 0x743 JUMP JUMPDEST PUSH1 0x40 MLOAD DUP1 SWAP2 SUB SWAP1 REVERT JUMPDEST POP JUMP JUMPDEST PUSH0 SLOAD DUP2 JUMP JUMPDEST PUSH1 0xA DUP2 GT ISZERO PUSH2 0x474 JUMPI PUSH1 0x40 MLOAD PUSH32 0x2AD907FB00000000000000000000000000000000000000000000000000000000 DUP2 MSTORE PUSH1 0x4 ADD PUSH1 0x40 MLOAD DUP1 SWAP2 SUB SWAP1 REVERT JUMPDEST DUP1 PUSH1 0x1 PUSH0 CALLER PUSH20 0xFFFFFFFFFFFFFFFFFFFFFFFFFFFFFFFFFFFFFFFF AND PUSH20 0xFFFFFFFFFFFFFFFFFFFFFFFFFFFFFFFFFFFFFFFF AND DUP2 MSTORE PUSH1 0x20 ADD SWAP1 DUP2 MSTORE PUSH1 0x20 ADD PUSH0 KECCAK256 SLOAD LT ISZERO PUSH2 0x4EB JUMPI PUSH1 0x40 MLOAD PUSH32 0xF4D678B800000000000000000000000000000000000000000000000000000000 DUP2 MSTORE PUSH1 0x4 ADD PUSH1 0x40 MLOAD DUP1 SWAP2 SUB SWAP1 REVERT JUMPDEST DUP1 PUSH1 0x1 PUSH0 CALLER PUSH20 0xFFFFFFFFFFFFFFFFFFFFFFFFFFFFFFFFFFFFFFFF AND PUSH20 0xFFFFFFFFFFFFFFFFFFFFFFFFFFFFFFFFFFFFFFFF AND DUP2 MSTORE PUSH1 0x20 ADD SWAP1 DUP2 MSTORE PUSH1 0x20 ADD PUSH0 KECCAK256 PUSH0 DUP3 DUP3 SLOAD PUSH2 0x537 SWAP2 SWAP1 PUSH2 0x7C1 JUMP JUMPDEST SWAP3 POP POP DUP2 SWAP1 SSTORE POP DUP1 PUSH0 PUSH0 DUP3 DUP3 SLOAD PUSH2 0x54E SWAP2 SWAP1 PUSH2 0x7C1 JUMP JUMPDEST SWAP3 POP POP DUP2 SWAP1 SSTORE POP POP JUMP JUMPDEST DUP1 PUSH0 PUSH0 DUP3 DUP3 SLOAD PUSH2 0x568 SWAP2 SWAP1 PUSH2 0x78E JUMP JUMPDEST SWAP3 POP POP DUP2 SWAP1 SSTORE POP DUP1 PUSH1 0x1 PUSH0 CALLER PUSH20 0xFFFFFFFFFFFFFFFFFFFFFFFFFFFFFFFFFFFFFFFF AND PUSH20 0xFFFFFFFFFFFFFFFFFFFFFFFFFFFFFFFFFFFFFFFF AND DUP2 MSTORE PUSH1 0x20 ADD SWAP1 DUP2 MSTORE PUSH1 0x20 ADD PUSH0 KECCAK256 PUSH0 DUP3 DUP3 SLOAD PUSH2 0x5BB SWAP2 SWAP1 PUSH2 0x78E JUMP JUMPDEST SWAP3 POP POP DUP2 SWAP1 SSTORE POP POP JUMP JUMPDEST PUSH1 0x1 PUSH1 0x20 MSTORE DUP1 PUSH0 MSTORE PUSH1 0x40 PUSH0 KECCAK256 PUSH0 SWAP2 POP SWAP1 POP SLOAD DUP2 JUMP JUMPDEST PUSH0 PUSH0 REVERT JUMPDEST PUSH0 DUP2 SWAP1 POP SWAP2 SWAP1 POP JUMP JUMPDEST PUSH2 0x5F0 DUP2 PUSH2 0x5DE JUMP JUMPDEST DUP2 EQ PUSH2 0x5FA JUMPI PUSH0 PUSH0 REVERT JUMPDEST POP JUMP JUMPDEST PUSH0 DUP2 CALLDATALOAD SWAP1 POP PUSH2 0x60B DUP2 PUSH2 0x5E7 JUMP JUMPDEST SWAP3 SWAP2 POP POP JUMP JUMPDEST PUSH0 PUSH1 0x20 DUP3 DUP5 SUB SLT ISZERO PUSH2 0x626 JUMPI PUSH2 0x625 PUSH2 0x5DA JUMP JUMPDEST JUMPDEST PUSH0 PUSH2 0x633 DUP5 DUP3 DUP6 ADD PUSH2 0x5FD JUMP JUMPDEST SWAP2 POP POP SWAP3 SWAP2 POP POP JUMP JUMPDEST PUSH2 0x645 DUP2 PUSH2 0x5DE JUMP JUMPDEST DUP3 MSTORE POP POP JUMP JUMPDEST PUSH0 PUSH1 0x20 DUP3 ADD SWAP1 POP PUSH2 0x65E PUSH0 DUP4 ADD DUP5 PUSH2 0x63C JUMP JUMPDEST SWAP3 SWAP2 POP POP JUMP JUMPDEST PUSH0 PUSH20 0xFFFFFFFFFFFFFFFFFFFFFFFFFFFFFFFFFFFFFFFF DUP3 AND SWAP1 POP SWAP2 SWAP1 POP JUMP JUMPDEST PUSH0 PUSH2 0x68D DUP3 PUSH2 0x664 JUMP JUMPDEST SWAP1 POP SWAP2 SWAP1 POP JUMP JUMPDEST PUSH2 0x69D DUP2 PUSH2 0x683 JUMP JUMPDEST DUP2 EQ PUSH2 0x6A7 JUMPI PUSH0 PUSH0 REVERT JUMPDEST POP JUMP JUMPDEST PUSH0 DUP2 CALLDATALOAD SWAP1 POP PUSH2 0x6B8 DUP2 PUSH2 0x694 JUMP JUMPDEST SWAP3 SWAP2 POP POP JUMP JUMPDEST PUSH0 PUSH1 0x20 DUP3 DUP5 SUB SLT ISZERO PUSH2 0x6D3 JUMPI PUSH2 0x6D2 PUSH2 0x5DA JUMP JUMPDEST JUMPDEST PUSH0 PUSH2 0x6E0 DUP5 DUP3 DUP6 ADD PUSH2 0x6AA JUMP JUMPDEST SWAP2 POP POP SWAP3 SWAP2 POP POP JUMP JUMPDEST PUSH0 DUP3 DUP3 MSTORE PUSH1 0x20 DUP3 ADD SWAP1 POP SWAP3 SWAP2 POP POP JUMP JUMPDEST PUSH32 0x56616C756520746F6F206C617267650000000000000000000000000000000000 PUSH0 DUP3 ADD MSTORE POP JUMP JUMPDEST PUSH0 PUSH2 0x72D PUSH1 0xF DUP4 PUSH2 0x6E9 JUMP JUMPDEST SWAP2 POP PUSH2 0x738 DUP3 PUSH2 0x6F9 JUMP JUMPDEST PUSH1 0x20 DUP3 ADD SWAP1 POP SWAP2 SWAP1 POP JUMP JUMPDEST PUSH0 PUSH1 0x20 DUP3 ADD SWAP1 POP DUP2 DUP2 SUB PUSH0 DUP4 ADD MSTORE PUSH2 0x75A DUP2 PUSH2 0x721 JUMP JUMPDEST SWAP1 POP SWAP2 SWAP1 POP JUMP JUMPDEST PUSH32 0x4E487B7100000000000000000000000000000000000000000000000000000000 PUSH0 MSTORE PUSH1 0x11 PUSH1 0x4 MSTORE PUSH1 0x24 PUSH0 REVERT JUMPDEST PUSH0 PUSH2 0x798 DUP3 PUSH2 0x5DE JUMP JUMPDEST SWAP2 POP PUSH2 0x7A3 DUP4 PUSH2 0x5DE JUMP JUMPDEST SWAP3 POP DUP3 DUP3 ADD SWAP1 POP DUP1 DUP3 GT ISZERO PUSH2 0x7BB JUMPI PUSH2 0x7BA PUSH2 0x761 JUMP JUMPDEST JUMPDEST SWAP3 SWAP2 POP POP JUMP JUMPDEST PUSH0 PUSH2 0x7CB DUP3 PUSH2 0x5DE JUMP JUMPDEST SWAP2 POP PUSH2 0x7D6 DUP4 PUSH2 0x5DE JUMP JUMPDEST SWAP3 POP DUP3 DUP3 SUB SWAP1 POP DUP2 DUP2 GT ISZERO PUSH2 0x7EE JUMPI PUSH2 0x7ED PUSH2 0x761 JUMP JUMPDEST JUMPDEST SWAP3 SWAP2 POP POP JUMP INVALID LOG2 PUSH5 0x6970667358 0x22 SLT KECCAK256 DUP2 CODECOPY TLOAD MULMOD 0xAF DUP15 0xC7 ADDMOD DUP9 GASPRICE GT 0xE DIV MSTORE SWAP5 0xC2 PUSH15 0x2DEDA2707BBF6605F0E20D0CF772B2 PUSH5 0x736F6C6343 STOP ADDMOD 0x22 STOP CALLER "
		},
		"gasEstimates": {
			"creation": {
				"codeDepositCost": "418000",
				"executionCost": "453",
				"totalCost": "418453"
			},
			"external": {
				"deposit(uint256)": "infinite",
				"getMyBalance()": "2542",
				"riskyIncrement(uint256)": "infinite",
				"riskyWithdraw(uint256)": "infinite",
				"safeIncrement(uint256)": "infinite",
				"safeWithdraw(uint256)": "infinite",
				"totalCounter()": "2424",
				"userCounter(address)": "2868"
			}
		},
		"methodIdentifiers": {
			"deposit(uint256)": "b6b55f25",
			"getMyBalance()": "4c738909",
			"riskyIncrement(uint256)": "8ab389e6",
			"riskyWithdraw(uint256)": "6887a199",
			"safeIncrement(uint256)": "40f1dc42",
			"safeWithdraw(uint256)": "b0fd035b",
			"totalCounter()": "97feba9d",
			"userCounter(address)": "d9d897d5"
		}
	},
	"abi": [
		{
			"inputs": [],
			"name": "InsufficientBalance",
			"type": "error"
		},
		{
			"inputs": [],
			"name": "ValueTooLarge",
			"type": "error"
		},
		{
			"inputs": [
				{
					"internalType": "uint256",
					"name": "_amount",
					"type": "uint256"
				}
			],
			"name": "deposit",
			"outputs": [],
			"stateMutability": "nonpayable",
			"type": "function"
		},
		{
			"inputs": [],
			"name": "getMyBalance",
			"outputs": [
				{
					"internalType": "uint256",
					"name": "",
					"type": "uint256"
				}
			],
			"stateMutability": "view",
			"type": "function"
		},
		{
			"inputs": [
				{
					"internalType": "uint256",
					"name": "_value",
					"type": "uint256"
				}
			],
			"name": "riskyIncrement",
			"outputs": [],
			"stateMutability": "nonpayable",
			"type": "function"
		},
		{
			"inputs": [
				{
					"internalType": "uint256",
					"name": "_amount",
					"type": "uint256"
				}
			],
			"name": "riskyWithdraw",
			"outputs": [],
			"stateMutability": "nonpayable",
			"type": "function"
		},
		{
			"inputs": [
				{
					"internalType": "uint256",
					"name": "_value",
					"type": "uint256"
				}
			],
			"name": "safeIncrement",
			"outputs": [],
			"stateMutability": "nonpayable",
			"type": "function"
		},
		{
			"inputs": [
				{
					"internalType": "uint256",
					"name": "_amount",
					"type": "uint256"
				}
			],
			"name": "safeWithdraw",
			"outputs": [],
			"stateMutability": "nonpayable",
			"type": "function"
		},
		{
			"inputs": [],
			"name": "totalCounter",
			"outputs": [
				{
					"internalType": "uint256",
					"name": "",
					"type": "uint256"
				}
			],
			"stateMutability": "view",
			"type": "function"
		},
		{
			"inputs": [
				{
					"internalType": "address",
					"name": "",
					"type": "address"
				}
			],
			"name": "userCounter",
			"outputs": [
				{
					"internalType": "uint256",
					"name": "",
					"type": "uint256"
				}
			],
			"stateMutability": "view",
			"type": "function"
		}
	]
}