{
	"data": {
		"bytecode": {
			"linkReferences": {},
			"object": "6080604052348015600e575f5ffd5b506108078061001c5f395ff3fe608060405234801561000f575f5ffd5b50600436106100a7575f3560e01c80638f32aa781161006f5780638f32aa7814610140578063a7a38f0b1461015f578063b1e964fe1461018f578063d826f88f146101ad578063de5021e0146101b7578063e93116b6146101d3576100a7565b80631865c57d146100ab5780632326305f146100ca5780633af3f24f146100e657806361bc221a146101045780636561fd9214610122575b5f5ffd5b6100b36101ef565b6040516100c19291906104b9565b60405180910390f35b6100e460048036038101906100df919061050e565b6101fe565b005b6100ee6102b9565b6040516100fb9190610539565b60405180910390f35b61010c6102bf565b6040516101199190610539565b60405180910390f35b61012a6102c4565b6040516101379190610539565b60405180910390f35b6101486102ca565b6040516101569291906104b9565b60405180910390f35b6101796004803603810190610174919061050e565b6102da565b6040516101869190610539565b60405180910390f35b6101976102fa565b6040516101a49190610539565b60405180910390f35b6101b5610300565b005b6101d160048036038101906101cc919061050e565b61031d565b005b6101ed60048036038101906101e8919061050e565b610389565b005b5f5f5f54600154915091509091565b6064811115610242576040517f08c379a0000000000000000000000000000000000000000000000000000000008152600401610239906105ac565b60405180910390fd5b5f5a90505f5f90505b828110156102695761025c8161031d565b808060010191505061024b565b505a8161027691906105f7565b6003819055507f4d605d112b717b70b80f393cc6a0239ae0459508e54af125ee28f92acbf7fc496003546040516102ad9190610674565b60405180910390a15050565b60015481565b5f5481565b60035481565b5f5f600354600454915091509091565b600281815481106102e9575f80fd5b905f5260205f20015f915090505481565b60045481565b5f5f819055505f6001819055505f6003819055505f600481905550565b5f5f81548092919061032e906106a0565b919050555060015f815480929190610345906106a0565b91905055507f72be742069ace8f31a078a0dea8b664a09950cb324664824ad95d9dd7e14c99133825f5460405161037e93929190610726565b60405180910390a150565b60648111156103cd576040517f08c379a00000000000000000000000000000000000000000000000000000000081526004016103c4906105ac565b60405180910390fd5b5f5a90505f5f90505b82811015610451573073ffffffffffffffffffffffffffffffffffffffff1663de5021e0826040518263ffffffff1660e01b81526004016104179190610539565b5f604051808303815f87803b15801561042e575f5ffd5b505af1158015610440573d5f5f3e3d5ffd5b5050505080806001019150506103d6565b505a8161045e91906105f7565b6004819055507f4d605d112b717b70b80f393cc6a0239ae0459508e54af125ee28f92acbf7fc4960045460405161049591906107a5565b60405180910390a15050565b5f819050919050565b6104b3816104a1565b82525050565b5f6040820190506104cc5f8301856104aa565b6104d960208301846104aa565b9392505050565b5f5ffd5b6104ed816104a1565b81146104f7575f5ffd5b50565b5f81359050610508816104e4565b92915050565b5f60208284031215610523576105226104e0565b5b5f610530848285016104fa565b91505092915050565b5f60208201905061054c5f8301846104aa565b92915050565b5f82825260208201905092915050565b7f4d6178203130302063616c6c73000000000000000000000000000000000000005f82015250565b5f610596600d83610552565b91506105a182610562565b602082019050919050565b5f6020820190508181035f8301526105c38161058a565b9050919050565b7f4e487b71000000000000000000000000000000000000000000000000000000005f52601160045260245ffd5b5f610601826104a1565b915061060c836104a1565b9250828203905081811115610624576106236105ca565b5b92915050565b7f496e7465726e616c2043616c6c730000000000000000000000000000000000005f82015250565b5f61065e600e83610552565b91506106698261062a565b602082019050919050565b5f6040820190508181035f83015261068b81610652565b905061069a60208301846104aa565b92915050565b5f6106aa826104a1565b91507fffffffffffffffffffffffffffffffffffffffffffffffffffffffffffffffff82036106dc576106db6105ca565b5b600182019050919050565b5f73ffffffffffffffffffffffffffffffffffffffff82169050919050565b5f610710826106e7565b9050919050565b61072081610706565b82525050565b5f6060820190506107395f830186610717565b61074660208301856104aa565b61075360408301846104aa565b949350505050565b7f45787465726e616c2043616c6c730000000000000000000000000000000000005f82015250565b5f61078f600e83610552565b915061079a8261075b565b602082019050919050565b5f6040820190508181035f8301526107bc81610783565b90506107cb60208301846104aa565b9291505056fea264697066735822122063c5ad613b4feec4cfcd625d187e5c2a7803423d39e74997c9a4d0b270e619ea64736f6c63430008220033",
			"opcodes": "PUSH1 0x80 PUSH1 0x40 MSTORE CALLVALUE DUP1 ISZERO PUSH1 0xE JUMPI PUSH0 PUSH0 REVERT JUMPDEST POP PUSH2 0x807 DUP1 PUSH2 0x1C PUSH0 CODECOPY PUSH0 RETURN INVALID PUSH1 0x80 PUSH1 0x40 MSTORE CALLVALUE DUP1 ISZERO PUSH2 0xF JUMPI PUSH0 PUSH0 REVERT JUMPDEST POP PUSH1 0x4 CALLDATASIZE LT PUSH2 0xA7 JUMPI PUSH0 CALLDATALOAD PUSH1 0xE0 SHR DUP1 PUSH4 0x8F32AA78 GT PUSH2 0x6F JUMPI DUP1 PUSH4 0x8F32AA78 EQ PUSH2 0x140 JUMPI DUP1 PUSH4 0xA7A38F0B EQ PUSH2 0x15F JUMPI DUP1 PUSH4 0xB1E964FE EQ PUSH2 0x18F JUMPI DUP1 PUSH4 0xD826F88F EQ PUSH2 0x1AD JUMPI DUP1 PUSH4 0xDE5021E0 EQ PUSH2 0x1B7 JUMPI DUP1 PUSH4 0xE93116B6 EQ PUSH2 0x1D3 JUMPI PUSH2 0xA7 JUMP JUMPDEST DUP1 PUSH4 0x1865C57D EQ PUSH2 0xAB JUMPI DUP1 PUSH4 0x2326305F EQ PUSH2 0xCA JUMPI DUP1 PUSH4 0x3AF3F24F EQ PUSH2 0xE6 JUMPI DUP1 PUSH4 0x61BC221A EQ PUSH2 0x104 JUMPI DUP1 PUSH4 0x6561FD92 EQ PUSH2 0x122 JUMPI JUMPDEST PUSH0 PUSH0 REVERT JUMPDEST PUSH2 0xB3 PUSH2 0x1EF JUMP JUMPDEST PUSH1 0x40 MLOAD PUSH2 0xC1 SWAP3 SWAP2 SWAP1 PUSH2 0x4B9 JUMP JUMPDEST PUSH1 0x40 MLOAD DUP1 SWAP2 SUB SWAP1 RETURN JUMPDEST PUSH2 0xE4 PUSH1 0x4 DUP1 CALLDATASIZE SUB DUP2 ADD SWAP1 PUSH2 0xDF SWAP2 SWAP1 PUSH2 0x50E JUMP JUMPDEST PUSH2 0x1FE JUMP JUMPDEST STOP JUMPDEST PUSH2 0xEE PUSH2 0x2B9 JUMP JUMPDEST PUSH1 0x40 MLOAD PUSH2 0xFB SWAP2 SWAP1 PUSH2 0x539 JUMP JUMPDEST PUSH1 0x40 MLOAD DUP1 SWAP2 SUB SWAP1 RETURN JUMPDEST PUSH2 0x10C PUSH2 0x2BF JUMP JUMPDEST PUSH1 0x40 MLOAD PUSH2 0x119 SWAP2 SWAP1 PUSH2 0x539 JUMP JUMPDEST PUSH1 0x40 MLOAD DUP1 SWAP2 SUB SWAP1 RETURN JUMPDEST PUSH2 0x12A PUSH2 0x2C4 JUMP JUMPDEST PUSH1 0x40 MLOAD PUSH2 0x137 SWAP2 SWAP1 PUSH2 0x539 JUMP JUMPDEST PUSH1 0x40 MLOAD DUP1 SWAP2 SUB SWAP1 RETURN JUMPDEST PUSH2 0x148 PUSH2 0x2CA JUMP JUMPDEST PUSH1 0x40 MLOAD PUSH2 0x156 SWAP3 SWAP2 SWAP1 PUSH2 0x4B9 JUMP JUMPDEST PUSH1 0x40 MLOAD DUP1 SWAP2 SUB SWAP1 RETURN JUMPDEST PUSH2 0x179 PUSH1 0x4 DUP1 CALLDATASIZE SUB DUP2 ADD SWAP1 PUSH2 0x174 SWAP2 SWAP1 PUSH2 0x50E JUMP JUMPDEST PUSH2 0x2DA JUMP JUMPDEST PUSH1 0x40 MLOAD PUSH2 0x186 SWAP2 SWAP1 PUSH2 0x539 JUMP JUMPDEST PUSH1 0x40 MLOAD DUP1 SWAP2 SUB SWAP1 RETURN JUMPDEST PUSH2 0x197 PUSH2 0x2FA JUMP JUMPDEST PUSH1 0x40 MLOAD PUSH2 0x1A4 SWAP2 SWAP1 PUSH2 0x539 JUMP JUMPDEST PUSH1 0x40 MLOAD DUP1 SWAP2 SUB SWAP1 RETURN JUMPDEST PUSH2 0x1B5 PUSH2 0x300 JUMP JUMPDEST STOP JUMPDEST PUSH2 0x1D1 PUSH1 0x4 DUP1 CALLDATASIZE SUB DUP2 ADD SWAP1 PUSH2 0x1CC SWAP2 SWAP1 PUSH2 0x50E JUMP JUMPDEST PUSH2 0x31D JUMP JUMPDEST STOP JUMPDEST PUSH2 0x1ED PUSH1 0x4 DUP1 CALLDATASIZE SUB DUP2 ADD SWAP1 PUSH2 0x1E8 SWAP2 SWAP1 PUSH2 0x50E JUMP JUMPDEST PUSH2 0x389 JUMP JUMPDEST STOP JUMPDEST PUSH0 PUSH0 PUSH0 SLOAD PUSH1 0x1 SLOAD SWAP2 POP SWAP2 POP SWAP1 SWAP2 JUMP JUMPDEST PUSH1 0x64 DUP2 GT ISZERO PUSH2 0x242 JUMPI PUSH1 0x40 MLOAD PUSH32 0x8C379A000000000000000000000000000000000000000000000000000000000 DUP2 MSTORE PUSH1 0x4 ADD PUSH2 0x239 SWAP1 PUSH2 0x5AC JUMP JUMPDEST PUSH1 0x40 MLOAD DUP1 SWAP2 SUB SWAP1 REVERT JUMPDEST PUSH0 GAS SWAP1 POP PUSH0 PUSH0 SWAP1 POP JUMPDEST DUP3 DUP2 LT ISZERO PUSH2 0x269 JUMPI PUSH2 0x25C DUP2 PUSH2 0x31D JUMP JUMPDEST DUP1 DUP1 PUSH1 0x1 ADD SWAP2 POP POP PUSH2 0x24B JUMP JUMPDEST POP GAS DUP2 PUSH2 0x276 SWAP2 SWAP1 PUSH2 0x5F7 JUMP JUMPDEST PUSH1 0x3 DUP2 SWAP1 SSTORE POP PUSH32 0x4D605D112B717B70B80F393CC6A0239AE0459508E54AF125EE28F92ACBF7FC49 PUSH1 0x3 SLOAD PUSH1 0x40 MLOAD PUSH2 0x2AD SWAP2 SWAP1 PUSH2 0x674 JUMP JUMPDEST PUSH1 0x40 MLOAD DUP1 SWAP2 SUB SWAP1 LOG1 POP POP JUMP JUMPDEST PUSH1 0x1 SLOAD DUP2 JUMP JUMPDEST PUSH0 SLOAD DUP2 JUMP JUMPDEST PUSH1 0x3 SLOAD DUP2 JUMP JUMPDEST PUSH0 PUSH0 PUSH1 0x3 SLOAD PUSH1 0x4 SLOAD SWAP2 POP SWAP2 POP SWAP1 SWAP2 JUMP JUMPDEST PUSH1 0x2 DUP2 DUP2 SLOAD DUP2 LT PUSH2 0x2E9 JUMPI PUSH0 DUP1 REVERT JUMPDEST SWAP1 PUSH0 MSTORE PUSH1 0x20 PUSH0 KECCAK256 ADD PUSH0 SWAP2 POP SWAP1 POP SLOAD DUP2 JUMP JUMPDEST PUSH1 0x4 SLOAD DUP2 JUMP JUMPDEST PUSH0 PUSH0 DUP2 SWAP1 SSTORE POP PUSH0 PUSH1 0x1 DUP2 SWAP1 SSTORE POP PUSH0 PUSH1 0x3 DUP2 SWAP1 SSTORE POP PUSH0 PUSH1 0x4 DUP2 SWAP1 SSTORE POP JUMP JUMPDEST PUSH0 PUSH0 DUP2 SLOAD DUP1 SWAP3 SWAP2 SWAP1 PUSH2 0x32E SWAP1 PUSH2 0x6A0 JUMP JUMPDEST SWAP2 SWAP1 POP SSTORE POP PUSH1 0x1 PUSH0 DUP2 SLOAD DUP1 SWAP3 SWAP2 SWAP1 PUSH2 0x345 SWAP1 PUSH2 0x6A0 JUMP JUMPDEST SWAP2 SWAP1 POP SSTORE POP PUSH32 0x72BE742069ACE8F31A078A0DEA8B664A09950CB324664824AD95D9DD7E14C991 CALLER DUP3 PUSH0 SLOAD PUSH1 0x40 MLOAD PUSH2 0x37E SWAP4 SWAP3 SWAP2 SWAP1 PUSH2 0x726 JUMP JUMPDEST PUSH1 0x40 MLOAD DUP1 SWAP2 SUB SWAP1 LOG1 POP JUMP JUMPDEST PUSH1 0x64 DUP2 GT ISZERO PUSH2 0x3CD JUMPI PUSH1 0x40 MLOAD PUSH32 0x8C379A000000000000000000000000000000000000000000000000000000000 DUP2 MSTORE PUSH1 0x4 ADD PUSH2 0x3C4 SWAP1 PUSH2 0x5AC JUMP JUMPDEST PUSH1 0x40 MLOAD DUP1 SWAP2 SUB SWAP1 REVERT JUMPDEST PUSH0 GAS SWAP1 POP PUSH0 PUSH0 SWAP1 POP JUMPDEST DUP3 DUP2 LT ISZERO PUSH2 0x451 JUMPI ADDRESS PUSH20 0xFFFFFFFFFFFFFFFFFFFFFFFFFFFFFFFFFFFFFFFF AND PUSH4 0xDE5021E0 DUP3 PUSH1 0x40 MLOAD DUP3 PUSH4 0xFFFFFFFF AND PUSH1 0xE0 SHL DUP2 MSTORE PUSH1 0x4 ADD PUSH2 0x417 SWAP2 SWAP1 PUSH2 0x539 JUMP JUMPDEST PUSH0 PUSH1 0x40 MLOAD DUP1 DUP4 SUB DUP2 PUSH0 DUP8 DUP1 EXTCODESIZE ISZERO DUP1 ISZERO PUSH2 0x42E JUMPI PUSH0 PUSH0 REVERT JUMPDEST POP GAS CALL ISZERO DUP1 ISZERO PUSH2 0x440 JUMPI RETURNDATASIZE PUSH0 PUSH0 RETURNDATACOPY RETURNDATASIZE PUSH0 REVERT JUMPDEST POP POP POP POP DUP1 DUP1 PUSH1 0x1 ADD SWAP2 POP POP PUSH2 0x3D6 JUMP JUMPDEST POP GAS DUP2 PUSH2 0x45E SWAP2 SWAP1 PUSH2 0x5F7 JUMP JUMPDEST PUSH1 0x4 DUP2 SWAP1 SSTORE POP PUSH32 0x4D605D112B717B70B80F393CC6A0239AE0459508E54AF125EE28F92ACBF7FC49 PUSH1 0x4 SLOAD PUSH1 0x40 MLOAD PUSH2 0x495 SWAP2 SWAP1 PUSH2 0x7A5 JUMP JUMPDEST PUSH1 0x40 MLOAD DUP1 SWAP2 SUB SWAP1 LOG1 POP POP JUMP JUMPDEST PUSH0 DUP2 SWAP1 POP SWAP2 SWAP1 POP JUMP JUMPDEST PUSH2 0x4B3 DUP2 PUSH2 0x4A1 JUMP JUMPDEST DUP3 MSTORE POP POP JUMP JUMPDEST PUSH0 PUSH1 0x40 DUP3 ADD SWAP1 POP PUSH2 0x4CC PUSH0 DUP4 ADD DUP6 PUSH2 0x4AA JUMP JUMPDEST PUSH2 0x4D9 PUSH1 0x20 DUP4 ADD DUP5 PUSH2 0x4AA JUMP JUMPDEST SWAP4 SWAP3 POP POP POP JUMP JUMPDEST PUSH0 PUSH0 REVERT JUMPDEST PUSH2 0x4ED DUP2 PUSH2 0x4A1 JUMP JUMPDEST DUP2 EQ PUSH2 0x4F7 JUMPI PUSH0 PUSH0 REVERT JUMPDEST POP JUMP JUMPDEST PUSH0 DUP2 CALLDATALOAD SWAP1 POP PUSH2 0x508 DUP2 PUSH2 0x4E4 JUMP JUMPDEST SWAP3 SWAP2 POP POP JUMP JUMPDEST PUSH0 PUSH1 0x20 DUP3 DUP5 SUB SLT ISZERO PUSH2 0x523 JUMPI PUSH2 0x522 PUSH2 0x4E0 JUMP JUMPDEST JUMPDEST PUSH0 PUSH2 0x530 DUP5 DUP3 DUP6 ADD PUSH2 0x4FA JUMP JUMPDEST SWAP2 POP POP SWAP3 SWAP2 POP POP JUMP JUMPDEST PUSH0 PUSH1 0x20 DUP3 ADD SWAP1 POP PUSH2 0x54C PUSH0 DUP4 ADD DUP5 PUSH2 0x4AA JUMP JUMPDEST SWAP3 SWAP2 POP POP JUMP JUMPDEST PUSH0 DUP3 DUP3 MSTORE PUSH1 0x20 DUP3 ADD SWAP1 POP SWAP3 SWAP2 POP POP JUMP JUMPDEST PUSH32 0x4D6178203130302063616C6C7300000000000000000000000000000000000000 PUSH0 DUP3 ADD MSTORE POP JUMP JUMPDEST PUSH0 PUSH2 0x596 PUSH1 0xD DUP4 PUSH2 0x552 JUMP JUMPDEST SWAP2 POP PUSH2 0x5A1 DUP3 PUSH2 0x562 JUMP JUMPDEST PUSH1 0x20 DUP3 ADD SWAP1 POP SWAP2 SWAP1 POP JUMP JUMPDEST PUSH0 PUSH1 0x20 DUP3 ADD SWAP1 POP DUP2 DUP2 SUB PUSH0 DUP4 ADD MSTORE PUSH2 0x5C3 DUP2 PUSH2 0x58A JUMP JUMPDEST SWAP1 POP SWAP2 SWAP1 POP JUMP JUMPDEST PUSH32 0x4E487B7100000000000000000000000000000000000000000000000000000000 PUSH0 MSTORE PUSH1 0x11 PUSH1 0x4 MSTORE PUSH1 0x24 PUSH0 REVERT JUMPDEST PUSH0 PUSH2 0x601 DUP3 PUSH2 0x4A1 JUMP JUMPDEST SWAP2 POP PUSH2 0x60C DUP4 PUSH2 0x4A1 JUMP JUMPDEST SWAP3 POP DUP3 DUP3 SUB SWAP1 POP DUP2 DUP2 GT ISZERO PUSH2 0x624 JUMPI PUSH2 0x623 PUSH2 0x5CA JUMP JUMPDEST JUMPDEST SWAP3 SWAP2 POP POP JUMP JUMPDEST PUSH32 0x496E7465726E616C2043616C6C73000000000000000000000000000000000000 PUSH0 DUP3 ADD MSTORE POP JUMP JUMPDEST PUSH0 PUSH2 0x65E PUSH1 0xE DUP4 PUSH2 0x552 JUMP JUMPDEST SWAP2 POP PUSH2 0x669 DUP3 PUSH2 0x62A JUMP JUMPDEST PUSH1 0x20 DUP3 ADD SWAP1 POP SWAP2 SWAP1 POP JUMP JUMPDEST PUSH0 PUSH1 0x40 DUP3 ADD SWAP1 POP DUP2 DUP2 SUB PUSH0 DUP4 ADD MSTORE PUSH2 0x68B DUP2 PUSH2 0x652 JUMP JUMPDEST SWAP1 POP PUSH2 0x69A PUSH1 0x20 DUP4 ADD DUP5 PUSH2 0x4AA JUMP JUMPDEST SWAP3 SWAP2 POP POP JUMP JUMPDEST PUSH0 PUSH2 0x6AA DUP3 PUSH2 0x4A1 JUMP JUMPDEST SWAP2 POP PUSH32 0xFFFFFFFFFFFFFFFFFFFFFFFFFFFFFFFFFFFFFFFFFFFFFFFFFFFFFFFFFFFFFFFF DUP3 SUB PUSH2 0x6DC JUMPI PUSH2 0x6DB PUSH2 0x5CA JUMP JUMPDEST JUMPDEST PUSH1 0x1 DUP3 ADD SWAP1 POP SWAP2 SWAP1 POP JUMP JUMPDEST PUSH0 PUSH20 0xFFFFFFFFFFFFFFFFFFFFFFFFFFFFFFFFFFFFFFFF DUP3 AND SWAP1 POP SWAP2 SWAP1 POP JUMP JUMPDEST PUSH0 PUSH2 0x710 DUP3 PUSH2 0x6E7 JUMP JUMPDEST SWAP1 POP SWAP2 SWAP1 POP JUMP JUMPDEST PUSH2 0x720 DUP2 PUSH2 0x706 JUMP JUMPDEST DUP3 MSTORE POP POP JUMP JUMPDEST PUSH0 PUSH1 0x60 DUP3 ADD SWAP1 POP PUSH2 0x739 PUSH0 DUP4 ADD DUP7 PUSH2 0x717 JUMP JUMPDEST PUSH2 0x746 PUSH1 0x20 DUP4 ADD DUP6 PUSH2 0x4AA JUMP JUMPDEST PUSH2 0x753 PUSH1 0x40 DUP4 ADD DUP5 PUSH2 0x4AA JUMP JUMPDEST SWAP5 SWAP4 POP POP POP POP JUMP JUMPDEST PUSH32 0x45787465726E616C2043616C6C73000000000000000000000000000000000000 PUSH0 DUP3 ADD MSTORE POP JUMP JUMPDEST PUSH0 PUSH2 0x78F PUSH1 0xE DUP4 PUSH2 0x552 JUMP JUMPDEST SWAP2 POP PUSH2 0x79A DUP3 PUSH2 0x75B JUMP JUMPDEST PUSH1 0x20 DUP3 ADD SWAP1 POP SWAP2 SWAP1 POP JUMP JUMPDEST PUSH0 PUSH1 0x40 DUP3 ADD SWAP1 POP DUP2 DUP2 SUB PUSH0 DUP4 ADD MSTORE PUSH2 0x7BC DUP2 PUSH2 0x783 JUMP JUMPDEST SWAP1 POP PUSH2 0x7CB PUSH1 0x20 DUP4 ADD DUP5 PUSH2 0x4AA JUMP JUMPDEST SWAP3 SWAP2 POP POP JUMP INVALID LOG2 PUSH5 0x6970667358 0x22 SLT KECCAK256 PUSH4 0xC5AD613B 0x4F RETURNCONTRACT 0xC4 0xCF 0xCD PUSH3 0x5D187E TLOAD 0x2A PUSH25 0x3423D39E74997C9A4D0B270E619EA64736F6C634300082200 CALLER "
		},
		"gasEstimates": {
			"creation": {
				"codeDepositCost": "411000",
				"executionCost": "447",
				"totalCost": "411447"
			},
			"external": {
				"compareGas()": "infinite",
				"counter()": "2491",
				"externalGasUsed()": "2469",
				"externalStyleStress(uint256)": "infinite",
				"getState()": "infinite",
				"history(uint256)": "infinite",
				"internalGasUsed()": "2514",
				"reset()": "20260",
				"singleCall(uint256)": "infinite",
				"stressTest(uint256)": "infinite",
				"totalCalls()": "2470"
			}
		},
		"methodIdentifiers": {
			"compareGas()": "8f32aa78",
			"counter()": "61bc221a",
			"externalGasUsed()": "b1e964fe",
			"externalStyleStress(uint256)": "e93116b6",
			"getState()": "1865c57d",
			"history(uint256)": "a7a38f0b",
			"internalGasUsed()": "6561fd92",
			"reset()": "d826f88f",
			"singleCall(uint256)": "de5021e0",
			"stressTest(uint256)": "2326305f",
			"totalCalls()": "3af3f24f"
		}
	},
	"abi": [
		{
			"anonymous": false,
			"inputs": [
				{
					"indexed": false,
					"internalType": "address",
					"name": "caller",
					"type": "address"
				},
				{
					"indexed": false,
					"internalType": "uint256",
					"name": "value",
					"type": "uint256"
				},
				{
					"indexed": false,
					"internalType": "uint256",
					"name": "counter",
					"type": "uint256"
				}
			],
			"name": "CallExecuted",
			"type": "event"
		},
		{
			"anonymous": false,
			"inputs": [
				{
					"indexed": false,
					"internalType": "string",
					"name": "callType",
					"type": "string"
				},
				{
					"indexed": false,
					"internalType": "uint256",
					"name": "gasUsed",
					"type": "uint256"
				}
			],
			"name": "GasMeasured",
			"type": "event"
		},
		{
			"inputs": [],
			"name": "compareGas",
			"outputs": [
				{
					"internalType": "uint256",
					"name": "internalGas",
					"type": "uint256"
				},
				{
					"internalType": "uint256",
					"name": "externalGas",
					"type": "uint256"
				}
			],
			"stateMutability": "view",
			"type": "function"
		},
		{
			"inputs": [],
			"name": "counter",
			"outputs": [
				{
					"internalType": "uint256",
					"name": "",
					"type": "uint256"
				}
			],
			"stateMutability": "view",
			"type": "function"
		},
		{
			"inputs": [],
			"name": "externalGasUsed",
			"outputs": [
				{
					"internalType": "uint256",
					"name": "",
					"type": "uint256"
				}
			],
			"stateMutability": "view",
			"type": "function"
		},
		{
			"inputs": [
				{
					"internalType": "uint256",
					"name": "times",
					"type": "uint256"
				}
			],
			"name": "externalStyleStress",
			"outputs": [],
			"stateMutability": "nonpayable",
			"type": "function"
		},
		{
			"inputs": [],
			"name": "getState",
			"outputs": [
				{
					"internalType": "uint256",
					"name": "currentCounter",
					"type": "uint256"
				},
				{
					"internalType": "uint256",
					"name": "currentCalls",
					"type": "uint256"
				}
			],
			"stateMutability": "view",
			"type": "function"
		},
		{
			"inputs": [
				{
					"internalType": "uint256",
					"name": "",
					"type": "uint256"
				}
			],
			"name": "history",
			"outputs": [
				{
					"internalType": "uint256",
					"name": "",
					"type": "uint256"
				}
			],
			"stateMutability": "view",
			"type": "function"
		},
		{
			"inputs": [],
			"name": "internalGasUsed",
			"outputs": [
				{
					"internalType": "uint256",
					"name": "",
					"type": "uint256"
				}
			],
			"stateMutability": "view",
			"type": "function"
		},
		{
			"inputs": [],
			"name": "reset",
			"outputs": [],
			"stateMutability": "nonpayable",
			"type": "function"
		},
		{
			"inputs": [
				{
					"internalType": "uint256",
					"name": "value",
					"type": "uint256"
				}
			],
			"name": "singleCall",
			"outputs": [],
			"stateMutability": "nonpayable",
			"type": "function"
		},
		{
			"inputs": [
				{
					"internalType": "uint256",
					"name": "times",
					"type": "uint256"
				}
			],
			"name": "stressTest",
			"outputs": [],
			"stateMutability": "nonpayable",
			"type": "function"
		},
		{
			"inputs": [],
			"name": "totalCalls",
			"outputs": [
				{
					"internalType": "uint256",
					"name": "",
					"type": "uint256"
				}
			],
			"stateMutability": "view",
			"type": "function"
		}
	]
}