{
	"data": {
		"bytecode": {
			"linkReferences": {},
			"object": "6080604052348015600e575f5ffd5b506108e38061001c5f395ff3fe608060405260043610610049575f3560e01c806327e235e31461004d5780632e1a7d4d146100895780638b7afe2e146100b1578063b0fd035b146100db578063d0e30db014610103575b5f5ffd5b348015610058575f5ffd5b50610073600480360381019061006e9190610648565b61010d565b604051610080919061068b565b60405180910390f35b348015610094575f5ffd5b506100af60048036038101906100aa91906106ce565b610121565b005b3480156100bc575f5ffd5b506100c56102ec565b6040516100d2919061068b565b60405180910390f35b3480156100e6575f5ffd5b5061010160048036038101906100fc91906106ce565b6102f3565b005b61010b610548565b005b5f602052805f5260405f205f915090505481565b805f5f3373ffffffffffffffffffffffffffffffffffffffff1673ffffffffffffffffffffffffffffffffffffffff1681526020019081526020015f205410156101a0576040517f08c379a000000000000000000000000000000000000000000000000000000000815260040161019790610753565b60405180910390fd5b5f3373ffffffffffffffffffffffffffffffffffffffff16826040516101c59061079e565b5f6040518083038185875af1925050503d805f81146101ff576040519150601f19603f3d011682016040523d82523d5f602084013e610204565b606091505b5050905080610248576040517f08c379a000000000000000000000000000000000000000000000000000000000815260040161023f906107fc565b60405180910390fd5b815f5f3373ffffffffffffffffffffffffffffffffffffffff1673ffffffffffffffffffffffffffffffffffffffff1681526020019081526020015f205f8282546102939190610847565b925050819055503373ffffffffffffffffffffffffffffffffffffffff167ff65c3e7c69be12728fe872d31fb39914dc909eb058cc438d78692f6dd1517a1a836040516102e0919061068b565b60405180910390a25050565b5f47905090565b60015f9054906101000a900460ff161561034b573373ffffffffffffffffffffffffffffffffffffffff167f1f3b61f8d446e90ae1ca009fcf0ad52ce7ab1b5c2bac8cefee7985d3a56af27660405160405180910390a25b6001805f6101000a81548160ff021916908315150217905550805f5f3373ffffffffffffffffffffffffffffffffffffffff1673ffffffffffffffffffffffffffffffffffffffff1681526020019081526020015f205410156103e3576040517f08c379a00000000000000000000000000000000000000000000000000000000081526004016103da90610753565b60405180910390fd5b805f5f3373ffffffffffffffffffffffffffffffffffffffff1673ffffffffffffffffffffffffffffffffffffffff1681526020019081526020015f205f82825461042e9190610847565b925050819055505f3373ffffffffffffffffffffffffffffffffffffffff168260405161045a9061079e565b5f6040518083038185875af1925050503d805f8114610494576040519150601f19603f3d011682016040523d82523d5f602084013e610499565b606091505b50509050806104dd576040517f08c379a00000000000000000000000000000000000000000000000000000000081526004016104d4906107fc565b60405180910390fd5b3373ffffffffffffffffffffffffffffffffffffffff167fac420a5a38642ce5e54e778ed9593117a21c00b6d912e86214979c3da2eb095883604051610523919061068b565b60405180910390a2505f60015f6101000a81548160ff02191690831515021790555050565b345f5f3373ffffffffffffffffffffffffffffffffffffffff1673ffffffffffffffffffffffffffffffffffffffff1681526020019081526020015f205f828254610593919061087a565b925050819055503373ffffffffffffffffffffffffffffffffffffffff167fe1fffcc4923d04b559f4d29a8bfc6cda04eb5b0d3c460751c2402c5c5cc9109c346040516105e0919061068b565b60405180910390a2565b5f5ffd5b5f73ffffffffffffffffffffffffffffffffffffffff82169050919050565b5f610617826105ee565b9050919050565b6106278161060d565b8114610631575f5ffd5b50565b5f813590506106428161061e565b92915050565b5f6020828403121561065d5761065c6105ea565b5b5f61066a84828501610634565b91505092915050565b5f819050919050565b61068581610673565b82525050565b5f60208201905061069e5f83018461067c565b92915050565b6106ad81610673565b81146106b7575f5ffd5b50565b5f813590506106c8816106a4565b92915050565b5f602082840312156106e3576106e26105ea565b5b5f6106f0848285016106ba565b91505092915050565b5f82825260208201905092915050565b7f496e73756666696369656e742062616c616e63650000000000000000000000005f82015250565b5f61073d6014836106f9565b915061074882610709565b602082019050919050565b5f6020820190508181035f83015261076a81610731565b9050919050565b5f81905092915050565b50565b5f6107895f83610771565b91506107948261077b565b5f82019050919050565b5f6107a88261077e565b9150819050919050565b7f5472616e73666572206661696c656400000000000000000000000000000000005f82015250565b5f6107e6600f836106f9565b91506107f1826107b2565b602082019050919050565b5f6020820190508181035f830152610813816107da565b9050919050565b7f4e487b71000000000000000000000000000000000000000000000000000000005f52601160045260245ffd5b5f61085182610673565b915061085c83610673565b92508282039050818111156108745761087361081a565b5b92915050565b5f61088482610673565b915061088f83610673565b92508282019050808211156108a7576108a661081a565b5b9291505056fea26469706673582212209ff65d69783bd9cf8eb81300021a002a1cbde12b4db541a6eda910af0bde169664736f6c63430008220033",
			"opcodes": "PUSH1 0x80 PUSH1 0x40 MSTORE CALLVALUE DUP1 ISZERO PUSH1 0xE JUMPI PUSH0 PUSH0 REVERT JUMPDEST POP PUSH2 0x8E3 DUP1 PUSH2 0x1C PUSH0 CODECOPY PUSH0 RETURN INVALID PUSH1 0x80 PUSH1 0x40 MSTORE PUSH1 0x4 CALLDATASIZE LT PUSH2 0x49 JUMPI PUSH0 CALLDATALOAD PUSH1 0xE0 SHR DUP1 PUSH4 0x27E235E3 EQ PUSH2 0x4D JUMPI DUP1 PUSH4 0x2E1A7D4D EQ PUSH2 0x89 JUMPI DUP1 PUSH4 0x8B7AFE2E EQ PUSH2 0xB1 JUMPI DUP1 PUSH4 0xB0FD035B EQ PUSH2 0xDB JUMPI DUP1 PUSH4 0xD0E30DB0 EQ PUSH2 0x103 JUMPI JUMPDEST PUSH0 PUSH0 REVERT JUMPDEST CALLVALUE DUP1 ISZERO PUSH2 0x58 JUMPI PUSH0 PUSH0 REVERT JUMPDEST POP PUSH2 0x73 PUSH1 0x4 DUP1 CALLDATASIZE SUB DUP2 ADD SWAP1 PUSH2 0x6E SWAP2 SWAP1 PUSH2 0x648 JUMP JUMPDEST PUSH2 0x10D JUMP JUMPDEST PUSH1 0x40 MLOAD PUSH2 0x80 SWAP2 SWAP1 PUSH2 0x68B JUMP JUMPDEST PUSH1 0x40 MLOAD DUP1 SWAP2 SUB SWAP1 RETURN JUMPDEST CALLVALUE DUP1 ISZERO PUSH2 0x94 JUMPI PUSH0 PUSH0 REVERT JUMPDEST POP PUSH2 0xAF PUSH1 0x4 DUP1 CALLDATASIZE SUB DUP2 ADD SWAP1 PUSH2 0xAA SWAP2 SWAP1 PUSH2 0x6CE JUMP JUMPDEST PUSH2 0x121 JUMP JUMPDEST STOP JUMPDEST CALLVALUE DUP1 ISZERO PUSH2 0xBC JUMPI PUSH0 PUSH0 REVERT JUMPDEST POP PUSH2 0xC5 PUSH2 0x2EC JUMP JUMPDEST PUSH1 0x40 MLOAD PUSH2 0xD2 SWAP2 SWAP1 PUSH2 0x68B JUMP JUMPDEST PUSH1 0x40 MLOAD DUP1 SWAP2 SUB SWAP1 RETURN JUMPDEST CALLVALUE DUP1 ISZERO PUSH2 0xE6 JUMPI PUSH0 PUSH0 REVERT JUMPDEST POP PUSH2 0x101 PUSH1 0x4 DUP1 CALLDATASIZE SUB DUP2 ADD SWAP1 PUSH2 0xFC SWAP2 SWAP1 PUSH2 0x6CE JUMP JUMPDEST PUSH2 0x2F3 JUMP JUMPDEST STOP JUMPDEST PUSH2 0x10B PUSH2 0x548 JUMP JUMPDEST STOP JUMPDEST PUSH0 PUSH1 0x20 MSTORE DUP1 PUSH0 MSTORE PUSH1 0x40 PUSH0 KECCAK256 PUSH0 SWAP2 POP SWAP1 POP SLOAD DUP2 JUMP JUMPDEST DUP1 PUSH0 PUSH0 CALLER PUSH20 0xFFFFFFFFFFFFFFFFFFFFFFFFFFFFFFFFFFFFFFFF AND PUSH20 0xFFFFFFFFFFFFFFFFFFFFFFFFFFFFFFFFFFFFFFFF AND DUP2 MSTORE PUSH1 0x20 ADD SWAP1 DUP2 MSTORE PUSH1 0x20 ADD PUSH0 KECCAK256 SLOAD LT ISZERO PUSH2 0x1A0 JUMPI PUSH1 0x40 MLOAD PUSH32 0x8C379A000000000000000000000000000000000000000000000000000000000 DUP2 MSTORE PUSH1 0x4 ADD PUSH2 0x197 SWAP1 PUSH2 0x753 JUMP JUMPDEST PUSH1 0x40 MLOAD DUP1 SWAP2 SUB SWAP1 REVERT JUMPDEST PUSH0 CALLER PUSH20 0xFFFFFFFFFFFFFFFFFFFFFFFFFFFFFFFFFFFFFFFF AND DUP3 PUSH1 0x40 MLOAD PUSH2 0x1C5 SWAP1 PUSH2 0x79E JUMP JUMPDEST PUSH0 PUSH1 0x40 MLOAD DUP1 DUP4 SUB DUP2 DUP6 DUP8 GAS CALL SWAP3 POP POP POP RETURNDATASIZE DUP1 PUSH0 DUP2 EQ PUSH2 0x1FF JUMPI PUSH1 0x40 MLOAD SWAP2 POP PUSH1 0x1F NOT PUSH1 0x3F RETURNDATASIZE ADD AND DUP3 ADD PUSH1 0x40 MSTORE RETURNDATASIZE DUP3 MSTORE RETURNDATASIZE PUSH0 PUSH1 0x20 DUP5 ADD RETURNDATACOPY PUSH2 0x204 JUMP JUMPDEST PUSH1 0x60 SWAP2 POP JUMPDEST POP POP SWAP1 POP DUP1 PUSH2 0x248 JUMPI PUSH1 0x40 MLOAD PUSH32 0x8C379A000000000000000000000000000000000000000000000000000000000 DUP2 MSTORE PUSH1 0x4 ADD PUSH2 0x23F SWAP1 PUSH2 0x7FC JUMP JUMPDEST PUSH1 0x40 MLOAD DUP1 SWAP2 SUB SWAP1 REVERT JUMPDEST DUP2 PUSH0 PUSH0 CALLER PUSH20 0xFFFFFFFFFFFFFFFFFFFFFFFFFFFFFFFFFFFFFFFF AND PUSH20 0xFFFFFFFFFFFFFFFFFFFFFFFFFFFFFFFFFFFFFFFF AND DUP2 MSTORE PUSH1 0x20 ADD SWAP1 DUP2 MSTORE PUSH1 0x20 ADD PUSH0 KECCAK256 PUSH0 DUP3 DUP3 SLOAD PUSH2 0x293 SWAP2 SWAP1 PUSH2 0x847 JUMP JUMPDEST SWAP3 POP POP DUP2 SWAP1 SSTORE POP CALLER PUSH20 0xFFFFFFFFFFFFFFFFFFFFFFFFFFFFFFFFFFFFFFFF AND PUSH32 0xF65C3E7C69BE12728FE872D31FB39914DC909EB058CC438D78692F6DD1517A1A DUP4 PUSH1 0x40 MLOAD PUSH2 0x2E0 SWAP2 SWAP1 PUSH2 0x68B JUMP JUMPDEST PUSH1 0x40 MLOAD DUP1 SWAP2 SUB SWAP1 LOG2 POP POP JUMP JUMPDEST PUSH0 SELFBALANCE SWAP1 POP SWAP1 JUMP JUMPDEST PUSH1 0x1 PUSH0 SWAP1 SLOAD SWAP1 PUSH2 0x100 EXP SWAP1 DIV PUSH1 0xFF AND ISZERO PUSH2 0x34B JUMPI CALLER PUSH20 0xFFFFFFFFFFFFFFFFFFFFFFFFFFFFFFFFFFFFFFFF AND PUSH32 0x1F3B61F8D446E90AE1CA009FCF0AD52CE7AB1B5C2BAC8CEFEE7985D3A56AF276 PUSH1 0x40 MLOAD PUSH1 0x40 MLOAD DUP1 SWAP2 SUB SWAP1 LOG2 JUMPDEST PUSH1 0x1 DUP1 PUSH0 PUSH2 0x100 EXP DUP2 SLOAD DUP2 PUSH1 0xFF MUL NOT AND SWAP1 DUP4 ISZERO ISZERO MUL OR SWAP1 SSTORE POP DUP1 PUSH0 PUSH0 CALLER PUSH20 0xFFFFFFFFFFFFFFFFFFFFFFFFFFFFFFFFFFFFFFFF AND PUSH20 0xFFFFFFFFFFFFFFFFFFFFFFFFFFFFFFFFFFFFFFFF AND DUP2 MSTORE PUSH1 0x20 ADD SWAP1 DUP2 MSTORE PUSH1 0x20 ADD PUSH0 KECCAK256 SLOAD LT ISZERO PUSH2 0x3E3 JUMPI PUSH1 0x40 MLOAD PUSH32 0x8C379A000000000000000000000000000000000000000000000000000000000 DUP2 MSTORE PUSH1 0x4 ADD PUSH2 0x3DA SWAP1 PUSH2 0x753 JUMP JUMPDEST PUSH1 0x40 MLOAD DUP1 SWAP2 SUB SWAP1 REVERT JUMPDEST DUP1 PUSH0 PUSH0 CALLER PUSH20 0xFFFFFFFFFFFFFFFFFFFFFFFFFFFFFFFFFFFFFFFF AND PUSH20 0xFFFFFFFFFFFFFFFFFFFFFFFFFFFFFFFFFFFFFFFF AND DUP2 MSTORE PUSH1 0x20 ADD SWAP1 DUP2 MSTORE PUSH1 0x20 ADD PUSH0 KECCAK256 PUSH0 DUP3 DUP3 SLOAD PUSH2 0x42E SWAP2 SWAP1 PUSH2 0x847 JUMP JUMPDEST SWAP3 POP POP DUP2 SWAP1 SSTORE POP PUSH0 CALLER PUSH20 0xFFFFFFFFFFFFFFFFFFFFFFFFFFFFFFFFFFFFFFFF AND DUP3 PUSH1 0x40 MLOAD PUSH2 0x45A SWAP1 PUSH2 0x79E JUMP JUMPDEST PUSH0 PUSH1 0x40 MLOAD DUP1 DUP4 SUB DUP2 DUP6 DUP8 GAS CALL SWAP3 POP POP POP RETURNDATASIZE DUP1 PUSH0 DUP2 EQ PUSH2 0x494 JUMPI PUSH1 0x40 MLOAD SWAP2 POP PUSH1 0x1F NOT PUSH1 0x3F RETURNDATASIZE ADD AND DUP3 ADD PUSH1 0x40 MSTORE RETURNDATASIZE DUP3 MSTORE RETURNDATASIZE PUSH0 PUSH1 0x20 DUP5 ADD RETURNDATACOPY PUSH2 0x499 JUMP JUMPDEST PUSH1 0x60 SWAP2 POP JUMPDEST POP POP SWAP1 POP DUP1 PUSH2 0x4DD JUMPI PUSH1 0x40 MLOAD PUSH32 0x8C379A000000000000000000000000000000000000000000000000000000000 DUP2 MSTORE PUSH1 0x4 ADD PUSH2 0x4D4 SWAP1 PUSH2 0x7FC JUMP JUMPDEST PUSH1 0x40 MLOAD DUP1 SWAP2 SUB SWAP1 REVERT JUMPDEST CALLER PUSH20 0xFFFFFFFFFFFFFFFFFFFFFFFFFFFFFFFFFFFFFFFF AND PUSH32 0xAC420A5A38642CE5E54E778ED9593117A21C00B6D912E86214979C3DA2EB0958 DUP4 PUSH1 0x40 MLOAD PUSH2 0x523 SWAP2 SWAP1 PUSH2 0x68B JUMP JUMPDEST PUSH1 0x40 MLOAD DUP1 SWAP2 SUB SWAP1 LOG2 POP PUSH0 PUSH1 0x1 PUSH0 PUSH2 0x100 EXP DUP2 SLOAD DUP2 PUSH1 0xFF MUL NOT AND SWAP1 DUP4 ISZERO ISZERO MUL OR SWAP1 SSTORE POP POP JUMP JUMPDEST CALLVALUE PUSH0 PUSH0 CALLER PUSH20 0xFFFFFFFFFFFFFFFFFFFFFFFFFFFFFFFFFFFFFFFF AND PUSH20 0xFFFFFFFFFFFFFFFFFFFFFFFFFFFFFFFFFFFFFFFF AND DUP2 MSTORE PUSH1 0x20 ADD SWAP1 DUP2 MSTORE PUSH1 0x20 ADD PUSH0 KECCAK256 PUSH0 DUP3 DUP3 SLOAD PUSH2 0x593 SWAP2 SWAP1 PUSH2 0x87A JUMP JUMPDEST SWAP3 POP POP DUP2 SWAP1 SSTORE POP CALLER PUSH20 0xFFFFFFFFFFFFFFFFFFFFFFFFFFFFFFFFFFFFFFFF AND PUSH32 0xE1FFFCC4923D04B559F4D29A8BFC6CDA04EB5B0D3C460751C2402C5C5CC9109C CALLVALUE PUSH1 0x40 MLOAD PUSH2 0x5E0 SWAP2 SWAP1 PUSH2 0x68B JUMP JUMPDEST PUSH1 0x40 MLOAD DUP1 SWAP2 SUB SWAP1 LOG2 JUMP JUMPDEST PUSH0 PUSH0 REVERT JUMPDEST PUSH0 PUSH20 0xFFFFFFFFFFFFFFFFFFFFFFFFFFFFFFFFFFFFFFFF DUP3 AND SWAP1 POP SWAP2 SWAP1 POP JUMP JUMPDEST PUSH0 PUSH2 0x617 DUP3 PUSH2 0x5EE JUMP JUMPDEST SWAP1 POP SWAP2 SWAP1 POP JUMP JUMPDEST PUSH2 0x627 DUP2 PUSH2 0x60D JUMP JUMPDEST DUP2 EQ PUSH2 0x631 JUMPI PUSH0 PUSH0 REVERT JUMPDEST POP JUMP JUMPDEST PUSH0 DUP2 CALLDATALOAD SWAP1 POP PUSH2 0x642 DUP2 PUSH2 0x61E JUMP JUMPDEST SWAP3 SWAP2 POP POP JUMP JUMPDEST PUSH0 PUSH1 0x20 DUP3 DUP5 SUB SLT ISZERO PUSH2 0x65D JUMPI PUSH2 0x65C PUSH2 0x5EA JUMP JUMPDEST JUMPDEST PUSH0 PUSH2 0x66A DUP5 DUP3 DUP6 ADD PUSH2 0x634 JUMP JUMPDEST SWAP2 POP POP SWAP3 SWAP2 POP POP JUMP JUMPDEST PUSH0 DUP2 SWAP1 POP SWAP2 SWAP1 POP JUMP JUMPDEST PUSH2 0x685 DUP2 PUSH2 0x673 JUMP JUMPDEST DUP3 MSTORE POP POP JUMP JUMPDEST PUSH0 PUSH1 0x20 DUP3 ADD SWAP1 POP PUSH2 0x69E PUSH0 DUP4 ADD DUP5 PUSH2 0x67C JUMP JUMPDEST SWAP3 SWAP2 POP POP JUMP JUMPDEST PUSH2 0x6AD DUP2 PUSH2 0x673 JUMP JUMPDEST DUP2 EQ PUSH2 0x6B7 JUMPI PUSH0 PUSH0 REVERT JUMPDEST POP JUMP JUMPDEST PUSH0 DUP2 CALLDATALOAD SWAP1 POP PUSH2 0x6C8 DUP2 PUSH2 0x6A4 JUMP JUMPDEST SWAP3 SWAP2 POP POP JUMP JUMPDEST PUSH0 PUSH1 0x20 DUP3 DUP5 SUB SLT ISZERO PUSH2 0x6E3 JUMPI PUSH2 0x6E2 PUSH2 0x5EA JUMP JUMPDEST JUMPDEST PUSH0 PUSH2 0x6F0 DUP5 DUP3 DUP6 ADD PUSH2 0x6BA JUMP JUMPDEST SWAP2 POP POP SWAP3 SWAP2 POP POP JUMP JUMPDEST PUSH0 DUP3 DUP3 MSTORE PUSH1 0x20 DUP3 ADD SWAP1 POP SWAP3 SWAP2 POP POP JUMP JUMPDEST PUSH32 0x496E73756666696369656E742062616C616E6365000000000000000000000000 PUSH0 DUP3 ADD MSTORE POP JUMP JUMPDEST PUSH0 PUSH2 0x73D PUSH1 0x14 DUP4 PUSH2 0x6F9 JUMP JUMPDEST SWAP2 POP PUSH2 0x748 DUP3 PUSH2 0x709 JUMP JUMPDEST PUSH1 0x20 DUP3 ADD SWAP1 POP SWAP2 SWAP1 POP JUMP JUMPDEST PUSH0 PUSH1 0x20 DUP3 ADD SWAP1 POP DUP2 DUP2 SUB PUSH0 DUP4 ADD MSTORE PUSH2 0x76A DUP2 PUSH2 0x731 JUMP JUMPDEST SWAP1 POP SWAP2 SWAP1 POP JUMP JUMPDEST PUSH0 DUP2 SWAP1 POP SWAP3 SWAP2 POP POP JUMP JUMPDEST POP JUMP JUMPDEST PUSH0 PUSH2 0x789 PUSH0 DUP4 PUSH2 0x771 JUMP JUMPDEST SWAP2 POP PUSH2 0x794 DUP3 PUSH2 0x77B JUMP JUMPDEST PUSH0 DUP3 ADD SWAP1 POP SWAP2 SWAP1 POP JUMP JUMPDEST PUSH0 PUSH2 0x7A8 DUP3 PUSH2 0x77E JUMP JUMPDEST SWAP2 POP DUP2 SWAP1 POP SWAP2 SWAP1 POP JUMP JUMPDEST PUSH32 0x5472616E73666572206661696C65640000000000000000000000000000000000 PUSH0 DUP3 ADD MSTORE POP JUMP JUMPDEST PUSH0 PUSH2 0x7E6 PUSH1 0xF DUP4 PUSH2 0x6F9 JUMP JUMPDEST SWAP2 POP PUSH2 0x7F1 DUP3 PUSH2 0x7B2 JUMP JUMPDEST PUSH1 0x20 DUP3 ADD SWAP1 POP SWAP2 SWAP1 POP JUMP JUMPDEST PUSH0 PUSH1 0x20 DUP3 ADD SWAP1 POP DUP2 DUP2 SUB PUSH0 DUP4 ADD MSTORE PUSH2 0x813 DUP2 PUSH2 0x7DA JUMP JUMPDEST SWAP1 POP SWAP2 SWAP1 POP JUMP JUMPDEST PUSH32 0x4E487B7100000000000000000000000000000000000000000000000000000000 PUSH0 MSTORE PUSH1 0x11 PUSH1 0x4 MSTORE PUSH1 0x24 PUSH0 REVERT JUMPDEST PUSH0 PUSH2 0x851 DUP3 PUSH2 0x673 JUMP JUMPDEST SWAP2 POP PUSH2 0x85C DUP4 PUSH2 0x673 JUMP JUMPDEST SWAP3 POP DUP3 DUP3 SUB SWAP1 POP DUP2 DUP2 GT ISZERO PUSH2 0x874 JUMPI PUSH2 0x873 PUSH2 0x81A JUMP JUMPDEST JUMPDEST SWAP3 SWAP2 POP POP JUMP JUMPDEST PUSH0 PUSH2 0x884 DUP3 PUSH2 0x673 JUMP JUMPDEST SWAP2 POP PUSH2 0x88F DUP4 PUSH2 0x673 JUMP JUMPDEST SWAP3 POP DUP3 DUP3 ADD SWAP1 POP DUP1 DUP3 GT ISZERO PUSH2 0x8A7 JUMPI PUSH2 0x8A6 PUSH2 0x81A JUMP JUMPDEST JUMPDEST SWAP3 SWAP2 POP POP JUMP INVALID LOG2 PUSH5 0x6970667358 0x22 SLT KECCAK256 SWAP16 0xF6 TSTORE PUSH10 0x783BD9CF8EB81300021A STOP 0x2A SHR 0xBD RJUMPI 0x2B4D 0xB5 COINBASE 0xA6 0xED 0xA9 LT 0xAF SIGNEXTEND 0xDE AND SWAP7 PUSH5 0x736F6C6343 STOP ADDMOD 0x22 STOP CALLER "
		},
		"gasEstimates": {
			"creation": {
				"codeDepositCost": "455000",
				"executionCost": "491",
				"totalCost": "455491"
			},
			"external": {
				"balances(address)": "2779",
				"contractBalance()": "356",
				"deposit()": "infinite",
				"safeWithdraw(uint256)": "infinite",
				"withdraw(uint256)": "infinite"
			}
		},
		"methodIdentifiers": {
			"balances(address)": "27e235e3",
			"contractBalance()": "8b7afe2e",
			"deposit()": "d0e30db0",
			"safeWithdraw(uint256)": "b0fd035b",
			"withdraw(uint256)": "2e1a7d4d"
		}
	},
	"abi": [
		{
			"anonymous": false,
			"inputs": [
				{
					"indexed": true,
					"internalType": "address",
					"name": "user",
					"type": "address"
				},
				{
					"indexed": false,
					"internalType": "uint256",
					"name": "amount",
					"type": "uint256"
				}
			],
			"name": "Deposit",
			"type": "event"
		},
		{
			"anonymous": false,
			"inputs": [
				{
					"indexed": true,
					"internalType": "address",
					"name": "attacker",
					"type": "address"
				}
			],
			"name": "ReentrancyBlocked",
			"type": "event"
		},
		{
			"anonymous": false,
			"inputs": [
				{
					"indexed": true,
					"internalType": "address",
					"name": "user",
					"type": "address"
				},
				{
					"indexed": false,
					"internalType": "uint256",
					"name": "amount",
					"type": "uint256"
				}
			],
			"name": "SafeWithdraw",
			"type": "event"
		},
		{
			"anonymous": false,
			"inputs": [
				{
					"indexed": true,
					"internalType": "address",
					"name": "user",
					"type": "address"
				},
				{
					"indexed": false,
					"internalType": "uint256",
					"name": "amount",
					"type": "uint256"
				}
			],
			"name": "VulnerableWithdraw",
			"type": "event"
		},
		{
			"inputs": [
				{
					"internalType": "address",
					"name": "",
					"type": "address"
				}
			],
			"name": "balances",
			"outputs": [
				{
					"internalType": "uint256",
					"name": "",
					"type": "uint256"
				}
			],
			"stateMutability": "view",
			"type": "function"
		},
		{
			"inputs": [],
			"name": "contractBalance",
			"outputs": [
				{
					"internalType": "uint256",
					"name": "",
					"type": "uint256"
				}
			],
			"stateMutability": "view",
			"type": "function"
		},
		{
			"inputs": [],
			"name": "deposit",
			"outputs": [],
			"stateMutability": "payable",
			"type": "function"
		},
		{
			"inputs": [
				{
					"internalType": "uint256",
					"name": "_amount",
					"type": "uint256"
				}
			],
			"name": "safeWithdraw",
			"outputs": [],
			"stateMutability": "nonpayable",
			"type": "function"
		},
		{
			"inputs": [
				{
					"internalType": "uint256",
					"name": "_amount",
					"type": "uint256"
				}
			],
			"name": "withdraw",
			"outputs": [],
			"stateMutability": "nonpayable",
			"type": "function"
		}
	]
}