{
	"data": {
		"bytecode": {
			"linkReferences": {},
			"object": "6080604052348015600e575f5ffd5b50610b308061001c5f395ff3fe608060405234801561000f575f5ffd5b50600436106100a7575f3560e01c806361bc221a1161006f57806361bc221a146101195780636a622364146101375780636d880102146101555780638dd7b84d146101735780638f32aa7814610191578063ff59c42b146101b0576100a7565b806302e00d18146100ab5780631865c57d146100b557806320644867146100d55780632ddbd13a146100df5780635b9af12b146100fd575b5f5ffd5b6100b36101cc565b005b6100bd6102e2565b6040516100cc939291906106c3565b60405180910390f35b6100dd6102f8565b005b6100e76103d8565b6040516100f491906106f8565b60405180910390f35b6101176004803603810190610112919061073f565b6103dd565b005b6101216104b6565b60405161012e91906106f8565b60405180910390f35b61013f6104bc565b60405161014c91906106f8565b60405180910390f35b61015d6104c2565b60405161016a91906106f8565b60405180910390f35b61017b6104c8565b60405161018891906106f8565b60405180910390f35b6101996104ce565b6040516101a792919061076a565b60405180910390f35b6101ca60048036038101906101c5919061073f565b6104de565b005b3073ffffffffffffffffffffffffffffffffffffffff16635b9af12b5f6040518263ffffffff1660e01b815260040161020591906107d3565b5f604051808303815f87803b15801561021c575f5ffd5b505af115801561022e573d5f5f3e3d5ffd5b505050503073ffffffffffffffffffffffffffffffffffffffff1663ff59c42b5f6040518263ffffffff1660e01b815260040161026b91906107d3565b5f604051808303815f87803b158015610282575f5ffd5b505af1925050508015610293575060015b6102df573373ffffffffffffffffffffffffffffffffffffffff167f5b54340f8a10c5c6074e0f2bfd98e98c5bd8eeeffdca10755eb0e3e61841c05060405160405180910390a26102e0565b5b565b5f5f5f5f54600254600154925092509250909192565b5f7fffffffffffffffffffffffffffffffffffffffffffffffffffffffffffffffff90503073ffffffffffffffffffffffffffffffffffffffff1663ff59c42b826040518263ffffffff1660e01b815260040161035591906106f8565b5f604051808303815f87803b15801561036c575f5ffd5b505af192505050801561037d575060015b6103d4573373ffffffffffffffffffffffffffffffffffffffff167fdbb6695cc01385c6d76ac9cc0252beaa6ad95cc534dff912335fcba0f3bd161f826040516103c791906106f8565b60405180910390a26103d5565b5b50565b5f5481565b5f5a905081600181905550815f5f8282546103f89190610819565b9250508190555060025f8154809291906104119061084c565b91905055503373ffffffffffffffffffffffffffffffffffffffff167f804c807c54b57d3c86f6030ac7bf3c3488e8b77f71bf64d3c9284d6b91fe27e1835f5460405161045f92919061076a565b60405180910390a25a816104739190610893565b6003819055507f4d605d112b717b70b80f393cc6a0239ae0459508e54af125ee28f92acbf7fc496003546040516104aa9190610920565b60405180910390a15050565b60025481565b60035481565b60015481565b60045481565b5f5f600354600454915091509091565b5f5a90505f8211610524576040517f08c379a000000000000000000000000000000000000000000000000000000000815260040161051b90610996565b60405180910390fd5b7fffffffffffffffffffffffffffffffffffffffffffffffffffffffffffffffff8203610586576040517f08c379a000000000000000000000000000000000000000000000000000000000815260040161057d906109fe565b60405180910390fd5b5f54825f546105959190610819565b10156105d6576040517f08c379a00000000000000000000000000000000000000000000000000000000081526004016105cd90610a66565b60405180910390fd5b81600181905550815f5f8282546105ed9190610819565b9250508190555060025f8154809291906106069061084c565b91905055503373ffffffffffffffffffffffffffffffffffffffff167f804c807c54b57d3c86f6030ac7bf3c3488e8b77f71bf64d3c9284d6b91fe27e1835f5460405161065492919061076a565b60405180910390a25a816106689190610893565b6004819055507f4d605d112b717b70b80f393cc6a0239ae0459508e54af125ee28f92acbf7fc4960045460405161069f9190610ace565b60405180910390a15050565b5f819050919050565b6106bd816106ab565b82525050565b5f6060820190506106d65f8301866106b4565b6106e360208301856106b4565b6106f060408301846106b4565b949350505050565b5f60208201905061070b5f8301846106b4565b92915050565b5f5ffd5b61071e816106ab565b8114610728575f5ffd5b50565b5f8135905061073981610715565b92915050565b5f6020828403121561075457610753610711565b5b5f6107618482850161072b565b91505092915050565b5f60408201905061077d5f8301856106b4565b61078a60208301846106b4565b9392505050565b5f819050919050565b5f819050919050565b5f6107bd6107b86107b384610791565b61079a565b6106ab565b9050919050565b6107cd816107a3565b82525050565b5f6020820190506107e65f8301846107c4565b92915050565b7f4e487b71000000000000000000000000000000000000000000000000000000005f52601160045260245ffd5b5f610823826106ab565b915061082e836106ab565b9250828201905080821115610846576108456107ec565b5b92915050565b5f610856826106ab565b91507fffffffffffffffffffffffffffffffffffffffffffffffffffffffffffffffff8203610888576108876107ec565b5b600182019050919050565b5f61089d826106ab565b91506108a8836106ab565b92508282039050818111156108c0576108bf6107ec565b5b92915050565b5f82825260208201905092915050565b7f556e7361666520416464000000000000000000000000000000000000000000005f82015250565b5f61090a600a836108c6565b9150610915826108d6565b602082019050919050565b5f6040820190508181035f830152610937816108fe565b905061094660208301846106b4565b92915050565b7f5a65726f206e6f7420616c6c6f776564000000000000000000000000000000005f82015250565b5f6109806010836108c6565b915061098b8261094c565b602082019050919050565b5f6020820190508181035f8301526109ad81610974565b9050919050565b7f4d61782075696e742072656a65637465640000000000000000000000000000005f82015250565b5f6109e86011836108c6565b91506109f3826109b4565b602082019050919050565b5f6020820190508181035f830152610a15816109dc565b9050919050565b7f4f766572666c6f772064657465637465640000000000000000000000000000005f82015250565b5f610a506011836108c6565b9150610a5b82610a1c565b602082019050919050565b5f6020820190508181035f830152610a7d81610a44565b9050919050565b7f53616665204164640000000000000000000000000000000000000000000000005f82015250565b5f610ab86008836108c6565b9150610ac382610a84565b602082019050919050565b5f6040820190508181035f830152610ae581610aac565b9050610af460208301846106b4565b9291505056fea2646970667358221220f3630f28149701319f84f0bff8a78368f23b0c1f3932cae5b003f814d9b429da64736f6c63430008220033",
			"opcodes": "PUSH1 0x80 PUSH1 0x40 MSTORE CALLVALUE DUP1 ISZERO PUSH1 0xE JUMPI PUSH0 PUSH0 REVERT JUMPDEST POP PUSH2 0xB30 DUP1 PUSH2 0x1C PUSH0 CODECOPY PUSH0 RETURN INVALID PUSH1 0x80 PUSH1 0x40 MSTORE CALLVALUE DUP1 ISZERO PUSH2 0xF JUMPI PUSH0 PUSH0 REVERT JUMPDEST POP PUSH1 0x4 CALLDATASIZE LT PUSH2 0xA7 JUMPI PUSH0 CALLDATALOAD PUSH1 0xE0 SHR DUP1 PUSH4 0x61BC221A GT PUSH2 0x6F JUMPI DUP1 PUSH4 0x61BC221A EQ PUSH2 0x119 JUMPI DUP1 PUSH4 0x6A622364 EQ PUSH2 0x137 JUMPI DUP1 PUSH4 0x6D880102 EQ PUSH2 0x155 JUMPI DUP1 PUSH4 0x8DD7B84D EQ PUSH2 0x173 JUMPI DUP1 PUSH4 0x8F32AA78 EQ PUSH2 0x191 JUMPI DUP1 PUSH4 0xFF59C42B EQ PUSH2 0x1B0 JUMPI PUSH2 0xA7 JUMP JUMPDEST DUP1 PUSH4 0x2E00D18 EQ PUSH2 0xAB JUMPI DUP1 PUSH4 0x1865C57D EQ PUSH2 0xB5 JUMPI DUP1 PUSH4 0x20644867 EQ PUSH2 0xD5 JUMPI DUP1 PUSH4 0x2DDBD13A EQ PUSH2 0xDF JUMPI DUP1 PUSH4 0x5B9AF12B EQ PUSH2 0xFD JUMPI JUMPDEST PUSH0 PUSH0 REVERT JUMPDEST PUSH2 0xB3 PUSH2 0x1CC JUMP JUMPDEST STOP JUMPDEST PUSH2 0xBD PUSH2 0x2E2 JUMP JUMPDEST PUSH1 0x40 MLOAD PUSH2 0xCC SWAP4 SWAP3 SWAP2 SWAP1 PUSH2 0x6C3 JUMP JUMPDEST PUSH1 0x40 MLOAD DUP1 SWAP2 SUB SWAP1 RETURN JUMPDEST PUSH2 0xDD PUSH2 0x2F8 JUMP JUMPDEST STOP JUMPDEST PUSH2 0xE7 PUSH2 0x3D8 JUMP JUMPDEST PUSH1 0x40 MLOAD PUSH2 0xF4 SWAP2 SWAP1 PUSH2 0x6F8 JUMP JUMPDEST PUSH1 0x40 MLOAD DUP1 SWAP2 SUB SWAP1 RETURN JUMPDEST PUSH2 0x117 PUSH1 0x4 DUP1 CALLDATASIZE SUB DUP2 ADD SWAP1 PUSH2 0x112 SWAP2 SWAP1 PUSH2 0x73F JUMP JUMPDEST PUSH2 0x3DD JUMP JUMPDEST STOP JUMPDEST PUSH2 0x121 PUSH2 0x4B6 JUMP JUMPDEST PUSH1 0x40 MLOAD PUSH2 0x12E SWAP2 SWAP1 PUSH2 0x6F8 JUMP JUMPDEST PUSH1 0x40 MLOAD DUP1 SWAP2 SUB SWAP1 RETURN JUMPDEST PUSH2 0x13F PUSH2 0x4BC JUMP JUMPDEST PUSH1 0x40 MLOAD PUSH2 0x14C SWAP2 SWAP1 PUSH2 0x6F8 JUMP JUMPDEST PUSH1 0x40 MLOAD DUP1 SWAP2 SUB SWAP1 RETURN JUMPDEST PUSH2 0x15D PUSH2 0x4C2 JUMP JUMPDEST PUSH1 0x40 MLOAD PUSH2 0x16A SWAP2 SWAP1 PUSH2 0x6F8 JUMP JUMPDEST PUSH1 0x40 MLOAD DUP1 SWAP2 SUB SWAP1 RETURN JUMPDEST PUSH2 0x17B PUSH2 0x4C8 JUMP JUMPDEST PUSH1 0x40 MLOAD PUSH2 0x188 SWAP2 SWAP1 PUSH2 0x6F8 JUMP JUMPDEST PUSH1 0x40 MLOAD DUP1 SWAP2 SUB SWAP1 RETURN JUMPDEST PUSH2 0x199 PUSH2 0x4CE JUMP JUMPDEST PUSH1 0x40 MLOAD PUSH2 0x1A7 SWAP3 SWAP2 SWAP1 PUSH2 0x76A JUMP JUMPDEST PUSH1 0x40 MLOAD DUP1 SWAP2 SUB SWAP1 RETURN JUMPDEST PUSH2 0x1CA PUSH1 0x4 DUP1 CALLDATASIZE SUB DUP2 ADD SWAP1 PUSH2 0x1C5 SWAP2 SWAP1 PUSH2 0x73F JUMP JUMPDEST PUSH2 0x4DE JUMP JUMPDEST STOP JUMPDEST ADDRESS PUSH20 0xFFFFFFFFFFFFFFFFFFFFFFFFFFFFFFFFFFFFFFFF AND PUSH4 0x5B9AF12B PUSH0 PUSH1 0x40 MLOAD DUP3 PUSH4 0xFFFFFFFF AND PUSH1 0xE0 SHL DUP2 MSTORE PUSH1 0x4 ADD PUSH2 0x205 SWAP2 SWAP1 PUSH2 0x7D3 JUMP JUMPDEST PUSH0 PUSH1 0x40 MLOAD DUP1 DUP4 SUB DUP2 PUSH0 DUP8 DUP1 EXTCODESIZE ISZERO DUP1 ISZERO PUSH2 0x21C JUMPI PUSH0 PUSH0 REVERT JUMPDEST POP GAS CALL ISZERO DUP1 ISZERO PUSH2 0x22E JUMPI RETURNDATASIZE PUSH0 PUSH0 RETURNDATACOPY RETURNDATASIZE PUSH0 REVERT JUMPDEST POP POP POP POP ADDRESS PUSH20 0xFFFFFFFFFFFFFFFFFFFFFFFFFFFFFFFFFFFFFFFF AND PUSH4 0xFF59C42B PUSH0 PUSH1 0x40 MLOAD DUP3 PUSH4 0xFFFFFFFF AND PUSH1 0xE0 SHL DUP2 MSTORE PUSH1 0x4 ADD PUSH2 0x26B SWAP2 SWAP1 PUSH2 0x7D3 JUMP JUMPDEST PUSH0 PUSH1 0x40 MLOAD DUP1 DUP4 SUB DUP2 PUSH0 DUP8 DUP1 EXTCODESIZE ISZERO DUP1 ISZERO PUSH2 0x282 JUMPI PUSH0 PUSH0 REVERT JUMPDEST POP GAS CALL SWAP3 POP POP POP DUP1 ISZERO PUSH2 0x293 JUMPI POP PUSH1 0x1 JUMPDEST PUSH2 0x2DF JUMPI CALLER PUSH20 0xFFFFFFFFFFFFFFFFFFFFFFFFFFFFFFFFFFFFFFFF AND PUSH32 0x5B54340F8A10C5C6074E0F2BFD98E98C5BD8EEEFFDCA10755EB0E3E61841C050 PUSH1 0x40 MLOAD PUSH1 0x40 MLOAD DUP1 SWAP2 SUB SWAP1 LOG2 PUSH2 0x2E0 JUMP JUMPDEST JUMPDEST JUMP JUMPDEST PUSH0 PUSH0 PUSH0 PUSH0 SLOAD PUSH1 0x2 SLOAD PUSH1 0x1 SLOAD SWAP3 POP SWAP3 POP SWAP3 POP SWAP1 SWAP2 SWAP3 JUMP JUMPDEST PUSH0 PUSH32 0xFFFFFFFFFFFFFFFFFFFFFFFFFFFFFFFFFFFFFFFFFFFFFFFFFFFFFFFFFFFFFFFF SWAP1 POP ADDRESS PUSH20 0xFFFFFFFFFFFFFFFFFFFFFFFFFFFFFFFFFFFFFFFF AND PUSH4 0xFF59C42B DUP3 PUSH1 0x40 MLOAD DUP3 PUSH4 0xFFFFFFFF AND PUSH1 0xE0 SHL DUP2 MSTORE PUSH1 0x4 ADD PUSH2 0x355 SWAP2 SWAP1 PUSH2 0x6F8 JUMP JUMPDEST PUSH0 PUSH1 0x40 MLOAD DUP1 DUP4 SUB DUP2 PUSH0 DUP8 DUP1 EXTCODESIZE ISZERO DUP1 ISZERO PUSH2 0x36C JUMPI PUSH0 PUSH0 REVERT JUMPDEST POP GAS CALL SWAP3 POP POP POP DUP1 ISZERO PUSH2 0x37D JUMPI POP PUSH1 0x1 JUMPDEST PUSH2 0x3D4 JUMPI CALLER PUSH20 0xFFFFFFFFFFFFFFFFFFFFFFFFFFFFFFFFFFFFFFFF AND PUSH32 0xDBB6695CC01385C6D76AC9CC0252BEAA6AD95CC534DFF912335FCBA0F3BD161F DUP3 PUSH1 0x40 MLOAD PUSH2 0x3C7 SWAP2 SWAP1 PUSH2 0x6F8 JUMP JUMPDEST PUSH1 0x40 MLOAD DUP1 SWAP2 SUB SWAP1 LOG2 PUSH2 0x3D5 JUMP JUMPDEST JUMPDEST POP JUMP JUMPDEST PUSH0 SLOAD DUP2 JUMP JUMPDEST PUSH0 GAS SWAP1 POP DUP2 PUSH1 0x1 DUP2 SWAP1 SSTORE POP DUP2 PUSH0 PUSH0 DUP3 DUP3 SLOAD PUSH2 0x3F8 SWAP2 SWAP1 PUSH2 0x819 JUMP JUMPDEST SWAP3 POP POP DUP2 SWAP1 SSTORE POP PUSH1 0x2 PUSH0 DUP2 SLOAD DUP1 SWAP3 SWAP2 SWAP1 PUSH2 0x411 SWAP1 PUSH2 0x84C JUMP JUMPDEST SWAP2 SWAP1 POP SSTORE POP CALLER PUSH20 0xFFFFFFFFFFFFFFFFFFFFFFFFFFFFFFFFFFFFFFFF AND PUSH32 0x804C807C54B57D3C86F6030AC7BF3C3488E8B77F71BF64D3C9284D6B91FE27E1 DUP4 PUSH0 SLOAD PUSH1 0x40 MLOAD PUSH2 0x45F SWAP3 SWAP2 SWAP1 PUSH2 0x76A JUMP JUMPDEST PUSH1 0x40 MLOAD DUP1 SWAP2 SUB SWAP1 LOG2 GAS DUP2 PUSH2 0x473 SWAP2 SWAP1 PUSH2 0x893 JUMP JUMPDEST PUSH1 0x3 DUP2 SWAP1 SSTORE POP PUSH32 0x4D605D112B717B70B80F393CC6A0239AE0459508E54AF125EE28F92ACBF7FC49 PUSH1 0x3 SLOAD PUSH1 0x40 MLOAD PUSH2 0x4AA SWAP2 SWAP1 PUSH2 0x920 JUMP JUMPDEST PUSH1 0x40 MLOAD DUP1 SWAP2 SUB SWAP1 LOG1 POP POP JUMP JUMPDEST PUSH1 0x2 SLOAD DUP2 JUMP JUMPDEST PUSH1 0x3 SLOAD DUP2 JUMP JUMPDEST PUSH1 0x1 SLOAD DUP2 JUMP JUMPDEST PUSH1 0x4 SLOAD DUP2 JUMP JUMPDEST PUSH0 PUSH0 PUSH1 0x3 SLOAD PUSH1 0x4 SLOAD SWAP2 POP SWAP2 POP SWAP1 SWAP2 JUMP JUMPDEST PUSH0 GAS SWAP1 POP PUSH0 DUP3 GT PUSH2 0x524 JUMPI PUSH1 0x40 MLOAD PUSH32 0x8C379A000000000000000000000000000000000000000000000000000000000 DUP2 MSTORE PUSH1 0x4 ADD PUSH2 0x51B SWAP1 PUSH2 0x996 JUMP JUMPDEST PUSH1 0x40 MLOAD DUP1 SWAP2 SUB SWAP1 REVERT JUMPDEST PUSH32 0xFFFFFFFFFFFFFFFFFFFFFFFFFFFFFFFFFFFFFFFFFFFFFFFFFFFFFFFFFFFFFFFF DUP3 SUB PUSH2 0x586 JUMPI PUSH1 0x40 MLOAD PUSH32 0x8C379A000000000000000000000000000000000000000000000000000000000 DUP2 MSTORE PUSH1 0x4 ADD PUSH2 0x57D SWAP1 PUSH2 0x9FE JUMP JUMPDEST PUSH1 0x40 MLOAD DUP1 SWAP2 SUB SWAP1 REVERT JUMPDEST PUSH0 SLOAD DUP3 PUSH0 SLOAD PUSH2 0x595 SWAP2 SWAP1 PUSH2 0x819 JUMP JUMPDEST LT ISZERO PUSH2 0x5D6 JUMPI PUSH1 0x40 MLOAD PUSH32 0x8C379A000000000000000000000000000000000000000000000000000000000 DUP2 MSTORE PUSH1 0x4 ADD PUSH2 0x5CD SWAP1 PUSH2 0xA66 JUMP JUMPDEST PUSH1 0x40 MLOAD DUP1 SWAP2 SUB SWAP1 REVERT JUMPDEST DUP2 PUSH1 0x1 DUP2 SWAP1 SSTORE POP DUP2 PUSH0 PUSH0 DUP3 DUP3 SLOAD PUSH2 0x5ED SWAP2 SWAP1 PUSH2 0x819 JUMP JUMPDEST SWAP3 POP POP DUP2 SWAP1 SSTORE POP PUSH1 0x2 PUSH0 DUP2 SLOAD DUP1 SWAP3 SWAP2 SWAP1 PUSH2 0x606 SWAP1 PUSH2 0x84C JUMP JUMPDEST SWAP2 SWAP1 POP SSTORE POP CALLER PUSH20 0xFFFFFFFFFFFFFFFFFFFFFFFFFFFFFFFFFFFFFFFF AND PUSH32 0x804C807C54B57D3C86F6030AC7BF3C3488E8B77F71BF64D3C9284D6B91FE27E1 DUP4 PUSH0 SLOAD PUSH1 0x40 MLOAD PUSH2 0x654 SWAP3 SWAP2 SWAP1 PUSH2 0x76A JUMP JUMPDEST PUSH1 0x40 MLOAD DUP1 SWAP2 SUB SWAP1 LOG2 GAS DUP2 PUSH2 0x668 SWAP2 SWAP1 PUSH2 0x893 JUMP JUMPDEST PUSH1 0x4 DUP2 SWAP1 SSTORE POP PUSH32 0x4D605D112B717B70B80F393CC6A0239AE0459508E54AF125EE28F92ACBF7FC49 PUSH1 0x4 SLOAD PUSH1 0x40 MLOAD PUSH2 0x69F SWAP2 SWAP1 PUSH2 0xACE JUMP JUMPDEST PUSH1 0x40 MLOAD DUP1 SWAP2 SUB SWAP1 LOG1 POP POP JUMP JUMPDEST PUSH0 DUP2 SWAP1 POP SWAP2 SWAP1 POP JUMP JUMPDEST PUSH2 0x6BD DUP2 PUSH2 0x6AB JUMP JUMPDEST DUP3 MSTORE POP POP JUMP JUMPDEST PUSH0 PUSH1 0x60 DUP3 ADD SWAP1 POP PUSH2 0x6D6 PUSH0 DUP4 ADD DUP7 PUSH2 0x6B4 JUMP JUMPDEST PUSH2 0x6E3 PUSH1 0x20 DUP4 ADD DUP6 PUSH2 0x6B4 JUMP JUMPDEST PUSH2 0x6F0 PUSH1 0x40 DUP4 ADD DUP5 PUSH2 0x6B4 JUMP JUMPDEST SWAP5 SWAP4 POP POP POP POP JUMP JUMPDEST PUSH0 PUSH1 0x20 DUP3 ADD SWAP1 POP PUSH2 0x70B PUSH0 DUP4 ADD DUP5 PUSH2 0x6B4 JUMP JUMPDEST SWAP3 SWAP2 POP POP JUMP JUMPDEST PUSH0 PUSH0 REVERT JUMPDEST PUSH2 0x71E DUP2 PUSH2 0x6AB JUMP JUMPDEST DUP2 EQ PUSH2 0x728 JUMPI PUSH0 PUSH0 REVERT JUMPDEST POP JUMP JUMPDEST PUSH0 DUP2 CALLDATALOAD SWAP1 POP PUSH2 0x739 DUP2 PUSH2 0x715 JUMP JUMPDEST SWAP3 SWAP2 POP POP JUMP JUMPDEST PUSH0 PUSH1 0x20 DUP3 DUP5 SUB SLT ISZERO PUSH2 0x754 JUMPI PUSH2 0x753 PUSH2 0x711 JUMP JUMPDEST JUMPDEST PUSH0 PUSH2 0x761 DUP5 DUP3 DUP6 ADD PUSH2 0x72B JUMP JUMPDEST SWAP2 POP POP SWAP3 SWAP2 POP POP JUMP JUMPDEST PUSH0 PUSH1 0x40 DUP3 ADD SWAP1 POP PUSH2 0x77D PUSH0 DUP4 ADD DUP6 PUSH2 0x6B4 JUMP JUMPDEST PUSH2 0x78A PUSH1 0x20 DUP4 ADD DUP5 PUSH2 0x6B4 JUMP JUMPDEST SWAP4 SWAP3 POP POP POP JUMP JUMPDEST PUSH0 DUP2 SWAP1 POP SWAP2 SWAP1 POP JUMP JUMPDEST PUSH0 DUP2 SWAP1 POP SWAP2 SWAP1 POP JUMP JUMPDEST PUSH0 PUSH2 0x7BD PUSH2 0x7B8 PUSH2 0x7B3 DUP5 PUSH2 0x791 JUMP JUMPDEST PUSH2 0x79A JUMP JUMPDEST PUSH2 0x6AB JUMP JUMPDEST SWAP1 POP SWAP2 SWAP1 POP JUMP JUMPDEST PUSH2 0x7CD DUP2 PUSH2 0x7A3 JUMP JUMPDEST DUP3 MSTORE POP POP JUMP JUMPDEST PUSH0 PUSH1 0x20 DUP3 ADD SWAP1 POP PUSH2 0x7E6 PUSH0 DUP4 ADD DUP5 PUSH2 0x7C4 JUMP JUMPDEST SWAP3 SWAP2 POP POP JUMP JUMPDEST PUSH32 0x4E487B7100000000000000000000000000000000000000000000000000000000 PUSH0 MSTORE PUSH1 0x11 PUSH1 0x4 MSTORE PUSH1 0x24 PUSH0 REVERT JUMPDEST PUSH0 PUSH2 0x823 DUP3 PUSH2 0x6AB JUMP JUMPDEST SWAP2 POP PUSH2 0x82E DUP4 PUSH2 0x6AB JUMP JUMPDEST SWAP3 POP DUP3 DUP3 ADD SWAP1 POP DUP1 DUP3 GT ISZERO PUSH2 0x846 JUMPI PUSH2 0x845 PUSH2 0x7EC JUMP JUMPDEST JUMPDEST SWAP3 SWAP2 POP POP JUMP JUMPDEST PUSH0 PUSH2 0x856 DUP3 PUSH2 0x6AB JUMP JUMPDEST SWAP2 POP PUSH32 0xFFFFFFFFFFFFFFFFFFFFFFFFFFFFFFFFFFFFFFFFFFFFFFFFFFFFFFFFFFFFFFFF DUP3 SUB PUSH2 0x888 JUMPI PUSH2 0x887 PUSH2 0x7EC JUMP JUMPDEST JUMPDEST PUSH1 0x1 DUP3 ADD SWAP1 POP SWAP2 SWAP1 POP JUMP JUMPDEST PUSH0 PUSH2 0x89D DUP3 PUSH2 0x6AB JUMP JUMPDEST SWAP2 POP PUSH2 0x8A8 DUP4 PUSH2 0x6AB JUMP JUMPDEST SWAP3 POP DUP3 DUP3 SUB SWAP1 POP DUP2 DUP2 GT ISZERO PUSH2 0x8C0 JUMPI PUSH2 0x8BF PUSH2 0x7EC JUMP JUMPDEST JUMPDEST SWAP3 SWAP2 POP POP JUMP JUMPDEST PUSH0 DUP3 DUP3 MSTORE PUSH1 0x20 DUP3 ADD SWAP1 POP SWAP3 SWAP2 POP POP JUMP JUMPDEST PUSH32 0x556E736166652041646400000000000000000000000000000000000000000000 PUSH0 DUP3 ADD MSTORE POP JUMP JUMPDEST PUSH0 PUSH2 0x90A PUSH1 0xA DUP4 PUSH2 0x8C6 JUMP JUMPDEST SWAP2 POP PUSH2 0x915 DUP3 PUSH2 0x8D6 JUMP JUMPDEST PUSH1 0x20 DUP3 ADD SWAP1 POP SWAP2 SWAP1 POP JUMP JUMPDEST PUSH0 PUSH1 0x40 DUP3 ADD SWAP1 POP DUP2 DUP2 SUB PUSH0 DUP4 ADD MSTORE PUSH2 0x937 DUP2 PUSH2 0x8FE JUMP JUMPDEST SWAP1 POP PUSH2 0x946 PUSH1 0x20 DUP4 ADD DUP5 PUSH2 0x6B4 JUMP JUMPDEST SWAP3 SWAP2 POP POP JUMP JUMPDEST PUSH32 0x5A65726F206E6F7420616C6C6F77656400000000000000000000000000000000 PUSH0 DUP3 ADD MSTORE POP JUMP JUMPDEST PUSH0 PUSH2 0x980 PUSH1 0x10 DUP4 PUSH2 0x8C6 JUMP JUMPDEST SWAP2 POP PUSH2 0x98B DUP3 PUSH2 0x94C JUMP JUMPDEST PUSH1 0x20 DUP3 ADD SWAP1 POP SWAP2 SWAP1 POP JUMP JUMPDEST PUSH0 PUSH1 0x20 DUP3 ADD SWAP1 POP DUP2 DUP2 SUB PUSH0 DUP4 ADD MSTORE PUSH2 0x9AD DUP2 PUSH2 0x974 JUMP JUMPDEST SWAP1 POP SWAP2 SWAP1 POP JUMP JUMPDEST PUSH32 0x4D61782075696E742072656A6563746564000000000000000000000000000000 PUSH0 DUP3 ADD MSTORE POP JUMP JUMPDEST PUSH0 PUSH2 0x9E8 PUSH1 0x11 DUP4 PUSH2 0x8C6 JUMP JUMPDEST SWAP2 POP PUSH2 0x9F3 DUP3 PUSH2 0x9B4 JUMP JUMPDEST PUSH1 0x20 DUP3 ADD SWAP1 POP SWAP2 SWAP1 POP JUMP JUMPDEST PUSH0 PUSH1 0x20 DUP3 ADD SWAP1 POP DUP2 DUP2 SUB PUSH0 DUP4 ADD MSTORE PUSH2 0xA15 DUP2 PUSH2 0x9DC JUMP JUMPDEST SWAP1 POP SWAP2 SWAP1 POP JUMP JUMPDEST PUSH32 0x4F766572666C6F77206465746563746564000000000000000000000000000000 PUSH0 DUP3 ADD MSTORE POP JUMP JUMPDEST PUSH0 PUSH2 0xA50 PUSH1 0x11 DUP4 PUSH2 0x8C6 JUMP JUMPDEST SWAP2 POP PUSH2 0xA5B DUP3 PUSH2 0xA1C JUMP JUMPDEST PUSH1 0x20 DUP3 ADD SWAP1 POP SWAP2 SWAP1 POP JUMP JUMPDEST PUSH0 PUSH1 0x20 DUP3 ADD SWAP1 POP DUP2 DUP2 SUB PUSH0 DUP4 ADD MSTORE PUSH2 0xA7D DUP2 PUSH2 0xA44 JUMP JUMPDEST SWAP1 POP SWAP2 SWAP1 POP JUMP JUMPDEST PUSH32 0x5361666520416464000000000000000000000000000000000000000000000000 PUSH0 DUP3 ADD MSTORE POP JUMP JUMPDEST PUSH0 PUSH2 0xAB8 PUSH1 0x8 DUP4 PUSH2 0x8C6 JUMP JUMPDEST SWAP2 POP PUSH2 0xAC3 DUP3 PUSH2 0xA84 JUMP JUMPDEST PUSH1 0x20 DUP3 ADD SWAP1 POP SWAP2 SWAP1 POP JUMP JUMPDEST PUSH0 PUSH1 0x40 DUP3 ADD SWAP1 POP DUP2 DUP2 SUB PUSH0 DUP4 ADD MSTORE PUSH2 0xAE5 DUP2 PUSH2 0xAAC JUMP JUMPDEST SWAP1 POP PUSH2 0xAF4 PUSH1 0x20 DUP4 ADD DUP5 PUSH2 0x6B4 JUMP JUMPDEST SWAP3 SWAP2 POP POP JUMP INVALID LOG2 PUSH5 0x6970667358 0x22 SLT KECCAK256 RETURN PUSH4 0xF281497 ADD BALANCE SWAP16 DUP5 CREATE 0xBF EXTCALL 0xA7 DUP4 PUSH9 0xF23B0C1F3932CAE5B0 SUB EXTCALL EQ 0xD9 0xB4 0x29 0xDA PUSH5 0x736F6C6343 STOP ADDMOD 0x22 STOP CALLER "
		},
		"gasEstimates": {
			"creation": {
				"codeDepositCost": "572800",
				"executionCost": "604",
				"totalCost": "573404"
			},
			"external": {
				"addValue(uint256)": "infinite",
				"addValueSafe(uint256)": "infinite",
				"compareGas()": "infinite",
				"counter()": "2425",
				"getState()": "infinite",
				"lastInput()": "2469",
				"safeGasUsed()": "2491",
				"testMaxUint()": "infinite",
				"testZero()": "infinite",
				"total()": "2491",
				"unsafeGasUsed()": "2447"
			}
		},
		"methodIdentifiers": {
			"addValue(uint256)": "5b9af12b",
			"addValueSafe(uint256)": "ff59c42b",
			"compareGas()": "8f32aa78",
			"counter()": "61bc221a",
			"getState()": "1865c57d",
			"lastInput()": "6d880102",
			"safeGasUsed()": "8dd7b84d",
			"testMaxUint()": "20644867",
			"testZero()": "02e00d18",
			"total()": "2ddbd13a",
			"unsafeGasUsed()": "6a622364"
		}
	},
	"abi": [
		{
			"anonymous": false,
			"inputs": [
				{
					"indexed": false,
					"internalType": "string",
					"name": "operation",
					"type": "string"
				},
				{
					"indexed": false,
					"internalType": "uint256",
					"name": "gasUsed",
					"type": "uint256"
				}
			],
			"name": "GasMeasured",
			"type": "event"
		},
		{
			"anonymous": false,
			"inputs": [
				{
					"indexed": true,
					"internalType": "address",
					"name": "user",
					"type": "address"
				},
				{
					"indexed": false,
					"internalType": "uint256",
					"name": "value",
					"type": "uint256"
				}
			],
			"name": "MaxValueRejected",
			"type": "event"
		},
		{
			"anonymous": false,
			"inputs": [
				{
					"indexed": true,
					"internalType": "address",
					"name": "user",
					"type": "address"
				},
				{
					"indexed": false,
					"internalType": "uint256",
					"name": "value",
					"type": "uint256"
				},
				{
					"indexed": false,
					"internalType": "uint256",
					"name": "newTotal",
					"type": "uint256"
				}
			],
			"name": "ValueAdded",
			"type": "event"
		},
		{
			"anonymous": false,
			"inputs": [
				{
					"indexed": true,
					"internalType": "address",
					"name": "user",
					"type": "address"
				}
			],
			"name": "ZeroRejected",
			"type": "event"
		},
		{
			"inputs": [
				{
					"internalType": "uint256",
					"name": "value",
					"type": "uint256"
				}
			],
			"name": "addValue",
			"outputs": [],
			"stateMutability": "nonpayable",
			"type": "function"
		},
		{
			"inputs": [
				{
					"internalType": "uint256",
					"name": "value",
					"type": "uint256"
				}
			],
			"name": "addValueSafe",
			"outputs": [],
			"stateMutability": "nonpayable",
			"type": "function"
		},
		{
			"inputs": [],
			"name": "compareGas",
			"outputs": [
				{
					"internalType": "uint256",
					"name": "unsafeGas",
					"type": "uint256"
				},
				{
					"internalType": "uint256",
					"name": "safeGas",
					"type": "uint256"
				}
			],
			"stateMutability": "view",
			"type": "function"
		},
		{
			"inputs": [],
			"name": "counter",
			"outputs": [
				{
					"internalType": "uint256",
					"name": "",
					"type": "uint256"
				}
			],
			"stateMutability": "view",
			"type": "function"
		},
		{
			"inputs": [],
			"name": "getState",
			"outputs": [
				{
					"internalType": "uint256",
					"name": "currentTotal",
					"type": "uint256"
				},
				{
					"internalType": "uint256",
					"name": "currentCounter",
					"type": "uint256"
				},
				{
					"internalType": "uint256",
					"name": "currentLastInput",
					"type": "uint256"
				}
			],
			"stateMutability": "view",
			"type": "function"
		},
		{
			"inputs": [],
			"name": "lastInput",
			"outputs": [
				{
					"internalType": "uint256",
					"name": "",
					"type": "uint256"
				}
			],
			"stateMutability": "view",
			"type": "function"
		},
		{
			"inputs": [],
			"name": "safeGasUsed",
			"outputs": [
				{
					"internalType": "uint256",
					"name": "",
					"type": "uint256"
				}
			],
			"stateMutability": "view",
			"type": "function"
		},
		{
			"inputs": [],
			"name": "testMaxUint",
			"outputs": [],
			"stateMutability": "nonpayable",
			"type": "function"
		},
		{
			"inputs": [],
			"name": "testZero",
			"outputs": [],
			"stateMutability": "nonpayable",
			"type": "function"
		},
		{
			"inputs": [],
			"name": "total",
			"outputs": [
				{
					"internalType": "uint256",
					"name": "",
					"type": "uint256"
				}
			],
			"stateMutability": "view",
			"type": "function"
		},
		{
			"inputs": [],
			"name": "unsafeGasUsed",
			"outputs": [
				{
					"internalType": "uint256",
					"name": "",
					"type": "uint256"
				}
			],
			"stateMutability": "view",
			"type": "function"
		}
	]
}